{
  "address": "0x2147085768426EcbD08FC6DDc31c3BD979ef279f",
  "abi": [
    {
      "anonymous": false,
      "inputs": [
        {
          "indexed": false,
          "internalType": "uint256",
          "name": "gameId",
          "type": "uint256"
        },
        {
          "components": [
            {
              "internalType": "bool",
              "name": "active",
              "type": "bool"
            },
            {
              "internalType": "uint256[]",
              "name": "playerIndexes",
              "type": "uint256[]"
            },
            {
              "internalType": "uint256",
              "name": "currentPlayerTurnIndex",
              "type": "uint256"
            },
            {
              "internalType": "uint256",
              "name": "numPlayers",
              "type": "uint256"
            },
            {
              "internalType": "uint256",
              "name": "turnsTaken",
              "type": "uint256"
            },
            {
              "components": [
                {
                  "internalType": "uint8",
                  "name": "bugEvents",
                  "type": "uint8"
                },
                {
                  "internalType": "uint8",
                  "name": "mysteryEvents",
                  "type": "uint8"
                },
                {
                  "internalType": "uint8",
                  "name": "scavEvents",
                  "type": "uint8"
                },
                {
                  "internalType": "uint8",
                  "name": "shipEvents",
                  "type": "uint8"
                }
              ],
              "internalType": "struct BCTypes.EventTracker",
              "name": "eventTracker",
              "type": "tuple"
            },
            {
              "internalType": "uint256",
              "name": "mapId",
              "type": "uint256"
            },
            {
              "internalType": "uint256",
              "name": "eventPlayerId",
              "type": "uint256"
            },
            {
              "internalType": "uint256",
              "name": "eventNumber",
              "type": "uint256"
            },
            {
              "internalType": "enum BCTypes.BCEventType",
              "name": "eventType",
              "type": "uint8"
            },
            {
              "components": [
                {
                  "internalType": "uint8",
                  "name": "row",
                  "type": "uint8"
                },
                {
                  "internalType": "uint8",
                  "name": "col",
                  "type": "uint8"
                }
              ],
              "internalType": "struct BCTypes.Position",
              "name": "eventPosition",
              "type": "tuple"
            },
            {
              "internalType": "uint256[]",
              "name": "unusedBugEvents",
              "type": "uint256[]"
            },
            {
              "internalType": "uint256[]",
              "name": "unusedMysteryEvents",
              "type": "uint256[]"
            },
            {
              "internalType": "uint256[]",
              "name": "unusedScavEvents",
              "type": "uint256[]"
            },
            {
              "internalType": "uint256[]",
              "name": "unusedShipEvents",
              "type": "uint256[]"
            },
            {
              "internalType": "uint256",
              "name": "turnTimeLimit",
              "type": "uint256"
            },
            {
              "internalType": "uint256",
              "name": "lastTurnTimestamp",
              "type": "uint256"
            },
            {
              "internalType": "uint256",
              "name": "DEBUG_returnAmount",
              "type": "uint256"
            }
          ],
          "indexed": false,
          "internalType": "struct BCTypes.Game",
          "name": "game",
          "type": "tuple"
        },
        {
          "indexed": false,
          "internalType": "uint256",
          "name": "playerId",
          "type": "uint256"
        },
        {
          "components": [
            {
              "internalType": "address",
              "name": "owner",
              "type": "address"
            },
            {
              "internalType": "uint256",
              "name": "characterId",
              "type": "uint256"
            },
            {
              "components": [
                {
                  "internalType": "int8",
                  "name": "health",
                  "type": "int8"
                },
                {
                  "internalType": "int8",
                  "name": "carry",
                  "type": "int8"
                },
                {
                  "internalType": "int8",
                  "name": "defense",
                  "type": "int8"
                },
                {
                  "internalType": "int8",
                  "name": "hack",
                  "type": "int8"
                },
                {
                  "internalType": "int8",
                  "name": "breach",
                  "type": "int8"
                },
                {
                  "internalType": "int8",
                  "name": "shoot",
                  "type": "int8"
                },
                {
                  "internalType": "int8",
                  "name": "melee",
                  "type": "int8"
                }
              ],
              "internalType": "struct BCTypes.Traits",
              "name": "currentTraits",
              "type": "tuple"
            },
            {
              "components": [
                {
                  "internalType": "uint8",
                  "name": "row",
                  "type": "uint8"
                },
                {
                  "internalType": "uint8",
                  "name": "col",
                  "type": "uint8"
                }
              ],
              "internalType": "struct BCTypes.Position",
              "name": "position",
              "type": "tuple"
            },
            {
              "internalType": "int8",
              "name": "healthDmgTaken",
              "type": "int8"
            },
            {
              "internalType": "uint8",
              "name": "armorDmgTaken",
              "type": "uint8"
            },
            {
              "internalType": "uint8",
              "name": "actionsTaken",
              "type": "uint8"
            },
            {
              "internalType": "uint8",
              "name": "dataTokens",
              "type": "uint8"
            },
            {
              "internalType": "uint8[]",
              "name": "currentEffects",
              "type": "uint8[]"
            },
            {
              "internalType": "uint8",
              "name": "numItemsHeld",
              "type": "uint8"
            },
            {
              "internalType": "bool",
              "name": "canHarmOthers",
              "type": "bool"
            },
            {
              "internalType": "bool",
              "name": "dead",
              "type": "bool"
            },
            {
              "internalType": "bool",
              "name": "hasEgg",
              "type": "bool"
            },
            {
              "internalType": "uint256",
              "name": "gameId",
              "type": "uint256"
            }
          ],
          "indexed": false,
          "internalType": "struct BCTypes.Player",
          "name": "player",
          "type": "tuple"
        },
        {
          "indexed": false,
          "internalType": "enum BCTypes.Action",
          "name": "action",
          "type": "uint8"
        }
      ],
      "name": "ActionCompleteEvent",
      "type": "event"
    },
    {
      "anonymous": false,
      "inputs": [
        {
          "indexed": false,
          "internalType": "uint256",
          "name": "gameId",
          "type": "uint256"
        },
        {
          "indexed": false,
          "internalType": "uint256",
          "name": "roll",
          "type": "uint256"
        },
        {
          "indexed": false,
          "internalType": "uint256",
          "name": "forValue",
          "type": "uint256"
        },
        {
          "indexed": false,
          "internalType": "uint256",
          "name": "against",
          "type": "uint256"
        }
      ],
      "name": "ChallengeEvent",
      "type": "event"
    },
    {
      "anonymous": false,
      "inputs": [
        {
          "indexed": false,
          "internalType": "uint256",
          "name": "gameId",
          "type": "uint256"
        },
        {
          "indexed": false,
          "internalType": "uint256",
          "name": "roll",
          "type": "uint256"
        }
      ],
      "name": "DiceRollEvent",
      "type": "event"
    },
    {
      "anonymous": false,
      "inputs": [
        {
          "indexed": true,
          "internalType": "address",
          "name": "previousOwner",
          "type": "address"
        },
        {
          "indexed": true,
          "internalType": "address",
          "name": "newOwner",
          "type": "address"
        }
      ],
      "name": "OwnershipTransferred",
      "type": "event"
    },
    {
      "inputs": [
        {
          "internalType": "int256",
          "name": "x",
          "type": "int256"
        }
      ],
      "name": "abs",
      "outputs": [
        {
          "internalType": "int256",
          "name": "",
          "type": "int256"
        }
      ],
      "stateMutability": "pure",
      "type": "function"
    },
    {
      "inputs": [],
      "name": "bcEvents",
      "outputs": [
        {
          "internalType": "contract EventsInterface",
          "name": "",
          "type": "address"
        }
      ],
      "stateMutability": "view",
      "type": "function"
    },
    {
      "inputs": [],
      "name": "chars",
      "outputs": [
        {
          "internalType": "contract CharInterface",
          "name": "",
          "type": "address"
        }
      ],
      "stateMutability": "view",
      "type": "function"
    },
    {
      "inputs": [],
      "name": "charsAddress",
      "outputs": [
        {
          "internalType": "address",
          "name": "",
          "type": "address"
        }
      ],
      "stateMutability": "view",
      "type": "function"
    },
    {
      "inputs": [
        {
          "internalType": "uint256",
          "name": "_gameId",
          "type": "uint256"
        },
        {
          "internalType": "uint256",
          "name": "_playerId",
          "type": "uint256"
        }
      ],
      "name": "debugMovePlayerForTesting",
      "outputs": [],
      "stateMutability": "nonpayable",
      "type": "function"
    },
    {
      "inputs": [
        {
          "internalType": "uint256",
          "name": "_gameId",
          "type": "uint256"
        },
        {
          "internalType": "uint256",
          "name": "_playerId",
          "type": "uint256"
        },
        {
          "internalType": "uint256",
          "name": "_row",
          "type": "uint256"
        },
        {
          "internalType": "uint256",
          "name": "_col",
          "type": "uint256"
        }
      ],
      "name": "debugMovePlayerToRoom",
      "outputs": [],
      "stateMutability": "nonpayable",
      "type": "function"
    },
    {
      "inputs": [
        {
          "internalType": "uint256",
          "name": "_gameId",
          "type": "uint256"
        },
        {
          "internalType": "uint256",
          "name": "_playerId",
          "type": "uint256"
        },
        {
          "internalType": "enum BCTypes.Action",
          "name": "_action",
          "type": "uint8"
        },
        {
          "internalType": "enum BCTypes.Followthrough",
          "name": "_followthrough",
          "type": "uint8"
        },
        {
          "internalType": "uint256",
          "name": "_1stDirection",
          "type": "uint256"
        },
        {
          "internalType": "uint256",
          "name": "_2ndDirection",
          "type": "uint256"
        },
        {
          "internalType": "uint256[]",
          "name": "_ids",
          "type": "uint256[]"
        }
      ],
      "name": "doAction",
      "outputs": [],
      "stateMutability": "payable",
      "type": "function"
    },
    {
      "inputs": [],
      "name": "games",
      "outputs": [
        {
          "internalType": "contract GamesInterface",
          "name": "",
          "type": "address"
        }
      ],
      "stateMutability": "view",
      "type": "function"
    },
    {
      "inputs": [
        {
          "components": [
            {
              "internalType": "uint8",
              "name": "row",
              "type": "uint8"
            },
            {
              "internalType": "uint8",
              "name": "col",
              "type": "uint8"
            }
          ],
          "internalType": "struct BCTypes.Position",
          "name": "_firstRoom",
          "type": "tuple"
        },
        {
          "components": [
            {
              "internalType": "uint8",
              "name": "row",
              "type": "uint8"
            },
            {
              "internalType": "uint8",
              "name": "col",
              "type": "uint8"
            }
          ],
          "internalType": "struct BCTypes.Position",
          "name": "_secondRoom",
          "type": "tuple"
        }
      ],
      "name": "getDirectionBetween",
      "outputs": [
        {
          "internalType": "uint256",
          "name": "",
          "type": "uint256"
        }
      ],
      "stateMutability": "pure",
      "type": "function"
    },
    {
      "inputs": [
        {
          "internalType": "uint256",
          "name": "_direction",
          "type": "uint256"
        },
        {
          "components": [
            {
              "internalType": "uint8",
              "name": "row",
              "type": "uint8"
            },
            {
              "internalType": "uint8",
              "name": "col",
              "type": "uint8"
            }
          ],
          "internalType": "struct BCTypes.Position",
          "name": "_start",
          "type": "tuple"
        }
      ],
      "name": "getNeighborRoom",
      "outputs": [
        {
          "components": [
            {
              "internalType": "uint8",
              "name": "row",
              "type": "uint8"
            },
            {
              "internalType": "uint8",
              "name": "col",
              "type": "uint8"
            }
          ],
          "internalType": "struct BCTypes.Position",
          "name": "",
          "type": "tuple"
        }
      ],
      "stateMutability": "pure",
      "type": "function"
    },
    {
      "inputs": [
        {
          "internalType": "uint256",
          "name": "_traitNum",
          "type": "uint256"
        },
        {
          "internalType": "uint256",
          "name": "_subTraitNum",
          "type": "uint256"
        }
      ],
      "name": "getUIOffset",
      "outputs": [
        {
          "internalType": "uint256",
          "name": "",
          "type": "uint256"
        }
      ],
      "stateMutability": "pure",
      "type": "function"
    },
    {
      "inputs": [],
      "name": "items",
      "outputs": [
        {
          "internalType": "contract ItemsInterface",
          "name": "",
          "type": "address"
        }
      ],
      "stateMutability": "view",
      "type": "function"
    },
    {
      "inputs": [],
      "name": "maps",
      "outputs": [
        {
          "internalType": "contract MapInterface",
          "name": "",
          "type": "address"
        }
      ],
      "stateMutability": "view",
      "type": "function"
    },
    {
      "inputs": [
        {
          "internalType": "uint256",
          "name": "_min",
          "type": "uint256"
        },
        {
          "internalType": "uint256",
          "name": "_max",
          "type": "uint256"
        },
        {
          "internalType": "uint256",
          "name": "_val",
          "type": "uint256"
        },
        {
          "internalType": "uint256",
          "name": "_valMax",
          "type": "uint256"
        }
      ],
      "name": "normalizeToSmallRange",
      "outputs": [
        {
          "internalType": "uint8",
          "name": "",
          "type": "uint8"
        }
      ],
      "stateMutability": "pure",
      "type": "function"
    },
    {
      "inputs": [
        {
          "internalType": "uint256",
          "name": "_direction",
          "type": "uint256"
        }
      ],
      "name": "opposite",
      "outputs": [
        {
          "internalType": "uint256",
          "name": "",
          "type": "uint256"
        }
      ],
      "stateMutability": "pure",
      "type": "function"
    },
    {
      "inputs": [],
      "name": "owner",
      "outputs": [
        {
          "internalType": "address",
          "name": "",
          "type": "address"
        }
      ],
      "stateMutability": "view",
      "type": "function"
    },
    {
      "inputs": [],
      "name": "players",
      "outputs": [
        {
          "internalType": "contract PlayersInterface",
          "name": "",
          "type": "address"
        }
      ],
      "stateMutability": "view",
      "type": "function"
    },
    {
      "inputs": [],
      "name": "randKeccak",
      "outputs": [
        {
          "internalType": "bytes32",
          "name": "",
          "type": "bytes32"
        }
      ],
      "stateMutability": "nonpayable",
      "type": "function"
    },
    {
      "inputs": [],
      "name": "renounceOwnership",
      "outputs": [],
      "stateMutability": "nonpayable",
      "type": "function"
    },
    {
      "inputs": [
        {
          "internalType": "uint256",
          "name": "_gameId",
          "type": "uint256"
        },
        {
          "internalType": "uint256",
          "name": "_for",
          "type": "uint256"
        },
        {
          "internalType": "uint256",
          "name": "_against",
          "type": "uint256"
        }
      ],
      "name": "resolveChallenge",
      "outputs": [
        {
          "internalType": "bool",
          "name": "",
          "type": "bool"
        }
      ],
      "stateMutability": "nonpayable",
      "type": "function"
    },
    {
      "inputs": [
        {
          "internalType": "uint256",
          "name": "_gameId",
          "type": "uint256"
        }
      ],
      "name": "roll",
      "outputs": [
        {
          "internalType": "uint256",
          "name": "",
          "type": "uint256"
        }
      ],
      "stateMutability": "nonpayable",
      "type": "function"
    },
    {
      "inputs": [
        {
          "internalType": "address",
          "name": "_charAddress",
          "type": "address"
        },
        {
          "internalType": "address",
          "name": "_utilsAddress",
          "type": "address"
        },
        {
          "internalType": "address",
          "name": "_mapsAddress",
          "type": "address"
        },
        {
          "internalType": "address",
          "name": "_gamesAddress",
          "type": "address"
        },
        {
          "internalType": "address",
          "name": "_itemsAddress",
          "type": "address"
        },
        {
          "internalType": "address",
          "name": "_eventsAddress",
          "type": "address"
        },
        {
          "internalType": "address",
          "name": "_playersAddress",
          "type": "address"
        }
      ],
      "name": "setContractAddresses",
      "outputs": [],
      "stateMutability": "nonpayable",
      "type": "function"
    },
    {
      "inputs": [
        {
          "internalType": "bytes32",
          "name": "_hash",
          "type": "bytes32"
        },
        {
          "internalType": "uint256",
          "name": "_size",
          "type": "uint256"
        },
        {
          "internalType": "uint256",
          "name": "_offset",
          "type": "uint256"
        }
      ],
      "name": "sliceHashToSmallInt",
      "outputs": [
        {
          "internalType": "uint8",
          "name": "",
          "type": "uint8"
        }
      ],
      "stateMutability": "pure",
      "type": "function"
    },
    {
      "inputs": [
        {
          "internalType": "uint8",
          "name": "_min",
          "type": "uint8"
        },
        {
          "internalType": "uint8",
          "name": "_max",
          "type": "uint8"
        }
      ],
      "name": "smallIntBetweenVals",
      "outputs": [
        {
          "internalType": "uint8",
          "name": "",
          "type": "uint8"
        }
      ],
      "stateMutability": "nonpayable",
      "type": "function"
    },
    {
      "inputs": [
        {
          "internalType": "address",
          "name": "newOwner",
          "type": "address"
        }
      ],
      "name": "transferOwnership",
      "outputs": [],
      "stateMutability": "nonpayable",
      "type": "function"
    }
  ],
  "transactionHash": "0xa6d8fdb6b3837e88812cf95786e27eed7c58397b7169445d5d6a87910a878dfa",
  "args": [],
  "numDeployments": 2,
  "solcInputHash": "7fa2662d47aa996f50a478880944955c",
  "bytecode": "0x608060405260006001553480156200001657600080fd5b50620000223362000028565b62000078565b600080546001600160a01b038381166001600160a01b0319831681178455604051919092169283917f8be0079c531659141344cd1fd0a4f28419497f9722a3daafe3b4186f6b6457e09190a35050565b61416b80620000886000396000f3fe6080604052600436106101665760003560e01c80638214f222116100d1578063a8ca85bb1161008a578063d72be09d11610064578063d72be09d14610442578063dc0b356414610462578063f2fde38b14610482578063fa3993c2146104a257600080fd5b8063a8ca85bb146103ef578063c06fad0614610402578063ce28613f1461042257600080fd5b80638214f222146103245780638da5cb5b14610344578063951fc3fe14610362578063955a015b1461038f57806397f34c3f146103af5780639fca1ee1146103cf57600080fd5b8063425c38d811610123578063425c38d81461024d578063530116961461026d5780635dc969671461029f57806364db84bf146102cf578063715018a6146102ef5780637ddae1031461030457600080fd5b806310a2cd0d1461016b5780631b5ac4b5146101a85780631e1de205146101d65780631f7b4f30146101eb5780633deaec2b1461020b5780634102b1a71461022b575b600080fd5b34801561017757600080fd5b5060025461018b906001600160a01b031681565b6040516001600160a01b0390911681526020015b60405180910390f35b3480156101b457600080fd5b506101c86101c33660046129ca565b6104c2565b60405190815260200161019f565b3480156101e257600080fd5b506101c86104e2565b3480156101f757600080fd5b506101c86102063660046129ca565b61055a565b34801561021757600080fd5b5060035461018b906001600160a01b031681565b34801561023757600080fd5b5061024b6102463660046129e3565b6105b6565b005b34801561025957600080fd5b5061024b610268366004612a05565b610639565b34801561027957600080fd5b5061028d610288366004612a05565b6106c2565b60405160ff909116815260200161019f565b3480156102ab57600080fd5b506102bf6102ba366004612a37565b6106ff565b604051901515815260200161019f565b3480156102db57600080fd5b506101c86102ea3660046129e3565b61079c565b3480156102fb57600080fd5b5061024b6107b4565b34801561031057600080fd5b5060065461018b906001600160a01b031681565b34801561033057600080fd5b506101c861033f3660046129ca565b6107c8565b34801561035057600080fd5b506000546001600160a01b031661018b565b34801561036e57600080fd5b5061038261037d366004612bac565b610847565b60405161019f9190612bd9565b34801561039b57600080fd5b5060045461018b906001600160a01b031681565b3480156103bb57600080fd5b5061028d6103ca366004612a37565b610971565b3480156103db57600080fd5b5060085461018b906001600160a01b031681565b61024b6103fd366004612c1a565b61099c565b34801561040e57600080fd5b5060055461018b906001600160a01b031681565b34801561042e57600080fd5b5061028d61043d366004612d05565b612494565b34801561044e57600080fd5b5061024b61045d366004612d53565b612544565b34801561046e57600080fd5b5060075461018b906001600160a01b031681565b34801561048e57600080fd5b5061024b61049d366004612de9565b6125bd565b3480156104ae57600080fd5b506101c86104bd366004612e06565b612636565b6000808212156104da576104d582612e48565b6104dc565b815b92915050565b60018054600091826104f383612e64565b91905055506001546001436105089190612e7d565b403360405160200161053f93929190928352602083019190915260601b6bffffffffffffffffffffffff1916604082015260540190565b60405160208183030381529060405280519060200120905090565b60008061056960016006612494565b60ff1690507ffe34d093a460a16ee5fb374540914d1c734a17502c0c1a87b387c8d6097e1c5183826040516105a8929190918252602082015260400190565b60405180910390a192915050565b6105be6126fe565b60048054604080518082018252600080825260208201529051631751422560e01b81526001600160a01b03909216926317514225926106039287929091879101612e90565b600060405180830381600087803b15801561061d57600080fd5b505af1158015610631573d6000803e3d6000fd5b505050505050565b6106416126fe565b6004805460408051808201825260ff8087168252851660208201529051631751422560e01b81526001600160a01b039092169263175142259261068a9289929091899101612e90565b600060405180830381600087803b1580156106a457600080fd5b505af11580156106b8573d6000803e3d6000fd5b5050505050505050565b6000806106cf8686612e7d565b90506000836106de8684612ec2565b6106e89190612eef565b90506106f48782612f03565b979650505050505050565b60008061070b8561055a565b6040805187815260208101839052908101869052606081018590529091507f75b6a8325595f91135e07382840634226793c68c9e59623da7e10d7ad3d95b959060800160405180910390a180600103610768576000915050610795565b6003836107758684612f03565b61077f9190612f16565b131561078f576001915050610795565b60009150505b9392505050565b6000816107aa846004612ec2565b6107959190612f03565b6107bc6126fe565b6107c66000612758565b565b6000816000036107da57506001919050565b816001036107ea57506000919050565b816002036107fa57506003919050565b8160030361080a57506002919050565b60405162461bcd60e51b815260206004820152600d60248201526c2130b2103234b932b1ba34b7b760991b60448201526064015b60405180910390fd5b6040805180820190915260008082526020820152826000036108995760405180604001604052806001846000015161087f9190612f3d565b60ff168152602001836020015160ff1681525090506104dc565b826001036108bd5760405180604001604052808360000151600161087f9190612f56565b826002036108fa576040518060400160405280836000015160ff168152602001836020015160016108ee9190612f56565b60ff16905290506104dc565b8260030361092b576040518060400160405280836000015160ff168152602001600184602001516108ee9190612f3d565b6000610936846127a8565b6040516020016109469190612f93565b60405160208183030381529060405290508060405162461bcd60e51b815260040161083e9190612fce565b6000808260016109828660026130e5565b61098c9190612e7d565b901b8516831c9150509392505050565b6007546040516310f67fb360e01b8152600481018890526000916001600160a01b0316906310f67fb390602401600060405180830381865afa1580156109e6573d6000803e3d6000fd5b505050506040513d6000823e601f3d908101601f19168201604052610a0e9190810190613267565b60048054604051630dfd338360e31b81529182018b90529192506000916001600160a01b031690636fe99c1890602401600060405180830381865afa158015610a5b573d6000803e3d6000fd5b505050506040513d6000823e601f3d908101601f19168201604052610a8391908101906134ad565b9050806101000151600014610ada5760405162461bcd60e51b815260206004820152601860248201527f4d757374207265736f6c7665206576656e742066697273740000000000000000604482015260640161083e565b8051610b1a5760405162461bcd60e51b815260206004820152600f60248201526e47616d65206e6f742061637469766560881b604482015260640161083e565b81516001600160a01b03163314610b735760405162461bcd60e51b815260206004820152601760248201527f53656e646572206e6f7420706c61796572206f776e6572000000000000000000604482015260640161083e565b60038260c0015160ff1610610bbc5760405162461bcd60e51b815260206004820152600f60248201526e139bc81858dd1a5bdb9cc81b19599d608a1b604482015260640161083e565b8060200151816040015181518110610bd657610bd6613667565b60200260200101518814610c1c5760405162461bcd60e51b815260206004820152600d60248201526c2737ba103cb7bab9103a3ab93760991b604482015260640161083e565b60006003886008811115610c3257610c3261367d565b03610c6f5782604001516020015160000b83610120015160000b1315610c6a5760405162461bcd60e51b815260040161083e90613693565b6123de565b6002886008811115610c8357610c8361367d565b036112355782604001516020015160000b83610120015160000b1315610cbb5760405162461bcd60e51b815260040161083e90613693565b60035460c083015160608501518051602090910151604051630dd43b9b60e31b8152600481019390935260ff9182166024840152166044820152606481018890526000916001600160a01b031690636ea1dcd890608401606060405180830381865afa158015610d2f573d6000803e3d6000fd5b505050506040513d601f19601f82011682018060405250810190610d5391906136c3565b9050600281604001516004811115610d6d57610d6d61367d565b1480610d8e5750600381604001516004811115610d8c57610d8c61367d565b145b80610d9e5750602081015160ff16155b610df65760405162461bcd60e51b815260206004820152602360248201527f31737420446f6f72206e6f74206f70656e2f62726561636865642f756e6c6f636044820152621ad95960ea1b606482015260840161083e565b600181604001516004811115610e0e57610e0e61367d565b03610e925760035460c084015160608601518051602090910151604051635921522360e01b81526001600160a01b0390941693635921522393610e5f93909290918d90600290600090600401613738565b600060405180830381600087803b158015610e7957600080fd5b505af1158015610e8d573d6000803e3d6000fd5b505050505b6000610ea2888660600151610847565b90506001896001811115610eb857610eb861367d565b036111b7576000610ec98883610847565b60035460c087015184516020860151604051630dd43b9b60e31b8152600481019390935260ff9182166024840152166044820152606481018b90529192506000916001600160a01b0390911690636ea1dcd890608401606060405180830381865afa158015610f3c573d6000803e3d6000fd5b505050506040513d601f19601f82011682018060405250810190610f6091906136c3565b9050600281604001516004811115610f7a57610f7a61367d565b1480610f9b5750600381604001516004811115610f9957610f9961367d565b145b80610fab5750602081015160ff16155b6110035760405162461bcd60e51b815260206004820152602360248201527f326e6420446f6f72206e6f74206f70656e2f62726561636865642f756e6c6f636044820152621ad95960ea1b606482015260840161083e565b60035460c0870151604051630f78220b60e11b815260048101919091526000916001600160a01b031690631ef0441690602401600060405180830381865afa158015611053573d6000803e3d6000fd5b505050506040513d6000823e601f3d908101601f1916820160405261107b9190810190613863565b9050600281856000015160ff168151811061109857611098613667565b6020026020010151856020015160ff16815181106110b8576110b8613667565b60200260200101516000015160ff16116111085760405162461bcd60e51b8152602060048201526011602482015270149bdbdb481b9bdd08195e1c1b1bdc9959607a1b604482015260640161083e565b6001826040015160048111156111205761112061367d565b036111b157600360009054906101000a90046001600160a01b03166001600160a01b031663592152238860c00151866000015187602001518e600260006040518763ffffffff1660e01b815260040161117e96959493929190613738565b600060405180830381600087803b15801561119857600080fd5b505af11580156111ac573d6000803e3d6000fd5b505050505b50909150505b600460009054906101000a90046001600160a01b03166001600160a01b031663175142258d838e6040518463ffffffff1660e01b81526004016111fc93929190612e90565b600060405180830381600087803b15801561121657600080fd5b505af115801561122a573d6000803e3d6000fd5b5050505050506123de565b60008860088111156112495761124961367d565b036114b15782604001516020015160000b83610120015160000b13156112815760405162461bcd60e51b815260040161083e90613693565b60035460c083015160608501518051602090910151604051630dd43b9b60e31b8152600481019390935260ff9182166024840152166044820152606481018890526000916001600160a01b031690636ea1dcd890608401606060405180830381865afa1580156112f5573d6000803e3d6000fd5b505050506040513d601f19601f8201168201806040525081019061131991906136c3565b90506001816040015160048111156113335761133361367d565b146113725760405162461bcd60e51b815260206004820152600f60248201526e111bdbdc881b9bdd0818db1bdcd959608a1b604482015260640161083e565b61138f8b85604001516060015160ff16836020015160ff166106ff565b156114ab5760035460c084015160608601518051602090910151604051635921522360e01b81526001600160a01b03909416936359215223936113e093909290918d90600290600090600401613738565b600060405180830381600087803b1580156113fa57600080fd5b505af115801561140e573d6000803e3d6000fd5b506001925061141b915050565b88600181111561142d5761142d61367d565b036114ab5760045460608501516001600160a01b03909116906317514225908d90611459908b90610847565b8d6040518463ffffffff1660e01b815260040161147893929190612e90565b600060405180830381600087803b15801561149257600080fd5b505af11580156114a6573d6000803e3d6000fd5b505050505b506123de565b60018860088111156114c5576114c561367d565b036116595782604001516020015160000b83610120015160000b13156114fd5760405162461bcd60e51b815260040161083e90613693565b60035460c083015160608501518051602090910151604051630dd43b9b60e31b8152600481019390935260ff9182166024840152166044820152606481018890526000916001600160a01b031690636ea1dcd890608401606060405180830381865afa158015611571573d6000803e3d6000fd5b505050506040513d601f19601f8201168201806040525081019061159591906136c3565b90506001816040015160048111156115af576115af61367d565b146115ee5760405162461bcd60e51b815260206004820152600f60248201526e111bdbdc881b9bdd0818db1bdcd959608a1b604482015260640161083e565b61160b8b85604001516080015160ff16836000015160ff166106ff565b156114ab576003805460c085015160608701518051602090910151604051635921522360e01b81526001600160a01b03909416946359215223946113e0949392918e91600090600401613738565b600488600881111561166d5761166d61367d565b03611ae7575060035460c08201516060840151805160209091015160405163f9dfbfcb60e01b81526001946000946001600160a01b039091169363f9dfbfcb936116cd9360040192835260ff918216602084015216604082015260600190565b61014060405180830381865afa1580156116eb573d6000803e3d6000fd5b505050506040513d601f19601f8201168201806040525081019061170f9190613972565b60808101519091501561175a5760405162461bcd60e51b8152602060048201526013602482015272149bdbdb48185b1c9958591e481b1bdbdd1959606a1b604482015260640161083e565b60035460c08401516060860151805160209091015160405162a1871b60e21b8152600481019390935260ff91821660248401521660448201526000916001600160a01b0316906302861c6c9060640160a060405180830381865afa1580156117c6573d6000803e3d6000fd5b505050506040513d601f19601f820116820180604052508101906117ea919061398f565b90506000816060015160ff16118061180957506000816040015160ff16115b61184d5760405162461bcd60e51b815260206004820152601560248201527443616e2774206c6f6f7420656d70747920726f6f6d60581b604482015260640161083e565b64174876e800816040015160ff166118659190612ec2565b34146118b35760405162461bcd60e51b815260206004820152601860248201527f57726f6e67207061796d656e7420696e20616374696f6e730000000000000000604482015260640161083e565b60035460c08501516060870151805160209091015160405163086e529d60e41b8152600481019390935260ff91821660248401521660448201526001600160a01b03909116906386e529d090606401600060405180830381600087803b15801561191c57600080fd5b505af1158015611930573d6000803e3d6000fd5b50506007546060840151604051632da41c6560e21b81526001600160a01b03909216935063b69071949250611976918f919060040191825260ff16602082015260400190565b600060405180830381600087803b15801561199057600080fd5b505af11580156119a4573d6000803e3d6000fd5b5050505060005b816040015160ff16811015611a3b57600554865160405163aa3eb1b560e01b8152600481018f90526001600160a01b03918216602482015291169063aa3eb1b59064174876e800906044016000604051808303818588803b158015611a0f57600080fd5b505af1158015611a23573d6000803e3d6000fd5b50505050508080611a3390612e64565b9150506119ab565b50600754604082810151905163fe23e2df60e01b8152600481018e905260ff90911660248201526001600160a01b039091169063fe23e2df90604401600060405180830381600087803b158015611a9157600080fd5b505af1158015611aa5573d6000803e3d6000fd5b50506007546020880151604051630f96f55d60e41b81526001600160a01b03909216935063f96f55d092506111fc918f90600401918252602082015260400190565b6005886008811115611afb57611afb61367d565b03611d265782604001516020015160000b83610120015160000b1315611b335760405162461bcd60e51b815260040161083e90613693565b60035460c08301516060850151805160209091015160405162a1871b60e21b8152600481019390935260ff91821660248401521660448201526000916001600160a01b0316906302861c6c9060640160a060405180830381865afa158015611b9f573d6000803e3d6000fd5b505050506040513d601f19601f82011682018060405250810190611bc3919061398f565b600654602082015160405163c82c37b960e01b81529293506000926001600160a01b039092169163c82c37b991611c009160040190815260200190565b600060405180830381865afa158015611c1d573d6000803e3d6000fd5b505050506040513d6000823e601f3d908101601f19168201604052611c459190810190613aa6565b9050806020015115156001151514611c955760405162461bcd60e51b8152602060048201526013602482015272115d995b9d081b9bdd081c195c9b585b995b9d606a1b604482015260640161083e565b600760009054906101000a90046001600160a01b03166001600160a01b031663ed8619618c8e8760c001518960600151876020015160006040518763ffffffff1660e01b81526004016111fc969594939291909586526020808701959095526040860193909352815160ff9081166060870152919093015116608084015260a083019190915260c082015260e00190565b6006886008811115611d3a57611d3a61367d565b03611d725782604001516020015160000b83610120015160000b1315610c6a5760405162461bcd60e51b815260040161083e90613693565b6007886008811115611d8657611d8661367d565b03611f4c57506001611d98848a6128b0565b611de45760405162461bcd60e51b815260206004820152601c60248201527f547279696e6720746f2064726f70206974656d206e6f742068656c6400000000604482015260640161083e565b600754845160405163351dacdf60e01b8152600481018c905260248101919091526001600160a01b039091169063351dacdf90604401600060405180830381600087803b158015611e3457600080fd5b505af1158015611e48573d6000803e3d6000fd5b50505050600560009054906101000a90046001600160a01b03166001600160a01b03166311ff70478b868660600151600001518760600151602001518e6040518663ffffffff1660e01b8152600401611ea5959493929190613bd2565b600060405180830381600087803b158015611ebf57600080fd5b505af1158015611ed3573d6000803e3d6000fd5b50506007546020860151604051630f96f55d60e41b81526001600160a01b03909216935063f96f55d09250611f15918d90600401918252602082015260400190565b600060405180830381600087803b158015611f2f57600080fd5b505af1158015611f43573d6000803e3d6000fd5b505050506123de565b6008886008811115611f6057611f6061367d565b0361239657600480546040516302c497fb60e11b81526000926001600160a01b03909216916305892ff691611f9791899101613c09565b600060405180830381865afa158015611fb4573d6000803e3d6000fd5b505050506040513d6000823e601f3d908101601f19168201604052611fdc9190810190613c1c565b905060005b815181101561228557818181518110611ffc57611ffc613667565b6020026020010151608001516000015160ff1685606001516000015160ff161461205d5760405162461bcd60e51b8152602060048201526012602482015271506c61796572206e6f74206174206974656d60701b604482015260640161083e565b81818151811061206f5761206f613667565b6020026020010151608001516020015160ff1685606001516020015160ff16146120d05760405162461bcd60e51b8152602060048201526012602482015271506c61796572206e6f74206174206974656d60701b604482015260640161083e565b60008282815181106120e4576120e4613667565b60200260200101516060015160038111156121015761210161367d565b148061213b5750600182828151811061211c5761211c613667565b60200260200101516060015160038111156121395761213961367d565b145b6121875760405162461bcd60e51b815260206004820152601e60248201527f4974656d20697320646973636172646564206f722064657374726f7965640000604482015260640161083e565b8b82828151811061219a5761219a613667565b602002602001015160200151146121eb5760405162461bcd60e51b81526020600482015260156024820152744974656d206e6f7420696e20746869732067616d6560581b604482015260640161083e565b60008282815181106121ff576121ff613667565b602002602001015160600151600381111561221c5761221c61367d565b036122735760405162461bcd60e51b815260206004820152602160248201527f556e6b6e6f776e206974656d73206e6f742079657420696d706c656d656e74656044820152601960fa1b606482015260840161083e565b8061227d81612e64565b915050611fe1565b50600754855160405163fe23e2df60e01b8152600481018d90526024810191909152600193506001600160a01b039091169063fe23e2df90604401600060405180830381600087803b1580156122da57600080fd5b505af11580156122ee573d6000803e3d6000fd5b505060055486516040516307bc9a2360e21b81526001600160a01b039092169350631ef2688c9250612326918e918a91600401613d03565b600060405180830381600087803b15801561234057600080fd5b505af1158015612354573d6000803e3d6000fd5b50506007546020870151604051630f96f55d60e41b81526001600160a01b03909216935063f96f55d09250611478918e90600401918252602082015260400190565b60405162461bcd60e51b815260206004820152601860248201527f4552524f523a2042616420616374696f6e20636f6e6669670000000000000000604482015260640161083e565b60048054604051630aa6e80360e41b81529182018c9052602482018b905282151560448301526001600160a01b03169063aa6e803090606401600060405180830381600087803b15801561243157600080fd5b505af1158015612445573d6000803e3d6000fd5b505050507f9264b358b1a541ec2845338290bce14769d3525bb3b9ce8706633f2fe05e092a8a838b868c604051612480959493929190613ef4565b60405180910390a150505050505050505050565b60018054600091826124a583612e64565b91905055506000336001546001436124bd9190612e7d565b60405160609390931b6bffffffffffffffffffffffff19166020840152603483019190915240605482015260740160408051601f198184030181529190528051602090910120905060006125118585612f3d565b61251c906001612f56565b90508460ff168160ff168361253191906140cc565b61253b9190612f03565b95945050505050565b61254c6126fe565b600280546001600160a01b03199081166001600160a01b03998a16179091556003805482169689169690961790955560048054861694881694909417909355600580548516928716929092179091556006805484169186169190911790556007805490921693169290921790915550565b6125c56126fe565b6001600160a01b03811661262a5760405162461bcd60e51b815260206004820152602660248201527f4f776e61626c653a206e6577206f776e657220697320746865207a65726f206160448201526564647265737360d01b606482015260840161083e565b61263381612758565b50565b80518251600091612646916140e0565b60000b600103612658575060006104dc565b8151835161266691906140e0565b60000b19612676575060016104dc565b8160200151836020015161268a91906140e0565b60000b1961269a575060026104dc565b816020015183602001516126ae91906140e0565b60000b6001036126c0575060036104dc565b60405162461bcd60e51b8152602060048201526013602482015272115c9c9bdc8e88139bdd0818591a9858d95b9d606a1b604482015260640161083e565b6000546001600160a01b031633146107c65760405162461bcd60e51b815260206004820181905260248201527f4f776e61626c653a2063616c6c6572206973206e6f7420746865206f776e6572604482015260640161083e565b600080546001600160a01b038381166001600160a01b0319831681178455604051919092169283917f8be0079c531659141344cd1fd0a4f28419497f9722a3daafe3b4186f6b6457e09190a35050565b6060816000036127cf5750506040805180820190915260018152600360fc1b602082015290565b8160005b81156127f957806127e381612e64565b91506127f29050600a83612eef565b91506127d3565b6000816001600160401b0381111561281357612813612a63565b6040519080825280601f01601f19166020018201604052801561283d576020820181803683370190505b5090505b84156128a857612852600183612e7d565b915061285f600a866140cc565b61286a906030612f03565b60f81b81838151811061287f5761287f613667565b60200101906001600160f81b031916908160001a9053506128a1600a86612eef565b9450612841565b949350505050565b600554604051633841fae160e01b81526004810183905260009182916001600160a01b0390911690633841fae190602401600060405180830381865afa1580156128fe573d6000803e3d6000fd5b505050506040513d6000823e601f3d908101601f191682016040526129269190810190614101565b905060005b84518110156129bf576000805b83518110156129955783818151811061295357612953613667565b602002602001015187848151811061296d5761296d613667565b6020026020010151036129835760019150612995565b8061298d81612e64565b915050612938565b508015156000036129ac57600093505050506104dc565b50806129b781612e64565b91505061292b565b506001949350505050565b6000602082840312156129dc57600080fd5b5035919050565b600080604083850312156129f657600080fd5b50508035926020909101359150565b60008060008060808587031215612a1b57600080fd5b5050823594602084013594506040840135936060013592509050565b600080600060608486031215612a4c57600080fd5b505081359360208301359350604090920135919050565b634e487b7160e01b600052604160045260246000fd5b604080519081016001600160401b0381118282101715612a9b57612a9b612a63565b60405290565b60405160e081016001600160401b0381118282101715612a9b57612a9b612a63565b6040516101c081016001600160401b0381118282101715612a9b57612a9b612a63565b60405161024081016001600160401b0381118282101715612a9b57612a9b612a63565b60405160a081016001600160401b0381118282101715612a9b57612a9b612a63565b604051601f8201601f191681016001600160401b0381118282101715612b5357612b53612a63565b604052919050565b60ff8116811461263357600080fd5b600060408284031215612b7c57600080fd5b612b84612a79565b90508135612b9181612b5b565b81526020820135612ba181612b5b565b602082015292915050565b60008060608385031215612bbf57600080fd5b82359150612bd08460208501612b6a565b90509250929050565b604081016104dc8284805160ff908116835260209182015116910152565b60006001600160401b03821115612c1057612c10612a63565b5060051b60200190565b600080600080600080600060e0888a031215612c3557600080fd5b873596506020808901359650604089013560098110612c5357600080fd5b9550606089013560028110612c6757600080fd5b94506080890135935060a0890135925060c08901356001600160401b03811115612c9057600080fd5b8901601f81018b13612ca157600080fd5b8035612cb4612caf82612bf7565b612b2b565b81815260059190911b8201830190838101908d831115612cd357600080fd5b928401925b82841015612cf157833582529284019290840190612cd8565b809550505050505092959891949750929550565b60008060408385031215612d1857600080fd5b8235612d2381612b5b565b91506020830135612d3381612b5b565b809150509250929050565b6001600160a01b038116811461263357600080fd5b600080600080600080600060e0888a031215612d6e57600080fd5b8735612d7981612d3e565b96506020880135612d8981612d3e565b95506040880135612d9981612d3e565b94506060880135612da981612d3e565b93506080880135612db981612d3e565b925060a0880135612dc981612d3e565b915060c0880135612dd981612d3e565b8091505092959891949750929550565b600060208284031215612dfb57600080fd5b813561079581612d3e565b60008060808385031215612e1957600080fd5b612e238484612b6a565b9150612bd08460408501612b6a565b634e487b7160e01b600052601160045260246000fd5b6000600160ff1b8201612e5d57612e5d612e32565b5060000390565b600060018201612e7657612e76612e32565b5060010190565b818103818111156104dc576104dc612e32565b83815260808101612eb46020830185805160ff908116835260209182015116910152565b826060830152949350505050565b80820281158282048414176104dc576104dc612e32565b634e487b7160e01b600052601260045260246000fd5b600082612efe57612efe612ed9565b500490565b808201808211156104dc576104dc612e32565b8181036000831280158383131683831282161715612f3657612f36612e32565b5092915050565b60ff82811682821603908111156104dc576104dc612e32565b60ff81811683821601908111156104dc576104dc612e32565b60005b83811015612f8a578181015183820152602001612f72565b50506000910152565b72024b73b30b634b2103234b932b1ba34b7b71d1606d1b815260008251612fc1816013850160208701612f6f565b9190910160130192915050565b6020815260008251806020840152612fed816040850160208701612f6f565b601f01601f19169190910160400192915050565b600181815b8085111561303c57816000190482111561302257613022612e32565b8085161561302f57918102915b93841c9390800290613006565b509250929050565b600082613053575060016104dc565b81613060575060006104dc565b816001811461307657600281146130805761309c565b60019150506104dc565b60ff84111561309157613091612e32565b50506001821b6104dc565b5060208310610133831016604e8410600b84101617156130bf575081810a6104dc565b6130c98383613001565b80600019048211156130dd576130dd612e32565b029392505050565b60006107958383613044565b80516130fc81612d3e565b919050565b8051600081900b81146130fc57600080fd5b600060e0828403121561312557600080fd5b61312d612aa1565b905061313882613101565b815261314660208301613101565b602082015261315760408301613101565b604082015261316860608301613101565b606082015261317960808301613101565b608082015261318a60a08301613101565b60a082015261319b60c08301613101565b60c082015292915050565b80516130fc81612b5b565b6000604082840312156131c357600080fd5b6131cb612a79565b905081516131d881612b5b565b81526020820151612ba181612b5b565b600082601f8301126131f957600080fd5b81516020613209612caf83612bf7565b82815260059290921b8401810191818101908684111561322857600080fd5b8286015b8481101561324c57805161323f81612b5b565b835291830191830161322c565b509695505050505050565b805180151581146130fc57600080fd5b60006020828403121561327957600080fd5b81516001600160401b038082111561329057600080fd5b908301906102a082860312156132a557600080fd5b6132ad612ac3565b6132b6836130f1565b8152602083015160208201526132cf8660408501613113565b60408201526101206132e3878286016131b1565b60608301526101606132f6818601613101565b60808401526101806133098187016131a6565b60a08501526101a061331c8188016131a6565b60c086015261332e6101c088016131a6565b60e08601526101e08701518681111561334657600080fd5b6133528b828a016131e8565b6101008701525061336661020088016131a6565b848601526133776102208801613257565b61014086015261338a6102408801613257565b8386015261339b6102608801613257565b82860152610280870151818601525050505080935050505092915050565b600082601f8301126133ca57600080fd5b815160206133da612caf83612bf7565b82815260059290921b840181019181810190868411156133f957600080fd5b8286015b8481101561324c57805183529183019183016133fd565b60006080828403121561342657600080fd5b604051608081018181106001600160401b038211171561344857613448612a63565b8060405250809150825161345b81612b5b565b8152602083015161346b81612b5b565b6020820152604083015161347e81612b5b565b6040820152606083015161349181612b5b565b6060919091015292915050565b8051600681106130fc57600080fd5b6000602082840312156134bf57600080fd5b81516001600160401b03808211156134d657600080fd5b908301906102c082860312156134eb57600080fd5b6134f3612ae6565b6134fc83613257565b815260208301518281111561351057600080fd5b61351c878286016133b9565b60208301525060408301516040820152606083015160608201526080830151608082015261354d8660a08501613414565b60a08201526101208084015160c08301526101408085015160e08401526101608086015161010085015261018061358581880161349e565b848601526101a0935061359a8a8589016131b1565b838601526101e0925082870151868111156135b457600080fd5b6135c08b828a016133b9565b8387015250610200915081870151868111156135db57600080fd5b6135e78b828a016133b9565b828701525050610220808701518681111561360157600080fd5b61360d8b828a016133b9565b858701525061024087015193508584111561362757600080fd5b6136338a8589016133b9565b6101c086015261026087015183860152610280870151828601526102a0870151818601525050505080935050505092915050565b634e487b7160e01b600052603260045260246000fd5b634e487b7160e01b600052602160045260246000fd5b602080825260169082015275486f6c64696e6720746f6f206d616e79206974656d7360501b604082015260600190565b6000606082840312156136d557600080fd5b604051606081018181106001600160401b03821117156136f7576136f7612a63565b604052825161370581612b5b565b8152602083015161371581612b5b565b602082015260408301516005811061372c57600080fd5b60408201529392505050565b86815260ff8681166020830152851660408201526060810184905260c08101600584106137675761376761367d565b608082019390935260a00152949350505050565b6000610140828403121561378e57600080fd5b613796612aa1565b905081516137a381612b5b565b81526020828101516137b481612b5b565b82820152605f830184136137c757600080fd5b604051608081018181106001600160401b03821117156137e9576137e9612a63565b6040528060c08501868111156137fe57600080fd5b604086015b8181101561381a5780518352918401918401613803565b5082604086015261382a81613257565b60608601525050505061383f60e08301613257565b60808201526138516101008301613257565b60a082015261319b6101208301613257565b6000602080838503121561387657600080fd5b82516001600160401b038082111561388d57600080fd5b818501915085601f8301126138a157600080fd5b81516138af612caf82612bf7565b81815260059190911b830184019084810190888311156138ce57600080fd5b8585015b83811015613965578051858111156138e957600080fd5b8601603f81018b136138fa57600080fd5b8781015161390a612caf82612bf7565b8181526101409182028301604001918a820191908e84111561392c5760008081fd5b6040850194505b83851015613954576139458f8661377b565b835293840193918b0191613933565b5086525050509186019186016138d2565b5098975050505050505050565b6000610140828403121561398557600080fd5b610795838361377b565b600060a082840312156139a157600080fd5b60405160a081018181106001600160401b03821117156139c3576139c3612a63565b6040526139cf8361349e565b81526020830151602082015260408301516139e981612b5b565b604082015260608301516139fc81612b5b565b6060820152613a0d60808401613257565b60808201529392505050565b600082601f830112613a2a57600080fd5b81516020613a3a612caf83612bf7565b82815260069290921b84018101918181019086841115613a5957600080fd5b8286015b8481101561324c5760408189031215613a765760008081fd5b613a7e612a79565b815160178110613a8e5760008081fd5b81528185015185820152835291830191604001613a5d565b600060208284031215613ab857600080fd5b81516001600160401b0380821115613acf57600080fd5b9083019060e08286031215613ae357600080fd5b613aeb612aa1565b82518152613afb60208401613257565b6020820152613b0c604084016131a6565b6040820152613b1d606084016131a6565b6060820152608083015182811115613b3457600080fd5b613b4087828601613a19565b60808301525060a083015182811115613b5857600080fd5b613b6487828601613a19565b60a08301525060c083015182811115613b7c57600080fd5b613b8887828601613a19565b60c08301525095945050505050565b600081518084526020808501945080840160005b83811015613bc757815187529582019590820190600101613bab565b509495945050505050565b85815260a060208201526000613beb60a0830187613b97565b60ff9586166040840152939094166060820152608001529392505050565b6020815260006107956020830184613b97565b60006020808385031215613c2f57600080fd5b82516001600160401b03811115613c4557600080fd5b8301601f81018513613c5657600080fd5b8051613c64612caf82612bf7565b81815260c09182028301840191848201919088841115613c8357600080fd5b938501935b83851015613cf75780858a031215613ca05760008081fd5b613ca8612b09565b8551815286860151878201526040808701519082015260608087015160048110613cd25760008081fd5b908201526080613ce48b8883016131b1565b9082015283529384019391850191613c88565b50979650505050505050565b838152606060208201526000613d1c6060830185613b97565b905060018060a01b0383166040830152949350505050565b60068110613d4457613d4461367d565b9052565b600081518084526020808501945080840160005b83811015613bc757815160ff1687529582019590820190600101613d5c565b80516001600160a01b0316825260006102a0602083015160208501526040830151613dfb60408601828051600081810b84526020830151810b60208501526040830151810b60408501526060830151810b60608501526080830151810b608085015260a0830151810b60a085015260c0830151810b60c085015250505050565b506060830151610120613e2081870183805160ff908116835260209182015116910152565b60808501519150610160613e388188018460000b9052565b60a08601519250610180613e508189018560ff169052565b60c087015193506101a0613e68818a018660ff169052565b60e088015160ff166101c08a01526101008801516101e08a018790529450613e92868a0186613d48565b9550838801519450613eaa6102008a018660ff169052565b61014088015115156102208a0152918701511515610240890152860151151561026088015290940151610280909501949094529392505050565b60098110613d4457613d4461367d565b85815260a06020820152613f0d60a08201865115159052565b600060208601516102c08060c0850152613f2b610360850183613b97565b9150604088015160e08501526060880151610100818187015260808a01519150610120828188015260a08b01519250610140613f968189018560ff815116825260ff602082015116602083015260ff604082015116604083015260ff60608201511660608301525050565b60c08c015193506101c084818a015260e08d015194506101e085818b0152848e01519550610200945085858b0152838e015195506102209350613fdb848b0187613d34565b918d0151805160ff9081166102408c0152602090910151166102608a01526101608d0151609f198a890381016102808c01529095509161401b8887613b97565b97506101808e01519550828a8903016102a08b015261403a8887613b97565b97506101a08e01519550828a890301878b01526140578887613b97565b9750818e01519650828a8903016102e08b01526140748888613b97565b908e01516103008b0152938d01516103208a015250508a015161034087015260408601899052858103606087015292506140b2915082905086613d7b565b9150506140c26080830184613ee4565b9695505050505050565b6000826140db576140db612ed9565b500690565b600082810b9082900b03607f198112607f821317156104dc576104dc612e32565b60006020828403121561411357600080fd5b81516001600160401b0381111561412957600080fd5b6128a8848285016133b956fea2646970667358221220be290c264b7686bb6ea79302253c675a095833c9181e6abdc8cf0750fe241d6d64736f6c63430008110033",
  "devdoc": {
    "kind": "dev",
    "methods": {
      "owner()": {
        "details": "Returns the address of the current owner."
      },
      "renounceOwnership()": {
        "details": "Leaves the contract without owner. It will not be possible to call `onlyOwner` functions anymore. Can only be called by the current owner. NOTE: Renouncing ownership will leave the contract without an owner, thereby removing any functionality that is only available to the owner."
      },
      "transferOwnership(address)": {
        "details": "Transfers ownership of the contract to a new account (`newOwner`). Can only be called by the current owner."
      }
    },
    "version": 1
  },
  "userdoc": {
    "kind": "user",
    "methods": {},
    "version": 1
  },
  "storageLayout": {
    "storage": [
      {
        "astId": 7,
        "contract": "contracts/Actions.sol:Actions",
        "label": "_owner",
        "offset": 0,
        "slot": "0",
        "type": "t_address"
      },
      {
        "astId": 16252,
        "contract": "contracts/Actions.sol:Actions",
        "label": "TODO_randomSeed",
        "offset": 0,
        "slot": "1",
        "type": "t_uint256"
      },
      {
        "astId": 2708,
        "contract": "contracts/Actions.sol:Actions",
        "label": "chars",
        "offset": 0,
        "slot": "2",
        "type": "t_contract(CharInterface)2445"
      },
      {
        "astId": 2711,
        "contract": "contracts/Actions.sol:Actions",
        "label": "maps",
        "offset": 0,
        "slot": "3",
        "type": "t_contract(MapInterface)2529"
      },
      {
        "astId": 2714,
        "contract": "contracts/Actions.sol:Actions",
        "label": "games",
        "offset": 0,
        "slot": "4",
        "type": "t_contract(GamesInterface)2567"
      },
      {
        "astId": 2717,
        "contract": "contracts/Actions.sol:Actions",
        "label": "items",
        "offset": 0,
        "slot": "5",
        "type": "t_contract(ItemsInterface)2607"
      },
      {
        "astId": 2720,
        "contract": "contracts/Actions.sol:Actions",
        "label": "bcEvents",
        "offset": 0,
        "slot": "6",
        "type": "t_contract(EventsInterface)2648"
      },
      {
        "astId": 2723,
        "contract": "contracts/Actions.sol:Actions",
        "label": "players",
        "offset": 0,
        "slot": "7",
        "type": "t_contract(PlayersInterface)2701"
      },
      {
        "astId": 2725,
        "contract": "contracts/Actions.sol:Actions",
        "label": "charsAddress",
        "offset": 0,
        "slot": "8",
        "type": "t_address"
      }
    ],
    "types": {
      "t_address": {
        "encoding": "inplace",
        "label": "address",
        "numberOfBytes": "20"
      },
      "t_contract(CharInterface)2445": {
        "encoding": "inplace",
        "label": "contract CharInterface",
        "numberOfBytes": "20"
      },
      "t_contract(EventsInterface)2648": {
        "encoding": "inplace",
        "label": "contract EventsInterface",
        "numberOfBytes": "20"
      },
      "t_contract(GamesInterface)2567": {
        "encoding": "inplace",
        "label": "contract GamesInterface",
        "numberOfBytes": "20"
      },
      "t_contract(ItemsInterface)2607": {
        "encoding": "inplace",
        "label": "contract ItemsInterface",
        "numberOfBytes": "20"
      },
      "t_contract(MapInterface)2529": {
        "encoding": "inplace",
        "label": "contract MapInterface",
        "numberOfBytes": "20"
      },
      "t_contract(PlayersInterface)2701": {
        "encoding": "inplace",
        "label": "contract PlayersInterface",
        "numberOfBytes": "20"
      },
      "t_uint256": {
        "encoding": "inplace",
        "label": "uint256",
        "numberOfBytes": "32"
      }
    }
  }
}