{
  "address": "0x96Fbf4Ada90D6ec47150cfC53Eb01F6A4fF7637e",
  "abi": [
    {
      "anonymous": false,
      "inputs": [
        {
          "indexed": false,
          "internalType": "uint256",
          "name": "gameId",
          "type": "uint256"
        },
        {
          "indexed": false,
          "internalType": "uint256",
          "name": "playerId",
          "type": "uint256"
        },
        {
          "components": [
            {
              "internalType": "address",
              "name": "owner",
              "type": "address"
            },
            {
              "internalType": "uint256",
              "name": "characterId",
              "type": "uint256"
            },
            {
              "internalType": "uint256",
              "name": "id",
              "type": "uint256"
            },
            {
              "components": [
                {
                  "internalType": "int8",
                  "name": "health",
                  "type": "int8"
                },
                {
                  "internalType": "int8",
                  "name": "carry",
                  "type": "int8"
                },
                {
                  "internalType": "int8",
                  "name": "defense",
                  "type": "int8"
                },
                {
                  "internalType": "int8",
                  "name": "hack",
                  "type": "int8"
                },
                {
                  "internalType": "int8",
                  "name": "breach",
                  "type": "int8"
                },
                {
                  "internalType": "int8",
                  "name": "shoot",
                  "type": "int8"
                },
                {
                  "internalType": "int8",
                  "name": "melee",
                  "type": "int8"
                },
                {
                  "internalType": "bool",
                  "name": "hasGun",
                  "type": "bool"
                }
              ],
              "internalType": "struct BCTypes.Traits",
              "name": "currentTraits",
              "type": "tuple"
            },
            {
              "components": [
                {
                  "internalType": "uint8",
                  "name": "row",
                  "type": "uint8"
                },
                {
                  "internalType": "uint8",
                  "name": "col",
                  "type": "uint8"
                }
              ],
              "internalType": "struct BCTypes.Position",
              "name": "position",
              "type": "tuple"
            },
            {
              "components": [
                {
                  "internalType": "uint8",
                  "name": "row",
                  "type": "uint8"
                },
                {
                  "internalType": "uint8",
                  "name": "col",
                  "type": "uint8"
                }
              ],
              "internalType": "struct BCTypes.Position",
              "name": "lastPos",
              "type": "tuple"
            },
            {
              "internalType": "int8",
              "name": "healthDmgTaken",
              "type": "int8"
            },
            {
              "internalType": "uint8",
              "name": "armorDmgTaken",
              "type": "uint8"
            },
            {
              "internalType": "uint8",
              "name": "actionsTaken",
              "type": "uint8"
            },
            {
              "internalType": "uint8",
              "name": "dataTokens",
              "type": "uint8"
            },
            {
              "internalType": "uint8[]",
              "name": "currentEffects",
              "type": "uint8[]"
            },
            {
              "internalType": "uint8",
              "name": "numItemsHeld",
              "type": "uint8"
            },
            {
              "internalType": "bool",
              "name": "dead",
              "type": "bool"
            },
            {
              "internalType": "uint256",
              "name": "gameId",
              "type": "uint256"
            }
          ],
          "indexed": false,
          "internalType": "struct BCTypes.Player",
          "name": "player",
          "type": "tuple"
        },
        {
          "indexed": false,
          "internalType": "enum BCTypes.Action",
          "name": "action",
          "type": "uint8"
        }
      ],
      "name": "ActionCompleteEvent",
      "type": "event"
    },
    {
      "anonymous": false,
      "inputs": [
        {
          "indexed": true,
          "internalType": "uint256",
          "name": "gameId",
          "type": "uint256"
        },
        {
          "indexed": false,
          "internalType": "uint256",
          "name": "roll",
          "type": "uint256"
        },
        {
          "indexed": false,
          "internalType": "uint256",
          "name": "forValue",
          "type": "uint256"
        },
        {
          "indexed": false,
          "internalType": "uint256",
          "name": "against",
          "type": "uint256"
        }
      ],
      "name": "ChallengeEvent",
      "type": "event"
    },
    {
      "anonymous": false,
      "inputs": [
        {
          "indexed": true,
          "internalType": "uint256",
          "name": "gameId",
          "type": "uint256"
        },
        {
          "indexed": false,
          "internalType": "uint256",
          "name": "roll",
          "type": "uint256"
        }
      ],
      "name": "DiceRollEvent",
      "type": "event"
    },
    {
      "anonymous": false,
      "inputs": [
        {
          "indexed": true,
          "internalType": "address",
          "name": "previousOwner",
          "type": "address"
        },
        {
          "indexed": true,
          "internalType": "address",
          "name": "newOwner",
          "type": "address"
        }
      ],
      "name": "OwnershipTransferred",
      "type": "event"
    },
    {
      "inputs": [
        {
          "internalType": "int256",
          "name": "x",
          "type": "int256"
        }
      ],
      "name": "abs",
      "outputs": [
        {
          "internalType": "int256",
          "name": "",
          "type": "int256"
        }
      ],
      "stateMutability": "pure",
      "type": "function"
    },
    {
      "inputs": [],
      "name": "bcEvents",
      "outputs": [
        {
          "internalType": "contract EventsInterface",
          "name": "",
          "type": "address"
        }
      ],
      "stateMutability": "view",
      "type": "function"
    },
    {
      "inputs": [],
      "name": "chars",
      "outputs": [
        {
          "internalType": "contract CharInterface",
          "name": "",
          "type": "address"
        }
      ],
      "stateMutability": "view",
      "type": "function"
    },
    {
      "inputs": [],
      "name": "charsAddress",
      "outputs": [
        {
          "internalType": "address",
          "name": "",
          "type": "address"
        }
      ],
      "stateMutability": "view",
      "type": "function"
    },
    {
      "inputs": [
        {
          "internalType": "uint256",
          "name": "_gameId",
          "type": "uint256"
        },
        {
          "internalType": "uint256",
          "name": "_playerId",
          "type": "uint256"
        }
      ],
      "name": "debugMovePlayerForTesting",
      "outputs": [],
      "stateMutability": "nonpayable",
      "type": "function"
    },
    {
      "inputs": [
        {
          "internalType": "uint256",
          "name": "_gameId",
          "type": "uint256"
        },
        {
          "internalType": "uint256",
          "name": "_playerId",
          "type": "uint256"
        },
        {
          "internalType": "uint256",
          "name": "_row",
          "type": "uint256"
        },
        {
          "internalType": "uint256",
          "name": "_col",
          "type": "uint256"
        }
      ],
      "name": "debugMovePlayerToRoom",
      "outputs": [],
      "stateMutability": "nonpayable",
      "type": "function"
    },
    {
      "inputs": [],
      "name": "denizens",
      "outputs": [
        {
          "internalType": "contract DenizensInterface",
          "name": "",
          "type": "address"
        }
      ],
      "stateMutability": "view",
      "type": "function"
    },
    {
      "inputs": [
        {
          "internalType": "uint256",
          "name": "_gameId",
          "type": "uint256"
        },
        {
          "internalType": "uint256",
          "name": "_playerId",
          "type": "uint256"
        },
        {
          "internalType": "enum BCTypes.Action",
          "name": "_action",
          "type": "uint8"
        },
        {
          "internalType": "enum BCTypes.Followthrough",
          "name": "_followthrough",
          "type": "uint8"
        },
        {
          "internalType": "uint256",
          "name": "_1stDirection",
          "type": "uint256"
        },
        {
          "internalType": "uint256",
          "name": "_2ndDirection",
          "type": "uint256"
        },
        {
          "internalType": "uint256[]",
          "name": "_ids",
          "type": "uint256[]"
        }
      ],
      "name": "doAction",
      "outputs": [],
      "stateMutability": "payable",
      "type": "function"
    },
    {
      "inputs": [],
      "name": "games",
      "outputs": [
        {
          "internalType": "contract GamesInterface",
          "name": "",
          "type": "address"
        }
      ],
      "stateMutability": "view",
      "type": "function"
    },
    {
      "inputs": [
        {
          "components": [
            {
              "internalType": "uint8",
              "name": "row",
              "type": "uint8"
            },
            {
              "internalType": "uint8",
              "name": "col",
              "type": "uint8"
            }
          ],
          "internalType": "struct BCTypes.Position",
          "name": "_firstRoom",
          "type": "tuple"
        },
        {
          "components": [
            {
              "internalType": "uint8",
              "name": "row",
              "type": "uint8"
            },
            {
              "internalType": "uint8",
              "name": "col",
              "type": "uint8"
            }
          ],
          "internalType": "struct BCTypes.Position",
          "name": "_secondRoom",
          "type": "tuple"
        }
      ],
      "name": "getDirectionBetween",
      "outputs": [
        {
          "internalType": "uint256",
          "name": "",
          "type": "uint256"
        }
      ],
      "stateMutability": "pure",
      "type": "function"
    },
    {
      "inputs": [
        {
          "internalType": "uint256",
          "name": "_gameId",
          "type": "uint256"
        }
      ],
      "name": "getEventBlocks",
      "outputs": [
        {
          "internalType": "uint256[]",
          "name": "",
          "type": "uint256[]"
        }
      ],
      "stateMutability": "view",
      "type": "function"
    },
    {
      "inputs": [
        {
          "internalType": "uint256",
          "name": "_direction",
          "type": "uint256"
        },
        {
          "components": [
            {
              "internalType": "uint8",
              "name": "row",
              "type": "uint8"
            },
            {
              "internalType": "uint8",
              "name": "col",
              "type": "uint8"
            }
          ],
          "internalType": "struct BCTypes.Position",
          "name": "_start",
          "type": "tuple"
        }
      ],
      "name": "getNeighborRoom",
      "outputs": [
        {
          "components": [
            {
              "internalType": "uint8",
              "name": "row",
              "type": "uint8"
            },
            {
              "internalType": "uint8",
              "name": "col",
              "type": "uint8"
            }
          ],
          "internalType": "struct BCTypes.Position",
          "name": "",
          "type": "tuple"
        }
      ],
      "stateMutability": "pure",
      "type": "function"
    },
    {
      "inputs": [
        {
          "internalType": "uint256",
          "name": "_traitNum",
          "type": "uint256"
        },
        {
          "internalType": "uint256",
          "name": "_subTraitNum",
          "type": "uint256"
        }
      ],
      "name": "getUIOffset",
      "outputs": [
        {
          "internalType": "uint256",
          "name": "",
          "type": "uint256"
        }
      ],
      "stateMutability": "pure",
      "type": "function"
    },
    {
      "inputs": [],
      "name": "items",
      "outputs": [
        {
          "internalType": "contract ItemsInterface",
          "name": "",
          "type": "address"
        }
      ],
      "stateMutability": "view",
      "type": "function"
    },
    {
      "inputs": [
        {
          "components": [
            {
              "internalType": "uint8",
              "name": "row",
              "type": "uint8"
            },
            {
              "internalType": "uint8",
              "name": "col",
              "type": "uint8"
            }
          ],
          "internalType": "struct BCTypes.Position",
          "name": "_pos1",
          "type": "tuple"
        },
        {
          "components": [
            {
              "internalType": "uint8",
              "name": "row",
              "type": "uint8"
            },
            {
              "internalType": "uint8",
              "name": "col",
              "type": "uint8"
            }
          ],
          "internalType": "struct BCTypes.Position",
          "name": "_pos2",
          "type": "tuple"
        }
      ],
      "name": "manhattanDistance",
      "outputs": [
        {
          "internalType": "uint256",
          "name": "",
          "type": "uint256"
        }
      ],
      "stateMutability": "pure",
      "type": "function"
    },
    {
      "inputs": [],
      "name": "maps",
      "outputs": [
        {
          "internalType": "contract MapInterface",
          "name": "",
          "type": "address"
        }
      ],
      "stateMutability": "view",
      "type": "function"
    },
    {
      "inputs": [
        {
          "internalType": "uint256",
          "name": "_min",
          "type": "uint256"
        },
        {
          "internalType": "uint256",
          "name": "_max",
          "type": "uint256"
        },
        {
          "internalType": "uint256",
          "name": "_val",
          "type": "uint256"
        },
        {
          "internalType": "uint256",
          "name": "_valMax",
          "type": "uint256"
        }
      ],
      "name": "normalizeToSmallRange",
      "outputs": [
        {
          "internalType": "uint8",
          "name": "",
          "type": "uint8"
        }
      ],
      "stateMutability": "pure",
      "type": "function"
    },
    {
      "inputs": [
        {
          "internalType": "uint256",
          "name": "_direction",
          "type": "uint256"
        }
      ],
      "name": "opposite",
      "outputs": [
        {
          "internalType": "uint256",
          "name": "",
          "type": "uint256"
        }
      ],
      "stateMutability": "pure",
      "type": "function"
    },
    {
      "inputs": [],
      "name": "owner",
      "outputs": [
        {
          "internalType": "address",
          "name": "",
          "type": "address"
        }
      ],
      "stateMutability": "view",
      "type": "function"
    },
    {
      "inputs": [],
      "name": "players",
      "outputs": [
        {
          "internalType": "contract PlayersInterface",
          "name": "",
          "type": "address"
        }
      ],
      "stateMutability": "view",
      "type": "function"
    },
    {
      "inputs": [],
      "name": "randKeccak",
      "outputs": [
        {
          "internalType": "bytes32",
          "name": "",
          "type": "bytes32"
        }
      ],
      "stateMutability": "nonpayable",
      "type": "function"
    },
    {
      "inputs": [],
      "name": "renounceOwnership",
      "outputs": [],
      "stateMutability": "nonpayable",
      "type": "function"
    },
    {
      "inputs": [
        {
          "internalType": "uint256",
          "name": "_gameId",
          "type": "uint256"
        },
        {
          "internalType": "uint256",
          "name": "_for",
          "type": "uint256"
        },
        {
          "internalType": "uint256",
          "name": "_against",
          "type": "uint256"
        }
      ],
      "name": "resolveChallenge",
      "outputs": [
        {
          "internalType": "bool",
          "name": "",
          "type": "bool"
        }
      ],
      "stateMutability": "nonpayable",
      "type": "function"
    },
    {
      "inputs": [
        {
          "internalType": "uint256",
          "name": "_gameId",
          "type": "uint256"
        }
      ],
      "name": "roll",
      "outputs": [
        {
          "internalType": "uint256",
          "name": "",
          "type": "uint256"
        }
      ],
      "stateMutability": "nonpayable",
      "type": "function"
    },
    {
      "inputs": [
        {
          "internalType": "address",
          "name": "_charAddress",
          "type": "address"
        },
        {
          "internalType": "address",
          "name": "_utilsAddress",
          "type": "address"
        },
        {
          "internalType": "address",
          "name": "_mapsAddress",
          "type": "address"
        },
        {
          "internalType": "address",
          "name": "_gamesAddress",
          "type": "address"
        },
        {
          "internalType": "address",
          "name": "_itemsAddress",
          "type": "address"
        },
        {
          "internalType": "address",
          "name": "_eventsAddress",
          "type": "address"
        },
        {
          "internalType": "address",
          "name": "_playersAddress",
          "type": "address"
        },
        {
          "internalType": "address",
          "name": "_denizensAddress",
          "type": "address"
        }
      ],
      "name": "setContractAddresses",
      "outputs": [],
      "stateMutability": "nonpayable",
      "type": "function"
    },
    {
      "inputs": [
        {
          "internalType": "bytes32",
          "name": "_hash",
          "type": "bytes32"
        },
        {
          "internalType": "uint256",
          "name": "_size",
          "type": "uint256"
        },
        {
          "internalType": "uint256",
          "name": "_offset",
          "type": "uint256"
        }
      ],
      "name": "sliceHashToSmallInt",
      "outputs": [
        {
          "internalType": "uint8",
          "name": "",
          "type": "uint8"
        }
      ],
      "stateMutability": "pure",
      "type": "function"
    },
    {
      "inputs": [
        {
          "internalType": "uint8",
          "name": "_min",
          "type": "uint8"
        },
        {
          "internalType": "uint8",
          "name": "_max",
          "type": "uint8"
        }
      ],
      "name": "smallIntBetweenVals",
      "outputs": [
        {
          "internalType": "uint8",
          "name": "",
          "type": "uint8"
        }
      ],
      "stateMutability": "nonpayable",
      "type": "function"
    },
    {
      "inputs": [
        {
          "internalType": "address",
          "name": "newOwner",
          "type": "address"
        }
      ],
      "name": "transferOwnership",
      "outputs": [],
      "stateMutability": "nonpayable",
      "type": "function"
    }
  ],
  "transactionHash": "0xd45570f65b06106822845356b77497a69e27876cea43a5d30ccbcbf73a8f4de5",
  "args": [],
  "numDeployments": 1,
  "solcInputHash": "e5f151f5cbc45bae039f883ab05df643",
  "bytecode": "0x608060405260006001553480156200001657600080fd5b50620000223362000028565b62000078565b600080546001600160a01b038381166001600160a01b0319831681178455604051919092169283917f8be0079c531659141344cd1fd0a4f28419497f9722a3daafe3b4186f6b6457e09190a35050565b61453e80620000886000396000f3fe6080604052600436106101b75760003560e01c80638214f222116100ec578063a8ca85bb1161008a578063dc0b356411610064578063dc0b356414610504578063f10bff2b14610524578063f2fde38b14610544578063fa3993c21461056457600080fd5b8063a8ca85bb146104b1578063c06fad06146104c4578063ce28613f146104e457600080fd5b8063951fc3fe116100c6578063951fc3fe14610424578063955a015b1461045157806397f34c3f146104715780639fca1ee11461049157600080fd5b80638214f222146103c65780638da5cb5b146103e6578063921d27991461040457600080fd5b8063425c38d81161015957806364db84bf1161013357806364db84bf14610351578063715018a61461037157806372f5a253146103865780637ddae103146103a657600080fd5b8063425c38d8146102cf57806353011696146102ef5780635dc969671461032157600080fd5b80631e1de205116101955780631e1de205146102585780631f7b4f301461026d5780633deaec2b1461028d5780634102b1a7146102ad57600080fd5b80630e73c024146101bc57806310a2cd0d146101f25780631b5ac4b51461022a575b600080fd5b3480156101c857600080fd5b506101dc6101d7366004612de1565b610584565b6040516101e99190612e35565b60405180910390f35b3480156101fe57600080fd5b50600354610212906001600160a01b031681565b6040516001600160a01b0390911681526020016101e9565b34801561023657600080fd5b5061024a610245366004612de1565b6105a4565b6040519081526020016101e9565b34801561026457600080fd5b5061024a6105c0565b34801561027957600080fd5b5061024a610288366004612de1565b610638565b34801561029957600080fd5b50600454610212906001600160a01b031681565b3480156102b957600080fd5b506102cd6102c8366004612e48565b61068c565b005b3480156102db57600080fd5b506102cd6102ea366004612e6a565b61070f565b3480156102fb57600080fd5b5061030f61030a366004612e6a565b610798565b60405160ff90911681526020016101e9565b34801561032d57600080fd5b5061034161033c366004612e9c565b6107d5565b60405190151581526020016101e9565b34801561035d57600080fd5b5061024a61036c366004612e48565b61086d565b34801561037d57600080fd5b506102cd610885565b34801561039257600080fd5b50600954610212906001600160a01b031681565b3480156103b257600080fd5b50600754610212906001600160a01b031681565b3480156103d257600080fd5b5061024a6103e1366004612de1565b610899565b3480156103f257600080fd5b506000546001600160a01b0316610212565b34801561041057600080fd5b506102cd61041f366004612edd565b610918565b34801561043057600080fd5b5061044461043f3660046130ad565b6109a0565b6040516101e991906130da565b34801561045d57600080fd5b50600554610212906001600160a01b031681565b34801561047d57600080fd5b5061030f61048c366004612e9c565b610aca565b34801561049d57600080fd5b50600a54610212906001600160a01b031681565b6102cd6104bf36600461311b565b610af5565b3480156104d057600080fd5b50600654610212906001600160a01b031681565b3480156104f057600080fd5b5061030f6104ff366004613206565b612813565b34801561051057600080fd5b50600854610212906001600160a01b031681565b34801561053057600080fd5b5061024a61053f36600461323f565b6128c3565b34801561055057600080fd5b506102cd61055f36600461326b565b612910565b34801561057057600080fd5b5061024a61057f36600461323f565b612989565b600081815260026020526040902060609061059e90612a51565b92915050565b6000808212156105bc576105b78261329e565b61059e565b5090565b60018054600091826105d1836132ba565b91905055506001546001436105e691906132d3565b403360405160200161061d93929190928352602083019190915260601b6bffffffffffffffffffffffff1916604082015260540190565b60405160208183030381529060405280519060200120905090565b60008061064760016006612813565b60ff169050827ffe34d093a460a16ee5fb374540914d1c734a17502c0c1a87b387c8d6097e1c518260405161067e91815260200190565b60405180910390a292915050565b610694612a5e565b600554604080518082018252600080825260208201529051631751422560e01b81526001600160a01b03909216916317514225916106d99186919086906004016132e6565b600060405180830381600087803b1580156106f357600080fd5b505af1158015610707573d6000803e3d6000fd5b505050505050565b610717612a5e565b60055460408051808201825260ff8086168252841660208201529051631751422560e01b81526001600160a01b03909216916317514225916107609188919088906004016132e6565b600060405180830381600087803b15801561077a57600080fd5b505af115801561078e573d6000803e3d6000fd5b5050505050505050565b6000806107a586866132d3565b90506000836107b48684613318565b6107be9190613345565b90506107ca8782613359565b979650505050505050565b6000806107e185610638565b604080518281526020810187905290810185905290915085907f75b6a8325595f91135e07382840634226793c68c9e59623da7e10d7ad3d95b959060600160405180910390a280600103610839576000915050610866565b6003836108468684613359565b610850919061336c565b1315610860576001915050610866565b60009150505b9392505050565b60008161087b846004613318565b6108669190613359565b61088d612a5e565b6108976000612ab8565b565b6000816000036108ab57506001919050565b816001036108bb57506000919050565b816002036108cb57506003919050565b816003036108db57506002919050565b60405162461bcd60e51b815260206004820152600d60248201526c2130b2103234b932b1ba34b7b760991b60448201526064015b60405180910390fd5b610920612a5e565b600380546001600160a01b03199081166001600160a01b039a8b1617909155600480548216978a169790971790965560058054871695891695909517909455600680548616938816939093179092556007805485169187169190911790556008805484169186169190911790556009805490921693169290921790915550565b6040805180820190915260008082526020820152826000036109f2576040518060400160405280600184600001516109d89190613393565b60ff168152602001836020015160ff16815250905061059e565b82600103610a16576040518060400160405280836000015160016109d891906133ac565b82600203610a53576040518060400160405280836000015160ff16815260200183602001516001610a4791906133ac565b60ff169052905061059e565b82600303610a84576040518060400160405280836000015160ff16815260200160018460200151610a479190613393565b6000610a8f84612b08565b604051602001610a9f91906133e9565b60405160208183030381529060405290508060405162461bcd60e51b815260040161090f9190613424565b600080826001610adb86600261353b565b610ae591906132d3565b901b8516831c9150509392505050565b6008546040516310f67fb360e01b8152600481018890526000916001600160a01b0316906310f67fb390602401600060405180830381865afa158015610b3f573d6000803e3d6000fd5b505050506040513d6000823e601f3d908101601f19168201604052610b6791908101906136f1565b600554604051630dfd338360e31b8152600481018b90529192506000916001600160a01b0390911690636fe99c1890602401600060405180830381865afa158015610bb6573d6000803e3d6000fd5b505050506040513d6000823e601f3d908101601f19168201604052610bde9190810190613930565b9050806101600151600014610c355760405162461bcd60e51b815260206004820152601860248201527f4d757374207265736f6c7665206576656e742066697273740000000000000000604482015260640161090f565b602081015115610c7d5760405162461bcd60e51b81526020600482015260136024820152722334b734b9b4103232b734bd32b7103a3ab93760691b604482015260640161090f565b8051610cbd5760405162461bcd60e51b815260206004820152600f60248201526e47616d65206e6f742061637469766560881b604482015260640161090f565b81516001600160a01b03163314610d165760405162461bcd60e51b815260206004820152601760248201527f53656e646572206e6f7420706c61796572206f776e6572000000000000000000604482015260640161090f565b600382610100015160ff1610610d605760405162461bcd60e51b815260206004820152600f60248201526e139bc81858dd1a5bdb9cc81b19599d608a1b604482015260640161090f565b80606001518160a0015181518110610d7a57610d7a613b44565b60200260200101518814610dc05760405162461bcd60e51b815260206004820152600d60248201526c2737ba103cb7bab9103a3ab93760991b604482015260640161090f565b6000600388600c811115610dd657610dd6613b5a565b03610e135782606001516020015160000b83610160015160000b1315610e0e5760405162461bcd60e51b815260040161090f90613b70565b612744565b600288600c811115610e2757610e27613b5a565b036113db5782606001516020015160000b83610160015160000b1315610e5f5760405162461bcd60e51b815260040161090f90613b70565b6004805461012084015160808601518051602090910151604051630dd43b9b60e31b81529485019290925260ff9081166024850152166044830152606482018890526000916001600160a01b0390911690636ea1dcd890608401606060405180830381865afa158015610ed6573d6000803e3d6000fd5b505050506040513d601f19601f82011682018060405250810190610efa9190613bb8565b9050600281604001516004811115610f1457610f14613b5a565b1480610f355750600381604001516004811115610f3357610f33613b5a565b145b80610f455750602081015160ff16155b610f9d5760405162461bcd60e51b815260206004820152602360248201527f31737420446f6f72206e6f74206f70656e2f62726561636865642f756e6c6f636044820152621ad95960ea1b606482015260840161090f565b600181604001516004811115610fb557610fb5613b5a565b03611038576004805461012085015160808701518051602090910151604051635921522360e01b81526001600160a01b0390941694635921522394611005949392918e9160029160009101613c29565b600060405180830381600087803b15801561101f57600080fd5b505af1158015611033573d6000803e3d6000fd5b505050505b60006110488886608001516109a0565b9050600189600181111561105e5761105e613b5a565b0361135d57600061106f88836109a0565b6004805461012088015185516020870151604051630dd43b9b60e31b81529485019290925260ff9081166024850152166044830152606482018b90529192506000916001600160a01b031690636ea1dcd890608401606060405180830381865afa1580156110e1573d6000803e3d6000fd5b505050506040513d601f19601f820116820180604052508101906111059190613bb8565b905060028160400151600481111561111f5761111f613b5a565b1480611140575060038160400151600481111561113e5761113e613b5a565b145b806111505750602081015160ff16155b6111a85760405162461bcd60e51b815260206004820152602360248201527f326e6420446f6f72206e6f74206f70656e2f62726561636865642f756e6c6f636044820152621ad95960ea1b606482015260840161090f565b60048054610120880151604051630f78220b60e11b8152928301526000916001600160a01b0390911690631ef0441690602401600060405180830381865afa1580156111f8573d6000803e3d6000fd5b505050506040513d6000823e601f3d908101601f191682016040526112209190810190613d5f565b9050600281856000015160ff168151811061123d5761123d613b44565b6020026020010151856020015160ff168151811061125d5761125d613b44565b60200260200101516000015160ff16116112ad5760405162461bcd60e51b8152602060048201526011602482015270149bdbdb481b9bdd08195e1c1b1bdc9959607a1b604482015260640161090f565b6001826040015160048111156112c5576112c5613b5a565b0361135757600460009054906101000a90046001600160a01b03166001600160a01b03166359215223886101200151866000015187602001518e600260006040518763ffffffff1660e01b815260040161132496959493929190613c29565b600060405180830381600087803b15801561133e57600080fd5b505af1158015611352573d6000803e3d6000fd5b505050505b50909150505b600560009054906101000a90046001600160a01b03166001600160a01b031663175142258d838e6040518463ffffffff1660e01b81526004016113a2939291906132e6565b600060405180830381600087803b1580156113bc57600080fd5b505af11580156113d0573d6000803e3d6000fd5b505050505050612744565b600088600c8111156113ef576113ef613b5a565b036116595782606001516020015160000b83610160015160000b13156114275760405162461bcd60e51b815260040161090f90613b70565b6004805461012084015160808601518051602090910151604051630dd43b9b60e31b81529485019290925260ff9081166024850152166044830152606482018890526000916001600160a01b0390911690636ea1dcd890608401606060405180830381865afa15801561149e573d6000803e3d6000fd5b505050506040513d601f19601f820116820180604052508101906114c29190613bb8565b90506001816040015160048111156114dc576114dc613b5a565b1461151b5760405162461bcd60e51b815260206004820152600f60248201526e111bdbdc881b9bdd0818db1bdcd959608a1b604482015260640161090f565b6115388b85606001516060015160ff16836020015160ff166107d5565b15611653576004805461012085015160808701518051602090910151604051635921522360e01b81526001600160a01b0390941694635921522394611588949392918e9160029160009101613c29565b600060405180830381600087803b1580156115a257600080fd5b505af11580156115b6573d6000803e3d6000fd5b50600192506115c3915050565b8860018111156115d5576115d5613b5a565b036116535760055460808501516001600160a01b03909116906317514225908d90611601908b906109a0565b8d6040518463ffffffff1660e01b8152600401611620939291906132e6565b600060405180830381600087803b15801561163a57600080fd5b505af115801561164e573d6000803e3d6000fd5b505050505b50612744565b600188600c81111561166d5761166d613b5a565b036118065782606001516020015160000b83610160015160000b13156116a55760405162461bcd60e51b815260040161090f90613b70565b6004805461012084015160808601518051602090910151604051630dd43b9b60e31b81529485019290925260ff9081166024850152166044830152606482018890526000916001600160a01b0390911690636ea1dcd890608401606060405180830381865afa15801561171c573d6000803e3d6000fd5b505050506040513d601f19601f820116820180604052508101906117409190613bb8565b905060018160400151600481111561175a5761175a613b5a565b146117995760405162461bcd60e51b815260206004820152600f60248201526e111bdbdc881b9bdd0818db1bdcd959608a1b604482015260640161090f565b6117b68b85606001516080015160ff16836000015160ff166107d5565b15611653576004805461012085015160808701518051602090910151604051635921522360e01b81526001600160a01b0390941694635921522394611588949392918e9160039160009101613c29565b600488600c81111561181a5761181a613b5a565b03611cc25750600480546101208301516080850151805160209091015160405163f9dfbfcb60e01b81529485019290925260ff90811660248501521660448301526001916000916001600160a01b03169063f9dfbfcb9060640161014060405180830381865afa158015611892573d6000803e3d6000fd5b505050506040513d601f19601f820116820180604052508101906118b69190613e6e565b6080810151909150156119015760405162461bcd60e51b8152602060048201526013602482015272149bdbdb48185b1c9958591e481b1bdbdd1959606a1b604482015260640161090f565b600480546101208501516080870151805160209091015160405162a1871b60e21b81529485019290925260ff90811660248501521660448301526000916001600160a01b03909116906302861c6c9060640160a060405180830381865afa158015611970573d6000803e3d6000fd5b505050506040513d601f19601f820116820180604052508101906119949190613e8b565b90506000816060015160ff1611806119b357506000816040015160ff16115b6119f75760405162461bcd60e51b815260206004820152601560248201527443616e2774206c6f6f7420656d70747920726f6f6d60581b604482015260640161090f565b64174876e800816040015160ff16611a0f9190613318565b3414611a5d5760405162461bcd60e51b815260206004820152601860248201527f57726f6e67207061796d656e7420696e20616374696f6e730000000000000000604482015260640161090f565b600480546101208601516080880151805160209091015160405163086e529d60e41b81529485019290925260ff90811660248501521660448301526001600160a01b0316906386e529d090606401600060405180830381600087803b158015611ac557600080fd5b505af1158015611ad9573d6000803e3d6000fd5b50506008546060840151604051632da41c6560e21b81526001600160a01b03909216935063b69071949250611b1f918f919060040191825260ff16602082015260400190565b600060405180830381600087803b158015611b3957600080fd5b505af1158015611b4d573d6000803e3d6000fd5b5050505060005b816040015160ff16811015611c1657600660009054906101000a90046001600160a01b03166001600160a01b0316630cc0db5364174876e8008e89600001518a6101a001516040518563ffffffff1660e01b8152600401611bd1939291909283526001600160a01b03919091166020830152604082015260600190565b6000604051808303818588803b158015611bea57600080fd5b505af1158015611bfe573d6000803e3d6000fd5b50505050508080611c0e906132ba565b915050611b54565b50600854604082810151905163fe23e2df60e01b8152600481018e905260ff90911660248201526001600160a01b039091169063fe23e2df90604401600060405180830381600087803b158015611c6c57600080fd5b505af1158015611c80573d6000803e3d6000fd5b50506008546020880151604051630f96f55d60e41b81526001600160a01b03909216935063f96f55d092506113a2918f90600401918252602082015260400190565b600588600c811115611cd657611cd6613b5a565b03611f055782606001516020015160000b83610160015160000b1315611d0e5760405162461bcd60e51b815260040161090f90613b70565b600480546101208401516080860151805160209091015160405162a1871b60e21b81529485019290925260ff90811660248501521660448301526000916001600160a01b03909116906302861c6c9060640160a060405180830381865afa158015611d7d573d6000803e3d6000fd5b505050506040513d601f19601f82011682018060405250810190611da19190613e8b565b600754602082015160405163c82c37b960e01b81529293506000926001600160a01b039092169163c82c37b991611dde9160040190815260200190565b600060405180830381865afa158015611dfb573d6000803e3d6000fd5b505050506040513d6000823e601f3d908101601f19168201604052611e239190810190613fa2565b9050806020015115156001151514611e735760405162461bcd60e51b8152602060048201526013602482015272115d995b9d081b9bdd081c195c9b585b995b9d606a1b604482015260640161090f565b600860009054906101000a90046001600160a01b03166001600160a01b031663ed8619618c8e8761012001518960800151876020015160006040518763ffffffff1660e01b81526004016113a2969594939291909586526020808701959095526040860193909352815160ff9081166060870152919093015116608084015260a083019190915260c082015260e00190565b600688600c811115611f1957611f19613b5a565b03611f515782606001516020015160000b83610160015160000b1315610e0e5760405162461bcd60e51b815260040161090f90613b70565b600788600c811115611f6557611f65613b5a565b0361212b57506001611f77848a612c10565b611fc35760405162461bcd60e51b815260206004820152601c60248201527f547279696e6720746f2064726f70206974656d206e6f742068656c6400000000604482015260640161090f565b600854845160405163351dacdf60e01b8152600481018c905260248101919091526001600160a01b039091169063351dacdf90604401600060405180830381600087803b15801561201357600080fd5b505af1158015612027573d6000803e3d6000fd5b50505050600660009054906101000a90046001600160a01b03166001600160a01b03166311ff70478b868660800151600001518760800151602001518e6040518663ffffffff1660e01b8152600401612084959493929190614093565b600060405180830381600087803b15801561209e57600080fd5b505af11580156120b2573d6000803e3d6000fd5b50506008546020860151604051630f96f55d60e41b81526001600160a01b03909216935063f96f55d092506120f4918d90600401918252602082015260400190565b600060405180830381600087803b15801561210e57600080fd5b505af1158015612122573d6000803e3d6000fd5b50505050612744565b600888600c81111561213f5761213f613b5a565b036124b2576006546040516264b0e560e81b8152600481018c90526000916001600160a01b0316906364b0e50090602401600060405180830381865afa15801561218d573d6000803e3d6000fd5b505050506040513d6000823e601f3d908101601f191682016040526121b591908101906140e8565b905060005b81518110156123a1578181815181106121d5576121d5613b44565b60200260200101516101a001516000015160ff1685608001516000015160ff16146122375760405162461bcd60e51b8152602060048201526012602482015271506c61796572206e6f74206174206974656d60701b604482015260640161090f565b81818151811061224957612249613b44565b60200260200101516101a001516020015160ff1685608001516020015160ff16146122ab5760405162461bcd60e51b8152602060048201526012602482015271506c61796572206e6f74206174206974656d60701b604482015260640161090f565b60028282815181106122bf576122bf613b44565b6020026020010151610180015160048111156122dd576122dd613b5a565b1461232a5760405162461bcd60e51b815260206004820152601e60248201527f4974656d20697320646973636172646564206f722064657374726f7965640000604482015260640161090f565b8b82828151811061233d5761233d613b44565b602002602001015161016001511461238f5760405162461bcd60e51b81526020600482015260156024820152744974656d206e6f7420696e20746869732067616d6560581b604482015260640161090f565b80612399816132ba565b9150506121ba565b50600854855160405163fe23e2df60e01b8152600481018d90526024810191909152600193506001600160a01b039091169063fe23e2df90604401600060405180830381600087803b1580156123f657600080fd5b505af115801561240a573d6000803e3d6000fd5b505060065486516040516307bc9a2360e21b81526001600160a01b039092169350631ef2688c9250612442918e918a91600401614253565b600060405180830381600087803b15801561245c57600080fd5b505af1158015612470573d6000803e3d6000fd5b50506008546020870151604051630f96f55d60e41b81526001600160a01b03909216935063f96f55d09250611620918e90600401918252602082015260400190565b600988600c8111156124c6576124c6613b5a565b036125f4576004805461012084015160808601518051602090910151604051636474d64b60e11b81529485019290925260ff90811660248501521660448301526000916001600160a01b039091169063c8e9ac9690606401602060405180830381865afa15801561253b573d6000803e3d6000fd5b505050506040513d601f19601f8201168201806040525081019061255f9190614284565b9050600281146125a55760405162461bcd60e51b81526020600482015260116024820152704e6f7420696e20446f6e676861696a697560781b604482015260640161090f565b600554602085015160a0850151604051633f090e3d60e01b8152600481018f9052602481018e9052604481019290925260648201526001600160a01b0390911690633f090e3d90608401611620565b600a88600c81111561260857612608613b5a565b036126785760095461012083015185516001600160a01b03909216916382772c3a918d91889060009061263d5761263d613b44565b60200260200101518d886060015160c0015160ff1689608001516040518763ffffffff1660e01b81526004016120f49695949392919061429d565b600b88600c81111561268c5761268c613b5a565b036126fc5760095461012083015185516001600160a01b03909216916382772c3a918d9188906000906126c1576126c1613b44565b60200260200101518d886060015160a0015160ff1689608001516040518763ffffffff1660e01b81526004016120f49695949392919061429d565b60405162461bcd60e51b815260206004820152601860248201527f4552524f523a2042616420616374696f6e20636f6e6669670000000000000000604482015260640161090f565b600554604051630aa6e80360e41b8152600481018c9052602481018b905282151560448201526001600160a01b039091169063aa6e803090606401600060405180830381600087803b15801561279957600080fd5b505af11580156127ad573d6000803e3d6000fd5b505050507f841fadd20ca0d2072bb923bbefd5d354a57305abd5358842d8d77885c2f8f0808a8a858b6040516127e69493929190614324565b60405180910390a160008a81526002602052604090206128069043612d2a565b5050505050505050505050565b6001805460009182612824836132ba565b919050555060003360015460014361283c91906132d3565b60405160609390931b6bffffffffffffffffffffffff19166020840152603483019190915240605482015260740160408051601f198184030181529190528051602090910120905060006128908585613393565b61289b9060016133ac565b90508460ff168160ff16836128b0919061449f565b6128ba9190613359565b95945050505050565b6000806128e3836000015160000b856000015160000b610245919061336c565b90506000612904846020015160000b866020015160000b610245919061336c565b90506128ba8183613359565b612918612a5e565b6001600160a01b03811661297d5760405162461bcd60e51b815260206004820152602660248201527f4f776e61626c653a206e6577206f776e657220697320746865207a65726f206160448201526564647265737360d01b606482015260840161090f565b61298681612ab8565b50565b80518251600091612999916144b3565b60000b6001036129ab5750600061059e565b815183516129b991906144b3565b60000b196129c95750600161059e565b816020015183602001516129dd91906144b3565b60000b196129ed5750600261059e565b81602001518360200151612a0191906144b3565b60000b600103612a135750600361059e565b60405162461bcd60e51b8152602060048201526013602482015272115c9c9bdc8e88139bdd0818591a9858d95b9d606a1b604482015260640161090f565b6060600061086683612d36565b6000546001600160a01b031633146108975760405162461bcd60e51b815260206004820181905260248201527f4f776e61626c653a2063616c6c6572206973206e6f7420746865206f776e6572604482015260640161090f565b600080546001600160a01b038381166001600160a01b0319831681178455604051919092169283917f8be0079c531659141344cd1fd0a4f28419497f9722a3daafe3b4186f6b6457e09190a35050565b606081600003612b2f5750506040805180820190915260018152600360fc1b602082015290565b8160005b8115612b595780612b43816132ba565b9150612b529050600a83613345565b9150612b33565b6000816001600160401b03811115612b7357612b73612f86565b6040519080825280601f01601f191660200182016040528015612b9d576020820181803683370190505b5090505b8415612c0857612bb26001836132d3565b9150612bbf600a8661449f565b612bca906030613359565b60f81b818381518110612bdf57612bdf613b44565b60200101906001600160f81b031916908160001a905350612c01600a86613345565b9450612ba1565b949350505050565b600654604051633841fae160e01b81526004810183905260009182916001600160a01b0390911690633841fae190602401600060405180830381865afa158015612c5e573d6000803e3d6000fd5b505050506040513d6000823e601f3d908101601f19168201604052612c8691908101906144d4565b905060005b8451811015612d1f576000805b8351811015612cf557838181518110612cb357612cb3613b44565b6020026020010151878481518110612ccd57612ccd613b44565b602002602001015103612ce35760019150612cf5565b80612ced816132ba565b915050612c98565b50801515600003612d0c576000935050505061059e565b5080612d17816132ba565b915050612c8b565b506001949350505050565b60006108668383612d92565b606081600001805480602002602001604051908101604052809291908181526020018280548015612d8657602002820191906000526020600020905b815481526020019060010190808311612d72575b50505050509050919050565b6000818152600183016020526040812054612dd95750815460018181018455600084815260208082209093018490558454848252828601909352604090209190915561059e565b50600061059e565b600060208284031215612df357600080fd5b5035919050565b600081518084526020808501945080840160005b83811015612e2a57815187529582019590820190600101612e0e565b509495945050505050565b6020815260006108666020830184612dfa565b60008060408385031215612e5b57600080fd5b50508035926020909101359150565b60008060008060808587031215612e8057600080fd5b5050823594602084013594506040840135936060013592509050565b600080600060608486031215612eb157600080fd5b505081359360208301359350604090920135919050565b6001600160a01b038116811461298657600080fd5b600080600080600080600080610100898b031215612efa57600080fd5b8835612f0581612ec8565b97506020890135612f1581612ec8565b96506040890135612f2581612ec8565b95506060890135612f3581612ec8565b94506080890135612f4581612ec8565b935060a0890135612f5581612ec8565b925060c0890135612f6581612ec8565b915060e0890135612f7581612ec8565b809150509295985092959890939650565b634e487b7160e01b600052604160045260246000fd5b604080519081016001600160401b0381118282101715612fbe57612fbe612f86565b60405290565b6040516101c081016001600160401b0381118282101715612fbe57612fbe612f86565b6040516102a081016001600160401b0381118282101715612fbe57612fbe612f86565b60405160e081016001600160401b0381118282101715612fbe57612fbe612f86565b604051601f8201601f191681016001600160401b038111828210171561305457613054612f86565b604052919050565b60ff8116811461298657600080fd5b60006040828403121561307d57600080fd5b613085612f9c565b905081356130928161305c565b815260208201356130a28161305c565b602082015292915050565b600080606083850312156130c057600080fd5b823591506130d1846020850161306b565b90509250929050565b6040810161059e8284805160ff908116835260209182015116910152565b60006001600160401b0382111561311157613111612f86565b5060051b60200190565b600080600080600080600060e0888a03121561313657600080fd5b8735965060208089013596506040890135600d811061315457600080fd5b955060608901356002811061316857600080fd5b94506080890135935060a0890135925060c08901356001600160401b0381111561319157600080fd5b8901601f81018b136131a257600080fd5b80356131b56131b0826130f8565b61302c565b81815260059190911b8201830190838101908d8311156131d457600080fd5b928401925b828410156131f2578335825292840192908401906131d9565b809550505050505092959891949750929550565b6000806040838503121561321957600080fd5b82356132248161305c565b915060208301356132348161305c565b809150509250929050565b6000806080838503121561325257600080fd5b61325c848461306b565b91506130d1846040850161306b565b60006020828403121561327d57600080fd5b813561086681612ec8565b634e487b7160e01b600052601160045260246000fd5b6000600160ff1b82016132b3576132b3613288565b5060000390565b6000600182016132cc576132cc613288565b5060010190565b8181038181111561059e5761059e613288565b8381526080810161330a6020830185805160ff908116835260209182015116910152565b826060830152949350505050565b808202811582820484141761059e5761059e613288565b634e487b7160e01b600052601260045260246000fd5b6000826133545761335461332f565b500490565b8082018082111561059e5761059e613288565b818103600083128015838313168383128216171561338c5761338c613288565b5092915050565b60ff828116828216039081111561059e5761059e613288565b60ff818116838216019081111561059e5761059e613288565b60005b838110156133e05781810151838201526020016133c8565b50506000910152565b72024b73b30b634b2103234b932b1ba34b7b71d1606d1b8152600082516134178160138501602087016133c5565b9190910160130192915050565b60208152600082518060208401526134438160408501602087016133c5565b601f01601f19169190910160400192915050565b600181815b8085111561349257816000190482111561347857613478613288565b8085161561348557918102915b93841c939080029061345c565b509250929050565b6000826134a95750600161059e565b816134b65750600061059e565b81600181146134cc57600281146134d6576134f2565b600191505061059e565b60ff8411156134e7576134e7613288565b50506001821b61059e565b5060208310610133831016604e8410600b8410161715613515575081810a61059e565b61351f8383613457565b806000190482111561353357613533613288565b029392505050565b6000610866838361349a565b805161355281612ec8565b919050565b8051600081900b811461355257600080fd5b8051801515811461355257600080fd5b600061010080838503121561358d57600080fd5b604051908101906001600160401b03821181831017156135af576135af612f86565b816040528092506135bf84613557565b81526135cd60208501613557565b60208201526135de60408501613557565b60408201526135ef60608501613557565b606082015261360060808501613557565b608082015261361160a08501613557565b60a082015261362260c08501613557565b60c082015261363360e08501613569565b60e0820152505092915050565b80516135528161305c565b60006040828403121561365d57600080fd5b613665612f9c565b905081516136728161305c565b815260208201516130a28161305c565b600082601f83011261369357600080fd5b815160206136a36131b0836130f8565b82815260059290921b840181019181810190868411156136c257600080fd5b8286015b848110156136e65780516136d98161305c565b83529183019183016136c6565b509695505050505050565b60006020828403121561370357600080fd5b81516001600160401b038082111561371a57600080fd5b908301906102e0828603121561372f57600080fd5b613737612fc4565b61374083613547565b815260208301516020820152604083015160408201526137638660608501613579565b60608201526101606137778782860161364b565b60808301526101a061378b8882870161364b565b60a084015261379d6101e08601613557565b60c08401526137af6102008601613640565b60e08401526137c16102208601613640565b6101008401526137d46102408601613640565b610120840152610260850151848111156137ed57600080fd5b6137f989828801613682565b6101408501525061380d6102808601613640565b8284015261381e6102a08601613569565b6101808401526102c085015181840152505080935050505092915050565b600082601f83011261384d57600080fd5b8151602061385d6131b0836130f8565b82815260059290921b8401810191818101908684111561387c57600080fd5b8286015b848110156136e65780518352918301918301613880565b6000608082840312156138a957600080fd5b604051608081018181106001600160401b03821117156138cb576138cb612f86565b806040525080915082516138de8161305c565b815260208301516138ee8161305c565b602082015260408301516139018161305c565b604082015260608301516139148161305c565b6060919091015292915050565b80516006811061355257600080fd5b60006020828403121561394257600080fd5b81516001600160401b038082111561395957600080fd5b90830190610320828603121561396e57600080fd5b613976612fe7565b61397f83613569565b815261398d60208401613569565b6020820152604083015160408201526060830151828111156139ae57600080fd5b6139ba8782860161383c565b6060830152506080830151828111156139d257600080fd5b6139de8782860161383c565b60808301525060a083015160a082015260c083015160c082015260e083015160e0820152610100613a1187828601613897565b90820152610180838101516101208301526101a0808501516101408401526101c0808601516101608501526101e0613a4a818801613921565b848601526102009350613a5f8a85890161364b565b8386015261024092508287015186811115613a7957600080fd5b613a858b828a0161383c565b838701525061026091508187015186811115613aa057600080fd5b613aac8b828a0161383c565b8287015250506102808087015186811115613ac657600080fd5b613ad28b828a0161383c565b85870152506102a0870151935085841115613aec57600080fd5b613af88a85890161383c565b6102208601526102c0870151838601526102e087015182860152610300870151935085841115613b2757600080fd5b613b338a85890161383c565b908501525091979650505050505050565b634e487b7160e01b600052603260045260246000fd5b634e487b7160e01b600052602160045260246000fd5b602080825260169082015275486f6c64696e6720746f6f206d616e79206974656d7360501b604082015260600190565b6005811061298657600080fd5b805161355281613ba0565b600060608284031215613bca57600080fd5b604051606081018181106001600160401b0382111715613bec57613bec612f86565b6040528251613bfa8161305c565b81526020830151613c0a8161305c565b60208201526040830151613c1d81613ba0565b60408201529392505050565b86815260ff8681166020830152851660408201526060810184905260c0810160058410613c5857613c58613b5a565b608082019390935260a00152949350505050565b60006101408284031215613c7f57600080fd5b613c8761300a565b90508151613c948161305c565b8152602082810151613ca58161305c565b82820152605f83018413613cb857600080fd5b604051608081018181106001600160401b0382111715613cda57613cda612f86565b6040528060c0850186811115613cef57600080fd5b604086015b81811015613d0b5780518352918401918401613cf4565b50826040860152613d1b81613569565b606086015250505050613d3060e08301613569565b6080820152613d426101008301613569565b60a0820152613d546101208301613569565b60c082015292915050565b60006020808385031215613d7257600080fd5b82516001600160401b0380821115613d8957600080fd5b818501915085601f830112613d9d57600080fd5b8151613dab6131b0826130f8565b81815260059190911b83018401908481019088831115613dca57600080fd5b8585015b83811015613e6157805185811115613de557600080fd5b8601603f81018b13613df657600080fd5b87810151613e066131b0826130f8565b8181526101409182028301604001918a820191908e841115613e285760008081fd5b6040850194505b83851015613e5057613e418f86613c6c565b835293840193918b0191613e2f565b508652505050918601918601613dce565b5098975050505050505050565b60006101408284031215613e8157600080fd5b6108668383613c6c565b600060a08284031215613e9d57600080fd5b60405160a081018181106001600160401b0382111715613ebf57613ebf612f86565b604052613ecb83613921565b8152602083015160208201526040830151613ee58161305c565b60408201526060830151613ef88161305c565b6060820152613f0960808401613569565b60808201529392505050565b600082601f830112613f2657600080fd5b81516020613f366131b0836130f8565b82815260069290921b84018101918181019086841115613f5557600080fd5b8286015b848110156136e65760408189031215613f725760008081fd5b613f7a612f9c565b815160178110613f8a5760008081fd5b81528185015185820152835291830191604001613f59565b600060208284031215613fb457600080fd5b81516001600160401b0380821115613fcb57600080fd5b9083019060e08286031215613fdf57600080fd5b613fe761300a565b82518152613ff760208401613569565b602082015261400860408401613640565b604082015261401960608401613640565b606082015260808301518281111561403057600080fd5b61403c87828601613f15565b60808301525060a08301518281111561405457600080fd5b61406087828601613f15565b60a08301525060c08301518281111561407857600080fd5b61408487828601613f15565b60c08301525095945050505050565b85815260a0602082015260006140ac60a0830187612dfa565b60ff9586166040840152939094166060820152608001529392505050565b80516003811061355257600080fd5b8051600b811061355257600080fd5b600060208083850312156140fb57600080fd5b82516001600160401b0381111561411157600080fd5b8301601f8101851361412257600080fd5b80516141306131b0826130f8565b8181526101e0918202830184019184820191908884111561415057600080fd5b938501935b838510156142475780858a03121561416d5760008081fd5b614175612fc4565b855181528686015187820152604080870151908201526060808701519082015260806141a2818801613547565b9082015260a0868101519082015260c06141bd8188016140ca565b9082015260e06141ce878201613640565b908201526101006141e0878201613640565b908201526101206141f28782016140d9565b90820152610140614204878201613640565b908201526101608681015190820152610180614221818801613bad565b908201526101a06142348b88830161364b565b9082015283529384019391850191614155565b50979650505050505050565b83815260606020820152600061426c6060830185612dfa565b905060018060a01b0383166040830152949350505050565b60006020828403121561429657600080fd5b5051919050565b600060e0820190508782528660208301528560408301528460608301528360808301526107ca60a0830184805160ff908116835260209182015116910152565b600081518084526020808501945080840160005b83811015612e2a57815160ff16875295820195908201906001016142f1565b600d811061432057614320613b5a565b9052565b8481528360208201526080604082015261434a6080820184516001600160a01b03169052565b602083015160a0820152604083015160c0820152600060608401516143d060e08401828051600081810b84526020830151810b60208501526040830151810b60408501526060830151810b60608501526080830151810b608085015260a0830151810b60a085015260c0830151810b60c0850152505060e0810151151560e08301525050565b506080840151805160ff9081166101e0850152602091820151811661020085015260a08601518051821661022086015290910151811661024084015260c085015160000b61026084015260e0850151811661028084015261010085015181166102a0840152610120850151166102c08301526101408401516102e08084015261445d6103608401826142dd565b905061016085015161447561030085018260ff169052565b5061018085015115156103208401526101a085015161034084015290506128ba6060830184614310565b6000826144ae576144ae61332f565b500690565b600082810b9082900b03607f198112607f8213171561059e5761059e613288565b6000602082840312156144e657600080fd5b81516001600160401b038111156144fc57600080fd5b612c088482850161383c56fea2646970667358221220494c9818399c4c04a4ac22f23a8ce1b7924d95ab2a9bda05dfa62d7c715ff85264736f6c63430008110033",
  "devdoc": {
    "kind": "dev",
    "methods": {
      "owner()": {
        "details": "Returns the address of the current owner."
      },
      "renounceOwnership()": {
        "details": "Leaves the contract without owner. It will not be possible to call `onlyOwner` functions anymore. Can only be called by the current owner. NOTE: Renouncing ownership will leave the contract without an owner, thereby removing any functionality that is only available to the owner."
      },
      "transferOwnership(address)": {
        "details": "Transfers ownership of the contract to a new account (`newOwner`). Can only be called by the current owner."
      }
    },
    "version": 1
  },
  "userdoc": {
    "kind": "user",
    "methods": {},
    "version": 1
  },
  "storageLayout": {
    "storage": [
      {
        "astId": 7,
        "contract": "contracts/Actions.sol:Actions",
        "label": "_owner",
        "offset": 0,
        "slot": "0",
        "type": "t_address"
      },
      {
        "astId": 21561,
        "contract": "contracts/Actions.sol:Actions",
        "label": "TODO_randomSeed",
        "offset": 0,
        "slot": "1",
        "type": "t_uint256"
      },
      {
        "astId": 21566,
        "contract": "contracts/Actions.sol:Actions",
        "label": "gameToEventBlocks",
        "offset": 0,
        "slot": "2",
        "type": "t_mapping(t_uint256,t_struct(UintSet)3021_storage)"
      },
      {
        "astId": 3482,
        "contract": "contracts/Actions.sol:Actions",
        "label": "chars",
        "offset": 0,
        "slot": "3",
        "type": "t_contract(CharInterface)3192"
      },
      {
        "astId": 3485,
        "contract": "contracts/Actions.sol:Actions",
        "label": "maps",
        "offset": 0,
        "slot": "4",
        "type": "t_contract(MapInterface)3287"
      },
      {
        "astId": 3488,
        "contract": "contracts/Actions.sol:Actions",
        "label": "games",
        "offset": 0,
        "slot": "5",
        "type": "t_contract(GamesInterface)3326"
      },
      {
        "astId": 3491,
        "contract": "contracts/Actions.sol:Actions",
        "label": "items",
        "offset": 0,
        "slot": "6",
        "type": "t_contract(ItemsInterface)3377"
      },
      {
        "astId": 3494,
        "contract": "contracts/Actions.sol:Actions",
        "label": "bcEvents",
        "offset": 0,
        "slot": "7",
        "type": "t_contract(EventsInterface)3418"
      },
      {
        "astId": 3497,
        "contract": "contracts/Actions.sol:Actions",
        "label": "players",
        "offset": 0,
        "slot": "8",
        "type": "t_contract(PlayersInterface)3471"
      },
      {
        "astId": 3500,
        "contract": "contracts/Actions.sol:Actions",
        "label": "denizens",
        "offset": 0,
        "slot": "9",
        "type": "t_contract(DenizensInterface)3178"
      },
      {
        "astId": 3502,
        "contract": "contracts/Actions.sol:Actions",
        "label": "charsAddress",
        "offset": 0,
        "slot": "10",
        "type": "t_address"
      }
    ],
    "types": {
      "t_address": {
        "encoding": "inplace",
        "label": "address",
        "numberOfBytes": "20"
      },
      "t_array(t_bytes32)dyn_storage": {
        "base": "t_bytes32",
        "encoding": "dynamic_array",
        "label": "bytes32[]",
        "numberOfBytes": "32"
      },
      "t_bytes32": {
        "encoding": "inplace",
        "label": "bytes32",
        "numberOfBytes": "32"
      },
      "t_contract(CharInterface)3192": {
        "encoding": "inplace",
        "label": "contract CharInterface",
        "numberOfBytes": "20"
      },
      "t_contract(DenizensInterface)3178": {
        "encoding": "inplace",
        "label": "contract DenizensInterface",
        "numberOfBytes": "20"
      },
      "t_contract(EventsInterface)3418": {
        "encoding": "inplace",
        "label": "contract EventsInterface",
        "numberOfBytes": "20"
      },
      "t_contract(GamesInterface)3326": {
        "encoding": "inplace",
        "label": "contract GamesInterface",
        "numberOfBytes": "20"
      },
      "t_contract(ItemsInterface)3377": {
        "encoding": "inplace",
        "label": "contract ItemsInterface",
        "numberOfBytes": "20"
      },
      "t_contract(MapInterface)3287": {
        "encoding": "inplace",
        "label": "contract MapInterface",
        "numberOfBytes": "20"
      },
      "t_contract(PlayersInterface)3471": {
        "encoding": "inplace",
        "label": "contract PlayersInterface",
        "numberOfBytes": "20"
      },
      "t_mapping(t_bytes32,t_uint256)": {
        "encoding": "mapping",
        "key": "t_bytes32",
        "label": "mapping(bytes32 => uint256)",
        "numberOfBytes": "32",
        "value": "t_uint256"
      },
      "t_mapping(t_uint256,t_struct(UintSet)3021_storage)": {
        "encoding": "mapping",
        "key": "t_uint256",
        "label": "mapping(uint256 => struct EnumerableSet.UintSet)",
        "numberOfBytes": "32",
        "value": "t_struct(UintSet)3021_storage"
      },
      "t_struct(Set)2563_storage": {
        "encoding": "inplace",
        "label": "struct EnumerableSet.Set",
        "members": [
          {
            "astId": 2558,
            "contract": "contracts/Actions.sol:Actions",
            "label": "_values",
            "offset": 0,
            "slot": "0",
            "type": "t_array(t_bytes32)dyn_storage"
          },
          {
            "astId": 2562,
            "contract": "contracts/Actions.sol:Actions",
            "label": "_indexes",
            "offset": 0,
            "slot": "1",
            "type": "t_mapping(t_bytes32,t_uint256)"
          }
        ],
        "numberOfBytes": "64"
      },
      "t_struct(UintSet)3021_storage": {
        "encoding": "inplace",
        "label": "struct EnumerableSet.UintSet",
        "members": [
          {
            "astId": 3020,
            "contract": "contracts/Actions.sol:Actions",
            "label": "_inner",
            "offset": 0,
            "slot": "0",
            "type": "t_struct(Set)2563_storage"
          }
        ],
        "numberOfBytes": "64"
      },
      "t_uint256": {
        "encoding": "inplace",
        "label": "uint256",
        "numberOfBytes": "32"
      }
    }
  }
}