{
  "address": "0x0c63f2dc317Db0DE78D69Dd3780888061dC39250",
  "abi": [
    {
      "anonymous": false,
      "inputs": [
        {
          "indexed": false,
          "internalType": "uint256",
          "name": "currentPlayerTurnIndex",
          "type": "uint256"
        },
        {
          "components": [
            {
              "internalType": "address",
              "name": "owner",
              "type": "address"
            },
            {
              "internalType": "address",
              "name": "charContractAddress",
              "type": "address"
            },
            {
              "internalType": "uint256",
              "name": "characterId",
              "type": "uint256"
            },
            {
              "components": [
                {
                  "internalType": "uint8",
                  "name": "row",
                  "type": "uint8"
                },
                {
                  "internalType": "uint8",
                  "name": "col",
                  "type": "uint8"
                }
              ],
              "internalType": "struct BCTypes.Position",
              "name": "position",
              "type": "tuple"
            },
            {
              "internalType": "int8",
              "name": "healthDmgTaken",
              "type": "int8"
            },
            {
              "internalType": "uint8",
              "name": "armorDmgTaken",
              "type": "uint8"
            },
            {
              "internalType": "uint8",
              "name": "actionsTaken",
              "type": "uint8"
            },
            {
              "internalType": "uint8",
              "name": "dataTokens",
              "type": "uint8"
            },
            {
              "internalType": "uint8[]",
              "name": "currentEffects",
              "type": "uint8[]"
            },
            {
              "internalType": "uint8[]",
              "name": "inventoryIDs",
              "type": "uint8[]"
            },
            {
              "internalType": "bool",
              "name": "canHarmOthers",
              "type": "bool"
            },
            {
              "internalType": "bool",
              "name": "dead",
              "type": "bool"
            },
            {
              "internalType": "bool",
              "name": "hasEgg",
              "type": "bool"
            }
          ],
          "indexed": false,
          "internalType": "struct BCTypes.Player",
          "name": "player",
          "type": "tuple"
        },
        {
          "indexed": false,
          "internalType": "enum BCTypes.Action",
          "name": "action",
          "type": "uint8"
        }
      ],
      "name": "ActionCompleteEvent",
      "type": "event"
    },
    {
      "anonymous": false,
      "inputs": [
        {
          "indexed": true,
          "internalType": "address",
          "name": "previousOwner",
          "type": "address"
        },
        {
          "indexed": true,
          "internalType": "address",
          "name": "newOwner",
          "type": "address"
        }
      ],
      "name": "OwnershipTransferred",
      "type": "event"
    },
    {
      "inputs": [],
      "name": "bcEvents",
      "outputs": [
        {
          "internalType": "contract EventsInterface",
          "name": "",
          "type": "address"
        }
      ],
      "stateMutability": "view",
      "type": "function"
    },
    {
      "inputs": [],
      "name": "chars",
      "outputs": [
        {
          "internalType": "contract CharInterface",
          "name": "",
          "type": "address"
        }
      ],
      "stateMutability": "view",
      "type": "function"
    },
    {
      "inputs": [],
      "name": "charsAddress",
      "outputs": [
        {
          "internalType": "address",
          "name": "",
          "type": "address"
        }
      ],
      "stateMutability": "view",
      "type": "function"
    },
    {
      "inputs": [
        {
          "internalType": "uint256",
          "name": "_gameId",
          "type": "uint256"
        },
        {
          "internalType": "uint256",
          "name": "_playerId",
          "type": "uint256"
        }
      ],
      "name": "debugMovePlayerForTesting",
      "outputs": [],
      "stateMutability": "nonpayable",
      "type": "function"
    },
    {
      "inputs": [
        {
          "internalType": "uint256",
          "name": "_gameId",
          "type": "uint256"
        },
        {
          "internalType": "uint256",
          "name": "_playerId",
          "type": "uint256"
        },
        {
          "internalType": "enum BCTypes.Action",
          "name": "_action",
          "type": "uint8"
        },
        {
          "internalType": "enum BCTypes.Followthrough",
          "name": "_followthrough",
          "type": "uint8"
        },
        {
          "internalType": "uint256",
          "name": "_1stDirection",
          "type": "uint256"
        },
        {
          "internalType": "uint256",
          "name": "_2ndDirection",
          "type": "uint256"
        }
      ],
      "name": "doAction",
      "outputs": [],
      "stateMutability": "payable",
      "type": "function"
    },
    {
      "inputs": [],
      "name": "games",
      "outputs": [
        {
          "internalType": "contract GamesInterface",
          "name": "",
          "type": "address"
        }
      ],
      "stateMutability": "view",
      "type": "function"
    },
    {
      "inputs": [],
      "name": "items",
      "outputs": [
        {
          "internalType": "contract ItemsInterface",
          "name": "",
          "type": "address"
        }
      ],
      "stateMutability": "view",
      "type": "function"
    },
    {
      "inputs": [],
      "name": "maps",
      "outputs": [
        {
          "internalType": "contract MapInterface",
          "name": "",
          "type": "address"
        }
      ],
      "stateMutability": "view",
      "type": "function"
    },
    {
      "inputs": [],
      "name": "owner",
      "outputs": [
        {
          "internalType": "address",
          "name": "",
          "type": "address"
        }
      ],
      "stateMutability": "view",
      "type": "function"
    },
    {
      "inputs": [],
      "name": "renounceOwnership",
      "outputs": [],
      "stateMutability": "nonpayable",
      "type": "function"
    },
    {
      "inputs": [
        {
          "internalType": "address",
          "name": "_charAddress",
          "type": "address"
        },
        {
          "internalType": "address",
          "name": "_utilsAddress",
          "type": "address"
        },
        {
          "internalType": "address",
          "name": "_mapsAddress",
          "type": "address"
        },
        {
          "internalType": "address",
          "name": "_gamesAddress",
          "type": "address"
        },
        {
          "internalType": "address",
          "name": "_itemsAddress",
          "type": "address"
        },
        {
          "internalType": "address",
          "name": "_eventsAddress",
          "type": "address"
        }
      ],
      "name": "setContractAddresses",
      "outputs": [],
      "stateMutability": "nonpayable",
      "type": "function"
    },
    {
      "inputs": [
        {
          "internalType": "address",
          "name": "newOwner",
          "type": "address"
        }
      ],
      "name": "transferOwnership",
      "outputs": [],
      "stateMutability": "nonpayable",
      "type": "function"
    },
    {
      "inputs": [],
      "name": "utils",
      "outputs": [
        {
          "internalType": "contract UtilsInterface",
          "name": "",
          "type": "address"
        }
      ],
      "stateMutability": "view",
      "type": "function"
    }
  ],
  "transactionHash": "0x11ca6075f113a1db7815be140c9587d67970cfc3868afc7b99cec0712e053661",
  "args": [],
  "numDeployments": 1,
  "solcInputHash": "84f5e31a80c24b2a5900280e169d2aed",
  "bytecode": "0x60806040523480156200001157600080fd5b5062000032620000266200003860201b60201c565b6200004060201b60201c565b62000104565b600033905090565b60008060009054906101000a900473ffffffffffffffffffffffffffffffffffffffff169050816000806101000a81548173ffffffffffffffffffffffffffffffffffffffff021916908373ffffffffffffffffffffffffffffffffffffffff1602179055508173ffffffffffffffffffffffffffffffffffffffff168173ffffffffffffffffffffffffffffffffffffffff167f8be0079c531659141344cd1fd0a4f28419497f9722a3daafe3b4186f6b6457e060405160405180910390a35050565b6148d280620001146000396000f3fe6080604052600436106100c25760003560e01c80637ddae1031161007f5780639fca1ee1116100595780639fca1ee114610232578063c06fad061461025d578063f069869914610288578063f2fde38b146102a4576100c2565b80637ddae103146101b15780638da5cb5b146101dc578063955a015b14610207576100c2565b806310a2cd0d146100c75780633deaec2b146100f25780634102b1a71461011d5780634c8463a7146101465780635a29638d1461016f578063715018a61461019a575b600080fd5b3480156100d357600080fd5b506100dc6102cd565b6040516100e991906124d7565b60405180910390f35b3480156100fe57600080fd5b506101076102f3565b6040516101149190612513565b60405180910390f35b34801561012957600080fd5b50610144600480360381019061013f9190612578565b610319565b005b34801561015257600080fd5b5061016d600480360381019061016891906125f6565b6103d2565b005b34801561017b57600080fd5b50610184610568565b60405161019191906126a4565b60405180910390f35b3480156101a657600080fd5b506101af61058e565b005b3480156101bd57600080fd5b506101c66105a2565b6040516101d391906126e0565b60405180910390f35b3480156101e857600080fd5b506101f16105c8565b6040516101fe919061270a565b60405180910390f35b34801561021357600080fd5b5061021c6105f1565b6040516102299190612746565b60405180910390f35b34801561023e57600080fd5b50610247610617565b604051610254919061270a565b60405180910390f35b34801561026957600080fd5b5061027261063d565b60405161027f9190612782565b60405180910390f35b6102a2600480360381019061029d91906127e7565b610663565b005b3480156102b057600080fd5b506102cb60048036038101906102c69190612874565b61228a565b005b600160009054906101000a900473ffffffffffffffffffffffffffffffffffffffff1681565b600360009054906101000a900473ffffffffffffffffffffffffffffffffffffffff1681565b61032161230e565b600460009054906101000a900473ffffffffffffffffffffffffffffffffffffffff1673ffffffffffffffffffffffffffffffffffffffff166317514225836040518060400160405280600060ff168152602001600060ff16815250846040518463ffffffff1660e01b815260040161039c939291906128fb565b600060405180830381600087803b1580156103b657600080fd5b505af11580156103ca573d6000803e3d6000fd5b505050505050565b6103da61230e565b85600160006101000a81548173ffffffffffffffffffffffffffffffffffffffff021916908373ffffffffffffffffffffffffffffffffffffffff16021790555084600260006101000a81548173ffffffffffffffffffffffffffffffffffffffff021916908373ffffffffffffffffffffffffffffffffffffffff16021790555083600360006101000a81548173ffffffffffffffffffffffffffffffffffffffff021916908373ffffffffffffffffffffffffffffffffffffffff16021790555082600460006101000a81548173ffffffffffffffffffffffffffffffffffffffff021916908373ffffffffffffffffffffffffffffffffffffffff16021790555081600560006101000a81548173ffffffffffffffffffffffffffffffffffffffff021916908373ffffffffffffffffffffffffffffffffffffffff16021790555080600660006101000a81548173ffffffffffffffffffffffffffffffffffffffff021916908373ffffffffffffffffffffffffffffffffffffffff160217905550505050505050565b600260009054906101000a900473ffffffffffffffffffffffffffffffffffffffff1681565b61059661230e565b6105a0600061238c565b565b600660009054906101000a900473ffffffffffffffffffffffffffffffffffffffff1681565b60008060009054906101000a900473ffffffffffffffffffffffffffffffffffffffff16905090565b600460009054906101000a900473ffffffffffffffffffffffffffffffffffffffff1681565b600760009054906101000a900473ffffffffffffffffffffffffffffffffffffffff1681565b600560009054906101000a900473ffffffffffffffffffffffffffffffffffffffff1681565b6000600460009054906101000a900473ffffffffffffffffffffffffffffffffffffffff1673ffffffffffffffffffffffffffffffffffffffff166310f67fb3876040518263ffffffff1660e01b81526004016106c09190612932565b600060405180830381865afa1580156106dd573d6000803e3d6000fd5b505050506040513d6000823e3d601f19601f820116820180604052508101906107069190612d38565b90506000600460009054906101000a900473ffffffffffffffffffffffffffffffffffffffff1673ffffffffffffffffffffffffffffffffffffffff16636fe99c18896040518263ffffffff1660e01b81526004016107659190612932565b600060405180830381865afa158015610782573d6000803e3d6000fd5b505050506040513d6000823e3d601f19601f820116820180604052508101906107ab9190612ffc565b90506000600160009054906101000a900473ffffffffffffffffffffffffffffffffffffffff1673ffffffffffffffffffffffffffffffffffffffff16634810bc5984604001516040518263ffffffff1660e01b815260040161080e9190612932565b6101e060405180830381865afa15801561082c573d6000803e3d6000fd5b505050506040513d601f19601f820116820180604052508101906108509190613213565b905060008261012001511461089a576040517f08c379a00000000000000000000000000000000000000000000000000000000081526004016108919061329e565b60405180910390fd5b81600001516108de576040517f08c379a00000000000000000000000000000000000000000000000000000000081526004016108d59061330a565b60405180910390fd5b826000015173ffffffffffffffffffffffffffffffffffffffff163373ffffffffffffffffffffffffffffffffffffffff1614610950576040517f08c379a000000000000000000000000000000000000000000000000000000000815260040161094790613376565b60405180910390fd5b60038360c0015160ff161061099a576040517f08c379a0000000000000000000000000000000000000000000000000000000008152600401610991906133e2565b60405180910390fd5b81602001518260400151815181106109b5576109b4613402565b5b602002602001015188146109fe576040517f08c379a00000000000000000000000000000000000000000000000000000000081526004016109f59061347d565b60405180910390fd5b60036006811115610a1257610a1161349d565b5b876006811115610a2557610a2461349d565b5b1415610a30576121b1565b60026006811115610a4457610a4361349d565b5b876006811115610a5757610a5661349d565b5b141561121f576000600360009054906101000a900473ffffffffffffffffffffffffffffffffffffffff1673ffffffffffffffffffffffffffffffffffffffff16636ea1dcd88460e001518660600151600001518760600151602001518a6040518563ffffffff1660e01b8152600401610ad494939291906134fd565b606060405180830381865afa158015610af1573d6000803e3d6000fd5b505050506040513d601f19601f82011682018060405250810190610b1591906135cb565b905060026004811115610b2b57610b2a61349d565b5b81604001516004811115610b4257610b4161349d565b5b1480610b76575060036004811115610b5d57610b5c61349d565b5b81604001516004811115610b7457610b7361349d565b5b145b80610b8857506000816020015160ff16145b610bc7576040517f08c379a0000000000000000000000000000000000000000000000000000000008152600401610bbe9061366a565b60405180910390fd5b60016004811115610bdb57610bda61349d565b5b81604001516004811115610bf257610bf161349d565b5b1415610ca357600360009054906101000a900473ffffffffffffffffffffffffffffffffffffffff1673ffffffffffffffffffffffffffffffffffffffff1663b6cdd3b48460e001518660600151600001518760600151602001518a60026040518663ffffffff1660e01b8152600401610c709594939291906136d2565b600060405180830381600087803b158015610c8a57600080fd5b505af1158015610c9e573d6000803e3d6000fd5b505050505b6000600260009054906101000a900473ffffffffffffffffffffffffffffffffffffffff1673ffffffffffffffffffffffffffffffffffffffff1663951fc3fe8887606001516040518363ffffffff1660e01b8152600401610d06929190613725565b6040805180830381865afa158015610d22573d6000803e3d6000fd5b505050506040513d601f19601f82011682018060405250810190610d46919061374e565b9050600180811115610d5b57610d5a61349d565b5b886001811115610d6e57610d6d61349d565b5b1415611187576000600260009054906101000a900473ffffffffffffffffffffffffffffffffffffffff1673ffffffffffffffffffffffffffffffffffffffff1663951fc3fe88846040518363ffffffff1660e01b8152600401610dd3929190613725565b6040805180830381865afa158015610def573d6000803e3d6000fd5b505050506040513d601f19601f82011682018060405250810190610e13919061374e565b90506000600360009054906101000a900473ffffffffffffffffffffffffffffffffffffffff1673ffffffffffffffffffffffffffffffffffffffff16636ea1dcd88760e00151856000015186602001518c6040518563ffffffff1660e01b8152600401610e8494939291906134fd565b606060405180830381865afa158015610ea1573d6000803e3d6000fd5b505050506040513d601f19601f82011682018060405250810190610ec591906135cb565b905060026004811115610edb57610eda61349d565b5b81604001516004811115610ef257610ef161349d565b5b1480610f26575060036004811115610f0d57610f0c61349d565b5b81604001516004811115610f2457610f2361349d565b5b145b80610f3857506000816020015160ff16145b610f77576040517f08c379a0000000000000000000000000000000000000000000000000000000008152600401610f6e906137ed565b60405180910390fd5b6000600360009054906101000a900473ffffffffffffffffffffffffffffffffffffffff1673ffffffffffffffffffffffffffffffffffffffff16631ef044168860e001516040518263ffffffff1660e01b8152600401610fd89190612932565b600060405180830381865afa158015610ff5573d6000803e3d6000fd5b505050506040513d6000823e3d601f19601f8201168201806040525081019061101e9190613b1b565b9050600281856000015160ff168151811061103c5761103b613402565b5b6020026020010151856020015160ff168151811061105d5761105c613402565b5b60200260200101516000015160ff16116110ac576040517f08c379a00000000000000000000000000000000000000000000000000000000081526004016110a390613bb0565b60405180910390fd5b600160048111156110c0576110bf61349d565b5b826040015160048111156110d7576110d661349d565b5b141561118057600360009054906101000a900473ffffffffffffffffffffffffffffffffffffffff1673ffffffffffffffffffffffffffffffffffffffff1663b6cdd3b48860e00151866000015187602001518d60026040518663ffffffff1660e01b815260040161114d9594939291906136d2565b600060405180830381600087803b15801561116757600080fd5b505af115801561117b573d6000803e3d6000fd5b505050505b8293505050505b600460009054906101000a900473ffffffffffffffffffffffffffffffffffffffff1673ffffffffffffffffffffffffffffffffffffffff1663175142258c838d6040518463ffffffff1660e01b81526004016111e6939291906128fb565b600060405180830381600087803b15801561120057600080fd5b505af1158015611214573d6000803e3d6000fd5b5050505050506121b0565b600060068111156112335761123261349d565b5b8760068111156112465761124561349d565b5b1415611631576000600360009054906101000a900473ffffffffffffffffffffffffffffffffffffffff1673ffffffffffffffffffffffffffffffffffffffff16636ea1dcd88460e001518660600151600001518760600151602001518a6040518563ffffffff1660e01b81526004016112c394939291906134fd565b606060405180830381865afa1580156112e0573d6000803e3d6000fd5b505050506040513d601f19601f8201168201806040525081019061130491906135cb565b90506001600481111561131a5761131961349d565b5b816040015160048111156113315761133061349d565b5b14611371576040517f08c379a000000000000000000000000000000000000000000000000000000000815260040161136890613c1c565b60405180910390fd5b600260009054906101000a900473ffffffffffffffffffffffffffffffffffffffff1673ffffffffffffffffffffffffffffffffffffffff1663dff2fb3183606001516060015183602001516040518363ffffffff1660e01b81526004016113da929190613c3c565b6020604051808303816000875af11580156113f9573d6000803e3d6000fd5b505050506040513d601f19601f8201168201806040525081019061141d9190613c65565b1561162b57600360009054906101000a900473ffffffffffffffffffffffffffffffffffffffff1673ffffffffffffffffffffffffffffffffffffffff1663b6cdd3b48460e001518660600151600001518760600151602001518a60026040518663ffffffff1660e01b815260040161149a9594939291906136d2565b600060405180830381600087803b1580156114b457600080fd5b505af11580156114c8573d6000803e3d6000fd5b505050506001808111156114df576114de61349d565b5b8760018111156114f2576114f161349d565b5b141561162a57600460009054906101000a900473ffffffffffffffffffffffffffffffffffffffff1673ffffffffffffffffffffffffffffffffffffffff1663175142258b600260009054906101000a900473ffffffffffffffffffffffffffffffffffffffff1673ffffffffffffffffffffffffffffffffffffffff1663951fc3fe8a89606001516040518363ffffffff1660e01b8152600401611598929190613725565b6040805180830381865afa1580156115b4573d6000803e3d6000fd5b505050506040513d601f19601f820116820180604052508101906115d8919061374e565b8c6040518463ffffffff1660e01b81526004016115f7939291906128fb565b600060405180830381600087803b15801561161157600080fd5b505af1158015611625573d6000803e3d6000fd5b505050505b5b506121af565b600160068111156116455761164461349d565b5b8760068111156116585761165761349d565b5b1415611a43576000600360009054906101000a900473ffffffffffffffffffffffffffffffffffffffff1673ffffffffffffffffffffffffffffffffffffffff16636ea1dcd88460e001518660600151600001518760600151602001518a6040518563ffffffff1660e01b81526004016116d594939291906134fd565b606060405180830381865afa1580156116f2573d6000803e3d6000fd5b505050506040513d601f19601f8201168201806040525081019061171691906135cb565b90506001600481111561172c5761172b61349d565b5b816040015160048111156117435761174261349d565b5b14611783576040517f08c379a000000000000000000000000000000000000000000000000000000000815260040161177a90613c1c565b60405180910390fd5b600260009054906101000a900473ffffffffffffffffffffffffffffffffffffffff1673ffffffffffffffffffffffffffffffffffffffff1663dff2fb3183606001516080015183600001516040518363ffffffff1660e01b81526004016117ec929190613c3c565b6020604051808303816000875af115801561180b573d6000803e3d6000fd5b505050506040513d601f19601f8201168201806040525081019061182f9190613c65565b15611a3d57600360009054906101000a900473ffffffffffffffffffffffffffffffffffffffff1673ffffffffffffffffffffffffffffffffffffffff1663b6cdd3b48460e001518660600151600001518760600151602001518a60036040518663ffffffff1660e01b81526004016118ac9594939291906136d2565b600060405180830381600087803b1580156118c657600080fd5b505af11580156118da573d6000803e3d6000fd5b505050506001808111156118f1576118f061349d565b5b8760018111156119045761190361349d565b5b1415611a3c57600460009054906101000a900473ffffffffffffffffffffffffffffffffffffffff1673ffffffffffffffffffffffffffffffffffffffff1663175142258b600260009054906101000a900473ffffffffffffffffffffffffffffffffffffffff1673ffffffffffffffffffffffffffffffffffffffff1663951fc3fe8a89606001516040518363ffffffff1660e01b81526004016119aa929190613725565b6040805180830381865afa1580156119c6573d6000803e3d6000fd5b505050506040513d601f19601f820116820180604052508101906119ea919061374e565b8c6040518463ffffffff1660e01b8152600401611a09939291906128fb565b600060405180830381600087803b158015611a2357600080fd5b505af1158015611a37573d6000803e3d6000fd5b505050505b5b506121ae565b60046006811115611a5757611a5661349d565b5b876006811115611a6a57611a6961349d565b5b1415611efd576000600360009054906101000a900473ffffffffffffffffffffffffffffffffffffffff1673ffffffffffffffffffffffffffffffffffffffff1663f9dfbfcb8460e001518660600151600001518760600151602001516040518463ffffffff1660e01b8152600401611ae593929190613c92565b61014060405180830381865afa158015611b03573d6000803e3d6000fd5b505050506040513d601f19601f82011682018060405250810190611b279190613cc9565b9050600015158160800151151514611b74576040517f08c379a0000000000000000000000000000000000000000000000000000000008152600401611b6b90613d43565b60405180910390fd5b6000600360009054906101000a900473ffffffffffffffffffffffffffffffffffffffff1673ffffffffffffffffffffffffffffffffffffffff166302861c6c8560e001518760600151600001518860600151602001516040518463ffffffff1660e01b8152600401611be993929190613c92565b60a060405180830381865afa158015611c06573d6000803e3d6000fd5b505050506040513d601f19601f82011682018060405250810190611c2a9190613e14565b90506000816060015160ff161180611c4957506000816040015160ff16115b611c88576040517f08c379a0000000000000000000000000000000000000000000000000000000008152600401611c7f90613e8d565b60405180910390fd5b64174876e800816040015160ff16611ca09190613edc565b3414611ce1576040517f08c379a0000000000000000000000000000000000000000000000000000000008152600401611cd890613f82565b60405180910390fd5b600360009054906101000a900473ffffffffffffffffffffffffffffffffffffffff1673ffffffffffffffffffffffffffffffffffffffff166386e529d08560e001518760600151600001518860600151602001516040518463ffffffff1660e01b8152600401611d5493929190613c92565b600060405180830381600087803b158015611d6e57600080fd5b505af1158015611d82573d6000803e3d6000fd5b50505050600460009054906101000a900473ffffffffffffffffffffffffffffffffffffffff1673ffffffffffffffffffffffffffffffffffffffff1663b69071948b83606001516040518363ffffffff1660e01b8152600401611de7929190613fb1565b600060405180830381600087803b158015611e0157600080fd5b505af1158015611e15573d6000803e3d6000fd5b5050505060005b816040015160ff16811015611ef557600560009054906101000a900473ffffffffffffffffffffffffffffffffffffffff1673ffffffffffffffffffffffffffffffffffffffff1663aa3eb1b564174876e8008d600460009054906101000a900473ffffffffffffffffffffffffffffffffffffffff166040518463ffffffff1660e01b8152600401611eb0929190613fda565b6000604051808303818588803b158015611ec957600080fd5b505af1158015611edd573d6000803e3d6000fd5b50505050508080611eed90614003565b915050611e1c565b5050506121ad565b60056006811115611f1157611f1061349d565b5b876006811115611f2457611f2361349d565b5b1415612171576000600360009054906101000a900473ffffffffffffffffffffffffffffffffffffffff1673ffffffffffffffffffffffffffffffffffffffff166302861c6c8460e001518660600151600001518760600151602001516040518463ffffffff1660e01b8152600401611f9f93929190613c92565b60a060405180830381865afa158015611fbc573d6000803e3d6000fd5b505050506040513d601f19601f82011682018060405250810190611fe09190613e14565b90506000600660009054906101000a900473ffffffffffffffffffffffffffffffffffffffff1673ffffffffffffffffffffffffffffffffffffffff1663c82c37b983602001516040518263ffffffff1660e01b81526004016120439190612932565b6109e060405180830381865afa158015612061573d6000803e3d6000fd5b505050506040513d601f19601f82011682018060405250810190612085919061432e565b90506001151581602001511515146120d2576040517f08c379a00000000000000000000000000000000000000000000000000000000081526004016120c9906143a8565b60405180910390fd5b600460009054906101000a900473ffffffffffffffffffffffffffffffffffffffff1673ffffffffffffffffffffffffffffffffffffffff16633ddc32fd8b8d856020015160006040518563ffffffff1660e01b81526004016121389493929190614403565b600060405180830381600087803b15801561215257600080fd5b505af1158015612166573d6000803e3d6000fd5b5050505050506121ac565b6040517f08c379a00000000000000000000000000000000000000000000000000000000081526004016121a390614494565b60405180910390fd5b5b5b5b5b5b600460009054906101000a900473ffffffffffffffffffffffffffffffffffffffff1673ffffffffffffffffffffffffffffffffffffffff166360fe842e8a8a6040518363ffffffff1660e01b815260040161220e9291906144b4565b600060405180830381600087803b15801561222857600080fd5b505af115801561223c573d6000803e3d6000fd5b505050507fc7d7025c4c24d34232033a1ad5ed1218fd7cba0b780d63b6b9825dcd1fadd96a8260400151848960405161227793929190614760565b60405180910390a1505050505050505050565b61229261230e565b600073ffffffffffffffffffffffffffffffffffffffff168173ffffffffffffffffffffffffffffffffffffffff161415612302576040517f08c379a00000000000000000000000000000000000000000000000000000000081526004016122f990614810565b60405180910390fd5b61230b8161238c565b50565b612316612450565b73ffffffffffffffffffffffffffffffffffffffff166123346105c8565b73ffffffffffffffffffffffffffffffffffffffff161461238a576040517f08c379a00000000000000000000000000000000000000000000000000000000081526004016123819061487c565b60405180910390fd5b565b60008060009054906101000a900473ffffffffffffffffffffffffffffffffffffffff169050816000806101000a81548173ffffffffffffffffffffffffffffffffffffffff021916908373ffffffffffffffffffffffffffffffffffffffff1602179055508173ffffffffffffffffffffffffffffffffffffffff168173ffffffffffffffffffffffffffffffffffffffff167f8be0079c531659141344cd1fd0a4f28419497f9722a3daafe3b4186f6b6457e060405160405180910390a35050565b600033905090565b600073ffffffffffffffffffffffffffffffffffffffff82169050919050565b6000819050919050565b600061249d61249861249384612458565b612478565b612458565b9050919050565b60006124af82612482565b9050919050565b60006124c1826124a4565b9050919050565b6124d1816124b6565b82525050565b60006020820190506124ec60008301846124c8565b92915050565b60006124fd826124a4565b9050919050565b61250d816124f2565b82525050565b60006020820190506125286000830184612504565b92915050565b6000604051905090565b600080fd5b600080fd5b6000819050919050565b61255581612542565b811461256057600080fd5b50565b6000813590506125728161254c565b92915050565b6000806040838503121561258f5761258e612538565b5b600061259d85828601612563565b92505060206125ae85828601612563565b9150509250929050565b60006125c382612458565b9050919050565b6125d3816125b8565b81146125de57600080fd5b50565b6000813590506125f0816125ca565b92915050565b60008060008060008060c0878903121561261357612612612538565b5b600061262189828a016125e1565b965050602061263289828a016125e1565b955050604061264389828a016125e1565b945050606061265489828a016125e1565b935050608061266589828a016125e1565b92505060a061267689828a016125e1565b9150509295509295509295565b600061268e826124a4565b9050919050565b61269e81612683565b82525050565b60006020820190506126b96000830184612695565b92915050565b60006126ca826124a4565b9050919050565b6126da816126bf565b82525050565b60006020820190506126f560008301846126d1565b92915050565b612704816125b8565b82525050565b600060208201905061271f60008301846126fb565b92915050565b6000612730826124a4565b9050919050565b61274081612725565b82525050565b600060208201905061275b6000830184612737565b92915050565b600061276c826124a4565b9050919050565b61277c81612761565b82525050565b60006020820190506127976000830184612773565b92915050565b600781106127aa57600080fd5b50565b6000813590506127bc8161279d565b92915050565b600281106127cf57600080fd5b50565b6000813590506127e1816127c2565b92915050565b60008060008060008060c0878903121561280457612803612538565b5b600061281289828a01612563565b965050602061282389828a01612563565b955050604061283489828a016127ad565b945050606061284589828a016127d2565b935050608061285689828a01612563565b92505060a061286789828a01612563565b9150509295509295509295565b60006020828403121561288a57612889612538565b5b6000612898848285016125e1565b91505092915050565b6128aa81612542565b82525050565b600060ff82169050919050565b6128c6816128b0565b82525050565b6040820160008201516128e260008501826128bd565b5060208201516128f560208501826128bd565b50505050565b600060808201905061291060008301866128a1565b61291d60208301856128cc565b61292a60608301846128a1565b949350505050565b600060208201905061294760008301846128a1565b92915050565b600080fd5b6000601f19601f8301169050919050565b7f4e487b7100000000000000000000000000000000000000000000000000000000600052604160045260246000fd5b61299b82612952565b810181811067ffffffffffffffff821117156129ba576129b9612963565b5b80604052505050565b60006129cd61252e565b90506129d98282612992565b919050565b600080fd5b6000815190506129f2816125ca565b92915050565b600081519050612a078161254c565b92915050565b612a16816128b0565b8114612a2157600080fd5b50565b600081519050612a3381612a0d565b92915050565b600060408284031215612a4f57612a4e61294d565b5b612a5960406129c3565b90506000612a6984828501612a24565b6000830152506020612a7d84828501612a24565b60208301525092915050565b60008160000b9050919050565b612a9f81612a89565b8114612aaa57600080fd5b50565b600081519050612abc81612a96565b92915050565b600080fd5b600067ffffffffffffffff821115612ae257612ae1612963565b5b602082029050602081019050919050565b600080fd5b6000612b0b612b0684612ac7565b6129c3565b90508083825260208201905060208402830185811115612b2e57612b2d612af3565b5b835b81811015612b575780612b438882612a24565b845260208401935050602081019050612b30565b5050509392505050565b600082601f830112612b7657612b75612ac2565b5b8151612b86848260208601612af8565b91505092915050565b60008115159050919050565b612ba481612b8f565b8114612baf57600080fd5b50565b600081519050612bc181612b9b565b92915050565b60006101c08284031215612bde57612bdd61294d565b5b612be96101a06129c3565b90506000612bf9848285016129e3565b6000830152506020612c0d848285016129e3565b6020830152506040612c21848285016129f8565b6040830152506060612c3584828501612a39565b60608301525060a0612c4984828501612aad565b60808301525060c0612c5d84828501612a24565b60a08301525060e0612c7184828501612a24565b60c083015250610100612c8684828501612a24565b60e08301525061012082015167ffffffffffffffff811115612cab57612caa6129de565b5b612cb784828501612b61565b6101008301525061014082015167ffffffffffffffff811115612cdd57612cdc6129de565b5b612ce984828501612b61565b61012083015250610160612cff84828501612bb2565b61014083015250610180612d1584828501612bb2565b610160830152506101a0612d2b84828501612bb2565b6101808301525092915050565b600060208284031215612d4e57612d4d612538565b5b600082015167ffffffffffffffff811115612d6c57612d6b61253d565b5b612d7884828501612bc7565b91505092915050565b600067ffffffffffffffff821115612d9c57612d9b612963565b5b602082029050602081019050919050565b6000612dc0612dbb84612d81565b6129c3565b90508083825260208201905060208402830185811115612de357612de2612af3565b5b835b81811015612e0c5780612df888826129f8565b845260208401935050602081019050612de5565b5050509392505050565b600082601f830112612e2b57612e2a612ac2565b5b8151612e3b848260208601612dad565b91505092915050565b600060808284031215612e5a57612e5961294d565b5b612e6460806129c3565b90506000612e7484828501612a24565b6000830152506020612e8884828501612a24565b6020830152506040612e9c84828501612a24565b6040830152506060612eb084828501612a24565b60608301525092915050565b60006102008284031215612ed357612ed261294d565b5b612ede6101806129c3565b90506000612eee84828501612bb2565b600083015250602082015167ffffffffffffffff811115612f1257612f116129de565b5b612f1e84828501612e16565b6020830152506040612f32848285016129f8565b6040830152506060612f46848285016129f8565b6060830152506080612f5a848285016129f8565b60808301525060a0612f6e84828501612e44565b60a083015250610120612f83848285016129e3565b60c083015250610140612f98848285016129f8565b60e083015250610160612fad848285016129f8565b61010083015250610180612fc3848285016129f8565b610120830152506101a0612fd984828501612bb2565b610140830152506101c0612fef84828501612a39565b6101608301525092915050565b60006020828403121561301257613011612538565b5b600082015167ffffffffffffffff8111156130305761302f61253d565b5b61303c84828501612ebc565b91505092915050565b6000819050919050565b61305881613045565b811461306357600080fd5b50565b6000815190506130758161304f565b92915050565b600060e082840312156130915761309061294d565b5b61309b60e06129c3565b905060006130ab84828501612aad565b60008301525060206130bf84828501612aad565b60208301525060406130d384828501612aad565b60408301525060606130e784828501612aad565b60608301525060806130fb84828501612aad565b60808301525060a061310f84828501612aad565b60a08301525060c061312384828501612aad565b60c08301525092915050565b60006101e082840312156131465761314561294d565b5b6131516101206129c3565b9050600061316184828501613066565b6000830152506020613175848285016129f8565b6020830152506040613189848285016129f8565b604083015250606061319d8482850161307b565b6060830152506101406131b284828501612a24565b6080830152506101606131c784828501612a24565b60a0830152506101806131dc84828501612a24565b60c0830152506101a06131f184828501612a24565b60e0830152506101c061320684828501612bb2565b6101008301525092915050565b60006101e0828403121561322a57613229612538565b5b60006132388482850161312f565b91505092915050565b600082825260208201905092915050565b7f4d757374207265736f6c7665206576656e742066697273740000000000000000600082015250565b6000613288601883613241565b915061329382613252565b602082019050919050565b600060208201905081810360008301526132b78161327b565b9050919050565b7f47616d65206e6f74206163746976650000000000000000000000000000000000600082015250565b60006132f4600f83613241565b91506132ff826132be565b602082019050919050565b60006020820190508181036000830152613323816132e7565b9050919050565b7f53656e646572206e6f7420706c61796572206f776e6572000000000000000000600082015250565b6000613360601783613241565b915061336b8261332a565b602082019050919050565b6000602082019050818103600083015261338f81613353565b9050919050565b7f4e6f20616374696f6e73206c6566740000000000000000000000000000000000600082015250565b60006133cc600f83613241565b91506133d782613396565b602082019050919050565b600060208201905081810360008301526133fb816133bf565b9050919050565b7f4e487b7100000000000000000000000000000000000000000000000000000000600052603260045260246000fd5b7f4e6f7420796f7572207475726e00000000000000000000000000000000000000600082015250565b6000613467600d83613241565b915061347282613431565b602082019050919050565b600060208201905081810360008301526134968161345a565b9050919050565b7f4e487b7100000000000000000000000000000000000000000000000000000000600052602160045260246000fd5b60006134e76134e26134dd846128b0565b612478565b612542565b9050919050565b6134f7816134cc565b82525050565b600060808201905061351260008301876128a1565b61351f60208301866134ee565b61352c60408301856134ee565b61353960608301846128a1565b95945050505050565b6005811061354f57600080fd5b50565b60008151905061356181613542565b92915050565b60006060828403121561357d5761357c61294d565b5b61358760606129c3565b9050600061359784828501612a24565b60008301525060206135ab84828501612a24565b60208301525060406135bf84828501613552565b60408301525092915050565b6000606082840312156135e1576135e0612538565b5b60006135ef84828501613567565b91505092915050565b7f31737420446f6f72206e6f74206f70656e2f62726561636865642f756e6c6f6360008201527f6b65640000000000000000000000000000000000000000000000000000000000602082015250565b6000613654602383613241565b915061365f826135f8565b604082019050919050565b6000602082019050818103600083015261368381613647565b9050919050565b6005811061369b5761369a61349d565b5b50565b60008190506136ac8261368a565b919050565b60006136bc8261369e565b9050919050565b6136cc816136b1565b82525050565b600060a0820190506136e760008301886128a1565b6136f460208301876134ee565b61370160408301866134ee565b61370e60608301856128a1565b61371b60808301846136c3565b9695505050505050565b600060608201905061373a60008301856128a1565b61374760208301846128cc565b9392505050565b60006040828403121561376457613763612538565b5b600061377284828501612a39565b91505092915050565b7f326e6420446f6f72206e6f74206f70656e2f62726561636865642f756e6c6f6360008201527f6b65640000000000000000000000000000000000000000000000000000000000602082015250565b60006137d7602383613241565b91506137e28261377b565b604082019050919050565b60006020820190508181036000830152613806816137ca565b9050919050565b600067ffffffffffffffff82111561382857613827612963565b5b602082029050602081019050919050565b600067ffffffffffffffff82111561385457613853612963565b5b602082029050602081019050919050565b600067ffffffffffffffff8211156138805761387f612963565b5b602082029050919050565b600061389e61389984613865565b6129c3565b905080602084028301858111156138b8576138b7612af3565b5b835b818110156138e157806138cd88826129f8565b8452602084019350506020810190506138ba565b5050509392505050565b600082601f830112613900576138ff612ac2565b5b600461390d84828561388b565b91505092915050565b6000610140828403121561392d5761392c61294d565b5b61393760e06129c3565b9050600061394784828501612a24565b600083015250602061395b84828501612a24565b602083015250604061396f848285016138eb565b60408301525060c061398384828501612bb2565b60608301525060e061399784828501612bb2565b6080830152506101006139ac84828501612bb2565b60a0830152506101206139c184828501612bb2565b60c08301525092915050565b60006139e06139db84613839565b6129c3565b9050808382526020820190506101408402830185811115613a0457613a03612af3565b5b835b81811015613a2e5780613a198882613916565b84526020840193505061014081019050613a06565b5050509392505050565b600082601f830112613a4d57613a4c612ac2565b5b8151613a5d8482602086016139cd565b91505092915050565b6000613a79613a748461380d565b6129c3565b90508083825260208201905060208402830185811115613a9c57613a9b612af3565b5b835b81811015613ae357805167ffffffffffffffff811115613ac157613ac0612ac2565b5b808601613ace8982613a38565b85526020850194505050602081019050613a9e565b5050509392505050565b600082601f830112613b0257613b01612ac2565b5b8151613b12848260208601613a66565b91505092915050565b600060208284031215613b3157613b30612538565b5b600082015167ffffffffffffffff811115613b4f57613b4e61253d565b5b613b5b84828501613aed565b91505092915050565b7f526f6f6d206e6f74206578706c6f726564000000000000000000000000000000600082015250565b6000613b9a601183613241565b9150613ba582613b64565b602082019050919050565b60006020820190508181036000830152613bc981613b8d565b9050919050565b7f446f6f72206e6f7420636c6f7365640000000000000000000000000000000000600082015250565b6000613c06600f83613241565b9150613c1182613bd0565b602082019050919050565b60006020820190508181036000830152613c3581613bf9565b9050919050565b6000604082019050613c5160008301856134ee565b613c5e60208301846134ee565b9392505050565b600060208284031215613c7b57613c7a612538565b5b6000613c8984828501612bb2565b91505092915050565b6000606082019050613ca760008301866128a1565b613cb460208301856134ee565b613cc160408301846134ee565b949350505050565b60006101408284031215613ce057613cdf612538565b5b6000613cee84828501613916565b91505092915050565b7f526f6f6d20616c7265616479206c6f6f74656400000000000000000000000000600082015250565b6000613d2d601383613241565b9150613d3882613cf7565b602082019050919050565b60006020820190508181036000830152613d5c81613d20565b9050919050565b60058110613d7057600080fd5b50565b600081519050613d8281613d63565b92915050565b600060a08284031215613d9e57613d9d61294d565b5b613da860a06129c3565b90506000613db884828501613d73565b6000830152506020613dcc848285016129f8565b6020830152506040613de084828501612a24565b6040830152506060613df484828501612a24565b6060830152506080613e0884828501612bb2565b60808301525092915050565b600060a08284031215613e2a57613e29612538565b5b6000613e3884828501613d88565b91505092915050565b7f43616e2774206c6f6f7420656d70747920726f6f6d0000000000000000000000600082015250565b6000613e77601583613241565b9150613e8282613e41565b602082019050919050565b60006020820190508181036000830152613ea681613e6a565b9050919050565b7f4e487b7100000000000000000000000000000000000000000000000000000000600052601160045260246000fd5b6000613ee782612542565b9150613ef283612542565b9250817fffffffffffffffffffffffffffffffffffffffffffffffffffffffffffffffff0483118215151615613f2b57613f2a613ead565b5b828202905092915050565b7f57726f6e67207061796d656e7420696e20616374696f6e730000000000000000600082015250565b6000613f6c601883613241565b9150613f7782613f36565b602082019050919050565b60006020820190508181036000830152613f9b81613f5f565b9050919050565b613fab816128b0565b82525050565b6000604082019050613fc660008301856128a1565b613fd36020830184613fa2565b9392505050565b6000604082019050613fef60008301856128a1565b613ffc60208301846126fb565b9392505050565b600061400e82612542565b91507fffffffffffffffffffffffffffffffffffffffffffffffffffffffffffffffff82141561404157614040613ead565b5b600182019050919050565b6005811061405957600080fd5b50565b60008151905061406b8161404c565b92915050565b6004811061407e57600080fd5b50565b60008151905061409081614071565b92915050565b600681106140a357600080fd5b50565b6000815190506140b581614096565b92915050565b600061032082840312156140d2576140d161294d565b5b6140dd6102606129c3565b905060006140ed84828501612bb2565b600083015250602061410184828501612bb2565b602083015250604061411584828501612bb2565b604083015250606061412984828501612bb2565b606083015250608061413d84828501612bb2565b60808301525060a061415184828501612a24565b60a08301525060c061416584828501612a24565b60c08301525060e061417984828501612a24565b60e08301525061010061418e84828501612a24565b610100830152506101206141a484828501612a24565b610120830152506101406141ba8482850161405c565b610140830152506101606141d084828501614081565b610160830152506101806141e684828501612a24565b610180830152506101a06141fc84828501612a24565b6101a0830152506101c061421284828501612a24565b6101c0830152506101e0614228848285016140a6565b6101e08301525061020061423e84828501612a24565b6102008301525061022061425484828501612a24565b6102208301525061024061426a8482850161307b565b6102408301525092915050565b60006109e0828403121561428e5761428d61294d565b5b61429860e06129c3565b905060006142a8848285016129f8565b60008301525060206142bc84828501612bb2565b60208301525060406142d084828501612a24565b60408301525060606142e484828501612a24565b60608301525060806142f8848285016140bb565b6080830152506103a061430d848285016140bb565b60a0830152506106c0614322848285016140bb565b60c08301525092915050565b60006109e0828403121561434557614344612538565b5b600061435384828501614277565b91505092915050565b7f4576656e74206e6f74207065726d616e656e7400000000000000000000000000600082015250565b6000614392601383613241565b915061439d8261435c565b602082019050919050565b600060208201905081810360008301526143c181614385565b9050919050565b6000819050919050565b60006143ed6143e86143e3846143c8565b612478565b612542565b9050919050565b6143fd816143d2565b82525050565b600060808201905061441860008301876128a1565b61442560208301866128a1565b61443260408301856128a1565b61443f60608301846143f4565b95945050505050565b7f4552524f523a2042616420616374696f6e20636f6e6669670000000000000000600082015250565b600061447e601883613241565b915061448982614448565b602082019050919050565b600060208201905081810360008301526144ad81614471565b9050919050565b60006040820190506144c960008301856128a1565b6144d660208301846128a1565b9392505050565b6144e6816125b8565b82525050565b6144f581612542565b82525050565b60408201600082015161451160008501826128bd565b50602082015161452460208501826128bd565b50505050565b61453381612a89565b82525050565b600081519050919050565b600082825260208201905092915050565b6000819050602082019050919050565b600061457183836128bd565b60208301905092915050565b6000602082019050919050565b600061459582614539565b61459f8185614544565b93506145aa83614555565b8060005b838110156145db5781516145c28882614565565b97506145cd8361457d565b9250506001810190506145ae565b5085935050505092915050565b6145f181612b8f565b82525050565b60006101c08301600083015161461060008601826144dd565b50602083015161462360208601826144dd565b50604083015161463660408601826144ec565b50606083015161464960608601826144fb565b50608083015161465c60a086018261452a565b5060a083015161466f60c08601826128bd565b5060c083015161468260e08601826128bd565b5060e08301516146966101008601826128bd565b506101008301518482036101208601526146b0828261458a565b9150506101208301518482036101408601526146cc828261458a565b9150506101408301516146e36101608601826145e8565b506101608301516146f86101808601826145e8565b5061018083015161470d6101a08601826145e8565b508091505092915050565b600781106147295761472861349d565b5b50565b600081905061473a82614718565b919050565b600061474a8261472c565b9050919050565b61475a8161473f565b82525050565b600060608201905061477560008301866128a1565b818103602083015261478781856145f7565b90506147966040830184614751565b949350505050565b7f4f776e61626c653a206e6577206f776e657220697320746865207a65726f206160008201527f6464726573730000000000000000000000000000000000000000000000000000602082015250565b60006147fa602683613241565b91506148058261479e565b604082019050919050565b60006020820190508181036000830152614829816147ed565b9050919050565b7f4f776e61626c653a2063616c6c6572206973206e6f7420746865206f776e6572600082015250565b6000614866602083613241565b915061487182614830565b602082019050919050565b6000602082019050818103600083015261489581614859565b905091905056fea2646970667358221220bbcf7577c56e7da03bf2f053765066a5f111077c268be6acd53230e86446353364736f6c634300080c0033",
  "devdoc": {
    "kind": "dev",
    "methods": {
      "owner()": {
        "details": "Returns the address of the current owner."
      },
      "renounceOwnership()": {
        "details": "Leaves the contract without owner. It will not be possible to call `onlyOwner` functions anymore. Can only be called by the current owner. NOTE: Renouncing ownership will leave the contract without an owner, thereby removing any functionality that is only available to the owner."
      },
      "transferOwnership(address)": {
        "details": "Transfers ownership of the contract to a new account (`newOwner`). Can only be called by the current owner."
      }
    },
    "version": 1
  },
  "userdoc": {
    "kind": "user",
    "methods": {},
    "version": 1
  },
  "storageLayout": {
    "storage": [
      {
        "astId": 7,
        "contract": "contracts/Actions.sol:Actions",
        "label": "_owner",
        "offset": 0,
        "slot": "0",
        "type": "t_address"
      },
      {
        "astId": 2039,
        "contract": "contracts/Actions.sol:Actions",
        "label": "chars",
        "offset": 0,
        "slot": "1",
        "type": "t_contract(CharInterface)1815"
      },
      {
        "astId": 2042,
        "contract": "contracts/Actions.sol:Actions",
        "label": "utils",
        "offset": 0,
        "slot": "2",
        "type": "t_contract(UtilsInterface)1841"
      },
      {
        "astId": 2045,
        "contract": "contracts/Actions.sol:Actions",
        "label": "maps",
        "offset": 0,
        "slot": "3",
        "type": "t_contract(MapInterface)1934"
      },
      {
        "astId": 2048,
        "contract": "contracts/Actions.sol:Actions",
        "label": "games",
        "offset": 0,
        "slot": "4",
        "type": "t_contract(GamesInterface)1986"
      },
      {
        "astId": 2051,
        "contract": "contracts/Actions.sol:Actions",
        "label": "items",
        "offset": 0,
        "slot": "5",
        "type": "t_contract(ItemsInterface)1994"
      },
      {
        "astId": 2054,
        "contract": "contracts/Actions.sol:Actions",
        "label": "bcEvents",
        "offset": 0,
        "slot": "6",
        "type": "t_contract(EventsInterface)2034"
      },
      {
        "astId": 2056,
        "contract": "contracts/Actions.sol:Actions",
        "label": "charsAddress",
        "offset": 0,
        "slot": "7",
        "type": "t_address"
      }
    ],
    "types": {
      "t_address": {
        "encoding": "inplace",
        "label": "address",
        "numberOfBytes": "20"
      },
      "t_contract(CharInterface)1815": {
        "encoding": "inplace",
        "label": "contract CharInterface",
        "numberOfBytes": "20"
      },
      "t_contract(EventsInterface)2034": {
        "encoding": "inplace",
        "label": "contract EventsInterface",
        "numberOfBytes": "20"
      },
      "t_contract(GamesInterface)1986": {
        "encoding": "inplace",
        "label": "contract GamesInterface",
        "numberOfBytes": "20"
      },
      "t_contract(ItemsInterface)1994": {
        "encoding": "inplace",
        "label": "contract ItemsInterface",
        "numberOfBytes": "20"
      },
      "t_contract(MapInterface)1934": {
        "encoding": "inplace",
        "label": "contract MapInterface",
        "numberOfBytes": "20"
      },
      "t_contract(UtilsInterface)1841": {
        "encoding": "inplace",
        "label": "contract UtilsInterface",
        "numberOfBytes": "20"
      }
    }
  }
}