{
  "address": "0xb708835C4c978C84b1f452779dFb8F43c226a183",
  "abi": [
    {
      "anonymous": false,
      "inputs": [
        {
          "components": [
            {
              "internalType": "bool",
              "name": "active",
              "type": "bool"
            },
            {
              "internalType": "uint256[]",
              "name": "playerIndexes",
              "type": "uint256[]"
            },
            {
              "internalType": "uint256",
              "name": "currentPlayerTurnIndex",
              "type": "uint256"
            },
            {
              "internalType": "uint256",
              "name": "numPlayers",
              "type": "uint256"
            },
            {
              "internalType": "uint256",
              "name": "turnsTaken",
              "type": "uint256"
            },
            {
              "components": [
                {
                  "internalType": "uint8",
                  "name": "bugEvents",
                  "type": "uint8"
                },
                {
                  "internalType": "uint8",
                  "name": "mysteryEvents",
                  "type": "uint8"
                },
                {
                  "internalType": "uint8",
                  "name": "scavEvents",
                  "type": "uint8"
                },
                {
                  "internalType": "uint8",
                  "name": "shipEvents",
                  "type": "uint8"
                }
              ],
              "internalType": "struct BCTypes.EventTracker",
              "name": "eventTracker",
              "type": "tuple"
            },
            {
              "internalType": "address",
              "name": "mapContract",
              "type": "address"
            },
            {
              "internalType": "uint256",
              "name": "mapId",
              "type": "uint256"
            },
            {
              "internalType": "uint256",
              "name": "eventPlayerId",
              "type": "uint256"
            },
            {
              "internalType": "uint256",
              "name": "eventNumber",
              "type": "uint256"
            },
            {
              "internalType": "bool",
              "name": "eventIsTile",
              "type": "bool"
            },
            {
              "components": [
                {
                  "internalType": "uint8",
                  "name": "row",
                  "type": "uint8"
                },
                {
                  "internalType": "uint8",
                  "name": "col",
                  "type": "uint8"
                }
              ],
              "internalType": "struct BCTypes.Position",
              "name": "eventPosition",
              "type": "tuple"
            }
          ],
          "indexed": false,
          "internalType": "struct BCTypes.Game",
          "name": "game",
          "type": "tuple"
        },
        {
          "components": [
            {
              "internalType": "address",
              "name": "owner",
              "type": "address"
            },
            {
              "internalType": "address",
              "name": "charContractAddress",
              "type": "address"
            },
            {
              "internalType": "uint256",
              "name": "characterId",
              "type": "uint256"
            },
            {
              "components": [
                {
                  "internalType": "uint8",
                  "name": "row",
                  "type": "uint8"
                },
                {
                  "internalType": "uint8",
                  "name": "col",
                  "type": "uint8"
                }
              ],
              "internalType": "struct BCTypes.Position",
              "name": "position",
              "type": "tuple"
            },
            {
              "internalType": "int8",
              "name": "healthDmgTaken",
              "type": "int8"
            },
            {
              "internalType": "uint8",
              "name": "armorDmgTaken",
              "type": "uint8"
            },
            {
              "internalType": "uint8",
              "name": "actionsTaken",
              "type": "uint8"
            },
            {
              "internalType": "uint8",
              "name": "dataTokens",
              "type": "uint8"
            },
            {
              "internalType": "uint8[]",
              "name": "currentEffects",
              "type": "uint8[]"
            },
            {
              "internalType": "uint8[]",
              "name": "inventoryIDs",
              "type": "uint8[]"
            },
            {
              "internalType": "bool",
              "name": "canHarmOthers",
              "type": "bool"
            },
            {
              "internalType": "bool",
              "name": "dead",
              "type": "bool"
            },
            {
              "internalType": "bool",
              "name": "hasEgg",
              "type": "bool"
            }
          ],
          "indexed": false,
          "internalType": "struct BCTypes.Player",
          "name": "player",
          "type": "tuple"
        },
        {
          "indexed": false,
          "internalType": "enum BCTypes.Action",
          "name": "action",
          "type": "uint8"
        }
      ],
      "name": "ActionCompleteEvent",
      "type": "event"
    },
    {
      "anonymous": false,
      "inputs": [
        {
          "indexed": true,
          "internalType": "address",
          "name": "previousOwner",
          "type": "address"
        },
        {
          "indexed": true,
          "internalType": "address",
          "name": "newOwner",
          "type": "address"
        }
      ],
      "name": "OwnershipTransferred",
      "type": "event"
    },
    {
      "inputs": [],
      "name": "bcEvents",
      "outputs": [
        {
          "internalType": "contract EventsInterface",
          "name": "",
          "type": "address"
        }
      ],
      "stateMutability": "view",
      "type": "function"
    },
    {
      "inputs": [],
      "name": "chars",
      "outputs": [
        {
          "internalType": "contract CharInterface",
          "name": "",
          "type": "address"
        }
      ],
      "stateMutability": "view",
      "type": "function"
    },
    {
      "inputs": [],
      "name": "charsAddress",
      "outputs": [
        {
          "internalType": "address",
          "name": "",
          "type": "address"
        }
      ],
      "stateMutability": "view",
      "type": "function"
    },
    {
      "inputs": [
        {
          "internalType": "uint256",
          "name": "_gameId",
          "type": "uint256"
        },
        {
          "internalType": "uint256",
          "name": "_playerId",
          "type": "uint256"
        }
      ],
      "name": "debugMovePlayerForTesting",
      "outputs": [],
      "stateMutability": "nonpayable",
      "type": "function"
    },
    {
      "inputs": [
        {
          "internalType": "uint256",
          "name": "_gameId",
          "type": "uint256"
        },
        {
          "internalType": "uint256",
          "name": "_playerId",
          "type": "uint256"
        },
        {
          "internalType": "enum BCTypes.Action",
          "name": "_action",
          "type": "uint8"
        },
        {
          "internalType": "enum BCTypes.Followthrough",
          "name": "_followthrough",
          "type": "uint8"
        },
        {
          "internalType": "uint256",
          "name": "_1stDirection",
          "type": "uint256"
        },
        {
          "internalType": "uint256",
          "name": "_2ndDirection",
          "type": "uint256"
        }
      ],
      "name": "doAction",
      "outputs": [],
      "stateMutability": "payable",
      "type": "function"
    },
    {
      "inputs": [],
      "name": "games",
      "outputs": [
        {
          "internalType": "contract GamesInterface",
          "name": "",
          "type": "address"
        }
      ],
      "stateMutability": "view",
      "type": "function"
    },
    {
      "inputs": [],
      "name": "items",
      "outputs": [
        {
          "internalType": "contract ItemsInterface",
          "name": "",
          "type": "address"
        }
      ],
      "stateMutability": "view",
      "type": "function"
    },
    {
      "inputs": [],
      "name": "maps",
      "outputs": [
        {
          "internalType": "contract MapInterface",
          "name": "",
          "type": "address"
        }
      ],
      "stateMutability": "view",
      "type": "function"
    },
    {
      "inputs": [],
      "name": "owner",
      "outputs": [
        {
          "internalType": "address",
          "name": "",
          "type": "address"
        }
      ],
      "stateMutability": "view",
      "type": "function"
    },
    {
      "inputs": [],
      "name": "players",
      "outputs": [
        {
          "internalType": "contract PlayersInterface",
          "name": "",
          "type": "address"
        }
      ],
      "stateMutability": "view",
      "type": "function"
    },
    {
      "inputs": [],
      "name": "renounceOwnership",
      "outputs": [],
      "stateMutability": "nonpayable",
      "type": "function"
    },
    {
      "inputs": [
        {
          "internalType": "address",
          "name": "_charAddress",
          "type": "address"
        },
        {
          "internalType": "address",
          "name": "_utilsAddress",
          "type": "address"
        },
        {
          "internalType": "address",
          "name": "_mapsAddress",
          "type": "address"
        },
        {
          "internalType": "address",
          "name": "_gamesAddress",
          "type": "address"
        },
        {
          "internalType": "address",
          "name": "_itemsAddress",
          "type": "address"
        },
        {
          "internalType": "address",
          "name": "_eventsAddress",
          "type": "address"
        },
        {
          "internalType": "address",
          "name": "_playersAddress",
          "type": "address"
        }
      ],
      "name": "setContractAddresses",
      "outputs": [],
      "stateMutability": "nonpayable",
      "type": "function"
    },
    {
      "inputs": [
        {
          "internalType": "address",
          "name": "newOwner",
          "type": "address"
        }
      ],
      "name": "transferOwnership",
      "outputs": [],
      "stateMutability": "nonpayable",
      "type": "function"
    },
    {
      "inputs": [],
      "name": "utils",
      "outputs": [
        {
          "internalType": "contract UtilsInterface",
          "name": "",
          "type": "address"
        }
      ],
      "stateMutability": "view",
      "type": "function"
    }
  ],
  "transactionHash": "0x13458b8f573544996adbf6103434692b7ac133e892c9ca36f4ea14fcf27c6097",
  "args": [],
  "numDeployments": 1,
  "solcInputHash": "69f104f7ab54265cf2f4f56c57cecebe",
  "bytecode": "0x60806040523480156200001157600080fd5b5062000032620000266200003860201b60201c565b6200004060201b60201c565b62000104565b600033905090565b60008060009054906101000a900473ffffffffffffffffffffffffffffffffffffffff169050816000806101000a81548173ffffffffffffffffffffffffffffffffffffffff021916908373ffffffffffffffffffffffffffffffffffffffff1602179055508173ffffffffffffffffffffffffffffffffffffffff168173ffffffffffffffffffffffffffffffffffffffff167f8be0079c531659141344cd1fd0a4f28419497f9722a3daafe3b4186f6b6457e060405160405180910390a35050565b614c0d80620001146000396000f3fe6080604052600436106100dd5760003560e01c8063955a015b1161007f578063d72be09d11610059578063d72be09d1461027a578063dc0b3564146102a3578063f0698699146102ce578063f2fde38b146102ea576100dd565b8063955a015b146101f95780639fca1ee114610224578063c06fad061461024f576100dd565b80635a29638d116100bb5780635a29638d14610161578063715018a61461018c5780637ddae103146101a35780638da5cb5b146101ce576100dd565b806310a2cd0d146100e25780633deaec2b1461010d5780634102b1a714610138575b600080fd5b3480156100ee57600080fd5b506100f7610313565b6040516101049190612589565b60405180910390f35b34801561011957600080fd5b50610122610339565b60405161012f91906125c5565b60405180910390f35b34801561014457600080fd5b5061015f600480360381019061015a919061262a565b61035f565b005b34801561016d57600080fd5b50610176610418565b604051610183919061268b565b60405180910390f35b34801561019857600080fd5b506101a161043e565b005b3480156101af57600080fd5b506101b8610452565b6040516101c591906126c7565b60405180910390f35b3480156101da57600080fd5b506101e3610478565b6040516101f09190612703565b60405180910390f35b34801561020557600080fd5b5061020e6104a1565b60405161021b919061273f565b60405180910390f35b34801561023057600080fd5b506102396104c7565b6040516102469190612703565b60405180910390f35b34801561025b57600080fd5b506102646104ed565b604051610271919061277b565b60405180910390f35b34801561028657600080fd5b506102a1600480360381019061029c91906127c2565b610513565b005b3480156102af57600080fd5b506102b86106eb565b6040516102c59190612885565b60405180910390f35b6102e860048036038101906102e391906128ea565b610711565b005b3480156102f657600080fd5b50610311600480360381019061030c9190612977565b61233d565b005b600160009054906101000a900473ffffffffffffffffffffffffffffffffffffffff1681565b600360009054906101000a900473ffffffffffffffffffffffffffffffffffffffff1681565b6103676123c0565b600460009054906101000a900473ffffffffffffffffffffffffffffffffffffffff1673ffffffffffffffffffffffffffffffffffffffff166317514225836040518060400160405280600060ff168152602001600060ff16815250846040518463ffffffff1660e01b81526004016103e2939291906129fe565b600060405180830381600087803b1580156103fc57600080fd5b505af1158015610410573d6000803e3d6000fd5b505050505050565b600260009054906101000a900473ffffffffffffffffffffffffffffffffffffffff1681565b6104466123c0565b610450600061243e565b565b600660009054906101000a900473ffffffffffffffffffffffffffffffffffffffff1681565b60008060009054906101000a900473ffffffffffffffffffffffffffffffffffffffff16905090565b600460009054906101000a900473ffffffffffffffffffffffffffffffffffffffff1681565b600860009054906101000a900473ffffffffffffffffffffffffffffffffffffffff1681565b600560009054906101000a900473ffffffffffffffffffffffffffffffffffffffff1681565b61051b6123c0565b86600160006101000a81548173ffffffffffffffffffffffffffffffffffffffff021916908373ffffffffffffffffffffffffffffffffffffffff16021790555085600260006101000a81548173ffffffffffffffffffffffffffffffffffffffff021916908373ffffffffffffffffffffffffffffffffffffffff16021790555084600360006101000a81548173ffffffffffffffffffffffffffffffffffffffff021916908373ffffffffffffffffffffffffffffffffffffffff16021790555083600460006101000a81548173ffffffffffffffffffffffffffffffffffffffff021916908373ffffffffffffffffffffffffffffffffffffffff16021790555082600560006101000a81548173ffffffffffffffffffffffffffffffffffffffff021916908373ffffffffffffffffffffffffffffffffffffffff16021790555081600660006101000a81548173ffffffffffffffffffffffffffffffffffffffff021916908373ffffffffffffffffffffffffffffffffffffffff16021790555080600760006101000a81548173ffffffffffffffffffffffffffffffffffffffff021916908373ffffffffffffffffffffffffffffffffffffffff16021790555050505050505050565b600760009054906101000a900473ffffffffffffffffffffffffffffffffffffffff1681565b6000600760009054906101000a900473ffffffffffffffffffffffffffffffffffffffff1673ffffffffffffffffffffffffffffffffffffffff166310f67fb3876040518263ffffffff1660e01b815260040161076e9190612a35565b600060405180830381865afa15801561078b573d6000803e3d6000fd5b505050506040513d6000823e3d601f19601f820116820180604052508101906107b49190612e3b565b90506000600460009054906101000a900473ffffffffffffffffffffffffffffffffffffffff1673ffffffffffffffffffffffffffffffffffffffff16636fe99c18896040518263ffffffff1660e01b81526004016108139190612a35565b600060405180830381865afa158015610830573d6000803e3d6000fd5b505050506040513d6000823e3d601f19601f8201168201806040525081019061085991906130ff565b90506000600160009054906101000a900473ffffffffffffffffffffffffffffffffffffffff1673ffffffffffffffffffffffffffffffffffffffff16634810bc5984604001516040518263ffffffff1660e01b81526004016108bc9190612a35565b6101e060405180830381865afa1580156108da573d6000803e3d6000fd5b505050506040513d601f19601f820116820180604052508101906108fe9190613316565b9050600082610120015114610948576040517f08c379a000000000000000000000000000000000000000000000000000000000815260040161093f906133a1565b60405180910390fd5b816000015161098c576040517f08c379a00000000000000000000000000000000000000000000000000000000081526004016109839061340d565b60405180910390fd5b826000015173ffffffffffffffffffffffffffffffffffffffff163373ffffffffffffffffffffffffffffffffffffffff16146109fe576040517f08c379a00000000000000000000000000000000000000000000000000000000081526004016109f590613479565b60405180910390fd5b60038360c0015160ff1610610a48576040517f08c379a0000000000000000000000000000000000000000000000000000000008152600401610a3f906134e5565b60405180910390fd5b8160200151826040015181518110610a6357610a62613505565b5b60200260200101518814610aac576040517f08c379a0000000000000000000000000000000000000000000000000000000008152600401610aa390613580565b60405180910390fd5b60036006811115610ac057610abf6135a0565b5b876006811115610ad357610ad26135a0565b5b03156122685760026006811115610aed57610aec6135a0565b5b876006811115610b0057610aff6135a0565b5b036112ca576000600360009054906101000a900473ffffffffffffffffffffffffffffffffffffffff1673ffffffffffffffffffffffffffffffffffffffff16636ea1dcd88460e001518660600151600001518760600151602001518a6040518563ffffffff1660e01b8152600401610b7c9493929190613600565b606060405180830381865afa158015610b99573d6000803e3d6000fd5b505050506040513d601f19601f82011682018060405250810190610bbd91906136ce565b905060026004811115610bd357610bd26135a0565b5b81604001516004811115610bea57610be96135a0565b5b1480610c1e575060036004811115610c0557610c046135a0565b5b81604001516004811115610c1c57610c1b6135a0565b5b145b80610c3057506000816020015160ff16145b610c6f576040517f08c379a0000000000000000000000000000000000000000000000000000000008152600401610c669061376d565b60405180910390fd5b60016004811115610c8357610c826135a0565b5b81604001516004811115610c9a57610c996135a0565b5b03610d4d57600360009054906101000a900473ffffffffffffffffffffffffffffffffffffffff1673ffffffffffffffffffffffffffffffffffffffff1663592152238460e001518660600151600001518760600151602001518a600260006040518763ffffffff1660e01b8152600401610d1a96959493929190613810565b600060405180830381600087803b158015610d3457600080fd5b505af1158015610d48573d6000803e3d6000fd5b505050505b6000600260009054906101000a900473ffffffffffffffffffffffffffffffffffffffff1673ffffffffffffffffffffffffffffffffffffffff1663951fc3fe8887606001516040518363ffffffff1660e01b8152600401610db0929190613871565b6040805180830381865afa158015610dcc573d6000803e3d6000fd5b505050506040513d601f19601f82011682018060405250810190610df0919061389a565b9050600180811115610e0557610e046135a0565b5b886001811115610e1857610e176135a0565b5b03611232576000600260009054906101000a900473ffffffffffffffffffffffffffffffffffffffff1673ffffffffffffffffffffffffffffffffffffffff1663951fc3fe88846040518363ffffffff1660e01b8152600401610e7c929190613871565b6040805180830381865afa158015610e98573d6000803e3d6000fd5b505050506040513d601f19601f82011682018060405250810190610ebc919061389a565b90506000600360009054906101000a900473ffffffffffffffffffffffffffffffffffffffff1673ffffffffffffffffffffffffffffffffffffffff16636ea1dcd88760e00151856000015186602001518c6040518563ffffffff1660e01b8152600401610f2d9493929190613600565b606060405180830381865afa158015610f4a573d6000803e3d6000fd5b505050506040513d601f19601f82011682018060405250810190610f6e91906136ce565b905060026004811115610f8457610f836135a0565b5b81604001516004811115610f9b57610f9a6135a0565b5b1480610fcf575060036004811115610fb657610fb56135a0565b5b81604001516004811115610fcd57610fcc6135a0565b5b145b80610fe157506000816020015160ff16145b611020576040517f08c379a000000000000000000000000000000000000000000000000000000000815260040161101790613939565b60405180910390fd5b6000600360009054906101000a900473ffffffffffffffffffffffffffffffffffffffff1673ffffffffffffffffffffffffffffffffffffffff16631ef044168860e001516040518263ffffffff1660e01b81526004016110819190612a35565b600060405180830381865afa15801561109e573d6000803e3d6000fd5b505050506040513d6000823e3d601f19601f820116820180604052508101906110c79190613c67565b9050600281856000015160ff16815181106110e5576110e4613505565b5b6020026020010151856020015160ff168151811061110657611105613505565b5b60200260200101516000015160ff1611611155576040517f08c379a000000000000000000000000000000000000000000000000000000000815260040161114c90613cfc565b60405180910390fd5b60016004811115611169576111686135a0565b5b826040015160048111156111805761117f6135a0565b5b0361122b57600360009054906101000a900473ffffffffffffffffffffffffffffffffffffffff1673ffffffffffffffffffffffffffffffffffffffff1663592152238860e00151866000015187602001518d600260006040518763ffffffff1660e01b81526004016111f896959493929190613810565b600060405180830381600087803b15801561121257600080fd5b505af1158015611226573d6000803e3d6000fd5b505050505b8293505050505b600460009054906101000a900473ffffffffffffffffffffffffffffffffffffffff1673ffffffffffffffffffffffffffffffffffffffff1663175142258c838d6040518463ffffffff1660e01b8152600401611291939291906129fe565b600060405180830381600087803b1580156112ab57600080fd5b505af11580156112bf573d6000803e3d6000fd5b505050505050612267565b600060068111156112de576112dd6135a0565b5b8760068111156112f1576112f06135a0565b5b036116dd576000600360009054906101000a900473ffffffffffffffffffffffffffffffffffffffff1673ffffffffffffffffffffffffffffffffffffffff16636ea1dcd88460e001518660600151600001518760600151602001518a6040518563ffffffff1660e01b815260040161136d9493929190613600565b606060405180830381865afa15801561138a573d6000803e3d6000fd5b505050506040513d601f19601f820116820180604052508101906113ae91906136ce565b9050600160048111156113c4576113c36135a0565b5b816040015160048111156113db576113da6135a0565b5b1461141b576040517f08c379a000000000000000000000000000000000000000000000000000000000815260040161141290613d68565b60405180910390fd5b600260009054906101000a900473ffffffffffffffffffffffffffffffffffffffff1673ffffffffffffffffffffffffffffffffffffffff1663dff2fb3183606001516060015183602001516040518363ffffffff1660e01b8152600401611484929190613d88565b6020604051808303816000875af11580156114a3573d6000803e3d6000fd5b505050506040513d601f19601f820116820180604052508101906114c79190613db1565b156116d757600360009054906101000a900473ffffffffffffffffffffffffffffffffffffffff1673ffffffffffffffffffffffffffffffffffffffff1663592152238460e001518660600151600001518760600151602001518a600260006040518763ffffffff1660e01b815260040161154796959493929190613810565b600060405180830381600087803b15801561156157600080fd5b505af1158015611575573d6000803e3d6000fd5b5050505060018081111561158c5761158b6135a0565b5b87600181111561159f5761159e6135a0565b5b036116d657600460009054906101000a900473ffffffffffffffffffffffffffffffffffffffff1673ffffffffffffffffffffffffffffffffffffffff1663175142258b600260009054906101000a900473ffffffffffffffffffffffffffffffffffffffff1673ffffffffffffffffffffffffffffffffffffffff1663951fc3fe8a89606001516040518363ffffffff1660e01b8152600401611644929190613871565b6040805180830381865afa158015611660573d6000803e3d6000fd5b505050506040513d601f19601f82011682018060405250810190611684919061389a565b8c6040518463ffffffff1660e01b81526004016116a3939291906129fe565b600060405180830381600087803b1580156116bd57600080fd5b505af11580156116d1573d6000803e3d6000fd5b505050505b5b50612266565b600160068111156116f1576116f06135a0565b5b876006811115611704576117036135a0565b5b03611af0576000600360009054906101000a900473ffffffffffffffffffffffffffffffffffffffff1673ffffffffffffffffffffffffffffffffffffffff16636ea1dcd88460e001518660600151600001518760600151602001518a6040518563ffffffff1660e01b81526004016117809493929190613600565b606060405180830381865afa15801561179d573d6000803e3d6000fd5b505050506040513d601f19601f820116820180604052508101906117c191906136ce565b9050600160048111156117d7576117d66135a0565b5b816040015160048111156117ee576117ed6135a0565b5b1461182e576040517f08c379a000000000000000000000000000000000000000000000000000000000815260040161182590613d68565b60405180910390fd5b600260009054906101000a900473ffffffffffffffffffffffffffffffffffffffff1673ffffffffffffffffffffffffffffffffffffffff1663dff2fb3183606001516080015183600001516040518363ffffffff1660e01b8152600401611897929190613d88565b6020604051808303816000875af11580156118b6573d6000803e3d6000fd5b505050506040513d601f19601f820116820180604052508101906118da9190613db1565b15611aea57600360009054906101000a900473ffffffffffffffffffffffffffffffffffffffff1673ffffffffffffffffffffffffffffffffffffffff1663592152238460e001518660600151600001518760600151602001518a600360006040518763ffffffff1660e01b815260040161195a96959493929190613810565b600060405180830381600087803b15801561197457600080fd5b505af1158015611988573d6000803e3d6000fd5b5050505060018081111561199f5761199e6135a0565b5b8760018111156119b2576119b16135a0565b5b03611ae957600460009054906101000a900473ffffffffffffffffffffffffffffffffffffffff1673ffffffffffffffffffffffffffffffffffffffff1663175142258b600260009054906101000a900473ffffffffffffffffffffffffffffffffffffffff1673ffffffffffffffffffffffffffffffffffffffff1663951fc3fe8a89606001516040518363ffffffff1660e01b8152600401611a57929190613871565b6040805180830381865afa158015611a73573d6000803e3d6000fd5b505050506040513d601f19601f82011682018060405250810190611a97919061389a565b8c6040518463ffffffff1660e01b8152600401611ab6939291906129fe565b600060405180830381600087803b158015611ad057600080fd5b505af1158015611ae4573d6000803e3d6000fd5b505050505b5b50612265565b60046006811115611b0457611b036135a0565b5b876006811115611b1757611b166135a0565b5b03611fa9576000600360009054906101000a900473ffffffffffffffffffffffffffffffffffffffff1673ffffffffffffffffffffffffffffffffffffffff1663f9dfbfcb8460e001518660600151600001518760600151602001516040518463ffffffff1660e01b8152600401611b9193929190613dde565b61014060405180830381865afa158015611baf573d6000803e3d6000fd5b505050506040513d601f19601f82011682018060405250810190611bd39190613e15565b9050600015158160800151151514611c20576040517f08c379a0000000000000000000000000000000000000000000000000000000008152600401611c1790613e8f565b60405180910390fd5b6000600360009054906101000a900473ffffffffffffffffffffffffffffffffffffffff1673ffffffffffffffffffffffffffffffffffffffff166302861c6c8560e001518760600151600001518860600151602001516040518463ffffffff1660e01b8152600401611c9593929190613dde565b60a060405180830381865afa158015611cb2573d6000803e3d6000fd5b505050506040513d601f19601f82011682018060405250810190611cd69190613f60565b90506000816060015160ff161180611cf557506000816040015160ff16115b611d34576040517f08c379a0000000000000000000000000000000000000000000000000000000008152600401611d2b90613fd9565b60405180910390fd5b64174876e800816040015160ff16611d4c9190614028565b3414611d8d576040517f08c379a0000000000000000000000000000000000000000000000000000000008152600401611d84906140b6565b60405180910390fd5b600360009054906101000a900473ffffffffffffffffffffffffffffffffffffffff1673ffffffffffffffffffffffffffffffffffffffff166386e529d08560e001518760600151600001518860600151602001516040518463ffffffff1660e01b8152600401611e0093929190613dde565b600060405180830381600087803b158015611e1a57600080fd5b505af1158015611e2e573d6000803e3d6000fd5b50505050600760009054906101000a900473ffffffffffffffffffffffffffffffffffffffff1673ffffffffffffffffffffffffffffffffffffffff1663b69071948b83606001516040518363ffffffff1660e01b8152600401611e939291906140e5565b600060405180830381600087803b158015611ead57600080fd5b505af1158015611ec1573d6000803e3d6000fd5b5050505060005b816040015160ff16811015611fa157600560009054906101000a900473ffffffffffffffffffffffffffffffffffffffff1673ffffffffffffffffffffffffffffffffffffffff1663aa3eb1b564174876e8008d600460009054906101000a900473ffffffffffffffffffffffffffffffffffffffff166040518463ffffffff1660e01b8152600401611f5c92919061410e565b6000604051808303818588803b158015611f7557600080fd5b505af1158015611f89573d6000803e3d6000fd5b50505050508080611f9990614137565b915050611ec8565b505050612264565b60056006811115611fbd57611fbc6135a0565b5b876006811115611fd057611fcf6135a0565b5b03612228576000600360009054906101000a900473ffffffffffffffffffffffffffffffffffffffff1673ffffffffffffffffffffffffffffffffffffffff166302861c6c8460e001518660600151600001518760600151602001516040518463ffffffff1660e01b815260040161204a93929190613dde565b60a060405180830381865afa158015612067573d6000803e3d6000fd5b505050506040513d601f19601f8201168201806040525081019061208b9190613f60565b90506000600660009054906101000a900473ffffffffffffffffffffffffffffffffffffffff1673ffffffffffffffffffffffffffffffffffffffff1663c82c37b983602001516040518263ffffffff1660e01b81526004016120ee9190612a35565b610a4060405180830381865afa15801561210c573d6000803e3d6000fd5b505050506040513d601f19601f820116820180604052508101906121309190614477565b905060011515816020015115151461217d576040517f08c379a0000000000000000000000000000000000000000000000000000000008152600401612174906144f1565b60405180910390fd5b600760009054906101000a900473ffffffffffffffffffffffffffffffffffffffff1673ffffffffffffffffffffffffffffffffffffffff1663ed8619618b8d8760e001518960600151876020015160006040518763ffffffff1660e01b81526004016121ef96959493929190614511565b600060405180830381600087803b15801561220957600080fd5b505af115801561221d573d6000803e3d6000fd5b505050505050612263565b6040517f08c379a000000000000000000000000000000000000000000000000000000000815260040161225a906145be565b60405180910390fd5b5b5b5b5b5b600460009054906101000a900473ffffffffffffffffffffffffffffffffffffffff1673ffffffffffffffffffffffffffffffffffffffff166360fe842e8a8a6040518363ffffffff1660e01b81526004016122c59291906145de565b600060405180830381600087803b1580156122df57600080fd5b505af11580156122f3573d6000803e3d6000fd5b505050507f0be3df7b33e1d03cdfb4afe0a539c56f05f56b7c2d2f8fe03fa5699b4fd9af4882848960405161232a93929190614a94565b60405180910390a1505050505050505050565b6123456123c0565b600073ffffffffffffffffffffffffffffffffffffffff168173ffffffffffffffffffffffffffffffffffffffff16036123b4576040517f08c379a00000000000000000000000000000000000000000000000000000000081526004016123ab90614b4b565b60405180910390fd5b6123bd8161243e565b50565b6123c8612502565b73ffffffffffffffffffffffffffffffffffffffff166123e6610478565b73ffffffffffffffffffffffffffffffffffffffff161461243c576040517f08c379a000000000000000000000000000000000000000000000000000000000815260040161243390614bb7565b60405180910390fd5b565b60008060009054906101000a900473ffffffffffffffffffffffffffffffffffffffff169050816000806101000a81548173ffffffffffffffffffffffffffffffffffffffff021916908373ffffffffffffffffffffffffffffffffffffffff1602179055508173ffffffffffffffffffffffffffffffffffffffff168173ffffffffffffffffffffffffffffffffffffffff167f8be0079c531659141344cd1fd0a4f28419497f9722a3daafe3b4186f6b6457e060405160405180910390a35050565b600033905090565b600073ffffffffffffffffffffffffffffffffffffffff82169050919050565b6000819050919050565b600061254f61254a6125458461250a565b61252a565b61250a565b9050919050565b600061256182612534565b9050919050565b600061257382612556565b9050919050565b61258381612568565b82525050565b600060208201905061259e600083018461257a565b92915050565b60006125af82612556565b9050919050565b6125bf816125a4565b82525050565b60006020820190506125da60008301846125b6565b92915050565b6000604051905090565b600080fd5b600080fd5b6000819050919050565b612607816125f4565b811461261257600080fd5b50565b600081359050612624816125fe565b92915050565b60008060408385031215612641576126406125ea565b5b600061264f85828601612615565b925050602061266085828601612615565b9150509250929050565b600061267582612556565b9050919050565b6126858161266a565b82525050565b60006020820190506126a0600083018461267c565b92915050565b60006126b182612556565b9050919050565b6126c1816126a6565b82525050565b60006020820190506126dc60008301846126b8565b92915050565b60006126ed8261250a565b9050919050565b6126fd816126e2565b82525050565b600060208201905061271860008301846126f4565b92915050565b600061272982612556565b9050919050565b6127398161271e565b82525050565b60006020820190506127546000830184612730565b92915050565b600061276582612556565b9050919050565b6127758161275a565b82525050565b6000602082019050612790600083018461276c565b92915050565b61279f816126e2565b81146127aa57600080fd5b50565b6000813590506127bc81612796565b92915050565b600080600080600080600060e0888a0312156127e1576127e06125ea565b5b60006127ef8a828b016127ad565b97505060206128008a828b016127ad565b96505060406128118a828b016127ad565b95505060606128228a828b016127ad565b94505060806128338a828b016127ad565b93505060a06128448a828b016127ad565b92505060c06128558a828b016127ad565b91505092959891949750929550565b600061286f82612556565b9050919050565b61287f81612864565b82525050565b600060208201905061289a6000830184612876565b92915050565b600781106128ad57600080fd5b50565b6000813590506128bf816128a0565b92915050565b600281106128d257600080fd5b50565b6000813590506128e4816128c5565b92915050565b60008060008060008060c08789031215612907576129066125ea565b5b600061291589828a01612615565b965050602061292689828a01612615565b955050604061293789828a016128b0565b945050606061294889828a016128d5565b935050608061295989828a01612615565b92505060a061296a89828a01612615565b9150509295509295509295565b60006020828403121561298d5761298c6125ea565b5b600061299b848285016127ad565b91505092915050565b6129ad816125f4565b82525050565b600060ff82169050919050565b6129c9816129b3565b82525050565b6040820160008201516129e560008501826129c0565b5060208201516129f860208501826129c0565b50505050565b6000608082019050612a1360008301866129a4565b612a2060208301856129cf565b612a2d60608301846129a4565b949350505050565b6000602082019050612a4a60008301846129a4565b92915050565b600080fd5b6000601f19601f8301169050919050565b7f4e487b7100000000000000000000000000000000000000000000000000000000600052604160045260246000fd5b612a9e82612a55565b810181811067ffffffffffffffff82111715612abd57612abc612a66565b5b80604052505050565b6000612ad06125e0565b9050612adc8282612a95565b919050565b600080fd5b600081519050612af581612796565b92915050565b600081519050612b0a816125fe565b92915050565b612b19816129b3565b8114612b2457600080fd5b50565b600081519050612b3681612b10565b92915050565b600060408284031215612b5257612b51612a50565b5b612b5c6040612ac6565b90506000612b6c84828501612b27565b6000830152506020612b8084828501612b27565b60208301525092915050565b60008160000b9050919050565b612ba281612b8c565b8114612bad57600080fd5b50565b600081519050612bbf81612b99565b92915050565b600080fd5b600067ffffffffffffffff821115612be557612be4612a66565b5b602082029050602081019050919050565b600080fd5b6000612c0e612c0984612bca565b612ac6565b90508083825260208201905060208402830185811115612c3157612c30612bf6565b5b835b81811015612c5a5780612c468882612b27565b845260208401935050602081019050612c33565b5050509392505050565b600082601f830112612c7957612c78612bc5565b5b8151612c89848260208601612bfb565b91505092915050565b60008115159050919050565b612ca781612c92565b8114612cb257600080fd5b50565b600081519050612cc481612c9e565b92915050565b60006101c08284031215612ce157612ce0612a50565b5b612cec6101a0612ac6565b90506000612cfc84828501612ae6565b6000830152506020612d1084828501612ae6565b6020830152506040612d2484828501612afb565b6040830152506060612d3884828501612b3c565b60608301525060a0612d4c84828501612bb0565b60808301525060c0612d6084828501612b27565b60a08301525060e0612d7484828501612b27565b60c083015250610100612d8984828501612b27565b60e08301525061012082015167ffffffffffffffff811115612dae57612dad612ae1565b5b612dba84828501612c64565b6101008301525061014082015167ffffffffffffffff811115612de057612ddf612ae1565b5b612dec84828501612c64565b61012083015250610160612e0284828501612cb5565b61014083015250610180612e1884828501612cb5565b610160830152506101a0612e2e84828501612cb5565b6101808301525092915050565b600060208284031215612e5157612e506125ea565b5b600082015167ffffffffffffffff811115612e6f57612e6e6125ef565b5b612e7b84828501612cca565b91505092915050565b600067ffffffffffffffff821115612e9f57612e9e612a66565b5b602082029050602081019050919050565b6000612ec3612ebe84612e84565b612ac6565b90508083825260208201905060208402830185811115612ee657612ee5612bf6565b5b835b81811015612f0f5780612efb8882612afb565b845260208401935050602081019050612ee8565b5050509392505050565b600082601f830112612f2e57612f2d612bc5565b5b8151612f3e848260208601612eb0565b91505092915050565b600060808284031215612f5d57612f5c612a50565b5b612f676080612ac6565b90506000612f7784828501612b27565b6000830152506020612f8b84828501612b27565b6020830152506040612f9f84828501612b27565b6040830152506060612fb384828501612b27565b60608301525092915050565b60006102008284031215612fd657612fd5612a50565b5b612fe1610180612ac6565b90506000612ff184828501612cb5565b600083015250602082015167ffffffffffffffff81111561301557613014612ae1565b5b61302184828501612f19565b602083015250604061303584828501612afb565b604083015250606061304984828501612afb565b606083015250608061305d84828501612afb565b60808301525060a061307184828501612f47565b60a08301525061012061308684828501612ae6565b60c08301525061014061309b84828501612afb565b60e0830152506101606130b084828501612afb565b610100830152506101806130c684828501612afb565b610120830152506101a06130dc84828501612cb5565b610140830152506101c06130f284828501612b3c565b6101608301525092915050565b600060208284031215613115576131146125ea565b5b600082015167ffffffffffffffff811115613133576131326125ef565b5b61313f84828501612fbf565b91505092915050565b6000819050919050565b61315b81613148565b811461316657600080fd5b50565b60008151905061317881613152565b92915050565b600060e0828403121561319457613193612a50565b5b61319e60e0612ac6565b905060006131ae84828501612bb0565b60008301525060206131c284828501612bb0565b60208301525060406131d684828501612bb0565b60408301525060606131ea84828501612bb0565b60608301525060806131fe84828501612bb0565b60808301525060a061321284828501612bb0565b60a08301525060c061322684828501612bb0565b60c08301525092915050565b60006101e0828403121561324957613248612a50565b5b613254610120612ac6565b9050600061326484828501613169565b600083015250602061327884828501612afb565b602083015250604061328c84828501612afb565b60408301525060606132a08482850161317e565b6060830152506101406132b584828501612b27565b6080830152506101606132ca84828501612b27565b60a0830152506101806132df84828501612b27565b60c0830152506101a06132f484828501612b27565b60e0830152506101c061330984828501612cb5565b6101008301525092915050565b60006101e0828403121561332d5761332c6125ea565b5b600061333b84828501613232565b91505092915050565b600082825260208201905092915050565b7f4d757374207265736f6c7665206576656e742066697273740000000000000000600082015250565b600061338b601883613344565b915061339682613355565b602082019050919050565b600060208201905081810360008301526133ba8161337e565b9050919050565b7f47616d65206e6f74206163746976650000000000000000000000000000000000600082015250565b60006133f7600f83613344565b9150613402826133c1565b602082019050919050565b60006020820190508181036000830152613426816133ea565b9050919050565b7f53656e646572206e6f7420706c61796572206f776e6572000000000000000000600082015250565b6000613463601783613344565b915061346e8261342d565b602082019050919050565b6000602082019050818103600083015261349281613456565b9050919050565b7f4e6f20616374696f6e73206c6566740000000000000000000000000000000000600082015250565b60006134cf600f83613344565b91506134da82613499565b602082019050919050565b600060208201905081810360008301526134fe816134c2565b9050919050565b7f4e487b7100000000000000000000000000000000000000000000000000000000600052603260045260246000fd5b7f4e6f7420796f7572207475726e00000000000000000000000000000000000000600082015250565b600061356a600d83613344565b915061357582613534565b602082019050919050565b600060208201905081810360008301526135998161355d565b9050919050565b7f4e487b7100000000000000000000000000000000000000000000000000000000600052602160045260246000fd5b60006135ea6135e56135e0846129b3565b61252a565b6125f4565b9050919050565b6135fa816135cf565b82525050565b600060808201905061361560008301876129a4565b61362260208301866135f1565b61362f60408301856135f1565b61363c60608301846129a4565b95945050505050565b6005811061365257600080fd5b50565b60008151905061366481613645565b92915050565b6000606082840312156136805761367f612a50565b5b61368a6060612ac6565b9050600061369a84828501612b27565b60008301525060206136ae84828501612b27565b60208301525060406136c284828501613655565b60408301525092915050565b6000606082840312156136e4576136e36125ea565b5b60006136f28482850161366a565b91505092915050565b7f31737420446f6f72206e6f74206f70656e2f62726561636865642f756e6c6f6360008201527f6b65640000000000000000000000000000000000000000000000000000000000602082015250565b6000613757602383613344565b9150613762826136fb565b604082019050919050565b600060208201905081810360008301526137868161374a565b9050919050565b6005811061379e5761379d6135a0565b5b50565b60008190506137af8261378d565b919050565b60006137bf826137a1565b9050919050565b6137cf816137b4565b82525050565b6000819050919050565b60006137fa6137f56137f0846137d5565b61252a565b6125f4565b9050919050565b61380a816137df565b82525050565b600060c08201905061382560008301896129a4565b61383260208301886135f1565b61383f60408301876135f1565b61384c60608301866129a4565b61385960808301856137c6565b61386660a0830184613801565b979650505050505050565b600060608201905061388660008301856129a4565b61389360208301846129cf565b9392505050565b6000604082840312156138b0576138af6125ea565b5b60006138be84828501612b3c565b91505092915050565b7f326e6420446f6f72206e6f74206f70656e2f62726561636865642f756e6c6f6360008201527f6b65640000000000000000000000000000000000000000000000000000000000602082015250565b6000613923602383613344565b915061392e826138c7565b604082019050919050565b6000602082019050818103600083015261395281613916565b9050919050565b600067ffffffffffffffff82111561397457613973612a66565b5b602082029050602081019050919050565b600067ffffffffffffffff8211156139a05761399f612a66565b5b602082029050602081019050919050565b600067ffffffffffffffff8211156139cc576139cb612a66565b5b602082029050919050565b60006139ea6139e5846139b1565b612ac6565b90508060208402830185811115613a0457613a03612bf6565b5b835b81811015613a2d5780613a198882612afb565b845260208401935050602081019050613a06565b5050509392505050565b600082601f830112613a4c57613a4b612bc5565b5b6004613a598482856139d7565b91505092915050565b60006101408284031215613a7957613a78612a50565b5b613a8360e0612ac6565b90506000613a9384828501612b27565b6000830152506020613aa784828501612b27565b6020830152506040613abb84828501613a37565b60408301525060c0613acf84828501612cb5565b60608301525060e0613ae384828501612cb5565b608083015250610100613af884828501612cb5565b60a083015250610120613b0d84828501612cb5565b60c08301525092915050565b6000613b2c613b2784613985565b612ac6565b9050808382526020820190506101408402830185811115613b5057613b4f612bf6565b5b835b81811015613b7a5780613b658882613a62565b84526020840193505061014081019050613b52565b5050509392505050565b600082601f830112613b9957613b98612bc5565b5b8151613ba9848260208601613b19565b91505092915050565b6000613bc5613bc084613959565b612ac6565b90508083825260208201905060208402830185811115613be857613be7612bf6565b5b835b81811015613c2f57805167ffffffffffffffff811115613c0d57613c0c612bc5565b5b808601613c1a8982613b84565b85526020850194505050602081019050613bea565b5050509392505050565b600082601f830112613c4e57613c4d612bc5565b5b8151613c5e848260208601613bb2565b91505092915050565b600060208284031215613c7d57613c7c6125ea565b5b600082015167ffffffffffffffff811115613c9b57613c9a6125ef565b5b613ca784828501613c39565b91505092915050565b7f526f6f6d206e6f74206578706c6f726564000000000000000000000000000000600082015250565b6000613ce6601183613344565b9150613cf182613cb0565b602082019050919050565b60006020820190508181036000830152613d1581613cd9565b9050919050565b7f446f6f72206e6f7420636c6f7365640000000000000000000000000000000000600082015250565b6000613d52600f83613344565b9150613d5d82613d1c565b602082019050919050565b60006020820190508181036000830152613d8181613d45565b9050919050565b6000604082019050613d9d60008301856135f1565b613daa60208301846135f1565b9392505050565b600060208284031215613dc757613dc66125ea565b5b6000613dd584828501612cb5565b91505092915050565b6000606082019050613df360008301866129a4565b613e0060208301856135f1565b613e0d60408301846135f1565b949350505050565b60006101408284031215613e2c57613e2b6125ea565b5b6000613e3a84828501613a62565b91505092915050565b7f526f6f6d20616c7265616479206c6f6f74656400000000000000000000000000600082015250565b6000613e79601383613344565b9150613e8482613e43565b602082019050919050565b60006020820190508181036000830152613ea881613e6c565b9050919050565b60058110613ebc57600080fd5b50565b600081519050613ece81613eaf565b92915050565b600060a08284031215613eea57613ee9612a50565b5b613ef460a0612ac6565b90506000613f0484828501613ebf565b6000830152506020613f1884828501612afb565b6020830152506040613f2c84828501612b27565b6040830152506060613f4084828501612b27565b6060830152506080613f5484828501612cb5565b60808301525092915050565b600060a08284031215613f7657613f756125ea565b5b6000613f8484828501613ed4565b91505092915050565b7f43616e2774206c6f6f7420656d70747920726f6f6d0000000000000000000000600082015250565b6000613fc3601583613344565b9150613fce82613f8d565b602082019050919050565b60006020820190508181036000830152613ff281613fb6565b9050919050565b7f4e487b7100000000000000000000000000000000000000000000000000000000600052601160045260246000fd5b6000614033826125f4565b915061403e836125f4565b925082820261404c816125f4565b9150828204841483151761406357614062613ff9565b5b5092915050565b7f57726f6e67207061796d656e7420696e20616374696f6e730000000000000000600082015250565b60006140a0601883613344565b91506140ab8261406a565b602082019050919050565b600060208201905081810360008301526140cf81614093565b9050919050565b6140df816129b3565b82525050565b60006040820190506140fa60008301856129a4565b61410760208301846140d6565b9392505050565b600060408201905061412360008301856129a4565b61413060208301846126f4565b9392505050565b6000614142826125f4565b91507fffffffffffffffffffffffffffffffffffffffffffffffffffffffffffffffff820361417457614173613ff9565b5b600182019050919050565b6005811061418c57600080fd5b50565b60008151905061419e8161417f565b92915050565b600481106141b157600080fd5b50565b6000815190506141c3816141a4565b92915050565b600681106141d657600080fd5b50565b6000815190506141e8816141c9565b92915050565b6000610340828403121561420557614204612a50565b5b614210610280612ac6565b9050600061422084828501612cb5565b600083015250602061423484828501612cb5565b602083015250604061424884828501612cb5565b604083015250606061425c84828501612cb5565b606083015250608061427084828501612cb5565b60808301525060a061428484828501612b27565b60a08301525060c061429884828501612b27565b60c08301525060e06142ac84828501612b27565b60e0830152506101006142c184828501612b27565b610100830152506101206142d784828501612b27565b610120830152506101406142ed8482850161418f565b61014083015250610160614303848285016141b4565b6101608301525061018061431984828501612b27565b610180830152506101a061432f84828501612b27565b6101a0830152506101c061434584828501612b27565b6101c0830152506101e061435b848285016141d9565b6101e08301525061020061437184828501612b27565b6102008301525061022061438784828501612b27565b6102208301525061024061439d84828501612b27565b610240830152506102606143b38482850161317e565b6102608301525092915050565b6000610a4082840312156143d7576143d6612a50565b5b6143e160e0612ac6565b905060006143f184828501612afb565b600083015250602061440584828501612cb5565b602083015250604061441984828501612b27565b604083015250606061442d84828501612b27565b6060830152506080614441848285016141ee565b6080830152506103c0614456848285016141ee565b60a08301525061070061446b848285016141ee565b60c08301525092915050565b6000610a40828403121561448e5761448d6125ea565b5b600061449c848285016143c0565b91505092915050565b7f4576656e74206e6f74207065726d616e656e7400000000000000000000000000600082015250565b60006144db601383613344565b91506144e6826144a5565b602082019050919050565b6000602082019050818103600083015261450a816144ce565b9050919050565b600060e08201905061452660008301896129a4565b61453360208301886129a4565b61454060408301876129a4565b61454d60608301866129cf565b61455a60a08301856129a4565b61456760c0830184613801565b979650505050505050565b7f4552524f523a2042616420616374696f6e20636f6e6669670000000000000000600082015250565b60006145a8601883613344565b91506145b382614572565b602082019050919050565b600060208201905081810360008301526145d78161459b565b9050919050565b60006040820190506145f360008301856129a4565b61460060208301846129a4565b9392505050565b61461081612c92565b82525050565b600081519050919050565b600082825260208201905092915050565b6000819050602082019050919050565b61464b816125f4565b82525050565b600061465d8383614642565b60208301905092915050565b6000602082019050919050565b600061468182614616565b61468b8185614621565b935061469683614632565b8060005b838110156146c75781516146ae8882614651565b97506146b983614669565b92505060018101905061469a565b5085935050505092915050565b6080820160008201516146ea60008501826129c0565b5060208201516146fd60208501826129c0565b50604082015161471060408501826129c0565b50606082015161472360608501826129c0565b50505050565b614732816126e2565b82525050565b60408201600082015161474e60008501826129c0565b50602082015161476160208501826129c0565b50505050565b6000610200830160008301516147806000860182614607565b50602083015184820360208601526147988282614676565b91505060408301516147ad6040860182614642565b5060608301516147c06060860182614642565b5060808301516147d36080860182614642565b5060a08301516147e660a08601826146d4565b5060c08301516147fa610120860182614729565b5060e083015161480e610140860182614642565b50610100830151614823610160860182614642565b50610120830151614838610180860182614642565b5061014083015161484d6101a0860182614607565b506101608301516148626101c0860182614738565b508091505092915050565b61487681612b8c565b82525050565b600081519050919050565b600082825260208201905092915050565b6000819050602082019050919050565b60006148b483836129c0565b60208301905092915050565b6000602082019050919050565b60006148d88261487c565b6148e28185614887565b93506148ed83614898565b8060005b8381101561491e57815161490588826148a8565b9750614910836148c0565b9250506001810190506148f1565b5085935050505092915050565b60006101c0830160008301516149446000860182614729565b5060208301516149576020860182614729565b50604083015161496a6040860182614642565b50606083015161497d6060860182614738565b50608083015161499060a086018261486d565b5060a08301516149a360c08601826129c0565b5060c08301516149b660e08601826129c0565b5060e08301516149ca6101008601826129c0565b506101008301518482036101208601526149e482826148cd565b915050610120830151848203610140860152614a0082826148cd565b915050610140830151614a17610160860182614607565b50610160830151614a2c610180860182614607565b50610180830151614a416101a0860182614607565b508091505092915050565b60078110614a5d57614a5c6135a0565b5b50565b6000819050614a6e82614a4c565b919050565b6000614a7e82614a60565b9050919050565b614a8e81614a73565b82525050565b60006060820190508181036000830152614aae8186614767565b90508181036020830152614ac2818561492b565b9050614ad16040830184614a85565b949350505050565b7f4f776e61626c653a206e6577206f776e657220697320746865207a65726f206160008201527f6464726573730000000000000000000000000000000000000000000000000000602082015250565b6000614b35602683613344565b9150614b4082614ad9565b604082019050919050565b60006020820190508181036000830152614b6481614b28565b9050919050565b7f4f776e61626c653a2063616c6c6572206973206e6f7420746865206f776e6572600082015250565b6000614ba1602083613344565b9150614bac82614b6b565b602082019050919050565b60006020820190508181036000830152614bd081614b94565b905091905056fea26469706673582212208b1bd6d5dd9bcaf3ea2e39baf6cc2ab197f5573e0bb59feb08a657927248ec4664736f6c63430008110033",
  "devdoc": {
    "kind": "dev",
    "methods": {
      "owner()": {
        "details": "Returns the address of the current owner."
      },
      "renounceOwnership()": {
        "details": "Leaves the contract without owner. It will not be possible to call `onlyOwner` functions anymore. Can only be called by the current owner. NOTE: Renouncing ownership will leave the contract without an owner, thereby removing any functionality that is only available to the owner."
      },
      "transferOwnership(address)": {
        "details": "Transfers ownership of the contract to a new account (`newOwner`). Can only be called by the current owner."
      }
    },
    "version": 1
  },
  "userdoc": {
    "kind": "user",
    "methods": {},
    "version": 1
  },
  "storageLayout": {
    "storage": [
      {
        "astId": 7,
        "contract": "contracts/Actions.sol:Actions",
        "label": "_owner",
        "offset": 0,
        "slot": "0",
        "type": "t_address"
      },
      {
        "astId": 2042,
        "contract": "contracts/Actions.sol:Actions",
        "label": "chars",
        "offset": 0,
        "slot": "1",
        "type": "t_contract(CharInterface)1815"
      },
      {
        "astId": 2045,
        "contract": "contracts/Actions.sol:Actions",
        "label": "utils",
        "offset": 0,
        "slot": "2",
        "type": "t_contract(UtilsInterface)1836"
      },
      {
        "astId": 2048,
        "contract": "contracts/Actions.sol:Actions",
        "label": "maps",
        "offset": 0,
        "slot": "3",
        "type": "t_contract(MapInterface)1931"
      },
      {
        "astId": 2051,
        "contract": "contracts/Actions.sol:Actions",
        "label": "games",
        "offset": 0,
        "slot": "4",
        "type": "t_contract(GamesInterface)1957"
      },
      {
        "astId": 2054,
        "contract": "contracts/Actions.sol:Actions",
        "label": "items",
        "offset": 0,
        "slot": "5",
        "type": "t_contract(ItemsInterface)1965"
      },
      {
        "astId": 2057,
        "contract": "contracts/Actions.sol:Actions",
        "label": "bcEvents",
        "offset": 0,
        "slot": "6",
        "type": "t_contract(EventsInterface)2005"
      },
      {
        "astId": 2060,
        "contract": "contracts/Actions.sol:Actions",
        "label": "players",
        "offset": 0,
        "slot": "7",
        "type": "t_contract(PlayersInterface)2037"
      },
      {
        "astId": 2062,
        "contract": "contracts/Actions.sol:Actions",
        "label": "charsAddress",
        "offset": 0,
        "slot": "8",
        "type": "t_address"
      }
    ],
    "types": {
      "t_address": {
        "encoding": "inplace",
        "label": "address",
        "numberOfBytes": "20"
      },
      "t_contract(CharInterface)1815": {
        "encoding": "inplace",
        "label": "contract CharInterface",
        "numberOfBytes": "20"
      },
      "t_contract(EventsInterface)2005": {
        "encoding": "inplace",
        "label": "contract EventsInterface",
        "numberOfBytes": "20"
      },
      "t_contract(GamesInterface)1957": {
        "encoding": "inplace",
        "label": "contract GamesInterface",
        "numberOfBytes": "20"
      },
      "t_contract(ItemsInterface)1965": {
        "encoding": "inplace",
        "label": "contract ItemsInterface",
        "numberOfBytes": "20"
      },
      "t_contract(MapInterface)1931": {
        "encoding": "inplace",
        "label": "contract MapInterface",
        "numberOfBytes": "20"
      },
      "t_contract(PlayersInterface)2037": {
        "encoding": "inplace",
        "label": "contract PlayersInterface",
        "numberOfBytes": "20"
      },
      "t_contract(UtilsInterface)1836": {
        "encoding": "inplace",
        "label": "contract UtilsInterface",
        "numberOfBytes": "20"
      }
    }
  }
}