{
  "address": "0xf8F33c54a3d525f8c9C51919D5e2dB8af032705f",
  "abi": [
    {
      "anonymous": false,
      "inputs": [
        {
          "indexed": false,
          "internalType": "uint256",
          "name": "gameId",
          "type": "uint256"
        },
        {
          "components": [
            {
              "internalType": "bool",
              "name": "active",
              "type": "bool"
            },
            {
              "internalType": "uint256[]",
              "name": "playerIndexes",
              "type": "uint256[]"
            },
            {
              "internalType": "uint256",
              "name": "currentPlayerTurnIndex",
              "type": "uint256"
            },
            {
              "internalType": "uint256",
              "name": "numPlayers",
              "type": "uint256"
            },
            {
              "internalType": "uint256",
              "name": "turnsTaken",
              "type": "uint256"
            },
            {
              "components": [
                {
                  "internalType": "uint8",
                  "name": "bugEvents",
                  "type": "uint8"
                },
                {
                  "internalType": "uint8",
                  "name": "mysteryEvents",
                  "type": "uint8"
                },
                {
                  "internalType": "uint8",
                  "name": "scavEvents",
                  "type": "uint8"
                },
                {
                  "internalType": "uint8",
                  "name": "shipEvents",
                  "type": "uint8"
                }
              ],
              "internalType": "struct BCTypes.EventTracker",
              "name": "eventTracker",
              "type": "tuple"
            },
            {
              "internalType": "address",
              "name": "mapContract",
              "type": "address"
            },
            {
              "internalType": "uint256",
              "name": "mapId",
              "type": "uint256"
            },
            {
              "internalType": "uint256",
              "name": "eventPlayerId",
              "type": "uint256"
            },
            {
              "internalType": "uint256",
              "name": "eventNumber",
              "type": "uint256"
            },
            {
              "internalType": "enum BCTypes.BCEventType",
              "name": "eventType",
              "type": "uint8"
            },
            {
              "components": [
                {
                  "internalType": "uint8",
                  "name": "row",
                  "type": "uint8"
                },
                {
                  "internalType": "uint8",
                  "name": "col",
                  "type": "uint8"
                }
              ],
              "internalType": "struct BCTypes.Position",
              "name": "eventPosition",
              "type": "tuple"
            },
            {
              "internalType": "uint256[]",
              "name": "unusedBugEvents",
              "type": "uint256[]"
            },
            {
              "internalType": "uint256[]",
              "name": "unusedMysteryEvents",
              "type": "uint256[]"
            },
            {
              "internalType": "uint256[]",
              "name": "unusedScavEvents",
              "type": "uint256[]"
            },
            {
              "internalType": "uint256[]",
              "name": "unusedShipEvents",
              "type": "uint256[]"
            }
          ],
          "indexed": false,
          "internalType": "struct BCTypes.Game",
          "name": "game",
          "type": "tuple"
        },
        {
          "indexed": false,
          "internalType": "uint256",
          "name": "playerId",
          "type": "uint256"
        },
        {
          "components": [
            {
              "internalType": "address",
              "name": "owner",
              "type": "address"
            },
            {
              "internalType": "address",
              "name": "charContractAddress",
              "type": "address"
            },
            {
              "internalType": "uint256",
              "name": "characterId",
              "type": "uint256"
            },
            {
              "components": [
                {
                  "internalType": "uint8",
                  "name": "row",
                  "type": "uint8"
                },
                {
                  "internalType": "uint8",
                  "name": "col",
                  "type": "uint8"
                }
              ],
              "internalType": "struct BCTypes.Position",
              "name": "position",
              "type": "tuple"
            },
            {
              "internalType": "int8",
              "name": "healthDmgTaken",
              "type": "int8"
            },
            {
              "internalType": "uint8",
              "name": "armorDmgTaken",
              "type": "uint8"
            },
            {
              "internalType": "uint8",
              "name": "actionsTaken",
              "type": "uint8"
            },
            {
              "internalType": "uint8",
              "name": "dataTokens",
              "type": "uint8"
            },
            {
              "internalType": "uint8[]",
              "name": "currentEffects",
              "type": "uint8[]"
            },
            {
              "internalType": "uint8[]",
              "name": "inventoryIDs",
              "type": "uint8[]"
            },
            {
              "internalType": "bool",
              "name": "canHarmOthers",
              "type": "bool"
            },
            {
              "internalType": "bool",
              "name": "dead",
              "type": "bool"
            },
            {
              "internalType": "bool",
              "name": "hasEgg",
              "type": "bool"
            }
          ],
          "indexed": false,
          "internalType": "struct BCTypes.Player",
          "name": "player",
          "type": "tuple"
        },
        {
          "indexed": false,
          "internalType": "enum BCTypes.Action",
          "name": "action",
          "type": "uint8"
        }
      ],
      "name": "ActionCompleteEvent",
      "type": "event"
    },
    {
      "anonymous": false,
      "inputs": [
        {
          "indexed": true,
          "internalType": "address",
          "name": "previousOwner",
          "type": "address"
        },
        {
          "indexed": true,
          "internalType": "address",
          "name": "newOwner",
          "type": "address"
        }
      ],
      "name": "OwnershipTransferred",
      "type": "event"
    },
    {
      "inputs": [],
      "name": "bcEvents",
      "outputs": [
        {
          "internalType": "contract EventsInterface",
          "name": "",
          "type": "address"
        }
      ],
      "stateMutability": "view",
      "type": "function"
    },
    {
      "inputs": [],
      "name": "chars",
      "outputs": [
        {
          "internalType": "contract CharInterface",
          "name": "",
          "type": "address"
        }
      ],
      "stateMutability": "view",
      "type": "function"
    },
    {
      "inputs": [],
      "name": "charsAddress",
      "outputs": [
        {
          "internalType": "address",
          "name": "",
          "type": "address"
        }
      ],
      "stateMutability": "view",
      "type": "function"
    },
    {
      "inputs": [
        {
          "internalType": "uint256",
          "name": "_gameId",
          "type": "uint256"
        },
        {
          "internalType": "uint256",
          "name": "_playerId",
          "type": "uint256"
        }
      ],
      "name": "debugMovePlayerForTesting",
      "outputs": [],
      "stateMutability": "nonpayable",
      "type": "function"
    },
    {
      "inputs": [
        {
          "internalType": "uint256",
          "name": "_gameId",
          "type": "uint256"
        },
        {
          "internalType": "uint256",
          "name": "_playerId",
          "type": "uint256"
        },
        {
          "internalType": "enum BCTypes.Action",
          "name": "_action",
          "type": "uint8"
        },
        {
          "internalType": "enum BCTypes.Followthrough",
          "name": "_followthrough",
          "type": "uint8"
        },
        {
          "internalType": "uint256",
          "name": "_1stDirection",
          "type": "uint256"
        },
        {
          "internalType": "uint256",
          "name": "_2ndDirection",
          "type": "uint256"
        }
      ],
      "name": "doAction",
      "outputs": [],
      "stateMutability": "payable",
      "type": "function"
    },
    {
      "inputs": [],
      "name": "games",
      "outputs": [
        {
          "internalType": "contract GamesInterface",
          "name": "",
          "type": "address"
        }
      ],
      "stateMutability": "view",
      "type": "function"
    },
    {
      "inputs": [],
      "name": "items",
      "outputs": [
        {
          "internalType": "contract ItemsInterface",
          "name": "",
          "type": "address"
        }
      ],
      "stateMutability": "view",
      "type": "function"
    },
    {
      "inputs": [],
      "name": "maps",
      "outputs": [
        {
          "internalType": "contract MapInterface",
          "name": "",
          "type": "address"
        }
      ],
      "stateMutability": "view",
      "type": "function"
    },
    {
      "inputs": [],
      "name": "owner",
      "outputs": [
        {
          "internalType": "address",
          "name": "",
          "type": "address"
        }
      ],
      "stateMutability": "view",
      "type": "function"
    },
    {
      "inputs": [],
      "name": "players",
      "outputs": [
        {
          "internalType": "contract PlayersInterface",
          "name": "",
          "type": "address"
        }
      ],
      "stateMutability": "view",
      "type": "function"
    },
    {
      "inputs": [],
      "name": "renounceOwnership",
      "outputs": [],
      "stateMutability": "nonpayable",
      "type": "function"
    },
    {
      "inputs": [
        {
          "internalType": "address",
          "name": "_charAddress",
          "type": "address"
        },
        {
          "internalType": "address",
          "name": "_utilsAddress",
          "type": "address"
        },
        {
          "internalType": "address",
          "name": "_mapsAddress",
          "type": "address"
        },
        {
          "internalType": "address",
          "name": "_gamesAddress",
          "type": "address"
        },
        {
          "internalType": "address",
          "name": "_itemsAddress",
          "type": "address"
        },
        {
          "internalType": "address",
          "name": "_eventsAddress",
          "type": "address"
        },
        {
          "internalType": "address",
          "name": "_playersAddress",
          "type": "address"
        }
      ],
      "name": "setContractAddresses",
      "outputs": [],
      "stateMutability": "nonpayable",
      "type": "function"
    },
    {
      "inputs": [
        {
          "internalType": "address",
          "name": "newOwner",
          "type": "address"
        }
      ],
      "name": "transferOwnership",
      "outputs": [],
      "stateMutability": "nonpayable",
      "type": "function"
    },
    {
      "inputs": [],
      "name": "utils",
      "outputs": [
        {
          "internalType": "contract UtilsInterface",
          "name": "",
          "type": "address"
        }
      ],
      "stateMutability": "view",
      "type": "function"
    }
  ],
  "transactionHash": "0xd775c5c5fd32c94e5495b1421d4459dbe8da7c203b36527ed75ac82ab599d93a",
  "args": [],
  "numDeployments": 1,
  "solcInputHash": "865e7b561cfc2141bac262bd2c2cc21d",
  "bytecode": "0x608060405234801561001057600080fd5b5061001a3361001f565b61006f565b600080546001600160a01b038381166001600160a01b0319831681178455604051919092169283917f8be0079c531659141344cd1fd0a4f28419497f9722a3daafe3b4186f6b6457e09190a35050565b612c4d806200007f6000396000f3fe6080604052600436106100dd5760003560e01c8063955a015b1161007f578063d72be09d11610059578063d72be09d14610233578063dc0b356414610253578063f069869914610273578063f2fde38b1461028657600080fd5b8063955a015b146101d35780639fca1ee1146101f3578063c06fad061461021357600080fd5b80635a29638d116100bb5780635a29638d14610160578063715018a6146101805780637ddae103146101955780638da5cb5b146101b557600080fd5b806310a2cd0d146100e25780633deaec2b1461011e5780634102b1a71461013e575b600080fd5b3480156100ee57600080fd5b50600154610102906001600160a01b031681565b6040516001600160a01b03909116815260200160405180910390f35b34801561012a57600080fd5b50600354610102906001600160a01b031681565b34801561014a57600080fd5b5061015e610159366004611a4c565b6102a6565b005b34801561016c57600080fd5b50600254610102906001600160a01b031681565b34801561018c57600080fd5b5061015e610329565b3480156101a157600080fd5b50600654610102906001600160a01b031681565b3480156101c157600080fd5b506000546001600160a01b0316610102565b3480156101df57600080fd5b50600454610102906001600160a01b031681565b3480156101ff57600080fd5b50600854610102906001600160a01b031681565b34801561021f57600080fd5b50600554610102906001600160a01b031681565b34801561023f57600080fd5b5061015e61024e366004611a83565b61033d565b34801561025f57600080fd5b50600754610102906001600160a01b031681565b61015e610281366004611b19565b6103c3565b34801561029257600080fd5b5061015e6102a1366004611b7d565b611929565b6102ae6119a2565b60048054604080518082018252600080825260208201529051631751422560e01b81526001600160a01b03909216926317514225926102f39287929091879101611ba1565b600060405180830381600087803b15801561030d57600080fd5b505af1158015610321573d6000803e3d6000fd5b505050505050565b6103316119a2565b61033b60006119fc565b565b6103456119a2565b600180546001600160a01b03199081166001600160a01b03998a1617909155600280548216978916979097179096556003805487169588169590951790945560048054861693871693909317909255600580548516918616919091179055600680548416918516919091179055600780549092169216919091179055565b6007546040516310f67fb360e01b8152600481018790526000916001600160a01b0316906310f67fb390602401600060405180830381865afa15801561040d573d6000803e3d6000fd5b505050506040513d6000823e601f3d908101601f191682016040526104359190810190611e04565b60048054604051630dfd338360e31b81529182018a90529192506000916001600160a01b031690636fe99c1890602401600060405180830381865afa158015610482573d6000803e3d6000fd5b505050506040513d6000823e601f3d908101601f191682016040526104aa919081019061203e565b6001546040808501519051634810bc5960e01b81529293506000926001600160a01b0390921691634810bc59916104e79160040190815260200190565b6101e060405180830381865afa158015610505573d6000803e3d6000fd5b505050506040513d601f19601f820116820180604052508101906105299190612275565b90508161012001516000146105855760405162461bcd60e51b815260206004820152601860248201527f4d757374207265736f6c7665206576656e74206669727374000000000000000060448201526064015b60405180910390fd5b81516105c55760405162461bcd60e51b815260206004820152600f60248201526e47616d65206e6f742061637469766560881b604482015260640161057c565b82516001600160a01b0316331461061e5760405162461bcd60e51b815260206004820152601760248201527f53656e646572206e6f7420706c61796572206f776e6572000000000000000000604482015260640161057c565b60038360c0015160ff16106106675760405162461bcd60e51b815260206004820152600f60248201526e139bc81858dd1a5bdb9cc81b19599d608a1b604482015260640161057c565b81602001518260400151815181106106815761068161231c565b602002602001015188146106c75760405162461bcd60e51b815260206004820152600d60248201526c2737ba103cb7bab9103a3ab93760991b604482015260640161057c565b60038760068111156106db576106db612332565b1461187c5760028760068111156106f4576106f4612332565b03610d2d5760035460e083015160608501518051602090910151604051630dd43b9b60e31b8152600481019390935260ff9182166024840152166044820152606481018790526000916001600160a01b031690636ea1dcd890608401606060405180830381865afa15801561076d573d6000803e3d6000fd5b505050506040513d601f19601f820116820180604052508101906107919190612348565b90506002816040015160048111156107ab576107ab612332565b14806107cc57506003816040015160048111156107ca576107ca612332565b145b806107dc5750602081015160ff16155b6108345760405162461bcd60e51b815260206004820152602360248201527f31737420446f6f72206e6f74206f70656e2f62726561636865642f756e6c6f636044820152621ad95960ea1b606482015260840161057c565b60018160400151600481111561084c5761084c612332565b036108d05760035460e084015160608601518051602090910151604051635921522360e01b81526001600160a01b039094169363592152239361089d93909290918c906002906000906004016123b9565b600060405180830381600087803b1580156108b757600080fd5b505af11580156108cb573d6000803e3d6000fd5b505050505b6002546060850151604051634a8fe1ff60e11b81526000926001600160a01b03169163951fc3fe91610906918b916004016123fc565b6040805180830381865afa158015610922573d6000803e3d6000fd5b505050506040513d601f19601f820116820180604052508101906109469190612420565b9050600188600181111561095c5761095c612332565b03610caf57600254604051634a8fe1ff60e11b81526000916001600160a01b03169063951fc3fe90610994908a9086906004016123fc565b6040805180830381865afa1580156109b0573d6000803e3d6000fd5b505050506040513d601f19601f820116820180604052508101906109d49190612420565b60035460e087015184516020860151604051630dd43b9b60e31b8152600481019390935260ff9182166024840152166044820152606481018a90529192506000916001600160a01b0390911690636ea1dcd890608401606060405180830381865afa158015610a47573d6000803e3d6000fd5b505050506040513d601f19601f82011682018060405250810190610a6b9190612348565b9050600281604001516004811115610a8557610a85612332565b1480610aa65750600381604001516004811115610aa457610aa4612332565b145b80610ab65750602081015160ff16155b610b0e5760405162461bcd60e51b815260206004820152602360248201527f326e6420446f6f72206e6f74206f70656e2f62726561636865642f756e6c6f636044820152621ad95960ea1b606482015260840161057c565b60035460e0870151604051630f78220b60e11b815260048101919091526000916001600160a01b031690631ef0441690602401600060405180830381865afa158015610b5e573d6000803e3d6000fd5b505050506040513d6000823e601f3d908101601f19168201604052610b869190810190612503565b9050600281856000015160ff1681518110610ba357610ba361231c565b6020026020010151856020015160ff1681518110610bc357610bc361231c565b60200260200101516000015160ff1611610c135760405162461bcd60e51b8152602060048201526011602482015270149bdbdb481b9bdd08195e1c1b1bdc9959607a1b604482015260640161057c565b600182604001516004811115610c2b57610c2b612332565b03610ca95760035460e088015185516020870151604051635921522360e01b81526001600160a01b0390941693635921522393610c7693909290918f906002906000906004016123b9565b600060405180830381600087803b158015610c9057600080fd5b505af1158015610ca4573d6000803e3d6000fd5b505050505b50909150505b600460009054906101000a90046001600160a01b03166001600160a01b031663175142258c838d6040518463ffffffff1660e01b8152600401610cf493929190611ba1565b600060405180830381600087803b158015610d0e57600080fd5b505af1158015610d22573d6000803e3d6000fd5b50505050505061187c565b6000876006811115610d4157610d41612332565b0361106b5760035460e083015160608501518051602090910151604051630dd43b9b60e31b8152600481019390935260ff9182166024840152166044820152606481018790526000916001600160a01b031690636ea1dcd890608401606060405180830381865afa158015610dba573d6000803e3d6000fd5b505050506040513d601f19601f82011682018060405250810190610dde9190612348565b9050600181604001516004811115610df857610df8612332565b14610e375760405162461bcd60e51b815260206004820152600f60248201526e111bdbdc881b9bdd0818db1bdcd959608a1b604482015260640161057c565b60025460608381015101516020830151604051635dc9696760e01b8152600481018e905260ff9283166024820152911660448201526001600160a01b0390911690635dc96967906064016020604051808303816000875af1158015610ea0573d6000803e3d6000fd5b505050506040513d601f19601f82011682018060405250810190610ec49190612612565b156110655760035460e084015160608601518051602090910151604051635921522360e01b81526001600160a01b0390941693635921522393610f1593909290918c906002906000906004016123b9565b600060405180830381600087803b158015610f2f57600080fd5b505af1158015610f43573d6000803e3d6000fd5b5060019250610f50915050565b876001811115610f6257610f62612332565b0361106557600460009054906101000a90046001600160a01b03166001600160a01b031663175142258b600260009054906101000a90046001600160a01b03166001600160a01b031663951fc3fe8a89606001516040518363ffffffff1660e01b8152600401610fd39291906123fc565b6040805180830381865afa158015610fef573d6000803e3d6000fd5b505050506040513d601f19601f820116820180604052508101906110139190612420565b8c6040518463ffffffff1660e01b815260040161103293929190611ba1565b600060405180830381600087803b15801561104c57600080fd5b505af1158015611060573d6000803e3d6000fd5b505050505b5061187c565b600187600681111561107f5761107f612332565b0361124e5760035460e083015160608501518051602090910151604051630dd43b9b60e31b8152600481019390935260ff9182166024840152166044820152606481018790526000916001600160a01b031690636ea1dcd890608401606060405180830381865afa1580156110f8573d6000803e3d6000fd5b505050506040513d601f19601f8201168201806040525081019061111c9190612348565b905060018160400151600481111561113657611136612332565b146111755760405162461bcd60e51b815260206004820152600f60248201526e111bdbdc881b9bdd0818db1bdcd959608a1b604482015260640161057c565b6002546060830151608001518251604051635dc9696760e01b8152600481018e905260ff9283166024820152911660448201526001600160a01b0390911690635dc96967906064016020604051808303816000875af11580156111dc573d6000803e3d6000fd5b505050506040513d601f19601f820116820180604052508101906112009190612612565b15611065576003805460e085015160608701518051602090910151604051635921522360e01b81526001600160a01b0390941694635921522394610f15949392918d916000906004016123b9565b600487600681111561126257611262612332565b036116285760035460e08301516060850151805160209091015160405163f9dfbfcb60e01b8152600481019390935260ff91821660248401521660448201526000916001600160a01b03169063f9dfbfcb9060640161014060405180830381865afa1580156112d5573d6000803e3d6000fd5b505050506040513d601f19601f820116820180604052508101906112f9919061262d565b6080810151909150156113445760405162461bcd60e51b8152602060048201526013602482015272149bdbdb48185b1c9958591e481b1bdbdd1959606a1b604482015260640161057c565b60035460e08401516060860151805160209091015160405162a1871b60e21b8152600481019390935260ff91821660248401521660448201526000916001600160a01b0316906302861c6c9060640160a060405180830381865afa1580156113b0573d6000803e3d6000fd5b505050506040513d601f19601f820116820180604052508101906113d4919061264a565b90506000816060015160ff1611806113f357506000816040015160ff16115b6114375760405162461bcd60e51b815260206004820152601560248201527443616e2774206c6f6f7420656d70747920726f6f6d60581b604482015260640161057c565b64174876e800816040015160ff1661144f91906126e6565b341461149d5760405162461bcd60e51b815260206004820152601860248201527f57726f6e67207061796d656e7420696e20616374696f6e730000000000000000604482015260640161057c565b60035460e08501516060870151805160209091015160405163086e529d60e41b8152600481019390935260ff91821660248401521660448201526001600160a01b03909116906386e529d090606401600060405180830381600087803b15801561150657600080fd5b505af115801561151a573d6000803e3d6000fd5b50506007546060840151604051632da41c6560e21b8152600481018f905260ff90911660248201526001600160a01b03909116925063b69071949150604401600060405180830381600087803b15801561157357600080fd5b505af1158015611587573d6000803e3d6000fd5b5050505060005b816040015160ff16811015611620576005546004805460405163aa3eb1b560e01b81529182018e90526001600160a01b0390811660248301529091169063aa3eb1b59064174876e800906044016000604051808303818588803b1580156115f457600080fd5b505af1158015611608573d6000803e3d6000fd5b5050505050808061161890612703565b91505061158e565b50505061187c565b600587600681111561163c5761163c612332565b036118345760035460e08301516060850151805160209091015160405162a1871b60e21b8152600481019390935260ff91821660248401521660448201526000916001600160a01b0316906302861c6c9060640160a060405180830381865afa1580156116ad573d6000803e3d6000fd5b505050506040513d601f19601f820116820180604052508101906116d1919061264a565b600654602082015160405163c82c37b960e01b81529293506000926001600160a01b039092169163c82c37b99161170e9160040190815260200190565b600060405180830381865afa15801561172b573d6000803e3d6000fd5b505050506040513d6000823e601f3d908101601f1916820160405261175391908101906127a9565b90508060200151151560011515146117a35760405162461bcd60e51b8152602060048201526013602482015272115d995b9d081b9bdd081c195c9b585b995b9d606a1b604482015260640161057c565b600760009054906101000a90046001600160a01b03166001600160a01b031663ed8619618b8d8760e001518960600151876020015160006040518763ffffffff1660e01b8152600401610cf4969594939291909586526020808701959095526040860193909352815160ff9081166060870152919093015116608084015260a083019190915260c082015260e00190565b60405162461bcd60e51b815260206004820152601860248201527f4552524f523a2042616420616374696f6e20636f6e6669670000000000000000604482015260640161057c565b6004805460405163307f421760e11b81529182018b9052602482018a90526001600160a01b0316906360fe842e90604401600060405180830381600087803b1580156118c757600080fd5b505af11580156118db573d6000803e3d6000fd5b505050507fe169d63c851dc623cb2111fa5670220e3f30c1566c0d0ca462a84e5ee64a6b2d89838a868b604051611916959493929190612a4b565b60405180910390a1505050505050505050565b6119316119a2565b6001600160a01b0381166119965760405162461bcd60e51b815260206004820152602660248201527f4f776e61626c653a206e6577206f776e657220697320746865207a65726f206160448201526564647265737360d01b606482015260840161057c565b61199f816119fc565b50565b6000546001600160a01b0316331461033b5760405162461bcd60e51b815260206004820181905260248201527f4f776e61626c653a2063616c6c6572206973206e6f7420746865206f776e6572604482015260640161057c565b600080546001600160a01b038381166001600160a01b0319831681178455604051919092169283917f8be0079c531659141344cd1fd0a4f28419497f9722a3daafe3b4186f6b6457e09190a35050565b60008060408385031215611a5f57600080fd5b50508035926020909101359150565b6001600160a01b038116811461199f57600080fd5b600080600080600080600060e0888a031215611a9e57600080fd5b8735611aa981611a6e565b96506020880135611ab981611a6e565b95506040880135611ac981611a6e565b94506060880135611ad981611a6e565b93506080880135611ae981611a6e565b925060a0880135611af981611a6e565b915060c0880135611b0981611a6e565b8091505092959891949750929550565b60008060008060008060c08789031215611b3257600080fd5b8635955060208701359450604087013560078110611b4f57600080fd5b9350606087013560028110611b6357600080fd5b9598949750929560808101359460a0909101359350915050565b600060208284031215611b8f57600080fd5b8135611b9a81611a6e565b9392505050565b83815260808101611bc56020830185805160ff908116835260209182015116910152565b826060830152949350505050565b634e487b7160e01b600052604160045260246000fd5b604080519081016001600160401b0381118282101715611c0b57611c0b611bd3565b60405290565b6040516101a081016001600160401b0381118282101715611c0b57611c0b611bd3565b60405161020081016001600160401b0381118282101715611c0b57611c0b611bd3565b60405160e081016001600160401b0381118282101715611c0b57611c0b611bd3565b60405161012081016001600160401b0381118282101715611c0b57611c0b611bd3565b604051608081016001600160401b0381118282101715611c0b57611c0b611bd3565b604051601f8201601f191681016001600160401b0381118282101715611ce657611ce6611bd3565b604052919050565b8051611cf981611a6e565b919050565b805160ff81168114611cf957600080fd5b600060408284031215611d2157600080fd5b611d29611be9565b9050611d3482611cfe565b8152611d4260208301611cfe565b602082015292915050565b8051600081900b8114611cf957600080fd5b60006001600160401b03821115611d7857611d78611bd3565b5060051b60200190565b600082601f830112611d9357600080fd5b81516020611da8611da383611d5f565b611cbe565b82815260059290921b84018101918181019086841115611dc757600080fd5b8286015b84811015611de957611ddc81611cfe565b8352918301918301611dcb565b509695505050505050565b80518015158114611cf957600080fd5b600060208284031215611e1657600080fd5b81516001600160401b0380821115611e2d57600080fd5b908301906101c08286031215611e4257600080fd5b611e4a611c11565b611e5383611cee565b8152611e6160208401611cee565b602082015260408301516040820152611e7d8660608501611d0f565b6060820152611e8e60a08401611d4d565b6080820152611e9f60c08401611cfe565b60a0820152611eb060e08401611cfe565b60c0820152610100611ec3818501611cfe565b60e08301526101208085015184811115611edc57600080fd5b611ee889828801611d82565b838501525061014091508185015184811115611f0357600080fd5b611f0f89828801611d82565b8285015250506101609250611f25838501611df4565b90820152610180611f37848201611df4565b83830152611f486101a08501611df4565b9082015295945050505050565b600082601f830112611f6657600080fd5b81516020611f76611da383611d5f565b82815260059290921b84018101918181019086841115611f9557600080fd5b8286015b84811015611de95780518352918301918301611f99565b600060808284031215611fc257600080fd5b604051608081018181106001600160401b0382111715611fe457611fe4611bd3565b604052905080611ff383611cfe565b815261200160208401611cfe565b602082015261201260408401611cfe565b604082015261202360608401611cfe565b60608201525092915050565b805160068110611cf957600080fd5b60006020828403121561205057600080fd5b81516001600160401b038082111561206757600080fd5b90830190610280828603121561207c57600080fd5b612084611c34565b61208d83611df4565b81526020830151828111156120a157600080fd5b6120ad87828601611f55565b6020830152506040830151604082015260608301516060820152608083015160808201526120de8660a08501611fb0565b60a08201526101206120f1818501611cee565b60c08301526101408085015160e08401526101608086015161010085015261018080870151848601526101a0935061212a84880161202f565b838601526101c0925061213f8a848901611d0f565b8286015261020087015191508582111561215857600080fd5b6121648a838901611f55565b90850152506102208501518481111561217c57600080fd5b61218889828801611f55565b83850152506102408501519150838211156121a257600080fd5b6121ae88838701611f55565b9083015250610260830151828111156121c657600080fd5b6121d287828601611f55565b6101e08301525095945050505050565b600060e082840312156121f457600080fd5b6121fc611c57565b905061220782611d4d565b815261221560208301611d4d565b602082015261222660408301611d4d565b604082015261223760608301611d4d565b606082015261224860808301611d4d565b608082015261225960a08301611d4d565b60a082015261226a60c08301611d4d565b60c082015292915050565b60006101e0828403121561228857600080fd5b612290611c79565b8251815260208301516020820152604083015160408201526122b584606085016121e2565b60608201526122c76101408401611cfe565b60808201526122d96101608401611cfe565b60a08201526122eb6101808401611cfe565b60c08201526122fd6101a08401611cfe565b60e082015261230f6101c08401611df4565b6101008201529392505050565b634e487b7160e01b600052603260045260246000fd5b634e487b7160e01b600052602160045260246000fd5b60006060828403121561235a57600080fd5b604051606081018181106001600160401b038211171561237c5761237c611bd3565b60405261238883611cfe565b815261239660208401611cfe565b60208201526040830151600581106123ad57600080fd5b60408201529392505050565b86815260ff8681166020830152851660408201526060810184905260c08101600584106123e8576123e8612332565b608082019390935260a00152949350505050565b82815260608101611b9a6020830184805160ff908116835260209182015116910152565b60006040828403121561243257600080fd5b611b9a8383611d0f565b6000610140828403121561244f57600080fd5b612457611c57565b905061246282611cfe565b81526020612471818401611cfe565b8183015283605f84011261248457600080fd5b61248c611c9c565b8060c085018681111561249e57600080fd5b604086015b818110156124ba57805184529284019284016124a3565b508160408601526124ca81611df4565b6060860152505050506124df60e08301611df4565b60808201526124f16101008301611df4565b60a082015261226a6101208301611df4565b6000602080838503121561251657600080fd5b82516001600160401b038082111561252d57600080fd5b818501915085601f83011261254157600080fd5b815161254f611da382611d5f565b81815260059190911b8301840190848101908883111561256e57600080fd5b8585015b838110156126055780518581111561258957600080fd5b8601603f81018b1361259a57600080fd5b878101516125aa611da382611d5f565b8181526101409182028301604001918a820191908e8411156125cc5760008081fd5b6040850194505b838510156125f4576125e58f8661243c565b835293840193918b01916125d3565b508652505050918601918601612572565b5098975050505050505050565b60006020828403121561262457600080fd5b611b9a82611df4565b6000610140828403121561264057600080fd5b611b9a838361243c565b600060a0828403121561265c57600080fd5b60405160a081018181106001600160401b038211171561267e5761267e611bd3565b60405261268a8361202f565b8152602083015160208201526126a260408401611cfe565b60408201526126b360608401611cfe565b60608201526126c460808401611df4565b60808201529392505050565b634e487b7160e01b600052601160045260246000fd5b80820281158282048414176126fd576126fd6126d0565b92915050565b600060018201612715576127156126d0565b5060010190565b600082601f83011261272d57600080fd5b8151602061273d611da383611d5f565b82815260069290921b8401810191818101908684111561275c57600080fd5b8286015b84811015611de957604081890312156127795760008081fd5b612781611be9565b8151601781106127915760008081fd5b81528185015185820152835291830191604001612760565b6000602082840312156127bb57600080fd5b81516001600160401b03808211156127d257600080fd5b9083019060e082860312156127e657600080fd5b6127ee611c57565b825181526127fe60208401611df4565b602082015261280f60408401611cfe565b604082015261282060608401611cfe565b606082015260808301518281111561283757600080fd5b6128438782860161271c565b60808301525060a08301518281111561285b57600080fd5b6128678782860161271c565b60a08301525060c08301518281111561287f57600080fd5b61288b8782860161271c565b60c08301525095945050505050565b600081518084526020808501945080840160005b838110156128ca578151875295820195908201906001016128ae565b509495945050505050565b600681106128e5576128e5612332565b9052565b600081518084526020808501945080840160005b838110156128ca57815160ff16875295820195908201906001016128fd565b80516001600160a01b0316825260006101c0602083015161294860208601826001600160a01b03169052565b506040830151604085015260608301516129756060860182805160ff908116835260209182015116910152565b50608083015161298a60a086018260000b9052565b5060a083015160ff811660c08601525060c083015160ff811660e08601525060e08301516101006129bf8187018360ff169052565b8085015191505061012082818701526129da838701836128e9565b925080850151915050610140858303818701526129f783836128e9565b925080850151915050610160612a108187018315159052565b8401519050610180612a258682018315159052565b8401518015156101a08701529050509392505050565b600781106128e5576128e5612332565b85815260a06020820152612a6460a08201865115159052565b6000602086015161028060c0840152612a8161032084018261289a565b9050604087015160e08401526060870151610100818186015260808901519150610120828187015260a08a01519250610140612aec8188018560ff815116825260ff602082015116602083015260ff604082015116604083015260ff60608201511660608301525050565b60c08b015193506101c0612b0a818901866001600160a01b03169052565b60e08c015194506101e085818a0152848d01516102008a0152838d01516102208a0152828d01519550612b416102408a01876128d5565b6101608d0151805160ff9081166102608c01526020820151166102808b015295506101808d01519550609f19945084898803016102a08a0152612b84878761289a565b96506101a08d0151955084898803016102c08a0152612ba3878761289a565b9650818d0151955084898803016102e08a0152612bc0878761289a565b9650808d0151955050505050808584030161030086015250612be2828261289a565b9150508560408401528281036060840152612bfd818661291c565b915050612c0d6080830184612a3b565b969550505050505056fea26469706673582212203af5f76fbf928d090d5b93ed33acf015bc4a9476a9b30dd6a66d11175541467b64736f6c63430008110033",
  "devdoc": {
    "kind": "dev",
    "methods": {
      "owner()": {
        "details": "Returns the address of the current owner."
      },
      "renounceOwnership()": {
        "details": "Leaves the contract without owner. It will not be possible to call `onlyOwner` functions anymore. Can only be called by the current owner. NOTE: Renouncing ownership will leave the contract without an owner, thereby removing any functionality that is only available to the owner."
      },
      "transferOwnership(address)": {
        "details": "Transfers ownership of the contract to a new account (`newOwner`). Can only be called by the current owner."
      }
    },
    "version": 1
  },
  "userdoc": {
    "kind": "user",
    "methods": {},
    "version": 1
  },
  "storageLayout": {
    "storage": [
      {
        "astId": 7,
        "contract": "contracts/Actions.sol:Actions",
        "label": "_owner",
        "offset": 0,
        "slot": "0",
        "type": "t_address"
      },
      {
        "astId": 2064,
        "contract": "contracts/Actions.sol:Actions",
        "label": "chars",
        "offset": 0,
        "slot": "1",
        "type": "t_contract(CharInterface)1845"
      },
      {
        "astId": 2067,
        "contract": "contracts/Actions.sol:Actions",
        "label": "utils",
        "offset": 0,
        "slot": "2",
        "type": "t_contract(UtilsInterface)1868"
      },
      {
        "astId": 2070,
        "contract": "contracts/Actions.sol:Actions",
        "label": "maps",
        "offset": 0,
        "slot": "3",
        "type": "t_contract(MapInterface)1952"
      },
      {
        "astId": 2073,
        "contract": "contracts/Actions.sol:Actions",
        "label": "games",
        "offset": 0,
        "slot": "4",
        "type": "t_contract(GamesInterface)1978"
      },
      {
        "astId": 2076,
        "contract": "contracts/Actions.sol:Actions",
        "label": "items",
        "offset": 0,
        "slot": "5",
        "type": "t_contract(ItemsInterface)1986"
      },
      {
        "astId": 2079,
        "contract": "contracts/Actions.sol:Actions",
        "label": "bcEvents",
        "offset": 0,
        "slot": "6",
        "type": "t_contract(EventsInterface)2027"
      },
      {
        "astId": 2082,
        "contract": "contracts/Actions.sol:Actions",
        "label": "players",
        "offset": 0,
        "slot": "7",
        "type": "t_contract(PlayersInterface)2059"
      },
      {
        "astId": 2084,
        "contract": "contracts/Actions.sol:Actions",
        "label": "charsAddress",
        "offset": 0,
        "slot": "8",
        "type": "t_address"
      }
    ],
    "types": {
      "t_address": {
        "encoding": "inplace",
        "label": "address",
        "numberOfBytes": "20"
      },
      "t_contract(CharInterface)1845": {
        "encoding": "inplace",
        "label": "contract CharInterface",
        "numberOfBytes": "20"
      },
      "t_contract(EventsInterface)2027": {
        "encoding": "inplace",
        "label": "contract EventsInterface",
        "numberOfBytes": "20"
      },
      "t_contract(GamesInterface)1978": {
        "encoding": "inplace",
        "label": "contract GamesInterface",
        "numberOfBytes": "20"
      },
      "t_contract(ItemsInterface)1986": {
        "encoding": "inplace",
        "label": "contract ItemsInterface",
        "numberOfBytes": "20"
      },
      "t_contract(MapInterface)1952": {
        "encoding": "inplace",
        "label": "contract MapInterface",
        "numberOfBytes": "20"
      },
      "t_contract(PlayersInterface)2059": {
        "encoding": "inplace",
        "label": "contract PlayersInterface",
        "numberOfBytes": "20"
      },
      "t_contract(UtilsInterface)1868": {
        "encoding": "inplace",
        "label": "contract UtilsInterface",
        "numberOfBytes": "20"
      }
    }
  }
}