{
  "address": "0x4AF71e7bA342D60f8b100877e1A5a5FC07AD5D27",
  "abi": [
    {
      "anonymous": false,
      "inputs": [
        {
          "indexed": false,
          "internalType": "uint256",
          "name": "gameId",
          "type": "uint256"
        },
        {
          "components": [
            {
              "internalType": "bool",
              "name": "active",
              "type": "bool"
            },
            {
              "internalType": "uint256[]",
              "name": "playerIndexes",
              "type": "uint256[]"
            },
            {
              "internalType": "uint256",
              "name": "currentPlayerTurnIndex",
              "type": "uint256"
            },
            {
              "internalType": "uint256",
              "name": "numPlayers",
              "type": "uint256"
            },
            {
              "internalType": "uint256",
              "name": "turnsTaken",
              "type": "uint256"
            },
            {
              "components": [
                {
                  "internalType": "uint8",
                  "name": "bugEvents",
                  "type": "uint8"
                },
                {
                  "internalType": "uint8",
                  "name": "mysteryEvents",
                  "type": "uint8"
                },
                {
                  "internalType": "uint8",
                  "name": "scavEvents",
                  "type": "uint8"
                },
                {
                  "internalType": "uint8",
                  "name": "shipEvents",
                  "type": "uint8"
                }
              ],
              "internalType": "struct BCTypes.EventTracker",
              "name": "eventTracker",
              "type": "tuple"
            },
            {
              "internalType": "uint256",
              "name": "mapId",
              "type": "uint256"
            },
            {
              "internalType": "uint256",
              "name": "eventPlayerId",
              "type": "uint256"
            },
            {
              "internalType": "uint256",
              "name": "eventNumber",
              "type": "uint256"
            },
            {
              "internalType": "enum BCTypes.BCEventType",
              "name": "eventType",
              "type": "uint8"
            },
            {
              "components": [
                {
                  "internalType": "uint8",
                  "name": "row",
                  "type": "uint8"
                },
                {
                  "internalType": "uint8",
                  "name": "col",
                  "type": "uint8"
                }
              ],
              "internalType": "struct BCTypes.Position",
              "name": "eventPosition",
              "type": "tuple"
            },
            {
              "internalType": "uint256[]",
              "name": "unusedBugEvents",
              "type": "uint256[]"
            },
            {
              "internalType": "uint256[]",
              "name": "unusedMysteryEvents",
              "type": "uint256[]"
            },
            {
              "internalType": "uint256[]",
              "name": "unusedScavEvents",
              "type": "uint256[]"
            },
            {
              "internalType": "uint256[]",
              "name": "unusedShipEvents",
              "type": "uint256[]"
            },
            {
              "internalType": "uint256",
              "name": "turnTimeLimit",
              "type": "uint256"
            },
            {
              "internalType": "uint256",
              "name": "lastTurnTimestamp",
              "type": "uint256"
            },
            {
              "internalType": "uint256",
              "name": "DEBUG_returnAmount",
              "type": "uint256"
            }
          ],
          "indexed": false,
          "internalType": "struct BCTypes.Game",
          "name": "game",
          "type": "tuple"
        },
        {
          "indexed": false,
          "internalType": "uint256",
          "name": "playerId",
          "type": "uint256"
        },
        {
          "components": [
            {
              "internalType": "address",
              "name": "owner",
              "type": "address"
            },
            {
              "internalType": "uint256",
              "name": "characterId",
              "type": "uint256"
            },
            {
              "components": [
                {
                  "internalType": "int8",
                  "name": "health",
                  "type": "int8"
                },
                {
                  "internalType": "int8",
                  "name": "carry",
                  "type": "int8"
                },
                {
                  "internalType": "int8",
                  "name": "defense",
                  "type": "int8"
                },
                {
                  "internalType": "int8",
                  "name": "hack",
                  "type": "int8"
                },
                {
                  "internalType": "int8",
                  "name": "breach",
                  "type": "int8"
                },
                {
                  "internalType": "int8",
                  "name": "shoot",
                  "type": "int8"
                },
                {
                  "internalType": "int8",
                  "name": "melee",
                  "type": "int8"
                }
              ],
              "internalType": "struct BCTypes.Traits",
              "name": "currentTraits",
              "type": "tuple"
            },
            {
              "components": [
                {
                  "internalType": "uint8",
                  "name": "row",
                  "type": "uint8"
                },
                {
                  "internalType": "uint8",
                  "name": "col",
                  "type": "uint8"
                }
              ],
              "internalType": "struct BCTypes.Position",
              "name": "position",
              "type": "tuple"
            },
            {
              "internalType": "int8",
              "name": "healthDmgTaken",
              "type": "int8"
            },
            {
              "internalType": "uint8",
              "name": "armorDmgTaken",
              "type": "uint8"
            },
            {
              "internalType": "uint8",
              "name": "actionsTaken",
              "type": "uint8"
            },
            {
              "internalType": "uint8",
              "name": "dataTokens",
              "type": "uint8"
            },
            {
              "internalType": "uint8[]",
              "name": "currentEffects",
              "type": "uint8[]"
            },
            {
              "internalType": "uint8",
              "name": "numItemsHeld",
              "type": "uint8"
            },
            {
              "internalType": "bool",
              "name": "canHarmOthers",
              "type": "bool"
            },
            {
              "internalType": "bool",
              "name": "dead",
              "type": "bool"
            },
            {
              "internalType": "bool",
              "name": "hasEgg",
              "type": "bool"
            },
            {
              "internalType": "uint256",
              "name": "gameId",
              "type": "uint256"
            }
          ],
          "indexed": false,
          "internalType": "struct BCTypes.Player",
          "name": "player",
          "type": "tuple"
        },
        {
          "indexed": false,
          "internalType": "enum BCTypes.Action",
          "name": "action",
          "type": "uint8"
        }
      ],
      "name": "ActionCompleteEvent",
      "type": "event"
    },
    {
      "anonymous": false,
      "inputs": [
        {
          "indexed": false,
          "internalType": "uint256",
          "name": "gameId",
          "type": "uint256"
        },
        {
          "indexed": false,
          "internalType": "uint256",
          "name": "roll",
          "type": "uint256"
        },
        {
          "indexed": false,
          "internalType": "uint256",
          "name": "forValue",
          "type": "uint256"
        },
        {
          "indexed": false,
          "internalType": "uint256",
          "name": "against",
          "type": "uint256"
        }
      ],
      "name": "ChallengeEvent",
      "type": "event"
    },
    {
      "anonymous": false,
      "inputs": [
        {
          "indexed": false,
          "internalType": "uint256",
          "name": "gameId",
          "type": "uint256"
        },
        {
          "indexed": false,
          "internalType": "uint256",
          "name": "roll",
          "type": "uint256"
        }
      ],
      "name": "DiceRollEvent",
      "type": "event"
    },
    {
      "anonymous": false,
      "inputs": [
        {
          "indexed": true,
          "internalType": "address",
          "name": "previousOwner",
          "type": "address"
        },
        {
          "indexed": true,
          "internalType": "address",
          "name": "newOwner",
          "type": "address"
        }
      ],
      "name": "OwnershipTransferred",
      "type": "event"
    },
    {
      "inputs": [
        {
          "internalType": "int256",
          "name": "x",
          "type": "int256"
        }
      ],
      "name": "abs",
      "outputs": [
        {
          "internalType": "int256",
          "name": "",
          "type": "int256"
        }
      ],
      "stateMutability": "pure",
      "type": "function"
    },
    {
      "inputs": [],
      "name": "bcEvents",
      "outputs": [
        {
          "internalType": "contract EventsInterface",
          "name": "",
          "type": "address"
        }
      ],
      "stateMutability": "view",
      "type": "function"
    },
    {
      "inputs": [],
      "name": "chars",
      "outputs": [
        {
          "internalType": "contract CharInterface",
          "name": "",
          "type": "address"
        }
      ],
      "stateMutability": "view",
      "type": "function"
    },
    {
      "inputs": [],
      "name": "charsAddress",
      "outputs": [
        {
          "internalType": "address",
          "name": "",
          "type": "address"
        }
      ],
      "stateMutability": "view",
      "type": "function"
    },
    {
      "inputs": [
        {
          "internalType": "uint256",
          "name": "_gameId",
          "type": "uint256"
        },
        {
          "internalType": "uint256",
          "name": "_playerId",
          "type": "uint256"
        }
      ],
      "name": "debugMovePlayerForTesting",
      "outputs": [],
      "stateMutability": "nonpayable",
      "type": "function"
    },
    {
      "inputs": [
        {
          "internalType": "uint256",
          "name": "_gameId",
          "type": "uint256"
        },
        {
          "internalType": "uint256",
          "name": "_playerId",
          "type": "uint256"
        },
        {
          "internalType": "uint256",
          "name": "_row",
          "type": "uint256"
        },
        {
          "internalType": "uint256",
          "name": "_col",
          "type": "uint256"
        }
      ],
      "name": "debugMovePlayerToRoom",
      "outputs": [],
      "stateMutability": "nonpayable",
      "type": "function"
    },
    {
      "inputs": [
        {
          "internalType": "uint256",
          "name": "_gameId",
          "type": "uint256"
        },
        {
          "internalType": "uint256",
          "name": "_playerId",
          "type": "uint256"
        },
        {
          "internalType": "enum BCTypes.Action",
          "name": "_action",
          "type": "uint8"
        },
        {
          "internalType": "enum BCTypes.Followthrough",
          "name": "_followthrough",
          "type": "uint8"
        },
        {
          "internalType": "uint256",
          "name": "_1stDirection",
          "type": "uint256"
        },
        {
          "internalType": "uint256",
          "name": "_2ndDirection",
          "type": "uint256"
        },
        {
          "internalType": "uint256[]",
          "name": "_ids",
          "type": "uint256[]"
        }
      ],
      "name": "doAction",
      "outputs": [],
      "stateMutability": "payable",
      "type": "function"
    },
    {
      "inputs": [],
      "name": "games",
      "outputs": [
        {
          "internalType": "contract GamesInterface",
          "name": "",
          "type": "address"
        }
      ],
      "stateMutability": "view",
      "type": "function"
    },
    {
      "inputs": [
        {
          "components": [
            {
              "internalType": "uint8",
              "name": "row",
              "type": "uint8"
            },
            {
              "internalType": "uint8",
              "name": "col",
              "type": "uint8"
            }
          ],
          "internalType": "struct BCTypes.Position",
          "name": "_firstRoom",
          "type": "tuple"
        },
        {
          "components": [
            {
              "internalType": "uint8",
              "name": "row",
              "type": "uint8"
            },
            {
              "internalType": "uint8",
              "name": "col",
              "type": "uint8"
            }
          ],
          "internalType": "struct BCTypes.Position",
          "name": "_secondRoom",
          "type": "tuple"
        }
      ],
      "name": "getDirectionBetween",
      "outputs": [
        {
          "internalType": "uint256",
          "name": "",
          "type": "uint256"
        }
      ],
      "stateMutability": "pure",
      "type": "function"
    },
    {
      "inputs": [
        {
          "internalType": "uint256",
          "name": "_direction",
          "type": "uint256"
        },
        {
          "components": [
            {
              "internalType": "uint8",
              "name": "row",
              "type": "uint8"
            },
            {
              "internalType": "uint8",
              "name": "col",
              "type": "uint8"
            }
          ],
          "internalType": "struct BCTypes.Position",
          "name": "_start",
          "type": "tuple"
        }
      ],
      "name": "getNeighborRoom",
      "outputs": [
        {
          "components": [
            {
              "internalType": "uint8",
              "name": "row",
              "type": "uint8"
            },
            {
              "internalType": "uint8",
              "name": "col",
              "type": "uint8"
            }
          ],
          "internalType": "struct BCTypes.Position",
          "name": "",
          "type": "tuple"
        }
      ],
      "stateMutability": "pure",
      "type": "function"
    },
    {
      "inputs": [
        {
          "internalType": "uint256",
          "name": "_traitNum",
          "type": "uint256"
        },
        {
          "internalType": "uint256",
          "name": "_subTraitNum",
          "type": "uint256"
        }
      ],
      "name": "getUIOffset",
      "outputs": [
        {
          "internalType": "uint256",
          "name": "",
          "type": "uint256"
        }
      ],
      "stateMutability": "pure",
      "type": "function"
    },
    {
      "inputs": [],
      "name": "items",
      "outputs": [
        {
          "internalType": "contract ItemsInterface",
          "name": "",
          "type": "address"
        }
      ],
      "stateMutability": "view",
      "type": "function"
    },
    {
      "inputs": [],
      "name": "maps",
      "outputs": [
        {
          "internalType": "contract MapInterface",
          "name": "",
          "type": "address"
        }
      ],
      "stateMutability": "view",
      "type": "function"
    },
    {
      "inputs": [
        {
          "internalType": "uint256",
          "name": "_min",
          "type": "uint256"
        },
        {
          "internalType": "uint256",
          "name": "_max",
          "type": "uint256"
        },
        {
          "internalType": "uint256",
          "name": "_val",
          "type": "uint256"
        },
        {
          "internalType": "uint256",
          "name": "_valMax",
          "type": "uint256"
        }
      ],
      "name": "normalizeToSmallRange",
      "outputs": [
        {
          "internalType": "uint8",
          "name": "",
          "type": "uint8"
        }
      ],
      "stateMutability": "pure",
      "type": "function"
    },
    {
      "inputs": [
        {
          "internalType": "uint256",
          "name": "_direction",
          "type": "uint256"
        }
      ],
      "name": "opposite",
      "outputs": [
        {
          "internalType": "uint256",
          "name": "",
          "type": "uint256"
        }
      ],
      "stateMutability": "pure",
      "type": "function"
    },
    {
      "inputs": [],
      "name": "owner",
      "outputs": [
        {
          "internalType": "address",
          "name": "",
          "type": "address"
        }
      ],
      "stateMutability": "view",
      "type": "function"
    },
    {
      "inputs": [],
      "name": "players",
      "outputs": [
        {
          "internalType": "contract PlayersInterface",
          "name": "",
          "type": "address"
        }
      ],
      "stateMutability": "view",
      "type": "function"
    },
    {
      "inputs": [],
      "name": "randKeccak",
      "outputs": [
        {
          "internalType": "bytes32",
          "name": "",
          "type": "bytes32"
        }
      ],
      "stateMutability": "nonpayable",
      "type": "function"
    },
    {
      "inputs": [],
      "name": "renounceOwnership",
      "outputs": [],
      "stateMutability": "nonpayable",
      "type": "function"
    },
    {
      "inputs": [
        {
          "internalType": "uint256",
          "name": "_gameId",
          "type": "uint256"
        },
        {
          "internalType": "uint256",
          "name": "_for",
          "type": "uint256"
        },
        {
          "internalType": "uint256",
          "name": "_against",
          "type": "uint256"
        }
      ],
      "name": "resolveChallenge",
      "outputs": [
        {
          "internalType": "bool",
          "name": "",
          "type": "bool"
        }
      ],
      "stateMutability": "nonpayable",
      "type": "function"
    },
    {
      "inputs": [
        {
          "internalType": "uint256",
          "name": "_gameId",
          "type": "uint256"
        }
      ],
      "name": "roll",
      "outputs": [
        {
          "internalType": "uint256",
          "name": "",
          "type": "uint256"
        }
      ],
      "stateMutability": "nonpayable",
      "type": "function"
    },
    {
      "inputs": [
        {
          "internalType": "address",
          "name": "_charAddress",
          "type": "address"
        },
        {
          "internalType": "address",
          "name": "_utilsAddress",
          "type": "address"
        },
        {
          "internalType": "address",
          "name": "_mapsAddress",
          "type": "address"
        },
        {
          "internalType": "address",
          "name": "_gamesAddress",
          "type": "address"
        },
        {
          "internalType": "address",
          "name": "_itemsAddress",
          "type": "address"
        },
        {
          "internalType": "address",
          "name": "_eventsAddress",
          "type": "address"
        },
        {
          "internalType": "address",
          "name": "_playersAddress",
          "type": "address"
        }
      ],
      "name": "setContractAddresses",
      "outputs": [],
      "stateMutability": "nonpayable",
      "type": "function"
    },
    {
      "inputs": [
        {
          "internalType": "bytes32",
          "name": "_hash",
          "type": "bytes32"
        },
        {
          "internalType": "uint256",
          "name": "_size",
          "type": "uint256"
        },
        {
          "internalType": "uint256",
          "name": "_offset",
          "type": "uint256"
        }
      ],
      "name": "sliceHashToSmallInt",
      "outputs": [
        {
          "internalType": "uint8",
          "name": "",
          "type": "uint8"
        }
      ],
      "stateMutability": "pure",
      "type": "function"
    },
    {
      "inputs": [
        {
          "internalType": "uint8",
          "name": "_min",
          "type": "uint8"
        },
        {
          "internalType": "uint8",
          "name": "_max",
          "type": "uint8"
        }
      ],
      "name": "smallIntBetweenVals",
      "outputs": [
        {
          "internalType": "uint8",
          "name": "",
          "type": "uint8"
        }
      ],
      "stateMutability": "nonpayable",
      "type": "function"
    },
    {
      "inputs": [
        {
          "internalType": "address",
          "name": "newOwner",
          "type": "address"
        }
      ],
      "name": "transferOwnership",
      "outputs": [],
      "stateMutability": "nonpayable",
      "type": "function"
    }
  ],
  "transactionHash": "0xfd5e052f29fd1a94f7e29a22d8abe4137758b8e5e2f914f668096d10da94ba30",
  "args": [],
  "numDeployments": 1,
  "solcInputHash": "0ecc2b69042fdebab0fae20988ed0489",
  "bytecode": "0x608060405260006001553480156200001657600080fd5b50620000223362000028565b62000078565b600080546001600160a01b038381166001600160a01b0319831681178455604051919092169283917f8be0079c531659141344cd1fd0a4f28419497f9722a3daafe3b4186f6b6457e09190a35050565b6142b180620000886000396000f3fe6080604052600436106101665760003560e01c80638214f222116100d1578063a8ca85bb1161008a578063d72be09d11610064578063d72be09d14610442578063dc0b356414610462578063f2fde38b14610482578063fa3993c2146104a257600080fd5b8063a8ca85bb146103ef578063c06fad0614610402578063ce28613f1461042257600080fd5b80638214f222146103245780638da5cb5b14610344578063951fc3fe14610362578063955a015b1461038f57806397f34c3f146103af5780639fca1ee1146103cf57600080fd5b8063425c38d811610123578063425c38d81461024d578063530116961461026d5780635dc969671461029f57806364db84bf146102cf578063715018a6146102ef5780637ddae1031461030457600080fd5b806310a2cd0d1461016b5780631b5ac4b5146101a85780631e1de205146101d65780631f7b4f30146101eb5780633deaec2b1461020b5780634102b1a71461022b575b600080fd5b34801561017757600080fd5b5060025461018b906001600160a01b031681565b6040516001600160a01b0390911681526020015b60405180910390f35b3480156101b457600080fd5b506101c86101c3366004612a76565b6104c2565b60405190815260200161019f565b3480156101e257600080fd5b506101c86104e2565b3480156101f757600080fd5b506101c8610206366004612a76565b61055a565b34801561021757600080fd5b5060035461018b906001600160a01b031681565b34801561023757600080fd5b5061024b610246366004612a8f565b6105b6565b005b34801561025957600080fd5b5061024b610268366004612ab1565b610639565b34801561027957600080fd5b5061028d610288366004612ab1565b6106c2565b60405160ff909116815260200161019f565b3480156102ab57600080fd5b506102bf6102ba366004612ae3565b6106ff565b604051901515815260200161019f565b3480156102db57600080fd5b506101c86102ea366004612a8f565b61079c565b3480156102fb57600080fd5b5061024b6107b4565b34801561031057600080fd5b5060065461018b906001600160a01b031681565b34801561033057600080fd5b506101c861033f366004612a76565b6107c8565b34801561035057600080fd5b506000546001600160a01b031661018b565b34801561036e57600080fd5b5061038261037d366004612c36565b610847565b60405161019f9190612c63565b34801561039b57600080fd5b5060045461018b906001600160a01b031681565b3480156103bb57600080fd5b5061028d6103ca366004612ae3565b610971565b3480156103db57600080fd5b5060085461018b906001600160a01b031681565b61024b6103fd366004612ca4565b61099c565b34801561040e57600080fd5b5060055461018b906001600160a01b031681565b34801561042e57600080fd5b5061028d61043d366004612d8f565b612540565b34801561044e57600080fd5b5061024b61045d366004612ddd565b6125f0565b34801561046e57600080fd5b5060075461018b906001600160a01b031681565b34801561048e57600080fd5b5061024b61049d366004612e73565b612669565b3480156104ae57600080fd5b506101c86104bd366004612e90565b6126e2565b6000808212156104da576104d582612ed2565b6104dc565b815b92915050565b60018054600091826104f383612eee565b91905055506001546001436105089190612f07565b403360405160200161053f93929190928352602083019190915260601b6bffffffffffffffffffffffff1916604082015260540190565b60405160208183030381529060405280519060200120905090565b60008061056960016006612540565b60ff1690507ffe34d093a460a16ee5fb374540914d1c734a17502c0c1a87b387c8d6097e1c5183826040516105a8929190918252602082015260400190565b60405180910390a192915050565b6105be6127aa565b60048054604080518082018252600080825260208201529051631751422560e01b81526001600160a01b03909216926317514225926106039287929091879101612f1a565b600060405180830381600087803b15801561061d57600080fd5b505af1158015610631573d6000803e3d6000fd5b505050505050565b6106416127aa565b6004805460408051808201825260ff8087168252851660208201529051631751422560e01b81526001600160a01b039092169263175142259261068a9289929091899101612f1a565b600060405180830381600087803b1580156106a457600080fd5b505af11580156106b8573d6000803e3d6000fd5b5050505050505050565b6000806106cf8686612f07565b90506000836106de8684612f4c565b6106e89190612f79565b90506106f48782612f8d565b979650505050505050565b60008061070b8561055a565b6040805187815260208101839052908101869052606081018590529091507f75b6a8325595f91135e07382840634226793c68c9e59623da7e10d7ad3d95b959060800160405180910390a180600103610768576000915050610795565b6003836107758684612f8d565b61077f9190612fa0565b131561078f576001915050610795565b60009150505b9392505050565b6000816107aa846004612f4c565b6107959190612f8d565b6107bc6127aa565b6107c66000612804565b565b6000816000036107da57506001919050565b816001036107ea57506000919050565b816002036107fa57506003919050565b8160030361080a57506002919050565b60405162461bcd60e51b815260206004820152600d60248201526c2130b2103234b932b1ba34b7b760991b60448201526064015b60405180910390fd5b6040805180820190915260008082526020820152826000036108995760405180604001604052806001846000015161087f9190612fc7565b60ff168152602001836020015160ff1681525090506104dc565b826001036108bd5760405180604001604052808360000151600161087f9190612fe0565b826002036108fa576040518060400160405280836000015160ff168152602001836020015160016108ee9190612fe0565b60ff16905290506104dc565b8260030361092b576040518060400160405280836000015160ff168152602001600184602001516108ee9190612fc7565b600061093684612854565b604051602001610946919061301d565b60405160208183030381529060405290508060405162461bcd60e51b815260040161083e9190613058565b60008082600161098286600261316f565b61098c9190612f07565b901b8516831c9150509392505050565b6007546040516310f67fb360e01b8152600481018890526000916001600160a01b0316906310f67fb390602401600060405180830381865afa1580156109e6573d6000803e3d6000fd5b505050506040513d6000823e601f3d908101601f19168201604052610a0e91908101906132f1565b60048054604051630dfd338360e31b81529182018b90529192506000916001600160a01b031690636fe99c1890602401600060405180830381865afa158015610a5b573d6000803e3d6000fd5b505050506040513d6000823e601f3d908101601f19168201604052610a839190810190613537565b9050806101000151600014610ada5760405162461bcd60e51b815260206004820152601860248201527f4d757374207265736f6c7665206576656e742066697273740000000000000000604482015260640161083e565b8051610b1a5760405162461bcd60e51b815260206004820152600f60248201526e47616d65206e6f742061637469766560881b604482015260640161083e565b81516001600160a01b03163314610b735760405162461bcd60e51b815260206004820152601760248201527f53656e646572206e6f7420706c61796572206f776e6572000000000000000000604482015260640161083e565b60038260c0015160ff1610610bbc5760405162461bcd60e51b815260206004820152600f60248201526e139bc81858dd1a5bdb9cc81b19599d608a1b604482015260640161083e565b8060200151816040015181518110610bd657610bd66136f1565b60200260200101518814610c1c5760405162461bcd60e51b815260206004820152600d60248201526c2737ba103cb7bab9103a3ab93760991b604482015260640161083e565b60006003886009811115610c3257610c32613707565b03610c6f5782604001516020015160000b83610120015160000b1315610c6a5760405162461bcd60e51b815260040161083e9061371d565b61248a565b6002886009811115610c8357610c83613707565b036112355782604001516020015160000b83610120015160000b1315610cbb5760405162461bcd60e51b815260040161083e9061371d565b60035460c083015160608501518051602090910151604051630dd43b9b60e31b8152600481019390935260ff9182166024840152166044820152606481018890526000916001600160a01b031690636ea1dcd890608401606060405180830381865afa158015610d2f573d6000803e3d6000fd5b505050506040513d601f19601f82011682018060405250810190610d539190613765565b9050600281604001516004811115610d6d57610d6d613707565b1480610d8e5750600381604001516004811115610d8c57610d8c613707565b145b80610d9e5750602081015160ff16155b610df65760405162461bcd60e51b815260206004820152602360248201527f31737420446f6f72206e6f74206f70656e2f62726561636865642f756e6c6f636044820152621ad95960ea1b606482015260840161083e565b600181604001516004811115610e0e57610e0e613707565b03610e925760035460c084015160608601518051602090910151604051635921522360e01b81526001600160a01b0390941693635921522393610e5f93909290918d906002906000906004016137d6565b600060405180830381600087803b158015610e7957600080fd5b505af1158015610e8d573d6000803e3d6000fd5b505050505b6000610ea2888660600151610847565b90506001896001811115610eb857610eb8613707565b036111b7576000610ec98883610847565b60035460c087015184516020860151604051630dd43b9b60e31b8152600481019390935260ff9182166024840152166044820152606481018b90529192506000916001600160a01b0390911690636ea1dcd890608401606060405180830381865afa158015610f3c573d6000803e3d6000fd5b505050506040513d601f19601f82011682018060405250810190610f609190613765565b9050600281604001516004811115610f7a57610f7a613707565b1480610f9b5750600381604001516004811115610f9957610f99613707565b145b80610fab5750602081015160ff16155b6110035760405162461bcd60e51b815260206004820152602360248201527f326e6420446f6f72206e6f74206f70656e2f62726561636865642f756e6c6f636044820152621ad95960ea1b606482015260840161083e565b60035460c0870151604051630f78220b60e11b815260048101919091526000916001600160a01b031690631ef0441690602401600060405180830381865afa158015611053573d6000803e3d6000fd5b505050506040513d6000823e601f3d908101601f1916820160405261107b9190810190613901565b9050600281856000015160ff1681518110611098576110986136f1565b6020026020010151856020015160ff16815181106110b8576110b86136f1565b60200260200101516000015160ff16116111085760405162461bcd60e51b8152602060048201526011602482015270149bdbdb481b9bdd08195e1c1b1bdc9959607a1b604482015260640161083e565b60018260400151600481111561112057611120613707565b036111b157600360009054906101000a90046001600160a01b03166001600160a01b031663592152238860c00151866000015187602001518e600260006040518763ffffffff1660e01b815260040161117e969594939291906137d6565b600060405180830381600087803b15801561119857600080fd5b505af11580156111ac573d6000803e3d6000fd5b505050505b50909150505b600460009054906101000a90046001600160a01b03166001600160a01b031663175142258d838e6040518463ffffffff1660e01b81526004016111fc93929190612f1a565b600060405180830381600087803b15801561121657600080fd5b505af115801561122a573d6000803e3d6000fd5b50505050505061248a565b600088600981111561124957611249613707565b036114b15782604001516020015160000b83610120015160000b13156112815760405162461bcd60e51b815260040161083e9061371d565b60035460c083015160608501518051602090910151604051630dd43b9b60e31b8152600481019390935260ff9182166024840152166044820152606481018890526000916001600160a01b031690636ea1dcd890608401606060405180830381865afa1580156112f5573d6000803e3d6000fd5b505050506040513d601f19601f820116820180604052508101906113199190613765565b905060018160400151600481111561133357611333613707565b146113725760405162461bcd60e51b815260206004820152600f60248201526e111bdbdc881b9bdd0818db1bdcd959608a1b604482015260640161083e565b61138f8b85604001516060015160ff16836020015160ff166106ff565b156114ab5760035460c084015160608601518051602090910151604051635921522360e01b81526001600160a01b03909416936359215223936113e093909290918d906002906000906004016137d6565b600060405180830381600087803b1580156113fa57600080fd5b505af115801561140e573d6000803e3d6000fd5b506001925061141b915050565b88600181111561142d5761142d613707565b036114ab5760045460608501516001600160a01b03909116906317514225908d90611459908b90610847565b8d6040518463ffffffff1660e01b815260040161147893929190612f1a565b600060405180830381600087803b15801561149257600080fd5b505af11580156114a6573d6000803e3d6000fd5b505050505b5061248a565b60018860098111156114c5576114c5613707565b036116595782604001516020015160000b83610120015160000b13156114fd5760405162461bcd60e51b815260040161083e9061371d565b60035460c083015160608501518051602090910151604051630dd43b9b60e31b8152600481019390935260ff9182166024840152166044820152606481018890526000916001600160a01b031690636ea1dcd890608401606060405180830381865afa158015611571573d6000803e3d6000fd5b505050506040513d601f19601f820116820180604052508101906115959190613765565b90506001816040015160048111156115af576115af613707565b146115ee5760405162461bcd60e51b815260206004820152600f60248201526e111bdbdc881b9bdd0818db1bdcd959608a1b604482015260640161083e565b61160b8b85604001516080015160ff16836000015160ff166106ff565b156114ab576003805460c085015160608701518051602090910151604051635921522360e01b81526001600160a01b03909416946359215223946113e0949392918e916000906004016137d6565b600488600981111561166d5761166d613707565b03611b19575060035460c08201516060840151805160209091015160405163f9dfbfcb60e01b81526001946000946001600160a01b039091169363f9dfbfcb936116cd9360040192835260ff918216602084015216604082015260600190565b61014060405180830381865afa1580156116eb573d6000803e3d6000fd5b505050506040513d601f19601f8201168201806040525081019061170f9190613a10565b60808101519091501561175a5760405162461bcd60e51b8152602060048201526013602482015272149bdbdb48185b1c9958591e481b1bdbdd1959606a1b604482015260640161083e565b60035460c08401516060860151805160209091015160405162a1871b60e21b8152600481019390935260ff91821660248401521660448201526000916001600160a01b0316906302861c6c9060640160a060405180830381865afa1580156117c6573d6000803e3d6000fd5b505050506040513d601f19601f820116820180604052508101906117ea9190613a2d565b90506000816060015160ff16118061180957506000816040015160ff16115b61184d5760405162461bcd60e51b815260206004820152601560248201527443616e2774206c6f6f7420656d70747920726f6f6d60581b604482015260640161083e565b64174876e800816040015160ff166118659190612f4c565b34146118b35760405162461bcd60e51b815260206004820152601860248201527f57726f6e67207061796d656e7420696e20616374696f6e730000000000000000604482015260640161083e565b60035460c08501516060870151805160209091015160405163086e529d60e41b8152600481019390935260ff91821660248401521660448201526001600160a01b03909116906386e529d090606401600060405180830381600087803b15801561191c57600080fd5b505af1158015611930573d6000803e3d6000fd5b50506007546060840151604051632da41c6560e21b81526001600160a01b03909216935063b69071949250611976918f919060040191825260ff16602082015260400190565b600060405180830381600087803b15801561199057600080fd5b505af11580156119a4573d6000803e3d6000fd5b5050505060005b816040015160ff16811015611a6d57600560009054906101000a90046001600160a01b03166001600160a01b0316630cc0db5364174876e8008e89600001518a6101a001516040518563ffffffff1660e01b8152600401611a28939291909283526001600160a01b03919091166020830152604082015260600190565b6000604051808303818588803b158015611a4157600080fd5b505af1158015611a55573d6000803e3d6000fd5b50505050508080611a6590612eee565b9150506119ab565b50600754604082810151905163fe23e2df60e01b8152600481018e905260ff90911660248201526001600160a01b039091169063fe23e2df90604401600060405180830381600087803b158015611ac357600080fd5b505af1158015611ad7573d6000803e3d6000fd5b50506007546020880151604051630f96f55d60e41b81526001600160a01b03909216935063f96f55d092506111fc918f90600401918252602082015260400190565b6005886009811115611b2d57611b2d613707565b03611d585782604001516020015160000b83610120015160000b1315611b655760405162461bcd60e51b815260040161083e9061371d565b60035460c08301516060850151805160209091015160405162a1871b60e21b8152600481019390935260ff91821660248401521660448201526000916001600160a01b0316906302861c6c9060640160a060405180830381865afa158015611bd1573d6000803e3d6000fd5b505050506040513d601f19601f82011682018060405250810190611bf59190613a2d565b600654602082015160405163c82c37b960e01b81529293506000926001600160a01b039092169163c82c37b991611c329160040190815260200190565b600060405180830381865afa158015611c4f573d6000803e3d6000fd5b505050506040513d6000823e601f3d908101601f19168201604052611c779190810190613b44565b9050806020015115156001151514611cc75760405162461bcd60e51b8152602060048201526013602482015272115d995b9d081b9bdd081c195c9b585b995b9d606a1b604482015260640161083e565b600760009054906101000a90046001600160a01b03166001600160a01b031663ed8619618c8e8760c001518960600151876020015160006040518763ffffffff1660e01b81526004016111fc969594939291909586526020808701959095526040860193909352815160ff9081166060870152919093015116608084015260a083019190915260c082015260e00190565b6006886009811115611d6c57611d6c613707565b03611da45782604001516020015160000b83610120015160000b1315610c6a5760405162461bcd60e51b815260040161083e9061371d565b6007886009811115611db857611db8613707565b03611f7e57506001611dca848a61295c565b611e165760405162461bcd60e51b815260206004820152601c60248201527f547279696e6720746f2064726f70206974656d206e6f742068656c6400000000604482015260640161083e565b600754845160405163351dacdf60e01b8152600481018c905260248101919091526001600160a01b039091169063351dacdf90604401600060405180830381600087803b158015611e6657600080fd5b505af1158015611e7a573d6000803e3d6000fd5b50505050600560009054906101000a90046001600160a01b03166001600160a01b03166311ff70478b868660600151600001518760600151602001518e6040518663ffffffff1660e01b8152600401611ed7959493929190613c70565b600060405180830381600087803b158015611ef157600080fd5b505af1158015611f05573d6000803e3d6000fd5b50506007546020860151604051630f96f55d60e41b81526001600160a01b03909216935063f96f55d09250611f47918d90600401918252602082015260400190565b600060405180830381600087803b158015611f6157600080fd5b505af1158015611f75573d6000803e3d6000fd5b5050505061248a565b6008886009811115611f9257611f92613707565b03612305576005546040516264b0e560e81b8152600481018c90526000916001600160a01b0316906364b0e50090602401600060405180830381865afa158015611fe0573d6000803e3d6000fd5b505050506040513d6000823e601f3d908101601f191682016040526120089190810190613cc5565b905060005b81518110156121f457818181518110612028576120286136f1565b60200260200101516101a001516000015160ff1685606001516000015160ff161461208a5760405162461bcd60e51b8152602060048201526012602482015271506c61796572206e6f74206174206974656d60701b604482015260640161083e565b81818151811061209c5761209c6136f1565b60200260200101516101a001516020015160ff1685606001516020015160ff16146120fe5760405162461bcd60e51b8152602060048201526012602482015271506c61796572206e6f74206174206974656d60701b604482015260640161083e565b6002828281518110612112576121126136f1565b60200260200101516101800151600481111561213057612130613707565b1461217d5760405162461bcd60e51b815260206004820152601e60248201527f4974656d20697320646973636172646564206f722064657374726f7965640000604482015260640161083e565b8b828281518110612190576121906136f1565b60200260200101516101600151146121e25760405162461bcd60e51b81526020600482015260156024820152744974656d206e6f7420696e20746869732067616d6560581b604482015260640161083e565b806121ec81612eee565b91505061200d565b50600754855160405163fe23e2df60e01b8152600481018d90526024810191909152600193506001600160a01b039091169063fe23e2df90604401600060405180830381600087803b15801561224957600080fd5b505af115801561225d573d6000803e3d6000fd5b505060055486516040516307bc9a2360e21b81526001600160a01b039092169350631ef2688c9250612295918e918a91600401613e30565b600060405180830381600087803b1580156122af57600080fd5b505af11580156122c3573d6000803e3d6000fd5b50506007546020870151604051630f96f55d60e41b81526001600160a01b03909216935063f96f55d09250611478918e90600401918252602082015260400190565b600988600981111561231957612319613707565b036124425760035460c083015160608501518051602090910151604051636474d64b60e11b8152600481019390935260ff91821660248401521660448201526000916001600160a01b03169063c8e9ac9690606401602060405180830381865afa15801561238b573d6000803e3d6000fd5b505050506040513d601f19601f820116820180604052508101906123af9190613e61565b9050600281146123f55760405162461bcd60e51b81526020600482015260116024820152704e6f7420696e20446f6e676861696a697560781b604482015260640161083e565b6004805460208601516040808701519051633f090e3d60e01b81529384018f9052602484018e9052604484019190915260648301526001600160a01b031690633f090e3d90608401611478565b60405162461bcd60e51b815260206004820152601860248201527f4552524f523a2042616420616374696f6e20636f6e6669670000000000000000604482015260640161083e565b60048054604051630aa6e80360e41b81529182018c9052602482018b905282151560448301526001600160a01b03169063aa6e803090606401600060405180830381600087803b1580156124dd57600080fd5b505af11580156124f1573d6000803e3d6000fd5b505050507f9264b358b1a541ec2845338290bce14769d3525bb3b9ce8706633f2fe05e092a8a838b868c60405161252c95949392919061403a565b60405180910390a150505050505050505050565b600180546000918261255183612eee565b91905055506000336001546001436125699190612f07565b60405160609390931b6bffffffffffffffffffffffff19166020840152603483019190915240605482015260740160408051601f198184030181529190528051602090910120905060006125bd8585612fc7565b6125c8906001612fe0565b90508460ff168160ff16836125dd9190614212565b6125e79190612f8d565b95945050505050565b6125f86127aa565b600280546001600160a01b03199081166001600160a01b03998a16179091556003805482169689169690961790955560048054861694881694909417909355600580548516928716929092179091556006805484169186169190911790556007805490921693169290921790915550565b6126716127aa565b6001600160a01b0381166126d65760405162461bcd60e51b815260206004820152602660248201527f4f776e61626c653a206e6577206f776e657220697320746865207a65726f206160448201526564647265737360d01b606482015260840161083e565b6126df81612804565b50565b805182516000916126f291614226565b60000b600103612704575060006104dc565b815183516127129190614226565b60000b19612722575060016104dc565b816020015183602001516127369190614226565b60000b19612746575060026104dc565b8160200151836020015161275a9190614226565b60000b60010361276c575060036104dc565b60405162461bcd60e51b8152602060048201526013602482015272115c9c9bdc8e88139bdd0818591a9858d95b9d606a1b604482015260640161083e565b6000546001600160a01b031633146107c65760405162461bcd60e51b815260206004820181905260248201527f4f776e61626c653a2063616c6c6572206973206e6f7420746865206f776e6572604482015260640161083e565b600080546001600160a01b038381166001600160a01b0319831681178455604051919092169283917f8be0079c531659141344cd1fd0a4f28419497f9722a3daafe3b4186f6b6457e09190a35050565b60608160000361287b5750506040805180820190915260018152600360fc1b602082015290565b8160005b81156128a5578061288f81612eee565b915061289e9050600a83612f79565b915061287f565b6000816001600160401b038111156128bf576128bf612b0f565b6040519080825280601f01601f1916602001820160405280156128e9576020820181803683370190505b5090505b8415612954576128fe600183612f07565b915061290b600a86614212565b612916906030612f8d565b60f81b81838151811061292b5761292b6136f1565b60200101906001600160f81b031916908160001a90535061294d600a86612f79565b94506128ed565b949350505050565b600554604051633841fae160e01b81526004810183905260009182916001600160a01b0390911690633841fae190602401600060405180830381865afa1580156129aa573d6000803e3d6000fd5b505050506040513d6000823e601f3d908101601f191682016040526129d29190810190614247565b905060005b8451811015612a6b576000805b8351811015612a41578381815181106129ff576129ff6136f1565b6020026020010151878481518110612a1957612a196136f1565b602002602001015103612a2f5760019150612a41565b80612a3981612eee565b9150506129e4565b50801515600003612a5857600093505050506104dc565b5080612a6381612eee565b9150506129d7565b506001949350505050565b600060208284031215612a8857600080fd5b5035919050565b60008060408385031215612aa257600080fd5b50508035926020909101359150565b60008060008060808587031215612ac757600080fd5b5050823594602084013594506040840135936060013592509050565b600080600060608486031215612af857600080fd5b505081359360208301359350604090920135919050565b634e487b7160e01b600052604160045260246000fd5b604080519081016001600160401b0381118282101715612b4757612b47612b0f565b60405290565b60405160e081016001600160401b0381118282101715612b4757612b47612b0f565b6040516101c081016001600160401b0381118282101715612b4757612b47612b0f565b60405161024081016001600160401b0381118282101715612b4757612b47612b0f565b604051601f8201601f191681016001600160401b0381118282101715612bdd57612bdd612b0f565b604052919050565b60ff811681146126df57600080fd5b600060408284031215612c0657600080fd5b612c0e612b25565b90508135612c1b81612be5565b81526020820135612c2b81612be5565b602082015292915050565b60008060608385031215612c4957600080fd5b82359150612c5a8460208501612bf4565b90509250929050565b604081016104dc8284805160ff908116835260209182015116910152565b60006001600160401b03821115612c9a57612c9a612b0f565b5060051b60200190565b600080600080600080600060e0888a031215612cbf57600080fd5b8735965060208089013596506040890135600a8110612cdd57600080fd5b9550606089013560028110612cf157600080fd5b94506080890135935060a0890135925060c08901356001600160401b03811115612d1a57600080fd5b8901601f81018b13612d2b57600080fd5b8035612d3e612d3982612c81565b612bb5565b81815260059190911b8201830190838101908d831115612d5d57600080fd5b928401925b82841015612d7b57833582529284019290840190612d62565b809550505050505092959891949750929550565b60008060408385031215612da257600080fd5b8235612dad81612be5565b91506020830135612dbd81612be5565b809150509250929050565b6001600160a01b03811681146126df57600080fd5b600080600080600080600060e0888a031215612df857600080fd5b8735612e0381612dc8565b96506020880135612e1381612dc8565b95506040880135612e2381612dc8565b94506060880135612e3381612dc8565b93506080880135612e4381612dc8565b925060a0880135612e5381612dc8565b915060c0880135612e6381612dc8565b8091505092959891949750929550565b600060208284031215612e8557600080fd5b813561079581612dc8565b60008060808385031215612ea357600080fd5b612ead8484612bf4565b9150612c5a8460408501612bf4565b634e487b7160e01b600052601160045260246000fd5b6000600160ff1b8201612ee757612ee7612ebc565b5060000390565b600060018201612f0057612f00612ebc565b5060010190565b818103818111156104dc576104dc612ebc565b83815260808101612f3e6020830185805160ff908116835260209182015116910152565b826060830152949350505050565b80820281158282048414176104dc576104dc612ebc565b634e487b7160e01b600052601260045260246000fd5b600082612f8857612f88612f63565b500490565b808201808211156104dc576104dc612ebc565b8181036000831280158383131683831282161715612fc057612fc0612ebc565b5092915050565b60ff82811682821603908111156104dc576104dc612ebc565b60ff81811683821601908111156104dc576104dc612ebc565b60005b83811015613014578181015183820152602001612ffc565b50506000910152565b72024b73b30b634b2103234b932b1ba34b7b71d1606d1b81526000825161304b816013850160208701612ff9565b9190910160130192915050565b6020815260008251806020840152613077816040850160208701612ff9565b601f01601f19169190910160400192915050565b600181815b808511156130c65781600019048211156130ac576130ac612ebc565b808516156130b957918102915b93841c9390800290613090565b509250929050565b6000826130dd575060016104dc565b816130ea575060006104dc565b8160018114613100576002811461310a57613126565b60019150506104dc565b60ff84111561311b5761311b612ebc565b50506001821b6104dc565b5060208310610133831016604e8410600b8410161715613149575081810a6104dc565b613153838361308b565b806000190482111561316757613167612ebc565b029392505050565b600061079583836130ce565b805161318681612dc8565b919050565b8051600081900b811461318657600080fd5b600060e082840312156131af57600080fd5b6131b7612b4d565b90506131c28261318b565b81526131d06020830161318b565b60208201526131e16040830161318b565b60408201526131f26060830161318b565b60608201526132036080830161318b565b608082015261321460a0830161318b565b60a082015261322560c0830161318b565b60c082015292915050565b805161318681612be5565b60006040828403121561324d57600080fd5b613255612b25565b9050815161326281612be5565b81526020820151612c2b81612be5565b600082601f83011261328357600080fd5b81516020613293612d3983612c81565b82815260059290921b840181019181810190868411156132b257600080fd5b8286015b848110156132d65780516132c981612be5565b83529183019183016132b6565b509695505050505050565b8051801515811461318657600080fd5b60006020828403121561330357600080fd5b81516001600160401b038082111561331a57600080fd5b908301906102a0828603121561332f57600080fd5b613337612b6f565b6133408361317b565b815260208301516020820152613359866040850161319d565b604082015261012061336d8782860161323b565b606083015261016061338081860161318b565b6080840152610180613393818701613230565b60a08501526101a06133a6818801613230565b60c08601526133b86101c08801613230565b60e08601526101e0870151868111156133d057600080fd5b6133dc8b828a01613272565b610100870152506133f06102008801613230565b8486015261340161022088016132e1565b61014086015261341461024088016132e1565b8386015261342561026088016132e1565b82860152610280870151818601525050505080935050505092915050565b600082601f83011261345457600080fd5b81516020613464612d3983612c81565b82815260059290921b8401810191818101908684111561348357600080fd5b8286015b848110156132d65780518352918301918301613487565b6000608082840312156134b057600080fd5b604051608081018181106001600160401b03821117156134d2576134d2612b0f565b806040525080915082516134e581612be5565b815260208301516134f581612be5565b6020820152604083015161350881612be5565b6040820152606083015161351b81612be5565b6060919091015292915050565b80516006811061318657600080fd5b60006020828403121561354957600080fd5b81516001600160401b038082111561356057600080fd5b908301906102c0828603121561357557600080fd5b61357d612b92565b613586836132e1565b815260208301518281111561359a57600080fd5b6135a687828601613443565b6020830152506040830151604082015260608301516060820152608083015160808201526135d78660a0850161349e565b60a08201526101208084015160c08301526101408085015160e08401526101608086015161010085015261018061360f818801613528565b848601526101a093506136248a85890161323b565b838601526101e09250828701518681111561363e57600080fd5b61364a8b828a01613443565b83870152506102009150818701518681111561366557600080fd5b6136718b828a01613443565b828701525050610220808701518681111561368b57600080fd5b6136978b828a01613443565b85870152506102408701519350858411156136b157600080fd5b6136bd8a858901613443565b6101c086015261026087015183860152610280870151828601526102a0870151818601525050505080935050505092915050565b634e487b7160e01b600052603260045260246000fd5b634e487b7160e01b600052602160045260246000fd5b602080825260169082015275486f6c64696e6720746f6f206d616e79206974656d7360501b604082015260600190565b600581106126df57600080fd5b80516131868161374d565b60006060828403121561377757600080fd5b604051606081018181106001600160401b038211171561379957613799612b0f565b60405282516137a781612be5565b815260208301516137b781612be5565b602082015260408301516137ca8161374d565b60408201529392505050565b86815260ff8681166020830152851660408201526060810184905260c081016005841061380557613805613707565b608082019390935260a00152949350505050565b6000610140828403121561382c57600080fd5b613834612b4d565b9050815161384181612be5565b815260208281015161385281612be5565b82820152605f8301841361386557600080fd5b604051608081018181106001600160401b038211171561388757613887612b0f565b6040528060c085018681111561389c57600080fd5b604086015b818110156138b857805183529184019184016138a1565b508260408601526138c8816132e1565b6060860152505050506138dd60e083016132e1565b60808201526138ef61010083016132e1565b60a082015261322561012083016132e1565b6000602080838503121561391457600080fd5b82516001600160401b038082111561392b57600080fd5b818501915085601f83011261393f57600080fd5b815161394d612d3982612c81565b81815260059190911b8301840190848101908883111561396c57600080fd5b8585015b83811015613a035780518581111561398757600080fd5b8601603f81018b1361399857600080fd5b878101516139a8612d3982612c81565b8181526101409182028301604001918a820191908e8411156139ca5760008081fd5b6040850194505b838510156139f2576139e38f86613819565b835293840193918b01916139d1565b508652505050918601918601613970565b5098975050505050505050565b60006101408284031215613a2357600080fd5b6107958383613819565b600060a08284031215613a3f57600080fd5b60405160a081018181106001600160401b0382111715613a6157613a61612b0f565b604052613a6d83613528565b8152602083015160208201526040830151613a8781612be5565b60408201526060830151613a9a81612be5565b6060820152613aab608084016132e1565b60808201529392505050565b600082601f830112613ac857600080fd5b81516020613ad8612d3983612c81565b82815260069290921b84018101918181019086841115613af757600080fd5b8286015b848110156132d65760408189031215613b145760008081fd5b613b1c612b25565b815160178110613b2c5760008081fd5b81528185015185820152835291830191604001613afb565b600060208284031215613b5657600080fd5b81516001600160401b0380821115613b6d57600080fd5b9083019060e08286031215613b8157600080fd5b613b89612b4d565b82518152613b99602084016132e1565b6020820152613baa60408401613230565b6040820152613bbb60608401613230565b6060820152608083015182811115613bd257600080fd5b613bde87828601613ab7565b60808301525060a083015182811115613bf657600080fd5b613c0287828601613ab7565b60a08301525060c083015182811115613c1a57600080fd5b613c2687828601613ab7565b60c08301525095945050505050565b600081518084526020808501945080840160005b83811015613c6557815187529582019590820190600101613c49565b509495945050505050565b85815260a060208201526000613c8960a0830187613c35565b60ff9586166040840152939094166060820152608001529392505050565b80516003811061318657600080fd5b8051600b811061318657600080fd5b60006020808385031215613cd857600080fd5b82516001600160401b03811115613cee57600080fd5b8301601f81018513613cff57600080fd5b8051613d0d612d3982612c81565b8181526101e09182028301840191848201919088841115613d2d57600080fd5b938501935b83851015613e245780858a031215613d4a5760008081fd5b613d52612b6f565b85518152868601518782015260408087015190820152606080870151908201526080613d7f81880161317b565b9082015260a0868101519082015260c0613d9a818801613ca7565b9082015260e0613dab878201613230565b90820152610100613dbd878201613230565b90820152610120613dcf878201613cb6565b90820152610140613de1878201613230565b908201526101608681015190820152610180613dfe81880161375a565b908201526101a0613e118b88830161323b565b9082015283529384019391850191613d32565b50979650505050505050565b838152606060208201526000613e496060830185613c35565b905060018060a01b0383166040830152949350505050565b600060208284031215613e7357600080fd5b5051919050565b60068110613e8a57613e8a613707565b9052565b600081518084526020808501945080840160005b83811015613c6557815160ff1687529582019590820190600101613ea2565b80516001600160a01b0316825260006102a0602083015160208501526040830151613f4160408601828051600081810b84526020830151810b60208501526040830151810b60408501526060830151810b60608501526080830151810b608085015260a0830151810b60a085015260c0830151810b60c085015250505050565b506060830151610120613f6681870183805160ff908116835260209182015116910152565b60808501519150610160613f7e8188018460000b9052565b60a08601519250610180613f968189018560ff169052565b60c087015193506101a0613fae818a018660ff169052565b60e088015160ff166101c08a01526101008801516101e08a018790529450613fd8868a0186613e8e565b9550838801519450613ff06102008a018660ff169052565b61014088015115156102208a0152918701511515610240890152860151151561026088015290940151610280909501949094529392505050565b600a8110613e8a57613e8a613707565b85815260a0602082015261405360a08201865115159052565b600060208601516102c08060c0850152614071610360850183613c35565b9150604088015160e08501526060880151610100818187015260808a01519150610120828188015260a08b015192506101406140dc8189018560ff815116825260ff602082015116602083015260ff604082015116604083015260ff60608201511660608301525050565b60c08c015193506101c084818a015260e08d015194506101e085818b0152848e01519550610200945085858b0152838e015195506102209350614121848b0187613e7a565b918d0151805160ff9081166102408c0152602090910151166102608a01526101608d0151609f198a890381016102808c0152909550916141618887613c35565b97506101808e01519550828a8903016102a08b01526141808887613c35565b97506101a08e01519550828a890301878b015261419d8887613c35565b9750818e01519650828a8903016102e08b01526141ba8888613c35565b908e01516103008b0152938d01516103208a015250508a015161034087015260408601899052858103606087015292506141f8915082905086613ec1565b915050614208608083018461402a565b9695505050505050565b60008261422157614221612f63565b500690565b600082810b9082900b03607f198112607f821317156104dc576104dc612ebc565b60006020828403121561425957600080fd5b81516001600160401b0381111561426f57600080fd5b6129548482850161344356fea264697066735822122098f95489aeb0bac4ffa199cedec3d9cdd7a5e39ed770b2b488bf23eb355246bf64736f6c63430008110033",
  "devdoc": {
    "kind": "dev",
    "methods": {
      "owner()": {
        "details": "Returns the address of the current owner."
      },
      "renounceOwnership()": {
        "details": "Leaves the contract without owner. It will not be possible to call `onlyOwner` functions anymore. Can only be called by the current owner. NOTE: Renouncing ownership will leave the contract without an owner, thereby removing any functionality that is only available to the owner."
      },
      "transferOwnership(address)": {
        "details": "Transfers ownership of the contract to a new account (`newOwner`). Can only be called by the current owner."
      }
    },
    "version": 1
  },
  "userdoc": {
    "kind": "user",
    "methods": {},
    "version": 1
  },
  "storageLayout": {
    "storage": [
      {
        "astId": 7,
        "contract": "contracts/Actions.sol:Actions",
        "label": "_owner",
        "offset": 0,
        "slot": "0",
        "type": "t_address"
      },
      {
        "astId": 17166,
        "contract": "contracts/Actions.sol:Actions",
        "label": "TODO_randomSeed",
        "offset": 0,
        "slot": "1",
        "type": "t_uint256"
      },
      {
        "astId": 2731,
        "contract": "contracts/Actions.sol:Actions",
        "label": "chars",
        "offset": 0,
        "slot": "2",
        "type": "t_contract(CharInterface)2445"
      },
      {
        "astId": 2734,
        "contract": "contracts/Actions.sol:Actions",
        "label": "maps",
        "offset": 0,
        "slot": "3",
        "type": "t_contract(MapInterface)2540"
      },
      {
        "astId": 2737,
        "contract": "contracts/Actions.sol:Actions",
        "label": "games",
        "offset": 0,
        "slot": "4",
        "type": "t_contract(GamesInterface)2579"
      },
      {
        "astId": 2740,
        "contract": "contracts/Actions.sol:Actions",
        "label": "items",
        "offset": 0,
        "slot": "5",
        "type": "t_contract(ItemsInterface)2630"
      },
      {
        "astId": 2743,
        "contract": "contracts/Actions.sol:Actions",
        "label": "bcEvents",
        "offset": 0,
        "slot": "6",
        "type": "t_contract(EventsInterface)2671"
      },
      {
        "astId": 2746,
        "contract": "contracts/Actions.sol:Actions",
        "label": "players",
        "offset": 0,
        "slot": "7",
        "type": "t_contract(PlayersInterface)2724"
      },
      {
        "astId": 2748,
        "contract": "contracts/Actions.sol:Actions",
        "label": "charsAddress",
        "offset": 0,
        "slot": "8",
        "type": "t_address"
      }
    ],
    "types": {
      "t_address": {
        "encoding": "inplace",
        "label": "address",
        "numberOfBytes": "20"
      },
      "t_contract(CharInterface)2445": {
        "encoding": "inplace",
        "label": "contract CharInterface",
        "numberOfBytes": "20"
      },
      "t_contract(EventsInterface)2671": {
        "encoding": "inplace",
        "label": "contract EventsInterface",
        "numberOfBytes": "20"
      },
      "t_contract(GamesInterface)2579": {
        "encoding": "inplace",
        "label": "contract GamesInterface",
        "numberOfBytes": "20"
      },
      "t_contract(ItemsInterface)2630": {
        "encoding": "inplace",
        "label": "contract ItemsInterface",
        "numberOfBytes": "20"
      },
      "t_contract(MapInterface)2540": {
        "encoding": "inplace",
        "label": "contract MapInterface",
        "numberOfBytes": "20"
      },
      "t_contract(PlayersInterface)2724": {
        "encoding": "inplace",
        "label": "contract PlayersInterface",
        "numberOfBytes": "20"
      },
      "t_uint256": {
        "encoding": "inplace",
        "label": "uint256",
        "numberOfBytes": "32"
      }
    }
  }
}