{
  "address": "0x7f5683c51Fc033ffe48788Ff1e907A2cbbff0db6",
  "abi": [
    {
      "anonymous": false,
      "inputs": [
        {
          "indexed": false,
          "internalType": "uint256",
          "name": "gameId",
          "type": "uint256"
        },
        {
          "components": [
            {
              "internalType": "bool",
              "name": "active",
              "type": "bool"
            },
            {
              "internalType": "bool",
              "name": "denizenTurn",
              "type": "bool"
            },
            {
              "internalType": "uint256[]",
              "name": "playerIndexes",
              "type": "uint256[]"
            },
            {
              "internalType": "uint256",
              "name": "currentPlayerTurnIndex",
              "type": "uint256"
            },
            {
              "internalType": "uint256",
              "name": "numPlayers",
              "type": "uint256"
            },
            {
              "internalType": "uint256",
              "name": "turnsTaken",
              "type": "uint256"
            },
            {
              "components": [
                {
                  "internalType": "uint8",
                  "name": "bugEvents",
                  "type": "uint8"
                },
                {
                  "internalType": "uint8",
                  "name": "mysteryEvents",
                  "type": "uint8"
                },
                {
                  "internalType": "uint8",
                  "name": "scavEvents",
                  "type": "uint8"
                },
                {
                  "internalType": "uint8",
                  "name": "shipEvents",
                  "type": "uint8"
                }
              ],
              "internalType": "struct BCTypes.EventTracker",
              "name": "eventTracker",
              "type": "tuple"
            },
            {
              "internalType": "uint256",
              "name": "mapId",
              "type": "uint256"
            },
            {
              "internalType": "uint256",
              "name": "eventPlayerId",
              "type": "uint256"
            },
            {
              "internalType": "uint256",
              "name": "eventNumber",
              "type": "uint256"
            },
            {
              "internalType": "enum BCTypes.BCEventType",
              "name": "eventType",
              "type": "uint8"
            },
            {
              "components": [
                {
                  "internalType": "uint8",
                  "name": "row",
                  "type": "uint8"
                },
                {
                  "internalType": "uint8",
                  "name": "col",
                  "type": "uint8"
                }
              ],
              "internalType": "struct BCTypes.Position",
              "name": "eventPosition",
              "type": "tuple"
            },
            {
              "internalType": "uint256[]",
              "name": "unusedBugEvents",
              "type": "uint256[]"
            },
            {
              "internalType": "uint256[]",
              "name": "unusedMysteryEvents",
              "type": "uint256[]"
            },
            {
              "internalType": "uint256[]",
              "name": "unusedScavEvents",
              "type": "uint256[]"
            },
            {
              "internalType": "uint256[]",
              "name": "unusedShipEvents",
              "type": "uint256[]"
            },
            {
              "internalType": "uint256",
              "name": "turnTimeLimit",
              "type": "uint256"
            },
            {
              "internalType": "uint256",
              "name": "lastTurnTimestamp",
              "type": "uint256"
            },
            {
              "internalType": "uint256",
              "name": "DEBUG_returnAmount",
              "type": "uint256"
            },
            {
              "components": [
                {
                  "internalType": "uint256",
                  "name": "id",
                  "type": "uint256"
                },
                {
                  "internalType": "uint256",
                  "name": "gameId",
                  "type": "uint256"
                },
                {
                  "internalType": "enum BCTypes.DenizenType",
                  "name": "denizenType",
                  "type": "uint8"
                },
                {
                  "components": [
                    {
                      "internalType": "uint8",
                      "name": "row",
                      "type": "uint8"
                    },
                    {
                      "internalType": "uint8",
                      "name": "col",
                      "type": "uint8"
                    }
                  ],
                  "internalType": "struct BCTypes.Position",
                  "name": "position",
                  "type": "tuple"
                },
                {
                  "internalType": "uint256",
                  "name": "healthRemaining",
                  "type": "uint256"
                }
              ],
              "internalType": "struct BCTypes.Denizen[]",
              "name": "denizens",
              "type": "tuple[]"
            }
          ],
          "indexed": false,
          "internalType": "struct BCTypes.Game",
          "name": "game",
          "type": "tuple"
        },
        {
          "indexed": false,
          "internalType": "uint256",
          "name": "playerId",
          "type": "uint256"
        },
        {
          "components": [
            {
              "internalType": "address",
              "name": "owner",
              "type": "address"
            },
            {
              "internalType": "uint256",
              "name": "characterId",
              "type": "uint256"
            },
            {
              "internalType": "uint256",
              "name": "id",
              "type": "uint256"
            },
            {
              "components": [
                {
                  "internalType": "int8",
                  "name": "health",
                  "type": "int8"
                },
                {
                  "internalType": "int8",
                  "name": "carry",
                  "type": "int8"
                },
                {
                  "internalType": "int8",
                  "name": "defense",
                  "type": "int8"
                },
                {
                  "internalType": "int8",
                  "name": "hack",
                  "type": "int8"
                },
                {
                  "internalType": "int8",
                  "name": "breach",
                  "type": "int8"
                },
                {
                  "internalType": "int8",
                  "name": "shoot",
                  "type": "int8"
                },
                {
                  "internalType": "int8",
                  "name": "melee",
                  "type": "int8"
                },
                {
                  "internalType": "bool",
                  "name": "hasGun",
                  "type": "bool"
                }
              ],
              "internalType": "struct BCTypes.Traits",
              "name": "currentTraits",
              "type": "tuple"
            },
            {
              "components": [
                {
                  "internalType": "uint8",
                  "name": "row",
                  "type": "uint8"
                },
                {
                  "internalType": "uint8",
                  "name": "col",
                  "type": "uint8"
                }
              ],
              "internalType": "struct BCTypes.Position",
              "name": "position",
              "type": "tuple"
            },
            {
              "components": [
                {
                  "internalType": "uint8",
                  "name": "row",
                  "type": "uint8"
                },
                {
                  "internalType": "uint8",
                  "name": "col",
                  "type": "uint8"
                }
              ],
              "internalType": "struct BCTypes.Position",
              "name": "lastPos",
              "type": "tuple"
            },
            {
              "internalType": "int8",
              "name": "healthDmgTaken",
              "type": "int8"
            },
            {
              "internalType": "uint8",
              "name": "armorDmgTaken",
              "type": "uint8"
            },
            {
              "internalType": "uint8",
              "name": "actionsTaken",
              "type": "uint8"
            },
            {
              "internalType": "uint8",
              "name": "dataTokens",
              "type": "uint8"
            },
            {
              "internalType": "uint8[]",
              "name": "currentEffects",
              "type": "uint8[]"
            },
            {
              "internalType": "uint8",
              "name": "numItemsHeld",
              "type": "uint8"
            },
            {
              "internalType": "bool",
              "name": "dead",
              "type": "bool"
            },
            {
              "internalType": "uint256",
              "name": "gameId",
              "type": "uint256"
            }
          ],
          "indexed": false,
          "internalType": "struct BCTypes.Player",
          "name": "player",
          "type": "tuple"
        },
        {
          "indexed": false,
          "internalType": "enum BCTypes.Action",
          "name": "action",
          "type": "uint8"
        }
      ],
      "name": "ActionCompleteEvent",
      "type": "event"
    },
    {
      "anonymous": false,
      "inputs": [
        {
          "indexed": false,
          "internalType": "uint256",
          "name": "gameId",
          "type": "uint256"
        },
        {
          "indexed": false,
          "internalType": "uint256",
          "name": "roll",
          "type": "uint256"
        },
        {
          "indexed": false,
          "internalType": "uint256",
          "name": "forValue",
          "type": "uint256"
        },
        {
          "indexed": false,
          "internalType": "uint256",
          "name": "against",
          "type": "uint256"
        }
      ],
      "name": "ChallengeEvent",
      "type": "event"
    },
    {
      "anonymous": false,
      "inputs": [
        {
          "indexed": false,
          "internalType": "uint256",
          "name": "gameId",
          "type": "uint256"
        },
        {
          "indexed": false,
          "internalType": "uint256",
          "name": "roll",
          "type": "uint256"
        }
      ],
      "name": "DiceRollEvent",
      "type": "event"
    },
    {
      "anonymous": false,
      "inputs": [
        {
          "indexed": true,
          "internalType": "address",
          "name": "previousOwner",
          "type": "address"
        },
        {
          "indexed": true,
          "internalType": "address",
          "name": "newOwner",
          "type": "address"
        }
      ],
      "name": "OwnershipTransferred",
      "type": "event"
    },
    {
      "inputs": [
        {
          "internalType": "int256",
          "name": "x",
          "type": "int256"
        }
      ],
      "name": "abs",
      "outputs": [
        {
          "internalType": "int256",
          "name": "",
          "type": "int256"
        }
      ],
      "stateMutability": "pure",
      "type": "function"
    },
    {
      "inputs": [],
      "name": "bcEvents",
      "outputs": [
        {
          "internalType": "contract EventsInterface",
          "name": "",
          "type": "address"
        }
      ],
      "stateMutability": "view",
      "type": "function"
    },
    {
      "inputs": [],
      "name": "chars",
      "outputs": [
        {
          "internalType": "contract CharInterface",
          "name": "",
          "type": "address"
        }
      ],
      "stateMutability": "view",
      "type": "function"
    },
    {
      "inputs": [],
      "name": "charsAddress",
      "outputs": [
        {
          "internalType": "address",
          "name": "",
          "type": "address"
        }
      ],
      "stateMutability": "view",
      "type": "function"
    },
    {
      "inputs": [
        {
          "internalType": "uint256",
          "name": "_gameId",
          "type": "uint256"
        },
        {
          "internalType": "uint256",
          "name": "_playerId",
          "type": "uint256"
        }
      ],
      "name": "debugMovePlayerForTesting",
      "outputs": [],
      "stateMutability": "nonpayable",
      "type": "function"
    },
    {
      "inputs": [
        {
          "internalType": "uint256",
          "name": "_gameId",
          "type": "uint256"
        },
        {
          "internalType": "uint256",
          "name": "_playerId",
          "type": "uint256"
        },
        {
          "internalType": "uint256",
          "name": "_row",
          "type": "uint256"
        },
        {
          "internalType": "uint256",
          "name": "_col",
          "type": "uint256"
        }
      ],
      "name": "debugMovePlayerToRoom",
      "outputs": [],
      "stateMutability": "nonpayable",
      "type": "function"
    },
    {
      "inputs": [
        {
          "internalType": "uint256",
          "name": "_gameId",
          "type": "uint256"
        },
        {
          "internalType": "uint256",
          "name": "_playerId",
          "type": "uint256"
        },
        {
          "internalType": "enum BCTypes.Action",
          "name": "_action",
          "type": "uint8"
        },
        {
          "internalType": "enum BCTypes.Followthrough",
          "name": "_followthrough",
          "type": "uint8"
        },
        {
          "internalType": "uint256",
          "name": "_1stDirection",
          "type": "uint256"
        },
        {
          "internalType": "uint256",
          "name": "_2ndDirection",
          "type": "uint256"
        },
        {
          "internalType": "uint256[]",
          "name": "_ids",
          "type": "uint256[]"
        }
      ],
      "name": "doAction",
      "outputs": [],
      "stateMutability": "payable",
      "type": "function"
    },
    {
      "inputs": [],
      "name": "games",
      "outputs": [
        {
          "internalType": "contract GamesInterface",
          "name": "",
          "type": "address"
        }
      ],
      "stateMutability": "view",
      "type": "function"
    },
    {
      "inputs": [
        {
          "components": [
            {
              "internalType": "uint8",
              "name": "row",
              "type": "uint8"
            },
            {
              "internalType": "uint8",
              "name": "col",
              "type": "uint8"
            }
          ],
          "internalType": "struct BCTypes.Position",
          "name": "_firstRoom",
          "type": "tuple"
        },
        {
          "components": [
            {
              "internalType": "uint8",
              "name": "row",
              "type": "uint8"
            },
            {
              "internalType": "uint8",
              "name": "col",
              "type": "uint8"
            }
          ],
          "internalType": "struct BCTypes.Position",
          "name": "_secondRoom",
          "type": "tuple"
        }
      ],
      "name": "getDirectionBetween",
      "outputs": [
        {
          "internalType": "uint256",
          "name": "",
          "type": "uint256"
        }
      ],
      "stateMutability": "pure",
      "type": "function"
    },
    {
      "inputs": [
        {
          "internalType": "uint256",
          "name": "_direction",
          "type": "uint256"
        },
        {
          "components": [
            {
              "internalType": "uint8",
              "name": "row",
              "type": "uint8"
            },
            {
              "internalType": "uint8",
              "name": "col",
              "type": "uint8"
            }
          ],
          "internalType": "struct BCTypes.Position",
          "name": "_start",
          "type": "tuple"
        }
      ],
      "name": "getNeighborRoom",
      "outputs": [
        {
          "components": [
            {
              "internalType": "uint8",
              "name": "row",
              "type": "uint8"
            },
            {
              "internalType": "uint8",
              "name": "col",
              "type": "uint8"
            }
          ],
          "internalType": "struct BCTypes.Position",
          "name": "",
          "type": "tuple"
        }
      ],
      "stateMutability": "pure",
      "type": "function"
    },
    {
      "inputs": [
        {
          "internalType": "uint256",
          "name": "_traitNum",
          "type": "uint256"
        },
        {
          "internalType": "uint256",
          "name": "_subTraitNum",
          "type": "uint256"
        }
      ],
      "name": "getUIOffset",
      "outputs": [
        {
          "internalType": "uint256",
          "name": "",
          "type": "uint256"
        }
      ],
      "stateMutability": "pure",
      "type": "function"
    },
    {
      "inputs": [],
      "name": "items",
      "outputs": [
        {
          "internalType": "contract ItemsInterface",
          "name": "",
          "type": "address"
        }
      ],
      "stateMutability": "view",
      "type": "function"
    },
    {
      "inputs": [
        {
          "components": [
            {
              "internalType": "uint8",
              "name": "row",
              "type": "uint8"
            },
            {
              "internalType": "uint8",
              "name": "col",
              "type": "uint8"
            }
          ],
          "internalType": "struct BCTypes.Position",
          "name": "_pos1",
          "type": "tuple"
        },
        {
          "components": [
            {
              "internalType": "uint8",
              "name": "row",
              "type": "uint8"
            },
            {
              "internalType": "uint8",
              "name": "col",
              "type": "uint8"
            }
          ],
          "internalType": "struct BCTypes.Position",
          "name": "_pos2",
          "type": "tuple"
        }
      ],
      "name": "manhattanDistance",
      "outputs": [
        {
          "internalType": "uint256",
          "name": "",
          "type": "uint256"
        }
      ],
      "stateMutability": "pure",
      "type": "function"
    },
    {
      "inputs": [],
      "name": "maps",
      "outputs": [
        {
          "internalType": "contract MapInterface",
          "name": "",
          "type": "address"
        }
      ],
      "stateMutability": "view",
      "type": "function"
    },
    {
      "inputs": [
        {
          "internalType": "uint256",
          "name": "_min",
          "type": "uint256"
        },
        {
          "internalType": "uint256",
          "name": "_max",
          "type": "uint256"
        },
        {
          "internalType": "uint256",
          "name": "_val",
          "type": "uint256"
        },
        {
          "internalType": "uint256",
          "name": "_valMax",
          "type": "uint256"
        }
      ],
      "name": "normalizeToSmallRange",
      "outputs": [
        {
          "internalType": "uint8",
          "name": "",
          "type": "uint8"
        }
      ],
      "stateMutability": "pure",
      "type": "function"
    },
    {
      "inputs": [
        {
          "internalType": "uint256",
          "name": "_direction",
          "type": "uint256"
        }
      ],
      "name": "opposite",
      "outputs": [
        {
          "internalType": "uint256",
          "name": "",
          "type": "uint256"
        }
      ],
      "stateMutability": "pure",
      "type": "function"
    },
    {
      "inputs": [],
      "name": "owner",
      "outputs": [
        {
          "internalType": "address",
          "name": "",
          "type": "address"
        }
      ],
      "stateMutability": "view",
      "type": "function"
    },
    {
      "inputs": [],
      "name": "players",
      "outputs": [
        {
          "internalType": "contract PlayersInterface",
          "name": "",
          "type": "address"
        }
      ],
      "stateMutability": "view",
      "type": "function"
    },
    {
      "inputs": [],
      "name": "randKeccak",
      "outputs": [
        {
          "internalType": "bytes32",
          "name": "",
          "type": "bytes32"
        }
      ],
      "stateMutability": "nonpayable",
      "type": "function"
    },
    {
      "inputs": [],
      "name": "renounceOwnership",
      "outputs": [],
      "stateMutability": "nonpayable",
      "type": "function"
    },
    {
      "inputs": [
        {
          "internalType": "uint256",
          "name": "_gameId",
          "type": "uint256"
        },
        {
          "internalType": "uint256",
          "name": "_for",
          "type": "uint256"
        },
        {
          "internalType": "uint256",
          "name": "_against",
          "type": "uint256"
        }
      ],
      "name": "resolveChallenge",
      "outputs": [
        {
          "internalType": "bool",
          "name": "",
          "type": "bool"
        }
      ],
      "stateMutability": "nonpayable",
      "type": "function"
    },
    {
      "inputs": [
        {
          "internalType": "uint256",
          "name": "_gameId",
          "type": "uint256"
        }
      ],
      "name": "roll",
      "outputs": [
        {
          "internalType": "uint256",
          "name": "",
          "type": "uint256"
        }
      ],
      "stateMutability": "nonpayable",
      "type": "function"
    },
    {
      "inputs": [
        {
          "internalType": "address",
          "name": "_charAddress",
          "type": "address"
        },
        {
          "internalType": "address",
          "name": "_utilsAddress",
          "type": "address"
        },
        {
          "internalType": "address",
          "name": "_mapsAddress",
          "type": "address"
        },
        {
          "internalType": "address",
          "name": "_gamesAddress",
          "type": "address"
        },
        {
          "internalType": "address",
          "name": "_itemsAddress",
          "type": "address"
        },
        {
          "internalType": "address",
          "name": "_eventsAddress",
          "type": "address"
        },
        {
          "internalType": "address",
          "name": "_playersAddress",
          "type": "address"
        }
      ],
      "name": "setContractAddresses",
      "outputs": [],
      "stateMutability": "nonpayable",
      "type": "function"
    },
    {
      "inputs": [
        {
          "internalType": "bytes32",
          "name": "_hash",
          "type": "bytes32"
        },
        {
          "internalType": "uint256",
          "name": "_size",
          "type": "uint256"
        },
        {
          "internalType": "uint256",
          "name": "_offset",
          "type": "uint256"
        }
      ],
      "name": "sliceHashToSmallInt",
      "outputs": [
        {
          "internalType": "uint8",
          "name": "",
          "type": "uint8"
        }
      ],
      "stateMutability": "pure",
      "type": "function"
    },
    {
      "inputs": [
        {
          "internalType": "uint8",
          "name": "_min",
          "type": "uint8"
        },
        {
          "internalType": "uint8",
          "name": "_max",
          "type": "uint8"
        }
      ],
      "name": "smallIntBetweenVals",
      "outputs": [
        {
          "internalType": "uint8",
          "name": "",
          "type": "uint8"
        }
      ],
      "stateMutability": "nonpayable",
      "type": "function"
    },
    {
      "inputs": [
        {
          "internalType": "address",
          "name": "newOwner",
          "type": "address"
        }
      ],
      "name": "transferOwnership",
      "outputs": [],
      "stateMutability": "nonpayable",
      "type": "function"
    }
  ],
  "transactionHash": "0x9add7edbb9ff53931a3026e5333d294eee17497e4c2bc8670458a5936a9c03c5",
  "args": [],
  "numDeployments": 1,
  "solcInputHash": "b20c193bf04b28dc0cfd0c3cb57f3762",
  "bytecode": "0x608060405260006001553480156200001657600080fd5b50620000223362000028565b62000078565b600080546001600160a01b038381166001600160a01b0319831681178455604051919092169283917f8be0079c531659141344cd1fd0a4f28419497f9722a3daafe3b4186f6b6457e09190a35050565b6146c880620000886000396000f3fe6080604052600436106101815760003560e01c80638da5cb5b116100d1578063c06fad061161008a578063dc0b356411610064578063dc0b35641461047d578063f10bff2b1461049d578063f2fde38b146104bd578063fa3993c2146104dd57600080fd5b8063c06fad061461041d578063ce28613f1461043d578063d72be09d1461045d57600080fd5b80638da5cb5b1461035f578063951fc3fe1461037d578063955a015b146103aa57806397f34c3f146103ca5780639fca1ee1146103ea578063a8ca85bb1461040a57600080fd5b8063425c38d81161013e57806364db84bf1161011857806364db84bf146102ea578063715018a61461030a5780637ddae1031461031f5780638214f2221461033f57600080fd5b8063425c38d81461026857806353011696146102885780635dc96967146102ba57600080fd5b806310a2cd0d146101865780631b5ac4b5146101c35780631e1de205146101f15780631f7b4f30146102065780633deaec2b146102265780634102b1a714610246575b600080fd5b34801561019257600080fd5b506002546101a6906001600160a01b031681565b6040516001600160a01b0390911681526020015b60405180910390f35b3480156101cf57600080fd5b506101e36101de366004612c41565b6104fd565b6040519081526020016101ba565b3480156101fd57600080fd5b506101e361051d565b34801561021257600080fd5b506101e3610221366004612c41565b610595565b34801561023257600080fd5b506003546101a6906001600160a01b031681565b34801561025257600080fd5b50610266610261366004612c5a565b6105f1565b005b34801561027457600080fd5b50610266610283366004612c7c565b610674565b34801561029457600080fd5b506102a86102a3366004612c7c565b6106fd565b60405160ff90911681526020016101ba565b3480156102c657600080fd5b506102da6102d5366004612cae565b61073a565b60405190151581526020016101ba565b3480156102f657600080fd5b506101e3610305366004612c5a565b6107d7565b34801561031657600080fd5b506102666107ef565b34801561032b57600080fd5b506006546101a6906001600160a01b031681565b34801561034b57600080fd5b506101e361035a366004612c41565b610803565b34801561036b57600080fd5b506000546001600160a01b03166101a6565b34801561038957600080fd5b5061039d610398366004612e23565b610882565b6040516101ba9190612e50565b3480156103b657600080fd5b506004546101a6906001600160a01b031681565b3480156103d657600080fd5b506102a86103e5366004612cae565b6109ac565b3480156103f657600080fd5b506008546101a6906001600160a01b031681565b610266610418366004612e91565b6109d7565b34801561042957600080fd5b506005546101a6906001600160a01b031681565b34801561044957600080fd5b506102a8610458366004612f7c565b6126be565b34801561046957600080fd5b50610266610478366004612fca565b61276e565b34801561048957600080fd5b506007546101a6906001600160a01b031681565b3480156104a957600080fd5b506101e36104b8366004613060565b6127e7565b3480156104c957600080fd5b506102666104d836600461308c565b612834565b3480156104e957600080fd5b506101e36104f8366004613060565b6128ad565b60008082121561051557610510826130bf565b610517565b815b92915050565b600180546000918261052e836130db565b919050555060015460014361054391906130f4565b403360405160200161057a93929190928352602083019190915260601b6bffffffffffffffffffffffff1916604082015260540190565b60405160208183030381529060405280519060200120905090565b6000806105a4600160066126be565b60ff1690507ffe34d093a460a16ee5fb374540914d1c734a17502c0c1a87b387c8d6097e1c5183826040516105e3929190918252602082015260400190565b60405180910390a192915050565b6105f9612975565b60048054604080518082018252600080825260208201529051631751422560e01b81526001600160a01b039092169263175142259261063e9287929091879101613107565b600060405180830381600087803b15801561065857600080fd5b505af115801561066c573d6000803e3d6000fd5b505050505050565b61067c612975565b6004805460408051808201825260ff8087168252851660208201529051631751422560e01b81526001600160a01b03909216926317514225926106c59289929091899101613107565b600060405180830381600087803b1580156106df57600080fd5b505af11580156106f3573d6000803e3d6000fd5b5050505050505050565b60008061070a86866130f4565b90506000836107198684613139565b6107239190613166565b905061072f878261317a565b979650505050505050565b60008061074685610595565b6040805187815260208101839052908101869052606081018590529091507f75b6a8325595f91135e07382840634226793c68c9e59623da7e10d7ad3d95b959060800160405180910390a1806001036107a35760009150506107d0565b6003836107b0868461317a565b6107ba919061318d565b13156107ca5760019150506107d0565b60009150505b9392505050565b6000816107e5846004613139565b6107d0919061317a565b6107f7612975565b61080160006129cf565b565b60008160000361081557506001919050565b8160010361082557506000919050565b8160020361083557506003919050565b8160030361084557506002919050565b60405162461bcd60e51b815260206004820152600d60248201526c2130b2103234b932b1ba34b7b760991b60448201526064015b60405180910390fd5b6040805180820190915260008082526020820152826000036108d4576040518060400160405280600184600001516108ba91906131b4565b60ff168152602001836020015160ff168152509050610517565b826001036108f8576040518060400160405280836000015160016108ba91906131cd565b82600203610935576040518060400160405280836000015160ff1681526020018360200151600161092991906131cd565b60ff1690529050610517565b82600303610966576040518060400160405280836000015160ff1681526020016001846020015161092991906131b4565b600061097184612a1f565b604051602001610981919061320a565b60405160208183030381529060405290508060405162461bcd60e51b81526004016108799190613245565b6000808260016109bd86600261335c565b6109c791906130f4565b901b8516831c9150509392505050565b6007546040516310f67fb360e01b8152600481018890526000916001600160a01b0316906310f67fb390602401600060405180830381865afa158015610a21573d6000803e3d6000fd5b505050506040513d6000823e601f3d908101601f19168201604052610a499190810190613512565b60048054604051630dfd338360e31b81529182018b90529192506000916001600160a01b031690636fe99c1890602401600060405180830381865afa158015610a96573d6000803e3d6000fd5b505050506040513d6000823e601f3d908101601f19168201604052610abe919081019061380f565b9050806101200151600014610b155760405162461bcd60e51b815260206004820152601860248201527f4d757374207265736f6c7665206576656e7420666972737400000000000000006044820152606401610879565b602081015115610b5d5760405162461bcd60e51b81526020600482015260136024820152722334b734b9b4103232b734bd32b7103a3ab93760691b6044820152606401610879565b8051610b9d5760405162461bcd60e51b815260206004820152600f60248201526e47616d65206e6f742061637469766560881b6044820152606401610879565b81516001600160a01b03163314610bf65760405162461bcd60e51b815260206004820152601760248201527f53656e646572206e6f7420706c61796572206f776e65720000000000000000006044820152606401610879565b600382610100015160ff1610610c405760405162461bcd60e51b815260206004820152600f60248201526e139bc81858dd1a5bdb9cc81b19599d608a1b6044820152606401610879565b8060400151816060015181518110610c5a57610c5a613a00565b60200260200101518814610ca05760405162461bcd60e51b815260206004820152600d60248201526c2737ba103cb7bab9103a3ab93760991b6044820152606401610879565b6000600388600b811115610cb657610cb6613a16565b03610cf35782606001516020015160000b83610160015160000b1315610cee5760405162461bcd60e51b815260040161087990613a2c565b612608565b600288600b811115610d0757610d07613a16565b036112b95782606001516020015160000b83610160015160000b1315610d3f5760405162461bcd60e51b815260040161087990613a2c565b60035460e083015160808501518051602090910151604051630dd43b9b60e31b8152600481019390935260ff9182166024840152166044820152606481018890526000916001600160a01b031690636ea1dcd890608401606060405180830381865afa158015610db3573d6000803e3d6000fd5b505050506040513d601f19601f82011682018060405250810190610dd79190613a74565b9050600281604001516004811115610df157610df1613a16565b1480610e125750600381604001516004811115610e1057610e10613a16565b145b80610e225750602081015160ff16155b610e7a5760405162461bcd60e51b815260206004820152602360248201527f31737420446f6f72206e6f74206f70656e2f62726561636865642f756e6c6f636044820152621ad95960ea1b6064820152608401610879565b600181604001516004811115610e9257610e92613a16565b03610f165760035460e084015160808601518051602090910151604051635921522360e01b81526001600160a01b0390941693635921522393610ee393909290918d90600290600090600401613ae5565b600060405180830381600087803b158015610efd57600080fd5b505af1158015610f11573d6000803e3d6000fd5b505050505b6000610f26888660800151610882565b90506001896001811115610f3c57610f3c613a16565b0361123b576000610f4d8883610882565b60035460e087015184516020860151604051630dd43b9b60e31b8152600481019390935260ff9182166024840152166044820152606481018b90529192506000916001600160a01b0390911690636ea1dcd890608401606060405180830381865afa158015610fc0573d6000803e3d6000fd5b505050506040513d601f19601f82011682018060405250810190610fe49190613a74565b9050600281604001516004811115610ffe57610ffe613a16565b148061101f575060038160400151600481111561101d5761101d613a16565b145b8061102f5750602081015160ff16155b6110875760405162461bcd60e51b815260206004820152602360248201527f326e6420446f6f72206e6f74206f70656e2f62726561636865642f756e6c6f636044820152621ad95960ea1b6064820152608401610879565b60035460e0870151604051630f78220b60e11b815260048101919091526000916001600160a01b031690631ef0441690602401600060405180830381865afa1580156110d7573d6000803e3d6000fd5b505050506040513d6000823e601f3d908101601f191682016040526110ff9190810190613c1b565b9050600281856000015160ff168151811061111c5761111c613a00565b6020026020010151856020015160ff168151811061113c5761113c613a00565b60200260200101516000015160ff161161118c5760405162461bcd60e51b8152602060048201526011602482015270149bdbdb481b9bdd08195e1c1b1bdc9959607a1b6044820152606401610879565b6001826040015160048111156111a4576111a4613a16565b0361123557600360009054906101000a90046001600160a01b03166001600160a01b031663592152238860e00151866000015187602001518e600260006040518763ffffffff1660e01b815260040161120296959493929190613ae5565b600060405180830381600087803b15801561121c57600080fd5b505af1158015611230573d6000803e3d6000fd5b505050505b50909150505b600460009054906101000a90046001600160a01b03166001600160a01b031663175142258d838e6040518463ffffffff1660e01b815260040161128093929190613107565b600060405180830381600087803b15801561129a57600080fd5b505af11580156112ae573d6000803e3d6000fd5b505050505050612608565b600088600b8111156112cd576112cd613a16565b036115355782606001516020015160000b83610160015160000b13156113055760405162461bcd60e51b815260040161087990613a2c565b60035460e083015160808501518051602090910151604051630dd43b9b60e31b8152600481019390935260ff9182166024840152166044820152606481018890526000916001600160a01b031690636ea1dcd890608401606060405180830381865afa158015611379573d6000803e3d6000fd5b505050506040513d601f19601f8201168201806040525081019061139d9190613a74565b90506001816040015160048111156113b7576113b7613a16565b146113f65760405162461bcd60e51b815260206004820152600f60248201526e111bdbdc881b9bdd0818db1bdcd959608a1b6044820152606401610879565b6114138b85606001516060015160ff16836020015160ff1661073a565b1561152f5760035460e084015160808601518051602090910151604051635921522360e01b81526001600160a01b039094169363592152239361146493909290918d90600290600090600401613ae5565b600060405180830381600087803b15801561147e57600080fd5b505af1158015611492573d6000803e3d6000fd5b506001925061149f915050565b8860018111156114b1576114b1613a16565b0361152f5760045460808501516001600160a01b03909116906317514225908d906114dd908b90610882565b8d6040518463ffffffff1660e01b81526004016114fc93929190613107565b600060405180830381600087803b15801561151657600080fd5b505af115801561152a573d6000803e3d6000fd5b505050505b50612608565b600188600b81111561154957611549613a16565b036116dd5782606001516020015160000b83610160015160000b13156115815760405162461bcd60e51b815260040161087990613a2c565b60035460e083015160808501518051602090910151604051630dd43b9b60e31b8152600481019390935260ff9182166024840152166044820152606481018890526000916001600160a01b031690636ea1dcd890608401606060405180830381865afa1580156115f5573d6000803e3d6000fd5b505050506040513d601f19601f820116820180604052508101906116199190613a74565b905060018160400151600481111561163357611633613a16565b146116725760405162461bcd60e51b815260206004820152600f60248201526e111bdbdc881b9bdd0818db1bdcd959608a1b6044820152606401610879565b61168f8b85606001516080015160ff16836000015160ff1661073a565b1561152f576003805460e085015160808701518051602090910151604051635921522360e01b81526001600160a01b0390941694635921522394611464949392918e91600090600401613ae5565b600488600b8111156116f1576116f1613a16565b03611b9d575060035460e08201516080840151805160209091015160405163f9dfbfcb60e01b81526001946000946001600160a01b039091169363f9dfbfcb936117519360040192835260ff918216602084015216604082015260600190565b61014060405180830381865afa15801561176f573d6000803e3d6000fd5b505050506040513d601f19601f820116820180604052508101906117939190613d2a565b6080810151909150156117de5760405162461bcd60e51b8152602060048201526013602482015272149bdbdb48185b1c9958591e481b1bdbdd1959606a1b6044820152606401610879565b60035460e08401516080860151805160209091015160405162a1871b60e21b8152600481019390935260ff91821660248401521660448201526000916001600160a01b0316906302861c6c9060640160a060405180830381865afa15801561184a573d6000803e3d6000fd5b505050506040513d601f19601f8201168201806040525081019061186e9190613d47565b90506000816060015160ff16118061188d57506000816040015160ff16115b6118d15760405162461bcd60e51b815260206004820152601560248201527443616e2774206c6f6f7420656d70747920726f6f6d60581b6044820152606401610879565b64174876e800816040015160ff166118e99190613139565b34146119375760405162461bcd60e51b815260206004820152601860248201527f57726f6e67207061796d656e7420696e20616374696f6e7300000000000000006044820152606401610879565b60035460e08501516080870151805160209091015160405163086e529d60e41b8152600481019390935260ff91821660248401521660448201526001600160a01b03909116906386e529d090606401600060405180830381600087803b1580156119a057600080fd5b505af11580156119b4573d6000803e3d6000fd5b50506007546060840151604051632da41c6560e21b81526001600160a01b03909216935063b690719492506119fa918f919060040191825260ff16602082015260400190565b600060405180830381600087803b158015611a1457600080fd5b505af1158015611a28573d6000803e3d6000fd5b5050505060005b816040015160ff16811015611af157600560009054906101000a90046001600160a01b03166001600160a01b0316630cc0db5364174876e8008e89600001518a6101a001516040518563ffffffff1660e01b8152600401611aac939291909283526001600160a01b03919091166020830152604082015260600190565b6000604051808303818588803b158015611ac557600080fd5b505af1158015611ad9573d6000803e3d6000fd5b50505050508080611ae9906130db565b915050611a2f565b50600754604082810151905163fe23e2df60e01b8152600481018e905260ff90911660248201526001600160a01b039091169063fe23e2df90604401600060405180830381600087803b158015611b4757600080fd5b505af1158015611b5b573d6000803e3d6000fd5b50506007546020880151604051630f96f55d60e41b81526001600160a01b03909216935063f96f55d09250611280918f90600401918252602082015260400190565b600588600b811115611bb157611bb1613a16565b03611ddc5782606001516020015160000b83610160015160000b1315611be95760405162461bcd60e51b815260040161087990613a2c565b60035460e08301516080850151805160209091015160405162a1871b60e21b8152600481019390935260ff91821660248401521660448201526000916001600160a01b0316906302861c6c9060640160a060405180830381865afa158015611c55573d6000803e3d6000fd5b505050506040513d601f19601f82011682018060405250810190611c799190613d47565b600654602082015160405163c82c37b960e01b81529293506000926001600160a01b039092169163c82c37b991611cb69160040190815260200190565b600060405180830381865afa158015611cd3573d6000803e3d6000fd5b505050506040513d6000823e601f3d908101601f19168201604052611cfb9190810190613e5e565b9050806020015115156001151514611d4b5760405162461bcd60e51b8152602060048201526013602482015272115d995b9d081b9bdd081c195c9b585b995b9d606a1b6044820152606401610879565b600760009054906101000a90046001600160a01b03166001600160a01b031663ed8619618c8e8760e001518960800151876020015160006040518763ffffffff1660e01b8152600401611280969594939291909586526020808701959095526040860193909352815160ff9081166060870152919093015116608084015260a083019190915260c082015260e00190565b600688600b811115611df057611df0613a16565b03611e285782606001516020015160000b83610160015160000b1315610cee5760405162461bcd60e51b815260040161087990613a2c565b600788600b811115611e3c57611e3c613a16565b0361200257506001611e4e848a612b27565b611e9a5760405162461bcd60e51b815260206004820152601c60248201527f547279696e6720746f2064726f70206974656d206e6f742068656c64000000006044820152606401610879565b600754845160405163351dacdf60e01b8152600481018c905260248101919091526001600160a01b039091169063351dacdf90604401600060405180830381600087803b158015611eea57600080fd5b505af1158015611efe573d6000803e3d6000fd5b50505050600560009054906101000a90046001600160a01b03166001600160a01b03166311ff70478b868660800151600001518760800151602001518e6040518663ffffffff1660e01b8152600401611f5b959493929190613f8a565b600060405180830381600087803b158015611f7557600080fd5b505af1158015611f89573d6000803e3d6000fd5b50506007546020860151604051630f96f55d60e41b81526001600160a01b03909216935063f96f55d09250611fcb918d90600401918252602082015260400190565b600060405180830381600087803b158015611fe557600080fd5b505af1158015611ff9573d6000803e3d6000fd5b50505050612608565b600888600b81111561201657612016613a16565b03612389576005546040516264b0e560e81b8152600481018c90526000916001600160a01b0316906364b0e50090602401600060405180830381865afa158015612064573d6000803e3d6000fd5b505050506040513d6000823e601f3d908101601f1916820160405261208c9190810190613fdf565b905060005b8151811015612278578181815181106120ac576120ac613a00565b60200260200101516101a001516000015160ff1685608001516000015160ff161461210e5760405162461bcd60e51b8152602060048201526012602482015271506c61796572206e6f74206174206974656d60701b6044820152606401610879565b81818151811061212057612120613a00565b60200260200101516101a001516020015160ff1685608001516020015160ff16146121825760405162461bcd60e51b8152602060048201526012602482015271506c61796572206e6f74206174206974656d60701b6044820152606401610879565b600282828151811061219657612196613a00565b6020026020010151610180015160048111156121b4576121b4613a16565b146122015760405162461bcd60e51b815260206004820152601e60248201527f4974656d20697320646973636172646564206f722064657374726f79656400006044820152606401610879565b8b82828151811061221457612214613a00565b60200260200101516101600151146122665760405162461bcd60e51b81526020600482015260156024820152744974656d206e6f7420696e20746869732067616d6560581b6044820152606401610879565b80612270816130db565b915050612091565b50600754855160405163fe23e2df60e01b8152600481018d90526024810191909152600193506001600160a01b039091169063fe23e2df90604401600060405180830381600087803b1580156122cd57600080fd5b505af11580156122e1573d6000803e3d6000fd5b505060055486516040516307bc9a2360e21b81526001600160a01b039092169350631ef2688c9250612319918e918a9160040161414a565b600060405180830381600087803b15801561233357600080fd5b505af1158015612347573d6000803e3d6000fd5b50506007546020870151604051630f96f55d60e41b81526001600160a01b03909216935063f96f55d092506114fc918e90600401918252602082015260400190565b600988600b81111561239d5761239d613a16565b036124c65760035460e083015160808501518051602090910151604051636474d64b60e11b8152600481019390935260ff91821660248401521660448201526000916001600160a01b03169063c8e9ac9690606401602060405180830381865afa15801561240f573d6000803e3d6000fd5b505050506040513d601f19601f82011682018060405250810190612433919061417b565b9050600281146124795760405162461bcd60e51b81526020600482015260116024820152704e6f7420696e20446f6e676861696a697560781b6044820152606401610879565b6004805460208601516060860151604051633f090e3d60e01b81529384018f9052602484018e9052604484019190915260648301526001600160a01b031690633f090e3d906084016114fc565b600a88600b8111156124da576124da613a16565b036125435760045484516001600160a01b0390911690633aa07d64908c90879060009061250957612509613a00565b60200260200101518c876060015160c0015160ff1688608001516040518663ffffffff1660e01b8152600401611fcb959493929190614194565b600b88600b81111561255757612557613a16565b036125c05760045484516001600160a01b0390911690633aa07d64908c90879060009061258657612586613a00565b60200260200101518c876060015160a0015160ff1688608001516040518663ffffffff1660e01b8152600401611fcb959493929190614194565b60405162461bcd60e51b815260206004820152601860248201527f4552524f523a2042616420616374696f6e20636f6e66696700000000000000006044820152606401610879565b60048054604051630aa6e80360e41b81529182018c9052602482018b905282151560448301526001600160a01b03169063aa6e803090606401600060405180830381600087803b15801561265b57600080fd5b505af115801561266f573d6000803e3d6000fd5b505050507fdd11d14b3a08736ddfedf9556aef4209a0f736dadad7cdc3b39e6e6d11cbc63b8a838b868c6040516126aa959493929190614420565b60405180910390a150505050505050505050565b60018054600091826126cf836130db565b91905055506000336001546001436126e791906130f4565b60405160609390931b6bffffffffffffffffffffffff19166020840152603483019190915240605482015260740160408051601f1981840301815291905280516020909101209050600061273b85856131b4565b6127469060016131cd565b90508460ff168160ff168361275b9190614629565b612765919061317a565b95945050505050565b612776612975565b600280546001600160a01b03199081166001600160a01b03998a16179091556003805482169689169690961790955560048054861694881694909417909355600580548516928716929092179091556006805484169186169190911790556007805490921693169290921790915550565b600080612807836000015160000b856000015160000b6101de919061318d565b90506000612828846020015160000b866020015160000b6101de919061318d565b9050612765818361317a565b61283c612975565b6001600160a01b0381166128a15760405162461bcd60e51b815260206004820152602660248201527f4f776e61626c653a206e6577206f776e657220697320746865207a65726f206160448201526564647265737360d01b6064820152608401610879565b6128aa816129cf565b50565b805182516000916128bd9161463d565b60000b6001036128cf57506000610517565b815183516128dd919061463d565b60000b196128ed57506001610517565b81602001518360200151612901919061463d565b60000b1961291157506002610517565b81602001518360200151612925919061463d565b60000b60010361293757506003610517565b60405162461bcd60e51b8152602060048201526013602482015272115c9c9bdc8e88139bdd0818591a9858d95b9d606a1b6044820152606401610879565b6000546001600160a01b031633146108015760405162461bcd60e51b815260206004820181905260248201527f4f776e61626c653a2063616c6c6572206973206e6f7420746865206f776e65726044820152606401610879565b600080546001600160a01b038381166001600160a01b0319831681178455604051919092169283917f8be0079c531659141344cd1fd0a4f28419497f9722a3daafe3b4186f6b6457e09190a35050565b606081600003612a465750506040805180820190915260018152600360fc1b602082015290565b8160005b8115612a705780612a5a816130db565b9150612a699050600a83613166565b9150612a4a565b6000816001600160401b03811115612a8a57612a8a612cda565b6040519080825280601f01601f191660200182016040528015612ab4576020820181803683370190505b5090505b8415612b1f57612ac96001836130f4565b9150612ad6600a86614629565b612ae190603061317a565b60f81b818381518110612af657612af6613a00565b60200101906001600160f81b031916908160001a905350612b18600a86613166565b9450612ab8565b949350505050565b600554604051633841fae160e01b81526004810183905260009182916001600160a01b0390911690633841fae190602401600060405180830381865afa158015612b75573d6000803e3d6000fd5b505050506040513d6000823e601f3d908101601f19168201604052612b9d919081019061465e565b905060005b8451811015612c36576000805b8351811015612c0c57838181518110612bca57612bca613a00565b6020026020010151878481518110612be457612be4613a00565b602002602001015103612bfa5760019150612c0c565b80612c04816130db565b915050612baf565b50801515600003612c235760009350505050610517565b5080612c2e816130db565b915050612ba2565b506001949350505050565b600060208284031215612c5357600080fd5b5035919050565b60008060408385031215612c6d57600080fd5b50508035926020909101359150565b60008060008060808587031215612c9257600080fd5b5050823594602084013594506040840135936060013592509050565b600080600060608486031215612cc357600080fd5b505081359360208301359350604090920135919050565b634e487b7160e01b600052604160045260246000fd5b604080519081016001600160401b0381118282101715612d1257612d12612cda565b60405290565b6040516101c081016001600160401b0381118282101715612d1257612d12612cda565b60405160a081016001600160401b0381118282101715612d1257612d12612cda565b60405161028081016001600160401b0381118282101715612d1257612d12612cda565b60405160e081016001600160401b0381118282101715612d1257612d12612cda565b604051601f8201601f191681016001600160401b0381118282101715612dca57612dca612cda565b604052919050565b60ff811681146128aa57600080fd5b600060408284031215612df357600080fd5b612dfb612cf0565b90508135612e0881612dd2565b81526020820135612e1881612dd2565b602082015292915050565b60008060608385031215612e3657600080fd5b82359150612e478460208501612de1565b90509250929050565b604081016105178284805160ff908116835260209182015116910152565b60006001600160401b03821115612e8757612e87612cda565b5060051b60200190565b600080600080600080600060e0888a031215612eac57600080fd5b8735965060208089013596506040890135600c8110612eca57600080fd5b9550606089013560028110612ede57600080fd5b94506080890135935060a0890135925060c08901356001600160401b03811115612f0757600080fd5b8901601f81018b13612f1857600080fd5b8035612f2b612f2682612e6e565b612da2565b81815260059190911b8201830190838101908d831115612f4a57600080fd5b928401925b82841015612f6857833582529284019290840190612f4f565b809550505050505092959891949750929550565b60008060408385031215612f8f57600080fd5b8235612f9a81612dd2565b91506020830135612faa81612dd2565b809150509250929050565b6001600160a01b03811681146128aa57600080fd5b600080600080600080600060e0888a031215612fe557600080fd5b8735612ff081612fb5565b9650602088013561300081612fb5565b9550604088013561301081612fb5565b9450606088013561302081612fb5565b9350608088013561303081612fb5565b925060a088013561304081612fb5565b915060c088013561305081612fb5565b8091505092959891949750929550565b6000806080838503121561307357600080fd5b61307d8484612de1565b9150612e478460408501612de1565b60006020828403121561309e57600080fd5b81356107d081612fb5565b634e487b7160e01b600052601160045260246000fd5b6000600160ff1b82016130d4576130d46130a9565b5060000390565b6000600182016130ed576130ed6130a9565b5060010190565b81810381811115610517576105176130a9565b8381526080810161312b6020830185805160ff908116835260209182015116910152565b826060830152949350505050565b8082028115828204841417610517576105176130a9565b634e487b7160e01b600052601260045260246000fd5b60008261317557613175613150565b500490565b80820180821115610517576105176130a9565b81810360008312801583831316838312821617156131ad576131ad6130a9565b5092915050565b60ff8281168282160390811115610517576105176130a9565b60ff8181168382160190811115610517576105176130a9565b60005b838110156132015781810151838201526020016131e9565b50506000910152565b72024b73b30b634b2103234b932b1ba34b7b71d1606d1b8152600082516132388160138501602087016131e6565b9190910160130192915050565b60208152600082518060208401526132648160408501602087016131e6565b601f01601f19169190910160400192915050565b600181815b808511156132b3578160001904821115613299576132996130a9565b808516156132a657918102915b93841c939080029061327d565b509250929050565b6000826132ca57506001610517565b816132d757506000610517565b81600181146132ed57600281146132f757613313565b6001915050610517565b60ff841115613308576133086130a9565b50506001821b610517565b5060208310610133831016604e8410600b8410161715613336575081810a610517565b6133408383613278565b8060001904821115613354576133546130a9565b029392505050565b60006107d083836132bb565b805161337381612fb5565b919050565b8051600081900b811461337357600080fd5b8051801515811461337357600080fd5b60006101008083850312156133ae57600080fd5b604051908101906001600160401b03821181831017156133d0576133d0612cda565b816040528092506133e084613378565b81526133ee60208501613378565b60208201526133ff60408501613378565b604082015261341060608501613378565b606082015261342160808501613378565b608082015261343260a08501613378565b60a082015261344360c08501613378565b60c082015261345460e0850161338a565b60e0820152505092915050565b805161337381612dd2565b60006040828403121561347e57600080fd5b613486612cf0565b9050815161349381612dd2565b81526020820151612e1881612dd2565b600082601f8301126134b457600080fd5b815160206134c4612f2683612e6e565b82815260059290921b840181019181810190868411156134e357600080fd5b8286015b848110156135075780516134fa81612dd2565b83529183019183016134e7565b509695505050505050565b60006020828403121561352457600080fd5b81516001600160401b038082111561353b57600080fd5b908301906102e0828603121561355057600080fd5b613558612d18565b61356183613368565b81526020830151602082015260408301516040820152613584866060850161339a565b60608201526101606135988782860161346c565b60808301526101a06135ac8882870161346c565b60a08401526135be6101e08601613378565b60c08401526135d06102008601613461565b60e08401526135e26102208601613461565b6101008401526135f56102408601613461565b6101208401526102608501518481111561360e57600080fd5b61361a898288016134a3565b6101408501525061362e6102808601613461565b8284015261363f6102a0860161338a565b6101808401526102c085015181840152505080935050505092915050565b600082601f83011261366e57600080fd5b8151602061367e612f2683612e6e565b82815260059290921b8401810191818101908684111561369d57600080fd5b8286015b8481101561350757805183529183019183016136a1565b6000608082840312156136ca57600080fd5b604051608081018181106001600160401b03821117156136ec576136ec612cda565b806040525080915082516136ff81612dd2565b8152602083015161370f81612dd2565b6020820152604083015161372281612dd2565b6040820152606083015161373581612dd2565b6060919091015292915050565b80516006811061337357600080fd5b600082601f83011261376257600080fd5b81516020613772612f2683612e6e565b82815260c0928302850182019282820191908785111561379157600080fd5b8387015b858110156138025781818a0312156137ad5760008081fd5b6137b5612d3b565b815181528582015186820152604080830151600981106137d55760008081fd5b9082015260606137e78b84830161346c565b9082015260a082015160808201528452928401928101613795565b5090979650505050505050565b60006020828403121561382157600080fd5b81516001600160401b038082111561383857600080fd5b90830190610300828603121561384d57600080fd5b613855612d5d565b61385e8361338a565b815261386c6020840161338a565b602082015260408301518281111561388357600080fd5b61388f8782860161365d565b604083015250606083015160608201526080830151608082015260a083015160a08201526138c08660c085016136b8565b60c08201526101408084015160e083015261016080850151610100840152610180808601516101208501526101a06138f9818801613742565b848601526101c0935061390e8a85890161346c565b838601526102009250828701518681111561392857600080fd5b6139348b828a0161365d565b83870152506102209150818701518681111561394f57600080fd5b61395b8b828a0161365d565b828701525050610240808701518681111561397557600080fd5b6139818b828a0161365d565b85870152506102609350838701518681111561399c57600080fd5b6139a88b828a0161365d565b6101e087015250610280870151838601526102a0870151828601526102c0870151818601525050506102e0840151838111156139e357600080fd5b6139ef88828701613751565b918301919091525095945050505050565b634e487b7160e01b600052603260045260246000fd5b634e487b7160e01b600052602160045260246000fd5b602080825260169082015275486f6c64696e6720746f6f206d616e79206974656d7360501b604082015260600190565b600581106128aa57600080fd5b805161337381613a5c565b600060608284031215613a8657600080fd5b604051606081018181106001600160401b0382111715613aa857613aa8612cda565b6040528251613ab681612dd2565b81526020830151613ac681612dd2565b60208201526040830151613ad981613a5c565b60408201529392505050565b86815260ff8681166020830152851660408201526060810184905260c0810160058410613b1457613b14613a16565b608082019390935260a00152949350505050565b60006101408284031215613b3b57600080fd5b613b43612d80565b90508151613b5081612dd2565b8152602082810151613b6181612dd2565b82820152605f83018413613b7457600080fd5b604051608081018181106001600160401b0382111715613b9657613b96612cda565b6040528060c0850186811115613bab57600080fd5b604086015b81811015613bc75780518352918401918401613bb0565b50826040860152613bd78161338a565b606086015250505050613bec60e0830161338a565b6080820152613bfe610100830161338a565b60a0820152613c10610120830161338a565b60c082015292915050565b60006020808385031215613c2e57600080fd5b82516001600160401b0380821115613c4557600080fd5b818501915085601f830112613c5957600080fd5b8151613c67612f2682612e6e565b81815260059190911b83018401908481019088831115613c8657600080fd5b8585015b83811015613d1d57805185811115613ca157600080fd5b8601603f81018b13613cb257600080fd5b87810151613cc2612f2682612e6e565b8181526101409182028301604001918a820191908e841115613ce45760008081fd5b6040850194505b83851015613d0c57613cfd8f86613b28565b835293840193918b0191613ceb565b508652505050918601918601613c8a565b5098975050505050505050565b60006101408284031215613d3d57600080fd5b6107d08383613b28565b600060a08284031215613d5957600080fd5b60405160a081018181106001600160401b0382111715613d7b57613d7b612cda565b604052613d8783613742565b8152602083015160208201526040830151613da181612dd2565b60408201526060830151613db481612dd2565b6060820152613dc56080840161338a565b60808201529392505050565b600082601f830112613de257600080fd5b81516020613df2612f2683612e6e565b82815260069290921b84018101918181019086841115613e1157600080fd5b8286015b848110156135075760408189031215613e2e5760008081fd5b613e36612cf0565b815160178110613e465760008081fd5b81528185015185820152835291830191604001613e15565b600060208284031215613e7057600080fd5b81516001600160401b0380821115613e8757600080fd5b9083019060e08286031215613e9b57600080fd5b613ea3612d80565b82518152613eb36020840161338a565b6020820152613ec460408401613461565b6040820152613ed560608401613461565b6060820152608083015182811115613eec57600080fd5b613ef887828601613dd1565b60808301525060a083015182811115613f1057600080fd5b613f1c87828601613dd1565b60a08301525060c083015182811115613f3457600080fd5b613f4087828601613dd1565b60c08301525095945050505050565b600081518084526020808501945080840160005b83811015613f7f57815187529582019590820190600101613f63565b509495945050505050565b85815260a060208201526000613fa360a0830187613f4f565b60ff9586166040840152939094166060820152608001529392505050565b80516003811061337357600080fd5b8051600b811061337357600080fd5b60006020808385031215613ff257600080fd5b82516001600160401b0381111561400857600080fd5b8301601f8101851361401957600080fd5b8051614027612f2682612e6e565b8181526101e0918202830184019184820191908884111561404757600080fd5b938501935b8385101561413e5780858a0312156140645760008081fd5b61406c612d18565b85518152868601518782015260408087015190820152606080870151908201526080614099818801613368565b9082015260a0868101519082015260c06140b4818801613fc1565b9082015260e06140c5878201613461565b908201526101006140d7878201613461565b908201526101206140e9878201613fd0565b908201526101406140fb878201613461565b908201526101608681015190820152610180614118818801613a69565b908201526101a061412b8b88830161346c565b908201528352938401939185019161404c565b50979650505050505050565b8381526060602082015260006141636060830185613f4f565b905060018060a01b0383166040830152949350505050565b60006020828403121561418d57600080fd5b5051919050565b85815260208082018690526040820185905260608201849052825160ff9081166080840152908301511660a082015260c081015b9695505050505050565b600681106141e2576141e2613a16565b9052565b600081518084526020808501945080840160005b83811015613f7f5781518051885283810151848901526040808201516009811061422657614226613a16565b90890152606081810151805160ff908116838c015260208201511660808b015250506080015160a088015260c090960195908201906001016141fa565b600081518084526020808501945080840160005b83811015613f7f57815160ff1687529582019590820190600101614277565b80516001600160a01b0316825260006102e06020830151602085015260408301516040850152606083015161432c60608601828051600081810b84526020830151810b60208501526040830151810b60408501526060830151810b60608501526080830151810b608085015260a0830151810b60a085015260c0830151810b60c0850152505060e0810151151560e08301525050565b50608083015161016061435181870183805160ff908116835260209182015116910152565b60a085015191506101a061437781880184805160ff908116835260209182015116910152565b60c0860151925061438e6101e088018460000b9052565b60e086015160ff908116610200890152610100870151811661022089015261012087015116610240880152610140860151610260880185905292506143d584880184614263565b93508186015192506143ed61028088018460ff169052565b61018086015115156102a0880152909401516102c0909501949094529392505050565b600c81106141e2576141e2613a16565b85815260a0602082015261443960a08201865115159052565b6000602086015161444e60c084018215159052565b5060408601516103008060e085015261446b6103a0850183613f4f565b91506060880151610100818187015260808a01519150610120828188015260a08b01519250610140838189015260c08c015193506101606144db818a018660ff815116825260ff602082015116602083015260ff604082015116604083015260ff60608201511660608301525050565b60e08d01516101e08a810191909152938d0151610200808b0191909152928d0151610220808b0191909152918d015194509192909161024091614520838b01876141d2565b908d01519450610260906145468a830187805160ff908116835260209182015116910152565b6101808e01519550609f19808b8a03016102a08c01526145668988613f4f565b98506101a08f01519650808b8a03016102c08c01526145858988613f4f565b98506101c08f01519650808b8a03016102e08c01526145a48988613f4f565b9850818f01519650808b8a0301888c01526145bf8988613f4f565b958f01516103208c0152938e01516103408b015250908c01516103608901528b015187830390910161038088015290935091506145fe905082826141e6565b91505085604084015282810360608401526146198186614296565b9150506141c86080830184614410565b60008261463857614638613150565b500690565b600082810b9082900b03607f198112607f82131715610517576105176130a9565b60006020828403121561467057600080fd5b81516001600160401b0381111561468657600080fd5b612b1f8482850161365d56fea2646970667358221220232be3a501525e5675bb2e0f8eeaefe775e74de8b3b7d7ae21fcf5326b763bc064736f6c63430008110033",
  "devdoc": {
    "kind": "dev",
    "methods": {
      "owner()": {
        "details": "Returns the address of the current owner."
      },
      "renounceOwnership()": {
        "details": "Leaves the contract without owner. It will not be possible to call `onlyOwner` functions anymore. Can only be called by the current owner. NOTE: Renouncing ownership will leave the contract without an owner, thereby removing any functionality that is only available to the owner."
      },
      "transferOwnership(address)": {
        "details": "Transfers ownership of the contract to a new account (`newOwner`). Can only be called by the current owner."
      }
    },
    "version": 1
  },
  "userdoc": {
    "kind": "user",
    "methods": {},
    "version": 1
  },
  "storageLayout": {
    "storage": [
      {
        "astId": 7,
        "contract": "contracts/Actions.sol:Actions",
        "label": "_owner",
        "offset": 0,
        "slot": "0",
        "type": "t_address"
      },
      {
        "astId": 19678,
        "contract": "contracts/Actions.sol:Actions",
        "label": "TODO_randomSeed",
        "offset": 0,
        "slot": "1",
        "type": "t_uint256"
      },
      {
        "astId": 2715,
        "contract": "contracts/Actions.sol:Actions",
        "label": "chars",
        "offset": 0,
        "slot": "2",
        "type": "t_contract(CharInterface)2415"
      },
      {
        "astId": 2718,
        "contract": "contracts/Actions.sol:Actions",
        "label": "maps",
        "offset": 0,
        "slot": "3",
        "type": "t_contract(MapInterface)2510"
      },
      {
        "astId": 2721,
        "contract": "contracts/Actions.sol:Actions",
        "label": "games",
        "offset": 0,
        "slot": "4",
        "type": "t_contract(GamesInterface)2563"
      },
      {
        "astId": 2724,
        "contract": "contracts/Actions.sol:Actions",
        "label": "items",
        "offset": 0,
        "slot": "5",
        "type": "t_contract(ItemsInterface)2614"
      },
      {
        "astId": 2727,
        "contract": "contracts/Actions.sol:Actions",
        "label": "bcEvents",
        "offset": 0,
        "slot": "6",
        "type": "t_contract(EventsInterface)2655"
      },
      {
        "astId": 2730,
        "contract": "contracts/Actions.sol:Actions",
        "label": "players",
        "offset": 0,
        "slot": "7",
        "type": "t_contract(PlayersInterface)2708"
      },
      {
        "astId": 2732,
        "contract": "contracts/Actions.sol:Actions",
        "label": "charsAddress",
        "offset": 0,
        "slot": "8",
        "type": "t_address"
      }
    ],
    "types": {
      "t_address": {
        "encoding": "inplace",
        "label": "address",
        "numberOfBytes": "20"
      },
      "t_contract(CharInterface)2415": {
        "encoding": "inplace",
        "label": "contract CharInterface",
        "numberOfBytes": "20"
      },
      "t_contract(EventsInterface)2655": {
        "encoding": "inplace",
        "label": "contract EventsInterface",
        "numberOfBytes": "20"
      },
      "t_contract(GamesInterface)2563": {
        "encoding": "inplace",
        "label": "contract GamesInterface",
        "numberOfBytes": "20"
      },
      "t_contract(ItemsInterface)2614": {
        "encoding": "inplace",
        "label": "contract ItemsInterface",
        "numberOfBytes": "20"
      },
      "t_contract(MapInterface)2510": {
        "encoding": "inplace",
        "label": "contract MapInterface",
        "numberOfBytes": "20"
      },
      "t_contract(PlayersInterface)2708": {
        "encoding": "inplace",
        "label": "contract PlayersInterface",
        "numberOfBytes": "20"
      },
      "t_uint256": {
        "encoding": "inplace",
        "label": "uint256",
        "numberOfBytes": "32"
      }
    }
  }
}