{
  "address": "0x12Df7d81010134b7F191b6E22B42E8F9F91634F2",
  "abi": [
    {
      "anonymous": false,
      "inputs": [
        {
          "indexed": false,
          "internalType": "uint256",
          "name": "gameId",
          "type": "uint256"
        },
        {
          "indexed": false,
          "internalType": "uint256",
          "name": "playerId",
          "type": "uint256"
        },
        {
          "components": [
            {
              "internalType": "address",
              "name": "owner",
              "type": "address"
            },
            {
              "internalType": "uint256",
              "name": "characterId",
              "type": "uint256"
            },
            {
              "internalType": "uint256",
              "name": "id",
              "type": "uint256"
            },
            {
              "components": [
                {
                  "internalType": "int8",
                  "name": "health",
                  "type": "int8"
                },
                {
                  "internalType": "int8",
                  "name": "carry",
                  "type": "int8"
                },
                {
                  "internalType": "int8",
                  "name": "defense",
                  "type": "int8"
                },
                {
                  "internalType": "int8",
                  "name": "hack",
                  "type": "int8"
                },
                {
                  "internalType": "int8",
                  "name": "breach",
                  "type": "int8"
                },
                {
                  "internalType": "int8",
                  "name": "shoot",
                  "type": "int8"
                },
                {
                  "internalType": "int8",
                  "name": "melee",
                  "type": "int8"
                },
                {
                  "internalType": "bool",
                  "name": "hasGun",
                  "type": "bool"
                }
              ],
              "internalType": "struct BCTypes.Traits",
              "name": "currentTraits",
              "type": "tuple"
            },
            {
              "components": [
                {
                  "internalType": "uint8",
                  "name": "row",
                  "type": "uint8"
                },
                {
                  "internalType": "uint8",
                  "name": "col",
                  "type": "uint8"
                }
              ],
              "internalType": "struct BCTypes.Position",
              "name": "position",
              "type": "tuple"
            },
            {
              "components": [
                {
                  "internalType": "uint8",
                  "name": "row",
                  "type": "uint8"
                },
                {
                  "internalType": "uint8",
                  "name": "col",
                  "type": "uint8"
                }
              ],
              "internalType": "struct BCTypes.Position",
              "name": "lastPos",
              "type": "tuple"
            },
            {
              "internalType": "int8",
              "name": "healthDmgTaken",
              "type": "int8"
            },
            {
              "internalType": "uint8",
              "name": "armorDmgTaken",
              "type": "uint8"
            },
            {
              "internalType": "uint8",
              "name": "actionsTaken",
              "type": "uint8"
            },
            {
              "internalType": "uint8",
              "name": "dataTokens",
              "type": "uint8"
            },
            {
              "internalType": "uint8[]",
              "name": "currentEffects",
              "type": "uint8[]"
            },
            {
              "internalType": "uint8",
              "name": "numItemsHeld",
              "type": "uint8"
            },
            {
              "internalType": "bool",
              "name": "dead",
              "type": "bool"
            },
            {
              "internalType": "uint256",
              "name": "gameId",
              "type": "uint256"
            }
          ],
          "indexed": false,
          "internalType": "struct BCTypes.Player",
          "name": "player",
          "type": "tuple"
        },
        {
          "indexed": false,
          "internalType": "enum BCTypes.Action",
          "name": "action",
          "type": "uint8"
        }
      ],
      "name": "ActionCompleteEvent",
      "type": "event"
    },
    {
      "anonymous": false,
      "inputs": [
        {
          "indexed": false,
          "internalType": "uint256",
          "name": "gameId",
          "type": "uint256"
        },
        {
          "indexed": false,
          "internalType": "uint256",
          "name": "roll",
          "type": "uint256"
        },
        {
          "indexed": false,
          "internalType": "uint256",
          "name": "forValue",
          "type": "uint256"
        },
        {
          "indexed": false,
          "internalType": "uint256",
          "name": "against",
          "type": "uint256"
        }
      ],
      "name": "ChallengeEvent",
      "type": "event"
    },
    {
      "anonymous": false,
      "inputs": [
        {
          "indexed": false,
          "internalType": "uint256",
          "name": "gameId",
          "type": "uint256"
        },
        {
          "indexed": false,
          "internalType": "uint256",
          "name": "roll",
          "type": "uint256"
        }
      ],
      "name": "DiceRollEvent",
      "type": "event"
    },
    {
      "anonymous": false,
      "inputs": [
        {
          "indexed": true,
          "internalType": "address",
          "name": "previousOwner",
          "type": "address"
        },
        {
          "indexed": true,
          "internalType": "address",
          "name": "newOwner",
          "type": "address"
        }
      ],
      "name": "OwnershipTransferred",
      "type": "event"
    },
    {
      "inputs": [
        {
          "internalType": "int256",
          "name": "x",
          "type": "int256"
        }
      ],
      "name": "abs",
      "outputs": [
        {
          "internalType": "int256",
          "name": "",
          "type": "int256"
        }
      ],
      "stateMutability": "pure",
      "type": "function"
    },
    {
      "inputs": [],
      "name": "bcEvents",
      "outputs": [
        {
          "internalType": "contract EventsInterface",
          "name": "",
          "type": "address"
        }
      ],
      "stateMutability": "view",
      "type": "function"
    },
    {
      "inputs": [],
      "name": "chars",
      "outputs": [
        {
          "internalType": "contract CharInterface",
          "name": "",
          "type": "address"
        }
      ],
      "stateMutability": "view",
      "type": "function"
    },
    {
      "inputs": [],
      "name": "charsAddress",
      "outputs": [
        {
          "internalType": "address",
          "name": "",
          "type": "address"
        }
      ],
      "stateMutability": "view",
      "type": "function"
    },
    {
      "inputs": [
        {
          "internalType": "uint256",
          "name": "_gameId",
          "type": "uint256"
        },
        {
          "internalType": "uint256",
          "name": "_playerId",
          "type": "uint256"
        }
      ],
      "name": "debugMovePlayerForTesting",
      "outputs": [],
      "stateMutability": "nonpayable",
      "type": "function"
    },
    {
      "inputs": [
        {
          "internalType": "uint256",
          "name": "_gameId",
          "type": "uint256"
        },
        {
          "internalType": "uint256",
          "name": "_playerId",
          "type": "uint256"
        },
        {
          "internalType": "uint256",
          "name": "_row",
          "type": "uint256"
        },
        {
          "internalType": "uint256",
          "name": "_col",
          "type": "uint256"
        }
      ],
      "name": "debugMovePlayerToRoom",
      "outputs": [],
      "stateMutability": "nonpayable",
      "type": "function"
    },
    {
      "inputs": [
        {
          "internalType": "uint256",
          "name": "_gameId",
          "type": "uint256"
        },
        {
          "internalType": "uint256",
          "name": "_playerId",
          "type": "uint256"
        },
        {
          "internalType": "enum BCTypes.Action",
          "name": "_action",
          "type": "uint8"
        },
        {
          "internalType": "enum BCTypes.Followthrough",
          "name": "_followthrough",
          "type": "uint8"
        },
        {
          "internalType": "uint256",
          "name": "_1stDirection",
          "type": "uint256"
        },
        {
          "internalType": "uint256",
          "name": "_2ndDirection",
          "type": "uint256"
        },
        {
          "internalType": "uint256[]",
          "name": "_ids",
          "type": "uint256[]"
        }
      ],
      "name": "doAction",
      "outputs": [],
      "stateMutability": "payable",
      "type": "function"
    },
    {
      "inputs": [],
      "name": "games",
      "outputs": [
        {
          "internalType": "contract GamesInterface",
          "name": "",
          "type": "address"
        }
      ],
      "stateMutability": "view",
      "type": "function"
    },
    {
      "inputs": [
        {
          "components": [
            {
              "internalType": "uint8",
              "name": "row",
              "type": "uint8"
            },
            {
              "internalType": "uint8",
              "name": "col",
              "type": "uint8"
            }
          ],
          "internalType": "struct BCTypes.Position",
          "name": "_firstRoom",
          "type": "tuple"
        },
        {
          "components": [
            {
              "internalType": "uint8",
              "name": "row",
              "type": "uint8"
            },
            {
              "internalType": "uint8",
              "name": "col",
              "type": "uint8"
            }
          ],
          "internalType": "struct BCTypes.Position",
          "name": "_secondRoom",
          "type": "tuple"
        }
      ],
      "name": "getDirectionBetween",
      "outputs": [
        {
          "internalType": "uint256",
          "name": "",
          "type": "uint256"
        }
      ],
      "stateMutability": "pure",
      "type": "function"
    },
    {
      "inputs": [
        {
          "internalType": "uint256",
          "name": "_gameId",
          "type": "uint256"
        }
      ],
      "name": "getEventBlocks",
      "outputs": [
        {
          "internalType": "uint256[]",
          "name": "",
          "type": "uint256[]"
        }
      ],
      "stateMutability": "view",
      "type": "function"
    },
    {
      "inputs": [
        {
          "internalType": "uint256",
          "name": "_direction",
          "type": "uint256"
        },
        {
          "components": [
            {
              "internalType": "uint8",
              "name": "row",
              "type": "uint8"
            },
            {
              "internalType": "uint8",
              "name": "col",
              "type": "uint8"
            }
          ],
          "internalType": "struct BCTypes.Position",
          "name": "_start",
          "type": "tuple"
        }
      ],
      "name": "getNeighborRoom",
      "outputs": [
        {
          "components": [
            {
              "internalType": "uint8",
              "name": "row",
              "type": "uint8"
            },
            {
              "internalType": "uint8",
              "name": "col",
              "type": "uint8"
            }
          ],
          "internalType": "struct BCTypes.Position",
          "name": "",
          "type": "tuple"
        }
      ],
      "stateMutability": "pure",
      "type": "function"
    },
    {
      "inputs": [
        {
          "internalType": "uint256",
          "name": "_traitNum",
          "type": "uint256"
        },
        {
          "internalType": "uint256",
          "name": "_subTraitNum",
          "type": "uint256"
        }
      ],
      "name": "getUIOffset",
      "outputs": [
        {
          "internalType": "uint256",
          "name": "",
          "type": "uint256"
        }
      ],
      "stateMutability": "pure",
      "type": "function"
    },
    {
      "inputs": [],
      "name": "items",
      "outputs": [
        {
          "internalType": "contract ItemsInterface",
          "name": "",
          "type": "address"
        }
      ],
      "stateMutability": "view",
      "type": "function"
    },
    {
      "inputs": [
        {
          "components": [
            {
              "internalType": "uint8",
              "name": "row",
              "type": "uint8"
            },
            {
              "internalType": "uint8",
              "name": "col",
              "type": "uint8"
            }
          ],
          "internalType": "struct BCTypes.Position",
          "name": "_pos1",
          "type": "tuple"
        },
        {
          "components": [
            {
              "internalType": "uint8",
              "name": "row",
              "type": "uint8"
            },
            {
              "internalType": "uint8",
              "name": "col",
              "type": "uint8"
            }
          ],
          "internalType": "struct BCTypes.Position",
          "name": "_pos2",
          "type": "tuple"
        }
      ],
      "name": "manhattanDistance",
      "outputs": [
        {
          "internalType": "uint256",
          "name": "",
          "type": "uint256"
        }
      ],
      "stateMutability": "pure",
      "type": "function"
    },
    {
      "inputs": [],
      "name": "maps",
      "outputs": [
        {
          "internalType": "contract MapInterface",
          "name": "",
          "type": "address"
        }
      ],
      "stateMutability": "view",
      "type": "function"
    },
    {
      "inputs": [
        {
          "internalType": "uint256",
          "name": "_min",
          "type": "uint256"
        },
        {
          "internalType": "uint256",
          "name": "_max",
          "type": "uint256"
        },
        {
          "internalType": "uint256",
          "name": "_val",
          "type": "uint256"
        },
        {
          "internalType": "uint256",
          "name": "_valMax",
          "type": "uint256"
        }
      ],
      "name": "normalizeToSmallRange",
      "outputs": [
        {
          "internalType": "uint8",
          "name": "",
          "type": "uint8"
        }
      ],
      "stateMutability": "pure",
      "type": "function"
    },
    {
      "inputs": [
        {
          "internalType": "uint256",
          "name": "_direction",
          "type": "uint256"
        }
      ],
      "name": "opposite",
      "outputs": [
        {
          "internalType": "uint256",
          "name": "",
          "type": "uint256"
        }
      ],
      "stateMutability": "pure",
      "type": "function"
    },
    {
      "inputs": [],
      "name": "owner",
      "outputs": [
        {
          "internalType": "address",
          "name": "",
          "type": "address"
        }
      ],
      "stateMutability": "view",
      "type": "function"
    },
    {
      "inputs": [],
      "name": "players",
      "outputs": [
        {
          "internalType": "contract PlayersInterface",
          "name": "",
          "type": "address"
        }
      ],
      "stateMutability": "view",
      "type": "function"
    },
    {
      "inputs": [],
      "name": "randKeccak",
      "outputs": [
        {
          "internalType": "bytes32",
          "name": "",
          "type": "bytes32"
        }
      ],
      "stateMutability": "nonpayable",
      "type": "function"
    },
    {
      "inputs": [],
      "name": "renounceOwnership",
      "outputs": [],
      "stateMutability": "nonpayable",
      "type": "function"
    },
    {
      "inputs": [
        {
          "internalType": "uint256",
          "name": "_gameId",
          "type": "uint256"
        },
        {
          "internalType": "uint256",
          "name": "_for",
          "type": "uint256"
        },
        {
          "internalType": "uint256",
          "name": "_against",
          "type": "uint256"
        }
      ],
      "name": "resolveChallenge",
      "outputs": [
        {
          "internalType": "bool",
          "name": "",
          "type": "bool"
        }
      ],
      "stateMutability": "nonpayable",
      "type": "function"
    },
    {
      "inputs": [
        {
          "internalType": "uint256",
          "name": "_gameId",
          "type": "uint256"
        }
      ],
      "name": "roll",
      "outputs": [
        {
          "internalType": "uint256",
          "name": "",
          "type": "uint256"
        }
      ],
      "stateMutability": "nonpayable",
      "type": "function"
    },
    {
      "inputs": [
        {
          "internalType": "address",
          "name": "_charAddress",
          "type": "address"
        },
        {
          "internalType": "address",
          "name": "_utilsAddress",
          "type": "address"
        },
        {
          "internalType": "address",
          "name": "_mapsAddress",
          "type": "address"
        },
        {
          "internalType": "address",
          "name": "_gamesAddress",
          "type": "address"
        },
        {
          "internalType": "address",
          "name": "_itemsAddress",
          "type": "address"
        },
        {
          "internalType": "address",
          "name": "_eventsAddress",
          "type": "address"
        },
        {
          "internalType": "address",
          "name": "_playersAddress",
          "type": "address"
        }
      ],
      "name": "setContractAddresses",
      "outputs": [],
      "stateMutability": "nonpayable",
      "type": "function"
    },
    {
      "inputs": [
        {
          "internalType": "bytes32",
          "name": "_hash",
          "type": "bytes32"
        },
        {
          "internalType": "uint256",
          "name": "_size",
          "type": "uint256"
        },
        {
          "internalType": "uint256",
          "name": "_offset",
          "type": "uint256"
        }
      ],
      "name": "sliceHashToSmallInt",
      "outputs": [
        {
          "internalType": "uint8",
          "name": "",
          "type": "uint8"
        }
      ],
      "stateMutability": "pure",
      "type": "function"
    },
    {
      "inputs": [
        {
          "internalType": "uint8",
          "name": "_min",
          "type": "uint8"
        },
        {
          "internalType": "uint8",
          "name": "_max",
          "type": "uint8"
        }
      ],
      "name": "smallIntBetweenVals",
      "outputs": [
        {
          "internalType": "uint8",
          "name": "",
          "type": "uint8"
        }
      ],
      "stateMutability": "nonpayable",
      "type": "function"
    },
    {
      "inputs": [
        {
          "internalType": "address",
          "name": "newOwner",
          "type": "address"
        }
      ],
      "name": "transferOwnership",
      "outputs": [],
      "stateMutability": "nonpayable",
      "type": "function"
    }
  ],
  "transactionHash": "0xfe7a9a306ab95c14849b471f1b47f1c8c061bcd113aa59c36e2f1d17b647aee0",
  "args": [],
  "numDeployments": 1,
  "solcInputHash": "95fd6822a2af1851844f0c53e2691a42",
  "bytecode": "0x608060405260006001553480156200001657600080fd5b50620000223362000028565b62000078565b600080546001600160a01b038381166001600160a01b0319831681178455604051919092169283917f8be0079c531659141344cd1fd0a4f28419497f9722a3daafe3b4186f6b6457e09190a35050565b6145bd80620000886000396000f3fe60806040526004361061019c5760003560e01c80638214f222116100ec578063c06fad061161008a578063dc0b356411610064578063dc0b3564146104c9578063f10bff2b146104e9578063f2fde38b14610509578063fa3993c21461052957600080fd5b8063c06fad0614610469578063ce28613f14610489578063d72be09d146104a957600080fd5b8063955a015b116100c6578063955a015b146103f657806397f34c3f146104165780639fca1ee114610436578063a8ca85bb1461045657600080fd5b80638214f2221461038b5780638da5cb5b146103ab578063951fc3fe146103c957600080fd5b80634102b1a7116101595780635dc96967116101335780635dc969671461030657806364db84bf14610336578063715018a6146103565780637ddae1031461036b57600080fd5b80634102b1a714610292578063425c38d8146102b457806353011696146102d457600080fd5b80630e73c024146101a157806310a2cd0d146101d75780631b5ac4b51461020f5780631e1de2051461023d5780631f7b4f30146102525780633deaec2b14610272575b600080fd5b3480156101ad57600080fd5b506101c16101bc366004612de5565b610549565b6040516101ce9190612e39565b60405180910390f35b3480156101e357600080fd5b506003546101f7906001600160a01b031681565b6040516001600160a01b0390911681526020016101ce565b34801561021b57600080fd5b5061022f61022a366004612de5565b610569565b6040519081526020016101ce565b34801561024957600080fd5b5061022f610585565b34801561025e57600080fd5b5061022f61026d366004612de5565b6105fd565b34801561027e57600080fd5b506004546101f7906001600160a01b031681565b34801561029e57600080fd5b506102b26102ad366004612e4c565b610659565b005b3480156102c057600080fd5b506102b26102cf366004612e6e565b6106dc565b3480156102e057600080fd5b506102f46102ef366004612e6e565b610765565b60405160ff90911681526020016101ce565b34801561031257600080fd5b50610326610321366004612ea0565b6107a2565b60405190151581526020016101ce565b34801561034257600080fd5b5061022f610351366004612e4c565b61083f565b34801561036257600080fd5b506102b2610857565b34801561037757600080fd5b506007546101f7906001600160a01b031681565b34801561039757600080fd5b5061022f6103a6366004612de5565b61086b565b3480156103b757600080fd5b506000546001600160a01b03166101f7565b3480156103d557600080fd5b506103e96103e4366004613015565b6108ea565b6040516101ce9190613042565b34801561040257600080fd5b506005546101f7906001600160a01b031681565b34801561042257600080fd5b506102f4610431366004612ea0565b610a14565b34801561044257600080fd5b506009546101f7906001600160a01b031681565b6102b2610464366004613083565b610a3f565b34801561047557600080fd5b506006546101f7906001600160a01b031681565b34801561049557600080fd5b506102f46104a436600461316e565b61279e565b3480156104b557600080fd5b506102b26104c43660046131bc565b61284e565b3480156104d557600080fd5b506008546101f7906001600160a01b031681565b3480156104f557600080fd5b5061022f610504366004613252565b6128c7565b34801561051557600080fd5b506102b261052436600461327e565b612914565b34801561053557600080fd5b5061022f610544366004613252565b61298d565b600081815260026020526040902060609061056390612a55565b92915050565b6000808212156105815761057c826132b1565b610563565b5090565b6001805460009182610596836132cd565b91905055506001546001436105ab91906132e6565b40336040516020016105e293929190928352602083019190915260601b6bffffffffffffffffffffffff1916604082015260540190565b60405160208183030381529060405280519060200120905090565b60008061060c6001600661279e565b60ff1690507ffe34d093a460a16ee5fb374540914d1c734a17502c0c1a87b387c8d6097e1c51838260405161064b929190918252602082015260400190565b60405180910390a192915050565b610661612a62565b600554604080518082018252600080825260208201529051631751422560e01b81526001600160a01b03909216916317514225916106a69186919086906004016132f9565b600060405180830381600087803b1580156106c057600080fd5b505af11580156106d4573d6000803e3d6000fd5b505050505050565b6106e4612a62565b60055460408051808201825260ff8086168252841660208201529051631751422560e01b81526001600160a01b039092169163175142259161072d9188919088906004016132f9565b600060405180830381600087803b15801561074757600080fd5b505af115801561075b573d6000803e3d6000fd5b5050505050505050565b60008061077286866132e6565b9050600083610781868461332b565b61078b9190613358565b9050610797878261336c565b979650505050505050565b6000806107ae856105fd565b6040805187815260208101839052908101869052606081018590529091507f75b6a8325595f91135e07382840634226793c68c9e59623da7e10d7ad3d95b959060800160405180910390a18060010361080b576000915050610838565b600383610818868461336c565b610822919061337f565b1315610832576001915050610838565b60009150505b9392505050565b60008161084d84600461332b565b610838919061336c565b61085f612a62565b6108696000612abc565b565b60008160000361087d57506001919050565b8160010361088d57506000919050565b8160020361089d57506003919050565b816003036108ad57506002919050565b60405162461bcd60e51b815260206004820152600d60248201526c2130b2103234b932b1ba34b7b760991b60448201526064015b60405180910390fd5b60408051808201909152600080825260208201528260000361093c5760405180604001604052806001846000015161092291906133a6565b60ff168152602001836020015160ff168152509050610563565b826001036109605760405180604001604052808360000151600161092291906133bf565b8260020361099d576040518060400160405280836000015160ff1681526020018360200151600161099191906133bf565b60ff1690529050610563565b826003036109ce576040518060400160405280836000015160ff1681526020016001846020015161099191906133a6565b60006109d984612b0c565b6040516020016109e991906133fc565b60405160208183030381529060405290508060405162461bcd60e51b81526004016108e19190613437565b600080826001610a2586600261354e565b610a2f91906132e6565b901b8516831c9150509392505050565b6008546040516310f67fb360e01b8152600481018890526000916001600160a01b0316906310f67fb390602401600060405180830381865afa158015610a89573d6000803e3d6000fd5b505050506040513d6000823e601f3d908101601f19168201604052610ab19190810190613704565b600554604051630dfd338360e31b8152600481018b90529192506000916001600160a01b0390911690636fe99c1890602401600060405180830381865afa158015610b00573d6000803e3d6000fd5b505050506040513d6000823e601f3d908101601f19168201604052610b289190810190613a12565b9050806101200151600014610b7f5760405162461bcd60e51b815260206004820152601860248201527f4d757374207265736f6c7665206576656e74206669727374000000000000000060448201526064016108e1565b602081015115610bc75760405162461bcd60e51b81526020600482015260136024820152722334b734b9b4103232b734bd32b7103a3ab93760691b60448201526064016108e1565b8051610c075760405162461bcd60e51b815260206004820152600f60248201526e47616d65206e6f742061637469766560881b60448201526064016108e1565b81516001600160a01b03163314610c605760405162461bcd60e51b815260206004820152601760248201527f53656e646572206e6f7420706c61796572206f776e657200000000000000000060448201526064016108e1565b600382610100015160ff1610610caa5760405162461bcd60e51b815260206004820152600f60248201526e139bc81858dd1a5bdb9cc81b19599d608a1b60448201526064016108e1565b8060400151816060015181518110610cc457610cc4613c03565b60200260200101518814610d0a5760405162461bcd60e51b815260206004820152600d60248201526c2737ba103cb7bab9103a3ab93760991b60448201526064016108e1565b6000600388600c811115610d2057610d20613c19565b03610d5d5782606001516020015160000b83610160015160000b1315610d585760405162461bcd60e51b81526004016108e190613c2f565b6126cf565b600288600c811115610d7157610d71613c19565b036113205782606001516020015160000b83610160015160000b1315610da95760405162461bcd60e51b81526004016108e190613c2f565b6004805460e084015160808601518051602090910151604051630dd43b9b60e31b81529485019290925260ff9081166024850152166044830152606482018890526000916001600160a01b0390911690636ea1dcd890608401606060405180830381865afa158015610e1f573d6000803e3d6000fd5b505050506040513d601f19601f82011682018060405250810190610e439190613c77565b9050600281604001516004811115610e5d57610e5d613c19565b1480610e7e5750600381604001516004811115610e7c57610e7c613c19565b145b80610e8e5750602081015160ff16155b610ee65760405162461bcd60e51b815260206004820152602360248201527f31737420446f6f72206e6f74206f70656e2f62726561636865642f756e6c6f636044820152621ad95960ea1b60648201526084016108e1565b600181604001516004811115610efe57610efe613c19565b03610f80576004805460e085015160808701518051602090910151604051635921522360e01b81526001600160a01b0390941694635921522394610f4d949392918e9160029160009101613ce8565b600060405180830381600087803b158015610f6757600080fd5b505af1158015610f7b573d6000803e3d6000fd5b505050505b6000610f908886608001516108ea565b90506001896001811115610fa657610fa6613c19565b036112a2576000610fb788836108ea565b6004805460e088015185516020870151604051630dd43b9b60e31b81529485019290925260ff9081166024850152166044830152606482018b90529192506000916001600160a01b031690636ea1dcd890608401606060405180830381865afa158015611028573d6000803e3d6000fd5b505050506040513d601f19601f8201168201806040525081019061104c9190613c77565b905060028160400151600481111561106657611066613c19565b1480611087575060038160400151600481111561108557611085613c19565b145b806110975750602081015160ff16155b6110ef5760405162461bcd60e51b815260206004820152602360248201527f326e6420446f6f72206e6f74206f70656e2f62726561636865642f756e6c6f636044820152621ad95960ea1b60648201526084016108e1565b6004805460e0880151604051630f78220b60e11b8152928301526000916001600160a01b0390911690631ef0441690602401600060405180830381865afa15801561113e573d6000803e3d6000fd5b505050506040513d6000823e601f3d908101601f191682016040526111669190810190613e1e565b9050600281856000015160ff168151811061118357611183613c03565b6020026020010151856020015160ff16815181106111a3576111a3613c03565b60200260200101516000015160ff16116111f35760405162461bcd60e51b8152602060048201526011602482015270149bdbdb481b9bdd08195e1c1b1bdc9959607a1b60448201526064016108e1565b60018260400151600481111561120b5761120b613c19565b0361129c57600460009054906101000a90046001600160a01b03166001600160a01b031663592152238860e00151866000015187602001518e600260006040518763ffffffff1660e01b815260040161126996959493929190613ce8565b600060405180830381600087803b15801561128357600080fd5b505af1158015611297573d6000803e3d6000fd5b505050505b50909150505b600560009054906101000a90046001600160a01b03166001600160a01b031663175142258d838e6040518463ffffffff1660e01b81526004016112e7939291906132f9565b600060405180830381600087803b15801561130157600080fd5b505af1158015611315573d6000803e3d6000fd5b5050505050506126cf565b600088600c81111561133457611334613c19565b0361159c5782606001516020015160000b83610160015160000b131561136c5760405162461bcd60e51b81526004016108e190613c2f565b6004805460e084015160808601518051602090910151604051630dd43b9b60e31b81529485019290925260ff9081166024850152166044830152606482018890526000916001600160a01b0390911690636ea1dcd890608401606060405180830381865afa1580156113e2573d6000803e3d6000fd5b505050506040513d601f19601f820116820180604052508101906114069190613c77565b905060018160400151600481111561142057611420613c19565b1461145f5760405162461bcd60e51b815260206004820152600f60248201526e111bdbdc881b9bdd0818db1bdcd959608a1b60448201526064016108e1565b61147c8b85606001516060015160ff16836020015160ff166107a2565b15611596576004805460e085015160808701518051602090910151604051635921522360e01b81526001600160a01b03909416946359215223946114cb949392918e9160029160009101613ce8565b600060405180830381600087803b1580156114e557600080fd5b505af11580156114f9573d6000803e3d6000fd5b5060019250611506915050565b88600181111561151857611518613c19565b036115965760055460808501516001600160a01b03909116906317514225908d90611544908b906108ea565b8d6040518463ffffffff1660e01b8152600401611563939291906132f9565b600060405180830381600087803b15801561157d57600080fd5b505af1158015611591573d6000803e3d6000fd5b505050505b506126cf565b600188600c8111156115b0576115b0613c19565b036117475782606001516020015160000b83610160015160000b13156115e85760405162461bcd60e51b81526004016108e190613c2f565b6004805460e084015160808601518051602090910151604051630dd43b9b60e31b81529485019290925260ff9081166024850152166044830152606482018890526000916001600160a01b0390911690636ea1dcd890608401606060405180830381865afa15801561165e573d6000803e3d6000fd5b505050506040513d601f19601f820116820180604052508101906116829190613c77565b905060018160400151600481111561169c5761169c613c19565b146116db5760405162461bcd60e51b815260206004820152600f60248201526e111bdbdc881b9bdd0818db1bdcd959608a1b60448201526064016108e1565b6116f88b85606001516080015160ff16836000015160ff166107a2565b15611596576004805460e085015160808701518051602090910151604051635921522360e01b81526001600160a01b03909416946359215223946114cb949392918e9160039160009101613ce8565b600488600c81111561175b5761175b613c19565b03611c0057506004805460e08301516080850151805160209091015160405163f9dfbfcb60e01b81529485019290925260ff90811660248501521660448301526001916000916001600160a01b03169063f9dfbfcb9060640161014060405180830381865afa1580156117d2573d6000803e3d6000fd5b505050506040513d601f19601f820116820180604052508101906117f69190613f2d565b6080810151909150156118415760405162461bcd60e51b8152602060048201526013602482015272149bdbdb48185b1c9958591e481b1bdbdd1959606a1b60448201526064016108e1565b6004805460e08501516080870151805160209091015160405162a1871b60e21b81529485019290925260ff90811660248501521660448301526000916001600160a01b03909116906302861c6c9060640160a060405180830381865afa1580156118af573d6000803e3d6000fd5b505050506040513d601f19601f820116820180604052508101906118d39190613f4a565b90506000816060015160ff1611806118f257506000816040015160ff16115b6119365760405162461bcd60e51b815260206004820152601560248201527443616e2774206c6f6f7420656d70747920726f6f6d60581b60448201526064016108e1565b64174876e800816040015160ff1661194e919061332b565b341461199c5760405162461bcd60e51b815260206004820152601860248201527f57726f6e67207061796d656e7420696e20616374696f6e73000000000000000060448201526064016108e1565b6004805460e08601516080880151805160209091015160405163086e529d60e41b81529485019290925260ff90811660248501521660448301526001600160a01b0316906386e529d090606401600060405180830381600087803b158015611a0357600080fd5b505af1158015611a17573d6000803e3d6000fd5b50506008546060840151604051632da41c6560e21b81526001600160a01b03909216935063b69071949250611a5d918f919060040191825260ff16602082015260400190565b600060405180830381600087803b158015611a7757600080fd5b505af1158015611a8b573d6000803e3d6000fd5b5050505060005b816040015160ff16811015611b5457600660009054906101000a90046001600160a01b03166001600160a01b0316630cc0db5364174876e8008e89600001518a6101a001516040518563ffffffff1660e01b8152600401611b0f939291909283526001600160a01b03919091166020830152604082015260600190565b6000604051808303818588803b158015611b2857600080fd5b505af1158015611b3c573d6000803e3d6000fd5b50505050508080611b4c906132cd565b915050611a92565b50600854604082810151905163fe23e2df60e01b8152600481018e905260ff90911660248201526001600160a01b039091169063fe23e2df90604401600060405180830381600087803b158015611baa57600080fd5b505af1158015611bbe573d6000803e3d6000fd5b50506008546020880151604051630f96f55d60e41b81526001600160a01b03909216935063f96f55d092506112e7918f90600401918252602082015260400190565b600588600c811115611c1457611c14613c19565b03611e415782606001516020015160000b83610160015160000b1315611c4c5760405162461bcd60e51b81526004016108e190613c2f565b6004805460e08401516080860151805160209091015160405162a1871b60e21b81529485019290925260ff90811660248501521660448301526000916001600160a01b03909116906302861c6c9060640160a060405180830381865afa158015611cba573d6000803e3d6000fd5b505050506040513d601f19601f82011682018060405250810190611cde9190613f4a565b600754602082015160405163c82c37b960e01b81529293506000926001600160a01b039092169163c82c37b991611d1b9160040190815260200190565b600060405180830381865afa158015611d38573d6000803e3d6000fd5b505050506040513d6000823e601f3d908101601f19168201604052611d609190810190614061565b9050806020015115156001151514611db05760405162461bcd60e51b8152602060048201526013602482015272115d995b9d081b9bdd081c195c9b585b995b9d606a1b60448201526064016108e1565b600860009054906101000a90046001600160a01b03166001600160a01b031663ed8619618c8e8760e001518960800151876020015160006040518763ffffffff1660e01b81526004016112e7969594939291909586526020808701959095526040860193909352815160ff9081166060870152919093015116608084015260a083019190915260c082015260e00190565b600688600c811115611e5557611e55613c19565b03611e8d5782606001516020015160000b83610160015160000b1315610d585760405162461bcd60e51b81526004016108e190613c2f565b600788600c811115611ea157611ea1613c19565b0361206757506001611eb3848a612c14565b611eff5760405162461bcd60e51b815260206004820152601c60248201527f547279696e6720746f2064726f70206974656d206e6f742068656c640000000060448201526064016108e1565b600854845160405163351dacdf60e01b8152600481018c905260248101919091526001600160a01b039091169063351dacdf90604401600060405180830381600087803b158015611f4f57600080fd5b505af1158015611f63573d6000803e3d6000fd5b50505050600660009054906101000a90046001600160a01b03166001600160a01b03166311ff70478b868660800151600001518760800151602001518e6040518663ffffffff1660e01b8152600401611fc0959493929190614152565b600060405180830381600087803b158015611fda57600080fd5b505af1158015611fee573d6000803e3d6000fd5b50506008546020860151604051630f96f55d60e41b81526001600160a01b03909216935063f96f55d09250612030918d90600401918252602082015260400190565b600060405180830381600087803b15801561204a57600080fd5b505af115801561205e573d6000803e3d6000fd5b505050506126cf565b600888600c81111561207b5761207b613c19565b036123ee576006546040516264b0e560e81b8152600481018c90526000916001600160a01b0316906364b0e50090602401600060405180830381865afa1580156120c9573d6000803e3d6000fd5b505050506040513d6000823e601f3d908101601f191682016040526120f191908101906141a7565b905060005b81518110156122dd5781818151811061211157612111613c03565b60200260200101516101a001516000015160ff1685608001516000015160ff16146121735760405162461bcd60e51b8152602060048201526012602482015271506c61796572206e6f74206174206974656d60701b60448201526064016108e1565b81818151811061218557612185613c03565b60200260200101516101a001516020015160ff1685608001516020015160ff16146121e75760405162461bcd60e51b8152602060048201526012602482015271506c61796572206e6f74206174206974656d60701b60448201526064016108e1565b60028282815181106121fb576121fb613c03565b60200260200101516101800151600481111561221957612219613c19565b146122665760405162461bcd60e51b815260206004820152601e60248201527f4974656d20697320646973636172646564206f722064657374726f796564000060448201526064016108e1565b8b82828151811061227957612279613c03565b60200260200101516101600151146122cb5760405162461bcd60e51b81526020600482015260156024820152744974656d206e6f7420696e20746869732067616d6560581b60448201526064016108e1565b806122d5816132cd565b9150506120f6565b50600854855160405163fe23e2df60e01b8152600481018d90526024810191909152600193506001600160a01b039091169063fe23e2df90604401600060405180830381600087803b15801561233257600080fd5b505af1158015612346573d6000803e3d6000fd5b505060065486516040516307bc9a2360e21b81526001600160a01b039092169350631ef2688c925061237e918e918a91600401614312565b600060405180830381600087803b15801561239857600080fd5b505af11580156123ac573d6000803e3d6000fd5b50506008546020870151604051630f96f55d60e41b81526001600160a01b03909216935063f96f55d09250611563918e90600401918252602082015260400190565b600988600c81111561240257612402613c19565b0361252f576004805460e084015160808601518051602090910151604051636474d64b60e11b81529485019290925260ff90811660248501521660448301526000916001600160a01b039091169063c8e9ac9690606401602060405180830381865afa158015612476573d6000803e3d6000fd5b505050506040513d601f19601f8201168201806040525081019061249a9190614343565b9050600281146124e05760405162461bcd60e51b81526020600482015260116024820152704e6f7420696e20446f6e676861696a697560781b60448201526064016108e1565b60055460208501516060850151604051633f090e3d60e01b8152600481018f9052602481018e9052604481019290925260648201526001600160a01b0390911690633f090e3d90608401611563565b600a88600c81111561254357612543613c19565b036125db5760055484516001600160a01b0390911690633aa07d64908c90879060009061257257612572613c03565b602090810291909101810151606088015160c0015160808901516040516001600160e01b031960e088901b16815260048101959095526024850192909252604484018f905260ff90811660648501528151811660848501529101511660a482015260c401612030565b600b88600c8111156125ef576125ef613c19565b036126875760055484516001600160a01b0390911690633aa07d64908c90879060009061261e5761261e613c03565b602090810291909101810151606088015160a0015160808901516040516001600160e01b031960e088901b16815260048101959095526024850192909252604484018f905260ff90811660648501528151811660848501529101511660a482015260c401612030565b60405162461bcd60e51b815260206004820152601860248201527f4552524f523a2042616420616374696f6e20636f6e666967000000000000000060448201526064016108e1565b600554604051630aa6e80360e41b8152600481018c9052602481018b905282151560448201526001600160a01b039091169063aa6e803090606401600060405180830381600087803b15801561272457600080fd5b505af1158015612738573d6000803e3d6000fd5b505050507f841fadd20ca0d2072bb923bbefd5d354a57305abd5358842d8d77885c2f8f0808a8a858b60405161277194939291906143a3565b60405180910390a160008a81526002602052604090206127919043612d2e565b5050505050505050505050565b60018054600091826127af836132cd565b91905055506000336001546001436127c791906132e6565b60405160609390931b6bffffffffffffffffffffffff19166020840152603483019190915240605482015260740160408051601f1981840301815291905280516020909101209050600061281b85856133a6565b6128269060016133bf565b90508460ff168160ff168361283b919061451e565b612845919061336c565b95945050505050565b612856612a62565b600380546001600160a01b03199081166001600160a01b03998a16179091556004805482169689169690961790955560058054861694881694909417909355600680548516928716929092179091556007805484169186169190911790556008805490921693169290921790915550565b6000806128e7836000015160000b856000015160000b61022a919061337f565b90506000612908846020015160000b866020015160000b61022a919061337f565b9050612845818361336c565b61291c612a62565b6001600160a01b0381166129815760405162461bcd60e51b815260206004820152602660248201527f4f776e61626c653a206e6577206f776e657220697320746865207a65726f206160448201526564647265737360d01b60648201526084016108e1565b61298a81612abc565b50565b8051825160009161299d91614532565b60000b6001036129af57506000610563565b815183516129bd9190614532565b60000b196129cd57506001610563565b816020015183602001516129e19190614532565b60000b196129f157506002610563565b81602001518360200151612a059190614532565b60000b600103612a1757506003610563565b60405162461bcd60e51b8152602060048201526013602482015272115c9c9bdc8e88139bdd0818591a9858d95b9d606a1b60448201526064016108e1565b6060600061083883612d3a565b6000546001600160a01b031633146108695760405162461bcd60e51b815260206004820181905260248201527f4f776e61626c653a2063616c6c6572206973206e6f7420746865206f776e657260448201526064016108e1565b600080546001600160a01b038381166001600160a01b0319831681178455604051919092169283917f8be0079c531659141344cd1fd0a4f28419497f9722a3daafe3b4186f6b6457e09190a35050565b606081600003612b335750506040805180820190915260018152600360fc1b602082015290565b8160005b8115612b5d5780612b47816132cd565b9150612b569050600a83613358565b9150612b37565b6000816001600160401b03811115612b7757612b77612ecc565b6040519080825280601f01601f191660200182016040528015612ba1576020820181803683370190505b5090505b8415612c0c57612bb66001836132e6565b9150612bc3600a8661451e565b612bce90603061336c565b60f81b818381518110612be357612be3613c03565b60200101906001600160f81b031916908160001a905350612c05600a86613358565b9450612ba5565b949350505050565b600654604051633841fae160e01b81526004810183905260009182916001600160a01b0390911690633841fae190602401600060405180830381865afa158015612c62573d6000803e3d6000fd5b505050506040513d6000823e601f3d908101601f19168201604052612c8a9190810190614553565b905060005b8451811015612d23576000805b8351811015612cf957838181518110612cb757612cb7613c03565b6020026020010151878481518110612cd157612cd1613c03565b602002602001015103612ce75760019150612cf9565b80612cf1816132cd565b915050612c9c565b50801515600003612d105760009350505050610563565b5080612d1b816132cd565b915050612c8f565b506001949350505050565b60006108388383612d96565b606081600001805480602002602001604051908101604052809291908181526020018280548015612d8a57602002820191906000526020600020905b815481526020019060010190808311612d76575b50505050509050919050565b6000818152600183016020526040812054612ddd57508154600181810184556000848152602080822090930184905584548482528286019093526040902091909155610563565b506000610563565b600060208284031215612df757600080fd5b5035919050565b600081518084526020808501945080840160005b83811015612e2e57815187529582019590820190600101612e12565b509495945050505050565b6020815260006108386020830184612dfe565b60008060408385031215612e5f57600080fd5b50508035926020909101359150565b60008060008060808587031215612e8457600080fd5b5050823594602084013594506040840135936060013592509050565b600080600060608486031215612eb557600080fd5b505081359360208301359350604090920135919050565b634e487b7160e01b600052604160045260246000fd5b604080519081016001600160401b0381118282101715612f0457612f04612ecc565b60405290565b6040516101c081016001600160401b0381118282101715612f0457612f04612ecc565b60405160c081016001600160401b0381118282101715612f0457612f04612ecc565b60405161028081016001600160401b0381118282101715612f0457612f04612ecc565b60405160e081016001600160401b0381118282101715612f0457612f04612ecc565b604051601f8201601f191681016001600160401b0381118282101715612fbc57612fbc612ecc565b604052919050565b60ff8116811461298a57600080fd5b600060408284031215612fe557600080fd5b612fed612ee2565b90508135612ffa81612fc4565b8152602082013561300a81612fc4565b602082015292915050565b6000806060838503121561302857600080fd5b823591506130398460208501612fd3565b90509250929050565b604081016105638284805160ff908116835260209182015116910152565b60006001600160401b0382111561307957613079612ecc565b5060051b60200190565b600080600080600080600060e0888a03121561309e57600080fd5b8735965060208089013596506040890135600d81106130bc57600080fd5b95506060890135600281106130d057600080fd5b94506080890135935060a0890135925060c08901356001600160401b038111156130f957600080fd5b8901601f81018b1361310a57600080fd5b803561311d61311882613060565b612f94565b81815260059190911b8201830190838101908d83111561313c57600080fd5b928401925b8284101561315a57833582529284019290840190613141565b809550505050505092959891949750929550565b6000806040838503121561318157600080fd5b823561318c81612fc4565b9150602083013561319c81612fc4565b809150509250929050565b6001600160a01b038116811461298a57600080fd5b600080600080600080600060e0888a0312156131d757600080fd5b87356131e2816131a7565b965060208801356131f2816131a7565b95506040880135613202816131a7565b94506060880135613212816131a7565b93506080880135613222816131a7565b925060a0880135613232816131a7565b915060c0880135613242816131a7565b8091505092959891949750929550565b6000806080838503121561326557600080fd5b61326f8484612fd3565b91506130398460408501612fd3565b60006020828403121561329057600080fd5b8135610838816131a7565b634e487b7160e01b600052601160045260246000fd5b6000600160ff1b82016132c6576132c661329b565b5060000390565b6000600182016132df576132df61329b565b5060010190565b818103818111156105635761056361329b565b8381526080810161331d6020830185805160ff908116835260209182015116910152565b826060830152949350505050565b80820281158282048414176105635761056361329b565b634e487b7160e01b600052601260045260246000fd5b60008261336757613367613342565b500490565b808201808211156105635761056361329b565b818103600083128015838313168383128216171561339f5761339f61329b565b5092915050565b60ff82811682821603908111156105635761056361329b565b60ff81811683821601908111156105635761056361329b565b60005b838110156133f35781810151838201526020016133db565b50506000910152565b72024b73b30b634b2103234b932b1ba34b7b71d1606d1b81526000825161342a8160138501602087016133d8565b9190910160130192915050565b60208152600082518060208401526134568160408501602087016133d8565b601f01601f19169190910160400192915050565b600181815b808511156134a557816000190482111561348b5761348b61329b565b8085161561349857918102915b93841c939080029061346f565b509250929050565b6000826134bc57506001610563565b816134c957506000610563565b81600181146134df57600281146134e957613505565b6001915050610563565b60ff8411156134fa576134fa61329b565b50506001821b610563565b5060208310610133831016604e8410600b8410161715613528575081810a610563565b613532838361346a565b80600019048211156135465761354661329b565b029392505050565b600061083883836134ad565b8051613565816131a7565b919050565b8051600081900b811461356557600080fd5b8051801515811461356557600080fd5b60006101008083850312156135a057600080fd5b604051908101906001600160401b03821181831017156135c2576135c2612ecc565b816040528092506135d28461356a565b81526135e06020850161356a565b60208201526135f16040850161356a565b60408201526136026060850161356a565b60608201526136136080850161356a565b608082015261362460a0850161356a565b60a082015261363560c0850161356a565b60c082015261364660e0850161357c565b60e0820152505092915050565b805161356581612fc4565b60006040828403121561367057600080fd5b613678612ee2565b9050815161368581612fc4565b8152602082015161300a81612fc4565b600082601f8301126136a657600080fd5b815160206136b661311883613060565b82815260059290921b840181019181810190868411156136d557600080fd5b8286015b848110156136f95780516136ec81612fc4565b83529183019183016136d9565b509695505050505050565b60006020828403121561371657600080fd5b81516001600160401b038082111561372d57600080fd5b908301906102e0828603121561374257600080fd5b61374a612f0a565b6137538361355a565b81526020830151602082015260408301516040820152613776866060850161358c565b606082015261016061378a8782860161365e565b60808301526101a061379e8882870161365e565b60a08401526137b06101e0860161356a565b60c08401526137c26102008601613653565b60e08401526137d46102208601613653565b6101008401526137e76102408601613653565b6101208401526102608501518481111561380057600080fd5b61380c89828801613695565b610140850152506138206102808601613653565b828401526138316102a0860161357c565b6101808401526102c085015181840152505080935050505092915050565b600082601f83011261386057600080fd5b8151602061387061311883613060565b82815260059290921b8401810191818101908684111561388f57600080fd5b8286015b848110156136f95780518352918301918301613893565b6000608082840312156138bc57600080fd5b604051608081018181106001600160401b03821117156138de576138de612ecc565b806040525080915082516138f181612fc4565b8152602083015161390181612fc4565b6020820152604083015161391481612fc4565b6040820152606083015161392781612fc4565b6060919091015292915050565b80516006811061356557600080fd5b600082601f83011261395457600080fd5b8151602061396461311883613060565b82815260e0928302850182019282820191908785111561398357600080fd5b8387015b85811015613a055781818a03121561399f5760008081fd5b6139a7612f2d565b815181528582015186820152604080830151600981106139c75760008081fd5b9082015260606139d98b84830161365e565b9082015260a08281015160808301526139f460c0840161357c565b908201528452928401928101613987565b5090979650505050505050565b600060208284031215613a2457600080fd5b81516001600160401b0380821115613a3b57600080fd5b908301906103008286031215613a5057600080fd5b613a58612f4f565b613a618361357c565b8152613a6f6020840161357c565b6020820152604083015182811115613a8657600080fd5b613a928782860161384f565b604083015250606083015160608201526080830151608082015260a083015160a0820152613ac38660c085016138aa565b60c08201526101408084015160e083015261016080850151610100840152610180808601516101208501526101a0613afc818801613934565b848601526101c09350613b118a85890161365e565b8386015261020092508287015186811115613b2b57600080fd5b613b378b828a0161384f565b838701525061022091508187015186811115613b5257600080fd5b613b5e8b828a0161384f565b8287015250506102408087015186811115613b7857600080fd5b613b848b828a0161384f565b858701525061026093508387015186811115613b9f57600080fd5b613bab8b828a0161384f565b6101e087015250610280870151838601526102a0870151828601526102c0870151818601525050506102e084015183811115613be657600080fd5b613bf288828701613943565b918301919091525095945050505050565b634e487b7160e01b600052603260045260246000fd5b634e487b7160e01b600052602160045260246000fd5b602080825260169082015275486f6c64696e6720746f6f206d616e79206974656d7360501b604082015260600190565b6005811061298a57600080fd5b805161356581613c5f565b600060608284031215613c8957600080fd5b604051606081018181106001600160401b0382111715613cab57613cab612ecc565b6040528251613cb981612fc4565b81526020830151613cc981612fc4565b60208201526040830151613cdc81613c5f565b60408201529392505050565b86815260ff8681166020830152851660408201526060810184905260c0810160058410613d1757613d17613c19565b608082019390935260a00152949350505050565b60006101408284031215613d3e57600080fd5b613d46612f72565b90508151613d5381612fc4565b8152602082810151613d6481612fc4565b82820152605f83018413613d7757600080fd5b604051608081018181106001600160401b0382111715613d9957613d99612ecc565b6040528060c0850186811115613dae57600080fd5b604086015b81811015613dca5780518352918401918401613db3565b50826040860152613dda8161357c565b606086015250505050613def60e0830161357c565b6080820152613e01610100830161357c565b60a0820152613e13610120830161357c565b60c082015292915050565b60006020808385031215613e3157600080fd5b82516001600160401b0380821115613e4857600080fd5b818501915085601f830112613e5c57600080fd5b8151613e6a61311882613060565b81815260059190911b83018401908481019088831115613e8957600080fd5b8585015b83811015613f2057805185811115613ea457600080fd5b8601603f81018b13613eb557600080fd5b87810151613ec561311882613060565b8181526101409182028301604001918a820191908e841115613ee75760008081fd5b6040850194505b83851015613f0f57613f008f86613d2b565b835293840193918b0191613eee565b508652505050918601918601613e8d565b5098975050505050505050565b60006101408284031215613f4057600080fd5b6108388383613d2b565b600060a08284031215613f5c57600080fd5b60405160a081018181106001600160401b0382111715613f7e57613f7e612ecc565b604052613f8a83613934565b8152602083015160208201526040830151613fa481612fc4565b60408201526060830151613fb781612fc4565b6060820152613fc86080840161357c565b60808201529392505050565b600082601f830112613fe557600080fd5b81516020613ff561311883613060565b82815260069290921b8401810191818101908684111561401457600080fd5b8286015b848110156136f957604081890312156140315760008081fd5b614039612ee2565b8151601781106140495760008081fd5b81528185015185820152835291830191604001614018565b60006020828403121561407357600080fd5b81516001600160401b038082111561408a57600080fd5b9083019060e0828603121561409e57600080fd5b6140a6612f72565b825181526140b66020840161357c565b60208201526140c760408401613653565b60408201526140d860608401613653565b60608201526080830151828111156140ef57600080fd5b6140fb87828601613fd4565b60808301525060a08301518281111561411357600080fd5b61411f87828601613fd4565b60a08301525060c08301518281111561413757600080fd5b61414387828601613fd4565b60c08301525095945050505050565b85815260a06020820152600061416b60a0830187612dfe565b60ff9586166040840152939094166060820152608001529392505050565b80516003811061356557600080fd5b8051600b811061356557600080fd5b600060208083850312156141ba57600080fd5b82516001600160401b038111156141d057600080fd5b8301601f810185136141e157600080fd5b80516141ef61311882613060565b8181526101e0918202830184019184820191908884111561420f57600080fd5b938501935b838510156143065780858a03121561422c5760008081fd5b614234612f0a565b8551815286860151878201526040808701519082015260608087015190820152608061426181880161355a565b9082015260a0868101519082015260c061427c818801614189565b9082015260e061428d878201613653565b9082015261010061429f878201613653565b908201526101206142b1878201614198565b908201526101406142c3878201613653565b9082015261016086810151908201526101806142e0818801613c6c565b908201526101a06142f38b88830161365e565b9082015283529384019391850191614214565b50979650505050505050565b83815260606020820152600061432b6060830185612dfe565b905060018060a01b0383166040830152949350505050565b60006020828403121561435557600080fd5b5051919050565b600081518084526020808501945080840160005b83811015612e2e57815160ff1687529582019590820190600101614370565b600d811061439f5761439f613c19565b9052565b848152836020820152608060408201526143c96080820184516001600160a01b03169052565b602083015160a0820152604083015160c08201526000606084015161444f60e08401828051600081810b84526020830151810b60208501526040830151810b60408501526060830151810b60608501526080830151810b608085015260a0830151810b60a085015260c0830151810b60c0850152505060e0810151151560e08301525050565b506080840151805160ff9081166101e0850152602091820151811661020085015260a08601518051821661022086015290910151811661024084015260c085015160000b61026084015260e0850151811661028084015261010085015181166102a0840152610120850151166102c08301526101408401516102e0808401526144dc61036084018261435c565b90506101608501516144f461030085018260ff169052565b5061018085015115156103208401526101a08501516103408401529050612845606083018461438f565b60008261452d5761452d613342565b500690565b600082810b9082900b03607f198112607f821317156105635761056361329b565b60006020828403121561456557600080fd5b81516001600160401b0381111561457b57600080fd5b612c0c8482850161384f56fea264697066735822122004f06cae794d7bcb27e3470fca2ec2c57f7801028745f9c00f4f5ac953423bc664736f6c63430008110033",
  "devdoc": {
    "kind": "dev",
    "methods": {
      "owner()": {
        "details": "Returns the address of the current owner."
      },
      "renounceOwnership()": {
        "details": "Leaves the contract without owner. It will not be possible to call `onlyOwner` functions anymore. Can only be called by the current owner. NOTE: Renouncing ownership will leave the contract without an owner, thereby removing any functionality that is only available to the owner."
      },
      "transferOwnership(address)": {
        "details": "Transfers ownership of the contract to a new account (`newOwner`). Can only be called by the current owner."
      }
    },
    "version": 1
  },
  "userdoc": {
    "kind": "user",
    "methods": {},
    "version": 1
  },
  "storageLayout": {
    "storage": [
      {
        "astId": 7,
        "contract": "contracts/Actions.sol:Actions",
        "label": "_owner",
        "offset": 0,
        "slot": "0",
        "type": "t_address"
      },
      {
        "astId": 20570,
        "contract": "contracts/Actions.sol:Actions",
        "label": "TODO_randomSeed",
        "offset": 0,
        "slot": "1",
        "type": "t_uint256"
      },
      {
        "astId": 20575,
        "contract": "contracts/Actions.sol:Actions",
        "label": "gameToEventBlocks",
        "offset": 0,
        "slot": "2",
        "type": "t_mapping(t_uint256,t_struct(UintSet)3021_storage)"
      },
      {
        "astId": 3479,
        "contract": "contracts/Actions.sol:Actions",
        "label": "chars",
        "offset": 0,
        "slot": "3",
        "type": "t_contract(CharInterface)3175"
      },
      {
        "astId": 3482,
        "contract": "contracts/Actions.sol:Actions",
        "label": "maps",
        "offset": 0,
        "slot": "4",
        "type": "t_contract(MapInterface)3270"
      },
      {
        "astId": 3485,
        "contract": "contracts/Actions.sol:Actions",
        "label": "games",
        "offset": 0,
        "slot": "5",
        "type": "t_contract(GamesInterface)3323"
      },
      {
        "astId": 3488,
        "contract": "contracts/Actions.sol:Actions",
        "label": "items",
        "offset": 0,
        "slot": "6",
        "type": "t_contract(ItemsInterface)3374"
      },
      {
        "astId": 3491,
        "contract": "contracts/Actions.sol:Actions",
        "label": "bcEvents",
        "offset": 0,
        "slot": "7",
        "type": "t_contract(EventsInterface)3415"
      },
      {
        "astId": 3494,
        "contract": "contracts/Actions.sol:Actions",
        "label": "players",
        "offset": 0,
        "slot": "8",
        "type": "t_contract(PlayersInterface)3468"
      },
      {
        "astId": 3496,
        "contract": "contracts/Actions.sol:Actions",
        "label": "charsAddress",
        "offset": 0,
        "slot": "9",
        "type": "t_address"
      }
    ],
    "types": {
      "t_address": {
        "encoding": "inplace",
        "label": "address",
        "numberOfBytes": "20"
      },
      "t_array(t_bytes32)dyn_storage": {
        "base": "t_bytes32",
        "encoding": "dynamic_array",
        "label": "bytes32[]",
        "numberOfBytes": "32"
      },
      "t_bytes32": {
        "encoding": "inplace",
        "label": "bytes32",
        "numberOfBytes": "32"
      },
      "t_contract(CharInterface)3175": {
        "encoding": "inplace",
        "label": "contract CharInterface",
        "numberOfBytes": "20"
      },
      "t_contract(EventsInterface)3415": {
        "encoding": "inplace",
        "label": "contract EventsInterface",
        "numberOfBytes": "20"
      },
      "t_contract(GamesInterface)3323": {
        "encoding": "inplace",
        "label": "contract GamesInterface",
        "numberOfBytes": "20"
      },
      "t_contract(ItemsInterface)3374": {
        "encoding": "inplace",
        "label": "contract ItemsInterface",
        "numberOfBytes": "20"
      },
      "t_contract(MapInterface)3270": {
        "encoding": "inplace",
        "label": "contract MapInterface",
        "numberOfBytes": "20"
      },
      "t_contract(PlayersInterface)3468": {
        "encoding": "inplace",
        "label": "contract PlayersInterface",
        "numberOfBytes": "20"
      },
      "t_mapping(t_bytes32,t_uint256)": {
        "encoding": "mapping",
        "key": "t_bytes32",
        "label": "mapping(bytes32 => uint256)",
        "numberOfBytes": "32",
        "value": "t_uint256"
      },
      "t_mapping(t_uint256,t_struct(UintSet)3021_storage)": {
        "encoding": "mapping",
        "key": "t_uint256",
        "label": "mapping(uint256 => struct EnumerableSet.UintSet)",
        "numberOfBytes": "32",
        "value": "t_struct(UintSet)3021_storage"
      },
      "t_struct(Set)2563_storage": {
        "encoding": "inplace",
        "label": "struct EnumerableSet.Set",
        "members": [
          {
            "astId": 2558,
            "contract": "contracts/Actions.sol:Actions",
            "label": "_values",
            "offset": 0,
            "slot": "0",
            "type": "t_array(t_bytes32)dyn_storage"
          },
          {
            "astId": 2562,
            "contract": "contracts/Actions.sol:Actions",
            "label": "_indexes",
            "offset": 0,
            "slot": "1",
            "type": "t_mapping(t_bytes32,t_uint256)"
          }
        ],
        "numberOfBytes": "64"
      },
      "t_struct(UintSet)3021_storage": {
        "encoding": "inplace",
        "label": "struct EnumerableSet.UintSet",
        "members": [
          {
            "astId": 3020,
            "contract": "contracts/Actions.sol:Actions",
            "label": "_inner",
            "offset": 0,
            "slot": "0",
            "type": "t_struct(Set)2563_storage"
          }
        ],
        "numberOfBytes": "64"
      },
      "t_uint256": {
        "encoding": "inplace",
        "label": "uint256",
        "numberOfBytes": "32"
      }
    }
  }
}