{
  "address": "0x7ce0161823fA5206403a75895A35ac2aD169A908",
  "abi": [
    {
      "anonymous": false,
      "inputs": [
        {
          "indexed": false,
          "internalType": "uint256",
          "name": "gameId",
          "type": "uint256"
        },
        {
          "components": [
            {
              "internalType": "bool",
              "name": "active",
              "type": "bool"
            },
            {
              "internalType": "uint256[]",
              "name": "playerIndexes",
              "type": "uint256[]"
            },
            {
              "internalType": "uint256",
              "name": "currentPlayerTurnIndex",
              "type": "uint256"
            },
            {
              "internalType": "uint256",
              "name": "numPlayers",
              "type": "uint256"
            },
            {
              "internalType": "uint256",
              "name": "turnsTaken",
              "type": "uint256"
            },
            {
              "components": [
                {
                  "internalType": "uint8",
                  "name": "bugEvents",
                  "type": "uint8"
                },
                {
                  "internalType": "uint8",
                  "name": "mysteryEvents",
                  "type": "uint8"
                },
                {
                  "internalType": "uint8",
                  "name": "scavEvents",
                  "type": "uint8"
                },
                {
                  "internalType": "uint8",
                  "name": "shipEvents",
                  "type": "uint8"
                }
              ],
              "internalType": "struct BCTypes.EventTracker",
              "name": "eventTracker",
              "type": "tuple"
            },
            {
              "internalType": "address",
              "name": "mapContract",
              "type": "address"
            },
            {
              "internalType": "uint256",
              "name": "mapId",
              "type": "uint256"
            },
            {
              "internalType": "uint256",
              "name": "eventPlayerId",
              "type": "uint256"
            },
            {
              "internalType": "uint256",
              "name": "eventNumber",
              "type": "uint256"
            },
            {
              "internalType": "enum BCTypes.BCEventType",
              "name": "eventType",
              "type": "uint8"
            },
            {
              "components": [
                {
                  "internalType": "uint8",
                  "name": "row",
                  "type": "uint8"
                },
                {
                  "internalType": "uint8",
                  "name": "col",
                  "type": "uint8"
                }
              ],
              "internalType": "struct BCTypes.Position",
              "name": "eventPosition",
              "type": "tuple"
            },
            {
              "internalType": "uint256[]",
              "name": "unusedBugEvents",
              "type": "uint256[]"
            },
            {
              "internalType": "uint256[]",
              "name": "unusedMysteryEvents",
              "type": "uint256[]"
            },
            {
              "internalType": "uint256[]",
              "name": "unusedScavEvents",
              "type": "uint256[]"
            },
            {
              "internalType": "uint256[]",
              "name": "unusedShipEvents",
              "type": "uint256[]"
            }
          ],
          "indexed": false,
          "internalType": "struct BCTypes.Game",
          "name": "game",
          "type": "tuple"
        },
        {
          "indexed": false,
          "internalType": "uint256",
          "name": "playerId",
          "type": "uint256"
        },
        {
          "components": [
            {
              "internalType": "address",
              "name": "owner",
              "type": "address"
            },
            {
              "internalType": "address",
              "name": "charContractAddress",
              "type": "address"
            },
            {
              "internalType": "uint256",
              "name": "characterId",
              "type": "uint256"
            },
            {
              "components": [
                {
                  "internalType": "uint8",
                  "name": "row",
                  "type": "uint8"
                },
                {
                  "internalType": "uint8",
                  "name": "col",
                  "type": "uint8"
                }
              ],
              "internalType": "struct BCTypes.Position",
              "name": "position",
              "type": "tuple"
            },
            {
              "internalType": "int8",
              "name": "healthDmgTaken",
              "type": "int8"
            },
            {
              "internalType": "uint8",
              "name": "armorDmgTaken",
              "type": "uint8"
            },
            {
              "internalType": "uint8",
              "name": "actionsTaken",
              "type": "uint8"
            },
            {
              "internalType": "uint8",
              "name": "dataTokens",
              "type": "uint8"
            },
            {
              "internalType": "uint8[]",
              "name": "currentEffects",
              "type": "uint8[]"
            },
            {
              "internalType": "uint8",
              "name": "numItemsHeld",
              "type": "uint8"
            },
            {
              "internalType": "bool",
              "name": "canHarmOthers",
              "type": "bool"
            },
            {
              "internalType": "bool",
              "name": "dead",
              "type": "bool"
            },
            {
              "internalType": "bool",
              "name": "hasEgg",
              "type": "bool"
            },
            {
              "internalType": "uint256",
              "name": "gameId",
              "type": "uint256"
            }
          ],
          "indexed": false,
          "internalType": "struct BCTypes.Player",
          "name": "player",
          "type": "tuple"
        },
        {
          "indexed": false,
          "internalType": "enum BCTypes.Action",
          "name": "action",
          "type": "uint8"
        }
      ],
      "name": "ActionCompleteEvent",
      "type": "event"
    },
    {
      "anonymous": false,
      "inputs": [
        {
          "indexed": true,
          "internalType": "address",
          "name": "previousOwner",
          "type": "address"
        },
        {
          "indexed": true,
          "internalType": "address",
          "name": "newOwner",
          "type": "address"
        }
      ],
      "name": "OwnershipTransferred",
      "type": "event"
    },
    {
      "inputs": [],
      "name": "bcEvents",
      "outputs": [
        {
          "internalType": "contract EventsInterface",
          "name": "",
          "type": "address"
        }
      ],
      "stateMutability": "view",
      "type": "function"
    },
    {
      "inputs": [],
      "name": "chars",
      "outputs": [
        {
          "internalType": "contract CharInterface",
          "name": "",
          "type": "address"
        }
      ],
      "stateMutability": "view",
      "type": "function"
    },
    {
      "inputs": [],
      "name": "charsAddress",
      "outputs": [
        {
          "internalType": "address",
          "name": "",
          "type": "address"
        }
      ],
      "stateMutability": "view",
      "type": "function"
    },
    {
      "inputs": [
        {
          "internalType": "uint256",
          "name": "_gameId",
          "type": "uint256"
        },
        {
          "internalType": "uint256",
          "name": "_playerId",
          "type": "uint256"
        }
      ],
      "name": "debugMovePlayerForTesting",
      "outputs": [],
      "stateMutability": "nonpayable",
      "type": "function"
    },
    {
      "inputs": [
        {
          "internalType": "uint256",
          "name": "_gameId",
          "type": "uint256"
        },
        {
          "internalType": "uint256",
          "name": "_playerId",
          "type": "uint256"
        },
        {
          "internalType": "uint256",
          "name": "_row",
          "type": "uint256"
        },
        {
          "internalType": "uint256",
          "name": "_col",
          "type": "uint256"
        }
      ],
      "name": "debugMovePlayerToRoom",
      "outputs": [],
      "stateMutability": "nonpayable",
      "type": "function"
    },
    {
      "inputs": [
        {
          "internalType": "uint256",
          "name": "_gameId",
          "type": "uint256"
        },
        {
          "internalType": "uint256",
          "name": "_playerId",
          "type": "uint256"
        },
        {
          "internalType": "enum BCTypes.Action",
          "name": "_action",
          "type": "uint8"
        },
        {
          "internalType": "enum BCTypes.Followthrough",
          "name": "_followthrough",
          "type": "uint8"
        },
        {
          "internalType": "uint256",
          "name": "_1stDirection",
          "type": "uint256"
        },
        {
          "internalType": "uint256",
          "name": "_2ndDirection",
          "type": "uint256"
        },
        {
          "internalType": "uint256[]",
          "name": "_ids",
          "type": "uint256[]"
        }
      ],
      "name": "doAction",
      "outputs": [],
      "stateMutability": "payable",
      "type": "function"
    },
    {
      "inputs": [],
      "name": "games",
      "outputs": [
        {
          "internalType": "contract GamesInterface",
          "name": "",
          "type": "address"
        }
      ],
      "stateMutability": "view",
      "type": "function"
    },
    {
      "inputs": [],
      "name": "items",
      "outputs": [
        {
          "internalType": "contract ItemsInterface",
          "name": "",
          "type": "address"
        }
      ],
      "stateMutability": "view",
      "type": "function"
    },
    {
      "inputs": [],
      "name": "maps",
      "outputs": [
        {
          "internalType": "contract MapInterface",
          "name": "",
          "type": "address"
        }
      ],
      "stateMutability": "view",
      "type": "function"
    },
    {
      "inputs": [],
      "name": "owner",
      "outputs": [
        {
          "internalType": "address",
          "name": "",
          "type": "address"
        }
      ],
      "stateMutability": "view",
      "type": "function"
    },
    {
      "inputs": [],
      "name": "players",
      "outputs": [
        {
          "internalType": "contract PlayersInterface",
          "name": "",
          "type": "address"
        }
      ],
      "stateMutability": "view",
      "type": "function"
    },
    {
      "inputs": [],
      "name": "renounceOwnership",
      "outputs": [],
      "stateMutability": "nonpayable",
      "type": "function"
    },
    {
      "inputs": [
        {
          "internalType": "address",
          "name": "_charAddress",
          "type": "address"
        },
        {
          "internalType": "address",
          "name": "_utilsAddress",
          "type": "address"
        },
        {
          "internalType": "address",
          "name": "_mapsAddress",
          "type": "address"
        },
        {
          "internalType": "address",
          "name": "_gamesAddress",
          "type": "address"
        },
        {
          "internalType": "address",
          "name": "_itemsAddress",
          "type": "address"
        },
        {
          "internalType": "address",
          "name": "_eventsAddress",
          "type": "address"
        },
        {
          "internalType": "address",
          "name": "_playersAddress",
          "type": "address"
        }
      ],
      "name": "setContractAddresses",
      "outputs": [],
      "stateMutability": "nonpayable",
      "type": "function"
    },
    {
      "inputs": [
        {
          "internalType": "address",
          "name": "newOwner",
          "type": "address"
        }
      ],
      "name": "transferOwnership",
      "outputs": [],
      "stateMutability": "nonpayable",
      "type": "function"
    },
    {
      "inputs": [],
      "name": "utils",
      "outputs": [
        {
          "internalType": "contract UtilsInterface",
          "name": "",
          "type": "address"
        }
      ],
      "stateMutability": "view",
      "type": "function"
    }
  ],
  "transactionHash": "0xc6466a24a617a6ea5b66cc8d0913ffe89944297390febe8e4a8dea5ebc8c37d7",
  "args": [],
  "numDeployments": 1,
  "solcInputHash": "e4fa0a5ba7575f2f162947b2f1a14db2",
  "bytecode": "0x60806040523480156200001157600080fd5b506200001d3362000023565b62000073565b600080546001600160a01b038381166001600160a01b0319831681178455604051919092169283917f8be0079c531659141344cd1fd0a4f28419497f9722a3daafe3b4186f6b6457e09190a35050565b61363d80620000836000396000f3fe6080604052600436106100e85760003560e01c80638da5cb5b1161008a578063c06fad0611610059578063c06fad0614610251578063d72be09d14610271578063dc0b356414610291578063f2fde38b146102b157600080fd5b80638da5cb5b146101e0578063955a015b146101fe5780639fca1ee11461021e578063a8ca85bb1461023e57600080fd5b8063425c38d8116100c6578063425c38d81461016b5780635a29638d1461018b578063715018a6146101ab5780637ddae103146101c057600080fd5b806310a2cd0d146100ed5780633deaec2b146101295780634102b1a714610149575b600080fd5b3480156100f957600080fd5b5060015461010d906001600160a01b031681565b6040516001600160a01b03909116815260200160405180910390f35b34801561013557600080fd5b5060035461010d906001600160a01b031681565b34801561015557600080fd5b50610169610164366004612216565b6102d1565b005b34801561017757600080fd5b50610169610186366004612238565b610354565b34801561019757600080fd5b5060025461010d906001600160a01b031681565b3480156101b757600080fd5b506101696103dd565b3480156101cc57600080fd5b5060065461010d906001600160a01b031681565b3480156101ec57600080fd5b506000546001600160a01b031661010d565b34801561020a57600080fd5b5060045461010d906001600160a01b031681565b34801561022a57600080fd5b5060085461010d906001600160a01b031681565b61016961024c3660046123a8565b6103f1565b34801561025d57600080fd5b5060055461010d906001600160a01b031681565b34801561027d57600080fd5b5061016961028c3660046124a8565b61206d565b34801561029d57600080fd5b5060075461010d906001600160a01b031681565b3480156102bd57600080fd5b506101696102cc36600461253e565b6120f3565b6102d961216c565b60048054604080518082018252600080825260208201529051631751422560e01b81526001600160a01b039092169263175142259261031e9287929091879101612562565b600060405180830381600087803b15801561033857600080fd5b505af115801561034c573d6000803e3d6000fd5b505050505050565b61035c61216c565b6004805460408051808201825260ff8087168252851660208201529051631751422560e01b81526001600160a01b03909216926317514225926103a59289929091899101612562565b600060405180830381600087803b1580156103bf57600080fd5b505af11580156103d3573d6000803e3d6000fd5b5050505050505050565b6103e561216c565b6103ef60006121c6565b565b6007546040516310f67fb360e01b8152600481018890526000916001600160a01b0316906310f67fb390602401600060405180830381865afa15801561043b573d6000803e3d6000fd5b505050506040513d6000823e601f3d908101601f191682016040526104639190810190612682565b60048054604051630dfd338360e31b81529182018b90529192506000916001600160a01b031690636fe99c1890602401600060405180830381865afa1580156104b0573d6000803e3d6000fd5b505050506040513d6000823e601f3d908101601f191682016040526104d89190810190612898565b6001546040808501519051634810bc5960e01b81529293506000926001600160a01b0390921691634810bc59916105159160040190815260200190565b6101e060405180830381865afa158015610533573d6000803e3d6000fd5b505050506040513d601f19601f820116820180604052508101906105579190612acf565b90508161012001516000146105b35760405162461bcd60e51b815260206004820152601860248201527f4d757374207265736f6c7665206576656e74206669727374000000000000000060448201526064015b60405180910390fd5b81516105f35760405162461bcd60e51b815260206004820152600f60248201526e47616d65206e6f742061637469766560881b60448201526064016105aa565b82516001600160a01b0316331461064c5760405162461bcd60e51b815260206004820152601760248201527f53656e646572206e6f7420706c61796572206f776e657200000000000000000060448201526064016105aa565b60038360c0015160ff16106106955760405162461bcd60e51b815260206004820152600f60248201526e139bc81858dd1a5bdb9cc81b19599d608a1b60448201526064016105aa565b81602001518260400151815181106106af576106af612b76565b602002602001015189146106f55760405162461bcd60e51b815260206004820152600d60248201526c2737ba103cb7bab9103a3ab93760991b60448201526064016105aa565b6000600389600881111561070b5761070b612b8c565b036107485781606001516020015160000b84610120015160000b13156107435760405162461bcd60e51b81526004016105aa90612ba2565b611fb6565b600289600881111561075c5761075c612b8c565b03610ddb5781606001516020015160000b84610120015160000b13156107945760405162461bcd60e51b81526004016105aa90612ba2565b60035460e084015160608601518051602090910151604051630dd43b9b60e31b8152600481019390935260ff9182166024840152166044820152606481018990526000916001600160a01b031690636ea1dcd890608401606060405180830381865afa158015610808573d6000803e3d6000fd5b505050506040513d601f19601f8201168201806040525081019061082c9190612bd2565b905060028160400151600481111561084657610846612b8c565b1480610867575060038160400151600481111561086557610865612b8c565b145b806108775750602081015160ff16155b6108cf5760405162461bcd60e51b815260206004820152602360248201527f31737420446f6f72206e6f74206f70656e2f62726561636865642f756e6c6f636044820152621ad95960ea1b60648201526084016105aa565b6001816040015160048111156108e7576108e7612b8c565b0361096b5760035460e085015160608701518051602090910151604051635921522360e01b81526001600160a01b039094169363592152239361093893909290918e90600290600090600401612c43565b600060405180830381600087803b15801561095257600080fd5b505af1158015610966573d6000803e3d6000fd5b505050505b6002546060860151604051634a8fe1ff60e11b81526000926001600160a01b03169163951fc3fe916109a1918d91600401612c86565b6040805180830381865afa1580156109bd573d6000803e3d6000fd5b505050506040513d601f19601f820116820180604052508101906109e19190612caa565b905060018a60018111156109f7576109f7612b8c565b03610d5d57600254604051634a8fe1ff60e11b81526000916001600160a01b03169063951fc3fe90610a2f908c908690600401612c86565b6040805180830381865afa158015610a4b573d6000803e3d6000fd5b505050506040513d601f19601f82011682018060405250810190610a6f9190612caa565b60035460e088015184516020860151604051630dd43b9b60e31b8152600481019390935260ff9182166024840152166044820152606481018c90529192506000916001600160a01b0390911690636ea1dcd890608401606060405180830381865afa158015610ae2573d6000803e3d6000fd5b505050506040513d601f19601f82011682018060405250810190610b069190612bd2565b9050600281604001516004811115610b2057610b20612b8c565b1480610b415750600381604001516004811115610b3f57610b3f612b8c565b145b80610b515750602081015160ff16155b610ba95760405162461bcd60e51b815260206004820152602360248201527f326e6420446f6f72206e6f74206f70656e2f62726561636865642f756e6c6f636044820152621ad95960ea1b60648201526084016105aa565b60035460e0880151604051630f78220b60e11b815260048101919091526000916001600160a01b031690631ef0441690602401600060405180830381865afa158015610bf9573d6000803e3d6000fd5b505050506040513d6000823e601f3d908101601f19168201604052610c219190810190612d8d565b9050600281856000015160ff1681518110610c3e57610c3e612b76565b6020026020010151856020015160ff1681518110610c5e57610c5e612b76565b60200260200101516000015160ff1611610cae5760405162461bcd60e51b8152602060048201526011602482015270149bdbdb481b9bdd08195e1c1b1bdc9959607a1b60448201526064016105aa565b600182604001516004811115610cc657610cc6612b8c565b03610d5757600360009054906101000a90046001600160a01b03166001600160a01b031663592152238960e00151866000015187602001518f600260006040518763ffffffff1660e01b8152600401610d2496959493929190612c43565b600060405180830381600087803b158015610d3e57600080fd5b505af1158015610d52573d6000803e3d6000fd5b505050505b50909150505b600460009054906101000a90046001600160a01b03166001600160a01b031663175142258e838f6040518463ffffffff1660e01b8152600401610da293929190612562565b600060405180830381600087803b158015610dbc57600080fd5b505af1158015610dd0573d6000803e3d6000fd5b505050505050611fb6565b6000896008811115610def57610def612b8c565b036111675781606001516020015160000b84610120015160000b1315610e275760405162461bcd60e51b81526004016105aa90612ba2565b60035460e084015160608601518051602090910151604051630dd43b9b60e31b8152600481019390935260ff9182166024840152166044820152606481018990526000916001600160a01b031690636ea1dcd890608401606060405180830381865afa158015610e9b573d6000803e3d6000fd5b505050506040513d601f19601f82011682018060405250810190610ebf9190612bd2565b9050600181604001516004811115610ed957610ed9612b8c565b14610f185760405162461bcd60e51b815260206004820152600f60248201526e111bdbdc881b9bdd0818db1bdcd959608a1b60448201526064016105aa565b600260009054906101000a90046001600160a01b03166001600160a01b0316635dc969678d85606001516060015184602001516040518463ffffffff1660e01b8152600401610f7d9392919092835260ff918216602084015216604082015260600190565b6020604051808303816000875af1158015610f9c573d6000803e3d6000fd5b505050506040513d601f19601f82011682018060405250810190610fc09190612e9c565b156111615760035460e085015160608701518051602090910151604051635921522360e01b81526001600160a01b039094169363592152239361101193909290918e90600290600090600401612c43565b600060405180830381600087803b15801561102b57600080fd5b505af115801561103f573d6000803e3d6000fd5b506001925061104c915050565b89600181111561105e5761105e612b8c565b0361116157600460009054906101000a90046001600160a01b03166001600160a01b031663175142258d600260009054906101000a90046001600160a01b03166001600160a01b031663951fc3fe8c8a606001516040518363ffffffff1660e01b81526004016110cf929190612c86565b6040805180830381865afa1580156110eb573d6000803e3d6000fd5b505050506040513d601f19601f8201168201806040525081019061110f9190612caa565b8e6040518463ffffffff1660e01b815260040161112e93929190612562565b600060405180830381600087803b15801561114857600080fd5b505af115801561115c573d6000803e3d6000fd5b505050505b50611fb6565b600189600881111561117b5761117b612b8c565b0361139a5781606001516020015160000b84610120015160000b13156111b35760405162461bcd60e51b81526004016105aa90612ba2565b60035460e084015160608601518051602090910151604051630dd43b9b60e31b8152600481019390935260ff9182166024840152166044820152606481018990526000916001600160a01b031690636ea1dcd890608401606060405180830381865afa158015611227573d6000803e3d6000fd5b505050506040513d601f19601f8201168201806040525081019061124b9190612bd2565b905060018160400151600481111561126557611265612b8c565b146112a45760405162461bcd60e51b815260206004820152600f60248201526e111bdbdc881b9bdd0818db1bdcd959608a1b60448201526064016105aa565b600260009054906101000a90046001600160a01b03166001600160a01b0316635dc969678d85606001516080015184600001516040518463ffffffff1660e01b81526004016113099392919092835260ff918216602084015216604082015260600190565b6020604051808303816000875af1158015611328573d6000803e3d6000fd5b505050506040513d601f19601f8201168201806040525081019061134c9190612e9c565b15611161576003805460e086015160608801518051602090910151604051635921522360e01b81526001600160a01b0390941694635921522394611011949392918f91600090600401612c43565b60048960088111156113ae576113ae612b8c565b036117f1575060035460e08301516060850151805160209091015160405163f9dfbfcb60e01b81526001946000946001600160a01b039091169363f9dfbfcb9361140e9360040192835260ff918216602084015216604082015260600190565b61014060405180830381865afa15801561142c573d6000803e3d6000fd5b505050506040513d601f19601f820116820180604052508101906114509190612eb7565b60808101519091501561149b5760405162461bcd60e51b8152602060048201526013602482015272149bdbdb48185b1c9958591e481b1bdbdd1959606a1b60448201526064016105aa565b60035460e08501516060870151805160209091015160405162a1871b60e21b8152600481019390935260ff91821660248401521660448201526000916001600160a01b0316906302861c6c9060640160a060405180830381865afa158015611507573d6000803e3d6000fd5b505050506040513d601f19601f8201168201806040525081019061152b9190612ed4565b90506000816060015160ff16118061154a57506000816040015160ff16115b61158e5760405162461bcd60e51b815260206004820152601560248201527443616e2774206c6f6f7420656d70747920726f6f6d60581b60448201526064016105aa565b64174876e800816040015160ff166115a69190612f70565b34146115f45760405162461bcd60e51b815260206004820152601860248201527f57726f6e67207061796d656e7420696e20616374696f6e73000000000000000060448201526064016105aa565b60035460e08601516060880151805160209091015160405163086e529d60e41b8152600481019390935260ff91821660248401521660448201526001600160a01b03909116906386e529d090606401600060405180830381600087803b15801561165d57600080fd5b505af1158015611671573d6000803e3d6000fd5b50505050600760009054906101000a90046001600160a01b03166001600160a01b031663b69071948d83606001516040518363ffffffff1660e01b81526004016116c892919091825260ff16602082015260400190565b600060405180830381600087803b1580156116e257600080fd5b505af11580156116f6573d6000803e3d6000fd5b5050505060005b816040015160ff168110156117b057600560009054906101000a90046001600160a01b03166001600160a01b031663aa3eb1b564174876e8008f8a600001516040518463ffffffff1660e01b815260040161176b9291909182526001600160a01b0316602082015260400190565b6000604051808303818588803b15801561178457600080fd5b505af1158015611798573d6000803e3d6000fd5b505050505080806117a890612f8d565b9150506116fd565b50600754604080830151905163fe23e2df60e01b8152600481018f905260ff90911660248201526001600160a01b039091169063fe23e2df90604401610da2565b600589600881111561180557611805612b8c565b03611a305781606001516020015160000b84610120015160000b131561183d5760405162461bcd60e51b81526004016105aa90612ba2565b60035460e08401516060860151805160209091015160405162a1871b60e21b8152600481019390935260ff91821660248401521660448201526000916001600160a01b0316906302861c6c9060640160a060405180830381865afa1580156118a9573d6000803e3d6000fd5b505050506040513d601f19601f820116820180604052508101906118cd9190612ed4565b600654602082015160405163c82c37b960e01b81529293506000926001600160a01b039092169163c82c37b99161190a9160040190815260200190565b600060405180830381865afa158015611927573d6000803e3d6000fd5b505050506040513d6000823e601f3d908101601f1916820160405261194f9190810190613033565b905080602001511515600115151461199f5760405162461bcd60e51b8152602060048201526013602482015272115d995b9d081b9bdd081c195c9b585b995b9d606a1b60448201526064016105aa565b600760009054906101000a90046001600160a01b03166001600160a01b031663ed8619618d8f8860e001518a60600151876020015160006040518763ffffffff1660e01b8152600401610da2969594939291909586526020808701959095526040860193909352815160ff9081166060870152919093015116608084015260a083019190915260c082015260e00190565b6006896008811115611a4457611a44612b8c565b03611a7c5781606001516020015160000b84610120015160000b13156107435760405162461bcd60e51b81526004016105aa90612ba2565b6007896008811115611a9057611a90612b8c565b03611b945750600754845160405163351dacdf60e01b81526001926001600160a01b03169163351dacdf91611ad2918e91600401918252602082015260400190565b600060405180830381600087803b158015611aec57600080fd5b505af1158015611b00573d6000803e3d6000fd5b50505050600560009054906101000a90046001600160a01b03166001600160a01b03166311ff70478c878760600151600001518860600151602001518f6040518663ffffffff1660e01b8152600401611b5d95949392919061315f565b600060405180830381600087803b158015611b7757600080fd5b505af1158015611b8b573d6000803e3d6000fd5b50505050611fb6565b6008896008811115611ba857611ba8612b8c565b03611f6e57600480546040516302c497fb60e11b81526000926001600160a01b03909216916305892ff691611bdf918a9101613196565b600060405180830381865afa158015611bfc573d6000803e3d6000fd5b505050506040513d6000823e601f3d908101601f19168201604052611c2491908101906131a9565b905060005b8151811015611ecd57818181518110611c4457611c44612b76565b6020026020010151606001516000015160ff1686606001516000015160ff1614611ca55760405162461bcd60e51b8152602060048201526012602482015271506c61796572206e6f74206174206974656d60701b60448201526064016105aa565b818181518110611cb757611cb7612b76565b6020026020010151606001516020015160ff1686606001516020015160ff1614611d185760405162461bcd60e51b8152602060048201526012602482015271506c61796572206e6f74206174206974656d60701b60448201526064016105aa565b6000828281518110611d2c57611d2c612b76565b6020026020010151604001516003811115611d4957611d49612b8c565b1480611d8357506001828281518110611d6457611d64612b76565b6020026020010151604001516003811115611d8157611d81612b8c565b145b611dcf5760405162461bcd60e51b815260206004820152601e60248201527f4974656d20697320646973636172646564206f722064657374726f796564000060448201526064016105aa565b8c828281518110611de257611de2612b76565b60200260200101516000015114611e335760405162461bcd60e51b81526020600482015260156024820152744974656d206e6f7420696e20746869732067616d6560581b60448201526064016105aa565b6000828281518110611e4757611e47612b76565b6020026020010151604001516003811115611e6457611e64612b8c565b03611ebb5760405162461bcd60e51b815260206004820152602160248201527f556e6b6e6f776e206974656d73206e6f742079657420696d706c656d656e74656044820152601960fa1b60648201526084016105aa565b80611ec581612f8d565b915050611c29565b50600754865160405163fe23e2df60e01b8152600481018e90526024810191909152600193506001600160a01b039091169063fe23e2df90604401600060405180830381600087803b158015611f2257600080fd5b505af1158015611f36573d6000803e3d6000fd5b505060055487516040516307bc9a2360e21b81526001600160a01b039092169350631ef2688c925061112e918f918b91600401613286565b60405162461bcd60e51b815260206004820152601860248201527f4552524f523a2042616420616374696f6e20636f6e666967000000000000000060448201526064016105aa565b60048054604051630aa6e80360e41b81529182018d9052602482018c905282151560448301526001600160a01b03169063aa6e803090606401600060405180830381600087803b15801561200957600080fd5b505af115801561201d573d6000803e3d6000fd5b505050507f47d8a10cd6d278cdcd3ba78a5644a816c4fc82977c7699a483bfce11d1a45caf8b848c878d60405161205895949392919061343b565b60405180910390a15050505050505050505050565b61207561216c565b600180546001600160a01b03199081166001600160a01b03998a1617909155600280548216978916979097179096556003805487169588169590951790945560048054861693871693909317909255600580548516918616919091179055600680548416918516919091179055600780549092169216919091179055565b6120fb61216c565b6001600160a01b0381166121605760405162461bcd60e51b815260206004820152602660248201527f4f776e61626c653a206e6577206f776e657220697320746865207a65726f206160448201526564647265737360d01b60648201526084016105aa565b612169816121c6565b50565b6000546001600160a01b031633146103ef5760405162461bcd60e51b815260206004820181905260248201527f4f776e61626c653a2063616c6c6572206973206e6f7420746865206f776e657260448201526064016105aa565b600080546001600160a01b038381166001600160a01b0319831681178455604051919092169283917f8be0079c531659141344cd1fd0a4f28419497f9722a3daafe3b4186f6b6457e09190a35050565b6000806040838503121561222957600080fd5b50508035926020909101359150565b6000806000806080858703121561224e57600080fd5b5050823594602084013594506040840135936060013592509050565b634e487b7160e01b600052604160045260246000fd5b604080519081016001600160401b03811182821017156122a2576122a261226a565b60405290565b6040516101c081016001600160401b03811182821017156122a2576122a261226a565b604051608081016001600160401b03811182821017156122a2576122a261226a565b60405161020081016001600160401b03811182821017156122a2576122a261226a565b60405160e081016001600160401b03811182821017156122a2576122a261226a565b60405161012081016001600160401b03811182821017156122a2576122a261226a565b604051601f8201601f191681016001600160401b038111828210171561237d5761237d61226a565b604052919050565b60006001600160401b0382111561239e5761239e61226a565b5060051b60200190565b600080600080600080600060e0888a0312156123c357600080fd5b8735965060208089013596506040890135600981106123e157600080fd5b95506060890135600281106123f557600080fd5b94506080890135935060a0890135925060c08901356001600160401b0381111561241e57600080fd5b8901601f81018b1361242f57600080fd5b803561244261243d82612385565b612355565b81815260059190911b8201830190838101908d83111561246157600080fd5b928401925b8284101561247f57833582529284019290840190612466565b809550505050505092959891949750929550565b6001600160a01b038116811461216957600080fd5b600080600080600080600060e0888a0312156124c357600080fd5b87356124ce81612493565b965060208801356124de81612493565b955060408801356124ee81612493565b945060608801356124fe81612493565b9350608088013561250e81612493565b925060a088013561251e81612493565b915060c088013561252e81612493565b8091505092959891949750929550565b60006020828403121561255057600080fd5b813561255b81612493565b9392505050565b838152608081016125866020830185805160ff908116835260209182015116910152565b826060830152949350505050565b805161259f81612493565b919050565b805160ff8116811461259f57600080fd5b6000604082840312156125c757600080fd5b6125cf612280565b90506125da826125a4565b81526125e8602083016125a4565b602082015292915050565b8051600081900b811461259f57600080fd5b600082601f83011261261657600080fd5b8151602061262661243d83612385565b82815260059290921b8401810191818101908684111561264557600080fd5b8286015b848110156126675761265a816125a4565b8352918301918301612649565b509695505050505050565b8051801515811461259f57600080fd5b60006020828403121561269457600080fd5b81516001600160401b03808211156126ab57600080fd5b908301906101e082860312156126c057600080fd5b6126c86122a8565b6126d183612594565b81526126df60208401612594565b6020820152604083015160408201526126fb86606085016125b5565b606082015261270c60a084016125f3565b608082015261271d60c084016125a4565b60a082015261272e60e084016125a4565b60c08201526101006127418185016125a4565b60e0830152610120808501518481111561275a57600080fd5b61276689828801612605565b8385015250610140935061277b8486016125a4565b908301525061016061278e848201612672565b8383015261018092506127a2838501612672565b908201526101a06127b4848201612672565b928201929092526101c09290920151908201529392505050565b600082601f8301126127df57600080fd5b815160206127ef61243d83612385565b82815260059290921b8401810191818101908684111561280e57600080fd5b8286015b848110156126675780518352918301918301612812565b60006080828403121561283b57600080fd5b6128436122cb565b905061284e826125a4565b815261285c602083016125a4565b602082015261286d604083016125a4565b604082015261287e606083016125a4565b606082015292915050565b80516006811061259f57600080fd5b6000602082840312156128aa57600080fd5b81516001600160401b03808211156128c157600080fd5b9083019061028082860312156128d657600080fd5b6128de6122ed565b6128e783612672565b81526020830151828111156128fb57600080fd5b612907878286016127ce565b6020830152506040830151604082015260608301516060820152608083015160808201526129388660a08501612829565b60a082015261012061294b818501612594565b60c08301526101408085015160e08401526101608086015161010085015261018080870151848601526101a09350612984848801612889565b838601526101c092506129998a8489016125b5565b828601526102008701519150858211156129b257600080fd5b6129be8a8389016127ce565b9085015250610220850151848111156129d657600080fd5b6129e2898288016127ce565b83850152506102408501519150838211156129fc57600080fd5b612a08888387016127ce565b908301525061026083015182811115612a2057600080fd5b612a2c878286016127ce565b6101e08301525095945050505050565b600060e08284031215612a4e57600080fd5b612a56612310565b9050612a61826125f3565b8152612a6f602083016125f3565b6020820152612a80604083016125f3565b6040820152612a91606083016125f3565b6060820152612aa2608083016125f3565b6080820152612ab360a083016125f3565b60a0820152612ac460c083016125f3565b60c082015292915050565b60006101e08284031215612ae257600080fd5b612aea612332565b825181526020830151602082015260408301516040820152612b0f8460608501612a3c565b6060820152612b2161014084016125a4565b6080820152612b3361016084016125a4565b60a0820152612b4561018084016125a4565b60c0820152612b576101a084016125a4565b60e0820152612b696101c08401612672565b6101008201529392505050565b634e487b7160e01b600052603260045260246000fd5b634e487b7160e01b600052602160045260246000fd5b602080825260169082015275486f6c64696e6720746f6f206d616e79206974656d7360501b604082015260600190565b600060608284031215612be457600080fd5b604051606081018181106001600160401b0382111715612c0657612c0661226a565b604052612c12836125a4565b8152612c20602084016125a4565b6020820152604083015160058110612c3757600080fd5b60408201529392505050565b86815260ff8681166020830152851660408201526060810184905260c0810160058410612c7257612c72612b8c565b608082019390935260a00152949350505050565b8281526060810161255b6020830184805160ff908116835260209182015116910152565b600060408284031215612cbc57600080fd5b61255b83836125b5565b60006101408284031215612cd957600080fd5b612ce1612310565b9050612cec826125a4565b81526020612cfb8184016125a4565b8183015283605f840112612d0e57600080fd5b612d166122cb565b8060c0850186811115612d2857600080fd5b604086015b81811015612d445780518452928401928401612d2d565b50816040860152612d5481612672565b606086015250505050612d6960e08301612672565b6080820152612d7b6101008301612672565b60a0820152612ac46101208301612672565b60006020808385031215612da057600080fd5b82516001600160401b0380821115612db757600080fd5b818501915085601f830112612dcb57600080fd5b8151612dd961243d82612385565b81815260059190911b83018401908481019088831115612df857600080fd5b8585015b83811015612e8f57805185811115612e1357600080fd5b8601603f81018b13612e2457600080fd5b87810151612e3461243d82612385565b8181526101409182028301604001918a820191908e841115612e565760008081fd5b6040850194505b83851015612e7e57612e6f8f86612cc6565b835293840193918b0191612e5d565b508652505050918601918601612dfc565b5098975050505050505050565b600060208284031215612eae57600080fd5b61255b82612672565b60006101408284031215612eca57600080fd5b61255b8383612cc6565b600060a08284031215612ee657600080fd5b60405160a081018181106001600160401b0382111715612f0857612f0861226a565b604052612f1483612889565b815260208301516020820152612f2c604084016125a4565b6040820152612f3d606084016125a4565b6060820152612f4e60808401612672565b60808201529392505050565b634e487b7160e01b600052601160045260246000fd5b8082028115828204841417612f8757612f87612f5a565b92915050565b600060018201612f9f57612f9f612f5a565b5060010190565b600082601f830112612fb757600080fd5b81516020612fc761243d83612385565b82815260069290921b84018101918181019086841115612fe657600080fd5b8286015b8481101561266757604081890312156130035760008081fd5b61300b612280565b81516017811061301b5760008081fd5b81528185015185820152835291830191604001612fea565b60006020828403121561304557600080fd5b81516001600160401b038082111561305c57600080fd5b9083019060e0828603121561307057600080fd5b613078612310565b8251815261308860208401612672565b6020820152613099604084016125a4565b60408201526130aa606084016125a4565b60608201526080830151828111156130c157600080fd5b6130cd87828601612fa6565b60808301525060a0830151828111156130e557600080fd5b6130f187828601612fa6565b60a08301525060c08301518281111561310957600080fd5b61311587828601612fa6565b60c08301525095945050505050565b600081518084526020808501945080840160005b8381101561315457815187529582019590820190600101613138565b509495945050505050565b85815260a06020820152600061317860a0830187613124565b60ff9586166040840152939094166060820152608001529392505050565b60208152600061255b6020830184613124565b600060208083850312156131bc57600080fd5b82516001600160401b038111156131d257600080fd5b8301601f810185136131e357600080fd5b80516131f161243d82612385565b81815260a0918202830184019184820191908884111561321057600080fd5b938501935b8385101561327a5780858a03121561322d5760008081fd5b6132356122cb565b855181528686015187820152604080870151600481106132555760008081fd5b9082015260606132678b8883016125b5565b9082015283529384019391850191613215565b50979650505050505050565b83815260606020820152600061329f6060830185613124565b905060018060a01b0383166040830152949350505050565b600681106132c7576132c7612b8c565b9052565b600081518084526020808501945080840160005b8381101561315457815160ff16875295820195908201906001016132df565b80516001600160a01b0316825260006101e0602083015161332a60208601826001600160a01b03169052565b506040830151604085015260608301516133576060860182805160ff908116835260209182015116910152565b50608083015161336c60a086018260000b9052565b5060a083015160ff811660c08601525060c083015160ff811660e08601525060e08301516101006133a18187018360ff169052565b8085015191505061012082818701526133bc838701836132cb565b9250808501519150506101406133d68187018360ff169052565b84015190506101606133eb8682018315159052565b84015190506101806134008682018315159052565b84015190506101a06134158682018315159052565b808501516101c087015250508091505092915050565b600981106132c7576132c7612b8c565b85815260a0602082015261345460a08201865115159052565b6000602086015161028060c0840152613471610320840182613124565b9050604087015160e08401526060870151610100818186015260808901519150610120828187015260a08a015192506101406134dc8188018560ff815116825260ff602082015116602083015260ff604082015116604083015260ff60608201511660608301525050565b60c08b015193506101c06134fa818901866001600160a01b03169052565b60e08c015194506101e085818a0152848d01516102008a0152838d01516102208a0152828d015195506135316102408a01876132b7565b6101608d0151805160ff9081166102608c01526020820151166102808b015295506101808d01519550609f19945084898803016102a08a01526135748787613124565b96506101a08d0151955084898803016102c08a01526135938787613124565b9650818d0151955084898803016102e08a01526135b08787613124565b9650808d01519550505050508085840301610300860152506135d28282613124565b91505085604084015282810360608401526135ed81866132fe565b9150506135fd608083018461342b565b969550505050505056fea264697066735822122002c66da9b09bee1f8b38054bc5ee1f1a1fbee9d45a317b853de7490b236f1a5464736f6c63430008110033",
  "devdoc": {
    "kind": "dev",
    "methods": {
      "owner()": {
        "details": "Returns the address of the current owner."
      },
      "renounceOwnership()": {
        "details": "Leaves the contract without owner. It will not be possible to call `onlyOwner` functions anymore. Can only be called by the current owner. NOTE: Renouncing ownership will leave the contract without an owner, thereby removing any functionality that is only available to the owner."
      },
      "transferOwnership(address)": {
        "details": "Transfers ownership of the contract to a new account (`newOwner`). Can only be called by the current owner."
      }
    },
    "version": 1
  },
  "userdoc": {
    "kind": "user",
    "methods": {},
    "version": 1
  },
  "storageLayout": {
    "storage": [
      {
        "astId": 7,
        "contract": "contracts/Actions.sol:Actions",
        "label": "_owner",
        "offset": 0,
        "slot": "0",
        "type": "t_address"
      },
      {
        "astId": 2114,
        "contract": "contracts/Actions.sol:Actions",
        "label": "chars",
        "offset": 0,
        "slot": "1",
        "type": "t_contract(CharInterface)1845"
      },
      {
        "astId": 2117,
        "contract": "contracts/Actions.sol:Actions",
        "label": "utils",
        "offset": 0,
        "slot": "2",
        "type": "t_contract(UtilsInterface)1868"
      },
      {
        "astId": 2120,
        "contract": "contracts/Actions.sol:Actions",
        "label": "maps",
        "offset": 0,
        "slot": "3",
        "type": "t_contract(MapInterface)1952"
      },
      {
        "astId": 2123,
        "contract": "contracts/Actions.sol:Actions",
        "label": "games",
        "offset": 0,
        "slot": "4",
        "type": "t_contract(GamesInterface)1990"
      },
      {
        "astId": 2126,
        "contract": "contracts/Actions.sol:Actions",
        "label": "items",
        "offset": 0,
        "slot": "5",
        "type": "t_contract(ItemsInterface)2022"
      },
      {
        "astId": 2129,
        "contract": "contracts/Actions.sol:Actions",
        "label": "bcEvents",
        "offset": 0,
        "slot": "6",
        "type": "t_contract(EventsInterface)2063"
      },
      {
        "astId": 2132,
        "contract": "contracts/Actions.sol:Actions",
        "label": "players",
        "offset": 0,
        "slot": "7",
        "type": "t_contract(PlayersInterface)2109"
      },
      {
        "astId": 2134,
        "contract": "contracts/Actions.sol:Actions",
        "label": "charsAddress",
        "offset": 0,
        "slot": "8",
        "type": "t_address"
      }
    ],
    "types": {
      "t_address": {
        "encoding": "inplace",
        "label": "address",
        "numberOfBytes": "20"
      },
      "t_contract(CharInterface)1845": {
        "encoding": "inplace",
        "label": "contract CharInterface",
        "numberOfBytes": "20"
      },
      "t_contract(EventsInterface)2063": {
        "encoding": "inplace",
        "label": "contract EventsInterface",
        "numberOfBytes": "20"
      },
      "t_contract(GamesInterface)1990": {
        "encoding": "inplace",
        "label": "contract GamesInterface",
        "numberOfBytes": "20"
      },
      "t_contract(ItemsInterface)2022": {
        "encoding": "inplace",
        "label": "contract ItemsInterface",
        "numberOfBytes": "20"
      },
      "t_contract(MapInterface)1952": {
        "encoding": "inplace",
        "label": "contract MapInterface",
        "numberOfBytes": "20"
      },
      "t_contract(PlayersInterface)2109": {
        "encoding": "inplace",
        "label": "contract PlayersInterface",
        "numberOfBytes": "20"
      },
      "t_contract(UtilsInterface)1868": {
        "encoding": "inplace",
        "label": "contract UtilsInterface",
        "numberOfBytes": "20"
      }
    }
  }
}