{
  "address": "0xBb546a729BCaE3119be1948E1Df2c9c396972432",
  "abi": [
    {
      "anonymous": false,
      "inputs": [
        {
          "indexed": false,
          "internalType": "uint256",
          "name": "gameId",
          "type": "uint256"
        },
        {
          "components": [
            {
              "internalType": "bool",
              "name": "active",
              "type": "bool"
            },
            {
              "internalType": "bool",
              "name": "denizenTurn",
              "type": "bool"
            },
            {
              "internalType": "uint256[]",
              "name": "playerIndexes",
              "type": "uint256[]"
            },
            {
              "internalType": "uint256",
              "name": "currentPlayerTurnIndex",
              "type": "uint256"
            },
            {
              "internalType": "uint256",
              "name": "numPlayers",
              "type": "uint256"
            },
            {
              "internalType": "uint256",
              "name": "turnsTaken",
              "type": "uint256"
            },
            {
              "components": [
                {
                  "internalType": "uint8",
                  "name": "bugEvents",
                  "type": "uint8"
                },
                {
                  "internalType": "uint8",
                  "name": "mysteryEvents",
                  "type": "uint8"
                },
                {
                  "internalType": "uint8",
                  "name": "scavEvents",
                  "type": "uint8"
                },
                {
                  "internalType": "uint8",
                  "name": "shipEvents",
                  "type": "uint8"
                }
              ],
              "internalType": "struct BCTypes.EventTracker",
              "name": "eventTracker",
              "type": "tuple"
            },
            {
              "internalType": "uint256",
              "name": "mapId",
              "type": "uint256"
            },
            {
              "internalType": "uint256",
              "name": "eventPlayerId",
              "type": "uint256"
            },
            {
              "internalType": "uint256",
              "name": "eventNumber",
              "type": "uint256"
            },
            {
              "internalType": "enum BCTypes.BCEventType",
              "name": "eventType",
              "type": "uint8"
            },
            {
              "components": [
                {
                  "internalType": "uint8",
                  "name": "row",
                  "type": "uint8"
                },
                {
                  "internalType": "uint8",
                  "name": "col",
                  "type": "uint8"
                }
              ],
              "internalType": "struct BCTypes.Position",
              "name": "eventPosition",
              "type": "tuple"
            },
            {
              "internalType": "uint256[]",
              "name": "unusedBugEvents",
              "type": "uint256[]"
            },
            {
              "internalType": "uint256[]",
              "name": "unusedMysteryEvents",
              "type": "uint256[]"
            },
            {
              "internalType": "uint256[]",
              "name": "unusedScavEvents",
              "type": "uint256[]"
            },
            {
              "internalType": "uint256[]",
              "name": "unusedShipEvents",
              "type": "uint256[]"
            },
            {
              "internalType": "uint256",
              "name": "turnTimeLimit",
              "type": "uint256"
            },
            {
              "internalType": "uint256",
              "name": "lastTurnTimestamp",
              "type": "uint256"
            },
            {
              "internalType": "uint256",
              "name": "DEBUG_returnAmount",
              "type": "uint256"
            },
            {
              "components": [
                {
                  "internalType": "uint256",
                  "name": "id",
                  "type": "uint256"
                },
                {
                  "internalType": "uint256",
                  "name": "gameId",
                  "type": "uint256"
                },
                {
                  "internalType": "enum BCTypes.DenizenType",
                  "name": "denizenType",
                  "type": "uint8"
                },
                {
                  "components": [
                    {
                      "internalType": "uint8",
                      "name": "row",
                      "type": "uint8"
                    },
                    {
                      "internalType": "uint8",
                      "name": "col",
                      "type": "uint8"
                    }
                  ],
                  "internalType": "struct BCTypes.Position",
                  "name": "position",
                  "type": "tuple"
                },
                {
                  "internalType": "uint256",
                  "name": "healthRemaining",
                  "type": "uint256"
                },
                {
                  "internalType": "bool",
                  "name": "looted",
                  "type": "bool"
                }
              ],
              "internalType": "struct BCTypes.Denizen[]",
              "name": "denizens",
              "type": "tuple[]"
            }
          ],
          "indexed": false,
          "internalType": "struct BCTypes.Game",
          "name": "game",
          "type": "tuple"
        },
        {
          "indexed": false,
          "internalType": "uint256",
          "name": "playerId",
          "type": "uint256"
        },
        {
          "components": [
            {
              "internalType": "address",
              "name": "owner",
              "type": "address"
            },
            {
              "internalType": "uint256",
              "name": "characterId",
              "type": "uint256"
            },
            {
              "internalType": "uint256",
              "name": "id",
              "type": "uint256"
            },
            {
              "components": [
                {
                  "internalType": "int8",
                  "name": "health",
                  "type": "int8"
                },
                {
                  "internalType": "int8",
                  "name": "carry",
                  "type": "int8"
                },
                {
                  "internalType": "int8",
                  "name": "defense",
                  "type": "int8"
                },
                {
                  "internalType": "int8",
                  "name": "hack",
                  "type": "int8"
                },
                {
                  "internalType": "int8",
                  "name": "breach",
                  "type": "int8"
                },
                {
                  "internalType": "int8",
                  "name": "shoot",
                  "type": "int8"
                },
                {
                  "internalType": "int8",
                  "name": "melee",
                  "type": "int8"
                },
                {
                  "internalType": "bool",
                  "name": "hasGun",
                  "type": "bool"
                }
              ],
              "internalType": "struct BCTypes.Traits",
              "name": "currentTraits",
              "type": "tuple"
            },
            {
              "components": [
                {
                  "internalType": "uint8",
                  "name": "row",
                  "type": "uint8"
                },
                {
                  "internalType": "uint8",
                  "name": "col",
                  "type": "uint8"
                }
              ],
              "internalType": "struct BCTypes.Position",
              "name": "position",
              "type": "tuple"
            },
            {
              "components": [
                {
                  "internalType": "uint8",
                  "name": "row",
                  "type": "uint8"
                },
                {
                  "internalType": "uint8",
                  "name": "col",
                  "type": "uint8"
                }
              ],
              "internalType": "struct BCTypes.Position",
              "name": "lastPos",
              "type": "tuple"
            },
            {
              "internalType": "int8",
              "name": "healthDmgTaken",
              "type": "int8"
            },
            {
              "internalType": "uint8",
              "name": "armorDmgTaken",
              "type": "uint8"
            },
            {
              "internalType": "uint8",
              "name": "actionsTaken",
              "type": "uint8"
            },
            {
              "internalType": "uint8",
              "name": "dataTokens",
              "type": "uint8"
            },
            {
              "internalType": "uint8[]",
              "name": "currentEffects",
              "type": "uint8[]"
            },
            {
              "internalType": "uint8",
              "name": "numItemsHeld",
              "type": "uint8"
            },
            {
              "internalType": "bool",
              "name": "dead",
              "type": "bool"
            },
            {
              "internalType": "uint256",
              "name": "gameId",
              "type": "uint256"
            }
          ],
          "indexed": false,
          "internalType": "struct BCTypes.Player",
          "name": "player",
          "type": "tuple"
        },
        {
          "indexed": false,
          "internalType": "enum BCTypes.Action",
          "name": "action",
          "type": "uint8"
        }
      ],
      "name": "ActionCompleteEvent",
      "type": "event"
    },
    {
      "anonymous": false,
      "inputs": [
        {
          "indexed": false,
          "internalType": "uint256",
          "name": "gameId",
          "type": "uint256"
        },
        {
          "indexed": false,
          "internalType": "uint256",
          "name": "roll",
          "type": "uint256"
        },
        {
          "indexed": false,
          "internalType": "uint256",
          "name": "forValue",
          "type": "uint256"
        },
        {
          "indexed": false,
          "internalType": "uint256",
          "name": "against",
          "type": "uint256"
        }
      ],
      "name": "ChallengeEvent",
      "type": "event"
    },
    {
      "anonymous": false,
      "inputs": [
        {
          "indexed": false,
          "internalType": "uint256",
          "name": "gameId",
          "type": "uint256"
        },
        {
          "indexed": false,
          "internalType": "uint256",
          "name": "roll",
          "type": "uint256"
        }
      ],
      "name": "DiceRollEvent",
      "type": "event"
    },
    {
      "anonymous": false,
      "inputs": [
        {
          "indexed": true,
          "internalType": "address",
          "name": "previousOwner",
          "type": "address"
        },
        {
          "indexed": true,
          "internalType": "address",
          "name": "newOwner",
          "type": "address"
        }
      ],
      "name": "OwnershipTransferred",
      "type": "event"
    },
    {
      "inputs": [
        {
          "internalType": "int256",
          "name": "x",
          "type": "int256"
        }
      ],
      "name": "abs",
      "outputs": [
        {
          "internalType": "int256",
          "name": "",
          "type": "int256"
        }
      ],
      "stateMutability": "pure",
      "type": "function"
    },
    {
      "inputs": [],
      "name": "bcEvents",
      "outputs": [
        {
          "internalType": "contract EventsInterface",
          "name": "",
          "type": "address"
        }
      ],
      "stateMutability": "view",
      "type": "function"
    },
    {
      "inputs": [],
      "name": "chars",
      "outputs": [
        {
          "internalType": "contract CharInterface",
          "name": "",
          "type": "address"
        }
      ],
      "stateMutability": "view",
      "type": "function"
    },
    {
      "inputs": [],
      "name": "charsAddress",
      "outputs": [
        {
          "internalType": "address",
          "name": "",
          "type": "address"
        }
      ],
      "stateMutability": "view",
      "type": "function"
    },
    {
      "inputs": [
        {
          "internalType": "uint256",
          "name": "_gameId",
          "type": "uint256"
        },
        {
          "internalType": "uint256",
          "name": "_playerId",
          "type": "uint256"
        }
      ],
      "name": "debugMovePlayerForTesting",
      "outputs": [],
      "stateMutability": "nonpayable",
      "type": "function"
    },
    {
      "inputs": [
        {
          "internalType": "uint256",
          "name": "_gameId",
          "type": "uint256"
        },
        {
          "internalType": "uint256",
          "name": "_playerId",
          "type": "uint256"
        },
        {
          "internalType": "uint256",
          "name": "_row",
          "type": "uint256"
        },
        {
          "internalType": "uint256",
          "name": "_col",
          "type": "uint256"
        }
      ],
      "name": "debugMovePlayerToRoom",
      "outputs": [],
      "stateMutability": "nonpayable",
      "type": "function"
    },
    {
      "inputs": [
        {
          "internalType": "uint256",
          "name": "_gameId",
          "type": "uint256"
        },
        {
          "internalType": "uint256",
          "name": "_playerId",
          "type": "uint256"
        },
        {
          "internalType": "enum BCTypes.Action",
          "name": "_action",
          "type": "uint8"
        },
        {
          "internalType": "enum BCTypes.Followthrough",
          "name": "_followthrough",
          "type": "uint8"
        },
        {
          "internalType": "uint256",
          "name": "_1stDirection",
          "type": "uint256"
        },
        {
          "internalType": "uint256",
          "name": "_2ndDirection",
          "type": "uint256"
        },
        {
          "internalType": "uint256[]",
          "name": "_ids",
          "type": "uint256[]"
        }
      ],
      "name": "doAction",
      "outputs": [],
      "stateMutability": "payable",
      "type": "function"
    },
    {
      "inputs": [],
      "name": "games",
      "outputs": [
        {
          "internalType": "contract GamesInterface",
          "name": "",
          "type": "address"
        }
      ],
      "stateMutability": "view",
      "type": "function"
    },
    {
      "inputs": [
        {
          "components": [
            {
              "internalType": "uint8",
              "name": "row",
              "type": "uint8"
            },
            {
              "internalType": "uint8",
              "name": "col",
              "type": "uint8"
            }
          ],
          "internalType": "struct BCTypes.Position",
          "name": "_firstRoom",
          "type": "tuple"
        },
        {
          "components": [
            {
              "internalType": "uint8",
              "name": "row",
              "type": "uint8"
            },
            {
              "internalType": "uint8",
              "name": "col",
              "type": "uint8"
            }
          ],
          "internalType": "struct BCTypes.Position",
          "name": "_secondRoom",
          "type": "tuple"
        }
      ],
      "name": "getDirectionBetween",
      "outputs": [
        {
          "internalType": "uint256",
          "name": "",
          "type": "uint256"
        }
      ],
      "stateMutability": "pure",
      "type": "function"
    },
    {
      "inputs": [
        {
          "internalType": "uint256",
          "name": "_gameId",
          "type": "uint256"
        }
      ],
      "name": "getEventBlocks",
      "outputs": [
        {
          "internalType": "uint256[]",
          "name": "",
          "type": "uint256[]"
        }
      ],
      "stateMutability": "view",
      "type": "function"
    },
    {
      "inputs": [
        {
          "internalType": "uint256",
          "name": "_direction",
          "type": "uint256"
        },
        {
          "components": [
            {
              "internalType": "uint8",
              "name": "row",
              "type": "uint8"
            },
            {
              "internalType": "uint8",
              "name": "col",
              "type": "uint8"
            }
          ],
          "internalType": "struct BCTypes.Position",
          "name": "_start",
          "type": "tuple"
        }
      ],
      "name": "getNeighborRoom",
      "outputs": [
        {
          "components": [
            {
              "internalType": "uint8",
              "name": "row",
              "type": "uint8"
            },
            {
              "internalType": "uint8",
              "name": "col",
              "type": "uint8"
            }
          ],
          "internalType": "struct BCTypes.Position",
          "name": "",
          "type": "tuple"
        }
      ],
      "stateMutability": "pure",
      "type": "function"
    },
    {
      "inputs": [
        {
          "internalType": "uint256",
          "name": "_traitNum",
          "type": "uint256"
        },
        {
          "internalType": "uint256",
          "name": "_subTraitNum",
          "type": "uint256"
        }
      ],
      "name": "getUIOffset",
      "outputs": [
        {
          "internalType": "uint256",
          "name": "",
          "type": "uint256"
        }
      ],
      "stateMutability": "pure",
      "type": "function"
    },
    {
      "inputs": [],
      "name": "items",
      "outputs": [
        {
          "internalType": "contract ItemsInterface",
          "name": "",
          "type": "address"
        }
      ],
      "stateMutability": "view",
      "type": "function"
    },
    {
      "inputs": [
        {
          "components": [
            {
              "internalType": "uint8",
              "name": "row",
              "type": "uint8"
            },
            {
              "internalType": "uint8",
              "name": "col",
              "type": "uint8"
            }
          ],
          "internalType": "struct BCTypes.Position",
          "name": "_pos1",
          "type": "tuple"
        },
        {
          "components": [
            {
              "internalType": "uint8",
              "name": "row",
              "type": "uint8"
            },
            {
              "internalType": "uint8",
              "name": "col",
              "type": "uint8"
            }
          ],
          "internalType": "struct BCTypes.Position",
          "name": "_pos2",
          "type": "tuple"
        }
      ],
      "name": "manhattanDistance",
      "outputs": [
        {
          "internalType": "uint256",
          "name": "",
          "type": "uint256"
        }
      ],
      "stateMutability": "pure",
      "type": "function"
    },
    {
      "inputs": [],
      "name": "maps",
      "outputs": [
        {
          "internalType": "contract MapInterface",
          "name": "",
          "type": "address"
        }
      ],
      "stateMutability": "view",
      "type": "function"
    },
    {
      "inputs": [
        {
          "internalType": "uint256",
          "name": "_min",
          "type": "uint256"
        },
        {
          "internalType": "uint256",
          "name": "_max",
          "type": "uint256"
        },
        {
          "internalType": "uint256",
          "name": "_val",
          "type": "uint256"
        },
        {
          "internalType": "uint256",
          "name": "_valMax",
          "type": "uint256"
        }
      ],
      "name": "normalizeToSmallRange",
      "outputs": [
        {
          "internalType": "uint8",
          "name": "",
          "type": "uint8"
        }
      ],
      "stateMutability": "pure",
      "type": "function"
    },
    {
      "inputs": [
        {
          "internalType": "uint256",
          "name": "_direction",
          "type": "uint256"
        }
      ],
      "name": "opposite",
      "outputs": [
        {
          "internalType": "uint256",
          "name": "",
          "type": "uint256"
        }
      ],
      "stateMutability": "pure",
      "type": "function"
    },
    {
      "inputs": [],
      "name": "owner",
      "outputs": [
        {
          "internalType": "address",
          "name": "",
          "type": "address"
        }
      ],
      "stateMutability": "view",
      "type": "function"
    },
    {
      "inputs": [],
      "name": "players",
      "outputs": [
        {
          "internalType": "contract PlayersInterface",
          "name": "",
          "type": "address"
        }
      ],
      "stateMutability": "view",
      "type": "function"
    },
    {
      "inputs": [],
      "name": "randKeccak",
      "outputs": [
        {
          "internalType": "bytes32",
          "name": "",
          "type": "bytes32"
        }
      ],
      "stateMutability": "nonpayable",
      "type": "function"
    },
    {
      "inputs": [],
      "name": "renounceOwnership",
      "outputs": [],
      "stateMutability": "nonpayable",
      "type": "function"
    },
    {
      "inputs": [
        {
          "internalType": "uint256",
          "name": "_gameId",
          "type": "uint256"
        },
        {
          "internalType": "uint256",
          "name": "_for",
          "type": "uint256"
        },
        {
          "internalType": "uint256",
          "name": "_against",
          "type": "uint256"
        }
      ],
      "name": "resolveChallenge",
      "outputs": [
        {
          "internalType": "bool",
          "name": "",
          "type": "bool"
        }
      ],
      "stateMutability": "nonpayable",
      "type": "function"
    },
    {
      "inputs": [
        {
          "internalType": "uint256",
          "name": "_gameId",
          "type": "uint256"
        }
      ],
      "name": "roll",
      "outputs": [
        {
          "internalType": "uint256",
          "name": "",
          "type": "uint256"
        }
      ],
      "stateMutability": "nonpayable",
      "type": "function"
    },
    {
      "inputs": [
        {
          "internalType": "address",
          "name": "_charAddress",
          "type": "address"
        },
        {
          "internalType": "address",
          "name": "_utilsAddress",
          "type": "address"
        },
        {
          "internalType": "address",
          "name": "_mapsAddress",
          "type": "address"
        },
        {
          "internalType": "address",
          "name": "_gamesAddress",
          "type": "address"
        },
        {
          "internalType": "address",
          "name": "_itemsAddress",
          "type": "address"
        },
        {
          "internalType": "address",
          "name": "_eventsAddress",
          "type": "address"
        },
        {
          "internalType": "address",
          "name": "_playersAddress",
          "type": "address"
        }
      ],
      "name": "setContractAddresses",
      "outputs": [],
      "stateMutability": "nonpayable",
      "type": "function"
    },
    {
      "inputs": [
        {
          "internalType": "bytes32",
          "name": "_hash",
          "type": "bytes32"
        },
        {
          "internalType": "uint256",
          "name": "_size",
          "type": "uint256"
        },
        {
          "internalType": "uint256",
          "name": "_offset",
          "type": "uint256"
        }
      ],
      "name": "sliceHashToSmallInt",
      "outputs": [
        {
          "internalType": "uint8",
          "name": "",
          "type": "uint8"
        }
      ],
      "stateMutability": "pure",
      "type": "function"
    },
    {
      "inputs": [
        {
          "internalType": "uint8",
          "name": "_min",
          "type": "uint8"
        },
        {
          "internalType": "uint8",
          "name": "_max",
          "type": "uint8"
        }
      ],
      "name": "smallIntBetweenVals",
      "outputs": [
        {
          "internalType": "uint8",
          "name": "",
          "type": "uint8"
        }
      ],
      "stateMutability": "nonpayable",
      "type": "function"
    },
    {
      "inputs": [
        {
          "internalType": "address",
          "name": "newOwner",
          "type": "address"
        }
      ],
      "name": "transferOwnership",
      "outputs": [],
      "stateMutability": "nonpayable",
      "type": "function"
    }
  ],
  "transactionHash": "0x93289144ad0c0248c54b030b47c94638a07cbb150488be349ec4b1d0c0d65a1e",
  "args": [],
  "numDeployments": 1,
  "solcInputHash": "47bac0ef713048e9b2d596a12d77c6d4",
  "bytecode": "0x608060405260006001553480156200001657600080fd5b50620000223362000028565b62000078565b600080546001600160a01b038381166001600160a01b0319831681178455604051919092169283917f8be0079c531659141344cd1fd0a4f28419497f9722a3daafe3b4186f6b6457e09190a35050565b61484280620000886000396000f3fe60806040526004361061019c5760003560e01c80638214f222116100ec578063c06fad061161008a578063dc0b356411610064578063dc0b3564146104c9578063f10bff2b146104e9578063f2fde38b14610509578063fa3993c21461052957600080fd5b8063c06fad0614610469578063ce28613f14610489578063d72be09d146104a957600080fd5b8063955a015b116100c6578063955a015b146103f657806397f34c3f146104165780639fca1ee114610436578063a8ca85bb1461045657600080fd5b80638214f2221461038b5780638da5cb5b146103ab578063951fc3fe146103c957600080fd5b80634102b1a7116101595780635dc96967116101335780635dc969671461030657806364db84bf14610336578063715018a6146103565780637ddae1031461036b57600080fd5b80634102b1a714610292578063425c38d8146102b457806353011696146102d457600080fd5b80630e73c024146101a157806310a2cd0d146101d75780631b5ac4b51461020f5780631e1de2051461023d5780631f7b4f30146102525780633deaec2b14610272575b600080fd5b3480156101ad57600080fd5b506101c16101bc366004612d89565b610549565b6040516101ce9190612ddd565b60405180910390f35b3480156101e357600080fd5b506003546101f7906001600160a01b031681565b6040516001600160a01b0390911681526020016101ce565b34801561021b57600080fd5b5061022f61022a366004612d89565b610569565b6040519081526020016101ce565b34801561024957600080fd5b5061022f610585565b34801561025e57600080fd5b5061022f61026d366004612d89565b6105fd565b34801561027e57600080fd5b506004546101f7906001600160a01b031681565b34801561029e57600080fd5b506102b26102ad366004612df0565b610659565b005b3480156102c057600080fd5b506102b26102cf366004612e12565b6106dc565b3480156102e057600080fd5b506102f46102ef366004612e12565b610765565b60405160ff90911681526020016101ce565b34801561031257600080fd5b50610326610321366004612e44565b6107a2565b60405190151581526020016101ce565b34801561034257600080fd5b5061022f610351366004612df0565b61083f565b34801561036257600080fd5b506102b2610857565b34801561037757600080fd5b506007546101f7906001600160a01b031681565b34801561039757600080fd5b5061022f6103a6366004612d89565b61086b565b3480156103b757600080fd5b506000546001600160a01b03166101f7565b3480156103d557600080fd5b506103e96103e4366004612fb9565b6108ea565b6040516101ce9190612fe6565b34801561040257600080fd5b506005546101f7906001600160a01b031681565b34801561042257600080fd5b506102f4610431366004612e44565b610a14565b34801561044257600080fd5b506009546101f7906001600160a01b031681565b6102b2610464366004613027565b610a3f565b34801561047557600080fd5b506006546101f7906001600160a01b031681565b34801561049557600080fd5b506102f46104a4366004613112565b612742565b3480156104b557600080fd5b506102b26104c4366004613160565b6127f2565b3480156104d557600080fd5b506008546101f7906001600160a01b031681565b3480156104f557600080fd5b5061022f6105043660046131f6565b61286b565b34801561051557600080fd5b506102b2610524366004613222565b6128b8565b34801561053557600080fd5b5061022f6105443660046131f6565b612931565b6000818152600260205260409020606090610563906129f9565b92915050565b6000808212156105815761057c82613255565b610563565b5090565b600180546000918261059683613271565b91905055506001546001436105ab919061328a565b40336040516020016105e293929190928352602083019190915260601b6bffffffffffffffffffffffff1916604082015260540190565b60405160208183030381529060405280519060200120905090565b60008061060c60016006612742565b60ff1690507ffe34d093a460a16ee5fb374540914d1c734a17502c0c1a87b387c8d6097e1c51838260405161064b929190918252602082015260400190565b60405180910390a192915050565b610661612a06565b600554604080518082018252600080825260208201529051631751422560e01b81526001600160a01b03909216916317514225916106a691869190869060040161329d565b600060405180830381600087803b1580156106c057600080fd5b505af11580156106d4573d6000803e3d6000fd5b505050505050565b6106e4612a06565b60055460408051808201825260ff8086168252841660208201529051631751422560e01b81526001600160a01b039092169163175142259161072d91889190889060040161329d565b600060405180830381600087803b15801561074757600080fd5b505af115801561075b573d6000803e3d6000fd5b5050505050505050565b600080610772868661328a565b905060008361078186846132cf565b61078b91906132fc565b90506107978782613310565b979650505050505050565b6000806107ae856105fd565b6040805187815260208101839052908101869052606081018590529091507f75b6a8325595f91135e07382840634226793c68c9e59623da7e10d7ad3d95b959060800160405180910390a18060010361080b576000915050610838565b6003836108188684613310565b6108229190613323565b1315610832576001915050610838565b60009150505b9392505050565b60008161084d8460046132cf565b6108389190613310565b61085f612a06565b6108696000612a60565b565b60008160000361087d57506001919050565b8160010361088d57506000919050565b8160020361089d57506003919050565b816003036108ad57506002919050565b60405162461bcd60e51b815260206004820152600d60248201526c2130b2103234b932b1ba34b7b760991b60448201526064015b60405180910390fd5b60408051808201909152600080825260208201528260000361093c57604051806040016040528060018460000151610922919061334a565b60ff168152602001836020015160ff168152509050610563565b82600103610960576040518060400160405280836000015160016109229190613363565b8260020361099d576040518060400160405280836000015160ff168152602001836020015160016109919190613363565b60ff1690529050610563565b826003036109ce576040518060400160405280836000015160ff16815260200160018460200151610991919061334a565b60006109d984612ab0565b6040516020016109e991906133a0565b60405160208183030381529060405290508060405162461bcd60e51b81526004016108e191906133db565b600080826001610a258660026134f2565b610a2f919061328a565b901b8516831c9150509392505050565b6008546040516310f67fb360e01b8152600481018890526000916001600160a01b0316906310f67fb390602401600060405180830381865afa158015610a89573d6000803e3d6000fd5b505050506040513d6000823e601f3d908101601f19168201604052610ab191908101906136a8565b600554604051630dfd338360e31b8152600481018b90529192506000916001600160a01b0390911690636fe99c1890602401600060405180830381865afa158015610b00573d6000803e3d6000fd5b505050506040513d6000823e601f3d908101601f19168201604052610b2891908101906139b6565b9050806101200151600014610b7f5760405162461bcd60e51b815260206004820152601860248201527f4d757374207265736f6c7665206576656e74206669727374000000000000000060448201526064016108e1565b602081015115610bc75760405162461bcd60e51b81526020600482015260136024820152722334b734b9b4103232b734bd32b7103a3ab93760691b60448201526064016108e1565b8051610c075760405162461bcd60e51b815260206004820152600f60248201526e47616d65206e6f742061637469766560881b60448201526064016108e1565b81516001600160a01b03163314610c605760405162461bcd60e51b815260206004820152601760248201527f53656e646572206e6f7420706c61796572206f776e657200000000000000000060448201526064016108e1565b600382610100015160ff1610610caa5760405162461bcd60e51b815260206004820152600f60248201526e139bc81858dd1a5bdb9cc81b19599d608a1b60448201526064016108e1565b8060400151816060015181518110610cc457610cc4613ba7565b60200260200101518814610d0a5760405162461bcd60e51b815260206004820152600d60248201526c2737ba103cb7bab9103a3ab93760991b60448201526064016108e1565b6000600388600c811115610d2057610d20613bbd565b03610d5d5782606001516020015160000b83610160015160000b1315610d585760405162461bcd60e51b81526004016108e190613bd3565b612671565b600288600c811115610d7157610d71613bbd565b036113205782606001516020015160000b83610160015160000b1315610da95760405162461bcd60e51b81526004016108e190613bd3565b6004805460e084015160808601518051602090910151604051630dd43b9b60e31b81529485019290925260ff9081166024850152166044830152606482018890526000916001600160a01b0390911690636ea1dcd890608401606060405180830381865afa158015610e1f573d6000803e3d6000fd5b505050506040513d601f19601f82011682018060405250810190610e439190613c1b565b9050600281604001516004811115610e5d57610e5d613bbd565b1480610e7e5750600381604001516004811115610e7c57610e7c613bbd565b145b80610e8e5750602081015160ff16155b610ee65760405162461bcd60e51b815260206004820152602360248201527f31737420446f6f72206e6f74206f70656e2f62726561636865642f756e6c6f636044820152621ad95960ea1b60648201526084016108e1565b600181604001516004811115610efe57610efe613bbd565b03610f80576004805460e085015160808701518051602090910151604051635921522360e01b81526001600160a01b0390941694635921522394610f4d949392918e9160029160009101613c8c565b600060405180830381600087803b158015610f6757600080fd5b505af1158015610f7b573d6000803e3d6000fd5b505050505b6000610f908886608001516108ea565b90506001896001811115610fa657610fa6613bbd565b036112a2576000610fb788836108ea565b6004805460e088015185516020870151604051630dd43b9b60e31b81529485019290925260ff9081166024850152166044830152606482018b90529192506000916001600160a01b031690636ea1dcd890608401606060405180830381865afa158015611028573d6000803e3d6000fd5b505050506040513d601f19601f8201168201806040525081019061104c9190613c1b565b905060028160400151600481111561106657611066613bbd565b1480611087575060038160400151600481111561108557611085613bbd565b145b806110975750602081015160ff16155b6110ef5760405162461bcd60e51b815260206004820152602360248201527f326e6420446f6f72206e6f74206f70656e2f62726561636865642f756e6c6f636044820152621ad95960ea1b60648201526084016108e1565b6004805460e0880151604051630f78220b60e11b8152928301526000916001600160a01b0390911690631ef0441690602401600060405180830381865afa15801561113e573d6000803e3d6000fd5b505050506040513d6000823e601f3d908101601f191682016040526111669190810190613dc2565b9050600281856000015160ff168151811061118357611183613ba7565b6020026020010151856020015160ff16815181106111a3576111a3613ba7565b60200260200101516000015160ff16116111f35760405162461bcd60e51b8152602060048201526011602482015270149bdbdb481b9bdd08195e1c1b1bdc9959607a1b60448201526064016108e1565b60018260400151600481111561120b5761120b613bbd565b0361129c57600460009054906101000a90046001600160a01b03166001600160a01b031663592152238860e00151866000015187602001518e600260006040518763ffffffff1660e01b815260040161126996959493929190613c8c565b600060405180830381600087803b15801561128357600080fd5b505af1158015611297573d6000803e3d6000fd5b505050505b50909150505b600560009054906101000a90046001600160a01b03166001600160a01b031663175142258d838e6040518463ffffffff1660e01b81526004016112e79392919061329d565b600060405180830381600087803b15801561130157600080fd5b505af1158015611315573d6000803e3d6000fd5b505050505050612671565b600088600c81111561133457611334613bbd565b0361159c5782606001516020015160000b83610160015160000b131561136c5760405162461bcd60e51b81526004016108e190613bd3565b6004805460e084015160808601518051602090910151604051630dd43b9b60e31b81529485019290925260ff9081166024850152166044830152606482018890526000916001600160a01b0390911690636ea1dcd890608401606060405180830381865afa1580156113e2573d6000803e3d6000fd5b505050506040513d601f19601f820116820180604052508101906114069190613c1b565b905060018160400151600481111561142057611420613bbd565b1461145f5760405162461bcd60e51b815260206004820152600f60248201526e111bdbdc881b9bdd0818db1bdcd959608a1b60448201526064016108e1565b61147c8b85606001516060015160ff16836020015160ff166107a2565b15611596576004805460e085015160808701518051602090910151604051635921522360e01b81526001600160a01b03909416946359215223946114cb949392918e9160029160009101613c8c565b600060405180830381600087803b1580156114e557600080fd5b505af11580156114f9573d6000803e3d6000fd5b5060019250611506915050565b88600181111561151857611518613bbd565b036115965760055460808501516001600160a01b03909116906317514225908d90611544908b906108ea565b8d6040518463ffffffff1660e01b81526004016115639392919061329d565b600060405180830381600087803b15801561157d57600080fd5b505af1158015611591573d6000803e3d6000fd5b505050505b50612671565b600188600c8111156115b0576115b0613bbd565b036117475782606001516020015160000b83610160015160000b13156115e85760405162461bcd60e51b81526004016108e190613bd3565b6004805460e084015160808601518051602090910151604051630dd43b9b60e31b81529485019290925260ff9081166024850152166044830152606482018890526000916001600160a01b0390911690636ea1dcd890608401606060405180830381865afa15801561165e573d6000803e3d6000fd5b505050506040513d601f19601f820116820180604052508101906116829190613c1b565b905060018160400151600481111561169c5761169c613bbd565b146116db5760405162461bcd60e51b815260206004820152600f60248201526e111bdbdc881b9bdd0818db1bdcd959608a1b60448201526064016108e1565b6116f88b85606001516080015160ff16836000015160ff166107a2565b15611596576004805460e085015160808701518051602090910151604051635921522360e01b81526001600160a01b03909416946359215223946114cb949392918e9160039160009101613c8c565b600488600c81111561175b5761175b613bbd565b03611c0057506004805460e08301516080850151805160209091015160405163f9dfbfcb60e01b81529485019290925260ff90811660248501521660448301526001916000916001600160a01b03169063f9dfbfcb9060640161014060405180830381865afa1580156117d2573d6000803e3d6000fd5b505050506040513d601f19601f820116820180604052508101906117f69190613ed1565b6080810151909150156118415760405162461bcd60e51b8152602060048201526013602482015272149bdbdb48185b1c9958591e481b1bdbdd1959606a1b60448201526064016108e1565b6004805460e08501516080870151805160209091015160405162a1871b60e21b81529485019290925260ff90811660248501521660448301526000916001600160a01b03909116906302861c6c9060640160a060405180830381865afa1580156118af573d6000803e3d6000fd5b505050506040513d601f19601f820116820180604052508101906118d39190613eee565b90506000816060015160ff1611806118f257506000816040015160ff16115b6119365760405162461bcd60e51b815260206004820152601560248201527443616e2774206c6f6f7420656d70747920726f6f6d60581b60448201526064016108e1565b64174876e800816040015160ff1661194e91906132cf565b341461199c5760405162461bcd60e51b815260206004820152601860248201527f57726f6e67207061796d656e7420696e20616374696f6e73000000000000000060448201526064016108e1565b6004805460e08601516080880151805160209091015160405163086e529d60e41b81529485019290925260ff90811660248501521660448301526001600160a01b0316906386e529d090606401600060405180830381600087803b158015611a0357600080fd5b505af1158015611a17573d6000803e3d6000fd5b50506008546060840151604051632da41c6560e21b81526001600160a01b03909216935063b69071949250611a5d918f919060040191825260ff16602082015260400190565b600060405180830381600087803b158015611a7757600080fd5b505af1158015611a8b573d6000803e3d6000fd5b5050505060005b816040015160ff16811015611b5457600660009054906101000a90046001600160a01b03166001600160a01b0316630cc0db5364174876e8008e89600001518a6101a001516040518563ffffffff1660e01b8152600401611b0f939291909283526001600160a01b03919091166020830152604082015260600190565b6000604051808303818588803b158015611b2857600080fd5b505af1158015611b3c573d6000803e3d6000fd5b50505050508080611b4c90613271565b915050611a92565b50600854604082810151905163fe23e2df60e01b8152600481018e905260ff90911660248201526001600160a01b039091169063fe23e2df90604401600060405180830381600087803b158015611baa57600080fd5b505af1158015611bbe573d6000803e3d6000fd5b50506008546020880151604051630f96f55d60e41b81526001600160a01b03909216935063f96f55d092506112e7918f90600401918252602082015260400190565b600588600c811115611c1457611c14613bbd565b03611e415782606001516020015160000b83610160015160000b1315611c4c5760405162461bcd60e51b81526004016108e190613bd3565b6004805460e08401516080860151805160209091015160405162a1871b60e21b81529485019290925260ff90811660248501521660448301526000916001600160a01b03909116906302861c6c9060640160a060405180830381865afa158015611cba573d6000803e3d6000fd5b505050506040513d601f19601f82011682018060405250810190611cde9190613eee565b600754602082015160405163c82c37b960e01b81529293506000926001600160a01b039092169163c82c37b991611d1b9160040190815260200190565b600060405180830381865afa158015611d38573d6000803e3d6000fd5b505050506040513d6000823e601f3d908101601f19168201604052611d609190810190614005565b9050806020015115156001151514611db05760405162461bcd60e51b8152602060048201526013602482015272115d995b9d081b9bdd081c195c9b585b995b9d606a1b60448201526064016108e1565b600860009054906101000a90046001600160a01b03166001600160a01b031663ed8619618c8e8760e001518960800151876020015160006040518763ffffffff1660e01b81526004016112e7969594939291909586526020808701959095526040860193909352815160ff9081166060870152919093015116608084015260a083019190915260c082015260e00190565b600688600c811115611e5557611e55613bbd565b03611e8d5782606001516020015160000b83610160015160000b1315610d585760405162461bcd60e51b81526004016108e190613bd3565b600788600c811115611ea157611ea1613bbd565b0361206757506001611eb3848a612bb8565b611eff5760405162461bcd60e51b815260206004820152601c60248201527f547279696e6720746f2064726f70206974656d206e6f742068656c640000000060448201526064016108e1565b600854845160405163351dacdf60e01b8152600481018c905260248101919091526001600160a01b039091169063351dacdf90604401600060405180830381600087803b158015611f4f57600080fd5b505af1158015611f63573d6000803e3d6000fd5b50505050600660009054906101000a90046001600160a01b03166001600160a01b03166311ff70478b868660800151600001518760800151602001518e6040518663ffffffff1660e01b8152600401611fc09594939291906140f6565b600060405180830381600087803b158015611fda57600080fd5b505af1158015611fee573d6000803e3d6000fd5b50506008546020860151604051630f96f55d60e41b81526001600160a01b03909216935063f96f55d09250612030918d90600401918252602082015260400190565b600060405180830381600087803b15801561204a57600080fd5b505af115801561205e573d6000803e3d6000fd5b50505050612671565b600888600c81111561207b5761207b613bbd565b036123ee576006546040516264b0e560e81b8152600481018c90526000916001600160a01b0316906364b0e50090602401600060405180830381865afa1580156120c9573d6000803e3d6000fd5b505050506040513d6000823e601f3d908101601f191682016040526120f1919081019061414b565b905060005b81518110156122dd5781818151811061211157612111613ba7565b60200260200101516101a001516000015160ff1685608001516000015160ff16146121735760405162461bcd60e51b8152602060048201526012602482015271506c61796572206e6f74206174206974656d60701b60448201526064016108e1565b81818151811061218557612185613ba7565b60200260200101516101a001516020015160ff1685608001516020015160ff16146121e75760405162461bcd60e51b8152602060048201526012602482015271506c61796572206e6f74206174206974656d60701b60448201526064016108e1565b60028282815181106121fb576121fb613ba7565b60200260200101516101800151600481111561221957612219613bbd565b146122665760405162461bcd60e51b815260206004820152601e60248201527f4974656d20697320646973636172646564206f722064657374726f796564000060448201526064016108e1565b8b82828151811061227957612279613ba7565b60200260200101516101600151146122cb5760405162461bcd60e51b81526020600482015260156024820152744974656d206e6f7420696e20746869732067616d6560581b60448201526064016108e1565b806122d581613271565b9150506120f6565b50600854855160405163fe23e2df60e01b8152600481018d90526024810191909152600193506001600160a01b039091169063fe23e2df90604401600060405180830381600087803b15801561233257600080fd5b505af1158015612346573d6000803e3d6000fd5b505060065486516040516307bc9a2360e21b81526001600160a01b039092169350631ef2688c925061237e918e918a916004016142b6565b600060405180830381600087803b15801561239857600080fd5b505af11580156123ac573d6000803e3d6000fd5b50506008546020870151604051630f96f55d60e41b81526001600160a01b03909216935063f96f55d09250611563918e90600401918252602082015260400190565b600988600c81111561240257612402613bbd565b0361252f576004805460e084015160808601518051602090910151604051636474d64b60e11b81529485019290925260ff90811660248501521660448301526000916001600160a01b039091169063c8e9ac9690606401602060405180830381865afa158015612476573d6000803e3d6000fd5b505050506040513d601f19601f8201168201806040525081019061249a91906142e7565b9050600281146124e05760405162461bcd60e51b81526020600482015260116024820152704e6f7420696e20446f6e676861696a697560781b60448201526064016108e1565b60055460208501516060850151604051633f090e3d60e01b8152600481018f9052602481018e9052604481019290925260648201526001600160a01b0390911690633f090e3d90608401611563565b600a88600c81111561254357612543613bbd565b036125ac5760055484516001600160a01b0390911690633aa07d64908c90879060009061257257612572613ba7565b60200260200101518c876060015160c0015160ff1688608001516040518663ffffffff1660e01b8152600401612030959493929190614300565b600b88600c8111156125c0576125c0613bbd565b036126295760055484516001600160a01b0390911690633aa07d64908c9087906000906125ef576125ef613ba7565b60200260200101518c876060015160a0015160ff1688608001516040518663ffffffff1660e01b8152600401612030959493929190614300565b60405162461bcd60e51b815260206004820152601860248201527f4552524f523a2042616420616374696f6e20636f6e666967000000000000000060448201526064016108e1565b600554604051630aa6e80360e41b8152600481018c9052602481018b905282151560448201526001600160a01b039091169063aa6e803090606401600060405180830381600087803b1580156126c657600080fd5b505af11580156126da573d6000803e3d6000fd5b505050507f5eda271f594b7936075f4d4150b674e0efda1feffb7262e464ace8508ebce8a18a838b868c60405161271595949392919061459a565b60405180910390a160008a81526002602052604090206127359043612cd2565b5050505050505050505050565b600180546000918261275383613271565b919050555060003360015460014361276b919061328a565b60405160609390931b6bffffffffffffffffffffffff19166020840152603483019190915240605482015260740160408051601f198184030181529190528051602090910120905060006127bf858561334a565b6127ca906001613363565b90508460ff168160ff16836127df91906147a3565b6127e99190613310565b95945050505050565b6127fa612a06565b600380546001600160a01b03199081166001600160a01b03998a16179091556004805482169689169690961790955560058054861694881694909417909355600680548516928716929092179091556007805484169186169190911790556008805490921693169290921790915550565b60008061288b836000015160000b856000015160000b61022a9190613323565b905060006128ac846020015160000b866020015160000b61022a9190613323565b90506127e98183613310565b6128c0612a06565b6001600160a01b0381166129255760405162461bcd60e51b815260206004820152602660248201527f4f776e61626c653a206e6577206f776e657220697320746865207a65726f206160448201526564647265737360d01b60648201526084016108e1565b61292e81612a60565b50565b80518251600091612941916147b7565b60000b60010361295357506000610563565b8151835161296191906147b7565b60000b1961297157506001610563565b8160200151836020015161298591906147b7565b60000b1961299557506002610563565b816020015183602001516129a991906147b7565b60000b6001036129bb57506003610563565b60405162461bcd60e51b8152602060048201526013602482015272115c9c9bdc8e88139bdd0818591a9858d95b9d606a1b60448201526064016108e1565b6060600061083883612cde565b6000546001600160a01b031633146108695760405162461bcd60e51b815260206004820181905260248201527f4f776e61626c653a2063616c6c6572206973206e6f7420746865206f776e657260448201526064016108e1565b600080546001600160a01b038381166001600160a01b0319831681178455604051919092169283917f8be0079c531659141344cd1fd0a4f28419497f9722a3daafe3b4186f6b6457e09190a35050565b606081600003612ad75750506040805180820190915260018152600360fc1b602082015290565b8160005b8115612b015780612aeb81613271565b9150612afa9050600a836132fc565b9150612adb565b6000816001600160401b03811115612b1b57612b1b612e70565b6040519080825280601f01601f191660200182016040528015612b45576020820181803683370190505b5090505b8415612bb057612b5a60018361328a565b9150612b67600a866147a3565b612b72906030613310565b60f81b818381518110612b8757612b87613ba7565b60200101906001600160f81b031916908160001a905350612ba9600a866132fc565b9450612b49565b949350505050565b600654604051633841fae160e01b81526004810183905260009182916001600160a01b0390911690633841fae190602401600060405180830381865afa158015612c06573d6000803e3d6000fd5b505050506040513d6000823e601f3d908101601f19168201604052612c2e91908101906147d8565b905060005b8451811015612cc7576000805b8351811015612c9d57838181518110612c5b57612c5b613ba7565b6020026020010151878481518110612c7557612c75613ba7565b602002602001015103612c8b5760019150612c9d565b80612c9581613271565b915050612c40565b50801515600003612cb45760009350505050610563565b5080612cbf81613271565b915050612c33565b506001949350505050565b60006108388383612d3a565b606081600001805480602002602001604051908101604052809291908181526020018280548015612d2e57602002820191906000526020600020905b815481526020019060010190808311612d1a575b50505050509050919050565b6000818152600183016020526040812054612d8157508154600181810184556000848152602080822090930184905584548482528286019093526040902091909155610563565b506000610563565b600060208284031215612d9b57600080fd5b5035919050565b600081518084526020808501945080840160005b83811015612dd257815187529582019590820190600101612db6565b509495945050505050565b6020815260006108386020830184612da2565b60008060408385031215612e0357600080fd5b50508035926020909101359150565b60008060008060808587031215612e2857600080fd5b5050823594602084013594506040840135936060013592509050565b600080600060608486031215612e5957600080fd5b505081359360208301359350604090920135919050565b634e487b7160e01b600052604160045260246000fd5b604080519081016001600160401b0381118282101715612ea857612ea8612e70565b60405290565b6040516101c081016001600160401b0381118282101715612ea857612ea8612e70565b60405160c081016001600160401b0381118282101715612ea857612ea8612e70565b60405161028081016001600160401b0381118282101715612ea857612ea8612e70565b60405160e081016001600160401b0381118282101715612ea857612ea8612e70565b604051601f8201601f191681016001600160401b0381118282101715612f6057612f60612e70565b604052919050565b60ff8116811461292e57600080fd5b600060408284031215612f8957600080fd5b612f91612e86565b90508135612f9e81612f68565b81526020820135612fae81612f68565b602082015292915050565b60008060608385031215612fcc57600080fd5b82359150612fdd8460208501612f77565b90509250929050565b604081016105638284805160ff908116835260209182015116910152565b60006001600160401b0382111561301d5761301d612e70565b5060051b60200190565b600080600080600080600060e0888a03121561304257600080fd5b8735965060208089013596506040890135600d811061306057600080fd5b955060608901356002811061307457600080fd5b94506080890135935060a0890135925060c08901356001600160401b0381111561309d57600080fd5b8901601f81018b136130ae57600080fd5b80356130c16130bc82613004565b612f38565b81815260059190911b8201830190838101908d8311156130e057600080fd5b928401925b828410156130fe578335825292840192908401906130e5565b809550505050505092959891949750929550565b6000806040838503121561312557600080fd5b823561313081612f68565b9150602083013561314081612f68565b809150509250929050565b6001600160a01b038116811461292e57600080fd5b600080600080600080600060e0888a03121561317b57600080fd5b87356131868161314b565b965060208801356131968161314b565b955060408801356131a68161314b565b945060608801356131b68161314b565b935060808801356131c68161314b565b925060a08801356131d68161314b565b915060c08801356131e68161314b565b8091505092959891949750929550565b6000806080838503121561320957600080fd5b6132138484612f77565b9150612fdd8460408501612f77565b60006020828403121561323457600080fd5b81356108388161314b565b634e487b7160e01b600052601160045260246000fd5b6000600160ff1b820161326a5761326a61323f565b5060000390565b6000600182016132835761328361323f565b5060010190565b818103818111156105635761056361323f565b838152608081016132c16020830185805160ff908116835260209182015116910152565b826060830152949350505050565b80820281158282048414176105635761056361323f565b634e487b7160e01b600052601260045260246000fd5b60008261330b5761330b6132e6565b500490565b808201808211156105635761056361323f565b81810360008312801583831316838312821617156133435761334361323f565b5092915050565b60ff82811682821603908111156105635761056361323f565b60ff81811683821601908111156105635761056361323f565b60005b8381101561339757818101518382015260200161337f565b50506000910152565b72024b73b30b634b2103234b932b1ba34b7b71d1606d1b8152600082516133ce81601385016020870161337c565b9190910160130192915050565b60208152600082518060208401526133fa81604085016020870161337c565b601f01601f19169190910160400192915050565b600181815b8085111561344957816000190482111561342f5761342f61323f565b8085161561343c57918102915b93841c9390800290613413565b509250929050565b60008261346057506001610563565b8161346d57506000610563565b8160018114613483576002811461348d576134a9565b6001915050610563565b60ff84111561349e5761349e61323f565b50506001821b610563565b5060208310610133831016604e8410600b84101617156134cc575081810a610563565b6134d6838361340e565b80600019048211156134ea576134ea61323f565b029392505050565b60006108388383613451565b80516135098161314b565b919050565b8051600081900b811461350957600080fd5b8051801515811461350957600080fd5b600061010080838503121561354457600080fd5b604051908101906001600160401b038211818310171561356657613566612e70565b816040528092506135768461350e565b81526135846020850161350e565b60208201526135956040850161350e565b60408201526135a66060850161350e565b60608201526135b76080850161350e565b60808201526135c860a0850161350e565b60a08201526135d960c0850161350e565b60c08201526135ea60e08501613520565b60e0820152505092915050565b805161350981612f68565b60006040828403121561361457600080fd5b61361c612e86565b9050815161362981612f68565b81526020820151612fae81612f68565b600082601f83011261364a57600080fd5b8151602061365a6130bc83613004565b82815260059290921b8401810191818101908684111561367957600080fd5b8286015b8481101561369d57805161369081612f68565b835291830191830161367d565b509695505050505050565b6000602082840312156136ba57600080fd5b81516001600160401b03808211156136d157600080fd5b908301906102e082860312156136e657600080fd5b6136ee612eae565b6136f7836134fe565b8152602083015160208201526040830151604082015261371a8660608501613530565b606082015261016061372e87828601613602565b60808301526101a061374288828701613602565b60a08401526137546101e0860161350e565b60c084015261376661020086016135f7565b60e084015261377861022086016135f7565b61010084015261378b61024086016135f7565b610120840152610260850151848111156137a457600080fd5b6137b089828801613639565b610140850152506137c461028086016135f7565b828401526137d56102a08601613520565b6101808401526102c085015181840152505080935050505092915050565b600082601f83011261380457600080fd5b815160206138146130bc83613004565b82815260059290921b8401810191818101908684111561383357600080fd5b8286015b8481101561369d5780518352918301918301613837565b60006080828403121561386057600080fd5b604051608081018181106001600160401b038211171561388257613882612e70565b8060405250809150825161389581612f68565b815260208301516138a581612f68565b602082015260408301516138b881612f68565b604082015260608301516138cb81612f68565b6060919091015292915050565b80516006811061350957600080fd5b600082601f8301126138f857600080fd5b815160206139086130bc83613004565b82815260e0928302850182019282820191908785111561392757600080fd5b8387015b858110156139a95781818a0312156139435760008081fd5b61394b612ed1565b8151815285820151868201526040808301516009811061396b5760008081fd5b90820152606061397d8b848301613602565b9082015260a082810151608083015261399860c08401613520565b90820152845292840192810161392b565b5090979650505050505050565b6000602082840312156139c857600080fd5b81516001600160401b03808211156139df57600080fd5b9083019061030082860312156139f457600080fd5b6139fc612ef3565b613a0583613520565b8152613a1360208401613520565b6020820152604083015182811115613a2a57600080fd5b613a36878286016137f3565b604083015250606083015160608201526080830151608082015260a083015160a0820152613a678660c0850161384e565b60c08201526101408084015160e083015261016080850151610100840152610180808601516101208501526101a0613aa08188016138d8565b848601526101c09350613ab58a858901613602565b8386015261020092508287015186811115613acf57600080fd5b613adb8b828a016137f3565b838701525061022091508187015186811115613af657600080fd5b613b028b828a016137f3565b8287015250506102408087015186811115613b1c57600080fd5b613b288b828a016137f3565b858701525061026093508387015186811115613b4357600080fd5b613b4f8b828a016137f3565b6101e087015250610280870151838601526102a0870151828601526102c0870151818601525050506102e084015183811115613b8a57600080fd5b613b96888287016138e7565b918301919091525095945050505050565b634e487b7160e01b600052603260045260246000fd5b634e487b7160e01b600052602160045260246000fd5b602080825260169082015275486f6c64696e6720746f6f206d616e79206974656d7360501b604082015260600190565b6005811061292e57600080fd5b805161350981613c03565b600060608284031215613c2d57600080fd5b604051606081018181106001600160401b0382111715613c4f57613c4f612e70565b6040528251613c5d81612f68565b81526020830151613c6d81612f68565b60208201526040830151613c8081613c03565b60408201529392505050565b86815260ff8681166020830152851660408201526060810184905260c0810160058410613cbb57613cbb613bbd565b608082019390935260a00152949350505050565b60006101408284031215613ce257600080fd5b613cea612f16565b90508151613cf781612f68565b8152602082810151613d0881612f68565b82820152605f83018413613d1b57600080fd5b604051608081018181106001600160401b0382111715613d3d57613d3d612e70565b6040528060c0850186811115613d5257600080fd5b604086015b81811015613d6e5780518352918401918401613d57565b50826040860152613d7e81613520565b606086015250505050613d9360e08301613520565b6080820152613da56101008301613520565b60a0820152613db76101208301613520565b60c082015292915050565b60006020808385031215613dd557600080fd5b82516001600160401b0380821115613dec57600080fd5b818501915085601f830112613e0057600080fd5b8151613e0e6130bc82613004565b81815260059190911b83018401908481019088831115613e2d57600080fd5b8585015b83811015613ec457805185811115613e4857600080fd5b8601603f81018b13613e5957600080fd5b87810151613e696130bc82613004565b8181526101409182028301604001918a820191908e841115613e8b5760008081fd5b6040850194505b83851015613eb357613ea48f86613ccf565b835293840193918b0191613e92565b508652505050918601918601613e31565b5098975050505050505050565b60006101408284031215613ee457600080fd5b6108388383613ccf565b600060a08284031215613f0057600080fd5b60405160a081018181106001600160401b0382111715613f2257613f22612e70565b604052613f2e836138d8565b8152602083015160208201526040830151613f4881612f68565b60408201526060830151613f5b81612f68565b6060820152613f6c60808401613520565b60808201529392505050565b600082601f830112613f8957600080fd5b81516020613f996130bc83613004565b82815260069290921b84018101918181019086841115613fb857600080fd5b8286015b8481101561369d5760408189031215613fd55760008081fd5b613fdd612e86565b815160178110613fed5760008081fd5b81528185015185820152835291830191604001613fbc565b60006020828403121561401757600080fd5b81516001600160401b038082111561402e57600080fd5b9083019060e0828603121561404257600080fd5b61404a612f16565b8251815261405a60208401613520565b602082015261406b604084016135f7565b604082015261407c606084016135f7565b606082015260808301518281111561409357600080fd5b61409f87828601613f78565b60808301525060a0830151828111156140b757600080fd5b6140c387828601613f78565b60a08301525060c0830151828111156140db57600080fd5b6140e787828601613f78565b60c08301525095945050505050565b85815260a06020820152600061410f60a0830187612da2565b60ff9586166040840152939094166060820152608001529392505050565b80516003811061350957600080fd5b8051600b811061350957600080fd5b6000602080838503121561415e57600080fd5b82516001600160401b0381111561417457600080fd5b8301601f8101851361418557600080fd5b80516141936130bc82613004565b8181526101e091820283018401918482019190888411156141b357600080fd5b938501935b838510156142aa5780858a0312156141d05760008081fd5b6141d8612eae565b855181528686015187820152604080870151908201526060808701519082015260806142058188016134fe565b9082015260a0868101519082015260c061422081880161412d565b9082015260e06142318782016135f7565b908201526101006142438782016135f7565b9082015261012061425587820161413c565b908201526101406142678782016135f7565b908201526101608681015190820152610180614284818801613c10565b908201526101a06142978b888301613602565b90820152835293840193918501916141b8565b50979650505050505050565b8381526060602082015260006142cf6060830185612da2565b905060018060a01b0383166040830152949350505050565b6000602082840312156142f957600080fd5b5051919050565b85815260208082018690526040820185905260608201849052825160ff9081166080840152908301511660a082015260c081015b9695505050505050565b6006811061434e5761434e613bbd565b9052565b600081518084526020808501945080840160005b83811015612dd25781518051885283810151848901526040808201516009811061439257614392613bbd565b90890152606081810151805160ff908116838c015260208201511660808b01525050608081015160a0898101919091520151151560c088015260e09096019590820190600101614366565b600081518084526020808501945080840160005b83811015612dd257815160ff16875295820195908201906001016143f1565b80516001600160a01b0316825260006102e0602083015160208501526040830151604085015260608301516144a660608601828051600081810b84526020830151810b60208501526040830151810b60408501526060830151810b60608501526080830151810b608085015260a0830151810b60a085015260c0830151810b60c0850152505060e0810151151560e08301525050565b5060808301516101606144cb81870183805160ff908116835260209182015116910152565b60a085015191506101a06144f181880184805160ff908116835260209182015116910152565b60c086015192506145086101e088018460000b9052565b60e086015160ff9081166102008901526101008701518116610220890152610120870151166102408801526101408601516102608801859052925061454f848801846143dd565b935081860151925061456761028088018460ff169052565b61018086015115156102a0880152909401516102c0909501949094529392505050565b600d811061434e5761434e613bbd565b85815260a060208201526145b360a08201865115159052565b600060208601516145c860c084018215159052565b5060408601516103008060e08501526145e56103a0850183612da2565b91506060880151610100818187015260808a01519150610120828188015260a08b01519250610140838189015260c08c01519350610160614655818a018660ff815116825260ff602082015116602083015260ff604082015116604083015260ff60608201511660608301525050565b60e08d01516101e08a810191909152938d0151610200808b0191909152928d0151610220808b0191909152918d01519450919290916102409161469a838b018761433e565b908d01519450610260906146c08a830187805160ff908116835260209182015116910152565b6101808e01519550609f19808b8a03016102a08c01526146e08988612da2565b98506101a08f01519650808b8a03016102c08c01526146ff8988612da2565b98506101c08f01519650808b8a03016102e08c015261471e8988612da2565b9850818f01519650808b8a0301888c01526147398988612da2565b958f01516103208c0152938e01516103408b015250908c01516103608901528b0151878303909101610380880152909350915061477890508282614352565b91505085604084015282810360608401526147938186614410565b915050614334608083018461458a565b6000826147b2576147b26132e6565b500690565b600082810b9082900b03607f198112607f821317156105635761056361323f565b6000602082840312156147ea57600080fd5b81516001600160401b0381111561480057600080fd5b612bb0848285016137f356fea2646970667358221220c479ebc52c1d0c48a5ab328505a5f4148ea2ece5b0457f5b943a3bf06a2c199264736f6c63430008110033",
  "devdoc": {
    "kind": "dev",
    "methods": {
      "owner()": {
        "details": "Returns the address of the current owner."
      },
      "renounceOwnership()": {
        "details": "Leaves the contract without owner. It will not be possible to call `onlyOwner` functions anymore. Can only be called by the current owner. NOTE: Renouncing ownership will leave the contract without an owner, thereby removing any functionality that is only available to the owner."
      },
      "transferOwnership(address)": {
        "details": "Transfers ownership of the contract to a new account (`newOwner`). Can only be called by the current owner."
      }
    },
    "version": 1
  },
  "userdoc": {
    "kind": "user",
    "methods": {},
    "version": 1
  },
  "storageLayout": {
    "storage": [
      {
        "astId": 7,
        "contract": "contracts/Actions.sol:Actions",
        "label": "_owner",
        "offset": 0,
        "slot": "0",
        "type": "t_address"
      },
      {
        "astId": 19710,
        "contract": "contracts/Actions.sol:Actions",
        "label": "TODO_randomSeed",
        "offset": 0,
        "slot": "1",
        "type": "t_uint256"
      },
      {
        "astId": 19715,
        "contract": "contracts/Actions.sol:Actions",
        "label": "gameToEventBlocks",
        "offset": 0,
        "slot": "2",
        "type": "t_mapping(t_uint256,t_struct(UintSet)2292_storage)"
      },
      {
        "astId": 2750,
        "contract": "contracts/Actions.sol:Actions",
        "label": "chars",
        "offset": 0,
        "slot": "3",
        "type": "t_contract(CharInterface)2446"
      },
      {
        "astId": 2753,
        "contract": "contracts/Actions.sol:Actions",
        "label": "maps",
        "offset": 0,
        "slot": "4",
        "type": "t_contract(MapInterface)2541"
      },
      {
        "astId": 2756,
        "contract": "contracts/Actions.sol:Actions",
        "label": "games",
        "offset": 0,
        "slot": "5",
        "type": "t_contract(GamesInterface)2594"
      },
      {
        "astId": 2759,
        "contract": "contracts/Actions.sol:Actions",
        "label": "items",
        "offset": 0,
        "slot": "6",
        "type": "t_contract(ItemsInterface)2645"
      },
      {
        "astId": 2762,
        "contract": "contracts/Actions.sol:Actions",
        "label": "bcEvents",
        "offset": 0,
        "slot": "7",
        "type": "t_contract(EventsInterface)2686"
      },
      {
        "astId": 2765,
        "contract": "contracts/Actions.sol:Actions",
        "label": "players",
        "offset": 0,
        "slot": "8",
        "type": "t_contract(PlayersInterface)2739"
      },
      {
        "astId": 2767,
        "contract": "contracts/Actions.sol:Actions",
        "label": "charsAddress",
        "offset": 0,
        "slot": "9",
        "type": "t_address"
      }
    ],
    "types": {
      "t_address": {
        "encoding": "inplace",
        "label": "address",
        "numberOfBytes": "20"
      },
      "t_array(t_bytes32)dyn_storage": {
        "base": "t_bytes32",
        "encoding": "dynamic_array",
        "label": "bytes32[]",
        "numberOfBytes": "32"
      },
      "t_bytes32": {
        "encoding": "inplace",
        "label": "bytes32",
        "numberOfBytes": "32"
      },
      "t_contract(CharInterface)2446": {
        "encoding": "inplace",
        "label": "contract CharInterface",
        "numberOfBytes": "20"
      },
      "t_contract(EventsInterface)2686": {
        "encoding": "inplace",
        "label": "contract EventsInterface",
        "numberOfBytes": "20"
      },
      "t_contract(GamesInterface)2594": {
        "encoding": "inplace",
        "label": "contract GamesInterface",
        "numberOfBytes": "20"
      },
      "t_contract(ItemsInterface)2645": {
        "encoding": "inplace",
        "label": "contract ItemsInterface",
        "numberOfBytes": "20"
      },
      "t_contract(MapInterface)2541": {
        "encoding": "inplace",
        "label": "contract MapInterface",
        "numberOfBytes": "20"
      },
      "t_contract(PlayersInterface)2739": {
        "encoding": "inplace",
        "label": "contract PlayersInterface",
        "numberOfBytes": "20"
      },
      "t_mapping(t_bytes32,t_uint256)": {
        "encoding": "mapping",
        "key": "t_bytes32",
        "label": "mapping(bytes32 => uint256)",
        "numberOfBytes": "32",
        "value": "t_uint256"
      },
      "t_mapping(t_uint256,t_struct(UintSet)2292_storage)": {
        "encoding": "mapping",
        "key": "t_uint256",
        "label": "mapping(uint256 => struct EnumerableSet.UintSet)",
        "numberOfBytes": "32",
        "value": "t_struct(UintSet)2292_storage"
      },
      "t_struct(Set)1834_storage": {
        "encoding": "inplace",
        "label": "struct EnumerableSet.Set",
        "members": [
          {
            "astId": 1829,
            "contract": "contracts/Actions.sol:Actions",
            "label": "_values",
            "offset": 0,
            "slot": "0",
            "type": "t_array(t_bytes32)dyn_storage"
          },
          {
            "astId": 1833,
            "contract": "contracts/Actions.sol:Actions",
            "label": "_indexes",
            "offset": 0,
            "slot": "1",
            "type": "t_mapping(t_bytes32,t_uint256)"
          }
        ],
        "numberOfBytes": "64"
      },
      "t_struct(UintSet)2292_storage": {
        "encoding": "inplace",
        "label": "struct EnumerableSet.UintSet",
        "members": [
          {
            "astId": 2291,
            "contract": "contracts/Actions.sol:Actions",
            "label": "_inner",
            "offset": 0,
            "slot": "0",
            "type": "t_struct(Set)1834_storage"
          }
        ],
        "numberOfBytes": "64"
      },
      "t_uint256": {
        "encoding": "inplace",
        "label": "uint256",
        "numberOfBytes": "32"
      }
    }
  }
}