{
  "address": "0x7f134E628ab3bfcF3617462e34635dbfbdD4951E",
  "abi": [
    {
      "inputs": [],
      "stateMutability": "nonpayable",
      "type": "constructor"
    },
    {
      "anonymous": false,
      "inputs": [
        {
          "indexed": true,
          "internalType": "address",
          "name": "owner",
          "type": "address"
        },
        {
          "indexed": true,
          "internalType": "address",
          "name": "approved",
          "type": "address"
        },
        {
          "indexed": true,
          "internalType": "uint256",
          "name": "tokenId",
          "type": "uint256"
        }
      ],
      "name": "Approval",
      "type": "event"
    },
    {
      "anonymous": false,
      "inputs": [
        {
          "indexed": true,
          "internalType": "address",
          "name": "owner",
          "type": "address"
        },
        {
          "indexed": true,
          "internalType": "address",
          "name": "operator",
          "type": "address"
        },
        {
          "indexed": false,
          "internalType": "bool",
          "name": "approved",
          "type": "bool"
        }
      ],
      "name": "ApprovalForAll",
      "type": "event"
    },
    {
      "anonymous": false,
      "inputs": [
        {
          "indexed": true,
          "internalType": "address",
          "name": "previousOwner",
          "type": "address"
        },
        {
          "indexed": true,
          "internalType": "address",
          "name": "newOwner",
          "type": "address"
        }
      ],
      "name": "OwnershipTransferred",
      "type": "event"
    },
    {
      "anonymous": false,
      "inputs": [
        {
          "indexed": true,
          "internalType": "address",
          "name": "from",
          "type": "address"
        },
        {
          "indexed": true,
          "internalType": "address",
          "name": "to",
          "type": "address"
        },
        {
          "indexed": true,
          "internalType": "uint256",
          "name": "tokenId",
          "type": "uint256"
        }
      ],
      "name": "Transfer",
      "type": "event"
    },
    {
      "inputs": [
        {
          "internalType": "uint256",
          "name": "_matic",
          "type": "uint256"
        }
      ],
      "name": "SetEnlistCostInMatic",
      "outputs": [],
      "stateMutability": "nonpayable",
      "type": "function"
    },
    {
      "inputs": [
        {
          "internalType": "uint256",
          "name": "_matic",
          "type": "uint256"
        }
      ],
      "name": "SetMintCostInMatic",
      "outputs": [],
      "stateMutability": "nonpayable",
      "type": "function"
    },
    {
      "inputs": [
        {
          "internalType": "int256",
          "name": "x",
          "type": "int256"
        }
      ],
      "name": "abs",
      "outputs": [
        {
          "internalType": "int256",
          "name": "",
          "type": "int256"
        }
      ],
      "stateMutability": "pure",
      "type": "function"
    },
    {
      "inputs": [
        {
          "internalType": "address",
          "name": "to",
          "type": "address"
        },
        {
          "internalType": "uint256",
          "name": "tokenId",
          "type": "uint256"
        }
      ],
      "name": "approve",
      "outputs": [],
      "stateMutability": "nonpayable",
      "type": "function"
    },
    {
      "inputs": [
        {
          "internalType": "address",
          "name": "owner",
          "type": "address"
        }
      ],
      "name": "balanceOf",
      "outputs": [
        {
          "internalType": "uint256",
          "name": "",
          "type": "uint256"
        }
      ],
      "stateMutability": "view",
      "type": "function"
    },
    {
      "inputs": [],
      "name": "breachCap",
      "outputs": [
        {
          "internalType": "uint8",
          "name": "",
          "type": "uint8"
        }
      ],
      "stateMutability": "view",
      "type": "function"
    },
    {
      "inputs": [],
      "name": "carryCap",
      "outputs": [
        {
          "internalType": "uint8",
          "name": "",
          "type": "uint8"
        }
      ],
      "stateMutability": "view",
      "type": "function"
    },
    {
      "inputs": [
        {
          "internalType": "uint256",
          "name": "",
          "type": "uint256"
        }
      ],
      "name": "characters",
      "outputs": [
        {
          "internalType": "bytes32",
          "name": "genHash",
          "type": "bytes32"
        },
        {
          "components": [
            {
              "internalType": "uint8",
              "name": "health",
              "type": "uint8"
            },
            {
              "internalType": "uint8",
              "name": "carry",
              "type": "uint8"
            },
            {
              "internalType": "uint8",
              "name": "defense",
              "type": "uint8"
            },
            {
              "internalType": "uint8",
              "name": "hack",
              "type": "uint8"
            },
            {
              "internalType": "uint8",
              "name": "breach",
              "type": "uint8"
            },
            {
              "internalType": "uint8",
              "name": "shoot",
              "type": "uint8"
            },
            {
              "internalType": "uint8",
              "name": "melee",
              "type": "uint8"
            }
          ],
          "internalType": "struct BCTypes.Traits",
          "name": "traits",
          "type": "tuple"
        },
        {
          "internalType": "uint8",
          "name": "cloneNumber",
          "type": "uint8"
        },
        {
          "internalType": "uint8",
          "name": "maxClones",
          "type": "uint8"
        },
        {
          "internalType": "uint8",
          "name": "ability",
          "type": "uint8"
        },
        {
          "internalType": "uint8",
          "name": "flaw",
          "type": "uint8"
        }
      ],
      "stateMutability": "view",
      "type": "function"
    },
    {
      "inputs": [],
      "name": "decantNewClone",
      "outputs": [],
      "stateMutability": "payable",
      "type": "function"
    },
    {
      "inputs": [],
      "name": "defenseCap",
      "outputs": [
        {
          "internalType": "uint8",
          "name": "",
          "type": "uint8"
        }
      ],
      "stateMutability": "view",
      "type": "function"
    },
    {
      "inputs": [
        {
          "internalType": "uint256",
          "name": "_charId",
          "type": "uint256"
        }
      ],
      "name": "enlistChar",
      "outputs": [],
      "stateMutability": "payable",
      "type": "function"
    },
    {
      "inputs": [],
      "name": "enlistCost",
      "outputs": [
        {
          "internalType": "uint256",
          "name": "",
          "type": "uint256"
        }
      ],
      "stateMutability": "view",
      "type": "function"
    },
    {
      "inputs": [],
      "name": "gamesContract",
      "outputs": [
        {
          "internalType": "address",
          "name": "",
          "type": "address"
        }
      ],
      "stateMutability": "view",
      "type": "function"
    },
    {
      "inputs": [
        {
          "internalType": "address",
          "name": "_address",
          "type": "address"
        }
      ],
      "name": "getAllCharsByOwner",
      "outputs": [
        {
          "components": [
            {
              "internalType": "bytes32",
              "name": "genHash",
              "type": "bytes32"
            },
            {
              "components": [
                {
                  "internalType": "uint8",
                  "name": "health",
                  "type": "uint8"
                },
                {
                  "internalType": "uint8",
                  "name": "carry",
                  "type": "uint8"
                },
                {
                  "internalType": "uint8",
                  "name": "defense",
                  "type": "uint8"
                },
                {
                  "internalType": "uint8",
                  "name": "hack",
                  "type": "uint8"
                },
                {
                  "internalType": "uint8",
                  "name": "breach",
                  "type": "uint8"
                },
                {
                  "internalType": "uint8",
                  "name": "shoot",
                  "type": "uint8"
                },
                {
                  "internalType": "uint8",
                  "name": "melee",
                  "type": "uint8"
                }
              ],
              "internalType": "struct BCTypes.Traits",
              "name": "traits",
              "type": "tuple"
            },
            {
              "internalType": "uint8",
              "name": "cloneNumber",
              "type": "uint8"
            },
            {
              "internalType": "uint8",
              "name": "maxClones",
              "type": "uint8"
            },
            {
              "internalType": "uint8",
              "name": "ability",
              "type": "uint8"
            },
            {
              "internalType": "uint8",
              "name": "flaw",
              "type": "uint8"
            }
          ],
          "internalType": "struct BCTypes.Character[]",
          "name": "",
          "type": "tuple[]"
        }
      ],
      "stateMutability": "view",
      "type": "function"
    },
    {
      "inputs": [
        {
          "internalType": "uint256",
          "name": "tokenId",
          "type": "uint256"
        }
      ],
      "name": "getApproved",
      "outputs": [
        {
          "internalType": "address",
          "name": "",
          "type": "address"
        }
      ],
      "stateMutability": "view",
      "type": "function"
    },
    {
      "inputs": [
        {
          "components": [
            {
              "internalType": "uint8",
              "name": "row",
              "type": "uint8"
            },
            {
              "internalType": "uint8",
              "name": "col",
              "type": "uint8"
            }
          ],
          "internalType": "struct BCTypes.Position",
          "name": "_firstRoom",
          "type": "tuple"
        },
        {
          "components": [
            {
              "internalType": "uint8",
              "name": "row",
              "type": "uint8"
            },
            {
              "internalType": "uint8",
              "name": "col",
              "type": "uint8"
            }
          ],
          "internalType": "struct BCTypes.Position",
          "name": "_secondRoom",
          "type": "tuple"
        }
      ],
      "name": "getDirectionBetween",
      "outputs": [
        {
          "internalType": "uint256",
          "name": "",
          "type": "uint256"
        }
      ],
      "stateMutability": "pure",
      "type": "function"
    },
    {
      "inputs": [
        {
          "internalType": "uint256",
          "name": "_direction",
          "type": "uint256"
        },
        {
          "components": [
            {
              "internalType": "uint8",
              "name": "row",
              "type": "uint8"
            },
            {
              "internalType": "uint8",
              "name": "col",
              "type": "uint8"
            }
          ],
          "internalType": "struct BCTypes.Position",
          "name": "_start",
          "type": "tuple"
        }
      ],
      "name": "getNeighborRoom",
      "outputs": [
        {
          "components": [
            {
              "internalType": "uint8",
              "name": "row",
              "type": "uint8"
            },
            {
              "internalType": "uint8",
              "name": "col",
              "type": "uint8"
            }
          ],
          "internalType": "struct BCTypes.Position",
          "name": "",
          "type": "tuple"
        }
      ],
      "stateMutability": "pure",
      "type": "function"
    },
    {
      "inputs": [
        {
          "internalType": "uint256",
          "name": "_traitNum",
          "type": "uint256"
        },
        {
          "internalType": "uint256",
          "name": "_subTraitNum",
          "type": "uint256"
        }
      ],
      "name": "getUIOffset",
      "outputs": [
        {
          "internalType": "uint256",
          "name": "",
          "type": "uint256"
        }
      ],
      "stateMutability": "pure",
      "type": "function"
    },
    {
      "inputs": [],
      "name": "hackCap",
      "outputs": [
        {
          "internalType": "uint8",
          "name": "",
          "type": "uint8"
        }
      ],
      "stateMutability": "view",
      "type": "function"
    },
    {
      "inputs": [],
      "name": "healthCap",
      "outputs": [
        {
          "internalType": "uint8",
          "name": "",
          "type": "uint8"
        }
      ],
      "stateMutability": "view",
      "type": "function"
    },
    {
      "inputs": [
        {
          "internalType": "uint256",
          "name": "_charId",
          "type": "uint256"
        }
      ],
      "name": "incrementCloneNumber",
      "outputs": [],
      "stateMutability": "nonpayable",
      "type": "function"
    },
    {
      "inputs": [
        {
          "internalType": "address",
          "name": "owner",
          "type": "address"
        },
        {
          "internalType": "address",
          "name": "operator",
          "type": "address"
        }
      ],
      "name": "isApprovedForAll",
      "outputs": [
        {
          "internalType": "bool",
          "name": "",
          "type": "bool"
        }
      ],
      "stateMutability": "view",
      "type": "function"
    },
    {
      "inputs": [],
      "name": "lobbies",
      "outputs": [
        {
          "internalType": "contract LobbyInterface",
          "name": "",
          "type": "address"
        }
      ],
      "stateMutability": "view",
      "type": "function"
    },
    {
      "inputs": [],
      "name": "maxClonesCap",
      "outputs": [
        {
          "internalType": "uint8",
          "name": "",
          "type": "uint8"
        }
      ],
      "stateMutability": "view",
      "type": "function"
    },
    {
      "inputs": [],
      "name": "meleeCap",
      "outputs": [
        {
          "internalType": "uint8",
          "name": "",
          "type": "uint8"
        }
      ],
      "stateMutability": "view",
      "type": "function"
    },
    {
      "inputs": [],
      "name": "mintCost",
      "outputs": [
        {
          "internalType": "uint256",
          "name": "",
          "type": "uint256"
        }
      ],
      "stateMutability": "view",
      "type": "function"
    },
    {
      "inputs": [],
      "name": "mintIsActive",
      "outputs": [
        {
          "internalType": "bool",
          "name": "",
          "type": "bool"
        }
      ],
      "stateMutability": "view",
      "type": "function"
    },
    {
      "inputs": [],
      "name": "name",
      "outputs": [
        {
          "internalType": "string",
          "name": "",
          "type": "string"
        }
      ],
      "stateMutability": "view",
      "type": "function"
    },
    {
      "inputs": [
        {
          "internalType": "uint256",
          "name": "_min",
          "type": "uint256"
        },
        {
          "internalType": "uint256",
          "name": "_max",
          "type": "uint256"
        },
        {
          "internalType": "uint256",
          "name": "_val",
          "type": "uint256"
        },
        {
          "internalType": "uint256",
          "name": "_valMax",
          "type": "uint256"
        }
      ],
      "name": "normalizeToSmallRange",
      "outputs": [
        {
          "internalType": "uint8",
          "name": "",
          "type": "uint8"
        }
      ],
      "stateMutability": "pure",
      "type": "function"
    },
    {
      "inputs": [],
      "name": "owner",
      "outputs": [
        {
          "internalType": "address",
          "name": "",
          "type": "address"
        }
      ],
      "stateMutability": "view",
      "type": "function"
    },
    {
      "inputs": [
        {
          "internalType": "uint256",
          "name": "tokenId",
          "type": "uint256"
        }
      ],
      "name": "ownerOf",
      "outputs": [
        {
          "internalType": "address",
          "name": "",
          "type": "address"
        }
      ],
      "stateMutability": "view",
      "type": "function"
    },
    {
      "inputs": [],
      "name": "randKeccak",
      "outputs": [
        {
          "internalType": "bytes32",
          "name": "",
          "type": "bytes32"
        }
      ],
      "stateMutability": "nonpayable",
      "type": "function"
    },
    {
      "inputs": [],
      "name": "renounceOwnership",
      "outputs": [],
      "stateMutability": "nonpayable",
      "type": "function"
    },
    {
      "inputs": [],
      "name": "roll",
      "outputs": [
        {
          "internalType": "uint256",
          "name": "",
          "type": "uint256"
        }
      ],
      "stateMutability": "nonpayable",
      "type": "function"
    },
    {
      "inputs": [
        {
          "internalType": "address",
          "name": "from",
          "type": "address"
        },
        {
          "internalType": "address",
          "name": "to",
          "type": "address"
        },
        {
          "internalType": "uint256",
          "name": "tokenId",
          "type": "uint256"
        }
      ],
      "name": "safeTransferFrom",
      "outputs": [],
      "stateMutability": "nonpayable",
      "type": "function"
    },
    {
      "inputs": [
        {
          "internalType": "address",
          "name": "from",
          "type": "address"
        },
        {
          "internalType": "address",
          "name": "to",
          "type": "address"
        },
        {
          "internalType": "uint256",
          "name": "tokenId",
          "type": "uint256"
        },
        {
          "internalType": "bytes",
          "name": "data",
          "type": "bytes"
        }
      ],
      "name": "safeTransferFrom",
      "outputs": [],
      "stateMutability": "nonpayable",
      "type": "function"
    },
    {
      "inputs": [
        {
          "internalType": "address",
          "name": "operator",
          "type": "address"
        },
        {
          "internalType": "bool",
          "name": "approved",
          "type": "bool"
        }
      ],
      "name": "setApprovalForAll",
      "outputs": [],
      "stateMutability": "nonpayable",
      "type": "function"
    },
    {
      "inputs": [
        {
          "internalType": "address",
          "name": "_lobbyContractAddress",
          "type": "address"
        },
        {
          "internalType": "address",
          "name": "_gameContract",
          "type": "address"
        }
      ],
      "name": "setContractAddresses",
      "outputs": [],
      "stateMutability": "nonpayable",
      "type": "function"
    },
    {
      "inputs": [
        {
          "internalType": "bool",
          "name": "_status",
          "type": "bool"
        }
      ],
      "name": "setMintingStatus",
      "outputs": [],
      "stateMutability": "nonpayable",
      "type": "function"
    },
    {
      "inputs": [],
      "name": "shootCap",
      "outputs": [
        {
          "internalType": "uint8",
          "name": "",
          "type": "uint8"
        }
      ],
      "stateMutability": "view",
      "type": "function"
    },
    {
      "inputs": [
        {
          "internalType": "bytes32",
          "name": "_hash",
          "type": "bytes32"
        },
        {
          "internalType": "uint256",
          "name": "_size",
          "type": "uint256"
        },
        {
          "internalType": "uint256",
          "name": "_offset",
          "type": "uint256"
        }
      ],
      "name": "sliceHashToSmallInt",
      "outputs": [
        {
          "internalType": "uint8",
          "name": "",
          "type": "uint8"
        }
      ],
      "stateMutability": "pure",
      "type": "function"
    },
    {
      "inputs": [
        {
          "internalType": "uint8",
          "name": "_min",
          "type": "uint8"
        },
        {
          "internalType": "uint8",
          "name": "_max",
          "type": "uint8"
        }
      ],
      "name": "smallIntBetweenVals",
      "outputs": [
        {
          "internalType": "uint8",
          "name": "",
          "type": "uint8"
        }
      ],
      "stateMutability": "nonpayable",
      "type": "function"
    },
    {
      "inputs": [
        {
          "internalType": "bytes4",
          "name": "interfaceId",
          "type": "bytes4"
        }
      ],
      "name": "supportsInterface",
      "outputs": [
        {
          "internalType": "bool",
          "name": "",
          "type": "bool"
        }
      ],
      "stateMutability": "view",
      "type": "function"
    },
    {
      "inputs": [],
      "name": "symbol",
      "outputs": [
        {
          "internalType": "string",
          "name": "",
          "type": "string"
        }
      ],
      "stateMutability": "view",
      "type": "function"
    },
    {
      "inputs": [
        {
          "internalType": "uint256",
          "name": "tokenId",
          "type": "uint256"
        }
      ],
      "name": "tokenURI",
      "outputs": [
        {
          "internalType": "string",
          "name": "",
          "type": "string"
        }
      ],
      "stateMutability": "view",
      "type": "function"
    },
    {
      "inputs": [
        {
          "internalType": "address",
          "name": "from",
          "type": "address"
        },
        {
          "internalType": "address",
          "name": "to",
          "type": "address"
        },
        {
          "internalType": "uint256",
          "name": "tokenId",
          "type": "uint256"
        }
      ],
      "name": "transferFrom",
      "outputs": [],
      "stateMutability": "nonpayable",
      "type": "function"
    },
    {
      "inputs": [],
      "name": "transferFundsOut",
      "outputs": [],
      "stateMutability": "nonpayable",
      "type": "function"
    },
    {
      "inputs": [
        {
          "internalType": "address",
          "name": "newOwner",
          "type": "address"
        }
      ],
      "name": "transferOwnership",
      "outputs": [],
      "stateMutability": "nonpayable",
      "type": "function"
    }
  ],
  "transactionHash": "0x177e902c24a2fcb93e21a4844b05fa785893c6faa5b82e2b87e5bba2a3ec54db",
  "args": [],
  "numDeployments": 2,
  "solcInputHash": "8d9cd68909f0e3220381f38f6580afc3",
  "bytecode": "0x60806040526000600855655af3107a4000600b55662386f26fc10000600c556001600d60006101000a81548160ff0219169083151502179055506004600d60016101000a81548160ff021916908360ff1602179055506005600d60026101000a81548160ff021916908360ff1602179055506004600d60036101000a81548160ff021916908360ff1602179055506004600d60046101000a81548160ff021916908360ff1602179055506004600d60056101000a81548160ff021916908360ff1602179055506004600d60066101000a81548160ff021916908360ff1602179055506004600d60076101000a81548160ff021916908360ff1602179055506064600d60086101000a81548160ff021916908360ff160217905550600a600d60096101000a81548160ff021916908360ff160217905550600a600d600a6101000a81548160ff021916908360ff1602179055503480156200015e57600080fd5b506040518060400160405280601681526020017f426c61636b20436f6d65742043686172616374657273000000000000000000008152506040518060400160405280600381526020017f42434300000000000000000000000000000000000000000000000000000000008152508160009080519060200190620001e3929190620002f3565b508060019080519060200190620001fc929190620002f3565b5050506200021f620002136200022560201b60201c565b6200022d60201b60201c565b62000408565b600033905090565b6000600760009054906101000a900473ffffffffffffffffffffffffffffffffffffffff16905081600760006101000a81548173ffffffffffffffffffffffffffffffffffffffff021916908373ffffffffffffffffffffffffffffffffffffffff1602179055508173ffffffffffffffffffffffffffffffffffffffff168173ffffffffffffffffffffffffffffffffffffffff167f8be0079c531659141344cd1fd0a4f28419497f9722a3daafe3b4186f6b6457e060405160405180910390a35050565b8280546200030190620003d2565b90600052602060002090601f01602090048101928262000325576000855562000371565b82601f106200034057805160ff191683800117855562000371565b8280016001018555821562000371579182015b828111156200037057825182559160200191906001019062000353565b5b50905062000380919062000384565b5090565b5b808211156200039f57600081600090555060010162000385565b5090565b7f4e487b7100000000000000000000000000000000000000000000000000000000600052602260045260246000fd5b60006002820490506001821680620003eb57607f821691505b60208210811415620004025762000401620003a3565b5b50919050565b61522680620004186000396000f3fe6080604052600436106102935760003560e01c806370a082311161015a578063ba1ee7cf116100c1578063cd931e401161007a578063cd931e4014610a19578063ce28613f14610a42578063e985e9c514610a7f578063f2fde38b14610abc578063fa3993c214610ae5578063fdcadf8114610b2257610293565b8063ba1ee7cf14610935578063bdb4b8481461093f578063c6c484dd1461096a578063c87b56dd14610986578063cbfb2388146109c3578063cd5e3c5d146109ee57610293565b8063951fc3fe11610113578063951fc3fe1461081357806395d89b411461085057806397f34c3f1461087b578063a22cb465146108b8578063b88d4fde146108e1578063b926be2a1461090a57610293565b806370a0823114610717578063715018a614610754578063733882b71461076b5780637420aa361461079657806384c38c8b146107bf5780638da5cb5b146107e857610293565b806345de18b8116101fe5780636284ef2c116101b75780636284ef2c146105e15780636352211e1461060c5780636362fe421461064957806364db84bf146106865780636963c568146106c35780636d6ba756146106ee57610293565b806345de18b8146104b8578063471a4294146104e35780634810bc591461050e578063501f97841461055057806353011696146105795780635ee38b2f146105b657610293565b80631b5ac4b5116102505780631b5ac4b5146103bc5780631e1de205146103f957806323b872dd146104245780633838aed11461044d57806339a54a301461046457806342842e0e1461048f57610293565b806301ffc9a7146102985780630364f88c146102d557806306fdde0314610300578063081812fc1461032b578063095ea7b314610368578063154fa27a14610391575b600080fd5b3480156102a457600080fd5b506102bf60048036038101906102ba91906134e5565b610b4d565b6040516102cc919061352d565b60405180910390f35b3480156102e157600080fd5b506102ea610c2f565b6040516102f791906135c7565b60405180910390f35b34801561030c57600080fd5b50610315610c55565b604051610322919061367b565b60405180910390f35b34801561033757600080fd5b50610352600480360381019061034d91906136d3565b610ce7565b60405161035f9190613721565b60405180910390f35b34801561037457600080fd5b5061038f600480360381019061038a9190613768565b610d2d565b005b34801561039d57600080fd5b506103a6610e45565b6040516103b39190613721565b60405180910390f35b3480156103c857600080fd5b506103e360048036038101906103de91906137de565b610e6b565b6040516103f0919061381a565b60405180910390f35b34801561040557600080fd5b5061040e610e8d565b60405161041b919061384e565b60405180910390f35b34801561043057600080fd5b5061044b60048036038101906104469190613869565b610ed9565b005b34801561045957600080fd5b50610462610f39565b005b34801561047057600080fd5b50610479610f91565b60405161048691906138d8565b60405180910390f35b34801561049b57600080fd5b506104b660048036038101906104b19190613869565b610fa4565b005b3480156104c457600080fd5b506104cd610fc4565b6040516104da91906138d8565b60405180910390f35b3480156104ef57600080fd5b506104f8610fd7565b604051610505919061352d565b60405180910390f35b34801561051a57600080fd5b50610535600480360381019061053091906136d3565b610fea565b60405161054796959493929190613990565b60405180910390f35b34801561055c57600080fd5b50610577600480360381019061057291906136d3565b61113f565b005b34801561058557600080fd5b506105a0600480360381019061059b91906139f6565b611164565b6040516105ad91906138d8565b60405180910390f35b3480156105c257600080fd5b506105cb6111a8565b6040516105d891906138d8565b60405180910390f35b3480156105ed57600080fd5b506105f66111bb565b60405161060391906138d8565b60405180910390f35b34801561061857600080fd5b50610633600480360381019061062e91906136d3565b6111ce565b6040516106409190613721565b60405180910390f35b34801561065557600080fd5b50610670600480360381019061066b9190613a5d565b611280565b60405161067d9190613c57565b60405180910390f35b34801561069257600080fd5b506106ad60048036038101906106a89190613c79565b61150a565b6040516106ba9190613cc8565b60405180910390f35b3480156106cf57600080fd5b506106d861152c565b6040516106e591906138d8565b60405180910390f35b3480156106fa57600080fd5b50610715600480360381019061071091906136d3565b61153f565b005b34801561072357600080fd5b5061073e60048036038101906107399190613a5d565b61162d565b60405161074b9190613cc8565b60405180910390f35b34801561076057600080fd5b506107696116e5565b005b34801561077757600080fd5b506107806116f9565b60405161078d91906138d8565b60405180910390f35b3480156107a257600080fd5b506107bd60048036038101906107b89190613d0f565b61170c565b005b3480156107cb57600080fd5b506107e660048036038101906107e191906136d3565b611731565b005b3480156107f457600080fd5b506107fd611756565b60405161080a9190613721565b60405180910390f35b34801561081f57600080fd5b5061083a60048036038101906108359190613e38565b611780565b6040516108479190613ea7565b60405180910390f35b34801561085c57600080fd5b506108656118c5565b604051610872919061367b565b60405180910390f35b34801561088757600080fd5b506108a2600480360381019061089d9190613eee565b611957565b6040516108af91906138d8565b60405180910390f35b3480156108c457600080fd5b506108df60048036038101906108da9190613f41565b61198e565b005b3480156108ed57600080fd5b506109086004803603810190610903919061403b565b6119a4565b005b34801561091657600080fd5b5061091f611a06565b60405161092c91906138d8565b60405180910390f35b61093d611a19565b005b34801561094b57600080fd5b50610954612009565b6040516109619190613cc8565b60405180910390f35b610984600480360381019061097f91906136d3565b61200f565b005b34801561099257600080fd5b506109ad60048036038101906109a891906136d3565b61214f565b6040516109ba919061367b565b60405180910390f35b3480156109cf57600080fd5b506109d8612262565b6040516109e591906138d8565b60405180910390f35b3480156109fa57600080fd5b50610a03612275565b604051610a109190613cc8565b60405180910390f35b348015610a2557600080fd5b50610a406004803603810190610a3b91906140be565b61228b565b005b348015610a4e57600080fd5b50610a696004803603810190610a6491906140fe565b612319565b604051610a7691906138d8565b60405180910390f35b348015610a8b57600080fd5b50610aa66004803603810190610aa191906140be565b6123aa565b604051610ab3919061352d565b60405180910390f35b348015610ac857600080fd5b50610ae36004803603810190610ade9190613a5d565b61243e565b005b348015610af157600080fd5b50610b0c6004803603810190610b07919061413e565b6124c2565b604051610b199190613cc8565b60405180910390f35b348015610b2e57600080fd5b50610b376125e3565b604051610b449190613cc8565b60405180910390f35b60007f80ac58cd000000000000000000000000000000000000000000000000000000007bffffffffffffffffffffffffffffffffffffffffffffffffffffffff1916827bffffffffffffffffffffffffffffffffffffffffffffffffffffffff19161480610c1857507f5b5e139f000000000000000000000000000000000000000000000000000000007bffffffffffffffffffffffffffffffffffffffffffffffffffffffff1916827bffffffffffffffffffffffffffffffffffffffffffffffffffffffff1916145b80610c285750610c27826125e9565b5b9050919050565b600960009054906101000a900473ffffffffffffffffffffffffffffffffffffffff1681565b606060008054610c64906141ad565b80601f0160208091040260200160405190810160405280929190818152602001828054610c90906141ad565b8015610cdd5780601f10610cb257610100808354040283529160200191610cdd565b820191906000526020600020905b815481529060010190602001808311610cc057829003601f168201915b5050505050905090565b6000610cf282612653565b6004600083815260200190815260200160002060009054906101000a900473ffffffffffffffffffffffffffffffffffffffff169050919050565b6000610d38826111ce565b90508073ffffffffffffffffffffffffffffffffffffffff168373ffffffffffffffffffffffffffffffffffffffff161415610da9576040517f08c379a0000000000000000000000000000000000000000000000000000000008152600401610da090614251565b60405180910390fd5b8073ffffffffffffffffffffffffffffffffffffffff16610dc861269e565b73ffffffffffffffffffffffffffffffffffffffff161480610df75750610df681610df161269e565b6123aa565b5b610e36576040517f08c379a0000000000000000000000000000000000000000000000000000000008152600401610e2d906142e3565b60405180910390fd5b610e4083836126a6565b505050565b600a60009054906101000a900473ffffffffffffffffffffffffffffffffffffffff1681565b600080821215610e845781610e7f90614332565b610e86565b815b9050919050565b600060086000815480929190610ea29061437b565b91905055506008544233604051602001610ebe9392919061442d565b60405160208183030381529060405280519060200120905090565b610eea610ee461269e565b8261275f565b610f29576040517f08c379a0000000000000000000000000000000000000000000000000000000008152600401610f20906144dc565b60405180910390fd5b610f348383836127f4565b505050565b610f41612a5b565b610f49611756565b73ffffffffffffffffffffffffffffffffffffffff166108fc479081150290604051600060405180830381858888f19350505050158015610f8e573d6000803e3d6000fd5b50565b600d60049054906101000a900460ff1681565b610fbf838383604051806020016040528060008152506119a4565b505050565b600d60079054906101000a900460ff1681565b600d60009054906101000a900460ff1681565b600e8181548110610ffa57600080fd5b9060005260206000209060030201600091509050806000015490806001016040518060e00160405290816000820160009054906101000a900460ff1660ff1660ff1681526020016000820160019054906101000a900460ff1660ff1660ff1681526020016000820160029054906101000a900460ff1660ff1660ff1681526020016000820160039054906101000a900460ff1660ff1660ff1681526020016000820160049054906101000a900460ff1660ff1660ff1681526020016000820160059054906101000a900460ff1660ff1660ff1681526020016000820160069054906101000a900460ff1660ff1660ff1681525050908060020160009054906101000a900460ff16908060020160019054906101000a900460ff16908060020160029054906101000a900460ff16908060020160039054906101000a900460ff16905086565b611147612a5b565b670de0b6b3a76400008161115b91906144fc565b600c8190555050565b60008085856111739190614556565b9050600083858361118491906144fc565b61118e91906145b9565b9050868161119c91906145ea565b92505050949350505050565b600d60089054906101000a900460ff1681565b600d60039054906101000a900460ff1681565b6000806002600084815260200190815260200160002060009054906101000a900473ffffffffffffffffffffffffffffffffffffffff169050600073ffffffffffffffffffffffffffffffffffffffff168173ffffffffffffffffffffffffffffffffffffffff161415611277576040517f08c379a000000000000000000000000000000000000000000000000000000000815260040161126e9061468c565b60405180910390fd5b80915050919050565b6060600061128d8361162d565b90506000808267ffffffffffffffff8111156112ac576112ab613d41565b5b6040519080825280602002602001820160405280156112e557816020015b6112d26133bc565b8152602001906001900390816112ca5790505b50905060005b600e805490508110156114fe578573ffffffffffffffffffffffffffffffffffffffff16611318826111ce565b73ffffffffffffffffffffffffffffffffffffffff1614156114eb57600e8181548110611348576113476146ac565b5b90600052602060002090600302016040518060c001604052908160008201548152602001600182016040518060e00160405290816000820160009054906101000a900460ff1660ff1660ff1681526020016000820160019054906101000a900460ff1660ff1660ff1681526020016000820160029054906101000a900460ff1660ff1660ff1681526020016000820160039054906101000a900460ff1660ff1660ff1681526020016000820160049054906101000a900460ff1660ff1660ff1681526020016000820160059054906101000a900460ff1660ff1660ff1681526020016000820160069054906101000a900460ff1660ff1660ff168152505081526020016002820160009054906101000a900460ff1660ff1660ff1681526020016002820160019054906101000a900460ff1660ff1660ff1681526020016002820160029054906101000a900460ff1660ff1660ff1681526020016002820160039054906101000a900460ff1660ff1660ff16815250508284815181106114d1576114d06146ac565b5b602002602001018190525082806114e79061437b565b9350505b80806114f69061437b565b9150506112eb565b50809350505050919050565b60008183600461151a91906144fc565b61152491906145ea565b905092915050565b600d60029054906101000a900460ff1681565b600a60009054906101000a900473ffffffffffffffffffffffffffffffffffffffff1673ffffffffffffffffffffffffffffffffffffffff163373ffffffffffffffffffffffffffffffffffffffff16146115cf576040517f08c379a00000000000000000000000000000000000000000000000000000000081526004016115c690614727565b60405180910390fd5b600e81815481106115e3576115e26146ac565b5b9060005260206000209060030201600201600081819054906101000a900460ff168092919061161190614747565b91906101000a81548160ff021916908360ff1602179055505050565b60008073ffffffffffffffffffffffffffffffffffffffff168273ffffffffffffffffffffffffffffffffffffffff16141561169e576040517f08c379a0000000000000000000000000000000000000000000000000000000008152600401611695906147e3565b60405180910390fd5b600360008373ffffffffffffffffffffffffffffffffffffffff1673ffffffffffffffffffffffffffffffffffffffff168152602001908152602001600020549050919050565b6116ed612a5b565b6116f76000612ad9565b565b600d60069054906101000a900460ff1681565b611714612a5b565b80600d60006101000a81548160ff02191690831515021790555050565b611739612a5b565b670de0b6b3a76400008161174d91906144fc565b600b8190555050565b6000600760009054906101000a900473ffffffffffffffffffffffffffffffffffffffff16905090565b611788613407565b60008314156117c7576040518060400160405280600184600001516117ad9190614803565b60ff168152602001836020015160ff1681525090506118bf565b6001831415611806576040518060400160405280600184600001516117ec9190614837565b60ff168152602001836020015160ff1681525090506118bf565b6002831415611845576040518060400160405280836000015160ff168152602001600184602001516118389190614837565b60ff1681525090506118bf565b6003831415611884576040518060400160405280836000015160ff168152602001600184602001516118779190614803565b60ff1681525090506118bf565b6040517f08c379a00000000000000000000000000000000000000000000000000000000081526004016118b6906148ba565b60405180910390fd5b92915050565b6060600180546118d4906141ad565b80601f0160208091040260200160405190810160405280929190818152602001828054611900906141ad565b801561194d5780601f106119225761010080835404028352916020019161194d565b820191906000526020600020905b81548152906001019060200180831161193057829003601f168201915b5050505050905090565b60008082600185600261196a9190614a0d565b6119749190614556565b60001b901b905082818616901c60001c9150509392505050565b6119a061199961269e565b8383612b9f565b5050565b6119b56119af61269e565b8361275f565b6119f4576040517f08c379a00000000000000000000000000000000000000000000000000000000081526004016119eb906144dc565b60405180910390fd5b611a0084848484612d0c565b50505050565b600d60019054906101000a900460ff1681565b611a21611756565b73ffffffffffffffffffffffffffffffffffffffff163373ffffffffffffffffffffffffffffffffffffffff161480611a5b5750600c5434145b611a9a576040517f08c379a0000000000000000000000000000000000000000000000000000000008152600401611a9190614aa4565b60405180910390fd5b611aa2611756565b73ffffffffffffffffffffffffffffffffffffffff163373ffffffffffffffffffffffffffffffffffffffff161480611aee575060011515600d60009054906101000a900460ff161515145b611b2d576040517f08c379a0000000000000000000000000000000000000000000000000000000008152600401611b2490614b10565b60405180910390fd5b6000611b37610e8d565b9050600e6040518060c001604052808381526020016040518060e00160405280611b9c60026001600d60019054906101000a900460ff16611b789190614837565b60ff16611b92896004611b8d600c600161150a565b611957565b60ff16600f611164565b60ff168152602001611be960036001600d60029054906101000a900460ff16611bc59190614837565b60ff16611bdf896004611bda600a600261150a565b611957565b60ff16600f611164565b60ff168152602001611c3660026001600d60039054906101000a900460ff16611c129190614837565b60ff16611c2c896004611c27600c600061150a565b611957565b60ff16600f611164565b60ff168152602001611c8360026001600d60049054906101000a900460ff16611c5f9190614837565b60ff16611c79896004611c74600d600061150a565b611957565b60ff16600f611164565b60ff168152602001611cd060026001600d60059054906101000a900460ff16611cac9190614837565b60ff16611cc6896004611cc1600a600161150a565b611957565b60ff16600f611164565b60ff168152602001611d1d60026001600d60069054906101000a900460ff16611cf99190614837565b60ff16611d13896004611d0e600b600061150a565b611957565b60ff16600f611164565b60ff168152602001611d6a60026001600d60079054906101000a900460ff16611d469190614837565b60ff16611d60896004611d5b600a600061150a565b611957565b60ff16600f611164565b60ff168152508152602001600060ff168152602001611db86000600d60089054906101000a900460ff1660ff16611dae876008611da96003600061150a565b611957565b60ff1660ff611164565b60ff168152602001611df96000600d60099054906101000a900460ff1660ff16611def876008611dea6008600061150a565b611957565b60ff1660ff611164565b60ff168152602001611e3a6000600d600a9054906101000a900460ff1660ff16611e30876008611e2b6008600261150a565b611957565b60ff1660ff611164565b60ff1681525090806001815401808255809150506001900390600052602060002090600302016000909190919091506000820151816000015560208201518160010160008201518160000160006101000a81548160ff021916908360ff16021790555060208201518160000160016101000a81548160ff021916908360ff16021790555060408201518160000160026101000a81548160ff021916908360ff16021790555060608201518160000160036101000a81548160ff021916908360ff16021790555060808201518160000160046101000a81548160ff021916908360ff16021790555060a08201518160000160056101000a81548160ff021916908360ff16021790555060c08201518160000160066101000a81548160ff021916908360ff160217905550505060408201518160020160006101000a81548160ff021916908360ff16021790555060608201518160020160016101000a81548160ff021916908360ff16021790555060808201518160020160026101000a81548160ff021916908360ff16021790555060a08201518160020160036101000a81548160ff021916908360ff1602179055505050612006336001600e805490506120019190614556565b612d68565b50565b600c5481565b612017611756565b73ffffffffffffffffffffffffffffffffffffffff163373ffffffffffffffffffffffffffffffffffffffff1614806120515750600b5434145b612090576040517f08c379a000000000000000000000000000000000000000000000000000000000815260040161208790614aa4565b60405180910390fd5b6120bd33600a60009054906101000a900473ffffffffffffffffffffffffffffffffffffffff1683610fa4565b600960009054906101000a900473ffffffffffffffffffffffffffffffffffffffff1673ffffffffffffffffffffffffffffffffffffffff1663237c201b82336040518363ffffffff1660e01b815260040161211a929190614b30565b600060405180830381600087803b15801561213457600080fd5b505af1158015612148573d6000803e3d6000fd5b5050505050565b606061215a82612653565b600060066000848152602001908152602001600020805461217a906141ad565b80601f01602080910402602001604051908101604052809291908181526020018280546121a6906141ad565b80156121f35780601f106121c8576101008083540402835291602001916121f3565b820191906000526020600020905b8154815290600101906020018083116121d657829003601f168201915b505050505090506000612204612d86565b905060008151141561221a57819250505061225d565b60008251111561224f578082604051602001612237929190614b95565b6040516020818303038152906040529250505061225d565b61225884612d9d565b925050505b919050565b600d60059054906101000a900460ff1681565b600061228360016006612319565b60ff16905090565b612293612a5b565b81600960006101000a81548173ffffffffffffffffffffffffffffffffffffffff021916908373ffffffffffffffffffffffffffffffffffffffff16021790555080600a60006101000a81548173ffffffffffffffffffffffffffffffffffffffff021916908373ffffffffffffffffffffffffffffffffffffffff1602179055505050565b60006008600081548092919061232e9061437b565b91905055506000336008544260405160200161234c93929190614bb9565b6040516020818303038152906040528051906020012060001c90506000600185856123779190614803565b6123819190614837565b90508460ff168160ff16836123969190614bf6565b6123a091906145ea565b9250505092915050565b6000600560008473ffffffffffffffffffffffffffffffffffffffff1673ffffffffffffffffffffffffffffffffffffffff16815260200190815260200160002060008373ffffffffffffffffffffffffffffffffffffffff1673ffffffffffffffffffffffffffffffffffffffff16815260200190815260200160002060009054906101000a900460ff16905092915050565b612446612a5b565b600073ffffffffffffffffffffffffffffffffffffffff168173ffffffffffffffffffffffffffffffffffffffff1614156124b6576040517f08c379a00000000000000000000000000000000000000000000000000000000081526004016124ad90614c99565b60405180910390fd5b6124bf81612ad9565b50565b60006001826000015184600001516124da9190614cc6565b60000b14156124ec57600090506125dd565b7fffffffffffffffffffffffffffffffffffffffffffffffffffffffffffffffff826000015184600001516125219190614cc6565b60000b141561253357600190506125dd565b7fffffffffffffffffffffffffffffffffffffffffffffffffffffffffffffffff826020015184602001516125689190614cc6565b60000b141561257a57600290506125dd565b6001826020015184602001516125909190614cc6565b60000b14156125a257600390506125dd565b6040517f08c379a00000000000000000000000000000000000000000000000000000000081526004016125d490614d87565b60405180910390fd5b92915050565b600b5481565b60007f01ffc9a7000000000000000000000000000000000000000000000000000000007bffffffffffffffffffffffffffffffffffffffffffffffffffffffff1916827bffffffffffffffffffffffffffffffffffffffffffffffffffffffff1916149050919050565b61265c81612e05565b61269b576040517f08c379a00000000000000000000000000000000000000000000000000000000081526004016126929061468c565b60405180910390fd5b50565b600033905090565b816004600083815260200190815260200160002060006101000a81548173ffffffffffffffffffffffffffffffffffffffff021916908373ffffffffffffffffffffffffffffffffffffffff160217905550808273ffffffffffffffffffffffffffffffffffffffff16612719836111ce565b73ffffffffffffffffffffffffffffffffffffffff167f8c5be1e5ebec7d5bd14f71427d1e84f3dd0314c0f7b2291e5b200ac8c7c3b92560405160405180910390a45050565b60008061276b836111ce565b90508073ffffffffffffffffffffffffffffffffffffffff168473ffffffffffffffffffffffffffffffffffffffff1614806127ad57506127ac81856123aa565b5b806127eb57508373ffffffffffffffffffffffffffffffffffffffff166127d384610ce7565b73ffffffffffffffffffffffffffffffffffffffff16145b91505092915050565b8273ffffffffffffffffffffffffffffffffffffffff16612814826111ce565b73ffffffffffffffffffffffffffffffffffffffff161461286a576040517f08c379a000000000000000000000000000000000000000000000000000000000815260040161286190614e19565b60405180910390fd5b600073ffffffffffffffffffffffffffffffffffffffff168273ffffffffffffffffffffffffffffffffffffffff1614156128da576040517f08c379a00000000000000000000000000000000000000000000000000000000081526004016128d190614eab565b60405180910390fd5b6128e5838383612e71565b6128f06000826126a6565b6001600360008573ffffffffffffffffffffffffffffffffffffffff1673ffffffffffffffffffffffffffffffffffffffff16815260200190815260200160002060008282546129409190614556565b925050819055506001600360008473ffffffffffffffffffffffffffffffffffffffff1673ffffffffffffffffffffffffffffffffffffffff168152602001908152602001600020600082825461299791906145ea565b92505081905550816002600083815260200190815260200160002060006101000a81548173ffffffffffffffffffffffffffffffffffffffff021916908373ffffffffffffffffffffffffffffffffffffffff160217905550808273ffffffffffffffffffffffffffffffffffffffff168473ffffffffffffffffffffffffffffffffffffffff167fddf252ad1be2c89b69c2b068fc378daa952ba7f163c4a11628f55a4df523b3ef60405160405180910390a4612a56838383612e76565b505050565b612a6361269e565b73ffffffffffffffffffffffffffffffffffffffff16612a81611756565b73ffffffffffffffffffffffffffffffffffffffff1614612ad7576040517f08c379a0000000000000000000000000000000000000000000000000000000008152600401612ace90614f17565b60405180910390fd5b565b6000600760009054906101000a900473ffffffffffffffffffffffffffffffffffffffff16905081600760006101000a81548173ffffffffffffffffffffffffffffffffffffffff021916908373ffffffffffffffffffffffffffffffffffffffff1602179055508173ffffffffffffffffffffffffffffffffffffffff168173ffffffffffffffffffffffffffffffffffffffff167f8be0079c531659141344cd1fd0a4f28419497f9722a3daafe3b4186f6b6457e060405160405180910390a35050565b8173ffffffffffffffffffffffffffffffffffffffff168373ffffffffffffffffffffffffffffffffffffffff161415612c0e576040517f08c379a0000000000000000000000000000000000000000000000000000000008152600401612c0590614f83565b60405180910390fd5b80600560008573ffffffffffffffffffffffffffffffffffffffff1673ffffffffffffffffffffffffffffffffffffffff16815260200190815260200160002060008473ffffffffffffffffffffffffffffffffffffffff1673ffffffffffffffffffffffffffffffffffffffff16815260200190815260200160002060006101000a81548160ff0219169083151502179055508173ffffffffffffffffffffffffffffffffffffffff168373ffffffffffffffffffffffffffffffffffffffff167f17307eab39ab6107e8899845ad3d59bd9653f200f220920489ca2b5937696c3183604051612cff919061352d565b60405180910390a3505050565b612d178484846127f4565b612d2384848484612e7b565b612d62576040517f08c379a0000000000000000000000000000000000000000000000000000000008152600401612d5990615015565b60405180910390fd5b50505050565b612d82828260405180602001604052806000815250613003565b5050565b606060405180602001604052806000815250905090565b6060612da882612653565b6000612db2612d86565b90506000815111612dd25760405180602001604052806000815250612dfd565b80612ddc8461305e565b604051602001612ded929190614b95565b6040516020818303038152906040525b915050919050565b60008073ffffffffffffffffffffffffffffffffffffffff166002600084815260200190815260200160002060009054906101000a900473ffffffffffffffffffffffffffffffffffffffff1673ffffffffffffffffffffffffffffffffffffffff1614159050919050565b505050565b505050565b6000612e9c8473ffffffffffffffffffffffffffffffffffffffff166131bf565b15612ff6578373ffffffffffffffffffffffffffffffffffffffff1663150b7a02612ec561269e565b8786866040518563ffffffff1660e01b8152600401612ee7949392919061508a565b6020604051808303816000875af1925050508015612f2357506040513d601f19601f82011682018060405250810190612f2091906150eb565b60015b612fa6573d8060008114612f53576040519150601f19603f3d011682016040523d82523d6000602084013e612f58565b606091505b50600081511415612f9e576040517f08c379a0000000000000000000000000000000000000000000000000000000008152600401612f9590615015565b60405180910390fd5b805181602001fd5b63150b7a0260e01b7bffffffffffffffffffffffffffffffffffffffffffffffffffffffff1916817bffffffffffffffffffffffffffffffffffffffffffffffffffffffff191614915050612ffb565b600190505b949350505050565b61300d83836131e2565b61301a6000848484612e7b565b613059576040517f08c379a000000000000000000000000000000000000000000000000000000000815260040161305090615015565b60405180910390fd5b505050565b606060008214156130a6576040518060400160405280600181526020017f300000000000000000000000000000000000000000000000000000000000000081525090506131ba565b600082905060005b600082146130d85780806130c19061437b565b915050600a826130d191906145b9565b91506130ae565b60008167ffffffffffffffff8111156130f4576130f3613d41565b5b6040519080825280601f01601f1916602001820160405280156131265781602001600182028036833780820191505090505b5090505b600085146131b35760018261313f9190614556565b9150600a8561314e9190614bf6565b603061315a91906145ea565b60f81b8183815181106131705761316f6146ac565b5b60200101907effffffffffffffffffffffffffffffffffffffffffffffffffffffffffffff1916908160001a905350600a856131ac91906145b9565b945061312a565b8093505050505b919050565b6000808273ffffffffffffffffffffffffffffffffffffffff163b119050919050565b600073ffffffffffffffffffffffffffffffffffffffff168273ffffffffffffffffffffffffffffffffffffffff161415613252576040517f08c379a000000000000000000000000000000000000000000000000000000000815260040161324990615164565b60405180910390fd5b61325b81612e05565b1561329b576040517f08c379a0000000000000000000000000000000000000000000000000000000008152600401613292906151d0565b60405180910390fd5b6132a760008383612e71565b6001600360008473ffffffffffffffffffffffffffffffffffffffff1673ffffffffffffffffffffffffffffffffffffffff16815260200190815260200160002060008282546132f791906145ea565b92505081905550816002600083815260200190815260200160002060006101000a81548173ffffffffffffffffffffffffffffffffffffffff021916908373ffffffffffffffffffffffffffffffffffffffff160217905550808273ffffffffffffffffffffffffffffffffffffffff16600073ffffffffffffffffffffffffffffffffffffffff167fddf252ad1be2c89b69c2b068fc378daa952ba7f163c4a11628f55a4df523b3ef60405160405180910390a46133b860008383612e76565b5050565b6040518060c00160405280600080191681526020016133d9613427565b8152602001600060ff168152602001600060ff168152602001600060ff168152602001600060ff1681525090565b6040518060400160405280600060ff168152602001600060ff1681525090565b6040518060e00160405280600060ff168152602001600060ff168152602001600060ff168152602001600060ff168152602001600060ff168152602001600060ff168152602001600060ff1681525090565b6000604051905090565b600080fd5b600080fd5b60007fffffffff0000000000000000000000000000000000000000000000000000000082169050919050565b6134c28161348d565b81146134cd57600080fd5b50565b6000813590506134df816134b9565b92915050565b6000602082840312156134fb576134fa613483565b5b6000613509848285016134d0565b91505092915050565b60008115159050919050565b61352781613512565b82525050565b6000602082019050613542600083018461351e565b92915050565b600073ffffffffffffffffffffffffffffffffffffffff82169050919050565b6000819050919050565b600061358d61358861358384613548565b613568565b613548565b9050919050565b600061359f82613572565b9050919050565b60006135b182613594565b9050919050565b6135c1816135a6565b82525050565b60006020820190506135dc60008301846135b8565b92915050565b600081519050919050565b600082825260208201905092915050565b60005b8381101561361c578082015181840152602081019050613601565b8381111561362b576000848401525b50505050565b6000601f19601f8301169050919050565b600061364d826135e2565b61365781856135ed565b93506136678185602086016135fe565b61367081613631565b840191505092915050565b600060208201905081810360008301526136958184613642565b905092915050565b6000819050919050565b6136b08161369d565b81146136bb57600080fd5b50565b6000813590506136cd816136a7565b92915050565b6000602082840312156136e9576136e8613483565b5b60006136f7848285016136be565b91505092915050565b600061370b82613548565b9050919050565b61371b81613700565b82525050565b60006020820190506137366000830184613712565b92915050565b61374581613700565b811461375057600080fd5b50565b6000813590506137628161373c565b92915050565b6000806040838503121561377f5761377e613483565b5b600061378d85828601613753565b925050602061379e858286016136be565b9150509250929050565b6000819050919050565b6137bb816137a8565b81146137c657600080fd5b50565b6000813590506137d8816137b2565b92915050565b6000602082840312156137f4576137f3613483565b5b6000613802848285016137c9565b91505092915050565b613814816137a8565b82525050565b600060208201905061382f600083018461380b565b92915050565b6000819050919050565b61384881613835565b82525050565b6000602082019050613863600083018461383f565b92915050565b60008060006060848603121561388257613881613483565b5b600061389086828701613753565b93505060206138a186828701613753565b92505060406138b2868287016136be565b9150509250925092565b600060ff82169050919050565b6138d2816138bc565b82525050565b60006020820190506138ed60008301846138c9565b92915050565b6138fc816138bc565b82525050565b60e08201600082015161391860008501826138f3565b50602082015161392b60208501826138f3565b50604082015161393e60408501826138f3565b50606082015161395160608501826138f3565b50608082015161396460808501826138f3565b5060a082015161397760a08501826138f3565b5060c082015161398a60c08501826138f3565b50505050565b6000610180820190506139a6600083018961383f565b6139b36020830188613902565b6139c16101008301876138c9565b6139cf6101208301866138c9565b6139dd6101408301856138c9565b6139eb6101608301846138c9565b979650505050505050565b60008060008060808587031215613a1057613a0f613483565b5b6000613a1e878288016136be565b9450506020613a2f878288016136be565b9350506040613a40878288016136be565b9250506060613a51878288016136be565b91505092959194509250565b600060208284031215613a7357613a72613483565b5b6000613a8184828501613753565b91505092915050565b600081519050919050565b600082825260208201905092915050565b6000819050602082019050919050565b613abf81613835565b82525050565b60e082016000820151613adb60008501826138f3565b506020820151613aee60208501826138f3565b506040820151613b0160408501826138f3565b506060820151613b1460608501826138f3565b506080820151613b2760808501826138f3565b5060a0820151613b3a60a08501826138f3565b5060c0820151613b4d60c08501826138f3565b50505050565b61018082016000820151613b6a6000850182613ab6565b506020820151613b7d6020850182613ac5565b506040820151613b916101008501826138f3565b506060820151613ba56101208501826138f3565b506080820151613bb96101408501826138f3565b5060a0820151613bcd6101608501826138f3565b50505050565b6000613bdf8383613b53565b6101808301905092915050565b6000602082019050919050565b6000613c0482613a8a565b613c0e8185613a95565b9350613c1983613aa6565b8060005b83811015613c4a578151613c318882613bd3565b9750613c3c83613bec565b925050600181019050613c1d565b5085935050505092915050565b60006020820190508181036000830152613c718184613bf9565b905092915050565b60008060408385031215613c9057613c8f613483565b5b6000613c9e858286016136be565b9250506020613caf858286016136be565b9150509250929050565b613cc28161369d565b82525050565b6000602082019050613cdd6000830184613cb9565b92915050565b613cec81613512565b8114613cf757600080fd5b50565b600081359050613d0981613ce3565b92915050565b600060208284031215613d2557613d24613483565b5b6000613d3384828501613cfa565b91505092915050565b600080fd5b7f4e487b7100000000000000000000000000000000000000000000000000000000600052604160045260246000fd5b613d7982613631565b810181811067ffffffffffffffff82111715613d9857613d97613d41565b5b80604052505050565b6000613dab613479565b9050613db78282613d70565b919050565b613dc5816138bc565b8114613dd057600080fd5b50565b600081359050613de281613dbc565b92915050565b600060408284031215613dfe57613dfd613d3c565b5b613e086040613da1565b90506000613e1884828501613dd3565b6000830152506020613e2c84828501613dd3565b60208301525092915050565b60008060608385031215613e4f57613e4e613483565b5b6000613e5d858286016136be565b9250506020613e6e85828601613de8565b9150509250929050565b604082016000820151613e8e60008501826138f3565b506020820151613ea160208501826138f3565b50505050565b6000604082019050613ebc6000830184613e78565b92915050565b613ecb81613835565b8114613ed657600080fd5b50565b600081359050613ee881613ec2565b92915050565b600080600060608486031215613f0757613f06613483565b5b6000613f1586828701613ed9565b9350506020613f26868287016136be565b9250506040613f37868287016136be565b9150509250925092565b60008060408385031215613f5857613f57613483565b5b6000613f6685828601613753565b9250506020613f7785828601613cfa565b9150509250929050565b600080fd5b600080fd5b600067ffffffffffffffff821115613fa657613fa5613d41565b5b613faf82613631565b9050602081019050919050565b82818337600083830152505050565b6000613fde613fd984613f8b565b613da1565b905082815260208101848484011115613ffa57613ff9613f86565b5b614005848285613fbc565b509392505050565b600082601f83011261402257614021613f81565b5b8135614032848260208601613fcb565b91505092915050565b6000806000806080858703121561405557614054613483565b5b600061406387828801613753565b945050602061407487828801613753565b9350506040614085878288016136be565b925050606085013567ffffffffffffffff8111156140a6576140a5613488565b5b6140b28782880161400d565b91505092959194509250565b600080604083850312156140d5576140d4613483565b5b60006140e385828601613753565b92505060206140f485828601613753565b9150509250929050565b6000806040838503121561411557614114613483565b5b600061412385828601613dd3565b925050602061413485828601613dd3565b9150509250929050565b6000806080838503121561415557614154613483565b5b600061416385828601613de8565b925050604061417485828601613de8565b9150509250929050565b7f4e487b7100000000000000000000000000000000000000000000000000000000600052602260045260246000fd5b600060028204905060018216806141c557607f821691505b602082108114156141d9576141d861417e565b5b50919050565b7f4552433732313a20617070726f76616c20746f2063757272656e74206f776e6560008201527f7200000000000000000000000000000000000000000000000000000000000000602082015250565b600061423b6021836135ed565b9150614246826141df565b604082019050919050565b6000602082019050818103600083015261426a8161422e565b9050919050565b7f4552433732313a20617070726f76652063616c6c6572206973206e6f7420746f60008201527f6b656e206f776e6572206e6f7220617070726f76656420666f7220616c6c0000602082015250565b60006142cd603e836135ed565b91506142d882614271565b604082019050919050565b600060208201905081810360008301526142fc816142c0565b9050919050565b7f4e487b7100000000000000000000000000000000000000000000000000000000600052601160045260246000fd5b600061433d826137a8565b91507f80000000000000000000000000000000000000000000000000000000000000008214156143705761436f614303565b5b816000039050919050565b60006143868261369d565b91507fffffffffffffffffffffffffffffffffffffffffffffffffffffffffffffffff8214156143b9576143b8614303565b5b600182019050919050565b6000819050919050565b6143df6143da8261369d565b6143c4565b82525050565b60008160601b9050919050565b60006143fd826143e5565b9050919050565b600061440f826143f2565b9050919050565b61442761442282613700565b614404565b82525050565b600061443982866143ce565b60208201915061444982856143ce565b6020820191506144598284614416565b601482019150819050949350505050565b7f4552433732313a2063616c6c6572206973206e6f7420746f6b656e206f776e6560008201527f72206e6f7220617070726f766564000000000000000000000000000000000000602082015250565b60006144c6602e836135ed565b91506144d18261446a565b604082019050919050565b600060208201905081810360008301526144f5816144b9565b9050919050565b60006145078261369d565b91506145128361369d565b9250817fffffffffffffffffffffffffffffffffffffffffffffffffffffffffffffffff048311821515161561454b5761454a614303565b5b828202905092915050565b60006145618261369d565b915061456c8361369d565b92508282101561457f5761457e614303565b5b828203905092915050565b7f4e487b7100000000000000000000000000000000000000000000000000000000600052601260045260246000fd5b60006145c48261369d565b91506145cf8361369d565b9250826145df576145de61458a565b5b828204905092915050565b60006145f58261369d565b91506146008361369d565b9250827fffffffffffffffffffffffffffffffffffffffffffffffffffffffffffffffff0382111561463557614634614303565b5b828201905092915050565b7f4552433732313a20696e76616c696420746f6b656e2049440000000000000000600082015250565b60006146766018836135ed565b915061468182614640565b602082019050919050565b600060208201905081810360008301526146a581614669565b9050919050565b7f4e487b7100000000000000000000000000000000000000000000000000000000600052603260045260246000fd5b7f4f6e6c792067616d657320636f6e747261637400000000000000000000000000600082015250565b60006147116013836135ed565b915061471c826146db565b602082019050919050565b6000602082019050818103600083015261474081614704565b9050919050565b6000614752826138bc565b915060ff82141561476657614765614303565b5b600182019050919050565b7f4552433732313a2061646472657373207a65726f206973206e6f74206120766160008201527f6c6964206f776e65720000000000000000000000000000000000000000000000602082015250565b60006147cd6029836135ed565b91506147d882614771565b604082019050919050565b600060208201905081810360008301526147fc816147c0565b9050919050565b600061480e826138bc565b9150614819836138bc565b92508282101561482c5761482b614303565b5b828203905092915050565b6000614842826138bc565b915061484d836138bc565b92508260ff0382111561486357614862614303565b5b828201905092915050565b7f496e76616c696420646972656374696f6e000000000000000000000000000000600082015250565b60006148a46011836135ed565b91506148af8261486e565b602082019050919050565b600060208201905081810360008301526148d381614897565b9050919050565b60008160011c9050919050565b6000808291508390505b60018511156149315780860481111561490d5761490c614303565b5b600185161561491c5780820291505b808102905061492a856148da565b94506148f1565b94509492505050565b60008261494a5760019050614a06565b816149585760009050614a06565b816001811461496e5760028114614978576149a7565b6001915050614a06565b60ff84111561498a57614989614303565b5b8360020a9150848211156149a1576149a0614303565b5b50614a06565b5060208310610133831016604e8410600b84101617156149dc5782820a9050838111156149d7576149d6614303565b5b614a06565b6149e984848460016148e7565b92509050818404811115614a00576149ff614303565b5b81810290505b9392505050565b6000614a188261369d565b9150614a238361369d565b9250614a507fffffffffffffffffffffffffffffffffffffffffffffffffffffffffffffffff848461493a565b905092915050565b7f496e636f7272656374207061796d656e74000000000000000000000000000000600082015250565b6000614a8e6011836135ed565b9150614a9982614a58565b602082019050919050565b60006020820190508181036000830152614abd81614a81565b9050919050565b7f4d696e74696e67206973206e6f74206163746976650000000000000000000000600082015250565b6000614afa6015836135ed565b9150614b0582614ac4565b602082019050919050565b60006020820190508181036000830152614b2981614aed565b9050919050565b6000604082019050614b456000830185613cb9565b614b526020830184613712565b9392505050565b600081905092915050565b6000614b6f826135e2565b614b798185614b59565b9350614b898185602086016135fe565b80840191505092915050565b6000614ba18285614b64565b9150614bad8284614b64565b91508190509392505050565b6000614bc58286614416565b601482019150614bd582856143ce565b602082019150614be582846143ce565b602082019150819050949350505050565b6000614c018261369d565b9150614c0c8361369d565b925082614c1c57614c1b61458a565b5b828206905092915050565b7f4f776e61626c653a206e6577206f776e657220697320746865207a65726f206160008201527f6464726573730000000000000000000000000000000000000000000000000000602082015250565b6000614c836026836135ed565b9150614c8e82614c27565b604082019050919050565b60006020820190508181036000830152614cb281614c76565b9050919050565b60008160000b9050919050565b6000614cd182614cb9565b9150614cdc83614cb9565b9250827fffffffffffffffffffffffffffffffffffffffffffffffffffffffffffffff8001821260008412151615614d1757614d16614303565b5b82607f018213600084121615614d3057614d2f614303565b5b828203905092915050565b7f4572726f723a204e6f742061646a6163656e7400000000000000000000000000600082015250565b6000614d716013836135ed565b9150614d7c82614d3b565b602082019050919050565b60006020820190508181036000830152614da081614d64565b9050919050565b7f4552433732313a207472616e736665722066726f6d20696e636f72726563742060008201527f6f776e6572000000000000000000000000000000000000000000000000000000602082015250565b6000614e036025836135ed565b9150614e0e82614da7565b604082019050919050565b60006020820190508181036000830152614e3281614df6565b9050919050565b7f4552433732313a207472616e7366657220746f20746865207a65726f2061646460008201527f7265737300000000000000000000000000000000000000000000000000000000602082015250565b6000614e956024836135ed565b9150614ea082614e39565b604082019050919050565b60006020820190508181036000830152614ec481614e88565b9050919050565b7f4f776e61626c653a2063616c6c6572206973206e6f7420746865206f776e6572600082015250565b6000614f016020836135ed565b9150614f0c82614ecb565b602082019050919050565b60006020820190508181036000830152614f3081614ef4565b9050919050565b7f4552433732313a20617070726f766520746f2063616c6c657200000000000000600082015250565b6000614f6d6019836135ed565b9150614f7882614f37565b602082019050919050565b60006020820190508181036000830152614f9c81614f60565b9050919050565b7f4552433732313a207472616e7366657220746f206e6f6e20455243373231526560008201527f63656976657220696d706c656d656e7465720000000000000000000000000000602082015250565b6000614fff6032836135ed565b915061500a82614fa3565b604082019050919050565b6000602082019050818103600083015261502e81614ff2565b9050919050565b600081519050919050565b600082825260208201905092915050565b600061505c82615035565b6150668185615040565b93506150768185602086016135fe565b61507f81613631565b840191505092915050565b600060808201905061509f6000830187613712565b6150ac6020830186613712565b6150b96040830185613cb9565b81810360608301526150cb8184615051565b905095945050505050565b6000815190506150e5816134b9565b92915050565b60006020828403121561510157615100613483565b5b600061510f848285016150d6565b91505092915050565b7f4552433732313a206d696e7420746f20746865207a65726f2061646472657373600082015250565b600061514e6020836135ed565b915061515982615118565b602082019050919050565b6000602082019050818103600083015261517d81615141565b9050919050565b7f4552433732313a20746f6b656e20616c7265616479206d696e74656400000000600082015250565b60006151ba601c836135ed565b91506151c582615184565b602082019050919050565b600060208201905081810360008301526151e9816151ad565b905091905056fea2646970667358221220cc1052571e7e11d9ddfd0ce5cdc1c1d337e238706bc6f8c8a8cba54a6d9f8ba264736f6c634300080c0033",
  "devdoc": {
    "kind": "dev",
    "methods": {
      "approve(address,uint256)": {
        "details": "See {IERC721-approve}."
      },
      "balanceOf(address)": {
        "details": "See {IERC721-balanceOf}."
      },
      "getApproved(uint256)": {
        "details": "See {IERC721-getApproved}."
      },
      "isApprovedForAll(address,address)": {
        "details": "See {IERC721-isApprovedForAll}."
      },
      "name()": {
        "details": "See {IERC721Metadata-name}."
      },
      "owner()": {
        "details": "Returns the address of the current owner."
      },
      "ownerOf(uint256)": {
        "details": "See {IERC721-ownerOf}."
      },
      "renounceOwnership()": {
        "details": "Leaves the contract without owner. It will not be possible to call `onlyOwner` functions anymore. Can only be called by the current owner. NOTE: Renouncing ownership will leave the contract without an owner, thereby removing any functionality that is only available to the owner."
      },
      "safeTransferFrom(address,address,uint256)": {
        "details": "See {IERC721-safeTransferFrom}."
      },
      "safeTransferFrom(address,address,uint256,bytes)": {
        "details": "See {IERC721-safeTransferFrom}."
      },
      "setApprovalForAll(address,bool)": {
        "details": "See {IERC721-setApprovalForAll}."
      },
      "supportsInterface(bytes4)": {
        "details": "See {IERC165-supportsInterface}."
      },
      "symbol()": {
        "details": "See {IERC721Metadata-symbol}."
      },
      "tokenURI(uint256)": {
        "details": "See {IERC721Metadata-tokenURI}."
      },
      "transferFrom(address,address,uint256)": {
        "details": "See {IERC721-transferFrom}."
      },
      "transferOwnership(address)": {
        "details": "Transfers ownership of the contract to a new account (`newOwner`). Can only be called by the current owner."
      }
    },
    "version": 1
  },
  "userdoc": {
    "kind": "user",
    "methods": {},
    "version": 1
  },
  "storageLayout": {
    "storage": [
      {
        "astId": 138,
        "contract": "contracts/BCChars.sol:BCChars",
        "label": "_name",
        "offset": 0,
        "slot": "0",
        "type": "t_string_storage"
      },
      {
        "astId": 140,
        "contract": "contracts/BCChars.sol:BCChars",
        "label": "_symbol",
        "offset": 0,
        "slot": "1",
        "type": "t_string_storage"
      },
      {
        "astId": 144,
        "contract": "contracts/BCChars.sol:BCChars",
        "label": "_owners",
        "offset": 0,
        "slot": "2",
        "type": "t_mapping(t_uint256,t_address)"
      },
      {
        "astId": 148,
        "contract": "contracts/BCChars.sol:BCChars",
        "label": "_balances",
        "offset": 0,
        "slot": "3",
        "type": "t_mapping(t_address,t_uint256)"
      },
      {
        "astId": 152,
        "contract": "contracts/BCChars.sol:BCChars",
        "label": "_tokenApprovals",
        "offset": 0,
        "slot": "4",
        "type": "t_mapping(t_uint256,t_address)"
      },
      {
        "astId": 158,
        "contract": "contracts/BCChars.sol:BCChars",
        "label": "_operatorApprovals",
        "offset": 0,
        "slot": "5",
        "type": "t_mapping(t_address,t_mapping(t_address,t_bool))"
      },
      {
        "astId": 1126,
        "contract": "contracts/BCChars.sol:BCChars",
        "label": "_tokenURIs",
        "offset": 0,
        "slot": "6",
        "type": "t_mapping(t_uint256,t_string_storage)"
      },
      {
        "astId": 7,
        "contract": "contracts/BCChars.sol:BCChars",
        "label": "_owner",
        "offset": 0,
        "slot": "7",
        "type": "t_address"
      },
      {
        "astId": 6313,
        "contract": "contracts/BCChars.sol:BCChars",
        "label": "TODO_randomSeed",
        "offset": 0,
        "slot": "8",
        "type": "t_uint256"
      },
      {
        "astId": 1943,
        "contract": "contracts/BCChars.sol:BCChars",
        "label": "lobbies",
        "offset": 0,
        "slot": "9",
        "type": "t_contract(LobbyInterface)1934"
      },
      {
        "astId": 1965,
        "contract": "contracts/BCChars.sol:BCChars",
        "label": "gamesContract",
        "offset": 0,
        "slot": "10",
        "type": "t_address"
      },
      {
        "astId": 1972,
        "contract": "contracts/BCChars.sol:BCChars",
        "label": "enlistCost",
        "offset": 0,
        "slot": "11",
        "type": "t_uint256"
      },
      {
        "astId": 1979,
        "contract": "contracts/BCChars.sol:BCChars",
        "label": "mintCost",
        "offset": 0,
        "slot": "12",
        "type": "t_uint256"
      },
      {
        "astId": 1982,
        "contract": "contracts/BCChars.sol:BCChars",
        "label": "mintIsActive",
        "offset": 0,
        "slot": "13",
        "type": "t_bool"
      },
      {
        "astId": 1985,
        "contract": "contracts/BCChars.sol:BCChars",
        "label": "healthCap",
        "offset": 1,
        "slot": "13",
        "type": "t_uint8"
      },
      {
        "astId": 1988,
        "contract": "contracts/BCChars.sol:BCChars",
        "label": "carryCap",
        "offset": 2,
        "slot": "13",
        "type": "t_uint8"
      },
      {
        "astId": 1991,
        "contract": "contracts/BCChars.sol:BCChars",
        "label": "defenseCap",
        "offset": 3,
        "slot": "13",
        "type": "t_uint8"
      },
      {
        "astId": 1994,
        "contract": "contracts/BCChars.sol:BCChars",
        "label": "hackCap",
        "offset": 4,
        "slot": "13",
        "type": "t_uint8"
      },
      {
        "astId": 1997,
        "contract": "contracts/BCChars.sol:BCChars",
        "label": "breachCap",
        "offset": 5,
        "slot": "13",
        "type": "t_uint8"
      },
      {
        "astId": 2000,
        "contract": "contracts/BCChars.sol:BCChars",
        "label": "shootCap",
        "offset": 6,
        "slot": "13",
        "type": "t_uint8"
      },
      {
        "astId": 2003,
        "contract": "contracts/BCChars.sol:BCChars",
        "label": "meleeCap",
        "offset": 7,
        "slot": "13",
        "type": "t_uint8"
      },
      {
        "astId": 2006,
        "contract": "contracts/BCChars.sol:BCChars",
        "label": "maxClonesCap",
        "offset": 8,
        "slot": "13",
        "type": "t_uint8"
      },
      {
        "astId": 2009,
        "contract": "contracts/BCChars.sol:BCChars",
        "label": "abilityCap",
        "offset": 9,
        "slot": "13",
        "type": "t_uint8"
      },
      {
        "astId": 2012,
        "contract": "contracts/BCChars.sol:BCChars",
        "label": "flawCap",
        "offset": 10,
        "slot": "13",
        "type": "t_uint8"
      },
      {
        "astId": 2016,
        "contract": "contracts/BCChars.sol:BCChars",
        "label": "characters",
        "offset": 0,
        "slot": "14",
        "type": "t_array(t_struct(Character)6305_storage)dyn_storage"
      }
    ],
    "types": {
      "t_address": {
        "encoding": "inplace",
        "label": "address",
        "numberOfBytes": "20"
      },
      "t_array(t_struct(Character)6305_storage)dyn_storage": {
        "base": "t_struct(Character)6305_storage",
        "encoding": "dynamic_array",
        "label": "struct BCTypes.Character[]",
        "numberOfBytes": "32"
      },
      "t_bool": {
        "encoding": "inplace",
        "label": "bool",
        "numberOfBytes": "1"
      },
      "t_bytes32": {
        "encoding": "inplace",
        "label": "bytes32",
        "numberOfBytes": "32"
      },
      "t_contract(LobbyInterface)1934": {
        "encoding": "inplace",
        "label": "contract LobbyInterface",
        "numberOfBytes": "20"
      },
      "t_mapping(t_address,t_bool)": {
        "encoding": "mapping",
        "key": "t_address",
        "label": "mapping(address => bool)",
        "numberOfBytes": "32",
        "value": "t_bool"
      },
      "t_mapping(t_address,t_mapping(t_address,t_bool))": {
        "encoding": "mapping",
        "key": "t_address",
        "label": "mapping(address => mapping(address => bool))",
        "numberOfBytes": "32",
        "value": "t_mapping(t_address,t_bool)"
      },
      "t_mapping(t_address,t_uint256)": {
        "encoding": "mapping",
        "key": "t_address",
        "label": "mapping(address => uint256)",
        "numberOfBytes": "32",
        "value": "t_uint256"
      },
      "t_mapping(t_uint256,t_address)": {
        "encoding": "mapping",
        "key": "t_uint256",
        "label": "mapping(uint256 => address)",
        "numberOfBytes": "32",
        "value": "t_address"
      },
      "t_mapping(t_uint256,t_string_storage)": {
        "encoding": "mapping",
        "key": "t_uint256",
        "label": "mapping(uint256 => string)",
        "numberOfBytes": "32",
        "value": "t_string_storage"
      },
      "t_string_storage": {
        "encoding": "bytes",
        "label": "string",
        "numberOfBytes": "32"
      },
      "t_struct(Character)6305_storage": {
        "encoding": "inplace",
        "label": "struct BCTypes.Character",
        "members": [
          {
            "astId": 6293,
            "contract": "contracts/BCChars.sol:BCChars",
            "label": "genHash",
            "offset": 0,
            "slot": "0",
            "type": "t_bytes32"
          },
          {
            "astId": 6296,
            "contract": "contracts/BCChars.sol:BCChars",
            "label": "traits",
            "offset": 0,
            "slot": "1",
            "type": "t_struct(Traits)6291_storage"
          },
          {
            "astId": 6298,
            "contract": "contracts/BCChars.sol:BCChars",
            "label": "cloneNumber",
            "offset": 0,
            "slot": "2",
            "type": "t_uint8"
          },
          {
            "astId": 6300,
            "contract": "contracts/BCChars.sol:BCChars",
            "label": "maxClones",
            "offset": 1,
            "slot": "2",
            "type": "t_uint8"
          },
          {
            "astId": 6302,
            "contract": "contracts/BCChars.sol:BCChars",
            "label": "ability",
            "offset": 2,
            "slot": "2",
            "type": "t_uint8"
          },
          {
            "astId": 6304,
            "contract": "contracts/BCChars.sol:BCChars",
            "label": "flaw",
            "offset": 3,
            "slot": "2",
            "type": "t_uint8"
          }
        ],
        "numberOfBytes": "96"
      },
      "t_struct(Traits)6291_storage": {
        "encoding": "inplace",
        "label": "struct BCTypes.Traits",
        "members": [
          {
            "astId": 6278,
            "contract": "contracts/BCChars.sol:BCChars",
            "label": "health",
            "offset": 0,
            "slot": "0",
            "type": "t_uint8"
          },
          {
            "astId": 6280,
            "contract": "contracts/BCChars.sol:BCChars",
            "label": "carry",
            "offset": 1,
            "slot": "0",
            "type": "t_uint8"
          },
          {
            "astId": 6282,
            "contract": "contracts/BCChars.sol:BCChars",
            "label": "defense",
            "offset": 2,
            "slot": "0",
            "type": "t_uint8"
          },
          {
            "astId": 6284,
            "contract": "contracts/BCChars.sol:BCChars",
            "label": "hack",
            "offset": 3,
            "slot": "0",
            "type": "t_uint8"
          },
          {
            "astId": 6286,
            "contract": "contracts/BCChars.sol:BCChars",
            "label": "breach",
            "offset": 4,
            "slot": "0",
            "type": "t_uint8"
          },
          {
            "astId": 6288,
            "contract": "contracts/BCChars.sol:BCChars",
            "label": "shoot",
            "offset": 5,
            "slot": "0",
            "type": "t_uint8"
          },
          {
            "astId": 6290,
            "contract": "contracts/BCChars.sol:BCChars",
            "label": "melee",
            "offset": 6,
            "slot": "0",
            "type": "t_uint8"
          }
        ],
        "numberOfBytes": "32"
      },
      "t_uint256": {
        "encoding": "inplace",
        "label": "uint256",
        "numberOfBytes": "32"
      },
      "t_uint8": {
        "encoding": "inplace",
        "label": "uint8",
        "numberOfBytes": "1"
      }
    }
  }
}