{
  "address": "0xa39756bC1a77D3d5c4F3a89231e609d3be8183bb",
  "abi": [
    {
      "inputs": [],
      "stateMutability": "nonpayable",
      "type": "constructor"
    },
    {
      "anonymous": false,
      "inputs": [
        {
          "indexed": true,
          "internalType": "address",
          "name": "owner",
          "type": "address"
        },
        {
          "indexed": true,
          "internalType": "address",
          "name": "approved",
          "type": "address"
        },
        {
          "indexed": true,
          "internalType": "uint256",
          "name": "tokenId",
          "type": "uint256"
        }
      ],
      "name": "Approval",
      "type": "event"
    },
    {
      "anonymous": false,
      "inputs": [
        {
          "indexed": true,
          "internalType": "address",
          "name": "owner",
          "type": "address"
        },
        {
          "indexed": true,
          "internalType": "address",
          "name": "operator",
          "type": "address"
        },
        {
          "indexed": false,
          "internalType": "bool",
          "name": "approved",
          "type": "bool"
        }
      ],
      "name": "ApprovalForAll",
      "type": "event"
    },
    {
      "anonymous": false,
      "inputs": [
        {
          "indexed": true,
          "internalType": "address",
          "name": "previousOwner",
          "type": "address"
        },
        {
          "indexed": true,
          "internalType": "address",
          "name": "newOwner",
          "type": "address"
        }
      ],
      "name": "OwnershipTransferred",
      "type": "event"
    },
    {
      "anonymous": false,
      "inputs": [
        {
          "indexed": true,
          "internalType": "address",
          "name": "from",
          "type": "address"
        },
        {
          "indexed": true,
          "internalType": "address",
          "name": "to",
          "type": "address"
        },
        {
          "indexed": true,
          "internalType": "uint256",
          "name": "tokenId",
          "type": "uint256"
        }
      ],
      "name": "Transfer",
      "type": "event"
    },
    {
      "inputs": [
        {
          "internalType": "int256",
          "name": "x",
          "type": "int256"
        }
      ],
      "name": "abs",
      "outputs": [
        {
          "internalType": "int256",
          "name": "",
          "type": "int256"
        }
      ],
      "stateMutability": "pure",
      "type": "function"
    },
    {
      "inputs": [
        {
          "internalType": "address",
          "name": "to",
          "type": "address"
        },
        {
          "internalType": "uint256",
          "name": "tokenId",
          "type": "uint256"
        }
      ],
      "name": "approve",
      "outputs": [],
      "stateMutability": "nonpayable",
      "type": "function"
    },
    {
      "inputs": [
        {
          "internalType": "address",
          "name": "owner",
          "type": "address"
        }
      ],
      "name": "balanceOf",
      "outputs": [
        {
          "internalType": "uint256",
          "name": "",
          "type": "uint256"
        }
      ],
      "stateMutability": "view",
      "type": "function"
    },
    {
      "inputs": [],
      "name": "breachCap",
      "outputs": [
        {
          "internalType": "uint8",
          "name": "",
          "type": "uint8"
        }
      ],
      "stateMutability": "view",
      "type": "function"
    },
    {
      "inputs": [],
      "name": "carryCap",
      "outputs": [
        {
          "internalType": "uint8",
          "name": "",
          "type": "uint8"
        }
      ],
      "stateMutability": "view",
      "type": "function"
    },
    {
      "inputs": [
        {
          "internalType": "uint256",
          "name": "",
          "type": "uint256"
        }
      ],
      "name": "characters",
      "outputs": [
        {
          "internalType": "bytes32",
          "name": "genHash",
          "type": "bytes32"
        },
        {
          "components": [
            {
              "internalType": "uint8",
              "name": "health",
              "type": "uint8"
            },
            {
              "internalType": "uint8",
              "name": "carry",
              "type": "uint8"
            },
            {
              "internalType": "uint8",
              "name": "defense",
              "type": "uint8"
            },
            {
              "internalType": "uint8",
              "name": "hack",
              "type": "uint8"
            },
            {
              "internalType": "uint8",
              "name": "breach",
              "type": "uint8"
            },
            {
              "internalType": "uint8",
              "name": "shoot",
              "type": "uint8"
            },
            {
              "internalType": "uint8",
              "name": "melee",
              "type": "uint8"
            }
          ],
          "internalType": "struct BCTypes.Traits",
          "name": "traits",
          "type": "tuple"
        },
        {
          "internalType": "uint8",
          "name": "cloneNumber",
          "type": "uint8"
        },
        {
          "internalType": "uint8",
          "name": "maxClones",
          "type": "uint8"
        },
        {
          "internalType": "uint8",
          "name": "ability",
          "type": "uint8"
        },
        {
          "internalType": "uint8",
          "name": "flaw",
          "type": "uint8"
        },
        {
          "internalType": "bool",
          "name": "inGame",
          "type": "bool"
        },
        {
          "internalType": "bool",
          "name": "dead",
          "type": "bool"
        }
      ],
      "stateMutability": "view",
      "type": "function"
    },
    {
      "inputs": [],
      "name": "decantMax",
      "outputs": [
        {
          "internalType": "uint8",
          "name": "",
          "type": "uint8"
        }
      ],
      "stateMutability": "view",
      "type": "function"
    },
    {
      "inputs": [],
      "name": "decantMin",
      "outputs": [
        {
          "internalType": "uint8",
          "name": "",
          "type": "uint8"
        }
      ],
      "stateMutability": "view",
      "type": "function"
    },
    {
      "inputs": [],
      "name": "decantNewClone",
      "outputs": [],
      "stateMutability": "payable",
      "type": "function"
    },
    {
      "inputs": [],
      "name": "defenseCap",
      "outputs": [
        {
          "internalType": "uint8",
          "name": "",
          "type": "uint8"
        }
      ],
      "stateMutability": "view",
      "type": "function"
    },
    {
      "inputs": [],
      "name": "gamesContract",
      "outputs": [
        {
          "internalType": "address",
          "name": "",
          "type": "address"
        }
      ],
      "stateMutability": "view",
      "type": "function"
    },
    {
      "inputs": [
        {
          "internalType": "uint256",
          "name": "tokenId",
          "type": "uint256"
        }
      ],
      "name": "getApproved",
      "outputs": [
        {
          "internalType": "address",
          "name": "",
          "type": "address"
        }
      ],
      "stateMutability": "view",
      "type": "function"
    },
    {
      "inputs": [
        {
          "components": [
            {
              "internalType": "uint8",
              "name": "row",
              "type": "uint8"
            },
            {
              "internalType": "uint8",
              "name": "col",
              "type": "uint8"
            }
          ],
          "internalType": "struct BCTypes.Position",
          "name": "_firstRoom",
          "type": "tuple"
        },
        {
          "components": [
            {
              "internalType": "uint8",
              "name": "row",
              "type": "uint8"
            },
            {
              "internalType": "uint8",
              "name": "col",
              "type": "uint8"
            }
          ],
          "internalType": "struct BCTypes.Position",
          "name": "_secondRoom",
          "type": "tuple"
        }
      ],
      "name": "getDirectionBetween",
      "outputs": [
        {
          "internalType": "uint256",
          "name": "",
          "type": "uint256"
        }
      ],
      "stateMutability": "pure",
      "type": "function"
    },
    {
      "inputs": [
        {
          "internalType": "uint256",
          "name": "_direction",
          "type": "uint256"
        },
        {
          "components": [
            {
              "internalType": "uint8",
              "name": "row",
              "type": "uint8"
            },
            {
              "internalType": "uint8",
              "name": "col",
              "type": "uint8"
            }
          ],
          "internalType": "struct BCTypes.Position",
          "name": "_start",
          "type": "tuple"
        }
      ],
      "name": "getNeighborRoom",
      "outputs": [
        {
          "components": [
            {
              "internalType": "uint8",
              "name": "row",
              "type": "uint8"
            },
            {
              "internalType": "uint8",
              "name": "col",
              "type": "uint8"
            }
          ],
          "internalType": "struct BCTypes.Position",
          "name": "",
          "type": "tuple"
        }
      ],
      "stateMutability": "pure",
      "type": "function"
    },
    {
      "inputs": [
        {
          "internalType": "uint256",
          "name": "_traitNum",
          "type": "uint256"
        },
        {
          "internalType": "uint256",
          "name": "_subTraitNum",
          "type": "uint256"
        }
      ],
      "name": "getUIOffset",
      "outputs": [
        {
          "internalType": "uint256",
          "name": "",
          "type": "uint256"
        }
      ],
      "stateMutability": "pure",
      "type": "function"
    },
    {
      "inputs": [],
      "name": "hackCap",
      "outputs": [
        {
          "internalType": "uint8",
          "name": "",
          "type": "uint8"
        }
      ],
      "stateMutability": "view",
      "type": "function"
    },
    {
      "inputs": [],
      "name": "healthCap",
      "outputs": [
        {
          "internalType": "uint8",
          "name": "",
          "type": "uint8"
        }
      ],
      "stateMutability": "view",
      "type": "function"
    },
    {
      "inputs": [
        {
          "internalType": "address",
          "name": "owner",
          "type": "address"
        },
        {
          "internalType": "address",
          "name": "operator",
          "type": "address"
        }
      ],
      "name": "isApprovedForAll",
      "outputs": [
        {
          "internalType": "bool",
          "name": "",
          "type": "bool"
        }
      ],
      "stateMutability": "view",
      "type": "function"
    },
    {
      "inputs": [],
      "name": "maxClonesCap",
      "outputs": [
        {
          "internalType": "uint8",
          "name": "",
          "type": "uint8"
        }
      ],
      "stateMutability": "view",
      "type": "function"
    },
    {
      "inputs": [],
      "name": "meleeCap",
      "outputs": [
        {
          "internalType": "uint8",
          "name": "",
          "type": "uint8"
        }
      ],
      "stateMutability": "view",
      "type": "function"
    },
    {
      "inputs": [],
      "name": "mintCost",
      "outputs": [
        {
          "internalType": "uint256",
          "name": "",
          "type": "uint256"
        }
      ],
      "stateMutability": "view",
      "type": "function"
    },
    {
      "inputs": [],
      "name": "mintIsActive",
      "outputs": [
        {
          "internalType": "bool",
          "name": "",
          "type": "bool"
        }
      ],
      "stateMutability": "view",
      "type": "function"
    },
    {
      "inputs": [],
      "name": "name",
      "outputs": [
        {
          "internalType": "string",
          "name": "",
          "type": "string"
        }
      ],
      "stateMutability": "view",
      "type": "function"
    },
    {
      "inputs": [
        {
          "internalType": "uint256",
          "name": "_min",
          "type": "uint256"
        },
        {
          "internalType": "uint256",
          "name": "_max",
          "type": "uint256"
        },
        {
          "internalType": "uint256",
          "name": "_val",
          "type": "uint256"
        },
        {
          "internalType": "uint256",
          "name": "_valMax",
          "type": "uint256"
        }
      ],
      "name": "normalizeToSmallRange",
      "outputs": [
        {
          "internalType": "uint8",
          "name": "",
          "type": "uint8"
        }
      ],
      "stateMutability": "pure",
      "type": "function"
    },
    {
      "inputs": [],
      "name": "owner",
      "outputs": [
        {
          "internalType": "address",
          "name": "",
          "type": "address"
        }
      ],
      "stateMutability": "view",
      "type": "function"
    },
    {
      "inputs": [
        {
          "internalType": "uint256",
          "name": "tokenId",
          "type": "uint256"
        }
      ],
      "name": "ownerOf",
      "outputs": [
        {
          "internalType": "address",
          "name": "",
          "type": "address"
        }
      ],
      "stateMutability": "view",
      "type": "function"
    },
    {
      "inputs": [],
      "name": "randKeccak",
      "outputs": [
        {
          "internalType": "bytes32",
          "name": "",
          "type": "bytes32"
        }
      ],
      "stateMutability": "nonpayable",
      "type": "function"
    },
    {
      "inputs": [],
      "name": "renounceOwnership",
      "outputs": [],
      "stateMutability": "nonpayable",
      "type": "function"
    },
    {
      "inputs": [],
      "name": "roll",
      "outputs": [
        {
          "internalType": "uint256",
          "name": "",
          "type": "uint256"
        }
      ],
      "stateMutability": "nonpayable",
      "type": "function"
    },
    {
      "inputs": [
        {
          "internalType": "address",
          "name": "from",
          "type": "address"
        },
        {
          "internalType": "address",
          "name": "to",
          "type": "address"
        },
        {
          "internalType": "uint256",
          "name": "tokenId",
          "type": "uint256"
        }
      ],
      "name": "safeTransferFrom",
      "outputs": [],
      "stateMutability": "nonpayable",
      "type": "function"
    },
    {
      "inputs": [
        {
          "internalType": "address",
          "name": "from",
          "type": "address"
        },
        {
          "internalType": "address",
          "name": "to",
          "type": "address"
        },
        {
          "internalType": "uint256",
          "name": "tokenId",
          "type": "uint256"
        },
        {
          "internalType": "bytes",
          "name": "data",
          "type": "bytes"
        }
      ],
      "name": "safeTransferFrom",
      "outputs": [],
      "stateMutability": "nonpayable",
      "type": "function"
    },
    {
      "inputs": [
        {
          "internalType": "address",
          "name": "operator",
          "type": "address"
        },
        {
          "internalType": "bool",
          "name": "approved",
          "type": "bool"
        }
      ],
      "name": "setApprovalForAll",
      "outputs": [],
      "stateMutability": "nonpayable",
      "type": "function"
    },
    {
      "inputs": [
        {
          "internalType": "address",
          "name": "_contract",
          "type": "address"
        }
      ],
      "name": "setGameContract",
      "outputs": [],
      "stateMutability": "nonpayable",
      "type": "function"
    },
    {
      "inputs": [],
      "name": "shootCap",
      "outputs": [
        {
          "internalType": "uint8",
          "name": "",
          "type": "uint8"
        }
      ],
      "stateMutability": "view",
      "type": "function"
    },
    {
      "inputs": [
        {
          "internalType": "bytes32",
          "name": "_hash",
          "type": "bytes32"
        },
        {
          "internalType": "uint256",
          "name": "_size",
          "type": "uint256"
        },
        {
          "internalType": "uint256",
          "name": "_offset",
          "type": "uint256"
        }
      ],
      "name": "sliceHashToSmallInt",
      "outputs": [
        {
          "internalType": "uint8",
          "name": "",
          "type": "uint8"
        }
      ],
      "stateMutability": "pure",
      "type": "function"
    },
    {
      "inputs": [
        {
          "internalType": "uint8",
          "name": "_min",
          "type": "uint8"
        },
        {
          "internalType": "uint8",
          "name": "_max",
          "type": "uint8"
        }
      ],
      "name": "smallIntBetweenVals",
      "outputs": [
        {
          "internalType": "uint8",
          "name": "",
          "type": "uint8"
        }
      ],
      "stateMutability": "nonpayable",
      "type": "function"
    },
    {
      "inputs": [
        {
          "internalType": "bytes4",
          "name": "interfaceId",
          "type": "bytes4"
        }
      ],
      "name": "supportsInterface",
      "outputs": [
        {
          "internalType": "bool",
          "name": "",
          "type": "bool"
        }
      ],
      "stateMutability": "view",
      "type": "function"
    },
    {
      "inputs": [],
      "name": "symbol",
      "outputs": [
        {
          "internalType": "string",
          "name": "",
          "type": "string"
        }
      ],
      "stateMutability": "view",
      "type": "function"
    },
    {
      "inputs": [
        {
          "internalType": "uint256",
          "name": "tokenId",
          "type": "uint256"
        }
      ],
      "name": "tokenURI",
      "outputs": [
        {
          "internalType": "string",
          "name": "",
          "type": "string"
        }
      ],
      "stateMutability": "view",
      "type": "function"
    },
    {
      "inputs": [
        {
          "internalType": "address",
          "name": "from",
          "type": "address"
        },
        {
          "internalType": "address",
          "name": "to",
          "type": "address"
        },
        {
          "internalType": "uint256",
          "name": "tokenId",
          "type": "uint256"
        }
      ],
      "name": "transferFrom",
      "outputs": [],
      "stateMutability": "nonpayable",
      "type": "function"
    },
    {
      "inputs": [],
      "name": "transferFundsOut",
      "outputs": [],
      "stateMutability": "nonpayable",
      "type": "function"
    },
    {
      "inputs": [
        {
          "internalType": "address",
          "name": "newOwner",
          "type": "address"
        }
      ],
      "name": "transferOwnership",
      "outputs": [],
      "stateMutability": "nonpayable",
      "type": "function"
    }
  ],
  "transactionHash": "0xd2db69950a1a4ca969af9a76b1203a61ecac87f882f287449c67605ff93fa06e",
  "args": [],
  "numDeployments": 7,
  "solcInputHash": "a048cf68bfae6cce592c7168acc11086",
  "bytecode": "0x60806040526000600855662386f26fc10000600a556001600b60006101000a81548160ff0219169083151502179055506004600b60016101000a81548160ff021916908360ff1602179055506005600b60026101000a81548160ff021916908360ff1602179055506004600b60036101000a81548160ff021916908360ff1602179055506004600b60046101000a81548160ff021916908360ff1602179055506004600b60056101000a81548160ff021916908360ff1602179055506004600b60066101000a81548160ff021916908360ff1602179055506004600b60076101000a81548160ff021916908360ff1602179055506064600b60086101000a81548160ff021916908360ff160217905550600a600b60096101000a81548160ff021916908360ff160217905550600a600b600a6101000a81548160ff021916908360ff1602179055506003600b806101000a81548160ff021916908360ff160217905550600a600b600c6101000a81548160ff021916908360ff1602179055503480156200018b57600080fd5b506040518060400160405280601681526020017f426c61636b20436f6d65742043686172616374657273000000000000000000008152506040518060400160405280600381526020017f424343000000000000000000000000000000000000000000000000000000000081525081600090805190602001906200021092919062000320565b5080600190805190602001906200022992919062000320565b5050506200024c620002406200025260201b60201c565b6200025a60201b60201c565b62000435565b600033905090565b6000600760009054906101000a900473ffffffffffffffffffffffffffffffffffffffff16905081600760006101000a81548173ffffffffffffffffffffffffffffffffffffffff021916908373ffffffffffffffffffffffffffffffffffffffff1602179055508173ffffffffffffffffffffffffffffffffffffffff168173ffffffffffffffffffffffffffffffffffffffff167f8be0079c531659141344cd1fd0a4f28419497f9722a3daafe3b4186f6b6457e060405160405180910390a35050565b8280546200032e90620003ff565b90600052602060002090601f0160209004810192826200035257600085556200039e565b82601f106200036d57805160ff19168380011785556200039e565b828001600101855582156200039e579182015b828111156200039d57825182559160200191906001019062000380565b5b509050620003ad9190620003b1565b5090565b5b80821115620003cc576000816000905550600101620003b2565b5090565b7f4e487b7100000000000000000000000000000000000000000000000000000000600052602260045260246000fd5b600060028204905060018216806200041857607f821691505b602082108114156200042f576200042e620003d0565b5b50919050565b61481d80620004456000396000f3fe6080604052600436106102515760003560e01c8063689b707111610139578063b88d4fde116100b6578063cbfb23881161007a578063cbfb2388146108da578063cd5e3c5d14610905578063ce28613f14610930578063e985e9c51461096d578063f2fde38b146109aa578063fa3993c2146109d357610251565b8063b88d4fde14610814578063b926be2a1461083d578063ba1ee7cf14610868578063bdb4b84814610872578063c87b56dd1461089d57610251565b80638da5cb5b116100fd5780638da5cb5b1461071b578063951fc3fe1461074657806395d89b411461078357806397f34c3f146107ae578063a22cb465146107eb57610251565b8063689b7071146106465780636963c5681461067157806370a082311461069c578063715018a6146106d9578063733882b7146106f057610251565b8063405ebd4d116101d257806350254a851161019657806350254a851461050e57806353011696146105395780635ee38b2f146105765780636284ef2c146105a15780636352211e146105cc57806364db84bf1461060957610251565b8063405ebd4d1461042257806342842e0e1461044b57806345de18b814610474578063471a42941461049f5780634810bc59146104ca57610251565b80631b5ac4b5116102195780631b5ac4b51461034f5780631e1de2051461038c57806323b872dd146103b75780633838aed1146103e057806339a54a30146103f757610251565b806301ffc9a71461025657806306fdde0314610293578063081812fc146102be578063095ea7b3146102fb578063154fa27a14610324575b600080fd5b34801561026257600080fd5b5061027d60048036038101906102789190612e13565b610a10565b60405161028a9190612e5b565b60405180910390f35b34801561029f57600080fd5b506102a8610af2565b6040516102b59190612f0f565b60405180910390f35b3480156102ca57600080fd5b506102e560048036038101906102e09190612f67565b610b84565b6040516102f29190612fd5565b60405180910390f35b34801561030757600080fd5b50610322600480360381019061031d919061301c565b610bca565b005b34801561033057600080fd5b50610339610ce2565b6040516103469190612fd5565b60405180910390f35b34801561035b57600080fd5b5061037660048036038101906103719190613092565b610d08565b60405161038391906130ce565b60405180910390f35b34801561039857600080fd5b506103a1610d2a565b6040516103ae9190613102565b60405180910390f35b3480156103c357600080fd5b506103de60048036038101906103d9919061311d565b610d76565b005b3480156103ec57600080fd5b506103f5610dd6565b005b34801561040357600080fd5b5061040c610e2e565b604051610419919061318c565b60405180910390f35b34801561042e57600080fd5b50610449600480360381019061044491906131a7565b610e41565b005b34801561045757600080fd5b50610472600480360381019061046d919061311d565b610e8d565b005b34801561048057600080fd5b50610489610ead565b604051610496919061318c565b60405180910390f35b3480156104ab57600080fd5b506104b4610ec0565b6040516104c19190612e5b565b60405180910390f35b3480156104d657600080fd5b506104f160048036038101906104ec9190612f67565b610ed3565b604051610505989796959493929190613271565b60405180910390f35b34801561051a57600080fd5b5061052361104e565b604051610530919061318c565b60405180910390f35b34801561054557600080fd5b50610560600480360381019061055b91906132f5565b611061565b60405161056d919061318c565b60405180910390f35b34801561058257600080fd5b5061058b6110a5565b604051610598919061318c565b60405180910390f35b3480156105ad57600080fd5b506105b66110b8565b6040516105c3919061318c565b60405180910390f35b3480156105d857600080fd5b506105f360048036038101906105ee9190612f67565b6110cb565b6040516106009190612fd5565b60405180910390f35b34801561061557600080fd5b50610630600480360381019061062b919061335c565b61117d565b60405161063d91906133ab565b60405180910390f35b34801561065257600080fd5b5061065b61119f565b604051610668919061318c565b60405180910390f35b34801561067d57600080fd5b506106866111b0565b604051610693919061318c565b60405180910390f35b3480156106a857600080fd5b506106c360048036038101906106be91906131a7565b6111c3565b6040516106d091906133ab565b60405180910390f35b3480156106e557600080fd5b506106ee61127b565b005b3480156106fc57600080fd5b5061070561128f565b604051610712919061318c565b60405180910390f35b34801561072757600080fd5b506107306112a2565b60405161073d9190612fd5565b60405180910390f35b34801561075257600080fd5b5061076d600480360381019061076891906134c2565b6112cc565b60405161077a9190613531565b60405180910390f35b34801561078f57600080fd5b50610798611411565b6040516107a59190612f0f565b60405180910390f35b3480156107ba57600080fd5b506107d560048036038101906107d09190613578565b6114a3565b6040516107e2919061318c565b60405180910390f35b3480156107f757600080fd5b50610812600480360381019061080d91906135f7565b6114da565b005b34801561082057600080fd5b5061083b600480360381019061083691906136f1565b6114f0565b005b34801561084957600080fd5b50610852611552565b60405161085f919061318c565b60405180910390f35b610870611565565b005b34801561087e57600080fd5b50610887611ba8565b60405161089491906133ab565b60405180910390f35b3480156108a957600080fd5b506108c460048036038101906108bf9190612f67565b611bae565b6040516108d19190612f0f565b60405180910390f35b3480156108e657600080fd5b506108ef611cc1565b6040516108fc919061318c565b60405180910390f35b34801561091157600080fd5b5061091a611cd4565b60405161092791906133ab565b60405180910390f35b34801561093c57600080fd5b5061095760048036038101906109529190613774565b611cea565b604051610964919061318c565b60405180910390f35b34801561097957600080fd5b50610994600480360381019061098f91906137b4565b611d7b565b6040516109a19190612e5b565b60405180910390f35b3480156109b657600080fd5b506109d160048036038101906109cc91906131a7565b611e0f565b005b3480156109df57600080fd5b506109fa60048036038101906109f591906137f4565b611e93565b604051610a0791906133ab565b60405180910390f35b60007f80ac58cd000000000000000000000000000000000000000000000000000000007bffffffffffffffffffffffffffffffffffffffffffffffffffffffff1916827bffffffffffffffffffffffffffffffffffffffffffffffffffffffff19161480610adb57507f5b5e139f000000000000000000000000000000000000000000000000000000007bffffffffffffffffffffffffffffffffffffffffffffffffffffffff1916827bffffffffffffffffffffffffffffffffffffffffffffffffffffffff1916145b80610aeb5750610aea82611fb4565b5b9050919050565b606060008054610b0190613863565b80601f0160208091040260200160405190810160405280929190818152602001828054610b2d90613863565b8015610b7a5780601f10610b4f57610100808354040283529160200191610b7a565b820191906000526020600020905b815481529060010190602001808311610b5d57829003601f168201915b5050505050905090565b6000610b8f8261201e565b6004600083815260200190815260200160002060009054906101000a900473ffffffffffffffffffffffffffffffffffffffff169050919050565b6000610bd5826110cb565b90508073ffffffffffffffffffffffffffffffffffffffff168373ffffffffffffffffffffffffffffffffffffffff161415610c46576040517f08c379a0000000000000000000000000000000000000000000000000000000008152600401610c3d90613907565b60405180910390fd5b8073ffffffffffffffffffffffffffffffffffffffff16610c65612069565b73ffffffffffffffffffffffffffffffffffffffff161480610c945750610c9381610c8e612069565b611d7b565b5b610cd3576040517f08c379a0000000000000000000000000000000000000000000000000000000008152600401610cca90613999565b60405180910390fd5b610cdd8383612071565b505050565b600960009054906101000a900473ffffffffffffffffffffffffffffffffffffffff1681565b600080821215610d215781610d1c906139e8565b610d23565b815b9050919050565b600060086000815480929190610d3f90613a31565b91905055506008544233604051602001610d5b93929190613ae3565b60405160208183030381529060405280519060200120905090565b610d87610d81612069565b8261212a565b610dc6576040517f08c379a0000000000000000000000000000000000000000000000000000000008152600401610dbd90613b92565b60405180910390fd5b610dd18383836121bf565b505050565b610dde612426565b610de66112a2565b73ffffffffffffffffffffffffffffffffffffffff166108fc479081150290604051600060405180830381858888f19350505050158015610e2b573d6000803e3d6000fd5b50565b600b60049054906101000a900460ff1681565b610e49612426565b80600960006101000a81548173ffffffffffffffffffffffffffffffffffffffff021916908373ffffffffffffffffffffffffffffffffffffffff16021790555050565b610ea8838383604051806020016040528060008152506114f0565b505050565b600b60079054906101000a900460ff1681565b600b60009054906101000a900460ff1681565b600c8181548110610ee357600080fd5b9060005260206000209060030201600091509050806000015490806001016040518060e00160405290816000820160009054906101000a900460ff1660ff1660ff1681526020016000820160019054906101000a900460ff1660ff1660ff1681526020016000820160029054906101000a900460ff1660ff1660ff1681526020016000820160039054906101000a900460ff1660ff1660ff1681526020016000820160049054906101000a900460ff1660ff1660ff1681526020016000820160059054906101000a900460ff1660ff1660ff1681526020016000820160069054906101000a900460ff1660ff1660ff1681525050908060020160009054906101000a900460ff16908060020160019054906101000a900460ff16908060020160029054906101000a900460ff16908060020160039054906101000a900460ff16908060020160049054906101000a900460ff16908060020160059054906101000a900460ff16905088565b600b600c9054906101000a900460ff1681565b60008085856110709190613bb2565b905060008385836110819190613be6565b61108b9190613c6f565b905086816110999190613ca0565b92505050949350505050565b600b60089054906101000a900460ff1681565b600b60039054906101000a900460ff1681565b6000806002600084815260200190815260200160002060009054906101000a900473ffffffffffffffffffffffffffffffffffffffff169050600073ffffffffffffffffffffffffffffffffffffffff168173ffffffffffffffffffffffffffffffffffffffff161415611174576040517f08c379a000000000000000000000000000000000000000000000000000000000815260040161116b90613d42565b60405180910390fd5b80915050919050565b60008183600461118d9190613be6565b6111979190613ca0565b905092915050565b600b8054906101000a900460ff1681565b600b60029054906101000a900460ff1681565b60008073ffffffffffffffffffffffffffffffffffffffff168273ffffffffffffffffffffffffffffffffffffffff161415611234576040517f08c379a000000000000000000000000000000000000000000000000000000000815260040161122b90613dd4565b60405180910390fd5b600360008373ffffffffffffffffffffffffffffffffffffffff1673ffffffffffffffffffffffffffffffffffffffff168152602001908152602001600020549050919050565b611283612426565b61128d60006124a4565b565b600b60069054906101000a900460ff1681565b6000600760009054906101000a900473ffffffffffffffffffffffffffffffffffffffff16905090565b6112d4612d87565b6000831415611313576040518060400160405280600184600001516112f99190613df4565b60ff168152602001836020015160ff16815250905061140b565b6001831415611352576040518060400160405280600184600001516113389190613e28565b60ff168152602001836020015160ff16815250905061140b565b6002831415611391576040518060400160405280836000015160ff168152602001600184602001516113849190613e28565b60ff16815250905061140b565b60038314156113d0576040518060400160405280836000015160ff168152602001600184602001516113c39190613df4565b60ff16815250905061140b565b6040517f08c379a000000000000000000000000000000000000000000000000000000000815260040161140290613eab565b60405180910390fd5b92915050565b60606001805461142090613863565b80601f016020809104026020016040519081016040528092919081815260200182805461144c90613863565b80156114995780601f1061146e57610100808354040283529160200191611499565b820191906000526020600020905b81548152906001019060200180831161147c57829003601f168201915b5050505050905090565b6000808260018560026114b69190613ffe565b6114c09190613bb2565b60001b901b905082818616901c60001c9150509392505050565b6114ec6114e5612069565b838361256a565b5050565b6115016114fb612069565b8361212a565b611540576040517f08c379a000000000000000000000000000000000000000000000000000000000815260040161153790613b92565b60405180910390fd5b61154c848484846126d7565b50505050565b600b60019054906101000a900460ff1681565b61156d6112a2565b73ffffffffffffffffffffffffffffffffffffffff163373ffffffffffffffffffffffffffffffffffffffff1614806115a75750600a5434145b6115e6576040517f08c379a00000000000000000000000000000000000000000000000000000000081526004016115dd90614095565b60405180910390fd5b6115ee6112a2565b73ffffffffffffffffffffffffffffffffffffffff163373ffffffffffffffffffffffffffffffffffffffff16148061163a575060011515600b60009054906101000a900460ff161515145b611679576040517f08c379a000000000000000000000000000000000000000000000000000000000815260040161167090614101565b60405180910390fd5b6000611683610d2a565b9050600c6040518061010001604052808381526020016040518060e001604052806116e960026001600b60019054906101000a900460ff166116c59190613e28565b60ff166116df8960046116da600c600161117d565b6114a3565b60ff16600f611061565b60ff16815260200161173660036001600b60029054906101000a900460ff166117129190613e28565b60ff1661172c896004611727600a600261117d565b6114a3565b60ff16600f611061565b60ff16815260200161178360026001600b60039054906101000a900460ff1661175f9190613e28565b60ff16611779896004611774600c600061117d565b6114a3565b60ff16600f611061565b60ff1681526020016117d060026001600b60049054906101000a900460ff166117ac9190613e28565b60ff166117c68960046117c1600d600061117d565b6114a3565b60ff16600f611061565b60ff16815260200161181d60026001600b60059054906101000a900460ff166117f99190613e28565b60ff1661181389600461180e600a600161117d565b6114a3565b60ff16600f611061565b60ff16815260200161186a60026001600b60069054906101000a900460ff166118469190613e28565b60ff1661186089600461185b600b600061117d565b6114a3565b60ff16600f611061565b60ff1681526020016118b760026001600b60079054906101000a900460ff166118939190613e28565b60ff166118ad8960046118a8600a600061117d565b6114a3565b60ff16600f611061565b60ff168152508152602001600060ff1681526020016119056000600b60089054906101000a900460ff1660ff166118fb8760086118f66003600061117d565b6114a3565b60ff1660ff611061565b60ff1681526020016119466000600b60099054906101000a900460ff1660ff1661193c8760086119376008600061117d565b6114a3565b60ff1660ff611061565b60ff1681526020016119876000600b600a9054906101000a900460ff1660ff1661197d8760086119786008600261117d565b6114a3565b60ff1660ff611061565b60ff1681526020016000151581526020016000151581525090806001815401808255809150506001900390600052602060002090600302016000909190919091506000820151816000015560208201518160010160008201518160000160006101000a81548160ff021916908360ff16021790555060208201518160000160016101000a81548160ff021916908360ff16021790555060408201518160000160026101000a81548160ff021916908360ff16021790555060608201518160000160036101000a81548160ff021916908360ff16021790555060808201518160000160046101000a81548160ff021916908360ff16021790555060a08201518160000160056101000a81548160ff021916908360ff16021790555060c08201518160000160066101000a81548160ff021916908360ff160217905550505060408201518160020160006101000a81548160ff021916908360ff16021790555060608201518160020160016101000a81548160ff021916908360ff16021790555060808201518160020160026101000a81548160ff021916908360ff16021790555060a08201518160020160036101000a81548160ff021916908360ff16021790555060c08201518160020160046101000a81548160ff02191690831515021790555060e08201518160020160056101000a81548160ff0219169083151502179055505050611ba5336001600c80549050611ba09190613bb2565b612733565b50565b600a5481565b6060611bb98261201e565b6000600660008481526020019081526020016000208054611bd990613863565b80601f0160208091040260200160405190810160405280929190818152602001828054611c0590613863565b8015611c525780601f10611c2757610100808354040283529160200191611c52565b820191906000526020600020905b815481529060010190602001808311611c3557829003601f168201915b505050505090506000611c63612751565b9050600081511415611c79578192505050611cbc565b600082511115611cae578082604051602001611c9692919061415d565b60405160208183030381529060405292505050611cbc565b611cb784612768565b925050505b919050565b600b60059054906101000a900460ff1681565b6000611ce260016006611cea565b60ff16905090565b600060086000815480929190611cff90613a31565b919050555060003360085442604051602001611d1d93929190614181565b6040516020818303038152906040528051906020012060001c9050600060018585611d489190613df4565b611d529190613e28565b90508460ff168160ff1683611d6791906141be565b611d719190613ca0565b9250505092915050565b6000600560008473ffffffffffffffffffffffffffffffffffffffff1673ffffffffffffffffffffffffffffffffffffffff16815260200190815260200160002060008373ffffffffffffffffffffffffffffffffffffffff1673ffffffffffffffffffffffffffffffffffffffff16815260200190815260200160002060009054906101000a900460ff16905092915050565b611e17612426565b600073ffffffffffffffffffffffffffffffffffffffff168173ffffffffffffffffffffffffffffffffffffffff161415611e87576040517f08c379a0000000000000000000000000000000000000000000000000000000008152600401611e7e90614261565b60405180910390fd5b611e90816124a4565b50565b6000600182600001518460000151611eab919061428e565b60000b1415611ebd5760009050611fae565b7fffffffffffffffffffffffffffffffffffffffffffffffffffffffffffffffff82600001518460000151611ef2919061428e565b60000b1415611f045760019050611fae565b7fffffffffffffffffffffffffffffffffffffffffffffffffffffffffffffffff82602001518460200151611f39919061428e565b60000b1415611f4b5760029050611fae565b600182602001518460200151611f61919061428e565b60000b1415611f735760039050611fae565b6040517f08c379a0000000000000000000000000000000000000000000000000000000008152600401611fa59061434f565b60405180910390fd5b92915050565b60007f01ffc9a7000000000000000000000000000000000000000000000000000000007bffffffffffffffffffffffffffffffffffffffffffffffffffffffff1916827bffffffffffffffffffffffffffffffffffffffffffffffffffffffff1916149050919050565b612027816127d0565b612066576040517f08c379a000000000000000000000000000000000000000000000000000000000815260040161205d90613d42565b60405180910390fd5b50565b600033905090565b816004600083815260200190815260200160002060006101000a81548173ffffffffffffffffffffffffffffffffffffffff021916908373ffffffffffffffffffffffffffffffffffffffff160217905550808273ffffffffffffffffffffffffffffffffffffffff166120e4836110cb565b73ffffffffffffffffffffffffffffffffffffffff167f8c5be1e5ebec7d5bd14f71427d1e84f3dd0314c0f7b2291e5b200ac8c7c3b92560405160405180910390a45050565b600080612136836110cb565b90508073ffffffffffffffffffffffffffffffffffffffff168473ffffffffffffffffffffffffffffffffffffffff16148061217857506121778185611d7b565b5b806121b657508373ffffffffffffffffffffffffffffffffffffffff1661219e84610b84565b73ffffffffffffffffffffffffffffffffffffffff16145b91505092915050565b8273ffffffffffffffffffffffffffffffffffffffff166121df826110cb565b73ffffffffffffffffffffffffffffffffffffffff1614612235576040517f08c379a000000000000000000000000000000000000000000000000000000000815260040161222c906143e1565b60405180910390fd5b600073ffffffffffffffffffffffffffffffffffffffff168273ffffffffffffffffffffffffffffffffffffffff1614156122a5576040517f08c379a000000000000000000000000000000000000000000000000000000000815260040161229c90614473565b60405180910390fd5b6122b083838361283c565b6122bb600082612071565b6001600360008573ffffffffffffffffffffffffffffffffffffffff1673ffffffffffffffffffffffffffffffffffffffff168152602001908152602001600020600082825461230b9190613bb2565b925050819055506001600360008473ffffffffffffffffffffffffffffffffffffffff1673ffffffffffffffffffffffffffffffffffffffff16815260200190815260200160002060008282546123629190613ca0565b92505081905550816002600083815260200190815260200160002060006101000a81548173ffffffffffffffffffffffffffffffffffffffff021916908373ffffffffffffffffffffffffffffffffffffffff160217905550808273ffffffffffffffffffffffffffffffffffffffff168473ffffffffffffffffffffffffffffffffffffffff167fddf252ad1be2c89b69c2b068fc378daa952ba7f163c4a11628f55a4df523b3ef60405160405180910390a4612421838383612841565b505050565b61242e612069565b73ffffffffffffffffffffffffffffffffffffffff1661244c6112a2565b73ffffffffffffffffffffffffffffffffffffffff16146124a2576040517f08c379a0000000000000000000000000000000000000000000000000000000008152600401612499906144df565b60405180910390fd5b565b6000600760009054906101000a900473ffffffffffffffffffffffffffffffffffffffff16905081600760006101000a81548173ffffffffffffffffffffffffffffffffffffffff021916908373ffffffffffffffffffffffffffffffffffffffff1602179055508173ffffffffffffffffffffffffffffffffffffffff168173ffffffffffffffffffffffffffffffffffffffff167f8be0079c531659141344cd1fd0a4f28419497f9722a3daafe3b4186f6b6457e060405160405180910390a35050565b8173ffffffffffffffffffffffffffffffffffffffff168373ffffffffffffffffffffffffffffffffffffffff1614156125d9576040517f08c379a00000000000000000000000000000000000000000000000000000000081526004016125d09061454b565b60405180910390fd5b80600560008573ffffffffffffffffffffffffffffffffffffffff1673ffffffffffffffffffffffffffffffffffffffff16815260200190815260200160002060008473ffffffffffffffffffffffffffffffffffffffff1673ffffffffffffffffffffffffffffffffffffffff16815260200190815260200160002060006101000a81548160ff0219169083151502179055508173ffffffffffffffffffffffffffffffffffffffff168373ffffffffffffffffffffffffffffffffffffffff167f17307eab39ab6107e8899845ad3d59bd9653f200f220920489ca2b5937696c31836040516126ca9190612e5b565b60405180910390a3505050565b6126e28484846121bf565b6126ee84848484612846565b61272d576040517f08c379a0000000000000000000000000000000000000000000000000000000008152600401612724906145dd565b60405180910390fd5b50505050565b61274d8282604051806020016040528060008152506129ce565b5050565b606060405180602001604052806000815250905090565b60606127738261201e565b600061277d612751565b9050600081511161279d57604051806020016040528060008152506127c8565b806127a784612a29565b6040516020016127b892919061415d565b6040516020818303038152906040525b915050919050565b60008073ffffffffffffffffffffffffffffffffffffffff166002600084815260200190815260200160002060009054906101000a900473ffffffffffffffffffffffffffffffffffffffff1673ffffffffffffffffffffffffffffffffffffffff1614159050919050565b505050565b505050565b60006128678473ffffffffffffffffffffffffffffffffffffffff16612b8a565b156129c1578373ffffffffffffffffffffffffffffffffffffffff1663150b7a02612890612069565b8786866040518563ffffffff1660e01b81526004016128b29493929190614652565b6020604051808303816000875af19250505080156128ee57506040513d601f19601f820116820180604052508101906128eb91906146b3565b60015b612971573d806000811461291e576040519150601f19603f3d011682016040523d82523d6000602084013e612923565b606091505b50600081511415612969576040517f08c379a0000000000000000000000000000000000000000000000000000000008152600401612960906145dd565b60405180910390fd5b805181602001fd5b63150b7a0260e01b7bffffffffffffffffffffffffffffffffffffffffffffffffffffffff1916817bffffffffffffffffffffffffffffffffffffffffffffffffffffffff1916149150506129c6565b600190505b949350505050565b6129d88383612bad565b6129e56000848484612846565b612a24576040517f08c379a0000000000000000000000000000000000000000000000000000000008152600401612a1b906145dd565b60405180910390fd5b505050565b60606000821415612a71576040518060400160405280600181526020017f30000000000000000000000000000000000000000000000000000000000000008152509050612b85565b600082905060005b60008214612aa3578080612a8c90613a31565b915050600a82612a9c9190613c6f565b9150612a79565b60008167ffffffffffffffff811115612abf57612abe6133cb565b5b6040519080825280601f01601f191660200182016040528015612af15781602001600182028036833780820191505090505b5090505b60008514612b7e57600182612b0a9190613bb2565b9150600a85612b1991906141be565b6030612b259190613ca0565b60f81b818381518110612b3b57612b3a6146e0565b5b60200101907effffffffffffffffffffffffffffffffffffffffffffffffffffffffffffff1916908160001a905350600a85612b779190613c6f565b9450612af5565b8093505050505b919050565b6000808273ffffffffffffffffffffffffffffffffffffffff163b119050919050565b600073ffffffffffffffffffffffffffffffffffffffff168273ffffffffffffffffffffffffffffffffffffffff161415612c1d576040517f08c379a0000000000000000000000000000000000000000000000000000000008152600401612c149061475b565b60405180910390fd5b612c26816127d0565b15612c66576040517f08c379a0000000000000000000000000000000000000000000000000000000008152600401612c5d906147c7565b60405180910390fd5b612c726000838361283c565b6001600360008473ffffffffffffffffffffffffffffffffffffffff1673ffffffffffffffffffffffffffffffffffffffff1681526020019081526020016000206000828254612cc29190613ca0565b92505081905550816002600083815260200190815260200160002060006101000a81548173ffffffffffffffffffffffffffffffffffffffff021916908373ffffffffffffffffffffffffffffffffffffffff160217905550808273ffffffffffffffffffffffffffffffffffffffff16600073ffffffffffffffffffffffffffffffffffffffff167fddf252ad1be2c89b69c2b068fc378daa952ba7f163c4a11628f55a4df523b3ef60405160405180910390a4612d8360008383612841565b5050565b6040518060400160405280600060ff168152602001600060ff1681525090565b6000604051905090565b600080fd5b600080fd5b60007fffffffff0000000000000000000000000000000000000000000000000000000082169050919050565b612df081612dbb565b8114612dfb57600080fd5b50565b600081359050612e0d81612de7565b92915050565b600060208284031215612e2957612e28612db1565b5b6000612e3784828501612dfe565b91505092915050565b60008115159050919050565b612e5581612e40565b82525050565b6000602082019050612e706000830184612e4c565b92915050565b600081519050919050565b600082825260208201905092915050565b60005b83811015612eb0578082015181840152602081019050612e95565b83811115612ebf576000848401525b50505050565b6000601f19601f8301169050919050565b6000612ee182612e76565b612eeb8185612e81565b9350612efb818560208601612e92565b612f0481612ec5565b840191505092915050565b60006020820190508181036000830152612f298184612ed6565b905092915050565b6000819050919050565b612f4481612f31565b8114612f4f57600080fd5b50565b600081359050612f6181612f3b565b92915050565b600060208284031215612f7d57612f7c612db1565b5b6000612f8b84828501612f52565b91505092915050565b600073ffffffffffffffffffffffffffffffffffffffff82169050919050565b6000612fbf82612f94565b9050919050565b612fcf81612fb4565b82525050565b6000602082019050612fea6000830184612fc6565b92915050565b612ff981612fb4565b811461300457600080fd5b50565b60008135905061301681612ff0565b92915050565b6000806040838503121561303357613032612db1565b5b600061304185828601613007565b925050602061305285828601612f52565b9150509250929050565b6000819050919050565b61306f8161305c565b811461307a57600080fd5b50565b60008135905061308c81613066565b92915050565b6000602082840312156130a8576130a7612db1565b5b60006130b68482850161307d565b91505092915050565b6130c88161305c565b82525050565b60006020820190506130e360008301846130bf565b92915050565b6000819050919050565b6130fc816130e9565b82525050565b600060208201905061311760008301846130f3565b92915050565b60008060006060848603121561313657613135612db1565b5b600061314486828701613007565b935050602061315586828701613007565b925050604061316686828701612f52565b9150509250925092565b600060ff82169050919050565b61318681613170565b82525050565b60006020820190506131a1600083018461317d565b92915050565b6000602082840312156131bd576131bc612db1565b5b60006131cb84828501613007565b91505092915050565b6131dd81613170565b82525050565b60e0820160008201516131f960008501826131d4565b50602082015161320c60208501826131d4565b50604082015161321f60408501826131d4565b50606082015161323260608501826131d4565b50608082015161324560808501826131d4565b5060a082015161325860a08501826131d4565b5060c082015161326b60c08501826131d4565b50505050565b60006101c082019050613287600083018b6130f3565b613294602083018a6131e3565b6132a261010083018961317d565b6132b061012083018861317d565b6132be61014083018761317d565b6132cc61016083018661317d565b6132da610180830185612e4c565b6132e86101a0830184612e4c565b9998505050505050505050565b6000806000806080858703121561330f5761330e612db1565b5b600061331d87828801612f52565b945050602061332e87828801612f52565b935050604061333f87828801612f52565b925050606061335087828801612f52565b91505092959194509250565b6000806040838503121561337357613372612db1565b5b600061338185828601612f52565b925050602061339285828601612f52565b9150509250929050565b6133a581612f31565b82525050565b60006020820190506133c0600083018461339c565b92915050565b600080fd5b7f4e487b7100000000000000000000000000000000000000000000000000000000600052604160045260246000fd5b61340382612ec5565b810181811067ffffffffffffffff82111715613422576134216133cb565b5b80604052505050565b6000613435612da7565b905061344182826133fa565b919050565b61344f81613170565b811461345a57600080fd5b50565b60008135905061346c81613446565b92915050565b600060408284031215613488576134876133c6565b5b613492604061342b565b905060006134a28482850161345d565b60008301525060206134b68482850161345d565b60208301525092915050565b600080606083850312156134d9576134d8612db1565b5b60006134e785828601612f52565b92505060206134f885828601613472565b9150509250929050565b60408201600082015161351860008501826131d4565b50602082015161352b60208501826131d4565b50505050565b60006040820190506135466000830184613502565b92915050565b613555816130e9565b811461356057600080fd5b50565b6000813590506135728161354c565b92915050565b60008060006060848603121561359157613590612db1565b5b600061359f86828701613563565b93505060206135b086828701612f52565b92505060406135c186828701612f52565b9150509250925092565b6135d481612e40565b81146135df57600080fd5b50565b6000813590506135f1816135cb565b92915050565b6000806040838503121561360e5761360d612db1565b5b600061361c85828601613007565b925050602061362d858286016135e2565b9150509250929050565b600080fd5b600080fd5b600067ffffffffffffffff82111561365c5761365b6133cb565b5b61366582612ec5565b9050602081019050919050565b82818337600083830152505050565b600061369461368f84613641565b61342b565b9050828152602081018484840111156136b0576136af61363c565b5b6136bb848285613672565b509392505050565b600082601f8301126136d8576136d7613637565b5b81356136e8848260208601613681565b91505092915050565b6000806000806080858703121561370b5761370a612db1565b5b600061371987828801613007565b945050602061372a87828801613007565b935050604061373b87828801612f52565b925050606085013567ffffffffffffffff81111561375c5761375b612db6565b5b613768878288016136c3565b91505092959194509250565b6000806040838503121561378b5761378a612db1565b5b60006137998582860161345d565b92505060206137aa8582860161345d565b9150509250929050565b600080604083850312156137cb576137ca612db1565b5b60006137d985828601613007565b92505060206137ea85828601613007565b9150509250929050565b6000806080838503121561380b5761380a612db1565b5b600061381985828601613472565b925050604061382a85828601613472565b9150509250929050565b7f4e487b7100000000000000000000000000000000000000000000000000000000600052602260045260246000fd5b6000600282049050600182168061387b57607f821691505b6020821081141561388f5761388e613834565b5b50919050565b7f4552433732313a20617070726f76616c20746f2063757272656e74206f776e6560008201527f7200000000000000000000000000000000000000000000000000000000000000602082015250565b60006138f1602183612e81565b91506138fc82613895565b604082019050919050565b60006020820190508181036000830152613920816138e4565b9050919050565b7f4552433732313a20617070726f76652063616c6c6572206973206e6f7420746f60008201527f6b656e206f776e6572206e6f7220617070726f76656420666f7220616c6c0000602082015250565b6000613983603e83612e81565b915061398e82613927565b604082019050919050565b600060208201905081810360008301526139b281613976565b9050919050565b7f4e487b7100000000000000000000000000000000000000000000000000000000600052601160045260246000fd5b60006139f38261305c565b91507f8000000000000000000000000000000000000000000000000000000000000000821415613a2657613a256139b9565b5b816000039050919050565b6000613a3c82612f31565b91507fffffffffffffffffffffffffffffffffffffffffffffffffffffffffffffffff821415613a6f57613a6e6139b9565b5b600182019050919050565b6000819050919050565b613a95613a9082612f31565b613a7a565b82525050565b60008160601b9050919050565b6000613ab382613a9b565b9050919050565b6000613ac582613aa8565b9050919050565b613add613ad882612fb4565b613aba565b82525050565b6000613aef8286613a84565b602082019150613aff8285613a84565b602082019150613b0f8284613acc565b601482019150819050949350505050565b7f4552433732313a2063616c6c6572206973206e6f7420746f6b656e206f776e6560008201527f72206e6f7220617070726f766564000000000000000000000000000000000000602082015250565b6000613b7c602e83612e81565b9150613b8782613b20565b604082019050919050565b60006020820190508181036000830152613bab81613b6f565b9050919050565b6000613bbd82612f31565b9150613bc883612f31565b925082821015613bdb57613bda6139b9565b5b828203905092915050565b6000613bf182612f31565b9150613bfc83612f31565b9250817fffffffffffffffffffffffffffffffffffffffffffffffffffffffffffffffff0483118215151615613c3557613c346139b9565b5b828202905092915050565b7f4e487b7100000000000000000000000000000000000000000000000000000000600052601260045260246000fd5b6000613c7a82612f31565b9150613c8583612f31565b925082613c9557613c94613c40565b5b828204905092915050565b6000613cab82612f31565b9150613cb683612f31565b9250827fffffffffffffffffffffffffffffffffffffffffffffffffffffffffffffffff03821115613ceb57613cea6139b9565b5b828201905092915050565b7f4552433732313a20696e76616c696420746f6b656e2049440000000000000000600082015250565b6000613d2c601883612e81565b9150613d3782613cf6565b602082019050919050565b60006020820190508181036000830152613d5b81613d1f565b9050919050565b7f4552433732313a2061646472657373207a65726f206973206e6f74206120766160008201527f6c6964206f776e65720000000000000000000000000000000000000000000000602082015250565b6000613dbe602983612e81565b9150613dc982613d62565b604082019050919050565b60006020820190508181036000830152613ded81613db1565b9050919050565b6000613dff82613170565b9150613e0a83613170565b925082821015613e1d57613e1c6139b9565b5b828203905092915050565b6000613e3382613170565b9150613e3e83613170565b92508260ff03821115613e5457613e536139b9565b5b828201905092915050565b7f496e76616c696420646972656374696f6e000000000000000000000000000000600082015250565b6000613e95601183612e81565b9150613ea082613e5f565b602082019050919050565b60006020820190508181036000830152613ec481613e88565b9050919050565b60008160011c9050919050565b6000808291508390505b6001851115613f2257808604811115613efe57613efd6139b9565b5b6001851615613f0d5780820291505b8081029050613f1b85613ecb565b9450613ee2565b94509492505050565b600082613f3b5760019050613ff7565b81613f495760009050613ff7565b8160018114613f5f5760028114613f6957613f98565b6001915050613ff7565b60ff841115613f7b57613f7a6139b9565b5b8360020a915084821115613f9257613f916139b9565b5b50613ff7565b5060208310610133831016604e8410600b8410161715613fcd5782820a905083811115613fc857613fc76139b9565b5b613ff7565b613fda8484846001613ed8565b92509050818404811115613ff157613ff06139b9565b5b81810290505b9392505050565b600061400982612f31565b915061401483612f31565b92506140417fffffffffffffffffffffffffffffffffffffffffffffffffffffffffffffffff8484613f2b565b905092915050565b7f696e636f7272656374207061796d656e74000000000000000000000000000000600082015250565b600061407f601183612e81565b915061408a82614049565b602082019050919050565b600060208201905081810360008301526140ae81614072565b9050919050565b7f6d696e74696e67206973206e6f74206163746976650000000000000000000000600082015250565b60006140eb601583612e81565b91506140f6826140b5565b602082019050919050565b6000602082019050818103600083015261411a816140de565b9050919050565b600081905092915050565b600061413782612e76565b6141418185614121565b9350614151818560208601612e92565b80840191505092915050565b6000614169828561412c565b9150614175828461412c565b91508190509392505050565b600061418d8286613acc565b60148201915061419d8285613a84565b6020820191506141ad8284613a84565b602082019150819050949350505050565b60006141c982612f31565b91506141d483612f31565b9250826141e4576141e3613c40565b5b828206905092915050565b7f4f776e61626c653a206e6577206f776e657220697320746865207a65726f206160008201527f6464726573730000000000000000000000000000000000000000000000000000602082015250565b600061424b602683612e81565b9150614256826141ef565b604082019050919050565b6000602082019050818103600083015261427a8161423e565b9050919050565b60008160000b9050919050565b600061429982614281565b91506142a483614281565b9250827fffffffffffffffffffffffffffffffffffffffffffffffffffffffffffffff80018212600084121516156142df576142de6139b9565b5b82607f0182136000841216156142f8576142f76139b9565b5b828203905092915050565b7f4572726f723a204e6f742061646a6163656e7400000000000000000000000000600082015250565b6000614339601383612e81565b915061434482614303565b602082019050919050565b600060208201905081810360008301526143688161432c565b9050919050565b7f4552433732313a207472616e736665722066726f6d20696e636f72726563742060008201527f6f776e6572000000000000000000000000000000000000000000000000000000602082015250565b60006143cb602583612e81565b91506143d68261436f565b604082019050919050565b600060208201905081810360008301526143fa816143be565b9050919050565b7f4552433732313a207472616e7366657220746f20746865207a65726f2061646460008201527f7265737300000000000000000000000000000000000000000000000000000000602082015250565b600061445d602483612e81565b915061446882614401565b604082019050919050565b6000602082019050818103600083015261448c81614450565b9050919050565b7f4f776e61626c653a2063616c6c6572206973206e6f7420746865206f776e6572600082015250565b60006144c9602083612e81565b91506144d482614493565b602082019050919050565b600060208201905081810360008301526144f8816144bc565b9050919050565b7f4552433732313a20617070726f766520746f2063616c6c657200000000000000600082015250565b6000614535601983612e81565b9150614540826144ff565b602082019050919050565b6000602082019050818103600083015261456481614528565b9050919050565b7f4552433732313a207472616e7366657220746f206e6f6e20455243373231526560008201527f63656976657220696d706c656d656e7465720000000000000000000000000000602082015250565b60006145c7603283612e81565b91506145d28261456b565b604082019050919050565b600060208201905081810360008301526145f6816145ba565b9050919050565b600081519050919050565b600082825260208201905092915050565b6000614624826145fd565b61462e8185614608565b935061463e818560208601612e92565b61464781612ec5565b840191505092915050565b60006080820190506146676000830187612fc6565b6146746020830186612fc6565b614681604083018561339c565b81810360608301526146938184614619565b905095945050505050565b6000815190506146ad81612de7565b92915050565b6000602082840312156146c9576146c8612db1565b5b60006146d78482850161469e565b91505092915050565b7f4e487b7100000000000000000000000000000000000000000000000000000000600052603260045260246000fd5b7f4552433732313a206d696e7420746f20746865207a65726f2061646472657373600082015250565b6000614745602083612e81565b91506147508261470f565b602082019050919050565b6000602082019050818103600083015261477481614738565b9050919050565b7f4552433732313a20746f6b656e20616c7265616479206d696e74656400000000600082015250565b60006147b1601c83612e81565b91506147bc8261477b565b602082019050919050565b600060208201905081810360008301526147e0816147a4565b905091905056fea2646970667358221220fe77adaa132334c94b1d887803ec6b619617d7b04f75e8c15a8bae6ae5a5005764736f6c634300080c0033",
  "devdoc": {
    "kind": "dev",
    "methods": {
      "approve(address,uint256)": {
        "details": "See {IERC721-approve}."
      },
      "balanceOf(address)": {
        "details": "See {IERC721-balanceOf}."
      },
      "getApproved(uint256)": {
        "details": "See {IERC721-getApproved}."
      },
      "isApprovedForAll(address,address)": {
        "details": "See {IERC721-isApprovedForAll}."
      },
      "name()": {
        "details": "See {IERC721Metadata-name}."
      },
      "owner()": {
        "details": "Returns the address of the current owner."
      },
      "ownerOf(uint256)": {
        "details": "See {IERC721-ownerOf}."
      },
      "renounceOwnership()": {
        "details": "Leaves the contract without owner. It will not be possible to call `onlyOwner` functions anymore. Can only be called by the current owner. NOTE: Renouncing ownership will leave the contract without an owner, thereby removing any functionality that is only available to the owner."
      },
      "safeTransferFrom(address,address,uint256)": {
        "details": "See {IERC721-safeTransferFrom}."
      },
      "safeTransferFrom(address,address,uint256,bytes)": {
        "details": "See {IERC721-safeTransferFrom}."
      },
      "setApprovalForAll(address,bool)": {
        "details": "See {IERC721-setApprovalForAll}."
      },
      "supportsInterface(bytes4)": {
        "details": "See {IERC165-supportsInterface}."
      },
      "symbol()": {
        "details": "See {IERC721Metadata-symbol}."
      },
      "tokenURI(uint256)": {
        "details": "See {IERC721Metadata-tokenURI}."
      },
      "transferFrom(address,address,uint256)": {
        "details": "See {IERC721-transferFrom}."
      },
      "transferOwnership(address)": {
        "details": "Transfers ownership of the contract to a new account (`newOwner`). Can only be called by the current owner."
      }
    },
    "version": 1
  },
  "userdoc": {
    "kind": "user",
    "methods": {},
    "version": 1
  },
  "storageLayout": {
    "storage": [
      {
        "astId": 138,
        "contract": "contracts/BCChars.sol:BCChars",
        "label": "_name",
        "offset": 0,
        "slot": "0",
        "type": "t_string_storage"
      },
      {
        "astId": 140,
        "contract": "contracts/BCChars.sol:BCChars",
        "label": "_symbol",
        "offset": 0,
        "slot": "1",
        "type": "t_string_storage"
      },
      {
        "astId": 144,
        "contract": "contracts/BCChars.sol:BCChars",
        "label": "_owners",
        "offset": 0,
        "slot": "2",
        "type": "t_mapping(t_uint256,t_address)"
      },
      {
        "astId": 148,
        "contract": "contracts/BCChars.sol:BCChars",
        "label": "_balances",
        "offset": 0,
        "slot": "3",
        "type": "t_mapping(t_address,t_uint256)"
      },
      {
        "astId": 152,
        "contract": "contracts/BCChars.sol:BCChars",
        "label": "_tokenApprovals",
        "offset": 0,
        "slot": "4",
        "type": "t_mapping(t_uint256,t_address)"
      },
      {
        "astId": 158,
        "contract": "contracts/BCChars.sol:BCChars",
        "label": "_operatorApprovals",
        "offset": 0,
        "slot": "5",
        "type": "t_mapping(t_address,t_mapping(t_address,t_bool))"
      },
      {
        "astId": 1126,
        "contract": "contracts/BCChars.sol:BCChars",
        "label": "_tokenURIs",
        "offset": 0,
        "slot": "6",
        "type": "t_mapping(t_uint256,t_string_storage)"
      },
      {
        "astId": 7,
        "contract": "contracts/BCChars.sol:BCChars",
        "label": "_owner",
        "offset": 0,
        "slot": "7",
        "type": "t_address"
      },
      {
        "astId": 3032,
        "contract": "contracts/BCChars.sol:BCChars",
        "label": "TODO_randomSeed",
        "offset": 0,
        "slot": "8",
        "type": "t_uint256"
      },
      {
        "astId": 1934,
        "contract": "contracts/BCChars.sol:BCChars",
        "label": "gamesContract",
        "offset": 0,
        "slot": "9",
        "type": "t_address"
      },
      {
        "astId": 1941,
        "contract": "contracts/BCChars.sol:BCChars",
        "label": "mintCost",
        "offset": 0,
        "slot": "10",
        "type": "t_uint256"
      },
      {
        "astId": 1944,
        "contract": "contracts/BCChars.sol:BCChars",
        "label": "mintIsActive",
        "offset": 0,
        "slot": "11",
        "type": "t_bool"
      },
      {
        "astId": 1947,
        "contract": "contracts/BCChars.sol:BCChars",
        "label": "healthCap",
        "offset": 1,
        "slot": "11",
        "type": "t_uint8"
      },
      {
        "astId": 1950,
        "contract": "contracts/BCChars.sol:BCChars",
        "label": "carryCap",
        "offset": 2,
        "slot": "11",
        "type": "t_uint8"
      },
      {
        "astId": 1953,
        "contract": "contracts/BCChars.sol:BCChars",
        "label": "defenseCap",
        "offset": 3,
        "slot": "11",
        "type": "t_uint8"
      },
      {
        "astId": 1956,
        "contract": "contracts/BCChars.sol:BCChars",
        "label": "hackCap",
        "offset": 4,
        "slot": "11",
        "type": "t_uint8"
      },
      {
        "astId": 1959,
        "contract": "contracts/BCChars.sol:BCChars",
        "label": "breachCap",
        "offset": 5,
        "slot": "11",
        "type": "t_uint8"
      },
      {
        "astId": 1962,
        "contract": "contracts/BCChars.sol:BCChars",
        "label": "shootCap",
        "offset": 6,
        "slot": "11",
        "type": "t_uint8"
      },
      {
        "astId": 1965,
        "contract": "contracts/BCChars.sol:BCChars",
        "label": "meleeCap",
        "offset": 7,
        "slot": "11",
        "type": "t_uint8"
      },
      {
        "astId": 1968,
        "contract": "contracts/BCChars.sol:BCChars",
        "label": "maxClonesCap",
        "offset": 8,
        "slot": "11",
        "type": "t_uint8"
      },
      {
        "astId": 1971,
        "contract": "contracts/BCChars.sol:BCChars",
        "label": "abilityCap",
        "offset": 9,
        "slot": "11",
        "type": "t_uint8"
      },
      {
        "astId": 1974,
        "contract": "contracts/BCChars.sol:BCChars",
        "label": "flawCap",
        "offset": 10,
        "slot": "11",
        "type": "t_uint8"
      },
      {
        "astId": 1977,
        "contract": "contracts/BCChars.sol:BCChars",
        "label": "decantMin",
        "offset": 11,
        "slot": "11",
        "type": "t_uint8"
      },
      {
        "astId": 1980,
        "contract": "contracts/BCChars.sol:BCChars",
        "label": "decantMax",
        "offset": 12,
        "slot": "11",
        "type": "t_uint8"
      },
      {
        "astId": 1984,
        "contract": "contracts/BCChars.sol:BCChars",
        "label": "characters",
        "offset": 0,
        "slot": "12",
        "type": "t_array(t_struct(Character)3024_storage)dyn_storage"
      }
    ],
    "types": {
      "t_address": {
        "encoding": "inplace",
        "label": "address",
        "numberOfBytes": "20"
      },
      "t_array(t_struct(Character)3024_storage)dyn_storage": {
        "base": "t_struct(Character)3024_storage",
        "encoding": "dynamic_array",
        "label": "struct BCTypes.Character[]",
        "numberOfBytes": "32"
      },
      "t_bool": {
        "encoding": "inplace",
        "label": "bool",
        "numberOfBytes": "1"
      },
      "t_bytes32": {
        "encoding": "inplace",
        "label": "bytes32",
        "numberOfBytes": "32"
      },
      "t_mapping(t_address,t_bool)": {
        "encoding": "mapping",
        "key": "t_address",
        "label": "mapping(address => bool)",
        "numberOfBytes": "32",
        "value": "t_bool"
      },
      "t_mapping(t_address,t_mapping(t_address,t_bool))": {
        "encoding": "mapping",
        "key": "t_address",
        "label": "mapping(address => mapping(address => bool))",
        "numberOfBytes": "32",
        "value": "t_mapping(t_address,t_bool)"
      },
      "t_mapping(t_address,t_uint256)": {
        "encoding": "mapping",
        "key": "t_address",
        "label": "mapping(address => uint256)",
        "numberOfBytes": "32",
        "value": "t_uint256"
      },
      "t_mapping(t_uint256,t_address)": {
        "encoding": "mapping",
        "key": "t_uint256",
        "label": "mapping(uint256 => address)",
        "numberOfBytes": "32",
        "value": "t_address"
      },
      "t_mapping(t_uint256,t_string_storage)": {
        "encoding": "mapping",
        "key": "t_uint256",
        "label": "mapping(uint256 => string)",
        "numberOfBytes": "32",
        "value": "t_string_storage"
      },
      "t_string_storage": {
        "encoding": "bytes",
        "label": "string",
        "numberOfBytes": "32"
      },
      "t_struct(Character)3024_storage": {
        "encoding": "inplace",
        "label": "struct BCTypes.Character",
        "members": [
          {
            "astId": 3008,
            "contract": "contracts/BCChars.sol:BCChars",
            "label": "genHash",
            "offset": 0,
            "slot": "0",
            "type": "t_bytes32"
          },
          {
            "astId": 3011,
            "contract": "contracts/BCChars.sol:BCChars",
            "label": "traits",
            "offset": 0,
            "slot": "1",
            "type": "t_struct(Traits)3006_storage"
          },
          {
            "astId": 3013,
            "contract": "contracts/BCChars.sol:BCChars",
            "label": "cloneNumber",
            "offset": 0,
            "slot": "2",
            "type": "t_uint8"
          },
          {
            "astId": 3015,
            "contract": "contracts/BCChars.sol:BCChars",
            "label": "maxClones",
            "offset": 1,
            "slot": "2",
            "type": "t_uint8"
          },
          {
            "astId": 3017,
            "contract": "contracts/BCChars.sol:BCChars",
            "label": "ability",
            "offset": 2,
            "slot": "2",
            "type": "t_uint8"
          },
          {
            "astId": 3019,
            "contract": "contracts/BCChars.sol:BCChars",
            "label": "flaw",
            "offset": 3,
            "slot": "2",
            "type": "t_uint8"
          },
          {
            "astId": 3021,
            "contract": "contracts/BCChars.sol:BCChars",
            "label": "inGame",
            "offset": 4,
            "slot": "2",
            "type": "t_bool"
          },
          {
            "astId": 3023,
            "contract": "contracts/BCChars.sol:BCChars",
            "label": "dead",
            "offset": 5,
            "slot": "2",
            "type": "t_bool"
          }
        ],
        "numberOfBytes": "96"
      },
      "t_struct(Traits)3006_storage": {
        "encoding": "inplace",
        "label": "struct BCTypes.Traits",
        "members": [
          {
            "astId": 2993,
            "contract": "contracts/BCChars.sol:BCChars",
            "label": "health",
            "offset": 0,
            "slot": "0",
            "type": "t_uint8"
          },
          {
            "astId": 2995,
            "contract": "contracts/BCChars.sol:BCChars",
            "label": "carry",
            "offset": 1,
            "slot": "0",
            "type": "t_uint8"
          },
          {
            "astId": 2997,
            "contract": "contracts/BCChars.sol:BCChars",
            "label": "defense",
            "offset": 2,
            "slot": "0",
            "type": "t_uint8"
          },
          {
            "astId": 2999,
            "contract": "contracts/BCChars.sol:BCChars",
            "label": "hack",
            "offset": 3,
            "slot": "0",
            "type": "t_uint8"
          },
          {
            "astId": 3001,
            "contract": "contracts/BCChars.sol:BCChars",
            "label": "breach",
            "offset": 4,
            "slot": "0",
            "type": "t_uint8"
          },
          {
            "astId": 3003,
            "contract": "contracts/BCChars.sol:BCChars",
            "label": "shoot",
            "offset": 5,
            "slot": "0",
            "type": "t_uint8"
          },
          {
            "astId": 3005,
            "contract": "contracts/BCChars.sol:BCChars",
            "label": "melee",
            "offset": 6,
            "slot": "0",
            "type": "t_uint8"
          }
        ],
        "numberOfBytes": "32"
      },
      "t_uint256": {
        "encoding": "inplace",
        "label": "uint256",
        "numberOfBytes": "32"
      },
      "t_uint8": {
        "encoding": "inplace",
        "label": "uint8",
        "numberOfBytes": "1"
      }
    }
  }
}