{
  "address": "0x66e74cb27Df931A6A462cccEBEa112bD0FEf92F6",
  "abi": [
    {
      "anonymous": false,
      "inputs": [
        {
          "indexed": false,
          "internalType": "uint256",
          "name": "gameId",
          "type": "uint256"
        },
        {
          "indexed": false,
          "internalType": "uint256",
          "name": "roll",
          "type": "uint256"
        },
        {
          "indexed": false,
          "internalType": "uint256",
          "name": "forValue",
          "type": "uint256"
        },
        {
          "indexed": false,
          "internalType": "uint256",
          "name": "against",
          "type": "uint256"
        }
      ],
      "name": "ChallengeEvent",
      "type": "event"
    },
    {
      "anonymous": false,
      "inputs": [
        {
          "indexed": false,
          "internalType": "uint256",
          "name": "gameId",
          "type": "uint256"
        },
        {
          "indexed": false,
          "internalType": "uint256",
          "name": "roll",
          "type": "uint256"
        }
      ],
      "name": "DiceRollEvent",
      "type": "event"
    },
    {
      "anonymous": false,
      "inputs": [
        {
          "indexed": true,
          "internalType": "address",
          "name": "previousOwner",
          "type": "address"
        },
        {
          "indexed": true,
          "internalType": "address",
          "name": "newOwner",
          "type": "address"
        }
      ],
      "name": "OwnershipTransferred",
      "type": "event"
    },
    {
      "anonymous": false,
      "inputs": [],
      "name": "Received",
      "type": "event"
    },
    {
      "inputs": [
        {
          "internalType": "uint256",
          "name": "_matic",
          "type": "uint256"
        }
      ],
      "name": "SetEnlistCostInMatic",
      "outputs": [],
      "stateMutability": "nonpayable",
      "type": "function"
    },
    {
      "inputs": [
        {
          "internalType": "uint256",
          "name": "_matic",
          "type": "uint256"
        }
      ],
      "name": "SetMintCostInMatic",
      "outputs": [],
      "stateMutability": "nonpayable",
      "type": "function"
    },
    {
      "inputs": [
        {
          "internalType": "int256",
          "name": "x",
          "type": "int256"
        }
      ],
      "name": "abs",
      "outputs": [
        {
          "internalType": "int256",
          "name": "",
          "type": "int256"
        }
      ],
      "stateMutability": "pure",
      "type": "function"
    },
    {
      "inputs": [],
      "name": "breachCap",
      "outputs": [
        {
          "internalType": "uint8",
          "name": "",
          "type": "uint8"
        }
      ],
      "stateMutability": "view",
      "type": "function"
    },
    {
      "inputs": [],
      "name": "carryCap",
      "outputs": [
        {
          "internalType": "uint8",
          "name": "",
          "type": "uint8"
        }
      ],
      "stateMutability": "view",
      "type": "function"
    },
    {
      "inputs": [
        {
          "internalType": "uint256",
          "name": "",
          "type": "uint256"
        }
      ],
      "name": "characters",
      "outputs": [
        {
          "internalType": "bytes32",
          "name": "genHash",
          "type": "bytes32"
        },
        {
          "internalType": "uint256",
          "name": "id",
          "type": "uint256"
        },
        {
          "internalType": "uint256",
          "name": "uifID",
          "type": "uint256"
        },
        {
          "components": [
            {
              "internalType": "int8",
              "name": "health",
              "type": "int8"
            },
            {
              "internalType": "int8",
              "name": "carry",
              "type": "int8"
            },
            {
              "internalType": "int8",
              "name": "defense",
              "type": "int8"
            },
            {
              "internalType": "int8",
              "name": "hack",
              "type": "int8"
            },
            {
              "internalType": "int8",
              "name": "breach",
              "type": "int8"
            },
            {
              "internalType": "int8",
              "name": "shoot",
              "type": "int8"
            },
            {
              "internalType": "int8",
              "name": "melee",
              "type": "int8"
            }
          ],
          "internalType": "struct BCTypes.Traits",
          "name": "traits",
          "type": "tuple"
        },
        {
          "internalType": "uint8",
          "name": "cloneNumber",
          "type": "uint8"
        },
        {
          "internalType": "uint8",
          "name": "maxClones",
          "type": "uint8"
        },
        {
          "internalType": "uint8",
          "name": "ability",
          "type": "uint8"
        },
        {
          "internalType": "uint8",
          "name": "flaw",
          "type": "uint8"
        },
        {
          "internalType": "bool",
          "name": "inGame",
          "type": "bool"
        }
      ],
      "stateMutability": "view",
      "type": "function"
    },
    {
      "inputs": [
        {
          "internalType": "address",
          "name": "",
          "type": "address"
        },
        {
          "internalType": "uint256",
          "name": "",
          "type": "uint256"
        }
      ],
      "name": "charsOwned",
      "outputs": [
        {
          "internalType": "uint256",
          "name": "",
          "type": "uint256"
        }
      ],
      "stateMutability": "view",
      "type": "function"
    },
    {
      "inputs": [],
      "name": "debugAllowedUser",
      "outputs": [
        {
          "internalType": "address",
          "name": "",
          "type": "address"
        }
      ],
      "stateMutability": "view",
      "type": "function"
    },
    {
      "inputs": [
        {
          "internalType": "uint256",
          "name": "_charId",
          "type": "uint256"
        },
        {
          "internalType": "uint256",
          "name": "_debugRoomId",
          "type": "uint256"
        }
      ],
      "name": "debugEnlistChar",
      "outputs": [],
      "stateMutability": "payable",
      "type": "function"
    },
    {
      "inputs": [],
      "name": "decantNewClone",
      "outputs": [],
      "stateMutability": "payable",
      "type": "function"
    },
    {
      "inputs": [],
      "name": "defenseCap",
      "outputs": [
        {
          "internalType": "uint8",
          "name": "",
          "type": "uint8"
        }
      ],
      "stateMutability": "view",
      "type": "function"
    },
    {
      "inputs": [
        {
          "internalType": "uint256",
          "name": "_charId",
          "type": "uint256"
        }
      ],
      "name": "enlistChar",
      "outputs": [],
      "stateMutability": "payable",
      "type": "function"
    },
    {
      "inputs": [],
      "name": "enlistCost",
      "outputs": [
        {
          "internalType": "uint256",
          "name": "",
          "type": "uint256"
        }
      ],
      "stateMutability": "view",
      "type": "function"
    },
    {
      "inputs": [
        {
          "internalType": "uint256",
          "name": "_charId",
          "type": "uint256"
        }
      ],
      "name": "enlistSolo",
      "outputs": [],
      "stateMutability": "payable",
      "type": "function"
    },
    {
      "inputs": [
        {
          "internalType": "uint256",
          "name": "_charId",
          "type": "uint256"
        }
      ],
      "name": "extGetChar",
      "outputs": [
        {
          "components": [
            {
              "internalType": "bytes32",
              "name": "genHash",
              "type": "bytes32"
            },
            {
              "internalType": "uint256",
              "name": "id",
              "type": "uint256"
            },
            {
              "internalType": "uint256",
              "name": "uifID",
              "type": "uint256"
            },
            {
              "components": [
                {
                  "internalType": "int8",
                  "name": "health",
                  "type": "int8"
                },
                {
                  "internalType": "int8",
                  "name": "carry",
                  "type": "int8"
                },
                {
                  "internalType": "int8",
                  "name": "defense",
                  "type": "int8"
                },
                {
                  "internalType": "int8",
                  "name": "hack",
                  "type": "int8"
                },
                {
                  "internalType": "int8",
                  "name": "breach",
                  "type": "int8"
                },
                {
                  "internalType": "int8",
                  "name": "shoot",
                  "type": "int8"
                },
                {
                  "internalType": "int8",
                  "name": "melee",
                  "type": "int8"
                }
              ],
              "internalType": "struct BCTypes.Traits",
              "name": "traits",
              "type": "tuple"
            },
            {
              "internalType": "uint8",
              "name": "cloneNumber",
              "type": "uint8"
            },
            {
              "internalType": "uint8",
              "name": "maxClones",
              "type": "uint8"
            },
            {
              "internalType": "uint8",
              "name": "ability",
              "type": "uint8"
            },
            {
              "internalType": "uint8",
              "name": "flaw",
              "type": "uint8"
            },
            {
              "internalType": "bool",
              "name": "inGame",
              "type": "bool"
            }
          ],
          "internalType": "struct BCTypes.Character",
          "name": "",
          "type": "tuple"
        }
      ],
      "stateMutability": "view",
      "type": "function"
    },
    {
      "inputs": [],
      "name": "gamesContract",
      "outputs": [
        {
          "internalType": "address",
          "name": "",
          "type": "address"
        }
      ],
      "stateMutability": "view",
      "type": "function"
    },
    {
      "inputs": [
        {
          "internalType": "address",
          "name": "_address",
          "type": "address"
        }
      ],
      "name": "getAllCharsByOwner",
      "outputs": [
        {
          "components": [
            {
              "internalType": "bytes32",
              "name": "genHash",
              "type": "bytes32"
            },
            {
              "internalType": "uint256",
              "name": "id",
              "type": "uint256"
            },
            {
              "internalType": "uint256",
              "name": "uifID",
              "type": "uint256"
            },
            {
              "components": [
                {
                  "internalType": "int8",
                  "name": "health",
                  "type": "int8"
                },
                {
                  "internalType": "int8",
                  "name": "carry",
                  "type": "int8"
                },
                {
                  "internalType": "int8",
                  "name": "defense",
                  "type": "int8"
                },
                {
                  "internalType": "int8",
                  "name": "hack",
                  "type": "int8"
                },
                {
                  "internalType": "int8",
                  "name": "breach",
                  "type": "int8"
                },
                {
                  "internalType": "int8",
                  "name": "shoot",
                  "type": "int8"
                },
                {
                  "internalType": "int8",
                  "name": "melee",
                  "type": "int8"
                }
              ],
              "internalType": "struct BCTypes.Traits",
              "name": "traits",
              "type": "tuple"
            },
            {
              "internalType": "uint8",
              "name": "cloneNumber",
              "type": "uint8"
            },
            {
              "internalType": "uint8",
              "name": "maxClones",
              "type": "uint8"
            },
            {
              "internalType": "uint8",
              "name": "ability",
              "type": "uint8"
            },
            {
              "internalType": "uint8",
              "name": "flaw",
              "type": "uint8"
            },
            {
              "internalType": "bool",
              "name": "inGame",
              "type": "bool"
            }
          ],
          "internalType": "struct BCTypes.Character[]",
          "name": "",
          "type": "tuple[]"
        }
      ],
      "stateMutability": "view",
      "type": "function"
    },
    {
      "inputs": [
        {
          "components": [
            {
              "internalType": "uint8",
              "name": "row",
              "type": "uint8"
            },
            {
              "internalType": "uint8",
              "name": "col",
              "type": "uint8"
            }
          ],
          "internalType": "struct BCTypes.Position",
          "name": "_firstRoom",
          "type": "tuple"
        },
        {
          "components": [
            {
              "internalType": "uint8",
              "name": "row",
              "type": "uint8"
            },
            {
              "internalType": "uint8",
              "name": "col",
              "type": "uint8"
            }
          ],
          "internalType": "struct BCTypes.Position",
          "name": "_secondRoom",
          "type": "tuple"
        }
      ],
      "name": "getDirectionBetween",
      "outputs": [
        {
          "internalType": "uint256",
          "name": "",
          "type": "uint256"
        }
      ],
      "stateMutability": "pure",
      "type": "function"
    },
    {
      "inputs": [
        {
          "internalType": "uint256",
          "name": "_direction",
          "type": "uint256"
        },
        {
          "components": [
            {
              "internalType": "uint8",
              "name": "row",
              "type": "uint8"
            },
            {
              "internalType": "uint8",
              "name": "col",
              "type": "uint8"
            }
          ],
          "internalType": "struct BCTypes.Position",
          "name": "_start",
          "type": "tuple"
        }
      ],
      "name": "getNeighborRoom",
      "outputs": [
        {
          "components": [
            {
              "internalType": "uint8",
              "name": "row",
              "type": "uint8"
            },
            {
              "internalType": "uint8",
              "name": "col",
              "type": "uint8"
            }
          ],
          "internalType": "struct BCTypes.Position",
          "name": "",
          "type": "tuple"
        }
      ],
      "stateMutability": "pure",
      "type": "function"
    },
    {
      "inputs": [
        {
          "internalType": "uint256",
          "name": "_traitNum",
          "type": "uint256"
        },
        {
          "internalType": "uint256",
          "name": "_subTraitNum",
          "type": "uint256"
        }
      ],
      "name": "getUIOffset",
      "outputs": [
        {
          "internalType": "uint256",
          "name": "",
          "type": "uint256"
        }
      ],
      "stateMutability": "pure",
      "type": "function"
    },
    {
      "inputs": [],
      "name": "hackCap",
      "outputs": [
        {
          "internalType": "uint8",
          "name": "",
          "type": "uint8"
        }
      ],
      "stateMutability": "view",
      "type": "function"
    },
    {
      "inputs": [],
      "name": "healthCap",
      "outputs": [
        {
          "internalType": "uint8",
          "name": "",
          "type": "uint8"
        }
      ],
      "stateMutability": "view",
      "type": "function"
    },
    {
      "inputs": [
        {
          "internalType": "uint256",
          "name": "_charId",
          "type": "uint256"
        }
      ],
      "name": "incrementCloneNumber",
      "outputs": [],
      "stateMutability": "nonpayable",
      "type": "function"
    },
    {
      "inputs": [
        {
          "internalType": "uint256",
          "name": "_charId",
          "type": "uint256"
        },
        {
          "internalType": "uint256",
          "name": "_uifID",
          "type": "uint256"
        }
      ],
      "name": "injectCHARUII",
      "outputs": [],
      "stateMutability": "nonpayable",
      "type": "function"
    },
    {
      "inputs": [],
      "name": "lobbies",
      "outputs": [
        {
          "internalType": "contract LobbyInterface",
          "name": "",
          "type": "address"
        }
      ],
      "stateMutability": "view",
      "type": "function"
    },
    {
      "inputs": [],
      "name": "maxClonesCap",
      "outputs": [
        {
          "internalType": "uint8",
          "name": "",
          "type": "uint8"
        }
      ],
      "stateMutability": "view",
      "type": "function"
    },
    {
      "inputs": [],
      "name": "meleeCap",
      "outputs": [
        {
          "internalType": "uint8",
          "name": "",
          "type": "uint8"
        }
      ],
      "stateMutability": "view",
      "type": "function"
    },
    {
      "inputs": [],
      "name": "mintCost",
      "outputs": [
        {
          "internalType": "uint256",
          "name": "",
          "type": "uint256"
        }
      ],
      "stateMutability": "view",
      "type": "function"
    },
    {
      "inputs": [],
      "name": "mintIsActive",
      "outputs": [
        {
          "internalType": "bool",
          "name": "",
          "type": "bool"
        }
      ],
      "stateMutability": "view",
      "type": "function"
    },
    {
      "inputs": [
        {
          "internalType": "uint256",
          "name": "_min",
          "type": "uint256"
        },
        {
          "internalType": "uint256",
          "name": "_max",
          "type": "uint256"
        },
        {
          "internalType": "uint256",
          "name": "_val",
          "type": "uint256"
        },
        {
          "internalType": "uint256",
          "name": "_valMax",
          "type": "uint256"
        }
      ],
      "name": "normalizeToSmallRange",
      "outputs": [
        {
          "internalType": "uint8",
          "name": "",
          "type": "uint8"
        }
      ],
      "stateMutability": "pure",
      "type": "function"
    },
    {
      "inputs": [
        {
          "internalType": "address",
          "name": "_operator",
          "type": "address"
        },
        {
          "internalType": "address",
          "name": "_from",
          "type": "address"
        },
        {
          "internalType": "uint256",
          "name": "_tokenId",
          "type": "uint256"
        },
        {
          "internalType": "bytes",
          "name": "_data",
          "type": "bytes"
        }
      ],
      "name": "onERC721Received",
      "outputs": [
        {
          "internalType": "bytes4",
          "name": "",
          "type": "bytes4"
        }
      ],
      "stateMutability": "nonpayable",
      "type": "function"
    },
    {
      "inputs": [
        {
          "internalType": "uint256",
          "name": "_direction",
          "type": "uint256"
        }
      ],
      "name": "opposite",
      "outputs": [
        {
          "internalType": "uint256",
          "name": "",
          "type": "uint256"
        }
      ],
      "stateMutability": "pure",
      "type": "function"
    },
    {
      "inputs": [],
      "name": "owner",
      "outputs": [
        {
          "internalType": "address",
          "name": "",
          "type": "address"
        }
      ],
      "stateMutability": "view",
      "type": "function"
    },
    {
      "inputs": [],
      "name": "playersAddress",
      "outputs": [
        {
          "internalType": "address",
          "name": "",
          "type": "address"
        }
      ],
      "stateMutability": "view",
      "type": "function"
    },
    {
      "inputs": [],
      "name": "randKeccak",
      "outputs": [
        {
          "internalType": "bytes32",
          "name": "",
          "type": "bytes32"
        }
      ],
      "stateMutability": "nonpayable",
      "type": "function"
    },
    {
      "inputs": [],
      "name": "renounceOwnership",
      "outputs": [],
      "stateMutability": "nonpayable",
      "type": "function"
    },
    {
      "inputs": [
        {
          "internalType": "uint256",
          "name": "_gameId",
          "type": "uint256"
        },
        {
          "internalType": "uint256",
          "name": "_for",
          "type": "uint256"
        },
        {
          "internalType": "uint256",
          "name": "_against",
          "type": "uint256"
        }
      ],
      "name": "resolveChallenge",
      "outputs": [
        {
          "internalType": "bool",
          "name": "",
          "type": "bool"
        }
      ],
      "stateMutability": "nonpayable",
      "type": "function"
    },
    {
      "inputs": [
        {
          "internalType": "uint256",
          "name": "_charId",
          "type": "uint256"
        }
      ],
      "name": "returnChar",
      "outputs": [],
      "stateMutability": "nonpayable",
      "type": "function"
    },
    {
      "inputs": [
        {
          "internalType": "uint256",
          "name": "_gameId",
          "type": "uint256"
        }
      ],
      "name": "roll",
      "outputs": [
        {
          "internalType": "uint256",
          "name": "",
          "type": "uint256"
        }
      ],
      "stateMutability": "nonpayable",
      "type": "function"
    },
    {
      "inputs": [
        {
          "internalType": "address",
          "name": "_lobbyContractAddress",
          "type": "address"
        },
        {
          "internalType": "address",
          "name": "_gameContract",
          "type": "address"
        },
        {
          "internalType": "address",
          "name": "_UIFAddress",
          "type": "address"
        },
        {
          "internalType": "address",
          "name": "_playersAddress",
          "type": "address"
        }
      ],
      "name": "setContractAddresses",
      "outputs": [],
      "stateMutability": "nonpayable",
      "type": "function"
    },
    {
      "inputs": [
        {
          "internalType": "bool",
          "name": "_status",
          "type": "bool"
        }
      ],
      "name": "setMintingStatus",
      "outputs": [],
      "stateMutability": "nonpayable",
      "type": "function"
    },
    {
      "inputs": [],
      "name": "shootCap",
      "outputs": [
        {
          "internalType": "uint8",
          "name": "",
          "type": "uint8"
        }
      ],
      "stateMutability": "view",
      "type": "function"
    },
    {
      "inputs": [
        {
          "internalType": "bytes32",
          "name": "_hash",
          "type": "bytes32"
        },
        {
          "internalType": "uint256",
          "name": "_size",
          "type": "uint256"
        },
        {
          "internalType": "uint256",
          "name": "_offset",
          "type": "uint256"
        }
      ],
      "name": "sliceHashToSmallInt",
      "outputs": [
        {
          "internalType": "uint8",
          "name": "",
          "type": "uint8"
        }
      ],
      "stateMutability": "pure",
      "type": "function"
    },
    {
      "inputs": [
        {
          "internalType": "uint8",
          "name": "_min",
          "type": "uint8"
        },
        {
          "internalType": "uint8",
          "name": "_max",
          "type": "uint8"
        }
      ],
      "name": "smallIntBetweenVals",
      "outputs": [
        {
          "internalType": "uint8",
          "name": "",
          "type": "uint8"
        }
      ],
      "stateMutability": "nonpayable",
      "type": "function"
    },
    {
      "inputs": [],
      "name": "soloCost",
      "outputs": [
        {
          "internalType": "uint256",
          "name": "",
          "type": "uint256"
        }
      ],
      "stateMutability": "view",
      "type": "function"
    },
    {
      "inputs": [],
      "name": "transferFundsOut",
      "outputs": [],
      "stateMutability": "nonpayable",
      "type": "function"
    },
    {
      "inputs": [
        {
          "internalType": "address",
          "name": "newOwner",
          "type": "address"
        }
      ],
      "name": "transferOwnership",
      "outputs": [],
      "stateMutability": "nonpayable",
      "type": "function"
    },
    {
      "inputs": [],
      "name": "uif",
      "outputs": [
        {
          "internalType": "contract UIFInterface",
          "name": "",
          "type": "address"
        }
      ],
      "stateMutability": "view",
      "type": "function"
    }
  ],
  "transactionHash": "0x8767384511cef3b54756863071b29797fd3f934b2ca45b8831e497c62fefdf45",
  "args": [],
  "numDeployments": 1,
  "solcInputHash": "860588b4ecf02af53978c30d18800156",
  "bytecode": "0x60806040526000600155655af3107a4000600755662386f26fc1000060085560056007546200002f91906200029c565b6009556001600a60006101000a81548160ff0219169083151502179055506004600a60016101000a81548160ff021916908360ff1602179055506005600a60026101000a81548160ff021916908360ff1602179055506004600a60036101000a81548160ff021916908360ff1602179055506004600a60046101000a81548160ff021916908360ff1602179055506004600a60056101000a81548160ff021916908360ff1602179055506004600a60066101000a81548160ff021916908360ff1602179055506004600a60076101000a81548160ff021916908360ff1602179055506064600a60086101000a81548160ff021916908360ff160217905550600a8060096101000a81548160ff021916908360ff160217905550600a80600a6101000a81548160ff021916908360ff1602179055503480156200017057600080fd5b5062000191620001856200019760201b60201c565b6200019f60201b60201c565b620002e7565b600033905090565b60008060009054906101000a900473ffffffffffffffffffffffffffffffffffffffff169050816000806101000a81548173ffffffffffffffffffffffffffffffffffffffff021916908373ffffffffffffffffffffffffffffffffffffffff1602179055508173ffffffffffffffffffffffffffffffffffffffff168173ffffffffffffffffffffffffffffffffffffffff167f8be0079c531659141344cd1fd0a4f28419497f9722a3daafe3b4186f6b6457e060405160405180910390a35050565b6000819050919050565b7f4e487b7100000000000000000000000000000000000000000000000000000000600052601160045260246000fd5b6000620002a98262000263565b9150620002b68362000263565b9250828202620002c68162000263565b91508282048414831517620002e057620002df6200026d565b5b5092915050565b61524080620002f76000396000f3fe6080604052600436106102935760003560e01c80636963c5681161015a578063aaa68777116100c1578063cbfb23881161007a578063cbfb238814610a23578063ce28613f14610a4e578063e604c41014610a8b578063f2fde38b14610aa7578063fa3993c214610ad0578063fdcadf8114610b0d57610293565b8063aaa6877714610962578063afa0e6601461098b578063b926be2a146109a7578063ba1ee7cf146109d2578063bdb4b848146109dc578063c6c484dd14610a0757610293565b806378f4768b1161011357806378f4768b1461082c5780638214f2221461085757806384c38c8b146108945780638da5cb5b146108bd578063951fc3fe146108e857806397f34c3f1461092557610293565b80636963c568146107425780636d6ba7561461076d578063705498dc14610796578063715018a6146107c1578063733882b7146107d85780637420aa361461080357610293565b806342f03745116101fe57806353011696116101b757806353011696146105f85780635dc96967146106355780635ee38b2f146106725780636284ef2c1461069d5780636362fe42146106c857806364db84bf1461070557610293565b806342f03745146104cc57806345de18b8146104f7578063471a4294146105225780634810bc591461054d578063501f978414610592578063503932be146105bb57610293565b80631b5ac4b5116102505780631b5ac4b5146103bc5780631e1de205146103f95780631f7b4f30146104245780633838aed11461046157806339a54a30146104785780633f6becfa146104a357610293565b80630364f88c1461029857806303b414e4146102c357806303fc4948146102ee578063149d2f811461032b578063150b7a0214610354578063154fa27a14610391575b600080fd5b3480156102a457600080fd5b506102ad610b38565b6040516102ba91906136be565b60405180910390f35b3480156102cf57600080fd5b506102d8610b5e565b6040516102e591906136fa565b60405180910390f35b3480156102fa57600080fd5b506103156004803603810190610310919061375f565b610b84565b6040516103229190613950565b60405180910390f35b34801561033757600080fd5b50610352600480360381019061034d919061375f565b610d4d565b005b34801561036057600080fd5b5061037b600480360381019061037691906139fd565b610dd2565b6040516103889190613ac0565b60405180910390f35b34801561039d57600080fd5b506103a6610e13565b6040516103b391906136fa565b60405180910390f35b3480156103c857600080fd5b506103e360048036038101906103de9190613b11565b610e39565b6040516103f09190613b4d565b60405180910390f35b34801561040557600080fd5b5061040e610e5b565b60405161041b9190613b77565b60405180910390f35b34801561043057600080fd5b5061044b6004803603810190610446919061375f565b610ea7565b6040516104589190613ba1565b60405180910390f35b34801561046d57600080fd5b50610476610efd565b005b34801561048457600080fd5b5061048d610f55565b60405161049a9190613bcb565b60405180910390f35b3480156104af57600080fd5b506104ca60048036038101906104c59190613be6565b610f68565b005b3480156104d857600080fd5b506104e1610f6c565b6040516104ee9190613ba1565b60405180910390f35b34801561050357600080fd5b5061050c610f72565b6040516105199190613bcb565b60405180910390f35b34801561052e57600080fd5b50610537610f85565b6040516105449190613c35565b60405180910390f35b34801561055957600080fd5b50610574600480360381019061056f919061375f565b610f98565b60405161058999989796959493929190613cde565b60405180910390f35b34801561059e57600080fd5b506105b960048036038101906105b4919061375f565b61110c565b005b3480156105c757600080fd5b506105e260048036038101906105dd9190613d6f565b611131565b6040516105ef9190613ba1565b60405180910390f35b34801561060457600080fd5b5061061f600480360381019061061a9190613daf565b611162565b60405161062c9190613bcb565b60405180910390f35b34801561064157600080fd5b5061065c60048036038101906106579190613e16565b6111a6565b6040516106699190613c35565b60405180910390f35b34801561067e57600080fd5b50610687611239565b6040516106949190613bcb565b60405180910390f35b3480156106a957600080fd5b506106b261124c565b6040516106bf9190613bcb565b60405180910390f35b3480156106d457600080fd5b506106ef60048036038101906106ea9190613e69565b61125f565b6040516106fc9190614001565b60405180910390f35b34801561071157600080fd5b5061072c60048036038101906107279190613be6565b61155d565b6040516107399190613ba1565b60405180910390f35b34801561074e57600080fd5b5061075761157f565b6040516107649190613bcb565b60405180910390f35b34801561077957600080fd5b50610794600480360381019061078f919061375f565b611592565b005b3480156107a257600080fd5b506107ab611680565b6040516107b89190614044565b60405180910390f35b3480156107cd57600080fd5b506107d66116a6565b005b3480156107e457600080fd5b506107ed6116ba565b6040516107fa9190613bcb565b60405180910390f35b34801561080f57600080fd5b5061082a6004803603810190610825919061408b565b6116cd565b005b34801561083857600080fd5b506108416116f2565b60405161084e91906136fa565b60405180910390f35b34801561086357600080fd5b5061087e6004803603810190610879919061375f565b611718565b60405161088b9190613ba1565b60405180910390f35b3480156108a057600080fd5b506108bb60048036038101906108b6919061375f565b61179d565b005b3480156108c957600080fd5b506108d26117c2565b6040516108df91906136fa565b60405180910390f35b3480156108f457600080fd5b5061090f600480360381019061090a91906141c5565b6117eb565b60405161091c9190614234565b60405180910390f35b34801561093157600080fd5b5061094c6004803603810190610947919061427b565b61195a565b6040516109599190613bcb565b60405180910390f35b34801561096e57600080fd5b50610989600480360381019061098491906142ce565b611991565b005b6109a560048036038101906109a09190613be6565b611aa3565b005b3480156109b357600080fd5b506109bc611eaf565b6040516109c99190613bcb565b60405180910390f35b6109da611ec2565b005b3480156109e857600080fd5b506109f16126b3565b6040516109fe9190613ba1565b60405180910390f35b610a216004803603810190610a1c919061375f565b6126b9565b005b348015610a2f57600080fd5b50610a38612aba565b604051610a459190613bcb565b60405180910390f35b348015610a5a57600080fd5b50610a756004803603810190610a709190614335565b612acd565b604051610a829190613bcb565b60405180910390f35b610aa56004803603810190610aa0919061375f565b612b5e565b005b348015610ab357600080fd5b50610ace6004803603810190610ac99190613e69565b612f5f565b005b348015610adc57600080fd5b50610af76004803603810190610af29190614375565b612fe2565b604051610b049190613ba1565b60405180910390f35b348015610b1957600080fd5b50610b226130ff565b604051610b2f9190613ba1565b60405180910390f35b600260009054906101000a900473ffffffffffffffffffffffffffffffffffffffff1681565b600560009054906101000a900473ffffffffffffffffffffffffffffffffffffffff1681565b610b8c613571565b600b8281548110610ba057610b9f6143b5565b5b906000526020600020906005020160405180610120016040529081600082015481526020016001820154815260200160028201548152602001600382016040518060e00160405290816000820160009054906101000a900460000b60000b60000b81526020016000820160019054906101000a900460000b60000b60000b81526020016000820160029054906101000a900460000b60000b60000b81526020016000820160039054906101000a900460000b60000b60000b81526020016000820160049054906101000a900460000b60000b60000b81526020016000820160059054906101000a900460000b60000b60000b81526020016000820160069054906101000a900460000b60000b60000b8152505081526020016004820160009054906101000a900460ff1660ff1660ff1681526020016004820160019054906101000a900460ff1660ff1660ff1681526020016004820160029054906101000a900460ff1660ff1660ff1681526020016004820160039054906101000a900460ff1660ff1660ff1681526020016004820160049054906101000a900460ff1615151515815250509050919050565b60001515600b8281548110610d6557610d646143b5565b5b906000526020600020906005020160040160049054906101000a900460ff16151514610dc6576040517f08c379a0000000000000000000000000000000000000000000000000000000008152600401610dbd90614441565b60405180910390fd5b610dcf81613105565b50565b60007f544c765b33ca411cce832250371569244f765a17fcd217832be093f0fd5fa45b60405160405180910390a163150b7a0260e01b905095945050505050565b600360009054906101000a900473ffffffffffffffffffffffffffffffffffffffff1681565b600080821215610e525781610e4d90614490565b610e54565b815b9050919050565b600060016000815480929190610e70906144d8565b91905055506001544233604051602001610e8c93929190614589565b60405160208183030381529060405280519060200120905090565b600080610eb660016006612acd565b60ff1690507ffe34d093a460a16ee5fb374540914d1c734a17502c0c1a87b387c8d6097e1c518382604051610eec9291906145c6565b60405180910390a180915050919050565b610f056132c7565b610f0d6117c2565b73ffffffffffffffffffffffffffffffffffffffff166108fc479081150290604051600060405180830381858888f19350505050158015610f52573d6000803e3d6000fd5b50565b600a60049054906101000a900460ff1681565b5050565b60095481565b600a60079054906101000a900460ff1681565b600a60009054906101000a900460ff1681565b600b8181548110610fa857600080fd5b9060005260206000209060050201600091509050806000015490806001015490806002015490806003016040518060e00160405290816000820160009054906101000a900460000b60000b60000b81526020016000820160019054906101000a900460000b60000b60000b81526020016000820160029054906101000a900460000b60000b60000b81526020016000820160039054906101000a900460000b60000b60000b81526020016000820160049054906101000a900460000b60000b60000b81526020016000820160059054906101000a900460000b60000b60000b81526020016000820160069054906101000a900460000b60000b60000b81525050908060040160009054906101000a900460ff16908060040160019054906101000a900460ff16908060040160029054906101000a900460ff16908060040160039054906101000a900460ff16908060040160049054906101000a900460ff16905089565b6111146132c7565b670de0b6b3a76400008161112891906145ef565b60088190555050565b600c602052816000526040600020818154811061114d57600080fd5b90600052602060002001600091509150505481565b60008085856111719190614631565b9050600083858361118291906145ef565b61118c9190614694565b9050868161119a91906146c5565b92505050949350505050565b6000806111b285610ea7565b90507f75b6a8325595f91135e07382840634226793c68c9e59623da7e10d7ad3d95b95858286866040516111e994939291906146f9565b60405180910390a160018103611203576000915050611232565b600383858361121291906146c5565b61121c919061473e565b131561122c576001915050611232565b60009150505b9392505050565b600a60089054906101000a900460ff1681565b600a60039054906101000a900460ff1681565b60606000600c60008473ffffffffffffffffffffffffffffffffffffffff1673ffffffffffffffffffffffffffffffffffffffff16815260200190815260200160002080549050905060008167ffffffffffffffff8111156112c4576112c36140ce565b5b6040519080825280602002602001820160405280156112fd57816020015b6112ea613571565b8152602001906001900390816112e25790505b50905060005b815181101561155257600b600c60008773ffffffffffffffffffffffffffffffffffffffff1673ffffffffffffffffffffffffffffffffffffffff168152602001908152602001600020828154811061135f5761135e6143b5565b5b90600052602060002001548154811061137b5761137a6143b5565b5b906000526020600020906005020160405180610120016040529081600082015481526020016001820154815260200160028201548152602001600382016040518060e00160405290816000820160009054906101000a900460000b60000b60000b81526020016000820160019054906101000a900460000b60000b60000b81526020016000820160029054906101000a900460000b60000b60000b81526020016000820160039054906101000a900460000b60000b60000b81526020016000820160049054906101000a900460000b60000b60000b81526020016000820160059054906101000a900460000b60000b60000b81526020016000820160069054906101000a900460000b60000b60000b8152505081526020016004820160009054906101000a900460ff1660ff1660ff1681526020016004820160019054906101000a900460ff1660ff1660ff1681526020016004820160029054906101000a900460ff1660ff1660ff1681526020016004820160039054906101000a900460ff1660ff1660ff1681526020016004820160049054906101000a900460ff161515151581525050828281518110611534576115336143b5565b5b6020026020010181905250808061154a906144d8565b915050611303565b508092505050919050565b60008183600461156d91906145ef565b61157791906146c5565b905092915050565b600a60029054906101000a900460ff1681565b600560009054906101000a900473ffffffffffffffffffffffffffffffffffffffff1673ffffffffffffffffffffffffffffffffffffffff163373ffffffffffffffffffffffffffffffffffffffff1614611622576040517f08c379a0000000000000000000000000000000000000000000000000000000008152600401611619906147cd565b60405180910390fd5b600b8181548110611636576116356143b5565b5b9060005260206000209060050201600401600081819054906101000a900460ff1680929190611664906147ed565b91906101000a81548160ff021916908360ff1602179055505050565b600460009054906101000a900473ffffffffffffffffffffffffffffffffffffffff1681565b6116ae6132c7565b6116b86000613345565b565b600a60069054906101000a900460ff1681565b6116d56132c7565b80600a60006101000a81548160ff02191690831515021790555050565b600660009054906101000a900473ffffffffffffffffffffffffffffffffffffffff1681565b600080820361172a5760019050611798565b6001820361173b5760009050611798565b6002820361174c5760039050611798565b6003820361175d5760029050611798565b6040517f08c379a000000000000000000000000000000000000000000000000000000000815260040161178f90614862565b60405180910390fd5b919050565b6117a56132c7565b670de0b6b3a7640000816117b991906145ef565b60078190555050565b60008060009054906101000a900473ffffffffffffffffffffffffffffffffffffffff16905090565b6117f36135d4565b60008303611831576040518060400160405280600184600001516118179190614882565b60ff168152602001836020015160ff168152509050611954565b6001830361186f5760405180604001604052806001846000015161185591906148b7565b60ff168152602001836020015160ff168152509050611954565b600283036118ad576040518060400160405280836000015160ff168152602001600184602001516118a091906148b7565b60ff168152509050611954565b600383036118eb576040518060400160405280836000015160ff168152602001600184602001516118de9190614882565b60ff168152509050611954565b60006118f684613409565b6040516020016119069190614983565b6040516020818303038152906040529050806040517f08c379a000000000000000000000000000000000000000000000000000000000815260040161194b91906149e2565b60405180910390fd5b92915050565b60008082600185600261196d9190614b37565b6119779190614631565b60001b901b905082818616901c60001c9150509392505050565b6119996132c7565b83600260006101000a81548173ffffffffffffffffffffffffffffffffffffffff021916908373ffffffffffffffffffffffffffffffffffffffff16021790555082600360006101000a81548173ffffffffffffffffffffffffffffffffffffffff021916908373ffffffffffffffffffffffffffffffffffffffff16021790555081600460006101000a81548173ffffffffffffffffffffffffffffffffffffffff021916908373ffffffffffffffffffffffffffffffffffffffff16021790555080600560006101000a81548173ffffffffffffffffffffffffffffffffffffffff021916908373ffffffffffffffffffffffffffffffffffffffff16021790555050505050565b611aab6132c7565b600460009054906101000a900473ffffffffffffffffffffffffffffffffffffffff1673ffffffffffffffffffffffffffffffffffffffff166395a81d4e836040518263ffffffff1660e01b8152600401611b069190613ba1565b602060405180830381865afa158015611b23573d6000803e3d6000fd5b505050506040513d601f19601f82011682018060405250810190611b479190614b97565b73ffffffffffffffffffffffffffffffffffffffff163373ffffffffffffffffffffffffffffffffffffffff1614611bb4576040517f08c379a0000000000000000000000000000000000000000000000000000000008152600401611bab90614c10565b60405180910390fd5b611bbc6117c2565b73ffffffffffffffffffffffffffffffffffffffff163373ffffffffffffffffffffffffffffffffffffffff161480611bf6575060075434145b611c35576040517f08c379a0000000000000000000000000000000000000000000000000000000008152600401611c2c90614c7c565b60405180910390fd5b60001515600b8381548110611c4d57611c4c6143b5565b5b906000526020600020906005020160040160049054906101000a900460ff16151514611cae576040517f08c379a0000000000000000000000000000000000000000000000000000000008152600401611ca590614ce8565b60405180910390fd5b600460009054906101000a900473ffffffffffffffffffffffffffffffffffffffff1673ffffffffffffffffffffffffffffffffffffffff16636352211e600b8481548110611d0057611cff6143b5565b5b9060005260206000209060050201600201546040518263ffffffff1660e01b8152600401611d2e9190613ba1565b602060405180830381865afa158015611d4b573d6000803e3d6000fd5b505050506040513d601f19601f82011682018060405250810190611d6f9190614b97565b73ffffffffffffffffffffffffffffffffffffffff163073ffffffffffffffffffffffffffffffffffffffff1614611ddc576040517f08c379a0000000000000000000000000000000000000000000000000000000008152600401611dd390614d54565b60405180910390fd5b6001600b8381548110611df257611df16143b5565b5b906000526020600020906005020160040160046101000a81548160ff021916908315150217905550600260009054906101000a900473ffffffffffffffffffffffffffffffffffffffff1673ffffffffffffffffffffffffffffffffffffffff1663aa582fc48333846040518463ffffffff1660e01b8152600401611e7993929190614d74565b600060405180830381600087803b158015611e9357600080fd5b505af1158015611ea7573d6000803e3d6000fd5b505050505050565b600a60019054906101000a900460ff1681565b611eca6117c2565b73ffffffffffffffffffffffffffffffffffffffff163373ffffffffffffffffffffffffffffffffffffffff161480611f04575060085434145b611f43576040517f08c379a0000000000000000000000000000000000000000000000000000000008152600401611f3a90614c7c565b60405180910390fd5b611f4b6117c2565b73ffffffffffffffffffffffffffffffffffffffff163373ffffffffffffffffffffffffffffffffffffffff161480611f97575060011515600a60009054906101000a900460ff161515145b611fd6576040517f08c379a0000000000000000000000000000000000000000000000000000000008152600401611fcd90614df7565b60405180910390fd5b6000600460009054906101000a900473ffffffffffffffffffffffffffffffffffffffff1673ffffffffffffffffffffffffffffffffffffffff16639b6507f064174876e800600080336040518563ffffffff1660e01b815260040161203e93929190614e52565b60206040518083038185885af115801561205c573d6000803e3d6000fd5b50505050506040513d601f19601f820116820180604052508101906120819190614e9e565b90506000600460009054906101000a900473ffffffffffffffffffffffffffffffffffffffff1673ffffffffffffffffffffffffffffffffffffffff166328518381836040518263ffffffff1660e01b81526004016120e09190613ba1565b602060405180830381865afa1580156120fd573d6000803e3d6000fd5b505050506040513d601f19601f820116820180604052508101906121219190614ee0565b9050600b604051806101200160405280838152602001600b8054905081526020018481526020016040518060e0016040528061219860026001600a60019054906101000a900460ff1661217491906148b7565b60ff1661218e896004612189600c600161155d565b61195a565b60ff16600f611162565b60000b81526020016121e560036001600a60029054906101000a900460ff166121c191906148b7565b60ff166121db8960046121d6600a600261155d565b61195a565b60ff16600f611162565b60000b815260200161223260026001600a60039054906101000a900460ff1661220e91906148b7565b60ff16612228896004612223600c600061155d565b61195a565b60ff16600f611162565b60000b815260200161227f60026001600a60049054906101000a900460ff1661225b91906148b7565b60ff16612275896004612270600d600061155d565b61195a565b60ff16600f611162565b60000b81526020016122cc60026001600a60059054906101000a900460ff166122a891906148b7565b60ff166122c28960046122bd600a600161155d565b61195a565b60ff16600f611162565b60000b815260200161231960026001600a60069054906101000a900460ff166122f591906148b7565b60ff1661230f89600461230a600b600061155d565b61195a565b60ff16600f611162565b60000b815260200161236660026001600a60079054906101000a900460ff1661234291906148b7565b60ff1661235c896004612357600a600061155d565b61195a565b60ff16600f611162565b60000b8152508152602001600060ff1681526020016123b46000600a60089054906101000a900460ff1660ff166123aa8760086123a56003600061155d565b61195a565b60ff1660ff611162565b60ff1681526020016123f56000600a60099054906101000a900460ff1660ff166123eb8760086123e66008600061155d565b61195a565b60ff1660ff611162565b60ff1681526020016124346000600a8054906101000a900460ff1660ff1661242a8760086124256008600261155d565b61195a565b60ff1660ff611162565b60ff16815260200160001515815250908060018154018082558091505060019003906000526020600020906005020160009091909190915060008201518160000155602082015181600101556040820151816002015560608201518160030160008201518160000160006101000a81548160ff021916908360000b60ff16021790555060208201518160000160016101000a81548160ff021916908360000b60ff16021790555060408201518160000160026101000a81548160ff021916908360000b60ff16021790555060608201518160000160036101000a81548160ff021916908360000b60ff16021790555060808201518160000160046101000a81548160ff021916908360000b60ff16021790555060a08201518160000160056101000a81548160ff021916908360000b60ff16021790555060c08201518160000160066101000a81548160ff021916908360000b60ff160217905550505060808201518160040160006101000a81548160ff021916908360ff16021790555060a08201518160040160016101000a81548160ff021916908360ff16021790555060c08201518160040160026101000a81548160ff021916908360ff16021790555060e08201518160040160036101000a81548160ff021916908360ff1602179055506101008201518160040160046101000a81548160ff0219169083151502179055505050600c60003373ffffffffffffffffffffffffffffffffffffffff1673ffffffffffffffffffffffffffffffffffffffff1681526020019081526020016000206001600b805490506126899190614631565b90806001815401808255809150506001900390600052602060002001600090919091909150555050565b60085481565b600460009054906101000a900473ffffffffffffffffffffffffffffffffffffffff1673ffffffffffffffffffffffffffffffffffffffff166395a81d4e826040518263ffffffff1660e01b81526004016127149190613ba1565b602060405180830381865afa158015612731573d6000803e3d6000fd5b505050506040513d601f19601f820116820180604052508101906127559190614b97565b73ffffffffffffffffffffffffffffffffffffffff163373ffffffffffffffffffffffffffffffffffffffff16146127c2576040517f08c379a00000000000000000000000000000000000000000000000000000000081526004016127b990614c10565b60405180910390fd5b6127ca6117c2565b73ffffffffffffffffffffffffffffffffffffffff163373ffffffffffffffffffffffffffffffffffffffff161480612804575060075434145b612843576040517f08c379a000000000000000000000000000000000000000000000000000000000815260040161283a90614c7c565b60405180910390fd5b60001515600b828154811061285b5761285a6143b5565b5b906000526020600020906005020160040160049054906101000a900460ff161515146128bc576040517f08c379a00000000000000000000000000000000000000000000000000000000081526004016128b390614ce8565b60405180910390fd5b600460009054906101000a900473ffffffffffffffffffffffffffffffffffffffff1673ffffffffffffffffffffffffffffffffffffffff16636352211e600b838154811061290e5761290d6143b5565b5b9060005260206000209060050201600201546040518263ffffffff1660e01b815260040161293c9190613ba1565b602060405180830381865afa158015612959573d6000803e3d6000fd5b505050506040513d601f19601f8201168201806040525081019061297d9190614b97565b73ffffffffffffffffffffffffffffffffffffffff163073ffffffffffffffffffffffffffffffffffffffff16146129ea576040517f08c379a00000000000000000000000000000000000000000000000000000000081526004016129e190614d54565b60405180910390fd5b6001600b8281548110612a00576129ff6143b5565b5b906000526020600020906005020160040160046101000a81548160ff021916908315150217905550600260009054906101000a900473ffffffffffffffffffffffffffffffffffffffff1673ffffffffffffffffffffffffffffffffffffffff1663237c201b82336040518363ffffffff1660e01b8152600401612a85929190614f0d565b600060405180830381600087803b158015612a9f57600080fd5b505af1158015612ab3573d6000803e3d6000fd5b5050505050565b600a60059054906101000a900460ff1681565b600060016000815480929190612ae2906144d8565b919050555060003360015442604051602001612b0093929190614f36565b6040516020818303038152906040528051906020012060001c9050600060018585612b2b9190614882565b612b3591906148b7565b90508460ff168160ff1683612b4a9190614f73565b612b5491906146c5565b9250505092915050565b600460009054906101000a900473ffffffffffffffffffffffffffffffffffffffff1673ffffffffffffffffffffffffffffffffffffffff166395a81d4e826040518263ffffffff1660e01b8152600401612bb99190613ba1565b602060405180830381865afa158015612bd6573d6000803e3d6000fd5b505050506040513d601f19601f82011682018060405250810190612bfa9190614b97565b73ffffffffffffffffffffffffffffffffffffffff163373ffffffffffffffffffffffffffffffffffffffff1614612c67576040517f08c379a0000000000000000000000000000000000000000000000000000000008152600401612c5e90614c10565b60405180910390fd5b612c6f6117c2565b73ffffffffffffffffffffffffffffffffffffffff163373ffffffffffffffffffffffffffffffffffffffff161480612ca9575060095434145b612ce8576040517f08c379a0000000000000000000000000000000000000000000000000000000008152600401612cdf90614c7c565b60405180910390fd5b60001515600b8281548110612d0057612cff6143b5565b5b906000526020600020906005020160040160049054906101000a900460ff16151514612d61576040517f08c379a0000000000000000000000000000000000000000000000000000000008152600401612d5890614ce8565b60405180910390fd5b600460009054906101000a900473ffffffffffffffffffffffffffffffffffffffff1673ffffffffffffffffffffffffffffffffffffffff16636352211e600b8381548110612db357612db26143b5565b5b9060005260206000209060050201600201546040518263ffffffff1660e01b8152600401612de19190613ba1565b602060405180830381865afa158015612dfe573d6000803e3d6000fd5b505050506040513d601f19601f82011682018060405250810190612e229190614b97565b73ffffffffffffffffffffffffffffffffffffffff163073ffffffffffffffffffffffffffffffffffffffff1614612e8f576040517f08c379a0000000000000000000000000000000000000000000000000000000008152600401612e8690614d54565b60405180910390fd5b6001600b8281548110612ea557612ea46143b5565b5b906000526020600020906005020160040160046101000a81548160ff021916908315150217905550600260009054906101000a900473ffffffffffffffffffffffffffffffffffffffff1673ffffffffffffffffffffffffffffffffffffffff1663a707d63282336040518363ffffffff1660e01b8152600401612f2a929190614f0d565b600060405180830381600087803b158015612f4457600080fd5b505af1158015612f58573d6000803e3d6000fd5b5050505050565b612f676132c7565b600073ffffffffffffffffffffffffffffffffffffffff168173ffffffffffffffffffffffffffffffffffffffff1603612fd6576040517f08c379a0000000000000000000000000000000000000000000000000000000008152600401612fcd90615016565b60405180910390fd5b612fdf81613345565b50565b6000600182600001518460000151612ffa9190615036565b60000b0361300b57600090506130f9565b7fffffffffffffffffffffffffffffffffffffffffffffffffffffffffffffffff826000015184600001516130409190615036565b60000b0361305157600190506130f9565b7fffffffffffffffffffffffffffffffffffffffffffffffffffffffffffffffff826020015184602001516130869190615036565b60000b0361309757600290506130f9565b6001826020015184602001516130ad9190615036565b60000b036130be57600390506130f9565b6040517f08c379a00000000000000000000000000000000000000000000000000000000081526004016130f0906150db565b60405180910390fd5b92915050565b60075481565b600460009054906101000a900473ffffffffffffffffffffffffffffffffffffffff1673ffffffffffffffffffffffffffffffffffffffff166395a81d4e826040518263ffffffff1660e01b81526004016131609190613ba1565b602060405180830381865afa15801561317d573d6000803e3d6000fd5b505050506040513d601f19601f820116820180604052508101906131a19190614b97565b73ffffffffffffffffffffffffffffffffffffffff163373ffffffffffffffffffffffffffffffffffffffff161461320e576040517f08c379a000000000000000000000000000000000000000000000000000000000815260040161320590615147565b60405180910390fd5b600460009054906101000a900473ffffffffffffffffffffffffffffffffffffffff1673ffffffffffffffffffffffffffffffffffffffff166342842e0e3033600b8581548110613262576132616143b5565b5b9060005260206000209060050201600201546040518463ffffffff1660e01b815260040161329293929190615167565b600060405180830381600087803b1580156132ac57600080fd5b505af11580156132c0573d6000803e3d6000fd5b5050505050565b6132cf613569565b73ffffffffffffffffffffffffffffffffffffffff166132ed6117c2565b73ffffffffffffffffffffffffffffffffffffffff1614613343576040517f08c379a000000000000000000000000000000000000000000000000000000000815260040161333a906151ea565b60405180910390fd5b565b60008060009054906101000a900473ffffffffffffffffffffffffffffffffffffffff169050816000806101000a81548173ffffffffffffffffffffffffffffffffffffffff021916908373ffffffffffffffffffffffffffffffffffffffff1602179055508173ffffffffffffffffffffffffffffffffffffffff168173ffffffffffffffffffffffffffffffffffffffff167f8be0079c531659141344cd1fd0a4f28419497f9722a3daafe3b4186f6b6457e060405160405180910390a35050565b606060008203613450576040518060400160405280600181526020017f30000000000000000000000000000000000000000000000000000000000000008152509050613564565b600082905060005b6000821461348257808061346b906144d8565b915050600a8261347b9190614694565b9150613458565b60008167ffffffffffffffff81111561349e5761349d6140ce565b5b6040519080825280601f01601f1916602001820160405280156134d05781602001600182028036833780820191505090505b5090505b6000851461355d576001826134e99190614631565b9150600a856134f89190614f73565b603061350491906146c5565b60f81b81838151811061351a576135196143b5565b5b60200101907effffffffffffffffffffffffffffffffffffffffffffffffffffffffffffff1916908160001a905350600a856135569190614694565b94506134d4565b8093505050505b919050565b600033905090565b60405180610120016040528060008019168152602001600081526020016000815260200161359d6135f4565b8152602001600060ff168152602001600060ff168152602001600060ff168152602001600060ff1681526020016000151581525090565b6040518060400160405280600060ff168152602001600060ff1681525090565b6040518060e001604052806000800b81526020016000800b81526020016000800b81526020016000800b81526020016000800b81526020016000800b81526020016000800b81525090565b600073ffffffffffffffffffffffffffffffffffffffff82169050919050565b6000819050919050565b600061368461367f61367a8461363f565b61365f565b61363f565b9050919050565b600061369682613669565b9050919050565b60006136a88261368b565b9050919050565b6136b88161369d565b82525050565b60006020820190506136d360008301846136af565b92915050565b60006136e48261363f565b9050919050565b6136f4816136d9565b82525050565b600060208201905061370f60008301846136eb565b92915050565b6000604051905090565b600080fd5b600080fd5b6000819050919050565b61373c81613729565b811461374757600080fd5b50565b60008135905061375981613733565b92915050565b6000602082840312156137755761377461371f565b5b60006137838482850161374a565b91505092915050565b6000819050919050565b61379f8161378c565b82525050565b6137ae81613729565b82525050565b60008160000b9050919050565b6137ca816137b4565b82525050565b60e0820160008201516137e660008501826137c1565b5060208201516137f960208501826137c1565b50604082015161380c60408501826137c1565b50606082015161381f60608501826137c1565b50608082015161383260808501826137c1565b5060a082015161384560a08501826137c1565b5060c082015161385860c08501826137c1565b50505050565b600060ff82169050919050565b6138748161385e565b82525050565b60008115159050919050565b61388f8161387a565b82525050565b6101e0820160008201516138ac6000850182613796565b5060208201516138bf60208501826137a5565b5060408201516138d260408501826137a5565b5060608201516138e560608501826137d0565b5060808201516138f961014085018261386b565b5060a082015161390d61016085018261386b565b5060c082015161392161018085018261386b565b5060e08201516139356101a085018261386b565b5061010082015161394a6101c0850182613886565b50505050565b60006101e0820190506139666000830184613895565b92915050565b613975816136d9565b811461398057600080fd5b50565b6000813590506139928161396c565b92915050565b600080fd5b600080fd5b600080fd5b60008083601f8401126139bd576139bc613998565b5b8235905067ffffffffffffffff8111156139da576139d961399d565b5b6020830191508360018202830111156139f6576139f56139a2565b5b9250929050565b600080600080600060808688031215613a1957613a1861371f565b5b6000613a2788828901613983565b9550506020613a3888828901613983565b9450506040613a498882890161374a565b935050606086013567ffffffffffffffff811115613a6a57613a69613724565b5b613a76888289016139a7565b92509250509295509295909350565b60007fffffffff0000000000000000000000000000000000000000000000000000000082169050919050565b613aba81613a85565b82525050565b6000602082019050613ad56000830184613ab1565b92915050565b6000819050919050565b613aee81613adb565b8114613af957600080fd5b50565b600081359050613b0b81613ae5565b92915050565b600060208284031215613b2757613b2661371f565b5b6000613b3584828501613afc565b91505092915050565b613b4781613adb565b82525050565b6000602082019050613b626000830184613b3e565b92915050565b613b718161378c565b82525050565b6000602082019050613b8c6000830184613b68565b92915050565b613b9b81613729565b82525050565b6000602082019050613bb66000830184613b92565b92915050565b613bc58161385e565b82525050565b6000602082019050613be06000830184613bbc565b92915050565b60008060408385031215613bfd57613bfc61371f565b5b6000613c0b8582860161374a565b9250506020613c1c8582860161374a565b9150509250929050565b613c2f8161387a565b82525050565b6000602082019050613c4a6000830184613c26565b92915050565b60e082016000820151613c6660008501826137c1565b506020820151613c7960208501826137c1565b506040820151613c8c60408501826137c1565b506060820151613c9f60608501826137c1565b506080820151613cb260808501826137c1565b5060a0820151613cc560a08501826137c1565b5060c0820151613cd860c08501826137c1565b50505050565b60006101e082019050613cf4600083018c613b68565b613d01602083018b613b92565b613d0e604083018a613b92565b613d1b6060830189613c50565b613d29610140830188613bbc565b613d37610160830187613bbc565b613d45610180830186613bbc565b613d536101a0830185613bbc565b613d616101c0830184613c26565b9a9950505050505050505050565b60008060408385031215613d8657613d8561371f565b5b6000613d9485828601613983565b9250506020613da58582860161374a565b9150509250929050565b60008060008060808587031215613dc957613dc861371f565b5b6000613dd78782880161374a565b9450506020613de88782880161374a565b9350506040613df98782880161374a565b9250506060613e0a8782880161374a565b91505092959194509250565b600080600060608486031215613e2f57613e2e61371f565b5b6000613e3d8682870161374a565b9350506020613e4e8682870161374a565b9250506040613e5f8682870161374a565b9150509250925092565b600060208284031215613e7f57613e7e61371f565b5b6000613e8d84828501613983565b91505092915050565b600081519050919050565b600082825260208201905092915050565b6000819050602082019050919050565b6101e082016000820151613ed96000850182613796565b506020820151613eec60208501826137a5565b506040820151613eff60408501826137a5565b506060820151613f1260608501826137d0565b506080820151613f2661014085018261386b565b5060a0820151613f3a61016085018261386b565b5060c0820151613f4e61018085018261386b565b5060e0820151613f626101a085018261386b565b50610100820151613f776101c0850182613886565b50505050565b6000613f898383613ec2565b6101e08301905092915050565b6000602082019050919050565b6000613fae82613e96565b613fb88185613ea1565b9350613fc383613eb2565b8060005b83811015613ff4578151613fdb8882613f7d565b9750613fe683613f96565b925050600181019050613fc7565b5085935050505092915050565b6000602082019050818103600083015261401b8184613fa3565b905092915050565b600061402e8261368b565b9050919050565b61403e81614023565b82525050565b60006020820190506140596000830184614035565b92915050565b6140688161387a565b811461407357600080fd5b50565b6000813590506140858161405f565b92915050565b6000602082840312156140a1576140a061371f565b5b60006140af84828501614076565b91505092915050565b600080fd5b6000601f19601f8301169050919050565b7f4e487b7100000000000000000000000000000000000000000000000000000000600052604160045260246000fd5b614106826140bd565b810181811067ffffffffffffffff82111715614125576141246140ce565b5b80604052505050565b6000614138613715565b905061414482826140fd565b919050565b6141528161385e565b811461415d57600080fd5b50565b60008135905061416f81614149565b92915050565b60006040828403121561418b5761418a6140b8565b5b614195604061412e565b905060006141a584828501614160565b60008301525060206141b984828501614160565b60208301525092915050565b600080606083850312156141dc576141db61371f565b5b60006141ea8582860161374a565b92505060206141fb85828601614175565b9150509250929050565b60408201600082015161421b600085018261386b565b50602082015161422e602085018261386b565b50505050565b60006040820190506142496000830184614205565b92915050565b6142588161378c565b811461426357600080fd5b50565b6000813590506142758161424f565b92915050565b6000806000606084860312156142945761429361371f565b5b60006142a286828701614266565b93505060206142b38682870161374a565b92505060406142c48682870161374a565b9150509250925092565b600080600080608085870312156142e8576142e761371f565b5b60006142f687828801613983565b945050602061430787828801613983565b935050604061431887828801613983565b925050606061432987828801613983565b91505092959194509250565b6000806040838503121561434c5761434b61371f565b5b600061435a85828601614160565b925050602061436b85828601614160565b9150509250929050565b6000806080838503121561438c5761438b61371f565b5b600061439a85828601614175565b92505060406143ab85828601614175565b9150509250929050565b7f4e487b7100000000000000000000000000000000000000000000000000000000600052603260045260246000fd5b600082825260208201905092915050565b7f4368617220696e2067616d650000000000000000000000000000000000000000600082015250565b600061442b600c836143e4565b9150614436826143f5565b602082019050919050565b6000602082019050818103600083015261445a8161441e565b9050919050565b7f4e487b7100000000000000000000000000000000000000000000000000000000600052601160045260246000fd5b600061449b82613adb565b91507f800000000000000000000000000000000000000000000000000000000000000082036144cd576144cc614461565b5b816000039050919050565b60006144e382613729565b91507fffffffffffffffffffffffffffffffffffffffffffffffffffffffffffffffff820361451557614514614461565b5b600182019050919050565b6000819050919050565b61453b61453682613729565b614520565b82525050565b60008160601b9050919050565b600061455982614541565b9050919050565b600061456b8261454e565b9050919050565b61458361457e826136d9565b614560565b82525050565b6000614595828661452a565b6020820191506145a5828561452a565b6020820191506145b58284614572565b601482019150819050949350505050565b60006040820190506145db6000830185613b92565b6145e86020830184613b92565b9392505050565b60006145fa82613729565b915061460583613729565b925082820261461381613729565b9150828204841483151761462a57614629614461565b5b5092915050565b600061463c82613729565b915061464783613729565b925082820390508181111561465f5761465e614461565b5b92915050565b7f4e487b7100000000000000000000000000000000000000000000000000000000600052601260045260246000fd5b600061469f82613729565b91506146aa83613729565b9250826146ba576146b9614665565b5b828204905092915050565b60006146d082613729565b91506146db83613729565b92508282019050808211156146f3576146f2614461565b5b92915050565b600060808201905061470e6000830187613b92565b61471b6020830186613b92565b6147286040830185613b92565b6147356060830184613b92565b95945050505050565b600061474982613adb565b915061475483613adb565b925082820390508181126000841216828213600085121516171561477b5761477a614461565b5b92915050565b7f4f6e6c7920706c617965727320636f6e74726163740000000000000000000000600082015250565b60006147b76015836143e4565b91506147c282614781565b602082019050919050565b600060208201905081810360008301526147e6816147aa565b9050919050565b60006147f88261385e565b915060ff820361480b5761480a614461565b5b600182019050919050565b7f42616420646972656374696f6e00000000000000000000000000000000000000600082015250565b600061484c600d836143e4565b915061485782614816565b602082019050919050565b6000602082019050818103600083015261487b8161483f565b9050919050565b600061488d8261385e565b91506148988361385e565b9250828203905060ff8111156148b1576148b0614461565b5b92915050565b60006148c28261385e565b91506148cd8361385e565b9250828201905060ff8111156148e6576148e5614461565b5b92915050565b7f496e76616c696420646972656374696f6e3a2000000000000000000000000000815250565b600081519050919050565b600081905092915050565b60005b8381101561494657808201518184015260208101905061492b565b60008484015250505050565b600061495d82614912565b614967818561491d565b9350614977818560208601614928565b80840191505092915050565b600061498e826148ec565b60138201915061499e8284614952565b915081905092915050565b60006149b482614912565b6149be81856143e4565b93506149ce818560208601614928565b6149d7816140bd565b840191505092915050565b600060208201905081810360008301526149fc81846149a9565b905092915050565b60008160011c9050919050565b6000808291508390505b6001851115614a5b57808604811115614a3757614a36614461565b5b6001851615614a465780820291505b8081029050614a5485614a04565b9450614a1b565b94509492505050565b600082614a745760019050614b30565b81614a825760009050614b30565b8160018114614a985760028114614aa257614ad1565b6001915050614b30565b60ff841115614ab457614ab3614461565b5b8360020a915084821115614acb57614aca614461565b5b50614b30565b5060208310610133831016604e8410600b8410161715614b065782820a905083811115614b0157614b00614461565b5b614b30565b614b138484846001614a11565b92509050818404811115614b2a57614b29614461565b5b81810290505b9392505050565b6000614b4282613729565b9150614b4d83613729565b9250614b7a7fffffffffffffffffffffffffffffffffffffffffffffffffffffffffffffffff8484614a64565b905092915050565b600081519050614b918161396c565b92915050565b600060208284031215614bad57614bac61371f565b5b6000614bbb84828501614b82565b91505092915050565b7f4e6f7420796f7572206368617261637465720000000000000000000000000000600082015250565b6000614bfa6012836143e4565b9150614c0582614bc4565b602082019050919050565b60006020820190508181036000830152614c2981614bed565b9050919050565b7f496e636f7272656374207061796d656e74000000000000000000000000000000600082015250565b6000614c666011836143e4565b9150614c7182614c30565b602082019050919050565b60006020820190508181036000830152614c9581614c59565b9050919050565b7f416c726561647920696e2067616d650000000000000000000000000000000000600082015250565b6000614cd2600f836143e4565b9150614cdd82614c9c565b602082019050919050565b60006020820190508181036000830152614d0181614cc5565b9050919050565b7f554949206e6f74206c6f61646564000000000000000000000000000000000000600082015250565b6000614d3e600e836143e4565b9150614d4982614d08565b602082019050919050565b60006020820190508181036000830152614d6d81614d31565b9050919050565b6000606082019050614d896000830186613b92565b614d9660208301856136eb565b614da36040830184613b92565b949350505050565b7f4d696e74696e67206973206e6f74206163746976650000000000000000000000600082015250565b6000614de16015836143e4565b9150614dec82614dab565b602082019050919050565b60006020820190508181036000830152614e1081614dd4565b9050919050565b6000819050919050565b6000614e3c614e37614e3284614e17565b61365f565b613729565b9050919050565b614e4c81614e21565b82525050565b6000606082019050614e676000830186614e43565b614e746020830185614e43565b614e8160408301846136eb565b949350505050565b600081519050614e9881613733565b92915050565b600060208284031215614eb457614eb361371f565b5b6000614ec284828501614e89565b91505092915050565b600081519050614eda8161424f565b92915050565b600060208284031215614ef657614ef561371f565b5b6000614f0484828501614ecb565b91505092915050565b6000604082019050614f226000830185613b92565b614f2f60208301846136eb565b9392505050565b6000614f428286614572565b601482019150614f52828561452a565b602082019150614f62828461452a565b602082019150819050949350505050565b6000614f7e82613729565b9150614f8983613729565b925082614f9957614f98614665565b5b828206905092915050565b7f4f776e61626c653a206e6577206f776e657220697320746865207a65726f206160008201527f6464726573730000000000000000000000000000000000000000000000000000602082015250565b60006150006026836143e4565b915061500b82614fa4565b604082019050919050565b6000602082019050818103600083015261502f81614ff3565b9050919050565b6000615041826137b4565b915061504c836137b4565b92508282039050607f81137fffffffffffffffffffffffffffffffffffffffffffffffffffffffffffffff808212171561508957615088614461565b5b92915050565b7f4572726f723a204e6f742061646a6163656e7400000000000000000000000000600082015250565b60006150c56013836143e4565b91506150d08261508f565b602082019050919050565b600060208201905081810360008301526150f4816150b8565b9050919050565b7f4e6f7420796f7572207569690000000000000000000000000000000000000000600082015250565b6000615131600c836143e4565b915061513c826150fb565b602082019050919050565b6000602082019050818103600083015261516081615124565b9050919050565b600060608201905061517c60008301866136eb565b61518960208301856136eb565b6151966040830184613b92565b949350505050565b7f4f776e61626c653a2063616c6c6572206973206e6f7420746865206f776e6572600082015250565b60006151d46020836143e4565b91506151df8261519e565b602082019050919050565b60006020820190508181036000830152615203816151c7565b905091905056fea2646970667358221220d084f4939c34e5fa26a1981b3b13d8ae0aa535b20eab88402eeaad251270cd6664736f6c63430008110033",
  "devdoc": {
    "kind": "dev",
    "methods": {
      "owner()": {
        "details": "Returns the address of the current owner."
      },
      "renounceOwnership()": {
        "details": "Leaves the contract without owner. It will not be possible to call `onlyOwner` functions anymore. Can only be called by the current owner. NOTE: Renouncing ownership will leave the contract without an owner, thereby removing any functionality that is only available to the owner."
      },
      "transferOwnership(address)": {
        "details": "Transfers ownership of the contract to a new account (`newOwner`). Can only be called by the current owner."
      }
    },
    "version": 1
  },
  "userdoc": {
    "kind": "user",
    "methods": {},
    "version": 1
  },
  "storageLayout": {
    "storage": [
      {
        "astId": 7,
        "contract": "contracts/BCChars.sol:BCChars",
        "label": "_owner",
        "offset": 0,
        "slot": "0",
        "type": "t_address"
      },
      {
        "astId": 5381,
        "contract": "contracts/BCChars.sol:BCChars",
        "label": "TODO_randomSeed",
        "offset": 0,
        "slot": "1",
        "type": "t_uint256"
      },
      {
        "astId": 2925,
        "contract": "contracts/BCChars.sol:BCChars",
        "label": "lobbies",
        "offset": 0,
        "slot": "2",
        "type": "t_contract(LobbyInterface)2875"
      },
      {
        "astId": 2927,
        "contract": "contracts/BCChars.sol:BCChars",
        "label": "gamesContract",
        "offset": 0,
        "slot": "3",
        "type": "t_address"
      },
      {
        "astId": 2930,
        "contract": "contracts/BCChars.sol:BCChars",
        "label": "uif",
        "offset": 0,
        "slot": "4",
        "type": "t_contract(UIFInterface)2916"
      },
      {
        "astId": 2932,
        "contract": "contracts/BCChars.sol:BCChars",
        "label": "playersAddress",
        "offset": 0,
        "slot": "5",
        "type": "t_address"
      },
      {
        "astId": 2934,
        "contract": "contracts/BCChars.sol:BCChars",
        "label": "debugAllowedUser",
        "offset": 0,
        "slot": "6",
        "type": "t_address"
      },
      {
        "astId": 2975,
        "contract": "contracts/BCChars.sol:BCChars",
        "label": "enlistCost",
        "offset": 0,
        "slot": "7",
        "type": "t_uint256"
      },
      {
        "astId": 2982,
        "contract": "contracts/BCChars.sol:BCChars",
        "label": "mintCost",
        "offset": 0,
        "slot": "8",
        "type": "t_uint256"
      },
      {
        "astId": 2987,
        "contract": "contracts/BCChars.sol:BCChars",
        "label": "soloCost",
        "offset": 0,
        "slot": "9",
        "type": "t_uint256"
      },
      {
        "astId": 2990,
        "contract": "contracts/BCChars.sol:BCChars",
        "label": "mintIsActive",
        "offset": 0,
        "slot": "10",
        "type": "t_bool"
      },
      {
        "astId": 2993,
        "contract": "contracts/BCChars.sol:BCChars",
        "label": "healthCap",
        "offset": 1,
        "slot": "10",
        "type": "t_uint8"
      },
      {
        "astId": 2996,
        "contract": "contracts/BCChars.sol:BCChars",
        "label": "carryCap",
        "offset": 2,
        "slot": "10",
        "type": "t_uint8"
      },
      {
        "astId": 2999,
        "contract": "contracts/BCChars.sol:BCChars",
        "label": "defenseCap",
        "offset": 3,
        "slot": "10",
        "type": "t_uint8"
      },
      {
        "astId": 3002,
        "contract": "contracts/BCChars.sol:BCChars",
        "label": "hackCap",
        "offset": 4,
        "slot": "10",
        "type": "t_uint8"
      },
      {
        "astId": 3005,
        "contract": "contracts/BCChars.sol:BCChars",
        "label": "breachCap",
        "offset": 5,
        "slot": "10",
        "type": "t_uint8"
      },
      {
        "astId": 3008,
        "contract": "contracts/BCChars.sol:BCChars",
        "label": "shootCap",
        "offset": 6,
        "slot": "10",
        "type": "t_uint8"
      },
      {
        "astId": 3011,
        "contract": "contracts/BCChars.sol:BCChars",
        "label": "meleeCap",
        "offset": 7,
        "slot": "10",
        "type": "t_uint8"
      },
      {
        "astId": 3014,
        "contract": "contracts/BCChars.sol:BCChars",
        "label": "maxClonesCap",
        "offset": 8,
        "slot": "10",
        "type": "t_uint8"
      },
      {
        "astId": 3017,
        "contract": "contracts/BCChars.sol:BCChars",
        "label": "abilityCap",
        "offset": 9,
        "slot": "10",
        "type": "t_uint8"
      },
      {
        "astId": 3020,
        "contract": "contracts/BCChars.sol:BCChars",
        "label": "flawCap",
        "offset": 10,
        "slot": "10",
        "type": "t_uint8"
      },
      {
        "astId": 3024,
        "contract": "contracts/BCChars.sol:BCChars",
        "label": "characters",
        "offset": 0,
        "slot": "11",
        "type": "t_array(t_struct(Character)5317_storage)dyn_storage"
      },
      {
        "astId": 3029,
        "contract": "contracts/BCChars.sol:BCChars",
        "label": "charsOwned",
        "offset": 0,
        "slot": "12",
        "type": "t_mapping(t_address,t_array(t_uint256)dyn_storage)"
      }
    ],
    "types": {
      "t_address": {
        "encoding": "inplace",
        "label": "address",
        "numberOfBytes": "20"
      },
      "t_array(t_struct(Character)5317_storage)dyn_storage": {
        "base": "t_struct(Character)5317_storage",
        "encoding": "dynamic_array",
        "label": "struct BCTypes.Character[]",
        "numberOfBytes": "32"
      },
      "t_array(t_uint256)dyn_storage": {
        "base": "t_uint256",
        "encoding": "dynamic_array",
        "label": "uint256[]",
        "numberOfBytes": "32"
      },
      "t_bool": {
        "encoding": "inplace",
        "label": "bool",
        "numberOfBytes": "1"
      },
      "t_bytes32": {
        "encoding": "inplace",
        "label": "bytes32",
        "numberOfBytes": "32"
      },
      "t_contract(LobbyInterface)2875": {
        "encoding": "inplace",
        "label": "contract LobbyInterface",
        "numberOfBytes": "20"
      },
      "t_contract(UIFInterface)2916": {
        "encoding": "inplace",
        "label": "contract UIFInterface",
        "numberOfBytes": "20"
      },
      "t_int8": {
        "encoding": "inplace",
        "label": "int8",
        "numberOfBytes": "1"
      },
      "t_mapping(t_address,t_array(t_uint256)dyn_storage)": {
        "encoding": "mapping",
        "key": "t_address",
        "label": "mapping(address => uint256[])",
        "numberOfBytes": "32",
        "value": "t_array(t_uint256)dyn_storage"
      },
      "t_struct(Character)5317_storage": {
        "encoding": "inplace",
        "label": "struct BCTypes.Character",
        "members": [
          {
            "astId": 5299,
            "contract": "contracts/BCChars.sol:BCChars",
            "label": "genHash",
            "offset": 0,
            "slot": "0",
            "type": "t_bytes32"
          },
          {
            "astId": 5301,
            "contract": "contracts/BCChars.sol:BCChars",
            "label": "id",
            "offset": 0,
            "slot": "1",
            "type": "t_uint256"
          },
          {
            "astId": 5303,
            "contract": "contracts/BCChars.sol:BCChars",
            "label": "uifID",
            "offset": 0,
            "slot": "2",
            "type": "t_uint256"
          },
          {
            "astId": 5306,
            "contract": "contracts/BCChars.sol:BCChars",
            "label": "traits",
            "offset": 0,
            "slot": "3",
            "type": "t_struct(Traits)5297_storage"
          },
          {
            "astId": 5308,
            "contract": "contracts/BCChars.sol:BCChars",
            "label": "cloneNumber",
            "offset": 0,
            "slot": "4",
            "type": "t_uint8"
          },
          {
            "astId": 5310,
            "contract": "contracts/BCChars.sol:BCChars",
            "label": "maxClones",
            "offset": 1,
            "slot": "4",
            "type": "t_uint8"
          },
          {
            "astId": 5312,
            "contract": "contracts/BCChars.sol:BCChars",
            "label": "ability",
            "offset": 2,
            "slot": "4",
            "type": "t_uint8"
          },
          {
            "astId": 5314,
            "contract": "contracts/BCChars.sol:BCChars",
            "label": "flaw",
            "offset": 3,
            "slot": "4",
            "type": "t_uint8"
          },
          {
            "astId": 5316,
            "contract": "contracts/BCChars.sol:BCChars",
            "label": "inGame",
            "offset": 4,
            "slot": "4",
            "type": "t_bool"
          }
        ],
        "numberOfBytes": "160"
      },
      "t_struct(Traits)5297_storage": {
        "encoding": "inplace",
        "label": "struct BCTypes.Traits",
        "members": [
          {
            "astId": 5284,
            "contract": "contracts/BCChars.sol:BCChars",
            "label": "health",
            "offset": 0,
            "slot": "0",
            "type": "t_int8"
          },
          {
            "astId": 5286,
            "contract": "contracts/BCChars.sol:BCChars",
            "label": "carry",
            "offset": 1,
            "slot": "0",
            "type": "t_int8"
          },
          {
            "astId": 5288,
            "contract": "contracts/BCChars.sol:BCChars",
            "label": "defense",
            "offset": 2,
            "slot": "0",
            "type": "t_int8"
          },
          {
            "astId": 5290,
            "contract": "contracts/BCChars.sol:BCChars",
            "label": "hack",
            "offset": 3,
            "slot": "0",
            "type": "t_int8"
          },
          {
            "astId": 5292,
            "contract": "contracts/BCChars.sol:BCChars",
            "label": "breach",
            "offset": 4,
            "slot": "0",
            "type": "t_int8"
          },
          {
            "astId": 5294,
            "contract": "contracts/BCChars.sol:BCChars",
            "label": "shoot",
            "offset": 5,
            "slot": "0",
            "type": "t_int8"
          },
          {
            "astId": 5296,
            "contract": "contracts/BCChars.sol:BCChars",
            "label": "melee",
            "offset": 6,
            "slot": "0",
            "type": "t_int8"
          }
        ],
        "numberOfBytes": "32"
      },
      "t_uint256": {
        "encoding": "inplace",
        "label": "uint256",
        "numberOfBytes": "32"
      },
      "t_uint8": {
        "encoding": "inplace",
        "label": "uint8",
        "numberOfBytes": "1"
      }
    }
  }
}