{
  "address": "0x8A91EFBF6f62a9Fd39E57cb2E871463306f5dC87",
  "abi": [
    {
      "inputs": [],
      "stateMutability": "nonpayable",
      "type": "constructor"
    },
    {
      "anonymous": false,
      "inputs": [
        {
          "indexed": true,
          "internalType": "address",
          "name": "owner",
          "type": "address"
        },
        {
          "indexed": true,
          "internalType": "address",
          "name": "approved",
          "type": "address"
        },
        {
          "indexed": true,
          "internalType": "uint256",
          "name": "tokenId",
          "type": "uint256"
        }
      ],
      "name": "Approval",
      "type": "event"
    },
    {
      "anonymous": false,
      "inputs": [
        {
          "indexed": true,
          "internalType": "address",
          "name": "owner",
          "type": "address"
        },
        {
          "indexed": true,
          "internalType": "address",
          "name": "operator",
          "type": "address"
        },
        {
          "indexed": false,
          "internalType": "bool",
          "name": "approved",
          "type": "bool"
        }
      ],
      "name": "ApprovalForAll",
      "type": "event"
    },
    {
      "anonymous": false,
      "inputs": [
        {
          "indexed": true,
          "internalType": "address",
          "name": "previousOwner",
          "type": "address"
        },
        {
          "indexed": true,
          "internalType": "address",
          "name": "newOwner",
          "type": "address"
        }
      ],
      "name": "OwnershipTransferred",
      "type": "event"
    },
    {
      "anonymous": false,
      "inputs": [
        {
          "indexed": true,
          "internalType": "address",
          "name": "from",
          "type": "address"
        },
        {
          "indexed": true,
          "internalType": "address",
          "name": "to",
          "type": "address"
        },
        {
          "indexed": true,
          "internalType": "uint256",
          "name": "tokenId",
          "type": "uint256"
        }
      ],
      "name": "Transfer",
      "type": "event"
    },
    {
      "inputs": [
        {
          "internalType": "int256",
          "name": "x",
          "type": "int256"
        }
      ],
      "name": "abs",
      "outputs": [
        {
          "internalType": "int256",
          "name": "",
          "type": "int256"
        }
      ],
      "stateMutability": "pure",
      "type": "function"
    },
    {
      "inputs": [
        {
          "internalType": "address",
          "name": "to",
          "type": "address"
        },
        {
          "internalType": "uint256",
          "name": "tokenId",
          "type": "uint256"
        }
      ],
      "name": "approve",
      "outputs": [],
      "stateMutability": "nonpayable",
      "type": "function"
    },
    {
      "inputs": [
        {
          "internalType": "address",
          "name": "owner",
          "type": "address"
        }
      ],
      "name": "balanceOf",
      "outputs": [
        {
          "internalType": "uint256",
          "name": "",
          "type": "uint256"
        }
      ],
      "stateMutability": "view",
      "type": "function"
    },
    {
      "inputs": [],
      "name": "breachCap",
      "outputs": [
        {
          "internalType": "uint8",
          "name": "",
          "type": "uint8"
        }
      ],
      "stateMutability": "view",
      "type": "function"
    },
    {
      "inputs": [],
      "name": "carryCap",
      "outputs": [
        {
          "internalType": "uint8",
          "name": "",
          "type": "uint8"
        }
      ],
      "stateMutability": "view",
      "type": "function"
    },
    {
      "inputs": [
        {
          "internalType": "uint256",
          "name": "",
          "type": "uint256"
        }
      ],
      "name": "characterToOwner",
      "outputs": [
        {
          "internalType": "address",
          "name": "",
          "type": "address"
        }
      ],
      "stateMutability": "view",
      "type": "function"
    },
    {
      "inputs": [
        {
          "internalType": "uint256",
          "name": "",
          "type": "uint256"
        }
      ],
      "name": "characters",
      "outputs": [
        {
          "internalType": "bytes32",
          "name": "genHash",
          "type": "bytes32"
        },
        {
          "components": [
            {
              "internalType": "uint8",
              "name": "health",
              "type": "uint8"
            },
            {
              "internalType": "uint8",
              "name": "carry",
              "type": "uint8"
            },
            {
              "internalType": "uint8",
              "name": "defense",
              "type": "uint8"
            },
            {
              "internalType": "uint8",
              "name": "hack",
              "type": "uint8"
            },
            {
              "internalType": "uint8",
              "name": "breach",
              "type": "uint8"
            },
            {
              "internalType": "uint8",
              "name": "shoot",
              "type": "uint8"
            },
            {
              "internalType": "uint8",
              "name": "melee",
              "type": "uint8"
            }
          ],
          "internalType": "struct BCTypes.Traits",
          "name": "traits",
          "type": "tuple"
        },
        {
          "internalType": "uint8",
          "name": "cloneNumber",
          "type": "uint8"
        },
        {
          "internalType": "uint8",
          "name": "maxClones",
          "type": "uint8"
        },
        {
          "internalType": "uint8",
          "name": "ability",
          "type": "uint8"
        },
        {
          "internalType": "uint8",
          "name": "flaw",
          "type": "uint8"
        },
        {
          "internalType": "bool",
          "name": "inGame",
          "type": "bool"
        },
        {
          "internalType": "bool",
          "name": "dead",
          "type": "bool"
        }
      ],
      "stateMutability": "view",
      "type": "function"
    },
    {
      "inputs": [],
      "name": "decantMax",
      "outputs": [
        {
          "internalType": "uint8",
          "name": "",
          "type": "uint8"
        }
      ],
      "stateMutability": "view",
      "type": "function"
    },
    {
      "inputs": [],
      "name": "decantMin",
      "outputs": [
        {
          "internalType": "uint8",
          "name": "",
          "type": "uint8"
        }
      ],
      "stateMutability": "view",
      "type": "function"
    },
    {
      "inputs": [],
      "name": "decantNewClone",
      "outputs": [],
      "stateMutability": "payable",
      "type": "function"
    },
    {
      "inputs": [],
      "name": "defenseCap",
      "outputs": [
        {
          "internalType": "uint8",
          "name": "",
          "type": "uint8"
        }
      ],
      "stateMutability": "view",
      "type": "function"
    },
    {
      "inputs": [],
      "name": "gamesContract",
      "outputs": [
        {
          "internalType": "address",
          "name": "",
          "type": "address"
        }
      ],
      "stateMutability": "view",
      "type": "function"
    },
    {
      "inputs": [
        {
          "internalType": "uint256",
          "name": "tokenId",
          "type": "uint256"
        }
      ],
      "name": "getApproved",
      "outputs": [
        {
          "internalType": "address",
          "name": "",
          "type": "address"
        }
      ],
      "stateMutability": "view",
      "type": "function"
    },
    {
      "inputs": [
        {
          "components": [
            {
              "internalType": "uint8",
              "name": "row",
              "type": "uint8"
            },
            {
              "internalType": "uint8",
              "name": "col",
              "type": "uint8"
            }
          ],
          "internalType": "struct BCTypes.Position",
          "name": "_firstRoom",
          "type": "tuple"
        },
        {
          "components": [
            {
              "internalType": "uint8",
              "name": "row",
              "type": "uint8"
            },
            {
              "internalType": "uint8",
              "name": "col",
              "type": "uint8"
            }
          ],
          "internalType": "struct BCTypes.Position",
          "name": "_secondRoom",
          "type": "tuple"
        }
      ],
      "name": "getDirectionBetween",
      "outputs": [
        {
          "internalType": "uint256",
          "name": "",
          "type": "uint256"
        }
      ],
      "stateMutability": "pure",
      "type": "function"
    },
    {
      "inputs": [
        {
          "internalType": "uint256",
          "name": "_direction",
          "type": "uint256"
        },
        {
          "components": [
            {
              "internalType": "uint8",
              "name": "row",
              "type": "uint8"
            },
            {
              "internalType": "uint8",
              "name": "col",
              "type": "uint8"
            }
          ],
          "internalType": "struct BCTypes.Position",
          "name": "_start",
          "type": "tuple"
        }
      ],
      "name": "getNeighborRoom",
      "outputs": [
        {
          "components": [
            {
              "internalType": "uint8",
              "name": "row",
              "type": "uint8"
            },
            {
              "internalType": "uint8",
              "name": "col",
              "type": "uint8"
            }
          ],
          "internalType": "struct BCTypes.Position",
          "name": "",
          "type": "tuple"
        }
      ],
      "stateMutability": "pure",
      "type": "function"
    },
    {
      "inputs": [
        {
          "internalType": "uint256",
          "name": "_traitNum",
          "type": "uint256"
        },
        {
          "internalType": "uint256",
          "name": "_subTraitNum",
          "type": "uint256"
        }
      ],
      "name": "getUIOffset",
      "outputs": [
        {
          "internalType": "uint256",
          "name": "",
          "type": "uint256"
        }
      ],
      "stateMutability": "pure",
      "type": "function"
    },
    {
      "inputs": [],
      "name": "hackCap",
      "outputs": [
        {
          "internalType": "uint8",
          "name": "",
          "type": "uint8"
        }
      ],
      "stateMutability": "view",
      "type": "function"
    },
    {
      "inputs": [],
      "name": "healthCap",
      "outputs": [
        {
          "internalType": "uint8",
          "name": "",
          "type": "uint8"
        }
      ],
      "stateMutability": "view",
      "type": "function"
    },
    {
      "inputs": [
        {
          "internalType": "address",
          "name": "owner",
          "type": "address"
        },
        {
          "internalType": "address",
          "name": "operator",
          "type": "address"
        }
      ],
      "name": "isApprovedForAll",
      "outputs": [
        {
          "internalType": "bool",
          "name": "",
          "type": "bool"
        }
      ],
      "stateMutability": "view",
      "type": "function"
    },
    {
      "inputs": [],
      "name": "maxClonesCap",
      "outputs": [
        {
          "internalType": "uint8",
          "name": "",
          "type": "uint8"
        }
      ],
      "stateMutability": "view",
      "type": "function"
    },
    {
      "inputs": [],
      "name": "meleeCap",
      "outputs": [
        {
          "internalType": "uint8",
          "name": "",
          "type": "uint8"
        }
      ],
      "stateMutability": "view",
      "type": "function"
    },
    {
      "inputs": [],
      "name": "mintCost",
      "outputs": [
        {
          "internalType": "uint256",
          "name": "",
          "type": "uint256"
        }
      ],
      "stateMutability": "view",
      "type": "function"
    },
    {
      "inputs": [],
      "name": "mintIsActive",
      "outputs": [
        {
          "internalType": "bool",
          "name": "",
          "type": "bool"
        }
      ],
      "stateMutability": "view",
      "type": "function"
    },
    {
      "inputs": [],
      "name": "name",
      "outputs": [
        {
          "internalType": "string",
          "name": "",
          "type": "string"
        }
      ],
      "stateMutability": "view",
      "type": "function"
    },
    {
      "inputs": [
        {
          "internalType": "uint256",
          "name": "_min",
          "type": "uint256"
        },
        {
          "internalType": "uint256",
          "name": "_max",
          "type": "uint256"
        },
        {
          "internalType": "uint256",
          "name": "_val",
          "type": "uint256"
        },
        {
          "internalType": "uint256",
          "name": "_valMax",
          "type": "uint256"
        }
      ],
      "name": "normalizeToSmallRange",
      "outputs": [
        {
          "internalType": "uint8",
          "name": "",
          "type": "uint8"
        }
      ],
      "stateMutability": "pure",
      "type": "function"
    },
    {
      "inputs": [],
      "name": "owner",
      "outputs": [
        {
          "internalType": "address",
          "name": "",
          "type": "address"
        }
      ],
      "stateMutability": "view",
      "type": "function"
    },
    {
      "inputs": [
        {
          "internalType": "uint256",
          "name": "tokenId",
          "type": "uint256"
        }
      ],
      "name": "ownerOf",
      "outputs": [
        {
          "internalType": "address",
          "name": "",
          "type": "address"
        }
      ],
      "stateMutability": "view",
      "type": "function"
    },
    {
      "inputs": [],
      "name": "randKeccak",
      "outputs": [
        {
          "internalType": "bytes32",
          "name": "",
          "type": "bytes32"
        }
      ],
      "stateMutability": "nonpayable",
      "type": "function"
    },
    {
      "inputs": [],
      "name": "renounceOwnership",
      "outputs": [],
      "stateMutability": "nonpayable",
      "type": "function"
    },
    {
      "inputs": [],
      "name": "roll",
      "outputs": [
        {
          "internalType": "uint256",
          "name": "",
          "type": "uint256"
        }
      ],
      "stateMutability": "nonpayable",
      "type": "function"
    },
    {
      "inputs": [
        {
          "internalType": "address",
          "name": "from",
          "type": "address"
        },
        {
          "internalType": "address",
          "name": "to",
          "type": "address"
        },
        {
          "internalType": "uint256",
          "name": "tokenId",
          "type": "uint256"
        }
      ],
      "name": "safeTransferFrom",
      "outputs": [],
      "stateMutability": "nonpayable",
      "type": "function"
    },
    {
      "inputs": [
        {
          "internalType": "address",
          "name": "from",
          "type": "address"
        },
        {
          "internalType": "address",
          "name": "to",
          "type": "address"
        },
        {
          "internalType": "uint256",
          "name": "tokenId",
          "type": "uint256"
        },
        {
          "internalType": "bytes",
          "name": "data",
          "type": "bytes"
        }
      ],
      "name": "safeTransferFrom",
      "outputs": [],
      "stateMutability": "nonpayable",
      "type": "function"
    },
    {
      "inputs": [
        {
          "internalType": "address",
          "name": "operator",
          "type": "address"
        },
        {
          "internalType": "bool",
          "name": "approved",
          "type": "bool"
        }
      ],
      "name": "setApprovalForAll",
      "outputs": [],
      "stateMutability": "nonpayable",
      "type": "function"
    },
    {
      "inputs": [
        {
          "internalType": "address",
          "name": "_contract",
          "type": "address"
        }
      ],
      "name": "setGameContract",
      "outputs": [],
      "stateMutability": "nonpayable",
      "type": "function"
    },
    {
      "inputs": [
        {
          "internalType": "uint256",
          "name": "_id",
          "type": "uint256"
        },
        {
          "internalType": "bool",
          "name": "_status",
          "type": "bool"
        }
      ],
      "name": "setInGameStatus",
      "outputs": [],
      "stateMutability": "nonpayable",
      "type": "function"
    },
    {
      "inputs": [],
      "name": "shootCap",
      "outputs": [
        {
          "internalType": "uint8",
          "name": "",
          "type": "uint8"
        }
      ],
      "stateMutability": "view",
      "type": "function"
    },
    {
      "inputs": [
        {
          "internalType": "bytes32",
          "name": "_hash",
          "type": "bytes32"
        },
        {
          "internalType": "uint256",
          "name": "_size",
          "type": "uint256"
        },
        {
          "internalType": "uint256",
          "name": "_offset",
          "type": "uint256"
        }
      ],
      "name": "sliceHashToSmallInt",
      "outputs": [
        {
          "internalType": "uint8",
          "name": "",
          "type": "uint8"
        }
      ],
      "stateMutability": "pure",
      "type": "function"
    },
    {
      "inputs": [
        {
          "internalType": "uint8",
          "name": "_min",
          "type": "uint8"
        },
        {
          "internalType": "uint8",
          "name": "_max",
          "type": "uint8"
        }
      ],
      "name": "smallIntBetweenVals",
      "outputs": [
        {
          "internalType": "uint8",
          "name": "",
          "type": "uint8"
        }
      ],
      "stateMutability": "nonpayable",
      "type": "function"
    },
    {
      "inputs": [
        {
          "internalType": "bytes4",
          "name": "interfaceId",
          "type": "bytes4"
        }
      ],
      "name": "supportsInterface",
      "outputs": [
        {
          "internalType": "bool",
          "name": "",
          "type": "bool"
        }
      ],
      "stateMutability": "view",
      "type": "function"
    },
    {
      "inputs": [],
      "name": "symbol",
      "outputs": [
        {
          "internalType": "string",
          "name": "",
          "type": "string"
        }
      ],
      "stateMutability": "view",
      "type": "function"
    },
    {
      "inputs": [
        {
          "internalType": "uint256",
          "name": "tokenId",
          "type": "uint256"
        }
      ],
      "name": "tokenURI",
      "outputs": [
        {
          "internalType": "string",
          "name": "",
          "type": "string"
        }
      ],
      "stateMutability": "view",
      "type": "function"
    },
    {
      "inputs": [
        {
          "internalType": "address",
          "name": "from",
          "type": "address"
        },
        {
          "internalType": "address",
          "name": "to",
          "type": "address"
        },
        {
          "internalType": "uint256",
          "name": "tokenId",
          "type": "uint256"
        }
      ],
      "name": "transferFrom",
      "outputs": [],
      "stateMutability": "nonpayable",
      "type": "function"
    },
    {
      "inputs": [],
      "name": "transferFundsOut",
      "outputs": [],
      "stateMutability": "nonpayable",
      "type": "function"
    },
    {
      "inputs": [
        {
          "internalType": "address",
          "name": "newOwner",
          "type": "address"
        }
      ],
      "name": "transferOwnership",
      "outputs": [],
      "stateMutability": "nonpayable",
      "type": "function"
    }
  ],
  "transactionHash": "0xc7b681a376ddb6c95aab887b8f0c8e0db4555c0a6f44fa83e7e918448f8f31fa",
  "args": [],
  "numDeployments": 4,
  "solcInputHash": "b4a67a8d504b20b1b31040be2db109da",
  "bytecode": "0x608060405260006008556001600a556001600b60006101000a81548160ff0219169083151502179055506004600b60016101000a81548160ff021916908360ff1602179055506005600b60026101000a81548160ff021916908360ff1602179055506004600b60036101000a81548160ff021916908360ff1602179055506004600b60046101000a81548160ff021916908360ff1602179055506004600b60056101000a81548160ff021916908360ff1602179055506004600b60066101000a81548160ff021916908360ff1602179055506004600b60076101000a81548160ff021916908360ff1602179055506064600b60086101000a81548160ff021916908360ff160217905550600a600b60096101000a81548160ff021916908360ff160217905550600a600b600a6101000a81548160ff021916908360ff1602179055506003600b806101000a81548160ff021916908360ff160217905550600a600b600c6101000a81548160ff021916908360ff1602179055503480156200018557600080fd5b506040518060400160405280601681526020017f426c61636b20436f6d65742043686172616374657273000000000000000000008152506040518060400160405280600381526020017f424343000000000000000000000000000000000000000000000000000000000081525081600090805190602001906200020a9291906200031a565b508060019080519060200190620002239291906200031a565b505050620002466200023a6200024c60201b60201c565b6200025460201b60201c565b6200042f565b600033905090565b6000600760009054906101000a900473ffffffffffffffffffffffffffffffffffffffff16905081600760006101000a81548173ffffffffffffffffffffffffffffffffffffffff021916908373ffffffffffffffffffffffffffffffffffffffff1602179055508173ffffffffffffffffffffffffffffffffffffffff168173ffffffffffffffffffffffffffffffffffffffff167f8be0079c531659141344cd1fd0a4f28419497f9722a3daafe3b4186f6b6457e060405160405180910390a35050565b8280546200032890620003f9565b90600052602060002090601f0160209004810192826200034c576000855562000398565b82601f106200036757805160ff191683800117855562000398565b8280016001018555821562000398579182015b82811115620003975782518255916020019190600101906200037a565b5b509050620003a79190620003ab565b5090565b5b80821115620003c6576000816000905550600101620003ac565b5090565b7f4e487b7100000000000000000000000000000000000000000000000000000000600052602260045260246000fd5b600060028204905060018216806200041257607f821691505b60208210811415620004295762000428620003ca565b5b50919050565b614a81806200043f6000396000f3fe6080604052600436106102675760003560e01c8063668cdc8311610144578063b88d4fde116100b6578063cbfb23881161007a578063cbfb238814610956578063cd5e3c5d14610981578063ce28613f146109ac578063e985e9c5146109e9578063f2fde38b14610a26578063fa3993c214610a4f57610267565b8063b88d4fde14610890578063b926be2a146108b9578063ba1ee7cf146108e4578063bdb4b848146108ee578063c87b56dd1461091957610267565b8063733882b711610108578063733882b71461076c5780638da5cb5b14610797578063951fc3fe146107c257806395d89b41146107ff57806397f34c3f1461082a578063a22cb4651461086757610267565b8063668cdc8314610699578063689b7071146106c25780636963c568146106ed57806370a0823114610718578063715018a61461075557610267565b8063405ebd4d116101dd57806350254a85116101a157806350254a8514610561578063530116961461058c5780635ee38b2f146105c95780636284ef2c146105f45780636352211e1461061f57806364db84bf1461065c57610267565b8063405ebd4d1461047557806342842e0e1461049e57806345de18b8146104c7578063471a4294146104f25780634810bc591461051d57610267565b806319e7ce8b1161022f57806319e7ce8b146103655780631b5ac4b5146103a25780631e1de205146103df57806323b872dd1461040a5780633838aed11461043357806339a54a301461044a57610267565b806301ffc9a71461026c57806306fdde03146102a9578063081812fc146102d4578063095ea7b314610311578063154fa27a1461033a575b600080fd5b34801561027857600080fd5b50610293600480360381019061028e9190613007565b610a8c565b6040516102a0919061304f565b60405180910390f35b3480156102b557600080fd5b506102be610b6e565b6040516102cb9190613103565b60405180910390f35b3480156102e057600080fd5b506102fb60048036038101906102f6919061315b565b610c00565b60405161030891906131c9565b60405180910390f35b34801561031d57600080fd5b5061033860048036038101906103339190613210565b610c46565b005b34801561034657600080fd5b5061034f610d5e565b60405161035c91906131c9565b60405180910390f35b34801561037157600080fd5b5061038c6004803603810190610387919061315b565b610d84565b60405161039991906131c9565b60405180910390f35b3480156103ae57600080fd5b506103c960048036038101906103c49190613286565b610db7565b6040516103d691906132c2565b60405180910390f35b3480156103eb57600080fd5b506103f4610dd9565b60405161040191906132f6565b60405180910390f35b34801561041657600080fd5b50610431600480360381019061042c9190613311565b610e25565b005b34801561043f57600080fd5b50610448610e85565b005b34801561045657600080fd5b5061045f610edd565b60405161046c9190613380565b60405180910390f35b34801561048157600080fd5b5061049c6004803603810190610497919061339b565b610ef0565b005b3480156104aa57600080fd5b506104c560048036038101906104c09190613311565b610f3c565b005b3480156104d357600080fd5b506104dc610f5c565b6040516104e99190613380565b60405180910390f35b3480156104fe57600080fd5b50610507610f6f565b604051610514919061304f565b60405180910390f35b34801561052957600080fd5b50610544600480360381019061053f919061315b565b610f82565b604051610558989796959493929190613465565b60405180910390f35b34801561056d57600080fd5b506105766110fd565b6040516105839190613380565b60405180910390f35b34801561059857600080fd5b506105b360048036038101906105ae91906134e9565b611110565b6040516105c09190613380565b60405180910390f35b3480156105d557600080fd5b506105de611154565b6040516105eb9190613380565b60405180910390f35b34801561060057600080fd5b50610609611167565b6040516106169190613380565b60405180910390f35b34801561062b57600080fd5b506106466004803603810190610641919061315b565b61117a565b60405161065391906131c9565b60405180910390f35b34801561066857600080fd5b50610683600480360381019061067e9190613550565b61122c565b604051610690919061359f565b60405180910390f35b3480156106a557600080fd5b506106c060048036038101906106bb91906135e6565b61124e565b005b3480156106ce57600080fd5b506106d76112ce565b6040516106e49190613380565b60405180910390f35b3480156106f957600080fd5b506107026112df565b60405161070f9190613380565b60405180910390f35b34801561072457600080fd5b5061073f600480360381019061073a919061339b565b6112f2565b60405161074c919061359f565b60405180910390f35b34801561076157600080fd5b5061076a6113aa565b005b34801561077857600080fd5b506107816113be565b60405161078e9190613380565b60405180910390f35b3480156107a357600080fd5b506107ac6113d1565b6040516107b991906131c9565b60405180910390f35b3480156107ce57600080fd5b506107e960048036038101906107e49190613722565b6113fb565b6040516107f69190613791565b60405180910390f35b34801561080b57600080fd5b50610814611540565b6040516108219190613103565b60405180910390f35b34801561083657600080fd5b50610851600480360381019061084c91906137d8565b6115d2565b60405161085e9190613380565b60405180910390f35b34801561087357600080fd5b5061088e6004803603810190610889919061382b565b611609565b005b34801561089c57600080fd5b506108b760048036038101906108b29190613925565b61161f565b005b3480156108c557600080fd5b506108ce611681565b6040516108db9190613380565b60405180910390f35b6108ec611694565b005b3480156108fa57600080fd5b50610903611cd7565b604051610910919061359f565b60405180910390f35b34801561092557600080fd5b50610940600480360381019061093b919061315b565b611cdd565b60405161094d9190613103565b60405180910390f35b34801561096257600080fd5b5061096b611df0565b6040516109789190613380565b60405180910390f35b34801561098d57600080fd5b50610996611e03565b6040516109a3919061359f565b60405180910390f35b3480156109b857600080fd5b506109d360048036038101906109ce91906139a8565b611e19565b6040516109e09190613380565b60405180910390f35b3480156109f557600080fd5b50610a106004803603810190610a0b91906139e8565b611eaa565b604051610a1d919061304f565b60405180910390f35b348015610a3257600080fd5b50610a4d6004803603810190610a48919061339b565b611f3e565b005b348015610a5b57600080fd5b50610a766004803603810190610a719190613a28565b611fc2565b604051610a83919061359f565b60405180910390f35b60007f80ac58cd000000000000000000000000000000000000000000000000000000007bffffffffffffffffffffffffffffffffffffffffffffffffffffffff1916827bffffffffffffffffffffffffffffffffffffffffffffffffffffffff19161480610b5757507f5b5e139f000000000000000000000000000000000000000000000000000000007bffffffffffffffffffffffffffffffffffffffffffffffffffffffff1916827bffffffffffffffffffffffffffffffffffffffffffffffffffffffff1916145b80610b675750610b66826120e3565b5b9050919050565b606060008054610b7d90613a97565b80601f0160208091040260200160405190810160405280929190818152602001828054610ba990613a97565b8015610bf65780601f10610bcb57610100808354040283529160200191610bf6565b820191906000526020600020905b815481529060010190602001808311610bd957829003601f168201915b5050505050905090565b6000610c0b8261214d565b6004600083815260200190815260200160002060009054906101000a900473ffffffffffffffffffffffffffffffffffffffff169050919050565b6000610c518261117a565b90508073ffffffffffffffffffffffffffffffffffffffff168373ffffffffffffffffffffffffffffffffffffffff161415610cc2576040517f08c379a0000000000000000000000000000000000000000000000000000000008152600401610cb990613b3b565b60405180910390fd5b8073ffffffffffffffffffffffffffffffffffffffff16610ce1612198565b73ffffffffffffffffffffffffffffffffffffffff161480610d105750610d0f81610d0a612198565b611eaa565b5b610d4f576040517f08c379a0000000000000000000000000000000000000000000000000000000008152600401610d4690613bcd565b60405180910390fd5b610d5983836121a0565b505050565b600960009054906101000a900473ffffffffffffffffffffffffffffffffffffffff1681565b600d6020528060005260406000206000915054906101000a900473ffffffffffffffffffffffffffffffffffffffff1681565b600080821215610dd05781610dcb90613c1c565b610dd2565b815b9050919050565b600060086000815480929190610dee90613c65565b91905055506008544233604051602001610e0a93929190613d17565b60405160208183030381529060405280519060200120905090565b610e36610e30612198565b82612259565b610e75576040517f08c379a0000000000000000000000000000000000000000000000000000000008152600401610e6c90613dc6565b60405180910390fd5b610e808383836122ee565b505050565b610e8d612555565b610e956113d1565b73ffffffffffffffffffffffffffffffffffffffff166108fc479081150290604051600060405180830381858888f19350505050158015610eda573d6000803e3d6000fd5b50565b600b60049054906101000a900460ff1681565b610ef8612555565b80600960006101000a81548173ffffffffffffffffffffffffffffffffffffffff021916908373ffffffffffffffffffffffffffffffffffffffff16021790555050565b610f578383836040518060200160405280600081525061161f565b505050565b600b60079054906101000a900460ff1681565b600b60009054906101000a900460ff1681565b600c8181548110610f9257600080fd5b9060005260206000209060030201600091509050806000015490806001016040518060e00160405290816000820160009054906101000a900460ff1660ff1660ff1681526020016000820160019054906101000a900460ff1660ff1660ff1681526020016000820160029054906101000a900460ff1660ff1660ff1681526020016000820160039054906101000a900460ff1660ff1660ff1681526020016000820160049054906101000a900460ff1660ff1660ff1681526020016000820160059054906101000a900460ff1660ff1660ff1681526020016000820160069054906101000a900460ff1660ff1660ff1681525050908060020160009054906101000a900460ff16908060020160019054906101000a900460ff16908060020160029054906101000a900460ff16908060020160039054906101000a900460ff16908060020160049054906101000a900460ff16908060020160059054906101000a900460ff16905088565b600b600c9054906101000a900460ff1681565b600080858561111f9190613de6565b905060008385836111309190613e1a565b61113a9190613ea3565b905086816111489190613ed4565b92505050949350505050565b600b60089054906101000a900460ff1681565b600b60039054906101000a900460ff1681565b6000806002600084815260200190815260200160002060009054906101000a900473ffffffffffffffffffffffffffffffffffffffff169050600073ffffffffffffffffffffffffffffffffffffffff168173ffffffffffffffffffffffffffffffffffffffff161415611223576040517f08c379a000000000000000000000000000000000000000000000000000000000815260040161121a90613f76565b60405180910390fd5b80915050919050565b60008183600461123c9190613e1a565b6112469190613ed4565b905092915050565b61128d6040518060400160405280601b81526020017f4d6573736567652073656e6465722073657474696e672067616d650000000000815250336125d3565b80600c83815481106112a2576112a1613f96565b5b906000526020600020906003020160020160046101000a81548160ff0219169083151502179055505050565b600b8054906101000a900460ff1681565b600b60029054906101000a900460ff1681565b60008073ffffffffffffffffffffffffffffffffffffffff168273ffffffffffffffffffffffffffffffffffffffff161415611363576040517f08c379a000000000000000000000000000000000000000000000000000000000815260040161135a90614037565b60405180910390fd5b600360008373ffffffffffffffffffffffffffffffffffffffff1673ffffffffffffffffffffffffffffffffffffffff168152602001908152602001600020549050919050565b6113b2612555565b6113bc600061266f565b565b600b60069054906101000a900460ff1681565b6000600760009054906101000a900473ffffffffffffffffffffffffffffffffffffffff16905090565b611403612f7b565b6000831415611442576040518060400160405280600184600001516114289190614057565b60ff168152602001836020015160ff16815250905061153a565b600183141561148157604051806040016040528060018460000151611467919061408b565b60ff168152602001836020015160ff16815250905061153a565b60028314156114c0576040518060400160405280836000015160ff168152602001600184602001516114b3919061408b565b60ff16815250905061153a565b60038314156114ff576040518060400160405280836000015160ff168152602001600184602001516114f29190614057565b60ff16815250905061153a565b6040517f08c379a00000000000000000000000000000000000000000000000000000000081526004016115319061410e565b60405180910390fd5b92915050565b60606001805461154f90613a97565b80601f016020809104026020016040519081016040528092919081815260200182805461157b90613a97565b80156115c85780601f1061159d576101008083540402835291602001916115c8565b820191906000526020600020905b8154815290600101906020018083116115ab57829003601f168201915b5050505050905090565b6000808260018560026115e59190614261565b6115ef9190613de6565b60001b901b905082818616901c60001c9150509392505050565b61161b611614612198565b8383612735565b5050565b61163061162a612198565b83612259565b61166f576040517f08c379a000000000000000000000000000000000000000000000000000000000815260040161166690613dc6565b60405180910390fd5b61167b848484846128a2565b50505050565b600b60019054906101000a900460ff1681565b61169c6113d1565b73ffffffffffffffffffffffffffffffffffffffff163373ffffffffffffffffffffffffffffffffffffffff1614806116d65750600a5434145b611715576040517f08c379a000000000000000000000000000000000000000000000000000000000815260040161170c906142f8565b60405180910390fd5b61171d6113d1565b73ffffffffffffffffffffffffffffffffffffffff163373ffffffffffffffffffffffffffffffffffffffff161480611769575060011515600b60009054906101000a900460ff161515145b6117a8576040517f08c379a000000000000000000000000000000000000000000000000000000000815260040161179f90614364565b60405180910390fd5b60006117b2610dd9565b9050600c6040518061010001604052808381526020016040518060e0016040528061181860026001600b60019054906101000a900460ff166117f4919061408b565b60ff1661180e896004611809600c600161122c565b6115d2565b60ff16600f611110565b60ff16815260200161186560036001600b60029054906101000a900460ff16611841919061408b565b60ff1661185b896004611856600a600261122c565b6115d2565b60ff16600f611110565b60ff1681526020016118b260026001600b60039054906101000a900460ff1661188e919061408b565b60ff166118a88960046118a3600c600061122c565b6115d2565b60ff16600f611110565b60ff1681526020016118ff60026001600b60049054906101000a900460ff166118db919061408b565b60ff166118f58960046118f0600d600061122c565b6115d2565b60ff16600f611110565b60ff16815260200161194c60026001600b60059054906101000a900460ff16611928919061408b565b60ff1661194289600461193d600a600161122c565b6115d2565b60ff16600f611110565b60ff16815260200161199960026001600b60069054906101000a900460ff16611975919061408b565b60ff1661198f89600461198a600b600061122c565b6115d2565b60ff16600f611110565b60ff1681526020016119e660026001600b60079054906101000a900460ff166119c2919061408b565b60ff166119dc8960046119d7600a600061122c565b6115d2565b60ff16600f611110565b60ff168152508152602001600060ff168152602001611a346000600b60089054906101000a900460ff1660ff16611a2a876008611a256003600061122c565b6115d2565b60ff1660ff611110565b60ff168152602001611a756000600b60099054906101000a900460ff1660ff16611a6b876008611a666008600061122c565b6115d2565b60ff1660ff611110565b60ff168152602001611ab66000600b600a9054906101000a900460ff1660ff16611aac876008611aa76008600261122c565b6115d2565b60ff1660ff611110565b60ff1681526020016000151581526020016000151581525090806001815401808255809150506001900390600052602060002090600302016000909190919091506000820151816000015560208201518160010160008201518160000160006101000a81548160ff021916908360ff16021790555060208201518160000160016101000a81548160ff021916908360ff16021790555060408201518160000160026101000a81548160ff021916908360ff16021790555060608201518160000160036101000a81548160ff021916908360ff16021790555060808201518160000160046101000a81548160ff021916908360ff16021790555060a08201518160000160056101000a81548160ff021916908360ff16021790555060c08201518160000160066101000a81548160ff021916908360ff160217905550505060408201518160020160006101000a81548160ff021916908360ff16021790555060608201518160020160016101000a81548160ff021916908360ff16021790555060808201518160020160026101000a81548160ff021916908360ff16021790555060a08201518160020160036101000a81548160ff021916908360ff16021790555060c08201518160020160046101000a81548160ff02191690831515021790555060e08201518160020160056101000a81548160ff0219169083151502179055505050611cd4336001600c80549050611ccf9190613de6565b6128fe565b50565b600a5481565b6060611ce88261214d565b6000600660008481526020019081526020016000208054611d0890613a97565b80601f0160208091040260200160405190810160405280929190818152602001828054611d3490613a97565b8015611d815780601f10611d5657610100808354040283529160200191611d81565b820191906000526020600020905b815481529060010190602001808311611d6457829003601f168201915b505050505090506000611d9261291c565b9050600081511415611da8578192505050611deb565b600082511115611ddd578082604051602001611dc59291906143c0565b60405160208183030381529060405292505050611deb565b611de684612933565b925050505b919050565b600b60059054906101000a900460ff1681565b6000611e1160016006611e19565b60ff16905090565b600060086000815480929190611e2e90613c65565b919050555060003360085442604051602001611e4c939291906143e4565b6040516020818303038152906040528051906020012060001c9050600060018585611e779190614057565b611e81919061408b565b90508460ff168160ff1683611e969190614421565b611ea09190613ed4565b9250505092915050565b6000600560008473ffffffffffffffffffffffffffffffffffffffff1673ffffffffffffffffffffffffffffffffffffffff16815260200190815260200160002060008373ffffffffffffffffffffffffffffffffffffffff1673ffffffffffffffffffffffffffffffffffffffff16815260200190815260200160002060009054906101000a900460ff16905092915050565b611f46612555565b600073ffffffffffffffffffffffffffffffffffffffff168173ffffffffffffffffffffffffffffffffffffffff161415611fb6576040517f08c379a0000000000000000000000000000000000000000000000000000000008152600401611fad906144c4565b60405180910390fd5b611fbf8161266f565b50565b6000600182600001518460000151611fda91906144f1565b60000b1415611fec57600090506120dd565b7fffffffffffffffffffffffffffffffffffffffffffffffffffffffffffffffff8260000151846000015161202191906144f1565b60000b141561203357600190506120dd565b7fffffffffffffffffffffffffffffffffffffffffffffffffffffffffffffffff8260200151846020015161206891906144f1565b60000b141561207a57600290506120dd565b60018260200151846020015161209091906144f1565b60000b14156120a257600390506120dd565b6040517f08c379a00000000000000000000000000000000000000000000000000000000081526004016120d4906145b2565b60405180910390fd5b92915050565b60007f01ffc9a7000000000000000000000000000000000000000000000000000000007bffffffffffffffffffffffffffffffffffffffffffffffffffffffff1916827bffffffffffffffffffffffffffffffffffffffffffffffffffffffff1916149050919050565b6121568161299b565b612195576040517f08c379a000000000000000000000000000000000000000000000000000000000815260040161218c90613f76565b60405180910390fd5b50565b600033905090565b816004600083815260200190815260200160002060006101000a81548173ffffffffffffffffffffffffffffffffffffffff021916908373ffffffffffffffffffffffffffffffffffffffff160217905550808273ffffffffffffffffffffffffffffffffffffffff166122138361117a565b73ffffffffffffffffffffffffffffffffffffffff167f8c5be1e5ebec7d5bd14f71427d1e84f3dd0314c0f7b2291e5b200ac8c7c3b92560405160405180910390a45050565b6000806122658361117a565b90508073ffffffffffffffffffffffffffffffffffffffff168473ffffffffffffffffffffffffffffffffffffffff1614806122a757506122a68185611eaa565b5b806122e557508373ffffffffffffffffffffffffffffffffffffffff166122cd84610c00565b73ffffffffffffffffffffffffffffffffffffffff16145b91505092915050565b8273ffffffffffffffffffffffffffffffffffffffff1661230e8261117a565b73ffffffffffffffffffffffffffffffffffffffff1614612364576040517f08c379a000000000000000000000000000000000000000000000000000000000815260040161235b90614644565b60405180910390fd5b600073ffffffffffffffffffffffffffffffffffffffff168273ffffffffffffffffffffffffffffffffffffffff1614156123d4576040517f08c379a00000000000000000000000000000000000000000000000000000000081526004016123cb906146d6565b60405180910390fd5b6123df838383612a07565b6123ea6000826121a0565b6001600360008573ffffffffffffffffffffffffffffffffffffffff1673ffffffffffffffffffffffffffffffffffffffff168152602001908152602001600020600082825461243a9190613de6565b925050819055506001600360008473ffffffffffffffffffffffffffffffffffffffff1673ffffffffffffffffffffffffffffffffffffffff16815260200190815260200160002060008282546124919190613ed4565b92505081905550816002600083815260200190815260200160002060006101000a81548173ffffffffffffffffffffffffffffffffffffffff021916908373ffffffffffffffffffffffffffffffffffffffff160217905550808273ffffffffffffffffffffffffffffffffffffffff168473ffffffffffffffffffffffffffffffffffffffff167fddf252ad1be2c89b69c2b068fc378daa952ba7f163c4a11628f55a4df523b3ef60405160405180910390a4612550838383612a0c565b505050565b61255d612198565b73ffffffffffffffffffffffffffffffffffffffff1661257b6113d1565b73ffffffffffffffffffffffffffffffffffffffff16146125d1576040517f08c379a00000000000000000000000000000000000000000000000000000000081526004016125c890614742565b60405180910390fd5b565b61266b82826040516024016125e9929190614762565b6040516020818303038152906040527f319af333000000000000000000000000000000000000000000000000000000007bffffffffffffffffffffffffffffffffffffffffffffffffffffffff19166020820180517bffffffffffffffffffffffffffffffffffffffffffffffffffffffff8381831617835250505050612a11565b5050565b6000600760009054906101000a900473ffffffffffffffffffffffffffffffffffffffff16905081600760006101000a81548173ffffffffffffffffffffffffffffffffffffffff021916908373ffffffffffffffffffffffffffffffffffffffff1602179055508173ffffffffffffffffffffffffffffffffffffffff168173ffffffffffffffffffffffffffffffffffffffff167f8be0079c531659141344cd1fd0a4f28419497f9722a3daafe3b4186f6b6457e060405160405180910390a35050565b8173ffffffffffffffffffffffffffffffffffffffff168373ffffffffffffffffffffffffffffffffffffffff1614156127a4576040517f08c379a000000000000000000000000000000000000000000000000000000000815260040161279b906147de565b60405180910390fd5b80600560008573ffffffffffffffffffffffffffffffffffffffff1673ffffffffffffffffffffffffffffffffffffffff16815260200190815260200160002060008473ffffffffffffffffffffffffffffffffffffffff1673ffffffffffffffffffffffffffffffffffffffff16815260200190815260200160002060006101000a81548160ff0219169083151502179055508173ffffffffffffffffffffffffffffffffffffffff168373ffffffffffffffffffffffffffffffffffffffff167f17307eab39ab6107e8899845ad3d59bd9653f200f220920489ca2b5937696c3183604051612895919061304f565b60405180910390a3505050565b6128ad8484846122ee565b6128b984848484612a3a565b6128f8576040517f08c379a00000000000000000000000000000000000000000000000000000000081526004016128ef90614870565b60405180910390fd5b50505050565b612918828260405180602001604052806000815250612bc2565b5050565b606060405180602001604052806000815250905090565b606061293e8261214d565b600061294861291c565b905060008151116129685760405180602001604052806000815250612993565b8061297284612c1d565b6040516020016129839291906143c0565b6040516020818303038152906040525b915050919050565b60008073ffffffffffffffffffffffffffffffffffffffff166002600084815260200190815260200160002060009054906101000a900473ffffffffffffffffffffffffffffffffffffffff1673ffffffffffffffffffffffffffffffffffffffff1614159050919050565b505050565b505050565b60008151905060006a636f6e736f6c652e6c6f679050602083016000808483855afa5050505050565b6000612a5b8473ffffffffffffffffffffffffffffffffffffffff16612d7e565b15612bb5578373ffffffffffffffffffffffffffffffffffffffff1663150b7a02612a84612198565b8786866040518563ffffffff1660e01b8152600401612aa694939291906148e5565b6020604051808303816000875af1925050508015612ae257506040513d601f19601f82011682018060405250810190612adf9190614946565b60015b612b65573d8060008114612b12576040519150601f19603f3d011682016040523d82523d6000602084013e612b17565b606091505b50600081511415612b5d576040517f08c379a0000000000000000000000000000000000000000000000000000000008152600401612b5490614870565b60405180910390fd5b805181602001fd5b63150b7a0260e01b7bffffffffffffffffffffffffffffffffffffffffffffffffffffffff1916817bffffffffffffffffffffffffffffffffffffffffffffffffffffffff191614915050612bba565b600190505b949350505050565b612bcc8383612da1565b612bd96000848484612a3a565b612c18576040517f08c379a0000000000000000000000000000000000000000000000000000000008152600401612c0f90614870565b60405180910390fd5b505050565b60606000821415612c65576040518060400160405280600181526020017f30000000000000000000000000000000000000000000000000000000000000008152509050612d79565b600082905060005b60008214612c97578080612c8090613c65565b915050600a82612c909190613ea3565b9150612c6d565b60008167ffffffffffffffff811115612cb357612cb261362b565b5b6040519080825280601f01601f191660200182016040528015612ce55781602001600182028036833780820191505090505b5090505b60008514612d7257600182612cfe9190613de6565b9150600a85612d0d9190614421565b6030612d199190613ed4565b60f81b818381518110612d2f57612d2e613f96565b5b60200101907effffffffffffffffffffffffffffffffffffffffffffffffffffffffffffff1916908160001a905350600a85612d6b9190613ea3565b9450612ce9565b8093505050505b919050565b6000808273ffffffffffffffffffffffffffffffffffffffff163b119050919050565b600073ffffffffffffffffffffffffffffffffffffffff168273ffffffffffffffffffffffffffffffffffffffff161415612e11576040517f08c379a0000000000000000000000000000000000000000000000000000000008152600401612e08906149bf565b60405180910390fd5b612e1a8161299b565b15612e5a576040517f08c379a0000000000000000000000000000000000000000000000000000000008152600401612e5190614a2b565b60405180910390fd5b612e6660008383612a07565b6001600360008473ffffffffffffffffffffffffffffffffffffffff1673ffffffffffffffffffffffffffffffffffffffff1681526020019081526020016000206000828254612eb69190613ed4565b92505081905550816002600083815260200190815260200160002060006101000a81548173ffffffffffffffffffffffffffffffffffffffff021916908373ffffffffffffffffffffffffffffffffffffffff160217905550808273ffffffffffffffffffffffffffffffffffffffff16600073ffffffffffffffffffffffffffffffffffffffff167fddf252ad1be2c89b69c2b068fc378daa952ba7f163c4a11628f55a4df523b3ef60405160405180910390a4612f7760008383612a0c565b5050565b6040518060400160405280600060ff168152602001600060ff1681525090565b6000604051905090565b600080fd5b600080fd5b60007fffffffff0000000000000000000000000000000000000000000000000000000082169050919050565b612fe481612faf565b8114612fef57600080fd5b50565b60008135905061300181612fdb565b92915050565b60006020828403121561301d5761301c612fa5565b5b600061302b84828501612ff2565b91505092915050565b60008115159050919050565b61304981613034565b82525050565b60006020820190506130646000830184613040565b92915050565b600081519050919050565b600082825260208201905092915050565b60005b838110156130a4578082015181840152602081019050613089565b838111156130b3576000848401525b50505050565b6000601f19601f8301169050919050565b60006130d58261306a565b6130df8185613075565b93506130ef818560208601613086565b6130f8816130b9565b840191505092915050565b6000602082019050818103600083015261311d81846130ca565b905092915050565b6000819050919050565b61313881613125565b811461314357600080fd5b50565b6000813590506131558161312f565b92915050565b60006020828403121561317157613170612fa5565b5b600061317f84828501613146565b91505092915050565b600073ffffffffffffffffffffffffffffffffffffffff82169050919050565b60006131b382613188565b9050919050565b6131c3816131a8565b82525050565b60006020820190506131de60008301846131ba565b92915050565b6131ed816131a8565b81146131f857600080fd5b50565b60008135905061320a816131e4565b92915050565b6000806040838503121561322757613226612fa5565b5b6000613235858286016131fb565b925050602061324685828601613146565b9150509250929050565b6000819050919050565b61326381613250565b811461326e57600080fd5b50565b6000813590506132808161325a565b92915050565b60006020828403121561329c5761329b612fa5565b5b60006132aa84828501613271565b91505092915050565b6132bc81613250565b82525050565b60006020820190506132d760008301846132b3565b92915050565b6000819050919050565b6132f0816132dd565b82525050565b600060208201905061330b60008301846132e7565b92915050565b60008060006060848603121561332a57613329612fa5565b5b6000613338868287016131fb565b9350506020613349868287016131fb565b925050604061335a86828701613146565b9150509250925092565b600060ff82169050919050565b61337a81613364565b82525050565b60006020820190506133956000830184613371565b92915050565b6000602082840312156133b1576133b0612fa5565b5b60006133bf848285016131fb565b91505092915050565b6133d181613364565b82525050565b60e0820160008201516133ed60008501826133c8565b50602082015161340060208501826133c8565b50604082015161341360408501826133c8565b50606082015161342660608501826133c8565b50608082015161343960808501826133c8565b5060a082015161344c60a08501826133c8565b5060c082015161345f60c08501826133c8565b50505050565b60006101c08201905061347b600083018b6132e7565b613488602083018a6133d7565b613496610100830189613371565b6134a4610120830188613371565b6134b2610140830187613371565b6134c0610160830186613371565b6134ce610180830185613040565b6134dc6101a0830184613040565b9998505050505050505050565b6000806000806080858703121561350357613502612fa5565b5b600061351187828801613146565b945050602061352287828801613146565b935050604061353387828801613146565b925050606061354487828801613146565b91505092959194509250565b6000806040838503121561356757613566612fa5565b5b600061357585828601613146565b925050602061358685828601613146565b9150509250929050565b61359981613125565b82525050565b60006020820190506135b46000830184613590565b92915050565b6135c381613034565b81146135ce57600080fd5b50565b6000813590506135e0816135ba565b92915050565b600080604083850312156135fd576135fc612fa5565b5b600061360b85828601613146565b925050602061361c858286016135d1565b9150509250929050565b600080fd5b7f4e487b7100000000000000000000000000000000000000000000000000000000600052604160045260246000fd5b613663826130b9565b810181811067ffffffffffffffff821117156136825761368161362b565b5b80604052505050565b6000613695612f9b565b90506136a1828261365a565b919050565b6136af81613364565b81146136ba57600080fd5b50565b6000813590506136cc816136a6565b92915050565b6000604082840312156136e8576136e7613626565b5b6136f2604061368b565b90506000613702848285016136bd565b6000830152506020613716848285016136bd565b60208301525092915050565b6000806060838503121561373957613738612fa5565b5b600061374785828601613146565b9250506020613758858286016136d2565b9150509250929050565b60408201600082015161377860008501826133c8565b50602082015161378b60208501826133c8565b50505050565b60006040820190506137a66000830184613762565b92915050565b6137b5816132dd565b81146137c057600080fd5b50565b6000813590506137d2816137ac565b92915050565b6000806000606084860312156137f1576137f0612fa5565b5b60006137ff868287016137c3565b935050602061381086828701613146565b925050604061382186828701613146565b9150509250925092565b6000806040838503121561384257613841612fa5565b5b6000613850858286016131fb565b9250506020613861858286016135d1565b9150509250929050565b600080fd5b600080fd5b600067ffffffffffffffff8211156138905761388f61362b565b5b613899826130b9565b9050602081019050919050565b82818337600083830152505050565b60006138c86138c384613875565b61368b565b9050828152602081018484840111156138e4576138e3613870565b5b6138ef8482856138a6565b509392505050565b600082601f83011261390c5761390b61386b565b5b813561391c8482602086016138b5565b91505092915050565b6000806000806080858703121561393f5761393e612fa5565b5b600061394d878288016131fb565b945050602061395e878288016131fb565b935050604061396f87828801613146565b925050606085013567ffffffffffffffff8111156139905761398f612faa565b5b61399c878288016138f7565b91505092959194509250565b600080604083850312156139bf576139be612fa5565b5b60006139cd858286016136bd565b92505060206139de858286016136bd565b9150509250929050565b600080604083850312156139ff576139fe612fa5565b5b6000613a0d858286016131fb565b9250506020613a1e858286016131fb565b9150509250929050565b60008060808385031215613a3f57613a3e612fa5565b5b6000613a4d858286016136d2565b9250506040613a5e858286016136d2565b9150509250929050565b7f4e487b7100000000000000000000000000000000000000000000000000000000600052602260045260246000fd5b60006002820490506001821680613aaf57607f821691505b60208210811415613ac357613ac2613a68565b5b50919050565b7f4552433732313a20617070726f76616c20746f2063757272656e74206f776e6560008201527f7200000000000000000000000000000000000000000000000000000000000000602082015250565b6000613b25602183613075565b9150613b3082613ac9565b604082019050919050565b60006020820190508181036000830152613b5481613b18565b9050919050565b7f4552433732313a20617070726f76652063616c6c6572206973206e6f7420746f60008201527f6b656e206f776e6572206e6f7220617070726f76656420666f7220616c6c0000602082015250565b6000613bb7603e83613075565b9150613bc282613b5b565b604082019050919050565b60006020820190508181036000830152613be681613baa565b9050919050565b7f4e487b7100000000000000000000000000000000000000000000000000000000600052601160045260246000fd5b6000613c2782613250565b91507f8000000000000000000000000000000000000000000000000000000000000000821415613c5a57613c59613bed565b5b816000039050919050565b6000613c7082613125565b91507fffffffffffffffffffffffffffffffffffffffffffffffffffffffffffffffff821415613ca357613ca2613bed565b5b600182019050919050565b6000819050919050565b613cc9613cc482613125565b613cae565b82525050565b60008160601b9050919050565b6000613ce782613ccf565b9050919050565b6000613cf982613cdc565b9050919050565b613d11613d0c826131a8565b613cee565b82525050565b6000613d238286613cb8565b602082019150613d338285613cb8565b602082019150613d438284613d00565b601482019150819050949350505050565b7f4552433732313a2063616c6c6572206973206e6f7420746f6b656e206f776e6560008201527f72206e6f7220617070726f766564000000000000000000000000000000000000602082015250565b6000613db0602e83613075565b9150613dbb82613d54565b604082019050919050565b60006020820190508181036000830152613ddf81613da3565b9050919050565b6000613df182613125565b9150613dfc83613125565b925082821015613e0f57613e0e613bed565b5b828203905092915050565b6000613e2582613125565b9150613e3083613125565b9250817fffffffffffffffffffffffffffffffffffffffffffffffffffffffffffffffff0483118215151615613e6957613e68613bed565b5b828202905092915050565b7f4e487b7100000000000000000000000000000000000000000000000000000000600052601260045260246000fd5b6000613eae82613125565b9150613eb983613125565b925082613ec957613ec8613e74565b5b828204905092915050565b6000613edf82613125565b9150613eea83613125565b9250827fffffffffffffffffffffffffffffffffffffffffffffffffffffffffffffffff03821115613f1f57613f1e613bed565b5b828201905092915050565b7f4552433732313a20696e76616c696420746f6b656e2049440000000000000000600082015250565b6000613f60601883613075565b9150613f6b82613f2a565b602082019050919050565b60006020820190508181036000830152613f8f81613f53565b9050919050565b7f4e487b7100000000000000000000000000000000000000000000000000000000600052603260045260246000fd5b7f4552433732313a2061646472657373207a65726f206973206e6f74206120766160008201527f6c6964206f776e65720000000000000000000000000000000000000000000000602082015250565b6000614021602983613075565b915061402c82613fc5565b604082019050919050565b6000602082019050818103600083015261405081614014565b9050919050565b600061406282613364565b915061406d83613364565b9250828210156140805761407f613bed565b5b828203905092915050565b600061409682613364565b91506140a183613364565b92508260ff038211156140b7576140b6613bed565b5b828201905092915050565b7f496e76616c696420646972656374696f6e000000000000000000000000000000600082015250565b60006140f8601183613075565b9150614103826140c2565b602082019050919050565b60006020820190508181036000830152614127816140eb565b9050919050565b60008160011c9050919050565b6000808291508390505b60018511156141855780860481111561416157614160613bed565b5b60018516156141705780820291505b808102905061417e8561412e565b9450614145565b94509492505050565b60008261419e576001905061425a565b816141ac576000905061425a565b81600181146141c257600281146141cc576141fb565b600191505061425a565b60ff8411156141de576141dd613bed565b5b8360020a9150848211156141f5576141f4613bed565b5b5061425a565b5060208310610133831016604e8410600b84101617156142305782820a90508381111561422b5761422a613bed565b5b61425a565b61423d848484600161413b565b9250905081840481111561425457614253613bed565b5b81810290505b9392505050565b600061426c82613125565b915061427783613125565b92506142a47fffffffffffffffffffffffffffffffffffffffffffffffffffffffffffffffff848461418e565b905092915050565b7f696e636f7272656374207061796d656e74000000000000000000000000000000600082015250565b60006142e2601183613075565b91506142ed826142ac565b602082019050919050565b60006020820190508181036000830152614311816142d5565b9050919050565b7f6d696e74696e67206973206e6f74206163746976650000000000000000000000600082015250565b600061434e601583613075565b915061435982614318565b602082019050919050565b6000602082019050818103600083015261437d81614341565b9050919050565b600081905092915050565b600061439a8261306a565b6143a48185614384565b93506143b4818560208601613086565b80840191505092915050565b60006143cc828561438f565b91506143d8828461438f565b91508190509392505050565b60006143f08286613d00565b6014820191506144008285613cb8565b6020820191506144108284613cb8565b602082019150819050949350505050565b600061442c82613125565b915061443783613125565b92508261444757614446613e74565b5b828206905092915050565b7f4f776e61626c653a206e6577206f776e657220697320746865207a65726f206160008201527f6464726573730000000000000000000000000000000000000000000000000000602082015250565b60006144ae602683613075565b91506144b982614452565b604082019050919050565b600060208201905081810360008301526144dd816144a1565b9050919050565b60008160000b9050919050565b60006144fc826144e4565b9150614507836144e4565b9250827fffffffffffffffffffffffffffffffffffffffffffffffffffffffffffffff800182126000841215161561454257614541613bed565b5b82607f01821360008412161561455b5761455a613bed565b5b828203905092915050565b7f4572726f723a204e6f742061646a6163656e7400000000000000000000000000600082015250565b600061459c601383613075565b91506145a782614566565b602082019050919050565b600060208201905081810360008301526145cb8161458f565b9050919050565b7f4552433732313a207472616e736665722066726f6d20696e636f72726563742060008201527f6f776e6572000000000000000000000000000000000000000000000000000000602082015250565b600061462e602583613075565b9150614639826145d2565b604082019050919050565b6000602082019050818103600083015261465d81614621565b9050919050565b7f4552433732313a207472616e7366657220746f20746865207a65726f2061646460008201527f7265737300000000000000000000000000000000000000000000000000000000602082015250565b60006146c0602483613075565b91506146cb82614664565b604082019050919050565b600060208201905081810360008301526146ef816146b3565b9050919050565b7f4f776e61626c653a2063616c6c6572206973206e6f7420746865206f776e6572600082015250565b600061472c602083613075565b9150614737826146f6565b602082019050919050565b6000602082019050818103600083015261475b8161471f565b9050919050565b6000604082019050818103600083015261477c81856130ca565b905061478b60208301846131ba565b9392505050565b7f4552433732313a20617070726f766520746f2063616c6c657200000000000000600082015250565b60006147c8601983613075565b91506147d382614792565b602082019050919050565b600060208201905081810360008301526147f7816147bb565b9050919050565b7f4552433732313a207472616e7366657220746f206e6f6e20455243373231526560008201527f63656976657220696d706c656d656e7465720000000000000000000000000000602082015250565b600061485a603283613075565b9150614865826147fe565b604082019050919050565b600060208201905081810360008301526148898161484d565b9050919050565b600081519050919050565b600082825260208201905092915050565b60006148b782614890565b6148c1818561489b565b93506148d1818560208601613086565b6148da816130b9565b840191505092915050565b60006080820190506148fa60008301876131ba565b61490760208301866131ba565b6149146040830185613590565b818103606083015261492681846148ac565b905095945050505050565b60008151905061494081612fdb565b92915050565b60006020828403121561495c5761495b612fa5565b5b600061496a84828501614931565b91505092915050565b7f4552433732313a206d696e7420746f20746865207a65726f2061646472657373600082015250565b60006149a9602083613075565b91506149b482614973565b602082019050919050565b600060208201905081810360008301526149d88161499c565b9050919050565b7f4552433732313a20746f6b656e20616c7265616479206d696e74656400000000600082015250565b6000614a15601c83613075565b9150614a20826149df565b602082019050919050565b60006020820190508181036000830152614a4481614a08565b905091905056fea2646970667358221220ae1d9f22bce9b4e653891389682e99feda0dd858af9e044e441fcbfc9c2a44e664736f6c634300080c0033",
  "devdoc": {
    "kind": "dev",
    "methods": {
      "approve(address,uint256)": {
        "details": "See {IERC721-approve}."
      },
      "balanceOf(address)": {
        "details": "See {IERC721-balanceOf}."
      },
      "getApproved(uint256)": {
        "details": "See {IERC721-getApproved}."
      },
      "isApprovedForAll(address,address)": {
        "details": "See {IERC721-isApprovedForAll}."
      },
      "name()": {
        "details": "See {IERC721Metadata-name}."
      },
      "owner()": {
        "details": "Returns the address of the current owner."
      },
      "ownerOf(uint256)": {
        "details": "See {IERC721-ownerOf}."
      },
      "renounceOwnership()": {
        "details": "Leaves the contract without owner. It will not be possible to call `onlyOwner` functions anymore. Can only be called by the current owner. NOTE: Renouncing ownership will leave the contract without an owner, thereby removing any functionality that is only available to the owner."
      },
      "safeTransferFrom(address,address,uint256)": {
        "details": "See {IERC721-safeTransferFrom}."
      },
      "safeTransferFrom(address,address,uint256,bytes)": {
        "details": "See {IERC721-safeTransferFrom}."
      },
      "setApprovalForAll(address,bool)": {
        "details": "See {IERC721-setApprovalForAll}."
      },
      "supportsInterface(bytes4)": {
        "details": "See {IERC165-supportsInterface}."
      },
      "symbol()": {
        "details": "See {IERC721Metadata-symbol}."
      },
      "tokenURI(uint256)": {
        "details": "See {IERC721Metadata-tokenURI}."
      },
      "transferFrom(address,address,uint256)": {
        "details": "See {IERC721-transferFrom}."
      },
      "transferOwnership(address)": {
        "details": "Transfers ownership of the contract to a new account (`newOwner`). Can only be called by the current owner."
      }
    },
    "version": 1
  },
  "userdoc": {
    "kind": "user",
    "methods": {},
    "version": 1
  },
  "storageLayout": {
    "storage": [
      {
        "astId": 138,
        "contract": "contracts/BCChars.sol:BCChars",
        "label": "_name",
        "offset": 0,
        "slot": "0",
        "type": "t_string_storage"
      },
      {
        "astId": 140,
        "contract": "contracts/BCChars.sol:BCChars",
        "label": "_symbol",
        "offset": 0,
        "slot": "1",
        "type": "t_string_storage"
      },
      {
        "astId": 144,
        "contract": "contracts/BCChars.sol:BCChars",
        "label": "_owners",
        "offset": 0,
        "slot": "2",
        "type": "t_mapping(t_uint256,t_address)"
      },
      {
        "astId": 148,
        "contract": "contracts/BCChars.sol:BCChars",
        "label": "_balances",
        "offset": 0,
        "slot": "3",
        "type": "t_mapping(t_address,t_uint256)"
      },
      {
        "astId": 152,
        "contract": "contracts/BCChars.sol:BCChars",
        "label": "_tokenApprovals",
        "offset": 0,
        "slot": "4",
        "type": "t_mapping(t_uint256,t_address)"
      },
      {
        "astId": 158,
        "contract": "contracts/BCChars.sol:BCChars",
        "label": "_operatorApprovals",
        "offset": 0,
        "slot": "5",
        "type": "t_mapping(t_address,t_mapping(t_address,t_bool))"
      },
      {
        "astId": 1126,
        "contract": "contracts/BCChars.sol:BCChars",
        "label": "_tokenURIs",
        "offset": 0,
        "slot": "6",
        "type": "t_mapping(t_uint256,t_string_storage)"
      },
      {
        "astId": 7,
        "contract": "contracts/BCChars.sol:BCChars",
        "label": "_owner",
        "offset": 0,
        "slot": "7",
        "type": "t_address"
      },
      {
        "astId": 5599,
        "contract": "contracts/BCChars.sol:BCChars",
        "label": "TODO_randomSeed",
        "offset": 0,
        "slot": "8",
        "type": "t_uint256"
      },
      {
        "astId": 1934,
        "contract": "contracts/BCChars.sol:BCChars",
        "label": "gamesContract",
        "offset": 0,
        "slot": "9",
        "type": "t_address"
      },
      {
        "astId": 1937,
        "contract": "contracts/BCChars.sol:BCChars",
        "label": "mintCost",
        "offset": 0,
        "slot": "10",
        "type": "t_uint256"
      },
      {
        "astId": 1940,
        "contract": "contracts/BCChars.sol:BCChars",
        "label": "mintIsActive",
        "offset": 0,
        "slot": "11",
        "type": "t_bool"
      },
      {
        "astId": 1943,
        "contract": "contracts/BCChars.sol:BCChars",
        "label": "healthCap",
        "offset": 1,
        "slot": "11",
        "type": "t_uint8"
      },
      {
        "astId": 1946,
        "contract": "contracts/BCChars.sol:BCChars",
        "label": "carryCap",
        "offset": 2,
        "slot": "11",
        "type": "t_uint8"
      },
      {
        "astId": 1949,
        "contract": "contracts/BCChars.sol:BCChars",
        "label": "defenseCap",
        "offset": 3,
        "slot": "11",
        "type": "t_uint8"
      },
      {
        "astId": 1952,
        "contract": "contracts/BCChars.sol:BCChars",
        "label": "hackCap",
        "offset": 4,
        "slot": "11",
        "type": "t_uint8"
      },
      {
        "astId": 1955,
        "contract": "contracts/BCChars.sol:BCChars",
        "label": "breachCap",
        "offset": 5,
        "slot": "11",
        "type": "t_uint8"
      },
      {
        "astId": 1958,
        "contract": "contracts/BCChars.sol:BCChars",
        "label": "shootCap",
        "offset": 6,
        "slot": "11",
        "type": "t_uint8"
      },
      {
        "astId": 1961,
        "contract": "contracts/BCChars.sol:BCChars",
        "label": "meleeCap",
        "offset": 7,
        "slot": "11",
        "type": "t_uint8"
      },
      {
        "astId": 1964,
        "contract": "contracts/BCChars.sol:BCChars",
        "label": "maxClonesCap",
        "offset": 8,
        "slot": "11",
        "type": "t_uint8"
      },
      {
        "astId": 1967,
        "contract": "contracts/BCChars.sol:BCChars",
        "label": "abilityCap",
        "offset": 9,
        "slot": "11",
        "type": "t_uint8"
      },
      {
        "astId": 1970,
        "contract": "contracts/BCChars.sol:BCChars",
        "label": "flawCap",
        "offset": 10,
        "slot": "11",
        "type": "t_uint8"
      },
      {
        "astId": 1973,
        "contract": "contracts/BCChars.sol:BCChars",
        "label": "decantMin",
        "offset": 11,
        "slot": "11",
        "type": "t_uint8"
      },
      {
        "astId": 1976,
        "contract": "contracts/BCChars.sol:BCChars",
        "label": "decantMax",
        "offset": 12,
        "slot": "11",
        "type": "t_uint8"
      },
      {
        "astId": 1980,
        "contract": "contracts/BCChars.sol:BCChars",
        "label": "characters",
        "offset": 0,
        "slot": "12",
        "type": "t_array(t_struct(Character)5591_storage)dyn_storage"
      },
      {
        "astId": 1984,
        "contract": "contracts/BCChars.sol:BCChars",
        "label": "characterToOwner",
        "offset": 0,
        "slot": "13",
        "type": "t_mapping(t_uint256,t_address)"
      }
    ],
    "types": {
      "t_address": {
        "encoding": "inplace",
        "label": "address",
        "numberOfBytes": "20"
      },
      "t_array(t_struct(Character)5591_storage)dyn_storage": {
        "base": "t_struct(Character)5591_storage",
        "encoding": "dynamic_array",
        "label": "struct BCTypes.Character[]",
        "numberOfBytes": "32"
      },
      "t_bool": {
        "encoding": "inplace",
        "label": "bool",
        "numberOfBytes": "1"
      },
      "t_bytes32": {
        "encoding": "inplace",
        "label": "bytes32",
        "numberOfBytes": "32"
      },
      "t_mapping(t_address,t_bool)": {
        "encoding": "mapping",
        "key": "t_address",
        "label": "mapping(address => bool)",
        "numberOfBytes": "32",
        "value": "t_bool"
      },
      "t_mapping(t_address,t_mapping(t_address,t_bool))": {
        "encoding": "mapping",
        "key": "t_address",
        "label": "mapping(address => mapping(address => bool))",
        "numberOfBytes": "32",
        "value": "t_mapping(t_address,t_bool)"
      },
      "t_mapping(t_address,t_uint256)": {
        "encoding": "mapping",
        "key": "t_address",
        "label": "mapping(address => uint256)",
        "numberOfBytes": "32",
        "value": "t_uint256"
      },
      "t_mapping(t_uint256,t_address)": {
        "encoding": "mapping",
        "key": "t_uint256",
        "label": "mapping(uint256 => address)",
        "numberOfBytes": "32",
        "value": "t_address"
      },
      "t_mapping(t_uint256,t_string_storage)": {
        "encoding": "mapping",
        "key": "t_uint256",
        "label": "mapping(uint256 => string)",
        "numberOfBytes": "32",
        "value": "t_string_storage"
      },
      "t_string_storage": {
        "encoding": "bytes",
        "label": "string",
        "numberOfBytes": "32"
      },
      "t_struct(Character)5591_storage": {
        "encoding": "inplace",
        "label": "struct BCTypes.Character",
        "members": [
          {
            "astId": 5575,
            "contract": "contracts/BCChars.sol:BCChars",
            "label": "genHash",
            "offset": 0,
            "slot": "0",
            "type": "t_bytes32"
          },
          {
            "astId": 5578,
            "contract": "contracts/BCChars.sol:BCChars",
            "label": "traits",
            "offset": 0,
            "slot": "1",
            "type": "t_struct(Traits)5573_storage"
          },
          {
            "astId": 5580,
            "contract": "contracts/BCChars.sol:BCChars",
            "label": "cloneNumber",
            "offset": 0,
            "slot": "2",
            "type": "t_uint8"
          },
          {
            "astId": 5582,
            "contract": "contracts/BCChars.sol:BCChars",
            "label": "maxClones",
            "offset": 1,
            "slot": "2",
            "type": "t_uint8"
          },
          {
            "astId": 5584,
            "contract": "contracts/BCChars.sol:BCChars",
            "label": "ability",
            "offset": 2,
            "slot": "2",
            "type": "t_uint8"
          },
          {
            "astId": 5586,
            "contract": "contracts/BCChars.sol:BCChars",
            "label": "flaw",
            "offset": 3,
            "slot": "2",
            "type": "t_uint8"
          },
          {
            "astId": 5588,
            "contract": "contracts/BCChars.sol:BCChars",
            "label": "inGame",
            "offset": 4,
            "slot": "2",
            "type": "t_bool"
          },
          {
            "astId": 5590,
            "contract": "contracts/BCChars.sol:BCChars",
            "label": "dead",
            "offset": 5,
            "slot": "2",
            "type": "t_bool"
          }
        ],
        "numberOfBytes": "96"
      },
      "t_struct(Traits)5573_storage": {
        "encoding": "inplace",
        "label": "struct BCTypes.Traits",
        "members": [
          {
            "astId": 5560,
            "contract": "contracts/BCChars.sol:BCChars",
            "label": "health",
            "offset": 0,
            "slot": "0",
            "type": "t_uint8"
          },
          {
            "astId": 5562,
            "contract": "contracts/BCChars.sol:BCChars",
            "label": "carry",
            "offset": 1,
            "slot": "0",
            "type": "t_uint8"
          },
          {
            "astId": 5564,
            "contract": "contracts/BCChars.sol:BCChars",
            "label": "defense",
            "offset": 2,
            "slot": "0",
            "type": "t_uint8"
          },
          {
            "astId": 5566,
            "contract": "contracts/BCChars.sol:BCChars",
            "label": "hack",
            "offset": 3,
            "slot": "0",
            "type": "t_uint8"
          },
          {
            "astId": 5568,
            "contract": "contracts/BCChars.sol:BCChars",
            "label": "breach",
            "offset": 4,
            "slot": "0",
            "type": "t_uint8"
          },
          {
            "astId": 5570,
            "contract": "contracts/BCChars.sol:BCChars",
            "label": "shoot",
            "offset": 5,
            "slot": "0",
            "type": "t_uint8"
          },
          {
            "astId": 5572,
            "contract": "contracts/BCChars.sol:BCChars",
            "label": "melee",
            "offset": 6,
            "slot": "0",
            "type": "t_uint8"
          }
        ],
        "numberOfBytes": "32"
      },
      "t_uint256": {
        "encoding": "inplace",
        "label": "uint256",
        "numberOfBytes": "32"
      },
      "t_uint8": {
        "encoding": "inplace",
        "label": "uint8",
        "numberOfBytes": "1"
      }
    }
  }
}