{
  "address": "0x42e87A46D8B0955aF12d8e9B11E3180e8e9d8659",
  "abi": [
    {
      "inputs": [],
      "stateMutability": "nonpayable",
      "type": "constructor"
    },
    {
      "anonymous": false,
      "inputs": [
        {
          "indexed": true,
          "internalType": "address",
          "name": "owner",
          "type": "address"
        },
        {
          "indexed": true,
          "internalType": "address",
          "name": "approved",
          "type": "address"
        },
        {
          "indexed": true,
          "internalType": "uint256",
          "name": "tokenId",
          "type": "uint256"
        }
      ],
      "name": "Approval",
      "type": "event"
    },
    {
      "anonymous": false,
      "inputs": [
        {
          "indexed": true,
          "internalType": "address",
          "name": "owner",
          "type": "address"
        },
        {
          "indexed": true,
          "internalType": "address",
          "name": "operator",
          "type": "address"
        },
        {
          "indexed": false,
          "internalType": "bool",
          "name": "approved",
          "type": "bool"
        }
      ],
      "name": "ApprovalForAll",
      "type": "event"
    },
    {
      "anonymous": false,
      "inputs": [
        {
          "indexed": true,
          "internalType": "address",
          "name": "previousOwner",
          "type": "address"
        },
        {
          "indexed": true,
          "internalType": "address",
          "name": "newOwner",
          "type": "address"
        }
      ],
      "name": "OwnershipTransferred",
      "type": "event"
    },
    {
      "anonymous": false,
      "inputs": [
        {
          "indexed": true,
          "internalType": "address",
          "name": "from",
          "type": "address"
        },
        {
          "indexed": true,
          "internalType": "address",
          "name": "to",
          "type": "address"
        },
        {
          "indexed": true,
          "internalType": "uint256",
          "name": "tokenId",
          "type": "uint256"
        }
      ],
      "name": "Transfer",
      "type": "event"
    },
    {
      "inputs": [
        {
          "internalType": "int256",
          "name": "x",
          "type": "int256"
        }
      ],
      "name": "abs",
      "outputs": [
        {
          "internalType": "int256",
          "name": "",
          "type": "int256"
        }
      ],
      "stateMutability": "pure",
      "type": "function"
    },
    {
      "inputs": [
        {
          "internalType": "address",
          "name": "to",
          "type": "address"
        },
        {
          "internalType": "uint256",
          "name": "tokenId",
          "type": "uint256"
        }
      ],
      "name": "approve",
      "outputs": [],
      "stateMutability": "nonpayable",
      "type": "function"
    },
    {
      "inputs": [
        {
          "internalType": "address",
          "name": "owner",
          "type": "address"
        }
      ],
      "name": "balanceOf",
      "outputs": [
        {
          "internalType": "uint256",
          "name": "",
          "type": "uint256"
        }
      ],
      "stateMutability": "view",
      "type": "function"
    },
    {
      "inputs": [],
      "name": "breachCap",
      "outputs": [
        {
          "internalType": "uint8",
          "name": "",
          "type": "uint8"
        }
      ],
      "stateMutability": "view",
      "type": "function"
    },
    {
      "inputs": [],
      "name": "carryCap",
      "outputs": [
        {
          "internalType": "uint8",
          "name": "",
          "type": "uint8"
        }
      ],
      "stateMutability": "view",
      "type": "function"
    },
    {
      "inputs": [
        {
          "internalType": "uint256",
          "name": "",
          "type": "uint256"
        }
      ],
      "name": "characters",
      "outputs": [
        {
          "internalType": "bytes32",
          "name": "genHash",
          "type": "bytes32"
        },
        {
          "components": [
            {
              "internalType": "uint8",
              "name": "health",
              "type": "uint8"
            },
            {
              "internalType": "uint8",
              "name": "carry",
              "type": "uint8"
            },
            {
              "internalType": "uint8",
              "name": "defense",
              "type": "uint8"
            },
            {
              "internalType": "uint8",
              "name": "hack",
              "type": "uint8"
            },
            {
              "internalType": "uint8",
              "name": "breach",
              "type": "uint8"
            },
            {
              "internalType": "uint8",
              "name": "shoot",
              "type": "uint8"
            },
            {
              "internalType": "uint8",
              "name": "melee",
              "type": "uint8"
            }
          ],
          "internalType": "struct BCTypes.Traits",
          "name": "traits",
          "type": "tuple"
        },
        {
          "internalType": "uint8",
          "name": "cloneNumber",
          "type": "uint8"
        },
        {
          "internalType": "uint8",
          "name": "maxClones",
          "type": "uint8"
        },
        {
          "internalType": "uint8",
          "name": "ability",
          "type": "uint8"
        },
        {
          "internalType": "uint8",
          "name": "flaw",
          "type": "uint8"
        },
        {
          "internalType": "bool",
          "name": "inGame",
          "type": "bool"
        },
        {
          "internalType": "bool",
          "name": "dead",
          "type": "bool"
        }
      ],
      "stateMutability": "view",
      "type": "function"
    },
    {
      "inputs": [],
      "name": "decantNewClone",
      "outputs": [],
      "stateMutability": "payable",
      "type": "function"
    },
    {
      "inputs": [],
      "name": "defenseCap",
      "outputs": [
        {
          "internalType": "uint8",
          "name": "",
          "type": "uint8"
        }
      ],
      "stateMutability": "view",
      "type": "function"
    },
    {
      "inputs": [],
      "name": "gamesContract",
      "outputs": [
        {
          "internalType": "address",
          "name": "",
          "type": "address"
        }
      ],
      "stateMutability": "view",
      "type": "function"
    },
    {
      "inputs": [
        {
          "internalType": "address",
          "name": "_address",
          "type": "address"
        }
      ],
      "name": "getAllCharsByOwner",
      "outputs": [
        {
          "components": [
            {
              "internalType": "bytes32",
              "name": "genHash",
              "type": "bytes32"
            },
            {
              "components": [
                {
                  "internalType": "uint8",
                  "name": "health",
                  "type": "uint8"
                },
                {
                  "internalType": "uint8",
                  "name": "carry",
                  "type": "uint8"
                },
                {
                  "internalType": "uint8",
                  "name": "defense",
                  "type": "uint8"
                },
                {
                  "internalType": "uint8",
                  "name": "hack",
                  "type": "uint8"
                },
                {
                  "internalType": "uint8",
                  "name": "breach",
                  "type": "uint8"
                },
                {
                  "internalType": "uint8",
                  "name": "shoot",
                  "type": "uint8"
                },
                {
                  "internalType": "uint8",
                  "name": "melee",
                  "type": "uint8"
                }
              ],
              "internalType": "struct BCTypes.Traits",
              "name": "traits",
              "type": "tuple"
            },
            {
              "internalType": "uint8",
              "name": "cloneNumber",
              "type": "uint8"
            },
            {
              "internalType": "uint8",
              "name": "maxClones",
              "type": "uint8"
            },
            {
              "internalType": "uint8",
              "name": "ability",
              "type": "uint8"
            },
            {
              "internalType": "uint8",
              "name": "flaw",
              "type": "uint8"
            },
            {
              "internalType": "bool",
              "name": "inGame",
              "type": "bool"
            },
            {
              "internalType": "bool",
              "name": "dead",
              "type": "bool"
            }
          ],
          "internalType": "struct BCTypes.Character[]",
          "name": "",
          "type": "tuple[]"
        }
      ],
      "stateMutability": "view",
      "type": "function"
    },
    {
      "inputs": [
        {
          "internalType": "uint256",
          "name": "tokenId",
          "type": "uint256"
        }
      ],
      "name": "getApproved",
      "outputs": [
        {
          "internalType": "address",
          "name": "",
          "type": "address"
        }
      ],
      "stateMutability": "view",
      "type": "function"
    },
    {
      "inputs": [
        {
          "components": [
            {
              "internalType": "uint8",
              "name": "row",
              "type": "uint8"
            },
            {
              "internalType": "uint8",
              "name": "col",
              "type": "uint8"
            }
          ],
          "internalType": "struct BCTypes.Position",
          "name": "_firstRoom",
          "type": "tuple"
        },
        {
          "components": [
            {
              "internalType": "uint8",
              "name": "row",
              "type": "uint8"
            },
            {
              "internalType": "uint8",
              "name": "col",
              "type": "uint8"
            }
          ],
          "internalType": "struct BCTypes.Position",
          "name": "_secondRoom",
          "type": "tuple"
        }
      ],
      "name": "getDirectionBetween",
      "outputs": [
        {
          "internalType": "uint256",
          "name": "",
          "type": "uint256"
        }
      ],
      "stateMutability": "pure",
      "type": "function"
    },
    {
      "inputs": [
        {
          "internalType": "uint256",
          "name": "_direction",
          "type": "uint256"
        },
        {
          "components": [
            {
              "internalType": "uint8",
              "name": "row",
              "type": "uint8"
            },
            {
              "internalType": "uint8",
              "name": "col",
              "type": "uint8"
            }
          ],
          "internalType": "struct BCTypes.Position",
          "name": "_start",
          "type": "tuple"
        }
      ],
      "name": "getNeighborRoom",
      "outputs": [
        {
          "components": [
            {
              "internalType": "uint8",
              "name": "row",
              "type": "uint8"
            },
            {
              "internalType": "uint8",
              "name": "col",
              "type": "uint8"
            }
          ],
          "internalType": "struct BCTypes.Position",
          "name": "",
          "type": "tuple"
        }
      ],
      "stateMutability": "pure",
      "type": "function"
    },
    {
      "inputs": [
        {
          "internalType": "uint256",
          "name": "_traitNum",
          "type": "uint256"
        },
        {
          "internalType": "uint256",
          "name": "_subTraitNum",
          "type": "uint256"
        }
      ],
      "name": "getUIOffset",
      "outputs": [
        {
          "internalType": "uint256",
          "name": "",
          "type": "uint256"
        }
      ],
      "stateMutability": "pure",
      "type": "function"
    },
    {
      "inputs": [],
      "name": "hackCap",
      "outputs": [
        {
          "internalType": "uint8",
          "name": "",
          "type": "uint8"
        }
      ],
      "stateMutability": "view",
      "type": "function"
    },
    {
      "inputs": [],
      "name": "healthCap",
      "outputs": [
        {
          "internalType": "uint8",
          "name": "",
          "type": "uint8"
        }
      ],
      "stateMutability": "view",
      "type": "function"
    },
    {
      "inputs": [
        {
          "internalType": "address",
          "name": "owner",
          "type": "address"
        },
        {
          "internalType": "address",
          "name": "operator",
          "type": "address"
        }
      ],
      "name": "isApprovedForAll",
      "outputs": [
        {
          "internalType": "bool",
          "name": "",
          "type": "bool"
        }
      ],
      "stateMutability": "view",
      "type": "function"
    },
    {
      "inputs": [],
      "name": "maxClonesCap",
      "outputs": [
        {
          "internalType": "uint8",
          "name": "",
          "type": "uint8"
        }
      ],
      "stateMutability": "view",
      "type": "function"
    },
    {
      "inputs": [],
      "name": "meleeCap",
      "outputs": [
        {
          "internalType": "uint8",
          "name": "",
          "type": "uint8"
        }
      ],
      "stateMutability": "view",
      "type": "function"
    },
    {
      "inputs": [],
      "name": "mintCost",
      "outputs": [
        {
          "internalType": "uint256",
          "name": "",
          "type": "uint256"
        }
      ],
      "stateMutability": "view",
      "type": "function"
    },
    {
      "inputs": [],
      "name": "mintIsActive",
      "outputs": [
        {
          "internalType": "bool",
          "name": "",
          "type": "bool"
        }
      ],
      "stateMutability": "view",
      "type": "function"
    },
    {
      "inputs": [],
      "name": "name",
      "outputs": [
        {
          "internalType": "string",
          "name": "",
          "type": "string"
        }
      ],
      "stateMutability": "view",
      "type": "function"
    },
    {
      "inputs": [
        {
          "internalType": "uint256",
          "name": "_min",
          "type": "uint256"
        },
        {
          "internalType": "uint256",
          "name": "_max",
          "type": "uint256"
        },
        {
          "internalType": "uint256",
          "name": "_val",
          "type": "uint256"
        },
        {
          "internalType": "uint256",
          "name": "_valMax",
          "type": "uint256"
        }
      ],
      "name": "normalizeToSmallRange",
      "outputs": [
        {
          "internalType": "uint8",
          "name": "",
          "type": "uint8"
        }
      ],
      "stateMutability": "pure",
      "type": "function"
    },
    {
      "inputs": [],
      "name": "owner",
      "outputs": [
        {
          "internalType": "address",
          "name": "",
          "type": "address"
        }
      ],
      "stateMutability": "view",
      "type": "function"
    },
    {
      "inputs": [
        {
          "internalType": "uint256",
          "name": "tokenId",
          "type": "uint256"
        }
      ],
      "name": "ownerOf",
      "outputs": [
        {
          "internalType": "address",
          "name": "",
          "type": "address"
        }
      ],
      "stateMutability": "view",
      "type": "function"
    },
    {
      "inputs": [],
      "name": "randKeccak",
      "outputs": [
        {
          "internalType": "bytes32",
          "name": "",
          "type": "bytes32"
        }
      ],
      "stateMutability": "nonpayable",
      "type": "function"
    },
    {
      "inputs": [],
      "name": "renounceOwnership",
      "outputs": [],
      "stateMutability": "nonpayable",
      "type": "function"
    },
    {
      "inputs": [],
      "name": "roll",
      "outputs": [
        {
          "internalType": "uint256",
          "name": "",
          "type": "uint256"
        }
      ],
      "stateMutability": "nonpayable",
      "type": "function"
    },
    {
      "inputs": [
        {
          "internalType": "address",
          "name": "from",
          "type": "address"
        },
        {
          "internalType": "address",
          "name": "to",
          "type": "address"
        },
        {
          "internalType": "uint256",
          "name": "tokenId",
          "type": "uint256"
        }
      ],
      "name": "safeTransferFrom",
      "outputs": [],
      "stateMutability": "nonpayable",
      "type": "function"
    },
    {
      "inputs": [
        {
          "internalType": "address",
          "name": "from",
          "type": "address"
        },
        {
          "internalType": "address",
          "name": "to",
          "type": "address"
        },
        {
          "internalType": "uint256",
          "name": "tokenId",
          "type": "uint256"
        },
        {
          "internalType": "bytes",
          "name": "data",
          "type": "bytes"
        }
      ],
      "name": "safeTransferFrom",
      "outputs": [],
      "stateMutability": "nonpayable",
      "type": "function"
    },
    {
      "inputs": [
        {
          "internalType": "address",
          "name": "operator",
          "type": "address"
        },
        {
          "internalType": "bool",
          "name": "approved",
          "type": "bool"
        }
      ],
      "name": "setApprovalForAll",
      "outputs": [],
      "stateMutability": "nonpayable",
      "type": "function"
    },
    {
      "inputs": [
        {
          "internalType": "address",
          "name": "_contract",
          "type": "address"
        }
      ],
      "name": "setGameContract",
      "outputs": [],
      "stateMutability": "nonpayable",
      "type": "function"
    },
    {
      "inputs": [],
      "name": "shootCap",
      "outputs": [
        {
          "internalType": "uint8",
          "name": "",
          "type": "uint8"
        }
      ],
      "stateMutability": "view",
      "type": "function"
    },
    {
      "inputs": [
        {
          "internalType": "bytes32",
          "name": "_hash",
          "type": "bytes32"
        },
        {
          "internalType": "uint256",
          "name": "_size",
          "type": "uint256"
        },
        {
          "internalType": "uint256",
          "name": "_offset",
          "type": "uint256"
        }
      ],
      "name": "sliceHashToSmallInt",
      "outputs": [
        {
          "internalType": "uint8",
          "name": "",
          "type": "uint8"
        }
      ],
      "stateMutability": "pure",
      "type": "function"
    },
    {
      "inputs": [
        {
          "internalType": "uint8",
          "name": "_min",
          "type": "uint8"
        },
        {
          "internalType": "uint8",
          "name": "_max",
          "type": "uint8"
        }
      ],
      "name": "smallIntBetweenVals",
      "outputs": [
        {
          "internalType": "uint8",
          "name": "",
          "type": "uint8"
        }
      ],
      "stateMutability": "nonpayable",
      "type": "function"
    },
    {
      "inputs": [
        {
          "internalType": "bytes4",
          "name": "interfaceId",
          "type": "bytes4"
        }
      ],
      "name": "supportsInterface",
      "outputs": [
        {
          "internalType": "bool",
          "name": "",
          "type": "bool"
        }
      ],
      "stateMutability": "view",
      "type": "function"
    },
    {
      "inputs": [],
      "name": "symbol",
      "outputs": [
        {
          "internalType": "string",
          "name": "",
          "type": "string"
        }
      ],
      "stateMutability": "view",
      "type": "function"
    },
    {
      "inputs": [
        {
          "internalType": "uint256",
          "name": "tokenId",
          "type": "uint256"
        }
      ],
      "name": "tokenURI",
      "outputs": [
        {
          "internalType": "string",
          "name": "",
          "type": "string"
        }
      ],
      "stateMutability": "view",
      "type": "function"
    },
    {
      "inputs": [
        {
          "internalType": "address",
          "name": "from",
          "type": "address"
        },
        {
          "internalType": "address",
          "name": "to",
          "type": "address"
        },
        {
          "internalType": "uint256",
          "name": "tokenId",
          "type": "uint256"
        }
      ],
      "name": "transferFrom",
      "outputs": [],
      "stateMutability": "nonpayable",
      "type": "function"
    },
    {
      "inputs": [],
      "name": "transferFundsOut",
      "outputs": [],
      "stateMutability": "nonpayable",
      "type": "function"
    },
    {
      "inputs": [
        {
          "internalType": "address",
          "name": "newOwner",
          "type": "address"
        }
      ],
      "name": "transferOwnership",
      "outputs": [],
      "stateMutability": "nonpayable",
      "type": "function"
    }
  ],
  "transactionHash": "0xf1298432ec0fa46e3da44175b5011c1c9a1a3ad93ae6c67a88709fff3b3b1fbd",
  "args": [],
  "numDeployments": 9,
  "solcInputHash": "8c343b04fa0f2f489794f8cd2022c5d3",
  "bytecode": "0x60806040526000600855662386f26fc10000600a556001600b60006101000a81548160ff0219169083151502179055506004600b60016101000a81548160ff021916908360ff1602179055506005600b60026101000a81548160ff021916908360ff1602179055506004600b60036101000a81548160ff021916908360ff1602179055506004600b60046101000a81548160ff021916908360ff1602179055506004600b60056101000a81548160ff021916908360ff1602179055506004600b60066101000a81548160ff021916908360ff1602179055506004600b60076101000a81548160ff021916908360ff1602179055506064600b60086101000a81548160ff021916908360ff160217905550600a600b60096101000a81548160ff021916908360ff160217905550600a600b600a6101000a81548160ff021916908360ff1602179055503480156200015457600080fd5b506040518060400160405280601681526020017f426c61636b20436f6d65742043686172616374657273000000000000000000008152506040518060400160405280600381526020017f42434300000000000000000000000000000000000000000000000000000000008152508160009080519060200190620001d9929190620002e9565b508060019080519060200190620001f2929190620002e9565b50505062000215620002096200021b60201b60201c565b6200022360201b60201c565b620003fe565b600033905090565b6000600760009054906101000a900473ffffffffffffffffffffffffffffffffffffffff16905081600760006101000a81548173ffffffffffffffffffffffffffffffffffffffff021916908373ffffffffffffffffffffffffffffffffffffffff1602179055508173ffffffffffffffffffffffffffffffffffffffff168173ffffffffffffffffffffffffffffffffffffffff167f8be0079c531659141344cd1fd0a4f28419497f9722a3daafe3b4186f6b6457e060405160405180910390a35050565b828054620002f790620003c8565b90600052602060002090601f0160209004810192826200031b576000855562000367565b82601f106200033657805160ff191683800117855562000367565b8280016001018555821562000367579182015b828111156200036657825182559160200191906001019062000349565b5b5090506200037691906200037a565b5090565b5b80821115620003955760008160009055506001016200037b565b5090565b7f4e487b7100000000000000000000000000000000000000000000000000000000600052602260045260246000fd5b60006002820490506001821680620003e157607f821691505b60208210811415620003f857620003f762000399565b5b50919050565b614d6c806200040e6000396000f3fe6080604052600436106102465760003560e01c806364db84bf11610139578063b88d4fde116100b6578063cbfb23881161007a578063cbfb2388146108b6578063cd5e3c5d146108e1578063ce28613f1461090c578063e985e9c514610949578063f2fde38b14610986578063fa3993c2146109af57610246565b8063b88d4fde146107f0578063b926be2a14610819578063ba1ee7cf14610844578063bdb4b8481461084e578063c87b56dd1461087957610246565b80638da5cb5b116100fd5780638da5cb5b146106f7578063951fc3fe1461072257806395d89b411461075f57806397f34c3f1461078a578063a22cb465146107c757610246565b806364db84bf146106105780636963c5681461064d57806370a0823114610678578063715018a6146106b5578063733882b7146106cc57610246565b8063405ebd4d116101c7578063530116961161018b57806353011696146105035780635ee38b2f146105405780636284ef2c1461056b5780636352211e146105965780636362fe42146105d357610246565b8063405ebd4d1461041757806342842e0e1461044057806345de18b814610469578063471a4294146104945780634810bc59146104bf57610246565b80631b5ac4b51161020e5780631b5ac4b5146103445780631e1de2051461038157806323b872dd146103ac5780633838aed1146103d557806339a54a30146103ec57610246565b806301ffc9a71461024b57806306fdde0314610288578063081812fc146102b3578063095ea7b3146102f0578063154fa27a14610319575b600080fd5b34801561025757600080fd5b50610272600480360381019061026d919061313c565b6109ec565b60405161027f9190613184565b60405180910390f35b34801561029457600080fd5b5061029d610ace565b6040516102aa9190613238565b60405180910390f35b3480156102bf57600080fd5b506102da60048036038101906102d59190613290565b610b60565b6040516102e791906132fe565b60405180910390f35b3480156102fc57600080fd5b5061031760048036038101906103129190613345565b610ba6565b005b34801561032557600080fd5b5061032e610cbe565b60405161033b91906132fe565b60405180910390f35b34801561035057600080fd5b5061036b600480360381019061036691906133bb565b610ce4565b60405161037891906133f7565b60405180910390f35b34801561038d57600080fd5b50610396610d06565b6040516103a3919061342b565b60405180910390f35b3480156103b857600080fd5b506103d360048036038101906103ce9190613446565b610d52565b005b3480156103e157600080fd5b506103ea610db2565b005b3480156103f857600080fd5b50610401610e0a565b60405161040e91906134b5565b60405180910390f35b34801561042357600080fd5b5061043e600480360381019061043991906134d0565b610e1d565b005b34801561044c57600080fd5b5061046760048036038101906104629190613446565b610e69565b005b34801561047557600080fd5b5061047e610e89565b60405161048b91906134b5565b60405180910390f35b3480156104a057600080fd5b506104a9610e9c565b6040516104b69190613184565b60405180910390f35b3480156104cb57600080fd5b506104e660048036038101906104e19190613290565b610eaf565b6040516104fa98979695949392919061359a565b60405180910390f35b34801561050f57600080fd5b5061052a6004803603810190610525919061361e565b61102a565b60405161053791906134b5565b60405180910390f35b34801561054c57600080fd5b5061055561106e565b60405161056291906134b5565b60405180910390f35b34801561057757600080fd5b50610580611081565b60405161058d91906134b5565b60405180910390f35b3480156105a257600080fd5b506105bd60048036038101906105b89190613290565b611094565b6040516105ca91906132fe565b60405180910390f35b3480156105df57600080fd5b506105fa60048036038101906105f591906134d0565b611146565b6040516106079190613889565b60405180910390f35b34801561061c57600080fd5b50610637600480360381019061063291906138ab565b611407565b60405161064491906138fa565b60405180910390f35b34801561065957600080fd5b50610662611429565b60405161066f91906134b5565b60405180910390f35b34801561068457600080fd5b5061069f600480360381019061069a91906134d0565b61143c565b6040516106ac91906138fa565b60405180910390f35b3480156106c157600080fd5b506106ca6114f4565b005b3480156106d857600080fd5b506106e1611508565b6040516106ee91906134b5565b60405180910390f35b34801561070357600080fd5b5061070c61151b565b60405161071991906132fe565b60405180910390f35b34801561072e57600080fd5b5061074960048036038101906107449190613a11565b611545565b6040516107569190613a80565b60405180910390f35b34801561076b57600080fd5b5061077461168a565b6040516107819190613238565b60405180910390f35b34801561079657600080fd5b506107b160048036038101906107ac9190613ac7565b61171c565b6040516107be91906134b5565b60405180910390f35b3480156107d357600080fd5b506107ee60048036038101906107e99190613b46565b611753565b005b3480156107fc57600080fd5b5061081760048036038101906108129190613c40565b611769565b005b34801561082557600080fd5b5061082e6117cb565b60405161083b91906134b5565b60405180910390f35b61084c6117de565b005b34801561085a57600080fd5b50610863611e21565b60405161087091906138fa565b60405180910390f35b34801561088557600080fd5b506108a0600480360381019061089b9190613290565b611e27565b6040516108ad9190613238565b60405180910390f35b3480156108c257600080fd5b506108cb611f3a565b6040516108d891906134b5565b60405180910390f35b3480156108ed57600080fd5b506108f6611f4d565b60405161090391906138fa565b60405180910390f35b34801561091857600080fd5b50610933600480360381019061092e9190613cc3565b611f63565b60405161094091906134b5565b60405180910390f35b34801561095557600080fd5b50610970600480360381019061096b9190613d03565b611ff4565b60405161097d9190613184565b60405180910390f35b34801561099257600080fd5b506109ad60048036038101906109a891906134d0565b612088565b005b3480156109bb57600080fd5b506109d660048036038101906109d19190613d43565b61210c565b6040516109e391906138fa565b60405180910390f35b60007f80ac58cd000000000000000000000000000000000000000000000000000000007bffffffffffffffffffffffffffffffffffffffffffffffffffffffff1916827bffffffffffffffffffffffffffffffffffffffffffffffffffffffff19161480610ab757507f5b5e139f000000000000000000000000000000000000000000000000000000007bffffffffffffffffffffffffffffffffffffffffffffffffffffffff1916827bffffffffffffffffffffffffffffffffffffffffffffffffffffffff1916145b80610ac75750610ac68261222d565b5b9050919050565b606060008054610add90613db2565b80601f0160208091040260200160405190810160405280929190818152602001828054610b0990613db2565b8015610b565780601f10610b2b57610100808354040283529160200191610b56565b820191906000526020600020905b815481529060010190602001808311610b3957829003601f168201915b5050505050905090565b6000610b6b82612297565b6004600083815260200190815260200160002060009054906101000a900473ffffffffffffffffffffffffffffffffffffffff169050919050565b6000610bb182611094565b90508073ffffffffffffffffffffffffffffffffffffffff168373ffffffffffffffffffffffffffffffffffffffff161415610c22576040517f08c379a0000000000000000000000000000000000000000000000000000000008152600401610c1990613e56565b60405180910390fd5b8073ffffffffffffffffffffffffffffffffffffffff16610c416122e2565b73ffffffffffffffffffffffffffffffffffffffff161480610c705750610c6f81610c6a6122e2565b611ff4565b5b610caf576040517f08c379a0000000000000000000000000000000000000000000000000000000008152600401610ca690613ee8565b60405180910390fd5b610cb983836122ea565b505050565b600960009054906101000a900473ffffffffffffffffffffffffffffffffffffffff1681565b600080821215610cfd5781610cf890613f37565b610cff565b815b9050919050565b600060086000815480929190610d1b90613f80565b91905055506008544233604051602001610d3793929190614032565b60405160208183030381529060405280519060200120905090565b610d63610d5d6122e2565b826123a3565b610da2576040517f08c379a0000000000000000000000000000000000000000000000000000000008152600401610d99906140e1565b60405180910390fd5b610dad838383612438565b505050565b610dba61269f565b610dc261151b565b73ffffffffffffffffffffffffffffffffffffffff166108fc479081150290604051600060405180830381858888f19350505050158015610e07573d6000803e3d6000fd5b50565b600b60049054906101000a900460ff1681565b610e2561269f565b80600960006101000a81548173ffffffffffffffffffffffffffffffffffffffff021916908373ffffffffffffffffffffffffffffffffffffffff16021790555050565b610e8483838360405180602001604052806000815250611769565b505050565b600b60079054906101000a900460ff1681565b600b60009054906101000a900460ff1681565b600c8181548110610ebf57600080fd5b9060005260206000209060030201600091509050806000015490806001016040518060e00160405290816000820160009054906101000a900460ff1660ff1660ff1681526020016000820160019054906101000a900460ff1660ff1660ff1681526020016000820160029054906101000a900460ff1660ff1660ff1681526020016000820160039054906101000a900460ff1660ff1660ff1681526020016000820160049054906101000a900460ff1660ff1660ff1681526020016000820160059054906101000a900460ff1660ff1660ff1681526020016000820160069054906101000a900460ff1660ff1660ff1681525050908060020160009054906101000a900460ff16908060020160019054906101000a900460ff16908060020160029054906101000a900460ff16908060020160039054906101000a900460ff16908060020160049054906101000a900460ff16908060020160059054906101000a900460ff16905088565b60008085856110399190614101565b9050600083858361104a9190614135565b61105491906141be565b9050868161106291906141ef565b92505050949350505050565b600b60089054906101000a900460ff1681565b600b60039054906101000a900460ff1681565b6000806002600084815260200190815260200160002060009054906101000a900473ffffffffffffffffffffffffffffffffffffffff169050600073ffffffffffffffffffffffffffffffffffffffff168173ffffffffffffffffffffffffffffffffffffffff16141561113d576040517f08c379a000000000000000000000000000000000000000000000000000000000815260040161113490614291565b60405180910390fd5b80915050919050565b606060006111538361143c565b90506000808267ffffffffffffffff8111156111725761117161391a565b5b6040519080825280602002602001820160405280156111ab57816020015b611198613000565b8152602001906001900390816111905790505b50905060005b600c805490508110156113fb578573ffffffffffffffffffffffffffffffffffffffff166111de82611094565b73ffffffffffffffffffffffffffffffffffffffff1614156113e857600c818154811061120e5761120d6142b1565b5b90600052602060002090600302016040518061010001604052908160008201548152602001600182016040518060e00160405290816000820160009054906101000a900460ff1660ff1660ff1681526020016000820160019054906101000a900460ff1660ff1660ff1681526020016000820160029054906101000a900460ff1660ff1660ff1681526020016000820160039054906101000a900460ff1660ff1660ff1681526020016000820160049054906101000a900460ff1660ff1660ff1681526020016000820160059054906101000a900460ff1660ff1660ff1681526020016000820160069054906101000a900460ff1660ff1660ff168152505081526020016002820160009054906101000a900460ff1660ff1660ff1681526020016002820160019054906101000a900460ff1660ff1660ff1681526020016002820160029054906101000a900460ff1660ff1660ff1681526020016002820160039054906101000a900460ff1660ff1660ff1681526020016002820160049054906101000a900460ff161515151581526020016002820160059054906101000a900460ff1615151515815250508284815181106113ce576113cd6142b1565b5b602002602001018190525082806113e490613f80565b9350505b80806113f390613f80565b9150506111b1565b50809350505050919050565b6000818360046114179190614135565b61142191906141ef565b905092915050565b600b60029054906101000a900460ff1681565b60008073ffffffffffffffffffffffffffffffffffffffff168273ffffffffffffffffffffffffffffffffffffffff1614156114ad576040517f08c379a00000000000000000000000000000000000000000000000000000000081526004016114a490614352565b60405180910390fd5b600360008373ffffffffffffffffffffffffffffffffffffffff1673ffffffffffffffffffffffffffffffffffffffff168152602001908152602001600020549050919050565b6114fc61269f565b611506600061271d565b565b600b60069054906101000a900460ff1681565b6000600760009054906101000a900473ffffffffffffffffffffffffffffffffffffffff16905090565b61154d61305e565b600083141561158c576040518060400160405280600184600001516115729190614372565b60ff168152602001836020015160ff168152509050611684565b60018314156115cb576040518060400160405280600184600001516115b191906143a6565b60ff168152602001836020015160ff168152509050611684565b600283141561160a576040518060400160405280836000015160ff168152602001600184602001516115fd91906143a6565b60ff168152509050611684565b6003831415611649576040518060400160405280836000015160ff1681526020016001846020015161163c9190614372565b60ff168152509050611684565b6040517f08c379a000000000000000000000000000000000000000000000000000000000815260040161167b90614429565b60405180910390fd5b92915050565b60606001805461169990613db2565b80601f01602080910402602001604051908101604052809291908181526020018280546116c590613db2565b80156117125780601f106116e757610100808354040283529160200191611712565b820191906000526020600020905b8154815290600101906020018083116116f557829003601f168201915b5050505050905090565b60008082600185600261172f919061457c565b6117399190614101565b60001b901b905082818616901c60001c9150509392505050565b61176561175e6122e2565b83836127e3565b5050565b61177a6117746122e2565b836123a3565b6117b9576040517f08c379a00000000000000000000000000000000000000000000000000000000081526004016117b0906140e1565b60405180910390fd5b6117c584848484612950565b50505050565b600b60019054906101000a900460ff1681565b6117e661151b565b73ffffffffffffffffffffffffffffffffffffffff163373ffffffffffffffffffffffffffffffffffffffff1614806118205750600a5434145b61185f576040517f08c379a000000000000000000000000000000000000000000000000000000000815260040161185690614613565b60405180910390fd5b61186761151b565b73ffffffffffffffffffffffffffffffffffffffff163373ffffffffffffffffffffffffffffffffffffffff1614806118b3575060011515600b60009054906101000a900460ff161515145b6118f2576040517f08c379a00000000000000000000000000000000000000000000000000000000081526004016118e99061467f565b60405180910390fd5b60006118fc610d06565b9050600c6040518061010001604052808381526020016040518060e0016040528061196260026001600b60019054906101000a900460ff1661193e91906143a6565b60ff16611958896004611953600c6001611407565b61171c565b60ff16600f61102a565b60ff1681526020016119af60036001600b60029054906101000a900460ff1661198b91906143a6565b60ff166119a58960046119a0600a6002611407565b61171c565b60ff16600f61102a565b60ff1681526020016119fc60026001600b60039054906101000a900460ff166119d891906143a6565b60ff166119f28960046119ed600c6000611407565b61171c565b60ff16600f61102a565b60ff168152602001611a4960026001600b60049054906101000a900460ff16611a2591906143a6565b60ff16611a3f896004611a3a600d6000611407565b61171c565b60ff16600f61102a565b60ff168152602001611a9660026001600b60059054906101000a900460ff16611a7291906143a6565b60ff16611a8c896004611a87600a6001611407565b61171c565b60ff16600f61102a565b60ff168152602001611ae360026001600b60069054906101000a900460ff16611abf91906143a6565b60ff16611ad9896004611ad4600b6000611407565b61171c565b60ff16600f61102a565b60ff168152602001611b3060026001600b60079054906101000a900460ff16611b0c91906143a6565b60ff16611b26896004611b21600a6000611407565b61171c565b60ff16600f61102a565b60ff168152508152602001600060ff168152602001611b7e6000600b60089054906101000a900460ff1660ff16611b74876008611b6f60036000611407565b61171c565b60ff1660ff61102a565b60ff168152602001611bbf6000600b60099054906101000a900460ff1660ff16611bb5876008611bb060086000611407565b61171c565b60ff1660ff61102a565b60ff168152602001611c006000600b600a9054906101000a900460ff1660ff16611bf6876008611bf160086002611407565b61171c565b60ff1660ff61102a565b60ff1681526020016000151581526020016000151581525090806001815401808255809150506001900390600052602060002090600302016000909190919091506000820151816000015560208201518160010160008201518160000160006101000a81548160ff021916908360ff16021790555060208201518160000160016101000a81548160ff021916908360ff16021790555060408201518160000160026101000a81548160ff021916908360ff16021790555060608201518160000160036101000a81548160ff021916908360ff16021790555060808201518160000160046101000a81548160ff021916908360ff16021790555060a08201518160000160056101000a81548160ff021916908360ff16021790555060c08201518160000160066101000a81548160ff021916908360ff160217905550505060408201518160020160006101000a81548160ff021916908360ff16021790555060608201518160020160016101000a81548160ff021916908360ff16021790555060808201518160020160026101000a81548160ff021916908360ff16021790555060a08201518160020160036101000a81548160ff021916908360ff16021790555060c08201518160020160046101000a81548160ff02191690831515021790555060e08201518160020160056101000a81548160ff0219169083151502179055505050611e1e336001600c80549050611e199190614101565b6129ac565b50565b600a5481565b6060611e3282612297565b6000600660008481526020019081526020016000208054611e5290613db2565b80601f0160208091040260200160405190810160405280929190818152602001828054611e7e90613db2565b8015611ecb5780601f10611ea057610100808354040283529160200191611ecb565b820191906000526020600020905b815481529060010190602001808311611eae57829003601f168201915b505050505090506000611edc6129ca565b9050600081511415611ef2578192505050611f35565b600082511115611f27578082604051602001611f0f9291906146db565b60405160208183030381529060405292505050611f35565b611f30846129e1565b925050505b919050565b600b60059054906101000a900460ff1681565b6000611f5b60016006611f63565b60ff16905090565b600060086000815480929190611f7890613f80565b919050555060003360085442604051602001611f96939291906146ff565b6040516020818303038152906040528051906020012060001c9050600060018585611fc19190614372565b611fcb91906143a6565b90508460ff168160ff1683611fe0919061473c565b611fea91906141ef565b9250505092915050565b6000600560008473ffffffffffffffffffffffffffffffffffffffff1673ffffffffffffffffffffffffffffffffffffffff16815260200190815260200160002060008373ffffffffffffffffffffffffffffffffffffffff1673ffffffffffffffffffffffffffffffffffffffff16815260200190815260200160002060009054906101000a900460ff16905092915050565b61209061269f565b600073ffffffffffffffffffffffffffffffffffffffff168173ffffffffffffffffffffffffffffffffffffffff161415612100576040517f08c379a00000000000000000000000000000000000000000000000000000000081526004016120f7906147df565b60405180910390fd5b6121098161271d565b50565b6000600182600001518460000151612124919061480c565b60000b14156121365760009050612227565b7fffffffffffffffffffffffffffffffffffffffffffffffffffffffffffffffff8260000151846000015161216b919061480c565b60000b141561217d5760019050612227565b7fffffffffffffffffffffffffffffffffffffffffffffffffffffffffffffffff826020015184602001516121b2919061480c565b60000b14156121c45760029050612227565b6001826020015184602001516121da919061480c565b60000b14156121ec5760039050612227565b6040517f08c379a000000000000000000000000000000000000000000000000000000000815260040161221e906148cd565b60405180910390fd5b92915050565b60007f01ffc9a7000000000000000000000000000000000000000000000000000000007bffffffffffffffffffffffffffffffffffffffffffffffffffffffff1916827bffffffffffffffffffffffffffffffffffffffffffffffffffffffff1916149050919050565b6122a081612a49565b6122df576040517f08c379a00000000000000000000000000000000000000000000000000000000081526004016122d690614291565b60405180910390fd5b50565b600033905090565b816004600083815260200190815260200160002060006101000a81548173ffffffffffffffffffffffffffffffffffffffff021916908373ffffffffffffffffffffffffffffffffffffffff160217905550808273ffffffffffffffffffffffffffffffffffffffff1661235d83611094565b73ffffffffffffffffffffffffffffffffffffffff167f8c5be1e5ebec7d5bd14f71427d1e84f3dd0314c0f7b2291e5b200ac8c7c3b92560405160405180910390a45050565b6000806123af83611094565b90508073ffffffffffffffffffffffffffffffffffffffff168473ffffffffffffffffffffffffffffffffffffffff1614806123f157506123f08185611ff4565b5b8061242f57508373ffffffffffffffffffffffffffffffffffffffff1661241784610b60565b73ffffffffffffffffffffffffffffffffffffffff16145b91505092915050565b8273ffffffffffffffffffffffffffffffffffffffff1661245882611094565b73ffffffffffffffffffffffffffffffffffffffff16146124ae576040517f08c379a00000000000000000000000000000000000000000000000000000000081526004016124a59061495f565b60405180910390fd5b600073ffffffffffffffffffffffffffffffffffffffff168273ffffffffffffffffffffffffffffffffffffffff16141561251e576040517f08c379a0000000000000000000000000000000000000000000000000000000008152600401612515906149f1565b60405180910390fd5b612529838383612ab5565b6125346000826122ea565b6001600360008573ffffffffffffffffffffffffffffffffffffffff1673ffffffffffffffffffffffffffffffffffffffff16815260200190815260200160002060008282546125849190614101565b925050819055506001600360008473ffffffffffffffffffffffffffffffffffffffff1673ffffffffffffffffffffffffffffffffffffffff16815260200190815260200160002060008282546125db91906141ef565b92505081905550816002600083815260200190815260200160002060006101000a81548173ffffffffffffffffffffffffffffffffffffffff021916908373ffffffffffffffffffffffffffffffffffffffff160217905550808273ffffffffffffffffffffffffffffffffffffffff168473ffffffffffffffffffffffffffffffffffffffff167fddf252ad1be2c89b69c2b068fc378daa952ba7f163c4a11628f55a4df523b3ef60405160405180910390a461269a838383612aba565b505050565b6126a76122e2565b73ffffffffffffffffffffffffffffffffffffffff166126c561151b565b73ffffffffffffffffffffffffffffffffffffffff161461271b576040517f08c379a000000000000000000000000000000000000000000000000000000000815260040161271290614a5d565b60405180910390fd5b565b6000600760009054906101000a900473ffffffffffffffffffffffffffffffffffffffff16905081600760006101000a81548173ffffffffffffffffffffffffffffffffffffffff021916908373ffffffffffffffffffffffffffffffffffffffff1602179055508173ffffffffffffffffffffffffffffffffffffffff168173ffffffffffffffffffffffffffffffffffffffff167f8be0079c531659141344cd1fd0a4f28419497f9722a3daafe3b4186f6b6457e060405160405180910390a35050565b8173ffffffffffffffffffffffffffffffffffffffff168373ffffffffffffffffffffffffffffffffffffffff161415612852576040517f08c379a000000000000000000000000000000000000000000000000000000000815260040161284990614ac9565b60405180910390fd5b80600560008573ffffffffffffffffffffffffffffffffffffffff1673ffffffffffffffffffffffffffffffffffffffff16815260200190815260200160002060008473ffffffffffffffffffffffffffffffffffffffff1673ffffffffffffffffffffffffffffffffffffffff16815260200190815260200160002060006101000a81548160ff0219169083151502179055508173ffffffffffffffffffffffffffffffffffffffff168373ffffffffffffffffffffffffffffffffffffffff167f17307eab39ab6107e8899845ad3d59bd9653f200f220920489ca2b5937696c31836040516129439190613184565b60405180910390a3505050565b61295b848484612438565b61296784848484612abf565b6129a6576040517f08c379a000000000000000000000000000000000000000000000000000000000815260040161299d90614b5b565b60405180910390fd5b50505050565b6129c6828260405180602001604052806000815250612c47565b5050565b606060405180602001604052806000815250905090565b60606129ec82612297565b60006129f66129ca565b90506000815111612a165760405180602001604052806000815250612a41565b80612a2084612ca2565b604051602001612a319291906146db565b6040516020818303038152906040525b915050919050565b60008073ffffffffffffffffffffffffffffffffffffffff166002600084815260200190815260200160002060009054906101000a900473ffffffffffffffffffffffffffffffffffffffff1673ffffffffffffffffffffffffffffffffffffffff1614159050919050565b505050565b505050565b6000612ae08473ffffffffffffffffffffffffffffffffffffffff16612e03565b15612c3a578373ffffffffffffffffffffffffffffffffffffffff1663150b7a02612b096122e2565b8786866040518563ffffffff1660e01b8152600401612b2b9493929190614bd0565b6020604051808303816000875af1925050508015612b6757506040513d601f19601f82011682018060405250810190612b649190614c31565b60015b612bea573d8060008114612b97576040519150601f19603f3d011682016040523d82523d6000602084013e612b9c565b606091505b50600081511415612be2576040517f08c379a0000000000000000000000000000000000000000000000000000000008152600401612bd990614b5b565b60405180910390fd5b805181602001fd5b63150b7a0260e01b7bffffffffffffffffffffffffffffffffffffffffffffffffffffffff1916817bffffffffffffffffffffffffffffffffffffffffffffffffffffffff191614915050612c3f565b600190505b949350505050565b612c518383612e26565b612c5e6000848484612abf565b612c9d576040517f08c379a0000000000000000000000000000000000000000000000000000000008152600401612c9490614b5b565b60405180910390fd5b505050565b60606000821415612cea576040518060400160405280600181526020017f30000000000000000000000000000000000000000000000000000000000000008152509050612dfe565b600082905060005b60008214612d1c578080612d0590613f80565b915050600a82612d1591906141be565b9150612cf2565b60008167ffffffffffffffff811115612d3857612d3761391a565b5b6040519080825280601f01601f191660200182016040528015612d6a5781602001600182028036833780820191505090505b5090505b60008514612df757600182612d839190614101565b9150600a85612d92919061473c565b6030612d9e91906141ef565b60f81b818381518110612db457612db36142b1565b5b60200101907effffffffffffffffffffffffffffffffffffffffffffffffffffffffffffff1916908160001a905350600a85612df091906141be565b9450612d6e565b8093505050505b919050565b6000808273ffffffffffffffffffffffffffffffffffffffff163b119050919050565b600073ffffffffffffffffffffffffffffffffffffffff168273ffffffffffffffffffffffffffffffffffffffff161415612e96576040517f08c379a0000000000000000000000000000000000000000000000000000000008152600401612e8d90614caa565b60405180910390fd5b612e9f81612a49565b15612edf576040517f08c379a0000000000000000000000000000000000000000000000000000000008152600401612ed690614d16565b60405180910390fd5b612eeb60008383612ab5565b6001600360008473ffffffffffffffffffffffffffffffffffffffff1673ffffffffffffffffffffffffffffffffffffffff1681526020019081526020016000206000828254612f3b91906141ef565b92505081905550816002600083815260200190815260200160002060006101000a81548173ffffffffffffffffffffffffffffffffffffffff021916908373ffffffffffffffffffffffffffffffffffffffff160217905550808273ffffffffffffffffffffffffffffffffffffffff16600073ffffffffffffffffffffffffffffffffffffffff167fddf252ad1be2c89b69c2b068fc378daa952ba7f163c4a11628f55a4df523b3ef60405160405180910390a4612ffc60008383612aba565b5050565b6040518061010001604052806000801916815260200161301e61307e565b8152602001600060ff168152602001600060ff168152602001600060ff168152602001600060ff1681526020016000151581526020016000151581525090565b6040518060400160405280600060ff168152602001600060ff1681525090565b6040518060e00160405280600060ff168152602001600060ff168152602001600060ff168152602001600060ff168152602001600060ff168152602001600060ff168152602001600060ff1681525090565b6000604051905090565b600080fd5b600080fd5b60007fffffffff0000000000000000000000000000000000000000000000000000000082169050919050565b613119816130e4565b811461312457600080fd5b50565b60008135905061313681613110565b92915050565b600060208284031215613152576131516130da565b5b600061316084828501613127565b91505092915050565b60008115159050919050565b61317e81613169565b82525050565b60006020820190506131996000830184613175565b92915050565b600081519050919050565b600082825260208201905092915050565b60005b838110156131d95780820151818401526020810190506131be565b838111156131e8576000848401525b50505050565b6000601f19601f8301169050919050565b600061320a8261319f565b61321481856131aa565b93506132248185602086016131bb565b61322d816131ee565b840191505092915050565b6000602082019050818103600083015261325281846131ff565b905092915050565b6000819050919050565b61326d8161325a565b811461327857600080fd5b50565b60008135905061328a81613264565b92915050565b6000602082840312156132a6576132a56130da565b5b60006132b48482850161327b565b91505092915050565b600073ffffffffffffffffffffffffffffffffffffffff82169050919050565b60006132e8826132bd565b9050919050565b6132f8816132dd565b82525050565b600060208201905061331360008301846132ef565b92915050565b613322816132dd565b811461332d57600080fd5b50565b60008135905061333f81613319565b92915050565b6000806040838503121561335c5761335b6130da565b5b600061336a85828601613330565b925050602061337b8582860161327b565b9150509250929050565b6000819050919050565b61339881613385565b81146133a357600080fd5b50565b6000813590506133b58161338f565b92915050565b6000602082840312156133d1576133d06130da565b5b60006133df848285016133a6565b91505092915050565b6133f181613385565b82525050565b600060208201905061340c60008301846133e8565b92915050565b6000819050919050565b61342581613412565b82525050565b6000602082019050613440600083018461341c565b92915050565b60008060006060848603121561345f5761345e6130da565b5b600061346d86828701613330565b935050602061347e86828701613330565b925050604061348f8682870161327b565b9150509250925092565b600060ff82169050919050565b6134af81613499565b82525050565b60006020820190506134ca60008301846134a6565b92915050565b6000602082840312156134e6576134e56130da565b5b60006134f484828501613330565b91505092915050565b61350681613499565b82525050565b60e08201600082015161352260008501826134fd565b50602082015161353560208501826134fd565b50604082015161354860408501826134fd565b50606082015161355b60608501826134fd565b50608082015161356e60808501826134fd565b5060a082015161358160a08501826134fd565b5060c082015161359460c08501826134fd565b50505050565b60006101c0820190506135b0600083018b61341c565b6135bd602083018a61350c565b6135cb6101008301896134a6565b6135d96101208301886134a6565b6135e76101408301876134a6565b6135f56101608301866134a6565b613603610180830185613175565b6136116101a0830184613175565b9998505050505050505050565b60008060008060808587031215613638576136376130da565b5b60006136468782880161327b565b94505060206136578782880161327b565b93505060406136688782880161327b565b92505060606136798782880161327b565b91505092959194509250565b600081519050919050565b600082825260208201905092915050565b6000819050602082019050919050565b6136ba81613412565b82525050565b60e0820160008201516136d660008501826134fd565b5060208201516136e960208501826134fd565b5060408201516136fc60408501826134fd565b50606082015161370f60608501826134fd565b50608082015161372260808501826134fd565b5060a082015161373560a08501826134fd565b5060c082015161374860c08501826134fd565b50505050565b61375781613169565b82525050565b6101c08201600082015161377460008501826136b1565b50602082015161378760208501826136c0565b50604082015161379b6101008501826134fd565b5060608201516137af6101208501826134fd565b5060808201516137c36101408501826134fd565b5060a08201516137d76101608501826134fd565b5060c08201516137eb61018085018261374e565b5060e08201516137ff6101a085018261374e565b50505050565b6000613811838361375d565b6101c08301905092915050565b6000602082019050919050565b600061383682613685565b6138408185613690565b935061384b836136a1565b8060005b8381101561387c5781516138638882613805565b975061386e8361381e565b92505060018101905061384f565b5085935050505092915050565b600060208201905081810360008301526138a3818461382b565b905092915050565b600080604083850312156138c2576138c16130da565b5b60006138d08582860161327b565b92505060206138e18582860161327b565b9150509250929050565b6138f48161325a565b82525050565b600060208201905061390f60008301846138eb565b92915050565b600080fd5b7f4e487b7100000000000000000000000000000000000000000000000000000000600052604160045260246000fd5b613952826131ee565b810181811067ffffffffffffffff821117156139715761397061391a565b5b80604052505050565b60006139846130d0565b90506139908282613949565b919050565b61399e81613499565b81146139a957600080fd5b50565b6000813590506139bb81613995565b92915050565b6000604082840312156139d7576139d6613915565b5b6139e1604061397a565b905060006139f1848285016139ac565b6000830152506020613a05848285016139ac565b60208301525092915050565b60008060608385031215613a2857613a276130da565b5b6000613a368582860161327b565b9250506020613a47858286016139c1565b9150509250929050565b604082016000820151613a6760008501826134fd565b506020820151613a7a60208501826134fd565b50505050565b6000604082019050613a956000830184613a51565b92915050565b613aa481613412565b8114613aaf57600080fd5b50565b600081359050613ac181613a9b565b92915050565b600080600060608486031215613ae057613adf6130da565b5b6000613aee86828701613ab2565b9350506020613aff8682870161327b565b9250506040613b108682870161327b565b9150509250925092565b613b2381613169565b8114613b2e57600080fd5b50565b600081359050613b4081613b1a565b92915050565b60008060408385031215613b5d57613b5c6130da565b5b6000613b6b85828601613330565b9250506020613b7c85828601613b31565b9150509250929050565b600080fd5b600080fd5b600067ffffffffffffffff821115613bab57613baa61391a565b5b613bb4826131ee565b9050602081019050919050565b82818337600083830152505050565b6000613be3613bde84613b90565b61397a565b905082815260208101848484011115613bff57613bfe613b8b565b5b613c0a848285613bc1565b509392505050565b600082601f830112613c2757613c26613b86565b5b8135613c37848260208601613bd0565b91505092915050565b60008060008060808587031215613c5a57613c596130da565b5b6000613c6887828801613330565b9450506020613c7987828801613330565b9350506040613c8a8782880161327b565b925050606085013567ffffffffffffffff811115613cab57613caa6130df565b5b613cb787828801613c12565b91505092959194509250565b60008060408385031215613cda57613cd96130da565b5b6000613ce8858286016139ac565b9250506020613cf9858286016139ac565b9150509250929050565b60008060408385031215613d1a57613d196130da565b5b6000613d2885828601613330565b9250506020613d3985828601613330565b9150509250929050565b60008060808385031215613d5a57613d596130da565b5b6000613d68858286016139c1565b9250506040613d79858286016139c1565b9150509250929050565b7f4e487b7100000000000000000000000000000000000000000000000000000000600052602260045260246000fd5b60006002820490506001821680613dca57607f821691505b60208210811415613dde57613ddd613d83565b5b50919050565b7f4552433732313a20617070726f76616c20746f2063757272656e74206f776e6560008201527f7200000000000000000000000000000000000000000000000000000000000000602082015250565b6000613e406021836131aa565b9150613e4b82613de4565b604082019050919050565b60006020820190508181036000830152613e6f81613e33565b9050919050565b7f4552433732313a20617070726f76652063616c6c6572206973206e6f7420746f60008201527f6b656e206f776e6572206e6f7220617070726f76656420666f7220616c6c0000602082015250565b6000613ed2603e836131aa565b9150613edd82613e76565b604082019050919050565b60006020820190508181036000830152613f0181613ec5565b9050919050565b7f4e487b7100000000000000000000000000000000000000000000000000000000600052601160045260246000fd5b6000613f4282613385565b91507f8000000000000000000000000000000000000000000000000000000000000000821415613f7557613f74613f08565b5b816000039050919050565b6000613f8b8261325a565b91507fffffffffffffffffffffffffffffffffffffffffffffffffffffffffffffffff821415613fbe57613fbd613f08565b5b600182019050919050565b6000819050919050565b613fe4613fdf8261325a565b613fc9565b82525050565b60008160601b9050919050565b600061400282613fea565b9050919050565b600061401482613ff7565b9050919050565b61402c614027826132dd565b614009565b82525050565b600061403e8286613fd3565b60208201915061404e8285613fd3565b60208201915061405e828461401b565b601482019150819050949350505050565b7f4552433732313a2063616c6c6572206973206e6f7420746f6b656e206f776e6560008201527f72206e6f7220617070726f766564000000000000000000000000000000000000602082015250565b60006140cb602e836131aa565b91506140d68261406f565b604082019050919050565b600060208201905081810360008301526140fa816140be565b9050919050565b600061410c8261325a565b91506141178361325a565b92508282101561412a57614129613f08565b5b828203905092915050565b60006141408261325a565b915061414b8361325a565b9250817fffffffffffffffffffffffffffffffffffffffffffffffffffffffffffffffff048311821515161561418457614183613f08565b5b828202905092915050565b7f4e487b7100000000000000000000000000000000000000000000000000000000600052601260045260246000fd5b60006141c98261325a565b91506141d48361325a565b9250826141e4576141e361418f565b5b828204905092915050565b60006141fa8261325a565b91506142058361325a565b9250827fffffffffffffffffffffffffffffffffffffffffffffffffffffffffffffffff0382111561423a57614239613f08565b5b828201905092915050565b7f4552433732313a20696e76616c696420746f6b656e2049440000000000000000600082015250565b600061427b6018836131aa565b915061428682614245565b602082019050919050565b600060208201905081810360008301526142aa8161426e565b9050919050565b7f4e487b7100000000000000000000000000000000000000000000000000000000600052603260045260246000fd5b7f4552433732313a2061646472657373207a65726f206973206e6f74206120766160008201527f6c6964206f776e65720000000000000000000000000000000000000000000000602082015250565b600061433c6029836131aa565b9150614347826142e0565b604082019050919050565b6000602082019050818103600083015261436b8161432f565b9050919050565b600061437d82613499565b915061438883613499565b92508282101561439b5761439a613f08565b5b828203905092915050565b60006143b182613499565b91506143bc83613499565b92508260ff038211156143d2576143d1613f08565b5b828201905092915050565b7f496e76616c696420646972656374696f6e000000000000000000000000000000600082015250565b60006144136011836131aa565b915061441e826143dd565b602082019050919050565b6000602082019050818103600083015261444281614406565b9050919050565b60008160011c9050919050565b6000808291508390505b60018511156144a05780860481111561447c5761447b613f08565b5b600185161561448b5780820291505b808102905061449985614449565b9450614460565b94509492505050565b6000826144b95760019050614575565b816144c75760009050614575565b81600181146144dd57600281146144e757614516565b6001915050614575565b60ff8411156144f9576144f8613f08565b5b8360020a9150848211156145105761450f613f08565b5b50614575565b5060208310610133831016604e8410600b841016171561454b5782820a90508381111561454657614545613f08565b5b614575565b6145588484846001614456565b9250905081840481111561456f5761456e613f08565b5b81810290505b9392505050565b60006145878261325a565b91506145928361325a565b92506145bf7fffffffffffffffffffffffffffffffffffffffffffffffffffffffffffffffff84846144a9565b905092915050565b7f496e636f7272656374207061796d656e74000000000000000000000000000000600082015250565b60006145fd6011836131aa565b9150614608826145c7565b602082019050919050565b6000602082019050818103600083015261462c816145f0565b9050919050565b7f4d696e74696e67206973206e6f74206163746976650000000000000000000000600082015250565b60006146696015836131aa565b915061467482614633565b602082019050919050565b600060208201905081810360008301526146988161465c565b9050919050565b600081905092915050565b60006146b58261319f565b6146bf818561469f565b93506146cf8185602086016131bb565b80840191505092915050565b60006146e782856146aa565b91506146f382846146aa565b91508190509392505050565b600061470b828661401b565b60148201915061471b8285613fd3565b60208201915061472b8284613fd3565b602082019150819050949350505050565b60006147478261325a565b91506147528361325a565b9250826147625761476161418f565b5b828206905092915050565b7f4f776e61626c653a206e6577206f776e657220697320746865207a65726f206160008201527f6464726573730000000000000000000000000000000000000000000000000000602082015250565b60006147c96026836131aa565b91506147d48261476d565b604082019050919050565b600060208201905081810360008301526147f8816147bc565b9050919050565b60008160000b9050919050565b6000614817826147ff565b9150614822836147ff565b9250827fffffffffffffffffffffffffffffffffffffffffffffffffffffffffffffff800182126000841215161561485d5761485c613f08565b5b82607f01821360008412161561487657614875613f08565b5b828203905092915050565b7f4572726f723a204e6f742061646a6163656e7400000000000000000000000000600082015250565b60006148b76013836131aa565b91506148c282614881565b602082019050919050565b600060208201905081810360008301526148e6816148aa565b9050919050565b7f4552433732313a207472616e736665722066726f6d20696e636f72726563742060008201527f6f776e6572000000000000000000000000000000000000000000000000000000602082015250565b60006149496025836131aa565b9150614954826148ed565b604082019050919050565b600060208201905081810360008301526149788161493c565b9050919050565b7f4552433732313a207472616e7366657220746f20746865207a65726f2061646460008201527f7265737300000000000000000000000000000000000000000000000000000000602082015250565b60006149db6024836131aa565b91506149e68261497f565b604082019050919050565b60006020820190508181036000830152614a0a816149ce565b9050919050565b7f4f776e61626c653a2063616c6c6572206973206e6f7420746865206f776e6572600082015250565b6000614a476020836131aa565b9150614a5282614a11565b602082019050919050565b60006020820190508181036000830152614a7681614a3a565b9050919050565b7f4552433732313a20617070726f766520746f2063616c6c657200000000000000600082015250565b6000614ab36019836131aa565b9150614abe82614a7d565b602082019050919050565b60006020820190508181036000830152614ae281614aa6565b9050919050565b7f4552433732313a207472616e7366657220746f206e6f6e20455243373231526560008201527f63656976657220696d706c656d656e7465720000000000000000000000000000602082015250565b6000614b456032836131aa565b9150614b5082614ae9565b604082019050919050565b60006020820190508181036000830152614b7481614b38565b9050919050565b600081519050919050565b600082825260208201905092915050565b6000614ba282614b7b565b614bac8185614b86565b9350614bbc8185602086016131bb565b614bc5816131ee565b840191505092915050565b6000608082019050614be560008301876132ef565b614bf260208301866132ef565b614bff60408301856138eb565b8181036060830152614c118184614b97565b905095945050505050565b600081519050614c2b81613110565b92915050565b600060208284031215614c4757614c466130da565b5b6000614c5584828501614c1c565b91505092915050565b7f4552433732313a206d696e7420746f20746865207a65726f2061646472657373600082015250565b6000614c946020836131aa565b9150614c9f82614c5e565b602082019050919050565b60006020820190508181036000830152614cc381614c87565b9050919050565b7f4552433732313a20746f6b656e20616c7265616479206d696e74656400000000600082015250565b6000614d00601c836131aa565b9150614d0b82614cca565b602082019050919050565b60006020820190508181036000830152614d2f81614cf3565b905091905056fea2646970667358221220d2a80399fd5f5144dfc2f7240314a9e192abc2a05e829d3a6f01b478106e8f1d64736f6c634300080c0033",
  "devdoc": {
    "kind": "dev",
    "methods": {
      "approve(address,uint256)": {
        "details": "See {IERC721-approve}."
      },
      "balanceOf(address)": {
        "details": "See {IERC721-balanceOf}."
      },
      "getApproved(uint256)": {
        "details": "See {IERC721-getApproved}."
      },
      "isApprovedForAll(address,address)": {
        "details": "See {IERC721-isApprovedForAll}."
      },
      "name()": {
        "details": "See {IERC721Metadata-name}."
      },
      "owner()": {
        "details": "Returns the address of the current owner."
      },
      "ownerOf(uint256)": {
        "details": "See {IERC721-ownerOf}."
      },
      "renounceOwnership()": {
        "details": "Leaves the contract without owner. It will not be possible to call `onlyOwner` functions anymore. Can only be called by the current owner. NOTE: Renouncing ownership will leave the contract without an owner, thereby removing any functionality that is only available to the owner."
      },
      "safeTransferFrom(address,address,uint256)": {
        "details": "See {IERC721-safeTransferFrom}."
      },
      "safeTransferFrom(address,address,uint256,bytes)": {
        "details": "See {IERC721-safeTransferFrom}."
      },
      "setApprovalForAll(address,bool)": {
        "details": "See {IERC721-setApprovalForAll}."
      },
      "supportsInterface(bytes4)": {
        "details": "See {IERC165-supportsInterface}."
      },
      "symbol()": {
        "details": "See {IERC721Metadata-symbol}."
      },
      "tokenURI(uint256)": {
        "details": "See {IERC721Metadata-tokenURI}."
      },
      "transferFrom(address,address,uint256)": {
        "details": "See {IERC721-transferFrom}."
      },
      "transferOwnership(address)": {
        "details": "Transfers ownership of the contract to a new account (`newOwner`). Can only be called by the current owner."
      }
    },
    "version": 1
  },
  "userdoc": {
    "kind": "user",
    "methods": {},
    "version": 1
  },
  "storageLayout": {
    "storage": [
      {
        "astId": 138,
        "contract": "contracts/BCChars.sol:BCChars",
        "label": "_name",
        "offset": 0,
        "slot": "0",
        "type": "t_string_storage"
      },
      {
        "astId": 140,
        "contract": "contracts/BCChars.sol:BCChars",
        "label": "_symbol",
        "offset": 0,
        "slot": "1",
        "type": "t_string_storage"
      },
      {
        "astId": 144,
        "contract": "contracts/BCChars.sol:BCChars",
        "label": "_owners",
        "offset": 0,
        "slot": "2",
        "type": "t_mapping(t_uint256,t_address)"
      },
      {
        "astId": 148,
        "contract": "contracts/BCChars.sol:BCChars",
        "label": "_balances",
        "offset": 0,
        "slot": "3",
        "type": "t_mapping(t_address,t_uint256)"
      },
      {
        "astId": 152,
        "contract": "contracts/BCChars.sol:BCChars",
        "label": "_tokenApprovals",
        "offset": 0,
        "slot": "4",
        "type": "t_mapping(t_uint256,t_address)"
      },
      {
        "astId": 158,
        "contract": "contracts/BCChars.sol:BCChars",
        "label": "_operatorApprovals",
        "offset": 0,
        "slot": "5",
        "type": "t_mapping(t_address,t_mapping(t_address,t_bool))"
      },
      {
        "astId": 1126,
        "contract": "contracts/BCChars.sol:BCChars",
        "label": "_tokenURIs",
        "offset": 0,
        "slot": "6",
        "type": "t_mapping(t_uint256,t_string_storage)"
      },
      {
        "astId": 7,
        "contract": "contracts/BCChars.sol:BCChars",
        "label": "_owner",
        "offset": 0,
        "slot": "7",
        "type": "t_address"
      },
      {
        "astId": 5928,
        "contract": "contracts/BCChars.sol:BCChars",
        "label": "TODO_randomSeed",
        "offset": 0,
        "slot": "8",
        "type": "t_uint256"
      },
      {
        "astId": 1934,
        "contract": "contracts/BCChars.sol:BCChars",
        "label": "gamesContract",
        "offset": 0,
        "slot": "9",
        "type": "t_address"
      },
      {
        "astId": 1941,
        "contract": "contracts/BCChars.sol:BCChars",
        "label": "mintCost",
        "offset": 0,
        "slot": "10",
        "type": "t_uint256"
      },
      {
        "astId": 1944,
        "contract": "contracts/BCChars.sol:BCChars",
        "label": "mintIsActive",
        "offset": 0,
        "slot": "11",
        "type": "t_bool"
      },
      {
        "astId": 1947,
        "contract": "contracts/BCChars.sol:BCChars",
        "label": "healthCap",
        "offset": 1,
        "slot": "11",
        "type": "t_uint8"
      },
      {
        "astId": 1950,
        "contract": "contracts/BCChars.sol:BCChars",
        "label": "carryCap",
        "offset": 2,
        "slot": "11",
        "type": "t_uint8"
      },
      {
        "astId": 1953,
        "contract": "contracts/BCChars.sol:BCChars",
        "label": "defenseCap",
        "offset": 3,
        "slot": "11",
        "type": "t_uint8"
      },
      {
        "astId": 1956,
        "contract": "contracts/BCChars.sol:BCChars",
        "label": "hackCap",
        "offset": 4,
        "slot": "11",
        "type": "t_uint8"
      },
      {
        "astId": 1959,
        "contract": "contracts/BCChars.sol:BCChars",
        "label": "breachCap",
        "offset": 5,
        "slot": "11",
        "type": "t_uint8"
      },
      {
        "astId": 1962,
        "contract": "contracts/BCChars.sol:BCChars",
        "label": "shootCap",
        "offset": 6,
        "slot": "11",
        "type": "t_uint8"
      },
      {
        "astId": 1965,
        "contract": "contracts/BCChars.sol:BCChars",
        "label": "meleeCap",
        "offset": 7,
        "slot": "11",
        "type": "t_uint8"
      },
      {
        "astId": 1968,
        "contract": "contracts/BCChars.sol:BCChars",
        "label": "maxClonesCap",
        "offset": 8,
        "slot": "11",
        "type": "t_uint8"
      },
      {
        "astId": 1971,
        "contract": "contracts/BCChars.sol:BCChars",
        "label": "abilityCap",
        "offset": 9,
        "slot": "11",
        "type": "t_uint8"
      },
      {
        "astId": 1974,
        "contract": "contracts/BCChars.sol:BCChars",
        "label": "flawCap",
        "offset": 10,
        "slot": "11",
        "type": "t_uint8"
      },
      {
        "astId": 1978,
        "contract": "contracts/BCChars.sol:BCChars",
        "label": "characters",
        "offset": 0,
        "slot": "12",
        "type": "t_array(t_struct(Character)5920_storage)dyn_storage"
      }
    ],
    "types": {
      "t_address": {
        "encoding": "inplace",
        "label": "address",
        "numberOfBytes": "20"
      },
      "t_array(t_struct(Character)5920_storage)dyn_storage": {
        "base": "t_struct(Character)5920_storage",
        "encoding": "dynamic_array",
        "label": "struct BCTypes.Character[]",
        "numberOfBytes": "32"
      },
      "t_bool": {
        "encoding": "inplace",
        "label": "bool",
        "numberOfBytes": "1"
      },
      "t_bytes32": {
        "encoding": "inplace",
        "label": "bytes32",
        "numberOfBytes": "32"
      },
      "t_mapping(t_address,t_bool)": {
        "encoding": "mapping",
        "key": "t_address",
        "label": "mapping(address => bool)",
        "numberOfBytes": "32",
        "value": "t_bool"
      },
      "t_mapping(t_address,t_mapping(t_address,t_bool))": {
        "encoding": "mapping",
        "key": "t_address",
        "label": "mapping(address => mapping(address => bool))",
        "numberOfBytes": "32",
        "value": "t_mapping(t_address,t_bool)"
      },
      "t_mapping(t_address,t_uint256)": {
        "encoding": "mapping",
        "key": "t_address",
        "label": "mapping(address => uint256)",
        "numberOfBytes": "32",
        "value": "t_uint256"
      },
      "t_mapping(t_uint256,t_address)": {
        "encoding": "mapping",
        "key": "t_uint256",
        "label": "mapping(uint256 => address)",
        "numberOfBytes": "32",
        "value": "t_address"
      },
      "t_mapping(t_uint256,t_string_storage)": {
        "encoding": "mapping",
        "key": "t_uint256",
        "label": "mapping(uint256 => string)",
        "numberOfBytes": "32",
        "value": "t_string_storage"
      },
      "t_string_storage": {
        "encoding": "bytes",
        "label": "string",
        "numberOfBytes": "32"
      },
      "t_struct(Character)5920_storage": {
        "encoding": "inplace",
        "label": "struct BCTypes.Character",
        "members": [
          {
            "astId": 5904,
            "contract": "contracts/BCChars.sol:BCChars",
            "label": "genHash",
            "offset": 0,
            "slot": "0",
            "type": "t_bytes32"
          },
          {
            "astId": 5907,
            "contract": "contracts/BCChars.sol:BCChars",
            "label": "traits",
            "offset": 0,
            "slot": "1",
            "type": "t_struct(Traits)5902_storage"
          },
          {
            "astId": 5909,
            "contract": "contracts/BCChars.sol:BCChars",
            "label": "cloneNumber",
            "offset": 0,
            "slot": "2",
            "type": "t_uint8"
          },
          {
            "astId": 5911,
            "contract": "contracts/BCChars.sol:BCChars",
            "label": "maxClones",
            "offset": 1,
            "slot": "2",
            "type": "t_uint8"
          },
          {
            "astId": 5913,
            "contract": "contracts/BCChars.sol:BCChars",
            "label": "ability",
            "offset": 2,
            "slot": "2",
            "type": "t_uint8"
          },
          {
            "astId": 5915,
            "contract": "contracts/BCChars.sol:BCChars",
            "label": "flaw",
            "offset": 3,
            "slot": "2",
            "type": "t_uint8"
          },
          {
            "astId": 5917,
            "contract": "contracts/BCChars.sol:BCChars",
            "label": "inGame",
            "offset": 4,
            "slot": "2",
            "type": "t_bool"
          },
          {
            "astId": 5919,
            "contract": "contracts/BCChars.sol:BCChars",
            "label": "dead",
            "offset": 5,
            "slot": "2",
            "type": "t_bool"
          }
        ],
        "numberOfBytes": "96"
      },
      "t_struct(Traits)5902_storage": {
        "encoding": "inplace",
        "label": "struct BCTypes.Traits",
        "members": [
          {
            "astId": 5889,
            "contract": "contracts/BCChars.sol:BCChars",
            "label": "health",
            "offset": 0,
            "slot": "0",
            "type": "t_uint8"
          },
          {
            "astId": 5891,
            "contract": "contracts/BCChars.sol:BCChars",
            "label": "carry",
            "offset": 1,
            "slot": "0",
            "type": "t_uint8"
          },
          {
            "astId": 5893,
            "contract": "contracts/BCChars.sol:BCChars",
            "label": "defense",
            "offset": 2,
            "slot": "0",
            "type": "t_uint8"
          },
          {
            "astId": 5895,
            "contract": "contracts/BCChars.sol:BCChars",
            "label": "hack",
            "offset": 3,
            "slot": "0",
            "type": "t_uint8"
          },
          {
            "astId": 5897,
            "contract": "contracts/BCChars.sol:BCChars",
            "label": "breach",
            "offset": 4,
            "slot": "0",
            "type": "t_uint8"
          },
          {
            "astId": 5899,
            "contract": "contracts/BCChars.sol:BCChars",
            "label": "shoot",
            "offset": 5,
            "slot": "0",
            "type": "t_uint8"
          },
          {
            "astId": 5901,
            "contract": "contracts/BCChars.sol:BCChars",
            "label": "melee",
            "offset": 6,
            "slot": "0",
            "type": "t_uint8"
          }
        ],
        "numberOfBytes": "32"
      },
      "t_uint256": {
        "encoding": "inplace",
        "label": "uint256",
        "numberOfBytes": "32"
      },
      "t_uint8": {
        "encoding": "inplace",
        "label": "uint8",
        "numberOfBytes": "1"
      }
    }
  }
}