{
  "address": "0x22581Abe393dc62d6F6e417739C999F5Da5Da6e5",
  "abi": [
    {
      "anonymous": false,
      "inputs": [
        {
          "indexed": false,
          "internalType": "uint256",
          "name": "roll",
          "type": "uint256"
        },
        {
          "indexed": false,
          "internalType": "uint256",
          "name": "forValue",
          "type": "uint256"
        },
        {
          "indexed": false,
          "internalType": "uint256",
          "name": "against",
          "type": "uint256"
        }
      ],
      "name": "ChallengeEvent",
      "type": "event"
    },
    {
      "anonymous": false,
      "inputs": [
        {
          "indexed": false,
          "internalType": "uint256",
          "name": "roll",
          "type": "uint256"
        }
      ],
      "name": "DiceRollEvent",
      "type": "event"
    },
    {
      "anonymous": false,
      "inputs": [
        {
          "indexed": true,
          "internalType": "address",
          "name": "previousOwner",
          "type": "address"
        },
        {
          "indexed": true,
          "internalType": "address",
          "name": "newOwner",
          "type": "address"
        }
      ],
      "name": "OwnershipTransferred",
      "type": "event"
    },
    {
      "anonymous": false,
      "inputs": [],
      "name": "Received",
      "type": "event"
    },
    {
      "inputs": [
        {
          "internalType": "uint256",
          "name": "_matic",
          "type": "uint256"
        }
      ],
      "name": "SetEnlistCostInMatic",
      "outputs": [],
      "stateMutability": "nonpayable",
      "type": "function"
    },
    {
      "inputs": [
        {
          "internalType": "uint256",
          "name": "_matic",
          "type": "uint256"
        }
      ],
      "name": "SetMintCostInMatic",
      "outputs": [],
      "stateMutability": "nonpayable",
      "type": "function"
    },
    {
      "inputs": [
        {
          "internalType": "int256",
          "name": "x",
          "type": "int256"
        }
      ],
      "name": "abs",
      "outputs": [
        {
          "internalType": "int256",
          "name": "",
          "type": "int256"
        }
      ],
      "stateMutability": "pure",
      "type": "function"
    },
    {
      "inputs": [],
      "name": "breachCap",
      "outputs": [
        {
          "internalType": "uint8",
          "name": "",
          "type": "uint8"
        }
      ],
      "stateMutability": "view",
      "type": "function"
    },
    {
      "inputs": [],
      "name": "carryCap",
      "outputs": [
        {
          "internalType": "uint8",
          "name": "",
          "type": "uint8"
        }
      ],
      "stateMutability": "view",
      "type": "function"
    },
    {
      "inputs": [
        {
          "internalType": "uint256",
          "name": "",
          "type": "uint256"
        }
      ],
      "name": "characters",
      "outputs": [
        {
          "internalType": "bytes32",
          "name": "genHash",
          "type": "bytes32"
        },
        {
          "internalType": "uint256",
          "name": "id",
          "type": "uint256"
        },
        {
          "internalType": "uint256",
          "name": "uifID",
          "type": "uint256"
        },
        {
          "components": [
            {
              "internalType": "int8",
              "name": "health",
              "type": "int8"
            },
            {
              "internalType": "int8",
              "name": "carry",
              "type": "int8"
            },
            {
              "internalType": "int8",
              "name": "defense",
              "type": "int8"
            },
            {
              "internalType": "int8",
              "name": "hack",
              "type": "int8"
            },
            {
              "internalType": "int8",
              "name": "breach",
              "type": "int8"
            },
            {
              "internalType": "int8",
              "name": "shoot",
              "type": "int8"
            },
            {
              "internalType": "int8",
              "name": "melee",
              "type": "int8"
            }
          ],
          "internalType": "struct BCTypes.Traits",
          "name": "traits",
          "type": "tuple"
        },
        {
          "internalType": "uint8",
          "name": "cloneNumber",
          "type": "uint8"
        },
        {
          "internalType": "uint8",
          "name": "maxClones",
          "type": "uint8"
        },
        {
          "internalType": "uint8",
          "name": "ability",
          "type": "uint8"
        },
        {
          "internalType": "uint8",
          "name": "flaw",
          "type": "uint8"
        },
        {
          "internalType": "bool",
          "name": "inGame",
          "type": "bool"
        }
      ],
      "stateMutability": "view",
      "type": "function"
    },
    {
      "inputs": [
        {
          "internalType": "address",
          "name": "",
          "type": "address"
        },
        {
          "internalType": "uint256",
          "name": "",
          "type": "uint256"
        }
      ],
      "name": "charsOwned",
      "outputs": [
        {
          "internalType": "uint256",
          "name": "",
          "type": "uint256"
        }
      ],
      "stateMutability": "view",
      "type": "function"
    },
    {
      "inputs": [],
      "name": "debugAllowedUser",
      "outputs": [
        {
          "internalType": "address",
          "name": "",
          "type": "address"
        }
      ],
      "stateMutability": "view",
      "type": "function"
    },
    {
      "inputs": [
        {
          "internalType": "uint256",
          "name": "_charId",
          "type": "uint256"
        },
        {
          "internalType": "uint256",
          "name": "_debugRoomId",
          "type": "uint256"
        }
      ],
      "name": "debugEnlistChar",
      "outputs": [],
      "stateMutability": "payable",
      "type": "function"
    },
    {
      "inputs": [],
      "name": "decantNewClone",
      "outputs": [],
      "stateMutability": "payable",
      "type": "function"
    },
    {
      "inputs": [],
      "name": "defenseCap",
      "outputs": [
        {
          "internalType": "uint8",
          "name": "",
          "type": "uint8"
        }
      ],
      "stateMutability": "view",
      "type": "function"
    },
    {
      "inputs": [
        {
          "internalType": "uint256",
          "name": "_charId",
          "type": "uint256"
        }
      ],
      "name": "enlistChar",
      "outputs": [],
      "stateMutability": "payable",
      "type": "function"
    },
    {
      "inputs": [],
      "name": "enlistCost",
      "outputs": [
        {
          "internalType": "uint256",
          "name": "",
          "type": "uint256"
        }
      ],
      "stateMutability": "view",
      "type": "function"
    },
    {
      "inputs": [
        {
          "internalType": "uint256",
          "name": "_charId",
          "type": "uint256"
        }
      ],
      "name": "enlistSolo",
      "outputs": [],
      "stateMutability": "payable",
      "type": "function"
    },
    {
      "inputs": [],
      "name": "gamesContract",
      "outputs": [
        {
          "internalType": "address",
          "name": "",
          "type": "address"
        }
      ],
      "stateMutability": "view",
      "type": "function"
    },
    {
      "inputs": [
        {
          "internalType": "address",
          "name": "_address",
          "type": "address"
        }
      ],
      "name": "getAllCharsByOwner",
      "outputs": [
        {
          "components": [
            {
              "internalType": "bytes32",
              "name": "genHash",
              "type": "bytes32"
            },
            {
              "internalType": "uint256",
              "name": "id",
              "type": "uint256"
            },
            {
              "internalType": "uint256",
              "name": "uifID",
              "type": "uint256"
            },
            {
              "components": [
                {
                  "internalType": "int8",
                  "name": "health",
                  "type": "int8"
                },
                {
                  "internalType": "int8",
                  "name": "carry",
                  "type": "int8"
                },
                {
                  "internalType": "int8",
                  "name": "defense",
                  "type": "int8"
                },
                {
                  "internalType": "int8",
                  "name": "hack",
                  "type": "int8"
                },
                {
                  "internalType": "int8",
                  "name": "breach",
                  "type": "int8"
                },
                {
                  "internalType": "int8",
                  "name": "shoot",
                  "type": "int8"
                },
                {
                  "internalType": "int8",
                  "name": "melee",
                  "type": "int8"
                }
              ],
              "internalType": "struct BCTypes.Traits",
              "name": "traits",
              "type": "tuple"
            },
            {
              "internalType": "uint8",
              "name": "cloneNumber",
              "type": "uint8"
            },
            {
              "internalType": "uint8",
              "name": "maxClones",
              "type": "uint8"
            },
            {
              "internalType": "uint8",
              "name": "ability",
              "type": "uint8"
            },
            {
              "internalType": "uint8",
              "name": "flaw",
              "type": "uint8"
            },
            {
              "internalType": "bool",
              "name": "inGame",
              "type": "bool"
            }
          ],
          "internalType": "struct BCTypes.Character[]",
          "name": "",
          "type": "tuple[]"
        }
      ],
      "stateMutability": "view",
      "type": "function"
    },
    {
      "inputs": [
        {
          "components": [
            {
              "internalType": "uint8",
              "name": "row",
              "type": "uint8"
            },
            {
              "internalType": "uint8",
              "name": "col",
              "type": "uint8"
            }
          ],
          "internalType": "struct BCTypes.Position",
          "name": "_firstRoom",
          "type": "tuple"
        },
        {
          "components": [
            {
              "internalType": "uint8",
              "name": "row",
              "type": "uint8"
            },
            {
              "internalType": "uint8",
              "name": "col",
              "type": "uint8"
            }
          ],
          "internalType": "struct BCTypes.Position",
          "name": "_secondRoom",
          "type": "tuple"
        }
      ],
      "name": "getDirectionBetween",
      "outputs": [
        {
          "internalType": "uint256",
          "name": "",
          "type": "uint256"
        }
      ],
      "stateMutability": "pure",
      "type": "function"
    },
    {
      "inputs": [
        {
          "internalType": "uint256",
          "name": "_direction",
          "type": "uint256"
        },
        {
          "components": [
            {
              "internalType": "uint8",
              "name": "row",
              "type": "uint8"
            },
            {
              "internalType": "uint8",
              "name": "col",
              "type": "uint8"
            }
          ],
          "internalType": "struct BCTypes.Position",
          "name": "_start",
          "type": "tuple"
        }
      ],
      "name": "getNeighborRoom",
      "outputs": [
        {
          "components": [
            {
              "internalType": "uint8",
              "name": "row",
              "type": "uint8"
            },
            {
              "internalType": "uint8",
              "name": "col",
              "type": "uint8"
            }
          ],
          "internalType": "struct BCTypes.Position",
          "name": "",
          "type": "tuple"
        }
      ],
      "stateMutability": "pure",
      "type": "function"
    },
    {
      "inputs": [
        {
          "internalType": "uint256",
          "name": "_traitNum",
          "type": "uint256"
        },
        {
          "internalType": "uint256",
          "name": "_subTraitNum",
          "type": "uint256"
        }
      ],
      "name": "getUIOffset",
      "outputs": [
        {
          "internalType": "uint256",
          "name": "",
          "type": "uint256"
        }
      ],
      "stateMutability": "pure",
      "type": "function"
    },
    {
      "inputs": [],
      "name": "hackCap",
      "outputs": [
        {
          "internalType": "uint8",
          "name": "",
          "type": "uint8"
        }
      ],
      "stateMutability": "view",
      "type": "function"
    },
    {
      "inputs": [],
      "name": "healthCap",
      "outputs": [
        {
          "internalType": "uint8",
          "name": "",
          "type": "uint8"
        }
      ],
      "stateMutability": "view",
      "type": "function"
    },
    {
      "inputs": [
        {
          "internalType": "uint256",
          "name": "_charId",
          "type": "uint256"
        }
      ],
      "name": "incrementCloneNumber",
      "outputs": [],
      "stateMutability": "nonpayable",
      "type": "function"
    },
    {
      "inputs": [
        {
          "internalType": "uint256",
          "name": "_charId",
          "type": "uint256"
        },
        {
          "internalType": "uint256",
          "name": "_uifID",
          "type": "uint256"
        }
      ],
      "name": "injectCHARUII",
      "outputs": [],
      "stateMutability": "nonpayable",
      "type": "function"
    },
    {
      "inputs": [],
      "name": "lobbies",
      "outputs": [
        {
          "internalType": "contract LobbyInterface",
          "name": "",
          "type": "address"
        }
      ],
      "stateMutability": "view",
      "type": "function"
    },
    {
      "inputs": [],
      "name": "maxClonesCap",
      "outputs": [
        {
          "internalType": "uint8",
          "name": "",
          "type": "uint8"
        }
      ],
      "stateMutability": "view",
      "type": "function"
    },
    {
      "inputs": [],
      "name": "meleeCap",
      "outputs": [
        {
          "internalType": "uint8",
          "name": "",
          "type": "uint8"
        }
      ],
      "stateMutability": "view",
      "type": "function"
    },
    {
      "inputs": [],
      "name": "mintCost",
      "outputs": [
        {
          "internalType": "uint256",
          "name": "",
          "type": "uint256"
        }
      ],
      "stateMutability": "view",
      "type": "function"
    },
    {
      "inputs": [],
      "name": "mintIsActive",
      "outputs": [
        {
          "internalType": "bool",
          "name": "",
          "type": "bool"
        }
      ],
      "stateMutability": "view",
      "type": "function"
    },
    {
      "inputs": [
        {
          "internalType": "uint256",
          "name": "_min",
          "type": "uint256"
        },
        {
          "internalType": "uint256",
          "name": "_max",
          "type": "uint256"
        },
        {
          "internalType": "uint256",
          "name": "_val",
          "type": "uint256"
        },
        {
          "internalType": "uint256",
          "name": "_valMax",
          "type": "uint256"
        }
      ],
      "name": "normalizeToSmallRange",
      "outputs": [
        {
          "internalType": "uint8",
          "name": "",
          "type": "uint8"
        }
      ],
      "stateMutability": "pure",
      "type": "function"
    },
    {
      "inputs": [
        {
          "internalType": "address",
          "name": "_operator",
          "type": "address"
        },
        {
          "internalType": "address",
          "name": "_from",
          "type": "address"
        },
        {
          "internalType": "uint256",
          "name": "_tokenId",
          "type": "uint256"
        },
        {
          "internalType": "bytes",
          "name": "_data",
          "type": "bytes"
        }
      ],
      "name": "onERC721Received",
      "outputs": [
        {
          "internalType": "bytes4",
          "name": "",
          "type": "bytes4"
        }
      ],
      "stateMutability": "nonpayable",
      "type": "function"
    },
    {
      "inputs": [
        {
          "internalType": "uint256",
          "name": "_direction",
          "type": "uint256"
        }
      ],
      "name": "opposite",
      "outputs": [
        {
          "internalType": "uint256",
          "name": "",
          "type": "uint256"
        }
      ],
      "stateMutability": "pure",
      "type": "function"
    },
    {
      "inputs": [],
      "name": "owner",
      "outputs": [
        {
          "internalType": "address",
          "name": "",
          "type": "address"
        }
      ],
      "stateMutability": "view",
      "type": "function"
    },
    {
      "inputs": [],
      "name": "randKeccak",
      "outputs": [
        {
          "internalType": "bytes32",
          "name": "",
          "type": "bytes32"
        }
      ],
      "stateMutability": "nonpayable",
      "type": "function"
    },
    {
      "inputs": [],
      "name": "renounceOwnership",
      "outputs": [],
      "stateMutability": "nonpayable",
      "type": "function"
    },
    {
      "inputs": [
        {
          "internalType": "uint256",
          "name": "_for",
          "type": "uint256"
        },
        {
          "internalType": "uint256",
          "name": "_against",
          "type": "uint256"
        }
      ],
      "name": "resolveChallenge",
      "outputs": [
        {
          "internalType": "bool",
          "name": "",
          "type": "bool"
        }
      ],
      "stateMutability": "nonpayable",
      "type": "function"
    },
    {
      "inputs": [
        {
          "internalType": "uint256",
          "name": "_charId",
          "type": "uint256"
        }
      ],
      "name": "returnChar",
      "outputs": [],
      "stateMutability": "nonpayable",
      "type": "function"
    },
    {
      "inputs": [],
      "name": "roll",
      "outputs": [
        {
          "internalType": "uint256",
          "name": "",
          "type": "uint256"
        }
      ],
      "stateMutability": "nonpayable",
      "type": "function"
    },
    {
      "inputs": [
        {
          "internalType": "address",
          "name": "_lobbyContractAddress",
          "type": "address"
        },
        {
          "internalType": "address",
          "name": "_gameContract",
          "type": "address"
        },
        {
          "internalType": "address",
          "name": "_UIFAddress",
          "type": "address"
        }
      ],
      "name": "setContractAddresses",
      "outputs": [],
      "stateMutability": "nonpayable",
      "type": "function"
    },
    {
      "inputs": [
        {
          "internalType": "bool",
          "name": "_status",
          "type": "bool"
        }
      ],
      "name": "setMintingStatus",
      "outputs": [],
      "stateMutability": "nonpayable",
      "type": "function"
    },
    {
      "inputs": [],
      "name": "shootCap",
      "outputs": [
        {
          "internalType": "uint8",
          "name": "",
          "type": "uint8"
        }
      ],
      "stateMutability": "view",
      "type": "function"
    },
    {
      "inputs": [
        {
          "internalType": "bytes32",
          "name": "_hash",
          "type": "bytes32"
        },
        {
          "internalType": "uint256",
          "name": "_size",
          "type": "uint256"
        },
        {
          "internalType": "uint256",
          "name": "_offset",
          "type": "uint256"
        }
      ],
      "name": "sliceHashToSmallInt",
      "outputs": [
        {
          "internalType": "uint8",
          "name": "",
          "type": "uint8"
        }
      ],
      "stateMutability": "pure",
      "type": "function"
    },
    {
      "inputs": [
        {
          "internalType": "uint8",
          "name": "_min",
          "type": "uint8"
        },
        {
          "internalType": "uint8",
          "name": "_max",
          "type": "uint8"
        }
      ],
      "name": "smallIntBetweenVals",
      "outputs": [
        {
          "internalType": "uint8",
          "name": "",
          "type": "uint8"
        }
      ],
      "stateMutability": "nonpayable",
      "type": "function"
    },
    {
      "inputs": [],
      "name": "soloCost",
      "outputs": [
        {
          "internalType": "uint256",
          "name": "",
          "type": "uint256"
        }
      ],
      "stateMutability": "view",
      "type": "function"
    },
    {
      "inputs": [],
      "name": "transferFundsOut",
      "outputs": [],
      "stateMutability": "nonpayable",
      "type": "function"
    },
    {
      "inputs": [
        {
          "internalType": "address",
          "name": "newOwner",
          "type": "address"
        }
      ],
      "name": "transferOwnership",
      "outputs": [],
      "stateMutability": "nonpayable",
      "type": "function"
    },
    {
      "inputs": [],
      "name": "uif",
      "outputs": [
        {
          "internalType": "contract UIFInterface",
          "name": "",
          "type": "address"
        }
      ],
      "stateMutability": "view",
      "type": "function"
    }
  ],
  "transactionHash": "0x55f5996d6bc2ebd2e0584167bce43a35dad77ca33090e07e7b381051a3a3563b",
  "args": [],
  "numDeployments": 1,
  "solcInputHash": "fedce54f8dc80a552109a67f6962d510",
  "bytecode": "0x60806040526000600155655af3107a4000600655662386f26fc1000060075560056006546200002f91906200029d565b6008556001600960006101000a81548160ff0219169083151502179055506004600960016101000a81548160ff021916908360ff1602179055506005600960026101000a81548160ff021916908360ff1602179055506004600960036101000a81548160ff021916908360ff1602179055506004600960046101000a81548160ff021916908360ff1602179055506004600960056101000a81548160ff021916908360ff1602179055506004600960066101000a81548160ff021916908360ff1602179055506004600960076101000a81548160ff021916908360ff1602179055506064600960086101000a81548160ff021916908360ff160217905550600a6009806101000a81548160ff021916908360ff160217905550600a6009600a6101000a81548160ff021916908360ff1602179055503480156200017157600080fd5b5062000192620001866200019860201b60201c565b620001a060201b60201c565b620002fe565b600033905090565b60008060009054906101000a900473ffffffffffffffffffffffffffffffffffffffff169050816000806101000a81548173ffffffffffffffffffffffffffffffffffffffff021916908373ffffffffffffffffffffffffffffffffffffffff1602179055508173ffffffffffffffffffffffffffffffffffffffff168173ffffffffffffffffffffffffffffffffffffffff167f8be0079c531659141344cd1fd0a4f28419497f9722a3daafe3b4186f6b6457e060405160405180910390a35050565b6000819050919050565b7f4e487b7100000000000000000000000000000000000000000000000000000000600052601160045260246000fd5b6000620002aa8262000264565b9150620002b78362000264565b9250817fffffffffffffffffffffffffffffffffffffffffffffffffffffffffffffffff0483118215151615620002f357620002f26200026e565b5b828202905092915050565b614ec5806200030e6000396000f3fe60806040526004361061027d5760003560e01c8063715018a61161014f578063b926be2a116100c1578063ce28613f1161007a578063ce28613f14610981578063dff2fb31146109be578063e604c410146109fb578063f2fde38b14610a17578063fa3993c214610a40578063fdcadf8114610a7d5761027d565b8063b926be2a146108af578063ba1ee7cf146108da578063bdb4b848146108e4578063c6c484dd1461090f578063cbfb23881461092b578063cd5e3c5d146109565761027d565b806384c38c8b1161011357806384c38c8b1461079c5780638ab63380146107c55780638da5cb5b146107ee578063951fc3fe1461081957806397f34c3f14610856578063afa0e660146108935761027d565b8063715018a6146106c9578063733882b7146106e05780637420aa361461070b57806378f4768b146107345780638214f2221461075f5761027d565b8063471a4294116101f35780636284ef2c116101ac5780636284ef2c146105a55780636362fe42146105d057806364db84bf1461060d5780636963c5681461064a5780636d6ba75614610675578063705498dc1461069e5761027d565b8063471a4294146104675780634810bc5914610492578063501f9784146104d7578063503932be14610500578063530116961461053d5780635ee38b2f1461057a5761027d565b80631e1de205116102455780631e1de2051461037b5780633838aed1146103a657806339a54a30146103bd5780633f6becfa146103e857806342f037451461041157806345de18b81461043c5761027d565b80630364f88c14610282578063149d2f81146102ad578063150b7a02146102d6578063154fa27a146103135780631b5ac4b51461033e575b600080fd5b34801561028e57600080fd5b50610297610aa8565b6040516102a49190613404565b60405180910390f35b3480156102b957600080fd5b506102d460048036038101906102cf9190613469565b610ace565b005b3480156102e257600080fd5b506102fd60048036038101906102f89190613539565b610b53565b60405161030a91906135fc565b60405180910390f35b34801561031f57600080fd5b50610328610b94565b6040516103359190613626565b60405180910390f35b34801561034a57600080fd5b5061036560048036038101906103609190613677565b610bba565b60405161037291906136b3565b60405180910390f35b34801561038757600080fd5b50610390610bdc565b60405161039d91906136e7565b60405180910390f35b3480156103b257600080fd5b506103bb610c28565b005b3480156103c957600080fd5b506103d2610c80565b6040516103df919061371e565b60405180910390f35b3480156103f457600080fd5b5061040f600480360381019061040a9190613739565b610c93565b005b34801561041d57600080fd5b50610426610c97565b6040516104339190613788565b60405180910390f35b34801561044857600080fd5b50610451610c9d565b60405161045e919061371e565b60405180910390f35b34801561047357600080fd5b5061047c610cb0565b60405161048991906137be565b60405180910390f35b34801561049e57600080fd5b506104b960048036038101906104b49190613469565b610cc3565b6040516104ce99989796959493929190613883565b60405180910390f35b3480156104e357600080fd5b506104fe60048036038101906104f99190613469565b610e37565b005b34801561050c57600080fd5b5061052760048036038101906105229190613914565b610e5c565b6040516105349190613788565b60405180910390f35b34801561054957600080fd5b50610564600480360381019061055f9190613954565b610e8d565b604051610571919061371e565b60405180910390f35b34801561058657600080fd5b5061058f610ed1565b60405161059c919061371e565b60405180910390f35b3480156105b157600080fd5b506105ba610ee4565b6040516105c7919061371e565b60405180910390f35b3480156105dc57600080fd5b506105f760048036038101906105f291906139bb565b610ef7565b6040516106049190613c1d565b60405180910390f35b34801561061957600080fd5b50610634600480360381019061062f9190613739565b6111f5565b6040516106419190613788565b60405180910390f35b34801561065657600080fd5b5061065f611217565b60405161066c919061371e565b60405180910390f35b34801561068157600080fd5b5061069c60048036038101906106979190613469565b61122a565b005b3480156106aa57600080fd5b506106b3611318565b6040516106c09190613c60565b60405180910390f35b3480156106d557600080fd5b506106de61133e565b005b3480156106ec57600080fd5b506106f5611352565b604051610702919061371e565b60405180910390f35b34801561071757600080fd5b50610732600480360381019061072d9190613ca7565b611365565b005b34801561074057600080fd5b5061074961138a565b6040516107569190613626565b60405180910390f35b34801561076b57600080fd5b5061078660048036038101906107819190613469565b6113b0565b6040516107939190613788565b60405180910390f35b3480156107a857600080fd5b506107c360048036038101906107be9190613469565b611439565b005b3480156107d157600080fd5b506107ec60048036038101906107e79190613cd4565b61145e565b005b3480156107fa57600080fd5b5061080361152e565b6040516108109190613626565b60405180910390f35b34801561082557600080fd5b50610840600480360381019061083b9190613e34565b611557565b60405161084d9190613ea3565b60405180910390f35b34801561086257600080fd5b5061087d60048036038101906108789190613eea565b6116ca565b60405161088a919061371e565b60405180910390f35b6108ad60048036038101906108a89190613739565b611701565b005b3480156108bb57600080fd5b506108c4611b0d565b6040516108d1919061371e565b60405180910390f35b6108e2611b20565b005b3480156108f057600080fd5b506108f9612311565b6040516109069190613788565b60405180910390f35b61092960048036038101906109249190613469565b612317565b005b34801561093757600080fd5b50610940612718565b60405161094d919061371e565b60405180910390f35b34801561096257600080fd5b5061096b61272b565b6040516109789190613788565b60405180910390f35b34801561098d57600080fd5b506109a860048036038101906109a39190613f3d565b61277d565b6040516109b5919061371e565b60405180910390f35b3480156109ca57600080fd5b506109e560048036038101906109e09190613739565b61280e565b6040516109f291906137be565b60405180910390f35b610a156004803603810190610a109190613469565b61289e565b005b348015610a2357600080fd5b50610a3e6004803603810190610a3991906139bb565b612c9f565b005b348015610a4c57600080fd5b50610a676004803603810190610a629190613f7d565b612d23565b604051610a749190613788565b60405180910390f35b348015610a8957600080fd5b50610a92612e44565b604051610a9f9190613788565b60405180910390f35b600260009054906101000a900473ffffffffffffffffffffffffffffffffffffffff1681565b60001515600a8281548110610ae657610ae5613fbd565b5b906000526020600020906005020160040160049054906101000a900460ff16151514610b47576040517f08c379a0000000000000000000000000000000000000000000000000000000008152600401610b3e90614049565b60405180910390fd5b610b5081612e4a565b50565b60007f544c765b33ca411cce832250371569244f765a17fcd217832be093f0fd5fa45b60405160405180910390a163150b7a0260e01b905095945050505050565b600360009054906101000a900473ffffffffffffffffffffffffffffffffffffffff1681565b600080821215610bd35781610bce90614098565b610bd5565b815b9050919050565b600060016000815480929190610bf1906140e1565b91905055506001544233604051602001610c0d93929190614193565b60405160208183030381529060405280519060200120905090565b610c3061300c565b610c3861152e565b73ffffffffffffffffffffffffffffffffffffffff166108fc479081150290604051600060405180830381858888f19350505050158015610c7d573d6000803e3d6000fd5b50565b600960049054906101000a900460ff1681565b5050565b60085481565b600960079054906101000a900460ff1681565b600960009054906101000a900460ff1681565b600a8181548110610cd357600080fd5b9060005260206000209060050201600091509050806000015490806001015490806002015490806003016040518060e00160405290816000820160009054906101000a900460000b60000b60000b81526020016000820160019054906101000a900460000b60000b60000b81526020016000820160029054906101000a900460000b60000b60000b81526020016000820160039054906101000a900460000b60000b60000b81526020016000820160049054906101000a900460000b60000b60000b81526020016000820160059054906101000a900460000b60000b60000b81526020016000820160069054906101000a900460000b60000b60000b81525050908060040160009054906101000a900460ff16908060040160019054906101000a900460ff16908060040160029054906101000a900460ff16908060040160039054906101000a900460ff16908060040160049054906101000a900460ff16905089565b610e3f61300c565b670de0b6b3a764000081610e5391906141d0565b60078190555050565b600b6020528160005260406000208181548110610e7857600080fd5b90600052602060002001600091509150505481565b6000808585610e9c919061422a565b90506000838583610ead91906141d0565b610eb7919061428d565b90508681610ec591906142be565b92505050949350505050565b600960089054906101000a900460ff1681565b600960039054906101000a900460ff1681565b60606000600b60008473ffffffffffffffffffffffffffffffffffffffff1673ffffffffffffffffffffffffffffffffffffffff16815260200190815260200160002080549050905060008167ffffffffffffffff811115610f5c57610f5b613d3d565b5b604051908082528060200260200182016040528015610f9557816020015b610f826132b7565b815260200190600190039081610f7a5790505b50905060005b81518110156111ea57600a600b60008773ffffffffffffffffffffffffffffffffffffffff1673ffffffffffffffffffffffffffffffffffffffff1681526020019081526020016000208281548110610ff757610ff6613fbd565b5b90600052602060002001548154811061101357611012613fbd565b5b906000526020600020906005020160405180610120016040529081600082015481526020016001820154815260200160028201548152602001600382016040518060e00160405290816000820160009054906101000a900460000b60000b60000b81526020016000820160019054906101000a900460000b60000b60000b81526020016000820160029054906101000a900460000b60000b60000b81526020016000820160039054906101000a900460000b60000b60000b81526020016000820160049054906101000a900460000b60000b60000b81526020016000820160059054906101000a900460000b60000b60000b81526020016000820160069054906101000a900460000b60000b60000b8152505081526020016004820160009054906101000a900460ff1660ff1660ff1681526020016004820160019054906101000a900460ff1660ff1660ff1681526020016004820160029054906101000a900460ff1660ff1660ff1681526020016004820160039054906101000a900460ff1660ff1660ff1681526020016004820160049054906101000a900460ff1615151515815250508282815181106111cc576111cb613fbd565b5b602002602001018190525080806111e2906140e1565b915050610f9b565b508092505050919050565b60008183600461120591906141d0565b61120f91906142be565b905092915050565b600960029054906101000a900460ff1681565b600360009054906101000a900473ffffffffffffffffffffffffffffffffffffffff1673ffffffffffffffffffffffffffffffffffffffff163373ffffffffffffffffffffffffffffffffffffffff16146112ba576040517f08c379a00000000000000000000000000000000000000000000000000000000081526004016112b190614360565b60405180910390fd5b600a81815481106112ce576112cd613fbd565b5b9060005260206000209060050201600401600081819054906101000a900460ff16809291906112fc90614380565b91906101000a81548160ff021916908360ff1602179055505050565b600460009054906101000a900473ffffffffffffffffffffffffffffffffffffffff1681565b61134661300c565b611350600061308a565b565b600960069054906101000a900460ff1681565b61136d61300c565b80600960006101000a81548160ff02191690831515021790555050565b600560009054906101000a900473ffffffffffffffffffffffffffffffffffffffff1681565b6000808214156113c35760019050611434565b60018214156113d55760009050611434565b60028214156113e75760039050611434565b60038214156113f95760029050611434565b6040517f08c379a000000000000000000000000000000000000000000000000000000000815260040161142b906143f6565b60405180910390fd5b919050565b61144161300c565b670de0b6b3a76400008161145591906141d0565b60068190555050565b61146661300c565b82600260006101000a81548173ffffffffffffffffffffffffffffffffffffffff021916908373ffffffffffffffffffffffffffffffffffffffff16021790555081600360006101000a81548173ffffffffffffffffffffffffffffffffffffffff021916908373ffffffffffffffffffffffffffffffffffffffff16021790555080600460006101000a81548173ffffffffffffffffffffffffffffffffffffffff021916908373ffffffffffffffffffffffffffffffffffffffff160217905550505050565b60008060009054906101000a900473ffffffffffffffffffffffffffffffffffffffff16905090565b61155f61331a565b600083141561159e576040518060400160405280600184600001516115849190614416565b60ff168152602001836020015160ff1681525090506116c4565b60018314156115dd576040518060400160405280600184600001516115c3919061444a565b60ff168152602001836020015160ff1681525090506116c4565b600283141561161c576040518060400160405280836000015160ff1681526020016001846020015161160f919061444a565b60ff1681525090506116c4565b600383141561165b576040518060400160405280836000015160ff1681526020016001846020015161164e9190614416565b60ff1681525090506116c4565b60006116668461314e565b6040516020016116769190614521565b6040516020818303038152906040529050806040517f08c379a00000000000000000000000000000000000000000000000000000000081526004016116bb9190614580565b60405180910390fd5b92915050565b6000808260018560026116dd91906146d5565b6116e7919061422a565b60001b901b905082818616901c60001c9150509392505050565b61170961300c565b600460009054906101000a900473ffffffffffffffffffffffffffffffffffffffff1673ffffffffffffffffffffffffffffffffffffffff166395a81d4e836040518263ffffffff1660e01b81526004016117649190613788565b602060405180830381865afa158015611781573d6000803e3d6000fd5b505050506040513d601f19601f820116820180604052508101906117a59190614735565b73ffffffffffffffffffffffffffffffffffffffff163373ffffffffffffffffffffffffffffffffffffffff1614611812576040517f08c379a0000000000000000000000000000000000000000000000000000000008152600401611809906147ae565b60405180910390fd5b61181a61152e565b73ffffffffffffffffffffffffffffffffffffffff163373ffffffffffffffffffffffffffffffffffffffff161480611854575060065434145b611893576040517f08c379a000000000000000000000000000000000000000000000000000000000815260040161188a9061481a565b60405180910390fd5b60001515600a83815481106118ab576118aa613fbd565b5b906000526020600020906005020160040160049054906101000a900460ff1615151461190c576040517f08c379a000000000000000000000000000000000000000000000000000000000815260040161190390614886565b60405180910390fd5b600460009054906101000a900473ffffffffffffffffffffffffffffffffffffffff1673ffffffffffffffffffffffffffffffffffffffff16636352211e600a848154811061195e5761195d613fbd565b5b9060005260206000209060050201600201546040518263ffffffff1660e01b815260040161198c9190613788565b602060405180830381865afa1580156119a9573d6000803e3d6000fd5b505050506040513d601f19601f820116820180604052508101906119cd9190614735565b73ffffffffffffffffffffffffffffffffffffffff163073ffffffffffffffffffffffffffffffffffffffff1614611a3a576040517f08c379a0000000000000000000000000000000000000000000000000000000008152600401611a31906148f2565b60405180910390fd5b6001600a8381548110611a5057611a4f613fbd565b5b906000526020600020906005020160040160046101000a81548160ff021916908315150217905550600260009054906101000a900473ffffffffffffffffffffffffffffffffffffffff1673ffffffffffffffffffffffffffffffffffffffff1663aa582fc48333846040518463ffffffff1660e01b8152600401611ad793929190614912565b600060405180830381600087803b158015611af157600080fd5b505af1158015611b05573d6000803e3d6000fd5b505050505050565b600960019054906101000a900460ff1681565b611b2861152e565b73ffffffffffffffffffffffffffffffffffffffff163373ffffffffffffffffffffffffffffffffffffffff161480611b62575060075434145b611ba1576040517f08c379a0000000000000000000000000000000000000000000000000000000008152600401611b989061481a565b60405180910390fd5b611ba961152e565b73ffffffffffffffffffffffffffffffffffffffff163373ffffffffffffffffffffffffffffffffffffffff161480611bf5575060011515600960009054906101000a900460ff161515145b611c34576040517f08c379a0000000000000000000000000000000000000000000000000000000008152600401611c2b90614995565b60405180910390fd5b6000600460009054906101000a900473ffffffffffffffffffffffffffffffffffffffff1673ffffffffffffffffffffffffffffffffffffffff16639b6507f064174876e800600080336040518563ffffffff1660e01b8152600401611c9c939291906149f0565b60206040518083038185885af1158015611cba573d6000803e3d6000fd5b50505050506040513d601f19601f82011682018060405250810190611cdf9190614a3c565b90506000600460009054906101000a900473ffffffffffffffffffffffffffffffffffffffff1673ffffffffffffffffffffffffffffffffffffffff166328518381836040518263ffffffff1660e01b8152600401611d3e9190613788565b602060405180830381865afa158015611d5b573d6000803e3d6000fd5b505050506040513d601f19601f82011682018060405250810190611d7f9190614a7e565b9050600a604051806101200160405280838152602001600a8054905081526020018481526020016040518060e00160405280611df660026001600960019054906101000a900460ff16611dd2919061444a565b60ff16611dec896004611de7600c60016111f5565b6116ca565b60ff16600f610e8d565b60000b8152602001611e4360036001600960029054906101000a900460ff16611e1f919061444a565b60ff16611e39896004611e34600a60026111f5565b6116ca565b60ff16600f610e8d565b60000b8152602001611e9060026001600960039054906101000a900460ff16611e6c919061444a565b60ff16611e86896004611e81600c60006111f5565b6116ca565b60ff16600f610e8d565b60000b8152602001611edd60026001600960049054906101000a900460ff16611eb9919061444a565b60ff16611ed3896004611ece600d60006111f5565b6116ca565b60ff16600f610e8d565b60000b8152602001611f2a60026001600960059054906101000a900460ff16611f06919061444a565b60ff16611f20896004611f1b600a60016111f5565b6116ca565b60ff16600f610e8d565b60000b8152602001611f7760026001600960069054906101000a900460ff16611f53919061444a565b60ff16611f6d896004611f68600b60006111f5565b6116ca565b60ff16600f610e8d565b60000b8152602001611fc460026001600960079054906101000a900460ff16611fa0919061444a565b60ff16611fba896004611fb5600a60006111f5565b6116ca565b60ff16600f610e8d565b60000b8152508152602001600060ff1681526020016120126000600960089054906101000a900460ff1660ff16612008876008612003600360006111f5565b6116ca565b60ff1660ff610e8d565b60ff168152602001612051600060098054906101000a900460ff1660ff16612047876008612042600860006111f5565b6116ca565b60ff1660ff610e8d565b60ff16815260200161209260006009600a9054906101000a900460ff1660ff16612088876008612083600860026111f5565b6116ca565b60ff1660ff610e8d565b60ff16815260200160001515815250908060018154018082558091505060019003906000526020600020906005020160009091909190915060008201518160000155602082015181600101556040820151816002015560608201518160030160008201518160000160006101000a81548160ff021916908360000b60ff16021790555060208201518160000160016101000a81548160ff021916908360000b60ff16021790555060408201518160000160026101000a81548160ff021916908360000b60ff16021790555060608201518160000160036101000a81548160ff021916908360000b60ff16021790555060808201518160000160046101000a81548160ff021916908360000b60ff16021790555060a08201518160000160056101000a81548160ff021916908360000b60ff16021790555060c08201518160000160066101000a81548160ff021916908360000b60ff160217905550505060808201518160040160006101000a81548160ff021916908360ff16021790555060a08201518160040160016101000a81548160ff021916908360ff16021790555060c08201518160040160026101000a81548160ff021916908360ff16021790555060e08201518160040160036101000a81548160ff021916908360ff1602179055506101008201518160040160046101000a81548160ff0219169083151502179055505050600b60003373ffffffffffffffffffffffffffffffffffffffff1673ffffffffffffffffffffffffffffffffffffffff1681526020019081526020016000206001600a805490506122e7919061422a565b90806001815401808255809150506001900390600052602060002001600090919091909150555050565b60075481565b600460009054906101000a900473ffffffffffffffffffffffffffffffffffffffff1673ffffffffffffffffffffffffffffffffffffffff166395a81d4e826040518263ffffffff1660e01b81526004016123729190613788565b602060405180830381865afa15801561238f573d6000803e3d6000fd5b505050506040513d601f19601f820116820180604052508101906123b39190614735565b73ffffffffffffffffffffffffffffffffffffffff163373ffffffffffffffffffffffffffffffffffffffff1614612420576040517f08c379a0000000000000000000000000000000000000000000000000000000008152600401612417906147ae565b60405180910390fd5b61242861152e565b73ffffffffffffffffffffffffffffffffffffffff163373ffffffffffffffffffffffffffffffffffffffff161480612462575060065434145b6124a1576040517f08c379a00000000000000000000000000000000000000000000000000000000081526004016124989061481a565b60405180910390fd5b60001515600a82815481106124b9576124b8613fbd565b5b906000526020600020906005020160040160049054906101000a900460ff1615151461251a576040517f08c379a000000000000000000000000000000000000000000000000000000000815260040161251190614886565b60405180910390fd5b600460009054906101000a900473ffffffffffffffffffffffffffffffffffffffff1673ffffffffffffffffffffffffffffffffffffffff16636352211e600a838154811061256c5761256b613fbd565b5b9060005260206000209060050201600201546040518263ffffffff1660e01b815260040161259a9190613788565b602060405180830381865afa1580156125b7573d6000803e3d6000fd5b505050506040513d601f19601f820116820180604052508101906125db9190614735565b73ffffffffffffffffffffffffffffffffffffffff163073ffffffffffffffffffffffffffffffffffffffff1614612648576040517f08c379a000000000000000000000000000000000000000000000000000000000815260040161263f906148f2565b60405180910390fd5b6001600a828154811061265e5761265d613fbd565b5b906000526020600020906005020160040160046101000a81548160ff021916908315150217905550600260009054906101000a900473ffffffffffffffffffffffffffffffffffffffff1673ffffffffffffffffffffffffffffffffffffffff1663237c201b82336040518363ffffffff1660e01b81526004016126e3929190614aab565b600060405180830381600087803b1580156126fd57600080fd5b505af1158015612711573d6000803e3d6000fd5b5050505050565b600960059054906101000a900460ff1681565b60008061273a6001600661277d565b60ff1690507f095cdc619082b4591c96a4dcfd31737c0f7d768edeb74d7cda25aba2eefe72688160405161276e9190613788565b60405180910390a18091505090565b600060016000815480929190612792906140e1565b9190505550600033600154426040516020016127b093929190614ad4565b6040516020818303038152906040528051906020012060001c90506000600185856127db9190614416565b6127e5919061444a565b90508460ff168160ff16836127fa9190614b11565b61280491906142be565b9250505092915050565b60008061281961272b565b90507f5d360683067536056d2d530278a59b1f5c60a2affe207338479da0f44feda76d81858560405161284e93929190614b42565b60405180910390a16001811415612869576000915050612898565b600383858361287891906142be565b6128829190614b79565b1315612892576001915050612898565b60009150505b92915050565b600460009054906101000a900473ffffffffffffffffffffffffffffffffffffffff1673ffffffffffffffffffffffffffffffffffffffff166395a81d4e826040518263ffffffff1660e01b81526004016128f99190613788565b602060405180830381865afa158015612916573d6000803e3d6000fd5b505050506040513d601f19601f8201168201806040525081019061293a9190614735565b73ffffffffffffffffffffffffffffffffffffffff163373ffffffffffffffffffffffffffffffffffffffff16146129a7576040517f08c379a000000000000000000000000000000000000000000000000000000000815260040161299e906147ae565b60405180910390fd5b6129af61152e565b73ffffffffffffffffffffffffffffffffffffffff163373ffffffffffffffffffffffffffffffffffffffff1614806129e9575060085434145b612a28576040517f08c379a0000000000000000000000000000000000000000000000000000000008152600401612a1f9061481a565b60405180910390fd5b60001515600a8281548110612a4057612a3f613fbd565b5b906000526020600020906005020160040160049054906101000a900460ff16151514612aa1576040517f08c379a0000000000000000000000000000000000000000000000000000000008152600401612a9890614886565b60405180910390fd5b600460009054906101000a900473ffffffffffffffffffffffffffffffffffffffff1673ffffffffffffffffffffffffffffffffffffffff16636352211e600a8381548110612af357612af2613fbd565b5b9060005260206000209060050201600201546040518263ffffffff1660e01b8152600401612b219190613788565b602060405180830381865afa158015612b3e573d6000803e3d6000fd5b505050506040513d601f19601f82011682018060405250810190612b629190614735565b73ffffffffffffffffffffffffffffffffffffffff163073ffffffffffffffffffffffffffffffffffffffff1614612bcf576040517f08c379a0000000000000000000000000000000000000000000000000000000008152600401612bc6906148f2565b60405180910390fd5b6001600a8281548110612be557612be4613fbd565b5b906000526020600020906005020160040160046101000a81548160ff021916908315150217905550600260009054906101000a900473ffffffffffffffffffffffffffffffffffffffff1673ffffffffffffffffffffffffffffffffffffffff1663a707d63282336040518363ffffffff1660e01b8152600401612c6a929190614aab565b600060405180830381600087803b158015612c8457600080fd5b505af1158015612c98573d6000803e3d6000fd5b5050505050565b612ca761300c565b600073ffffffffffffffffffffffffffffffffffffffff168173ffffffffffffffffffffffffffffffffffffffff161415612d17576040517f08c379a0000000000000000000000000000000000000000000000000000000008152600401612d0e90614c7f565b60405180910390fd5b612d208161308a565b50565b6000600182600001518460000151612d3b9190614c9f565b60000b1415612d4d5760009050612e3e565b7fffffffffffffffffffffffffffffffffffffffffffffffffffffffffffffffff82600001518460000151612d829190614c9f565b60000b1415612d945760019050612e3e565b7fffffffffffffffffffffffffffffffffffffffffffffffffffffffffffffffff82602001518460200151612dc99190614c9f565b60000b1415612ddb5760029050612e3e565b600182602001518460200151612df19190614c9f565b60000b1415612e035760039050612e3e565b6040517f08c379a0000000000000000000000000000000000000000000000000000000008152600401612e3590614d60565b60405180910390fd5b92915050565b60065481565b600460009054906101000a900473ffffffffffffffffffffffffffffffffffffffff1673ffffffffffffffffffffffffffffffffffffffff166395a81d4e826040518263ffffffff1660e01b8152600401612ea59190613788565b602060405180830381865afa158015612ec2573d6000803e3d6000fd5b505050506040513d601f19601f82011682018060405250810190612ee69190614735565b73ffffffffffffffffffffffffffffffffffffffff163373ffffffffffffffffffffffffffffffffffffffff1614612f53576040517f08c379a0000000000000000000000000000000000000000000000000000000008152600401612f4a90614dcc565b60405180910390fd5b600460009054906101000a900473ffffffffffffffffffffffffffffffffffffffff1673ffffffffffffffffffffffffffffffffffffffff166342842e0e3033600a8581548110612fa757612fa6613fbd565b5b9060005260206000209060050201600201546040518463ffffffff1660e01b8152600401612fd793929190614dec565b600060405180830381600087803b158015612ff157600080fd5b505af1158015613005573d6000803e3d6000fd5b5050505050565b6130146132af565b73ffffffffffffffffffffffffffffffffffffffff1661303261152e565b73ffffffffffffffffffffffffffffffffffffffff1614613088576040517f08c379a000000000000000000000000000000000000000000000000000000000815260040161307f90614e6f565b60405180910390fd5b565b60008060009054906101000a900473ffffffffffffffffffffffffffffffffffffffff169050816000806101000a81548173ffffffffffffffffffffffffffffffffffffffff021916908373ffffffffffffffffffffffffffffffffffffffff1602179055508173ffffffffffffffffffffffffffffffffffffffff168173ffffffffffffffffffffffffffffffffffffffff167f8be0079c531659141344cd1fd0a4f28419497f9722a3daafe3b4186f6b6457e060405160405180910390a35050565b60606000821415613196576040518060400160405280600181526020017f300000000000000000000000000000000000000000000000000000000000000081525090506132aa565b600082905060005b600082146131c85780806131b1906140e1565b915050600a826131c1919061428d565b915061319e565b60008167ffffffffffffffff8111156131e4576131e3613d3d565b5b6040519080825280601f01601f1916602001820160405280156132165781602001600182028036833780820191505090505b5090505b600085146132a35760018261322f919061422a565b9150600a8561323e9190614b11565b603061324a91906142be565b60f81b8183815181106132605761325f613fbd565b5b60200101907effffffffffffffffffffffffffffffffffffffffffffffffffffffffffffff1916908160001a905350600a8561329c919061428d565b945061321a565b8093505050505b919050565b600033905090565b6040518061012001604052806000801916815260200160008152602001600081526020016132e361333a565b8152602001600060ff168152602001600060ff168152602001600060ff168152602001600060ff1681526020016000151581525090565b6040518060400160405280600060ff168152602001600060ff1681525090565b6040518060e001604052806000800b81526020016000800b81526020016000800b81526020016000800b81526020016000800b81526020016000800b81526020016000800b81525090565b600073ffffffffffffffffffffffffffffffffffffffff82169050919050565b6000819050919050565b60006133ca6133c56133c084613385565b6133a5565b613385565b9050919050565b60006133dc826133af565b9050919050565b60006133ee826133d1565b9050919050565b6133fe816133e3565b82525050565b600060208201905061341960008301846133f5565b92915050565b6000604051905090565b600080fd5b600080fd5b6000819050919050565b61344681613433565b811461345157600080fd5b50565b6000813590506134638161343d565b92915050565b60006020828403121561347f5761347e613429565b5b600061348d84828501613454565b91505092915050565b60006134a182613385565b9050919050565b6134b181613496565b81146134bc57600080fd5b50565b6000813590506134ce816134a8565b92915050565b600080fd5b600080fd5b600080fd5b60008083601f8401126134f9576134f86134d4565b5b8235905067ffffffffffffffff811115613516576135156134d9565b5b602083019150836001820283011115613532576135316134de565b5b9250929050565b60008060008060006080868803121561355557613554613429565b5b6000613563888289016134bf565b9550506020613574888289016134bf565b945050604061358588828901613454565b935050606086013567ffffffffffffffff8111156135a6576135a561342e565b5b6135b2888289016134e3565b92509250509295509295909350565b60007fffffffff0000000000000000000000000000000000000000000000000000000082169050919050565b6135f6816135c1565b82525050565b600060208201905061361160008301846135ed565b92915050565b61362081613496565b82525050565b600060208201905061363b6000830184613617565b92915050565b6000819050919050565b61365481613641565b811461365f57600080fd5b50565b6000813590506136718161364b565b92915050565b60006020828403121561368d5761368c613429565b5b600061369b84828501613662565b91505092915050565b6136ad81613641565b82525050565b60006020820190506136c860008301846136a4565b92915050565b6000819050919050565b6136e1816136ce565b82525050565b60006020820190506136fc60008301846136d8565b92915050565b600060ff82169050919050565b61371881613702565b82525050565b6000602082019050613733600083018461370f565b92915050565b600080604083850312156137505761374f613429565b5b600061375e85828601613454565b925050602061376f85828601613454565b9150509250929050565b61378281613433565b82525050565b600060208201905061379d6000830184613779565b92915050565b60008115159050919050565b6137b8816137a3565b82525050565b60006020820190506137d360008301846137af565b92915050565b60008160000b9050919050565b6137ef816137d9565b82525050565b60e08201600082015161380b60008501826137e6565b50602082015161381e60208501826137e6565b50604082015161383160408501826137e6565b50606082015161384460608501826137e6565b50608082015161385760808501826137e6565b5060a082015161386a60a08501826137e6565b5060c082015161387d60c08501826137e6565b50505050565b60006101e082019050613899600083018c6136d8565b6138a6602083018b613779565b6138b3604083018a613779565b6138c060608301896137f5565b6138ce61014083018861370f565b6138dc61016083018761370f565b6138ea61018083018661370f565b6138f86101a083018561370f565b6139066101c08301846137af565b9a9950505050505050505050565b6000806040838503121561392b5761392a613429565b5b6000613939858286016134bf565b925050602061394a85828601613454565b9150509250929050565b6000806000806080858703121561396e5761396d613429565b5b600061397c87828801613454565b945050602061398d87828801613454565b935050604061399e87828801613454565b92505060606139af87828801613454565b91505092959194509250565b6000602082840312156139d1576139d0613429565b5b60006139df848285016134bf565b91505092915050565b600081519050919050565b600082825260208201905092915050565b6000819050602082019050919050565b613a1d816136ce565b82525050565b613a2c81613433565b82525050565b60e082016000820151613a4860008501826137e6565b506020820151613a5b60208501826137e6565b506040820151613a6e60408501826137e6565b506060820151613a8160608501826137e6565b506080820151613a9460808501826137e6565b5060a0820151613aa760a08501826137e6565b5060c0820151613aba60c08501826137e6565b50505050565b613ac981613702565b82525050565b613ad8816137a3565b82525050565b6101e082016000820151613af56000850182613a14565b506020820151613b086020850182613a23565b506040820151613b1b6040850182613a23565b506060820151613b2e6060850182613a32565b506080820151613b42610140850182613ac0565b5060a0820151613b56610160850182613ac0565b5060c0820151613b6a610180850182613ac0565b5060e0820151613b7e6101a0850182613ac0565b50610100820151613b936101c0850182613acf565b50505050565b6000613ba58383613ade565b6101e08301905092915050565b6000602082019050919050565b6000613bca826139e8565b613bd481856139f3565b9350613bdf83613a04565b8060005b83811015613c10578151613bf78882613b99565b9750613c0283613bb2565b925050600181019050613be3565b5085935050505092915050565b60006020820190508181036000830152613c378184613bbf565b905092915050565b6000613c4a826133d1565b9050919050565b613c5a81613c3f565b82525050565b6000602082019050613c756000830184613c51565b92915050565b613c84816137a3565b8114613c8f57600080fd5b50565b600081359050613ca181613c7b565b92915050565b600060208284031215613cbd57613cbc613429565b5b6000613ccb84828501613c92565b91505092915050565b600080600060608486031215613ced57613cec613429565b5b6000613cfb868287016134bf565b9350506020613d0c868287016134bf565b9250506040613d1d868287016134bf565b9150509250925092565b600080fd5b6000601f19601f8301169050919050565b7f4e487b7100000000000000000000000000000000000000000000000000000000600052604160045260246000fd5b613d7582613d2c565b810181811067ffffffffffffffff82111715613d9457613d93613d3d565b5b80604052505050565b6000613da761341f565b9050613db38282613d6c565b919050565b613dc181613702565b8114613dcc57600080fd5b50565b600081359050613dde81613db8565b92915050565b600060408284031215613dfa57613df9613d27565b5b613e046040613d9d565b90506000613e1484828501613dcf565b6000830152506020613e2884828501613dcf565b60208301525092915050565b60008060608385031215613e4b57613e4a613429565b5b6000613e5985828601613454565b9250506020613e6a85828601613de4565b9150509250929050565b604082016000820151613e8a6000850182613ac0565b506020820151613e9d6020850182613ac0565b50505050565b6000604082019050613eb86000830184613e74565b92915050565b613ec7816136ce565b8114613ed257600080fd5b50565b600081359050613ee481613ebe565b92915050565b600080600060608486031215613f0357613f02613429565b5b6000613f1186828701613ed5565b9350506020613f2286828701613454565b9250506040613f3386828701613454565b9150509250925092565b60008060408385031215613f5457613f53613429565b5b6000613f6285828601613dcf565b9250506020613f7385828601613dcf565b9150509250929050565b60008060808385031215613f9457613f93613429565b5b6000613fa285828601613de4565b9250506040613fb385828601613de4565b9150509250929050565b7f4e487b7100000000000000000000000000000000000000000000000000000000600052603260045260246000fd5b600082825260208201905092915050565b7f4368617220696e2067616d650000000000000000000000000000000000000000600082015250565b6000614033600c83613fec565b915061403e82613ffd565b602082019050919050565b6000602082019050818103600083015261406281614026565b9050919050565b7f4e487b7100000000000000000000000000000000000000000000000000000000600052601160045260246000fd5b60006140a382613641565b91507f80000000000000000000000000000000000000000000000000000000000000008214156140d6576140d5614069565b5b816000039050919050565b60006140ec82613433565b91507fffffffffffffffffffffffffffffffffffffffffffffffffffffffffffffffff82141561411f5761411e614069565b5b600182019050919050565b6000819050919050565b61414561414082613433565b61412a565b82525050565b60008160601b9050919050565b60006141638261414b565b9050919050565b600061417582614158565b9050919050565b61418d61418882613496565b61416a565b82525050565b600061419f8286614134565b6020820191506141af8285614134565b6020820191506141bf828461417c565b601482019150819050949350505050565b60006141db82613433565b91506141e683613433565b9250817fffffffffffffffffffffffffffffffffffffffffffffffffffffffffffffffff048311821515161561421f5761421e614069565b5b828202905092915050565b600061423582613433565b915061424083613433565b92508282101561425357614252614069565b5b828203905092915050565b7f4e487b7100000000000000000000000000000000000000000000000000000000600052601260045260246000fd5b600061429882613433565b91506142a383613433565b9250826142b3576142b261425e565b5b828204905092915050565b60006142c982613433565b91506142d483613433565b9250827fffffffffffffffffffffffffffffffffffffffffffffffffffffffffffffffff0382111561430957614308614069565b5b828201905092915050565b7f4f6e6c792067616d657320636f6e747261637400000000000000000000000000600082015250565b600061434a601383613fec565b915061435582614314565b602082019050919050565b600060208201905081810360008301526143798161433d565b9050919050565b600061438b82613702565b915060ff82141561439f5761439e614069565b5b600182019050919050565b7f42616420646972656374696f6e00000000000000000000000000000000000000600082015250565b60006143e0600d83613fec565b91506143eb826143aa565b602082019050919050565b6000602082019050818103600083015261440f816143d3565b9050919050565b600061442182613702565b915061442c83613702565b92508282101561443f5761443e614069565b5b828203905092915050565b600061445582613702565b915061446083613702565b92508260ff0382111561447657614475614069565b5b828201905092915050565b7f496e76616c696420646972656374696f6e3a2000000000000000000000000000815250565b600081519050919050565b600081905092915050565b60005b838110156144db5780820151818401526020810190506144c0565b838111156144ea576000848401525b50505050565b60006144fb826144a7565b61450581856144b2565b93506145158185602086016144bd565b80840191505092915050565b600061452c82614481565b60138201915061453c82846144f0565b915081905092915050565b6000614552826144a7565b61455c8185613fec565b935061456c8185602086016144bd565b61457581613d2c565b840191505092915050565b6000602082019050818103600083015261459a8184614547565b905092915050565b60008160011c9050919050565b6000808291508390505b60018511156145f9578086048111156145d5576145d4614069565b5b60018516156145e45780820291505b80810290506145f2856145a2565b94506145b9565b94509492505050565b60008261461257600190506146ce565b8161462057600090506146ce565b816001811461463657600281146146405761466f565b60019150506146ce565b60ff84111561465257614651614069565b5b8360020a91508482111561466957614668614069565b5b506146ce565b5060208310610133831016604e8410600b84101617156146a45782820a90508381111561469f5761469e614069565b5b6146ce565b6146b184848460016145af565b925090508184048111156146c8576146c7614069565b5b81810290505b9392505050565b60006146e082613433565b91506146eb83613433565b92506147187fffffffffffffffffffffffffffffffffffffffffffffffffffffffffffffffff8484614602565b905092915050565b60008151905061472f816134a8565b92915050565b60006020828403121561474b5761474a613429565b5b600061475984828501614720565b91505092915050565b7f4e6f7420796f7572206368617261637465720000000000000000000000000000600082015250565b6000614798601283613fec565b91506147a382614762565b602082019050919050565b600060208201905081810360008301526147c78161478b565b9050919050565b7f496e636f7272656374207061796d656e74000000000000000000000000000000600082015250565b6000614804601183613fec565b915061480f826147ce565b602082019050919050565b60006020820190508181036000830152614833816147f7565b9050919050565b7f416c726561647920696e2067616d650000000000000000000000000000000000600082015250565b6000614870600f83613fec565b915061487b8261483a565b602082019050919050565b6000602082019050818103600083015261489f81614863565b9050919050565b7f554949206e6f74206c6f61646564000000000000000000000000000000000000600082015250565b60006148dc600e83613fec565b91506148e7826148a6565b602082019050919050565b6000602082019050818103600083015261490b816148cf565b9050919050565b60006060820190506149276000830186613779565b6149346020830185613617565b6149416040830184613779565b949350505050565b7f4d696e74696e67206973206e6f74206163746976650000000000000000000000600082015250565b600061497f601583613fec565b915061498a82614949565b602082019050919050565b600060208201905081810360008301526149ae81614972565b9050919050565b6000819050919050565b60006149da6149d56149d0846149b5565b6133a5565b613433565b9050919050565b6149ea816149bf565b82525050565b6000606082019050614a0560008301866149e1565b614a1260208301856149e1565b614a1f6040830184613617565b949350505050565b600081519050614a368161343d565b92915050565b600060208284031215614a5257614a51613429565b5b6000614a6084828501614a27565b91505092915050565b600081519050614a7881613ebe565b92915050565b600060208284031215614a9457614a93613429565b5b6000614aa284828501614a69565b91505092915050565b6000604082019050614ac06000830185613779565b614acd6020830184613617565b9392505050565b6000614ae0828661417c565b601482019150614af08285614134565b602082019150614b008284614134565b602082019150819050949350505050565b6000614b1c82613433565b9150614b2783613433565b925082614b3757614b3661425e565b5b828206905092915050565b6000606082019050614b576000830186613779565b614b646020830185613779565b614b716040830184613779565b949350505050565b6000614b8482613641565b9150614b8f83613641565b9250827f800000000000000000000000000000000000000000000000000000000000000001821260008412151615614bca57614bc9614069565b5b827f7fffffffffffffffffffffffffffffffffffffffffffffffffffffffffffffff018213600084121615614c0257614c01614069565b5b828203905092915050565b7f4f776e61626c653a206e6577206f776e657220697320746865207a65726f206160008201527f6464726573730000000000000000000000000000000000000000000000000000602082015250565b6000614c69602683613fec565b9150614c7482614c0d565b604082019050919050565b60006020820190508181036000830152614c9881614c5c565b9050919050565b6000614caa826137d9565b9150614cb5836137d9565b9250827fffffffffffffffffffffffffffffffffffffffffffffffffffffffffffffff8001821260008412151615614cf057614cef614069565b5b82607f018213600084121615614d0957614d08614069565b5b828203905092915050565b7f4572726f723a204e6f742061646a6163656e7400000000000000000000000000600082015250565b6000614d4a601383613fec565b9150614d5582614d14565b602082019050919050565b60006020820190508181036000830152614d7981614d3d565b9050919050565b7f4e6f7420796f7572207569690000000000000000000000000000000000000000600082015250565b6000614db6600c83613fec565b9150614dc182614d80565b602082019050919050565b60006020820190508181036000830152614de581614da9565b9050919050565b6000606082019050614e016000830186613617565b614e0e6020830185613617565b614e1b6040830184613779565b949350505050565b7f4f776e61626c653a2063616c6c6572206973206e6f7420746865206f776e6572600082015250565b6000614e59602083613fec565b9150614e6482614e23565b602082019050919050565b60006020820190508181036000830152614e8881614e4c565b905091905056fea2646970667358221220a3488c8eed595631743082dfde968737a26c406d0ffaef46bc683654b18c516d64736f6c634300080c0033",
  "devdoc": {
    "kind": "dev",
    "methods": {
      "owner()": {
        "details": "Returns the address of the current owner."
      },
      "renounceOwnership()": {
        "details": "Leaves the contract without owner. It will not be possible to call `onlyOwner` functions anymore. Can only be called by the current owner. NOTE: Renouncing ownership will leave the contract without an owner, thereby removing any functionality that is only available to the owner."
      },
      "transferOwnership(address)": {
        "details": "Transfers ownership of the contract to a new account (`newOwner`). Can only be called by the current owner."
      }
    },
    "version": 1
  },
  "userdoc": {
    "kind": "user",
    "methods": {},
    "version": 1
  },
  "storageLayout": {
    "storage": [
      {
        "astId": 7,
        "contract": "contracts/BCChars.sol:BCChars",
        "label": "_owner",
        "offset": 0,
        "slot": "0",
        "type": "t_address"
      },
      {
        "astId": 4260,
        "contract": "contracts/BCChars.sol:BCChars",
        "label": "TODO_randomSeed",
        "offset": 0,
        "slot": "1",
        "type": "t_uint256"
      },
      {
        "astId": 1875,
        "contract": "contracts/BCChars.sol:BCChars",
        "label": "lobbies",
        "offset": 0,
        "slot": "2",
        "type": "t_contract(LobbyInterface)1825"
      },
      {
        "astId": 1877,
        "contract": "contracts/BCChars.sol:BCChars",
        "label": "gamesContract",
        "offset": 0,
        "slot": "3",
        "type": "t_address"
      },
      {
        "astId": 1880,
        "contract": "contracts/BCChars.sol:BCChars",
        "label": "uif",
        "offset": 0,
        "slot": "4",
        "type": "t_contract(UIFInterface)1866"
      },
      {
        "astId": 1882,
        "contract": "contracts/BCChars.sol:BCChars",
        "label": "debugAllowedUser",
        "offset": 0,
        "slot": "5",
        "type": "t_address"
      },
      {
        "astId": 1917,
        "contract": "contracts/BCChars.sol:BCChars",
        "label": "enlistCost",
        "offset": 0,
        "slot": "6",
        "type": "t_uint256"
      },
      {
        "astId": 1924,
        "contract": "contracts/BCChars.sol:BCChars",
        "label": "mintCost",
        "offset": 0,
        "slot": "7",
        "type": "t_uint256"
      },
      {
        "astId": 1929,
        "contract": "contracts/BCChars.sol:BCChars",
        "label": "soloCost",
        "offset": 0,
        "slot": "8",
        "type": "t_uint256"
      },
      {
        "astId": 1932,
        "contract": "contracts/BCChars.sol:BCChars",
        "label": "mintIsActive",
        "offset": 0,
        "slot": "9",
        "type": "t_bool"
      },
      {
        "astId": 1935,
        "contract": "contracts/BCChars.sol:BCChars",
        "label": "healthCap",
        "offset": 1,
        "slot": "9",
        "type": "t_uint8"
      },
      {
        "astId": 1938,
        "contract": "contracts/BCChars.sol:BCChars",
        "label": "carryCap",
        "offset": 2,
        "slot": "9",
        "type": "t_uint8"
      },
      {
        "astId": 1941,
        "contract": "contracts/BCChars.sol:BCChars",
        "label": "defenseCap",
        "offset": 3,
        "slot": "9",
        "type": "t_uint8"
      },
      {
        "astId": 1944,
        "contract": "contracts/BCChars.sol:BCChars",
        "label": "hackCap",
        "offset": 4,
        "slot": "9",
        "type": "t_uint8"
      },
      {
        "astId": 1947,
        "contract": "contracts/BCChars.sol:BCChars",
        "label": "breachCap",
        "offset": 5,
        "slot": "9",
        "type": "t_uint8"
      },
      {
        "astId": 1950,
        "contract": "contracts/BCChars.sol:BCChars",
        "label": "shootCap",
        "offset": 6,
        "slot": "9",
        "type": "t_uint8"
      },
      {
        "astId": 1953,
        "contract": "contracts/BCChars.sol:BCChars",
        "label": "meleeCap",
        "offset": 7,
        "slot": "9",
        "type": "t_uint8"
      },
      {
        "astId": 1956,
        "contract": "contracts/BCChars.sol:BCChars",
        "label": "maxClonesCap",
        "offset": 8,
        "slot": "9",
        "type": "t_uint8"
      },
      {
        "astId": 1959,
        "contract": "contracts/BCChars.sol:BCChars",
        "label": "abilityCap",
        "offset": 9,
        "slot": "9",
        "type": "t_uint8"
      },
      {
        "astId": 1962,
        "contract": "contracts/BCChars.sol:BCChars",
        "label": "flawCap",
        "offset": 10,
        "slot": "9",
        "type": "t_uint8"
      },
      {
        "astId": 1966,
        "contract": "contracts/BCChars.sol:BCChars",
        "label": "characters",
        "offset": 0,
        "slot": "10",
        "type": "t_array(t_struct(Character)4200_storage)dyn_storage"
      },
      {
        "astId": 1971,
        "contract": "contracts/BCChars.sol:BCChars",
        "label": "charsOwned",
        "offset": 0,
        "slot": "11",
        "type": "t_mapping(t_address,t_array(t_uint256)dyn_storage)"
      }
    ],
    "types": {
      "t_address": {
        "encoding": "inplace",
        "label": "address",
        "numberOfBytes": "20"
      },
      "t_array(t_struct(Character)4200_storage)dyn_storage": {
        "base": "t_struct(Character)4200_storage",
        "encoding": "dynamic_array",
        "label": "struct BCTypes.Character[]",
        "numberOfBytes": "32"
      },
      "t_array(t_uint256)dyn_storage": {
        "base": "t_uint256",
        "encoding": "dynamic_array",
        "label": "uint256[]",
        "numberOfBytes": "32"
      },
      "t_bool": {
        "encoding": "inplace",
        "label": "bool",
        "numberOfBytes": "1"
      },
      "t_bytes32": {
        "encoding": "inplace",
        "label": "bytes32",
        "numberOfBytes": "32"
      },
      "t_contract(LobbyInterface)1825": {
        "encoding": "inplace",
        "label": "contract LobbyInterface",
        "numberOfBytes": "20"
      },
      "t_contract(UIFInterface)1866": {
        "encoding": "inplace",
        "label": "contract UIFInterface",
        "numberOfBytes": "20"
      },
      "t_int8": {
        "encoding": "inplace",
        "label": "int8",
        "numberOfBytes": "1"
      },
      "t_mapping(t_address,t_array(t_uint256)dyn_storage)": {
        "encoding": "mapping",
        "key": "t_address",
        "label": "mapping(address => uint256[])",
        "numberOfBytes": "32",
        "value": "t_array(t_uint256)dyn_storage"
      },
      "t_struct(Character)4200_storage": {
        "encoding": "inplace",
        "label": "struct BCTypes.Character",
        "members": [
          {
            "astId": 4182,
            "contract": "contracts/BCChars.sol:BCChars",
            "label": "genHash",
            "offset": 0,
            "slot": "0",
            "type": "t_bytes32"
          },
          {
            "astId": 4184,
            "contract": "contracts/BCChars.sol:BCChars",
            "label": "id",
            "offset": 0,
            "slot": "1",
            "type": "t_uint256"
          },
          {
            "astId": 4186,
            "contract": "contracts/BCChars.sol:BCChars",
            "label": "uifID",
            "offset": 0,
            "slot": "2",
            "type": "t_uint256"
          },
          {
            "astId": 4189,
            "contract": "contracts/BCChars.sol:BCChars",
            "label": "traits",
            "offset": 0,
            "slot": "3",
            "type": "t_struct(Traits)4180_storage"
          },
          {
            "astId": 4191,
            "contract": "contracts/BCChars.sol:BCChars",
            "label": "cloneNumber",
            "offset": 0,
            "slot": "4",
            "type": "t_uint8"
          },
          {
            "astId": 4193,
            "contract": "contracts/BCChars.sol:BCChars",
            "label": "maxClones",
            "offset": 1,
            "slot": "4",
            "type": "t_uint8"
          },
          {
            "astId": 4195,
            "contract": "contracts/BCChars.sol:BCChars",
            "label": "ability",
            "offset": 2,
            "slot": "4",
            "type": "t_uint8"
          },
          {
            "astId": 4197,
            "contract": "contracts/BCChars.sol:BCChars",
            "label": "flaw",
            "offset": 3,
            "slot": "4",
            "type": "t_uint8"
          },
          {
            "astId": 4199,
            "contract": "contracts/BCChars.sol:BCChars",
            "label": "inGame",
            "offset": 4,
            "slot": "4",
            "type": "t_bool"
          }
        ],
        "numberOfBytes": "160"
      },
      "t_struct(Traits)4180_storage": {
        "encoding": "inplace",
        "label": "struct BCTypes.Traits",
        "members": [
          {
            "astId": 4167,
            "contract": "contracts/BCChars.sol:BCChars",
            "label": "health",
            "offset": 0,
            "slot": "0",
            "type": "t_int8"
          },
          {
            "astId": 4169,
            "contract": "contracts/BCChars.sol:BCChars",
            "label": "carry",
            "offset": 1,
            "slot": "0",
            "type": "t_int8"
          },
          {
            "astId": 4171,
            "contract": "contracts/BCChars.sol:BCChars",
            "label": "defense",
            "offset": 2,
            "slot": "0",
            "type": "t_int8"
          },
          {
            "astId": 4173,
            "contract": "contracts/BCChars.sol:BCChars",
            "label": "hack",
            "offset": 3,
            "slot": "0",
            "type": "t_int8"
          },
          {
            "astId": 4175,
            "contract": "contracts/BCChars.sol:BCChars",
            "label": "breach",
            "offset": 4,
            "slot": "0",
            "type": "t_int8"
          },
          {
            "astId": 4177,
            "contract": "contracts/BCChars.sol:BCChars",
            "label": "shoot",
            "offset": 5,
            "slot": "0",
            "type": "t_int8"
          },
          {
            "astId": 4179,
            "contract": "contracts/BCChars.sol:BCChars",
            "label": "melee",
            "offset": 6,
            "slot": "0",
            "type": "t_int8"
          }
        ],
        "numberOfBytes": "32"
      },
      "t_uint256": {
        "encoding": "inplace",
        "label": "uint256",
        "numberOfBytes": "32"
      },
      "t_uint8": {
        "encoding": "inplace",
        "label": "uint8",
        "numberOfBytes": "1"
      }
    }
  }
}