{
  "address": "0xeC164305F7E22ab98049ac72612C09A18c1fC7ca",
  "abi": [
    {
      "inputs": [],
      "stateMutability": "nonpayable",
      "type": "constructor"
    },
    {
      "anonymous": false,
      "inputs": [
        {
          "indexed": false,
          "internalType": "uint256",
          "name": "gameId",
          "type": "uint256"
        },
        {
          "indexed": false,
          "internalType": "uint256",
          "name": "roll",
          "type": "uint256"
        },
        {
          "indexed": false,
          "internalType": "uint256",
          "name": "forValue",
          "type": "uint256"
        },
        {
          "indexed": false,
          "internalType": "uint256",
          "name": "against",
          "type": "uint256"
        }
      ],
      "name": "ChallengeEvent",
      "type": "event"
    },
    {
      "anonymous": false,
      "inputs": [
        {
          "indexed": false,
          "internalType": "uint256",
          "name": "gameId",
          "type": "uint256"
        },
        {
          "indexed": false,
          "internalType": "uint256",
          "name": "roll",
          "type": "uint256"
        }
      ],
      "name": "DiceRollEvent",
      "type": "event"
    },
    {
      "anonymous": false,
      "inputs": [
        {
          "indexed": true,
          "internalType": "address",
          "name": "previousOwner",
          "type": "address"
        },
        {
          "indexed": true,
          "internalType": "address",
          "name": "newOwner",
          "type": "address"
        }
      ],
      "name": "OwnershipTransferred",
      "type": "event"
    },
    {
      "anonymous": false,
      "inputs": [],
      "name": "Received",
      "type": "event"
    },
    {
      "inputs": [
        {
          "internalType": "uint256",
          "name": "_matic",
          "type": "uint256"
        }
      ],
      "name": "SetEnlistCostInMatic",
      "outputs": [],
      "stateMutability": "nonpayable",
      "type": "function"
    },
    {
      "inputs": [
        {
          "internalType": "uint256",
          "name": "_matic",
          "type": "uint256"
        }
      ],
      "name": "SetMintCostInMatic",
      "outputs": [],
      "stateMutability": "nonpayable",
      "type": "function"
    },
    {
      "inputs": [
        {
          "internalType": "int256",
          "name": "x",
          "type": "int256"
        }
      ],
      "name": "abs",
      "outputs": [
        {
          "internalType": "int256",
          "name": "",
          "type": "int256"
        }
      ],
      "stateMutability": "pure",
      "type": "function"
    },
    {
      "inputs": [],
      "name": "breachCap",
      "outputs": [
        {
          "internalType": "uint8",
          "name": "",
          "type": "uint8"
        }
      ],
      "stateMutability": "view",
      "type": "function"
    },
    {
      "inputs": [],
      "name": "carryCap",
      "outputs": [
        {
          "internalType": "uint8",
          "name": "",
          "type": "uint8"
        }
      ],
      "stateMutability": "view",
      "type": "function"
    },
    {
      "inputs": [
        {
          "internalType": "uint256",
          "name": "",
          "type": "uint256"
        }
      ],
      "name": "characters",
      "outputs": [
        {
          "internalType": "bytes32",
          "name": "genHash",
          "type": "bytes32"
        },
        {
          "internalType": "uint256",
          "name": "id",
          "type": "uint256"
        },
        {
          "internalType": "uint256",
          "name": "uifID",
          "type": "uint256"
        },
        {
          "components": [
            {
              "internalType": "int8",
              "name": "health",
              "type": "int8"
            },
            {
              "internalType": "int8",
              "name": "carry",
              "type": "int8"
            },
            {
              "internalType": "int8",
              "name": "defense",
              "type": "int8"
            },
            {
              "internalType": "int8",
              "name": "hack",
              "type": "int8"
            },
            {
              "internalType": "int8",
              "name": "breach",
              "type": "int8"
            },
            {
              "internalType": "int8",
              "name": "shoot",
              "type": "int8"
            },
            {
              "internalType": "int8",
              "name": "melee",
              "type": "int8"
            },
            {
              "internalType": "bool",
              "name": "hasGun",
              "type": "bool"
            }
          ],
          "internalType": "struct BCTypes.Traits",
          "name": "traits",
          "type": "tuple"
        },
        {
          "internalType": "uint8",
          "name": "cloneNumber",
          "type": "uint8"
        },
        {
          "internalType": "uint8",
          "name": "maxClones",
          "type": "uint8"
        },
        {
          "internalType": "uint8",
          "name": "ability",
          "type": "uint8"
        },
        {
          "internalType": "uint8",
          "name": "flaw",
          "type": "uint8"
        },
        {
          "internalType": "bool",
          "name": "inGame",
          "type": "bool"
        },
        {
          "internalType": "uint256",
          "name": "gameId",
          "type": "uint256"
        }
      ],
      "stateMutability": "view",
      "type": "function"
    },
    {
      "inputs": [],
      "name": "decantNewClone",
      "outputs": [],
      "stateMutability": "payable",
      "type": "function"
    },
    {
      "inputs": [],
      "name": "defenseCap",
      "outputs": [
        {
          "internalType": "uint8",
          "name": "",
          "type": "uint8"
        }
      ],
      "stateMutability": "view",
      "type": "function"
    },
    {
      "inputs": [
        {
          "internalType": "uint256",
          "name": "_charId",
          "type": "uint256"
        },
        {
          "internalType": "uint256[]",
          "name": "_itemIds",
          "type": "uint256[]"
        }
      ],
      "name": "enlistChar",
      "outputs": [],
      "stateMutability": "payable",
      "type": "function"
    },
    {
      "inputs": [],
      "name": "enlistCost",
      "outputs": [
        {
          "internalType": "uint256",
          "name": "",
          "type": "uint256"
        }
      ],
      "stateMutability": "view",
      "type": "function"
    },
    {
      "inputs": [
        {
          "internalType": "uint256",
          "name": "_charId",
          "type": "uint256"
        },
        {
          "internalType": "uint256[]",
          "name": "_itemIds",
          "type": "uint256[]"
        }
      ],
      "name": "enlistSolo",
      "outputs": [],
      "stateMutability": "payable",
      "type": "function"
    },
    {
      "inputs": [
        {
          "internalType": "uint256",
          "name": "_charId",
          "type": "uint256"
        }
      ],
      "name": "extGetChar",
      "outputs": [
        {
          "components": [
            {
              "internalType": "bytes32",
              "name": "genHash",
              "type": "bytes32"
            },
            {
              "internalType": "uint256",
              "name": "id",
              "type": "uint256"
            },
            {
              "internalType": "uint256",
              "name": "uifID",
              "type": "uint256"
            },
            {
              "components": [
                {
                  "internalType": "int8",
                  "name": "health",
                  "type": "int8"
                },
                {
                  "internalType": "int8",
                  "name": "carry",
                  "type": "int8"
                },
                {
                  "internalType": "int8",
                  "name": "defense",
                  "type": "int8"
                },
                {
                  "internalType": "int8",
                  "name": "hack",
                  "type": "int8"
                },
                {
                  "internalType": "int8",
                  "name": "breach",
                  "type": "int8"
                },
                {
                  "internalType": "int8",
                  "name": "shoot",
                  "type": "int8"
                },
                {
                  "internalType": "int8",
                  "name": "melee",
                  "type": "int8"
                },
                {
                  "internalType": "bool",
                  "name": "hasGun",
                  "type": "bool"
                }
              ],
              "internalType": "struct BCTypes.Traits",
              "name": "traits",
              "type": "tuple"
            },
            {
              "internalType": "uint8",
              "name": "cloneNumber",
              "type": "uint8"
            },
            {
              "internalType": "uint8",
              "name": "maxClones",
              "type": "uint8"
            },
            {
              "internalType": "uint8",
              "name": "ability",
              "type": "uint8"
            },
            {
              "internalType": "uint8",
              "name": "flaw",
              "type": "uint8"
            },
            {
              "internalType": "bool",
              "name": "inGame",
              "type": "bool"
            },
            {
              "internalType": "uint256",
              "name": "gameId",
              "type": "uint256"
            }
          ],
          "internalType": "struct BCTypes.Character",
          "name": "",
          "type": "tuple"
        }
      ],
      "stateMutability": "view",
      "type": "function"
    },
    {
      "inputs": [],
      "name": "gamesContract",
      "outputs": [
        {
          "internalType": "address",
          "name": "",
          "type": "address"
        }
      ],
      "stateMutability": "view",
      "type": "function"
    },
    {
      "inputs": [
        {
          "internalType": "address",
          "name": "_address",
          "type": "address"
        }
      ],
      "name": "getAllCharsByOwner",
      "outputs": [
        {
          "components": [
            {
              "internalType": "bytes32",
              "name": "genHash",
              "type": "bytes32"
            },
            {
              "internalType": "uint256",
              "name": "id",
              "type": "uint256"
            },
            {
              "internalType": "uint256",
              "name": "uifID",
              "type": "uint256"
            },
            {
              "components": [
                {
                  "internalType": "int8",
                  "name": "health",
                  "type": "int8"
                },
                {
                  "internalType": "int8",
                  "name": "carry",
                  "type": "int8"
                },
                {
                  "internalType": "int8",
                  "name": "defense",
                  "type": "int8"
                },
                {
                  "internalType": "int8",
                  "name": "hack",
                  "type": "int8"
                },
                {
                  "internalType": "int8",
                  "name": "breach",
                  "type": "int8"
                },
                {
                  "internalType": "int8",
                  "name": "shoot",
                  "type": "int8"
                },
                {
                  "internalType": "int8",
                  "name": "melee",
                  "type": "int8"
                },
                {
                  "internalType": "bool",
                  "name": "hasGun",
                  "type": "bool"
                }
              ],
              "internalType": "struct BCTypes.Traits",
              "name": "traits",
              "type": "tuple"
            },
            {
              "internalType": "uint8",
              "name": "cloneNumber",
              "type": "uint8"
            },
            {
              "internalType": "uint8",
              "name": "maxClones",
              "type": "uint8"
            },
            {
              "internalType": "uint8",
              "name": "ability",
              "type": "uint8"
            },
            {
              "internalType": "uint8",
              "name": "flaw",
              "type": "uint8"
            },
            {
              "internalType": "bool",
              "name": "inGame",
              "type": "bool"
            },
            {
              "internalType": "uint256",
              "name": "gameId",
              "type": "uint256"
            }
          ],
          "internalType": "struct BCTypes.Character[]",
          "name": "",
          "type": "tuple[]"
        }
      ],
      "stateMutability": "view",
      "type": "function"
    },
    {
      "inputs": [
        {
          "components": [
            {
              "internalType": "uint8",
              "name": "row",
              "type": "uint8"
            },
            {
              "internalType": "uint8",
              "name": "col",
              "type": "uint8"
            }
          ],
          "internalType": "struct BCTypes.Position",
          "name": "_firstRoom",
          "type": "tuple"
        },
        {
          "components": [
            {
              "internalType": "uint8",
              "name": "row",
              "type": "uint8"
            },
            {
              "internalType": "uint8",
              "name": "col",
              "type": "uint8"
            }
          ],
          "internalType": "struct BCTypes.Position",
          "name": "_secondRoom",
          "type": "tuple"
        }
      ],
      "name": "getDirectionBetween",
      "outputs": [
        {
          "internalType": "uint256",
          "name": "",
          "type": "uint256"
        }
      ],
      "stateMutability": "pure",
      "type": "function"
    },
    {
      "inputs": [
        {
          "internalType": "uint256",
          "name": "_gameId",
          "type": "uint256"
        }
      ],
      "name": "getEventBlocks",
      "outputs": [
        {
          "internalType": "uint256[]",
          "name": "",
          "type": "uint256[]"
        }
      ],
      "stateMutability": "view",
      "type": "function"
    },
    {
      "inputs": [
        {
          "internalType": "uint256",
          "name": "_direction",
          "type": "uint256"
        },
        {
          "components": [
            {
              "internalType": "uint8",
              "name": "row",
              "type": "uint8"
            },
            {
              "internalType": "uint8",
              "name": "col",
              "type": "uint8"
            }
          ],
          "internalType": "struct BCTypes.Position",
          "name": "_start",
          "type": "tuple"
        }
      ],
      "name": "getNeighborRoom",
      "outputs": [
        {
          "components": [
            {
              "internalType": "uint8",
              "name": "row",
              "type": "uint8"
            },
            {
              "internalType": "uint8",
              "name": "col",
              "type": "uint8"
            }
          ],
          "internalType": "struct BCTypes.Position",
          "name": "",
          "type": "tuple"
        }
      ],
      "stateMutability": "pure",
      "type": "function"
    },
    {
      "inputs": [
        {
          "internalType": "uint256",
          "name": "_traitNum",
          "type": "uint256"
        },
        {
          "internalType": "uint256",
          "name": "_subTraitNum",
          "type": "uint256"
        }
      ],
      "name": "getUIOffset",
      "outputs": [
        {
          "internalType": "uint256",
          "name": "",
          "type": "uint256"
        }
      ],
      "stateMutability": "pure",
      "type": "function"
    },
    {
      "inputs": [],
      "name": "hackCap",
      "outputs": [
        {
          "internalType": "uint8",
          "name": "",
          "type": "uint8"
        }
      ],
      "stateMutability": "view",
      "type": "function"
    },
    {
      "inputs": [],
      "name": "healthCap",
      "outputs": [
        {
          "internalType": "uint8",
          "name": "",
          "type": "uint8"
        }
      ],
      "stateMutability": "view",
      "type": "function"
    },
    {
      "inputs": [
        {
          "internalType": "uint256",
          "name": "_charId",
          "type": "uint256"
        }
      ],
      "name": "incrementCloneNumber",
      "outputs": [],
      "stateMutability": "nonpayable",
      "type": "function"
    },
    {
      "inputs": [
        {
          "internalType": "uint256",
          "name": "_charId",
          "type": "uint256"
        },
        {
          "internalType": "uint256",
          "name": "_uifID",
          "type": "uint256"
        }
      ],
      "name": "injectCHARUII",
      "outputs": [],
      "stateMutability": "nonpayable",
      "type": "function"
    },
    {
      "inputs": [
        {
          "internalType": "uint256",
          "name": "_gameId",
          "type": "uint256"
        },
        {
          "internalType": "uint256",
          "name": "_charId",
          "type": "uint256"
        }
      ],
      "name": "joinGame",
      "outputs": [],
      "stateMutability": "nonpayable",
      "type": "function"
    },
    {
      "inputs": [
        {
          "internalType": "uint256",
          "name": "_charId",
          "type": "uint256"
        }
      ],
      "name": "leaveGame",
      "outputs": [],
      "stateMutability": "nonpayable",
      "type": "function"
    },
    {
      "inputs": [],
      "name": "lobbies",
      "outputs": [
        {
          "internalType": "contract LobbyInterface",
          "name": "",
          "type": "address"
        }
      ],
      "stateMutability": "view",
      "type": "function"
    },
    {
      "inputs": [
        {
          "components": [
            {
              "internalType": "uint8",
              "name": "row",
              "type": "uint8"
            },
            {
              "internalType": "uint8",
              "name": "col",
              "type": "uint8"
            }
          ],
          "internalType": "struct BCTypes.Position",
          "name": "_pos1",
          "type": "tuple"
        },
        {
          "components": [
            {
              "internalType": "uint8",
              "name": "row",
              "type": "uint8"
            },
            {
              "internalType": "uint8",
              "name": "col",
              "type": "uint8"
            }
          ],
          "internalType": "struct BCTypes.Position",
          "name": "_pos2",
          "type": "tuple"
        }
      ],
      "name": "manhattanDistance",
      "outputs": [
        {
          "internalType": "uint256",
          "name": "",
          "type": "uint256"
        }
      ],
      "stateMutability": "pure",
      "type": "function"
    },
    {
      "inputs": [],
      "name": "maxClonesCap",
      "outputs": [
        {
          "internalType": "uint8",
          "name": "",
          "type": "uint8"
        }
      ],
      "stateMutability": "view",
      "type": "function"
    },
    {
      "inputs": [],
      "name": "meleeCap",
      "outputs": [
        {
          "internalType": "uint8",
          "name": "",
          "type": "uint8"
        }
      ],
      "stateMutability": "view",
      "type": "function"
    },
    {
      "inputs": [],
      "name": "mintCost",
      "outputs": [
        {
          "internalType": "uint256",
          "name": "",
          "type": "uint256"
        }
      ],
      "stateMutability": "view",
      "type": "function"
    },
    {
      "inputs": [],
      "name": "mintIsActive",
      "outputs": [
        {
          "internalType": "bool",
          "name": "",
          "type": "bool"
        }
      ],
      "stateMutability": "view",
      "type": "function"
    },
    {
      "inputs": [
        {
          "internalType": "uint256",
          "name": "_min",
          "type": "uint256"
        },
        {
          "internalType": "uint256",
          "name": "_max",
          "type": "uint256"
        },
        {
          "internalType": "uint256",
          "name": "_val",
          "type": "uint256"
        },
        {
          "internalType": "uint256",
          "name": "_valMax",
          "type": "uint256"
        }
      ],
      "name": "normalizeToSmallRange",
      "outputs": [
        {
          "internalType": "uint8",
          "name": "",
          "type": "uint8"
        }
      ],
      "stateMutability": "pure",
      "type": "function"
    },
    {
      "inputs": [
        {
          "internalType": "address",
          "name": "_operator",
          "type": "address"
        },
        {
          "internalType": "address",
          "name": "_from",
          "type": "address"
        },
        {
          "internalType": "uint256",
          "name": "_tokenId",
          "type": "uint256"
        },
        {
          "internalType": "bytes",
          "name": "_data",
          "type": "bytes"
        }
      ],
      "name": "onERC721Received",
      "outputs": [
        {
          "internalType": "bytes4",
          "name": "",
          "type": "bytes4"
        }
      ],
      "stateMutability": "nonpayable",
      "type": "function"
    },
    {
      "inputs": [
        {
          "internalType": "uint256",
          "name": "_direction",
          "type": "uint256"
        }
      ],
      "name": "opposite",
      "outputs": [
        {
          "internalType": "uint256",
          "name": "",
          "type": "uint256"
        }
      ],
      "stateMutability": "pure",
      "type": "function"
    },
    {
      "inputs": [],
      "name": "owner",
      "outputs": [
        {
          "internalType": "address",
          "name": "",
          "type": "address"
        }
      ],
      "stateMutability": "view",
      "type": "function"
    },
    {
      "inputs": [],
      "name": "playersAddress",
      "outputs": [
        {
          "internalType": "address",
          "name": "",
          "type": "address"
        }
      ],
      "stateMutability": "view",
      "type": "function"
    },
    {
      "inputs": [],
      "name": "randKeccak",
      "outputs": [
        {
          "internalType": "bytes32",
          "name": "",
          "type": "bytes32"
        }
      ],
      "stateMutability": "nonpayable",
      "type": "function"
    },
    {
      "inputs": [],
      "name": "renounceOwnership",
      "outputs": [],
      "stateMutability": "nonpayable",
      "type": "function"
    },
    {
      "inputs": [
        {
          "internalType": "uint256",
          "name": "_gameId",
          "type": "uint256"
        },
        {
          "internalType": "uint256",
          "name": "_for",
          "type": "uint256"
        },
        {
          "internalType": "uint256",
          "name": "_against",
          "type": "uint256"
        }
      ],
      "name": "resolveChallenge",
      "outputs": [
        {
          "internalType": "bool",
          "name": "",
          "type": "bool"
        }
      ],
      "stateMutability": "nonpayable",
      "type": "function"
    },
    {
      "inputs": [
        {
          "internalType": "uint256",
          "name": "_charId",
          "type": "uint256"
        }
      ],
      "name": "returnChar",
      "outputs": [],
      "stateMutability": "nonpayable",
      "type": "function"
    },
    {
      "inputs": [
        {
          "internalType": "uint256",
          "name": "_gameId",
          "type": "uint256"
        }
      ],
      "name": "roll",
      "outputs": [
        {
          "internalType": "uint256",
          "name": "",
          "type": "uint256"
        }
      ],
      "stateMutability": "nonpayable",
      "type": "function"
    },
    {
      "inputs": [
        {
          "internalType": "address",
          "name": "_lobbyContractAddress",
          "type": "address"
        },
        {
          "internalType": "address",
          "name": "_gameContract",
          "type": "address"
        },
        {
          "internalType": "address",
          "name": "_UIFAddress",
          "type": "address"
        },
        {
          "internalType": "address",
          "name": "_playersAddress",
          "type": "address"
        }
      ],
      "name": "setContractAddresses",
      "outputs": [],
      "stateMutability": "nonpayable",
      "type": "function"
    },
    {
      "inputs": [
        {
          "internalType": "bool",
          "name": "_status",
          "type": "bool"
        }
      ],
      "name": "setMintingStatus",
      "outputs": [],
      "stateMutability": "nonpayable",
      "type": "function"
    },
    {
      "inputs": [],
      "name": "shootCap",
      "outputs": [
        {
          "internalType": "uint8",
          "name": "",
          "type": "uint8"
        }
      ],
      "stateMutability": "view",
      "type": "function"
    },
    {
      "inputs": [
        {
          "internalType": "bytes32",
          "name": "_hash",
          "type": "bytes32"
        },
        {
          "internalType": "uint256",
          "name": "_size",
          "type": "uint256"
        },
        {
          "internalType": "uint256",
          "name": "_offset",
          "type": "uint256"
        }
      ],
      "name": "sliceHashToSmallInt",
      "outputs": [
        {
          "internalType": "uint8",
          "name": "",
          "type": "uint8"
        }
      ],
      "stateMutability": "pure",
      "type": "function"
    },
    {
      "inputs": [
        {
          "internalType": "uint8",
          "name": "_min",
          "type": "uint8"
        },
        {
          "internalType": "uint8",
          "name": "_max",
          "type": "uint8"
        }
      ],
      "name": "smallIntBetweenVals",
      "outputs": [
        {
          "internalType": "uint8",
          "name": "",
          "type": "uint8"
        }
      ],
      "stateMutability": "nonpayable",
      "type": "function"
    },
    {
      "inputs": [],
      "name": "soloCost",
      "outputs": [
        {
          "internalType": "uint256",
          "name": "",
          "type": "uint256"
        }
      ],
      "stateMutability": "view",
      "type": "function"
    },
    {
      "inputs": [],
      "name": "transferFundsOut",
      "outputs": [],
      "stateMutability": "nonpayable",
      "type": "function"
    },
    {
      "inputs": [
        {
          "internalType": "address",
          "name": "newOwner",
          "type": "address"
        }
      ],
      "name": "transferOwnership",
      "outputs": [],
      "stateMutability": "nonpayable",
      "type": "function"
    },
    {
      "inputs": [],
      "name": "uif",
      "outputs": [
        {
          "internalType": "contract UIFInterface",
          "name": "",
          "type": "address"
        }
      ],
      "stateMutability": "view",
      "type": "function"
    },
    {
      "inputs": [],
      "name": "uifCost",
      "outputs": [
        {
          "internalType": "uint256",
          "name": "",
          "type": "uint256"
        }
      ],
      "stateMutability": "view",
      "type": "function"
    }
  ],
  "transactionHash": "0x3c90f9879a5a6c152a78f330eb0f8ffabd1c7ca374f37909112af8348f98161d",
  "args": [],
  "numDeployments": 1,
  "solcInputHash": "df75a07ce310e8d33994ff42cae65914",
  "bytecode": "0x60806040526000600155655af3107a40006007819055662386f26fc1000060085564174876e800600955620000369060056200037e565b600a55600b80546001600160581b0319166a0a0a6404040404040504011790553480156200006357600080fd5b506200006f336200032e565b6200010460408051610140810182526000808252602080830182905282840182905283516101008101855282815290810182905292830181905260608381018290526080840182905260a0840182905260c0840182905260e0840191909152909190820190815260006020820181905260408201819052606082018190526080820181905260a0820181905260c09091015290565b600c81908060018154018082558091505060019003906000526020600020906006020160009091909190915060008201518160000155602082015181600101556040820151816002015560608201518160030160008201518160000160006101000a81548160ff021916908360000b60ff16021790555060208201518160000160016101000a81548160ff021916908360000b60ff16021790555060408201518160000160026101000a81548160ff021916908360000b60ff16021790555060608201518160000160036101000a81548160ff021916908360000b60ff16021790555060808201518160000160046101000a81548160ff021916908360000b60ff16021790555060a08201518160000160056101000a81548160ff021916908360000b60ff16021790555060c08201518160000160066101000a81548160ff021916908360000b60ff16021790555060e08201518160000160076101000a81548160ff021916908315150217905550505060808201518160040160006101000a81548160ff021916908360ff16021790555060a08201518160040160016101000a81548160ff021916908360ff16021790555060c08201518160040160026101000a81548160ff021916908360ff16021790555060e08201518160040160036101000a81548160ff021916908360ff1602179055506101008201518160040160046101000a81548160ff0219169083151502179055506101208201518160050155505050620003aa565b600080546001600160a01b038381166001600160a01b0319831681178455604051919092169283917f8be0079c531659141344cd1fd0a4f28419497f9722a3daafe3b4186f6b6457e09190a35050565b8082028115828204841417620003a457634e487b7160e01b600052601160045260246000fd5b92915050565b61347a80620003ba6000396000f3fe6080604052600436106102c95760003560e01c806364db84bf11610175578063aaa68777116100dc578063bdb4b84811610095578063f10bff2b1161006f578063f10bff2b146108e4578063f2fde38b14610904578063fa3993c214610924578063fdcadf811461094457600080fd5b8063bdb4b8481461088d578063cbfb2388146108a3578063ce28613f146108c457600080fd5b8063aaa6877714610800578063aabc100f14610820578063b60b9fcb14610833578063b926be2a14610853578063ba1ee7cf14610872578063bb999a001461087a57600080fd5b80637420aa361161012e5780637420aa36146107215780638214f2221461074157806384c38c8b146107615780638da5cb5b14610781578063951fc3fe1461079f57806397f34c3f146107e057600080fd5b806364db84bf1461066b5780636963c5681461068b5780636d6ba756146106ab578063705498dc146106cb578063715018a6146106eb578063733882b71461070057600080fd5b80633f6becfa116102345780634810bc59116101ed5780635dc96967116101c75780635dc96967146105d75780635ee38b2f146105f75780636284ef2c1461061d5780636362fe421461063e57600080fd5b80634810bc5914610561578063501f97841461059757806353011696146105b757600080fd5b80633f6becfa146104ab5780633feef58a146104ca57806342f03745146104ea57806345de18b814610500578063471a429414610521578063471fa53a1461054b57600080fd5b8063154fa27a11610286578063154fa27a146103e05780631b5ac4b5146104005780631e1de2051461042e5780631f7b4f30146104435780633838aed11461046357806339a54a301461047857600080fd5b80630364f88c146102ce57806303b414e41461030b57806303fc49481461032b5780630e73c02414610358578063149d2f8114610385578063150b7a02146103a7575b600080fd5b3480156102da57600080fd5b506003546102ee906001600160a01b031681565b6040516001600160a01b0390911681526020015b60405180910390f35b34801561031757600080fd5b506006546102ee906001600160a01b031681565b34801561033757600080fd5b5061034b610346366004612ac5565b61095a565b6040516103029190612bbe565b34801561036457600080fd5b50610378610373366004612ac5565b610a92565b6040516103029190612c08565b34801561039157600080fd5b506103a56103a0366004612ac5565b610ab2565b005b3480156103b357600080fd5b506103c76103c2366004612c30565b610b30565b6040516001600160e01b03199091168152602001610302565b3480156103ec57600080fd5b506004546102ee906001600160a01b031681565b34801561040c57600080fd5b5061042061041b366004612ac5565b610b6d565b604051908152602001610302565b34801561043a57600080fd5b50610420610b89565b34801561044f57600080fd5b5061042061045e366004612ac5565b610c01565b34801561046f57600080fd5b506103a5610c5d565b34801561048457600080fd5b50600b5461049990600160201b900460ff1681565b60405160ff9091168152602001610302565b3480156104b757600080fd5b506103a56104c6366004612ccf565b5050565b3480156104d657600080fd5b506103a56104e5366004612ac5565b610c9f565b3480156104f657600080fd5b50610420600a5481565b34801561050c57600080fd5b50600b5461049990600160381b900460ff1681565b34801561052d57600080fd5b50600b5461053b9060ff1681565b6040519015158152602001610302565b34801561055757600080fd5b5061042060095481565b34801561056d57600080fd5b5061058161057c366004612ac5565b610d58565b6040516103029a99989796959493929190612cf1565b3480156105a357600080fd5b506103a56105b2366004612ac5565b610e39565b3480156105c357600080fd5b506104996105d2366004612d54565b610e59565b3480156105e357600080fd5b5061053b6105f2366004612d86565b610e96565b34801561060357600080fd5b50600b546104999068010000000000000000900460ff1681565b34801561062957600080fd5b50600b54610499906301000000900460ff1681565b34801561064a57600080fd5b5061065e610659366004612db2565b610f33565b6040516103029190612dcf565b34801561067757600080fd5b50610420610686366004612ccf565b61113d565b34801561069757600080fd5b50600b546104999062010000900460ff1681565b3480156106b757600080fd5b506103a56106c6366004612ac5565b611155565b3480156106d757600080fd5b506005546102ee906001600160a01b031681565b3480156106f757600080fd5b506103a56111f7565b34801561070c57600080fd5b50600b5461049990600160301b900460ff1681565b34801561072d57600080fd5b506103a561073c366004612e1e565b61120b565b34801561074d57600080fd5b5061042061075c366004612ac5565b611226565b34801561076d57600080fd5b506103a561077c366004612ac5565b6112a0565b34801561078d57600080fd5b506000546001600160a01b03166102ee565b3480156107ab57600080fd5b506107bf6107ba366004612efb565b6112c0565b60408051825160ff9081168252602093840151169281019290925201610302565b3480156107ec57600080fd5b506104996107fb366004612d86565b6113ea565b34801561080c57600080fd5b506103a561081b366004612f28565b611415565b6103a561082e366004612f84565b61146d565b34801561083f57600080fd5b506103a561084e366004612ccf565b61181b565b34801561085f57600080fd5b50600b5461049990610100900460ff1681565b6103a5611897565b6103a5610888366004612f84565b611f2c565b34801561089957600080fd5b5061042060085481565b3480156108af57600080fd5b50600b5461049990600160281b900460ff1681565b3480156108d057600080fd5b506104996108df366004613036565b6122a2565b3480156108f057600080fd5b506104206108ff366004613060565b612352565b34801561091057600080fd5b506103a561091f366004612db2565b61239f565b34801561093057600080fd5b5061042061093f366004613060565b612415565b34801561095057600080fd5b5061042060075481565b610962612a34565b600c82815481106109755761097561308c565b60009182526020808320604080516101408101825260069094029091018054845260018101548484015260028101548483015281516101008082018452600383015480880b8352818104880b9583019590955262010000808604880b948301949094526301000000808604880b606084810191909152600160201b8088048a0b608080870191909152600160281b89048b0b60a080880191909152600160301b8a04909b0b60c08088019190915260ff600160381b909a048a16151560e080890191909152938b01969096526004870154808a16918b019190915284810489169a8a019a909a5295890487169388019390935287048516918601919091529190940490911615159082015260059091015461012082015292915050565b6000818152600260205260409020606090610aac906124dd565b92915050565b600c8181548110610ac557610ac561308c565b6000918252602090912060069091020160040154600160201b900460ff1615610b245760405162461bcd60e51b815260206004820152600c60248201526b4368617220696e2067616d6560a01b60448201526064015b60405180910390fd5b610b2d816124ea565b50565b6040516000907f544c765b33ca411cce832250371569244f765a17fcd217832be093f0fd5fa45b908290a150630a85bd0160e11b95945050505050565b600080821215610b8557610b80826130b8565b610aac565b5090565b6001805460009182610b9a836130d4565b9190505550600154600143610baf91906130ed565b4033604051602001610be693929190928352602083019190915260601b6bffffffffffffffffffffffff1916604082015260540190565b60405160208183030381529060405280519060200120905090565b600080610c10600160066122a2565b60ff1690507ffe34d093a460a16ee5fb374540914d1c734a17502c0c1a87b387c8d6097e1c518382604051610c4f929190918252602082015260400190565b60405180910390a192915050565b610c65612724565b600080546040516001600160a01b03909116914780156108fc02929091818181858888f19350505050158015610b2d573d6000803e3d6000fd5b6004546001600160a01b03163314610cee5760405162461bcd60e51b8152602060048201526012602482015271139bdd0819d85b595cc818dbdb9d1c9858dd60721b6044820152606401610b1b565b6000600c8281548110610d0357610d0361308c565b906000526020600020906006020160040160046101000a81548160ff0219169083151502179055506000600c8281548110610d4057610d4061308c565b90600052602060002090600602016005018190555050565b600c8181548110610d6857600080fd5b6000918252602080832060069092029091018054600182015460028301546040805161010080820183526003870154808a0b83528181048a0b98830198909852620100008089048a0b9383019390935263010000008089048a0b6060840152600160201b808a048b0b6080850152600160281b8a048b0b60a0850152600160301b8a04909a0b60c084015260ff600160381b9099048916151560e08401526004880154600590980154969a50949893979196808316969181048316959381048316949381048316939004909116908a565b610e41612724565b610e5381670de0b6b3a7640000613100565b60085550565b600080610e6686866130ed565b9050600083610e758684613100565b610e7f919061312d565b9050610e8b8782613141565b979650505050505050565b600080610ea285610c01565b6040805187815260208101839052908101869052606081018590529091507f75b6a8325595f91135e07382840634226793c68c9e59623da7e10d7ad3d95b959060800160405180910390a180600103610eff576000915050610f2c565b600383610f0c8684613141565b610f169190613154565b1315610f26576001915050610f2c565b60009150505b9392505050565b6001600160a01b0381166000908152600d60205260408120606091610f578261277e565b67ffffffffffffffff811115610f6f57610f6f612e40565b604051908082528060200260200182016040528015610fa857816020015b610f95612a34565b815260200190600190039081610f8d5790505b50905060005b8151811015611135576001600160a01b0385166000908152600d60205260409020600c90610fdc9083612788565b81548110610fec57610fec61308c565b60009182526020808320604080516101408101825260069094029091018054845260018101548484015260028101548483015281516101008082018452600383015480880b8352818104880b9583019590955262010000808604880b948301949094526301000000808604880b606084810191909152600160201b8088048a0b608080870191909152600160281b89048b0b60a080880191909152600160301b8a04909b0b60c08088019190915260ff600160381b909a048a16151560e080890191909152938b01969096526004870154808a16918b019190915284810489169a8a019a909a5295890487169388019390935287048516918601919091529190940490911615159082015260059091015461012082015282518390839081106111175761111761308c565b6020026020010181905250808061112d906130d4565b915050610fae565b509392505050565b60008161114b846004613100565b610f2c9190613141565b6006546001600160a01b031633146111a75760405162461bcd60e51b815260206004820152601560248201527413db9b1e481c1b185e595c9cc818dbdb9d1c9858dd605a1b6044820152606401610b1b565b600c81815481106111ba576111ba61308c565b600091825260208220600460069092020101805460ff16916111db8361317b565b91906101000a81548160ff021916908360ff1602179055505050565b6111ff612724565b6112096000612794565b565b611213612724565b600b805460ff1916911515919091179055565b60008160000361123857506001919050565b8160010361124857506000919050565b8160020361125857506003919050565b8160030361126857506002919050565b60405162461bcd60e51b815260206004820152600d60248201526c2130b2103234b932b1ba34b7b760991b6044820152606401610b1b565b6112a8612724565b6112ba81670de0b6b3a7640000613100565b60075550565b604080518082019091526000808252602082015282600003611312576040518060400160405280600184600001516112f8919061319a565b60ff168152602001836020015160ff168152509050610aac565b82600103611336576040518060400160405280836000015160016112f891906131b3565b82600203611373576040518060400160405280836000015160ff1681526020018360200151600161136791906131b3565b60ff1690529050610aac565b826003036113a4576040518060400160405280836000015160ff16815260200160018460200151611367919061319a565b60006113af846127e4565b6040516020016113bf91906131f0565b60405160208183030381529060405290508060405162461bcd60e51b8152600401610b1b9190613257565b6000808260016113fb86600261334e565b61140591906130ed565b901b8516831c9150509392505050565b61141d612724565b600380546001600160a01b039586166001600160a01b0319918216179091556004805494861694821694909417909355600580549285169284169290921790915560068054919093169116179055565b600554600c8054849284926001600160a01b03909116916395a81d4e91908590811061149b5761149b61308c565b9060005260206000209060060201600201546040518263ffffffff1660e01b81526004016114cb91815260200190565b602060405180830381865afa1580156114e8573d6000803e3d6000fd5b505050506040513d601f19601f8201168201806040525081019061150c919061335a565b6001600160a01b0316336001600160a01b0316146115615760405162461bcd60e51b81526020600482015260126024820152712737ba103cb7bab91031b430b930b1ba32b960711b6044820152606401610b1b565b600c82815481106115745761157461308c565b6000918252602090912060069091020160040154600160201b900460ff16156115d15760405162461bcd60e51b815260206004820152600f60248201526e416c726561647920696e2067616d6560881b6044820152606401610b1b565b600554600c80546001600160a01b0390921691636352211e9190859081106115fb576115fb61308c565b9060005260206000209060060201600201546040518263ffffffff1660e01b815260040161162b91815260200190565b602060405180830381865afa158015611648573d6000803e3d6000fd5b505050506040513d601f19601f8201168201806040525081019061166c919061335a565b6001600160a01b0316306001600160a01b0316146116bd5760405162461bcd60e51b815260206004820152600e60248201526d155252481b9bdd081b1bd859195960921b6044820152606401610b1b565b600c82815481106116d0576116d061308c565b906000526020600020906006020160030160000160019054906101000a900460000b60ff16815111156117365760405162461bcd60e51b815260206004820152600e60248201526d546f6f206d616e79206974656d7360901b6044820152606401610b1b565b6000546001600160a01b0316331480611750575060075434145b61176c5760405162461bcd60e51b8152600401610b1b90613377565b6001600c85815481106117815761178161308c565b60009182526020909120600460069092020181018054921515600160201b0264ff000000001990931692909217909155600354604051637b5e5bab60e11b81526001600160a01b039091169163f6bcb756916117e391889133918991016133a2565b600060405180830381600087803b1580156117fd57600080fd5b505af1158015611811573d6000803e3d6000fd5b5050505050505050565b6004546001600160a01b0316331461186a5760405162461bcd60e51b8152602060048201526012602482015271139bdd0819d85b595cc818dbdb9d1c9858dd60721b6044820152606401610b1b565b81600c828154811061187e5761187e61308c565b9060005260206000209060060201600501819055505050565b6000546001600160a01b03163314806118b1575060085434145b6118cd5760405162461bcd60e51b8152600401610b1b90613377565b6000546001600160a01b03163314806118ed5750600b5460ff1615156001145b6119315760405162461bcd60e51b81526020600482015260156024820152744d696e74696e67206973206e6f742061637469766560581b6044820152606401610b1b565b6005546009546040516309b6507f60e41b815260006004820181905260248201819052336044830152926001600160a01b031691639b6507f09160640160206040518083038185885af115801561198c573d6000803e3d6000fd5b50505050506040513d601f19601f820116820180604052508101906119b191906133cc565b600554604051632851838160e01b8152600481018390529192506000916001600160a01b0390911690632851838190602401602060405180830381865afa158015611a00573d6000803e3d6000fd5b505050506040513d601f19601f82011682018060405250810190611a2491906133cc565b90506000604051806101000160405280611a746002600b60019054906101000a900460ff166001611a5591906131b3565b60ff16611a6a8760046107fb600c600161113d565b60ff16600f610e59565b60000b8152602001611ab26003600b60029054906101000a900460ff166001611a9d91906131b3565b60ff16611a6a8760046107fb600a600261113d565b60000b8152602001611af06002600b60039054906101000a900460ff166001611adb91906131b3565b60ff16611a6a8760046107fb600c600061113d565b60000b8152602001611b2e6002600b60049054906101000a900460ff166001611b1991906131b3565b60ff16611a6a8760046107fb600d600061113d565b60000b8152602001611b6c6002600b60059054906101000a900460ff166001611b5791906131b3565b60ff16611a6a8760046107fb600a600161113d565b60000b8152602001611baa6002600b60069054906101000a900460ff166001611b9591906131b3565b60ff16611a6a8760046107fb600b600061113d565b60000b8152602001611be86002600b60079054906101000a900460ff166001611bd391906131b3565b60ff16611a6a8760046107fb600a600061113d565b60000b8152602001600015158152509050600c604051806101400160405280848152602001600c805490508152602001858152602001838152602001600060ff168152602001611c626000600b60089054906101000a900460ff1660ff16611c588860086107fb6003600061113d565b60ff1660ff610e59565b60ff168152602001611c946000600b60099054906101000a900460ff1660ff16611c588860086107fb6008600061113d565b60ff168152602001611cc66000600b600a9054906101000a900460ff1660ff16611c588860086107fb6008600261113d565b60ff1681526020016000151581526020016000815250908060018154018082558091505060019003906000526020600020906006020160009091909190915060008201518160000155602082015181600101556040820151816002015560608201518160030160008201518160000160006101000a81548160ff021916908360000b60ff16021790555060208201518160000160016101000a81548160ff021916908360000b60ff16021790555060408201518160000160026101000a81548160ff021916908360000b60ff16021790555060608201518160000160036101000a81548160ff021916908360000b60ff16021790555060808201518160000160046101000a81548160ff021916908360000b60ff16021790555060a08201518160000160056101000a81548160ff021916908360000b60ff16021790555060c08201518160000160066101000a81548160ff021916908360000b60ff16021790555060e08201518160000160076101000a81548160ff021916908315150217905550505060808201518160040160006101000a81548160ff021916908360ff16021790555060a08201518160040160016101000a81548160ff021916908360ff16021790555060c08201518160040160026101000a81548160ff021916908360ff16021790555060e08201518160040160036101000a81548160ff021916908360ff1602179055506101008201518160040160046101000a81548160ff02191690831515021790555061012082015181600501555050611f266001600c80549050611f1191906130ed565b336000908152600d60205260409020906128ed565b50505050565b600554600c8054849284926001600160a01b03909116916395a81d4e919085908110611f5a57611f5a61308c565b9060005260206000209060060201600201546040518263ffffffff1660e01b8152600401611f8a91815260200190565b602060405180830381865afa158015611fa7573d6000803e3d6000fd5b505050506040513d601f19601f82011682018060405250810190611fcb919061335a565b6001600160a01b0316336001600160a01b0316146120205760405162461bcd60e51b81526020600482015260126024820152712737ba103cb7bab91031b430b930b1ba32b960711b6044820152606401610b1b565b600c82815481106120335761203361308c565b6000918252602090912060069091020160040154600160201b900460ff16156120905760405162461bcd60e51b815260206004820152600f60248201526e416c726561647920696e2067616d6560881b6044820152606401610b1b565b600554600c80546001600160a01b0390921691636352211e9190859081106120ba576120ba61308c565b9060005260206000209060060201600201546040518263ffffffff1660e01b81526004016120ea91815260200190565b602060405180830381865afa158015612107573d6000803e3d6000fd5b505050506040513d601f19601f8201168201806040525081019061212b919061335a565b6001600160a01b0316306001600160a01b03161461217c5760405162461bcd60e51b815260206004820152600e60248201526d155252481b9bdd081b1bd859195960921b6044820152606401610b1b565b600c828154811061218f5761218f61308c565b906000526020600020906006020160030160000160019054906101000a900460000b60ff16815111156121f55760405162461bcd60e51b815260206004820152600e60248201526d546f6f206d616e79206974656d7360901b6044820152606401610b1b565b6000546001600160a01b031633148061220f5750600a5434145b61222b5760405162461bcd60e51b8152600401610b1b90613377565b6001600c85815481106122405761224061308c565b60009182526020909120600460069092020181018054921515600160201b0264ff000000001990931692909217909155600354604051631f5e4de360e01b81526001600160a01b0390911691631f5e4de3916117e391889133918991016133a2565b60018054600091826122b3836130d4565b91905055506000336001546001436122cb91906130ed565b60405160609390931b6bffffffffffffffffffffffff19166020840152603483019190915240605482015260740160408051601f1981840301815291905280516020909101209050600061231f858561319a565b61232a9060016131b3565b90508460ff168160ff168361233f91906133e5565b6123499190613141565b95945050505050565b600080612372836000015160000b856000015160000b61041b9190613154565b90506000612393846020015160000b866020015160000b61041b9190613154565b90506123498183613141565b6123a7612724565b6001600160a01b03811661240c5760405162461bcd60e51b815260206004820152602660248201527f4f776e61626c653a206e6577206f776e657220697320746865207a65726f206160448201526564647265737360d01b6064820152608401610b1b565b610b2d81612794565b80518251600091612425916133f9565b60000b60010361243757506000610aac565b8151835161244591906133f9565b60000b1961245557506001610aac565b8160200151836020015161246991906133f9565b60000b1961247957506002610aac565b8160200151836020015161248d91906133f9565b60000b60010361249f57506003610aac565b60405162461bcd60e51b8152602060048201526013602482015272115c9c9bdc8e88139bdd0818591a9858d95b9d606a1b6044820152606401610b1b565b60606000610f2c836128f9565b6125166040518060400160405280600a81526020016936b9b39739b2b73232b960b11b81525033612955565b604080518082018252601f81527f7569662e65787447657443757272656e744f776e6572285f636861724964290060208201526005549151634ad40ea760e11b8152600481018490526125bc926001600160a01b0316906395a81d4e90602401602060405180830381865afa158015612593573d6000803e3d6000fd5b505050506040513d601f19601f820116820180604052508101906125b7919061335a565b612955565b600554604051634ad40ea760e11b8152600481018390526001600160a01b03909116906395a81d4e90602401602060405180830381865afa158015612605573d6000803e3d6000fd5b505050506040513d601f19601f82011682018060405250810190612629919061335a565b6001600160a01b0316336001600160a01b0316146126785760405162461bcd60e51b815260206004820152600c60248201526b4e6f7420796f75722075696960a01b6044820152606401610b1b565b600554600c80546001600160a01b03909216916342842e0e913091339190869081106126a6576126a661308c565b60009182526020909120600260069092020101546040516001600160e01b031960e086901b1681526001600160a01b0393841660048201529290911660248301526044820152606401600060405180830381600087803b15801561270957600080fd5b505af115801561271d573d6000803e3d6000fd5b5050505050565b6000546001600160a01b031633146112095760405162461bcd60e51b815260206004820181905260248201527f4f776e61626c653a2063616c6c6572206973206e6f7420746865206f776e65726044820152606401610b1b565b6000610aac825490565b6000610f2c838361299a565b600080546001600160a01b038381166001600160a01b0319831681178455604051919092169283917f8be0079c531659141344cd1fd0a4f28419497f9722a3daafe3b4186f6b6457e09190a35050565b60608160000361280b5750506040805180820190915260018152600360fc1b602082015290565b8160005b8115612835578061281f816130d4565b915061282e9050600a8361312d565b915061280f565b60008167ffffffffffffffff81111561285057612850612e40565b6040519080825280601f01601f19166020018201604052801561287a576020820181803683370190505b5090505b84156128e55761288f6001836130ed565b915061289c600a866133e5565b6128a7906030613141565b60f81b8183815181106128bc576128bc61308c565b60200101906001600160f81b031916908160001a9053506128de600a8661312d565b945061287e565b949350505050565b6000610f2c83836129c4565b60608160000180548060200260200160405190810160405280929190818152602001828054801561294957602002820191906000526020600020905b815481526020019060010190808311612935575b50505050509050919050565b6104c6828260405160240161296b92919061341a565b60408051601f198184030181529190526020810180516001600160e01b031663319af33360e01b179052612a13565b60008260000182815481106129b1576129b161308c565b9060005260206000200154905092915050565b6000818152600183016020526040812054612a0b57508154600181810184556000848152602080822090930184905584548482528286019093526040902091909155610aac565b506000610aac565b80516a636f6e736f6c652e6c6f67602083016000808483855afa5050505050565b60408051610140810182526000808252602080830182905282840182905283516101008101855282815290810182905292830181905260608381018290526080840182905260a0840182905260c0840182905260e0840191909152909190820190815260006020820181905260408201819052606082018190526080820181905260a0820181905260c09091015290565b600060208284031215612ad757600080fd5b5035919050565b8051600081810b84526020830151810b60208501526040830151810b60408501526060830151810b60608501526080830151810b608085015260a0830151810b60a085015260c0830151810b60c0850152505060e0810151151560e08301525050565b8051825260208101516020830152604081015160408301526060810151612b6b6060840182612ade565b50608081015160ff90811661016084015260a0820151811661018084015260c082015181166101a084015260e0820151166101c083015261010081015115156101e0830152610120015161020090910152565b6102208101610aac8284612b41565b600081518084526020808501945080840160005b83811015612bfd57815187529582019590820190600101612be1565b509495945050505050565b602081526000610f2c6020830184612bcd565b6001600160a01b0381168114610b2d57600080fd5b600080600080600060808688031215612c4857600080fd5b8535612c5381612c1b565b94506020860135612c6381612c1b565b935060408601359250606086013567ffffffffffffffff80821115612c8757600080fd5b818801915088601f830112612c9b57600080fd5b813581811115612caa57600080fd5b896020828501011115612cbc57600080fd5b9699959850939650602001949392505050565b60008060408385031215612ce257600080fd5b50508035926020909101359150565b8a8152602081018a9052604081018990526102208101612d14606083018a612ade565b60ff9788166101608301529587166101808201529386166101a0850152919094166101c08301529215156101e08201526102000191909152949350505050565b60008060008060808587031215612d6a57600080fd5b5050823594602084013594506040840135936060013592509050565b600080600060608486031215612d9b57600080fd5b505081359360208301359350604090920135919050565b600060208284031215612dc457600080fd5b8135610f2c81612c1b565b6020808252825182820181905260009190848201906040850190845b81811015612e1257612dfe838551612b41565b928401926102209290920191600101612deb565b50909695505050505050565b600060208284031215612e3057600080fd5b81358015158114610f2c57600080fd5b634e487b7160e01b600052604160045260246000fd5b604051601f8201601f1916810167ffffffffffffffff81118282101715612e7f57612e7f612e40565b604052919050565b803560ff81168114612e9857600080fd5b919050565b600060408284031215612eaf57600080fd5b6040516040810181811067ffffffffffffffff82111715612ed257612ed2612e40565b604052905080612ee183612e87565b8152612eef60208401612e87565b60208201525092915050565b60008060608385031215612f0e57600080fd5b82359150612f1f8460208501612e9d565b90509250929050565b60008060008060808587031215612f3e57600080fd5b8435612f4981612c1b565b93506020850135612f5981612c1b565b92506040850135612f6981612c1b565b91506060850135612f7981612c1b565b939692955090935050565b60008060408385031215612f9757600080fd5b8235915060208084013567ffffffffffffffff80821115612fb757600080fd5b818601915086601f830112612fcb57600080fd5b813581811115612fdd57612fdd612e40565b8060051b9150612fee848301612e56565b818152918301840191848101908984111561300857600080fd5b938501935b838510156130265784358252938501939085019061300d565b8096505050505050509250929050565b6000806040838503121561304957600080fd5b61305283612e87565b9150612f1f60208401612e87565b6000806080838503121561307357600080fd5b61307d8484612e9d565b9150612f1f8460408501612e9d565b634e487b7160e01b600052603260045260246000fd5b634e487b7160e01b600052601160045260246000fd5b6000600160ff1b82016130cd576130cd6130a2565b5060000390565b6000600182016130e6576130e66130a2565b5060010190565b81810381811115610aac57610aac6130a2565b8082028115828204841417610aac57610aac6130a2565b634e487b7160e01b600052601260045260246000fd5b60008261313c5761313c613117565b500490565b80820180821115610aac57610aac6130a2565b8181036000831280158383131683831282161715613174576131746130a2565b5092915050565b600060ff821660ff8103613191576131916130a2565b60010192915050565b60ff8281168282160390811115610aac57610aac6130a2565b60ff8181168382160190811115610aac57610aac6130a2565b60005b838110156131e75781810151838201526020016131cf565b50506000910152565b72024b73b30b634b2103234b932b1ba34b7b71d1606d1b81526000825161321e8160138501602087016131cc565b9190910160130192915050565b600081518084526132438160208601602086016131cc565b601f01601f19169290920160200192915050565b602081526000610f2c602083018461322b565b600181815b808511156132a557816000190482111561328b5761328b6130a2565b8085161561329857918102915b93841c939080029061326f565b509250929050565b6000826132bc57506001610aac565b816132c957506000610aac565b81600181146132df57600281146132e957613305565b6001915050610aac565b60ff8411156132fa576132fa6130a2565b50506001821b610aac565b5060208310610133831016604e8410600b8410161715613328575081810a610aac565b613332838361326a565b8060001904821115613346576133466130a2565b029392505050565b6000610f2c83836132ad565b60006020828403121561336c57600080fd5b8151610f2c81612c1b565b602080825260119082015270125b98dbdc9c9958dd081c185e5b595b9d607a1b604082015260600190565b8381526001600160a01b038316602082015260606040820181905260009061234990830184612bcd565b6000602082840312156133de57600080fd5b5051919050565b6000826133f4576133f4613117565b500690565b600082810b9082900b03607f198112607f82131715610aac57610aac6130a2565b60408152600061342d604083018561322b565b905060018060a01b0383166020830152939250505056fea26469706673582212202c6aff5ca6a5c4bafa0dfd75f4aae9575e7a5692223a336de5eeb0e9156786f564736f6c63430008110033",
  "devdoc": {
    "kind": "dev",
    "methods": {
      "owner()": {
        "details": "Returns the address of the current owner."
      },
      "renounceOwnership()": {
        "details": "Leaves the contract without owner. It will not be possible to call `onlyOwner` functions anymore. Can only be called by the current owner. NOTE: Renouncing ownership will leave the contract without an owner, thereby removing any functionality that is only available to the owner."
      },
      "transferOwnership(address)": {
        "details": "Transfers ownership of the contract to a new account (`newOwner`). Can only be called by the current owner."
      }
    },
    "version": 1
  },
  "userdoc": {
    "kind": "user",
    "methods": {},
    "version": 1
  },
  "storageLayout": {
    "storage": [
      {
        "astId": 7,
        "contract": "contracts/BCChars.sol:BCChars",
        "label": "_owner",
        "offset": 0,
        "slot": "0",
        "type": "t_address"
      },
      {
        "astId": 20693,
        "contract": "contracts/BCChars.sol:BCChars",
        "label": "TODO_randomSeed",
        "offset": 0,
        "slot": "1",
        "type": "t_uint256"
      },
      {
        "astId": 20698,
        "contract": "contracts/BCChars.sol:BCChars",
        "label": "gameToEventBlocks",
        "offset": 0,
        "slot": "2",
        "type": "t_mapping(t_uint256,t_struct(UintSet)2262_storage)"
      },
      {
        "astId": 4093,
        "contract": "contracts/BCChars.sol:BCChars",
        "label": "lobbies",
        "offset": 0,
        "slot": "3",
        "type": "t_contract(LobbyInterface)4039"
      },
      {
        "astId": 4095,
        "contract": "contracts/BCChars.sol:BCChars",
        "label": "gamesContract",
        "offset": 0,
        "slot": "4",
        "type": "t_address"
      },
      {
        "astId": 4098,
        "contract": "contracts/BCChars.sol:BCChars",
        "label": "uif",
        "offset": 0,
        "slot": "5",
        "type": "t_contract(UIFInterface)4080"
      },
      {
        "astId": 4100,
        "contract": "contracts/BCChars.sol:BCChars",
        "label": "playersAddress",
        "offset": 0,
        "slot": "6",
        "type": "t_address"
      },
      {
        "astId": 4141,
        "contract": "contracts/BCChars.sol:BCChars",
        "label": "enlistCost",
        "offset": 0,
        "slot": "7",
        "type": "t_uint256"
      },
      {
        "astId": 4148,
        "contract": "contracts/BCChars.sol:BCChars",
        "label": "mintCost",
        "offset": 0,
        "slot": "8",
        "type": "t_uint256"
      },
      {
        "astId": 4151,
        "contract": "contracts/BCChars.sol:BCChars",
        "label": "uifCost",
        "offset": 0,
        "slot": "9",
        "type": "t_uint256"
      },
      {
        "astId": 4156,
        "contract": "contracts/BCChars.sol:BCChars",
        "label": "soloCost",
        "offset": 0,
        "slot": "10",
        "type": "t_uint256"
      },
      {
        "astId": 4159,
        "contract": "contracts/BCChars.sol:BCChars",
        "label": "mintIsActive",
        "offset": 0,
        "slot": "11",
        "type": "t_bool"
      },
      {
        "astId": 4162,
        "contract": "contracts/BCChars.sol:BCChars",
        "label": "healthCap",
        "offset": 1,
        "slot": "11",
        "type": "t_uint8"
      },
      {
        "astId": 4165,
        "contract": "contracts/BCChars.sol:BCChars",
        "label": "carryCap",
        "offset": 2,
        "slot": "11",
        "type": "t_uint8"
      },
      {
        "astId": 4168,
        "contract": "contracts/BCChars.sol:BCChars",
        "label": "defenseCap",
        "offset": 3,
        "slot": "11",
        "type": "t_uint8"
      },
      {
        "astId": 4171,
        "contract": "contracts/BCChars.sol:BCChars",
        "label": "hackCap",
        "offset": 4,
        "slot": "11",
        "type": "t_uint8"
      },
      {
        "astId": 4174,
        "contract": "contracts/BCChars.sol:BCChars",
        "label": "breachCap",
        "offset": 5,
        "slot": "11",
        "type": "t_uint8"
      },
      {
        "astId": 4177,
        "contract": "contracts/BCChars.sol:BCChars",
        "label": "shootCap",
        "offset": 6,
        "slot": "11",
        "type": "t_uint8"
      },
      {
        "astId": 4180,
        "contract": "contracts/BCChars.sol:BCChars",
        "label": "meleeCap",
        "offset": 7,
        "slot": "11",
        "type": "t_uint8"
      },
      {
        "astId": 4183,
        "contract": "contracts/BCChars.sol:BCChars",
        "label": "maxClonesCap",
        "offset": 8,
        "slot": "11",
        "type": "t_uint8"
      },
      {
        "astId": 4186,
        "contract": "contracts/BCChars.sol:BCChars",
        "label": "abilityCap",
        "offset": 9,
        "slot": "11",
        "type": "t_uint8"
      },
      {
        "astId": 4189,
        "contract": "contracts/BCChars.sol:BCChars",
        "label": "flawCap",
        "offset": 10,
        "slot": "11",
        "type": "t_uint8"
      },
      {
        "astId": 4193,
        "contract": "contracts/BCChars.sol:BCChars",
        "label": "characters",
        "offset": 0,
        "slot": "12",
        "type": "t_array(t_struct(Character)20627_storage)dyn_storage"
      },
      {
        "astId": 4198,
        "contract": "contracts/BCChars.sol:BCChars",
        "label": "charsOwned",
        "offset": 0,
        "slot": "13",
        "type": "t_mapping(t_address,t_struct(UintSet)2262_storage)"
      }
    ],
    "types": {
      "t_address": {
        "encoding": "inplace",
        "label": "address",
        "numberOfBytes": "20"
      },
      "t_array(t_bytes32)dyn_storage": {
        "base": "t_bytes32",
        "encoding": "dynamic_array",
        "label": "bytes32[]",
        "numberOfBytes": "32"
      },
      "t_array(t_struct(Character)20627_storage)dyn_storage": {
        "base": "t_struct(Character)20627_storage",
        "encoding": "dynamic_array",
        "label": "struct BCTypes.Character[]",
        "numberOfBytes": "32"
      },
      "t_bool": {
        "encoding": "inplace",
        "label": "bool",
        "numberOfBytes": "1"
      },
      "t_bytes32": {
        "encoding": "inplace",
        "label": "bytes32",
        "numberOfBytes": "32"
      },
      "t_contract(LobbyInterface)4039": {
        "encoding": "inplace",
        "label": "contract LobbyInterface",
        "numberOfBytes": "20"
      },
      "t_contract(UIFInterface)4080": {
        "encoding": "inplace",
        "label": "contract UIFInterface",
        "numberOfBytes": "20"
      },
      "t_int8": {
        "encoding": "inplace",
        "label": "int8",
        "numberOfBytes": "1"
      },
      "t_mapping(t_address,t_struct(UintSet)2262_storage)": {
        "encoding": "mapping",
        "key": "t_address",
        "label": "mapping(address => struct EnumerableSet.UintSet)",
        "numberOfBytes": "32",
        "value": "t_struct(UintSet)2262_storage"
      },
      "t_mapping(t_bytes32,t_uint256)": {
        "encoding": "mapping",
        "key": "t_bytes32",
        "label": "mapping(bytes32 => uint256)",
        "numberOfBytes": "32",
        "value": "t_uint256"
      },
      "t_mapping(t_uint256,t_struct(UintSet)2262_storage)": {
        "encoding": "mapping",
        "key": "t_uint256",
        "label": "mapping(uint256 => struct EnumerableSet.UintSet)",
        "numberOfBytes": "32",
        "value": "t_struct(UintSet)2262_storage"
      },
      "t_struct(Character)20627_storage": {
        "encoding": "inplace",
        "label": "struct BCTypes.Character",
        "members": [
          {
            "astId": 20607,
            "contract": "contracts/BCChars.sol:BCChars",
            "label": "genHash",
            "offset": 0,
            "slot": "0",
            "type": "t_bytes32"
          },
          {
            "astId": 20609,
            "contract": "contracts/BCChars.sol:BCChars",
            "label": "id",
            "offset": 0,
            "slot": "1",
            "type": "t_uint256"
          },
          {
            "astId": 20611,
            "contract": "contracts/BCChars.sol:BCChars",
            "label": "uifID",
            "offset": 0,
            "slot": "2",
            "type": "t_uint256"
          },
          {
            "astId": 20614,
            "contract": "contracts/BCChars.sol:BCChars",
            "label": "traits",
            "offset": 0,
            "slot": "3",
            "type": "t_struct(Traits)20605_storage"
          },
          {
            "astId": 20616,
            "contract": "contracts/BCChars.sol:BCChars",
            "label": "cloneNumber",
            "offset": 0,
            "slot": "4",
            "type": "t_uint8"
          },
          {
            "astId": 20618,
            "contract": "contracts/BCChars.sol:BCChars",
            "label": "maxClones",
            "offset": 1,
            "slot": "4",
            "type": "t_uint8"
          },
          {
            "astId": 20620,
            "contract": "contracts/BCChars.sol:BCChars",
            "label": "ability",
            "offset": 2,
            "slot": "4",
            "type": "t_uint8"
          },
          {
            "astId": 20622,
            "contract": "contracts/BCChars.sol:BCChars",
            "label": "flaw",
            "offset": 3,
            "slot": "4",
            "type": "t_uint8"
          },
          {
            "astId": 20624,
            "contract": "contracts/BCChars.sol:BCChars",
            "label": "inGame",
            "offset": 4,
            "slot": "4",
            "type": "t_bool"
          },
          {
            "astId": 20626,
            "contract": "contracts/BCChars.sol:BCChars",
            "label": "gameId",
            "offset": 0,
            "slot": "5",
            "type": "t_uint256"
          }
        ],
        "numberOfBytes": "192"
      },
      "t_struct(Set)1804_storage": {
        "encoding": "inplace",
        "label": "struct EnumerableSet.Set",
        "members": [
          {
            "astId": 1799,
            "contract": "contracts/BCChars.sol:BCChars",
            "label": "_values",
            "offset": 0,
            "slot": "0",
            "type": "t_array(t_bytes32)dyn_storage"
          },
          {
            "astId": 1803,
            "contract": "contracts/BCChars.sol:BCChars",
            "label": "_indexes",
            "offset": 0,
            "slot": "1",
            "type": "t_mapping(t_bytes32,t_uint256)"
          }
        ],
        "numberOfBytes": "64"
      },
      "t_struct(Traits)20605_storage": {
        "encoding": "inplace",
        "label": "struct BCTypes.Traits",
        "members": [
          {
            "astId": 20590,
            "contract": "contracts/BCChars.sol:BCChars",
            "label": "health",
            "offset": 0,
            "slot": "0",
            "type": "t_int8"
          },
          {
            "astId": 20592,
            "contract": "contracts/BCChars.sol:BCChars",
            "label": "carry",
            "offset": 1,
            "slot": "0",
            "type": "t_int8"
          },
          {
            "astId": 20594,
            "contract": "contracts/BCChars.sol:BCChars",
            "label": "defense",
            "offset": 2,
            "slot": "0",
            "type": "t_int8"
          },
          {
            "astId": 20596,
            "contract": "contracts/BCChars.sol:BCChars",
            "label": "hack",
            "offset": 3,
            "slot": "0",
            "type": "t_int8"
          },
          {
            "astId": 20598,
            "contract": "contracts/BCChars.sol:BCChars",
            "label": "breach",
            "offset": 4,
            "slot": "0",
            "type": "t_int8"
          },
          {
            "astId": 20600,
            "contract": "contracts/BCChars.sol:BCChars",
            "label": "shoot",
            "offset": 5,
            "slot": "0",
            "type": "t_int8"
          },
          {
            "astId": 20602,
            "contract": "contracts/BCChars.sol:BCChars",
            "label": "melee",
            "offset": 6,
            "slot": "0",
            "type": "t_int8"
          },
          {
            "astId": 20604,
            "contract": "contracts/BCChars.sol:BCChars",
            "label": "hasGun",
            "offset": 7,
            "slot": "0",
            "type": "t_bool"
          }
        ],
        "numberOfBytes": "32"
      },
      "t_struct(UintSet)2262_storage": {
        "encoding": "inplace",
        "label": "struct EnumerableSet.UintSet",
        "members": [
          {
            "astId": 2261,
            "contract": "contracts/BCChars.sol:BCChars",
            "label": "_inner",
            "offset": 0,
            "slot": "0",
            "type": "t_struct(Set)1804_storage"
          }
        ],
        "numberOfBytes": "64"
      },
      "t_uint256": {
        "encoding": "inplace",
        "label": "uint256",
        "numberOfBytes": "32"
      },
      "t_uint8": {
        "encoding": "inplace",
        "label": "uint8",
        "numberOfBytes": "1"
      }
    }
  }
}