{
  "address": "0xD829Bd8dA9F719Bef87E24523c471711D5D75562",
  "abi": [
    {
      "anonymous": false,
      "inputs": [
        {
          "indexed": false,
          "internalType": "uint256",
          "name": "roll",
          "type": "uint256"
        },
        {
          "indexed": false,
          "internalType": "uint256",
          "name": "forValue",
          "type": "uint256"
        },
        {
          "indexed": false,
          "internalType": "uint256",
          "name": "against",
          "type": "uint256"
        }
      ],
      "name": "DiceRollEvent",
      "type": "event"
    },
    {
      "anonymous": false,
      "inputs": [
        {
          "indexed": true,
          "internalType": "address",
          "name": "previousOwner",
          "type": "address"
        },
        {
          "indexed": true,
          "internalType": "address",
          "name": "newOwner",
          "type": "address"
        }
      ],
      "name": "OwnershipTransferred",
      "type": "event"
    },
    {
      "anonymous": false,
      "inputs": [],
      "name": "Received",
      "type": "event"
    },
    {
      "inputs": [
        {
          "internalType": "uint256",
          "name": "_matic",
          "type": "uint256"
        }
      ],
      "name": "SetEnlistCostInMatic",
      "outputs": [],
      "stateMutability": "nonpayable",
      "type": "function"
    },
    {
      "inputs": [
        {
          "internalType": "uint256",
          "name": "_matic",
          "type": "uint256"
        }
      ],
      "name": "SetMintCostInMatic",
      "outputs": [],
      "stateMutability": "nonpayable",
      "type": "function"
    },
    {
      "inputs": [
        {
          "internalType": "int256",
          "name": "x",
          "type": "int256"
        }
      ],
      "name": "abs",
      "outputs": [
        {
          "internalType": "int256",
          "name": "",
          "type": "int256"
        }
      ],
      "stateMutability": "pure",
      "type": "function"
    },
    {
      "inputs": [],
      "name": "breachCap",
      "outputs": [
        {
          "internalType": "uint8",
          "name": "",
          "type": "uint8"
        }
      ],
      "stateMutability": "view",
      "type": "function"
    },
    {
      "inputs": [],
      "name": "carryCap",
      "outputs": [
        {
          "internalType": "uint8",
          "name": "",
          "type": "uint8"
        }
      ],
      "stateMutability": "view",
      "type": "function"
    },
    {
      "inputs": [
        {
          "internalType": "uint256",
          "name": "",
          "type": "uint256"
        }
      ],
      "name": "characters",
      "outputs": [
        {
          "internalType": "bytes32",
          "name": "genHash",
          "type": "bytes32"
        },
        {
          "internalType": "uint256",
          "name": "id",
          "type": "uint256"
        },
        {
          "internalType": "uint256",
          "name": "uifID",
          "type": "uint256"
        },
        {
          "components": [
            {
              "internalType": "uint8",
              "name": "health",
              "type": "uint8"
            },
            {
              "internalType": "uint8",
              "name": "carry",
              "type": "uint8"
            },
            {
              "internalType": "uint8",
              "name": "defense",
              "type": "uint8"
            },
            {
              "internalType": "uint8",
              "name": "hack",
              "type": "uint8"
            },
            {
              "internalType": "uint8",
              "name": "breach",
              "type": "uint8"
            },
            {
              "internalType": "uint8",
              "name": "shoot",
              "type": "uint8"
            },
            {
              "internalType": "uint8",
              "name": "melee",
              "type": "uint8"
            }
          ],
          "internalType": "struct BCTypes.Traits",
          "name": "traits",
          "type": "tuple"
        },
        {
          "internalType": "uint8",
          "name": "cloneNumber",
          "type": "uint8"
        },
        {
          "internalType": "uint8",
          "name": "maxClones",
          "type": "uint8"
        },
        {
          "internalType": "uint8",
          "name": "ability",
          "type": "uint8"
        },
        {
          "internalType": "uint8",
          "name": "flaw",
          "type": "uint8"
        },
        {
          "internalType": "bool",
          "name": "inGame",
          "type": "bool"
        }
      ],
      "stateMutability": "view",
      "type": "function"
    },
    {
      "inputs": [
        {
          "internalType": "address",
          "name": "",
          "type": "address"
        },
        {
          "internalType": "uint256",
          "name": "",
          "type": "uint256"
        }
      ],
      "name": "charsOwned",
      "outputs": [
        {
          "internalType": "uint256",
          "name": "",
          "type": "uint256"
        }
      ],
      "stateMutability": "view",
      "type": "function"
    },
    {
      "inputs": [],
      "name": "debugAllowedUser",
      "outputs": [
        {
          "internalType": "address",
          "name": "",
          "type": "address"
        }
      ],
      "stateMutability": "view",
      "type": "function"
    },
    {
      "inputs": [],
      "name": "decantNewClone",
      "outputs": [],
      "stateMutability": "payable",
      "type": "function"
    },
    {
      "inputs": [],
      "name": "defenseCap",
      "outputs": [
        {
          "internalType": "uint8",
          "name": "",
          "type": "uint8"
        }
      ],
      "stateMutability": "view",
      "type": "function"
    },
    {
      "inputs": [
        {
          "internalType": "uint256",
          "name": "_charId",
          "type": "uint256"
        }
      ],
      "name": "enlistChar",
      "outputs": [],
      "stateMutability": "payable",
      "type": "function"
    },
    {
      "inputs": [],
      "name": "enlistCost",
      "outputs": [
        {
          "internalType": "uint256",
          "name": "",
          "type": "uint256"
        }
      ],
      "stateMutability": "view",
      "type": "function"
    },
    {
      "inputs": [],
      "name": "gamesContract",
      "outputs": [
        {
          "internalType": "address",
          "name": "",
          "type": "address"
        }
      ],
      "stateMutability": "view",
      "type": "function"
    },
    {
      "inputs": [
        {
          "internalType": "address",
          "name": "_address",
          "type": "address"
        }
      ],
      "name": "getAllCharsByOwner",
      "outputs": [
        {
          "components": [
            {
              "internalType": "bytes32",
              "name": "genHash",
              "type": "bytes32"
            },
            {
              "internalType": "uint256",
              "name": "id",
              "type": "uint256"
            },
            {
              "internalType": "uint256",
              "name": "uifID",
              "type": "uint256"
            },
            {
              "components": [
                {
                  "internalType": "uint8",
                  "name": "health",
                  "type": "uint8"
                },
                {
                  "internalType": "uint8",
                  "name": "carry",
                  "type": "uint8"
                },
                {
                  "internalType": "uint8",
                  "name": "defense",
                  "type": "uint8"
                },
                {
                  "internalType": "uint8",
                  "name": "hack",
                  "type": "uint8"
                },
                {
                  "internalType": "uint8",
                  "name": "breach",
                  "type": "uint8"
                },
                {
                  "internalType": "uint8",
                  "name": "shoot",
                  "type": "uint8"
                },
                {
                  "internalType": "uint8",
                  "name": "melee",
                  "type": "uint8"
                }
              ],
              "internalType": "struct BCTypes.Traits",
              "name": "traits",
              "type": "tuple"
            },
            {
              "internalType": "uint8",
              "name": "cloneNumber",
              "type": "uint8"
            },
            {
              "internalType": "uint8",
              "name": "maxClones",
              "type": "uint8"
            },
            {
              "internalType": "uint8",
              "name": "ability",
              "type": "uint8"
            },
            {
              "internalType": "uint8",
              "name": "flaw",
              "type": "uint8"
            },
            {
              "internalType": "bool",
              "name": "inGame",
              "type": "bool"
            }
          ],
          "internalType": "struct BCTypes.Character[]",
          "name": "",
          "type": "tuple[]"
        }
      ],
      "stateMutability": "view",
      "type": "function"
    },
    {
      "inputs": [
        {
          "components": [
            {
              "internalType": "uint8",
              "name": "row",
              "type": "uint8"
            },
            {
              "internalType": "uint8",
              "name": "col",
              "type": "uint8"
            }
          ],
          "internalType": "struct BCTypes.Position",
          "name": "_firstRoom",
          "type": "tuple"
        },
        {
          "components": [
            {
              "internalType": "uint8",
              "name": "row",
              "type": "uint8"
            },
            {
              "internalType": "uint8",
              "name": "col",
              "type": "uint8"
            }
          ],
          "internalType": "struct BCTypes.Position",
          "name": "_secondRoom",
          "type": "tuple"
        }
      ],
      "name": "getDirectionBetween",
      "outputs": [
        {
          "internalType": "uint256",
          "name": "",
          "type": "uint256"
        }
      ],
      "stateMutability": "pure",
      "type": "function"
    },
    {
      "inputs": [
        {
          "internalType": "uint256",
          "name": "_direction",
          "type": "uint256"
        },
        {
          "components": [
            {
              "internalType": "uint8",
              "name": "row",
              "type": "uint8"
            },
            {
              "internalType": "uint8",
              "name": "col",
              "type": "uint8"
            }
          ],
          "internalType": "struct BCTypes.Position",
          "name": "_start",
          "type": "tuple"
        }
      ],
      "name": "getNeighborRoom",
      "outputs": [
        {
          "components": [
            {
              "internalType": "uint8",
              "name": "row",
              "type": "uint8"
            },
            {
              "internalType": "uint8",
              "name": "col",
              "type": "uint8"
            }
          ],
          "internalType": "struct BCTypes.Position",
          "name": "",
          "type": "tuple"
        }
      ],
      "stateMutability": "pure",
      "type": "function"
    },
    {
      "inputs": [
        {
          "internalType": "uint256",
          "name": "_traitNum",
          "type": "uint256"
        },
        {
          "internalType": "uint256",
          "name": "_subTraitNum",
          "type": "uint256"
        }
      ],
      "name": "getUIOffset",
      "outputs": [
        {
          "internalType": "uint256",
          "name": "",
          "type": "uint256"
        }
      ],
      "stateMutability": "pure",
      "type": "function"
    },
    {
      "inputs": [],
      "name": "hackCap",
      "outputs": [
        {
          "internalType": "uint8",
          "name": "",
          "type": "uint8"
        }
      ],
      "stateMutability": "view",
      "type": "function"
    },
    {
      "inputs": [],
      "name": "healthCap",
      "outputs": [
        {
          "internalType": "uint8",
          "name": "",
          "type": "uint8"
        }
      ],
      "stateMutability": "view",
      "type": "function"
    },
    {
      "inputs": [
        {
          "internalType": "uint256",
          "name": "_charId",
          "type": "uint256"
        }
      ],
      "name": "incrementCloneNumber",
      "outputs": [],
      "stateMutability": "nonpayable",
      "type": "function"
    },
    {
      "inputs": [
        {
          "internalType": "uint256",
          "name": "_charId",
          "type": "uint256"
        },
        {
          "internalType": "uint256",
          "name": "_uifID",
          "type": "uint256"
        }
      ],
      "name": "injectCHARUII",
      "outputs": [],
      "stateMutability": "nonpayable",
      "type": "function"
    },
    {
      "inputs": [],
      "name": "lobbies",
      "outputs": [
        {
          "internalType": "contract LobbyInterface",
          "name": "",
          "type": "address"
        }
      ],
      "stateMutability": "view",
      "type": "function"
    },
    {
      "inputs": [],
      "name": "maxClonesCap",
      "outputs": [
        {
          "internalType": "uint8",
          "name": "",
          "type": "uint8"
        }
      ],
      "stateMutability": "view",
      "type": "function"
    },
    {
      "inputs": [],
      "name": "meleeCap",
      "outputs": [
        {
          "internalType": "uint8",
          "name": "",
          "type": "uint8"
        }
      ],
      "stateMutability": "view",
      "type": "function"
    },
    {
      "inputs": [],
      "name": "mintCost",
      "outputs": [
        {
          "internalType": "uint256",
          "name": "",
          "type": "uint256"
        }
      ],
      "stateMutability": "view",
      "type": "function"
    },
    {
      "inputs": [],
      "name": "mintIsActive",
      "outputs": [
        {
          "internalType": "bool",
          "name": "",
          "type": "bool"
        }
      ],
      "stateMutability": "view",
      "type": "function"
    },
    {
      "inputs": [
        {
          "internalType": "uint256",
          "name": "_min",
          "type": "uint256"
        },
        {
          "internalType": "uint256",
          "name": "_max",
          "type": "uint256"
        },
        {
          "internalType": "uint256",
          "name": "_val",
          "type": "uint256"
        },
        {
          "internalType": "uint256",
          "name": "_valMax",
          "type": "uint256"
        }
      ],
      "name": "normalizeToSmallRange",
      "outputs": [
        {
          "internalType": "uint8",
          "name": "",
          "type": "uint8"
        }
      ],
      "stateMutability": "pure",
      "type": "function"
    },
    {
      "inputs": [
        {
          "internalType": "address",
          "name": "_operator",
          "type": "address"
        },
        {
          "internalType": "address",
          "name": "_from",
          "type": "address"
        },
        {
          "internalType": "uint256",
          "name": "_tokenId",
          "type": "uint256"
        },
        {
          "internalType": "bytes",
          "name": "_data",
          "type": "bytes"
        }
      ],
      "name": "onERC721Received",
      "outputs": [
        {
          "internalType": "bytes4",
          "name": "",
          "type": "bytes4"
        }
      ],
      "stateMutability": "nonpayable",
      "type": "function"
    },
    {
      "inputs": [
        {
          "internalType": "uint256",
          "name": "_direction",
          "type": "uint256"
        }
      ],
      "name": "opposite",
      "outputs": [
        {
          "internalType": "uint256",
          "name": "",
          "type": "uint256"
        }
      ],
      "stateMutability": "pure",
      "type": "function"
    },
    {
      "inputs": [],
      "name": "owner",
      "outputs": [
        {
          "internalType": "address",
          "name": "",
          "type": "address"
        }
      ],
      "stateMutability": "view",
      "type": "function"
    },
    {
      "inputs": [],
      "name": "randKeccak",
      "outputs": [
        {
          "internalType": "bytes32",
          "name": "",
          "type": "bytes32"
        }
      ],
      "stateMutability": "nonpayable",
      "type": "function"
    },
    {
      "inputs": [],
      "name": "renounceOwnership",
      "outputs": [],
      "stateMutability": "nonpayable",
      "type": "function"
    },
    {
      "inputs": [
        {
          "internalType": "uint256",
          "name": "_for",
          "type": "uint256"
        },
        {
          "internalType": "uint256",
          "name": "_against",
          "type": "uint256"
        }
      ],
      "name": "resolveChallenge",
      "outputs": [
        {
          "internalType": "bool",
          "name": "",
          "type": "bool"
        }
      ],
      "stateMutability": "nonpayable",
      "type": "function"
    },
    {
      "inputs": [
        {
          "internalType": "uint256",
          "name": "_charId",
          "type": "uint256"
        }
      ],
      "name": "returnChar",
      "outputs": [],
      "stateMutability": "nonpayable",
      "type": "function"
    },
    {
      "inputs": [],
      "name": "roll",
      "outputs": [
        {
          "internalType": "uint256",
          "name": "",
          "type": "uint256"
        }
      ],
      "stateMutability": "nonpayable",
      "type": "function"
    },
    {
      "inputs": [
        {
          "internalType": "address",
          "name": "_lobbyContractAddress",
          "type": "address"
        },
        {
          "internalType": "address",
          "name": "_gameContract",
          "type": "address"
        },
        {
          "internalType": "address",
          "name": "_UIFAddress",
          "type": "address"
        }
      ],
      "name": "setContractAddresses",
      "outputs": [],
      "stateMutability": "nonpayable",
      "type": "function"
    },
    {
      "inputs": [
        {
          "internalType": "bool",
          "name": "_status",
          "type": "bool"
        }
      ],
      "name": "setMintingStatus",
      "outputs": [],
      "stateMutability": "nonpayable",
      "type": "function"
    },
    {
      "inputs": [],
      "name": "shootCap",
      "outputs": [
        {
          "internalType": "uint8",
          "name": "",
          "type": "uint8"
        }
      ],
      "stateMutability": "view",
      "type": "function"
    },
    {
      "inputs": [
        {
          "internalType": "bytes32",
          "name": "_hash",
          "type": "bytes32"
        },
        {
          "internalType": "uint256",
          "name": "_size",
          "type": "uint256"
        },
        {
          "internalType": "uint256",
          "name": "_offset",
          "type": "uint256"
        }
      ],
      "name": "sliceHashToSmallInt",
      "outputs": [
        {
          "internalType": "uint8",
          "name": "",
          "type": "uint8"
        }
      ],
      "stateMutability": "pure",
      "type": "function"
    },
    {
      "inputs": [
        {
          "internalType": "uint8",
          "name": "_min",
          "type": "uint8"
        },
        {
          "internalType": "uint8",
          "name": "_max",
          "type": "uint8"
        }
      ],
      "name": "smallIntBetweenVals",
      "outputs": [
        {
          "internalType": "uint8",
          "name": "",
          "type": "uint8"
        }
      ],
      "stateMutability": "nonpayable",
      "type": "function"
    },
    {
      "inputs": [],
      "name": "transferFundsOut",
      "outputs": [],
      "stateMutability": "nonpayable",
      "type": "function"
    },
    {
      "inputs": [
        {
          "internalType": "address",
          "name": "newOwner",
          "type": "address"
        }
      ],
      "name": "transferOwnership",
      "outputs": [],
      "stateMutability": "nonpayable",
      "type": "function"
    },
    {
      "inputs": [],
      "name": "uif",
      "outputs": [
        {
          "internalType": "contract UIFInterface",
          "name": "",
          "type": "address"
        }
      ],
      "stateMutability": "view",
      "type": "function"
    }
  ],
  "transactionHash": "0xda1e856ea09803ac5ae87ad8d37d4ee4c8f824e1e11618dcde380e983ed469b3",
  "args": [],
  "numDeployments": 1,
  "solcInputHash": "805b80bff7ed9348a73000477c8a05e7",
  "bytecode": "0x60806040526000600155655af3107a4000600655662386f26fc100006007556001600860006101000a81548160ff0219169083151502179055506004600860016101000a81548160ff021916908360ff1602179055506005600860026101000a81548160ff021916908360ff1602179055506004600860036101000a81548160ff021916908360ff1602179055506004600860046101000a81548160ff021916908360ff1602179055506004600860056101000a81548160ff021916908360ff1602179055506004600860066101000a81548160ff021916908360ff1602179055506004600860076101000a81548160ff021916908360ff16021790555060646008806101000a81548160ff021916908360ff160217905550600a600860096101000a81548160ff021916908360ff160217905550600a6008600a6101000a81548160ff021916908360ff1602179055503480156200015d57600080fd5b506200017e620001726200018460201b60201c565b6200018c60201b60201c565b62000250565b600033905090565b60008060009054906101000a900473ffffffffffffffffffffffffffffffffffffffff169050816000806101000a81548173ffffffffffffffffffffffffffffffffffffffff021916908373ffffffffffffffffffffffffffffffffffffffff1602179055508173ffffffffffffffffffffffffffffffffffffffff168173ffffffffffffffffffffffffffffffffffffffff167f8be0079c531659141344cd1fd0a4f28419497f9722a3daafe3b4186f6b6457e060405160405180910390a35050565b61435880620002606000396000f3fe60806040526004361061025c5760003560e01c8063705498dc11610144578063b926be2a116100b6578063cd5e3c5d1161007a578063cd5e3c5d146108ee578063ce28613f14610919578063dff2fb3114610956578063f2fde38b14610993578063fa3993c2146109bc578063fdcadf81146109f95761025c565b8063b926be2a14610847578063ba1ee7cf14610872578063bdb4b8481461087c578063c6c484dd146108a7578063cbfb2388146108c35761025c565b80638214f222116101085780638214f2221461071357806384c38c8b146107505780638ab63380146107795780638da5cb5b146107a2578063951fc3fe146107cd57806397f34c3f1461080a5761025c565b8063705498dc14610652578063715018a61461067d578063733882b7146106945780637420aa36146106bf57806378f4768b146106e85761025c565b8063471a4294116101dd5780635ee38b2f116101a15780635ee38b2f1461052e5780636284ef2c146105595780636362fe421461058457806364db84bf146105c15780636963c568146105fe5780636d6ba756146106295761025c565b8063471a42941461041b5780634810bc5914610446578063501f97841461048b578063503932be146104b457806353011696146104f15761025c565b80631e1de205116102245780631e1de2051461035a5780633838aed11461038557806339a54a301461039c5780633f6becfa146103c757806345de18b8146103f05761025c565b80630364f88c14610261578063149d2f811461028c578063150b7a02146102b5578063154fa27a146102f25780631b5ac4b51461031d575b600080fd5b34801561026d57600080fd5b50610276610a24565b6040516102839190612992565b60405180910390f35b34801561029857600080fd5b506102b360048036038101906102ae91906129f7565b610a4a565b005b3480156102c157600080fd5b506102dc60048036038101906102d79190612ac7565b610acf565b6040516102e99190612b8a565b60405180910390f35b3480156102fe57600080fd5b50610307610b10565b6040516103149190612bb4565b60405180910390f35b34801561032957600080fd5b50610344600480360381019061033f9190612c05565b610b36565b6040516103519190612c41565b60405180910390f35b34801561036657600080fd5b5061036f610b58565b60405161037c9190612c75565b60405180910390f35b34801561039157600080fd5b5061039a610ba4565b005b3480156103a857600080fd5b506103b1610bfc565b6040516103be9190612cac565b60405180910390f35b3480156103d357600080fd5b506103ee60048036038101906103e99190612cc7565b610c0f565b005b3480156103fc57600080fd5b50610405610c13565b6040516104129190612cac565b60405180910390f35b34801561042757600080fd5b50610430610c26565b60405161043d9190612d22565b60405180910390f35b34801561045257600080fd5b5061046d600480360381019061046891906129f7565b610c39565b60405161048299989796959493929190612de9565b60405180910390f35b34801561049757600080fd5b506104b260048036038101906104ad91906129f7565b610dad565b005b3480156104c057600080fd5b506104db60048036038101906104d69190612e7a565b610dd2565b6040516104e89190612eba565b60405180910390f35b3480156104fd57600080fd5b5061051860048036038101906105139190612ed5565b610e03565b6040516105259190612cac565b60405180910390f35b34801561053a57600080fd5b50610543610e47565b6040516105509190612cac565b60405180910390f35b34801561056557600080fd5b5061056e610e58565b60405161057b9190612cac565b60405180910390f35b34801561059057600080fd5b506105ab60048036038101906105a69190612f3c565b610e6b565b6040516105b8919061318f565b60405180910390f35b3480156105cd57600080fd5b506105e860048036038101906105e39190612cc7565b611169565b6040516105f59190612eba565b60405180910390f35b34801561060a57600080fd5b5061061361118b565b6040516106209190612cac565b60405180910390f35b34801561063557600080fd5b50610650600480360381019061064b91906129f7565b61119e565b005b34801561065e57600080fd5b5061066761128c565b60405161067491906131d2565b60405180910390f35b34801561068957600080fd5b506106926112b2565b005b3480156106a057600080fd5b506106a96112c6565b6040516106b69190612cac565b60405180910390f35b3480156106cb57600080fd5b506106e660048036038101906106e19190613219565b6112d9565b005b3480156106f457600080fd5b506106fd6112fe565b60405161070a9190612bb4565b60405180910390f35b34801561071f57600080fd5b5061073a600480360381019061073591906129f7565b611324565b6040516107479190612eba565b60405180910390f35b34801561075c57600080fd5b50610777600480360381019061077291906129f7565b6113ad565b005b34801561078557600080fd5b506107a0600480360381019061079b9190613246565b6113d2565b005b3480156107ae57600080fd5b506107b76114a2565b6040516107c49190612bb4565b60405180910390f35b3480156107d957600080fd5b506107f460048036038101906107ef91906133a6565b6114cb565b6040516108019190613415565b60405180910390f35b34801561081657600080fd5b50610831600480360381019061082c919061345c565b611610565b60405161083e9190612cac565b60405180910390f35b34801561085357600080fd5b5061085c611647565b6040516108699190612cac565b60405180910390f35b61087a61165a565b005b34801561088857600080fd5b50610891611e36565b60405161089e9190612eba565b60405180910390f35b6108c160048036038101906108bc91906129f7565b611e3c565b005b3480156108cf57600080fd5b506108d861223d565b6040516108e59190612cac565b60405180910390f35b3480156108fa57600080fd5b50610903612250565b6040516109109190612eba565b60405180910390f35b34801561092557600080fd5b50610940600480360381019061093b91906134af565b612266565b60405161094d9190612cac565b60405180910390f35b34801561096257600080fd5b5061097d60048036038101906109789190612cc7565b6122f7565b60405161098a9190612d22565b60405180910390f35b34801561099f57600080fd5b506109ba60048036038101906109b59190612f3c565b612387565b005b3480156109c857600080fd5b506109e360048036038101906109de91906134ef565b61240b565b6040516109f09190612eba565b60405180910390f35b348015610a0557600080fd5b50610a0e61252c565b604051610a1b9190612eba565b60405180910390f35b600260009054906101000a900473ffffffffffffffffffffffffffffffffffffffff1681565b6000151560098281548110610a6257610a6161352f565b5b906000526020600020906005020160040160049054906101000a900460ff16151514610ac3576040517f08c379a0000000000000000000000000000000000000000000000000000000008152600401610aba906135bb565b60405180910390fd5b610acc81612532565b50565b60007f544c765b33ca411cce832250371569244f765a17fcd217832be093f0fd5fa45b60405160405180910390a163150b7a0260e01b905095945050505050565b600360009054906101000a900473ffffffffffffffffffffffffffffffffffffffff1681565b600080821215610b4f5781610b4a9061360a565b610b51565b815b9050919050565b600060016000815480929190610b6d90613653565b91905055506001544233604051602001610b8993929190613705565b60405160208183030381529060405280519060200120905090565b610bac6126f4565b610bb46114a2565b73ffffffffffffffffffffffffffffffffffffffff166108fc479081150290604051600060405180830381858888f19350505050158015610bf9573d6000803e3d6000fd5b50565b600860049054906101000a900460ff1681565b5050565b600860079054906101000a900460ff1681565b600860009054906101000a900460ff1681565b60098181548110610c4957600080fd5b9060005260206000209060050201600091509050806000015490806001015490806002015490806003016040518060e00160405290816000820160009054906101000a900460ff1660ff1660ff1681526020016000820160019054906101000a900460ff1660ff1660ff1681526020016000820160029054906101000a900460ff1660ff1660ff1681526020016000820160039054906101000a900460ff1660ff1660ff1681526020016000820160049054906101000a900460ff1660ff1660ff1681526020016000820160059054906101000a900460ff1660ff1660ff1681526020016000820160069054906101000a900460ff1660ff1660ff1681525050908060040160009054906101000a900460ff16908060040160019054906101000a900460ff16908060040160029054906101000a900460ff16908060040160039054906101000a900460ff16908060040160049054906101000a900460ff16905089565b610db56126f4565b670de0b6b3a764000081610dc99190613742565b60078190555050565b600a6020528160005260406000208181548110610dee57600080fd5b90600052602060002001600091509150505481565b6000808585610e12919061379c565b90506000838583610e239190613742565b610e2d91906137ff565b90508681610e3b9190613830565b92505050949350505050565b60088054906101000a900460ff1681565b600860039054906101000a900460ff1681565b60606000600a60008473ffffffffffffffffffffffffffffffffffffffff1673ffffffffffffffffffffffffffffffffffffffff16815260200190815260200160002080549050905060008167ffffffffffffffff811115610ed057610ecf6132af565b5b604051908082528060200260200182016040528015610f0957816020015b610ef661283e565b815260200190600190039081610eee5790505b50905060005b815181101561115e576009600a60008773ffffffffffffffffffffffffffffffffffffffff1673ffffffffffffffffffffffffffffffffffffffff1681526020019081526020016000208281548110610f6b57610f6a61352f565b5b906000526020600020015481548110610f8757610f8661352f565b5b906000526020600020906005020160405180610120016040529081600082015481526020016001820154815260200160028201548152602001600382016040518060e00160405290816000820160009054906101000a900460ff1660ff1660ff1681526020016000820160019054906101000a900460ff1660ff1660ff1681526020016000820160029054906101000a900460ff1660ff1660ff1681526020016000820160039054906101000a900460ff1660ff1660ff1681526020016000820160049054906101000a900460ff1660ff1660ff1681526020016000820160059054906101000a900460ff1660ff1660ff1681526020016000820160069054906101000a900460ff1660ff1660ff168152505081526020016004820160009054906101000a900460ff1660ff1660ff1681526020016004820160019054906101000a900460ff1660ff1660ff1681526020016004820160029054906101000a900460ff1660ff1660ff1681526020016004820160039054906101000a900460ff1660ff1660ff1681526020016004820160049054906101000a900460ff1615151515815250508282815181106111405761113f61352f565b5b6020026020010181905250808061115690613653565b915050610f0f565b508092505050919050565b6000818360046111799190613742565b6111839190613830565b905092915050565b600860029054906101000a900460ff1681565b600360009054906101000a900473ffffffffffffffffffffffffffffffffffffffff1673ffffffffffffffffffffffffffffffffffffffff163373ffffffffffffffffffffffffffffffffffffffff161461122e576040517f08c379a0000000000000000000000000000000000000000000000000000000008152600401611225906138d2565b60405180910390fd5b600981815481106112425761124161352f565b5b9060005260206000209060050201600401600081819054906101000a900460ff1680929190611270906138f2565b91906101000a81548160ff021916908360ff1602179055505050565b600460009054906101000a900473ffffffffffffffffffffffffffffffffffffffff1681565b6112ba6126f4565b6112c46000612772565b565b600860069054906101000a900460ff1681565b6112e16126f4565b80600860006101000a81548160ff02191690831515021790555050565b600560009054906101000a900473ffffffffffffffffffffffffffffffffffffffff1681565b60008082141561133757600190506113a8565b600182141561134957600090506113a8565b600282141561135b57600390506113a8565b600382141561136d57600290506113a8565b6040517f08c379a000000000000000000000000000000000000000000000000000000000815260040161139f90613968565b60405180910390fd5b919050565b6113b56126f4565b670de0b6b3a7640000816113c99190613742565b60068190555050565b6113da6126f4565b82600260006101000a81548173ffffffffffffffffffffffffffffffffffffffff021916908373ffffffffffffffffffffffffffffffffffffffff16021790555081600360006101000a81548173ffffffffffffffffffffffffffffffffffffffff021916908373ffffffffffffffffffffffffffffffffffffffff16021790555080600460006101000a81548173ffffffffffffffffffffffffffffffffffffffff021916908373ffffffffffffffffffffffffffffffffffffffff160217905550505050565b60008060009054906101000a900473ffffffffffffffffffffffffffffffffffffffff16905090565b6114d36128a1565b6000831415611512576040518060400160405280600184600001516114f89190613988565b60ff168152602001836020015160ff16815250905061160a565b60018314156115515760405180604001604052806001846000015161153791906139bc565b60ff168152602001836020015160ff16815250905061160a565b6002831415611590576040518060400160405280836000015160ff1681526020016001846020015161158391906139bc565b60ff16815250905061160a565b60038314156115cf576040518060400160405280836000015160ff168152602001600184602001516115c29190613988565b60ff16815250905061160a565b6040517f08c379a000000000000000000000000000000000000000000000000000000000815260040161160190613a3f565b60405180910390fd5b92915050565b6000808260018560026116239190613b92565b61162d919061379c565b60001b901b905082818616901c60001c9150509392505050565b600860019054906101000a900460ff1681565b6116626114a2565b73ffffffffffffffffffffffffffffffffffffffff163373ffffffffffffffffffffffffffffffffffffffff16148061169c575060075434145b6116db576040517f08c379a00000000000000000000000000000000000000000000000000000000081526004016116d290613c29565b60405180910390fd5b6116e36114a2565b73ffffffffffffffffffffffffffffffffffffffff163373ffffffffffffffffffffffffffffffffffffffff16148061172f575060011515600860009054906101000a900460ff161515145b61176e576040517f08c379a000000000000000000000000000000000000000000000000000000000815260040161176590613c95565b60405180910390fd5b6000600460009054906101000a900473ffffffffffffffffffffffffffffffffffffffff1673ffffffffffffffffffffffffffffffffffffffff16639b6507f064174876e800600080336040518563ffffffff1660e01b81526004016117d693929190613cf0565b60206040518083038185885af11580156117f4573d6000803e3d6000fd5b50505050506040513d601f19601f820116820180604052508101906118199190613d3c565b90506000600460009054906101000a900473ffffffffffffffffffffffffffffffffffffffff1673ffffffffffffffffffffffffffffffffffffffff166328518381836040518263ffffffff1660e01b81526004016118789190612eba565b602060405180830381865afa158015611895573d6000803e3d6000fd5b505050506040513d601f19601f820116820180604052508101906118b99190613d7e565b9050600960405180610120016040528083815260200160098054905081526020018481526020016040518060e0016040528061193060026001600860019054906101000a900460ff1661190c91906139bc565b60ff16611926896004611921600c6001611169565b611610565b60ff16600f610e03565b60ff16815260200161197d60036001600860029054906101000a900460ff1661195991906139bc565b60ff1661197389600461196e600a6002611169565b611610565b60ff16600f610e03565b60ff1681526020016119ca60026001600860039054906101000a900460ff166119a691906139bc565b60ff166119c08960046119bb600c6000611169565b611610565b60ff16600f610e03565b60ff168152602001611a1760026001600860049054906101000a900460ff166119f391906139bc565b60ff16611a0d896004611a08600d6000611169565b611610565b60ff16600f610e03565b60ff168152602001611a6460026001600860059054906101000a900460ff16611a4091906139bc565b60ff16611a5a896004611a55600a6001611169565b611610565b60ff16600f610e03565b60ff168152602001611ab160026001600860069054906101000a900460ff16611a8d91906139bc565b60ff16611aa7896004611aa2600b6000611169565b611610565b60ff16600f610e03565b60ff168152602001611afe60026001600860079054906101000a900460ff16611ada91906139bc565b60ff16611af4896004611aef600a6000611169565b611610565b60ff16600f610e03565b60ff168152508152602001600060ff168152602001611b4a600060088054906101000a900460ff1660ff16611b40876008611b3b60036000611169565b611610565b60ff1660ff610e03565b60ff168152602001611b8b6000600860099054906101000a900460ff1660ff16611b81876008611b7c60086000611169565b611610565b60ff1660ff610e03565b60ff168152602001611bcc60006008600a9054906101000a900460ff1660ff16611bc2876008611bbd60086002611169565b611610565b60ff1660ff610e03565b60ff16815260200160001515815250908060018154018082558091505060019003906000526020600020906005020160009091909190915060008201518160000155602082015181600101556040820151816002015560608201518160030160008201518160000160006101000a81548160ff021916908360ff16021790555060208201518160000160016101000a81548160ff021916908360ff16021790555060408201518160000160026101000a81548160ff021916908360ff16021790555060608201518160000160036101000a81548160ff021916908360ff16021790555060808201518160000160046101000a81548160ff021916908360ff16021790555060a08201518160000160056101000a81548160ff021916908360ff16021790555060c08201518160000160066101000a81548160ff021916908360ff160217905550505060808201518160040160006101000a81548160ff021916908360ff16021790555060a08201518160040160016101000a81548160ff021916908360ff16021790555060c08201518160040160026101000a81548160ff021916908360ff16021790555060e08201518160040160036101000a81548160ff021916908360ff1602179055506101008201518160040160046101000a81548160ff0219169083151502179055505050600a60003373ffffffffffffffffffffffffffffffffffffffff1673ffffffffffffffffffffffffffffffffffffffff1681526020019081526020016000206001600980549050611e0c919061379c565b90806001815401808255809150506001900390600052602060002001600090919091909150555050565b60075481565b600460009054906101000a900473ffffffffffffffffffffffffffffffffffffffff1673ffffffffffffffffffffffffffffffffffffffff166395a81d4e826040518263ffffffff1660e01b8152600401611e979190612eba565b602060405180830381865afa158015611eb4573d6000803e3d6000fd5b505050506040513d601f19601f82011682018060405250810190611ed89190613dc0565b73ffffffffffffffffffffffffffffffffffffffff163373ffffffffffffffffffffffffffffffffffffffff1614611f45576040517f08c379a0000000000000000000000000000000000000000000000000000000008152600401611f3c90613e39565b60405180910390fd5b611f4d6114a2565b73ffffffffffffffffffffffffffffffffffffffff163373ffffffffffffffffffffffffffffffffffffffff161480611f87575060065434145b611fc6576040517f08c379a0000000000000000000000000000000000000000000000000000000008152600401611fbd90613c29565b60405180910390fd5b6000151560098281548110611fde57611fdd61352f565b5b906000526020600020906005020160040160049054906101000a900460ff1615151461203f576040517f08c379a000000000000000000000000000000000000000000000000000000000815260040161203690613ea5565b60405180910390fd5b600460009054906101000a900473ffffffffffffffffffffffffffffffffffffffff1673ffffffffffffffffffffffffffffffffffffffff16636352211e600983815481106120915761209061352f565b5b9060005260206000209060050201600201546040518263ffffffff1660e01b81526004016120bf9190612eba565b602060405180830381865afa1580156120dc573d6000803e3d6000fd5b505050506040513d601f19601f820116820180604052508101906121009190613dc0565b73ffffffffffffffffffffffffffffffffffffffff163073ffffffffffffffffffffffffffffffffffffffff161461216d576040517f08c379a000000000000000000000000000000000000000000000000000000000815260040161216490613f11565b60405180910390fd5b6001600982815481106121835761218261352f565b5b906000526020600020906005020160040160046101000a81548160ff021916908315150217905550600260009054906101000a900473ffffffffffffffffffffffffffffffffffffffff1673ffffffffffffffffffffffffffffffffffffffff1663237c201b82336040518363ffffffff1660e01b8152600401612208929190613f31565b600060405180830381600087803b15801561222257600080fd5b505af1158015612236573d6000803e3d6000fd5b5050505050565b600860059054906101000a900460ff1681565b600061225e60016006612266565b60ff16905090565b60006001600081548092919061227b90613653565b91905055506000336001544260405160200161229993929190613f5a565b6040516020818303038152906040528051906020012060001c90506000600185856122c49190613988565b6122ce91906139bc565b90508460ff168160ff16836122e39190613f97565b6122ed9190613830565b9250505092915050565b600080612302612250565b90507f2729adc6efc811c2141edf691ce91423fbcd06f2d8fe8be0a13b24e47d1050c481858560405161233793929190613fc8565b60405180910390a16001811415612352576000915050612381565b60038385836123619190613830565b61236b9190613fff565b131561237b576001915050612381565b60009150505b92915050565b61238f6126f4565b600073ffffffffffffffffffffffffffffffffffffffff168173ffffffffffffffffffffffffffffffffffffffff1614156123ff576040517f08c379a00000000000000000000000000000000000000000000000000000000081526004016123f690614105565b60405180910390fd5b61240881612772565b50565b60006001826000015184600001516124239190614132565b60000b14156124355760009050612526565b7fffffffffffffffffffffffffffffffffffffffffffffffffffffffffffffffff8260000151846000015161246a9190614132565b60000b141561247c5760019050612526565b7fffffffffffffffffffffffffffffffffffffffffffffffffffffffffffffffff826020015184602001516124b19190614132565b60000b14156124c35760029050612526565b6001826020015184602001516124d99190614132565b60000b14156124eb5760039050612526565b6040517f08c379a000000000000000000000000000000000000000000000000000000000815260040161251d906141f3565b60405180910390fd5b92915050565b60065481565b600460009054906101000a900473ffffffffffffffffffffffffffffffffffffffff1673ffffffffffffffffffffffffffffffffffffffff166395a81d4e826040518263ffffffff1660e01b815260040161258d9190612eba565b602060405180830381865afa1580156125aa573d6000803e3d6000fd5b505050506040513d601f19601f820116820180604052508101906125ce9190613dc0565b73ffffffffffffffffffffffffffffffffffffffff163373ffffffffffffffffffffffffffffffffffffffff161461263b576040517f08c379a00000000000000000000000000000000000000000000000000000000081526004016126329061425f565b60405180910390fd5b600460009054906101000a900473ffffffffffffffffffffffffffffffffffffffff1673ffffffffffffffffffffffffffffffffffffffff166342842e0e30336009858154811061268f5761268e61352f565b5b9060005260206000209060050201600201546040518463ffffffff1660e01b81526004016126bf9392919061427f565b600060405180830381600087803b1580156126d957600080fd5b505af11580156126ed573d6000803e3d6000fd5b5050505050565b6126fc612836565b73ffffffffffffffffffffffffffffffffffffffff1661271a6114a2565b73ffffffffffffffffffffffffffffffffffffffff1614612770576040517f08c379a000000000000000000000000000000000000000000000000000000000815260040161276790614302565b60405180910390fd5b565b60008060009054906101000a900473ffffffffffffffffffffffffffffffffffffffff169050816000806101000a81548173ffffffffffffffffffffffffffffffffffffffff021916908373ffffffffffffffffffffffffffffffffffffffff1602179055508173ffffffffffffffffffffffffffffffffffffffff168173ffffffffffffffffffffffffffffffffffffffff167f8be0079c531659141344cd1fd0a4f28419497f9722a3daafe3b4186f6b6457e060405160405180910390a35050565b600033905090565b60405180610120016040528060008019168152602001600081526020016000815260200161286a6128c1565b8152602001600060ff168152602001600060ff168152602001600060ff168152602001600060ff1681526020016000151581525090565b6040518060400160405280600060ff168152602001600060ff1681525090565b6040518060e00160405280600060ff168152602001600060ff168152602001600060ff168152602001600060ff168152602001600060ff168152602001600060ff168152602001600060ff1681525090565b600073ffffffffffffffffffffffffffffffffffffffff82169050919050565b6000819050919050565b600061295861295361294e84612913565b612933565b612913565b9050919050565b600061296a8261293d565b9050919050565b600061297c8261295f565b9050919050565b61298c81612971565b82525050565b60006020820190506129a76000830184612983565b92915050565b6000604051905090565b600080fd5b600080fd5b6000819050919050565b6129d4816129c1565b81146129df57600080fd5b50565b6000813590506129f1816129cb565b92915050565b600060208284031215612a0d57612a0c6129b7565b5b6000612a1b848285016129e2565b91505092915050565b6000612a2f82612913565b9050919050565b612a3f81612a24565b8114612a4a57600080fd5b50565b600081359050612a5c81612a36565b92915050565b600080fd5b600080fd5b600080fd5b60008083601f840112612a8757612a86612a62565b5b8235905067ffffffffffffffff811115612aa457612aa3612a67565b5b602083019150836001820283011115612ac057612abf612a6c565b5b9250929050565b600080600080600060808688031215612ae357612ae26129b7565b5b6000612af188828901612a4d565b9550506020612b0288828901612a4d565b9450506040612b13888289016129e2565b935050606086013567ffffffffffffffff811115612b3457612b336129bc565b5b612b4088828901612a71565b92509250509295509295909350565b60007fffffffff0000000000000000000000000000000000000000000000000000000082169050919050565b612b8481612b4f565b82525050565b6000602082019050612b9f6000830184612b7b565b92915050565b612bae81612a24565b82525050565b6000602082019050612bc96000830184612ba5565b92915050565b6000819050919050565b612be281612bcf565b8114612bed57600080fd5b50565b600081359050612bff81612bd9565b92915050565b600060208284031215612c1b57612c1a6129b7565b5b6000612c2984828501612bf0565b91505092915050565b612c3b81612bcf565b82525050565b6000602082019050612c566000830184612c32565b92915050565b6000819050919050565b612c6f81612c5c565b82525050565b6000602082019050612c8a6000830184612c66565b92915050565b600060ff82169050919050565b612ca681612c90565b82525050565b6000602082019050612cc16000830184612c9d565b92915050565b60008060408385031215612cde57612cdd6129b7565b5b6000612cec858286016129e2565b9250506020612cfd858286016129e2565b9150509250929050565b60008115159050919050565b612d1c81612d07565b82525050565b6000602082019050612d376000830184612d13565b92915050565b612d46816129c1565b82525050565b612d5581612c90565b82525050565b60e082016000820151612d716000850182612d4c565b506020820151612d846020850182612d4c565b506040820151612d976040850182612d4c565b506060820151612daa6060850182612d4c565b506080820151612dbd6080850182612d4c565b5060a0820151612dd060a0850182612d4c565b5060c0820151612de360c0850182612d4c565b50505050565b60006101e082019050612dff600083018c612c66565b612e0c602083018b612d3d565b612e19604083018a612d3d565b612e266060830189612d5b565b612e34610140830188612c9d565b612e42610160830187612c9d565b612e50610180830186612c9d565b612e5e6101a0830185612c9d565b612e6c6101c0830184612d13565b9a9950505050505050505050565b60008060408385031215612e9157612e906129b7565b5b6000612e9f85828601612a4d565b9250506020612eb0858286016129e2565b9150509250929050565b6000602082019050612ecf6000830184612d3d565b92915050565b60008060008060808587031215612eef57612eee6129b7565b5b6000612efd878288016129e2565b9450506020612f0e878288016129e2565b9350506040612f1f878288016129e2565b9250506060612f30878288016129e2565b91505092959194509250565b600060208284031215612f5257612f516129b7565b5b6000612f6084828501612a4d565b91505092915050565b600081519050919050565b600082825260208201905092915050565b6000819050602082019050919050565b612f9e81612c5c565b82525050565b612fad816129c1565b82525050565b60e082016000820151612fc96000850182612d4c565b506020820151612fdc6020850182612d4c565b506040820151612fef6040850182612d4c565b5060608201516130026060850182612d4c565b5060808201516130156080850182612d4c565b5060a082015161302860a0850182612d4c565b5060c082015161303b60c0850182612d4c565b50505050565b61304a81612d07565b82525050565b6101e0820160008201516130676000850182612f95565b50602082015161307a6020850182612fa4565b50604082015161308d6040850182612fa4565b5060608201516130a06060850182612fb3565b5060808201516130b4610140850182612d4c565b5060a08201516130c8610160850182612d4c565b5060c08201516130dc610180850182612d4c565b5060e08201516130f06101a0850182612d4c565b506101008201516131056101c0850182613041565b50505050565b60006131178383613050565b6101e08301905092915050565b6000602082019050919050565b600061313c82612f69565b6131468185612f74565b935061315183612f85565b8060005b83811015613182578151613169888261310b565b975061317483613124565b925050600181019050613155565b5085935050505092915050565b600060208201905081810360008301526131a98184613131565b905092915050565b60006131bc8261295f565b9050919050565b6131cc816131b1565b82525050565b60006020820190506131e760008301846131c3565b92915050565b6131f681612d07565b811461320157600080fd5b50565b600081359050613213816131ed565b92915050565b60006020828403121561322f5761322e6129b7565b5b600061323d84828501613204565b91505092915050565b60008060006060848603121561325f5761325e6129b7565b5b600061326d86828701612a4d565b935050602061327e86828701612a4d565b925050604061328f86828701612a4d565b9150509250925092565b600080fd5b6000601f19601f8301169050919050565b7f4e487b7100000000000000000000000000000000000000000000000000000000600052604160045260246000fd5b6132e78261329e565b810181811067ffffffffffffffff82111715613306576133056132af565b5b80604052505050565b60006133196129ad565b905061332582826132de565b919050565b61333381612c90565b811461333e57600080fd5b50565b6000813590506133508161332a565b92915050565b60006040828403121561336c5761336b613299565b5b613376604061330f565b9050600061338684828501613341565b600083015250602061339a84828501613341565b60208301525092915050565b600080606083850312156133bd576133bc6129b7565b5b60006133cb858286016129e2565b92505060206133dc85828601613356565b9150509250929050565b6040820160008201516133fc6000850182612d4c565b50602082015161340f6020850182612d4c565b50505050565b600060408201905061342a60008301846133e6565b92915050565b61343981612c5c565b811461344457600080fd5b50565b60008135905061345681613430565b92915050565b600080600060608486031215613475576134746129b7565b5b600061348386828701613447565b9350506020613494868287016129e2565b92505060406134a5868287016129e2565b9150509250925092565b600080604083850312156134c6576134c56129b7565b5b60006134d485828601613341565b92505060206134e585828601613341565b9150509250929050565b60008060808385031215613506576135056129b7565b5b600061351485828601613356565b925050604061352585828601613356565b9150509250929050565b7f4e487b7100000000000000000000000000000000000000000000000000000000600052603260045260246000fd5b600082825260208201905092915050565b7f4368617220696e2067616d650000000000000000000000000000000000000000600082015250565b60006135a5600c8361355e565b91506135b08261356f565b602082019050919050565b600060208201905081810360008301526135d481613598565b9050919050565b7f4e487b7100000000000000000000000000000000000000000000000000000000600052601160045260246000fd5b600061361582612bcf565b91507f8000000000000000000000000000000000000000000000000000000000000000821415613648576136476135db565b5b816000039050919050565b600061365e826129c1565b91507fffffffffffffffffffffffffffffffffffffffffffffffffffffffffffffffff821415613691576136906135db565b5b600182019050919050565b6000819050919050565b6136b76136b2826129c1565b61369c565b82525050565b60008160601b9050919050565b60006136d5826136bd565b9050919050565b60006136e7826136ca565b9050919050565b6136ff6136fa82612a24565b6136dc565b82525050565b600061371182866136a6565b60208201915061372182856136a6565b60208201915061373182846136ee565b601482019150819050949350505050565b600061374d826129c1565b9150613758836129c1565b9250817fffffffffffffffffffffffffffffffffffffffffffffffffffffffffffffffff0483118215151615613791576137906135db565b5b828202905092915050565b60006137a7826129c1565b91506137b2836129c1565b9250828210156137c5576137c46135db565b5b828203905092915050565b7f4e487b7100000000000000000000000000000000000000000000000000000000600052601260045260246000fd5b600061380a826129c1565b9150613815836129c1565b925082613825576138246137d0565b5b828204905092915050565b600061383b826129c1565b9150613846836129c1565b9250827fffffffffffffffffffffffffffffffffffffffffffffffffffffffffffffffff0382111561387b5761387a6135db565b5b828201905092915050565b7f4f6e6c792067616d657320636f6e747261637400000000000000000000000000600082015250565b60006138bc60138361355e565b91506138c782613886565b602082019050919050565b600060208201905081810360008301526138eb816138af565b9050919050565b60006138fd82612c90565b915060ff821415613911576139106135db565b5b600182019050919050565b7f42616420646972656374696f6e00000000000000000000000000000000000000600082015250565b6000613952600d8361355e565b915061395d8261391c565b602082019050919050565b6000602082019050818103600083015261398181613945565b9050919050565b600061399382612c90565b915061399e83612c90565b9250828210156139b1576139b06135db565b5b828203905092915050565b60006139c782612c90565b91506139d283612c90565b92508260ff038211156139e8576139e76135db565b5b828201905092915050565b7f496e76616c696420646972656374696f6e000000000000000000000000000000600082015250565b6000613a2960118361355e565b9150613a34826139f3565b602082019050919050565b60006020820190508181036000830152613a5881613a1c565b9050919050565b60008160011c9050919050565b6000808291508390505b6001851115613ab657808604811115613a9257613a916135db565b5b6001851615613aa15780820291505b8081029050613aaf85613a5f565b9450613a76565b94509492505050565b600082613acf5760019050613b8b565b81613add5760009050613b8b565b8160018114613af35760028114613afd57613b2c565b6001915050613b8b565b60ff841115613b0f57613b0e6135db565b5b8360020a915084821115613b2657613b256135db565b5b50613b8b565b5060208310610133831016604e8410600b8410161715613b615782820a905083811115613b5c57613b5b6135db565b5b613b8b565b613b6e8484846001613a6c565b92509050818404811115613b8557613b846135db565b5b81810290505b9392505050565b6000613b9d826129c1565b9150613ba8836129c1565b9250613bd57fffffffffffffffffffffffffffffffffffffffffffffffffffffffffffffffff8484613abf565b905092915050565b7f496e636f7272656374207061796d656e74000000000000000000000000000000600082015250565b6000613c1360118361355e565b9150613c1e82613bdd565b602082019050919050565b60006020820190508181036000830152613c4281613c06565b9050919050565b7f4d696e74696e67206973206e6f74206163746976650000000000000000000000600082015250565b6000613c7f60158361355e565b9150613c8a82613c49565b602082019050919050565b60006020820190508181036000830152613cae81613c72565b9050919050565b6000819050919050565b6000613cda613cd5613cd084613cb5565b612933565b6129c1565b9050919050565b613cea81613cbf565b82525050565b6000606082019050613d056000830186613ce1565b613d126020830185613ce1565b613d1f6040830184612ba5565b949350505050565b600081519050613d36816129cb565b92915050565b600060208284031215613d5257613d516129b7565b5b6000613d6084828501613d27565b91505092915050565b600081519050613d7881613430565b92915050565b600060208284031215613d9457613d936129b7565b5b6000613da284828501613d69565b91505092915050565b600081519050613dba81612a36565b92915050565b600060208284031215613dd657613dd56129b7565b5b6000613de484828501613dab565b91505092915050565b7f4e6f7420796f7572206368617261637465720000000000000000000000000000600082015250565b6000613e2360128361355e565b9150613e2e82613ded565b602082019050919050565b60006020820190508181036000830152613e5281613e16565b9050919050565b7f416c726561647920696e2067616d650000000000000000000000000000000000600082015250565b6000613e8f600f8361355e565b9150613e9a82613e59565b602082019050919050565b60006020820190508181036000830152613ebe81613e82565b9050919050565b7f554949206e6f74206c6f61646564000000000000000000000000000000000000600082015250565b6000613efb600e8361355e565b9150613f0682613ec5565b602082019050919050565b60006020820190508181036000830152613f2a81613eee565b9050919050565b6000604082019050613f466000830185612d3d565b613f536020830184612ba5565b9392505050565b6000613f6682866136ee565b601482019150613f7682856136a6565b602082019150613f8682846136a6565b602082019150819050949350505050565b6000613fa2826129c1565b9150613fad836129c1565b925082613fbd57613fbc6137d0565b5b828206905092915050565b6000606082019050613fdd6000830186612d3d565b613fea6020830185612d3d565b613ff76040830184612d3d565b949350505050565b600061400a82612bcf565b915061401583612bcf565b9250827f8000000000000000000000000000000000000000000000000000000000000000018212600084121516156140505761404f6135db565b5b827f7fffffffffffffffffffffffffffffffffffffffffffffffffffffffffffffff018213600084121615614088576140876135db565b5b828203905092915050565b7f4f776e61626c653a206e6577206f776e657220697320746865207a65726f206160008201527f6464726573730000000000000000000000000000000000000000000000000000602082015250565b60006140ef60268361355e565b91506140fa82614093565b604082019050919050565b6000602082019050818103600083015261411e816140e2565b9050919050565b60008160000b9050919050565b600061413d82614125565b915061414883614125565b9250827fffffffffffffffffffffffffffffffffffffffffffffffffffffffffffffff8001821260008412151615614183576141826135db565b5b82607f01821360008412161561419c5761419b6135db565b5b828203905092915050565b7f4572726f723a204e6f742061646a6163656e7400000000000000000000000000600082015250565b60006141dd60138361355e565b91506141e8826141a7565b602082019050919050565b6000602082019050818103600083015261420c816141d0565b9050919050565b7f4e6f7420796f7572207569690000000000000000000000000000000000000000600082015250565b6000614249600c8361355e565b915061425482614213565b602082019050919050565b600060208201905081810360008301526142788161423c565b9050919050565b60006060820190506142946000830186612ba5565b6142a16020830185612ba5565b6142ae6040830184612d3d565b949350505050565b7f4f776e61626c653a2063616c6c6572206973206e6f7420746865206f776e6572600082015250565b60006142ec60208361355e565b91506142f7826142b6565b602082019050919050565b6000602082019050818103600083015261431b816142df565b905091905056fea264697066735822122082eed10048c8f0d5f2f2d4b2ff779757c99638bb459f35ab516006b976d6fee564736f6c634300080c0033",
  "devdoc": {
    "kind": "dev",
    "methods": {
      "owner()": {
        "details": "Returns the address of the current owner."
      },
      "renounceOwnership()": {
        "details": "Leaves the contract without owner. It will not be possible to call `onlyOwner` functions anymore. Can only be called by the current owner. NOTE: Renouncing ownership will leave the contract without an owner, thereby removing any functionality that is only available to the owner."
      },
      "transferOwnership(address)": {
        "details": "Transfers ownership of the contract to a new account (`newOwner`). Can only be called by the current owner."
      }
    },
    "version": 1
  },
  "userdoc": {
    "kind": "user",
    "methods": {},
    "version": 1
  },
  "storageLayout": {
    "storage": [
      {
        "astId": 7,
        "contract": "contracts/BCChars.sol:BCChars",
        "label": "_owner",
        "offset": 0,
        "slot": "0",
        "type": "t_address"
      },
      {
        "astId": 3008,
        "contract": "contracts/BCChars.sol:BCChars",
        "label": "TODO_randomSeed",
        "offset": 0,
        "slot": "1",
        "type": "t_uint256"
      },
      {
        "astId": 1859,
        "contract": "contracts/BCChars.sol:BCChars",
        "label": "lobbies",
        "offset": 0,
        "slot": "2",
        "type": "t_contract(LobbyInterface)1809"
      },
      {
        "astId": 1861,
        "contract": "contracts/BCChars.sol:BCChars",
        "label": "gamesContract",
        "offset": 0,
        "slot": "3",
        "type": "t_address"
      },
      {
        "astId": 1864,
        "contract": "contracts/BCChars.sol:BCChars",
        "label": "uif",
        "offset": 0,
        "slot": "4",
        "type": "t_contract(UIFInterface)1850"
      },
      {
        "astId": 1866,
        "contract": "contracts/BCChars.sol:BCChars",
        "label": "debugAllowedUser",
        "offset": 0,
        "slot": "5",
        "type": "t_address"
      },
      {
        "astId": 1901,
        "contract": "contracts/BCChars.sol:BCChars",
        "label": "enlistCost",
        "offset": 0,
        "slot": "6",
        "type": "t_uint256"
      },
      {
        "astId": 1908,
        "contract": "contracts/BCChars.sol:BCChars",
        "label": "mintCost",
        "offset": 0,
        "slot": "7",
        "type": "t_uint256"
      },
      {
        "astId": 1911,
        "contract": "contracts/BCChars.sol:BCChars",
        "label": "mintIsActive",
        "offset": 0,
        "slot": "8",
        "type": "t_bool"
      },
      {
        "astId": 1914,
        "contract": "contracts/BCChars.sol:BCChars",
        "label": "healthCap",
        "offset": 1,
        "slot": "8",
        "type": "t_uint8"
      },
      {
        "astId": 1917,
        "contract": "contracts/BCChars.sol:BCChars",
        "label": "carryCap",
        "offset": 2,
        "slot": "8",
        "type": "t_uint8"
      },
      {
        "astId": 1920,
        "contract": "contracts/BCChars.sol:BCChars",
        "label": "defenseCap",
        "offset": 3,
        "slot": "8",
        "type": "t_uint8"
      },
      {
        "astId": 1923,
        "contract": "contracts/BCChars.sol:BCChars",
        "label": "hackCap",
        "offset": 4,
        "slot": "8",
        "type": "t_uint8"
      },
      {
        "astId": 1926,
        "contract": "contracts/BCChars.sol:BCChars",
        "label": "breachCap",
        "offset": 5,
        "slot": "8",
        "type": "t_uint8"
      },
      {
        "astId": 1929,
        "contract": "contracts/BCChars.sol:BCChars",
        "label": "shootCap",
        "offset": 6,
        "slot": "8",
        "type": "t_uint8"
      },
      {
        "astId": 1932,
        "contract": "contracts/BCChars.sol:BCChars",
        "label": "meleeCap",
        "offset": 7,
        "slot": "8",
        "type": "t_uint8"
      },
      {
        "astId": 1935,
        "contract": "contracts/BCChars.sol:BCChars",
        "label": "maxClonesCap",
        "offset": 8,
        "slot": "8",
        "type": "t_uint8"
      },
      {
        "astId": 1938,
        "contract": "contracts/BCChars.sol:BCChars",
        "label": "abilityCap",
        "offset": 9,
        "slot": "8",
        "type": "t_uint8"
      },
      {
        "astId": 1941,
        "contract": "contracts/BCChars.sol:BCChars",
        "label": "flawCap",
        "offset": 10,
        "slot": "8",
        "type": "t_uint8"
      },
      {
        "astId": 1945,
        "contract": "contracts/BCChars.sol:BCChars",
        "label": "characters",
        "offset": 0,
        "slot": "9",
        "type": "t_array(t_struct(Character)2953_storage)dyn_storage"
      },
      {
        "astId": 1950,
        "contract": "contracts/BCChars.sol:BCChars",
        "label": "charsOwned",
        "offset": 0,
        "slot": "10",
        "type": "t_mapping(t_address,t_array(t_uint256)dyn_storage)"
      }
    ],
    "types": {
      "t_address": {
        "encoding": "inplace",
        "label": "address",
        "numberOfBytes": "20"
      },
      "t_array(t_struct(Character)2953_storage)dyn_storage": {
        "base": "t_struct(Character)2953_storage",
        "encoding": "dynamic_array",
        "label": "struct BCTypes.Character[]",
        "numberOfBytes": "32"
      },
      "t_array(t_uint256)dyn_storage": {
        "base": "t_uint256",
        "encoding": "dynamic_array",
        "label": "uint256[]",
        "numberOfBytes": "32"
      },
      "t_bool": {
        "encoding": "inplace",
        "label": "bool",
        "numberOfBytes": "1"
      },
      "t_bytes32": {
        "encoding": "inplace",
        "label": "bytes32",
        "numberOfBytes": "32"
      },
      "t_contract(LobbyInterface)1809": {
        "encoding": "inplace",
        "label": "contract LobbyInterface",
        "numberOfBytes": "20"
      },
      "t_contract(UIFInterface)1850": {
        "encoding": "inplace",
        "label": "contract UIFInterface",
        "numberOfBytes": "20"
      },
      "t_mapping(t_address,t_array(t_uint256)dyn_storage)": {
        "encoding": "mapping",
        "key": "t_address",
        "label": "mapping(address => uint256[])",
        "numberOfBytes": "32",
        "value": "t_array(t_uint256)dyn_storage"
      },
      "t_struct(Character)2953_storage": {
        "encoding": "inplace",
        "label": "struct BCTypes.Character",
        "members": [
          {
            "astId": 2935,
            "contract": "contracts/BCChars.sol:BCChars",
            "label": "genHash",
            "offset": 0,
            "slot": "0",
            "type": "t_bytes32"
          },
          {
            "astId": 2937,
            "contract": "contracts/BCChars.sol:BCChars",
            "label": "id",
            "offset": 0,
            "slot": "1",
            "type": "t_uint256"
          },
          {
            "astId": 2939,
            "contract": "contracts/BCChars.sol:BCChars",
            "label": "uifID",
            "offset": 0,
            "slot": "2",
            "type": "t_uint256"
          },
          {
            "astId": 2942,
            "contract": "contracts/BCChars.sol:BCChars",
            "label": "traits",
            "offset": 0,
            "slot": "3",
            "type": "t_struct(Traits)2933_storage"
          },
          {
            "astId": 2944,
            "contract": "contracts/BCChars.sol:BCChars",
            "label": "cloneNumber",
            "offset": 0,
            "slot": "4",
            "type": "t_uint8"
          },
          {
            "astId": 2946,
            "contract": "contracts/BCChars.sol:BCChars",
            "label": "maxClones",
            "offset": 1,
            "slot": "4",
            "type": "t_uint8"
          },
          {
            "astId": 2948,
            "contract": "contracts/BCChars.sol:BCChars",
            "label": "ability",
            "offset": 2,
            "slot": "4",
            "type": "t_uint8"
          },
          {
            "astId": 2950,
            "contract": "contracts/BCChars.sol:BCChars",
            "label": "flaw",
            "offset": 3,
            "slot": "4",
            "type": "t_uint8"
          },
          {
            "astId": 2952,
            "contract": "contracts/BCChars.sol:BCChars",
            "label": "inGame",
            "offset": 4,
            "slot": "4",
            "type": "t_bool"
          }
        ],
        "numberOfBytes": "160"
      },
      "t_struct(Traits)2933_storage": {
        "encoding": "inplace",
        "label": "struct BCTypes.Traits",
        "members": [
          {
            "astId": 2920,
            "contract": "contracts/BCChars.sol:BCChars",
            "label": "health",
            "offset": 0,
            "slot": "0",
            "type": "t_uint8"
          },
          {
            "astId": 2922,
            "contract": "contracts/BCChars.sol:BCChars",
            "label": "carry",
            "offset": 1,
            "slot": "0",
            "type": "t_uint8"
          },
          {
            "astId": 2924,
            "contract": "contracts/BCChars.sol:BCChars",
            "label": "defense",
            "offset": 2,
            "slot": "0",
            "type": "t_uint8"
          },
          {
            "astId": 2926,
            "contract": "contracts/BCChars.sol:BCChars",
            "label": "hack",
            "offset": 3,
            "slot": "0",
            "type": "t_uint8"
          },
          {
            "astId": 2928,
            "contract": "contracts/BCChars.sol:BCChars",
            "label": "breach",
            "offset": 4,
            "slot": "0",
            "type": "t_uint8"
          },
          {
            "astId": 2930,
            "contract": "contracts/BCChars.sol:BCChars",
            "label": "shoot",
            "offset": 5,
            "slot": "0",
            "type": "t_uint8"
          },
          {
            "astId": 2932,
            "contract": "contracts/BCChars.sol:BCChars",
            "label": "melee",
            "offset": 6,
            "slot": "0",
            "type": "t_uint8"
          }
        ],
        "numberOfBytes": "32"
      },
      "t_uint256": {
        "encoding": "inplace",
        "label": "uint256",
        "numberOfBytes": "32"
      },
      "t_uint8": {
        "encoding": "inplace",
        "label": "uint8",
        "numberOfBytes": "1"
      }
    }
  }
}