{
  "address": "0x1c635648D3475A79ad82A7E9aea1e5d3234BBeF4",
  "abi": [
    {
      "inputs": [],
      "stateMutability": "nonpayable",
      "type": "constructor"
    },
    {
      "anonymous": false,
      "inputs": [
        {
          "indexed": false,
          "internalType": "uint256",
          "name": "gameId",
          "type": "uint256"
        },
        {
          "indexed": false,
          "internalType": "uint256",
          "name": "roll",
          "type": "uint256"
        },
        {
          "indexed": false,
          "internalType": "uint256",
          "name": "forValue",
          "type": "uint256"
        },
        {
          "indexed": false,
          "internalType": "uint256",
          "name": "against",
          "type": "uint256"
        }
      ],
      "name": "ChallengeEvent",
      "type": "event"
    },
    {
      "anonymous": false,
      "inputs": [
        {
          "indexed": false,
          "internalType": "uint256",
          "name": "gameId",
          "type": "uint256"
        },
        {
          "indexed": false,
          "internalType": "uint256",
          "name": "roll",
          "type": "uint256"
        }
      ],
      "name": "DiceRollEvent",
      "type": "event"
    },
    {
      "anonymous": false,
      "inputs": [
        {
          "indexed": true,
          "internalType": "address",
          "name": "previousOwner",
          "type": "address"
        },
        {
          "indexed": true,
          "internalType": "address",
          "name": "newOwner",
          "type": "address"
        }
      ],
      "name": "OwnershipTransferred",
      "type": "event"
    },
    {
      "anonymous": false,
      "inputs": [],
      "name": "Received",
      "type": "event"
    },
    {
      "inputs": [
        {
          "internalType": "uint256",
          "name": "_matic",
          "type": "uint256"
        }
      ],
      "name": "SetEnlistCostInMatic",
      "outputs": [],
      "stateMutability": "nonpayable",
      "type": "function"
    },
    {
      "inputs": [
        {
          "internalType": "uint256",
          "name": "_matic",
          "type": "uint256"
        }
      ],
      "name": "SetMintCostInMatic",
      "outputs": [],
      "stateMutability": "nonpayable",
      "type": "function"
    },
    {
      "inputs": [
        {
          "internalType": "int256",
          "name": "x",
          "type": "int256"
        }
      ],
      "name": "abs",
      "outputs": [
        {
          "internalType": "int256",
          "name": "",
          "type": "int256"
        }
      ],
      "stateMutability": "pure",
      "type": "function"
    },
    {
      "inputs": [],
      "name": "breachCap",
      "outputs": [
        {
          "internalType": "uint8",
          "name": "",
          "type": "uint8"
        }
      ],
      "stateMutability": "view",
      "type": "function"
    },
    {
      "inputs": [],
      "name": "carryCap",
      "outputs": [
        {
          "internalType": "uint8",
          "name": "",
          "type": "uint8"
        }
      ],
      "stateMutability": "view",
      "type": "function"
    },
    {
      "inputs": [
        {
          "internalType": "uint256",
          "name": "",
          "type": "uint256"
        }
      ],
      "name": "characters",
      "outputs": [
        {
          "internalType": "bytes32",
          "name": "genHash",
          "type": "bytes32"
        },
        {
          "internalType": "uint256",
          "name": "id",
          "type": "uint256"
        },
        {
          "internalType": "uint256",
          "name": "uifID",
          "type": "uint256"
        },
        {
          "components": [
            {
              "internalType": "int8",
              "name": "health",
              "type": "int8"
            },
            {
              "internalType": "int8",
              "name": "carry",
              "type": "int8"
            },
            {
              "internalType": "int8",
              "name": "defense",
              "type": "int8"
            },
            {
              "internalType": "int8",
              "name": "hack",
              "type": "int8"
            },
            {
              "internalType": "int8",
              "name": "breach",
              "type": "int8"
            },
            {
              "internalType": "int8",
              "name": "shoot",
              "type": "int8"
            },
            {
              "internalType": "int8",
              "name": "melee",
              "type": "int8"
            }
          ],
          "internalType": "struct BCTypes.Traits",
          "name": "traits",
          "type": "tuple"
        },
        {
          "internalType": "uint8",
          "name": "cloneNumber",
          "type": "uint8"
        },
        {
          "internalType": "uint8",
          "name": "maxClones",
          "type": "uint8"
        },
        {
          "internalType": "uint8",
          "name": "ability",
          "type": "uint8"
        },
        {
          "internalType": "uint8",
          "name": "flaw",
          "type": "uint8"
        },
        {
          "internalType": "bool",
          "name": "inGame",
          "type": "bool"
        }
      ],
      "stateMutability": "view",
      "type": "function"
    },
    {
      "inputs": [],
      "name": "decantNewClone",
      "outputs": [],
      "stateMutability": "payable",
      "type": "function"
    },
    {
      "inputs": [],
      "name": "defenseCap",
      "outputs": [
        {
          "internalType": "uint8",
          "name": "",
          "type": "uint8"
        }
      ],
      "stateMutability": "view",
      "type": "function"
    },
    {
      "inputs": [
        {
          "internalType": "uint256",
          "name": "_charId",
          "type": "uint256"
        },
        {
          "internalType": "uint256[]",
          "name": "_itemIds",
          "type": "uint256[]"
        }
      ],
      "name": "enlistChar",
      "outputs": [],
      "stateMutability": "payable",
      "type": "function"
    },
    {
      "inputs": [],
      "name": "enlistCost",
      "outputs": [
        {
          "internalType": "uint256",
          "name": "",
          "type": "uint256"
        }
      ],
      "stateMutability": "view",
      "type": "function"
    },
    {
      "inputs": [
        {
          "internalType": "uint256",
          "name": "_charId",
          "type": "uint256"
        },
        {
          "internalType": "uint256[]",
          "name": "_itemIds",
          "type": "uint256[]"
        }
      ],
      "name": "enlistSolo",
      "outputs": [],
      "stateMutability": "payable",
      "type": "function"
    },
    {
      "inputs": [
        {
          "internalType": "uint256",
          "name": "_charId",
          "type": "uint256"
        }
      ],
      "name": "extGetChar",
      "outputs": [
        {
          "components": [
            {
              "internalType": "bytes32",
              "name": "genHash",
              "type": "bytes32"
            },
            {
              "internalType": "uint256",
              "name": "id",
              "type": "uint256"
            },
            {
              "internalType": "uint256",
              "name": "uifID",
              "type": "uint256"
            },
            {
              "components": [
                {
                  "internalType": "int8",
                  "name": "health",
                  "type": "int8"
                },
                {
                  "internalType": "int8",
                  "name": "carry",
                  "type": "int8"
                },
                {
                  "internalType": "int8",
                  "name": "defense",
                  "type": "int8"
                },
                {
                  "internalType": "int8",
                  "name": "hack",
                  "type": "int8"
                },
                {
                  "internalType": "int8",
                  "name": "breach",
                  "type": "int8"
                },
                {
                  "internalType": "int8",
                  "name": "shoot",
                  "type": "int8"
                },
                {
                  "internalType": "int8",
                  "name": "melee",
                  "type": "int8"
                }
              ],
              "internalType": "struct BCTypes.Traits",
              "name": "traits",
              "type": "tuple"
            },
            {
              "internalType": "uint8",
              "name": "cloneNumber",
              "type": "uint8"
            },
            {
              "internalType": "uint8",
              "name": "maxClones",
              "type": "uint8"
            },
            {
              "internalType": "uint8",
              "name": "ability",
              "type": "uint8"
            },
            {
              "internalType": "uint8",
              "name": "flaw",
              "type": "uint8"
            },
            {
              "internalType": "bool",
              "name": "inGame",
              "type": "bool"
            }
          ],
          "internalType": "struct BCTypes.Character",
          "name": "",
          "type": "tuple"
        }
      ],
      "stateMutability": "view",
      "type": "function"
    },
    {
      "inputs": [],
      "name": "gamesContract",
      "outputs": [
        {
          "internalType": "address",
          "name": "",
          "type": "address"
        }
      ],
      "stateMutability": "view",
      "type": "function"
    },
    {
      "inputs": [
        {
          "internalType": "address",
          "name": "_address",
          "type": "address"
        }
      ],
      "name": "getAllCharsByOwner",
      "outputs": [
        {
          "components": [
            {
              "internalType": "bytes32",
              "name": "genHash",
              "type": "bytes32"
            },
            {
              "internalType": "uint256",
              "name": "id",
              "type": "uint256"
            },
            {
              "internalType": "uint256",
              "name": "uifID",
              "type": "uint256"
            },
            {
              "components": [
                {
                  "internalType": "int8",
                  "name": "health",
                  "type": "int8"
                },
                {
                  "internalType": "int8",
                  "name": "carry",
                  "type": "int8"
                },
                {
                  "internalType": "int8",
                  "name": "defense",
                  "type": "int8"
                },
                {
                  "internalType": "int8",
                  "name": "hack",
                  "type": "int8"
                },
                {
                  "internalType": "int8",
                  "name": "breach",
                  "type": "int8"
                },
                {
                  "internalType": "int8",
                  "name": "shoot",
                  "type": "int8"
                },
                {
                  "internalType": "int8",
                  "name": "melee",
                  "type": "int8"
                }
              ],
              "internalType": "struct BCTypes.Traits",
              "name": "traits",
              "type": "tuple"
            },
            {
              "internalType": "uint8",
              "name": "cloneNumber",
              "type": "uint8"
            },
            {
              "internalType": "uint8",
              "name": "maxClones",
              "type": "uint8"
            },
            {
              "internalType": "uint8",
              "name": "ability",
              "type": "uint8"
            },
            {
              "internalType": "uint8",
              "name": "flaw",
              "type": "uint8"
            },
            {
              "internalType": "bool",
              "name": "inGame",
              "type": "bool"
            }
          ],
          "internalType": "struct BCTypes.Character[]",
          "name": "",
          "type": "tuple[]"
        }
      ],
      "stateMutability": "view",
      "type": "function"
    },
    {
      "inputs": [
        {
          "components": [
            {
              "internalType": "uint8",
              "name": "row",
              "type": "uint8"
            },
            {
              "internalType": "uint8",
              "name": "col",
              "type": "uint8"
            }
          ],
          "internalType": "struct BCTypes.Position",
          "name": "_firstRoom",
          "type": "tuple"
        },
        {
          "components": [
            {
              "internalType": "uint8",
              "name": "row",
              "type": "uint8"
            },
            {
              "internalType": "uint8",
              "name": "col",
              "type": "uint8"
            }
          ],
          "internalType": "struct BCTypes.Position",
          "name": "_secondRoom",
          "type": "tuple"
        }
      ],
      "name": "getDirectionBetween",
      "outputs": [
        {
          "internalType": "uint256",
          "name": "",
          "type": "uint256"
        }
      ],
      "stateMutability": "pure",
      "type": "function"
    },
    {
      "inputs": [
        {
          "internalType": "uint256",
          "name": "_direction",
          "type": "uint256"
        },
        {
          "components": [
            {
              "internalType": "uint8",
              "name": "row",
              "type": "uint8"
            },
            {
              "internalType": "uint8",
              "name": "col",
              "type": "uint8"
            }
          ],
          "internalType": "struct BCTypes.Position",
          "name": "_start",
          "type": "tuple"
        }
      ],
      "name": "getNeighborRoom",
      "outputs": [
        {
          "components": [
            {
              "internalType": "uint8",
              "name": "row",
              "type": "uint8"
            },
            {
              "internalType": "uint8",
              "name": "col",
              "type": "uint8"
            }
          ],
          "internalType": "struct BCTypes.Position",
          "name": "",
          "type": "tuple"
        }
      ],
      "stateMutability": "pure",
      "type": "function"
    },
    {
      "inputs": [
        {
          "internalType": "uint256",
          "name": "_traitNum",
          "type": "uint256"
        },
        {
          "internalType": "uint256",
          "name": "_subTraitNum",
          "type": "uint256"
        }
      ],
      "name": "getUIOffset",
      "outputs": [
        {
          "internalType": "uint256",
          "name": "",
          "type": "uint256"
        }
      ],
      "stateMutability": "pure",
      "type": "function"
    },
    {
      "inputs": [],
      "name": "hackCap",
      "outputs": [
        {
          "internalType": "uint8",
          "name": "",
          "type": "uint8"
        }
      ],
      "stateMutability": "view",
      "type": "function"
    },
    {
      "inputs": [],
      "name": "healthCap",
      "outputs": [
        {
          "internalType": "uint8",
          "name": "",
          "type": "uint8"
        }
      ],
      "stateMutability": "view",
      "type": "function"
    },
    {
      "inputs": [
        {
          "internalType": "uint256",
          "name": "_charId",
          "type": "uint256"
        }
      ],
      "name": "incrementCloneNumber",
      "outputs": [],
      "stateMutability": "nonpayable",
      "type": "function"
    },
    {
      "inputs": [
        {
          "internalType": "uint256",
          "name": "_charId",
          "type": "uint256"
        },
        {
          "internalType": "uint256",
          "name": "_uifID",
          "type": "uint256"
        }
      ],
      "name": "injectCHARUII",
      "outputs": [],
      "stateMutability": "nonpayable",
      "type": "function"
    },
    {
      "inputs": [
        {
          "internalType": "uint256",
          "name": "_charId",
          "type": "uint256"
        }
      ],
      "name": "leaveGame",
      "outputs": [],
      "stateMutability": "nonpayable",
      "type": "function"
    },
    {
      "inputs": [],
      "name": "lobbies",
      "outputs": [
        {
          "internalType": "contract LobbyInterface",
          "name": "",
          "type": "address"
        }
      ],
      "stateMutability": "view",
      "type": "function"
    },
    {
      "inputs": [],
      "name": "maxClonesCap",
      "outputs": [
        {
          "internalType": "uint8",
          "name": "",
          "type": "uint8"
        }
      ],
      "stateMutability": "view",
      "type": "function"
    },
    {
      "inputs": [],
      "name": "meleeCap",
      "outputs": [
        {
          "internalType": "uint8",
          "name": "",
          "type": "uint8"
        }
      ],
      "stateMutability": "view",
      "type": "function"
    },
    {
      "inputs": [],
      "name": "mintCost",
      "outputs": [
        {
          "internalType": "uint256",
          "name": "",
          "type": "uint256"
        }
      ],
      "stateMutability": "view",
      "type": "function"
    },
    {
      "inputs": [],
      "name": "mintIsActive",
      "outputs": [
        {
          "internalType": "bool",
          "name": "",
          "type": "bool"
        }
      ],
      "stateMutability": "view",
      "type": "function"
    },
    {
      "inputs": [
        {
          "internalType": "uint256",
          "name": "_min",
          "type": "uint256"
        },
        {
          "internalType": "uint256",
          "name": "_max",
          "type": "uint256"
        },
        {
          "internalType": "uint256",
          "name": "_val",
          "type": "uint256"
        },
        {
          "internalType": "uint256",
          "name": "_valMax",
          "type": "uint256"
        }
      ],
      "name": "normalizeToSmallRange",
      "outputs": [
        {
          "internalType": "uint8",
          "name": "",
          "type": "uint8"
        }
      ],
      "stateMutability": "pure",
      "type": "function"
    },
    {
      "inputs": [
        {
          "internalType": "address",
          "name": "_operator",
          "type": "address"
        },
        {
          "internalType": "address",
          "name": "_from",
          "type": "address"
        },
        {
          "internalType": "uint256",
          "name": "_tokenId",
          "type": "uint256"
        },
        {
          "internalType": "bytes",
          "name": "_data",
          "type": "bytes"
        }
      ],
      "name": "onERC721Received",
      "outputs": [
        {
          "internalType": "bytes4",
          "name": "",
          "type": "bytes4"
        }
      ],
      "stateMutability": "nonpayable",
      "type": "function"
    },
    {
      "inputs": [
        {
          "internalType": "uint256",
          "name": "_direction",
          "type": "uint256"
        }
      ],
      "name": "opposite",
      "outputs": [
        {
          "internalType": "uint256",
          "name": "",
          "type": "uint256"
        }
      ],
      "stateMutability": "pure",
      "type": "function"
    },
    {
      "inputs": [],
      "name": "owner",
      "outputs": [
        {
          "internalType": "address",
          "name": "",
          "type": "address"
        }
      ],
      "stateMutability": "view",
      "type": "function"
    },
    {
      "inputs": [],
      "name": "playersAddress",
      "outputs": [
        {
          "internalType": "address",
          "name": "",
          "type": "address"
        }
      ],
      "stateMutability": "view",
      "type": "function"
    },
    {
      "inputs": [],
      "name": "randKeccak",
      "outputs": [
        {
          "internalType": "bytes32",
          "name": "",
          "type": "bytes32"
        }
      ],
      "stateMutability": "nonpayable",
      "type": "function"
    },
    {
      "inputs": [],
      "name": "renounceOwnership",
      "outputs": [],
      "stateMutability": "nonpayable",
      "type": "function"
    },
    {
      "inputs": [
        {
          "internalType": "uint256",
          "name": "_gameId",
          "type": "uint256"
        },
        {
          "internalType": "uint256",
          "name": "_for",
          "type": "uint256"
        },
        {
          "internalType": "uint256",
          "name": "_against",
          "type": "uint256"
        }
      ],
      "name": "resolveChallenge",
      "outputs": [
        {
          "internalType": "bool",
          "name": "",
          "type": "bool"
        }
      ],
      "stateMutability": "nonpayable",
      "type": "function"
    },
    {
      "inputs": [
        {
          "internalType": "uint256",
          "name": "_charId",
          "type": "uint256"
        }
      ],
      "name": "returnChar",
      "outputs": [],
      "stateMutability": "nonpayable",
      "type": "function"
    },
    {
      "inputs": [
        {
          "internalType": "uint256",
          "name": "_gameId",
          "type": "uint256"
        }
      ],
      "name": "roll",
      "outputs": [
        {
          "internalType": "uint256",
          "name": "",
          "type": "uint256"
        }
      ],
      "stateMutability": "nonpayable",
      "type": "function"
    },
    {
      "inputs": [
        {
          "internalType": "address",
          "name": "_lobbyContractAddress",
          "type": "address"
        },
        {
          "internalType": "address",
          "name": "_gameContract",
          "type": "address"
        },
        {
          "internalType": "address",
          "name": "_UIFAddress",
          "type": "address"
        },
        {
          "internalType": "address",
          "name": "_playersAddress",
          "type": "address"
        }
      ],
      "name": "setContractAddresses",
      "outputs": [],
      "stateMutability": "nonpayable",
      "type": "function"
    },
    {
      "inputs": [
        {
          "internalType": "bool",
          "name": "_status",
          "type": "bool"
        }
      ],
      "name": "setMintingStatus",
      "outputs": [],
      "stateMutability": "nonpayable",
      "type": "function"
    },
    {
      "inputs": [],
      "name": "shootCap",
      "outputs": [
        {
          "internalType": "uint8",
          "name": "",
          "type": "uint8"
        }
      ],
      "stateMutability": "view",
      "type": "function"
    },
    {
      "inputs": [
        {
          "internalType": "bytes32",
          "name": "_hash",
          "type": "bytes32"
        },
        {
          "internalType": "uint256",
          "name": "_size",
          "type": "uint256"
        },
        {
          "internalType": "uint256",
          "name": "_offset",
          "type": "uint256"
        }
      ],
      "name": "sliceHashToSmallInt",
      "outputs": [
        {
          "internalType": "uint8",
          "name": "",
          "type": "uint8"
        }
      ],
      "stateMutability": "pure",
      "type": "function"
    },
    {
      "inputs": [
        {
          "internalType": "uint8",
          "name": "_min",
          "type": "uint8"
        },
        {
          "internalType": "uint8",
          "name": "_max",
          "type": "uint8"
        }
      ],
      "name": "smallIntBetweenVals",
      "outputs": [
        {
          "internalType": "uint8",
          "name": "",
          "type": "uint8"
        }
      ],
      "stateMutability": "nonpayable",
      "type": "function"
    },
    {
      "inputs": [],
      "name": "soloCost",
      "outputs": [
        {
          "internalType": "uint256",
          "name": "",
          "type": "uint256"
        }
      ],
      "stateMutability": "view",
      "type": "function"
    },
    {
      "inputs": [],
      "name": "transferFundsOut",
      "outputs": [],
      "stateMutability": "nonpayable",
      "type": "function"
    },
    {
      "inputs": [
        {
          "internalType": "address",
          "name": "newOwner",
          "type": "address"
        }
      ],
      "name": "transferOwnership",
      "outputs": [],
      "stateMutability": "nonpayable",
      "type": "function"
    },
    {
      "inputs": [],
      "name": "uif",
      "outputs": [
        {
          "internalType": "contract UIFInterface",
          "name": "",
          "type": "address"
        }
      ],
      "stateMutability": "view",
      "type": "function"
    },
    {
      "inputs": [],
      "name": "uifCost",
      "outputs": [
        {
          "internalType": "uint256",
          "name": "",
          "type": "uint256"
        }
      ],
      "stateMutability": "view",
      "type": "function"
    }
  ],
  "transactionHash": "0x7e3273cc37c9607ac07d70bd2a638261657e33c68c9667e0d2f0db9fc6f40f4b",
  "args": [],
  "numDeployments": 1,
  "solcInputHash": "0ecc2b69042fdebab0fae20988ed0489",
  "bytecode": "0x60806040526000600155655af3107a40006006819055662386f26fc1000060075564174876e8006008556200003690600562000344565b600955600a80546001600160581b0319166a0a0a6404040404040504011790553480156200006357600080fd5b506200006f33620002f4565b620000f5604080516101208101825260008082526020808301829052828401829052835160e08101855282815290810182905292830181905260608381018290526080840182905260a0840182905260c0840191909152909190820190815260006020820181905260408201819052606082018190526080820181905260a09091015290565b600b81908060018154018082558091505060019003906000526020600020906005020160009091909190915060008201518160000155602082015181600101556040820151816002015560608201518160030160008201518160000160006101000a81548160ff021916908360000b60ff16021790555060208201518160000160016101000a81548160ff021916908360000b60ff16021790555060408201518160000160026101000a81548160ff021916908360000b60ff16021790555060608201518160000160036101000a81548160ff021916908360000b60ff16021790555060808201518160000160046101000a81548160ff021916908360000b60ff16021790555060a08201518160000160056101000a81548160ff021916908360000b60ff16021790555060c08201518160000160066101000a81548160ff021916908360000b60ff160217905550505060808201518160040160006101000a81548160ff021916908360ff16021790555060a08201518160040160016101000a81548160ff021916908360ff16021790555060c08201518160040160026101000a81548160ff021916908360ff16021790555060e08201518160040160036101000a81548160ff021916908360ff1602179055506101008201518160040160046101000a81548160ff02191690831515021790555050505062000370565b600080546001600160a01b038381166001600160a01b0319831681178455604051919092169283917f8be0079c531659141344cd1fd0a4f28419497f9722a3daafe3b4186f6b6457e09190a35050565b80820281158282048414176200036a57634e487b7160e01b600052601160045260246000fd5b92915050565b61318380620003806000396000f3fe6080604052600436106102885760003560e01c80636362fe421161015a57806397f34c3f116100c1578063bdb4b8481161007a578063bdb4b84814610802578063cbfb238814610818578063ce28613f14610839578063f2fde38b14610859578063fa3993c214610879578063fdcadf811461089957600080fd5b806397f34c3f14610775578063aaa6877714610795578063aabc100f146107b5578063b926be2a146107c8578063ba1ee7cf146107e7578063bb999a00146107ef57600080fd5b8063733882b711610113578063733882b7146106955780637420aa36146106b65780638214f222146106d657806384c38c8b146106f65780638da5cb5b14610716578063951fc3fe1461073457600080fd5b80636362fe42146105d357806364db84bf146106005780636963c568146106205780636d6ba75614610640578063705498dc14610660578063715018a61461068057600080fd5b80633f6becfa116101fe5780634810bc59116101b75780634810bc59146104f7578063501f97841461052c578063530116961461054c5780635dc969671461056c5780635ee38b2f1461058c5780636284ef2c146105b257600080fd5b80633f6becfa1461043d5780633feef58a1461045c57806342f037451461047c57806345de18b814610492578063471a4294146104b7578063471fa53a146104e157600080fd5b8063154fa27a11610250578063154fa27a146103725780631b5ac4b5146103925780631e1de205146103c05780631f7b4f30146103d55780633838aed1146103f557806339a54a301461040a57600080fd5b80630364f88c1461028d57806303b414e4146102ca57806303fc4948146102ea578063149d2f8114610317578063150b7a0214610339575b600080fd5b34801561029957600080fd5b506002546102ad906001600160a01b031681565b6040516001600160a01b0390911681526020015b60405180910390f35b3480156102d657600080fd5b506005546102ad906001600160a01b031681565b3480156102f657600080fd5b5061030a610305366004612805565b6108af565b6040516102c191906128e6565b34801561032357600080fd5b50610337610332366004612805565b6109cb565b005b34801561034557600080fd5b5061035961035436600461290a565b610a49565b6040516001600160e01b031990911681526020016102c1565b34801561037e57600080fd5b506003546102ad906001600160a01b031681565b34801561039e57600080fd5b506103b26103ad366004612805565b610a86565b6040519081526020016102c1565b3480156103cc57600080fd5b506103b2610aa6565b3480156103e157600080fd5b506103b26103f0366004612805565b610b1e565b34801561040157600080fd5b50610337610b7a565b34801561041657600080fd5b50600a5461042b90600160201b900460ff1681565b60405160ff90911681526020016102c1565b34801561044957600080fd5b506103376104583660046129a9565b5050565b34801561046857600080fd5b50610337610477366004612805565b610bbc565b34801561048857600080fd5b506103b260095481565b34801561049e57600080fd5b50600a5461042b90670100000000000000900460ff1681565b3480156104c357600080fd5b50600a546104d19060ff1681565b60405190151581526020016102c1565b3480156104ed57600080fd5b506103b260085481565b34801561050357600080fd5b50610517610512366004612805565b610c4b565b6040516102c1999897969594939291906129cb565b34801561053857600080fd5b50610337610547366004612805565b610d16565b34801561055857600080fd5b5061042b610567366004612a28565b610d36565b34801561057857600080fd5b506104d1610587366004612a5a565b610d73565b34801561059857600080fd5b50600a5461042b9068010000000000000000900460ff1681565b3480156105be57600080fd5b50600a5461042b906301000000900460ff1681565b3480156105df57600080fd5b506105f36105ee366004612a86565b610e10565b6040516102c19190612aa3565b34801561060c57600080fd5b506103b261061b3660046129a9565b610ffe565b34801561062c57600080fd5b50600a5461042b9062010000900460ff1681565b34801561064c57600080fd5b5061033761065b366004612805565b611016565b34801561066c57600080fd5b506004546102ad906001600160a01b031681565b34801561068c57600080fd5b506103376110b8565b3480156106a157600080fd5b50600a5461042b90600160301b900460ff1681565b3480156106c257600080fd5b506103376106d1366004612af2565b6110cc565b3480156106e257600080fd5b506103b26106f1366004612805565b6110e7565b34801561070257600080fd5b50610337610711366004612805565b611161565b34801561072257600080fd5b506000546001600160a01b03166102ad565b34801561074057600080fd5b5061075461074f366004612bcf565b611181565b60408051825160ff90811682526020938401511692810192909252016102c1565b34801561078157600080fd5b5061042b610790366004612a5a565b6112ab565b3480156107a157600080fd5b506103376107b0366004612bfc565b6112d6565b6103376107c3366004612c58565b61132e565b3480156107d457600080fd5b50600a5461042b90610100900460ff1681565b6103376116dc565b6103376107fd366004612c58565b611d33565b34801561080e57600080fd5b506103b260075481565b34801561082457600080fd5b50600a5461042b90600160281b900460ff1681565b34801561084557600080fd5b5061042b610854366004612d0a565b6120a9565b34801561086557600080fd5b50610337610874366004612a86565b612159565b34801561088557600080fd5b506103b2610894366004612d34565b6121cf565b3480156108a557600080fd5b506103b260065481565b6108b7612783565b600b82815481106108ca576108ca612d60565b600091825260208083206040805161012081018252600590940290910180548452600181015484840152600281015484830152815160e08082018452600383015480880b8352610100808204890b9684019690965262010000808204890b958401959095526301000000808204890b606085810191909152600160201b8084048b0b608080880191909152600160281b85048c0b60a080890191909152600160301b909504909b0b60c080880191909152918a019590955260049095015460ff8082169a8a019a909a528781048a16928901929092529481048816938701939093529282048616928501929092520490921615159181019190915292915050565b600b81815481106109de576109de612d60565b6000918252602090912060059091020160040154600160201b900460ff1615610a3d5760405162461bcd60e51b815260206004820152600c60248201526b4368617220696e2067616d6560a01b60448201526064015b60405180910390fd5b610a4681612297565b50565b6040516000907f544c765b33ca411cce832250371569244f765a17fcd217832be093f0fd5fa45b908290a150630a85bd0160e11b95945050505050565b600080821215610a9e57610a9982612d8c565b610aa0565b815b92915050565b6001805460009182610ab783612da8565b9190505550600154600143610acc9190612dc1565b4033604051602001610b0393929190928352602083019190915260601b6bffffffffffffffffffffffff1916604082015260540190565b60405160208183030381529060405280519060200120905090565b600080610b2d600160066120a9565b60ff1690507ffe34d093a460a16ee5fb374540914d1c734a17502c0c1a87b387c8d6097e1c518382604051610b6c929190918252602082015260400190565b60405180910390a192915050565b610b826124cf565b600080546040516001600160a01b03909116914780156108fc02929091818181858888f19350505050158015610a46573d6000803e3d6000fd5b6003546001600160a01b03163314610c0b5760405162461bcd60e51b8152602060048201526012602482015271139bdd0819d85b595cc818dbdb9d1c9858dd60721b6044820152606401610a34565b6000600b8281548110610c2057610c20612d60565b906000526020600020906005020160040160046101000a81548160ff02191690831515021790555050565b600b8181548110610c5b57600080fd5b6000918252602080832060059092029091018054600182015460028301546040805160e081018252600386015480890b82526101008082048a0b98830198909852620100008082048a0b9383019390935263010000008082048a0b6060840152600160201b8083048b0b6080850152600160281b83048b0b60a0850152600160301b90920490990b60c083015260049096015494985092969195929460ff808616959485048116949283048116938304811692919091041689565b610d1e6124cf565b610d3081670de0b6b3a7640000612dd4565b60075550565b600080610d438686612dc1565b9050600083610d528684612dd4565b610d5c9190612e01565b9050610d688782612e15565b979650505050505050565b600080610d7f85610b1e565b6040805187815260208101839052908101869052606081018590529091507f75b6a8325595f91135e07382840634226793c68c9e59623da7e10d7ad3d95b959060800160405180910390a180600103610ddc576000915050610e09565b600383610de98684612e15565b610df39190612e28565b1315610e03576001915050610e09565b60009150505b9392505050565b6001600160a01b0381166000908152600c60205260408120606091610e3482612529565b67ffffffffffffffff811115610e4c57610e4c612b14565b604051908082528060200260200182016040528015610e8557816020015b610e72612783565b815260200190600190039081610e6a5790505b50905060005b8151811015610ff6576001600160a01b0385166000908152600c60205260409020600b90610eb99083612533565b81548110610ec957610ec9612d60565b600091825260208083206040805161012081018252600590940290910180548452600181015484840152600281015484830152815160e08082018452600383015480880b8352610100808204890b9684019690965262010000808204890b958401959095526301000000808204890b606085810191909152600160201b8084048b0b608080880191909152600160281b85048c0b60a080890191909152600160301b909504909b0b60c080880191909152918a019590955260049095015460ff8082169a8a019a909a528781048a1692890192909252948104881693870193909352928204861692850192909252049092161515918101919091528251839083908110610fd857610fd8612d60565b60200260200101819052508080610fee90612da8565b915050610e8b565b509392505050565b60008161100c846004612dd4565b610e099190612e15565b6005546001600160a01b031633146110685760405162461bcd60e51b815260206004820152601560248201527413db9b1e481c1b185e595c9cc818dbdb9d1c9858dd605a1b6044820152606401610a34565b600b818154811061107b5761107b612d60565b600091825260208220600460059092020101805460ff169161109c83612e4f565b91906101000a81548160ff021916908360ff1602179055505050565b6110c06124cf565b6110ca600061253f565b565b6110d46124cf565b600a805460ff1916911515919091179055565b6000816000036110f957506001919050565b8160010361110957506000919050565b8160020361111957506003919050565b8160030361112957506002919050565b60405162461bcd60e51b815260206004820152600d60248201526c2130b2103234b932b1ba34b7b760991b6044820152606401610a34565b6111696124cf565b61117b81670de0b6b3a7640000612dd4565b60065550565b6040805180820190915260008082526020820152826000036111d3576040518060400160405280600184600001516111b99190612e6e565b60ff168152602001836020015160ff168152509050610aa0565b826001036111f7576040518060400160405280836000015160016111b99190612e87565b82600203611234576040518060400160405280836000015160ff168152602001836020015160016112289190612e87565b60ff1690529050610aa0565b82600303611265576040518060400160405280836000015160ff168152602001600184602001516112289190612e6e565b60006112708461258f565b6040516020016112809190612ec4565b60405160208183030381529060405290508060405162461bcd60e51b8152600401610a349190612f2b565b6000808260016112bc866002613022565b6112c69190612dc1565b901b8516831c9150509392505050565b6112de6124cf565b600280546001600160a01b039586166001600160a01b0319918216179091556003805494861694821694909417909355600480549285169284169290921790915560058054919093169116179055565b600454600b8054849284926001600160a01b03909116916395a81d4e91908590811061135c5761135c612d60565b9060005260206000209060050201600201546040518263ffffffff1660e01b815260040161138c91815260200190565b602060405180830381865afa1580156113a9573d6000803e3d6000fd5b505050506040513d601f19601f820116820180604052508101906113cd919061302e565b6001600160a01b0316336001600160a01b0316146114225760405162461bcd60e51b81526020600482015260126024820152712737ba103cb7bab91031b430b930b1ba32b960711b6044820152606401610a34565b600b828154811061143557611435612d60565b6000918252602090912060059091020160040154600160201b900460ff16156114925760405162461bcd60e51b815260206004820152600f60248201526e416c726561647920696e2067616d6560881b6044820152606401610a34565b600454600b80546001600160a01b0390921691636352211e9190859081106114bc576114bc612d60565b9060005260206000209060050201600201546040518263ffffffff1660e01b81526004016114ec91815260200190565b602060405180830381865afa158015611509573d6000803e3d6000fd5b505050506040513d601f19601f8201168201806040525081019061152d919061302e565b6001600160a01b0316306001600160a01b03161461157e5760405162461bcd60e51b815260206004820152600e60248201526d155252481b9bdd081b1bd859195960921b6044820152606401610a34565b600b828154811061159157611591612d60565b906000526020600020906005020160030160000160019054906101000a900460000b60ff16815111156115f75760405162461bcd60e51b815260206004820152600e60248201526d546f6f206d616e79206974656d7360901b6044820152606401610a34565b6000546001600160a01b0316331480611611575060065434145b61162d5760405162461bcd60e51b8152600401610a349061304b565b6001600b858154811061164257611642612d60565b60009182526020909120600460059092020181018054921515600160201b0264ff000000001990931692909217909155600254604051637b5e5bab60e11b81526001600160a01b039091169163f6bcb756916116a49188913391899101613076565b600060405180830381600087803b1580156116be57600080fd5b505af11580156116d2573d6000803e3d6000fd5b5050505050505050565b6000546001600160a01b03163314806116f6575060075434145b6117125760405162461bcd60e51b8152600401610a349061304b565b6000546001600160a01b03163314806117325750600a5460ff1615156001145b6117765760405162461bcd60e51b81526020600482015260156024820152744d696e74696e67206973206e6f742061637469766560581b6044820152606401610a34565b600480546008546040516309b6507f60e41b81526000938101849052602481018490523360448201526001600160a01b0390921691639b6507f0919060640160206040518083038185885af11580156117d3573d6000803e3d6000fd5b50505050506040513d601f19601f820116820180604052508101906117f891906130d5565b60048054604051632851838160e01b81529182018390529192506000916001600160a01b031690632851838190602401602060405180830381865afa158015611845573d6000803e3d6000fd5b505050506040513d601f19601f8201168201806040525081019061186991906130d5565b905060006040518060e001604052806118b86002600a60019054906101000a900460ff1660016118999190612e87565b60ff166118ae876004610790600c6001610ffe565b60ff16600f610d36565b60000b81526020016118f66003600a60029054906101000a900460ff1660016118e19190612e87565b60ff166118ae876004610790600a6002610ffe565b60000b81526020016119346002600a60039054906101000a900460ff16600161191f9190612e87565b60ff166118ae876004610790600c6000610ffe565b60000b81526020016119726002600a60049054906101000a900460ff16600161195d9190612e87565b60ff166118ae876004610790600d6000610ffe565b60000b81526020016119b06002600a60059054906101000a900460ff16600161199b9190612e87565b60ff166118ae876004610790600a6001610ffe565b60000b81526020016119ee6002600a60069054906101000a900460ff1660016119d99190612e87565b60ff166118ae876004610790600b6000610ffe565b60000b8152602001611a2c6002600a60079054906101000a900460ff166001611a179190612e87565b60ff166118ae876004610790600a6000610ffe565b60000b8152509050600b604051806101200160405280848152602001600b805490508152602001858152602001838152602001600060ff168152602001611a9d6000600a60089054906101000a900460ff1660ff16611a9388600861079060036000610ffe565b60ff1660ff610d36565b60ff168152602001611acf6000600a60099054906101000a900460ff1660ff16611a9388600861079060086000610ffe565b60ff168152602001611aff6000600a8054906101000a900460ff1660ff16611a9388600861079060086002610ffe565b60ff16815260200160001515815250908060018154018082558091505060019003906000526020600020906005020160009091909190915060008201518160000155602082015181600101556040820151816002015560608201518160030160008201518160000160006101000a81548160ff021916908360000b60ff16021790555060208201518160000160016101000a81548160ff021916908360000b60ff16021790555060408201518160000160026101000a81548160ff021916908360000b60ff16021790555060608201518160000160036101000a81548160ff021916908360000b60ff16021790555060808201518160000160046101000a81548160ff021916908360000b60ff16021790555060a08201518160000160056101000a81548160ff021916908360000b60ff16021790555060c08201518160000160066101000a81548160ff021916908360000b60ff160217905550505060808201518160040160006101000a81548160ff021916908360ff16021790555060a08201518160040160016101000a81548160ff021916908360ff16021790555060c08201518160040160026101000a81548160ff021916908360ff16021790555060e08201518160040160036101000a81548160ff021916908360ff1602179055506101008201518160040160046101000a81548160ff0219169083151502179055505050611d2d6001600b80549050611d189190612dc1565b336000908152600c6020526040902090612698565b50505050565b600454600b8054849284926001600160a01b03909116916395a81d4e919085908110611d6157611d61612d60565b9060005260206000209060050201600201546040518263ffffffff1660e01b8152600401611d9191815260200190565b602060405180830381865afa158015611dae573d6000803e3d6000fd5b505050506040513d601f19601f82011682018060405250810190611dd2919061302e565b6001600160a01b0316336001600160a01b031614611e275760405162461bcd60e51b81526020600482015260126024820152712737ba103cb7bab91031b430b930b1ba32b960711b6044820152606401610a34565b600b8281548110611e3a57611e3a612d60565b6000918252602090912060059091020160040154600160201b900460ff1615611e975760405162461bcd60e51b815260206004820152600f60248201526e416c726561647920696e2067616d6560881b6044820152606401610a34565b600454600b80546001600160a01b0390921691636352211e919085908110611ec157611ec1612d60565b9060005260206000209060050201600201546040518263ffffffff1660e01b8152600401611ef191815260200190565b602060405180830381865afa158015611f0e573d6000803e3d6000fd5b505050506040513d601f19601f82011682018060405250810190611f32919061302e565b6001600160a01b0316306001600160a01b031614611f835760405162461bcd60e51b815260206004820152600e60248201526d155252481b9bdd081b1bd859195960921b6044820152606401610a34565b600b8281548110611f9657611f96612d60565b906000526020600020906005020160030160000160019054906101000a900460000b60ff1681511115611ffc5760405162461bcd60e51b815260206004820152600e60248201526d546f6f206d616e79206974656d7360901b6044820152606401610a34565b6000546001600160a01b0316331480612016575060095434145b6120325760405162461bcd60e51b8152600401610a349061304b565b6001600b858154811061204757612047612d60565b60009182526020909120600460059092020181018054921515600160201b0264ff000000001990931692909217909155600254604051631f5e4de360e01b81526001600160a01b0390911691631f5e4de3916116a49188913391899101613076565b60018054600091826120ba83612da8565b91905055506000336001546001436120d29190612dc1565b60405160609390931b6bffffffffffffffffffffffff19166020840152603483019190915240605482015260740160408051601f198184030181529190528051602090910120905060006121268585612e6e565b612131906001612e87565b90508460ff168160ff168361214691906130ee565b6121509190612e15565b95945050505050565b6121616124cf565b6001600160a01b0381166121c65760405162461bcd60e51b815260206004820152602660248201527f4f776e61626c653a206e6577206f776e657220697320746865207a65726f206160448201526564647265737360d01b6064820152608401610a34565b610a468161253f565b805182516000916121df91613102565b60000b6001036121f157506000610aa0565b815183516121ff9190613102565b60000b1961220f57506001610aa0565b816020015183602001516122239190613102565b60000b1961223357506002610aa0565b816020015183602001516122479190613102565b60000b60010361225957506003610aa0565b60405162461bcd60e51b8152602060048201526013602482015272115c9c9bdc8e88139bdd0818591a9858d95b9d606a1b6044820152606401610a34565b6122c36040518060400160405280600a81526020016936b9b39739b2b73232b960b11b815250336126a4565b604080518082018252601f81527f7569662e65787447657443757272656e744f776e6572285f63686172496429006020820152600480549251634ad40ea760e11b8152908101849052612369926001600160a01b0316906395a81d4e90602401602060405180830381865afa158015612340573d6000803e3d6000fd5b505050506040513d601f19601f82011682018060405250810190612364919061302e565b6126a4565b60048054604051634ad40ea760e11b81529182018390526001600160a01b0316906395a81d4e90602401602060405180830381865afa1580156123b0573d6000803e3d6000fd5b505050506040513d601f19601f820116820180604052508101906123d4919061302e565b6001600160a01b0316336001600160a01b0316146124235760405162461bcd60e51b815260206004820152600c60248201526b4e6f7420796f75722075696960a01b6044820152606401610a34565b600454600b80546001600160a01b03909216916342842e0e9130913391908690811061245157612451612d60565b60009182526020909120600260059092020101546040516001600160e01b031960e086901b1681526001600160a01b0393841660048201529290911660248301526044820152606401600060405180830381600087803b1580156124b457600080fd5b505af11580156124c8573d6000803e3d6000fd5b5050505050565b6000546001600160a01b031633146110ca5760405162461bcd60e51b815260206004820181905260248201527f4f776e61626c653a2063616c6c6572206973206e6f7420746865206f776e65726044820152606401610a34565b6000610aa0825490565b6000610e0983836126e9565b600080546001600160a01b038381166001600160a01b0319831681178455604051919092169283917f8be0079c531659141344cd1fd0a4f28419497f9722a3daafe3b4186f6b6457e09190a35050565b6060816000036125b65750506040805180820190915260018152600360fc1b602082015290565b8160005b81156125e057806125ca81612da8565b91506125d99050600a83612e01565b91506125ba565b60008167ffffffffffffffff8111156125fb576125fb612b14565b6040519080825280601f01601f191660200182016040528015612625576020820181803683370190505b5090505b84156126905761263a600183612dc1565b9150612647600a866130ee565b612652906030612e15565b60f81b81838151811061266757612667612d60565b60200101906001600160f81b031916908160001a905350612689600a86612e01565b9450612629565b949350505050565b6000610e098383612713565b61045882826040516024016126ba929190613123565b60408051601f198184030181529190526020810180516001600160e01b031663319af33360e01b179052612762565b600082600001828154811061270057612700612d60565b9060005260206000200154905092915050565b600081815260018301602052604081205461275a57508154600181810184556000848152602080822090930184905584548482528286019093526040902091909155610aa0565b506000610aa0565b80516a636f6e736f6c652e6c6f67602083016000808483855afa5050505050565b604080516101208101825260008082526020808301829052828401829052835160e08101855282815290810182905292830181905260608381018290526080840182905260a0840182905260c0840191909152909190820190815260006020820181905260408201819052606082018190526080820181905260a09091015290565b60006020828403121561281757600080fd5b5035919050565b8051600081810b84526020830151810b60208501526040830151810b60408501526060830151810b60608501526080830151810b608085015260a0830151810b60a085015260c0830151810b60c085015250505050565b805182526020810151602083015260408101516040830152606081015161289f606084018261281e565b50608081015160ff90811661014084015260a0820151811661016084015260c0820151811661018084015260e0820151166101a0830152610100015115156101c090910152565b6101e08101610aa08284612875565b6001600160a01b0381168114610a4657600080fd5b60008060008060006080868803121561292257600080fd5b853561292d816128f5565b9450602086013561293d816128f5565b935060408601359250606086013567ffffffffffffffff8082111561296157600080fd5b818801915088601f83011261297557600080fd5b81358181111561298457600080fd5b89602082850101111561299657600080fd5b9699959850939650602001949392505050565b600080604083850312156129bc57600080fd5b50508035926020909101359150565b89815260208101899052604081018890526101e081016129ee606083018961281e565b60ff96871661014083015294861661016082015292851661018084015293166101a08201529115156101c090920191909152949350505050565b60008060008060808587031215612a3e57600080fd5b5050823594602084013594506040840135936060013592509050565b600080600060608486031215612a6f57600080fd5b505081359360208301359350604090920135919050565b600060208284031215612a9857600080fd5b8135610e09816128f5565b6020808252825182820181905260009190848201906040850190845b81811015612ae657612ad2838551612875565b928401926101e09290920191600101612abf565b50909695505050505050565b600060208284031215612b0457600080fd5b81358015158114610e0957600080fd5b634e487b7160e01b600052604160045260246000fd5b604051601f8201601f1916810167ffffffffffffffff81118282101715612b5357612b53612b14565b604052919050565b803560ff81168114612b6c57600080fd5b919050565b600060408284031215612b8357600080fd5b6040516040810181811067ffffffffffffffff82111715612ba657612ba6612b14565b604052905080612bb583612b5b565b8152612bc360208401612b5b565b60208201525092915050565b60008060608385031215612be257600080fd5b82359150612bf38460208501612b71565b90509250929050565b60008060008060808587031215612c1257600080fd5b8435612c1d816128f5565b93506020850135612c2d816128f5565b92506040850135612c3d816128f5565b91506060850135612c4d816128f5565b939692955090935050565b60008060408385031215612c6b57600080fd5b8235915060208084013567ffffffffffffffff80821115612c8b57600080fd5b818601915086601f830112612c9f57600080fd5b813581811115612cb157612cb1612b14565b8060051b9150612cc2848301612b2a565b8181529183018401918481019089841115612cdc57600080fd5b938501935b83851015612cfa57843582529385019390850190612ce1565b8096505050505050509250929050565b60008060408385031215612d1d57600080fd5b612d2683612b5b565b9150612bf360208401612b5b565b60008060808385031215612d4757600080fd5b612d518484612b71565b9150612bf38460408501612b71565b634e487b7160e01b600052603260045260246000fd5b634e487b7160e01b600052601160045260246000fd5b6000600160ff1b8201612da157612da1612d76565b5060000390565b600060018201612dba57612dba612d76565b5060010190565b81810381811115610aa057610aa0612d76565b8082028115828204841417610aa057610aa0612d76565b634e487b7160e01b600052601260045260246000fd5b600082612e1057612e10612deb565b500490565b80820180821115610aa057610aa0612d76565b8181036000831280158383131683831282161715612e4857612e48612d76565b5092915050565b600060ff821660ff8103612e6557612e65612d76565b60010192915050565b60ff8281168282160390811115610aa057610aa0612d76565b60ff8181168382160190811115610aa057610aa0612d76565b60005b83811015612ebb578181015183820152602001612ea3565b50506000910152565b72024b73b30b634b2103234b932b1ba34b7b71d1606d1b815260008251612ef2816013850160208701612ea0565b9190910160130192915050565b60008151808452612f17816020860160208601612ea0565b601f01601f19169290920160200192915050565b602081526000610e096020830184612eff565b600181815b80851115612f79578160001904821115612f5f57612f5f612d76565b80851615612f6c57918102915b93841c9390800290612f43565b509250929050565b600082612f9057506001610aa0565b81612f9d57506000610aa0565b8160018114612fb35760028114612fbd57612fd9565b6001915050610aa0565b60ff841115612fce57612fce612d76565b50506001821b610aa0565b5060208310610133831016604e8410600b8410161715612ffc575081810a610aa0565b6130068383612f3e565b806000190482111561301a5761301a612d76565b029392505050565b6000610e098383612f81565b60006020828403121561304057600080fd5b8151610e09816128f5565b602080825260119082015270125b98dbdc9c9958dd081c185e5b595b9d607a1b604082015260600190565b8381526001600160a01b0383166020808301919091526060604083018190528351908301819052600091848101916080850190845b818110156130c7578451835293830193918301916001016130ab565b509098975050505050505050565b6000602082840312156130e757600080fd5b5051919050565b6000826130fd576130fd612deb565b500690565b600082810b9082900b03607f198112607f82131715610aa057610aa0612d76565b6040815260006131366040830185612eff565b905060018060a01b0383166020830152939250505056fea26469706673582212207256b24201241f84d3d4b6ef8d52d48afd2ecf6860f2aa4fd51298fc71cbda0b64736f6c63430008110033",
  "devdoc": {
    "kind": "dev",
    "methods": {
      "owner()": {
        "details": "Returns the address of the current owner."
      },
      "renounceOwnership()": {
        "details": "Leaves the contract without owner. It will not be possible to call `onlyOwner` functions anymore. Can only be called by the current owner. NOTE: Renouncing ownership will leave the contract without an owner, thereby removing any functionality that is only available to the owner."
      },
      "transferOwnership(address)": {
        "details": "Transfers ownership of the contract to a new account (`newOwner`). Can only be called by the current owner."
      }
    },
    "version": 1
  },
  "userdoc": {
    "kind": "user",
    "methods": {},
    "version": 1
  },
  "storageLayout": {
    "storage": [
      {
        "astId": 7,
        "contract": "contracts/BCChars.sol:BCChars",
        "label": "_owner",
        "offset": 0,
        "slot": "0",
        "type": "t_address"
      },
      {
        "astId": 17166,
        "contract": "contracts/BCChars.sol:BCChars",
        "label": "TODO_randomSeed",
        "offset": 0,
        "slot": "1",
        "type": "t_uint256"
      },
      {
        "astId": 4018,
        "contract": "contracts/BCChars.sol:BCChars",
        "label": "lobbies",
        "offset": 0,
        "slot": "2",
        "type": "t_contract(LobbyInterface)3964"
      },
      {
        "astId": 4020,
        "contract": "contracts/BCChars.sol:BCChars",
        "label": "gamesContract",
        "offset": 0,
        "slot": "3",
        "type": "t_address"
      },
      {
        "astId": 4023,
        "contract": "contracts/BCChars.sol:BCChars",
        "label": "uif",
        "offset": 0,
        "slot": "4",
        "type": "t_contract(UIFInterface)4005"
      },
      {
        "astId": 4025,
        "contract": "contracts/BCChars.sol:BCChars",
        "label": "playersAddress",
        "offset": 0,
        "slot": "5",
        "type": "t_address"
      },
      {
        "astId": 4066,
        "contract": "contracts/BCChars.sol:BCChars",
        "label": "enlistCost",
        "offset": 0,
        "slot": "6",
        "type": "t_uint256"
      },
      {
        "astId": 4073,
        "contract": "contracts/BCChars.sol:BCChars",
        "label": "mintCost",
        "offset": 0,
        "slot": "7",
        "type": "t_uint256"
      },
      {
        "astId": 4076,
        "contract": "contracts/BCChars.sol:BCChars",
        "label": "uifCost",
        "offset": 0,
        "slot": "8",
        "type": "t_uint256"
      },
      {
        "astId": 4081,
        "contract": "contracts/BCChars.sol:BCChars",
        "label": "soloCost",
        "offset": 0,
        "slot": "9",
        "type": "t_uint256"
      },
      {
        "astId": 4084,
        "contract": "contracts/BCChars.sol:BCChars",
        "label": "mintIsActive",
        "offset": 0,
        "slot": "10",
        "type": "t_bool"
      },
      {
        "astId": 4087,
        "contract": "contracts/BCChars.sol:BCChars",
        "label": "healthCap",
        "offset": 1,
        "slot": "10",
        "type": "t_uint8"
      },
      {
        "astId": 4090,
        "contract": "contracts/BCChars.sol:BCChars",
        "label": "carryCap",
        "offset": 2,
        "slot": "10",
        "type": "t_uint8"
      },
      {
        "astId": 4093,
        "contract": "contracts/BCChars.sol:BCChars",
        "label": "defenseCap",
        "offset": 3,
        "slot": "10",
        "type": "t_uint8"
      },
      {
        "astId": 4096,
        "contract": "contracts/BCChars.sol:BCChars",
        "label": "hackCap",
        "offset": 4,
        "slot": "10",
        "type": "t_uint8"
      },
      {
        "astId": 4099,
        "contract": "contracts/BCChars.sol:BCChars",
        "label": "breachCap",
        "offset": 5,
        "slot": "10",
        "type": "t_uint8"
      },
      {
        "astId": 4102,
        "contract": "contracts/BCChars.sol:BCChars",
        "label": "shootCap",
        "offset": 6,
        "slot": "10",
        "type": "t_uint8"
      },
      {
        "astId": 4105,
        "contract": "contracts/BCChars.sol:BCChars",
        "label": "meleeCap",
        "offset": 7,
        "slot": "10",
        "type": "t_uint8"
      },
      {
        "astId": 4108,
        "contract": "contracts/BCChars.sol:BCChars",
        "label": "maxClonesCap",
        "offset": 8,
        "slot": "10",
        "type": "t_uint8"
      },
      {
        "astId": 4111,
        "contract": "contracts/BCChars.sol:BCChars",
        "label": "abilityCap",
        "offset": 9,
        "slot": "10",
        "type": "t_uint8"
      },
      {
        "astId": 4114,
        "contract": "contracts/BCChars.sol:BCChars",
        "label": "flawCap",
        "offset": 10,
        "slot": "10",
        "type": "t_uint8"
      },
      {
        "astId": 4118,
        "contract": "contracts/BCChars.sol:BCChars",
        "label": "characters",
        "offset": 0,
        "slot": "11",
        "type": "t_array(t_struct(Character)17105_storage)dyn_storage"
      },
      {
        "astId": 4123,
        "contract": "contracts/BCChars.sol:BCChars",
        "label": "charsOwned",
        "offset": 0,
        "slot": "12",
        "type": "t_mapping(t_address,t_struct(UintSet)2292_storage)"
      }
    ],
    "types": {
      "t_address": {
        "encoding": "inplace",
        "label": "address",
        "numberOfBytes": "20"
      },
      "t_array(t_bytes32)dyn_storage": {
        "base": "t_bytes32",
        "encoding": "dynamic_array",
        "label": "bytes32[]",
        "numberOfBytes": "32"
      },
      "t_array(t_struct(Character)17105_storage)dyn_storage": {
        "base": "t_struct(Character)17105_storage",
        "encoding": "dynamic_array",
        "label": "struct BCTypes.Character[]",
        "numberOfBytes": "32"
      },
      "t_bool": {
        "encoding": "inplace",
        "label": "bool",
        "numberOfBytes": "1"
      },
      "t_bytes32": {
        "encoding": "inplace",
        "label": "bytes32",
        "numberOfBytes": "32"
      },
      "t_contract(LobbyInterface)3964": {
        "encoding": "inplace",
        "label": "contract LobbyInterface",
        "numberOfBytes": "20"
      },
      "t_contract(UIFInterface)4005": {
        "encoding": "inplace",
        "label": "contract UIFInterface",
        "numberOfBytes": "20"
      },
      "t_int8": {
        "encoding": "inplace",
        "label": "int8",
        "numberOfBytes": "1"
      },
      "t_mapping(t_address,t_struct(UintSet)2292_storage)": {
        "encoding": "mapping",
        "key": "t_address",
        "label": "mapping(address => struct EnumerableSet.UintSet)",
        "numberOfBytes": "32",
        "value": "t_struct(UintSet)2292_storage"
      },
      "t_mapping(t_bytes32,t_uint256)": {
        "encoding": "mapping",
        "key": "t_bytes32",
        "label": "mapping(bytes32 => uint256)",
        "numberOfBytes": "32",
        "value": "t_uint256"
      },
      "t_struct(Character)17105_storage": {
        "encoding": "inplace",
        "label": "struct BCTypes.Character",
        "members": [
          {
            "astId": 17087,
            "contract": "contracts/BCChars.sol:BCChars",
            "label": "genHash",
            "offset": 0,
            "slot": "0",
            "type": "t_bytes32"
          },
          {
            "astId": 17089,
            "contract": "contracts/BCChars.sol:BCChars",
            "label": "id",
            "offset": 0,
            "slot": "1",
            "type": "t_uint256"
          },
          {
            "astId": 17091,
            "contract": "contracts/BCChars.sol:BCChars",
            "label": "uifID",
            "offset": 0,
            "slot": "2",
            "type": "t_uint256"
          },
          {
            "astId": 17094,
            "contract": "contracts/BCChars.sol:BCChars",
            "label": "traits",
            "offset": 0,
            "slot": "3",
            "type": "t_struct(Traits)17085_storage"
          },
          {
            "astId": 17096,
            "contract": "contracts/BCChars.sol:BCChars",
            "label": "cloneNumber",
            "offset": 0,
            "slot": "4",
            "type": "t_uint8"
          },
          {
            "astId": 17098,
            "contract": "contracts/BCChars.sol:BCChars",
            "label": "maxClones",
            "offset": 1,
            "slot": "4",
            "type": "t_uint8"
          },
          {
            "astId": 17100,
            "contract": "contracts/BCChars.sol:BCChars",
            "label": "ability",
            "offset": 2,
            "slot": "4",
            "type": "t_uint8"
          },
          {
            "astId": 17102,
            "contract": "contracts/BCChars.sol:BCChars",
            "label": "flaw",
            "offset": 3,
            "slot": "4",
            "type": "t_uint8"
          },
          {
            "astId": 17104,
            "contract": "contracts/BCChars.sol:BCChars",
            "label": "inGame",
            "offset": 4,
            "slot": "4",
            "type": "t_bool"
          }
        ],
        "numberOfBytes": "160"
      },
      "t_struct(Set)1834_storage": {
        "encoding": "inplace",
        "label": "struct EnumerableSet.Set",
        "members": [
          {
            "astId": 1829,
            "contract": "contracts/BCChars.sol:BCChars",
            "label": "_values",
            "offset": 0,
            "slot": "0",
            "type": "t_array(t_bytes32)dyn_storage"
          },
          {
            "astId": 1833,
            "contract": "contracts/BCChars.sol:BCChars",
            "label": "_indexes",
            "offset": 0,
            "slot": "1",
            "type": "t_mapping(t_bytes32,t_uint256)"
          }
        ],
        "numberOfBytes": "64"
      },
      "t_struct(Traits)17085_storage": {
        "encoding": "inplace",
        "label": "struct BCTypes.Traits",
        "members": [
          {
            "astId": 17072,
            "contract": "contracts/BCChars.sol:BCChars",
            "label": "health",
            "offset": 0,
            "slot": "0",
            "type": "t_int8"
          },
          {
            "astId": 17074,
            "contract": "contracts/BCChars.sol:BCChars",
            "label": "carry",
            "offset": 1,
            "slot": "0",
            "type": "t_int8"
          },
          {
            "astId": 17076,
            "contract": "contracts/BCChars.sol:BCChars",
            "label": "defense",
            "offset": 2,
            "slot": "0",
            "type": "t_int8"
          },
          {
            "astId": 17078,
            "contract": "contracts/BCChars.sol:BCChars",
            "label": "hack",
            "offset": 3,
            "slot": "0",
            "type": "t_int8"
          },
          {
            "astId": 17080,
            "contract": "contracts/BCChars.sol:BCChars",
            "label": "breach",
            "offset": 4,
            "slot": "0",
            "type": "t_int8"
          },
          {
            "astId": 17082,
            "contract": "contracts/BCChars.sol:BCChars",
            "label": "shoot",
            "offset": 5,
            "slot": "0",
            "type": "t_int8"
          },
          {
            "astId": 17084,
            "contract": "contracts/BCChars.sol:BCChars",
            "label": "melee",
            "offset": 6,
            "slot": "0",
            "type": "t_int8"
          }
        ],
        "numberOfBytes": "32"
      },
      "t_struct(UintSet)2292_storage": {
        "encoding": "inplace",
        "label": "struct EnumerableSet.UintSet",
        "members": [
          {
            "astId": 2291,
            "contract": "contracts/BCChars.sol:BCChars",
            "label": "_inner",
            "offset": 0,
            "slot": "0",
            "type": "t_struct(Set)1834_storage"
          }
        ],
        "numberOfBytes": "64"
      },
      "t_uint256": {
        "encoding": "inplace",
        "label": "uint256",
        "numberOfBytes": "32"
      },
      "t_uint8": {
        "encoding": "inplace",
        "label": "uint8",
        "numberOfBytes": "1"
      }
    }
  }
}