{
  "address": "0x0f2F2878D4912Eb68b50346E2f9679cB280dFd30",
  "abi": [
    {
      "anonymous": false,
      "inputs": [
        {
          "indexed": false,
          "internalType": "uint256",
          "name": "gameId",
          "type": "uint256"
        },
        {
          "indexed": false,
          "internalType": "uint256",
          "name": "roll",
          "type": "uint256"
        },
        {
          "indexed": false,
          "internalType": "uint256",
          "name": "forValue",
          "type": "uint256"
        },
        {
          "indexed": false,
          "internalType": "uint256",
          "name": "against",
          "type": "uint256"
        }
      ],
      "name": "ChallengeEvent",
      "type": "event"
    },
    {
      "anonymous": false,
      "inputs": [
        {
          "indexed": false,
          "internalType": "uint256",
          "name": "gameId",
          "type": "uint256"
        },
        {
          "indexed": false,
          "internalType": "uint256",
          "name": "roll",
          "type": "uint256"
        }
      ],
      "name": "DiceRollEvent",
      "type": "event"
    },
    {
      "anonymous": false,
      "inputs": [
        {
          "indexed": true,
          "internalType": "address",
          "name": "previousOwner",
          "type": "address"
        },
        {
          "indexed": true,
          "internalType": "address",
          "name": "newOwner",
          "type": "address"
        }
      ],
      "name": "OwnershipTransferred",
      "type": "event"
    },
    {
      "anonymous": false,
      "inputs": [],
      "name": "Received",
      "type": "event"
    },
    {
      "inputs": [
        {
          "internalType": "uint256",
          "name": "_matic",
          "type": "uint256"
        }
      ],
      "name": "SetEnlistCostInMatic",
      "outputs": [],
      "stateMutability": "nonpayable",
      "type": "function"
    },
    {
      "inputs": [
        {
          "internalType": "uint256",
          "name": "_matic",
          "type": "uint256"
        }
      ],
      "name": "SetMintCostInMatic",
      "outputs": [],
      "stateMutability": "nonpayable",
      "type": "function"
    },
    {
      "inputs": [
        {
          "internalType": "int256",
          "name": "x",
          "type": "int256"
        }
      ],
      "name": "abs",
      "outputs": [
        {
          "internalType": "int256",
          "name": "",
          "type": "int256"
        }
      ],
      "stateMutability": "pure",
      "type": "function"
    },
    {
      "inputs": [],
      "name": "breachCap",
      "outputs": [
        {
          "internalType": "uint8",
          "name": "",
          "type": "uint8"
        }
      ],
      "stateMutability": "view",
      "type": "function"
    },
    {
      "inputs": [],
      "name": "carryCap",
      "outputs": [
        {
          "internalType": "uint8",
          "name": "",
          "type": "uint8"
        }
      ],
      "stateMutability": "view",
      "type": "function"
    },
    {
      "inputs": [
        {
          "internalType": "uint256",
          "name": "",
          "type": "uint256"
        }
      ],
      "name": "characters",
      "outputs": [
        {
          "internalType": "bytes32",
          "name": "genHash",
          "type": "bytes32"
        },
        {
          "internalType": "uint256",
          "name": "id",
          "type": "uint256"
        },
        {
          "internalType": "uint256",
          "name": "uifID",
          "type": "uint256"
        },
        {
          "components": [
            {
              "internalType": "int8",
              "name": "health",
              "type": "int8"
            },
            {
              "internalType": "int8",
              "name": "carry",
              "type": "int8"
            },
            {
              "internalType": "int8",
              "name": "defense",
              "type": "int8"
            },
            {
              "internalType": "int8",
              "name": "hack",
              "type": "int8"
            },
            {
              "internalType": "int8",
              "name": "breach",
              "type": "int8"
            },
            {
              "internalType": "int8",
              "name": "shoot",
              "type": "int8"
            },
            {
              "internalType": "int8",
              "name": "melee",
              "type": "int8"
            }
          ],
          "internalType": "struct BCTypes.Traits",
          "name": "traits",
          "type": "tuple"
        },
        {
          "internalType": "uint8",
          "name": "cloneNumber",
          "type": "uint8"
        },
        {
          "internalType": "uint8",
          "name": "maxClones",
          "type": "uint8"
        },
        {
          "internalType": "uint8",
          "name": "ability",
          "type": "uint8"
        },
        {
          "internalType": "uint8",
          "name": "flaw",
          "type": "uint8"
        },
        {
          "internalType": "bool",
          "name": "inGame",
          "type": "bool"
        }
      ],
      "stateMutability": "view",
      "type": "function"
    },
    {
      "inputs": [
        {
          "internalType": "address",
          "name": "",
          "type": "address"
        },
        {
          "internalType": "uint256",
          "name": "",
          "type": "uint256"
        }
      ],
      "name": "charsOwned",
      "outputs": [
        {
          "internalType": "uint256",
          "name": "",
          "type": "uint256"
        }
      ],
      "stateMutability": "view",
      "type": "function"
    },
    {
      "inputs": [],
      "name": "debugAllowedUser",
      "outputs": [
        {
          "internalType": "address",
          "name": "",
          "type": "address"
        }
      ],
      "stateMutability": "view",
      "type": "function"
    },
    {
      "inputs": [],
      "name": "decantNewClone",
      "outputs": [],
      "stateMutability": "payable",
      "type": "function"
    },
    {
      "inputs": [],
      "name": "defenseCap",
      "outputs": [
        {
          "internalType": "uint8",
          "name": "",
          "type": "uint8"
        }
      ],
      "stateMutability": "view",
      "type": "function"
    },
    {
      "inputs": [
        {
          "internalType": "uint256",
          "name": "_charId",
          "type": "uint256"
        }
      ],
      "name": "enlistChar",
      "outputs": [],
      "stateMutability": "payable",
      "type": "function"
    },
    {
      "inputs": [],
      "name": "enlistCost",
      "outputs": [
        {
          "internalType": "uint256",
          "name": "",
          "type": "uint256"
        }
      ],
      "stateMutability": "view",
      "type": "function"
    },
    {
      "inputs": [
        {
          "internalType": "uint256",
          "name": "_charId",
          "type": "uint256"
        }
      ],
      "name": "enlistSolo",
      "outputs": [],
      "stateMutability": "payable",
      "type": "function"
    },
    {
      "inputs": [
        {
          "internalType": "uint256",
          "name": "_charId",
          "type": "uint256"
        }
      ],
      "name": "extGetChar",
      "outputs": [
        {
          "components": [
            {
              "internalType": "bytes32",
              "name": "genHash",
              "type": "bytes32"
            },
            {
              "internalType": "uint256",
              "name": "id",
              "type": "uint256"
            },
            {
              "internalType": "uint256",
              "name": "uifID",
              "type": "uint256"
            },
            {
              "components": [
                {
                  "internalType": "int8",
                  "name": "health",
                  "type": "int8"
                },
                {
                  "internalType": "int8",
                  "name": "carry",
                  "type": "int8"
                },
                {
                  "internalType": "int8",
                  "name": "defense",
                  "type": "int8"
                },
                {
                  "internalType": "int8",
                  "name": "hack",
                  "type": "int8"
                },
                {
                  "internalType": "int8",
                  "name": "breach",
                  "type": "int8"
                },
                {
                  "internalType": "int8",
                  "name": "shoot",
                  "type": "int8"
                },
                {
                  "internalType": "int8",
                  "name": "melee",
                  "type": "int8"
                }
              ],
              "internalType": "struct BCTypes.Traits",
              "name": "traits",
              "type": "tuple"
            },
            {
              "internalType": "uint8",
              "name": "cloneNumber",
              "type": "uint8"
            },
            {
              "internalType": "uint8",
              "name": "maxClones",
              "type": "uint8"
            },
            {
              "internalType": "uint8",
              "name": "ability",
              "type": "uint8"
            },
            {
              "internalType": "uint8",
              "name": "flaw",
              "type": "uint8"
            },
            {
              "internalType": "bool",
              "name": "inGame",
              "type": "bool"
            }
          ],
          "internalType": "struct BCTypes.Character",
          "name": "",
          "type": "tuple"
        }
      ],
      "stateMutability": "view",
      "type": "function"
    },
    {
      "inputs": [],
      "name": "gamesContract",
      "outputs": [
        {
          "internalType": "address",
          "name": "",
          "type": "address"
        }
      ],
      "stateMutability": "view",
      "type": "function"
    },
    {
      "inputs": [
        {
          "internalType": "address",
          "name": "_address",
          "type": "address"
        }
      ],
      "name": "getAllCharsByOwner",
      "outputs": [
        {
          "components": [
            {
              "internalType": "bytes32",
              "name": "genHash",
              "type": "bytes32"
            },
            {
              "internalType": "uint256",
              "name": "id",
              "type": "uint256"
            },
            {
              "internalType": "uint256",
              "name": "uifID",
              "type": "uint256"
            },
            {
              "components": [
                {
                  "internalType": "int8",
                  "name": "health",
                  "type": "int8"
                },
                {
                  "internalType": "int8",
                  "name": "carry",
                  "type": "int8"
                },
                {
                  "internalType": "int8",
                  "name": "defense",
                  "type": "int8"
                },
                {
                  "internalType": "int8",
                  "name": "hack",
                  "type": "int8"
                },
                {
                  "internalType": "int8",
                  "name": "breach",
                  "type": "int8"
                },
                {
                  "internalType": "int8",
                  "name": "shoot",
                  "type": "int8"
                },
                {
                  "internalType": "int8",
                  "name": "melee",
                  "type": "int8"
                }
              ],
              "internalType": "struct BCTypes.Traits",
              "name": "traits",
              "type": "tuple"
            },
            {
              "internalType": "uint8",
              "name": "cloneNumber",
              "type": "uint8"
            },
            {
              "internalType": "uint8",
              "name": "maxClones",
              "type": "uint8"
            },
            {
              "internalType": "uint8",
              "name": "ability",
              "type": "uint8"
            },
            {
              "internalType": "uint8",
              "name": "flaw",
              "type": "uint8"
            },
            {
              "internalType": "bool",
              "name": "inGame",
              "type": "bool"
            }
          ],
          "internalType": "struct BCTypes.Character[]",
          "name": "",
          "type": "tuple[]"
        }
      ],
      "stateMutability": "view",
      "type": "function"
    },
    {
      "inputs": [
        {
          "components": [
            {
              "internalType": "uint8",
              "name": "row",
              "type": "uint8"
            },
            {
              "internalType": "uint8",
              "name": "col",
              "type": "uint8"
            }
          ],
          "internalType": "struct BCTypes.Position",
          "name": "_firstRoom",
          "type": "tuple"
        },
        {
          "components": [
            {
              "internalType": "uint8",
              "name": "row",
              "type": "uint8"
            },
            {
              "internalType": "uint8",
              "name": "col",
              "type": "uint8"
            }
          ],
          "internalType": "struct BCTypes.Position",
          "name": "_secondRoom",
          "type": "tuple"
        }
      ],
      "name": "getDirectionBetween",
      "outputs": [
        {
          "internalType": "uint256",
          "name": "",
          "type": "uint256"
        }
      ],
      "stateMutability": "pure",
      "type": "function"
    },
    {
      "inputs": [
        {
          "internalType": "uint256",
          "name": "_direction",
          "type": "uint256"
        },
        {
          "components": [
            {
              "internalType": "uint8",
              "name": "row",
              "type": "uint8"
            },
            {
              "internalType": "uint8",
              "name": "col",
              "type": "uint8"
            }
          ],
          "internalType": "struct BCTypes.Position",
          "name": "_start",
          "type": "tuple"
        }
      ],
      "name": "getNeighborRoom",
      "outputs": [
        {
          "components": [
            {
              "internalType": "uint8",
              "name": "row",
              "type": "uint8"
            },
            {
              "internalType": "uint8",
              "name": "col",
              "type": "uint8"
            }
          ],
          "internalType": "struct BCTypes.Position",
          "name": "",
          "type": "tuple"
        }
      ],
      "stateMutability": "pure",
      "type": "function"
    },
    {
      "inputs": [
        {
          "internalType": "uint256",
          "name": "_traitNum",
          "type": "uint256"
        },
        {
          "internalType": "uint256",
          "name": "_subTraitNum",
          "type": "uint256"
        }
      ],
      "name": "getUIOffset",
      "outputs": [
        {
          "internalType": "uint256",
          "name": "",
          "type": "uint256"
        }
      ],
      "stateMutability": "pure",
      "type": "function"
    },
    {
      "inputs": [],
      "name": "hackCap",
      "outputs": [
        {
          "internalType": "uint8",
          "name": "",
          "type": "uint8"
        }
      ],
      "stateMutability": "view",
      "type": "function"
    },
    {
      "inputs": [],
      "name": "healthCap",
      "outputs": [
        {
          "internalType": "uint8",
          "name": "",
          "type": "uint8"
        }
      ],
      "stateMutability": "view",
      "type": "function"
    },
    {
      "inputs": [
        {
          "internalType": "uint256",
          "name": "_charId",
          "type": "uint256"
        }
      ],
      "name": "incrementCloneNumber",
      "outputs": [],
      "stateMutability": "nonpayable",
      "type": "function"
    },
    {
      "inputs": [
        {
          "internalType": "uint256",
          "name": "_charId",
          "type": "uint256"
        },
        {
          "internalType": "uint256",
          "name": "_uifID",
          "type": "uint256"
        }
      ],
      "name": "injectCHARUII",
      "outputs": [],
      "stateMutability": "nonpayable",
      "type": "function"
    },
    {
      "inputs": [],
      "name": "lobbies",
      "outputs": [
        {
          "internalType": "contract LobbyInterface",
          "name": "",
          "type": "address"
        }
      ],
      "stateMutability": "view",
      "type": "function"
    },
    {
      "inputs": [],
      "name": "maxClonesCap",
      "outputs": [
        {
          "internalType": "uint8",
          "name": "",
          "type": "uint8"
        }
      ],
      "stateMutability": "view",
      "type": "function"
    },
    {
      "inputs": [],
      "name": "meleeCap",
      "outputs": [
        {
          "internalType": "uint8",
          "name": "",
          "type": "uint8"
        }
      ],
      "stateMutability": "view",
      "type": "function"
    },
    {
      "inputs": [],
      "name": "mintCost",
      "outputs": [
        {
          "internalType": "uint256",
          "name": "",
          "type": "uint256"
        }
      ],
      "stateMutability": "view",
      "type": "function"
    },
    {
      "inputs": [],
      "name": "mintIsActive",
      "outputs": [
        {
          "internalType": "bool",
          "name": "",
          "type": "bool"
        }
      ],
      "stateMutability": "view",
      "type": "function"
    },
    {
      "inputs": [
        {
          "internalType": "uint256",
          "name": "_min",
          "type": "uint256"
        },
        {
          "internalType": "uint256",
          "name": "_max",
          "type": "uint256"
        },
        {
          "internalType": "uint256",
          "name": "_val",
          "type": "uint256"
        },
        {
          "internalType": "uint256",
          "name": "_valMax",
          "type": "uint256"
        }
      ],
      "name": "normalizeToSmallRange",
      "outputs": [
        {
          "internalType": "uint8",
          "name": "",
          "type": "uint8"
        }
      ],
      "stateMutability": "pure",
      "type": "function"
    },
    {
      "inputs": [
        {
          "internalType": "address",
          "name": "_operator",
          "type": "address"
        },
        {
          "internalType": "address",
          "name": "_from",
          "type": "address"
        },
        {
          "internalType": "uint256",
          "name": "_tokenId",
          "type": "uint256"
        },
        {
          "internalType": "bytes",
          "name": "_data",
          "type": "bytes"
        }
      ],
      "name": "onERC721Received",
      "outputs": [
        {
          "internalType": "bytes4",
          "name": "",
          "type": "bytes4"
        }
      ],
      "stateMutability": "nonpayable",
      "type": "function"
    },
    {
      "inputs": [
        {
          "internalType": "uint256",
          "name": "_direction",
          "type": "uint256"
        }
      ],
      "name": "opposite",
      "outputs": [
        {
          "internalType": "uint256",
          "name": "",
          "type": "uint256"
        }
      ],
      "stateMutability": "pure",
      "type": "function"
    },
    {
      "inputs": [],
      "name": "owner",
      "outputs": [
        {
          "internalType": "address",
          "name": "",
          "type": "address"
        }
      ],
      "stateMutability": "view",
      "type": "function"
    },
    {
      "inputs": [],
      "name": "playersAddress",
      "outputs": [
        {
          "internalType": "address",
          "name": "",
          "type": "address"
        }
      ],
      "stateMutability": "view",
      "type": "function"
    },
    {
      "inputs": [],
      "name": "randKeccak",
      "outputs": [
        {
          "internalType": "bytes32",
          "name": "",
          "type": "bytes32"
        }
      ],
      "stateMutability": "nonpayable",
      "type": "function"
    },
    {
      "inputs": [],
      "name": "renounceOwnership",
      "outputs": [],
      "stateMutability": "nonpayable",
      "type": "function"
    },
    {
      "inputs": [
        {
          "internalType": "uint256",
          "name": "_gameId",
          "type": "uint256"
        },
        {
          "internalType": "uint256",
          "name": "_for",
          "type": "uint256"
        },
        {
          "internalType": "uint256",
          "name": "_against",
          "type": "uint256"
        }
      ],
      "name": "resolveChallenge",
      "outputs": [
        {
          "internalType": "bool",
          "name": "",
          "type": "bool"
        }
      ],
      "stateMutability": "nonpayable",
      "type": "function"
    },
    {
      "inputs": [
        {
          "internalType": "uint256",
          "name": "_charId",
          "type": "uint256"
        }
      ],
      "name": "returnChar",
      "outputs": [],
      "stateMutability": "nonpayable",
      "type": "function"
    },
    {
      "inputs": [
        {
          "internalType": "uint256",
          "name": "_gameId",
          "type": "uint256"
        }
      ],
      "name": "roll",
      "outputs": [
        {
          "internalType": "uint256",
          "name": "",
          "type": "uint256"
        }
      ],
      "stateMutability": "nonpayable",
      "type": "function"
    },
    {
      "inputs": [
        {
          "internalType": "address",
          "name": "_lobbyContractAddress",
          "type": "address"
        },
        {
          "internalType": "address",
          "name": "_gameContract",
          "type": "address"
        },
        {
          "internalType": "address",
          "name": "_UIFAddress",
          "type": "address"
        },
        {
          "internalType": "address",
          "name": "_playersAddress",
          "type": "address"
        }
      ],
      "name": "setContractAddresses",
      "outputs": [],
      "stateMutability": "nonpayable",
      "type": "function"
    },
    {
      "inputs": [
        {
          "internalType": "bool",
          "name": "_status",
          "type": "bool"
        }
      ],
      "name": "setMintingStatus",
      "outputs": [],
      "stateMutability": "nonpayable",
      "type": "function"
    },
    {
      "inputs": [],
      "name": "shootCap",
      "outputs": [
        {
          "internalType": "uint8",
          "name": "",
          "type": "uint8"
        }
      ],
      "stateMutability": "view",
      "type": "function"
    },
    {
      "inputs": [
        {
          "internalType": "bytes32",
          "name": "_hash",
          "type": "bytes32"
        },
        {
          "internalType": "uint256",
          "name": "_size",
          "type": "uint256"
        },
        {
          "internalType": "uint256",
          "name": "_offset",
          "type": "uint256"
        }
      ],
      "name": "sliceHashToSmallInt",
      "outputs": [
        {
          "internalType": "uint8",
          "name": "",
          "type": "uint8"
        }
      ],
      "stateMutability": "pure",
      "type": "function"
    },
    {
      "inputs": [
        {
          "internalType": "uint8",
          "name": "_min",
          "type": "uint8"
        },
        {
          "internalType": "uint8",
          "name": "_max",
          "type": "uint8"
        }
      ],
      "name": "smallIntBetweenVals",
      "outputs": [
        {
          "internalType": "uint8",
          "name": "",
          "type": "uint8"
        }
      ],
      "stateMutability": "nonpayable",
      "type": "function"
    },
    {
      "inputs": [],
      "name": "soloCost",
      "outputs": [
        {
          "internalType": "uint256",
          "name": "",
          "type": "uint256"
        }
      ],
      "stateMutability": "view",
      "type": "function"
    },
    {
      "inputs": [],
      "name": "transferFundsOut",
      "outputs": [],
      "stateMutability": "nonpayable",
      "type": "function"
    },
    {
      "inputs": [
        {
          "internalType": "address",
          "name": "newOwner",
          "type": "address"
        }
      ],
      "name": "transferOwnership",
      "outputs": [],
      "stateMutability": "nonpayable",
      "type": "function"
    },
    {
      "inputs": [],
      "name": "uif",
      "outputs": [
        {
          "internalType": "contract UIFInterface",
          "name": "",
          "type": "address"
        }
      ],
      "stateMutability": "view",
      "type": "function"
    },
    {
      "inputs": [],
      "name": "uifCost",
      "outputs": [
        {
          "internalType": "uint256",
          "name": "",
          "type": "uint256"
        }
      ],
      "stateMutability": "view",
      "type": "function"
    }
  ],
  "transactionHash": "0xa486d73a421152c1fafb70f58b66d629d8027673980ea945d00a380ecd13975a",
  "args": [],
  "numDeployments": 3,
  "solcInputHash": "e96f9722bfccecabf66c9924a0449fd8",
  "bytecode": "0x60806040526000600155655af3107a40006007819055662386f26fc1000060085564174876e80060095562000036906005620000c5565b600a55600b80546001600160581b0319166a0a0a6404040404040504011790553480156200006357600080fd5b506200006f3362000075565b620000f1565b600080546001600160a01b038381166001600160a01b0319831681178455604051919092169283917f8be0079c531659141344cd1fd0a4f28419497f9722a3daafe3b4186f6b6457e09190a35050565b8082028115828204841417620000eb57634e487b7160e01b600052601160045260246000fd5b92915050565b612d2180620001016000396000f3fe6080604052600436106102935760003560e01c806364db84bf1161015a57806397f34c3f116100c1578063cbfb23881161007a578063cbfb238814610830578063ce28613f14610851578063e604c41014610871578063f2fde38b14610884578063fa3993c2146108a4578063fdcadf81146108c457600080fd5b806397f34c3f146107a0578063aaa68777146107c0578063b926be2a146107e0578063ba1ee7cf146107ff578063bdb4b84814610807578063c6c484dd1461081d57600080fd5b80637420aa36116101135780637420aa36146106c157806378f4768b146106e15780638214f2221461070157806384c38c8b146107215780638da5cb5b14610741578063951fc3fe1461075f57600080fd5b806364db84bf1461060b5780636963c5681461062b5780636d6ba7561461064b578063705498dc1461066b578063715018a61461068b578063733882b7146106a057600080fd5b806342f03745116101fe578063503932be116101b7578063503932be1461053757806353011696146105575780635dc96967146105775780635ee38b2f146105975780636284ef2c146105bd5780636362fe42146105de57600080fd5b806342f037451461046757806345de18b81461047d578063471a4294146104a2578063471fa53a146104cc5780634810bc59146104e2578063501f97841461051757600080fd5b80631b5ac4b5116102505780631b5ac4b51461039d5780631e1de205146103cb5780631f7b4f30146103e05780633838aed11461040057806339a54a30146104155780633f6becfa1461044857600080fd5b80630364f88c1461029857806303b414e4146102d557806303fc4948146102f5578063149d2f8114610322578063150b7a0214610344578063154fa27a1461037d575b600080fd5b3480156102a457600080fd5b506002546102b8906001600160a01b031681565b6040516001600160a01b0390911681526020015b60405180910390f35b3480156102e157600080fd5b506005546102b8906001600160a01b031681565b34801561030157600080fd5b506103156103103660046124e1565b6108da565b6040516102cc91906125c2565b34801561032e57600080fd5b5061034261033d3660046124e1565b6109f6565b005b34801561035057600080fd5b5061036461035f3660046125e6565b610a74565b6040516001600160e01b031990911681526020016102cc565b34801561038957600080fd5b506003546102b8906001600160a01b031681565b3480156103a957600080fd5b506103bd6103b83660046124e1565b610ab1565b6040519081526020016102cc565b3480156103d757600080fd5b506103bd610ad1565b3480156103ec57600080fd5b506103bd6103fb3660046124e1565b610b3c565b34801561040c57600080fd5b50610342610b98565b34801561042157600080fd5b50600b5461043690600160201b900460ff1681565b60405160ff90911681526020016102cc565b34801561045457600080fd5b50610342610463366004612685565b5050565b34801561047357600080fd5b506103bd600a5481565b34801561048957600080fd5b50600b5461043690670100000000000000900460ff1681565b3480156104ae57600080fd5b50600b546104bc9060ff1681565b60405190151581526020016102cc565b3480156104d857600080fd5b506103bd60095481565b3480156104ee57600080fd5b506105026104fd3660046124e1565b610bda565b6040516102cc999897969594939291906126a7565b34801561052357600080fd5b506103426105323660046124e1565b610ca5565b34801561054357600080fd5b506103bd610552366004612704565b610cc5565b34801561056357600080fd5b50610436610572366004612730565b610cf6565b34801561058357600080fd5b506104bc610592366004612762565b610d33565b3480156105a357600080fd5b50600b546104369068010000000000000000900460ff1681565b3480156105c957600080fd5b50600b54610436906301000000900460ff1681565b3480156105ea57600080fd5b506105fe6105f936600461278e565b610dd0565b6040516102cc91906127ab565b34801561061757600080fd5b506103bd610626366004612685565b610fcb565b34801561063757600080fd5b50600b546104369062010000900460ff1681565b34801561065757600080fd5b506103426106663660046124e1565b610fe3565b34801561067757600080fd5b506004546102b8906001600160a01b031681565b34801561069757600080fd5b50610342611085565b3480156106ac57600080fd5b50600b5461043690600160301b900460ff1681565b3480156106cd57600080fd5b506103426106dc3660046127fa565b611099565b3480156106ed57600080fd5b506006546102b8906001600160a01b031681565b34801561070d57600080fd5b506103bd61071c3660046124e1565b6110b4565b34801561072d57600080fd5b5061034261073c3660046124e1565b61112e565b34801561074d57600080fd5b506000546001600160a01b03166102b8565b34801561076b57600080fd5b5061077f61077a3660046128b4565b61114e565b60408051825160ff90811682526020938401511692810192909252016102cc565b3480156107ac57600080fd5b506104366107bb366004612762565b611278565b3480156107cc57600080fd5b506103426107db3660046128e1565b6112a3565b3480156107ec57600080fd5b50600b5461043690610100900460ff1681565b6103426112fb565b34801561081357600080fd5b506103bd60085481565b61034261082b3660046124e1565b611970565b34801561083c57600080fd5b50600b5461043690600160281b900460ff1681565b34801561085d57600080fd5b5061043661086c36600461293d565b611c9c565b61034261087f3660046124e1565b611d3d565b34801561089057600080fd5b5061034261089f36600461278e565b612038565b3480156108b057600080fd5b506103bd6108bf366004612967565b6120ae565b3480156108d057600080fd5b506103bd60075481565b6108e261245f565b600c82815481106108f5576108f5612993565b600091825260208083206040805161012081018252600590940290910180548452600181015484840152600281015484830152815160e08082018452600383015480880b8352610100808204890b9684019690965262010000808204890b958401959095526301000000808204890b606085810191909152600160201b8084048b0b608080880191909152600160281b85048c0b60a080890191909152600160301b909504909b0b60c080880191909152918a019590955260049095015460ff8082169a8a019a909a528781048a16928901929092529481048816938701939093529282048616928501929092520490921615159181019190915292915050565b600c8181548110610a0957610a09612993565b6000918252602090912060059091020160040154600160201b900460ff1615610a685760405162461bcd60e51b815260206004820152600c60248201526b4368617220696e2067616d6560a01b60448201526064015b60405180910390fd5b610a7181612176565b50565b6040516000907f544c765b33ca411cce832250371569244f765a17fcd217832be093f0fd5fa45b908290a150630a85bd0160e11b95945050505050565b600080821215610ac957610ac4826129bf565b610acb565b815b92915050565b6001805460009182610ae2836129db565b91905055506001544233604051602001610b2193929190928352602083019190915260601b6bffffffffffffffffffffffff1916604082015260540190565b60405160208183030381529060405280519060200120905090565b600080610b4b60016006611c9c565b60ff1690507ffe34d093a460a16ee5fb374540914d1c734a17502c0c1a87b387c8d6097e1c518382604051610b8a929190918252602082015260400190565b60405180910390a192915050565b610ba06122ac565b600080546040516001600160a01b03909116914780156108fc02929091818181858888f19350505050158015610a71573d6000803e3d6000fd5b600c8181548110610bea57600080fd5b6000918252602080832060059092029091018054600182015460028301546040805160e081018252600386015480890b82526101008082048a0b98830198909852620100008082048a0b9383019390935263010000008082048a0b6060840152600160201b8083048b0b6080850152600160281b83048b0b60a0850152600160301b90920490990b60c083015260049096015494985092969195929460ff808616959485048116949283048116938304811692919091041689565b610cad6122ac565b610cbf81670de0b6b3a76400006129f4565b60085550565b600d6020528160005260406000208181548110610ce157600080fd5b90600052602060002001600091509150505481565b600080610d038686612a0b565b9050600083610d1286846129f4565b610d1c9190612a34565b9050610d288782612a48565b979650505050505050565b600080610d3f85610b3c565b6040805187815260208101839052908101869052606081018590529091507f75b6a8325595f91135e07382840634226793c68c9e59623da7e10d7ad3d95b959060800160405180910390a180600103610d9c576000915050610dc9565b600383610da98684612a48565b610db39190612a5b565b1315610dc3576001915050610dc9565b60009150505b9392505050565b6001600160a01b0381166000908152600d60205260408120546060918167ffffffffffffffff811115610e0557610e0561281c565b604051908082528060200260200182016040528015610e3e57816020015b610e2b61245f565b815260200190600190039081610e235790505b50905060005b8151811015610fc3576001600160a01b0385166000908152600d602052604090208054600c919083908110610e7b57610e7b612993565b906000526020600020015481548110610e9657610e96612993565b600091825260208083206040805161012081018252600590940290910180548452600181015484840152600281015484830152815160e08082018452600383015480880b8352610100808204890b9684019690965262010000808204890b958401959095526301000000808204890b606085810191909152600160201b8084048b0b608080880191909152600160281b85048c0b60a080890191909152600160301b909504909b0b60c080880191909152918a019590955260049095015460ff8082169a8a019a909a528781048a1692890192909252948104881693870193909352928204861692850192909252049092161515918101919091528251839083908110610fa557610fa5612993565b60200260200101819052508080610fbb906129db565b915050610e44565b509392505050565b600081610fd98460046129f4565b610dc99190612a48565b6005546001600160a01b031633146110355760405162461bcd60e51b815260206004820152601560248201527413db9b1e481c1b185e595c9cc818dbdb9d1c9858dd605a1b6044820152606401610a5f565b600c818154811061104857611048612993565b600091825260208220600460059092020101805460ff169161106983612a82565b91906101000a81548160ff021916908360ff1602179055505050565b61108d6122ac565b6110976000612306565b565b6110a16122ac565b600b805460ff1916911515919091179055565b6000816000036110c657506001919050565b816001036110d657506000919050565b816002036110e657506003919050565b816003036110f657506002919050565b60405162461bcd60e51b815260206004820152600d60248201526c2130b2103234b932b1ba34b7b760991b6044820152606401610a5f565b6111366122ac565b61114881670de0b6b3a76400006129f4565b60075550565b6040805180820190915260008082526020820152826000036111a0576040518060400160405280600184600001516111869190612aa1565b60ff168152602001836020015160ff168152509050610acb565b826001036111c4576040518060400160405280836000015160016111869190612aba565b82600203611201576040518060400160405280836000015160ff168152602001836020015160016111f59190612aba565b60ff1690529050610acb565b82600303611232576040518060400160405280836000015160ff168152602001600184602001516111f59190612aa1565b600061123d84612356565b60405160200161124d9190612af7565b60405160208183030381529060405290508060405162461bcd60e51b8152600401610a5f9190612b32565b600080826001611289866002612c49565b6112939190612a0b565b901b8516831c9150509392505050565b6112ab6122ac565b600280546001600160a01b039586166001600160a01b0319918216179091556003805494861694821694909417909355600480549285169284169290921790915560058054919093169116179055565b6000546001600160a01b0316331480611315575060085434145b6113315760405162461bcd60e51b8152600401610a5f90612c55565b6000546001600160a01b03163314806113515750600b5460ff1615156001145b6113955760405162461bcd60e51b81526020600482015260156024820152744d696e74696e67206973206e6f742061637469766560581b6044820152606401610a5f565b600480546009546040516309b6507f60e41b81526000938101849052602481018490523360448201526001600160a01b0390921691639b6507f0919060640160206040518083038185885af11580156113f2573d6000803e3d6000fd5b50505050506040513d601f19601f820116820180604052508101906114179190612c80565b60048054604051632851838160e01b81529182018390529192506000916001600160a01b031690632851838190602401602060405180830381865afa158015611464573d6000803e3d6000fd5b505050506040513d601f19601f820116820180604052508101906114889190612c80565b9050600c604051806101200160405280838152602001600c8054905081526020018481526020016040518060e001604052806114fa6002600b60019054906101000a900460ff1660016114db9190612aba565b60ff166114f08960046107bb600c6001610fcb565b60ff16600f610cf6565b60000b81526020016115386003600b60029054906101000a900460ff1660016115239190612aba565b60ff166114f08960046107bb600a6002610fcb565b60000b81526020016115766002600b60039054906101000a900460ff1660016115619190612aba565b60ff166114f08960046107bb600c6000610fcb565b60000b81526020016115b46002600b60049054906101000a900460ff16600161159f9190612aba565b60ff166114f08960046107bb600d6000610fcb565b60000b81526020016115f26002600b60059054906101000a900460ff1660016115dd9190612aba565b60ff166114f08960046107bb600a6001610fcb565b60000b81526020016116306002600b60069054906101000a900460ff16600161161b9190612aba565b60ff166114f08960046107bb600b6000610fcb565b60000b815260200161166e6002600b60079054906101000a900460ff1660016116599190612aba565b60ff166114f08960046107bb600a6000610fcb565b60000b8152508152602001600060ff1681526020016116b76000600b60089054906101000a900460ff1660ff166116ad8760086107bb60036000610fcb565b60ff1660ff610cf6565b60ff1681526020016116e96000600b60099054906101000a900460ff1660ff166116ad8760086107bb60086000610fcb565b60ff16815260200161171b6000600b600a9054906101000a900460ff1660ff166116ad8760086107bb60086002610fcb565b60ff16815260200160001515815250908060018154018082558091505060019003906000526020600020906005020160009091909190915060008201518160000155602082015181600101556040820151816002015560608201518160030160008201518160000160006101000a81548160ff021916908360000b60ff16021790555060208201518160000160016101000a81548160ff021916908360000b60ff16021790555060408201518160000160026101000a81548160ff021916908360000b60ff16021790555060608201518160000160036101000a81548160ff021916908360000b60ff16021790555060808201518160000160046101000a81548160ff021916908360000b60ff16021790555060a08201518160000160056101000a81548160ff021916908360000b60ff16021790555060c08201518160000160066101000a81548160ff021916908360000b60ff160217905550505060808201518160040160006101000a81548160ff021916908360ff16021790555060a08201518160040160016101000a81548160ff021916908360ff16021790555060c08201518160040160026101000a81548160ff021916908360ff16021790555060e08201518160040160036101000a81548160ff021916908360ff1602179055506101008201518160040160046101000a81548160ff0219169083151502179055505050600d6000336001600160a01b03166001600160a01b031681526020019081526020016000206001600c805490506119569190612a0b565b815460018101835560009283526020909220909101555050565b600454600c80546001600160a01b03909216916395a81d4e91908490811061199a5761199a612993565b9060005260206000209060050201600201546040518263ffffffff1660e01b81526004016119ca91815260200190565b602060405180830381865afa1580156119e7573d6000803e3d6000fd5b505050506040513d601f19601f82011682018060405250810190611a0b9190612c99565b6001600160a01b0316336001600160a01b031614611a605760405162461bcd60e51b81526020600482015260126024820152712737ba103cb7bab91031b430b930b1ba32b960711b6044820152606401610a5f565b6000546001600160a01b0316331480611a7a575060075434145b611a965760405162461bcd60e51b8152600401610a5f90612c55565b600c8181548110611aa957611aa9612993565b6000918252602090912060059091020160040154600160201b900460ff1615611b065760405162461bcd60e51b815260206004820152600f60248201526e416c726561647920696e2067616d6560881b6044820152606401610a5f565b600454600c80546001600160a01b0390921691636352211e919084908110611b3057611b30612993565b9060005260206000209060050201600201546040518263ffffffff1660e01b8152600401611b6091815260200190565b602060405180830381865afa158015611b7d573d6000803e3d6000fd5b505050506040513d601f19601f82011682018060405250810190611ba19190612c99565b6001600160a01b0316306001600160a01b031614611bf25760405162461bcd60e51b815260206004820152600e60248201526d155252481b9bdd081b1bd859195960921b6044820152606401610a5f565b6001600c8281548110611c0757611c07612993565b60009182526020909120600460059092020181018054921515600160201b0264ff00000000199093169290921790915560025460405163237c201b60e01b81529182018390523360248301526001600160a01b03169063237c201b906044015b600060405180830381600087803b158015611c8157600080fd5b505af1158015611c95573d6000803e3d6000fd5b5050505050565b6001805460009182611cad836129db565b90915550506001546040516bffffffffffffffffffffffff193360601b166020820152603481019190915242605482015260009060740160408051601f19818403018152919052805160209091012090506000611d0a8585612aa1565b611d15906001612aba565b90508460ff168160ff1683611d2a9190612cb6565b611d349190612a48565b95945050505050565b600454600c80546001600160a01b03909216916395a81d4e919084908110611d6757611d67612993565b9060005260206000209060050201600201546040518263ffffffff1660e01b8152600401611d9791815260200190565b602060405180830381865afa158015611db4573d6000803e3d6000fd5b505050506040513d601f19601f82011682018060405250810190611dd89190612c99565b6001600160a01b0316336001600160a01b031614611e2d5760405162461bcd60e51b81526020600482015260126024820152712737ba103cb7bab91031b430b930b1ba32b960711b6044820152606401610a5f565b6000546001600160a01b0316331480611e475750600a5434145b611e635760405162461bcd60e51b8152600401610a5f90612c55565b600c8181548110611e7657611e76612993565b6000918252602090912060059091020160040154600160201b900460ff1615611ed35760405162461bcd60e51b815260206004820152600f60248201526e416c726561647920696e2067616d6560881b6044820152606401610a5f565b600454600c80546001600160a01b0390921691636352211e919084908110611efd57611efd612993565b9060005260206000209060050201600201546040518263ffffffff1660e01b8152600401611f2d91815260200190565b602060405180830381865afa158015611f4a573d6000803e3d6000fd5b505050506040513d601f19601f82011682018060405250810190611f6e9190612c99565b6001600160a01b0316306001600160a01b031614611fbf5760405162461bcd60e51b815260206004820152600e60248201526d155252481b9bdd081b1bd859195960921b6044820152606401610a5f565b6001600c8281548110611fd457611fd4612993565b60009182526020909120600460059092020181018054921515600160201b0264ff000000001990931692909217909155600254604051635383eb1960e11b81529182018390523360248301526001600160a01b03169063a707d63290604401611c67565b6120406122ac565b6001600160a01b0381166120a55760405162461bcd60e51b815260206004820152602660248201527f4f776e61626c653a206e6577206f776e657220697320746865207a65726f206160448201526564647265737360d01b6064820152608401610a5f565b610a7181612306565b805182516000916120be91612cca565b60000b6001036120d057506000610acb565b815183516120de9190612cca565b60000b196120ee57506001610acb565b816020015183602001516121029190612cca565b60000b1961211257506002610acb565b816020015183602001516121269190612cca565b60000b60010361213857506003610acb565b60405162461bcd60e51b8152602060048201526013602482015272115c9c9bdc8e88139bdd0818591a9858d95b9d606a1b6044820152606401610a5f565b60048054604051634ad40ea760e11b81529182018390526001600160a01b0316906395a81d4e90602401602060405180830381865afa1580156121bd573d6000803e3d6000fd5b505050506040513d601f19601f820116820180604052508101906121e19190612c99565b6001600160a01b0316336001600160a01b0316146122305760405162461bcd60e51b815260206004820152600c60248201526b4e6f7420796f75722075696960a01b6044820152606401610a5f565b600454600c80546001600160a01b03909216916342842e0e9130913391908690811061225e5761225e612993565b60009182526020909120600260059092020101546040516001600160e01b031960e086901b1681526001600160a01b0393841660048201529290911660248301526044820152606401611c67565b6000546001600160a01b031633146110975760405162461bcd60e51b815260206004820181905260248201527f4f776e61626c653a2063616c6c6572206973206e6f7420746865206f776e65726044820152606401610a5f565b600080546001600160a01b038381166001600160a01b0319831681178455604051919092169283917f8be0079c531659141344cd1fd0a4f28419497f9722a3daafe3b4186f6b6457e09190a35050565b60608160000361237d5750506040805180820190915260018152600360fc1b602082015290565b8160005b81156123a75780612391816129db565b91506123a09050600a83612a34565b9150612381565b60008167ffffffffffffffff8111156123c2576123c261281c565b6040519080825280601f01601f1916602001820160405280156123ec576020820181803683370190505b5090505b841561245757612401600183612a0b565b915061240e600a86612cb6565b612419906030612a48565b60f81b81838151811061242e5761242e612993565b60200101906001600160f81b031916908160001a905350612450600a86612a34565b94506123f0565b949350505050565b604080516101208101825260008082526020808301829052828401829052835160e08101855282815290810182905292830181905260608381018290526080840182905260a0840182905260c0840191909152909190820190815260006020820181905260408201819052606082018190526080820181905260a09091015290565b6000602082840312156124f357600080fd5b5035919050565b8051600081810b84526020830151810b60208501526040830151810b60408501526060830151810b60608501526080830151810b608085015260a0830151810b60a085015260c0830151810b60c085015250505050565b805182526020810151602083015260408101516040830152606081015161257b60608401826124fa565b50608081015160ff90811661014084015260a0820151811661016084015260c0820151811661018084015260e0820151166101a0830152610100015115156101c090910152565b6101e08101610acb8284612551565b6001600160a01b0381168114610a7157600080fd5b6000806000806000608086880312156125fe57600080fd5b8535612609816125d1565b94506020860135612619816125d1565b935060408601359250606086013567ffffffffffffffff8082111561263d57600080fd5b818801915088601f83011261265157600080fd5b81358181111561266057600080fd5b89602082850101111561267257600080fd5b9699959850939650602001949392505050565b6000806040838503121561269857600080fd5b50508035926020909101359150565b89815260208101899052604081018890526101e081016126ca60608301896124fa565b60ff96871661014083015294861661016082015292851661018084015293166101a08201529115156101c090920191909152949350505050565b6000806040838503121561271757600080fd5b8235612722816125d1565b946020939093013593505050565b6000806000806080858703121561274657600080fd5b5050823594602084013594506040840135936060013592509050565b60008060006060848603121561277757600080fd5b505081359360208301359350604090920135919050565b6000602082840312156127a057600080fd5b8135610dc9816125d1565b6020808252825182820181905260009190848201906040850190845b818110156127ee576127da838551612551565b928401926101e092909201916001016127c7565b50909695505050505050565b60006020828403121561280c57600080fd5b81358015158114610dc957600080fd5b634e487b7160e01b600052604160045260246000fd5b803560ff8116811461284357600080fd5b919050565b60006040828403121561285a57600080fd5b6040516040810181811067ffffffffffffffff8211171561288b57634e487b7160e01b600052604160045260246000fd5b60405290508061289a83612832565b81526128a860208401612832565b60208201525092915050565b600080606083850312156128c757600080fd5b823591506128d88460208501612848565b90509250929050565b600080600080608085870312156128f757600080fd5b8435612902816125d1565b93506020850135612912816125d1565b92506040850135612922816125d1565b91506060850135612932816125d1565b939692955090935050565b6000806040838503121561295057600080fd5b61295983612832565b91506128d860208401612832565b6000806080838503121561297a57600080fd5b6129848484612848565b91506128d88460408501612848565b634e487b7160e01b600052603260045260246000fd5b634e487b7160e01b600052601160045260246000fd5b6000600160ff1b82016129d4576129d46129a9565b5060000390565b6000600182016129ed576129ed6129a9565b5060010190565b8082028115828204841417610acb57610acb6129a9565b81810381811115610acb57610acb6129a9565b634e487b7160e01b600052601260045260246000fd5b600082612a4357612a43612a1e565b500490565b80820180821115610acb57610acb6129a9565b8181036000831280158383131683831282161715612a7b57612a7b6129a9565b5092915050565b600060ff821660ff8103612a9857612a986129a9565b60010192915050565b60ff8281168282160390811115610acb57610acb6129a9565b60ff8181168382160190811115610acb57610acb6129a9565b60005b83811015612aee578181015183820152602001612ad6565b50506000910152565b72024b73b30b634b2103234b932b1ba34b7b71d1606d1b815260008251612b25816013850160208701612ad3565b9190910160130192915050565b6020815260008251806020840152612b51816040850160208701612ad3565b601f01601f19169190910160400192915050565b600181815b80851115612ba0578160001904821115612b8657612b866129a9565b80851615612b9357918102915b93841c9390800290612b6a565b509250929050565b600082612bb757506001610acb565b81612bc457506000610acb565b8160018114612bda5760028114612be457612c00565b6001915050610acb565b60ff841115612bf557612bf56129a9565b50506001821b610acb565b5060208310610133831016604e8410600b8410161715612c23575081810a610acb565b612c2d8383612b65565b8060001904821115612c4157612c416129a9565b029392505050565b6000610dc98383612ba8565b602080825260119082015270125b98dbdc9c9958dd081c185e5b595b9d607a1b604082015260600190565b600060208284031215612c9257600080fd5b5051919050565b600060208284031215612cab57600080fd5b8151610dc9816125d1565b600082612cc557612cc5612a1e565b500690565b600082810b9082900b03607f198112607f82131715610acb57610acb6129a956fea2646970667358221220b5fc942a5c7acb8c1a1793902b72b8e8cdf8ceb8ee9a5fc48de4302cca20299764736f6c63430008110033",
  "devdoc": {
    "kind": "dev",
    "methods": {
      "owner()": {
        "details": "Returns the address of the current owner."
      },
      "renounceOwnership()": {
        "details": "Leaves the contract without owner. It will not be possible to call `onlyOwner` functions anymore. Can only be called by the current owner. NOTE: Renouncing ownership will leave the contract without an owner, thereby removing any functionality that is only available to the owner."
      },
      "transferOwnership(address)": {
        "details": "Transfers ownership of the contract to a new account (`newOwner`). Can only be called by the current owner."
      }
    },
    "version": 1
  },
  "userdoc": {
    "kind": "user",
    "methods": {},
    "version": 1
  },
  "storageLayout": {
    "storage": [
      {
        "astId": 7,
        "contract": "contracts/BCChars.sol:BCChars",
        "label": "_owner",
        "offset": 0,
        "slot": "0",
        "type": "t_address"
      },
      {
        "astId": 12553,
        "contract": "contracts/BCChars.sol:BCChars",
        "label": "TODO_randomSeed",
        "offset": 0,
        "slot": "1",
        "type": "t_uint256"
      },
      {
        "astId": 2951,
        "contract": "contracts/BCChars.sol:BCChars",
        "label": "lobbies",
        "offset": 0,
        "slot": "2",
        "type": "t_contract(LobbyInterface)2901"
      },
      {
        "astId": 2953,
        "contract": "contracts/BCChars.sol:BCChars",
        "label": "gamesContract",
        "offset": 0,
        "slot": "3",
        "type": "t_address"
      },
      {
        "astId": 2956,
        "contract": "contracts/BCChars.sol:BCChars",
        "label": "uif",
        "offset": 0,
        "slot": "4",
        "type": "t_contract(UIFInterface)2942"
      },
      {
        "astId": 2958,
        "contract": "contracts/BCChars.sol:BCChars",
        "label": "playersAddress",
        "offset": 0,
        "slot": "5",
        "type": "t_address"
      },
      {
        "astId": 2960,
        "contract": "contracts/BCChars.sol:BCChars",
        "label": "debugAllowedUser",
        "offset": 0,
        "slot": "6",
        "type": "t_address"
      },
      {
        "astId": 3001,
        "contract": "contracts/BCChars.sol:BCChars",
        "label": "enlistCost",
        "offset": 0,
        "slot": "7",
        "type": "t_uint256"
      },
      {
        "astId": 3008,
        "contract": "contracts/BCChars.sol:BCChars",
        "label": "mintCost",
        "offset": 0,
        "slot": "8",
        "type": "t_uint256"
      },
      {
        "astId": 3011,
        "contract": "contracts/BCChars.sol:BCChars",
        "label": "uifCost",
        "offset": 0,
        "slot": "9",
        "type": "t_uint256"
      },
      {
        "astId": 3016,
        "contract": "contracts/BCChars.sol:BCChars",
        "label": "soloCost",
        "offset": 0,
        "slot": "10",
        "type": "t_uint256"
      },
      {
        "astId": 3019,
        "contract": "contracts/BCChars.sol:BCChars",
        "label": "mintIsActive",
        "offset": 0,
        "slot": "11",
        "type": "t_bool"
      },
      {
        "astId": 3022,
        "contract": "contracts/BCChars.sol:BCChars",
        "label": "healthCap",
        "offset": 1,
        "slot": "11",
        "type": "t_uint8"
      },
      {
        "astId": 3025,
        "contract": "contracts/BCChars.sol:BCChars",
        "label": "carryCap",
        "offset": 2,
        "slot": "11",
        "type": "t_uint8"
      },
      {
        "astId": 3028,
        "contract": "contracts/BCChars.sol:BCChars",
        "label": "defenseCap",
        "offset": 3,
        "slot": "11",
        "type": "t_uint8"
      },
      {
        "astId": 3031,
        "contract": "contracts/BCChars.sol:BCChars",
        "label": "hackCap",
        "offset": 4,
        "slot": "11",
        "type": "t_uint8"
      },
      {
        "astId": 3034,
        "contract": "contracts/BCChars.sol:BCChars",
        "label": "breachCap",
        "offset": 5,
        "slot": "11",
        "type": "t_uint8"
      },
      {
        "astId": 3037,
        "contract": "contracts/BCChars.sol:BCChars",
        "label": "shootCap",
        "offset": 6,
        "slot": "11",
        "type": "t_uint8"
      },
      {
        "astId": 3040,
        "contract": "contracts/BCChars.sol:BCChars",
        "label": "meleeCap",
        "offset": 7,
        "slot": "11",
        "type": "t_uint8"
      },
      {
        "astId": 3043,
        "contract": "contracts/BCChars.sol:BCChars",
        "label": "maxClonesCap",
        "offset": 8,
        "slot": "11",
        "type": "t_uint8"
      },
      {
        "astId": 3046,
        "contract": "contracts/BCChars.sol:BCChars",
        "label": "abilityCap",
        "offset": 9,
        "slot": "11",
        "type": "t_uint8"
      },
      {
        "astId": 3049,
        "contract": "contracts/BCChars.sol:BCChars",
        "label": "flawCap",
        "offset": 10,
        "slot": "11",
        "type": "t_uint8"
      },
      {
        "astId": 3053,
        "contract": "contracts/BCChars.sol:BCChars",
        "label": "characters",
        "offset": 0,
        "slot": "12",
        "type": "t_array(t_struct(Character)12489_storage)dyn_storage"
      },
      {
        "astId": 3058,
        "contract": "contracts/BCChars.sol:BCChars",
        "label": "charsOwned",
        "offset": 0,
        "slot": "13",
        "type": "t_mapping(t_address,t_array(t_uint256)dyn_storage)"
      }
    ],
    "types": {
      "t_address": {
        "encoding": "inplace",
        "label": "address",
        "numberOfBytes": "20"
      },
      "t_array(t_struct(Character)12489_storage)dyn_storage": {
        "base": "t_struct(Character)12489_storage",
        "encoding": "dynamic_array",
        "label": "struct BCTypes.Character[]",
        "numberOfBytes": "32"
      },
      "t_array(t_uint256)dyn_storage": {
        "base": "t_uint256",
        "encoding": "dynamic_array",
        "label": "uint256[]",
        "numberOfBytes": "32"
      },
      "t_bool": {
        "encoding": "inplace",
        "label": "bool",
        "numberOfBytes": "1"
      },
      "t_bytes32": {
        "encoding": "inplace",
        "label": "bytes32",
        "numberOfBytes": "32"
      },
      "t_contract(LobbyInterface)2901": {
        "encoding": "inplace",
        "label": "contract LobbyInterface",
        "numberOfBytes": "20"
      },
      "t_contract(UIFInterface)2942": {
        "encoding": "inplace",
        "label": "contract UIFInterface",
        "numberOfBytes": "20"
      },
      "t_int8": {
        "encoding": "inplace",
        "label": "int8",
        "numberOfBytes": "1"
      },
      "t_mapping(t_address,t_array(t_uint256)dyn_storage)": {
        "encoding": "mapping",
        "key": "t_address",
        "label": "mapping(address => uint256[])",
        "numberOfBytes": "32",
        "value": "t_array(t_uint256)dyn_storage"
      },
      "t_struct(Character)12489_storage": {
        "encoding": "inplace",
        "label": "struct BCTypes.Character",
        "members": [
          {
            "astId": 12471,
            "contract": "contracts/BCChars.sol:BCChars",
            "label": "genHash",
            "offset": 0,
            "slot": "0",
            "type": "t_bytes32"
          },
          {
            "astId": 12473,
            "contract": "contracts/BCChars.sol:BCChars",
            "label": "id",
            "offset": 0,
            "slot": "1",
            "type": "t_uint256"
          },
          {
            "astId": 12475,
            "contract": "contracts/BCChars.sol:BCChars",
            "label": "uifID",
            "offset": 0,
            "slot": "2",
            "type": "t_uint256"
          },
          {
            "astId": 12478,
            "contract": "contracts/BCChars.sol:BCChars",
            "label": "traits",
            "offset": 0,
            "slot": "3",
            "type": "t_struct(Traits)12469_storage"
          },
          {
            "astId": 12480,
            "contract": "contracts/BCChars.sol:BCChars",
            "label": "cloneNumber",
            "offset": 0,
            "slot": "4",
            "type": "t_uint8"
          },
          {
            "astId": 12482,
            "contract": "contracts/BCChars.sol:BCChars",
            "label": "maxClones",
            "offset": 1,
            "slot": "4",
            "type": "t_uint8"
          },
          {
            "astId": 12484,
            "contract": "contracts/BCChars.sol:BCChars",
            "label": "ability",
            "offset": 2,
            "slot": "4",
            "type": "t_uint8"
          },
          {
            "astId": 12486,
            "contract": "contracts/BCChars.sol:BCChars",
            "label": "flaw",
            "offset": 3,
            "slot": "4",
            "type": "t_uint8"
          },
          {
            "astId": 12488,
            "contract": "contracts/BCChars.sol:BCChars",
            "label": "inGame",
            "offset": 4,
            "slot": "4",
            "type": "t_bool"
          }
        ],
        "numberOfBytes": "160"
      },
      "t_struct(Traits)12469_storage": {
        "encoding": "inplace",
        "label": "struct BCTypes.Traits",
        "members": [
          {
            "astId": 12456,
            "contract": "contracts/BCChars.sol:BCChars",
            "label": "health",
            "offset": 0,
            "slot": "0",
            "type": "t_int8"
          },
          {
            "astId": 12458,
            "contract": "contracts/BCChars.sol:BCChars",
            "label": "carry",
            "offset": 1,
            "slot": "0",
            "type": "t_int8"
          },
          {
            "astId": 12460,
            "contract": "contracts/BCChars.sol:BCChars",
            "label": "defense",
            "offset": 2,
            "slot": "0",
            "type": "t_int8"
          },
          {
            "astId": 12462,
            "contract": "contracts/BCChars.sol:BCChars",
            "label": "hack",
            "offset": 3,
            "slot": "0",
            "type": "t_int8"
          },
          {
            "astId": 12464,
            "contract": "contracts/BCChars.sol:BCChars",
            "label": "breach",
            "offset": 4,
            "slot": "0",
            "type": "t_int8"
          },
          {
            "astId": 12466,
            "contract": "contracts/BCChars.sol:BCChars",
            "label": "shoot",
            "offset": 5,
            "slot": "0",
            "type": "t_int8"
          },
          {
            "astId": 12468,
            "contract": "contracts/BCChars.sol:BCChars",
            "label": "melee",
            "offset": 6,
            "slot": "0",
            "type": "t_int8"
          }
        ],
        "numberOfBytes": "32"
      },
      "t_uint256": {
        "encoding": "inplace",
        "label": "uint256",
        "numberOfBytes": "32"
      },
      "t_uint8": {
        "encoding": "inplace",
        "label": "uint8",
        "numberOfBytes": "1"
      }
    }
  }
}