{
  "address": "0x341177CA25Da3d7B817802D47020AB9422CCc17C",
  "abi": [
    {
      "anonymous": false,
      "inputs": [
        {
          "indexed": false,
          "internalType": "uint256",
          "name": "gameId",
          "type": "uint256"
        },
        {
          "indexed": false,
          "internalType": "uint256",
          "name": "roll",
          "type": "uint256"
        },
        {
          "indexed": false,
          "internalType": "uint256",
          "name": "forValue",
          "type": "uint256"
        },
        {
          "indexed": false,
          "internalType": "uint256",
          "name": "against",
          "type": "uint256"
        }
      ],
      "name": "ChallengeEvent",
      "type": "event"
    },
    {
      "anonymous": false,
      "inputs": [
        {
          "indexed": false,
          "internalType": "uint256",
          "name": "gameId",
          "type": "uint256"
        },
        {
          "indexed": false,
          "internalType": "uint256",
          "name": "roll",
          "type": "uint256"
        }
      ],
      "name": "DiceRollEvent",
      "type": "event"
    },
    {
      "anonymous": false,
      "inputs": [
        {
          "indexed": true,
          "internalType": "address",
          "name": "previousOwner",
          "type": "address"
        },
        {
          "indexed": true,
          "internalType": "address",
          "name": "newOwner",
          "type": "address"
        }
      ],
      "name": "OwnershipTransferred",
      "type": "event"
    },
    {
      "anonymous": false,
      "inputs": [],
      "name": "Received",
      "type": "event"
    },
    {
      "inputs": [
        {
          "internalType": "uint256",
          "name": "_matic",
          "type": "uint256"
        }
      ],
      "name": "SetEnlistCostInMatic",
      "outputs": [],
      "stateMutability": "nonpayable",
      "type": "function"
    },
    {
      "inputs": [
        {
          "internalType": "uint256",
          "name": "_matic",
          "type": "uint256"
        }
      ],
      "name": "SetMintCostInMatic",
      "outputs": [],
      "stateMutability": "nonpayable",
      "type": "function"
    },
    {
      "inputs": [
        {
          "internalType": "int256",
          "name": "x",
          "type": "int256"
        }
      ],
      "name": "abs",
      "outputs": [
        {
          "internalType": "int256",
          "name": "",
          "type": "int256"
        }
      ],
      "stateMutability": "pure",
      "type": "function"
    },
    {
      "inputs": [],
      "name": "breachCap",
      "outputs": [
        {
          "internalType": "uint8",
          "name": "",
          "type": "uint8"
        }
      ],
      "stateMutability": "view",
      "type": "function"
    },
    {
      "inputs": [],
      "name": "carryCap",
      "outputs": [
        {
          "internalType": "uint8",
          "name": "",
          "type": "uint8"
        }
      ],
      "stateMutability": "view",
      "type": "function"
    },
    {
      "inputs": [
        {
          "internalType": "uint256",
          "name": "",
          "type": "uint256"
        }
      ],
      "name": "characters",
      "outputs": [
        {
          "internalType": "bytes32",
          "name": "genHash",
          "type": "bytes32"
        },
        {
          "internalType": "uint256",
          "name": "id",
          "type": "uint256"
        },
        {
          "internalType": "uint256",
          "name": "uifID",
          "type": "uint256"
        },
        {
          "components": [
            {
              "internalType": "int8",
              "name": "health",
              "type": "int8"
            },
            {
              "internalType": "int8",
              "name": "carry",
              "type": "int8"
            },
            {
              "internalType": "int8",
              "name": "defense",
              "type": "int8"
            },
            {
              "internalType": "int8",
              "name": "hack",
              "type": "int8"
            },
            {
              "internalType": "int8",
              "name": "breach",
              "type": "int8"
            },
            {
              "internalType": "int8",
              "name": "shoot",
              "type": "int8"
            },
            {
              "internalType": "int8",
              "name": "melee",
              "type": "int8"
            }
          ],
          "internalType": "struct BCTypes.Traits",
          "name": "traits",
          "type": "tuple"
        },
        {
          "internalType": "uint8",
          "name": "cloneNumber",
          "type": "uint8"
        },
        {
          "internalType": "uint8",
          "name": "maxClones",
          "type": "uint8"
        },
        {
          "internalType": "uint8",
          "name": "ability",
          "type": "uint8"
        },
        {
          "internalType": "uint8",
          "name": "flaw",
          "type": "uint8"
        },
        {
          "internalType": "bool",
          "name": "inGame",
          "type": "bool"
        }
      ],
      "stateMutability": "view",
      "type": "function"
    },
    {
      "inputs": [
        {
          "internalType": "address",
          "name": "",
          "type": "address"
        },
        {
          "internalType": "uint256",
          "name": "",
          "type": "uint256"
        }
      ],
      "name": "charsOwned",
      "outputs": [
        {
          "internalType": "uint256",
          "name": "",
          "type": "uint256"
        }
      ],
      "stateMutability": "view",
      "type": "function"
    },
    {
      "inputs": [],
      "name": "debugAllowedUser",
      "outputs": [
        {
          "internalType": "address",
          "name": "",
          "type": "address"
        }
      ],
      "stateMutability": "view",
      "type": "function"
    },
    {
      "inputs": [
        {
          "internalType": "uint256",
          "name": "_charId",
          "type": "uint256"
        },
        {
          "internalType": "uint256",
          "name": "_debugRoomId",
          "type": "uint256"
        }
      ],
      "name": "debugEnlistChar",
      "outputs": [],
      "stateMutability": "payable",
      "type": "function"
    },
    {
      "inputs": [],
      "name": "decantNewClone",
      "outputs": [],
      "stateMutability": "payable",
      "type": "function"
    },
    {
      "inputs": [],
      "name": "defenseCap",
      "outputs": [
        {
          "internalType": "uint8",
          "name": "",
          "type": "uint8"
        }
      ],
      "stateMutability": "view",
      "type": "function"
    },
    {
      "inputs": [
        {
          "internalType": "uint256",
          "name": "_charId",
          "type": "uint256"
        }
      ],
      "name": "enlistChar",
      "outputs": [],
      "stateMutability": "payable",
      "type": "function"
    },
    {
      "inputs": [],
      "name": "enlistCost",
      "outputs": [
        {
          "internalType": "uint256",
          "name": "",
          "type": "uint256"
        }
      ],
      "stateMutability": "view",
      "type": "function"
    },
    {
      "inputs": [
        {
          "internalType": "uint256",
          "name": "_charId",
          "type": "uint256"
        }
      ],
      "name": "enlistSolo",
      "outputs": [],
      "stateMutability": "payable",
      "type": "function"
    },
    {
      "inputs": [
        {
          "internalType": "uint256",
          "name": "_charId",
          "type": "uint256"
        }
      ],
      "name": "extGetChar",
      "outputs": [
        {
          "components": [
            {
              "internalType": "bytes32",
              "name": "genHash",
              "type": "bytes32"
            },
            {
              "internalType": "uint256",
              "name": "id",
              "type": "uint256"
            },
            {
              "internalType": "uint256",
              "name": "uifID",
              "type": "uint256"
            },
            {
              "components": [
                {
                  "internalType": "int8",
                  "name": "health",
                  "type": "int8"
                },
                {
                  "internalType": "int8",
                  "name": "carry",
                  "type": "int8"
                },
                {
                  "internalType": "int8",
                  "name": "defense",
                  "type": "int8"
                },
                {
                  "internalType": "int8",
                  "name": "hack",
                  "type": "int8"
                },
                {
                  "internalType": "int8",
                  "name": "breach",
                  "type": "int8"
                },
                {
                  "internalType": "int8",
                  "name": "shoot",
                  "type": "int8"
                },
                {
                  "internalType": "int8",
                  "name": "melee",
                  "type": "int8"
                }
              ],
              "internalType": "struct BCTypes.Traits",
              "name": "traits",
              "type": "tuple"
            },
            {
              "internalType": "uint8",
              "name": "cloneNumber",
              "type": "uint8"
            },
            {
              "internalType": "uint8",
              "name": "maxClones",
              "type": "uint8"
            },
            {
              "internalType": "uint8",
              "name": "ability",
              "type": "uint8"
            },
            {
              "internalType": "uint8",
              "name": "flaw",
              "type": "uint8"
            },
            {
              "internalType": "bool",
              "name": "inGame",
              "type": "bool"
            }
          ],
          "internalType": "struct BCTypes.Character",
          "name": "",
          "type": "tuple"
        }
      ],
      "stateMutability": "view",
      "type": "function"
    },
    {
      "inputs": [],
      "name": "gamesContract",
      "outputs": [
        {
          "internalType": "address",
          "name": "",
          "type": "address"
        }
      ],
      "stateMutability": "view",
      "type": "function"
    },
    {
      "inputs": [
        {
          "internalType": "address",
          "name": "_address",
          "type": "address"
        }
      ],
      "name": "getAllCharsByOwner",
      "outputs": [
        {
          "components": [
            {
              "internalType": "bytes32",
              "name": "genHash",
              "type": "bytes32"
            },
            {
              "internalType": "uint256",
              "name": "id",
              "type": "uint256"
            },
            {
              "internalType": "uint256",
              "name": "uifID",
              "type": "uint256"
            },
            {
              "components": [
                {
                  "internalType": "int8",
                  "name": "health",
                  "type": "int8"
                },
                {
                  "internalType": "int8",
                  "name": "carry",
                  "type": "int8"
                },
                {
                  "internalType": "int8",
                  "name": "defense",
                  "type": "int8"
                },
                {
                  "internalType": "int8",
                  "name": "hack",
                  "type": "int8"
                },
                {
                  "internalType": "int8",
                  "name": "breach",
                  "type": "int8"
                },
                {
                  "internalType": "int8",
                  "name": "shoot",
                  "type": "int8"
                },
                {
                  "internalType": "int8",
                  "name": "melee",
                  "type": "int8"
                }
              ],
              "internalType": "struct BCTypes.Traits",
              "name": "traits",
              "type": "tuple"
            },
            {
              "internalType": "uint8",
              "name": "cloneNumber",
              "type": "uint8"
            },
            {
              "internalType": "uint8",
              "name": "maxClones",
              "type": "uint8"
            },
            {
              "internalType": "uint8",
              "name": "ability",
              "type": "uint8"
            },
            {
              "internalType": "uint8",
              "name": "flaw",
              "type": "uint8"
            },
            {
              "internalType": "bool",
              "name": "inGame",
              "type": "bool"
            }
          ],
          "internalType": "struct BCTypes.Character[]",
          "name": "",
          "type": "tuple[]"
        }
      ],
      "stateMutability": "view",
      "type": "function"
    },
    {
      "inputs": [
        {
          "components": [
            {
              "internalType": "uint8",
              "name": "row",
              "type": "uint8"
            },
            {
              "internalType": "uint8",
              "name": "col",
              "type": "uint8"
            }
          ],
          "internalType": "struct BCTypes.Position",
          "name": "_firstRoom",
          "type": "tuple"
        },
        {
          "components": [
            {
              "internalType": "uint8",
              "name": "row",
              "type": "uint8"
            },
            {
              "internalType": "uint8",
              "name": "col",
              "type": "uint8"
            }
          ],
          "internalType": "struct BCTypes.Position",
          "name": "_secondRoom",
          "type": "tuple"
        }
      ],
      "name": "getDirectionBetween",
      "outputs": [
        {
          "internalType": "uint256",
          "name": "",
          "type": "uint256"
        }
      ],
      "stateMutability": "pure",
      "type": "function"
    },
    {
      "inputs": [
        {
          "internalType": "uint256",
          "name": "_direction",
          "type": "uint256"
        },
        {
          "components": [
            {
              "internalType": "uint8",
              "name": "row",
              "type": "uint8"
            },
            {
              "internalType": "uint8",
              "name": "col",
              "type": "uint8"
            }
          ],
          "internalType": "struct BCTypes.Position",
          "name": "_start",
          "type": "tuple"
        }
      ],
      "name": "getNeighborRoom",
      "outputs": [
        {
          "components": [
            {
              "internalType": "uint8",
              "name": "row",
              "type": "uint8"
            },
            {
              "internalType": "uint8",
              "name": "col",
              "type": "uint8"
            }
          ],
          "internalType": "struct BCTypes.Position",
          "name": "",
          "type": "tuple"
        }
      ],
      "stateMutability": "pure",
      "type": "function"
    },
    {
      "inputs": [
        {
          "internalType": "uint256",
          "name": "_traitNum",
          "type": "uint256"
        },
        {
          "internalType": "uint256",
          "name": "_subTraitNum",
          "type": "uint256"
        }
      ],
      "name": "getUIOffset",
      "outputs": [
        {
          "internalType": "uint256",
          "name": "",
          "type": "uint256"
        }
      ],
      "stateMutability": "pure",
      "type": "function"
    },
    {
      "inputs": [],
      "name": "hackCap",
      "outputs": [
        {
          "internalType": "uint8",
          "name": "",
          "type": "uint8"
        }
      ],
      "stateMutability": "view",
      "type": "function"
    },
    {
      "inputs": [],
      "name": "healthCap",
      "outputs": [
        {
          "internalType": "uint8",
          "name": "",
          "type": "uint8"
        }
      ],
      "stateMutability": "view",
      "type": "function"
    },
    {
      "inputs": [
        {
          "internalType": "uint256",
          "name": "_charId",
          "type": "uint256"
        }
      ],
      "name": "incrementCloneNumber",
      "outputs": [],
      "stateMutability": "nonpayable",
      "type": "function"
    },
    {
      "inputs": [
        {
          "internalType": "uint256",
          "name": "_charId",
          "type": "uint256"
        },
        {
          "internalType": "uint256",
          "name": "_uifID",
          "type": "uint256"
        }
      ],
      "name": "injectCHARUII",
      "outputs": [],
      "stateMutability": "nonpayable",
      "type": "function"
    },
    {
      "inputs": [],
      "name": "lobbies",
      "outputs": [
        {
          "internalType": "contract LobbyInterface",
          "name": "",
          "type": "address"
        }
      ],
      "stateMutability": "view",
      "type": "function"
    },
    {
      "inputs": [],
      "name": "maxClonesCap",
      "outputs": [
        {
          "internalType": "uint8",
          "name": "",
          "type": "uint8"
        }
      ],
      "stateMutability": "view",
      "type": "function"
    },
    {
      "inputs": [],
      "name": "meleeCap",
      "outputs": [
        {
          "internalType": "uint8",
          "name": "",
          "type": "uint8"
        }
      ],
      "stateMutability": "view",
      "type": "function"
    },
    {
      "inputs": [],
      "name": "mintCost",
      "outputs": [
        {
          "internalType": "uint256",
          "name": "",
          "type": "uint256"
        }
      ],
      "stateMutability": "view",
      "type": "function"
    },
    {
      "inputs": [],
      "name": "mintIsActive",
      "outputs": [
        {
          "internalType": "bool",
          "name": "",
          "type": "bool"
        }
      ],
      "stateMutability": "view",
      "type": "function"
    },
    {
      "inputs": [
        {
          "internalType": "uint256",
          "name": "_min",
          "type": "uint256"
        },
        {
          "internalType": "uint256",
          "name": "_max",
          "type": "uint256"
        },
        {
          "internalType": "uint256",
          "name": "_val",
          "type": "uint256"
        },
        {
          "internalType": "uint256",
          "name": "_valMax",
          "type": "uint256"
        }
      ],
      "name": "normalizeToSmallRange",
      "outputs": [
        {
          "internalType": "uint8",
          "name": "",
          "type": "uint8"
        }
      ],
      "stateMutability": "pure",
      "type": "function"
    },
    {
      "inputs": [
        {
          "internalType": "address",
          "name": "_operator",
          "type": "address"
        },
        {
          "internalType": "address",
          "name": "_from",
          "type": "address"
        },
        {
          "internalType": "uint256",
          "name": "_tokenId",
          "type": "uint256"
        },
        {
          "internalType": "bytes",
          "name": "_data",
          "type": "bytes"
        }
      ],
      "name": "onERC721Received",
      "outputs": [
        {
          "internalType": "bytes4",
          "name": "",
          "type": "bytes4"
        }
      ],
      "stateMutability": "nonpayable",
      "type": "function"
    },
    {
      "inputs": [
        {
          "internalType": "uint256",
          "name": "_direction",
          "type": "uint256"
        }
      ],
      "name": "opposite",
      "outputs": [
        {
          "internalType": "uint256",
          "name": "",
          "type": "uint256"
        }
      ],
      "stateMutability": "pure",
      "type": "function"
    },
    {
      "inputs": [],
      "name": "owner",
      "outputs": [
        {
          "internalType": "address",
          "name": "",
          "type": "address"
        }
      ],
      "stateMutability": "view",
      "type": "function"
    },
    {
      "inputs": [],
      "name": "playersAddress",
      "outputs": [
        {
          "internalType": "address",
          "name": "",
          "type": "address"
        }
      ],
      "stateMutability": "view",
      "type": "function"
    },
    {
      "inputs": [],
      "name": "randKeccak",
      "outputs": [
        {
          "internalType": "bytes32",
          "name": "",
          "type": "bytes32"
        }
      ],
      "stateMutability": "nonpayable",
      "type": "function"
    },
    {
      "inputs": [],
      "name": "renounceOwnership",
      "outputs": [],
      "stateMutability": "nonpayable",
      "type": "function"
    },
    {
      "inputs": [
        {
          "internalType": "uint256",
          "name": "_gameId",
          "type": "uint256"
        },
        {
          "internalType": "uint256",
          "name": "_for",
          "type": "uint256"
        },
        {
          "internalType": "uint256",
          "name": "_against",
          "type": "uint256"
        }
      ],
      "name": "resolveChallenge",
      "outputs": [
        {
          "internalType": "bool",
          "name": "",
          "type": "bool"
        }
      ],
      "stateMutability": "nonpayable",
      "type": "function"
    },
    {
      "inputs": [
        {
          "internalType": "uint256",
          "name": "_charId",
          "type": "uint256"
        }
      ],
      "name": "returnChar",
      "outputs": [],
      "stateMutability": "nonpayable",
      "type": "function"
    },
    {
      "inputs": [
        {
          "internalType": "uint256",
          "name": "_gameId",
          "type": "uint256"
        }
      ],
      "name": "roll",
      "outputs": [
        {
          "internalType": "uint256",
          "name": "",
          "type": "uint256"
        }
      ],
      "stateMutability": "nonpayable",
      "type": "function"
    },
    {
      "inputs": [
        {
          "internalType": "address",
          "name": "_lobbyContractAddress",
          "type": "address"
        },
        {
          "internalType": "address",
          "name": "_gameContract",
          "type": "address"
        },
        {
          "internalType": "address",
          "name": "_UIFAddress",
          "type": "address"
        },
        {
          "internalType": "address",
          "name": "_playersAddress",
          "type": "address"
        }
      ],
      "name": "setContractAddresses",
      "outputs": [],
      "stateMutability": "nonpayable",
      "type": "function"
    },
    {
      "inputs": [
        {
          "internalType": "bool",
          "name": "_status",
          "type": "bool"
        }
      ],
      "name": "setMintingStatus",
      "outputs": [],
      "stateMutability": "nonpayable",
      "type": "function"
    },
    {
      "inputs": [],
      "name": "shootCap",
      "outputs": [
        {
          "internalType": "uint8",
          "name": "",
          "type": "uint8"
        }
      ],
      "stateMutability": "view",
      "type": "function"
    },
    {
      "inputs": [
        {
          "internalType": "bytes32",
          "name": "_hash",
          "type": "bytes32"
        },
        {
          "internalType": "uint256",
          "name": "_size",
          "type": "uint256"
        },
        {
          "internalType": "uint256",
          "name": "_offset",
          "type": "uint256"
        }
      ],
      "name": "sliceHashToSmallInt",
      "outputs": [
        {
          "internalType": "uint8",
          "name": "",
          "type": "uint8"
        }
      ],
      "stateMutability": "pure",
      "type": "function"
    },
    {
      "inputs": [
        {
          "internalType": "uint8",
          "name": "_min",
          "type": "uint8"
        },
        {
          "internalType": "uint8",
          "name": "_max",
          "type": "uint8"
        }
      ],
      "name": "smallIntBetweenVals",
      "outputs": [
        {
          "internalType": "uint8",
          "name": "",
          "type": "uint8"
        }
      ],
      "stateMutability": "nonpayable",
      "type": "function"
    },
    {
      "inputs": [],
      "name": "soloCost",
      "outputs": [
        {
          "internalType": "uint256",
          "name": "",
          "type": "uint256"
        }
      ],
      "stateMutability": "view",
      "type": "function"
    },
    {
      "inputs": [],
      "name": "transferFundsOut",
      "outputs": [],
      "stateMutability": "nonpayable",
      "type": "function"
    },
    {
      "inputs": [
        {
          "internalType": "address",
          "name": "newOwner",
          "type": "address"
        }
      ],
      "name": "transferOwnership",
      "outputs": [],
      "stateMutability": "nonpayable",
      "type": "function"
    },
    {
      "inputs": [],
      "name": "uif",
      "outputs": [
        {
          "internalType": "contract UIFInterface",
          "name": "",
          "type": "address"
        }
      ],
      "stateMutability": "view",
      "type": "function"
    },
    {
      "inputs": [],
      "name": "uifCost",
      "outputs": [
        {
          "internalType": "uint256",
          "name": "",
          "type": "uint256"
        }
      ],
      "stateMutability": "view",
      "type": "function"
    }
  ],
  "transactionHash": "0x33a172e7b427b748af881d4328b53f0c9cd993f69eb6ec231848fac1ebe0fae9",
  "args": [],
  "numDeployments": 1,
  "solcInputHash": "3bb9a8bfbba7b0d23e5324b4eda443e4",
  "bytecode": "0x60806040526000600155655af3107a4000600755662386f26fc1000060085564174876e8006009556005600754620000389190620002a7565b600a556001600b60006101000a81548160ff0219169083151502179055506004600b60016101000a81548160ff021916908360ff1602179055506005600b60026101000a81548160ff021916908360ff1602179055506004600b60036101000a81548160ff021916908360ff1602179055506004600b60046101000a81548160ff021916908360ff1602179055506004600b60056101000a81548160ff021916908360ff1602179055506004600b60066101000a81548160ff021916908360ff1602179055506004600b60076101000a81548160ff021916908360ff1602179055506064600b60086101000a81548160ff021916908360ff160217905550600a600b60096101000a81548160ff021916908360ff160217905550600a600b600a6101000a81548160ff021916908360ff1602179055503480156200017b57600080fd5b506200019c62000190620001a260201b60201c565b620001aa60201b60201c565b620002f2565b600033905090565b60008060009054906101000a900473ffffffffffffffffffffffffffffffffffffffff169050816000806101000a81548173ffffffffffffffffffffffffffffffffffffffff021916908373ffffffffffffffffffffffffffffffffffffffff1602179055508173ffffffffffffffffffffffffffffffffffffffff168173ffffffffffffffffffffffffffffffffffffffff167f8be0079c531659141344cd1fd0a4f28419497f9722a3daafe3b4186f6b6457e060405160405180910390a35050565b6000819050919050565b7f4e487b7100000000000000000000000000000000000000000000000000000000600052601160045260246000fd5b6000620002b4826200026e565b9150620002c1836200026e565b9250828202620002d1816200026e565b91508282048414831517620002eb57620002ea62000278565b5b5092915050565b6152fa80620003026000396000f3fe6080604052600436106102ae5760003560e01c806364db84bf1161017557806397f34c3f116100dc578063c6c484dd11610095578063e604c4101161006f578063e604c41014610ad1578063f2fde38b14610aed578063fa3993c214610b16578063fdcadf8114610b53576102ae565b8063c6c484dd14610a4d578063cbfb238814610a69578063ce28613f14610a94576102ae565b806397f34c3f1461096b578063aaa68777146109a8578063afa0e660146109d1578063b926be2a146109ed578063ba1ee7cf14610a18578063bdb4b84814610a22576102ae565b80637420aa361161012e5780637420aa361461084957806378f4768b146108725780638214f2221461089d57806384c38c8b146108da5780638da5cb5b14610903578063951fc3fe1461092e576102ae565b806364db84bf1461074b5780636963c568146107885780636d6ba756146107b3578063705498dc146107dc578063715018a614610807578063733882b71461081e576102ae565b806342f0374511610219578063503932be116101d2578063503932be14610601578063530116961461063e5780635dc969671461067b5780635ee38b2f146106b85780636284ef2c146106e35780636362fe421461070e576102ae565b806342f03745146104e757806345de18b814610512578063471a42941461053d578063471fa53a146105685780634810bc5914610593578063501f9784146105d8576102ae565b80631b5ac4b51161026b5780631b5ac4b5146103d75780631e1de205146104145780631f7b4f301461043f5780633838aed11461047c57806339a54a30146104935780633f6becfa146104be576102ae565b80630364f88c146102b357806303b414e4146102de57806303fc494814610309578063149d2f8114610346578063150b7a021461036f578063154fa27a146103ac575b600080fd5b3480156102bf57600080fd5b506102c8610b7e565b6040516102d59190613778565b60405180910390f35b3480156102ea57600080fd5b506102f3610ba4565b60405161030091906137b4565b60405180910390f35b34801561031557600080fd5b50610330600480360381019061032b9190613819565b610bca565b60405161033d9190613a0a565b60405180910390f35b34801561035257600080fd5b5061036d60048036038101906103689190613819565b610d93565b005b34801561037b57600080fd5b5061039660048036038101906103919190613ab7565b610e18565b6040516103a39190613b7a565b60405180910390f35b3480156103b857600080fd5b506103c1610e59565b6040516103ce91906137b4565b60405180910390f35b3480156103e357600080fd5b506103fe60048036038101906103f99190613bcb565b610e7f565b60405161040b9190613c07565b60405180910390f35b34801561042057600080fd5b50610429610ea1565b6040516104369190613c31565b60405180910390f35b34801561044b57600080fd5b5061046660048036038101906104619190613819565b610eed565b6040516104739190613c5b565b60405180910390f35b34801561048857600080fd5b50610491610f43565b005b34801561049f57600080fd5b506104a8610f9b565b6040516104b59190613c85565b60405180910390f35b3480156104ca57600080fd5b506104e560048036038101906104e09190613ca0565b610fae565b005b3480156104f357600080fd5b506104fc610fb2565b6040516105099190613c5b565b60405180910390f35b34801561051e57600080fd5b50610527610fb8565b6040516105349190613c85565b60405180910390f35b34801561054957600080fd5b50610552610fcb565b60405161055f9190613cef565b60405180910390f35b34801561057457600080fd5b5061057d610fde565b60405161058a9190613c5b565b60405180910390f35b34801561059f57600080fd5b506105ba60048036038101906105b59190613819565b610fe4565b6040516105cf99989796959493929190613d98565b60405180910390f35b3480156105e457600080fd5b506105ff60048036038101906105fa9190613819565b611158565b005b34801561060d57600080fd5b5061062860048036038101906106239190613e29565b61117d565b6040516106359190613c5b565b60405180910390f35b34801561064a57600080fd5b5061066560048036038101906106609190613e69565b6111ae565b6040516106729190613c85565b60405180910390f35b34801561068757600080fd5b506106a2600480360381019061069d9190613ed0565b6111f2565b6040516106af9190613cef565b60405180910390f35b3480156106c457600080fd5b506106cd611285565b6040516106da9190613c85565b60405180910390f35b3480156106ef57600080fd5b506106f8611298565b6040516107059190613c85565b60405180910390f35b34801561071a57600080fd5b5061073560048036038101906107309190613f23565b6112ab565b60405161074291906140bb565b60405180910390f35b34801561075757600080fd5b50610772600480360381019061076d9190613ca0565b6115a9565b60405161077f9190613c5b565b60405180910390f35b34801561079457600080fd5b5061079d6115cb565b6040516107aa9190613c85565b60405180910390f35b3480156107bf57600080fd5b506107da60048036038101906107d59190613819565b6115de565b005b3480156107e857600080fd5b506107f16116cc565b6040516107fe91906140fe565b60405180910390f35b34801561081357600080fd5b5061081c6116f2565b005b34801561082a57600080fd5b50610833611706565b6040516108409190613c85565b60405180910390f35b34801561085557600080fd5b50610870600480360381019061086b9190614145565b611719565b005b34801561087e57600080fd5b5061088761173e565b60405161089491906137b4565b60405180910390f35b3480156108a957600080fd5b506108c460048036038101906108bf9190613819565b611764565b6040516108d19190613c5b565b60405180910390f35b3480156108e657600080fd5b5061090160048036038101906108fc9190613819565b6117e9565b005b34801561090f57600080fd5b5061091861180e565b60405161092591906137b4565b60405180910390f35b34801561093a57600080fd5b506109556004803603810190610950919061427f565b611837565b60405161096291906142ee565b60405180910390f35b34801561097757600080fd5b50610992600480360381019061098d9190614335565b6119a6565b60405161099f9190613c85565b60405180910390f35b3480156109b457600080fd5b506109cf60048036038101906109ca9190614388565b6119dd565b005b6109eb60048036038101906109e69190613ca0565b611aef565b005b3480156109f957600080fd5b50610a02611f20565b604051610a0f9190613c85565b60405180910390f35b610a20611f33565b005b348015610a2e57600080fd5b50610a37612723565b604051610a449190613c5b565b60405180910390f35b610a676004803603810190610a629190613819565b612729565b005b348015610a7557600080fd5b50610a7e612b4f565b604051610a8b9190613c85565b60405180910390f35b348015610aa057600080fd5b50610abb6004803603810190610ab691906143ef565b612b62565b604051610ac89190613c85565b60405180910390f35b610aeb6004803603810190610ae69190613819565b612bf3565b005b348015610af957600080fd5b50610b146004803603810190610b0f9190613f23565b613019565b005b348015610b2257600080fd5b50610b3d6004803603810190610b38919061442f565b61309c565b604051610b4a9190613c5b565b60405180910390f35b348015610b5f57600080fd5b50610b686131b9565b604051610b759190613c5b565b60405180910390f35b600260009054906101000a900473ffffffffffffffffffffffffffffffffffffffff1681565b600560009054906101000a900473ffffffffffffffffffffffffffffffffffffffff1681565b610bd261362b565b600c8281548110610be657610be561446f565b5b906000526020600020906005020160405180610120016040529081600082015481526020016001820154815260200160028201548152602001600382016040518060e00160405290816000820160009054906101000a900460000b60000b60000b81526020016000820160019054906101000a900460000b60000b60000b81526020016000820160029054906101000a900460000b60000b60000b81526020016000820160039054906101000a900460000b60000b60000b81526020016000820160049054906101000a900460000b60000b60000b81526020016000820160059054906101000a900460000b60000b60000b81526020016000820160069054906101000a900460000b60000b60000b8152505081526020016004820160009054906101000a900460ff1660ff1660ff1681526020016004820160019054906101000a900460ff1660ff1660ff1681526020016004820160029054906101000a900460ff1660ff1660ff1681526020016004820160039054906101000a900460ff1660ff1660ff1681526020016004820160049054906101000a900460ff1615151515815250509050919050565b60001515600c8281548110610dab57610daa61446f565b5b906000526020600020906005020160040160049054906101000a900460ff16151514610e0c576040517f08c379a0000000000000000000000000000000000000000000000000000000008152600401610e03906144fb565b60405180910390fd5b610e15816131bf565b50565b60007f544c765b33ca411cce832250371569244f765a17fcd217832be093f0fd5fa45b60405160405180910390a163150b7a0260e01b905095945050505050565b600360009054906101000a900473ffffffffffffffffffffffffffffffffffffffff1681565b600080821215610e985781610e939061454a565b610e9a565b815b9050919050565b600060016000815480929190610eb690614592565b91905055506001544233604051602001610ed293929190614643565b60405160208183030381529060405280519060200120905090565b600080610efc60016006612b62565b60ff1690507ffe34d093a460a16ee5fb374540914d1c734a17502c0c1a87b387c8d6097e1c518382604051610f32929190614680565b60405180910390a180915050919050565b610f4b613381565b610f5361180e565b73ffffffffffffffffffffffffffffffffffffffff166108fc479081150290604051600060405180830381858888f19350505050158015610f98573d6000803e3d6000fd5b50565b600b60049054906101000a900460ff1681565b5050565b600a5481565b600b60079054906101000a900460ff1681565b600b60009054906101000a900460ff1681565b60095481565b600c8181548110610ff457600080fd5b9060005260206000209060050201600091509050806000015490806001015490806002015490806003016040518060e00160405290816000820160009054906101000a900460000b60000b60000b81526020016000820160019054906101000a900460000b60000b60000b81526020016000820160029054906101000a900460000b60000b60000b81526020016000820160039054906101000a900460000b60000b60000b81526020016000820160049054906101000a900460000b60000b60000b81526020016000820160059054906101000a900460000b60000b60000b81526020016000820160069054906101000a900460000b60000b60000b81525050908060040160009054906101000a900460ff16908060040160019054906101000a900460ff16908060040160029054906101000a900460ff16908060040160039054906101000a900460ff16908060040160049054906101000a900460ff16905089565b611160613381565b670de0b6b3a76400008161117491906146a9565b60088190555050565b600d602052816000526040600020818154811061119957600080fd5b90600052602060002001600091509150505481565b60008085856111bd91906146eb565b905060008385836111ce91906146a9565b6111d8919061474e565b905086816111e6919061477f565b92505050949350505050565b6000806111fe85610eed565b90507f75b6a8325595f91135e07382840634226793c68c9e59623da7e10d7ad3d95b958582868660405161123594939291906147b3565b60405180910390a16001810361124f57600091505061127e565b600383858361125e919061477f565b61126891906147f8565b131561127857600191505061127e565b60009150505b9392505050565b600b60089054906101000a900460ff1681565b600b60039054906101000a900460ff1681565b60606000600d60008473ffffffffffffffffffffffffffffffffffffffff1673ffffffffffffffffffffffffffffffffffffffff16815260200190815260200160002080549050905060008167ffffffffffffffff8111156113105761130f614188565b5b60405190808252806020026020018201604052801561134957816020015b61133661362b565b81526020019060019003908161132e5790505b50905060005b815181101561159e57600c600d60008773ffffffffffffffffffffffffffffffffffffffff1673ffffffffffffffffffffffffffffffffffffffff16815260200190815260200160002082815481106113ab576113aa61446f565b5b9060005260206000200154815481106113c7576113c661446f565b5b906000526020600020906005020160405180610120016040529081600082015481526020016001820154815260200160028201548152602001600382016040518060e00160405290816000820160009054906101000a900460000b60000b60000b81526020016000820160019054906101000a900460000b60000b60000b81526020016000820160029054906101000a900460000b60000b60000b81526020016000820160039054906101000a900460000b60000b60000b81526020016000820160049054906101000a900460000b60000b60000b81526020016000820160059054906101000a900460000b60000b60000b81526020016000820160069054906101000a900460000b60000b60000b8152505081526020016004820160009054906101000a900460ff1660ff1660ff1681526020016004820160019054906101000a900460ff1660ff1660ff1681526020016004820160029054906101000a900460ff1660ff1660ff1681526020016004820160039054906101000a900460ff1660ff1660ff1681526020016004820160049054906101000a900460ff1615151515815250508282815181106115805761157f61446f565b5b6020026020010181905250808061159690614592565b91505061134f565b508092505050919050565b6000818360046115b991906146a9565b6115c3919061477f565b905092915050565b600b60029054906101000a900460ff1681565b600560009054906101000a900473ffffffffffffffffffffffffffffffffffffffff1673ffffffffffffffffffffffffffffffffffffffff163373ffffffffffffffffffffffffffffffffffffffff161461166e576040517f08c379a000000000000000000000000000000000000000000000000000000000815260040161166590614887565b60405180910390fd5b600c81815481106116825761168161446f565b5b9060005260206000209060050201600401600081819054906101000a900460ff16809291906116b0906148a7565b91906101000a81548160ff021916908360ff1602179055505050565b600460009054906101000a900473ffffffffffffffffffffffffffffffffffffffff1681565b6116fa613381565b61170460006133ff565b565b600b60069054906101000a900460ff1681565b611721613381565b80600b60006101000a81548160ff02191690831515021790555050565b600660009054906101000a900473ffffffffffffffffffffffffffffffffffffffff1681565b600080820361177657600190506117e4565b6001820361178757600090506117e4565b6002820361179857600390506117e4565b600382036117a957600290506117e4565b6040517f08c379a00000000000000000000000000000000000000000000000000000000081526004016117db9061491c565b60405180910390fd5b919050565b6117f1613381565b670de0b6b3a76400008161180591906146a9565b60078190555050565b60008060009054906101000a900473ffffffffffffffffffffffffffffffffffffffff16905090565b61183f61368e565b6000830361187d57604051806040016040528060018460000151611863919061493c565b60ff168152602001836020015160ff1681525090506119a0565b600183036118bb576040518060400160405280600184600001516118a19190614971565b60ff168152602001836020015160ff1681525090506119a0565b600283036118f9576040518060400160405280836000015160ff168152602001600184602001516118ec9190614971565b60ff1681525090506119a0565b60038303611937576040518060400160405280836000015160ff1681526020016001846020015161192a919061493c565b60ff1681525090506119a0565b6000611942846134c3565b6040516020016119529190614a3d565b6040516020818303038152906040529050806040517f08c379a00000000000000000000000000000000000000000000000000000000081526004016119979190614a9c565b60405180910390fd5b92915050565b6000808260018560026119b99190614bf1565b6119c391906146eb565b60001b901b905082818616901c60001c9150509392505050565b6119e5613381565b83600260006101000a81548173ffffffffffffffffffffffffffffffffffffffff021916908373ffffffffffffffffffffffffffffffffffffffff16021790555082600360006101000a81548173ffffffffffffffffffffffffffffffffffffffff021916908373ffffffffffffffffffffffffffffffffffffffff16021790555081600460006101000a81548173ffffffffffffffffffffffffffffffffffffffff021916908373ffffffffffffffffffffffffffffffffffffffff16021790555080600560006101000a81548173ffffffffffffffffffffffffffffffffffffffff021916908373ffffffffffffffffffffffffffffffffffffffff16021790555050505050565b611af7613381565b600460009054906101000a900473ffffffffffffffffffffffffffffffffffffffff1673ffffffffffffffffffffffffffffffffffffffff166395a81d4e600c8481548110611b4957611b4861446f565b5b9060005260206000209060050201600201546040518263ffffffff1660e01b8152600401611b779190613c5b565b602060405180830381865afa158015611b94573d6000803e3d6000fd5b505050506040513d601f19601f82011682018060405250810190611bb89190614c51565b73ffffffffffffffffffffffffffffffffffffffff163373ffffffffffffffffffffffffffffffffffffffff1614611c25576040517f08c379a0000000000000000000000000000000000000000000000000000000008152600401611c1c90614cca565b60405180910390fd5b611c2d61180e565b73ffffffffffffffffffffffffffffffffffffffff163373ffffffffffffffffffffffffffffffffffffffff161480611c67575060075434145b611ca6576040517f08c379a0000000000000000000000000000000000000000000000000000000008152600401611c9d90614d36565b60405180910390fd5b60001515600c8381548110611cbe57611cbd61446f565b5b906000526020600020906005020160040160049054906101000a900460ff16151514611d1f576040517f08c379a0000000000000000000000000000000000000000000000000000000008152600401611d1690614da2565b60405180910390fd5b600460009054906101000a900473ffffffffffffffffffffffffffffffffffffffff1673ffffffffffffffffffffffffffffffffffffffff16636352211e600c8481548110611d7157611d7061446f565b5b9060005260206000209060050201600201546040518263ffffffff1660e01b8152600401611d9f9190613c5b565b602060405180830381865afa158015611dbc573d6000803e3d6000fd5b505050506040513d601f19601f82011682018060405250810190611de09190614c51565b73ffffffffffffffffffffffffffffffffffffffff163073ffffffffffffffffffffffffffffffffffffffff1614611e4d576040517f08c379a0000000000000000000000000000000000000000000000000000000008152600401611e4490614e0e565b60405180910390fd5b6001600c8381548110611e6357611e6261446f565b5b906000526020600020906005020160040160046101000a81548160ff021916908315150217905550600260009054906101000a900473ffffffffffffffffffffffffffffffffffffffff1673ffffffffffffffffffffffffffffffffffffffff1663aa582fc48333846040518463ffffffff1660e01b8152600401611eea93929190614e2e565b600060405180830381600087803b158015611f0457600080fd5b505af1158015611f18573d6000803e3d6000fd5b505050505050565b600b60019054906101000a900460ff1681565b611f3b61180e565b73ffffffffffffffffffffffffffffffffffffffff163373ffffffffffffffffffffffffffffffffffffffff161480611f75575060085434145b611fb4576040517f08c379a0000000000000000000000000000000000000000000000000000000008152600401611fab90614d36565b60405180910390fd5b611fbc61180e565b73ffffffffffffffffffffffffffffffffffffffff163373ffffffffffffffffffffffffffffffffffffffff161480612008575060011515600b60009054906101000a900460ff161515145b612047576040517f08c379a000000000000000000000000000000000000000000000000000000000815260040161203e90614eb1565b60405180910390fd5b6000600460009054906101000a900473ffffffffffffffffffffffffffffffffffffffff1673ffffffffffffffffffffffffffffffffffffffff16639b6507f0600954600080336040518563ffffffff1660e01b81526004016120ac93929190614f0c565b60206040518083038185885af11580156120ca573d6000803e3d6000fd5b50505050506040513d601f19601f820116820180604052508101906120ef9190614f58565b90506000600460009054906101000a900473ffffffffffffffffffffffffffffffffffffffff1673ffffffffffffffffffffffffffffffffffffffff166328518381836040518263ffffffff1660e01b815260040161214e9190613c5b565b602060405180830381865afa15801561216b573d6000803e3d6000fd5b505050506040513d601f19601f8201168201806040525081019061218f9190614f9a565b9050600c604051806101200160405280838152602001600c8054905081526020018481526020016040518060e0016040528061220660026001600b60019054906101000a900460ff166121e29190614971565b60ff166121fc8960046121f7600c60016115a9565b6119a6565b60ff16600f6111ae565b60000b815260200161225360036001600b60029054906101000a900460ff1661222f9190614971565b60ff16612249896004612244600a60026115a9565b6119a6565b60ff16600f6111ae565b60000b81526020016122a060026001600b60039054906101000a900460ff1661227c9190614971565b60ff16612296896004612291600c60006115a9565b6119a6565b60ff16600f6111ae565b60000b81526020016122ed60026001600b60049054906101000a900460ff166122c99190614971565b60ff166122e38960046122de600d60006115a9565b6119a6565b60ff16600f6111ae565b60000b815260200161233a60026001600b60059054906101000a900460ff166123169190614971565b60ff1661233089600461232b600a60016115a9565b6119a6565b60ff16600f6111ae565b60000b815260200161238760026001600b60069054906101000a900460ff166123639190614971565b60ff1661237d896004612378600b60006115a9565b6119a6565b60ff16600f6111ae565b60000b81526020016123d460026001600b60079054906101000a900460ff166123b09190614971565b60ff166123ca8960046123c5600a60006115a9565b6119a6565b60ff16600f6111ae565b60000b8152508152602001600060ff1681526020016124226000600b60089054906101000a900460ff1660ff16612418876008612413600360006115a9565b6119a6565b60ff1660ff6111ae565b60ff1681526020016124636000600b60099054906101000a900460ff1660ff16612459876008612454600860006115a9565b6119a6565b60ff1660ff6111ae565b60ff1681526020016124a46000600b600a9054906101000a900460ff1660ff1661249a876008612495600860026115a9565b6119a6565b60ff1660ff6111ae565b60ff16815260200160001515815250908060018154018082558091505060019003906000526020600020906005020160009091909190915060008201518160000155602082015181600101556040820151816002015560608201518160030160008201518160000160006101000a81548160ff021916908360000b60ff16021790555060208201518160000160016101000a81548160ff021916908360000b60ff16021790555060408201518160000160026101000a81548160ff021916908360000b60ff16021790555060608201518160000160036101000a81548160ff021916908360000b60ff16021790555060808201518160000160046101000a81548160ff021916908360000b60ff16021790555060a08201518160000160056101000a81548160ff021916908360000b60ff16021790555060c08201518160000160066101000a81548160ff021916908360000b60ff160217905550505060808201518160040160006101000a81548160ff021916908360ff16021790555060a08201518160040160016101000a81548160ff021916908360ff16021790555060c08201518160040160026101000a81548160ff021916908360ff16021790555060e08201518160040160036101000a81548160ff021916908360ff1602179055506101008201518160040160046101000a81548160ff0219169083151502179055505050600d60003373ffffffffffffffffffffffffffffffffffffffff1673ffffffffffffffffffffffffffffffffffffffff1681526020019081526020016000206001600c805490506126f991906146eb565b90806001815401808255809150506001900390600052602060002001600090919091909150555050565b60085481565b600460009054906101000a900473ffffffffffffffffffffffffffffffffffffffff1673ffffffffffffffffffffffffffffffffffffffff166395a81d4e600c838154811061277b5761277a61446f565b5b9060005260206000209060050201600201546040518263ffffffff1660e01b81526004016127a99190613c5b565b602060405180830381865afa1580156127c6573d6000803e3d6000fd5b505050506040513d601f19601f820116820180604052508101906127ea9190614c51565b73ffffffffffffffffffffffffffffffffffffffff163373ffffffffffffffffffffffffffffffffffffffff1614612857576040517f08c379a000000000000000000000000000000000000000000000000000000000815260040161284e90614cca565b60405180910390fd5b61285f61180e565b73ffffffffffffffffffffffffffffffffffffffff163373ffffffffffffffffffffffffffffffffffffffff161480612899575060075434145b6128d8576040517f08c379a00000000000000000000000000000000000000000000000000000000081526004016128cf90614d36565b60405180910390fd5b60001515600c82815481106128f0576128ef61446f565b5b906000526020600020906005020160040160049054906101000a900460ff16151514612951576040517f08c379a000000000000000000000000000000000000000000000000000000000815260040161294890614da2565b60405180910390fd5b600460009054906101000a900473ffffffffffffffffffffffffffffffffffffffff1673ffffffffffffffffffffffffffffffffffffffff16636352211e600c83815481106129a3576129a261446f565b5b9060005260206000209060050201600201546040518263ffffffff1660e01b81526004016129d19190613c5b565b602060405180830381865afa1580156129ee573d6000803e3d6000fd5b505050506040513d601f19601f82011682018060405250810190612a129190614c51565b73ffffffffffffffffffffffffffffffffffffffff163073ffffffffffffffffffffffffffffffffffffffff1614612a7f576040517f08c379a0000000000000000000000000000000000000000000000000000000008152600401612a7690614e0e565b60405180910390fd5b6001600c8281548110612a9557612a9461446f565b5b906000526020600020906005020160040160046101000a81548160ff021916908315150217905550600260009054906101000a900473ffffffffffffffffffffffffffffffffffffffff1673ffffffffffffffffffffffffffffffffffffffff1663237c201b82336040518363ffffffff1660e01b8152600401612b1a929190614fc7565b600060405180830381600087803b158015612b3457600080fd5b505af1158015612b48573d6000803e3d6000fd5b5050505050565b600b60059054906101000a900460ff1681565b600060016000815480929190612b7790614592565b919050555060003360015442604051602001612b9593929190614ff0565b6040516020818303038152906040528051906020012060001c9050600060018585612bc0919061493c565b612bca9190614971565b90508460ff168160ff1683612bdf919061502d565b612be9919061477f565b9250505092915050565b600460009054906101000a900473ffffffffffffffffffffffffffffffffffffffff1673ffffffffffffffffffffffffffffffffffffffff166395a81d4e600c8381548110612c4557612c4461446f565b5b9060005260206000209060050201600201546040518263ffffffff1660e01b8152600401612c739190613c5b565b602060405180830381865afa158015612c90573d6000803e3d6000fd5b505050506040513d601f19601f82011682018060405250810190612cb49190614c51565b73ffffffffffffffffffffffffffffffffffffffff163373ffffffffffffffffffffffffffffffffffffffff1614612d21576040517f08c379a0000000000000000000000000000000000000000000000000000000008152600401612d1890614cca565b60405180910390fd5b612d2961180e565b73ffffffffffffffffffffffffffffffffffffffff163373ffffffffffffffffffffffffffffffffffffffff161480612d635750600a5434145b612da2576040517f08c379a0000000000000000000000000000000000000000000000000000000008152600401612d9990614d36565b60405180910390fd5b60001515600c8281548110612dba57612db961446f565b5b906000526020600020906005020160040160049054906101000a900460ff16151514612e1b576040517f08c379a0000000000000000000000000000000000000000000000000000000008152600401612e1290614da2565b60405180910390fd5b600460009054906101000a900473ffffffffffffffffffffffffffffffffffffffff1673ffffffffffffffffffffffffffffffffffffffff16636352211e600c8381548110612e6d57612e6c61446f565b5b9060005260206000209060050201600201546040518263ffffffff1660e01b8152600401612e9b9190613c5b565b602060405180830381865afa158015612eb8573d6000803e3d6000fd5b505050506040513d601f19601f82011682018060405250810190612edc9190614c51565b73ffffffffffffffffffffffffffffffffffffffff163073ffffffffffffffffffffffffffffffffffffffff1614612f49576040517f08c379a0000000000000000000000000000000000000000000000000000000008152600401612f4090614e0e565b60405180910390fd5b6001600c8281548110612f5f57612f5e61446f565b5b906000526020600020906005020160040160046101000a81548160ff021916908315150217905550600260009054906101000a900473ffffffffffffffffffffffffffffffffffffffff1673ffffffffffffffffffffffffffffffffffffffff1663a707d63282336040518363ffffffff1660e01b8152600401612fe4929190614fc7565b600060405180830381600087803b158015612ffe57600080fd5b505af1158015613012573d6000803e3d6000fd5b5050505050565b613021613381565b600073ffffffffffffffffffffffffffffffffffffffff168173ffffffffffffffffffffffffffffffffffffffff1603613090576040517f08c379a0000000000000000000000000000000000000000000000000000000008152600401613087906150d0565b60405180910390fd5b613099816133ff565b50565b60006001826000015184600001516130b491906150f0565b60000b036130c557600090506131b3565b7fffffffffffffffffffffffffffffffffffffffffffffffffffffffffffffffff826000015184600001516130fa91906150f0565b60000b0361310b57600190506131b3565b7fffffffffffffffffffffffffffffffffffffffffffffffffffffffffffffffff8260200151846020015161314091906150f0565b60000b0361315157600290506131b3565b60018260200151846020015161316791906150f0565b60000b0361317857600390506131b3565b6040517f08c379a00000000000000000000000000000000000000000000000000000000081526004016131aa90615195565b60405180910390fd5b92915050565b60075481565b600460009054906101000a900473ffffffffffffffffffffffffffffffffffffffff1673ffffffffffffffffffffffffffffffffffffffff166395a81d4e826040518263ffffffff1660e01b815260040161321a9190613c5b565b602060405180830381865afa158015613237573d6000803e3d6000fd5b505050506040513d601f19601f8201168201806040525081019061325b9190614c51565b73ffffffffffffffffffffffffffffffffffffffff163373ffffffffffffffffffffffffffffffffffffffff16146132c8576040517f08c379a00000000000000000000000000000000000000000000000000000000081526004016132bf90615201565b60405180910390fd5b600460009054906101000a900473ffffffffffffffffffffffffffffffffffffffff1673ffffffffffffffffffffffffffffffffffffffff166342842e0e3033600c858154811061331c5761331b61446f565b5b9060005260206000209060050201600201546040518463ffffffff1660e01b815260040161334c93929190615221565b600060405180830381600087803b15801561336657600080fd5b505af115801561337a573d6000803e3d6000fd5b5050505050565b613389613623565b73ffffffffffffffffffffffffffffffffffffffff166133a761180e565b73ffffffffffffffffffffffffffffffffffffffff16146133fd576040517f08c379a00000000000000000000000000000000000000000000000000000000081526004016133f4906152a4565b60405180910390fd5b565b60008060009054906101000a900473ffffffffffffffffffffffffffffffffffffffff169050816000806101000a81548173ffffffffffffffffffffffffffffffffffffffff021916908373ffffffffffffffffffffffffffffffffffffffff1602179055508173ffffffffffffffffffffffffffffffffffffffff168173ffffffffffffffffffffffffffffffffffffffff167f8be0079c531659141344cd1fd0a4f28419497f9722a3daafe3b4186f6b6457e060405160405180910390a35050565b60606000820361350a576040518060400160405280600181526020017f3000000000000000000000000000000000000000000000000000000000000000815250905061361e565b600082905060005b6000821461353c57808061352590614592565b915050600a82613535919061474e565b9150613512565b60008167ffffffffffffffff81111561355857613557614188565b5b6040519080825280601f01601f19166020018201604052801561358a5781602001600182028036833780820191505090505b5090505b60008514613617576001826135a391906146eb565b9150600a856135b2919061502d565b60306135be919061477f565b60f81b8183815181106135d4576135d361446f565b5b60200101907effffffffffffffffffffffffffffffffffffffffffffffffffffffffffffff1916908160001a905350600a85613610919061474e565b945061358e565b8093505050505b919050565b600033905090565b6040518061012001604052806000801916815260200160008152602001600081526020016136576136ae565b8152602001600060ff168152602001600060ff168152602001600060ff168152602001600060ff1681526020016000151581525090565b6040518060400160405280600060ff168152602001600060ff1681525090565b6040518060e001604052806000800b81526020016000800b81526020016000800b81526020016000800b81526020016000800b81526020016000800b81526020016000800b81525090565b600073ffffffffffffffffffffffffffffffffffffffff82169050919050565b6000819050919050565b600061373e613739613734846136f9565b613719565b6136f9565b9050919050565b600061375082613723565b9050919050565b600061376282613745565b9050919050565b61377281613757565b82525050565b600060208201905061378d6000830184613769565b92915050565b600061379e826136f9565b9050919050565b6137ae81613793565b82525050565b60006020820190506137c960008301846137a5565b92915050565b6000604051905090565b600080fd5b600080fd5b6000819050919050565b6137f6816137e3565b811461380157600080fd5b50565b600081359050613813816137ed565b92915050565b60006020828403121561382f5761382e6137d9565b5b600061383d84828501613804565b91505092915050565b6000819050919050565b61385981613846565b82525050565b613868816137e3565b82525050565b60008160000b9050919050565b6138848161386e565b82525050565b60e0820160008201516138a0600085018261387b565b5060208201516138b3602085018261387b565b5060408201516138c6604085018261387b565b5060608201516138d9606085018261387b565b5060808201516138ec608085018261387b565b5060a08201516138ff60a085018261387b565b5060c082015161391260c085018261387b565b50505050565b600060ff82169050919050565b61392e81613918565b82525050565b60008115159050919050565b61394981613934565b82525050565b6101e0820160008201516139666000850182613850565b506020820151613979602085018261385f565b50604082015161398c604085018261385f565b50606082015161399f606085018261388a565b5060808201516139b3610140850182613925565b5060a08201516139c7610160850182613925565b5060c08201516139db610180850182613925565b5060e08201516139ef6101a0850182613925565b50610100820151613a046101c0850182613940565b50505050565b60006101e082019050613a20600083018461394f565b92915050565b613a2f81613793565b8114613a3a57600080fd5b50565b600081359050613a4c81613a26565b92915050565b600080fd5b600080fd5b600080fd5b60008083601f840112613a7757613a76613a52565b5b8235905067ffffffffffffffff811115613a9457613a93613a57565b5b602083019150836001820283011115613ab057613aaf613a5c565b5b9250929050565b600080600080600060808688031215613ad357613ad26137d9565b5b6000613ae188828901613a3d565b9550506020613af288828901613a3d565b9450506040613b0388828901613804565b935050606086013567ffffffffffffffff811115613b2457613b236137de565b5b613b3088828901613a61565b92509250509295509295909350565b60007fffffffff0000000000000000000000000000000000000000000000000000000082169050919050565b613b7481613b3f565b82525050565b6000602082019050613b8f6000830184613b6b565b92915050565b6000819050919050565b613ba881613b95565b8114613bb357600080fd5b50565b600081359050613bc581613b9f565b92915050565b600060208284031215613be157613be06137d9565b5b6000613bef84828501613bb6565b91505092915050565b613c0181613b95565b82525050565b6000602082019050613c1c6000830184613bf8565b92915050565b613c2b81613846565b82525050565b6000602082019050613c466000830184613c22565b92915050565b613c55816137e3565b82525050565b6000602082019050613c706000830184613c4c565b92915050565b613c7f81613918565b82525050565b6000602082019050613c9a6000830184613c76565b92915050565b60008060408385031215613cb757613cb66137d9565b5b6000613cc585828601613804565b9250506020613cd685828601613804565b9150509250929050565b613ce981613934565b82525050565b6000602082019050613d046000830184613ce0565b92915050565b60e082016000820151613d20600085018261387b565b506020820151613d33602085018261387b565b506040820151613d46604085018261387b565b506060820151613d59606085018261387b565b506080820151613d6c608085018261387b565b5060a0820151613d7f60a085018261387b565b5060c0820151613d9260c085018261387b565b50505050565b60006101e082019050613dae600083018c613c22565b613dbb602083018b613c4c565b613dc8604083018a613c4c565b613dd56060830189613d0a565b613de3610140830188613c76565b613df1610160830187613c76565b613dff610180830186613c76565b613e0d6101a0830185613c76565b613e1b6101c0830184613ce0565b9a9950505050505050505050565b60008060408385031215613e4057613e3f6137d9565b5b6000613e4e85828601613a3d565b9250506020613e5f85828601613804565b9150509250929050565b60008060008060808587031215613e8357613e826137d9565b5b6000613e9187828801613804565b9450506020613ea287828801613804565b9350506040613eb387828801613804565b9250506060613ec487828801613804565b91505092959194509250565b600080600060608486031215613ee957613ee86137d9565b5b6000613ef786828701613804565b9350506020613f0886828701613804565b9250506040613f1986828701613804565b9150509250925092565b600060208284031215613f3957613f386137d9565b5b6000613f4784828501613a3d565b91505092915050565b600081519050919050565b600082825260208201905092915050565b6000819050602082019050919050565b6101e082016000820151613f936000850182613850565b506020820151613fa6602085018261385f565b506040820151613fb9604085018261385f565b506060820151613fcc606085018261388a565b506080820151613fe0610140850182613925565b5060a0820151613ff4610160850182613925565b5060c0820151614008610180850182613925565b5060e082015161401c6101a0850182613925565b506101008201516140316101c0850182613940565b50505050565b60006140438383613f7c565b6101e08301905092915050565b6000602082019050919050565b600061406882613f50565b6140728185613f5b565b935061407d83613f6c565b8060005b838110156140ae5781516140958882614037565b97506140a083614050565b925050600181019050614081565b5085935050505092915050565b600060208201905081810360008301526140d5818461405d565b905092915050565b60006140e882613745565b9050919050565b6140f8816140dd565b82525050565b600060208201905061411360008301846140ef565b92915050565b61412281613934565b811461412d57600080fd5b50565b60008135905061413f81614119565b92915050565b60006020828403121561415b5761415a6137d9565b5b600061416984828501614130565b91505092915050565b600080fd5b6000601f19601f8301169050919050565b7f4e487b7100000000000000000000000000000000000000000000000000000000600052604160045260246000fd5b6141c082614177565b810181811067ffffffffffffffff821117156141df576141de614188565b5b80604052505050565b60006141f26137cf565b90506141fe82826141b7565b919050565b61420c81613918565b811461421757600080fd5b50565b60008135905061422981614203565b92915050565b60006040828403121561424557614244614172565b5b61424f60406141e8565b9050600061425f8482850161421a565b60008301525060206142738482850161421a565b60208301525092915050565b60008060608385031215614296576142956137d9565b5b60006142a485828601613804565b92505060206142b58582860161422f565b9150509250929050565b6040820160008201516142d56000850182613925565b5060208201516142e86020850182613925565b50505050565b600060408201905061430360008301846142bf565b92915050565b61431281613846565b811461431d57600080fd5b50565b60008135905061432f81614309565b92915050565b60008060006060848603121561434e5761434d6137d9565b5b600061435c86828701614320565b935050602061436d86828701613804565b925050604061437e86828701613804565b9150509250925092565b600080600080608085870312156143a2576143a16137d9565b5b60006143b087828801613a3d565b94505060206143c187828801613a3d565b93505060406143d287828801613a3d565b92505060606143e387828801613a3d565b91505092959194509250565b60008060408385031215614406576144056137d9565b5b60006144148582860161421a565b92505060206144258582860161421a565b9150509250929050565b60008060808385031215614446576144456137d9565b5b60006144548582860161422f565b92505060406144658582860161422f565b9150509250929050565b7f4e487b7100000000000000000000000000000000000000000000000000000000600052603260045260246000fd5b600082825260208201905092915050565b7f4368617220696e2067616d650000000000000000000000000000000000000000600082015250565b60006144e5600c8361449e565b91506144f0826144af565b602082019050919050565b60006020820190508181036000830152614514816144d8565b9050919050565b7f4e487b7100000000000000000000000000000000000000000000000000000000600052601160045260246000fd5b600061455582613b95565b91507f800000000000000000000000000000000000000000000000000000000000000082036145875761458661451b565b5b816000039050919050565b600061459d826137e3565b91507fffffffffffffffffffffffffffffffffffffffffffffffffffffffffffffffff82036145cf576145ce61451b565b5b600182019050919050565b6000819050919050565b6145f56145f0826137e3565b6145da565b82525050565b60008160601b9050919050565b6000614613826145fb565b9050919050565b600061462582614608565b9050919050565b61463d61463882613793565b61461a565b82525050565b600061464f82866145e4565b60208201915061465f82856145e4565b60208201915061466f828461462c565b601482019150819050949350505050565b60006040820190506146956000830185613c4c565b6146a26020830184613c4c565b9392505050565b60006146b4826137e3565b91506146bf836137e3565b92508282026146cd816137e3565b915082820484148315176146e4576146e361451b565b5b5092915050565b60006146f6826137e3565b9150614701836137e3565b92508282039050818111156147195761471861451b565b5b92915050565b7f4e487b7100000000000000000000000000000000000000000000000000000000600052601260045260246000fd5b6000614759826137e3565b9150614764836137e3565b9250826147745761477361471f565b5b828204905092915050565b600061478a826137e3565b9150614795836137e3565b92508282019050808211156147ad576147ac61451b565b5b92915050565b60006080820190506147c86000830187613c4c565b6147d56020830186613c4c565b6147e26040830185613c4c565b6147ef6060830184613c4c565b95945050505050565b600061480382613b95565b915061480e83613b95565b92508282039050818112600084121682821360008512151617156148355761483461451b565b5b92915050565b7f4f6e6c7920706c617965727320636f6e74726163740000000000000000000000600082015250565b600061487160158361449e565b915061487c8261483b565b602082019050919050565b600060208201905081810360008301526148a081614864565b9050919050565b60006148b282613918565b915060ff82036148c5576148c461451b565b5b600182019050919050565b7f42616420646972656374696f6e00000000000000000000000000000000000000600082015250565b6000614906600d8361449e565b9150614911826148d0565b602082019050919050565b60006020820190508181036000830152614935816148f9565b9050919050565b600061494782613918565b915061495283613918565b9250828203905060ff81111561496b5761496a61451b565b5b92915050565b600061497c82613918565b915061498783613918565b9250828201905060ff8111156149a05761499f61451b565b5b92915050565b7f496e76616c696420646972656374696f6e3a2000000000000000000000000000815250565b600081519050919050565b600081905092915050565b60005b83811015614a005780820151818401526020810190506149e5565b60008484015250505050565b6000614a17826149cc565b614a2181856149d7565b9350614a318185602086016149e2565b80840191505092915050565b6000614a48826149a6565b601382019150614a588284614a0c565b915081905092915050565b6000614a6e826149cc565b614a78818561449e565b9350614a888185602086016149e2565b614a9181614177565b840191505092915050565b60006020820190508181036000830152614ab68184614a63565b905092915050565b60008160011c9050919050565b6000808291508390505b6001851115614b1557808604811115614af157614af061451b565b5b6001851615614b005780820291505b8081029050614b0e85614abe565b9450614ad5565b94509492505050565b600082614b2e5760019050614bea565b81614b3c5760009050614bea565b8160018114614b525760028114614b5c57614b8b565b6001915050614bea565b60ff841115614b6e57614b6d61451b565b5b8360020a915084821115614b8557614b8461451b565b5b50614bea565b5060208310610133831016604e8410600b8410161715614bc05782820a905083811115614bbb57614bba61451b565b5b614bea565b614bcd8484846001614acb565b92509050818404811115614be457614be361451b565b5b81810290505b9392505050565b6000614bfc826137e3565b9150614c07836137e3565b9250614c347fffffffffffffffffffffffffffffffffffffffffffffffffffffffffffffffff8484614b1e565b905092915050565b600081519050614c4b81613a26565b92915050565b600060208284031215614c6757614c666137d9565b5b6000614c7584828501614c3c565b91505092915050565b7f4e6f7420796f7572206368617261637465720000000000000000000000000000600082015250565b6000614cb460128361449e565b9150614cbf82614c7e565b602082019050919050565b60006020820190508181036000830152614ce381614ca7565b9050919050565b7f496e636f7272656374207061796d656e74000000000000000000000000000000600082015250565b6000614d2060118361449e565b9150614d2b82614cea565b602082019050919050565b60006020820190508181036000830152614d4f81614d13565b9050919050565b7f416c726561647920696e2067616d650000000000000000000000000000000000600082015250565b6000614d8c600f8361449e565b9150614d9782614d56565b602082019050919050565b60006020820190508181036000830152614dbb81614d7f565b9050919050565b7f554949206e6f74206c6f61646564000000000000000000000000000000000000600082015250565b6000614df8600e8361449e565b9150614e0382614dc2565b602082019050919050565b60006020820190508181036000830152614e2781614deb565b9050919050565b6000606082019050614e436000830186613c4c565b614e5060208301856137a5565b614e5d6040830184613c4c565b949350505050565b7f4d696e74696e67206973206e6f74206163746976650000000000000000000000600082015250565b6000614e9b60158361449e565b9150614ea682614e65565b602082019050919050565b60006020820190508181036000830152614eca81614e8e565b9050919050565b6000819050919050565b6000614ef6614ef1614eec84614ed1565b613719565b6137e3565b9050919050565b614f0681614edb565b82525050565b6000606082019050614f216000830186614efd565b614f2e6020830185614efd565b614f3b60408301846137a5565b949350505050565b600081519050614f52816137ed565b92915050565b600060208284031215614f6e57614f6d6137d9565b5b6000614f7c84828501614f43565b91505092915050565b600081519050614f9481614309565b92915050565b600060208284031215614fb057614faf6137d9565b5b6000614fbe84828501614f85565b91505092915050565b6000604082019050614fdc6000830185613c4c565b614fe960208301846137a5565b9392505050565b6000614ffc828661462c565b60148201915061500c82856145e4565b60208201915061501c82846145e4565b602082019150819050949350505050565b6000615038826137e3565b9150615043836137e3565b9250826150535761505261471f565b5b828206905092915050565b7f4f776e61626c653a206e6577206f776e657220697320746865207a65726f206160008201527f6464726573730000000000000000000000000000000000000000000000000000602082015250565b60006150ba60268361449e565b91506150c58261505e565b604082019050919050565b600060208201905081810360008301526150e9816150ad565b9050919050565b60006150fb8261386e565b91506151068361386e565b92508282039050607f81137fffffffffffffffffffffffffffffffffffffffffffffffffffffffffffffff80821217156151435761514261451b565b5b92915050565b7f4572726f723a204e6f742061646a6163656e7400000000000000000000000000600082015250565b600061517f60138361449e565b915061518a82615149565b602082019050919050565b600060208201905081810360008301526151ae81615172565b9050919050565b7f4e6f7420796f7572207569690000000000000000000000000000000000000000600082015250565b60006151eb600c8361449e565b91506151f6826151b5565b602082019050919050565b6000602082019050818103600083015261521a816151de565b9050919050565b600060608201905061523660008301866137a5565b61524360208301856137a5565b6152506040830184613c4c565b949350505050565b7f4f776e61626c653a2063616c6c6572206973206e6f7420746865206f776e6572600082015250565b600061528e60208361449e565b915061529982615258565b602082019050919050565b600060208201905081810360008301526152bd81615281565b905091905056fea264697066735822122083ccb01639c5864d1c741954182663ab398a656856919faa94e9469d994e468a64736f6c63430008110033",
  "devdoc": {
    "kind": "dev",
    "methods": {
      "owner()": {
        "details": "Returns the address of the current owner."
      },
      "renounceOwnership()": {
        "details": "Leaves the contract without owner. It will not be possible to call `onlyOwner` functions anymore. Can only be called by the current owner. NOTE: Renouncing ownership will leave the contract without an owner, thereby removing any functionality that is only available to the owner."
      },
      "transferOwnership(address)": {
        "details": "Transfers ownership of the contract to a new account (`newOwner`). Can only be called by the current owner."
      }
    },
    "version": 1
  },
  "userdoc": {
    "kind": "user",
    "methods": {},
    "version": 1
  },
  "storageLayout": {
    "storage": [
      {
        "astId": 7,
        "contract": "contracts/BCChars.sol:BCChars",
        "label": "_owner",
        "offset": 0,
        "slot": "0",
        "type": "t_address"
      },
      {
        "astId": 10855,
        "contract": "contracts/BCChars.sol:BCChars",
        "label": "TODO_randomSeed",
        "offset": 0,
        "slot": "1",
        "type": "t_uint256"
      },
      {
        "astId": 2962,
        "contract": "contracts/BCChars.sol:BCChars",
        "label": "lobbies",
        "offset": 0,
        "slot": "2",
        "type": "t_contract(LobbyInterface)2912"
      },
      {
        "astId": 2964,
        "contract": "contracts/BCChars.sol:BCChars",
        "label": "gamesContract",
        "offset": 0,
        "slot": "3",
        "type": "t_address"
      },
      {
        "astId": 2967,
        "contract": "contracts/BCChars.sol:BCChars",
        "label": "uif",
        "offset": 0,
        "slot": "4",
        "type": "t_contract(UIFInterface)2953"
      },
      {
        "astId": 2969,
        "contract": "contracts/BCChars.sol:BCChars",
        "label": "playersAddress",
        "offset": 0,
        "slot": "5",
        "type": "t_address"
      },
      {
        "astId": 2971,
        "contract": "contracts/BCChars.sol:BCChars",
        "label": "debugAllowedUser",
        "offset": 0,
        "slot": "6",
        "type": "t_address"
      },
      {
        "astId": 3012,
        "contract": "contracts/BCChars.sol:BCChars",
        "label": "enlistCost",
        "offset": 0,
        "slot": "7",
        "type": "t_uint256"
      },
      {
        "astId": 3019,
        "contract": "contracts/BCChars.sol:BCChars",
        "label": "mintCost",
        "offset": 0,
        "slot": "8",
        "type": "t_uint256"
      },
      {
        "astId": 3022,
        "contract": "contracts/BCChars.sol:BCChars",
        "label": "uifCost",
        "offset": 0,
        "slot": "9",
        "type": "t_uint256"
      },
      {
        "astId": 3027,
        "contract": "contracts/BCChars.sol:BCChars",
        "label": "soloCost",
        "offset": 0,
        "slot": "10",
        "type": "t_uint256"
      },
      {
        "astId": 3030,
        "contract": "contracts/BCChars.sol:BCChars",
        "label": "mintIsActive",
        "offset": 0,
        "slot": "11",
        "type": "t_bool"
      },
      {
        "astId": 3033,
        "contract": "contracts/BCChars.sol:BCChars",
        "label": "healthCap",
        "offset": 1,
        "slot": "11",
        "type": "t_uint8"
      },
      {
        "astId": 3036,
        "contract": "contracts/BCChars.sol:BCChars",
        "label": "carryCap",
        "offset": 2,
        "slot": "11",
        "type": "t_uint8"
      },
      {
        "astId": 3039,
        "contract": "contracts/BCChars.sol:BCChars",
        "label": "defenseCap",
        "offset": 3,
        "slot": "11",
        "type": "t_uint8"
      },
      {
        "astId": 3042,
        "contract": "contracts/BCChars.sol:BCChars",
        "label": "hackCap",
        "offset": 4,
        "slot": "11",
        "type": "t_uint8"
      },
      {
        "astId": 3045,
        "contract": "contracts/BCChars.sol:BCChars",
        "label": "breachCap",
        "offset": 5,
        "slot": "11",
        "type": "t_uint8"
      },
      {
        "astId": 3048,
        "contract": "contracts/BCChars.sol:BCChars",
        "label": "shootCap",
        "offset": 6,
        "slot": "11",
        "type": "t_uint8"
      },
      {
        "astId": 3051,
        "contract": "contracts/BCChars.sol:BCChars",
        "label": "meleeCap",
        "offset": 7,
        "slot": "11",
        "type": "t_uint8"
      },
      {
        "astId": 3054,
        "contract": "contracts/BCChars.sol:BCChars",
        "label": "maxClonesCap",
        "offset": 8,
        "slot": "11",
        "type": "t_uint8"
      },
      {
        "astId": 3057,
        "contract": "contracts/BCChars.sol:BCChars",
        "label": "abilityCap",
        "offset": 9,
        "slot": "11",
        "type": "t_uint8"
      },
      {
        "astId": 3060,
        "contract": "contracts/BCChars.sol:BCChars",
        "label": "flawCap",
        "offset": 10,
        "slot": "11",
        "type": "t_uint8"
      },
      {
        "astId": 3064,
        "contract": "contracts/BCChars.sol:BCChars",
        "label": "characters",
        "offset": 0,
        "slot": "12",
        "type": "t_array(t_struct(Character)10791_storage)dyn_storage"
      },
      {
        "astId": 3069,
        "contract": "contracts/BCChars.sol:BCChars",
        "label": "charsOwned",
        "offset": 0,
        "slot": "13",
        "type": "t_mapping(t_address,t_array(t_uint256)dyn_storage)"
      }
    ],
    "types": {
      "t_address": {
        "encoding": "inplace",
        "label": "address",
        "numberOfBytes": "20"
      },
      "t_array(t_struct(Character)10791_storage)dyn_storage": {
        "base": "t_struct(Character)10791_storage",
        "encoding": "dynamic_array",
        "label": "struct BCTypes.Character[]",
        "numberOfBytes": "32"
      },
      "t_array(t_uint256)dyn_storage": {
        "base": "t_uint256",
        "encoding": "dynamic_array",
        "label": "uint256[]",
        "numberOfBytes": "32"
      },
      "t_bool": {
        "encoding": "inplace",
        "label": "bool",
        "numberOfBytes": "1"
      },
      "t_bytes32": {
        "encoding": "inplace",
        "label": "bytes32",
        "numberOfBytes": "32"
      },
      "t_contract(LobbyInterface)2912": {
        "encoding": "inplace",
        "label": "contract LobbyInterface",
        "numberOfBytes": "20"
      },
      "t_contract(UIFInterface)2953": {
        "encoding": "inplace",
        "label": "contract UIFInterface",
        "numberOfBytes": "20"
      },
      "t_int8": {
        "encoding": "inplace",
        "label": "int8",
        "numberOfBytes": "1"
      },
      "t_mapping(t_address,t_array(t_uint256)dyn_storage)": {
        "encoding": "mapping",
        "key": "t_address",
        "label": "mapping(address => uint256[])",
        "numberOfBytes": "32",
        "value": "t_array(t_uint256)dyn_storage"
      },
      "t_struct(Character)10791_storage": {
        "encoding": "inplace",
        "label": "struct BCTypes.Character",
        "members": [
          {
            "astId": 10773,
            "contract": "contracts/BCChars.sol:BCChars",
            "label": "genHash",
            "offset": 0,
            "slot": "0",
            "type": "t_bytes32"
          },
          {
            "astId": 10775,
            "contract": "contracts/BCChars.sol:BCChars",
            "label": "id",
            "offset": 0,
            "slot": "1",
            "type": "t_uint256"
          },
          {
            "astId": 10777,
            "contract": "contracts/BCChars.sol:BCChars",
            "label": "uifID",
            "offset": 0,
            "slot": "2",
            "type": "t_uint256"
          },
          {
            "astId": 10780,
            "contract": "contracts/BCChars.sol:BCChars",
            "label": "traits",
            "offset": 0,
            "slot": "3",
            "type": "t_struct(Traits)10771_storage"
          },
          {
            "astId": 10782,
            "contract": "contracts/BCChars.sol:BCChars",
            "label": "cloneNumber",
            "offset": 0,
            "slot": "4",
            "type": "t_uint8"
          },
          {
            "astId": 10784,
            "contract": "contracts/BCChars.sol:BCChars",
            "label": "maxClones",
            "offset": 1,
            "slot": "4",
            "type": "t_uint8"
          },
          {
            "astId": 10786,
            "contract": "contracts/BCChars.sol:BCChars",
            "label": "ability",
            "offset": 2,
            "slot": "4",
            "type": "t_uint8"
          },
          {
            "astId": 10788,
            "contract": "contracts/BCChars.sol:BCChars",
            "label": "flaw",
            "offset": 3,
            "slot": "4",
            "type": "t_uint8"
          },
          {
            "astId": 10790,
            "contract": "contracts/BCChars.sol:BCChars",
            "label": "inGame",
            "offset": 4,
            "slot": "4",
            "type": "t_bool"
          }
        ],
        "numberOfBytes": "160"
      },
      "t_struct(Traits)10771_storage": {
        "encoding": "inplace",
        "label": "struct BCTypes.Traits",
        "members": [
          {
            "astId": 10758,
            "contract": "contracts/BCChars.sol:BCChars",
            "label": "health",
            "offset": 0,
            "slot": "0",
            "type": "t_int8"
          },
          {
            "astId": 10760,
            "contract": "contracts/BCChars.sol:BCChars",
            "label": "carry",
            "offset": 1,
            "slot": "0",
            "type": "t_int8"
          },
          {
            "astId": 10762,
            "contract": "contracts/BCChars.sol:BCChars",
            "label": "defense",
            "offset": 2,
            "slot": "0",
            "type": "t_int8"
          },
          {
            "astId": 10764,
            "contract": "contracts/BCChars.sol:BCChars",
            "label": "hack",
            "offset": 3,
            "slot": "0",
            "type": "t_int8"
          },
          {
            "astId": 10766,
            "contract": "contracts/BCChars.sol:BCChars",
            "label": "breach",
            "offset": 4,
            "slot": "0",
            "type": "t_int8"
          },
          {
            "astId": 10768,
            "contract": "contracts/BCChars.sol:BCChars",
            "label": "shoot",
            "offset": 5,
            "slot": "0",
            "type": "t_int8"
          },
          {
            "astId": 10770,
            "contract": "contracts/BCChars.sol:BCChars",
            "label": "melee",
            "offset": 6,
            "slot": "0",
            "type": "t_int8"
          }
        ],
        "numberOfBytes": "32"
      },
      "t_uint256": {
        "encoding": "inplace",
        "label": "uint256",
        "numberOfBytes": "32"
      },
      "t_uint8": {
        "encoding": "inplace",
        "label": "uint8",
        "numberOfBytes": "1"
      }
    }
  }
}