{
  "address": "0x6A8A2B8556697Fe9CaCad3b5c23853b5af31F6AB",
  "abi": [
    {
      "inputs": [],
      "stateMutability": "nonpayable",
      "type": "constructor"
    },
    {
      "anonymous": false,
      "inputs": [
        {
          "indexed": true,
          "internalType": "uint256",
          "name": "gameId",
          "type": "uint256"
        },
        {
          "indexed": false,
          "internalType": "uint256",
          "name": "roll",
          "type": "uint256"
        },
        {
          "indexed": false,
          "internalType": "uint256",
          "name": "forValue",
          "type": "uint256"
        },
        {
          "indexed": false,
          "internalType": "uint256",
          "name": "against",
          "type": "uint256"
        }
      ],
      "name": "ChallengeEvent",
      "type": "event"
    },
    {
      "anonymous": false,
      "inputs": [
        {
          "indexed": true,
          "internalType": "uint256",
          "name": "gameId",
          "type": "uint256"
        },
        {
          "indexed": false,
          "internalType": "uint256",
          "name": "roll",
          "type": "uint256"
        }
      ],
      "name": "DiceRollEvent",
      "type": "event"
    },
    {
      "anonymous": false,
      "inputs": [
        {
          "indexed": true,
          "internalType": "address",
          "name": "previousOwner",
          "type": "address"
        },
        {
          "indexed": true,
          "internalType": "address",
          "name": "newOwner",
          "type": "address"
        }
      ],
      "name": "OwnershipTransferred",
      "type": "event"
    },
    {
      "anonymous": false,
      "inputs": [],
      "name": "Received",
      "type": "event"
    },
    {
      "inputs": [
        {
          "internalType": "uint256",
          "name": "_matic",
          "type": "uint256"
        }
      ],
      "name": "SetEnlistCostInMatic",
      "outputs": [],
      "stateMutability": "nonpayable",
      "type": "function"
    },
    {
      "inputs": [
        {
          "internalType": "uint256",
          "name": "_matic",
          "type": "uint256"
        }
      ],
      "name": "SetMintCostInMatic",
      "outputs": [],
      "stateMutability": "nonpayable",
      "type": "function"
    },
    {
      "inputs": [],
      "name": "breachCap",
      "outputs": [
        {
          "internalType": "uint8",
          "name": "",
          "type": "uint8"
        }
      ],
      "stateMutability": "view",
      "type": "function"
    },
    {
      "inputs": [],
      "name": "carryCap",
      "outputs": [
        {
          "internalType": "uint8",
          "name": "",
          "type": "uint8"
        }
      ],
      "stateMutability": "view",
      "type": "function"
    },
    {
      "inputs": [
        {
          "internalType": "uint256",
          "name": "",
          "type": "uint256"
        }
      ],
      "name": "characters",
      "outputs": [
        {
          "internalType": "bytes32",
          "name": "genHash",
          "type": "bytes32"
        },
        {
          "internalType": "uint256",
          "name": "id",
          "type": "uint256"
        },
        {
          "internalType": "uint256",
          "name": "uifID",
          "type": "uint256"
        },
        {
          "components": [
            {
              "internalType": "int8",
              "name": "health",
              "type": "int8"
            },
            {
              "internalType": "int8",
              "name": "carry",
              "type": "int8"
            },
            {
              "internalType": "int8",
              "name": "defense",
              "type": "int8"
            },
            {
              "internalType": "int8",
              "name": "hack",
              "type": "int8"
            },
            {
              "internalType": "int8",
              "name": "breach",
              "type": "int8"
            },
            {
              "internalType": "int8",
              "name": "shoot",
              "type": "int8"
            },
            {
              "internalType": "int8",
              "name": "melee",
              "type": "int8"
            },
            {
              "internalType": "bool",
              "name": "hasGun",
              "type": "bool"
            }
          ],
          "internalType": "struct BCTypes.Traits",
          "name": "traits",
          "type": "tuple"
        },
        {
          "internalType": "uint8",
          "name": "cloneNumber",
          "type": "uint8"
        },
        {
          "internalType": "uint8",
          "name": "maxClones",
          "type": "uint8"
        },
        {
          "internalType": "uint8",
          "name": "ability",
          "type": "uint8"
        },
        {
          "internalType": "uint8",
          "name": "flaw",
          "type": "uint8"
        },
        {
          "internalType": "bool",
          "name": "inGame",
          "type": "bool"
        },
        {
          "internalType": "uint256",
          "name": "gameId",
          "type": "uint256"
        }
      ],
      "stateMutability": "view",
      "type": "function"
    },
    {
      "inputs": [],
      "name": "decantNewClone",
      "outputs": [],
      "stateMutability": "payable",
      "type": "function"
    },
    {
      "inputs": [],
      "name": "defenseCap",
      "outputs": [
        {
          "internalType": "uint8",
          "name": "",
          "type": "uint8"
        }
      ],
      "stateMutability": "view",
      "type": "function"
    },
    {
      "inputs": [
        {
          "internalType": "uint256",
          "name": "_charId",
          "type": "uint256"
        },
        {
          "internalType": "uint256[]",
          "name": "_itemIds",
          "type": "uint256[]"
        }
      ],
      "name": "enlistChar",
      "outputs": [],
      "stateMutability": "payable",
      "type": "function"
    },
    {
      "inputs": [],
      "name": "enlistCost",
      "outputs": [
        {
          "internalType": "uint256",
          "name": "",
          "type": "uint256"
        }
      ],
      "stateMutability": "view",
      "type": "function"
    },
    {
      "inputs": [
        {
          "internalType": "uint256",
          "name": "_charId",
          "type": "uint256"
        },
        {
          "internalType": "uint256[]",
          "name": "_itemIds",
          "type": "uint256[]"
        }
      ],
      "name": "enlistSolo",
      "outputs": [],
      "stateMutability": "payable",
      "type": "function"
    },
    {
      "inputs": [
        {
          "internalType": "uint256",
          "name": "_charId",
          "type": "uint256"
        }
      ],
      "name": "extGetChar",
      "outputs": [
        {
          "components": [
            {
              "internalType": "bytes32",
              "name": "genHash",
              "type": "bytes32"
            },
            {
              "internalType": "uint256",
              "name": "id",
              "type": "uint256"
            },
            {
              "internalType": "uint256",
              "name": "uifID",
              "type": "uint256"
            },
            {
              "components": [
                {
                  "internalType": "int8",
                  "name": "health",
                  "type": "int8"
                },
                {
                  "internalType": "int8",
                  "name": "carry",
                  "type": "int8"
                },
                {
                  "internalType": "int8",
                  "name": "defense",
                  "type": "int8"
                },
                {
                  "internalType": "int8",
                  "name": "hack",
                  "type": "int8"
                },
                {
                  "internalType": "int8",
                  "name": "breach",
                  "type": "int8"
                },
                {
                  "internalType": "int8",
                  "name": "shoot",
                  "type": "int8"
                },
                {
                  "internalType": "int8",
                  "name": "melee",
                  "type": "int8"
                },
                {
                  "internalType": "bool",
                  "name": "hasGun",
                  "type": "bool"
                }
              ],
              "internalType": "struct BCTypes.Traits",
              "name": "traits",
              "type": "tuple"
            },
            {
              "internalType": "uint8",
              "name": "cloneNumber",
              "type": "uint8"
            },
            {
              "internalType": "uint8",
              "name": "maxClones",
              "type": "uint8"
            },
            {
              "internalType": "uint8",
              "name": "ability",
              "type": "uint8"
            },
            {
              "internalType": "uint8",
              "name": "flaw",
              "type": "uint8"
            },
            {
              "internalType": "bool",
              "name": "inGame",
              "type": "bool"
            },
            {
              "internalType": "uint256",
              "name": "gameId",
              "type": "uint256"
            }
          ],
          "internalType": "struct BCTypes.Character",
          "name": "",
          "type": "tuple"
        }
      ],
      "stateMutability": "view",
      "type": "function"
    },
    {
      "inputs": [],
      "name": "gamesContract",
      "outputs": [
        {
          "internalType": "address",
          "name": "",
          "type": "address"
        }
      ],
      "stateMutability": "view",
      "type": "function"
    },
    {
      "inputs": [
        {
          "internalType": "address",
          "name": "_address",
          "type": "address"
        }
      ],
      "name": "getAllCharsByOwner",
      "outputs": [
        {
          "components": [
            {
              "internalType": "bytes32",
              "name": "genHash",
              "type": "bytes32"
            },
            {
              "internalType": "uint256",
              "name": "id",
              "type": "uint256"
            },
            {
              "internalType": "uint256",
              "name": "uifID",
              "type": "uint256"
            },
            {
              "components": [
                {
                  "internalType": "int8",
                  "name": "health",
                  "type": "int8"
                },
                {
                  "internalType": "int8",
                  "name": "carry",
                  "type": "int8"
                },
                {
                  "internalType": "int8",
                  "name": "defense",
                  "type": "int8"
                },
                {
                  "internalType": "int8",
                  "name": "hack",
                  "type": "int8"
                },
                {
                  "internalType": "int8",
                  "name": "breach",
                  "type": "int8"
                },
                {
                  "internalType": "int8",
                  "name": "shoot",
                  "type": "int8"
                },
                {
                  "internalType": "int8",
                  "name": "melee",
                  "type": "int8"
                },
                {
                  "internalType": "bool",
                  "name": "hasGun",
                  "type": "bool"
                }
              ],
              "internalType": "struct BCTypes.Traits",
              "name": "traits",
              "type": "tuple"
            },
            {
              "internalType": "uint8",
              "name": "cloneNumber",
              "type": "uint8"
            },
            {
              "internalType": "uint8",
              "name": "maxClones",
              "type": "uint8"
            },
            {
              "internalType": "uint8",
              "name": "ability",
              "type": "uint8"
            },
            {
              "internalType": "uint8",
              "name": "flaw",
              "type": "uint8"
            },
            {
              "internalType": "bool",
              "name": "inGame",
              "type": "bool"
            },
            {
              "internalType": "uint256",
              "name": "gameId",
              "type": "uint256"
            }
          ],
          "internalType": "struct BCTypes.Character[]",
          "name": "",
          "type": "tuple[]"
        }
      ],
      "stateMutability": "view",
      "type": "function"
    },
    {
      "inputs": [
        {
          "internalType": "uint256",
          "name": "_gameId",
          "type": "uint256"
        }
      ],
      "name": "getEventBlocks",
      "outputs": [
        {
          "internalType": "uint256[]",
          "name": "",
          "type": "uint256[]"
        }
      ],
      "stateMutability": "view",
      "type": "function"
    },
    {
      "inputs": [
        {
          "internalType": "uint256",
          "name": "_direction",
          "type": "uint256"
        },
        {
          "components": [
            {
              "internalType": "uint8",
              "name": "row",
              "type": "uint8"
            },
            {
              "internalType": "uint8",
              "name": "col",
              "type": "uint8"
            }
          ],
          "internalType": "struct BCTypes.Position",
          "name": "_start",
          "type": "tuple"
        }
      ],
      "name": "getNeighborRoom",
      "outputs": [
        {
          "components": [
            {
              "internalType": "uint8",
              "name": "row",
              "type": "uint8"
            },
            {
              "internalType": "uint8",
              "name": "col",
              "type": "uint8"
            }
          ],
          "internalType": "struct BCTypes.Position",
          "name": "",
          "type": "tuple"
        }
      ],
      "stateMutability": "pure",
      "type": "function"
    },
    {
      "inputs": [
        {
          "internalType": "uint256",
          "name": "_traitNum",
          "type": "uint256"
        },
        {
          "internalType": "uint256",
          "name": "_subTraitNum",
          "type": "uint256"
        }
      ],
      "name": "getUIOffset",
      "outputs": [
        {
          "internalType": "uint256",
          "name": "",
          "type": "uint256"
        }
      ],
      "stateMutability": "pure",
      "type": "function"
    },
    {
      "inputs": [],
      "name": "hackCap",
      "outputs": [
        {
          "internalType": "uint8",
          "name": "",
          "type": "uint8"
        }
      ],
      "stateMutability": "view",
      "type": "function"
    },
    {
      "inputs": [],
      "name": "healthCap",
      "outputs": [
        {
          "internalType": "uint8",
          "name": "",
          "type": "uint8"
        }
      ],
      "stateMutability": "view",
      "type": "function"
    },
    {
      "inputs": [
        {
          "internalType": "uint256",
          "name": "_charId",
          "type": "uint256"
        }
      ],
      "name": "incrementCloneNumber",
      "outputs": [],
      "stateMutability": "nonpayable",
      "type": "function"
    },
    {
      "inputs": [
        {
          "internalType": "uint256",
          "name": "_charId",
          "type": "uint256"
        },
        {
          "internalType": "uint256",
          "name": "_uifID",
          "type": "uint256"
        }
      ],
      "name": "injectCHARUII",
      "outputs": [],
      "stateMutability": "nonpayable",
      "type": "function"
    },
    {
      "inputs": [
        {
          "internalType": "uint256",
          "name": "_gameId",
          "type": "uint256"
        },
        {
          "internalType": "uint256",
          "name": "_charId",
          "type": "uint256"
        }
      ],
      "name": "joinGame",
      "outputs": [],
      "stateMutability": "nonpayable",
      "type": "function"
    },
    {
      "inputs": [
        {
          "internalType": "uint256",
          "name": "_charId",
          "type": "uint256"
        }
      ],
      "name": "leaveGame",
      "outputs": [],
      "stateMutability": "nonpayable",
      "type": "function"
    },
    {
      "inputs": [],
      "name": "lobbies",
      "outputs": [
        {
          "internalType": "contract LobbyInterface",
          "name": "",
          "type": "address"
        }
      ],
      "stateMutability": "view",
      "type": "function"
    },
    {
      "inputs": [],
      "name": "maxClonesCap",
      "outputs": [
        {
          "internalType": "uint8",
          "name": "",
          "type": "uint8"
        }
      ],
      "stateMutability": "view",
      "type": "function"
    },
    {
      "inputs": [],
      "name": "meleeCap",
      "outputs": [
        {
          "internalType": "uint8",
          "name": "",
          "type": "uint8"
        }
      ],
      "stateMutability": "view",
      "type": "function"
    },
    {
      "inputs": [],
      "name": "mintCost",
      "outputs": [
        {
          "internalType": "uint256",
          "name": "",
          "type": "uint256"
        }
      ],
      "stateMutability": "view",
      "type": "function"
    },
    {
      "inputs": [],
      "name": "mintIsActive",
      "outputs": [
        {
          "internalType": "bool",
          "name": "",
          "type": "bool"
        }
      ],
      "stateMutability": "view",
      "type": "function"
    },
    {
      "inputs": [
        {
          "internalType": "uint256",
          "name": "_min",
          "type": "uint256"
        },
        {
          "internalType": "uint256",
          "name": "_max",
          "type": "uint256"
        },
        {
          "internalType": "uint256",
          "name": "_val",
          "type": "uint256"
        },
        {
          "internalType": "uint256",
          "name": "_valMax",
          "type": "uint256"
        }
      ],
      "name": "normalizeToSmallRange",
      "outputs": [
        {
          "internalType": "uint8",
          "name": "",
          "type": "uint8"
        }
      ],
      "stateMutability": "pure",
      "type": "function"
    },
    {
      "inputs": [
        {
          "internalType": "address",
          "name": "_operator",
          "type": "address"
        },
        {
          "internalType": "address",
          "name": "_from",
          "type": "address"
        },
        {
          "internalType": "uint256",
          "name": "_tokenId",
          "type": "uint256"
        },
        {
          "internalType": "bytes",
          "name": "_data",
          "type": "bytes"
        }
      ],
      "name": "onERC721Received",
      "outputs": [
        {
          "internalType": "bytes4",
          "name": "",
          "type": "bytes4"
        }
      ],
      "stateMutability": "nonpayable",
      "type": "function"
    },
    {
      "inputs": [],
      "name": "owner",
      "outputs": [
        {
          "internalType": "address",
          "name": "",
          "type": "address"
        }
      ],
      "stateMutability": "view",
      "type": "function"
    },
    {
      "inputs": [],
      "name": "playersAddress",
      "outputs": [
        {
          "internalType": "address",
          "name": "",
          "type": "address"
        }
      ],
      "stateMutability": "view",
      "type": "function"
    },
    {
      "inputs": [],
      "name": "renounceOwnership",
      "outputs": [],
      "stateMutability": "nonpayable",
      "type": "function"
    },
    {
      "inputs": [
        {
          "internalType": "uint256",
          "name": "_gameId",
          "type": "uint256"
        },
        {
          "internalType": "uint256",
          "name": "_for",
          "type": "uint256"
        },
        {
          "internalType": "uint256",
          "name": "_against",
          "type": "uint256"
        }
      ],
      "name": "resolveChallenge",
      "outputs": [
        {
          "internalType": "bool",
          "name": "",
          "type": "bool"
        }
      ],
      "stateMutability": "nonpayable",
      "type": "function"
    },
    {
      "inputs": [
        {
          "internalType": "uint256",
          "name": "_charId",
          "type": "uint256"
        }
      ],
      "name": "returnChar",
      "outputs": [],
      "stateMutability": "nonpayable",
      "type": "function"
    },
    {
      "inputs": [
        {
          "internalType": "uint256",
          "name": "_gameId",
          "type": "uint256"
        }
      ],
      "name": "roll",
      "outputs": [
        {
          "internalType": "uint256",
          "name": "",
          "type": "uint256"
        }
      ],
      "stateMutability": "nonpayable",
      "type": "function"
    },
    {
      "inputs": [
        {
          "internalType": "address",
          "name": "_lobbyContractAddress",
          "type": "address"
        },
        {
          "internalType": "address",
          "name": "_gameContract",
          "type": "address"
        },
        {
          "internalType": "address",
          "name": "_UIFAddress",
          "type": "address"
        },
        {
          "internalType": "address",
          "name": "_playersAddress",
          "type": "address"
        }
      ],
      "name": "setContractAddresses",
      "outputs": [],
      "stateMutability": "nonpayable",
      "type": "function"
    },
    {
      "inputs": [
        {
          "internalType": "bool",
          "name": "_status",
          "type": "bool"
        }
      ],
      "name": "setMintingStatus",
      "outputs": [],
      "stateMutability": "nonpayable",
      "type": "function"
    },
    {
      "inputs": [],
      "name": "shootCap",
      "outputs": [
        {
          "internalType": "uint8",
          "name": "",
          "type": "uint8"
        }
      ],
      "stateMutability": "view",
      "type": "function"
    },
    {
      "inputs": [
        {
          "internalType": "bytes32",
          "name": "_hash",
          "type": "bytes32"
        },
        {
          "internalType": "uint256",
          "name": "_size",
          "type": "uint256"
        },
        {
          "internalType": "uint256",
          "name": "_offset",
          "type": "uint256"
        }
      ],
      "name": "sliceHashToSmallInt",
      "outputs": [
        {
          "internalType": "uint8",
          "name": "",
          "type": "uint8"
        }
      ],
      "stateMutability": "pure",
      "type": "function"
    },
    {
      "inputs": [
        {
          "internalType": "uint8",
          "name": "_min",
          "type": "uint8"
        },
        {
          "internalType": "uint8",
          "name": "_max",
          "type": "uint8"
        }
      ],
      "name": "smallIntBetweenVals",
      "outputs": [
        {
          "internalType": "uint8",
          "name": "",
          "type": "uint8"
        }
      ],
      "stateMutability": "nonpayable",
      "type": "function"
    },
    {
      "inputs": [],
      "name": "soloCost",
      "outputs": [
        {
          "internalType": "uint256",
          "name": "",
          "type": "uint256"
        }
      ],
      "stateMutability": "view",
      "type": "function"
    },
    {
      "inputs": [],
      "name": "transferFundsOut",
      "outputs": [],
      "stateMutability": "nonpayable",
      "type": "function"
    },
    {
      "inputs": [
        {
          "internalType": "address",
          "name": "newOwner",
          "type": "address"
        }
      ],
      "name": "transferOwnership",
      "outputs": [],
      "stateMutability": "nonpayable",
      "type": "function"
    },
    {
      "inputs": [],
      "name": "uif",
      "outputs": [
        {
          "internalType": "contract UIFInterface",
          "name": "",
          "type": "address"
        }
      ],
      "stateMutability": "view",
      "type": "function"
    },
    {
      "inputs": [],
      "name": "uifCost",
      "outputs": [
        {
          "internalType": "uint256",
          "name": "",
          "type": "uint256"
        }
      ],
      "stateMutability": "view",
      "type": "function"
    }
  ],
  "transactionHash": "0x3d1b6203243bb9b0ed3436807306eed3b5819d04a611ab37f42c70e85ab2c5e6",
  "args": [],
  "numDeployments": 1,
  "solcInputHash": "53343237385e44ecb26c93379ee6715d",
  "bytecode": "0x60806040526000600155655af3107a40006007819055662386f26fc1000060085564174876e800600955620000369060056200037e565b600a55600b80546001600160581b0319166a0a0a6404040404040504011790553480156200006357600080fd5b506200006f336200032e565b6200010460408051610140810182526000808252602080830182905282840182905283516101008101855282815290810182905292830181905260608381018290526080840182905260a0840182905260c0840182905260e0840191909152909190820190815260006020820181905260408201819052606082018190526080820181905260a0820181905260c09091015290565b600c81908060018154018082558091505060019003906000526020600020906006020160009091909190915060008201518160000155602082015181600101556040820151816002015560608201518160030160008201518160000160006101000a81548160ff021916908360000b60ff16021790555060208201518160000160016101000a81548160ff021916908360000b60ff16021790555060408201518160000160026101000a81548160ff021916908360000b60ff16021790555060608201518160000160036101000a81548160ff021916908360000b60ff16021790555060808201518160000160046101000a81548160ff021916908360000b60ff16021790555060a08201518160000160056101000a81548160ff021916908360000b60ff16021790555060c08201518160000160066101000a81548160ff021916908360000b60ff16021790555060e08201518160000160076101000a81548160ff021916908315150217905550505060808201518160040160006101000a81548160ff021916908360ff16021790555060a08201518160040160016101000a81548160ff021916908360ff16021790555060c08201518160040160026101000a81548160ff021916908360ff16021790555060e08201518160040160036101000a81548160ff021916908360ff1602179055506101008201518160040160046101000a81548160ff0219169083151502179055506101208201518160050155505050620003aa565b600080546001600160a01b038381166001600160a01b0319831681178455604051919092169283917f8be0079c531659141344cd1fd0a4f28419497f9722a3daafe3b4186f6b6457e09190a35050565b8082028115828204841417620003a457634e487b7160e01b600052601160045260246000fd5b92915050565b6130ee80620003ba6000396000f3fe6080604052600436106102725760003560e01c80636362fe421161014f57806397f34c3f116100c1578063bb999a001161007a578063bb999a00146107ce578063bdb4b848146107e1578063cbfb2388146107f7578063ce28613f14610818578063f2fde38b14610838578063fdcadf811461085857600080fd5b806397f34c3f14610734578063aaa6877714610754578063aabc100f14610774578063b60b9fcb14610787578063b926be2a146107a7578063ba1ee7cf146107c657600080fd5b8063715018a611610113578063715018a61461065f578063733882b7146106745780637420aa361461069557806384c38c8b146106b55780638da5cb5b146106d5578063951fc3fe146106f357600080fd5b80636362fe42146105b257806364db84bf146105df5780636963c568146105ff5780636d6ba7561461061f578063705498dc1461063f57600080fd5b80633feef58a116101e85780634810bc59116101ac5780634810bc59146104d5578063501f97841461050b578063530116961461052b5780635dc969671461054b5780635ee38b2f1461056b5780636284ef2c1461059157600080fd5b80633feef58a1461043e57806342f037451461045e57806345de18b814610474578063471a429414610495578063471fa53a146104bf57600080fd5b8063150b7a021161023a578063150b7a0214610350578063154fa27a146103895780631f7b4f30146103a95780633838aed1146103d757806339a54a30146103ec5780633f6becfa1461041f57600080fd5b80630364f88c1461027757806303b414e4146102b457806303fc4948146102d45780630e73c02414610301578063149d2f811461032e575b600080fd5b34801561028357600080fd5b50600354610297906001600160a01b031681565b6040516001600160a01b0390911681526020015b60405180910390f35b3480156102c057600080fd5b50600654610297906001600160a01b031681565b3480156102e057600080fd5b506102f46102ef3660046127a9565b61086e565b6040516102ab91906128a2565b34801561030d57600080fd5b5061032161031c3660046127a9565b6109a6565b6040516102ab91906128ec565b34801561033a57600080fd5b5061034e6103493660046127a9565b6109c6565b005b34801561035c57600080fd5b5061037061036b366004612914565b610a44565b6040516001600160e01b031990911681526020016102ab565b34801561039557600080fd5b50600454610297906001600160a01b031681565b3480156103b557600080fd5b506103c96103c43660046127a9565b610a81565b6040519081526020016102ab565b3480156103e357600080fd5b5061034e610ad5565b3480156103f857600080fd5b50600b5461040d90600160201b900460ff1681565b60405160ff90911681526020016102ab565b34801561042b57600080fd5b5061034e61043a3660046129b3565b5050565b34801561044a57600080fd5b5061034e6104593660046127a9565b610b17565b34801561046a57600080fd5b506103c9600a5481565b34801561048057600080fd5b50600b5461040d90600160381b900460ff1681565b3480156104a157600080fd5b50600b546104af9060ff1681565b60405190151581526020016102ab565b3480156104cb57600080fd5b506103c960095481565b3480156104e157600080fd5b506104f56104f03660046127a9565b610bd0565b6040516102ab9a999897969594939291906129d5565b34801561051757600080fd5b5061034e6105263660046127a9565b610cb1565b34801561053757600080fd5b5061040d610546366004612a38565b610cd1565b34801561055757600080fd5b506104af610566366004612a6a565b610d0e565b34801561057757600080fd5b50600b5461040d9068010000000000000000900460ff1681565b34801561059d57600080fd5b50600b5461040d906301000000900460ff1681565b3480156105be57600080fd5b506105d26105cd366004612a96565b610da6565b6040516102ab9190612ab3565b3480156105eb57600080fd5b506103c96105fa3660046129b3565b610fb0565b34801561060b57600080fd5b50600b5461040d9062010000900460ff1681565b34801561062b57600080fd5b5061034e61063a3660046127a9565b610fc8565b34801561064b57600080fd5b50600554610297906001600160a01b031681565b34801561066b57600080fd5b5061034e61106a565b34801561068057600080fd5b50600b5461040d90600160301b900460ff1681565b3480156106a157600080fd5b5061034e6106b0366004612b02565b61107e565b3480156106c157600080fd5b5061034e6106d03660046127a9565b611099565b3480156106e157600080fd5b506000546001600160a01b0316610297565b3480156106ff57600080fd5b5061071361070e366004612b81565b6110b9565b60408051825160ff90811682526020938401511692810192909252016102ab565b34801561074057600080fd5b5061040d61074f366004612a6a565b6111e3565b34801561076057600080fd5b5061034e61076f366004612bfc565b61120e565b61034e610782366004612c58565b611266565b34801561079357600080fd5b5061034e6107a23660046129b3565b611614565b3480156107b357600080fd5b50600b5461040d90610100900460ff1681565b61034e611690565b61034e6107dc366004612c58565b611d25565b3480156107ed57600080fd5b506103c960085481565b34801561080357600080fd5b50600b5461040d90600160281b900460ff1681565b34801561082457600080fd5b5061040d610833366004612d0a565b61209b565b34801561084457600080fd5b5061034e610853366004612a96565b61214b565b34801561086457600080fd5b506103c960075481565b610876612718565b600c828154811061088957610889612d3d565b60009182526020808320604080516101408101825260069094029091018054845260018101548484015260028101548483015281516101008082018452600383015480880b8352818104880b9583019590955262010000808604880b948301949094526301000000808604880b606084810191909152600160201b8088048a0b608080870191909152600160281b89048b0b60a080880191909152600160301b8a04909b0b60c08088019190915260ff600160381b909a048a16151560e080890191909152938b01969096526004870154808a16918b019190915284810489169a8a019a909a5295890487169388019390935287048516918601919091529190940490911615159082015260059091015461012082015292915050565b60008181526002602052604090206060906109c0906121c1565b92915050565b600c81815481106109d9576109d9612d3d565b6000918252602090912060069091020160040154600160201b900460ff1615610a385760405162461bcd60e51b815260206004820152600c60248201526b4368617220696e2067616d6560a01b60448201526064015b60405180910390fd5b610a41816121ce565b50565b6040516000907f544c765b33ca411cce832250371569244f765a17fcd217832be093f0fd5fa45b908290a150630a85bd0160e11b95945050505050565b600080610a906001600661209b565b60ff169050827ffe34d093a460a16ee5fb374540914d1c734a17502c0c1a87b387c8d6097e1c5182604051610ac791815260200190565b60405180910390a292915050565b610add612408565b600080546040516001600160a01b03909116914780156108fc02929091818181858888f19350505050158015610a41573d6000803e3d6000fd5b6004546001600160a01b03163314610b665760405162461bcd60e51b8152602060048201526012602482015271139bdd0819d85b595cc818dbdb9d1c9858dd60721b6044820152606401610a2f565b6000600c8281548110610b7b57610b7b612d3d565b906000526020600020906006020160040160046101000a81548160ff0219169083151502179055506000600c8281548110610bb857610bb8612d3d565b90600052602060002090600602016005018190555050565b600c8181548110610be057600080fd5b6000918252602080832060069092029091018054600182015460028301546040805161010080820183526003870154808a0b83528181048a0b98830198909852620100008089048a0b9383019390935263010000008089048a0b6060840152600160201b808a048b0b6080850152600160281b8a048b0b60a0850152600160301b8a04909a0b60c084015260ff600160381b9099048916151560e08401526004880154600590980154969a50949893979196808316969181048316959381048316949381048316939004909116908a565b610cb9612408565b610ccb81670de0b6b3a7640000612d69565b60085550565b600080610cde8686612d80565b9050600083610ced8684612d69565b610cf79190612da9565b9050610d038782612dbd565b979650505050505050565b600080610d1a85610a81565b604080518281526020810187905290810185905290915085907f75b6a8325595f91135e07382840634226793c68c9e59623da7e10d7ad3d95b959060600160405180910390a280600103610d72576000915050610d9f565b600383610d7f8684612dbd565b610d899190612dd0565b1315610d99576001915050610d9f565b60009150505b9392505050565b6001600160a01b0381166000908152600d60205260408120606091610dca82612462565b67ffffffffffffffff811115610de257610de2612b24565b604051908082528060200260200182016040528015610e1b57816020015b610e08612718565b815260200190600190039081610e005790505b50905060005b8151811015610fa8576001600160a01b0385166000908152600d60205260409020600c90610e4f908361246c565b81548110610e5f57610e5f612d3d565b60009182526020808320604080516101408101825260069094029091018054845260018101548484015260028101548483015281516101008082018452600383015480880b8352818104880b9583019590955262010000808604880b948301949094526301000000808604880b606084810191909152600160201b8088048a0b608080870191909152600160281b89048b0b60a080880191909152600160301b8a04909b0b60c08088019190915260ff600160381b909a048a16151560e080890191909152938b01969096526004870154808a16918b019190915284810489169a8a019a909a529589048716938801939093528704851691860191909152919094049091161515908201526005909101546101208201528251839083908110610f8a57610f8a612d3d565b60200260200101819052508080610fa090612df7565b915050610e21565b509392505050565b600081610fbe846004612d69565b610d9f9190612dbd565b6006546001600160a01b0316331461101a5760405162461bcd60e51b815260206004820152601560248201527413db9b1e481c1b185e595c9cc818dbdb9d1c9858dd605a1b6044820152606401610a2f565b600c818154811061102d5761102d612d3d565b600091825260208220600460069092020101805460ff169161104e83612e10565b91906101000a81548160ff021916908360ff1602179055505050565b611072612408565b61107c6000612478565b565b611086612408565b600b805460ff1916911515919091179055565b6110a1612408565b6110b381670de0b6b3a7640000612d69565b60075550565b60408051808201909152600080825260208201528260000361110b576040518060400160405280600184600001516110f19190612e2f565b60ff168152602001836020015160ff1681525090506109c0565b8260010361112f576040518060400160405280836000015160016110f19190612e48565b8260020361116c576040518060400160405280836000015160ff168152602001836020015160016111609190612e48565b60ff16905290506109c0565b8260030361119d576040518060400160405280836000015160ff168152602001600184602001516111609190612e2f565b60006111a8846124c8565b6040516020016111b89190612e85565b60405160208183030381529060405290508060405162461bcd60e51b8152600401610a2f9190612eec565b6000808260016111f4866002612fe3565b6111fe9190612d80565b901b8516831c9150509392505050565b611216612408565b600380546001600160a01b039586166001600160a01b0319918216179091556004805494861694821694909417909355600580549285169284169290921790915560068054919093169116179055565b600554600c8054849284926001600160a01b03909116916395a81d4e91908590811061129457611294612d3d565b9060005260206000209060060201600201546040518263ffffffff1660e01b81526004016112c491815260200190565b602060405180830381865afa1580156112e1573d6000803e3d6000fd5b505050506040513d601f19601f820116820180604052508101906113059190612fef565b6001600160a01b0316336001600160a01b03161461135a5760405162461bcd60e51b81526020600482015260126024820152712737ba103cb7bab91031b430b930b1ba32b960711b6044820152606401610a2f565b600c828154811061136d5761136d612d3d565b6000918252602090912060069091020160040154600160201b900460ff16156113ca5760405162461bcd60e51b815260206004820152600f60248201526e416c726561647920696e2067616d6560881b6044820152606401610a2f565b600554600c80546001600160a01b0390921691636352211e9190859081106113f4576113f4612d3d565b9060005260206000209060060201600201546040518263ffffffff1660e01b815260040161142491815260200190565b602060405180830381865afa158015611441573d6000803e3d6000fd5b505050506040513d601f19601f820116820180604052508101906114659190612fef565b6001600160a01b0316306001600160a01b0316146114b65760405162461bcd60e51b815260206004820152600e60248201526d155252481b9bdd081b1bd859195960921b6044820152606401610a2f565b600c82815481106114c9576114c9612d3d565b906000526020600020906006020160030160000160019054906101000a900460000b60ff168151111561152f5760405162461bcd60e51b815260206004820152600e60248201526d546f6f206d616e79206974656d7360901b6044820152606401610a2f565b6000546001600160a01b0316331480611549575060075434145b6115655760405162461bcd60e51b8152600401610a2f9061300c565b6001600c858154811061157a5761157a612d3d565b60009182526020909120600460069092020181018054921515600160201b0264ff000000001990931692909217909155600354604051637b5e5bab60e11b81526001600160a01b039091169163f6bcb756916115dc9188913391899101613037565b600060405180830381600087803b1580156115f657600080fd5b505af115801561160a573d6000803e3d6000fd5b5050505050505050565b6004546001600160a01b031633146116635760405162461bcd60e51b8152602060048201526012602482015271139bdd0819d85b595cc818dbdb9d1c9858dd60721b6044820152606401610a2f565b81600c828154811061167757611677612d3d565b9060005260206000209060060201600501819055505050565b6000546001600160a01b03163314806116aa575060085434145b6116c65760405162461bcd60e51b8152600401610a2f9061300c565b6000546001600160a01b03163314806116e65750600b5460ff1615156001145b61172a5760405162461bcd60e51b81526020600482015260156024820152744d696e74696e67206973206e6f742061637469766560581b6044820152606401610a2f565b6005546009546040516309b6507f60e41b815260006004820181905260248201819052336044830152926001600160a01b031691639b6507f09160640160206040518083038185885af1158015611785573d6000803e3d6000fd5b50505050506040513d601f19601f820116820180604052508101906117aa9190613061565b600554604051632851838160e01b8152600481018390529192506000916001600160a01b0390911690632851838190602401602060405180830381865afa1580156117f9573d6000803e3d6000fd5b505050506040513d601f19601f8201168201806040525081019061181d9190613061565b9050600060405180610100016040528061186d6002600b60019054906101000a900460ff16600161184e9190612e48565b60ff1661186387600461074f600c6001610fb0565b60ff16600f610cd1565b60000b81526020016118ab6003600b60029054906101000a900460ff1660016118969190612e48565b60ff1661186387600461074f600a6002610fb0565b60000b81526020016118e96002600b60039054906101000a900460ff1660016118d49190612e48565b60ff1661186387600461074f600c6000610fb0565b60000b81526020016119276002600b60049054906101000a900460ff1660016119129190612e48565b60ff1661186387600461074f600d6000610fb0565b60000b81526020016119656002600b60059054906101000a900460ff1660016119509190612e48565b60ff1661186387600461074f600a6001610fb0565b60000b81526020016119a36002600b60069054906101000a900460ff16600161198e9190612e48565b60ff1661186387600461074f600b6000610fb0565b60000b81526020016119e16002600b60079054906101000a900460ff1660016119cc9190612e48565b60ff1661186387600461074f600a6000610fb0565b60000b8152602001600015158152509050600c604051806101400160405280848152602001600c805490508152602001858152602001838152602001600060ff168152602001611a5b6000600b60089054906101000a900460ff1660ff16611a5188600861074f60036000610fb0565b60ff1660ff610cd1565b60ff168152602001611a8d6000600b60099054906101000a900460ff1660ff16611a5188600861074f60086000610fb0565b60ff168152602001611abf6000600b600a9054906101000a900460ff1660ff16611a5188600861074f60086002610fb0565b60ff1681526020016000151581526020016000815250908060018154018082558091505060019003906000526020600020906006020160009091909190915060008201518160000155602082015181600101556040820151816002015560608201518160030160008201518160000160006101000a81548160ff021916908360000b60ff16021790555060208201518160000160016101000a81548160ff021916908360000b60ff16021790555060408201518160000160026101000a81548160ff021916908360000b60ff16021790555060608201518160000160036101000a81548160ff021916908360000b60ff16021790555060808201518160000160046101000a81548160ff021916908360000b60ff16021790555060a08201518160000160056101000a81548160ff021916908360000b60ff16021790555060c08201518160000160066101000a81548160ff021916908360000b60ff16021790555060e08201518160000160076101000a81548160ff021916908315150217905550505060808201518160040160006101000a81548160ff021916908360ff16021790555060a08201518160040160016101000a81548160ff021916908360ff16021790555060c08201518160040160026101000a81548160ff021916908360ff16021790555060e08201518160040160036101000a81548160ff021916908360ff1602179055506101008201518160040160046101000a81548160ff02191690831515021790555061012082015181600501555050611d1f6001600c80549050611d0a9190612d80565b336000908152600d60205260409020906125d1565b50505050565b600554600c8054849284926001600160a01b03909116916395a81d4e919085908110611d5357611d53612d3d565b9060005260206000209060060201600201546040518263ffffffff1660e01b8152600401611d8391815260200190565b602060405180830381865afa158015611da0573d6000803e3d6000fd5b505050506040513d601f19601f82011682018060405250810190611dc49190612fef565b6001600160a01b0316336001600160a01b031614611e195760405162461bcd60e51b81526020600482015260126024820152712737ba103cb7bab91031b430b930b1ba32b960711b6044820152606401610a2f565b600c8281548110611e2c57611e2c612d3d565b6000918252602090912060069091020160040154600160201b900460ff1615611e895760405162461bcd60e51b815260206004820152600f60248201526e416c726561647920696e2067616d6560881b6044820152606401610a2f565b600554600c80546001600160a01b0390921691636352211e919085908110611eb357611eb3612d3d565b9060005260206000209060060201600201546040518263ffffffff1660e01b8152600401611ee391815260200190565b602060405180830381865afa158015611f00573d6000803e3d6000fd5b505050506040513d601f19601f82011682018060405250810190611f249190612fef565b6001600160a01b0316306001600160a01b031614611f755760405162461bcd60e51b815260206004820152600e60248201526d155252481b9bdd081b1bd859195960921b6044820152606401610a2f565b600c8281548110611f8857611f88612d3d565b906000526020600020906006020160030160000160019054906101000a900460000b60ff1681511115611fee5760405162461bcd60e51b815260206004820152600e60248201526d546f6f206d616e79206974656d7360901b6044820152606401610a2f565b6000546001600160a01b03163314806120085750600a5434145b6120245760405162461bcd60e51b8152600401610a2f9061300c565b6001600c858154811061203957612039612d3d565b60009182526020909120600460069092020181018054921515600160201b0264ff000000001990931692909217909155600354604051631f5e4de360e01b81526001600160a01b0390911691631f5e4de3916115dc9188913391899101613037565b60018054600091826120ac83612df7565b91905055506000336001546001436120c49190612d80565b60405160609390931b6bffffffffffffffffffffffff19166020840152603483019190915240605482015260740160408051601f198184030181529190528051602090910120905060006121188585612e2f565b612123906001612e48565b90508460ff168160ff1683612138919061307a565b6121429190612dbd565b95945050505050565b612153612408565b6001600160a01b0381166121b85760405162461bcd60e51b815260206004820152602660248201527f4f776e61626c653a206e6577206f776e657220697320746865207a65726f206160448201526564647265737360d01b6064820152608401610a2f565b610a4181612478565b60606000610d9f836125dd565b6121fa6040518060400160405280600a81526020016936b9b39739b2b73232b960b11b81525033612639565b604080518082018252601f81527f7569662e65787447657443757272656e744f776e6572285f636861724964290060208201526005549151634ad40ea760e11b8152600481018490526122a0926001600160a01b0316906395a81d4e90602401602060405180830381865afa158015612277573d6000803e3d6000fd5b505050506040513d601f19601f8201168201806040525081019061229b9190612fef565b612639565b600554604051634ad40ea760e11b8152600481018390526001600160a01b03909116906395a81d4e90602401602060405180830381865afa1580156122e9573d6000803e3d6000fd5b505050506040513d601f19601f8201168201806040525081019061230d9190612fef565b6001600160a01b0316336001600160a01b03161461235c5760405162461bcd60e51b815260206004820152600c60248201526b4e6f7420796f75722075696960a01b6044820152606401610a2f565b600554600c80546001600160a01b03909216916342842e0e9130913391908690811061238a5761238a612d3d565b60009182526020909120600260069092020101546040516001600160e01b031960e086901b1681526001600160a01b0393841660048201529290911660248301526044820152606401600060405180830381600087803b1580156123ed57600080fd5b505af1158015612401573d6000803e3d6000fd5b5050505050565b6000546001600160a01b0316331461107c5760405162461bcd60e51b815260206004820181905260248201527f4f776e61626c653a2063616c6c6572206973206e6f7420746865206f776e65726044820152606401610a2f565b60006109c0825490565b6000610d9f838361267e565b600080546001600160a01b038381166001600160a01b0319831681178455604051919092169283917f8be0079c531659141344cd1fd0a4f28419497f9722a3daafe3b4186f6b6457e09190a35050565b6060816000036124ef5750506040805180820190915260018152600360fc1b602082015290565b8160005b8115612519578061250381612df7565b91506125129050600a83612da9565b91506124f3565b60008167ffffffffffffffff81111561253457612534612b24565b6040519080825280601f01601f19166020018201604052801561255e576020820181803683370190505b5090505b84156125c957612573600183612d80565b9150612580600a8661307a565b61258b906030612dbd565b60f81b8183815181106125a0576125a0612d3d565b60200101906001600160f81b031916908160001a9053506125c2600a86612da9565b9450612562565b949350505050565b6000610d9f83836126a8565b60608160000180548060200260200160405190810160405280929190818152602001828054801561262d57602002820191906000526020600020905b815481526020019060010190808311612619575b50505050509050919050565b61043a828260405160240161264f92919061308e565b60408051601f198184030181529190526020810180516001600160e01b031663319af33360e01b1790526126f7565b600082600001828154811061269557612695612d3d565b9060005260206000200154905092915050565b60008181526001830160205260408120546126ef575081546001818101845560008481526020808220909301849055845484825282860190935260409020919091556109c0565b5060006109c0565b80516a636f6e736f6c652e6c6f67602083016000808483855afa5050505050565b60408051610140810182526000808252602080830182905282840182905283516101008101855282815290810182905292830181905260608381018290526080840182905260a0840182905260c0840182905260e0840191909152909190820190815260006020820181905260408201819052606082018190526080820181905260a0820181905260c09091015290565b6000602082840312156127bb57600080fd5b5035919050565b8051600081810b84526020830151810b60208501526040830151810b60408501526060830151810b60608501526080830151810b608085015260a0830151810b60a085015260c0830151810b60c0850152505060e0810151151560e08301525050565b805182526020810151602083015260408101516040830152606081015161284f60608401826127c2565b50608081015160ff90811661016084015260a0820151811661018084015260c082015181166101a084015260e0820151166101c083015261010081015115156101e0830152610120015161020090910152565b61022081016109c08284612825565b600081518084526020808501945080840160005b838110156128e1578151875295820195908201906001016128c5565b509495945050505050565b602081526000610d9f60208301846128b1565b6001600160a01b0381168114610a4157600080fd5b60008060008060006080868803121561292c57600080fd5b8535612937816128ff565b94506020860135612947816128ff565b935060408601359250606086013567ffffffffffffffff8082111561296b57600080fd5b818801915088601f83011261297f57600080fd5b81358181111561298e57600080fd5b8960208285010111156129a057600080fd5b9699959850939650602001949392505050565b600080604083850312156129c657600080fd5b50508035926020909101359150565b8a8152602081018a90526040810189905261022081016129f8606083018a6127c2565b60ff9788166101608301529587166101808201529386166101a0850152919094166101c08301529215156101e08201526102000191909152949350505050565b60008060008060808587031215612a4e57600080fd5b5050823594602084013594506040840135936060013592509050565b600080600060608486031215612a7f57600080fd5b505081359360208301359350604090920135919050565b600060208284031215612aa857600080fd5b8135610d9f816128ff565b6020808252825182820181905260009190848201906040850190845b81811015612af657612ae2838551612825565b928401926102209290920191600101612acf565b50909695505050505050565b600060208284031215612b1457600080fd5b81358015158114610d9f57600080fd5b634e487b7160e01b600052604160045260246000fd5b604051601f8201601f1916810167ffffffffffffffff81118282101715612b6357612b63612b24565b604052919050565b803560ff81168114612b7c57600080fd5b919050565b6000808284036060811215612b9557600080fd5b833592506040601f1982011215612bab57600080fd5b506040516040810181811067ffffffffffffffff82111715612bcf57612bcf612b24565b604052612bde60208501612b6b565b8152612bec60408501612b6b565b6020820152809150509250929050565b60008060008060808587031215612c1257600080fd5b8435612c1d816128ff565b93506020850135612c2d816128ff565b92506040850135612c3d816128ff565b91506060850135612c4d816128ff565b939692955090935050565b60008060408385031215612c6b57600080fd5b8235915060208084013567ffffffffffffffff80821115612c8b57600080fd5b818601915086601f830112612c9f57600080fd5b813581811115612cb157612cb1612b24565b8060051b9150612cc2848301612b3a565b8181529183018401918481019089841115612cdc57600080fd5b938501935b83851015612cfa57843582529385019390850190612ce1565b8096505050505050509250929050565b60008060408385031215612d1d57600080fd5b612d2683612b6b565b9150612d3460208401612b6b565b90509250929050565b634e487b7160e01b600052603260045260246000fd5b634e487b7160e01b600052601160045260246000fd5b80820281158282048414176109c0576109c0612d53565b818103818111156109c0576109c0612d53565b634e487b7160e01b600052601260045260246000fd5b600082612db857612db8612d93565b500490565b808201808211156109c0576109c0612d53565b8181036000831280158383131683831282161715612df057612df0612d53565b5092915050565b600060018201612e0957612e09612d53565b5060010190565b600060ff821660ff8103612e2657612e26612d53565b60010192915050565b60ff82811682821603908111156109c0576109c0612d53565b60ff81811683821601908111156109c0576109c0612d53565b60005b83811015612e7c578181015183820152602001612e64565b50506000910152565b72024b73b30b634b2103234b932b1ba34b7b71d1606d1b815260008251612eb3816013850160208701612e61565b9190910160130192915050565b60008151808452612ed8816020860160208601612e61565b601f01601f19169290920160200192915050565b602081526000610d9f6020830184612ec0565b600181815b80851115612f3a578160001904821115612f2057612f20612d53565b80851615612f2d57918102915b93841c9390800290612f04565b509250929050565b600082612f51575060016109c0565b81612f5e575060006109c0565b8160018114612f745760028114612f7e57612f9a565b60019150506109c0565b60ff841115612f8f57612f8f612d53565b50506001821b6109c0565b5060208310610133831016604e8410600b8410161715612fbd575081810a6109c0565b612fc78383612eff565b8060001904821115612fdb57612fdb612d53565b029392505050565b6000610d9f8383612f42565b60006020828403121561300157600080fd5b8151610d9f816128ff565b602080825260119082015270125b98dbdc9c9958dd081c185e5b595b9d607a1b604082015260600190565b8381526001600160a01b0383166020820152606060408201819052600090612142908301846128b1565b60006020828403121561307357600080fd5b5051919050565b60008261308957613089612d93565b500690565b6040815260006130a16040830185612ec0565b905060018060a01b0383166020830152939250505056fea2646970667358221220967baee21bbff78c9c45153500f3443dde406e8b93eaad732091cd8d8019c86264736f6c63430008110033",
  "devdoc": {
    "kind": "dev",
    "methods": {
      "owner()": {
        "details": "Returns the address of the current owner."
      },
      "renounceOwnership()": {
        "details": "Leaves the contract without owner. It will not be possible to call `onlyOwner` functions anymore. Can only be called by the current owner. NOTE: Renouncing ownership will leave the contract without an owner, thereby removing any functionality that is only available to the owner."
      },
      "transferOwnership(address)": {
        "details": "Transfers ownership of the contract to a new account (`newOwner`). Can only be called by the current owner."
      }
    },
    "version": 1
  },
  "userdoc": {
    "kind": "user",
    "methods": {},
    "version": 1
  },
  "storageLayout": {
    "storage": [
      {
        "astId": 7,
        "contract": "contracts/BCChars.sol:BCChars",
        "label": "_owner",
        "offset": 0,
        "slot": "0",
        "type": "t_address"
      },
      {
        "astId": 21289,
        "contract": "contracts/BCChars.sol:BCChars",
        "label": "TODO_randomSeed",
        "offset": 0,
        "slot": "1",
        "type": "t_uint256"
      },
      {
        "astId": 21294,
        "contract": "contracts/BCChars.sol:BCChars",
        "label": "gameToEventBlocks",
        "offset": 0,
        "slot": "2",
        "type": "t_mapping(t_uint256,t_struct(UintSet)2262_storage)"
      },
      {
        "astId": 4096,
        "contract": "contracts/BCChars.sol:BCChars",
        "label": "lobbies",
        "offset": 0,
        "slot": "3",
        "type": "t_contract(LobbyInterface)4040"
      },
      {
        "astId": 4098,
        "contract": "contracts/BCChars.sol:BCChars",
        "label": "gamesContract",
        "offset": 0,
        "slot": "4",
        "type": "t_address"
      },
      {
        "astId": 4101,
        "contract": "contracts/BCChars.sol:BCChars",
        "label": "uif",
        "offset": 0,
        "slot": "5",
        "type": "t_contract(UIFInterface)4081"
      },
      {
        "astId": 4103,
        "contract": "contracts/BCChars.sol:BCChars",
        "label": "playersAddress",
        "offset": 0,
        "slot": "6",
        "type": "t_address"
      },
      {
        "astId": 4144,
        "contract": "contracts/BCChars.sol:BCChars",
        "label": "enlistCost",
        "offset": 0,
        "slot": "7",
        "type": "t_uint256"
      },
      {
        "astId": 4151,
        "contract": "contracts/BCChars.sol:BCChars",
        "label": "mintCost",
        "offset": 0,
        "slot": "8",
        "type": "t_uint256"
      },
      {
        "astId": 4154,
        "contract": "contracts/BCChars.sol:BCChars",
        "label": "uifCost",
        "offset": 0,
        "slot": "9",
        "type": "t_uint256"
      },
      {
        "astId": 4159,
        "contract": "contracts/BCChars.sol:BCChars",
        "label": "soloCost",
        "offset": 0,
        "slot": "10",
        "type": "t_uint256"
      },
      {
        "astId": 4162,
        "contract": "contracts/BCChars.sol:BCChars",
        "label": "mintIsActive",
        "offset": 0,
        "slot": "11",
        "type": "t_bool"
      },
      {
        "astId": 4165,
        "contract": "contracts/BCChars.sol:BCChars",
        "label": "healthCap",
        "offset": 1,
        "slot": "11",
        "type": "t_uint8"
      },
      {
        "astId": 4168,
        "contract": "contracts/BCChars.sol:BCChars",
        "label": "carryCap",
        "offset": 2,
        "slot": "11",
        "type": "t_uint8"
      },
      {
        "astId": 4171,
        "contract": "contracts/BCChars.sol:BCChars",
        "label": "defenseCap",
        "offset": 3,
        "slot": "11",
        "type": "t_uint8"
      },
      {
        "astId": 4174,
        "contract": "contracts/BCChars.sol:BCChars",
        "label": "hackCap",
        "offset": 4,
        "slot": "11",
        "type": "t_uint8"
      },
      {
        "astId": 4177,
        "contract": "contracts/BCChars.sol:BCChars",
        "label": "breachCap",
        "offset": 5,
        "slot": "11",
        "type": "t_uint8"
      },
      {
        "astId": 4180,
        "contract": "contracts/BCChars.sol:BCChars",
        "label": "shootCap",
        "offset": 6,
        "slot": "11",
        "type": "t_uint8"
      },
      {
        "astId": 4183,
        "contract": "contracts/BCChars.sol:BCChars",
        "label": "meleeCap",
        "offset": 7,
        "slot": "11",
        "type": "t_uint8"
      },
      {
        "astId": 4186,
        "contract": "contracts/BCChars.sol:BCChars",
        "label": "maxClonesCap",
        "offset": 8,
        "slot": "11",
        "type": "t_uint8"
      },
      {
        "astId": 4189,
        "contract": "contracts/BCChars.sol:BCChars",
        "label": "abilityCap",
        "offset": 9,
        "slot": "11",
        "type": "t_uint8"
      },
      {
        "astId": 4192,
        "contract": "contracts/BCChars.sol:BCChars",
        "label": "flawCap",
        "offset": 10,
        "slot": "11",
        "type": "t_uint8"
      },
      {
        "astId": 4196,
        "contract": "contracts/BCChars.sol:BCChars",
        "label": "characters",
        "offset": 0,
        "slot": "12",
        "type": "t_array(t_struct(Character)21223_storage)dyn_storage"
      },
      {
        "astId": 4201,
        "contract": "contracts/BCChars.sol:BCChars",
        "label": "charsOwned",
        "offset": 0,
        "slot": "13",
        "type": "t_mapping(t_address,t_struct(UintSet)2262_storage)"
      }
    ],
    "types": {
      "t_address": {
        "encoding": "inplace",
        "label": "address",
        "numberOfBytes": "20"
      },
      "t_array(t_bytes32)dyn_storage": {
        "base": "t_bytes32",
        "encoding": "dynamic_array",
        "label": "bytes32[]",
        "numberOfBytes": "32"
      },
      "t_array(t_struct(Character)21223_storage)dyn_storage": {
        "base": "t_struct(Character)21223_storage",
        "encoding": "dynamic_array",
        "label": "struct BCTypes.Character[]",
        "numberOfBytes": "32"
      },
      "t_bool": {
        "encoding": "inplace",
        "label": "bool",
        "numberOfBytes": "1"
      },
      "t_bytes32": {
        "encoding": "inplace",
        "label": "bytes32",
        "numberOfBytes": "32"
      },
      "t_contract(LobbyInterface)4040": {
        "encoding": "inplace",
        "label": "contract LobbyInterface",
        "numberOfBytes": "20"
      },
      "t_contract(UIFInterface)4081": {
        "encoding": "inplace",
        "label": "contract UIFInterface",
        "numberOfBytes": "20"
      },
      "t_int8": {
        "encoding": "inplace",
        "label": "int8",
        "numberOfBytes": "1"
      },
      "t_mapping(t_address,t_struct(UintSet)2262_storage)": {
        "encoding": "mapping",
        "key": "t_address",
        "label": "mapping(address => struct EnumerableSet.UintSet)",
        "numberOfBytes": "32",
        "value": "t_struct(UintSet)2262_storage"
      },
      "t_mapping(t_bytes32,t_uint256)": {
        "encoding": "mapping",
        "key": "t_bytes32",
        "label": "mapping(bytes32 => uint256)",
        "numberOfBytes": "32",
        "value": "t_uint256"
      },
      "t_mapping(t_uint256,t_struct(UintSet)2262_storage)": {
        "encoding": "mapping",
        "key": "t_uint256",
        "label": "mapping(uint256 => struct EnumerableSet.UintSet)",
        "numberOfBytes": "32",
        "value": "t_struct(UintSet)2262_storage"
      },
      "t_struct(Character)21223_storage": {
        "encoding": "inplace",
        "label": "struct BCTypes.Character",
        "members": [
          {
            "astId": 21203,
            "contract": "contracts/BCChars.sol:BCChars",
            "label": "genHash",
            "offset": 0,
            "slot": "0",
            "type": "t_bytes32"
          },
          {
            "astId": 21205,
            "contract": "contracts/BCChars.sol:BCChars",
            "label": "id",
            "offset": 0,
            "slot": "1",
            "type": "t_uint256"
          },
          {
            "astId": 21207,
            "contract": "contracts/BCChars.sol:BCChars",
            "label": "uifID",
            "offset": 0,
            "slot": "2",
            "type": "t_uint256"
          },
          {
            "astId": 21210,
            "contract": "contracts/BCChars.sol:BCChars",
            "label": "traits",
            "offset": 0,
            "slot": "3",
            "type": "t_struct(Traits)21201_storage"
          },
          {
            "astId": 21212,
            "contract": "contracts/BCChars.sol:BCChars",
            "label": "cloneNumber",
            "offset": 0,
            "slot": "4",
            "type": "t_uint8"
          },
          {
            "astId": 21214,
            "contract": "contracts/BCChars.sol:BCChars",
            "label": "maxClones",
            "offset": 1,
            "slot": "4",
            "type": "t_uint8"
          },
          {
            "astId": 21216,
            "contract": "contracts/BCChars.sol:BCChars",
            "label": "ability",
            "offset": 2,
            "slot": "4",
            "type": "t_uint8"
          },
          {
            "astId": 21218,
            "contract": "contracts/BCChars.sol:BCChars",
            "label": "flaw",
            "offset": 3,
            "slot": "4",
            "type": "t_uint8"
          },
          {
            "astId": 21220,
            "contract": "contracts/BCChars.sol:BCChars",
            "label": "inGame",
            "offset": 4,
            "slot": "4",
            "type": "t_bool"
          },
          {
            "astId": 21222,
            "contract": "contracts/BCChars.sol:BCChars",
            "label": "gameId",
            "offset": 0,
            "slot": "5",
            "type": "t_uint256"
          }
        ],
        "numberOfBytes": "192"
      },
      "t_struct(Set)1804_storage": {
        "encoding": "inplace",
        "label": "struct EnumerableSet.Set",
        "members": [
          {
            "astId": 1799,
            "contract": "contracts/BCChars.sol:BCChars",
            "label": "_values",
            "offset": 0,
            "slot": "0",
            "type": "t_array(t_bytes32)dyn_storage"
          },
          {
            "astId": 1803,
            "contract": "contracts/BCChars.sol:BCChars",
            "label": "_indexes",
            "offset": 0,
            "slot": "1",
            "type": "t_mapping(t_bytes32,t_uint256)"
          }
        ],
        "numberOfBytes": "64"
      },
      "t_struct(Traits)21201_storage": {
        "encoding": "inplace",
        "label": "struct BCTypes.Traits",
        "members": [
          {
            "astId": 21186,
            "contract": "contracts/BCChars.sol:BCChars",
            "label": "health",
            "offset": 0,
            "slot": "0",
            "type": "t_int8"
          },
          {
            "astId": 21188,
            "contract": "contracts/BCChars.sol:BCChars",
            "label": "carry",
            "offset": 1,
            "slot": "0",
            "type": "t_int8"
          },
          {
            "astId": 21190,
            "contract": "contracts/BCChars.sol:BCChars",
            "label": "defense",
            "offset": 2,
            "slot": "0",
            "type": "t_int8"
          },
          {
            "astId": 21192,
            "contract": "contracts/BCChars.sol:BCChars",
            "label": "hack",
            "offset": 3,
            "slot": "0",
            "type": "t_int8"
          },
          {
            "astId": 21194,
            "contract": "contracts/BCChars.sol:BCChars",
            "label": "breach",
            "offset": 4,
            "slot": "0",
            "type": "t_int8"
          },
          {
            "astId": 21196,
            "contract": "contracts/BCChars.sol:BCChars",
            "label": "shoot",
            "offset": 5,
            "slot": "0",
            "type": "t_int8"
          },
          {
            "astId": 21198,
            "contract": "contracts/BCChars.sol:BCChars",
            "label": "melee",
            "offset": 6,
            "slot": "0",
            "type": "t_int8"
          },
          {
            "astId": 21200,
            "contract": "contracts/BCChars.sol:BCChars",
            "label": "hasGun",
            "offset": 7,
            "slot": "0",
            "type": "t_bool"
          }
        ],
        "numberOfBytes": "32"
      },
      "t_struct(UintSet)2262_storage": {
        "encoding": "inplace",
        "label": "struct EnumerableSet.UintSet",
        "members": [
          {
            "astId": 2261,
            "contract": "contracts/BCChars.sol:BCChars",
            "label": "_inner",
            "offset": 0,
            "slot": "0",
            "type": "t_struct(Set)1804_storage"
          }
        ],
        "numberOfBytes": "64"
      },
      "t_uint256": {
        "encoding": "inplace",
        "label": "uint256",
        "numberOfBytes": "32"
      },
      "t_uint8": {
        "encoding": "inplace",
        "label": "uint8",
        "numberOfBytes": "1"
      }
    }
  }
}