{
  "address": "0x6182d6704CfDf99A1615b00C07afc0E674731FbB",
  "abi": [
    {
      "inputs": [],
      "stateMutability": "nonpayable",
      "type": "constructor"
    },
    {
      "anonymous": false,
      "inputs": [
        {
          "indexed": true,
          "internalType": "address",
          "name": "owner",
          "type": "address"
        },
        {
          "indexed": true,
          "internalType": "address",
          "name": "approved",
          "type": "address"
        },
        {
          "indexed": true,
          "internalType": "uint256",
          "name": "tokenId",
          "type": "uint256"
        }
      ],
      "name": "Approval",
      "type": "event"
    },
    {
      "anonymous": false,
      "inputs": [
        {
          "indexed": true,
          "internalType": "address",
          "name": "owner",
          "type": "address"
        },
        {
          "indexed": true,
          "internalType": "address",
          "name": "operator",
          "type": "address"
        },
        {
          "indexed": false,
          "internalType": "bool",
          "name": "approved",
          "type": "bool"
        }
      ],
      "name": "ApprovalForAll",
      "type": "event"
    },
    {
      "anonymous": false,
      "inputs": [
        {
          "indexed": true,
          "internalType": "address",
          "name": "previousOwner",
          "type": "address"
        },
        {
          "indexed": true,
          "internalType": "address",
          "name": "newOwner",
          "type": "address"
        }
      ],
      "name": "OwnershipTransferred",
      "type": "event"
    },
    {
      "anonymous": false,
      "inputs": [
        {
          "indexed": true,
          "internalType": "address",
          "name": "from",
          "type": "address"
        },
        {
          "indexed": true,
          "internalType": "address",
          "name": "to",
          "type": "address"
        },
        {
          "indexed": true,
          "internalType": "uint256",
          "name": "tokenId",
          "type": "uint256"
        }
      ],
      "name": "Transfer",
      "type": "event"
    },
    {
      "inputs": [
        {
          "internalType": "uint256",
          "name": "_matic",
          "type": "uint256"
        }
      ],
      "name": "SetEnlistCostInMatic",
      "outputs": [],
      "stateMutability": "nonpayable",
      "type": "function"
    },
    {
      "inputs": [
        {
          "internalType": "uint256",
          "name": "_matic",
          "type": "uint256"
        }
      ],
      "name": "SetMintCostInMatic",
      "outputs": [],
      "stateMutability": "nonpayable",
      "type": "function"
    },
    {
      "inputs": [
        {
          "internalType": "int256",
          "name": "x",
          "type": "int256"
        }
      ],
      "name": "abs",
      "outputs": [
        {
          "internalType": "int256",
          "name": "",
          "type": "int256"
        }
      ],
      "stateMutability": "pure",
      "type": "function"
    },
    {
      "inputs": [
        {
          "internalType": "address",
          "name": "to",
          "type": "address"
        },
        {
          "internalType": "uint256",
          "name": "tokenId",
          "type": "uint256"
        }
      ],
      "name": "approve",
      "outputs": [],
      "stateMutability": "nonpayable",
      "type": "function"
    },
    {
      "inputs": [
        {
          "internalType": "address",
          "name": "owner",
          "type": "address"
        }
      ],
      "name": "balanceOf",
      "outputs": [
        {
          "internalType": "uint256",
          "name": "",
          "type": "uint256"
        }
      ],
      "stateMutability": "view",
      "type": "function"
    },
    {
      "inputs": [],
      "name": "breachCap",
      "outputs": [
        {
          "internalType": "uint8",
          "name": "",
          "type": "uint8"
        }
      ],
      "stateMutability": "view",
      "type": "function"
    },
    {
      "inputs": [],
      "name": "carryCap",
      "outputs": [
        {
          "internalType": "uint8",
          "name": "",
          "type": "uint8"
        }
      ],
      "stateMutability": "view",
      "type": "function"
    },
    {
      "inputs": [
        {
          "internalType": "uint256",
          "name": "",
          "type": "uint256"
        }
      ],
      "name": "characters",
      "outputs": [
        {
          "internalType": "bytes32",
          "name": "genHash",
          "type": "bytes32"
        },
        {
          "internalType": "uint256",
          "name": "id",
          "type": "uint256"
        },
        {
          "components": [
            {
              "internalType": "uint8",
              "name": "health",
              "type": "uint8"
            },
            {
              "internalType": "uint8",
              "name": "carry",
              "type": "uint8"
            },
            {
              "internalType": "uint8",
              "name": "defense",
              "type": "uint8"
            },
            {
              "internalType": "uint8",
              "name": "hack",
              "type": "uint8"
            },
            {
              "internalType": "uint8",
              "name": "breach",
              "type": "uint8"
            },
            {
              "internalType": "uint8",
              "name": "shoot",
              "type": "uint8"
            },
            {
              "internalType": "uint8",
              "name": "melee",
              "type": "uint8"
            }
          ],
          "internalType": "struct BCTypes.Traits",
          "name": "traits",
          "type": "tuple"
        },
        {
          "internalType": "uint8",
          "name": "cloneNumber",
          "type": "uint8"
        },
        {
          "internalType": "uint8",
          "name": "maxClones",
          "type": "uint8"
        },
        {
          "internalType": "uint8",
          "name": "ability",
          "type": "uint8"
        },
        {
          "internalType": "uint8",
          "name": "flaw",
          "type": "uint8"
        }
      ],
      "stateMutability": "view",
      "type": "function"
    },
    {
      "inputs": [],
      "name": "decantNewClone",
      "outputs": [],
      "stateMutability": "payable",
      "type": "function"
    },
    {
      "inputs": [],
      "name": "defenseCap",
      "outputs": [
        {
          "internalType": "uint8",
          "name": "",
          "type": "uint8"
        }
      ],
      "stateMutability": "view",
      "type": "function"
    },
    {
      "inputs": [
        {
          "internalType": "uint256",
          "name": "_charId",
          "type": "uint256"
        }
      ],
      "name": "enlistChar",
      "outputs": [],
      "stateMutability": "payable",
      "type": "function"
    },
    {
      "inputs": [],
      "name": "enlistCost",
      "outputs": [
        {
          "internalType": "uint256",
          "name": "",
          "type": "uint256"
        }
      ],
      "stateMutability": "view",
      "type": "function"
    },
    {
      "inputs": [],
      "name": "gamesContract",
      "outputs": [
        {
          "internalType": "address",
          "name": "",
          "type": "address"
        }
      ],
      "stateMutability": "view",
      "type": "function"
    },
    {
      "inputs": [
        {
          "internalType": "address",
          "name": "_address",
          "type": "address"
        }
      ],
      "name": "getAllCharsByOwner",
      "outputs": [
        {
          "components": [
            {
              "internalType": "bytes32",
              "name": "genHash",
              "type": "bytes32"
            },
            {
              "internalType": "uint256",
              "name": "id",
              "type": "uint256"
            },
            {
              "components": [
                {
                  "internalType": "uint8",
                  "name": "health",
                  "type": "uint8"
                },
                {
                  "internalType": "uint8",
                  "name": "carry",
                  "type": "uint8"
                },
                {
                  "internalType": "uint8",
                  "name": "defense",
                  "type": "uint8"
                },
                {
                  "internalType": "uint8",
                  "name": "hack",
                  "type": "uint8"
                },
                {
                  "internalType": "uint8",
                  "name": "breach",
                  "type": "uint8"
                },
                {
                  "internalType": "uint8",
                  "name": "shoot",
                  "type": "uint8"
                },
                {
                  "internalType": "uint8",
                  "name": "melee",
                  "type": "uint8"
                }
              ],
              "internalType": "struct BCTypes.Traits",
              "name": "traits",
              "type": "tuple"
            },
            {
              "internalType": "uint8",
              "name": "cloneNumber",
              "type": "uint8"
            },
            {
              "internalType": "uint8",
              "name": "maxClones",
              "type": "uint8"
            },
            {
              "internalType": "uint8",
              "name": "ability",
              "type": "uint8"
            },
            {
              "internalType": "uint8",
              "name": "flaw",
              "type": "uint8"
            }
          ],
          "internalType": "struct BCTypes.Character[]",
          "name": "",
          "type": "tuple[]"
        }
      ],
      "stateMutability": "view",
      "type": "function"
    },
    {
      "inputs": [
        {
          "internalType": "uint256",
          "name": "tokenId",
          "type": "uint256"
        }
      ],
      "name": "getApproved",
      "outputs": [
        {
          "internalType": "address",
          "name": "",
          "type": "address"
        }
      ],
      "stateMutability": "view",
      "type": "function"
    },
    {
      "inputs": [
        {
          "components": [
            {
              "internalType": "uint8",
              "name": "row",
              "type": "uint8"
            },
            {
              "internalType": "uint8",
              "name": "col",
              "type": "uint8"
            }
          ],
          "internalType": "struct BCTypes.Position",
          "name": "_firstRoom",
          "type": "tuple"
        },
        {
          "components": [
            {
              "internalType": "uint8",
              "name": "row",
              "type": "uint8"
            },
            {
              "internalType": "uint8",
              "name": "col",
              "type": "uint8"
            }
          ],
          "internalType": "struct BCTypes.Position",
          "name": "_secondRoom",
          "type": "tuple"
        }
      ],
      "name": "getDirectionBetween",
      "outputs": [
        {
          "internalType": "uint256",
          "name": "",
          "type": "uint256"
        }
      ],
      "stateMutability": "pure",
      "type": "function"
    },
    {
      "inputs": [
        {
          "internalType": "uint256",
          "name": "_direction",
          "type": "uint256"
        },
        {
          "components": [
            {
              "internalType": "uint8",
              "name": "row",
              "type": "uint8"
            },
            {
              "internalType": "uint8",
              "name": "col",
              "type": "uint8"
            }
          ],
          "internalType": "struct BCTypes.Position",
          "name": "_start",
          "type": "tuple"
        }
      ],
      "name": "getNeighborRoom",
      "outputs": [
        {
          "components": [
            {
              "internalType": "uint8",
              "name": "row",
              "type": "uint8"
            },
            {
              "internalType": "uint8",
              "name": "col",
              "type": "uint8"
            }
          ],
          "internalType": "struct BCTypes.Position",
          "name": "",
          "type": "tuple"
        }
      ],
      "stateMutability": "pure",
      "type": "function"
    },
    {
      "inputs": [
        {
          "internalType": "uint256",
          "name": "_traitNum",
          "type": "uint256"
        },
        {
          "internalType": "uint256",
          "name": "_subTraitNum",
          "type": "uint256"
        }
      ],
      "name": "getUIOffset",
      "outputs": [
        {
          "internalType": "uint256",
          "name": "",
          "type": "uint256"
        }
      ],
      "stateMutability": "pure",
      "type": "function"
    },
    {
      "inputs": [],
      "name": "hackCap",
      "outputs": [
        {
          "internalType": "uint8",
          "name": "",
          "type": "uint8"
        }
      ],
      "stateMutability": "view",
      "type": "function"
    },
    {
      "inputs": [],
      "name": "healthCap",
      "outputs": [
        {
          "internalType": "uint8",
          "name": "",
          "type": "uint8"
        }
      ],
      "stateMutability": "view",
      "type": "function"
    },
    {
      "inputs": [
        {
          "internalType": "uint256",
          "name": "_charId",
          "type": "uint256"
        }
      ],
      "name": "incrementCloneNumber",
      "outputs": [],
      "stateMutability": "nonpayable",
      "type": "function"
    },
    {
      "inputs": [
        {
          "internalType": "address",
          "name": "owner",
          "type": "address"
        },
        {
          "internalType": "address",
          "name": "operator",
          "type": "address"
        }
      ],
      "name": "isApprovedForAll",
      "outputs": [
        {
          "internalType": "bool",
          "name": "",
          "type": "bool"
        }
      ],
      "stateMutability": "view",
      "type": "function"
    },
    {
      "inputs": [],
      "name": "lobbies",
      "outputs": [
        {
          "internalType": "contract LobbyInterface",
          "name": "",
          "type": "address"
        }
      ],
      "stateMutability": "view",
      "type": "function"
    },
    {
      "inputs": [],
      "name": "maxClonesCap",
      "outputs": [
        {
          "internalType": "uint8",
          "name": "",
          "type": "uint8"
        }
      ],
      "stateMutability": "view",
      "type": "function"
    },
    {
      "inputs": [],
      "name": "meleeCap",
      "outputs": [
        {
          "internalType": "uint8",
          "name": "",
          "type": "uint8"
        }
      ],
      "stateMutability": "view",
      "type": "function"
    },
    {
      "inputs": [],
      "name": "mintCost",
      "outputs": [
        {
          "internalType": "uint256",
          "name": "",
          "type": "uint256"
        }
      ],
      "stateMutability": "view",
      "type": "function"
    },
    {
      "inputs": [],
      "name": "mintIsActive",
      "outputs": [
        {
          "internalType": "bool",
          "name": "",
          "type": "bool"
        }
      ],
      "stateMutability": "view",
      "type": "function"
    },
    {
      "inputs": [],
      "name": "name",
      "outputs": [
        {
          "internalType": "string",
          "name": "",
          "type": "string"
        }
      ],
      "stateMutability": "view",
      "type": "function"
    },
    {
      "inputs": [
        {
          "internalType": "uint256",
          "name": "_min",
          "type": "uint256"
        },
        {
          "internalType": "uint256",
          "name": "_max",
          "type": "uint256"
        },
        {
          "internalType": "uint256",
          "name": "_val",
          "type": "uint256"
        },
        {
          "internalType": "uint256",
          "name": "_valMax",
          "type": "uint256"
        }
      ],
      "name": "normalizeToSmallRange",
      "outputs": [
        {
          "internalType": "uint8",
          "name": "",
          "type": "uint8"
        }
      ],
      "stateMutability": "pure",
      "type": "function"
    },
    {
      "inputs": [],
      "name": "owner",
      "outputs": [
        {
          "internalType": "address",
          "name": "",
          "type": "address"
        }
      ],
      "stateMutability": "view",
      "type": "function"
    },
    {
      "inputs": [
        {
          "internalType": "uint256",
          "name": "tokenId",
          "type": "uint256"
        }
      ],
      "name": "ownerOf",
      "outputs": [
        {
          "internalType": "address",
          "name": "",
          "type": "address"
        }
      ],
      "stateMutability": "view",
      "type": "function"
    },
    {
      "inputs": [],
      "name": "randKeccak",
      "outputs": [
        {
          "internalType": "bytes32",
          "name": "",
          "type": "bytes32"
        }
      ],
      "stateMutability": "nonpayable",
      "type": "function"
    },
    {
      "inputs": [],
      "name": "renounceOwnership",
      "outputs": [],
      "stateMutability": "nonpayable",
      "type": "function"
    },
    {
      "inputs": [],
      "name": "roll",
      "outputs": [
        {
          "internalType": "uint256",
          "name": "",
          "type": "uint256"
        }
      ],
      "stateMutability": "nonpayable",
      "type": "function"
    },
    {
      "inputs": [
        {
          "internalType": "address",
          "name": "from",
          "type": "address"
        },
        {
          "internalType": "address",
          "name": "to",
          "type": "address"
        },
        {
          "internalType": "uint256",
          "name": "tokenId",
          "type": "uint256"
        }
      ],
      "name": "safeTransferFrom",
      "outputs": [],
      "stateMutability": "nonpayable",
      "type": "function"
    },
    {
      "inputs": [
        {
          "internalType": "address",
          "name": "from",
          "type": "address"
        },
        {
          "internalType": "address",
          "name": "to",
          "type": "address"
        },
        {
          "internalType": "uint256",
          "name": "tokenId",
          "type": "uint256"
        },
        {
          "internalType": "bytes",
          "name": "data",
          "type": "bytes"
        }
      ],
      "name": "safeTransferFrom",
      "outputs": [],
      "stateMutability": "nonpayable",
      "type": "function"
    },
    {
      "inputs": [
        {
          "internalType": "address",
          "name": "operator",
          "type": "address"
        },
        {
          "internalType": "bool",
          "name": "approved",
          "type": "bool"
        }
      ],
      "name": "setApprovalForAll",
      "outputs": [],
      "stateMutability": "nonpayable",
      "type": "function"
    },
    {
      "inputs": [
        {
          "internalType": "address",
          "name": "_lobbyContractAddress",
          "type": "address"
        },
        {
          "internalType": "address",
          "name": "_gameContract",
          "type": "address"
        }
      ],
      "name": "setContractAddresses",
      "outputs": [],
      "stateMutability": "nonpayable",
      "type": "function"
    },
    {
      "inputs": [
        {
          "internalType": "bool",
          "name": "_status",
          "type": "bool"
        }
      ],
      "name": "setMintingStatus",
      "outputs": [],
      "stateMutability": "nonpayable",
      "type": "function"
    },
    {
      "inputs": [],
      "name": "shootCap",
      "outputs": [
        {
          "internalType": "uint8",
          "name": "",
          "type": "uint8"
        }
      ],
      "stateMutability": "view",
      "type": "function"
    },
    {
      "inputs": [
        {
          "internalType": "bytes32",
          "name": "_hash",
          "type": "bytes32"
        },
        {
          "internalType": "uint256",
          "name": "_size",
          "type": "uint256"
        },
        {
          "internalType": "uint256",
          "name": "_offset",
          "type": "uint256"
        }
      ],
      "name": "sliceHashToSmallInt",
      "outputs": [
        {
          "internalType": "uint8",
          "name": "",
          "type": "uint8"
        }
      ],
      "stateMutability": "pure",
      "type": "function"
    },
    {
      "inputs": [
        {
          "internalType": "uint8",
          "name": "_min",
          "type": "uint8"
        },
        {
          "internalType": "uint8",
          "name": "_max",
          "type": "uint8"
        }
      ],
      "name": "smallIntBetweenVals",
      "outputs": [
        {
          "internalType": "uint8",
          "name": "",
          "type": "uint8"
        }
      ],
      "stateMutability": "nonpayable",
      "type": "function"
    },
    {
      "inputs": [
        {
          "internalType": "bytes4",
          "name": "interfaceId",
          "type": "bytes4"
        }
      ],
      "name": "supportsInterface",
      "outputs": [
        {
          "internalType": "bool",
          "name": "",
          "type": "bool"
        }
      ],
      "stateMutability": "view",
      "type": "function"
    },
    {
      "inputs": [],
      "name": "symbol",
      "outputs": [
        {
          "internalType": "string",
          "name": "",
          "type": "string"
        }
      ],
      "stateMutability": "view",
      "type": "function"
    },
    {
      "inputs": [
        {
          "internalType": "uint256",
          "name": "tokenId",
          "type": "uint256"
        }
      ],
      "name": "tokenURI",
      "outputs": [
        {
          "internalType": "string",
          "name": "",
          "type": "string"
        }
      ],
      "stateMutability": "view",
      "type": "function"
    },
    {
      "inputs": [
        {
          "internalType": "address",
          "name": "from",
          "type": "address"
        },
        {
          "internalType": "address",
          "name": "to",
          "type": "address"
        },
        {
          "internalType": "uint256",
          "name": "tokenId",
          "type": "uint256"
        }
      ],
      "name": "transferFrom",
      "outputs": [],
      "stateMutability": "nonpayable",
      "type": "function"
    },
    {
      "inputs": [],
      "name": "transferFundsOut",
      "outputs": [],
      "stateMutability": "nonpayable",
      "type": "function"
    },
    {
      "inputs": [
        {
          "internalType": "address",
          "name": "newOwner",
          "type": "address"
        }
      ],
      "name": "transferOwnership",
      "outputs": [],
      "stateMutability": "nonpayable",
      "type": "function"
    }
  ],
  "transactionHash": "0xa88a4cbfa1192aba02ced4b6998bdcdb92b9d64c68dd3370c57257256c4b1add",
  "args": [],
  "numDeployments": 3,
  "solcInputHash": "3200bc8f0a14307bec98ec1b45314449",
  "bytecode": "0x60806040526000600855655af3107a4000600b55662386f26fc10000600c556001600d60006101000a81548160ff0219169083151502179055506004600d60016101000a81548160ff021916908360ff1602179055506005600d60026101000a81548160ff021916908360ff1602179055506004600d60036101000a81548160ff021916908360ff1602179055506004600d60046101000a81548160ff021916908360ff1602179055506004600d60056101000a81548160ff021916908360ff1602179055506004600d60066101000a81548160ff021916908360ff1602179055506004600d60076101000a81548160ff021916908360ff1602179055506064600d60086101000a81548160ff021916908360ff160217905550600a600d60096101000a81548160ff021916908360ff160217905550600a600d600a6101000a81548160ff021916908360ff1602179055503480156200015e57600080fd5b506040518060400160405280601681526020017f426c61636b20436f6d65742043686172616374657273000000000000000000008152506040518060400160405280600381526020017f42434300000000000000000000000000000000000000000000000000000000008152508160009080519060200190620001e3929190620002f3565b508060019080519060200190620001fc929190620002f3565b5050506200021f620002136200022560201b60201c565b6200022d60201b60201c565b62000408565b600033905090565b6000600760009054906101000a900473ffffffffffffffffffffffffffffffffffffffff16905081600760006101000a81548173ffffffffffffffffffffffffffffffffffffffff021916908373ffffffffffffffffffffffffffffffffffffffff1602179055508173ffffffffffffffffffffffffffffffffffffffff168173ffffffffffffffffffffffffffffffffffffffff167f8be0079c531659141344cd1fd0a4f28419497f9722a3daafe3b4186f6b6457e060405160405180910390a35050565b8280546200030190620003d2565b90600052602060002090601f01602090048101928262000325576000855562000371565b82601f106200034057805160ff191683800117855562000371565b8280016001018555821562000371579182015b828111156200037057825182559160200191906001019062000353565b5b50905062000380919062000384565b5090565b5b808211156200039f57600081600090555060010162000385565b5090565b7f4e487b7100000000000000000000000000000000000000000000000000000000600052602260045260246000fd5b60006002820490506001821680620003eb57607f821691505b60208210811415620004025762000401620003a3565b5b50919050565b61528380620004186000396000f3fe6080604052600436106102935760003560e01c806370a082311161015a578063ba1ee7cf116100c1578063cd931e401161007a578063cd931e4014610a1a578063ce28613f14610a43578063e985e9c514610a80578063f2fde38b14610abd578063fa3993c214610ae6578063fdcadf8114610b2357610293565b8063ba1ee7cf14610936578063bdb4b84814610940578063c6c484dd1461096b578063c87b56dd14610987578063cbfb2388146109c4578063cd5e3c5d146109ef57610293565b8063951fc3fe11610113578063951fc3fe1461081457806395d89b411461085157806397f34c3f1461087c578063a22cb465146108b9578063b88d4fde146108e2578063b926be2a1461090b57610293565b806370a0823114610718578063715018a614610755578063733882b71461076c5780637420aa361461079757806384c38c8b146107c05780638da5cb5b146107e957610293565b806345de18b8116101fe5780636284ef2c116101b75780636284ef2c146105e25780636352211e1461060d5780636362fe421461064a57806364db84bf146106875780636963c568146106c45780636d6ba756146106ef57610293565b806345de18b8146104b8578063471a4294146104e35780634810bc591461050e578063501f978414610551578063530116961461057a5780635ee38b2f146105b757610293565b80631b5ac4b5116102505780631b5ac4b5146103bc5780631e1de205146103f957806323b872dd146104245780633838aed11461044d57806339a54a301461046457806342842e0e1461048f57610293565b806301ffc9a7146102985780630364f88c146102d557806306fdde0314610300578063081812fc1461032b578063095ea7b314610368578063154fa27a14610391575b600080fd5b3480156102a457600080fd5b506102bf60048036038101906102ba9190613512565b610b4e565b6040516102cc919061355a565b60405180910390f35b3480156102e157600080fd5b506102ea610c30565b6040516102f791906135f4565b60405180910390f35b34801561030c57600080fd5b50610315610c56565b60405161032291906136a8565b60405180910390f35b34801561033757600080fd5b50610352600480360381019061034d9190613700565b610ce8565b60405161035f919061374e565b60405180910390f35b34801561037457600080fd5b5061038f600480360381019061038a9190613795565b610d2e565b005b34801561039d57600080fd5b506103a6610e46565b6040516103b3919061374e565b60405180910390f35b3480156103c857600080fd5b506103e360048036038101906103de919061380b565b610e6c565b6040516103f09190613847565b60405180910390f35b34801561040557600080fd5b5061040e610e8e565b60405161041b919061387b565b60405180910390f35b34801561043057600080fd5b5061044b60048036038101906104469190613896565b610eda565b005b34801561045957600080fd5b50610462610f3a565b005b34801561047057600080fd5b50610479610f92565b6040516104869190613905565b60405180910390f35b34801561049b57600080fd5b506104b660048036038101906104b19190613896565b610fa5565b005b3480156104c457600080fd5b506104cd610fc5565b6040516104da9190613905565b60405180910390f35b3480156104ef57600080fd5b506104f8610fd8565b604051610505919061355a565b60405180910390f35b34801561051a57600080fd5b5061053560048036038101906105309190613700565b610feb565b60405161054897969594939291906139cc565b60405180910390f35b34801561055d57600080fd5b5061057860048036038101906105739190613700565b611146565b005b34801561058657600080fd5b506105a1600480360381019061059c9190613a40565b61116b565b6040516105ae9190613905565b60405180910390f35b3480156105c357600080fd5b506105cc6111af565b6040516105d99190613905565b60405180910390f35b3480156105ee57600080fd5b506105f76111c2565b6040516106049190613905565b60405180910390f35b34801561061957600080fd5b50610634600480360381019061062f9190613700565b6111d5565b604051610641919061374e565b60405180910390f35b34801561065657600080fd5b50610671600480360381019061066c9190613aa7565b611287565b60405161067e9190613cc3565b60405180910390f35b34801561069357600080fd5b506106ae60048036038101906106a99190613ce5565b61151b565b6040516106bb9190613d25565b60405180910390f35b3480156106d057600080fd5b506106d961153d565b6040516106e69190613905565b60405180910390f35b3480156106fb57600080fd5b5061071660048036038101906107119190613700565b611550565b005b34801561072457600080fd5b5061073f600480360381019061073a9190613aa7565b61163e565b60405161074c9190613d25565b60405180910390f35b34801561076157600080fd5b5061076a6116f6565b005b34801561077857600080fd5b5061078161170a565b60405161078e9190613905565b60405180910390f35b3480156107a357600080fd5b506107be60048036038101906107b99190613d6c565b61171d565b005b3480156107cc57600080fd5b506107e760048036038101906107e29190613700565b611742565b005b3480156107f557600080fd5b506107fe611767565b60405161080b919061374e565b60405180910390f35b34801561082057600080fd5b5061083b60048036038101906108369190613e95565b611791565b6040516108489190613f04565b60405180910390f35b34801561085d57600080fd5b506108666118d6565b60405161087391906136a8565b60405180910390f35b34801561088857600080fd5b506108a3600480360381019061089e9190613f4b565b611968565b6040516108b09190613905565b60405180910390f35b3480156108c557600080fd5b506108e060048036038101906108db9190613f9e565b61199f565b005b3480156108ee57600080fd5b5061090960048036038101906109049190614098565b6119b5565b005b34801561091757600080fd5b50610920611a17565b60405161092d9190613905565b60405180910390f35b61093e611a2a565b005b34801561094c57600080fd5b5061095561202f565b6040516109629190613d25565b60405180910390f35b61098560048036038101906109809190613700565b612035565b005b34801561099357600080fd5b506109ae60048036038101906109a99190613700565b612175565b6040516109bb91906136a8565b60405180910390f35b3480156109d057600080fd5b506109d9612288565b6040516109e69190613905565b60405180910390f35b3480156109fb57600080fd5b50610a0461229b565b604051610a119190613d25565b60405180910390f35b348015610a2657600080fd5b50610a416004803603810190610a3c919061411b565b6122b1565b005b348015610a4f57600080fd5b50610a6a6004803603810190610a65919061415b565b61233f565b604051610a779190613905565b60405180910390f35b348015610a8c57600080fd5b50610aa76004803603810190610aa2919061411b565b6123d0565b604051610ab4919061355a565b60405180910390f35b348015610ac957600080fd5b50610ae46004803603810190610adf9190613aa7565b612464565b005b348015610af257600080fd5b50610b0d6004803603810190610b08919061419b565b6124e8565b604051610b1a9190613d25565b60405180910390f35b348015610b2f57600080fd5b50610b38612609565b604051610b459190613d25565b60405180910390f35b60007f80ac58cd000000000000000000000000000000000000000000000000000000007bffffffffffffffffffffffffffffffffffffffffffffffffffffffff1916827bffffffffffffffffffffffffffffffffffffffffffffffffffffffff19161480610c1957507f5b5e139f000000000000000000000000000000000000000000000000000000007bffffffffffffffffffffffffffffffffffffffffffffffffffffffff1916827bffffffffffffffffffffffffffffffffffffffffffffffffffffffff1916145b80610c295750610c288261260f565b5b9050919050565b600960009054906101000a900473ffffffffffffffffffffffffffffffffffffffff1681565b606060008054610c659061420a565b80601f0160208091040260200160405190810160405280929190818152602001828054610c919061420a565b8015610cde5780601f10610cb357610100808354040283529160200191610cde565b820191906000526020600020905b815481529060010190602001808311610cc157829003601f168201915b5050505050905090565b6000610cf382612679565b6004600083815260200190815260200160002060009054906101000a900473ffffffffffffffffffffffffffffffffffffffff169050919050565b6000610d39826111d5565b90508073ffffffffffffffffffffffffffffffffffffffff168373ffffffffffffffffffffffffffffffffffffffff161415610daa576040517f08c379a0000000000000000000000000000000000000000000000000000000008152600401610da1906142ae565b60405180910390fd5b8073ffffffffffffffffffffffffffffffffffffffff16610dc96126c4565b73ffffffffffffffffffffffffffffffffffffffff161480610df85750610df781610df26126c4565b6123d0565b5b610e37576040517f08c379a0000000000000000000000000000000000000000000000000000000008152600401610e2e90614340565b60405180910390fd5b610e4183836126cc565b505050565b600a60009054906101000a900473ffffffffffffffffffffffffffffffffffffffff1681565b600080821215610e855781610e809061438f565b610e87565b815b9050919050565b600060086000815480929190610ea3906143d8565b91905055506008544233604051602001610ebf9392919061448a565b60405160208183030381529060405280519060200120905090565b610eeb610ee56126c4565b82612785565b610f2a576040517f08c379a0000000000000000000000000000000000000000000000000000000008152600401610f2190614539565b60405180910390fd5b610f3583838361281a565b505050565b610f42612a81565b610f4a611767565b73ffffffffffffffffffffffffffffffffffffffff166108fc479081150290604051600060405180830381858888f19350505050158015610f8f573d6000803e3d6000fd5b50565b600d60049054906101000a900460ff1681565b610fc0838383604051806020016040528060008152506119b5565b505050565b600d60079054906101000a900460ff1681565b600d60009054906101000a900460ff1681565b600e8181548110610ffb57600080fd5b9060005260206000209060040201600091509050806000015490806001015490806002016040518060e00160405290816000820160009054906101000a900460ff1660ff1660ff1681526020016000820160019054906101000a900460ff1660ff1660ff1681526020016000820160029054906101000a900460ff1660ff1660ff1681526020016000820160039054906101000a900460ff1660ff1660ff1681526020016000820160049054906101000a900460ff1660ff1660ff1681526020016000820160059054906101000a900460ff1660ff1660ff1681526020016000820160069054906101000a900460ff1660ff1660ff1681525050908060030160009054906101000a900460ff16908060030160019054906101000a900460ff16908060030160029054906101000a900460ff16908060030160039054906101000a900460ff16905087565b61114e612a81565b670de0b6b3a7640000816111629190614559565b600c8190555050565b600080858561117a91906145b3565b9050600083858361118b9190614559565b6111959190614616565b905086816111a39190614647565b92505050949350505050565b600d60089054906101000a900460ff1681565b600d60039054906101000a900460ff1681565b6000806002600084815260200190815260200160002060009054906101000a900473ffffffffffffffffffffffffffffffffffffffff169050600073ffffffffffffffffffffffffffffffffffffffff168173ffffffffffffffffffffffffffffffffffffffff16141561127e576040517f08c379a0000000000000000000000000000000000000000000000000000000008152600401611275906146e9565b60405180910390fd5b80915050919050565b606060006112948361163e565b90506000808267ffffffffffffffff8111156112b3576112b2613d9e565b5b6040519080825280602002602001820160405280156112ec57816020015b6112d96133e2565b8152602001906001900390816112d15790505b50905060005b600e8054905081101561150f578573ffffffffffffffffffffffffffffffffffffffff1661131f826111d5565b73ffffffffffffffffffffffffffffffffffffffff1614156114fc57600e818154811061134f5761134e614709565b5b90600052602060002090600402016040518060e00160405290816000820154815260200160018201548152602001600282016040518060e00160405290816000820160009054906101000a900460ff1660ff1660ff1681526020016000820160019054906101000a900460ff1660ff1660ff1681526020016000820160029054906101000a900460ff1660ff1660ff1681526020016000820160039054906101000a900460ff1660ff1660ff1681526020016000820160049054906101000a900460ff1660ff1660ff1681526020016000820160059054906101000a900460ff1660ff1660ff1681526020016000820160069054906101000a900460ff1660ff1660ff168152505081526020016003820160009054906101000a900460ff1660ff1660ff1681526020016003820160019054906101000a900460ff1660ff1660ff1681526020016003820160029054906101000a900460ff1660ff1660ff1681526020016003820160039054906101000a900460ff1660ff1660ff16815250508284815181106114e2576114e1614709565b5b602002602001018190525082806114f8906143d8565b9350505b8080611507906143d8565b9150506112f2565b50809350505050919050565b60008183600461152b9190614559565b6115359190614647565b905092915050565b600d60029054906101000a900460ff1681565b600a60009054906101000a900473ffffffffffffffffffffffffffffffffffffffff1673ffffffffffffffffffffffffffffffffffffffff163373ffffffffffffffffffffffffffffffffffffffff16146115e0576040517f08c379a00000000000000000000000000000000000000000000000000000000081526004016115d790614784565b60405180910390fd5b600e81815481106115f4576115f3614709565b5b9060005260206000209060040201600301600081819054906101000a900460ff1680929190611622906147a4565b91906101000a81548160ff021916908360ff1602179055505050565b60008073ffffffffffffffffffffffffffffffffffffffff168273ffffffffffffffffffffffffffffffffffffffff1614156116af576040517f08c379a00000000000000000000000000000000000000000000000000000000081526004016116a690614840565b60405180910390fd5b600360008373ffffffffffffffffffffffffffffffffffffffff1673ffffffffffffffffffffffffffffffffffffffff168152602001908152602001600020549050919050565b6116fe612a81565b6117086000612aff565b565b600d60069054906101000a900460ff1681565b611725612a81565b80600d60006101000a81548160ff02191690831515021790555050565b61174a612a81565b670de0b6b3a76400008161175e9190614559565b600b8190555050565b6000600760009054906101000a900473ffffffffffffffffffffffffffffffffffffffff16905090565b611799613434565b60008314156117d8576040518060400160405280600184600001516117be9190614860565b60ff168152602001836020015160ff1681525090506118d0565b6001831415611817576040518060400160405280600184600001516117fd9190614894565b60ff168152602001836020015160ff1681525090506118d0565b6002831415611856576040518060400160405280836000015160ff168152602001600184602001516118499190614894565b60ff1681525090506118d0565b6003831415611895576040518060400160405280836000015160ff168152602001600184602001516118889190614860565b60ff1681525090506118d0565b6040517f08c379a00000000000000000000000000000000000000000000000000000000081526004016118c790614917565b60405180910390fd5b92915050565b6060600180546118e59061420a565b80601f01602080910402602001604051908101604052809291908181526020018280546119119061420a565b801561195e5780601f106119335761010080835404028352916020019161195e565b820191906000526020600020905b81548152906001019060200180831161194157829003601f168201915b5050505050905090565b60008082600185600261197b9190614a6a565b61198591906145b3565b60001b901b905082818616901c60001c9150509392505050565b6119b16119aa6126c4565b8383612bc5565b5050565b6119c66119c06126c4565b83612785565b611a05576040517f08c379a00000000000000000000000000000000000000000000000000000000081526004016119fc90614539565b60405180910390fd5b611a1184848484612d32565b50505050565b600d60019054906101000a900460ff1681565b611a32611767565b73ffffffffffffffffffffffffffffffffffffffff163373ffffffffffffffffffffffffffffffffffffffff161480611a6c5750600c5434145b611aab576040517f08c379a0000000000000000000000000000000000000000000000000000000008152600401611aa290614b01565b60405180910390fd5b611ab3611767565b73ffffffffffffffffffffffffffffffffffffffff163373ffffffffffffffffffffffffffffffffffffffff161480611aff575060011515600d60009054906101000a900460ff161515145b611b3e576040517f08c379a0000000000000000000000000000000000000000000000000000000008152600401611b3590614b6d565b60405180910390fd5b6000611b48610e8e565b9050600e6040518060e00160405280838152602001600e8054905081526020016040518060e00160405280611bb860026001600d60019054906101000a900460ff16611b949190614894565b60ff16611bae896004611ba9600c600161151b565b611968565b60ff16600f61116b565b60ff168152602001611c0560036001600d60029054906101000a900460ff16611be19190614894565b60ff16611bfb896004611bf6600a600261151b565b611968565b60ff16600f61116b565b60ff168152602001611c5260026001600d60039054906101000a900460ff16611c2e9190614894565b60ff16611c48896004611c43600c600061151b565b611968565b60ff16600f61116b565b60ff168152602001611c9f60026001600d60049054906101000a900460ff16611c7b9190614894565b60ff16611c95896004611c90600d600061151b565b611968565b60ff16600f61116b565b60ff168152602001611cec60026001600d60059054906101000a900460ff16611cc89190614894565b60ff16611ce2896004611cdd600a600161151b565b611968565b60ff16600f61116b565b60ff168152602001611d3960026001600d60069054906101000a900460ff16611d159190614894565b60ff16611d2f896004611d2a600b600061151b565b611968565b60ff16600f61116b565b60ff168152602001611d8660026001600d60079054906101000a900460ff16611d629190614894565b60ff16611d7c896004611d77600a600061151b565b611968565b60ff16600f61116b565b60ff168152508152602001600060ff168152602001611dd46000600d60089054906101000a900460ff1660ff16611dca876008611dc56003600061151b565b611968565b60ff1660ff61116b565b60ff168152602001611e156000600d60099054906101000a900460ff1660ff16611e0b876008611e066008600061151b565b611968565b60ff1660ff61116b565b60ff168152602001611e566000600d600a9054906101000a900460ff1660ff16611e4c876008611e476008600261151b565b611968565b60ff1660ff61116b565b60ff168152509080600181540180825580915050600190039060005260206000209060040201600090919091909150600082015181600001556020820151816001015560408201518160020160008201518160000160006101000a81548160ff021916908360ff16021790555060208201518160000160016101000a81548160ff021916908360ff16021790555060408201518160000160026101000a81548160ff021916908360ff16021790555060608201518160000160036101000a81548160ff021916908360ff16021790555060808201518160000160046101000a81548160ff021916908360ff16021790555060a08201518160000160056101000a81548160ff021916908360ff16021790555060c08201518160000160066101000a81548160ff021916908360ff160217905550505060608201518160030160006101000a81548160ff021916908360ff16021790555060808201518160030160016101000a81548160ff021916908360ff16021790555060a08201518160030160026101000a81548160ff021916908360ff16021790555060c08201518160030160036101000a81548160ff021916908360ff160217905550505061202c336001600e8054905061202791906145b3565b612d8e565b50565b600c5481565b61203d611767565b73ffffffffffffffffffffffffffffffffffffffff163373ffffffffffffffffffffffffffffffffffffffff1614806120775750600b5434145b6120b6576040517f08c379a00000000000000000000000000000000000000000000000000000000081526004016120ad90614b01565b60405180910390fd5b6120e333600a60009054906101000a900473ffffffffffffffffffffffffffffffffffffffff1683610fa5565b600960009054906101000a900473ffffffffffffffffffffffffffffffffffffffff1673ffffffffffffffffffffffffffffffffffffffff1663237c201b82336040518363ffffffff1660e01b8152600401612140929190614b8d565b600060405180830381600087803b15801561215a57600080fd5b505af115801561216e573d6000803e3d6000fd5b5050505050565b606061218082612679565b60006006600084815260200190815260200160002080546121a09061420a565b80601f01602080910402602001604051908101604052809291908181526020018280546121cc9061420a565b80156122195780601f106121ee57610100808354040283529160200191612219565b820191906000526020600020905b8154815290600101906020018083116121fc57829003601f168201915b50505050509050600061222a612dac565b9050600081511415612240578192505050612283565b60008251111561227557808260405160200161225d929190614bf2565b60405160208183030381529060405292505050612283565b61227e84612dc3565b925050505b919050565b600d60059054906101000a900460ff1681565b60006122a96001600661233f565b60ff16905090565b6122b9612a81565b81600960006101000a81548173ffffffffffffffffffffffffffffffffffffffff021916908373ffffffffffffffffffffffffffffffffffffffff16021790555080600a60006101000a81548173ffffffffffffffffffffffffffffffffffffffff021916908373ffffffffffffffffffffffffffffffffffffffff1602179055505050565b600060086000815480929190612354906143d8565b91905055506000336008544260405160200161237293929190614c16565b6040516020818303038152906040528051906020012060001c905060006001858561239d9190614860565b6123a79190614894565b90508460ff168160ff16836123bc9190614c53565b6123c69190614647565b9250505092915050565b6000600560008473ffffffffffffffffffffffffffffffffffffffff1673ffffffffffffffffffffffffffffffffffffffff16815260200190815260200160002060008373ffffffffffffffffffffffffffffffffffffffff1673ffffffffffffffffffffffffffffffffffffffff16815260200190815260200160002060009054906101000a900460ff16905092915050565b61246c612a81565b600073ffffffffffffffffffffffffffffffffffffffff168173ffffffffffffffffffffffffffffffffffffffff1614156124dc576040517f08c379a00000000000000000000000000000000000000000000000000000000081526004016124d390614cf6565b60405180910390fd5b6124e581612aff565b50565b60006001826000015184600001516125009190614d23565b60000b14156125125760009050612603565b7fffffffffffffffffffffffffffffffffffffffffffffffffffffffffffffffff826000015184600001516125479190614d23565b60000b14156125595760019050612603565b7fffffffffffffffffffffffffffffffffffffffffffffffffffffffffffffffff8260200151846020015161258e9190614d23565b60000b14156125a05760029050612603565b6001826020015184602001516125b69190614d23565b60000b14156125c85760039050612603565b6040517f08c379a00000000000000000000000000000000000000000000000000000000081526004016125fa90614de4565b60405180910390fd5b92915050565b600b5481565b60007f01ffc9a7000000000000000000000000000000000000000000000000000000007bffffffffffffffffffffffffffffffffffffffffffffffffffffffff1916827bffffffffffffffffffffffffffffffffffffffffffffffffffffffff1916149050919050565b61268281612e2b565b6126c1576040517f08c379a00000000000000000000000000000000000000000000000000000000081526004016126b8906146e9565b60405180910390fd5b50565b600033905090565b816004600083815260200190815260200160002060006101000a81548173ffffffffffffffffffffffffffffffffffffffff021916908373ffffffffffffffffffffffffffffffffffffffff160217905550808273ffffffffffffffffffffffffffffffffffffffff1661273f836111d5565b73ffffffffffffffffffffffffffffffffffffffff167f8c5be1e5ebec7d5bd14f71427d1e84f3dd0314c0f7b2291e5b200ac8c7c3b92560405160405180910390a45050565b600080612791836111d5565b90508073ffffffffffffffffffffffffffffffffffffffff168473ffffffffffffffffffffffffffffffffffffffff1614806127d357506127d281856123d0565b5b8061281157508373ffffffffffffffffffffffffffffffffffffffff166127f984610ce8565b73ffffffffffffffffffffffffffffffffffffffff16145b91505092915050565b8273ffffffffffffffffffffffffffffffffffffffff1661283a826111d5565b73ffffffffffffffffffffffffffffffffffffffff1614612890576040517f08c379a000000000000000000000000000000000000000000000000000000000815260040161288790614e76565b60405180910390fd5b600073ffffffffffffffffffffffffffffffffffffffff168273ffffffffffffffffffffffffffffffffffffffff161415612900576040517f08c379a00000000000000000000000000000000000000000000000000000000081526004016128f790614f08565b60405180910390fd5b61290b838383612e97565b6129166000826126cc565b6001600360008573ffffffffffffffffffffffffffffffffffffffff1673ffffffffffffffffffffffffffffffffffffffff168152602001908152602001600020600082825461296691906145b3565b925050819055506001600360008473ffffffffffffffffffffffffffffffffffffffff1673ffffffffffffffffffffffffffffffffffffffff16815260200190815260200160002060008282546129bd9190614647565b92505081905550816002600083815260200190815260200160002060006101000a81548173ffffffffffffffffffffffffffffffffffffffff021916908373ffffffffffffffffffffffffffffffffffffffff160217905550808273ffffffffffffffffffffffffffffffffffffffff168473ffffffffffffffffffffffffffffffffffffffff167fddf252ad1be2c89b69c2b068fc378daa952ba7f163c4a11628f55a4df523b3ef60405160405180910390a4612a7c838383612e9c565b505050565b612a896126c4565b73ffffffffffffffffffffffffffffffffffffffff16612aa7611767565b73ffffffffffffffffffffffffffffffffffffffff1614612afd576040517f08c379a0000000000000000000000000000000000000000000000000000000008152600401612af490614f74565b60405180910390fd5b565b6000600760009054906101000a900473ffffffffffffffffffffffffffffffffffffffff16905081600760006101000a81548173ffffffffffffffffffffffffffffffffffffffff021916908373ffffffffffffffffffffffffffffffffffffffff1602179055508173ffffffffffffffffffffffffffffffffffffffff168173ffffffffffffffffffffffffffffffffffffffff167f8be0079c531659141344cd1fd0a4f28419497f9722a3daafe3b4186f6b6457e060405160405180910390a35050565b8173ffffffffffffffffffffffffffffffffffffffff168373ffffffffffffffffffffffffffffffffffffffff161415612c34576040517f08c379a0000000000000000000000000000000000000000000000000000000008152600401612c2b90614fe0565b60405180910390fd5b80600560008573ffffffffffffffffffffffffffffffffffffffff1673ffffffffffffffffffffffffffffffffffffffff16815260200190815260200160002060008473ffffffffffffffffffffffffffffffffffffffff1673ffffffffffffffffffffffffffffffffffffffff16815260200190815260200160002060006101000a81548160ff0219169083151502179055508173ffffffffffffffffffffffffffffffffffffffff168373ffffffffffffffffffffffffffffffffffffffff167f17307eab39ab6107e8899845ad3d59bd9653f200f220920489ca2b5937696c3183604051612d25919061355a565b60405180910390a3505050565b612d3d84848461281a565b612d4984848484612ea1565b612d88576040517f08c379a0000000000000000000000000000000000000000000000000000000008152600401612d7f90615072565b60405180910390fd5b50505050565b612da8828260405180602001604052806000815250613029565b5050565b606060405180602001604052806000815250905090565b6060612dce82612679565b6000612dd8612dac565b90506000815111612df85760405180602001604052806000815250612e23565b80612e0284613084565b604051602001612e13929190614bf2565b6040516020818303038152906040525b915050919050565b60008073ffffffffffffffffffffffffffffffffffffffff166002600084815260200190815260200160002060009054906101000a900473ffffffffffffffffffffffffffffffffffffffff1673ffffffffffffffffffffffffffffffffffffffff1614159050919050565b505050565b505050565b6000612ec28473ffffffffffffffffffffffffffffffffffffffff166131e5565b1561301c578373ffffffffffffffffffffffffffffffffffffffff1663150b7a02612eeb6126c4565b8786866040518563ffffffff1660e01b8152600401612f0d94939291906150e7565b6020604051808303816000875af1925050508015612f4957506040513d601f19601f82011682018060405250810190612f469190615148565b60015b612fcc573d8060008114612f79576040519150601f19603f3d011682016040523d82523d6000602084013e612f7e565b606091505b50600081511415612fc4576040517f08c379a0000000000000000000000000000000000000000000000000000000008152600401612fbb90615072565b60405180910390fd5b805181602001fd5b63150b7a0260e01b7bffffffffffffffffffffffffffffffffffffffffffffffffffffffff1916817bffffffffffffffffffffffffffffffffffffffffffffffffffffffff191614915050613021565b600190505b949350505050565b6130338383613208565b6130406000848484612ea1565b61307f576040517f08c379a000000000000000000000000000000000000000000000000000000000815260040161307690615072565b60405180910390fd5b505050565b606060008214156130cc576040518060400160405280600181526020017f300000000000000000000000000000000000000000000000000000000000000081525090506131e0565b600082905060005b600082146130fe5780806130e7906143d8565b915050600a826130f79190614616565b91506130d4565b60008167ffffffffffffffff81111561311a57613119613d9e565b5b6040519080825280601f01601f19166020018201604052801561314c5781602001600182028036833780820191505090505b5090505b600085146131d95760018261316591906145b3565b9150600a856131749190614c53565b60306131809190614647565b60f81b81838151811061319657613195614709565b5b60200101907effffffffffffffffffffffffffffffffffffffffffffffffffffffffffffff1916908160001a905350600a856131d29190614616565b9450613150565b8093505050505b919050565b6000808273ffffffffffffffffffffffffffffffffffffffff163b119050919050565b600073ffffffffffffffffffffffffffffffffffffffff168273ffffffffffffffffffffffffffffffffffffffff161415613278576040517f08c379a000000000000000000000000000000000000000000000000000000000815260040161326f906151c1565b60405180910390fd5b61328181612e2b565b156132c1576040517f08c379a00000000000000000000000000000000000000000000000000000000081526004016132b89061522d565b60405180910390fd5b6132cd60008383612e97565b6001600360008473ffffffffffffffffffffffffffffffffffffffff1673ffffffffffffffffffffffffffffffffffffffff168152602001908152602001600020600082825461331d9190614647565b92505081905550816002600083815260200190815260200160002060006101000a81548173ffffffffffffffffffffffffffffffffffffffff021916908373ffffffffffffffffffffffffffffffffffffffff160217905550808273ffffffffffffffffffffffffffffffffffffffff16600073ffffffffffffffffffffffffffffffffffffffff167fddf252ad1be2c89b69c2b068fc378daa952ba7f163c4a11628f55a4df523b3ef60405160405180910390a46133de60008383612e9c565b5050565b6040518060e001604052806000801916815260200160008152602001613406613454565b8152602001600060ff168152602001600060ff168152602001600060ff168152602001600060ff1681525090565b6040518060400160405280600060ff168152602001600060ff1681525090565b6040518060e00160405280600060ff168152602001600060ff168152602001600060ff168152602001600060ff168152602001600060ff168152602001600060ff168152602001600060ff1681525090565b6000604051905090565b600080fd5b600080fd5b60007fffffffff0000000000000000000000000000000000000000000000000000000082169050919050565b6134ef816134ba565b81146134fa57600080fd5b50565b60008135905061350c816134e6565b92915050565b600060208284031215613528576135276134b0565b5b6000613536848285016134fd565b91505092915050565b60008115159050919050565b6135548161353f565b82525050565b600060208201905061356f600083018461354b565b92915050565b600073ffffffffffffffffffffffffffffffffffffffff82169050919050565b6000819050919050565b60006135ba6135b56135b084613575565b613595565b613575565b9050919050565b60006135cc8261359f565b9050919050565b60006135de826135c1565b9050919050565b6135ee816135d3565b82525050565b600060208201905061360960008301846135e5565b92915050565b600081519050919050565b600082825260208201905092915050565b60005b8381101561364957808201518184015260208101905061362e565b83811115613658576000848401525b50505050565b6000601f19601f8301169050919050565b600061367a8261360f565b613684818561361a565b935061369481856020860161362b565b61369d8161365e565b840191505092915050565b600060208201905081810360008301526136c2818461366f565b905092915050565b6000819050919050565b6136dd816136ca565b81146136e857600080fd5b50565b6000813590506136fa816136d4565b92915050565b600060208284031215613716576137156134b0565b5b6000613724848285016136eb565b91505092915050565b600061373882613575565b9050919050565b6137488161372d565b82525050565b6000602082019050613763600083018461373f565b92915050565b6137728161372d565b811461377d57600080fd5b50565b60008135905061378f81613769565b92915050565b600080604083850312156137ac576137ab6134b0565b5b60006137ba85828601613780565b92505060206137cb858286016136eb565b9150509250929050565b6000819050919050565b6137e8816137d5565b81146137f357600080fd5b50565b600081359050613805816137df565b92915050565b600060208284031215613821576138206134b0565b5b600061382f848285016137f6565b91505092915050565b613841816137d5565b82525050565b600060208201905061385c6000830184613838565b92915050565b6000819050919050565b61387581613862565b82525050565b6000602082019050613890600083018461386c565b92915050565b6000806000606084860312156138af576138ae6134b0565b5b60006138bd86828701613780565b93505060206138ce86828701613780565b92505060406138df868287016136eb565b9150509250925092565b600060ff82169050919050565b6138ff816138e9565b82525050565b600060208201905061391a60008301846138f6565b92915050565b613929816136ca565b82525050565b613938816138e9565b82525050565b60e082016000820151613954600085018261392f565b506020820151613967602085018261392f565b50604082015161397a604085018261392f565b50606082015161398d606085018261392f565b5060808201516139a0608085018261392f565b5060a08201516139b360a085018261392f565b5060c08201516139c660c085018261392f565b50505050565b60006101a0820190506139e2600083018a61386c565b6139ef6020830189613920565b6139fc604083018861393e565b613a0a6101208301876138f6565b613a186101408301866138f6565b613a266101608301856138f6565b613a346101808301846138f6565b98975050505050505050565b60008060008060808587031215613a5a57613a596134b0565b5b6000613a68878288016136eb565b9450506020613a79878288016136eb565b9350506040613a8a878288016136eb565b9250506060613a9b878288016136eb565b91505092959194509250565b600060208284031215613abd57613abc6134b0565b5b6000613acb84828501613780565b91505092915050565b600081519050919050565b600082825260208201905092915050565b6000819050602082019050919050565b613b0981613862565b82525050565b613b18816136ca565b82525050565b60e082016000820151613b34600085018261392f565b506020820151613b47602085018261392f565b506040820151613b5a604085018261392f565b506060820151613b6d606085018261392f565b506080820151613b80608085018261392f565b5060a0820151613b9360a085018261392f565b5060c0820151613ba660c085018261392f565b50505050565b6101a082016000820151613bc36000850182613b00565b506020820151613bd66020850182613b0f565b506040820151613be96040850182613b1e565b506060820151613bfd61012085018261392f565b506080820151613c1161014085018261392f565b5060a0820151613c2561016085018261392f565b5060c0820151613c3961018085018261392f565b50505050565b6000613c4b8383613bac565b6101a08301905092915050565b6000602082019050919050565b6000613c7082613ad4565b613c7a8185613adf565b9350613c8583613af0565b8060005b83811015613cb6578151613c9d8882613c3f565b9750613ca883613c58565b925050600181019050613c89565b5085935050505092915050565b60006020820190508181036000830152613cdd8184613c65565b905092915050565b60008060408385031215613cfc57613cfb6134b0565b5b6000613d0a858286016136eb565b9250506020613d1b858286016136eb565b9150509250929050565b6000602082019050613d3a6000830184613920565b92915050565b613d498161353f565b8114613d5457600080fd5b50565b600081359050613d6681613d40565b92915050565b600060208284031215613d8257613d816134b0565b5b6000613d9084828501613d57565b91505092915050565b600080fd5b7f4e487b7100000000000000000000000000000000000000000000000000000000600052604160045260246000fd5b613dd68261365e565b810181811067ffffffffffffffff82111715613df557613df4613d9e565b5b80604052505050565b6000613e086134a6565b9050613e148282613dcd565b919050565b613e22816138e9565b8114613e2d57600080fd5b50565b600081359050613e3f81613e19565b92915050565b600060408284031215613e5b57613e5a613d99565b5b613e656040613dfe565b90506000613e7584828501613e30565b6000830152506020613e8984828501613e30565b60208301525092915050565b60008060608385031215613eac57613eab6134b0565b5b6000613eba858286016136eb565b9250506020613ecb85828601613e45565b9150509250929050565b604082016000820151613eeb600085018261392f565b506020820151613efe602085018261392f565b50505050565b6000604082019050613f196000830184613ed5565b92915050565b613f2881613862565b8114613f3357600080fd5b50565b600081359050613f4581613f1f565b92915050565b600080600060608486031215613f6457613f636134b0565b5b6000613f7286828701613f36565b9350506020613f83868287016136eb565b9250506040613f94868287016136eb565b9150509250925092565b60008060408385031215613fb557613fb46134b0565b5b6000613fc385828601613780565b9250506020613fd485828601613d57565b9150509250929050565b600080fd5b600080fd5b600067ffffffffffffffff82111561400357614002613d9e565b5b61400c8261365e565b9050602081019050919050565b82818337600083830152505050565b600061403b61403684613fe8565b613dfe565b90508281526020810184848401111561405757614056613fe3565b5b614062848285614019565b509392505050565b600082601f83011261407f5761407e613fde565b5b813561408f848260208601614028565b91505092915050565b600080600080608085870312156140b2576140b16134b0565b5b60006140c087828801613780565b94505060206140d187828801613780565b93505060406140e2878288016136eb565b925050606085013567ffffffffffffffff811115614103576141026134b5565b5b61410f8782880161406a565b91505092959194509250565b60008060408385031215614132576141316134b0565b5b600061414085828601613780565b925050602061415185828601613780565b9150509250929050565b60008060408385031215614172576141716134b0565b5b600061418085828601613e30565b925050602061419185828601613e30565b9150509250929050565b600080608083850312156141b2576141b16134b0565b5b60006141c085828601613e45565b92505060406141d185828601613e45565b9150509250929050565b7f4e487b7100000000000000000000000000000000000000000000000000000000600052602260045260246000fd5b6000600282049050600182168061422257607f821691505b60208210811415614236576142356141db565b5b50919050565b7f4552433732313a20617070726f76616c20746f2063757272656e74206f776e6560008201527f7200000000000000000000000000000000000000000000000000000000000000602082015250565b600061429860218361361a565b91506142a38261423c565b604082019050919050565b600060208201905081810360008301526142c78161428b565b9050919050565b7f4552433732313a20617070726f76652063616c6c6572206973206e6f7420746f60008201527f6b656e206f776e6572206e6f7220617070726f76656420666f7220616c6c0000602082015250565b600061432a603e8361361a565b9150614335826142ce565b604082019050919050565b600060208201905081810360008301526143598161431d565b9050919050565b7f4e487b7100000000000000000000000000000000000000000000000000000000600052601160045260246000fd5b600061439a826137d5565b91507f80000000000000000000000000000000000000000000000000000000000000008214156143cd576143cc614360565b5b816000039050919050565b60006143e3826136ca565b91507fffffffffffffffffffffffffffffffffffffffffffffffffffffffffffffffff82141561441657614415614360565b5b600182019050919050565b6000819050919050565b61443c614437826136ca565b614421565b82525050565b60008160601b9050919050565b600061445a82614442565b9050919050565b600061446c8261444f565b9050919050565b61448461447f8261372d565b614461565b82525050565b6000614496828661442b565b6020820191506144a6828561442b565b6020820191506144b68284614473565b601482019150819050949350505050565b7f4552433732313a2063616c6c6572206973206e6f7420746f6b656e206f776e6560008201527f72206e6f7220617070726f766564000000000000000000000000000000000000602082015250565b6000614523602e8361361a565b915061452e826144c7565b604082019050919050565b6000602082019050818103600083015261455281614516565b9050919050565b6000614564826136ca565b915061456f836136ca565b9250817fffffffffffffffffffffffffffffffffffffffffffffffffffffffffffffffff04831182151516156145a8576145a7614360565b5b828202905092915050565b60006145be826136ca565b91506145c9836136ca565b9250828210156145dc576145db614360565b5b828203905092915050565b7f4e487b7100000000000000000000000000000000000000000000000000000000600052601260045260246000fd5b6000614621826136ca565b915061462c836136ca565b92508261463c5761463b6145e7565b5b828204905092915050565b6000614652826136ca565b915061465d836136ca565b9250827fffffffffffffffffffffffffffffffffffffffffffffffffffffffffffffffff0382111561469257614691614360565b5b828201905092915050565b7f4552433732313a20696e76616c696420746f6b656e2049440000000000000000600082015250565b60006146d360188361361a565b91506146de8261469d565b602082019050919050565b60006020820190508181036000830152614702816146c6565b9050919050565b7f4e487b7100000000000000000000000000000000000000000000000000000000600052603260045260246000fd5b7f4f6e6c792067616d657320636f6e747261637400000000000000000000000000600082015250565b600061476e60138361361a565b915061477982614738565b602082019050919050565b6000602082019050818103600083015261479d81614761565b9050919050565b60006147af826138e9565b915060ff8214156147c3576147c2614360565b5b600182019050919050565b7f4552433732313a2061646472657373207a65726f206973206e6f74206120766160008201527f6c6964206f776e65720000000000000000000000000000000000000000000000602082015250565b600061482a60298361361a565b9150614835826147ce565b604082019050919050565b600060208201905081810360008301526148598161481d565b9050919050565b600061486b826138e9565b9150614876836138e9565b92508282101561488957614888614360565b5b828203905092915050565b600061489f826138e9565b91506148aa836138e9565b92508260ff038211156148c0576148bf614360565b5b828201905092915050565b7f496e76616c696420646972656374696f6e000000000000000000000000000000600082015250565b600061490160118361361a565b915061490c826148cb565b602082019050919050565b60006020820190508181036000830152614930816148f4565b9050919050565b60008160011c9050919050565b6000808291508390505b600185111561498e5780860481111561496a57614969614360565b5b60018516156149795780820291505b808102905061498785614937565b945061494e565b94509492505050565b6000826149a75760019050614a63565b816149b55760009050614a63565b81600181146149cb57600281146149d557614a04565b6001915050614a63565b60ff8411156149e7576149e6614360565b5b8360020a9150848211156149fe576149fd614360565b5b50614a63565b5060208310610133831016604e8410600b8410161715614a395782820a905083811115614a3457614a33614360565b5b614a63565b614a468484846001614944565b92509050818404811115614a5d57614a5c614360565b5b81810290505b9392505050565b6000614a75826136ca565b9150614a80836136ca565b9250614aad7fffffffffffffffffffffffffffffffffffffffffffffffffffffffffffffffff8484614997565b905092915050565b7f496e636f7272656374207061796d656e74000000000000000000000000000000600082015250565b6000614aeb60118361361a565b9150614af682614ab5565b602082019050919050565b60006020820190508181036000830152614b1a81614ade565b9050919050565b7f4d696e74696e67206973206e6f74206163746976650000000000000000000000600082015250565b6000614b5760158361361a565b9150614b6282614b21565b602082019050919050565b60006020820190508181036000830152614b8681614b4a565b9050919050565b6000604082019050614ba26000830185613920565b614baf602083018461373f565b9392505050565b600081905092915050565b6000614bcc8261360f565b614bd68185614bb6565b9350614be681856020860161362b565b80840191505092915050565b6000614bfe8285614bc1565b9150614c0a8284614bc1565b91508190509392505050565b6000614c228286614473565b601482019150614c32828561442b565b602082019150614c42828461442b565b602082019150819050949350505050565b6000614c5e826136ca565b9150614c69836136ca565b925082614c7957614c786145e7565b5b828206905092915050565b7f4f776e61626c653a206e6577206f776e657220697320746865207a65726f206160008201527f6464726573730000000000000000000000000000000000000000000000000000602082015250565b6000614ce060268361361a565b9150614ceb82614c84565b604082019050919050565b60006020820190508181036000830152614d0f81614cd3565b9050919050565b60008160000b9050919050565b6000614d2e82614d16565b9150614d3983614d16565b9250827fffffffffffffffffffffffffffffffffffffffffffffffffffffffffffffff8001821260008412151615614d7457614d73614360565b5b82607f018213600084121615614d8d57614d8c614360565b5b828203905092915050565b7f4572726f723a204e6f742061646a6163656e7400000000000000000000000000600082015250565b6000614dce60138361361a565b9150614dd982614d98565b602082019050919050565b60006020820190508181036000830152614dfd81614dc1565b9050919050565b7f4552433732313a207472616e736665722066726f6d20696e636f72726563742060008201527f6f776e6572000000000000000000000000000000000000000000000000000000602082015250565b6000614e6060258361361a565b9150614e6b82614e04565b604082019050919050565b60006020820190508181036000830152614e8f81614e53565b9050919050565b7f4552433732313a207472616e7366657220746f20746865207a65726f2061646460008201527f7265737300000000000000000000000000000000000000000000000000000000602082015250565b6000614ef260248361361a565b9150614efd82614e96565b604082019050919050565b60006020820190508181036000830152614f2181614ee5565b9050919050565b7f4f776e61626c653a2063616c6c6572206973206e6f7420746865206f776e6572600082015250565b6000614f5e60208361361a565b9150614f6982614f28565b602082019050919050565b60006020820190508181036000830152614f8d81614f51565b9050919050565b7f4552433732313a20617070726f766520746f2063616c6c657200000000000000600082015250565b6000614fca60198361361a565b9150614fd582614f94565b602082019050919050565b60006020820190508181036000830152614ff981614fbd565b9050919050565b7f4552433732313a207472616e7366657220746f206e6f6e20455243373231526560008201527f63656976657220696d706c656d656e7465720000000000000000000000000000602082015250565b600061505c60328361361a565b915061506782615000565b604082019050919050565b6000602082019050818103600083015261508b8161504f565b9050919050565b600081519050919050565b600082825260208201905092915050565b60006150b982615092565b6150c3818561509d565b93506150d381856020860161362b565b6150dc8161365e565b840191505092915050565b60006080820190506150fc600083018761373f565b615109602083018661373f565b6151166040830185613920565b818103606083015261512881846150ae565b905095945050505050565b600081519050615142816134e6565b92915050565b60006020828403121561515e5761515d6134b0565b5b600061516c84828501615133565b91505092915050565b7f4552433732313a206d696e7420746f20746865207a65726f2061646472657373600082015250565b60006151ab60208361361a565b91506151b682615175565b602082019050919050565b600060208201905081810360008301526151da8161519e565b9050919050565b7f4552433732313a20746f6b656e20616c7265616479206d696e74656400000000600082015250565b6000615217601c8361361a565b9150615222826151e1565b602082019050919050565b600060208201905081810360008301526152468161520a565b905091905056fea2646970667358221220fbf2129f434aa7715f238b69543ef3fcbbe4bfd212006a9abcde8b86e95a9c0464736f6c634300080c0033",
  "devdoc": {
    "kind": "dev",
    "methods": {
      "approve(address,uint256)": {
        "details": "See {IERC721-approve}."
      },
      "balanceOf(address)": {
        "details": "See {IERC721-balanceOf}."
      },
      "getApproved(uint256)": {
        "details": "See {IERC721-getApproved}."
      },
      "isApprovedForAll(address,address)": {
        "details": "See {IERC721-isApprovedForAll}."
      },
      "name()": {
        "details": "See {IERC721Metadata-name}."
      },
      "owner()": {
        "details": "Returns the address of the current owner."
      },
      "ownerOf(uint256)": {
        "details": "See {IERC721-ownerOf}."
      },
      "renounceOwnership()": {
        "details": "Leaves the contract without owner. It will not be possible to call `onlyOwner` functions anymore. Can only be called by the current owner. NOTE: Renouncing ownership will leave the contract without an owner, thereby removing any functionality that is only available to the owner."
      },
      "safeTransferFrom(address,address,uint256)": {
        "details": "See {IERC721-safeTransferFrom}."
      },
      "safeTransferFrom(address,address,uint256,bytes)": {
        "details": "See {IERC721-safeTransferFrom}."
      },
      "setApprovalForAll(address,bool)": {
        "details": "See {IERC721-setApprovalForAll}."
      },
      "supportsInterface(bytes4)": {
        "details": "See {IERC165-supportsInterface}."
      },
      "symbol()": {
        "details": "See {IERC721Metadata-symbol}."
      },
      "tokenURI(uint256)": {
        "details": "See {IERC721Metadata-tokenURI}."
      },
      "transferFrom(address,address,uint256)": {
        "details": "See {IERC721-transferFrom}."
      },
      "transferOwnership(address)": {
        "details": "Transfers ownership of the contract to a new account (`newOwner`). Can only be called by the current owner."
      }
    },
    "version": 1
  },
  "userdoc": {
    "kind": "user",
    "methods": {},
    "version": 1
  },
  "storageLayout": {
    "storage": [
      {
        "astId": 138,
        "contract": "contracts/BCChars.sol:BCChars",
        "label": "_name",
        "offset": 0,
        "slot": "0",
        "type": "t_string_storage"
      },
      {
        "astId": 140,
        "contract": "contracts/BCChars.sol:BCChars",
        "label": "_symbol",
        "offset": 0,
        "slot": "1",
        "type": "t_string_storage"
      },
      {
        "astId": 144,
        "contract": "contracts/BCChars.sol:BCChars",
        "label": "_owners",
        "offset": 0,
        "slot": "2",
        "type": "t_mapping(t_uint256,t_address)"
      },
      {
        "astId": 148,
        "contract": "contracts/BCChars.sol:BCChars",
        "label": "_balances",
        "offset": 0,
        "slot": "3",
        "type": "t_mapping(t_address,t_uint256)"
      },
      {
        "astId": 152,
        "contract": "contracts/BCChars.sol:BCChars",
        "label": "_tokenApprovals",
        "offset": 0,
        "slot": "4",
        "type": "t_mapping(t_uint256,t_address)"
      },
      {
        "astId": 158,
        "contract": "contracts/BCChars.sol:BCChars",
        "label": "_operatorApprovals",
        "offset": 0,
        "slot": "5",
        "type": "t_mapping(t_address,t_mapping(t_address,t_bool))"
      },
      {
        "astId": 1126,
        "contract": "contracts/BCChars.sol:BCChars",
        "label": "_tokenURIs",
        "offset": 0,
        "slot": "6",
        "type": "t_mapping(t_uint256,t_string_storage)"
      },
      {
        "astId": 7,
        "contract": "contracts/BCChars.sol:BCChars",
        "label": "_owner",
        "offset": 0,
        "slot": "7",
        "type": "t_address"
      },
      {
        "astId": 6366,
        "contract": "contracts/BCChars.sol:BCChars",
        "label": "TODO_randomSeed",
        "offset": 0,
        "slot": "8",
        "type": "t_uint256"
      },
      {
        "astId": 1943,
        "contract": "contracts/BCChars.sol:BCChars",
        "label": "lobbies",
        "offset": 0,
        "slot": "9",
        "type": "t_contract(LobbyInterface)1934"
      },
      {
        "astId": 1965,
        "contract": "contracts/BCChars.sol:BCChars",
        "label": "gamesContract",
        "offset": 0,
        "slot": "10",
        "type": "t_address"
      },
      {
        "astId": 1972,
        "contract": "contracts/BCChars.sol:BCChars",
        "label": "enlistCost",
        "offset": 0,
        "slot": "11",
        "type": "t_uint256"
      },
      {
        "astId": 1979,
        "contract": "contracts/BCChars.sol:BCChars",
        "label": "mintCost",
        "offset": 0,
        "slot": "12",
        "type": "t_uint256"
      },
      {
        "astId": 1982,
        "contract": "contracts/BCChars.sol:BCChars",
        "label": "mintIsActive",
        "offset": 0,
        "slot": "13",
        "type": "t_bool"
      },
      {
        "astId": 1985,
        "contract": "contracts/BCChars.sol:BCChars",
        "label": "healthCap",
        "offset": 1,
        "slot": "13",
        "type": "t_uint8"
      },
      {
        "astId": 1988,
        "contract": "contracts/BCChars.sol:BCChars",
        "label": "carryCap",
        "offset": 2,
        "slot": "13",
        "type": "t_uint8"
      },
      {
        "astId": 1991,
        "contract": "contracts/BCChars.sol:BCChars",
        "label": "defenseCap",
        "offset": 3,
        "slot": "13",
        "type": "t_uint8"
      },
      {
        "astId": 1994,
        "contract": "contracts/BCChars.sol:BCChars",
        "label": "hackCap",
        "offset": 4,
        "slot": "13",
        "type": "t_uint8"
      },
      {
        "astId": 1997,
        "contract": "contracts/BCChars.sol:BCChars",
        "label": "breachCap",
        "offset": 5,
        "slot": "13",
        "type": "t_uint8"
      },
      {
        "astId": 2000,
        "contract": "contracts/BCChars.sol:BCChars",
        "label": "shootCap",
        "offset": 6,
        "slot": "13",
        "type": "t_uint8"
      },
      {
        "astId": 2003,
        "contract": "contracts/BCChars.sol:BCChars",
        "label": "meleeCap",
        "offset": 7,
        "slot": "13",
        "type": "t_uint8"
      },
      {
        "astId": 2006,
        "contract": "contracts/BCChars.sol:BCChars",
        "label": "maxClonesCap",
        "offset": 8,
        "slot": "13",
        "type": "t_uint8"
      },
      {
        "astId": 2009,
        "contract": "contracts/BCChars.sol:BCChars",
        "label": "abilityCap",
        "offset": 9,
        "slot": "13",
        "type": "t_uint8"
      },
      {
        "astId": 2012,
        "contract": "contracts/BCChars.sol:BCChars",
        "label": "flawCap",
        "offset": 10,
        "slot": "13",
        "type": "t_uint8"
      },
      {
        "astId": 2016,
        "contract": "contracts/BCChars.sol:BCChars",
        "label": "characters",
        "offset": 0,
        "slot": "14",
        "type": "t_array(t_struct(Character)6358_storage)dyn_storage"
      }
    ],
    "types": {
      "t_address": {
        "encoding": "inplace",
        "label": "address",
        "numberOfBytes": "20"
      },
      "t_array(t_struct(Character)6358_storage)dyn_storage": {
        "base": "t_struct(Character)6358_storage",
        "encoding": "dynamic_array",
        "label": "struct BCTypes.Character[]",
        "numberOfBytes": "32"
      },
      "t_bool": {
        "encoding": "inplace",
        "label": "bool",
        "numberOfBytes": "1"
      },
      "t_bytes32": {
        "encoding": "inplace",
        "label": "bytes32",
        "numberOfBytes": "32"
      },
      "t_contract(LobbyInterface)1934": {
        "encoding": "inplace",
        "label": "contract LobbyInterface",
        "numberOfBytes": "20"
      },
      "t_mapping(t_address,t_bool)": {
        "encoding": "mapping",
        "key": "t_address",
        "label": "mapping(address => bool)",
        "numberOfBytes": "32",
        "value": "t_bool"
      },
      "t_mapping(t_address,t_mapping(t_address,t_bool))": {
        "encoding": "mapping",
        "key": "t_address",
        "label": "mapping(address => mapping(address => bool))",
        "numberOfBytes": "32",
        "value": "t_mapping(t_address,t_bool)"
      },
      "t_mapping(t_address,t_uint256)": {
        "encoding": "mapping",
        "key": "t_address",
        "label": "mapping(address => uint256)",
        "numberOfBytes": "32",
        "value": "t_uint256"
      },
      "t_mapping(t_uint256,t_address)": {
        "encoding": "mapping",
        "key": "t_uint256",
        "label": "mapping(uint256 => address)",
        "numberOfBytes": "32",
        "value": "t_address"
      },
      "t_mapping(t_uint256,t_string_storage)": {
        "encoding": "mapping",
        "key": "t_uint256",
        "label": "mapping(uint256 => string)",
        "numberOfBytes": "32",
        "value": "t_string_storage"
      },
      "t_string_storage": {
        "encoding": "bytes",
        "label": "string",
        "numberOfBytes": "32"
      },
      "t_struct(Character)6358_storage": {
        "encoding": "inplace",
        "label": "struct BCTypes.Character",
        "members": [
          {
            "astId": 6344,
            "contract": "contracts/BCChars.sol:BCChars",
            "label": "genHash",
            "offset": 0,
            "slot": "0",
            "type": "t_bytes32"
          },
          {
            "astId": 6346,
            "contract": "contracts/BCChars.sol:BCChars",
            "label": "id",
            "offset": 0,
            "slot": "1",
            "type": "t_uint256"
          },
          {
            "astId": 6349,
            "contract": "contracts/BCChars.sol:BCChars",
            "label": "traits",
            "offset": 0,
            "slot": "2",
            "type": "t_struct(Traits)6342_storage"
          },
          {
            "astId": 6351,
            "contract": "contracts/BCChars.sol:BCChars",
            "label": "cloneNumber",
            "offset": 0,
            "slot": "3",
            "type": "t_uint8"
          },
          {
            "astId": 6353,
            "contract": "contracts/BCChars.sol:BCChars",
            "label": "maxClones",
            "offset": 1,
            "slot": "3",
            "type": "t_uint8"
          },
          {
            "astId": 6355,
            "contract": "contracts/BCChars.sol:BCChars",
            "label": "ability",
            "offset": 2,
            "slot": "3",
            "type": "t_uint8"
          },
          {
            "astId": 6357,
            "contract": "contracts/BCChars.sol:BCChars",
            "label": "flaw",
            "offset": 3,
            "slot": "3",
            "type": "t_uint8"
          }
        ],
        "numberOfBytes": "128"
      },
      "t_struct(Traits)6342_storage": {
        "encoding": "inplace",
        "label": "struct BCTypes.Traits",
        "members": [
          {
            "astId": 6329,
            "contract": "contracts/BCChars.sol:BCChars",
            "label": "health",
            "offset": 0,
            "slot": "0",
            "type": "t_uint8"
          },
          {
            "astId": 6331,
            "contract": "contracts/BCChars.sol:BCChars",
            "label": "carry",
            "offset": 1,
            "slot": "0",
            "type": "t_uint8"
          },
          {
            "astId": 6333,
            "contract": "contracts/BCChars.sol:BCChars",
            "label": "defense",
            "offset": 2,
            "slot": "0",
            "type": "t_uint8"
          },
          {
            "astId": 6335,
            "contract": "contracts/BCChars.sol:BCChars",
            "label": "hack",
            "offset": 3,
            "slot": "0",
            "type": "t_uint8"
          },
          {
            "astId": 6337,
            "contract": "contracts/BCChars.sol:BCChars",
            "label": "breach",
            "offset": 4,
            "slot": "0",
            "type": "t_uint8"
          },
          {
            "astId": 6339,
            "contract": "contracts/BCChars.sol:BCChars",
            "label": "shoot",
            "offset": 5,
            "slot": "0",
            "type": "t_uint8"
          },
          {
            "astId": 6341,
            "contract": "contracts/BCChars.sol:BCChars",
            "label": "melee",
            "offset": 6,
            "slot": "0",
            "type": "t_uint8"
          }
        ],
        "numberOfBytes": "32"
      },
      "t_uint256": {
        "encoding": "inplace",
        "label": "uint256",
        "numberOfBytes": "32"
      },
      "t_uint8": {
        "encoding": "inplace",
        "label": "uint8",
        "numberOfBytes": "1"
      }
    }
  }
}