{
  "address": "0x33004c85B9C0293C24099A95d240034F03D49ab0",
  "abi": [
    {
      "inputs": [],
      "stateMutability": "nonpayable",
      "type": "constructor"
    },
    {
      "anonymous": false,
      "inputs": [
        {
          "indexed": false,
          "internalType": "uint256",
          "name": "gameId",
          "type": "uint256"
        },
        {
          "indexed": false,
          "internalType": "uint256",
          "name": "roll",
          "type": "uint256"
        },
        {
          "indexed": false,
          "internalType": "uint256",
          "name": "forValue",
          "type": "uint256"
        },
        {
          "indexed": false,
          "internalType": "uint256",
          "name": "against",
          "type": "uint256"
        }
      ],
      "name": "ChallengeEvent",
      "type": "event"
    },
    {
      "anonymous": false,
      "inputs": [
        {
          "indexed": false,
          "internalType": "uint256",
          "name": "gameId",
          "type": "uint256"
        },
        {
          "indexed": false,
          "internalType": "uint256",
          "name": "roll",
          "type": "uint256"
        }
      ],
      "name": "DiceRollEvent",
      "type": "event"
    },
    {
      "anonymous": false,
      "inputs": [
        {
          "indexed": true,
          "internalType": "address",
          "name": "previousOwner",
          "type": "address"
        },
        {
          "indexed": true,
          "internalType": "address",
          "name": "newOwner",
          "type": "address"
        }
      ],
      "name": "OwnershipTransferred",
      "type": "event"
    },
    {
      "anonymous": false,
      "inputs": [],
      "name": "Received",
      "type": "event"
    },
    {
      "inputs": [
        {
          "internalType": "uint256",
          "name": "_matic",
          "type": "uint256"
        }
      ],
      "name": "SetEnlistCostInMatic",
      "outputs": [],
      "stateMutability": "nonpayable",
      "type": "function"
    },
    {
      "inputs": [
        {
          "internalType": "uint256",
          "name": "_matic",
          "type": "uint256"
        }
      ],
      "name": "SetMintCostInMatic",
      "outputs": [],
      "stateMutability": "nonpayable",
      "type": "function"
    },
    {
      "inputs": [
        {
          "internalType": "int256",
          "name": "x",
          "type": "int256"
        }
      ],
      "name": "abs",
      "outputs": [
        {
          "internalType": "int256",
          "name": "",
          "type": "int256"
        }
      ],
      "stateMutability": "pure",
      "type": "function"
    },
    {
      "inputs": [],
      "name": "breachCap",
      "outputs": [
        {
          "internalType": "uint8",
          "name": "",
          "type": "uint8"
        }
      ],
      "stateMutability": "view",
      "type": "function"
    },
    {
      "inputs": [],
      "name": "carryCap",
      "outputs": [
        {
          "internalType": "uint8",
          "name": "",
          "type": "uint8"
        }
      ],
      "stateMutability": "view",
      "type": "function"
    },
    {
      "inputs": [
        {
          "internalType": "uint256",
          "name": "",
          "type": "uint256"
        }
      ],
      "name": "characters",
      "outputs": [
        {
          "internalType": "bytes32",
          "name": "genHash",
          "type": "bytes32"
        },
        {
          "internalType": "uint256",
          "name": "id",
          "type": "uint256"
        },
        {
          "internalType": "uint256",
          "name": "uifID",
          "type": "uint256"
        },
        {
          "components": [
            {
              "internalType": "int8",
              "name": "health",
              "type": "int8"
            },
            {
              "internalType": "int8",
              "name": "carry",
              "type": "int8"
            },
            {
              "internalType": "int8",
              "name": "defense",
              "type": "int8"
            },
            {
              "internalType": "int8",
              "name": "hack",
              "type": "int8"
            },
            {
              "internalType": "int8",
              "name": "breach",
              "type": "int8"
            },
            {
              "internalType": "int8",
              "name": "shoot",
              "type": "int8"
            },
            {
              "internalType": "int8",
              "name": "melee",
              "type": "int8"
            },
            {
              "internalType": "bool",
              "name": "hasGun",
              "type": "bool"
            }
          ],
          "internalType": "struct BCTypes.Traits",
          "name": "traits",
          "type": "tuple"
        },
        {
          "internalType": "uint8",
          "name": "cloneNumber",
          "type": "uint8"
        },
        {
          "internalType": "uint8",
          "name": "maxClones",
          "type": "uint8"
        },
        {
          "internalType": "uint8",
          "name": "ability",
          "type": "uint8"
        },
        {
          "internalType": "uint8",
          "name": "flaw",
          "type": "uint8"
        },
        {
          "internalType": "bool",
          "name": "inGame",
          "type": "bool"
        }
      ],
      "stateMutability": "view",
      "type": "function"
    },
    {
      "inputs": [],
      "name": "decantNewClone",
      "outputs": [],
      "stateMutability": "payable",
      "type": "function"
    },
    {
      "inputs": [],
      "name": "defenseCap",
      "outputs": [
        {
          "internalType": "uint8",
          "name": "",
          "type": "uint8"
        }
      ],
      "stateMutability": "view",
      "type": "function"
    },
    {
      "inputs": [
        {
          "internalType": "uint256",
          "name": "_charId",
          "type": "uint256"
        },
        {
          "internalType": "uint256[]",
          "name": "_itemIds",
          "type": "uint256[]"
        }
      ],
      "name": "enlistChar",
      "outputs": [],
      "stateMutability": "payable",
      "type": "function"
    },
    {
      "inputs": [],
      "name": "enlistCost",
      "outputs": [
        {
          "internalType": "uint256",
          "name": "",
          "type": "uint256"
        }
      ],
      "stateMutability": "view",
      "type": "function"
    },
    {
      "inputs": [
        {
          "internalType": "uint256",
          "name": "_charId",
          "type": "uint256"
        },
        {
          "internalType": "uint256[]",
          "name": "_itemIds",
          "type": "uint256[]"
        }
      ],
      "name": "enlistSolo",
      "outputs": [],
      "stateMutability": "payable",
      "type": "function"
    },
    {
      "inputs": [
        {
          "internalType": "uint256",
          "name": "_charId",
          "type": "uint256"
        }
      ],
      "name": "extGetChar",
      "outputs": [
        {
          "components": [
            {
              "internalType": "bytes32",
              "name": "genHash",
              "type": "bytes32"
            },
            {
              "internalType": "uint256",
              "name": "id",
              "type": "uint256"
            },
            {
              "internalType": "uint256",
              "name": "uifID",
              "type": "uint256"
            },
            {
              "components": [
                {
                  "internalType": "int8",
                  "name": "health",
                  "type": "int8"
                },
                {
                  "internalType": "int8",
                  "name": "carry",
                  "type": "int8"
                },
                {
                  "internalType": "int8",
                  "name": "defense",
                  "type": "int8"
                },
                {
                  "internalType": "int8",
                  "name": "hack",
                  "type": "int8"
                },
                {
                  "internalType": "int8",
                  "name": "breach",
                  "type": "int8"
                },
                {
                  "internalType": "int8",
                  "name": "shoot",
                  "type": "int8"
                },
                {
                  "internalType": "int8",
                  "name": "melee",
                  "type": "int8"
                },
                {
                  "internalType": "bool",
                  "name": "hasGun",
                  "type": "bool"
                }
              ],
              "internalType": "struct BCTypes.Traits",
              "name": "traits",
              "type": "tuple"
            },
            {
              "internalType": "uint8",
              "name": "cloneNumber",
              "type": "uint8"
            },
            {
              "internalType": "uint8",
              "name": "maxClones",
              "type": "uint8"
            },
            {
              "internalType": "uint8",
              "name": "ability",
              "type": "uint8"
            },
            {
              "internalType": "uint8",
              "name": "flaw",
              "type": "uint8"
            },
            {
              "internalType": "bool",
              "name": "inGame",
              "type": "bool"
            }
          ],
          "internalType": "struct BCTypes.Character",
          "name": "",
          "type": "tuple"
        }
      ],
      "stateMutability": "view",
      "type": "function"
    },
    {
      "inputs": [],
      "name": "gamesContract",
      "outputs": [
        {
          "internalType": "address",
          "name": "",
          "type": "address"
        }
      ],
      "stateMutability": "view",
      "type": "function"
    },
    {
      "inputs": [
        {
          "internalType": "address",
          "name": "_address",
          "type": "address"
        }
      ],
      "name": "getAllCharsByOwner",
      "outputs": [
        {
          "components": [
            {
              "internalType": "bytes32",
              "name": "genHash",
              "type": "bytes32"
            },
            {
              "internalType": "uint256",
              "name": "id",
              "type": "uint256"
            },
            {
              "internalType": "uint256",
              "name": "uifID",
              "type": "uint256"
            },
            {
              "components": [
                {
                  "internalType": "int8",
                  "name": "health",
                  "type": "int8"
                },
                {
                  "internalType": "int8",
                  "name": "carry",
                  "type": "int8"
                },
                {
                  "internalType": "int8",
                  "name": "defense",
                  "type": "int8"
                },
                {
                  "internalType": "int8",
                  "name": "hack",
                  "type": "int8"
                },
                {
                  "internalType": "int8",
                  "name": "breach",
                  "type": "int8"
                },
                {
                  "internalType": "int8",
                  "name": "shoot",
                  "type": "int8"
                },
                {
                  "internalType": "int8",
                  "name": "melee",
                  "type": "int8"
                },
                {
                  "internalType": "bool",
                  "name": "hasGun",
                  "type": "bool"
                }
              ],
              "internalType": "struct BCTypes.Traits",
              "name": "traits",
              "type": "tuple"
            },
            {
              "internalType": "uint8",
              "name": "cloneNumber",
              "type": "uint8"
            },
            {
              "internalType": "uint8",
              "name": "maxClones",
              "type": "uint8"
            },
            {
              "internalType": "uint8",
              "name": "ability",
              "type": "uint8"
            },
            {
              "internalType": "uint8",
              "name": "flaw",
              "type": "uint8"
            },
            {
              "internalType": "bool",
              "name": "inGame",
              "type": "bool"
            }
          ],
          "internalType": "struct BCTypes.Character[]",
          "name": "",
          "type": "tuple[]"
        }
      ],
      "stateMutability": "view",
      "type": "function"
    },
    {
      "inputs": [
        {
          "components": [
            {
              "internalType": "uint8",
              "name": "row",
              "type": "uint8"
            },
            {
              "internalType": "uint8",
              "name": "col",
              "type": "uint8"
            }
          ],
          "internalType": "struct BCTypes.Position",
          "name": "_firstRoom",
          "type": "tuple"
        },
        {
          "components": [
            {
              "internalType": "uint8",
              "name": "row",
              "type": "uint8"
            },
            {
              "internalType": "uint8",
              "name": "col",
              "type": "uint8"
            }
          ],
          "internalType": "struct BCTypes.Position",
          "name": "_secondRoom",
          "type": "tuple"
        }
      ],
      "name": "getDirectionBetween",
      "outputs": [
        {
          "internalType": "uint256",
          "name": "",
          "type": "uint256"
        }
      ],
      "stateMutability": "pure",
      "type": "function"
    },
    {
      "inputs": [
        {
          "internalType": "uint256",
          "name": "_direction",
          "type": "uint256"
        },
        {
          "components": [
            {
              "internalType": "uint8",
              "name": "row",
              "type": "uint8"
            },
            {
              "internalType": "uint8",
              "name": "col",
              "type": "uint8"
            }
          ],
          "internalType": "struct BCTypes.Position",
          "name": "_start",
          "type": "tuple"
        }
      ],
      "name": "getNeighborRoom",
      "outputs": [
        {
          "components": [
            {
              "internalType": "uint8",
              "name": "row",
              "type": "uint8"
            },
            {
              "internalType": "uint8",
              "name": "col",
              "type": "uint8"
            }
          ],
          "internalType": "struct BCTypes.Position",
          "name": "",
          "type": "tuple"
        }
      ],
      "stateMutability": "pure",
      "type": "function"
    },
    {
      "inputs": [
        {
          "internalType": "uint256",
          "name": "_traitNum",
          "type": "uint256"
        },
        {
          "internalType": "uint256",
          "name": "_subTraitNum",
          "type": "uint256"
        }
      ],
      "name": "getUIOffset",
      "outputs": [
        {
          "internalType": "uint256",
          "name": "",
          "type": "uint256"
        }
      ],
      "stateMutability": "pure",
      "type": "function"
    },
    {
      "inputs": [],
      "name": "hackCap",
      "outputs": [
        {
          "internalType": "uint8",
          "name": "",
          "type": "uint8"
        }
      ],
      "stateMutability": "view",
      "type": "function"
    },
    {
      "inputs": [],
      "name": "healthCap",
      "outputs": [
        {
          "internalType": "uint8",
          "name": "",
          "type": "uint8"
        }
      ],
      "stateMutability": "view",
      "type": "function"
    },
    {
      "inputs": [
        {
          "internalType": "uint256",
          "name": "_charId",
          "type": "uint256"
        }
      ],
      "name": "incrementCloneNumber",
      "outputs": [],
      "stateMutability": "nonpayable",
      "type": "function"
    },
    {
      "inputs": [
        {
          "internalType": "uint256",
          "name": "_charId",
          "type": "uint256"
        },
        {
          "internalType": "uint256",
          "name": "_uifID",
          "type": "uint256"
        }
      ],
      "name": "injectCHARUII",
      "outputs": [],
      "stateMutability": "nonpayable",
      "type": "function"
    },
    {
      "inputs": [
        {
          "internalType": "uint256",
          "name": "_charId",
          "type": "uint256"
        }
      ],
      "name": "leaveGame",
      "outputs": [],
      "stateMutability": "nonpayable",
      "type": "function"
    },
    {
      "inputs": [],
      "name": "lobbies",
      "outputs": [
        {
          "internalType": "contract LobbyInterface",
          "name": "",
          "type": "address"
        }
      ],
      "stateMutability": "view",
      "type": "function"
    },
    {
      "inputs": [
        {
          "components": [
            {
              "internalType": "uint8",
              "name": "row",
              "type": "uint8"
            },
            {
              "internalType": "uint8",
              "name": "col",
              "type": "uint8"
            }
          ],
          "internalType": "struct BCTypes.Position",
          "name": "_pos1",
          "type": "tuple"
        },
        {
          "components": [
            {
              "internalType": "uint8",
              "name": "row",
              "type": "uint8"
            },
            {
              "internalType": "uint8",
              "name": "col",
              "type": "uint8"
            }
          ],
          "internalType": "struct BCTypes.Position",
          "name": "_pos2",
          "type": "tuple"
        }
      ],
      "name": "manhattanDistance",
      "outputs": [
        {
          "internalType": "uint256",
          "name": "",
          "type": "uint256"
        }
      ],
      "stateMutability": "pure",
      "type": "function"
    },
    {
      "inputs": [],
      "name": "maxClonesCap",
      "outputs": [
        {
          "internalType": "uint8",
          "name": "",
          "type": "uint8"
        }
      ],
      "stateMutability": "view",
      "type": "function"
    },
    {
      "inputs": [],
      "name": "meleeCap",
      "outputs": [
        {
          "internalType": "uint8",
          "name": "",
          "type": "uint8"
        }
      ],
      "stateMutability": "view",
      "type": "function"
    },
    {
      "inputs": [],
      "name": "mintCost",
      "outputs": [
        {
          "internalType": "uint256",
          "name": "",
          "type": "uint256"
        }
      ],
      "stateMutability": "view",
      "type": "function"
    },
    {
      "inputs": [],
      "name": "mintIsActive",
      "outputs": [
        {
          "internalType": "bool",
          "name": "",
          "type": "bool"
        }
      ],
      "stateMutability": "view",
      "type": "function"
    },
    {
      "inputs": [
        {
          "internalType": "uint256",
          "name": "_min",
          "type": "uint256"
        },
        {
          "internalType": "uint256",
          "name": "_max",
          "type": "uint256"
        },
        {
          "internalType": "uint256",
          "name": "_val",
          "type": "uint256"
        },
        {
          "internalType": "uint256",
          "name": "_valMax",
          "type": "uint256"
        }
      ],
      "name": "normalizeToSmallRange",
      "outputs": [
        {
          "internalType": "uint8",
          "name": "",
          "type": "uint8"
        }
      ],
      "stateMutability": "pure",
      "type": "function"
    },
    {
      "inputs": [
        {
          "internalType": "address",
          "name": "_operator",
          "type": "address"
        },
        {
          "internalType": "address",
          "name": "_from",
          "type": "address"
        },
        {
          "internalType": "uint256",
          "name": "_tokenId",
          "type": "uint256"
        },
        {
          "internalType": "bytes",
          "name": "_data",
          "type": "bytes"
        }
      ],
      "name": "onERC721Received",
      "outputs": [
        {
          "internalType": "bytes4",
          "name": "",
          "type": "bytes4"
        }
      ],
      "stateMutability": "nonpayable",
      "type": "function"
    },
    {
      "inputs": [
        {
          "internalType": "uint256",
          "name": "_direction",
          "type": "uint256"
        }
      ],
      "name": "opposite",
      "outputs": [
        {
          "internalType": "uint256",
          "name": "",
          "type": "uint256"
        }
      ],
      "stateMutability": "pure",
      "type": "function"
    },
    {
      "inputs": [],
      "name": "owner",
      "outputs": [
        {
          "internalType": "address",
          "name": "",
          "type": "address"
        }
      ],
      "stateMutability": "view",
      "type": "function"
    },
    {
      "inputs": [],
      "name": "playersAddress",
      "outputs": [
        {
          "internalType": "address",
          "name": "",
          "type": "address"
        }
      ],
      "stateMutability": "view",
      "type": "function"
    },
    {
      "inputs": [],
      "name": "randKeccak",
      "outputs": [
        {
          "internalType": "bytes32",
          "name": "",
          "type": "bytes32"
        }
      ],
      "stateMutability": "nonpayable",
      "type": "function"
    },
    {
      "inputs": [],
      "name": "renounceOwnership",
      "outputs": [],
      "stateMutability": "nonpayable",
      "type": "function"
    },
    {
      "inputs": [
        {
          "internalType": "uint256",
          "name": "_gameId",
          "type": "uint256"
        },
        {
          "internalType": "uint256",
          "name": "_for",
          "type": "uint256"
        },
        {
          "internalType": "uint256",
          "name": "_against",
          "type": "uint256"
        }
      ],
      "name": "resolveChallenge",
      "outputs": [
        {
          "internalType": "bool",
          "name": "",
          "type": "bool"
        }
      ],
      "stateMutability": "nonpayable",
      "type": "function"
    },
    {
      "inputs": [
        {
          "internalType": "uint256",
          "name": "_charId",
          "type": "uint256"
        }
      ],
      "name": "returnChar",
      "outputs": [],
      "stateMutability": "nonpayable",
      "type": "function"
    },
    {
      "inputs": [
        {
          "internalType": "uint256",
          "name": "_gameId",
          "type": "uint256"
        }
      ],
      "name": "roll",
      "outputs": [
        {
          "internalType": "uint256",
          "name": "",
          "type": "uint256"
        }
      ],
      "stateMutability": "nonpayable",
      "type": "function"
    },
    {
      "inputs": [
        {
          "internalType": "address",
          "name": "_lobbyContractAddress",
          "type": "address"
        },
        {
          "internalType": "address",
          "name": "_gameContract",
          "type": "address"
        },
        {
          "internalType": "address",
          "name": "_UIFAddress",
          "type": "address"
        },
        {
          "internalType": "address",
          "name": "_playersAddress",
          "type": "address"
        }
      ],
      "name": "setContractAddresses",
      "outputs": [],
      "stateMutability": "nonpayable",
      "type": "function"
    },
    {
      "inputs": [
        {
          "internalType": "bool",
          "name": "_status",
          "type": "bool"
        }
      ],
      "name": "setMintingStatus",
      "outputs": [],
      "stateMutability": "nonpayable",
      "type": "function"
    },
    {
      "inputs": [],
      "name": "shootCap",
      "outputs": [
        {
          "internalType": "uint8",
          "name": "",
          "type": "uint8"
        }
      ],
      "stateMutability": "view",
      "type": "function"
    },
    {
      "inputs": [
        {
          "internalType": "bytes32",
          "name": "_hash",
          "type": "bytes32"
        },
        {
          "internalType": "uint256",
          "name": "_size",
          "type": "uint256"
        },
        {
          "internalType": "uint256",
          "name": "_offset",
          "type": "uint256"
        }
      ],
      "name": "sliceHashToSmallInt",
      "outputs": [
        {
          "internalType": "uint8",
          "name": "",
          "type": "uint8"
        }
      ],
      "stateMutability": "pure",
      "type": "function"
    },
    {
      "inputs": [
        {
          "internalType": "uint8",
          "name": "_min",
          "type": "uint8"
        },
        {
          "internalType": "uint8",
          "name": "_max",
          "type": "uint8"
        }
      ],
      "name": "smallIntBetweenVals",
      "outputs": [
        {
          "internalType": "uint8",
          "name": "",
          "type": "uint8"
        }
      ],
      "stateMutability": "nonpayable",
      "type": "function"
    },
    {
      "inputs": [],
      "name": "soloCost",
      "outputs": [
        {
          "internalType": "uint256",
          "name": "",
          "type": "uint256"
        }
      ],
      "stateMutability": "view",
      "type": "function"
    },
    {
      "inputs": [],
      "name": "transferFundsOut",
      "outputs": [],
      "stateMutability": "nonpayable",
      "type": "function"
    },
    {
      "inputs": [
        {
          "internalType": "address",
          "name": "newOwner",
          "type": "address"
        }
      ],
      "name": "transferOwnership",
      "outputs": [],
      "stateMutability": "nonpayable",
      "type": "function"
    },
    {
      "inputs": [],
      "name": "uif",
      "outputs": [
        {
          "internalType": "contract UIFInterface",
          "name": "",
          "type": "address"
        }
      ],
      "stateMutability": "view",
      "type": "function"
    },
    {
      "inputs": [],
      "name": "uifCost",
      "outputs": [
        {
          "internalType": "uint256",
          "name": "",
          "type": "uint256"
        }
      ],
      "stateMutability": "view",
      "type": "function"
    }
  ],
  "transactionHash": "0x4045f1bd1d915d609b0bd33760d5bf779315d06bfa8e7c25d39860d67828e18a",
  "args": [],
  "numDeployments": 1,
  "solcInputHash": "c135a17d550c85f8b826ea79e494fac6",
  "bytecode": "0x60806040526000600155655af3107a40006006819055662386f26fc1000060075564174876e800600855620000369060056200036c565b600955600a80546001600160581b0319166a0a0a6404040404040504011790553480156200006357600080fd5b506200006f336200031c565b620000fd60408051610120810182526000808252602080830182905282840182905283516101008101855282815290810182905292830181905260608381018290526080840182905260a0840182905260c0840182905260e0840191909152909190820190815260006020820181905260408201819052606082018190526080820181905260a09091015290565b600b81908060018154018082558091505060019003906000526020600020906005020160009091909190915060008201518160000155602082015181600101556040820151816002015560608201518160030160008201518160000160006101000a81548160ff021916908360000b60ff16021790555060208201518160000160016101000a81548160ff021916908360000b60ff16021790555060408201518160000160026101000a81548160ff021916908360000b60ff16021790555060608201518160000160036101000a81548160ff021916908360000b60ff16021790555060808201518160000160046101000a81548160ff021916908360000b60ff16021790555060a08201518160000160056101000a81548160ff021916908360000b60ff16021790555060c08201518160000160066101000a81548160ff021916908360000b60ff16021790555060e08201518160000160076101000a81548160ff021916908315150217905550505060808201518160040160006101000a81548160ff021916908360ff16021790555060a08201518160040160016101000a81548160ff021916908360ff16021790555060c08201518160040160026101000a81548160ff021916908360ff16021790555060e08201518160040160036101000a81548160ff021916908360ff1602179055506101008201518160040160046101000a81548160ff02191690831515021790555050505062000398565b600080546001600160a01b038381166001600160a01b0319831681178455604051919092169283917f8be0079c531659141344cd1fd0a4f28419497f9722a3daafe3b4186f6b6457e09190a35050565b80820281158282048414176200039257634e487b7160e01b600052601160045260246000fd5b92915050565b61326880620003a86000396000f3fe6080604052600436106102935760003560e01c806364db84bf1161015a578063aaa68777116100c1578063cbfb23881161007a578063cbfb23881461081f578063ce28613f14610840578063f10bff2b14610860578063f2fde38b14610880578063fa3993c2146108a0578063fdcadf81146108c057600080fd5b8063aaa687771461079c578063aabc100f146107bc578063b926be2a146107cf578063ba1ee7cf146107ee578063bb999a00146107f6578063bdb4b8481461080957600080fd5b80637420aa36116101135780637420aa36146106bd5780638214f222146106dd57806384c38c8b146106fd5780638da5cb5b1461071d578063951fc3fe1461073b57806397f34c3f1461077c57600080fd5b806364db84bf146106075780636963c568146106275780636d6ba75614610647578063705498dc14610667578063715018a614610687578063733882b71461069c57600080fd5b80633feef58a116101fe578063501f9784116101b7578063501f97841461053357806353011696146105535780635dc96967146105735780635ee38b2f146105935780636284ef2c146105b95780636362fe42146105da57600080fd5b80633feef58a1461046757806342f037451461048757806345de18b81461049d578063471a4294146104be578063471fa53a146104e85780634810bc59146104fe57600080fd5b80631b5ac4b5116102505780631b5ac4b51461039d5780631e1de205146103cb5780631f7b4f30146103e05780633838aed11461040057806339a54a30146104155780633f6becfa1461044857600080fd5b80630364f88c1461029857806303b414e4146102d557806303fc4948146102f5578063149d2f8114610322578063150b7a0214610344578063154fa27a1461037d575b600080fd5b3480156102a457600080fd5b506002546102b8906001600160a01b031681565b6040516001600160a01b0390911681526020015b60405180910390f35b3480156102e157600080fd5b506005546102b8906001600160a01b031681565b34801561030157600080fd5b506103156103103660046128de565b6108d6565b6040516102cc91906129cb565b34801561032e57600080fd5b5061034261033d3660046128de565b610a05565b005b34801561035057600080fd5b5061036461035f3660046129ef565b610a83565b6040516001600160e01b031990911681526020016102cc565b34801561038957600080fd5b506003546102b8906001600160a01b031681565b3480156103a957600080fd5b506103bd6103b83660046128de565b610ac0565b6040519081526020016102cc565b3480156103d757600080fd5b506103bd610ae0565b3480156103ec57600080fd5b506103bd6103fb3660046128de565b610b58565b34801561040c57600080fd5b50610342610bb4565b34801561042157600080fd5b50600a5461043690600160201b900460ff1681565b60405160ff90911681526020016102cc565b34801561045457600080fd5b50610342610463366004612a8e565b5050565b34801561047357600080fd5b506103426104823660046128de565b610bf6565b34801561049357600080fd5b506103bd60095481565b3480156104a957600080fd5b50600a5461043690600160381b900460ff1681565b3480156104ca57600080fd5b50600a546104d89060ff1681565b60405190151581526020016102cc565b3480156104f457600080fd5b506103bd60085481565b34801561050a57600080fd5b5061051e6105193660046128de565b610c85565b6040516102cc99989796959493929190612ab0565b34801561053f57600080fd5b5061034261054e3660046128de565b610d5d565b34801561055f57600080fd5b5061043661056e366004612b0d565b610d7d565b34801561057f57600080fd5b506104d861058e366004612b3f565b610dba565b34801561059f57600080fd5b50600a546104369068010000000000000000900460ff1681565b3480156105c557600080fd5b50600a54610436906301000000900460ff1681565b3480156105e657600080fd5b506105fa6105f5366004612b6b565b610e57565b6040516102cc9190612b88565b34801561061357600080fd5b506103bd610622366004612a8e565b611058565b34801561063357600080fd5b50600a546104369062010000900460ff1681565b34801561065357600080fd5b506103426106623660046128de565b611070565b34801561067357600080fd5b506004546102b8906001600160a01b031681565b34801561069357600080fd5b50610342611112565b3480156106a857600080fd5b50600a5461043690600160301b900460ff1681565b3480156106c957600080fd5b506103426106d8366004612bd7565b611126565b3480156106e957600080fd5b506103bd6106f83660046128de565b611141565b34801561070957600080fd5b506103426107183660046128de565b6111bb565b34801561072957600080fd5b506000546001600160a01b03166102b8565b34801561074757600080fd5b5061075b610756366004612cb4565b6111db565b60408051825160ff90811682526020938401511692810192909252016102cc565b34801561078857600080fd5b50610436610797366004612b3f565b611305565b3480156107a857600080fd5b506103426107b7366004612ce1565b611330565b6103426107ca366004612d3d565b611388565b3480156107db57600080fd5b50600a5461043690610100900460ff1681565b610342611736565b610342610804366004612d3d565b611db7565b34801561081557600080fd5b506103bd60075481565b34801561082b57600080fd5b50600a5461043690600160281b900460ff1681565b34801561084c57600080fd5b5061043661085b366004612def565b61212d565b34801561086c57600080fd5b506103bd61087b366004612e19565b6121dd565b34801561088c57600080fd5b5061034261089b366004612b6b565b61222a565b3480156108ac57600080fd5b506103bd6108bb366004612e19565b6122a0565b3480156108cc57600080fd5b506103bd60065481565b6108de612854565b600b82815481106108f1576108f1612e45565b60009182526020808320604080516101208101825260059094029091018054845260018101548484015260028101548483015281516101008082018452600383015480880b8352818104880b9583019590955262010000808604880b948301949094526301000000808604880b606084810191909152600160201b8088048a0b608080870191909152600160281b89048b0b60a080880191909152600160301b8a04909b0b60c08088019190915260ff600160381b909a048a16151560e080890191909152938b0196909652600490960154808916968a0196909652838604881699890199909952948404861692870192909252908204841692850192909252939093041615159181019190915292915050565b600b8181548110610a1857610a18612e45565b6000918252602090912060059091020160040154600160201b900460ff1615610a775760405162461bcd60e51b815260206004820152600c60248201526b4368617220696e2067616d6560a01b60448201526064015b60405180910390fd5b610a8081612368565b50565b6040516000907f544c765b33ca411cce832250371569244f765a17fcd217832be093f0fd5fa45b908290a150630a85bd0160e11b95945050505050565b600080821215610ad857610ad382612e71565b610ada565b815b92915050565b6001805460009182610af183612e8d565b9190505550600154600143610b069190612ea6565b4033604051602001610b3d93929190928352602083019190915260601b6bffffffffffffffffffffffff1916604082015260540190565b60405160208183030381529060405280519060200120905090565b600080610b676001600661212d565b60ff1690507ffe34d093a460a16ee5fb374540914d1c734a17502c0c1a87b387c8d6097e1c518382604051610ba6929190918252602082015260400190565b60405180910390a192915050565b610bbc6125a0565b600080546040516001600160a01b03909116914780156108fc02929091818181858888f19350505050158015610a80573d6000803e3d6000fd5b6003546001600160a01b03163314610c455760405162461bcd60e51b8152602060048201526012602482015271139bdd0819d85b595cc818dbdb9d1c9858dd60721b6044820152606401610a6e565b6000600b8281548110610c5a57610c5a612e45565b906000526020600020906005020160040160046101000a81548160ff02191690831515021790555050565b600b8181548110610c9557600080fd5b6000918252602080832060059092029091018054600182015460028301546040805161010080820183526003870154808a0b83528181048a0b98830198909852620100008089048a0b9383019390935263010000008089048a0b6060840152600160201b808a048b0b6080850152600160281b8a048b0b60a0850152600160301b8a04909a0b60c084015260ff600160381b9099048916151560e084015260049097015495995093979296909585821695948504821694928304821693908304821692041689565b610d656125a0565b610d7781670de0b6b3a7640000612eb9565b60075550565b600080610d8a8686612ea6565b9050600083610d998684612eb9565b610da39190612ee6565b9050610daf8782612efa565b979650505050505050565b600080610dc685610b58565b6040805187815260208101839052908101869052606081018590529091507f75b6a8325595f91135e07382840634226793c68c9e59623da7e10d7ad3d95b959060800160405180910390a180600103610e23576000915050610e50565b600383610e308684612efa565b610e3a9190612f0d565b1315610e4a576001915050610e50565b60009150505b9392505050565b6001600160a01b0381166000908152600c60205260408120606091610e7b826125fa565b67ffffffffffffffff811115610e9357610e93612bf9565b604051908082528060200260200182016040528015610ecc57816020015b610eb9612854565b815260200190600190039081610eb15790505b50905060005b8151811015611050576001600160a01b0385166000908152600c60205260409020600b90610f009083612604565b81548110610f1057610f10612e45565b60009182526020808320604080516101208101825260059094029091018054845260018101548484015260028101548483015281516101008082018452600383015480880b8352818104880b9583019590955262010000808604880b948301949094526301000000808604880b606084810191909152600160201b8088048a0b608080870191909152600160281b89048b0b60a080880191909152600160301b8a04909b0b60c08088019190915260ff600160381b909a048a16151560e080890191909152938b0196909652600490960154808916968a01969096528386048816998901999099529484048616928701929092529082048416928501929092529390930416151591810191909152825183908390811061103257611032612e45565b6020026020010181905250808061104890612e8d565b915050610ed2565b509392505050565b600081611066846004612eb9565b610e509190612efa565b6005546001600160a01b031633146110c25760405162461bcd60e51b815260206004820152601560248201527413db9b1e481c1b185e595c9cc818dbdb9d1c9858dd605a1b6044820152606401610a6e565b600b81815481106110d5576110d5612e45565b600091825260208220600460059092020101805460ff16916110f683612f34565b91906101000a81548160ff021916908360ff1602179055505050565b61111a6125a0565b6111246000612610565b565b61112e6125a0565b600a805460ff1916911515919091179055565b60008160000361115357506001919050565b8160010361116357506000919050565b8160020361117357506003919050565b8160030361118357506002919050565b60405162461bcd60e51b815260206004820152600d60248201526c2130b2103234b932b1ba34b7b760991b6044820152606401610a6e565b6111c36125a0565b6111d581670de0b6b3a7640000612eb9565b60065550565b60408051808201909152600080825260208201528260000361122d576040518060400160405280600184600001516112139190612f53565b60ff168152602001836020015160ff168152509050610ada565b82600103611251576040518060400160405280836000015160016112139190612f6c565b8260020361128e576040518060400160405280836000015160ff168152602001836020015160016112829190612f6c565b60ff1690529050610ada565b826003036112bf576040518060400160405280836000015160ff168152602001600184602001516112829190612f53565b60006112ca84612660565b6040516020016112da9190612fa9565b60405160208183030381529060405290508060405162461bcd60e51b8152600401610a6e9190613010565b600080826001611316866002613107565b6113209190612ea6565b901b8516831c9150509392505050565b6113386125a0565b600280546001600160a01b039586166001600160a01b0319918216179091556003805494861694821694909417909355600480549285169284169290921790915560058054919093169116179055565b600454600b8054849284926001600160a01b03909116916395a81d4e9190859081106113b6576113b6612e45565b9060005260206000209060050201600201546040518263ffffffff1660e01b81526004016113e691815260200190565b602060405180830381865afa158015611403573d6000803e3d6000fd5b505050506040513d601f19601f820116820180604052508101906114279190613113565b6001600160a01b0316336001600160a01b03161461147c5760405162461bcd60e51b81526020600482015260126024820152712737ba103cb7bab91031b430b930b1ba32b960711b6044820152606401610a6e565b600b828154811061148f5761148f612e45565b6000918252602090912060059091020160040154600160201b900460ff16156114ec5760405162461bcd60e51b815260206004820152600f60248201526e416c726561647920696e2067616d6560881b6044820152606401610a6e565b600454600b80546001600160a01b0390921691636352211e91908590811061151657611516612e45565b9060005260206000209060050201600201546040518263ffffffff1660e01b815260040161154691815260200190565b602060405180830381865afa158015611563573d6000803e3d6000fd5b505050506040513d601f19601f820116820180604052508101906115879190613113565b6001600160a01b0316306001600160a01b0316146115d85760405162461bcd60e51b815260206004820152600e60248201526d155252481b9bdd081b1bd859195960921b6044820152606401610a6e565b600b82815481106115eb576115eb612e45565b906000526020600020906005020160030160000160019054906101000a900460000b60ff16815111156116515760405162461bcd60e51b815260206004820152600e60248201526d546f6f206d616e79206974656d7360901b6044820152606401610a6e565b6000546001600160a01b031633148061166b575060065434145b6116875760405162461bcd60e51b8152600401610a6e90613130565b6001600b858154811061169c5761169c612e45565b60009182526020909120600460059092020181018054921515600160201b0264ff000000001990931692909217909155600254604051637b5e5bab60e11b81526001600160a01b039091169163f6bcb756916116fe918891339189910161315b565b600060405180830381600087803b15801561171857600080fd5b505af115801561172c573d6000803e3d6000fd5b5050505050505050565b6000546001600160a01b0316331480611750575060075434145b61176c5760405162461bcd60e51b8152600401610a6e90613130565b6000546001600160a01b031633148061178c5750600a5460ff1615156001145b6117d05760405162461bcd60e51b81526020600482015260156024820152744d696e74696e67206973206e6f742061637469766560581b6044820152606401610a6e565b600480546008546040516309b6507f60e41b81526000938101849052602481018490523360448201526001600160a01b0390921691639b6507f0919060640160206040518083038185885af115801561182d573d6000803e3d6000fd5b50505050506040513d601f19601f8201168201806040525081019061185291906131ba565b60048054604051632851838160e01b81529182018390529192506000916001600160a01b031690632851838190602401602060405180830381865afa15801561189f573d6000803e3d6000fd5b505050506040513d601f19601f820116820180604052508101906118c391906131ba565b905060006040518061010001604052806119136002600a60019054906101000a900460ff1660016118f49190612f6c565b60ff16611909876004610797600c6001611058565b60ff16600f610d7d565b60000b81526020016119516003600a60029054906101000a900460ff16600161193c9190612f6c565b60ff16611909876004610797600a6002611058565b60000b815260200161198f6002600a60039054906101000a900460ff16600161197a9190612f6c565b60ff16611909876004610797600c6000611058565b60000b81526020016119cd6002600a60049054906101000a900460ff1660016119b89190612f6c565b60ff16611909876004610797600d6000611058565b60000b8152602001611a0b6002600a60059054906101000a900460ff1660016119f69190612f6c565b60ff16611909876004610797600a6001611058565b60000b8152602001611a496002600a60069054906101000a900460ff166001611a349190612f6c565b60ff16611909876004610797600b6000611058565b60000b8152602001611a876002600a60079054906101000a900460ff166001611a729190612f6c565b60ff16611909876004610797600a6000611058565b60000b8152602001600015158152509050600b604051806101200160405280848152602001600b805490508152602001858152602001838152602001600060ff168152602001611b016000600a60089054906101000a900460ff1660ff16611af788600861079760036000611058565b60ff1660ff610d7d565b60ff168152602001611b336000600a60099054906101000a900460ff1660ff16611af788600861079760086000611058565b60ff168152602001611b636000600a8054906101000a900460ff1660ff16611af788600861079760086002611058565b60ff16815260200160001515815250908060018154018082558091505060019003906000526020600020906005020160009091909190915060008201518160000155602082015181600101556040820151816002015560608201518160030160008201518160000160006101000a81548160ff021916908360000b60ff16021790555060208201518160000160016101000a81548160ff021916908360000b60ff16021790555060408201518160000160026101000a81548160ff021916908360000b60ff16021790555060608201518160000160036101000a81548160ff021916908360000b60ff16021790555060808201518160000160046101000a81548160ff021916908360000b60ff16021790555060a08201518160000160056101000a81548160ff021916908360000b60ff16021790555060c08201518160000160066101000a81548160ff021916908360000b60ff16021790555060e08201518160000160076101000a81548160ff021916908315150217905550505060808201518160040160006101000a81548160ff021916908360ff16021790555060a08201518160040160016101000a81548160ff021916908360ff16021790555060c08201518160040160026101000a81548160ff021916908360ff16021790555060e08201518160040160036101000a81548160ff021916908360ff1602179055506101008201518160040160046101000a81548160ff0219169083151502179055505050611db16001600b80549050611d9c9190612ea6565b336000908152600c6020526040902090612769565b50505050565b600454600b8054849284926001600160a01b03909116916395a81d4e919085908110611de557611de5612e45565b9060005260206000209060050201600201546040518263ffffffff1660e01b8152600401611e1591815260200190565b602060405180830381865afa158015611e32573d6000803e3d6000fd5b505050506040513d601f19601f82011682018060405250810190611e569190613113565b6001600160a01b0316336001600160a01b031614611eab5760405162461bcd60e51b81526020600482015260126024820152712737ba103cb7bab91031b430b930b1ba32b960711b6044820152606401610a6e565b600b8281548110611ebe57611ebe612e45565b6000918252602090912060059091020160040154600160201b900460ff1615611f1b5760405162461bcd60e51b815260206004820152600f60248201526e416c726561647920696e2067616d6560881b6044820152606401610a6e565b600454600b80546001600160a01b0390921691636352211e919085908110611f4557611f45612e45565b9060005260206000209060050201600201546040518263ffffffff1660e01b8152600401611f7591815260200190565b602060405180830381865afa158015611f92573d6000803e3d6000fd5b505050506040513d601f19601f82011682018060405250810190611fb69190613113565b6001600160a01b0316306001600160a01b0316146120075760405162461bcd60e51b815260206004820152600e60248201526d155252481b9bdd081b1bd859195960921b6044820152606401610a6e565b600b828154811061201a5761201a612e45565b906000526020600020906005020160030160000160019054906101000a900460000b60ff16815111156120805760405162461bcd60e51b815260206004820152600e60248201526d546f6f206d616e79206974656d7360901b6044820152606401610a6e565b6000546001600160a01b031633148061209a575060095434145b6120b65760405162461bcd60e51b8152600401610a6e90613130565b6001600b85815481106120cb576120cb612e45565b60009182526020909120600460059092020181018054921515600160201b0264ff000000001990931692909217909155600254604051631f5e4de360e01b81526001600160a01b0390911691631f5e4de3916116fe918891339189910161315b565b600180546000918261213e83612e8d565b91905055506000336001546001436121569190612ea6565b60405160609390931b6bffffffffffffffffffffffff19166020840152603483019190915240605482015260740160408051601f198184030181529190528051602090910120905060006121aa8585612f53565b6121b5906001612f6c565b90508460ff168160ff16836121ca91906131d3565b6121d49190612efa565b95945050505050565b6000806121fd836000015160000b856000015160000b6103b89190612f0d565b9050600061221e846020015160000b866020015160000b6103b89190612f0d565b90506121d48183612efa565b6122326125a0565b6001600160a01b0381166122975760405162461bcd60e51b815260206004820152602660248201527f4f776e61626c653a206e6577206f776e657220697320746865207a65726f206160448201526564647265737360d01b6064820152608401610a6e565b610a8081612610565b805182516000916122b0916131e7565b60000b6001036122c257506000610ada565b815183516122d091906131e7565b60000b196122e057506001610ada565b816020015183602001516122f491906131e7565b60000b1961230457506002610ada565b8160200151836020015161231891906131e7565b60000b60010361232a57506003610ada565b60405162461bcd60e51b8152602060048201526013602482015272115c9c9bdc8e88139bdd0818591a9858d95b9d606a1b6044820152606401610a6e565b6123946040518060400160405280600a81526020016936b9b39739b2b73232b960b11b81525033612775565b604080518082018252601f81527f7569662e65787447657443757272656e744f776e6572285f63686172496429006020820152600480549251634ad40ea760e11b815290810184905261243a926001600160a01b0316906395a81d4e90602401602060405180830381865afa158015612411573d6000803e3d6000fd5b505050506040513d601f19601f820116820180604052508101906124359190613113565b612775565b60048054604051634ad40ea760e11b81529182018390526001600160a01b0316906395a81d4e90602401602060405180830381865afa158015612481573d6000803e3d6000fd5b505050506040513d601f19601f820116820180604052508101906124a59190613113565b6001600160a01b0316336001600160a01b0316146124f45760405162461bcd60e51b815260206004820152600c60248201526b4e6f7420796f75722075696960a01b6044820152606401610a6e565b600454600b80546001600160a01b03909216916342842e0e9130913391908690811061252257612522612e45565b60009182526020909120600260059092020101546040516001600160e01b031960e086901b1681526001600160a01b0393841660048201529290911660248301526044820152606401600060405180830381600087803b15801561258557600080fd5b505af1158015612599573d6000803e3d6000fd5b5050505050565b6000546001600160a01b031633146111245760405162461bcd60e51b815260206004820181905260248201527f4f776e61626c653a2063616c6c6572206973206e6f7420746865206f776e65726044820152606401610a6e565b6000610ada825490565b6000610e5083836127ba565b600080546001600160a01b038381166001600160a01b0319831681178455604051919092169283917f8be0079c531659141344cd1fd0a4f28419497f9722a3daafe3b4186f6b6457e09190a35050565b6060816000036126875750506040805180820190915260018152600360fc1b602082015290565b8160005b81156126b1578061269b81612e8d565b91506126aa9050600a83612ee6565b915061268b565b60008167ffffffffffffffff8111156126cc576126cc612bf9565b6040519080825280601f01601f1916602001820160405280156126f6576020820181803683370190505b5090505b84156127615761270b600183612ea6565b9150612718600a866131d3565b612723906030612efa565b60f81b81838151811061273857612738612e45565b60200101906001600160f81b031916908160001a90535061275a600a86612ee6565b94506126fa565b949350505050565b6000610e5083836127e4565b610463828260405160240161278b929190613208565b60408051601f198184030181529190526020810180516001600160e01b031663319af33360e01b179052612833565b60008260000182815481106127d1576127d1612e45565b9060005260206000200154905092915050565b600081815260018301602052604081205461282b57508154600181810184556000848152602080822090930184905584548482528286019093526040902091909155610ada565b506000610ada565b80516a636f6e736f6c652e6c6f67602083016000808483855afa5050505050565b60408051610120810182526000808252602080830182905282840182905283516101008101855282815290810182905292830181905260608381018290526080840182905260a0840182905260c0840182905260e0840191909152909190820190815260006020820181905260408201819052606082018190526080820181905260a09091015290565b6000602082840312156128f057600080fd5b5035919050565b8051600081810b84526020830151810b60208501526040830151810b60408501526060830151810b60608501526080830151810b608085015260a0830151810b60a085015260c0830151810b60c0850152505060e0810151151560e08301525050565b805182526020810151602083015260408101516040830152606081015161298460608401826128f7565b50608081015160ff90811661016084015260a0820151811661018084015260c082015181166101a084015260e0820151166101c0830152610100015115156101e090910152565b6102008101610ada828461295a565b6001600160a01b0381168114610a8057600080fd5b600080600080600060808688031215612a0757600080fd5b8535612a12816129da565b94506020860135612a22816129da565b935060408601359250606086013567ffffffffffffffff80821115612a4657600080fd5b818801915088601f830112612a5a57600080fd5b813581811115612a6957600080fd5b896020828501011115612a7b57600080fd5b9699959850939650602001949392505050565b60008060408385031215612aa157600080fd5b50508035926020909101359150565b89815260208101899052604081018890526102008101612ad360608301896128f7565b60ff9687166101608301529486166101808201529285166101a084015293166101c08201529115156101e090920191909152949350505050565b60008060008060808587031215612b2357600080fd5b5050823594602084013594506040840135936060013592509050565b600080600060608486031215612b5457600080fd5b505081359360208301359350604090920135919050565b600060208284031215612b7d57600080fd5b8135610e50816129da565b6020808252825182820181905260009190848201906040850190845b81811015612bcb57612bb783855161295a565b928401926102009290920191600101612ba4565b50909695505050505050565b600060208284031215612be957600080fd5b81358015158114610e5057600080fd5b634e487b7160e01b600052604160045260246000fd5b604051601f8201601f1916810167ffffffffffffffff81118282101715612c3857612c38612bf9565b604052919050565b803560ff81168114612c5157600080fd5b919050565b600060408284031215612c6857600080fd5b6040516040810181811067ffffffffffffffff82111715612c8b57612c8b612bf9565b604052905080612c9a83612c40565b8152612ca860208401612c40565b60208201525092915050565b60008060608385031215612cc757600080fd5b82359150612cd88460208501612c56565b90509250929050565b60008060008060808587031215612cf757600080fd5b8435612d02816129da565b93506020850135612d12816129da565b92506040850135612d22816129da565b91506060850135612d32816129da565b939692955090935050565b60008060408385031215612d5057600080fd5b8235915060208084013567ffffffffffffffff80821115612d7057600080fd5b818601915086601f830112612d8457600080fd5b813581811115612d9657612d96612bf9565b8060051b9150612da7848301612c0f565b8181529183018401918481019089841115612dc157600080fd5b938501935b83851015612ddf57843582529385019390850190612dc6565b8096505050505050509250929050565b60008060408385031215612e0257600080fd5b612e0b83612c40565b9150612cd860208401612c40565b60008060808385031215612e2c57600080fd5b612e368484612c56565b9150612cd88460408501612c56565b634e487b7160e01b600052603260045260246000fd5b634e487b7160e01b600052601160045260246000fd5b6000600160ff1b8201612e8657612e86612e5b565b5060000390565b600060018201612e9f57612e9f612e5b565b5060010190565b81810381811115610ada57610ada612e5b565b8082028115828204841417610ada57610ada612e5b565b634e487b7160e01b600052601260045260246000fd5b600082612ef557612ef5612ed0565b500490565b80820180821115610ada57610ada612e5b565b8181036000831280158383131683831282161715612f2d57612f2d612e5b565b5092915050565b600060ff821660ff8103612f4a57612f4a612e5b565b60010192915050565b60ff8281168282160390811115610ada57610ada612e5b565b60ff8181168382160190811115610ada57610ada612e5b565b60005b83811015612fa0578181015183820152602001612f88565b50506000910152565b72024b73b30b634b2103234b932b1ba34b7b71d1606d1b815260008251612fd7816013850160208701612f85565b9190910160130192915050565b60008151808452612ffc816020860160208601612f85565b601f01601f19169290920160200192915050565b602081526000610e506020830184612fe4565b600181815b8085111561305e57816000190482111561304457613044612e5b565b8085161561305157918102915b93841c9390800290613028565b509250929050565b60008261307557506001610ada565b8161308257506000610ada565b816001811461309857600281146130a2576130be565b6001915050610ada565b60ff8411156130b3576130b3612e5b565b50506001821b610ada565b5060208310610133831016604e8410600b84101617156130e1575081810a610ada565b6130eb8383613023565b80600019048211156130ff576130ff612e5b565b029392505050565b6000610e508383613066565b60006020828403121561312557600080fd5b8151610e50816129da565b602080825260119082015270125b98dbdc9c9958dd081c185e5b595b9d607a1b604082015260600190565b8381526001600160a01b0383166020808301919091526060604083018190528351908301819052600091848101916080850190845b818110156131ac57845183529383019391830191600101613190565b509098975050505050505050565b6000602082840312156131cc57600080fd5b5051919050565b6000826131e2576131e2612ed0565b500690565b600082810b9082900b03607f198112607f82131715610ada57610ada612e5b565b60408152600061321b6040830185612fe4565b905060018060a01b0383166020830152939250505056fea26469706673582212209154bd07a018781e2a186a02f2193b60269d090e03ab4ae9c1f8bbac28faf37664736f6c63430008110033",
  "devdoc": {
    "kind": "dev",
    "methods": {
      "owner()": {
        "details": "Returns the address of the current owner."
      },
      "renounceOwnership()": {
        "details": "Leaves the contract without owner. It will not be possible to call `onlyOwner` functions anymore. Can only be called by the current owner. NOTE: Renouncing ownership will leave the contract without an owner, thereby removing any functionality that is only available to the owner."
      },
      "transferOwnership(address)": {
        "details": "Transfers ownership of the contract to a new account (`newOwner`). Can only be called by the current owner."
      }
    },
    "version": 1
  },
  "userdoc": {
    "kind": "user",
    "methods": {},
    "version": 1
  },
  "storageLayout": {
    "storage": [
      {
        "astId": 7,
        "contract": "contracts/BCChars.sol:BCChars",
        "label": "_owner",
        "offset": 0,
        "slot": "0",
        "type": "t_address"
      },
      {
        "astId": 16520,
        "contract": "contracts/BCChars.sol:BCChars",
        "label": "TODO_randomSeed",
        "offset": 0,
        "slot": "1",
        "type": "t_uint256"
      },
      {
        "astId": 4066,
        "contract": "contracts/BCChars.sol:BCChars",
        "label": "lobbies",
        "offset": 0,
        "slot": "2",
        "type": "t_contract(LobbyInterface)4012"
      },
      {
        "astId": 4068,
        "contract": "contracts/BCChars.sol:BCChars",
        "label": "gamesContract",
        "offset": 0,
        "slot": "3",
        "type": "t_address"
      },
      {
        "astId": 4071,
        "contract": "contracts/BCChars.sol:BCChars",
        "label": "uif",
        "offset": 0,
        "slot": "4",
        "type": "t_contract(UIFInterface)4053"
      },
      {
        "astId": 4073,
        "contract": "contracts/BCChars.sol:BCChars",
        "label": "playersAddress",
        "offset": 0,
        "slot": "5",
        "type": "t_address"
      },
      {
        "astId": 4114,
        "contract": "contracts/BCChars.sol:BCChars",
        "label": "enlistCost",
        "offset": 0,
        "slot": "6",
        "type": "t_uint256"
      },
      {
        "astId": 4121,
        "contract": "contracts/BCChars.sol:BCChars",
        "label": "mintCost",
        "offset": 0,
        "slot": "7",
        "type": "t_uint256"
      },
      {
        "astId": 4124,
        "contract": "contracts/BCChars.sol:BCChars",
        "label": "uifCost",
        "offset": 0,
        "slot": "8",
        "type": "t_uint256"
      },
      {
        "astId": 4129,
        "contract": "contracts/BCChars.sol:BCChars",
        "label": "soloCost",
        "offset": 0,
        "slot": "9",
        "type": "t_uint256"
      },
      {
        "astId": 4132,
        "contract": "contracts/BCChars.sol:BCChars",
        "label": "mintIsActive",
        "offset": 0,
        "slot": "10",
        "type": "t_bool"
      },
      {
        "astId": 4135,
        "contract": "contracts/BCChars.sol:BCChars",
        "label": "healthCap",
        "offset": 1,
        "slot": "10",
        "type": "t_uint8"
      },
      {
        "astId": 4138,
        "contract": "contracts/BCChars.sol:BCChars",
        "label": "carryCap",
        "offset": 2,
        "slot": "10",
        "type": "t_uint8"
      },
      {
        "astId": 4141,
        "contract": "contracts/BCChars.sol:BCChars",
        "label": "defenseCap",
        "offset": 3,
        "slot": "10",
        "type": "t_uint8"
      },
      {
        "astId": 4144,
        "contract": "contracts/BCChars.sol:BCChars",
        "label": "hackCap",
        "offset": 4,
        "slot": "10",
        "type": "t_uint8"
      },
      {
        "astId": 4147,
        "contract": "contracts/BCChars.sol:BCChars",
        "label": "breachCap",
        "offset": 5,
        "slot": "10",
        "type": "t_uint8"
      },
      {
        "astId": 4150,
        "contract": "contracts/BCChars.sol:BCChars",
        "label": "shootCap",
        "offset": 6,
        "slot": "10",
        "type": "t_uint8"
      },
      {
        "astId": 4153,
        "contract": "contracts/BCChars.sol:BCChars",
        "label": "meleeCap",
        "offset": 7,
        "slot": "10",
        "type": "t_uint8"
      },
      {
        "astId": 4156,
        "contract": "contracts/BCChars.sol:BCChars",
        "label": "maxClonesCap",
        "offset": 8,
        "slot": "10",
        "type": "t_uint8"
      },
      {
        "astId": 4159,
        "contract": "contracts/BCChars.sol:BCChars",
        "label": "abilityCap",
        "offset": 9,
        "slot": "10",
        "type": "t_uint8"
      },
      {
        "astId": 4162,
        "contract": "contracts/BCChars.sol:BCChars",
        "label": "flawCap",
        "offset": 10,
        "slot": "10",
        "type": "t_uint8"
      },
      {
        "astId": 4166,
        "contract": "contracts/BCChars.sol:BCChars",
        "label": "characters",
        "offset": 0,
        "slot": "11",
        "type": "t_array(t_struct(Character)16459_storage)dyn_storage"
      },
      {
        "astId": 4171,
        "contract": "contracts/BCChars.sol:BCChars",
        "label": "charsOwned",
        "offset": 0,
        "slot": "12",
        "type": "t_mapping(t_address,t_struct(UintSet)2262_storage)"
      }
    ],
    "types": {
      "t_address": {
        "encoding": "inplace",
        "label": "address",
        "numberOfBytes": "20"
      },
      "t_array(t_bytes32)dyn_storage": {
        "base": "t_bytes32",
        "encoding": "dynamic_array",
        "label": "bytes32[]",
        "numberOfBytes": "32"
      },
      "t_array(t_struct(Character)16459_storage)dyn_storage": {
        "base": "t_struct(Character)16459_storage",
        "encoding": "dynamic_array",
        "label": "struct BCTypes.Character[]",
        "numberOfBytes": "32"
      },
      "t_bool": {
        "encoding": "inplace",
        "label": "bool",
        "numberOfBytes": "1"
      },
      "t_bytes32": {
        "encoding": "inplace",
        "label": "bytes32",
        "numberOfBytes": "32"
      },
      "t_contract(LobbyInterface)4012": {
        "encoding": "inplace",
        "label": "contract LobbyInterface",
        "numberOfBytes": "20"
      },
      "t_contract(UIFInterface)4053": {
        "encoding": "inplace",
        "label": "contract UIFInterface",
        "numberOfBytes": "20"
      },
      "t_int8": {
        "encoding": "inplace",
        "label": "int8",
        "numberOfBytes": "1"
      },
      "t_mapping(t_address,t_struct(UintSet)2262_storage)": {
        "encoding": "mapping",
        "key": "t_address",
        "label": "mapping(address => struct EnumerableSet.UintSet)",
        "numberOfBytes": "32",
        "value": "t_struct(UintSet)2262_storage"
      },
      "t_mapping(t_bytes32,t_uint256)": {
        "encoding": "mapping",
        "key": "t_bytes32",
        "label": "mapping(bytes32 => uint256)",
        "numberOfBytes": "32",
        "value": "t_uint256"
      },
      "t_struct(Character)16459_storage": {
        "encoding": "inplace",
        "label": "struct BCTypes.Character",
        "members": [
          {
            "astId": 16441,
            "contract": "contracts/BCChars.sol:BCChars",
            "label": "genHash",
            "offset": 0,
            "slot": "0",
            "type": "t_bytes32"
          },
          {
            "astId": 16443,
            "contract": "contracts/BCChars.sol:BCChars",
            "label": "id",
            "offset": 0,
            "slot": "1",
            "type": "t_uint256"
          },
          {
            "astId": 16445,
            "contract": "contracts/BCChars.sol:BCChars",
            "label": "uifID",
            "offset": 0,
            "slot": "2",
            "type": "t_uint256"
          },
          {
            "astId": 16448,
            "contract": "contracts/BCChars.sol:BCChars",
            "label": "traits",
            "offset": 0,
            "slot": "3",
            "type": "t_struct(Traits)16439_storage"
          },
          {
            "astId": 16450,
            "contract": "contracts/BCChars.sol:BCChars",
            "label": "cloneNumber",
            "offset": 0,
            "slot": "4",
            "type": "t_uint8"
          },
          {
            "astId": 16452,
            "contract": "contracts/BCChars.sol:BCChars",
            "label": "maxClones",
            "offset": 1,
            "slot": "4",
            "type": "t_uint8"
          },
          {
            "astId": 16454,
            "contract": "contracts/BCChars.sol:BCChars",
            "label": "ability",
            "offset": 2,
            "slot": "4",
            "type": "t_uint8"
          },
          {
            "astId": 16456,
            "contract": "contracts/BCChars.sol:BCChars",
            "label": "flaw",
            "offset": 3,
            "slot": "4",
            "type": "t_uint8"
          },
          {
            "astId": 16458,
            "contract": "contracts/BCChars.sol:BCChars",
            "label": "inGame",
            "offset": 4,
            "slot": "4",
            "type": "t_bool"
          }
        ],
        "numberOfBytes": "160"
      },
      "t_struct(Set)1804_storage": {
        "encoding": "inplace",
        "label": "struct EnumerableSet.Set",
        "members": [
          {
            "astId": 1799,
            "contract": "contracts/BCChars.sol:BCChars",
            "label": "_values",
            "offset": 0,
            "slot": "0",
            "type": "t_array(t_bytes32)dyn_storage"
          },
          {
            "astId": 1803,
            "contract": "contracts/BCChars.sol:BCChars",
            "label": "_indexes",
            "offset": 0,
            "slot": "1",
            "type": "t_mapping(t_bytes32,t_uint256)"
          }
        ],
        "numberOfBytes": "64"
      },
      "t_struct(Traits)16439_storage": {
        "encoding": "inplace",
        "label": "struct BCTypes.Traits",
        "members": [
          {
            "astId": 16424,
            "contract": "contracts/BCChars.sol:BCChars",
            "label": "health",
            "offset": 0,
            "slot": "0",
            "type": "t_int8"
          },
          {
            "astId": 16426,
            "contract": "contracts/BCChars.sol:BCChars",
            "label": "carry",
            "offset": 1,
            "slot": "0",
            "type": "t_int8"
          },
          {
            "astId": 16428,
            "contract": "contracts/BCChars.sol:BCChars",
            "label": "defense",
            "offset": 2,
            "slot": "0",
            "type": "t_int8"
          },
          {
            "astId": 16430,
            "contract": "contracts/BCChars.sol:BCChars",
            "label": "hack",
            "offset": 3,
            "slot": "0",
            "type": "t_int8"
          },
          {
            "astId": 16432,
            "contract": "contracts/BCChars.sol:BCChars",
            "label": "breach",
            "offset": 4,
            "slot": "0",
            "type": "t_int8"
          },
          {
            "astId": 16434,
            "contract": "contracts/BCChars.sol:BCChars",
            "label": "shoot",
            "offset": 5,
            "slot": "0",
            "type": "t_int8"
          },
          {
            "astId": 16436,
            "contract": "contracts/BCChars.sol:BCChars",
            "label": "melee",
            "offset": 6,
            "slot": "0",
            "type": "t_int8"
          },
          {
            "astId": 16438,
            "contract": "contracts/BCChars.sol:BCChars",
            "label": "hasGun",
            "offset": 7,
            "slot": "0",
            "type": "t_bool"
          }
        ],
        "numberOfBytes": "32"
      },
      "t_struct(UintSet)2262_storage": {
        "encoding": "inplace",
        "label": "struct EnumerableSet.UintSet",
        "members": [
          {
            "astId": 2261,
            "contract": "contracts/BCChars.sol:BCChars",
            "label": "_inner",
            "offset": 0,
            "slot": "0",
            "type": "t_struct(Set)1804_storage"
          }
        ],
        "numberOfBytes": "64"
      },
      "t_uint256": {
        "encoding": "inplace",
        "label": "uint256",
        "numberOfBytes": "32"
      },
      "t_uint8": {
        "encoding": "inplace",
        "label": "uint8",
        "numberOfBytes": "1"
      }
    }
  }
}