{
  "address": "0xC85D602dd05fC3FF403C0Ebb3AB6920b40395D6b",
  "abi": [
    {
      "inputs": [],
      "stateMutability": "nonpayable",
      "type": "constructor"
    },
    {
      "inputs": [
        {
          "internalType": "uint256",
          "name": "",
          "type": "uint256"
        }
      ],
      "name": "AlreadyDead",
      "type": "error"
    },
    {
      "inputs": [
        {
          "internalType": "uint256",
          "name": "",
          "type": "uint256"
        }
      ],
      "name": "CantSeeTarget",
      "type": "error"
    },
    {
      "anonymous": false,
      "inputs": [
        {
          "indexed": false,
          "internalType": "uint256",
          "name": "gameId",
          "type": "uint256"
        },
        {
          "indexed": false,
          "internalType": "uint256",
          "name": "roll",
          "type": "uint256"
        },
        {
          "indexed": false,
          "internalType": "uint256",
          "name": "forValue",
          "type": "uint256"
        },
        {
          "indexed": false,
          "internalType": "uint256",
          "name": "against",
          "type": "uint256"
        }
      ],
      "name": "ChallengeEvent",
      "type": "event"
    },
    {
      "anonymous": false,
      "inputs": [
        {
          "indexed": false,
          "internalType": "uint256",
          "name": "gameId",
          "type": "uint256"
        },
        {
          "indexed": false,
          "internalType": "enum BCTypes.DenizenType",
          "name": "denizenType",
          "type": "uint8"
        },
        {
          "indexed": false,
          "internalType": "uint256",
          "name": "denizenId",
          "type": "uint256"
        },
        {
          "indexed": false,
          "internalType": "uint256",
          "name": "playerTarget",
          "type": "uint256"
        },
        {
          "indexed": false,
          "internalType": "uint256",
          "name": "damage",
          "type": "uint256"
        },
        {
          "indexed": false,
          "internalType": "uint256",
          "name": "turnabout",
          "type": "uint256"
        }
      ],
      "name": "DenizenAttack",
      "type": "event"
    },
    {
      "anonymous": false,
      "inputs": [
        {
          "indexed": false,
          "internalType": "uint256",
          "name": "gameId",
          "type": "uint256"
        },
        {
          "indexed": false,
          "internalType": "uint256",
          "name": "roll",
          "type": "uint256"
        }
      ],
      "name": "DiceRollEvent",
      "type": "event"
    },
    {
      "anonymous": false,
      "inputs": [
        {
          "indexed": true,
          "internalType": "address",
          "name": "previousOwner",
          "type": "address"
        },
        {
          "indexed": true,
          "internalType": "address",
          "name": "newOwner",
          "type": "address"
        }
      ],
      "name": "OwnershipTransferred",
      "type": "event"
    },
    {
      "anonymous": false,
      "inputs": [
        {
          "indexed": false,
          "internalType": "uint256",
          "name": "gameId",
          "type": "uint256"
        },
        {
          "indexed": false,
          "internalType": "uint256",
          "name": "playerId",
          "type": "uint256"
        },
        {
          "indexed": false,
          "internalType": "enum BCTypes.DenizenType",
          "name": "denizenType",
          "type": "uint8"
        },
        {
          "indexed": false,
          "internalType": "uint256",
          "name": "denizenId",
          "type": "uint256"
        },
        {
          "indexed": false,
          "internalType": "uint256",
          "name": "damage",
          "type": "uint256"
        },
        {
          "indexed": false,
          "internalType": "uint256",
          "name": "turnabout",
          "type": "uint256"
        }
      ],
      "name": "PlayerAttack",
      "type": "event"
    },
    {
      "inputs": [],
      "name": "StartLocation",
      "outputs": [
        {
          "internalType": "uint8",
          "name": "row",
          "type": "uint8"
        },
        {
          "internalType": "uint8",
          "name": "col",
          "type": "uint8"
        }
      ],
      "stateMutability": "view",
      "type": "function"
    },
    {
      "inputs": [
        {
          "internalType": "int256",
          "name": "x",
          "type": "int256"
        }
      ],
      "name": "abs",
      "outputs": [
        {
          "internalType": "int256",
          "name": "",
          "type": "int256"
        }
      ],
      "stateMutability": "pure",
      "type": "function"
    },
    {
      "inputs": [],
      "name": "actionsAddress",
      "outputs": [
        {
          "internalType": "address",
          "name": "",
          "type": "address"
        }
      ],
      "stateMutability": "view",
      "type": "function"
    },
    {
      "inputs": [
        {
          "internalType": "uint256",
          "name": "_gameId",
          "type": "uint256"
        },
        {
          "internalType": "enum BCTypes.DenizenType",
          "name": "_type",
          "type": "uint8"
        },
        {
          "internalType": "uint256",
          "name": "_row",
          "type": "uint256"
        },
        {
          "internalType": "uint256",
          "name": "_col",
          "type": "uint256"
        }
      ],
      "name": "addDenizen",
      "outputs": [
        {
          "internalType": "uint256",
          "name": "",
          "type": "uint256"
        }
      ],
      "stateMutability": "nonpayable",
      "type": "function"
    },
    {
      "inputs": [
        {
          "internalType": "enum BCTypes.DenizenType",
          "name": "",
          "type": "uint8"
        }
      ],
      "name": "denizenDef",
      "outputs": [
        {
          "internalType": "uint256",
          "name": "",
          "type": "uint256"
        }
      ],
      "stateMutability": "view",
      "type": "function"
    },
    {
      "inputs": [
        {
          "internalType": "enum BCTypes.DenizenType",
          "name": "",
          "type": "uint8"
        }
      ],
      "name": "denizenDmg",
      "outputs": [
        {
          "internalType": "uint256",
          "name": "",
          "type": "uint256"
        }
      ],
      "stateMutability": "view",
      "type": "function"
    },
    {
      "inputs": [
        {
          "internalType": "enum BCTypes.DenizenType",
          "name": "",
          "type": "uint8"
        }
      ],
      "name": "denizenHealth",
      "outputs": [
        {
          "internalType": "uint256",
          "name": "",
          "type": "uint256"
        }
      ],
      "stateMutability": "view",
      "type": "function"
    },
    {
      "inputs": [
        {
          "internalType": "enum BCTypes.DenizenType",
          "name": "",
          "type": "uint8"
        }
      ],
      "name": "denizenMovement",
      "outputs": [
        {
          "internalType": "uint256",
          "name": "",
          "type": "uint256"
        }
      ],
      "stateMutability": "view",
      "type": "function"
    },
    {
      "inputs": [
        {
          "internalType": "enum BCTypes.DenizenType",
          "name": "",
          "type": "uint8"
        }
      ],
      "name": "denizenOff",
      "outputs": [
        {
          "internalType": "uint256",
          "name": "",
          "type": "uint256"
        }
      ],
      "stateMutability": "view",
      "type": "function"
    },
    {
      "inputs": [
        {
          "internalType": "uint256",
          "name": "",
          "type": "uint256"
        }
      ],
      "name": "denizens",
      "outputs": [
        {
          "internalType": "uint256",
          "name": "id",
          "type": "uint256"
        },
        {
          "internalType": "uint256",
          "name": "gameId",
          "type": "uint256"
        },
        {
          "internalType": "enum BCTypes.DenizenType",
          "name": "denizenType",
          "type": "uint8"
        },
        {
          "components": [
            {
              "internalType": "uint8",
              "name": "row",
              "type": "uint8"
            },
            {
              "internalType": "uint8",
              "name": "col",
              "type": "uint8"
            }
          ],
          "internalType": "struct BCTypes.Position",
          "name": "position",
          "type": "tuple"
        },
        {
          "internalType": "uint256",
          "name": "healthRemaining",
          "type": "uint256"
        },
        {
          "internalType": "bool",
          "name": "looted",
          "type": "bool"
        }
      ],
      "stateMutability": "view",
      "type": "function"
    },
    {
      "inputs": [],
      "name": "games",
      "outputs": [
        {
          "internalType": "contract GamesInterface",
          "name": "",
          "type": "address"
        }
      ],
      "stateMutability": "view",
      "type": "function"
    },
    {
      "inputs": [
        {
          "internalType": "uint256[]",
          "name": "_denizenIds",
          "type": "uint256[]"
        }
      ],
      "name": "getDenizens",
      "outputs": [
        {
          "components": [
            {
              "internalType": "uint256",
              "name": "id",
              "type": "uint256"
            },
            {
              "internalType": "uint256",
              "name": "gameId",
              "type": "uint256"
            },
            {
              "internalType": "enum BCTypes.DenizenType",
              "name": "denizenType",
              "type": "uint8"
            },
            {
              "components": [
                {
                  "internalType": "uint8",
                  "name": "row",
                  "type": "uint8"
                },
                {
                  "internalType": "uint8",
                  "name": "col",
                  "type": "uint8"
                }
              ],
              "internalType": "struct BCTypes.Position",
              "name": "position",
              "type": "tuple"
            },
            {
              "internalType": "uint256",
              "name": "healthRemaining",
              "type": "uint256"
            },
            {
              "internalType": "bool",
              "name": "looted",
              "type": "bool"
            }
          ],
          "internalType": "struct BCTypes.Denizen[]",
          "name": "",
          "type": "tuple[]"
        }
      ],
      "stateMutability": "view",
      "type": "function"
    },
    {
      "inputs": [
        {
          "components": [
            {
              "internalType": "uint8",
              "name": "row",
              "type": "uint8"
            },
            {
              "internalType": "uint8",
              "name": "col",
              "type": "uint8"
            }
          ],
          "internalType": "struct BCTypes.Position",
          "name": "_firstRoom",
          "type": "tuple"
        },
        {
          "components": [
            {
              "internalType": "uint8",
              "name": "row",
              "type": "uint8"
            },
            {
              "internalType": "uint8",
              "name": "col",
              "type": "uint8"
            }
          ],
          "internalType": "struct BCTypes.Position",
          "name": "_secondRoom",
          "type": "tuple"
        }
      ],
      "name": "getDirectionBetween",
      "outputs": [
        {
          "internalType": "uint256",
          "name": "",
          "type": "uint256"
        }
      ],
      "stateMutability": "pure",
      "type": "function"
    },
    {
      "inputs": [
        {
          "internalType": "uint256",
          "name": "_gameId",
          "type": "uint256"
        }
      ],
      "name": "getEventBlocks",
      "outputs": [
        {
          "internalType": "uint256[]",
          "name": "",
          "type": "uint256[]"
        }
      ],
      "stateMutability": "view",
      "type": "function"
    },
    {
      "inputs": [
        {
          "internalType": "uint256",
          "name": "_direction",
          "type": "uint256"
        },
        {
          "components": [
            {
              "internalType": "uint8",
              "name": "row",
              "type": "uint8"
            },
            {
              "internalType": "uint8",
              "name": "col",
              "type": "uint8"
            }
          ],
          "internalType": "struct BCTypes.Position",
          "name": "_start",
          "type": "tuple"
        }
      ],
      "name": "getNeighborRoom",
      "outputs": [
        {
          "components": [
            {
              "internalType": "uint8",
              "name": "row",
              "type": "uint8"
            },
            {
              "internalType": "uint8",
              "name": "col",
              "type": "uint8"
            }
          ],
          "internalType": "struct BCTypes.Position",
          "name": "",
          "type": "tuple"
        }
      ],
      "stateMutability": "pure",
      "type": "function"
    },
    {
      "inputs": [
        {
          "internalType": "uint256",
          "name": "_traitNum",
          "type": "uint256"
        },
        {
          "internalType": "uint256",
          "name": "_subTraitNum",
          "type": "uint256"
        }
      ],
      "name": "getUIOffset",
      "outputs": [
        {
          "internalType": "uint256",
          "name": "",
          "type": "uint256"
        }
      ],
      "stateMutability": "pure",
      "type": "function"
    },
    {
      "inputs": [
        {
          "components": [
            {
              "internalType": "uint8",
              "name": "row",
              "type": "uint8"
            },
            {
              "internalType": "uint8",
              "name": "col",
              "type": "uint8"
            }
          ],
          "internalType": "struct BCTypes.Position",
          "name": "_pos1",
          "type": "tuple"
        },
        {
          "components": [
            {
              "internalType": "uint8",
              "name": "row",
              "type": "uint8"
            },
            {
              "internalType": "uint8",
              "name": "col",
              "type": "uint8"
            }
          ],
          "internalType": "struct BCTypes.Position",
          "name": "_pos2",
          "type": "tuple"
        }
      ],
      "name": "manhattanDistance",
      "outputs": [
        {
          "internalType": "uint256",
          "name": "",
          "type": "uint256"
        }
      ],
      "stateMutability": "pure",
      "type": "function"
    },
    {
      "inputs": [],
      "name": "maps",
      "outputs": [
        {
          "internalType": "contract MapInterface",
          "name": "",
          "type": "address"
        }
      ],
      "stateMutability": "view",
      "type": "function"
    },
    {
      "inputs": [
        {
          "internalType": "uint256",
          "name": "_min",
          "type": "uint256"
        },
        {
          "internalType": "uint256",
          "name": "_max",
          "type": "uint256"
        },
        {
          "internalType": "uint256",
          "name": "_val",
          "type": "uint256"
        },
        {
          "internalType": "uint256",
          "name": "_valMax",
          "type": "uint256"
        }
      ],
      "name": "normalizeToSmallRange",
      "outputs": [
        {
          "internalType": "uint8",
          "name": "",
          "type": "uint8"
        }
      ],
      "stateMutability": "pure",
      "type": "function"
    },
    {
      "inputs": [
        {
          "internalType": "uint256",
          "name": "_direction",
          "type": "uint256"
        }
      ],
      "name": "opposite",
      "outputs": [
        {
          "internalType": "uint256",
          "name": "",
          "type": "uint256"
        }
      ],
      "stateMutability": "pure",
      "type": "function"
    },
    {
      "inputs": [],
      "name": "owner",
      "outputs": [
        {
          "internalType": "address",
          "name": "",
          "type": "address"
        }
      ],
      "stateMutability": "view",
      "type": "function"
    },
    {
      "inputs": [
        {
          "internalType": "uint256",
          "name": "_gameId",
          "type": "uint256"
        },
        {
          "internalType": "uint256",
          "name": "_mapId",
          "type": "uint256"
        },
        {
          "internalType": "uint256",
          "name": "_denizenId",
          "type": "uint256"
        },
        {
          "internalType": "uint256",
          "name": "_playerId",
          "type": "uint256"
        },
        {
          "internalType": "uint256",
          "name": "_playerAttackRating",
          "type": "uint256"
        },
        {
          "components": [
            {
              "internalType": "uint8",
              "name": "row",
              "type": "uint8"
            },
            {
              "internalType": "uint8",
              "name": "col",
              "type": "uint8"
            }
          ],
          "internalType": "struct BCTypes.Position",
          "name": "_playerPosition",
          "type": "tuple"
        }
      ],
      "name": "playerAttack",
      "outputs": [],
      "stateMutability": "nonpayable",
      "type": "function"
    },
    {
      "inputs": [],
      "name": "players",
      "outputs": [
        {
          "internalType": "contract PlayersInterface",
          "name": "",
          "type": "address"
        }
      ],
      "stateMutability": "view",
      "type": "function"
    },
    {
      "inputs": [
        {
          "internalType": "uint256",
          "name": "_gameId",
          "type": "uint256"
        },
        {
          "internalType": "uint256",
          "name": "_mapId",
          "type": "uint256"
        },
        {
          "internalType": "uint256[]",
          "name": "_playerIds",
          "type": "uint256[]"
        },
        {
          "internalType": "uint256[]",
          "name": "_denizenIds",
          "type": "uint256[]"
        }
      ],
      "name": "processDenizenMoves",
      "outputs": [],
      "stateMutability": "nonpayable",
      "type": "function"
    },
    {
      "inputs": [],
      "name": "randKeccak",
      "outputs": [
        {
          "internalType": "bytes32",
          "name": "",
          "type": "bytes32"
        }
      ],
      "stateMutability": "nonpayable",
      "type": "function"
    },
    {
      "inputs": [],
      "name": "renounceOwnership",
      "outputs": [],
      "stateMutability": "nonpayable",
      "type": "function"
    },
    {
      "inputs": [
        {
          "internalType": "uint256",
          "name": "_gameId",
          "type": "uint256"
        },
        {
          "internalType": "uint256",
          "name": "_for",
          "type": "uint256"
        },
        {
          "internalType": "uint256",
          "name": "_against",
          "type": "uint256"
        }
      ],
      "name": "resolveChallenge",
      "outputs": [
        {
          "internalType": "bool",
          "name": "",
          "type": "bool"
        }
      ],
      "stateMutability": "nonpayable",
      "type": "function"
    },
    {
      "inputs": [
        {
          "internalType": "uint256",
          "name": "_gameId",
          "type": "uint256"
        }
      ],
      "name": "roll",
      "outputs": [
        {
          "internalType": "uint256",
          "name": "",
          "type": "uint256"
        }
      ],
      "stateMutability": "nonpayable",
      "type": "function"
    },
    {
      "inputs": [
        {
          "internalType": "address",
          "name": "_mapsAddress",
          "type": "address"
        },
        {
          "internalType": "address",
          "name": "_actionsAddress",
          "type": "address"
        },
        {
          "internalType": "address",
          "name": "_playersAddress",
          "type": "address"
        },
        {
          "internalType": "address",
          "name": "_gamesAddress",
          "type": "address"
        }
      ],
      "name": "setContractAddresses",
      "outputs": [],
      "stateMutability": "nonpayable",
      "type": "function"
    },
    {
      "inputs": [
        {
          "internalType": "uint256",
          "name": "_gameId",
          "type": "uint256"
        },
        {
          "internalType": "uint256",
          "name": "_denizenId",
          "type": "uint256"
        }
      ],
      "name": "setDenizenLooted",
      "outputs": [],
      "stateMutability": "nonpayable",
      "type": "function"
    },
    {
      "inputs": [
        {
          "internalType": "bytes32",
          "name": "_hash",
          "type": "bytes32"
        },
        {
          "internalType": "uint256",
          "name": "_size",
          "type": "uint256"
        },
        {
          "internalType": "uint256",
          "name": "_offset",
          "type": "uint256"
        }
      ],
      "name": "sliceHashToSmallInt",
      "outputs": [
        {
          "internalType": "uint8",
          "name": "",
          "type": "uint8"
        }
      ],
      "stateMutability": "pure",
      "type": "function"
    },
    {
      "inputs": [
        {
          "internalType": "uint8",
          "name": "_min",
          "type": "uint8"
        },
        {
          "internalType": "uint8",
          "name": "_max",
          "type": "uint8"
        }
      ],
      "name": "smallIntBetweenVals",
      "outputs": [
        {
          "internalType": "uint8",
          "name": "",
          "type": "uint8"
        }
      ],
      "stateMutability": "nonpayable",
      "type": "function"
    },
    {
      "inputs": [
        {
          "internalType": "address",
          "name": "newOwner",
          "type": "address"
        }
      ],
      "name": "transferOwnership",
      "outputs": [],
      "stateMutability": "nonpayable",
      "type": "function"
    }
  ],
  "transactionHash": "0xcab0756c1f2fa7624353e64451a354d4729d9a329b0b238e21b19fd269640a63",
  "args": [],
  "numDeployments": 1,
  "solcInputHash": "df75a07ce310e8d33994ff42cae65914",
  "bytecode": "0x600060015560c0604052600a608052600660a0526007805461ffff191661060a1790553480156200002f57600080fd5b506200003b33620005fe565b600880546001908101825560027f92e85d02570a8092d09a6e3a57665bc3815a2699a4074001bf1ccabf660f5a3681905560037f6cde3cea4b3a3fb2488b2808bae7556f4a405e50f65e1794383bc026131b13c38190557fc575c31fea594a6eb97c8e9d3f9caee4c16218c6ef37e923234c0fe9014a61e782905560057f8dc18c4ccfd75f5c815b63770fa542fd953e8fef7e0e44bbdd4913470ce7e9cb5560647f74b05292d1d4b2b48b65261b07099d24244bcb069f138d9a6bfdcf776becac4c5560327fbb6daa0c283751197dfdc76590680f9005e97d6f23870deb1164ab60b28b9f5f5560c87fae6299332bcd708cd60e3a8defa55de28078a50a4cf2b3de3a546253240ff9e15560197fc7694af312c4f286114180fd0ba6a52461fcee8a381636770b19a343af92538a557fbbc70db1b6c7afd11e79c0fb0051300458f1a3acb8ee9789d9b6b26c61ad9bc78190557fbff4442b8ed600beeb8e26b1279a0f0d14c6edfaec26d968ee13c86f7d4c2ba881905560047fa856840544dc26124927add067d799967eac11be13e14d82cc281ea46fa3975981905560067fe1eb2b2161a492c07c5a334e48012567cba93ec021043f53c1955516a3c5a841819055600a7ff35035bc2b01d44bd35a1dcdc552315cffb73da35cfd60570b7b777f98036f9f8190557f10d9dd018e4cae503383c9f804c1c1603ada5856ee7894375d9b97cd8c8b27db879055600c7f22e39f61d1e4986b4f116cea9067f62cc77d74dff1780ae9c8b5166d1dd28829557f2c1fd36ba11b13b555f58753742999069764391f450ca8727fe8a3eeffe677758390557f72c6bfb7988af3a1efa6568f02a999bc52252641c659d85961ca3d372b57d5cf8390557fa50eece07c7db1631545c0069bd8f5f54d5935e215d59097edf258a44ba916348490557f64c15cc42be7899b001f818cf4433057002112c418d1d3a67cd5cb453051d33e8490557f12d0c11577e2f0950f57c455c117796550b79f444811db8ba2f69c57b646c7848490557febae6141bae5521e99e0a8d610356b0f501fea54980b59c84841db43ba7204f48790557f0387e9d1203691d8e3362a7e4c6723de358a4010d7f31ecbec3fbfc61d1c75fc82905560077ff5559028dc9ba50d75343c779b2f75e13a84a14662932fc67a486f263ca31a96557f71f482bdabd1ea844d62c952b094e632959690d7448ca2aab34034ec98569358557fd421a5181c571bba3f01190c922c3b2a896fc1d84e86c9f17ac10e67ebef8b5c8590557f5d6016397a73f5e079297ac5a36fef17b4d9c3831618e63ab105738020ddd7208590557fc0da782485e77ae272268ae0a3ff44c1552ecb60b3743924de17a815e0a3cfd78590557f5b84bb9e0f5aa9cc45a8bb66468db5d4816d1e75ff86b5e1f1dd8d144dab8097949094557f2cd9ebf6ff19cdd7ffcc447d7c7d47b5991f5c7392a04512134e765802361fa68590557f980f427e00e74f6d338adfccc7468518c8c8ea00836d0dce98c5fe154e17bf2b8490557fdae089abd7155aa13ce498edb0d7a7156b783d015031f10c9a3d4f5fcb51897181905560107f5ff1be3842b54290a9d10674244dae5848d2371b5314790c54805c086586e1df55600d6020527ffd54ff1ed53f34a900b24c5ba64f85761163b5d82d98a47b9bd80e45466993c58290557f10a81eed9d63d16face5e76357905348e6253d3394086026bb2bf2145d7cc24982905560007f26b4a10d0f0b04925c23bd4480ee147c916e5e87a7d68206a533dad160ac81e28190557fafafe8948a4ed9d478b1e9a5780b119b5edd00ea7d07bc35bef7c814824eb94b939093557fa5049387d9cb649c59f4bda666105ba636c2a103d8e2b232ba4d125737cd2149939093557fa48544818c2c710afa9849c61ec9c60e8acdb3eaa2885f33b37e118cc8fd04ac8190557fb91432bedff11256dbe14161d3606a2657bc9dacf8742f6b817d871dd53fb97655919091527f0b705463cf5f7356780ee6e96132d37412c1b5816a4d207b8dcd42c349767457556200064e565b600080546001600160a01b038381166001600160a01b0319831681178455604051919092169283917f8be0079c531659141344cd1fd0a4f28419497f9722a3daafe3b4186f6b6457e09190a35050565b613827806200065e6000396000f3fe608060405234801561001057600080fd5b50600436106101fa5760003560e01c806382772c3a1161011a578063c6850f7c116100ad578063dc769ee81161007c578063dc769ee8146104b7578063dce6c5da146104e7578063f10bff2b14610507578063f2fde38b1461051a578063fa3993c21461052d57600080fd5b8063c6850f7c14610451578063ce28613f14610471578063d78e7d8614610484578063dc0b3564146104a457600080fd5b806397f34c3f116100e957806397f34c3f146103e65780639e73ebf7146103f9578063aaa687771461041e578063bb2486671461043157600080fd5b806382772c3a1461038f5780638da5cb5b146103a2578063951fc3fe146103b3578063955a015b146103d357600080fd5b806343d7c3be1161019257806364db84bf1161016157806364db84bf1461034e578063715018a6146103615780637b45c0d4146103695780638214f2221461037c57600080fd5b806343d7c3be146102de5780634449cfe6146102f357806353011696146103065780635dc969671461032b57600080fd5b80631e1de205116101ce5780631e1de205146102785780631f7b4f30146102805780633362ec72146102935780633deaec2b146102b357600080fd5b8062e3d898146101ff5780630e73c024146102325780631b5ac4b5146102525780631cef40f614610265575b600080fd5b61021f61020d3660046127fd565b60096020526000908152604090205481565b6040519081526020015b60405180910390f35b610245610240366004612818565b610540565b6040516102299190612831565b61021f610260366004612818565b610560565b61021f610273366004612875565b61057c565b61021f61071c565b61021f61028e366004612818565b610794565b6102a66102a13660046129f1565b6107f0565b6040516102299190612a5d565b6003546102c6906001600160a01b031681565b6040516001600160a01b039091168152602001610229565b6102f16102ec366004612af5565b610967565b005b6102f1610301366004612b17565b6109f3565b610319610314366004612b8d565b6115d1565b60405160ff9091168152602001610229565b61033e610339366004612bbf565b61160e565b6040519015158152602001610229565b61021f61035c366004612af5565b6116ab565b6102f16116c3565b6004546102c6906001600160a01b031681565b61021f61038a366004612818565b6116d7565b6102f161039d366004612c3c565b611751565b6000546001600160a01b03166102c6565b6103c66103c1366004612c8e565b611afd565b6040516102299190612cbb565b6006546102c6906001600160a01b031681565b6103196103f4366004612bbf565b611c27565b61040c610407366004612818565b611c52565b60405161022996959493929190612cd9565b6102f161042c366004612d39565b611cbe565b61021f61043f3660046127fd565b600d6020526000908152604090205481565b61021f61045f3660046127fd565b600c6020526000908152604090205481565b61031961047f366004612d95565b611d16565b61021f6104923660046127fd565b600b6020526000908152604090205481565b6005546102c6906001600160a01b031681565b6007546104cd9060ff8082169161010090041682565b6040805160ff938416815292909116602083015201610229565b61021f6104f53660046127fd565b600a6020526000908152604090205481565b61021f610515366004612dce565b611dc6565b6102f1610528366004612dfa565b611e13565b61021f61053b366004612dce565b611e8c565b600081815260026020526040902060609061055a90611f54565b92915050565b6000808212156105785761057382612e2d565b61055a565b5090565b6006546000906001600160a01b031633146105d35760405162461bcd60e51b8152602060048201526012602482015271139bdd0819d85b595cc818dbdb9d1c9858dd60721b60448201526064015b60405180910390fd5b600880546040805160c08101825282815260208101899052919291908101878381111561060257610602612a25565b815260200160405180604001604052808860ff1681526020018760ff1681525081526020016009600089600881111561063d5761063d612a25565b600881111561064e5761064e612a25565b8152602080820192909252604090810160009081205484529282018390528454600181810187559584529282902084516006909402019283559083015182850155820151600282018054939492939192909160ff1916908360088111156106b7576106b7612a25565b02179055506060820151805160038301805460209093015160ff9081166101000261ffff199094169216919091179190911790556080820151600482015560a0909101516005909101805491151560ff19929092169190911790559050949350505050565b600180546000918261072d83612e49565b91905055506001546001436107429190612e62565b403360405160200161077993929190928352602083019190915260601b6bffffffffffffffffffffffff1916604082015260540190565b60405160208183030381529060405280519060200120905090565b6000806107a360016006611d16565b60ff1690507ffe34d093a460a16ee5fb374540914d1c734a17502c0c1a87b387c8d6097e1c5183826040516107e2929190918252602082015260400190565b60405180910390a192915050565b6060600082516001600160401b0381111561080d5761080d6128b0565b60405190808252806020026020018201604052801561084657816020015b610833612781565b81526020019060019003908161082b5790505b50905060005b835181101561096057600884828151811061086957610869612e75565b60200260200101518154811061088157610881612e75565b90600052602060002090600602016040518060c001604052908160008201548152602001600182015481526020016002820160009054906101000a900460ff1660088111156108d2576108d2612a25565b60088111156108e3576108e3612a25565b8152604080518082018252600384015460ff808216835261010090910481166020838101919091528401919091526004840154918301919091526005909201549091161515606090910152825183908390811061094257610942612e75565b6020026020010181905250808061095890612e49565b91505061084c565b5092915050565b6004546001600160a01b031633146109b85760405162461bcd60e51b8152602060048201526014602482015273139bdd081858dd1a5bdb9cc818dbdb9d1c9858dd60621b60448201526064016105ca565b6001600882815481106109cd576109cd612e75565b60009182526020909120600690910201600501805460ff19169115159190911790555050565b600354604051630f78220b60e11b8152600481018590526000916001600160a01b031690631ef0441690602401600060405180830381865afa158015610a3d573d6000803e3d6000fd5b505050506040513d6000823e601f3d908101601f19168201604052610a659190810190612f13565b9050600083516001600160401b03811115610a8257610a826128b0565b604051908082528060200260200182016040528015610b8657816020015b610b73604080516101c081018252600080825260208083018290528284018290528351610100810185528281528082018390528085018390526060808201849052608080830185905260a080840186905260c0840186905260e0840186905291860192909252855180870187528481528084018590529185019190915284518086019095528285529084019190915290919082019081526000602082018190526040820181905260608083018290526080830182905260a083015260c0820181905260e082018190526101009091015290565b815260200190600190039081610aa05790505b50905060005b8151811015610c595760055485516001600160a01b03909116906310f67fb390879084908110610bbe57610bbe612e75565b60200260200101516040518263ffffffff1660e01b8152600401610be491815260200190565b600060405180830381865afa158015610c01573d6000803e3d6000fd5b505050506040513d6000823e601f3d908101601f19168201604052610c299190810190613227565b828281518110610c3b57610c3b612e75565b60200260200101819052508080610c5190612e49565b915050610b8c565b5060005b83518110156115af5760006008858381518110610c7c57610c7c612e75565b602002602001015181548110610c9457610c94612e75565b906000526020600020906006020190508060040154600003610cb6575061159d565b60038101548451859160ff16908110610cd157610cd1612e75565b60200260200101518160030160000160019054906101000a900460ff1660ff1681518110610d0157610d01612e75565b602002602001015160c0015115610d2a57600481018054906000610d2483613372565b91905055505b8060040154600003610d3c575061159d565b61270f60001960005b8551811015610e4557600754865160ff90911690879083908110610d6b57610d6b612e75565b6020026020010151608001516000015160ff16148015610dbc5750600754865161010090910460ff1690879083908110610da757610da7612e75565b6020026020010151608001516020015160ff16145b610e335760408051808201909152600385015460ff80821683526101009091041660208201528651600091610e0e91899085908110610dfd57610dfd612e75565b602002602001015160800151611dc6565b905080600003610e2357819350809250610e31565b828111610e31578193508092505b505b80610e3d81612e49565b915050610d45565b508161270f03610e575750505061159d565b6001600284015460ff166008811115610e7257610e72612a25565b0361106a5780600003610eac57610ea48a84878581518110610e9657610e96612e75565b602002602001015184611f61565b50505061159d565b6001600052600d6020527ffd54ff1ed53f34a900b24c5ba64f85761163b5d82d98a47b9bd80e45466993c554811161106a576003805486516001600160a01b03909116916345e1e03c918c91870190899087908110610f0d57610f0d612e75565b60200260200101516080015160006001600d600060016008811115610f3457610f34612a25565b6008811115610f4557610f45612a25565b8152602001908152602001600020546040518763ffffffff1660e01b8152600401610f7596959493929190613389565b6040805180830381865afa158015610f91573d6000803e3d6000fd5b505050506040513d601f19601f82011682018060405250810190610fb591906133d7565b805160038501805460209093015160ff9081166101000261ffff199094169216919091179190911790558451859083908110610ff357610ff3612e75565b60209081029190910101516080015151600384015460ff908116911614801561104e575084828151811061102957611029612e75565b6020908102919091018101516080015101516003840154610100900460ff9081169116145b15610ea457610ea48a84878581518110610e9657610e96612e75565b60028084015460ff16600881111561108457611084612a25565b0361118457806000036110c15761109b838a6121b9565b610ea48a848785815181106110b2576110b2612e75565b60200260200101516001611f61565b6003805486516001600160a01b0390911691632ec6572a918c918701908990879081106110f0576110f0612e75565b60200260200101516080015160006040518563ffffffff1660e01b815260040161111d94939291906133f3565b602060405180830381865afa15801561113a573d6000803e3d6000fd5b505050506040513d601f19601f8201168201806040525081019061115e919061343b565b1561117a57610ea48a84878581518110610e9657610e96612e75565b611184838a6121b9565b6003600284015460ff16600881111561119f5761119f612a25565b036112695761270f8110801561124d57506003805486516001600160a01b0390911691632ec6572a918c918701908990879081106111df576111df612e75565b60200260200101516080015160016040518563ffffffff1660e01b815260040161120c94939291906133f3565b602060405180830381865afa158015611229573d6000803e3d6000fd5b505050506040513d601f19601f8201168201806040525081019061124d919061343b565b1561126957610ea48a84878581518110610e9657610e96612e75565b6004600284015460ff16600881111561128457611284612a25565b0361159957806000036112a857610ea48a84878581518110610e9657610e96612e75565b6004600052600d6020527fafafe8948a4ed9d478b1e9a5780b119b5edd00ea7d07bc35bef7c814824eb94b5481116113e2576003805486516001600160a01b03909116916345e1e03c918c9187019089908790811061130957611309612e75565b60200260200101516080015160016000600d60006004600881111561133057611330612a25565b600881111561134157611341612a25565b8152602001908152602001600020546040518763ffffffff1660e01b815260040161137196959493929190613389565b6040805180830381865afa15801561138d573d6000803e3d6000fd5b505050506040513d601f19601f820116820180604052508101906113b191906133d7565b80516003909401805460209092015160ff9081166101000261ffff19909316951694909417179092555061159d9050565b61270f811015611587576003805486516001600160a01b03909116916345e1e03c918c9187019089908790811061141b5761141b612e75565b60200260200101516080015160016000600d60006004600881111561144257611442612a25565b600881111561145357611453612a25565b8152602001908152602001600020546040518763ffffffff1660e01b815260040161148396959493929190613389565b6040805180830381865afa15801561149f573d6000803e3d6000fd5b505050506040513d601f19601f820116820180604052508101906114c391906133d7565b80516003808601805460209094015160ff9081166101000261ffff19909516931692909217929092178155905486516001600160a01b0390911691632ec6572a918c919089908790811061151957611519612e75565b60200260200101516080015160016040518563ffffffff1660e01b815260040161154694939291906133f3565b602060405180830381865afa158015611563573d6000803e3d6000fd5b505050506040513d601f19601f8201168201806040525081019061104e919061343b565b61270f8110156115995750505061159d565b5050505b806115a781612e49565b915050610c5d565b5060008681526002602052604090206115c89043612518565b50505050505050565b6000806115de8686612e62565b90506000836115ed8684613456565b6115f79190613483565b90506116038782613497565b979650505050505050565b60008061161a85610794565b6040805187815260208101839052908101869052606081018590529091507f75b6a8325595f91135e07382840634226793c68c9e59623da7e10d7ad3d95b959060800160405180910390a1806001036116775760009150506116a4565b6003836116848684613497565b61168e91906134aa565b131561169e5760019150506116a4565b60009150505b9392505050565b6000816116b9846004613456565b6116a49190613497565b6116cb612524565b6116d5600061257e565b565b6000816000036116e957506001919050565b816001036116f957506000919050565b8160020361170957506003919050565b8160030361171957506002919050565b60405162461bcd60e51b815260206004820152600d60248201526c2130b2103234b932b1ba34b7b760991b60448201526064016105ca565b6004546001600160a01b031633146117a25760405162461bcd60e51b8152602060048201526014602482015273139bdd081858dd1a5bdb9cc818dbdb9d1c9858dd60621b60448201526064016105ca565b6000806000600887815481106117ba576117ba612e75565b9060005260206000209060060201905080600401546000036117f257604051635218ce7360e01b8152600481018890526024016105ca565b6003810154845160ff908116911614801561182057506003810154602085015160ff90811661010090920416145b15806118a35750600380546040516317632b9560e11b81526001600160a01b0390911691632ec6572a91611860918c9189918701906000906004016134ca565b602060405180830381865afa15801561187d573d6000803e3d6000fd5b505050506040513d601f19601f820116820180604052508101906118a1919061343b565b155b156118c457604051636aeddacb60e01b8152600481018890526024016105ca565b600281015461190f908a90600a9060009060ff1660088111156118e9576118e9612a25565b60088111156118fa576118fa612a25565b8152602001908152602001600020548761160e565b15611930576004810180546001945090600061192a83613372565b91905055505b600481015415611a8e576003810154845160ff908116911614801561196857506003810154602085015160ff90811661010090920416145b806119d557506001600282015460ff16600881111561198957611989612a25565b141580156119b057506005600282015460ff1660088111156119ad576119ad612a25565b14155b80156119d557506006600282015460ff1660088111156119d2576119d2612a25565b14155b15611a8e576002810154600c9060009060ff1660088111156119f9576119f9612a25565b6008811115611a0a57611a0a612a25565b81526020810191909152604090810160009081205460055492516301ba1eb160e31b8152600481018a905260248101879052604481019290925293506001600160a01b0390911690630dd0f58890606401600060405180830381600087803b158015611a7557600080fd5b505af1158015611a89573d6000803e3d6000fd5b505050505b60028101546040517f8e8341e4cf4165f5b8133f6805aa5cd98756c5203c1756d9eec0af9cef617d4391611ad1918c918a9160ff909116908c908990899061350b565b60405180910390a16000898152600260205260409020611af19043612518565b50505050505050505050565b604080518082019091526000808252602082015282600003611b4f57604051806040016040528060018460000151611b359190613543565b60ff168152602001836020015160ff16815250905061055a565b82600103611b7357604051806040016040528083600001516001611b35919061355c565b82600203611bb0576040518060400160405280836000015160ff16815260200183602001516001611ba4919061355c565b60ff169052905061055a565b82600303611be1576040518060400160405280836000015160ff16815260200160018460200151611ba49190613543565b6000611bec846125ce565b604051602001611bfc9190613599565b60405160208183030381529060405290508060405162461bcd60e51b81526004016105ca91906135d4565b600080826001611c388660026136eb565b611c429190612e62565b901b8516831c9150509392505050565b60088181548110611c6257600080fd5b600091825260209182902060069091020180546001820154600283015460408051808201909152600385015460ff8181168352610100909104811696820196909652600485015460059095015493965091949081169391921686565b611cc6612524565b600380546001600160a01b039586166001600160a01b0319918216179091556004805494861694821694909417909355600580549285169284169290921790915560068054919093169116179055565b6001805460009182611d2783612e49565b9190505550600033600154600143611d3f9190612e62565b60405160609390931b6bffffffffffffffffffffffff19166020840152603483019190915240605482015260740160408051601f19818403018152919052805160209091012090506000611d938585613543565b611d9e90600161355c565b90508460ff168160ff1683611db391906136f7565b611dbd9190613497565b95945050505050565b600080611de6836000015160000b856000015160000b61026091906134aa565b90506000611e07846020015160000b866020015160000b61026091906134aa565b9050611dbd8183613497565b611e1b612524565b6001600160a01b038116611e805760405162461bcd60e51b815260206004820152602660248201527f4f776e61626c653a206e6577206f776e657220697320746865207a65726f206160448201526564647265737360d01b60648201526084016105ca565b611e898161257e565b50565b80518251600091611e9c9161370b565b60000b600103611eae5750600061055a565b81518351611ebc919061370b565b60000b19611ecc5750600161055a565b81602001518360200151611ee0919061370b565b60000b19611ef05750600261055a565b81602001518360200151611f04919061370b565b60000b600103611f165750600361055a565b60405162461bcd60e51b8152602060048201526013602482015272115c9c9bdc8e88139bdd0818591a9858d95b9d606a1b60448201526064016105ca565b606060006116a4836126d6565b60028301546000908190611fbb908790600b90849060ff166008811115611f8a57611f8a612a25565b6008811115611f9b57611f9b612a25565b81526020019081526020016000205486606001516040015160ff1661160e565b15612077576002850154600c9060009060ff166008811115611fdf57611fdf612a25565b6008811115611ff057611ff0612a25565b8152602081019190915260409081016000908120546005548784015193516301ba1eb160e31b8152600481019490945260248401829052604484019290925293506001600160a01b031690630dd0f58890606401600060405180830381600087803b15801561205e57600080fd5b505af1158015612072573d6000803e3d6000fd5b505050505b8215806120895750836060015160e001515b15612150576000836000036120d457846060015160a0015160000b856060015160c0015160000b136120c357846060015160a001516120cd565b846060015160c001515b90506120df565b50606084015160a001515b600286015461212d90889060ff80851691600a9160009116600881111561210857612108612a25565b600881111561211957612119612a25565b81526020019081526020016000205461160e565b1561214e576004860180546001935090600061214883613372565b91905055505b505b6002850154855460408087015190517fbec470141b1ce95021ad88998cf463bb41483dbb4fa04b0f5f9e34541c7336a493612199938b9360ff909216929091908890889061372c565b60405180910390a160008681526002602052604090206115c89043612518565b60408051600480825260a082019092526000916020820160808036833701905050905060005b815181101561221857808282815181106121fb576121fb612e75565b60209081029190910101528061221081612e49565b9150506121df565b506000600182516122299190612e62565b90505b80156122c857600061223f600083611d16565b9050828160ff168151811061225657612256612e75565b602002602001015183838151811061227057612270612e75565b602002602001015184848151811061228a5761228a612e75565b60200260200101858460ff16815181106122a6576122a6612e75565b60209081029190910101919091525250806122c081613372565b91505061222c565b5060005b815181101561251257600380549085015483516000926001600160a01b031691636ea1dcd891879160ff80821692610100909204169088908890811061231457612314612e75565b60200260200101516040518563ffffffff1660e01b8152600401612355949392919093845260ff928316602085015291166040830152606082015260800190565b606060405180830381865afa158015612372573d6000803e3d6000fd5b505050506040513d601f19601f820116820180604052508101906123969190613763565b90506002816040015160048111156123b0576123b0612a25565b14806123d157506001816040015160048111156123cf576123cf612a25565b145b806123f157506003816040015160048111156123ef576123ef612a25565b145b156124fe5760408051808201909152600386015460ff8082168352610100909104166020820152600090612426908490611afd565b60035481516020830151604051636474d64b60e11b8152600481018a905260ff9283166024820152911660448201529192506000916001600160a01b039091169063c8e9ac9690606401602060405180830381865afa15801561248d573d6000803e3d6000fd5b505050506040513d601f19601f820116820180604052508101906124b191906137d8565b90508015806124c05750600281145b156124cd57505050612500565b50805160038701805460209093015160ff9081166101000261ffff1990941692169190911791909117905550612512565b505b8061250a81612e49565b9150506122cc565b50505050565b60006116a48383612732565b6000546001600160a01b031633146116d55760405162461bcd60e51b815260206004820181905260248201527f4f776e61626c653a2063616c6c6572206973206e6f7420746865206f776e657260448201526064016105ca565b600080546001600160a01b038381166001600160a01b0319831681178455604051919092169283917f8be0079c531659141344cd1fd0a4f28419497f9722a3daafe3b4186f6b6457e09190a35050565b6060816000036125f55750506040805180820190915260018152600360fc1b602082015290565b8160005b811561261f578061260981612e49565b91506126189050600a83613483565b91506125f9565b6000816001600160401b03811115612639576126396128b0565b6040519080825280601f01601f191660200182016040528015612663576020820181803683370190505b5090505b84156126ce57612678600183612e62565b9150612685600a866136f7565b612690906030613497565b60f81b8183815181106126a5576126a5612e75565b60200101906001600160f81b031916908160001a9053506126c7600a86613483565b9450612667565b949350505050565b60608160000180548060200260200160405190810160405280929190818152602001828054801561272657602002820191906000526020600020905b815481526020019060010190808311612712575b50505050509050919050565b60008181526001830160205260408120546127795750815460018181018455600084815260208082209093018490558454848252828601909352604090209190915561055a565b50600061055a565b6040518060c001604052806000815260200160008152602001600060088111156127ad576127ad612a25565b81526020016127d56040518060400160405280600060ff168152602001600060ff1681525090565b815260006020820181905260409091015290565b8035600981106127f857600080fd5b919050565b60006020828403121561280f57600080fd5b6116a4826127e9565b60006020828403121561282a57600080fd5b5035919050565b6020808252825182820181905260009190848201906040850190845b818110156128695783518352928401929184019160010161284d565b50909695505050505050565b6000806000806080858703121561288b57600080fd5b8435935061289b602086016127e9565b93969395505050506040820135916060013590565b634e487b7160e01b600052604160045260246000fd5b604080519081016001600160401b03811182821017156128e8576128e86128b0565b60405290565b60405160e081016001600160401b03811182821017156128e8576128e86128b0565b6040516101c081016001600160401b03811182821017156128e8576128e86128b0565b604051601f8201601f191681016001600160401b038111828210171561295b5761295b6128b0565b604052919050565b60006001600160401b0382111561297c5761297c6128b0565b5060051b60200190565b600082601f83011261299757600080fd5b813560206129ac6129a783612963565b612933565b82815260059290921b840181019181810190868411156129cb57600080fd5b8286015b848110156129e657803583529183019183016129cf565b509695505050505050565b600060208284031215612a0357600080fd5b81356001600160401b03811115612a1957600080fd5b6126ce84828501612986565b634e487b7160e01b600052602160045260246000fd5b60098110612a5957634e487b7160e01b600052602160045260246000fd5b9052565b602080825282518282018190526000919060409081850190868401855b82811015612ae857815180518552868101518786015285810151612aa087870182612a3b565b50606081810151805160ff9081168884015260208201511660808801525050608081015160a0868101919091520151151560c085015260e09093019290850190600101612a7a565b5091979650505050505050565b60008060408385031215612b0857600080fd5b50508035926020909101359150565b60008060008060808587031215612b2d57600080fd5b843593506020850135925060408501356001600160401b0380821115612b5257600080fd5b612b5e88838901612986565b93506060870135915080821115612b7457600080fd5b50612b8187828801612986565b91505092959194509250565b60008060008060808587031215612ba357600080fd5b5050823594602084013594506040840135936060013592509050565b600080600060608486031215612bd457600080fd5b505081359360208301359350604090920135919050565b60ff81168114611e8957600080fd5b600060408284031215612c0c57600080fd5b612c146128c6565b90508135612c2181612beb565b81526020820135612c3181612beb565b602082015292915050565b60008060008060008060e08789031215612c5557600080fd5b8635955060208701359450604087013593506060870135925060808701359150612c828860a08901612bfa565b90509295509295509295565b60008060608385031215612ca157600080fd5b82359150612cb28460208501612bfa565b90509250929050565b6040810161055a8284805160ff908116835260209182015116910152565b8681526020810186905260e08101612cf46040830187612a3b565b845160ff908116606084015260208601511660808301528360a083015282151560c0830152979650505050505050565b6001600160a01b0381168114611e8957600080fd5b60008060008060808587031215612d4f57600080fd5b8435612d5a81612d24565b93506020850135612d6a81612d24565b92506040850135612d7a81612d24565b91506060850135612d8a81612d24565b939692955090935050565b60008060408385031215612da857600080fd5b8235612db381612beb565b91506020830135612dc381612beb565b809150509250929050565b60008060808385031215612de157600080fd5b612deb8484612bfa565b9150612cb28460408501612bfa565b600060208284031215612e0c57600080fd5b81356116a481612d24565b634e487b7160e01b600052601160045260246000fd5b6000600160ff1b8201612e4257612e42612e17565b5060000390565b600060018201612e5b57612e5b612e17565b5060010190565b8181038181111561055a5761055a612e17565b634e487b7160e01b600052603260045260246000fd5b80516127f881612beb565b600082601f830112612ea757600080fd5b604051608081018181106001600160401b0382111715612ec957612ec96128b0565b604052806080840185811115612ede57600080fd5b845b81811015612ef8578051835260209283019201612ee0565b509195945050505050565b805180151581146127f857600080fd5b60006020808385031215612f2657600080fd5b82516001600160401b0380821115612f3d57600080fd5b818501915085601f830112612f5157600080fd5b8151612f5f6129a782612963565b81815260059190911b83018401908481019088831115612f7e57600080fd5b8585015b8381101561309b57805185811115612f9957600080fd5b8601603f81018b13612faa57600080fd5b87810151612fba6129a782612963565b818152610140909102820160400190898101908d831115612fda57600080fd5b6040840193505b8284101561308b57610140848f031215612ffa57600080fd5b6130026128ee565b845161300d81612beb565b8152848c015161301c81612beb565b818d015261302d8f60408701612e96565b604082015261303e60c08601612f03565b606082015261304f60e08601612f03565b60808201526130616101008601612f03565b60a08201526130736101208601612f03565b60c082015282526101409390930192908a0190612fe1565b8652505050918601918601612f82565b5098975050505050505050565b80516127f881612d24565b8051600081900b81146127f857600080fd5b60006101008083850312156130d957600080fd5b604051908101906001600160401b03821181831017156130fb576130fb6128b0565b8160405280925061310b846130b3565b8152613119602085016130b3565b602082015261312a604085016130b3565b604082015261313b606085016130b3565b606082015261314c608085016130b3565b608082015261315d60a085016130b3565b60a082015261316e60c085016130b3565b60c082015261317f60e08501612f03565b60e0820152505092915050565b60006040828403121561319e57600080fd5b6131a66128c6565b905081516131b381612beb565b81526020820151612c3181612beb565b600082601f8301126131d457600080fd5b815160206131e46129a783612963565b82815260059290921b8401810191818101908684111561320357600080fd5b8286015b848110156129e657805161321a81612beb565b8352918301918301613207565b60006020828403121561323957600080fd5b81516001600160401b038082111561325057600080fd5b908301906102e0828603121561326557600080fd5b61326d612910565b613276836130a8565b8152602083015160208201526040830151604082015261329986606085016130c5565b60608201526101606132ad8782860161318c565b60808301526101a06132c18882870161318c565b60a08401526132d36101e086016130b3565b60c08401526132e56102008601612e8b565b60e08401526132f76102208601612e8b565b61010084015261330a6102408601612e8b565b6101208401526102608501518481111561332357600080fd5b61332f898288016131c3565b610140850152506133436102808601612e8b565b828401526133546102a08601612f03565b6101808401526102c085015181840152505080935050505092915050565b60008161338157613381612e17565b506000190190565b958652935460ff80821660208089019190915260089290921c811660408801528451811660608801529301519092166080850152151560a0840152151560c083015260e08201526101000190565b6000604082840312156133e957600080fd5b6116a4838361318c565b848152835460ff808216602084015260089190911c16604082015260c08101835160ff908116606084015260208501511660808301525b82151560a083015295945050505050565b60006020828403121561344d57600080fd5b6116a482612f03565b808202811582820484141761055a5761055a612e17565b634e487b7160e01b600052601260045260246000fd5b6000826134925761349261346d565b500490565b8082018082111561055a5761055a612e17565b818103600083128015838313168383128216171561096057610960612e17565b84815260c081016134ee6020830186805160ff908116835260209182015116910152565b835460ff808216606085015260089190911c16608083015261342a565b8681526020810186905260c081016135266040830187612a3b565b8460608301528360808301528260a0830152979650505050505050565b60ff828116828216039081111561055a5761055a612e17565b60ff818116838216019081111561055a5761055a612e17565b60005b83811015613590578181015183820152602001613578565b50506000910152565b72024b73b30b634b2103234b932b1ba34b7b71d1606d1b8152600082516135c7816013850160208701613575565b9190910160130192915050565b60208152600082518060208401526135f3816040850160208701613575565b601f01601f19169190910160400192915050565b600181815b8085111561364257816000190482111561362857613628612e17565b8085161561363557918102915b93841c939080029061360c565b509250929050565b6000826136595750600161055a565b816136665750600061055a565b816001811461367c5760028114613686576136a2565b600191505061055a565b60ff84111561369757613697612e17565b50506001821b61055a565b5060208310610133831016604e8410600b84101617156136c5575081810a61055a565b6136cf8383613607565b80600019048211156136e3576136e3612e17565b029392505050565b60006116a4838361364a565b6000826137065761370661346d565b500690565b600082810b9082900b03607f198112607f8213171561055a5761055a612e17565b86815260c081016137406020830188612a3b565b8560408301528460608301528360808301528260a0830152979650505050505050565b60006060828403121561377557600080fd5b604051606081018181106001600160401b0382111715613797576137976128b0565b60405282516137a581612beb565b815260208301516137b581612beb565b60208201526040830151600581106137cc57600080fd5b60408201529392505050565b6000602082840312156137ea57600080fd5b505191905056fea264697066735822122071e928a0144ffbe4d8bcb0a2a093f3d4a611a045e19b53a0f54ab35a16fe985664736f6c63430008110033",
  "devdoc": {
    "kind": "dev",
    "methods": {
      "owner()": {
        "details": "Returns the address of the current owner."
      },
      "renounceOwnership()": {
        "details": "Leaves the contract without owner. It will not be possible to call `onlyOwner` functions anymore. Can only be called by the current owner. NOTE: Renouncing ownership will leave the contract without an owner, thereby removing any functionality that is only available to the owner."
      },
      "transferOwnership(address)": {
        "details": "Transfers ownership of the contract to a new account (`newOwner`). Can only be called by the current owner."
      }
    },
    "version": 1
  },
  "userdoc": {
    "kind": "user",
    "methods": {},
    "version": 1
  },
  "storageLayout": {
    "storage": [
      {
        "astId": 7,
        "contract": "contracts/BCDenizens.sol:BCDenizens",
        "label": "_owner",
        "offset": 0,
        "slot": "0",
        "type": "t_address"
      },
      {
        "astId": 20693,
        "contract": "contracts/BCDenizens.sol:BCDenizens",
        "label": "TODO_randomSeed",
        "offset": 0,
        "slot": "1",
        "type": "t_uint256"
      },
      {
        "astId": 20698,
        "contract": "contracts/BCDenizens.sol:BCDenizens",
        "label": "gameToEventBlocks",
        "offset": 0,
        "slot": "2",
        "type": "t_mapping(t_uint256,t_struct(UintSet)2262_storage)"
      },
      {
        "astId": 5235,
        "contract": "contracts/BCDenizens.sol:BCDenizens",
        "label": "maps",
        "offset": 0,
        "slot": "3",
        "type": "t_contract(MapInterface)5135"
      },
      {
        "astId": 5237,
        "contract": "contracts/BCDenizens.sol:BCDenizens",
        "label": "actionsAddress",
        "offset": 0,
        "slot": "4",
        "type": "t_address"
      },
      {
        "astId": 5240,
        "contract": "contracts/BCDenizens.sol:BCDenizens",
        "label": "players",
        "offset": 0,
        "slot": "5",
        "type": "t_contract(PlayersInterface)5224"
      },
      {
        "astId": 5243,
        "contract": "contracts/BCDenizens.sol:BCDenizens",
        "label": "games",
        "offset": 0,
        "slot": "6",
        "type": "t_contract(GamesInterface)4957"
      },
      {
        "astId": 5301,
        "contract": "contracts/BCDenizens.sol:BCDenizens",
        "label": "StartLocation",
        "offset": 0,
        "slot": "7",
        "type": "t_struct(Position)20465_storage"
      },
      {
        "astId": 5305,
        "contract": "contracts/BCDenizens.sol:BCDenizens",
        "label": "denizens",
        "offset": 0,
        "slot": "8",
        "type": "t_array(t_struct(Denizen)20451_storage)dyn_storage"
      },
      {
        "astId": 5310,
        "contract": "contracts/BCDenizens.sol:BCDenizens",
        "label": "denizenHealth",
        "offset": 0,
        "slot": "9",
        "type": "t_mapping(t_enum(DenizenType)20403,t_uint256)"
      },
      {
        "astId": 5315,
        "contract": "contracts/BCDenizens.sol:BCDenizens",
        "label": "denizenDef",
        "offset": 0,
        "slot": "10",
        "type": "t_mapping(t_enum(DenizenType)20403,t_uint256)"
      },
      {
        "astId": 5320,
        "contract": "contracts/BCDenizens.sol:BCDenizens",
        "label": "denizenOff",
        "offset": 0,
        "slot": "11",
        "type": "t_mapping(t_enum(DenizenType)20403,t_uint256)"
      },
      {
        "astId": 5325,
        "contract": "contracts/BCDenizens.sol:BCDenizens",
        "label": "denizenDmg",
        "offset": 0,
        "slot": "12",
        "type": "t_mapping(t_enum(DenizenType)20403,t_uint256)"
      },
      {
        "astId": 5330,
        "contract": "contracts/BCDenizens.sol:BCDenizens",
        "label": "denizenMovement",
        "offset": 0,
        "slot": "13",
        "type": "t_mapping(t_enum(DenizenType)20403,t_uint256)"
      }
    ],
    "types": {
      "t_address": {
        "encoding": "inplace",
        "label": "address",
        "numberOfBytes": "20"
      },
      "t_array(t_bytes32)dyn_storage": {
        "base": "t_bytes32",
        "encoding": "dynamic_array",
        "label": "bytes32[]",
        "numberOfBytes": "32"
      },
      "t_array(t_struct(Denizen)20451_storage)dyn_storage": {
        "base": "t_struct(Denizen)20451_storage",
        "encoding": "dynamic_array",
        "label": "struct BCTypes.Denizen[]",
        "numberOfBytes": "32"
      },
      "t_bool": {
        "encoding": "inplace",
        "label": "bool",
        "numberOfBytes": "1"
      },
      "t_bytes32": {
        "encoding": "inplace",
        "label": "bytes32",
        "numberOfBytes": "32"
      },
      "t_contract(GamesInterface)4957": {
        "encoding": "inplace",
        "label": "contract GamesInterface",
        "numberOfBytes": "20"
      },
      "t_contract(MapInterface)5135": {
        "encoding": "inplace",
        "label": "contract MapInterface",
        "numberOfBytes": "20"
      },
      "t_contract(PlayersInterface)5224": {
        "encoding": "inplace",
        "label": "contract PlayersInterface",
        "numberOfBytes": "20"
      },
      "t_enum(DenizenType)20403": {
        "encoding": "inplace",
        "label": "enum BCTypes.DenizenType",
        "numberOfBytes": "1"
      },
      "t_mapping(t_bytes32,t_uint256)": {
        "encoding": "mapping",
        "key": "t_bytes32",
        "label": "mapping(bytes32 => uint256)",
        "numberOfBytes": "32",
        "value": "t_uint256"
      },
      "t_mapping(t_enum(DenizenType)20403,t_uint256)": {
        "encoding": "mapping",
        "key": "t_enum(DenizenType)20403",
        "label": "mapping(enum BCTypes.DenizenType => uint256)",
        "numberOfBytes": "32",
        "value": "t_uint256"
      },
      "t_mapping(t_uint256,t_struct(UintSet)2262_storage)": {
        "encoding": "mapping",
        "key": "t_uint256",
        "label": "mapping(uint256 => struct EnumerableSet.UintSet)",
        "numberOfBytes": "32",
        "value": "t_struct(UintSet)2262_storage"
      },
      "t_struct(Denizen)20451_storage": {
        "encoding": "inplace",
        "label": "struct BCTypes.Denizen",
        "members": [
          {
            "astId": 20438,
            "contract": "contracts/BCDenizens.sol:BCDenizens",
            "label": "id",
            "offset": 0,
            "slot": "0",
            "type": "t_uint256"
          },
          {
            "astId": 20440,
            "contract": "contracts/BCDenizens.sol:BCDenizens",
            "label": "gameId",
            "offset": 0,
            "slot": "1",
            "type": "t_uint256"
          },
          {
            "astId": 20443,
            "contract": "contracts/BCDenizens.sol:BCDenizens",
            "label": "denizenType",
            "offset": 0,
            "slot": "2",
            "type": "t_enum(DenizenType)20403"
          },
          {
            "astId": 20446,
            "contract": "contracts/BCDenizens.sol:BCDenizens",
            "label": "position",
            "offset": 0,
            "slot": "3",
            "type": "t_struct(Position)20465_storage"
          },
          {
            "astId": 20448,
            "contract": "contracts/BCDenizens.sol:BCDenizens",
            "label": "healthRemaining",
            "offset": 0,
            "slot": "4",
            "type": "t_uint256"
          },
          {
            "astId": 20450,
            "contract": "contracts/BCDenizens.sol:BCDenizens",
            "label": "looted",
            "offset": 0,
            "slot": "5",
            "type": "t_bool"
          }
        ],
        "numberOfBytes": "192"
      },
      "t_struct(Position)20465_storage": {
        "encoding": "inplace",
        "label": "struct BCTypes.Position",
        "members": [
          {
            "astId": 20462,
            "contract": "contracts/BCDenizens.sol:BCDenizens",
            "label": "row",
            "offset": 0,
            "slot": "0",
            "type": "t_uint8"
          },
          {
            "astId": 20464,
            "contract": "contracts/BCDenizens.sol:BCDenizens",
            "label": "col",
            "offset": 1,
            "slot": "0",
            "type": "t_uint8"
          }
        ],
        "numberOfBytes": "32"
      },
      "t_struct(Set)1804_storage": {
        "encoding": "inplace",
        "label": "struct EnumerableSet.Set",
        "members": [
          {
            "astId": 1799,
            "contract": "contracts/BCDenizens.sol:BCDenizens",
            "label": "_values",
            "offset": 0,
            "slot": "0",
            "type": "t_array(t_bytes32)dyn_storage"
          },
          {
            "astId": 1803,
            "contract": "contracts/BCDenizens.sol:BCDenizens",
            "label": "_indexes",
            "offset": 0,
            "slot": "1",
            "type": "t_mapping(t_bytes32,t_uint256)"
          }
        ],
        "numberOfBytes": "64"
      },
      "t_struct(UintSet)2262_storage": {
        "encoding": "inplace",
        "label": "struct EnumerableSet.UintSet",
        "members": [
          {
            "astId": 2261,
            "contract": "contracts/BCDenizens.sol:BCDenizens",
            "label": "_inner",
            "offset": 0,
            "slot": "0",
            "type": "t_struct(Set)1804_storage"
          }
        ],
        "numberOfBytes": "64"
      },
      "t_uint256": {
        "encoding": "inplace",
        "label": "uint256",
        "numberOfBytes": "32"
      },
      "t_uint8": {
        "encoding": "inplace",
        "label": "uint8",
        "numberOfBytes": "1"
      }
    }
  }
}