{
  "address": "0x128683fD392C51a587b58BF0F770447D647FDbd9",
  "abi": [
    {
      "inputs": [],
      "stateMutability": "nonpayable",
      "type": "constructor"
    },
    {
      "anonymous": false,
      "inputs": [
        {
          "indexed": true,
          "internalType": "address",
          "name": "previousOwner",
          "type": "address"
        },
        {
          "indexed": true,
          "internalType": "address",
          "name": "newOwner",
          "type": "address"
        }
      ],
      "name": "OwnershipTransferred",
      "type": "event"
    },
    {
      "inputs": [
        {
          "internalType": "uint256",
          "name": "_id",
          "type": "uint256"
        }
      ],
      "name": "C",
      "outputs": [
        {
          "components": [
            {
              "internalType": "uint256",
              "name": "id",
              "type": "uint256"
            },
            {
              "internalType": "bool",
              "name": "permanent",
              "type": "bool"
            },
            {
              "internalType": "uint8",
              "name": "rollForLow",
              "type": "uint8"
            },
            {
              "internalType": "uint8",
              "name": "rollForHigh",
              "type": "uint8"
            },
            {
              "components": [
                {
                  "internalType": "bool",
                  "name": "permanent",
                  "type": "bool"
                },
                {
                  "internalType": "bool",
                  "name": "fullHealth",
                  "type": "bool"
                },
                {
                  "internalType": "bool",
                  "name": "instantDeath",
                  "type": "bool"
                },
                {
                  "internalType": "bool",
                  "name": "placeHazard",
                  "type": "bool"
                },
                {
                  "internalType": "bool",
                  "name": "grantEgg",
                  "type": "bool"
                },
                {
                  "internalType": "uint8",
                  "name": "healAmt",
                  "type": "uint8"
                },
                {
                  "internalType": "uint8",
                  "name": "healArmorAmt",
                  "type": "uint8"
                },
                {
                  "internalType": "uint8",
                  "name": "hazardDamage",
                  "type": "uint8"
                },
                {
                  "internalType": "uint8",
                  "name": "physicalDamage",
                  "type": "uint8"
                },
                {
                  "internalType": "uint8",
                  "name": "numEnemyToPlace",
                  "type": "uint8"
                },
                {
                  "internalType": "enum BCEvents.EnemyType",
                  "name": "enemyType",
                  "type": "uint8"
                },
                {
                  "internalType": "enum BCEvents.EnemyPlacement",
                  "name": "wheretoPlace",
                  "type": "uint8"
                },
                {
                  "internalType": "uint8",
                  "name": "grantData",
                  "type": "uint8"
                },
                {
                  "internalType": "uint8",
                  "name": "grantNumItems",
                  "type": "uint8"
                },
                {
                  "internalType": "uint8",
                  "name": "takeNumItems",
                  "type": "uint8"
                },
                {
                  "internalType": "enum BCEvents.MovePlayer",
                  "name": "moveType",
                  "type": "uint8"
                },
                {
                  "internalType": "uint8",
                  "name": "trapPlayerEscapeRoll",
                  "type": "uint8"
                },
                {
                  "internalType": "uint8",
                  "name": "grantAbility",
                  "type": "uint8"
                },
                {
                  "components": [
                    {
                      "internalType": "int8",
                      "name": "health",
                      "type": "int8"
                    },
                    {
                      "internalType": "int8",
                      "name": "carry",
                      "type": "int8"
                    },
                    {
                      "internalType": "int8",
                      "name": "defense",
                      "type": "int8"
                    },
                    {
                      "internalType": "int8",
                      "name": "hack",
                      "type": "int8"
                    },
                    {
                      "internalType": "int8",
                      "name": "breach",
                      "type": "int8"
                    },
                    {
                      "internalType": "int8",
                      "name": "shoot",
                      "type": "int8"
                    },
                    {
                      "internalType": "int8",
                      "name": "melee",
                      "type": "int8"
                    }
                  ],
                  "internalType": "struct BCTypes.Traits",
                  "name": "traitModifiers",
                  "type": "tuple"
                }
              ],
              "internalType": "struct BCEvents.BCEffect",
              "name": "defaultEffect",
              "type": "tuple"
            },
            {
              "components": [
                {
                  "internalType": "bool",
                  "name": "permanent",
                  "type": "bool"
                },
                {
                  "internalType": "bool",
                  "name": "fullHealth",
                  "type": "bool"
                },
                {
                  "internalType": "bool",
                  "name": "instantDeath",
                  "type": "bool"
                },
                {
                  "internalType": "bool",
                  "name": "placeHazard",
                  "type": "bool"
                },
                {
                  "internalType": "bool",
                  "name": "grantEgg",
                  "type": "bool"
                },
                {
                  "internalType": "uint8",
                  "name": "healAmt",
                  "type": "uint8"
                },
                {
                  "internalType": "uint8",
                  "name": "healArmorAmt",
                  "type": "uint8"
                },
                {
                  "internalType": "uint8",
                  "name": "hazardDamage",
                  "type": "uint8"
                },
                {
                  "internalType": "uint8",
                  "name": "physicalDamage",
                  "type": "uint8"
                },
                {
                  "internalType": "uint8",
                  "name": "numEnemyToPlace",
                  "type": "uint8"
                },
                {
                  "internalType": "enum BCEvents.EnemyType",
                  "name": "enemyType",
                  "type": "uint8"
                },
                {
                  "internalType": "enum BCEvents.EnemyPlacement",
                  "name": "wheretoPlace",
                  "type": "uint8"
                },
                {
                  "internalType": "uint8",
                  "name": "grantData",
                  "type": "uint8"
                },
                {
                  "internalType": "uint8",
                  "name": "grantNumItems",
                  "type": "uint8"
                },
                {
                  "internalType": "uint8",
                  "name": "takeNumItems",
                  "type": "uint8"
                },
                {
                  "internalType": "enum BCEvents.MovePlayer",
                  "name": "moveType",
                  "type": "uint8"
                },
                {
                  "internalType": "uint8",
                  "name": "trapPlayerEscapeRoll",
                  "type": "uint8"
                },
                {
                  "internalType": "uint8",
                  "name": "grantAbility",
                  "type": "uint8"
                },
                {
                  "components": [
                    {
                      "internalType": "int8",
                      "name": "health",
                      "type": "int8"
                    },
                    {
                      "internalType": "int8",
                      "name": "carry",
                      "type": "int8"
                    },
                    {
                      "internalType": "int8",
                      "name": "defense",
                      "type": "int8"
                    },
                    {
                      "internalType": "int8",
                      "name": "hack",
                      "type": "int8"
                    },
                    {
                      "internalType": "int8",
                      "name": "breach",
                      "type": "int8"
                    },
                    {
                      "internalType": "int8",
                      "name": "shoot",
                      "type": "int8"
                    },
                    {
                      "internalType": "int8",
                      "name": "melee",
                      "type": "int8"
                    }
                  ],
                  "internalType": "struct BCTypes.Traits",
                  "name": "traitModifiers",
                  "type": "tuple"
                }
              ],
              "internalType": "struct BCEvents.BCEffect",
              "name": "lowEffect",
              "type": "tuple"
            },
            {
              "components": [
                {
                  "internalType": "bool",
                  "name": "permanent",
                  "type": "bool"
                },
                {
                  "internalType": "bool",
                  "name": "fullHealth",
                  "type": "bool"
                },
                {
                  "internalType": "bool",
                  "name": "instantDeath",
                  "type": "bool"
                },
                {
                  "internalType": "bool",
                  "name": "placeHazard",
                  "type": "bool"
                },
                {
                  "internalType": "bool",
                  "name": "grantEgg",
                  "type": "bool"
                },
                {
                  "internalType": "uint8",
                  "name": "healAmt",
                  "type": "uint8"
                },
                {
                  "internalType": "uint8",
                  "name": "healArmorAmt",
                  "type": "uint8"
                },
                {
                  "internalType": "uint8",
                  "name": "hazardDamage",
                  "type": "uint8"
                },
                {
                  "internalType": "uint8",
                  "name": "physicalDamage",
                  "type": "uint8"
                },
                {
                  "internalType": "uint8",
                  "name": "numEnemyToPlace",
                  "type": "uint8"
                },
                {
                  "internalType": "enum BCEvents.EnemyType",
                  "name": "enemyType",
                  "type": "uint8"
                },
                {
                  "internalType": "enum BCEvents.EnemyPlacement",
                  "name": "wheretoPlace",
                  "type": "uint8"
                },
                {
                  "internalType": "uint8",
                  "name": "grantData",
                  "type": "uint8"
                },
                {
                  "internalType": "uint8",
                  "name": "grantNumItems",
                  "type": "uint8"
                },
                {
                  "internalType": "uint8",
                  "name": "takeNumItems",
                  "type": "uint8"
                },
                {
                  "internalType": "enum BCEvents.MovePlayer",
                  "name": "moveType",
                  "type": "uint8"
                },
                {
                  "internalType": "uint8",
                  "name": "trapPlayerEscapeRoll",
                  "type": "uint8"
                },
                {
                  "internalType": "uint8",
                  "name": "grantAbility",
                  "type": "uint8"
                },
                {
                  "components": [
                    {
                      "internalType": "int8",
                      "name": "health",
                      "type": "int8"
                    },
                    {
                      "internalType": "int8",
                      "name": "carry",
                      "type": "int8"
                    },
                    {
                      "internalType": "int8",
                      "name": "defense",
                      "type": "int8"
                    },
                    {
                      "internalType": "int8",
                      "name": "hack",
                      "type": "int8"
                    },
                    {
                      "internalType": "int8",
                      "name": "breach",
                      "type": "int8"
                    },
                    {
                      "internalType": "int8",
                      "name": "shoot",
                      "type": "int8"
                    },
                    {
                      "internalType": "int8",
                      "name": "melee",
                      "type": "int8"
                    }
                  ],
                  "internalType": "struct BCTypes.Traits",
                  "name": "traitModifiers",
                  "type": "tuple"
                }
              ],
              "internalType": "struct BCEvents.BCEffect",
              "name": "highEffect",
              "type": "tuple"
            }
          ],
          "internalType": "struct BCEvents.BCEvent",
          "name": "",
          "type": "tuple"
        }
      ],
      "stateMutability": "view",
      "type": "function"
    },
    {
      "inputs": [
        {
          "internalType": "uint256",
          "name": "",
          "type": "uint256"
        }
      ],
      "name": "bcCardEvents",
      "outputs": [
        {
          "internalType": "uint256",
          "name": "id",
          "type": "uint256"
        },
        {
          "internalType": "bool",
          "name": "permanent",
          "type": "bool"
        },
        {
          "internalType": "uint8",
          "name": "rollForLow",
          "type": "uint8"
        },
        {
          "internalType": "uint8",
          "name": "rollForHigh",
          "type": "uint8"
        },
        {
          "components": [
            {
              "internalType": "bool",
              "name": "permanent",
              "type": "bool"
            },
            {
              "internalType": "bool",
              "name": "fullHealth",
              "type": "bool"
            },
            {
              "internalType": "bool",
              "name": "instantDeath",
              "type": "bool"
            },
            {
              "internalType": "bool",
              "name": "placeHazard",
              "type": "bool"
            },
            {
              "internalType": "bool",
              "name": "grantEgg",
              "type": "bool"
            },
            {
              "internalType": "uint8",
              "name": "healAmt",
              "type": "uint8"
            },
            {
              "internalType": "uint8",
              "name": "healArmorAmt",
              "type": "uint8"
            },
            {
              "internalType": "uint8",
              "name": "hazardDamage",
              "type": "uint8"
            },
            {
              "internalType": "uint8",
              "name": "physicalDamage",
              "type": "uint8"
            },
            {
              "internalType": "uint8",
              "name": "numEnemyToPlace",
              "type": "uint8"
            },
            {
              "internalType": "enum BCEvents.EnemyType",
              "name": "enemyType",
              "type": "uint8"
            },
            {
              "internalType": "enum BCEvents.EnemyPlacement",
              "name": "wheretoPlace",
              "type": "uint8"
            },
            {
              "internalType": "uint8",
              "name": "grantData",
              "type": "uint8"
            },
            {
              "internalType": "uint8",
              "name": "grantNumItems",
              "type": "uint8"
            },
            {
              "internalType": "uint8",
              "name": "takeNumItems",
              "type": "uint8"
            },
            {
              "internalType": "enum BCEvents.MovePlayer",
              "name": "moveType",
              "type": "uint8"
            },
            {
              "internalType": "uint8",
              "name": "trapPlayerEscapeRoll",
              "type": "uint8"
            },
            {
              "internalType": "uint8",
              "name": "grantAbility",
              "type": "uint8"
            },
            {
              "components": [
                {
                  "internalType": "int8",
                  "name": "health",
                  "type": "int8"
                },
                {
                  "internalType": "int8",
                  "name": "carry",
                  "type": "int8"
                },
                {
                  "internalType": "int8",
                  "name": "defense",
                  "type": "int8"
                },
                {
                  "internalType": "int8",
                  "name": "hack",
                  "type": "int8"
                },
                {
                  "internalType": "int8",
                  "name": "breach",
                  "type": "int8"
                },
                {
                  "internalType": "int8",
                  "name": "shoot",
                  "type": "int8"
                },
                {
                  "internalType": "int8",
                  "name": "melee",
                  "type": "int8"
                }
              ],
              "internalType": "struct BCTypes.Traits",
              "name": "traitModifiers",
              "type": "tuple"
            }
          ],
          "internalType": "struct BCEvents.BCEffect",
          "name": "defaultEffect",
          "type": "tuple"
        },
        {
          "components": [
            {
              "internalType": "bool",
              "name": "permanent",
              "type": "bool"
            },
            {
              "internalType": "bool",
              "name": "fullHealth",
              "type": "bool"
            },
            {
              "internalType": "bool",
              "name": "instantDeath",
              "type": "bool"
            },
            {
              "internalType": "bool",
              "name": "placeHazard",
              "type": "bool"
            },
            {
              "internalType": "bool",
              "name": "grantEgg",
              "type": "bool"
            },
            {
              "internalType": "uint8",
              "name": "healAmt",
              "type": "uint8"
            },
            {
              "internalType": "uint8",
              "name": "healArmorAmt",
              "type": "uint8"
            },
            {
              "internalType": "uint8",
              "name": "hazardDamage",
              "type": "uint8"
            },
            {
              "internalType": "uint8",
              "name": "physicalDamage",
              "type": "uint8"
            },
            {
              "internalType": "uint8",
              "name": "numEnemyToPlace",
              "type": "uint8"
            },
            {
              "internalType": "enum BCEvents.EnemyType",
              "name": "enemyType",
              "type": "uint8"
            },
            {
              "internalType": "enum BCEvents.EnemyPlacement",
              "name": "wheretoPlace",
              "type": "uint8"
            },
            {
              "internalType": "uint8",
              "name": "grantData",
              "type": "uint8"
            },
            {
              "internalType": "uint8",
              "name": "grantNumItems",
              "type": "uint8"
            },
            {
              "internalType": "uint8",
              "name": "takeNumItems",
              "type": "uint8"
            },
            {
              "internalType": "enum BCEvents.MovePlayer",
              "name": "moveType",
              "type": "uint8"
            },
            {
              "internalType": "uint8",
              "name": "trapPlayerEscapeRoll",
              "type": "uint8"
            },
            {
              "internalType": "uint8",
              "name": "grantAbility",
              "type": "uint8"
            },
            {
              "components": [
                {
                  "internalType": "int8",
                  "name": "health",
                  "type": "int8"
                },
                {
                  "internalType": "int8",
                  "name": "carry",
                  "type": "int8"
                },
                {
                  "internalType": "int8",
                  "name": "defense",
                  "type": "int8"
                },
                {
                  "internalType": "int8",
                  "name": "hack",
                  "type": "int8"
                },
                {
                  "internalType": "int8",
                  "name": "breach",
                  "type": "int8"
                },
                {
                  "internalType": "int8",
                  "name": "shoot",
                  "type": "int8"
                },
                {
                  "internalType": "int8",
                  "name": "melee",
                  "type": "int8"
                }
              ],
              "internalType": "struct BCTypes.Traits",
              "name": "traitModifiers",
              "type": "tuple"
            }
          ],
          "internalType": "struct BCEvents.BCEffect",
          "name": "lowEffect",
          "type": "tuple"
        },
        {
          "components": [
            {
              "internalType": "bool",
              "name": "permanent",
              "type": "bool"
            },
            {
              "internalType": "bool",
              "name": "fullHealth",
              "type": "bool"
            },
            {
              "internalType": "bool",
              "name": "instantDeath",
              "type": "bool"
            },
            {
              "internalType": "bool",
              "name": "placeHazard",
              "type": "bool"
            },
            {
              "internalType": "bool",
              "name": "grantEgg",
              "type": "bool"
            },
            {
              "internalType": "uint8",
              "name": "healAmt",
              "type": "uint8"
            },
            {
              "internalType": "uint8",
              "name": "healArmorAmt",
              "type": "uint8"
            },
            {
              "internalType": "uint8",
              "name": "hazardDamage",
              "type": "uint8"
            },
            {
              "internalType": "uint8",
              "name": "physicalDamage",
              "type": "uint8"
            },
            {
              "internalType": "uint8",
              "name": "numEnemyToPlace",
              "type": "uint8"
            },
            {
              "internalType": "enum BCEvents.EnemyType",
              "name": "enemyType",
              "type": "uint8"
            },
            {
              "internalType": "enum BCEvents.EnemyPlacement",
              "name": "wheretoPlace",
              "type": "uint8"
            },
            {
              "internalType": "uint8",
              "name": "grantData",
              "type": "uint8"
            },
            {
              "internalType": "uint8",
              "name": "grantNumItems",
              "type": "uint8"
            },
            {
              "internalType": "uint8",
              "name": "takeNumItems",
              "type": "uint8"
            },
            {
              "internalType": "enum BCEvents.MovePlayer",
              "name": "moveType",
              "type": "uint8"
            },
            {
              "internalType": "uint8",
              "name": "trapPlayerEscapeRoll",
              "type": "uint8"
            },
            {
              "internalType": "uint8",
              "name": "grantAbility",
              "type": "uint8"
            },
            {
              "components": [
                {
                  "internalType": "int8",
                  "name": "health",
                  "type": "int8"
                },
                {
                  "internalType": "int8",
                  "name": "carry",
                  "type": "int8"
                },
                {
                  "internalType": "int8",
                  "name": "defense",
                  "type": "int8"
                },
                {
                  "internalType": "int8",
                  "name": "hack",
                  "type": "int8"
                },
                {
                  "internalType": "int8",
                  "name": "breach",
                  "type": "int8"
                },
                {
                  "internalType": "int8",
                  "name": "shoot",
                  "type": "int8"
                },
                {
                  "internalType": "int8",
                  "name": "melee",
                  "type": "int8"
                }
              ],
              "internalType": "struct BCTypes.Traits",
              "name": "traitModifiers",
              "type": "tuple"
            }
          ],
          "internalType": "struct BCEvents.BCEffect",
          "name": "highEffect",
          "type": "tuple"
        }
      ],
      "stateMutability": "view",
      "type": "function"
    },
    {
      "inputs": [
        {
          "internalType": "uint256",
          "name": "",
          "type": "uint256"
        }
      ],
      "name": "bcRoomEvents",
      "outputs": [
        {
          "internalType": "uint256",
          "name": "id",
          "type": "uint256"
        },
        {
          "internalType": "bool",
          "name": "permanent",
          "type": "bool"
        },
        {
          "internalType": "uint8",
          "name": "rollForLow",
          "type": "uint8"
        },
        {
          "internalType": "uint8",
          "name": "rollForHigh",
          "type": "uint8"
        },
        {
          "components": [
            {
              "internalType": "bool",
              "name": "permanent",
              "type": "bool"
            },
            {
              "internalType": "bool",
              "name": "fullHealth",
              "type": "bool"
            },
            {
              "internalType": "bool",
              "name": "instantDeath",
              "type": "bool"
            },
            {
              "internalType": "bool",
              "name": "placeHazard",
              "type": "bool"
            },
            {
              "internalType": "bool",
              "name": "grantEgg",
              "type": "bool"
            },
            {
              "internalType": "uint8",
              "name": "healAmt",
              "type": "uint8"
            },
            {
              "internalType": "uint8",
              "name": "healArmorAmt",
              "type": "uint8"
            },
            {
              "internalType": "uint8",
              "name": "hazardDamage",
              "type": "uint8"
            },
            {
              "internalType": "uint8",
              "name": "physicalDamage",
              "type": "uint8"
            },
            {
              "internalType": "uint8",
              "name": "numEnemyToPlace",
              "type": "uint8"
            },
            {
              "internalType": "enum BCEvents.EnemyType",
              "name": "enemyType",
              "type": "uint8"
            },
            {
              "internalType": "enum BCEvents.EnemyPlacement",
              "name": "wheretoPlace",
              "type": "uint8"
            },
            {
              "internalType": "uint8",
              "name": "grantData",
              "type": "uint8"
            },
            {
              "internalType": "uint8",
              "name": "grantNumItems",
              "type": "uint8"
            },
            {
              "internalType": "uint8",
              "name": "takeNumItems",
              "type": "uint8"
            },
            {
              "internalType": "enum BCEvents.MovePlayer",
              "name": "moveType",
              "type": "uint8"
            },
            {
              "internalType": "uint8",
              "name": "trapPlayerEscapeRoll",
              "type": "uint8"
            },
            {
              "internalType": "uint8",
              "name": "grantAbility",
              "type": "uint8"
            },
            {
              "components": [
                {
                  "internalType": "int8",
                  "name": "health",
                  "type": "int8"
                },
                {
                  "internalType": "int8",
                  "name": "carry",
                  "type": "int8"
                },
                {
                  "internalType": "int8",
                  "name": "defense",
                  "type": "int8"
                },
                {
                  "internalType": "int8",
                  "name": "hack",
                  "type": "int8"
                },
                {
                  "internalType": "int8",
                  "name": "breach",
                  "type": "int8"
                },
                {
                  "internalType": "int8",
                  "name": "shoot",
                  "type": "int8"
                },
                {
                  "internalType": "int8",
                  "name": "melee",
                  "type": "int8"
                }
              ],
              "internalType": "struct BCTypes.Traits",
              "name": "traitModifiers",
              "type": "tuple"
            }
          ],
          "internalType": "struct BCEvents.BCEffect",
          "name": "defaultEffect",
          "type": "tuple"
        },
        {
          "components": [
            {
              "internalType": "bool",
              "name": "permanent",
              "type": "bool"
            },
            {
              "internalType": "bool",
              "name": "fullHealth",
              "type": "bool"
            },
            {
              "internalType": "bool",
              "name": "instantDeath",
              "type": "bool"
            },
            {
              "internalType": "bool",
              "name": "placeHazard",
              "type": "bool"
            },
            {
              "internalType": "bool",
              "name": "grantEgg",
              "type": "bool"
            },
            {
              "internalType": "uint8",
              "name": "healAmt",
              "type": "uint8"
            },
            {
              "internalType": "uint8",
              "name": "healArmorAmt",
              "type": "uint8"
            },
            {
              "internalType": "uint8",
              "name": "hazardDamage",
              "type": "uint8"
            },
            {
              "internalType": "uint8",
              "name": "physicalDamage",
              "type": "uint8"
            },
            {
              "internalType": "uint8",
              "name": "numEnemyToPlace",
              "type": "uint8"
            },
            {
              "internalType": "enum BCEvents.EnemyType",
              "name": "enemyType",
              "type": "uint8"
            },
            {
              "internalType": "enum BCEvents.EnemyPlacement",
              "name": "wheretoPlace",
              "type": "uint8"
            },
            {
              "internalType": "uint8",
              "name": "grantData",
              "type": "uint8"
            },
            {
              "internalType": "uint8",
              "name": "grantNumItems",
              "type": "uint8"
            },
            {
              "internalType": "uint8",
              "name": "takeNumItems",
              "type": "uint8"
            },
            {
              "internalType": "enum BCEvents.MovePlayer",
              "name": "moveType",
              "type": "uint8"
            },
            {
              "internalType": "uint8",
              "name": "trapPlayerEscapeRoll",
              "type": "uint8"
            },
            {
              "internalType": "uint8",
              "name": "grantAbility",
              "type": "uint8"
            },
            {
              "components": [
                {
                  "internalType": "int8",
                  "name": "health",
                  "type": "int8"
                },
                {
                  "internalType": "int8",
                  "name": "carry",
                  "type": "int8"
                },
                {
                  "internalType": "int8",
                  "name": "defense",
                  "type": "int8"
                },
                {
                  "internalType": "int8",
                  "name": "hack",
                  "type": "int8"
                },
                {
                  "internalType": "int8",
                  "name": "breach",
                  "type": "int8"
                },
                {
                  "internalType": "int8",
                  "name": "shoot",
                  "type": "int8"
                },
                {
                  "internalType": "int8",
                  "name": "melee",
                  "type": "int8"
                }
              ],
              "internalType": "struct BCTypes.Traits",
              "name": "traitModifiers",
              "type": "tuple"
            }
          ],
          "internalType": "struct BCEvents.BCEffect",
          "name": "lowEffect",
          "type": "tuple"
        },
        {
          "components": [
            {
              "internalType": "bool",
              "name": "permanent",
              "type": "bool"
            },
            {
              "internalType": "bool",
              "name": "fullHealth",
              "type": "bool"
            },
            {
              "internalType": "bool",
              "name": "instantDeath",
              "type": "bool"
            },
            {
              "internalType": "bool",
              "name": "placeHazard",
              "type": "bool"
            },
            {
              "internalType": "bool",
              "name": "grantEgg",
              "type": "bool"
            },
            {
              "internalType": "uint8",
              "name": "healAmt",
              "type": "uint8"
            },
            {
              "internalType": "uint8",
              "name": "healArmorAmt",
              "type": "uint8"
            },
            {
              "internalType": "uint8",
              "name": "hazardDamage",
              "type": "uint8"
            },
            {
              "internalType": "uint8",
              "name": "physicalDamage",
              "type": "uint8"
            },
            {
              "internalType": "uint8",
              "name": "numEnemyToPlace",
              "type": "uint8"
            },
            {
              "internalType": "enum BCEvents.EnemyType",
              "name": "enemyType",
              "type": "uint8"
            },
            {
              "internalType": "enum BCEvents.EnemyPlacement",
              "name": "wheretoPlace",
              "type": "uint8"
            },
            {
              "internalType": "uint8",
              "name": "grantData",
              "type": "uint8"
            },
            {
              "internalType": "uint8",
              "name": "grantNumItems",
              "type": "uint8"
            },
            {
              "internalType": "uint8",
              "name": "takeNumItems",
              "type": "uint8"
            },
            {
              "internalType": "enum BCEvents.MovePlayer",
              "name": "moveType",
              "type": "uint8"
            },
            {
              "internalType": "uint8",
              "name": "trapPlayerEscapeRoll",
              "type": "uint8"
            },
            {
              "internalType": "uint8",
              "name": "grantAbility",
              "type": "uint8"
            },
            {
              "components": [
                {
                  "internalType": "int8",
                  "name": "health",
                  "type": "int8"
                },
                {
                  "internalType": "int8",
                  "name": "carry",
                  "type": "int8"
                },
                {
                  "internalType": "int8",
                  "name": "defense",
                  "type": "int8"
                },
                {
                  "internalType": "int8",
                  "name": "hack",
                  "type": "int8"
                },
                {
                  "internalType": "int8",
                  "name": "breach",
                  "type": "int8"
                },
                {
                  "internalType": "int8",
                  "name": "shoot",
                  "type": "int8"
                },
                {
                  "internalType": "int8",
                  "name": "melee",
                  "type": "int8"
                }
              ],
              "internalType": "struct BCTypes.Traits",
              "name": "traitModifiers",
              "type": "tuple"
            }
          ],
          "internalType": "struct BCEvents.BCEffect",
          "name": "highEffect",
          "type": "tuple"
        }
      ],
      "stateMutability": "view",
      "type": "function"
    },
    {
      "inputs": [
        {
          "internalType": "bool",
          "name": "_roomEvent",
          "type": "bool"
        },
        {
          "internalType": "uint256",
          "name": "_id",
          "type": "uint256"
        }
      ],
      "name": "extGetEffects",
      "outputs": [
        {
          "components": [
            {
              "internalType": "bool",
              "name": "permanent",
              "type": "bool"
            },
            {
              "internalType": "bool",
              "name": "fullHealth",
              "type": "bool"
            },
            {
              "internalType": "bool",
              "name": "instantDeath",
              "type": "bool"
            },
            {
              "internalType": "bool",
              "name": "placeHazard",
              "type": "bool"
            },
            {
              "internalType": "bool",
              "name": "grantEgg",
              "type": "bool"
            },
            {
              "internalType": "uint8",
              "name": "healAmt",
              "type": "uint8"
            },
            {
              "internalType": "uint8",
              "name": "healArmorAmt",
              "type": "uint8"
            },
            {
              "internalType": "uint8",
              "name": "hazardDamage",
              "type": "uint8"
            },
            {
              "internalType": "uint8",
              "name": "physicalDamage",
              "type": "uint8"
            },
            {
              "internalType": "uint8",
              "name": "numEnemyToPlace",
              "type": "uint8"
            },
            {
              "internalType": "enum BCEvents.EnemyType",
              "name": "enemyType",
              "type": "uint8"
            },
            {
              "internalType": "enum BCEvents.EnemyPlacement",
              "name": "wheretoPlace",
              "type": "uint8"
            },
            {
              "internalType": "uint8",
              "name": "grantData",
              "type": "uint8"
            },
            {
              "internalType": "uint8",
              "name": "grantNumItems",
              "type": "uint8"
            },
            {
              "internalType": "uint8",
              "name": "takeNumItems",
              "type": "uint8"
            },
            {
              "internalType": "enum BCEvents.MovePlayer",
              "name": "moveType",
              "type": "uint8"
            },
            {
              "internalType": "uint8",
              "name": "trapPlayerEscapeRoll",
              "type": "uint8"
            },
            {
              "internalType": "uint8",
              "name": "grantAbility",
              "type": "uint8"
            },
            {
              "components": [
                {
                  "internalType": "int8",
                  "name": "health",
                  "type": "int8"
                },
                {
                  "internalType": "int8",
                  "name": "carry",
                  "type": "int8"
                },
                {
                  "internalType": "int8",
                  "name": "defense",
                  "type": "int8"
                },
                {
                  "internalType": "int8",
                  "name": "hack",
                  "type": "int8"
                },
                {
                  "internalType": "int8",
                  "name": "breach",
                  "type": "int8"
                },
                {
                  "internalType": "int8",
                  "name": "shoot",
                  "type": "int8"
                },
                {
                  "internalType": "int8",
                  "name": "melee",
                  "type": "int8"
                }
              ],
              "internalType": "struct BCTypes.Traits",
              "name": "traitModifiers",
              "type": "tuple"
            }
          ],
          "internalType": "struct BCEvents.BCEffect[]",
          "name": "",
          "type": "tuple[]"
        }
      ],
      "stateMutability": "view",
      "type": "function"
    },
    {
      "inputs": [
        {
          "internalType": "uint256",
          "name": "_id",
          "type": "uint256"
        }
      ],
      "name": "extGetRoomEvent",
      "outputs": [
        {
          "components": [
            {
              "internalType": "uint256",
              "name": "id",
              "type": "uint256"
            },
            {
              "internalType": "bool",
              "name": "permanent",
              "type": "bool"
            },
            {
              "internalType": "uint8",
              "name": "rollForLow",
              "type": "uint8"
            },
            {
              "internalType": "uint8",
              "name": "rollForHigh",
              "type": "uint8"
            },
            {
              "components": [
                {
                  "internalType": "bool",
                  "name": "permanent",
                  "type": "bool"
                },
                {
                  "internalType": "bool",
                  "name": "fullHealth",
                  "type": "bool"
                },
                {
                  "internalType": "bool",
                  "name": "instantDeath",
                  "type": "bool"
                },
                {
                  "internalType": "bool",
                  "name": "placeHazard",
                  "type": "bool"
                },
                {
                  "internalType": "bool",
                  "name": "grantEgg",
                  "type": "bool"
                },
                {
                  "internalType": "uint8",
                  "name": "healAmt",
                  "type": "uint8"
                },
                {
                  "internalType": "uint8",
                  "name": "healArmorAmt",
                  "type": "uint8"
                },
                {
                  "internalType": "uint8",
                  "name": "hazardDamage",
                  "type": "uint8"
                },
                {
                  "internalType": "uint8",
                  "name": "physicalDamage",
                  "type": "uint8"
                },
                {
                  "internalType": "uint8",
                  "name": "numEnemyToPlace",
                  "type": "uint8"
                },
                {
                  "internalType": "enum BCEvents.EnemyType",
                  "name": "enemyType",
                  "type": "uint8"
                },
                {
                  "internalType": "enum BCEvents.EnemyPlacement",
                  "name": "wheretoPlace",
                  "type": "uint8"
                },
                {
                  "internalType": "uint8",
                  "name": "grantData",
                  "type": "uint8"
                },
                {
                  "internalType": "uint8",
                  "name": "grantNumItems",
                  "type": "uint8"
                },
                {
                  "internalType": "uint8",
                  "name": "takeNumItems",
                  "type": "uint8"
                },
                {
                  "internalType": "enum BCEvents.MovePlayer",
                  "name": "moveType",
                  "type": "uint8"
                },
                {
                  "internalType": "uint8",
                  "name": "trapPlayerEscapeRoll",
                  "type": "uint8"
                },
                {
                  "internalType": "uint8",
                  "name": "grantAbility",
                  "type": "uint8"
                },
                {
                  "components": [
                    {
                      "internalType": "int8",
                      "name": "health",
                      "type": "int8"
                    },
                    {
                      "internalType": "int8",
                      "name": "carry",
                      "type": "int8"
                    },
                    {
                      "internalType": "int8",
                      "name": "defense",
                      "type": "int8"
                    },
                    {
                      "internalType": "int8",
                      "name": "hack",
                      "type": "int8"
                    },
                    {
                      "internalType": "int8",
                      "name": "breach",
                      "type": "int8"
                    },
                    {
                      "internalType": "int8",
                      "name": "shoot",
                      "type": "int8"
                    },
                    {
                      "internalType": "int8",
                      "name": "melee",
                      "type": "int8"
                    }
                  ],
                  "internalType": "struct BCTypes.Traits",
                  "name": "traitModifiers",
                  "type": "tuple"
                }
              ],
              "internalType": "struct BCEvents.BCEffect",
              "name": "defaultEffect",
              "type": "tuple"
            },
            {
              "components": [
                {
                  "internalType": "bool",
                  "name": "permanent",
                  "type": "bool"
                },
                {
                  "internalType": "bool",
                  "name": "fullHealth",
                  "type": "bool"
                },
                {
                  "internalType": "bool",
                  "name": "instantDeath",
                  "type": "bool"
                },
                {
                  "internalType": "bool",
                  "name": "placeHazard",
                  "type": "bool"
                },
                {
                  "internalType": "bool",
                  "name": "grantEgg",
                  "type": "bool"
                },
                {
                  "internalType": "uint8",
                  "name": "healAmt",
                  "type": "uint8"
                },
                {
                  "internalType": "uint8",
                  "name": "healArmorAmt",
                  "type": "uint8"
                },
                {
                  "internalType": "uint8",
                  "name": "hazardDamage",
                  "type": "uint8"
                },
                {
                  "internalType": "uint8",
                  "name": "physicalDamage",
                  "type": "uint8"
                },
                {
                  "internalType": "uint8",
                  "name": "numEnemyToPlace",
                  "type": "uint8"
                },
                {
                  "internalType": "enum BCEvents.EnemyType",
                  "name": "enemyType",
                  "type": "uint8"
                },
                {
                  "internalType": "enum BCEvents.EnemyPlacement",
                  "name": "wheretoPlace",
                  "type": "uint8"
                },
                {
                  "internalType": "uint8",
                  "name": "grantData",
                  "type": "uint8"
                },
                {
                  "internalType": "uint8",
                  "name": "grantNumItems",
                  "type": "uint8"
                },
                {
                  "internalType": "uint8",
                  "name": "takeNumItems",
                  "type": "uint8"
                },
                {
                  "internalType": "enum BCEvents.MovePlayer",
                  "name": "moveType",
                  "type": "uint8"
                },
                {
                  "internalType": "uint8",
                  "name": "trapPlayerEscapeRoll",
                  "type": "uint8"
                },
                {
                  "internalType": "uint8",
                  "name": "grantAbility",
                  "type": "uint8"
                },
                {
                  "components": [
                    {
                      "internalType": "int8",
                      "name": "health",
                      "type": "int8"
                    },
                    {
                      "internalType": "int8",
                      "name": "carry",
                      "type": "int8"
                    },
                    {
                      "internalType": "int8",
                      "name": "defense",
                      "type": "int8"
                    },
                    {
                      "internalType": "int8",
                      "name": "hack",
                      "type": "int8"
                    },
                    {
                      "internalType": "int8",
                      "name": "breach",
                      "type": "int8"
                    },
                    {
                      "internalType": "int8",
                      "name": "shoot",
                      "type": "int8"
                    },
                    {
                      "internalType": "int8",
                      "name": "melee",
                      "type": "int8"
                    }
                  ],
                  "internalType": "struct BCTypes.Traits",
                  "name": "traitModifiers",
                  "type": "tuple"
                }
              ],
              "internalType": "struct BCEvents.BCEffect",
              "name": "lowEffect",
              "type": "tuple"
            },
            {
              "components": [
                {
                  "internalType": "bool",
                  "name": "permanent",
                  "type": "bool"
                },
                {
                  "internalType": "bool",
                  "name": "fullHealth",
                  "type": "bool"
                },
                {
                  "internalType": "bool",
                  "name": "instantDeath",
                  "type": "bool"
                },
                {
                  "internalType": "bool",
                  "name": "placeHazard",
                  "type": "bool"
                },
                {
                  "internalType": "bool",
                  "name": "grantEgg",
                  "type": "bool"
                },
                {
                  "internalType": "uint8",
                  "name": "healAmt",
                  "type": "uint8"
                },
                {
                  "internalType": "uint8",
                  "name": "healArmorAmt",
                  "type": "uint8"
                },
                {
                  "internalType": "uint8",
                  "name": "hazardDamage",
                  "type": "uint8"
                },
                {
                  "internalType": "uint8",
                  "name": "physicalDamage",
                  "type": "uint8"
                },
                {
                  "internalType": "uint8",
                  "name": "numEnemyToPlace",
                  "type": "uint8"
                },
                {
                  "internalType": "enum BCEvents.EnemyType",
                  "name": "enemyType",
                  "type": "uint8"
                },
                {
                  "internalType": "enum BCEvents.EnemyPlacement",
                  "name": "wheretoPlace",
                  "type": "uint8"
                },
                {
                  "internalType": "uint8",
                  "name": "grantData",
                  "type": "uint8"
                },
                {
                  "internalType": "uint8",
                  "name": "grantNumItems",
                  "type": "uint8"
                },
                {
                  "internalType": "uint8",
                  "name": "takeNumItems",
                  "type": "uint8"
                },
                {
                  "internalType": "enum BCEvents.MovePlayer",
                  "name": "moveType",
                  "type": "uint8"
                },
                {
                  "internalType": "uint8",
                  "name": "trapPlayerEscapeRoll",
                  "type": "uint8"
                },
                {
                  "internalType": "uint8",
                  "name": "grantAbility",
                  "type": "uint8"
                },
                {
                  "components": [
                    {
                      "internalType": "int8",
                      "name": "health",
                      "type": "int8"
                    },
                    {
                      "internalType": "int8",
                      "name": "carry",
                      "type": "int8"
                    },
                    {
                      "internalType": "int8",
                      "name": "defense",
                      "type": "int8"
                    },
                    {
                      "internalType": "int8",
                      "name": "hack",
                      "type": "int8"
                    },
                    {
                      "internalType": "int8",
                      "name": "breach",
                      "type": "int8"
                    },
                    {
                      "internalType": "int8",
                      "name": "shoot",
                      "type": "int8"
                    },
                    {
                      "internalType": "int8",
                      "name": "melee",
                      "type": "int8"
                    }
                  ],
                  "internalType": "struct BCTypes.Traits",
                  "name": "traitModifiers",
                  "type": "tuple"
                }
              ],
              "internalType": "struct BCEvents.BCEffect",
              "name": "highEffect",
              "type": "tuple"
            }
          ],
          "internalType": "struct BCEvents.BCEvent",
          "name": "",
          "type": "tuple"
        }
      ],
      "stateMutability": "view",
      "type": "function"
    },
    {
      "inputs": [
        {
          "internalType": "bool",
          "name": "_roomEvent",
          "type": "bool"
        },
        {
          "internalType": "uint256",
          "name": "_id",
          "type": "uint256"
        },
        {
          "internalType": "uint256",
          "name": "_effect",
          "type": "uint256"
        }
      ],
      "name": "extGetTraitModForEffect",
      "outputs": [
        {
          "components": [
            {
              "internalType": "int8",
              "name": "health",
              "type": "int8"
            },
            {
              "internalType": "int8",
              "name": "carry",
              "type": "int8"
            },
            {
              "internalType": "int8",
              "name": "defense",
              "type": "int8"
            },
            {
              "internalType": "int8",
              "name": "hack",
              "type": "int8"
            },
            {
              "internalType": "int8",
              "name": "breach",
              "type": "int8"
            },
            {
              "internalType": "int8",
              "name": "shoot",
              "type": "int8"
            },
            {
              "internalType": "int8",
              "name": "melee",
              "type": "int8"
            }
          ],
          "internalType": "struct BCTypes.Traits",
          "name": "",
          "type": "tuple"
        }
      ],
      "stateMutability": "view",
      "type": "function"
    },
    {
      "inputs": [],
      "name": "owner",
      "outputs": [
        {
          "internalType": "address",
          "name": "",
          "type": "address"
        }
      ],
      "stateMutability": "view",
      "type": "function"
    },
    {
      "inputs": [],
      "name": "renounceOwnership",
      "outputs": [],
      "stateMutability": "nonpayable",
      "type": "function"
    },
    {
      "inputs": [
        {
          "internalType": "address",
          "name": "newOwner",
          "type": "address"
        }
      ],
      "name": "transferOwnership",
      "outputs": [],
      "stateMutability": "nonpayable",
      "type": "function"
    }
  ],
  "transactionHash": "0x69937ec902e8947b75dd8f17756207acafb38d3f5e96563d67f471a90d6247e8",
  "args": [],
  "numDeployments": 1,
  "solcInputHash": "70ef4e40ca8da8e1b24c033b4b2c5748",
  "bytecode": "0x60806040523480156200001157600080fd5b5062000032620000266200005860201b60201c565b6200006060201b60201c565b620000426200012460201b60201c565b620000526200679b60201b60201c565b620074e6565b600033905090565b60008060009054906101000a900473ffffffffffffffffffffffffffffffffffffffff169050816000806101000a81548173ffffffffffffffffffffffffffffffffffffffff021916908373ffffffffffffffffffffffffffffffffffffffff1602179055508173ffffffffffffffffffffffffffffffffffffffff168173ffffffffffffffffffffffffffffffffffffffff167f8be0079c531659141344cd1fd0a4f28419497f9722a3daafe3b4186f6b6457e060405160405180910390a35050565b6200012e6200736b565b62000138620073b6565b60016040518060e0016040528060008152602001600015158152602001600060ff168152602001600060ff1681526020018381526020018381526020018381525090806001815401808255809150506001900390600052602060002090600802016000909190919091506000820151816000015560208201518160010160006101000a81548160ff02191690831515021790555060408201518160010160016101000a81548160ff021916908360ff16021790555060608201518160010160026101000a81548160ff021916908360ff16021790555060808201518160020160008201518160000160006101000a81548160ff02191690831515021790555060208201518160000160016101000a81548160ff02191690831515021790555060408201518160000160026101000a81548160ff02191690831515021790555060608201518160000160036101000a81548160ff02191690831515021790555060808201518160000160046101000a81548160ff02191690831515021790555060a08201518160000160056101000a81548160ff021916908360ff16021790555060c08201518160000160066101000a81548160ff021916908360ff16021790555060e08201518160000160076101000a81548160ff021916908360ff1602179055506101008201518160000160086101000a81548160ff021916908360ff1602179055506101208201518160000160096101000a81548160ff021916908360ff16021790555061014082015181600001600a6101000a81548160ff021916908360048111156200038d576200038c620074b7565b5b021790555061016082015181600001600b6101000a81548160ff02191690836003811115620003c157620003c0620074b7565b5b021790555061018082015181600001600c6101000a81548160ff021916908360ff1602179055506101a082015181600001600d6101000a81548160ff021916908360ff1602179055506101c082015181600001600e6101000a81548160ff021916908360ff1602179055506101e082015181600001600f6101000a81548160ff021916908360058111156200045b576200045a620074b7565b5b02179055506102008201518160000160106101000a81548160ff021916908360ff1602179055506102208201518160000160116101000a81548160ff021916908360ff1602179055506102408201518160010160008201518160000160006101000a81548160ff021916908360000b60ff16021790555060208201518160000160016101000a81548160ff021916908360000b60ff16021790555060408201518160000160026101000a81548160ff021916908360000b60ff16021790555060608201518160000160036101000a81548160ff021916908360000b60ff16021790555060808201518160000160046101000a81548160ff021916908360000b60ff16021790555060a08201518160000160056101000a81548160ff021916908360000b60ff16021790555060c08201518160000160066101000a81548160ff021916908360000b60ff1602179055505050505060a08201518160040160008201518160000160006101000a81548160ff02191690831515021790555060208201518160000160016101000a81548160ff02191690831515021790555060408201518160000160026101000a81548160ff02191690831515021790555060608201518160000160036101000a81548160ff02191690831515021790555060808201518160000160046101000a81548160ff02191690831515021790555060a08201518160000160056101000a81548160ff021916908360ff16021790555060c08201518160000160066101000a81548160ff021916908360ff16021790555060e08201518160000160076101000a81548160ff021916908360ff1602179055506101008201518160000160086101000a81548160ff021916908360ff1602179055506101208201518160000160096101000a81548160ff021916908360ff16021790555061014082015181600001600a6101000a81548160ff021916908360048111156200072d576200072c620074b7565b5b021790555061016082015181600001600b6101000a81548160ff02191690836003811115620007615762000760620074b7565b5b021790555061018082015181600001600c6101000a81548160ff021916908360ff1602179055506101a082015181600001600d6101000a81548160ff021916908360ff1602179055506101c082015181600001600e6101000a81548160ff021916908360ff1602179055506101e082015181600001600f6101000a81548160ff02191690836005811115620007fb57620007fa620074b7565b5b02179055506102008201518160000160106101000a81548160ff021916908360ff1602179055506102208201518160000160116101000a81548160ff021916908360ff1602179055506102408201518160010160008201518160000160006101000a81548160ff021916908360000b60ff16021790555060208201518160000160016101000a81548160ff021916908360000b60ff16021790555060408201518160000160026101000a81548160ff021916908360000b60ff16021790555060608201518160000160036101000a81548160ff021916908360000b60ff16021790555060808201518160000160046101000a81548160ff021916908360000b60ff16021790555060a08201518160000160056101000a81548160ff021916908360000b60ff16021790555060c08201518160000160066101000a81548160ff021916908360000b60ff1602179055505050505060c08201518160060160008201518160000160006101000a81548160ff02191690831515021790555060208201518160000160016101000a81548160ff02191690831515021790555060408201518160000160026101000a81548160ff02191690831515021790555060608201518160000160036101000a81548160ff02191690831515021790555060808201518160000160046101000a81548160ff02191690831515021790555060a08201518160000160056101000a81548160ff021916908360ff16021790555060c08201518160000160066101000a81548160ff021916908360ff16021790555060e08201518160000160076101000a81548160ff021916908360ff1602179055506101008201518160000160086101000a81548160ff021916908360ff1602179055506101208201518160000160096101000a81548160ff021916908360ff16021790555061014082015181600001600a6101000a81548160ff0219169083600481111562000acd5762000acc620074b7565b5b021790555061016082015181600001600b6101000a81548160ff0219169083600381111562000b015762000b00620074b7565b5b021790555061018082015181600001600c6101000a81548160ff021916908360ff1602179055506101a082015181600001600d6101000a81548160ff021916908360ff1602179055506101c082015181600001600e6101000a81548160ff021916908360ff1602179055506101e082015181600001600f6101000a81548160ff0219169083600581111562000b9b5762000b9a620074b7565b5b02179055506102008201518160000160106101000a81548160ff021916908360ff1602179055506102208201518160000160116101000a81548160ff021916908360ff1602179055506102408201518160010160008201518160000160006101000a81548160ff021916908360000b60ff16021790555060208201518160000160016101000a81548160ff021916908360000b60ff16021790555060408201518160000160026101000a81548160ff021916908360000b60ff16021790555060608201518160000160036101000a81548160ff021916908360000b60ff16021790555060808201518160000160046101000a81548160ff021916908360000b60ff16021790555060a08201518160000160056101000a81548160ff021916908360000b60ff16021790555060c08201518160000160066101000a81548160ff021916908360000b60ff16021790555050505050505060016040518060e0016040528062030d418152602001600015158152602001600060ff168152602001600060ff168152602001604051806102600160405280600015158152602001600015158152602001600015158152602001600115158152602001600015158152602001600060ff168152602001600060ff168152602001600160ff168152602001600060ff168152602001600060ff1681526020016000600481111562000da55762000da4620074b7565b5b81526020016000600381111562000dc15762000dc0620074b7565b5b8152602001600060ff168152602001600060ff168152602001600060ff1681526020016000600581111562000dfb5762000dfa620074b7565b5b8152602001600060ff168152602001600060ff1681526020018681525081526020018381526020018381525090806001815401808255809150506001900390600052602060002090600802016000909190919091506000820151816000015560208201518160010160006101000a81548160ff02191690831515021790555060408201518160010160016101000a81548160ff021916908360ff16021790555060608201518160010160026101000a81548160ff021916908360ff16021790555060808201518160020160008201518160000160006101000a81548160ff02191690831515021790555060208201518160000160016101000a81548160ff02191690831515021790555060408201518160000160026101000a81548160ff02191690831515021790555060608201518160000160036101000a81548160ff02191690831515021790555060808201518160000160046101000a81548160ff02191690831515021790555060a08201518160000160056101000a81548160ff021916908360ff16021790555060c08201518160000160066101000a81548160ff021916908360ff16021790555060e08201518160000160076101000a81548160ff021916908360ff1602179055506101008201518160000160086101000a81548160ff021916908360ff1602179055506101208201518160000160096101000a81548160ff021916908360ff16021790555061014082015181600001600a6101000a81548160ff021916908360048111156200103b576200103a620074b7565b5b021790555061016082015181600001600b6101000a81548160ff021916908360038111156200106f576200106e620074b7565b5b021790555061018082015181600001600c6101000a81548160ff021916908360ff1602179055506101a082015181600001600d6101000a81548160ff021916908360ff1602179055506101c082015181600001600e6101000a81548160ff021916908360ff1602179055506101e082015181600001600f6101000a81548160ff02191690836005811115620011095762001108620074b7565b5b02179055506102008201518160000160106101000a81548160ff021916908360ff1602179055506102208201518160000160116101000a81548160ff021916908360ff1602179055506102408201518160010160008201518160000160006101000a81548160ff021916908360000b60ff16021790555060208201518160000160016101000a81548160ff021916908360000b60ff16021790555060408201518160000160026101000a81548160ff021916908360000b60ff16021790555060608201518160000160036101000a81548160ff021916908360000b60ff16021790555060808201518160000160046101000a81548160ff021916908360000b60ff16021790555060a08201518160000160056101000a81548160ff021916908360000b60ff16021790555060c08201518160000160066101000a81548160ff021916908360000b60ff1602179055505050505060a08201518160040160008201518160000160006101000a81548160ff02191690831515021790555060208201518160000160016101000a81548160ff02191690831515021790555060408201518160000160026101000a81548160ff02191690831515021790555060608201518160000160036101000a81548160ff02191690831515021790555060808201518160000160046101000a81548160ff02191690831515021790555060a08201518160000160056101000a81548160ff021916908360ff16021790555060c08201518160000160066101000a81548160ff021916908360ff16021790555060e08201518160000160076101000a81548160ff021916908360ff1602179055506101008201518160000160086101000a81548160ff021916908360ff1602179055506101208201518160000160096101000a81548160ff021916908360ff16021790555061014082015181600001600a6101000a81548160ff02191690836004811115620013db57620013da620074b7565b5b021790555061016082015181600001600b6101000a81548160ff021916908360038111156200140f576200140e620074b7565b5b021790555061018082015181600001600c6101000a81548160ff021916908360ff1602179055506101a082015181600001600d6101000a81548160ff021916908360ff1602179055506101c082015181600001600e6101000a81548160ff021916908360ff1602179055506101e082015181600001600f6101000a81548160ff02191690836005811115620014a957620014a8620074b7565b5b02179055506102008201518160000160106101000a81548160ff021916908360ff1602179055506102208201518160000160116101000a81548160ff021916908360ff1602179055506102408201518160010160008201518160000160006101000a81548160ff021916908360000b60ff16021790555060208201518160000160016101000a81548160ff021916908360000b60ff16021790555060408201518160000160026101000a81548160ff021916908360000b60ff16021790555060608201518160000160036101000a81548160ff021916908360000b60ff16021790555060808201518160000160046101000a81548160ff021916908360000b60ff16021790555060a08201518160000160056101000a81548160ff021916908360000b60ff16021790555060c08201518160000160066101000a81548160ff021916908360000b60ff1602179055505050505060c08201518160060160008201518160000160006101000a81548160ff02191690831515021790555060208201518160000160016101000a81548160ff02191690831515021790555060408201518160000160026101000a81548160ff02191690831515021790555060608201518160000160036101000a81548160ff02191690831515021790555060808201518160000160046101000a81548160ff02191690831515021790555060a08201518160000160056101000a81548160ff021916908360ff16021790555060c08201518160000160066101000a81548160ff021916908360ff16021790555060e08201518160000160076101000a81548160ff021916908360ff1602179055506101008201518160000160086101000a81548160ff021916908360ff1602179055506101208201518160000160096101000a81548160ff021916908360ff16021790555061014082015181600001600a6101000a81548160ff021916908360048111156200177b576200177a620074b7565b5b021790555061016082015181600001600b6101000a81548160ff02191690836003811115620017af57620017ae620074b7565b5b021790555061018082015181600001600c6101000a81548160ff021916908360ff1602179055506101a082015181600001600d6101000a81548160ff021916908360ff1602179055506101c082015181600001600e6101000a81548160ff021916908360ff1602179055506101e082015181600001600f6101000a81548160ff02191690836005811115620018495762001848620074b7565b5b02179055506102008201518160000160106101000a81548160ff021916908360ff1602179055506102208201518160000160116101000a81548160ff021916908360ff1602179055506102408201518160010160008201518160000160006101000a81548160ff021916908360000b60ff16021790555060208201518160000160016101000a81548160ff021916908360000b60ff16021790555060408201518160000160026101000a81548160ff021916908360000b60ff16021790555060608201518160000160036101000a81548160ff021916908360000b60ff16021790555060808201518160000160046101000a81548160ff021916908360000b60ff16021790555060a08201518160000160056101000a81548160ff021916908360000b60ff16021790555060c08201518160000160066101000a81548160ff021916908360000b60ff16021790555050505050505060016040518060e0016040528062030d428152602001600115158152602001600260ff168152602001600660ff168152602001838152602001604051806102600160405280600015158152602001600015158152602001600015158152602001600015158152602001600015158152602001600060ff168152602001600060ff168152602001600060ff168152602001600160ff168152602001600160ff16815260200160048081111562001a585762001a57620074b7565b5b81526020016001600381111562001a745762001a73620074b7565b5b8152602001600060ff168152602001600060ff168152602001600060ff1681526020016000600581111562001aae5762001aad620074b7565b5b8152602001600060ff168152602001600060ff168152602001868152508152602001604051806102600160405280600015158152602001600015158152602001600015158152602001600015158152602001600115158152602001600060ff168152602001600060ff168152602001600060ff168152602001600060ff168152602001600060ff1681526020016000600481111562001b525762001b51620074b7565b5b81526020016000600381111562001b6e5762001b6d620074b7565b5b8152602001600060ff168152602001600060ff168152602001600060ff1681526020016000600581111562001ba85762001ba7620074b7565b5b8152602001600060ff168152602001600060ff1681526020018681525081525090806001815401808255809150506001900390600052602060002090600802016000909190919091506000820151816000015560208201518160010160006101000a81548160ff02191690831515021790555060408201518160010160016101000a81548160ff021916908360ff16021790555060608201518160010160026101000a81548160ff021916908360ff16021790555060808201518160020160008201518160000160006101000a81548160ff02191690831515021790555060208201518160000160016101000a81548160ff02191690831515021790555060408201518160000160026101000a81548160ff02191690831515021790555060608201518160000160036101000a81548160ff02191690831515021790555060808201518160000160046101000a81548160ff02191690831515021790555060a08201518160000160056101000a81548160ff021916908360ff16021790555060c08201518160000160066101000a81548160ff021916908360ff16021790555060e08201518160000160076101000a81548160ff021916908360ff1602179055506101008201518160000160086101000a81548160ff021916908360ff1602179055506101208201518160000160096101000a81548160ff021916908360ff16021790555061014082015181600001600a6101000a81548160ff0219169083600481111562001ddc5762001ddb620074b7565b5b021790555061016082015181600001600b6101000a81548160ff0219169083600381111562001e105762001e0f620074b7565b5b021790555061018082015181600001600c6101000a81548160ff021916908360ff1602179055506101a082015181600001600d6101000a81548160ff021916908360ff1602179055506101c082015181600001600e6101000a81548160ff021916908360ff1602179055506101e082015181600001600f6101000a81548160ff0219169083600581111562001eaa5762001ea9620074b7565b5b02179055506102008201518160000160106101000a81548160ff021916908360ff1602179055506102208201518160000160116101000a81548160ff021916908360ff1602179055506102408201518160010160008201518160000160006101000a81548160ff021916908360000b60ff16021790555060208201518160000160016101000a81548160ff021916908360000b60ff16021790555060408201518160000160026101000a81548160ff021916908360000b60ff16021790555060608201518160000160036101000a81548160ff021916908360000b60ff16021790555060808201518160000160046101000a81548160ff021916908360000b60ff16021790555060a08201518160000160056101000a81548160ff021916908360000b60ff16021790555060c08201518160000160066101000a81548160ff021916908360000b60ff1602179055505050505060a08201518160040160008201518160000160006101000a81548160ff02191690831515021790555060208201518160000160016101000a81548160ff02191690831515021790555060408201518160000160026101000a81548160ff02191690831515021790555060608201518160000160036101000a81548160ff02191690831515021790555060808201518160000160046101000a81548160ff02191690831515021790555060a08201518160000160056101000a81548160ff021916908360ff16021790555060c08201518160000160066101000a81548160ff021916908360ff16021790555060e08201518160000160076101000a81548160ff021916908360ff1602179055506101008201518160000160086101000a81548160ff021916908360ff1602179055506101208201518160000160096101000a81548160ff021916908360ff16021790555061014082015181600001600a6101000a81548160ff021916908360048111156200217c576200217b620074b7565b5b021790555061016082015181600001600b6101000a81548160ff02191690836003811115620021b057620021af620074b7565b5b021790555061018082015181600001600c6101000a81548160ff021916908360ff1602179055506101a082015181600001600d6101000a81548160ff021916908360ff1602179055506101c082015181600001600e6101000a81548160ff021916908360ff1602179055506101e082015181600001600f6101000a81548160ff021916908360058111156200224a5762002249620074b7565b5b02179055506102008201518160000160106101000a81548160ff021916908360ff1602179055506102208201518160000160116101000a81548160ff021916908360ff1602179055506102408201518160010160008201518160000160006101000a81548160ff021916908360000b60ff16021790555060208201518160000160016101000a81548160ff021916908360000b60ff16021790555060408201518160000160026101000a81548160ff021916908360000b60ff16021790555060608201518160000160036101000a81548160ff021916908360000b60ff16021790555060808201518160000160046101000a81548160ff021916908360000b60ff16021790555060a08201518160000160056101000a81548160ff021916908360000b60ff16021790555060c08201518160000160066101000a81548160ff021916908360000b60ff1602179055505050505060c08201518160060160008201518160000160006101000a81548160ff02191690831515021790555060208201518160000160016101000a81548160ff02191690831515021790555060408201518160000160026101000a81548160ff02191690831515021790555060608201518160000160036101000a81548160ff02191690831515021790555060808201518160000160046101000a81548160ff02191690831515021790555060a08201518160000160056101000a81548160ff021916908360ff16021790555060c08201518160000160066101000a81548160ff021916908360ff16021790555060e08201518160000160076101000a81548160ff021916908360ff1602179055506101008201518160000160086101000a81548160ff021916908360ff1602179055506101208201518160000160096101000a81548160ff021916908360ff16021790555061014082015181600001600a6101000a81548160ff021916908360048111156200251c576200251b620074b7565b5b021790555061016082015181600001600b6101000a81548160ff0219169083600381111562002550576200254f620074b7565b5b021790555061018082015181600001600c6101000a81548160ff021916908360ff1602179055506101a082015181600001600d6101000a81548160ff021916908360ff1602179055506101c082015181600001600e6101000a81548160ff021916908360ff1602179055506101e082015181600001600f6101000a81548160ff02191690836005811115620025ea57620025e9620074b7565b5b02179055506102008201518160000160106101000a81548160ff021916908360ff1602179055506102208201518160000160116101000a81548160ff021916908360ff1602179055506102408201518160010160008201518160000160006101000a81548160ff021916908360000b60ff16021790555060208201518160000160016101000a81548160ff021916908360000b60ff16021790555060408201518160000160026101000a81548160ff021916908360000b60ff16021790555060608201518160000160036101000a81548160ff021916908360000b60ff16021790555060808201518160000160046101000a81548160ff021916908360000b60ff16021790555060a08201518160000160056101000a81548160ff021916908360000b60ff16021790555060c08201518160000160066101000a81548160ff021916908360000b60ff16021790555050505050505060016040518060e0016040528062030d438152602001600015158152602001600060ff168152602001600060ff168152602001604051806102600160405280600015158152602001600015158152602001600015158152602001600015158152602001600015158152602001600060ff168152602001600060ff168152602001600060ff168152602001600060ff168152602001600360ff16815260200160036004811115620027f457620027f3620074b7565b5b81526020016001600381111562002810576200280f620074b7565b5b8152602001600060ff168152602001600060ff168152602001600060ff168152602001600060058111156200284a5762002849620074b7565b5b8152602001600060ff168152602001600060ff1681526020018681525081526020018381526020018381525090806001815401808255809150506001900390600052602060002090600802016000909190919091506000820151816000015560208201518160010160006101000a81548160ff02191690831515021790555060408201518160010160016101000a81548160ff021916908360ff16021790555060608201518160010160026101000a81548160ff021916908360ff16021790555060808201518160020160008201518160000160006101000a81548160ff02191690831515021790555060208201518160000160016101000a81548160ff02191690831515021790555060408201518160000160026101000a81548160ff02191690831515021790555060608201518160000160036101000a81548160ff02191690831515021790555060808201518160000160046101000a81548160ff02191690831515021790555060a08201518160000160056101000a81548160ff021916908360ff16021790555060c08201518160000160066101000a81548160ff021916908360ff16021790555060e08201518160000160076101000a81548160ff021916908360ff1602179055506101008201518160000160086101000a81548160ff021916908360ff1602179055506101208201518160000160096101000a81548160ff021916908360ff16021790555061014082015181600001600a6101000a81548160ff0219169083600481111562002a8a5762002a89620074b7565b5b021790555061016082015181600001600b6101000a81548160ff0219169083600381111562002abe5762002abd620074b7565b5b021790555061018082015181600001600c6101000a81548160ff021916908360ff1602179055506101a082015181600001600d6101000a81548160ff021916908360ff1602179055506101c082015181600001600e6101000a81548160ff021916908360ff1602179055506101e082015181600001600f6101000a81548160ff0219169083600581111562002b585762002b57620074b7565b5b02179055506102008201518160000160106101000a81548160ff021916908360ff1602179055506102208201518160000160116101000a81548160ff021916908360ff1602179055506102408201518160010160008201518160000160006101000a81548160ff021916908360000b60ff16021790555060208201518160000160016101000a81548160ff021916908360000b60ff16021790555060408201518160000160026101000a81548160ff021916908360000b60ff16021790555060608201518160000160036101000a81548160ff021916908360000b60ff16021790555060808201518160000160046101000a81548160ff021916908360000b60ff16021790555060a08201518160000160056101000a81548160ff021916908360000b60ff16021790555060c08201518160000160066101000a81548160ff021916908360000b60ff1602179055505050505060a08201518160040160008201518160000160006101000a81548160ff02191690831515021790555060208201518160000160016101000a81548160ff02191690831515021790555060408201518160000160026101000a81548160ff02191690831515021790555060608201518160000160036101000a81548160ff02191690831515021790555060808201518160000160046101000a81548160ff02191690831515021790555060a08201518160000160056101000a81548160ff021916908360ff16021790555060c08201518160000160066101000a81548160ff021916908360ff16021790555060e08201518160000160076101000a81548160ff021916908360ff1602179055506101008201518160000160086101000a81548160ff021916908360ff1602179055506101208201518160000160096101000a81548160ff021916908360ff16021790555061014082015181600001600a6101000a81548160ff0219169083600481111562002e2a5762002e29620074b7565b5b021790555061016082015181600001600b6101000a81548160ff0219169083600381111562002e5e5762002e5d620074b7565b5b021790555061018082015181600001600c6101000a81548160ff021916908360ff1602179055506101a082015181600001600d6101000a81548160ff021916908360ff1602179055506101c082015181600001600e6101000a81548160ff021916908360ff1602179055506101e082015181600001600f6101000a81548160ff0219169083600581111562002ef85762002ef7620074b7565b5b02179055506102008201518160000160106101000a81548160ff021916908360ff1602179055506102208201518160000160116101000a81548160ff021916908360ff1602179055506102408201518160010160008201518160000160006101000a81548160ff021916908360000b60ff16021790555060208201518160000160016101000a81548160ff021916908360000b60ff16021790555060408201518160000160026101000a81548160ff021916908360000b60ff16021790555060608201518160000160036101000a81548160ff021916908360000b60ff16021790555060808201518160000160046101000a81548160ff021916908360000b60ff16021790555060a08201518160000160056101000a81548160ff021916908360000b60ff16021790555060c08201518160000160066101000a81548160ff021916908360000b60ff1602179055505050505060c08201518160060160008201518160000160006101000a81548160ff02191690831515021790555060208201518160000160016101000a81548160ff02191690831515021790555060408201518160000160026101000a81548160ff02191690831515021790555060608201518160000160036101000a81548160ff02191690831515021790555060808201518160000160046101000a81548160ff02191690831515021790555060a08201518160000160056101000a81548160ff021916908360ff16021790555060c08201518160000160066101000a81548160ff021916908360ff16021790555060e08201518160000160076101000a81548160ff021916908360ff1602179055506101008201518160000160086101000a81548160ff021916908360ff1602179055506101208201518160000160096101000a81548160ff021916908360ff16021790555061014082015181600001600a6101000a81548160ff02191690836004811115620031ca57620031c9620074b7565b5b021790555061016082015181600001600b6101000a81548160ff02191690836003811115620031fe57620031fd620074b7565b5b021790555061018082015181600001600c6101000a81548160ff021916908360ff1602179055506101a082015181600001600d6101000a81548160ff021916908360ff1602179055506101c082015181600001600e6101000a81548160ff021916908360ff1602179055506101e082015181600001600f6101000a81548160ff02191690836005811115620032985762003297620074b7565b5b02179055506102008201518160000160106101000a81548160ff021916908360ff1602179055506102208201518160000160116101000a81548160ff021916908360ff1602179055506102408201518160010160008201518160000160006101000a81548160ff021916908360000b60ff16021790555060208201518160000160016101000a81548160ff021916908360000b60ff16021790555060408201518160000160026101000a81548160ff021916908360000b60ff16021790555060608201518160000160036101000a81548160ff021916908360000b60ff16021790555060808201518160000160046101000a81548160ff021916908360000b60ff16021790555060a08201518160000160056101000a81548160ff021916908360000b60ff16021790555060c08201518160000160066101000a81548160ff021916908360000b60ff16021790555050505050505060016040518060e0016040528062030d448152602001600115158152602001600060ff168152602001600060ff168152602001604051806102600160405280600015158152602001600015158152602001600015158152602001600015158152602001600015158152602001600060ff168152602001600060ff168152602001600060ff168152602001600060ff168152602001600060ff16815260200160006004811115620034a257620034a1620074b7565b5b815260200160006003811115620034be57620034bd620074b7565b5b8152602001600060ff168152602001600060ff168152602001600060ff168152602001600580811115620034f757620034f6620074b7565b5b8152602001600060ff168152602001600060ff1681526020018681525081526020018381526020018381525090806001815401808255809150506001900390600052602060002090600802016000909190919091506000820151816000015560208201518160010160006101000a81548160ff02191690831515021790555060408201518160010160016101000a81548160ff021916908360ff16021790555060608201518160010160026101000a81548160ff021916908360ff16021790555060808201518160020160008201518160000160006101000a81548160ff02191690831515021790555060208201518160000160016101000a81548160ff02191690831515021790555060408201518160000160026101000a81548160ff02191690831515021790555060608201518160000160036101000a81548160ff02191690831515021790555060808201518160000160046101000a81548160ff02191690831515021790555060a08201518160000160056101000a81548160ff021916908360ff16021790555060c08201518160000160066101000a81548160ff021916908360ff16021790555060e08201518160000160076101000a81548160ff021916908360ff1602179055506101008201518160000160086101000a81548160ff021916908360ff1602179055506101208201518160000160096101000a81548160ff021916908360ff16021790555061014082015181600001600a6101000a81548160ff02191690836004811115620037375762003736620074b7565b5b021790555061016082015181600001600b6101000a81548160ff021916908360038111156200376b576200376a620074b7565b5b021790555061018082015181600001600c6101000a81548160ff021916908360ff1602179055506101a082015181600001600d6101000a81548160ff021916908360ff1602179055506101c082015181600001600e6101000a81548160ff021916908360ff1602179055506101e082015181600001600f6101000a81548160ff02191690836005811115620038055762003804620074b7565b5b02179055506102008201518160000160106101000a81548160ff021916908360ff1602179055506102208201518160000160116101000a81548160ff021916908360ff1602179055506102408201518160010160008201518160000160006101000a81548160ff021916908360000b60ff16021790555060208201518160000160016101000a81548160ff021916908360000b60ff16021790555060408201518160000160026101000a81548160ff021916908360000b60ff16021790555060608201518160000160036101000a81548160ff021916908360000b60ff16021790555060808201518160000160046101000a81548160ff021916908360000b60ff16021790555060a08201518160000160056101000a81548160ff021916908360000b60ff16021790555060c08201518160000160066101000a81548160ff021916908360000b60ff1602179055505050505060a08201518160040160008201518160000160006101000a81548160ff02191690831515021790555060208201518160000160016101000a81548160ff02191690831515021790555060408201518160000160026101000a81548160ff02191690831515021790555060608201518160000160036101000a81548160ff02191690831515021790555060808201518160000160046101000a81548160ff02191690831515021790555060a08201518160000160056101000a81548160ff021916908360ff16021790555060c08201518160000160066101000a81548160ff021916908360ff16021790555060e08201518160000160076101000a81548160ff021916908360ff1602179055506101008201518160000160086101000a81548160ff021916908360ff1602179055506101208201518160000160096101000a81548160ff021916908360ff16021790555061014082015181600001600a6101000a81548160ff0219169083600481111562003ad75762003ad6620074b7565b5b021790555061016082015181600001600b6101000a81548160ff0219169083600381111562003b0b5762003b0a620074b7565b5b021790555061018082015181600001600c6101000a81548160ff021916908360ff1602179055506101a082015181600001600d6101000a81548160ff021916908360ff1602179055506101c082015181600001600e6101000a81548160ff021916908360ff1602179055506101e082015181600001600f6101000a81548160ff0219169083600581111562003ba55762003ba4620074b7565b5b02179055506102008201518160000160106101000a81548160ff021916908360ff1602179055506102208201518160000160116101000a81548160ff021916908360ff1602179055506102408201518160010160008201518160000160006101000a81548160ff021916908360000b60ff16021790555060208201518160000160016101000a81548160ff021916908360000b60ff16021790555060408201518160000160026101000a81548160ff021916908360000b60ff16021790555060608201518160000160036101000a81548160ff021916908360000b60ff16021790555060808201518160000160046101000a81548160ff021916908360000b60ff16021790555060a08201518160000160056101000a81548160ff021916908360000b60ff16021790555060c08201518160000160066101000a81548160ff021916908360000b60ff1602179055505050505060c08201518160060160008201518160000160006101000a81548160ff02191690831515021790555060208201518160000160016101000a81548160ff02191690831515021790555060408201518160000160026101000a81548160ff02191690831515021790555060608201518160000160036101000a81548160ff02191690831515021790555060808201518160000160046101000a81548160ff02191690831515021790555060a08201518160000160056101000a81548160ff021916908360ff16021790555060c08201518160000160066101000a81548160ff021916908360ff16021790555060e08201518160000160076101000a81548160ff021916908360ff1602179055506101008201518160000160086101000a81548160ff021916908360ff1602179055506101208201518160000160096101000a81548160ff021916908360ff16021790555061014082015181600001600a6101000a81548160ff0219169083600481111562003e775762003e76620074b7565b5b021790555061016082015181600001600b6101000a81548160ff0219169083600381111562003eab5762003eaa620074b7565b5b021790555061018082015181600001600c6101000a81548160ff021916908360ff1602179055506101a082015181600001600d6101000a81548160ff021916908360ff1602179055506101c082015181600001600e6101000a81548160ff021916908360ff1602179055506101e082015181600001600f6101000a81548160ff0219169083600581111562003f455762003f44620074b7565b5b02179055506102008201518160000160106101000a81548160ff021916908360ff1602179055506102208201518160000160116101000a81548160ff021916908360ff1602179055506102408201518160010160008201518160000160006101000a81548160ff021916908360000b60ff16021790555060208201518160000160016101000a81548160ff021916908360000b60ff16021790555060408201518160000160026101000a81548160ff021916908360000b60ff16021790555060608201518160000160036101000a81548160ff021916908360000b60ff16021790555060808201518160000160046101000a81548160ff021916908360000b60ff16021790555060a08201518160000160056101000a81548160ff021916908360000b60ff16021790555060c08201518160000160066101000a81548160ff021916908360000b60ff16021790555050505050505060016040518060e0016040528062030d458152602001600015158152602001600160ff168152602001600060ff168152602001604051806102600160405280600015158152602001600015158152602001600015158152602001600115158152602001600015158152602001600060ff168152602001600060ff168152602001600060ff168152602001600060ff168152602001600060ff168152602001600060048111156200414f576200414e620074b7565b5b8152602001600060038111156200416b576200416a620074b7565b5b8152602001600060ff168152602001600060ff168152602001600060ff16815260200160006005811115620041a557620041a4620074b7565b5b8152602001600060ff168152602001600060ff168152602001868152508152602001604051806102600160405280600015158152602001600015158152602001600115158152602001600115158152602001600015158152602001600060ff168152602001600060ff168152602001600060ff168152602001600060ff168152602001600060ff16815260200160006004811115620042495762004248620074b7565b5b815260200160006003811115620042655762004264620074b7565b5b8152602001600060ff168152602001600060ff16815260200160ff80168152602001600060058111156200429e576200429d620074b7565b5b8152602001600060ff168152602001600060ff1681526020018681525081526020018381525090806001815401808255809150506001900390600052602060002090600802016000909190919091506000820151816000015560208201518160010160006101000a81548160ff02191690831515021790555060408201518160010160016101000a81548160ff021916908360ff16021790555060608201518160010160026101000a81548160ff021916908360ff16021790555060808201518160020160008201518160000160006101000a81548160ff02191690831515021790555060208201518160000160016101000a81548160ff02191690831515021790555060408201518160000160026101000a81548160ff02191690831515021790555060608201518160000160036101000a81548160ff02191690831515021790555060808201518160000160046101000a81548160ff02191690831515021790555060a08201518160000160056101000a81548160ff021916908360ff16021790555060c08201518160000160066101000a81548160ff021916908360ff16021790555060e08201518160000160076101000a81548160ff021916908360ff1602179055506101008201518160000160086101000a81548160ff021916908360ff1602179055506101208201518160000160096101000a81548160ff021916908360ff16021790555061014082015181600001600a6101000a81548160ff02191690836004811115620044d857620044d7620074b7565b5b021790555061016082015181600001600b6101000a81548160ff021916908360038111156200450c576200450b620074b7565b5b021790555061018082015181600001600c6101000a81548160ff021916908360ff1602179055506101a082015181600001600d6101000a81548160ff021916908360ff1602179055506101c082015181600001600e6101000a81548160ff021916908360ff1602179055506101e082015181600001600f6101000a81548160ff02191690836005811115620045a657620045a5620074b7565b5b02179055506102008201518160000160106101000a81548160ff021916908360ff1602179055506102208201518160000160116101000a81548160ff021916908360ff1602179055506102408201518160010160008201518160000160006101000a81548160ff021916908360000b60ff16021790555060208201518160000160016101000a81548160ff021916908360000b60ff16021790555060408201518160000160026101000a81548160ff021916908360000b60ff16021790555060608201518160000160036101000a81548160ff021916908360000b60ff16021790555060808201518160000160046101000a81548160ff021916908360000b60ff16021790555060a08201518160000160056101000a81548160ff021916908360000b60ff16021790555060c08201518160000160066101000a81548160ff021916908360000b60ff1602179055505050505060a08201518160040160008201518160000160006101000a81548160ff02191690831515021790555060208201518160000160016101000a81548160ff02191690831515021790555060408201518160000160026101000a81548160ff02191690831515021790555060608201518160000160036101000a81548160ff02191690831515021790555060808201518160000160046101000a81548160ff02191690831515021790555060a08201518160000160056101000a81548160ff021916908360ff16021790555060c08201518160000160066101000a81548160ff021916908360ff16021790555060e08201518160000160076101000a81548160ff021916908360ff1602179055506101008201518160000160086101000a81548160ff021916908360ff1602179055506101208201518160000160096101000a81548160ff021916908360ff16021790555061014082015181600001600a6101000a81548160ff02191690836004811115620048785762004877620074b7565b5b021790555061016082015181600001600b6101000a81548160ff02191690836003811115620048ac57620048ab620074b7565b5b021790555061018082015181600001600c6101000a81548160ff021916908360ff1602179055506101a082015181600001600d6101000a81548160ff021916908360ff1602179055506101c082015181600001600e6101000a81548160ff021916908360ff1602179055506101e082015181600001600f6101000a81548160ff02191690836005811115620049465762004945620074b7565b5b02179055506102008201518160000160106101000a81548160ff021916908360ff1602179055506102208201518160000160116101000a81548160ff021916908360ff1602179055506102408201518160010160008201518160000160006101000a81548160ff021916908360000b60ff16021790555060208201518160000160016101000a81548160ff021916908360000b60ff16021790555060408201518160000160026101000a81548160ff021916908360000b60ff16021790555060608201518160000160036101000a81548160ff021916908360000b60ff16021790555060808201518160000160046101000a81548160ff021916908360000b60ff16021790555060a08201518160000160056101000a81548160ff021916908360000b60ff16021790555060c08201518160000160066101000a81548160ff021916908360000b60ff1602179055505050505060c08201518160060160008201518160000160006101000a81548160ff02191690831515021790555060208201518160000160016101000a81548160ff02191690831515021790555060408201518160000160026101000a81548160ff02191690831515021790555060608201518160000160036101000a81548160ff02191690831515021790555060808201518160000160046101000a81548160ff02191690831515021790555060a08201518160000160056101000a81548160ff021916908360ff16021790555060c08201518160000160066101000a81548160ff021916908360ff16021790555060e08201518160000160076101000a81548160ff021916908360ff1602179055506101008201518160000160086101000a81548160ff021916908360ff1602179055506101208201518160000160096101000a81548160ff021916908360ff16021790555061014082015181600001600a6101000a81548160ff0219169083600481111562004c185762004c17620074b7565b5b021790555061016082015181600001600b6101000a81548160ff0219169083600381111562004c4c5762004c4b620074b7565b5b021790555061018082015181600001600c6101000a81548160ff021916908360ff1602179055506101a082015181600001600d6101000a81548160ff021916908360ff1602179055506101c082015181600001600e6101000a81548160ff021916908360ff1602179055506101e082015181600001600f6101000a81548160ff0219169083600581111562004ce65762004ce5620074b7565b5b02179055506102008201518160000160106101000a81548160ff021916908360ff1602179055506102208201518160000160116101000a81548160ff021916908360ff1602179055506102408201518160010160008201518160000160006101000a81548160ff021916908360000b60ff16021790555060208201518160000160016101000a81548160ff021916908360000b60ff16021790555060408201518160000160026101000a81548160ff021916908360000b60ff16021790555060608201518160000160036101000a81548160ff021916908360000b60ff16021790555060808201518160000160046101000a81548160ff021916908360000b60ff16021790555060a08201518160000160056101000a81548160ff021916908360000b60ff16021790555060c08201518160000160066101000a81548160ff021916908360000b60ff16021790555050505050505060016040518060e0016040528062030d468152602001600115158152602001600060ff168152602001600060ff168152602001604051806102600160405280600015158152602001600115158152602001600015158152602001600015158152602001600015158152602001600160ff168152602001600060ff168152602001600060ff168152602001600060ff168152602001600060ff1681526020016000600481111562004ef05762004eef620074b7565b5b81526020016000600381111562004f0c5762004f0b620074b7565b5b8152602001600060ff168152602001600060ff168152602001600060ff1681526020016000600581111562004f465762004f45620074b7565b5b8152602001600060ff168152602001600060ff1681526020018681525081526020018381526020018381525090806001815401808255809150506001900390600052602060002090600802016000909190919091506000820151816000015560208201518160010160006101000a81548160ff02191690831515021790555060408201518160010160016101000a81548160ff021916908360ff16021790555060608201518160010160026101000a81548160ff021916908360ff16021790555060808201518160020160008201518160000160006101000a81548160ff02191690831515021790555060208201518160000160016101000a81548160ff02191690831515021790555060408201518160000160026101000a81548160ff02191690831515021790555060608201518160000160036101000a81548160ff02191690831515021790555060808201518160000160046101000a81548160ff02191690831515021790555060a08201518160000160056101000a81548160ff021916908360ff16021790555060c08201518160000160066101000a81548160ff021916908360ff16021790555060e08201518160000160076101000a81548160ff021916908360ff1602179055506101008201518160000160086101000a81548160ff021916908360ff1602179055506101208201518160000160096101000a81548160ff021916908360ff16021790555061014082015181600001600a6101000a81548160ff02191690836004811115620051865762005185620074b7565b5b021790555061016082015181600001600b6101000a81548160ff02191690836003811115620051ba57620051b9620074b7565b5b021790555061018082015181600001600c6101000a81548160ff021916908360ff1602179055506101a082015181600001600d6101000a81548160ff021916908360ff1602179055506101c082015181600001600e6101000a81548160ff021916908360ff1602179055506101e082015181600001600f6101000a81548160ff02191690836005811115620052545762005253620074b7565b5b02179055506102008201518160000160106101000a81548160ff021916908360ff1602179055506102208201518160000160116101000a81548160ff021916908360ff1602179055506102408201518160010160008201518160000160006101000a81548160ff021916908360000b60ff16021790555060208201518160000160016101000a81548160ff021916908360000b60ff16021790555060408201518160000160026101000a81548160ff021916908360000b60ff16021790555060608201518160000160036101000a81548160ff021916908360000b60ff16021790555060808201518160000160046101000a81548160ff021916908360000b60ff16021790555060a08201518160000160056101000a81548160ff021916908360000b60ff16021790555060c08201518160000160066101000a81548160ff021916908360000b60ff1602179055505050505060a08201518160040160008201518160000160006101000a81548160ff02191690831515021790555060208201518160000160016101000a81548160ff02191690831515021790555060408201518160000160026101000a81548160ff02191690831515021790555060608201518160000160036101000a81548160ff02191690831515021790555060808201518160000160046101000a81548160ff02191690831515021790555060a08201518160000160056101000a81548160ff021916908360ff16021790555060c08201518160000160066101000a81548160ff021916908360ff16021790555060e08201518160000160076101000a81548160ff021916908360ff1602179055506101008201518160000160086101000a81548160ff021916908360ff1602179055506101208201518160000160096101000a81548160ff021916908360ff16021790555061014082015181600001600a6101000a81548160ff02191690836004811115620055265762005525620074b7565b5b021790555061016082015181600001600b6101000a81548160ff021916908360038111156200555a5762005559620074b7565b5b021790555061018082015181600001600c6101000a81548160ff021916908360ff1602179055506101a082015181600001600d6101000a81548160ff021916908360ff1602179055506101c082015181600001600e6101000a81548160ff021916908360ff1602179055506101e082015181600001600f6101000a81548160ff02191690836005811115620055f457620055f3620074b7565b5b02179055506102008201518160000160106101000a81548160ff021916908360ff1602179055506102208201518160000160116101000a81548160ff021916908360ff1602179055506102408201518160010160008201518160000160006101000a81548160ff021916908360000b60ff16021790555060208201518160000160016101000a81548160ff021916908360000b60ff16021790555060408201518160000160026101000a81548160ff021916908360000b60ff16021790555060608201518160000160036101000a81548160ff021916908360000b60ff16021790555060808201518160000160046101000a81548160ff021916908360000b60ff16021790555060a08201518160000160056101000a81548160ff021916908360000b60ff16021790555060c08201518160000160066101000a81548160ff021916908360000b60ff1602179055505050505060c08201518160060160008201518160000160006101000a81548160ff02191690831515021790555060208201518160000160016101000a81548160ff02191690831515021790555060408201518160000160026101000a81548160ff02191690831515021790555060608201518160000160036101000a81548160ff02191690831515021790555060808201518160000160046101000a81548160ff02191690831515021790555060a08201518160000160056101000a81548160ff021916908360ff16021790555060c08201518160000160066101000a81548160ff021916908360ff16021790555060e08201518160000160076101000a81548160ff021916908360ff1602179055506101008201518160000160086101000a81548160ff021916908360ff1602179055506101208201518160000160096101000a81548160ff021916908360ff16021790555061014082015181600001600a6101000a81548160ff02191690836004811115620058c657620058c5620074b7565b5b021790555061016082015181600001600b6101000a81548160ff02191690836003811115620058fa57620058f9620074b7565b5b021790555061018082015181600001600c6101000a81548160ff021916908360ff1602179055506101a082015181600001600d6101000a81548160ff021916908360ff1602179055506101c082015181600001600e6101000a81548160ff021916908360ff1602179055506101e082015181600001600f6101000a81548160ff02191690836005811115620059945762005993620074b7565b5b02179055506102008201518160000160106101000a81548160ff021916908360ff1602179055506102208201518160000160116101000a81548160ff021916908360ff1602179055506102408201518160010160008201518160000160006101000a81548160ff021916908360000b60ff16021790555060208201518160000160016101000a81548160ff021916908360000b60ff16021790555060408201518160000160026101000a81548160ff021916908360000b60ff16021790555060608201518160000160036101000a81548160ff021916908360000b60ff16021790555060808201518160000160046101000a81548160ff021916908360000b60ff16021790555060a08201518160000160056101000a81548160ff021916908360000b60ff16021790555060c08201518160000160066101000a81548160ff021916908360000b60ff16021790555050505050505060016040518060e0016040528062030d478152602001600015158152602001600060ff168152602001600060ff168152602001604051806102600160405280600015158152602001600015158152602001600015158152602001600015158152602001600015158152602001600060ff168152602001600060ff168152602001600160ff168152602001600060ff168152602001600060ff1681526020016000600481111562005b9e5762005b9d620074b7565b5b81526020016000600381111562005bba5762005bb9620074b7565b5b8152602001600060ff168152602001600060ff168152602001600060ff1681526020016000600581111562005bf45762005bf3620074b7565b5b8152602001600060ff168152602001600060ff1681526020018681525081526020018381526020018381525090806001815401808255809150506001900390600052602060002090600802016000909190919091506000820151816000015560208201518160010160006101000a81548160ff02191690831515021790555060408201518160010160016101000a81548160ff021916908360ff16021790555060608201518160010160026101000a81548160ff021916908360ff16021790555060808201518160020160008201518160000160006101000a81548160ff02191690831515021790555060208201518160000160016101000a81548160ff02191690831515021790555060408201518160000160026101000a81548160ff02191690831515021790555060608201518160000160036101000a81548160ff02191690831515021790555060808201518160000160046101000a81548160ff02191690831515021790555060a08201518160000160056101000a81548160ff021916908360ff16021790555060c08201518160000160066101000a81548160ff021916908360ff16021790555060e08201518160000160076101000a81548160ff021916908360ff1602179055506101008201518160000160086101000a81548160ff021916908360ff1602179055506101208201518160000160096101000a81548160ff021916908360ff16021790555061014082015181600001600a6101000a81548160ff0219169083600481111562005e345762005e33620074b7565b5b021790555061016082015181600001600b6101000a81548160ff0219169083600381111562005e685762005e67620074b7565b5b021790555061018082015181600001600c6101000a81548160ff021916908360ff1602179055506101a082015181600001600d6101000a81548160ff021916908360ff1602179055506101c082015181600001600e6101000a81548160ff021916908360ff1602179055506101e082015181600001600f6101000a81548160ff0219169083600581111562005f025762005f01620074b7565b5b02179055506102008201518160000160106101000a81548160ff021916908360ff1602179055506102208201518160000160116101000a81548160ff021916908360ff1602179055506102408201518160010160008201518160000160006101000a81548160ff021916908360000b60ff16021790555060208201518160000160016101000a81548160ff021916908360000b60ff16021790555060408201518160000160026101000a81548160ff021916908360000b60ff16021790555060608201518160000160036101000a81548160ff021916908360000b60ff16021790555060808201518160000160046101000a81548160ff021916908360000b60ff16021790555060a08201518160000160056101000a81548160ff021916908360000b60ff16021790555060c08201518160000160066101000a81548160ff021916908360000b60ff1602179055505050505060a08201518160040160008201518160000160006101000a81548160ff02191690831515021790555060208201518160000160016101000a81548160ff02191690831515021790555060408201518160000160026101000a81548160ff02191690831515021790555060608201518160000160036101000a81548160ff02191690831515021790555060808201518160000160046101000a81548160ff02191690831515021790555060a08201518160000160056101000a81548160ff021916908360ff16021790555060c08201518160000160066101000a81548160ff021916908360ff16021790555060e08201518160000160076101000a81548160ff021916908360ff1602179055506101008201518160000160086101000a81548160ff021916908360ff1602179055506101208201518160000160096101000a81548160ff021916908360ff16021790555061014082015181600001600a6101000a81548160ff02191690836004811115620061d457620061d3620074b7565b5b021790555061016082015181600001600b6101000a81548160ff02191690836003811115620062085762006207620074b7565b5b021790555061018082015181600001600c6101000a81548160ff021916908360ff1602179055506101a082015181600001600d6101000a81548160ff021916908360ff1602179055506101c082015181600001600e6101000a81548160ff021916908360ff1602179055506101e082015181600001600f6101000a81548160ff02191690836005811115620062a257620062a1620074b7565b5b02179055506102008201518160000160106101000a81548160ff021916908360ff1602179055506102208201518160000160116101000a81548160ff021916908360ff1602179055506102408201518160010160008201518160000160006101000a81548160ff021916908360000b60ff16021790555060208201518160000160016101000a81548160ff021916908360000b60ff16021790555060408201518160000160026101000a81548160ff021916908360000b60ff16021790555060608201518160000160036101000a81548160ff021916908360000b60ff16021790555060808201518160000160046101000a81548160ff021916908360000b60ff16021790555060a08201518160000160056101000a81548160ff021916908360000b60ff16021790555060c08201518160000160066101000a81548160ff021916908360000b60ff1602179055505050505060c08201518160060160008201518160000160006101000a81548160ff02191690831515021790555060208201518160000160016101000a81548160ff02191690831515021790555060408201518160000160026101000a81548160ff02191690831515021790555060608201518160000160036101000a81548160ff02191690831515021790555060808201518160000160046101000a81548160ff02191690831515021790555060a08201518160000160056101000a81548160ff021916908360ff16021790555060c08201518160000160066101000a81548160ff021916908360ff16021790555060e08201518160000160076101000a81548160ff021916908360ff1602179055506101008201518160000160086101000a81548160ff021916908360ff1602179055506101208201518160000160096101000a81548160ff021916908360ff16021790555061014082015181600001600a6101000a81548160ff02191690836004811115620065745762006573620074b7565b5b021790555061016082015181600001600b6101000a81548160ff02191690836003811115620065a857620065a7620074b7565b5b021790555061018082015181600001600c6101000a81548160ff021916908360ff1602179055506101a082015181600001600d6101000a81548160ff021916908360ff1602179055506101c082015181600001600e6101000a81548160ff021916908360ff1602179055506101e082015181600001600f6101000a81548160ff02191690836005811115620066425762006641620074b7565b5b02179055506102008201518160000160106101000a81548160ff021916908360ff1602179055506102208201518160000160116101000a81548160ff021916908360ff1602179055506102408201518160010160008201518160000160006101000a81548160ff021916908360000b60ff16021790555060208201518160000160016101000a81548160ff021916908360000b60ff16021790555060408201518160000160026101000a81548160ff021916908360000b60ff16021790555060608201518160000160036101000a81548160ff021916908360000b60ff16021790555060808201518160000160046101000a81548160ff021916908360000b60ff16021790555060a08201518160000160056101000a81548160ff021916908360000b60ff16021790555060c08201518160000160066101000a81548160ff021916908360000b60ff1602179055505050505050505050565b620067a56200736b565b620067af620073b6565b60016040518060e0016040528060008152602001600015158152602001600060ff168152602001600060ff1681526020018381526020018381526020018381525090806001815401808255809150506001900390600052602060002090600802016000909190919091506000820151816000015560208201518160010160006101000a81548160ff02191690831515021790555060408201518160010160016101000a81548160ff021916908360ff16021790555060608201518160010160026101000a81548160ff021916908360ff16021790555060808201518160020160008201518160000160006101000a81548160ff02191690831515021790555060208201518160000160016101000a81548160ff02191690831515021790555060408201518160000160026101000a81548160ff02191690831515021790555060608201518160000160036101000a81548160ff02191690831515021790555060808201518160000160046101000a81548160ff02191690831515021790555060a08201518160000160056101000a81548160ff021916908360ff16021790555060c08201518160000160066101000a81548160ff021916908360ff16021790555060e08201518160000160076101000a81548160ff021916908360ff1602179055506101008201518160000160086101000a81548160ff021916908360ff1602179055506101208201518160000160096101000a81548160ff021916908360ff16021790555061014082015181600001600a6101000a81548160ff0219169083600481111562006a045762006a03620074b7565b5b021790555061016082015181600001600b6101000a81548160ff0219169083600381111562006a385762006a37620074b7565b5b021790555061018082015181600001600c6101000a81548160ff021916908360ff1602179055506101a082015181600001600d6101000a81548160ff021916908360ff1602179055506101c082015181600001600e6101000a81548160ff021916908360ff1602179055506101e082015181600001600f6101000a81548160ff0219169083600581111562006ad25762006ad1620074b7565b5b02179055506102008201518160000160106101000a81548160ff021916908360ff1602179055506102208201518160000160116101000a81548160ff021916908360ff1602179055506102408201518160010160008201518160000160006101000a81548160ff021916908360000b60ff16021790555060208201518160000160016101000a81548160ff021916908360000b60ff16021790555060408201518160000160026101000a81548160ff021916908360000b60ff16021790555060608201518160000160036101000a81548160ff021916908360000b60ff16021790555060808201518160000160046101000a81548160ff021916908360000b60ff16021790555060a08201518160000160056101000a81548160ff021916908360000b60ff16021790555060c08201518160000160066101000a81548160ff021916908360000b60ff1602179055505050505060a08201518160040160008201518160000160006101000a81548160ff02191690831515021790555060208201518160000160016101000a81548160ff02191690831515021790555060408201518160000160026101000a81548160ff02191690831515021790555060608201518160000160036101000a81548160ff02191690831515021790555060808201518160000160046101000a81548160ff02191690831515021790555060a08201518160000160056101000a81548160ff021916908360ff16021790555060c08201518160000160066101000a81548160ff021916908360ff16021790555060e08201518160000160076101000a81548160ff021916908360ff1602179055506101008201518160000160086101000a81548160ff021916908360ff1602179055506101208201518160000160096101000a81548160ff021916908360ff16021790555061014082015181600001600a6101000a81548160ff0219169083600481111562006da45762006da3620074b7565b5b021790555061016082015181600001600b6101000a81548160ff0219169083600381111562006dd85762006dd7620074b7565b5b021790555061018082015181600001600c6101000a81548160ff021916908360ff1602179055506101a082015181600001600d6101000a81548160ff021916908360ff1602179055506101c082015181600001600e6101000a81548160ff021916908360ff1602179055506101e082015181600001600f6101000a81548160ff0219169083600581111562006e725762006e71620074b7565b5b02179055506102008201518160000160106101000a81548160ff021916908360ff1602179055506102208201518160000160116101000a81548160ff021916908360ff1602179055506102408201518160010160008201518160000160006101000a81548160ff021916908360000b60ff16021790555060208201518160000160016101000a81548160ff021916908360000b60ff16021790555060408201518160000160026101000a81548160ff021916908360000b60ff16021790555060608201518160000160036101000a81548160ff021916908360000b60ff16021790555060808201518160000160046101000a81548160ff021916908360000b60ff16021790555060a08201518160000160056101000a81548160ff021916908360000b60ff16021790555060c08201518160000160066101000a81548160ff021916908360000b60ff1602179055505050505060c08201518160060160008201518160000160006101000a81548160ff02191690831515021790555060208201518160000160016101000a81548160ff02191690831515021790555060408201518160000160026101000a81548160ff02191690831515021790555060608201518160000160036101000a81548160ff02191690831515021790555060808201518160000160046101000a81548160ff02191690831515021790555060a08201518160000160056101000a81548160ff021916908360ff16021790555060c08201518160000160066101000a81548160ff021916908360ff16021790555060e08201518160000160076101000a81548160ff021916908360ff1602179055506101008201518160000160086101000a81548160ff021916908360ff1602179055506101208201518160000160096101000a81548160ff021916908360ff16021790555061014082015181600001600a6101000a81548160ff02191690836004811115620071445762007143620074b7565b5b021790555061016082015181600001600b6101000a81548160ff02191690836003811115620071785762007177620074b7565b5b021790555061018082015181600001600c6101000a81548160ff021916908360ff1602179055506101a082015181600001600d6101000a81548160ff021916908360ff1602179055506101c082015181600001600e6101000a81548160ff021916908360ff1602179055506101e082015181600001600f6101000a81548160ff02191690836005811115620072125762007211620074b7565b5b02179055506102008201518160000160106101000a81548160ff021916908360ff1602179055506102208201518160000160116101000a81548160ff021916908360ff1602179055506102408201518160010160008201518160000160006101000a81548160ff021916908360000b60ff16021790555060208201518160000160016101000a81548160ff021916908360000b60ff16021790555060408201518160000160026101000a81548160ff021916908360000b60ff16021790555060608201518160000160036101000a81548160ff021916908360000b60ff16021790555060808201518160000160046101000a81548160ff021916908360000b60ff16021790555060a08201518160000160056101000a81548160ff021916908360000b60ff16021790555060c08201518160000160066101000a81548160ff021916908360000b60ff1602179055505050505050505050565b6040518060e001604052806000800b81526020016000800b81526020016000800b81526020016000800b81526020016000800b81526020016000800b81526020016000800b81525090565b604051806102600160405280600015158152602001600015158152602001600015158152602001600015158152602001600015158152602001600060ff168152602001600060ff168152602001600060ff168152602001600060ff168152602001600060ff16815260200160006004811115620074385762007437620074b7565b5b815260200160006003811115620074545762007453620074b7565b5b8152602001600060ff168152602001600060ff168152602001600060ff168152602001600060058111156200748e576200748d620074b7565b5b8152602001600060ff168152602001600060ff168152602001620074b16200736b565b81525090565b7f4e487b7100000000000000000000000000000000000000000000000000000000600052602160045260246000fd5b61495880620074f66000396000f3fe608060405234801561001057600080fd5b50600436106100935760003560e01c80639dfc9282116100665780639dfc928214610126578063a49ac4111461015c578063c82c37b91461018c578063d29f9698146101bc578063f2fde38b146101ec57610093565b806345412253146100985780636e9ed8cf146100ce578063715018a6146100fe5780638da5cb5b14610108575b600080fd5b6100b260048036038101906100ad9190613dd8565b610208565b6040516100c597969594939291906141a3565b60405180910390f35b6100e860048036038101906100e39190613dd8565b610c4d565b6040516100f5919061443e565b60405180910390f35b6101066116d2565b005b6101106116e6565b60405161011d919061449b565b60405180910390f35b610140600480360381019061013b9190613dd8565b61170f565b60405161015397969594939291906141a3565b60405180910390f35b610176600480360381019061017191906144e2565b612154565b60405161018391906145d2565b60405180910390f35b6101a660048036038101906101a19190613dd8565b612c48565b6040516101b3919061443e565b60405180910390f35b6101d660048036038101906101d191906145f4565b6136cd565b6040516101e391906146d5565b60405180910390f35b6102066004803603810190610201919061471c565b613a37565b005b6001818154811061021857600080fd5b90600052602060002090600802016000915090508060000154908060010160009054906101000a900460ff16908060010160019054906101000a900460ff16908060010160029054906101000a900460ff169080600201604051806102600160405290816000820160009054906101000a900460ff161515151581526020016000820160019054906101000a900460ff161515151581526020016000820160029054906101000a900460ff161515151581526020016000820160039054906101000a900460ff161515151581526020016000820160049054906101000a900460ff161515151581526020016000820160059054906101000a900460ff1660ff1660ff1681526020016000820160069054906101000a900460ff1660ff1660ff1681526020016000820160079054906101000a900460ff1660ff1660ff1681526020016000820160089054906101000a900460ff1660ff1660ff1681526020016000820160099054906101000a900460ff1660ff1660ff16815260200160008201600a9054906101000a900460ff1660048111156103b8576103b7613e69565b5b60048111156103ca576103c9613e69565b5b815260200160008201600b9054906101000a900460ff1660038111156103f3576103f2613e69565b5b600381111561040557610404613e69565b5b815260200160008201600c9054906101000a900460ff1660ff1660ff16815260200160008201600d9054906101000a900460ff1660ff1660ff16815260200160008201600e9054906101000a900460ff1660ff1660ff16815260200160008201600f9054906101000a900460ff16600581111561048557610484613e69565b5b600581111561049757610496613e69565b5b81526020016000820160109054906101000a900460ff1660ff1660ff1681526020016000820160119054906101000a900460ff1660ff1660ff168152602001600182016040518060e00160405290816000820160009054906101000a900460000b60000b60000b81526020016000820160019054906101000a900460000b60000b60000b81526020016000820160029054906101000a900460000b60000b60000b81526020016000820160039054906101000a900460000b60000b60000b81526020016000820160049054906101000a900460000b60000b60000b81526020016000820160059054906101000a900460000b60000b60000b81526020016000820160069054906101000a900460000b60000b60000b81525050815250509080600401604051806102600160405290816000820160009054906101000a900460ff161515151581526020016000820160019054906101000a900460ff161515151581526020016000820160029054906101000a900460ff161515151581526020016000820160039054906101000a900460ff161515151581526020016000820160049054906101000a900460ff161515151581526020016000820160059054906101000a900460ff1660ff1660ff1681526020016000820160069054906101000a900460ff1660ff1660ff1681526020016000820160079054906101000a900460ff1660ff1660ff1681526020016000820160089054906101000a900460ff1660ff1660ff1681526020016000820160099054906101000a900460ff1660ff1660ff16815260200160008201600a9054906101000a900460ff16600481111561070257610701613e69565b5b600481111561071457610713613e69565b5b815260200160008201600b9054906101000a900460ff16600381111561073d5761073c613e69565b5b600381111561074f5761074e613e69565b5b815260200160008201600c9054906101000a900460ff1660ff1660ff16815260200160008201600d9054906101000a900460ff1660ff1660ff16815260200160008201600e9054906101000a900460ff1660ff1660ff16815260200160008201600f9054906101000a900460ff1660058111156107cf576107ce613e69565b5b60058111156107e1576107e0613e69565b5b81526020016000820160109054906101000a900460ff1660ff1660ff1681526020016000820160119054906101000a900460ff1660ff1660ff168152602001600182016040518060e00160405290816000820160009054906101000a900460000b60000b60000b81526020016000820160019054906101000a900460000b60000b60000b81526020016000820160029054906101000a900460000b60000b60000b81526020016000820160039054906101000a900460000b60000b60000b81526020016000820160049054906101000a900460000b60000b60000b81526020016000820160059054906101000a900460000b60000b60000b81526020016000820160069054906101000a900460000b60000b60000b81525050815250509080600601604051806102600160405290816000820160009054906101000a900460ff161515151581526020016000820160019054906101000a900460ff161515151581526020016000820160029054906101000a900460ff161515151581526020016000820160039054906101000a900460ff161515151581526020016000820160049054906101000a900460ff161515151581526020016000820160059054906101000a900460ff1660ff1660ff1681526020016000820160069054906101000a900460ff1660ff1660ff1681526020016000820160079054906101000a900460ff1660ff1660ff1681526020016000820160089054906101000a900460ff1660ff1660ff1681526020016000820160099054906101000a900460ff1660ff1660ff16815260200160008201600a9054906101000a900460ff166004811115610a4c57610a4b613e69565b5b6004811115610a5e57610a5d613e69565b5b815260200160008201600b9054906101000a900460ff166003811115610a8757610a86613e69565b5b6003811115610a9957610a98613e69565b5b815260200160008201600c9054906101000a900460ff1660ff1660ff16815260200160008201600d9054906101000a900460ff1660ff1660ff16815260200160008201600e9054906101000a900460ff1660ff1660ff16815260200160008201600f9054906101000a900460ff166005811115610b1957610b18613e69565b5b6005811115610b2b57610b2a613e69565b5b81526020016000820160109054906101000a900460ff1660ff1660ff1681526020016000820160119054906101000a900460ff1660ff1660ff168152602001600182016040518060e00160405290816000820160009054906101000a900460000b60000b60000b81526020016000820160019054906101000a900460000b60000b60000b81526020016000820160029054906101000a900460000b60000b60000b81526020016000820160039054906101000a900460000b60000b60000b81526020016000820160049054906101000a900460000b60000b60000b81526020016000820160059054906101000a900460000b60000b60000b81526020016000820160069054906101000a900460000b60000b60000b8152505081525050905087565b610c55613c05565b60028281548110610c6957610c68614749565b5b90600052602060002090600802016040518060e0016040529081600082015481526020016001820160009054906101000a900460ff161515151581526020016001820160019054906101000a900460ff1660ff1660ff1681526020016001820160029054906101000a900460ff1660ff1660ff16815260200160028201604051806102600160405290816000820160009054906101000a900460ff161515151581526020016000820160019054906101000a900460ff161515151581526020016000820160029054906101000a900460ff161515151581526020016000820160039054906101000a900460ff161515151581526020016000820160049054906101000a900460ff161515151581526020016000820160059054906101000a900460ff1660ff1660ff1681526020016000820160069054906101000a900460ff1660ff1660ff1681526020016000820160079054906101000a900460ff1660ff1660ff1681526020016000820160089054906101000a900460ff1660ff1660ff1681526020016000820160099054906101000a900460ff1660ff1660ff16815260200160008201600a9054906101000a900460ff166004811115610e2f57610e2e613e69565b5b6004811115610e4157610e40613e69565b5b815260200160008201600b9054906101000a900460ff166003811115610e6a57610e69613e69565b5b6003811115610e7c57610e7b613e69565b5b815260200160008201600c9054906101000a900460ff1660ff1660ff16815260200160008201600d9054906101000a900460ff1660ff1660ff16815260200160008201600e9054906101000a900460ff1660ff1660ff16815260200160008201600f9054906101000a900460ff166005811115610efc57610efb613e69565b5b6005811115610f0e57610f0d613e69565b5b81526020016000820160109054906101000a900460ff1660ff1660ff1681526020016000820160119054906101000a900460ff1660ff1660ff168152602001600182016040518060e00160405290816000820160009054906101000a900460000b60000b60000b81526020016000820160019054906101000a900460000b60000b60000b81526020016000820160029054906101000a900460000b60000b60000b81526020016000820160039054906101000a900460000b60000b60000b81526020016000820160049054906101000a900460000b60000b60000b81526020016000820160059054906101000a900460000b60000b60000b81526020016000820160069054906101000a900460000b60000b60000b8152505081525050815260200160048201604051806102600160405290816000820160009054906101000a900460ff161515151581526020016000820160019054906101000a900460ff161515151581526020016000820160029054906101000a900460ff161515151581526020016000820160039054906101000a900460ff161515151581526020016000820160049054906101000a900460ff161515151581526020016000820160059054906101000a900460ff1660ff1660ff1681526020016000820160069054906101000a900460ff1660ff1660ff1681526020016000820160079054906101000a900460ff1660ff1660ff1681526020016000820160089054906101000a900460ff1660ff1660ff1681526020016000820160099054906101000a900460ff1660ff1660ff16815260200160008201600a9054906101000a900460ff16600481111561117d5761117c613e69565b5b600481111561118f5761118e613e69565b5b815260200160008201600b9054906101000a900460ff1660038111156111b8576111b7613e69565b5b60038111156111ca576111c9613e69565b5b815260200160008201600c9054906101000a900460ff1660ff1660ff16815260200160008201600d9054906101000a900460ff1660ff1660ff16815260200160008201600e9054906101000a900460ff1660ff1660ff16815260200160008201600f9054906101000a900460ff16600581111561124a57611249613e69565b5b600581111561125c5761125b613e69565b5b81526020016000820160109054906101000a900460ff1660ff1660ff1681526020016000820160119054906101000a900460ff1660ff1660ff168152602001600182016040518060e00160405290816000820160009054906101000a900460000b60000b60000b81526020016000820160019054906101000a900460000b60000b60000b81526020016000820160029054906101000a900460000b60000b60000b81526020016000820160039054906101000a900460000b60000b60000b81526020016000820160049054906101000a900460000b60000b60000b81526020016000820160059054906101000a900460000b60000b60000b81526020016000820160069054906101000a900460000b60000b60000b8152505081525050815260200160068201604051806102600160405290816000820160009054906101000a900460ff161515151581526020016000820160019054906101000a900460ff161515151581526020016000820160029054906101000a900460ff161515151581526020016000820160039054906101000a900460ff161515151581526020016000820160049054906101000a900460ff161515151581526020016000820160059054906101000a900460ff1660ff1660ff1681526020016000820160069054906101000a900460ff1660ff1660ff1681526020016000820160079054906101000a900460ff1660ff1660ff1681526020016000820160089054906101000a900460ff1660ff1660ff1681526020016000820160099054906101000a900460ff1660ff1660ff16815260200160008201600a9054906101000a900460ff1660048111156114cb576114ca613e69565b5b60048111156114dd576114dc613e69565b5b815260200160008201600b9054906101000a900460ff16600381111561150657611505613e69565b5b600381111561151857611517613e69565b5b815260200160008201600c9054906101000a900460ff1660ff1660ff16815260200160008201600d9054906101000a900460ff1660ff1660ff16815260200160008201600e9054906101000a900460ff1660ff1660ff16815260200160008201600f9054906101000a900460ff16600581111561159857611597613e69565b5b60058111156115aa576115a9613e69565b5b81526020016000820160109054906101000a900460ff1660ff1660ff1681526020016000820160119054906101000a900460ff1660ff1660ff168152602001600182016040518060e00160405290816000820160009054906101000a900460000b60000b60000b81526020016000820160019054906101000a900460000b60000b60000b81526020016000820160029054906101000a900460000b60000b60000b81526020016000820160039054906101000a900460000b60000b60000b81526020016000820160049054906101000a900460000b60000b60000b81526020016000820160059054906101000a900460000b60000b60000b81526020016000820160069054906101000a900460000b60000b60000b8152505081525050815250509050919050565b6116da613abb565b6116e46000613b39565b565b60008060009054906101000a900473ffffffffffffffffffffffffffffffffffffffff16905090565b6002818154811061171f57600080fd5b90600052602060002090600802016000915090508060000154908060010160009054906101000a900460ff16908060010160019054906101000a900460ff16908060010160029054906101000a900460ff169080600201604051806102600160405290816000820160009054906101000a900460ff161515151581526020016000820160019054906101000a900460ff161515151581526020016000820160029054906101000a900460ff161515151581526020016000820160039054906101000a900460ff161515151581526020016000820160049054906101000a900460ff161515151581526020016000820160059054906101000a900460ff1660ff1660ff1681526020016000820160069054906101000a900460ff1660ff1660ff1681526020016000820160079054906101000a900460ff1660ff1660ff1681526020016000820160089054906101000a900460ff1660ff1660ff1681526020016000820160099054906101000a900460ff1660ff1660ff16815260200160008201600a9054906101000a900460ff1660048111156118bf576118be613e69565b5b60048111156118d1576118d0613e69565b5b815260200160008201600b9054906101000a900460ff1660038111156118fa576118f9613e69565b5b600381111561190c5761190b613e69565b5b815260200160008201600c9054906101000a900460ff1660ff1660ff16815260200160008201600d9054906101000a900460ff1660ff1660ff16815260200160008201600e9054906101000a900460ff1660ff1660ff16815260200160008201600f9054906101000a900460ff16600581111561198c5761198b613e69565b5b600581111561199e5761199d613e69565b5b81526020016000820160109054906101000a900460ff1660ff1660ff1681526020016000820160119054906101000a900460ff1660ff1660ff168152602001600182016040518060e00160405290816000820160009054906101000a900460000b60000b60000b81526020016000820160019054906101000a900460000b60000b60000b81526020016000820160029054906101000a900460000b60000b60000b81526020016000820160039054906101000a900460000b60000b60000b81526020016000820160049054906101000a900460000b60000b60000b81526020016000820160059054906101000a900460000b60000b60000b81526020016000820160069054906101000a900460000b60000b60000b81525050815250509080600401604051806102600160405290816000820160009054906101000a900460ff161515151581526020016000820160019054906101000a900460ff161515151581526020016000820160029054906101000a900460ff161515151581526020016000820160039054906101000a900460ff161515151581526020016000820160049054906101000a900460ff161515151581526020016000820160059054906101000a900460ff1660ff1660ff1681526020016000820160069054906101000a900460ff1660ff1660ff1681526020016000820160079054906101000a900460ff1660ff1660ff1681526020016000820160089054906101000a900460ff1660ff1660ff1681526020016000820160099054906101000a900460ff1660ff1660ff16815260200160008201600a9054906101000a900460ff166004811115611c0957611c08613e69565b5b6004811115611c1b57611c1a613e69565b5b815260200160008201600b9054906101000a900460ff166003811115611c4457611c43613e69565b5b6003811115611c5657611c55613e69565b5b815260200160008201600c9054906101000a900460ff1660ff1660ff16815260200160008201600d9054906101000a900460ff1660ff1660ff16815260200160008201600e9054906101000a900460ff1660ff1660ff16815260200160008201600f9054906101000a900460ff166005811115611cd657611cd5613e69565b5b6005811115611ce857611ce7613e69565b5b81526020016000820160109054906101000a900460ff1660ff1660ff1681526020016000820160119054906101000a900460ff1660ff1660ff168152602001600182016040518060e00160405290816000820160009054906101000a900460000b60000b60000b81526020016000820160019054906101000a900460000b60000b60000b81526020016000820160029054906101000a900460000b60000b60000b81526020016000820160039054906101000a900460000b60000b60000b81526020016000820160049054906101000a900460000b60000b60000b81526020016000820160059054906101000a900460000b60000b60000b81526020016000820160069054906101000a900460000b60000b60000b81525050815250509080600601604051806102600160405290816000820160009054906101000a900460ff161515151581526020016000820160019054906101000a900460ff161515151581526020016000820160029054906101000a900460ff161515151581526020016000820160039054906101000a900460ff161515151581526020016000820160049054906101000a900460ff161515151581526020016000820160059054906101000a900460ff1660ff1660ff1681526020016000820160069054906101000a900460ff1660ff1660ff1681526020016000820160079054906101000a900460ff1660ff1660ff1681526020016000820160089054906101000a900460ff1660ff1660ff1681526020016000820160099054906101000a900460ff1660ff1660ff16815260200160008201600a9054906101000a900460ff166004811115611f5357611f52613e69565b5b6004811115611f6557611f64613e69565b5b815260200160008201600b9054906101000a900460ff166003811115611f8e57611f8d613e69565b5b6003811115611fa057611f9f613e69565b5b815260200160008201600c9054906101000a900460ff1660ff1660ff16815260200160008201600d9054906101000a900460ff1660ff1660ff16815260200160008201600e9054906101000a900460ff1660ff1660ff16815260200160008201600f9054906101000a900460ff1660058111156120205761201f613e69565b5b600581111561203257612031613e69565b5b81526020016000820160109054906101000a900460ff1660ff1660ff1681526020016000820160119054906101000a900460ff1660ff1660ff168152602001600182016040518060e00160405290816000820160009054906101000a900460000b60000b60000b81526020016000820160019054906101000a900460000b60000b60000b81526020016000820160029054906101000a900460000b60000b60000b81526020016000820160039054906101000a900460000b60000b60000b81526020016000820160049054906101000a900460000b60000b60000b81526020016000820160059054906101000a900460000b60000b60000b81526020016000820160069054906101000a900460000b60000b60000b8152505081525050905087565b60606000600367ffffffffffffffff81111561217357612172614778565b5b6040519080825280602002602001820160405280156121ac57816020015b612199613c5c565b8152602001906001900390816121915790505b509050600084156121e057600184815481106121cb576121ca614749565b5b90600052602060002090600802019050612205565b600284815481106121f4576121f3614749565b5b906000526020600020906008020190505b80600201604051806102600160405290816000820160009054906101000a900460ff161515151581526020016000820160019054906101000a900460ff161515151581526020016000820160029054906101000a900460ff161515151581526020016000820160039054906101000a900460ff161515151581526020016000820160049054906101000a900460ff161515151581526020016000820160059054906101000a900460ff1660ff1660ff1681526020016000820160069054906101000a900460ff1660ff1660ff1681526020016000820160079054906101000a900460ff1660ff1660ff1681526020016000820160089054906101000a900460ff1660ff1660ff1681526020016000820160099054906101000a900460ff1660ff1660ff16815260200160008201600a9054906101000a900460ff16600481111561235257612351613e69565b5b600481111561236457612363613e69565b5b815260200160008201600b9054906101000a900460ff16600381111561238d5761238c613e69565b5b600381111561239f5761239e613e69565b5b815260200160008201600c9054906101000a900460ff1660ff1660ff16815260200160008201600d9054906101000a900460ff1660ff1660ff16815260200160008201600e9054906101000a900460ff1660ff1660ff16815260200160008201600f9054906101000a900460ff16600581111561241f5761241e613e69565b5b600581111561243157612430613e69565b5b81526020016000820160109054906101000a900460ff1660ff1660ff1681526020016000820160119054906101000a900460ff1660ff1660ff168152602001600182016040518060e00160405290816000820160009054906101000a900460000b60000b60000b81526020016000820160019054906101000a900460000b60000b60000b81526020016000820160029054906101000a900460000b60000b60000b81526020016000820160039054906101000a900460000b60000b60000b81526020016000820160049054906101000a900460000b60000b60000b81526020016000820160059054906101000a900460000b60000b60000b81526020016000820160069054906101000a900460000b60000b60000b81525050815250508260008151811061256257612561614749565b5b602002602001018190525080600401604051806102600160405290816000820160009054906101000a900460ff161515151581526020016000820160019054906101000a900460ff161515151581526020016000820160029054906101000a900460ff161515151581526020016000820160039054906101000a900460ff161515151581526020016000820160049054906101000a900460ff161515151581526020016000820160059054906101000a900460ff1660ff1660ff1681526020016000820160069054906101000a900460ff1660ff1660ff1681526020016000820160079054906101000a900460ff1660ff1660ff1681526020016000820160089054906101000a900460ff1660ff1660ff1681526020016000820160099054906101000a900460ff1660ff1660ff16815260200160008201600a9054906101000a900460ff1660048111156126ba576126b9613e69565b5b60048111156126cc576126cb613e69565b5b815260200160008201600b9054906101000a900460ff1660038111156126f5576126f4613e69565b5b600381111561270757612706613e69565b5b815260200160008201600c9054906101000a900460ff1660ff1660ff16815260200160008201600d9054906101000a900460ff1660ff1660ff16815260200160008201600e9054906101000a900460ff1660ff1660ff16815260200160008201600f9054906101000a900460ff16600581111561278757612786613e69565b5b600581111561279957612798613e69565b5b81526020016000820160109054906101000a900460ff1660ff1660ff1681526020016000820160119054906101000a900460ff1660ff1660ff168152602001600182016040518060e00160405290816000820160009054906101000a900460000b60000b60000b81526020016000820160019054906101000a900460000b60000b60000b81526020016000820160029054906101000a900460000b60000b60000b81526020016000820160039054906101000a900460000b60000b60000b81526020016000820160049054906101000a900460000b60000b60000b81526020016000820160059054906101000a900460000b60000b60000b81526020016000820160069054906101000a900460000b60000b60000b8152505081525050826001815181106128ca576128c9614749565b5b602002602001018190525080600601604051806102600160405290816000820160009054906101000a900460ff161515151581526020016000820160019054906101000a900460ff161515151581526020016000820160029054906101000a900460ff161515151581526020016000820160039054906101000a900460ff161515151581526020016000820160049054906101000a900460ff161515151581526020016000820160059054906101000a900460ff1660ff1660ff1681526020016000820160069054906101000a900460ff1660ff1660ff1681526020016000820160079054906101000a900460ff1660ff1660ff1681526020016000820160089054906101000a900460ff1660ff1660ff1681526020016000820160099054906101000a900460ff1660ff1660ff16815260200160008201600a9054906101000a900460ff166004811115612a2257612a21613e69565b5b6004811115612a3457612a33613e69565b5b815260200160008201600b9054906101000a900460ff166003811115612a5d57612a5c613e69565b5b6003811115612a6f57612a6e613e69565b5b815260200160008201600c9054906101000a900460ff1660ff1660ff16815260200160008201600d9054906101000a900460ff1660ff1660ff16815260200160008201600e9054906101000a900460ff1660ff1660ff16815260200160008201600f9054906101000a900460ff166005811115612aef57612aee613e69565b5b6005811115612b0157612b00613e69565b5b81526020016000820160109054906101000a900460ff1660ff1660ff1681526020016000820160119054906101000a900460ff1660ff1660ff168152602001600182016040518060e00160405290816000820160009054906101000a900460000b60000b60000b81526020016000820160019054906101000a900460000b60000b60000b81526020016000820160029054906101000a900460000b60000b60000b81526020016000820160039054906101000a900460000b60000b60000b81526020016000820160049054906101000a900460000b60000b60000b81526020016000820160059054906101000a900460000b60000b60000b81526020016000820160069054906101000a900460000b60000b60000b815250508152505082600281518110612c3257612c31614749565b5b6020026020010181905250819250505092915050565b612c50613c05565b60018281548110612c6457612c63614749565b5b90600052602060002090600802016040518060e0016040529081600082015481526020016001820160009054906101000a900460ff161515151581526020016001820160019054906101000a900460ff1660ff1660ff1681526020016001820160029054906101000a900460ff1660ff1660ff16815260200160028201604051806102600160405290816000820160009054906101000a900460ff161515151581526020016000820160019054906101000a900460ff161515151581526020016000820160029054906101000a900460ff161515151581526020016000820160039054906101000a900460ff161515151581526020016000820160049054906101000a900460ff161515151581526020016000820160059054906101000a900460ff1660ff1660ff1681526020016000820160069054906101000a900460ff1660ff1660ff1681526020016000820160079054906101000a900460ff1660ff1660ff1681526020016000820160089054906101000a900460ff1660ff1660ff1681526020016000820160099054906101000a900460ff1660ff1660ff16815260200160008201600a9054906101000a900460ff166004811115612e2a57612e29613e69565b5b6004811115612e3c57612e3b613e69565b5b815260200160008201600b9054906101000a900460ff166003811115612e6557612e64613e69565b5b6003811115612e7757612e76613e69565b5b815260200160008201600c9054906101000a900460ff1660ff1660ff16815260200160008201600d9054906101000a900460ff1660ff1660ff16815260200160008201600e9054906101000a900460ff1660ff1660ff16815260200160008201600f9054906101000a900460ff166005811115612ef757612ef6613e69565b5b6005811115612f0957612f08613e69565b5b81526020016000820160109054906101000a900460ff1660ff1660ff1681526020016000820160119054906101000a900460ff1660ff1660ff168152602001600182016040518060e00160405290816000820160009054906101000a900460000b60000b60000b81526020016000820160019054906101000a900460000b60000b60000b81526020016000820160029054906101000a900460000b60000b60000b81526020016000820160039054906101000a900460000b60000b60000b81526020016000820160049054906101000a900460000b60000b60000b81526020016000820160059054906101000a900460000b60000b60000b81526020016000820160069054906101000a900460000b60000b60000b8152505081525050815260200160048201604051806102600160405290816000820160009054906101000a900460ff161515151581526020016000820160019054906101000a900460ff161515151581526020016000820160029054906101000a900460ff161515151581526020016000820160039054906101000a900460ff161515151581526020016000820160049054906101000a900460ff161515151581526020016000820160059054906101000a900460ff1660ff1660ff1681526020016000820160069054906101000a900460ff1660ff1660ff1681526020016000820160079054906101000a900460ff1660ff1660ff1681526020016000820160089054906101000a900460ff1660ff1660ff1681526020016000820160099054906101000a900460ff1660ff1660ff16815260200160008201600a9054906101000a900460ff16600481111561317857613177613e69565b5b600481111561318a57613189613e69565b5b815260200160008201600b9054906101000a900460ff1660038111156131b3576131b2613e69565b5b60038111156131c5576131c4613e69565b5b815260200160008201600c9054906101000a900460ff1660ff1660ff16815260200160008201600d9054906101000a900460ff1660ff1660ff16815260200160008201600e9054906101000a900460ff1660ff1660ff16815260200160008201600f9054906101000a900460ff16600581111561324557613244613e69565b5b600581111561325757613256613e69565b5b81526020016000820160109054906101000a900460ff1660ff1660ff1681526020016000820160119054906101000a900460ff1660ff1660ff168152602001600182016040518060e00160405290816000820160009054906101000a900460000b60000b60000b81526020016000820160019054906101000a900460000b60000b60000b81526020016000820160029054906101000a900460000b60000b60000b81526020016000820160039054906101000a900460000b60000b60000b81526020016000820160049054906101000a900460000b60000b60000b81526020016000820160059054906101000a900460000b60000b60000b81526020016000820160069054906101000a900460000b60000b60000b8152505081525050815260200160068201604051806102600160405290816000820160009054906101000a900460ff161515151581526020016000820160019054906101000a900460ff161515151581526020016000820160029054906101000a900460ff161515151581526020016000820160039054906101000a900460ff161515151581526020016000820160049054906101000a900460ff161515151581526020016000820160059054906101000a900460ff1660ff1660ff1681526020016000820160069054906101000a900460ff1660ff1660ff1681526020016000820160079054906101000a900460ff1660ff1660ff1681526020016000820160089054906101000a900460ff1660ff1660ff1681526020016000820160099054906101000a900460ff1660ff1660ff16815260200160008201600a9054906101000a900460ff1660048111156134c6576134c5613e69565b5b60048111156134d8576134d7613e69565b5b815260200160008201600b9054906101000a900460ff16600381111561350157613500613e69565b5b600381111561351357613512613e69565b5b815260200160008201600c9054906101000a900460ff1660ff1660ff16815260200160008201600d9054906101000a900460ff1660ff1660ff16815260200160008201600e9054906101000a900460ff1660ff1660ff16815260200160008201600f9054906101000a900460ff16600581111561359357613592613e69565b5b60058111156135a5576135a4613e69565b5b81526020016000820160109054906101000a900460ff1660ff1660ff1681526020016000820160119054906101000a900460ff1660ff1660ff168152602001600182016040518060e00160405290816000820160009054906101000a900460000b60000b60000b81526020016000820160019054906101000a900460000b60000b60000b81526020016000820160029054906101000a900460000b60000b60000b81526020016000820160039054906101000a900460000b60000b60000b81526020016000820160049054906101000a900460000b60000b60000b81526020016000820160059054906101000a900460000b60000b60000b81526020016000820160069054906101000a900460000b60000b60000b8152505081525050815250509050919050565b6136d5613d52565b6000841561370657600184815481106136f1576136f0614749565b5b9060005260206000209060080201905061372b565b6002848154811061371a57613719614749565b5b906000526020600020906008020190505b600083141561381957806002016001016040518060e00160405290816000820160009054906101000a900460000b60000b60000b81526020016000820160019054906101000a900460000b60000b60000b81526020016000820160029054906101000a900460000b60000b60000b81526020016000820160039054906101000a900460000b60000b60000b81526020016000820160049054906101000a900460000b60000b60000b81526020016000820160059054906101000a900460000b60000b60000b81526020016000820160069054906101000a900460000b60000b60000b81525050915050613a30565b600183141561390757806004016001016040518060e00160405290816000820160009054906101000a900460000b60000b60000b81526020016000820160019054906101000a900460000b60000b60000b81526020016000820160029054906101000a900460000b60000b60000b81526020016000820160039054906101000a900460000b60000b60000b81526020016000820160049054906101000a900460000b60000b60000b81526020016000820160059054906101000a900460000b60000b60000b81526020016000820160069054906101000a900460000b60000b60000b81525050915050613a30565b60028314156139f557806006016001016040518060e00160405290816000820160009054906101000a900460000b60000b60000b81526020016000820160019054906101000a900460000b60000b60000b81526020016000820160029054906101000a900460000b60000b60000b81526020016000820160039054906101000a900460000b60000b60000b81526020016000820160049054906101000a900460000b60000b60000b81526020016000820160059054906101000a900460000b60000b60000b81526020016000820160069054906101000a900460000b60000b60000b81525050915050613a30565b6040517f08c379a0000000000000000000000000000000000000000000000000000000008152600401613a2790614804565b60405180910390fd5b9392505050565b613a3f613abb565b600073ffffffffffffffffffffffffffffffffffffffff168173ffffffffffffffffffffffffffffffffffffffff161415613aaf576040517f08c379a0000000000000000000000000000000000000000000000000000000008152600401613aa690614896565b60405180910390fd5b613ab881613b39565b50565b613ac3613bfd565b73ffffffffffffffffffffffffffffffffffffffff16613ae16116e6565b73ffffffffffffffffffffffffffffffffffffffff1614613b37576040517f08c379a0000000000000000000000000000000000000000000000000000000008152600401613b2e90614902565b60405180910390fd5b565b60008060009054906101000a900473ffffffffffffffffffffffffffffffffffffffff169050816000806101000a81548173ffffffffffffffffffffffffffffffffffffffff021916908373ffffffffffffffffffffffffffffffffffffffff1602179055508173ffffffffffffffffffffffffffffffffffffffff168173ffffffffffffffffffffffffffffffffffffffff167f8be0079c531659141344cd1fd0a4f28419497f9722a3daafe3b4186f6b6457e060405160405180910390a35050565b600033905090565b6040518060e0016040528060008152602001600015158152602001600060ff168152602001600060ff168152602001613c3c613c5c565b8152602001613c49613c5c565b8152602001613c56613c5c565b81525090565b604051806102600160405280600015158152602001600015158152602001600015158152602001600015158152602001600015158152602001600060ff168152602001600060ff168152602001600060ff168152602001600060ff168152602001600060ff16815260200160006004811115613cdb57613cda613e69565b5b815260200160006003811115613cf457613cf3613e69565b5b8152602001600060ff168152602001600060ff168152602001600060ff16815260200160006005811115613d2b57613d2a613e69565b5b8152602001600060ff168152602001600060ff168152602001613d4c613d52565b81525090565b6040518060e001604052806000800b81526020016000800b81526020016000800b81526020016000800b81526020016000800b81526020016000800b81526020016000800b81525090565b600080fd5b6000819050919050565b613db581613da2565b8114613dc057600080fd5b50565b600081359050613dd281613dac565b92915050565b600060208284031215613dee57613ded613d9d565b5b6000613dfc84828501613dc3565b91505092915050565b613e0e81613da2565b82525050565b60008115159050919050565b613e2981613e14565b82525050565b600060ff82169050919050565b613e4581613e2f565b82525050565b613e5481613e14565b82525050565b613e6381613e2f565b82525050565b7f4e487b7100000000000000000000000000000000000000000000000000000000600052602160045260246000fd5b60058110613ea957613ea8613e69565b5b50565b6000819050613eba82613e98565b919050565b6000613eca82613eac565b9050919050565b613eda81613ebf565b82525050565b60048110613ef157613ef0613e69565b5b50565b6000819050613f0282613ee0565b919050565b6000613f1282613ef4565b9050919050565b613f2281613f07565b82525050565b60068110613f3957613f38613e69565b5b50565b6000819050613f4a82613f28565b919050565b6000613f5a82613f3c565b9050919050565b613f6a81613f4f565b82525050565b60008160000b9050919050565b613f8681613f70565b82525050565b60e082016000820151613fa26000850182613f7d565b506020820151613fb56020850182613f7d565b506040820151613fc86040850182613f7d565b506060820151613fdb6060850182613f7d565b506080820151613fee6080850182613f7d565b5060a082015161400160a0850182613f7d565b5060c082015161401460c0850182613f7d565b50505050565b610320820160008201516140316000850182613e4b565b5060208201516140446020850182613e4b565b5060408201516140576040850182613e4b565b50606082015161406a6060850182613e4b565b50608082015161407d6080850182613e4b565b5060a082015161409060a0850182613e5a565b5060c08201516140a360c0850182613e5a565b5060e08201516140b660e0850182613e5a565b506101008201516140cb610100850182613e5a565b506101208201516140e0610120850182613e5a565b506101408201516140f5610140850182613ed1565b5061016082015161410a610160850182613f19565b5061018082015161411f610180850182613e5a565b506101a08201516141346101a0850182613e5a565b506101c08201516141496101c0850182613e5a565b506101e082015161415e6101e0850182613f61565b50610200820151614173610200850182613e5a565b50610220820151614188610220850182613e5a565b5061024082015161419d610240850182613f8c565b50505050565b60006109e0820190506141b9600083018a613e05565b6141c66020830189613e20565b6141d36040830188613e3c565b6141e06060830187613e3c565b6141ed608083018661401a565b6141fb6103a083018561401a565b6142096106c083018461401a565b98975050505050505050565b61421e81613da2565b82525050565b6103208201600082015161423b6000850182613e4b565b50602082015161424e6020850182613e4b565b5060408201516142616040850182613e4b565b5060608201516142746060850182613e4b565b5060808201516142876080850182613e4b565b5060a082015161429a60a0850182613e5a565b5060c08201516142ad60c0850182613e5a565b5060e08201516142c060e0850182613e5a565b506101008201516142d5610100850182613e5a565b506101208201516142ea610120850182613e5a565b506101408201516142ff610140850182613ed1565b50610160820151614314610160850182613f19565b50610180820151614329610180850182613e5a565b506101a082015161433e6101a0850182613e5a565b506101c08201516143536101c0850182613e5a565b506101e08201516143686101e0850182613f61565b5061020082015161437d610200850182613e5a565b50610220820151614392610220850182613e5a565b506102408201516143a7610240850182613f8c565b50505050565b6109e0820160008201516143c46000850182614215565b5060208201516143d76020850182613e4b565b5060408201516143ea6040850182613e5a565b5060608201516143fd6060850182613e5a565b5060808201516144106080850182614224565b5060a08201516144246103a0850182614224565b5060c08201516144386106c0850182614224565b50505050565b60006109e08201905061445460008301846143ad565b92915050565b600073ffffffffffffffffffffffffffffffffffffffff82169050919050565b60006144858261445a565b9050919050565b6144958161447a565b82525050565b60006020820190506144b0600083018461448c565b92915050565b6144bf81613e14565b81146144ca57600080fd5b50565b6000813590506144dc816144b6565b92915050565b600080604083850312156144f9576144f8613d9d565b5b6000614507858286016144cd565b925050602061451885828601613dc3565b9150509250929050565b600081519050919050565b600082825260208201905092915050565b6000819050602082019050919050565b600061455a8383614224565b6103208301905092915050565b6000602082019050919050565b600061457f82614522565b614589818561452d565b93506145948361453e565b8060005b838110156145c55781516145ac888261454e565b97506145b783614567565b925050600181019050614598565b5085935050505092915050565b600060208201905081810360008301526145ec8184614574565b905092915050565b60008060006060848603121561460d5761460c613d9d565b5b600061461b868287016144cd565b935050602061462c86828701613dc3565b925050604061463d86828701613dc3565b9150509250925092565b60e08201600082015161465d6000850182613f7d565b5060208201516146706020850182613f7d565b5060408201516146836040850182613f7d565b5060608201516146966060850182613f7d565b5060808201516146a96080850182613f7d565b5060a08201516146bc60a0850182613f7d565b5060c08201516146cf60c0850182613f7d565b50505050565b600060e0820190506146ea6000830184614647565b92915050565b6146f98161447a565b811461470457600080fd5b50565b600081359050614716816146f0565b92915050565b60006020828403121561473257614731613d9d565b5b600061474084828501614707565b91505092915050565b7f4e487b7100000000000000000000000000000000000000000000000000000000600052603260045260246000fd5b7f4e487b7100000000000000000000000000000000000000000000000000000000600052604160045260246000fd5b600082825260208201905092915050565b7f456666656374206d75737420626520302c20312c206f72203200000000000000600082015250565b60006147ee6019836147a7565b91506147f9826147b8565b602082019050919050565b6000602082019050818103600083015261481d816147e1565b9050919050565b7f4f776e61626c653a206e6577206f776e657220697320746865207a65726f206160008201527f6464726573730000000000000000000000000000000000000000000000000000602082015250565b60006148806026836147a7565b915061488b82614824565b604082019050919050565b600060208201905081810360008301526148af81614873565b9050919050565b7f4f776e61626c653a2063616c6c6572206973206e6f7420746865206f776e6572600082015250565b60006148ec6020836147a7565b91506148f7826148b6565b602082019050919050565b6000602082019050818103600083015261491b816148df565b905091905056fea2646970667358221220f152e36a701c5ed5e9795cd09378a3c9af069213bd367f53e7987b421bed4c3664736f6c634300080c0033",
  "devdoc": {
    "kind": "dev",
    "methods": {
      "owner()": {
        "details": "Returns the address of the current owner."
      },
      "renounceOwnership()": {
        "details": "Leaves the contract without owner. It will not be possible to call `onlyOwner` functions anymore. Can only be called by the current owner. NOTE: Renouncing ownership will leave the contract without an owner, thereby removing any functionality that is only available to the owner."
      },
      "transferOwnership(address)": {
        "details": "Transfers ownership of the contract to a new account (`newOwner`). Can only be called by the current owner."
      }
    },
    "version": 1
  },
  "userdoc": {
    "kind": "user",
    "methods": {},
    "version": 1
  },
  "storageLayout": {
    "storage": [
      {
        "astId": 7,
        "contract": "contracts/BCEvents.sol:BCEvents",
        "label": "_owner",
        "offset": 0,
        "slot": "0",
        "type": "t_address"
      },
      {
        "astId": 3705,
        "contract": "contracts/BCEvents.sol:BCEvents",
        "label": "bcRoomEvents",
        "offset": 0,
        "slot": "1",
        "type": "t_array(t_struct(BCEvent)3701_storage)dyn_storage"
      },
      {
        "astId": 3709,
        "contract": "contracts/BCEvents.sol:BCEvents",
        "label": "bcCardEvents",
        "offset": 0,
        "slot": "2",
        "type": "t_array(t_struct(BCEvent)3701_storage)dyn_storage"
      }
    ],
    "types": {
      "t_address": {
        "encoding": "inplace",
        "label": "address",
        "numberOfBytes": "20"
      },
      "t_array(t_struct(BCEvent)3701_storage)dyn_storage": {
        "base": "t_struct(BCEvent)3701_storage",
        "encoding": "dynamic_array",
        "label": "struct BCEvents.BCEvent[]",
        "numberOfBytes": "32"
      },
      "t_bool": {
        "encoding": "inplace",
        "label": "bool",
        "numberOfBytes": "1"
      },
      "t_enum(EnemyPlacement)3627": {
        "encoding": "inplace",
        "label": "enum BCEvents.EnemyPlacement",
        "numberOfBytes": "1"
      },
      "t_enum(EnemyType)3640": {
        "encoding": "inplace",
        "label": "enum BCEvents.EnemyType",
        "numberOfBytes": "1"
      },
      "t_enum(MovePlayer)3634": {
        "encoding": "inplace",
        "label": "enum BCEvents.MovePlayer",
        "numberOfBytes": "1"
      },
      "t_int8": {
        "encoding": "inplace",
        "label": "int8",
        "numberOfBytes": "1"
      },
      "t_struct(BCEffect)3683_storage": {
        "encoding": "inplace",
        "label": "struct BCEvents.BCEffect",
        "members": [
          {
            "astId": 3642,
            "contract": "contracts/BCEvents.sol:BCEvents",
            "label": "permanent",
            "offset": 0,
            "slot": "0",
            "type": "t_bool"
          },
          {
            "astId": 3644,
            "contract": "contracts/BCEvents.sol:BCEvents",
            "label": "fullHealth",
            "offset": 1,
            "slot": "0",
            "type": "t_bool"
          },
          {
            "astId": 3646,
            "contract": "contracts/BCEvents.sol:BCEvents",
            "label": "instantDeath",
            "offset": 2,
            "slot": "0",
            "type": "t_bool"
          },
          {
            "astId": 3648,
            "contract": "contracts/BCEvents.sol:BCEvents",
            "label": "placeHazard",
            "offset": 3,
            "slot": "0",
            "type": "t_bool"
          },
          {
            "astId": 3650,
            "contract": "contracts/BCEvents.sol:BCEvents",
            "label": "grantEgg",
            "offset": 4,
            "slot": "0",
            "type": "t_bool"
          },
          {
            "astId": 3652,
            "contract": "contracts/BCEvents.sol:BCEvents",
            "label": "healAmt",
            "offset": 5,
            "slot": "0",
            "type": "t_uint8"
          },
          {
            "astId": 3654,
            "contract": "contracts/BCEvents.sol:BCEvents",
            "label": "healArmorAmt",
            "offset": 6,
            "slot": "0",
            "type": "t_uint8"
          },
          {
            "astId": 3656,
            "contract": "contracts/BCEvents.sol:BCEvents",
            "label": "hazardDamage",
            "offset": 7,
            "slot": "0",
            "type": "t_uint8"
          },
          {
            "astId": 3658,
            "contract": "contracts/BCEvents.sol:BCEvents",
            "label": "physicalDamage",
            "offset": 8,
            "slot": "0",
            "type": "t_uint8"
          },
          {
            "astId": 3660,
            "contract": "contracts/BCEvents.sol:BCEvents",
            "label": "numEnemyToPlace",
            "offset": 9,
            "slot": "0",
            "type": "t_uint8"
          },
          {
            "astId": 3663,
            "contract": "contracts/BCEvents.sol:BCEvents",
            "label": "enemyType",
            "offset": 10,
            "slot": "0",
            "type": "t_enum(EnemyType)3640"
          },
          {
            "astId": 3666,
            "contract": "contracts/BCEvents.sol:BCEvents",
            "label": "wheretoPlace",
            "offset": 11,
            "slot": "0",
            "type": "t_enum(EnemyPlacement)3627"
          },
          {
            "astId": 3668,
            "contract": "contracts/BCEvents.sol:BCEvents",
            "label": "grantData",
            "offset": 12,
            "slot": "0",
            "type": "t_uint8"
          },
          {
            "astId": 3670,
            "contract": "contracts/BCEvents.sol:BCEvents",
            "label": "grantNumItems",
            "offset": 13,
            "slot": "0",
            "type": "t_uint8"
          },
          {
            "astId": 3672,
            "contract": "contracts/BCEvents.sol:BCEvents",
            "label": "takeNumItems",
            "offset": 14,
            "slot": "0",
            "type": "t_uint8"
          },
          {
            "astId": 3675,
            "contract": "contracts/BCEvents.sol:BCEvents",
            "label": "moveType",
            "offset": 15,
            "slot": "0",
            "type": "t_enum(MovePlayer)3634"
          },
          {
            "astId": 3677,
            "contract": "contracts/BCEvents.sol:BCEvents",
            "label": "trapPlayerEscapeRoll",
            "offset": 16,
            "slot": "0",
            "type": "t_uint8"
          },
          {
            "astId": 3679,
            "contract": "contracts/BCEvents.sol:BCEvents",
            "label": "grantAbility",
            "offset": 17,
            "slot": "0",
            "type": "t_uint8"
          },
          {
            "astId": 3682,
            "contract": "contracts/BCEvents.sol:BCEvents",
            "label": "traitModifiers",
            "offset": 0,
            "slot": "1",
            "type": "t_struct(Traits)6084_storage"
          }
        ],
        "numberOfBytes": "64"
      },
      "t_struct(BCEvent)3701_storage": {
        "encoding": "inplace",
        "label": "struct BCEvents.BCEvent",
        "members": [
          {
            "astId": 3685,
            "contract": "contracts/BCEvents.sol:BCEvents",
            "label": "id",
            "offset": 0,
            "slot": "0",
            "type": "t_uint256"
          },
          {
            "astId": 3687,
            "contract": "contracts/BCEvents.sol:BCEvents",
            "label": "permanent",
            "offset": 0,
            "slot": "1",
            "type": "t_bool"
          },
          {
            "astId": 3689,
            "contract": "contracts/BCEvents.sol:BCEvents",
            "label": "rollForLow",
            "offset": 1,
            "slot": "1",
            "type": "t_uint8"
          },
          {
            "astId": 3691,
            "contract": "contracts/BCEvents.sol:BCEvents",
            "label": "rollForHigh",
            "offset": 2,
            "slot": "1",
            "type": "t_uint8"
          },
          {
            "astId": 3694,
            "contract": "contracts/BCEvents.sol:BCEvents",
            "label": "defaultEffect",
            "offset": 0,
            "slot": "2",
            "type": "t_struct(BCEffect)3683_storage"
          },
          {
            "astId": 3697,
            "contract": "contracts/BCEvents.sol:BCEvents",
            "label": "lowEffect",
            "offset": 0,
            "slot": "4",
            "type": "t_struct(BCEffect)3683_storage"
          },
          {
            "astId": 3700,
            "contract": "contracts/BCEvents.sol:BCEvents",
            "label": "highEffect",
            "offset": 0,
            "slot": "6",
            "type": "t_struct(BCEffect)3683_storage"
          }
        ],
        "numberOfBytes": "256"
      },
      "t_struct(Traits)6084_storage": {
        "encoding": "inplace",
        "label": "struct BCTypes.Traits",
        "members": [
          {
            "astId": 6071,
            "contract": "contracts/BCEvents.sol:BCEvents",
            "label": "health",
            "offset": 0,
            "slot": "0",
            "type": "t_int8"
          },
          {
            "astId": 6073,
            "contract": "contracts/BCEvents.sol:BCEvents",
            "label": "carry",
            "offset": 1,
            "slot": "0",
            "type": "t_int8"
          },
          {
            "astId": 6075,
            "contract": "contracts/BCEvents.sol:BCEvents",
            "label": "defense",
            "offset": 2,
            "slot": "0",
            "type": "t_int8"
          },
          {
            "astId": 6077,
            "contract": "contracts/BCEvents.sol:BCEvents",
            "label": "hack",
            "offset": 3,
            "slot": "0",
            "type": "t_int8"
          },
          {
            "astId": 6079,
            "contract": "contracts/BCEvents.sol:BCEvents",
            "label": "breach",
            "offset": 4,
            "slot": "0",
            "type": "t_int8"
          },
          {
            "astId": 6081,
            "contract": "contracts/BCEvents.sol:BCEvents",
            "label": "shoot",
            "offset": 5,
            "slot": "0",
            "type": "t_int8"
          },
          {
            "astId": 6083,
            "contract": "contracts/BCEvents.sol:BCEvents",
            "label": "melee",
            "offset": 6,
            "slot": "0",
            "type": "t_int8"
          }
        ],
        "numberOfBytes": "32"
      },
      "t_uint256": {
        "encoding": "inplace",
        "label": "uint256",
        "numberOfBytes": "32"
      },
      "t_uint8": {
        "encoding": "inplace",
        "label": "uint8",
        "numberOfBytes": "1"
      }
    }
  }
}