{
  "address": "0x31796F36F25b59945F422Be9628D03d5bf6c6788",
  "abi": [
    {
      "inputs": [],
      "stateMutability": "nonpayable",
      "type": "constructor"
    },
    {
      "anonymous": false,
      "inputs": [
        {
          "indexed": true,
          "internalType": "address",
          "name": "previousOwner",
          "type": "address"
        },
        {
          "indexed": true,
          "internalType": "address",
          "name": "newOwner",
          "type": "address"
        }
      ],
      "name": "OwnershipTransferred",
      "type": "event"
    },
    {
      "inputs": [
        {
          "internalType": "uint256",
          "name": "",
          "type": "uint256"
        }
      ],
      "name": "bcCardEvents",
      "outputs": [
        {
          "internalType": "uint256",
          "name": "id",
          "type": "uint256"
        },
        {
          "internalType": "bool",
          "name": "permanent",
          "type": "bool"
        },
        {
          "internalType": "uint8",
          "name": "rollForLow",
          "type": "uint8"
        },
        {
          "internalType": "uint8",
          "name": "rollForHigh",
          "type": "uint8"
        },
        {
          "components": [
            {
              "internalType": "bool",
              "name": "permanent",
              "type": "bool"
            },
            {
              "internalType": "bool",
              "name": "fullHealth",
              "type": "bool"
            },
            {
              "internalType": "bool",
              "name": "instantDeath",
              "type": "bool"
            },
            {
              "internalType": "bool",
              "name": "placeHazard",
              "type": "bool"
            },
            {
              "internalType": "bool",
              "name": "grantEgg",
              "type": "bool"
            },
            {
              "internalType": "uint8",
              "name": "healAmt",
              "type": "uint8"
            },
            {
              "internalType": "uint8",
              "name": "healArmorAmt",
              "type": "uint8"
            },
            {
              "internalType": "uint8",
              "name": "hazardDamage",
              "type": "uint8"
            },
            {
              "internalType": "uint8",
              "name": "physicalDamage",
              "type": "uint8"
            },
            {
              "internalType": "uint8",
              "name": "numEnemyToPlace",
              "type": "uint8"
            },
            {
              "internalType": "enum BCEvents.EnemyType",
              "name": "enemyType",
              "type": "uint8"
            },
            {
              "internalType": "enum BCEvents.EnemyPlacement",
              "name": "wheretoPlace",
              "type": "uint8"
            },
            {
              "internalType": "uint8",
              "name": "grantData",
              "type": "uint8"
            },
            {
              "internalType": "uint8",
              "name": "grantNumItems",
              "type": "uint8"
            },
            {
              "internalType": "uint8",
              "name": "takeNumItems",
              "type": "uint8"
            },
            {
              "internalType": "enum BCEvents.MovePlayer",
              "name": "moveType",
              "type": "uint8"
            },
            {
              "internalType": "uint8",
              "name": "trapPlayerEscapeRoll",
              "type": "uint8"
            },
            {
              "internalType": "uint8",
              "name": "grantAbility",
              "type": "uint8"
            },
            {
              "internalType": "uint8",
              "name": "lockDoorStrength",
              "type": "uint8"
            },
            {
              "components": [
                {
                  "internalType": "int8",
                  "name": "health",
                  "type": "int8"
                },
                {
                  "internalType": "int8",
                  "name": "carry",
                  "type": "int8"
                },
                {
                  "internalType": "int8",
                  "name": "defense",
                  "type": "int8"
                },
                {
                  "internalType": "int8",
                  "name": "hack",
                  "type": "int8"
                },
                {
                  "internalType": "int8",
                  "name": "breach",
                  "type": "int8"
                },
                {
                  "internalType": "int8",
                  "name": "shoot",
                  "type": "int8"
                },
                {
                  "internalType": "int8",
                  "name": "melee",
                  "type": "int8"
                }
              ],
              "internalType": "struct BCTypes.Traits",
              "name": "traitModifiers",
              "type": "tuple"
            }
          ],
          "internalType": "struct BCEvents.BCEffect",
          "name": "defaultEffect",
          "type": "tuple"
        },
        {
          "components": [
            {
              "internalType": "bool",
              "name": "permanent",
              "type": "bool"
            },
            {
              "internalType": "bool",
              "name": "fullHealth",
              "type": "bool"
            },
            {
              "internalType": "bool",
              "name": "instantDeath",
              "type": "bool"
            },
            {
              "internalType": "bool",
              "name": "placeHazard",
              "type": "bool"
            },
            {
              "internalType": "bool",
              "name": "grantEgg",
              "type": "bool"
            },
            {
              "internalType": "uint8",
              "name": "healAmt",
              "type": "uint8"
            },
            {
              "internalType": "uint8",
              "name": "healArmorAmt",
              "type": "uint8"
            },
            {
              "internalType": "uint8",
              "name": "hazardDamage",
              "type": "uint8"
            },
            {
              "internalType": "uint8",
              "name": "physicalDamage",
              "type": "uint8"
            },
            {
              "internalType": "uint8",
              "name": "numEnemyToPlace",
              "type": "uint8"
            },
            {
              "internalType": "enum BCEvents.EnemyType",
              "name": "enemyType",
              "type": "uint8"
            },
            {
              "internalType": "enum BCEvents.EnemyPlacement",
              "name": "wheretoPlace",
              "type": "uint8"
            },
            {
              "internalType": "uint8",
              "name": "grantData",
              "type": "uint8"
            },
            {
              "internalType": "uint8",
              "name": "grantNumItems",
              "type": "uint8"
            },
            {
              "internalType": "uint8",
              "name": "takeNumItems",
              "type": "uint8"
            },
            {
              "internalType": "enum BCEvents.MovePlayer",
              "name": "moveType",
              "type": "uint8"
            },
            {
              "internalType": "uint8",
              "name": "trapPlayerEscapeRoll",
              "type": "uint8"
            },
            {
              "internalType": "uint8",
              "name": "grantAbility",
              "type": "uint8"
            },
            {
              "internalType": "uint8",
              "name": "lockDoorStrength",
              "type": "uint8"
            },
            {
              "components": [
                {
                  "internalType": "int8",
                  "name": "health",
                  "type": "int8"
                },
                {
                  "internalType": "int8",
                  "name": "carry",
                  "type": "int8"
                },
                {
                  "internalType": "int8",
                  "name": "defense",
                  "type": "int8"
                },
                {
                  "internalType": "int8",
                  "name": "hack",
                  "type": "int8"
                },
                {
                  "internalType": "int8",
                  "name": "breach",
                  "type": "int8"
                },
                {
                  "internalType": "int8",
                  "name": "shoot",
                  "type": "int8"
                },
                {
                  "internalType": "int8",
                  "name": "melee",
                  "type": "int8"
                }
              ],
              "internalType": "struct BCTypes.Traits",
              "name": "traitModifiers",
              "type": "tuple"
            }
          ],
          "internalType": "struct BCEvents.BCEffect",
          "name": "lowEffect",
          "type": "tuple"
        },
        {
          "components": [
            {
              "internalType": "bool",
              "name": "permanent",
              "type": "bool"
            },
            {
              "internalType": "bool",
              "name": "fullHealth",
              "type": "bool"
            },
            {
              "internalType": "bool",
              "name": "instantDeath",
              "type": "bool"
            },
            {
              "internalType": "bool",
              "name": "placeHazard",
              "type": "bool"
            },
            {
              "internalType": "bool",
              "name": "grantEgg",
              "type": "bool"
            },
            {
              "internalType": "uint8",
              "name": "healAmt",
              "type": "uint8"
            },
            {
              "internalType": "uint8",
              "name": "healArmorAmt",
              "type": "uint8"
            },
            {
              "internalType": "uint8",
              "name": "hazardDamage",
              "type": "uint8"
            },
            {
              "internalType": "uint8",
              "name": "physicalDamage",
              "type": "uint8"
            },
            {
              "internalType": "uint8",
              "name": "numEnemyToPlace",
              "type": "uint8"
            },
            {
              "internalType": "enum BCEvents.EnemyType",
              "name": "enemyType",
              "type": "uint8"
            },
            {
              "internalType": "enum BCEvents.EnemyPlacement",
              "name": "wheretoPlace",
              "type": "uint8"
            },
            {
              "internalType": "uint8",
              "name": "grantData",
              "type": "uint8"
            },
            {
              "internalType": "uint8",
              "name": "grantNumItems",
              "type": "uint8"
            },
            {
              "internalType": "uint8",
              "name": "takeNumItems",
              "type": "uint8"
            },
            {
              "internalType": "enum BCEvents.MovePlayer",
              "name": "moveType",
              "type": "uint8"
            },
            {
              "internalType": "uint8",
              "name": "trapPlayerEscapeRoll",
              "type": "uint8"
            },
            {
              "internalType": "uint8",
              "name": "grantAbility",
              "type": "uint8"
            },
            {
              "internalType": "uint8",
              "name": "lockDoorStrength",
              "type": "uint8"
            },
            {
              "components": [
                {
                  "internalType": "int8",
                  "name": "health",
                  "type": "int8"
                },
                {
                  "internalType": "int8",
                  "name": "carry",
                  "type": "int8"
                },
                {
                  "internalType": "int8",
                  "name": "defense",
                  "type": "int8"
                },
                {
                  "internalType": "int8",
                  "name": "hack",
                  "type": "int8"
                },
                {
                  "internalType": "int8",
                  "name": "breach",
                  "type": "int8"
                },
                {
                  "internalType": "int8",
                  "name": "shoot",
                  "type": "int8"
                },
                {
                  "internalType": "int8",
                  "name": "melee",
                  "type": "int8"
                }
              ],
              "internalType": "struct BCTypes.Traits",
              "name": "traitModifiers",
              "type": "tuple"
            }
          ],
          "internalType": "struct BCEvents.BCEffect",
          "name": "highEffect",
          "type": "tuple"
        }
      ],
      "stateMutability": "view",
      "type": "function"
    },
    {
      "inputs": [
        {
          "internalType": "uint256",
          "name": "",
          "type": "uint256"
        }
      ],
      "name": "bcRoomEvents",
      "outputs": [
        {
          "internalType": "uint256",
          "name": "id",
          "type": "uint256"
        },
        {
          "internalType": "bool",
          "name": "permanent",
          "type": "bool"
        },
        {
          "internalType": "uint8",
          "name": "rollForLow",
          "type": "uint8"
        },
        {
          "internalType": "uint8",
          "name": "rollForHigh",
          "type": "uint8"
        },
        {
          "components": [
            {
              "internalType": "bool",
              "name": "permanent",
              "type": "bool"
            },
            {
              "internalType": "bool",
              "name": "fullHealth",
              "type": "bool"
            },
            {
              "internalType": "bool",
              "name": "instantDeath",
              "type": "bool"
            },
            {
              "internalType": "bool",
              "name": "placeHazard",
              "type": "bool"
            },
            {
              "internalType": "bool",
              "name": "grantEgg",
              "type": "bool"
            },
            {
              "internalType": "uint8",
              "name": "healAmt",
              "type": "uint8"
            },
            {
              "internalType": "uint8",
              "name": "healArmorAmt",
              "type": "uint8"
            },
            {
              "internalType": "uint8",
              "name": "hazardDamage",
              "type": "uint8"
            },
            {
              "internalType": "uint8",
              "name": "physicalDamage",
              "type": "uint8"
            },
            {
              "internalType": "uint8",
              "name": "numEnemyToPlace",
              "type": "uint8"
            },
            {
              "internalType": "enum BCEvents.EnemyType",
              "name": "enemyType",
              "type": "uint8"
            },
            {
              "internalType": "enum BCEvents.EnemyPlacement",
              "name": "wheretoPlace",
              "type": "uint8"
            },
            {
              "internalType": "uint8",
              "name": "grantData",
              "type": "uint8"
            },
            {
              "internalType": "uint8",
              "name": "grantNumItems",
              "type": "uint8"
            },
            {
              "internalType": "uint8",
              "name": "takeNumItems",
              "type": "uint8"
            },
            {
              "internalType": "enum BCEvents.MovePlayer",
              "name": "moveType",
              "type": "uint8"
            },
            {
              "internalType": "uint8",
              "name": "trapPlayerEscapeRoll",
              "type": "uint8"
            },
            {
              "internalType": "uint8",
              "name": "grantAbility",
              "type": "uint8"
            },
            {
              "internalType": "uint8",
              "name": "lockDoorStrength",
              "type": "uint8"
            },
            {
              "components": [
                {
                  "internalType": "int8",
                  "name": "health",
                  "type": "int8"
                },
                {
                  "internalType": "int8",
                  "name": "carry",
                  "type": "int8"
                },
                {
                  "internalType": "int8",
                  "name": "defense",
                  "type": "int8"
                },
                {
                  "internalType": "int8",
                  "name": "hack",
                  "type": "int8"
                },
                {
                  "internalType": "int8",
                  "name": "breach",
                  "type": "int8"
                },
                {
                  "internalType": "int8",
                  "name": "shoot",
                  "type": "int8"
                },
                {
                  "internalType": "int8",
                  "name": "melee",
                  "type": "int8"
                }
              ],
              "internalType": "struct BCTypes.Traits",
              "name": "traitModifiers",
              "type": "tuple"
            }
          ],
          "internalType": "struct BCEvents.BCEffect",
          "name": "defaultEffect",
          "type": "tuple"
        },
        {
          "components": [
            {
              "internalType": "bool",
              "name": "permanent",
              "type": "bool"
            },
            {
              "internalType": "bool",
              "name": "fullHealth",
              "type": "bool"
            },
            {
              "internalType": "bool",
              "name": "instantDeath",
              "type": "bool"
            },
            {
              "internalType": "bool",
              "name": "placeHazard",
              "type": "bool"
            },
            {
              "internalType": "bool",
              "name": "grantEgg",
              "type": "bool"
            },
            {
              "internalType": "uint8",
              "name": "healAmt",
              "type": "uint8"
            },
            {
              "internalType": "uint8",
              "name": "healArmorAmt",
              "type": "uint8"
            },
            {
              "internalType": "uint8",
              "name": "hazardDamage",
              "type": "uint8"
            },
            {
              "internalType": "uint8",
              "name": "physicalDamage",
              "type": "uint8"
            },
            {
              "internalType": "uint8",
              "name": "numEnemyToPlace",
              "type": "uint8"
            },
            {
              "internalType": "enum BCEvents.EnemyType",
              "name": "enemyType",
              "type": "uint8"
            },
            {
              "internalType": "enum BCEvents.EnemyPlacement",
              "name": "wheretoPlace",
              "type": "uint8"
            },
            {
              "internalType": "uint8",
              "name": "grantData",
              "type": "uint8"
            },
            {
              "internalType": "uint8",
              "name": "grantNumItems",
              "type": "uint8"
            },
            {
              "internalType": "uint8",
              "name": "takeNumItems",
              "type": "uint8"
            },
            {
              "internalType": "enum BCEvents.MovePlayer",
              "name": "moveType",
              "type": "uint8"
            },
            {
              "internalType": "uint8",
              "name": "trapPlayerEscapeRoll",
              "type": "uint8"
            },
            {
              "internalType": "uint8",
              "name": "grantAbility",
              "type": "uint8"
            },
            {
              "internalType": "uint8",
              "name": "lockDoorStrength",
              "type": "uint8"
            },
            {
              "components": [
                {
                  "internalType": "int8",
                  "name": "health",
                  "type": "int8"
                },
                {
                  "internalType": "int8",
                  "name": "carry",
                  "type": "int8"
                },
                {
                  "internalType": "int8",
                  "name": "defense",
                  "type": "int8"
                },
                {
                  "internalType": "int8",
                  "name": "hack",
                  "type": "int8"
                },
                {
                  "internalType": "int8",
                  "name": "breach",
                  "type": "int8"
                },
                {
                  "internalType": "int8",
                  "name": "shoot",
                  "type": "int8"
                },
                {
                  "internalType": "int8",
                  "name": "melee",
                  "type": "int8"
                }
              ],
              "internalType": "struct BCTypes.Traits",
              "name": "traitModifiers",
              "type": "tuple"
            }
          ],
          "internalType": "struct BCEvents.BCEffect",
          "name": "lowEffect",
          "type": "tuple"
        },
        {
          "components": [
            {
              "internalType": "bool",
              "name": "permanent",
              "type": "bool"
            },
            {
              "internalType": "bool",
              "name": "fullHealth",
              "type": "bool"
            },
            {
              "internalType": "bool",
              "name": "instantDeath",
              "type": "bool"
            },
            {
              "internalType": "bool",
              "name": "placeHazard",
              "type": "bool"
            },
            {
              "internalType": "bool",
              "name": "grantEgg",
              "type": "bool"
            },
            {
              "internalType": "uint8",
              "name": "healAmt",
              "type": "uint8"
            },
            {
              "internalType": "uint8",
              "name": "healArmorAmt",
              "type": "uint8"
            },
            {
              "internalType": "uint8",
              "name": "hazardDamage",
              "type": "uint8"
            },
            {
              "internalType": "uint8",
              "name": "physicalDamage",
              "type": "uint8"
            },
            {
              "internalType": "uint8",
              "name": "numEnemyToPlace",
              "type": "uint8"
            },
            {
              "internalType": "enum BCEvents.EnemyType",
              "name": "enemyType",
              "type": "uint8"
            },
            {
              "internalType": "enum BCEvents.EnemyPlacement",
              "name": "wheretoPlace",
              "type": "uint8"
            },
            {
              "internalType": "uint8",
              "name": "grantData",
              "type": "uint8"
            },
            {
              "internalType": "uint8",
              "name": "grantNumItems",
              "type": "uint8"
            },
            {
              "internalType": "uint8",
              "name": "takeNumItems",
              "type": "uint8"
            },
            {
              "internalType": "enum BCEvents.MovePlayer",
              "name": "moveType",
              "type": "uint8"
            },
            {
              "internalType": "uint8",
              "name": "trapPlayerEscapeRoll",
              "type": "uint8"
            },
            {
              "internalType": "uint8",
              "name": "grantAbility",
              "type": "uint8"
            },
            {
              "internalType": "uint8",
              "name": "lockDoorStrength",
              "type": "uint8"
            },
            {
              "components": [
                {
                  "internalType": "int8",
                  "name": "health",
                  "type": "int8"
                },
                {
                  "internalType": "int8",
                  "name": "carry",
                  "type": "int8"
                },
                {
                  "internalType": "int8",
                  "name": "defense",
                  "type": "int8"
                },
                {
                  "internalType": "int8",
                  "name": "hack",
                  "type": "int8"
                },
                {
                  "internalType": "int8",
                  "name": "breach",
                  "type": "int8"
                },
                {
                  "internalType": "int8",
                  "name": "shoot",
                  "type": "int8"
                },
                {
                  "internalType": "int8",
                  "name": "melee",
                  "type": "int8"
                }
              ],
              "internalType": "struct BCTypes.Traits",
              "name": "traitModifiers",
              "type": "tuple"
            }
          ],
          "internalType": "struct BCEvents.BCEffect",
          "name": "highEffect",
          "type": "tuple"
        }
      ],
      "stateMutability": "view",
      "type": "function"
    },
    {
      "inputs": [
        {
          "internalType": "uint256",
          "name": "_id",
          "type": "uint256"
        }
      ],
      "name": "extGetCardEvent",
      "outputs": [
        {
          "components": [
            {
              "internalType": "uint256",
              "name": "id",
              "type": "uint256"
            },
            {
              "internalType": "bool",
              "name": "permanent",
              "type": "bool"
            },
            {
              "internalType": "uint8",
              "name": "rollForLow",
              "type": "uint8"
            },
            {
              "internalType": "uint8",
              "name": "rollForHigh",
              "type": "uint8"
            },
            {
              "components": [
                {
                  "internalType": "bool",
                  "name": "permanent",
                  "type": "bool"
                },
                {
                  "internalType": "bool",
                  "name": "fullHealth",
                  "type": "bool"
                },
                {
                  "internalType": "bool",
                  "name": "instantDeath",
                  "type": "bool"
                },
                {
                  "internalType": "bool",
                  "name": "placeHazard",
                  "type": "bool"
                },
                {
                  "internalType": "bool",
                  "name": "grantEgg",
                  "type": "bool"
                },
                {
                  "internalType": "uint8",
                  "name": "healAmt",
                  "type": "uint8"
                },
                {
                  "internalType": "uint8",
                  "name": "healArmorAmt",
                  "type": "uint8"
                },
                {
                  "internalType": "uint8",
                  "name": "hazardDamage",
                  "type": "uint8"
                },
                {
                  "internalType": "uint8",
                  "name": "physicalDamage",
                  "type": "uint8"
                },
                {
                  "internalType": "uint8",
                  "name": "numEnemyToPlace",
                  "type": "uint8"
                },
                {
                  "internalType": "enum BCEvents.EnemyType",
                  "name": "enemyType",
                  "type": "uint8"
                },
                {
                  "internalType": "enum BCEvents.EnemyPlacement",
                  "name": "wheretoPlace",
                  "type": "uint8"
                },
                {
                  "internalType": "uint8",
                  "name": "grantData",
                  "type": "uint8"
                },
                {
                  "internalType": "uint8",
                  "name": "grantNumItems",
                  "type": "uint8"
                },
                {
                  "internalType": "uint8",
                  "name": "takeNumItems",
                  "type": "uint8"
                },
                {
                  "internalType": "enum BCEvents.MovePlayer",
                  "name": "moveType",
                  "type": "uint8"
                },
                {
                  "internalType": "uint8",
                  "name": "trapPlayerEscapeRoll",
                  "type": "uint8"
                },
                {
                  "internalType": "uint8",
                  "name": "grantAbility",
                  "type": "uint8"
                },
                {
                  "internalType": "uint8",
                  "name": "lockDoorStrength",
                  "type": "uint8"
                },
                {
                  "components": [
                    {
                      "internalType": "int8",
                      "name": "health",
                      "type": "int8"
                    },
                    {
                      "internalType": "int8",
                      "name": "carry",
                      "type": "int8"
                    },
                    {
                      "internalType": "int8",
                      "name": "defense",
                      "type": "int8"
                    },
                    {
                      "internalType": "int8",
                      "name": "hack",
                      "type": "int8"
                    },
                    {
                      "internalType": "int8",
                      "name": "breach",
                      "type": "int8"
                    },
                    {
                      "internalType": "int8",
                      "name": "shoot",
                      "type": "int8"
                    },
                    {
                      "internalType": "int8",
                      "name": "melee",
                      "type": "int8"
                    }
                  ],
                  "internalType": "struct BCTypes.Traits",
                  "name": "traitModifiers",
                  "type": "tuple"
                }
              ],
              "internalType": "struct BCEvents.BCEffect",
              "name": "defaultEffect",
              "type": "tuple"
            },
            {
              "components": [
                {
                  "internalType": "bool",
                  "name": "permanent",
                  "type": "bool"
                },
                {
                  "internalType": "bool",
                  "name": "fullHealth",
                  "type": "bool"
                },
                {
                  "internalType": "bool",
                  "name": "instantDeath",
                  "type": "bool"
                },
                {
                  "internalType": "bool",
                  "name": "placeHazard",
                  "type": "bool"
                },
                {
                  "internalType": "bool",
                  "name": "grantEgg",
                  "type": "bool"
                },
                {
                  "internalType": "uint8",
                  "name": "healAmt",
                  "type": "uint8"
                },
                {
                  "internalType": "uint8",
                  "name": "healArmorAmt",
                  "type": "uint8"
                },
                {
                  "internalType": "uint8",
                  "name": "hazardDamage",
                  "type": "uint8"
                },
                {
                  "internalType": "uint8",
                  "name": "physicalDamage",
                  "type": "uint8"
                },
                {
                  "internalType": "uint8",
                  "name": "numEnemyToPlace",
                  "type": "uint8"
                },
                {
                  "internalType": "enum BCEvents.EnemyType",
                  "name": "enemyType",
                  "type": "uint8"
                },
                {
                  "internalType": "enum BCEvents.EnemyPlacement",
                  "name": "wheretoPlace",
                  "type": "uint8"
                },
                {
                  "internalType": "uint8",
                  "name": "grantData",
                  "type": "uint8"
                },
                {
                  "internalType": "uint8",
                  "name": "grantNumItems",
                  "type": "uint8"
                },
                {
                  "internalType": "uint8",
                  "name": "takeNumItems",
                  "type": "uint8"
                },
                {
                  "internalType": "enum BCEvents.MovePlayer",
                  "name": "moveType",
                  "type": "uint8"
                },
                {
                  "internalType": "uint8",
                  "name": "trapPlayerEscapeRoll",
                  "type": "uint8"
                },
                {
                  "internalType": "uint8",
                  "name": "grantAbility",
                  "type": "uint8"
                },
                {
                  "internalType": "uint8",
                  "name": "lockDoorStrength",
                  "type": "uint8"
                },
                {
                  "components": [
                    {
                      "internalType": "int8",
                      "name": "health",
                      "type": "int8"
                    },
                    {
                      "internalType": "int8",
                      "name": "carry",
                      "type": "int8"
                    },
                    {
                      "internalType": "int8",
                      "name": "defense",
                      "type": "int8"
                    },
                    {
                      "internalType": "int8",
                      "name": "hack",
                      "type": "int8"
                    },
                    {
                      "internalType": "int8",
                      "name": "breach",
                      "type": "int8"
                    },
                    {
                      "internalType": "int8",
                      "name": "shoot",
                      "type": "int8"
                    },
                    {
                      "internalType": "int8",
                      "name": "melee",
                      "type": "int8"
                    }
                  ],
                  "internalType": "struct BCTypes.Traits",
                  "name": "traitModifiers",
                  "type": "tuple"
                }
              ],
              "internalType": "struct BCEvents.BCEffect",
              "name": "lowEffect",
              "type": "tuple"
            },
            {
              "components": [
                {
                  "internalType": "bool",
                  "name": "permanent",
                  "type": "bool"
                },
                {
                  "internalType": "bool",
                  "name": "fullHealth",
                  "type": "bool"
                },
                {
                  "internalType": "bool",
                  "name": "instantDeath",
                  "type": "bool"
                },
                {
                  "internalType": "bool",
                  "name": "placeHazard",
                  "type": "bool"
                },
                {
                  "internalType": "bool",
                  "name": "grantEgg",
                  "type": "bool"
                },
                {
                  "internalType": "uint8",
                  "name": "healAmt",
                  "type": "uint8"
                },
                {
                  "internalType": "uint8",
                  "name": "healArmorAmt",
                  "type": "uint8"
                },
                {
                  "internalType": "uint8",
                  "name": "hazardDamage",
                  "type": "uint8"
                },
                {
                  "internalType": "uint8",
                  "name": "physicalDamage",
                  "type": "uint8"
                },
                {
                  "internalType": "uint8",
                  "name": "numEnemyToPlace",
                  "type": "uint8"
                },
                {
                  "internalType": "enum BCEvents.EnemyType",
                  "name": "enemyType",
                  "type": "uint8"
                },
                {
                  "internalType": "enum BCEvents.EnemyPlacement",
                  "name": "wheretoPlace",
                  "type": "uint8"
                },
                {
                  "internalType": "uint8",
                  "name": "grantData",
                  "type": "uint8"
                },
                {
                  "internalType": "uint8",
                  "name": "grantNumItems",
                  "type": "uint8"
                },
                {
                  "internalType": "uint8",
                  "name": "takeNumItems",
                  "type": "uint8"
                },
                {
                  "internalType": "enum BCEvents.MovePlayer",
                  "name": "moveType",
                  "type": "uint8"
                },
                {
                  "internalType": "uint8",
                  "name": "trapPlayerEscapeRoll",
                  "type": "uint8"
                },
                {
                  "internalType": "uint8",
                  "name": "grantAbility",
                  "type": "uint8"
                },
                {
                  "internalType": "uint8",
                  "name": "lockDoorStrength",
                  "type": "uint8"
                },
                {
                  "components": [
                    {
                      "internalType": "int8",
                      "name": "health",
                      "type": "int8"
                    },
                    {
                      "internalType": "int8",
                      "name": "carry",
                      "type": "int8"
                    },
                    {
                      "internalType": "int8",
                      "name": "defense",
                      "type": "int8"
                    },
                    {
                      "internalType": "int8",
                      "name": "hack",
                      "type": "int8"
                    },
                    {
                      "internalType": "int8",
                      "name": "breach",
                      "type": "int8"
                    },
                    {
                      "internalType": "int8",
                      "name": "shoot",
                      "type": "int8"
                    },
                    {
                      "internalType": "int8",
                      "name": "melee",
                      "type": "int8"
                    }
                  ],
                  "internalType": "struct BCTypes.Traits",
                  "name": "traitModifiers",
                  "type": "tuple"
                }
              ],
              "internalType": "struct BCEvents.BCEffect",
              "name": "highEffect",
              "type": "tuple"
            }
          ],
          "internalType": "struct BCEvents.BCEvent",
          "name": "",
          "type": "tuple"
        }
      ],
      "stateMutability": "view",
      "type": "function"
    },
    {
      "inputs": [
        {
          "internalType": "bool",
          "name": "_roomEvent",
          "type": "bool"
        },
        {
          "internalType": "uint256",
          "name": "_id",
          "type": "uint256"
        }
      ],
      "name": "extGetEffects",
      "outputs": [
        {
          "components": [
            {
              "internalType": "bool",
              "name": "permanent",
              "type": "bool"
            },
            {
              "internalType": "bool",
              "name": "fullHealth",
              "type": "bool"
            },
            {
              "internalType": "bool",
              "name": "instantDeath",
              "type": "bool"
            },
            {
              "internalType": "bool",
              "name": "placeHazard",
              "type": "bool"
            },
            {
              "internalType": "bool",
              "name": "grantEgg",
              "type": "bool"
            },
            {
              "internalType": "uint8",
              "name": "healAmt",
              "type": "uint8"
            },
            {
              "internalType": "uint8",
              "name": "healArmorAmt",
              "type": "uint8"
            },
            {
              "internalType": "uint8",
              "name": "hazardDamage",
              "type": "uint8"
            },
            {
              "internalType": "uint8",
              "name": "physicalDamage",
              "type": "uint8"
            },
            {
              "internalType": "uint8",
              "name": "numEnemyToPlace",
              "type": "uint8"
            },
            {
              "internalType": "enum BCEvents.EnemyType",
              "name": "enemyType",
              "type": "uint8"
            },
            {
              "internalType": "enum BCEvents.EnemyPlacement",
              "name": "wheretoPlace",
              "type": "uint8"
            },
            {
              "internalType": "uint8",
              "name": "grantData",
              "type": "uint8"
            },
            {
              "internalType": "uint8",
              "name": "grantNumItems",
              "type": "uint8"
            },
            {
              "internalType": "uint8",
              "name": "takeNumItems",
              "type": "uint8"
            },
            {
              "internalType": "enum BCEvents.MovePlayer",
              "name": "moveType",
              "type": "uint8"
            },
            {
              "internalType": "uint8",
              "name": "trapPlayerEscapeRoll",
              "type": "uint8"
            },
            {
              "internalType": "uint8",
              "name": "grantAbility",
              "type": "uint8"
            },
            {
              "internalType": "uint8",
              "name": "lockDoorStrength",
              "type": "uint8"
            },
            {
              "components": [
                {
                  "internalType": "int8",
                  "name": "health",
                  "type": "int8"
                },
                {
                  "internalType": "int8",
                  "name": "carry",
                  "type": "int8"
                },
                {
                  "internalType": "int8",
                  "name": "defense",
                  "type": "int8"
                },
                {
                  "internalType": "int8",
                  "name": "hack",
                  "type": "int8"
                },
                {
                  "internalType": "int8",
                  "name": "breach",
                  "type": "int8"
                },
                {
                  "internalType": "int8",
                  "name": "shoot",
                  "type": "int8"
                },
                {
                  "internalType": "int8",
                  "name": "melee",
                  "type": "int8"
                }
              ],
              "internalType": "struct BCTypes.Traits",
              "name": "traitModifiers",
              "type": "tuple"
            }
          ],
          "internalType": "struct BCEvents.BCEffect[]",
          "name": "",
          "type": "tuple[]"
        }
      ],
      "stateMutability": "view",
      "type": "function"
    },
    {
      "inputs": [
        {
          "internalType": "uint256",
          "name": "_id",
          "type": "uint256"
        }
      ],
      "name": "extGetRoomEvent",
      "outputs": [
        {
          "components": [
            {
              "internalType": "uint256",
              "name": "id",
              "type": "uint256"
            },
            {
              "internalType": "bool",
              "name": "permanent",
              "type": "bool"
            },
            {
              "internalType": "uint8",
              "name": "rollForLow",
              "type": "uint8"
            },
            {
              "internalType": "uint8",
              "name": "rollForHigh",
              "type": "uint8"
            },
            {
              "components": [
                {
                  "internalType": "bool",
                  "name": "permanent",
                  "type": "bool"
                },
                {
                  "internalType": "bool",
                  "name": "fullHealth",
                  "type": "bool"
                },
                {
                  "internalType": "bool",
                  "name": "instantDeath",
                  "type": "bool"
                },
                {
                  "internalType": "bool",
                  "name": "placeHazard",
                  "type": "bool"
                },
                {
                  "internalType": "bool",
                  "name": "grantEgg",
                  "type": "bool"
                },
                {
                  "internalType": "uint8",
                  "name": "healAmt",
                  "type": "uint8"
                },
                {
                  "internalType": "uint8",
                  "name": "healArmorAmt",
                  "type": "uint8"
                },
                {
                  "internalType": "uint8",
                  "name": "hazardDamage",
                  "type": "uint8"
                },
                {
                  "internalType": "uint8",
                  "name": "physicalDamage",
                  "type": "uint8"
                },
                {
                  "internalType": "uint8",
                  "name": "numEnemyToPlace",
                  "type": "uint8"
                },
                {
                  "internalType": "enum BCEvents.EnemyType",
                  "name": "enemyType",
                  "type": "uint8"
                },
                {
                  "internalType": "enum BCEvents.EnemyPlacement",
                  "name": "wheretoPlace",
                  "type": "uint8"
                },
                {
                  "internalType": "uint8",
                  "name": "grantData",
                  "type": "uint8"
                },
                {
                  "internalType": "uint8",
                  "name": "grantNumItems",
                  "type": "uint8"
                },
                {
                  "internalType": "uint8",
                  "name": "takeNumItems",
                  "type": "uint8"
                },
                {
                  "internalType": "enum BCEvents.MovePlayer",
                  "name": "moveType",
                  "type": "uint8"
                },
                {
                  "internalType": "uint8",
                  "name": "trapPlayerEscapeRoll",
                  "type": "uint8"
                },
                {
                  "internalType": "uint8",
                  "name": "grantAbility",
                  "type": "uint8"
                },
                {
                  "internalType": "uint8",
                  "name": "lockDoorStrength",
                  "type": "uint8"
                },
                {
                  "components": [
                    {
                      "internalType": "int8",
                      "name": "health",
                      "type": "int8"
                    },
                    {
                      "internalType": "int8",
                      "name": "carry",
                      "type": "int8"
                    },
                    {
                      "internalType": "int8",
                      "name": "defense",
                      "type": "int8"
                    },
                    {
                      "internalType": "int8",
                      "name": "hack",
                      "type": "int8"
                    },
                    {
                      "internalType": "int8",
                      "name": "breach",
                      "type": "int8"
                    },
                    {
                      "internalType": "int8",
                      "name": "shoot",
                      "type": "int8"
                    },
                    {
                      "internalType": "int8",
                      "name": "melee",
                      "type": "int8"
                    }
                  ],
                  "internalType": "struct BCTypes.Traits",
                  "name": "traitModifiers",
                  "type": "tuple"
                }
              ],
              "internalType": "struct BCEvents.BCEffect",
              "name": "defaultEffect",
              "type": "tuple"
            },
            {
              "components": [
                {
                  "internalType": "bool",
                  "name": "permanent",
                  "type": "bool"
                },
                {
                  "internalType": "bool",
                  "name": "fullHealth",
                  "type": "bool"
                },
                {
                  "internalType": "bool",
                  "name": "instantDeath",
                  "type": "bool"
                },
                {
                  "internalType": "bool",
                  "name": "placeHazard",
                  "type": "bool"
                },
                {
                  "internalType": "bool",
                  "name": "grantEgg",
                  "type": "bool"
                },
                {
                  "internalType": "uint8",
                  "name": "healAmt",
                  "type": "uint8"
                },
                {
                  "internalType": "uint8",
                  "name": "healArmorAmt",
                  "type": "uint8"
                },
                {
                  "internalType": "uint8",
                  "name": "hazardDamage",
                  "type": "uint8"
                },
                {
                  "internalType": "uint8",
                  "name": "physicalDamage",
                  "type": "uint8"
                },
                {
                  "internalType": "uint8",
                  "name": "numEnemyToPlace",
                  "type": "uint8"
                },
                {
                  "internalType": "enum BCEvents.EnemyType",
                  "name": "enemyType",
                  "type": "uint8"
                },
                {
                  "internalType": "enum BCEvents.EnemyPlacement",
                  "name": "wheretoPlace",
                  "type": "uint8"
                },
                {
                  "internalType": "uint8",
                  "name": "grantData",
                  "type": "uint8"
                },
                {
                  "internalType": "uint8",
                  "name": "grantNumItems",
                  "type": "uint8"
                },
                {
                  "internalType": "uint8",
                  "name": "takeNumItems",
                  "type": "uint8"
                },
                {
                  "internalType": "enum BCEvents.MovePlayer",
                  "name": "moveType",
                  "type": "uint8"
                },
                {
                  "internalType": "uint8",
                  "name": "trapPlayerEscapeRoll",
                  "type": "uint8"
                },
                {
                  "internalType": "uint8",
                  "name": "grantAbility",
                  "type": "uint8"
                },
                {
                  "internalType": "uint8",
                  "name": "lockDoorStrength",
                  "type": "uint8"
                },
                {
                  "components": [
                    {
                      "internalType": "int8",
                      "name": "health",
                      "type": "int8"
                    },
                    {
                      "internalType": "int8",
                      "name": "carry",
                      "type": "int8"
                    },
                    {
                      "internalType": "int8",
                      "name": "defense",
                      "type": "int8"
                    },
                    {
                      "internalType": "int8",
                      "name": "hack",
                      "type": "int8"
                    },
                    {
                      "internalType": "int8",
                      "name": "breach",
                      "type": "int8"
                    },
                    {
                      "internalType": "int8",
                      "name": "shoot",
                      "type": "int8"
                    },
                    {
                      "internalType": "int8",
                      "name": "melee",
                      "type": "int8"
                    }
                  ],
                  "internalType": "struct BCTypes.Traits",
                  "name": "traitModifiers",
                  "type": "tuple"
                }
              ],
              "internalType": "struct BCEvents.BCEffect",
              "name": "lowEffect",
              "type": "tuple"
            },
            {
              "components": [
                {
                  "internalType": "bool",
                  "name": "permanent",
                  "type": "bool"
                },
                {
                  "internalType": "bool",
                  "name": "fullHealth",
                  "type": "bool"
                },
                {
                  "internalType": "bool",
                  "name": "instantDeath",
                  "type": "bool"
                },
                {
                  "internalType": "bool",
                  "name": "placeHazard",
                  "type": "bool"
                },
                {
                  "internalType": "bool",
                  "name": "grantEgg",
                  "type": "bool"
                },
                {
                  "internalType": "uint8",
                  "name": "healAmt",
                  "type": "uint8"
                },
                {
                  "internalType": "uint8",
                  "name": "healArmorAmt",
                  "type": "uint8"
                },
                {
                  "internalType": "uint8",
                  "name": "hazardDamage",
                  "type": "uint8"
                },
                {
                  "internalType": "uint8",
                  "name": "physicalDamage",
                  "type": "uint8"
                },
                {
                  "internalType": "uint8",
                  "name": "numEnemyToPlace",
                  "type": "uint8"
                },
                {
                  "internalType": "enum BCEvents.EnemyType",
                  "name": "enemyType",
                  "type": "uint8"
                },
                {
                  "internalType": "enum BCEvents.EnemyPlacement",
                  "name": "wheretoPlace",
                  "type": "uint8"
                },
                {
                  "internalType": "uint8",
                  "name": "grantData",
                  "type": "uint8"
                },
                {
                  "internalType": "uint8",
                  "name": "grantNumItems",
                  "type": "uint8"
                },
                {
                  "internalType": "uint8",
                  "name": "takeNumItems",
                  "type": "uint8"
                },
                {
                  "internalType": "enum BCEvents.MovePlayer",
                  "name": "moveType",
                  "type": "uint8"
                },
                {
                  "internalType": "uint8",
                  "name": "trapPlayerEscapeRoll",
                  "type": "uint8"
                },
                {
                  "internalType": "uint8",
                  "name": "grantAbility",
                  "type": "uint8"
                },
                {
                  "internalType": "uint8",
                  "name": "lockDoorStrength",
                  "type": "uint8"
                },
                {
                  "components": [
                    {
                      "internalType": "int8",
                      "name": "health",
                      "type": "int8"
                    },
                    {
                      "internalType": "int8",
                      "name": "carry",
                      "type": "int8"
                    },
                    {
                      "internalType": "int8",
                      "name": "defense",
                      "type": "int8"
                    },
                    {
                      "internalType": "int8",
                      "name": "hack",
                      "type": "int8"
                    },
                    {
                      "internalType": "int8",
                      "name": "breach",
                      "type": "int8"
                    },
                    {
                      "internalType": "int8",
                      "name": "shoot",
                      "type": "int8"
                    },
                    {
                      "internalType": "int8",
                      "name": "melee",
                      "type": "int8"
                    }
                  ],
                  "internalType": "struct BCTypes.Traits",
                  "name": "traitModifiers",
                  "type": "tuple"
                }
              ],
              "internalType": "struct BCEvents.BCEffect",
              "name": "highEffect",
              "type": "tuple"
            }
          ],
          "internalType": "struct BCEvents.BCEvent",
          "name": "",
          "type": "tuple"
        }
      ],
      "stateMutability": "view",
      "type": "function"
    },
    {
      "inputs": [
        {
          "internalType": "bool",
          "name": "_roomEvent",
          "type": "bool"
        },
        {
          "internalType": "uint256",
          "name": "_id",
          "type": "uint256"
        },
        {
          "internalType": "uint256",
          "name": "_effect",
          "type": "uint256"
        }
      ],
      "name": "extGetTraitModForEffect",
      "outputs": [
        {
          "components": [
            {
              "internalType": "int8",
              "name": "health",
              "type": "int8"
            },
            {
              "internalType": "int8",
              "name": "carry",
              "type": "int8"
            },
            {
              "internalType": "int8",
              "name": "defense",
              "type": "int8"
            },
            {
              "internalType": "int8",
              "name": "hack",
              "type": "int8"
            },
            {
              "internalType": "int8",
              "name": "breach",
              "type": "int8"
            },
            {
              "internalType": "int8",
              "name": "shoot",
              "type": "int8"
            },
            {
              "internalType": "int8",
              "name": "melee",
              "type": "int8"
            }
          ],
          "internalType": "struct BCTypes.Traits",
          "name": "",
          "type": "tuple"
        }
      ],
      "stateMutability": "view",
      "type": "function"
    },
    {
      "inputs": [],
      "name": "owner",
      "outputs": [
        {
          "internalType": "address",
          "name": "",
          "type": "address"
        }
      ],
      "stateMutability": "view",
      "type": "function"
    },
    {
      "inputs": [],
      "name": "renounceOwnership",
      "outputs": [],
      "stateMutability": "nonpayable",
      "type": "function"
    },
    {
      "inputs": [
        {
          "internalType": "address",
          "name": "newOwner",
          "type": "address"
        }
      ],
      "name": "transferOwnership",
      "outputs": [],
      "stateMutability": "nonpayable",
      "type": "function"
    }
  ],
  "transactionHash": "0xab39819abf6c74bba9923f46562aef6260424c751ab6d1145f000d5618dc7158",
  "args": [],
  "numDeployments": 2,
  "solcInputHash": "b8f0c7d5da28a8474dbe47fb7941425d",
  "bytecode": "0x60806040523480156200001157600080fd5b5062000032620000266200005860201b60201c565b6200006060201b60201c565b620000426200012460201b60201c565b620000526200784360201b60201c565b620085fe565b600033905090565b60008060009054906101000a900473ffffffffffffffffffffffffffffffffffffffff169050816000806101000a81548173ffffffffffffffffffffffffffffffffffffffff021916908373ffffffffffffffffffffffffffffffffffffffff1602179055508173ffffffffffffffffffffffffffffffffffffffff168173ffffffffffffffffffffffffffffffffffffffff167f8be0079c531659141344cd1fd0a4f28419497f9722a3daafe3b4186f6b6457e060405160405180910390a35050565b6200012e62008479565b62000138620084c4565b60016040518060e0016040528060008152602001600015158152602001600060ff168152602001600060ff1681526020018381526020018381526020018381525090806001815401808255809150506001900390600052602060002090600802016000909190919091506000820151816000015560208201518160010160006101000a81548160ff02191690831515021790555060408201518160010160016101000a81548160ff021916908360ff16021790555060608201518160010160026101000a81548160ff021916908360ff16021790555060808201518160020160008201518160000160006101000a81548160ff02191690831515021790555060208201518160000160016101000a81548160ff02191690831515021790555060408201518160000160026101000a81548160ff02191690831515021790555060608201518160000160036101000a81548160ff02191690831515021790555060808201518160000160046101000a81548160ff02191690831515021790555060a08201518160000160056101000a81548160ff021916908360ff16021790555060c08201518160000160066101000a81548160ff021916908360ff16021790555060e08201518160000160076101000a81548160ff021916908360ff1602179055506101008201518160000160086101000a81548160ff021916908360ff1602179055506101208201518160000160096101000a81548160ff021916908360ff16021790555061014082015181600001600a6101000a81548160ff021916908360048111156200038d576200038c620085cf565b5b021790555061016082015181600001600b6101000a81548160ff02191690836003811115620003c157620003c0620085cf565b5b021790555061018082015181600001600c6101000a81548160ff021916908360ff1602179055506101a082015181600001600d6101000a81548160ff021916908360ff1602179055506101c082015181600001600e6101000a81548160ff021916908360ff1602179055506101e082015181600001600f6101000a81548160ff021916908360058111156200045b576200045a620085cf565b5b02179055506102008201518160000160106101000a81548160ff021916908360ff1602179055506102208201518160000160116101000a81548160ff021916908360ff1602179055506102408201518160000160126101000a81548160ff021916908360ff1602179055506102608201518160010160008201518160000160006101000a81548160ff021916908360000b60ff16021790555060208201518160000160016101000a81548160ff021916908360000b60ff16021790555060408201518160000160026101000a81548160ff021916908360000b60ff16021790555060608201518160000160036101000a81548160ff021916908360000b60ff16021790555060808201518160000160046101000a81548160ff021916908360000b60ff16021790555060a08201518160000160056101000a81548160ff021916908360000b60ff16021790555060c08201518160000160066101000a81548160ff021916908360000b60ff1602179055505050505060a08201518160040160008201518160000160006101000a81548160ff02191690831515021790555060208201518160000160016101000a81548160ff02191690831515021790555060408201518160000160026101000a81548160ff02191690831515021790555060608201518160000160036101000a81548160ff02191690831515021790555060808201518160000160046101000a81548160ff02191690831515021790555060a08201518160000160056101000a81548160ff021916908360ff16021790555060c08201518160000160066101000a81548160ff021916908360ff16021790555060e08201518160000160076101000a81548160ff021916908360ff1602179055506101008201518160000160086101000a81548160ff021916908360ff1602179055506101208201518160000160096101000a81548160ff021916908360ff16021790555061014082015181600001600a6101000a81548160ff021916908360048111156200074f576200074e620085cf565b5b021790555061016082015181600001600b6101000a81548160ff02191690836003811115620007835762000782620085cf565b5b021790555061018082015181600001600c6101000a81548160ff021916908360ff1602179055506101a082015181600001600d6101000a81548160ff021916908360ff1602179055506101c082015181600001600e6101000a81548160ff021916908360ff1602179055506101e082015181600001600f6101000a81548160ff021916908360058111156200081d576200081c620085cf565b5b02179055506102008201518160000160106101000a81548160ff021916908360ff1602179055506102208201518160000160116101000a81548160ff021916908360ff1602179055506102408201518160000160126101000a81548160ff021916908360ff1602179055506102608201518160010160008201518160000160006101000a81548160ff021916908360000b60ff16021790555060208201518160000160016101000a81548160ff021916908360000b60ff16021790555060408201518160000160026101000a81548160ff021916908360000b60ff16021790555060608201518160000160036101000a81548160ff021916908360000b60ff16021790555060808201518160000160046101000a81548160ff021916908360000b60ff16021790555060a08201518160000160056101000a81548160ff021916908360000b60ff16021790555060c08201518160000160066101000a81548160ff021916908360000b60ff1602179055505050505060c08201518160060160008201518160000160006101000a81548160ff02191690831515021790555060208201518160000160016101000a81548160ff02191690831515021790555060408201518160000160026101000a81548160ff02191690831515021790555060608201518160000160036101000a81548160ff02191690831515021790555060808201518160000160046101000a81548160ff02191690831515021790555060a08201518160000160056101000a81548160ff021916908360ff16021790555060c08201518160000160066101000a81548160ff021916908360ff16021790555060e08201518160000160076101000a81548160ff021916908360ff1602179055506101008201518160000160086101000a81548160ff021916908360ff1602179055506101208201518160000160096101000a81548160ff021916908360ff16021790555061014082015181600001600a6101000a81548160ff0219169083600481111562000b115762000b10620085cf565b5b021790555061016082015181600001600b6101000a81548160ff0219169083600381111562000b455762000b44620085cf565b5b021790555061018082015181600001600c6101000a81548160ff021916908360ff1602179055506101a082015181600001600d6101000a81548160ff021916908360ff1602179055506101c082015181600001600e6101000a81548160ff021916908360ff1602179055506101e082015181600001600f6101000a81548160ff0219169083600581111562000bdf5762000bde620085cf565b5b02179055506102008201518160000160106101000a81548160ff021916908360ff1602179055506102208201518160000160116101000a81548160ff021916908360ff1602179055506102408201518160000160126101000a81548160ff021916908360ff1602179055506102608201518160010160008201518160000160006101000a81548160ff021916908360000b60ff16021790555060208201518160000160016101000a81548160ff021916908360000b60ff16021790555060408201518160000160026101000a81548160ff021916908360000b60ff16021790555060608201518160000160036101000a81548160ff021916908360000b60ff16021790555060808201518160000160046101000a81548160ff021916908360000b60ff16021790555060a08201518160000160056101000a81548160ff021916908360000b60ff16021790555060c08201518160000160066101000a81548160ff021916908360000b60ff16021790555050505050505060016040518060e0016040528062030d418152602001600015158152602001600060ff168152602001600060ff168152602001604051806102800160405280600015158152602001600015158152602001600015158152602001600115158152602001600015158152602001600060ff168152602001600060ff168152602001600160ff168152602001600060ff168152602001600060ff1681526020016000600481111562000e0b5762000e0a620085cf565b5b81526020016000600381111562000e275762000e26620085cf565b5b8152602001600060ff168152602001600060ff168152602001600060ff1681526020016000600581111562000e615762000e60620085cf565b5b8152602001600060ff168152602001600060ff168152602001600060ff1681526020018681525081526020018381526020018381525090806001815401808255809150506001900390600052602060002090600802016000909190919091506000820151816000015560208201518160010160006101000a81548160ff02191690831515021790555060408201518160010160016101000a81548160ff021916908360ff16021790555060608201518160010160026101000a81548160ff021916908360ff16021790555060808201518160020160008201518160000160006101000a81548160ff02191690831515021790555060208201518160000160016101000a81548160ff02191690831515021790555060408201518160000160026101000a81548160ff02191690831515021790555060608201518160000160036101000a81548160ff02191690831515021790555060808201518160000160046101000a81548160ff02191690831515021790555060a08201518160000160056101000a81548160ff021916908360ff16021790555060c08201518160000160066101000a81548160ff021916908360ff16021790555060e08201518160000160076101000a81548160ff021916908360ff1602179055506101008201518160000160086101000a81548160ff021916908360ff1602179055506101208201518160000160096101000a81548160ff021916908360ff16021790555061014082015181600001600a6101000a81548160ff02191690836004811115620010ab57620010aa620085cf565b5b021790555061016082015181600001600b6101000a81548160ff02191690836003811115620010df57620010de620085cf565b5b021790555061018082015181600001600c6101000a81548160ff021916908360ff1602179055506101a082015181600001600d6101000a81548160ff021916908360ff1602179055506101c082015181600001600e6101000a81548160ff021916908360ff1602179055506101e082015181600001600f6101000a81548160ff02191690836005811115620011795762001178620085cf565b5b02179055506102008201518160000160106101000a81548160ff021916908360ff1602179055506102208201518160000160116101000a81548160ff021916908360ff1602179055506102408201518160000160126101000a81548160ff021916908360ff1602179055506102608201518160010160008201518160000160006101000a81548160ff021916908360000b60ff16021790555060208201518160000160016101000a81548160ff021916908360000b60ff16021790555060408201518160000160026101000a81548160ff021916908360000b60ff16021790555060608201518160000160036101000a81548160ff021916908360000b60ff16021790555060808201518160000160046101000a81548160ff021916908360000b60ff16021790555060a08201518160000160056101000a81548160ff021916908360000b60ff16021790555060c08201518160000160066101000a81548160ff021916908360000b60ff1602179055505050505060a08201518160040160008201518160000160006101000a81548160ff02191690831515021790555060208201518160000160016101000a81548160ff02191690831515021790555060408201518160000160026101000a81548160ff02191690831515021790555060608201518160000160036101000a81548160ff02191690831515021790555060808201518160000160046101000a81548160ff02191690831515021790555060a08201518160000160056101000a81548160ff021916908360ff16021790555060c08201518160000160066101000a81548160ff021916908360ff16021790555060e08201518160000160076101000a81548160ff021916908360ff1602179055506101008201518160000160086101000a81548160ff021916908360ff1602179055506101208201518160000160096101000a81548160ff021916908360ff16021790555061014082015181600001600a6101000a81548160ff021916908360048111156200146d576200146c620085cf565b5b021790555061016082015181600001600b6101000a81548160ff02191690836003811115620014a157620014a0620085cf565b5b021790555061018082015181600001600c6101000a81548160ff021916908360ff1602179055506101a082015181600001600d6101000a81548160ff021916908360ff1602179055506101c082015181600001600e6101000a81548160ff021916908360ff1602179055506101e082015181600001600f6101000a81548160ff021916908360058111156200153b576200153a620085cf565b5b02179055506102008201518160000160106101000a81548160ff021916908360ff1602179055506102208201518160000160116101000a81548160ff021916908360ff1602179055506102408201518160000160126101000a81548160ff021916908360ff1602179055506102608201518160010160008201518160000160006101000a81548160ff021916908360000b60ff16021790555060208201518160000160016101000a81548160ff021916908360000b60ff16021790555060408201518160000160026101000a81548160ff021916908360000b60ff16021790555060608201518160000160036101000a81548160ff021916908360000b60ff16021790555060808201518160000160046101000a81548160ff021916908360000b60ff16021790555060a08201518160000160056101000a81548160ff021916908360000b60ff16021790555060c08201518160000160066101000a81548160ff021916908360000b60ff1602179055505050505060c08201518160060160008201518160000160006101000a81548160ff02191690831515021790555060208201518160000160016101000a81548160ff02191690831515021790555060408201518160000160026101000a81548160ff02191690831515021790555060608201518160000160036101000a81548160ff02191690831515021790555060808201518160000160046101000a81548160ff02191690831515021790555060a08201518160000160056101000a81548160ff021916908360ff16021790555060c08201518160000160066101000a81548160ff021916908360ff16021790555060e08201518160000160076101000a81548160ff021916908360ff1602179055506101008201518160000160086101000a81548160ff021916908360ff1602179055506101208201518160000160096101000a81548160ff021916908360ff16021790555061014082015181600001600a6101000a81548160ff021916908360048111156200182f576200182e620085cf565b5b021790555061016082015181600001600b6101000a81548160ff02191690836003811115620018635762001862620085cf565b5b021790555061018082015181600001600c6101000a81548160ff021916908360ff1602179055506101a082015181600001600d6101000a81548160ff021916908360ff1602179055506101c082015181600001600e6101000a81548160ff021916908360ff1602179055506101e082015181600001600f6101000a81548160ff02191690836005811115620018fd57620018fc620085cf565b5b02179055506102008201518160000160106101000a81548160ff021916908360ff1602179055506102208201518160000160116101000a81548160ff021916908360ff1602179055506102408201518160000160126101000a81548160ff021916908360ff1602179055506102608201518160010160008201518160000160006101000a81548160ff021916908360000b60ff16021790555060208201518160000160016101000a81548160ff021916908360000b60ff16021790555060408201518160000160026101000a81548160ff021916908360000b60ff16021790555060608201518160000160036101000a81548160ff021916908360000b60ff16021790555060808201518160000160046101000a81548160ff021916908360000b60ff16021790555060a08201518160000160056101000a81548160ff021916908360000b60ff16021790555060c08201518160000160066101000a81548160ff021916908360000b60ff16021790555050505050505060016040518060e0016040528062030d428152602001600115158152602001600260ff168152602001600660ff168152602001838152602001604051806102800160405280600015158152602001600015158152602001600015158152602001600015158152602001600015158152602001600060ff168152602001600060ff168152602001600060ff168152602001600160ff168152602001600160ff16815260200160048081111562001b2e5762001b2d620085cf565b5b81526020016001600381111562001b4a5762001b49620085cf565b5b8152602001600060ff168152602001600060ff168152602001600060ff1681526020016000600581111562001b845762001b83620085cf565b5b8152602001600060ff168152602001600060ff168152602001600060ff168152602001868152508152602001604051806102800160405280600015158152602001600015158152602001600015158152602001600015158152602001600115158152602001600060ff168152602001600060ff168152602001600060ff168152602001600060ff168152602001600060ff1681526020016000600481111562001c325762001c31620085cf565b5b81526020016000600381111562001c4e5762001c4d620085cf565b5b8152602001600060ff168152602001600060ff168152602001600060ff1681526020016000600581111562001c885762001c87620085cf565b5b8152602001600060ff168152602001600060ff168152602001600060ff1681526020018681525081525090806001815401808255809150506001900390600052602060002090600802016000909190919091506000820151816000015560208201518160010160006101000a81548160ff02191690831515021790555060408201518160010160016101000a81548160ff021916908360ff16021790555060608201518160010160026101000a81548160ff021916908360ff16021790555060808201518160020160008201518160000160006101000a81548160ff02191690831515021790555060208201518160000160016101000a81548160ff02191690831515021790555060408201518160000160026101000a81548160ff02191690831515021790555060608201518160000160036101000a81548160ff02191690831515021790555060808201518160000160046101000a81548160ff02191690831515021790555060a08201518160000160056101000a81548160ff021916908360ff16021790555060c08201518160000160066101000a81548160ff021916908360ff16021790555060e08201518160000160076101000a81548160ff021916908360ff1602179055506101008201518160000160086101000a81548160ff021916908360ff1602179055506101208201518160000160096101000a81548160ff021916908360ff16021790555061014082015181600001600a6101000a81548160ff0219169083600481111562001ec65762001ec5620085cf565b5b021790555061016082015181600001600b6101000a81548160ff0219169083600381111562001efa5762001ef9620085cf565b5b021790555061018082015181600001600c6101000a81548160ff021916908360ff1602179055506101a082015181600001600d6101000a81548160ff021916908360ff1602179055506101c082015181600001600e6101000a81548160ff021916908360ff1602179055506101e082015181600001600f6101000a81548160ff0219169083600581111562001f945762001f93620085cf565b5b02179055506102008201518160000160106101000a81548160ff021916908360ff1602179055506102208201518160000160116101000a81548160ff021916908360ff1602179055506102408201518160000160126101000a81548160ff021916908360ff1602179055506102608201518160010160008201518160000160006101000a81548160ff021916908360000b60ff16021790555060208201518160000160016101000a81548160ff021916908360000b60ff16021790555060408201518160000160026101000a81548160ff021916908360000b60ff16021790555060608201518160000160036101000a81548160ff021916908360000b60ff16021790555060808201518160000160046101000a81548160ff021916908360000b60ff16021790555060a08201518160000160056101000a81548160ff021916908360000b60ff16021790555060c08201518160000160066101000a81548160ff021916908360000b60ff1602179055505050505060a08201518160040160008201518160000160006101000a81548160ff02191690831515021790555060208201518160000160016101000a81548160ff02191690831515021790555060408201518160000160026101000a81548160ff02191690831515021790555060608201518160000160036101000a81548160ff02191690831515021790555060808201518160000160046101000a81548160ff02191690831515021790555060a08201518160000160056101000a81548160ff021916908360ff16021790555060c08201518160000160066101000a81548160ff021916908360ff16021790555060e08201518160000160076101000a81548160ff021916908360ff1602179055506101008201518160000160086101000a81548160ff021916908360ff1602179055506101208201518160000160096101000a81548160ff021916908360ff16021790555061014082015181600001600a6101000a81548160ff02191690836004811115620022885762002287620085cf565b5b021790555061016082015181600001600b6101000a81548160ff02191690836003811115620022bc57620022bb620085cf565b5b021790555061018082015181600001600c6101000a81548160ff021916908360ff1602179055506101a082015181600001600d6101000a81548160ff021916908360ff1602179055506101c082015181600001600e6101000a81548160ff021916908360ff1602179055506101e082015181600001600f6101000a81548160ff02191690836005811115620023565762002355620085cf565b5b02179055506102008201518160000160106101000a81548160ff021916908360ff1602179055506102208201518160000160116101000a81548160ff021916908360ff1602179055506102408201518160000160126101000a81548160ff021916908360ff1602179055506102608201518160010160008201518160000160006101000a81548160ff021916908360000b60ff16021790555060208201518160000160016101000a81548160ff021916908360000b60ff16021790555060408201518160000160026101000a81548160ff021916908360000b60ff16021790555060608201518160000160036101000a81548160ff021916908360000b60ff16021790555060808201518160000160046101000a81548160ff021916908360000b60ff16021790555060a08201518160000160056101000a81548160ff021916908360000b60ff16021790555060c08201518160000160066101000a81548160ff021916908360000b60ff1602179055505050505060c08201518160060160008201518160000160006101000a81548160ff02191690831515021790555060208201518160000160016101000a81548160ff02191690831515021790555060408201518160000160026101000a81548160ff02191690831515021790555060608201518160000160036101000a81548160ff02191690831515021790555060808201518160000160046101000a81548160ff02191690831515021790555060a08201518160000160056101000a81548160ff021916908360ff16021790555060c08201518160000160066101000a81548160ff021916908360ff16021790555060e08201518160000160076101000a81548160ff021916908360ff1602179055506101008201518160000160086101000a81548160ff021916908360ff1602179055506101208201518160000160096101000a81548160ff021916908360ff16021790555061014082015181600001600a6101000a81548160ff021916908360048111156200264a5762002649620085cf565b5b021790555061016082015181600001600b6101000a81548160ff021916908360038111156200267e576200267d620085cf565b5b021790555061018082015181600001600c6101000a81548160ff021916908360ff1602179055506101a082015181600001600d6101000a81548160ff021916908360ff1602179055506101c082015181600001600e6101000a81548160ff021916908360ff1602179055506101e082015181600001600f6101000a81548160ff02191690836005811115620027185762002717620085cf565b5b02179055506102008201518160000160106101000a81548160ff021916908360ff1602179055506102208201518160000160116101000a81548160ff021916908360ff1602179055506102408201518160000160126101000a81548160ff021916908360ff1602179055506102608201518160010160008201518160000160006101000a81548160ff021916908360000b60ff16021790555060208201518160000160016101000a81548160ff021916908360000b60ff16021790555060408201518160000160026101000a81548160ff021916908360000b60ff16021790555060608201518160000160036101000a81548160ff021916908360000b60ff16021790555060808201518160000160046101000a81548160ff021916908360000b60ff16021790555060a08201518160000160056101000a81548160ff021916908360000b60ff16021790555060c08201518160000160066101000a81548160ff021916908360000b60ff16021790555050505050505060016040518060e0016040528062030d438152602001600015158152602001600060ff168152602001600060ff168152602001604051806102800160405280600015158152602001600015158152602001600015158152602001600015158152602001600015158152602001600060ff168152602001600060ff168152602001600060ff168152602001600060ff168152602001600360ff16815260200160036004811115620029445762002943620085cf565b5b81526020016001600381111562002960576200295f620085cf565b5b8152602001600060ff168152602001600060ff168152602001600060ff168152602001600060058111156200299a5762002999620085cf565b5b8152602001600060ff168152602001600060ff168152602001600060ff1681526020018681525081526020018381526020018381525090806001815401808255809150506001900390600052602060002090600802016000909190919091506000820151816000015560208201518160010160006101000a81548160ff02191690831515021790555060408201518160010160016101000a81548160ff021916908360ff16021790555060608201518160010160026101000a81548160ff021916908360ff16021790555060808201518160020160008201518160000160006101000a81548160ff02191690831515021790555060208201518160000160016101000a81548160ff02191690831515021790555060408201518160000160026101000a81548160ff02191690831515021790555060608201518160000160036101000a81548160ff02191690831515021790555060808201518160000160046101000a81548160ff02191690831515021790555060a08201518160000160056101000a81548160ff021916908360ff16021790555060c08201518160000160066101000a81548160ff021916908360ff16021790555060e08201518160000160076101000a81548160ff021916908360ff1602179055506101008201518160000160086101000a81548160ff021916908360ff1602179055506101208201518160000160096101000a81548160ff021916908360ff16021790555061014082015181600001600a6101000a81548160ff0219169083600481111562002be45762002be3620085cf565b5b021790555061016082015181600001600b6101000a81548160ff0219169083600381111562002c185762002c17620085cf565b5b021790555061018082015181600001600c6101000a81548160ff021916908360ff1602179055506101a082015181600001600d6101000a81548160ff021916908360ff1602179055506101c082015181600001600e6101000a81548160ff021916908360ff1602179055506101e082015181600001600f6101000a81548160ff0219169083600581111562002cb25762002cb1620085cf565b5b02179055506102008201518160000160106101000a81548160ff021916908360ff1602179055506102208201518160000160116101000a81548160ff021916908360ff1602179055506102408201518160000160126101000a81548160ff021916908360ff1602179055506102608201518160010160008201518160000160006101000a81548160ff021916908360000b60ff16021790555060208201518160000160016101000a81548160ff021916908360000b60ff16021790555060408201518160000160026101000a81548160ff021916908360000b60ff16021790555060608201518160000160036101000a81548160ff021916908360000b60ff16021790555060808201518160000160046101000a81548160ff021916908360000b60ff16021790555060a08201518160000160056101000a81548160ff021916908360000b60ff16021790555060c08201518160000160066101000a81548160ff021916908360000b60ff1602179055505050505060a08201518160040160008201518160000160006101000a81548160ff02191690831515021790555060208201518160000160016101000a81548160ff02191690831515021790555060408201518160000160026101000a81548160ff02191690831515021790555060608201518160000160036101000a81548160ff02191690831515021790555060808201518160000160046101000a81548160ff02191690831515021790555060a08201518160000160056101000a81548160ff021916908360ff16021790555060c08201518160000160066101000a81548160ff021916908360ff16021790555060e08201518160000160076101000a81548160ff021916908360ff1602179055506101008201518160000160086101000a81548160ff021916908360ff1602179055506101208201518160000160096101000a81548160ff021916908360ff16021790555061014082015181600001600a6101000a81548160ff0219169083600481111562002fa65762002fa5620085cf565b5b021790555061016082015181600001600b6101000a81548160ff0219169083600381111562002fda5762002fd9620085cf565b5b021790555061018082015181600001600c6101000a81548160ff021916908360ff1602179055506101a082015181600001600d6101000a81548160ff021916908360ff1602179055506101c082015181600001600e6101000a81548160ff021916908360ff1602179055506101e082015181600001600f6101000a81548160ff02191690836005811115620030745762003073620085cf565b5b02179055506102008201518160000160106101000a81548160ff021916908360ff1602179055506102208201518160000160116101000a81548160ff021916908360ff1602179055506102408201518160000160126101000a81548160ff021916908360ff1602179055506102608201518160010160008201518160000160006101000a81548160ff021916908360000b60ff16021790555060208201518160000160016101000a81548160ff021916908360000b60ff16021790555060408201518160000160026101000a81548160ff021916908360000b60ff16021790555060608201518160000160036101000a81548160ff021916908360000b60ff16021790555060808201518160000160046101000a81548160ff021916908360000b60ff16021790555060a08201518160000160056101000a81548160ff021916908360000b60ff16021790555060c08201518160000160066101000a81548160ff021916908360000b60ff1602179055505050505060c08201518160060160008201518160000160006101000a81548160ff02191690831515021790555060208201518160000160016101000a81548160ff02191690831515021790555060408201518160000160026101000a81548160ff02191690831515021790555060608201518160000160036101000a81548160ff02191690831515021790555060808201518160000160046101000a81548160ff02191690831515021790555060a08201518160000160056101000a81548160ff021916908360ff16021790555060c08201518160000160066101000a81548160ff021916908360ff16021790555060e08201518160000160076101000a81548160ff021916908360ff1602179055506101008201518160000160086101000a81548160ff021916908360ff1602179055506101208201518160000160096101000a81548160ff021916908360ff16021790555061014082015181600001600a6101000a81548160ff02191690836004811115620033685762003367620085cf565b5b021790555061016082015181600001600b6101000a81548160ff021916908360038111156200339c576200339b620085cf565b5b021790555061018082015181600001600c6101000a81548160ff021916908360ff1602179055506101a082015181600001600d6101000a81548160ff021916908360ff1602179055506101c082015181600001600e6101000a81548160ff021916908360ff1602179055506101e082015181600001600f6101000a81548160ff02191690836005811115620034365762003435620085cf565b5b02179055506102008201518160000160106101000a81548160ff021916908360ff1602179055506102208201518160000160116101000a81548160ff021916908360ff1602179055506102408201518160000160126101000a81548160ff021916908360ff1602179055506102608201518160010160008201518160000160006101000a81548160ff021916908360000b60ff16021790555060208201518160000160016101000a81548160ff021916908360000b60ff16021790555060408201518160000160026101000a81548160ff021916908360000b60ff16021790555060608201518160000160036101000a81548160ff021916908360000b60ff16021790555060808201518160000160046101000a81548160ff021916908360000b60ff16021790555060a08201518160000160056101000a81548160ff021916908360000b60ff16021790555060c08201518160000160066101000a81548160ff021916908360000b60ff16021790555050505050505060016040518060e0016040528062030d448152602001600115158152602001600060ff168152602001600060ff168152602001604051806102800160405280600015158152602001600015158152602001600015158152602001600015158152602001600015158152602001600060ff168152602001600060ff168152602001600060ff168152602001600060ff168152602001600060ff16815260200160006004811115620036625762003661620085cf565b5b8152602001600060038111156200367e576200367d620085cf565b5b8152602001600060ff168152602001600060ff168152602001600060ff168152602001600580811115620036b757620036b6620085cf565b5b8152602001600060ff168152602001600060ff168152602001600060ff1681526020018681525081526020018381526020018381525090806001815401808255809150506001900390600052602060002090600802016000909190919091506000820151816000015560208201518160010160006101000a81548160ff02191690831515021790555060408201518160010160016101000a81548160ff021916908360ff16021790555060608201518160010160026101000a81548160ff021916908360ff16021790555060808201518160020160008201518160000160006101000a81548160ff02191690831515021790555060208201518160000160016101000a81548160ff02191690831515021790555060408201518160000160026101000a81548160ff02191690831515021790555060608201518160000160036101000a81548160ff02191690831515021790555060808201518160000160046101000a81548160ff02191690831515021790555060a08201518160000160056101000a81548160ff021916908360ff16021790555060c08201518160000160066101000a81548160ff021916908360ff16021790555060e08201518160000160076101000a81548160ff021916908360ff1602179055506101008201518160000160086101000a81548160ff021916908360ff1602179055506101208201518160000160096101000a81548160ff021916908360ff16021790555061014082015181600001600a6101000a81548160ff02191690836004811115620039015762003900620085cf565b5b021790555061016082015181600001600b6101000a81548160ff02191690836003811115620039355762003934620085cf565b5b021790555061018082015181600001600c6101000a81548160ff021916908360ff1602179055506101a082015181600001600d6101000a81548160ff021916908360ff1602179055506101c082015181600001600e6101000a81548160ff021916908360ff1602179055506101e082015181600001600f6101000a81548160ff02191690836005811115620039cf57620039ce620085cf565b5b02179055506102008201518160000160106101000a81548160ff021916908360ff1602179055506102208201518160000160116101000a81548160ff021916908360ff1602179055506102408201518160000160126101000a81548160ff021916908360ff1602179055506102608201518160010160008201518160000160006101000a81548160ff021916908360000b60ff16021790555060208201518160000160016101000a81548160ff021916908360000b60ff16021790555060408201518160000160026101000a81548160ff021916908360000b60ff16021790555060608201518160000160036101000a81548160ff021916908360000b60ff16021790555060808201518160000160046101000a81548160ff021916908360000b60ff16021790555060a08201518160000160056101000a81548160ff021916908360000b60ff16021790555060c08201518160000160066101000a81548160ff021916908360000b60ff1602179055505050505060a08201518160040160008201518160000160006101000a81548160ff02191690831515021790555060208201518160000160016101000a81548160ff02191690831515021790555060408201518160000160026101000a81548160ff02191690831515021790555060608201518160000160036101000a81548160ff02191690831515021790555060808201518160000160046101000a81548160ff02191690831515021790555060a08201518160000160056101000a81548160ff021916908360ff16021790555060c08201518160000160066101000a81548160ff021916908360ff16021790555060e08201518160000160076101000a81548160ff021916908360ff1602179055506101008201518160000160086101000a81548160ff021916908360ff1602179055506101208201518160000160096101000a81548160ff021916908360ff16021790555061014082015181600001600a6101000a81548160ff0219169083600481111562003cc35762003cc2620085cf565b5b021790555061016082015181600001600b6101000a81548160ff0219169083600381111562003cf75762003cf6620085cf565b5b021790555061018082015181600001600c6101000a81548160ff021916908360ff1602179055506101a082015181600001600d6101000a81548160ff021916908360ff1602179055506101c082015181600001600e6101000a81548160ff021916908360ff1602179055506101e082015181600001600f6101000a81548160ff0219169083600581111562003d915762003d90620085cf565b5b02179055506102008201518160000160106101000a81548160ff021916908360ff1602179055506102208201518160000160116101000a81548160ff021916908360ff1602179055506102408201518160000160126101000a81548160ff021916908360ff1602179055506102608201518160010160008201518160000160006101000a81548160ff021916908360000b60ff16021790555060208201518160000160016101000a81548160ff021916908360000b60ff16021790555060408201518160000160026101000a81548160ff021916908360000b60ff16021790555060608201518160000160036101000a81548160ff021916908360000b60ff16021790555060808201518160000160046101000a81548160ff021916908360000b60ff16021790555060a08201518160000160056101000a81548160ff021916908360000b60ff16021790555060c08201518160000160066101000a81548160ff021916908360000b60ff1602179055505050505060c08201518160060160008201518160000160006101000a81548160ff02191690831515021790555060208201518160000160016101000a81548160ff02191690831515021790555060408201518160000160026101000a81548160ff02191690831515021790555060608201518160000160036101000a81548160ff02191690831515021790555060808201518160000160046101000a81548160ff02191690831515021790555060a08201518160000160056101000a81548160ff021916908360ff16021790555060c08201518160000160066101000a81548160ff021916908360ff16021790555060e08201518160000160076101000a81548160ff021916908360ff1602179055506101008201518160000160086101000a81548160ff021916908360ff1602179055506101208201518160000160096101000a81548160ff021916908360ff16021790555061014082015181600001600a6101000a81548160ff02191690836004811115620040855762004084620085cf565b5b021790555061016082015181600001600b6101000a81548160ff02191690836003811115620040b957620040b8620085cf565b5b021790555061018082015181600001600c6101000a81548160ff021916908360ff1602179055506101a082015181600001600d6101000a81548160ff021916908360ff1602179055506101c082015181600001600e6101000a81548160ff021916908360ff1602179055506101e082015181600001600f6101000a81548160ff02191690836005811115620041535762004152620085cf565b5b02179055506102008201518160000160106101000a81548160ff021916908360ff1602179055506102208201518160000160116101000a81548160ff021916908360ff1602179055506102408201518160000160126101000a81548160ff021916908360ff1602179055506102608201518160010160008201518160000160006101000a81548160ff021916908360000b60ff16021790555060208201518160000160016101000a81548160ff021916908360000b60ff16021790555060408201518160000160026101000a81548160ff021916908360000b60ff16021790555060608201518160000160036101000a81548160ff021916908360000b60ff16021790555060808201518160000160046101000a81548160ff021916908360000b60ff16021790555060a08201518160000160056101000a81548160ff021916908360000b60ff16021790555060c08201518160000160066101000a81548160ff021916908360000b60ff16021790555050505050505060016040518060e0016040528062030d458152602001600015158152602001600160ff168152602001600060ff168152602001604051806102800160405280600015158152602001600015158152602001600015158152602001600115158152602001600015158152602001600060ff168152602001600060ff168152602001600060ff168152602001600060ff168152602001600060ff168152602001600060048111156200437f576200437e620085cf565b5b8152602001600060038111156200439b576200439a620085cf565b5b8152602001600060ff168152602001600060ff168152602001600060ff16815260200160006005811115620043d557620043d4620085cf565b5b8152602001600060ff168152602001600060ff168152602001600060ff168152602001868152508152602001604051806102800160405280600015158152602001600015158152602001600115158152602001600115158152602001600015158152602001600060ff168152602001600060ff168152602001600060ff168152602001600060ff168152602001600060ff16815260200160006004811115620044835762004482620085cf565b5b8152602001600060038111156200449f576200449e620085cf565b5b8152602001600060ff168152602001600060ff16815260200160ff8016815260200160006005811115620044d857620044d7620085cf565b5b8152602001600060ff168152602001600060ff168152602001600060ff1681526020018681525081526020018381525090806001815401808255809150506001900390600052602060002090600802016000909190919091506000820151816000015560208201518160010160006101000a81548160ff02191690831515021790555060408201518160010160016101000a81548160ff021916908360ff16021790555060608201518160010160026101000a81548160ff021916908360ff16021790555060808201518160020160008201518160000160006101000a81548160ff02191690831515021790555060208201518160000160016101000a81548160ff02191690831515021790555060408201518160000160026101000a81548160ff02191690831515021790555060608201518160000160036101000a81548160ff02191690831515021790555060808201518160000160046101000a81548160ff02191690831515021790555060a08201518160000160056101000a81548160ff021916908360ff16021790555060c08201518160000160066101000a81548160ff021916908360ff16021790555060e08201518160000160076101000a81548160ff021916908360ff1602179055506101008201518160000160086101000a81548160ff021916908360ff1602179055506101208201518160000160096101000a81548160ff021916908360ff16021790555061014082015181600001600a6101000a81548160ff021916908360048111156200471c576200471b620085cf565b5b021790555061016082015181600001600b6101000a81548160ff0219169083600381111562004750576200474f620085cf565b5b021790555061018082015181600001600c6101000a81548160ff021916908360ff1602179055506101a082015181600001600d6101000a81548160ff021916908360ff1602179055506101c082015181600001600e6101000a81548160ff021916908360ff1602179055506101e082015181600001600f6101000a81548160ff02191690836005811115620047ea57620047e9620085cf565b5b02179055506102008201518160000160106101000a81548160ff021916908360ff1602179055506102208201518160000160116101000a81548160ff021916908360ff1602179055506102408201518160000160126101000a81548160ff021916908360ff1602179055506102608201518160010160008201518160000160006101000a81548160ff021916908360000b60ff16021790555060208201518160000160016101000a81548160ff021916908360000b60ff16021790555060408201518160000160026101000a81548160ff021916908360000b60ff16021790555060608201518160000160036101000a81548160ff021916908360000b60ff16021790555060808201518160000160046101000a81548160ff021916908360000b60ff16021790555060a08201518160000160056101000a81548160ff021916908360000b60ff16021790555060c08201518160000160066101000a81548160ff021916908360000b60ff1602179055505050505060a08201518160040160008201518160000160006101000a81548160ff02191690831515021790555060208201518160000160016101000a81548160ff02191690831515021790555060408201518160000160026101000a81548160ff02191690831515021790555060608201518160000160036101000a81548160ff02191690831515021790555060808201518160000160046101000a81548160ff02191690831515021790555060a08201518160000160056101000a81548160ff021916908360ff16021790555060c08201518160000160066101000a81548160ff021916908360ff16021790555060e08201518160000160076101000a81548160ff021916908360ff1602179055506101008201518160000160086101000a81548160ff021916908360ff1602179055506101208201518160000160096101000a81548160ff021916908360ff16021790555061014082015181600001600a6101000a81548160ff0219169083600481111562004ade5762004add620085cf565b5b021790555061016082015181600001600b6101000a81548160ff0219169083600381111562004b125762004b11620085cf565b5b021790555061018082015181600001600c6101000a81548160ff021916908360ff1602179055506101a082015181600001600d6101000a81548160ff021916908360ff1602179055506101c082015181600001600e6101000a81548160ff021916908360ff1602179055506101e082015181600001600f6101000a81548160ff0219169083600581111562004bac5762004bab620085cf565b5b02179055506102008201518160000160106101000a81548160ff021916908360ff1602179055506102208201518160000160116101000a81548160ff021916908360ff1602179055506102408201518160000160126101000a81548160ff021916908360ff1602179055506102608201518160010160008201518160000160006101000a81548160ff021916908360000b60ff16021790555060208201518160000160016101000a81548160ff021916908360000b60ff16021790555060408201518160000160026101000a81548160ff021916908360000b60ff16021790555060608201518160000160036101000a81548160ff021916908360000b60ff16021790555060808201518160000160046101000a81548160ff021916908360000b60ff16021790555060a08201518160000160056101000a81548160ff021916908360000b60ff16021790555060c08201518160000160066101000a81548160ff021916908360000b60ff1602179055505050505060c08201518160060160008201518160000160006101000a81548160ff02191690831515021790555060208201518160000160016101000a81548160ff02191690831515021790555060408201518160000160026101000a81548160ff02191690831515021790555060608201518160000160036101000a81548160ff02191690831515021790555060808201518160000160046101000a81548160ff02191690831515021790555060a08201518160000160056101000a81548160ff021916908360ff16021790555060c08201518160000160066101000a81548160ff021916908360ff16021790555060e08201518160000160076101000a81548160ff021916908360ff1602179055506101008201518160000160086101000a81548160ff021916908360ff1602179055506101208201518160000160096101000a81548160ff021916908360ff16021790555061014082015181600001600a6101000a81548160ff0219169083600481111562004ea05762004e9f620085cf565b5b021790555061016082015181600001600b6101000a81548160ff0219169083600381111562004ed45762004ed3620085cf565b5b021790555061018082015181600001600c6101000a81548160ff021916908360ff1602179055506101a082015181600001600d6101000a81548160ff021916908360ff1602179055506101c082015181600001600e6101000a81548160ff021916908360ff1602179055506101e082015181600001600f6101000a81548160ff0219169083600581111562004f6e5762004f6d620085cf565b5b02179055506102008201518160000160106101000a81548160ff021916908360ff1602179055506102208201518160000160116101000a81548160ff021916908360ff1602179055506102408201518160000160126101000a81548160ff021916908360ff1602179055506102608201518160010160008201518160000160006101000a81548160ff021916908360000b60ff16021790555060208201518160000160016101000a81548160ff021916908360000b60ff16021790555060408201518160000160026101000a81548160ff021916908360000b60ff16021790555060608201518160000160036101000a81548160ff021916908360000b60ff16021790555060808201518160000160046101000a81548160ff021916908360000b60ff16021790555060a08201518160000160056101000a81548160ff021916908360000b60ff16021790555060c08201518160000160066101000a81548160ff021916908360000b60ff16021790555050505050505060016040518060e0016040528062030d468152602001600115158152602001600060ff168152602001600060ff168152602001604051806102800160405280600015158152602001600115158152602001600015158152602001600015158152602001600015158152602001600160ff168152602001600060ff168152602001600060ff168152602001600060ff168152602001600060ff168152602001600060048111156200519a5762005199620085cf565b5b815260200160006003811115620051b657620051b5620085cf565b5b8152602001600060ff168152602001600060ff168152602001600060ff16815260200160006005811115620051f057620051ef620085cf565b5b8152602001600060ff168152602001600060ff168152602001600060ff1681526020018681525081526020018381526020018381525090806001815401808255809150506001900390600052602060002090600802016000909190919091506000820151816000015560208201518160010160006101000a81548160ff02191690831515021790555060408201518160010160016101000a81548160ff021916908360ff16021790555060608201518160010160026101000a81548160ff021916908360ff16021790555060808201518160020160008201518160000160006101000a81548160ff02191690831515021790555060208201518160000160016101000a81548160ff02191690831515021790555060408201518160000160026101000a81548160ff02191690831515021790555060608201518160000160036101000a81548160ff02191690831515021790555060808201518160000160046101000a81548160ff02191690831515021790555060a08201518160000160056101000a81548160ff021916908360ff16021790555060c08201518160000160066101000a81548160ff021916908360ff16021790555060e08201518160000160076101000a81548160ff021916908360ff1602179055506101008201518160000160086101000a81548160ff021916908360ff1602179055506101208201518160000160096101000a81548160ff021916908360ff16021790555061014082015181600001600a6101000a81548160ff021916908360048111156200543a5762005439620085cf565b5b021790555061016082015181600001600b6101000a81548160ff021916908360038111156200546e576200546d620085cf565b5b021790555061018082015181600001600c6101000a81548160ff021916908360ff1602179055506101a082015181600001600d6101000a81548160ff021916908360ff1602179055506101c082015181600001600e6101000a81548160ff021916908360ff1602179055506101e082015181600001600f6101000a81548160ff02191690836005811115620055085762005507620085cf565b5b02179055506102008201518160000160106101000a81548160ff021916908360ff1602179055506102208201518160000160116101000a81548160ff021916908360ff1602179055506102408201518160000160126101000a81548160ff021916908360ff1602179055506102608201518160010160008201518160000160006101000a81548160ff021916908360000b60ff16021790555060208201518160000160016101000a81548160ff021916908360000b60ff16021790555060408201518160000160026101000a81548160ff021916908360000b60ff16021790555060608201518160000160036101000a81548160ff021916908360000b60ff16021790555060808201518160000160046101000a81548160ff021916908360000b60ff16021790555060a08201518160000160056101000a81548160ff021916908360000b60ff16021790555060c08201518160000160066101000a81548160ff021916908360000b60ff1602179055505050505060a08201518160040160008201518160000160006101000a81548160ff02191690831515021790555060208201518160000160016101000a81548160ff02191690831515021790555060408201518160000160026101000a81548160ff02191690831515021790555060608201518160000160036101000a81548160ff02191690831515021790555060808201518160000160046101000a81548160ff02191690831515021790555060a08201518160000160056101000a81548160ff021916908360ff16021790555060c08201518160000160066101000a81548160ff021916908360ff16021790555060e08201518160000160076101000a81548160ff021916908360ff1602179055506101008201518160000160086101000a81548160ff021916908360ff1602179055506101208201518160000160096101000a81548160ff021916908360ff16021790555061014082015181600001600a6101000a81548160ff02191690836004811115620057fc57620057fb620085cf565b5b021790555061016082015181600001600b6101000a81548160ff0219169083600381111562005830576200582f620085cf565b5b021790555061018082015181600001600c6101000a81548160ff021916908360ff1602179055506101a082015181600001600d6101000a81548160ff021916908360ff1602179055506101c082015181600001600e6101000a81548160ff021916908360ff1602179055506101e082015181600001600f6101000a81548160ff02191690836005811115620058ca57620058c9620085cf565b5b02179055506102008201518160000160106101000a81548160ff021916908360ff1602179055506102208201518160000160116101000a81548160ff021916908360ff1602179055506102408201518160000160126101000a81548160ff021916908360ff1602179055506102608201518160010160008201518160000160006101000a81548160ff021916908360000b60ff16021790555060208201518160000160016101000a81548160ff021916908360000b60ff16021790555060408201518160000160026101000a81548160ff021916908360000b60ff16021790555060608201518160000160036101000a81548160ff021916908360000b60ff16021790555060808201518160000160046101000a81548160ff021916908360000b60ff16021790555060a08201518160000160056101000a81548160ff021916908360000b60ff16021790555060c08201518160000160066101000a81548160ff021916908360000b60ff1602179055505050505060c08201518160060160008201518160000160006101000a81548160ff02191690831515021790555060208201518160000160016101000a81548160ff02191690831515021790555060408201518160000160026101000a81548160ff02191690831515021790555060608201518160000160036101000a81548160ff02191690831515021790555060808201518160000160046101000a81548160ff02191690831515021790555060a08201518160000160056101000a81548160ff021916908360ff16021790555060c08201518160000160066101000a81548160ff021916908360ff16021790555060e08201518160000160076101000a81548160ff021916908360ff1602179055506101008201518160000160086101000a81548160ff021916908360ff1602179055506101208201518160000160096101000a81548160ff021916908360ff16021790555061014082015181600001600a6101000a81548160ff0219169083600481111562005bbe5762005bbd620085cf565b5b021790555061016082015181600001600b6101000a81548160ff0219169083600381111562005bf25762005bf1620085cf565b5b021790555061018082015181600001600c6101000a81548160ff021916908360ff1602179055506101a082015181600001600d6101000a81548160ff021916908360ff1602179055506101c082015181600001600e6101000a81548160ff021916908360ff1602179055506101e082015181600001600f6101000a81548160ff0219169083600581111562005c8c5762005c8b620085cf565b5b02179055506102008201518160000160106101000a81548160ff021916908360ff1602179055506102208201518160000160116101000a81548160ff021916908360ff1602179055506102408201518160000160126101000a81548160ff021916908360ff1602179055506102608201518160010160008201518160000160006101000a81548160ff021916908360000b60ff16021790555060208201518160000160016101000a81548160ff021916908360000b60ff16021790555060408201518160000160026101000a81548160ff021916908360000b60ff16021790555060608201518160000160036101000a81548160ff021916908360000b60ff16021790555060808201518160000160046101000a81548160ff021916908360000b60ff16021790555060a08201518160000160056101000a81548160ff021916908360000b60ff16021790555060c08201518160000160066101000a81548160ff021916908360000b60ff16021790555050505050505060016040518060e0016040528062030d478152602001600015158152602001600060ff168152602001600060ff168152602001604051806102800160405280600015158152602001600015158152602001600015158152602001600015158152602001600015158152602001600060ff168152602001600060ff168152602001600160ff168152602001600060ff168152602001600060ff1681526020016000600481111562005eb85762005eb7620085cf565b5b81526020016000600381111562005ed45762005ed3620085cf565b5b8152602001600060ff168152602001600060ff168152602001600060ff1681526020016000600581111562005f0e5762005f0d620085cf565b5b8152602001600060ff168152602001600060ff168152602001600060ff1681526020018681525081526020018381526020018381525090806001815401808255809150506001900390600052602060002090600802016000909190919091506000820151816000015560208201518160010160006101000a81548160ff02191690831515021790555060408201518160010160016101000a81548160ff021916908360ff16021790555060608201518160010160026101000a81548160ff021916908360ff16021790555060808201518160020160008201518160000160006101000a81548160ff02191690831515021790555060208201518160000160016101000a81548160ff02191690831515021790555060408201518160000160026101000a81548160ff02191690831515021790555060608201518160000160036101000a81548160ff02191690831515021790555060808201518160000160046101000a81548160ff02191690831515021790555060a08201518160000160056101000a81548160ff021916908360ff16021790555060c08201518160000160066101000a81548160ff021916908360ff16021790555060e08201518160000160076101000a81548160ff021916908360ff1602179055506101008201518160000160086101000a81548160ff021916908360ff1602179055506101208201518160000160096101000a81548160ff021916908360ff16021790555061014082015181600001600a6101000a81548160ff02191690836004811115620061585762006157620085cf565b5b021790555061016082015181600001600b6101000a81548160ff021916908360038111156200618c576200618b620085cf565b5b021790555061018082015181600001600c6101000a81548160ff021916908360ff1602179055506101a082015181600001600d6101000a81548160ff021916908360ff1602179055506101c082015181600001600e6101000a81548160ff021916908360ff1602179055506101e082015181600001600f6101000a81548160ff02191690836005811115620062265762006225620085cf565b5b02179055506102008201518160000160106101000a81548160ff021916908360ff1602179055506102208201518160000160116101000a81548160ff021916908360ff1602179055506102408201518160000160126101000a81548160ff021916908360ff1602179055506102608201518160010160008201518160000160006101000a81548160ff021916908360000b60ff16021790555060208201518160000160016101000a81548160ff021916908360000b60ff16021790555060408201518160000160026101000a81548160ff021916908360000b60ff16021790555060608201518160000160036101000a81548160ff021916908360000b60ff16021790555060808201518160000160046101000a81548160ff021916908360000b60ff16021790555060a08201518160000160056101000a81548160ff021916908360000b60ff16021790555060c08201518160000160066101000a81548160ff021916908360000b60ff1602179055505050505060a08201518160040160008201518160000160006101000a81548160ff02191690831515021790555060208201518160000160016101000a81548160ff02191690831515021790555060408201518160000160026101000a81548160ff02191690831515021790555060608201518160000160036101000a81548160ff02191690831515021790555060808201518160000160046101000a81548160ff02191690831515021790555060a08201518160000160056101000a81548160ff021916908360ff16021790555060c08201518160000160066101000a81548160ff021916908360ff16021790555060e08201518160000160076101000a81548160ff021916908360ff1602179055506101008201518160000160086101000a81548160ff021916908360ff1602179055506101208201518160000160096101000a81548160ff021916908360ff16021790555061014082015181600001600a6101000a81548160ff021916908360048111156200651a5762006519620085cf565b5b021790555061016082015181600001600b6101000a81548160ff021916908360038111156200654e576200654d620085cf565b5b021790555061018082015181600001600c6101000a81548160ff021916908360ff1602179055506101a082015181600001600d6101000a81548160ff021916908360ff1602179055506101c082015181600001600e6101000a81548160ff021916908360ff1602179055506101e082015181600001600f6101000a81548160ff02191690836005811115620065e857620065e7620085cf565b5b02179055506102008201518160000160106101000a81548160ff021916908360ff1602179055506102208201518160000160116101000a81548160ff021916908360ff1602179055506102408201518160000160126101000a81548160ff021916908360ff1602179055506102608201518160010160008201518160000160006101000a81548160ff021916908360000b60ff16021790555060208201518160000160016101000a81548160ff021916908360000b60ff16021790555060408201518160000160026101000a81548160ff021916908360000b60ff16021790555060608201518160000160036101000a81548160ff021916908360000b60ff16021790555060808201518160000160046101000a81548160ff021916908360000b60ff16021790555060a08201518160000160056101000a81548160ff021916908360000b60ff16021790555060c08201518160000160066101000a81548160ff021916908360000b60ff1602179055505050505060c08201518160060160008201518160000160006101000a81548160ff02191690831515021790555060208201518160000160016101000a81548160ff02191690831515021790555060408201518160000160026101000a81548160ff02191690831515021790555060608201518160000160036101000a81548160ff02191690831515021790555060808201518160000160046101000a81548160ff02191690831515021790555060a08201518160000160056101000a81548160ff021916908360ff16021790555060c08201518160000160066101000a81548160ff021916908360ff16021790555060e08201518160000160076101000a81548160ff021916908360ff1602179055506101008201518160000160086101000a81548160ff021916908360ff1602179055506101208201518160000160096101000a81548160ff021916908360ff16021790555061014082015181600001600a6101000a81548160ff02191690836004811115620068dc57620068db620085cf565b5b021790555061016082015181600001600b6101000a81548160ff0219169083600381111562006910576200690f620085cf565b5b021790555061018082015181600001600c6101000a81548160ff021916908360ff1602179055506101a082015181600001600d6101000a81548160ff021916908360ff1602179055506101c082015181600001600e6101000a81548160ff021916908360ff1602179055506101e082015181600001600f6101000a81548160ff02191690836005811115620069aa57620069a9620085cf565b5b02179055506102008201518160000160106101000a81548160ff021916908360ff1602179055506102208201518160000160116101000a81548160ff021916908360ff1602179055506102408201518160000160126101000a81548160ff021916908360ff1602179055506102608201518160010160008201518160000160006101000a81548160ff021916908360000b60ff16021790555060208201518160000160016101000a81548160ff021916908360000b60ff16021790555060408201518160000160026101000a81548160ff021916908360000b60ff16021790555060608201518160000160036101000a81548160ff021916908360000b60ff16021790555060808201518160000160046101000a81548160ff021916908360000b60ff16021790555060a08201518160000160056101000a81548160ff021916908360000b60ff16021790555060c08201518160000160066101000a81548160ff021916908360000b60ff16021790555050505050505060016040518060e0016040528062030d488152602001600015158152602001600060ff168152602001600060ff168152602001604051806102800160405280600015158152602001600015158152602001600015158152602001600015158152602001600015158152602001600060ff168152602001600060ff168152602001600060ff168152602001600060ff168152602001600060ff1681526020016000600481111562006bd65762006bd5620085cf565b5b81526020016000600381111562006bf25762006bf1620085cf565b5b8152602001600060ff168152602001600060ff168152602001600060ff1681526020016000600581111562006c2c5762006c2b620085cf565b5b8152602001600060ff168152602001600060ff168152602001600460ff1681526020018681525081526020018381526020018381525090806001815401808255809150506001900390600052602060002090600802016000909190919091506000820151816000015560208201518160010160006101000a81548160ff02191690831515021790555060408201518160010160016101000a81548160ff021916908360ff16021790555060608201518160010160026101000a81548160ff021916908360ff16021790555060808201518160020160008201518160000160006101000a81548160ff02191690831515021790555060208201518160000160016101000a81548160ff02191690831515021790555060408201518160000160026101000a81548160ff02191690831515021790555060608201518160000160036101000a81548160ff02191690831515021790555060808201518160000160046101000a81548160ff02191690831515021790555060a08201518160000160056101000a81548160ff021916908360ff16021790555060c08201518160000160066101000a81548160ff021916908360ff16021790555060e08201518160000160076101000a81548160ff021916908360ff1602179055506101008201518160000160086101000a81548160ff021916908360ff1602179055506101208201518160000160096101000a81548160ff021916908360ff16021790555061014082015181600001600a6101000a81548160ff0219169083600481111562006e765762006e75620085cf565b5b021790555061016082015181600001600b6101000a81548160ff0219169083600381111562006eaa5762006ea9620085cf565b5b021790555061018082015181600001600c6101000a81548160ff021916908360ff1602179055506101a082015181600001600d6101000a81548160ff021916908360ff1602179055506101c082015181600001600e6101000a81548160ff021916908360ff1602179055506101e082015181600001600f6101000a81548160ff0219169083600581111562006f445762006f43620085cf565b5b02179055506102008201518160000160106101000a81548160ff021916908360ff1602179055506102208201518160000160116101000a81548160ff021916908360ff1602179055506102408201518160000160126101000a81548160ff021916908360ff1602179055506102608201518160010160008201518160000160006101000a81548160ff021916908360000b60ff16021790555060208201518160000160016101000a81548160ff021916908360000b60ff16021790555060408201518160000160026101000a81548160ff021916908360000b60ff16021790555060608201518160000160036101000a81548160ff021916908360000b60ff16021790555060808201518160000160046101000a81548160ff021916908360000b60ff16021790555060a08201518160000160056101000a81548160ff021916908360000b60ff16021790555060c08201518160000160066101000a81548160ff021916908360000b60ff1602179055505050505060a08201518160040160008201518160000160006101000a81548160ff02191690831515021790555060208201518160000160016101000a81548160ff02191690831515021790555060408201518160000160026101000a81548160ff02191690831515021790555060608201518160000160036101000a81548160ff02191690831515021790555060808201518160000160046101000a81548160ff02191690831515021790555060a08201518160000160056101000a81548160ff021916908360ff16021790555060c08201518160000160066101000a81548160ff021916908360ff16021790555060e08201518160000160076101000a81548160ff021916908360ff1602179055506101008201518160000160086101000a81548160ff021916908360ff1602179055506101208201518160000160096101000a81548160ff021916908360ff16021790555061014082015181600001600a6101000a81548160ff02191690836004811115620072385762007237620085cf565b5b021790555061016082015181600001600b6101000a81548160ff021916908360038111156200726c576200726b620085cf565b5b021790555061018082015181600001600c6101000a81548160ff021916908360ff1602179055506101a082015181600001600d6101000a81548160ff021916908360ff1602179055506101c082015181600001600e6101000a81548160ff021916908360ff1602179055506101e082015181600001600f6101000a81548160ff02191690836005811115620073065762007305620085cf565b5b02179055506102008201518160000160106101000a81548160ff021916908360ff1602179055506102208201518160000160116101000a81548160ff021916908360ff1602179055506102408201518160000160126101000a81548160ff021916908360ff1602179055506102608201518160010160008201518160000160006101000a81548160ff021916908360000b60ff16021790555060208201518160000160016101000a81548160ff021916908360000b60ff16021790555060408201518160000160026101000a81548160ff021916908360000b60ff16021790555060608201518160000160036101000a81548160ff021916908360000b60ff16021790555060808201518160000160046101000a81548160ff021916908360000b60ff16021790555060a08201518160000160056101000a81548160ff021916908360000b60ff16021790555060c08201518160000160066101000a81548160ff021916908360000b60ff1602179055505050505060c08201518160060160008201518160000160006101000a81548160ff02191690831515021790555060208201518160000160016101000a81548160ff02191690831515021790555060408201518160000160026101000a81548160ff02191690831515021790555060608201518160000160036101000a81548160ff02191690831515021790555060808201518160000160046101000a81548160ff02191690831515021790555060a08201518160000160056101000a81548160ff021916908360ff16021790555060c08201518160000160066101000a81548160ff021916908360ff16021790555060e08201518160000160076101000a81548160ff021916908360ff1602179055506101008201518160000160086101000a81548160ff021916908360ff1602179055506101208201518160000160096101000a81548160ff021916908360ff16021790555061014082015181600001600a6101000a81548160ff02191690836004811115620075fa57620075f9620085cf565b5b021790555061016082015181600001600b6101000a81548160ff021916908360038111156200762e576200762d620085cf565b5b021790555061018082015181600001600c6101000a81548160ff021916908360ff1602179055506101a082015181600001600d6101000a81548160ff021916908360ff1602179055506101c082015181600001600e6101000a81548160ff021916908360ff1602179055506101e082015181600001600f6101000a81548160ff02191690836005811115620076c857620076c7620085cf565b5b02179055506102008201518160000160106101000a81548160ff021916908360ff1602179055506102208201518160000160116101000a81548160ff021916908360ff1602179055506102408201518160000160126101000a81548160ff021916908360ff1602179055506102608201518160010160008201518160000160006101000a81548160ff021916908360000b60ff16021790555060208201518160000160016101000a81548160ff021916908360000b60ff16021790555060408201518160000160026101000a81548160ff021916908360000b60ff16021790555060608201518160000160036101000a81548160ff021916908360000b60ff16021790555060808201518160000160046101000a81548160ff021916908360000b60ff16021790555060a08201518160000160056101000a81548160ff021916908360000b60ff16021790555060c08201518160000160066101000a81548160ff021916908360000b60ff1602179055505050505050505050565b6200784d62008479565b62007857620084c4565b60016040518060e0016040528060008152602001600015158152602001600060ff168152602001600060ff1681526020018381526020018381526020018381525090806001815401808255809150506001900390600052602060002090600802016000909190919091506000820151816000015560208201518160010160006101000a81548160ff02191690831515021790555060408201518160010160016101000a81548160ff021916908360ff16021790555060608201518160010160026101000a81548160ff021916908360ff16021790555060808201518160020160008201518160000160006101000a81548160ff02191690831515021790555060208201518160000160016101000a81548160ff02191690831515021790555060408201518160000160026101000a81548160ff02191690831515021790555060608201518160000160036101000a81548160ff02191690831515021790555060808201518160000160046101000a81548160ff02191690831515021790555060a08201518160000160056101000a81548160ff021916908360ff16021790555060c08201518160000160066101000a81548160ff021916908360ff16021790555060e08201518160000160076101000a81548160ff021916908360ff1602179055506101008201518160000160086101000a81548160ff021916908360ff1602179055506101208201518160000160096101000a81548160ff021916908360ff16021790555061014082015181600001600a6101000a81548160ff0219169083600481111562007aac5762007aab620085cf565b5b021790555061016082015181600001600b6101000a81548160ff0219169083600381111562007ae05762007adf620085cf565b5b021790555061018082015181600001600c6101000a81548160ff021916908360ff1602179055506101a082015181600001600d6101000a81548160ff021916908360ff1602179055506101c082015181600001600e6101000a81548160ff021916908360ff1602179055506101e082015181600001600f6101000a81548160ff0219169083600581111562007b7a5762007b79620085cf565b5b02179055506102008201518160000160106101000a81548160ff021916908360ff1602179055506102208201518160000160116101000a81548160ff021916908360ff1602179055506102408201518160000160126101000a81548160ff021916908360ff1602179055506102608201518160010160008201518160000160006101000a81548160ff021916908360000b60ff16021790555060208201518160000160016101000a81548160ff021916908360000b60ff16021790555060408201518160000160026101000a81548160ff021916908360000b60ff16021790555060608201518160000160036101000a81548160ff021916908360000b60ff16021790555060808201518160000160046101000a81548160ff021916908360000b60ff16021790555060a08201518160000160056101000a81548160ff021916908360000b60ff16021790555060c08201518160000160066101000a81548160ff021916908360000b60ff1602179055505050505060a08201518160040160008201518160000160006101000a81548160ff02191690831515021790555060208201518160000160016101000a81548160ff02191690831515021790555060408201518160000160026101000a81548160ff02191690831515021790555060608201518160000160036101000a81548160ff02191690831515021790555060808201518160000160046101000a81548160ff02191690831515021790555060a08201518160000160056101000a81548160ff021916908360ff16021790555060c08201518160000160066101000a81548160ff021916908360ff16021790555060e08201518160000160076101000a81548160ff021916908360ff1602179055506101008201518160000160086101000a81548160ff021916908360ff1602179055506101208201518160000160096101000a81548160ff021916908360ff16021790555061014082015181600001600a6101000a81548160ff0219169083600481111562007e6e5762007e6d620085cf565b5b021790555061016082015181600001600b6101000a81548160ff0219169083600381111562007ea25762007ea1620085cf565b5b021790555061018082015181600001600c6101000a81548160ff021916908360ff1602179055506101a082015181600001600d6101000a81548160ff021916908360ff1602179055506101c082015181600001600e6101000a81548160ff021916908360ff1602179055506101e082015181600001600f6101000a81548160ff0219169083600581111562007f3c5762007f3b620085cf565b5b02179055506102008201518160000160106101000a81548160ff021916908360ff1602179055506102208201518160000160116101000a81548160ff021916908360ff1602179055506102408201518160000160126101000a81548160ff021916908360ff1602179055506102608201518160010160008201518160000160006101000a81548160ff021916908360000b60ff16021790555060208201518160000160016101000a81548160ff021916908360000b60ff16021790555060408201518160000160026101000a81548160ff021916908360000b60ff16021790555060608201518160000160036101000a81548160ff021916908360000b60ff16021790555060808201518160000160046101000a81548160ff021916908360000b60ff16021790555060a08201518160000160056101000a81548160ff021916908360000b60ff16021790555060c08201518160000160066101000a81548160ff021916908360000b60ff1602179055505050505060c08201518160060160008201518160000160006101000a81548160ff02191690831515021790555060208201518160000160016101000a81548160ff02191690831515021790555060408201518160000160026101000a81548160ff02191690831515021790555060608201518160000160036101000a81548160ff02191690831515021790555060808201518160000160046101000a81548160ff02191690831515021790555060a08201518160000160056101000a81548160ff021916908360ff16021790555060c08201518160000160066101000a81548160ff021916908360ff16021790555060e08201518160000160076101000a81548160ff021916908360ff1602179055506101008201518160000160086101000a81548160ff021916908360ff1602179055506101208201518160000160096101000a81548160ff021916908360ff16021790555061014082015181600001600a6101000a81548160ff0219169083600481111562008230576200822f620085cf565b5b021790555061016082015181600001600b6101000a81548160ff02191690836003811115620082645762008263620085cf565b5b021790555061018082015181600001600c6101000a81548160ff021916908360ff1602179055506101a082015181600001600d6101000a81548160ff021916908360ff1602179055506101c082015181600001600e6101000a81548160ff021916908360ff1602179055506101e082015181600001600f6101000a81548160ff02191690836005811115620082fe57620082fd620085cf565b5b02179055506102008201518160000160106101000a81548160ff021916908360ff1602179055506102208201518160000160116101000a81548160ff021916908360ff1602179055506102408201518160000160126101000a81548160ff021916908360ff1602179055506102608201518160010160008201518160000160006101000a81548160ff021916908360000b60ff16021790555060208201518160000160016101000a81548160ff021916908360000b60ff16021790555060408201518160000160026101000a81548160ff021916908360000b60ff16021790555060608201518160000160036101000a81548160ff021916908360000b60ff16021790555060808201518160000160046101000a81548160ff021916908360000b60ff16021790555060a08201518160000160056101000a81548160ff021916908360000b60ff16021790555060c08201518160000160066101000a81548160ff021916908360000b60ff1602179055505050505050505050565b6040518060e001604052806000800b81526020016000800b81526020016000800b81526020016000800b81526020016000800b81526020016000800b81526020016000800b81525090565b604051806102800160405280600015158152602001600015158152602001600015158152602001600015158152602001600015158152602001600060ff168152602001600060ff168152602001600060ff168152602001600060ff168152602001600060ff16815260200160006004811115620085465762008545620085cf565b5b815260200160006003811115620085625762008561620085cf565b5b8152602001600060ff168152602001600060ff168152602001600060ff168152602001600060058111156200859c576200859b620085cf565b5b8152602001600060ff168152602001600060ff168152602001600060ff168152602001620085c962008479565b81525090565b7f4e487b7100000000000000000000000000000000000000000000000000000000600052602160045260246000fd5b614b3b806200860e6000396000f3fe608060405234801561001057600080fd5b50600436106100935760003560e01c80639dfc9282116100665780639dfc928214610126578063a49ac4111461015c578063c82c37b91461018c578063d29f9698146101bc578063f2fde38b146101ec57610093565b806322813e371461009857806345412253146100c8578063715018a6146100fe5780638da5cb5b14610108575b600080fd5b6100b260048036038101906100ad9190613f91565b610208565b6040516100bf91906143e4565b60405180910390f35b6100e260048036038101906100dd9190613f91565b610ce4565b6040516100f597969594939291906145cb565b60405180910390f35b610106611780565b005b610110611794565b60405161011d919061467e565b60405180910390f35b610140600480360381019061013b9190613f91565b6117bd565b60405161015397969594939291906145cb565b60405180910390f35b610176600480360381019061017191906146c5565b612259565b60405161018391906147b5565b60405180910390f35b6101a660048036038101906101a19190613f91565b612da4565b6040516101b391906143e4565b60405180910390f35b6101d660048036038101906101d191906147d7565b613880565b6040516101e391906148b8565b60405180910390f35b610206600480360381019061020191906148ff565b613be7565b005b610210613db4565b600282815481106102245761022361492c565b5b90600052602060002090600802016040518060e0016040529081600082015481526020016001820160009054906101000a900460ff161515151581526020016001820160019054906101000a900460ff1660ff1660ff1681526020016001820160029054906101000a900460ff1660ff1660ff16815260200160028201604051806102800160405290816000820160009054906101000a900460ff161515151581526020016000820160019054906101000a900460ff161515151581526020016000820160029054906101000a900460ff161515151581526020016000820160039054906101000a900460ff161515151581526020016000820160049054906101000a900460ff161515151581526020016000820160059054906101000a900460ff1660ff1660ff1681526020016000820160069054906101000a900460ff1660ff1660ff1681526020016000820160079054906101000a900460ff1660ff1660ff1681526020016000820160089054906101000a900460ff1660ff1660ff1681526020016000820160099054906101000a900460ff1660ff1660ff16815260200160008201600a9054906101000a900460ff1660048111156103ea576103e9614004565b5b60048111156103fc576103fb614004565b5b815260200160008201600b9054906101000a900460ff16600381111561042557610424614004565b5b600381111561043757610436614004565b5b815260200160008201600c9054906101000a900460ff1660ff1660ff16815260200160008201600d9054906101000a900460ff1660ff1660ff16815260200160008201600e9054906101000a900460ff1660ff1660ff16815260200160008201600f9054906101000a900460ff1660058111156104b7576104b6614004565b5b60058111156104c9576104c8614004565b5b81526020016000820160109054906101000a900460ff1660ff1660ff1681526020016000820160119054906101000a900460ff1660ff1660ff1681526020016000820160129054906101000a900460ff1660ff1660ff168152602001600182016040518060e00160405290816000820160009054906101000a900460000b60000b60000b81526020016000820160019054906101000a900460000b60000b60000b81526020016000820160029054906101000a900460000b60000b60000b81526020016000820160039054906101000a900460000b60000b60000b81526020016000820160049054906101000a900460000b60000b60000b81526020016000820160059054906101000a900460000b60000b60000b81526020016000820160069054906101000a900460000b60000b60000b8152505081525050815260200160048201604051806102800160405290816000820160009054906101000a900460ff161515151581526020016000820160019054906101000a900460ff161515151581526020016000820160029054906101000a900460ff161515151581526020016000820160039054906101000a900460ff161515151581526020016000820160049054906101000a900460ff161515151581526020016000820160059054906101000a900460ff1660ff1660ff1681526020016000820160069054906101000a900460ff1660ff1660ff1681526020016000820160079054906101000a900460ff1660ff1660ff1681526020016000820160089054906101000a900460ff1660ff1660ff1681526020016000820160099054906101000a900460ff1660ff1660ff16815260200160008201600a9054906101000a900460ff16600481111561075557610754614004565b5b600481111561076757610766614004565b5b815260200160008201600b9054906101000a900460ff1660038111156107905761078f614004565b5b60038111156107a2576107a1614004565b5b815260200160008201600c9054906101000a900460ff1660ff1660ff16815260200160008201600d9054906101000a900460ff1660ff1660ff16815260200160008201600e9054906101000a900460ff1660ff1660ff16815260200160008201600f9054906101000a900460ff16600581111561082257610821614004565b5b600581111561083457610833614004565b5b81526020016000820160109054906101000a900460ff1660ff1660ff1681526020016000820160119054906101000a900460ff1660ff1660ff1681526020016000820160129054906101000a900460ff1660ff1660ff168152602001600182016040518060e00160405290816000820160009054906101000a900460000b60000b60000b81526020016000820160019054906101000a900460000b60000b60000b81526020016000820160029054906101000a900460000b60000b60000b81526020016000820160039054906101000a900460000b60000b60000b81526020016000820160049054906101000a900460000b60000b60000b81526020016000820160059054906101000a900460000b60000b60000b81526020016000820160069054906101000a900460000b60000b60000b8152505081525050815260200160068201604051806102800160405290816000820160009054906101000a900460ff161515151581526020016000820160019054906101000a900460ff161515151581526020016000820160029054906101000a900460ff161515151581526020016000820160039054906101000a900460ff161515151581526020016000820160049054906101000a900460ff161515151581526020016000820160059054906101000a900460ff1660ff1660ff1681526020016000820160069054906101000a900460ff1660ff1660ff1681526020016000820160079054906101000a900460ff1660ff1660ff1681526020016000820160089054906101000a900460ff1660ff1660ff1681526020016000820160099054906101000a900460ff1660ff1660ff16815260200160008201600a9054906101000a900460ff166004811115610ac057610abf614004565b5b6004811115610ad257610ad1614004565b5b815260200160008201600b9054906101000a900460ff166003811115610afb57610afa614004565b5b6003811115610b0d57610b0c614004565b5b815260200160008201600c9054906101000a900460ff1660ff1660ff16815260200160008201600d9054906101000a900460ff1660ff1660ff16815260200160008201600e9054906101000a900460ff1660ff1660ff16815260200160008201600f9054906101000a900460ff166005811115610b8d57610b8c614004565b5b6005811115610b9f57610b9e614004565b5b81526020016000820160109054906101000a900460ff1660ff1660ff1681526020016000820160119054906101000a900460ff1660ff1660ff1681526020016000820160129054906101000a900460ff1660ff1660ff168152602001600182016040518060e00160405290816000820160009054906101000a900460000b60000b60000b81526020016000820160019054906101000a900460000b60000b60000b81526020016000820160029054906101000a900460000b60000b60000b81526020016000820160039054906101000a900460000b60000b60000b81526020016000820160049054906101000a900460000b60000b60000b81526020016000820160059054906101000a900460000b60000b60000b81526020016000820160069054906101000a900460000b60000b60000b8152505081525050815250509050919050565b60018181548110610cf457600080fd5b90600052602060002090600802016000915090508060000154908060010160009054906101000a900460ff16908060010160019054906101000a900460ff16908060010160029054906101000a900460ff169080600201604051806102800160405290816000820160009054906101000a900460ff161515151581526020016000820160019054906101000a900460ff161515151581526020016000820160029054906101000a900460ff161515151581526020016000820160039054906101000a900460ff161515151581526020016000820160049054906101000a900460ff161515151581526020016000820160059054906101000a900460ff1660ff1660ff1681526020016000820160069054906101000a900460ff1660ff1660ff1681526020016000820160079054906101000a900460ff1660ff1660ff1681526020016000820160089054906101000a900460ff1660ff1660ff1681526020016000820160099054906101000a900460ff1660ff1660ff16815260200160008201600a9054906101000a900460ff166004811115610e9457610e93614004565b5b6004811115610ea657610ea5614004565b5b815260200160008201600b9054906101000a900460ff166003811115610ecf57610ece614004565b5b6003811115610ee157610ee0614004565b5b815260200160008201600c9054906101000a900460ff1660ff1660ff16815260200160008201600d9054906101000a900460ff1660ff1660ff16815260200160008201600e9054906101000a900460ff1660ff1660ff16815260200160008201600f9054906101000a900460ff166005811115610f6157610f60614004565b5b6005811115610f7357610f72614004565b5b81526020016000820160109054906101000a900460ff1660ff1660ff1681526020016000820160119054906101000a900460ff1660ff1660ff1681526020016000820160129054906101000a900460ff1660ff1660ff168152602001600182016040518060e00160405290816000820160009054906101000a900460000b60000b60000b81526020016000820160019054906101000a900460000b60000b60000b81526020016000820160029054906101000a900460000b60000b60000b81526020016000820160039054906101000a900460000b60000b60000b81526020016000820160049054906101000a900460000b60000b60000b81526020016000820160059054906101000a900460000b60000b60000b81526020016000820160069054906101000a900460000b60000b60000b81525050815250509080600401604051806102800160405290816000820160009054906101000a900460ff161515151581526020016000820160019054906101000a900460ff161515151581526020016000820160029054906101000a900460ff161515151581526020016000820160039054906101000a900460ff161515151581526020016000820160049054906101000a900460ff161515151581526020016000820160059054906101000a900460ff1660ff1660ff1681526020016000820160069054906101000a900460ff1660ff1660ff1681526020016000820160079054906101000a900460ff1660ff1660ff1681526020016000820160089054906101000a900460ff1660ff1660ff1681526020016000820160099054906101000a900460ff1660ff1660ff16815260200160008201600a9054906101000a900460ff1660048111156111fb576111fa614004565b5b600481111561120d5761120c614004565b5b815260200160008201600b9054906101000a900460ff16600381111561123657611235614004565b5b600381111561124857611247614004565b5b815260200160008201600c9054906101000a900460ff1660ff1660ff16815260200160008201600d9054906101000a900460ff1660ff1660ff16815260200160008201600e9054906101000a900460ff1660ff1660ff16815260200160008201600f9054906101000a900460ff1660058111156112c8576112c7614004565b5b60058111156112da576112d9614004565b5b81526020016000820160109054906101000a900460ff1660ff1660ff1681526020016000820160119054906101000a900460ff1660ff1660ff1681526020016000820160129054906101000a900460ff1660ff1660ff168152602001600182016040518060e00160405290816000820160009054906101000a900460000b60000b60000b81526020016000820160019054906101000a900460000b60000b60000b81526020016000820160029054906101000a900460000b60000b60000b81526020016000820160039054906101000a900460000b60000b60000b81526020016000820160049054906101000a900460000b60000b60000b81526020016000820160059054906101000a900460000b60000b60000b81526020016000820160069054906101000a900460000b60000b60000b81525050815250509080600601604051806102800160405290816000820160009054906101000a900460ff161515151581526020016000820160019054906101000a900460ff161515151581526020016000820160029054906101000a900460ff161515151581526020016000820160039054906101000a900460ff161515151581526020016000820160049054906101000a900460ff161515151581526020016000820160059054906101000a900460ff1660ff1660ff1681526020016000820160069054906101000a900460ff1660ff1660ff1681526020016000820160079054906101000a900460ff1660ff1660ff1681526020016000820160089054906101000a900460ff1660ff1660ff1681526020016000820160099054906101000a900460ff1660ff1660ff16815260200160008201600a9054906101000a900460ff16600481111561156257611561614004565b5b600481111561157457611573614004565b5b815260200160008201600b9054906101000a900460ff16600381111561159d5761159c614004565b5b60038111156115af576115ae614004565b5b815260200160008201600c9054906101000a900460ff1660ff1660ff16815260200160008201600d9054906101000a900460ff1660ff1660ff16815260200160008201600e9054906101000a900460ff1660ff1660ff16815260200160008201600f9054906101000a900460ff16600581111561162f5761162e614004565b5b600581111561164157611640614004565b5b81526020016000820160109054906101000a900460ff1660ff1660ff1681526020016000820160119054906101000a900460ff1660ff1660ff1681526020016000820160129054906101000a900460ff1660ff1660ff168152602001600182016040518060e00160405290816000820160009054906101000a900460000b60000b60000b81526020016000820160019054906101000a900460000b60000b60000b81526020016000820160029054906101000a900460000b60000b60000b81526020016000820160039054906101000a900460000b60000b60000b81526020016000820160049054906101000a900460000b60000b60000b81526020016000820160059054906101000a900460000b60000b60000b81526020016000820160069054906101000a900460000b60000b60000b8152505081525050905087565b611788613c6a565b6117926000613ce8565b565b60008060009054906101000a900473ffffffffffffffffffffffffffffffffffffffff16905090565b600281815481106117cd57600080fd5b90600052602060002090600802016000915090508060000154908060010160009054906101000a900460ff16908060010160019054906101000a900460ff16908060010160029054906101000a900460ff169080600201604051806102800160405290816000820160009054906101000a900460ff161515151581526020016000820160019054906101000a900460ff161515151581526020016000820160029054906101000a900460ff161515151581526020016000820160039054906101000a900460ff161515151581526020016000820160049054906101000a900460ff161515151581526020016000820160059054906101000a900460ff1660ff1660ff1681526020016000820160069054906101000a900460ff1660ff1660ff1681526020016000820160079054906101000a900460ff1660ff1660ff1681526020016000820160089054906101000a900460ff1660ff1660ff1681526020016000820160099054906101000a900460ff1660ff1660ff16815260200160008201600a9054906101000a900460ff16600481111561196d5761196c614004565b5b600481111561197f5761197e614004565b5b815260200160008201600b9054906101000a900460ff1660038111156119a8576119a7614004565b5b60038111156119ba576119b9614004565b5b815260200160008201600c9054906101000a900460ff1660ff1660ff16815260200160008201600d9054906101000a900460ff1660ff1660ff16815260200160008201600e9054906101000a900460ff1660ff1660ff16815260200160008201600f9054906101000a900460ff166005811115611a3a57611a39614004565b5b6005811115611a4c57611a4b614004565b5b81526020016000820160109054906101000a900460ff1660ff1660ff1681526020016000820160119054906101000a900460ff1660ff1660ff1681526020016000820160129054906101000a900460ff1660ff1660ff168152602001600182016040518060e00160405290816000820160009054906101000a900460000b60000b60000b81526020016000820160019054906101000a900460000b60000b60000b81526020016000820160029054906101000a900460000b60000b60000b81526020016000820160039054906101000a900460000b60000b60000b81526020016000820160049054906101000a900460000b60000b60000b81526020016000820160059054906101000a900460000b60000b60000b81526020016000820160069054906101000a900460000b60000b60000b81525050815250509080600401604051806102800160405290816000820160009054906101000a900460ff161515151581526020016000820160019054906101000a900460ff161515151581526020016000820160029054906101000a900460ff161515151581526020016000820160039054906101000a900460ff161515151581526020016000820160049054906101000a900460ff161515151581526020016000820160059054906101000a900460ff1660ff1660ff1681526020016000820160069054906101000a900460ff1660ff1660ff1681526020016000820160079054906101000a900460ff1660ff1660ff1681526020016000820160089054906101000a900460ff1660ff1660ff1681526020016000820160099054906101000a900460ff1660ff1660ff16815260200160008201600a9054906101000a900460ff166004811115611cd457611cd3614004565b5b6004811115611ce657611ce5614004565b5b815260200160008201600b9054906101000a900460ff166003811115611d0f57611d0e614004565b5b6003811115611d2157611d20614004565b5b815260200160008201600c9054906101000a900460ff1660ff1660ff16815260200160008201600d9054906101000a900460ff1660ff1660ff16815260200160008201600e9054906101000a900460ff1660ff1660ff16815260200160008201600f9054906101000a900460ff166005811115611da157611da0614004565b5b6005811115611db357611db2614004565b5b81526020016000820160109054906101000a900460ff1660ff1660ff1681526020016000820160119054906101000a900460ff1660ff1660ff1681526020016000820160129054906101000a900460ff1660ff1660ff168152602001600182016040518060e00160405290816000820160009054906101000a900460000b60000b60000b81526020016000820160019054906101000a900460000b60000b60000b81526020016000820160029054906101000a900460000b60000b60000b81526020016000820160039054906101000a900460000b60000b60000b81526020016000820160049054906101000a900460000b60000b60000b81526020016000820160059054906101000a900460000b60000b60000b81526020016000820160069054906101000a900460000b60000b60000b81525050815250509080600601604051806102800160405290816000820160009054906101000a900460ff161515151581526020016000820160019054906101000a900460ff161515151581526020016000820160029054906101000a900460ff161515151581526020016000820160039054906101000a900460ff161515151581526020016000820160049054906101000a900460ff161515151581526020016000820160059054906101000a900460ff1660ff1660ff1681526020016000820160069054906101000a900460ff1660ff1660ff1681526020016000820160079054906101000a900460ff1660ff1660ff1681526020016000820160089054906101000a900460ff1660ff1660ff1681526020016000820160099054906101000a900460ff1660ff1660ff16815260200160008201600a9054906101000a900460ff16600481111561203b5761203a614004565b5b600481111561204d5761204c614004565b5b815260200160008201600b9054906101000a900460ff16600381111561207657612075614004565b5b600381111561208857612087614004565b5b815260200160008201600c9054906101000a900460ff1660ff1660ff16815260200160008201600d9054906101000a900460ff1660ff1660ff16815260200160008201600e9054906101000a900460ff1660ff1660ff16815260200160008201600f9054906101000a900460ff16600581111561210857612107614004565b5b600581111561211a57612119614004565b5b81526020016000820160109054906101000a900460ff1660ff1660ff1681526020016000820160119054906101000a900460ff1660ff1660ff1681526020016000820160129054906101000a900460ff1660ff1660ff168152602001600182016040518060e00160405290816000820160009054906101000a900460000b60000b60000b81526020016000820160019054906101000a900460000b60000b60000b81526020016000820160029054906101000a900460000b60000b60000b81526020016000820160039054906101000a900460000b60000b60000b81526020016000820160049054906101000a900460000b60000b60000b81526020016000820160059054906101000a900460000b60000b60000b81526020016000820160069054906101000a900460000b60000b60000b8152505081525050905087565b60606000600367ffffffffffffffff8111156122785761227761495b565b5b6040519080825280602002602001820160405280156122b157816020015b61229e613e0b565b8152602001906001900390816122965790505b509050600084156122e557600184815481106122d0576122cf61492c565b5b9060005260206000209060080201905061230a565b600284815481106122f9576122f861492c565b5b906000526020600020906008020190505b80600201604051806102800160405290816000820160009054906101000a900460ff161515151581526020016000820160019054906101000a900460ff161515151581526020016000820160029054906101000a900460ff161515151581526020016000820160039054906101000a900460ff161515151581526020016000820160049054906101000a900460ff161515151581526020016000820160059054906101000a900460ff1660ff1660ff1681526020016000820160069054906101000a900460ff1660ff1660ff1681526020016000820160079054906101000a900460ff1660ff1660ff1681526020016000820160089054906101000a900460ff1660ff1660ff1681526020016000820160099054906101000a900460ff1660ff1660ff16815260200160008201600a9054906101000a900460ff16600481111561245757612456614004565b5b600481111561246957612468614004565b5b815260200160008201600b9054906101000a900460ff16600381111561249257612491614004565b5b60038111156124a4576124a3614004565b5b815260200160008201600c9054906101000a900460ff1660ff1660ff16815260200160008201600d9054906101000a900460ff1660ff1660ff16815260200160008201600e9054906101000a900460ff1660ff1660ff16815260200160008201600f9054906101000a900460ff16600581111561252457612523614004565b5b600581111561253657612535614004565b5b81526020016000820160109054906101000a900460ff1660ff1660ff1681526020016000820160119054906101000a900460ff1660ff1660ff1681526020016000820160129054906101000a900460ff1660ff1660ff168152602001600182016040518060e00160405290816000820160009054906101000a900460000b60000b60000b81526020016000820160019054906101000a900460000b60000b60000b81526020016000820160029054906101000a900460000b60000b60000b81526020016000820160039054906101000a900460000b60000b60000b81526020016000820160049054906101000a900460000b60000b60000b81526020016000820160059054906101000a900460000b60000b60000b81526020016000820160069054906101000a900460000b60000b60000b8152505081525050826000815181106126845761268361492c565b5b602002602001018190525080600401604051806102800160405290816000820160009054906101000a900460ff161515151581526020016000820160019054906101000a900460ff161515151581526020016000820160029054906101000a900460ff161515151581526020016000820160039054906101000a900460ff161515151581526020016000820160049054906101000a900460ff161515151581526020016000820160059054906101000a900460ff1660ff1660ff1681526020016000820160069054906101000a900460ff1660ff1660ff1681526020016000820160079054906101000a900460ff1660ff1660ff1681526020016000820160089054906101000a900460ff1660ff1660ff1681526020016000820160099054906101000a900460ff1660ff1660ff16815260200160008201600a9054906101000a900460ff1660048111156127dc576127db614004565b5b60048111156127ee576127ed614004565b5b815260200160008201600b9054906101000a900460ff16600381111561281757612816614004565b5b600381111561282957612828614004565b5b815260200160008201600c9054906101000a900460ff1660ff1660ff16815260200160008201600d9054906101000a900460ff1660ff1660ff16815260200160008201600e9054906101000a900460ff1660ff1660ff16815260200160008201600f9054906101000a900460ff1660058111156128a9576128a8614004565b5b60058111156128bb576128ba614004565b5b81526020016000820160109054906101000a900460ff1660ff1660ff1681526020016000820160119054906101000a900460ff1660ff1660ff1681526020016000820160129054906101000a900460ff1660ff1660ff168152602001600182016040518060e00160405290816000820160009054906101000a900460000b60000b60000b81526020016000820160019054906101000a900460000b60000b60000b81526020016000820160029054906101000a900460000b60000b60000b81526020016000820160039054906101000a900460000b60000b60000b81526020016000820160049054906101000a900460000b60000b60000b81526020016000820160059054906101000a900460000b60000b60000b81526020016000820160069054906101000a900460000b60000b60000b815250508152505082600181518110612a0957612a0861492c565b5b602002602001018190525080600601604051806102800160405290816000820160009054906101000a900460ff161515151581526020016000820160019054906101000a900460ff161515151581526020016000820160029054906101000a900460ff161515151581526020016000820160039054906101000a900460ff161515151581526020016000820160049054906101000a900460ff161515151581526020016000820160059054906101000a900460ff1660ff1660ff1681526020016000820160069054906101000a900460ff1660ff1660ff1681526020016000820160079054906101000a900460ff1660ff1660ff1681526020016000820160089054906101000a900460ff1660ff1660ff1681526020016000820160099054906101000a900460ff1660ff1660ff16815260200160008201600a9054906101000a900460ff166004811115612b6157612b60614004565b5b6004811115612b7357612b72614004565b5b815260200160008201600b9054906101000a900460ff166003811115612b9c57612b9b614004565b5b6003811115612bae57612bad614004565b5b815260200160008201600c9054906101000a900460ff1660ff1660ff16815260200160008201600d9054906101000a900460ff1660ff1660ff16815260200160008201600e9054906101000a900460ff1660ff1660ff16815260200160008201600f9054906101000a900460ff166005811115612c2e57612c2d614004565b5b6005811115612c4057612c3f614004565b5b81526020016000820160109054906101000a900460ff1660ff1660ff1681526020016000820160119054906101000a900460ff1660ff1660ff1681526020016000820160129054906101000a900460ff1660ff1660ff168152602001600182016040518060e00160405290816000820160009054906101000a900460000b60000b60000b81526020016000820160019054906101000a900460000b60000b60000b81526020016000820160029054906101000a900460000b60000b60000b81526020016000820160039054906101000a900460000b60000b60000b81526020016000820160049054906101000a900460000b60000b60000b81526020016000820160059054906101000a900460000b60000b60000b81526020016000820160069054906101000a900460000b60000b60000b815250508152505082600281518110612d8e57612d8d61492c565b5b6020026020010181905250819250505092915050565b612dac613db4565b60018281548110612dc057612dbf61492c565b5b90600052602060002090600802016040518060e0016040529081600082015481526020016001820160009054906101000a900460ff161515151581526020016001820160019054906101000a900460ff1660ff1660ff1681526020016001820160029054906101000a900460ff1660ff1660ff16815260200160028201604051806102800160405290816000820160009054906101000a900460ff161515151581526020016000820160019054906101000a900460ff161515151581526020016000820160029054906101000a900460ff161515151581526020016000820160039054906101000a900460ff161515151581526020016000820160049054906101000a900460ff161515151581526020016000820160059054906101000a900460ff1660ff1660ff1681526020016000820160069054906101000a900460ff1660ff1660ff1681526020016000820160079054906101000a900460ff1660ff1660ff1681526020016000820160089054906101000a900460ff1660ff1660ff1681526020016000820160099054906101000a900460ff1660ff1660ff16815260200160008201600a9054906101000a900460ff166004811115612f8657612f85614004565b5b6004811115612f9857612f97614004565b5b815260200160008201600b9054906101000a900460ff166003811115612fc157612fc0614004565b5b6003811115612fd357612fd2614004565b5b815260200160008201600c9054906101000a900460ff1660ff1660ff16815260200160008201600d9054906101000a900460ff1660ff1660ff16815260200160008201600e9054906101000a900460ff1660ff1660ff16815260200160008201600f9054906101000a900460ff16600581111561305357613052614004565b5b600581111561306557613064614004565b5b81526020016000820160109054906101000a900460ff1660ff1660ff1681526020016000820160119054906101000a900460ff1660ff1660ff1681526020016000820160129054906101000a900460ff1660ff1660ff168152602001600182016040518060e00160405290816000820160009054906101000a900460000b60000b60000b81526020016000820160019054906101000a900460000b60000b60000b81526020016000820160029054906101000a900460000b60000b60000b81526020016000820160039054906101000a900460000b60000b60000b81526020016000820160049054906101000a900460000b60000b60000b81526020016000820160059054906101000a900460000b60000b60000b81526020016000820160069054906101000a900460000b60000b60000b8152505081525050815260200160048201604051806102800160405290816000820160009054906101000a900460ff161515151581526020016000820160019054906101000a900460ff161515151581526020016000820160029054906101000a900460ff161515151581526020016000820160039054906101000a900460ff161515151581526020016000820160049054906101000a900460ff161515151581526020016000820160059054906101000a900460ff1660ff1660ff1681526020016000820160069054906101000a900460ff1660ff1660ff1681526020016000820160079054906101000a900460ff1660ff1660ff1681526020016000820160089054906101000a900460ff1660ff1660ff1681526020016000820160099054906101000a900460ff1660ff1660ff16815260200160008201600a9054906101000a900460ff1660048111156132f1576132f0614004565b5b600481111561330357613302614004565b5b815260200160008201600b9054906101000a900460ff16600381111561332c5761332b614004565b5b600381111561333e5761333d614004565b5b815260200160008201600c9054906101000a900460ff1660ff1660ff16815260200160008201600d9054906101000a900460ff1660ff1660ff16815260200160008201600e9054906101000a900460ff1660ff1660ff16815260200160008201600f9054906101000a900460ff1660058111156133be576133bd614004565b5b60058111156133d0576133cf614004565b5b81526020016000820160109054906101000a900460ff1660ff1660ff1681526020016000820160119054906101000a900460ff1660ff1660ff1681526020016000820160129054906101000a900460ff1660ff1660ff168152602001600182016040518060e00160405290816000820160009054906101000a900460000b60000b60000b81526020016000820160019054906101000a900460000b60000b60000b81526020016000820160029054906101000a900460000b60000b60000b81526020016000820160039054906101000a900460000b60000b60000b81526020016000820160049054906101000a900460000b60000b60000b81526020016000820160059054906101000a900460000b60000b60000b81526020016000820160069054906101000a900460000b60000b60000b8152505081525050815260200160068201604051806102800160405290816000820160009054906101000a900460ff161515151581526020016000820160019054906101000a900460ff161515151581526020016000820160029054906101000a900460ff161515151581526020016000820160039054906101000a900460ff161515151581526020016000820160049054906101000a900460ff161515151581526020016000820160059054906101000a900460ff1660ff1660ff1681526020016000820160069054906101000a900460ff1660ff1660ff1681526020016000820160079054906101000a900460ff1660ff1660ff1681526020016000820160089054906101000a900460ff1660ff1660ff1681526020016000820160099054906101000a900460ff1660ff1660ff16815260200160008201600a9054906101000a900460ff16600481111561365c5761365b614004565b5b600481111561366e5761366d614004565b5b815260200160008201600b9054906101000a900460ff16600381111561369757613696614004565b5b60038111156136a9576136a8614004565b5b815260200160008201600c9054906101000a900460ff1660ff1660ff16815260200160008201600d9054906101000a900460ff1660ff1660ff16815260200160008201600e9054906101000a900460ff1660ff1660ff16815260200160008201600f9054906101000a900460ff16600581111561372957613728614004565b5b600581111561373b5761373a614004565b5b81526020016000820160109054906101000a900460ff1660ff1660ff1681526020016000820160119054906101000a900460ff1660ff1660ff1681526020016000820160129054906101000a900460ff1660ff1660ff168152602001600182016040518060e00160405290816000820160009054906101000a900460000b60000b60000b81526020016000820160019054906101000a900460000b60000b60000b81526020016000820160029054906101000a900460000b60000b60000b81526020016000820160039054906101000a900460000b60000b60000b81526020016000820160049054906101000a900460000b60000b60000b81526020016000820160059054906101000a900460000b60000b60000b81526020016000820160069054906101000a900460000b60000b60000b8152505081525050815250509050919050565b613888613f0b565b600084156138b957600184815481106138a4576138a361492c565b5b906000526020600020906008020190506138de565b600284815481106138cd576138cc61492c565b5b906000526020600020906008020190505b600083036139cb57806002016001016040518060e00160405290816000820160009054906101000a900460000b60000b60000b81526020016000820160019054906101000a900460000b60000b60000b81526020016000820160029054906101000a900460000b60000b60000b81526020016000820160039054906101000a900460000b60000b60000b81526020016000820160049054906101000a900460000b60000b60000b81526020016000820160059054906101000a900460000b60000b60000b81526020016000820160069054906101000a900460000b60000b60000b81525050915050613be0565b60018303613ab857806004016001016040518060e00160405290816000820160009054906101000a900460000b60000b60000b81526020016000820160019054906101000a900460000b60000b60000b81526020016000820160029054906101000a900460000b60000b60000b81526020016000820160039054906101000a900460000b60000b60000b81526020016000820160049054906101000a900460000b60000b60000b81526020016000820160059054906101000a900460000b60000b60000b81526020016000820160069054906101000a900460000b60000b60000b81525050915050613be0565b60028303613ba557806006016001016040518060e00160405290816000820160009054906101000a900460000b60000b60000b81526020016000820160019054906101000a900460000b60000b60000b81526020016000820160029054906101000a900460000b60000b60000b81526020016000820160039054906101000a900460000b60000b60000b81526020016000820160049054906101000a900460000b60000b60000b81526020016000820160059054906101000a900460000b60000b60000b81526020016000820160069054906101000a900460000b60000b60000b81525050915050613be0565b6040517f08c379a0000000000000000000000000000000000000000000000000000000008152600401613bd7906149e7565b60405180910390fd5b9392505050565b613bef613c6a565b600073ffffffffffffffffffffffffffffffffffffffff168173ffffffffffffffffffffffffffffffffffffffff1603613c5e576040517f08c379a0000000000000000000000000000000000000000000000000000000008152600401613c5590614a79565b60405180910390fd5b613c6781613ce8565b50565b613c72613dac565b73ffffffffffffffffffffffffffffffffffffffff16613c90611794565b73ffffffffffffffffffffffffffffffffffffffff1614613ce6576040517f08c379a0000000000000000000000000000000000000000000000000000000008152600401613cdd90614ae5565b60405180910390fd5b565b60008060009054906101000a900473ffffffffffffffffffffffffffffffffffffffff169050816000806101000a81548173ffffffffffffffffffffffffffffffffffffffff021916908373ffffffffffffffffffffffffffffffffffffffff1602179055508173ffffffffffffffffffffffffffffffffffffffff168173ffffffffffffffffffffffffffffffffffffffff167f8be0079c531659141344cd1fd0a4f28419497f9722a3daafe3b4186f6b6457e060405160405180910390a35050565b600033905090565b6040518060e0016040528060008152602001600015158152602001600060ff168152602001600060ff168152602001613deb613e0b565b8152602001613df8613e0b565b8152602001613e05613e0b565b81525090565b604051806102800160405280600015158152602001600015158152602001600015158152602001600015158152602001600015158152602001600060ff168152602001600060ff168152602001600060ff168152602001600060ff168152602001600060ff16815260200160006004811115613e8a57613e89614004565b5b815260200160006003811115613ea357613ea2614004565b5b8152602001600060ff168152602001600060ff168152602001600060ff16815260200160006005811115613eda57613ed9614004565b5b8152602001600060ff168152602001600060ff168152602001600060ff168152602001613f05613f0b565b81525090565b6040518060e001604052806000800b81526020016000800b81526020016000800b81526020016000800b81526020016000800b81526020016000800b81526020016000800b81525090565b600080fd5b6000819050919050565b613f6e81613f5b565b8114613f7957600080fd5b50565b600081359050613f8b81613f65565b92915050565b600060208284031215613fa757613fa6613f56565b5b6000613fb584828501613f7c565b91505092915050565b613fc781613f5b565b82525050565b60008115159050919050565b613fe281613fcd565b82525050565b600060ff82169050919050565b613ffe81613fe8565b82525050565b7f4e487b7100000000000000000000000000000000000000000000000000000000600052602160045260246000fd5b6005811061404457614043614004565b5b50565b600081905061405582614033565b919050565b600061406582614047565b9050919050565b6140758161405a565b82525050565b6004811061408c5761408b614004565b5b50565b600081905061409d8261407b565b919050565b60006140ad8261408f565b9050919050565b6140bd816140a2565b82525050565b600681106140d4576140d3614004565b5b50565b60008190506140e5826140c3565b919050565b60006140f5826140d7565b9050919050565b614105816140ea565b82525050565b60008160000b9050919050565b6141218161410b565b82525050565b60e08201600082015161413d6000850182614118565b5060208201516141506020850182614118565b5060408201516141636040850182614118565b5060608201516141766060850182614118565b5060808201516141896080850182614118565b5060a082015161419c60a0850182614118565b5060c08201516141af60c0850182614118565b50505050565b610340820160008201516141cc6000850182613fd9565b5060208201516141df6020850182613fd9565b5060408201516141f26040850182613fd9565b5060608201516142056060850182613fd9565b5060808201516142186080850182613fd9565b5060a082015161422b60a0850182613ff5565b5060c082015161423e60c0850182613ff5565b5060e082015161425160e0850182613ff5565b50610100820151614266610100850182613ff5565b5061012082015161427b610120850182613ff5565b5061014082015161429061014085018261406c565b506101608201516142a56101608501826140b4565b506101808201516142ba610180850182613ff5565b506101a08201516142cf6101a0850182613ff5565b506101c08201516142e46101c0850182613ff5565b506101e08201516142f96101e08501826140fc565b5061020082015161430e610200850182613ff5565b50610220820151614323610220850182613ff5565b50610240820151614338610240850182613ff5565b5061026082015161434d610260850182614127565b50505050565b610a408201600082015161436a6000850182613fbe565b50602082015161437d6020850182613fd9565b5060408201516143906040850182613ff5565b5060608201516143a36060850182613ff5565b5060808201516143b660808501826141b5565b5060a08201516143ca6103c08501826141b5565b5060c08201516143de6107008501826141b5565b50505050565b6000610a40820190506143fa6000830184614353565b92915050565b61440981613f5b565b82525050565b61441881613fcd565b82525050565b61442781613fe8565b82525050565b610340820160008201516144446000850182613fd9565b5060208201516144576020850182613fd9565b50604082015161446a6040850182613fd9565b50606082015161447d6060850182613fd9565b5060808201516144906080850182613fd9565b5060a08201516144a360a0850182613ff5565b5060c08201516144b660c0850182613ff5565b5060e08201516144c960e0850182613ff5565b506101008201516144de610100850182613ff5565b506101208201516144f3610120850182613ff5565b5061014082015161450861014085018261406c565b5061016082015161451d6101608501826140b4565b50610180820151614532610180850182613ff5565b506101a08201516145476101a0850182613ff5565b506101c082015161455c6101c0850182613ff5565b506101e08201516145716101e08501826140fc565b50610200820151614586610200850182613ff5565b5061022082015161459b610220850182613ff5565b506102408201516145b0610240850182613ff5565b506102608201516145c5610260850182614127565b50505050565b6000610a40820190506145e1600083018a614400565b6145ee602083018961440f565b6145fb604083018861441e565b614608606083018761441e565b614615608083018661442d565b6146236103c083018561442d565b61463161070083018461442d565b98975050505050505050565b600073ffffffffffffffffffffffffffffffffffffffff82169050919050565b60006146688261463d565b9050919050565b6146788161465d565b82525050565b6000602082019050614693600083018461466f565b92915050565b6146a281613fcd565b81146146ad57600080fd5b50565b6000813590506146bf81614699565b92915050565b600080604083850312156146dc576146db613f56565b5b60006146ea858286016146b0565b92505060206146fb85828601613f7c565b9150509250929050565b600081519050919050565b600082825260208201905092915050565b6000819050602082019050919050565b600061473d83836141b5565b6103408301905092915050565b6000602082019050919050565b600061476282614705565b61476c8185614710565b935061477783614721565b8060005b838110156147a857815161478f8882614731565b975061479a8361474a565b92505060018101905061477b565b5085935050505092915050565b600060208201905081810360008301526147cf8184614757565b905092915050565b6000806000606084860312156147f0576147ef613f56565b5b60006147fe868287016146b0565b935050602061480f86828701613f7c565b925050604061482086828701613f7c565b9150509250925092565b60e0820160008201516148406000850182614118565b5060208201516148536020850182614118565b5060408201516148666040850182614118565b5060608201516148796060850182614118565b50608082015161488c6080850182614118565b5060a082015161489f60a0850182614118565b5060c08201516148b260c0850182614118565b50505050565b600060e0820190506148cd600083018461482a565b92915050565b6148dc8161465d565b81146148e757600080fd5b50565b6000813590506148f9816148d3565b92915050565b60006020828403121561491557614914613f56565b5b6000614923848285016148ea565b91505092915050565b7f4e487b7100000000000000000000000000000000000000000000000000000000600052603260045260246000fd5b7f4e487b7100000000000000000000000000000000000000000000000000000000600052604160045260246000fd5b600082825260208201905092915050565b7f456666656374206d75737420626520302c20312c206f72203200000000000000600082015250565b60006149d160198361498a565b91506149dc8261499b565b602082019050919050565b60006020820190508181036000830152614a00816149c4565b9050919050565b7f4f776e61626c653a206e6577206f776e657220697320746865207a65726f206160008201527f6464726573730000000000000000000000000000000000000000000000000000602082015250565b6000614a6360268361498a565b9150614a6e82614a07565b604082019050919050565b60006020820190508181036000830152614a9281614a56565b9050919050565b7f4f776e61626c653a2063616c6c6572206973206e6f7420746865206f776e6572600082015250565b6000614acf60208361498a565b9150614ada82614a99565b602082019050919050565b60006020820190508181036000830152614afe81614ac2565b905091905056fea264697066735822122050125929a7ebf89cb00e820c9663a94a4d7ec32b78e1546e7e6b8d5ab4372e6364736f6c63430008110033",
  "devdoc": {
    "kind": "dev",
    "methods": {
      "owner()": {
        "details": "Returns the address of the current owner."
      },
      "renounceOwnership()": {
        "details": "Leaves the contract without owner. It will not be possible to call `onlyOwner` functions anymore. Can only be called by the current owner. NOTE: Renouncing ownership will leave the contract without an owner, thereby removing any functionality that is only available to the owner."
      },
      "transferOwnership(address)": {
        "details": "Transfers ownership of the contract to a new account (`newOwner`). Can only be called by the current owner."
      }
    },
    "version": 1
  },
  "userdoc": {
    "kind": "user",
    "methods": {},
    "version": 1
  },
  "storageLayout": {
    "storage": [
      {
        "astId": 7,
        "contract": "contracts/BCEvents.sol:BCEvents",
        "label": "_owner",
        "offset": 0,
        "slot": "0",
        "type": "t_address"
      },
      {
        "astId": 3841,
        "contract": "contracts/BCEvents.sol:BCEvents",
        "label": "bcRoomEvents",
        "offset": 0,
        "slot": "1",
        "type": "t_array(t_struct(BCEvent)3837_storage)dyn_storage"
      },
      {
        "astId": 3845,
        "contract": "contracts/BCEvents.sol:BCEvents",
        "label": "bcCardEvents",
        "offset": 0,
        "slot": "2",
        "type": "t_array(t_struct(BCEvent)3837_storage)dyn_storage"
      }
    ],
    "types": {
      "t_address": {
        "encoding": "inplace",
        "label": "address",
        "numberOfBytes": "20"
      },
      "t_array(t_struct(BCEvent)3837_storage)dyn_storage": {
        "base": "t_struct(BCEvent)3837_storage",
        "encoding": "dynamic_array",
        "label": "struct BCEvents.BCEvent[]",
        "numberOfBytes": "32"
      },
      "t_bool": {
        "encoding": "inplace",
        "label": "bool",
        "numberOfBytes": "1"
      },
      "t_enum(EnemyPlacement)3761": {
        "encoding": "inplace",
        "label": "enum BCEvents.EnemyPlacement",
        "numberOfBytes": "1"
      },
      "t_enum(EnemyType)3774": {
        "encoding": "inplace",
        "label": "enum BCEvents.EnemyType",
        "numberOfBytes": "1"
      },
      "t_enum(MovePlayer)3768": {
        "encoding": "inplace",
        "label": "enum BCEvents.MovePlayer",
        "numberOfBytes": "1"
      },
      "t_int8": {
        "encoding": "inplace",
        "label": "int8",
        "numberOfBytes": "1"
      },
      "t_struct(BCEffect)3819_storage": {
        "encoding": "inplace",
        "label": "struct BCEvents.BCEffect",
        "members": [
          {
            "astId": 3776,
            "contract": "contracts/BCEvents.sol:BCEvents",
            "label": "permanent",
            "offset": 0,
            "slot": "0",
            "type": "t_bool"
          },
          {
            "astId": 3778,
            "contract": "contracts/BCEvents.sol:BCEvents",
            "label": "fullHealth",
            "offset": 1,
            "slot": "0",
            "type": "t_bool"
          },
          {
            "astId": 3780,
            "contract": "contracts/BCEvents.sol:BCEvents",
            "label": "instantDeath",
            "offset": 2,
            "slot": "0",
            "type": "t_bool"
          },
          {
            "astId": 3782,
            "contract": "contracts/BCEvents.sol:BCEvents",
            "label": "placeHazard",
            "offset": 3,
            "slot": "0",
            "type": "t_bool"
          },
          {
            "astId": 3784,
            "contract": "contracts/BCEvents.sol:BCEvents",
            "label": "grantEgg",
            "offset": 4,
            "slot": "0",
            "type": "t_bool"
          },
          {
            "astId": 3786,
            "contract": "contracts/BCEvents.sol:BCEvents",
            "label": "healAmt",
            "offset": 5,
            "slot": "0",
            "type": "t_uint8"
          },
          {
            "astId": 3788,
            "contract": "contracts/BCEvents.sol:BCEvents",
            "label": "healArmorAmt",
            "offset": 6,
            "slot": "0",
            "type": "t_uint8"
          },
          {
            "astId": 3790,
            "contract": "contracts/BCEvents.sol:BCEvents",
            "label": "hazardDamage",
            "offset": 7,
            "slot": "0",
            "type": "t_uint8"
          },
          {
            "astId": 3792,
            "contract": "contracts/BCEvents.sol:BCEvents",
            "label": "physicalDamage",
            "offset": 8,
            "slot": "0",
            "type": "t_uint8"
          },
          {
            "astId": 3794,
            "contract": "contracts/BCEvents.sol:BCEvents",
            "label": "numEnemyToPlace",
            "offset": 9,
            "slot": "0",
            "type": "t_uint8"
          },
          {
            "astId": 3797,
            "contract": "contracts/BCEvents.sol:BCEvents",
            "label": "enemyType",
            "offset": 10,
            "slot": "0",
            "type": "t_enum(EnemyType)3774"
          },
          {
            "astId": 3800,
            "contract": "contracts/BCEvents.sol:BCEvents",
            "label": "wheretoPlace",
            "offset": 11,
            "slot": "0",
            "type": "t_enum(EnemyPlacement)3761"
          },
          {
            "astId": 3802,
            "contract": "contracts/BCEvents.sol:BCEvents",
            "label": "grantData",
            "offset": 12,
            "slot": "0",
            "type": "t_uint8"
          },
          {
            "astId": 3804,
            "contract": "contracts/BCEvents.sol:BCEvents",
            "label": "grantNumItems",
            "offset": 13,
            "slot": "0",
            "type": "t_uint8"
          },
          {
            "astId": 3806,
            "contract": "contracts/BCEvents.sol:BCEvents",
            "label": "takeNumItems",
            "offset": 14,
            "slot": "0",
            "type": "t_uint8"
          },
          {
            "astId": 3809,
            "contract": "contracts/BCEvents.sol:BCEvents",
            "label": "moveType",
            "offset": 15,
            "slot": "0",
            "type": "t_enum(MovePlayer)3768"
          },
          {
            "astId": 3811,
            "contract": "contracts/BCEvents.sol:BCEvents",
            "label": "trapPlayerEscapeRoll",
            "offset": 16,
            "slot": "0",
            "type": "t_uint8"
          },
          {
            "astId": 3813,
            "contract": "contracts/BCEvents.sol:BCEvents",
            "label": "grantAbility",
            "offset": 17,
            "slot": "0",
            "type": "t_uint8"
          },
          {
            "astId": 3815,
            "contract": "contracts/BCEvents.sol:BCEvents",
            "label": "lockDoorStrength",
            "offset": 18,
            "slot": "0",
            "type": "t_uint8"
          },
          {
            "astId": 3818,
            "contract": "contracts/BCEvents.sol:BCEvents",
            "label": "traitModifiers",
            "offset": 0,
            "slot": "1",
            "type": "t_struct(Traits)10219_storage"
          }
        ],
        "numberOfBytes": "64"
      },
      "t_struct(BCEvent)3837_storage": {
        "encoding": "inplace",
        "label": "struct BCEvents.BCEvent",
        "members": [
          {
            "astId": 3821,
            "contract": "contracts/BCEvents.sol:BCEvents",
            "label": "id",
            "offset": 0,
            "slot": "0",
            "type": "t_uint256"
          },
          {
            "astId": 3823,
            "contract": "contracts/BCEvents.sol:BCEvents",
            "label": "permanent",
            "offset": 0,
            "slot": "1",
            "type": "t_bool"
          },
          {
            "astId": 3825,
            "contract": "contracts/BCEvents.sol:BCEvents",
            "label": "rollForLow",
            "offset": 1,
            "slot": "1",
            "type": "t_uint8"
          },
          {
            "astId": 3827,
            "contract": "contracts/BCEvents.sol:BCEvents",
            "label": "rollForHigh",
            "offset": 2,
            "slot": "1",
            "type": "t_uint8"
          },
          {
            "astId": 3830,
            "contract": "contracts/BCEvents.sol:BCEvents",
            "label": "defaultEffect",
            "offset": 0,
            "slot": "2",
            "type": "t_struct(BCEffect)3819_storage"
          },
          {
            "astId": 3833,
            "contract": "contracts/BCEvents.sol:BCEvents",
            "label": "lowEffect",
            "offset": 0,
            "slot": "4",
            "type": "t_struct(BCEffect)3819_storage"
          },
          {
            "astId": 3836,
            "contract": "contracts/BCEvents.sol:BCEvents",
            "label": "highEffect",
            "offset": 0,
            "slot": "6",
            "type": "t_struct(BCEffect)3819_storage"
          }
        ],
        "numberOfBytes": "256"
      },
      "t_struct(Traits)10219_storage": {
        "encoding": "inplace",
        "label": "struct BCTypes.Traits",
        "members": [
          {
            "astId": 10206,
            "contract": "contracts/BCEvents.sol:BCEvents",
            "label": "health",
            "offset": 0,
            "slot": "0",
            "type": "t_int8"
          },
          {
            "astId": 10208,
            "contract": "contracts/BCEvents.sol:BCEvents",
            "label": "carry",
            "offset": 1,
            "slot": "0",
            "type": "t_int8"
          },
          {
            "astId": 10210,
            "contract": "contracts/BCEvents.sol:BCEvents",
            "label": "defense",
            "offset": 2,
            "slot": "0",
            "type": "t_int8"
          },
          {
            "astId": 10212,
            "contract": "contracts/BCEvents.sol:BCEvents",
            "label": "hack",
            "offset": 3,
            "slot": "0",
            "type": "t_int8"
          },
          {
            "astId": 10214,
            "contract": "contracts/BCEvents.sol:BCEvents",
            "label": "breach",
            "offset": 4,
            "slot": "0",
            "type": "t_int8"
          },
          {
            "astId": 10216,
            "contract": "contracts/BCEvents.sol:BCEvents",
            "label": "shoot",
            "offset": 5,
            "slot": "0",
            "type": "t_int8"
          },
          {
            "astId": 10218,
            "contract": "contracts/BCEvents.sol:BCEvents",
            "label": "melee",
            "offset": 6,
            "slot": "0",
            "type": "t_int8"
          }
        ],
        "numberOfBytes": "32"
      },
      "t_uint256": {
        "encoding": "inplace",
        "label": "uint256",
        "numberOfBytes": "32"
      },
      "t_uint8": {
        "encoding": "inplace",
        "label": "uint8",
        "numberOfBytes": "1"
      }
    }
  }
}