{
  "address": "0x0ACB7e9653aB8eff48f8A68C78d58417Ff7f0422",
  "abi": [
    {
      "inputs": [],
      "stateMutability": "nonpayable",
      "type": "constructor"
    },
    {
      "anonymous": false,
      "inputs": [
        {
          "indexed": true,
          "internalType": "address",
          "name": "previousOwner",
          "type": "address"
        },
        {
          "indexed": true,
          "internalType": "address",
          "name": "newOwner",
          "type": "address"
        }
      ],
      "name": "OwnershipTransferred",
      "type": "event"
    },
    {
      "inputs": [
        {
          "internalType": "uint256",
          "name": "",
          "type": "uint256"
        }
      ],
      "name": "bcBugCardEvents",
      "outputs": [
        {
          "internalType": "uint256",
          "name": "id",
          "type": "uint256"
        },
        {
          "internalType": "bool",
          "name": "permanent",
          "type": "bool"
        },
        {
          "internalType": "uint8",
          "name": "rollForLow",
          "type": "uint8"
        },
        {
          "internalType": "uint8",
          "name": "rollForHigh",
          "type": "uint8"
        }
      ],
      "stateMutability": "view",
      "type": "function"
    },
    {
      "inputs": [
        {
          "internalType": "uint256",
          "name": "",
          "type": "uint256"
        }
      ],
      "name": "bcMysteryCardEvents",
      "outputs": [
        {
          "internalType": "uint256",
          "name": "id",
          "type": "uint256"
        },
        {
          "internalType": "bool",
          "name": "permanent",
          "type": "bool"
        },
        {
          "internalType": "uint8",
          "name": "rollForLow",
          "type": "uint8"
        },
        {
          "internalType": "uint8",
          "name": "rollForHigh",
          "type": "uint8"
        }
      ],
      "stateMutability": "view",
      "type": "function"
    },
    {
      "inputs": [
        {
          "internalType": "uint256",
          "name": "",
          "type": "uint256"
        }
      ],
      "name": "bcRoomEvents",
      "outputs": [
        {
          "internalType": "uint256",
          "name": "id",
          "type": "uint256"
        },
        {
          "internalType": "bool",
          "name": "permanent",
          "type": "bool"
        },
        {
          "internalType": "uint8",
          "name": "rollForLow",
          "type": "uint8"
        },
        {
          "internalType": "uint8",
          "name": "rollForHigh",
          "type": "uint8"
        }
      ],
      "stateMutability": "view",
      "type": "function"
    },
    {
      "inputs": [
        {
          "internalType": "uint256",
          "name": "",
          "type": "uint256"
        }
      ],
      "name": "bcScavCardEvents",
      "outputs": [
        {
          "internalType": "uint256",
          "name": "id",
          "type": "uint256"
        },
        {
          "internalType": "bool",
          "name": "permanent",
          "type": "bool"
        },
        {
          "internalType": "uint8",
          "name": "rollForLow",
          "type": "uint8"
        },
        {
          "internalType": "uint8",
          "name": "rollForHigh",
          "type": "uint8"
        }
      ],
      "stateMutability": "view",
      "type": "function"
    },
    {
      "inputs": [
        {
          "internalType": "uint256",
          "name": "",
          "type": "uint256"
        }
      ],
      "name": "bcShipCardEvents",
      "outputs": [
        {
          "internalType": "uint256",
          "name": "id",
          "type": "uint256"
        },
        {
          "internalType": "bool",
          "name": "permanent",
          "type": "bool"
        },
        {
          "internalType": "uint8",
          "name": "rollForLow",
          "type": "uint8"
        },
        {
          "internalType": "uint8",
          "name": "rollForHigh",
          "type": "uint8"
        }
      ],
      "stateMutability": "view",
      "type": "function"
    },
    {
      "inputs": [
        {
          "internalType": "uint256",
          "name": "",
          "type": "uint256"
        },
        {
          "internalType": "uint256",
          "name": "",
          "type": "uint256"
        }
      ],
      "name": "effectsList",
      "outputs": [
        {
          "internalType": "enum BCEvents.EffectTypes",
          "name": "effect",
          "type": "uint8"
        },
        {
          "internalType": "uint256",
          "name": "value",
          "type": "uint256"
        }
      ],
      "stateMutability": "view",
      "type": "function"
    },
    {
      "inputs": [
        {
          "internalType": "uint256",
          "name": "_id",
          "type": "uint256"
        },
        {
          "internalType": "enum BCTypes.BCEventType",
          "name": "_type",
          "type": "uint8"
        }
      ],
      "name": "extGetCardEvent",
      "outputs": [
        {
          "components": [
            {
              "internalType": "uint256",
              "name": "id",
              "type": "uint256"
            },
            {
              "internalType": "bool",
              "name": "permanent",
              "type": "bool"
            },
            {
              "internalType": "uint8",
              "name": "rollForLow",
              "type": "uint8"
            },
            {
              "internalType": "uint8",
              "name": "rollForHigh",
              "type": "uint8"
            },
            {
              "components": [
                {
                  "internalType": "enum BCEvents.EffectTypes",
                  "name": "effect",
                  "type": "uint8"
                },
                {
                  "internalType": "uint256",
                  "name": "value",
                  "type": "uint256"
                }
              ],
              "internalType": "struct BCEvents.Effect[]",
              "name": "defaultEffect",
              "type": "tuple[]"
            },
            {
              "components": [
                {
                  "internalType": "enum BCEvents.EffectTypes",
                  "name": "effect",
                  "type": "uint8"
                },
                {
                  "internalType": "uint256",
                  "name": "value",
                  "type": "uint256"
                }
              ],
              "internalType": "struct BCEvents.Effect[]",
              "name": "lowEffect",
              "type": "tuple[]"
            },
            {
              "components": [
                {
                  "internalType": "enum BCEvents.EffectTypes",
                  "name": "effect",
                  "type": "uint8"
                },
                {
                  "internalType": "uint256",
                  "name": "value",
                  "type": "uint256"
                }
              ],
              "internalType": "struct BCEvents.Effect[]",
              "name": "highEffect",
              "type": "tuple[]"
            }
          ],
          "internalType": "struct BCEvents.BCEvent",
          "name": "",
          "type": "tuple"
        }
      ],
      "stateMutability": "view",
      "type": "function"
    },
    {
      "inputs": [
        {
          "internalType": "enum BCTypes.BCEventType",
          "name": "_eventType",
          "type": "uint8"
        },
        {
          "internalType": "uint256",
          "name": "_id",
          "type": "uint256"
        }
      ],
      "name": "extGetEffects",
      "outputs": [
        {
          "components": [
            {
              "internalType": "enum BCEvents.EffectTypes",
              "name": "effect",
              "type": "uint8"
            },
            {
              "internalType": "uint256",
              "name": "value",
              "type": "uint256"
            }
          ],
          "internalType": "struct BCEvents.Effect[][]",
          "name": "",
          "type": "tuple[][]"
        }
      ],
      "stateMutability": "view",
      "type": "function"
    },
    {
      "inputs": [
        {
          "internalType": "uint256",
          "name": "_id",
          "type": "uint256"
        }
      ],
      "name": "extGetRoomEvent",
      "outputs": [
        {
          "components": [
            {
              "internalType": "uint256",
              "name": "id",
              "type": "uint256"
            },
            {
              "internalType": "bool",
              "name": "permanent",
              "type": "bool"
            },
            {
              "internalType": "uint8",
              "name": "rollForLow",
              "type": "uint8"
            },
            {
              "internalType": "uint8",
              "name": "rollForHigh",
              "type": "uint8"
            },
            {
              "components": [
                {
                  "internalType": "enum BCEvents.EffectTypes",
                  "name": "effect",
                  "type": "uint8"
                },
                {
                  "internalType": "uint256",
                  "name": "value",
                  "type": "uint256"
                }
              ],
              "internalType": "struct BCEvents.Effect[]",
              "name": "defaultEffect",
              "type": "tuple[]"
            },
            {
              "components": [
                {
                  "internalType": "enum BCEvents.EffectTypes",
                  "name": "effect",
                  "type": "uint8"
                },
                {
                  "internalType": "uint256",
                  "name": "value",
                  "type": "uint256"
                }
              ],
              "internalType": "struct BCEvents.Effect[]",
              "name": "lowEffect",
              "type": "tuple[]"
            },
            {
              "components": [
                {
                  "internalType": "enum BCEvents.EffectTypes",
                  "name": "effect",
                  "type": "uint8"
                },
                {
                  "internalType": "uint256",
                  "name": "value",
                  "type": "uint256"
                }
              ],
              "internalType": "struct BCEvents.Effect[]",
              "name": "highEffect",
              "type": "tuple[]"
            }
          ],
          "internalType": "struct BCEvents.BCEvent",
          "name": "",
          "type": "tuple"
        }
      ],
      "stateMutability": "view",
      "type": "function"
    },
    {
      "inputs": [],
      "name": "owner",
      "outputs": [
        {
          "internalType": "address",
          "name": "",
          "type": "address"
        }
      ],
      "stateMutability": "view",
      "type": "function"
    },
    {
      "inputs": [],
      "name": "renounceOwnership",
      "outputs": [],
      "stateMutability": "nonpayable",
      "type": "function"
    },
    {
      "inputs": [
        {
          "internalType": "address",
          "name": "newOwner",
          "type": "address"
        }
      ],
      "name": "transferOwnership",
      "outputs": [],
      "stateMutability": "nonpayable",
      "type": "function"
    }
  ],
  "transactionHash": "0x96debd8aa7dcb6ed9ef340c8c0822b38194a6f565c0cc947516a240e9cc1b22f",
  "args": [],
  "numDeployments": 2,
  "solcInputHash": "927b54aab0ea7258e06983ba7a51e557",
  "bytecode": "0x60806040523480156200001157600080fd5b506200001d336200004c565b6001805481018155600052620000326200009c565b6200003c62000bea565b6200004662000e41565b62002649565b600080546001600160a01b038381166001600160a01b0319831681178455604051919092169283917f8be0079c531659141344cd1fd0a4f28419497f9722a3daafe3b4186f6b6457e09190a35050565b60006001600081548110620000b557620000b56200261d565b6000918252602082206002805460018101825590845260050260008051602062003bb7833981519152810193845560008051602062003c178339815191528101805462ffffff1916905591018054909350620001259160008051602062003c578339815191520190849062002568565b5081546200013a906003830190849062002568565b5081546200014f906004830190849062002568565b506001805480820182556040805180820190915260048152602080820184905260008051602062003c7783398151915290920180548085018255600082815293909320825160029094020180549194929390929091839160ff1990911690836016811115620001c257620001c262002633565b021790555060208201518160010155505080604051806040016040528060086016811115620001f557620001f562002633565b815260016020918201819052835480820185556000948552919093208251600290920201805492939092839160ff19909116908360168111156200023d576200023d62002633565b02179055506020919091015160019182015560028054918201815560005262030d41600590910260008051602062003bb7833981519152810191825560008051602062003c178339815191528101805462ffffff191690558254620002b69160008051602062003c578339815191520190849062002568565b508354620002cb906003830190869062002568565b508354620002e0906004830190869062002568565b5060018054808201825560408051808201909152600a8152602080820184905260008051602062003c7783398151915290920180548085018255600082815293909320825160029094020180549194929390929091839160ff199091169083601681111562000353576200035362002633565b0217905550602082015181600101555050806040518060400160405280600b601681111562000386576200038662002633565b815260200160049052815460018181018455600093845260209093208251600290920201805492939092839160ff1990911690836016811115620003ce57620003ce62002633565b0217905550602082015181600101555050806040518060400160405280600c601681111562000401576200040162002633565b815260200160019052815460018181018455600093845260209093208251600290920201805492939092839160ff199091169083601681111562000449576200044962002633565b021790555060209182015160019182015580548082018255604080518082019091526005815280840183905260008051602062003c77833981519152909101805480840182556000828152949094208251600290950201805491949293909291839160ff1990911690836016811115620004c757620004c762002633565b02179055506020919091015160019182015560028054918201815560005262030d42600590910260008051602062003bb7833981519152810191825560008051602062003c17833981519152810180546206020162ffffff199091161790558754620005479160008051602062003c578339815191520190899062002568565b5082546200055c906003830190859062002568565b50815462000571906004830190849062002568565b5060018054808201825560408051808201909152600a8152600360208083019190915260008051602062003c7783398151915290920180548085018255600082815293909320825160029094020180549194929390929091839160ff1990911690836016811115620005e757620005e762002633565b0217905550602082015181600101555050806040518060400160405280600b60168111156200061a576200061a62002633565b815260200160039052815460018181018455600093845260209093208251600290920201805492939092839160ff199091169083601681111562000662576200066262002633565b0217905550602082015181600101555050806040518060400160405280600c601681111562000695576200069562002633565b815260200160019052815460018181018455600093845260209093208251600290920201805492939092839160ff1990911690836016811115620006dd57620006dd62002633565b02179055506020919091015160019182015560028054918201815560005262030d43600590910260008051602062003bb7833981519152810191825560008051602062003c178339815191528101805462ffffff191690558254620007569160008051602062003c578339815191520190849062002568565b5088546200076b9060038301908b9062002568565b508854620007809060048301908b9062002568565b506001805480820182556040805180820190915260118152600560208083019190915260008051602062003c7783398151915290920180548085018255600082815293909320825160029094020180549194929390929091839160ff1990911690836016811115620007f657620007f662002633565b02179055506020919091015160019182015560028054808301825560009190915262030d4460008051602062003bb7833981519152600590920291820190815560008051602062003c178339815191528201805462ffffff19169093179092558254620008779160008051602062003c578339815191520190849062002568565b508a546200088c9060038301908d9062002568565b508a54620008a19060048301908d9062002568565b506001805480820182556040805180820190915260048152602080820184905260008051602062003c7783398151915290920180548085018255600082815293909320825160029094020180549194929390929091839160ff199091169083601681111562000914576200091462002633565b021790555060209182015160019182015580548082018255604080518082019091526004815280840183905260008051602062003c77833981519152909101805480840182556000828152949094208251600290950201805491949293909291839160ff199091169083601681111562000992576200099262002633565b021790555060208201518160010155505080604051806040016040528060036016811115620009c557620009c562002633565b815260016020918201819052835480820185556000948552919093208251600290920201805492939092839160ff199091169083601681111562000a0d5762000a0d62002633565b02179055506020919091015160019182015560028054918201815560005262030d45600590910260008051602062003bb7833981519152810191825560008051602062003c178339815191528101805462ffffff1916610100179055835462000a8a9160008051602062003c578339815191520190859062002568565b50815462000a9f906003830190849062002568565b508d8160040190805462000ab592919062002568565b50600180548082018255604080518082019091526002808252602080830185905260008051602062003c778339815191529093018054808601825560008281529490942083519490920290910180549194929390929091839160ff199091169083601681111562000b2a5762000b2a62002633565b02179055506020919091015160019182015560028054808301825560009190915262030d4660008051602062003bb7833981519152600590920291820190815560008051602062003c178339815191528201805462ffffff1916909317909255825462000bab9160008051602062003c578339815191520190849062002568565b508f8160030190805462000bc192919062002568565b508f8160040190805462000bd792919062002568565b5050505050505050505050505050505050565b6000600160008154811062000c035762000c036200261d565b60009182526020808320600180548082018255604080518082019091526008815280850183905260008051602062003c7783398151915290910180548084018255818852949096208151600290950201805495909301965093919291839160ff199091169083601681111562000c7d5762000c7d62002633565b02179055506020919091015160019182015560028054918201815560005262030d47600590910260008051602062003bb7833981519152810191825560008051602062003c178339815191528101805462ffffff19169055825462000cf69160008051602062003c578339815191520190849062002568565b50825462000d0b906003830190859062002568565b50825462000d20906004830190859062002568565b506001805480820182556040805180820190915260158152600460208083019190915260008051602062003c7783398151915290920180548085018255600082815293909320825160029094020180549194929390929091839160ff199091169083601681111562000d965762000d9662002633565b02179055506020919091015160019182015560028054918201815560005262030d48600590910260008051602062003bb7833981519152810191825560008051602062003c178339815191528101805462ffffff19169055825462000e0f9160008051602062003c578339815191520190849062002568565b50845462000e24906003830190879062002568565b50845462000e39906004830190879062002568565b505050505050565b6003805460018082019092556000600590910260008051602062003bf7833981519152018181558254808401845560408051808201909152600a8152602080820186905260008051602062003c7783398151915290920180548087018255818652929094208151600290930201805493959193909291839160ff19169083601681111562000ed35762000ed362002633565b0217905550602082015181600101555050806040518060400160405280600b601681111562000f065762000f0662002633565b815260200160049052815460018181018455600093845260209093208251600290920201805492939092839160ff199091169083601681111562000f4e5762000f4e62002633565b0217905550602082015181600101555050806040518060400160405280600b601681111562000f815762000f8162002633565b815260200160019052815460018181018455600093845260209093208251600290920201805492939092839160ff199091169083601681111562000fc95762000fc962002633565b021790555060209190910151600191820155600380549182018155600052620493e1600590910260008051602062003bf7833981519152810191825560008051602062003bd78339815191528101805460ff191690558254620010409160008051602062003c378339815191520190849062002568565b506001805480820182556040805180820190915260098152602080820184905260008051602062003c7783398151915290920180548085018255600082815293909320825160029094020180549194929390929091839160ff1990911690836016811115620010b357620010b362002633565b021790555060209190910151600191820155600380549182018155600052620493e2600590910260008051602062003bf7833981519152810191825560008051602062003bd78339815191528101805460ff1916905582546200112a9160008051602062003c378339815191520190849062002568565b506001805480820182556040805180820190915260148152602080820184905260008051602062003c7783398151915290920180548085018255600082815293909320825160029094020180549194929390929091839160ff19909116908360168111156200119d576200119d62002633565b021790555060209190910151600191820155600380549182018155600052620493e3600590910260008051602062003bf7833981519152810191825560008051602062003bd78339815191528101805460ff191690558254620012149160008051602062003c378339815191520190849062002568565b5060018054808201825560408051808201909152600f8152602080820184905260008051602062003c7783398151915290920180548085018255600082815293909320825160029094020180549194929390929091839160ff199091169083601681111562001287576200128762002633565b021790555060209190910151600191820155600380549182018155600052620493e4600590910260008051602062003bf7833981519152810191825560008051602062003bd78339815191528101805460ff191690558254620012fe9160008051602062003c378339815191520190849062002568565b5060018054808201825560408051808201909152601381526000602080830182905260008051602062003c778339815191529093018054808601825581835293909120825160029094020180549194929390929091839160ff199091169083601681111562001371576200137162002633565b021790555060208201518160010155505080604051806040016040528060136016811115620013a457620013a462002633565b8152600060209182018190528354600181810186559482529190208251600290920201805492939092839160ff1990911690836016811115620013eb57620013eb62002633565b021790555060209190910151600191820155600380549182018155600052620493e5600590910260008051602062003bf7833981519152810191825560008051602062003bd78339815191528101805460ff191690558254620014629160008051602062003c378339815191520190849062002568565b5060018054808201825560408051808201909152600e81526002602080830182905260008051602062003c778339815191529093018054808601825560008281529490942083519490920290910180549194929390929091839160ff1990911690836016811115620014d857620014d862002633565b021790555060209190910151600191820155600380549182018155600052620493e6600590910260008051602062003bf7833981519152810191825560008051602062003bd78339815191528101805460ff1916905582546200154f9160008051602062003c378339815191520190849062002568565b5060018054808201825560408051808201909152600a81526002602080830182905260008051602062003c778339815191529093018054808601825560008281529490942083519490920290910180549194929390929091839160ff1990911690836016811115620015c557620015c562002633565b0217905550602082015181600101555050806040518060400160405280600b6016811115620015f857620015f862002633565b815260200160049052815460018181018455600093845260209093208251600290920201805492939092839160ff199091169083601681111562001640576200164062002633565b0217905550602082015181600101555050806040518060400160405280600c601681111562001673576200167362002633565b815260200160029052815460018181018455600093845260209093208251600290920201805492939092839160ff1990911690836016811115620016bb57620016bb62002633565b021790555060209190910151600191820155600380549182018155600052620493e7600590910260008051602062003bf783398151915281019182558254620017189160008051602062003c378339815191520190849062002568565b5060018054808201825560408051808201909152600a8152602080820184905260008051602062003c7783398151915290920180548085018255600082815293909320825160029094020180549194929390929091839160ff19909116908360168111156200178b576200178b62002633565b0217905550602082015181600101555050806040518060400160405280600b6016811115620017be57620017be62002633565b815260200160049052815460018181018455600093845260209093208251600290920201805492939092839160ff199091169083601681111562001806576200180662002633565b0217905550602082015181600101555050806040518060400160405280600c601681111562001839576200183962002633565b815260200160019052815460018181018455600093845260209093208251600290920201805492939092839160ff199091169083601681111562001881576200188162002633565b021790555060209190910151600191820155600380549182018155600052620493e8600590910260008051602062003bf783398151915281019182558254620018de9160008051602062003c378339815191520190849062002568565b5060018054808201825560408051808201909152600e8152602080820184905260008051602062003c7783398151915290920180548085018255600082815293909320825160029094020180549194929390929091839160ff199091169083601681111562001951576200195162002633565b021790555060209190910151600191820155600380549182018155600052620493e9600590910260008051602062003bf783398151915281019182558254620019ae9160008051602062003c378339815191520190849062002568565b506001805480820182556040805180820190915260088152602080820184905260008051602062003c7783398151915290920180548085018255600082815293909320825160029094020180549194929390929091839160ff199091169083601681111562001a215762001a2162002633565b02179055506020820151816001015550508060405180604001604052806004601681111562001a545762001a5462002633565b815260016020918201819052835480820185556000948552919093208251600290920201805492939092839160ff199091169083601681111562001a9c5762001a9c62002633565b021790555060209190910151600191820155600380549182018155600052620493ea600590910260008051602062003bf78339815191528101918255825462001af99160008051602062003c378339815191520190849062002568565b5060018054808201825560408051808201909152600e8152602080820184905260008051602062003c7783398151915290920180548085018255600082815293909320825160029094020180549194929390929091839160ff199091169083601681111562001b6c5762001b6c62002633565b0217905550602082015181600101555050806040518060400160405280600a601681111562001b9f5762001b9f62002633565b815260016020918201819052835480820185556000948552919093208251600290920201805492939092839160ff199091169083601681111562001be75762001be762002633565b0217905550602082015181600101555050806040518060400160405280600b601681111562001c1a5762001c1a62002633565b815260200160049052815460018181018455600093845260209093208251600290920201805492939092839160ff199091169083601681111562001c625762001c6262002633565b0217905550602082015181600101555050806040518060400160405280600c601681111562001c955762001c9562002633565b815260200160019052815460018181018455600093845260209093208251600290920201805492939092839160ff199091169083601681111562001cdd5762001cdd62002633565b02179055506020918201516001918201558054808201825560408051808201909152600a815280840183905260008051602062003c77833981519152909101805480840182556000828152949094208251600290950201805491949293909291839160ff199091169083601681111562001d5b5762001d5b62002633565b0217905550602082015181600101555050806040518060400160405280600b601681111562001d8e5762001d8e62002633565b815260200160049052815460018181018455600093845260209093208251600290920201805492939092839160ff199091169083601681111562001dd65762001dd662002633565b0217905550602082015181600101555050806040518060400160405280600c601681111562001e095762001e0962002633565b815260200160019052815460018181018455600093845260209093208251600290920201805492939092839160ff199091169083601681111562001e515762001e5162002633565b02179055506020918201516001918201558054808201825560408051808201909152600e815280840183905260008051602062003c77833981519152909101805480840182556000828152949094208251600290950201805491949293909291839160ff199091169083601681111562001ecf5762001ecf62002633565b021790555060209190910151600191820155600380549182018155600052620493eb600590910260008051602062003bf7833981519152810191825560008051602062003bd7833981519152810180546206010062ffff0019909116179055845462001f4f9160008051602062003c378339815191520190869062002568565b50825462001f64906003830190859062002568565b50815462001f79906004830190849062002568565b5060018054808201825560408051808201909152600a8152602080820184905260008051602062003c7783398151915290920180548085018255600082815293909320825160029094020180549194929390929091839160ff199091169083601681111562001fec5762001fec62002633565b0217905550602082015181600101555050806040518060400160405280600b60168111156200201f576200201f62002633565b815260200160049052815460018181018455600093845260209093208251600290920201805492939092839160ff199091169083601681111562002067576200206762002633565b0217905550602082015181600101555050806040518060400160405280600c60168111156200209a576200209a62002633565b815260200160029052815460018181018455600093845260209093208251600290920201805492939092839160ff1990911690836016811115620020e257620020e262002633565b021790555060209190910151600191820155600380549182018155600052620493ec600590910260008051602062003bf7833981519152810191825582546200213f9160008051602062003c378339815191520190849062002568565b5060018054808201825560408051808201909152600a8152602080820184905260008051602062003c7783398151915290920180548085018255600082815293909320825160029094020180549194929390929091839160ff1990911690836016811115620021b257620021b262002633565b0217905550602082015181600101555050806040518060400160405280600b6016811115620021e557620021e562002633565b815260200160049052815460018181018455600093845260209093208251600290920201805492939092839160ff19909116908360168111156200222d576200222d62002633565b0217905550602082015181600101555050806040518060400160405280600c601681111562002260576200226062002633565b815260200160019052815460018181018455600093845260209093208251600290920201805492939092839160ff1990911690836016811115620022a857620022a862002633565b021790555060209190910151600191820155600380549182018155600052620493ed600590910260008051602062003bf783398151915281019182558254620023059160008051602062003c378339815191520190849062002568565b506001805480820182556040805180820190915260108152602080820184905260008051602062003c7783398151915290920180548085018255600082815293909320825160029094020180549194929390929091839160ff199091169083601681111562002378576200237862002633565b0217905550602082015181600101555050806040518060400160405280600a6016811115620023ab57620023ab62002633565b815260016020918201819052835480820185556000948552919093208251600290920201805492939092839160ff1990911690836016811115620023f357620023f362002633565b0217905550602082015181600101555050806040518060400160405280600b601681111562002426576200242662002633565b815260200160049052815460018181018455600093845260209093208251600290920201805492939092839160ff19909116908360168111156200246e576200246e62002633565b0217905550602082015181600101555050806040518060400160405280600c6016811115620024a157620024a162002633565b815260200160019052815460018181018455600093845260209093208251600290920201805492939092839160ff1990911690836016811115620024e957620024e962002633565b021790555060209190910151600191820155600380549182018155600052620186af600590910260008051602062003bf783398151915281019182558254620025469160008051602062003c378339815191520190849062002568565b5050505050505050505050505050505050505050505050505050505050505050565b828054828255906000526020600020906002028101928215620025e95760005260206000209160020282015b82811115620025e957825482548491849160ff90911690829060ff19166001836016811115620025c857620025c862002633565b02179055506001820154816001015550509160020191906002019062002594565b50620025f7929150620025fb565b5090565b5b80821115620025f757805460ff1916815560006001820155600201620025fc565b634e487b7160e01b600052603260045260246000fd5b634e487b7160e01b600052602160045260246000fd5b61155e80620026596000396000f3fe608060405234801561001057600080fd5b50600436106100b45760003560e01c80638da5cb5b116100715780638da5cb5b14610150578063c82c37b91461016b578063d9dcaa4c1461018b578063e4dc1a83146101ab578063f2fde38b146101be578063f6467e23146101d157600080fd5b806301894acb146100b957806345412253146100fa578063497ae0661461010d578063715018a61461012057806373e1c9441461012a5780637a315cc01461013d575b600080fd5b6100cc6100c73660046112a1565b6101f2565b60408051948552921515602085015260ff918216928401929092521660608201526080015b60405180910390f35b6100cc6101083660046112a1565b610236565b6100cc61011b3660046112a1565b610246565b610128610256565b005b6100cc6101383660046112a1565b61026a565b6100cc61014b3660046112a1565b61027a565b6000546040516001600160a01b0390911681526020016100f1565b61017e6101793660046112a1565b61028a565b6040516100f1919061133f565b61019e6101993660046113ed565b6104b2565b6040516100f19190611417565b61017e6101b9366004611479565b61082a565b6101286101cc3660046114a5565b6110ed565b6101e46101df3660046114d5565b611166565b6040516100f19291906114f7565b6005818154811061020257600080fd5b60009182526020909120600590910201805460019091015490915060ff808216916101008104821691620100009091041684565b6002818154811061020257600080fd5b6004818154811061020257600080fd5b61025e6111b2565b610268600061120c565b565b6006818154811061020257600080fd5b6003818154811061020257600080fd5b61029261125c565b600282815481106102a5576102a5611512565b600091825260208083206040805160e081018252600590940290910180548452600181015460ff8082161515868601526101008204811686850152620100009091041660608501526002810180548351818602810186019094528084529495919460808701949192909184015b8282101561037a5760008481526020902060408051808201909152600284029091018054829060ff16601681111561034c5761034c6112ba565b601681111561035d5761035d6112ba565b815260200160018201548152505081526020019060010190610312565b50505050815260200160038201805480602002602001604051908101604052809291908181526020016000905b8282101561040f5760008481526020902060408051808201909152600284029091018054829060ff1660168111156103e1576103e16112ba565b60168111156103f2576103f26112ba565b8152602001600182015481525050815260200190600101906103a7565b50505050815260200160048201805480602002602001604051908101604052809291908181526020016000905b828210156104a45760008481526020902060408051808201909152600284029091018054829060ff166016811115610476576104766112ba565b6016811115610487576104876112ba565b81526020016001820154815250508152602001906001019061043c565b505050915250909392505050565b6040805160038082526080820190925260609160009190816020015b60608152602001906001900390816104ce579050509050600060058560058111156104fb576104fb6112ba565b03610528576002848154811061051357610513611512565b90600052602060002090600502019050610616565b600185600581111561053c5761053c6112ba565b03610554576003848154811061051357610513611512565b6002856005811115610568576105686112ba565b03610580576004848154811061051357610513611512565b6003856005811115610594576105946112ba565b036105ac576005848154811061051357610513611512565b60048560058111156105c0576105c06112ba565b036105d8576006848154811061051357610513611512565b60405162461bcd60e51b815260206004820152600e60248201526d426164206576656e74207479706560901b60448201526064015b60405180910390fd5b80600201805480602002602001604051908101604052809291908181526020016000905b828210156106a25760008481526020902060408051808201909152600284029091018054829060ff166016811115610674576106746112ba565b6016811115610685576106856112ba565b81526020016001820154815250508152602001906001019061063a565b50505050826000815181106106b9576106b9611512565b602002602001018190525080600301805480602002602001604051908101604052809291908181526020016000905b828210156107505760008481526020902060408051808201909152600284029091018054829060ff166016811115610722576107226112ba565b6016811115610733576107336112ba565b8152602001600182015481525050815260200190600101906106e8565b505050508260018151811061076757610767611512565b602002602001018190525080600401805480602002602001604051908101604052809291908181526020016000905b828210156107fe5760008481526020902060408051808201909152600284029091018054829060ff1660168111156107d0576107d06112ba565b60168111156107e1576107e16112ba565b815260200160018201548152505081526020019060010190610796565b505050508260028151811061081557610815611512565b60209081029190910101525090505b92915050565b61083261125c565b6001826005811115610846576108466112ba565b03610a6c576003838154811061085e5761085e611512565b600091825260208083206040805160e081018252600590940290910180548452600181015460ff8082161515868601526101008204811686850152620100009091041660608501526002810180548351818602810186019094528084529495919460808701949192909184015b828210156109335760008481526020902060408051808201909152600284029091018054829060ff166016811115610905576109056112ba565b6016811115610916576109166112ba565b8152602001600182015481525050815260200190600101906108cb565b50505050815260200160038201805480602002602001604051908101604052809291908181526020016000905b828210156109c85760008481526020902060408051808201909152600284029091018054829060ff16601681111561099a5761099a6112ba565b60168111156109ab576109ab6112ba565b815260200160018201548152505081526020019060010190610960565b50505050815260200160048201805480602002602001604051908101604052809291908181526020016000905b82821015610a5d5760008481526020902060408051808201909152600284029091018054829060ff166016811115610a2f57610a2f6112ba565b6016811115610a4057610a406112ba565b8152602001600182015481525050815260200190600101906109f5565b50505050815250509050610824565b6002826005811115610a8057610a806112ba565b03610c975760048381548110610a9857610a98611512565b600091825260208083206040805160e081018252600590940290910180548452600181015460ff8082161515868601526101008204811686850152620100009091041660608501526002810180548351818602810186019094528084529495919460808701949192909184015b82821015610b6d5760008481526020902060408051808201909152600284029091018054829060ff166016811115610b3f57610b3f6112ba565b6016811115610b5057610b506112ba565b815260200160018201548152505081526020019060010190610b05565b50505050815260200160038201805480602002602001604051908101604052809291908181526020016000905b82821015610c025760008481526020902060408051808201909152600284029091018054829060ff166016811115610bd457610bd46112ba565b6016811115610be557610be56112ba565b815260200160018201548152505081526020019060010190610b9a565b50505050815260200160048201805480602002602001604051908101604052809291908181526020016000905b82821015610a5d5760008481526020902060408051808201909152600284029091018054829060ff166016811115610c6957610c696112ba565b6016811115610c7a57610c7a6112ba565b815260200160018201548152505081526020019060010190610c2f565b6003826005811115610cab57610cab6112ba565b03610ec25760058381548110610cc357610cc3611512565b600091825260208083206040805160e081018252600590940290910180548452600181015460ff8082161515868601526101008204811686850152620100009091041660608501526002810180548351818602810186019094528084529495919460808701949192909184015b82821015610d985760008481526020902060408051808201909152600284029091018054829060ff166016811115610d6a57610d6a6112ba565b6016811115610d7b57610d7b6112ba565b815260200160018201548152505081526020019060010190610d30565b50505050815260200160038201805480602002602001604051908101604052809291908181526020016000905b82821015610e2d5760008481526020902060408051808201909152600284029091018054829060ff166016811115610dff57610dff6112ba565b6016811115610e1057610e106112ba565b815260200160018201548152505081526020019060010190610dc5565b50505050815260200160048201805480602002602001604051908101604052809291908181526020016000905b82821015610a5d5760008481526020902060408051808201909152600284029091018054829060ff166016811115610e9457610e946112ba565b6016811115610ea557610ea56112ba565b815260200160018201548152505081526020019060010190610e5a565b6004826005811115610ed657610ed66112ba565b036105d85760068381548110610eee57610eee611512565b600091825260208083206040805160e081018252600590940290910180548452600181015460ff8082161515868601526101008204811686850152620100009091041660608501526002810180548351818602810186019094528084529495919460808701949192909184015b82821015610fc35760008481526020902060408051808201909152600284029091018054829060ff166016811115610f9557610f956112ba565b6016811115610fa657610fa66112ba565b815260200160018201548152505081526020019060010190610f5b565b50505050815260200160038201805480602002602001604051908101604052809291908181526020016000905b828210156110585760008481526020902060408051808201909152600284029091018054829060ff16601681111561102a5761102a6112ba565b601681111561103b5761103b6112ba565b815260200160018201548152505081526020019060010190610ff0565b50505050815260200160048201805480602002602001604051908101604052809291908181526020016000905b82821015610a5d5760008481526020902060408051808201909152600284029091018054829060ff1660168111156110bf576110bf6112ba565b60168111156110d0576110d06112ba565b815260200160018201548152505081526020019060010190611085565b6110f56111b2565b6001600160a01b03811661115a5760405162461bcd60e51b815260206004820152602660248201527f4f776e61626c653a206e6577206f776e657220697320746865207a65726f206160448201526564647265737360d01b606482015260840161060d565b6111638161120c565b50565b6001828154811061117657600080fd5b90600052602060002001818154811061118e57600080fd5b60009182526020909120600290910201805460019091015460ff9091169250905082565b6000546001600160a01b031633146102685760405162461bcd60e51b815260206004820181905260248201527f4f776e61626c653a2063616c6c6572206973206e6f7420746865206f776e6572604482015260640161060d565b600080546001600160a01b038381166001600160a01b0319831681178455604051919092169283917f8be0079c531659141344cd1fd0a4f28419497f9722a3daafe3b4186f6b6457e09190a35050565b6040518060e0016040528060008152602001600015158152602001600060ff168152602001600060ff1681526020016060815260200160608152602001606081525090565b6000602082840312156112b357600080fd5b5035919050565b634e487b7160e01b600052602160045260246000fd5b601781106112ee57634e487b7160e01b600052602160045260246000fd5b9052565b600081518084526020808501945080840160005b8381101561133457815161131b8882516112d0565b8301518784015260409096019590820190600101611306565b509495945050505050565b602081528151602082015260208201511515604082015260ff604083015116606082015260006060830151611379608084018260ff169052565b50608083015160e060a08401526113946101008401826112f2565b905060a0840151601f19808584030160c08601526113b283836112f2565b925060c08601519150808584030160e0860152506113d082826112f2565b95945050505050565b8035600681106113e857600080fd5b919050565b6000806040838503121561140057600080fd5b611409836113d9565b946020939093013593505050565b6000602080830181845280855180835260408601915060408160051b870101925083870160005b8281101561146c57603f1988860301845261145a8583516112f2565b9450928501929085019060010161143e565b5092979650505050505050565b6000806040838503121561148c57600080fd5b8235915061149c602084016113d9565b90509250929050565b6000602082840312156114b757600080fd5b81356001600160a01b03811681146114ce57600080fd5b9392505050565b600080604083850312156114e857600080fd5b50508035926020909101359150565b6040810161150582856112d0565b8260208301529392505050565b634e487b7160e01b600052603260045260246000fdfea264697066735822122012c8453cb60f93e201f76c956a2c4aed15a2abd4c5d3486b882c4135ac7ba7d464736f6c63430008110033405787fa12a823e0f2b7631cc41b3ba8828b3321ca811111fa75cd3aa3bb5acec2575a0e9e593c00f959f8c92f12db2869c3395a3b0502d05e2516446f71f85cc2575a0e9e593c00f959f8c92f12db2869c3395a3b0502d05e2516446f71f85b405787fa12a823e0f2b7631cc41b3ba8828b3321ca811111fa75cd3aa3bb5acfc2575a0e9e593c00f959f8c92f12db2869c3395a3b0502d05e2516446f71f85d405787fa12a823e0f2b7631cc41b3ba8828b3321ca811111fa75cd3aa3bb5ad0b10e2d527612073b26eecdfd717e6a320cf44b4afac2b0732d9fcbe2b7fa0cf6",
  "devdoc": {
    "kind": "dev",
    "methods": {
      "owner()": {
        "details": "Returns the address of the current owner."
      },
      "renounceOwnership()": {
        "details": "Leaves the contract without owner. It will not be possible to call `onlyOwner` functions anymore. Can only be called by the current owner. NOTE: Renouncing ownership will leave the contract without an owner, thereby removing any functionality that is only available to the owner."
      },
      "transferOwnership(address)": {
        "details": "Transfers ownership of the contract to a new account (`newOwner`). Can only be called by the current owner."
      }
    },
    "version": 1
  },
  "userdoc": {
    "kind": "user",
    "methods": {},
    "version": 1
  },
  "storageLayout": {
    "storage": [
      {
        "astId": 7,
        "contract": "contracts/BCEvents.sol:BCEvents",
        "label": "_owner",
        "offset": 0,
        "slot": "0",
        "type": "t_address"
      },
      {
        "astId": 3782,
        "contract": "contracts/BCEvents.sol:BCEvents",
        "label": "effectsList",
        "offset": 0,
        "slot": "1",
        "type": "t_array(t_array(t_struct(Effect)3756_storage)dyn_storage)dyn_storage"
      },
      {
        "astId": 3786,
        "contract": "contracts/BCEvents.sol:BCEvents",
        "label": "bcRoomEvents",
        "offset": 0,
        "slot": "2",
        "type": "t_array(t_struct(BCEvent)3777_storage)dyn_storage"
      },
      {
        "astId": 3790,
        "contract": "contracts/BCEvents.sol:BCEvents",
        "label": "bcBugCardEvents",
        "offset": 0,
        "slot": "3",
        "type": "t_array(t_struct(BCEvent)3777_storage)dyn_storage"
      },
      {
        "astId": 3794,
        "contract": "contracts/BCEvents.sol:BCEvents",
        "label": "bcMysteryCardEvents",
        "offset": 0,
        "slot": "4",
        "type": "t_array(t_struct(BCEvent)3777_storage)dyn_storage"
      },
      {
        "astId": 3798,
        "contract": "contracts/BCEvents.sol:BCEvents",
        "label": "bcScavCardEvents",
        "offset": 0,
        "slot": "5",
        "type": "t_array(t_struct(BCEvent)3777_storage)dyn_storage"
      },
      {
        "astId": 3802,
        "contract": "contracts/BCEvents.sol:BCEvents",
        "label": "bcShipCardEvents",
        "offset": 0,
        "slot": "6",
        "type": "t_array(t_struct(BCEvent)3777_storage)dyn_storage"
      }
    ],
    "types": {
      "t_address": {
        "encoding": "inplace",
        "label": "address",
        "numberOfBytes": "20"
      },
      "t_array(t_array(t_struct(Effect)3756_storage)dyn_storage)dyn_storage": {
        "base": "t_array(t_struct(Effect)3756_storage)dyn_storage",
        "encoding": "dynamic_array",
        "label": "struct BCEvents.Effect[][]",
        "numberOfBytes": "32"
      },
      "t_array(t_struct(BCEvent)3777_storage)dyn_storage": {
        "base": "t_struct(BCEvent)3777_storage",
        "encoding": "dynamic_array",
        "label": "struct BCEvents.BCEvent[]",
        "numberOfBytes": "32"
      },
      "t_array(t_struct(Effect)3756_storage)dyn_storage": {
        "base": "t_struct(Effect)3756_storage",
        "encoding": "dynamic_array",
        "label": "struct BCEvents.Effect[]",
        "numberOfBytes": "32"
      },
      "t_bool": {
        "encoding": "inplace",
        "label": "bool",
        "numberOfBytes": "1"
      },
      "t_enum(EffectTypes)3750": {
        "encoding": "inplace",
        "label": "enum BCEvents.EffectTypes",
        "numberOfBytes": "1"
      },
      "t_struct(BCEvent)3777_storage": {
        "encoding": "inplace",
        "label": "struct BCEvents.BCEvent",
        "members": [
          {
            "astId": 3758,
            "contract": "contracts/BCEvents.sol:BCEvents",
            "label": "id",
            "offset": 0,
            "slot": "0",
            "type": "t_uint256"
          },
          {
            "astId": 3760,
            "contract": "contracts/BCEvents.sol:BCEvents",
            "label": "permanent",
            "offset": 0,
            "slot": "1",
            "type": "t_bool"
          },
          {
            "astId": 3762,
            "contract": "contracts/BCEvents.sol:BCEvents",
            "label": "rollForLow",
            "offset": 1,
            "slot": "1",
            "type": "t_uint8"
          },
          {
            "astId": 3764,
            "contract": "contracts/BCEvents.sol:BCEvents",
            "label": "rollForHigh",
            "offset": 2,
            "slot": "1",
            "type": "t_uint8"
          },
          {
            "astId": 3768,
            "contract": "contracts/BCEvents.sol:BCEvents",
            "label": "defaultEffect",
            "offset": 0,
            "slot": "2",
            "type": "t_array(t_struct(Effect)3756_storage)dyn_storage"
          },
          {
            "astId": 3772,
            "contract": "contracts/BCEvents.sol:BCEvents",
            "label": "lowEffect",
            "offset": 0,
            "slot": "3",
            "type": "t_array(t_struct(Effect)3756_storage)dyn_storage"
          },
          {
            "astId": 3776,
            "contract": "contracts/BCEvents.sol:BCEvents",
            "label": "highEffect",
            "offset": 0,
            "slot": "4",
            "type": "t_array(t_struct(Effect)3756_storage)dyn_storage"
          }
        ],
        "numberOfBytes": "160"
      },
      "t_struct(Effect)3756_storage": {
        "encoding": "inplace",
        "label": "struct BCEvents.Effect",
        "members": [
          {
            "astId": 3753,
            "contract": "contracts/BCEvents.sol:BCEvents",
            "label": "effect",
            "offset": 0,
            "slot": "0",
            "type": "t_enum(EffectTypes)3750"
          },
          {
            "astId": 3755,
            "contract": "contracts/BCEvents.sol:BCEvents",
            "label": "value",
            "offset": 0,
            "slot": "1",
            "type": "t_uint256"
          }
        ],
        "numberOfBytes": "64"
      },
      "t_uint256": {
        "encoding": "inplace",
        "label": "uint256",
        "numberOfBytes": "32"
      },
      "t_uint8": {
        "encoding": "inplace",
        "label": "uint8",
        "numberOfBytes": "1"
      }
    }
  }
}