{
  "address": "0xf598f53741D9c3a1E3a16CdCcF25a7B2C745A13E",
  "abi": [
    {
      "inputs": [],
      "stateMutability": "nonpayable",
      "type": "constructor"
    },
    {
      "anonymous": false,
      "inputs": [
        {
          "indexed": true,
          "internalType": "address",
          "name": "previousOwner",
          "type": "address"
        },
        {
          "indexed": true,
          "internalType": "address",
          "name": "newOwner",
          "type": "address"
        }
      ],
      "name": "OwnershipTransferred",
      "type": "event"
    },
    {
      "inputs": [
        {
          "internalType": "uint256",
          "name": "",
          "type": "uint256"
        }
      ],
      "name": "bcCardEvents",
      "outputs": [
        {
          "internalType": "string",
          "name": "name",
          "type": "string"
        },
        {
          "internalType": "string",
          "name": "text",
          "type": "string"
        },
        {
          "internalType": "bool",
          "name": "permanant",
          "type": "bool"
        },
        {
          "internalType": "uint8",
          "name": "rollForLow",
          "type": "uint8"
        },
        {
          "internalType": "uint8",
          "name": "rollForHigh",
          "type": "uint8"
        },
        {
          "components": [
            {
              "internalType": "bool",
              "name": "permanant",
              "type": "bool"
            },
            {
              "internalType": "bool",
              "name": "fullHealth",
              "type": "bool"
            },
            {
              "internalType": "bool",
              "name": "instantDeath",
              "type": "bool"
            },
            {
              "internalType": "bool",
              "name": "placeHazard",
              "type": "bool"
            },
            {
              "internalType": "bool",
              "name": "grantEgg",
              "type": "bool"
            },
            {
              "internalType": "uint8",
              "name": "healAmt",
              "type": "uint8"
            },
            {
              "internalType": "uint8",
              "name": "healArmorAmt",
              "type": "uint8"
            },
            {
              "internalType": "uint8",
              "name": "hazardDamage",
              "type": "uint8"
            },
            {
              "internalType": "uint8",
              "name": "physicalDamage",
              "type": "uint8"
            },
            {
              "internalType": "uint8",
              "name": "placeEnemyOfType",
              "type": "uint8"
            },
            {
              "internalType": "uint8",
              "name": "numEnemyToPlace",
              "type": "uint8"
            },
            {
              "internalType": "enum BCEvents.EnemyPlacement",
              "name": "wheretoPlace",
              "type": "uint8"
            },
            {
              "internalType": "uint8",
              "name": "grantData",
              "type": "uint8"
            },
            {
              "internalType": "uint8",
              "name": "grantNumItems",
              "type": "uint8"
            },
            {
              "internalType": "uint8",
              "name": "takeNumItems",
              "type": "uint8"
            },
            {
              "internalType": "enum BCEvents.MovePlayer",
              "name": "moveType",
              "type": "uint8"
            },
            {
              "internalType": "uint8",
              "name": "trapPlayerEscapeRoll",
              "type": "uint8"
            },
            {
              "internalType": "uint8",
              "name": "grantAbility",
              "type": "uint8"
            },
            {
              "components": [
                {
                  "internalType": "uint8",
                  "name": "health",
                  "type": "uint8"
                },
                {
                  "internalType": "uint8",
                  "name": "carry",
                  "type": "uint8"
                },
                {
                  "internalType": "uint8",
                  "name": "defense",
                  "type": "uint8"
                },
                {
                  "internalType": "uint8",
                  "name": "hack",
                  "type": "uint8"
                },
                {
                  "internalType": "uint8",
                  "name": "breach",
                  "type": "uint8"
                },
                {
                  "internalType": "uint8",
                  "name": "shoot",
                  "type": "uint8"
                },
                {
                  "internalType": "uint8",
                  "name": "melee",
                  "type": "uint8"
                }
              ],
              "internalType": "struct BCTypes.Traits",
              "name": "traitIncreases",
              "type": "tuple"
            },
            {
              "components": [
                {
                  "internalType": "uint8",
                  "name": "health",
                  "type": "uint8"
                },
                {
                  "internalType": "uint8",
                  "name": "carry",
                  "type": "uint8"
                },
                {
                  "internalType": "uint8",
                  "name": "defense",
                  "type": "uint8"
                },
                {
                  "internalType": "uint8",
                  "name": "hack",
                  "type": "uint8"
                },
                {
                  "internalType": "uint8",
                  "name": "breach",
                  "type": "uint8"
                },
                {
                  "internalType": "uint8",
                  "name": "shoot",
                  "type": "uint8"
                },
                {
                  "internalType": "uint8",
                  "name": "melee",
                  "type": "uint8"
                }
              ],
              "internalType": "struct BCTypes.Traits",
              "name": "traitDecreases",
              "type": "tuple"
            }
          ],
          "internalType": "struct BCEvents.BCEffect",
          "name": "defaultEffect",
          "type": "tuple"
        },
        {
          "components": [
            {
              "internalType": "bool",
              "name": "permanant",
              "type": "bool"
            },
            {
              "internalType": "bool",
              "name": "fullHealth",
              "type": "bool"
            },
            {
              "internalType": "bool",
              "name": "instantDeath",
              "type": "bool"
            },
            {
              "internalType": "bool",
              "name": "placeHazard",
              "type": "bool"
            },
            {
              "internalType": "bool",
              "name": "grantEgg",
              "type": "bool"
            },
            {
              "internalType": "uint8",
              "name": "healAmt",
              "type": "uint8"
            },
            {
              "internalType": "uint8",
              "name": "healArmorAmt",
              "type": "uint8"
            },
            {
              "internalType": "uint8",
              "name": "hazardDamage",
              "type": "uint8"
            },
            {
              "internalType": "uint8",
              "name": "physicalDamage",
              "type": "uint8"
            },
            {
              "internalType": "uint8",
              "name": "placeEnemyOfType",
              "type": "uint8"
            },
            {
              "internalType": "uint8",
              "name": "numEnemyToPlace",
              "type": "uint8"
            },
            {
              "internalType": "enum BCEvents.EnemyPlacement",
              "name": "wheretoPlace",
              "type": "uint8"
            },
            {
              "internalType": "uint8",
              "name": "grantData",
              "type": "uint8"
            },
            {
              "internalType": "uint8",
              "name": "grantNumItems",
              "type": "uint8"
            },
            {
              "internalType": "uint8",
              "name": "takeNumItems",
              "type": "uint8"
            },
            {
              "internalType": "enum BCEvents.MovePlayer",
              "name": "moveType",
              "type": "uint8"
            },
            {
              "internalType": "uint8",
              "name": "trapPlayerEscapeRoll",
              "type": "uint8"
            },
            {
              "internalType": "uint8",
              "name": "grantAbility",
              "type": "uint8"
            },
            {
              "components": [
                {
                  "internalType": "uint8",
                  "name": "health",
                  "type": "uint8"
                },
                {
                  "internalType": "uint8",
                  "name": "carry",
                  "type": "uint8"
                },
                {
                  "internalType": "uint8",
                  "name": "defense",
                  "type": "uint8"
                },
                {
                  "internalType": "uint8",
                  "name": "hack",
                  "type": "uint8"
                },
                {
                  "internalType": "uint8",
                  "name": "breach",
                  "type": "uint8"
                },
                {
                  "internalType": "uint8",
                  "name": "shoot",
                  "type": "uint8"
                },
                {
                  "internalType": "uint8",
                  "name": "melee",
                  "type": "uint8"
                }
              ],
              "internalType": "struct BCTypes.Traits",
              "name": "traitIncreases",
              "type": "tuple"
            },
            {
              "components": [
                {
                  "internalType": "uint8",
                  "name": "health",
                  "type": "uint8"
                },
                {
                  "internalType": "uint8",
                  "name": "carry",
                  "type": "uint8"
                },
                {
                  "internalType": "uint8",
                  "name": "defense",
                  "type": "uint8"
                },
                {
                  "internalType": "uint8",
                  "name": "hack",
                  "type": "uint8"
                },
                {
                  "internalType": "uint8",
                  "name": "breach",
                  "type": "uint8"
                },
                {
                  "internalType": "uint8",
                  "name": "shoot",
                  "type": "uint8"
                },
                {
                  "internalType": "uint8",
                  "name": "melee",
                  "type": "uint8"
                }
              ],
              "internalType": "struct BCTypes.Traits",
              "name": "traitDecreases",
              "type": "tuple"
            }
          ],
          "internalType": "struct BCEvents.BCEffect",
          "name": "lowEffect",
          "type": "tuple"
        },
        {
          "components": [
            {
              "internalType": "bool",
              "name": "permanant",
              "type": "bool"
            },
            {
              "internalType": "bool",
              "name": "fullHealth",
              "type": "bool"
            },
            {
              "internalType": "bool",
              "name": "instantDeath",
              "type": "bool"
            },
            {
              "internalType": "bool",
              "name": "placeHazard",
              "type": "bool"
            },
            {
              "internalType": "bool",
              "name": "grantEgg",
              "type": "bool"
            },
            {
              "internalType": "uint8",
              "name": "healAmt",
              "type": "uint8"
            },
            {
              "internalType": "uint8",
              "name": "healArmorAmt",
              "type": "uint8"
            },
            {
              "internalType": "uint8",
              "name": "hazardDamage",
              "type": "uint8"
            },
            {
              "internalType": "uint8",
              "name": "physicalDamage",
              "type": "uint8"
            },
            {
              "internalType": "uint8",
              "name": "placeEnemyOfType",
              "type": "uint8"
            },
            {
              "internalType": "uint8",
              "name": "numEnemyToPlace",
              "type": "uint8"
            },
            {
              "internalType": "enum BCEvents.EnemyPlacement",
              "name": "wheretoPlace",
              "type": "uint8"
            },
            {
              "internalType": "uint8",
              "name": "grantData",
              "type": "uint8"
            },
            {
              "internalType": "uint8",
              "name": "grantNumItems",
              "type": "uint8"
            },
            {
              "internalType": "uint8",
              "name": "takeNumItems",
              "type": "uint8"
            },
            {
              "internalType": "enum BCEvents.MovePlayer",
              "name": "moveType",
              "type": "uint8"
            },
            {
              "internalType": "uint8",
              "name": "trapPlayerEscapeRoll",
              "type": "uint8"
            },
            {
              "internalType": "uint8",
              "name": "grantAbility",
              "type": "uint8"
            },
            {
              "components": [
                {
                  "internalType": "uint8",
                  "name": "health",
                  "type": "uint8"
                },
                {
                  "internalType": "uint8",
                  "name": "carry",
                  "type": "uint8"
                },
                {
                  "internalType": "uint8",
                  "name": "defense",
                  "type": "uint8"
                },
                {
                  "internalType": "uint8",
                  "name": "hack",
                  "type": "uint8"
                },
                {
                  "internalType": "uint8",
                  "name": "breach",
                  "type": "uint8"
                },
                {
                  "internalType": "uint8",
                  "name": "shoot",
                  "type": "uint8"
                },
                {
                  "internalType": "uint8",
                  "name": "melee",
                  "type": "uint8"
                }
              ],
              "internalType": "struct BCTypes.Traits",
              "name": "traitIncreases",
              "type": "tuple"
            },
            {
              "components": [
                {
                  "internalType": "uint8",
                  "name": "health",
                  "type": "uint8"
                },
                {
                  "internalType": "uint8",
                  "name": "carry",
                  "type": "uint8"
                },
                {
                  "internalType": "uint8",
                  "name": "defense",
                  "type": "uint8"
                },
                {
                  "internalType": "uint8",
                  "name": "hack",
                  "type": "uint8"
                },
                {
                  "internalType": "uint8",
                  "name": "breach",
                  "type": "uint8"
                },
                {
                  "internalType": "uint8",
                  "name": "shoot",
                  "type": "uint8"
                },
                {
                  "internalType": "uint8",
                  "name": "melee",
                  "type": "uint8"
                }
              ],
              "internalType": "struct BCTypes.Traits",
              "name": "traitDecreases",
              "type": "tuple"
            }
          ],
          "internalType": "struct BCEvents.BCEffect",
          "name": "highEffect",
          "type": "tuple"
        }
      ],
      "stateMutability": "view",
      "type": "function"
    },
    {
      "inputs": [
        {
          "internalType": "uint256",
          "name": "",
          "type": "uint256"
        }
      ],
      "name": "bcRoomEvents",
      "outputs": [
        {
          "internalType": "string",
          "name": "name",
          "type": "string"
        },
        {
          "internalType": "string",
          "name": "text",
          "type": "string"
        },
        {
          "internalType": "bool",
          "name": "permanant",
          "type": "bool"
        },
        {
          "internalType": "uint8",
          "name": "rollForLow",
          "type": "uint8"
        },
        {
          "internalType": "uint8",
          "name": "rollForHigh",
          "type": "uint8"
        },
        {
          "components": [
            {
              "internalType": "bool",
              "name": "permanant",
              "type": "bool"
            },
            {
              "internalType": "bool",
              "name": "fullHealth",
              "type": "bool"
            },
            {
              "internalType": "bool",
              "name": "instantDeath",
              "type": "bool"
            },
            {
              "internalType": "bool",
              "name": "placeHazard",
              "type": "bool"
            },
            {
              "internalType": "bool",
              "name": "grantEgg",
              "type": "bool"
            },
            {
              "internalType": "uint8",
              "name": "healAmt",
              "type": "uint8"
            },
            {
              "internalType": "uint8",
              "name": "healArmorAmt",
              "type": "uint8"
            },
            {
              "internalType": "uint8",
              "name": "hazardDamage",
              "type": "uint8"
            },
            {
              "internalType": "uint8",
              "name": "physicalDamage",
              "type": "uint8"
            },
            {
              "internalType": "uint8",
              "name": "placeEnemyOfType",
              "type": "uint8"
            },
            {
              "internalType": "uint8",
              "name": "numEnemyToPlace",
              "type": "uint8"
            },
            {
              "internalType": "enum BCEvents.EnemyPlacement",
              "name": "wheretoPlace",
              "type": "uint8"
            },
            {
              "internalType": "uint8",
              "name": "grantData",
              "type": "uint8"
            },
            {
              "internalType": "uint8",
              "name": "grantNumItems",
              "type": "uint8"
            },
            {
              "internalType": "uint8",
              "name": "takeNumItems",
              "type": "uint8"
            },
            {
              "internalType": "enum BCEvents.MovePlayer",
              "name": "moveType",
              "type": "uint8"
            },
            {
              "internalType": "uint8",
              "name": "trapPlayerEscapeRoll",
              "type": "uint8"
            },
            {
              "internalType": "uint8",
              "name": "grantAbility",
              "type": "uint8"
            },
            {
              "components": [
                {
                  "internalType": "uint8",
                  "name": "health",
                  "type": "uint8"
                },
                {
                  "internalType": "uint8",
                  "name": "carry",
                  "type": "uint8"
                },
                {
                  "internalType": "uint8",
                  "name": "defense",
                  "type": "uint8"
                },
                {
                  "internalType": "uint8",
                  "name": "hack",
                  "type": "uint8"
                },
                {
                  "internalType": "uint8",
                  "name": "breach",
                  "type": "uint8"
                },
                {
                  "internalType": "uint8",
                  "name": "shoot",
                  "type": "uint8"
                },
                {
                  "internalType": "uint8",
                  "name": "melee",
                  "type": "uint8"
                }
              ],
              "internalType": "struct BCTypes.Traits",
              "name": "traitIncreases",
              "type": "tuple"
            },
            {
              "components": [
                {
                  "internalType": "uint8",
                  "name": "health",
                  "type": "uint8"
                },
                {
                  "internalType": "uint8",
                  "name": "carry",
                  "type": "uint8"
                },
                {
                  "internalType": "uint8",
                  "name": "defense",
                  "type": "uint8"
                },
                {
                  "internalType": "uint8",
                  "name": "hack",
                  "type": "uint8"
                },
                {
                  "internalType": "uint8",
                  "name": "breach",
                  "type": "uint8"
                },
                {
                  "internalType": "uint8",
                  "name": "shoot",
                  "type": "uint8"
                },
                {
                  "internalType": "uint8",
                  "name": "melee",
                  "type": "uint8"
                }
              ],
              "internalType": "struct BCTypes.Traits",
              "name": "traitDecreases",
              "type": "tuple"
            }
          ],
          "internalType": "struct BCEvents.BCEffect",
          "name": "defaultEffect",
          "type": "tuple"
        },
        {
          "components": [
            {
              "internalType": "bool",
              "name": "permanant",
              "type": "bool"
            },
            {
              "internalType": "bool",
              "name": "fullHealth",
              "type": "bool"
            },
            {
              "internalType": "bool",
              "name": "instantDeath",
              "type": "bool"
            },
            {
              "internalType": "bool",
              "name": "placeHazard",
              "type": "bool"
            },
            {
              "internalType": "bool",
              "name": "grantEgg",
              "type": "bool"
            },
            {
              "internalType": "uint8",
              "name": "healAmt",
              "type": "uint8"
            },
            {
              "internalType": "uint8",
              "name": "healArmorAmt",
              "type": "uint8"
            },
            {
              "internalType": "uint8",
              "name": "hazardDamage",
              "type": "uint8"
            },
            {
              "internalType": "uint8",
              "name": "physicalDamage",
              "type": "uint8"
            },
            {
              "internalType": "uint8",
              "name": "placeEnemyOfType",
              "type": "uint8"
            },
            {
              "internalType": "uint8",
              "name": "numEnemyToPlace",
              "type": "uint8"
            },
            {
              "internalType": "enum BCEvents.EnemyPlacement",
              "name": "wheretoPlace",
              "type": "uint8"
            },
            {
              "internalType": "uint8",
              "name": "grantData",
              "type": "uint8"
            },
            {
              "internalType": "uint8",
              "name": "grantNumItems",
              "type": "uint8"
            },
            {
              "internalType": "uint8",
              "name": "takeNumItems",
              "type": "uint8"
            },
            {
              "internalType": "enum BCEvents.MovePlayer",
              "name": "moveType",
              "type": "uint8"
            },
            {
              "internalType": "uint8",
              "name": "trapPlayerEscapeRoll",
              "type": "uint8"
            },
            {
              "internalType": "uint8",
              "name": "grantAbility",
              "type": "uint8"
            },
            {
              "components": [
                {
                  "internalType": "uint8",
                  "name": "health",
                  "type": "uint8"
                },
                {
                  "internalType": "uint8",
                  "name": "carry",
                  "type": "uint8"
                },
                {
                  "internalType": "uint8",
                  "name": "defense",
                  "type": "uint8"
                },
                {
                  "internalType": "uint8",
                  "name": "hack",
                  "type": "uint8"
                },
                {
                  "internalType": "uint8",
                  "name": "breach",
                  "type": "uint8"
                },
                {
                  "internalType": "uint8",
                  "name": "shoot",
                  "type": "uint8"
                },
                {
                  "internalType": "uint8",
                  "name": "melee",
                  "type": "uint8"
                }
              ],
              "internalType": "struct BCTypes.Traits",
              "name": "traitIncreases",
              "type": "tuple"
            },
            {
              "components": [
                {
                  "internalType": "uint8",
                  "name": "health",
                  "type": "uint8"
                },
                {
                  "internalType": "uint8",
                  "name": "carry",
                  "type": "uint8"
                },
                {
                  "internalType": "uint8",
                  "name": "defense",
                  "type": "uint8"
                },
                {
                  "internalType": "uint8",
                  "name": "hack",
                  "type": "uint8"
                },
                {
                  "internalType": "uint8",
                  "name": "breach",
                  "type": "uint8"
                },
                {
                  "internalType": "uint8",
                  "name": "shoot",
                  "type": "uint8"
                },
                {
                  "internalType": "uint8",
                  "name": "melee",
                  "type": "uint8"
                }
              ],
              "internalType": "struct BCTypes.Traits",
              "name": "traitDecreases",
              "type": "tuple"
            }
          ],
          "internalType": "struct BCEvents.BCEffect",
          "name": "lowEffect",
          "type": "tuple"
        },
        {
          "components": [
            {
              "internalType": "bool",
              "name": "permanant",
              "type": "bool"
            },
            {
              "internalType": "bool",
              "name": "fullHealth",
              "type": "bool"
            },
            {
              "internalType": "bool",
              "name": "instantDeath",
              "type": "bool"
            },
            {
              "internalType": "bool",
              "name": "placeHazard",
              "type": "bool"
            },
            {
              "internalType": "bool",
              "name": "grantEgg",
              "type": "bool"
            },
            {
              "internalType": "uint8",
              "name": "healAmt",
              "type": "uint8"
            },
            {
              "internalType": "uint8",
              "name": "healArmorAmt",
              "type": "uint8"
            },
            {
              "internalType": "uint8",
              "name": "hazardDamage",
              "type": "uint8"
            },
            {
              "internalType": "uint8",
              "name": "physicalDamage",
              "type": "uint8"
            },
            {
              "internalType": "uint8",
              "name": "placeEnemyOfType",
              "type": "uint8"
            },
            {
              "internalType": "uint8",
              "name": "numEnemyToPlace",
              "type": "uint8"
            },
            {
              "internalType": "enum BCEvents.EnemyPlacement",
              "name": "wheretoPlace",
              "type": "uint8"
            },
            {
              "internalType": "uint8",
              "name": "grantData",
              "type": "uint8"
            },
            {
              "internalType": "uint8",
              "name": "grantNumItems",
              "type": "uint8"
            },
            {
              "internalType": "uint8",
              "name": "takeNumItems",
              "type": "uint8"
            },
            {
              "internalType": "enum BCEvents.MovePlayer",
              "name": "moveType",
              "type": "uint8"
            },
            {
              "internalType": "uint8",
              "name": "trapPlayerEscapeRoll",
              "type": "uint8"
            },
            {
              "internalType": "uint8",
              "name": "grantAbility",
              "type": "uint8"
            },
            {
              "components": [
                {
                  "internalType": "uint8",
                  "name": "health",
                  "type": "uint8"
                },
                {
                  "internalType": "uint8",
                  "name": "carry",
                  "type": "uint8"
                },
                {
                  "internalType": "uint8",
                  "name": "defense",
                  "type": "uint8"
                },
                {
                  "internalType": "uint8",
                  "name": "hack",
                  "type": "uint8"
                },
                {
                  "internalType": "uint8",
                  "name": "breach",
                  "type": "uint8"
                },
                {
                  "internalType": "uint8",
                  "name": "shoot",
                  "type": "uint8"
                },
                {
                  "internalType": "uint8",
                  "name": "melee",
                  "type": "uint8"
                }
              ],
              "internalType": "struct BCTypes.Traits",
              "name": "traitIncreases",
              "type": "tuple"
            },
            {
              "components": [
                {
                  "internalType": "uint8",
                  "name": "health",
                  "type": "uint8"
                },
                {
                  "internalType": "uint8",
                  "name": "carry",
                  "type": "uint8"
                },
                {
                  "internalType": "uint8",
                  "name": "defense",
                  "type": "uint8"
                },
                {
                  "internalType": "uint8",
                  "name": "hack",
                  "type": "uint8"
                },
                {
                  "internalType": "uint8",
                  "name": "breach",
                  "type": "uint8"
                },
                {
                  "internalType": "uint8",
                  "name": "shoot",
                  "type": "uint8"
                },
                {
                  "internalType": "uint8",
                  "name": "melee",
                  "type": "uint8"
                }
              ],
              "internalType": "struct BCTypes.Traits",
              "name": "traitDecreases",
              "type": "tuple"
            }
          ],
          "internalType": "struct BCEvents.BCEffect",
          "name": "highEffect",
          "type": "tuple"
        }
      ],
      "stateMutability": "view",
      "type": "function"
    },
    {
      "inputs": [],
      "name": "owner",
      "outputs": [
        {
          "internalType": "address",
          "name": "",
          "type": "address"
        }
      ],
      "stateMutability": "view",
      "type": "function"
    },
    {
      "inputs": [],
      "name": "renounceOwnership",
      "outputs": [],
      "stateMutability": "nonpayable",
      "type": "function"
    },
    {
      "inputs": [
        {
          "internalType": "address",
          "name": "newOwner",
          "type": "address"
        }
      ],
      "name": "transferOwnership",
      "outputs": [],
      "stateMutability": "nonpayable",
      "type": "function"
    }
  ],
  "transactionHash": "0xa927949f4545970e8530d05827f7be11073899582dbe66a09e78a78103021d60",
  "args": [],
  "numDeployments": 1,
  "solcInputHash": "106b24de3a9c6176496e0aea719f22ec",
  "bytecode": "0x60806040523480156200001157600080fd5b5062000032620000266200004860201b60201c565b6200005060201b60201c565b620000426200011460201b60201c565b6200420c565b600033905090565b60008060009054906101000a900473ffffffffffffffffffffffffffffffffffffffff169050816000806101000a81548173ffffffffffffffffffffffffffffffffffffffff021916908373ffffffffffffffffffffffffffffffffffffffff1602179055508173ffffffffffffffffffffffffffffffffffffffff168173ffffffffffffffffffffffffffffffffffffffff167f8be0079c531659141344cd1fd0a4f28419497f9722a3daafe3b4186f6b6457e060405160405180910390a35050565b6200011e62003f78565b6200012862003fca565b60016040518061010001604052806040518060400160405280600881526020017f4e6f204576656e7400000000000000000000000000000000000000000000000081525081526020016040518060400160405280600681526020017f556e7573656400000000000000000000000000000000000000000000000000008152508152602001600015158152602001600060ff168152602001600060ff1681526020018381526020018381526020018381525090806001815401808255809150506001900390600052602060002090600c0201600090919091909150600082015181600001908051906020019062000220929190620040c8565b5060208201518160010190805190602001906200023f929190620040c8565b5060408201518160020160006101000a81548160ff02191690831515021790555060608201518160020160016101000a81548160ff021916908360ff16021790555060808201518160020160026101000a81548160ff021916908360ff16021790555060a08201518160030160008201518160000160006101000a81548160ff02191690831515021790555060208201518160000160016101000a81548160ff02191690831515021790555060408201518160000160026101000a81548160ff02191690831515021790555060608201518160000160036101000a81548160ff02191690831515021790555060808201518160000160046101000a81548160ff02191690831515021790555060a08201518160000160056101000a81548160ff021916908360ff16021790555060c08201518160000160066101000a81548160ff021916908360ff16021790555060e08201518160000160076101000a81548160ff021916908360ff1602179055506101008201518160000160086101000a81548160ff021916908360ff1602179055506101208201518160000160096101000a81548160ff021916908360ff16021790555061014082015181600001600a6101000a81548160ff021916908360ff16021790555061016082015181600001600b6101000a81548160ff0219169083600381111562000443576200044262004178565b5b021790555061018082015181600001600c6101000a81548160ff021916908360ff1602179055506101a082015181600001600d6101000a81548160ff021916908360ff1602179055506101c082015181600001600e6101000a81548160ff021916908360ff1602179055506101e082015181600001600f6101000a81548160ff02191690836004811115620004dd57620004dc62004178565b5b02179055506102008201518160000160106101000a81548160ff021916908360ff1602179055506102208201518160000160116101000a81548160ff021916908360ff1602179055506102408201518160010160008201518160000160006101000a81548160ff021916908360ff16021790555060208201518160000160016101000a81548160ff021916908360ff16021790555060408201518160000160026101000a81548160ff021916908360ff16021790555060608201518160000160036101000a81548160ff021916908360ff16021790555060808201518160000160046101000a81548160ff021916908360ff16021790555060a08201518160000160056101000a81548160ff021916908360ff16021790555060c08201518160000160066101000a81548160ff021916908360ff16021790555050506102608201518160020160008201518160000160006101000a81548160ff021916908360ff16021790555060208201518160000160016101000a81548160ff021916908360ff16021790555060408201518160000160026101000a81548160ff021916908360ff16021790555060608201518160000160036101000a81548160ff021916908360ff16021790555060808201518160000160046101000a81548160ff021916908360ff16021790555060a08201518160000160056101000a81548160ff021916908360ff16021790555060c08201518160000160066101000a81548160ff021916908360ff1602179055505050505060c08201518160060160008201518160000160006101000a81548160ff02191690831515021790555060208201518160000160016101000a81548160ff02191690831515021790555060408201518160000160026101000a81548160ff02191690831515021790555060608201518160000160036101000a81548160ff02191690831515021790555060808201518160000160046101000a81548160ff02191690831515021790555060a08201518160000160056101000a81548160ff021916908360ff16021790555060c08201518160000160066101000a81548160ff021916908360ff16021790555060e08201518160000160076101000a81548160ff021916908360ff1602179055506101008201518160000160086101000a81548160ff021916908360ff1602179055506101208201518160000160096101000a81548160ff021916908360ff16021790555061014082015181600001600a6101000a81548160ff021916908360ff16021790555061016082015181600001600b6101000a81548160ff02191690836003811115620008af57620008ae62004178565b5b021790555061018082015181600001600c6101000a81548160ff021916908360ff1602179055506101a082015181600001600d6101000a81548160ff021916908360ff1602179055506101c082015181600001600e6101000a81548160ff021916908360ff1602179055506101e082015181600001600f6101000a81548160ff0219169083600481111562000949576200094862004178565b5b02179055506102008201518160000160106101000a81548160ff021916908360ff1602179055506102208201518160000160116101000a81548160ff021916908360ff1602179055506102408201518160010160008201518160000160006101000a81548160ff021916908360ff16021790555060208201518160000160016101000a81548160ff021916908360ff16021790555060408201518160000160026101000a81548160ff021916908360ff16021790555060608201518160000160036101000a81548160ff021916908360ff16021790555060808201518160000160046101000a81548160ff021916908360ff16021790555060a08201518160000160056101000a81548160ff021916908360ff16021790555060c08201518160000160066101000a81548160ff021916908360ff16021790555050506102608201518160020160008201518160000160006101000a81548160ff021916908360ff16021790555060208201518160000160016101000a81548160ff021916908360ff16021790555060408201518160000160026101000a81548160ff021916908360ff16021790555060608201518160000160036101000a81548160ff021916908360ff16021790555060808201518160000160046101000a81548160ff021916908360ff16021790555060a08201518160000160056101000a81548160ff021916908360ff16021790555060c08201518160000160066101000a81548160ff021916908360ff1602179055505050505060e08201518160090160008201518160000160006101000a81548160ff02191690831515021790555060208201518160000160016101000a81548160ff02191690831515021790555060408201518160000160026101000a81548160ff02191690831515021790555060608201518160000160036101000a81548160ff02191690831515021790555060808201518160000160046101000a81548160ff02191690831515021790555060a08201518160000160056101000a81548160ff021916908360ff16021790555060c08201518160000160066101000a81548160ff021916908360ff16021790555060e08201518160000160076101000a81548160ff021916908360ff1602179055506101008201518160000160086101000a81548160ff021916908360ff1602179055506101208201518160000160096101000a81548160ff021916908360ff16021790555061014082015181600001600a6101000a81548160ff021916908360ff16021790555061016082015181600001600b6101000a81548160ff0219169083600381111562000d1b5762000d1a62004178565b5b021790555061018082015181600001600c6101000a81548160ff021916908360ff1602179055506101a082015181600001600d6101000a81548160ff021916908360ff1602179055506101c082015181600001600e6101000a81548160ff021916908360ff1602179055506101e082015181600001600f6101000a81548160ff0219169083600481111562000db55762000db462004178565b5b02179055506102008201518160000160106101000a81548160ff021916908360ff1602179055506102208201518160000160116101000a81548160ff021916908360ff1602179055506102408201518160010160008201518160000160006101000a81548160ff021916908360ff16021790555060208201518160000160016101000a81548160ff021916908360ff16021790555060408201518160000160026101000a81548160ff021916908360ff16021790555060608201518160000160036101000a81548160ff021916908360ff16021790555060808201518160000160046101000a81548160ff021916908360ff16021790555060a08201518160000160056101000a81548160ff021916908360ff16021790555060c08201518160000160066101000a81548160ff021916908360ff16021790555050506102608201518160020160008201518160000160006101000a81548160ff021916908360ff16021790555060208201518160000160016101000a81548160ff021916908360ff16021790555060408201518160000160026101000a81548160ff021916908360ff16021790555060608201518160000160036101000a81548160ff021916908360ff16021790555060808201518160000160046101000a81548160ff021916908360ff16021790555060a08201518160000160056101000a81548160ff021916908360ff16021790555060c08201518160000160066101000a81548160ff021916908360ff16021790555050505050505060016040518061010001604052806040518060400160405280601081526020017f42726561636865642052656163746f720000000000000000000000000000000081525081526020016040518060800160405280604381526020016200685c604391398152602001600015158152602001600060ff168152602001600060ff168152602001604051806102800160405280600015158152602001600015158152602001600015158152602001600115158152602001600015158152602001600060ff168152602001600060ff168152602001600160ff168152602001600060ff168152602001600060ff168152602001600060ff16815260200160006003811115620010f957620010f862004178565b5b8152602001600060ff168152602001600060ff168152602001600060ff1681526020016000600481111562001133576200113262004178565b5b8152602001600060ff168152602001600060ff1681526020018681526020018681525081526020018381526020018381525090806001815401808255809150506001900390600052602060002090600c02016000909190919091506000820151816000019080519060200190620011ac929190620040c8565b506020820151816001019080519060200190620011cb929190620040c8565b5060408201518160020160006101000a81548160ff02191690831515021790555060608201518160020160016101000a81548160ff021916908360ff16021790555060808201518160020160026101000a81548160ff021916908360ff16021790555060a08201518160030160008201518160000160006101000a81548160ff02191690831515021790555060208201518160000160016101000a81548160ff02191690831515021790555060408201518160000160026101000a81548160ff02191690831515021790555060608201518160000160036101000a81548160ff02191690831515021790555060808201518160000160046101000a81548160ff02191690831515021790555060a08201518160000160056101000a81548160ff021916908360ff16021790555060c08201518160000160066101000a81548160ff021916908360ff16021790555060e08201518160000160076101000a81548160ff021916908360ff1602179055506101008201518160000160086101000a81548160ff021916908360ff1602179055506101208201518160000160096101000a81548160ff021916908360ff16021790555061014082015181600001600a6101000a81548160ff021916908360ff16021790555061016082015181600001600b6101000a81548160ff02191690836003811115620013cf57620013ce62004178565b5b021790555061018082015181600001600c6101000a81548160ff021916908360ff1602179055506101a082015181600001600d6101000a81548160ff021916908360ff1602179055506101c082015181600001600e6101000a81548160ff021916908360ff1602179055506101e082015181600001600f6101000a81548160ff0219169083600481111562001469576200146862004178565b5b02179055506102008201518160000160106101000a81548160ff021916908360ff1602179055506102208201518160000160116101000a81548160ff021916908360ff1602179055506102408201518160010160008201518160000160006101000a81548160ff021916908360ff16021790555060208201518160000160016101000a81548160ff021916908360ff16021790555060408201518160000160026101000a81548160ff021916908360ff16021790555060608201518160000160036101000a81548160ff021916908360ff16021790555060808201518160000160046101000a81548160ff021916908360ff16021790555060a08201518160000160056101000a81548160ff021916908360ff16021790555060c08201518160000160066101000a81548160ff021916908360ff16021790555050506102608201518160020160008201518160000160006101000a81548160ff021916908360ff16021790555060208201518160000160016101000a81548160ff021916908360ff16021790555060408201518160000160026101000a81548160ff021916908360ff16021790555060608201518160000160036101000a81548160ff021916908360ff16021790555060808201518160000160046101000a81548160ff021916908360ff16021790555060a08201518160000160056101000a81548160ff021916908360ff16021790555060c08201518160000160066101000a81548160ff021916908360ff1602179055505050505060c08201518160060160008201518160000160006101000a81548160ff02191690831515021790555060208201518160000160016101000a81548160ff02191690831515021790555060408201518160000160026101000a81548160ff02191690831515021790555060608201518160000160036101000a81548160ff02191690831515021790555060808201518160000160046101000a81548160ff02191690831515021790555060a08201518160000160056101000a81548160ff021916908360ff16021790555060c08201518160000160066101000a81548160ff021916908360ff16021790555060e08201518160000160076101000a81548160ff021916908360ff1602179055506101008201518160000160086101000a81548160ff021916908360ff1602179055506101208201518160000160096101000a81548160ff021916908360ff16021790555061014082015181600001600a6101000a81548160ff021916908360ff16021790555061016082015181600001600b6101000a81548160ff021916908360038111156200183b576200183a62004178565b5b021790555061018082015181600001600c6101000a81548160ff021916908360ff1602179055506101a082015181600001600d6101000a81548160ff021916908360ff1602179055506101c082015181600001600e6101000a81548160ff021916908360ff1602179055506101e082015181600001600f6101000a81548160ff02191690836004811115620018d557620018d462004178565b5b02179055506102008201518160000160106101000a81548160ff021916908360ff1602179055506102208201518160000160116101000a81548160ff021916908360ff1602179055506102408201518160010160008201518160000160006101000a81548160ff021916908360ff16021790555060208201518160000160016101000a81548160ff021916908360ff16021790555060408201518160000160026101000a81548160ff021916908360ff16021790555060608201518160000160036101000a81548160ff021916908360ff16021790555060808201518160000160046101000a81548160ff021916908360ff16021790555060a08201518160000160056101000a81548160ff021916908360ff16021790555060c08201518160000160066101000a81548160ff021916908360ff16021790555050506102608201518160020160008201518160000160006101000a81548160ff021916908360ff16021790555060208201518160000160016101000a81548160ff021916908360ff16021790555060408201518160000160026101000a81548160ff021916908360ff16021790555060608201518160000160036101000a81548160ff021916908360ff16021790555060808201518160000160046101000a81548160ff021916908360ff16021790555060a08201518160000160056101000a81548160ff021916908360ff16021790555060c08201518160000160066101000a81548160ff021916908360ff1602179055505050505060e08201518160090160008201518160000160006101000a81548160ff02191690831515021790555060208201518160000160016101000a81548160ff02191690831515021790555060408201518160000160026101000a81548160ff02191690831515021790555060608201518160000160036101000a81548160ff02191690831515021790555060808201518160000160046101000a81548160ff02191690831515021790555060a08201518160000160056101000a81548160ff021916908360ff16021790555060c08201518160000160066101000a81548160ff021916908360ff16021790555060e08201518160000160076101000a81548160ff021916908360ff1602179055506101008201518160000160086101000a81548160ff021916908360ff1602179055506101208201518160000160096101000a81548160ff021916908360ff16021790555061014082015181600001600a6101000a81548160ff021916908360ff16021790555061016082015181600001600b6101000a81548160ff0219169083600381111562001ca75762001ca662004178565b5b021790555061018082015181600001600c6101000a81548160ff021916908360ff1602179055506101a082015181600001600d6101000a81548160ff021916908360ff1602179055506101c082015181600001600e6101000a81548160ff021916908360ff1602179055506101e082015181600001600f6101000a81548160ff0219169083600481111562001d415762001d4062004178565b5b02179055506102008201518160000160106101000a81548160ff021916908360ff1602179055506102208201518160000160116101000a81548160ff021916908360ff1602179055506102408201518160010160008201518160000160006101000a81548160ff021916908360ff16021790555060208201518160000160016101000a81548160ff021916908360ff16021790555060408201518160000160026101000a81548160ff021916908360ff16021790555060608201518160000160036101000a81548160ff021916908360ff16021790555060808201518160000160046101000a81548160ff021916908360ff16021790555060a08201518160000160056101000a81548160ff021916908360ff16021790555060c08201518160000160066101000a81548160ff021916908360ff16021790555050506102608201518160020160008201518160000160006101000a81548160ff021916908360ff16021790555060208201518160000160016101000a81548160ff021916908360ff16021790555060408201518160000160026101000a81548160ff021916908360ff16021790555060608201518160000160036101000a81548160ff021916908360ff16021790555060808201518160000160046101000a81548160ff021916908360ff16021790555060a08201518160000160056101000a81548160ff021916908360ff16021790555060c08201518160000160066101000a81548160ff021916908360ff16021790555050505050505060016040518061010001604052806040518060400160405280600881526020017f427567204e65737400000000000000000000000000000000000000000000000081525081526020016040518060c0016040528060998152602001620067c3609991398152602001600115158152602001600260ff168152602001600660ff168152602001838152602001604051806102800160405280600015158152602001600015158152602001600015158152602001600015158152602001600015158152602001600060ff168152602001600060ff168152602001600060ff168152602001600160ff168152602001600360ff168152602001600160ff168152602001600160038111156200208b576200208a62004178565b5b8152602001600060ff168152602001600060ff168152602001600060ff16815260200160006004811115620020c557620020c462004178565b5b8152602001600060ff168152602001600060ff168152602001868152602001868152508152602001604051806102800160405280600015158152602001600015158152602001600015158152602001600015158152602001600115158152602001600060ff168152602001600060ff168152602001600060ff168152602001600060ff168152602001600060ff168152602001600060ff1681526020016000600381111562002179576200217862004178565b5b8152602001600060ff168152602001600060ff168152602001600060ff16815260200160006004811115620021b357620021b262004178565b5b8152602001600060ff168152602001600060ff1681526020018681526020018681525081525090806001815401808255809150506001900390600052602060002090600c0201600090919091909150600082015181600001908051906020019062002220929190620040c8565b5060208201518160010190805190602001906200223f929190620040c8565b5060408201518160020160006101000a81548160ff02191690831515021790555060608201518160020160016101000a81548160ff021916908360ff16021790555060808201518160020160026101000a81548160ff021916908360ff16021790555060a08201518160030160008201518160000160006101000a81548160ff02191690831515021790555060208201518160000160016101000a81548160ff02191690831515021790555060408201518160000160026101000a81548160ff02191690831515021790555060608201518160000160036101000a81548160ff02191690831515021790555060808201518160000160046101000a81548160ff02191690831515021790555060a08201518160000160056101000a81548160ff021916908360ff16021790555060c08201518160000160066101000a81548160ff021916908360ff16021790555060e08201518160000160076101000a81548160ff021916908360ff1602179055506101008201518160000160086101000a81548160ff021916908360ff1602179055506101208201518160000160096101000a81548160ff021916908360ff16021790555061014082015181600001600a6101000a81548160ff021916908360ff16021790555061016082015181600001600b6101000a81548160ff0219169083600381111562002443576200244262004178565b5b021790555061018082015181600001600c6101000a81548160ff021916908360ff1602179055506101a082015181600001600d6101000a81548160ff021916908360ff1602179055506101c082015181600001600e6101000a81548160ff021916908360ff1602179055506101e082015181600001600f6101000a81548160ff02191690836004811115620024dd57620024dc62004178565b5b02179055506102008201518160000160106101000a81548160ff021916908360ff1602179055506102208201518160000160116101000a81548160ff021916908360ff1602179055506102408201518160010160008201518160000160006101000a81548160ff021916908360ff16021790555060208201518160000160016101000a81548160ff021916908360ff16021790555060408201518160000160026101000a81548160ff021916908360ff16021790555060608201518160000160036101000a81548160ff021916908360ff16021790555060808201518160000160046101000a81548160ff021916908360ff16021790555060a08201518160000160056101000a81548160ff021916908360ff16021790555060c08201518160000160066101000a81548160ff021916908360ff16021790555050506102608201518160020160008201518160000160006101000a81548160ff021916908360ff16021790555060208201518160000160016101000a81548160ff021916908360ff16021790555060408201518160000160026101000a81548160ff021916908360ff16021790555060608201518160000160036101000a81548160ff021916908360ff16021790555060808201518160000160046101000a81548160ff021916908360ff16021790555060a08201518160000160056101000a81548160ff021916908360ff16021790555060c08201518160000160066101000a81548160ff021916908360ff1602179055505050505060c08201518160060160008201518160000160006101000a81548160ff02191690831515021790555060208201518160000160016101000a81548160ff02191690831515021790555060408201518160000160026101000a81548160ff02191690831515021790555060608201518160000160036101000a81548160ff02191690831515021790555060808201518160000160046101000a81548160ff02191690831515021790555060a08201518160000160056101000a81548160ff021916908360ff16021790555060c08201518160000160066101000a81548160ff021916908360ff16021790555060e08201518160000160076101000a81548160ff021916908360ff1602179055506101008201518160000160086101000a81548160ff021916908360ff1602179055506101208201518160000160096101000a81548160ff021916908360ff16021790555061014082015181600001600a6101000a81548160ff021916908360ff16021790555061016082015181600001600b6101000a81548160ff02191690836003811115620028af57620028ae62004178565b5b021790555061018082015181600001600c6101000a81548160ff021916908360ff1602179055506101a082015181600001600d6101000a81548160ff021916908360ff1602179055506101c082015181600001600e6101000a81548160ff021916908360ff1602179055506101e082015181600001600f6101000a81548160ff0219169083600481111562002949576200294862004178565b5b02179055506102008201518160000160106101000a81548160ff021916908360ff1602179055506102208201518160000160116101000a81548160ff021916908360ff1602179055506102408201518160010160008201518160000160006101000a81548160ff021916908360ff16021790555060208201518160000160016101000a81548160ff021916908360ff16021790555060408201518160000160026101000a81548160ff021916908360ff16021790555060608201518160000160036101000a81548160ff021916908360ff16021790555060808201518160000160046101000a81548160ff021916908360ff16021790555060a08201518160000160056101000a81548160ff021916908360ff16021790555060c08201518160000160066101000a81548160ff021916908360ff16021790555050506102608201518160020160008201518160000160006101000a81548160ff021916908360ff16021790555060208201518160000160016101000a81548160ff021916908360ff16021790555060408201518160000160026101000a81548160ff021916908360ff16021790555060608201518160000160036101000a81548160ff021916908360ff16021790555060808201518160000160046101000a81548160ff021916908360ff16021790555060a08201518160000160056101000a81548160ff021916908360ff16021790555060c08201518160000160066101000a81548160ff021916908360ff1602179055505050505060e08201518160090160008201518160000160006101000a81548160ff02191690831515021790555060208201518160000160016101000a81548160ff02191690831515021790555060408201518160000160026101000a81548160ff02191690831515021790555060608201518160000160036101000a81548160ff02191690831515021790555060808201518160000160046101000a81548160ff02191690831515021790555060a08201518160000160056101000a81548160ff021916908360ff16021790555060c08201518160000160066101000a81548160ff021916908360ff16021790555060e08201518160000160076101000a81548160ff021916908360ff1602179055506101008201518160000160086101000a81548160ff021916908360ff1602179055506101208201518160000160096101000a81548160ff021916908360ff16021790555061014082015181600001600a6101000a81548160ff021916908360ff16021790555061016082015181600001600b6101000a81548160ff0219169083600381111562002d1b5762002d1a62004178565b5b021790555061018082015181600001600c6101000a81548160ff021916908360ff1602179055506101a082015181600001600d6101000a81548160ff021916908360ff1602179055506101c082015181600001600e6101000a81548160ff021916908360ff1602179055506101e082015181600001600f6101000a81548160ff0219169083600481111562002db55762002db462004178565b5b02179055506102008201518160000160106101000a81548160ff021916908360ff1602179055506102208201518160000160116101000a81548160ff021916908360ff1602179055506102408201518160010160008201518160000160006101000a81548160ff021916908360ff16021790555060208201518160000160016101000a81548160ff021916908360ff16021790555060408201518160000160026101000a81548160ff021916908360ff16021790555060608201518160000160036101000a81548160ff021916908360ff16021790555060808201518160000160046101000a81548160ff021916908360ff16021790555060a08201518160000160056101000a81548160ff021916908360ff16021790555060c08201518160000160066101000a81548160ff021916908360ff16021790555050506102608201518160020160008201518160000160006101000a81548160ff021916908360ff16021790555060208201518160000160016101000a81548160ff021916908360ff16021790555060408201518160000160026101000a81548160ff021916908360ff16021790555060608201518160000160036101000a81548160ff021916908360ff16021790555060808201518160000160046101000a81548160ff021916908360ff16021790555060a08201518160000160056101000a81548160ff021916908360ff16021790555060c08201518160000160066101000a81548160ff021916908360ff16021790555050505050505060016040518061010001604052806040518060400160405280600a81526020017f43726f7373726f6164730000000000000000000000000000000000000000000081525081526020016040518060600160405280603981526020016200678a603991398152602001600015158152602001600060ff168152602001600060ff168152602001604051806102800160405280600015158152602001600015158152602001600015158152602001600015158152602001600015158152602001600060ff168152602001600060ff168152602001600060ff168152602001600060ff168152602001600260ff168152602001600360ff16815260200160016003811115620030f957620030f862004178565b5b8152602001600060ff168152602001600060ff168152602001600060ff1681526020016000600481111562003133576200313262004178565b5b8152602001600060ff168152602001600060ff1681526020018681526020018681525081526020018381526020018381525090806001815401808255809150506001900390600052602060002090600c02016000909190919091506000820151816000019080519060200190620031ac929190620040c8565b506020820151816001019080519060200190620031cb929190620040c8565b5060408201518160020160006101000a81548160ff02191690831515021790555060608201518160020160016101000a81548160ff021916908360ff16021790555060808201518160020160026101000a81548160ff021916908360ff16021790555060a08201518160030160008201518160000160006101000a81548160ff02191690831515021790555060208201518160000160016101000a81548160ff02191690831515021790555060408201518160000160026101000a81548160ff02191690831515021790555060608201518160000160036101000a81548160ff02191690831515021790555060808201518160000160046101000a81548160ff02191690831515021790555060a08201518160000160056101000a81548160ff021916908360ff16021790555060c08201518160000160066101000a81548160ff021916908360ff16021790555060e08201518160000160076101000a81548160ff021916908360ff1602179055506101008201518160000160086101000a81548160ff021916908360ff1602179055506101208201518160000160096101000a81548160ff021916908360ff16021790555061014082015181600001600a6101000a81548160ff021916908360ff16021790555061016082015181600001600b6101000a81548160ff02191690836003811115620033cf57620033ce62004178565b5b021790555061018082015181600001600c6101000a81548160ff021916908360ff1602179055506101a082015181600001600d6101000a81548160ff021916908360ff1602179055506101c082015181600001600e6101000a81548160ff021916908360ff1602179055506101e082015181600001600f6101000a81548160ff0219169083600481111562003469576200346862004178565b5b02179055506102008201518160000160106101000a81548160ff021916908360ff1602179055506102208201518160000160116101000a81548160ff021916908360ff1602179055506102408201518160010160008201518160000160006101000a81548160ff021916908360ff16021790555060208201518160000160016101000a81548160ff021916908360ff16021790555060408201518160000160026101000a81548160ff021916908360ff16021790555060608201518160000160036101000a81548160ff021916908360ff16021790555060808201518160000160046101000a81548160ff021916908360ff16021790555060a08201518160000160056101000a81548160ff021916908360ff16021790555060c08201518160000160066101000a81548160ff021916908360ff16021790555050506102608201518160020160008201518160000160006101000a81548160ff021916908360ff16021790555060208201518160000160016101000a81548160ff021916908360ff16021790555060408201518160000160026101000a81548160ff021916908360ff16021790555060608201518160000160036101000a81548160ff021916908360ff16021790555060808201518160000160046101000a81548160ff021916908360ff16021790555060a08201518160000160056101000a81548160ff021916908360ff16021790555060c08201518160000160066101000a81548160ff021916908360ff1602179055505050505060c08201518160060160008201518160000160006101000a81548160ff02191690831515021790555060208201518160000160016101000a81548160ff02191690831515021790555060408201518160000160026101000a81548160ff02191690831515021790555060608201518160000160036101000a81548160ff02191690831515021790555060808201518160000160046101000a81548160ff02191690831515021790555060a08201518160000160056101000a81548160ff021916908360ff16021790555060c08201518160000160066101000a81548160ff021916908360ff16021790555060e08201518160000160076101000a81548160ff021916908360ff1602179055506101008201518160000160086101000a81548160ff021916908360ff1602179055506101208201518160000160096101000a81548160ff021916908360ff16021790555061014082015181600001600a6101000a81548160ff021916908360ff16021790555061016082015181600001600b6101000a81548160ff021916908360038111156200383b576200383a62004178565b5b021790555061018082015181600001600c6101000a81548160ff021916908360ff1602179055506101a082015181600001600d6101000a81548160ff021916908360ff1602179055506101c082015181600001600e6101000a81548160ff021916908360ff1602179055506101e082015181600001600f6101000a81548160ff02191690836004811115620038d557620038d462004178565b5b02179055506102008201518160000160106101000a81548160ff021916908360ff1602179055506102208201518160000160116101000a81548160ff021916908360ff1602179055506102408201518160010160008201518160000160006101000a81548160ff021916908360ff16021790555060208201518160000160016101000a81548160ff021916908360ff16021790555060408201518160000160026101000a81548160ff021916908360ff16021790555060608201518160000160036101000a81548160ff021916908360ff16021790555060808201518160000160046101000a81548160ff021916908360ff16021790555060a08201518160000160056101000a81548160ff021916908360ff16021790555060c08201518160000160066101000a81548160ff021916908360ff16021790555050506102608201518160020160008201518160000160006101000a81548160ff021916908360ff16021790555060208201518160000160016101000a81548160ff021916908360ff16021790555060408201518160000160026101000a81548160ff021916908360ff16021790555060608201518160000160036101000a81548160ff021916908360ff16021790555060808201518160000160046101000a81548160ff021916908360ff16021790555060a08201518160000160056101000a81548160ff021916908360ff16021790555060c08201518160000160066101000a81548160ff021916908360ff1602179055505050505060e08201518160090160008201518160000160006101000a81548160ff02191690831515021790555060208201518160000160016101000a81548160ff02191690831515021790555060408201518160000160026101000a81548160ff02191690831515021790555060608201518160000160036101000a81548160ff02191690831515021790555060808201518160000160046101000a81548160ff02191690831515021790555060a08201518160000160056101000a81548160ff021916908360ff16021790555060c08201518160000160066101000a81548160ff021916908360ff16021790555060e08201518160000160076101000a81548160ff021916908360ff1602179055506101008201518160000160086101000a81548160ff021916908360ff1602179055506101208201518160000160096101000a81548160ff021916908360ff16021790555061014082015181600001600a6101000a81548160ff021916908360ff16021790555061016082015181600001600b6101000a81548160ff0219169083600381111562003ca75762003ca662004178565b5b021790555061018082015181600001600c6101000a81548160ff021916908360ff1602179055506101a082015181600001600d6101000a81548160ff021916908360ff1602179055506101c082015181600001600e6101000a81548160ff021916908360ff1602179055506101e082015181600001600f6101000a81548160ff0219169083600481111562003d415762003d4062004178565b5b02179055506102008201518160000160106101000a81548160ff021916908360ff1602179055506102208201518160000160116101000a81548160ff021916908360ff1602179055506102408201518160010160008201518160000160006101000a81548160ff021916908360ff16021790555060208201518160000160016101000a81548160ff021916908360ff16021790555060408201518160000160026101000a81548160ff021916908360ff16021790555060608201518160000160036101000a81548160ff021916908360ff16021790555060808201518160000160046101000a81548160ff021916908360ff16021790555060a08201518160000160056101000a81548160ff021916908360ff16021790555060c08201518160000160066101000a81548160ff021916908360ff16021790555050506102608201518160020160008201518160000160006101000a81548160ff021916908360ff16021790555060208201518160000160016101000a81548160ff021916908360ff16021790555060408201518160000160026101000a81548160ff021916908360ff16021790555060608201518160000160036101000a81548160ff021916908360ff16021790555060808201518160000160046101000a81548160ff021916908360ff16021790555060a08201518160000160056101000a81548160ff021916908360ff16021790555060c08201518160000160066101000a81548160ff021916908360ff1602179055505050505050505050565b6040518060e00160405280600060ff168152602001600060ff168152602001600060ff168152602001600060ff168152602001600060ff168152602001600060ff168152602001600060ff1681525090565b604051806102800160405280600015158152602001600015158152602001600015158152602001600015158152602001600015158152602001600060ff168152602001600060ff168152602001600060ff168152602001600060ff168152602001600060ff168152602001600060ff1681526020016000600381111562004056576200405562004178565b5b8152602001600060ff168152602001600060ff168152602001600060ff1681526020016000600481111562004090576200408f62004178565b5b8152602001600060ff168152602001600060ff168152602001620040b362003f78565b8152602001620040c262003f78565b81525090565b828054620040d690620041d6565b90600052602060002090601f016020900481019282620040fa576000855562004146565b82601f106200411557805160ff191683800117855562004146565b8280016001018555821562004146579182015b828111156200414557825182559160200191906001019062004128565b5b50905062004155919062004159565b5090565b5b80821115620041745760008160009055506001016200415a565b5090565b7f4e487b7100000000000000000000000000000000000000000000000000000000600052602160045260246000fd5b7f4e487b7100000000000000000000000000000000000000000000000000000000600052602260045260246000fd5b60006002820490506001821680620041ef57607f821691505b60208210811415620042065762004205620041a7565b5b50919050565b61256e806200421c6000396000f3fe608060405234801561001057600080fd5b50600436106100575760003560e01c8063454122531461005c578063715018a6146100935780638da5cb5b1461009d5780639dfc9282146100bb578063f2fde38b146100f2575b600080fd5b61007660048036038101906100719190611e90565b61010e565b60405161008a989796959493929190612296565b60405180910390f35b61009b610eac565b005b6100a5610ec0565b6040516100b29190612365565b60405180910390f35b6100d560048036038101906100d09190611e90565b610ee9565b6040516100e9989796959493929190612296565b60405180910390f35b61010c600480360381019061010791906123ac565b611c87565b005b6001818154811061011e57600080fd5b90600052602060002090600c020160009150905080600001805461014190612408565b80601f016020809104026020016040519081016040528092919081815260200182805461016d90612408565b80156101ba5780601f1061018f576101008083540402835291602001916101ba565b820191906000526020600020905b81548152906001019060200180831161019d57829003601f168201915b5050505050908060010180546101cf90612408565b80601f01602080910402602001604051908101604052809291908181526020018280546101fb90612408565b80156102485780601f1061021d57610100808354040283529160200191610248565b820191906000526020600020905b81548152906001019060200180831161022b57829003601f168201915b5050505050908060020160009054906101000a900460ff16908060020160019054906101000a900460ff16908060020160029054906101000a900460ff169080600301604051806102800160405290816000820160009054906101000a900460ff161515151581526020016000820160019054906101000a900460ff161515151581526020016000820160029054906101000a900460ff161515151581526020016000820160039054906101000a900460ff161515151581526020016000820160049054906101000a900460ff161515151581526020016000820160059054906101000a900460ff1660ff1660ff1681526020016000820160069054906101000a900460ff1660ff1660ff1681526020016000820160079054906101000a900460ff1660ff1660ff1681526020016000820160089054906101000a900460ff1660ff1660ff1681526020016000820160099054906101000a900460ff1660ff1660ff16815260200160008201600a9054906101000a900460ff1660ff1660ff16815260200160008201600b9054906101000a900460ff1660038111156103f1576103f0611fab565b5b600381111561040357610402611fab565b5b815260200160008201600c9054906101000a900460ff1660ff1660ff16815260200160008201600d9054906101000a900460ff1660ff1660ff16815260200160008201600e9054906101000a900460ff1660ff1660ff16815260200160008201600f9054906101000a900460ff16600481111561048357610482611fab565b5b600481111561049557610494611fab565b5b81526020016000820160109054906101000a900460ff1660ff1660ff1681526020016000820160119054906101000a900460ff1660ff1660ff168152602001600182016040518060e00160405290816000820160009054906101000a900460ff1660ff1660ff1681526020016000820160019054906101000a900460ff1660ff1660ff1681526020016000820160029054906101000a900460ff1660ff1660ff1681526020016000820160039054906101000a900460ff1660ff1660ff1681526020016000820160049054906101000a900460ff1660ff1660ff1681526020016000820160059054906101000a900460ff1660ff1660ff1681526020016000820160069054906101000a900460ff1660ff1660ff16815250508152602001600282016040518060e00160405290816000820160009054906101000a900460ff1660ff1660ff1681526020016000820160019054906101000a900460ff1660ff1660ff1681526020016000820160029054906101000a900460ff1660ff1660ff1681526020016000820160039054906101000a900460ff1660ff1660ff1681526020016000820160049054906101000a900460ff1660ff1660ff1681526020016000820160059054906101000a900460ff1660ff1660ff1681526020016000820160069054906101000a900460ff1660ff1660ff1681525050815250509080600601604051806102800160405290816000820160009054906101000a900460ff161515151581526020016000820160019054906101000a900460ff161515151581526020016000820160029054906101000a900460ff161515151581526020016000820160039054906101000a900460ff161515151581526020016000820160049054906101000a900460ff161515151581526020016000820160059054906101000a900460ff1660ff1660ff1681526020016000820160069054906101000a900460ff1660ff1660ff1681526020016000820160079054906101000a900460ff1660ff1660ff1681526020016000820160089054906101000a900460ff1660ff1660ff1681526020016000820160099054906101000a900460ff1660ff1660ff16815260200160008201600a9054906101000a900460ff1660ff1660ff16815260200160008201600b9054906101000a900460ff1660038111156107fc576107fb611fab565b5b600381111561080e5761080d611fab565b5b815260200160008201600c9054906101000a900460ff1660ff1660ff16815260200160008201600d9054906101000a900460ff1660ff1660ff16815260200160008201600e9054906101000a900460ff1660ff1660ff16815260200160008201600f9054906101000a900460ff16600481111561088e5761088d611fab565b5b60048111156108a05761089f611fab565b5b81526020016000820160109054906101000a900460ff1660ff1660ff1681526020016000820160119054906101000a900460ff1660ff1660ff168152602001600182016040518060e00160405290816000820160009054906101000a900460ff1660ff1660ff1681526020016000820160019054906101000a900460ff1660ff1660ff1681526020016000820160029054906101000a900460ff1660ff1660ff1681526020016000820160039054906101000a900460ff1660ff1660ff1681526020016000820160049054906101000a900460ff1660ff1660ff1681526020016000820160059054906101000a900460ff1660ff1660ff1681526020016000820160069054906101000a900460ff1660ff1660ff16815250508152602001600282016040518060e00160405290816000820160009054906101000a900460ff1660ff1660ff1681526020016000820160019054906101000a900460ff1660ff1660ff1681526020016000820160029054906101000a900460ff1660ff1660ff1681526020016000820160039054906101000a900460ff1660ff1660ff1681526020016000820160049054906101000a900460ff1660ff1660ff1681526020016000820160059054906101000a900460ff1660ff1660ff1681526020016000820160069054906101000a900460ff1660ff1660ff1681525050815250509080600901604051806102800160405290816000820160009054906101000a900460ff161515151581526020016000820160019054906101000a900460ff161515151581526020016000820160029054906101000a900460ff161515151581526020016000820160039054906101000a900460ff161515151581526020016000820160049054906101000a900460ff161515151581526020016000820160059054906101000a900460ff1660ff1660ff1681526020016000820160069054906101000a900460ff1660ff1660ff1681526020016000820160079054906101000a900460ff1660ff1660ff1681526020016000820160089054906101000a900460ff1660ff1660ff1681526020016000820160099054906101000a900460ff1660ff1660ff16815260200160008201600a9054906101000a900460ff1660ff1660ff16815260200160008201600b9054906101000a900460ff166003811115610c0757610c06611fab565b5b6003811115610c1957610c18611fab565b5b815260200160008201600c9054906101000a900460ff1660ff1660ff16815260200160008201600d9054906101000a900460ff1660ff1660ff16815260200160008201600e9054906101000a900460ff1660ff1660ff16815260200160008201600f9054906101000a900460ff166004811115610c9957610c98611fab565b5b6004811115610cab57610caa611fab565b5b81526020016000820160109054906101000a900460ff1660ff1660ff1681526020016000820160119054906101000a900460ff1660ff1660ff168152602001600182016040518060e00160405290816000820160009054906101000a900460ff1660ff1660ff1681526020016000820160019054906101000a900460ff1660ff1660ff1681526020016000820160029054906101000a900460ff1660ff1660ff1681526020016000820160039054906101000a900460ff1660ff1660ff1681526020016000820160049054906101000a900460ff1660ff1660ff1681526020016000820160059054906101000a900460ff1660ff1660ff1681526020016000820160069054906101000a900460ff1660ff1660ff16815250508152602001600282016040518060e00160405290816000820160009054906101000a900460ff1660ff1660ff1681526020016000820160019054906101000a900460ff1660ff1660ff1681526020016000820160029054906101000a900460ff1660ff1660ff1681526020016000820160039054906101000a900460ff1660ff1660ff1681526020016000820160049054906101000a900460ff1660ff1660ff1681526020016000820160059054906101000a900460ff1660ff1660ff1681526020016000820160069054906101000a900460ff1660ff1660ff168152505081525050905088565b610eb4611d0b565b610ebe6000611d89565b565b60008060009054906101000a900473ffffffffffffffffffffffffffffffffffffffff16905090565b60028181548110610ef957600080fd5b90600052602060002090600c0201600091509050806000018054610f1c90612408565b80601f0160208091040260200160405190810160405280929190818152602001828054610f4890612408565b8015610f955780601f10610f6a57610100808354040283529160200191610f95565b820191906000526020600020905b815481529060010190602001808311610f7857829003601f168201915b505050505090806001018054610faa90612408565b80601f0160208091040260200160405190810160405280929190818152602001828054610fd690612408565b80156110235780601f10610ff857610100808354040283529160200191611023565b820191906000526020600020905b81548152906001019060200180831161100657829003601f168201915b5050505050908060020160009054906101000a900460ff16908060020160019054906101000a900460ff16908060020160029054906101000a900460ff169080600301604051806102800160405290816000820160009054906101000a900460ff161515151581526020016000820160019054906101000a900460ff161515151581526020016000820160029054906101000a900460ff161515151581526020016000820160039054906101000a900460ff161515151581526020016000820160049054906101000a900460ff161515151581526020016000820160059054906101000a900460ff1660ff1660ff1681526020016000820160069054906101000a900460ff1660ff1660ff1681526020016000820160079054906101000a900460ff1660ff1660ff1681526020016000820160089054906101000a900460ff1660ff1660ff1681526020016000820160099054906101000a900460ff1660ff1660ff16815260200160008201600a9054906101000a900460ff1660ff1660ff16815260200160008201600b9054906101000a900460ff1660038111156111cc576111cb611fab565b5b60038111156111de576111dd611fab565b5b815260200160008201600c9054906101000a900460ff1660ff1660ff16815260200160008201600d9054906101000a900460ff1660ff1660ff16815260200160008201600e9054906101000a900460ff1660ff1660ff16815260200160008201600f9054906101000a900460ff16600481111561125e5761125d611fab565b5b60048111156112705761126f611fab565b5b81526020016000820160109054906101000a900460ff1660ff1660ff1681526020016000820160119054906101000a900460ff1660ff1660ff168152602001600182016040518060e00160405290816000820160009054906101000a900460ff1660ff1660ff1681526020016000820160019054906101000a900460ff1660ff1660ff1681526020016000820160029054906101000a900460ff1660ff1660ff1681526020016000820160039054906101000a900460ff1660ff1660ff1681526020016000820160049054906101000a900460ff1660ff1660ff1681526020016000820160059054906101000a900460ff1660ff1660ff1681526020016000820160069054906101000a900460ff1660ff1660ff16815250508152602001600282016040518060e00160405290816000820160009054906101000a900460ff1660ff1660ff1681526020016000820160019054906101000a900460ff1660ff1660ff1681526020016000820160029054906101000a900460ff1660ff1660ff1681526020016000820160039054906101000a900460ff1660ff1660ff1681526020016000820160049054906101000a900460ff1660ff1660ff1681526020016000820160059054906101000a900460ff1660ff1660ff1681526020016000820160069054906101000a900460ff1660ff1660ff1681525050815250509080600601604051806102800160405290816000820160009054906101000a900460ff161515151581526020016000820160019054906101000a900460ff161515151581526020016000820160029054906101000a900460ff161515151581526020016000820160039054906101000a900460ff161515151581526020016000820160049054906101000a900460ff161515151581526020016000820160059054906101000a900460ff1660ff1660ff1681526020016000820160069054906101000a900460ff1660ff1660ff1681526020016000820160079054906101000a900460ff1660ff1660ff1681526020016000820160089054906101000a900460ff1660ff1660ff1681526020016000820160099054906101000a900460ff1660ff1660ff16815260200160008201600a9054906101000a900460ff1660ff1660ff16815260200160008201600b9054906101000a900460ff1660038111156115d7576115d6611fab565b5b60038111156115e9576115e8611fab565b5b815260200160008201600c9054906101000a900460ff1660ff1660ff16815260200160008201600d9054906101000a900460ff1660ff1660ff16815260200160008201600e9054906101000a900460ff1660ff1660ff16815260200160008201600f9054906101000a900460ff16600481111561166957611668611fab565b5b600481111561167b5761167a611fab565b5b81526020016000820160109054906101000a900460ff1660ff1660ff1681526020016000820160119054906101000a900460ff1660ff1660ff168152602001600182016040518060e00160405290816000820160009054906101000a900460ff1660ff1660ff1681526020016000820160019054906101000a900460ff1660ff1660ff1681526020016000820160029054906101000a900460ff1660ff1660ff1681526020016000820160039054906101000a900460ff1660ff1660ff1681526020016000820160049054906101000a900460ff1660ff1660ff1681526020016000820160059054906101000a900460ff1660ff1660ff1681526020016000820160069054906101000a900460ff1660ff1660ff16815250508152602001600282016040518060e00160405290816000820160009054906101000a900460ff1660ff1660ff1681526020016000820160019054906101000a900460ff1660ff1660ff1681526020016000820160029054906101000a900460ff1660ff1660ff1681526020016000820160039054906101000a900460ff1660ff1660ff1681526020016000820160049054906101000a900460ff1660ff1660ff1681526020016000820160059054906101000a900460ff1660ff1660ff1681526020016000820160069054906101000a900460ff1660ff1660ff1681525050815250509080600901604051806102800160405290816000820160009054906101000a900460ff161515151581526020016000820160019054906101000a900460ff161515151581526020016000820160029054906101000a900460ff161515151581526020016000820160039054906101000a900460ff161515151581526020016000820160049054906101000a900460ff161515151581526020016000820160059054906101000a900460ff1660ff1660ff1681526020016000820160069054906101000a900460ff1660ff1660ff1681526020016000820160079054906101000a900460ff1660ff1660ff1681526020016000820160089054906101000a900460ff1660ff1660ff1681526020016000820160099054906101000a900460ff1660ff1660ff16815260200160008201600a9054906101000a900460ff1660ff1660ff16815260200160008201600b9054906101000a900460ff1660038111156119e2576119e1611fab565b5b60038111156119f4576119f3611fab565b5b815260200160008201600c9054906101000a900460ff1660ff1660ff16815260200160008201600d9054906101000a900460ff1660ff1660ff16815260200160008201600e9054906101000a900460ff1660ff1660ff16815260200160008201600f9054906101000a900460ff166004811115611a7457611a73611fab565b5b6004811115611a8657611a85611fab565b5b81526020016000820160109054906101000a900460ff1660ff1660ff1681526020016000820160119054906101000a900460ff1660ff1660ff168152602001600182016040518060e00160405290816000820160009054906101000a900460ff1660ff1660ff1681526020016000820160019054906101000a900460ff1660ff1660ff1681526020016000820160029054906101000a900460ff1660ff1660ff1681526020016000820160039054906101000a900460ff1660ff1660ff1681526020016000820160049054906101000a900460ff1660ff1660ff1681526020016000820160059054906101000a900460ff1660ff1660ff1681526020016000820160069054906101000a900460ff1660ff1660ff16815250508152602001600282016040518060e00160405290816000820160009054906101000a900460ff1660ff1660ff1681526020016000820160019054906101000a900460ff1660ff1660ff1681526020016000820160029054906101000a900460ff1660ff1660ff1681526020016000820160039054906101000a900460ff1660ff1660ff1681526020016000820160049054906101000a900460ff1660ff1660ff1681526020016000820160059054906101000a900460ff1660ff1660ff1681526020016000820160069054906101000a900460ff1660ff1660ff168152505081525050905088565b611c8f611d0b565b600073ffffffffffffffffffffffffffffffffffffffff168173ffffffffffffffffffffffffffffffffffffffff161415611cff576040517f08c379a0000000000000000000000000000000000000000000000000000000008152600401611cf6906124ac565b60405180910390fd5b611d0881611d89565b50565b611d13611e4d565b73ffffffffffffffffffffffffffffffffffffffff16611d31610ec0565b73ffffffffffffffffffffffffffffffffffffffff1614611d87576040517f08c379a0000000000000000000000000000000000000000000000000000000008152600401611d7e90612518565b60405180910390fd5b565b60008060009054906101000a900473ffffffffffffffffffffffffffffffffffffffff169050816000806101000a81548173ffffffffffffffffffffffffffffffffffffffff021916908373ffffffffffffffffffffffffffffffffffffffff1602179055508173ffffffffffffffffffffffffffffffffffffffff168173ffffffffffffffffffffffffffffffffffffffff167f8be0079c531659141344cd1fd0a4f28419497f9722a3daafe3b4186f6b6457e060405160405180910390a35050565b600033905090565b600080fd5b6000819050919050565b611e6d81611e5a565b8114611e7857600080fd5b50565b600081359050611e8a81611e64565b92915050565b600060208284031215611ea657611ea5611e55565b5b6000611eb484828501611e7b565b91505092915050565b600081519050919050565b600082825260208201905092915050565b60005b83811015611ef7578082015181840152602081019050611edc565b83811115611f06576000848401525b50505050565b6000601f19601f8301169050919050565b6000611f2882611ebd565b611f328185611ec8565b9350611f42818560208601611ed9565b611f4b81611f0c565b840191505092915050565b60008115159050919050565b611f6b81611f56565b82525050565b600060ff82169050919050565b611f8781611f71565b82525050565b611f9681611f56565b82525050565b611fa581611f71565b82525050565b7f4e487b7100000000000000000000000000000000000000000000000000000000600052602160045260246000fd5b60048110611feb57611fea611fab565b5b50565b6000819050611ffc82611fda565b919050565b600061200c82611fee565b9050919050565b61201c81612001565b82525050565b6005811061203357612032611fab565b5b50565b600081905061204482612022565b919050565b600061205482612036565b9050919050565b61206481612049565b82525050565b60e0820160008201516120806000850182611f9c565b5060208201516120936020850182611f9c565b5060408201516120a66040850182611f9c565b5060608201516120b96060850182611f9c565b5060808201516120cc6080850182611f9c565b5060a08201516120df60a0850182611f9c565b5060c08201516120f260c0850182611f9c565b50505050565b6104008201600082015161210f6000850182611f8d565b5060208201516121226020850182611f8d565b5060408201516121356040850182611f8d565b5060608201516121486060850182611f8d565b50608082015161215b6080850182611f8d565b5060a082015161216e60a0850182611f9c565b5060c082015161218160c0850182611f9c565b5060e082015161219460e0850182611f9c565b506101008201516121a9610100850182611f9c565b506101208201516121be610120850182611f9c565b506101408201516121d3610140850182611f9c565b506101608201516121e8610160850182612013565b506101808201516121fd610180850182611f9c565b506101a08201516122126101a0850182611f9c565b506101c08201516122276101c0850182611f9c565b506101e082015161223c6101e085018261205b565b50610200820151612251610200850182611f9c565b50610220820151612266610220850182611f9c565b5061024082015161227b61024085018261206a565b5061026082015161229061032085018261206a565b50505050565b6000610ca08201905081810360008301526122b1818b611f1d565b905081810360208301526122c5818a611f1d565b90506122d46040830189611f62565b6122e16060830188611f7e565b6122ee6080830187611f7e565b6122fb60a08301866120f8565b6123096104a08301856120f8565b6123176108a08301846120f8565b9998505050505050505050565b600073ffffffffffffffffffffffffffffffffffffffff82169050919050565b600061234f82612324565b9050919050565b61235f81612344565b82525050565b600060208201905061237a6000830184612356565b92915050565b61238981612344565b811461239457600080fd5b50565b6000813590506123a681612380565b92915050565b6000602082840312156123c2576123c1611e55565b5b60006123d084828501612397565b91505092915050565b7f4e487b7100000000000000000000000000000000000000000000000000000000600052602260045260246000fd5b6000600282049050600182168061242057607f821691505b60208210811415612434576124336123d9565b5b50919050565b7f4f776e61626c653a206e6577206f776e657220697320746865207a65726f206160008201527f6464726573730000000000000000000000000000000000000000000000000000602082015250565b6000612496602683611ec8565b91506124a18261243a565b604082019050919050565b600060208201905081810360008301526124c581612489565b9050919050565b7f4f776e61626c653a2063616c6c6572206973206e6f7420746865206f776e6572600082015250565b6000612502602083611ec8565b915061250d826124cc565b602082019050919050565b60006020820190508181036000830152612531816124f5565b905091905056fea26469706673582212209dcc9ea018e22cba3530fec53199622f2b273da3da60f09d625bbeb2e4844ee264736f6c634300080c0033596f7527766520637261736865642061207061727479212020506c61636520332073636176656e6765727320696e207468697320726f6f6d2e417320616e20616374696f6e2c20617474656d707420746f206861727665737420616e206567672e2020526f6c6c2061206469652e20204f6e206120362c2074616b6520616e2065676720746f6b656e2e20204f6e20612031206f7220322c2074616b65203120706879736963616c2064616d61676520616e6420706c61636520612062756720616c69656e20696e2074686520726f6f6d2e417320796f7520656e7465722074686520726f6f6d2c207468652072656163746f72206578706c6f64657321202054616b6520312068617a6172642064616d6167652e",
  "devdoc": {
    "kind": "dev",
    "methods": {
      "owner()": {
        "details": "Returns the address of the current owner."
      },
      "renounceOwnership()": {
        "details": "Leaves the contract without owner. It will not be possible to call `onlyOwner` functions anymore. Can only be called by the current owner. NOTE: Renouncing ownership will leave the contract without an owner, thereby removing any functionality that is only available to the owner."
      },
      "transferOwnership(address)": {
        "details": "Transfers ownership of the contract to a new account (`newOwner`). Can only be called by the current owner."
      }
    },
    "version": 1
  },
  "userdoc": {
    "kind": "user",
    "methods": {},
    "version": 1
  },
  "storageLayout": {
    "storage": [
      {
        "astId": 7,
        "contract": "contracts/BCEvents.sol:BCEvents",
        "label": "_owner",
        "offset": 0,
        "slot": "0",
        "type": "t_address"
      },
      {
        "astId": 3436,
        "contract": "contracts/BCEvents.sol:BCEvents",
        "label": "bcRoomEvents",
        "offset": 0,
        "slot": "1",
        "type": "t_array(t_struct(BCEvent)3432_storage)dyn_storage"
      },
      {
        "astId": 3440,
        "contract": "contracts/BCEvents.sol:BCEvents",
        "label": "bcCardEvents",
        "offset": 0,
        "slot": "2",
        "type": "t_array(t_struct(BCEvent)3432_storage)dyn_storage"
      }
    ],
    "types": {
      "t_address": {
        "encoding": "inplace",
        "label": "address",
        "numberOfBytes": "20"
      },
      "t_array(t_struct(BCEvent)3432_storage)dyn_storage": {
        "base": "t_struct(BCEvent)3432_storage",
        "encoding": "dynamic_array",
        "label": "struct BCEvents.BCEvent[]",
        "numberOfBytes": "32"
      },
      "t_bool": {
        "encoding": "inplace",
        "label": "bool",
        "numberOfBytes": "1"
      },
      "t_enum(EnemyPlacement)3361": {
        "encoding": "inplace",
        "label": "enum BCEvents.EnemyPlacement",
        "numberOfBytes": "1"
      },
      "t_enum(MovePlayer)3367": {
        "encoding": "inplace",
        "label": "enum BCEvents.MovePlayer",
        "numberOfBytes": "1"
      },
      "t_string_storage": {
        "encoding": "bytes",
        "label": "string",
        "numberOfBytes": "32"
      },
      "t_struct(BCEffect)3412_storage": {
        "encoding": "inplace",
        "label": "struct BCEvents.BCEffect",
        "members": [
          {
            "astId": 3369,
            "contract": "contracts/BCEvents.sol:BCEvents",
            "label": "permanant",
            "offset": 0,
            "slot": "0",
            "type": "t_bool"
          },
          {
            "astId": 3371,
            "contract": "contracts/BCEvents.sol:BCEvents",
            "label": "fullHealth",
            "offset": 1,
            "slot": "0",
            "type": "t_bool"
          },
          {
            "astId": 3373,
            "contract": "contracts/BCEvents.sol:BCEvents",
            "label": "instantDeath",
            "offset": 2,
            "slot": "0",
            "type": "t_bool"
          },
          {
            "astId": 3375,
            "contract": "contracts/BCEvents.sol:BCEvents",
            "label": "placeHazard",
            "offset": 3,
            "slot": "0",
            "type": "t_bool"
          },
          {
            "astId": 3377,
            "contract": "contracts/BCEvents.sol:BCEvents",
            "label": "grantEgg",
            "offset": 4,
            "slot": "0",
            "type": "t_bool"
          },
          {
            "astId": 3379,
            "contract": "contracts/BCEvents.sol:BCEvents",
            "label": "healAmt",
            "offset": 5,
            "slot": "0",
            "type": "t_uint8"
          },
          {
            "astId": 3381,
            "contract": "contracts/BCEvents.sol:BCEvents",
            "label": "healArmorAmt",
            "offset": 6,
            "slot": "0",
            "type": "t_uint8"
          },
          {
            "astId": 3383,
            "contract": "contracts/BCEvents.sol:BCEvents",
            "label": "hazardDamage",
            "offset": 7,
            "slot": "0",
            "type": "t_uint8"
          },
          {
            "astId": 3385,
            "contract": "contracts/BCEvents.sol:BCEvents",
            "label": "physicalDamage",
            "offset": 8,
            "slot": "0",
            "type": "t_uint8"
          },
          {
            "astId": 3387,
            "contract": "contracts/BCEvents.sol:BCEvents",
            "label": "placeEnemyOfType",
            "offset": 9,
            "slot": "0",
            "type": "t_uint8"
          },
          {
            "astId": 3389,
            "contract": "contracts/BCEvents.sol:BCEvents",
            "label": "numEnemyToPlace",
            "offset": 10,
            "slot": "0",
            "type": "t_uint8"
          },
          {
            "astId": 3392,
            "contract": "contracts/BCEvents.sol:BCEvents",
            "label": "wheretoPlace",
            "offset": 11,
            "slot": "0",
            "type": "t_enum(EnemyPlacement)3361"
          },
          {
            "astId": 3394,
            "contract": "contracts/BCEvents.sol:BCEvents",
            "label": "grantData",
            "offset": 12,
            "slot": "0",
            "type": "t_uint8"
          },
          {
            "astId": 3396,
            "contract": "contracts/BCEvents.sol:BCEvents",
            "label": "grantNumItems",
            "offset": 13,
            "slot": "0",
            "type": "t_uint8"
          },
          {
            "astId": 3398,
            "contract": "contracts/BCEvents.sol:BCEvents",
            "label": "takeNumItems",
            "offset": 14,
            "slot": "0",
            "type": "t_uint8"
          },
          {
            "astId": 3401,
            "contract": "contracts/BCEvents.sol:BCEvents",
            "label": "moveType",
            "offset": 15,
            "slot": "0",
            "type": "t_enum(MovePlayer)3367"
          },
          {
            "astId": 3403,
            "contract": "contracts/BCEvents.sol:BCEvents",
            "label": "trapPlayerEscapeRoll",
            "offset": 16,
            "slot": "0",
            "type": "t_uint8"
          },
          {
            "astId": 3405,
            "contract": "contracts/BCEvents.sol:BCEvents",
            "label": "grantAbility",
            "offset": 17,
            "slot": "0",
            "type": "t_uint8"
          },
          {
            "astId": 3408,
            "contract": "contracts/BCEvents.sol:BCEvents",
            "label": "traitIncreases",
            "offset": 0,
            "slot": "1",
            "type": "t_struct(Traits)7071_storage"
          },
          {
            "astId": 3411,
            "contract": "contracts/BCEvents.sol:BCEvents",
            "label": "traitDecreases",
            "offset": 0,
            "slot": "2",
            "type": "t_struct(Traits)7071_storage"
          }
        ],
        "numberOfBytes": "96"
      },
      "t_struct(BCEvent)3432_storage": {
        "encoding": "inplace",
        "label": "struct BCEvents.BCEvent",
        "members": [
          {
            "astId": 3414,
            "contract": "contracts/BCEvents.sol:BCEvents",
            "label": "name",
            "offset": 0,
            "slot": "0",
            "type": "t_string_storage"
          },
          {
            "astId": 3416,
            "contract": "contracts/BCEvents.sol:BCEvents",
            "label": "text",
            "offset": 0,
            "slot": "1",
            "type": "t_string_storage"
          },
          {
            "astId": 3418,
            "contract": "contracts/BCEvents.sol:BCEvents",
            "label": "permanant",
            "offset": 0,
            "slot": "2",
            "type": "t_bool"
          },
          {
            "astId": 3420,
            "contract": "contracts/BCEvents.sol:BCEvents",
            "label": "rollForLow",
            "offset": 1,
            "slot": "2",
            "type": "t_uint8"
          },
          {
            "astId": 3422,
            "contract": "contracts/BCEvents.sol:BCEvents",
            "label": "rollForHigh",
            "offset": 2,
            "slot": "2",
            "type": "t_uint8"
          },
          {
            "astId": 3425,
            "contract": "contracts/BCEvents.sol:BCEvents",
            "label": "defaultEffect",
            "offset": 0,
            "slot": "3",
            "type": "t_struct(BCEffect)3412_storage"
          },
          {
            "astId": 3428,
            "contract": "contracts/BCEvents.sol:BCEvents",
            "label": "lowEffect",
            "offset": 0,
            "slot": "6",
            "type": "t_struct(BCEffect)3412_storage"
          },
          {
            "astId": 3431,
            "contract": "contracts/BCEvents.sol:BCEvents",
            "label": "highEffect",
            "offset": 0,
            "slot": "9",
            "type": "t_struct(BCEffect)3412_storage"
          }
        ],
        "numberOfBytes": "384"
      },
      "t_struct(Traits)7071_storage": {
        "encoding": "inplace",
        "label": "struct BCTypes.Traits",
        "members": [
          {
            "astId": 7058,
            "contract": "contracts/BCEvents.sol:BCEvents",
            "label": "health",
            "offset": 0,
            "slot": "0",
            "type": "t_uint8"
          },
          {
            "astId": 7060,
            "contract": "contracts/BCEvents.sol:BCEvents",
            "label": "carry",
            "offset": 1,
            "slot": "0",
            "type": "t_uint8"
          },
          {
            "astId": 7062,
            "contract": "contracts/BCEvents.sol:BCEvents",
            "label": "defense",
            "offset": 2,
            "slot": "0",
            "type": "t_uint8"
          },
          {
            "astId": 7064,
            "contract": "contracts/BCEvents.sol:BCEvents",
            "label": "hack",
            "offset": 3,
            "slot": "0",
            "type": "t_uint8"
          },
          {
            "astId": 7066,
            "contract": "contracts/BCEvents.sol:BCEvents",
            "label": "breach",
            "offset": 4,
            "slot": "0",
            "type": "t_uint8"
          },
          {
            "astId": 7068,
            "contract": "contracts/BCEvents.sol:BCEvents",
            "label": "shoot",
            "offset": 5,
            "slot": "0",
            "type": "t_uint8"
          },
          {
            "astId": 7070,
            "contract": "contracts/BCEvents.sol:BCEvents",
            "label": "melee",
            "offset": 6,
            "slot": "0",
            "type": "t_uint8"
          }
        ],
        "numberOfBytes": "32"
      },
      "t_uint8": {
        "encoding": "inplace",
        "label": "uint8",
        "numberOfBytes": "1"
      }
    }
  }
}