{
  "address": "0x931f58c1fa84A9dDCA9761cf5795C99a88d7511B",
  "abi": [
    {
      "inputs": [],
      "stateMutability": "nonpayable",
      "type": "constructor"
    },
    {
      "anonymous": false,
      "inputs": [
        {
          "indexed": true,
          "internalType": "address",
          "name": "previousOwner",
          "type": "address"
        },
        {
          "indexed": true,
          "internalType": "address",
          "name": "newOwner",
          "type": "address"
        }
      ],
      "name": "OwnershipTransferred",
      "type": "event"
    },
    {
      "inputs": [
        {
          "internalType": "uint256",
          "name": "",
          "type": "uint256"
        }
      ],
      "name": "bcCardEvents",
      "outputs": [
        {
          "internalType": "uint256",
          "name": "id",
          "type": "uint256"
        },
        {
          "internalType": "bool",
          "name": "permanent",
          "type": "bool"
        },
        {
          "internalType": "uint8",
          "name": "rollForLow",
          "type": "uint8"
        },
        {
          "internalType": "uint8",
          "name": "rollForHigh",
          "type": "uint8"
        }
      ],
      "stateMutability": "view",
      "type": "function"
    },
    {
      "inputs": [
        {
          "internalType": "uint256",
          "name": "",
          "type": "uint256"
        }
      ],
      "name": "bcRoomEvents",
      "outputs": [
        {
          "internalType": "uint256",
          "name": "id",
          "type": "uint256"
        },
        {
          "internalType": "bool",
          "name": "permanent",
          "type": "bool"
        },
        {
          "internalType": "uint8",
          "name": "rollForLow",
          "type": "uint8"
        },
        {
          "internalType": "uint8",
          "name": "rollForHigh",
          "type": "uint8"
        }
      ],
      "stateMutability": "view",
      "type": "function"
    },
    {
      "inputs": [
        {
          "internalType": "uint256",
          "name": "",
          "type": "uint256"
        },
        {
          "internalType": "uint256",
          "name": "",
          "type": "uint256"
        }
      ],
      "name": "effectsList",
      "outputs": [
        {
          "internalType": "enum BCEvents.EffectTypes",
          "name": "effect",
          "type": "uint8"
        },
        {
          "internalType": "uint256",
          "name": "value",
          "type": "uint256"
        }
      ],
      "stateMutability": "view",
      "type": "function"
    },
    {
      "inputs": [
        {
          "internalType": "uint256",
          "name": "_id",
          "type": "uint256"
        }
      ],
      "name": "extGetCardEvent",
      "outputs": [
        {
          "components": [
            {
              "internalType": "uint256",
              "name": "id",
              "type": "uint256"
            },
            {
              "internalType": "bool",
              "name": "permanent",
              "type": "bool"
            },
            {
              "internalType": "uint8",
              "name": "rollForLow",
              "type": "uint8"
            },
            {
              "internalType": "uint8",
              "name": "rollForHigh",
              "type": "uint8"
            },
            {
              "components": [
                {
                  "internalType": "enum BCEvents.EffectTypes",
                  "name": "effect",
                  "type": "uint8"
                },
                {
                  "internalType": "uint256",
                  "name": "value",
                  "type": "uint256"
                }
              ],
              "internalType": "struct BCEvents.Effect[]",
              "name": "defaultEffect",
              "type": "tuple[]"
            },
            {
              "components": [
                {
                  "internalType": "enum BCEvents.EffectTypes",
                  "name": "effect",
                  "type": "uint8"
                },
                {
                  "internalType": "uint256",
                  "name": "value",
                  "type": "uint256"
                }
              ],
              "internalType": "struct BCEvents.Effect[]",
              "name": "lowEffect",
              "type": "tuple[]"
            },
            {
              "components": [
                {
                  "internalType": "enum BCEvents.EffectTypes",
                  "name": "effect",
                  "type": "uint8"
                },
                {
                  "internalType": "uint256",
                  "name": "value",
                  "type": "uint256"
                }
              ],
              "internalType": "struct BCEvents.Effect[]",
              "name": "highEffect",
              "type": "tuple[]"
            }
          ],
          "internalType": "struct BCEvents.BCEvent",
          "name": "",
          "type": "tuple"
        }
      ],
      "stateMutability": "view",
      "type": "function"
    },
    {
      "inputs": [
        {
          "internalType": "bool",
          "name": "_roomEvent",
          "type": "bool"
        },
        {
          "internalType": "uint256",
          "name": "_id",
          "type": "uint256"
        }
      ],
      "name": "extGetEffects",
      "outputs": [
        {
          "components": [
            {
              "internalType": "enum BCEvents.EffectTypes",
              "name": "effect",
              "type": "uint8"
            },
            {
              "internalType": "uint256",
              "name": "value",
              "type": "uint256"
            }
          ],
          "internalType": "struct BCEvents.Effect[][]",
          "name": "",
          "type": "tuple[][]"
        }
      ],
      "stateMutability": "view",
      "type": "function"
    },
    {
      "inputs": [
        {
          "internalType": "uint256",
          "name": "_id",
          "type": "uint256"
        }
      ],
      "name": "extGetRoomEvent",
      "outputs": [
        {
          "components": [
            {
              "internalType": "uint256",
              "name": "id",
              "type": "uint256"
            },
            {
              "internalType": "bool",
              "name": "permanent",
              "type": "bool"
            },
            {
              "internalType": "uint8",
              "name": "rollForLow",
              "type": "uint8"
            },
            {
              "internalType": "uint8",
              "name": "rollForHigh",
              "type": "uint8"
            },
            {
              "components": [
                {
                  "internalType": "enum BCEvents.EffectTypes",
                  "name": "effect",
                  "type": "uint8"
                },
                {
                  "internalType": "uint256",
                  "name": "value",
                  "type": "uint256"
                }
              ],
              "internalType": "struct BCEvents.Effect[]",
              "name": "defaultEffect",
              "type": "tuple[]"
            },
            {
              "components": [
                {
                  "internalType": "enum BCEvents.EffectTypes",
                  "name": "effect",
                  "type": "uint8"
                },
                {
                  "internalType": "uint256",
                  "name": "value",
                  "type": "uint256"
                }
              ],
              "internalType": "struct BCEvents.Effect[]",
              "name": "lowEffect",
              "type": "tuple[]"
            },
            {
              "components": [
                {
                  "internalType": "enum BCEvents.EffectTypes",
                  "name": "effect",
                  "type": "uint8"
                },
                {
                  "internalType": "uint256",
                  "name": "value",
                  "type": "uint256"
                }
              ],
              "internalType": "struct BCEvents.Effect[]",
              "name": "highEffect",
              "type": "tuple[]"
            }
          ],
          "internalType": "struct BCEvents.BCEvent",
          "name": "",
          "type": "tuple"
        }
      ],
      "stateMutability": "view",
      "type": "function"
    },
    {
      "inputs": [],
      "name": "owner",
      "outputs": [
        {
          "internalType": "address",
          "name": "",
          "type": "address"
        }
      ],
      "stateMutability": "view",
      "type": "function"
    },
    {
      "inputs": [],
      "name": "renounceOwnership",
      "outputs": [],
      "stateMutability": "nonpayable",
      "type": "function"
    },
    {
      "inputs": [
        {
          "internalType": "address",
          "name": "newOwner",
          "type": "address"
        }
      ],
      "name": "transferOwnership",
      "outputs": [],
      "stateMutability": "nonpayable",
      "type": "function"
    }
  ],
  "transactionHash": "0x7f461bf51ec19a8be760427fd1cd548e1f86fb3834e6605b9fddcb97cce4fe08",
  "args": [],
  "numDeployments": 1,
  "solcInputHash": "3bb9a8bfbba7b0d23e5324b4eda443e4",
  "bytecode": "0x60806040523480156200001157600080fd5b5062000032620000266200006860201b60201c565b6200007060201b60201c565b620000426200013460201b60201c565b620000526200107560201b60201c565b620000626200139960201b60201c565b62001590565b600033905090565b60008060009054906101000a900473ffffffffffffffffffffffffffffffffffffffff169050816000806101000a81548173ffffffffffffffffffffffffffffffffffffffff021916908373ffffffffffffffffffffffffffffffffffffffff1602179055508173ffffffffffffffffffffffffffffffffffffffff168173ffffffffffffffffffffffffffffffffffffffff167f8be0079c531659141344cd1fd0a4f28419497f9722a3daafe3b4186f6b6457e060405160405180910390a35050565b600060018081600181540180825580915050039060005260206000200190506000600260018160018154018082558091505003906000526020600020906005020190506000816000018190555060008160010160006101000a81548160ff02191690831515021790555060008160010160016101000a81548160ff021916908360ff16021790555060008160010160026101000a81548160ff021916908360ff1602179055508181600201908054620001ef92919062001485565b5081816003019080546200020592919062001485565b5081816004019080546200021b92919062001485565b5060006001808160018154018082558091505003906000526020600020019050806040518060400160405280600460148111156200025e576200025d62001561565b5b81526020016001815250908060018154018082558091505060019003906000526020600020906002020160009091909190915060008201518160000160006101000a81548160ff02191690836014811115620002bf57620002be62001561565b5b021790555060208201518160010155505080604051806040016040528060086014811115620002f357620002f262001561565b5b81526020016001815250908060018154018082558091505060019003906000526020600020906002020160009091909190915060008201518160000160006101000a81548160ff0219169083601481111562000354576200035362001561565b5b021790555060208201518160010155505060006002600181600181540180825580915050039060005260206000209060050201905062030d41816000018190555060008160010160006101000a81548160ff02191690831515021790555060008160010160016101000a81548160ff021916908360ff16021790555060008160010160026101000a81548160ff021916908360ff16021790555081816002019080546200040392919062001485565b5083816003019080546200041992919062001485565b5083816004019080546200042f92919062001485565b5060006001808160018154018082558091505003906000526020600020019050806040518060400160405280600a601481111562000472576200047162001561565b5b81526020016001815250908060018154018082558091505060019003906000526020600020906002020160009091909190915060008201518160000160006101000a81548160ff02191690836014811115620004d357620004d262001561565b5b0217905550602082015181600101555050806040518060400160405280600b601481111562000507576200050662001561565b5b815260200160048081111562000522576200052162001561565b5b815250908060018154018082558091505060019003906000526020600020906002020160009091909190915060008201518160000160006101000a81548160ff021916908360148111156200057c576200057b62001561565b5b0217905550602082015181600101555050806040518060400160405280600c6014811115620005b057620005af62001561565b5b815260200160016003811115620005cc57620005cb62001561565b5b815250908060018154018082558091505060019003906000526020600020906002020160009091909190915060008201518160000160006101000a81548160ff0219169083601481111562000626576200062562001561565b5b0217905550602082015181600101555050600060018081600181540180825580915050039060005260206000200190508060405180604001604052806005601481111562000679576200067862001561565b5b81526020016001815250908060018154018082558091505060019003906000526020600020906002020160009091909190915060008201518160000160006101000a81548160ff02191690836014811115620006da57620006d962001561565b5b021790555060208201518160010155505060006002600181600181540180825580915050039060005260206000209060050201905062030d42816000018190555060018160010160006101000a81548160ff02191690831515021790555060028160010160016101000a81548160ff021916908360ff16021790555060068160010160026101000a81548160ff021916908360ff16021790555086816002019080546200078992919062001485565b5082816003019080546200079f92919062001485565b508181600401908054620007b592919062001485565b5060006001808160018154018082558091505003906000526020600020019050806040518060400160405280600a6014811115620007f857620007f762001561565b5b81526020016003815250908060018154018082558091505060019003906000526020600020906002020160009091909190915060008201518160000160006101000a81548160ff0219169083601481111562000859576200085862001561565b5b0217905550602082015181600101555050806040518060400160405280600b60148111156200088d576200088c62001561565b5b815260200160036004811115620008a957620008a862001561565b5b815250908060018154018082558091505060019003906000526020600020906002020160009091909190915060008201518160000160006101000a81548160ff0219169083601481111562000903576200090262001561565b5b0217905550602082015181600101555050806040518060400160405280600c601481111562000937576200093662001561565b5b81526020016001600381111562000953576200095262001561565b5b815250908060018154018082558091505060019003906000526020600020906002020160009091909190915060008201518160000160006101000a81548160ff02191690836014811115620009ad57620009ac62001561565b5b021790555060208201518160010155505060006002600181600181540180825580915050039060005260206000209060050201905062030d43816000018190555060008160010160006101000a81548160ff02191690831515021790555060008160010160016101000a81548160ff021916908360ff16021790555060008160010160026101000a81548160ff021916908360ff160217905550818160020190805462000a5c92919062001485565b50888160030190805462000a7292919062001485565b50888160040190805462000a8892919062001485565b50600060018081600181540180825580915050039060005260206000200190508060405180604001604052806010601481111562000acb5762000aca62001561565b5b815260200160058081111562000ae65762000ae562001561565b5b815250908060018154018082558091505060019003906000526020600020906002020160009091909190915060008201518160000160006101000a81548160ff0219169083601481111562000b405762000b3f62001561565b5b021790555060208201518160010155505060006002600181600181540180825580915050039060005260206000209060050201905062030d44816000018190555060018160010160006101000a81548160ff02191690831515021790555060008160010160016101000a81548160ff021916908360ff16021790555060008160010160026101000a81548160ff021916908360ff160217905550818160020190805462000bef92919062001485565b508a8160030190805462000c0592919062001485565b508a8160040190805462000c1b92919062001485565b50600060018081600181540180825580915050039060005260206000200190508060405180604001604052806004601481111562000c5e5762000c5d62001561565b5b81526020016001815250908060018154018082558091505060019003906000526020600020906002020160009091909190915060008201518160000160006101000a81548160ff0219169083601481111562000cbf5762000cbe62001561565b5b0217905550602082015181600101555050600060018081600181540180825580915050039060005260206000200190508060405180604001604052806004601481111562000d125762000d1162001561565b5b81526020016001815250908060018154018082558091505060019003906000526020600020906002020160009091909190915060008201518160000160006101000a81548160ff0219169083601481111562000d735762000d7262001561565b5b02179055506020820151816001015550508060405180604001604052806003601481111562000da75762000da662001561565b5b81526020016001815250908060018154018082558091505060019003906000526020600020906002020160009091909190915060008201518160000160006101000a81548160ff0219169083601481111562000e085762000e0762001561565b5b021790555060208201518160010155505060006002600181600181540180825580915050039060005260206000209060050201905062030d45816000018190555060008160010160006101000a81548160ff02191690831515021790555060018160010160016101000a81548160ff021916908360ff16021790555060008160010160026101000a81548160ff021916908360ff160217905550828160020190805462000eb792919062001485565b50818160030190805462000ecd92919062001485565b508d8160040190805462000ee392919062001485565b50600060018081600181540180825580915050039060005260206000200190508060405180604001604052806002601481111562000f265762000f2562001561565b5b81526020016001815250908060018154018082558091505060019003906000526020600020906002020160009091909190915060008201518160000160006101000a81548160ff0219169083601481111562000f875762000f8662001561565b5b021790555060208201518160010155505060006002600181600181540180825580915050039060005260206000209060050201905062030d46816000018190555060018160010160006101000a81548160ff02191690831515021790555060008160010160016101000a81548160ff021916908360ff16021790555060008160010160026101000a81548160ff021916908360ff16021790555081816002019080546200103692919062001485565b508f816003019080546200104c92919062001485565b508f816004019080546200106292919062001485565b5050505050505050505050505050505050565b600060018081600181540180825580915050039060005260206000200190506000600180816001815401808255809150500390600052602060002001905080604051806040016040528060086014811115620010d657620010d562001561565b5b81526020016001815250908060018154018082558091505060019003906000526020600020906002020160009091909190915060008201518160000160006101000a81548160ff0219169083601481111562001137576200113662001561565b5b021790555060208201518160010155505060006002600181600181540180825580915050039060005260206000209060050201905062030d47816000018190555060008160010160006101000a81548160ff02191690831515021790555060008160010160016101000a81548160ff021916908360ff16021790555060008160010160026101000a81548160ff021916908360ff1602179055508181600201908054620011e692919062001485565b508281600301908054620011fc92919062001485565b5082816004019080546200121292919062001485565b50600060018081600181540180825580915050039060005260206000200190508060405180604001604052806013601481111562001255576200125462001561565b5b81526020016004815250908060018154018082558091505060019003906000526020600020906002020160009091909190915060008201518160000160006101000a81548160ff02191690836014811115620012b657620012b562001561565b5b021790555060208201518160010155505060006002600181600181540180825580915050039060005260206000209060050201905062030d48816000018190555060008160010160006101000a81548160ff02191690831515021790555060008160010160016101000a81548160ff021916908360ff16021790555060008160010160026101000a81548160ff021916908360ff16021790555081816002019080546200136592919062001485565b5084816003019080546200137b92919062001485565b5084816004019080546200139192919062001485565b505050505050565b600060018081600181540180825580915050039060005260206000200190506000600360018160018154018082558091505003906000526020600020906005020190506000816000018190555060008160010160006101000a81548160ff02191690831515021790555060008160010160016101000a81548160ff021916908360ff16021790555060008160010160026101000a81548160ff021916908360ff16021790555081816002019080546200145492919062001485565b5081816003019080546200146a92919062001485565b5081816004019080546200148092919062001485565b505050565b828054828255906000526020600020906002028101928215620015195760005260206000209160020282015b82811115620015185782826000820160009054906101000a900460ff168160000160006101000a81548160ff02191690836014811115620014f757620014f662001561565b5b021790555060018201548160010155505091600201919060020190620014b1565b5b5090506200152891906200152c565b5090565b5b808211156200155d57600080820160006101000a81549060ff02191690556001820160009055506002016200152d565b5090565b7f4e487b7100000000000000000000000000000000000000000000000000000000600052602160045260246000fd5b6114d980620015a06000396000f3fe608060405234801561001057600080fd5b50600436106100935760003560e01c80639dfc9282116100665780639dfc928214610123578063a49ac41114610156578063c82c37b914610186578063f2fde38b146101b6578063f6467e23146101d257610093565b806322813e371461009857806345412253146100c8578063715018a6146100fb5780638da5cb5b14610105575b600080fd5b6100b260048036038101906100ad9190610db3565b610203565b6040516100bf9190611025565b60405180910390f35b6100e260048036038101906100dd9190610db3565b61048a565b6040516100f29493929190611074565b60405180910390f35b6101036104f1565b005b61010d610505565b60405161011a91906110fa565b60405180910390f35b61013d60048036038101906101389190610db3565b61052e565b60405161014d9493929190611074565b60405180910390f35b610170600480360381019061016b9190611141565b610595565b60405161017d9190611243565b60405180910390f35b6101a0600480360381019061019b9190610db3565b610885565b6040516101ad9190611025565b60405180910390f35b6101d060048036038101906101cb9190611291565b610b0c565b005b6101ec60048036038101906101e791906112be565b610b8f565b6040516101fa92919061130d565b60405180910390f35b61020b610d33565b6003828154811061021f5761021e611336565b5b90600052602060002090600502016040518060e0016040529081600082015481526020016001820160009054906101000a900460ff161515151581526020016001820160019054906101000a900460ff1660ff1660ff1681526020016001820160029054906101000a900460ff1660ff1660ff16815260200160028201805480602002602001604051908101604052809291908181526020016000905b8282101561033357838290600052602060002090600202016040518060400160405290816000820160009054906101000a900460ff16601481111561030457610303610e52565b5b601481111561031657610315610e52565b5b8152602001600182015481525050815260200190600101906102bc565b50505050815260200160038201805480602002602001604051908101604052809291908181526020016000905b828210156103d757838290600052602060002090600202016040518060400160405290816000820160009054906101000a900460ff1660148111156103a8576103a7610e52565b5b60148111156103ba576103b9610e52565b5b815260200160018201548152505081526020019060010190610360565b50505050815260200160048201805480602002602001604051908101604052809291908181526020016000905b8282101561047b57838290600052602060002090600202016040518060400160405290816000820160009054906101000a900460ff16601481111561044c5761044b610e52565b5b601481111561045e5761045d610e52565b5b815260200160018201548152505081526020019060010190610404565b50505050815250509050919050565b6002818154811061049a57600080fd5b90600052602060002090600502016000915090508060000154908060010160009054906101000a900460ff16908060010160019054906101000a900460ff16908060010160029054906101000a900460ff16905084565b6104f9610be9565b6105036000610c67565b565b60008060009054906101000a900473ffffffffffffffffffffffffffffffffffffffff16905090565b6003818154811061053e57600080fd5b90600052602060002090600502016000915090508060000154908060010160009054906101000a900460ff16908060010160019054906101000a900460ff16908060010160029054906101000a900460ff16905084565b60606000600367ffffffffffffffff8111156105b4576105b3611365565b5b6040519080825280602002602001820160405280156105e757816020015b60608152602001906001900390816105d25790505b5090506000841561061b576002848154811061060657610605611336565b5b90600052602060002090600502019050610640565b6003848154811061062f5761062e611336565b5b906000526020600020906005020190505b80600201805480602002602001604051908101604052809291908181526020016000905b828210156106db57838290600052602060002090600202016040518060400160405290816000820160009054906101000a900460ff1660148111156106ac576106ab610e52565b5b60148111156106be576106bd610e52565b5b815260200160018201548152505081526020019060010190610664565b50505050826000815181106106f3576106f2611336565b5b602002602001018190525080600301805480602002602001604051908101604052809291908181526020016000905b8282101561079957838290600052602060002090600202016040518060400160405290816000820160009054906101000a900460ff16601481111561076a57610769610e52565b5b601481111561077c5761077b610e52565b5b815260200160018201548152505081526020019060010190610722565b50505050826001815181106107b1576107b0611336565b5b602002602001018190525080600401805480602002602001604051908101604052809291908181526020016000905b8282101561085757838290600052602060002090600202016040518060400160405290816000820160009054906101000a900460ff16601481111561082857610827610e52565b5b601481111561083a57610839610e52565b5b8152602001600182015481525050815260200190600101906107e0565b505050508260028151811061086f5761086e611336565b5b6020026020010181905250819250505092915050565b61088d610d33565b600282815481106108a1576108a0611336565b5b90600052602060002090600502016040518060e0016040529081600082015481526020016001820160009054906101000a900460ff161515151581526020016001820160019054906101000a900460ff1660ff1660ff1681526020016001820160029054906101000a900460ff1660ff1660ff16815260200160028201805480602002602001604051908101604052809291908181526020016000905b828210156109b557838290600052602060002090600202016040518060400160405290816000820160009054906101000a900460ff16601481111561098657610985610e52565b5b601481111561099857610997610e52565b5b81526020016001820154815250508152602001906001019061093e565b50505050815260200160038201805480602002602001604051908101604052809291908181526020016000905b82821015610a5957838290600052602060002090600202016040518060400160405290816000820160009054906101000a900460ff166014811115610a2a57610a29610e52565b5b6014811115610a3c57610a3b610e52565b5b8152602001600182015481525050815260200190600101906109e2565b50505050815260200160048201805480602002602001604051908101604052809291908181526020016000905b82821015610afd57838290600052602060002090600202016040518060400160405290816000820160009054906101000a900460ff166014811115610ace57610acd610e52565b5b6014811115610ae057610adf610e52565b5b815260200160018201548152505081526020019060010190610a86565b50505050815250509050919050565b610b14610be9565b600073ffffffffffffffffffffffffffffffffffffffff168173ffffffffffffffffffffffffffffffffffffffff1603610b83576040517f08c379a0000000000000000000000000000000000000000000000000000000008152600401610b7a90611417565b60405180910390fd5b610b8c81610c67565b50565b60018281548110610b9f57600080fd5b906000526020600020018181548110610bb757600080fd5b9060005260206000209060020201600091509150508060000160009054906101000a900460ff16908060010154905082565b610bf1610d2b565b73ffffffffffffffffffffffffffffffffffffffff16610c0f610505565b73ffffffffffffffffffffffffffffffffffffffff1614610c65576040517f08c379a0000000000000000000000000000000000000000000000000000000008152600401610c5c90611483565b60405180910390fd5b565b60008060009054906101000a900473ffffffffffffffffffffffffffffffffffffffff169050816000806101000a81548173ffffffffffffffffffffffffffffffffffffffff021916908373ffffffffffffffffffffffffffffffffffffffff1602179055508173ffffffffffffffffffffffffffffffffffffffff168173ffffffffffffffffffffffffffffffffffffffff167f8be0079c531659141344cd1fd0a4f28419497f9722a3daafe3b4186f6b6457e060405160405180910390a35050565b600033905090565b6040518060e0016040528060008152602001600015158152602001600060ff168152602001600060ff1681526020016060815260200160608152602001606081525090565b600080fd5b6000819050919050565b610d9081610d7d565b8114610d9b57600080fd5b50565b600081359050610dad81610d87565b92915050565b600060208284031215610dc957610dc8610d78565b5b6000610dd784828501610d9e565b91505092915050565b610de981610d7d565b82525050565b60008115159050919050565b610e0481610def565b82525050565b600060ff82169050919050565b610e2081610e0a565b82525050565b600081519050919050565b600082825260208201905092915050565b6000819050602082019050919050565b7f4e487b7100000000000000000000000000000000000000000000000000000000600052602160045260246000fd5b60158110610e9257610e91610e52565b5b50565b6000819050610ea382610e81565b919050565b6000610eb382610e95565b9050919050565b610ec381610ea8565b82525050565b604082016000820151610edf6000850182610eba565b506020820151610ef26020850182610de0565b50505050565b6000610f048383610ec9565b60408301905092915050565b6000602082019050919050565b6000610f2882610e26565b610f328185610e31565b9350610f3d83610e42565b8060005b83811015610f6e578151610f558882610ef8565b9750610f6083610f10565b925050600181019050610f41565b5085935050505092915050565b600060e083016000830151610f936000860182610de0565b506020830151610fa66020860182610dfb565b506040830151610fb96040860182610e17565b506060830151610fcc6060860182610e17565b5060808301518482036080860152610fe48282610f1d565b91505060a083015184820360a0860152610ffe8282610f1d565b91505060c083015184820360c08601526110188282610f1d565b9150508091505092915050565b6000602082019050818103600083015261103f8184610f7b565b905092915050565b61105081610d7d565b82525050565b61105f81610def565b82525050565b61106e81610e0a565b82525050565b60006080820190506110896000830187611047565b6110966020830186611056565b6110a36040830185611065565b6110b06060830184611065565b95945050505050565b600073ffffffffffffffffffffffffffffffffffffffff82169050919050565b60006110e4826110b9565b9050919050565b6110f4816110d9565b82525050565b600060208201905061110f60008301846110eb565b92915050565b61111e81610def565b811461112957600080fd5b50565b60008135905061113b81611115565b92915050565b6000806040838503121561115857611157610d78565b5b60006111668582860161112c565b925050602061117785828601610d9e565b9150509250929050565b600081519050919050565b600082825260208201905092915050565b6000819050602082019050919050565b60006111b98383610f1d565b905092915050565b6000602082019050919050565b60006111d982611181565b6111e3818561118c565b9350836020820285016111f58561119d565b8060005b85811015611231578484038952815161121285826111ad565b945061121d836111c1565b925060208a019950506001810190506111f9565b50829750879550505050505092915050565b6000602082019050818103600083015261125d81846111ce565b905092915050565b61126e816110d9565b811461127957600080fd5b50565b60008135905061128b81611265565b92915050565b6000602082840312156112a7576112a6610d78565b5b60006112b58482850161127c565b91505092915050565b600080604083850312156112d5576112d4610d78565b5b60006112e385828601610d9e565b92505060206112f485828601610d9e565b9150509250929050565b61130781610ea8565b82525050565b600060408201905061132260008301856112fe565b61132f6020830184611047565b9392505050565b7f4e487b7100000000000000000000000000000000000000000000000000000000600052603260045260246000fd5b7f4e487b7100000000000000000000000000000000000000000000000000000000600052604160045260246000fd5b600082825260208201905092915050565b7f4f776e61626c653a206e6577206f776e657220697320746865207a65726f206160008201527f6464726573730000000000000000000000000000000000000000000000000000602082015250565b6000611401602683611394565b915061140c826113a5565b604082019050919050565b60006020820190508181036000830152611430816113f4565b9050919050565b7f4f776e61626c653a2063616c6c6572206973206e6f7420746865206f776e6572600082015250565b600061146d602083611394565b915061147882611437565b602082019050919050565b6000602082019050818103600083015261149c81611460565b905091905056fea264697066735822122060763ab8101d5c058bdbb3ffd74bd266c89717aaefde960e677dcbfa95ab413b64736f6c63430008110033",
  "devdoc": {
    "kind": "dev",
    "methods": {
      "owner()": {
        "details": "Returns the address of the current owner."
      },
      "renounceOwnership()": {
        "details": "Leaves the contract without owner. It will not be possible to call `onlyOwner` functions anymore. Can only be called by the current owner. NOTE: Renouncing ownership will leave the contract without an owner, thereby removing any functionality that is only available to the owner."
      },
      "transferOwnership(address)": {
        "details": "Transfers ownership of the contract to a new account (`newOwner`). Can only be called by the current owner."
      }
    },
    "version": 1
  },
  "userdoc": {
    "kind": "user",
    "methods": {},
    "version": 1
  },
  "storageLayout": {
    "storage": [
      {
        "astId": 7,
        "contract": "contracts/BCEvents.sol:BCEvents",
        "label": "_owner",
        "offset": 0,
        "slot": "0",
        "type": "t_address"
      },
      {
        "astId": 3871,
        "contract": "contracts/BCEvents.sol:BCEvents",
        "label": "effectsList",
        "offset": 0,
        "slot": "1",
        "type": "t_array(t_array(t_struct(Effect)3845_storage)dyn_storage)dyn_storage"
      },
      {
        "astId": 3875,
        "contract": "contracts/BCEvents.sol:BCEvents",
        "label": "bcRoomEvents",
        "offset": 0,
        "slot": "2",
        "type": "t_array(t_struct(BCEvent)3866_storage)dyn_storage"
      },
      {
        "astId": 3879,
        "contract": "contracts/BCEvents.sol:BCEvents",
        "label": "bcCardEvents",
        "offset": 0,
        "slot": "3",
        "type": "t_array(t_struct(BCEvent)3866_storage)dyn_storage"
      }
    ],
    "types": {
      "t_address": {
        "encoding": "inplace",
        "label": "address",
        "numberOfBytes": "20"
      },
      "t_array(t_array(t_struct(Effect)3845_storage)dyn_storage)dyn_storage": {
        "base": "t_array(t_struct(Effect)3845_storage)dyn_storage",
        "encoding": "dynamic_array",
        "label": "struct BCEvents.Effect[][]",
        "numberOfBytes": "32"
      },
      "t_array(t_struct(BCEvent)3866_storage)dyn_storage": {
        "base": "t_struct(BCEvent)3866_storage",
        "encoding": "dynamic_array",
        "label": "struct BCEvents.BCEvent[]",
        "numberOfBytes": "32"
      },
      "t_array(t_struct(Effect)3845_storage)dyn_storage": {
        "base": "t_struct(Effect)3845_storage",
        "encoding": "dynamic_array",
        "label": "struct BCEvents.Effect[]",
        "numberOfBytes": "32"
      },
      "t_bool": {
        "encoding": "inplace",
        "label": "bool",
        "numberOfBytes": "1"
      },
      "t_enum(EffectTypes)3839": {
        "encoding": "inplace",
        "label": "enum BCEvents.EffectTypes",
        "numberOfBytes": "1"
      },
      "t_struct(BCEvent)3866_storage": {
        "encoding": "inplace",
        "label": "struct BCEvents.BCEvent",
        "members": [
          {
            "astId": 3847,
            "contract": "contracts/BCEvents.sol:BCEvents",
            "label": "id",
            "offset": 0,
            "slot": "0",
            "type": "t_uint256"
          },
          {
            "astId": 3849,
            "contract": "contracts/BCEvents.sol:BCEvents",
            "label": "permanent",
            "offset": 0,
            "slot": "1",
            "type": "t_bool"
          },
          {
            "astId": 3851,
            "contract": "contracts/BCEvents.sol:BCEvents",
            "label": "rollForLow",
            "offset": 1,
            "slot": "1",
            "type": "t_uint8"
          },
          {
            "astId": 3853,
            "contract": "contracts/BCEvents.sol:BCEvents",
            "label": "rollForHigh",
            "offset": 2,
            "slot": "1",
            "type": "t_uint8"
          },
          {
            "astId": 3857,
            "contract": "contracts/BCEvents.sol:BCEvents",
            "label": "defaultEffect",
            "offset": 0,
            "slot": "2",
            "type": "t_array(t_struct(Effect)3845_storage)dyn_storage"
          },
          {
            "astId": 3861,
            "contract": "contracts/BCEvents.sol:BCEvents",
            "label": "lowEffect",
            "offset": 0,
            "slot": "3",
            "type": "t_array(t_struct(Effect)3845_storage)dyn_storage"
          },
          {
            "astId": 3865,
            "contract": "contracts/BCEvents.sol:BCEvents",
            "label": "highEffect",
            "offset": 0,
            "slot": "4",
            "type": "t_array(t_struct(Effect)3845_storage)dyn_storage"
          }
        ],
        "numberOfBytes": "160"
      },
      "t_struct(Effect)3845_storage": {
        "encoding": "inplace",
        "label": "struct BCEvents.Effect",
        "members": [
          {
            "astId": 3842,
            "contract": "contracts/BCEvents.sol:BCEvents",
            "label": "effect",
            "offset": 0,
            "slot": "0",
            "type": "t_enum(EffectTypes)3839"
          },
          {
            "astId": 3844,
            "contract": "contracts/BCEvents.sol:BCEvents",
            "label": "value",
            "offset": 0,
            "slot": "1",
            "type": "t_uint256"
          }
        ],
        "numberOfBytes": "64"
      },
      "t_uint256": {
        "encoding": "inplace",
        "label": "uint256",
        "numberOfBytes": "32"
      },
      "t_uint8": {
        "encoding": "inplace",
        "label": "uint8",
        "numberOfBytes": "1"
      }
    }
  }
}