{
  "address": "0xB6aFc51eC1059090da47186E66484bbD079b3622",
  "abi": [
    {
      "inputs": [],
      "stateMutability": "nonpayable",
      "type": "constructor"
    },
    {
      "anonymous": false,
      "inputs": [
        {
          "indexed": true,
          "internalType": "address",
          "name": "previousOwner",
          "type": "address"
        },
        {
          "indexed": true,
          "internalType": "address",
          "name": "newOwner",
          "type": "address"
        }
      ],
      "name": "OwnershipTransferred",
      "type": "event"
    },
    {
      "inputs": [
        {
          "internalType": "uint256",
          "name": "",
          "type": "uint256"
        }
      ],
      "name": "bcBugCardEvents",
      "outputs": [
        {
          "internalType": "uint256",
          "name": "id",
          "type": "uint256"
        },
        {
          "internalType": "bool",
          "name": "permanent",
          "type": "bool"
        },
        {
          "internalType": "uint8",
          "name": "rollForLow",
          "type": "uint8"
        },
        {
          "internalType": "uint8",
          "name": "rollForHigh",
          "type": "uint8"
        }
      ],
      "stateMutability": "view",
      "type": "function"
    },
    {
      "inputs": [
        {
          "internalType": "uint256",
          "name": "",
          "type": "uint256"
        }
      ],
      "name": "bcMysteryCardEvents",
      "outputs": [
        {
          "internalType": "uint256",
          "name": "id",
          "type": "uint256"
        },
        {
          "internalType": "bool",
          "name": "permanent",
          "type": "bool"
        },
        {
          "internalType": "uint8",
          "name": "rollForLow",
          "type": "uint8"
        },
        {
          "internalType": "uint8",
          "name": "rollForHigh",
          "type": "uint8"
        }
      ],
      "stateMutability": "view",
      "type": "function"
    },
    {
      "inputs": [
        {
          "internalType": "uint256",
          "name": "",
          "type": "uint256"
        }
      ],
      "name": "bcRoomEvents",
      "outputs": [
        {
          "internalType": "uint256",
          "name": "id",
          "type": "uint256"
        },
        {
          "internalType": "bool",
          "name": "permanent",
          "type": "bool"
        },
        {
          "internalType": "uint8",
          "name": "rollForLow",
          "type": "uint8"
        },
        {
          "internalType": "uint8",
          "name": "rollForHigh",
          "type": "uint8"
        }
      ],
      "stateMutability": "view",
      "type": "function"
    },
    {
      "inputs": [
        {
          "internalType": "uint256",
          "name": "",
          "type": "uint256"
        }
      ],
      "name": "bcScavCardEvents",
      "outputs": [
        {
          "internalType": "uint256",
          "name": "id",
          "type": "uint256"
        },
        {
          "internalType": "bool",
          "name": "permanent",
          "type": "bool"
        },
        {
          "internalType": "uint8",
          "name": "rollForLow",
          "type": "uint8"
        },
        {
          "internalType": "uint8",
          "name": "rollForHigh",
          "type": "uint8"
        }
      ],
      "stateMutability": "view",
      "type": "function"
    },
    {
      "inputs": [
        {
          "internalType": "uint256",
          "name": "",
          "type": "uint256"
        }
      ],
      "name": "bcShipCardEvents",
      "outputs": [
        {
          "internalType": "uint256",
          "name": "id",
          "type": "uint256"
        },
        {
          "internalType": "bool",
          "name": "permanent",
          "type": "bool"
        },
        {
          "internalType": "uint8",
          "name": "rollForLow",
          "type": "uint8"
        },
        {
          "internalType": "uint8",
          "name": "rollForHigh",
          "type": "uint8"
        }
      ],
      "stateMutability": "view",
      "type": "function"
    },
    {
      "inputs": [
        {
          "internalType": "uint256",
          "name": "",
          "type": "uint256"
        },
        {
          "internalType": "uint256",
          "name": "",
          "type": "uint256"
        }
      ],
      "name": "effectsList",
      "outputs": [
        {
          "internalType": "enum BCEvents.EffectTypes",
          "name": "effect",
          "type": "uint8"
        },
        {
          "internalType": "uint256",
          "name": "value",
          "type": "uint256"
        }
      ],
      "stateMutability": "view",
      "type": "function"
    },
    {
      "inputs": [
        {
          "internalType": "uint256",
          "name": "_id",
          "type": "uint256"
        },
        {
          "internalType": "enum BCTypes.BCEventType",
          "name": "_type",
          "type": "uint8"
        }
      ],
      "name": "extGetCardEvent",
      "outputs": [
        {
          "components": [
            {
              "internalType": "uint256",
              "name": "id",
              "type": "uint256"
            },
            {
              "internalType": "bool",
              "name": "permanent",
              "type": "bool"
            },
            {
              "internalType": "uint8",
              "name": "rollForLow",
              "type": "uint8"
            },
            {
              "internalType": "uint8",
              "name": "rollForHigh",
              "type": "uint8"
            },
            {
              "components": [
                {
                  "internalType": "enum BCEvents.EffectTypes",
                  "name": "effect",
                  "type": "uint8"
                },
                {
                  "internalType": "uint256",
                  "name": "value",
                  "type": "uint256"
                }
              ],
              "internalType": "struct BCEvents.Effect[]",
              "name": "defaultEffect",
              "type": "tuple[]"
            },
            {
              "components": [
                {
                  "internalType": "enum BCEvents.EffectTypes",
                  "name": "effect",
                  "type": "uint8"
                },
                {
                  "internalType": "uint256",
                  "name": "value",
                  "type": "uint256"
                }
              ],
              "internalType": "struct BCEvents.Effect[]",
              "name": "lowEffect",
              "type": "tuple[]"
            },
            {
              "components": [
                {
                  "internalType": "enum BCEvents.EffectTypes",
                  "name": "effect",
                  "type": "uint8"
                },
                {
                  "internalType": "uint256",
                  "name": "value",
                  "type": "uint256"
                }
              ],
              "internalType": "struct BCEvents.Effect[]",
              "name": "highEffect",
              "type": "tuple[]"
            }
          ],
          "internalType": "struct BCEvents.BCEvent",
          "name": "",
          "type": "tuple"
        }
      ],
      "stateMutability": "view",
      "type": "function"
    },
    {
      "inputs": [
        {
          "internalType": "enum BCTypes.BCEventType",
          "name": "_eventType",
          "type": "uint8"
        },
        {
          "internalType": "uint256",
          "name": "_id",
          "type": "uint256"
        }
      ],
      "name": "extGetEffects",
      "outputs": [
        {
          "components": [
            {
              "internalType": "enum BCEvents.EffectTypes",
              "name": "effect",
              "type": "uint8"
            },
            {
              "internalType": "uint256",
              "name": "value",
              "type": "uint256"
            }
          ],
          "internalType": "struct BCEvents.Effect[][]",
          "name": "",
          "type": "tuple[][]"
        }
      ],
      "stateMutability": "view",
      "type": "function"
    },
    {
      "inputs": [
        {
          "internalType": "uint256",
          "name": "_id",
          "type": "uint256"
        }
      ],
      "name": "extGetRoomEvent",
      "outputs": [
        {
          "components": [
            {
              "internalType": "uint256",
              "name": "id",
              "type": "uint256"
            },
            {
              "internalType": "bool",
              "name": "permanent",
              "type": "bool"
            },
            {
              "internalType": "uint8",
              "name": "rollForLow",
              "type": "uint8"
            },
            {
              "internalType": "uint8",
              "name": "rollForHigh",
              "type": "uint8"
            },
            {
              "components": [
                {
                  "internalType": "enum BCEvents.EffectTypes",
                  "name": "effect",
                  "type": "uint8"
                },
                {
                  "internalType": "uint256",
                  "name": "value",
                  "type": "uint256"
                }
              ],
              "internalType": "struct BCEvents.Effect[]",
              "name": "defaultEffect",
              "type": "tuple[]"
            },
            {
              "components": [
                {
                  "internalType": "enum BCEvents.EffectTypes",
                  "name": "effect",
                  "type": "uint8"
                },
                {
                  "internalType": "uint256",
                  "name": "value",
                  "type": "uint256"
                }
              ],
              "internalType": "struct BCEvents.Effect[]",
              "name": "lowEffect",
              "type": "tuple[]"
            },
            {
              "components": [
                {
                  "internalType": "enum BCEvents.EffectTypes",
                  "name": "effect",
                  "type": "uint8"
                },
                {
                  "internalType": "uint256",
                  "name": "value",
                  "type": "uint256"
                }
              ],
              "internalType": "struct BCEvents.Effect[]",
              "name": "highEffect",
              "type": "tuple[]"
            }
          ],
          "internalType": "struct BCEvents.BCEvent",
          "name": "",
          "type": "tuple"
        }
      ],
      "stateMutability": "view",
      "type": "function"
    },
    {
      "inputs": [],
      "name": "owner",
      "outputs": [
        {
          "internalType": "address",
          "name": "",
          "type": "address"
        }
      ],
      "stateMutability": "view",
      "type": "function"
    },
    {
      "inputs": [],
      "name": "renounceOwnership",
      "outputs": [],
      "stateMutability": "nonpayable",
      "type": "function"
    },
    {
      "inputs": [
        {
          "internalType": "address",
          "name": "newOwner",
          "type": "address"
        }
      ],
      "name": "transferOwnership",
      "outputs": [],
      "stateMutability": "nonpayable",
      "type": "function"
    }
  ],
  "transactionHash": "0xf82b718ed42d04594e8d5b6faf8132333870745564afeaeefa39ed69845a5d1f",
  "args": [],
  "numDeployments": 1,
  "solcInputHash": "95fd6822a2af1851844f0c53e2691a42",
  "bytecode": "0x60806040523480156200001157600080fd5b506200001d336200006a565b600180548101815560005262000032620000ba565b6200003c62000c08565b6200004662000f55565b62000050620028c2565b6200005a62003608565b620000646200472b565b62005851565b600080546001600160a01b038381166001600160a01b0319831681178455604051919092169283917f8be0079c531659141344cd1fd0a4f28419497f9722a3daafe3b4186f6b6457e09190a35050565b60006001600081548110620000d357620000d362005825565b600091825260208220600280546001810182559084526005026000805160206200710f83398151915281019384556000805160206200716f8339815191528101805462ffffff19169055910180549093506200014391600080516020620071af8339815191520190849062005770565b50815462000158906003830190849062005770565b5081546200016d906004830190849062005770565b50600180548082018255604080518082019091526004815260208082018490526000805160206200720f83398151915290920180548085018255600082815293909320825160029094020180549194929390929091839160ff1990911690836016811115620001e057620001e06200583b565b0217905550602082015181600101555050806040518060400160405280600860168111156200021357620002136200583b565b815260016020918201819052835480820185556000948552919093208251600290920201805492939092839160ff19909116908360168111156200025b576200025b6200583b565b02179055506020919091015160019182015560028054918201815560005262030d4160059091026000805160206200710f83398151915281019182556000805160206200716f8339815191528101805462ffffff191690558254620002d491600080516020620071af8339815191520190849062005770565b508354620002e9906003830190869062005770565b508354620002fe906004830190869062005770565b5060018054808201825560408051808201909152600a815260208082018490526000805160206200720f83398151915290920180548085018255600082815293909320825160029094020180549194929390929091839160ff19909116908360168111156200037157620003716200583b565b0217905550602082015181600101555050806040518060400160405280600b6016811115620003a457620003a46200583b565b815260200160019052815460018181018455600093845260209093208251600290920201805492939092839160ff1990911690836016811115620003ec57620003ec6200583b565b0217905550602082015181600101555050806040518060400160405280600c60168111156200041f576200041f6200583b565b815260200160019052815460018181018455600093845260209093208251600290920201805492939092839160ff19909116908360168111156200046757620004676200583b565b02179055506020918201516001918201558054808201825560408051808201909152600581528084018390526000805160206200720f833981519152909101805480840182556000828152949094208251600290950201805491949293909291839160ff1990911690836016811115620004e557620004e56200583b565b02179055506020919091015160019182015560028054918201815560005262030d4260059091026000805160206200710f83398151915281019182556000805160206200716f833981519152810180546206020162ffffff1990911617905587546200056591600080516020620071af8339815191520190899062005770565b5082546200057a906003830190859062005770565b5081546200058f906004830190849062005770565b5060018054808201825560408051808201909152600a815260036020808301919091526000805160206200720f83398151915290920180548085018255600082815293909320825160029094020180549194929390929091839160ff19909116908360168111156200060557620006056200583b565b0217905550602082015181600101555050806040518060400160405280600b60168111156200063857620006386200583b565b815260200160029052815460018181018455600093845260209093208251600290920201805492939092839160ff19909116908360168111156200068057620006806200583b565b0217905550602082015181600101555050806040518060400160405280600c6016811115620006b357620006b36200583b565b815260200160019052815460018181018455600093845260209093208251600290920201805492939092839160ff1990911690836016811115620006fb57620006fb6200583b565b02179055506020919091015160019182015560028054918201815560005262030d4360059091026000805160206200710f83398151915281019182556000805160206200716f8339815191528101805462ffffff1916905582546200077491600080516020620071af8339815191520190849062005770565b508854620007899060038301908b9062005770565b5088546200079e9060048301908b9062005770565b50600180548082018255604080518082019091526011815260056020808301919091526000805160206200720f83398151915290920180548085018255600082815293909320825160029094020180549194929390929091839160ff19909116908360168111156200081457620008146200583b565b02179055506020919091015160019182015560028054808301825560009190915262030d446000805160206200710f83398151915260059092029182019081556000805160206200716f8339815191528201805462ffffff191690931790925582546200089591600080516020620071af8339815191520190849062005770565b508a54620008aa9060038301908d9062005770565b508a54620008bf9060048301908d9062005770565b50600180548082018255604080518082019091526004815260208082018490526000805160206200720f83398151915290920180548085018255600082815293909320825160029094020180549194929390929091839160ff19909116908360168111156200093257620009326200583b565b02179055506020918201516001918201558054808201825560408051808201909152600481528084018390526000805160206200720f833981519152909101805480840182556000828152949094208251600290950201805491949293909291839160ff1990911690836016811115620009b057620009b06200583b565b021790555060208201518160010155505080604051806040016040528060036016811115620009e357620009e36200583b565b815260016020918201819052835480820185556000948552919093208251600290920201805492939092839160ff199091169083601681111562000a2b5762000a2b6200583b565b02179055506020919091015160019182015560028054918201815560005262030d4560059091026000805160206200710f83398151915281019182556000805160206200716f8339815191528101805462ffffff1916610100179055835462000aa891600080516020620071af8339815191520190859062005770565b50815462000abd906003830190849062005770565b508d8160040190805462000ad392919062005770565b5060018054808201825560408051808201909152600280825260208083018590526000805160206200720f8339815191529093018054808601825560008281529490942083519490920290910180549194929390929091839160ff199091169083601681111562000b485762000b486200583b565b02179055506020919091015160019182015560028054808301825560009190915262030d466000805160206200710f83398151915260059092029182019081556000805160206200716f8339815191528201805462ffffff1916909317909255825462000bc991600080516020620071af8339815191520190849062005770565b508f8160030190805462000bdf92919062005770565b508f8160040190805462000bf592919062005770565b5050505050505050505050505050505050565b6000600160008154811062000c215762000c2162005825565b6000918252602080832060018054808201825560408051808201909152600881528085018390526000805160206200720f83398151915290910180548084018255818852949096208151600290950201805495909301965093919291839160ff199091169083601681111562000c9b5762000c9b6200583b565b02179055506020919091015160019182015560028054918201815560005262030d4760059091026000805160206200710f83398151915281019182556000805160206200716f8339815191528101805462ffffff19169055825462000d1491600080516020620071af8339815191520190849062005770565b50825462000d29906003830190859062005770565b50825462000d3e906004830190859062005770565b50600180548082018255604080518082019091526015815260046020808301919091526000805160206200720f83398151915290920180548085018255600082815293909320825160029094020180549194929390929091839160ff199091169083601681111562000db45762000db46200583b565b02179055506020919091015160019182015560028054918201815560005262030d4860059091026000805160206200710f83398151915281019182556000805160206200716f8339815191528101805462ffffff19169055825462000e2d91600080516020620071af8339815191520190849062005770565b50845462000e42906003830190879062005770565b50845462000e57906004830190879062005770565b50600180548082018255604080518082019091526002808252600060208084018290526000805160206200720f833981519152909401805480870182558183529490912083519490920290910180549194929390929091839160ff199091169083601681111562000ecc5762000ecc6200583b565b02179055506020919091015160019182015560028054808301825560009190915262030d496000805160206200710f83398151915260059092029182019081556000805160206200716f8339815191528201805460ff1916909317909255825462000f4b91600080516020620071af8339815191520190849062005770565b5050505050505050565b600380546001808201909255600060059091026000805160206200714f833981519152018181558254808401845560408051808201909152600a815260208082018690526000805160206200720f83398151915290920180548087018255818652929094208151600290930201805493959193909291839160ff19169083601681111562000fe75762000fe76200583b565b0217905550602082015181600101555050806040518060400160405280600b60168111156200101a576200101a6200583b565b815260200160019052815460018181018455600093845260209093208251600290920201805492939092839160ff19909116908360168111156200106257620010626200583b565b0217905550602082015181600101555050806040518060400160405280600c60168111156200109557620010956200583b565b815260200160019052815460018181018455600093845260209093208251600290920201805492939092839160ff1990911690836016811115620010dd57620010dd6200583b565b021790555060209190910151600191820155600380549182018155600052620493e160059091026000805160206200714f83398151915281019182556000805160206200712f8339815191528101805460ff19169055825462001154916000805160206200718f8339815191520190849062005770565b50600180548082018255604080518082019091526009815260208082018490526000805160206200720f83398151915290920180548085018255600082815293909320825160029094020180549194929390929091839160ff1990911690836016811115620011c757620011c76200583b565b021790555060209190910151600191820155600380549182018155600052620493e260059091026000805160206200714f83398151915281019182556000805160206200712f8339815191528101805460ff1916905582546200123e916000805160206200718f8339815191520190849062005770565b50600180548082018255604080518082019091526014815260208082018490526000805160206200720f83398151915290920180548085018255600082815293909320825160029094020180549194929390929091839160ff1990911690836016811115620012b157620012b16200583b565b021790555060209190910151600191820155600380549182018155600052620493e360059091026000805160206200714f83398151915281019182556000805160206200712f8339815191528101805460ff19169055825462001328916000805160206200718f8339815191520190849062005770565b5060018054808201825560408051808201909152600f815260208082018490526000805160206200720f83398151915290920180548085018255600082815293909320825160029094020180549194929390929091839160ff19909116908360168111156200139b576200139b6200583b565b021790555060209190910151600191820155600380549182018155600052620493e460059091026000805160206200714f83398151915281019182556000805160206200712f8339815191528101805460ff19169055825462001412916000805160206200718f8339815191520190849062005770565b506001805480820182556040805180820190915260138152600060208083018290526000805160206200720f8339815191529093018054808601825581835293909120825160029094020180549194929390929091839160ff19909116908360168111156200148557620014856200583b565b021790555060208201518160010155505080604051806040016040528060136016811115620014b857620014b86200583b565b8152600060209182018190528354600181810186559482529190208251600290920201805492939092839160ff1990911690836016811115620014ff57620014ff6200583b565b021790555060209190910151600191820155600380549182018155600052620493e560059091026000805160206200714f83398151915281019182556000805160206200712f8339815191528101805460ff19169055825462001576916000805160206200718f8339815191520190849062005770565b5060018054808201825560408051808201909152600e8152600260208083018290526000805160206200720f8339815191529093018054808601825560008281529490942083519490920290910180549194929390929091839160ff1990911690836016811115620015ec57620015ec6200583b565b021790555060209190910151600191820155600380549182018155600052620493e660059091026000805160206200714f83398151915281019182556000805160206200712f8339815191528101805460ff19169055825462001663916000805160206200718f8339815191520190849062005770565b5060018054808201825560408051808201909152600a8152600260208083018290526000805160206200720f8339815191529093018054808601825560008281529490942083519490920290910180549194929390929091839160ff1990911690836016811115620016d957620016d96200583b565b0217905550602082015181600101555050806040518060400160405280600b60168111156200170c576200170c6200583b565b815260200160019052815460018181018455600093845260209093208251600290920201805492939092839160ff19909116908360168111156200175457620017546200583b565b0217905550602082015181600101555050806040518060400160405280600c60168111156200178757620017876200583b565b815260200160029052815460018181018455600093845260209093208251600290920201805492939092839160ff1990911690836016811115620017cf57620017cf6200583b565b021790555060209190910151600191820155600380549182018155600052620493e760059091026000805160206200714f833981519152810191825582546200182c916000805160206200718f8339815191520190849062005770565b5060018054808201825560408051808201909152600a815260208082018490526000805160206200720f83398151915290920180548085018255600082815293909320825160029094020180549194929390929091839160ff19909116908360168111156200189f576200189f6200583b565b0217905550602082015181600101555050806040518060400160405280600b6016811115620018d257620018d26200583b565b815260200160019052815460018181018455600093845260209093208251600290920201805492939092839160ff19909116908360168111156200191a576200191a6200583b565b0217905550602082015181600101555050806040518060400160405280600c60168111156200194d576200194d6200583b565b815260200160019052815460018181018455600093845260209093208251600290920201805492939092839160ff19909116908360168111156200199557620019956200583b565b021790555060209190910151600191820155600380549182018155600052620493e860059091026000805160206200714f83398151915281019182558254620019f2916000805160206200718f8339815191520190849062005770565b5060018054808201825560408051808201909152600e815260208082018490526000805160206200720f83398151915290920180548085018255600082815293909320825160029094020180549194929390929091839160ff199091169083601681111562001a655762001a656200583b565b021790555060209190910151600191820155600380549182018155600052620493e960059091026000805160206200714f8339815191528101918255825462001ac2916000805160206200718f8339815191520190849062005770565b50600180548082018255604080518082019091526008815260208082018490526000805160206200720f83398151915290920180548085018255600082815293909320825160029094020180549194929390929091839160ff199091169083601681111562001b355762001b356200583b565b02179055506020820151816001015550508060405180604001604052806004601681111562001b685762001b686200583b565b815260016020918201819052835480820185556000948552919093208251600290920201805492939092839160ff199091169083601681111562001bb05762001bb06200583b565b021790555060209190910151600191820155600380549182018155600052620493ea60059091026000805160206200714f8339815191528101918255825462001c0d916000805160206200718f8339815191520190849062005770565b5060018054808201825560408051808201909152600e815260208082018490526000805160206200720f83398151915290920180548085018255600082815293909320825160029094020180549194929390929091839160ff199091169083601681111562001c805762001c806200583b565b0217905550602082015181600101555050806040518060400160405280600a601681111562001cb35762001cb36200583b565b815260016020918201819052835480820185556000948552919093208251600290920201805492939092839160ff199091169083601681111562001cfb5762001cfb6200583b565b0217905550602082015181600101555050806040518060400160405280600b601681111562001d2e5762001d2e6200583b565b815260200160019052815460018181018455600093845260209093208251600290920201805492939092839160ff199091169083601681111562001d765762001d766200583b565b0217905550602082015181600101555050806040518060400160405280600c601681111562001da95762001da96200583b565b815260200160019052815460018181018455600093845260209093208251600290920201805492939092839160ff199091169083601681111562001df15762001df16200583b565b02179055506020918201516001918201558054808201825560408051808201909152600a81528084018390526000805160206200720f833981519152909101805480840182556000828152949094208251600290950201805491949293909291839160ff199091169083601681111562001e6f5762001e6f6200583b565b0217905550602082015181600101555050806040518060400160405280600b601681111562001ea25762001ea26200583b565b815260200160019052815460018181018455600093845260209093208251600290920201805492939092839160ff199091169083601681111562001eea5762001eea6200583b565b0217905550602082015181600101555050806040518060400160405280600c601681111562001f1d5762001f1d6200583b565b815260200160019052815460018181018455600093845260209093208251600290920201805492939092839160ff199091169083601681111562001f655762001f656200583b565b02179055506020918201516001918201558054808201825560408051808201909152600e81528084018390526000805160206200720f833981519152909101805480840182556000828152949094208251600290950201805491949293909291839160ff199091169083601681111562001fe35762001fe36200583b565b021790555060209190910151600191820155600380549182018155600052620493eb60059091026000805160206200714f83398151915281019182556000805160206200712f833981519152810180546206010062ffff0019909116179055845462002063916000805160206200718f8339815191520190869062005770565b50825462002078906003830190859062005770565b5081546200208d906004830190849062005770565b5060018054808201825560408051808201909152600a815260208082018490526000805160206200720f83398151915290920180548085018255600082815293909320825160029094020180549194929390929091839160ff19909116908360168111156200210057620021006200583b565b0217905550602082015181600101555050806040518060400160405280600b60168111156200213357620021336200583b565b815260200160019052815460018181018455600093845260209093208251600290920201805492939092839160ff19909116908360168111156200217b576200217b6200583b565b0217905550602082015181600101555050806040518060400160405280600c6016811115620021ae57620021ae6200583b565b815260200160029052815460018181018455600093845260209093208251600290920201805492939092839160ff1990911690836016811115620021f657620021f66200583b565b021790555060209190910151600191820155600380549182018155600052620493ec60059091026000805160206200714f8339815191528101918255825462002253916000805160206200718f8339815191520190849062005770565b5060018054808201825560408051808201909152600a815260208082018490526000805160206200720f83398151915290920180548085018255600082815293909320825160029094020180549194929390929091839160ff1990911690836016811115620022c657620022c66200583b565b0217905550602082015181600101555050806040518060400160405280600b6016811115620022f957620022f96200583b565b815260200160019052815460018181018455600093845260209093208251600290920201805492939092839160ff19909116908360168111156200234157620023416200583b565b0217905550602082015181600101555050806040518060400160405280600c60168111156200237457620023746200583b565b815260200160019052815460018181018455600093845260209093208251600290920201805492939092839160ff1990911690836016811115620023bc57620023bc6200583b565b021790555060209190910151600191820155600380549182018155600052620493ed60059091026000805160206200714f8339815191528101918255825462002419916000805160206200718f8339815191520190849062005770565b50600180548082018255604080518082019091526010815260208082018490526000805160206200720f83398151915290920180548085018255600082815293909320825160029094020180549194929390929091839160ff19909116908360168111156200248c576200248c6200583b565b0217905550602082015181600101555050806040518060400160405280600a6016811115620024bf57620024bf6200583b565b815260016020918201819052835480820185556000948552919093208251600290920201805492939092839160ff19909116908360168111156200250757620025076200583b565b0217905550602082015181600101555050806040518060400160405280600b60168111156200253a576200253a6200583b565b815260200160019052815460018181018455600093845260209093208251600290920201805492939092839160ff19909116908360168111156200258257620025826200583b565b0217905550602082015181600101555050806040518060400160405280600c6016811115620025b557620025b56200583b565b815260200160019052815460018181018455600093845260209093208251600290920201805492939092839160ff1990911690836016811115620025fd57620025fd6200583b565b021790555060209190910151600191820155600380549182018155600052620493ee60059091026000805160206200714f833981519152810191825582546200265a916000805160206200718f8339815191520190849062005770565b506001805480820182556040805180820190915260118152600260208083018290526000805160206200720f8339815191529093018054808601825560008281529490942083519490920290910180549194929390929091839160ff1990911690836016811115620026d057620026d06200583b565b0217905550602082015181600101555050806040518060400160405280600a60168111156200270357620027036200583b565b815260016020918201819052835480820185556000948552919093208251600290920201805492939092839160ff19909116908360168111156200274b576200274b6200583b565b0217905550602082015181600101555050806040518060400160405280600b60168111156200277e576200277e6200583b565b815260200160019052815460018181018455600093845260209093208251600290920201805492939092839160ff1990911690836016811115620027c657620027c66200583b565b0217905550602082015181600101555050806040518060400160405280600c6016811115620027f957620027f96200583b565b815260200160019052815460018181018455600093845260209093208251600290920201805492939092839160ff19909116908360168111156200284157620028416200583b565b021790555060209190910151600191820155600380549182018155600052620493ef60059091026000805160206200714f833981519152810191825582546200289e916000805160206200718f8339815191520190849062005770565b50505050505050505050505050505050505050505050505050505050505050505050565b600480546001808201909255600060059091026000805160206200724f8339815191520181815582548084018455604080518082019091526014815260208082018690526000805160206200720f83398151915290920180548087018255818652929094208151600290930201805493959193909291839160ff1916908360168111156200295457620029546200583b565b02179055506020919091015160019182015560048054918201815560005262061a8160059091026000805160206200724f83398151915281019182558254620029b191600080516020620071cf8339815191520190849062005770565b50600180548082018255604080518082019091526011815260046020808301919091526000805160206200720f83398151915290920180548085018255600082815293909320825160029094020180549194929390929091839160ff199091169083601681111562002a275762002a276200583b565b02179055506020919091015160019182015560048054918201815560005262061a8260059091026000805160206200724f8339815191528101918255825462002a8491600080516020620071cf8339815191520190849062005770565b50600180548082018255604080518082019091526014815260208082018490526000805160206200720f83398151915290920180548085018255600082815293909320825160029094020180549194929390929091839160ff199091169083601681111562002af75762002af76200583b565b02179055506020820151816001015550508060405180604001604052806002601681111562002b2a5762002b2a6200583b565b8152600060209182018190528354600181810186559482529190208251600290920201805492939092839160ff199091169083601681111562002b715762002b716200583b565b02179055506020918201516001918201558054808201825560408051808201909152601481528084018390526000805160206200720f833981519152909101805480840182556000828152949094208251600290950201805491949293909291839160ff199091169083601681111562002bef5762002bef6200583b565b02179055506020918201516001918201558054808201825560408051808201909152601481528084018390526000805160206200720f833981519152909101805480840182556000828152949094208251600290950201805491949293909291839160ff199091169083601681111562002c6d5762002c6d6200583b565b02179055506020820151816001015550508060405180604001604052806002601681111562002ca05762002ca06200583b565b815260016020918201819052835480820185556000948552919093208251600290920201805492939092839160ff199091169083601681111562002ce85762002ce86200583b565b02179055506020919091015160019182015560048054918201815560005262061a8360059091026000805160206200724f8339815191528101918255845462002d4591600080516020620071cf8339815191520190869062005770565b50825462002d5a906003830190859062005770565b50815462002d6f906004830190849062005770565b5060018054808201825560048054928301815560005262061a8460059092026000805160206200724f83398151915281019283556000805160206200720f833981519152909101805490929162002ddc91600080516020620071cf83398151915290910190849062005770565b50600180548082018255604080518082019091526009815260208082018490526000805160206200720f83398151915290920180548085018255600082815293909320825160029094020180549194929390929091839160ff199091169083601681111562002e4f5762002e4f6200583b565b02179055506020919091015160019182015560048054918201815560005262061a8560059091026000805160206200724f8339815191528101918255825462002eac91600080516020620071cf8339815191520190849062005770565b50600180548082018255604080518082019091526009815260208082018490526000805160206200720f83398151915290920180548085018255600082815293909320825160029094020180549194929390929091839160ff199091169083601681111562002f1f5762002f1f6200583b565b02179055506020919091015160019182015560048054918201815560005262061a8660059091026000805160206200724f8339815191528101918255825462002f7c91600080516020620071cf8339815191520190849062005770565b5060018054808201825560048054928301815560005262061a8760059092026000805160206200724f83398151915281019283556000805160206200720f833981519152909101805490929162002fe991600080516020620071cf83398151915290910190849062005770565b5060018054808201825560048054928301815560005262061a8860059092026000805160206200724f83398151915281019283556000805160206200720f83398151915290910180549092916200305691600080516020620071cf83398151915290910190849062005770565b5060018054808201825560048054928301815560005262061a8960059092026000805160206200724f83398151915281019283556000805160206200720f8339815191529091018054909291620030c391600080516020620071cf83398151915290910190849062005770565b506001805460028082018355604080518082019091526003815260208082018590526000805160206200726f83398151915284018054808701825560008281529290922083519290940290930180546000805160206200720f83398151915290950195939492939092839160ff19909116908360168111156200314a576200314a6200583b565b02179055506020919091015160019182015560048054918201815560005262061a8a60059091026000805160206200724f83398151915281019182557f8a35acfbc15ff81a39ae7d344fd709f28e8600b4aa8c65c6b64bfe7fe36bd19c8101805461ff0019166101001790558354620031d791600080516020620071cf8339815191520190859062005770565b508154620031ec906003830190849062005770565b506001805460038101825560048054928301815560005262061a8b6000805160206200724f83398151915260059093029283019081557f8a35acfbc15ff81a39ae7d344fd709f28e8600b4aa8c65c6b64bfe7fe36bd19c8301805462ffff001916620601001790556000805160206200720f8339815191528201805490936000805160206200726f8339815191528401937fb10e2d527612073b26eecdfd717e6a320cf44b4afac2b0732d9fcbe2b7fa0cf8019291620032c091600080516020620071cf8339815191520190869062005770565b508254620032d5906003830190859062005770565b508154620032ea906004830190849062005770565b50600180548082018255604080518082019091526012815260046020808301919091526000805160206200720f83398151915290920180548085018255600082815293909320825160029094020180549194929390929091839160ff19909116908360168111156200336057620033606200583b565b02179055506020919091015160019182015560048054918201815560005262061a8c60059091026000805160206200724f83398151915281019182558254620033bd91600080516020620071cf8339815191520190849062005770565b5060018054808201825560048054928301815560005262061a8d60059092026000805160206200724f83398151915281019283556000805160206200720f83398151915290910180549092916200342a91600080516020620071cf83398151915290910190849062005770565b5060018054808201825560048054928301815560005262061a8e60059092026000805160206200724f83398151915281019283556000805160206200720f83398151915290910180549092916200349791600080516020620071cf83398151915290910190849062005770565b5060018054808201825560408051808201909152600e815260208082018490526000805160206200720f83398151915290920180548085018255600082815293909320825160029094020180549194929390929091839160ff19909116908360168111156200350a576200350a6200583b565b0217905550602082015181600101555050806040518060400160405280600260168111156200353d576200353d6200583b565b8152600060209182018190528354600181810186559482529190208251600290920201805492939092839160ff19909116908360168111156200358457620035846200583b565b02179055506020919091015160019182015560048054918201815560005262061a8f60059091026000805160206200724f83398151915281019182558254620035e191600080516020620071cf8339815191520190849062005770565b50505050505050505050505050505050505050505050505050505050505050505050505050565b60058054600180820183556207a12091909202600080516020620070ef833981519152019081558154808301835560408051808201909152600e815260208082018590526000805160206200720f833981519152909201805480860182556000828152939093208251600290940201805494959194929390929091839160ff1916908360168111156200369f576200369f6200583b565b02179055506020919091015160019182015560058054918201815560008190526207a1219102600080516020620070ef83398151915281019182558254620036fb916000805160206200728f8339815191520190849062005770565b50600180548082018255604080518082019091526009815260208082018490526000805160206200720f83398151915290920180548085018255600082815293909320825160029094020180549194929390929091839160ff19909116908360168111156200376e576200376e6200583b565b0217905550602082015181600101555050806040518060400160405280600f6016811115620037a157620037a16200583b565b815260016020918201819052835480820185556000948552919093208251600290920201805492939092839160ff1990911690836016811115620037e957620037e96200583b565b02179055506020919091015160019182015560058054918201815560008190526207a1229102600080516020620070ef8339815191528101918255825462003845916000805160206200728f8339815191520190849062005770565b5060018054808201825560058054928301815560008190526207a1239202600080516020620070ef83398151915281019283556000805160206200720f8339815191529091018054909291620038b1916000805160206200728f83398151915290910190849062005770565b50600180548082018255604080518082019091526012815260046020808301919091526000805160206200720f83398151915290920180548085018255600082815293909320825160029094020180549194929390929091839160ff19909116908360168111156200392757620039276200583b565b02179055506020919091015160019182015560058054918201815560008190526207a1249102600080516020620070ef8339815191528101918255825462003983916000805160206200728f8339815191520190849062005770565b50600180548082018255604080518082019091526004815260208082018490526000805160206200720f83398151915290920180548085018255600082815293909320825160029094020180549194929390929091839160ff1990911690836016811115620039f657620039f66200583b565b02179055506020919091015160019182015560058054918201815560008190526207a1259102600080516020620070ef8339815191528101918255825462003a52916000805160206200728f8339815191520190849062005770565b5060018054808201825560408051808201909152600e8152600260208083018290526000805160206200720f8339815191529093018054808601825560008281529490942083519490920290910180549194929390929091839160ff199091169083601681111562003ac85762003ac86200583b565b02179055506020919091015160019182015560058054918201815560008190526207a1269102600080516020620070ef8339815191528101918255825462003b24916000805160206200728f8339815191520190849062005770565b5060018054808201825560408051808201909152600f815260208082018490526000805160206200720f83398151915290920180548085018255600082815293909320825160029094020180549194929390929091839160ff199091169083601681111562003b975762003b976200583b565b0217905550602082015181600101555050806040518060400160405280600e601681111562003bca5762003bca6200583b565b815260016020918201819052835480820185556000948552919093208251600290920201805492939092839160ff199091169083601681111562003c125762003c126200583b565b02179055506020919091015160019182015560058054918201815560008190526207a1279102600080516020620070ef8339815191528101918255825462003c6e916000805160206200728f8339815191520190849062005770565b5060018054808201825560058054928301815560008190526207a1289202600080516020620070ef83398151915281019283556000805160206200720f833981519152909101805490929162003cda916000805160206200728f83398151915290910190849062005770565b5060018054808201825560058054928301815560008190526207a1299202600080516020620070ef83398151915281019283556000805160206200720f833981519152909101805490929162003d46916000805160206200728f83398151915290910190849062005770565b5060018054808201825560058054928301815560008190526207a12a9202600080516020620070ef83398151915281019283556000805160206200720f833981519152909101805490929162003db2916000805160206200728f83398151915290910190849062005770565b50600180548082018255604080518082019091526009815260208082018490526000805160206200720f83398151915290920180548085018255600082815293909320825160029094020180549194929390929091839160ff199091169083601681111562003e255762003e256200583b565b0217905550602082015181600101555050806040518060400160405280600a601681111562003e585762003e586200583b565b815260016020918201819052835480820185556000948552919093208251600290920201805492939092839160ff199091169083601681111562003ea05762003ea06200583b565b0217905550602082015181600101555050806040518060400160405280600b601681111562003ed35762003ed36200583b565b815260200160029052815460018181018455600093845260209093208251600290920201805492939092839160ff199091169083601681111562003f1b5762003f1b6200583b565b0217905550602082015181600101555050806040518060400160405280600c601681111562003f4e5762003f4e6200583b565b815260200160019052815460018181018455600093845260209093208251600290920201805492939092839160ff199091169083601681111562003f965762003f966200583b565b02179055506020919091015160019182015560058054918201815560008190526207a12b9102600080516020620070ef8339815191528101918255825462003ff2916000805160206200728f8339815191520190849062005770565b5060018054808201825560408051808201909152600a8152600260208083018290526000805160206200720f8339815191529093018054808601825560008281529490942083519490920290910180549194929390929091839160ff19909116908360168111156200406857620040686200583b565b0217905550602082015181600101555050806040518060400160405280600b60168111156200409b576200409b6200583b565b815260200160029052815460018181018455600093845260209093208251600290920201805492939092839160ff1990911690836016811115620040e357620040e36200583b565b0217905550602082015181600101555050806040518060400160405280600c60168111156200411657620041166200583b565b815260200160019052815460018181018455600093845260209093208251600290920201805492939092839160ff19909116908360168111156200415e576200415e6200583b565b02179055506020919091015160019182015560058054918201815560008190526207a12c9102600080516020620070ef83398151915281019182558254620041ba916000805160206200728f8339815191520190849062005770565b5060018054808201825560408051808201909152600a815260208082018490526000805160206200720f83398151915290920180548085018255600082815293909320825160029094020180549194929390929091839160ff19909116908360168111156200422d576200422d6200583b565b0217905550602082015181600101555050806040518060400160405280600b60168111156200426057620042606200583b565b815260200160029052815460018181018455600093845260209093208251600290920201805492939092839160ff1990911690836016811115620042a857620042a86200583b565b0217905550602082015181600101555050806040518060400160405280600c6016811115620042db57620042db6200583b565b815260200160019052815460018181018455600093845260209093208251600290920201805492939092839160ff19909116908360168111156200432357620043236200583b565b02179055506020919091015160019182015560058054918201815560008190526207a12d9102600080516020620070ef833981519152810191825582546200437f916000805160206200728f8339815191520190849062005770565b5060018054808201825560408051808201909152600a815260208082018490526000805160206200720f83398151915290920180548085018255600082815293909320825160029094020180549194929390929091839160ff1990911690836016811115620043f257620043f26200583b565b0217905550602082015181600101555050806040518060400160405280600b60168111156200442557620044256200583b565b815260200160029052815460018181018455600093845260209093208251600290920201805492939092839160ff19909116908360168111156200446d576200446d6200583b565b0217905550602082015181600101555050806040518060400160405280600c6016811115620044a057620044a06200583b565b815260200160029052815460018181018455600093845260209093208251600290920201805492939092839160ff1990911690836016811115620044e857620044e86200583b565b02179055506020919091015160019182015560058054918201815560008190526207a12e9102600080516020620070ef8339815191528101918255825462004544916000805160206200728f8339815191520190849062005770565b5060018054808201825560408051808201909152600a815260208082018490526000805160206200720f83398151915290920180548085018255600082815293909320825160029094020180549194929390929091839160ff1990911690836016811115620045b757620045b76200583b565b0217905550602082015181600101555050806040518060400160405280600b6016811115620045ea57620045ea6200583b565b815260200160029052815460018181018455600093845260209093208251600290920201805492939092839160ff19909116908360168111156200463257620046326200583b565b0217905550602082015181600101555050806040518060400160405280600c60168111156200466557620046656200583b565b815260200160039052815460018181018455600093845260209093208251600290920201805492939092839160ff1990911690836016811115620046ad57620046ad6200583b565b02179055506020919091015160019182015560058054918201815560008190526207a12f9102600080516020620070ef8339815191528101918255825462004709916000805160206200728f8339815191520190849062005770565b5050505050505050505050505050505050505050505050505050505050505050565b6006805460018082018355620927c06000805160206200722f833981519152600593840281019182558254808401845585549384018655600095909552620927c1929093029283019182556000805160206200720f83398151915290930180549092620047ae91600080516020620071ef83398151915290910190849062005770565b5060018054808201825560408051808201909152600a815260208082018490526000805160206200720f83398151915290920180548085018255600082815293909320825160029094020180549194929390929091839160ff19909116908360168111156200482157620048216200583b565b0217905550602082015181600101555050806040518060400160405280600b60168111156200485457620048546200583b565b815260200160049052815460018181018455600093845260209093208251600290920201805492939092839160ff19909116908360168111156200489c576200489c6200583b565b0217905550602082015181600101555050806040518060400160405280600c6016811115620048cf57620048cf6200583b565b815260200160019052815460018181018455600093845260209093208251600290920201805492939092839160ff19909116908360168111156200491757620049176200583b565b021790555060209190910151600191820155600680549182018155600052620927c260059091026000805160206200722f833981519152810191825582546200497491600080516020620071ef8339815191520190849062005770565b50600180548082018255604080518082019091526015815260056020808301919091526000805160206200720f83398151915290920180548085018255600082815293909320825160029094020180549194929390929091839160ff1990911690836016811115620049ea57620049ea6200583b565b021790555060209190910151600191820155600680549182018155600052620927c360059091026000805160206200722f8339815191528101918255825462004a4791600080516020620071ef8339815191520190849062005770565b50600180548082018255604080518082019091526008815260208082018490526000805160206200720f83398151915290920180548085018255600082815293909320825160029094020180549194929390929091839160ff199091169083601681111562004aba5762004aba6200583b565b02179055506020820151816001015550508060405180604001604052806004601681111562004aed5762004aed6200583b565b815260016020918201819052835480820185556000948552919093208251600290920201805492939092839160ff199091169083601681111562004b355762004b356200583b565b021790555060209190910151600191820155600680549182018155600052620927c460059091026000805160206200722f8339815191528101918255825462004b9291600080516020620071ef8339815191520190849062005770565b50600180548082018255600680549283018155600052620927c560059092026000805160206200722f83398151915281019283556000805160206200720f833981519152909101805490929162004bff91600080516020620071ef83398151915290910190849062005770565b5060018054808201825560408051808201909152600e815260208082018490526000805160206200720f83398151915290920180548085018255600082815293909320825160029094020180549194929390929091839160ff199091169083601681111562004c725762004c726200583b565b021790555060209190910151600191820155600680549182018155600052620927c660059091026000805160206200722f8339815191528101918255825462004ccf91600080516020620071ef8339815191520190849062005770565b5060018054808201825560408051808201909152600280825260208083018590526000805160206200720f8339815191529093018054808601825560008281529490942083519490920290910180549194929390929091839160ff199091169083601681111562004d445762004d446200583b565b021790555060209190910151600191820155600680549182018155600052620927c760059091026000805160206200722f8339815191528101918255825462004da191600080516020620071ef8339815191520190849062005770565b50600180546002808201835560408051808201909152600a815260208082018590526000805160206200726f83398151915284018054808701825560008281529290922083519290940290930180546000805160206200720f83398151915290950195939492939092839160ff199091169083601681111562004e285762004e286200583b565b0217905550602082015181600101555050806040518060400160405280600b601681111562004e5b5762004e5b6200583b565b815260200160039052815460018181018455600093845260209093208251600290920201805492939092839160ff199091169083601681111562004ea35762004ea36200583b565b0217905550602082015181600101555050806040518060400160405280600c601681111562004ed65762004ed66200583b565b815260200160019052815460018181018455600093845260209093208251600290920201805492939092839160ff199091169083601681111562004f1e5762004f1e6200583b565b02179055506020918201516001918201558054808201825560408051808201909152600d815260028185018190526000805160206200720f833981519152909201805480850182556000828152959095208251959093029092018054929491939092839160ff199091169083601681111562004f9e5762004f9e6200583b565b02179055506020919091015160019182015560068054918201815560005261ea6860059091026000805160206200722f8339815191528101918255845462004ffa91600080516020620071ef8339815191520190869062005770565b5082546200500f906003830190859062005770565b50815462005024906004830190849062005770565b50600180548082018255604080518082019091526008815260208082018490526000805160206200720f83398151915290920180548085018255600082815293909320825160029094020180549194929390929091839160ff19909116908360168111156200509757620050976200583b565b021790555060209190910151600191820155600680549182018155600052620927c960059091026000805160206200722f83398151915281019182558254620050f491600080516020620071ef8339815191520190849062005770565b5060018054808201825560408051808201909152600e815260208082018490526000805160206200720f83398151915290920180548085018255600082815293909320825160029094020180549194929390929091839160ff19909116908360168111156200516757620051676200583b565b021790555060209190910151600191820155600680549182018155600052620927ca60059091026000805160206200722f83398151915281019182558254620051c491600080516020620071ef8339815191520190849062005770565b50600180548082018255600680549283018155600052620927cb60059092026000805160206200722f83398151915281019283556000805160206200720f83398151915290910180549092916200523191600080516020620071ef83398151915290910190849062005770565b50600180548082018255604080518082019091526008815260208082018490526000805160206200720f83398151915290920180548085018255600082815293909320825160029094020180549194929390929091839160ff1990911690836016811115620052a457620052a46200583b565b021790555060208201518160010155505080604051806040016040528060046016811115620052d757620052d76200583b565b815260016020918201819052835480820185556000948552919093208251600290920201805492939092839160ff19909116908360168111156200531f576200531f6200583b565b021790555060209190910151600191820155600680549182018155600052620927cc60059091026000805160206200722f833981519152810191825582546200537c91600080516020620071ef8339815191520190849062005770565b50600180548082018255600680549283018155600052620927cd60059092026000805160206200722f83398151915281019283556000805160206200720f8339815191529091018054909291620053e991600080516020620071ef83398151915290910190849062005770565b5060018054808201825560408051808201909152600a815260208082018490526000805160206200720f83398151915290920180548085018255600082815293909320825160029094020180549194929390929091839160ff19909116908360168111156200545c576200545c6200583b565b0217905550602082015181600101555050806040518060400160405280600b60168111156200548f576200548f6200583b565b815260200160039052815460018181018455600093845260209093208251600290920201805492939092839160ff1990911690836016811115620054d757620054d76200583b565b0217905550602082015181600101555050806040518060400160405280600c60168111156200550a576200550a6200583b565b815260200160019052815460018181018455600093845260209093208251600290920201805492939092839160ff19909116908360168111156200555257620055526200583b565b021790555060209190910151600191820155600680549182018155600052620927ce60059091026000805160206200722f83398151915281019182558254620055af91600080516020620071ef8339815191520190849062005770565b5060018054808201825560408051808201909152600a815260208082018490526000805160206200720f83398151915290920180548085018255600082815293909320825160029094020180549194929390929091839160ff19909116908360168111156200562257620056226200583b565b0217905550602082015181600101555050806040518060400160405280600b60168111156200565557620056556200583b565b815260200160049052815460018181018455600093845260209093208251600290920201805492939092839160ff19909116908360168111156200569d576200569d6200583b565b0217905550602082015181600101555050806040518060400160405280600c6016811115620056d057620056d06200583b565b815260200160019052815460018181018455600093845260209093208251600290920201805492939092839160ff19909116908360168111156200571857620057186200583b565b021790555060209190910151600191820155600680549182018155600052620927cf60059091026000805160206200722f833981519152810191825582546200289e91600080516020620071ef833981519152019084905b828054828255906000526020600020906002028101928215620057f15760005260206000209160020282015b82811115620057f157825482548491849160ff90911690829060ff19166001836016811115620057d057620057d06200583b565b0217905550600182015481600101555050916002019190600201906200579c565b50620057ff92915062005803565b5090565b5b80821115620057ff57805460ff191681556000600182015560020162005804565b634e487b7160e01b600052603260045260246000fd5b634e487b7160e01b600052602160045260246000fd5b61188e80620058616000396000f3fe608060405234801561001057600080fd5b50600436106100b45760003560e01c80638da5cb5b116100715780638da5cb5b14610150578063c82c37b91461016b578063d9dcaa4c1461018b578063e4dc1a83146101ab578063f2fde38b146101be578063f6467e23146101d157600080fd5b806301894acb146100b957806345412253146100fa578063497ae0661461010d578063715018a61461012057806373e1c9441461012a5780637a315cc01461013d575b600080fd5b6100cc6100c736600461157c565b6101f2565b60408051948552921515602085015260ff918216928401929092521660608201526080015b60405180910390f35b6100cc61010836600461157c565b610236565b6100cc61011b36600461157c565b610246565b610128610256565b005b6100cc61013836600461157c565b61026a565b6100cc61014b36600461157c565b61027a565b6000546040516001600160a01b0390911681526020016100f1565b61017e61017936600461157c565b61028a565b6040516100f1919061161a565b61019e6101993660046116c8565b6104b2565b6040516100f191906116f2565b61017e6101b9366004611754565b61082a565b6101286101cc366004611780565b61135e565b6101e46101df3660046117b0565b6113d7565b6040516100f19291906117d2565b6005818154811061020257600080fd5b60009182526020909120600590910201805460019091015490915060ff808216916101008104821691620100009091041684565b6002818154811061020257600080fd5b6004818154811061020257600080fd5b61025e611423565b610268600061147d565b565b6006818154811061020257600080fd5b6003818154811061020257600080fd5b610292611537565b600282815481106102a5576102a56117ed565b600091825260208083206040805160e081018252600590940290910180548452600181015460ff8082161515868601526101008204811686850152620100009091041660608501526002810180548351818602810186019094528084529495919460808701949192909184015b8282101561037a5760008481526020902060408051808201909152600284029091018054829060ff16601681111561034c5761034c611595565b601681111561035d5761035d611595565b815260200160018201548152505081526020019060010190610312565b50505050815260200160038201805480602002602001604051908101604052809291908181526020016000905b8282101561040f5760008481526020902060408051808201909152600284029091018054829060ff1660168111156103e1576103e1611595565b60168111156103f2576103f2611595565b8152602001600182015481525050815260200190600101906103a7565b50505050815260200160048201805480602002602001604051908101604052809291908181526020016000905b828210156104a45760008481526020902060408051808201909152600284029091018054829060ff16601681111561047657610476611595565b601681111561048757610487611595565b81526020016001820154815250508152602001906001019061043c565b505050915250909392505050565b6040805160038082526080820190925260609160009190816020015b60608152602001906001900390816104ce579050509050600060058560058111156104fb576104fb611595565b036105285760028481548110610513576105136117ed565b90600052602060002090600502019050610616565b600185600581111561053c5761053c611595565b036105545760038481548110610513576105136117ed565b600285600581111561056857610568611595565b036105805760048481548110610513576105136117ed565b600385600581111561059457610594611595565b036105ac5760058481548110610513576105136117ed565b60048560058111156105c0576105c0611595565b036105d85760068481548110610513576105136117ed565b60405162461bcd60e51b815260206004820152600e60248201526d426164206576656e74207479706560901b60448201526064015b60405180910390fd5b80600201805480602002602001604051908101604052809291908181526020016000905b828210156106a25760008481526020902060408051808201909152600284029091018054829060ff16601681111561067457610674611595565b601681111561068557610685611595565b81526020016001820154815250508152602001906001019061063a565b50505050826000815181106106b9576106b96117ed565b602002602001018190525080600301805480602002602001604051908101604052809291908181526020016000905b828210156107505760008481526020902060408051808201909152600284029091018054829060ff16601681111561072257610722611595565b601681111561073357610733611595565b8152602001600182015481525050815260200190600101906106e8565b5050505082600181518110610767576107676117ed565b602002602001018190525080600401805480602002602001604051908101604052809291908181526020016000905b828210156107fe5760008481526020902060408051808201909152600284029091018054829060ff1660168111156107d0576107d0611595565b60168111156107e1576107e1611595565b815260200160018201548152505081526020019060010190610796565b5050505082600281518110610815576108156117ed565b60209081029190910101525090505b92915050565b610832611537565b600182600581111561084657610846611595565b03610a6c576003838154811061085e5761085e6117ed565b600091825260208083206040805160e081018252600590940290910180548452600181015460ff8082161515868601526101008204811686850152620100009091041660608501526002810180548351818602810186019094528084529495919460808701949192909184015b828210156109335760008481526020902060408051808201909152600284029091018054829060ff16601681111561090557610905611595565b601681111561091657610916611595565b8152602001600182015481525050815260200190600101906108cb565b50505050815260200160038201805480602002602001604051908101604052809291908181526020016000905b828210156109c85760008481526020902060408051808201909152600284029091018054829060ff16601681111561099a5761099a611595565b60168111156109ab576109ab611595565b815260200160018201548152505081526020019060010190610960565b50505050815260200160048201805480602002602001604051908101604052809291908181526020016000905b82821015610a5d5760008481526020902060408051808201909152600284029091018054829060ff166016811115610a2f57610a2f611595565b6016811115610a4057610a40611595565b8152602001600182015481525050815260200190600101906109f5565b50505050815250509050610824565b6002826005811115610a8057610a80611595565b03610c975760048381548110610a9857610a986117ed565b600091825260208083206040805160e081018252600590940290910180548452600181015460ff8082161515868601526101008204811686850152620100009091041660608501526002810180548351818602810186019094528084529495919460808701949192909184015b82821015610b6d5760008481526020902060408051808201909152600284029091018054829060ff166016811115610b3f57610b3f611595565b6016811115610b5057610b50611595565b815260200160018201548152505081526020019060010190610b05565b50505050815260200160038201805480602002602001604051908101604052809291908181526020016000905b82821015610c025760008481526020902060408051808201909152600284029091018054829060ff166016811115610bd457610bd4611595565b6016811115610be557610be5611595565b815260200160018201548152505081526020019060010190610b9a565b50505050815260200160048201805480602002602001604051908101604052809291908181526020016000905b82821015610a5d5760008481526020902060408051808201909152600284029091018054829060ff166016811115610c6957610c69611595565b6016811115610c7a57610c7a611595565b815260200160018201548152505081526020019060010190610c2f565b6003826005811115610cab57610cab611595565b03610ec25760058381548110610cc357610cc36117ed565b600091825260208083206040805160e081018252600590940290910180548452600181015460ff8082161515868601526101008204811686850152620100009091041660608501526002810180548351818602810186019094528084529495919460808701949192909184015b82821015610d985760008481526020902060408051808201909152600284029091018054829060ff166016811115610d6a57610d6a611595565b6016811115610d7b57610d7b611595565b815260200160018201548152505081526020019060010190610d30565b50505050815260200160038201805480602002602001604051908101604052809291908181526020016000905b82821015610e2d5760008481526020902060408051808201909152600284029091018054829060ff166016811115610dff57610dff611595565b6016811115610e1057610e10611595565b815260200160018201548152505081526020019060010190610dc5565b50505050815260200160048201805480602002602001604051908101604052809291908181526020016000905b82821015610a5d5760008481526020902060408051808201909152600284029091018054829060ff166016811115610e9457610e94611595565b6016811115610ea557610ea5611595565b815260200160018201548152505081526020019060010190610e5a565b6004826005811115610ed657610ed6611595565b036110ed5760068381548110610eee57610eee6117ed565b600091825260208083206040805160e081018252600590940290910180548452600181015460ff8082161515868601526101008204811686850152620100009091041660608501526002810180548351818602810186019094528084529495919460808701949192909184015b82821015610fc35760008481526020902060408051808201909152600284029091018054829060ff166016811115610f9557610f95611595565b6016811115610fa657610fa6611595565b815260200160018201548152505081526020019060010190610f5b565b50505050815260200160038201805480602002602001604051908101604052809291908181526020016000905b828210156110585760008481526020902060408051808201909152600284029091018054829060ff16601681111561102a5761102a611595565b601681111561103b5761103b611595565b815260200160018201548152505081526020019060010190610ff0565b50505050815260200160048201805480602002602001604051908101604052809291908181526020016000905b82821015610a5d5760008481526020902060408051808201909152600284029091018054829060ff1660168111156110bf576110bf611595565b60168111156110d0576110d0611595565b815260200160018201548152505081526020019060010190611085565b600082600581111561110157611101611595565b0361131957600360008154811061111a5761111a6117ed565b600091825260208083206040805160e081018252600590940290910180548452600181015460ff8082161515868601526101008204811686850152620100009091041660608501526002810180548351818602810186019094528084529495919460808701949192909184015b828210156111ef5760008481526020902060408051808201909152600284029091018054829060ff1660168111156111c1576111c1611595565b60168111156111d2576111d2611595565b815260200160018201548152505081526020019060010190611187565b50505050815260200160038201805480602002602001604051908101604052809291908181526020016000905b828210156112845760008481526020902060408051808201909152600284029091018054829060ff16601681111561125657611256611595565b601681111561126757611267611595565b81526020016001820154815250508152602001906001019061121c565b50505050815260200160048201805480602002602001604051908101604052809291908181526020016000905b82821015610a5d5760008481526020902060408051808201909152600284029091018054829060ff1660168111156112eb576112eb611595565b60168111156112fc576112fc611595565b8152602001600182015481525050815260200190600101906112b1565b6105d8604051806040016040528060128152602001712130b21022bb32b73a1037b3103a3cb8329d60711b81525083600581111561135957611359611595565b6114cd565b611366611423565b6001600160a01b0381166113cb5760405162461bcd60e51b815260206004820152602660248201527f4f776e61626c653a206e6577206f776e657220697320746865207a65726f206160448201526564647265737360d01b606482015260840161060d565b6113d48161147d565b50565b600182815481106113e757600080fd5b9060005260206000200181815481106113ff57600080fd5b60009182526020909120600290910201805460019091015460ff9091169250905082565b6000546001600160a01b031633146102685760405162461bcd60e51b815260206004820181905260248201527f4f776e61626c653a2063616c6c6572206973206e6f7420746865206f776e6572604482015260640161060d565b600080546001600160a01b038381166001600160a01b0319831681178455604051919092169283917f8be0079c531659141344cd1fd0a4f28419497f9722a3daafe3b4186f6b6457e09190a35050565b61151282826040516024016114e3929190611803565b60408051601f198184030181529190526020810180516001600160e01b0316632d839cb360e21b179052611516565b5050565b80516a636f6e736f6c652e6c6f67602083016000808483855afa5050505050565b6040518060e0016040528060008152602001600015158152602001600060ff168152602001600060ff1681526020016060815260200160608152602001606081525090565b60006020828403121561158e57600080fd5b5035919050565b634e487b7160e01b600052602160045260246000fd5b601781106115c957634e487b7160e01b600052602160045260246000fd5b9052565b600081518084526020808501945080840160005b8381101561160f5781516115f68882516115ab565b83015187840152604090960195908201906001016115e1565b509495945050505050565b602081528151602082015260208201511515604082015260ff604083015116606082015260006060830151611654608084018260ff169052565b50608083015160e060a084015261166f6101008401826115cd565b905060a0840151601f19808584030160c086015261168d83836115cd565b925060c08601519150808584030160e0860152506116ab82826115cd565b95945050505050565b8035600681106116c357600080fd5b919050565b600080604083850312156116db57600080fd5b6116e4836116b4565b946020939093013593505050565b6000602080830181845280855180835260408601915060408160051b870101925083870160005b8281101561174757603f198886030184526117358583516115cd565b94509285019290850190600101611719565b5092979650505050505050565b6000806040838503121561176757600080fd5b82359150611777602084016116b4565b90509250929050565b60006020828403121561179257600080fd5b81356001600160a01b03811681146117a957600080fd5b9392505050565b600080604083850312156117c357600080fd5b50508035926020909101359150565b604081016117e082856115ab565b8260208301529392505050565b634e487b7160e01b600052603260045260246000fd5b604081526000835180604084015260005b818110156118315760208187018101516060868401015201611814565b506000606082850101526060601f19601f830116840101915050826020830152939250505056fea2646970667358221220982238b3ae8981fb457394a40925b042bcfb5d66a61e46831ff5de0b5e8ad1ab64736f6c63430008110033036b6384b5eca791c62761152d0c79bb0604c104a5fb6f4eb0703f3154bb3db0405787fa12a823e0f2b7631cc41b3ba8828b3321ca811111fa75cd3aa3bb5acec2575a0e9e593c00f959f8c92f12db2869c3395a3b0502d05e2516446f71f85cc2575a0e9e593c00f959f8c92f12db2869c3395a3b0502d05e2516446f71f85b405787fa12a823e0f2b7631cc41b3ba8828b3321ca811111fa75cd3aa3bb5acfc2575a0e9e593c00f959f8c92f12db2869c3395a3b0502d05e2516446f71f85d405787fa12a823e0f2b7631cc41b3ba8828b3321ca811111fa75cd3aa3bb5ad08a35acfbc15ff81a39ae7d344fd709f28e8600b4aa8c65c6b64bfe7fe36bd19df652222313e28459528d920b65115c16c04f3efc82aaedc97be59f3f377c0d41b10e2d527612073b26eecdfd717e6a320cf44b4afac2b0732d9fcbe2b7fa0cf6f652222313e28459528d920b65115c16c04f3efc82aaedc97be59f3f377c0d3f8a35acfbc15ff81a39ae7d344fd709f28e8600b4aa8c65c6b64bfe7fe36bd19bb10e2d527612073b26eecdfd717e6a320cf44b4afac2b0732d9fcbe2b7fa0cf7036b6384b5eca791c62761152d0c79bb0604c104a5fb6f4eb0703f3154bb3db2",
  "devdoc": {
    "kind": "dev",
    "methods": {
      "owner()": {
        "details": "Returns the address of the current owner."
      },
      "renounceOwnership()": {
        "details": "Leaves the contract without owner. It will not be possible to call `onlyOwner` functions anymore. Can only be called by the current owner. NOTE: Renouncing ownership will leave the contract without an owner, thereby removing any functionality that is only available to the owner."
      },
      "transferOwnership(address)": {
        "details": "Transfers ownership of the contract to a new account (`newOwner`). Can only be called by the current owner."
      }
    },
    "version": 1
  },
  "userdoc": {
    "kind": "user",
    "methods": {},
    "version": 1
  },
  "storageLayout": {
    "storage": [
      {
        "astId": 7,
        "contract": "contracts/BCEvents.sol:BCEvents",
        "label": "_owner",
        "offset": 0,
        "slot": "0",
        "type": "t_address"
      },
      {
        "astId": 5728,
        "contract": "contracts/BCEvents.sol:BCEvents",
        "label": "effectsList",
        "offset": 0,
        "slot": "1",
        "type": "t_array(t_array(t_struct(Effect)5702_storage)dyn_storage)dyn_storage"
      },
      {
        "astId": 5732,
        "contract": "contracts/BCEvents.sol:BCEvents",
        "label": "bcRoomEvents",
        "offset": 0,
        "slot": "2",
        "type": "t_array(t_struct(BCEvent)5723_storage)dyn_storage"
      },
      {
        "astId": 5736,
        "contract": "contracts/BCEvents.sol:BCEvents",
        "label": "bcBugCardEvents",
        "offset": 0,
        "slot": "3",
        "type": "t_array(t_struct(BCEvent)5723_storage)dyn_storage"
      },
      {
        "astId": 5740,
        "contract": "contracts/BCEvents.sol:BCEvents",
        "label": "bcMysteryCardEvents",
        "offset": 0,
        "slot": "4",
        "type": "t_array(t_struct(BCEvent)5723_storage)dyn_storage"
      },
      {
        "astId": 5744,
        "contract": "contracts/BCEvents.sol:BCEvents",
        "label": "bcScavCardEvents",
        "offset": 0,
        "slot": "5",
        "type": "t_array(t_struct(BCEvent)5723_storage)dyn_storage"
      },
      {
        "astId": 5748,
        "contract": "contracts/BCEvents.sol:BCEvents",
        "label": "bcShipCardEvents",
        "offset": 0,
        "slot": "6",
        "type": "t_array(t_struct(BCEvent)5723_storage)dyn_storage"
      }
    ],
    "types": {
      "t_address": {
        "encoding": "inplace",
        "label": "address",
        "numberOfBytes": "20"
      },
      "t_array(t_array(t_struct(Effect)5702_storage)dyn_storage)dyn_storage": {
        "base": "t_array(t_struct(Effect)5702_storage)dyn_storage",
        "encoding": "dynamic_array",
        "label": "struct BCEvents.Effect[][]",
        "numberOfBytes": "32"
      },
      "t_array(t_struct(BCEvent)5723_storage)dyn_storage": {
        "base": "t_struct(BCEvent)5723_storage",
        "encoding": "dynamic_array",
        "label": "struct BCEvents.BCEvent[]",
        "numberOfBytes": "32"
      },
      "t_array(t_struct(Effect)5702_storage)dyn_storage": {
        "base": "t_struct(Effect)5702_storage",
        "encoding": "dynamic_array",
        "label": "struct BCEvents.Effect[]",
        "numberOfBytes": "32"
      },
      "t_bool": {
        "encoding": "inplace",
        "label": "bool",
        "numberOfBytes": "1"
      },
      "t_enum(EffectTypes)5696": {
        "encoding": "inplace",
        "label": "enum BCEvents.EffectTypes",
        "numberOfBytes": "1"
      },
      "t_struct(BCEvent)5723_storage": {
        "encoding": "inplace",
        "label": "struct BCEvents.BCEvent",
        "members": [
          {
            "astId": 5704,
            "contract": "contracts/BCEvents.sol:BCEvents",
            "label": "id",
            "offset": 0,
            "slot": "0",
            "type": "t_uint256"
          },
          {
            "astId": 5706,
            "contract": "contracts/BCEvents.sol:BCEvents",
            "label": "permanent",
            "offset": 0,
            "slot": "1",
            "type": "t_bool"
          },
          {
            "astId": 5708,
            "contract": "contracts/BCEvents.sol:BCEvents",
            "label": "rollForLow",
            "offset": 1,
            "slot": "1",
            "type": "t_uint8"
          },
          {
            "astId": 5710,
            "contract": "contracts/BCEvents.sol:BCEvents",
            "label": "rollForHigh",
            "offset": 2,
            "slot": "1",
            "type": "t_uint8"
          },
          {
            "astId": 5714,
            "contract": "contracts/BCEvents.sol:BCEvents",
            "label": "defaultEffect",
            "offset": 0,
            "slot": "2",
            "type": "t_array(t_struct(Effect)5702_storage)dyn_storage"
          },
          {
            "astId": 5718,
            "contract": "contracts/BCEvents.sol:BCEvents",
            "label": "lowEffect",
            "offset": 0,
            "slot": "3",
            "type": "t_array(t_struct(Effect)5702_storage)dyn_storage"
          },
          {
            "astId": 5722,
            "contract": "contracts/BCEvents.sol:BCEvents",
            "label": "highEffect",
            "offset": 0,
            "slot": "4",
            "type": "t_array(t_struct(Effect)5702_storage)dyn_storage"
          }
        ],
        "numberOfBytes": "160"
      },
      "t_struct(Effect)5702_storage": {
        "encoding": "inplace",
        "label": "struct BCEvents.Effect",
        "members": [
          {
            "astId": 5699,
            "contract": "contracts/BCEvents.sol:BCEvents",
            "label": "effect",
            "offset": 0,
            "slot": "0",
            "type": "t_enum(EffectTypes)5696"
          },
          {
            "astId": 5701,
            "contract": "contracts/BCEvents.sol:BCEvents",
            "label": "value",
            "offset": 0,
            "slot": "1",
            "type": "t_uint256"
          }
        ],
        "numberOfBytes": "64"
      },
      "t_uint256": {
        "encoding": "inplace",
        "label": "uint256",
        "numberOfBytes": "32"
      },
      "t_uint8": {
        "encoding": "inplace",
        "label": "uint8",
        "numberOfBytes": "1"
      }
    }
  }
}