{
  "address": "0x0edF69693e3b73F5a1DCAFe1eC23e15A89259a46",
  "abi": [
    {
      "anonymous": false,
      "inputs": [
        {
          "indexed": false,
          "internalType": "uint256",
          "name": "currentPlayerTurnIndex",
          "type": "uint256"
        },
        {
          "components": [
            {
              "internalType": "address",
              "name": "owner",
              "type": "address"
            },
            {
              "internalType": "address",
              "name": "charContractAddress",
              "type": "address"
            },
            {
              "internalType": "uint256",
              "name": "characterId",
              "type": "uint256"
            },
            {
              "components": [
                {
                  "internalType": "uint8",
                  "name": "row",
                  "type": "uint8"
                },
                {
                  "internalType": "uint8",
                  "name": "col",
                  "type": "uint8"
                }
              ],
              "internalType": "struct BCTypes.Position",
              "name": "position",
              "type": "tuple"
            },
            {
              "internalType": "uint8",
              "name": "healthDmgTaken",
              "type": "uint8"
            },
            {
              "internalType": "uint8",
              "name": "armorDmgTaken",
              "type": "uint8"
            },
            {
              "internalType": "uint8",
              "name": "actionsTaken",
              "type": "uint8"
            },
            {
              "internalType": "uint8",
              "name": "dataTokens",
              "type": "uint8"
            },
            {
              "internalType": "uint8[]",
              "name": "currentEffects",
              "type": "uint8[]"
            },
            {
              "internalType": "uint8[]",
              "name": "inventoryIDs",
              "type": "uint8[]"
            },
            {
              "internalType": "bool",
              "name": "canHarmOthers",
              "type": "bool"
            },
            {
              "internalType": "bool",
              "name": "dead",
              "type": "bool"
            }
          ],
          "indexed": false,
          "internalType": "struct BCTypes.Player",
          "name": "player",
          "type": "tuple"
        },
        {
          "indexed": false,
          "internalType": "enum BCTypes.Action",
          "name": "action",
          "type": "uint8"
        }
      ],
      "name": "ActionCompleteEvent",
      "type": "event"
    },
    {
      "anonymous": false,
      "inputs": [
        {
          "indexed": false,
          "internalType": "uint256",
          "name": "roll",
          "type": "uint256"
        },
        {
          "indexed": false,
          "internalType": "uint256",
          "name": "forValue",
          "type": "uint256"
        },
        {
          "indexed": false,
          "internalType": "uint256",
          "name": "against",
          "type": "uint256"
        }
      ],
      "name": "DiceRollEvent",
      "type": "event"
    },
    {
      "anonymous": false,
      "inputs": [
        {
          "indexed": true,
          "internalType": "address",
          "name": "previousOwner",
          "type": "address"
        },
        {
          "indexed": true,
          "internalType": "address",
          "name": "newOwner",
          "type": "address"
        }
      ],
      "name": "OwnershipTransferred",
      "type": "event"
    },
    {
      "anonymous": false,
      "inputs": [],
      "name": "Received",
      "type": "event"
    },
    {
      "inputs": [
        {
          "internalType": "address",
          "name": "_charContractAddress",
          "type": "address"
        },
        {
          "internalType": "uint256",
          "name": "_charId",
          "type": "uint256"
        },
        {
          "internalType": "address",
          "name": "_owner",
          "type": "address"
        }
      ],
      "name": "addPlayer",
      "outputs": [
        {
          "internalType": "uint256",
          "name": "",
          "type": "uint256"
        }
      ],
      "stateMutability": "nonpayable",
      "type": "function"
    },
    {
      "inputs": [
        {
          "internalType": "address",
          "name": "",
          "type": "address"
        },
        {
          "internalType": "uint256",
          "name": "",
          "type": "uint256"
        }
      ],
      "name": "addressToGame",
      "outputs": [
        {
          "internalType": "uint256",
          "name": "",
          "type": "uint256"
        }
      ],
      "stateMutability": "view",
      "type": "function"
    },
    {
      "inputs": [],
      "name": "chars",
      "outputs": [
        {
          "internalType": "contract CharInterface",
          "name": "",
          "type": "address"
        }
      ],
      "stateMutability": "view",
      "type": "function"
    },
    {
      "inputs": [
        {
          "internalType": "uint256",
          "name": "_playerId",
          "type": "uint256"
        }
      ],
      "name": "debugReturnChar",
      "outputs": [],
      "stateMutability": "nonpayable",
      "type": "function"
    },
    {
      "inputs": [
        {
          "internalType": "uint256",
          "name": "_gameId",
          "type": "uint256"
        },
        {
          "internalType": "uint256",
          "name": "_playerId",
          "type": "uint256"
        },
        {
          "internalType": "enum BCTypes.Action",
          "name": "_action",
          "type": "uint8"
        },
        {
          "internalType": "enum BCTypes.Followthrough",
          "name": "_followthrough",
          "type": "uint8"
        },
        {
          "internalType": "uint256",
          "name": "_1stDirection",
          "type": "uint256"
        },
        {
          "internalType": "uint256",
          "name": "_2ndDirection",
          "type": "uint256"
        }
      ],
      "name": "doAction",
      "outputs": [],
      "stateMutability": "nonpayable",
      "type": "function"
    },
    {
      "inputs": [
        {
          "internalType": "uint256",
          "name": "_gameId",
          "type": "uint256"
        }
      ],
      "name": "extGetGamePlayerIndexes",
      "outputs": [
        {
          "internalType": "uint256[]",
          "name": "",
          "type": "uint256[]"
        }
      ],
      "stateMutability": "view",
      "type": "function"
    },
    {
      "inputs": [
        {
          "internalType": "uint256",
          "name": "",
          "type": "uint256"
        }
      ],
      "name": "games",
      "outputs": [
        {
          "internalType": "bool",
          "name": "active",
          "type": "bool"
        },
        {
          "internalType": "uint256",
          "name": "currentPlayerTurnIndex",
          "type": "uint256"
        },
        {
          "internalType": "uint256",
          "name": "numPlayers",
          "type": "uint256"
        },
        {
          "internalType": "uint256",
          "name": "turnsTaken",
          "type": "uint256"
        },
        {
          "components": [
            {
              "internalType": "uint8",
              "name": "bugEvents",
              "type": "uint8"
            },
            {
              "internalType": "uint8",
              "name": "mysteryEvents",
              "type": "uint8"
            },
            {
              "internalType": "uint8",
              "name": "scavEvents",
              "type": "uint8"
            },
            {
              "internalType": "uint8",
              "name": "shipEvents",
              "type": "uint8"
            }
          ],
          "internalType": "struct BCTypes.EventTracker",
          "name": "eventTracker",
          "type": "tuple"
        },
        {
          "internalType": "address",
          "name": "mapContract",
          "type": "address"
        },
        {
          "internalType": "uint256",
          "name": "mapId",
          "type": "uint256"
        }
      ],
      "stateMutability": "view",
      "type": "function"
    },
    {
      "inputs": [],
      "name": "lobbiesAddress",
      "outputs": [
        {
          "internalType": "address",
          "name": "",
          "type": "address"
        }
      ],
      "stateMutability": "view",
      "type": "function"
    },
    {
      "inputs": [],
      "name": "maps",
      "outputs": [
        {
          "internalType": "contract MapInterface",
          "name": "",
          "type": "address"
        }
      ],
      "stateMutability": "view",
      "type": "function"
    },
    {
      "inputs": [
        {
          "internalType": "address",
          "name": "_operator",
          "type": "address"
        },
        {
          "internalType": "address",
          "name": "_from",
          "type": "address"
        },
        {
          "internalType": "uint256",
          "name": "_tokenId",
          "type": "uint256"
        },
        {
          "internalType": "bytes",
          "name": "_data",
          "type": "bytes"
        }
      ],
      "name": "onERC721Received",
      "outputs": [
        {
          "internalType": "bytes4",
          "name": "",
          "type": "bytes4"
        }
      ],
      "stateMutability": "nonpayable",
      "type": "function"
    },
    {
      "inputs": [],
      "name": "owner",
      "outputs": [
        {
          "internalType": "address",
          "name": "",
          "type": "address"
        }
      ],
      "stateMutability": "view",
      "type": "function"
    },
    {
      "inputs": [
        {
          "internalType": "uint256",
          "name": "",
          "type": "uint256"
        }
      ],
      "name": "players",
      "outputs": [
        {
          "internalType": "address",
          "name": "owner",
          "type": "address"
        },
        {
          "internalType": "address",
          "name": "charContractAddress",
          "type": "address"
        },
        {
          "internalType": "uint256",
          "name": "characterId",
          "type": "uint256"
        },
        {
          "components": [
            {
              "internalType": "uint8",
              "name": "row",
              "type": "uint8"
            },
            {
              "internalType": "uint8",
              "name": "col",
              "type": "uint8"
            }
          ],
          "internalType": "struct BCTypes.Position",
          "name": "position",
          "type": "tuple"
        },
        {
          "internalType": "uint8",
          "name": "healthDmgTaken",
          "type": "uint8"
        },
        {
          "internalType": "uint8",
          "name": "armorDmgTaken",
          "type": "uint8"
        },
        {
          "internalType": "uint8",
          "name": "actionsTaken",
          "type": "uint8"
        },
        {
          "internalType": "uint8",
          "name": "dataTokens",
          "type": "uint8"
        },
        {
          "internalType": "bool",
          "name": "canHarmOthers",
          "type": "bool"
        },
        {
          "internalType": "bool",
          "name": "dead",
          "type": "bool"
        }
      ],
      "stateMutability": "view",
      "type": "function"
    },
    {
      "inputs": [],
      "name": "renounceOwnership",
      "outputs": [],
      "stateMutability": "nonpayable",
      "type": "function"
    },
    {
      "inputs": [],
      "name": "roomTiles",
      "outputs": [
        {
          "internalType": "contract RoomTileInterface",
          "name": "",
          "type": "address"
        }
      ],
      "stateMutability": "view",
      "type": "function"
    },
    {
      "inputs": [
        {
          "internalType": "address",
          "name": "_roomTileAddress",
          "type": "address"
        },
        {
          "internalType": "address",
          "name": "_charAddress",
          "type": "address"
        },
        {
          "internalType": "address",
          "name": "_utilsAddress",
          "type": "address"
        },
        {
          "internalType": "address",
          "name": "_mapsAddress",
          "type": "address"
        },
        {
          "internalType": "address",
          "name": "_lobbiesAddress",
          "type": "address"
        }
      ],
      "name": "setContractAddresses",
      "outputs": [],
      "stateMutability": "nonpayable",
      "type": "function"
    },
    {
      "inputs": [
        {
          "internalType": "uint256[]",
          "name": "_playerIndexes",
          "type": "uint256[]"
        },
        {
          "internalType": "uint256",
          "name": "_numPlayers",
          "type": "uint256"
        }
      ],
      "name": "startGame",
      "outputs": [],
      "stateMutability": "nonpayable",
      "type": "function"
    },
    {
      "inputs": [],
      "name": "transferFundsOut",
      "outputs": [],
      "stateMutability": "nonpayable",
      "type": "function"
    },
    {
      "inputs": [
        {
          "internalType": "address",
          "name": "newOwner",
          "type": "address"
        }
      ],
      "name": "transferOwnership",
      "outputs": [],
      "stateMutability": "nonpayable",
      "type": "function"
    },
    {
      "inputs": [],
      "name": "utils",
      "outputs": [
        {
          "internalType": "contract UtilsInterface",
          "name": "",
          "type": "address"
        }
      ],
      "stateMutability": "view",
      "type": "function"
    }
  ],
  "transactionHash": "0x3c8393546265c8aac9d4f8b0d455270e54007aa662008729af6c1b1307e717d6",
  "args": [],
  "numDeployments": 4,
  "solcInputHash": "5b2bbd68f283e494724ffe6f6acdc479",
  "bytecode": "0x60806040523480156200001157600080fd5b5062000032620000266200003860201b60201c565b6200004060201b60201c565b62000104565b600033905090565b60008060009054906101000a900473ffffffffffffffffffffffffffffffffffffffff169050816000806101000a81548173ffffffffffffffffffffffffffffffffffffffff021916908373ffffffffffffffffffffffffffffffffffffffff1602179055508173ffffffffffffffffffffffffffffffffffffffff168173ffffffffffffffffffffffffffffffffffffffff167f8be0079c531659141344cd1fd0a4f28419497f9722a3daafe3b4186f6b6457e060405160405180910390a35050565b615ac980620001146000396000f3fe608060405234801561001057600080fd5b50600436106101215760003560e01c80635a29638d116100ad578063e847ae1e11610071578063e847ae1e146102fe578063f06986991461031a578063f2fde38b14610336578063f7157f6414610352578063f71d96cb1461037057610121565b80635a29638d1461026c57806368030c721461028a578063715018a6146102a65780638da5cb5b146102b0578063a99d2a8b146102ce57610121565b806322cc26c5116100f457806322cc26c5146101da578063336d7d7b146101f65780633838aed1146102145780633deaec2b1461021e57806340d4fd781461023c57610121565b806308178b3c1461012657806310a2cd0d14610156578063117a5b9014610174578063150b7a02146101aa575b600080fd5b610140600480360381019061013b9190612df1565b6103a9565b60405161014d9190612e53565b60405180910390f35b61015e61050a565b60405161016b9190612ecd565b60405180910390f35b61018e60048036038101906101899190612ee8565b610530565b6040516101a19796959493929190612fb0565b60405180910390f35b6101c460048036038101906101bf9190613087565b61062d565b6040516101d1919061314a565b60405180910390f35b6101f460048036038101906101ef9190612ee8565b61066e565b005b6101fe610682565b60405161020b9190613165565b60405180910390f35b61021c6106a8565b005b610226610700565b60405161023391906131a1565b60405180910390f35b61025660048036038101906102519190612ee8565b610726565b604051610263919061327a565b60405180910390f35b610274610827565b60405161028191906132bd565b60405180910390f35b6102a4600480360381019061029f9190613427565b61084d565b005b6102ae610c57565b005b6102b8610c6b565b6040516102c59190613165565b60405180910390f35b6102e860048036038101906102e39190613483565b610c94565b6040516102f59190612e53565b60405180910390f35b610318600480360381019061031391906134c3565b610cc5565b005b610334600480360381019061032f9190613588565b610e19565b005b610350600480360381019061034b9190613615565b61244c565b005b61035a6124d0565b6040516103679190613663565b60405180910390f35b61038a60048036038101906103859190612ee8565b6124f6565b6040516103a09a999897969594939291906136bc565b60405180910390f35b6000600560009054906101000a900473ffffffffffffffffffffffffffffffffffffffff1673ffffffffffffffffffffffffffffffffffffffff163373ffffffffffffffffffffffffffffffffffffffff161461043b576040517f08c379a0000000000000000000000000000000000000000000000000000000008152600401610432906137b6565b60405180910390fd5b600060066001816001815401808255809150500390600052602060002090600802019050848160010160006101000a81548173ffffffffffffffffffffffffffffffffffffffff021916908373ffffffffffffffffffffffffffffffffffffffff160217905550828160000160006101000a81548173ffffffffffffffffffffffffffffffffffffffff021916908373ffffffffffffffffffffffffffffffffffffffff16021790555083816002018190555060016006805490506105009190613805565b9150509392505050565b600260009054906101000a900473ffffffffffffffffffffffffffffffffffffffff1681565b6007818154811061054057600080fd5b90600052602060002090600802016000915090508060000160009054906101000a900460ff1690806002015490806003015490806004015490806005016040518060800160405290816000820160009054906101000a900460ff1660ff1660ff1681526020016000820160019054906101000a900460ff1660ff1660ff1681526020016000820160029054906101000a900460ff1660ff1660ff1681526020016000820160039054906101000a900460ff1660ff1660ff1681525050908060060160009054906101000a900473ffffffffffffffffffffffffffffffffffffffff16908060070154905087565b60007f544c765b33ca411cce832250371569244f765a17fcd217832be093f0fd5fa45b60405160405180910390a163150b7a0260e01b905095945050505050565b61067661262c565b61067f816126aa565b50565b600560009054906101000a900473ffffffffffffffffffffffffffffffffffffffff1681565b6106b061262c565b6106b8610c6b565b73ffffffffffffffffffffffffffffffffffffffff166108fc479081150290604051600060405180830381858888f193505050501580156106fd573d6000803e3d6000fd5b50565b600460009054906101000a900473ffffffffffffffffffffffffffffffffffffffff1681565b606060006007838154811061073e5761073d613839565b5b90600052602060002090600802016001018054905067ffffffffffffffff81111561076c5761076b6132e9565b5b60405190808252806020026020018201604052801561079a5781602001602082028036833780820191505090505b50905060005b815181101561081d57600784815481106107bd576107bc613839565b5b906000526020600020906008020160010181815481106107e0576107df613839565b5b90600052602060002001548282815181106107fe576107fd613839565b5b602002602001018181525050808061081590613868565b9150506107a0565b5080915050919050565b600360009054906101000a900473ffffffffffffffffffffffffffffffffffffffff1681565b600560009054906101000a900473ffffffffffffffffffffffffffffffffffffffff1673ffffffffffffffffffffffffffffffffffffffff163373ffffffffffffffffffffffffffffffffffffffff16146108dd576040517f08c379a00000000000000000000000000000000000000000000000000000000081526004016108d4906137b6565b60405180910390fd5b60006007600181600181540180825580915050039060005260206000209060080201905060018160000160006101000a81548160ff0219169083151502179055506000816004018190555082816001019080519060200190610940929190612cdf565b508181600301819055506040518060800160405280600060ff168152602001600060ff168152602001600060ff168152602001600060ff168152508160050160008201518160000160006101000a81548160ff021916908360ff16021790555060208201518160000160016101000a81548160ff021916908360ff16021790555060408201518160000160026101000a81548160ff021916908360ff16021790555060608201518160000160036101000a81548160ff021916908360ff160217905550905050600460009054906101000a900473ffffffffffffffffffffffffffffffffffffffff168160060160006101000a81548173ffffffffffffffffffffffffffffffffffffffff021916908373ffffffffffffffffffffffffffffffffffffffff160217905550600460009054906101000a900473ffffffffffffffffffffffffffffffffffffffff1673ffffffffffffffffffffffffffffffffffffffff1663f01fc35a6040518163ffffffff1660e01b81526004016020604051808303816000875af1158015610ada573d6000803e3d6000fd5b505050506040513d601f19601f82011682018060405250810190610afe91906138c6565b816007018190555060005b82811015610c5157610b5c82600701546040518060400160405280600860ff168152602001600560ff16815250846001018481548110610b4c57610b4b613839565b5b9060005260206000200154612850565b60006006836001018381548110610b7657610b75613839565b5b906000526020600020015481548110610b9257610b91613839565b5b906000526020600020906008020160000160009054906101000a900473ffffffffffffffffffffffffffffffffffffffff169050600860008273ffffffffffffffffffffffffffffffffffffffff1673ffffffffffffffffffffffffffffffffffffffff1681526020019081526020016000206001600780549050610c179190613805565b9080600181540180825580915050600190039060005260206000200160009091909190915055508080610c4990613868565b915050610b09565b50505050565b610c5f61262c565b610c696000612a65565b565b60008060009054906101000a900473ffffffffffffffffffffffffffffffffffffffff16905090565b60086020528160005260406000208181548110610cb057600080fd5b90600052602060002001600091509150505481565b610ccd61262c565b84600160006101000a81548173ffffffffffffffffffffffffffffffffffffffff021916908373ffffffffffffffffffffffffffffffffffffffff16021790555083600260006101000a81548173ffffffffffffffffffffffffffffffffffffffff021916908373ffffffffffffffffffffffffffffffffffffffff16021790555082600360006101000a81548173ffffffffffffffffffffffffffffffffffffffff021916908373ffffffffffffffffffffffffffffffffffffffff16021790555081600460006101000a81548173ffffffffffffffffffffffffffffffffffffffff021916908373ffffffffffffffffffffffffffffffffffffffff16021790555080600560006101000a81548173ffffffffffffffffffffffffffffffffffffffff021916908373ffffffffffffffffffffffffffffffffffffffff1602179055505050505050565b600060068681548110610e2f57610e2e613839565b5b90600052602060002090600802019050600060078881548110610e5557610e54613839565b5b906000526020600020906008020190506000600260009054906101000a900473ffffffffffffffffffffffffffffffffffffffff1673ffffffffffffffffffffffffffffffffffffffff16634810bc5984600201546040518263ffffffff1660e01b8152600401610ec69190612e53565b6101a060405180830381865afa158015610ee4573d6000803e3d6000fd5b505050506040513d601f19601f82011682018060405250810190610f089190613ac7565b90508260000160009054906101000a900473ffffffffffffffffffffffffffffffffffffffff1673ffffffffffffffffffffffffffffffffffffffff163373ffffffffffffffffffffffffffffffffffffffff1614610f9c576040517f08c379a0000000000000000000000000000000000000000000000000000000008152600401610f9390613b41565b60405180910390fd5b60038360040160029054906101000a900460ff1660ff1610610ff3576040517f08c379a0000000000000000000000000000000000000000000000000000000008152600401610fea90613bad565b60405180910390fd5b8160010182600201548154811061100d5761100c613839565b5b90600052602060002001548814611059576040517f08c379a000000000000000000000000000000000000000000000000000000000815260040161105090613c19565b60405180910390fd5b6003600481111561106d5761106c613c39565b5b8760048111156110805761107f613c39565b5b141561108b57612256565b6002600481111561109f5761109e613c39565b5b8760048111156110b2576110b1613c39565b5b1415611845576000600460009054906101000a900473ffffffffffffffffffffffffffffffffffffffff1673ffffffffffffffffffffffffffffffffffffffff16636ea1dcd884600701548660030160000160009054906101000a900460ff168760030160000160019054906101000a900460ff168a6040518563ffffffff1660e01b81526004016111479493929190613c99565b606060405180830381865afa158015611164573d6000803e3d6000fd5b505050506040513d601f19601f820116820180604052508101906111889190613d67565b90506002600481111561119e5761119d613c39565b5b816040015160048111156111b5576111b4613c39565b5b14806111e95750600360048111156111d0576111cf613c39565b5b816040015160048111156111e7576111e6613c39565b5b145b806111fb57506000816020015160ff16145b61123a576040517f08c379a000000000000000000000000000000000000000000000000000000000815260040161123190613e06565b60405180910390fd5b6003600481111561124e5761124d613c39565b5b8160400151600481111561126557611264613c39565b5b1461132d57600460009054906101000a900473ffffffffffffffffffffffffffffffffffffffff1673ffffffffffffffffffffffffffffffffffffffff1663b6cdd3b484600701548660030160000160009054906101000a900460ff168760030160000160019054906101000a900460ff168a60026040518663ffffffff1660e01b81526004016112fa959493929190613e6e565b600060405180830381600087803b15801561131457600080fd5b505af1158015611328573d6000803e3d6000fd5b505050505b6000600360009054906101000a900473ffffffffffffffffffffffffffffffffffffffff1673ffffffffffffffffffffffffffffffffffffffff1663951fc3fe88876003016040518363ffffffff1660e01b815260040161138f929190613f5c565b6040805180830381865afa1580156113ab573d6000803e3d6000fd5b505050506040513d601f19601f820116820180604052508101906113cf9190613fd5565b90506001808111156113e4576113e3613c39565b5b8860018111156113f7576113f6613c39565b5b141561182f576000600360009054906101000a900473ffffffffffffffffffffffffffffffffffffffff1673ffffffffffffffffffffffffffffffffffffffff1663951fc3fe88846040518363ffffffff1660e01b815260040161145c929190614002565b6040805180830381865afa158015611478573d6000803e3d6000fd5b505050506040513d601f19601f8201168201806040525081019061149c9190613fd5565b90506000600460009054906101000a900473ffffffffffffffffffffffffffffffffffffffff1673ffffffffffffffffffffffffffffffffffffffff16636ea1dcd88760070154856000015186602001518c6040518563ffffffff1660e01b815260040161150d9493929190613c99565b606060405180830381865afa15801561152a573d6000803e3d6000fd5b505050506040513d601f19601f8201168201806040525081019061154e9190613d67565b90506002600481111561156457611563613c39565b5b8160400151600481111561157b5761157a613c39565b5b14806115af57506003600481111561159657611595613c39565b5b816040015160048111156115ad576115ac613c39565b5b145b806115c157506000816020015160ff16145b611600576040517f08c379a00000000000000000000000000000000000000000000000000000000081526004016115f79061409d565b60405180910390fd5b8192506000600460009054906101000a900473ffffffffffffffffffffffffffffffffffffffff1673ffffffffffffffffffffffffffffffffffffffff16631ef0441688600701546040518263ffffffff1660e01b81526004016116649190612e53565b600060405180830381865afa158015611681573d6000803e3d6000fd5b505050506040513d6000823e3d601f19601f820116820180604052508101906116aa91906143e2565b9050600281856000015160ff16815181106116c8576116c7613839565b5b6020026020010151856020015160ff16815181106116e9576116e8613839565b5b60200260200101516000015160ff1611611738576040517f08c379a000000000000000000000000000000000000000000000000000000000815260040161172f90614477565b60405180910390fd5b6003600481111561174c5761174b613c39565b5b8260400151600481111561176357611762613c39565b5b1461182b57600460009054906101000a900473ffffffffffffffffffffffffffffffffffffffff1673ffffffffffffffffffffffffffffffffffffffff1663b6cdd3b488600701548a60030160000160009054906101000a900460ff168b60030160000160019054906101000a900460ff168d60026040518663ffffffff1660e01b81526004016117f8959493929190613e6e565b600060405180830381600087803b15801561181257600080fd5b505af1158015611826573d6000803e3d6000fd5b505050505b5050505b61183e8460070154828c612850565b5050612255565b6000600481111561185957611858613c39565b5b87600481111561186c5761186b613c39565b5b1415611b74576000600460009054906101000a900473ffffffffffffffffffffffffffffffffffffffff1673ffffffffffffffffffffffffffffffffffffffff16636ea1dcd884600701548660030160000160009054906101000a900460ff168760030160000160019054906101000a900460ff168a6040518563ffffffff1660e01b81526004016119019493929190613c99565b606060405180830381865afa15801561191e573d6000803e3d6000fd5b505050506040513d601f19601f820116820180604052508101906119429190613d67565b90506001600481111561195857611957613c39565b5b8160400151600481111561196f5761196e613c39565b5b146119af576040517f08c379a00000000000000000000000000000000000000000000000000000000081526004016119a6906144e3565b60405180910390fd5b6119cb82604001516060015160ff16826020015160ff16612b29565b15611b6e57600460009054906101000a900473ffffffffffffffffffffffffffffffffffffffff1673ffffffffffffffffffffffffffffffffffffffff1663b6cdd3b484600701548660030160000160009054906101000a900460ff168760030160000160019054906101000a900460ff168a60026040518663ffffffff1660e01b8152600401611a60959493929190613e6e565b600060405180830381600087803b158015611a7a57600080fd5b505af1158015611a8e573d6000803e3d6000fd5b50505050600180811115611aa557611aa4613c39565b5b876001811115611ab857611ab7613c39565b5b1415611b6d57611b6c8360070154600360009054906101000a900473ffffffffffffffffffffffffffffffffffffffff1673ffffffffffffffffffffffffffffffffffffffff1663951fc3fe89886003016040518363ffffffff1660e01b8152600401611b26929190613f5c565b6040805180830381865afa158015611b42573d6000803e3d6000fd5b505050506040513d601f19601f82011682018060405250810190611b669190613fd5565b8b612850565b5b5b50612254565b60016004811115611b8857611b87613c39565b5b876004811115611b9b57611b9a613c39565b5b1415611ea3576000600460009054906101000a900473ffffffffffffffffffffffffffffffffffffffff1673ffffffffffffffffffffffffffffffffffffffff16636ea1dcd884600701548660030160000160009054906101000a900460ff168760030160000160019054906101000a900460ff168a6040518563ffffffff1660e01b8152600401611c309493929190613c99565b606060405180830381865afa158015611c4d573d6000803e3d6000fd5b505050506040513d601f19601f82011682018060405250810190611c719190613d67565b905060016004811115611c8757611c86613c39565b5b81604001516004811115611c9e57611c9d613c39565b5b14611cde576040517f08c379a0000000000000000000000000000000000000000000000000000000008152600401611cd5906144e3565b60405180910390fd5b611cfa82604001516080015160ff16826000015160ff16612b29565b15611e9d57600460009054906101000a900473ffffffffffffffffffffffffffffffffffffffff1673ffffffffffffffffffffffffffffffffffffffff1663b6cdd3b484600701548660030160000160009054906101000a900460ff168760030160000160019054906101000a900460ff168a60036040518663ffffffff1660e01b8152600401611d8f959493929190613e6e565b600060405180830381600087803b158015611da957600080fd5b505af1158015611dbd573d6000803e3d6000fd5b50505050600180811115611dd457611dd3613c39565b5b876001811115611de757611de6613c39565b5b1415611e9c57611e9b8360070154600360009054906101000a900473ffffffffffffffffffffffffffffffffffffffff1673ffffffffffffffffffffffffffffffffffffffff1663951fc3fe89886003016040518363ffffffff1660e01b8152600401611e55929190613f5c565b6040805180830381865afa158015611e71573d6000803e3d6000fd5b505050506040513d601f19601f82011682018060405250810190611e959190613fd5565b8b612850565b5b5b50612253565b600480811115611eb657611eb5613c39565b5b876004811115611ec957611ec8613c39565b5b1415612217576000600460009054906101000a900473ffffffffffffffffffffffffffffffffffffffff1673ffffffffffffffffffffffffffffffffffffffff1663f9dfbfcb84600701548660030160000160009054906101000a900460ff168760030160000160019054906101000a900460ff166040518463ffffffff1660e01b8152600401611f5c93929190614503565b61012060405180830381865afa158015611f7a573d6000803e3d6000fd5b505050506040513d601f19601f82011682018060405250810190611f9e919061453a565b9050600015158160800151151514611feb576040517f08c379a0000000000000000000000000000000000000000000000000000000008152600401611fe2906145b4565b60405180910390fd5b6000600460009054906101000a900473ffffffffffffffffffffffffffffffffffffffff1673ffffffffffffffffffffffffffffffffffffffff166302861c6c85600701548760030160000160009054906101000a900460ff168860030160000160019054906101000a900460ff166040518463ffffffff1660e01b815260040161207893929190614503565b60c060405180830381865afa158015612095573d6000803e3d6000fd5b505050506040513d601f19601f820116820180604052508101906120b99190614699565b90506000816060015160ff1611806120d857506000816040015160ff16115b612117576040517f08c379a000000000000000000000000000000000000000000000000000000000815260040161210e90614712565b60405180910390fd5b600460009054906101000a900473ffffffffffffffffffffffffffffffffffffffff1673ffffffffffffffffffffffffffffffffffffffff166386e529d085600701548760030160000160009054906101000a900460ff168860030160000160019054906101000a900460ff166040518463ffffffff1660e01b81526004016121a293929190614503565b600060405180830381600087803b1580156121bc57600080fd5b505af11580156121d0573d6000803e3d6000fd5b5050505080606001518560040160038282829054906101000a900460ff166121f89190614732565b92506101000a81548160ff021916908360ff1602179055505050612252565b6040517f08c379a0000000000000000000000000000000000000000000000000000000008152600401612249906147b5565b60405180910390fd5b5b5b5b5b82600401600281819054906101000a900460ff1680929190612277906147d5565b91906101000a81548160ff021916908360ff1602179055505060038360040160029054906101000a900460ff1660ff161015806122c257508260070160019054906101000a900460ff165b15612402578260070160019054906101000a900460ff161561238d5760008360070160016101000a81548160ff021916908315150217905550600260009054906101000a900473ffffffffffffffffffffffffffffffffffffffff1673ffffffffffffffffffffffffffffffffffffffff16636d6ba75684600201546040518263ffffffff1660e01b815260040161235a9190612e53565b600060405180830381600087803b15801561237457600080fd5b505af1158015612388573d6000803e3d6000fd5b505050505b60008360040160026101000a81548160ff021916908360ff160217905550600182600101805490506123bf9190613805565b826002015410156123e9578160020160008154809291906123df90613868565b9190505550612401565b6123f68260070154612c47565b600082600201819055505b5b7f81f0468752500ded70032fadd8011a832ccdbaddfc2cae78738f1a5f78e5f490826002015484896040516124399392919061579b565b60405180910390a1505050505050505050565b61245461262c565b600073ffffffffffffffffffffffffffffffffffffffff168173ffffffffffffffffffffffffffffffffffffffff1614156124c4576040517f08c379a00000000000000000000000000000000000000000000000000000000081526004016124bb9061584b565b60405180910390fd5b6124cd81612a65565b50565b600160009054906101000a900473ffffffffffffffffffffffffffffffffffffffff1681565b6006818154811061250657600080fd5b90600052602060002090600802016000915090508060000160009054906101000a900473ffffffffffffffffffffffffffffffffffffffff16908060010160009054906101000a900473ffffffffffffffffffffffffffffffffffffffff1690806002015490806003016040518060400160405290816000820160009054906101000a900460ff1660ff1660ff1681526020016000820160019054906101000a900460ff1660ff1660ff1681525050908060040160009054906101000a900460ff16908060040160019054906101000a900460ff16908060040160029054906101000a900460ff16908060040160039054906101000a900460ff16908060070160009054906101000a900460ff16908060070160019054906101000a900460ff1690508a565b612634612cd7565b73ffffffffffffffffffffffffffffffffffffffff16612652610c6b565b73ffffffffffffffffffffffffffffffffffffffff16146126a8576040517f08c379a000000000000000000000000000000000000000000000000000000000815260040161269f906158b7565b60405180910390fd5b565b6000600682815481106126c0576126bf613839565b5b906000526020600020906008020190506000600260009054906101000a900473ffffffffffffffffffffffffffffffffffffffff1673ffffffffffffffffffffffffffffffffffffffff16634810bc5983600201546040518263ffffffff1660e01b81526004016127319190612e53565b6101a060405180830381865afa15801561274f573d6000803e3d6000fd5b505050506040513d601f19601f820116820180604052508101906127739190613ac7565b9050806080015160ff16816060015160ff16111561279057600080fd5b8160010160009054906101000a900473ffffffffffffffffffffffffffffffffffffffff1673ffffffffffffffffffffffffffffffffffffffff166342842e0e308460000160009054906101000a900473ffffffffffffffffffffffffffffffffffffffff1685600201546040518463ffffffff1660e01b8152600401612819939291906158d7565b600060405180830381600087803b15801561283357600080fd5b505af1158015612847573d6000803e3d6000fd5b50505050505050565b816006828154811061286557612864613839565b5b906000526020600020906008020160030160008201518160000160006101000a81548160ff021916908360ff16021790555060208201518160000160016101000a81548160ff021916908360ff160217905550905050600060ff16600460009054906101000a900473ffffffffffffffffffffffffffffffffffffffff1673ffffffffffffffffffffffffffffffffffffffff1663f9dfbfcb85856000015186602001516040518463ffffffff1660e01b815260040161292793929190614503565b61012060405180830381865afa158015612945573d6000803e3d6000fd5b505050506040513d601f19601f82011682018060405250810190612969919061453a565b6000015160ff1614156129b55760016006828154811061298c5761298b613839565b5b906000526020600020906008020160070160016101000a81548160ff0219169083151502179055505b600460009054906101000a900473ffffffffffffffffffffffffffffffffffffffff1673ffffffffffffffffffffffffffffffffffffffff1663471b675984846000015185602001516040518463ffffffff1660e01b8152600401612a1c93929190614503565b6020604051808303816000875af1158015612a3b573d6000803e3d6000fd5b505050506040513d601f19601f82011682018060405250810190612a5f919061590e565b50505050565b60008060009054906101000a900473ffffffffffffffffffffffffffffffffffffffff169050816000806101000a81548173ffffffffffffffffffffffffffffffffffffffff021916908373ffffffffffffffffffffffffffffffffffffffff1602179055508173ffffffffffffffffffffffffffffffffffffffff168173ffffffffffffffffffffffffffffffffffffffff167f8be0079c531659141344cd1fd0a4f28419497f9722a3daafe3b4186f6b6457e060405160405180910390a35050565b600080600360009054906101000a900473ffffffffffffffffffffffffffffffffffffffff1673ffffffffffffffffffffffffffffffffffffffff1663cd5e3c5d6040518163ffffffff1660e01b81526004016020604051808303816000875af1158015612b9b573d6000803e3d6000fd5b505050506040513d601f19601f82011682018060405250810190612bbf919061593b565b60ff1690507f2729adc6efc811c2141edf691ce91423fbcd06f2d8fe8be0a13b24e47d1050c4818585604051612bf793929190615968565b60405180910390a16001811415612c12576000915050612c41565b6003838583612c21919061599f565b612c2b91906159ff565b1315612c3b576001915050612c41565b60009150505b92915050565b600460009054906101000a900473ffffffffffffffffffffffffffffffffffffffff1673ffffffffffffffffffffffffffffffffffffffff166358308aa8826040518263ffffffff1660e01b8152600401612ca29190612e53565b600060405180830381600087803b158015612cbc57600080fd5b505af1158015612cd0573d6000803e3d6000fd5b5050505050565b600033905090565b828054828255906000526020600020908101928215612d1b579160200282015b82811115612d1a578251825591602001919060010190612cff565b5b509050612d289190612d2c565b5090565b5b80821115612d45576000816000905550600101612d2d565b5090565b6000604051905090565b600080fd5b600080fd5b600073ffffffffffffffffffffffffffffffffffffffff82169050919050565b6000612d8882612d5d565b9050919050565b612d9881612d7d565b8114612da357600080fd5b50565b600081359050612db581612d8f565b92915050565b6000819050919050565b612dce81612dbb565b8114612dd957600080fd5b50565b600081359050612deb81612dc5565b92915050565b600080600060608486031215612e0a57612e09612d53565b5b6000612e1886828701612da6565b9350506020612e2986828701612ddc565b9250506040612e3a86828701612da6565b9150509250925092565b612e4d81612dbb565b82525050565b6000602082019050612e686000830184612e44565b92915050565b6000819050919050565b6000612e93612e8e612e8984612d5d565b612e6e565b612d5d565b9050919050565b6000612ea582612e78565b9050919050565b6000612eb782612e9a565b9050919050565b612ec781612eac565b82525050565b6000602082019050612ee26000830184612ebe565b92915050565b600060208284031215612efe57612efd612d53565b5b6000612f0c84828501612ddc565b91505092915050565b60008115159050919050565b612f2a81612f15565b82525050565b600060ff82169050919050565b612f4681612f30565b82525050565b608082016000820151612f626000850182612f3d565b506020820151612f756020850182612f3d565b506040820151612f886040850182612f3d565b506060820151612f9b6060850182612f3d565b50505050565b612faa81612d7d565b82525050565b600061014082019050612fc6600083018a612f21565b612fd36020830189612e44565b612fe06040830188612e44565b612fed6060830187612e44565b612ffa6080830186612f4c565b613008610100830185612fa1565b613016610120830184612e44565b98975050505050505050565b600080fd5b600080fd5b600080fd5b60008083601f84011261304757613046613022565b5b8235905067ffffffffffffffff81111561306457613063613027565b5b6020830191508360018202830111156130805761307f61302c565b5b9250929050565b6000806000806000608086880312156130a3576130a2612d53565b5b60006130b188828901612da6565b95505060206130c288828901612da6565b94505060406130d388828901612ddc565b935050606086013567ffffffffffffffff8111156130f4576130f3612d58565b5b61310088828901613031565b92509250509295509295909350565b60007fffffffff0000000000000000000000000000000000000000000000000000000082169050919050565b6131448161310f565b82525050565b600060208201905061315f600083018461313b565b92915050565b600060208201905061317a6000830184612fa1565b92915050565b600061318b82612e9a565b9050919050565b61319b81613180565b82525050565b60006020820190506131b66000830184613192565b92915050565b600081519050919050565b600082825260208201905092915050565b6000819050602082019050919050565b6131f181612dbb565b82525050565b600061320383836131e8565b60208301905092915050565b6000602082019050919050565b6000613227826131bc565b61323181856131c7565b935061323c836131d8565b8060005b8381101561326d57815161325488826131f7565b975061325f8361320f565b925050600181019050613240565b5085935050505092915050565b60006020820190508181036000830152613294818461321c565b905092915050565b60006132a782612e9a565b9050919050565b6132b78161329c565b82525050565b60006020820190506132d260008301846132ae565b92915050565b6000601f19601f8301169050919050565b7f4e487b7100000000000000000000000000000000000000000000000000000000600052604160045260246000fd5b613321826132d8565b810181811067ffffffffffffffff821117156133405761333f6132e9565b5b80604052505050565b6000613353612d49565b905061335f8282613318565b919050565b600067ffffffffffffffff82111561337f5761337e6132e9565b5b602082029050602081019050919050565b60006133a361339e84613364565b613349565b905080838252602082019050602084028301858111156133c6576133c561302c565b5b835b818110156133ef57806133db8882612ddc565b8452602084019350506020810190506133c8565b5050509392505050565b600082601f83011261340e5761340d613022565b5b813561341e848260208601613390565b91505092915050565b6000806040838503121561343e5761343d612d53565b5b600083013567ffffffffffffffff81111561345c5761345b612d58565b5b613468858286016133f9565b925050602061347985828601612ddc565b9150509250929050565b6000806040838503121561349a57613499612d53565b5b60006134a885828601612da6565b92505060206134b985828601612ddc565b9150509250929050565b600080600080600060a086880312156134df576134de612d53565b5b60006134ed88828901612da6565b95505060206134fe88828901612da6565b945050604061350f88828901612da6565b935050606061352088828901612da6565b925050608061353188828901612da6565b9150509295509295909350565b6005811061354b57600080fd5b50565b60008135905061355d8161353e565b92915050565b6002811061357057600080fd5b50565b60008135905061358281613563565b92915050565b60008060008060008060c087890312156135a5576135a4612d53565b5b60006135b389828a01612ddc565b96505060206135c489828a01612ddc565b95505060406135d589828a0161354e565b94505060606135e689828a01613573565b93505060806135f789828a01612ddc565b92505060a061360889828a01612ddc565b9150509295509295509295565b60006020828403121561362b5761362a612d53565b5b600061363984828501612da6565b91505092915050565b600061364d82612e9a565b9050919050565b61365d81613642565b82525050565b60006020820190506136786000830184613654565b92915050565b6040820160008201516136946000850182612f3d565b5060208201516136a76020850182612f3d565b50505050565b6136b681612f30565b82525050565b6000610160820190506136d2600083018d612fa1565b6136df602083018c612fa1565b6136ec604083018b612e44565b6136f9606083018a61367e565b61370660a08301896136ad565b61371360c08301886136ad565b61372060e08301876136ad565b61372e6101008301866136ad565b61373c610120830185612f21565b61374a610140830184612f21565b9b9a5050505050505050505050565b600082825260208201905092915050565b7f4e6f74206c6f62627920636f6e74726163740000000000000000000000000000600082015250565b60006137a0601283613759565b91506137ab8261376a565b602082019050919050565b600060208201905081810360008301526137cf81613793565b9050919050565b7f4e487b7100000000000000000000000000000000000000000000000000000000600052601160045260246000fd5b600061381082612dbb565b915061381b83612dbb565b92508282101561382e5761382d6137d6565b5b828203905092915050565b7f4e487b7100000000000000000000000000000000000000000000000000000000600052603260045260246000fd5b600061387382612dbb565b91507fffffffffffffffffffffffffffffffffffffffffffffffffffffffffffffffff8214156138a6576138a56137d6565b5b600182019050919050565b6000815190506138c081612dc5565b92915050565b6000602082840312156138dc576138db612d53565b5b60006138ea848285016138b1565b91505092915050565b600080fd5b6000819050919050565b61390b816138f8565b811461391657600080fd5b50565b60008151905061392881613902565b92915050565b61393781612f30565b811461394257600080fd5b50565b6000815190506139548161392e565b92915050565b600060e082840312156139705761396f6138f3565b5b61397a60e0613349565b9050600061398a84828501613945565b600083015250602061399e84828501613945565b60208301525060406139b284828501613945565b60408301525060606139c684828501613945565b60608301525060806139da84828501613945565b60808301525060a06139ee84828501613945565b60a08301525060c0613a0284828501613945565b60c08301525092915050565b60006101a08284031215613a2557613a246138f3565b5b613a2f60e0613349565b90506000613a3f84828501613919565b6000830152506020613a53848285016138b1565b6020830152506040613a678482850161395a565b604083015250610120613a7c84828501613945565b606083015250610140613a9184828501613945565b608083015250610160613aa684828501613945565b60a083015250610180613abb84828501613945565b60c08301525092915050565b60006101a08284031215613ade57613add612d53565b5b6000613aec84828501613a0e565b91505092915050565b7f53656e646572206e6f7420706c61796572206f776e6572000000000000000000600082015250565b6000613b2b601783613759565b9150613b3682613af5565b602082019050919050565b60006020820190508181036000830152613b5a81613b1e565b9050919050565b7f4e6f20616374696f6e73206c6566740000000000000000000000000000000000600082015250565b6000613b97600f83613759565b9150613ba282613b61565b602082019050919050565b60006020820190508181036000830152613bc681613b8a565b9050919050565b7f4e6f7420796f7572207475726e00000000000000000000000000000000000000600082015250565b6000613c03600d83613759565b9150613c0e82613bcd565b602082019050919050565b60006020820190508181036000830152613c3281613bf6565b9050919050565b7f4e487b7100000000000000000000000000000000000000000000000000000000600052602160045260246000fd5b6000613c83613c7e613c7984612f30565b612e6e565b612dbb565b9050919050565b613c9381613c68565b82525050565b6000608082019050613cae6000830187612e44565b613cbb6020830186613c8a565b613cc86040830185613c8a565b613cd56060830184612e44565b95945050505050565b60058110613ceb57600080fd5b50565b600081519050613cfd81613cde565b92915050565b600060608284031215613d1957613d186138f3565b5b613d236060613349565b90506000613d3384828501613945565b6000830152506020613d4784828501613945565b6020830152506040613d5b84828501613cee565b60408301525092915050565b600060608284031215613d7d57613d7c612d53565b5b6000613d8b84828501613d03565b91505092915050565b7f31737420446f6f72206e6f74206f70656e2f62726561636865642f756e6c6f6360008201527f6b65640000000000000000000000000000000000000000000000000000000000602082015250565b6000613df0602383613759565b9150613dfb82613d94565b604082019050919050565b60006020820190508181036000830152613e1f81613de3565b9050919050565b60058110613e3757613e36613c39565b5b50565b6000819050613e4882613e26565b919050565b6000613e5882613e3a565b9050919050565b613e6881613e4d565b82525050565b600060a082019050613e836000830188612e44565b613e906020830187613c8a565b613e9d6040830186613c8a565b613eaa6060830185612e44565b613eb76080830184613e5f565b9695505050505050565b60008160001c9050919050565b600060ff82169050919050565b6000613eee613ee983613ec1565b613ece565b9050919050565b60008160081c9050919050565b6000613f15613f1083613ef5565b613ece565b9050919050565b604082016000808301549050613f3181613edb565b613f3e6000860182612f3d565b50613f4881613f02565b613f556020860182612f3d565b5050505050565b6000606082019050613f716000830185612e44565b613f7e6020830184613f1c565b9392505050565b600060408284031215613f9b57613f9a6138f3565b5b613fa56040613349565b90506000613fb584828501613945565b6000830152506020613fc984828501613945565b60208301525092915050565b600060408284031215613feb57613fea612d53565b5b6000613ff984828501613f85565b91505092915050565b60006060820190506140176000830185612e44565b614024602083018461367e565b9392505050565b7f326e6420446f6f72206e6f74206f70656e2f62726561636865642f756e6c6f6360008201527f6b65640000000000000000000000000000000000000000000000000000000000602082015250565b6000614087602383613759565b91506140928261402b565b604082019050919050565b600060208201905081810360008301526140b68161407a565b9050919050565b600067ffffffffffffffff8211156140d8576140d76132e9565b5b602082029050602081019050919050565b600067ffffffffffffffff821115614104576141036132e9565b5b602082029050602081019050919050565b600067ffffffffffffffff8211156141305761412f6132e9565b5b602082029050919050565b600061414e61414984614115565b613349565b905080602084028301858111156141685761416761302c565b5b835b81811015614191578061417d88826138b1565b84526020840193505060208101905061416a565b5050509392505050565b600082601f8301126141b0576141af613022565b5b60046141bd84828561413b565b91505092915050565b6141cf81612f15565b81146141da57600080fd5b50565b6000815190506141ec816141c6565b92915050565b60006101208284031215614209576142086138f3565b5b61421360c0613349565b9050600061422384828501613945565b600083015250602061423784828501613945565b602083015250604061424b8482850161419b565b60408301525060c061425f848285016141dd565b60608301525060e0614273848285016141dd565b608083015250610100614288848285016141dd565b60a08301525092915050565b60006142a76142a2846140e9565b613349565b90508083825260208201905061012084028301858111156142cb576142ca61302c565b5b835b818110156142f557806142e088826141f2565b845260208401935050610120810190506142cd565b5050509392505050565b600082601f83011261431457614313613022565b5b8151614324848260208601614294565b91505092915050565b600061434061433b846140bd565b613349565b905080838252602082019050602084028301858111156143635761436261302c565b5b835b818110156143aa57805167ffffffffffffffff81111561438857614387613022565b5b80860161439589826142ff565b85526020850194505050602081019050614365565b5050509392505050565b600082601f8301126143c9576143c8613022565b5b81516143d984826020860161432d565b91505092915050565b6000602082840312156143f8576143f7612d53565b5b600082015167ffffffffffffffff81111561441657614415612d58565b5b614422848285016143b4565b91505092915050565b7f526f6f6d206e6f74206578706c6f726564000000000000000000000000000000600082015250565b6000614461601183613759565b915061446c8261442b565b602082019050919050565b6000602082019050818103600083015261449081614454565b9050919050565b7f446f6f72206e6f7420636c6f7365640000000000000000000000000000000000600082015250565b60006144cd600f83613759565b91506144d882614497565b602082019050919050565b600060208201905081810360008301526144fc816144c0565b9050919050565b60006060820190506145186000830186612e44565b6145256020830185613c8a565b6145326040830184613c8a565b949350505050565b6000610120828403121561455157614550612d53565b5b600061455f848285016141f2565b91505092915050565b7f526f6f6d20616c7265616479206c6f6f74656400000000000000000000000000600082015250565b600061459e601383613759565b91506145a982614568565b602082019050919050565b600060208201905081810360008301526145cd81614591565b9050919050565b600581106145e157600080fd5b50565b6000815190506145f3816145d4565b92915050565b600060c0828403121561460f5761460e6138f3565b5b61461960c0613349565b90506000614629848285016145e4565b600083015250602061463d848285016138b1565b602083015250604061465184828501613945565b604083015250606061466584828501613945565b6060830152506080614679848285016141dd565b60808301525060a061468d848285016141dd565b60a08301525092915050565b600060c082840312156146af576146ae612d53565b5b60006146bd848285016145f9565b91505092915050565b7f43616e2774206c6f6f7420656d70747920726f6f6d0000000000000000000000600082015250565b60006146fc601583613759565b9150614707826146c6565b602082019050919050565b6000602082019050818103600083015261472b816146ef565b9050919050565b600061473d82612f30565b915061474883612f30565b92508260ff0382111561475e5761475d6137d6565b5b828201905092915050565b7f4552524f523a2042616420616374696f6e20636f6e6669670000000000000000600082015250565b600061479f601883613759565b91506147aa82614769565b602082019050919050565b600060208201905081810360008301526147ce81614792565b9050919050565b60006147e082612f30565b915060ff8214156147f4576147f36137d6565b5b600182019050919050565b600073ffffffffffffffffffffffffffffffffffffffff82169050919050565b600061483261482d83613ec1565b6147ff565b9050919050565b61484281612d7d565b82525050565b6000819050919050565b600061486561486083613ec1565b614848565b9050919050565b60408201600080830154905061488181613edb565b61488e6000860182612f3d565b5061489881613f02565b6148a56020860182612f3d565b5050505050565b60008160101c9050919050565b60006148cc6148c7836148ac565b613ece565b9050919050565b60008160181c9050919050565b60006148f36148ee836148d3565b613ece565b9050919050565b600081549050919050565b600082825260208201905092915050565b60008190508160005260206000209050919050565b60008160201c9050919050565b600061494b6149468361492b565b613ece565b9050919050565b60008160281c9050919050565b600061497261496d83614952565b613ece565b9050919050565b60008160301c9050919050565b600061499961499483614979565b613ece565b9050919050565b60008160381c9050919050565b60006149c06149bb836149a0565b613ece565b9050919050565b60008160401c9050919050565b60006149e76149e2836149c7565b613ece565b9050919050565b60008160481c9050919050565b6000614a0e614a09836149ee565b613ece565b9050919050565b60008160501c9050919050565b6000614a35614a3083614a15565b613ece565b9050919050565b60008160581c9050919050565b6000614a5c614a5783614a3c565b613ece565b9050919050565b60008160601c9050919050565b6000614a83614a7e83614a63565b613ece565b9050919050565b60008160681c9050919050565b6000614aaa614aa583614a8a565b613ece565b9050919050565b60008160701c9050919050565b6000614ad1614acc83614ab1565b613ece565b9050919050565b60008160781c9050919050565b6000614af8614af383614ad8565b613ece565b9050919050565b60008160801c9050919050565b6000614b1f614b1a83614aff565b613ece565b9050919050565b60008160881c9050919050565b6000614b46614b4183614b26565b613ece565b9050919050565b60008160901c9050919050565b6000614b6d614b6883614b4d565b613ece565b9050919050565b60008160981c9050919050565b6000614b94614b8f83614b74565b613ece565b9050919050565b60008160a01c9050919050565b6000614bbb614bb683614b9b565b613ece565b9050919050565b60008160a81c9050919050565b6000614be2614bdd83614bc2565b613ece565b9050919050565b60008160b01c9050919050565b6000614c09614c0483614be9565b613ece565b9050919050565b60008160b81c9050919050565b6000614c30614c2b83614c10565b613ece565b9050919050565b60008160c01c9050919050565b6000614c57614c5283614c37565b613ece565b9050919050565b60008160c81c9050919050565b6000614c7e614c7983614c5e565b613ece565b9050919050565b60008160d01c9050919050565b6000614ca5614ca083614c85565b613ece565b9050919050565b60008160d81c9050919050565b6000614ccc614cc783614cac565b613ece565b9050919050565b60008160e01c9050919050565b6000614cf3614cee83614cd3565b613ece565b9050919050565b60008160e81c9050919050565b6000614d1a614d1583614cfa565b613ece565b9050919050565b60008160f01c9050919050565b6000614d41614d3c83614d21565b613ece565b9050919050565b60008160f81c9050919050565b6000614d68614d6383614d48565b613ece565b9050919050565b6000614d7a826148fa565b614d848185614905565b935083614d9084614916565b60006001156150bd575b836001602003820110156150bc578154614dbc88614db783613edb565b612f3d565b602088019750614dd488614dcf83613f02565b612f3d565b602088019750614dec88614de7836148b9565b612f3d565b602088019750614e0488614dff836148e0565b612f3d565b602088019750614e1c88614e1783614938565b612f3d565b602088019750614e3488614e2f8361495f565b612f3d565b602088019750614e4c88614e4783614986565b612f3d565b602088019750614e6488614e5f836149ad565b612f3d565b602088019750614e7c88614e77836149d4565b612f3d565b602088019750614e9488614e8f836149fb565b612f3d565b602088019750614eac88614ea783614a22565b612f3d565b602088019750614ec488614ebf83614a49565b612f3d565b602088019750614edc88614ed783614a70565b612f3d565b602088019750614ef488614eef83614a97565b612f3d565b602088019750614f0c88614f0783614abe565b612f3d565b602088019750614f2488614f1f83614ae5565b612f3d565b602088019750614f3c88614f3783614b0c565b612f3d565b602088019750614f5488614f4f83614b33565b612f3d565b602088019750614f6c88614f6783614b5a565b612f3d565b602088019750614f8488614f7f83614b81565b612f3d565b602088019750614f9c88614f9783614ba8565b612f3d565b602088019750614fb488614faf83614bcf565b612f3d565b602088019750614fcc88614fc783614bf6565b612f3d565b602088019750614fe488614fdf83614c1d565b612f3d565b602088019750614ffc88614ff783614c44565b612f3d565b6020880197506150148861500f83614c6b565b612f3d565b60208801975061502c8861502783614c92565b612f3d565b6020880197506150448861503f83614cb9565b612f3d565b60208801975061505c8861505783614ce0565b612f3d565b6020880197506150748861506f83614d07565b612f3d565b60208801975061508c8861508783614d2e565b612f3d565b6020880197506150a48861509f83614d55565b612f3d565b60208801975060018301925050602081019050614d9a565b5b6001156155a8578154848210156150ed576150e0886150db83613edb565b612f3d565b6020880197506001820191505b84821015615114576151078861510283613f02565b612f3d565b6020880197506001820191505b8482101561513b5761512e88615129836148b9565b612f3d565b6020880197506001820191505b848210156151625761515588615150836148e0565b612f3d565b6020880197506001820191505b848210156151895761517c8861517783614938565b612f3d565b6020880197506001820191505b848210156151b0576151a38861519e8361495f565b612f3d565b6020880197506001820191505b848210156151d7576151ca886151c583614986565b612f3d565b6020880197506001820191505b848210156151fe576151f1886151ec836149ad565b612f3d565b6020880197506001820191505b848210156152255761521888615213836149d4565b612f3d565b6020880197506001820191505b8482101561524c5761523f8861523a836149fb565b612f3d565b6020880197506001820191505b84821015615273576152668861526183614a22565b612f3d565b6020880197506001820191505b8482101561529a5761528d8861528883614a49565b612f3d565b6020880197506001820191505b848210156152c1576152b4886152af83614a70565b612f3d565b6020880197506001820191505b848210156152e8576152db886152d683614a97565b612f3d565b6020880197506001820191505b8482101561530f57615302886152fd83614abe565b612f3d565b6020880197506001820191505b84821015615336576153298861532483614ae5565b612f3d565b6020880197506001820191505b8482101561535d576153508861534b83614b0c565b612f3d565b6020880197506001820191505b84821015615384576153778861537283614b33565b612f3d565b6020880197506001820191505b848210156153ab5761539e8861539983614b5a565b612f3d565b6020880197506001820191505b848210156153d2576153c5886153c083614b81565b612f3d565b6020880197506001820191505b848210156153f9576153ec886153e783614ba8565b612f3d565b6020880197506001820191505b84821015615420576154138861540e83614bcf565b612f3d565b6020880197506001820191505b848210156154475761543a8861543583614bf6565b612f3d565b6020880197506001820191505b8482101561546e576154618861545c83614c1d565b612f3d565b6020880197506001820191505b84821015615495576154888861548383614c44565b612f3d565b6020880197506001820191505b848210156154bc576154af886154aa83614c6b565b612f3d565b6020880197506001820191505b848210156154e3576154d6886154d183614c92565b612f3d565b6020880197506001820191505b8482101561550a576154fd886154f883614cb9565b612f3d565b6020880197506001820191505b84821015615531576155248861551f83614ce0565b612f3d565b6020880197506001820191505b848210156155585761554b8861554683614d07565b612f3d565b6020880197506001820191505b8482101561557f576155728861556d83614d2e565b612f3d565b6020880197506001820191505b848210156155a6576155998861559483614d55565b612f3d565b6020880197506001820191505b505b8694505050505092915050565b600060ff82169050919050565b60006155d56155d083613ec1565b6155b5565b9050919050565b6155e581612f15565b82525050565b60006155fe6155f983613ef5565b6155b5565b9050919050565b60006101a08301600080840154905061561d8161481f565b61562a6000870182614839565b506001840154905061563b8161481f565b6156486020870182614839565b506002840154905061565981614852565b61566660408701826131e8565b5060038401615678606087018261486c565b506004840154905061568981613edb565b61569660a0870182612f3d565b506156a081613f02565b6156ad60c0870182612f3d565b506156b7816148b9565b6156c460e0870182612f3d565b506156ce816148e0565b6156dc610100870182612f3d565b50600584018583036101208701526156f48382614d6f565b9250506006840185830361014087015261570e8382614d6f565b92505060078401549050615721816155c2565b61572f6101608701826155dc565b50615739816155eb565b6157476101808701826155dc565b50819250505092915050565b6005811061576457615763613c39565b5b50565b600081905061577582615753565b919050565b600061578582615767565b9050919050565b6157958161577a565b82525050565b60006060820190506157b06000830186612e44565b81810360208301526157c28185615605565b90506157d1604083018461578c565b949350505050565b7f4f776e61626c653a206e6577206f776e657220697320746865207a65726f206160008201527f6464726573730000000000000000000000000000000000000000000000000000602082015250565b6000615835602683613759565b9150615840826157d9565b604082019050919050565b6000602082019050818103600083015261586481615828565b9050919050565b7f4f776e61626c653a2063616c6c6572206973206e6f7420746865206f776e6572600082015250565b60006158a1602083613759565b91506158ac8261586b565b602082019050919050565b600060208201905081810360008301526158d081615894565b9050919050565b60006060820190506158ec6000830186612fa1565b6158f96020830185612fa1565b6159066040830184612e44565b949350505050565b60006020828403121561592457615923612d53565b5b6000615932848285016141dd565b91505092915050565b60006020828403121561595157615950612d53565b5b600061595f84828501613945565b91505092915050565b600060608201905061597d6000830186612e44565b61598a6020830185612e44565b6159976040830184612e44565b949350505050565b60006159aa82612dbb565b91506159b583612dbb565b9250827fffffffffffffffffffffffffffffffffffffffffffffffffffffffffffffffff038211156159ea576159e96137d6565b5b828201905092915050565b6000819050919050565b6000615a0a826159f5565b9150615a15836159f5565b9250827f800000000000000000000000000000000000000000000000000000000000000001821260008412151615615a5057615a4f6137d6565b5b827f7fffffffffffffffffffffffffffffffffffffffffffffffffffffffffffffff018213600084121615615a8857615a876137d6565b5b82820390509291505056fea264697066735822122015724fcc86db162865793d4b411e5b3b4135646effdca4e3d948526ec8d1c8d364736f6c634300080c0033",
  "devdoc": {
    "kind": "dev",
    "methods": {
      "owner()": {
        "details": "Returns the address of the current owner."
      },
      "renounceOwnership()": {
        "details": "Leaves the contract without owner. It will not be possible to call `onlyOwner` functions anymore. Can only be called by the current owner. NOTE: Renouncing ownership will leave the contract without an owner, thereby removing any functionality that is only available to the owner."
      },
      "transferOwnership(address)": {
        "details": "Transfers ownership of the contract to a new account (`newOwner`). Can only be called by the current owner."
      }
    },
    "version": 1
  },
  "userdoc": {
    "kind": "user",
    "methods": {},
    "version": 1
  },
  "storageLayout": {
    "storage": [
      {
        "astId": 7,
        "contract": "contracts/BCGames.sol:BCGames",
        "label": "_owner",
        "offset": 0,
        "slot": "0",
        "type": "t_address"
      },
      {
        "astId": 459,
        "contract": "contracts/BCGames.sol:BCGames",
        "label": "roomTiles",
        "offset": 0,
        "slot": "1",
        "type": "t_contract(RoomTileInterface)301"
      },
      {
        "astId": 462,
        "contract": "contracts/BCGames.sol:BCGames",
        "label": "chars",
        "offset": 0,
        "slot": "2",
        "type": "t_contract(CharInterface)315"
      },
      {
        "astId": 465,
        "contract": "contracts/BCGames.sol:BCGames",
        "label": "utils",
        "offset": 0,
        "slot": "3",
        "type": "t_contract(UtilsInterface)359"
      },
      {
        "astId": 468,
        "contract": "contracts/BCGames.sol:BCGames",
        "label": "maps",
        "offset": 0,
        "slot": "4",
        "type": "t_contract(MapInterface)452"
      },
      {
        "astId": 470,
        "contract": "contracts/BCGames.sol:BCGames",
        "label": "lobbiesAddress",
        "offset": 0,
        "slot": "5",
        "type": "t_address"
      },
      {
        "astId": 553,
        "contract": "contracts/BCGames.sol:BCGames",
        "label": "players",
        "offset": 0,
        "slot": "6",
        "type": "t_array(t_struct(Player)3609_storage)dyn_storage"
      },
      {
        "astId": 557,
        "contract": "contracts/BCGames.sol:BCGames",
        "label": "games",
        "offset": 0,
        "slot": "7",
        "type": "t_array(t_struct(Game)3704_storage)dyn_storage"
      },
      {
        "astId": 562,
        "contract": "contracts/BCGames.sol:BCGames",
        "label": "addressToGame",
        "offset": 0,
        "slot": "8",
        "type": "t_mapping(t_address,t_array(t_uint256)dyn_storage)"
      }
    ],
    "types": {
      "t_address": {
        "encoding": "inplace",
        "label": "address",
        "numberOfBytes": "20"
      },
      "t_array(t_struct(Game)3704_storage)dyn_storage": {
        "base": "t_struct(Game)3704_storage",
        "encoding": "dynamic_array",
        "label": "struct BCTypes.Game[]",
        "numberOfBytes": "32"
      },
      "t_array(t_struct(Player)3609_storage)dyn_storage": {
        "base": "t_struct(Player)3609_storage",
        "encoding": "dynamic_array",
        "label": "struct BCTypes.Player[]",
        "numberOfBytes": "32"
      },
      "t_array(t_uint256)dyn_storage": {
        "base": "t_uint256",
        "encoding": "dynamic_array",
        "label": "uint256[]",
        "numberOfBytes": "32"
      },
      "t_array(t_uint8)dyn_storage": {
        "base": "t_uint8",
        "encoding": "dynamic_array",
        "label": "uint8[]",
        "numberOfBytes": "32"
      },
      "t_bool": {
        "encoding": "inplace",
        "label": "bool",
        "numberOfBytes": "1"
      },
      "t_contract(CharInterface)315": {
        "encoding": "inplace",
        "label": "contract CharInterface",
        "numberOfBytes": "20"
      },
      "t_contract(MapInterface)452": {
        "encoding": "inplace",
        "label": "contract MapInterface",
        "numberOfBytes": "20"
      },
      "t_contract(RoomTileInterface)301": {
        "encoding": "inplace",
        "label": "contract RoomTileInterface",
        "numberOfBytes": "20"
      },
      "t_contract(UtilsInterface)359": {
        "encoding": "inplace",
        "label": "contract UtilsInterface",
        "numberOfBytes": "20"
      },
      "t_mapping(t_address,t_array(t_uint256)dyn_storage)": {
        "encoding": "mapping",
        "key": "t_address",
        "label": "mapping(address => uint256[])",
        "numberOfBytes": "32",
        "value": "t_array(t_uint256)dyn_storage"
      },
      "t_struct(EventTracker)3628_storage": {
        "encoding": "inplace",
        "label": "struct BCTypes.EventTracker",
        "members": [
          {
            "astId": 3621,
            "contract": "contracts/BCGames.sol:BCGames",
            "label": "bugEvents",
            "offset": 0,
            "slot": "0",
            "type": "t_uint8"
          },
          {
            "astId": 3623,
            "contract": "contracts/BCGames.sol:BCGames",
            "label": "mysteryEvents",
            "offset": 1,
            "slot": "0",
            "type": "t_uint8"
          },
          {
            "astId": 3625,
            "contract": "contracts/BCGames.sol:BCGames",
            "label": "scavEvents",
            "offset": 2,
            "slot": "0",
            "type": "t_uint8"
          },
          {
            "astId": 3627,
            "contract": "contracts/BCGames.sol:BCGames",
            "label": "shipEvents",
            "offset": 3,
            "slot": "0",
            "type": "t_uint8"
          }
        ],
        "numberOfBytes": "32"
      },
      "t_struct(Game)3704_storage": {
        "encoding": "inplace",
        "label": "struct BCTypes.Game",
        "members": [
          {
            "astId": 3687,
            "contract": "contracts/BCGames.sol:BCGames",
            "label": "active",
            "offset": 0,
            "slot": "0",
            "type": "t_bool"
          },
          {
            "astId": 3690,
            "contract": "contracts/BCGames.sol:BCGames",
            "label": "playerIndexes",
            "offset": 0,
            "slot": "1",
            "type": "t_array(t_uint256)dyn_storage"
          },
          {
            "astId": 3692,
            "contract": "contracts/BCGames.sol:BCGames",
            "label": "currentPlayerTurnIndex",
            "offset": 0,
            "slot": "2",
            "type": "t_uint256"
          },
          {
            "astId": 3694,
            "contract": "contracts/BCGames.sol:BCGames",
            "label": "numPlayers",
            "offset": 0,
            "slot": "3",
            "type": "t_uint256"
          },
          {
            "astId": 3696,
            "contract": "contracts/BCGames.sol:BCGames",
            "label": "turnsTaken",
            "offset": 0,
            "slot": "4",
            "type": "t_uint256"
          },
          {
            "astId": 3699,
            "contract": "contracts/BCGames.sol:BCGames",
            "label": "eventTracker",
            "offset": 0,
            "slot": "5",
            "type": "t_struct(EventTracker)3628_storage"
          },
          {
            "astId": 3701,
            "contract": "contracts/BCGames.sol:BCGames",
            "label": "mapContract",
            "offset": 0,
            "slot": "6",
            "type": "t_address"
          },
          {
            "astId": 3703,
            "contract": "contracts/BCGames.sol:BCGames",
            "label": "mapId",
            "offset": 0,
            "slot": "7",
            "type": "t_uint256"
          }
        ],
        "numberOfBytes": "256"
      },
      "t_struct(Player)3609_storage": {
        "encoding": "inplace",
        "label": "struct BCTypes.Player",
        "members": [
          {
            "astId": 3583,
            "contract": "contracts/BCGames.sol:BCGames",
            "label": "owner",
            "offset": 0,
            "slot": "0",
            "type": "t_address"
          },
          {
            "astId": 3585,
            "contract": "contracts/BCGames.sol:BCGames",
            "label": "charContractAddress",
            "offset": 0,
            "slot": "1",
            "type": "t_address"
          },
          {
            "astId": 3587,
            "contract": "contracts/BCGames.sol:BCGames",
            "label": "characterId",
            "offset": 0,
            "slot": "2",
            "type": "t_uint256"
          },
          {
            "astId": 3590,
            "contract": "contracts/BCGames.sol:BCGames",
            "label": "position",
            "offset": 0,
            "slot": "3",
            "type": "t_struct(Position)3633_storage"
          },
          {
            "astId": 3592,
            "contract": "contracts/BCGames.sol:BCGames",
            "label": "healthDmgTaken",
            "offset": 0,
            "slot": "4",
            "type": "t_uint8"
          },
          {
            "astId": 3594,
            "contract": "contracts/BCGames.sol:BCGames",
            "label": "armorDmgTaken",
            "offset": 1,
            "slot": "4",
            "type": "t_uint8"
          },
          {
            "astId": 3596,
            "contract": "contracts/BCGames.sol:BCGames",
            "label": "actionsTaken",
            "offset": 2,
            "slot": "4",
            "type": "t_uint8"
          },
          {
            "astId": 3598,
            "contract": "contracts/BCGames.sol:BCGames",
            "label": "dataTokens",
            "offset": 3,
            "slot": "4",
            "type": "t_uint8"
          },
          {
            "astId": 3601,
            "contract": "contracts/BCGames.sol:BCGames",
            "label": "currentEffects",
            "offset": 0,
            "slot": "5",
            "type": "t_array(t_uint8)dyn_storage"
          },
          {
            "astId": 3604,
            "contract": "contracts/BCGames.sol:BCGames",
            "label": "inventoryIDs",
            "offset": 0,
            "slot": "6",
            "type": "t_array(t_uint8)dyn_storage"
          },
          {
            "astId": 3606,
            "contract": "contracts/BCGames.sol:BCGames",
            "label": "canHarmOthers",
            "offset": 0,
            "slot": "7",
            "type": "t_bool"
          },
          {
            "astId": 3608,
            "contract": "contracts/BCGames.sol:BCGames",
            "label": "dead",
            "offset": 1,
            "slot": "7",
            "type": "t_bool"
          }
        ],
        "numberOfBytes": "256"
      },
      "t_struct(Position)3633_storage": {
        "encoding": "inplace",
        "label": "struct BCTypes.Position",
        "members": [
          {
            "astId": 3630,
            "contract": "contracts/BCGames.sol:BCGames",
            "label": "row",
            "offset": 0,
            "slot": "0",
            "type": "t_uint8"
          },
          {
            "astId": 3632,
            "contract": "contracts/BCGames.sol:BCGames",
            "label": "col",
            "offset": 1,
            "slot": "0",
            "type": "t_uint8"
          }
        ],
        "numberOfBytes": "32"
      },
      "t_uint256": {
        "encoding": "inplace",
        "label": "uint256",
        "numberOfBytes": "32"
      },
      "t_uint8": {
        "encoding": "inplace",
        "label": "uint8",
        "numberOfBytes": "1"
      }
    }
  }
}