{
  "address": "0xE9aEA27c519218c1eE6d434B9AC0262B69C28865",
  "abi": [
    {
      "inputs": [],
      "stateMutability": "nonpayable",
      "type": "constructor"
    },
    {
      "anonymous": false,
      "inputs": [
        {
          "indexed": false,
          "internalType": "uint256",
          "name": "gameId",
          "type": "uint256"
        },
        {
          "indexed": false,
          "internalType": "uint256",
          "name": "roll",
          "type": "uint256"
        },
        {
          "indexed": false,
          "internalType": "uint256",
          "name": "forValue",
          "type": "uint256"
        },
        {
          "indexed": false,
          "internalType": "uint256",
          "name": "against",
          "type": "uint256"
        }
      ],
      "name": "ChallengeEvent",
      "type": "event"
    },
    {
      "anonymous": false,
      "inputs": [
        {
          "indexed": false,
          "internalType": "uint256",
          "name": "gameId",
          "type": "uint256"
        },
        {
          "indexed": false,
          "internalType": "uint256",
          "name": "roll",
          "type": "uint256"
        }
      ],
      "name": "DiceRollEvent",
      "type": "event"
    },
    {
      "anonymous": false,
      "inputs": [
        {
          "indexed": true,
          "internalType": "address",
          "name": "previousOwner",
          "type": "address"
        },
        {
          "indexed": true,
          "internalType": "address",
          "name": "newOwner",
          "type": "address"
        }
      ],
      "name": "OwnershipTransferred",
      "type": "event"
    },
    {
      "inputs": [],
      "name": "StartLocation",
      "outputs": [
        {
          "internalType": "uint8",
          "name": "row",
          "type": "uint8"
        },
        {
          "internalType": "uint8",
          "name": "col",
          "type": "uint8"
        }
      ],
      "stateMutability": "view",
      "type": "function"
    },
    {
      "inputs": [
        {
          "internalType": "int256",
          "name": "x",
          "type": "int256"
        }
      ],
      "name": "abs",
      "outputs": [
        {
          "internalType": "int256",
          "name": "",
          "type": "int256"
        }
      ],
      "stateMutability": "pure",
      "type": "function"
    },
    {
      "inputs": [],
      "name": "actionsAddress",
      "outputs": [
        {
          "internalType": "address",
          "name": "",
          "type": "address"
        }
      ],
      "stateMutability": "view",
      "type": "function"
    },
    {
      "inputs": [
        {
          "internalType": "uint256",
          "name": "_gameId",
          "type": "uint256"
        },
        {
          "internalType": "enum BCTypes.DenizenType",
          "name": "_type",
          "type": "uint8"
        },
        {
          "internalType": "uint256",
          "name": "_row",
          "type": "uint256"
        },
        {
          "internalType": "uint256",
          "name": "_col",
          "type": "uint256"
        }
      ],
      "name": "addDenizen",
      "outputs": [],
      "stateMutability": "nonpayable",
      "type": "function"
    },
    {
      "inputs": [
        {
          "internalType": "address",
          "name": "",
          "type": "address"
        },
        {
          "internalType": "uint256",
          "name": "",
          "type": "uint256"
        }
      ],
      "name": "addressToGame",
      "outputs": [
        {
          "internalType": "uint256",
          "name": "",
          "type": "uint256"
        }
      ],
      "stateMutability": "view",
      "type": "function"
    },
    {
      "inputs": [],
      "name": "bcEvents",
      "outputs": [
        {
          "internalType": "contract EventsInterface",
          "name": "",
          "type": "address"
        }
      ],
      "stateMutability": "view",
      "type": "function"
    },
    {
      "inputs": [],
      "name": "chars",
      "outputs": [
        {
          "internalType": "contract CharInterface",
          "name": "",
          "type": "address"
        }
      ],
      "stateMutability": "view",
      "type": "function"
    },
    {
      "inputs": [],
      "name": "charsAddress",
      "outputs": [
        {
          "internalType": "address",
          "name": "",
          "type": "address"
        }
      ],
      "stateMutability": "view",
      "type": "function"
    },
    {
      "inputs": [
        {
          "internalType": "uint256",
          "name": "_gameId",
          "type": "uint256"
        },
        {
          "components": [
            {
              "internalType": "uint8",
              "name": "row",
              "type": "uint8"
            },
            {
              "internalType": "uint8",
              "name": "col",
              "type": "uint8"
            }
          ],
          "internalType": "struct BCTypes.Position",
          "name": "_position",
          "type": "tuple"
        },
        {
          "internalType": "uint256",
          "name": "_playerId",
          "type": "uint256"
        },
        {
          "internalType": "uint256",
          "name": "_debugRoomId",
          "type": "uint256"
        }
      ],
      "name": "debugMovePlayer",
      "outputs": [],
      "stateMutability": "nonpayable",
      "type": "function"
    },
    {
      "inputs": [
        {
          "internalType": "enum BCTypes.DenizenType",
          "name": "",
          "type": "uint8"
        }
      ],
      "name": "denizenDef",
      "outputs": [
        {
          "internalType": "uint256",
          "name": "",
          "type": "uint256"
        }
      ],
      "stateMutability": "view",
      "type": "function"
    },
    {
      "inputs": [
        {
          "internalType": "enum BCTypes.DenizenType",
          "name": "",
          "type": "uint8"
        }
      ],
      "name": "denizenDmg",
      "outputs": [
        {
          "internalType": "uint256",
          "name": "",
          "type": "uint256"
        }
      ],
      "stateMutability": "view",
      "type": "function"
    },
    {
      "inputs": [
        {
          "internalType": "enum BCTypes.DenizenType",
          "name": "",
          "type": "uint8"
        }
      ],
      "name": "denizenHealth",
      "outputs": [
        {
          "internalType": "uint256",
          "name": "",
          "type": "uint256"
        }
      ],
      "stateMutability": "view",
      "type": "function"
    },
    {
      "inputs": [
        {
          "internalType": "enum BCTypes.DenizenType",
          "name": "",
          "type": "uint8"
        }
      ],
      "name": "denizenOff",
      "outputs": [
        {
          "internalType": "uint256",
          "name": "",
          "type": "uint256"
        }
      ],
      "stateMutability": "view",
      "type": "function"
    },
    {
      "inputs": [
        {
          "internalType": "uint256",
          "name": "_gameId",
          "type": "uint256"
        },
        {
          "internalType": "uint256",
          "name": "_playerId",
          "type": "uint256"
        },
        {
          "internalType": "bool",
          "name": "_free",
          "type": "bool"
        }
      ],
      "name": "endPlayerAction",
      "outputs": [],
      "stateMutability": "nonpayable",
      "type": "function"
    },
    {
      "inputs": [
        {
          "internalType": "uint256",
          "name": "_id",
          "type": "uint256"
        }
      ],
      "name": "extGetGame",
      "outputs": [
        {
          "components": [
            {
              "internalType": "bool",
              "name": "active",
              "type": "bool"
            },
            {
              "internalType": "uint256[]",
              "name": "playerIndexes",
              "type": "uint256[]"
            },
            {
              "internalType": "uint256",
              "name": "currentPlayerTurnIndex",
              "type": "uint256"
            },
            {
              "internalType": "uint256",
              "name": "numPlayers",
              "type": "uint256"
            },
            {
              "internalType": "uint256",
              "name": "turnsTaken",
              "type": "uint256"
            },
            {
              "components": [
                {
                  "internalType": "uint8",
                  "name": "bugEvents",
                  "type": "uint8"
                },
                {
                  "internalType": "uint8",
                  "name": "mysteryEvents",
                  "type": "uint8"
                },
                {
                  "internalType": "uint8",
                  "name": "scavEvents",
                  "type": "uint8"
                },
                {
                  "internalType": "uint8",
                  "name": "shipEvents",
                  "type": "uint8"
                }
              ],
              "internalType": "struct BCTypes.EventTracker",
              "name": "eventTracker",
              "type": "tuple"
            },
            {
              "internalType": "uint256",
              "name": "mapId",
              "type": "uint256"
            },
            {
              "internalType": "uint256",
              "name": "eventPlayerId",
              "type": "uint256"
            },
            {
              "internalType": "uint256",
              "name": "eventNumber",
              "type": "uint256"
            },
            {
              "internalType": "enum BCTypes.BCEventType",
              "name": "eventType",
              "type": "uint8"
            },
            {
              "components": [
                {
                  "internalType": "uint8",
                  "name": "row",
                  "type": "uint8"
                },
                {
                  "internalType": "uint8",
                  "name": "col",
                  "type": "uint8"
                }
              ],
              "internalType": "struct BCTypes.Position",
              "name": "eventPosition",
              "type": "tuple"
            },
            {
              "internalType": "uint256[]",
              "name": "unusedBugEvents",
              "type": "uint256[]"
            },
            {
              "internalType": "uint256[]",
              "name": "unusedMysteryEvents",
              "type": "uint256[]"
            },
            {
              "internalType": "uint256[]",
              "name": "unusedScavEvents",
              "type": "uint256[]"
            },
            {
              "internalType": "uint256[]",
              "name": "unusedShipEvents",
              "type": "uint256[]"
            },
            {
              "internalType": "uint256",
              "name": "turnTimeLimit",
              "type": "uint256"
            },
            {
              "internalType": "uint256",
              "name": "lastTurnTimestamp",
              "type": "uint256"
            },
            {
              "internalType": "uint256",
              "name": "DEBUG_returnAmount",
              "type": "uint256"
            },
            {
              "components": [
                {
                  "internalType": "uint256",
                  "name": "id",
                  "type": "uint256"
                },
                {
                  "internalType": "uint256",
                  "name": "gameId",
                  "type": "uint256"
                },
                {
                  "internalType": "enum BCTypes.DenizenType",
                  "name": "denizenType",
                  "type": "uint8"
                },
                {
                  "components": [
                    {
                      "internalType": "uint8",
                      "name": "row",
                      "type": "uint8"
                    },
                    {
                      "internalType": "uint8",
                      "name": "col",
                      "type": "uint8"
                    }
                  ],
                  "internalType": "struct BCTypes.Position",
                  "name": "position",
                  "type": "tuple"
                },
                {
                  "internalType": "uint256",
                  "name": "healthRemaining",
                  "type": "uint256"
                }
              ],
              "internalType": "struct BCTypes.Denizen[]",
              "name": "denizens",
              "type": "tuple[]"
            }
          ],
          "internalType": "struct BCTypes.Game",
          "name": "",
          "type": "tuple"
        }
      ],
      "stateMutability": "view",
      "type": "function"
    },
    {
      "inputs": [
        {
          "internalType": "uint256",
          "name": "_gameId",
          "type": "uint256"
        }
      ],
      "name": "extGetGamePlayerIndexes",
      "outputs": [
        {
          "internalType": "uint256[]",
          "name": "",
          "type": "uint256[]"
        }
      ],
      "stateMutability": "view",
      "type": "function"
    },
    {
      "inputs": [
        {
          "internalType": "address",
          "name": "_playerAddress",
          "type": "address"
        }
      ],
      "name": "extGetGamesOfPlayer",
      "outputs": [
        {
          "internalType": "uint256[]",
          "name": "",
          "type": "uint256[]"
        }
      ],
      "stateMutability": "view",
      "type": "function"
    },
    {
      "inputs": [],
      "name": "extGetNumGames",
      "outputs": [
        {
          "internalType": "uint256",
          "name": "",
          "type": "uint256"
        }
      ],
      "stateMutability": "view",
      "type": "function"
    },
    {
      "inputs": [
        {
          "internalType": "uint256",
          "name": "_gameId",
          "type": "uint256"
        },
        {
          "components": [
            {
              "internalType": "uint8",
              "name": "row",
              "type": "uint8"
            },
            {
              "internalType": "uint8",
              "name": "col",
              "type": "uint8"
            }
          ],
          "internalType": "struct BCTypes.Position",
          "name": "_position",
          "type": "tuple"
        },
        {
          "internalType": "uint256",
          "name": "_playerId",
          "type": "uint256"
        }
      ],
      "name": "extMovePlayer",
      "outputs": [],
      "stateMutability": "nonpayable",
      "type": "function"
    },
    {
      "inputs": [
        {
          "internalType": "uint256",
          "name": "_gameId",
          "type": "uint256"
        }
      ],
      "name": "forceNextTurn",
      "outputs": [],
      "stateMutability": "nonpayable",
      "type": "function"
    },
    {
      "inputs": [
        {
          "internalType": "uint256",
          "name": "",
          "type": "uint256"
        }
      ],
      "name": "games",
      "outputs": [
        {
          "internalType": "bool",
          "name": "active",
          "type": "bool"
        },
        {
          "internalType": "uint256",
          "name": "currentPlayerTurnIndex",
          "type": "uint256"
        },
        {
          "internalType": "uint256",
          "name": "numPlayers",
          "type": "uint256"
        },
        {
          "internalType": "uint256",
          "name": "turnsTaken",
          "type": "uint256"
        },
        {
          "components": [
            {
              "internalType": "uint8",
              "name": "bugEvents",
              "type": "uint8"
            },
            {
              "internalType": "uint8",
              "name": "mysteryEvents",
              "type": "uint8"
            },
            {
              "internalType": "uint8",
              "name": "scavEvents",
              "type": "uint8"
            },
            {
              "internalType": "uint8",
              "name": "shipEvents",
              "type": "uint8"
            }
          ],
          "internalType": "struct BCTypes.EventTracker",
          "name": "eventTracker",
          "type": "tuple"
        },
        {
          "internalType": "uint256",
          "name": "mapId",
          "type": "uint256"
        },
        {
          "internalType": "uint256",
          "name": "eventPlayerId",
          "type": "uint256"
        },
        {
          "internalType": "uint256",
          "name": "eventNumber",
          "type": "uint256"
        },
        {
          "internalType": "enum BCTypes.BCEventType",
          "name": "eventType",
          "type": "uint8"
        },
        {
          "components": [
            {
              "internalType": "uint8",
              "name": "row",
              "type": "uint8"
            },
            {
              "internalType": "uint8",
              "name": "col",
              "type": "uint8"
            }
          ],
          "internalType": "struct BCTypes.Position",
          "name": "eventPosition",
          "type": "tuple"
        },
        {
          "internalType": "uint256",
          "name": "turnTimeLimit",
          "type": "uint256"
        },
        {
          "internalType": "uint256",
          "name": "lastTurnTimestamp",
          "type": "uint256"
        },
        {
          "internalType": "uint256",
          "name": "DEBUG_returnAmount",
          "type": "uint256"
        }
      ],
      "stateMutability": "view",
      "type": "function"
    },
    {
      "inputs": [
        {
          "internalType": "uint256",
          "name": "_gameId",
          "type": "uint256"
        }
      ],
      "name": "getDenizensInGame",
      "outputs": [
        {
          "components": [
            {
              "internalType": "uint256",
              "name": "id",
              "type": "uint256"
            },
            {
              "internalType": "uint256",
              "name": "gameId",
              "type": "uint256"
            },
            {
              "internalType": "enum BCTypes.DenizenType",
              "name": "denizenType",
              "type": "uint8"
            },
            {
              "components": [
                {
                  "internalType": "uint8",
                  "name": "row",
                  "type": "uint8"
                },
                {
                  "internalType": "uint8",
                  "name": "col",
                  "type": "uint8"
                }
              ],
              "internalType": "struct BCTypes.Position",
              "name": "position",
              "type": "tuple"
            },
            {
              "internalType": "uint256",
              "name": "healthRemaining",
              "type": "uint256"
            }
          ],
          "internalType": "struct BCTypes.Denizen[]",
          "name": "",
          "type": "tuple[]"
        }
      ],
      "stateMutability": "view",
      "type": "function"
    },
    {
      "inputs": [
        {
          "components": [
            {
              "internalType": "uint8",
              "name": "row",
              "type": "uint8"
            },
            {
              "internalType": "uint8",
              "name": "col",
              "type": "uint8"
            }
          ],
          "internalType": "struct BCTypes.Position",
          "name": "_firstRoom",
          "type": "tuple"
        },
        {
          "components": [
            {
              "internalType": "uint8",
              "name": "row",
              "type": "uint8"
            },
            {
              "internalType": "uint8",
              "name": "col",
              "type": "uint8"
            }
          ],
          "internalType": "struct BCTypes.Position",
          "name": "_secondRoom",
          "type": "tuple"
        }
      ],
      "name": "getDirectionBetween",
      "outputs": [
        {
          "internalType": "uint256",
          "name": "",
          "type": "uint256"
        }
      ],
      "stateMutability": "pure",
      "type": "function"
    },
    {
      "inputs": [
        {
          "internalType": "uint256",
          "name": "_direction",
          "type": "uint256"
        },
        {
          "components": [
            {
              "internalType": "uint8",
              "name": "row",
              "type": "uint8"
            },
            {
              "internalType": "uint8",
              "name": "col",
              "type": "uint8"
            }
          ],
          "internalType": "struct BCTypes.Position",
          "name": "_start",
          "type": "tuple"
        }
      ],
      "name": "getNeighborRoom",
      "outputs": [
        {
          "components": [
            {
              "internalType": "uint8",
              "name": "row",
              "type": "uint8"
            },
            {
              "internalType": "uint8",
              "name": "col",
              "type": "uint8"
            }
          ],
          "internalType": "struct BCTypes.Position",
          "name": "",
          "type": "tuple"
        }
      ],
      "stateMutability": "pure",
      "type": "function"
    },
    {
      "inputs": [
        {
          "internalType": "uint256",
          "name": "_traitNum",
          "type": "uint256"
        },
        {
          "internalType": "uint256",
          "name": "_subTraitNum",
          "type": "uint256"
        }
      ],
      "name": "getUIOffset",
      "outputs": [
        {
          "internalType": "uint256",
          "name": "",
          "type": "uint256"
        }
      ],
      "stateMutability": "pure",
      "type": "function"
    },
    {
      "inputs": [],
      "name": "items",
      "outputs": [
        {
          "internalType": "contract ItemsInterface",
          "name": "",
          "type": "address"
        }
      ],
      "stateMutability": "view",
      "type": "function"
    },
    {
      "inputs": [
        {
          "internalType": "uint256",
          "name": "_gameId",
          "type": "uint256"
        },
        {
          "internalType": "uint256",
          "name": "_playerId",
          "type": "uint256"
        },
        {
          "internalType": "uint256",
          "name": "_charId",
          "type": "uint256"
        },
        {
          "internalType": "uint256",
          "name": "_currentPlayerTurnIndex",
          "type": "uint256"
        }
      ],
      "name": "leaveGame",
      "outputs": [],
      "stateMutability": "nonpayable",
      "type": "function"
    },
    {
      "inputs": [],
      "name": "lobbiesAddress",
      "outputs": [
        {
          "internalType": "address",
          "name": "",
          "type": "address"
        }
      ],
      "stateMutability": "view",
      "type": "function"
    },
    {
      "inputs": [],
      "name": "maps",
      "outputs": [
        {
          "internalType": "contract MapInterface",
          "name": "",
          "type": "address"
        }
      ],
      "stateMutability": "view",
      "type": "function"
    },
    {
      "inputs": [
        {
          "internalType": "uint256",
          "name": "_min",
          "type": "uint256"
        },
        {
          "internalType": "uint256",
          "name": "_max",
          "type": "uint256"
        },
        {
          "internalType": "uint256",
          "name": "_val",
          "type": "uint256"
        },
        {
          "internalType": "uint256",
          "name": "_valMax",
          "type": "uint256"
        }
      ],
      "name": "normalizeToSmallRange",
      "outputs": [
        {
          "internalType": "uint8",
          "name": "",
          "type": "uint8"
        }
      ],
      "stateMutability": "pure",
      "type": "function"
    },
    {
      "inputs": [
        {
          "internalType": "uint256",
          "name": "_direction",
          "type": "uint256"
        }
      ],
      "name": "opposite",
      "outputs": [
        {
          "internalType": "uint256",
          "name": "",
          "type": "uint256"
        }
      ],
      "stateMutability": "pure",
      "type": "function"
    },
    {
      "inputs": [],
      "name": "owner",
      "outputs": [
        {
          "internalType": "address",
          "name": "",
          "type": "address"
        }
      ],
      "stateMutability": "view",
      "type": "function"
    },
    {
      "inputs": [],
      "name": "players",
      "outputs": [
        {
          "internalType": "contract PlayersInterface",
          "name": "",
          "type": "address"
        }
      ],
      "stateMutability": "view",
      "type": "function"
    },
    {
      "inputs": [],
      "name": "randKeccak",
      "outputs": [
        {
          "internalType": "bytes32",
          "name": "",
          "type": "bytes32"
        }
      ],
      "stateMutability": "nonpayable",
      "type": "function"
    },
    {
      "inputs": [],
      "name": "renounceOwnership",
      "outputs": [],
      "stateMutability": "nonpayable",
      "type": "function"
    },
    {
      "inputs": [
        {
          "internalType": "uint256",
          "name": "_gameId",
          "type": "uint256"
        },
        {
          "internalType": "uint256",
          "name": "_for",
          "type": "uint256"
        },
        {
          "internalType": "uint256",
          "name": "_against",
          "type": "uint256"
        }
      ],
      "name": "resolveChallenge",
      "outputs": [
        {
          "internalType": "bool",
          "name": "",
          "type": "bool"
        }
      ],
      "stateMutability": "nonpayable",
      "type": "function"
    },
    {
      "inputs": [
        {
          "internalType": "uint256",
          "name": "_gameId",
          "type": "uint256"
        },
        {
          "internalType": "uint256",
          "name": "_choice",
          "type": "uint256"
        }
      ],
      "name": "resolveEvent",
      "outputs": [],
      "stateMutability": "nonpayable",
      "type": "function"
    },
    {
      "inputs": [
        {
          "internalType": "uint256",
          "name": "_gameId",
          "type": "uint256"
        }
      ],
      "name": "roll",
      "outputs": [
        {
          "internalType": "uint256",
          "name": "",
          "type": "uint256"
        }
      ],
      "stateMutability": "nonpayable",
      "type": "function"
    },
    {
      "inputs": [
        {
          "internalType": "address",
          "name": "_charAddress",
          "type": "address"
        },
        {
          "internalType": "address",
          "name": "_utilsAddress",
          "type": "address"
        },
        {
          "internalType": "address",
          "name": "_mapsAddress",
          "type": "address"
        },
        {
          "internalType": "address",
          "name": "_lobbiesAddress",
          "type": "address"
        },
        {
          "internalType": "address",
          "name": "_actionsAddress",
          "type": "address"
        },
        {
          "internalType": "address",
          "name": "_eventsAddress",
          "type": "address"
        },
        {
          "internalType": "address",
          "name": "_itemsAddress",
          "type": "address"
        },
        {
          "internalType": "address",
          "name": "_playersAddress",
          "type": "address"
        }
      ],
      "name": "setContractAddresses",
      "outputs": [],
      "stateMutability": "nonpayable",
      "type": "function"
    },
    {
      "inputs": [
        {
          "internalType": "bytes32",
          "name": "_hash",
          "type": "bytes32"
        },
        {
          "internalType": "uint256",
          "name": "_size",
          "type": "uint256"
        },
        {
          "internalType": "uint256",
          "name": "_offset",
          "type": "uint256"
        }
      ],
      "name": "sliceHashToSmallInt",
      "outputs": [
        {
          "internalType": "uint8",
          "name": "",
          "type": "uint8"
        }
      ],
      "stateMutability": "pure",
      "type": "function"
    },
    {
      "inputs": [
        {
          "internalType": "uint8",
          "name": "_min",
          "type": "uint8"
        },
        {
          "internalType": "uint8",
          "name": "_max",
          "type": "uint8"
        }
      ],
      "name": "smallIntBetweenVals",
      "outputs": [
        {
          "internalType": "uint8",
          "name": "",
          "type": "uint8"
        }
      ],
      "stateMutability": "nonpayable",
      "type": "function"
    },
    {
      "inputs": [
        {
          "internalType": "uint256[]",
          "name": "_playerIndexes",
          "type": "uint256[]"
        },
        {
          "internalType": "uint256",
          "name": "_numPlayers",
          "type": "uint256"
        },
        {
          "internalType": "uint256",
          "name": "_debugRoomId",
          "type": "uint256"
        }
      ],
      "name": "startGame",
      "outputs": [
        {
          "internalType": "uint256",
          "name": "",
          "type": "uint256"
        }
      ],
      "stateMutability": "nonpayable",
      "type": "function"
    },
    {
      "inputs": [
        {
          "internalType": "address",
          "name": "newOwner",
          "type": "address"
        }
      ],
      "name": "transferOwnership",
      "outputs": [],
      "stateMutability": "nonpayable",
      "type": "function"
    }
  ],
  "transactionHash": "0xc328c552a99b6c1308128cca45194d16e5629b22aab83e49c5989144a900047d",
  "args": [],
  "numDeployments": 1,
  "solcInputHash": "85d32012a8bf294d89afef03a219a1f5",
  "bytecode": "0x600060015560c0604052600a6080819052600660a052805461ffff191661060a1790553480156200002f57600080fd5b506200003b33620004da565b60027ffd54ff1ed53f34a900b24c5ba64f85761163b5d82d98a47b9bd80e45466993c581905560037f10a81eed9d63d16face5e76357905348e6253d3394086026bb2bf2145d7cc2498190557f26b4a10d0f0b04925c23bd4480ee147c916e5e87a7d68206a533dad160ac81e29190915560057fafafe8948a4ed9d478b1e9a5780b119b5edd00ea7d07bc35bef7c814824eb94b5560647fa5049387d9cb649c59f4bda666105ba636c2a103d8e2b232ba4d125737cd21495560327fa48544818c2c710afa9849c61ec9c60e8acdb3eaa2885f33b37e118cc8fd04ac5560c87fb91432bedff11256dbe14161d3606a2657bc9dacf8742f6b817d871dd53fb9765560197f0b705463cf5f7356780ee6e96132d37412c1b5816a4d207b8dcd42c349767457557fa7c5ba7114a813b50159add3a36832908dc83db71d0b9a24c2ad0f83be9582078190557f9adb202b1492743bc00c81d33cdc6423fa8c79109027eb6a845391e8fc1f048181905560047fe0283e559c29e31ee7f56467acc9dd307779c843a883aeeb3bf5c6128c90814481905560067fa1d6913cd9e08c872be3e7525cca82e4fc0fc298a783f19022be725b19be685a819055600a7fb9bec7e2561f624fe753ff070f1599b306cbf59fafd4e8d5a8184a1ea1841bce81905560087f92b4482321f41ce3aa65f798bda23d0d12a60fc5f212868a548ddb00aa49de72819055600c7f376529bb8a2d41b4a589a133407fc64f3212472dbd74744348be1098bf7ba08d557feab6bc3746954d8a0719de62c86ea908d362be2a58c781ada1046727253f9df28490557f169f97de0d9a84d840042b17d3c6b9638b3d6fd9024c9eb0c7a306a17b49f88f8490557fa74ba3945261e09fde15ba3db55005b205e61eeb4ad811ac0faa2b315bffeead8590557f45f76dafbbad695564362934e24d72eedc57f9fc1a65f39bca62176cc82968288590557f367ccd2d0ac16bf7110a5dffe0801fdc9452a95a1adb7e1a12fe97dd3e9a4edd949094557f6bda57492eba051cb4a12a1e19df47c9755d78165341d4009b1d09b3f36162048490557fb5a1e7cda73b1608e93d4d50ab796c3d35aa6216cb006a1f920df154d13ff61882905560077f73dfc495eb54bd6713ffc079b9f5e40f2fecd3793d143759ba0128fbedb40254557f49a9092dc5c03b26195f6621c97b5cf515cb77afe659e3fe008a73456354eb68556010602081905260017f8c6065603763fec3f5742441d3833f3f43b982453612d76adb39a885e3006b5f8190557f853b2fefe141400fef543280f93d98bd49996069f632d0d20236afeeed8e46a28190557fb3edd0d534d647cffdae9f1294f11ad21f3fcf2814bea44c92bbb8d384a57d9e8190557f1588ac671d87f82adc0e6ae8ab009c0de98f92a20243897597e566bc59b9c126557f61a7346ab5ebdac457db2a901eaf1b805239b6049a1b2f34bab85e2e274f39cb8490557f20edfb71820f6f00f6a84ccfefb91587cd9f849f8349b0a3182a4795899d9cd9919091557f4ef6145e44e4298293af15ae5f84f922a836b1d6db608fd5008f32a528b312a9919091556000919091527f5f04e77c60ed37290f5789e2e9c5d396103f3c4b14614065cbb4c8362609d5a5556200052a565b600080546001600160a01b038381166001600160a01b0319831681178455604051919092169283917f8be0079c531659141344cd1fd0a4f28419497f9722a3daafe3b4186f6b6457e09190a35050565b614239806200053a6000396000f3fe608060405234801561001057600080fd5b50600436106102685760003560e01c80637ddae10311610151578063c06fad06116100c3578063dc0b356411610087578063dc0b3564146105cc578063dc769ee8146105df578063dce6c5da1461060f578063f101de9a1461062f578063f2fde38b14610642578063fa3993c21461065557600080fd5b8063c06fad0614610546578063c6850f7c14610559578063ce28613f14610579578063d78e7d861461058c578063d8a03082146105ac57600080fd5b8063951fc3fe11610115578063951fc3fe146104c757806397f34c3f146104e75780639fca1ee1146104fa578063a99d2a8b1461050d578063aa6e803014610520578063afd62bb21461053357600080fd5b80637ddae1031461046a5780638214f2221461047d5780638bf52bc3146104905780638da5cb5b146104a3578063921d2799146104b457600080fd5b80633f090e3d116101ea5780635dc96967116101ae5780635dc96967146103e657806364db84bf1461040957806364f664671461041c5780636fe99c181461042f578063715018a61461044f5780637b45c0d41461045757600080fd5b80633f090e3d1461037357806340d4fd781461038657806346f2434b146103a657806353011696146103ae57806354731422146103d357600080fd5b80631cef40f6116102315780631cef40f61461031f5780631e1de205146103325780631f7b4f301461033a578063336d7d7b1461034d5780633deaec2b1461036057600080fd5b8062e3d8981461026d57806310a2cd0d146102a0578063117a5b90146102cb57806317514225146102f75780631b5ac4b51461030c575b600080fd5b61028d61027b3660046132ca565b600d6020526000908152604090205481565b6040519081526020015b60405180910390f35b6002546102b3906001600160a01b031681565b6040516001600160a01b039091168152602001610297565b6102de6102d93660046132e5565b610668565b6040516102979d9c9b9a99989796959493929190613328565b61030a6103053660046134bc565b610738565b005b61028d61031a3660046132e5565b6107be565b61030a61032d3660046134f2565b6107de565b61028d6109a7565b61028d6103483660046132e5565b610a1f565b6007546102b3906001600160a01b031681565b6003546102b3906001600160a01b031681565b61030a61038136600461352d565b610a7b565b6103996103943660046132e5565b610cec565b604051610297919061359a565b600b5461028d565b6103c16103bc36600461352d565b610dde565b60405160ff9091168152602001610297565b61030a6103e13660046132e5565b610e1b565b6103f96103f43660046135ad565b610f3f565b6040519015158152602001610297565b61028d6104173660046135d9565b610fdc565b61030a61042a3660046135d9565b610ff4565b61044261043d3660046132e5565b6110f9565b6040516102979190613678565b61030a6114d9565b6009546102b3906001600160a01b031681565b6004546102b3906001600160a01b031681565b61028d61048b3660046132e5565b6114ed565b61030a61049e366004613837565b611567565b6000546001600160a01b03166102b3565b61030a6104c2366004613888565b6115b9565b6104da6104d5366004613931565b611641565b604051610297919061395e565b6103c16104f53660046135ad565b61176b565b6008546102b3906001600160a01b031681565b61028d61051b36600461397c565b611796565b61030a61052e3660046139b6565b6117c7565b6103996105413660046139ef565b611916565b6005546102b3906001600160a01b031681565b61028d6105673660046132ca565b60106020526000908152604090205481565b6103c1610587366004613a0c565b6119e7565b61028d61059a3660046132ca565b600f6020526000908152604090205481565b6105bf6105ba3660046132e5565b611a97565b6040516102979190613a45565b6006546102b3906001600160a01b031681565b600a546105f59060ff8082169161010090041682565b6040805160ff938416815292909116602083015201610297565b61028d61061d3660046132ca565b600e6020526000908152604090205481565b61028d61063d366004613a7c565b611b9b565b61030a6106503660046139ef565b612069565b61028d610663366004613b22565b6120e2565b600b818154811061067857600080fd5b6000918252602091829020601390910201805460028201546003830154600484015460408051608081018252600587015460ff81811683526101008083048216848c0152620100008304821684860152630100000090920481166060840152600689015460078a015460088b015460098c01548751808901909852600a8d015480861689529590950484169c87019c909c52600f8b015460108c01546011909c01549a84169d50989b979a9699949891979096909593909216939091908d565b6009546001600160a01b031633148061075b57506006546001600160a01b031633145b6107ac5760405162461bcd60e51b815260206004820152601c60248201527f4e6f7420616374696f6e732f706c617965727320636f6e74726163740000000060448201526064015b60405180910390fd5b6107b983838360006121aa565b505050565b6000808212156107d6576107d182613b64565b6107d8565b815b92915050565b600a5460ff16821480156107fb5750600a54610100900460ff1681145b6109a1576006546001600160a01b031633146108505760405162461bcd60e51b8152602060048201526014602482015273139bdd081c1b185e595c9cc818dbdb9d1c9858dd60621b60448201526064016107a3565b6000600b858154811061086557610865613b80565b90600052602060002090601302019050600081601201805490509050816012016040518060a001604052808381526020018881526020018760088111156108ae576108ae6132fe565b815260200160405180604001604052808860ff1681526020018760ff168152508152602001600d60008960088111156108e9576108e96132fe565b60088111156108fa576108fa6132fe565b815260208082019290925260409081016000908120549093528454600181810187559584529282902084516005909402019283559083015182850155820151600282018054939492939192909160ff19169083600881111561095e5761095e6132fe565b02179055506060820151805160038301805460209093015160ff9081166101000261ffff1990941692169190911791909117905560809091015160049091015550505b50505050565b60018054600091826109b883613b96565b91905055506001546001436109cd9190613baf565b4033604051602001610a0493929190928352602083019190915260601b6bffffffffffffffffffffffff1916604082015260540190565b60405160208183030381529060405280519060200120905090565b600080610a2e600160066119e7565b60ff1690507ffe34d093a460a16ee5fb374540914d1c734a17502c0c1a87b387c8d6097e1c518382604051610a6d929190918252602082015260400190565b60405180910390a192915050565b6009546001600160a01b03163314610ad55760405162461bcd60e51b815260206004820181905260248201527f4e6f7420616374696f6e7320636f6e7472616374202d206c6561766547616d6560448201526064016107a3565b6000600b8581548110610aea57610aea613b80565b60009182526020909120600554604051635f87260160e01b81526004810188905260248101899052601390930290910192506001600160a01b031690635f87260190604401600060405180830381600087803b158015610b4957600080fd5b505af1158015610b5d573d6000803e3d6000fd5b5050600254604051631ff77ac560e11b8152600481018790526001600160a01b039091169250633feef58a9150602401600060405180830381600087803b158015610ba757600080fd5b505af1158015610bbb573d6000803e3d6000fd5b50505050600181810154600091610bd191613baf565b67ffffffffffffffff811115610be957610be96133d8565b604051908082528060200260200182016040528015610c12578160200160208202803683370190505b5090506000805b6001840154811015610c8957808514610c7757836001018181548110610c4157610c41613b80565b9060005260206000200154838381518110610c5e57610c5e613b80565b602090810291909101015281610c7381613b96565b9250505b80610c8181613b96565b915050610c19565b508151610c9f9060018501906020850190613176565b50600383018054906000610cb283613bc2565b90915550506001830154600284015403610cce57600060028401555b6001830154600003610ce357825460ff191683555b50505050505050565b60606000600b8381548110610d0357610d03613b80565b90600052602060002090601302016001018054905067ffffffffffffffff811115610d3057610d306133d8565b604051908082528060200260200182016040528015610d59578160200160208202803683370190505b50905060005b8151811015610dd757600b8481548110610d7b57610d7b613b80565b90600052602060002090601302016001018181548110610d9d57610d9d613b80565b9060005260206000200154828281518110610dba57610dba613b80565b602090810291909101015280610dcf81613b96565b915050610d5f565b5092915050565b600080610deb8686613baf565b9050600083610dfa8684613bd9565b610e049190613c06565b9050610e108782613c1a565b979650505050505050565b6000600b8281548110610e3057610e30613b80565b906000526020600020906013020190506001816001018054905011610e975760405162461bcd60e51b815260206004820152601960248201527f43616e277420666f7263652073696e676c6520706c617965720000000000000060448201526064016107a3565b80600f01548160100154610eab9190613c1a565b4211610ef95760405162461bcd60e51b815260206004820152601760248201527f5374696c6c2077697468696e2074696d65206c696d697400000000000000000060448201526064016107a3565b600881015415610f0e57610f0e826000612ba5565b610f3b8282600101836002015481548110610f2b57610f2b613b80565b9060005260206000200154612c71565b5050565b600080610f4b85610a1f565b6040805187815260208101839052908101869052606081018590529091507f75b6a8325595f91135e07382840634226793c68c9e59623da7e10d7ad3d95b959060800160405180910390a180600103610fa8576000915050610fd5565b600383610fb58684613c1a565b610fbf9190613c2d565b1315610fcf576001915050610fd5565b60009150505b9392505050565b600081610fea846004613bd9565b610fd59190613c1a565b6000600b838154811061100957611009613b80565b600091825260209091206006546013909202016007810154604051636621a42160e01b815260048101919091529092506001600160a01b0390911690636621a42190602401602060405180830381865afa15801561106b573d6000803e3d6000fd5b505050506040513d601f19601f8201168201806040525081019061108f9190613c4d565b6001600160a01b0316336001600160a01b0316146110ef5760405162461bcd60e51b815260206004820152601960248201527f4576656e74206e6f7420666f7220796f757220706c617965720000000000000060448201526064016107a3565b6107b98383612ba5565b6111016131c1565b600b828154811061111457611114613b80565b600091825260209182902060408051610260810182526013909302909101805460ff161515835260018101805483518187028101870190945280845293949193858301939283018282801561118857602002820191906000526020600020905b815481526020019060010190808311611174575b505050918352505060028201546020808301919091526003830154604080840191909152600484015460608085019190915281516080818101845260058088015460ff808216855261010080830482169886019890985262010000820481169685019690965263010000009004851693830193909352850152600685015460a0850152600785015460c0850152600885015460e08501526009850154929093019291169081111561123b5761123b6132fe565b600581111561124c5761124c6132fe565b8152604080518082018252600a84015460ff80821683526101009091041660208281019190915280840191909152600b840180548351818402810184018552818152939094019390918301828280156112c457602002820191906000526020600020905b8154815260200190600101908083116112b0575b50505050508152602001600c820180548060200260200160405190810160405280929190818152602001828054801561131c57602002820191906000526020600020905b815481526020019060010190808311611308575b50505050508152602001600d820180548060200260200160405190810160405280929190818152602001828054801561137457602002820191906000526020600020905b815481526020019060010190808311611360575b50505050508152602001600e82018054806020026020016040519081016040528092919081815260200182805480156113cc57602002820191906000526020600020905b8154815260200190600101908083116113b8575b50505050508152602001600f8201548152602001601082015481526020016011820154815260200160128201805480602002602001604051908101604052809291908181526020016000905b828210156114cb57838290600052602060002090600502016040518060a001604052908160008201548152602001600182015481526020016002820160009054906101000a900460ff166008811115611473576114736132fe565b6008811115611484576114846132fe565b8152604080518082018252600384015460ff808216835261010090910416602082810191909152808401919091526004909301549101529082526001929092019101611418565b505050915250909392505050565b6114e1612d4d565b6114eb6000612da7565b565b6000816000036114ff57506001919050565b8160010361150f57506000919050565b8160020361151f57506003919050565b8160030361152f57506002919050565b60405162461bcd60e51b815260206004820152600d60248201526c2130b2103234b932b1ba34b7b760991b60448201526064016107a3565b6000546001600160a01b031633146115ad5760405162461bcd60e51b81526020600482015260096024820152682737ba1037bbb732b960b91b60448201526064016107a3565b6109a1848484846121aa565b6115c1612d4d565b600280546001600160a01b03199081166001600160a01b039a8b1617909155600380548216978a169790971790965560078054871695891695909517909455600980548616938816939093179092556004805485169187169190911790556005805484169186169190911790556006805490921693169290921790915550565b604080518082019091526000808252602082015282600003611693576040518060400160405280600184600001516116799190613c6a565b60ff168152602001836020015160ff1681525090506107d8565b826001036116b7576040518060400160405280836000015160016116799190613c83565b826002036116f4576040518060400160405280836000015160ff168152602001836020015160016116e89190613c83565b60ff16905290506107d8565b82600303611725576040518060400160405280836000015160ff168152602001600184602001516116e89190613c6a565b600061173084612df7565b6040516020016117409190613cc0565b60405160208183030381529060405290508060405162461bcd60e51b81526004016107a39190613cfb565b60008082600161177c866002613e12565b6117869190613baf565b901b8516831c9150509392505050565b600c60205281600052604060002081815481106117b257600080fd5b90600052602060002001600091509150505481565b6009546001600160a01b031633146118305760405162461bcd60e51b815260206004820152602660248201527f4e6f7420616374696f6e7320636f6e7472616374202d20656e64506c6179657260448201526520b1ba34b7b760d11b60648201526084016107a3565b806118945760065460405163ce93229760e01b8152600481018490526001600160a01b039091169063ce93229790602401600060405180830381600087803b15801561187b57600080fd5b505af115801561188f573d6000803e3d6000fd5b505050505b6006546040516347d0e3c960e01b8152600481018490526000916001600160a01b0316906347d0e3c990602401602060405180830381865afa1580156118de573d6000803e3d6000fd5b505050506040513d601f19601f820116820180604052508101906119029190613e1e565b9050600381106109a1576109a18484612c71565b6001600160a01b0381166000908152600c60205260408120546060919067ffffffffffffffff81111561194b5761194b6133d8565b604051908082528060200260200182016040528015611974578160200160208202803683370190505b50905060005b8151811015610dd7576001600160a01b0384166000908152600c602052604090208054829081106119ad576119ad613b80565b90600052602060002001548282815181106119ca576119ca613b80565b6020908102919091010152806119df81613b96565b91505061197a565b60018054600091826119f883613b96565b9190505550600033600154600143611a109190613baf565b60405160609390931b6bffffffffffffffffffffffff19166020840152603483019190915240605482015260740160408051601f19818403018152919052805160209091012090506000611a648585613c6a565b611a6f906001613c83565b90508460ff168160ff1683611a849190613e37565b611a8e9190613c1a565b95945050505050565b6060600b8281548110611aac57611aac613b80565b9060005260206000209060130201601201805480602002602001604051908101604052809291908181526020016000905b82821015611b9057838290600052602060002090600502016040518060a001604052908160008201548152602001600182015481526020016002820160009054906101000a900460ff166008811115611b3857611b386132fe565b6008811115611b4957611b496132fe565b8152604080518082018252600384015460ff808216835261010090910416602082810191909152808401919091526004909301549101529082526001929092019101611add565b505050509050919050565b6007546000906001600160a01b03163314611bed5760405162461bcd60e51b8152602060048201526012602482015271139bdd081b1bd8989e4818dbdb9d1c9858dd60721b60448201526064016107a3565b600b80546001818101808455600093845260139092027f0175b7a638427703f0dbe7bb9bbf987a2551717b34e79f33b5b1008d1fa01db9019291611c319190613baf565b825460ff191660019081178455600060048501558751919250611c5c91908401906020890190613176565b50600382018590556040805160808101825260008082526020820181905291810182905260600181905260058301805463ffffffff19169055849003611d1f57600360009054906101000a90046001600160a01b03166001600160a01b031663f01fc35a6040518163ffffffff1660e01b81526004016020604051808303816000875af1158015611cf1573d6000803e3d6000fd5b505050506040513d601f19601f82011682018060405250810190611d159190613e1e565b6006830155611d94565b60035460405163148e052f60e21b8152600481018690526001600160a01b039091169063523814bc906024016020604051808303816000875af1158015611d6a573d6000803e3d6000fd5b505050506040513d601f19601f82011682018060405250810190611d8e9190613e1e565b60068301555b60005b611da2600187613baf565b8111611eca57600683015460408051808201909152600a5460ff8082168352610100909104166020820152600185018054611dfc9392919085908110611dea57611dea613b80565b906000526020600020015460006121aa565b60065487516000916001600160a01b031690636621a421908a9085908110611e2657611e26613b80565b60200260200101516040518263ffffffff1660e01b8152600401611e4c91815260200190565b602060405180830381865afa158015611e69573d6000803e3d6000fd5b505050506040513d601f19601f82011682018060405250810190611e8d9190613c4d565b6001600160a01b03166000908152600c60209081526040822080546001810182559083529120018390555080611ec281613b96565b915050611d97565b5060065460405163e7169ec560e01b81526001600160a01b039091169063e7169ec590611efd9089908590600401613e4b565b600060405180830381600087803b158015611f1757600080fd5b505af1158015611f2b573d6000803e3d6000fd5b5050600554604051633b09709560e21b81526001600160a01b03909116925063ec25c2549150611f619084908a90600401613e6d565b600060405180830381600087803b158015611f7b57600080fd5b505af1158015611f8f573d6000803e3d6000fd5b505050506000604051806101e00160405280600181526020016002815260200160038152602001600481526020016005815260200160068152602001600781526020016008815260200160098152602001600a8152602001600b8152602001600c8152602001600d8152602001600e8152602001600f81525090508083600b0190600f61201d929190613176565b5061202d600c840182600f613176565b5061203d600d840182600f613176565b5061204d600e840182600f613176565b505061012c600f83015542601090920191909155949350505050565b612071612d4d565b6001600160a01b0381166120d65760405162461bcd60e51b815260206004820152602660248201527f4f776e61626c653a206e6577206f776e657220697320746865207a65726f206160448201526564647265737360d01b60648201526084016107a3565b6120df81612da7565b50565b805182516000916120f291613e86565b60000b600103612104575060006107d8565b815183516121129190613e86565b60000b19612122575060016107d8565b816020015183602001516121369190613e86565b60000b19612146575060026107d8565b8160200151836020015161215a9190613e86565b60000b60010361216c575060036107d8565b60405162461bcd60e51b8152602060048201526013602482015272115c9c9bdc8e88139bdd0818591a9858d95b9d606a1b60448201526064016107a3565b6000600b85815481106121bf576121bf613b80565b90600052602060002090601302019050806001016000815481106121e5576121e5613b80565b906000526020600020015483148061221c57508060010160018154811061220e5761220e613b80565b906000526020600020015483145b8061224657508060010160028154811061223857612238613b80565b906000526020600020015483145b8061227057508060010160038154811061226257612262613b80565b906000526020600020015483145b6122bc5760405162461bcd60e51b815260206004820152601760248201527f506c61796572206e6f7420696e20746869732067616d6500000000000000000060448201526064016107a3565b600654600b80546001600160a01b0390921691638d491b3e9187918791908a9081106122ea576122ea613b80565b9060005260206000209060130201600601546040518463ffffffff1660e01b815260040161231a93929190613ea7565b6020604051808303816000875af1158015612339573d6000803e3d6000fd5b505050506040513d601f19601f8201168201806040525081019061235d9190613ee1565b612b9e57600354600b80546000926001600160a01b0316916381bad36d918990811061238b5761238b613b80565b90600052602060002090601302016006015487600001518860200151876040518563ffffffff1660e01b81526004016123e1949392919093845260ff928316602085015291166040830152606082015260800190565b6020604051808303816000875af1158015612400573d6000803e3d6000fd5b505050506040513d601f19601f820116820180604052508101906124249190613e1e565b600354600b80549293506000926001600160a01b0390921691635805828391908a90811061245457612454613b80565b906000526020600020906013020160060154846040518363ffffffff1660e01b815260040161248d929190918252602082015260400190565b60a060405180830381865afa1580156124aa573d6000803e3d6000fd5b505050506040513d601f19601f820116820180604052508101906124ce9190613f09565b90506002821180156124f357506000815160058111156124f0576124f06132fe565b14155b15610ce35760018151600581111561250d5761250d6132fe565b0361256057600b878154811061252557612525613b80565b600091825260208220600560139092020101805460ff169161254683613f9c565b91906101000a81548160ff021916908360ff160217905550505b600281516005811115612575576125756132fe565b036125d057600b878154811061258d5761258d613b80565b600091825260209091206013909102016005018054610100900460ff169060016125b683613f9c565b91906101000a81548160ff021916908360ff160217905550505b6003815160058111156125e5576125e56132fe565b0361264157600b87815481106125fd576125fd613b80565b60009182526020909120601390910201600501805462010000900460ff1690600261262783613f9c565b91906101000a81548160ff021916908360ff160217905550505b600481516005811115612656576126566132fe565b036126b357600b878154811061266e5761266e613b80565b6000918252602090912060139091020160050180546301000000900460ff1690600361269983613f9c565b91906101000a81548160ff021916908360ff160217905550505b6020810151156128325760048054602083015160405163c82c37b960e01b8152928301526000916001600160a01b039091169063c82c37b990602401600060405180830381865afa15801561270c573d6000803e3d6000fd5b505050506040513d6000823e601f3d908101601f191682016040526127349190810190614053565b9050806020015161282c5785600b898154811061275357612753613b80565b9060005260206000209060130201600701819055508160200151600b898154811061278057612780613b80565b9060005260206000209060130201600801819055506005600b89815481106127aa576127aa613b80565b60009182526020909120600960139092020101805460ff191660018360058111156127d7576127d76132fe565b021790555086600b89815481106127f0576127f0613b80565b60009182526020918290208351600a6013909302909101919091018054939092015160ff9081166101000261ffff199094169116179190911790555b50610ce3565b600081516005811115612847576128476132fe565b14610ce35784600b888154811061286057612860613b80565b90600052602060002090601302016007018190555085600b888154811061288957612889613b80565b60009182526020918290208351600a6013909302909101919091018054939092015160ff9081166101000261ffff199094169116179190911790556001815160058111156128d9576128d96132fe565b0361297a5761290a600b88815481106128f4576128f4613b80565b9060005260206000209060130201600b01612f00565b600b888154811061291d5761291d613b80565b9060005260206000209060130201600801819055506001600b888154811061294757612947613b80565b60009182526020909120600960139092020101805460ff19166001836005811115612974576129746132fe565b02179055505b60028151600581111561298f5761298f6132fe565b03612a30576129c0600b88815481106129aa576129aa613b80565b9060005260206000209060130201600c01612f00565b600b88815481106129d3576129d3613b80565b9060005260206000209060130201600801819055506002600b88815481106129fd576129fd613b80565b60009182526020909120600960139092020101805460ff19166001836005811115612a2a57612a2a6132fe565b02179055505b600381516005811115612a4557612a456132fe565b03612ae657612a76600b8881548110612a6057612a60613b80565b9060005260206000209060130201600d01612f00565b600b8881548110612a8957612a89613b80565b9060005260206000209060130201600801819055506003600b8881548110612ab357612ab3613b80565b60009182526020909120600960139092020101805460ff19166001836005811115612ae057612ae06132fe565b02179055505b600481516005811115612afb57612afb6132fe565b03610ce357612b2c600b8881548110612b1657612b16613b80565b9060005260206000209060130201600e01612f00565b600b8881548110612b3f57612b3f613b80565b9060005260206000209060130201600801819055506004600b8881548110612b6957612b69613b80565b60009182526020909120600960139092020101805460ff19166001836005811115612b9657612b966132fe565b021790555050505b5050505050565b6000600b8381548110612bba57612bba613b80565b6000918252602090912060068054601390930290910160078101549181015460088201546009830154604051636d291bbb60e01b81529396506001600160a01b0390951694636d291bbb94612c2294899491938b93600a8b019260ff90911690600401614145565b600060405180830381600087803b158015612c3c57600080fd5b505af1158015612c50573d6000803e3d6000fd5b505060006007840181905560088401555050600901805460ff191690555050565b6000600b8381548110612c8657612c86613b80565b6000918252602090912060065460405163065c363f60e41b815260048101869052601390930290910192506001600160a01b0316906365c363f090602401600060405180830381600087803b158015612cde57600080fd5b505af1158015612cf2573d6000803e3d6000fd5b50504260108401555050600180820154612d0c9190613baf565b81600201541015612d3357600281018054906000612d2983613b96565b9190505550505050565b612d41838260060154613026565b60006002820155505050565b6000546001600160a01b031633146114eb5760405162461bcd60e51b815260206004820181905260248201527f4f776e61626c653a2063616c6c6572206973206e6f7420746865206f776e657260448201526064016107a3565b600080546001600160a01b038381166001600160a01b0319831681178455604051919092169283917f8be0079c531659141344cd1fd0a4f28419497f9722a3daafe3b4186f6b6457e09190a35050565b606081600003612e1e5750506040805180820190915260018152600360fc1b602082015290565b8160005b8115612e485780612e3281613b96565b9150612e419050600a83613c06565b9150612e22565b60008167ffffffffffffffff811115612e6357612e636133d8565b6040519080825280601f01601f191660200182016040528015612e8d576020820181803683370190505b5090505b8415612ef857612ea2600183613baf565b9150612eaf600a86613e37565b612eba906030613c1a565b60f81b818381518110612ecf57612ecf613b80565b60200101906001600160f81b031916908160001a905350612ef1600a86613c06565b9450612e91565b949350505050565b80546000908190612f1390600190613baf565b90505b8015612fc3576000612f296000836119e7565b9050838160ff1681548110612f4057612f40613b80565b9060005260206000200154848381548110612f5d57612f5d613b80565b9060005260206000200154858481548110612f7a57612f7a613b80565b906000526020600020016000878560ff1681548110612f9b57612f9b613b80565b6000918252602090912001929092559190915550819050612fbb81613bc2565b915050612f16565b5081546000908390612fd790600190613baf565b81548110612fe757612fe7613b80565b90600052602060002001549050828054806130045761300461419a565b600190038181906000526020600020016000905590558060ff16915050919050565b6000600b838154811061303b5761303b613b80565b60009182526020909120600354604051630b06115560e31b815260048101869052601390930290910192506001600160a01b0316906358308aa890602401600060405180830381600087803b15801561309357600080fd5b505af11580156130a7573d6000803e3d6000fd5b505060035460405163c6b41b4560e01b815260048101869052600160248201526001600160a01b03909116925063c6b41b459150604401600060405180830381600087803b1580156130f857600080fd5b505af115801561310c573d6000803e3d6000fd5b5050600680549084015460405163668a7f3b60e01b81526001600160a01b03909216935063668a7f3b92506131489160018601906004016141b0565b600060405180830381600087803b15801561316257600080fd5b505af1158015610ce3573d6000803e3d6000fd5b8280548282559060005260206000209081019282156131b1579160200282015b828111156131b1578251825591602001919060010190613196565b506131bd9291506132a1565b5090565b60408051610260810182526000808252606060208084018290528385018390528184018390526080808501849052855190810186528381529081018390529384018290528301529060a082019081526020016000815260200160008152602001600081526020016000600581111561323b5761323b6132fe565b81526020016132636040518060400160405280600060ff168152602001600060ff1681525090565b815260200160608152602001606081526020016060815260200160608152602001600081526020016000815260200160008152602001606081525090565b5b808211156131bd57600081556001016132a2565b8035600981106132c557600080fd5b919050565b6000602082840312156132dc57600080fd5b610fd5826132b6565b6000602082840312156132f757600080fd5b5035919050565b634e487b7160e01b600052602160045260246000fd5b60068110613324576133246132fe565b9052565b8d1515815260208082018e905260408083018e905260608084018e90528c5160ff9081166080860152928d0151831660a0850152908c0151821660c08401528b01511660e08201526102208101896101008301528861012083015287610140830152613398610160830188613314565b855160ff9081166101808401526020870151166101a0830152846101c0830152836101e0830152826102008301529e9d5050505050505050505050505050565b634e487b7160e01b600052604160045260246000fd5b6040805190810167ffffffffffffffff81118282101715613411576134116133d8565b60405290565b60405160e0810167ffffffffffffffff81118282101715613411576134116133d8565b604051601f8201601f1916810167ffffffffffffffff81118282101715613463576134636133d8565b604052919050565b60ff811681146120df57600080fd5b60006040828403121561348c57600080fd5b6134946133ee565b905081356134a18161346b565b815260208201356134b18161346b565b602082015292915050565b6000806000608084860312156134d157600080fd5b833592506134e2856020860161347a565b9150606084013590509250925092565b6000806000806080858703121561350857600080fd5b84359350613518602086016132b6565b93969395505050506040820135916060013590565b6000806000806080858703121561354357600080fd5b5050823594602084013594506040840135936060013592509050565b600081518084526020808501945080840160005b8381101561358f57815187529582019590820190600101613573565b509495945050505050565b602081526000610fd5602083018461355f565b6000806000606084860312156135c257600080fd5b505081359360208301359350604090920135919050565b600080604083850312156135ec57600080fd5b50508035926020909101359150565b600081518084526020808501945080840160005b8381101561358f5781518051885283810151848901526040808201516009811061363b5761363b6132fe565b90890152606081810151805160ff908116838c015260208201511660808b015250506080015160a088015260c0909601959082019060010161360f565b6020815261368b60208201835115159052565b600060208301516102e08060408501526136a961030085018361355f565b91506040850151606085015260608501516080850152608085015160a085015260a085015161370860c086018260ff815116825260ff602082015116602083015260ff604082015116604083015260ff60608201511660608301525050565b5060c0850151610140818187015260e0870151915061016082818801526101008801519250610180838189015261012089015193506101a061374c818a0186613314565b9289015193506101c09261377289850186805160ff908116835260209182015116910152565b828a01519450601f199250610200838a890301818b0152613793888761355f565b9750828b015195506102209250838a890301838b01526137b3888761355f565b9750818b015195506102409150838a890301828b01526137d3888761355f565b9750848b01519550838a8903016102608b01526137f0888761355f565b6101e08c01516102808c0152908b01516102a08b0152918a01516102c08a0152890151888203909201858901529450915061382d905083826135fb565b9695505050505050565b60008060008060a0858703121561384d57600080fd5b8435935061385e866020870161347a565b93969395505050506060820135916080013590565b6001600160a01b03811681146120df57600080fd5b600080600080600080600080610100898b0312156138a557600080fd5b88356138b081613873565b975060208901356138c081613873565b965060408901356138d081613873565b955060608901356138e081613873565b945060808901356138f081613873565b935060a089013561390081613873565b925060c089013561391081613873565b915060e089013561392081613873565b809150509295985092959890939650565b6000806060838503121561394457600080fd5b82359150613955846020850161347a565b90509250929050565b604081016107d88284805160ff908116835260209182015116910152565b6000806040838503121561398f57600080fd5b823561399a81613873565b946020939093013593505050565b80151581146120df57600080fd5b6000806000606084860312156139cb57600080fd5b833592506020840135915060408401356139e4816139a8565b809150509250925092565b600060208284031215613a0157600080fd5b8135610fd581613873565b60008060408385031215613a1f57600080fd5b8235613a2a8161346b565b91506020830135613a3a8161346b565b809150509250929050565b602081526000610fd560208301846135fb565b600067ffffffffffffffff821115613a7257613a726133d8565b5060051b60200190565b600080600060608486031215613a9157600080fd5b833567ffffffffffffffff811115613aa857600080fd5b8401601f81018613613ab957600080fd5b80356020613ace613ac983613a58565b61343a565b82815260059290921b83018101918181019089841115613aed57600080fd5b938201935b83851015613b0b57843582529382019390820190613af2565b999188013598505060409096013595945050505050565b60008060808385031215613b3557600080fd5b613b3f848461347a565b9150613955846040850161347a565b634e487b7160e01b600052601160045260246000fd5b6000600160ff1b8201613b7957613b79613b4e565b5060000390565b634e487b7160e01b600052603260045260246000fd5b600060018201613ba857613ba8613b4e565b5060010190565b818103818111156107d8576107d8613b4e565b600081613bd157613bd1613b4e565b506000190190565b80820281158282048414176107d8576107d8613b4e565b634e487b7160e01b600052601260045260246000fd5b600082613c1557613c15613bf0565b500490565b808201808211156107d8576107d8613b4e565b8181036000831280158383131683831282161715610dd757610dd7613b4e565b600060208284031215613c5f57600080fd5b8151610fd581613873565b60ff82811682821603908111156107d8576107d8613b4e565b60ff81811683821601908111156107d8576107d8613b4e565b60005b83811015613cb7578181015183820152602001613c9f565b50506000910152565b72024b73b30b634b2103234b932b1ba34b7b71d1606d1b815260008251613cee816013850160208701613c9c565b9190910160130192915050565b6020815260008251806020840152613d1a816040850160208701613c9c565b601f01601f19169190910160400192915050565b600181815b80851115613d69578160001904821115613d4f57613d4f613b4e565b80851615613d5c57918102915b93841c9390800290613d33565b509250929050565b600082613d80575060016107d8565b81613d8d575060006107d8565b8160018114613da35760028114613dad57613dc9565b60019150506107d8565b60ff841115613dbe57613dbe613b4e565b50506001821b6107d8565b5060208310610133831016604e8410600b8410161715613dec575081810a6107d8565b613df68383613d2e565b8060001904821115613e0a57613e0a613b4e565b029392505050565b6000610fd58383613d71565b600060208284031215613e3057600080fd5b5051919050565b600082613e4657613e46613bf0565b500690565b604081526000613e5e604083018561355f565b90508260208301529392505050565b828152604060208201526000612ef8604083018461355f565b600082810b9082900b03607f198112607f821317156107d8576107d8613b4e565b60808101613ec58286805160ff908116835260209182015116910152565b604082019390935260600152919050565b80516132c5816139a8565b600060208284031215613ef357600080fd5b8151610fd5816139a8565b80516132c58161346b565b600060a08284031215613f1b57600080fd5b60405160a0810181811067ffffffffffffffff82111715613f3e57613f3e6133d8565b604052825160068110613f5057600080fd5b8152602083810151908201526040830151613f6a8161346b565b60408201526060830151613f7d8161346b565b60608201526080830151613f90816139a8565b60808201529392505050565b600060ff821660ff8103613fb257613fb2613b4e565b60010192915050565b600082601f830112613fcc57600080fd5b81516020613fdc613ac983613a58565b82815260069290921b84018101918181019086841115613ffb57600080fd5b8286015b8481101561404857604081890312156140185760008081fd5b6140206133ee565b8151601781106140305760008081fd5b81528185015185820152835291830191604001613fff565b509695505050505050565b60006020828403121561406557600080fd5b815167ffffffffffffffff8082111561407d57600080fd5b9083019060e0828603121561409157600080fd5b614099613417565b825181526140a960208401613ed6565b60208201526140ba60408401613efe565b60408201526140cb60608401613efe565b60608201526080830151828111156140e257600080fd5b6140ee87828601613fbb565b60808301525060a08301518281111561410657600080fd5b61411287828601613fbb565b60a08301525060c08301518281111561412a57600080fd5b61413687828601613fbb565b60c08301525095945050505050565b600061010082019050888252876020830152866040830152856060830152845460ff8116608084015260ff8160081c1660a0840152508360c083015261418e60e0830184613314565b98975050505050505050565b634e487b7160e01b600052603160045260246000fd5b60006040820184835260206040818501528185548084526060860191508660005282600020935060005b818110156141f6578454835260019485019492840192016141da565b509097965050505050505056fea264697066735822122006960de7868617386762c4d19b7374fee1d503babfbe025b5d312fa10fe7a13b64736f6c63430008110033",
  "devdoc": {
    "kind": "dev",
    "methods": {
      "owner()": {
        "details": "Returns the address of the current owner."
      },
      "renounceOwnership()": {
        "details": "Leaves the contract without owner. It will not be possible to call `onlyOwner` functions anymore. Can only be called by the current owner. NOTE: Renouncing ownership will leave the contract without an owner, thereby removing any functionality that is only available to the owner."
      },
      "transferOwnership(address)": {
        "details": "Transfers ownership of the contract to a new account (`newOwner`). Can only be called by the current owner."
      }
    },
    "version": 1
  },
  "userdoc": {
    "kind": "user",
    "methods": {},
    "version": 1
  },
  "storageLayout": {
    "storage": [
      {
        "astId": 7,
        "contract": "contracts/BCGames.sol:BCGames",
        "label": "_owner",
        "offset": 0,
        "slot": "0",
        "type": "t_address"
      },
      {
        "astId": 10398,
        "contract": "contracts/BCGames.sol:BCGames",
        "label": "TODO_randomSeed",
        "offset": 0,
        "slot": "1",
        "type": "t_uint256"
      },
      {
        "astId": 6319,
        "contract": "contracts/BCGames.sol:BCGames",
        "label": "chars",
        "offset": 0,
        "slot": "2",
        "type": "t_contract(CharInterface)6090"
      },
      {
        "astId": 6322,
        "contract": "contracts/BCGames.sol:BCGames",
        "label": "maps",
        "offset": 0,
        "slot": "3",
        "type": "t_contract(MapInterface)6203"
      },
      {
        "astId": 6325,
        "contract": "contracts/BCGames.sol:BCGames",
        "label": "bcEvents",
        "offset": 0,
        "slot": "4",
        "type": "t_contract(EventsInterface)6071"
      },
      {
        "astId": 6328,
        "contract": "contracts/BCGames.sol:BCGames",
        "label": "items",
        "offset": 0,
        "slot": "5",
        "type": "t_contract(ItemsInterface)6232"
      },
      {
        "astId": 6331,
        "contract": "contracts/BCGames.sol:BCGames",
        "label": "players",
        "offset": 0,
        "slot": "6",
        "type": "t_contract(PlayersInterface)6312"
      },
      {
        "astId": 6333,
        "contract": "contracts/BCGames.sol:BCGames",
        "label": "lobbiesAddress",
        "offset": 0,
        "slot": "7",
        "type": "t_address"
      },
      {
        "astId": 6335,
        "contract": "contracts/BCGames.sol:BCGames",
        "label": "charsAddress",
        "offset": 0,
        "slot": "8",
        "type": "t_address"
      },
      {
        "astId": 6337,
        "contract": "contracts/BCGames.sol:BCGames",
        "label": "actionsAddress",
        "offset": 0,
        "slot": "9",
        "type": "t_address"
      },
      {
        "astId": 6411,
        "contract": "contracts/BCGames.sol:BCGames",
        "label": "StartLocation",
        "offset": 0,
        "slot": "10",
        "type": "t_struct(Position)10183_storage"
      },
      {
        "astId": 6415,
        "contract": "contracts/BCGames.sol:BCGames",
        "label": "games",
        "offset": 0,
        "slot": "11",
        "type": "t_array(t_struct(Game)10282_storage)dyn_storage"
      },
      {
        "astId": 6420,
        "contract": "contracts/BCGames.sol:BCGames",
        "label": "addressToGame",
        "offset": 0,
        "slot": "12",
        "type": "t_mapping(t_address,t_array(t_uint256)dyn_storage)"
      },
      {
        "astId": 6425,
        "contract": "contracts/BCGames.sol:BCGames",
        "label": "denizenHealth",
        "offset": 0,
        "slot": "13",
        "type": "t_mapping(t_enum(DenizenType)10123,t_uint256)"
      },
      {
        "astId": 6430,
        "contract": "contracts/BCGames.sol:BCGames",
        "label": "denizenDef",
        "offset": 0,
        "slot": "14",
        "type": "t_mapping(t_enum(DenizenType)10123,t_uint256)"
      },
      {
        "astId": 6435,
        "contract": "contracts/BCGames.sol:BCGames",
        "label": "denizenOff",
        "offset": 0,
        "slot": "15",
        "type": "t_mapping(t_enum(DenizenType)10123,t_uint256)"
      },
      {
        "astId": 6440,
        "contract": "contracts/BCGames.sol:BCGames",
        "label": "denizenDmg",
        "offset": 0,
        "slot": "16",
        "type": "t_mapping(t_enum(DenizenType)10123,t_uint256)"
      }
    ],
    "types": {
      "t_address": {
        "encoding": "inplace",
        "label": "address",
        "numberOfBytes": "20"
      },
      "t_array(t_struct(Denizen)10169_storage)dyn_storage": {
        "base": "t_struct(Denizen)10169_storage",
        "encoding": "dynamic_array",
        "label": "struct BCTypes.Denizen[]",
        "numberOfBytes": "32"
      },
      "t_array(t_struct(Game)10282_storage)dyn_storage": {
        "base": "t_struct(Game)10282_storage",
        "encoding": "dynamic_array",
        "label": "struct BCTypes.Game[]",
        "numberOfBytes": "32"
      },
      "t_array(t_uint256)dyn_storage": {
        "base": "t_uint256",
        "encoding": "dynamic_array",
        "label": "uint256[]",
        "numberOfBytes": "32"
      },
      "t_bool": {
        "encoding": "inplace",
        "label": "bool",
        "numberOfBytes": "1"
      },
      "t_contract(CharInterface)6090": {
        "encoding": "inplace",
        "label": "contract CharInterface",
        "numberOfBytes": "20"
      },
      "t_contract(EventsInterface)6071": {
        "encoding": "inplace",
        "label": "contract EventsInterface",
        "numberOfBytes": "20"
      },
      "t_contract(ItemsInterface)6232": {
        "encoding": "inplace",
        "label": "contract ItemsInterface",
        "numberOfBytes": "20"
      },
      "t_contract(MapInterface)6203": {
        "encoding": "inplace",
        "label": "contract MapInterface",
        "numberOfBytes": "20"
      },
      "t_contract(PlayersInterface)6312": {
        "encoding": "inplace",
        "label": "contract PlayersInterface",
        "numberOfBytes": "20"
      },
      "t_enum(BCEventType)10091": {
        "encoding": "inplace",
        "label": "enum BCTypes.BCEventType",
        "numberOfBytes": "1"
      },
      "t_enum(DenizenType)10123": {
        "encoding": "inplace",
        "label": "enum BCTypes.DenizenType",
        "numberOfBytes": "1"
      },
      "t_mapping(t_address,t_array(t_uint256)dyn_storage)": {
        "encoding": "mapping",
        "key": "t_address",
        "label": "mapping(address => uint256[])",
        "numberOfBytes": "32",
        "value": "t_array(t_uint256)dyn_storage"
      },
      "t_mapping(t_enum(DenizenType)10123,t_uint256)": {
        "encoding": "mapping",
        "key": "t_enum(DenizenType)10123",
        "label": "mapping(enum BCTypes.DenizenType => uint256)",
        "numberOfBytes": "32",
        "value": "t_uint256"
      },
      "t_struct(Denizen)10169_storage": {
        "encoding": "inplace",
        "label": "struct BCTypes.Denizen",
        "members": [
          {
            "astId": 10158,
            "contract": "contracts/BCGames.sol:BCGames",
            "label": "id",
            "offset": 0,
            "slot": "0",
            "type": "t_uint256"
          },
          {
            "astId": 10160,
            "contract": "contracts/BCGames.sol:BCGames",
            "label": "gameId",
            "offset": 0,
            "slot": "1",
            "type": "t_uint256"
          },
          {
            "astId": 10163,
            "contract": "contracts/BCGames.sol:BCGames",
            "label": "denizenType",
            "offset": 0,
            "slot": "2",
            "type": "t_enum(DenizenType)10123"
          },
          {
            "astId": 10166,
            "contract": "contracts/BCGames.sol:BCGames",
            "label": "position",
            "offset": 0,
            "slot": "3",
            "type": "t_struct(Position)10183_storage"
          },
          {
            "astId": 10168,
            "contract": "contracts/BCGames.sol:BCGames",
            "label": "healthRemaining",
            "offset": 0,
            "slot": "4",
            "type": "t_uint256"
          }
        ],
        "numberOfBytes": "160"
      },
      "t_struct(EventTracker)10178_storage": {
        "encoding": "inplace",
        "label": "struct BCTypes.EventTracker",
        "members": [
          {
            "astId": 10171,
            "contract": "contracts/BCGames.sol:BCGames",
            "label": "bugEvents",
            "offset": 0,
            "slot": "0",
            "type": "t_uint8"
          },
          {
            "astId": 10173,
            "contract": "contracts/BCGames.sol:BCGames",
            "label": "mysteryEvents",
            "offset": 1,
            "slot": "0",
            "type": "t_uint8"
          },
          {
            "astId": 10175,
            "contract": "contracts/BCGames.sol:BCGames",
            "label": "scavEvents",
            "offset": 2,
            "slot": "0",
            "type": "t_uint8"
          },
          {
            "astId": 10177,
            "contract": "contracts/BCGames.sol:BCGames",
            "label": "shipEvents",
            "offset": 3,
            "slot": "0",
            "type": "t_uint8"
          }
        ],
        "numberOfBytes": "32"
      },
      "t_struct(Game)10282_storage": {
        "encoding": "inplace",
        "label": "struct BCTypes.Game",
        "members": [
          {
            "astId": 10235,
            "contract": "contracts/BCGames.sol:BCGames",
            "label": "active",
            "offset": 0,
            "slot": "0",
            "type": "t_bool"
          },
          {
            "astId": 10238,
            "contract": "contracts/BCGames.sol:BCGames",
            "label": "playerIndexes",
            "offset": 0,
            "slot": "1",
            "type": "t_array(t_uint256)dyn_storage"
          },
          {
            "astId": 10240,
            "contract": "contracts/BCGames.sol:BCGames",
            "label": "currentPlayerTurnIndex",
            "offset": 0,
            "slot": "2",
            "type": "t_uint256"
          },
          {
            "astId": 10242,
            "contract": "contracts/BCGames.sol:BCGames",
            "label": "numPlayers",
            "offset": 0,
            "slot": "3",
            "type": "t_uint256"
          },
          {
            "astId": 10244,
            "contract": "contracts/BCGames.sol:BCGames",
            "label": "turnsTaken",
            "offset": 0,
            "slot": "4",
            "type": "t_uint256"
          },
          {
            "astId": 10247,
            "contract": "contracts/BCGames.sol:BCGames",
            "label": "eventTracker",
            "offset": 0,
            "slot": "5",
            "type": "t_struct(EventTracker)10178_storage"
          },
          {
            "astId": 10249,
            "contract": "contracts/BCGames.sol:BCGames",
            "label": "mapId",
            "offset": 0,
            "slot": "6",
            "type": "t_uint256"
          },
          {
            "astId": 10251,
            "contract": "contracts/BCGames.sol:BCGames",
            "label": "eventPlayerId",
            "offset": 0,
            "slot": "7",
            "type": "t_uint256"
          },
          {
            "astId": 10253,
            "contract": "contracts/BCGames.sol:BCGames",
            "label": "eventNumber",
            "offset": 0,
            "slot": "8",
            "type": "t_uint256"
          },
          {
            "astId": 10256,
            "contract": "contracts/BCGames.sol:BCGames",
            "label": "eventType",
            "offset": 0,
            "slot": "9",
            "type": "t_enum(BCEventType)10091"
          },
          {
            "astId": 10259,
            "contract": "contracts/BCGames.sol:BCGames",
            "label": "eventPosition",
            "offset": 0,
            "slot": "10",
            "type": "t_struct(Position)10183_storage"
          },
          {
            "astId": 10262,
            "contract": "contracts/BCGames.sol:BCGames",
            "label": "unusedBugEvents",
            "offset": 0,
            "slot": "11",
            "type": "t_array(t_uint256)dyn_storage"
          },
          {
            "astId": 10265,
            "contract": "contracts/BCGames.sol:BCGames",
            "label": "unusedMysteryEvents",
            "offset": 0,
            "slot": "12",
            "type": "t_array(t_uint256)dyn_storage"
          },
          {
            "astId": 10268,
            "contract": "contracts/BCGames.sol:BCGames",
            "label": "unusedScavEvents",
            "offset": 0,
            "slot": "13",
            "type": "t_array(t_uint256)dyn_storage"
          },
          {
            "astId": 10271,
            "contract": "contracts/BCGames.sol:BCGames",
            "label": "unusedShipEvents",
            "offset": 0,
            "slot": "14",
            "type": "t_array(t_uint256)dyn_storage"
          },
          {
            "astId": 10273,
            "contract": "contracts/BCGames.sol:BCGames",
            "label": "turnTimeLimit",
            "offset": 0,
            "slot": "15",
            "type": "t_uint256"
          },
          {
            "astId": 10275,
            "contract": "contracts/BCGames.sol:BCGames",
            "label": "lastTurnTimestamp",
            "offset": 0,
            "slot": "16",
            "type": "t_uint256"
          },
          {
            "astId": 10277,
            "contract": "contracts/BCGames.sol:BCGames",
            "label": "DEBUG_returnAmount",
            "offset": 0,
            "slot": "17",
            "type": "t_uint256"
          },
          {
            "astId": 10281,
            "contract": "contracts/BCGames.sol:BCGames",
            "label": "denizens",
            "offset": 0,
            "slot": "18",
            "type": "t_array(t_struct(Denizen)10169_storage)dyn_storage"
          }
        ],
        "numberOfBytes": "608"
      },
      "t_struct(Position)10183_storage": {
        "encoding": "inplace",
        "label": "struct BCTypes.Position",
        "members": [
          {
            "astId": 10180,
            "contract": "contracts/BCGames.sol:BCGames",
            "label": "row",
            "offset": 0,
            "slot": "0",
            "type": "t_uint8"
          },
          {
            "astId": 10182,
            "contract": "contracts/BCGames.sol:BCGames",
            "label": "col",
            "offset": 1,
            "slot": "0",
            "type": "t_uint8"
          }
        ],
        "numberOfBytes": "32"
      },
      "t_uint256": {
        "encoding": "inplace",
        "label": "uint256",
        "numberOfBytes": "32"
      },
      "t_uint8": {
        "encoding": "inplace",
        "label": "uint8",
        "numberOfBytes": "1"
      }
    }
  }
}