{
  "address": "0xcf46fD08a08F0b51d33253e20be7D63481541223",
  "abi": [
    {
      "inputs": [],
      "stateMutability": "nonpayable",
      "type": "constructor"
    },
    {
      "anonymous": false,
      "inputs": [
        {
          "indexed": true,
          "internalType": "address",
          "name": "previousOwner",
          "type": "address"
        },
        {
          "indexed": true,
          "internalType": "address",
          "name": "newOwner",
          "type": "address"
        }
      ],
      "name": "OwnershipTransferred",
      "type": "event"
    },
    {
      "inputs": [],
      "name": "StartLocation",
      "outputs": [
        {
          "internalType": "uint8",
          "name": "row",
          "type": "uint8"
        },
        {
          "internalType": "uint8",
          "name": "col",
          "type": "uint8"
        }
      ],
      "stateMutability": "view",
      "type": "function"
    },
    {
      "inputs": [],
      "name": "actionsAddress",
      "outputs": [
        {
          "internalType": "address",
          "name": "",
          "type": "address"
        }
      ],
      "stateMutability": "view",
      "type": "function"
    },
    {
      "inputs": [
        {
          "internalType": "address",
          "name": "",
          "type": "address"
        },
        {
          "internalType": "uint256",
          "name": "",
          "type": "uint256"
        }
      ],
      "name": "addressToGame",
      "outputs": [
        {
          "internalType": "uint256",
          "name": "",
          "type": "uint256"
        }
      ],
      "stateMutability": "view",
      "type": "function"
    },
    {
      "inputs": [],
      "name": "bcEvents",
      "outputs": [
        {
          "internalType": "contract EventsInterface",
          "name": "",
          "type": "address"
        }
      ],
      "stateMutability": "view",
      "type": "function"
    },
    {
      "inputs": [],
      "name": "chars",
      "outputs": [
        {
          "internalType": "contract CharInterface",
          "name": "",
          "type": "address"
        }
      ],
      "stateMutability": "view",
      "type": "function"
    },
    {
      "inputs": [],
      "name": "charsAddress",
      "outputs": [
        {
          "internalType": "address",
          "name": "",
          "type": "address"
        }
      ],
      "stateMutability": "view",
      "type": "function"
    },
    {
      "inputs": [
        {
          "internalType": "uint256",
          "name": "_gameId",
          "type": "uint256"
        },
        {
          "internalType": "uint256",
          "name": "_playerId",
          "type": "uint256"
        }
      ],
      "name": "endPlayerAction",
      "outputs": [],
      "stateMutability": "nonpayable",
      "type": "function"
    },
    {
      "inputs": [
        {
          "internalType": "uint256",
          "name": "_id",
          "type": "uint256"
        }
      ],
      "name": "extGetGame",
      "outputs": [
        {
          "components": [
            {
              "internalType": "bool",
              "name": "active",
              "type": "bool"
            },
            {
              "internalType": "uint256[]",
              "name": "playerIndexes",
              "type": "uint256[]"
            },
            {
              "internalType": "uint256",
              "name": "currentPlayerTurnIndex",
              "type": "uint256"
            },
            {
              "internalType": "uint256",
              "name": "numPlayers",
              "type": "uint256"
            },
            {
              "internalType": "uint256",
              "name": "turnsTaken",
              "type": "uint256"
            },
            {
              "components": [
                {
                  "internalType": "uint8",
                  "name": "bugEvents",
                  "type": "uint8"
                },
                {
                  "internalType": "uint8",
                  "name": "mysteryEvents",
                  "type": "uint8"
                },
                {
                  "internalType": "uint8",
                  "name": "scavEvents",
                  "type": "uint8"
                },
                {
                  "internalType": "uint8",
                  "name": "shipEvents",
                  "type": "uint8"
                }
              ],
              "internalType": "struct BCTypes.EventTracker",
              "name": "eventTracker",
              "type": "tuple"
            },
            {
              "internalType": "address",
              "name": "mapContract",
              "type": "address"
            },
            {
              "internalType": "uint256",
              "name": "mapId",
              "type": "uint256"
            },
            {
              "internalType": "uint256",
              "name": "eventPlayerId",
              "type": "uint256"
            },
            {
              "internalType": "uint256",
              "name": "eventNumber",
              "type": "uint256"
            },
            {
              "internalType": "bool",
              "name": "eventIsTile",
              "type": "bool"
            },
            {
              "components": [
                {
                  "internalType": "uint8",
                  "name": "row",
                  "type": "uint8"
                },
                {
                  "internalType": "uint8",
                  "name": "col",
                  "type": "uint8"
                }
              ],
              "internalType": "struct BCTypes.Position",
              "name": "eventPosition",
              "type": "tuple"
            }
          ],
          "internalType": "struct BCTypes.Game",
          "name": "",
          "type": "tuple"
        }
      ],
      "stateMutability": "view",
      "type": "function"
    },
    {
      "inputs": [
        {
          "internalType": "uint256",
          "name": "_gameId",
          "type": "uint256"
        }
      ],
      "name": "extGetGamePlayerIndexes",
      "outputs": [
        {
          "internalType": "uint256[]",
          "name": "",
          "type": "uint256[]"
        }
      ],
      "stateMutability": "view",
      "type": "function"
    },
    {
      "inputs": [
        {
          "internalType": "address",
          "name": "_playerAddress",
          "type": "address"
        }
      ],
      "name": "extGetGamesOfPlayer",
      "outputs": [
        {
          "internalType": "uint256[]",
          "name": "",
          "type": "uint256[]"
        }
      ],
      "stateMutability": "view",
      "type": "function"
    },
    {
      "inputs": [
        {
          "internalType": "uint256",
          "name": "_gameId",
          "type": "uint256"
        },
        {
          "components": [
            {
              "internalType": "uint8",
              "name": "row",
              "type": "uint8"
            },
            {
              "internalType": "uint8",
              "name": "col",
              "type": "uint8"
            }
          ],
          "internalType": "struct BCTypes.Position",
          "name": "_position",
          "type": "tuple"
        },
        {
          "internalType": "uint256",
          "name": "_playerId",
          "type": "uint256"
        }
      ],
      "name": "extMovePlayer",
      "outputs": [],
      "stateMutability": "nonpayable",
      "type": "function"
    },
    {
      "inputs": [
        {
          "internalType": "uint256",
          "name": "",
          "type": "uint256"
        }
      ],
      "name": "games",
      "outputs": [
        {
          "internalType": "bool",
          "name": "active",
          "type": "bool"
        },
        {
          "internalType": "uint256",
          "name": "currentPlayerTurnIndex",
          "type": "uint256"
        },
        {
          "internalType": "uint256",
          "name": "numPlayers",
          "type": "uint256"
        },
        {
          "internalType": "uint256",
          "name": "turnsTaken",
          "type": "uint256"
        },
        {
          "components": [
            {
              "internalType": "uint8",
              "name": "bugEvents",
              "type": "uint8"
            },
            {
              "internalType": "uint8",
              "name": "mysteryEvents",
              "type": "uint8"
            },
            {
              "internalType": "uint8",
              "name": "scavEvents",
              "type": "uint8"
            },
            {
              "internalType": "uint8",
              "name": "shipEvents",
              "type": "uint8"
            }
          ],
          "internalType": "struct BCTypes.EventTracker",
          "name": "eventTracker",
          "type": "tuple"
        },
        {
          "internalType": "address",
          "name": "mapContract",
          "type": "address"
        },
        {
          "internalType": "uint256",
          "name": "mapId",
          "type": "uint256"
        },
        {
          "internalType": "uint256",
          "name": "eventPlayerId",
          "type": "uint256"
        },
        {
          "internalType": "uint256",
          "name": "eventNumber",
          "type": "uint256"
        },
        {
          "internalType": "bool",
          "name": "eventIsTile",
          "type": "bool"
        },
        {
          "components": [
            {
              "internalType": "uint8",
              "name": "row",
              "type": "uint8"
            },
            {
              "internalType": "uint8",
              "name": "col",
              "type": "uint8"
            }
          ],
          "internalType": "struct BCTypes.Position",
          "name": "eventPosition",
          "type": "tuple"
        }
      ],
      "stateMutability": "view",
      "type": "function"
    },
    {
      "inputs": [],
      "name": "items",
      "outputs": [
        {
          "internalType": "contract ItemsInterface",
          "name": "",
          "type": "address"
        }
      ],
      "stateMutability": "view",
      "type": "function"
    },
    {
      "inputs": [],
      "name": "lobbiesAddress",
      "outputs": [
        {
          "internalType": "address",
          "name": "",
          "type": "address"
        }
      ],
      "stateMutability": "view",
      "type": "function"
    },
    {
      "inputs": [],
      "name": "maps",
      "outputs": [
        {
          "internalType": "contract MapInterface",
          "name": "",
          "type": "address"
        }
      ],
      "stateMutability": "view",
      "type": "function"
    },
    {
      "inputs": [],
      "name": "owner",
      "outputs": [
        {
          "internalType": "address",
          "name": "",
          "type": "address"
        }
      ],
      "stateMutability": "view",
      "type": "function"
    },
    {
      "inputs": [],
      "name": "players",
      "outputs": [
        {
          "internalType": "contract PlayersInterface",
          "name": "",
          "type": "address"
        }
      ],
      "stateMutability": "view",
      "type": "function"
    },
    {
      "inputs": [],
      "name": "renounceOwnership",
      "outputs": [],
      "stateMutability": "nonpayable",
      "type": "function"
    },
    {
      "inputs": [
        {
          "internalType": "uint256",
          "name": "_gameId",
          "type": "uint256"
        },
        {
          "internalType": "uint256",
          "name": "_choice",
          "type": "uint256"
        }
      ],
      "name": "resolveEvent",
      "outputs": [],
      "stateMutability": "nonpayable",
      "type": "function"
    },
    {
      "inputs": [
        {
          "internalType": "address",
          "name": "_charAddress",
          "type": "address"
        },
        {
          "internalType": "address",
          "name": "_utilsAddress",
          "type": "address"
        },
        {
          "internalType": "address",
          "name": "_mapsAddress",
          "type": "address"
        },
        {
          "internalType": "address",
          "name": "_lobbiesAddress",
          "type": "address"
        },
        {
          "internalType": "address",
          "name": "_actionsAddress",
          "type": "address"
        },
        {
          "internalType": "address",
          "name": "_eventsAddress",
          "type": "address"
        },
        {
          "internalType": "address",
          "name": "_itemsAddress",
          "type": "address"
        },
        {
          "internalType": "address",
          "name": "_playersAddress",
          "type": "address"
        }
      ],
      "name": "setContractAddresses",
      "outputs": [],
      "stateMutability": "nonpayable",
      "type": "function"
    },
    {
      "inputs": [
        {
          "internalType": "uint256[]",
          "name": "_playerIndexes",
          "type": "uint256[]"
        },
        {
          "internalType": "uint256",
          "name": "_numPlayers",
          "type": "uint256"
        },
        {
          "internalType": "uint256",
          "name": "_debugRoomId",
          "type": "uint256"
        }
      ],
      "name": "startGame",
      "outputs": [
        {
          "internalType": "uint256",
          "name": "",
          "type": "uint256"
        }
      ],
      "stateMutability": "nonpayable",
      "type": "function"
    },
    {
      "inputs": [
        {
          "internalType": "address",
          "name": "newOwner",
          "type": "address"
        }
      ],
      "name": "transferOwnership",
      "outputs": [],
      "stateMutability": "nonpayable",
      "type": "function"
    },
    {
      "inputs": [],
      "name": "utils",
      "outputs": [
        {
          "internalType": "contract UtilsInterface",
          "name": "",
          "type": "address"
        }
      ],
      "stateMutability": "view",
      "type": "function"
    }
  ],
  "transactionHash": "0x4a62315fe6a0b5afae416953490cd09ead66fc0ea5ac60746165d2ca388ff725",
  "args": [],
  "numDeployments": 1,
  "solcInputHash": "3bb9a8bfbba7b0d23e5324b4eda443e4",
  "bytecode": "0x60806040526040518060400160405280600a60ff168152602001600660ff16815250600a60008201518160000160006101000a81548160ff021916908360ff16021790555060208201518160000160016101000a81548160ff021916908360ff16021790555050503480156200007457600080fd5b5062000095620000896200009b60201b60201c565b620000a360201b60201c565b62000167565b600033905090565b60008060009054906101000a900473ffffffffffffffffffffffffffffffffffffffff169050816000806101000a81548173ffffffffffffffffffffffffffffffffffffffff021916908373ffffffffffffffffffffffffffffffffffffffff1602179055508173ffffffffffffffffffffffffffffffffffffffff168173ffffffffffffffffffffffffffffffffffffffff167f8be0079c531659141344cd1fd0a4f28419497f9722a3daafe3b4186f6b6457e060405160405180910390a35050565b613def80620001776000396000f3fe608060405234801561001057600080fd5b506004361061014d5760003560e01c80637b45c0d4116100c3578063afd62bb21161007c578063afd62bb214610386578063c06fad06146103b6578063dc0b3564146103d4578063dc769ee8146103f2578063f101de9a14610411578063f2fde38b146104415761014d565b80637b45c0d4146102c25780637ddae103146102e05780638da5cb5b146102fe578063921d27991461031c5780639fca1ee114610338578063a99d2a8b146103565761014d565b806340d4fd781161011557806340d4fd78146102025780635a29638d1461023257806360fe842e1461025057806364f664671461026c5780636fe99c1814610288578063715018a6146102b85761014d565b806310a2cd0d14610152578063117a5b901461017057806317514225146101aa578063336d7d7b146101c65780633deaec2b146101e4575b600080fd5b61015a61045d565b6040516101679190612497565b60405180910390f35b61018a600480360381019061018591906124fc565b610483565b6040516101a19b9a99989796959493929190612614565b60405180910390f35b6101c460048036038101906101bf91906127d4565b6105e9565b005b6101ce6106e1565b6040516101db9190612827565b60405180910390f35b6101ec610707565b6040516101f99190612863565b60405180910390f35b61021c600480360381019061021791906124fc565b61072d565b604051610229919061293c565b60405180910390f35b61023a61082e565b604051610247919061297f565b60405180910390f35b61026a6004803603810190610265919061299a565b610854565b005b6102866004803603810190610281919061299a565b610b36565b005b6102a2600480360381019061029d91906124fc565b610c4b565b6040516102af9190612bf1565b60405180910390f35b6102c0610e7e565b005b6102ca610e92565b6040516102d79190612827565b60405180910390f35b6102e8610eb8565b6040516102f59190612c34565b60405180910390f35b610306610ede565b6040516103139190612827565b60405180910390f35b61033660048036038101906103319190612c7b565b610f07565b005b610340611121565b60405161034d9190612827565b60405180910390f35b610370600480360381019061036b9190612d31565b611147565b60405161037d9190612d71565b60405180910390f35b6103a0600480360381019061039b9190612d8c565b611178565b6040516103ad919061293c565b60405180910390f35b6103be6112ad565b6040516103cb9190612dda565b60405180910390f35b6103dc6112d3565b6040516103e99190612e16565b60405180910390f35b6103fa6112f9565b604051610408929190612e40565b60405180910390f35b61042b60048036038101906104269190612f36565b611325565b6040516104389190612d71565b60405180910390f35b61045b60048036038101906104569190612d8c565b611881565b005b600160009054906101000a900473ffffffffffffffffffffffffffffffffffffffff1681565b600b818154811061049357600080fd5b90600052602060002090600c02016000915090508060000160009054906101000a900460ff1690806002015490806003015490806004015490806005016040518060800160405290816000820160009054906101000a900460ff1660ff1660ff1681526020016000820160019054906101000a900460ff1660ff1660ff1681526020016000820160029054906101000a900460ff1660ff1660ff1681526020016000820160039054906101000a900460ff1660ff1660ff1681525050908060060160009054906101000a900473ffffffffffffffffffffffffffffffffffffffff169080600701549080600801549080600901549080600a0160009054906101000a900460ff169080600b016040518060400160405290816000820160009054906101000a900460ff1660ff1660ff1681526020016000820160019054906101000a900460ff1660ff1660ff168152505090508b565b600960009054906101000a900473ffffffffffffffffffffffffffffffffffffffff1673ffffffffffffffffffffffffffffffffffffffff163373ffffffffffffffffffffffffffffffffffffffff1614806106925750600660009054906101000a900473ffffffffffffffffffffffffffffffffffffffff1673ffffffffffffffffffffffffffffffffffffffff163373ffffffffffffffffffffffffffffffffffffffff16145b6106d1576040517f08c379a00000000000000000000000000000000000000000000000000000000081526004016106c890613002565b60405180910390fd5b6106dc838383611904565b505050565b600760009054906101000a900473ffffffffffffffffffffffffffffffffffffffff1681565b600360009054906101000a900473ffffffffffffffffffffffffffffffffffffffff1681565b60606000600b838154811061074557610744613022565b5b90600052602060002090600c02016001018054905067ffffffffffffffff811115610773576107726126d8565b5b6040519080825280602002602001820160405280156107a15781602001602082028036833780820191505090505b50905060005b815181101561082457600b84815481106107c4576107c3613022565b5b90600052602060002090600c020160010181815481106107e7576107e6613022565b5b906000526020600020015482828151811061080557610804613022565b5b602002602001018181525050808061081c90613080565b9150506107a7565b5080915050919050565b600260009054906101000a900473ffffffffffffffffffffffffffffffffffffffff1681565b600960009054906101000a900473ffffffffffffffffffffffffffffffffffffffff1673ffffffffffffffffffffffffffffffffffffffff163373ffffffffffffffffffffffffffffffffffffffff16146108e4576040517f08c379a00000000000000000000000000000000000000000000000000000000081526004016108db90613114565b60405180910390fd5b600660009054906101000a900473ffffffffffffffffffffffffffffffffffffffff1673ffffffffffffffffffffffffffffffffffffffff1663ce932297826040518263ffffffff1660e01b815260040161093f9190612d71565b600060405180830381600087803b15801561095957600080fd5b505af115801561096d573d6000803e3d6000fd5b505050506000600660009054906101000a900473ffffffffffffffffffffffffffffffffffffffff1673ffffffffffffffffffffffffffffffffffffffff166310f67fb3836040518263ffffffff1660e01b81526004016109ce9190612d71565b600060405180830381865afa1580156109eb573d6000803e3d6000fd5b505050506040513d6000823e3d601f19601f82011682018060405250810190610a14919061345c565b90506000600b8481548110610a2c57610a2b613022565b5b90600052602060002090600c0201905060038260c0015160ff1610610b3057600660009054906101000a900473ffffffffffffffffffffffffffffffffffffffff1673ffffffffffffffffffffffffffffffffffffffff166365c363f0846040518263ffffffff1660e01b8152600401610aa69190612d71565b600060405180830381600087803b158015610ac057600080fd5b505af1158015610ad4573d6000803e3d6000fd5b5050505060018160010180549050610aec91906134a5565b81600201541015610b1657806002016000815480929190610b0c90613080565b9190505550610b2f565b610b24848260070154611fab565b600081600201819055505b5b50505050565b6000600b8381548110610b4c57610b4b613022565b5b90600052602060002090600c02019050600660009054906101000a900473ffffffffffffffffffffffffffffffffffffffff1673ffffffffffffffffffffffffffffffffffffffff16638f0aa2dd83836008015486856007015486600b01876009015488600a0160009054906101000a900460ff166040518863ffffffff1660e01b8152600401610be39796959493929190613574565b600060405180830381600087803b158015610bfd57600080fd5b505af1158015610c11573d6000803e3d6000fd5b505050506000816008018190555060008160090181905550600081600a0160006101000a81548160ff021916908315150217905550505050565b610c536122d3565b600b8281548110610c6757610c66613022565b5b90600052602060002090600c0201604051806101800160405290816000820160009054906101000a900460ff1615151515815260200160018201805480602002602001604051908101604052809291908181526020018280548015610ceb57602002820191906000526020600020905b815481526020019060010190808311610cd7575b50505050508152602001600282015481526020016003820154815260200160048201548152602001600582016040518060800160405290816000820160009054906101000a900460ff1660ff1660ff1681526020016000820160019054906101000a900460ff1660ff1660ff1681526020016000820160029054906101000a900460ff1660ff1660ff1681526020016000820160039054906101000a900460ff1660ff1660ff168152505081526020016006820160009054906101000a900473ffffffffffffffffffffffffffffffffffffffff1673ffffffffffffffffffffffffffffffffffffffff1673ffffffffffffffffffffffffffffffffffffffff168152602001600782015481526020016008820154815260200160098201548152602001600a820160009054906101000a900460ff16151515158152602001600b82016040518060400160405290816000820160009054906101000a900460ff1660ff1660ff1681526020016000820160019054906101000a900460ff1660ff1660ff1681525050815250509050919050565b610e86612189565b610e906000612207565b565b600960009054906101000a900473ffffffffffffffffffffffffffffffffffffffff1681565b600460009054906101000a900473ffffffffffffffffffffffffffffffffffffffff1681565b60008060009054906101000a900473ffffffffffffffffffffffffffffffffffffffff16905090565b610f0f612189565b87600160006101000a81548173ffffffffffffffffffffffffffffffffffffffff021916908373ffffffffffffffffffffffffffffffffffffffff16021790555086600260006101000a81548173ffffffffffffffffffffffffffffffffffffffff021916908373ffffffffffffffffffffffffffffffffffffffff16021790555085600360006101000a81548173ffffffffffffffffffffffffffffffffffffffff021916908373ffffffffffffffffffffffffffffffffffffffff16021790555084600760006101000a81548173ffffffffffffffffffffffffffffffffffffffff021916908373ffffffffffffffffffffffffffffffffffffffff16021790555083600960006101000a81548173ffffffffffffffffffffffffffffffffffffffff021916908373ffffffffffffffffffffffffffffffffffffffff16021790555082600460006101000a81548173ffffffffffffffffffffffffffffffffffffffff021916908373ffffffffffffffffffffffffffffffffffffffff16021790555081600560006101000a81548173ffffffffffffffffffffffffffffffffffffffff021916908373ffffffffffffffffffffffffffffffffffffffff16021790555080600660006101000a81548173ffffffffffffffffffffffffffffffffffffffff021916908373ffffffffffffffffffffffffffffffffffffffff1602179055505050505050505050565b600860009054906101000a900473ffffffffffffffffffffffffffffffffffffffff1681565b600c602052816000526040600020818154811061116357600080fd5b90600052602060002001600091509150505481565b60606000600c60008473ffffffffffffffffffffffffffffffffffffffff1673ffffffffffffffffffffffffffffffffffffffff1681526020019081526020016000208054905067ffffffffffffffff8111156111d8576111d76126d8565b5b6040519080825280602002602001820160405280156112065781602001602082028036833780820191505090505b50905060005b81518110156112a357600c60008573ffffffffffffffffffffffffffffffffffffffff1673ffffffffffffffffffffffffffffffffffffffff168152602001908152602001600020818154811061126657611265613022565b5b906000526020600020015482828151811061128457611283613022565b5b602002602001018181525050808061129b90613080565b91505061120c565b5080915050919050565b600560009054906101000a900473ffffffffffffffffffffffffffffffffffffffff1681565b600660009054906101000a900473ffffffffffffffffffffffffffffffffffffffff1681565b600a8060000160009054906101000a900460ff16908060000160019054906101000a900460ff16905082565b6000600760009054906101000a900473ffffffffffffffffffffffffffffffffffffffff1673ffffffffffffffffffffffffffffffffffffffff163373ffffffffffffffffffffffffffffffffffffffff16146113b7576040517f08c379a00000000000000000000000000000000000000000000000000000000081526004016113ae90613630565b60405180910390fd5b6000600b6001816001815401808255809150500390600052602060002090600c0201905060018160000160006101000a81548160ff021916908315150217905550600081600401819055508481600101908051906020019061141a92919061235a565b508381600301819055506040518060800160405280600060ff168152602001600060ff168152602001600060ff168152602001600060ff168152508160050160008201518160000160006101000a81548160ff021916908360ff16021790555060208201518160000160016101000a81548160ff021916908360ff16021790555060408201518160000160026101000a81548160ff021916908360ff16021790555060608201518160000160036101000a81548160ff021916908360ff160217905550905050600360009054906101000a900473ffffffffffffffffffffffffffffffffffffffff168160060160006101000a81548173ffffffffffffffffffffffffffffffffffffffff021916908373ffffffffffffffffffffffffffffffffffffffff160217905550600083036115ed57600360009054906101000a900473ffffffffffffffffffffffffffffffffffffffff1673ffffffffffffffffffffffffffffffffffffffff1663f01fc35a6040518163ffffffff1660e01b81526004016020604051808303816000875af11580156115bc573d6000803e3d6000fd5b505050506040513d601f19601f820116820180604052508101906115e09190613650565b8160070181905550611694565b600360009054906101000a900473ffffffffffffffffffffffffffffffffffffffff1673ffffffffffffffffffffffffffffffffffffffff1663523814bc846040518263ffffffff1660e01b81526004016116489190612d71565b6020604051808303816000875af1158015611667573d6000803e3d6000fd5b505050506040513d601f19601f8201168201806040525081019061168b9190613650565b81600701819055505b60005b6001856116a491906134a5565b81116118645761171f8260070154600a6040518060400160405290816000820160009054906101000a900460ff1660ff1660ff1681526020016000820160019054906101000a900460ff1660ff1660ff168152505084600101848154811061170f5761170e613022565b5b9060005260206000200154611904565b6000600660009054906101000a900473ffffffffffffffffffffffffffffffffffffffff1673ffffffffffffffffffffffffffffffffffffffff16636621a42188848151811061177257611771613022565b5b60200260200101516040518263ffffffff1660e01b81526004016117969190612d71565b602060405180830381865afa1580156117b3573d6000803e3d6000fd5b505050506040513d601f19601f820116820180604052508101906117d7919061367d565b9050600c60008273ffffffffffffffffffffffffffffffffffffffff1673ffffffffffffffffffffffffffffffffffffffff1681526020019081526020016000206001600b8054905061182a91906134a5565b908060018154018082558091505060019003906000526020600020016000909190919091505550808061185c90613080565b915050611697565b506001600b8054905061187791906134a5565b9150509392505050565b611889612189565b600073ffffffffffffffffffffffffffffffffffffffff168173ffffffffffffffffffffffffffffffffffffffff16036118f8576040517f08c379a00000000000000000000000000000000000000000000000000000000081526004016118ef9061371c565b60405180910390fd5b61190181612207565b50565b600660009054906101000a900473ffffffffffffffffffffffffffffffffffffffff1673ffffffffffffffffffffffffffffffffffffffff16638d491b3e8383600b878154811061195857611957613022565b5b90600052602060002090600c0201600701546040518463ffffffff1660e01b81526004016119889392919061373c565b6020604051808303816000875af11580156119a7573d6000803e3d6000fd5b505050506040513d601f19601f820116820180604052508101906119cb9190613773565b611fa6576000600360009054906101000a900473ffffffffffffffffffffffffffffffffffffffff1673ffffffffffffffffffffffffffffffffffffffff1663471b6759600b8681548110611a2357611a22613022565b5b90600052602060002090600c020160070154856000015186602001516040518463ffffffff1660e01b8152600401611a5d939291906137d1565b6020604051808303816000875af1158015611a7c573d6000803e3d6000fd5b505050506040513d601f19601f82011682018060405250810190611aa09190613650565b90506002811115611fa4576000600360009054906101000a900473ffffffffffffffffffffffffffffffffffffffff1673ffffffffffffffffffffffffffffffffffffffff166358058283600b8781548110611aff57611afe613022565b5b90600052602060002090600c020160070154846040518363ffffffff1660e01b8152600401611b2f929190613808565b60a060405180830381865afa158015611b4c573d6000803e3d6000fd5b505050506040513d601f19601f82011682018060405250810190611b7091906138e2565b905060016004811115611b8657611b8561390f565b5b81600001516004811115611b9d57611b9c61390f565b5b03611c0157600b8581548110611bb657611bb5613022565b5b90600052602060002090600c0201600501600001600081819054906101000a900460ff1680929190611be79061393e565b91906101000a81548160ff021916908360ff160217905550505b60026004811115611c1557611c1461390f565b5b81600001516004811115611c2c57611c2b61390f565b5b03611c9057600b8581548110611c4557611c44613022565b5b90600052602060002090600c0201600501600001600181819054906101000a900460ff1680929190611c769061393e565b91906101000a81548160ff021916908360ff160217905550505b60036004811115611ca457611ca361390f565b5b81600001516004811115611cbb57611cba61390f565b5b03611d1f57600b8581548110611cd457611cd3613022565b5b90600052602060002090600c0201600501600001600281819054906101000a900460ff1680929190611d059061393e565b91906101000a81548160ff021916908360ff160217905550505b600480811115611d3257611d3161390f565b5b81600001516004811115611d4957611d4861390f565b5b03611dad57600b8581548110611d6257611d61613022565b5b90600052602060002090600c0201600501600001600381819054906101000a900460ff1680929190611d939061393e565b91906101000a81548160ff021916908360ff160217905550505b600081602001511115611f74576000600460009054906101000a900473ffffffffffffffffffffffffffffffffffffffff1673ffffffffffffffffffffffffffffffffffffffff1663c82c37b983602001516040518263ffffffff1660e01b8152600401611e1b9190612d71565b600060405180830381865afa158015611e38573d6000803e3d6000fd5b505050506040513d6000823e3d601f19601f82011682018060405250810190611e619190613ba7565b90508060200151611f6e5783600b8781548110611e8157611e80613022565b5b90600052602060002090600c0201600801819055508160200151600b8781548110611eaf57611eae613022565b5b90600052602060002090600c0201600901819055506001600b8781548110611eda57611ed9613022565b5b90600052602060002090600c0201600a0160006101000a81548160ff02191690831515021790555084600b8781548110611f1757611f16613022565b5b90600052602060002090600c0201600b0160008201518160000160006101000a81548160ff021916908360ff16021790555060208201518160000160016101000a81548160ff021916908360ff1602179055509050505b50611fa2565b60006004811115611f8857611f8761390f565b5b81600001516004811115611f9f57611f9e61390f565b5b50505b505b505b505050565b6000600b8381548110611fc157611fc0613022565b5b90600052602060002090600c02019050600360009054906101000a900473ffffffffffffffffffffffffffffffffffffffff1673ffffffffffffffffffffffffffffffffffffffff166358308aa8836040518263ffffffff1660e01b815260040161202c9190612d71565b600060405180830381600087803b15801561204657600080fd5b505af115801561205a573d6000803e3d6000fd5b50505050600360009054906101000a900473ffffffffffffffffffffffffffffffffffffffff1673ffffffffffffffffffffffffffffffffffffffff1663c6b41b458360016040518363ffffffff1660e01b81526004016120bc929190613c2b565b600060405180830381600087803b1580156120d657600080fd5b505af11580156120ea573d6000803e3d6000fd5b50505050600660009054906101000a900473ffffffffffffffffffffffffffffffffffffffff1673ffffffffffffffffffffffffffffffffffffffff1663668a7f3b8260070154836001016040518363ffffffff1660e01b8152600401612152929190613d1d565b600060405180830381600087803b15801561216c57600080fd5b505af1158015612180573d6000803e3d6000fd5b50505050505050565b6121916122cb565b73ffffffffffffffffffffffffffffffffffffffff166121af610ede565b73ffffffffffffffffffffffffffffffffffffffff1614612205576040517f08c379a00000000000000000000000000000000000000000000000000000000081526004016121fc90613d99565b60405180910390fd5b565b60008060009054906101000a900473ffffffffffffffffffffffffffffffffffffffff169050816000806101000a81548173ffffffffffffffffffffffffffffffffffffffff021916908373ffffffffffffffffffffffffffffffffffffffff1602179055508173ffffffffffffffffffffffffffffffffffffffff168173ffffffffffffffffffffffffffffffffffffffff167f8be0079c531659141344cd1fd0a4f28419497f9722a3daafe3b4186f6b6457e060405160405180910390a35050565b600033905090565b6040518061018001604052806000151581526020016060815260200160008152602001600081526020016000815260200161230c6123a7565b8152602001600073ffffffffffffffffffffffffffffffffffffffff1681526020016000815260200160008152602001600081526020016000151581526020016123546123db565b81525090565b828054828255906000526020600020908101928215612396579160200282015b8281111561239557825182559160200191906001019061237a565b5b5090506123a391906123fb565b5090565b6040518060800160405280600060ff168152602001600060ff168152602001600060ff168152602001600060ff1681525090565b6040518060400160405280600060ff168152602001600060ff1681525090565b5b808211156124145760008160009055506001016123fc565b5090565b600073ffffffffffffffffffffffffffffffffffffffff82169050919050565b6000819050919050565b600061245d61245861245384612418565b612438565b612418565b9050919050565b600061246f82612442565b9050919050565b600061248182612464565b9050919050565b61249181612476565b82525050565b60006020820190506124ac6000830184612488565b92915050565b6000604051905090565b600080fd5b600080fd5b6000819050919050565b6124d9816124c6565b81146124e457600080fd5b50565b6000813590506124f6816124d0565b92915050565b600060208284031215612512576125116124bc565b5b6000612520848285016124e7565b91505092915050565b60008115159050919050565b61253e81612529565b82525050565b61254d816124c6565b82525050565b600060ff82169050919050565b61256981612553565b82525050565b6080820160008201516125856000850182612560565b5060208201516125986020850182612560565b5060408201516125ab6040850182612560565b5060608201516125be6060850182612560565b50505050565b60006125cf82612418565b9050919050565b6125df816125c4565b82525050565b6040820160008201516125fb6000850182612560565b50602082015161260e6020850182612560565b50505050565b60006101e08201905061262a600083018e612535565b612637602083018d612544565b612644604083018c612544565b612651606083018b612544565b61265e608083018a61256f565b61266c6101008301896125d6565b61267a610120830188612544565b612688610140830187612544565b612696610160830186612544565b6126a4610180830185612535565b6126b26101a08301846125e5565b9c9b505050505050505050505050565b600080fd5b6000601f19601f8301169050919050565b7f4e487b7100000000000000000000000000000000000000000000000000000000600052604160045260246000fd5b612710826126c7565b810181811067ffffffffffffffff8211171561272f5761272e6126d8565b5b80604052505050565b60006127426124b2565b905061274e8282612707565b919050565b600080fd5b61276181612553565b811461276c57600080fd5b50565b60008135905061277e81612758565b92915050565b60006040828403121561279a576127996126c2565b5b6127a46040612738565b905060006127b48482850161276f565b60008301525060206127c88482850161276f565b60208301525092915050565b6000806000608084860312156127ed576127ec6124bc565b5b60006127fb868287016124e7565b935050602061280c86828701612784565b925050606061281d868287016124e7565b9150509250925092565b600060208201905061283c60008301846125d6565b92915050565b600061284d82612464565b9050919050565b61285d81612842565b82525050565b60006020820190506128786000830184612854565b92915050565b600081519050919050565b600082825260208201905092915050565b6000819050602082019050919050565b6128b3816124c6565b82525050565b60006128c583836128aa565b60208301905092915050565b6000602082019050919050565b60006128e98261287e565b6128f38185612889565b93506128fe8361289a565b8060005b8381101561292f57815161291688826128b9565b9750612921836128d1565b925050600181019050612902565b5085935050505092915050565b6000602082019050818103600083015261295681846128de565b905092915050565b600061296982612464565b9050919050565b6129798161295e565b82525050565b60006020820190506129946000830184612970565b92915050565b600080604083850312156129b1576129b06124bc565b5b60006129bf858286016124e7565b92505060206129d0858286016124e7565b9150509250929050565b6129e381612529565b82525050565b600082825260208201905092915050565b6000612a058261287e565b612a0f81856129e9565b9350612a1a8361289a565b8060005b83811015612a4b578151612a3288826128b9565b9750612a3d836128d1565b925050600181019050612a1e565b5085935050505092915050565b608082016000820151612a6e6000850182612560565b506020820151612a816020850182612560565b506040820151612a946040850182612560565b506060820151612aa76060850182612560565b50505050565b612ab6816125c4565b82525050565b604082016000820151612ad26000850182612560565b506020820151612ae56020850182612560565b50505050565b600061020083016000830151612b0460008601826129da565b5060208301518482036020860152612b1c82826129fa565b9150506040830151612b3160408601826128aa565b506060830151612b4460608601826128aa565b506080830151612b5760808601826128aa565b5060a0830151612b6a60a0860182612a58565b5060c0830151612b7e610120860182612aad565b5060e0830151612b926101408601826128aa565b50610100830151612ba76101608601826128aa565b50610120830151612bbc6101808601826128aa565b50610140830151612bd16101a08601826129da565b50610160830151612be66101c0860182612abc565b508091505092915050565b60006020820190508181036000830152612c0b8184612aeb565b905092915050565b6000612c1e82612464565b9050919050565b612c2e81612c13565b82525050565b6000602082019050612c496000830184612c25565b92915050565b612c58816125c4565b8114612c6357600080fd5b50565b600081359050612c7581612c4f565b92915050565b600080600080600080600080610100898b031215612c9c57612c9b6124bc565b5b6000612caa8b828c01612c66565b9850506020612cbb8b828c01612c66565b9750506040612ccc8b828c01612c66565b9650506060612cdd8b828c01612c66565b9550506080612cee8b828c01612c66565b94505060a0612cff8b828c01612c66565b93505060c0612d108b828c01612c66565b92505060e0612d218b828c01612c66565b9150509295985092959890939650565b60008060408385031215612d4857612d476124bc565b5b6000612d5685828601612c66565b9250506020612d67858286016124e7565b9150509250929050565b6000602082019050612d866000830184612544565b92915050565b600060208284031215612da257612da16124bc565b5b6000612db084828501612c66565b91505092915050565b6000612dc482612464565b9050919050565b612dd481612db9565b82525050565b6000602082019050612def6000830184612dcb565b92915050565b6000612e0082612464565b9050919050565b612e1081612df5565b82525050565b6000602082019050612e2b6000830184612e07565b92915050565b612e3a81612553565b82525050565b6000604082019050612e556000830185612e31565b612e626020830184612e31565b9392505050565b600080fd5b600067ffffffffffffffff821115612e8957612e886126d8565b5b602082029050602081019050919050565b600080fd5b6000612eb2612ead84612e6e565b612738565b90508083825260208201905060208402830185811115612ed557612ed4612e9a565b5b835b81811015612efe5780612eea88826124e7565b845260208401935050602081019050612ed7565b5050509392505050565b600082601f830112612f1d57612f1c612e69565b5b8135612f2d848260208601612e9f565b91505092915050565b600080600060608486031215612f4f57612f4e6124bc565b5b600084013567ffffffffffffffff811115612f6d57612f6c6124c1565b5b612f7986828701612f08565b9350506020612f8a868287016124e7565b9250506040612f9b868287016124e7565b9150509250925092565b600082825260208201905092915050565b7f4e6f7420616374696f6e732f706c617965727320636f6e747261637400000000600082015250565b6000612fec601c83612fa5565b9150612ff782612fb6565b602082019050919050565b6000602082019050818103600083015261301b81612fdf565b9050919050565b7f4e487b7100000000000000000000000000000000000000000000000000000000600052603260045260246000fd5b7f4e487b7100000000000000000000000000000000000000000000000000000000600052601160045260246000fd5b600061308b826124c6565b91507fffffffffffffffffffffffffffffffffffffffffffffffffffffffffffffffff82036130bd576130bc613051565b5b600182019050919050565b7f4e6f7420616374696f6e7320636f6e7472616374000000000000000000000000600082015250565b60006130fe601483612fa5565b9150613109826130c8565b602082019050919050565b6000602082019050818103600083015261312d816130f1565b9050919050565b60008151905061314381612c4f565b92915050565b600081519050613158816124d0565b92915050565b60008151905061316d81612758565b92915050565b600060408284031215613189576131886126c2565b5b6131936040612738565b905060006131a38482850161315e565b60008301525060206131b78482850161315e565b60208301525092915050565b60008160000b9050919050565b6131d9816131c3565b81146131e457600080fd5b50565b6000815190506131f6816131d0565b92915050565b600067ffffffffffffffff821115613217576132166126d8565b5b602082029050602081019050919050565b600061323b613236846131fc565b612738565b9050808382526020820190506020840283018581111561325e5761325d612e9a565b5b835b818110156132875780613273888261315e565b845260208401935050602081019050613260565b5050509392505050565b600082601f8301126132a6576132a5612e69565b5b81516132b6848260208601613228565b91505092915050565b6132c881612529565b81146132d357600080fd5b50565b6000815190506132e5816132bf565b92915050565b60006101c08284031215613302576133016126c2565b5b61330d6101a0612738565b9050600061331d84828501613134565b600083015250602061333184828501613134565b602083015250604061334584828501613149565b604083015250606061335984828501613173565b60608301525060a061336d848285016131e7565b60808301525060c06133818482850161315e565b60a08301525060e06133958482850161315e565b60c0830152506101006133aa8482850161315e565b60e08301525061012082015167ffffffffffffffff8111156133cf576133ce612753565b5b6133db84828501613291565b6101008301525061014082015167ffffffffffffffff81111561340157613400612753565b5b61340d84828501613291565b61012083015250610160613423848285016132d6565b61014083015250610180613439848285016132d6565b610160830152506101a061344f848285016132d6565b6101808301525092915050565b600060208284031215613472576134716124bc565b5b600082015167ffffffffffffffff8111156134905761348f6124c1565b5b61349c848285016132eb565b91505092915050565b60006134b0826124c6565b91506134bb836124c6565b92508282039050818111156134d3576134d2613051565b5b92915050565b60008160001c9050919050565b600060ff82169050919050565b6000613506613501836134d9565b6134e6565b9050919050565b60008160081c9050919050565b600061352d6135288361350d565b6134e6565b9050919050565b604082016000808301549050613549816134f3565b6135566000860182612560565b506135608161351a565b61356d6020860182612560565b5050505050565b60006101008201905061358a600083018a612544565b6135976020830189612544565b6135a46040830188612544565b6135b16060830187612544565b6135be6080830186613534565b6135cb60c0830185612544565b6135d860e0830184612535565b98975050505050505050565b7f4e6f74206c6f62627920636f6e74726163740000000000000000000000000000600082015250565b600061361a601283612fa5565b9150613625826135e4565b602082019050919050565b600060208201905081810360008301526136498161360d565b9050919050565b600060208284031215613666576136656124bc565b5b600061367484828501613149565b91505092915050565b600060208284031215613693576136926124bc565b5b60006136a184828501613134565b91505092915050565b7f4f776e61626c653a206e6577206f776e657220697320746865207a65726f206160008201527f6464726573730000000000000000000000000000000000000000000000000000602082015250565b6000613706602683612fa5565b9150613711826136aa565b604082019050919050565b60006020820190508181036000830152613735816136f9565b9050919050565b600060808201905061375160008301866125e5565b61375e6040830185612544565b61376b6060830184612544565b949350505050565b600060208284031215613789576137886124bc565b5b6000613797848285016132d6565b91505092915050565b60006137bb6137b66137b184612553565b612438565b6124c6565b9050919050565b6137cb816137a0565b82525050565b60006060820190506137e66000830186612544565b6137f360208301856137c2565b61380060408301846137c2565b949350505050565b600060408201905061381d6000830185612544565b61382a6020830184612544565b9392505050565b6005811061383e57600080fd5b50565b60008151905061385081613831565b92915050565b600060a0828403121561386c5761386b6126c2565b5b61387660a0612738565b9050600061388684828501613841565b600083015250602061389a84828501613149565b60208301525060406138ae8482850161315e565b60408301525060606138c28482850161315e565b60608301525060806138d6848285016132d6565b60808301525092915050565b600060a082840312156138f8576138f76124bc565b5b600061390684828501613856565b91505092915050565b7f4e487b7100000000000000000000000000000000000000000000000000000000600052602160045260246000fd5b600061394982612553565b915060ff820361395c5761395b613051565b5b600182019050919050565b600067ffffffffffffffff821115613982576139816126d8565b5b602082029050602081019050919050565b601581106139a057600080fd5b50565b6000815190506139b281613993565b92915050565b6000604082840312156139ce576139cd6126c2565b5b6139d86040612738565b905060006139e8848285016139a3565b60008301525060206139fc84828501613149565b60208301525092915050565b6000613a1b613a1684613967565b612738565b90508083825260208201905060408402830185811115613a3e57613a3d612e9a565b5b835b81811015613a675780613a5388826139b8565b845260208401935050604081019050613a40565b5050509392505050565b600082601f830112613a8657613a85612e69565b5b8151613a96848260208601613a08565b91505092915050565b600060e08284031215613ab557613ab46126c2565b5b613abf60e0612738565b90506000613acf84828501613149565b6000830152506020613ae3848285016132d6565b6020830152506040613af78482850161315e565b6040830152506060613b0b8482850161315e565b606083015250608082015167ffffffffffffffff811115613b2f57613b2e612753565b5b613b3b84828501613a71565b60808301525060a082015167ffffffffffffffff811115613b5f57613b5e612753565b5b613b6b84828501613a71565b60a08301525060c082015167ffffffffffffffff811115613b8f57613b8e612753565b5b613b9b84828501613a71565b60c08301525092915050565b600060208284031215613bbd57613bbc6124bc565b5b600082015167ffffffffffffffff811115613bdb57613bda6124c1565b5b613be784828501613a9f565b91505092915050565b6000819050919050565b6000613c15613c10613c0b84613bf0565b612438565b6124c6565b9050919050565b613c2581613bfa565b82525050565b6000604082019050613c406000830185612544565b613c4d6020830184613c1c565b9392505050565b600081549050919050565b60008190508160005260206000209050919050565b6000819050919050565b6000613c91613c8c836134d9565b613c74565b9050919050565b6000613ca48254613c7e565b9050919050565b6000600182019050919050565b6000613cc382613c54565b613ccd8185612889565b9350613cd883613c5f565b8060005b83811015613d1057613ced82613c98565b613cf788826128b9565b9750613d0283613cab565b925050600181019050613cdc565b5085935050505092915050565b6000604082019050613d326000830185612544565b8181036020830152613d448184613cb8565b90509392505050565b7f4f776e61626c653a2063616c6c6572206973206e6f7420746865206f776e6572600082015250565b6000613d83602083612fa5565b9150613d8e82613d4d565b602082019050919050565b60006020820190508181036000830152613db281613d76565b905091905056fea2646970667358221220726351acd3ad91bace07d1521c4a1e240336ddef880e3050caec5785c337047b64736f6c63430008110033",
  "devdoc": {
    "kind": "dev",
    "methods": {
      "owner()": {
        "details": "Returns the address of the current owner."
      },
      "renounceOwnership()": {
        "details": "Leaves the contract without owner. It will not be possible to call `onlyOwner` functions anymore. Can only be called by the current owner. NOTE: Renouncing ownership will leave the contract without an owner, thereby removing any functionality that is only available to the owner."
      },
      "transferOwnership(address)": {
        "details": "Transfers ownership of the contract to a new account (`newOwner`). Can only be called by the current owner."
      }
    },
    "version": 1
  },
  "userdoc": {
    "kind": "user",
    "methods": {},
    "version": 1
  },
  "storageLayout": {
    "storage": [
      {
        "astId": 7,
        "contract": "contracts/BCGames.sol:BCGames",
        "label": "_owner",
        "offset": 0,
        "slot": "0",
        "type": "t_address"
      },
      {
        "astId": 5054,
        "contract": "contracts/BCGames.sol:BCGames",
        "label": "chars",
        "offset": 0,
        "slot": "1",
        "type": "t_contract(CharInterface)4850"
      },
      {
        "astId": 5057,
        "contract": "contracts/BCGames.sol:BCGames",
        "label": "utils",
        "offset": 0,
        "slot": "2",
        "type": "t_contract(UtilsInterface)4860"
      },
      {
        "astId": 5060,
        "contract": "contracts/BCGames.sol:BCGames",
        "label": "maps",
        "offset": 0,
        "slot": "3",
        "type": "t_contract(MapInterface)4971"
      },
      {
        "astId": 5063,
        "contract": "contracts/BCGames.sol:BCGames",
        "label": "bcEvents",
        "offset": 0,
        "slot": "4",
        "type": "t_contract(EventsInterface)4836"
      },
      {
        "astId": 5066,
        "contract": "contracts/BCGames.sol:BCGames",
        "label": "items",
        "offset": 0,
        "slot": "5",
        "type": "t_contract(ItemsInterface)4985"
      },
      {
        "astId": 5069,
        "contract": "contracts/BCGames.sol:BCGames",
        "label": "players",
        "offset": 0,
        "slot": "6",
        "type": "t_contract(PlayersInterface)5049"
      },
      {
        "astId": 5071,
        "contract": "contracts/BCGames.sol:BCGames",
        "label": "lobbiesAddress",
        "offset": 0,
        "slot": "7",
        "type": "t_address"
      },
      {
        "astId": 5073,
        "contract": "contracts/BCGames.sol:BCGames",
        "label": "charsAddress",
        "offset": 0,
        "slot": "8",
        "type": "t_address"
      },
      {
        "astId": 5075,
        "contract": "contracts/BCGames.sol:BCGames",
        "label": "actionsAddress",
        "offset": 0,
        "slot": "9",
        "type": "t_address"
      },
      {
        "astId": 5155,
        "contract": "contracts/BCGames.sol:BCGames",
        "label": "StartLocation",
        "offset": 0,
        "slot": "10",
        "type": "t_struct(Position)10650_storage"
      },
      {
        "astId": 5159,
        "contract": "contracts/BCGames.sol:BCGames",
        "label": "games",
        "offset": 0,
        "slot": "11",
        "type": "t_array(t_struct(Game)10736_storage)dyn_storage"
      },
      {
        "astId": 5164,
        "contract": "contracts/BCGames.sol:BCGames",
        "label": "addressToGame",
        "offset": 0,
        "slot": "12",
        "type": "t_mapping(t_address,t_array(t_uint256)dyn_storage)"
      }
    ],
    "types": {
      "t_address": {
        "encoding": "inplace",
        "label": "address",
        "numberOfBytes": "20"
      },
      "t_array(t_struct(Game)10736_storage)dyn_storage": {
        "base": "t_struct(Game)10736_storage",
        "encoding": "dynamic_array",
        "label": "struct BCTypes.Game[]",
        "numberOfBytes": "32"
      },
      "t_array(t_uint256)dyn_storage": {
        "base": "t_uint256",
        "encoding": "dynamic_array",
        "label": "uint256[]",
        "numberOfBytes": "32"
      },
      "t_bool": {
        "encoding": "inplace",
        "label": "bool",
        "numberOfBytes": "1"
      },
      "t_contract(CharInterface)4850": {
        "encoding": "inplace",
        "label": "contract CharInterface",
        "numberOfBytes": "20"
      },
      "t_contract(EventsInterface)4836": {
        "encoding": "inplace",
        "label": "contract EventsInterface",
        "numberOfBytes": "20"
      },
      "t_contract(ItemsInterface)4985": {
        "encoding": "inplace",
        "label": "contract ItemsInterface",
        "numberOfBytes": "20"
      },
      "t_contract(MapInterface)4971": {
        "encoding": "inplace",
        "label": "contract MapInterface",
        "numberOfBytes": "20"
      },
      "t_contract(PlayersInterface)5049": {
        "encoding": "inplace",
        "label": "contract PlayersInterface",
        "numberOfBytes": "20"
      },
      "t_contract(UtilsInterface)4860": {
        "encoding": "inplace",
        "label": "contract UtilsInterface",
        "numberOfBytes": "20"
      },
      "t_mapping(t_address,t_array(t_uint256)dyn_storage)": {
        "encoding": "mapping",
        "key": "t_address",
        "label": "mapping(address => uint256[])",
        "numberOfBytes": "32",
        "value": "t_array(t_uint256)dyn_storage"
      },
      "t_struct(EventTracker)10645_storage": {
        "encoding": "inplace",
        "label": "struct BCTypes.EventTracker",
        "members": [
          {
            "astId": 10638,
            "contract": "contracts/BCGames.sol:BCGames",
            "label": "bugEvents",
            "offset": 0,
            "slot": "0",
            "type": "t_uint8"
          },
          {
            "astId": 10640,
            "contract": "contracts/BCGames.sol:BCGames",
            "label": "mysteryEvents",
            "offset": 1,
            "slot": "0",
            "type": "t_uint8"
          },
          {
            "astId": 10642,
            "contract": "contracts/BCGames.sol:BCGames",
            "label": "scavEvents",
            "offset": 2,
            "slot": "0",
            "type": "t_uint8"
          },
          {
            "astId": 10644,
            "contract": "contracts/BCGames.sol:BCGames",
            "label": "shipEvents",
            "offset": 3,
            "slot": "0",
            "type": "t_uint8"
          }
        ],
        "numberOfBytes": "32"
      },
      "t_struct(Game)10736_storage": {
        "encoding": "inplace",
        "label": "struct BCTypes.Game",
        "members": [
          {
            "astId": 10710,
            "contract": "contracts/BCGames.sol:BCGames",
            "label": "active",
            "offset": 0,
            "slot": "0",
            "type": "t_bool"
          },
          {
            "astId": 10713,
            "contract": "contracts/BCGames.sol:BCGames",
            "label": "playerIndexes",
            "offset": 0,
            "slot": "1",
            "type": "t_array(t_uint256)dyn_storage"
          },
          {
            "astId": 10715,
            "contract": "contracts/BCGames.sol:BCGames",
            "label": "currentPlayerTurnIndex",
            "offset": 0,
            "slot": "2",
            "type": "t_uint256"
          },
          {
            "astId": 10717,
            "contract": "contracts/BCGames.sol:BCGames",
            "label": "numPlayers",
            "offset": 0,
            "slot": "3",
            "type": "t_uint256"
          },
          {
            "astId": 10719,
            "contract": "contracts/BCGames.sol:BCGames",
            "label": "turnsTaken",
            "offset": 0,
            "slot": "4",
            "type": "t_uint256"
          },
          {
            "astId": 10722,
            "contract": "contracts/BCGames.sol:BCGames",
            "label": "eventTracker",
            "offset": 0,
            "slot": "5",
            "type": "t_struct(EventTracker)10645_storage"
          },
          {
            "astId": 10724,
            "contract": "contracts/BCGames.sol:BCGames",
            "label": "mapContract",
            "offset": 0,
            "slot": "6",
            "type": "t_address"
          },
          {
            "astId": 10726,
            "contract": "contracts/BCGames.sol:BCGames",
            "label": "mapId",
            "offset": 0,
            "slot": "7",
            "type": "t_uint256"
          },
          {
            "astId": 10728,
            "contract": "contracts/BCGames.sol:BCGames",
            "label": "eventPlayerId",
            "offset": 0,
            "slot": "8",
            "type": "t_uint256"
          },
          {
            "astId": 10730,
            "contract": "contracts/BCGames.sol:BCGames",
            "label": "eventNumber",
            "offset": 0,
            "slot": "9",
            "type": "t_uint256"
          },
          {
            "astId": 10732,
            "contract": "contracts/BCGames.sol:BCGames",
            "label": "eventIsTile",
            "offset": 0,
            "slot": "10",
            "type": "t_bool"
          },
          {
            "astId": 10735,
            "contract": "contracts/BCGames.sol:BCGames",
            "label": "eventPosition",
            "offset": 0,
            "slot": "11",
            "type": "t_struct(Position)10650_storage"
          }
        ],
        "numberOfBytes": "384"
      },
      "t_struct(Position)10650_storage": {
        "encoding": "inplace",
        "label": "struct BCTypes.Position",
        "members": [
          {
            "astId": 10647,
            "contract": "contracts/BCGames.sol:BCGames",
            "label": "row",
            "offset": 0,
            "slot": "0",
            "type": "t_uint8"
          },
          {
            "astId": 10649,
            "contract": "contracts/BCGames.sol:BCGames",
            "label": "col",
            "offset": 1,
            "slot": "0",
            "type": "t_uint8"
          }
        ],
        "numberOfBytes": "32"
      },
      "t_uint256": {
        "encoding": "inplace",
        "label": "uint256",
        "numberOfBytes": "32"
      },
      "t_uint8": {
        "encoding": "inplace",
        "label": "uint8",
        "numberOfBytes": "1"
      }
    }
  }
}