{
  "address": "0x78cCBc8dD21e106B51E637aA482012081f9482dc",
  "abi": [
    {
      "inputs": [],
      "stateMutability": "nonpayable",
      "type": "constructor"
    },
    {
      "anonymous": false,
      "inputs": [
        {
          "indexed": false,
          "internalType": "uint256",
          "name": "gameId",
          "type": "uint256"
        },
        {
          "indexed": false,
          "internalType": "uint256",
          "name": "roll",
          "type": "uint256"
        },
        {
          "indexed": false,
          "internalType": "uint256",
          "name": "forValue",
          "type": "uint256"
        },
        {
          "indexed": false,
          "internalType": "uint256",
          "name": "against",
          "type": "uint256"
        }
      ],
      "name": "ChallengeEvent",
      "type": "event"
    },
    {
      "anonymous": false,
      "inputs": [
        {
          "indexed": false,
          "internalType": "uint256",
          "name": "gameId",
          "type": "uint256"
        },
        {
          "indexed": false,
          "internalType": "uint256",
          "name": "roll",
          "type": "uint256"
        }
      ],
      "name": "DiceRollEvent",
      "type": "event"
    },
    {
      "anonymous": false,
      "inputs": [
        {
          "indexed": true,
          "internalType": "address",
          "name": "previousOwner",
          "type": "address"
        },
        {
          "indexed": true,
          "internalType": "address",
          "name": "newOwner",
          "type": "address"
        }
      ],
      "name": "OwnershipTransferred",
      "type": "event"
    },
    {
      "inputs": [],
      "name": "StartLocation",
      "outputs": [
        {
          "internalType": "uint8",
          "name": "row",
          "type": "uint8"
        },
        {
          "internalType": "uint8",
          "name": "col",
          "type": "uint8"
        }
      ],
      "stateMutability": "view",
      "type": "function"
    },
    {
      "inputs": [
        {
          "internalType": "int256",
          "name": "x",
          "type": "int256"
        }
      ],
      "name": "abs",
      "outputs": [
        {
          "internalType": "int256",
          "name": "",
          "type": "int256"
        }
      ],
      "stateMutability": "pure",
      "type": "function"
    },
    {
      "inputs": [],
      "name": "actionsAddress",
      "outputs": [
        {
          "internalType": "address",
          "name": "",
          "type": "address"
        }
      ],
      "stateMutability": "view",
      "type": "function"
    },
    {
      "inputs": [
        {
          "internalType": "address",
          "name": "",
          "type": "address"
        },
        {
          "internalType": "uint256",
          "name": "",
          "type": "uint256"
        }
      ],
      "name": "addressToGame",
      "outputs": [
        {
          "internalType": "uint256",
          "name": "",
          "type": "uint256"
        }
      ],
      "stateMutability": "view",
      "type": "function"
    },
    {
      "inputs": [],
      "name": "bcEvents",
      "outputs": [
        {
          "internalType": "contract EventsInterface",
          "name": "",
          "type": "address"
        }
      ],
      "stateMutability": "view",
      "type": "function"
    },
    {
      "inputs": [],
      "name": "chars",
      "outputs": [
        {
          "internalType": "contract CharInterface",
          "name": "",
          "type": "address"
        }
      ],
      "stateMutability": "view",
      "type": "function"
    },
    {
      "inputs": [],
      "name": "charsAddress",
      "outputs": [
        {
          "internalType": "address",
          "name": "",
          "type": "address"
        }
      ],
      "stateMutability": "view",
      "type": "function"
    },
    {
      "inputs": [
        {
          "internalType": "uint256",
          "name": "_gameId",
          "type": "uint256"
        },
        {
          "components": [
            {
              "internalType": "uint8",
              "name": "row",
              "type": "uint8"
            },
            {
              "internalType": "uint8",
              "name": "col",
              "type": "uint8"
            }
          ],
          "internalType": "struct BCTypes.Position",
          "name": "_position",
          "type": "tuple"
        },
        {
          "internalType": "uint256",
          "name": "_playerId",
          "type": "uint256"
        },
        {
          "internalType": "uint256",
          "name": "_debugRoomId",
          "type": "uint256"
        }
      ],
      "name": "debugMovePlayer",
      "outputs": [],
      "stateMutability": "nonpayable",
      "type": "function"
    },
    {
      "inputs": [
        {
          "internalType": "uint256",
          "name": "_gameId",
          "type": "uint256"
        },
        {
          "internalType": "uint256",
          "name": "_playerId",
          "type": "uint256"
        },
        {
          "internalType": "bool",
          "name": "_free",
          "type": "bool"
        }
      ],
      "name": "endPlayerAction",
      "outputs": [],
      "stateMutability": "nonpayable",
      "type": "function"
    },
    {
      "inputs": [
        {
          "internalType": "uint256",
          "name": "_id",
          "type": "uint256"
        }
      ],
      "name": "extGetGame",
      "outputs": [
        {
          "components": [
            {
              "internalType": "bool",
              "name": "active",
              "type": "bool"
            },
            {
              "internalType": "uint256[]",
              "name": "playerIndexes",
              "type": "uint256[]"
            },
            {
              "internalType": "uint256",
              "name": "currentPlayerTurnIndex",
              "type": "uint256"
            },
            {
              "internalType": "uint256",
              "name": "numPlayers",
              "type": "uint256"
            },
            {
              "internalType": "uint256",
              "name": "turnsTaken",
              "type": "uint256"
            },
            {
              "components": [
                {
                  "internalType": "uint8",
                  "name": "bugEvents",
                  "type": "uint8"
                },
                {
                  "internalType": "uint8",
                  "name": "mysteryEvents",
                  "type": "uint8"
                },
                {
                  "internalType": "uint8",
                  "name": "scavEvents",
                  "type": "uint8"
                },
                {
                  "internalType": "uint8",
                  "name": "shipEvents",
                  "type": "uint8"
                }
              ],
              "internalType": "struct BCTypes.EventTracker",
              "name": "eventTracker",
              "type": "tuple"
            },
            {
              "internalType": "uint256",
              "name": "mapId",
              "type": "uint256"
            },
            {
              "internalType": "uint256",
              "name": "eventPlayerId",
              "type": "uint256"
            },
            {
              "internalType": "uint256",
              "name": "eventNumber",
              "type": "uint256"
            },
            {
              "internalType": "enum BCTypes.BCEventType",
              "name": "eventType",
              "type": "uint8"
            },
            {
              "components": [
                {
                  "internalType": "uint8",
                  "name": "row",
                  "type": "uint8"
                },
                {
                  "internalType": "uint8",
                  "name": "col",
                  "type": "uint8"
                }
              ],
              "internalType": "struct BCTypes.Position",
              "name": "eventPosition",
              "type": "tuple"
            },
            {
              "internalType": "uint256[]",
              "name": "unusedBugEvents",
              "type": "uint256[]"
            },
            {
              "internalType": "uint256[]",
              "name": "unusedMysteryEvents",
              "type": "uint256[]"
            },
            {
              "internalType": "uint256[]",
              "name": "unusedScavEvents",
              "type": "uint256[]"
            },
            {
              "internalType": "uint256[]",
              "name": "unusedShipEvents",
              "type": "uint256[]"
            },
            {
              "internalType": "uint256",
              "name": "turnTimeLimit",
              "type": "uint256"
            },
            {
              "internalType": "uint256",
              "name": "lastTurnTimestamp",
              "type": "uint256"
            },
            {
              "internalType": "uint256",
              "name": "DEBUG_returnAmount",
              "type": "uint256"
            }
          ],
          "internalType": "struct BCTypes.Game",
          "name": "",
          "type": "tuple"
        }
      ],
      "stateMutability": "view",
      "type": "function"
    },
    {
      "inputs": [
        {
          "internalType": "uint256",
          "name": "_gameId",
          "type": "uint256"
        }
      ],
      "name": "extGetGamePlayerIndexes",
      "outputs": [
        {
          "internalType": "uint256[]",
          "name": "",
          "type": "uint256[]"
        }
      ],
      "stateMutability": "view",
      "type": "function"
    },
    {
      "inputs": [
        {
          "internalType": "address",
          "name": "_playerAddress",
          "type": "address"
        }
      ],
      "name": "extGetGamesOfPlayer",
      "outputs": [
        {
          "internalType": "uint256[]",
          "name": "",
          "type": "uint256[]"
        }
      ],
      "stateMutability": "view",
      "type": "function"
    },
    {
      "inputs": [],
      "name": "extGetNumGames",
      "outputs": [
        {
          "internalType": "uint256",
          "name": "",
          "type": "uint256"
        }
      ],
      "stateMutability": "view",
      "type": "function"
    },
    {
      "inputs": [
        {
          "internalType": "uint256",
          "name": "_gameId",
          "type": "uint256"
        },
        {
          "components": [
            {
              "internalType": "uint8",
              "name": "row",
              "type": "uint8"
            },
            {
              "internalType": "uint8",
              "name": "col",
              "type": "uint8"
            }
          ],
          "internalType": "struct BCTypes.Position",
          "name": "_position",
          "type": "tuple"
        },
        {
          "internalType": "uint256",
          "name": "_playerId",
          "type": "uint256"
        }
      ],
      "name": "extMovePlayer",
      "outputs": [],
      "stateMutability": "nonpayable",
      "type": "function"
    },
    {
      "inputs": [
        {
          "internalType": "uint256",
          "name": "_gameId",
          "type": "uint256"
        }
      ],
      "name": "forceNextTurn",
      "outputs": [],
      "stateMutability": "nonpayable",
      "type": "function"
    },
    {
      "inputs": [
        {
          "internalType": "uint256",
          "name": "",
          "type": "uint256"
        }
      ],
      "name": "games",
      "outputs": [
        {
          "internalType": "bool",
          "name": "active",
          "type": "bool"
        },
        {
          "internalType": "uint256",
          "name": "currentPlayerTurnIndex",
          "type": "uint256"
        },
        {
          "internalType": "uint256",
          "name": "numPlayers",
          "type": "uint256"
        },
        {
          "internalType": "uint256",
          "name": "turnsTaken",
          "type": "uint256"
        },
        {
          "components": [
            {
              "internalType": "uint8",
              "name": "bugEvents",
              "type": "uint8"
            },
            {
              "internalType": "uint8",
              "name": "mysteryEvents",
              "type": "uint8"
            },
            {
              "internalType": "uint8",
              "name": "scavEvents",
              "type": "uint8"
            },
            {
              "internalType": "uint8",
              "name": "shipEvents",
              "type": "uint8"
            }
          ],
          "internalType": "struct BCTypes.EventTracker",
          "name": "eventTracker",
          "type": "tuple"
        },
        {
          "internalType": "uint256",
          "name": "mapId",
          "type": "uint256"
        },
        {
          "internalType": "uint256",
          "name": "eventPlayerId",
          "type": "uint256"
        },
        {
          "internalType": "uint256",
          "name": "eventNumber",
          "type": "uint256"
        },
        {
          "internalType": "enum BCTypes.BCEventType",
          "name": "eventType",
          "type": "uint8"
        },
        {
          "components": [
            {
              "internalType": "uint8",
              "name": "row",
              "type": "uint8"
            },
            {
              "internalType": "uint8",
              "name": "col",
              "type": "uint8"
            }
          ],
          "internalType": "struct BCTypes.Position",
          "name": "eventPosition",
          "type": "tuple"
        },
        {
          "internalType": "uint256",
          "name": "turnTimeLimit",
          "type": "uint256"
        },
        {
          "internalType": "uint256",
          "name": "lastTurnTimestamp",
          "type": "uint256"
        },
        {
          "internalType": "uint256",
          "name": "DEBUG_returnAmount",
          "type": "uint256"
        }
      ],
      "stateMutability": "view",
      "type": "function"
    },
    {
      "inputs": [
        {
          "components": [
            {
              "internalType": "uint8",
              "name": "row",
              "type": "uint8"
            },
            {
              "internalType": "uint8",
              "name": "col",
              "type": "uint8"
            }
          ],
          "internalType": "struct BCTypes.Position",
          "name": "_firstRoom",
          "type": "tuple"
        },
        {
          "components": [
            {
              "internalType": "uint8",
              "name": "row",
              "type": "uint8"
            },
            {
              "internalType": "uint8",
              "name": "col",
              "type": "uint8"
            }
          ],
          "internalType": "struct BCTypes.Position",
          "name": "_secondRoom",
          "type": "tuple"
        }
      ],
      "name": "getDirectionBetween",
      "outputs": [
        {
          "internalType": "uint256",
          "name": "",
          "type": "uint256"
        }
      ],
      "stateMutability": "pure",
      "type": "function"
    },
    {
      "inputs": [
        {
          "internalType": "uint256",
          "name": "_direction",
          "type": "uint256"
        },
        {
          "components": [
            {
              "internalType": "uint8",
              "name": "row",
              "type": "uint8"
            },
            {
              "internalType": "uint8",
              "name": "col",
              "type": "uint8"
            }
          ],
          "internalType": "struct BCTypes.Position",
          "name": "_start",
          "type": "tuple"
        }
      ],
      "name": "getNeighborRoom",
      "outputs": [
        {
          "components": [
            {
              "internalType": "uint8",
              "name": "row",
              "type": "uint8"
            },
            {
              "internalType": "uint8",
              "name": "col",
              "type": "uint8"
            }
          ],
          "internalType": "struct BCTypes.Position",
          "name": "",
          "type": "tuple"
        }
      ],
      "stateMutability": "pure",
      "type": "function"
    },
    {
      "inputs": [
        {
          "internalType": "uint256",
          "name": "_traitNum",
          "type": "uint256"
        },
        {
          "internalType": "uint256",
          "name": "_subTraitNum",
          "type": "uint256"
        }
      ],
      "name": "getUIOffset",
      "outputs": [
        {
          "internalType": "uint256",
          "name": "",
          "type": "uint256"
        }
      ],
      "stateMutability": "pure",
      "type": "function"
    },
    {
      "inputs": [],
      "name": "items",
      "outputs": [
        {
          "internalType": "contract ItemsInterface",
          "name": "",
          "type": "address"
        }
      ],
      "stateMutability": "view",
      "type": "function"
    },
    {
      "inputs": [
        {
          "internalType": "uint256",
          "name": "_gameId",
          "type": "uint256"
        },
        {
          "internalType": "uint256",
          "name": "_playerId",
          "type": "uint256"
        },
        {
          "internalType": "uint256",
          "name": "_currentPlayerTurnIndex",
          "type": "uint256"
        }
      ],
      "name": "leaveGame",
      "outputs": [],
      "stateMutability": "nonpayable",
      "type": "function"
    },
    {
      "inputs": [],
      "name": "lobbiesAddress",
      "outputs": [
        {
          "internalType": "address",
          "name": "",
          "type": "address"
        }
      ],
      "stateMutability": "view",
      "type": "function"
    },
    {
      "inputs": [],
      "name": "maps",
      "outputs": [
        {
          "internalType": "contract MapInterface",
          "name": "",
          "type": "address"
        }
      ],
      "stateMutability": "view",
      "type": "function"
    },
    {
      "inputs": [
        {
          "internalType": "uint256",
          "name": "_min",
          "type": "uint256"
        },
        {
          "internalType": "uint256",
          "name": "_max",
          "type": "uint256"
        },
        {
          "internalType": "uint256",
          "name": "_val",
          "type": "uint256"
        },
        {
          "internalType": "uint256",
          "name": "_valMax",
          "type": "uint256"
        }
      ],
      "name": "normalizeToSmallRange",
      "outputs": [
        {
          "internalType": "uint8",
          "name": "",
          "type": "uint8"
        }
      ],
      "stateMutability": "pure",
      "type": "function"
    },
    {
      "inputs": [
        {
          "internalType": "uint256",
          "name": "_direction",
          "type": "uint256"
        }
      ],
      "name": "opposite",
      "outputs": [
        {
          "internalType": "uint256",
          "name": "",
          "type": "uint256"
        }
      ],
      "stateMutability": "pure",
      "type": "function"
    },
    {
      "inputs": [],
      "name": "owner",
      "outputs": [
        {
          "internalType": "address",
          "name": "",
          "type": "address"
        }
      ],
      "stateMutability": "view",
      "type": "function"
    },
    {
      "inputs": [],
      "name": "players",
      "outputs": [
        {
          "internalType": "contract PlayersInterface",
          "name": "",
          "type": "address"
        }
      ],
      "stateMutability": "view",
      "type": "function"
    },
    {
      "inputs": [],
      "name": "randKeccak",
      "outputs": [
        {
          "internalType": "bytes32",
          "name": "",
          "type": "bytes32"
        }
      ],
      "stateMutability": "nonpayable",
      "type": "function"
    },
    {
      "inputs": [],
      "name": "renounceOwnership",
      "outputs": [],
      "stateMutability": "nonpayable",
      "type": "function"
    },
    {
      "inputs": [
        {
          "internalType": "uint256",
          "name": "_gameId",
          "type": "uint256"
        },
        {
          "internalType": "uint256",
          "name": "_for",
          "type": "uint256"
        },
        {
          "internalType": "uint256",
          "name": "_against",
          "type": "uint256"
        }
      ],
      "name": "resolveChallenge",
      "outputs": [
        {
          "internalType": "bool",
          "name": "",
          "type": "bool"
        }
      ],
      "stateMutability": "nonpayable",
      "type": "function"
    },
    {
      "inputs": [
        {
          "internalType": "uint256",
          "name": "_gameId",
          "type": "uint256"
        },
        {
          "internalType": "uint256",
          "name": "_choice",
          "type": "uint256"
        }
      ],
      "name": "resolveEvent",
      "outputs": [],
      "stateMutability": "nonpayable",
      "type": "function"
    },
    {
      "inputs": [
        {
          "internalType": "uint256",
          "name": "_gameId",
          "type": "uint256"
        }
      ],
      "name": "roll",
      "outputs": [
        {
          "internalType": "uint256",
          "name": "",
          "type": "uint256"
        }
      ],
      "stateMutability": "nonpayable",
      "type": "function"
    },
    {
      "inputs": [
        {
          "internalType": "address",
          "name": "_charAddress",
          "type": "address"
        },
        {
          "internalType": "address",
          "name": "_utilsAddress",
          "type": "address"
        },
        {
          "internalType": "address",
          "name": "_mapsAddress",
          "type": "address"
        },
        {
          "internalType": "address",
          "name": "_lobbiesAddress",
          "type": "address"
        },
        {
          "internalType": "address",
          "name": "_actionsAddress",
          "type": "address"
        },
        {
          "internalType": "address",
          "name": "_eventsAddress",
          "type": "address"
        },
        {
          "internalType": "address",
          "name": "_itemsAddress",
          "type": "address"
        },
        {
          "internalType": "address",
          "name": "_playersAddress",
          "type": "address"
        }
      ],
      "name": "setContractAddresses",
      "outputs": [],
      "stateMutability": "nonpayable",
      "type": "function"
    },
    {
      "inputs": [
        {
          "internalType": "bytes32",
          "name": "_hash",
          "type": "bytes32"
        },
        {
          "internalType": "uint256",
          "name": "_size",
          "type": "uint256"
        },
        {
          "internalType": "uint256",
          "name": "_offset",
          "type": "uint256"
        }
      ],
      "name": "sliceHashToSmallInt",
      "outputs": [
        {
          "internalType": "uint8",
          "name": "",
          "type": "uint8"
        }
      ],
      "stateMutability": "pure",
      "type": "function"
    },
    {
      "inputs": [
        {
          "internalType": "uint8",
          "name": "_min",
          "type": "uint8"
        },
        {
          "internalType": "uint8",
          "name": "_max",
          "type": "uint8"
        }
      ],
      "name": "smallIntBetweenVals",
      "outputs": [
        {
          "internalType": "uint8",
          "name": "",
          "type": "uint8"
        }
      ],
      "stateMutability": "nonpayable",
      "type": "function"
    },
    {
      "inputs": [
        {
          "internalType": "uint256[]",
          "name": "_playerIndexes",
          "type": "uint256[]"
        },
        {
          "internalType": "uint256",
          "name": "_numPlayers",
          "type": "uint256"
        },
        {
          "internalType": "uint256",
          "name": "_debugRoomId",
          "type": "uint256"
        }
      ],
      "name": "startGame",
      "outputs": [
        {
          "internalType": "uint256",
          "name": "",
          "type": "uint256"
        }
      ],
      "stateMutability": "nonpayable",
      "type": "function"
    },
    {
      "inputs": [
        {
          "internalType": "address",
          "name": "newOwner",
          "type": "address"
        }
      ],
      "name": "transferOwnership",
      "outputs": [],
      "stateMutability": "nonpayable",
      "type": "function"
    }
  ],
  "transactionHash": "0xf76b726401f3ae9068890fd257bfbce74abc713772c4022665d0412a40888fe6",
  "args": [],
  "numDeployments": 1,
  "solcInputHash": "78e2a8fb7cfd3a77bab225bc7b7bf1cc",
  "bytecode": "0x600060015560c0604052600a6080819052600660a052805461ffff191661060a1790553480156200002f57600080fd5b506200003b3362000041565b62000091565b600080546001600160a01b038381166001600160a01b0319831681178455604051919092169283917f8be0079c531659141344cd1fd0a4f28419497f9722a3daafe3b4186f6b6457e09190a35050565b613c7480620000a16000396000f3fe608060405234801561001057600080fd5b50600436106102275760003560e01c80637b45c0d411610130578063a99d2a8b116100b8578063dc0b35641161007c578063dc0b3564146104f8578063dc769ee81461050b578063f101de9a1461053b578063f2fde38b1461054e578063fa3993c21461056157600080fd5b8063a99d2a8b14610499578063aa6e8030146104ac578063afd62bb2146104bf578063c06fad06146104d2578063ce28613f146104e557600080fd5b80638da5cb5b116100ff5780638da5cb5b1461042f578063921d279914610440578063951fc3fe1461045357806397f34c3f146104735780639fca1ee11461048657600080fd5b80637b45c0d4146103e35780637ddae103146103f65780638214f222146104095780638bf52bc31461041c57600080fd5b806340d4fd78116101b35780635dc96967116101825780635dc969671461037257806364db84bf1461039557806364f66467146103a85780636fe99c18146103bb578063715018a6146103db57600080fd5b806340d4fd781461031257806346f2434b14610332578063530116961461033a578063547314221461035f57600080fd5b80631b5ac4b5116101fa5780631b5ac4b5146102b05780631e1de205146102d15780631f7b4f30146102d9578063336d7d7b146102ec5780633deaec2b146102ff57600080fd5b80630a0c9ca41461022c57806310a2cd0d14610241578063117a5b9014610271578063175142251461029d575b600080fd5b61023f61023a366004612df4565b610574565b005b600254610254906001600160a01b031681565b6040516001600160a01b0390911681526020015b60405180910390f35b61028461027f366004612e20565b6107e0565b6040516102689d9c9b9a99989796959493929190612e71565b61023f6102ab366004613005565b6108b0565b6102c36102be366004612e20565b610931565b604051908152602001610268565b6102c3610951565b6102c36102e7366004612e20565b6109c9565b600754610254906001600160a01b031681565b600354610254906001600160a01b031681565b610325610320366004612e20565b610a25565b6040516102689190613076565b600b546102c3565b61034d610348366004613089565b610b17565b60405160ff9091168152602001610268565b61023f61036d366004612e20565b610b54565b610385610380366004612df4565b610c78565b6040519015158152602001610268565b6102c36103a33660046130bb565b610d15565b61023f6103b63660046130bb565b610d2d565b6103ce6103c9366004612e20565b610e32565b60405161026891906130dd565b61023f611133565b600954610254906001600160a01b031681565b600454610254906001600160a01b031681565b6102c3610417366004612e20565b611147565b61023f61042a366004613280565b6111c1565b6000546001600160a01b0316610254565b61023f61044e3660046132d1565b611219565b61046661046136600461337a565b6112a1565b60405161026891906133a7565b61034d610481366004612df4565b6113cb565b600854610254906001600160a01b031681565b6102c36104a73660046133c5565b6113f6565b61023f6104ba3660046133ff565b611427565b6103256104cd366004613438565b61155e565b600554610254906001600160a01b031681565b61034d6104f3366004613455565b61162f565b600654610254906001600160a01b031681565b600a546105219060ff8082169161010090041682565b6040805160ff938416815292909116602083015201610268565b6102c36105493660046134b2565b6116df565b61023f61055c366004613438565b611bad565b6102c361056f366004613558565b611c26565b6009546001600160a01b031633146105ca5760405162461bcd60e51b8152602060048201526014602482015273139bdd081858dd1a5bdb9cc818dbdb9d1c9858dd60621b60448201526064015b60405180910390fd5b6000600b84815481106105df576105df613584565b60009182526020909120600554604051635f87260160e01b81526004810187905260248101889052601290930290910192506001600160a01b031690635f87260190604401600060405180830381600087803b15801561063e57600080fd5b505af1158015610652573d6000803e3d6000fd5b5050600254604051631ff77ac560e11b8152600481018790526001600160a01b039091169250633feef58a9150602401600060405180830381600087803b15801561069c57600080fd5b505af11580156106b0573d6000803e3d6000fd5b505050506001818101546000916106c6916135b0565b67ffffffffffffffff8111156106de576106de612f21565b604051908082528060200260200182016040528015610707578160200160208202803683370190505b5090506000805b600184015481101561077e5780851461076c5783600101818154811061073657610736613584565b906000526020600020015483838151811061075357610753613584565b602090810291909101015281610768816135c3565b9250505b80610776816135c3565b91505061070e565b5081516107949060018501906020850190612cbb565b506003830180549060006107a7836135dc565b909155505060018301546002840154036107c357600060028401555b60018301546000036107d857825460ff191683555b505050505050565b600b81815481106107f057600080fd5b6000918252602091829020601290910201805460028201546003830154600484015460408051608081018252600587015460ff81811683526101008083048216848c0152620100008304821684860152630100000090920481166060840152600689015460078a015460088b015460098c01548751808901909852600a8d015480861689529590950484169c87019c909c52600f8b015460108c01546011909c01549a84169d50989b979a9699949891979096909593909216939091908d565b6009546001600160a01b03163314806108d357506006546001600160a01b031633145b61091f5760405162461bcd60e51b815260206004820152601c60248201527f4e6f7420616374696f6e732f706c617965727320636f6e74726163740000000060448201526064016105c1565b61092c8383836000611cee565b505050565b60008082121561094957610944826135f3565b61094b565b815b92915050565b6001805460009182610962836135c3565b919050555060015460014361097791906135b0565b40336040516020016109ae93929190928352602083019190915260601b6bffffffffffffffffffffffff1916604082015260540190565b60405160208183030381529060405280519060200120905090565b6000806109d86001600661162f565b60ff1690507ffe34d093a460a16ee5fb374540914d1c734a17502c0c1a87b387c8d6097e1c518382604051610a17929190918252602082015260400190565b60405180910390a192915050565b60606000600b8381548110610a3c57610a3c613584565b90600052602060002090601202016001018054905067ffffffffffffffff811115610a6957610a69612f21565b604051908082528060200260200182016040528015610a92578160200160208202803683370190505b50905060005b8151811015610b1057600b8481548110610ab457610ab4613584565b90600052602060002090601202016001018181548110610ad657610ad6613584565b9060005260206000200154828281518110610af357610af3613584565b602090810291909101015280610b08816135c3565b915050610a98565b5092915050565b600080610b2486866135b0565b9050600083610b33868461360f565b610b3d919061363c565b9050610b498782613650565b979650505050505050565b6000600b8281548110610b6957610b69613584565b906000526020600020906012020190506001816001018054905011610bd05760405162461bcd60e51b815260206004820152601960248201527f43616e277420666f7263652073696e676c6520706c617965720000000000000060448201526064016105c1565b80600f01548160100154610be49190613650565b4211610c325760405162461bcd60e51b815260206004820152601760248201527f5374696c6c2077697468696e2074696d65206c696d697400000000000000000060448201526064016105c1565b600881015415610c4757610c478260006126ea565b610c748282600101836002015481548110610c6457610c64613584565b90600052602060002001546127b6565b5050565b600080610c84856109c9565b6040805187815260208101839052908101869052606081018590529091507f75b6a8325595f91135e07382840634226793c68c9e59623da7e10d7ad3d95b959060800160405180910390a180600103610ce1576000915050610d0e565b600383610cee8684613650565b610cf89190613663565b1315610d08576001915050610d0e565b60009150505b9392505050565b600081610d2384600461360f565b610d0e9190613650565b6000600b8381548110610d4257610d42613584565b600091825260209091206006546012909202016007810154604051636621a42160e01b815260048101919091529092506001600160a01b0390911690636621a42190602401602060405180830381865afa158015610da4573d6000803e3d6000fd5b505050506040513d601f19601f82011682018060405250810190610dc89190613683565b6001600160a01b0316336001600160a01b031614610e285760405162461bcd60e51b815260206004820152601960248201527f4576656e74206e6f7420666f7220796f757220706c617965720000000000000060448201526064016105c1565b61092c83836126ea565b610e3a612d06565b600b8281548110610e4d57610e4d613584565b600091825260209182902060408051610240810182526012909302909101805460ff1615158352600181018054835181870281018701909452808452939491938583019392830182828015610ec157602002820191906000526020600020905b815481526020019060010190808311610ead575b505050918352505060028201546020808301919091526003830154604080840191909152600484015460608085019190915281516080818101845260058088015460ff808216855261010080830482169886019890985262010000820481169685019690965263010000009004851693830193909352850152600685015460a0850152600785015460c0850152600885015460e085015260098501549290930192911690811115610f7457610f74612e39565b6005811115610f8557610f85612e39565b8152604080518082018252600a84015460ff80821683526101009091041660208281019190915280840191909152600b84018054835181840281018401855281815293909401939091830182828015610ffd57602002820191906000526020600020905b815481526020019060010190808311610fe9575b50505050508152602001600c820180548060200260200160405190810160405280929190818152602001828054801561105557602002820191906000526020600020905b815481526020019060010190808311611041575b50505050508152602001600d82018054806020026020016040519081016040528092919081815260200182805480156110ad57602002820191906000526020600020905b815481526020019060010190808311611099575b50505050508152602001600e820180548060200260200160405190810160405280929190818152602001828054801561110557602002820191906000526020600020905b8154815260200190600101908083116110f1575b50505050508152602001600f8201548152602001601082015481526020016011820154815250509050919050565b61113b612892565b61114560006128ec565b565b60008160000361115957506001919050565b8160010361116957506000919050565b8160020361117957506003919050565b8160030361118957506002919050565b60405162461bcd60e51b815260206004820152600d60248201526c2130b2103234b932b1ba34b7b760991b60448201526064016105c1565b6000546001600160a01b031633146112075760405162461bcd60e51b81526020600482015260096024820152682737ba1037bbb732b960b91b60448201526064016105c1565b61121384848484611cee565b50505050565b611221612892565b600280546001600160a01b03199081166001600160a01b039a8b1617909155600380548216978a169790971790965560078054871695891695909517909455600980548616938816939093179092556004805485169187169190911790556005805484169186169190911790556006805490921693169290921790915550565b6040805180820190915260008082526020820152826000036112f3576040518060400160405280600184600001516112d991906136a0565b60ff168152602001836020015160ff16815250905061094b565b82600103611317576040518060400160405280836000015160016112d991906136b9565b82600203611354576040518060400160405280836000015160ff1681526020018360200151600161134891906136b9565b60ff169052905061094b565b82600303611385576040518060400160405280836000015160ff1681526020016001846020015161134891906136a0565b60006113908461293c565b6040516020016113a091906136f6565b60405160208183030381529060405290508060405162461bcd60e51b81526004016105c19190613731565b6000808260016113dc866002613848565b6113e691906135b0565b901b8516831c9150509392505050565b600c602052816000526040600020818154811061141257600080fd5b90600052602060002001600091509150505481565b6009546001600160a01b031633146114785760405162461bcd60e51b8152602060048201526014602482015273139bdd081858dd1a5bdb9cc818dbdb9d1c9858dd60621b60448201526064016105c1565b806114dc5760065460405163ce93229760e01b8152600481018490526001600160a01b039091169063ce93229790602401600060405180830381600087803b1580156114c357600080fd5b505af11580156114d7573d6000803e3d6000fd5b505050505b6006546040516347d0e3c960e01b8152600481018490526000916001600160a01b0316906347d0e3c990602401602060405180830381865afa158015611526573d6000803e3d6000fd5b505050506040513d601f19601f8201168201806040525081019061154a9190613854565b9050600381106112135761121384846127b6565b6001600160a01b0381166000908152600c60205260408120546060919067ffffffffffffffff81111561159357611593612f21565b6040519080825280602002602001820160405280156115bc578160200160208202803683370190505b50905060005b8151811015610b10576001600160a01b0384166000908152600c602052604090208054829081106115f5576115f5613584565b906000526020600020015482828151811061161257611612613584565b602090810291909101015280611627816135c3565b9150506115c2565b6001805460009182611640836135c3565b919050555060003360015460014361165891906135b0565b60405160609390931b6bffffffffffffffffffffffff19166020840152603483019190915240605482015260740160408051601f198184030181529190528051602090910120905060006116ac85856136a0565b6116b79060016136b9565b90508460ff168160ff16836116cc919061386d565b6116d69190613650565b95945050505050565b6007546000906001600160a01b031633146117315760405162461bcd60e51b8152602060048201526012602482015271139bdd081b1bd8989e4818dbdb9d1c9858dd60721b60448201526064016105c1565b600b80546001818101808455600093845260129092027f0175b7a638427703f0dbe7bb9bbf987a2551717b34e79f33b5b1008d1fa01db901929161177591906135b0565b825460ff1916600190811784556000600485015587519192506117a091908401906020890190612cbb565b50600382018590556040805160808101825260008082526020820181905291810182905260600181905260058301805463ffffffff1916905584900361186357600360009054906101000a90046001600160a01b03166001600160a01b031663f01fc35a6040518163ffffffff1660e01b81526004016020604051808303816000875af1158015611835573d6000803e3d6000fd5b505050506040513d601f19601f820116820180604052508101906118599190613854565b60068301556118d8565b60035460405163148e052f60e21b8152600481018690526001600160a01b039091169063523814bc906024016020604051808303816000875af11580156118ae573d6000803e3d6000fd5b505050506040513d601f19601f820116820180604052508101906118d29190613854565b60068301555b60005b6118e66001876135b0565b8111611a0e57600683015460408051808201909152600a5460ff8082168352610100909104166020820152600185018054611940939291908590811061192e5761192e613584565b90600052602060002001546000611cee565b60065487516000916001600160a01b031690636621a421908a908590811061196a5761196a613584565b60200260200101516040518263ffffffff1660e01b815260040161199091815260200190565b602060405180830381865afa1580156119ad573d6000803e3d6000fd5b505050506040513d601f19601f820116820180604052508101906119d19190613683565b6001600160a01b03166000908152600c60209081526040822080546001810182559083529120018390555080611a06816135c3565b9150506118db565b5060065460405163e7169ec560e01b81526001600160a01b039091169063e7169ec590611a419089908590600401613881565b600060405180830381600087803b158015611a5b57600080fd5b505af1158015611a6f573d6000803e3d6000fd5b5050600554604051633b09709560e21b81526001600160a01b03909116925063ec25c2549150611aa59084908a906004016138a3565b600060405180830381600087803b158015611abf57600080fd5b505af1158015611ad3573d6000803e3d6000fd5b505050506000604051806101e00160405280600181526020016002815260200160038152602001600481526020016005815260200160068152602001600781526020016008815260200160098152602001600a8152602001600b8152602001600c8152602001600d8152602001600e8152602001600f81525090508083600b0190600f611b61929190612cbb565b50611b71600c840182600f612cbb565b50611b81600d840182600f612cbb565b50611b91600e840182600f612cbb565b505061012c600f83015542601090920191909155949350505050565b611bb5612892565b6001600160a01b038116611c1a5760405162461bcd60e51b815260206004820152602660248201527f4f776e61626c653a206e6577206f776e657220697320746865207a65726f206160448201526564647265737360d01b60648201526084016105c1565b611c23816128ec565b50565b80518251600091611c36916138bc565b60000b600103611c485750600061094b565b81518351611c5691906138bc565b60000b19611c665750600161094b565b81602001518360200151611c7a91906138bc565b60000b19611c8a5750600261094b565b81602001518360200151611c9e91906138bc565b60000b600103611cb05750600361094b565b60405162461bcd60e51b8152602060048201526013602482015272115c9c9bdc8e88139bdd0818591a9858d95b9d606a1b60448201526064016105c1565b6000600b8581548110611d0357611d03613584565b9060005260206000209060120201905080600101600081548110611d2957611d29613584565b9060005260206000200154831480611d60575080600101600181548110611d5257611d52613584565b906000526020600020015483145b80611d8a575080600101600281548110611d7c57611d7c613584565b906000526020600020015483145b80611db4575080600101600381548110611da657611da6613584565b906000526020600020015483145b611e005760405162461bcd60e51b815260206004820152601760248201527f506c61796572206e6f7420696e20746869732067616d6500000000000000000060448201526064016105c1565b600654600b80546001600160a01b0390921691638d491b3e9187918791908a908110611e2e57611e2e613584565b9060005260206000209060120201600601546040518463ffffffff1660e01b8152600401611e5e939291906138dd565b6020604051808303816000875af1158015611e7d573d6000803e3d6000fd5b505050506040513d601f19601f82011682018060405250810190611ea1919061391c565b6126e357600354600b80546000926001600160a01b0316916381bad36d9189908110611ecf57611ecf613584565b90600052602060002090601202016006015487600001518860200151876040518563ffffffff1660e01b8152600401611f25949392919093845260ff928316602085015291166040830152606082015260800190565b6020604051808303816000875af1158015611f44573d6000803e3d6000fd5b505050506040513d601f19601f82011682018060405250810190611f689190613854565b600354600b80549293506000926001600160a01b0390921691635805828391908a908110611f9857611f98613584565b906000526020600020906012020160060154846040518363ffffffff1660e01b8152600401611fd1929190918252602082015260400190565b60a060405180830381865afa158015611fee573d6000803e3d6000fd5b505050506040513d601f19601f820116820180604052508101906120129190613944565b9050600282118015612037575060008151600581111561203457612034612e39565b14155b156126e05760018151600581111561205157612051612e39565b036120a457600b878154811061206957612069613584565b600091825260208220600560129092020101805460ff169161208a836139d7565b91906101000a81548160ff021916908360ff160217905550505b6002815160058111156120b9576120b9612e39565b0361211457600b87815481106120d1576120d1613584565b600091825260209091206012909102016005018054610100900460ff169060016120fa836139d7565b91906101000a81548160ff021916908360ff160217905550505b60038151600581111561212957612129612e39565b0361218557600b878154811061214157612141613584565b60009182526020909120601290910201600501805462010000900460ff1690600261216b836139d7565b91906101000a81548160ff021916908360ff160217905550505b60048151600581111561219a5761219a612e39565b036121f757600b87815481106121b2576121b2613584565b6000918252602090912060129091020160050180546301000000900460ff169060036121dd836139d7565b91906101000a81548160ff021916908360ff160217905550505b6020810151156123765760048054602083015160405163c82c37b960e01b8152928301526000916001600160a01b039091169063c82c37b990602401600060405180830381865afa158015612250573d6000803e3d6000fd5b505050506040513d6000823e601f3d908101601f191682016040526122789190810190613a8e565b905080602001516123705785600b898154811061229757612297613584565b9060005260206000209060120201600701819055508160200151600b89815481106122c4576122c4613584565b9060005260206000209060120201600801819055506005600b89815481106122ee576122ee613584565b60009182526020909120600960129092020101805460ff1916600183600581111561231b5761231b612e39565b021790555086600b898154811061233457612334613584565b60009182526020918290208351600a6012909302909101919091018054939092015160ff9081166101000261ffff199094169116179190911790555b506126e0565b60008151600581111561238b5761238b612e39565b146126e05784600b88815481106123a4576123a4613584565b90600052602060002090601202016007018190555085600b88815481106123cd576123cd613584565b60009182526020918290208351600a6012909302909101919091018054939092015160ff9081166101000261ffff1990941691161791909117905560018151600581111561241d5761241d612e39565b036124be5761244e600b888154811061243857612438613584565b9060005260206000209060120201600b01612a45565b600b888154811061246157612461613584565b9060005260206000209060120201600801819055506001600b888154811061248b5761248b613584565b60009182526020909120600960129092020101805460ff191660018360058111156124b8576124b8612e39565b02179055505b6002815160058111156124d3576124d3612e39565b0361257457612504600b88815481106124ee576124ee613584565b9060005260206000209060120201600c01612a45565b600b888154811061251757612517613584565b9060005260206000209060120201600801819055506002600b888154811061254157612541613584565b60009182526020909120600960129092020101805460ff1916600183600581111561256e5761256e612e39565b02179055505b60038151600581111561258957612589612e39565b0361262a576125ba600b88815481106125a4576125a4613584565b9060005260206000209060120201600d01612a45565b600b88815481106125cd576125cd613584565b9060005260206000209060120201600801819055506003600b88815481106125f7576125f7613584565b60009182526020909120600960129092020101805460ff1916600183600581111561262457612624612e39565b02179055505b60048151600581111561263f5761263f612e39565b036126e057612670600b888154811061265a5761265a613584565b9060005260206000209060120201600e01612a45565b600b888154811061268357612683613584565b9060005260206000209060120201600801819055506004600b88815481106126ad576126ad613584565b60009182526020909120600960129092020101805460ff191660018360058111156126da576126da612e39565b02179055505b50505b5050505050565b6000600b83815481106126ff576126ff613584565b6000918252602090912060068054601290930290910160078101549181015460088201546009830154604051636d291bbb60e01b81529396506001600160a01b0390951694636d291bbb9461276794899491938b93600a8b019260ff90911690600401613b80565b600060405180830381600087803b15801561278157600080fd5b505af1158015612795573d6000803e3d6000fd5b505060006007840181905560088401555050600901805460ff191690555050565b6000600b83815481106127cb576127cb613584565b6000918252602090912060065460405163065c363f60e41b815260048101869052601290930290910192506001600160a01b0316906365c363f090602401600060405180830381600087803b15801561282357600080fd5b505af1158015612837573d6000803e3d6000fd5b5050426010840155505060018082015461285191906135b0565b816002015410156128785760028101805490600061286e836135c3565b9190505550505050565b612886838260060154612b6b565b60006002820155505050565b6000546001600160a01b031633146111455760405162461bcd60e51b815260206004820181905260248201527f4f776e61626c653a2063616c6c6572206973206e6f7420746865206f776e657260448201526064016105c1565b600080546001600160a01b038381166001600160a01b0319831681178455604051919092169283917f8be0079c531659141344cd1fd0a4f28419497f9722a3daafe3b4186f6b6457e09190a35050565b6060816000036129635750506040805180820190915260018152600360fc1b602082015290565b8160005b811561298d5780612977816135c3565b91506129869050600a8361363c565b9150612967565b60008167ffffffffffffffff8111156129a8576129a8612f21565b6040519080825280601f01601f1916602001820160405280156129d2576020820181803683370190505b5090505b8415612a3d576129e76001836135b0565b91506129f4600a8661386d565b6129ff906030613650565b60f81b818381518110612a1457612a14613584565b60200101906001600160f81b031916908160001a905350612a36600a8661363c565b94506129d6565b949350505050565b80546000908190612a58906001906135b0565b90505b8015612b08576000612a6e60008361162f565b9050838160ff1681548110612a8557612a85613584565b9060005260206000200154848381548110612aa257612aa2613584565b9060005260206000200154858481548110612abf57612abf613584565b906000526020600020016000878560ff1681548110612ae057612ae0613584565b6000918252602090912001929092559190915550819050612b00816135dc565b915050612a5b565b5081546000908390612b1c906001906135b0565b81548110612b2c57612b2c613584565b9060005260206000200154905082805480612b4957612b49613bd5565b600190038181906000526020600020016000905590558060ff16915050919050565b6000600b8381548110612b8057612b80613584565b60009182526020909120600354604051630b06115560e31b815260048101869052601290930290910192506001600160a01b0316906358308aa890602401600060405180830381600087803b158015612bd857600080fd5b505af1158015612bec573d6000803e3d6000fd5b505060035460405163c6b41b4560e01b815260048101869052600160248201526001600160a01b03909116925063c6b41b459150604401600060405180830381600087803b158015612c3d57600080fd5b505af1158015612c51573d6000803e3d6000fd5b5050600680549084015460405163668a7f3b60e01b81526001600160a01b03909216935063668a7f3b9250612c8d916001860190600401613beb565b600060405180830381600087803b158015612ca757600080fd5b505af11580156126e0573d6000803e3d6000fd5b828054828255906000526020600020908101928215612cf6579160200282015b82811115612cf6578251825591602001919060010190612cdb565b50612d02929150612ddf565b5090565b60408051610240810182526000808252606060208084018290528385018390528184018390526080808501849052855190810186528381529081018390529384018290528301529060a0820190815260200160008152602001600081526020016000815260200160006005811115612d8057612d80612e39565b8152602001612da86040518060400160405280600060ff168152602001600060ff1681525090565b8152602001606081526020016060815260200160608152602001606081526020016000815260200160008152602001600081525090565b5b80821115612d025760008155600101612de0565b600080600060608486031215612e0957600080fd5b505081359360208301359350604090920135919050565b600060208284031215612e3257600080fd5b5035919050565b634e487b7160e01b600052602160045260246000fd5b60068110612e6d57634e487b7160e01b600052602160045260246000fd5b9052565b8d1515815260208082018e905260408083018e905260608084018e90528c5160ff9081166080860152928d0151831660a0850152908c0151821660c08401528b01511660e08201526102208101896101008301528861012083015287610140830152612ee1610160830188612e4f565b855160ff9081166101808401526020870151166101a0830152846101c0830152836101e0830152826102008301529e9d5050505050505050505050505050565b634e487b7160e01b600052604160045260246000fd5b6040805190810167ffffffffffffffff81118282101715612f5a57612f5a612f21565b60405290565b60405160e0810167ffffffffffffffff81118282101715612f5a57612f5a612f21565b604051601f8201601f1916810167ffffffffffffffff81118282101715612fac57612fac612f21565b604052919050565b60ff81168114611c2357600080fd5b600060408284031215612fd557600080fd5b612fdd612f37565b90508135612fea81612fb4565b81526020820135612ffa81612fb4565b602082015292915050565b60008060006080848603121561301a57600080fd5b8335925061302b8560208601612fc3565b9150606084013590509250925092565b600081518084526020808501945080840160005b8381101561306b5781518752958201959082019060010161304f565b509495945050505050565b602081526000610d0e602083018461303b565b6000806000806080858703121561309f57600080fd5b5050823594602084013594506040840135936060013592509050565b600080604083850312156130ce57600080fd5b50508035926020909101359150565b602081526130f060208201835115159052565b600060208301516102c080604085015261310e6102e085018361303b565b91506040850151606085015260608501516080850152608085015160a085015260a085015161316d60c086018260ff815116825260ff602082015116602083015260ff604082015116604083015260ff60608201511660608301525050565b5060c0850151610140818187015260e0870151915061016082818801526101008801519250610180838189015261012089015193506101a06131b1818a0186612e4f565b9289015193506101c0926131d789850186805160ff908116835260209182015116910152565b828a01519450601f199250610200838a890301818b01526131f8888761303b565b9750828b015195506102209250838a890301838b0152613218888761303b565b9750818b01519550838a8903016102408b0152613235888761303b565b9750848b01519550838a8903016102608b0152613252888761303b565b6101e08c01516102808c0152908b01516102a08b015291909901519490970193909352509395945050505050565b60008060008060a0858703121561329657600080fd5b843593506132a78660208701612fc3565b93969395505050506060820135916080013590565b6001600160a01b0381168114611c2357600080fd5b600080600080600080600080610100898b0312156132ee57600080fd5b88356132f9816132bc565b97506020890135613309816132bc565b96506040890135613319816132bc565b95506060890135613329816132bc565b94506080890135613339816132bc565b935060a0890135613349816132bc565b925060c0890135613359816132bc565b915060e0890135613369816132bc565b809150509295985092959890939650565b6000806060838503121561338d57600080fd5b8235915061339e8460208501612fc3565b90509250929050565b6040810161094b8284805160ff908116835260209182015116910152565b600080604083850312156133d857600080fd5b82356133e3816132bc565b946020939093013593505050565b8015158114611c2357600080fd5b60008060006060848603121561341457600080fd5b8335925060208401359150604084013561342d816133f1565b809150509250925092565b60006020828403121561344a57600080fd5b8135610d0e816132bc565b6000806040838503121561346857600080fd5b823561347381612fb4565b9150602083013561348381612fb4565b809150509250929050565b600067ffffffffffffffff8211156134a8576134a8612f21565b5060051b60200190565b6000806000606084860312156134c757600080fd5b833567ffffffffffffffff8111156134de57600080fd5b8401601f810186136134ef57600080fd5b803560206135046134ff8361348e565b612f83565b82815260059290921b8301810191818101908984111561352357600080fd5b938201935b8385101561354157843582529382019390820190613528565b999188013598505060409096013595945050505050565b6000806080838503121561356b57600080fd5b6135758484612fc3565b915061339e8460408501612fc3565b634e487b7160e01b600052603260045260246000fd5b634e487b7160e01b600052601160045260246000fd5b8181038181111561094b5761094b61359a565b6000600182016135d5576135d561359a565b5060010190565b6000816135eb576135eb61359a565b506000190190565b6000600160ff1b82016136085761360861359a565b5060000390565b808202811582820484141761094b5761094b61359a565b634e487b7160e01b600052601260045260246000fd5b60008261364b5761364b613626565b500490565b8082018082111561094b5761094b61359a565b8181036000831280158383131683831282161715610b1057610b1061359a565b60006020828403121561369557600080fd5b8151610d0e816132bc565b60ff828116828216039081111561094b5761094b61359a565b60ff818116838216019081111561094b5761094b61359a565b60005b838110156136ed5781810151838201526020016136d5565b50506000910152565b72024b73b30b634b2103234b932b1ba34b7b71d1606d1b8152600082516137248160138501602087016136d2565b9190910160130192915050565b60208152600082518060208401526137508160408501602087016136d2565b601f01601f19169190910160400192915050565b600181815b8085111561379f5781600019048211156137855761378561359a565b8085161561379257918102915b93841c9390800290613769565b509250929050565b6000826137b65750600161094b565b816137c35750600061094b565b81600181146137d957600281146137e3576137ff565b600191505061094b565b60ff8411156137f4576137f461359a565b50506001821b61094b565b5060208310610133831016604e8410600b8410161715613822575081810a61094b565b61382c8383613764565b80600019048211156138405761384061359a565b029392505050565b6000610d0e83836137a7565b60006020828403121561386657600080fd5b5051919050565b60008261387c5761387c613626565b500690565b604081526000613894604083018561303b565b90508260208301529392505050565b828152604060208201526000612a3d604083018461303b565b600082810b9082900b03607f198112607f8213171561094b5761094b61359a565b608081016138fb8286805160ff908116835260209182015116910152565b604082019390935260600152919050565b8051613917816133f1565b919050565b60006020828403121561392e57600080fd5b8151610d0e816133f1565b805161391781612fb4565b600060a0828403121561395657600080fd5b60405160a0810181811067ffffffffffffffff8211171561397957613979612f21565b60405282516006811061398b57600080fd5b81526020838101519082015260408301516139a581612fb4565b604082015260608301516139b881612fb4565b606082015260808301516139cb816133f1565b60808201529392505050565b600060ff821660ff81036139ed576139ed61359a565b60010192915050565b600082601f830112613a0757600080fd5b81516020613a176134ff8361348e565b82815260069290921b84018101918181019086841115613a3657600080fd5b8286015b84811015613a835760408189031215613a535760008081fd5b613a5b612f37565b815160178110613a6b5760008081fd5b81528185015185820152835291830191604001613a3a565b509695505050505050565b600060208284031215613aa057600080fd5b815167ffffffffffffffff80821115613ab857600080fd5b9083019060e08286031215613acc57600080fd5b613ad4612f60565b82518152613ae46020840161390c565b6020820152613af560408401613939565b6040820152613b0660608401613939565b6060820152608083015182811115613b1d57600080fd5b613b29878286016139f6565b60808301525060a083015182811115613b4157600080fd5b613b4d878286016139f6565b60a08301525060c083015182811115613b6557600080fd5b613b71878286016139f6565b60c08301525095945050505050565b600061010082019050888252876020830152866040830152856060830152845460ff8116608084015260ff8160081c1660a0840152508360c0830152613bc960e0830184612e4f565b98975050505050505050565b634e487b7160e01b600052603160045260246000fd5b60006040820184835260206040818501528185548084526060860191508660005282600020935060005b81811015613c3157845483526001948501949284019201613c15565b509097965050505050505056fea2646970667358221220f11f863114956857fc3b4fe69f6bac217f1e7702f4ee32680e673f6f40eaedaa64736f6c63430008110033",
  "devdoc": {
    "kind": "dev",
    "methods": {
      "owner()": {
        "details": "Returns the address of the current owner."
      },
      "renounceOwnership()": {
        "details": "Leaves the contract without owner. It will not be possible to call `onlyOwner` functions anymore. Can only be called by the current owner. NOTE: Renouncing ownership will leave the contract without an owner, thereby removing any functionality that is only available to the owner."
      },
      "transferOwnership(address)": {
        "details": "Transfers ownership of the contract to a new account (`newOwner`). Can only be called by the current owner."
      }
    },
    "version": 1
  },
  "userdoc": {
    "kind": "user",
    "methods": {},
    "version": 1
  },
  "storageLayout": {
    "storage": [
      {
        "astId": 7,
        "contract": "contracts/BCGames.sol:BCGames",
        "label": "_owner",
        "offset": 0,
        "slot": "0",
        "type": "t_address"
      },
      {
        "astId": 17093,
        "contract": "contracts/BCGames.sol:BCGames",
        "label": "TODO_randomSeed",
        "offset": 0,
        "slot": "1",
        "type": "t_uint256"
      },
      {
        "astId": 9342,
        "contract": "contracts/BCGames.sol:BCGames",
        "label": "chars",
        "offset": 0,
        "slot": "2",
        "type": "t_contract(CharInterface)9113"
      },
      {
        "astId": 9345,
        "contract": "contracts/BCGames.sol:BCGames",
        "label": "maps",
        "offset": 0,
        "slot": "3",
        "type": "t_contract(MapInterface)9226"
      },
      {
        "astId": 9348,
        "contract": "contracts/BCGames.sol:BCGames",
        "label": "bcEvents",
        "offset": 0,
        "slot": "4",
        "type": "t_contract(EventsInterface)9094"
      },
      {
        "astId": 9351,
        "contract": "contracts/BCGames.sol:BCGames",
        "label": "items",
        "offset": 0,
        "slot": "5",
        "type": "t_contract(ItemsInterface)9255"
      },
      {
        "astId": 9354,
        "contract": "contracts/BCGames.sol:BCGames",
        "label": "players",
        "offset": 0,
        "slot": "6",
        "type": "t_contract(PlayersInterface)9335"
      },
      {
        "astId": 9356,
        "contract": "contracts/BCGames.sol:BCGames",
        "label": "lobbiesAddress",
        "offset": 0,
        "slot": "7",
        "type": "t_address"
      },
      {
        "astId": 9358,
        "contract": "contracts/BCGames.sol:BCGames",
        "label": "charsAddress",
        "offset": 0,
        "slot": "8",
        "type": "t_address"
      },
      {
        "astId": 9360,
        "contract": "contracts/BCGames.sol:BCGames",
        "label": "actionsAddress",
        "offset": 0,
        "slot": "9",
        "type": "t_address"
      },
      {
        "astId": 9434,
        "contract": "contracts/BCGames.sol:BCGames",
        "label": "StartLocation",
        "offset": 0,
        "slot": "10",
        "type": "t_struct(Position)16882_storage"
      },
      {
        "astId": 9438,
        "contract": "contracts/BCGames.sol:BCGames",
        "label": "games",
        "offset": 0,
        "slot": "11",
        "type": "t_array(t_struct(Game)16977_storage)dyn_storage"
      },
      {
        "astId": 9443,
        "contract": "contracts/BCGames.sol:BCGames",
        "label": "addressToGame",
        "offset": 0,
        "slot": "12",
        "type": "t_mapping(t_address,t_array(t_uint256)dyn_storage)"
      }
    ],
    "types": {
      "t_address": {
        "encoding": "inplace",
        "label": "address",
        "numberOfBytes": "20"
      },
      "t_array(t_struct(Game)16977_storage)dyn_storage": {
        "base": "t_struct(Game)16977_storage",
        "encoding": "dynamic_array",
        "label": "struct BCTypes.Game[]",
        "numberOfBytes": "32"
      },
      "t_array(t_uint256)dyn_storage": {
        "base": "t_uint256",
        "encoding": "dynamic_array",
        "label": "uint256[]",
        "numberOfBytes": "32"
      },
      "t_bool": {
        "encoding": "inplace",
        "label": "bool",
        "numberOfBytes": "1"
      },
      "t_contract(CharInterface)9113": {
        "encoding": "inplace",
        "label": "contract CharInterface",
        "numberOfBytes": "20"
      },
      "t_contract(EventsInterface)9094": {
        "encoding": "inplace",
        "label": "contract EventsInterface",
        "numberOfBytes": "20"
      },
      "t_contract(ItemsInterface)9255": {
        "encoding": "inplace",
        "label": "contract ItemsInterface",
        "numberOfBytes": "20"
      },
      "t_contract(MapInterface)9226": {
        "encoding": "inplace",
        "label": "contract MapInterface",
        "numberOfBytes": "20"
      },
      "t_contract(PlayersInterface)9335": {
        "encoding": "inplace",
        "label": "contract PlayersInterface",
        "numberOfBytes": "20"
      },
      "t_enum(BCEventType)16814": {
        "encoding": "inplace",
        "label": "enum BCTypes.BCEventType",
        "numberOfBytes": "1"
      },
      "t_mapping(t_address,t_array(t_uint256)dyn_storage)": {
        "encoding": "mapping",
        "key": "t_address",
        "label": "mapping(address => uint256[])",
        "numberOfBytes": "32",
        "value": "t_array(t_uint256)dyn_storage"
      },
      "t_struct(EventTracker)16877_storage": {
        "encoding": "inplace",
        "label": "struct BCTypes.EventTracker",
        "members": [
          {
            "astId": 16870,
            "contract": "contracts/BCGames.sol:BCGames",
            "label": "bugEvents",
            "offset": 0,
            "slot": "0",
            "type": "t_uint8"
          },
          {
            "astId": 16872,
            "contract": "contracts/BCGames.sol:BCGames",
            "label": "mysteryEvents",
            "offset": 1,
            "slot": "0",
            "type": "t_uint8"
          },
          {
            "astId": 16874,
            "contract": "contracts/BCGames.sol:BCGames",
            "label": "scavEvents",
            "offset": 2,
            "slot": "0",
            "type": "t_uint8"
          },
          {
            "astId": 16876,
            "contract": "contracts/BCGames.sol:BCGames",
            "label": "shipEvents",
            "offset": 3,
            "slot": "0",
            "type": "t_uint8"
          }
        ],
        "numberOfBytes": "32"
      },
      "t_struct(Game)16977_storage": {
        "encoding": "inplace",
        "label": "struct BCTypes.Game",
        "members": [
          {
            "astId": 16934,
            "contract": "contracts/BCGames.sol:BCGames",
            "label": "active",
            "offset": 0,
            "slot": "0",
            "type": "t_bool"
          },
          {
            "astId": 16937,
            "contract": "contracts/BCGames.sol:BCGames",
            "label": "playerIndexes",
            "offset": 0,
            "slot": "1",
            "type": "t_array(t_uint256)dyn_storage"
          },
          {
            "astId": 16939,
            "contract": "contracts/BCGames.sol:BCGames",
            "label": "currentPlayerTurnIndex",
            "offset": 0,
            "slot": "2",
            "type": "t_uint256"
          },
          {
            "astId": 16941,
            "contract": "contracts/BCGames.sol:BCGames",
            "label": "numPlayers",
            "offset": 0,
            "slot": "3",
            "type": "t_uint256"
          },
          {
            "astId": 16943,
            "contract": "contracts/BCGames.sol:BCGames",
            "label": "turnsTaken",
            "offset": 0,
            "slot": "4",
            "type": "t_uint256"
          },
          {
            "astId": 16946,
            "contract": "contracts/BCGames.sol:BCGames",
            "label": "eventTracker",
            "offset": 0,
            "slot": "5",
            "type": "t_struct(EventTracker)16877_storage"
          },
          {
            "astId": 16948,
            "contract": "contracts/BCGames.sol:BCGames",
            "label": "mapId",
            "offset": 0,
            "slot": "6",
            "type": "t_uint256"
          },
          {
            "astId": 16950,
            "contract": "contracts/BCGames.sol:BCGames",
            "label": "eventPlayerId",
            "offset": 0,
            "slot": "7",
            "type": "t_uint256"
          },
          {
            "astId": 16952,
            "contract": "contracts/BCGames.sol:BCGames",
            "label": "eventNumber",
            "offset": 0,
            "slot": "8",
            "type": "t_uint256"
          },
          {
            "astId": 16955,
            "contract": "contracts/BCGames.sol:BCGames",
            "label": "eventType",
            "offset": 0,
            "slot": "9",
            "type": "t_enum(BCEventType)16814"
          },
          {
            "astId": 16958,
            "contract": "contracts/BCGames.sol:BCGames",
            "label": "eventPosition",
            "offset": 0,
            "slot": "10",
            "type": "t_struct(Position)16882_storage"
          },
          {
            "astId": 16961,
            "contract": "contracts/BCGames.sol:BCGames",
            "label": "unusedBugEvents",
            "offset": 0,
            "slot": "11",
            "type": "t_array(t_uint256)dyn_storage"
          },
          {
            "astId": 16964,
            "contract": "contracts/BCGames.sol:BCGames",
            "label": "unusedMysteryEvents",
            "offset": 0,
            "slot": "12",
            "type": "t_array(t_uint256)dyn_storage"
          },
          {
            "astId": 16967,
            "contract": "contracts/BCGames.sol:BCGames",
            "label": "unusedScavEvents",
            "offset": 0,
            "slot": "13",
            "type": "t_array(t_uint256)dyn_storage"
          },
          {
            "astId": 16970,
            "contract": "contracts/BCGames.sol:BCGames",
            "label": "unusedShipEvents",
            "offset": 0,
            "slot": "14",
            "type": "t_array(t_uint256)dyn_storage"
          },
          {
            "astId": 16972,
            "contract": "contracts/BCGames.sol:BCGames",
            "label": "turnTimeLimit",
            "offset": 0,
            "slot": "15",
            "type": "t_uint256"
          },
          {
            "astId": 16974,
            "contract": "contracts/BCGames.sol:BCGames",
            "label": "lastTurnTimestamp",
            "offset": 0,
            "slot": "16",
            "type": "t_uint256"
          },
          {
            "astId": 16976,
            "contract": "contracts/BCGames.sol:BCGames",
            "label": "DEBUG_returnAmount",
            "offset": 0,
            "slot": "17",
            "type": "t_uint256"
          }
        ],
        "numberOfBytes": "576"
      },
      "t_struct(Position)16882_storage": {
        "encoding": "inplace",
        "label": "struct BCTypes.Position",
        "members": [
          {
            "astId": 16879,
            "contract": "contracts/BCGames.sol:BCGames",
            "label": "row",
            "offset": 0,
            "slot": "0",
            "type": "t_uint8"
          },
          {
            "astId": 16881,
            "contract": "contracts/BCGames.sol:BCGames",
            "label": "col",
            "offset": 1,
            "slot": "0",
            "type": "t_uint8"
          }
        ],
        "numberOfBytes": "32"
      },
      "t_uint256": {
        "encoding": "inplace",
        "label": "uint256",
        "numberOfBytes": "32"
      },
      "t_uint8": {
        "encoding": "inplace",
        "label": "uint8",
        "numberOfBytes": "1"
      }
    }
  }
}