{
  "address": "0x13a0eE3b3E4154d86e723e38837F81D4048A7b10",
  "abi": [
    {
      "inputs": [],
      "stateMutability": "nonpayable",
      "type": "constructor"
    },
    {
      "anonymous": false,
      "inputs": [
        {
          "indexed": false,
          "internalType": "uint256",
          "name": "gameId",
          "type": "uint256"
        },
        {
          "indexed": false,
          "internalType": "uint256",
          "name": "roll",
          "type": "uint256"
        },
        {
          "indexed": false,
          "internalType": "uint256",
          "name": "forValue",
          "type": "uint256"
        },
        {
          "indexed": false,
          "internalType": "uint256",
          "name": "against",
          "type": "uint256"
        }
      ],
      "name": "ChallengeEvent",
      "type": "event"
    },
    {
      "anonymous": false,
      "inputs": [
        {
          "indexed": false,
          "internalType": "uint256",
          "name": "gameId",
          "type": "uint256"
        },
        {
          "indexed": false,
          "internalType": "uint256",
          "name": "roll",
          "type": "uint256"
        }
      ],
      "name": "DiceRollEvent",
      "type": "event"
    },
    {
      "anonymous": false,
      "inputs": [
        {
          "indexed": true,
          "internalType": "address",
          "name": "previousOwner",
          "type": "address"
        },
        {
          "indexed": true,
          "internalType": "address",
          "name": "newOwner",
          "type": "address"
        }
      ],
      "name": "OwnershipTransferred",
      "type": "event"
    },
    {
      "inputs": [],
      "name": "StartLocation",
      "outputs": [
        {
          "internalType": "uint8",
          "name": "row",
          "type": "uint8"
        },
        {
          "internalType": "uint8",
          "name": "col",
          "type": "uint8"
        }
      ],
      "stateMutability": "view",
      "type": "function"
    },
    {
      "inputs": [
        {
          "internalType": "int256",
          "name": "x",
          "type": "int256"
        }
      ],
      "name": "abs",
      "outputs": [
        {
          "internalType": "int256",
          "name": "",
          "type": "int256"
        }
      ],
      "stateMutability": "pure",
      "type": "function"
    },
    {
      "inputs": [],
      "name": "actionsAddress",
      "outputs": [
        {
          "internalType": "address",
          "name": "",
          "type": "address"
        }
      ],
      "stateMutability": "view",
      "type": "function"
    },
    {
      "inputs": [
        {
          "internalType": "address",
          "name": "",
          "type": "address"
        },
        {
          "internalType": "uint256",
          "name": "",
          "type": "uint256"
        }
      ],
      "name": "addressToGame",
      "outputs": [
        {
          "internalType": "uint256",
          "name": "",
          "type": "uint256"
        }
      ],
      "stateMutability": "view",
      "type": "function"
    },
    {
      "inputs": [],
      "name": "bcEvents",
      "outputs": [
        {
          "internalType": "contract EventsInterface",
          "name": "",
          "type": "address"
        }
      ],
      "stateMutability": "view",
      "type": "function"
    },
    {
      "inputs": [],
      "name": "chars",
      "outputs": [
        {
          "internalType": "contract CharInterface",
          "name": "",
          "type": "address"
        }
      ],
      "stateMutability": "view",
      "type": "function"
    },
    {
      "inputs": [],
      "name": "charsAddress",
      "outputs": [
        {
          "internalType": "address",
          "name": "",
          "type": "address"
        }
      ],
      "stateMutability": "view",
      "type": "function"
    },
    {
      "inputs": [
        {
          "internalType": "uint256",
          "name": "_gameId",
          "type": "uint256"
        },
        {
          "components": [
            {
              "internalType": "uint8",
              "name": "row",
              "type": "uint8"
            },
            {
              "internalType": "uint8",
              "name": "col",
              "type": "uint8"
            }
          ],
          "internalType": "struct BCTypes.Position",
          "name": "_position",
          "type": "tuple"
        },
        {
          "internalType": "uint256",
          "name": "_playerId",
          "type": "uint256"
        },
        {
          "internalType": "uint256",
          "name": "_debugRoomId",
          "type": "uint256"
        }
      ],
      "name": "debugMovePlayer",
      "outputs": [],
      "stateMutability": "nonpayable",
      "type": "function"
    },
    {
      "inputs": [
        {
          "internalType": "uint256",
          "name": "_gameId",
          "type": "uint256"
        },
        {
          "internalType": "uint256",
          "name": "_playerId",
          "type": "uint256"
        },
        {
          "internalType": "bool",
          "name": "_free",
          "type": "bool"
        }
      ],
      "name": "endPlayerAction",
      "outputs": [],
      "stateMutability": "nonpayable",
      "type": "function"
    },
    {
      "inputs": [
        {
          "internalType": "uint256",
          "name": "_id",
          "type": "uint256"
        }
      ],
      "name": "extGetGame",
      "outputs": [
        {
          "components": [
            {
              "internalType": "bool",
              "name": "active",
              "type": "bool"
            },
            {
              "internalType": "uint256[]",
              "name": "playerIndexes",
              "type": "uint256[]"
            },
            {
              "internalType": "uint256",
              "name": "currentPlayerTurnIndex",
              "type": "uint256"
            },
            {
              "internalType": "uint256",
              "name": "numPlayers",
              "type": "uint256"
            },
            {
              "internalType": "uint256",
              "name": "turnsTaken",
              "type": "uint256"
            },
            {
              "components": [
                {
                  "internalType": "uint8",
                  "name": "bugEvents",
                  "type": "uint8"
                },
                {
                  "internalType": "uint8",
                  "name": "mysteryEvents",
                  "type": "uint8"
                },
                {
                  "internalType": "uint8",
                  "name": "scavEvents",
                  "type": "uint8"
                },
                {
                  "internalType": "uint8",
                  "name": "shipEvents",
                  "type": "uint8"
                }
              ],
              "internalType": "struct BCTypes.EventTracker",
              "name": "eventTracker",
              "type": "tuple"
            },
            {
              "internalType": "uint256",
              "name": "mapId",
              "type": "uint256"
            },
            {
              "internalType": "uint256",
              "name": "eventPlayerId",
              "type": "uint256"
            },
            {
              "internalType": "uint256",
              "name": "eventNumber",
              "type": "uint256"
            },
            {
              "internalType": "enum BCTypes.BCEventType",
              "name": "eventType",
              "type": "uint8"
            },
            {
              "components": [
                {
                  "internalType": "uint8",
                  "name": "row",
                  "type": "uint8"
                },
                {
                  "internalType": "uint8",
                  "name": "col",
                  "type": "uint8"
                }
              ],
              "internalType": "struct BCTypes.Position",
              "name": "eventPosition",
              "type": "tuple"
            },
            {
              "internalType": "uint256[]",
              "name": "unusedBugEvents",
              "type": "uint256[]"
            },
            {
              "internalType": "uint256[]",
              "name": "unusedMysteryEvents",
              "type": "uint256[]"
            },
            {
              "internalType": "uint256[]",
              "name": "unusedScavEvents",
              "type": "uint256[]"
            },
            {
              "internalType": "uint256[]",
              "name": "unusedShipEvents",
              "type": "uint256[]"
            },
            {
              "internalType": "uint256",
              "name": "turnTimeLimit",
              "type": "uint256"
            },
            {
              "internalType": "uint256",
              "name": "lastTurnTimestamp",
              "type": "uint256"
            },
            {
              "internalType": "uint256",
              "name": "DEBUG_returnAmount",
              "type": "uint256"
            }
          ],
          "internalType": "struct BCTypes.Game",
          "name": "",
          "type": "tuple"
        }
      ],
      "stateMutability": "view",
      "type": "function"
    },
    {
      "inputs": [
        {
          "internalType": "uint256",
          "name": "_gameId",
          "type": "uint256"
        }
      ],
      "name": "extGetGamePlayerIndexes",
      "outputs": [
        {
          "internalType": "uint256[]",
          "name": "",
          "type": "uint256[]"
        }
      ],
      "stateMutability": "view",
      "type": "function"
    },
    {
      "inputs": [
        {
          "internalType": "address",
          "name": "_playerAddress",
          "type": "address"
        }
      ],
      "name": "extGetGamesOfPlayer",
      "outputs": [
        {
          "internalType": "uint256[]",
          "name": "",
          "type": "uint256[]"
        }
      ],
      "stateMutability": "view",
      "type": "function"
    },
    {
      "inputs": [],
      "name": "extGetNumGames",
      "outputs": [
        {
          "internalType": "uint256",
          "name": "",
          "type": "uint256"
        }
      ],
      "stateMutability": "view",
      "type": "function"
    },
    {
      "inputs": [
        {
          "internalType": "uint256",
          "name": "_gameId",
          "type": "uint256"
        },
        {
          "components": [
            {
              "internalType": "uint8",
              "name": "row",
              "type": "uint8"
            },
            {
              "internalType": "uint8",
              "name": "col",
              "type": "uint8"
            }
          ],
          "internalType": "struct BCTypes.Position",
          "name": "_position",
          "type": "tuple"
        },
        {
          "internalType": "uint256",
          "name": "_playerId",
          "type": "uint256"
        }
      ],
      "name": "extMovePlayer",
      "outputs": [],
      "stateMutability": "nonpayable",
      "type": "function"
    },
    {
      "inputs": [
        {
          "internalType": "uint256",
          "name": "_gameId",
          "type": "uint256"
        }
      ],
      "name": "forceNextTurn",
      "outputs": [],
      "stateMutability": "nonpayable",
      "type": "function"
    },
    {
      "inputs": [
        {
          "internalType": "uint256",
          "name": "",
          "type": "uint256"
        }
      ],
      "name": "games",
      "outputs": [
        {
          "internalType": "bool",
          "name": "active",
          "type": "bool"
        },
        {
          "internalType": "uint256",
          "name": "currentPlayerTurnIndex",
          "type": "uint256"
        },
        {
          "internalType": "uint256",
          "name": "numPlayers",
          "type": "uint256"
        },
        {
          "internalType": "uint256",
          "name": "turnsTaken",
          "type": "uint256"
        },
        {
          "components": [
            {
              "internalType": "uint8",
              "name": "bugEvents",
              "type": "uint8"
            },
            {
              "internalType": "uint8",
              "name": "mysteryEvents",
              "type": "uint8"
            },
            {
              "internalType": "uint8",
              "name": "scavEvents",
              "type": "uint8"
            },
            {
              "internalType": "uint8",
              "name": "shipEvents",
              "type": "uint8"
            }
          ],
          "internalType": "struct BCTypes.EventTracker",
          "name": "eventTracker",
          "type": "tuple"
        },
        {
          "internalType": "uint256",
          "name": "mapId",
          "type": "uint256"
        },
        {
          "internalType": "uint256",
          "name": "eventPlayerId",
          "type": "uint256"
        },
        {
          "internalType": "uint256",
          "name": "eventNumber",
          "type": "uint256"
        },
        {
          "internalType": "enum BCTypes.BCEventType",
          "name": "eventType",
          "type": "uint8"
        },
        {
          "components": [
            {
              "internalType": "uint8",
              "name": "row",
              "type": "uint8"
            },
            {
              "internalType": "uint8",
              "name": "col",
              "type": "uint8"
            }
          ],
          "internalType": "struct BCTypes.Position",
          "name": "eventPosition",
          "type": "tuple"
        },
        {
          "internalType": "uint256",
          "name": "turnTimeLimit",
          "type": "uint256"
        },
        {
          "internalType": "uint256",
          "name": "lastTurnTimestamp",
          "type": "uint256"
        },
        {
          "internalType": "uint256",
          "name": "DEBUG_returnAmount",
          "type": "uint256"
        }
      ],
      "stateMutability": "view",
      "type": "function"
    },
    {
      "inputs": [
        {
          "components": [
            {
              "internalType": "uint8",
              "name": "row",
              "type": "uint8"
            },
            {
              "internalType": "uint8",
              "name": "col",
              "type": "uint8"
            }
          ],
          "internalType": "struct BCTypes.Position",
          "name": "_firstRoom",
          "type": "tuple"
        },
        {
          "components": [
            {
              "internalType": "uint8",
              "name": "row",
              "type": "uint8"
            },
            {
              "internalType": "uint8",
              "name": "col",
              "type": "uint8"
            }
          ],
          "internalType": "struct BCTypes.Position",
          "name": "_secondRoom",
          "type": "tuple"
        }
      ],
      "name": "getDirectionBetween",
      "outputs": [
        {
          "internalType": "uint256",
          "name": "",
          "type": "uint256"
        }
      ],
      "stateMutability": "pure",
      "type": "function"
    },
    {
      "inputs": [
        {
          "internalType": "uint256",
          "name": "_direction",
          "type": "uint256"
        },
        {
          "components": [
            {
              "internalType": "uint8",
              "name": "row",
              "type": "uint8"
            },
            {
              "internalType": "uint8",
              "name": "col",
              "type": "uint8"
            }
          ],
          "internalType": "struct BCTypes.Position",
          "name": "_start",
          "type": "tuple"
        }
      ],
      "name": "getNeighborRoom",
      "outputs": [
        {
          "components": [
            {
              "internalType": "uint8",
              "name": "row",
              "type": "uint8"
            },
            {
              "internalType": "uint8",
              "name": "col",
              "type": "uint8"
            }
          ],
          "internalType": "struct BCTypes.Position",
          "name": "",
          "type": "tuple"
        }
      ],
      "stateMutability": "pure",
      "type": "function"
    },
    {
      "inputs": [
        {
          "internalType": "uint256",
          "name": "_traitNum",
          "type": "uint256"
        },
        {
          "internalType": "uint256",
          "name": "_subTraitNum",
          "type": "uint256"
        }
      ],
      "name": "getUIOffset",
      "outputs": [
        {
          "internalType": "uint256",
          "name": "",
          "type": "uint256"
        }
      ],
      "stateMutability": "pure",
      "type": "function"
    },
    {
      "inputs": [],
      "name": "items",
      "outputs": [
        {
          "internalType": "contract ItemsInterface",
          "name": "",
          "type": "address"
        }
      ],
      "stateMutability": "view",
      "type": "function"
    },
    {
      "inputs": [],
      "name": "lobbiesAddress",
      "outputs": [
        {
          "internalType": "address",
          "name": "",
          "type": "address"
        }
      ],
      "stateMutability": "view",
      "type": "function"
    },
    {
      "inputs": [],
      "name": "maps",
      "outputs": [
        {
          "internalType": "contract MapInterface",
          "name": "",
          "type": "address"
        }
      ],
      "stateMutability": "view",
      "type": "function"
    },
    {
      "inputs": [
        {
          "internalType": "uint256",
          "name": "_min",
          "type": "uint256"
        },
        {
          "internalType": "uint256",
          "name": "_max",
          "type": "uint256"
        },
        {
          "internalType": "uint256",
          "name": "_val",
          "type": "uint256"
        },
        {
          "internalType": "uint256",
          "name": "_valMax",
          "type": "uint256"
        }
      ],
      "name": "normalizeToSmallRange",
      "outputs": [
        {
          "internalType": "uint8",
          "name": "",
          "type": "uint8"
        }
      ],
      "stateMutability": "pure",
      "type": "function"
    },
    {
      "inputs": [
        {
          "internalType": "uint256",
          "name": "_direction",
          "type": "uint256"
        }
      ],
      "name": "opposite",
      "outputs": [
        {
          "internalType": "uint256",
          "name": "",
          "type": "uint256"
        }
      ],
      "stateMutability": "pure",
      "type": "function"
    },
    {
      "inputs": [],
      "name": "owner",
      "outputs": [
        {
          "internalType": "address",
          "name": "",
          "type": "address"
        }
      ],
      "stateMutability": "view",
      "type": "function"
    },
    {
      "inputs": [],
      "name": "players",
      "outputs": [
        {
          "internalType": "contract PlayersInterface",
          "name": "",
          "type": "address"
        }
      ],
      "stateMutability": "view",
      "type": "function"
    },
    {
      "inputs": [],
      "name": "randKeccak",
      "outputs": [
        {
          "internalType": "bytes32",
          "name": "",
          "type": "bytes32"
        }
      ],
      "stateMutability": "nonpayable",
      "type": "function"
    },
    {
      "inputs": [],
      "name": "renounceOwnership",
      "outputs": [],
      "stateMutability": "nonpayable",
      "type": "function"
    },
    {
      "inputs": [
        {
          "internalType": "uint256",
          "name": "_gameId",
          "type": "uint256"
        },
        {
          "internalType": "uint256",
          "name": "_for",
          "type": "uint256"
        },
        {
          "internalType": "uint256",
          "name": "_against",
          "type": "uint256"
        }
      ],
      "name": "resolveChallenge",
      "outputs": [
        {
          "internalType": "bool",
          "name": "",
          "type": "bool"
        }
      ],
      "stateMutability": "nonpayable",
      "type": "function"
    },
    {
      "inputs": [
        {
          "internalType": "uint256",
          "name": "_gameId",
          "type": "uint256"
        },
        {
          "internalType": "uint256",
          "name": "_choice",
          "type": "uint256"
        }
      ],
      "name": "resolveEvent",
      "outputs": [],
      "stateMutability": "nonpayable",
      "type": "function"
    },
    {
      "inputs": [
        {
          "internalType": "uint256",
          "name": "_gameId",
          "type": "uint256"
        }
      ],
      "name": "roll",
      "outputs": [
        {
          "internalType": "uint256",
          "name": "",
          "type": "uint256"
        }
      ],
      "stateMutability": "nonpayable",
      "type": "function"
    },
    {
      "inputs": [
        {
          "internalType": "address",
          "name": "_charAddress",
          "type": "address"
        },
        {
          "internalType": "address",
          "name": "_utilsAddress",
          "type": "address"
        },
        {
          "internalType": "address",
          "name": "_mapsAddress",
          "type": "address"
        },
        {
          "internalType": "address",
          "name": "_lobbiesAddress",
          "type": "address"
        },
        {
          "internalType": "address",
          "name": "_actionsAddress",
          "type": "address"
        },
        {
          "internalType": "address",
          "name": "_eventsAddress",
          "type": "address"
        },
        {
          "internalType": "address",
          "name": "_itemsAddress",
          "type": "address"
        },
        {
          "internalType": "address",
          "name": "_playersAddress",
          "type": "address"
        }
      ],
      "name": "setContractAddresses",
      "outputs": [],
      "stateMutability": "nonpayable",
      "type": "function"
    },
    {
      "inputs": [
        {
          "internalType": "bytes32",
          "name": "_hash",
          "type": "bytes32"
        },
        {
          "internalType": "uint256",
          "name": "_size",
          "type": "uint256"
        },
        {
          "internalType": "uint256",
          "name": "_offset",
          "type": "uint256"
        }
      ],
      "name": "sliceHashToSmallInt",
      "outputs": [
        {
          "internalType": "uint8",
          "name": "",
          "type": "uint8"
        }
      ],
      "stateMutability": "pure",
      "type": "function"
    },
    {
      "inputs": [
        {
          "internalType": "uint8",
          "name": "_min",
          "type": "uint8"
        },
        {
          "internalType": "uint8",
          "name": "_max",
          "type": "uint8"
        }
      ],
      "name": "smallIntBetweenVals",
      "outputs": [
        {
          "internalType": "uint8",
          "name": "",
          "type": "uint8"
        }
      ],
      "stateMutability": "nonpayable",
      "type": "function"
    },
    {
      "inputs": [
        {
          "internalType": "uint256[]",
          "name": "_playerIndexes",
          "type": "uint256[]"
        },
        {
          "internalType": "uint256",
          "name": "_numPlayers",
          "type": "uint256"
        },
        {
          "internalType": "uint256",
          "name": "_debugRoomId",
          "type": "uint256"
        }
      ],
      "name": "startGame",
      "outputs": [
        {
          "internalType": "uint256",
          "name": "",
          "type": "uint256"
        }
      ],
      "stateMutability": "nonpayable",
      "type": "function"
    },
    {
      "inputs": [
        {
          "internalType": "address",
          "name": "newOwner",
          "type": "address"
        }
      ],
      "name": "transferOwnership",
      "outputs": [],
      "stateMutability": "nonpayable",
      "type": "function"
    }
  ],
  "transactionHash": "0x41d3e7f21276c2b97bd4d3f6daa679141717e7235546729aad7a782ddcf1db9a",
  "args": [],
  "numDeployments": 3,
  "solcInputHash": "7ac0abbebf11abf1379f7ffb2ec3a099",
  "bytecode": "0x600060015560c0604052600a6080819052600660a052805461ffff191661060a1790553480156200002f57600080fd5b506200003b3362000041565b62000091565b600080546001600160a01b038381166001600160a01b0319831681178455604051919092169283917f8be0079c531659141344cd1fd0a4f28419497f9722a3daafe3b4186f6b6457e09190a35050565b613c7880620000a16000396000f3fe608060405234801561001057600080fd5b506004361061021c5760003560e01c80637ddae10311610125578063aa6e8030116100ad578063dc0b35641161007c578063dc0b3564146104da578063dc769ee8146104ed578063f101de9a1461051d578063f2fde38b14610530578063fa3993c21461054357600080fd5b8063aa6e80301461048e578063afd62bb2146104a1578063c06fad06146104b4578063ce28613f146104c757600080fd5b8063921d2799116100f4578063921d279914610422578063951fc3fe1461043557806397f34c3f146104555780639fca1ee114610468578063a99d2a8b1461047b57600080fd5b80637ddae103146103d85780638214f222146103eb5780638bf52bc3146103fe5780638da5cb5b1461041157600080fd5b806346f2434b116101a857806364db84bf1161017757806364db84bf1461037757806364f664671461038a5780636fe99c181461039d578063715018a6146103bd5780637b45c0d4146103c557600080fd5b806346f2434b14610314578063530116961461031c57806354731422146103415780635dc969671461035457600080fd5b80631e1de205116101ef5780631e1de205146102b35780631f7b4f30146102bb578063336d7d7b146102ce5780633deaec2b146102e157806340d4fd78146102f457600080fd5b806310a2cd0d14610221578063117a5b9014610251578063175142251461027d5780631b5ac4b514610292575b600080fd5b600254610234906001600160a01b031681565b6040516001600160a01b0390911681526020015b60405180910390f35b61026461025f366004612d6a565b610556565b6040516102489d9c9b9a99989796959493929190612dbb565b61029061028b366004612f4f565b610626565b005b6102a56102a0366004612d6a565b6106ac565b604051908152602001610248565b6102a56106cc565b6102a56102c9366004612d6a565b610744565b600754610234906001600160a01b031681565b600354610234906001600160a01b031681565b610307610302366004612d6a565b6107a0565b6040516102489190612f85565b600b546102a5565b61032f61032a366004612fc9565b610892565b60405160ff9091168152602001610248565b61029061034f366004612d6a565b6108cf565b610367610362366004612ffb565b6109f3565b6040519015158152602001610248565b6102a5610385366004613027565b610a90565b610290610398366004613027565b610aa8565b6103b06103ab366004612d6a565b610cfc565b6040516102489190613084565b610290610ffd565b600954610234906001600160a01b031681565b600454610234906001600160a01b031681565b6102a56103f9366004612d6a565b611011565b61029061040c366004613227565b61108b565b6000546001600160a01b0316610234565b610290610430366004613278565b6110e3565b610448610443366004613321565b61116b565b604051610248919061334e565b61032f610463366004612ffb565b611295565b600854610234906001600160a01b031681565b6102a561048936600461336c565b6112c0565b61029061049c3660046133a6565b6112f1565b6103076104af3660046133df565b611428565b600554610234906001600160a01b031681565b61032f6104d53660046133fc565b6114f9565b600654610234906001600160a01b031681565b600a546105039060ff8082169161010090041682565b6040805160ff938416815292909116602083015201610248565b6102a561052b366004613459565b6115a9565b61029061053e3660046133df565b611a78565b6102a56105513660046134ff565b611af1565b600b818154811061056657600080fd5b6000918252602091829020601290910201805460028201546003830154600484015460408051608081018252600587015460ff81811683526101008083048216848c0152620100008304821684860152630100000090920481166060840152600689015460078a015460088b015460098c01548751808901909852600a8d015480861689529590950484169c87019c909c52600f8b015460108c01546011909c01549a84169d50989b979a9699949891979096909593909216939091908d565b6009546001600160a01b031633148061064957506006546001600160a01b031633145b61069a5760405162461bcd60e51b815260206004820152601c60248201527f4e6f7420616374696f6e732f706c617965727320636f6e74726163740000000060448201526064015b60405180910390fd5b6106a78383836000611bb9565b505050565b6000808212156106c4576106bf82613541565b6106c6565b815b92915050565b60018054600091826106dd8361355d565b91905055506001546001436106f29190613576565b403360405160200161072993929190928352602083019190915260601b6bffffffffffffffffffffffff1916604082015260540190565b60405160208183030381529060405280519060200120905090565b600080610753600160066114f9565b60ff1690507ffe34d093a460a16ee5fb374540914d1c734a17502c0c1a87b387c8d6097e1c518382604051610792929190918252602082015260400190565b60405180910390a192915050565b60606000600b83815481106107b7576107b7613589565b90600052602060002090601202016001018054905067ffffffffffffffff8111156107e4576107e4612e6b565b60405190808252806020026020018201604052801561080d578160200160208202803683370190505b50905060005b815181101561088b57600b848154811061082f5761082f613589565b9060005260206000209060120201600101818154811061085157610851613589565b906000526020600020015482828151811061086e5761086e613589565b6020908102919091010152806108838161355d565b915050610813565b5092915050565b60008061089f8686613576565b90506000836108ae868461359f565b6108b891906135cc565b90506108c487826135e0565b979650505050505050565b6000600b82815481106108e4576108e4613589565b90600052602060002090601202019050600181600101805490501161094b5760405162461bcd60e51b815260206004820152601960248201527f43616e277420666f7263652073696e676c6520706c61796572000000000000006044820152606401610691565b80600f0154816010015461095f91906135e0565b42116109ad5760405162461bcd60e51b815260206004820152601760248201527f5374696c6c2077697468696e2074696d65206c696d69740000000000000000006044820152606401610691565b6008810154156109c2576109c28260006125b5565b6109ef82826001018360020154815481106109df576109df613589565b9060005260206000200154612681565b5050565b6000806109ff85610744565b6040805187815260208101839052908101869052606081018590529091507f75b6a8325595f91135e07382840634226793c68c9e59623da7e10d7ad3d95b959060800160405180910390a180600103610a5c576000915050610a89565b600383610a6986846135e0565b610a7391906135f3565b1315610a83576001915050610a89565b60009150505b9392505050565b600081610a9e84600461359f565b610a8991906135e0565b6000600b8381548110610abd57610abd613589565b90600052602060002090601202019050610af96040518060400160405280600a81526020016936b9b39739b2b73232b960b11b8152503361275d565b610b92604051806060016040528060328152602001613c11603291396006546007840154604051636621a42160e01b81526001600160a01b0390921691636621a42191610b4c9160040190815260200190565b602060405180830381865afa158015610b69573d6000803e3d6000fd5b505050506040513d601f19601f82011682018060405250810190610b8d9190613613565b61275d565b610bcd6040518060400160405280601581526020017432bb32b73a23b0b6b29732bb32b73a273ab6b132b960591b81525082600801546127a2565b6040805180820190915260138152726576656e7447616d652e6576656e745479706560681b60208201526009820154610c1a919060ff166005811115610c1557610c15612d83565b6127a2565b6006546007820154604051636621a42160e01b81526001600160a01b0390921691636621a42191610c519160040190815260200190565b602060405180830381865afa158015610c6e573d6000803e3d6000fd5b505050506040513d601f19601f82011682018060405250810190610c929190613613565b6001600160a01b0316336001600160a01b031614610cf25760405162461bcd60e51b815260206004820152601960248201527f4576656e74206e6f7420666f7220796f757220706c61796572000000000000006044820152606401610691565b6106a783836125b5565b610d04612c31565b600b8281548110610d1757610d17613589565b600091825260209182902060408051610240810182526012909302909101805460ff1615158352600181018054835181870281018701909452808452939491938583019392830182828015610d8b57602002820191906000526020600020905b815481526020019060010190808311610d77575b505050918352505060028201546020808301919091526003830154604080840191909152600484015460608085019190915281516080818101845260058088015460ff808216855261010080830482169886019890985262010000820481169685019690965263010000009004851693830193909352850152600685015460a0850152600785015460c0850152600885015460e085015260098501549290930192911690811115610e3e57610e3e612d83565b6005811115610e4f57610e4f612d83565b8152604080518082018252600a84015460ff80821683526101009091041660208281019190915280840191909152600b84018054835181840281018401855281815293909401939091830182828015610ec757602002820191906000526020600020905b815481526020019060010190808311610eb3575b50505050508152602001600c8201805480602002602001604051908101604052809291908181526020018280548015610f1f57602002820191906000526020600020905b815481526020019060010190808311610f0b575b50505050508152602001600d8201805480602002602001604051908101604052809291908181526020018280548015610f7757602002820191906000526020600020905b815481526020019060010190808311610f63575b50505050508152602001600e8201805480602002602001604051908101604052809291908181526020018280548015610fcf57602002820191906000526020600020905b815481526020019060010190808311610fbb575b50505050508152602001600f8201548152602001601082015481526020016011820154815250509050919050565b6110056127e7565b61100f6000612841565b565b60008160000361102357506001919050565b8160010361103357506000919050565b8160020361104357506003919050565b8160030361105357506002919050565b60405162461bcd60e51b815260206004820152600d60248201526c2130b2103234b932b1ba34b7b760991b6044820152606401610691565b6000546001600160a01b031633146110d15760405162461bcd60e51b81526020600482015260096024820152682737ba1037bbb732b960b91b6044820152606401610691565b6110dd84848484611bb9565b50505050565b6110eb6127e7565b600280546001600160a01b03199081166001600160a01b039a8b1617909155600380548216978a169790971790965560078054871695891695909517909455600980548616938816939093179092556004805485169187169190911790556005805484169186169190911790556006805490921693169290921790915550565b6040805180820190915260008082526020820152826000036111bd576040518060400160405280600184600001516111a39190613630565b60ff168152602001836020015160ff1681525090506106c6565b826001036111e1576040518060400160405280836000015160016111a39190613649565b8260020361121e576040518060400160405280836000015160ff168152602001836020015160016112129190613649565b60ff16905290506106c6565b8260030361124f576040518060400160405280836000015160ff168152602001600184602001516112129190613630565b600061125a84612891565b60405160200161126a9190613686565b60405160208183030381529060405290508060405162461bcd60e51b815260040161069191906136ed565b6000808260016112a68660026137e4565b6112b09190613576565b901b8516831c9150509392505050565b600c60205281600052604060002081815481106112dc57600080fd5b90600052602060002001600091509150505481565b6009546001600160a01b031633146113425760405162461bcd60e51b8152602060048201526014602482015273139bdd081858dd1a5bdb9cc818dbdb9d1c9858dd60621b6044820152606401610691565b806113a65760065460405163ce93229760e01b8152600481018490526001600160a01b039091169063ce93229790602401600060405180830381600087803b15801561138d57600080fd5b505af11580156113a1573d6000803e3d6000fd5b505050505b6006546040516347d0e3c960e01b8152600481018490526000916001600160a01b0316906347d0e3c990602401602060405180830381865afa1580156113f0573d6000803e3d6000fd5b505050506040513d601f19601f8201168201806040525081019061141491906137f0565b9050600381106110dd576110dd8484612681565b6001600160a01b0381166000908152600c60205260408120546060919067ffffffffffffffff81111561145d5761145d612e6b565b604051908082528060200260200182016040528015611486578160200160208202803683370190505b50905060005b815181101561088b576001600160a01b0384166000908152600c602052604090208054829081106114bf576114bf613589565b90600052602060002001548282815181106114dc576114dc613589565b6020908102919091010152806114f18161355d565b91505061148c565b600180546000918261150a8361355d565b91905055506000336001546001436115229190613576565b60405160609390931b6bffffffffffffffffffffffff19166020840152603483019190915240605482015260740160408051601f198184030181529190528051602090910120905060006115768585613630565b611581906001613649565b90508460ff168160ff16836115969190613809565b6115a091906135e0565b95945050505050565b6007546000906001600160a01b031633146115fb5760405162461bcd60e51b8152602060048201526012602482015271139bdd081b1bd8989e4818dbdb9d1c9858dd60721b6044820152606401610691565b600b80546001808201835560009283527f0175b7a638427703f0dbe7bb9bbf987a2551717b34e79f33b5b1008d1fa01db96012909202918201805460ff191690911781557f0175b7a638427703f0dbe7bb9bbf987a2551717b34e79f33b5b1008d1fa01dbd8201929092558551611699917f0175b7a638427703f0dbe7bb9bbf987a2551717b34e79f33b5b1008d1fa01dba01906020880190612d0a565b50600381018490556040805160808101825260008082526020820181905291810182905260600181905260058201805463ffffffff1916905583900361175c57600360009054906101000a90046001600160a01b03166001600160a01b031663f01fc35a6040518163ffffffff1660e01b81526004016020604051808303816000875af115801561172e573d6000803e3d6000fd5b505050506040513d601f19601f8201168201806040525081019061175291906137f0565b60068201556117d1565b60035460405163148e052f60e21b8152600481018590526001600160a01b039091169063523814bc906024016020604051808303816000875af11580156117a7573d6000803e3d6000fd5b505050506040513d601f19601f820116820180604052508101906117cb91906137f0565b60068201555b60005b6117df600186613576565b811161191e57600682015460408051808201909152600a5460ff8082168352610100909104166020820152600184018054611839939291908590811061182757611827613589565b90600052602060002001546000611bb9565b60065486516000916001600160a01b031690636621a4219089908590811061186357611863613589565b60200260200101516040518263ffffffff1660e01b815260040161188991815260200190565b602060405180830381865afa1580156118a6573d6000803e3d6000fd5b505050506040513d601f19601f820116820180604052508101906118ca9190613613565b6001600160a01b0381166000908152600c60205260409020600b54919250906118f590600190613576565b8154600181018355600092835260209092209091015550806119168161355d565b9150506117d4565b50600654600b546001600160a01b039091169063e7169ec5906001848101916119479190613576565b6040518363ffffffff1660e01b8152600401611964929190613852565b600060405180830381600087803b15801561197e57600080fd5b505af1158015611992573d6000803e3d6000fd5b505050506000604051806101e00160405280600181526020016002815260200160038152602001600481526020016005815260200160068152602001600781526020016008815260200160098152602001600a8152602001600b8152602001600c8152602001600d8152602001600e8152602001600f81525090508082600b0190600f611a20929190612d0a565b50611a30600c830182600f612d0a565b50611a40600d830182600f612d0a565b50611a50600e830182600f612d0a565b5061012c600f830155426010830155600b54611a6e90600190613576565b9695505050505050565b611a806127e7565b6001600160a01b038116611ae55760405162461bcd60e51b815260206004820152602660248201527f4f776e61626c653a206e6577206f776e657220697320746865207a65726f206160448201526564647265737360d01b6064820152608401610691565b611aee81612841565b50565b80518251600091611b0191613874565b60000b600103611b13575060006106c6565b81518351611b219190613874565b60000b19611b31575060016106c6565b81602001518360200151611b459190613874565b60000b19611b55575060026106c6565b81602001518360200151611b699190613874565b60000b600103611b7b575060036106c6565b60405162461bcd60e51b8152602060048201526013602482015272115c9c9bdc8e88139bdd0818591a9858d95b9d606a1b6044820152606401610691565b6000600b8581548110611bce57611bce613589565b9060005260206000209060120201905080600101600081548110611bf457611bf4613589565b9060005260206000200154831480611c2b575080600101600181548110611c1d57611c1d613589565b906000526020600020015483145b80611c55575080600101600281548110611c4757611c47613589565b906000526020600020015483145b80611c7f575080600101600381548110611c7157611c71613589565b906000526020600020015483145b611ccb5760405162461bcd60e51b815260206004820152601760248201527f506c61796572206e6f7420696e20746869732067616d650000000000000000006044820152606401610691565b600654600b80546001600160a01b0390921691638d491b3e9187918791908a908110611cf957611cf9613589565b9060005260206000209060120201600601546040518463ffffffff1660e01b8152600401611d2993929190613895565b6020604051808303816000875af1158015611d48573d6000803e3d6000fd5b505050506040513d601f19601f82011682018060405250810190611d6c91906138d4565b6125ae57600354600b80546000926001600160a01b0316916381bad36d9189908110611d9a57611d9a613589565b90600052602060002090601202016006015487600001518860200151876040518563ffffffff1660e01b8152600401611df0949392919093845260ff928316602085015291166040830152606082015260800190565b6020604051808303816000875af1158015611e0f573d6000803e3d6000fd5b505050506040513d601f19601f82011682018060405250810190611e3391906137f0565b600354600b80549293506000926001600160a01b0390921691635805828391908a908110611e6357611e63613589565b906000526020600020906012020160060154846040518363ffffffff1660e01b8152600401611e9c929190918252602082015260400190565b60a060405180830381865afa158015611eb9573d6000803e3d6000fd5b505050506040513d601f19601f82011682018060405250810190611edd91906138fc565b9050600282118015611f025750600081516005811115611eff57611eff612d83565b14155b156125ab57600181516005811115611f1c57611f1c612d83565b03611f6f57600b8781548110611f3457611f34613589565b600091825260208220600560129092020101805460ff1691611f558361398f565b91906101000a81548160ff021916908360ff160217905550505b600281516005811115611f8457611f84612d83565b03611fdf57600b8781548110611f9c57611f9c613589565b600091825260209091206012909102016005018054610100900460ff16906001611fc58361398f565b91906101000a81548160ff021916908360ff160217905550505b600381516005811115611ff457611ff4612d83565b0361205057600b878154811061200c5761200c613589565b60009182526020909120601290910201600501805462010000900460ff169060026120368361398f565b91906101000a81548160ff021916908360ff160217905550505b60048151600581111561206557612065612d83565b036120c257600b878154811061207d5761207d613589565b6000918252602090912060129091020160050180546301000000900460ff169060036120a88361398f565b91906101000a81548160ff021916908360ff160217905550505b6020810151156122415760048054602083015160405163c82c37b960e01b8152928301526000916001600160a01b039091169063c82c37b990602401600060405180830381865afa15801561211b573d6000803e3d6000fd5b505050506040513d6000823e601f3d908101601f191682016040526121439190810190613a46565b9050806020015161223b5785600b898154811061216257612162613589565b9060005260206000209060120201600701819055508160200151600b898154811061218f5761218f613589565b9060005260206000209060120201600801819055506005600b89815481106121b9576121b9613589565b60009182526020909120600960129092020101805460ff191660018360058111156121e6576121e6612d83565b021790555086600b89815481106121ff576121ff613589565b60009182526020918290208351600a6012909302909101919091018054939092015160ff9081166101000261ffff199094169116179190911790555b506125ab565b60008151600581111561225657612256612d83565b146125ab5784600b888154811061226f5761226f613589565b90600052602060002090601202016007018190555085600b888154811061229857612298613589565b60009182526020918290208351600a6012909302909101919091018054939092015160ff9081166101000261ffff199094169116179190911790556001815160058111156122e8576122e8612d83565b0361238957612319600b888154811061230357612303613589565b9060005260206000209060120201600b0161299a565b600b888154811061232c5761232c613589565b9060005260206000209060120201600801819055506001600b888154811061235657612356613589565b60009182526020909120600960129092020101805460ff1916600183600581111561238357612383612d83565b02179055505b60028151600581111561239e5761239e612d83565b0361243f576123cf600b88815481106123b9576123b9613589565b9060005260206000209060120201600c0161299a565b600b88815481106123e2576123e2613589565b9060005260206000209060120201600801819055506002600b888154811061240c5761240c613589565b60009182526020909120600960129092020101805460ff1916600183600581111561243957612439612d83565b02179055505b60038151600581111561245457612454612d83565b036124f557612485600b888154811061246f5761246f613589565b9060005260206000209060120201600d0161299a565b600b888154811061249857612498613589565b9060005260206000209060120201600801819055506003600b88815481106124c2576124c2613589565b60009182526020909120600960129092020101805460ff191660018360058111156124ef576124ef612d83565b02179055505b60048151600581111561250a5761250a612d83565b036125ab5761253b600b888154811061252557612525613589565b9060005260206000209060120201600e0161299a565b600b888154811061254e5761254e613589565b9060005260206000209060120201600801819055506004600b888154811061257857612578613589565b60009182526020909120600960129092020101805460ff191660018360058111156125a5576125a5612d83565b02179055505b50505b5050505050565b6000600b83815481106125ca576125ca613589565b6000918252602090912060068054601290930290910160078101549181015460088201546009830154604051636d291bbb60e01b81529396506001600160a01b0390951694636d291bbb9461263294899491938b93600a8b019260ff90911690600401613b38565b600060405180830381600087803b15801561264c57600080fd5b505af1158015612660573d6000803e3d6000fd5b505060006007840181905560088401555050600901805460ff191690555050565b6000600b838154811061269657612696613589565b6000918252602090912060065460405163065c363f60e41b815260048101869052601290930290910192506001600160a01b0316906365c363f090602401600060405180830381600087803b1580156126ee57600080fd5b505af1158015612702573d6000803e3d6000fd5b5050426010840155505060018082015461271c9190613576565b81600201541015612743576002810180549060006127398361355d565b9190505550505050565b612751838260060154612ac0565b60006002820155505050565b6109ef8282604051602401612773929190613b8d565b60408051601f198184030181529190526020810180516001600160e01b031663319af33360e01b179052612c10565b6109ef82826040516024016127b8929190613bb7565b60408051601f198184030181529190526020810180516001600160e01b03166309710a9d60e41b179052612c10565b6000546001600160a01b0316331461100f5760405162461bcd60e51b815260206004820181905260248201527f4f776e61626c653a2063616c6c6572206973206e6f7420746865206f776e65726044820152606401610691565b600080546001600160a01b038381166001600160a01b0319831681178455604051919092169283917f8be0079c531659141344cd1fd0a4f28419497f9722a3daafe3b4186f6b6457e09190a35050565b6060816000036128b85750506040805180820190915260018152600360fc1b602082015290565b8160005b81156128e257806128cc8161355d565b91506128db9050600a836135cc565b91506128bc565b60008167ffffffffffffffff8111156128fd576128fd612e6b565b6040519080825280601f01601f191660200182016040528015612927576020820181803683370190505b5090505b84156129925761293c600183613576565b9150612949600a86613809565b6129549060306135e0565b60f81b81838151811061296957612969613589565b60200101906001600160f81b031916908160001a90535061298b600a866135cc565b945061292b565b949350505050565b805460009081906129ad90600190613576565b90505b8015612a5d5760006129c36000836114f9565b9050838160ff16815481106129da576129da613589565b90600052602060002001548483815481106129f7576129f7613589565b9060005260206000200154858481548110612a1457612a14613589565b906000526020600020016000878560ff1681548110612a3557612a35613589565b6000918252602090912001929092559190915550819050612a5581613bca565b9150506129b0565b5081546000908390612a7190600190613576565b81548110612a8157612a81613589565b9060005260206000200154905082805480612a9e57612a9e613be1565b600190038181906000526020600020016000905590558060ff16915050919050565b6000600b8381548110612ad557612ad5613589565b60009182526020909120600354604051630b06115560e31b815260048101869052601290930290910192506001600160a01b0316906358308aa890602401600060405180830381600087803b158015612b2d57600080fd5b505af1158015612b41573d6000803e3d6000fd5b505060035460405163c6b41b4560e01b815260048101869052600160248201526001600160a01b03909116925063c6b41b459150604401600060405180830381600087803b158015612b9257600080fd5b505af1158015612ba6573d6000803e3d6000fd5b5050600680549084015460405163668a7f3b60e01b81526001600160a01b03909216935063668a7f3b9250612be2916001860190600401613bf7565b600060405180830381600087803b158015612bfc57600080fd5b505af11580156125ab573d6000803e3d6000fd5b80516a636f6e736f6c652e6c6f67602083016000808483855afa5050505050565b60408051610240810182526000808252606060208084018290528385018390528184018390526080808501849052855190810186528381529081018390529384018290528301529060a0820190815260200160008152602001600081526020016000815260200160006005811115612cab57612cab612d83565b8152602001612cd36040518060400160405280600060ff168152602001600060ff1681525090565b8152602001606081526020016060815260200160608152602001606081526020016000815260200160008152602001600081525090565b828054828255906000526020600020908101928215612d45579160200282015b82811115612d45578251825591602001919060010190612d2a565b50612d51929150612d55565b5090565b5b80821115612d515760008155600101612d56565b600060208284031215612d7c57600080fd5b5035919050565b634e487b7160e01b600052602160045260246000fd5b60068110612db757634e487b7160e01b600052602160045260246000fd5b9052565b8d1515815260208082018e905260408083018e905260608084018e90528c5160ff9081166080860152928d0151831660a0850152908c0151821660c08401528b01511660e08201526102208101896101008301528861012083015287610140830152612e2b610160830188612d99565b855160ff9081166101808401526020870151166101a0830152846101c0830152836101e0830152826102008301529e9d5050505050505050505050505050565b634e487b7160e01b600052604160045260246000fd5b6040805190810167ffffffffffffffff81118282101715612ea457612ea4612e6b565b60405290565b60405160e0810167ffffffffffffffff81118282101715612ea457612ea4612e6b565b604051601f8201601f1916810167ffffffffffffffff81118282101715612ef657612ef6612e6b565b604052919050565b60ff81168114611aee57600080fd5b600060408284031215612f1f57600080fd5b612f27612e81565b90508135612f3481612efe565b81526020820135612f4481612efe565b602082015292915050565b600080600060808486031215612f6457600080fd5b83359250612f758560208601612f0d565b9150606084013590509250925092565b6020808252825182820181905260009190848201906040850190845b81811015612fbd57835183529284019291840191600101612fa1565b50909695505050505050565b60008060008060808587031215612fdf57600080fd5b5050823594602084013594506040840135936060013592509050565b60008060006060848603121561301057600080fd5b505081359360208301359350604090920135919050565b6000806040838503121561303a57600080fd5b50508035926020909101359150565b600081518084526020808501945080840160005b838110156130795781518752958201959082019060010161305d565b509495945050505050565b6020815261309760208201835115159052565b600060208301516102c08060408501526130b56102e0850183613049565b91506040850151606085015260608501516080850152608085015160a085015260a085015161311460c086018260ff815116825260ff602082015116602083015260ff604082015116604083015260ff60608201511660608301525050565b5060c0850151610140818187015260e0870151915061016082818801526101008801519250610180838189015261012089015193506101a0613158818a0186612d99565b9289015193506101c09261317e89850186805160ff908116835260209182015116910152565b828a01519450601f199250610200838a890301818b015261319f8887613049565b9750828b015195506102209250838a890301838b01526131bf8887613049565b9750818b01519550838a8903016102408b01526131dc8887613049565b9750848b01519550838a8903016102608b01526131f98887613049565b6101e08c01516102808c0152908b01516102a08b015291909901519490970193909352509395945050505050565b60008060008060a0858703121561323d57600080fd5b8435935061324e8660208701612f0d565b93969395505050506060820135916080013590565b6001600160a01b0381168114611aee57600080fd5b600080600080600080600080610100898b03121561329557600080fd5b88356132a081613263565b975060208901356132b081613263565b965060408901356132c081613263565b955060608901356132d081613263565b945060808901356132e081613263565b935060a08901356132f081613263565b925060c089013561330081613263565b915060e089013561331081613263565b809150509295985092959890939650565b6000806060838503121561333457600080fd5b823591506133458460208501612f0d565b90509250929050565b604081016106c68284805160ff908116835260209182015116910152565b6000806040838503121561337f57600080fd5b823561338a81613263565b946020939093013593505050565b8015158114611aee57600080fd5b6000806000606084860312156133bb57600080fd5b833592506020840135915060408401356133d481613398565b809150509250925092565b6000602082840312156133f157600080fd5b8135610a8981613263565b6000806040838503121561340f57600080fd5b823561341a81612efe565b9150602083013561342a81612efe565b809150509250929050565b600067ffffffffffffffff82111561344f5761344f612e6b565b5060051b60200190565b60008060006060848603121561346e57600080fd5b833567ffffffffffffffff81111561348557600080fd5b8401601f8101861361349657600080fd5b803560206134ab6134a683613435565b612ecd565b82815260059290921b830181019181810190898411156134ca57600080fd5b938201935b838510156134e8578435825293820193908201906134cf565b999188013598505060409096013595945050505050565b6000806080838503121561351257600080fd5b61351c8484612f0d565b91506133458460408501612f0d565b634e487b7160e01b600052601160045260246000fd5b6000600160ff1b82016135565761355661352b565b5060000390565b60006001820161356f5761356f61352b565b5060010190565b818103818111156106c6576106c661352b565b634e487b7160e01b600052603260045260246000fd5b80820281158282048414176106c6576106c661352b565b634e487b7160e01b600052601260045260246000fd5b6000826135db576135db6135b6565b500490565b808201808211156106c6576106c661352b565b818103600083128015838313168383128216171561088b5761088b61352b565b60006020828403121561362557600080fd5b8151610a8981613263565b60ff82811682821603908111156106c6576106c661352b565b60ff81811683821601908111156106c6576106c661352b565b60005b8381101561367d578181015183820152602001613665565b50506000910152565b72024b73b30b634b2103234b932b1ba34b7b71d1606d1b8152600082516136b4816013850160208701613662565b9190910160130192915050565b600081518084526136d9816020860160208601613662565b601f01601f19169290920160200192915050565b602081526000610a8960208301846136c1565b600181815b8085111561373b5781600019048211156137215761372161352b565b8085161561372e57918102915b93841c9390800290613705565b509250929050565b600082613752575060016106c6565b8161375f575060006106c6565b8160018114613775576002811461377f5761379b565b60019150506106c6565b60ff8411156137905761379061352b565b50506001821b6106c6565b5060208310610133831016604e8410600b84101617156137be575081810a6106c6565b6137c88383613700565b80600019048211156137dc576137dc61352b565b029392505050565b6000610a898383613743565b60006020828403121561380257600080fd5b5051919050565b600082613818576138186135b6565b500690565b6000815480845260208085019450836000528060002060005b8381101561307957815487529582019560019182019101613836565b604081526000613865604083018561381d565b90508260208301529392505050565b600082810b9082900b03607f198112607f821317156106c6576106c661352b565b608081016138b38286805160ff908116835260209182015116910152565b604082019390935260600152919050565b80516138cf81613398565b919050565b6000602082840312156138e657600080fd5b8151610a8981613398565b80516138cf81612efe565b600060a0828403121561390e57600080fd5b60405160a0810181811067ffffffffffffffff8211171561393157613931612e6b565b60405282516006811061394357600080fd5b815260208381015190820152604083015161395d81612efe565b6040820152606083015161397081612efe565b6060820152608083015161398381613398565b60808201529392505050565b600060ff821660ff81036139a5576139a561352b565b60010192915050565b600082601f8301126139bf57600080fd5b815160206139cf6134a683613435565b82815260069290921b840181019181810190868411156139ee57600080fd5b8286015b84811015613a3b5760408189031215613a0b5760008081fd5b613a13612e81565b815160178110613a235760008081fd5b815281850151858201528352918301916040016139f2565b509695505050505050565b600060208284031215613a5857600080fd5b815167ffffffffffffffff80821115613a7057600080fd5b9083019060e08286031215613a8457600080fd5b613a8c612eaa565b82518152613a9c602084016138c4565b6020820152613aad604084016138f1565b6040820152613abe606084016138f1565b6060820152608083015182811115613ad557600080fd5b613ae1878286016139ae565b60808301525060a083015182811115613af957600080fd5b613b05878286016139ae565b60a08301525060c083015182811115613b1d57600080fd5b613b29878286016139ae565b60c08301525095945050505050565b600061010082019050888252876020830152866040830152856060830152845460ff8116608084015260ff8160081c1660a0840152508360c0830152613b8160e0830184612d99565b98975050505050505050565b604081526000613ba060408301856136c1565b905060018060a01b03831660208301529392505050565b60408152600061386560408301856136c1565b600081613bd957613bd961352b565b506000190190565b634e487b7160e01b600052603160045260246000fd5b828152604060208201526000612992604083018461381d56fe706c61796572732e657874476574506c617965724f776e6572286576656e7447616d652e6576656e74506c61796572496429a2646970667358221220530a4fd51f4819bcf28f9a3fe20c0626d943a9c78b4e2b85133ef71f0b1ebf1164736f6c63430008110033",
  "devdoc": {
    "kind": "dev",
    "methods": {
      "owner()": {
        "details": "Returns the address of the current owner."
      },
      "renounceOwnership()": {
        "details": "Leaves the contract without owner. It will not be possible to call `onlyOwner` functions anymore. Can only be called by the current owner. NOTE: Renouncing ownership will leave the contract without an owner, thereby removing any functionality that is only available to the owner."
      },
      "transferOwnership(address)": {
        "details": "Transfers ownership of the contract to a new account (`newOwner`). Can only be called by the current owner."
      }
    },
    "version": 1
  },
  "userdoc": {
    "kind": "user",
    "methods": {},
    "version": 1
  },
  "storageLayout": {
    "storage": [
      {
        "astId": 7,
        "contract": "contracts/BCGames.sol:BCGames",
        "label": "_owner",
        "offset": 0,
        "slot": "0",
        "type": "t_address"
      },
      {
        "astId": 16431,
        "contract": "contracts/BCGames.sol:BCGames",
        "label": "TODO_randomSeed",
        "offset": 0,
        "slot": "1",
        "type": "t_uint256"
      },
      {
        "astId": 9235,
        "contract": "contracts/BCGames.sol:BCGames",
        "label": "chars",
        "offset": 0,
        "slot": "2",
        "type": "t_contract(CharInterface)9021"
      },
      {
        "astId": 9238,
        "contract": "contracts/BCGames.sol:BCGames",
        "label": "maps",
        "offset": 0,
        "slot": "3",
        "type": "t_contract(MapInterface)9134"
      },
      {
        "astId": 9241,
        "contract": "contracts/BCGames.sol:BCGames",
        "label": "bcEvents",
        "offset": 0,
        "slot": "4",
        "type": "t_contract(EventsInterface)9007"
      },
      {
        "astId": 9244,
        "contract": "contracts/BCGames.sol:BCGames",
        "label": "items",
        "offset": 0,
        "slot": "5",
        "type": "t_contract(ItemsInterface)9148"
      },
      {
        "astId": 9247,
        "contract": "contracts/BCGames.sol:BCGames",
        "label": "players",
        "offset": 0,
        "slot": "6",
        "type": "t_contract(PlayersInterface)9228"
      },
      {
        "astId": 9249,
        "contract": "contracts/BCGames.sol:BCGames",
        "label": "lobbiesAddress",
        "offset": 0,
        "slot": "7",
        "type": "t_address"
      },
      {
        "astId": 9251,
        "contract": "contracts/BCGames.sol:BCGames",
        "label": "charsAddress",
        "offset": 0,
        "slot": "8",
        "type": "t_address"
      },
      {
        "astId": 9253,
        "contract": "contracts/BCGames.sol:BCGames",
        "label": "actionsAddress",
        "offset": 0,
        "slot": "9",
        "type": "t_address"
      },
      {
        "astId": 9327,
        "contract": "contracts/BCGames.sol:BCGames",
        "label": "StartLocation",
        "offset": 0,
        "slot": "10",
        "type": "t_struct(Position)16220_storage"
      },
      {
        "astId": 9331,
        "contract": "contracts/BCGames.sol:BCGames",
        "label": "games",
        "offset": 0,
        "slot": "11",
        "type": "t_array(t_struct(Game)16315_storage)dyn_storage"
      },
      {
        "astId": 9336,
        "contract": "contracts/BCGames.sol:BCGames",
        "label": "addressToGame",
        "offset": 0,
        "slot": "12",
        "type": "t_mapping(t_address,t_array(t_uint256)dyn_storage)"
      }
    ],
    "types": {
      "t_address": {
        "encoding": "inplace",
        "label": "address",
        "numberOfBytes": "20"
      },
      "t_array(t_struct(Game)16315_storage)dyn_storage": {
        "base": "t_struct(Game)16315_storage",
        "encoding": "dynamic_array",
        "label": "struct BCTypes.Game[]",
        "numberOfBytes": "32"
      },
      "t_array(t_uint256)dyn_storage": {
        "base": "t_uint256",
        "encoding": "dynamic_array",
        "label": "uint256[]",
        "numberOfBytes": "32"
      },
      "t_bool": {
        "encoding": "inplace",
        "label": "bool",
        "numberOfBytes": "1"
      },
      "t_contract(CharInterface)9021": {
        "encoding": "inplace",
        "label": "contract CharInterface",
        "numberOfBytes": "20"
      },
      "t_contract(EventsInterface)9007": {
        "encoding": "inplace",
        "label": "contract EventsInterface",
        "numberOfBytes": "20"
      },
      "t_contract(ItemsInterface)9148": {
        "encoding": "inplace",
        "label": "contract ItemsInterface",
        "numberOfBytes": "20"
      },
      "t_contract(MapInterface)9134": {
        "encoding": "inplace",
        "label": "contract MapInterface",
        "numberOfBytes": "20"
      },
      "t_contract(PlayersInterface)9228": {
        "encoding": "inplace",
        "label": "contract PlayersInterface",
        "numberOfBytes": "20"
      },
      "t_enum(BCEventType)16153": {
        "encoding": "inplace",
        "label": "enum BCTypes.BCEventType",
        "numberOfBytes": "1"
      },
      "t_mapping(t_address,t_array(t_uint256)dyn_storage)": {
        "encoding": "mapping",
        "key": "t_address",
        "label": "mapping(address => uint256[])",
        "numberOfBytes": "32",
        "value": "t_array(t_uint256)dyn_storage"
      },
      "t_struct(EventTracker)16215_storage": {
        "encoding": "inplace",
        "label": "struct BCTypes.EventTracker",
        "members": [
          {
            "astId": 16208,
            "contract": "contracts/BCGames.sol:BCGames",
            "label": "bugEvents",
            "offset": 0,
            "slot": "0",
            "type": "t_uint8"
          },
          {
            "astId": 16210,
            "contract": "contracts/BCGames.sol:BCGames",
            "label": "mysteryEvents",
            "offset": 1,
            "slot": "0",
            "type": "t_uint8"
          },
          {
            "astId": 16212,
            "contract": "contracts/BCGames.sol:BCGames",
            "label": "scavEvents",
            "offset": 2,
            "slot": "0",
            "type": "t_uint8"
          },
          {
            "astId": 16214,
            "contract": "contracts/BCGames.sol:BCGames",
            "label": "shipEvents",
            "offset": 3,
            "slot": "0",
            "type": "t_uint8"
          }
        ],
        "numberOfBytes": "32"
      },
      "t_struct(Game)16315_storage": {
        "encoding": "inplace",
        "label": "struct BCTypes.Game",
        "members": [
          {
            "astId": 16272,
            "contract": "contracts/BCGames.sol:BCGames",
            "label": "active",
            "offset": 0,
            "slot": "0",
            "type": "t_bool"
          },
          {
            "astId": 16275,
            "contract": "contracts/BCGames.sol:BCGames",
            "label": "playerIndexes",
            "offset": 0,
            "slot": "1",
            "type": "t_array(t_uint256)dyn_storage"
          },
          {
            "astId": 16277,
            "contract": "contracts/BCGames.sol:BCGames",
            "label": "currentPlayerTurnIndex",
            "offset": 0,
            "slot": "2",
            "type": "t_uint256"
          },
          {
            "astId": 16279,
            "contract": "contracts/BCGames.sol:BCGames",
            "label": "numPlayers",
            "offset": 0,
            "slot": "3",
            "type": "t_uint256"
          },
          {
            "astId": 16281,
            "contract": "contracts/BCGames.sol:BCGames",
            "label": "turnsTaken",
            "offset": 0,
            "slot": "4",
            "type": "t_uint256"
          },
          {
            "astId": 16284,
            "contract": "contracts/BCGames.sol:BCGames",
            "label": "eventTracker",
            "offset": 0,
            "slot": "5",
            "type": "t_struct(EventTracker)16215_storage"
          },
          {
            "astId": 16286,
            "contract": "contracts/BCGames.sol:BCGames",
            "label": "mapId",
            "offset": 0,
            "slot": "6",
            "type": "t_uint256"
          },
          {
            "astId": 16288,
            "contract": "contracts/BCGames.sol:BCGames",
            "label": "eventPlayerId",
            "offset": 0,
            "slot": "7",
            "type": "t_uint256"
          },
          {
            "astId": 16290,
            "contract": "contracts/BCGames.sol:BCGames",
            "label": "eventNumber",
            "offset": 0,
            "slot": "8",
            "type": "t_uint256"
          },
          {
            "astId": 16293,
            "contract": "contracts/BCGames.sol:BCGames",
            "label": "eventType",
            "offset": 0,
            "slot": "9",
            "type": "t_enum(BCEventType)16153"
          },
          {
            "astId": 16296,
            "contract": "contracts/BCGames.sol:BCGames",
            "label": "eventPosition",
            "offset": 0,
            "slot": "10",
            "type": "t_struct(Position)16220_storage"
          },
          {
            "astId": 16299,
            "contract": "contracts/BCGames.sol:BCGames",
            "label": "unusedBugEvents",
            "offset": 0,
            "slot": "11",
            "type": "t_array(t_uint256)dyn_storage"
          },
          {
            "astId": 16302,
            "contract": "contracts/BCGames.sol:BCGames",
            "label": "unusedMysteryEvents",
            "offset": 0,
            "slot": "12",
            "type": "t_array(t_uint256)dyn_storage"
          },
          {
            "astId": 16305,
            "contract": "contracts/BCGames.sol:BCGames",
            "label": "unusedScavEvents",
            "offset": 0,
            "slot": "13",
            "type": "t_array(t_uint256)dyn_storage"
          },
          {
            "astId": 16308,
            "contract": "contracts/BCGames.sol:BCGames",
            "label": "unusedShipEvents",
            "offset": 0,
            "slot": "14",
            "type": "t_array(t_uint256)dyn_storage"
          },
          {
            "astId": 16310,
            "contract": "contracts/BCGames.sol:BCGames",
            "label": "turnTimeLimit",
            "offset": 0,
            "slot": "15",
            "type": "t_uint256"
          },
          {
            "astId": 16312,
            "contract": "contracts/BCGames.sol:BCGames",
            "label": "lastTurnTimestamp",
            "offset": 0,
            "slot": "16",
            "type": "t_uint256"
          },
          {
            "astId": 16314,
            "contract": "contracts/BCGames.sol:BCGames",
            "label": "DEBUG_returnAmount",
            "offset": 0,
            "slot": "17",
            "type": "t_uint256"
          }
        ],
        "numberOfBytes": "576"
      },
      "t_struct(Position)16220_storage": {
        "encoding": "inplace",
        "label": "struct BCTypes.Position",
        "members": [
          {
            "astId": 16217,
            "contract": "contracts/BCGames.sol:BCGames",
            "label": "row",
            "offset": 0,
            "slot": "0",
            "type": "t_uint8"
          },
          {
            "astId": 16219,
            "contract": "contracts/BCGames.sol:BCGames",
            "label": "col",
            "offset": 1,
            "slot": "0",
            "type": "t_uint8"
          }
        ],
        "numberOfBytes": "32"
      },
      "t_uint256": {
        "encoding": "inplace",
        "label": "uint256",
        "numberOfBytes": "32"
      },
      "t_uint8": {
        "encoding": "inplace",
        "label": "uint8",
        "numberOfBytes": "1"
      }
    }
  }
}