{
  "address": "0x24D364bA4F24eA1Af51618389d1809893E270f5b",
  "abi": [
    {
      "anonymous": false,
      "inputs": [
        {
          "indexed": false,
          "internalType": "uint256",
          "name": "currentPlayerTurnIndex",
          "type": "uint256"
        },
        {
          "components": [
            {
              "internalType": "address",
              "name": "owner",
              "type": "address"
            },
            {
              "internalType": "address",
              "name": "charContractAddress",
              "type": "address"
            },
            {
              "internalType": "uint256",
              "name": "characterId",
              "type": "uint256"
            },
            {
              "components": [
                {
                  "internalType": "uint8",
                  "name": "row",
                  "type": "uint8"
                },
                {
                  "internalType": "uint8",
                  "name": "col",
                  "type": "uint8"
                }
              ],
              "internalType": "struct BCTypes.Position",
              "name": "position",
              "type": "tuple"
            },
            {
              "internalType": "uint8",
              "name": "healthDmgTaken",
              "type": "uint8"
            },
            {
              "internalType": "uint8",
              "name": "armorDmgTaken",
              "type": "uint8"
            },
            {
              "internalType": "uint8",
              "name": "actionsTaken",
              "type": "uint8"
            },
            {
              "internalType": "uint8",
              "name": "dataTokens",
              "type": "uint8"
            },
            {
              "internalType": "uint8[]",
              "name": "currentEffects",
              "type": "uint8[]"
            },
            {
              "internalType": "uint8[]",
              "name": "inventoryIDs",
              "type": "uint8[]"
            },
            {
              "internalType": "bool",
              "name": "canHarmOthers",
              "type": "bool"
            },
            {
              "internalType": "bool",
              "name": "dead",
              "type": "bool"
            }
          ],
          "indexed": false,
          "internalType": "struct BCTypes.Player",
          "name": "player",
          "type": "tuple"
        },
        {
          "indexed": false,
          "internalType": "enum BCTypes.Action",
          "name": "action",
          "type": "uint8"
        }
      ],
      "name": "ActionCompleteEvent",
      "type": "event"
    },
    {
      "anonymous": false,
      "inputs": [
        {
          "indexed": false,
          "internalType": "uint256",
          "name": "roll",
          "type": "uint256"
        },
        {
          "indexed": false,
          "internalType": "uint256",
          "name": "forValue",
          "type": "uint256"
        },
        {
          "indexed": false,
          "internalType": "uint256",
          "name": "against",
          "type": "uint256"
        }
      ],
      "name": "DiceRollEvent",
      "type": "event"
    },
    {
      "anonymous": false,
      "inputs": [
        {
          "indexed": true,
          "internalType": "address",
          "name": "previousOwner",
          "type": "address"
        },
        {
          "indexed": true,
          "internalType": "address",
          "name": "newOwner",
          "type": "address"
        }
      ],
      "name": "OwnershipTransferred",
      "type": "event"
    },
    {
      "anonymous": false,
      "inputs": [],
      "name": "Received",
      "type": "event"
    },
    {
      "inputs": [
        {
          "internalType": "address",
          "name": "_charContractAddress",
          "type": "address"
        },
        {
          "internalType": "uint256",
          "name": "_charId",
          "type": "uint256"
        },
        {
          "internalType": "address",
          "name": "_owner",
          "type": "address"
        }
      ],
      "name": "addPlayer",
      "outputs": [
        {
          "internalType": "uint256",
          "name": "",
          "type": "uint256"
        }
      ],
      "stateMutability": "nonpayable",
      "type": "function"
    },
    {
      "inputs": [
        {
          "internalType": "address",
          "name": "",
          "type": "address"
        },
        {
          "internalType": "uint256",
          "name": "",
          "type": "uint256"
        }
      ],
      "name": "addressToGame",
      "outputs": [
        {
          "internalType": "uint256",
          "name": "",
          "type": "uint256"
        }
      ],
      "stateMutability": "view",
      "type": "function"
    },
    {
      "inputs": [],
      "name": "chars",
      "outputs": [
        {
          "internalType": "contract CharInterface",
          "name": "",
          "type": "address"
        }
      ],
      "stateMutability": "view",
      "type": "function"
    },
    {
      "inputs": [
        {
          "internalType": "uint256",
          "name": "_playerId",
          "type": "uint256"
        }
      ],
      "name": "debugReturnChar",
      "outputs": [],
      "stateMutability": "nonpayable",
      "type": "function"
    },
    {
      "inputs": [
        {
          "internalType": "uint256",
          "name": "_gameId",
          "type": "uint256"
        },
        {
          "internalType": "uint256",
          "name": "_playerId",
          "type": "uint256"
        },
        {
          "internalType": "enum BCTypes.Action",
          "name": "_action",
          "type": "uint8"
        },
        {
          "internalType": "enum BCTypes.Followthrough",
          "name": "_followthrough",
          "type": "uint8"
        },
        {
          "internalType": "uint256",
          "name": "_1stDirection",
          "type": "uint256"
        },
        {
          "internalType": "uint256",
          "name": "_2ndDirection",
          "type": "uint256"
        }
      ],
      "name": "doAction",
      "outputs": [],
      "stateMutability": "nonpayable",
      "type": "function"
    },
    {
      "inputs": [
        {
          "internalType": "uint256",
          "name": "_gameId",
          "type": "uint256"
        }
      ],
      "name": "extGetGamePlayerIndexes",
      "outputs": [
        {
          "internalType": "uint256[]",
          "name": "",
          "type": "uint256[]"
        }
      ],
      "stateMutability": "view",
      "type": "function"
    },
    {
      "inputs": [
        {
          "internalType": "uint256",
          "name": "",
          "type": "uint256"
        }
      ],
      "name": "games",
      "outputs": [
        {
          "internalType": "bool",
          "name": "active",
          "type": "bool"
        },
        {
          "internalType": "uint256",
          "name": "currentPlayerTurnIndex",
          "type": "uint256"
        },
        {
          "internalType": "uint256",
          "name": "numPlayers",
          "type": "uint256"
        },
        {
          "internalType": "uint256",
          "name": "turnsTaken",
          "type": "uint256"
        },
        {
          "components": [
            {
              "internalType": "uint8",
              "name": "bugEvents",
              "type": "uint8"
            },
            {
              "internalType": "uint8",
              "name": "mysteryEvents",
              "type": "uint8"
            },
            {
              "internalType": "uint8",
              "name": "scavEvents",
              "type": "uint8"
            },
            {
              "internalType": "uint8",
              "name": "shipEvents",
              "type": "uint8"
            }
          ],
          "internalType": "struct BCTypes.EventTracker",
          "name": "eventTracker",
          "type": "tuple"
        },
        {
          "internalType": "address",
          "name": "mapContract",
          "type": "address"
        },
        {
          "internalType": "uint256",
          "name": "mapId",
          "type": "uint256"
        }
      ],
      "stateMutability": "view",
      "type": "function"
    },
    {
      "inputs": [],
      "name": "lobbiesAddress",
      "outputs": [
        {
          "internalType": "address",
          "name": "",
          "type": "address"
        }
      ],
      "stateMutability": "view",
      "type": "function"
    },
    {
      "inputs": [],
      "name": "maps",
      "outputs": [
        {
          "internalType": "contract MapInterface",
          "name": "",
          "type": "address"
        }
      ],
      "stateMutability": "view",
      "type": "function"
    },
    {
      "inputs": [
        {
          "internalType": "address",
          "name": "_operator",
          "type": "address"
        },
        {
          "internalType": "address",
          "name": "_from",
          "type": "address"
        },
        {
          "internalType": "uint256",
          "name": "_tokenId",
          "type": "uint256"
        },
        {
          "internalType": "bytes",
          "name": "_data",
          "type": "bytes"
        }
      ],
      "name": "onERC721Received",
      "outputs": [
        {
          "internalType": "bytes4",
          "name": "",
          "type": "bytes4"
        }
      ],
      "stateMutability": "nonpayable",
      "type": "function"
    },
    {
      "inputs": [],
      "name": "owner",
      "outputs": [
        {
          "internalType": "address",
          "name": "",
          "type": "address"
        }
      ],
      "stateMutability": "view",
      "type": "function"
    },
    {
      "inputs": [
        {
          "internalType": "uint256",
          "name": "",
          "type": "uint256"
        }
      ],
      "name": "players",
      "outputs": [
        {
          "internalType": "address",
          "name": "owner",
          "type": "address"
        },
        {
          "internalType": "address",
          "name": "charContractAddress",
          "type": "address"
        },
        {
          "internalType": "uint256",
          "name": "characterId",
          "type": "uint256"
        },
        {
          "components": [
            {
              "internalType": "uint8",
              "name": "row",
              "type": "uint8"
            },
            {
              "internalType": "uint8",
              "name": "col",
              "type": "uint8"
            }
          ],
          "internalType": "struct BCTypes.Position",
          "name": "position",
          "type": "tuple"
        },
        {
          "internalType": "uint8",
          "name": "healthDmgTaken",
          "type": "uint8"
        },
        {
          "internalType": "uint8",
          "name": "armorDmgTaken",
          "type": "uint8"
        },
        {
          "internalType": "uint8",
          "name": "actionsTaken",
          "type": "uint8"
        },
        {
          "internalType": "uint8",
          "name": "dataTokens",
          "type": "uint8"
        },
        {
          "internalType": "bool",
          "name": "canHarmOthers",
          "type": "bool"
        },
        {
          "internalType": "bool",
          "name": "dead",
          "type": "bool"
        }
      ],
      "stateMutability": "view",
      "type": "function"
    },
    {
      "inputs": [],
      "name": "renounceOwnership",
      "outputs": [],
      "stateMutability": "nonpayable",
      "type": "function"
    },
    {
      "inputs": [],
      "name": "roomTiles",
      "outputs": [
        {
          "internalType": "contract RoomTileInterface",
          "name": "",
          "type": "address"
        }
      ],
      "stateMutability": "view",
      "type": "function"
    },
    {
      "inputs": [
        {
          "internalType": "address",
          "name": "_roomTileAddress",
          "type": "address"
        },
        {
          "internalType": "address",
          "name": "_charAddress",
          "type": "address"
        },
        {
          "internalType": "address",
          "name": "_utilsAddress",
          "type": "address"
        },
        {
          "internalType": "address",
          "name": "_mapsAddress",
          "type": "address"
        },
        {
          "internalType": "address",
          "name": "_lobbiesAddress",
          "type": "address"
        }
      ],
      "name": "setContractAddresses",
      "outputs": [],
      "stateMutability": "nonpayable",
      "type": "function"
    },
    {
      "inputs": [
        {
          "internalType": "uint256[]",
          "name": "_playerIndexes",
          "type": "uint256[]"
        },
        {
          "internalType": "uint256",
          "name": "_numPlayers",
          "type": "uint256"
        }
      ],
      "name": "startGame",
      "outputs": [],
      "stateMutability": "nonpayable",
      "type": "function"
    },
    {
      "inputs": [],
      "name": "transferFundsOut",
      "outputs": [],
      "stateMutability": "nonpayable",
      "type": "function"
    },
    {
      "inputs": [
        {
          "internalType": "address",
          "name": "newOwner",
          "type": "address"
        }
      ],
      "name": "transferOwnership",
      "outputs": [],
      "stateMutability": "nonpayable",
      "type": "function"
    },
    {
      "inputs": [],
      "name": "utils",
      "outputs": [
        {
          "internalType": "contract UtilsInterface",
          "name": "",
          "type": "address"
        }
      ],
      "stateMutability": "view",
      "type": "function"
    }
  ],
  "transactionHash": "0x92a7e7838cc5413ac5310d4efd9319da3d40785ddea35bdeb938fe5f9c156cfd",
  "args": [],
  "numDeployments": 2,
  "solcInputHash": "1be9bc036e6b2859710e9cbaa38e7f22",
  "bytecode": "0x60806040523480156200001157600080fd5b5062000032620000266200003860201b60201c565b6200004060201b60201c565b62000104565b600033905090565b60008060009054906101000a900473ffffffffffffffffffffffffffffffffffffffff169050816000806101000a81548173ffffffffffffffffffffffffffffffffffffffff021916908373ffffffffffffffffffffffffffffffffffffffff1602179055508173ffffffffffffffffffffffffffffffffffffffff168173ffffffffffffffffffffffffffffffffffffffff167f8be0079c531659141344cd1fd0a4f28419497f9722a3daafe3b4186f6b6457e060405160405180910390a35050565b615ab580620001146000396000f3fe608060405234801561001057600080fd5b50600436106101215760003560e01c80635a29638d116100ad578063e847ae1e11610071578063e847ae1e146102fe578063f06986991461031a578063f2fde38b14610336578063f7157f6414610352578063f71d96cb1461037057610121565b80635a29638d1461026c57806368030c721461028a578063715018a6146102a65780638da5cb5b146102b0578063a99d2a8b146102ce57610121565b806322cc26c5116100f457806322cc26c5146101da578063336d7d7b146101f65780633838aed1146102145780633deaec2b1461021e57806340d4fd781461023c57610121565b806308178b3c1461012657806310a2cd0d14610156578063117a5b9014610174578063150b7a02146101aa575b600080fd5b610140600480360381019061013b9190612df1565b6103a9565b60405161014d9190612e53565b60405180910390f35b61015e61050a565b60405161016b9190612ecd565b60405180910390f35b61018e60048036038101906101899190612ee8565b610530565b6040516101a19796959493929190612fb0565b60405180910390f35b6101c460048036038101906101bf9190613087565b61062d565b6040516101d1919061314a565b60405180910390f35b6101f460048036038101906101ef9190612ee8565b61066e565b005b6101fe610682565b60405161020b9190613165565b60405180910390f35b61021c6106a8565b005b610226610700565b60405161023391906131a1565b60405180910390f35b61025660048036038101906102519190612ee8565b610726565b604051610263919061327a565b60405180910390f35b610274610827565b60405161028191906132bd565b60405180910390f35b6102a4600480360381019061029f9190613427565b61084d565b005b6102ae610c57565b005b6102b8610c6b565b6040516102c59190613165565b60405180910390f35b6102e860048036038101906102e39190613483565b610c94565b6040516102f59190612e53565b60405180910390f35b610318600480360381019061031391906134c3565b610cc5565b005b610334600480360381019061032f9190613588565b610e19565b005b610350600480360381019061034b9190613615565b61244c565b005b61035a6124d0565b6040516103679190613663565b60405180910390f35b61038a60048036038101906103859190612ee8565b6124f6565b6040516103a09a999897969594939291906136bc565b60405180910390f35b6000600560009054906101000a900473ffffffffffffffffffffffffffffffffffffffff1673ffffffffffffffffffffffffffffffffffffffff163373ffffffffffffffffffffffffffffffffffffffff161461043b576040517f08c379a0000000000000000000000000000000000000000000000000000000008152600401610432906137b6565b60405180910390fd5b600060066001816001815401808255809150500390600052602060002090600802019050848160010160006101000a81548173ffffffffffffffffffffffffffffffffffffffff021916908373ffffffffffffffffffffffffffffffffffffffff160217905550828160000160006101000a81548173ffffffffffffffffffffffffffffffffffffffff021916908373ffffffffffffffffffffffffffffffffffffffff16021790555083816002018190555060016006805490506105009190613805565b9150509392505050565b600260009054906101000a900473ffffffffffffffffffffffffffffffffffffffff1681565b6007818154811061054057600080fd5b90600052602060002090600802016000915090508060000160009054906101000a900460ff1690806002015490806003015490806004015490806005016040518060800160405290816000820160009054906101000a900460ff1660ff1660ff1681526020016000820160019054906101000a900460ff1660ff1660ff1681526020016000820160029054906101000a900460ff1660ff1660ff1681526020016000820160039054906101000a900460ff1660ff1660ff1681525050908060060160009054906101000a900473ffffffffffffffffffffffffffffffffffffffff16908060070154905087565b60007f544c765b33ca411cce832250371569244f765a17fcd217832be093f0fd5fa45b60405160405180910390a163150b7a0260e01b905095945050505050565b61067661262c565b61067f816126aa565b50565b600560009054906101000a900473ffffffffffffffffffffffffffffffffffffffff1681565b6106b061262c565b6106b8610c6b565b73ffffffffffffffffffffffffffffffffffffffff166108fc479081150290604051600060405180830381858888f193505050501580156106fd573d6000803e3d6000fd5b50565b600460009054906101000a900473ffffffffffffffffffffffffffffffffffffffff1681565b606060006007838154811061073e5761073d613839565b5b90600052602060002090600802016001018054905067ffffffffffffffff81111561076c5761076b6132e9565b5b60405190808252806020026020018201604052801561079a5781602001602082028036833780820191505090505b50905060005b815181101561081d57600784815481106107bd576107bc613839565b5b906000526020600020906008020160010181815481106107e0576107df613839565b5b90600052602060002001548282815181106107fe576107fd613839565b5b602002602001018181525050808061081590613868565b9150506107a0565b5080915050919050565b600360009054906101000a900473ffffffffffffffffffffffffffffffffffffffff1681565b600560009054906101000a900473ffffffffffffffffffffffffffffffffffffffff1673ffffffffffffffffffffffffffffffffffffffff163373ffffffffffffffffffffffffffffffffffffffff16146108dd576040517f08c379a00000000000000000000000000000000000000000000000000000000081526004016108d4906137b6565b60405180910390fd5b60006007600181600181540180825580915050039060005260206000209060080201905060018160000160006101000a81548160ff0219169083151502179055506000816004018190555082816001019080519060200190610940929190612cdf565b508181600301819055506040518060800160405280600060ff168152602001600060ff168152602001600060ff168152602001600060ff168152508160050160008201518160000160006101000a81548160ff021916908360ff16021790555060208201518160000160016101000a81548160ff021916908360ff16021790555060408201518160000160026101000a81548160ff021916908360ff16021790555060608201518160000160036101000a81548160ff021916908360ff160217905550905050600460009054906101000a900473ffffffffffffffffffffffffffffffffffffffff168160060160006101000a81548173ffffffffffffffffffffffffffffffffffffffff021916908373ffffffffffffffffffffffffffffffffffffffff160217905550600460009054906101000a900473ffffffffffffffffffffffffffffffffffffffff1673ffffffffffffffffffffffffffffffffffffffff1663f01fc35a6040518163ffffffff1660e01b81526004016020604051808303816000875af1158015610ada573d6000803e3d6000fd5b505050506040513d601f19601f82011682018060405250810190610afe91906138c6565b816007018190555060005b82811015610c5157610b5c82600701546040518060400160405280600860ff168152602001600560ff16815250846001018481548110610b4c57610b4b613839565b5b9060005260206000200154612850565b60006006836001018381548110610b7657610b75613839565b5b906000526020600020015481548110610b9257610b91613839565b5b906000526020600020906008020160000160009054906101000a900473ffffffffffffffffffffffffffffffffffffffff169050600860008273ffffffffffffffffffffffffffffffffffffffff1673ffffffffffffffffffffffffffffffffffffffff1681526020019081526020016000206001600780549050610c179190613805565b9080600181540180825580915050600190039060005260206000200160009091909190915055508080610c4990613868565b915050610b09565b50505050565b610c5f61262c565b610c696000612a65565b565b60008060009054906101000a900473ffffffffffffffffffffffffffffffffffffffff16905090565b60086020528160005260406000208181548110610cb057600080fd5b90600052602060002001600091509150505481565b610ccd61262c565b84600160006101000a81548173ffffffffffffffffffffffffffffffffffffffff021916908373ffffffffffffffffffffffffffffffffffffffff16021790555083600260006101000a81548173ffffffffffffffffffffffffffffffffffffffff021916908373ffffffffffffffffffffffffffffffffffffffff16021790555082600360006101000a81548173ffffffffffffffffffffffffffffffffffffffff021916908373ffffffffffffffffffffffffffffffffffffffff16021790555081600460006101000a81548173ffffffffffffffffffffffffffffffffffffffff021916908373ffffffffffffffffffffffffffffffffffffffff16021790555080600560006101000a81548173ffffffffffffffffffffffffffffffffffffffff021916908373ffffffffffffffffffffffffffffffffffffffff1602179055505050505050565b600060068681548110610e2f57610e2e613839565b5b90600052602060002090600802019050600060078881548110610e5557610e54613839565b5b906000526020600020906008020190506000600260009054906101000a900473ffffffffffffffffffffffffffffffffffffffff1673ffffffffffffffffffffffffffffffffffffffff16634810bc5984600201546040518263ffffffff1660e01b8152600401610ec69190612e53565b61018060405180830381865afa158015610ee4573d6000803e3d6000fd5b505050506040513d601f19601f82011682018060405250810190610f089190613ab3565b90508260000160009054906101000a900473ffffffffffffffffffffffffffffffffffffffff1673ffffffffffffffffffffffffffffffffffffffff163373ffffffffffffffffffffffffffffffffffffffff1614610f9c576040517f08c379a0000000000000000000000000000000000000000000000000000000008152600401610f9390613b2d565b60405180910390fd5b60038360040160029054906101000a900460ff1660ff1610610ff3576040517f08c379a0000000000000000000000000000000000000000000000000000000008152600401610fea90613b99565b60405180910390fd5b8160010182600201548154811061100d5761100c613839565b5b90600052602060002001548814611059576040517f08c379a000000000000000000000000000000000000000000000000000000000815260040161105090613c05565b60405180910390fd5b6003600481111561106d5761106c613c25565b5b8760048111156110805761107f613c25565b5b141561108b57612256565b6002600481111561109f5761109e613c25565b5b8760048111156110b2576110b1613c25565b5b1415611845576000600460009054906101000a900473ffffffffffffffffffffffffffffffffffffffff1673ffffffffffffffffffffffffffffffffffffffff16636ea1dcd884600701548660030160000160009054906101000a900460ff168760030160000160019054906101000a900460ff168a6040518563ffffffff1660e01b81526004016111479493929190613c85565b606060405180830381865afa158015611164573d6000803e3d6000fd5b505050506040513d601f19601f820116820180604052508101906111889190613d53565b90506002600481111561119e5761119d613c25565b5b816040015160048111156111b5576111b4613c25565b5b14806111e95750600360048111156111d0576111cf613c25565b5b816040015160048111156111e7576111e6613c25565b5b145b806111fb57506000816020015160ff16145b61123a576040517f08c379a000000000000000000000000000000000000000000000000000000000815260040161123190613df2565b60405180910390fd5b6003600481111561124e5761124d613c25565b5b8160400151600481111561126557611264613c25565b5b1461132d57600460009054906101000a900473ffffffffffffffffffffffffffffffffffffffff1673ffffffffffffffffffffffffffffffffffffffff1663b6cdd3b484600701548660030160000160009054906101000a900460ff168760030160000160019054906101000a900460ff168a60026040518663ffffffff1660e01b81526004016112fa959493929190613e5a565b600060405180830381600087803b15801561131457600080fd5b505af1158015611328573d6000803e3d6000fd5b505050505b6000600360009054906101000a900473ffffffffffffffffffffffffffffffffffffffff1673ffffffffffffffffffffffffffffffffffffffff1663951fc3fe88876003016040518363ffffffff1660e01b815260040161138f929190613f48565b6040805180830381865afa1580156113ab573d6000803e3d6000fd5b505050506040513d601f19601f820116820180604052508101906113cf9190613fc1565b90506001808111156113e4576113e3613c25565b5b8860018111156113f7576113f6613c25565b5b141561182f576000600360009054906101000a900473ffffffffffffffffffffffffffffffffffffffff1673ffffffffffffffffffffffffffffffffffffffff1663951fc3fe89846040518363ffffffff1660e01b815260040161145c929190613fee565b6040805180830381865afa158015611478573d6000803e3d6000fd5b505050506040513d601f19601f8201168201806040525081019061149c9190613fc1565b90506000600460009054906101000a900473ffffffffffffffffffffffffffffffffffffffff1673ffffffffffffffffffffffffffffffffffffffff16636ea1dcd88760070154846000015185602001518c6040518563ffffffff1660e01b815260040161150d9493929190613c85565b606060405180830381865afa15801561152a573d6000803e3d6000fd5b505050506040513d601f19601f8201168201806040525081019061154e9190613d53565b90506002600481111561156457611563613c25565b5b8160400151600481111561157b5761157a613c25565b5b14806115af57506003600481111561159657611595613c25565b5b816040015160048111156115ad576115ac613c25565b5b145b806115c157506000816020015160ff16145b611600576040517f08c379a00000000000000000000000000000000000000000000000000000000081526004016115f790614089565b60405180910390fd5b8192506000600460009054906101000a900473ffffffffffffffffffffffffffffffffffffffff1673ffffffffffffffffffffffffffffffffffffffff16631ef0441688600701546040518263ffffffff1660e01b81526004016116649190612e53565b600060405180830381865afa158015611681573d6000803e3d6000fd5b505050506040513d6000823e3d601f19601f820116820180604052508101906116aa91906143ce565b9050600281856000015160ff16815181106116c8576116c7613839565b5b6020026020010151856020015160ff16815181106116e9576116e8613839565b5b60200260200101516000015160ff1611611738576040517f08c379a000000000000000000000000000000000000000000000000000000000815260040161172f90614463565b60405180910390fd5b6003600481111561174c5761174b613c25565b5b8260400151600481111561176357611762613c25565b5b1461182b57600460009054906101000a900473ffffffffffffffffffffffffffffffffffffffff1673ffffffffffffffffffffffffffffffffffffffff1663b6cdd3b488600701548a60030160000160009054906101000a900460ff168b60030160000160019054906101000a900460ff168d60026040518663ffffffff1660e01b81526004016117f8959493929190613e5a565b600060405180830381600087803b15801561181257600080fd5b505af1158015611826573d6000803e3d6000fd5b505050505b5050505b61183e8460070154828c612850565b5050612255565b6000600481111561185957611858613c25565b5b87600481111561186c5761186b613c25565b5b1415611b74576000600460009054906101000a900473ffffffffffffffffffffffffffffffffffffffff1673ffffffffffffffffffffffffffffffffffffffff16636ea1dcd884600701548660030160000160009054906101000a900460ff168760030160000160019054906101000a900460ff168a6040518563ffffffff1660e01b81526004016119019493929190613c85565b606060405180830381865afa15801561191e573d6000803e3d6000fd5b505050506040513d601f19601f820116820180604052508101906119429190613d53565b90506001600481111561195857611957613c25565b5b8160400151600481111561196f5761196e613c25565b5b146119af576040517f08c379a00000000000000000000000000000000000000000000000000000000081526004016119a6906144cf565b60405180910390fd5b6119cb82602001516060015160ff16826020015160ff16612b29565b15611b6e57600460009054906101000a900473ffffffffffffffffffffffffffffffffffffffff1673ffffffffffffffffffffffffffffffffffffffff1663b6cdd3b484600701548660030160000160009054906101000a900460ff168760030160000160019054906101000a900460ff168a60026040518663ffffffff1660e01b8152600401611a60959493929190613e5a565b600060405180830381600087803b158015611a7a57600080fd5b505af1158015611a8e573d6000803e3d6000fd5b50505050600180811115611aa557611aa4613c25565b5b876001811115611ab857611ab7613c25565b5b1415611b6d57611b6c8360070154600360009054906101000a900473ffffffffffffffffffffffffffffffffffffffff1673ffffffffffffffffffffffffffffffffffffffff1663951fc3fe89886003016040518363ffffffff1660e01b8152600401611b26929190613f48565b6040805180830381865afa158015611b42573d6000803e3d6000fd5b505050506040513d601f19601f82011682018060405250810190611b669190613fc1565b8b612850565b5b5b50612254565b60016004811115611b8857611b87613c25565b5b876004811115611b9b57611b9a613c25565b5b1415611ea3576000600460009054906101000a900473ffffffffffffffffffffffffffffffffffffffff1673ffffffffffffffffffffffffffffffffffffffff16636ea1dcd884600701548660030160000160009054906101000a900460ff168760030160000160019054906101000a900460ff168a6040518563ffffffff1660e01b8152600401611c309493929190613c85565b606060405180830381865afa158015611c4d573d6000803e3d6000fd5b505050506040513d601f19601f82011682018060405250810190611c719190613d53565b905060016004811115611c8757611c86613c25565b5b81604001516004811115611c9e57611c9d613c25565b5b14611cde576040517f08c379a0000000000000000000000000000000000000000000000000000000008152600401611cd5906144cf565b60405180910390fd5b611cfa82602001516080015160ff16826000015160ff16612b29565b15611e9d57600460009054906101000a900473ffffffffffffffffffffffffffffffffffffffff1673ffffffffffffffffffffffffffffffffffffffff1663b6cdd3b484600701548660030160000160009054906101000a900460ff168760030160000160019054906101000a900460ff168a60036040518663ffffffff1660e01b8152600401611d8f959493929190613e5a565b600060405180830381600087803b158015611da957600080fd5b505af1158015611dbd573d6000803e3d6000fd5b50505050600180811115611dd457611dd3613c25565b5b876001811115611de757611de6613c25565b5b1415611e9c57611e9b8360070154600360009054906101000a900473ffffffffffffffffffffffffffffffffffffffff1673ffffffffffffffffffffffffffffffffffffffff1663951fc3fe89886003016040518363ffffffff1660e01b8152600401611e55929190613f48565b6040805180830381865afa158015611e71573d6000803e3d6000fd5b505050506040513d601f19601f82011682018060405250810190611e959190613fc1565b8b612850565b5b5b50612253565b600480811115611eb657611eb5613c25565b5b876004811115611ec957611ec8613c25565b5b1415612217576000600460009054906101000a900473ffffffffffffffffffffffffffffffffffffffff1673ffffffffffffffffffffffffffffffffffffffff1663f9dfbfcb84600701548660030160000160009054906101000a900460ff168760030160000160019054906101000a900460ff166040518463ffffffff1660e01b8152600401611f5c939291906144ef565b61012060405180830381865afa158015611f7a573d6000803e3d6000fd5b505050506040513d601f19601f82011682018060405250810190611f9e9190614526565b9050600015158160800151151514611feb576040517f08c379a0000000000000000000000000000000000000000000000000000000008152600401611fe2906145a0565b60405180910390fd5b6000600460009054906101000a900473ffffffffffffffffffffffffffffffffffffffff1673ffffffffffffffffffffffffffffffffffffffff166302861c6c85600701548760030160000160009054906101000a900460ff168860030160000160019054906101000a900460ff166040518463ffffffff1660e01b8152600401612078939291906144ef565b60c060405180830381865afa158015612095573d6000803e3d6000fd5b505050506040513d601f19601f820116820180604052508101906120b99190614685565b90506000816060015160ff1611806120d857506000816040015160ff16115b612117576040517f08c379a000000000000000000000000000000000000000000000000000000000815260040161210e906146fe565b60405180910390fd5b600460009054906101000a900473ffffffffffffffffffffffffffffffffffffffff1673ffffffffffffffffffffffffffffffffffffffff166386e529d085600701548760030160000160009054906101000a900460ff168860030160000160019054906101000a900460ff166040518463ffffffff1660e01b81526004016121a2939291906144ef565b600060405180830381600087803b1580156121bc57600080fd5b505af11580156121d0573d6000803e3d6000fd5b5050505080606001518560040160038282829054906101000a900460ff166121f8919061471e565b92506101000a81548160ff021916908360ff1602179055505050612252565b6040517f08c379a0000000000000000000000000000000000000000000000000000000008152600401612249906147a1565b60405180910390fd5b5b5b5b5b82600401600281819054906101000a900460ff1680929190612277906147c1565b91906101000a81548160ff021916908360ff1602179055505060038360040160029054906101000a900460ff1660ff161015806122c257508260070160019054906101000a900460ff165b15612402578260070160019054906101000a900460ff161561238d5760008360070160016101000a81548160ff021916908315150217905550600260009054906101000a900473ffffffffffffffffffffffffffffffffffffffff1673ffffffffffffffffffffffffffffffffffffffff16636d6ba75684600201546040518263ffffffff1660e01b815260040161235a9190612e53565b600060405180830381600087803b15801561237457600080fd5b505af1158015612388573d6000803e3d6000fd5b505050505b60008360040160026101000a81548160ff021916908360ff160217905550600182600101805490506123bf9190613805565b826002015410156123e9578160020160008154809291906123df90613868565b9190505550612401565b6123f68260070154612c47565b600082600201819055505b5b7f81f0468752500ded70032fadd8011a832ccdbaddfc2cae78738f1a5f78e5f4908260020154848960405161243993929190615787565b60405180910390a1505050505050505050565b61245461262c565b600073ffffffffffffffffffffffffffffffffffffffff168173ffffffffffffffffffffffffffffffffffffffff1614156124c4576040517f08c379a00000000000000000000000000000000000000000000000000000000081526004016124bb90615837565b60405180910390fd5b6124cd81612a65565b50565b600160009054906101000a900473ffffffffffffffffffffffffffffffffffffffff1681565b6006818154811061250657600080fd5b90600052602060002090600802016000915090508060000160009054906101000a900473ffffffffffffffffffffffffffffffffffffffff16908060010160009054906101000a900473ffffffffffffffffffffffffffffffffffffffff1690806002015490806003016040518060400160405290816000820160009054906101000a900460ff1660ff1660ff1681526020016000820160019054906101000a900460ff1660ff1660ff1681525050908060040160009054906101000a900460ff16908060040160019054906101000a900460ff16908060040160029054906101000a900460ff16908060040160039054906101000a900460ff16908060070160009054906101000a900460ff16908060070160019054906101000a900460ff1690508a565b612634612cd7565b73ffffffffffffffffffffffffffffffffffffffff16612652610c6b565b73ffffffffffffffffffffffffffffffffffffffff16146126a8576040517f08c379a000000000000000000000000000000000000000000000000000000000815260040161269f906158a3565b60405180910390fd5b565b6000600682815481106126c0576126bf613839565b5b906000526020600020906008020190506000600260009054906101000a900473ffffffffffffffffffffffffffffffffffffffff1673ffffffffffffffffffffffffffffffffffffffff16634810bc5983600201546040518263ffffffff1660e01b81526004016127319190612e53565b61018060405180830381865afa15801561274f573d6000803e3d6000fd5b505050506040513d601f19601f820116820180604052508101906127739190613ab3565b9050806060015160ff16816040015160ff16111561279057600080fd5b8160010160009054906101000a900473ffffffffffffffffffffffffffffffffffffffff1673ffffffffffffffffffffffffffffffffffffffff166342842e0e308460000160009054906101000a900473ffffffffffffffffffffffffffffffffffffffff1685600201546040518463ffffffff1660e01b8152600401612819939291906158c3565b600060405180830381600087803b15801561283357600080fd5b505af1158015612847573d6000803e3d6000fd5b50505050505050565b816006828154811061286557612864613839565b5b906000526020600020906008020160030160008201518160000160006101000a81548160ff021916908360ff16021790555060208201518160000160016101000a81548160ff021916908360ff160217905550905050600060ff16600460009054906101000a900473ffffffffffffffffffffffffffffffffffffffff1673ffffffffffffffffffffffffffffffffffffffff1663f9dfbfcb85856000015186602001516040518463ffffffff1660e01b8152600401612927939291906144ef565b61012060405180830381865afa158015612945573d6000803e3d6000fd5b505050506040513d601f19601f820116820180604052508101906129699190614526565b6000015160ff1614156129b55760016006828154811061298c5761298b613839565b5b906000526020600020906008020160070160016101000a81548160ff0219169083151502179055505b600460009054906101000a900473ffffffffffffffffffffffffffffffffffffffff1673ffffffffffffffffffffffffffffffffffffffff1663471b675984846000015185602001516040518463ffffffff1660e01b8152600401612a1c939291906144ef565b6020604051808303816000875af1158015612a3b573d6000803e3d6000fd5b505050506040513d601f19601f82011682018060405250810190612a5f91906158fa565b50505050565b60008060009054906101000a900473ffffffffffffffffffffffffffffffffffffffff169050816000806101000a81548173ffffffffffffffffffffffffffffffffffffffff021916908373ffffffffffffffffffffffffffffffffffffffff1602179055508173ffffffffffffffffffffffffffffffffffffffff168173ffffffffffffffffffffffffffffffffffffffff167f8be0079c531659141344cd1fd0a4f28419497f9722a3daafe3b4186f6b6457e060405160405180910390a35050565b600080600360009054906101000a900473ffffffffffffffffffffffffffffffffffffffff1673ffffffffffffffffffffffffffffffffffffffff1663cd5e3c5d6040518163ffffffff1660e01b81526004016020604051808303816000875af1158015612b9b573d6000803e3d6000fd5b505050506040513d601f19601f82011682018060405250810190612bbf9190615927565b60ff1690507f2729adc6efc811c2141edf691ce91423fbcd06f2d8fe8be0a13b24e47d1050c4818585604051612bf793929190615954565b60405180910390a16001811415612c12576000915050612c41565b6003838583612c21919061598b565b612c2b91906159eb565b1315612c3b576001915050612c41565b60009150505b92915050565b600460009054906101000a900473ffffffffffffffffffffffffffffffffffffffff1673ffffffffffffffffffffffffffffffffffffffff166358308aa8826040518263ffffffff1660e01b8152600401612ca29190612e53565b600060405180830381600087803b158015612cbc57600080fd5b505af1158015612cd0573d6000803e3d6000fd5b5050505050565b600033905090565b828054828255906000526020600020908101928215612d1b579160200282015b82811115612d1a578251825591602001919060010190612cff565b5b509050612d289190612d2c565b5090565b5b80821115612d45576000816000905550600101612d2d565b5090565b6000604051905090565b600080fd5b600080fd5b600073ffffffffffffffffffffffffffffffffffffffff82169050919050565b6000612d8882612d5d565b9050919050565b612d9881612d7d565b8114612da357600080fd5b50565b600081359050612db581612d8f565b92915050565b6000819050919050565b612dce81612dbb565b8114612dd957600080fd5b50565b600081359050612deb81612dc5565b92915050565b600080600060608486031215612e0a57612e09612d53565b5b6000612e1886828701612da6565b9350506020612e2986828701612ddc565b9250506040612e3a86828701612da6565b9150509250925092565b612e4d81612dbb565b82525050565b6000602082019050612e686000830184612e44565b92915050565b6000819050919050565b6000612e93612e8e612e8984612d5d565b612e6e565b612d5d565b9050919050565b6000612ea582612e78565b9050919050565b6000612eb782612e9a565b9050919050565b612ec781612eac565b82525050565b6000602082019050612ee26000830184612ebe565b92915050565b600060208284031215612efe57612efd612d53565b5b6000612f0c84828501612ddc565b91505092915050565b60008115159050919050565b612f2a81612f15565b82525050565b600060ff82169050919050565b612f4681612f30565b82525050565b608082016000820151612f626000850182612f3d565b506020820151612f756020850182612f3d565b506040820151612f886040850182612f3d565b506060820151612f9b6060850182612f3d565b50505050565b612faa81612d7d565b82525050565b600061014082019050612fc6600083018a612f21565b612fd36020830189612e44565b612fe06040830188612e44565b612fed6060830187612e44565b612ffa6080830186612f4c565b613008610100830185612fa1565b613016610120830184612e44565b98975050505050505050565b600080fd5b600080fd5b600080fd5b60008083601f84011261304757613046613022565b5b8235905067ffffffffffffffff81111561306457613063613027565b5b6020830191508360018202830111156130805761307f61302c565b5b9250929050565b6000806000806000608086880312156130a3576130a2612d53565b5b60006130b188828901612da6565b95505060206130c288828901612da6565b94505060406130d388828901612ddc565b935050606086013567ffffffffffffffff8111156130f4576130f3612d58565b5b61310088828901613031565b92509250509295509295909350565b60007fffffffff0000000000000000000000000000000000000000000000000000000082169050919050565b6131448161310f565b82525050565b600060208201905061315f600083018461313b565b92915050565b600060208201905061317a6000830184612fa1565b92915050565b600061318b82612e9a565b9050919050565b61319b81613180565b82525050565b60006020820190506131b66000830184613192565b92915050565b600081519050919050565b600082825260208201905092915050565b6000819050602082019050919050565b6131f181612dbb565b82525050565b600061320383836131e8565b60208301905092915050565b6000602082019050919050565b6000613227826131bc565b61323181856131c7565b935061323c836131d8565b8060005b8381101561326d57815161325488826131f7565b975061325f8361320f565b925050600181019050613240565b5085935050505092915050565b60006020820190508181036000830152613294818461321c565b905092915050565b60006132a782612e9a565b9050919050565b6132b78161329c565b82525050565b60006020820190506132d260008301846132ae565b92915050565b6000601f19601f8301169050919050565b7f4e487b7100000000000000000000000000000000000000000000000000000000600052604160045260246000fd5b613321826132d8565b810181811067ffffffffffffffff821117156133405761333f6132e9565b5b80604052505050565b6000613353612d49565b905061335f8282613318565b919050565b600067ffffffffffffffff82111561337f5761337e6132e9565b5b602082029050602081019050919050565b60006133a361339e84613364565b613349565b905080838252602082019050602084028301858111156133c6576133c561302c565b5b835b818110156133ef57806133db8882612ddc565b8452602084019350506020810190506133c8565b5050509392505050565b600082601f83011261340e5761340d613022565b5b813561341e848260208601613390565b91505092915050565b6000806040838503121561343e5761343d612d53565b5b600083013567ffffffffffffffff81111561345c5761345b612d58565b5b613468858286016133f9565b925050602061347985828601612ddc565b9150509250929050565b6000806040838503121561349a57613499612d53565b5b60006134a885828601612da6565b92505060206134b985828601612ddc565b9150509250929050565b600080600080600060a086880312156134df576134de612d53565b5b60006134ed88828901612da6565b95505060206134fe88828901612da6565b945050604061350f88828901612da6565b935050606061352088828901612da6565b925050608061353188828901612da6565b9150509295509295909350565b6005811061354b57600080fd5b50565b60008135905061355d8161353e565b92915050565b6002811061357057600080fd5b50565b60008135905061358281613563565b92915050565b60008060008060008060c087890312156135a5576135a4612d53565b5b60006135b389828a01612ddc565b96505060206135c489828a01612ddc565b95505060406135d589828a0161354e565b94505060606135e689828a01613573565b93505060806135f789828a01612ddc565b92505060a061360889828a01612ddc565b9150509295509295509295565b60006020828403121561362b5761362a612d53565b5b600061363984828501612da6565b91505092915050565b600061364d82612e9a565b9050919050565b61365d81613642565b82525050565b60006020820190506136786000830184613654565b92915050565b6040820160008201516136946000850182612f3d565b5060208201516136a76020850182612f3d565b50505050565b6136b681612f30565b82525050565b6000610160820190506136d2600083018d612fa1565b6136df602083018c612fa1565b6136ec604083018b612e44565b6136f9606083018a61367e565b61370660a08301896136ad565b61371360c08301886136ad565b61372060e08301876136ad565b61372e6101008301866136ad565b61373c610120830185612f21565b61374a610140830184612f21565b9b9a5050505050505050505050565b600082825260208201905092915050565b7f4e6f74206c6f62627920636f6e74726163740000000000000000000000000000600082015250565b60006137a0601283613759565b91506137ab8261376a565b602082019050919050565b600060208201905081810360008301526137cf81613793565b9050919050565b7f4e487b7100000000000000000000000000000000000000000000000000000000600052601160045260246000fd5b600061381082612dbb565b915061381b83612dbb565b92508282101561382e5761382d6137d6565b5b828203905092915050565b7f4e487b7100000000000000000000000000000000000000000000000000000000600052603260045260246000fd5b600061387382612dbb565b91507fffffffffffffffffffffffffffffffffffffffffffffffffffffffffffffffff8214156138a6576138a56137d6565b5b600182019050919050565b6000815190506138c081612dc5565b92915050565b6000602082840312156138dc576138db612d53565b5b60006138ea848285016138b1565b91505092915050565b600080fd5b6000819050919050565b61390b816138f8565b811461391657600080fd5b50565b60008151905061392881613902565b92915050565b61393781612f30565b811461394257600080fd5b50565b6000815190506139548161392e565b92915050565b600060e082840312156139705761396f6138f3565b5b61397a60e0613349565b9050600061398a84828501613945565b600083015250602061399e84828501613945565b60208301525060406139b284828501613945565b60408301525060606139c684828501613945565b60608301525060806139da84828501613945565b60808301525060a06139ee84828501613945565b60a08301525060c0613a0284828501613945565b60c08301525092915050565b60006101808284031215613a2557613a246138f3565b5b613a2f60c0613349565b90506000613a3f84828501613919565b6000830152506020613a538482850161395a565b602083015250610100613a6884828501613945565b604083015250610120613a7d84828501613945565b606083015250610140613a9284828501613945565b608083015250610160613aa784828501613945565b60a08301525092915050565b60006101808284031215613aca57613ac9612d53565b5b6000613ad884828501613a0e565b91505092915050565b7f53656e646572206e6f7420706c61796572206f776e6572000000000000000000600082015250565b6000613b17601783613759565b9150613b2282613ae1565b602082019050919050565b60006020820190508181036000830152613b4681613b0a565b9050919050565b7f4e6f20616374696f6e73206c6566740000000000000000000000000000000000600082015250565b6000613b83600f83613759565b9150613b8e82613b4d565b602082019050919050565b60006020820190508181036000830152613bb281613b76565b9050919050565b7f4e6f7420796f7572207475726e00000000000000000000000000000000000000600082015250565b6000613bef600d83613759565b9150613bfa82613bb9565b602082019050919050565b60006020820190508181036000830152613c1e81613be2565b9050919050565b7f4e487b7100000000000000000000000000000000000000000000000000000000600052602160045260246000fd5b6000613c6f613c6a613c6584612f30565b612e6e565b612dbb565b9050919050565b613c7f81613c54565b82525050565b6000608082019050613c9a6000830187612e44565b613ca76020830186613c76565b613cb46040830185613c76565b613cc16060830184612e44565b95945050505050565b60058110613cd757600080fd5b50565b600081519050613ce981613cca565b92915050565b600060608284031215613d0557613d046138f3565b5b613d0f6060613349565b90506000613d1f84828501613945565b6000830152506020613d3384828501613945565b6020830152506040613d4784828501613cda565b60408301525092915050565b600060608284031215613d6957613d68612d53565b5b6000613d7784828501613cef565b91505092915050565b7f31737420446f6f72206e6f74206f70656e2f62726561636865642f756e6c6f6360008201527f6b65640000000000000000000000000000000000000000000000000000000000602082015250565b6000613ddc602383613759565b9150613de782613d80565b604082019050919050565b60006020820190508181036000830152613e0b81613dcf565b9050919050565b60058110613e2357613e22613c25565b5b50565b6000819050613e3482613e12565b919050565b6000613e4482613e26565b9050919050565b613e5481613e39565b82525050565b600060a082019050613e6f6000830188612e44565b613e7c6020830187613c76565b613e896040830186613c76565b613e966060830185612e44565b613ea36080830184613e4b565b9695505050505050565b60008160001c9050919050565b600060ff82169050919050565b6000613eda613ed583613ead565b613eba565b9050919050565b60008160081c9050919050565b6000613f01613efc83613ee1565b613eba565b9050919050565b604082016000808301549050613f1d81613ec7565b613f2a6000860182612f3d565b50613f3481613eee565b613f416020860182612f3d565b5050505050565b6000606082019050613f5d6000830185612e44565b613f6a6020830184613f08565b9392505050565b600060408284031215613f8757613f866138f3565b5b613f916040613349565b90506000613fa184828501613945565b6000830152506020613fb584828501613945565b60208301525092915050565b600060408284031215613fd757613fd6612d53565b5b6000613fe584828501613f71565b91505092915050565b60006060820190506140036000830185612e44565b614010602083018461367e565b9392505050565b7f326e6420446f6f72206e6f74206f70656e2f62726561636865642f756e6c6f6360008201527f6b65640000000000000000000000000000000000000000000000000000000000602082015250565b6000614073602383613759565b915061407e82614017565b604082019050919050565b600060208201905081810360008301526140a281614066565b9050919050565b600067ffffffffffffffff8211156140c4576140c36132e9565b5b602082029050602081019050919050565b600067ffffffffffffffff8211156140f0576140ef6132e9565b5b602082029050602081019050919050565b600067ffffffffffffffff82111561411c5761411b6132e9565b5b602082029050919050565b600061413a61413584614101565b613349565b905080602084028301858111156141545761415361302c565b5b835b8181101561417d578061416988826138b1565b845260208401935050602081019050614156565b5050509392505050565b600082601f83011261419c5761419b613022565b5b60046141a9848285614127565b91505092915050565b6141bb81612f15565b81146141c657600080fd5b50565b6000815190506141d8816141b2565b92915050565b600061012082840312156141f5576141f46138f3565b5b6141ff60c0613349565b9050600061420f84828501613945565b600083015250602061422384828501613945565b602083015250604061423784828501614187565b60408301525060c061424b848285016141c9565b60608301525060e061425f848285016141c9565b608083015250610100614274848285016141c9565b60a08301525092915050565b600061429361428e846140d5565b613349565b90508083825260208201905061012084028301858111156142b7576142b661302c565b5b835b818110156142e157806142cc88826141de565b845260208401935050610120810190506142b9565b5050509392505050565b600082601f830112614300576142ff613022565b5b8151614310848260208601614280565b91505092915050565b600061432c614327846140a9565b613349565b9050808382526020820190506020840283018581111561434f5761434e61302c565b5b835b8181101561439657805167ffffffffffffffff81111561437457614373613022565b5b80860161438189826142eb565b85526020850194505050602081019050614351565b5050509392505050565b600082601f8301126143b5576143b4613022565b5b81516143c5848260208601614319565b91505092915050565b6000602082840312156143e4576143e3612d53565b5b600082015167ffffffffffffffff81111561440257614401612d58565b5b61440e848285016143a0565b91505092915050565b7f526f6f6d206e6f74206578706c6f726564000000000000000000000000000000600082015250565b600061444d601183613759565b915061445882614417565b602082019050919050565b6000602082019050818103600083015261447c81614440565b9050919050565b7f446f6f72206e6f7420636c6f7365640000000000000000000000000000000000600082015250565b60006144b9600f83613759565b91506144c482614483565b602082019050919050565b600060208201905081810360008301526144e8816144ac565b9050919050565b60006060820190506145046000830186612e44565b6145116020830185613c76565b61451e6040830184613c76565b949350505050565b6000610120828403121561453d5761453c612d53565b5b600061454b848285016141de565b91505092915050565b7f526f6f6d20616c7265616479206c6f6f74656400000000000000000000000000600082015250565b600061458a601383613759565b915061459582614554565b602082019050919050565b600060208201905081810360008301526145b98161457d565b9050919050565b600581106145cd57600080fd5b50565b6000815190506145df816145c0565b92915050565b600060c082840312156145fb576145fa6138f3565b5b61460560c0613349565b90506000614615848285016145d0565b6000830152506020614629848285016138b1565b602083015250604061463d84828501613945565b604083015250606061465184828501613945565b6060830152506080614665848285016141c9565b60808301525060a0614679848285016141c9565b60a08301525092915050565b600060c0828403121561469b5761469a612d53565b5b60006146a9848285016145e5565b91505092915050565b7f43616e2774206c6f6f7420656d70747920726f6f6d0000000000000000000000600082015250565b60006146e8601583613759565b91506146f3826146b2565b602082019050919050565b60006020820190508181036000830152614717816146db565b9050919050565b600061472982612f30565b915061473483612f30565b92508260ff0382111561474a576147496137d6565b5b828201905092915050565b7f4552524f523a2042616420616374696f6e20636f6e6669670000000000000000600082015250565b600061478b601883613759565b915061479682614755565b602082019050919050565b600060208201905081810360008301526147ba8161477e565b9050919050565b60006147cc82612f30565b915060ff8214156147e0576147df6137d6565b5b600182019050919050565b600073ffffffffffffffffffffffffffffffffffffffff82169050919050565b600061481e61481983613ead565b6147eb565b9050919050565b61482e81612d7d565b82525050565b6000819050919050565b600061485161484c83613ead565b614834565b9050919050565b60408201600080830154905061486d81613ec7565b61487a6000860182612f3d565b5061488481613eee565b6148916020860182612f3d565b5050505050565b60008160101c9050919050565b60006148b86148b383614898565b613eba565b9050919050565b60008160181c9050919050565b60006148df6148da836148bf565b613eba565b9050919050565b600081549050919050565b600082825260208201905092915050565b60008190508160005260206000209050919050565b60008160201c9050919050565b600061493761493283614917565b613eba565b9050919050565b60008160281c9050919050565b600061495e6149598361493e565b613eba565b9050919050565b60008160301c9050919050565b600061498561498083614965565b613eba565b9050919050565b60008160381c9050919050565b60006149ac6149a78361498c565b613eba565b9050919050565b60008160401c9050919050565b60006149d36149ce836149b3565b613eba565b9050919050565b60008160481c9050919050565b60006149fa6149f5836149da565b613eba565b9050919050565b60008160501c9050919050565b6000614a21614a1c83614a01565b613eba565b9050919050565b60008160581c9050919050565b6000614a48614a4383614a28565b613eba565b9050919050565b60008160601c9050919050565b6000614a6f614a6a83614a4f565b613eba565b9050919050565b60008160681c9050919050565b6000614a96614a9183614a76565b613eba565b9050919050565b60008160701c9050919050565b6000614abd614ab883614a9d565b613eba565b9050919050565b60008160781c9050919050565b6000614ae4614adf83614ac4565b613eba565b9050919050565b60008160801c9050919050565b6000614b0b614b0683614aeb565b613eba565b9050919050565b60008160881c9050919050565b6000614b32614b2d83614b12565b613eba565b9050919050565b60008160901c9050919050565b6000614b59614b5483614b39565b613eba565b9050919050565b60008160981c9050919050565b6000614b80614b7b83614b60565b613eba565b9050919050565b60008160a01c9050919050565b6000614ba7614ba283614b87565b613eba565b9050919050565b60008160a81c9050919050565b6000614bce614bc983614bae565b613eba565b9050919050565b60008160b01c9050919050565b6000614bf5614bf083614bd5565b613eba565b9050919050565b60008160b81c9050919050565b6000614c1c614c1783614bfc565b613eba565b9050919050565b60008160c01c9050919050565b6000614c43614c3e83614c23565b613eba565b9050919050565b60008160c81c9050919050565b6000614c6a614c6583614c4a565b613eba565b9050919050565b60008160d01c9050919050565b6000614c91614c8c83614c71565b613eba565b9050919050565b60008160d81c9050919050565b6000614cb8614cb383614c98565b613eba565b9050919050565b60008160e01c9050919050565b6000614cdf614cda83614cbf565b613eba565b9050919050565b60008160e81c9050919050565b6000614d06614d0183614ce6565b613eba565b9050919050565b60008160f01c9050919050565b6000614d2d614d2883614d0d565b613eba565b9050919050565b60008160f81c9050919050565b6000614d54614d4f83614d34565b613eba565b9050919050565b6000614d66826148e6565b614d7081856148f1565b935083614d7c84614902565b60006001156150a9575b836001602003820110156150a8578154614da888614da383613ec7565b612f3d565b602088019750614dc088614dbb83613eee565b612f3d565b602088019750614dd888614dd3836148a5565b612f3d565b602088019750614df088614deb836148cc565b612f3d565b602088019750614e0888614e0383614924565b612f3d565b602088019750614e2088614e1b8361494b565b612f3d565b602088019750614e3888614e3383614972565b612f3d565b602088019750614e5088614e4b83614999565b612f3d565b602088019750614e6888614e63836149c0565b612f3d565b602088019750614e8088614e7b836149e7565b612f3d565b602088019750614e9888614e9383614a0e565b612f3d565b602088019750614eb088614eab83614a35565b612f3d565b602088019750614ec888614ec383614a5c565b612f3d565b602088019750614ee088614edb83614a83565b612f3d565b602088019750614ef888614ef383614aaa565b612f3d565b602088019750614f1088614f0b83614ad1565b612f3d565b602088019750614f2888614f2383614af8565b612f3d565b602088019750614f4088614f3b83614b1f565b612f3d565b602088019750614f5888614f5383614b46565b612f3d565b602088019750614f7088614f6b83614b6d565b612f3d565b602088019750614f8888614f8383614b94565b612f3d565b602088019750614fa088614f9b83614bbb565b612f3d565b602088019750614fb888614fb383614be2565b612f3d565b602088019750614fd088614fcb83614c09565b612f3d565b602088019750614fe888614fe383614c30565b612f3d565b60208801975061500088614ffb83614c57565b612f3d565b6020880197506150188861501383614c7e565b612f3d565b6020880197506150308861502b83614ca5565b612f3d565b6020880197506150488861504383614ccc565b612f3d565b6020880197506150608861505b83614cf3565b612f3d565b6020880197506150788861507383614d1a565b612f3d565b6020880197506150908861508b83614d41565b612f3d565b60208801975060018301925050602081019050614d86565b5b600115615594578154848210156150d9576150cc886150c783613ec7565b612f3d565b6020880197506001820191505b84821015615100576150f3886150ee83613eee565b612f3d565b6020880197506001820191505b848210156151275761511a88615115836148a5565b612f3d565b6020880197506001820191505b8482101561514e576151418861513c836148cc565b612f3d565b6020880197506001820191505b84821015615175576151688861516383614924565b612f3d565b6020880197506001820191505b8482101561519c5761518f8861518a8361494b565b612f3d565b6020880197506001820191505b848210156151c3576151b6886151b183614972565b612f3d565b6020880197506001820191505b848210156151ea576151dd886151d883614999565b612f3d565b6020880197506001820191505b8482101561521157615204886151ff836149c0565b612f3d565b6020880197506001820191505b848210156152385761522b88615226836149e7565b612f3d565b6020880197506001820191505b8482101561525f576152528861524d83614a0e565b612f3d565b6020880197506001820191505b84821015615286576152798861527483614a35565b612f3d565b6020880197506001820191505b848210156152ad576152a08861529b83614a5c565b612f3d565b6020880197506001820191505b848210156152d4576152c7886152c283614a83565b612f3d565b6020880197506001820191505b848210156152fb576152ee886152e983614aaa565b612f3d565b6020880197506001820191505b84821015615322576153158861531083614ad1565b612f3d565b6020880197506001820191505b848210156153495761533c8861533783614af8565b612f3d565b6020880197506001820191505b84821015615370576153638861535e83614b1f565b612f3d565b6020880197506001820191505b848210156153975761538a8861538583614b46565b612f3d565b6020880197506001820191505b848210156153be576153b1886153ac83614b6d565b612f3d565b6020880197506001820191505b848210156153e5576153d8886153d383614b94565b612f3d565b6020880197506001820191505b8482101561540c576153ff886153fa83614bbb565b612f3d565b6020880197506001820191505b84821015615433576154268861542183614be2565b612f3d565b6020880197506001820191505b8482101561545a5761544d8861544883614c09565b612f3d565b6020880197506001820191505b84821015615481576154748861546f83614c30565b612f3d565b6020880197506001820191505b848210156154a85761549b8861549683614c57565b612f3d565b6020880197506001820191505b848210156154cf576154c2886154bd83614c7e565b612f3d565b6020880197506001820191505b848210156154f6576154e9886154e483614ca5565b612f3d565b6020880197506001820191505b8482101561551d576155108861550b83614ccc565b612f3d565b6020880197506001820191505b84821015615544576155378861553283614cf3565b612f3d565b6020880197506001820191505b8482101561556b5761555e8861555983614d1a565b612f3d565b6020880197506001820191505b84821015615592576155858861558083614d41565b612f3d565b6020880197506001820191505b505b8694505050505092915050565b600060ff82169050919050565b60006155c16155bc83613ead565b6155a1565b9050919050565b6155d181612f15565b82525050565b60006155ea6155e583613ee1565b6155a1565b9050919050565b60006101a0830160008084015490506156098161480b565b6156166000870182614825565b50600184015490506156278161480b565b6156346020870182614825565b50600284015490506156458161483e565b61565260408701826131e8565b50600384016156646060870182614858565b506004840154905061567581613ec7565b61568260a0870182612f3d565b5061568c81613eee565b61569960c0870182612f3d565b506156a3816148a5565b6156b060e0870182612f3d565b506156ba816148cc565b6156c8610100870182612f3d565b50600584018583036101208701526156e08382614d5b565b925050600684018583036101408701526156fa8382614d5b565b9250506007840154905061570d816155ae565b61571b6101608701826155c8565b50615725816155d7565b6157336101808701826155c8565b50819250505092915050565b600581106157505761574f613c25565b5b50565b60008190506157618261573f565b919050565b600061577182615753565b9050919050565b61578181615766565b82525050565b600060608201905061579c6000830186612e44565b81810360208301526157ae81856155f1565b90506157bd6040830184615778565b949350505050565b7f4f776e61626c653a206e6577206f776e657220697320746865207a65726f206160008201527f6464726573730000000000000000000000000000000000000000000000000000602082015250565b6000615821602683613759565b915061582c826157c5565b604082019050919050565b6000602082019050818103600083015261585081615814565b9050919050565b7f4f776e61626c653a2063616c6c6572206973206e6f7420746865206f776e6572600082015250565b600061588d602083613759565b915061589882615857565b602082019050919050565b600060208201905081810360008301526158bc81615880565b9050919050565b60006060820190506158d86000830186612fa1565b6158e56020830185612fa1565b6158f26040830184612e44565b949350505050565b6000602082840312156159105761590f612d53565b5b600061591e848285016141c9565b91505092915050565b60006020828403121561593d5761593c612d53565b5b600061594b84828501613945565b91505092915050565b60006060820190506159696000830186612e44565b6159766020830185612e44565b6159836040830184612e44565b949350505050565b600061599682612dbb565b91506159a183612dbb565b9250827fffffffffffffffffffffffffffffffffffffffffffffffffffffffffffffffff038211156159d6576159d56137d6565b5b828201905092915050565b6000819050919050565b60006159f6826159e1565b9150615a01836159e1565b9250827f800000000000000000000000000000000000000000000000000000000000000001821260008412151615615a3c57615a3b6137d6565b5b827f7fffffffffffffffffffffffffffffffffffffffffffffffffffffffffffffff018213600084121615615a7457615a736137d6565b5b82820390509291505056fea2646970667358221220c830049764ff49bc69fb5067660ba1375cae79b8c9d54b330bcc12c439296ce464736f6c634300080c0033",
  "devdoc": {
    "kind": "dev",
    "methods": {
      "owner()": {
        "details": "Returns the address of the current owner."
      },
      "renounceOwnership()": {
        "details": "Leaves the contract without owner. It will not be possible to call `onlyOwner` functions anymore. Can only be called by the current owner. NOTE: Renouncing ownership will leave the contract without an owner, thereby removing any functionality that is only available to the owner."
      },
      "transferOwnership(address)": {
        "details": "Transfers ownership of the contract to a new account (`newOwner`). Can only be called by the current owner."
      }
    },
    "version": 1
  },
  "userdoc": {
    "kind": "user",
    "methods": {},
    "version": 1
  },
  "storageLayout": {
    "storage": [
      {
        "astId": 7,
        "contract": "contracts/BCGames.sol:BCGames",
        "label": "_owner",
        "offset": 0,
        "slot": "0",
        "type": "t_address"
      },
      {
        "astId": 459,
        "contract": "contracts/BCGames.sol:BCGames",
        "label": "roomTiles",
        "offset": 0,
        "slot": "1",
        "type": "t_contract(RoomTileInterface)301"
      },
      {
        "astId": 462,
        "contract": "contracts/BCGames.sol:BCGames",
        "label": "chars",
        "offset": 0,
        "slot": "2",
        "type": "t_contract(CharInterface)315"
      },
      {
        "astId": 465,
        "contract": "contracts/BCGames.sol:BCGames",
        "label": "utils",
        "offset": 0,
        "slot": "3",
        "type": "t_contract(UtilsInterface)359"
      },
      {
        "astId": 468,
        "contract": "contracts/BCGames.sol:BCGames",
        "label": "maps",
        "offset": 0,
        "slot": "4",
        "type": "t_contract(MapInterface)452"
      },
      {
        "astId": 470,
        "contract": "contracts/BCGames.sol:BCGames",
        "label": "lobbiesAddress",
        "offset": 0,
        "slot": "5",
        "type": "t_address"
      },
      {
        "astId": 553,
        "contract": "contracts/BCGames.sol:BCGames",
        "label": "players",
        "offset": 0,
        "slot": "6",
        "type": "t_array(t_struct(Player)3270_storage)dyn_storage"
      },
      {
        "astId": 557,
        "contract": "contracts/BCGames.sol:BCGames",
        "label": "games",
        "offset": 0,
        "slot": "7",
        "type": "t_array(t_struct(Game)3365_storage)dyn_storage"
      },
      {
        "astId": 562,
        "contract": "contracts/BCGames.sol:BCGames",
        "label": "addressToGame",
        "offset": 0,
        "slot": "8",
        "type": "t_mapping(t_address,t_array(t_uint256)dyn_storage)"
      }
    ],
    "types": {
      "t_address": {
        "encoding": "inplace",
        "label": "address",
        "numberOfBytes": "20"
      },
      "t_array(t_struct(Game)3365_storage)dyn_storage": {
        "base": "t_struct(Game)3365_storage",
        "encoding": "dynamic_array",
        "label": "struct BCTypes.Game[]",
        "numberOfBytes": "32"
      },
      "t_array(t_struct(Player)3270_storage)dyn_storage": {
        "base": "t_struct(Player)3270_storage",
        "encoding": "dynamic_array",
        "label": "struct BCTypes.Player[]",
        "numberOfBytes": "32"
      },
      "t_array(t_uint256)dyn_storage": {
        "base": "t_uint256",
        "encoding": "dynamic_array",
        "label": "uint256[]",
        "numberOfBytes": "32"
      },
      "t_array(t_uint8)dyn_storage": {
        "base": "t_uint8",
        "encoding": "dynamic_array",
        "label": "uint8[]",
        "numberOfBytes": "32"
      },
      "t_bool": {
        "encoding": "inplace",
        "label": "bool",
        "numberOfBytes": "1"
      },
      "t_contract(CharInterface)315": {
        "encoding": "inplace",
        "label": "contract CharInterface",
        "numberOfBytes": "20"
      },
      "t_contract(MapInterface)452": {
        "encoding": "inplace",
        "label": "contract MapInterface",
        "numberOfBytes": "20"
      },
      "t_contract(RoomTileInterface)301": {
        "encoding": "inplace",
        "label": "contract RoomTileInterface",
        "numberOfBytes": "20"
      },
      "t_contract(UtilsInterface)359": {
        "encoding": "inplace",
        "label": "contract UtilsInterface",
        "numberOfBytes": "20"
      },
      "t_mapping(t_address,t_array(t_uint256)dyn_storage)": {
        "encoding": "mapping",
        "key": "t_address",
        "label": "mapping(address => uint256[])",
        "numberOfBytes": "32",
        "value": "t_array(t_uint256)dyn_storage"
      },
      "t_struct(EventTracker)3289_storage": {
        "encoding": "inplace",
        "label": "struct BCTypes.EventTracker",
        "members": [
          {
            "astId": 3282,
            "contract": "contracts/BCGames.sol:BCGames",
            "label": "bugEvents",
            "offset": 0,
            "slot": "0",
            "type": "t_uint8"
          },
          {
            "astId": 3284,
            "contract": "contracts/BCGames.sol:BCGames",
            "label": "mysteryEvents",
            "offset": 1,
            "slot": "0",
            "type": "t_uint8"
          },
          {
            "astId": 3286,
            "contract": "contracts/BCGames.sol:BCGames",
            "label": "scavEvents",
            "offset": 2,
            "slot": "0",
            "type": "t_uint8"
          },
          {
            "astId": 3288,
            "contract": "contracts/BCGames.sol:BCGames",
            "label": "shipEvents",
            "offset": 3,
            "slot": "0",
            "type": "t_uint8"
          }
        ],
        "numberOfBytes": "32"
      },
      "t_struct(Game)3365_storage": {
        "encoding": "inplace",
        "label": "struct BCTypes.Game",
        "members": [
          {
            "astId": 3348,
            "contract": "contracts/BCGames.sol:BCGames",
            "label": "active",
            "offset": 0,
            "slot": "0",
            "type": "t_bool"
          },
          {
            "astId": 3351,
            "contract": "contracts/BCGames.sol:BCGames",
            "label": "playerIndexes",
            "offset": 0,
            "slot": "1",
            "type": "t_array(t_uint256)dyn_storage"
          },
          {
            "astId": 3353,
            "contract": "contracts/BCGames.sol:BCGames",
            "label": "currentPlayerTurnIndex",
            "offset": 0,
            "slot": "2",
            "type": "t_uint256"
          },
          {
            "astId": 3355,
            "contract": "contracts/BCGames.sol:BCGames",
            "label": "numPlayers",
            "offset": 0,
            "slot": "3",
            "type": "t_uint256"
          },
          {
            "astId": 3357,
            "contract": "contracts/BCGames.sol:BCGames",
            "label": "turnsTaken",
            "offset": 0,
            "slot": "4",
            "type": "t_uint256"
          },
          {
            "astId": 3360,
            "contract": "contracts/BCGames.sol:BCGames",
            "label": "eventTracker",
            "offset": 0,
            "slot": "5",
            "type": "t_struct(EventTracker)3289_storage"
          },
          {
            "astId": 3362,
            "contract": "contracts/BCGames.sol:BCGames",
            "label": "mapContract",
            "offset": 0,
            "slot": "6",
            "type": "t_address"
          },
          {
            "astId": 3364,
            "contract": "contracts/BCGames.sol:BCGames",
            "label": "mapId",
            "offset": 0,
            "slot": "7",
            "type": "t_uint256"
          }
        ],
        "numberOfBytes": "256"
      },
      "t_struct(Player)3270_storage": {
        "encoding": "inplace",
        "label": "struct BCTypes.Player",
        "members": [
          {
            "astId": 3244,
            "contract": "contracts/BCGames.sol:BCGames",
            "label": "owner",
            "offset": 0,
            "slot": "0",
            "type": "t_address"
          },
          {
            "astId": 3246,
            "contract": "contracts/BCGames.sol:BCGames",
            "label": "charContractAddress",
            "offset": 0,
            "slot": "1",
            "type": "t_address"
          },
          {
            "astId": 3248,
            "contract": "contracts/BCGames.sol:BCGames",
            "label": "characterId",
            "offset": 0,
            "slot": "2",
            "type": "t_uint256"
          },
          {
            "astId": 3251,
            "contract": "contracts/BCGames.sol:BCGames",
            "label": "position",
            "offset": 0,
            "slot": "3",
            "type": "t_struct(Position)3294_storage"
          },
          {
            "astId": 3253,
            "contract": "contracts/BCGames.sol:BCGames",
            "label": "healthDmgTaken",
            "offset": 0,
            "slot": "4",
            "type": "t_uint8"
          },
          {
            "astId": 3255,
            "contract": "contracts/BCGames.sol:BCGames",
            "label": "armorDmgTaken",
            "offset": 1,
            "slot": "4",
            "type": "t_uint8"
          },
          {
            "astId": 3257,
            "contract": "contracts/BCGames.sol:BCGames",
            "label": "actionsTaken",
            "offset": 2,
            "slot": "4",
            "type": "t_uint8"
          },
          {
            "astId": 3259,
            "contract": "contracts/BCGames.sol:BCGames",
            "label": "dataTokens",
            "offset": 3,
            "slot": "4",
            "type": "t_uint8"
          },
          {
            "astId": 3262,
            "contract": "contracts/BCGames.sol:BCGames",
            "label": "currentEffects",
            "offset": 0,
            "slot": "5",
            "type": "t_array(t_uint8)dyn_storage"
          },
          {
            "astId": 3265,
            "contract": "contracts/BCGames.sol:BCGames",
            "label": "inventoryIDs",
            "offset": 0,
            "slot": "6",
            "type": "t_array(t_uint8)dyn_storage"
          },
          {
            "astId": 3267,
            "contract": "contracts/BCGames.sol:BCGames",
            "label": "canHarmOthers",
            "offset": 0,
            "slot": "7",
            "type": "t_bool"
          },
          {
            "astId": 3269,
            "contract": "contracts/BCGames.sol:BCGames",
            "label": "dead",
            "offset": 1,
            "slot": "7",
            "type": "t_bool"
          }
        ],
        "numberOfBytes": "256"
      },
      "t_struct(Position)3294_storage": {
        "encoding": "inplace",
        "label": "struct BCTypes.Position",
        "members": [
          {
            "astId": 3291,
            "contract": "contracts/BCGames.sol:BCGames",
            "label": "row",
            "offset": 0,
            "slot": "0",
            "type": "t_uint8"
          },
          {
            "astId": 3293,
            "contract": "contracts/BCGames.sol:BCGames",
            "label": "col",
            "offset": 1,
            "slot": "0",
            "type": "t_uint8"
          }
        ],
        "numberOfBytes": "32"
      },
      "t_uint256": {
        "encoding": "inplace",
        "label": "uint256",
        "numberOfBytes": "32"
      },
      "t_uint8": {
        "encoding": "inplace",
        "label": "uint8",
        "numberOfBytes": "1"
      }
    }
  }
}