{
  "address": "0x4a501e3DC1d26343aEB2B33F5658627974e3E1C7",
  "abi": [
    {
      "inputs": [],
      "stateMutability": "nonpayable",
      "type": "constructor"
    },
    {
      "anonymous": false,
      "inputs": [
        {
          "indexed": true,
          "internalType": "address",
          "name": "previousOwner",
          "type": "address"
        },
        {
          "indexed": true,
          "internalType": "address",
          "name": "newOwner",
          "type": "address"
        }
      ],
      "name": "OwnershipTransferred",
      "type": "event"
    },
    {
      "inputs": [],
      "name": "StartLocation",
      "outputs": [
        {
          "internalType": "uint8",
          "name": "row",
          "type": "uint8"
        },
        {
          "internalType": "uint8",
          "name": "col",
          "type": "uint8"
        }
      ],
      "stateMutability": "view",
      "type": "function"
    },
    {
      "inputs": [],
      "name": "actionsAddress",
      "outputs": [
        {
          "internalType": "address",
          "name": "",
          "type": "address"
        }
      ],
      "stateMutability": "view",
      "type": "function"
    },
    {
      "inputs": [
        {
          "internalType": "address",
          "name": "",
          "type": "address"
        },
        {
          "internalType": "uint256",
          "name": "",
          "type": "uint256"
        }
      ],
      "name": "addressToGame",
      "outputs": [
        {
          "internalType": "uint256",
          "name": "",
          "type": "uint256"
        }
      ],
      "stateMutability": "view",
      "type": "function"
    },
    {
      "inputs": [],
      "name": "bcEvents",
      "outputs": [
        {
          "internalType": "contract EventsInterface",
          "name": "",
          "type": "address"
        }
      ],
      "stateMutability": "view",
      "type": "function"
    },
    {
      "inputs": [],
      "name": "chars",
      "outputs": [
        {
          "internalType": "contract CharInterface",
          "name": "",
          "type": "address"
        }
      ],
      "stateMutability": "view",
      "type": "function"
    },
    {
      "inputs": [],
      "name": "charsAddress",
      "outputs": [
        {
          "internalType": "address",
          "name": "",
          "type": "address"
        }
      ],
      "stateMutability": "view",
      "type": "function"
    },
    {
      "inputs": [
        {
          "internalType": "uint256",
          "name": "_gameId",
          "type": "uint256"
        },
        {
          "components": [
            {
              "internalType": "uint8",
              "name": "row",
              "type": "uint8"
            },
            {
              "internalType": "uint8",
              "name": "col",
              "type": "uint8"
            }
          ],
          "internalType": "struct BCTypes.Position",
          "name": "_position",
          "type": "tuple"
        },
        {
          "internalType": "uint256",
          "name": "_playerId",
          "type": "uint256"
        },
        {
          "internalType": "uint256",
          "name": "_debugRoomId",
          "type": "uint256"
        }
      ],
      "name": "debugMovePlayer",
      "outputs": [],
      "stateMutability": "nonpayable",
      "type": "function"
    },
    {
      "inputs": [
        {
          "internalType": "uint256",
          "name": "_gameId",
          "type": "uint256"
        },
        {
          "internalType": "uint256",
          "name": "_playerId",
          "type": "uint256"
        }
      ],
      "name": "endPlayerAction",
      "outputs": [],
      "stateMutability": "nonpayable",
      "type": "function"
    },
    {
      "inputs": [
        {
          "internalType": "uint256",
          "name": "_id",
          "type": "uint256"
        }
      ],
      "name": "extGetGame",
      "outputs": [
        {
          "components": [
            {
              "internalType": "bool",
              "name": "active",
              "type": "bool"
            },
            {
              "internalType": "uint256[]",
              "name": "playerIndexes",
              "type": "uint256[]"
            },
            {
              "internalType": "uint256",
              "name": "currentPlayerTurnIndex",
              "type": "uint256"
            },
            {
              "internalType": "uint256",
              "name": "numPlayers",
              "type": "uint256"
            },
            {
              "internalType": "uint256",
              "name": "turnsTaken",
              "type": "uint256"
            },
            {
              "components": [
                {
                  "internalType": "uint8",
                  "name": "bugEvents",
                  "type": "uint8"
                },
                {
                  "internalType": "uint8",
                  "name": "mysteryEvents",
                  "type": "uint8"
                },
                {
                  "internalType": "uint8",
                  "name": "scavEvents",
                  "type": "uint8"
                },
                {
                  "internalType": "uint8",
                  "name": "shipEvents",
                  "type": "uint8"
                }
              ],
              "internalType": "struct BCTypes.EventTracker",
              "name": "eventTracker",
              "type": "tuple"
            },
            {
              "internalType": "address",
              "name": "mapContract",
              "type": "address"
            },
            {
              "internalType": "uint256",
              "name": "mapId",
              "type": "uint256"
            },
            {
              "internalType": "uint256",
              "name": "eventPlayerId",
              "type": "uint256"
            },
            {
              "internalType": "uint256",
              "name": "eventNumber",
              "type": "uint256"
            },
            {
              "internalType": "enum BCTypes.BCEventType",
              "name": "eventType",
              "type": "uint8"
            },
            {
              "components": [
                {
                  "internalType": "uint8",
                  "name": "row",
                  "type": "uint8"
                },
                {
                  "internalType": "uint8",
                  "name": "col",
                  "type": "uint8"
                }
              ],
              "internalType": "struct BCTypes.Position",
              "name": "eventPosition",
              "type": "tuple"
            },
            {
              "internalType": "uint256[]",
              "name": "unusedBugEvents",
              "type": "uint256[]"
            },
            {
              "internalType": "uint256[]",
              "name": "unusedMysteryEvents",
              "type": "uint256[]"
            },
            {
              "internalType": "uint256[]",
              "name": "unusedScavEvents",
              "type": "uint256[]"
            },
            {
              "internalType": "uint256[]",
              "name": "unusedShipEvents",
              "type": "uint256[]"
            }
          ],
          "internalType": "struct BCTypes.Game",
          "name": "",
          "type": "tuple"
        }
      ],
      "stateMutability": "view",
      "type": "function"
    },
    {
      "inputs": [
        {
          "internalType": "uint256",
          "name": "_gameId",
          "type": "uint256"
        }
      ],
      "name": "extGetGamePlayerIndexes",
      "outputs": [
        {
          "internalType": "uint256[]",
          "name": "",
          "type": "uint256[]"
        }
      ],
      "stateMutability": "view",
      "type": "function"
    },
    {
      "inputs": [
        {
          "internalType": "address",
          "name": "_playerAddress",
          "type": "address"
        }
      ],
      "name": "extGetGamesOfPlayer",
      "outputs": [
        {
          "internalType": "uint256[]",
          "name": "",
          "type": "uint256[]"
        }
      ],
      "stateMutability": "view",
      "type": "function"
    },
    {
      "inputs": [],
      "name": "extGetNumGames",
      "outputs": [
        {
          "internalType": "uint256",
          "name": "",
          "type": "uint256"
        }
      ],
      "stateMutability": "view",
      "type": "function"
    },
    {
      "inputs": [
        {
          "internalType": "uint256",
          "name": "_gameId",
          "type": "uint256"
        },
        {
          "components": [
            {
              "internalType": "uint8",
              "name": "row",
              "type": "uint8"
            },
            {
              "internalType": "uint8",
              "name": "col",
              "type": "uint8"
            }
          ],
          "internalType": "struct BCTypes.Position",
          "name": "_position",
          "type": "tuple"
        },
        {
          "internalType": "uint256",
          "name": "_playerId",
          "type": "uint256"
        }
      ],
      "name": "extMovePlayer",
      "outputs": [],
      "stateMutability": "nonpayable",
      "type": "function"
    },
    {
      "inputs": [
        {
          "internalType": "uint256",
          "name": "",
          "type": "uint256"
        }
      ],
      "name": "games",
      "outputs": [
        {
          "internalType": "bool",
          "name": "active",
          "type": "bool"
        },
        {
          "internalType": "uint256",
          "name": "currentPlayerTurnIndex",
          "type": "uint256"
        },
        {
          "internalType": "uint256",
          "name": "numPlayers",
          "type": "uint256"
        },
        {
          "internalType": "uint256",
          "name": "turnsTaken",
          "type": "uint256"
        },
        {
          "components": [
            {
              "internalType": "uint8",
              "name": "bugEvents",
              "type": "uint8"
            },
            {
              "internalType": "uint8",
              "name": "mysteryEvents",
              "type": "uint8"
            },
            {
              "internalType": "uint8",
              "name": "scavEvents",
              "type": "uint8"
            },
            {
              "internalType": "uint8",
              "name": "shipEvents",
              "type": "uint8"
            }
          ],
          "internalType": "struct BCTypes.EventTracker",
          "name": "eventTracker",
          "type": "tuple"
        },
        {
          "internalType": "address",
          "name": "mapContract",
          "type": "address"
        },
        {
          "internalType": "uint256",
          "name": "mapId",
          "type": "uint256"
        },
        {
          "internalType": "uint256",
          "name": "eventPlayerId",
          "type": "uint256"
        },
        {
          "internalType": "uint256",
          "name": "eventNumber",
          "type": "uint256"
        },
        {
          "internalType": "enum BCTypes.BCEventType",
          "name": "eventType",
          "type": "uint8"
        },
        {
          "components": [
            {
              "internalType": "uint8",
              "name": "row",
              "type": "uint8"
            },
            {
              "internalType": "uint8",
              "name": "col",
              "type": "uint8"
            }
          ],
          "internalType": "struct BCTypes.Position",
          "name": "eventPosition",
          "type": "tuple"
        }
      ],
      "stateMutability": "view",
      "type": "function"
    },
    {
      "inputs": [],
      "name": "items",
      "outputs": [
        {
          "internalType": "contract ItemsInterface",
          "name": "",
          "type": "address"
        }
      ],
      "stateMutability": "view",
      "type": "function"
    },
    {
      "inputs": [],
      "name": "lobbiesAddress",
      "outputs": [
        {
          "internalType": "address",
          "name": "",
          "type": "address"
        }
      ],
      "stateMutability": "view",
      "type": "function"
    },
    {
      "inputs": [],
      "name": "maps",
      "outputs": [
        {
          "internalType": "contract MapInterface",
          "name": "",
          "type": "address"
        }
      ],
      "stateMutability": "view",
      "type": "function"
    },
    {
      "inputs": [],
      "name": "owner",
      "outputs": [
        {
          "internalType": "address",
          "name": "",
          "type": "address"
        }
      ],
      "stateMutability": "view",
      "type": "function"
    },
    {
      "inputs": [],
      "name": "players",
      "outputs": [
        {
          "internalType": "contract PlayersInterface",
          "name": "",
          "type": "address"
        }
      ],
      "stateMutability": "view",
      "type": "function"
    },
    {
      "inputs": [],
      "name": "renounceOwnership",
      "outputs": [],
      "stateMutability": "nonpayable",
      "type": "function"
    },
    {
      "inputs": [
        {
          "internalType": "uint256",
          "name": "_gameId",
          "type": "uint256"
        },
        {
          "internalType": "uint256",
          "name": "_choice",
          "type": "uint256"
        }
      ],
      "name": "resolveEvent",
      "outputs": [],
      "stateMutability": "nonpayable",
      "type": "function"
    },
    {
      "inputs": [
        {
          "internalType": "address",
          "name": "_charAddress",
          "type": "address"
        },
        {
          "internalType": "address",
          "name": "_utilsAddress",
          "type": "address"
        },
        {
          "internalType": "address",
          "name": "_mapsAddress",
          "type": "address"
        },
        {
          "internalType": "address",
          "name": "_lobbiesAddress",
          "type": "address"
        },
        {
          "internalType": "address",
          "name": "_actionsAddress",
          "type": "address"
        },
        {
          "internalType": "address",
          "name": "_eventsAddress",
          "type": "address"
        },
        {
          "internalType": "address",
          "name": "_itemsAddress",
          "type": "address"
        },
        {
          "internalType": "address",
          "name": "_playersAddress",
          "type": "address"
        }
      ],
      "name": "setContractAddresses",
      "outputs": [],
      "stateMutability": "nonpayable",
      "type": "function"
    },
    {
      "inputs": [
        {
          "internalType": "uint256[]",
          "name": "_playerIndexes",
          "type": "uint256[]"
        },
        {
          "internalType": "uint256",
          "name": "_numPlayers",
          "type": "uint256"
        },
        {
          "internalType": "uint256",
          "name": "_debugRoomId",
          "type": "uint256"
        }
      ],
      "name": "startGame",
      "outputs": [
        {
          "internalType": "uint256",
          "name": "",
          "type": "uint256"
        }
      ],
      "stateMutability": "nonpayable",
      "type": "function"
    },
    {
      "inputs": [
        {
          "internalType": "address",
          "name": "newOwner",
          "type": "address"
        }
      ],
      "name": "transferOwnership",
      "outputs": [],
      "stateMutability": "nonpayable",
      "type": "function"
    },
    {
      "inputs": [],
      "name": "utils",
      "outputs": [
        {
          "internalType": "contract UtilsInterface",
          "name": "",
          "type": "address"
        }
      ],
      "stateMutability": "view",
      "type": "function"
    }
  ],
  "transactionHash": "0x794271ee54e7969638376f0cd9ebae3fd0b200a3d67322fda974906de155b9cf",
  "args": [],
  "numDeployments": 4,
  "solcInputHash": "bc110e7b9bca9e7a3f12b9e3c870c032",
  "bytecode": "0x60c0604052600a6080819052600660a052805461ffff191661060a17905534801561002957600080fd5b5061003333610038565b610088565b600080546001600160a01b038381166001600160a01b0319831681178455604051919092169283917f8be0079c531659141344cd1fd0a4f28419497f9722a3daafe3b4186f6b6457e09190a35050565b612d4380620000986000396000f3fe608060405234801561001057600080fd5b50600436106101735760003560e01c80637b45c0d4116100de578063a99d2a8b11610097578063dc0b356411610071578063dc0b356414610349578063dc769ee81461035c578063f101de9a1461038c578063f2fde38b1461039f57600080fd5b8063a99d2a8b14610310578063afd62bb214610323578063c06fad061461033657600080fd5b80637b45c0d4146102a05780637ddae103146102b35780638bf52bc3146102c65780638da5cb5b146102d9578063921d2799146102ea5780639fca1ee1146102fd57600080fd5b806346f2434b1161013057806346f2434b1461022d5780635a29638d1461023f57806360fe842e1461025257806364f66467146102655780636fe99c1814610278578063715018a61461029857600080fd5b806310a2cd0d14610178578063117a5b90146101a857806317514225146101d2578063336d7d7b146101e75780633deaec2b146101fa57806340d4fd781461020d575b600080fd5b60015461018b906001600160a01b031681565b6040516001600160a01b0390911681526020015b60405180910390f35b6101bb6101b6366004612058565b6103b2565b60405161019f9b9a999897969594939291906120a9565b6101e56101e036600461225d565b61047c565b005b60075461018b906001600160a01b031681565b60035461018b906001600160a01b031681565b61022061021b366004612058565b610502565b60405161019f9190612293565b600b545b60405190815260200161019f565b60025461018b906001600160a01b031681565b6101e56102603660046122d7565b6105f4565b6101e56102733660046122d7565b6107fe565b61028b610286366004612058565b6108c8565b60405161019f9190612334565b6101e5610bc1565b60095461018b906001600160a01b031681565b60045461018b906001600160a01b031681565b6101e56102d43660046124c5565b610bd5565b6000546001600160a01b031661018b565b6101e56102f8366004612516565b610c27565b60085461018b906001600160a01b031681565b61023161031e3660046125bf565b610cbd565b6102206103313660046125eb565b610cee565b60055461018b906001600160a01b031681565b60065461018b906001600160a01b031681565b600a546103729060ff8082169161010090041682565b6040805160ff93841681529290911660208301520161019f565b61023161039a366004612633565b610dbf565b6101e56103ad3660046125eb565b61122e565b600b81815481106103c257600080fd5b6000918252602091829020601090910201805460028201546003830154600484015460408051608081018252600587015460ff81811683526101008083048216848c0152620100008304821684860152630100000090920481166060840152600689015460078a015460088b015460098c0154600a8d01548851808a01909952600b909d015480861689529590950484169c87019c909c529882169b5096999598949792966001600160a01b03169592949293919216908b565b6009546001600160a01b031633148061049f57506006546001600160a01b031633145b6104f05760405162461bcd60e51b815260206004820152601c60248201527f4e6f7420616374696f6e732f706c617965727320636f6e74726163740000000060448201526064015b60405180910390fd5b6104fd83838360006112a7565b505050565b60606000600b8381548110610519576105196126d9565b90600052602060002090601002016001018054905067ffffffffffffffff81111561054657610546612155565b60405190808252806020026020018201604052801561056f578160200160208202803683370190505b50905060005b81518110156105ed57600b8481548110610591576105916126d9565b906000526020600020906010020160010181815481106105b3576105b36126d9565b90600052602060002001548282815181106105d0576105d06126d9565b6020908102919091010152806105e581612705565b915050610575565b5092915050565b6009546001600160a01b031633146106455760405162461bcd60e51b8152602060048201526014602482015273139bdd081858dd1a5bdb9cc818dbdb9d1c9858dd60621b60448201526064016104e7565b60065460405163ce93229760e01b8152600481018390526001600160a01b039091169063ce93229790602401600060405180830381600087803b15801561068b57600080fd5b505af115801561069f573d6000803e3d6000fd5b50506006546040516310f67fb360e01b815260048101859052600093506001600160a01b0390911691506310f67fb390602401600060405180830381865afa1580156106ef573d6000803e3d6000fd5b505050506040513d6000823e601f3d908101601f191682016040526107179190810190612801565b90506000600b848154811061072e5761072e6126d9565b9060005260206000209060100201905060038260c0015160ff16106107f85760065460405163065c363f60e41b8152600481018590526001600160a01b03909116906365c363f090602401600060405180830381600087803b15801561079357600080fd5b505af11580156107a7573d6000803e3d6000fd5b505050506001818101546107bb9190612953565b816002015410156107e2576002810180549060006107d883612705565b91905055506107f8565b6107f0848260070154611b8f565b600060028201555b50505050565b6000600b8381548110610813576108136126d9565b60009182526020909120600654601090920201600881015460078201546009830154600a840154604051636d291bbb60e01b81529496506001600160a01b0390951694636d291bbb9461087994899490938b939192600b8b019260ff169060040161296c565b600060405180830381600087803b15801561089357600080fd5b505af11580156108a7573d6000803e3d6000fd5b505060006008840181905560098401555050600a01805460ff191690555050565b6108d0611f24565b600b82815481106108e3576108e36126d9565b600091825260209182902060408051610200810182526010909302909101805460ff161515835260018101805483518187028101870190945280845293949193858301939283018282801561095757602002820191906000526020600020905b815481526020019060010190808311610943575b505050918352505060028201546020808301919091526003830154604080840191909152600484015460608085019190915281516080818101845260058088015460ff80821685526101008083048216988601989098526201000082048116968501969096526301000000900485169383019390935285015260068501546001600160a01b031660a0850152600785015460c0850152600885015460e0850152600985015492840192909252600a840154610120909301921690811115610a2057610a20612071565b6005811115610a3157610a31612071565b8152604080518082018252600b84015460ff80821683526101009091041660208281019190915280840191909152600c84018054835181840281018401855281815293909401939091830182828015610aa957602002820191906000526020600020905b815481526020019060010190808311610a95575b50505050508152602001600d8201805480602002602001604051908101604052809291908181526020018280548015610b0157602002820191906000526020600020905b815481526020019060010190808311610aed575b50505050508152602001600e8201805480602002602001604051908101604052809291908181526020018280548015610b5957602002820191906000526020600020905b815481526020019060010190808311610b45575b50505050508152602001600f8201805480602002602001604051908101604052809291908181526020018280548015610bb157602002820191906000526020600020905b815481526020019060010190808311610b9d575b5050505050815250509050919050565b610bc9611ce8565b610bd36000611d42565b565b6000546001600160a01b03163314610c1b5760405162461bcd60e51b81526020600482015260096024820152682737ba1037bbb732b960b91b60448201526064016104e7565b6107f8848484846112a7565b610c2f611ce8565b600180546001600160a01b03199081166001600160a01b039a8b1617909155600280548216988a1698909817909755600380548816968916969096179095556007805487169488169490941790935560098054861692871692909217909155600480548516918616919091179055600580548416918516919091179055600680549092169216919091179055565b600c6020528160005260406000208181548110610cd957600080fd5b90600052602060002001600091509150505481565b6001600160a01b0381166000908152600c60205260408120546060919067ffffffffffffffff811115610d2357610d23612155565b604051908082528060200260200182016040528015610d4c578160200160208202803683370190505b50905060005b81518110156105ed576001600160a01b0384166000908152600c60205260409020805482908110610d8557610d856126d9565b9060005260206000200154828281518110610da257610da26126d9565b602090810291909101015280610db781612705565b915050610d52565b6007546000906001600160a01b03163314610e115760405162461bcd60e51b8152602060048201526012602482015271139bdd081b1bd8989e4818dbdb9d1c9858dd60721b60448201526064016104e7565b600b80546001808201835560009283527f0175b7a638427703f0dbe7bb9bbf987a2551717b34e79f33b5b1008d1fa01db96010909202918201805460ff191690911781557f0175b7a638427703f0dbe7bb9bbf987a2551717b34e79f33b5b1008d1fa01dbd8201929092558551610eaf917f0175b7a638427703f0dbe7bb9bbf987a2551717b34e79f33b5b1008d1fa01dba01906020880190611ff8565b5060038082018590556040805160808101825260008082526020820181905291810182905260600181905260058301805463ffffffff1916905590546006830180546001600160a01b0319166001600160a01b03909216919091179055839003610f9657600360009054906101000a90046001600160a01b03166001600160a01b031663f01fc35a6040518163ffffffff1660e01b81526004016020604051808303816000875af1158015610f68573d6000803e3d6000fd5b505050506040513d601f19601f82011682018060405250810190610f8c91906129c1565b600782015561100b565b60035460405163148e052f60e21b8152600481018590526001600160a01b039091169063523814bc906024016020604051808303816000875af1158015610fe1573d6000803e3d6000fd5b505050506040513d601f19601f8201168201806040525081019061100591906129c1565b60078201555b60005b611019600186612953565b811161115857600782015460408051808201909152600a5460ff80821683526101009091041660208201526001840180546110739392919085908110611061576110616126d9565b906000526020600020015460006112a7565b60065486516000916001600160a01b031690636621a4219089908590811061109d5761109d6126d9565b60200260200101516040518263ffffffff1660e01b81526004016110c391815260200190565b602060405180830381865afa1580156110e0573d6000803e3d6000fd5b505050506040513d601f19601f8201168201806040525081019061110491906129da565b6001600160a01b0381166000908152600c60205260409020600b549192509061112f90600190612953565b81546001810183556000928352602090922090910155508061115081612705565b91505061100e565b506000604051806101e00160405280600181526020016002815260200160038152602001600481526020016005815260200160068152602001600781526020016008815260200160098152602001600a8152602001600b8152602001600c8152602001600d8152602001600e8152602001600f81525090508082600c0190600f6111e3929190611ff8565b506111f3600d830182600f611ff8565b50611203600e830182600f611ff8565b50611214600f808401908390611ff8565b50600b5461122490600190612953565b9695505050505050565b611236611ce8565b6001600160a01b03811661129b5760405162461bcd60e51b815260206004820152602660248201527f4f776e61626c653a206e6577206f776e657220697320746865207a65726f206160448201526564647265737360d01b60648201526084016104e7565b6112a481611d42565b50565b600654600b80546001600160a01b0390921691638d491b3e918691869190899081106112d5576112d56126d9565b9060005260206000209060100201600701546040518463ffffffff1660e01b8152600401611305939291906129f7565b6020604051808303816000875af1158015611324573d6000803e3d6000fd5b505050506040513d601f19601f820116820180604052508101906113489190612a26565b6107f857600354600b80546000926001600160a01b0316916381bad36d9188908110611376576113766126d9565b90600052602060002090601002016007015486600001518760200151866040518563ffffffff1660e01b81526004016113cc949392919093845260ff928316602085015291166040830152606082015260800190565b6020604051808303816000875af11580156113eb573d6000803e3d6000fd5b505050506040513d601f19601f8201168201806040525081019061140f91906129c1565b600354600b80549293506000926001600160a01b0390921691635805828391908990811061143f5761143f6126d9565b906000526020600020906010020160070154846040518363ffffffff1660e01b8152600401611478929190918252602082015260400190565b60a060405180830381865afa158015611495573d6000803e3d6000fd5b505050506040513d601f19601f820116820180604052508101906114b99190612a41565b90506002821180156114de57506000815160058111156114db576114db612071565b14155b15611b87576001815160058111156114f8576114f8612071565b0361154b57600b8681548110611510576115106126d9565b600091825260208220600560109092020101805460ff169161153183612ad2565b91906101000a81548160ff021916908360ff160217905550505b60028151600581111561156057611560612071565b036115bb57600b8681548110611578576115786126d9565b600091825260209091206010909102016005018054610100900460ff169060016115a183612ad2565b91906101000a81548160ff021916908360ff160217905550505b6003815160058111156115d0576115d0612071565b0361162c57600b86815481106115e8576115e86126d9565b60009182526020909120601090910201600501805462010000900460ff1690600261161283612ad2565b91906101000a81548160ff021916908360ff160217905550505b60048151600581111561164157611641612071565b0361169e57600b8681548110611659576116596126d9565b6000918252602090912060109091020160050180546301000000900460ff1690600361168483612ad2565b91906101000a81548160ff021916908360ff160217905550505b60208101511561181d5760048054602083015160405163c82c37b960e01b8152928301526000916001600160a01b039091169063c82c37b990602401600060405180830381865afa1580156116f7573d6000803e3d6000fd5b505050506040513d6000823e601f3d908101601f1916820160405261171f9190810190612b7e565b905080602001516118175784600b888154811061173e5761173e6126d9565b9060005260206000209060100201600801819055508160200151600b888154811061176b5761176b6126d9565b9060005260206000209060100201600901819055506005600b8881548110611795576117956126d9565b60009182526020909120600a60109092020101805460ff191660018360058111156117c2576117c2612071565b021790555085600b88815481106117db576117db6126d9565b60009182526020918290208351600b6010909302909101919091018054939092015160ff9081166101000261ffff199094169116179190911790555b50611b87565b60008151600581111561183257611832612071565b14611b875783600b878154811061184b5761184b6126d9565b90600052602060002090601002016008018190555084600b8781548110611874576118746126d9565b60009182526020918290208351600b6010909302909101919091018054939092015160ff9081166101000261ffff199094169116179190911790556001815160058111156118c4576118c4612071565b03611965576118f5600b87815481106118df576118df6126d9565b9060005260206000209060100201600c01611d92565b600b8781548110611908576119086126d9565b9060005260206000209060100201600901819055506001600b8781548110611932576119326126d9565b60009182526020909120600a60109092020101805460ff1916600183600581111561195f5761195f612071565b02179055505b60028151600581111561197a5761197a612071565b03611a1b576119ab600b8781548110611995576119956126d9565b9060005260206000209060100201600d01611d92565b600b87815481106119be576119be6126d9565b9060005260206000209060100201600901819055506002600b87815481106119e8576119e86126d9565b60009182526020909120600a60109092020101805460ff19166001836005811115611a1557611a15612071565b02179055505b600381516005811115611a3057611a30612071565b03611ad157611a61600b8781548110611a4b57611a4b6126d9565b9060005260206000209060100201600e01611d92565b600b8781548110611a7457611a746126d9565b9060005260206000209060100201600901819055506003600b8781548110611a9e57611a9e6126d9565b60009182526020909120600a60109092020101805460ff19166001836005811115611acb57611acb612071565b02179055505b600481516005811115611ae657611ae6612071565b03611b8757611b17600b8781548110611b0157611b016126d9565b9060005260206000209060100201600f01611d92565b600b8781548110611b2a57611b2a6126d9565b9060005260206000209060100201600901819055506004600b8781548110611b5457611b546126d9565b60009182526020909120600a60109092020101805460ff19166001836005811115611b8157611b81612071565b02179055505b505050505050565b6000600b8381548110611ba457611ba46126d9565b60009182526020909120600354604051630b06115560e31b815260048101869052601090930290910192506001600160a01b0316906358308aa890602401600060405180830381600087803b158015611bfc57600080fd5b505af1158015611c10573d6000803e3d6000fd5b505060035460405163c6b41b4560e01b815260048101869052600160248201526001600160a01b03909116925063c6b41b459150604401600060405180830381600087803b158015611c6157600080fd5b505af1158015611c75573d6000803e3d6000fd5b5050600654600784015460405163668a7f3b60e01b81526001600160a01b03909216935063668a7f3b9250611cb1916001860190600401612c70565b600060405180830381600087803b158015611ccb57600080fd5b505af1158015611cdf573d6000803e3d6000fd5b50505050505050565b6000546001600160a01b03163314610bd35760405162461bcd60e51b815260206004820181905260248201527f4f776e61626c653a2063616c6c6572206973206e6f7420746865206f776e657260448201526064016104e7565b600080546001600160a01b038381166001600160a01b0319831681178455604051919092169283917f8be0079c531659141344cd1fd0a4f28419497f9722a3daafe3b4186f6b6457e09190a35050565b80546000908190611da590600190612953565b90505b8015611ec15760025460405163ce28613f60e01b815260006004820181905260ff84166024830152916001600160a01b03169063ce28613f906044016020604051808303816000875af1158015611e03573d6000803e3d6000fd5b505050506040513d601f19601f82011682018060405250810190611e279190612cc3565b9050838160ff1681548110611e3e57611e3e6126d9565b9060005260206000200154848381548110611e5b57611e5b6126d9565b9060005260206000200154858481548110611e7857611e786126d9565b906000526020600020016000878560ff1681548110611e9957611e996126d9565b6000918252602090912001929092559190915550819050611eb981612ce0565b915050611da8565b5081546000908390611ed590600190612953565b81548110611ee557611ee56126d9565b9060005260206000200154905082805480611f0257611f02612cf7565b600190038181906000526020600020016000905590558060ff16915050919050565b60408051610200810182526000808252606060208084018290528385018390528184018390526080808501849052855190810186528381529081018390529384018290528301529060a0820190815260200160006001600160a01b0316815260200160008152602001600081526020016000815260200160006005811115611fae57611fae612071565b8152602001611fd66040518060400160405280600060ff168152602001600060ff1681525090565b8152602001606081526020016060815260200160608152602001606081525090565b828054828255906000526020600020908101928215612033579160200282015b82811115612033578251825591602001919060010190612018565b5061203f929150612043565b5090565b5b8082111561203f5760008155600101612044565b60006020828403121561206a57600080fd5b5035919050565b634e487b7160e01b600052602160045260246000fd5b600681106120a557634e487b7160e01b600052602160045260246000fd5b9052565b8b1515815260208082018c905260408083018c905260608084018c90528a5160ff9081166080860152928b0151831660a0850152908a0151821660c08401528901511660e08201526101e081016001600160a01b03881661010083015261012082018790526101408201869052610160820185905261212c610180830185612087565b825160ff9081166101a08401526020840151166101c08301529c9b505050505050505050505050565b634e487b7160e01b600052604160045260246000fd5b6040805190810167ffffffffffffffff8111828210171561218e5761218e612155565b60405290565b6040516101a0810167ffffffffffffffff8111828210171561218e5761218e612155565b60405160e0810167ffffffffffffffff8111828210171561218e5761218e612155565b604051601f8201601f1916810167ffffffffffffffff8111828210171561220457612204612155565b604052919050565b60ff811681146112a457600080fd5b60006040828403121561222d57600080fd5b61223561216b565b905081356122428161220c565b815260208201356122528161220c565b602082015292915050565b60008060006080848603121561227257600080fd5b83359250612283856020860161221b565b9150606084013590509250925092565b6020808252825182820181905260009190848201906040850190845b818110156122cb578351835292840192918401916001016122af565b50909695505050505050565b600080604083850312156122ea57600080fd5b50508035926020909101359150565b600081518084526020808501945080840160005b838110156123295781518752958201959082019060010161230d565b509495945050505050565b6020815261234760208201835115159052565b600060208301516102808060408501526123656102a08501836122f9565b91506040850151606085015260608501516080850152608085015160a085015260a08501516123c460c086018260ff815116825260ff602082015116602083015260ff604082015116604083015260ff60608201511660608301525050565b5060c08501516101406123e1818701836001600160a01b03169052565b60e087015161016087810191909152610100880151610180808901919091526101208901516101a0808a01919091529289015193506101c092612426848a0186612087565b9189015193506101e09161244c89840186805160ff908116835260209182015116910152565b818a01519450601f19915081898803016102208a015261246c87866122f9565b9650808a0151945050808887030161024089015261248a86856122f9565b955082890151935080888703016102608901526124a786856122f9565b955081890151935080888703018589015250505061122483826122f9565b60008060008060a085870312156124db57600080fd5b843593506124ec866020870161221b565b93969395505050506060820135916080013590565b6001600160a01b03811681146112a457600080fd5b600080600080600080600080610100898b03121561253357600080fd5b883561253e81612501565b9750602089013561254e81612501565b9650604089013561255e81612501565b9550606089013561256e81612501565b9450608089013561257e81612501565b935060a089013561258e81612501565b925060c089013561259e81612501565b915060e08901356125ae81612501565b809150509295985092959890939650565b600080604083850312156125d257600080fd5b82356125dd81612501565b946020939093013593505050565b6000602082840312156125fd57600080fd5b813561260881612501565b9392505050565b600067ffffffffffffffff82111561262957612629612155565b5060051b60200190565b60008060006060848603121561264857600080fd5b833567ffffffffffffffff81111561265f57600080fd5b8401601f8101861361267057600080fd5b803560206126856126808361260f565b6121db565b82815260059290921b830181019181810190898411156126a457600080fd5b938201935b838510156126c2578435825293820193908201906126a9565b999188013598505060409096013595945050505050565b634e487b7160e01b600052603260045260246000fd5b634e487b7160e01b600052601160045260246000fd5b600060018201612717576127176126ef565b5060010190565b805161272981612501565b919050565b80516127298161220c565b60006040828403121561274b57600080fd5b61275361216b565b905081516127608161220c565b815260208201516122528161220c565b8051600081900b811461272957600080fd5b600082601f83011261279357600080fd5b815160206127a36126808361260f565b82815260059290921b840181019181810190868411156127c257600080fd5b8286015b848110156127e65780516127d98161220c565b83529183019183016127c6565b509695505050505050565b8051801515811461272957600080fd5b60006020828403121561281357600080fd5b815167ffffffffffffffff8082111561282b57600080fd5b908301906101c0828603121561284057600080fd5b612848612194565b6128518361271e565b815261285f6020840161271e565b60208201526040830151604082015261287b8660608501612739565b606082015261288c60a08401612770565b608082015261289d60c0840161272e565b60a08201526128ae60e0840161272e565b60c08201526101006128c181850161272e565b60e083015261012080850151848111156128da57600080fd5b6128e689828801612782565b83850152506101409150818501518481111561290157600080fd5b61290d89828801612782565b82850152505061016092506129238385016127f1565b908201526101806129358482016127f1565b838301526129466101a085016127f1565b9082015295945050505050565b81810381811115612966576129666126ef565b92915050565b600061010082019050888252876020830152866040830152856060830152845460ff8116608084015260ff8160081c1660a0840152508360c08301526129b560e0830184612087565b98975050505050505050565b6000602082840312156129d357600080fd5b5051919050565b6000602082840312156129ec57600080fd5b815161260881612501565b60808101612a158286805160ff908116835260209182015116910152565b604082019390935260600152919050565b600060208284031215612a3857600080fd5b612608826127f1565b600060a08284031215612a5357600080fd5b60405160a0810181811067ffffffffffffffff82111715612a7657612a76612155565b604052825160068110612a8857600080fd5b8152602083810151908201526040830151612aa28161220c565b60408201526060830151612ab58161220c565b6060820152612ac6608084016127f1565b60808201529392505050565b600060ff821660ff8103612ae857612ae86126ef565b60010192915050565b600082601f830112612b0257600080fd5b81516020612b126126808361260f565b82815260069290921b84018101918181019086841115612b3157600080fd5b8286015b848110156127e65760408189031215612b4e5760008081fd5b612b5661216b565b815160178110612b665760008081fd5b81528185015185820152835291830191604001612b35565b600060208284031215612b9057600080fd5b815167ffffffffffffffff80821115612ba857600080fd5b9083019060e08286031215612bbc57600080fd5b612bc46121b8565b82518152612bd4602084016127f1565b6020820152612be56040840161272e565b6040820152612bf66060840161272e565b6060820152608083015182811115612c0d57600080fd5b612c1987828601612af1565b60808301525060a083015182811115612c3157600080fd5b612c3d87828601612af1565b60a08301525060c083015182811115612c5557600080fd5b612c6187828601612af1565b60c08301525095945050505050565b60006040820184835260206040818501528185548084526060860191508660005282600020935060005b81811015612cb657845483526001948501949284019201612c9a565b5090979650505050505050565b600060208284031215612cd557600080fd5b81516126088161220c565b600081612cef57612cef6126ef565b506000190190565b634e487b7160e01b600052603160045260246000fdfea264697066735822122071e658077ad88e7eab2a31e11d6b2a42fceb1d53d51cfb72a95cbe03e3c4012764736f6c63430008110033",
  "devdoc": {
    "kind": "dev",
    "methods": {
      "owner()": {
        "details": "Returns the address of the current owner."
      },
      "renounceOwnership()": {
        "details": "Leaves the contract without owner. It will not be possible to call `onlyOwner` functions anymore. Can only be called by the current owner. NOTE: Renouncing ownership will leave the contract without an owner, thereby removing any functionality that is only available to the owner."
      },
      "transferOwnership(address)": {
        "details": "Transfers ownership of the contract to a new account (`newOwner`). Can only be called by the current owner."
      }
    },
    "version": 1
  },
  "userdoc": {
    "kind": "user",
    "methods": {},
    "version": 1
  },
  "storageLayout": {
    "storage": [
      {
        "astId": 7,
        "contract": "contracts/BCGames.sol:BCGames",
        "label": "_owner",
        "offset": 0,
        "slot": "0",
        "type": "t_address"
      },
      {
        "astId": 8183,
        "contract": "contracts/BCGames.sol:BCGames",
        "label": "chars",
        "offset": 0,
        "slot": "1",
        "type": "t_contract(CharInterface)7976"
      },
      {
        "astId": 8186,
        "contract": "contracts/BCGames.sol:BCGames",
        "label": "utils",
        "offset": 0,
        "slot": "2",
        "type": "t_contract(UtilsInterface)7986"
      },
      {
        "astId": 8189,
        "contract": "contracts/BCGames.sol:BCGames",
        "label": "maps",
        "offset": 0,
        "slot": "3",
        "type": "t_contract(MapInterface)8099"
      },
      {
        "astId": 8192,
        "contract": "contracts/BCGames.sol:BCGames",
        "label": "bcEvents",
        "offset": 0,
        "slot": "4",
        "type": "t_contract(EventsInterface)7962"
      },
      {
        "astId": 8195,
        "contract": "contracts/BCGames.sol:BCGames",
        "label": "items",
        "offset": 0,
        "slot": "5",
        "type": "t_contract(ItemsInterface)8113"
      },
      {
        "astId": 8198,
        "contract": "contracts/BCGames.sol:BCGames",
        "label": "players",
        "offset": 0,
        "slot": "6",
        "type": "t_contract(PlayersInterface)8178"
      },
      {
        "astId": 8200,
        "contract": "contracts/BCGames.sol:BCGames",
        "label": "lobbiesAddress",
        "offset": 0,
        "slot": "7",
        "type": "t_address"
      },
      {
        "astId": 8202,
        "contract": "contracts/BCGames.sol:BCGames",
        "label": "charsAddress",
        "offset": 0,
        "slot": "8",
        "type": "t_address"
      },
      {
        "astId": 8204,
        "contract": "contracts/BCGames.sol:BCGames",
        "label": "actionsAddress",
        "offset": 0,
        "slot": "9",
        "type": "t_address"
      },
      {
        "astId": 8284,
        "contract": "contracts/BCGames.sol:BCGames",
        "label": "StartLocation",
        "offset": 0,
        "slot": "10",
        "type": "t_struct(Position)13905_storage"
      },
      {
        "astId": 8288,
        "contract": "contracts/BCGames.sol:BCGames",
        "label": "games",
        "offset": 0,
        "slot": "11",
        "type": "t_array(t_struct(Game)13996_storage)dyn_storage"
      },
      {
        "astId": 8293,
        "contract": "contracts/BCGames.sol:BCGames",
        "label": "addressToGame",
        "offset": 0,
        "slot": "12",
        "type": "t_mapping(t_address,t_array(t_uint256)dyn_storage)"
      }
    ],
    "types": {
      "t_address": {
        "encoding": "inplace",
        "label": "address",
        "numberOfBytes": "20"
      },
      "t_array(t_struct(Game)13996_storage)dyn_storage": {
        "base": "t_struct(Game)13996_storage",
        "encoding": "dynamic_array",
        "label": "struct BCTypes.Game[]",
        "numberOfBytes": "32"
      },
      "t_array(t_uint256)dyn_storage": {
        "base": "t_uint256",
        "encoding": "dynamic_array",
        "label": "uint256[]",
        "numberOfBytes": "32"
      },
      "t_bool": {
        "encoding": "inplace",
        "label": "bool",
        "numberOfBytes": "1"
      },
      "t_contract(CharInterface)7976": {
        "encoding": "inplace",
        "label": "contract CharInterface",
        "numberOfBytes": "20"
      },
      "t_contract(EventsInterface)7962": {
        "encoding": "inplace",
        "label": "contract EventsInterface",
        "numberOfBytes": "20"
      },
      "t_contract(ItemsInterface)8113": {
        "encoding": "inplace",
        "label": "contract ItemsInterface",
        "numberOfBytes": "20"
      },
      "t_contract(MapInterface)8099": {
        "encoding": "inplace",
        "label": "contract MapInterface",
        "numberOfBytes": "20"
      },
      "t_contract(PlayersInterface)8178": {
        "encoding": "inplace",
        "label": "contract PlayersInterface",
        "numberOfBytes": "20"
      },
      "t_contract(UtilsInterface)7986": {
        "encoding": "inplace",
        "label": "contract UtilsInterface",
        "numberOfBytes": "20"
      },
      "t_enum(BCEventType)13851": {
        "encoding": "inplace",
        "label": "enum BCTypes.BCEventType",
        "numberOfBytes": "1"
      },
      "t_mapping(t_address,t_array(t_uint256)dyn_storage)": {
        "encoding": "mapping",
        "key": "t_address",
        "label": "mapping(address => uint256[])",
        "numberOfBytes": "32",
        "value": "t_array(t_uint256)dyn_storage"
      },
      "t_struct(EventTracker)13900_storage": {
        "encoding": "inplace",
        "label": "struct BCTypes.EventTracker",
        "members": [
          {
            "astId": 13893,
            "contract": "contracts/BCGames.sol:BCGames",
            "label": "bugEvents",
            "offset": 0,
            "slot": "0",
            "type": "t_uint8"
          },
          {
            "astId": 13895,
            "contract": "contracts/BCGames.sol:BCGames",
            "label": "mysteryEvents",
            "offset": 1,
            "slot": "0",
            "type": "t_uint8"
          },
          {
            "astId": 13897,
            "contract": "contracts/BCGames.sol:BCGames",
            "label": "scavEvents",
            "offset": 2,
            "slot": "0",
            "type": "t_uint8"
          },
          {
            "astId": 13899,
            "contract": "contracts/BCGames.sol:BCGames",
            "label": "shipEvents",
            "offset": 3,
            "slot": "0",
            "type": "t_uint8"
          }
        ],
        "numberOfBytes": "32"
      },
      "t_struct(Game)13996_storage": {
        "encoding": "inplace",
        "label": "struct BCTypes.Game",
        "members": [
          {
            "astId": 13957,
            "contract": "contracts/BCGames.sol:BCGames",
            "label": "active",
            "offset": 0,
            "slot": "0",
            "type": "t_bool"
          },
          {
            "astId": 13960,
            "contract": "contracts/BCGames.sol:BCGames",
            "label": "playerIndexes",
            "offset": 0,
            "slot": "1",
            "type": "t_array(t_uint256)dyn_storage"
          },
          {
            "astId": 13962,
            "contract": "contracts/BCGames.sol:BCGames",
            "label": "currentPlayerTurnIndex",
            "offset": 0,
            "slot": "2",
            "type": "t_uint256"
          },
          {
            "astId": 13964,
            "contract": "contracts/BCGames.sol:BCGames",
            "label": "numPlayers",
            "offset": 0,
            "slot": "3",
            "type": "t_uint256"
          },
          {
            "astId": 13966,
            "contract": "contracts/BCGames.sol:BCGames",
            "label": "turnsTaken",
            "offset": 0,
            "slot": "4",
            "type": "t_uint256"
          },
          {
            "astId": 13969,
            "contract": "contracts/BCGames.sol:BCGames",
            "label": "eventTracker",
            "offset": 0,
            "slot": "5",
            "type": "t_struct(EventTracker)13900_storage"
          },
          {
            "astId": 13971,
            "contract": "contracts/BCGames.sol:BCGames",
            "label": "mapContract",
            "offset": 0,
            "slot": "6",
            "type": "t_address"
          },
          {
            "astId": 13973,
            "contract": "contracts/BCGames.sol:BCGames",
            "label": "mapId",
            "offset": 0,
            "slot": "7",
            "type": "t_uint256"
          },
          {
            "astId": 13975,
            "contract": "contracts/BCGames.sol:BCGames",
            "label": "eventPlayerId",
            "offset": 0,
            "slot": "8",
            "type": "t_uint256"
          },
          {
            "astId": 13977,
            "contract": "contracts/BCGames.sol:BCGames",
            "label": "eventNumber",
            "offset": 0,
            "slot": "9",
            "type": "t_uint256"
          },
          {
            "astId": 13980,
            "contract": "contracts/BCGames.sol:BCGames",
            "label": "eventType",
            "offset": 0,
            "slot": "10",
            "type": "t_enum(BCEventType)13851"
          },
          {
            "astId": 13983,
            "contract": "contracts/BCGames.sol:BCGames",
            "label": "eventPosition",
            "offset": 0,
            "slot": "11",
            "type": "t_struct(Position)13905_storage"
          },
          {
            "astId": 13986,
            "contract": "contracts/BCGames.sol:BCGames",
            "label": "unusedBugEvents",
            "offset": 0,
            "slot": "12",
            "type": "t_array(t_uint256)dyn_storage"
          },
          {
            "astId": 13989,
            "contract": "contracts/BCGames.sol:BCGames",
            "label": "unusedMysteryEvents",
            "offset": 0,
            "slot": "13",
            "type": "t_array(t_uint256)dyn_storage"
          },
          {
            "astId": 13992,
            "contract": "contracts/BCGames.sol:BCGames",
            "label": "unusedScavEvents",
            "offset": 0,
            "slot": "14",
            "type": "t_array(t_uint256)dyn_storage"
          },
          {
            "astId": 13995,
            "contract": "contracts/BCGames.sol:BCGames",
            "label": "unusedShipEvents",
            "offset": 0,
            "slot": "15",
            "type": "t_array(t_uint256)dyn_storage"
          }
        ],
        "numberOfBytes": "512"
      },
      "t_struct(Position)13905_storage": {
        "encoding": "inplace",
        "label": "struct BCTypes.Position",
        "members": [
          {
            "astId": 13902,
            "contract": "contracts/BCGames.sol:BCGames",
            "label": "row",
            "offset": 0,
            "slot": "0",
            "type": "t_uint8"
          },
          {
            "astId": 13904,
            "contract": "contracts/BCGames.sol:BCGames",
            "label": "col",
            "offset": 1,
            "slot": "0",
            "type": "t_uint8"
          }
        ],
        "numberOfBytes": "32"
      },
      "t_uint256": {
        "encoding": "inplace",
        "label": "uint256",
        "numberOfBytes": "32"
      },
      "t_uint8": {
        "encoding": "inplace",
        "label": "uint8",
        "numberOfBytes": "1"
      }
    }
  }
}