{
  "address": "0xdE450791550BFb0A828b469FAa1d3156efB6BA15",
  "abi": [
    {
      "inputs": [],
      "stateMutability": "nonpayable",
      "type": "constructor"
    },
    {
      "anonymous": false,
      "inputs": [
        {
          "indexed": true,
          "internalType": "address",
          "name": "previousOwner",
          "type": "address"
        },
        {
          "indexed": true,
          "internalType": "address",
          "name": "newOwner",
          "type": "address"
        }
      ],
      "name": "OwnershipTransferred",
      "type": "event"
    },
    {
      "inputs": [],
      "name": "StartLocation",
      "outputs": [
        {
          "internalType": "uint8",
          "name": "row",
          "type": "uint8"
        },
        {
          "internalType": "uint8",
          "name": "col",
          "type": "uint8"
        }
      ],
      "stateMutability": "view",
      "type": "function"
    },
    {
      "inputs": [],
      "name": "actionsAddress",
      "outputs": [
        {
          "internalType": "address",
          "name": "",
          "type": "address"
        }
      ],
      "stateMutability": "view",
      "type": "function"
    },
    {
      "inputs": [
        {
          "internalType": "address",
          "name": "_charContractAddress",
          "type": "address"
        },
        {
          "internalType": "uint256",
          "name": "_charId",
          "type": "uint256"
        },
        {
          "internalType": "address",
          "name": "_owner",
          "type": "address"
        }
      ],
      "name": "addPlayer",
      "outputs": [
        {
          "internalType": "uint256",
          "name": "",
          "type": "uint256"
        }
      ],
      "stateMutability": "nonpayable",
      "type": "function"
    },
    {
      "inputs": [
        {
          "internalType": "address",
          "name": "",
          "type": "address"
        },
        {
          "internalType": "uint256",
          "name": "",
          "type": "uint256"
        }
      ],
      "name": "addressToGame",
      "outputs": [
        {
          "internalType": "uint256",
          "name": "",
          "type": "uint256"
        }
      ],
      "stateMutability": "view",
      "type": "function"
    },
    {
      "inputs": [],
      "name": "bcEvents",
      "outputs": [
        {
          "internalType": "contract EventsInterface",
          "name": "",
          "type": "address"
        }
      ],
      "stateMutability": "view",
      "type": "function"
    },
    {
      "inputs": [],
      "name": "chars",
      "outputs": [
        {
          "internalType": "contract CharInterface",
          "name": "",
          "type": "address"
        }
      ],
      "stateMutability": "view",
      "type": "function"
    },
    {
      "inputs": [],
      "name": "charsAddress",
      "outputs": [
        {
          "internalType": "address",
          "name": "",
          "type": "address"
        }
      ],
      "stateMutability": "view",
      "type": "function"
    },
    {
      "inputs": [
        {
          "internalType": "uint256",
          "name": "_gameId",
          "type": "uint256"
        },
        {
          "internalType": "uint256",
          "name": "_playerId",
          "type": "uint256"
        }
      ],
      "name": "endPlayerAction",
      "outputs": [],
      "stateMutability": "nonpayable",
      "type": "function"
    },
    {
      "inputs": [
        {
          "internalType": "uint256",
          "name": "_playerId",
          "type": "uint256"
        },
        {
          "internalType": "uint256",
          "name": "_gameId",
          "type": "uint256"
        },
        {
          "internalType": "uint256",
          "name": "_eventId",
          "type": "uint256"
        },
        {
          "internalType": "uint256",
          "name": "_effectNum",
          "type": "uint256"
        }
      ],
      "name": "extApplyEffect",
      "outputs": [],
      "stateMutability": "nonpayable",
      "type": "function"
    },
    {
      "inputs": [
        {
          "internalType": "uint256",
          "name": "_id",
          "type": "uint256"
        }
      ],
      "name": "extGetGame",
      "outputs": [
        {
          "components": [
            {
              "internalType": "bool",
              "name": "active",
              "type": "bool"
            },
            {
              "internalType": "uint256[]",
              "name": "playerIndexes",
              "type": "uint256[]"
            },
            {
              "internalType": "uint256",
              "name": "currentPlayerTurnIndex",
              "type": "uint256"
            },
            {
              "internalType": "uint256",
              "name": "numPlayers",
              "type": "uint256"
            },
            {
              "internalType": "uint256",
              "name": "turnsTaken",
              "type": "uint256"
            },
            {
              "components": [
                {
                  "internalType": "uint8",
                  "name": "bugEvents",
                  "type": "uint8"
                },
                {
                  "internalType": "uint8",
                  "name": "mysteryEvents",
                  "type": "uint8"
                },
                {
                  "internalType": "uint8",
                  "name": "scavEvents",
                  "type": "uint8"
                },
                {
                  "internalType": "uint8",
                  "name": "shipEvents",
                  "type": "uint8"
                }
              ],
              "internalType": "struct BCTypes.EventTracker",
              "name": "eventTracker",
              "type": "tuple"
            },
            {
              "internalType": "address",
              "name": "mapContract",
              "type": "address"
            },
            {
              "internalType": "uint256",
              "name": "mapId",
              "type": "uint256"
            },
            {
              "internalType": "uint256",
              "name": "eventPlayerId",
              "type": "uint256"
            },
            {
              "internalType": "uint256",
              "name": "eventNumber",
              "type": "uint256"
            },
            {
              "internalType": "bool",
              "name": "eventIsTile",
              "type": "bool"
            },
            {
              "components": [
                {
                  "internalType": "uint8",
                  "name": "row",
                  "type": "uint8"
                },
                {
                  "internalType": "uint8",
                  "name": "col",
                  "type": "uint8"
                }
              ],
              "internalType": "struct BCTypes.Position",
              "name": "eventPosition",
              "type": "tuple"
            }
          ],
          "internalType": "struct BCTypes.Game",
          "name": "",
          "type": "tuple"
        }
      ],
      "stateMutability": "view",
      "type": "function"
    },
    {
      "inputs": [
        {
          "internalType": "uint256",
          "name": "_gameId",
          "type": "uint256"
        }
      ],
      "name": "extGetGamePlayerIndexes",
      "outputs": [
        {
          "internalType": "uint256[]",
          "name": "",
          "type": "uint256[]"
        }
      ],
      "stateMutability": "view",
      "type": "function"
    },
    {
      "inputs": [
        {
          "internalType": "address",
          "name": "_playerAddress",
          "type": "address"
        }
      ],
      "name": "extGetGamesOfPlayer",
      "outputs": [
        {
          "internalType": "uint256[]",
          "name": "",
          "type": "uint256[]"
        }
      ],
      "stateMutability": "view",
      "type": "function"
    },
    {
      "inputs": [
        {
          "internalType": "uint256",
          "name": "_id",
          "type": "uint256"
        }
      ],
      "name": "extGetPlayer",
      "outputs": [
        {
          "components": [
            {
              "internalType": "address",
              "name": "owner",
              "type": "address"
            },
            {
              "internalType": "address",
              "name": "charContractAddress",
              "type": "address"
            },
            {
              "internalType": "uint256",
              "name": "characterId",
              "type": "uint256"
            },
            {
              "components": [
                {
                  "internalType": "uint8",
                  "name": "row",
                  "type": "uint8"
                },
                {
                  "internalType": "uint8",
                  "name": "col",
                  "type": "uint8"
                }
              ],
              "internalType": "struct BCTypes.Position",
              "name": "position",
              "type": "tuple"
            },
            {
              "internalType": "int8",
              "name": "healthDmgTaken",
              "type": "int8"
            },
            {
              "internalType": "uint8",
              "name": "armorDmgTaken",
              "type": "uint8"
            },
            {
              "internalType": "uint8",
              "name": "actionsTaken",
              "type": "uint8"
            },
            {
              "internalType": "uint8",
              "name": "dataTokens",
              "type": "uint8"
            },
            {
              "internalType": "uint8[]",
              "name": "currentEffects",
              "type": "uint8[]"
            },
            {
              "internalType": "uint8[]",
              "name": "inventoryIDs",
              "type": "uint8[]"
            },
            {
              "internalType": "bool",
              "name": "canHarmOthers",
              "type": "bool"
            },
            {
              "internalType": "bool",
              "name": "dead",
              "type": "bool"
            },
            {
              "internalType": "bool",
              "name": "hasEgg",
              "type": "bool"
            }
          ],
          "internalType": "struct BCTypes.Player",
          "name": "",
          "type": "tuple"
        }
      ],
      "stateMutability": "view",
      "type": "function"
    },
    {
      "inputs": [
        {
          "internalType": "uint256",
          "name": "_gameId",
          "type": "uint256"
        },
        {
          "components": [
            {
              "internalType": "uint8",
              "name": "row",
              "type": "uint8"
            },
            {
              "internalType": "uint8",
              "name": "col",
              "type": "uint8"
            }
          ],
          "internalType": "struct BCTypes.Position",
          "name": "_position",
          "type": "tuple"
        },
        {
          "internalType": "uint256",
          "name": "_playerId",
          "type": "uint256"
        }
      ],
      "name": "extMovePlayer",
      "outputs": [],
      "stateMutability": "nonpayable",
      "type": "function"
    },
    {
      "inputs": [
        {
          "internalType": "uint256",
          "name": "",
          "type": "uint256"
        }
      ],
      "name": "games",
      "outputs": [
        {
          "internalType": "bool",
          "name": "active",
          "type": "bool"
        },
        {
          "internalType": "uint256",
          "name": "currentPlayerTurnIndex",
          "type": "uint256"
        },
        {
          "internalType": "uint256",
          "name": "numPlayers",
          "type": "uint256"
        },
        {
          "internalType": "uint256",
          "name": "turnsTaken",
          "type": "uint256"
        },
        {
          "components": [
            {
              "internalType": "uint8",
              "name": "bugEvents",
              "type": "uint8"
            },
            {
              "internalType": "uint8",
              "name": "mysteryEvents",
              "type": "uint8"
            },
            {
              "internalType": "uint8",
              "name": "scavEvents",
              "type": "uint8"
            },
            {
              "internalType": "uint8",
              "name": "shipEvents",
              "type": "uint8"
            }
          ],
          "internalType": "struct BCTypes.EventTracker",
          "name": "eventTracker",
          "type": "tuple"
        },
        {
          "internalType": "address",
          "name": "mapContract",
          "type": "address"
        },
        {
          "internalType": "uint256",
          "name": "mapId",
          "type": "uint256"
        },
        {
          "internalType": "uint256",
          "name": "eventPlayerId",
          "type": "uint256"
        },
        {
          "internalType": "uint256",
          "name": "eventNumber",
          "type": "uint256"
        },
        {
          "internalType": "bool",
          "name": "eventIsTile",
          "type": "bool"
        },
        {
          "components": [
            {
              "internalType": "uint8",
              "name": "row",
              "type": "uint8"
            },
            {
              "internalType": "uint8",
              "name": "col",
              "type": "uint8"
            }
          ],
          "internalType": "struct BCTypes.Position",
          "name": "eventPosition",
          "type": "tuple"
        }
      ],
      "stateMutability": "view",
      "type": "function"
    },
    {
      "inputs": [
        {
          "internalType": "uint256",
          "name": "_playerId",
          "type": "uint256"
        },
        {
          "internalType": "uint8",
          "name": "_amount",
          "type": "uint8"
        }
      ],
      "name": "grantDataToPlayer",
      "outputs": [],
      "stateMutability": "nonpayable",
      "type": "function"
    },
    {
      "inputs": [],
      "name": "items",
      "outputs": [
        {
          "internalType": "contract ItemsInterface",
          "name": "",
          "type": "address"
        }
      ],
      "stateMutability": "view",
      "type": "function"
    },
    {
      "inputs": [],
      "name": "lobbiesAddress",
      "outputs": [
        {
          "internalType": "address",
          "name": "",
          "type": "address"
        }
      ],
      "stateMutability": "view",
      "type": "function"
    },
    {
      "inputs": [],
      "name": "maps",
      "outputs": [
        {
          "internalType": "contract MapInterface",
          "name": "",
          "type": "address"
        }
      ],
      "stateMutability": "view",
      "type": "function"
    },
    {
      "inputs": [],
      "name": "owner",
      "outputs": [
        {
          "internalType": "address",
          "name": "",
          "type": "address"
        }
      ],
      "stateMutability": "view",
      "type": "function"
    },
    {
      "inputs": [
        {
          "internalType": "uint256",
          "name": "",
          "type": "uint256"
        }
      ],
      "name": "players",
      "outputs": [
        {
          "internalType": "address",
          "name": "owner",
          "type": "address"
        },
        {
          "internalType": "address",
          "name": "charContractAddress",
          "type": "address"
        },
        {
          "internalType": "uint256",
          "name": "characterId",
          "type": "uint256"
        },
        {
          "components": [
            {
              "internalType": "uint8",
              "name": "row",
              "type": "uint8"
            },
            {
              "internalType": "uint8",
              "name": "col",
              "type": "uint8"
            }
          ],
          "internalType": "struct BCTypes.Position",
          "name": "position",
          "type": "tuple"
        },
        {
          "internalType": "int8",
          "name": "healthDmgTaken",
          "type": "int8"
        },
        {
          "internalType": "uint8",
          "name": "armorDmgTaken",
          "type": "uint8"
        },
        {
          "internalType": "uint8",
          "name": "actionsTaken",
          "type": "uint8"
        },
        {
          "internalType": "uint8",
          "name": "dataTokens",
          "type": "uint8"
        },
        {
          "internalType": "bool",
          "name": "canHarmOthers",
          "type": "bool"
        },
        {
          "internalType": "bool",
          "name": "dead",
          "type": "bool"
        },
        {
          "internalType": "bool",
          "name": "hasEgg",
          "type": "bool"
        }
      ],
      "stateMutability": "view",
      "type": "function"
    },
    {
      "inputs": [],
      "name": "renounceOwnership",
      "outputs": [],
      "stateMutability": "nonpayable",
      "type": "function"
    },
    {
      "inputs": [
        {
          "internalType": "uint256",
          "name": "_gameId",
          "type": "uint256"
        },
        {
          "internalType": "uint256",
          "name": "_choice",
          "type": "uint256"
        }
      ],
      "name": "resolveEvent",
      "outputs": [],
      "stateMutability": "nonpayable",
      "type": "function"
    },
    {
      "inputs": [],
      "name": "roomTiles",
      "outputs": [
        {
          "internalType": "contract RoomTileInterface",
          "name": "",
          "type": "address"
        }
      ],
      "stateMutability": "view",
      "type": "function"
    },
    {
      "inputs": [
        {
          "internalType": "address",
          "name": "_roomTileAddress",
          "type": "address"
        },
        {
          "internalType": "address",
          "name": "_charAddress",
          "type": "address"
        },
        {
          "internalType": "address",
          "name": "_utilsAddress",
          "type": "address"
        },
        {
          "internalType": "address",
          "name": "_mapsAddress",
          "type": "address"
        },
        {
          "internalType": "address",
          "name": "_lobbiesAddress",
          "type": "address"
        },
        {
          "internalType": "address",
          "name": "_actionsAddress",
          "type": "address"
        },
        {
          "internalType": "address",
          "name": "_eventsAddress",
          "type": "address"
        },
        {
          "internalType": "address",
          "name": "_itemsAddress",
          "type": "address"
        }
      ],
      "name": "setContractAddresses",
      "outputs": [],
      "stateMutability": "nonpayable",
      "type": "function"
    },
    {
      "inputs": [
        {
          "internalType": "uint256[]",
          "name": "_playerIndexes",
          "type": "uint256[]"
        },
        {
          "internalType": "uint256",
          "name": "_numPlayers",
          "type": "uint256"
        },
        {
          "internalType": "uint256",
          "name": "_debugRoomId",
          "type": "uint256"
        }
      ],
      "name": "startGame",
      "outputs": [
        {
          "internalType": "uint256",
          "name": "",
          "type": "uint256"
        }
      ],
      "stateMutability": "nonpayable",
      "type": "function"
    },
    {
      "inputs": [],
      "name": "transferFundsOut",
      "outputs": [],
      "stateMutability": "nonpayable",
      "type": "function"
    },
    {
      "inputs": [
        {
          "internalType": "address",
          "name": "newOwner",
          "type": "address"
        }
      ],
      "name": "transferOwnership",
      "outputs": [],
      "stateMutability": "nonpayable",
      "type": "function"
    },
    {
      "inputs": [],
      "name": "utils",
      "outputs": [
        {
          "internalType": "contract UtilsInterface",
          "name": "",
          "type": "address"
        }
      ],
      "stateMutability": "view",
      "type": "function"
    }
  ],
  "transactionHash": "0xa08e2a387c8d75fcd3fd4033ac9f8658ef25a2c90b51ad365bb86f8ba336c26c",
  "args": [],
  "numDeployments": 2,
  "solcInputHash": "84f5e31a80c24b2a5900280e169d2aed",
  "bytecode": "0x60806040526040518060400160405280600a60ff168152602001600660ff16815250600a60008201518160000160006101000a81548160ff021916908360ff16021790555060208201518160000160016101000a81548160ff021916908360ff16021790555050503480156200007457600080fd5b5062000095620000896200009b60201b60201c565b620000a360201b60201c565b62000167565b600033905090565b60008060009054906101000a900473ffffffffffffffffffffffffffffffffffffffff169050816000806101000a81548173ffffffffffffffffffffffffffffffffffffffff021916908373ffffffffffffffffffffffffffffffffffffffff1602179055508173ffffffffffffffffffffffffffffffffffffffff168173ffffffffffffffffffffffffffffffffffffffff167f8be0079c531659141344cd1fd0a4f28419497f9722a3daafe3b4186f6b6457e060405160405180910390a35050565b6159c480620001776000396000f3fe608060405234801561001057600080fd5b50600436106101cf5760003560e01c8063715018a611610104578063afd62bb2116100a2578063f101de9a11610071578063f101de9a14610517578063f2fde38b14610547578063f7157f6414610563578063f71d96cb14610581576101cf565b8063afd62bb21461048e578063b6907194146104be578063c06fad06146104da578063dc769ee8146104f8576101cf565b80638da5cb5b116100de5780638da5cb5b14610406578063921d2799146104245780639fca1ee114610440578063a99d2a8b1461045e576101cf565b8063715018a6146103c05780637b45c0d4146103ca5780637ddae103146103e8576101cf565b80633ddc32fd116101715780635a29638d1161014b5780635a29638d1461033a57806360fe842e1461035857806364f66467146103745780636fe99c1814610390576101cf565b80633ddc32fd146102d05780633deaec2b146102ec57806340d4fd781461030a576101cf565b8063117a5b90116101ad578063117a5b9014610252578063175142251461028c578063336d7d7b146102a85780633838aed1146102c6576101cf565b806308178b3c146101d457806310a2cd0d1461020457806310f67fb314610222575b600080fd5b6101ee60048036038101906101e99190613a7e565b6105bb565b6040516101fb9190613ae0565b60405180910390f35b61020c61071c565b6040516102199190613b5a565b60405180910390f35b61023c60048036038101906102379190613b75565b610742565b6040516102499190613e12565b60405180910390f35b61026c60048036038101906102679190613b75565b610a44565b6040516102839b9a99989796959493929190613ed6565b60405180910390f35b6102a660048036038101906102a19190614091565b610baa565b005b6102b0610c4a565b6040516102bd91906140e4565b60405180910390f35b6102ce610c70565b005b6102ea60048036038101906102e591906140ff565b610cc8565b005b6102f4610e2c565b6040516103019190614187565b60405180910390f35b610324600480360381019061031f9190613b75565b610e52565b6040516103319190614251565b60405180910390f35b610342610f53565b60405161034f9190614294565b60405180910390f35b610372600480360381019061036d91906142af565b610f79565b005b61038e600480360381019061038991906142af565b611126565b005b6103aa60048036038101906103a59190613b75565b6114cf565b6040516103b791906144b9565b60405180910390f35b6103c8611702565b005b6103d2611716565b6040516103df91906140e4565b60405180910390f35b6103f061173c565b6040516103fd91906144fc565b60405180910390f35b61040e611762565b60405161041b91906140e4565b60405180910390f35b61043e60048036038101906104399190614517565b61178b565b005b6104486119a5565b60405161045591906140e4565b60405180910390f35b610478600480360381019061047391906145cd565b6119cb565b6040516104859190613ae0565b60405180910390f35b6104a860048036038101906104a3919061460d565b6119fc565b6040516104b59190614251565b60405180910390f35b6104d860048036038101906104d3919061463a565b611b31565b005b6104e2611c1e565b6040516104ef919061469b565b60405180910390f35b610500611c44565b60405161050e9291906146c5565b60405180910390f35b610531600480360381019061052c91906147bb565b611c70565b60405161053e9190613ae0565b60405180910390f35b610561600480360381019061055c919061460d565b61217d565b005b61056b612201565b604051610578919061484b565b60405180910390f35b61059b60048036038101906105969190613b75565b612227565b6040516105b29b9a99989796959493929190614875565b60405180910390f35b6000600760009054906101000a900473ffffffffffffffffffffffffffffffffffffffff1673ffffffffffffffffffffffffffffffffffffffff163373ffffffffffffffffffffffffffffffffffffffff161461064d576040517f08c379a00000000000000000000000000000000000000000000000000000000081526004016106449061497e565b60405180910390fd5b6000600b6001816001815401808255809150500390600052602060002090600802019050848160010160006101000a81548173ffffffffffffffffffffffffffffffffffffffff021916908373ffffffffffffffffffffffffffffffffffffffff160217905550828160000160006101000a81548173ffffffffffffffffffffffffffffffffffffffff021916908373ffffffffffffffffffffffffffffffffffffffff1602179055508381600201819055506001600b8054905061071291906149cd565b9150509392505050565b600260009054906101000a900473ffffffffffffffffffffffffffffffffffffffff1681565b61074a61364e565b600b828154811061075e5761075d614a01565b5b9060005260206000209060080201604051806101a00160405290816000820160009054906101000a900473ffffffffffffffffffffffffffffffffffffffff1673ffffffffffffffffffffffffffffffffffffffff1673ffffffffffffffffffffffffffffffffffffffff1681526020016001820160009054906101000a900473ffffffffffffffffffffffffffffffffffffffff1673ffffffffffffffffffffffffffffffffffffffff1673ffffffffffffffffffffffffffffffffffffffff16815260200160028201548152602001600382016040518060400160405290816000820160009054906101000a900460ff1660ff1660ff1681526020016000820160019054906101000a900460ff1660ff1660ff168152505081526020016004820160009054906101000a900460000b60000b60000b81526020016004820160019054906101000a900460ff1660ff1660ff1681526020016004820160029054906101000a900460ff1660ff1660ff1681526020016004820160039054906101000a900460ff1660ff1660ff1681526020016005820180548060200260200160405190810160405280929190818152602001828054801561096557602002820191906000526020600020906000905b82829054906101000a900460ff1660ff168152602001906001019060208260000104928301926001038202915080841161092e5790505b50505050508152602001600682018054806020026020016040519081016040528092919081815260200182805480156109e357602002820191906000526020600020906000905b82829054906101000a900460ff1660ff16815260200190600101906020826000010492830192600103820291508084116109ac5790505b505050505081526020016007820160009054906101000a900460ff161515151581526020016007820160019054906101000a900460ff161515151581526020016007820160029054906101000a900460ff1615151515815250509050919050565b600c8181548110610a5457600080fd5b90600052602060002090600c02016000915090508060000160009054906101000a900460ff1690806002015490806003015490806004015490806005016040518060800160405290816000820160009054906101000a900460ff1660ff1660ff1681526020016000820160019054906101000a900460ff1660ff1660ff1681526020016000820160029054906101000a900460ff1660ff1660ff1681526020016000820160039054906101000a900460ff1660ff1660ff1681525050908060060160009054906101000a900473ffffffffffffffffffffffffffffffffffffffff169080600701549080600801549080600901549080600a0160009054906101000a900460ff169080600b016040518060400160405290816000820160009054906101000a900460ff1660ff1660ff1681526020016000820160019054906101000a900460ff1660ff1660ff168152505090508b565b600960009054906101000a900473ffffffffffffffffffffffffffffffffffffffff1673ffffffffffffffffffffffffffffffffffffffff163373ffffffffffffffffffffffffffffffffffffffff1614610c3a576040517f08c379a0000000000000000000000000000000000000000000000000000000008152600401610c3190614a7c565b60405180910390fd5b610c45838383612370565b505050565b600760009054906101000a900473ffffffffffffffffffffffffffffffffffffffff1681565b610c78612ac2565b610c80611762565b73ffffffffffffffffffffffffffffffffffffffff166108fc479081150290604051600060405180830381858888f19350505050158015610cc5573d6000803e3d6000fd5b50565b600960009054906101000a900473ffffffffffffffffffffffffffffffffffffffff1673ffffffffffffffffffffffffffffffffffffffff163373ffffffffffffffffffffffffffffffffffffffff1614610d58576040517f08c379a0000000000000000000000000000000000000000000000000000000008152600401610d4f90614a7c565b60405180910390fd5b6000600560009054906101000a900473ffffffffffffffffffffffffffffffffffffffff1673ffffffffffffffffffffffffffffffffffffffff1663a49ac4116001856040518363ffffffff1660e01b8152600401610db8929190614a9c565b600060405180830381865afa158015610dd5573d6000803e3d6000fd5b505050506040513d6000823e3d601f19601f82011682018060405250810190610dfe9190614ed6565b8281518110610e1057610e0f614a01565b5b60200260200101519050610e25858583612b40565b5050505050565b600460009054906101000a900473ffffffffffffffffffffffffffffffffffffffff1681565b60606000600c8381548110610e6a57610e69614a01565b5b90600052602060002090600c02016001018054905067ffffffffffffffff811115610e9857610e97613f9a565b5b604051908082528060200260200182016040528015610ec65781602001602082028036833780820191505090505b50905060005b8151811015610f4957600c8481548110610ee957610ee8614a01565b5b90600052602060002090600c02016001018181548110610f0c57610f0b614a01565b5b9060005260206000200154828281518110610f2a57610f29614a01565b5b6020026020010181815250508080610f4190614f1f565b915050610ecc565b5080915050919050565b600360009054906101000a900473ffffffffffffffffffffffffffffffffffffffff1681565b600960009054906101000a900473ffffffffffffffffffffffffffffffffffffffff1673ffffffffffffffffffffffffffffffffffffffff163373ffffffffffffffffffffffffffffffffffffffff1614611009576040517f08c379a000000000000000000000000000000000000000000000000000000000815260040161100090614a7c565b60405180910390fd5b6000600b828154811061101f5761101e614a01565b5b906000526020600020906008020190506000600c848154811061104557611044614a01565b5b90600052602060002090600c0201905081600401600281819054906101000a900460ff168092919061107690614f68565b91906101000a81548160ff021916908360ff1602179055505060038260040160029054906101000a900460ff1660ff16106111205760008260040160026101000a81548160ff021916908360ff160217905550600181600101805490506110dd91906149cd565b81600201541015611107578060020160008154809291906110fd90614f1f565b919050555061111f565b61111481600701546131ae565b600081600201819055505b5b50505050565b6000600c838154811061113c5761113b614a01565b5b90600052602060002090600c020190506111546136f9565b81600a0160009054906101000a900460ff161561121357600560009054906101000a900473ffffffffffffffffffffffffffffffffffffffff1673ffffffffffffffffffffffffffffffffffffffff1663c82c37b983600901546040518263ffffffff1660e01b81526004016111ca9190613ae0565b6109e060405180830381865afa1580156111e8573d6000803e3d6000fd5b505050506040513d601f19601f8201168201806040525081019061120c919061505e565b905061121a565b50506114cb565b6000600560009054906101000a900473ffffffffffffffffffffffffffffffffffffffff1673ffffffffffffffffffffffffffffffffffffffff1663a49ac41184600a0160009054906101000a900460ff1685600901546040518363ffffffff1660e01b815260040161128e929190614a9c565b600060405180830381865afa1580156112ab573d6000803e3d6000fd5b505050506040513d6000823e3d601f19601f820116820180604052508101906112d49190614ed6565b90506000826040015160ff161480156112f457506000826060015160ff16145b15611328576113238360080154868360008151811061131657611315614a01565b5b6020026020010151612b40565b611496565b6000600360009054906101000a900473ffffffffffffffffffffffffffffffffffffffff1673ffffffffffffffffffffffffffffffffffffffff1663cd5e3c5d6040518163ffffffff1660e01b81526004016020604051808303816000875af1158015611399573d6000803e3d6000fd5b505050506040513d601f19601f820116820180604052508101906113bd919061508c565b60ff1690506000836040015160ff16141580156113e15750826040015160ff168111155b15611415576114108460080154878460018151811061140357611402614a01565b5b6020026020010151612b40565b611494565b6000836060015160ff16141580156114345750826060015160ff168110155b15611468576114638460080154878460028151811061145657611455614a01565b5b6020026020010151612b40565b611493565b6114928460080154878460008151811061148557611484614a01565b5b6020026020010151612b40565b5b5b505b6000836008018190555060008360090181905550600083600a0160006101000a81548160ff0219169083151502179055505050505b5050565b6114d7613750565b600c82815481106114eb576114ea614a01565b5b90600052602060002090600c0201604051806101800160405290816000820160009054906101000a900460ff161515151581526020016001820180548060200260200160405190810160405280929190818152602001828054801561156f57602002820191906000526020600020905b81548152602001906001019080831161155b575b50505050508152602001600282015481526020016003820154815260200160048201548152602001600582016040518060800160405290816000820160009054906101000a900460ff1660ff1660ff1681526020016000820160019054906101000a900460ff1660ff1660ff1681526020016000820160029054906101000a900460ff1660ff1660ff1681526020016000820160039054906101000a900460ff1660ff1660ff168152505081526020016006820160009054906101000a900473ffffffffffffffffffffffffffffffffffffffff1673ffffffffffffffffffffffffffffffffffffffff1673ffffffffffffffffffffffffffffffffffffffff168152602001600782015481526020016008820154815260200160098201548152602001600a820160009054906101000a900460ff16151515158152602001600b82016040518060400160405290816000820160009054906101000a900460ff1660ff1660ff1681526020016000820160019054906101000a900460ff1660ff1660ff1681525050815250509050919050565b61170a612ac2565b61171460006132ce565b565b600960009054906101000a900473ffffffffffffffffffffffffffffffffffffffff1681565b600560009054906101000a900473ffffffffffffffffffffffffffffffffffffffff1681565b60008060009054906101000a900473ffffffffffffffffffffffffffffffffffffffff16905090565b611793612ac2565b87600160006101000a81548173ffffffffffffffffffffffffffffffffffffffff021916908373ffffffffffffffffffffffffffffffffffffffff16021790555086600260006101000a81548173ffffffffffffffffffffffffffffffffffffffff021916908373ffffffffffffffffffffffffffffffffffffffff16021790555085600360006101000a81548173ffffffffffffffffffffffffffffffffffffffff021916908373ffffffffffffffffffffffffffffffffffffffff16021790555084600460006101000a81548173ffffffffffffffffffffffffffffffffffffffff021916908373ffffffffffffffffffffffffffffffffffffffff16021790555083600760006101000a81548173ffffffffffffffffffffffffffffffffffffffff021916908373ffffffffffffffffffffffffffffffffffffffff16021790555082600960006101000a81548173ffffffffffffffffffffffffffffffffffffffff021916908373ffffffffffffffffffffffffffffffffffffffff16021790555081600560006101000a81548173ffffffffffffffffffffffffffffffffffffffff021916908373ffffffffffffffffffffffffffffffffffffffff16021790555080600660006101000a81548173ffffffffffffffffffffffffffffffffffffffff021916908373ffffffffffffffffffffffffffffffffffffffff1602179055505050505050505050565b600860009054906101000a900473ffffffffffffffffffffffffffffffffffffffff1681565b600d60205281600052604060002081815481106119e757600080fd5b90600052602060002001600091509150505481565b60606000600d60008473ffffffffffffffffffffffffffffffffffffffff1673ffffffffffffffffffffffffffffffffffffffff1681526020019081526020016000208054905067ffffffffffffffff811115611a5c57611a5b613f9a565b5b604051908082528060200260200182016040528015611a8a5781602001602082028036833780820191505090505b50905060005b8151811015611b2757600d60008573ffffffffffffffffffffffffffffffffffffffff1673ffffffffffffffffffffffffffffffffffffffff1681526020019081526020016000208181548110611aea57611ae9614a01565b5b9060005260206000200154828281518110611b0857611b07614a01565b5b6020026020010181815250508080611b1f90614f1f565b915050611a90565b5080915050919050565b600960009054906101000a900473ffffffffffffffffffffffffffffffffffffffff1673ffffffffffffffffffffffffffffffffffffffff163373ffffffffffffffffffffffffffffffffffffffff1614611bc1576040517f08c379a0000000000000000000000000000000000000000000000000000000008152600401611bb890614a7c565b60405180910390fd5b80600b8381548110611bd657611bd5614a01565b5b906000526020600020906008020160040160038282829054906101000a900460ff16611c0291906150b9565b92506101000a81548160ff021916908360ff1602179055505050565b600660009054906101000a900473ffffffffffffffffffffffffffffffffffffffff1681565b600a8060000160009054906101000a900460ff16908060000160019054906101000a900460ff16905082565b6000600760009054906101000a900473ffffffffffffffffffffffffffffffffffffffff1673ffffffffffffffffffffffffffffffffffffffff163373ffffffffffffffffffffffffffffffffffffffff1614611d02576040517f08c379a0000000000000000000000000000000000000000000000000000000008152600401611cf99061497e565b60405180910390fd5b6000600c6001816001815401808255809150500390600052602060002090600c0201905060018160000160006101000a81548160ff0219169083151502179055506000816004018190555084816001019080519060200190611d659291906137d7565b508381600301819055506040518060800160405280600060ff168152602001600060ff168152602001600060ff168152602001600060ff168152508160050160008201518160000160006101000a81548160ff021916908360ff16021790555060208201518160000160016101000a81548160ff021916908360ff16021790555060408201518160000160026101000a81548160ff021916908360ff16021790555060608201518160000160036101000a81548160ff021916908360ff160217905550905050600460009054906101000a900473ffffffffffffffffffffffffffffffffffffffff168160060160006101000a81548173ffffffffffffffffffffffffffffffffffffffff021916908373ffffffffffffffffffffffffffffffffffffffff1602179055506000831415611f3957600460009054906101000a900473ffffffffffffffffffffffffffffffffffffffff1673ffffffffffffffffffffffffffffffffffffffff1663f01fc35a6040518163ffffffff1660e01b81526004016020604051808303816000875af1158015611f08573d6000803e3d6000fd5b505050506040513d601f19601f82011682018060405250810190611f2c91906150f0565b8160070181905550611fe0565b600460009054906101000a900473ffffffffffffffffffffffffffffffffffffffff1673ffffffffffffffffffffffffffffffffffffffff1663523814bc846040518263ffffffff1660e01b8152600401611f949190613ae0565b6020604051808303816000875af1158015611fb3573d6000803e3d6000fd5b505050506040513d601f19601f82011682018060405250810190611fd791906150f0565b81600701819055505b60005b600185611ff091906149cd565b81116121605761206b8260070154600a6040518060400160405290816000820160009054906101000a900460ff1660ff1660ff1681526020016000820160019054906101000a900460ff1660ff1660ff168152505084600101848154811061205b5761205a614a01565b5b9060005260206000200154612370565b6000600b83600101838154811061208557612084614a01565b5b9060005260206000200154815481106120a1576120a0614a01565b5b906000526020600020906008020160000160009054906101000a900473ffffffffffffffffffffffffffffffffffffffff169050600d60008273ffffffffffffffffffffffffffffffffffffffff1673ffffffffffffffffffffffffffffffffffffffff1681526020019081526020016000206001600c8054905061212691906149cd565b908060018154018082558091505060019003906000526020600020016000909190919091505550808061215890614f1f565b915050611fe3565b506001600c8054905061217391906149cd565b9150509392505050565b612185612ac2565b600073ffffffffffffffffffffffffffffffffffffffff168173ffffffffffffffffffffffffffffffffffffffff1614156121f5576040517f08c379a00000000000000000000000000000000000000000000000000000000081526004016121ec9061518f565b60405180910390fd5b6121fe816132ce565b50565b600160009054906101000a900473ffffffffffffffffffffffffffffffffffffffff1681565b600b818154811061223757600080fd5b90600052602060002090600802016000915090508060000160009054906101000a900473ffffffffffffffffffffffffffffffffffffffff16908060010160009054906101000a900473ffffffffffffffffffffffffffffffffffffffff1690806002015490806003016040518060400160405290816000820160009054906101000a900460ff1660ff1660ff1681526020016000820160019054906101000a900460ff1660ff1660ff1681525050908060040160009054906101000a900460000b908060040160019054906101000a900460ff16908060040160029054906101000a900460ff16908060040160039054906101000a900460ff16908060070160009054906101000a900460ff16908060070160019054906101000a900460ff16908060070160029054906101000a900460ff1690508b565b81600b828154811061238557612384614a01565b5b906000526020600020906008020160030160008201518160000160006101000a81548160ff021916908360ff16021790555060208201518160000160016101000a81548160ff021916908360ff160217905550905050600060ff16600460009054906101000a900473ffffffffffffffffffffffffffffffffffffffff1673ffffffffffffffffffffffffffffffffffffffff1663f9dfbfcb600c868154811061243257612431614a01565b5b90600052602060002090600c020160070154856000015186602001516040518463ffffffff1660e01b815260040161246c939291906151e0565b61014060405180830381865afa15801561248a573d6000803e3d6000fd5b505050506040513d601f19601f820116820180604052508101906124ae919061537f565b6000015160ff1614156124e7576124e681600c85815481106124d3576124d2614a01565b5b90600052602060002090600c0201613392565b5b6000600460009054906101000a900473ffffffffffffffffffffffffffffffffffffffff1673ffffffffffffffffffffffffffffffffffffffff1663471b6759600c868154811061253b5761253a614a01565b5b90600052602060002090600c020160070154856000015186602001516040518463ffffffff1660e01b8152600401612575939291906151e0565b6020604051808303816000875af1158015612594573d6000803e3d6000fd5b505050506040513d601f19601f820116820180604052508101906125b891906150f0565b90506002811115612abc576000600460009054906101000a900473ffffffffffffffffffffffffffffffffffffffff1673ffffffffffffffffffffffffffffffffffffffff166358058283600c878154811061261757612616614a01565b5b90600052602060002090600c020160070154846040518363ffffffff1660e01b81526004016126479291906153ad565b60a060405180830381865afa158015612664573d6000803e3d6000fd5b505050506040513d601f19601f820116820180604052508101906126889190615487565b90506001600481111561269e5761269d6154b4565b5b816000015160048111156126b5576126b46154b4565b5b141561271a57600c85815481106126cf576126ce614a01565b5b90600052602060002090600c0201600501600001600081819054906101000a900460ff168092919061270090614f68565b91906101000a81548160ff021916908360ff160217905550505b6002600481111561272e5761272d6154b4565b5b81600001516004811115612745576127446154b4565b5b14156127aa57600c858154811061275f5761275e614a01565b5b90600052602060002090600c0201600501600001600181819054906101000a900460ff168092919061279090614f68565b91906101000a81548160ff021916908360ff160217905550505b600360048111156127be576127bd6154b4565b5b816000015160048111156127d5576127d46154b4565b5b141561283a57600c85815481106127ef576127ee614a01565b5b90600052602060002090600c0201600501600001600281819054906101000a900460ff168092919061282090614f68565b91906101000a81548160ff021916908360ff160217905550505b60048081111561284d5761284c6154b4565b5b81600001516004811115612864576128636154b4565b5b14156128c957600c858154811061287e5761287d614a01565b5b90600052602060002090600c0201600501600001600381819054906101000a900460ff16809291906128af90614f68565b91906101000a81548160ff021916908360ff160217905550505b600081602001511115612a8c576000600560009054906101000a900473ffffffffffffffffffffffffffffffffffffffff1673ffffffffffffffffffffffffffffffffffffffff1663c82c37b983602001516040518263ffffffff1660e01b81526004016129379190613ae0565b6109e060405180830381865afa158015612955573d6000803e3d6000fd5b505050506040513d601f19601f82011682018060405250810190612979919061505e565b90508060200151612a865783600c878154811061299957612998614a01565b5b90600052602060002090600c0201600801819055508160200151600c87815481106129c7576129c6614a01565b5b90600052602060002090600c0201600901819055506001600c87815481106129f2576129f1614a01565b5b90600052602060002090600c0201600a0160006101000a81548160ff02191690831515021790555084600c8781548110612a2f57612a2e614a01565b5b90600052602060002090600c0201600b0160008201518160000160006101000a81548160ff021916908360ff16021790555060208201518160000160016101000a81548160ff021916908360ff1602179055509050505b50612aba565b60006004811115612aa057612a9f6154b4565b5b81600001516004811115612ab757612ab66154b4565b5b50505b505b50505050565b612aca6134e5565b73ffffffffffffffffffffffffffffffffffffffff16612ae8611762565b73ffffffffffffffffffffffffffffffffffffffff1614612b3e576040517f08c379a0000000000000000000000000000000000000000000000000000000008152600401612b359061552f565b60405180910390fd5b565b6000600b8481548110612b5657612b55614a01565b5b90600052602060002090600802019050816000015150816020015115612b985760008160040160006101000a81548160ff021916908360000b60ff1602179055505b816040015115612bce57612bcd84600c8581548110612bba57612bb9614a01565b5b90600052602060002090600c0201613392565b5b816060015115612cfc57600460009054906101000a900473ffffffffffffffffffffffffffffffffffffffff1673ffffffffffffffffffffffffffffffffffffffff1663fe368d7a600c8581548110612c2a57612c29614a01565b5b90600052602060002090600c020160070154600c8681548110612c5057612c4f614a01565b5b90600052602060002090600c0201600b0160000160009054906101000a900460ff16600c8781548110612c8657612c85614a01565b5b90600052602060002090600c0201600b0160000160019054906101000a900460ff1660016040518563ffffffff1660e01b8152600401612cc9949392919061554f565b600060405180830381600087803b158015612ce357600080fd5b505af1158015612cf7573d6000803e3d6000fd5b505050505b81608001515060008260a0015160ff161115612dd157816020015115612d51578160a001516000612d2d9190615594565b8160040160006101000a81548160ff021916908360000b60ff160217905550612dd0565b8160a001518160040160008282829054906101000a900460000b612d759190615594565b92506101000a81548160ff021916908360000b60ff16021790555060008160040160009054906101000a900460000b60000b1215612dcf5760008160040160006101000a81548160ff021916908360000b60ff1602179055505b5b5b60008260c00151505060008260e0015160ff161115612dff57612dfe84848460e0015160ff1660016134ed565b5b6000826101000151505060006004811115612e1d57612e1c6154b4565b5b8261014001516004811115612e3557612e346154b4565b5b5050600082610180015160ff161115612e5857612e5784836101800151611b31565b5b6000826101a0015150506000826101c0015160ff161115613166576000826101c0015160ff1690506000600660009054906101000a900473ffffffffffffffffffffffffffffffffffffffff1673ffffffffffffffffffffffffffffffffffffffff16633841fae1876040518263ffffffff1660e01b8152600401612edd9190613ae0565b600060405180830381865afa158015612efa573d6000803e3d6000fd5b505050506040513d6000823e3d601f19601f82011682018060405250810190612f2391906156a0565b905060008151111561316357600060018251612f3f91906149cd565b90505b600081111561307e576000600360009054906101000a900473ffffffffffffffffffffffffffffffffffffffff1673ffffffffffffffffffffffffffffffffffffffff1663ce28613f6000846040518363ffffffff1660e01b8152600401612fab929190615724565b6020604051808303816000875af1158015612fca573d6000803e3d6000fd5b505050506040513d601f19601f82011682018060405250810190612fee919061508c565b9050828160ff168151811061300657613005614a01565b5b602002602001015183838151811061302157613020614a01565b5b602002602001015184848151811061303c5761303b614a01565b5b60200260200101858460ff168151811061305957613058614a01565b5b60200260200101828152508281525050505080806130769061574d565b915050612f42565b5060005b815181101561316157600660009054906101000a900473ffffffffffffffffffffffffffffffffffffffff1673ffffffffffffffffffffffffffffffffffffffff1663f7c8af488383815181106130dc576130db614a01565b5b60200260200101516040518263ffffffff1660e01b81526004016131009190613ae0565b600060405180830381600087803b15801561311a57600080fd5b505af115801561312e573d6000803e3d6000fd5b50505050828061313d9061574d565b935050600083141561314e57613161565b808061315990614f1f565b915050613082565b505b50505b6000600581111561317a576131796154b4565b5b826101e001516005811115613192576131916154b4565b5b5050600082610200015150506000826102200151505050505050565b600460009054906101000a900473ffffffffffffffffffffffffffffffffffffffff1673ffffffffffffffffffffffffffffffffffffffff166358308aa8826040518263ffffffff1660e01b81526004016132099190613ae0565b600060405180830381600087803b15801561322357600080fd5b505af1158015613237573d6000803e3d6000fd5b50505050600460009054906101000a900473ffffffffffffffffffffffffffffffffffffffff1673ffffffffffffffffffffffffffffffffffffffff1663c6b41b458260006040518363ffffffff1660e01b81526004016132999291906157a8565b600060405180830381600087803b1580156132b357600080fd5b505af11580156132c7573d6000803e3d6000fd5b5050505050565b60008060009054906101000a900473ffffffffffffffffffffffffffffffffffffffff169050816000806101000a81548173ffffffffffffffffffffffffffffffffffffffff021916908373ffffffffffffffffffffffffffffffffffffffff1602179055508173ffffffffffffffffffffffffffffffffffffffff168173ffffffffffffffffffffffffffffffffffffffff167f8be0079c531659141344cd1fd0a4f28419497f9722a3daafe3b4186f6b6457e060405160405180910390a35050565b6000600b83815481106133a8576133a7614a01565b5b9060005260206000209060080201905060008160040160006101000a81548160ff021916908360000b60ff160217905550600260009054906101000a900473ffffffffffffffffffffffffffffffffffffffff1673ffffffffffffffffffffffffffffffffffffffff16636d6ba756600b858154811061342b5761342a614a01565b5b9060005260206000209060080201600201546040518263ffffffff1660e01b81526004016134599190613ae0565b600060405180830381600087803b15801561347357600080fd5b505af1158015613487573d6000803e3d6000fd5b505050506134e08260070154600a6040518060400160405290816000820160009054906101000a900460ff1660ff1660ff1681526020016000820160019054906101000a900460ff1660ff1660ff168152505085612370565b505050565b600033905090565b6000600b858154811061350357613502614a01565b5b906000526020600020906008020190506000600260009054906101000a900473ffffffffffffffffffffffffffffffffffffffff1673ffffffffffffffffffffffffffffffffffffffff16634810bc5983600201546040518263ffffffff1660e01b81526004016135749190613ae0565b6101e060405180830381865afa158015613592573d6000803e3d6000fd5b505050506040513d601f19601f820116820180604052508101906135b691906158eb565b9050838260040160008282829054906101000a900460000b6135d89190615919565b92506101000a81548160ff021916908360000b60ff16021790555080606001516000015160000b8260040160009054906101000a900460000b60000b13156136465761364586600c878154811061363257613631614a01565b5b90600052602060002090600c0201613392565b5b505050505050565b604051806101a00160405280600073ffffffffffffffffffffffffffffffffffffffff168152602001600073ffffffffffffffffffffffffffffffffffffffff168152602001600081526020016136a3613824565b81526020016000800b8152602001600060ff168152602001600060ff168152602001600060ff16815260200160608152602001606081526020016000151581526020016000151581526020016000151581525090565b6040518060e0016040528060008152602001600015158152602001600060ff168152602001600060ff168152602001613730613844565b815260200161373d613844565b815260200161374a613844565b81525090565b6040518061018001604052806000151581526020016060815260200160008152602001600081526020016000815260200161378961393a565b8152602001600073ffffffffffffffffffffffffffffffffffffffff1681526020016000815260200160008152602001600081526020016000151581526020016137d1613824565b81525090565b828054828255906000526020600020908101928215613813579160200282015b828111156138125782518255916020019190600101906137f7565b5b509050613820919061396e565b5090565b6040518060400160405280600060ff168152602001600060ff1681525090565b604051806102600160405280600015158152602001600015158152602001600015158152602001600015158152602001600015158152602001600060ff168152602001600060ff168152602001600060ff168152602001600060ff168152602001600060ff168152602001600060048111156138c3576138c26154b4565b5b8152602001600060038111156138dc576138db6154b4565b5b8152602001600060ff168152602001600060ff168152602001600060ff16815260200160006005811115613913576139126154b4565b5b8152602001600060ff168152602001600060ff16815260200161393461398b565b81525090565b6040518060800160405280600060ff168152602001600060ff168152602001600060ff168152602001600060ff1681525090565b5b8082111561398757600081600090555060010161396f565b5090565b6040518060e001604052806000800b81526020016000800b81526020016000800b81526020016000800b81526020016000800b81526020016000800b81526020016000800b81525090565b6000604051905090565b600080fd5b600080fd5b600073ffffffffffffffffffffffffffffffffffffffff82169050919050565b6000613a15826139ea565b9050919050565b613a2581613a0a565b8114613a3057600080fd5b50565b600081359050613a4281613a1c565b92915050565b6000819050919050565b613a5b81613a48565b8114613a6657600080fd5b50565b600081359050613a7881613a52565b92915050565b600080600060608486031215613a9757613a966139e0565b5b6000613aa586828701613a33565b9350506020613ab686828701613a69565b9250506040613ac786828701613a33565b9150509250925092565b613ada81613a48565b82525050565b6000602082019050613af56000830184613ad1565b92915050565b6000819050919050565b6000613b20613b1b613b16846139ea565b613afb565b6139ea565b9050919050565b6000613b3282613b05565b9050919050565b6000613b4482613b27565b9050919050565b613b5481613b39565b82525050565b6000602082019050613b6f6000830184613b4b565b92915050565b600060208284031215613b8b57613b8a6139e0565b5b6000613b9984828501613a69565b91505092915050565b613bab81613a0a565b82525050565b613bba81613a48565b82525050565b600060ff82169050919050565b613bd681613bc0565b82525050565b604082016000820151613bf26000850182613bcd565b506020820151613c056020850182613bcd565b50505050565b60008160000b9050919050565b613c2181613c0b565b82525050565b600081519050919050565b600082825260208201905092915050565b6000819050602082019050919050565b6000613c5f8383613bcd565b60208301905092915050565b6000602082019050919050565b6000613c8382613c27565b613c8d8185613c32565b9350613c9883613c43565b8060005b83811015613cc9578151613cb08882613c53565b9750613cbb83613c6b565b925050600181019050613c9c565b5085935050505092915050565b60008115159050919050565b613ceb81613cd6565b82525050565b60006101c083016000830151613d0a6000860182613ba2565b506020830151613d1d6020860182613ba2565b506040830151613d306040860182613bb1565b506060830151613d436060860182613bdc565b506080830151613d5660a0860182613c18565b5060a0830151613d6960c0860182613bcd565b5060c0830151613d7c60e0860182613bcd565b5060e0830151613d90610100860182613bcd565b50610100830151848203610120860152613daa8282613c78565b915050610120830151848203610140860152613dc68282613c78565b915050610140830151613ddd610160860182613ce2565b50610160830151613df2610180860182613ce2565b50610180830151613e076101a0860182613ce2565b508091505092915050565b60006020820190508181036000830152613e2c8184613cf1565b905092915050565b613e3d81613cd6565b82525050565b608082016000820151613e596000850182613bcd565b506020820151613e6c6020850182613bcd565b506040820151613e7f6040850182613bcd565b506060820151613e926060850182613bcd565b50505050565b613ea181613a0a565b82525050565b604082016000820151613ebd6000850182613bcd565b506020820151613ed06020850182613bcd565b50505050565b60006101e082019050613eec600083018e613e34565b613ef9602083018d613ad1565b613f06604083018c613ad1565b613f13606083018b613ad1565b613f20608083018a613e43565b613f2e610100830189613e98565b613f3c610120830188613ad1565b613f4a610140830187613ad1565b613f58610160830186613ad1565b613f66610180830185613e34565b613f746101a0830184613ea7565b9c9b505050505050505050505050565b600080fd5b6000601f19601f8301169050919050565b7f4e487b7100000000000000000000000000000000000000000000000000000000600052604160045260246000fd5b613fd282613f89565b810181811067ffffffffffffffff82111715613ff157613ff0613f9a565b5b80604052505050565b60006140046139d6565b90506140108282613fc9565b919050565b61401e81613bc0565b811461402957600080fd5b50565b60008135905061403b81614015565b92915050565b60006040828403121561405757614056613f84565b5b6140616040613ffa565b905060006140718482850161402c565b60008301525060206140858482850161402c565b60208301525092915050565b6000806000608084860312156140aa576140a96139e0565b5b60006140b886828701613a69565b93505060206140c986828701614041565b92505060606140da86828701613a69565b9150509250925092565b60006020820190506140f96000830184613e98565b92915050565b60008060008060808587031215614119576141186139e0565b5b600061412787828801613a69565b945050602061413887828801613a69565b935050604061414987828801613a69565b925050606061415a87828801613a69565b91505092959194509250565b600061417182613b27565b9050919050565b61418181614166565b82525050565b600060208201905061419c6000830184614178565b92915050565b600081519050919050565b600082825260208201905092915050565b6000819050602082019050919050565b60006141da8383613bb1565b60208301905092915050565b6000602082019050919050565b60006141fe826141a2565b61420881856141ad565b9350614213836141be565b8060005b8381101561424457815161422b88826141ce565b9750614236836141e6565b925050600181019050614217565b5085935050505092915050565b6000602082019050818103600083015261426b81846141f3565b905092915050565b600061427e82613b27565b9050919050565b61428e81614273565b82525050565b60006020820190506142a96000830184614285565b92915050565b600080604083850312156142c6576142c56139e0565b5b60006142d485828601613a69565b92505060206142e585828601613a69565b9150509250929050565b600082825260208201905092915050565b600061430b826141a2565b61431581856142ef565b9350614320836141be565b8060005b8381101561435157815161433888826141ce565b9750614343836141e6565b925050600181019050614324565b5085935050505092915050565b6080820160008201516143746000850182613bcd565b5060208201516143876020850182613bcd565b50604082015161439a6040850182613bcd565b5060608201516143ad6060850182613bcd565b50505050565b6000610200830160008301516143cc6000860182613ce2565b50602083015184820360208601526143e48282614300565b91505060408301516143f96040860182613bb1565b50606083015161440c6060860182613bb1565b50608083015161441f6080860182613bb1565b5060a083015161443260a086018261435e565b5060c0830151614446610120860182613ba2565b5060e083015161445a610140860182613bb1565b5061010083015161446f610160860182613bb1565b50610120830151614484610180860182613bb1565b506101408301516144996101a0860182613ce2565b506101608301516144ae6101c0860182613bdc565b508091505092915050565b600060208201905081810360008301526144d381846143b3565b905092915050565b60006144e682613b27565b9050919050565b6144f6816144db565b82525050565b600060208201905061451160008301846144ed565b92915050565b600080600080600080600080610100898b031215614538576145376139e0565b5b60006145468b828c01613a33565b98505060206145578b828c01613a33565b97505060406145688b828c01613a33565b96505060606145798b828c01613a33565b955050608061458a8b828c01613a33565b94505060a061459b8b828c01613a33565b93505060c06145ac8b828c01613a33565b92505060e06145bd8b828c01613a33565b9150509295985092959890939650565b600080604083850312156145e4576145e36139e0565b5b60006145f285828601613a33565b925050602061460385828601613a69565b9150509250929050565b600060208284031215614623576146226139e0565b5b600061463184828501613a33565b91505092915050565b60008060408385031215614651576146506139e0565b5b600061465f85828601613a69565b92505060206146708582860161402c565b9150509250929050565b600061468582613b27565b9050919050565b6146958161467a565b82525050565b60006020820190506146b0600083018461468c565b92915050565b6146bf81613bc0565b82525050565b60006040820190506146da60008301856146b6565b6146e760208301846146b6565b9392505050565b600080fd5b600067ffffffffffffffff82111561470e5761470d613f9a565b5b602082029050602081019050919050565b600080fd5b6000614737614732846146f3565b613ffa565b9050808382526020820190506020840283018581111561475a5761475961471f565b5b835b81811015614783578061476f8882613a69565b84526020840193505060208101905061475c565b5050509392505050565b600082601f8301126147a2576147a16146ee565b5b81356147b2848260208601614724565b91505092915050565b6000806000606084860312156147d4576147d36139e0565b5b600084013567ffffffffffffffff8111156147f2576147f16139e5565b5b6147fe8682870161478d565b935050602061480f86828701613a69565b925050604061482086828701613a69565b9150509250925092565b600061483582613b27565b9050919050565b6148458161482a565b82525050565b6000602082019050614860600083018461483c565b92915050565b61486f81613c0b565b82525050565b60006101808201905061488b600083018e613e98565b614898602083018d613e98565b6148a5604083018c613ad1565b6148b2606083018b613ea7565b6148bf60a083018a614866565b6148cc60c08301896146b6565b6148d960e08301886146b6565b6148e76101008301876146b6565b6148f5610120830186613e34565b614903610140830185613e34565b614911610160830184613e34565b9c9b505050505050505050505050565b600082825260208201905092915050565b7f4e6f74206c6f62627920636f6e74726163740000000000000000000000000000600082015250565b6000614968601283614921565b915061497382614932565b602082019050919050565b600060208201905081810360008301526149978161495b565b9050919050565b7f4e487b7100000000000000000000000000000000000000000000000000000000600052601160045260246000fd5b60006149d882613a48565b91506149e383613a48565b9250828210156149f6576149f561499e565b5b828203905092915050565b7f4e487b7100000000000000000000000000000000000000000000000000000000600052603260045260246000fd5b7f4e6f7420616374696f6e7320636f6e7472616374000000000000000000000000600082015250565b6000614a66601483614921565b9150614a7182614a30565b602082019050919050565b60006020820190508181036000830152614a9581614a59565b9050919050565b6000604082019050614ab16000830185613e34565b614abe6020830184613ad1565b9392505050565b600067ffffffffffffffff821115614ae057614adf613f9a565b5b602082029050602081019050919050565b614afa81613cd6565b8114614b0557600080fd5b50565b600081519050614b1781614af1565b92915050565b600081519050614b2c81614015565b92915050565b60058110614b3f57600080fd5b50565b600081519050614b5181614b32565b92915050565b60048110614b6457600080fd5b50565b600081519050614b7681614b57565b92915050565b60068110614b8957600080fd5b50565b600081519050614b9b81614b7c565b92915050565b614baa81613c0b565b8114614bb557600080fd5b50565b600081519050614bc781614ba1565b92915050565b600060e08284031215614be357614be2613f84565b5b614bed60e0613ffa565b90506000614bfd84828501614bb8565b6000830152506020614c1184828501614bb8565b6020830152506040614c2584828501614bb8565b6040830152506060614c3984828501614bb8565b6060830152506080614c4d84828501614bb8565b60808301525060a0614c6184828501614bb8565b60a08301525060c0614c7584828501614bb8565b60c08301525092915050565b60006103208284031215614c9857614c97613f84565b5b614ca3610260613ffa565b90506000614cb384828501614b08565b6000830152506020614cc784828501614b08565b6020830152506040614cdb84828501614b08565b6040830152506060614cef84828501614b08565b6060830152506080614d0384828501614b08565b60808301525060a0614d1784828501614b1d565b60a08301525060c0614d2b84828501614b1d565b60c08301525060e0614d3f84828501614b1d565b60e083015250610100614d5484828501614b1d565b61010083015250610120614d6a84828501614b1d565b61012083015250610140614d8084828501614b42565b61014083015250610160614d9684828501614b67565b61016083015250610180614dac84828501614b1d565b610180830152506101a0614dc284828501614b1d565b6101a0830152506101c0614dd884828501614b1d565b6101c0830152506101e0614dee84828501614b8c565b6101e083015250610200614e0484828501614b1d565b61020083015250610220614e1a84828501614b1d565b61022083015250610240614e3084828501614bcd565b6102408301525092915050565b6000614e50614e4b84614ac5565b613ffa565b9050808382526020820190506103208402830185811115614e7457614e7361471f565b5b835b81811015614e9e5780614e898882614c81565b84526020840193505061032081019050614e76565b5050509392505050565b600082601f830112614ebd57614ebc6146ee565b5b8151614ecd848260208601614e3d565b91505092915050565b600060208284031215614eec57614eeb6139e0565b5b600082015167ffffffffffffffff811115614f0a57614f096139e5565b5b614f1684828501614ea8565b91505092915050565b6000614f2a82613a48565b91507fffffffffffffffffffffffffffffffffffffffffffffffffffffffffffffffff821415614f5d57614f5c61499e565b5b600182019050919050565b6000614f7382613bc0565b915060ff821415614f8757614f8661499e565b5b600182019050919050565b600081519050614fa181613a52565b92915050565b60006109e08284031215614fbe57614fbd613f84565b5b614fc860e0613ffa565b90506000614fd884828501614f92565b6000830152506020614fec84828501614b08565b602083015250604061500084828501614b1d565b604083015250606061501484828501614b1d565b606083015250608061502884828501614c81565b6080830152506103a061503d84828501614c81565b60a0830152506106c061505284828501614c81565b60c08301525092915050565b60006109e08284031215615075576150746139e0565b5b600061508384828501614fa7565b91505092915050565b6000602082840312156150a2576150a16139e0565b5b60006150b084828501614b1d565b91505092915050565b60006150c482613bc0565b91506150cf83613bc0565b92508260ff038211156150e5576150e461499e565b5b828201905092915050565b600060208284031215615106576151056139e0565b5b600061511484828501614f92565b91505092915050565b7f4f776e61626c653a206e6577206f776e657220697320746865207a65726f206160008201527f6464726573730000000000000000000000000000000000000000000000000000602082015250565b6000615179602683614921565b91506151848261511d565b604082019050919050565b600060208201905081810360008301526151a88161516c565b9050919050565b60006151ca6151c56151c084613bc0565b613afb565b613a48565b9050919050565b6151da816151af565b82525050565b60006060820190506151f56000830186613ad1565b61520260208301856151d1565b61520f60408301846151d1565b949350505050565b600067ffffffffffffffff82111561523257615231613f9a565b5b602082029050919050565b600061525061524b84615217565b613ffa565b9050806020840283018581111561526a5761526961471f565b5b835b81811015615293578061527f8882614f92565b84526020840193505060208101905061526c565b5050509392505050565b600082601f8301126152b2576152b16146ee565b5b60046152bf84828561523d565b91505092915050565b600061014082840312156152df576152de613f84565b5b6152e960e0613ffa565b905060006152f984828501614b1d565b600083015250602061530d84828501614b1d565b60208301525060406153218482850161529d565b60408301525060c061533584828501614b08565b60608301525060e061534984828501614b08565b60808301525061010061535e84828501614b08565b60a08301525061012061537384828501614b08565b60c08301525092915050565b60006101408284031215615396576153956139e0565b5b60006153a4848285016152c8565b91505092915050565b60006040820190506153c26000830185613ad1565b6153cf6020830184613ad1565b9392505050565b600581106153e357600080fd5b50565b6000815190506153f5816153d6565b92915050565b600060a0828403121561541157615410613f84565b5b61541b60a0613ffa565b9050600061542b848285016153e6565b600083015250602061543f84828501614f92565b602083015250604061545384828501614b1d565b604083015250606061546784828501614b1d565b606083015250608061547b84828501614b08565b60808301525092915050565b600060a0828403121561549d5761549c6139e0565b5b60006154ab848285016153fb565b91505092915050565b7f4e487b7100000000000000000000000000000000000000000000000000000000600052602160045260246000fd5b7f4f776e61626c653a2063616c6c6572206973206e6f7420746865206f776e6572600082015250565b6000615519602083614921565b9150615524826154e3565b602082019050919050565b600060208201905081810360008301526155488161550c565b9050919050565b60006080820190506155646000830187613ad1565b61557160208301866151d1565b61557e60408301856151d1565b61558b6060830184613e34565b95945050505050565b600061559f82613c0b565b91506155aa83613c0b565b9250827fffffffffffffffffffffffffffffffffffffffffffffffffffffffffffffff80018212600084121516156155e5576155e461499e565b5b82607f0182136000841216156155fe576155fd61499e565b5b828203905092915050565b600061561c615617846146f3565b613ffa565b9050808382526020820190506020840283018581111561563f5761563e61471f565b5b835b8181101561566857806156548882614f92565b845260208401935050602081019050615641565b5050509392505050565b600082601f830112615687576156866146ee565b5b8151615697848260208601615609565b91505092915050565b6000602082840312156156b6576156b56139e0565b5b600082015167ffffffffffffffff8111156156d4576156d36139e5565b5b6156e084828501615672565b91505092915050565b6000819050919050565b600061570e615709615704846156e9565b613afb565b613bc0565b9050919050565b61571e816156f3565b82525050565b60006040820190506157396000830185615715565b61574660208301846146b6565b9392505050565b600061575882613a48565b9150600082141561576c5761576b61499e565b5b600182039050919050565b600061579261578d615788846156e9565b613afb565b613a48565b9050919050565b6157a281615777565b82525050565b60006040820190506157bd6000830185613ad1565b6157ca6020830184615799565b9392505050565b6000819050919050565b6157e4816157d1565b81146157ef57600080fd5b50565b600081519050615801816157db565b92915050565b60006101e0828403121561581e5761581d613f84565b5b615829610120613ffa565b90506000615839848285016157f2565b600083015250602061584d84828501614f92565b602083015250604061586184828501614f92565b604083015250606061587584828501614bcd565b60608301525061014061588a84828501614b1d565b60808301525061016061589f84828501614b1d565b60a0830152506101806158b484828501614b1d565b60c0830152506101a06158c984828501614b1d565b60e0830152506101c06158de84828501614b08565b6101008301525092915050565b60006101e08284031215615902576159016139e0565b5b600061591084828501615807565b91505092915050565b600061592482613c0b565b915061592f83613c0b565b925081607f0383136000831215161561594b5761594a61499e565b5b817fffffffffffffffffffffffffffffffffffffffffffffffffffffffffffffff800383126000831216156159835761598261499e565b5b82820190509291505056fea264697066735822122040ea3147f2716495eb4d93919ef9ebedbc9b5d8b983d4b0fbcdd7b4bfd80f0cc64736f6c634300080c0033",
  "devdoc": {
    "kind": "dev",
    "methods": {
      "owner()": {
        "details": "Returns the address of the current owner."
      },
      "renounceOwnership()": {
        "details": "Leaves the contract without owner. It will not be possible to call `onlyOwner` functions anymore. Can only be called by the current owner. NOTE: Renouncing ownership will leave the contract without an owner, thereby removing any functionality that is only available to the owner."
      },
      "transferOwnership(address)": {
        "details": "Transfers ownership of the contract to a new account (`newOwner`). Can only be called by the current owner."
      }
    },
    "version": 1
  },
  "userdoc": {
    "kind": "user",
    "methods": {},
    "version": 1
  },
  "storageLayout": {
    "storage": [
      {
        "astId": 7,
        "contract": "contracts/BCGames.sol:BCGames",
        "label": "_owner",
        "offset": 0,
        "slot": "0",
        "type": "t_address"
      },
      {
        "astId": 3708,
        "contract": "contracts/BCGames.sol:BCGames",
        "label": "roomTiles",
        "offset": 0,
        "slot": "1",
        "type": "t_contract(RoomTileInterface)3504"
      },
      {
        "astId": 3711,
        "contract": "contracts/BCGames.sol:BCGames",
        "label": "chars",
        "offset": 0,
        "slot": "2",
        "type": "t_contract(CharInterface)3518"
      },
      {
        "astId": 3714,
        "contract": "contracts/BCGames.sol:BCGames",
        "label": "utils",
        "offset": 0,
        "slot": "3",
        "type": "t_contract(UtilsInterface)3571"
      },
      {
        "astId": 3717,
        "contract": "contracts/BCGames.sol:BCGames",
        "label": "maps",
        "offset": 0,
        "slot": "4",
        "type": "t_contract(MapInterface)3689"
      },
      {
        "astId": 3720,
        "contract": "contracts/BCGames.sol:BCGames",
        "label": "bcEvents",
        "offset": 0,
        "slot": "5",
        "type": "t_contract(EventsInterface)3490"
      },
      {
        "astId": 3723,
        "contract": "contracts/BCGames.sol:BCGames",
        "label": "items",
        "offset": 0,
        "slot": "6",
        "type": "t_contract(ItemsInterface)3703"
      },
      {
        "astId": 3725,
        "contract": "contracts/BCGames.sol:BCGames",
        "label": "lobbiesAddress",
        "offset": 0,
        "slot": "7",
        "type": "t_address"
      },
      {
        "astId": 3727,
        "contract": "contracts/BCGames.sol:BCGames",
        "label": "charsAddress",
        "offset": 0,
        "slot": "8",
        "type": "t_address"
      },
      {
        "astId": 3729,
        "contract": "contracts/BCGames.sol:BCGames",
        "label": "actionsAddress",
        "offset": 0,
        "slot": "9",
        "type": "t_address"
      },
      {
        "astId": 3809,
        "contract": "contracts/BCGames.sol:BCGames",
        "label": "StartLocation",
        "offset": 0,
        "slot": "10",
        "type": "t_struct(Position)5169_storage"
      },
      {
        "astId": 3813,
        "contract": "contracts/BCGames.sol:BCGames",
        "label": "players",
        "offset": 0,
        "slot": "11",
        "type": "t_array(t_struct(Player)5145_storage)dyn_storage"
      },
      {
        "astId": 3817,
        "contract": "contracts/BCGames.sol:BCGames",
        "label": "games",
        "offset": 0,
        "slot": "12",
        "type": "t_array(t_struct(Game)5251_storage)dyn_storage"
      },
      {
        "astId": 3822,
        "contract": "contracts/BCGames.sol:BCGames",
        "label": "addressToGame",
        "offset": 0,
        "slot": "13",
        "type": "t_mapping(t_address,t_array(t_uint256)dyn_storage)"
      }
    ],
    "types": {
      "t_address": {
        "encoding": "inplace",
        "label": "address",
        "numberOfBytes": "20"
      },
      "t_array(t_struct(Game)5251_storage)dyn_storage": {
        "base": "t_struct(Game)5251_storage",
        "encoding": "dynamic_array",
        "label": "struct BCTypes.Game[]",
        "numberOfBytes": "32"
      },
      "t_array(t_struct(Player)5145_storage)dyn_storage": {
        "base": "t_struct(Player)5145_storage",
        "encoding": "dynamic_array",
        "label": "struct BCTypes.Player[]",
        "numberOfBytes": "32"
      },
      "t_array(t_uint256)dyn_storage": {
        "base": "t_uint256",
        "encoding": "dynamic_array",
        "label": "uint256[]",
        "numberOfBytes": "32"
      },
      "t_array(t_uint8)dyn_storage": {
        "base": "t_uint8",
        "encoding": "dynamic_array",
        "label": "uint8[]",
        "numberOfBytes": "32"
      },
      "t_bool": {
        "encoding": "inplace",
        "label": "bool",
        "numberOfBytes": "1"
      },
      "t_contract(CharInterface)3518": {
        "encoding": "inplace",
        "label": "contract CharInterface",
        "numberOfBytes": "20"
      },
      "t_contract(EventsInterface)3490": {
        "encoding": "inplace",
        "label": "contract EventsInterface",
        "numberOfBytes": "20"
      },
      "t_contract(ItemsInterface)3703": {
        "encoding": "inplace",
        "label": "contract ItemsInterface",
        "numberOfBytes": "20"
      },
      "t_contract(MapInterface)3689": {
        "encoding": "inplace",
        "label": "contract MapInterface",
        "numberOfBytes": "20"
      },
      "t_contract(RoomTileInterface)3504": {
        "encoding": "inplace",
        "label": "contract RoomTileInterface",
        "numberOfBytes": "20"
      },
      "t_contract(UtilsInterface)3571": {
        "encoding": "inplace",
        "label": "contract UtilsInterface",
        "numberOfBytes": "20"
      },
      "t_int8": {
        "encoding": "inplace",
        "label": "int8",
        "numberOfBytes": "1"
      },
      "t_mapping(t_address,t_array(t_uint256)dyn_storage)": {
        "encoding": "mapping",
        "key": "t_address",
        "label": "mapping(address => uint256[])",
        "numberOfBytes": "32",
        "value": "t_array(t_uint256)dyn_storage"
      },
      "t_struct(EventTracker)5164_storage": {
        "encoding": "inplace",
        "label": "struct BCTypes.EventTracker",
        "members": [
          {
            "astId": 5157,
            "contract": "contracts/BCGames.sol:BCGames",
            "label": "bugEvents",
            "offset": 0,
            "slot": "0",
            "type": "t_uint8"
          },
          {
            "astId": 5159,
            "contract": "contracts/BCGames.sol:BCGames",
            "label": "mysteryEvents",
            "offset": 1,
            "slot": "0",
            "type": "t_uint8"
          },
          {
            "astId": 5161,
            "contract": "contracts/BCGames.sol:BCGames",
            "label": "scavEvents",
            "offset": 2,
            "slot": "0",
            "type": "t_uint8"
          },
          {
            "astId": 5163,
            "contract": "contracts/BCGames.sol:BCGames",
            "label": "shipEvents",
            "offset": 3,
            "slot": "0",
            "type": "t_uint8"
          }
        ],
        "numberOfBytes": "32"
      },
      "t_struct(Game)5251_storage": {
        "encoding": "inplace",
        "label": "struct BCTypes.Game",
        "members": [
          {
            "astId": 5225,
            "contract": "contracts/BCGames.sol:BCGames",
            "label": "active",
            "offset": 0,
            "slot": "0",
            "type": "t_bool"
          },
          {
            "astId": 5228,
            "contract": "contracts/BCGames.sol:BCGames",
            "label": "playerIndexes",
            "offset": 0,
            "slot": "1",
            "type": "t_array(t_uint256)dyn_storage"
          },
          {
            "astId": 5230,
            "contract": "contracts/BCGames.sol:BCGames",
            "label": "currentPlayerTurnIndex",
            "offset": 0,
            "slot": "2",
            "type": "t_uint256"
          },
          {
            "astId": 5232,
            "contract": "contracts/BCGames.sol:BCGames",
            "label": "numPlayers",
            "offset": 0,
            "slot": "3",
            "type": "t_uint256"
          },
          {
            "astId": 5234,
            "contract": "contracts/BCGames.sol:BCGames",
            "label": "turnsTaken",
            "offset": 0,
            "slot": "4",
            "type": "t_uint256"
          },
          {
            "astId": 5237,
            "contract": "contracts/BCGames.sol:BCGames",
            "label": "eventTracker",
            "offset": 0,
            "slot": "5",
            "type": "t_struct(EventTracker)5164_storage"
          },
          {
            "astId": 5239,
            "contract": "contracts/BCGames.sol:BCGames",
            "label": "mapContract",
            "offset": 0,
            "slot": "6",
            "type": "t_address"
          },
          {
            "astId": 5241,
            "contract": "contracts/BCGames.sol:BCGames",
            "label": "mapId",
            "offset": 0,
            "slot": "7",
            "type": "t_uint256"
          },
          {
            "astId": 5243,
            "contract": "contracts/BCGames.sol:BCGames",
            "label": "eventPlayerId",
            "offset": 0,
            "slot": "8",
            "type": "t_uint256"
          },
          {
            "astId": 5245,
            "contract": "contracts/BCGames.sol:BCGames",
            "label": "eventNumber",
            "offset": 0,
            "slot": "9",
            "type": "t_uint256"
          },
          {
            "astId": 5247,
            "contract": "contracts/BCGames.sol:BCGames",
            "label": "eventIsTile",
            "offset": 0,
            "slot": "10",
            "type": "t_bool"
          },
          {
            "astId": 5250,
            "contract": "contracts/BCGames.sol:BCGames",
            "label": "eventPosition",
            "offset": 0,
            "slot": "11",
            "type": "t_struct(Position)5169_storage"
          }
        ],
        "numberOfBytes": "384"
      },
      "t_struct(Player)5145_storage": {
        "encoding": "inplace",
        "label": "struct BCTypes.Player",
        "members": [
          {
            "astId": 5117,
            "contract": "contracts/BCGames.sol:BCGames",
            "label": "owner",
            "offset": 0,
            "slot": "0",
            "type": "t_address"
          },
          {
            "astId": 5119,
            "contract": "contracts/BCGames.sol:BCGames",
            "label": "charContractAddress",
            "offset": 0,
            "slot": "1",
            "type": "t_address"
          },
          {
            "astId": 5121,
            "contract": "contracts/BCGames.sol:BCGames",
            "label": "characterId",
            "offset": 0,
            "slot": "2",
            "type": "t_uint256"
          },
          {
            "astId": 5124,
            "contract": "contracts/BCGames.sol:BCGames",
            "label": "position",
            "offset": 0,
            "slot": "3",
            "type": "t_struct(Position)5169_storage"
          },
          {
            "astId": 5126,
            "contract": "contracts/BCGames.sol:BCGames",
            "label": "healthDmgTaken",
            "offset": 0,
            "slot": "4",
            "type": "t_int8"
          },
          {
            "astId": 5128,
            "contract": "contracts/BCGames.sol:BCGames",
            "label": "armorDmgTaken",
            "offset": 1,
            "slot": "4",
            "type": "t_uint8"
          },
          {
            "astId": 5130,
            "contract": "contracts/BCGames.sol:BCGames",
            "label": "actionsTaken",
            "offset": 2,
            "slot": "4",
            "type": "t_uint8"
          },
          {
            "astId": 5132,
            "contract": "contracts/BCGames.sol:BCGames",
            "label": "dataTokens",
            "offset": 3,
            "slot": "4",
            "type": "t_uint8"
          },
          {
            "astId": 5135,
            "contract": "contracts/BCGames.sol:BCGames",
            "label": "currentEffects",
            "offset": 0,
            "slot": "5",
            "type": "t_array(t_uint8)dyn_storage"
          },
          {
            "astId": 5138,
            "contract": "contracts/BCGames.sol:BCGames",
            "label": "inventoryIDs",
            "offset": 0,
            "slot": "6",
            "type": "t_array(t_uint8)dyn_storage"
          },
          {
            "astId": 5140,
            "contract": "contracts/BCGames.sol:BCGames",
            "label": "canHarmOthers",
            "offset": 0,
            "slot": "7",
            "type": "t_bool"
          },
          {
            "astId": 5142,
            "contract": "contracts/BCGames.sol:BCGames",
            "label": "dead",
            "offset": 1,
            "slot": "7",
            "type": "t_bool"
          },
          {
            "astId": 5144,
            "contract": "contracts/BCGames.sol:BCGames",
            "label": "hasEgg",
            "offset": 2,
            "slot": "7",
            "type": "t_bool"
          }
        ],
        "numberOfBytes": "256"
      },
      "t_struct(Position)5169_storage": {
        "encoding": "inplace",
        "label": "struct BCTypes.Position",
        "members": [
          {
            "astId": 5166,
            "contract": "contracts/BCGames.sol:BCGames",
            "label": "row",
            "offset": 0,
            "slot": "0",
            "type": "t_uint8"
          },
          {
            "astId": 5168,
            "contract": "contracts/BCGames.sol:BCGames",
            "label": "col",
            "offset": 1,
            "slot": "0",
            "type": "t_uint8"
          }
        ],
        "numberOfBytes": "32"
      },
      "t_uint256": {
        "encoding": "inplace",
        "label": "uint256",
        "numberOfBytes": "32"
      },
      "t_uint8": {
        "encoding": "inplace",
        "label": "uint8",
        "numberOfBytes": "1"
      }
    }
  }
}