{
  "address": "0x488116464D43829678d0E387D11362901FDe83e6",
  "abi": [
    {
      "inputs": [],
      "stateMutability": "nonpayable",
      "type": "constructor"
    },
    {
      "anonymous": false,
      "inputs": [
        {
          "indexed": true,
          "internalType": "address",
          "name": "previousOwner",
          "type": "address"
        },
        {
          "indexed": true,
          "internalType": "address",
          "name": "newOwner",
          "type": "address"
        }
      ],
      "name": "OwnershipTransferred",
      "type": "event"
    },
    {
      "inputs": [],
      "name": "StartLocation",
      "outputs": [
        {
          "internalType": "uint8",
          "name": "row",
          "type": "uint8"
        },
        {
          "internalType": "uint8",
          "name": "col",
          "type": "uint8"
        }
      ],
      "stateMutability": "view",
      "type": "function"
    },
    {
      "inputs": [],
      "name": "actionsAddress",
      "outputs": [
        {
          "internalType": "address",
          "name": "",
          "type": "address"
        }
      ],
      "stateMutability": "view",
      "type": "function"
    },
    {
      "inputs": [
        {
          "internalType": "address",
          "name": "",
          "type": "address"
        },
        {
          "internalType": "uint256",
          "name": "",
          "type": "uint256"
        }
      ],
      "name": "addressToGame",
      "outputs": [
        {
          "internalType": "uint256",
          "name": "",
          "type": "uint256"
        }
      ],
      "stateMutability": "view",
      "type": "function"
    },
    {
      "inputs": [],
      "name": "bcEvents",
      "outputs": [
        {
          "internalType": "contract EventsInterface",
          "name": "",
          "type": "address"
        }
      ],
      "stateMutability": "view",
      "type": "function"
    },
    {
      "inputs": [],
      "name": "chars",
      "outputs": [
        {
          "internalType": "contract CharInterface",
          "name": "",
          "type": "address"
        }
      ],
      "stateMutability": "view",
      "type": "function"
    },
    {
      "inputs": [],
      "name": "charsAddress",
      "outputs": [
        {
          "internalType": "address",
          "name": "",
          "type": "address"
        }
      ],
      "stateMutability": "view",
      "type": "function"
    },
    {
      "inputs": [
        {
          "internalType": "uint256",
          "name": "_gameId",
          "type": "uint256"
        },
        {
          "internalType": "uint256",
          "name": "_playerId",
          "type": "uint256"
        }
      ],
      "name": "endPlayerAction",
      "outputs": [],
      "stateMutability": "nonpayable",
      "type": "function"
    },
    {
      "inputs": [
        {
          "internalType": "uint256",
          "name": "_id",
          "type": "uint256"
        }
      ],
      "name": "extGetGame",
      "outputs": [
        {
          "components": [
            {
              "internalType": "bool",
              "name": "active",
              "type": "bool"
            },
            {
              "internalType": "uint256[]",
              "name": "playerIndexes",
              "type": "uint256[]"
            },
            {
              "internalType": "uint256",
              "name": "currentPlayerTurnIndex",
              "type": "uint256"
            },
            {
              "internalType": "uint256",
              "name": "numPlayers",
              "type": "uint256"
            },
            {
              "internalType": "uint256",
              "name": "turnsTaken",
              "type": "uint256"
            },
            {
              "components": [
                {
                  "internalType": "uint8",
                  "name": "bugEvents",
                  "type": "uint8"
                },
                {
                  "internalType": "uint8",
                  "name": "mysteryEvents",
                  "type": "uint8"
                },
                {
                  "internalType": "uint8",
                  "name": "scavEvents",
                  "type": "uint8"
                },
                {
                  "internalType": "uint8",
                  "name": "shipEvents",
                  "type": "uint8"
                }
              ],
              "internalType": "struct BCTypes.EventTracker",
              "name": "eventTracker",
              "type": "tuple"
            },
            {
              "internalType": "address",
              "name": "mapContract",
              "type": "address"
            },
            {
              "internalType": "uint256",
              "name": "mapId",
              "type": "uint256"
            },
            {
              "internalType": "uint256",
              "name": "eventPlayerId",
              "type": "uint256"
            },
            {
              "internalType": "uint256",
              "name": "eventNumber",
              "type": "uint256"
            },
            {
              "internalType": "bool",
              "name": "eventIsTile",
              "type": "bool"
            },
            {
              "components": [
                {
                  "internalType": "uint8",
                  "name": "row",
                  "type": "uint8"
                },
                {
                  "internalType": "uint8",
                  "name": "col",
                  "type": "uint8"
                }
              ],
              "internalType": "struct BCTypes.Position",
              "name": "eventPosition",
              "type": "tuple"
            }
          ],
          "internalType": "struct BCTypes.Game",
          "name": "",
          "type": "tuple"
        }
      ],
      "stateMutability": "view",
      "type": "function"
    },
    {
      "inputs": [
        {
          "internalType": "uint256",
          "name": "_gameId",
          "type": "uint256"
        }
      ],
      "name": "extGetGamePlayerIndexes",
      "outputs": [
        {
          "internalType": "uint256[]",
          "name": "",
          "type": "uint256[]"
        }
      ],
      "stateMutability": "view",
      "type": "function"
    },
    {
      "inputs": [
        {
          "internalType": "address",
          "name": "_playerAddress",
          "type": "address"
        }
      ],
      "name": "extGetGamesOfPlayer",
      "outputs": [
        {
          "internalType": "uint256[]",
          "name": "",
          "type": "uint256[]"
        }
      ],
      "stateMutability": "view",
      "type": "function"
    },
    {
      "inputs": [
        {
          "internalType": "uint256",
          "name": "_gameId",
          "type": "uint256"
        },
        {
          "components": [
            {
              "internalType": "uint8",
              "name": "row",
              "type": "uint8"
            },
            {
              "internalType": "uint8",
              "name": "col",
              "type": "uint8"
            }
          ],
          "internalType": "struct BCTypes.Position",
          "name": "_position",
          "type": "tuple"
        },
        {
          "internalType": "uint256",
          "name": "_playerId",
          "type": "uint256"
        }
      ],
      "name": "extMovePlayer",
      "outputs": [],
      "stateMutability": "nonpayable",
      "type": "function"
    },
    {
      "inputs": [
        {
          "internalType": "uint256",
          "name": "",
          "type": "uint256"
        }
      ],
      "name": "games",
      "outputs": [
        {
          "internalType": "bool",
          "name": "active",
          "type": "bool"
        },
        {
          "internalType": "uint256",
          "name": "currentPlayerTurnIndex",
          "type": "uint256"
        },
        {
          "internalType": "uint256",
          "name": "numPlayers",
          "type": "uint256"
        },
        {
          "internalType": "uint256",
          "name": "turnsTaken",
          "type": "uint256"
        },
        {
          "components": [
            {
              "internalType": "uint8",
              "name": "bugEvents",
              "type": "uint8"
            },
            {
              "internalType": "uint8",
              "name": "mysteryEvents",
              "type": "uint8"
            },
            {
              "internalType": "uint8",
              "name": "scavEvents",
              "type": "uint8"
            },
            {
              "internalType": "uint8",
              "name": "shipEvents",
              "type": "uint8"
            }
          ],
          "internalType": "struct BCTypes.EventTracker",
          "name": "eventTracker",
          "type": "tuple"
        },
        {
          "internalType": "address",
          "name": "mapContract",
          "type": "address"
        },
        {
          "internalType": "uint256",
          "name": "mapId",
          "type": "uint256"
        },
        {
          "internalType": "uint256",
          "name": "eventPlayerId",
          "type": "uint256"
        },
        {
          "internalType": "uint256",
          "name": "eventNumber",
          "type": "uint256"
        },
        {
          "internalType": "bool",
          "name": "eventIsTile",
          "type": "bool"
        },
        {
          "components": [
            {
              "internalType": "uint8",
              "name": "row",
              "type": "uint8"
            },
            {
              "internalType": "uint8",
              "name": "col",
              "type": "uint8"
            }
          ],
          "internalType": "struct BCTypes.Position",
          "name": "eventPosition",
          "type": "tuple"
        }
      ],
      "stateMutability": "view",
      "type": "function"
    },
    {
      "inputs": [],
      "name": "items",
      "outputs": [
        {
          "internalType": "contract ItemsInterface",
          "name": "",
          "type": "address"
        }
      ],
      "stateMutability": "view",
      "type": "function"
    },
    {
      "inputs": [],
      "name": "lobbiesAddress",
      "outputs": [
        {
          "internalType": "address",
          "name": "",
          "type": "address"
        }
      ],
      "stateMutability": "view",
      "type": "function"
    },
    {
      "inputs": [],
      "name": "maps",
      "outputs": [
        {
          "internalType": "contract MapInterface",
          "name": "",
          "type": "address"
        }
      ],
      "stateMutability": "view",
      "type": "function"
    },
    {
      "inputs": [],
      "name": "owner",
      "outputs": [
        {
          "internalType": "address",
          "name": "",
          "type": "address"
        }
      ],
      "stateMutability": "view",
      "type": "function"
    },
    {
      "inputs": [],
      "name": "players",
      "outputs": [
        {
          "internalType": "contract PlayersInterface",
          "name": "",
          "type": "address"
        }
      ],
      "stateMutability": "view",
      "type": "function"
    },
    {
      "inputs": [],
      "name": "renounceOwnership",
      "outputs": [],
      "stateMutability": "nonpayable",
      "type": "function"
    },
    {
      "inputs": [
        {
          "internalType": "uint256",
          "name": "_gameId",
          "type": "uint256"
        },
        {
          "internalType": "uint256",
          "name": "_choice",
          "type": "uint256"
        }
      ],
      "name": "resolveEvent",
      "outputs": [],
      "stateMutability": "nonpayable",
      "type": "function"
    },
    {
      "inputs": [
        {
          "internalType": "address",
          "name": "_charAddress",
          "type": "address"
        },
        {
          "internalType": "address",
          "name": "_utilsAddress",
          "type": "address"
        },
        {
          "internalType": "address",
          "name": "_mapsAddress",
          "type": "address"
        },
        {
          "internalType": "address",
          "name": "_lobbiesAddress",
          "type": "address"
        },
        {
          "internalType": "address",
          "name": "_actionsAddress",
          "type": "address"
        },
        {
          "internalType": "address",
          "name": "_eventsAddress",
          "type": "address"
        },
        {
          "internalType": "address",
          "name": "_itemsAddress",
          "type": "address"
        },
        {
          "internalType": "address",
          "name": "_playersAddress",
          "type": "address"
        }
      ],
      "name": "setContractAddresses",
      "outputs": [],
      "stateMutability": "nonpayable",
      "type": "function"
    },
    {
      "inputs": [
        {
          "internalType": "uint256[]",
          "name": "_playerIndexes",
          "type": "uint256[]"
        },
        {
          "internalType": "uint256",
          "name": "_numPlayers",
          "type": "uint256"
        },
        {
          "internalType": "uint256",
          "name": "_debugRoomId",
          "type": "uint256"
        }
      ],
      "name": "startGame",
      "outputs": [
        {
          "internalType": "uint256",
          "name": "",
          "type": "uint256"
        }
      ],
      "stateMutability": "nonpayable",
      "type": "function"
    },
    {
      "inputs": [
        {
          "internalType": "address",
          "name": "newOwner",
          "type": "address"
        }
      ],
      "name": "transferOwnership",
      "outputs": [],
      "stateMutability": "nonpayable",
      "type": "function"
    },
    {
      "inputs": [],
      "name": "utils",
      "outputs": [
        {
          "internalType": "contract UtilsInterface",
          "name": "",
          "type": "address"
        }
      ],
      "stateMutability": "view",
      "type": "function"
    }
  ],
  "transactionHash": "0x6090e1359967641602b37458fabbc53511f52c44b8ed9e0c8ae32dc46360be3b",
  "args": [],
  "numDeployments": 1,
  "solcInputHash": "69f104f7ab54265cf2f4f56c57cecebe",
  "bytecode": "0x60806040526040518060400160405280600a60ff168152602001600660ff16815250600a60008201518160000160006101000a81548160ff021916908360ff16021790555060208201518160000160016101000a81548160ff021916908360ff16021790555050503480156200007457600080fd5b5062000095620000896200009b60201b60201c565b620000a360201b60201c565b62000167565b600033905090565b60008060009054906101000a900473ffffffffffffffffffffffffffffffffffffffff169050816000806101000a81548173ffffffffffffffffffffffffffffffffffffffff021916908373ffffffffffffffffffffffffffffffffffffffff1602179055508173ffffffffffffffffffffffffffffffffffffffff168173ffffffffffffffffffffffffffffffffffffffff167f8be0079c531659141344cd1fd0a4f28419497f9722a3daafe3b4186f6b6457e060405160405180910390a35050565b613e7880620001776000396000f3fe608060405234801561001057600080fd5b506004361061014d5760003560e01c80637b45c0d4116100c3578063afd62bb21161007c578063afd62bb214610386578063c06fad06146103b6578063dc0b3564146103d4578063dc769ee8146103f2578063f101de9a14610411578063f2fde38b146104415761014d565b80637b45c0d4146102c25780637ddae103146102e05780638da5cb5b146102fe578063921d27991461031c5780639fca1ee114610338578063a99d2a8b146103565761014d565b806340d4fd781161011557806340d4fd78146102025780635a29638d1461023257806360fe842e1461025057806364f664671461026c5780636fe99c1814610288578063715018a6146102b85761014d565b806310a2cd0d14610152578063117a5b901461017057806317514225146101aa578063336d7d7b146101c65780633deaec2b146101e4575b600080fd5b61015a61045d565b604051610167919061243b565b60405180910390f35b61018a600480360381019061018591906124a0565b610483565b6040516101a19b9a999897969594939291906125b8565b60405180910390f35b6101c460048036038101906101bf9190612778565b6105e9565b005b6101ce610689565b6040516101db91906127cb565b60405180910390f35b6101ec6106af565b6040516101f99190612807565b60405180910390f35b61021c600480360381019061021791906124a0565b6106d5565b60405161022991906128e0565b60405180910390f35b61023a6107d6565b6040516102479190612923565b60405180910390f35b61026a6004803603810190610265919061293e565b6107fc565b005b6102866004803603810190610281919061293e565b610ade565b005b6102a2600480360381019061029d91906124a0565b610bf3565b6040516102af9190612b95565b60405180910390f35b6102c0610e26565b005b6102ca610e3a565b6040516102d791906127cb565b60405180910390f35b6102e8610e60565b6040516102f59190612bd8565b60405180910390f35b610306610e86565b60405161031391906127cb565b60405180910390f35b61033660048036038101906103319190612c1f565b610eaf565b005b6103406110c9565b60405161034d91906127cb565b60405180910390f35b610370600480360381019061036b9190612cd5565b6110ef565b60405161037d9190612d15565b60405180910390f35b6103a0600480360381019061039b9190612d30565b611120565b6040516103ad91906128e0565b60405180910390f35b6103be611255565b6040516103cb9190612d7e565b60405180910390f35b6103dc61127b565b6040516103e99190612dba565b60405180910390f35b6103fa6112a1565b604051610408929190612de4565b60405180910390f35b61042b60048036038101906104269190612eda565b6112cd565b6040516104389190612d15565b60405180910390f35b61045b60048036038101906104569190612d30565b611829565b005b600160009054906101000a900473ffffffffffffffffffffffffffffffffffffffff1681565b600b818154811061049357600080fd5b90600052602060002090600c02016000915090508060000160009054906101000a900460ff1690806002015490806003015490806004015490806005016040518060800160405290816000820160009054906101000a900460ff1660ff1660ff1681526020016000820160019054906101000a900460ff1660ff1660ff1681526020016000820160029054906101000a900460ff1660ff1660ff1681526020016000820160039054906101000a900460ff1660ff1660ff1681525050908060060160009054906101000a900473ffffffffffffffffffffffffffffffffffffffff169080600701549080600801549080600901549080600a0160009054906101000a900460ff169080600b016040518060400160405290816000820160009054906101000a900460ff1660ff1660ff1681526020016000820160019054906101000a900460ff1660ff1660ff168152505090508b565b600960009054906101000a900473ffffffffffffffffffffffffffffffffffffffff1673ffffffffffffffffffffffffffffffffffffffff163373ffffffffffffffffffffffffffffffffffffffff1614610679576040517f08c379a000000000000000000000000000000000000000000000000000000000815260040161067090612fa6565b60405180910390fd5b6106848383836118ac565b505050565b600760009054906101000a900473ffffffffffffffffffffffffffffffffffffffff1681565b600360009054906101000a900473ffffffffffffffffffffffffffffffffffffffff1681565b60606000600b83815481106106ed576106ec612fc6565b5b90600052602060002090600c02016001018054905067ffffffffffffffff81111561071b5761071a61267c565b5b6040519080825280602002602001820160405280156107495781602001602082028036833780820191505090505b50905060005b81518110156107cc57600b848154811061076c5761076b612fc6565b5b90600052602060002090600c0201600101818154811061078f5761078e612fc6565b5b90600052602060002001548282815181106107ad576107ac612fc6565b5b60200260200101818152505080806107c490613024565b91505061074f565b5080915050919050565b600260009054906101000a900473ffffffffffffffffffffffffffffffffffffffff1681565b600960009054906101000a900473ffffffffffffffffffffffffffffffffffffffff1673ffffffffffffffffffffffffffffffffffffffff163373ffffffffffffffffffffffffffffffffffffffff161461088c576040517f08c379a000000000000000000000000000000000000000000000000000000000815260040161088390612fa6565b60405180910390fd5b600660009054906101000a900473ffffffffffffffffffffffffffffffffffffffff1673ffffffffffffffffffffffffffffffffffffffff1663ce932297826040518263ffffffff1660e01b81526004016108e79190612d15565b600060405180830381600087803b15801561090157600080fd5b505af1158015610915573d6000803e3d6000fd5b505050506000600660009054906101000a900473ffffffffffffffffffffffffffffffffffffffff1673ffffffffffffffffffffffffffffffffffffffff166310f67fb3836040518263ffffffff1660e01b81526004016109769190612d15565b600060405180830381865afa158015610993573d6000803e3d6000fd5b505050506040513d6000823e3d601f19601f820116820180604052508101906109bc9190613394565b90506000600b84815481106109d4576109d3612fc6565b5b90600052602060002090600c0201905060038260c0015160ff1610610ad857600660009054906101000a900473ffffffffffffffffffffffffffffffffffffffff1673ffffffffffffffffffffffffffffffffffffffff166365c363f0846040518263ffffffff1660e01b8152600401610a4e9190612d15565b600060405180830381600087803b158015610a6857600080fd5b505af1158015610a7c573d6000803e3d6000fd5b5050505060018160010180549050610a9491906133dd565b81600201541015610abe57806002016000815480929190610ab490613024565b9190505550610ad7565b610acc848260070154611f4f565b600081600201819055505b5b50505050565b6000600b8381548110610af457610af3612fc6565b5b90600052602060002090600c02019050600660009054906101000a900473ffffffffffffffffffffffffffffffffffffffff1673ffffffffffffffffffffffffffffffffffffffff16638f0aa2dd83836008015486856007015486600b01876009015488600a0160009054906101000a900460ff166040518863ffffffff1660e01b8152600401610b8b97969594939291906134ac565b600060405180830381600087803b158015610ba557600080fd5b505af1158015610bb9573d6000803e3d6000fd5b505050506000816008018190555060008160090181905550600081600a0160006101000a81548160ff021916908315150217905550505050565b610bfb612277565b600b8281548110610c0f57610c0e612fc6565b5b90600052602060002090600c0201604051806101800160405290816000820160009054906101000a900460ff1615151515815260200160018201805480602002602001604051908101604052809291908181526020018280548015610c9357602002820191906000526020600020905b815481526020019060010190808311610c7f575b50505050508152602001600282015481526020016003820154815260200160048201548152602001600582016040518060800160405290816000820160009054906101000a900460ff1660ff1660ff1681526020016000820160019054906101000a900460ff1660ff1660ff1681526020016000820160029054906101000a900460ff1660ff1660ff1681526020016000820160039054906101000a900460ff1660ff1660ff168152505081526020016006820160009054906101000a900473ffffffffffffffffffffffffffffffffffffffff1673ffffffffffffffffffffffffffffffffffffffff1673ffffffffffffffffffffffffffffffffffffffff168152602001600782015481526020016008820154815260200160098201548152602001600a820160009054906101000a900460ff16151515158152602001600b82016040518060400160405290816000820160009054906101000a900460ff1660ff1660ff1681526020016000820160019054906101000a900460ff1660ff1660ff1681525050815250509050919050565b610e2e61212d565b610e3860006121ab565b565b600960009054906101000a900473ffffffffffffffffffffffffffffffffffffffff1681565b600460009054906101000a900473ffffffffffffffffffffffffffffffffffffffff1681565b60008060009054906101000a900473ffffffffffffffffffffffffffffffffffffffff16905090565b610eb761212d565b87600160006101000a81548173ffffffffffffffffffffffffffffffffffffffff021916908373ffffffffffffffffffffffffffffffffffffffff16021790555086600260006101000a81548173ffffffffffffffffffffffffffffffffffffffff021916908373ffffffffffffffffffffffffffffffffffffffff16021790555085600360006101000a81548173ffffffffffffffffffffffffffffffffffffffff021916908373ffffffffffffffffffffffffffffffffffffffff16021790555084600760006101000a81548173ffffffffffffffffffffffffffffffffffffffff021916908373ffffffffffffffffffffffffffffffffffffffff16021790555083600960006101000a81548173ffffffffffffffffffffffffffffffffffffffff021916908373ffffffffffffffffffffffffffffffffffffffff16021790555082600460006101000a81548173ffffffffffffffffffffffffffffffffffffffff021916908373ffffffffffffffffffffffffffffffffffffffff16021790555081600560006101000a81548173ffffffffffffffffffffffffffffffffffffffff021916908373ffffffffffffffffffffffffffffffffffffffff16021790555080600660006101000a81548173ffffffffffffffffffffffffffffffffffffffff021916908373ffffffffffffffffffffffffffffffffffffffff1602179055505050505050505050565b600860009054906101000a900473ffffffffffffffffffffffffffffffffffffffff1681565b600c602052816000526040600020818154811061110b57600080fd5b90600052602060002001600091509150505481565b60606000600c60008473ffffffffffffffffffffffffffffffffffffffff1673ffffffffffffffffffffffffffffffffffffffff1681526020019081526020016000208054905067ffffffffffffffff8111156111805761117f61267c565b5b6040519080825280602002602001820160405280156111ae5781602001602082028036833780820191505090505b50905060005b815181101561124b57600c60008573ffffffffffffffffffffffffffffffffffffffff1673ffffffffffffffffffffffffffffffffffffffff168152602001908152602001600020818154811061120e5761120d612fc6565b5b906000526020600020015482828151811061122c5761122b612fc6565b5b602002602001018181525050808061124390613024565b9150506111b4565b5080915050919050565b600560009054906101000a900473ffffffffffffffffffffffffffffffffffffffff1681565b600660009054906101000a900473ffffffffffffffffffffffffffffffffffffffff1681565b600a8060000160009054906101000a900460ff16908060000160019054906101000a900460ff16905082565b6000600760009054906101000a900473ffffffffffffffffffffffffffffffffffffffff1673ffffffffffffffffffffffffffffffffffffffff163373ffffffffffffffffffffffffffffffffffffffff161461135f576040517f08c379a000000000000000000000000000000000000000000000000000000000815260040161135690613568565b60405180910390fd5b6000600b6001816001815401808255809150500390600052602060002090600c0201905060018160000160006101000a81548160ff02191690831515021790555060008160040181905550848160010190805190602001906113c29291906122fe565b508381600301819055506040518060800160405280600060ff168152602001600060ff168152602001600060ff168152602001600060ff168152508160050160008201518160000160006101000a81548160ff021916908360ff16021790555060208201518160000160016101000a81548160ff021916908360ff16021790555060408201518160000160026101000a81548160ff021916908360ff16021790555060608201518160000160036101000a81548160ff021916908360ff160217905550905050600360009054906101000a900473ffffffffffffffffffffffffffffffffffffffff168160060160006101000a81548173ffffffffffffffffffffffffffffffffffffffff021916908373ffffffffffffffffffffffffffffffffffffffff1602179055506000830361159557600360009054906101000a900473ffffffffffffffffffffffffffffffffffffffff1673ffffffffffffffffffffffffffffffffffffffff1663f01fc35a6040518163ffffffff1660e01b81526004016020604051808303816000875af1158015611564573d6000803e3d6000fd5b505050506040513d601f19601f820116820180604052508101906115889190613588565b816007018190555061163c565b600360009054906101000a900473ffffffffffffffffffffffffffffffffffffffff1673ffffffffffffffffffffffffffffffffffffffff1663523814bc846040518263ffffffff1660e01b81526004016115f09190612d15565b6020604051808303816000875af115801561160f573d6000803e3d6000fd5b505050506040513d601f19601f820116820180604052508101906116339190613588565b81600701819055505b60005b60018561164c91906133dd565b811161180c576116c78260070154600a6040518060400160405290816000820160009054906101000a900460ff1660ff1660ff1681526020016000820160019054906101000a900460ff1660ff1660ff16815250508460010184815481106116b7576116b6612fc6565b5b90600052602060002001546118ac565b6000600660009054906101000a900473ffffffffffffffffffffffffffffffffffffffff1673ffffffffffffffffffffffffffffffffffffffff16636621a42188848151811061171a57611719612fc6565b5b60200260200101516040518263ffffffff1660e01b815260040161173e9190612d15565b602060405180830381865afa15801561175b573d6000803e3d6000fd5b505050506040513d601f19601f8201168201806040525081019061177f91906135b5565b9050600c60008273ffffffffffffffffffffffffffffffffffffffff1673ffffffffffffffffffffffffffffffffffffffff1681526020019081526020016000206001600b805490506117d291906133dd565b908060018154018082558091505060019003906000526020600020016000909190919091505550808061180490613024565b91505061163f565b506001600b8054905061181f91906133dd565b9150509392505050565b61183161212d565b600073ffffffffffffffffffffffffffffffffffffffff168173ffffffffffffffffffffffffffffffffffffffff16036118a0576040517f08c379a000000000000000000000000000000000000000000000000000000000815260040161189790613654565b60405180910390fd5b6118a9816121ab565b50565b600660009054906101000a900473ffffffffffffffffffffffffffffffffffffffff1673ffffffffffffffffffffffffffffffffffffffff16638d491b3e8383600b8781548110611900576118ff612fc6565b5b90600052602060002090600c0201600701546040518463ffffffff1660e01b815260040161193093929190613674565b6020604051808303816000875af115801561194f573d6000803e3d6000fd5b505050506040513d601f19601f8201168201806040525081019061197391906136ab565b611f4a576000600360009054906101000a900473ffffffffffffffffffffffffffffffffffffffff1673ffffffffffffffffffffffffffffffffffffffff1663471b6759600b86815481106119cb576119ca612fc6565b5b90600052602060002090600c020160070154856000015186602001516040518463ffffffff1660e01b8152600401611a0593929190613709565b6020604051808303816000875af1158015611a24573d6000803e3d6000fd5b505050506040513d601f19601f82011682018060405250810190611a489190613588565b90506002811115611f48576000600360009054906101000a900473ffffffffffffffffffffffffffffffffffffffff1673ffffffffffffffffffffffffffffffffffffffff166358058283600b8781548110611aa757611aa6612fc6565b5b90600052602060002090600c020160070154846040518363ffffffff1660e01b8152600401611ad7929190613740565b60a060405180830381865afa158015611af4573d6000803e3d6000fd5b505050506040513d601f19601f82011682018060405250810190611b18919061381a565b905060016004811115611b2e57611b2d613847565b5b81600001516004811115611b4557611b44613847565b5b03611ba957600b8581548110611b5e57611b5d612fc6565b5b90600052602060002090600c0201600501600001600081819054906101000a900460ff1680929190611b8f90613876565b91906101000a81548160ff021916908360ff160217905550505b60026004811115611bbd57611bbc613847565b5b81600001516004811115611bd457611bd3613847565b5b03611c3857600b8581548110611bed57611bec612fc6565b5b90600052602060002090600c0201600501600001600181819054906101000a900460ff1680929190611c1e90613876565b91906101000a81548160ff021916908360ff160217905550505b60036004811115611c4c57611c4b613847565b5b81600001516004811115611c6357611c62613847565b5b03611cc757600b8581548110611c7c57611c7b612fc6565b5b90600052602060002090600c0201600501600001600281819054906101000a900460ff1680929190611cad90613876565b91906101000a81548160ff021916908360ff160217905550505b600480811115611cda57611cd9613847565b5b81600001516004811115611cf157611cf0613847565b5b03611d5557600b8581548110611d0a57611d09612fc6565b5b90600052602060002090600c0201600501600001600381819054906101000a900460ff1680929190611d3b90613876565b91906101000a81548160ff021916908360ff160217905550505b600081602001511115611f18576000600460009054906101000a900473ffffffffffffffffffffffffffffffffffffffff1673ffffffffffffffffffffffffffffffffffffffff1663c82c37b983602001516040518263ffffffff1660e01b8152600401611dc39190612d15565b610a4060405180830381865afa158015611de1573d6000803e3d6000fd5b505050506040513d601f19601f82011682018060405250810190611e059190613c4b565b90508060200151611f125783600b8781548110611e2557611e24612fc6565b5b90600052602060002090600c0201600801819055508160200151600b8781548110611e5357611e52612fc6565b5b90600052602060002090600c0201600901819055506001600b8781548110611e7e57611e7d612fc6565b5b90600052602060002090600c0201600a0160006101000a81548160ff02191690831515021790555084600b8781548110611ebb57611eba612fc6565b5b90600052602060002090600c0201600b0160008201518160000160006101000a81548160ff021916908360ff16021790555060208201518160000160016101000a81548160ff021916908360ff1602179055509050505b50611f46565b60006004811115611f2c57611f2b613847565b5b81600001516004811115611f4357611f42613847565b5b50505b505b505b505050565b6000600b8381548110611f6557611f64612fc6565b5b90600052602060002090600c02019050600360009054906101000a900473ffffffffffffffffffffffffffffffffffffffff1673ffffffffffffffffffffffffffffffffffffffff166358308aa8836040518263ffffffff1660e01b8152600401611fd09190612d15565b600060405180830381600087803b158015611fea57600080fd5b505af1158015611ffe573d6000803e3d6000fd5b50505050600360009054906101000a900473ffffffffffffffffffffffffffffffffffffffff1673ffffffffffffffffffffffffffffffffffffffff1663c6b41b458360016040518363ffffffff1660e01b8152600401612060929190613cb4565b600060405180830381600087803b15801561207a57600080fd5b505af115801561208e573d6000803e3d6000fd5b50505050600660009054906101000a900473ffffffffffffffffffffffffffffffffffffffff1673ffffffffffffffffffffffffffffffffffffffff1663668a7f3b8260070154836001016040518363ffffffff1660e01b81526004016120f6929190613da6565b600060405180830381600087803b15801561211057600080fd5b505af1158015612124573d6000803e3d6000fd5b50505050505050565b61213561226f565b73ffffffffffffffffffffffffffffffffffffffff16612153610e86565b73ffffffffffffffffffffffffffffffffffffffff16146121a9576040517f08c379a00000000000000000000000000000000000000000000000000000000081526004016121a090613e22565b60405180910390fd5b565b60008060009054906101000a900473ffffffffffffffffffffffffffffffffffffffff169050816000806101000a81548173ffffffffffffffffffffffffffffffffffffffff021916908373ffffffffffffffffffffffffffffffffffffffff1602179055508173ffffffffffffffffffffffffffffffffffffffff168173ffffffffffffffffffffffffffffffffffffffff167f8be0079c531659141344cd1fd0a4f28419497f9722a3daafe3b4186f6b6457e060405160405180910390a35050565b600033905090565b604051806101800160405280600015158152602001606081526020016000815260200160008152602001600081526020016122b061234b565b8152602001600073ffffffffffffffffffffffffffffffffffffffff1681526020016000815260200160008152602001600081526020016000151581526020016122f861237f565b81525090565b82805482825590600052602060002090810192821561233a579160200282015b8281111561233957825182559160200191906001019061231e565b5b509050612347919061239f565b5090565b6040518060800160405280600060ff168152602001600060ff168152602001600060ff168152602001600060ff1681525090565b6040518060400160405280600060ff168152602001600060ff1681525090565b5b808211156123b85760008160009055506001016123a0565b5090565b600073ffffffffffffffffffffffffffffffffffffffff82169050919050565b6000819050919050565b60006124016123fc6123f7846123bc565b6123dc565b6123bc565b9050919050565b6000612413826123e6565b9050919050565b600061242582612408565b9050919050565b6124358161241a565b82525050565b6000602082019050612450600083018461242c565b92915050565b6000604051905090565b600080fd5b600080fd5b6000819050919050565b61247d8161246a565b811461248857600080fd5b50565b60008135905061249a81612474565b92915050565b6000602082840312156124b6576124b5612460565b5b60006124c48482850161248b565b91505092915050565b60008115159050919050565b6124e2816124cd565b82525050565b6124f18161246a565b82525050565b600060ff82169050919050565b61250d816124f7565b82525050565b6080820160008201516125296000850182612504565b50602082015161253c6020850182612504565b50604082015161254f6040850182612504565b5060608201516125626060850182612504565b50505050565b6000612573826123bc565b9050919050565b61258381612568565b82525050565b60408201600082015161259f6000850182612504565b5060208201516125b26020850182612504565b50505050565b60006101e0820190506125ce600083018e6124d9565b6125db602083018d6124e8565b6125e8604083018c6124e8565b6125f5606083018b6124e8565b612602608083018a612513565b61261061010083018961257a565b61261e6101208301886124e8565b61262c6101408301876124e8565b61263a6101608301866124e8565b6126486101808301856124d9565b6126566101a0830184612589565b9c9b505050505050505050505050565b600080fd5b6000601f19601f8301169050919050565b7f4e487b7100000000000000000000000000000000000000000000000000000000600052604160045260246000fd5b6126b48261266b565b810181811067ffffffffffffffff821117156126d3576126d261267c565b5b80604052505050565b60006126e6612456565b90506126f282826126ab565b919050565b600080fd5b612705816124f7565b811461271057600080fd5b50565b600081359050612722816126fc565b92915050565b60006040828403121561273e5761273d612666565b5b61274860406126dc565b9050600061275884828501612713565b600083015250602061276c84828501612713565b60208301525092915050565b60008060006080848603121561279157612790612460565b5b600061279f8682870161248b565b93505060206127b086828701612728565b92505060606127c18682870161248b565b9150509250925092565b60006020820190506127e0600083018461257a565b92915050565b60006127f182612408565b9050919050565b612801816127e6565b82525050565b600060208201905061281c60008301846127f8565b92915050565b600081519050919050565b600082825260208201905092915050565b6000819050602082019050919050565b6128578161246a565b82525050565b6000612869838361284e565b60208301905092915050565b6000602082019050919050565b600061288d82612822565b612897818561282d565b93506128a28361283e565b8060005b838110156128d35781516128ba888261285d565b97506128c583612875565b9250506001810190506128a6565b5085935050505092915050565b600060208201905081810360008301526128fa8184612882565b905092915050565b600061290d82612408565b9050919050565b61291d81612902565b82525050565b60006020820190506129386000830184612914565b92915050565b6000806040838503121561295557612954612460565b5b60006129638582860161248b565b92505060206129748582860161248b565b9150509250929050565b612987816124cd565b82525050565b600082825260208201905092915050565b60006129a982612822565b6129b3818561298d565b93506129be8361283e565b8060005b838110156129ef5781516129d6888261285d565b97506129e183612875565b9250506001810190506129c2565b5085935050505092915050565b608082016000820151612a126000850182612504565b506020820151612a256020850182612504565b506040820151612a386040850182612504565b506060820151612a4b6060850182612504565b50505050565b612a5a81612568565b82525050565b604082016000820151612a766000850182612504565b506020820151612a896020850182612504565b50505050565b600061020083016000830151612aa8600086018261297e565b5060208301518482036020860152612ac0828261299e565b9150506040830151612ad5604086018261284e565b506060830151612ae8606086018261284e565b506080830151612afb608086018261284e565b5060a0830151612b0e60a08601826129fc565b5060c0830151612b22610120860182612a51565b5060e0830151612b3661014086018261284e565b50610100830151612b4b61016086018261284e565b50610120830151612b6061018086018261284e565b50610140830151612b756101a086018261297e565b50610160830151612b8a6101c0860182612a60565b508091505092915050565b60006020820190508181036000830152612baf8184612a8f565b905092915050565b6000612bc282612408565b9050919050565b612bd281612bb7565b82525050565b6000602082019050612bed6000830184612bc9565b92915050565b612bfc81612568565b8114612c0757600080fd5b50565b600081359050612c1981612bf3565b92915050565b600080600080600080600080610100898b031215612c4057612c3f612460565b5b6000612c4e8b828c01612c0a565b9850506020612c5f8b828c01612c0a565b9750506040612c708b828c01612c0a565b9650506060612c818b828c01612c0a565b9550506080612c928b828c01612c0a565b94505060a0612ca38b828c01612c0a565b93505060c0612cb48b828c01612c0a565b92505060e0612cc58b828c01612c0a565b9150509295985092959890939650565b60008060408385031215612cec57612ceb612460565b5b6000612cfa85828601612c0a565b9250506020612d0b8582860161248b565b9150509250929050565b6000602082019050612d2a60008301846124e8565b92915050565b600060208284031215612d4657612d45612460565b5b6000612d5484828501612c0a565b91505092915050565b6000612d6882612408565b9050919050565b612d7881612d5d565b82525050565b6000602082019050612d936000830184612d6f565b92915050565b6000612da482612408565b9050919050565b612db481612d99565b82525050565b6000602082019050612dcf6000830184612dab565b92915050565b612dde816124f7565b82525050565b6000604082019050612df96000830185612dd5565b612e066020830184612dd5565b9392505050565b600080fd5b600067ffffffffffffffff821115612e2d57612e2c61267c565b5b602082029050602081019050919050565b600080fd5b6000612e56612e5184612e12565b6126dc565b90508083825260208201905060208402830185811115612e7957612e78612e3e565b5b835b81811015612ea25780612e8e888261248b565b845260208401935050602081019050612e7b565b5050509392505050565b600082601f830112612ec157612ec0612e0d565b5b8135612ed1848260208601612e43565b91505092915050565b600080600060608486031215612ef357612ef2612460565b5b600084013567ffffffffffffffff811115612f1157612f10612465565b5b612f1d86828701612eac565b9350506020612f2e8682870161248b565b9250506040612f3f8682870161248b565b9150509250925092565b600082825260208201905092915050565b7f4e6f7420616374696f6e7320636f6e7472616374000000000000000000000000600082015250565b6000612f90601483612f49565b9150612f9b82612f5a565b602082019050919050565b60006020820190508181036000830152612fbf81612f83565b9050919050565b7f4e487b7100000000000000000000000000000000000000000000000000000000600052603260045260246000fd5b7f4e487b7100000000000000000000000000000000000000000000000000000000600052601160045260246000fd5b600061302f8261246a565b91507fffffffffffffffffffffffffffffffffffffffffffffffffffffffffffffffff820361306157613060612ff5565b5b600182019050919050565b60008151905061307b81612bf3565b92915050565b60008151905061309081612474565b92915050565b6000815190506130a5816126fc565b92915050565b6000604082840312156130c1576130c0612666565b5b6130cb60406126dc565b905060006130db84828501613096565b60008301525060206130ef84828501613096565b60208301525092915050565b60008160000b9050919050565b613111816130fb565b811461311c57600080fd5b50565b60008151905061312e81613108565b92915050565b600067ffffffffffffffff82111561314f5761314e61267c565b5b602082029050602081019050919050565b600061317361316e84613134565b6126dc565b9050808382526020820190506020840283018581111561319657613195612e3e565b5b835b818110156131bf57806131ab8882613096565b845260208401935050602081019050613198565b5050509392505050565b600082601f8301126131de576131dd612e0d565b5b81516131ee848260208601613160565b91505092915050565b613200816124cd565b811461320b57600080fd5b50565b60008151905061321d816131f7565b92915050565b60006101c0828403121561323a57613239612666565b5b6132456101a06126dc565b905060006132558482850161306c565b60008301525060206132698482850161306c565b602083015250604061327d84828501613081565b6040830152506060613291848285016130ab565b60608301525060a06132a58482850161311f565b60808301525060c06132b984828501613096565b60a08301525060e06132cd84828501613096565b60c0830152506101006132e284828501613096565b60e08301525061012082015167ffffffffffffffff811115613307576133066126f7565b5b613313848285016131c9565b6101008301525061014082015167ffffffffffffffff811115613339576133386126f7565b5b613345848285016131c9565b6101208301525061016061335b8482850161320e565b610140830152506101806133718482850161320e565b610160830152506101a06133878482850161320e565b6101808301525092915050565b6000602082840312156133aa576133a9612460565b5b600082015167ffffffffffffffff8111156133c8576133c7612465565b5b6133d484828501613223565b91505092915050565b60006133e88261246a565b91506133f38361246a565b925082820390508181111561340b5761340a612ff5565b5b92915050565b60008160001c9050919050565b600060ff82169050919050565b600061343e61343983613411565b61341e565b9050919050565b60008160081c9050919050565b600061346561346083613445565b61341e565b9050919050565b6040820160008083015490506134818161342b565b61348e6000860182612504565b5061349881613452565b6134a56020860182612504565b5050505050565b6000610100820190506134c2600083018a6124e8565b6134cf60208301896124e8565b6134dc60408301886124e8565b6134e960608301876124e8565b6134f6608083018661346c565b61350360c08301856124e8565b61351060e08301846124d9565b98975050505050505050565b7f4e6f74206c6f62627920636f6e74726163740000000000000000000000000000600082015250565b6000613552601283612f49565b915061355d8261351c565b602082019050919050565b6000602082019050818103600083015261358181613545565b9050919050565b60006020828403121561359e5761359d612460565b5b60006135ac84828501613081565b91505092915050565b6000602082840312156135cb576135ca612460565b5b60006135d98482850161306c565b91505092915050565b7f4f776e61626c653a206e6577206f776e657220697320746865207a65726f206160008201527f6464726573730000000000000000000000000000000000000000000000000000602082015250565b600061363e602683612f49565b9150613649826135e2565b604082019050919050565b6000602082019050818103600083015261366d81613631565b9050919050565b60006080820190506136896000830186612589565b61369660408301856124e8565b6136a360608301846124e8565b949350505050565b6000602082840312156136c1576136c0612460565b5b60006136cf8482850161320e565b91505092915050565b60006136f36136ee6136e9846124f7565b6123dc565b61246a565b9050919050565b613703816136d8565b82525050565b600060608201905061371e60008301866124e8565b61372b60208301856136fa565b61373860408301846136fa565b949350505050565b600060408201905061375560008301856124e8565b61376260208301846124e8565b9392505050565b6005811061377657600080fd5b50565b60008151905061378881613769565b92915050565b600060a082840312156137a4576137a3612666565b5b6137ae60a06126dc565b905060006137be84828501613779565b60008301525060206137d284828501613081565b60208301525060406137e684828501613096565b60408301525060606137fa84828501613096565b606083015250608061380e8482850161320e565b60808301525092915050565b600060a082840312156138305761382f612460565b5b600061383e8482850161378e565b91505092915050565b7f4e487b7100000000000000000000000000000000000000000000000000000000600052602160045260246000fd5b6000613881826124f7565b915060ff820361389457613893612ff5565b5b600182019050919050565b600581106138ac57600080fd5b50565b6000815190506138be8161389f565b92915050565b600481106138d157600080fd5b50565b6000815190506138e3816138c4565b92915050565b600681106138f657600080fd5b50565b600081519050613908816138e9565b92915050565b600060e0828403121561392457613923612666565b5b61392e60e06126dc565b9050600061393e8482850161311f565b60008301525060206139528482850161311f565b60208301525060406139668482850161311f565b604083015250606061397a8482850161311f565b606083015250608061398e8482850161311f565b60808301525060a06139a28482850161311f565b60a08301525060c06139b68482850161311f565b60c08301525092915050565b600061034082840312156139d9576139d8612666565b5b6139e46102806126dc565b905060006139f48482850161320e565b6000830152506020613a088482850161320e565b6020830152506040613a1c8482850161320e565b6040830152506060613a308482850161320e565b6060830152506080613a448482850161320e565b60808301525060a0613a5884828501613096565b60a08301525060c0613a6c84828501613096565b60c08301525060e0613a8084828501613096565b60e083015250610100613a9584828501613096565b61010083015250610120613aab84828501613096565b61012083015250610140613ac1848285016138af565b61014083015250610160613ad7848285016138d4565b61016083015250610180613aed84828501613096565b610180830152506101a0613b0384828501613096565b6101a0830152506101c0613b1984828501613096565b6101c0830152506101e0613b2f848285016138f9565b6101e083015250610200613b4584828501613096565b61020083015250610220613b5b84828501613096565b61022083015250610240613b7184828501613096565b61024083015250610260613b878482850161390e565b6102608301525092915050565b6000610a408284031215613bab57613baa612666565b5b613bb560e06126dc565b90506000613bc584828501613081565b6000830152506020613bd98482850161320e565b6020830152506040613bed84828501613096565b6040830152506060613c0184828501613096565b6060830152506080613c15848285016139c2565b6080830152506103c0613c2a848285016139c2565b60a083015250610700613c3f848285016139c2565b60c08301525092915050565b6000610a408284031215613c6257613c61612460565b5b6000613c7084828501613b94565b91505092915050565b6000819050919050565b6000613c9e613c99613c9484613c79565b6123dc565b61246a565b9050919050565b613cae81613c83565b82525050565b6000604082019050613cc960008301856124e8565b613cd66020830184613ca5565b9392505050565b600081549050919050565b60008190508160005260206000209050919050565b6000819050919050565b6000613d1a613d1583613411565b613cfd565b9050919050565b6000613d2d8254613d07565b9050919050565b6000600182019050919050565b6000613d4c82613cdd565b613d56818561282d565b9350613d6183613ce8565b8060005b83811015613d9957613d7682613d21565b613d80888261285d565b9750613d8b83613d34565b925050600181019050613d65565b5085935050505092915050565b6000604082019050613dbb60008301856124e8565b8181036020830152613dcd8184613d41565b90509392505050565b7f4f776e61626c653a2063616c6c6572206973206e6f7420746865206f776e6572600082015250565b6000613e0c602083612f49565b9150613e1782613dd6565b602082019050919050565b60006020820190508181036000830152613e3b81613dff565b905091905056fea2646970667358221220aaeb91285b70de4584070dd79fd6363b14f0b43ac58b2e0e0c000d2366a13ed364736f6c63430008110033",
  "devdoc": {
    "kind": "dev",
    "methods": {
      "owner()": {
        "details": "Returns the address of the current owner."
      },
      "renounceOwnership()": {
        "details": "Leaves the contract without owner. It will not be possible to call `onlyOwner` functions anymore. Can only be called by the current owner. NOTE: Renouncing ownership will leave the contract without an owner, thereby removing any functionality that is only available to the owner."
      },
      "transferOwnership(address)": {
        "details": "Transfers ownership of the contract to a new account (`newOwner`). Can only be called by the current owner."
      }
    },
    "version": 1
  },
  "userdoc": {
    "kind": "user",
    "methods": {},
    "version": 1
  },
  "storageLayout": {
    "storage": [
      {
        "astId": 7,
        "contract": "contracts/BCGames.sol:BCGames",
        "label": "_owner",
        "offset": 0,
        "slot": "0",
        "type": "t_address"
      },
      {
        "astId": 4677,
        "contract": "contracts/BCGames.sol:BCGames",
        "label": "chars",
        "offset": 0,
        "slot": "1",
        "type": "t_contract(CharInterface)4473"
      },
      {
        "astId": 4680,
        "contract": "contracts/BCGames.sol:BCGames",
        "label": "utils",
        "offset": 0,
        "slot": "2",
        "type": "t_contract(UtilsInterface)4483"
      },
      {
        "astId": 4683,
        "contract": "contracts/BCGames.sol:BCGames",
        "label": "maps",
        "offset": 0,
        "slot": "3",
        "type": "t_contract(MapInterface)4594"
      },
      {
        "astId": 4686,
        "contract": "contracts/BCGames.sol:BCGames",
        "label": "bcEvents",
        "offset": 0,
        "slot": "4",
        "type": "t_contract(EventsInterface)4459"
      },
      {
        "astId": 4689,
        "contract": "contracts/BCGames.sol:BCGames",
        "label": "items",
        "offset": 0,
        "slot": "5",
        "type": "t_contract(ItemsInterface)4608"
      },
      {
        "astId": 4692,
        "contract": "contracts/BCGames.sol:BCGames",
        "label": "players",
        "offset": 0,
        "slot": "6",
        "type": "t_contract(PlayersInterface)4672"
      },
      {
        "astId": 4694,
        "contract": "contracts/BCGames.sol:BCGames",
        "label": "lobbiesAddress",
        "offset": 0,
        "slot": "7",
        "type": "t_address"
      },
      {
        "astId": 4696,
        "contract": "contracts/BCGames.sol:BCGames",
        "label": "charsAddress",
        "offset": 0,
        "slot": "8",
        "type": "t_address"
      },
      {
        "astId": 4698,
        "contract": "contracts/BCGames.sol:BCGames",
        "label": "actionsAddress",
        "offset": 0,
        "slot": "9",
        "type": "t_address"
      },
      {
        "astId": 4778,
        "contract": "contracts/BCGames.sol:BCGames",
        "label": "StartLocation",
        "offset": 0,
        "slot": "10",
        "type": "t_struct(Position)7462_storage"
      },
      {
        "astId": 4782,
        "contract": "contracts/BCGames.sol:BCGames",
        "label": "games",
        "offset": 0,
        "slot": "11",
        "type": "t_array(t_struct(Game)7544_storage)dyn_storage"
      },
      {
        "astId": 4787,
        "contract": "contracts/BCGames.sol:BCGames",
        "label": "addressToGame",
        "offset": 0,
        "slot": "12",
        "type": "t_mapping(t_address,t_array(t_uint256)dyn_storage)"
      }
    ],
    "types": {
      "t_address": {
        "encoding": "inplace",
        "label": "address",
        "numberOfBytes": "20"
      },
      "t_array(t_struct(Game)7544_storage)dyn_storage": {
        "base": "t_struct(Game)7544_storage",
        "encoding": "dynamic_array",
        "label": "struct BCTypes.Game[]",
        "numberOfBytes": "32"
      },
      "t_array(t_uint256)dyn_storage": {
        "base": "t_uint256",
        "encoding": "dynamic_array",
        "label": "uint256[]",
        "numberOfBytes": "32"
      },
      "t_bool": {
        "encoding": "inplace",
        "label": "bool",
        "numberOfBytes": "1"
      },
      "t_contract(CharInterface)4473": {
        "encoding": "inplace",
        "label": "contract CharInterface",
        "numberOfBytes": "20"
      },
      "t_contract(EventsInterface)4459": {
        "encoding": "inplace",
        "label": "contract EventsInterface",
        "numberOfBytes": "20"
      },
      "t_contract(ItemsInterface)4608": {
        "encoding": "inplace",
        "label": "contract ItemsInterface",
        "numberOfBytes": "20"
      },
      "t_contract(MapInterface)4594": {
        "encoding": "inplace",
        "label": "contract MapInterface",
        "numberOfBytes": "20"
      },
      "t_contract(PlayersInterface)4672": {
        "encoding": "inplace",
        "label": "contract PlayersInterface",
        "numberOfBytes": "20"
      },
      "t_contract(UtilsInterface)4483": {
        "encoding": "inplace",
        "label": "contract UtilsInterface",
        "numberOfBytes": "20"
      },
      "t_mapping(t_address,t_array(t_uint256)dyn_storage)": {
        "encoding": "mapping",
        "key": "t_address",
        "label": "mapping(address => uint256[])",
        "numberOfBytes": "32",
        "value": "t_array(t_uint256)dyn_storage"
      },
      "t_struct(EventTracker)7457_storage": {
        "encoding": "inplace",
        "label": "struct BCTypes.EventTracker",
        "members": [
          {
            "astId": 7450,
            "contract": "contracts/BCGames.sol:BCGames",
            "label": "bugEvents",
            "offset": 0,
            "slot": "0",
            "type": "t_uint8"
          },
          {
            "astId": 7452,
            "contract": "contracts/BCGames.sol:BCGames",
            "label": "mysteryEvents",
            "offset": 1,
            "slot": "0",
            "type": "t_uint8"
          },
          {
            "astId": 7454,
            "contract": "contracts/BCGames.sol:BCGames",
            "label": "scavEvents",
            "offset": 2,
            "slot": "0",
            "type": "t_uint8"
          },
          {
            "astId": 7456,
            "contract": "contracts/BCGames.sol:BCGames",
            "label": "shipEvents",
            "offset": 3,
            "slot": "0",
            "type": "t_uint8"
          }
        ],
        "numberOfBytes": "32"
      },
      "t_struct(Game)7544_storage": {
        "encoding": "inplace",
        "label": "struct BCTypes.Game",
        "members": [
          {
            "astId": 7518,
            "contract": "contracts/BCGames.sol:BCGames",
            "label": "active",
            "offset": 0,
            "slot": "0",
            "type": "t_bool"
          },
          {
            "astId": 7521,
            "contract": "contracts/BCGames.sol:BCGames",
            "label": "playerIndexes",
            "offset": 0,
            "slot": "1",
            "type": "t_array(t_uint256)dyn_storage"
          },
          {
            "astId": 7523,
            "contract": "contracts/BCGames.sol:BCGames",
            "label": "currentPlayerTurnIndex",
            "offset": 0,
            "slot": "2",
            "type": "t_uint256"
          },
          {
            "astId": 7525,
            "contract": "contracts/BCGames.sol:BCGames",
            "label": "numPlayers",
            "offset": 0,
            "slot": "3",
            "type": "t_uint256"
          },
          {
            "astId": 7527,
            "contract": "contracts/BCGames.sol:BCGames",
            "label": "turnsTaken",
            "offset": 0,
            "slot": "4",
            "type": "t_uint256"
          },
          {
            "astId": 7530,
            "contract": "contracts/BCGames.sol:BCGames",
            "label": "eventTracker",
            "offset": 0,
            "slot": "5",
            "type": "t_struct(EventTracker)7457_storage"
          },
          {
            "astId": 7532,
            "contract": "contracts/BCGames.sol:BCGames",
            "label": "mapContract",
            "offset": 0,
            "slot": "6",
            "type": "t_address"
          },
          {
            "astId": 7534,
            "contract": "contracts/BCGames.sol:BCGames",
            "label": "mapId",
            "offset": 0,
            "slot": "7",
            "type": "t_uint256"
          },
          {
            "astId": 7536,
            "contract": "contracts/BCGames.sol:BCGames",
            "label": "eventPlayerId",
            "offset": 0,
            "slot": "8",
            "type": "t_uint256"
          },
          {
            "astId": 7538,
            "contract": "contracts/BCGames.sol:BCGames",
            "label": "eventNumber",
            "offset": 0,
            "slot": "9",
            "type": "t_uint256"
          },
          {
            "astId": 7540,
            "contract": "contracts/BCGames.sol:BCGames",
            "label": "eventIsTile",
            "offset": 0,
            "slot": "10",
            "type": "t_bool"
          },
          {
            "astId": 7543,
            "contract": "contracts/BCGames.sol:BCGames",
            "label": "eventPosition",
            "offset": 0,
            "slot": "11",
            "type": "t_struct(Position)7462_storage"
          }
        ],
        "numberOfBytes": "384"
      },
      "t_struct(Position)7462_storage": {
        "encoding": "inplace",
        "label": "struct BCTypes.Position",
        "members": [
          {
            "astId": 7459,
            "contract": "contracts/BCGames.sol:BCGames",
            "label": "row",
            "offset": 0,
            "slot": "0",
            "type": "t_uint8"
          },
          {
            "astId": 7461,
            "contract": "contracts/BCGames.sol:BCGames",
            "label": "col",
            "offset": 1,
            "slot": "0",
            "type": "t_uint8"
          }
        ],
        "numberOfBytes": "32"
      },
      "t_uint256": {
        "encoding": "inplace",
        "label": "uint256",
        "numberOfBytes": "32"
      },
      "t_uint8": {
        "encoding": "inplace",
        "label": "uint8",
        "numberOfBytes": "1"
      }
    }
  }
}