{
  "address": "0x2D116Ca318A64C7402Bd57B15001a6736d86993c",
  "abi": [
    {
      "inputs": [],
      "stateMutability": "nonpayable",
      "type": "constructor"
    },
    {
      "inputs": [
        {
          "internalType": "uint256",
          "name": "",
          "type": "uint256"
        }
      ],
      "name": "AlreadyDead",
      "type": "error"
    },
    {
      "inputs": [],
      "name": "CantForceDenizenTurn",
      "type": "error"
    },
    {
      "inputs": [],
      "name": "CantForceSinglePlayer",
      "type": "error"
    },
    {
      "inputs": [
        {
          "internalType": "uint256",
          "name": "",
          "type": "uint256"
        }
      ],
      "name": "CantSeeTarget",
      "type": "error"
    },
    {
      "inputs": [
        {
          "internalType": "uint256",
          "name": "",
          "type": "uint256"
        }
      ],
      "name": "EventNotForPlayer",
      "type": "error"
    },
    {
      "inputs": [
        {
          "internalType": "uint256",
          "name": "",
          "type": "uint256"
        },
        {
          "internalType": "uint256",
          "name": "",
          "type": "uint256"
        }
      ],
      "name": "PlayerNotInGame",
      "type": "error"
    },
    {
      "inputs": [],
      "name": "StillWithinTimeLimit",
      "type": "error"
    },
    {
      "anonymous": false,
      "inputs": [
        {
          "indexed": false,
          "internalType": "uint256",
          "name": "gameId",
          "type": "uint256"
        },
        {
          "indexed": false,
          "internalType": "uint256",
          "name": "roll",
          "type": "uint256"
        },
        {
          "indexed": false,
          "internalType": "uint256",
          "name": "forValue",
          "type": "uint256"
        },
        {
          "indexed": false,
          "internalType": "uint256",
          "name": "against",
          "type": "uint256"
        }
      ],
      "name": "ChallengeEvent",
      "type": "event"
    },
    {
      "anonymous": false,
      "inputs": [
        {
          "indexed": false,
          "internalType": "uint256",
          "name": "gameId",
          "type": "uint256"
        },
        {
          "indexed": false,
          "internalType": "enum BCTypes.DenizenType",
          "name": "denizenType",
          "type": "uint8"
        },
        {
          "indexed": false,
          "internalType": "uint256",
          "name": "denizenId",
          "type": "uint256"
        },
        {
          "indexed": false,
          "internalType": "uint256",
          "name": "playerTarget",
          "type": "uint256"
        },
        {
          "indexed": false,
          "internalType": "uint256",
          "name": "damage",
          "type": "uint256"
        },
        {
          "indexed": false,
          "internalType": "uint256",
          "name": "turnabout",
          "type": "uint256"
        }
      ],
      "name": "DenizenAttack",
      "type": "event"
    },
    {
      "anonymous": false,
      "inputs": [
        {
          "indexed": false,
          "internalType": "uint256",
          "name": "gameId",
          "type": "uint256"
        }
      ],
      "name": "DenizenTurnOver",
      "type": "event"
    },
    {
      "anonymous": false,
      "inputs": [
        {
          "indexed": false,
          "internalType": "uint256",
          "name": "gameId",
          "type": "uint256"
        },
        {
          "indexed": false,
          "internalType": "uint256",
          "name": "roll",
          "type": "uint256"
        }
      ],
      "name": "DiceRollEvent",
      "type": "event"
    },
    {
      "anonymous": false,
      "inputs": [
        {
          "indexed": true,
          "internalType": "address",
          "name": "previousOwner",
          "type": "address"
        },
        {
          "indexed": true,
          "internalType": "address",
          "name": "newOwner",
          "type": "address"
        }
      ],
      "name": "OwnershipTransferred",
      "type": "event"
    },
    {
      "anonymous": false,
      "inputs": [
        {
          "indexed": false,
          "internalType": "uint256",
          "name": "gameId",
          "type": "uint256"
        },
        {
          "indexed": false,
          "internalType": "uint256",
          "name": "playerId",
          "type": "uint256"
        },
        {
          "indexed": false,
          "internalType": "enum BCTypes.DenizenType",
          "name": "denizenType",
          "type": "uint8"
        },
        {
          "indexed": false,
          "internalType": "uint256",
          "name": "denizenId",
          "type": "uint256"
        },
        {
          "indexed": false,
          "internalType": "uint256",
          "name": "damage",
          "type": "uint256"
        },
        {
          "indexed": false,
          "internalType": "uint256",
          "name": "turnabout",
          "type": "uint256"
        }
      ],
      "name": "PlayerAttack",
      "type": "event"
    },
    {
      "inputs": [],
      "name": "StartLocation",
      "outputs": [
        {
          "internalType": "uint8",
          "name": "row",
          "type": "uint8"
        },
        {
          "internalType": "uint8",
          "name": "col",
          "type": "uint8"
        }
      ],
      "stateMutability": "view",
      "type": "function"
    },
    {
      "inputs": [
        {
          "internalType": "int256",
          "name": "x",
          "type": "int256"
        }
      ],
      "name": "abs",
      "outputs": [
        {
          "internalType": "int256",
          "name": "",
          "type": "int256"
        }
      ],
      "stateMutability": "pure",
      "type": "function"
    },
    {
      "inputs": [],
      "name": "actionsAddress",
      "outputs": [
        {
          "internalType": "address",
          "name": "",
          "type": "address"
        }
      ],
      "stateMutability": "view",
      "type": "function"
    },
    {
      "inputs": [
        {
          "internalType": "uint256",
          "name": "_gameId",
          "type": "uint256"
        },
        {
          "internalType": "enum BCTypes.DenizenType",
          "name": "_type",
          "type": "uint8"
        },
        {
          "internalType": "uint256",
          "name": "_row",
          "type": "uint256"
        },
        {
          "internalType": "uint256",
          "name": "_col",
          "type": "uint256"
        }
      ],
      "name": "addDenizen",
      "outputs": [],
      "stateMutability": "nonpayable",
      "type": "function"
    },
    {
      "inputs": [
        {
          "internalType": "address",
          "name": "",
          "type": "address"
        },
        {
          "internalType": "uint256",
          "name": "",
          "type": "uint256"
        }
      ],
      "name": "addressToGame",
      "outputs": [
        {
          "internalType": "uint256",
          "name": "",
          "type": "uint256"
        }
      ],
      "stateMutability": "view",
      "type": "function"
    },
    {
      "inputs": [],
      "name": "bcEvents",
      "outputs": [
        {
          "internalType": "contract EventsInterface",
          "name": "",
          "type": "address"
        }
      ],
      "stateMutability": "view",
      "type": "function"
    },
    {
      "inputs": [],
      "name": "chars",
      "outputs": [
        {
          "internalType": "contract CharInterface",
          "name": "",
          "type": "address"
        }
      ],
      "stateMutability": "view",
      "type": "function"
    },
    {
      "inputs": [],
      "name": "charsAddress",
      "outputs": [
        {
          "internalType": "address",
          "name": "",
          "type": "address"
        }
      ],
      "stateMutability": "view",
      "type": "function"
    },
    {
      "inputs": [
        {
          "internalType": "uint256",
          "name": "_gameId",
          "type": "uint256"
        },
        {
          "components": [
            {
              "internalType": "uint8",
              "name": "row",
              "type": "uint8"
            },
            {
              "internalType": "uint8",
              "name": "col",
              "type": "uint8"
            }
          ],
          "internalType": "struct BCTypes.Position",
          "name": "_position",
          "type": "tuple"
        },
        {
          "internalType": "uint256",
          "name": "_playerId",
          "type": "uint256"
        },
        {
          "internalType": "uint256",
          "name": "_debugRoomId",
          "type": "uint256"
        }
      ],
      "name": "debugMovePlayer",
      "outputs": [],
      "stateMutability": "nonpayable",
      "type": "function"
    },
    {
      "inputs": [
        {
          "internalType": "enum BCTypes.DenizenType",
          "name": "",
          "type": "uint8"
        }
      ],
      "name": "denizenDef",
      "outputs": [
        {
          "internalType": "uint256",
          "name": "",
          "type": "uint256"
        }
      ],
      "stateMutability": "view",
      "type": "function"
    },
    {
      "inputs": [
        {
          "internalType": "enum BCTypes.DenizenType",
          "name": "",
          "type": "uint8"
        }
      ],
      "name": "denizenDmg",
      "outputs": [
        {
          "internalType": "uint256",
          "name": "",
          "type": "uint256"
        }
      ],
      "stateMutability": "view",
      "type": "function"
    },
    {
      "inputs": [
        {
          "internalType": "enum BCTypes.DenizenType",
          "name": "",
          "type": "uint8"
        }
      ],
      "name": "denizenHealth",
      "outputs": [
        {
          "internalType": "uint256",
          "name": "",
          "type": "uint256"
        }
      ],
      "stateMutability": "view",
      "type": "function"
    },
    {
      "inputs": [
        {
          "internalType": "enum BCTypes.DenizenType",
          "name": "",
          "type": "uint8"
        }
      ],
      "name": "denizenMovement",
      "outputs": [
        {
          "internalType": "uint256",
          "name": "",
          "type": "uint256"
        }
      ],
      "stateMutability": "view",
      "type": "function"
    },
    {
      "inputs": [
        {
          "internalType": "enum BCTypes.DenizenType",
          "name": "",
          "type": "uint8"
        }
      ],
      "name": "denizenOff",
      "outputs": [
        {
          "internalType": "uint256",
          "name": "",
          "type": "uint256"
        }
      ],
      "stateMutability": "view",
      "type": "function"
    },
    {
      "inputs": [
        {
          "internalType": "uint256",
          "name": "_gameId",
          "type": "uint256"
        },
        {
          "internalType": "uint256",
          "name": "_playerId",
          "type": "uint256"
        },
        {
          "internalType": "bool",
          "name": "_free",
          "type": "bool"
        }
      ],
      "name": "endPlayerAction",
      "outputs": [],
      "stateMutability": "nonpayable",
      "type": "function"
    },
    {
      "inputs": [
        {
          "internalType": "uint256",
          "name": "_id",
          "type": "uint256"
        }
      ],
      "name": "extGetGame",
      "outputs": [
        {
          "components": [
            {
              "internalType": "bool",
              "name": "active",
              "type": "bool"
            },
            {
              "internalType": "bool",
              "name": "denizenTurn",
              "type": "bool"
            },
            {
              "internalType": "uint256[]",
              "name": "playerIndexes",
              "type": "uint256[]"
            },
            {
              "internalType": "uint256",
              "name": "currentPlayerTurnIndex",
              "type": "uint256"
            },
            {
              "internalType": "uint256",
              "name": "numPlayers",
              "type": "uint256"
            },
            {
              "internalType": "uint256",
              "name": "turnsTaken",
              "type": "uint256"
            },
            {
              "components": [
                {
                  "internalType": "uint8",
                  "name": "bugEvents",
                  "type": "uint8"
                },
                {
                  "internalType": "uint8",
                  "name": "mysteryEvents",
                  "type": "uint8"
                },
                {
                  "internalType": "uint8",
                  "name": "scavEvents",
                  "type": "uint8"
                },
                {
                  "internalType": "uint8",
                  "name": "shipEvents",
                  "type": "uint8"
                }
              ],
              "internalType": "struct BCTypes.EventTracker",
              "name": "eventTracker",
              "type": "tuple"
            },
            {
              "internalType": "uint256",
              "name": "mapId",
              "type": "uint256"
            },
            {
              "internalType": "uint256",
              "name": "eventPlayerId",
              "type": "uint256"
            },
            {
              "internalType": "uint256",
              "name": "eventNumber",
              "type": "uint256"
            },
            {
              "internalType": "enum BCTypes.BCEventType",
              "name": "eventType",
              "type": "uint8"
            },
            {
              "components": [
                {
                  "internalType": "uint8",
                  "name": "row",
                  "type": "uint8"
                },
                {
                  "internalType": "uint8",
                  "name": "col",
                  "type": "uint8"
                }
              ],
              "internalType": "struct BCTypes.Position",
              "name": "eventPosition",
              "type": "tuple"
            },
            {
              "internalType": "uint256[]",
              "name": "unusedBugEvents",
              "type": "uint256[]"
            },
            {
              "internalType": "uint256[]",
              "name": "unusedMysteryEvents",
              "type": "uint256[]"
            },
            {
              "internalType": "uint256[]",
              "name": "unusedScavEvents",
              "type": "uint256[]"
            },
            {
              "internalType": "uint256[]",
              "name": "unusedShipEvents",
              "type": "uint256[]"
            },
            {
              "internalType": "uint256",
              "name": "turnTimeLimit",
              "type": "uint256"
            },
            {
              "internalType": "uint256",
              "name": "lastTurnTimestamp",
              "type": "uint256"
            },
            {
              "internalType": "uint256",
              "name": "DEBUG_returnAmount",
              "type": "uint256"
            },
            {
              "components": [
                {
                  "internalType": "uint256",
                  "name": "id",
                  "type": "uint256"
                },
                {
                  "internalType": "uint256",
                  "name": "gameId",
                  "type": "uint256"
                },
                {
                  "internalType": "enum BCTypes.DenizenType",
                  "name": "denizenType",
                  "type": "uint8"
                },
                {
                  "components": [
                    {
                      "internalType": "uint8",
                      "name": "row",
                      "type": "uint8"
                    },
                    {
                      "internalType": "uint8",
                      "name": "col",
                      "type": "uint8"
                    }
                  ],
                  "internalType": "struct BCTypes.Position",
                  "name": "position",
                  "type": "tuple"
                },
                {
                  "internalType": "uint256",
                  "name": "healthRemaining",
                  "type": "uint256"
                },
                {
                  "internalType": "bool",
                  "name": "looted",
                  "type": "bool"
                }
              ],
              "internalType": "struct BCTypes.Denizen[]",
              "name": "denizens",
              "type": "tuple[]"
            }
          ],
          "internalType": "struct BCTypes.Game",
          "name": "",
          "type": "tuple"
        }
      ],
      "stateMutability": "view",
      "type": "function"
    },
    {
      "inputs": [
        {
          "internalType": "uint256",
          "name": "_gameId",
          "type": "uint256"
        }
      ],
      "name": "extGetGamePlayerIndexes",
      "outputs": [
        {
          "internalType": "uint256[]",
          "name": "",
          "type": "uint256[]"
        }
      ],
      "stateMutability": "view",
      "type": "function"
    },
    {
      "inputs": [
        {
          "internalType": "address",
          "name": "_playerAddress",
          "type": "address"
        }
      ],
      "name": "extGetGamesOfPlayer",
      "outputs": [
        {
          "internalType": "uint256[]",
          "name": "",
          "type": "uint256[]"
        }
      ],
      "stateMutability": "view",
      "type": "function"
    },
    {
      "inputs": [],
      "name": "extGetNumGames",
      "outputs": [
        {
          "internalType": "uint256",
          "name": "",
          "type": "uint256"
        }
      ],
      "stateMutability": "view",
      "type": "function"
    },
    {
      "inputs": [
        {
          "internalType": "uint256",
          "name": "_gameId",
          "type": "uint256"
        },
        {
          "components": [
            {
              "internalType": "uint8",
              "name": "row",
              "type": "uint8"
            },
            {
              "internalType": "uint8",
              "name": "col",
              "type": "uint8"
            }
          ],
          "internalType": "struct BCTypes.Position",
          "name": "_position",
          "type": "tuple"
        },
        {
          "internalType": "uint256",
          "name": "_playerId",
          "type": "uint256"
        }
      ],
      "name": "extMovePlayer",
      "outputs": [],
      "stateMutability": "nonpayable",
      "type": "function"
    },
    {
      "inputs": [
        {
          "internalType": "uint256",
          "name": "_gameId",
          "type": "uint256"
        }
      ],
      "name": "forceNextTurn",
      "outputs": [],
      "stateMutability": "nonpayable",
      "type": "function"
    },
    {
      "inputs": [
        {
          "internalType": "uint256",
          "name": "",
          "type": "uint256"
        }
      ],
      "name": "games",
      "outputs": [
        {
          "internalType": "bool",
          "name": "active",
          "type": "bool"
        },
        {
          "internalType": "bool",
          "name": "denizenTurn",
          "type": "bool"
        },
        {
          "internalType": "uint256",
          "name": "currentPlayerTurnIndex",
          "type": "uint256"
        },
        {
          "internalType": "uint256",
          "name": "numPlayers",
          "type": "uint256"
        },
        {
          "internalType": "uint256",
          "name": "turnsTaken",
          "type": "uint256"
        },
        {
          "components": [
            {
              "internalType": "uint8",
              "name": "bugEvents",
              "type": "uint8"
            },
            {
              "internalType": "uint8",
              "name": "mysteryEvents",
              "type": "uint8"
            },
            {
              "internalType": "uint8",
              "name": "scavEvents",
              "type": "uint8"
            },
            {
              "internalType": "uint8",
              "name": "shipEvents",
              "type": "uint8"
            }
          ],
          "internalType": "struct BCTypes.EventTracker",
          "name": "eventTracker",
          "type": "tuple"
        },
        {
          "internalType": "uint256",
          "name": "mapId",
          "type": "uint256"
        },
        {
          "internalType": "uint256",
          "name": "eventPlayerId",
          "type": "uint256"
        },
        {
          "internalType": "uint256",
          "name": "eventNumber",
          "type": "uint256"
        },
        {
          "internalType": "enum BCTypes.BCEventType",
          "name": "eventType",
          "type": "uint8"
        },
        {
          "components": [
            {
              "internalType": "uint8",
              "name": "row",
              "type": "uint8"
            },
            {
              "internalType": "uint8",
              "name": "col",
              "type": "uint8"
            }
          ],
          "internalType": "struct BCTypes.Position",
          "name": "eventPosition",
          "type": "tuple"
        },
        {
          "internalType": "uint256",
          "name": "turnTimeLimit",
          "type": "uint256"
        },
        {
          "internalType": "uint256",
          "name": "lastTurnTimestamp",
          "type": "uint256"
        },
        {
          "internalType": "uint256",
          "name": "DEBUG_returnAmount",
          "type": "uint256"
        }
      ],
      "stateMutability": "view",
      "type": "function"
    },
    {
      "inputs": [
        {
          "internalType": "uint256",
          "name": "_gameId",
          "type": "uint256"
        }
      ],
      "name": "getDenizensInGame",
      "outputs": [
        {
          "components": [
            {
              "internalType": "uint256",
              "name": "id",
              "type": "uint256"
            },
            {
              "internalType": "uint256",
              "name": "gameId",
              "type": "uint256"
            },
            {
              "internalType": "enum BCTypes.DenizenType",
              "name": "denizenType",
              "type": "uint8"
            },
            {
              "components": [
                {
                  "internalType": "uint8",
                  "name": "row",
                  "type": "uint8"
                },
                {
                  "internalType": "uint8",
                  "name": "col",
                  "type": "uint8"
                }
              ],
              "internalType": "struct BCTypes.Position",
              "name": "position",
              "type": "tuple"
            },
            {
              "internalType": "uint256",
              "name": "healthRemaining",
              "type": "uint256"
            },
            {
              "internalType": "bool",
              "name": "looted",
              "type": "bool"
            }
          ],
          "internalType": "struct BCTypes.Denizen[]",
          "name": "",
          "type": "tuple[]"
        }
      ],
      "stateMutability": "view",
      "type": "function"
    },
    {
      "inputs": [
        {
          "components": [
            {
              "internalType": "uint8",
              "name": "row",
              "type": "uint8"
            },
            {
              "internalType": "uint8",
              "name": "col",
              "type": "uint8"
            }
          ],
          "internalType": "struct BCTypes.Position",
          "name": "_firstRoom",
          "type": "tuple"
        },
        {
          "components": [
            {
              "internalType": "uint8",
              "name": "row",
              "type": "uint8"
            },
            {
              "internalType": "uint8",
              "name": "col",
              "type": "uint8"
            }
          ],
          "internalType": "struct BCTypes.Position",
          "name": "_secondRoom",
          "type": "tuple"
        }
      ],
      "name": "getDirectionBetween",
      "outputs": [
        {
          "internalType": "uint256",
          "name": "",
          "type": "uint256"
        }
      ],
      "stateMutability": "pure",
      "type": "function"
    },
    {
      "inputs": [
        {
          "internalType": "uint256",
          "name": "_gameId",
          "type": "uint256"
        }
      ],
      "name": "getEventBlocks",
      "outputs": [
        {
          "internalType": "uint256[]",
          "name": "",
          "type": "uint256[]"
        }
      ],
      "stateMutability": "view",
      "type": "function"
    },
    {
      "inputs": [
        {
          "internalType": "uint256",
          "name": "_direction",
          "type": "uint256"
        },
        {
          "components": [
            {
              "internalType": "uint8",
              "name": "row",
              "type": "uint8"
            },
            {
              "internalType": "uint8",
              "name": "col",
              "type": "uint8"
            }
          ],
          "internalType": "struct BCTypes.Position",
          "name": "_start",
          "type": "tuple"
        }
      ],
      "name": "getNeighborRoom",
      "outputs": [
        {
          "components": [
            {
              "internalType": "uint8",
              "name": "row",
              "type": "uint8"
            },
            {
              "internalType": "uint8",
              "name": "col",
              "type": "uint8"
            }
          ],
          "internalType": "struct BCTypes.Position",
          "name": "",
          "type": "tuple"
        }
      ],
      "stateMutability": "pure",
      "type": "function"
    },
    {
      "inputs": [
        {
          "internalType": "uint256",
          "name": "_traitNum",
          "type": "uint256"
        },
        {
          "internalType": "uint256",
          "name": "_subTraitNum",
          "type": "uint256"
        }
      ],
      "name": "getUIOffset",
      "outputs": [
        {
          "internalType": "uint256",
          "name": "",
          "type": "uint256"
        }
      ],
      "stateMutability": "pure",
      "type": "function"
    },
    {
      "inputs": [],
      "name": "items",
      "outputs": [
        {
          "internalType": "contract ItemsInterface",
          "name": "",
          "type": "address"
        }
      ],
      "stateMutability": "view",
      "type": "function"
    },
    {
      "inputs": [
        {
          "internalType": "uint256",
          "name": "_gameId",
          "type": "uint256"
        },
        {
          "internalType": "uint256",
          "name": "_playerId",
          "type": "uint256"
        },
        {
          "internalType": "uint256",
          "name": "_charId",
          "type": "uint256"
        },
        {
          "internalType": "uint256",
          "name": "_currentPlayerTurnIndex",
          "type": "uint256"
        }
      ],
      "name": "leaveGame",
      "outputs": [],
      "stateMutability": "nonpayable",
      "type": "function"
    },
    {
      "inputs": [],
      "name": "lobbiesAddress",
      "outputs": [
        {
          "internalType": "address",
          "name": "",
          "type": "address"
        }
      ],
      "stateMutability": "view",
      "type": "function"
    },
    {
      "inputs": [
        {
          "components": [
            {
              "internalType": "uint8",
              "name": "row",
              "type": "uint8"
            },
            {
              "internalType": "uint8",
              "name": "col",
              "type": "uint8"
            }
          ],
          "internalType": "struct BCTypes.Position",
          "name": "_pos1",
          "type": "tuple"
        },
        {
          "components": [
            {
              "internalType": "uint8",
              "name": "row",
              "type": "uint8"
            },
            {
              "internalType": "uint8",
              "name": "col",
              "type": "uint8"
            }
          ],
          "internalType": "struct BCTypes.Position",
          "name": "_pos2",
          "type": "tuple"
        }
      ],
      "name": "manhattanDistance",
      "outputs": [
        {
          "internalType": "uint256",
          "name": "",
          "type": "uint256"
        }
      ],
      "stateMutability": "pure",
      "type": "function"
    },
    {
      "inputs": [],
      "name": "maps",
      "outputs": [
        {
          "internalType": "contract MapInterface",
          "name": "",
          "type": "address"
        }
      ],
      "stateMutability": "view",
      "type": "function"
    },
    {
      "inputs": [
        {
          "internalType": "uint256",
          "name": "_min",
          "type": "uint256"
        },
        {
          "internalType": "uint256",
          "name": "_max",
          "type": "uint256"
        },
        {
          "internalType": "uint256",
          "name": "_val",
          "type": "uint256"
        },
        {
          "internalType": "uint256",
          "name": "_valMax",
          "type": "uint256"
        }
      ],
      "name": "normalizeToSmallRange",
      "outputs": [
        {
          "internalType": "uint8",
          "name": "",
          "type": "uint8"
        }
      ],
      "stateMutability": "pure",
      "type": "function"
    },
    {
      "inputs": [
        {
          "internalType": "uint256",
          "name": "_direction",
          "type": "uint256"
        }
      ],
      "name": "opposite",
      "outputs": [
        {
          "internalType": "uint256",
          "name": "",
          "type": "uint256"
        }
      ],
      "stateMutability": "pure",
      "type": "function"
    },
    {
      "inputs": [],
      "name": "owner",
      "outputs": [
        {
          "internalType": "address",
          "name": "",
          "type": "address"
        }
      ],
      "stateMutability": "view",
      "type": "function"
    },
    {
      "inputs": [
        {
          "internalType": "uint256",
          "name": "_gameId",
          "type": "uint256"
        },
        {
          "internalType": "uint256",
          "name": "_denizenId",
          "type": "uint256"
        },
        {
          "internalType": "uint256",
          "name": "_playerId",
          "type": "uint256"
        },
        {
          "internalType": "uint256",
          "name": "_playerAttackRating",
          "type": "uint256"
        },
        {
          "components": [
            {
              "internalType": "uint8",
              "name": "row",
              "type": "uint8"
            },
            {
              "internalType": "uint8",
              "name": "col",
              "type": "uint8"
            }
          ],
          "internalType": "struct BCTypes.Position",
          "name": "_playerPosition",
          "type": "tuple"
        }
      ],
      "name": "playerAttack",
      "outputs": [],
      "stateMutability": "nonpayable",
      "type": "function"
    },
    {
      "inputs": [],
      "name": "players",
      "outputs": [
        {
          "internalType": "contract PlayersInterface",
          "name": "",
          "type": "address"
        }
      ],
      "stateMutability": "view",
      "type": "function"
    },
    {
      "inputs": [
        {
          "internalType": "uint256",
          "name": "_gameId",
          "type": "uint256"
        }
      ],
      "name": "processDenizenMoves",
      "outputs": [],
      "stateMutability": "nonpayable",
      "type": "function"
    },
    {
      "inputs": [],
      "name": "randKeccak",
      "outputs": [
        {
          "internalType": "bytes32",
          "name": "",
          "type": "bytes32"
        }
      ],
      "stateMutability": "nonpayable",
      "type": "function"
    },
    {
      "inputs": [],
      "name": "renounceOwnership",
      "outputs": [],
      "stateMutability": "nonpayable",
      "type": "function"
    },
    {
      "inputs": [
        {
          "internalType": "uint256",
          "name": "_gameId",
          "type": "uint256"
        },
        {
          "internalType": "uint256",
          "name": "_for",
          "type": "uint256"
        },
        {
          "internalType": "uint256",
          "name": "_against",
          "type": "uint256"
        }
      ],
      "name": "resolveChallenge",
      "outputs": [
        {
          "internalType": "bool",
          "name": "",
          "type": "bool"
        }
      ],
      "stateMutability": "nonpayable",
      "type": "function"
    },
    {
      "inputs": [
        {
          "internalType": "uint256",
          "name": "_gameId",
          "type": "uint256"
        },
        {
          "internalType": "uint256",
          "name": "_choice",
          "type": "uint256"
        }
      ],
      "name": "resolveEvent",
      "outputs": [],
      "stateMutability": "nonpayable",
      "type": "function"
    },
    {
      "inputs": [
        {
          "internalType": "uint256",
          "name": "_gameId",
          "type": "uint256"
        }
      ],
      "name": "roll",
      "outputs": [
        {
          "internalType": "uint256",
          "name": "",
          "type": "uint256"
        }
      ],
      "stateMutability": "nonpayable",
      "type": "function"
    },
    {
      "inputs": [
        {
          "internalType": "address",
          "name": "_charAddress",
          "type": "address"
        },
        {
          "internalType": "address",
          "name": "_mapsAddress",
          "type": "address"
        },
        {
          "internalType": "address",
          "name": "_lobbiesAddress",
          "type": "address"
        },
        {
          "internalType": "address",
          "name": "_actionsAddress",
          "type": "address"
        },
        {
          "internalType": "address",
          "name": "_eventsAddress",
          "type": "address"
        },
        {
          "internalType": "address",
          "name": "_itemsAddress",
          "type": "address"
        },
        {
          "internalType": "address",
          "name": "_playersAddress",
          "type": "address"
        }
      ],
      "name": "setContractAddresses",
      "outputs": [],
      "stateMutability": "nonpayable",
      "type": "function"
    },
    {
      "inputs": [
        {
          "internalType": "uint256",
          "name": "_gameId",
          "type": "uint256"
        },
        {
          "internalType": "uint256",
          "name": "_denizenId",
          "type": "uint256"
        }
      ],
      "name": "setDenizenLooted",
      "outputs": [],
      "stateMutability": "nonpayable",
      "type": "function"
    },
    {
      "inputs": [
        {
          "internalType": "bytes32",
          "name": "_hash",
          "type": "bytes32"
        },
        {
          "internalType": "uint256",
          "name": "_size",
          "type": "uint256"
        },
        {
          "internalType": "uint256",
          "name": "_offset",
          "type": "uint256"
        }
      ],
      "name": "sliceHashToSmallInt",
      "outputs": [
        {
          "internalType": "uint8",
          "name": "",
          "type": "uint8"
        }
      ],
      "stateMutability": "pure",
      "type": "function"
    },
    {
      "inputs": [
        {
          "internalType": "uint8",
          "name": "_min",
          "type": "uint8"
        },
        {
          "internalType": "uint8",
          "name": "_max",
          "type": "uint8"
        }
      ],
      "name": "smallIntBetweenVals",
      "outputs": [
        {
          "internalType": "uint8",
          "name": "",
          "type": "uint8"
        }
      ],
      "stateMutability": "nonpayable",
      "type": "function"
    },
    {
      "inputs": [
        {
          "internalType": "uint256[]",
          "name": "_playerIndexes",
          "type": "uint256[]"
        },
        {
          "internalType": "uint256",
          "name": "_numPlayers",
          "type": "uint256"
        },
        {
          "internalType": "uint256",
          "name": "_debugRoomId",
          "type": "uint256"
        }
      ],
      "name": "startGame",
      "outputs": [
        {
          "internalType": "uint256",
          "name": "",
          "type": "uint256"
        }
      ],
      "stateMutability": "nonpayable",
      "type": "function"
    },
    {
      "inputs": [
        {
          "internalType": "address",
          "name": "newOwner",
          "type": "address"
        }
      ],
      "name": "transferOwnership",
      "outputs": [],
      "stateMutability": "nonpayable",
      "type": "function"
    }
  ],
  "transactionHash": "0x9ce4b9652775dc1236461ce04ec11cb95b4054889e0744f86ef0b291a7c1ddc9",
  "args": [],
  "numDeployments": 1,
  "solcInputHash": "09ba6ab3777d68b39ee20a31daf155c0",
  "bytecode": "0x600060015560c0604052600a608052600660a052600b805461ffff191661060a1790553480156200002f57600080fd5b506200003b33620005f8565b60027fa7c5ba7114a813b50159add3a36832908dc83db71d0b9a24c2ad0f83be95820781905560037f9adb202b1492743bc00c81d33cdc6423fa8c79109027eb6a845391e8fc1f04818190557fe0283e559c29e31ee7f56467acc9dd307779c843a883aeeb3bf5c6128c90814482905560057fa1d6913cd9e08c872be3e7525cca82e4fc0fc298a783f19022be725b19be685a5560647fb9bec7e2561f624fe753ff070f1599b306cbf59fafd4e8d5a8184a1ea1841bce5560327f92b4482321f41ce3aa65f798bda23d0d12a60fc5f212868a548ddb00aa49de725560c87f376529bb8a2d41b4a589a133407fc64f3212472dbd74744348be1098bf7ba08d5560197feab6bc3746954d8a0719de62c86ea908d362be2a58c781ada1046727253f9df2557f169f97de0d9a84d840042b17d3c6b9638b3d6fd9024c9eb0c7a306a17b49f88f8190557fa74ba3945261e09fde15ba3db55005b205e61eeb4ad811ac0faa2b315bffeead81905560047f45f76dafbbad695564362934e24d72eedc57f9fc1a65f39bca62176cc829682881905560067f367ccd2d0ac16bf7110a5dffe0801fdc9452a95a1adb7e1a12fe97dd3e9a4edd819055600a7f6bda57492eba051cb4a12a1e19df47c9755d78165341d4009b1d09b3f361620481905560087fb5a1e7cda73b1608e93d4d50ab796c3d35aa6216cb006a1f920df154d13ff618819055600c7f73dfc495eb54bd6713ffc079b9f5e40f2fecd3793d143759ba0128fbedb40254557f49a9092dc5c03b26195f6621c97b5cf515cb77afe659e3fe008a73456354eb688490557f8c6065603763fec3f5742441d3833f3f43b982453612d76adb39a885e3006b5f8490557f853b2fefe141400fef543280f93d98bd49996069f632d0d20236afeeed8e46a28590557fb3edd0d534d647cffdae9f1294f11ad21f3fcf2814bea44c92bbb8d384a57d9e8590557f1588ac671d87f82adc0e6ae8ab009c0de98f92a20243897597e566bc59b9c1268590557f61a7346ab5ebdac457db2a901eaf1b805239b6049a1b2f34bab85e2e274f39cb8190557f20edfb71820f6f00f6a84ccfefb91587cd9f849f8349b0a3182a4795899d9cd983905560077f4ef6145e44e4298293af15ae5f84f922a836b1d6db608fd5008f32a528b312a9557f5f04e77c60ed37290f5789e2e9c5d396103f3c4b14614065cbb4c8362609d5a59190915560017f17bc176d2408558f6e4111feebc3cab4e16b63e967be91cde721f4c8a488b5528190557f08037d7b151cc412d25674a4e66b334d9ae9d2e5517a7feaae5cdb828bf1c6288190557f9bfbaa59f8e10e7868f8b402de9d605a390c45ddaebd8c9de3c6f31e733c87ff8190557f251164fe1d8864fe5e86082eae9c288bc2b58695a4d28538dfe86e9e4f175585557fc550213cee30afd5e67ccba7be3d381bbc169034ae08eb3ec9168caca9fe55e78190557ffb9ce45064c7e7d9bf9deb4750ba7c94ab3d6e7418c5d76bf69966d39a9d42f68290557f98ae0176de2844d118e1a6decfe92f97691bedbc578c71fc8d5c4374be77e50c83905560107f5fae251ae169e8e40026ce4ce85a026bc3adcccdc8459be361195e4cd924077f5560126020527f71a67924699a20698523213e55fe499d539379d7769cd5567e2c45d583f815a38490557f8e1fee8c88a9e04123b21e90cae2727a7715bf522a1e46eb5934ccd05203a6b284905560007f0f36ad39aee03e7108cc48f54934702a5f0d4066f10344cebf8198978d86976a8190557fb4fcd034df3d20faa1c133b66d862ce92732727d40916b48ffb4020cb00fe053959095557f45429b9195d4ec5c0cf6c69e9c21a4ca0ea773b702c2de5735f85d2631f26746919091557f1223f9031f9dca49a7844c397098ce9a4e80513444d0a8bb59820dff564808e48390557f724fd36bd271795fe7866d4cc83b61084ef704502b00c2e0b28047123b3c1acc9290925591527f855d8d6df66418fea944661cfca175a2245b01f09908f1f662c4fa2b3cbf92995562000648565b600080546001600160a01b038381166001600160a01b0319831681178455604051919092169283917f8be0079c531659141344cd1fd0a4f28419497f9722a3daafe3b4186f6b6457e09190a35050565b615fed80620006586000396000f3fe608060405234801561001057600080fd5b50600436106102ba5760003560e01c80637ddae10311610182578063c6850f7c116100e9578063dc769ee8116100a2578063f101de9a1161007c578063f101de9a146106ee578063f10bff2b14610701578063f2fde38b14610714578063fa3993c21461072757600080fd5b8063dc769ee81461068b578063dce6c5da146106bb578063ed9067fa146106db57600080fd5b8063c6850f7c146105f2578063ce28613f14610612578063d72be09d14610625578063d78e7d8614610638578063d8a0308214610658578063dc0b35641461067857600080fd5b80639fca1ee11161013b5780639fca1ee114610573578063a99d2a8b14610586578063aa6e803014610599578063afd62bb2146105ac578063bb248667146105bf578063c06fad06146105df57600080fd5b80637ddae103146104f65780638214f222146105095780638bf52bc31461051c5780638da5cb5b1461052f578063951fc3fe1461054057806397f34c3f1461056057600080fd5b80633f090e3d116102265780635dc96967116101df5780635dc969671461047257806364db84bf1461049557806364f66467146104a85780636fe99c18146104bb578063715018a6146104db5780637b45c0d4146104e357600080fd5b80633f090e3d146103f957806340d4fd781461040c57806343d7c3be1461041f57806346f2434b14610432578063530116961461043a578063547314221461045f57600080fd5b80631cef40f6116102785780631cef40f6146103925780631e1de205146103a55780631f7b4f30146103ad578063336d7d7b146103c05780633aa07d64146103d35780633deaec2b146103e657600080fd5b8062e3d898146102bf5780630e73c024146102f257806310a2cd0d14610312578063117a5b901461033d578063175142251461036a5780631b5ac4b51461037f575b600080fd5b6102df6102cd36600461488d565b600e6020526000908152604090205481565b6040519081526020015b60405180910390f35b6103056103003660046148a8565b61073a565b6040516102e991906148fc565b600354610325906001600160a01b031681565b6040516001600160a01b0390911681526020016102e9565b61035061034b3660046148a8565b61075a565b6040516102e99e9d9c9b9a99989796959493929190614939565b61037d610378366004614b25565b61082f565b005b6102df61038d3660046148a8565b610874565b61037d6103a0366004614b5b565b610890565b6102df610a79565b6102df6103bb3660046148a8565b610af1565b600854610325906001600160a01b031681565b61037d6103e1366004614b96565b610b4d565b600454610325906001600160a01b031681565b61037d610407366004614be0565b610f1c565b61030561041a3660046148a8565b61115c565b61037d61042d366004614c12565b61124d565b600c546102df565b61044d610448366004614be0565b6112d4565b60405160ff90911681526020016102e9565b61037d61046d3660046148a8565b611311565b610485610480366004614c34565b611404565b60405190151581526020016102e9565b6102df6104a3366004614c12565b6114a1565b61037d6104b6366004614c12565b6114b9565b6104ce6104c93660046148a8565b611599565b6040516102e99190614cf5565b61037d61199a565b600a54610325906001600160a01b031681565b600554610325906001600160a01b031681565b6102df6105173660046148a8565b6119ae565b61037d61052a366004614ec9565b611a28565b6000546001600160a01b0316610325565b61055361054e366004614f05565b611a3c565b6040516102e99190614f32565b61044d61056e366004614c34565b611b66565b600954610325906001600160a01b031681565b6102df610594366004614f65565b611b91565b61037d6105a7366004614f9f565b611bc2565b6103056105ba366004614fd8565b611cd2565b6102df6105cd36600461488d565b60126020526000908152604090205481565b600654610325906001600160a01b031681565b6102df61060036600461488d565b60116020526000908152604090205481565b61044d610620366004614ff5565b611da2565b61037d61063336600461502e565b611e52565b6102df61064636600461488d565b60106020526000908152604090205481565b61066b6106663660046148a8565b611ed8565b6040516102e991906150c4565b600754610325906001600160a01b031681565b600b546106a19060ff8082169161010090041682565b6040805160ff9384168152929091166020830152016102e9565b6102df6106c936600461488d565b600f6020526000908152604090205481565b61037d6106e93660046148a8565b611fef565b6102df6106fc3660046150fa565b612df2565b6102df61070f36600461519f565b6132b2565b61037d610722366004614fd8565b6132ff565b6102df61073536600461519f565b613378565b600081815260026020526040902060609061075490613440565b92915050565b600c818154811061076a57600080fd5b6000918252602091829020601390910201805460028201546003830154600484015460408051608081018252600587015460ff81811683526101008083048216848c0152620100008304821684860152630100000090920481166060840152600689015460078a015460088b015460098c01548751808901909852600a8d0154808616895286900485169d88019d909d52600f8c015460108d01546011909d0154858d169f5095909b0484169c999b989a97999598929791969095909316939091908e565b600a546001600160a01b031633146108625760405162461bcd60e51b8152600401610859906151cb565b60405180910390fd5b61086f838383600061344d565b505050565b60008082121561088c576108878261520f565b610754565b5090565b600b5460ff16821480156108ad5750600b54610100900460ff1681145b610a73576007546001600160a01b031633146109025760405162461bcd60e51b8152602060048201526014602482015273139bdd081c1b185e595c9cc818dbdb9d1c9858dd60621b6044820152606401610859565b6000600c85815481106109175761091761522b565b90600052602060002090601302019050600081601201805490509050816012016040518060c001604052808381526020018881526020018760088111156109605761096061490f565b815260200160405180604001604052808860ff1681526020018760ff168152508152602001600e600089600881111561099b5761099b61490f565b60088111156109ac576109ac61490f565b8152602080820192909252604090810160009081205484529282018390528454600181810187559584529282902084516006909402019283559083015182850155820151600282018054939492939192909160ff191690836008811115610a1557610a1561490f565b02179055506060820151805160038301805460209093015160ff9081166101000261ffff199094169216919091179190911790556080820151600482015560a0909101516005909101805491151560ff199290921691909117905550505b50505050565b6001805460009182610a8a83615241565b9190505550600154600143610a9f919061525a565b4033604051602001610ad693929190928352602083019190915260601b6bffffffffffffffffffffffff1916604082015260540190565b60405160208183030381529060405280519060200120905090565b600080610b0060016006611da2565b60ff1690507ffe34d093a460a16ee5fb374540914d1c734a17502c0c1a87b387c8d6097e1c518382604051610b3f929190918252602082015260400190565b60405180910390a192915050565b600a546001600160a01b03163314610b775760405162461bcd60e51b8152600401610859906151cb565b6000806000600c8881548110610b8f57610b8f61522b565b90600052602060002090601302016012018781548110610bb157610bb161522b565b906000526020600020906006020190508060040154600003610be957604051635218ce7360e01b815260048101889052602401610859565b6003810154845160ff9081169116148015610c1757506003810154602085015160ff90811661010090920416145b1580610cc35750600454600c80546001600160a01b0390921691632ec6572a91908b908110610c4857610c4861522b565b906000526020600020906013020160060154868460030160006040518563ffffffff1660e01b8152600401610c80949392919061526d565b602060405180830381865afa158015610c9d573d6000803e3d6000fd5b505050506040513d601f19601f82011682018060405250810190610cc191906152c6565b155b15610ce457604051636aeddacb60e01b815260048101889052602401610859565b6002810154610d2f908990600f9060009060ff166008811115610d0957610d0961490f565b6008811115610d1a57610d1a61490f565b81526020019081526020016000205487611404565b15610d505760048101805460019450906000610d4a836152e3565b91905055505b600481015415610eae576003810154845160ff9081169116148015610d8857506003810154602085015160ff90811661010090920416145b80610df557506001600282015460ff166008811115610da957610da961490f565b14158015610dd057506005600282015460ff166008811115610dcd57610dcd61490f565b14155b8015610df557506006600282015460ff166008811115610df257610df261490f565b14155b15610eae57600281015460119060009060ff166008811115610e1957610e1961490f565b6008811115610e2a57610e2a61490f565b81526020810191909152604090810160009081205460075492516301ba1eb160e31b8152600481018a905260248101879052604481019290925293506001600160a01b0390911690630dd0f58890606401600060405180830381600087803b158015610e9557600080fd5b505af1158015610ea9573d6000803e3d6000fd5b505050505b60028101546040517f8e8341e4cf4165f5b8133f6805aa5cd98756c5203c1756d9eec0af9cef617d4391610ef1918b918a9160ff909116908c90899089906152fa565b60405180910390a16000888152600260205260409020610f119043613e2c565b505050505050505050565b600a546001600160a01b03163314610f465760405162461bcd60e51b8152600401610859906151cb565b6000600c8581548110610f5b57610f5b61522b565b60009182526020909120600654604051635f87260160e01b81526004810188905260248101899052601390930290910192506001600160a01b031690635f87260190604401600060405180830381600087803b158015610fba57600080fd5b505af1158015610fce573d6000803e3d6000fd5b5050600354604051631ff77ac560e11b8152600481018790526001600160a01b039091169250633feef58a9150602401600060405180830381600087803b15801561101857600080fd5b505af115801561102c573d6000803e3d6000fd5b505050506001818101546000916110429161525a565b6001600160401b03811115611059576110596149ff565b604051908082528060200260200182016040528015611082578160200160208202803683370190505b5090506000805b60018401548110156110f9578085146110e7578360010181815481106110b1576110b161522b565b90600052602060002001548383815181106110ce576110ce61522b565b6020908102919091010152816110e381615241565b9250505b806110f181615241565b915050611089565b50815161110f9060018501906020850190614735565b50600383018054906000611122836152e3565b9091555050600183015460028401540361113e57600060028401555b600183015460000361115357825460ff191683555b50505050505050565b60606000600c83815481106111735761117361522b565b9060005260206000209060130201600101805490506001600160401b0381111561119f5761119f6149ff565b6040519080825280602002602001820160405280156111c8578160200160208202803683370190505b50905060005b815181101561124657600c84815481106111ea576111ea61522b565b9060005260206000209060130201600101818154811061120c5761120c61522b565b90600052602060002001548282815181106112295761122961522b565b60209081029190910101528061123e81615241565b9150506111ce565b5092915050565b600a546001600160a01b031633146112775760405162461bcd60e51b8152600401610859906151cb565b6001600c838154811061128c5761128c61522b565b906000526020600020906013020160120182815481106112ae576112ae61522b565b60009182526020909120600690910201600501805460ff19169115159190911790555050565b6000806112e1868661525a565b90506000836112f08684615332565b6112fa919061535f565b90506113068782615373565b979650505050505050565b6000600c82815481106113265761132661522b565b600091825260209091206013909102018054909150610100900460ff16151560010361136557604051633ae1755360e21b815260040160405180910390fd5b600180820154900361138a5760405163015b385160e41b815260040160405180910390fd5b80600f0154816010015461139e9190615373565b4210156113be57604051630df3377b60e31b815260040160405180910390fd5b6008810154156113d3576113d3826000613e38565b61140082826001018360020154815481106113f0576113f061522b565b9060005260206000200154613f04565b5050565b60008061141085610af1565b6040805187815260208101839052908101869052606081018590529091507f75b6a8325595f91135e07382840634226793c68c9e59623da7e10d7ad3d95b959060800160405180910390a18060010361146d57600091505061149a565b60038361147a8684615373565b6114849190615386565b131561149457600191505061149a565b60009150505b9392505050565b6000816114af846004615332565b61149a9190615373565b6000600c83815481106114ce576114ce61522b565b6000918252602090912060078054601390930290910190810154604051636621a42160e01b815260048101919091529092506001600160a01b0390911690636621a42190602401602060405180830381865afa158015611532573d6000803e3d6000fd5b505050506040513d601f19601f8201168201806040525081019061155691906153b1565b6001600160a01b0316336001600160a01b03161461158f578060070154604051637111468960e11b815260040161085991815260200190565b61086f8383613e38565b6115a161477c565b600c82815481106115b4576115b461522b565b600091825260209182902060408051610280810182526013909302909101805460ff8082161515855261010090910416151583850152600181018054835181870281018701855281815294959294938601939283018282801561163657602002820191906000526020600020905b815481526020019060010190808311611622575b505050918352505060028201546020808301919091526003830154604080840191909152600484015460608085019190915281516080818101845260058088015460ff808216855261010080830482169886019890985262010000820481169685019690965263010000009004851693830193909352850152600685015460a0850152600785015460c0850152600885015460e0850152600985015492909301929116908111156116e9576116e961490f565b60058111156116fa576116fa61490f565b8152604080518082018252600a84015460ff80821683526101009091041660208281019190915280840191909152600b8401805483518184028101840185528181529390940193909183018282801561177257602002820191906000526020600020905b81548152602001906001019080831161175e575b50505050508152602001600c82018054806020026020016040519081016040528092919081815260200182805480156117ca57602002820191906000526020600020905b8154815260200190600101908083116117b6575b50505050508152602001600d820180548060200260200160405190810160405280929190818152602001828054801561182257602002820191906000526020600020905b81548152602001906001019080831161180e575b50505050508152602001600e820180548060200260200160405190810160405280929190818152602001828054801561187a57602002820191906000526020600020905b815481526020019060010190808311611866575b50505050508152602001600f8201548152602001601082015481526020016011820154815260200160128201805480602002602001604051908101604052809291908181526020016000905b8282101561198c57838290600052602060002090600602016040518060c001604052908160008201548152602001600182015481526020016002820160009054906101000a900460ff1660088111156119215761192161490f565b60088111156119325761193261490f565b8152604080518082018252600384015460ff808216835261010090910481166020838101919091528085019290925260048501549284019290925260059093015416151560609091015290825260019290920191016118c6565b505050915250909392505050565b6119a2613fe0565b6119ac600061403a565b565b6000816000036119c057506001919050565b816001036119d057506000919050565b816002036119e057506003919050565b816003036119f057506002919050565b60405162461bcd60e51b815260206004820152600d60248201526c2130b2103234b932b1ba34b7b760991b6044820152606401610859565b611a30613fe0565b610a738484848461344d565b604080518082019091526000808252602082015282600003611a8e57604051806040016040528060018460000151611a7491906153ce565b60ff168152602001836020015160ff168152509050610754565b82600103611ab257604051806040016040528083600001516001611a7491906153e7565b82600203611aef576040518060400160405280836000015160ff16815260200183602001516001611ae391906153e7565b60ff1690529050610754565b82600303611b20576040518060400160405280836000015160ff16815260200160018460200151611ae391906153ce565b6000611b2b8461408a565b604051602001611b3b9190615424565b60405160208183030381529060405290508060405162461bcd60e51b8152600401610859919061545f565b600080826001611b77866002615576565b611b81919061525a565b901b8516831c9150509392505050565b600d6020528160005260406000208181548110611bad57600080fd5b90600052602060002001600091509150505481565b600a546001600160a01b03163314611bec5760405162461bcd60e51b8152600401610859906151cb565b80611c505760075460405163ce93229760e01b8152600481018490526001600160a01b039091169063ce93229790602401600060405180830381600087803b158015611c3757600080fd5b505af1158015611c4b573d6000803e3d6000fd5b505050505b6007546040516347d0e3c960e01b8152600481018490526000916001600160a01b0316906347d0e3c990602401602060405180830381865afa158015611c9a573d6000803e3d6000fd5b505050506040513d601f19601f82011682018060405250810190611cbe9190615582565b905060038110610a7357610a738484613f04565b6001600160a01b0381166000908152600d6020526040812054606091906001600160401b03811115611d0657611d066149ff565b604051908082528060200260200182016040528015611d2f578160200160208202803683370190505b50905060005b8151811015611246576001600160a01b0384166000908152600d60205260409020805482908110611d6857611d6861522b565b9060005260206000200154828281518110611d8557611d8561522b565b602090810291909101015280611d9a81615241565b915050611d35565b6001805460009182611db383615241565b9190505550600033600154600143611dcb919061525a565b60405160609390931b6bffffffffffffffffffffffff19166020840152603483019190915240605482015260740160408051601f19818403018152919052805160209091012090506000611e1f85856153ce565b611e2a9060016153e7565b90508460ff168160ff1683611e3f919061559b565b611e499190615373565b95945050505050565b611e5a613fe0565b600380546001600160a01b03199081166001600160a01b03998a16179091556004805482169789169790971790965560088054871695881695909517909455600a8054861693871693909317909255600580548516918616919091179055600680548416918516919091179055600780549092169216919091179055565b6060600c8281548110611eed57611eed61522b565b9060005260206000209060130201601201805480602002602001604051908101604052809291908181526020016000905b82821015611fe457838290600052602060002090600602016040518060c001604052908160008201548152602001600182015481526020016002820160009054906101000a900460ff166008811115611f7957611f7961490f565b6008811115611f8a57611f8a61490f565b8152604080518082018252600384015460ff80821683526101009091048116602083810191909152808501929092526004850154928401929092526005909301541615156060909101529082526001929092019101611f1e565b505050509050919050565b6000600c82815481106120045761200461522b565b600091825260208220600480546013939093029091016006810154604051630f78220b60e11b81529283015293506001600160a01b0390911690631ef0441690602401600060405180830381865afa158015612064573d6000803e3d6000fd5b505050506040513d6000823e601f3d908101601f1916820160405261208c9190810190615627565b60018301549091506000906001600160401b038111156120ae576120ae6149ff565b6040519080825280602002602001820160405280156121b257816020015b61219f604080516101c081018252600080825260208083018290528284018290528351610100810185528281528082018390528085018390526060808201849052608080830185905260a080840186905260c0840186905260e0840186905291860192909252855180870187528481528084018590529185019190915284518086019095528285529084019190915290919082019081526000602082018190526040820181905260608083018290526080830182905260a083015260c0820181905260e082018190526101009091015290565b8152602001906001900390816120cc5790505b50905060005b815181101561228b576007546001850180546001600160a01b03909216916310f67fb39190849081106121ed576121ed61522b565b90600052602060002001546040518263ffffffff1660e01b815260040161221691815260200190565b600060405180830381865afa158015612233573d6000803e3d6000fd5b505050506040513d6000823e601f3d908101601f1916820160405261225b919081019061593c565b82828151811061226d5761226d61522b565b6020026020010181905250808061228390615241565b9150506121b8565b506000600c85815481106122a1576122a161522b565b9060005260206000209060130201601201905060005b8154811015612d955760008282815481106122d4576122d461522b565b9060005260206000209060060201905080600401546000036122f65750612d83565b60038101548551869160ff169081106123115761231161522b565b60200260200101518160030160000160019054906101000a900460ff1660ff16815181106123415761234161522b565b602002602001015160c001511561236a57600481018054906000612364836152e3565b91905055505b806004015460000361237c5750612d83565b61270f60001960005b865181101561248557600b54875160ff909116908890839081106123ab576123ab61522b565b6020026020010151608001516000015160ff161480156123fc5750600b54875161010090910460ff16908890839081106123e7576123e761522b565b6020026020010151608001516020015160ff16145b6124735760408051808201909152600385015460ff8082168352610100909104166020820152875160009161244e918a908590811061243d5761243d61522b565b6020026020010151608001516132b2565b90508060000361246357819350809250612471565b828111612471578193508092505b505b8061247d81615241565b915050612385565b508161270f0361249757505050612d83565b6001600284015460ff1660088111156124b2576124b261490f565b036126af57806000036124ec576124e489848885815181106124d6576124d661522b565b602002602001015184614192565b505050612d83565b600160005260126020527f71a67924699a20698523213e55fe499d539379d7769cd5567e2c45d583f815a35481116126af57600454600689015487516001600160a01b03909216916345e1e03c919060038701908a90879081106125525761255261522b565b6020026020010151608001516000600160126000600160088111156125795761257961490f565b600881111561258a5761258a61490f565b8152602001908152602001600020546040518763ffffffff1660e01b81526004016125ba96959493929190615a87565b6040805180830381865afa1580156125d6573d6000803e3d6000fd5b505050506040513d601f19601f820116820180604052508101906125fa9190615ad5565b805160038501805460209093015160ff9081166101000261ffff1990941692169190911791909117905585518690839081106126385761263861522b565b60209081029190910101516080015151600384015460ff9081169116148015612693575085828151811061266e5761266e61522b565b6020908102919091018101516080015101516003840154610100900460ff9081169116145b156124e4576124e489848885815181106124d6576124d661522b565b60028084015460ff1660088111156126c9576126c961490f565b03612959578060000361289b57600480546040516369568fd560e01b81529182018b90526000916001600160a01b03909116906369568fd590602401600060405180830381865afa158015612722573d6000803e3d6000fd5b505050506040513d6000823e601f3d908101601f1916820160405261274a9190810190615af1565b905060005b600481101561286b57600282828151811061276c5761276c61522b565b60200260200101516040015160048111156127895761278961490f565b14806127c3575060018282815181106127a4576127a461522b565b60200260200101516040015160048111156127c1576127c161490f565b145b806127fc575060038282815181106127dd576127dd61522b565b60200260200101516040015160048111156127fa576127fa61490f565b145b156128595760408051808201909152600386015460ff808216835261010090910416602082015261282e908290611a3c565b805160038701805460209093015160ff9081166101000261ffff199094169216919091179190911790555b8061286381615241565b91505061274f565b506128928a858986815181106128835761288361522b565b60200260200101516001614192565b50505050612d83565b600454600689015487516001600160a01b0390921691632ec6572a919060038701908a90879081106128cf576128cf61522b565b60200260200101516080015160006040518563ffffffff1660e01b81526004016128fc9493929190615bce565b602060405180830381865afa158015612919573d6000803e3d6000fd5b505050506040513d601f19601f8201168201806040525081019061293d91906152c6565b15612959576124e489848885815181106124d6576124d661522b565b6003600284015460ff1660088111156129745761297461490f565b03612a435761270f81108015612a275750600454600689015487516001600160a01b0390921691632ec6572a919060038701908a90879081106129b9576129b961522b565b60200260200101516080015160016040518563ffffffff1660e01b81526004016129e69493929190615bce565b602060405180830381865afa158015612a03573d6000803e3d6000fd5b505050506040513d601f19601f82011682018060405250810190612a2791906152c6565b15612a43576124e489848885815181106124d6576124d661522b565b6004600284015460ff166008811115612a5e57612a5e61490f565b03612d7f5780600003612a82576124e489848885815181106124d6576124d661522b565b600460005260126020527fb4fcd034df3d20faa1c133b66d862ce92732727d40916b48ffb4020cb00fe053548111612bc157600454600689015487516001600160a01b03909216916345e1e03c919060038701908a9087908110612ae857612ae861522b565b602002602001015160800151600160006012600060046008811115612b0f57612b0f61490f565b6008811115612b2057612b2061490f565b8152602001908152602001600020546040518763ffffffff1660e01b8152600401612b5096959493929190615a87565b6040805180830381865afa158015612b6c573d6000803e3d6000fd5b505050506040513d601f19601f82011682018060405250810190612b909190615ad5565b80516003909401805460209092015160ff9081166101000261ffff199093169516949094171790925550612d839050565b61270f811015612d6d57600454600689015487516001600160a01b03909216916345e1e03c919060038701908a9087908110612bff57612bff61522b565b602002602001015160800151600160006012600060046008811115612c2657612c2661490f565b6008811115612c3757612c3761490f565b8152602001908152602001600020546040518763ffffffff1660e01b8152600401612c6796959493929190615a87565b6040805180830381865afa158015612c83573d6000803e3d6000fd5b505050506040513d601f19601f82011682018060405250810190612ca79190615ad5565b805160038501805460209093015160ff9081166101000261ffff1990941692169190911791909117815560045460068a015488516001600160a01b0390921692632ec6572a928a9087908110612cff57612cff61522b565b60200260200101516080015160016040518563ffffffff1660e01b8152600401612d2c9493929190615bce565b602060405180830381865afa158015612d49573d6000803e3d6000fd5b505050506040513d601f19601f8201168201806040525081019061269391906152c6565b61270f811015612d7f57505050612d83565b5050505b80612d8d81615241565b9150506122b7565b50835461ff00191684556040518581527f0b902bf94ea0561a1c7b03fed6f663a1ae180c3c6d92b1b529718058696a4c389060200160405180910390a16000858152600260205260409020612dea9043613e2c565b505050505050565b6008546000906001600160a01b03163314612e445760405162461bcd60e51b8152602060048201526012602482015271139bdd081b1bd8989e4818dbdb9d1c9858dd60721b6044820152606401610859565b600c80546001818101808455600093845260139092027fdf6966c971051c3d54ec59162606531493a51404a002842f56009d7e5cf4a8c7019291612e88919061525a565b825460ff191660019081178455600060048501558751919250612eb391908401906020890190614735565b50600382018590556040805160808101825260008082526020820181905291810182905260600181905260058301805463ffffffff19169055849003612f6a57600480546040805163780fe1ad60e11b815290516001600160a01b039092169263f01fc35a92828201926020929082900301816000875af1158015612f3c573d6000803e3d6000fd5b505050506040513d601f19601f82011682018060405250810190612f609190615582565b6006830155612fdd565b6004805460405163148e052f60e21b81529182018690526001600160a01b03169063523814bc906024016020604051808303816000875af1158015612fb3573d6000803e3d6000fd5b505050506040513d601f19601f82011682018060405250810190612fd79190615582565b60068301555b60005b612feb60018761525a565b811161311357600683015460408051808201909152600b5460ff808216835261010090910416602082015260018501805461304593929190859081106130335761303361522b565b9060005260206000200154600061344d565b60075487516000916001600160a01b031690636621a421908a908590811061306f5761306f61522b565b60200260200101516040518263ffffffff1660e01b815260040161309591815260200190565b602060405180830381865afa1580156130b2573d6000803e3d6000fd5b505050506040513d601f19601f820116820180604052508101906130d691906153b1565b6001600160a01b03166000908152600d6020908152604082208054600181018255908352912001839055508061310b81615241565b915050612fe0565b5060075460405163e7169ec560e01b81526001600160a01b039091169063e7169ec5906131469089908590600401615c09565b600060405180830381600087803b15801561316057600080fd5b505af1158015613174573d6000803e3d6000fd5b5050600654604051633b09709560e21b81526001600160a01b03909116925063ec25c25491506131aa9084908a90600401615c2b565b600060405180830381600087803b1580156131c457600080fd5b505af11580156131d8573d6000803e3d6000fd5b505050506000604051806101e00160405280600181526020016002815260200160038152602001600481526020016005815260200160068152602001600781526020016008815260200160098152602001600a8152602001600b8152602001600c8152602001600d8152602001600e8152602001600f81525090508083600b0190600f613266929190614735565b50613276600c840182600f614735565b50613286600d840182600f614735565b50613296600e840182600f614735565b505061012c600f83015542601090920191909155949350505050565b6000806132d2836000015160000b856000015160000b61038d9190615386565b905060006132f3846020015160000b866020015160000b61038d9190615386565b9050611e498183615373565b613307613fe0565b6001600160a01b03811661336c5760405162461bcd60e51b815260206004820152602660248201527f4f776e61626c653a206e6577206f776e657220697320746865207a65726f206160448201526564647265737360d01b6064820152608401610859565b6133758161403a565b50565b8051825160009161338891615c44565b60000b60010361339a57506000610754565b815183516133a89190615c44565b60000b196133b857506001610754565b816020015183602001516133cc9190615c44565b60000b196133dc57506002610754565b816020015183602001516133f09190615c44565b60000b60010361340257506003610754565b60405162461bcd60e51b8152602060048201526013602482015272115c9c9bdc8e88139bdd0818591a9858d95b9d606a1b6044820152606401610859565b6060600061149a836143ea565b6000600c85815481106134625761346261522b565b90600052602060002090601302019050806001016000815481106134885761348861522b565b906000526020600020015483141580156134c25750806001016001815481106134b3576134b361522b565b90600052602060002001548314155b80156134ee5750806001016002815481106134df576134df61522b565b90600052602060002001548314155b801561351a57508060010160038154811061350b5761350b61522b565b90600052602060002001548314155b156135425760405163013eacb560e01b81526004810186905260248101849052604401610859565b600754600c80546001600160a01b0390921691638d491b3e9187918791908a9081106135705761357061522b565b9060005260206000209060130201600601546040518463ffffffff1660e01b81526004016135a093929190615c65565b6020604051808303816000875af11580156135bf573d6000803e3d6000fd5b505050506040513d601f19601f820116820180604052508101906135e391906152c6565b613e2557600454600c80546000926001600160a01b0316916381bad36d91899081106136115761361161522b565b90600052602060002090601302016006015487600001518860200151876040518563ffffffff1660e01b8152600401613667949392919093845260ff928316602085015291166040830152606082015260800190565b6020604051808303816000875af1158015613686573d6000803e3d6000fd5b505050506040513d601f19601f820116820180604052508101906136aa9190615582565b600454600c80549293506000926001600160a01b0390921691635805828391908a9081106136da576136da61522b565b906000526020600020906013020160060154846040518363ffffffff1660e01b8152600401613713929190918252602082015260400190565b60a060405180830381865afa158015613730573d6000803e3d6000fd5b505050506040513d601f19601f820116820180604052508101906137549190615c94565b905060028211801561377957506000815160058111156137765761377661490f565b14155b15611153576001815160058111156137935761379361490f565b036137e657600c87815481106137ab576137ab61522b565b600091825260208220600560139092020101805460ff16916137cc83615d26565b91906101000a81548160ff021916908360ff160217905550505b6002815160058111156137fb576137fb61490f565b0361385657600c87815481106138135761381361522b565b600091825260209091206013909102016005018054610100900460ff1690600161383c83615d26565b91906101000a81548160ff021916908360ff160217905550505b60038151600581111561386b5761386b61490f565b036138c757600c87815481106138835761388361522b565b60009182526020909120601390910201600501805462010000900460ff169060026138ad83615d26565b91906101000a81548160ff021916908360ff160217905550505b6004815160058111156138dc576138dc61490f565b0361393957600c87815481106138f4576138f461522b565b6000918252602090912060139091020160050180546301000000900460ff1690600361391f83615d26565b91906101000a81548160ff021916908360ff160217905550505b602081015115613ab957600554602082015160405163c82c37b960e01b815260048101919091526000916001600160a01b03169063c82c37b990602401600060405180830381865afa158015613993573d6000803e3d6000fd5b505050506040513d6000823e601f3d908101601f191682016040526139bb9190810190615dd2565b90508060200151613ab35785600c89815481106139da576139da61522b565b9060005260206000209060130201600701819055508160200151600c8981548110613a0757613a0761522b565b9060005260206000209060130201600801819055506005600c8981548110613a3157613a3161522b565b60009182526020909120600960139092020101805460ff19166001836005811115613a5e57613a5e61490f565b021790555086600c8981548110613a7757613a7761522b565b60009182526020918290208351600a6013909302909101919091018054939092015160ff9081166101000261ffff199094169116179190911790555b50611153565b600081516005811115613ace57613ace61490f565b146111535784600c8881548110613ae757613ae761522b565b90600052602060002090601302016007018190555085600c8881548110613b1057613b1061522b565b60009182526020918290208351600a6013909302909101919091018054939092015160ff9081166101000261ffff19909416911617919091179055600181516005811115613b6057613b6061490f565b03613c0157613b91600c8881548110613b7b57613b7b61522b565b9060005260206000209060130201600b01614446565b600c8881548110613ba457613ba461522b565b9060005260206000209060130201600801819055506001600c8881548110613bce57613bce61522b565b60009182526020909120600960139092020101805460ff19166001836005811115613bfb57613bfb61490f565b02179055505b600281516005811115613c1657613c1661490f565b03613cb757613c47600c8881548110613c3157613c3161522b565b9060005260206000209060130201600c01614446565b600c8881548110613c5a57613c5a61522b565b9060005260206000209060130201600801819055506002600c8881548110613c8457613c8461522b565b60009182526020909120600960139092020101805460ff19166001836005811115613cb157613cb161490f565b02179055505b600381516005811115613ccc57613ccc61490f565b03613d6d57613cfd600c8881548110613ce757613ce761522b565b9060005260206000209060130201600d01614446565b600c8881548110613d1057613d1061522b565b9060005260206000209060130201600801819055506003600c8881548110613d3a57613d3a61522b565b60009182526020909120600960139092020101805460ff19166001836005811115613d6757613d6761490f565b02179055505b600481516005811115613d8257613d8261490f565b0361115357613db3600c8881548110613d9d57613d9d61522b565b9060005260206000209060130201600e01614446565b600c8881548110613dc657613dc661522b565b9060005260206000209060130201600801819055506004600c8881548110613df057613df061522b565b60009182526020909120600960139092020101805460ff19166001836005811115613e1d57613e1d61490f565b021790555050505b5050505050565b600061149a838361456c565b6000600c8381548110613e4d57613e4d61522b565b6000918252602090912060078054601390930290910190810154600682015460088301546009840154604051636d291bbb60e01b81529496506001600160a01b0390951694636d291bbb94613eb594899490938b939192600a8b019260ff1690600401615ec3565b600060405180830381600087803b158015613ecf57600080fd5b505af1158015613ee3573d6000803e3d6000fd5b505060006007840181905560088401555050600901805460ff191690555050565b6000600c8381548110613f1957613f1961522b565b6000918252602090912060075460405163065c363f60e41b815260048101869052601390930290910192506001600160a01b0316906365c363f090602401600060405180830381600087803b158015613f7157600080fd5b505af1158015613f85573d6000803e3d6000fd5b50504260108401555050600180820154613f9f919061525a565b81600201541015613fc657600281018054906000613fbc83615241565b9190505550505050565b613fd48382600601546145bb565b60006002820155505050565b6000546001600160a01b031633146119ac5760405162461bcd60e51b815260206004820181905260248201527f4f776e61626c653a2063616c6c6572206973206e6f7420746865206f776e65726044820152606401610859565b600080546001600160a01b038381166001600160a01b0319831681178455604051919092169283917f8be0079c531659141344cd1fd0a4f28419497f9722a3daafe3b4186f6b6457e09190a35050565b6060816000036140b15750506040805180820190915260018152600360fc1b602082015290565b8160005b81156140db57806140c581615241565b91506140d49050600a8361535f565b91506140b5565b6000816001600160401b038111156140f5576140f56149ff565b6040519080825280601f01601f19166020018201604052801561411f576020820181803683370190505b5090505b841561418a5761413460018361525a565b9150614141600a8661559b565b61414c906030615373565b60f81b8183815181106141615761416161522b565b60200101906001600160f81b031916908160001a905350614183600a8661535f565b9450614123565b949350505050565b600283015460009081906141ec908790601090849060ff1660088111156141bb576141bb61490f565b60088111156141cc576141cc61490f565b81526020019081526020016000205486606001516040015160ff16611404565b156142a857600285015460119060009060ff1660088111156142105761421061490f565b60088111156142215761422161490f565b8152602081019190915260409081016000908120546007548784015193516301ba1eb160e31b8152600481019490945260248401829052604484019290925293506001600160a01b031690630dd0f58890606401600060405180830381600087803b15801561428f57600080fd5b505af11580156142a3573d6000803e3d6000fd5b505050505b8215806142ba5750836060015160e001515b156143815760008360000361430557846060015160a0015160000b856060015160c0015160000b136142f457846060015160a001516142fe565b846060015160c001515b9050614310565b50606084015160a001515b600286015461435e90889060ff80851691600f916000911660088111156143395761433961490f565b600881111561434a5761434a61490f565b815260200190815260200160002054611404565b1561437f5760048601805460019350906000614379836152e3565b91905055505b505b6002850154855460408087015190517fbec470141b1ce95021ad88998cf463bb41483dbb4fa04b0f5f9e34541c7336a4936143ca938b9360ff9092169290919088908890615f17565b60405180910390a160008681526002602052604090206111539043613e2c565b60608160000180548060200260200160405190810160405280929190818152602001828054801561443a57602002820191906000526020600020905b815481526020019060010190808311614426575b50505050509050919050565b805460009081906144599060019061525a565b90505b801561450957600061446f600083611da2565b9050838160ff16815481106144865761448661522b565b90600052602060002001548483815481106144a3576144a361522b565b90600052602060002001548584815481106144c0576144c061522b565b906000526020600020016000878560ff16815481106144e1576144e161522b565b6000918252602090912001929092559190915550819050614501816152e3565b91505061445c565b508154600090839061451d9060019061525a565b8154811061452d5761452d61522b565b906000526020600020015490508280548061454a5761454a615f4e565b600190038181906000526020600020016000905590558060ff16915050919050565b60008181526001830160205260408120546145b357508154600181810184556000848152602080822090930184905584548482528286019093526040902091909155610754565b506000610754565b6000600c83815481106145d0576145d061522b565b906000526020600020906013020190508060040160008154809291906145f590615241565b909155505060048054604051630b06115560e31b81529182018490526001600160a01b0316906358308aa890602401600060405180830381600087803b15801561463e57600080fd5b505af1158015614652573d6000803e3d6000fd5b50506004805460405163c6b41b4560e01b8152918201869052600160248301526001600160a01b0316925063c6b41b459150604401600060405180830381600087803b1580156146a157600080fd5b505af11580156146b5573d6000803e3d6000fd5b5050600754600684015460405163668a7f3b60e01b81526001600160a01b03909216935063668a7f3b92506146f1916001860190600401615f64565b600060405180830381600087803b15801561470b57600080fd5b505af115801561471f573d6000803e3d6000fd5b5050825461ff0019166101001790925550505050565b828054828255906000526020600020908101928215614770579160200282015b82811115614770578251825591602001919060010190614755565b5061088c929150614864565b6040805161028081018252600080825260208083018290526060838501819052808401839052608080850184905260a0850184905285519081018652838152918201839052938101829052928301529060c08201908152602001600081526020016000815260200160008152602001600060058111156147fe576147fe61490f565b81526020016148266040518060400160405280600060ff168152602001600060ff1681525090565b815260200160608152602001606081526020016060815260200160608152602001600081526020016000815260200160008152602001606081525090565b5b8082111561088c5760008155600101614865565b80356009811061488857600080fd5b919050565b60006020828403121561489f57600080fd5b61149a82614879565b6000602082840312156148ba57600080fd5b5035919050565b600081518084526020808501945080840160005b838110156148f1578151875295820195908201906001016148d5565b509495945050505050565b60208152600061149a60208301846148c1565b634e487b7160e01b600052602160045260246000fd5b600681106149355761493561490f565b9052565b6000610240820190508f151582528e151560208301528d60408301528c60608301528b608083015261499b60a083018c60ff815116825260ff602082015116602083015260ff604082015116604083015260ff60608201511660608301525050565b8961012083015288610140830152876101608301526149be610180830188614925565b855160ff9081166101a08401526020870151166101c0830152846101e083015283610200830152826102208301529f9e505050505050505050505050505050565b634e487b7160e01b600052604160045260246000fd5b604080519081016001600160401b0381118282101715614a3757614a376149ff565b60405290565b60405160e081016001600160401b0381118282101715614a3757614a376149ff565b6040516101c081016001600160401b0381118282101715614a3757614a376149ff565b604051606081016001600160401b0381118282101715614a3757614a376149ff565b604051601f8201601f191681016001600160401b0381118282101715614acc57614acc6149ff565b604052919050565b60ff8116811461337557600080fd5b600060408284031215614af557600080fd5b614afd614a15565b90508135614b0a81614ad4565b81526020820135614b1a81614ad4565b602082015292915050565b600080600060808486031215614b3a57600080fd5b83359250614b4b8560208601614ae3565b9150606084013590509250925092565b60008060008060808587031215614b7157600080fd5b84359350614b8160208601614879565b93969395505050506040820135916060013590565b600080600080600060c08688031215614bae57600080fd5b85359450602086013593506040860135925060608601359150614bd48760808801614ae3565b90509295509295909350565b60008060008060808587031215614bf657600080fd5b5050823594602084013594506040840135936060013592509050565b60008060408385031215614c2557600080fd5b50508035926020909101359150565b600080600060608486031215614c4957600080fd5b505081359360208301359350604090920135919050565b600981106149355761493561490f565b600081518084526020808501945080840160005b838110156148f1578151805188528381015184890152604080820151614cac828b0182614c60565b5050606081810151805160ff9081168b84015260208201511660808b01525050608081015160a0898101919091520151151560c088015260e09096019590820190600101614c84565b60208152614d0860208201835115159052565b60006020830151614d1d604084018215159052565b506040830151610300806060850152614d3a6103208501836148c1565b915060608501516080850152608085015160a085015260a085015160c085015260c0850151614d9960e086018260ff815116825260ff602082015116602083015260ff604082015116604083015260ff60608201511660608301525050565b5060e085015161016081818701526101008701519150610180828188015261012088015192506101a0838189015261014089015193506101c0614dde818a0186614925565b9289015193506101e092614e0489850186805160ff908116835260209182015116910152565b828a01519450601f199250610220838a890301818b0152614e2588876148c1565b9750828b015195506102409250838a890301838b0152614e4588876148c1565b9750818b015195506102609150838a890301828b0152614e6588876148c1565b9750848b01519550838a8903016102808b0152614e8288876148c1565b6102008c01516102a08c0152908b01516102c08b0152918a01516102e08a01528901518882039092018589015294509150614ebf90508382614c70565b9695505050505050565b60008060008060a08587031215614edf57600080fd5b84359350614ef08660208701614ae3565b93969395505050506060820135916080013590565b60008060608385031215614f1857600080fd5b82359150614f298460208501614ae3565b90509250929050565b604081016107548284805160ff908116835260209182015116910152565b6001600160a01b038116811461337557600080fd5b60008060408385031215614f7857600080fd5b8235614f8381614f50565b946020939093013593505050565b801515811461337557600080fd5b600080600060608486031215614fb457600080fd5b83359250602084013591506040840135614fcd81614f91565b809150509250925092565b600060208284031215614fea57600080fd5b813561149a81614f50565b6000806040838503121561500857600080fd5b823561501381614ad4565b9150602083013561502381614ad4565b809150509250929050565b600080600080600080600060e0888a03121561504957600080fd5b873561505481614f50565b9650602088013561506481614f50565b9550604088013561507481614f50565b9450606088013561508481614f50565b9350608088013561509481614f50565b925060a08801356150a481614f50565b915060c08801356150b481614f50565b8091505092959891949750929550565b60208152600061149a6020830184614c70565b60006001600160401b038211156150f0576150f06149ff565b5060051b60200190565b60008060006060848603121561510f57600080fd5b83356001600160401b0381111561512557600080fd5b8401601f8101861361513657600080fd5b8035602061514b615146836150d7565b614aa4565b82815260059290921b8301810191818101908984111561516a57600080fd5b938201935b838510156151885784358252938201939082019061516f565b999188013598505060409096013595945050505050565b600080608083850312156151b257600080fd5b6151bc8484614ae3565b9150614f298460408501614ae3565b602080825260149082015273139bdd081858dd1a5bdb9cc818dbdb9d1c9858dd60621b604082015260600190565b634e487b7160e01b600052601160045260246000fd5b6000600160ff1b8201615224576152246151f9565b5060000390565b634e487b7160e01b600052603260045260246000fd5b600060018201615253576152536151f9565b5060010190565b81810381811115610754576107546151f9565b84815260c081016152916020830186805160ff908116835260209182015116910152565b835460ff808216606085015260089190911c1660808301525b82151560a083015295945050505050565b805161488881614f91565b6000602082840312156152d857600080fd5b815161149a81614f91565b6000816152f2576152f26151f9565b506000190190565b8681526020810186905260c081016153156040830187614c60565b8460608301528360808301528260a0830152979650505050505050565b8082028115828204841417610754576107546151f9565b634e487b7160e01b600052601260045260246000fd5b60008261536e5761536e615349565b500490565b80820180821115610754576107546151f9565b8181036000831280158383131683831282161715611246576112466151f9565b805161488881614f50565b6000602082840312156153c357600080fd5b815161149a81614f50565b60ff8281168282160390811115610754576107546151f9565b60ff8181168382160190811115610754576107546151f9565b60005b8381101561541b578181015183820152602001615403565b50506000910152565b72024b73b30b634b2103234b932b1ba34b7b71d1606d1b815260008251615452816013850160208701615400565b9190910160130192915050565b602081526000825180602084015261547e816040850160208701615400565b601f01601f19169190910160400192915050565b600181815b808511156154cd5781600019048211156154b3576154b36151f9565b808516156154c057918102915b93841c9390800290615497565b509250929050565b6000826154e457506001610754565b816154f157506000610754565b816001811461550757600281146155115761552d565b6001915050610754565b60ff841115615522576155226151f9565b50506001821b610754565b5060208310610133831016604e8410600b8410161715615550575081810a610754565b61555a8383615492565b806000190482111561556e5761556e6151f9565b029392505050565b600061149a83836154d5565b60006020828403121561559457600080fd5b5051919050565b6000826155aa576155aa615349565b500690565b805161488881614ad4565b600082601f8301126155cb57600080fd5b604051608081018181106001600160401b03821117156155ed576155ed6149ff565b60405280608084018581111561560257600080fd5b845b8181101561561c578051835260209283019201615604565b509195945050505050565b6000602080838503121561563a57600080fd5b82516001600160401b038082111561565157600080fd5b818501915085601f83011261566557600080fd5b8151615673615146826150d7565b81815260059190911b8301840190848101908883111561569257600080fd5b8585015b838110156157af578051858111156156ad57600080fd5b8601603f81018b136156be57600080fd5b878101516156ce615146826150d7565b818152610140909102820160400190898101908d8311156156ee57600080fd5b6040840193505b8284101561579f57610140848f03121561570e57600080fd5b615716614a3d565b845161572181614ad4565b8152848c015161573081614ad4565b818d01526157418f604087016155ba565b604082015261575260c086016152bb565b606082015261576360e086016152bb565b608082015261577561010086016152bb565b60a082015261578761012086016152bb565b60c082015282526101409390930192908a01906156f5565b8652505050918601918601615696565b5098975050505050505050565b8051600081900b811461488857600080fd5b60006101008083850312156157e257600080fd5b604051908101906001600160401b0382118183101715615804576158046149ff565b81604052809250615814846157bc565b8152615822602085016157bc565b6020820152615833604085016157bc565b6040820152615844606085016157bc565b6060820152615855608085016157bc565b608082015261586660a085016157bc565b60a082015261587760c085016157bc565b60c082015260e0840151915061588c82614f91565b60e0015292915050565b6000604082840312156158a857600080fd5b6158b0614a15565b905081516158bd81614ad4565b81526020820151614b1a81614ad4565b600082601f8301126158de57600080fd5b815160206158ee615146836150d7565b82815260059290921b8401810191818101908684111561590d57600080fd5b8286015b8481101561593157805161592481614ad4565b8352918301918301615911565b509695505050505050565b60006020828403121561594e57600080fd5b81516001600160401b038082111561596557600080fd5b908301906102e0828603121561597a57600080fd5b615982614a5f565b61598b836153a6565b815260208301516020820152604083015160408201526159ae86606085016157ce565b60608201526101606159c287828601615896565b60808301526101a06159d688828701615896565b60a08401526159e86101e086016157bc565b60c08401526159fa61020086016155af565b60e0840152615a0c61022086016155af565b610100840152615a1f61024086016155af565b61012084015261026085015184811115615a3857600080fd5b615a44898288016158cd565b61014085015250615a5861028086016155af565b82840152615a696102a086016152bb565b6101808401526102c085015181840152505080935050505092915050565b958652935460ff80821660208089019190915260089290921c811660408801528451811660608801529301519092166080850152151560a0840152151560c083015260e08201526101000190565b600060408284031215615ae757600080fd5b61149a8383615896565b60006020808385031215615b0457600080fd5b82516001600160401b03811115615b1a57600080fd5b8301601f81018513615b2b57600080fd5b8051615b39615146826150d7565b81815260609182028301840191848201919088841115615b5857600080fd5b938501935b83851015615bc25780858a031215615b755760008081fd5b615b7d614a82565b8551615b8881614ad4565b815285870151615b9781614ad4565b8188015260408681015160058110615baf5760008081fd5b9082015283529384019391850191615b5d565b50979650505050505050565b848152835460ff808216602084015260089190911c16604082015260c08101835160ff908116606084015260208501511660808301526152aa565b604081526000615c1c60408301856148c1565b90508260208301529392505050565b82815260406020820152600061418a60408301846148c1565b600082810b9082900b03607f198112607f82131715610754576107546151f9565b60808101615c838286805160ff908116835260209182015116910152565b604082019390935260600152919050565b600060a08284031215615ca657600080fd5b60405160a081018181106001600160401b0382111715615cc857615cc86149ff565b604052825160068110615cda57600080fd5b8152602083810151908201526040830151615cf481614ad4565b60408201526060830151615d0781614ad4565b60608201526080830151615d1a81614f91565b60808201529392505050565b600060ff821660ff8103615d3c57615d3c6151f9565b60010192915050565b600082601f830112615d5657600080fd5b81516020615d66615146836150d7565b82815260069290921b84018101918181019086841115615d8557600080fd5b8286015b848110156159315760408189031215615da25760008081fd5b615daa614a15565b815160178110615dba5760008081fd5b81528185015185820152835291830191604001615d89565b600060208284031215615de457600080fd5b81516001600160401b0380821115615dfb57600080fd5b9083019060e08286031215615e0f57600080fd5b615e17614a3d565b82518152615e27602084016152bb565b6020820152615e38604084016155af565b6040820152615e49606084016155af565b6060820152608083015182811115615e6057600080fd5b615e6c87828601615d45565b60808301525060a083015182811115615e8457600080fd5b615e9087828601615d45565b60a08301525060c083015182811115615ea857600080fd5b615eb487828601615d45565b60c08301525095945050505050565b878152602081018790526040810186905260608101859052835460ff808216608084015260089190911c1660a082015261010081018360c0830152615f0b60e0830184614925565b98975050505050505050565b86815260c08101615f2b6020830188614c60565b8560408301528460608301528360808301528260a0830152979650505050505050565b634e487b7160e01b600052603160045260246000fd5b60006040820184835260206040818501528185548084526060860191508660005282600020935060005b81811015615faa57845483526001948501949284019201615f8e565b509097965050505050505056fea264697066735822122013d17480e0012f27a80db7d1df2254022c60d65533ace13f422b23b9a24f048864736f6c63430008110033",
  "devdoc": {
    "kind": "dev",
    "methods": {
      "owner()": {
        "details": "Returns the address of the current owner."
      },
      "renounceOwnership()": {
        "details": "Leaves the contract without owner. It will not be possible to call `onlyOwner` functions anymore. Can only be called by the current owner. NOTE: Renouncing ownership will leave the contract without an owner, thereby removing any functionality that is only available to the owner."
      },
      "transferOwnership(address)": {
        "details": "Transfers ownership of the contract to a new account (`newOwner`). Can only be called by the current owner."
      }
    },
    "version": 1
  },
  "userdoc": {
    "kind": "user",
    "methods": {},
    "version": 1
  },
  "storageLayout": {
    "storage": [
      {
        "astId": 7,
        "contract": "contracts/BCGames.sol:BCGames",
        "label": "_owner",
        "offset": 0,
        "slot": "0",
        "type": "t_address"
      },
      {
        "astId": 20527,
        "contract": "contracts/BCGames.sol:BCGames",
        "label": "TODO_randomSeed",
        "offset": 0,
        "slot": "1",
        "type": "t_uint256"
      },
      {
        "astId": 20532,
        "contract": "contracts/BCGames.sol:BCGames",
        "label": "gameToEventBlocks",
        "offset": 0,
        "slot": "2",
        "type": "t_mapping(t_uint256,t_struct(UintSet)2981_storage)"
      },
      {
        "astId": 10220,
        "contract": "contracts/BCGames.sol:BCGames",
        "label": "chars",
        "offset": 0,
        "slot": "3",
        "type": "t_contract(CharInterface)9924"
      },
      {
        "astId": 10223,
        "contract": "contracts/BCGames.sol:BCGames",
        "label": "maps",
        "offset": 0,
        "slot": "4",
        "type": "t_contract(MapInterface)10091"
      },
      {
        "astId": 10226,
        "contract": "contracts/BCGames.sol:BCGames",
        "label": "bcEvents",
        "offset": 0,
        "slot": "5",
        "type": "t_contract(EventsInterface)9905"
      },
      {
        "astId": 10229,
        "contract": "contracts/BCGames.sol:BCGames",
        "label": "items",
        "offset": 0,
        "slot": "6",
        "type": "t_contract(ItemsInterface)10120"
      },
      {
        "astId": 10232,
        "contract": "contracts/BCGames.sol:BCGames",
        "label": "players",
        "offset": 0,
        "slot": "7",
        "type": "t_contract(PlayersInterface)10209"
      },
      {
        "astId": 10234,
        "contract": "contracts/BCGames.sol:BCGames",
        "label": "lobbiesAddress",
        "offset": 0,
        "slot": "8",
        "type": "t_address"
      },
      {
        "astId": 10236,
        "contract": "contracts/BCGames.sol:BCGames",
        "label": "charsAddress",
        "offset": 0,
        "slot": "9",
        "type": "t_address"
      },
      {
        "astId": 10238,
        "contract": "contracts/BCGames.sol:BCGames",
        "label": "actionsAddress",
        "offset": 0,
        "slot": "10",
        "type": "t_address"
      },
      {
        "astId": 10334,
        "contract": "contracts/BCGames.sol:BCGames",
        "label": "StartLocation",
        "offset": 0,
        "slot": "11",
        "type": "t_struct(Position)20303_storage"
      },
      {
        "astId": 10338,
        "contract": "contracts/BCGames.sol:BCGames",
        "label": "games",
        "offset": 0,
        "slot": "12",
        "type": "t_array(t_struct(Game)20404_storage)dyn_storage"
      },
      {
        "astId": 10343,
        "contract": "contracts/BCGames.sol:BCGames",
        "label": "addressToGame",
        "offset": 0,
        "slot": "13",
        "type": "t_mapping(t_address,t_array(t_uint256)dyn_storage)"
      },
      {
        "astId": 10348,
        "contract": "contracts/BCGames.sol:BCGames",
        "label": "denizenHealth",
        "offset": 0,
        "slot": "14",
        "type": "t_mapping(t_enum(DenizenType)20241,t_uint256)"
      },
      {
        "astId": 10353,
        "contract": "contracts/BCGames.sol:BCGames",
        "label": "denizenDef",
        "offset": 0,
        "slot": "15",
        "type": "t_mapping(t_enum(DenizenType)20241,t_uint256)"
      },
      {
        "astId": 10358,
        "contract": "contracts/BCGames.sol:BCGames",
        "label": "denizenOff",
        "offset": 0,
        "slot": "16",
        "type": "t_mapping(t_enum(DenizenType)20241,t_uint256)"
      },
      {
        "astId": 10363,
        "contract": "contracts/BCGames.sol:BCGames",
        "label": "denizenDmg",
        "offset": 0,
        "slot": "17",
        "type": "t_mapping(t_enum(DenizenType)20241,t_uint256)"
      },
      {
        "astId": 10368,
        "contract": "contracts/BCGames.sol:BCGames",
        "label": "denizenMovement",
        "offset": 0,
        "slot": "18",
        "type": "t_mapping(t_enum(DenizenType)20241,t_uint256)"
      }
    ],
    "types": {
      "t_address": {
        "encoding": "inplace",
        "label": "address",
        "numberOfBytes": "20"
      },
      "t_array(t_bytes32)dyn_storage": {
        "base": "t_bytes32",
        "encoding": "dynamic_array",
        "label": "bytes32[]",
        "numberOfBytes": "32"
      },
      "t_array(t_struct(Denizen)20289_storage)dyn_storage": {
        "base": "t_struct(Denizen)20289_storage",
        "encoding": "dynamic_array",
        "label": "struct BCTypes.Denizen[]",
        "numberOfBytes": "32"
      },
      "t_array(t_struct(Game)20404_storage)dyn_storage": {
        "base": "t_struct(Game)20404_storage",
        "encoding": "dynamic_array",
        "label": "struct BCTypes.Game[]",
        "numberOfBytes": "32"
      },
      "t_array(t_uint256)dyn_storage": {
        "base": "t_uint256",
        "encoding": "dynamic_array",
        "label": "uint256[]",
        "numberOfBytes": "32"
      },
      "t_bool": {
        "encoding": "inplace",
        "label": "bool",
        "numberOfBytes": "1"
      },
      "t_bytes32": {
        "encoding": "inplace",
        "label": "bytes32",
        "numberOfBytes": "32"
      },
      "t_contract(CharInterface)9924": {
        "encoding": "inplace",
        "label": "contract CharInterface",
        "numberOfBytes": "20"
      },
      "t_contract(EventsInterface)9905": {
        "encoding": "inplace",
        "label": "contract EventsInterface",
        "numberOfBytes": "20"
      },
      "t_contract(ItemsInterface)10120": {
        "encoding": "inplace",
        "label": "contract ItemsInterface",
        "numberOfBytes": "20"
      },
      "t_contract(MapInterface)10091": {
        "encoding": "inplace",
        "label": "contract MapInterface",
        "numberOfBytes": "20"
      },
      "t_contract(PlayersInterface)10209": {
        "encoding": "inplace",
        "label": "contract PlayersInterface",
        "numberOfBytes": "20"
      },
      "t_enum(BCEventType)20209": {
        "encoding": "inplace",
        "label": "enum BCTypes.BCEventType",
        "numberOfBytes": "1"
      },
      "t_enum(DenizenType)20241": {
        "encoding": "inplace",
        "label": "enum BCTypes.DenizenType",
        "numberOfBytes": "1"
      },
      "t_mapping(t_address,t_array(t_uint256)dyn_storage)": {
        "encoding": "mapping",
        "key": "t_address",
        "label": "mapping(address => uint256[])",
        "numberOfBytes": "32",
        "value": "t_array(t_uint256)dyn_storage"
      },
      "t_mapping(t_bytes32,t_uint256)": {
        "encoding": "mapping",
        "key": "t_bytes32",
        "label": "mapping(bytes32 => uint256)",
        "numberOfBytes": "32",
        "value": "t_uint256"
      },
      "t_mapping(t_enum(DenizenType)20241,t_uint256)": {
        "encoding": "mapping",
        "key": "t_enum(DenizenType)20241",
        "label": "mapping(enum BCTypes.DenizenType => uint256)",
        "numberOfBytes": "32",
        "value": "t_uint256"
      },
      "t_mapping(t_uint256,t_struct(UintSet)2981_storage)": {
        "encoding": "mapping",
        "key": "t_uint256",
        "label": "mapping(uint256 => struct EnumerableSet.UintSet)",
        "numberOfBytes": "32",
        "value": "t_struct(UintSet)2981_storage"
      },
      "t_struct(Denizen)20289_storage": {
        "encoding": "inplace",
        "label": "struct BCTypes.Denizen",
        "members": [
          {
            "astId": 20276,
            "contract": "contracts/BCGames.sol:BCGames",
            "label": "id",
            "offset": 0,
            "slot": "0",
            "type": "t_uint256"
          },
          {
            "astId": 20278,
            "contract": "contracts/BCGames.sol:BCGames",
            "label": "gameId",
            "offset": 0,
            "slot": "1",
            "type": "t_uint256"
          },
          {
            "astId": 20281,
            "contract": "contracts/BCGames.sol:BCGames",
            "label": "denizenType",
            "offset": 0,
            "slot": "2",
            "type": "t_enum(DenizenType)20241"
          },
          {
            "astId": 20284,
            "contract": "contracts/BCGames.sol:BCGames",
            "label": "position",
            "offset": 0,
            "slot": "3",
            "type": "t_struct(Position)20303_storage"
          },
          {
            "astId": 20286,
            "contract": "contracts/BCGames.sol:BCGames",
            "label": "healthRemaining",
            "offset": 0,
            "slot": "4",
            "type": "t_uint256"
          },
          {
            "astId": 20288,
            "contract": "contracts/BCGames.sol:BCGames",
            "label": "looted",
            "offset": 0,
            "slot": "5",
            "type": "t_bool"
          }
        ],
        "numberOfBytes": "192"
      },
      "t_struct(EventTracker)20298_storage": {
        "encoding": "inplace",
        "label": "struct BCTypes.EventTracker",
        "members": [
          {
            "astId": 20291,
            "contract": "contracts/BCGames.sol:BCGames",
            "label": "bugEvents",
            "offset": 0,
            "slot": "0",
            "type": "t_uint8"
          },
          {
            "astId": 20293,
            "contract": "contracts/BCGames.sol:BCGames",
            "label": "mysteryEvents",
            "offset": 1,
            "slot": "0",
            "type": "t_uint8"
          },
          {
            "astId": 20295,
            "contract": "contracts/BCGames.sol:BCGames",
            "label": "scavEvents",
            "offset": 2,
            "slot": "0",
            "type": "t_uint8"
          },
          {
            "astId": 20297,
            "contract": "contracts/BCGames.sol:BCGames",
            "label": "shipEvents",
            "offset": 3,
            "slot": "0",
            "type": "t_uint8"
          }
        ],
        "numberOfBytes": "32"
      },
      "t_struct(Game)20404_storage": {
        "encoding": "inplace",
        "label": "struct BCTypes.Game",
        "members": [
          {
            "astId": 20355,
            "contract": "contracts/BCGames.sol:BCGames",
            "label": "active",
            "offset": 0,
            "slot": "0",
            "type": "t_bool"
          },
          {
            "astId": 20357,
            "contract": "contracts/BCGames.sol:BCGames",
            "label": "denizenTurn",
            "offset": 1,
            "slot": "0",
            "type": "t_bool"
          },
          {
            "astId": 20360,
            "contract": "contracts/BCGames.sol:BCGames",
            "label": "playerIndexes",
            "offset": 0,
            "slot": "1",
            "type": "t_array(t_uint256)dyn_storage"
          },
          {
            "astId": 20362,
            "contract": "contracts/BCGames.sol:BCGames",
            "label": "currentPlayerTurnIndex",
            "offset": 0,
            "slot": "2",
            "type": "t_uint256"
          },
          {
            "astId": 20364,
            "contract": "contracts/BCGames.sol:BCGames",
            "label": "numPlayers",
            "offset": 0,
            "slot": "3",
            "type": "t_uint256"
          },
          {
            "astId": 20366,
            "contract": "contracts/BCGames.sol:BCGames",
            "label": "turnsTaken",
            "offset": 0,
            "slot": "4",
            "type": "t_uint256"
          },
          {
            "astId": 20369,
            "contract": "contracts/BCGames.sol:BCGames",
            "label": "eventTracker",
            "offset": 0,
            "slot": "5",
            "type": "t_struct(EventTracker)20298_storage"
          },
          {
            "astId": 20371,
            "contract": "contracts/BCGames.sol:BCGames",
            "label": "mapId",
            "offset": 0,
            "slot": "6",
            "type": "t_uint256"
          },
          {
            "astId": 20373,
            "contract": "contracts/BCGames.sol:BCGames",
            "label": "eventPlayerId",
            "offset": 0,
            "slot": "7",
            "type": "t_uint256"
          },
          {
            "astId": 20375,
            "contract": "contracts/BCGames.sol:BCGames",
            "label": "eventNumber",
            "offset": 0,
            "slot": "8",
            "type": "t_uint256"
          },
          {
            "astId": 20378,
            "contract": "contracts/BCGames.sol:BCGames",
            "label": "eventType",
            "offset": 0,
            "slot": "9",
            "type": "t_enum(BCEventType)20209"
          },
          {
            "astId": 20381,
            "contract": "contracts/BCGames.sol:BCGames",
            "label": "eventPosition",
            "offset": 0,
            "slot": "10",
            "type": "t_struct(Position)20303_storage"
          },
          {
            "astId": 20384,
            "contract": "contracts/BCGames.sol:BCGames",
            "label": "unusedBugEvents",
            "offset": 0,
            "slot": "11",
            "type": "t_array(t_uint256)dyn_storage"
          },
          {
            "astId": 20387,
            "contract": "contracts/BCGames.sol:BCGames",
            "label": "unusedMysteryEvents",
            "offset": 0,
            "slot": "12",
            "type": "t_array(t_uint256)dyn_storage"
          },
          {
            "astId": 20390,
            "contract": "contracts/BCGames.sol:BCGames",
            "label": "unusedScavEvents",
            "offset": 0,
            "slot": "13",
            "type": "t_array(t_uint256)dyn_storage"
          },
          {
            "astId": 20393,
            "contract": "contracts/BCGames.sol:BCGames",
            "label": "unusedShipEvents",
            "offset": 0,
            "slot": "14",
            "type": "t_array(t_uint256)dyn_storage"
          },
          {
            "astId": 20395,
            "contract": "contracts/BCGames.sol:BCGames",
            "label": "turnTimeLimit",
            "offset": 0,
            "slot": "15",
            "type": "t_uint256"
          },
          {
            "astId": 20397,
            "contract": "contracts/BCGames.sol:BCGames",
            "label": "lastTurnTimestamp",
            "offset": 0,
            "slot": "16",
            "type": "t_uint256"
          },
          {
            "astId": 20399,
            "contract": "contracts/BCGames.sol:BCGames",
            "label": "DEBUG_returnAmount",
            "offset": 0,
            "slot": "17",
            "type": "t_uint256"
          },
          {
            "astId": 20403,
            "contract": "contracts/BCGames.sol:BCGames",
            "label": "denizens",
            "offset": 0,
            "slot": "18",
            "type": "t_array(t_struct(Denizen)20289_storage)dyn_storage"
          }
        ],
        "numberOfBytes": "608"
      },
      "t_struct(Position)20303_storage": {
        "encoding": "inplace",
        "label": "struct BCTypes.Position",
        "members": [
          {
            "astId": 20300,
            "contract": "contracts/BCGames.sol:BCGames",
            "label": "row",
            "offset": 0,
            "slot": "0",
            "type": "t_uint8"
          },
          {
            "astId": 20302,
            "contract": "contracts/BCGames.sol:BCGames",
            "label": "col",
            "offset": 1,
            "slot": "0",
            "type": "t_uint8"
          }
        ],
        "numberOfBytes": "32"
      },
      "t_struct(Set)2523_storage": {
        "encoding": "inplace",
        "label": "struct EnumerableSet.Set",
        "members": [
          {
            "astId": 2518,
            "contract": "contracts/BCGames.sol:BCGames",
            "label": "_values",
            "offset": 0,
            "slot": "0",
            "type": "t_array(t_bytes32)dyn_storage"
          },
          {
            "astId": 2522,
            "contract": "contracts/BCGames.sol:BCGames",
            "label": "_indexes",
            "offset": 0,
            "slot": "1",
            "type": "t_mapping(t_bytes32,t_uint256)"
          }
        ],
        "numberOfBytes": "64"
      },
      "t_struct(UintSet)2981_storage": {
        "encoding": "inplace",
        "label": "struct EnumerableSet.UintSet",
        "members": [
          {
            "astId": 2980,
            "contract": "contracts/BCGames.sol:BCGames",
            "label": "_inner",
            "offset": 0,
            "slot": "0",
            "type": "t_struct(Set)2523_storage"
          }
        ],
        "numberOfBytes": "64"
      },
      "t_uint256": {
        "encoding": "inplace",
        "label": "uint256",
        "numberOfBytes": "32"
      },
      "t_uint8": {
        "encoding": "inplace",
        "label": "uint8",
        "numberOfBytes": "1"
      }
    }
  }
}