{
  "address": "0x1C2FC4DD69860E37E65a30393C8F61B31BfE1C01",
  "abi": [
    {
      "inputs": [],
      "stateMutability": "nonpayable",
      "type": "constructor"
    },
    {
      "anonymous": false,
      "inputs": [
        {
          "indexed": true,
          "internalType": "address",
          "name": "previousOwner",
          "type": "address"
        },
        {
          "indexed": true,
          "internalType": "address",
          "name": "newOwner",
          "type": "address"
        }
      ],
      "name": "OwnershipTransferred",
      "type": "event"
    },
    {
      "inputs": [],
      "name": "StartLocation",
      "outputs": [
        {
          "internalType": "uint8",
          "name": "row",
          "type": "uint8"
        },
        {
          "internalType": "uint8",
          "name": "col",
          "type": "uint8"
        }
      ],
      "stateMutability": "view",
      "type": "function"
    },
    {
      "inputs": [],
      "name": "actionsAddress",
      "outputs": [
        {
          "internalType": "address",
          "name": "",
          "type": "address"
        }
      ],
      "stateMutability": "view",
      "type": "function"
    },
    {
      "inputs": [
        {
          "internalType": "address",
          "name": "_charContractAddress",
          "type": "address"
        },
        {
          "internalType": "uint256",
          "name": "_charId",
          "type": "uint256"
        },
        {
          "internalType": "address",
          "name": "_owner",
          "type": "address"
        }
      ],
      "name": "addPlayer",
      "outputs": [
        {
          "internalType": "uint256",
          "name": "",
          "type": "uint256"
        }
      ],
      "stateMutability": "nonpayable",
      "type": "function"
    },
    {
      "inputs": [
        {
          "internalType": "address",
          "name": "",
          "type": "address"
        },
        {
          "internalType": "uint256",
          "name": "",
          "type": "uint256"
        }
      ],
      "name": "addressToGame",
      "outputs": [
        {
          "internalType": "uint256",
          "name": "",
          "type": "uint256"
        }
      ],
      "stateMutability": "view",
      "type": "function"
    },
    {
      "inputs": [],
      "name": "bcEvents",
      "outputs": [
        {
          "internalType": "contract EventsInterface",
          "name": "",
          "type": "address"
        }
      ],
      "stateMutability": "view",
      "type": "function"
    },
    {
      "inputs": [],
      "name": "chars",
      "outputs": [
        {
          "internalType": "contract CharInterface",
          "name": "",
          "type": "address"
        }
      ],
      "stateMutability": "view",
      "type": "function"
    },
    {
      "inputs": [],
      "name": "charsAddress",
      "outputs": [
        {
          "internalType": "address",
          "name": "",
          "type": "address"
        }
      ],
      "stateMutability": "view",
      "type": "function"
    },
    {
      "inputs": [
        {
          "internalType": "uint256",
          "name": "_gameId",
          "type": "uint256"
        },
        {
          "internalType": "uint256",
          "name": "_playerId",
          "type": "uint256"
        }
      ],
      "name": "endPlayerAction",
      "outputs": [],
      "stateMutability": "nonpayable",
      "type": "function"
    },
    {
      "inputs": [
        {
          "internalType": "uint256",
          "name": "_playerId",
          "type": "uint256"
        },
        {
          "internalType": "uint256",
          "name": "_gameId",
          "type": "uint256"
        },
        {
          "internalType": "uint256",
          "name": "_eventId",
          "type": "uint256"
        },
        {
          "internalType": "uint256",
          "name": "_effectNum",
          "type": "uint256"
        }
      ],
      "name": "extApplyEffect",
      "outputs": [],
      "stateMutability": "nonpayable",
      "type": "function"
    },
    {
      "inputs": [
        {
          "internalType": "uint256",
          "name": "_id",
          "type": "uint256"
        }
      ],
      "name": "extGetGame",
      "outputs": [
        {
          "components": [
            {
              "internalType": "bool",
              "name": "active",
              "type": "bool"
            },
            {
              "internalType": "uint256[]",
              "name": "playerIndexes",
              "type": "uint256[]"
            },
            {
              "internalType": "uint256",
              "name": "currentPlayerTurnIndex",
              "type": "uint256"
            },
            {
              "internalType": "uint256",
              "name": "numPlayers",
              "type": "uint256"
            },
            {
              "internalType": "uint256",
              "name": "turnsTaken",
              "type": "uint256"
            },
            {
              "components": [
                {
                  "internalType": "uint8",
                  "name": "bugEvents",
                  "type": "uint8"
                },
                {
                  "internalType": "uint8",
                  "name": "mysteryEvents",
                  "type": "uint8"
                },
                {
                  "internalType": "uint8",
                  "name": "scavEvents",
                  "type": "uint8"
                },
                {
                  "internalType": "uint8",
                  "name": "shipEvents",
                  "type": "uint8"
                }
              ],
              "internalType": "struct BCTypes.EventTracker",
              "name": "eventTracker",
              "type": "tuple"
            },
            {
              "internalType": "address",
              "name": "mapContract",
              "type": "address"
            },
            {
              "internalType": "uint256",
              "name": "mapId",
              "type": "uint256"
            },
            {
              "internalType": "uint256",
              "name": "eventPlayerId",
              "type": "uint256"
            },
            {
              "internalType": "uint256",
              "name": "eventNumber",
              "type": "uint256"
            },
            {
              "internalType": "bool",
              "name": "eventIsTile",
              "type": "bool"
            },
            {
              "components": [
                {
                  "internalType": "uint8",
                  "name": "row",
                  "type": "uint8"
                },
                {
                  "internalType": "uint8",
                  "name": "col",
                  "type": "uint8"
                }
              ],
              "internalType": "struct BCTypes.Position",
              "name": "eventPosition",
              "type": "tuple"
            }
          ],
          "internalType": "struct BCTypes.Game",
          "name": "",
          "type": "tuple"
        }
      ],
      "stateMutability": "view",
      "type": "function"
    },
    {
      "inputs": [
        {
          "internalType": "uint256",
          "name": "_gameId",
          "type": "uint256"
        }
      ],
      "name": "extGetGamePlayerIndexes",
      "outputs": [
        {
          "internalType": "uint256[]",
          "name": "",
          "type": "uint256[]"
        }
      ],
      "stateMutability": "view",
      "type": "function"
    },
    {
      "inputs": [
        {
          "internalType": "address",
          "name": "_playerAddress",
          "type": "address"
        }
      ],
      "name": "extGetGamesOfPlayer",
      "outputs": [
        {
          "internalType": "uint256[]",
          "name": "",
          "type": "uint256[]"
        }
      ],
      "stateMutability": "view",
      "type": "function"
    },
    {
      "inputs": [
        {
          "internalType": "uint256",
          "name": "_id",
          "type": "uint256"
        }
      ],
      "name": "extGetPlayer",
      "outputs": [
        {
          "components": [
            {
              "internalType": "address",
              "name": "owner",
              "type": "address"
            },
            {
              "internalType": "address",
              "name": "charContractAddress",
              "type": "address"
            },
            {
              "internalType": "uint256",
              "name": "characterId",
              "type": "uint256"
            },
            {
              "components": [
                {
                  "internalType": "uint8",
                  "name": "row",
                  "type": "uint8"
                },
                {
                  "internalType": "uint8",
                  "name": "col",
                  "type": "uint8"
                }
              ],
              "internalType": "struct BCTypes.Position",
              "name": "position",
              "type": "tuple"
            },
            {
              "internalType": "int8",
              "name": "healthDmgTaken",
              "type": "int8"
            },
            {
              "internalType": "uint8",
              "name": "armorDmgTaken",
              "type": "uint8"
            },
            {
              "internalType": "uint8",
              "name": "actionsTaken",
              "type": "uint8"
            },
            {
              "internalType": "uint8",
              "name": "dataTokens",
              "type": "uint8"
            },
            {
              "internalType": "uint8[]",
              "name": "currentEffects",
              "type": "uint8[]"
            },
            {
              "internalType": "uint8[]",
              "name": "inventoryIDs",
              "type": "uint8[]"
            },
            {
              "internalType": "bool",
              "name": "canHarmOthers",
              "type": "bool"
            },
            {
              "internalType": "bool",
              "name": "dead",
              "type": "bool"
            },
            {
              "internalType": "bool",
              "name": "hasEgg",
              "type": "bool"
            }
          ],
          "internalType": "struct BCTypes.Player",
          "name": "",
          "type": "tuple"
        }
      ],
      "stateMutability": "view",
      "type": "function"
    },
    {
      "inputs": [
        {
          "internalType": "uint256",
          "name": "_gameId",
          "type": "uint256"
        },
        {
          "components": [
            {
              "internalType": "uint8",
              "name": "row",
              "type": "uint8"
            },
            {
              "internalType": "uint8",
              "name": "col",
              "type": "uint8"
            }
          ],
          "internalType": "struct BCTypes.Position",
          "name": "_position",
          "type": "tuple"
        },
        {
          "internalType": "uint256",
          "name": "_playerId",
          "type": "uint256"
        }
      ],
      "name": "extMovePlayer",
      "outputs": [],
      "stateMutability": "nonpayable",
      "type": "function"
    },
    {
      "inputs": [
        {
          "internalType": "uint256",
          "name": "",
          "type": "uint256"
        }
      ],
      "name": "games",
      "outputs": [
        {
          "internalType": "bool",
          "name": "active",
          "type": "bool"
        },
        {
          "internalType": "uint256",
          "name": "currentPlayerTurnIndex",
          "type": "uint256"
        },
        {
          "internalType": "uint256",
          "name": "numPlayers",
          "type": "uint256"
        },
        {
          "internalType": "uint256",
          "name": "turnsTaken",
          "type": "uint256"
        },
        {
          "components": [
            {
              "internalType": "uint8",
              "name": "bugEvents",
              "type": "uint8"
            },
            {
              "internalType": "uint8",
              "name": "mysteryEvents",
              "type": "uint8"
            },
            {
              "internalType": "uint8",
              "name": "scavEvents",
              "type": "uint8"
            },
            {
              "internalType": "uint8",
              "name": "shipEvents",
              "type": "uint8"
            }
          ],
          "internalType": "struct BCTypes.EventTracker",
          "name": "eventTracker",
          "type": "tuple"
        },
        {
          "internalType": "address",
          "name": "mapContract",
          "type": "address"
        },
        {
          "internalType": "uint256",
          "name": "mapId",
          "type": "uint256"
        },
        {
          "internalType": "uint256",
          "name": "eventPlayerId",
          "type": "uint256"
        },
        {
          "internalType": "uint256",
          "name": "eventNumber",
          "type": "uint256"
        },
        {
          "internalType": "bool",
          "name": "eventIsTile",
          "type": "bool"
        },
        {
          "components": [
            {
              "internalType": "uint8",
              "name": "row",
              "type": "uint8"
            },
            {
              "internalType": "uint8",
              "name": "col",
              "type": "uint8"
            }
          ],
          "internalType": "struct BCTypes.Position",
          "name": "eventPosition",
          "type": "tuple"
        }
      ],
      "stateMutability": "view",
      "type": "function"
    },
    {
      "inputs": [
        {
          "internalType": "uint256",
          "name": "_playerId",
          "type": "uint256"
        },
        {
          "internalType": "uint8",
          "name": "_amount",
          "type": "uint8"
        }
      ],
      "name": "grantDataToPlayer",
      "outputs": [],
      "stateMutability": "nonpayable",
      "type": "function"
    },
    {
      "inputs": [],
      "name": "items",
      "outputs": [
        {
          "internalType": "contract ItemsInterface",
          "name": "",
          "type": "address"
        }
      ],
      "stateMutability": "view",
      "type": "function"
    },
    {
      "inputs": [],
      "name": "lobbiesAddress",
      "outputs": [
        {
          "internalType": "address",
          "name": "",
          "type": "address"
        }
      ],
      "stateMutability": "view",
      "type": "function"
    },
    {
      "inputs": [],
      "name": "maps",
      "outputs": [
        {
          "internalType": "contract MapInterface",
          "name": "",
          "type": "address"
        }
      ],
      "stateMutability": "view",
      "type": "function"
    },
    {
      "inputs": [],
      "name": "owner",
      "outputs": [
        {
          "internalType": "address",
          "name": "",
          "type": "address"
        }
      ],
      "stateMutability": "view",
      "type": "function"
    },
    {
      "inputs": [
        {
          "internalType": "uint256",
          "name": "",
          "type": "uint256"
        }
      ],
      "name": "players",
      "outputs": [
        {
          "internalType": "address",
          "name": "owner",
          "type": "address"
        },
        {
          "internalType": "address",
          "name": "charContractAddress",
          "type": "address"
        },
        {
          "internalType": "uint256",
          "name": "characterId",
          "type": "uint256"
        },
        {
          "components": [
            {
              "internalType": "uint8",
              "name": "row",
              "type": "uint8"
            },
            {
              "internalType": "uint8",
              "name": "col",
              "type": "uint8"
            }
          ],
          "internalType": "struct BCTypes.Position",
          "name": "position",
          "type": "tuple"
        },
        {
          "internalType": "int8",
          "name": "healthDmgTaken",
          "type": "int8"
        },
        {
          "internalType": "uint8",
          "name": "armorDmgTaken",
          "type": "uint8"
        },
        {
          "internalType": "uint8",
          "name": "actionsTaken",
          "type": "uint8"
        },
        {
          "internalType": "uint8",
          "name": "dataTokens",
          "type": "uint8"
        },
        {
          "internalType": "bool",
          "name": "canHarmOthers",
          "type": "bool"
        },
        {
          "internalType": "bool",
          "name": "dead",
          "type": "bool"
        },
        {
          "internalType": "bool",
          "name": "hasEgg",
          "type": "bool"
        }
      ],
      "stateMutability": "view",
      "type": "function"
    },
    {
      "inputs": [],
      "name": "renounceOwnership",
      "outputs": [],
      "stateMutability": "nonpayable",
      "type": "function"
    },
    {
      "inputs": [
        {
          "internalType": "uint256",
          "name": "_gameId",
          "type": "uint256"
        },
        {
          "internalType": "uint256",
          "name": "_choice",
          "type": "uint256"
        }
      ],
      "name": "resolveEvent",
      "outputs": [],
      "stateMutability": "nonpayable",
      "type": "function"
    },
    {
      "inputs": [],
      "name": "roomTiles",
      "outputs": [
        {
          "internalType": "contract RoomTileInterface",
          "name": "",
          "type": "address"
        }
      ],
      "stateMutability": "view",
      "type": "function"
    },
    {
      "inputs": [
        {
          "internalType": "address",
          "name": "_roomTileAddress",
          "type": "address"
        },
        {
          "internalType": "address",
          "name": "_charAddress",
          "type": "address"
        },
        {
          "internalType": "address",
          "name": "_utilsAddress",
          "type": "address"
        },
        {
          "internalType": "address",
          "name": "_mapsAddress",
          "type": "address"
        },
        {
          "internalType": "address",
          "name": "_lobbiesAddress",
          "type": "address"
        },
        {
          "internalType": "address",
          "name": "_actionsAddress",
          "type": "address"
        },
        {
          "internalType": "address",
          "name": "_eventsAddress",
          "type": "address"
        },
        {
          "internalType": "address",
          "name": "_itemsAddress",
          "type": "address"
        }
      ],
      "name": "setContractAddresses",
      "outputs": [],
      "stateMutability": "nonpayable",
      "type": "function"
    },
    {
      "inputs": [
        {
          "internalType": "uint256[]",
          "name": "_playerIndexes",
          "type": "uint256[]"
        },
        {
          "internalType": "uint256",
          "name": "_numPlayers",
          "type": "uint256"
        },
        {
          "internalType": "uint256",
          "name": "_debugRoomId",
          "type": "uint256"
        }
      ],
      "name": "startGame",
      "outputs": [
        {
          "internalType": "uint256",
          "name": "",
          "type": "uint256"
        }
      ],
      "stateMutability": "nonpayable",
      "type": "function"
    },
    {
      "inputs": [],
      "name": "transferFundsOut",
      "outputs": [],
      "stateMutability": "nonpayable",
      "type": "function"
    },
    {
      "inputs": [
        {
          "internalType": "address",
          "name": "newOwner",
          "type": "address"
        }
      ],
      "name": "transferOwnership",
      "outputs": [],
      "stateMutability": "nonpayable",
      "type": "function"
    },
    {
      "inputs": [],
      "name": "utils",
      "outputs": [
        {
          "internalType": "contract UtilsInterface",
          "name": "",
          "type": "address"
        }
      ],
      "stateMutability": "view",
      "type": "function"
    }
  ],
  "transactionHash": "0xb9f005833fc579767fa05c3d77aa317f3645e0c047900ff111453855394d37d5",
  "args": [],
  "numDeployments": 1,
  "solcInputHash": "0f39888617b18ccf49b33d1cf5080e31",
  "bytecode": "0x60806040526040518060400160405280600a60ff168152602001600660ff16815250600a60008201518160000160006101000a81548160ff021916908360ff16021790555060208201518160000160016101000a81548160ff021916908360ff16021790555050503480156200007457600080fd5b5062000095620000896200009b60201b60201c565b620000a360201b60201c565b62000167565b600033905090565b60008060009054906101000a900473ffffffffffffffffffffffffffffffffffffffff169050816000806101000a81548173ffffffffffffffffffffffffffffffffffffffff021916908373ffffffffffffffffffffffffffffffffffffffff1602179055508173ffffffffffffffffffffffffffffffffffffffff168173ffffffffffffffffffffffffffffffffffffffff167f8be0079c531659141344cd1fd0a4f28419497f9722a3daafe3b4186f6b6457e060405160405180910390a35050565b615b6b80620001776000396000f3fe608060405234801561001057600080fd5b50600436106101cf5760003560e01c8063715018a611610104578063afd62bb2116100a2578063f101de9a11610071578063f101de9a14610517578063f2fde38b14610547578063f7157f6414610563578063f71d96cb14610581576101cf565b8063afd62bb21461048e578063b6907194146104be578063c06fad06146104da578063dc769ee8146104f8576101cf565b80638da5cb5b116100de5780638da5cb5b14610406578063921d2799146104245780639fca1ee114610440578063a99d2a8b1461045e576101cf565b8063715018a6146103c05780637b45c0d4146103ca5780637ddae103146103e8576101cf565b80633ddc32fd116101715780635a29638d1161014b5780635a29638d1461033a57806360fe842e1461035857806364f66467146103745780636fe99c1814610390576101cf565b80633ddc32fd146102d05780633deaec2b146102ec57806340d4fd781461030a576101cf565b8063117a5b90116101ad578063117a5b9014610252578063175142251461028c578063336d7d7b146102a85780633838aed1146102c6576101cf565b806308178b3c146101d457806310a2cd0d1461020457806310f67fb314610222575b600080fd5b6101ee60048036038101906101e99190613c25565b6105bb565b6040516101fb9190613c87565b60405180910390f35b61020c61071c565b6040516102199190613d01565b60405180910390f35b61023c60048036038101906102379190613d1c565b610742565b6040516102499190613fb9565b60405180910390f35b61026c60048036038101906102679190613d1c565b610a44565b6040516102839b9a9998979695949392919061407d565b60405180910390f35b6102a660048036038101906102a19190614238565b610baa565b005b6102b0610c4a565b6040516102bd919061428b565b60405180910390f35b6102ce610c70565b005b6102ea60048036038101906102e591906142a6565b610cc8565b005b6102f4610e2c565b604051610301919061432e565b60405180910390f35b610324600480360381019061031f9190613d1c565b610e52565b60405161033191906143f8565b60405180910390f35b610342610f53565b60405161034f919061443b565b60405180910390f35b610372600480360381019061036d9190614456565b610f79565b005b61038e60048036038101906103899190614456565b611127565b005b6103aa60048036038101906103a59190613d1c565b6114d0565b6040516103b79190614660565b60405180910390f35b6103c8611703565b005b6103d2611717565b6040516103df919061428b565b60405180910390f35b6103f061173d565b6040516103fd91906146a3565b60405180910390f35b61040e611763565b60405161041b919061428b565b60405180910390f35b61043e600480360381019061043991906146be565b61178c565b005b6104486119a6565b604051610455919061428b565b60405180910390f35b61047860048036038101906104739190614774565b6119cc565b6040516104859190613c87565b60405180910390f35b6104a860048036038101906104a391906147b4565b6119fd565b6040516104b591906143f8565b60405180910390f35b6104d860048036038101906104d391906147e1565b611b32565b005b6104e2611c1f565b6040516104ef9190614842565b60405180910390f35b610500611c45565b60405161050e92919061486c565b60405180910390f35b610531600480360381019061052c9190614962565b611c71565b60405161053e9190613c87565b60405180910390f35b610561600480360381019061055c91906147b4565b61217e565b005b61056b612202565b60405161057891906149f2565b60405180910390f35b61059b60048036038101906105969190613d1c565b612228565b6040516105b29b9a99989796959493929190614a1c565b60405180910390f35b6000600760009054906101000a900473ffffffffffffffffffffffffffffffffffffffff1673ffffffffffffffffffffffffffffffffffffffff163373ffffffffffffffffffffffffffffffffffffffff161461064d576040517f08c379a000000000000000000000000000000000000000000000000000000000815260040161064490614b25565b60405180910390fd5b6000600b6001816001815401808255809150500390600052602060002090600802019050848160010160006101000a81548173ffffffffffffffffffffffffffffffffffffffff021916908373ffffffffffffffffffffffffffffffffffffffff160217905550828160000160006101000a81548173ffffffffffffffffffffffffffffffffffffffff021916908373ffffffffffffffffffffffffffffffffffffffff1602179055508381600201819055506001600b805490506107129190614b74565b9150509392505050565b600260009054906101000a900473ffffffffffffffffffffffffffffffffffffffff1681565b61074a6137f5565b600b828154811061075e5761075d614ba8565b5b9060005260206000209060080201604051806101a00160405290816000820160009054906101000a900473ffffffffffffffffffffffffffffffffffffffff1673ffffffffffffffffffffffffffffffffffffffff1673ffffffffffffffffffffffffffffffffffffffff1681526020016001820160009054906101000a900473ffffffffffffffffffffffffffffffffffffffff1673ffffffffffffffffffffffffffffffffffffffff1673ffffffffffffffffffffffffffffffffffffffff16815260200160028201548152602001600382016040518060400160405290816000820160009054906101000a900460ff1660ff1660ff1681526020016000820160019054906101000a900460ff1660ff1660ff168152505081526020016004820160009054906101000a900460000b60000b60000b81526020016004820160019054906101000a900460ff1660ff1660ff1681526020016004820160029054906101000a900460ff1660ff1660ff1681526020016004820160039054906101000a900460ff1660ff1660ff1681526020016005820180548060200260200160405190810160405280929190818152602001828054801561096557602002820191906000526020600020906000905b82829054906101000a900460ff1660ff168152602001906001019060208260000104928301926001038202915080841161092e5790505b50505050508152602001600682018054806020026020016040519081016040528092919081815260200182805480156109e357602002820191906000526020600020906000905b82829054906101000a900460ff1660ff16815260200190600101906020826000010492830192600103820291508084116109ac5790505b505050505081526020016007820160009054906101000a900460ff161515151581526020016007820160019054906101000a900460ff161515151581526020016007820160029054906101000a900460ff1615151515815250509050919050565b600c8181548110610a5457600080fd5b90600052602060002090600c02016000915090508060000160009054906101000a900460ff1690806002015490806003015490806004015490806005016040518060800160405290816000820160009054906101000a900460ff1660ff1660ff1681526020016000820160019054906101000a900460ff1660ff1660ff1681526020016000820160029054906101000a900460ff1660ff1660ff1681526020016000820160039054906101000a900460ff1660ff1660ff1681525050908060060160009054906101000a900473ffffffffffffffffffffffffffffffffffffffff169080600701549080600801549080600901549080600a0160009054906101000a900460ff169080600b016040518060400160405290816000820160009054906101000a900460ff1660ff1660ff1681526020016000820160019054906101000a900460ff1660ff1660ff168152505090508b565b600960009054906101000a900473ffffffffffffffffffffffffffffffffffffffff1673ffffffffffffffffffffffffffffffffffffffff163373ffffffffffffffffffffffffffffffffffffffff1614610c3a576040517f08c379a0000000000000000000000000000000000000000000000000000000008152600401610c3190614c23565b60405180910390fd5b610c45838383612371565b505050565b600760009054906101000a900473ffffffffffffffffffffffffffffffffffffffff1681565b610c78612ac3565b610c80611763565b73ffffffffffffffffffffffffffffffffffffffff166108fc479081150290604051600060405180830381858888f19350505050158015610cc5573d6000803e3d6000fd5b50565b600960009054906101000a900473ffffffffffffffffffffffffffffffffffffffff1673ffffffffffffffffffffffffffffffffffffffff163373ffffffffffffffffffffffffffffffffffffffff1614610d58576040517f08c379a0000000000000000000000000000000000000000000000000000000008152600401610d4f90614c23565b60405180910390fd5b6000600560009054906101000a900473ffffffffffffffffffffffffffffffffffffffff1673ffffffffffffffffffffffffffffffffffffffff1663a49ac4116001856040518363ffffffff1660e01b8152600401610db8929190614c43565b600060405180830381865afa158015610dd5573d6000803e3d6000fd5b505050506040513d6000823e3d601f19601f82011682018060405250810190610dfe919061507d565b8281518110610e1057610e0f614ba8565b5b60200260200101519050610e25858583612b41565b5050505050565b600460009054906101000a900473ffffffffffffffffffffffffffffffffffffffff1681565b60606000600c8381548110610e6a57610e69614ba8565b5b90600052602060002090600c02016001018054905067ffffffffffffffff811115610e9857610e97614141565b5b604051908082528060200260200182016040528015610ec65781602001602082028036833780820191505090505b50905060005b8151811015610f4957600c8481548110610ee957610ee8614ba8565b5b90600052602060002090600c02016001018181548110610f0c57610f0b614ba8565b5b9060005260206000200154828281518110610f2a57610f29614ba8565b5b6020026020010181815250508080610f41906150c6565b915050610ecc565b5080915050919050565b600360009054906101000a900473ffffffffffffffffffffffffffffffffffffffff1681565b600960009054906101000a900473ffffffffffffffffffffffffffffffffffffffff1673ffffffffffffffffffffffffffffffffffffffff163373ffffffffffffffffffffffffffffffffffffffff1614611009576040517f08c379a000000000000000000000000000000000000000000000000000000000815260040161100090614c23565b60405180910390fd5b6000600b828154811061101f5761101e614ba8565b5b906000526020600020906008020190506000600c848154811061104557611044614ba8565b5b90600052602060002090600c0201905081600401600281819054906101000a900460ff16809291906110769061510f565b91906101000a81548160ff021916908360ff1602179055505060038260040160029054906101000a900460ff1660ff16106111215760008260040160026101000a81548160ff021916908360ff160217905550600181600101805490506110dd9190614b74565b81600201541015611107578060020160008154809291906110fd906150c6565b9190505550611120565b6111158482600701546131af565b600081600201819055505b5b50505050565b6000600c838154811061113d5761113c614ba8565b5b90600052602060002090600c020190506111556138a0565b81600a0160009054906101000a900460ff161561121457600560009054906101000a900473ffffffffffffffffffffffffffffffffffffffff1673ffffffffffffffffffffffffffffffffffffffff1663c82c37b983600901546040518263ffffffff1660e01b81526004016111cb9190613c87565b6109e060405180830381865afa1580156111e9573d6000803e3d6000fd5b505050506040513d601f19601f8201168201806040525081019061120d9190615205565b905061121b565b50506114cc565b6000600560009054906101000a900473ffffffffffffffffffffffffffffffffffffffff1673ffffffffffffffffffffffffffffffffffffffff1663a49ac41184600a0160009054906101000a900460ff1685600901546040518363ffffffff1660e01b815260040161128f929190614c43565b600060405180830381865afa1580156112ac573d6000803e3d6000fd5b505050506040513d6000823e3d601f19601f820116820180604052508101906112d5919061507d565b90506000826040015160ff161480156112f557506000826060015160ff16145b15611329576113248360080154868360008151811061131757611316614ba8565b5b6020026020010151612b41565b611497565b6000600360009054906101000a900473ffffffffffffffffffffffffffffffffffffffff1673ffffffffffffffffffffffffffffffffffffffff1663cd5e3c5d6040518163ffffffff1660e01b81526004016020604051808303816000875af115801561139a573d6000803e3d6000fd5b505050506040513d601f19601f820116820180604052508101906113be9190615233565b60ff1690506000836040015160ff16141580156113e25750826040015160ff168111155b15611416576114118460080154878460018151811061140457611403614ba8565b5b6020026020010151612b41565b611495565b6000836060015160ff16141580156114355750826060015160ff168110155b15611469576114648460080154878460028151811061145757611456614ba8565b5b6020026020010151612b41565b611494565b6114938460080154878460008151811061148657611485614ba8565b5b6020026020010151612b41565b5b5b505b6000836008018190555060008360090181905550600083600a0160006101000a81548160ff0219169083151502179055505050505b5050565b6114d86138f7565b600c82815481106114ec576114eb614ba8565b5b90600052602060002090600c0201604051806101800160405290816000820160009054906101000a900460ff161515151581526020016001820180548060200260200160405190810160405280929190818152602001828054801561157057602002820191906000526020600020905b81548152602001906001019080831161155c575b50505050508152602001600282015481526020016003820154815260200160048201548152602001600582016040518060800160405290816000820160009054906101000a900460ff1660ff1660ff1681526020016000820160019054906101000a900460ff1660ff1660ff1681526020016000820160029054906101000a900460ff1660ff1660ff1681526020016000820160039054906101000a900460ff1660ff1660ff168152505081526020016006820160009054906101000a900473ffffffffffffffffffffffffffffffffffffffff1673ffffffffffffffffffffffffffffffffffffffff1673ffffffffffffffffffffffffffffffffffffffff168152602001600782015481526020016008820154815260200160098201548152602001600a820160009054906101000a900460ff16151515158152602001600b82016040518060400160405290816000820160009054906101000a900460ff1660ff1660ff1681526020016000820160019054906101000a900460ff1660ff1660ff1681525050815250509050919050565b61170b612ac3565b6117156000613475565b565b600960009054906101000a900473ffffffffffffffffffffffffffffffffffffffff1681565b600560009054906101000a900473ffffffffffffffffffffffffffffffffffffffff1681565b60008060009054906101000a900473ffffffffffffffffffffffffffffffffffffffff16905090565b611794612ac3565b87600160006101000a81548173ffffffffffffffffffffffffffffffffffffffff021916908373ffffffffffffffffffffffffffffffffffffffff16021790555086600260006101000a81548173ffffffffffffffffffffffffffffffffffffffff021916908373ffffffffffffffffffffffffffffffffffffffff16021790555085600360006101000a81548173ffffffffffffffffffffffffffffffffffffffff021916908373ffffffffffffffffffffffffffffffffffffffff16021790555084600460006101000a81548173ffffffffffffffffffffffffffffffffffffffff021916908373ffffffffffffffffffffffffffffffffffffffff16021790555083600760006101000a81548173ffffffffffffffffffffffffffffffffffffffff021916908373ffffffffffffffffffffffffffffffffffffffff16021790555082600960006101000a81548173ffffffffffffffffffffffffffffffffffffffff021916908373ffffffffffffffffffffffffffffffffffffffff16021790555081600560006101000a81548173ffffffffffffffffffffffffffffffffffffffff021916908373ffffffffffffffffffffffffffffffffffffffff16021790555080600660006101000a81548173ffffffffffffffffffffffffffffffffffffffff021916908373ffffffffffffffffffffffffffffffffffffffff1602179055505050505050505050565b600860009054906101000a900473ffffffffffffffffffffffffffffffffffffffff1681565b600d60205281600052604060002081815481106119e857600080fd5b90600052602060002001600091509150505481565b60606000600d60008473ffffffffffffffffffffffffffffffffffffffff1673ffffffffffffffffffffffffffffffffffffffff1681526020019081526020016000208054905067ffffffffffffffff811115611a5d57611a5c614141565b5b604051908082528060200260200182016040528015611a8b5781602001602082028036833780820191505090505b50905060005b8151811015611b2857600d60008573ffffffffffffffffffffffffffffffffffffffff1673ffffffffffffffffffffffffffffffffffffffff1681526020019081526020016000208181548110611aeb57611aea614ba8565b5b9060005260206000200154828281518110611b0957611b08614ba8565b5b6020026020010181815250508080611b20906150c6565b915050611a91565b5080915050919050565b600960009054906101000a900473ffffffffffffffffffffffffffffffffffffffff1673ffffffffffffffffffffffffffffffffffffffff163373ffffffffffffffffffffffffffffffffffffffff1614611bc2576040517f08c379a0000000000000000000000000000000000000000000000000000000008152600401611bb990614c23565b60405180910390fd5b80600b8381548110611bd757611bd6614ba8565b5b906000526020600020906008020160040160038282829054906101000a900460ff16611c039190615260565b92506101000a81548160ff021916908360ff1602179055505050565b600660009054906101000a900473ffffffffffffffffffffffffffffffffffffffff1681565b600a8060000160009054906101000a900460ff16908060000160019054906101000a900460ff16905082565b6000600760009054906101000a900473ffffffffffffffffffffffffffffffffffffffff1673ffffffffffffffffffffffffffffffffffffffff163373ffffffffffffffffffffffffffffffffffffffff1614611d03576040517f08c379a0000000000000000000000000000000000000000000000000000000008152600401611cfa90614b25565b60405180910390fd5b6000600c6001816001815401808255809150500390600052602060002090600c0201905060018160000160006101000a81548160ff0219169083151502179055506000816004018190555084816001019080519060200190611d6692919061397e565b508381600301819055506040518060800160405280600060ff168152602001600060ff168152602001600060ff168152602001600060ff168152508160050160008201518160000160006101000a81548160ff021916908360ff16021790555060208201518160000160016101000a81548160ff021916908360ff16021790555060408201518160000160026101000a81548160ff021916908360ff16021790555060608201518160000160036101000a81548160ff021916908360ff160217905550905050600460009054906101000a900473ffffffffffffffffffffffffffffffffffffffff168160060160006101000a81548173ffffffffffffffffffffffffffffffffffffffff021916908373ffffffffffffffffffffffffffffffffffffffff1602179055506000831415611f3a57600460009054906101000a900473ffffffffffffffffffffffffffffffffffffffff1673ffffffffffffffffffffffffffffffffffffffff1663f01fc35a6040518163ffffffff1660e01b81526004016020604051808303816000875af1158015611f09573d6000803e3d6000fd5b505050506040513d601f19601f82011682018060405250810190611f2d9190615297565b8160070181905550611fe1565b600460009054906101000a900473ffffffffffffffffffffffffffffffffffffffff1673ffffffffffffffffffffffffffffffffffffffff1663523814bc846040518263ffffffff1660e01b8152600401611f959190613c87565b6020604051808303816000875af1158015611fb4573d6000803e3d6000fd5b505050506040513d601f19601f82011682018060405250810190611fd89190615297565b81600701819055505b60005b600185611ff19190614b74565b81116121615761206c8260070154600a6040518060400160405290816000820160009054906101000a900460ff1660ff1660ff1681526020016000820160019054906101000a900460ff1660ff1660ff168152505084600101848154811061205c5761205b614ba8565b5b9060005260206000200154612371565b6000600b83600101838154811061208657612085614ba8565b5b9060005260206000200154815481106120a2576120a1614ba8565b5b906000526020600020906008020160000160009054906101000a900473ffffffffffffffffffffffffffffffffffffffff169050600d60008273ffffffffffffffffffffffffffffffffffffffff1673ffffffffffffffffffffffffffffffffffffffff1681526020019081526020016000206001600c805490506121279190614b74565b9080600181540180825580915050600190039060005260206000200160009091909190915055508080612159906150c6565b915050611fe4565b506001600c805490506121749190614b74565b9150509392505050565b612186612ac3565b600073ffffffffffffffffffffffffffffffffffffffff168173ffffffffffffffffffffffffffffffffffffffff1614156121f6576040517f08c379a00000000000000000000000000000000000000000000000000000000081526004016121ed90615336565b60405180910390fd5b6121ff81613475565b50565b600160009054906101000a900473ffffffffffffffffffffffffffffffffffffffff1681565b600b818154811061223857600080fd5b90600052602060002090600802016000915090508060000160009054906101000a900473ffffffffffffffffffffffffffffffffffffffff16908060010160009054906101000a900473ffffffffffffffffffffffffffffffffffffffff1690806002015490806003016040518060400160405290816000820160009054906101000a900460ff1660ff1660ff1681526020016000820160019054906101000a900460ff1660ff1660ff1681525050908060040160009054906101000a900460000b908060040160019054906101000a900460ff16908060040160029054906101000a900460ff16908060040160039054906101000a900460ff16908060070160009054906101000a900460ff16908060070160019054906101000a900460ff16908060070160029054906101000a900460ff1690508b565b81600b828154811061238657612385614ba8565b5b906000526020600020906008020160030160008201518160000160006101000a81548160ff021916908360ff16021790555060208201518160000160016101000a81548160ff021916908360ff160217905550905050600060ff16600460009054906101000a900473ffffffffffffffffffffffffffffffffffffffff1673ffffffffffffffffffffffffffffffffffffffff1663f9dfbfcb600c868154811061243357612432614ba8565b5b90600052602060002090600c020160070154856000015186602001516040518463ffffffff1660e01b815260040161246d93929190615387565b61014060405180830381865afa15801561248b573d6000803e3d6000fd5b505050506040513d601f19601f820116820180604052508101906124af9190615526565b6000015160ff1614156124e8576124e781600c85815481106124d4576124d3614ba8565b5b90600052602060002090600c0201613539565b5b6000600460009054906101000a900473ffffffffffffffffffffffffffffffffffffffff1673ffffffffffffffffffffffffffffffffffffffff1663471b6759600c868154811061253c5761253b614ba8565b5b90600052602060002090600c020160070154856000015186602001516040518463ffffffff1660e01b815260040161257693929190615387565b6020604051808303816000875af1158015612595573d6000803e3d6000fd5b505050506040513d601f19601f820116820180604052508101906125b99190615297565b90506002811115612abd576000600460009054906101000a900473ffffffffffffffffffffffffffffffffffffffff1673ffffffffffffffffffffffffffffffffffffffff166358058283600c878154811061261857612617614ba8565b5b90600052602060002090600c020160070154846040518363ffffffff1660e01b8152600401612648929190615554565b60a060405180830381865afa158015612665573d6000803e3d6000fd5b505050506040513d601f19601f82011682018060405250810190612689919061562e565b90506001600481111561269f5761269e61565b565b5b816000015160048111156126b6576126b561565b565b5b141561271b57600c85815481106126d0576126cf614ba8565b5b90600052602060002090600c0201600501600001600081819054906101000a900460ff16809291906127019061510f565b91906101000a81548160ff021916908360ff160217905550505b6002600481111561272f5761272e61565b565b5b816000015160048111156127465761274561565b565b5b14156127ab57600c85815481106127605761275f614ba8565b5b90600052602060002090600c0201600501600001600181819054906101000a900460ff16809291906127919061510f565b91906101000a81548160ff021916908360ff160217905550505b600360048111156127bf576127be61565b565b5b816000015160048111156127d6576127d561565b565b5b141561283b57600c85815481106127f0576127ef614ba8565b5b90600052602060002090600c0201600501600001600281819054906101000a900460ff16809291906128219061510f565b91906101000a81548160ff021916908360ff160217905550505b60048081111561284e5761284d61565b565b5b816000015160048111156128655761286461565b565b5b14156128ca57600c858154811061287f5761287e614ba8565b5b90600052602060002090600c0201600501600001600381819054906101000a900460ff16809291906128b09061510f565b91906101000a81548160ff021916908360ff160217905550505b600081602001511115612a8d576000600560009054906101000a900473ffffffffffffffffffffffffffffffffffffffff1673ffffffffffffffffffffffffffffffffffffffff1663c82c37b983602001516040518263ffffffff1660e01b81526004016129389190613c87565b6109e060405180830381865afa158015612956573d6000803e3d6000fd5b505050506040513d601f19601f8201168201806040525081019061297a9190615205565b90508060200151612a875783600c878154811061299a57612999614ba8565b5b90600052602060002090600c0201600801819055508160200151600c87815481106129c8576129c7614ba8565b5b90600052602060002090600c0201600901819055506001600c87815481106129f3576129f2614ba8565b5b90600052602060002090600c0201600a0160006101000a81548160ff02191690831515021790555084600c8781548110612a3057612a2f614ba8565b5b90600052602060002090600c0201600b0160008201518160000160006101000a81548160ff021916908360ff16021790555060208201518160000160016101000a81548160ff021916908360ff1602179055509050505b50612abb565b60006004811115612aa157612aa061565b565b5b81600001516004811115612ab857612ab761565b565b5b50505b505b50505050565b612acb61368c565b73ffffffffffffffffffffffffffffffffffffffff16612ae9611763565b73ffffffffffffffffffffffffffffffffffffffff1614612b3f576040517f08c379a0000000000000000000000000000000000000000000000000000000008152600401612b36906156d6565b60405180910390fd5b565b6000600b8481548110612b5757612b56614ba8565b5b90600052602060002090600802019050816000015150816020015115612b995760008160040160006101000a81548160ff021916908360000b60ff1602179055505b816040015115612bcf57612bce84600c8581548110612bbb57612bba614ba8565b5b90600052602060002090600c0201613539565b5b816060015115612cfd57600460009054906101000a900473ffffffffffffffffffffffffffffffffffffffff1673ffffffffffffffffffffffffffffffffffffffff1663fe368d7a600c8581548110612c2b57612c2a614ba8565b5b90600052602060002090600c020160070154600c8681548110612c5157612c50614ba8565b5b90600052602060002090600c0201600b0160000160009054906101000a900460ff16600c8781548110612c8757612c86614ba8565b5b90600052602060002090600c0201600b0160000160019054906101000a900460ff1660016040518563ffffffff1660e01b8152600401612cca94939291906156f6565b600060405180830381600087803b158015612ce457600080fd5b505af1158015612cf8573d6000803e3d6000fd5b505050505b81608001515060008260a0015160ff161115612dd257816020015115612d52578160a001516000612d2e919061573b565b8160040160006101000a81548160ff021916908360000b60ff160217905550612dd1565b8160a001518160040160008282829054906101000a900460000b612d76919061573b565b92506101000a81548160ff021916908360000b60ff16021790555060008160040160009054906101000a900460000b60000b1215612dd05760008160040160006101000a81548160ff021916908360000b60ff1602179055505b5b5b60008260c00151505060008260e0015160ff161115612e0057612dff84848460e0015160ff166001613694565b5b6000826101000151505060006004811115612e1e57612e1d61565b565b5b8261014001516004811115612e3657612e3561565b565b5b5050600082610180015160ff161115612e5957612e5884836101800151611b32565b5b6000826101a0015150506000826101c0015160ff161115613167576000826101c0015160ff1690506000600660009054906101000a900473ffffffffffffffffffffffffffffffffffffffff1673ffffffffffffffffffffffffffffffffffffffff16633841fae1876040518263ffffffff1660e01b8152600401612ede9190613c87565b600060405180830381865afa158015612efb573d6000803e3d6000fd5b505050506040513d6000823e3d601f19601f82011682018060405250810190612f249190615847565b905060008151111561316457600060018251612f409190614b74565b90505b600081111561307f576000600360009054906101000a900473ffffffffffffffffffffffffffffffffffffffff1673ffffffffffffffffffffffffffffffffffffffff1663ce28613f6000846040518363ffffffff1660e01b8152600401612fac9291906158cb565b6020604051808303816000875af1158015612fcb573d6000803e3d6000fd5b505050506040513d601f19601f82011682018060405250810190612fef9190615233565b9050828160ff168151811061300757613006614ba8565b5b602002602001015183838151811061302257613021614ba8565b5b602002602001015184848151811061303d5761303c614ba8565b5b60200260200101858460ff168151811061305a57613059614ba8565b5b6020026020010182815250828152505050508080613077906158f4565b915050612f43565b5060005b815181101561316257600660009054906101000a900473ffffffffffffffffffffffffffffffffffffffff1673ffffffffffffffffffffffffffffffffffffffff1663f7c8af488383815181106130dd576130dc614ba8565b5b60200260200101516040518263ffffffff1660e01b81526004016131019190613c87565b600060405180830381600087803b15801561311b57600080fd5b505af115801561312f573d6000803e3d6000fd5b50505050828061313e906158f4565b935050600083141561314f57613162565b808061315a906150c6565b915050613083565b505b50505b6000600581111561317b5761317a61565b565b5b826101e0015160058111156131935761319261565b565b5b5050600082610200015150506000826102200151505050505050565b6000600c83815481106131c5576131c4614ba8565b5b90600052602060002090600c02019050600460009054906101000a900473ffffffffffffffffffffffffffffffffffffffff1673ffffffffffffffffffffffffffffffffffffffff166358308aa8836040518263ffffffff1660e01b81526004016132309190613c87565b600060405180830381600087803b15801561324a57600080fd5b505af115801561325e573d6000803e3d6000fd5b50505050600460009054906101000a900473ffffffffffffffffffffffffffffffffffffffff1673ffffffffffffffffffffffffffffffffffffffff1663c6b41b458360006040518363ffffffff1660e01b81526004016132c092919061594f565b600060405180830381600087803b1580156132da57600080fd5b505af11580156132ee573d6000803e3d6000fd5b5050505060005b600182600101805490506133099190614b74565b811161346f576000600b83600101838154811061332957613328614ba8565b5b90600052602060002001548154811061334557613344614ba8565b5b906000526020600020906008020190506000600460009054906101000a900473ffffffffffffffffffffffffffffffffffffffff1673ffffffffffffffffffffffffffffffffffffffff1663f9dfbfcb868460030160000160009054906101000a900460ff168560030160000160019054906101000a900460ff166040518463ffffffff1660e01b81526004016133de93929190615387565b61014060405180830381865afa1580156133fc573d6000803e3d6000fd5b505050506040513d601f19601f820116820180604052508101906134209190615526565b90508060c001511561345a5761345984600101848154811061344557613444614ba8565b5b906000526020600020015487600180613694565b5b50508080613467906150c6565b9150506132f5565b50505050565b60008060009054906101000a900473ffffffffffffffffffffffffffffffffffffffff169050816000806101000a81548173ffffffffffffffffffffffffffffffffffffffff021916908373ffffffffffffffffffffffffffffffffffffffff1602179055508173ffffffffffffffffffffffffffffffffffffffff168173ffffffffffffffffffffffffffffffffffffffff167f8be0079c531659141344cd1fd0a4f28419497f9722a3daafe3b4186f6b6457e060405160405180910390a35050565b6000600b838154811061354f5761354e614ba8565b5b9060005260206000209060080201905060008160040160006101000a81548160ff021916908360000b60ff160217905550600260009054906101000a900473ffffffffffffffffffffffffffffffffffffffff1673ffffffffffffffffffffffffffffffffffffffff16636d6ba756600b85815481106135d2576135d1614ba8565b5b9060005260206000209060080201600201546040518263ffffffff1660e01b81526004016136009190613c87565b600060405180830381600087803b15801561361a57600080fd5b505af115801561362e573d6000803e3d6000fd5b505050506136878260070154600a6040518060400160405290816000820160009054906101000a900460ff1660ff1660ff1681526020016000820160019054906101000a900460ff1660ff1660ff168152505085612371565b505050565b600033905090565b6000600b85815481106136aa576136a9614ba8565b5b906000526020600020906008020190506000600260009054906101000a900473ffffffffffffffffffffffffffffffffffffffff1673ffffffffffffffffffffffffffffffffffffffff16634810bc5983600201546040518263ffffffff1660e01b815260040161371b9190613c87565b6101e060405180830381865afa158015613739573d6000803e3d6000fd5b505050506040513d601f19601f8201168201806040525081019061375d9190615a92565b9050838260040160008282829054906101000a900460000b61377f9190615ac0565b92506101000a81548160ff021916908360000b60ff16021790555080606001516000015160000b8260040160009054906101000a900460000b60000b13156137ed576137ec86600c87815481106137d9576137d8614ba8565b5b90600052602060002090600c0201613539565b5b505050505050565b604051806101a00160405280600073ffffffffffffffffffffffffffffffffffffffff168152602001600073ffffffffffffffffffffffffffffffffffffffff1681526020016000815260200161384a6139cb565b81526020016000800b8152602001600060ff168152602001600060ff168152602001600060ff16815260200160608152602001606081526020016000151581526020016000151581526020016000151581525090565b6040518060e0016040528060008152602001600015158152602001600060ff168152602001600060ff1681526020016138d76139eb565b81526020016138e46139eb565b81526020016138f16139eb565b81525090565b60405180610180016040528060001515815260200160608152602001600081526020016000815260200160008152602001613930613ae1565b8152602001600073ffffffffffffffffffffffffffffffffffffffff1681526020016000815260200160008152602001600081526020016000151581526020016139786139cb565b81525090565b8280548282559060005260206000209081019282156139ba579160200282015b828111156139b957825182559160200191906001019061399e565b5b5090506139c79190613b15565b5090565b6040518060400160405280600060ff168152602001600060ff1681525090565b604051806102600160405280600015158152602001600015158152602001600015158152602001600015158152602001600015158152602001600060ff168152602001600060ff168152602001600060ff168152602001600060ff168152602001600060ff16815260200160006004811115613a6a57613a6961565b565b5b815260200160006003811115613a8357613a8261565b565b5b8152602001600060ff168152602001600060ff168152602001600060ff16815260200160006005811115613aba57613ab961565b565b5b8152602001600060ff168152602001600060ff168152602001613adb613b32565b81525090565b6040518060800160405280600060ff168152602001600060ff168152602001600060ff168152602001600060ff1681525090565b5b80821115613b2e576000816000905550600101613b16565b5090565b6040518060e001604052806000800b81526020016000800b81526020016000800b81526020016000800b81526020016000800b81526020016000800b81526020016000800b81525090565b6000604051905090565b600080fd5b600080fd5b600073ffffffffffffffffffffffffffffffffffffffff82169050919050565b6000613bbc82613b91565b9050919050565b613bcc81613bb1565b8114613bd757600080fd5b50565b600081359050613be981613bc3565b92915050565b6000819050919050565b613c0281613bef565b8114613c0d57600080fd5b50565b600081359050613c1f81613bf9565b92915050565b600080600060608486031215613c3e57613c3d613b87565b5b6000613c4c86828701613bda565b9350506020613c5d86828701613c10565b9250506040613c6e86828701613bda565b9150509250925092565b613c8181613bef565b82525050565b6000602082019050613c9c6000830184613c78565b92915050565b6000819050919050565b6000613cc7613cc2613cbd84613b91565b613ca2565b613b91565b9050919050565b6000613cd982613cac565b9050919050565b6000613ceb82613cce565b9050919050565b613cfb81613ce0565b82525050565b6000602082019050613d166000830184613cf2565b92915050565b600060208284031215613d3257613d31613b87565b5b6000613d4084828501613c10565b91505092915050565b613d5281613bb1565b82525050565b613d6181613bef565b82525050565b600060ff82169050919050565b613d7d81613d67565b82525050565b604082016000820151613d996000850182613d74565b506020820151613dac6020850182613d74565b50505050565b60008160000b9050919050565b613dc881613db2565b82525050565b600081519050919050565b600082825260208201905092915050565b6000819050602082019050919050565b6000613e068383613d74565b60208301905092915050565b6000602082019050919050565b6000613e2a82613dce565b613e348185613dd9565b9350613e3f83613dea565b8060005b83811015613e70578151613e578882613dfa565b9750613e6283613e12565b925050600181019050613e43565b5085935050505092915050565b60008115159050919050565b613e9281613e7d565b82525050565b60006101c083016000830151613eb16000860182613d49565b506020830151613ec46020860182613d49565b506040830151613ed76040860182613d58565b506060830151613eea6060860182613d83565b506080830151613efd60a0860182613dbf565b5060a0830151613f1060c0860182613d74565b5060c0830151613f2360e0860182613d74565b5060e0830151613f37610100860182613d74565b50610100830151848203610120860152613f518282613e1f565b915050610120830151848203610140860152613f6d8282613e1f565b915050610140830151613f84610160860182613e89565b50610160830151613f99610180860182613e89565b50610180830151613fae6101a0860182613e89565b508091505092915050565b60006020820190508181036000830152613fd38184613e98565b905092915050565b613fe481613e7d565b82525050565b6080820160008201516140006000850182613d74565b5060208201516140136020850182613d74565b5060408201516140266040850182613d74565b5060608201516140396060850182613d74565b50505050565b61404881613bb1565b82525050565b6040820160008201516140646000850182613d74565b5060208201516140776020850182613d74565b50505050565b60006101e082019050614093600083018e613fdb565b6140a0602083018d613c78565b6140ad604083018c613c78565b6140ba606083018b613c78565b6140c7608083018a613fea565b6140d561010083018961403f565b6140e3610120830188613c78565b6140f1610140830187613c78565b6140ff610160830186613c78565b61410d610180830185613fdb565b61411b6101a083018461404e565b9c9b505050505050505050505050565b600080fd5b6000601f19601f8301169050919050565b7f4e487b7100000000000000000000000000000000000000000000000000000000600052604160045260246000fd5b61417982614130565b810181811067ffffffffffffffff8211171561419857614197614141565b5b80604052505050565b60006141ab613b7d565b90506141b78282614170565b919050565b6141c581613d67565b81146141d057600080fd5b50565b6000813590506141e2816141bc565b92915050565b6000604082840312156141fe576141fd61412b565b5b61420860406141a1565b90506000614218848285016141d3565b600083015250602061422c848285016141d3565b60208301525092915050565b60008060006080848603121561425157614250613b87565b5b600061425f86828701613c10565b9350506020614270868287016141e8565b925050606061428186828701613c10565b9150509250925092565b60006020820190506142a0600083018461403f565b92915050565b600080600080608085870312156142c0576142bf613b87565b5b60006142ce87828801613c10565b94505060206142df87828801613c10565b93505060406142f087828801613c10565b925050606061430187828801613c10565b91505092959194509250565b600061431882613cce565b9050919050565b6143288161430d565b82525050565b6000602082019050614343600083018461431f565b92915050565b600081519050919050565b600082825260208201905092915050565b6000819050602082019050919050565b60006143818383613d58565b60208301905092915050565b6000602082019050919050565b60006143a582614349565b6143af8185614354565b93506143ba83614365565b8060005b838110156143eb5781516143d28882614375565b97506143dd8361438d565b9250506001810190506143be565b5085935050505092915050565b60006020820190508181036000830152614412818461439a565b905092915050565b600061442582613cce565b9050919050565b6144358161441a565b82525050565b6000602082019050614450600083018461442c565b92915050565b6000806040838503121561446d5761446c613b87565b5b600061447b85828601613c10565b925050602061448c85828601613c10565b9150509250929050565b600082825260208201905092915050565b60006144b282614349565b6144bc8185614496565b93506144c783614365565b8060005b838110156144f85781516144df8882614375565b97506144ea8361438d565b9250506001810190506144cb565b5085935050505092915050565b60808201600082015161451b6000850182613d74565b50602082015161452e6020850182613d74565b5060408201516145416040850182613d74565b5060608201516145546060850182613d74565b50505050565b6000610200830160008301516145736000860182613e89565b506020830151848203602086015261458b82826144a7565b91505060408301516145a06040860182613d58565b5060608301516145b36060860182613d58565b5060808301516145c66080860182613d58565b5060a08301516145d960a0860182614505565b5060c08301516145ed610120860182613d49565b5060e0830151614601610140860182613d58565b50610100830151614616610160860182613d58565b5061012083015161462b610180860182613d58565b506101408301516146406101a0860182613e89565b506101608301516146556101c0860182613d83565b508091505092915050565b6000602082019050818103600083015261467a818461455a565b905092915050565b600061468d82613cce565b9050919050565b61469d81614682565b82525050565b60006020820190506146b86000830184614694565b92915050565b600080600080600080600080610100898b0312156146df576146de613b87565b5b60006146ed8b828c01613bda565b98505060206146fe8b828c01613bda565b975050604061470f8b828c01613bda565b96505060606147208b828c01613bda565b95505060806147318b828c01613bda565b94505060a06147428b828c01613bda565b93505060c06147538b828c01613bda565b92505060e06147648b828c01613bda565b9150509295985092959890939650565b6000806040838503121561478b5761478a613b87565b5b600061479985828601613bda565b92505060206147aa85828601613c10565b9150509250929050565b6000602082840312156147ca576147c9613b87565b5b60006147d884828501613bda565b91505092915050565b600080604083850312156147f8576147f7613b87565b5b600061480685828601613c10565b9250506020614817858286016141d3565b9150509250929050565b600061482c82613cce565b9050919050565b61483c81614821565b82525050565b60006020820190506148576000830184614833565b92915050565b61486681613d67565b82525050565b6000604082019050614881600083018561485d565b61488e602083018461485d565b9392505050565b600080fd5b600067ffffffffffffffff8211156148b5576148b4614141565b5b602082029050602081019050919050565b600080fd5b60006148de6148d98461489a565b6141a1565b90508083825260208201905060208402830185811115614901576149006148c6565b5b835b8181101561492a57806149168882613c10565b845260208401935050602081019050614903565b5050509392505050565b600082601f83011261494957614948614895565b5b81356149598482602086016148cb565b91505092915050565b60008060006060848603121561497b5761497a613b87565b5b600084013567ffffffffffffffff81111561499957614998613b8c565b5b6149a586828701614934565b93505060206149b686828701613c10565b92505060406149c786828701613c10565b9150509250925092565b60006149dc82613cce565b9050919050565b6149ec816149d1565b82525050565b6000602082019050614a0760008301846149e3565b92915050565b614a1681613db2565b82525050565b600061018082019050614a32600083018e61403f565b614a3f602083018d61403f565b614a4c604083018c613c78565b614a59606083018b61404e565b614a6660a083018a614a0d565b614a7360c083018961485d565b614a8060e083018861485d565b614a8e61010083018761485d565b614a9c610120830186613fdb565b614aaa610140830185613fdb565b614ab8610160830184613fdb565b9c9b505050505050505050505050565b600082825260208201905092915050565b7f4e6f74206c6f62627920636f6e74726163740000000000000000000000000000600082015250565b6000614b0f601283614ac8565b9150614b1a82614ad9565b602082019050919050565b60006020820190508181036000830152614b3e81614b02565b9050919050565b7f4e487b7100000000000000000000000000000000000000000000000000000000600052601160045260246000fd5b6000614b7f82613bef565b9150614b8a83613bef565b925082821015614b9d57614b9c614b45565b5b828203905092915050565b7f4e487b7100000000000000000000000000000000000000000000000000000000600052603260045260246000fd5b7f4e6f7420616374696f6e7320636f6e7472616374000000000000000000000000600082015250565b6000614c0d601483614ac8565b9150614c1882614bd7565b602082019050919050565b60006020820190508181036000830152614c3c81614c00565b9050919050565b6000604082019050614c586000830185613fdb565b614c656020830184613c78565b9392505050565b600067ffffffffffffffff821115614c8757614c86614141565b5b602082029050602081019050919050565b614ca181613e7d565b8114614cac57600080fd5b50565b600081519050614cbe81614c98565b92915050565b600081519050614cd3816141bc565b92915050565b60058110614ce657600080fd5b50565b600081519050614cf881614cd9565b92915050565b60048110614d0b57600080fd5b50565b600081519050614d1d81614cfe565b92915050565b60068110614d3057600080fd5b50565b600081519050614d4281614d23565b92915050565b614d5181613db2565b8114614d5c57600080fd5b50565b600081519050614d6e81614d48565b92915050565b600060e08284031215614d8a57614d8961412b565b5b614d9460e06141a1565b90506000614da484828501614d5f565b6000830152506020614db884828501614d5f565b6020830152506040614dcc84828501614d5f565b6040830152506060614de084828501614d5f565b6060830152506080614df484828501614d5f565b60808301525060a0614e0884828501614d5f565b60a08301525060c0614e1c84828501614d5f565b60c08301525092915050565b60006103208284031215614e3f57614e3e61412b565b5b614e4a6102606141a1565b90506000614e5a84828501614caf565b6000830152506020614e6e84828501614caf565b6020830152506040614e8284828501614caf565b6040830152506060614e9684828501614caf565b6060830152506080614eaa84828501614caf565b60808301525060a0614ebe84828501614cc4565b60a08301525060c0614ed284828501614cc4565b60c08301525060e0614ee684828501614cc4565b60e083015250610100614efb84828501614cc4565b61010083015250610120614f1184828501614cc4565b61012083015250610140614f2784828501614ce9565b61014083015250610160614f3d84828501614d0e565b61016083015250610180614f5384828501614cc4565b610180830152506101a0614f6984828501614cc4565b6101a0830152506101c0614f7f84828501614cc4565b6101c0830152506101e0614f9584828501614d33565b6101e083015250610200614fab84828501614cc4565b61020083015250610220614fc184828501614cc4565b61022083015250610240614fd784828501614d74565b6102408301525092915050565b6000614ff7614ff284614c6c565b6141a1565b905080838252602082019050610320840283018581111561501b5761501a6148c6565b5b835b8181101561504557806150308882614e28565b8452602084019350506103208101905061501d565b5050509392505050565b600082601f83011261506457615063614895565b5b8151615074848260208601614fe4565b91505092915050565b60006020828403121561509357615092613b87565b5b600082015167ffffffffffffffff8111156150b1576150b0613b8c565b5b6150bd8482850161504f565b91505092915050565b60006150d182613bef565b91507fffffffffffffffffffffffffffffffffffffffffffffffffffffffffffffffff82141561510457615103614b45565b5b600182019050919050565b600061511a82613d67565b915060ff82141561512e5761512d614b45565b5b600182019050919050565b60008151905061514881613bf9565b92915050565b60006109e082840312156151655761516461412b565b5b61516f60e06141a1565b9050600061517f84828501615139565b600083015250602061519384828501614caf565b60208301525060406151a784828501614cc4565b60408301525060606151bb84828501614cc4565b60608301525060806151cf84828501614e28565b6080830152506103a06151e484828501614e28565b60a0830152506106c06151f984828501614e28565b60c08301525092915050565b60006109e0828403121561521c5761521b613b87565b5b600061522a8482850161514e565b91505092915050565b60006020828403121561524957615248613b87565b5b600061525784828501614cc4565b91505092915050565b600061526b82613d67565b915061527683613d67565b92508260ff0382111561528c5761528b614b45565b5b828201905092915050565b6000602082840312156152ad576152ac613b87565b5b60006152bb84828501615139565b91505092915050565b7f4f776e61626c653a206e6577206f776e657220697320746865207a65726f206160008201527f6464726573730000000000000000000000000000000000000000000000000000602082015250565b6000615320602683614ac8565b915061532b826152c4565b604082019050919050565b6000602082019050818103600083015261534f81615313565b9050919050565b600061537161536c61536784613d67565b613ca2565b613bef565b9050919050565b61538181615356565b82525050565b600060608201905061539c6000830186613c78565b6153a96020830185615378565b6153b66040830184615378565b949350505050565b600067ffffffffffffffff8211156153d9576153d8614141565b5b602082029050919050565b60006153f76153f2846153be565b6141a1565b90508060208402830185811115615411576154106148c6565b5b835b8181101561543a57806154268882615139565b845260208401935050602081019050615413565b5050509392505050565b600082601f83011261545957615458614895565b5b60046154668482856153e4565b91505092915050565b600061014082840312156154865761548561412b565b5b61549060e06141a1565b905060006154a084828501614cc4565b60008301525060206154b484828501614cc4565b60208301525060406154c884828501615444565b60408301525060c06154dc84828501614caf565b60608301525060e06154f084828501614caf565b60808301525061010061550584828501614caf565b60a08301525061012061551a84828501614caf565b60c08301525092915050565b6000610140828403121561553d5761553c613b87565b5b600061554b8482850161546f565b91505092915050565b60006040820190506155696000830185613c78565b6155766020830184613c78565b9392505050565b6005811061558a57600080fd5b50565b60008151905061559c8161557d565b92915050565b600060a082840312156155b8576155b761412b565b5b6155c260a06141a1565b905060006155d28482850161558d565b60008301525060206155e684828501615139565b60208301525060406155fa84828501614cc4565b604083015250606061560e84828501614cc4565b606083015250608061562284828501614caf565b60808301525092915050565b600060a0828403121561564457615643613b87565b5b6000615652848285016155a2565b91505092915050565b7f4e487b7100000000000000000000000000000000000000000000000000000000600052602160045260246000fd5b7f4f776e61626c653a2063616c6c6572206973206e6f7420746865206f776e6572600082015250565b60006156c0602083614ac8565b91506156cb8261568a565b602082019050919050565b600060208201905081810360008301526156ef816156b3565b9050919050565b600060808201905061570b6000830187613c78565b6157186020830186615378565b6157256040830185615378565b6157326060830184613fdb565b95945050505050565b600061574682613db2565b915061575183613db2565b9250827fffffffffffffffffffffffffffffffffffffffffffffffffffffffffffffff800182126000841215161561578c5761578b614b45565b5b82607f0182136000841216156157a5576157a4614b45565b5b828203905092915050565b60006157c36157be8461489a565b6141a1565b905080838252602082019050602084028301858111156157e6576157e56148c6565b5b835b8181101561580f57806157fb8882615139565b8452602084019350506020810190506157e8565b5050509392505050565b600082601f83011261582e5761582d614895565b5b815161583e8482602086016157b0565b91505092915050565b60006020828403121561585d5761585c613b87565b5b600082015167ffffffffffffffff81111561587b5761587a613b8c565b5b61588784828501615819565b91505092915050565b6000819050919050565b60006158b56158b06158ab84615890565b613ca2565b613d67565b9050919050565b6158c58161589a565b82525050565b60006040820190506158e060008301856158bc565b6158ed602083018461485d565b9392505050565b60006158ff82613bef565b9150600082141561591357615912614b45565b5b600182039050919050565b600061593961593461592f84615890565b613ca2565b613bef565b9050919050565b6159498161591e565b82525050565b60006040820190506159646000830185613c78565b6159716020830184615940565b9392505050565b6000819050919050565b61598b81615978565b811461599657600080fd5b50565b6000815190506159a881615982565b92915050565b60006101e082840312156159c5576159c461412b565b5b6159d06101206141a1565b905060006159e084828501615999565b60008301525060206159f484828501615139565b6020830152506040615a0884828501615139565b6040830152506060615a1c84828501614d74565b606083015250610140615a3184828501614cc4565b608083015250610160615a4684828501614cc4565b60a083015250610180615a5b84828501614cc4565b60c0830152506101a0615a7084828501614cc4565b60e0830152506101c0615a8584828501614caf565b6101008301525092915050565b60006101e08284031215615aa957615aa8613b87565b5b6000615ab7848285016159ae565b91505092915050565b6000615acb82613db2565b9150615ad683613db2565b925081607f03831360008312151615615af257615af1614b45565b5b817fffffffffffffffffffffffffffffffffffffffffffffffffffffffffffffff80038312600083121615615b2a57615b29614b45565b5b82820190509291505056fea2646970667358221220a45bc3b4e8805a9d642aef1373078864ccd6c71693c8e317659fb0aba746432b64736f6c634300080c0033",
  "devdoc": {
    "kind": "dev",
    "methods": {
      "owner()": {
        "details": "Returns the address of the current owner."
      },
      "renounceOwnership()": {
        "details": "Leaves the contract without owner. It will not be possible to call `onlyOwner` functions anymore. Can only be called by the current owner. NOTE: Renouncing ownership will leave the contract without an owner, thereby removing any functionality that is only available to the owner."
      },
      "transferOwnership(address)": {
        "details": "Transfers ownership of the contract to a new account (`newOwner`). Can only be called by the current owner."
      }
    },
    "version": 1
  },
  "userdoc": {
    "kind": "user",
    "methods": {},
    "version": 1
  },
  "storageLayout": {
    "storage": [
      {
        "astId": 7,
        "contract": "contracts/BCGames.sol:BCGames",
        "label": "_owner",
        "offset": 0,
        "slot": "0",
        "type": "t_address"
      },
      {
        "astId": 2684,
        "contract": "contracts/BCGames.sol:BCGames",
        "label": "roomTiles",
        "offset": 0,
        "slot": "1",
        "type": "t_contract(RoomTileInterface)2480"
      },
      {
        "astId": 2687,
        "contract": "contracts/BCGames.sol:BCGames",
        "label": "chars",
        "offset": 0,
        "slot": "2",
        "type": "t_contract(CharInterface)2494"
      },
      {
        "astId": 2690,
        "contract": "contracts/BCGames.sol:BCGames",
        "label": "utils",
        "offset": 0,
        "slot": "3",
        "type": "t_contract(UtilsInterface)2547"
      },
      {
        "astId": 2693,
        "contract": "contracts/BCGames.sol:BCGames",
        "label": "maps",
        "offset": 0,
        "slot": "4",
        "type": "t_contract(MapInterface)2665"
      },
      {
        "astId": 2696,
        "contract": "contracts/BCGames.sol:BCGames",
        "label": "bcEvents",
        "offset": 0,
        "slot": "5",
        "type": "t_contract(EventsInterface)2466"
      },
      {
        "astId": 2699,
        "contract": "contracts/BCGames.sol:BCGames",
        "label": "items",
        "offset": 0,
        "slot": "6",
        "type": "t_contract(ItemsInterface)2679"
      },
      {
        "astId": 2701,
        "contract": "contracts/BCGames.sol:BCGames",
        "label": "lobbiesAddress",
        "offset": 0,
        "slot": "7",
        "type": "t_address"
      },
      {
        "astId": 2703,
        "contract": "contracts/BCGames.sol:BCGames",
        "label": "charsAddress",
        "offset": 0,
        "slot": "8",
        "type": "t_address"
      },
      {
        "astId": 2705,
        "contract": "contracts/BCGames.sol:BCGames",
        "label": "actionsAddress",
        "offset": 0,
        "slot": "9",
        "type": "t_address"
      },
      {
        "astId": 2785,
        "contract": "contracts/BCGames.sol:BCGames",
        "label": "StartLocation",
        "offset": 0,
        "slot": "10",
        "type": "t_struct(Position)4215_storage"
      },
      {
        "astId": 2789,
        "contract": "contracts/BCGames.sol:BCGames",
        "label": "players",
        "offset": 0,
        "slot": "11",
        "type": "t_array(t_struct(Player)4191_storage)dyn_storage"
      },
      {
        "astId": 2793,
        "contract": "contracts/BCGames.sol:BCGames",
        "label": "games",
        "offset": 0,
        "slot": "12",
        "type": "t_array(t_struct(Game)4297_storage)dyn_storage"
      },
      {
        "astId": 2798,
        "contract": "contracts/BCGames.sol:BCGames",
        "label": "addressToGame",
        "offset": 0,
        "slot": "13",
        "type": "t_mapping(t_address,t_array(t_uint256)dyn_storage)"
      }
    ],
    "types": {
      "t_address": {
        "encoding": "inplace",
        "label": "address",
        "numberOfBytes": "20"
      },
      "t_array(t_struct(Game)4297_storage)dyn_storage": {
        "base": "t_struct(Game)4297_storage",
        "encoding": "dynamic_array",
        "label": "struct BCTypes.Game[]",
        "numberOfBytes": "32"
      },
      "t_array(t_struct(Player)4191_storage)dyn_storage": {
        "base": "t_struct(Player)4191_storage",
        "encoding": "dynamic_array",
        "label": "struct BCTypes.Player[]",
        "numberOfBytes": "32"
      },
      "t_array(t_uint256)dyn_storage": {
        "base": "t_uint256",
        "encoding": "dynamic_array",
        "label": "uint256[]",
        "numberOfBytes": "32"
      },
      "t_array(t_uint8)dyn_storage": {
        "base": "t_uint8",
        "encoding": "dynamic_array",
        "label": "uint8[]",
        "numberOfBytes": "32"
      },
      "t_bool": {
        "encoding": "inplace",
        "label": "bool",
        "numberOfBytes": "1"
      },
      "t_contract(CharInterface)2494": {
        "encoding": "inplace",
        "label": "contract CharInterface",
        "numberOfBytes": "20"
      },
      "t_contract(EventsInterface)2466": {
        "encoding": "inplace",
        "label": "contract EventsInterface",
        "numberOfBytes": "20"
      },
      "t_contract(ItemsInterface)2679": {
        "encoding": "inplace",
        "label": "contract ItemsInterface",
        "numberOfBytes": "20"
      },
      "t_contract(MapInterface)2665": {
        "encoding": "inplace",
        "label": "contract MapInterface",
        "numberOfBytes": "20"
      },
      "t_contract(RoomTileInterface)2480": {
        "encoding": "inplace",
        "label": "contract RoomTileInterface",
        "numberOfBytes": "20"
      },
      "t_contract(UtilsInterface)2547": {
        "encoding": "inplace",
        "label": "contract UtilsInterface",
        "numberOfBytes": "20"
      },
      "t_int8": {
        "encoding": "inplace",
        "label": "int8",
        "numberOfBytes": "1"
      },
      "t_mapping(t_address,t_array(t_uint256)dyn_storage)": {
        "encoding": "mapping",
        "key": "t_address",
        "label": "mapping(address => uint256[])",
        "numberOfBytes": "32",
        "value": "t_array(t_uint256)dyn_storage"
      },
      "t_struct(EventTracker)4210_storage": {
        "encoding": "inplace",
        "label": "struct BCTypes.EventTracker",
        "members": [
          {
            "astId": 4203,
            "contract": "contracts/BCGames.sol:BCGames",
            "label": "bugEvents",
            "offset": 0,
            "slot": "0",
            "type": "t_uint8"
          },
          {
            "astId": 4205,
            "contract": "contracts/BCGames.sol:BCGames",
            "label": "mysteryEvents",
            "offset": 1,
            "slot": "0",
            "type": "t_uint8"
          },
          {
            "astId": 4207,
            "contract": "contracts/BCGames.sol:BCGames",
            "label": "scavEvents",
            "offset": 2,
            "slot": "0",
            "type": "t_uint8"
          },
          {
            "astId": 4209,
            "contract": "contracts/BCGames.sol:BCGames",
            "label": "shipEvents",
            "offset": 3,
            "slot": "0",
            "type": "t_uint8"
          }
        ],
        "numberOfBytes": "32"
      },
      "t_struct(Game)4297_storage": {
        "encoding": "inplace",
        "label": "struct BCTypes.Game",
        "members": [
          {
            "astId": 4271,
            "contract": "contracts/BCGames.sol:BCGames",
            "label": "active",
            "offset": 0,
            "slot": "0",
            "type": "t_bool"
          },
          {
            "astId": 4274,
            "contract": "contracts/BCGames.sol:BCGames",
            "label": "playerIndexes",
            "offset": 0,
            "slot": "1",
            "type": "t_array(t_uint256)dyn_storage"
          },
          {
            "astId": 4276,
            "contract": "contracts/BCGames.sol:BCGames",
            "label": "currentPlayerTurnIndex",
            "offset": 0,
            "slot": "2",
            "type": "t_uint256"
          },
          {
            "astId": 4278,
            "contract": "contracts/BCGames.sol:BCGames",
            "label": "numPlayers",
            "offset": 0,
            "slot": "3",
            "type": "t_uint256"
          },
          {
            "astId": 4280,
            "contract": "contracts/BCGames.sol:BCGames",
            "label": "turnsTaken",
            "offset": 0,
            "slot": "4",
            "type": "t_uint256"
          },
          {
            "astId": 4283,
            "contract": "contracts/BCGames.sol:BCGames",
            "label": "eventTracker",
            "offset": 0,
            "slot": "5",
            "type": "t_struct(EventTracker)4210_storage"
          },
          {
            "astId": 4285,
            "contract": "contracts/BCGames.sol:BCGames",
            "label": "mapContract",
            "offset": 0,
            "slot": "6",
            "type": "t_address"
          },
          {
            "astId": 4287,
            "contract": "contracts/BCGames.sol:BCGames",
            "label": "mapId",
            "offset": 0,
            "slot": "7",
            "type": "t_uint256"
          },
          {
            "astId": 4289,
            "contract": "contracts/BCGames.sol:BCGames",
            "label": "eventPlayerId",
            "offset": 0,
            "slot": "8",
            "type": "t_uint256"
          },
          {
            "astId": 4291,
            "contract": "contracts/BCGames.sol:BCGames",
            "label": "eventNumber",
            "offset": 0,
            "slot": "9",
            "type": "t_uint256"
          },
          {
            "astId": 4293,
            "contract": "contracts/BCGames.sol:BCGames",
            "label": "eventIsTile",
            "offset": 0,
            "slot": "10",
            "type": "t_bool"
          },
          {
            "astId": 4296,
            "contract": "contracts/BCGames.sol:BCGames",
            "label": "eventPosition",
            "offset": 0,
            "slot": "11",
            "type": "t_struct(Position)4215_storage"
          }
        ],
        "numberOfBytes": "384"
      },
      "t_struct(Player)4191_storage": {
        "encoding": "inplace",
        "label": "struct BCTypes.Player",
        "members": [
          {
            "astId": 4163,
            "contract": "contracts/BCGames.sol:BCGames",
            "label": "owner",
            "offset": 0,
            "slot": "0",
            "type": "t_address"
          },
          {
            "astId": 4165,
            "contract": "contracts/BCGames.sol:BCGames",
            "label": "charContractAddress",
            "offset": 0,
            "slot": "1",
            "type": "t_address"
          },
          {
            "astId": 4167,
            "contract": "contracts/BCGames.sol:BCGames",
            "label": "characterId",
            "offset": 0,
            "slot": "2",
            "type": "t_uint256"
          },
          {
            "astId": 4170,
            "contract": "contracts/BCGames.sol:BCGames",
            "label": "position",
            "offset": 0,
            "slot": "3",
            "type": "t_struct(Position)4215_storage"
          },
          {
            "astId": 4172,
            "contract": "contracts/BCGames.sol:BCGames",
            "label": "healthDmgTaken",
            "offset": 0,
            "slot": "4",
            "type": "t_int8"
          },
          {
            "astId": 4174,
            "contract": "contracts/BCGames.sol:BCGames",
            "label": "armorDmgTaken",
            "offset": 1,
            "slot": "4",
            "type": "t_uint8"
          },
          {
            "astId": 4176,
            "contract": "contracts/BCGames.sol:BCGames",
            "label": "actionsTaken",
            "offset": 2,
            "slot": "4",
            "type": "t_uint8"
          },
          {
            "astId": 4178,
            "contract": "contracts/BCGames.sol:BCGames",
            "label": "dataTokens",
            "offset": 3,
            "slot": "4",
            "type": "t_uint8"
          },
          {
            "astId": 4181,
            "contract": "contracts/BCGames.sol:BCGames",
            "label": "currentEffects",
            "offset": 0,
            "slot": "5",
            "type": "t_array(t_uint8)dyn_storage"
          },
          {
            "astId": 4184,
            "contract": "contracts/BCGames.sol:BCGames",
            "label": "inventoryIDs",
            "offset": 0,
            "slot": "6",
            "type": "t_array(t_uint8)dyn_storage"
          },
          {
            "astId": 4186,
            "contract": "contracts/BCGames.sol:BCGames",
            "label": "canHarmOthers",
            "offset": 0,
            "slot": "7",
            "type": "t_bool"
          },
          {
            "astId": 4188,
            "contract": "contracts/BCGames.sol:BCGames",
            "label": "dead",
            "offset": 1,
            "slot": "7",
            "type": "t_bool"
          },
          {
            "astId": 4190,
            "contract": "contracts/BCGames.sol:BCGames",
            "label": "hasEgg",
            "offset": 2,
            "slot": "7",
            "type": "t_bool"
          }
        ],
        "numberOfBytes": "256"
      },
      "t_struct(Position)4215_storage": {
        "encoding": "inplace",
        "label": "struct BCTypes.Position",
        "members": [
          {
            "astId": 4212,
            "contract": "contracts/BCGames.sol:BCGames",
            "label": "row",
            "offset": 0,
            "slot": "0",
            "type": "t_uint8"
          },
          {
            "astId": 4214,
            "contract": "contracts/BCGames.sol:BCGames",
            "label": "col",
            "offset": 1,
            "slot": "0",
            "type": "t_uint8"
          }
        ],
        "numberOfBytes": "32"
      },
      "t_uint256": {
        "encoding": "inplace",
        "label": "uint256",
        "numberOfBytes": "32"
      },
      "t_uint8": {
        "encoding": "inplace",
        "label": "uint8",
        "numberOfBytes": "1"
      }
    }
  }
}