{
  "address": "0x8bdb5A628A5A3Cd4714114F4320746992E14f796",
  "abi": [
    {
      "anonymous": false,
      "inputs": [
        {
          "indexed": false,
          "internalType": "uint256",
          "name": "currentPlayerTurnIndex",
          "type": "uint256"
        },
        {
          "components": [
            {
              "internalType": "address",
              "name": "owner",
              "type": "address"
            },
            {
              "internalType": "address",
              "name": "charContractAddress",
              "type": "address"
            },
            {
              "internalType": "uint256",
              "name": "characterId",
              "type": "uint256"
            },
            {
              "components": [
                {
                  "internalType": "uint8",
                  "name": "row",
                  "type": "uint8"
                },
                {
                  "internalType": "uint8",
                  "name": "col",
                  "type": "uint8"
                }
              ],
              "internalType": "struct BCTypes.Position",
              "name": "position",
              "type": "tuple"
            },
            {
              "internalType": "uint8",
              "name": "healthDmgTaken",
              "type": "uint8"
            },
            {
              "internalType": "uint8",
              "name": "armorDmgTaken",
              "type": "uint8"
            },
            {
              "internalType": "uint8",
              "name": "actionsTaken",
              "type": "uint8"
            },
            {
              "internalType": "uint8",
              "name": "dataTokens",
              "type": "uint8"
            },
            {
              "internalType": "uint8[]",
              "name": "currentEffects",
              "type": "uint8[]"
            },
            {
              "internalType": "uint8[]",
              "name": "inventoryIDs",
              "type": "uint8[]"
            },
            {
              "internalType": "bool",
              "name": "canHarmOthers",
              "type": "bool"
            },
            {
              "internalType": "bool",
              "name": "dead",
              "type": "bool"
            }
          ],
          "indexed": false,
          "internalType": "struct BCTypes.Player",
          "name": "player",
          "type": "tuple"
        },
        {
          "indexed": false,
          "internalType": "enum BCTypes.Action",
          "name": "action",
          "type": "uint8"
        }
      ],
      "name": "ActionCompleteEvent",
      "type": "event"
    },
    {
      "anonymous": false,
      "inputs": [
        {
          "indexed": false,
          "internalType": "uint256",
          "name": "roll",
          "type": "uint256"
        },
        {
          "indexed": false,
          "internalType": "uint256",
          "name": "forValue",
          "type": "uint256"
        },
        {
          "indexed": false,
          "internalType": "uint256",
          "name": "against",
          "type": "uint256"
        }
      ],
      "name": "DiceRollEvent",
      "type": "event"
    },
    {
      "anonymous": false,
      "inputs": [
        {
          "indexed": true,
          "internalType": "address",
          "name": "previousOwner",
          "type": "address"
        },
        {
          "indexed": true,
          "internalType": "address",
          "name": "newOwner",
          "type": "address"
        }
      ],
      "name": "OwnershipTransferred",
      "type": "event"
    },
    {
      "inputs": [
        {
          "internalType": "address",
          "name": "_charContractAddress",
          "type": "address"
        },
        {
          "internalType": "uint256",
          "name": "_charId",
          "type": "uint256"
        },
        {
          "internalType": "address",
          "name": "_owner",
          "type": "address"
        }
      ],
      "name": "addPlayer",
      "outputs": [
        {
          "internalType": "uint256",
          "name": "",
          "type": "uint256"
        }
      ],
      "stateMutability": "nonpayable",
      "type": "function"
    },
    {
      "inputs": [],
      "name": "chars",
      "outputs": [
        {
          "internalType": "contract CharInterface",
          "name": "",
          "type": "address"
        }
      ],
      "stateMutability": "view",
      "type": "function"
    },
    {
      "inputs": [
        {
          "internalType": "uint256",
          "name": "_gameId",
          "type": "uint256"
        },
        {
          "internalType": "uint256",
          "name": "_playerId",
          "type": "uint256"
        },
        {
          "internalType": "enum BCTypes.Action",
          "name": "_action",
          "type": "uint8"
        },
        {
          "internalType": "enum BCTypes.Followthrough",
          "name": "_followthrough",
          "type": "uint8"
        },
        {
          "internalType": "uint256",
          "name": "_1stDirection",
          "type": "uint256"
        },
        {
          "internalType": "uint256",
          "name": "_2ndDirection",
          "type": "uint256"
        }
      ],
      "name": "doAction",
      "outputs": [],
      "stateMutability": "nonpayable",
      "type": "function"
    },
    {
      "inputs": [
        {
          "internalType": "uint256",
          "name": "_gameId",
          "type": "uint256"
        }
      ],
      "name": "extGetGamePlayerIndexes",
      "outputs": [
        {
          "internalType": "uint256[]",
          "name": "",
          "type": "uint256[]"
        }
      ],
      "stateMutability": "view",
      "type": "function"
    },
    {
      "inputs": [
        {
          "internalType": "uint256",
          "name": "",
          "type": "uint256"
        }
      ],
      "name": "games",
      "outputs": [
        {
          "internalType": "bool",
          "name": "active",
          "type": "bool"
        },
        {
          "internalType": "uint256",
          "name": "currentPlayerTurnIndex",
          "type": "uint256"
        },
        {
          "internalType": "uint256",
          "name": "numPlayers",
          "type": "uint256"
        },
        {
          "internalType": "uint256",
          "name": "turnsTaken",
          "type": "uint256"
        },
        {
          "components": [
            {
              "internalType": "uint8",
              "name": "bugEvents",
              "type": "uint8"
            },
            {
              "internalType": "uint8",
              "name": "mysteryEvents",
              "type": "uint8"
            },
            {
              "internalType": "uint8",
              "name": "scavEvents",
              "type": "uint8"
            },
            {
              "internalType": "uint8",
              "name": "shipEvents",
              "type": "uint8"
            }
          ],
          "internalType": "struct BCTypes.EventTracker",
          "name": "eventTracker",
          "type": "tuple"
        },
        {
          "internalType": "address",
          "name": "mapContract",
          "type": "address"
        },
        {
          "internalType": "uint256",
          "name": "mapId",
          "type": "uint256"
        }
      ],
      "stateMutability": "view",
      "type": "function"
    },
    {
      "inputs": [],
      "name": "lobbiesAddress",
      "outputs": [
        {
          "internalType": "address",
          "name": "",
          "type": "address"
        }
      ],
      "stateMutability": "view",
      "type": "function"
    },
    {
      "inputs": [],
      "name": "maps",
      "outputs": [
        {
          "internalType": "contract MapInterface",
          "name": "",
          "type": "address"
        }
      ],
      "stateMutability": "view",
      "type": "function"
    },
    {
      "inputs": [],
      "name": "owner",
      "outputs": [
        {
          "internalType": "address",
          "name": "",
          "type": "address"
        }
      ],
      "stateMutability": "view",
      "type": "function"
    },
    {
      "inputs": [
        {
          "internalType": "uint256",
          "name": "",
          "type": "uint256"
        }
      ],
      "name": "players",
      "outputs": [
        {
          "internalType": "address",
          "name": "owner",
          "type": "address"
        },
        {
          "internalType": "address",
          "name": "charContractAddress",
          "type": "address"
        },
        {
          "internalType": "uint256",
          "name": "characterId",
          "type": "uint256"
        },
        {
          "components": [
            {
              "internalType": "uint8",
              "name": "row",
              "type": "uint8"
            },
            {
              "internalType": "uint8",
              "name": "col",
              "type": "uint8"
            }
          ],
          "internalType": "struct BCTypes.Position",
          "name": "position",
          "type": "tuple"
        },
        {
          "internalType": "uint8",
          "name": "healthDmgTaken",
          "type": "uint8"
        },
        {
          "internalType": "uint8",
          "name": "armorDmgTaken",
          "type": "uint8"
        },
        {
          "internalType": "uint8",
          "name": "actionsTaken",
          "type": "uint8"
        },
        {
          "internalType": "uint8",
          "name": "dataTokens",
          "type": "uint8"
        },
        {
          "internalType": "bool",
          "name": "canHarmOthers",
          "type": "bool"
        },
        {
          "internalType": "bool",
          "name": "dead",
          "type": "bool"
        }
      ],
      "stateMutability": "view",
      "type": "function"
    },
    {
      "inputs": [],
      "name": "renounceOwnership",
      "outputs": [],
      "stateMutability": "nonpayable",
      "type": "function"
    },
    {
      "inputs": [],
      "name": "roomTiles",
      "outputs": [
        {
          "internalType": "contract RoomTileInterface",
          "name": "",
          "type": "address"
        }
      ],
      "stateMutability": "view",
      "type": "function"
    },
    {
      "inputs": [
        {
          "internalType": "address",
          "name": "_roomTileAddress",
          "type": "address"
        },
        {
          "internalType": "address",
          "name": "_charAddress",
          "type": "address"
        },
        {
          "internalType": "address",
          "name": "_utilsAddress",
          "type": "address"
        },
        {
          "internalType": "address",
          "name": "_mapsAddress",
          "type": "address"
        },
        {
          "internalType": "address",
          "name": "_lobbiesAddress",
          "type": "address"
        }
      ],
      "name": "setContractAddresses",
      "outputs": [],
      "stateMutability": "nonpayable",
      "type": "function"
    },
    {
      "inputs": [
        {
          "internalType": "uint256[]",
          "name": "_playerIndexes",
          "type": "uint256[]"
        },
        {
          "internalType": "uint256",
          "name": "_numPlayers",
          "type": "uint256"
        }
      ],
      "name": "startGame",
      "outputs": [],
      "stateMutability": "nonpayable",
      "type": "function"
    },
    {
      "inputs": [],
      "name": "transferFundsOut",
      "outputs": [],
      "stateMutability": "nonpayable",
      "type": "function"
    },
    {
      "inputs": [
        {
          "internalType": "address",
          "name": "newOwner",
          "type": "address"
        }
      ],
      "name": "transferOwnership",
      "outputs": [],
      "stateMutability": "nonpayable",
      "type": "function"
    },
    {
      "inputs": [],
      "name": "utils",
      "outputs": [
        {
          "internalType": "contract UtilsInterface",
          "name": "",
          "type": "address"
        }
      ],
      "stateMutability": "view",
      "type": "function"
    }
  ],
  "transactionHash": "0xb4d27496cb62511fb957fa333ba77a85706ae44c8e1be00c5bd7240ee7ebb103",
  "args": [],
  "numDeployments": 7,
  "solcInputHash": "82eb4098c55fa96ce65d2f0d49fefab4",
  "bytecode": "0x60806040523480156200001157600080fd5b5062000032620000266200003860201b60201c565b6200004060201b60201c565b62000104565b600033905090565b60008060009054906101000a900473ffffffffffffffffffffffffffffffffffffffff169050816000806101000a81548173ffffffffffffffffffffffffffffffffffffffff021916908373ffffffffffffffffffffffffffffffffffffffff1602179055508173ffffffffffffffffffffffffffffffffffffffff168173ffffffffffffffffffffffffffffffffffffffff167f8be0079c531659141344cd1fd0a4f28419497f9722a3daafe3b4186f6b6457e060405160405180910390a35050565b61492b80620001146000396000f3fe608060405234801561001057600080fd5b50600436106101005760003560e01c806368030c7211610097578063f069869911610066578063f06986991461027d578063f2fde38b14610299578063f7157f64146102b5578063f71d96cb146102d357610100565b806368030c721461021d578063715018a6146102395780638da5cb5b14610243578063e847ae1e1461026157610100565b80633838aed1116100d35780633838aed1146101a75780633deaec2b146101b157806340d4fd78146101cf5780635a29638d146101ff57610100565b806308178b3c1461010557806310a2cd0d14610135578063117a5b9014610153578063336d7d7b14610189575b600080fd5b61011f600480360381019061011a91906123c9565b61030c565b60405161012c919061242b565b60405180910390f35b61013d61046d565b60405161014a91906124a5565b60405180910390f35b61016d600480360381019061016891906124c0565b610493565b6040516101809796959493929190612588565b60405180910390f35b610191610590565b60405161019e91906125fa565b60405180910390f35b6101af6105b6565b005b6101b961060e565b6040516101c69190612636565b60405180910390f35b6101e960048036038101906101e491906124c0565b610634565b6040516101f6919061270f565b60405180910390f35b610207610735565b6040516102149190612752565b60405180910390f35b610237600480360381019061023291906128c6565b61075b565b005b610241610a83565b005b61024b610a97565b60405161025891906125fa565b60405180910390f35b61027b60048036038101906102769190612922565b610ac0565b005b610297600480360381019061029291906129e7565b610c14565b005b6102b360048036038101906102ae9190612a74565b611cc4565b005b6102bd611d48565b6040516102ca9190612ac2565b60405180910390f35b6102ed60048036038101906102e891906124c0565b611d6e565b6040516103039a99989796959493929190612b1b565b60405180910390f35b6000600560009054906101000a900473ffffffffffffffffffffffffffffffffffffffff1673ffffffffffffffffffffffffffffffffffffffff163373ffffffffffffffffffffffffffffffffffffffff161461039e576040517f08c379a000000000000000000000000000000000000000000000000000000000815260040161039590612c15565b60405180910390fd5b600060066001816001815401808255809150500390600052602060002090600802019050848160010160006101000a81548173ffffffffffffffffffffffffffffffffffffffff021916908373ffffffffffffffffffffffffffffffffffffffff160217905550828160000160006101000a81548173ffffffffffffffffffffffffffffffffffffffff021916908373ffffffffffffffffffffffffffffffffffffffff16021790555083816002018190555060016006805490506104639190612c64565b9150509392505050565b600260009054906101000a900473ffffffffffffffffffffffffffffffffffffffff1681565b600781815481106104a357600080fd5b90600052602060002090600802016000915090508060000160009054906101000a900460ff1690806002015490806003015490806004015490806005016040518060800160405290816000820160009054906101000a900460ff1660ff1660ff1681526020016000820160019054906101000a900460ff1660ff1660ff1681526020016000820160029054906101000a900460ff1660ff1660ff1681526020016000820160039054906101000a900460ff1660ff1660ff1681525050908060060160009054906101000a900473ffffffffffffffffffffffffffffffffffffffff16908060070154905087565b600560009054906101000a900473ffffffffffffffffffffffffffffffffffffffff1681565b6105be611ea4565b6105c6610a97565b73ffffffffffffffffffffffffffffffffffffffff166108fc479081150290604051600060405180830381858888f1935050505015801561060b573d6000803e3d6000fd5b50565b600460009054906101000a900473ffffffffffffffffffffffffffffffffffffffff1681565b606060006007838154811061064c5761064b612c98565b5b90600052602060002090600802016001018054905067ffffffffffffffff81111561067a57610679612783565b5b6040519080825280602002602001820160405280156106a85781602001602082028036833780820191505090505b50905060005b815181101561072b57600784815481106106cb576106ca612c98565b5b906000526020600020906008020160010181815481106106ee576106ed612c98565b5b906000526020600020015482828151811061070c5761070b612c98565b5b602002602001018181525050808061072390612cc7565b9150506106ae565b5080915050919050565b600360009054906101000a900473ffffffffffffffffffffffffffffffffffffffff1681565b600560009054906101000a900473ffffffffffffffffffffffffffffffffffffffff1673ffffffffffffffffffffffffffffffffffffffff163373ffffffffffffffffffffffffffffffffffffffff16146107eb576040517f08c379a00000000000000000000000000000000000000000000000000000000081526004016107e290612c15565b60405180910390fd5b60006007600181600181540180825580915050039060005260206000209060080201905060018160000160006101000a81548160ff021916908315150217905550600081600401819055508281600101908051906020019061084e9291906122b7565b508181600301819055506040518060800160405280600060ff168152602001600060ff168152602001600060ff168152602001600060ff168152508160050160008201518160000160006101000a81548160ff021916908360ff16021790555060208201518160000160016101000a81548160ff021916908360ff16021790555060408201518160000160026101000a81548160ff021916908360ff16021790555060608201518160000160036101000a81548160ff021916908360ff160217905550905050600460009054906101000a900473ffffffffffffffffffffffffffffffffffffffff168160060160006101000a81548173ffffffffffffffffffffffffffffffffffffffff021916908373ffffffffffffffffffffffffffffffffffffffff160217905550600460009054906101000a900473ffffffffffffffffffffffffffffffffffffffff1673ffffffffffffffffffffffffffffffffffffffff1663f01fc35a6040518163ffffffff1660e01b81526004016020604051808303816000875af11580156109e8573d6000803e3d6000fd5b505050506040513d601f19601f82011682018060405250810190610a0c9190612d25565b816007018190555060005b82811015610a7d57610a6a82600701546040518060400160405280600860ff168152602001600560ff16815250846001018481548110610a5a57610a59612c98565b5b9060005260206000200154611f22565b8080610a7590612cc7565b915050610a17565b50505050565b610a8b611ea4565b610a95600061203d565b565b60008060009054906101000a900473ffffffffffffffffffffffffffffffffffffffff16905090565b610ac8611ea4565b84600160006101000a81548173ffffffffffffffffffffffffffffffffffffffff021916908373ffffffffffffffffffffffffffffffffffffffff16021790555083600260006101000a81548173ffffffffffffffffffffffffffffffffffffffff021916908373ffffffffffffffffffffffffffffffffffffffff16021790555082600360006101000a81548173ffffffffffffffffffffffffffffffffffffffff021916908373ffffffffffffffffffffffffffffffffffffffff16021790555081600460006101000a81548173ffffffffffffffffffffffffffffffffffffffff021916908373ffffffffffffffffffffffffffffffffffffffff16021790555080600560006101000a81548173ffffffffffffffffffffffffffffffffffffffff021916908373ffffffffffffffffffffffffffffffffffffffff1602179055505050505050565b600060068681548110610c2a57610c29612c98565b5b90600052602060002090600802019050600060078881548110610c5057610c4f612c98565b5b906000526020600020906008020190506000600260009054906101000a900473ffffffffffffffffffffffffffffffffffffffff1673ffffffffffffffffffffffffffffffffffffffff16634810bc5984600201546040518263ffffffff1660e01b8152600401610cc1919061242b565b6101c060405180830381865afa158015610cdf573d6000803e3d6000fd5b505050506040513d601f19601f82011682018060405250810190610d039190612f69565b90508260000160009054906101000a900473ffffffffffffffffffffffffffffffffffffffff1673ffffffffffffffffffffffffffffffffffffffff163373ffffffffffffffffffffffffffffffffffffffff1614610d97576040517f08c379a0000000000000000000000000000000000000000000000000000000008152600401610d8e90612fe3565b60405180910390fd5b60038360040160029054906101000a900460ff1660ff1610610dee576040517f08c379a0000000000000000000000000000000000000000000000000000000008152600401610de59061304f565b60405180910390fd5b81600101826002015481548110610e0857610e07612c98565b5b90600052602060002001548814610e54576040517f08c379a0000000000000000000000000000000000000000000000000000000008152600401610e4b906130bb565b60405180910390fd5b600380811115610e6757610e666130db565b5b876003811115610e7a57610e796130db565b5b1415610e8557611baf565b60026003811115610e9957610e986130db565b5b876003811115610eac57610eab6130db565b5b1415611509576000600460009054906101000a900473ffffffffffffffffffffffffffffffffffffffff1673ffffffffffffffffffffffffffffffffffffffff16636ea1dcd884600701548660030160000160009054906101000a900460ff168760030160000160019054906101000a900460ff168a6040518563ffffffff1660e01b8152600401610f41949392919061313b565b606060405180830381865afa158015610f5e573d6000803e3d6000fd5b505050506040513d601f19601f82011682018060405250810190610f829190613209565b905060026004811115610f9857610f976130db565b5b81604001516004811115610faf57610fae6130db565b5b1480610fe3575060036004811115610fca57610fc96130db565b5b81604001516004811115610fe157610fe06130db565b5b145b80610ff557506000816020015160ff16145b611034576040517f08c379a000000000000000000000000000000000000000000000000000000000815260040161102b906132a8565b60405180910390fd5b60036004811115611048576110476130db565b5b8160400151600481111561105f5761105e6130db565b5b1461112757600460009054906101000a900473ffffffffffffffffffffffffffffffffffffffff1673ffffffffffffffffffffffffffffffffffffffff1663b6cdd3b484600701548660030160000160009054906101000a900460ff168760030160000160019054906101000a900460ff168a60026040518663ffffffff1660e01b81526004016110f4959493929190613310565b600060405180830381600087803b15801561110e57600080fd5b505af1158015611122573d6000803e3d6000fd5b505050505b6000600360009054906101000a900473ffffffffffffffffffffffffffffffffffffffff1673ffffffffffffffffffffffffffffffffffffffff1663951fc3fe88876003016040518363ffffffff1660e01b81526004016111899291906133fe565b6040805180830381865afa1580156111a5573d6000803e3d6000fd5b505050506040513d601f19601f820116820180604052508101906111c99190613477565b90506001808111156111de576111dd6130db565b5b8860018111156111f1576111f06130db565b5b14156114f3576000600360009054906101000a900473ffffffffffffffffffffffffffffffffffffffff1673ffffffffffffffffffffffffffffffffffffffff1663951fc3fe89846040518363ffffffff1660e01b81526004016112569291906134a4565b6040805180830381865afa158015611272573d6000803e3d6000fd5b505050506040513d601f19601f820116820180604052508101906112969190613477565b90506000600460009054906101000a900473ffffffffffffffffffffffffffffffffffffffff1673ffffffffffffffffffffffffffffffffffffffff16636ea1dcd88760070154846000015185602001518c6040518563ffffffff1660e01b8152600401611307949392919061313b565b606060405180830381865afa158015611324573d6000803e3d6000fd5b505050506040513d601f19601f820116820180604052508101906113489190613209565b90506002600481111561135e5761135d6130db565b5b81604001516004811115611375576113746130db565b5b14806113a95750600360048111156113905761138f6130db565b5b816040015160048111156113a7576113a66130db565b5b145b806113bb57506000816020015160ff16145b6113fa576040517f08c379a00000000000000000000000000000000000000000000000000000000081526004016113f19061353f565b60405180910390fd5b81925060036004811115611411576114106130db565b5b81604001516004811115611428576114276130db565b5b146114f057600460009054906101000a900473ffffffffffffffffffffffffffffffffffffffff1673ffffffffffffffffffffffffffffffffffffffff1663b6cdd3b487600701548960030160000160009054906101000a900460ff168a60030160000160019054906101000a900460ff168c60026040518663ffffffff1660e01b81526004016114bd959493929190613310565b600060405180830381600087803b1580156114d757600080fd5b505af11580156114eb573d6000803e3d6000fd5b505050505b50505b6115028460070154828c611f22565b5050611bae565b6000600381111561151d5761151c6130db565b5b8760038111156115305761152f6130db565b5b141561183d576000600460009054906101000a900473ffffffffffffffffffffffffffffffffffffffff1673ffffffffffffffffffffffffffffffffffffffff16636ea1dcd884600701548660030160000160009054906101000a900460ff168760030160000160019054906101000a900460ff168a6040518563ffffffff1660e01b81526004016115c5949392919061313b565b606060405180830381865afa1580156115e2573d6000803e3d6000fd5b505050506040513d601f19601f820116820180604052508101906116069190613209565b90506001600481111561161c5761161b6130db565b5b81604001516004811115611633576116326130db565b5b14611673576040517f08c379a000000000000000000000000000000000000000000000000000000000815260040161166a906135ab565b60405180910390fd5b61168f82602001516060015160ff16826020015160ff16612101565b1561183657600460009054906101000a900473ffffffffffffffffffffffffffffffffffffffff1673ffffffffffffffffffffffffffffffffffffffff1663b6cdd3b484600701548660030160000160009054906101000a900460ff168760030160000160019054906101000a900460ff168a60026040518663ffffffff1660e01b8152600401611724959493929190613310565b600060405180830381600087803b15801561173e57600080fd5b505af1158015611752573d6000803e3d6000fd5b50505050600180811115611769576117686130db565b5b87600181111561177c5761177b6130db565b5b1415611831576118308360070154600360009054906101000a900473ffffffffffffffffffffffffffffffffffffffff1673ffffffffffffffffffffffffffffffffffffffff1663951fc3fe89886003016040518363ffffffff1660e01b81526004016117ea9291906133fe565b6040805180830381865afa158015611806573d6000803e3d6000fd5b505050506040513d601f19601f8201168201806040525081019061182a9190613477565b8b611f22565b5b611837565b5b50611bad565b60016003811115611851576118506130db565b5b876003811115611864576118636130db565b5b1415611b71576000600460009054906101000a900473ffffffffffffffffffffffffffffffffffffffff1673ffffffffffffffffffffffffffffffffffffffff16636ea1dcd884600701548660030160000160009054906101000a900460ff168760030160000160019054906101000a900460ff168a6040518563ffffffff1660e01b81526004016118f9949392919061313b565b606060405180830381865afa158015611916573d6000803e3d6000fd5b505050506040513d601f19601f8201168201806040525081019061193a9190613209565b9050600160048111156119505761194f6130db565b5b81604001516004811115611967576119666130db565b5b146119a7576040517f08c379a000000000000000000000000000000000000000000000000000000000815260040161199e906135ab565b60405180910390fd5b6119c382602001516080015160ff16826000015160ff16612101565b15611b6a57600460009054906101000a900473ffffffffffffffffffffffffffffffffffffffff1673ffffffffffffffffffffffffffffffffffffffff1663b6cdd3b484600701548660030160000160009054906101000a900460ff168760030160000160019054906101000a900460ff168a60036040518663ffffffff1660e01b8152600401611a58959493929190613310565b600060405180830381600087803b158015611a7257600080fd5b505af1158015611a86573d6000803e3d6000fd5b50505050600180811115611a9d57611a9c6130db565b5b876001811115611ab057611aaf6130db565b5b1415611b6557611b648360070154600360009054906101000a900473ffffffffffffffffffffffffffffffffffffffff1673ffffffffffffffffffffffffffffffffffffffff1663951fc3fe89886003016040518363ffffffff1660e01b8152600401611b1e9291906133fe565b6040805180830381865afa158015611b3a573d6000803e3d6000fd5b505050506040513d601f19601f82011682018060405250810190611b5e9190613477565b8b611f22565b5b611b6b565b5b50611bac565b6040517f08c379a0000000000000000000000000000000000000000000000000000000008152600401611ba390613617565b60405180910390fd5b5b5b5b82600401600281819054906101000a900460ff1680929190611bd090613637565b91906101000a81548160ff021916908360ff1602179055505060038360040160029054906101000a900460ff1660ff1610611c7a5760008360040160026101000a81548160ff021916908360ff16021790555060018260010180549050611c379190612c64565b82600201541015611c6157816002016000815480929190611c5790612cc7565b9190505550611c79565b611c6e826007015461221f565b600082600201819055505b5b7f81f0468752500ded70032fadd8011a832ccdbaddfc2cae78738f1a5f78e5f49082600201548489604051611cb1939291906145fd565b60405180910390a1505050505050505050565b611ccc611ea4565b600073ffffffffffffffffffffffffffffffffffffffff168173ffffffffffffffffffffffffffffffffffffffff161415611d3c576040517f08c379a0000000000000000000000000000000000000000000000000000000008152600401611d33906146ad565b60405180910390fd5b611d458161203d565b50565b600160009054906101000a900473ffffffffffffffffffffffffffffffffffffffff1681565b60068181548110611d7e57600080fd5b90600052602060002090600802016000915090508060000160009054906101000a900473ffffffffffffffffffffffffffffffffffffffff16908060010160009054906101000a900473ffffffffffffffffffffffffffffffffffffffff1690806002015490806003016040518060400160405290816000820160009054906101000a900460ff1660ff1660ff1681526020016000820160019054906101000a900460ff1660ff1660ff1681525050908060040160009054906101000a900460ff16908060040160019054906101000a900460ff16908060040160029054906101000a900460ff16908060040160039054906101000a900460ff16908060070160009054906101000a900460ff16908060070160019054906101000a900460ff1690508a565b611eac6122af565b73ffffffffffffffffffffffffffffffffffffffff16611eca610a97565b73ffffffffffffffffffffffffffffffffffffffff1614611f20576040517f08c379a0000000000000000000000000000000000000000000000000000000008152600401611f1790614719565b60405180910390fd5b565b8160068281548110611f3757611f36612c98565b5b906000526020600020906008020160030160008201518160000160006101000a81548160ff021916908360ff16021790555060208201518160000160016101000a81548160ff021916908360ff160217905550905050600460009054906101000a900473ffffffffffffffffffffffffffffffffffffffff1673ffffffffffffffffffffffffffffffffffffffff1663471b675984846000015185602001516040518463ffffffff1660e01b8152600401611ff493929190614739565b6020604051808303816000875af1158015612013573d6000803e3d6000fd5b505050506040513d601f19601f820116820180604052508101906120379190614770565b50505050565b60008060009054906101000a900473ffffffffffffffffffffffffffffffffffffffff169050816000806101000a81548173ffffffffffffffffffffffffffffffffffffffff021916908373ffffffffffffffffffffffffffffffffffffffff1602179055508173ffffffffffffffffffffffffffffffffffffffff168173ffffffffffffffffffffffffffffffffffffffff167f8be0079c531659141344cd1fd0a4f28419497f9722a3daafe3b4186f6b6457e060405160405180910390a35050565b600080600360009054906101000a900473ffffffffffffffffffffffffffffffffffffffff1673ffffffffffffffffffffffffffffffffffffffff1663cd5e3c5d6040518163ffffffff1660e01b81526004016020604051808303816000875af1158015612173573d6000803e3d6000fd5b505050506040513d601f19601f82011682018060405250810190612197919061479d565b60ff1690507f2729adc6efc811c2141edf691ce91423fbcd06f2d8fe8be0a13b24e47d1050c48185856040516121cf939291906147ca565b60405180910390a160018114156121ea576000915050612219565b60038385836121f99190614801565b6122039190614861565b1315612213576001915050612219565b60009150505b92915050565b600460009054906101000a900473ffffffffffffffffffffffffffffffffffffffff1673ffffffffffffffffffffffffffffffffffffffff166358308aa8826040518263ffffffff1660e01b815260040161227a919061242b565b600060405180830381600087803b15801561229457600080fd5b505af11580156122a8573d6000803e3d6000fd5b5050505050565b600033905090565b8280548282559060005260206000209081019282156122f3579160200282015b828111156122f25782518255916020019190600101906122d7565b5b5090506123009190612304565b5090565b5b8082111561231d576000816000905550600101612305565b5090565b6000604051905090565b600080fd5b600080fd5b600073ffffffffffffffffffffffffffffffffffffffff82169050919050565b600061236082612335565b9050919050565b61237081612355565b811461237b57600080fd5b50565b60008135905061238d81612367565b92915050565b6000819050919050565b6123a681612393565b81146123b157600080fd5b50565b6000813590506123c38161239d565b92915050565b6000806000606084860312156123e2576123e161232b565b5b60006123f08682870161237e565b9350506020612401868287016123b4565b92505060406124128682870161237e565b9150509250925092565b61242581612393565b82525050565b6000602082019050612440600083018461241c565b92915050565b6000819050919050565b600061246b61246661246184612335565b612446565b612335565b9050919050565b600061247d82612450565b9050919050565b600061248f82612472565b9050919050565b61249f81612484565b82525050565b60006020820190506124ba6000830184612496565b92915050565b6000602082840312156124d6576124d561232b565b5b60006124e4848285016123b4565b91505092915050565b60008115159050919050565b612502816124ed565b82525050565b600060ff82169050919050565b61251e81612508565b82525050565b60808201600082015161253a6000850182612515565b50602082015161254d6020850182612515565b5060408201516125606040850182612515565b5060608201516125736060850182612515565b50505050565b61258281612355565b82525050565b60006101408201905061259e600083018a6124f9565b6125ab602083018961241c565b6125b8604083018861241c565b6125c5606083018761241c565b6125d26080830186612524565b6125e0610100830185612579565b6125ee61012083018461241c565b98975050505050505050565b600060208201905061260f6000830184612579565b92915050565b600061262082612472565b9050919050565b61263081612615565b82525050565b600060208201905061264b6000830184612627565b92915050565b600081519050919050565b600082825260208201905092915050565b6000819050602082019050919050565b61268681612393565b82525050565b6000612698838361267d565b60208301905092915050565b6000602082019050919050565b60006126bc82612651565b6126c6818561265c565b93506126d18361266d565b8060005b838110156127025781516126e9888261268c565b97506126f4836126a4565b9250506001810190506126d5565b5085935050505092915050565b6000602082019050818103600083015261272981846126b1565b905092915050565b600061273c82612472565b9050919050565b61274c81612731565b82525050565b60006020820190506127676000830184612743565b92915050565b600080fd5b6000601f19601f8301169050919050565b7f4e487b7100000000000000000000000000000000000000000000000000000000600052604160045260246000fd5b6127bb82612772565b810181811067ffffffffffffffff821117156127da576127d9612783565b5b80604052505050565b60006127ed612321565b90506127f982826127b2565b919050565b600067ffffffffffffffff82111561281957612818612783565b5b602082029050602081019050919050565b600080fd5b600061284261283d846127fe565b6127e3565b905080838252602082019050602084028301858111156128655761286461282a565b5b835b8181101561288e578061287a88826123b4565b845260208401935050602081019050612867565b5050509392505050565b600082601f8301126128ad576128ac61276d565b5b81356128bd84826020860161282f565b91505092915050565b600080604083850312156128dd576128dc61232b565b5b600083013567ffffffffffffffff8111156128fb576128fa612330565b5b61290785828601612898565b9250506020612918858286016123b4565b9150509250929050565b600080600080600060a0868803121561293e5761293d61232b565b5b600061294c8882890161237e565b955050602061295d8882890161237e565b945050604061296e8882890161237e565b935050606061297f8882890161237e565b92505060806129908882890161237e565b9150509295509295909350565b600481106129aa57600080fd5b50565b6000813590506129bc8161299d565b92915050565b600281106129cf57600080fd5b50565b6000813590506129e1816129c2565b92915050565b60008060008060008060c08789031215612a0457612a0361232b565b5b6000612a1289828a016123b4565b9650506020612a2389828a016123b4565b9550506040612a3489828a016129ad565b9450506060612a4589828a016129d2565b9350506080612a5689828a016123b4565b92505060a0612a6789828a016123b4565b9150509295509295509295565b600060208284031215612a8a57612a8961232b565b5b6000612a988482850161237e565b91505092915050565b6000612aac82612472565b9050919050565b612abc81612aa1565b82525050565b6000602082019050612ad76000830184612ab3565b92915050565b604082016000820151612af36000850182612515565b506020820151612b066020850182612515565b50505050565b612b1581612508565b82525050565b600061016082019050612b31600083018d612579565b612b3e602083018c612579565b612b4b604083018b61241c565b612b58606083018a612add565b612b6560a0830189612b0c565b612b7260c0830188612b0c565b612b7f60e0830187612b0c565b612b8d610100830186612b0c565b612b9b6101208301856124f9565b612ba96101408301846124f9565b9b9a5050505050505050505050565b600082825260208201905092915050565b7f4e6f74206c6f62627920636f6e74726163740000000000000000000000000000600082015250565b6000612bff601283612bb8565b9150612c0a82612bc9565b602082019050919050565b60006020820190508181036000830152612c2e81612bf2565b9050919050565b7f4e487b7100000000000000000000000000000000000000000000000000000000600052601160045260246000fd5b6000612c6f82612393565b9150612c7a83612393565b925082821015612c8d57612c8c612c35565b5b828203905092915050565b7f4e487b7100000000000000000000000000000000000000000000000000000000600052603260045260246000fd5b6000612cd282612393565b91507fffffffffffffffffffffffffffffffffffffffffffffffffffffffffffffffff821415612d0557612d04612c35565b5b600182019050919050565b600081519050612d1f8161239d565b92915050565b600060208284031215612d3b57612d3a61232b565b5b6000612d4984828501612d10565b91505092915050565b600080fd5b6000819050919050565b612d6a81612d57565b8114612d7557600080fd5b50565b600081519050612d8781612d61565b92915050565b612d9681612508565b8114612da157600080fd5b50565b600081519050612db381612d8d565b92915050565b600060e08284031215612dcf57612dce612d52565b5b612dd960e06127e3565b90506000612de984828501612da4565b6000830152506020612dfd84828501612da4565b6020830152506040612e1184828501612da4565b6040830152506060612e2584828501612da4565b6060830152506080612e3984828501612da4565b60808301525060a0612e4d84828501612da4565b60a08301525060c0612e6184828501612da4565b60c08301525092915050565b612e76816124ed565b8114612e8157600080fd5b50565b600081519050612e9381612e6d565b92915050565b60006101c08284031215612eb057612eaf612d52565b5b612ebb6101006127e3565b90506000612ecb84828501612d78565b6000830152506020612edf84828501612db9565b602083015250610100612ef484828501612da4565b604083015250610120612f0984828501612da4565b606083015250610140612f1e84828501612da4565b608083015250610160612f3384828501612da4565b60a083015250610180612f4884828501612e84565b60c0830152506101a0612f5d84828501612e84565b60e08301525092915050565b60006101c08284031215612f8057612f7f61232b565b5b6000612f8e84828501612e99565b91505092915050565b7f53656e646572206e6f7420706c61796572206f776e6572000000000000000000600082015250565b6000612fcd601783612bb8565b9150612fd882612f97565b602082019050919050565b60006020820190508181036000830152612ffc81612fc0565b9050919050565b7f4e6f20616374696f6e73206c6566740000000000000000000000000000000000600082015250565b6000613039600f83612bb8565b915061304482613003565b602082019050919050565b600060208201905081810360008301526130688161302c565b9050919050565b7f4e6f7420796f7572207475726e00000000000000000000000000000000000000600082015250565b60006130a5600d83612bb8565b91506130b08261306f565b602082019050919050565b600060208201905081810360008301526130d481613098565b9050919050565b7f4e487b7100000000000000000000000000000000000000000000000000000000600052602160045260246000fd5b600061312561312061311b84612508565b612446565b612393565b9050919050565b6131358161310a565b82525050565b6000608082019050613150600083018761241c565b61315d602083018661312c565b61316a604083018561312c565b613177606083018461241c565b95945050505050565b6005811061318d57600080fd5b50565b60008151905061319f81613180565b92915050565b6000606082840312156131bb576131ba612d52565b5b6131c560606127e3565b905060006131d584828501612da4565b60008301525060206131e984828501612da4565b60208301525060406131fd84828501613190565b60408301525092915050565b60006060828403121561321f5761321e61232b565b5b600061322d848285016131a5565b91505092915050565b7f31737420446f6f72206e6f74206f70656e2f62726561636865642f756e6c6f6360008201527f6b65640000000000000000000000000000000000000000000000000000000000602082015250565b6000613292602383612bb8565b915061329d82613236565b604082019050919050565b600060208201905081810360008301526132c181613285565b9050919050565b600581106132d9576132d86130db565b5b50565b60008190506132ea826132c8565b919050565b60006132fa826132dc565b9050919050565b61330a816132ef565b82525050565b600060a082019050613325600083018861241c565b613332602083018761312c565b61333f604083018661312c565b61334c606083018561241c565b6133596080830184613301565b9695505050505050565b60008160001c9050919050565b600060ff82169050919050565b600061339061338b83613363565b613370565b9050919050565b60008160081c9050919050565b60006133b76133b283613397565b613370565b9050919050565b6040820160008083015490506133d38161337d565b6133e06000860182612515565b506133ea816133a4565b6133f76020860182612515565b5050505050565b6000606082019050613413600083018561241c565b61342060208301846133be565b9392505050565b60006040828403121561343d5761343c612d52565b5b61344760406127e3565b9050600061345784828501612da4565b600083015250602061346b84828501612da4565b60208301525092915050565b60006040828403121561348d5761348c61232b565b5b600061349b84828501613427565b91505092915050565b60006060820190506134b9600083018561241c565b6134c66020830184612add565b9392505050565b7f326e6420446f6f72206e6f74206f70656e2f62726561636865642f756e6c6f6360008201527f6b65640000000000000000000000000000000000000000000000000000000000602082015250565b6000613529602383612bb8565b9150613534826134cd565b604082019050919050565b600060208201905081810360008301526135588161351c565b9050919050565b7f446f6f72206e6f7420636c6f7365640000000000000000000000000000000000600082015250565b6000613595600f83612bb8565b91506135a08261355f565b602082019050919050565b600060208201905081810360008301526135c481613588565b9050919050565b7f4552524f523a2042616420616374696f6e20636f6e6669670000000000000000600082015250565b6000613601601883612bb8565b915061360c826135cb565b602082019050919050565b60006020820190508181036000830152613630816135f4565b9050919050565b600061364282612508565b915060ff82141561365657613655612c35565b5b600182019050919050565b600073ffffffffffffffffffffffffffffffffffffffff82169050919050565b600061369461368f83613363565b613661565b9050919050565b6136a481612355565b82525050565b6000819050919050565b60006136c76136c283613363565b6136aa565b9050919050565b6040820160008083015490506136e38161337d565b6136f06000860182612515565b506136fa816133a4565b6137076020860182612515565b5050505050565b60008160101c9050919050565b600061372e6137298361370e565b613370565b9050919050565b60008160181c9050919050565b600061375561375083613735565b613370565b9050919050565b600081549050919050565b600082825260208201905092915050565b60008190508160005260206000209050919050565b60008160201c9050919050565b60006137ad6137a88361378d565b613370565b9050919050565b60008160281c9050919050565b60006137d46137cf836137b4565b613370565b9050919050565b60008160301c9050919050565b60006137fb6137f6836137db565b613370565b9050919050565b60008160381c9050919050565b600061382261381d83613802565b613370565b9050919050565b60008160401c9050919050565b600061384961384483613829565b613370565b9050919050565b60008160481c9050919050565b600061387061386b83613850565b613370565b9050919050565b60008160501c9050919050565b600061389761389283613877565b613370565b9050919050565b60008160581c9050919050565b60006138be6138b98361389e565b613370565b9050919050565b60008160601c9050919050565b60006138e56138e0836138c5565b613370565b9050919050565b60008160681c9050919050565b600061390c613907836138ec565b613370565b9050919050565b60008160701c9050919050565b600061393361392e83613913565b613370565b9050919050565b60008160781c9050919050565b600061395a6139558361393a565b613370565b9050919050565b60008160801c9050919050565b600061398161397c83613961565b613370565b9050919050565b60008160881c9050919050565b60006139a86139a383613988565b613370565b9050919050565b60008160901c9050919050565b60006139cf6139ca836139af565b613370565b9050919050565b60008160981c9050919050565b60006139f66139f1836139d6565b613370565b9050919050565b60008160a01c9050919050565b6000613a1d613a18836139fd565b613370565b9050919050565b60008160a81c9050919050565b6000613a44613a3f83613a24565b613370565b9050919050565b60008160b01c9050919050565b6000613a6b613a6683613a4b565b613370565b9050919050565b60008160b81c9050919050565b6000613a92613a8d83613a72565b613370565b9050919050565b60008160c01c9050919050565b6000613ab9613ab483613a99565b613370565b9050919050565b60008160c81c9050919050565b6000613ae0613adb83613ac0565b613370565b9050919050565b60008160d01c9050919050565b6000613b07613b0283613ae7565b613370565b9050919050565b60008160d81c9050919050565b6000613b2e613b2983613b0e565b613370565b9050919050565b60008160e01c9050919050565b6000613b55613b5083613b35565b613370565b9050919050565b60008160e81c9050919050565b6000613b7c613b7783613b5c565b613370565b9050919050565b60008160f01c9050919050565b6000613ba3613b9e83613b83565b613370565b9050919050565b60008160f81c9050919050565b6000613bca613bc583613baa565b613370565b9050919050565b6000613bdc8261375c565b613be68185613767565b935083613bf284613778565b6000600115613f1f575b83600160200382011015613f1e578154613c1e88613c198361337d565b612515565b602088019750613c3688613c31836133a4565b612515565b602088019750613c4e88613c498361371b565b612515565b602088019750613c6688613c6183613742565b612515565b602088019750613c7e88613c798361379a565b612515565b602088019750613c9688613c91836137c1565b612515565b602088019750613cae88613ca9836137e8565b612515565b602088019750613cc688613cc18361380f565b612515565b602088019750613cde88613cd983613836565b612515565b602088019750613cf688613cf18361385d565b612515565b602088019750613d0e88613d0983613884565b612515565b602088019750613d2688613d21836138ab565b612515565b602088019750613d3e88613d39836138d2565b612515565b602088019750613d5688613d51836138f9565b612515565b602088019750613d6e88613d6983613920565b612515565b602088019750613d8688613d8183613947565b612515565b602088019750613d9e88613d998361396e565b612515565b602088019750613db688613db183613995565b612515565b602088019750613dce88613dc9836139bc565b612515565b602088019750613de688613de1836139e3565b612515565b602088019750613dfe88613df983613a0a565b612515565b602088019750613e1688613e1183613a31565b612515565b602088019750613e2e88613e2983613a58565b612515565b602088019750613e4688613e4183613a7f565b612515565b602088019750613e5e88613e5983613aa6565b612515565b602088019750613e7688613e7183613acd565b612515565b602088019750613e8e88613e8983613af4565b612515565b602088019750613ea688613ea183613b1b565b612515565b602088019750613ebe88613eb983613b42565b612515565b602088019750613ed688613ed183613b69565b612515565b602088019750613eee88613ee983613b90565b612515565b602088019750613f0688613f0183613bb7565b612515565b60208801975060018301925050602081019050613bfc565b5b60011561440a57815484821015613f4f57613f4288613f3d8361337d565b612515565b6020880197506001820191505b84821015613f7657613f6988613f64836133a4565b612515565b6020880197506001820191505b84821015613f9d57613f9088613f8b8361371b565b612515565b6020880197506001820191505b84821015613fc457613fb788613fb283613742565b612515565b6020880197506001820191505b84821015613feb57613fde88613fd98361379a565b612515565b6020880197506001820191505b848210156140125761400588614000836137c1565b612515565b6020880197506001820191505b848210156140395761402c88614027836137e8565b612515565b6020880197506001820191505b84821015614060576140538861404e8361380f565b612515565b6020880197506001820191505b848210156140875761407a8861407583613836565b612515565b6020880197506001820191505b848210156140ae576140a18861409c8361385d565b612515565b6020880197506001820191505b848210156140d5576140c8886140c383613884565b612515565b6020880197506001820191505b848210156140fc576140ef886140ea836138ab565b612515565b6020880197506001820191505b848210156141235761411688614111836138d2565b612515565b6020880197506001820191505b8482101561414a5761413d88614138836138f9565b612515565b6020880197506001820191505b84821015614171576141648861415f83613920565b612515565b6020880197506001820191505b848210156141985761418b8861418683613947565b612515565b6020880197506001820191505b848210156141bf576141b2886141ad8361396e565b612515565b6020880197506001820191505b848210156141e6576141d9886141d483613995565b612515565b6020880197506001820191505b8482101561420d57614200886141fb836139bc565b612515565b6020880197506001820191505b848210156142345761422788614222836139e3565b612515565b6020880197506001820191505b8482101561425b5761424e8861424983613a0a565b612515565b6020880197506001820191505b84821015614282576142758861427083613a31565b612515565b6020880197506001820191505b848210156142a95761429c8861429783613a58565b612515565b6020880197506001820191505b848210156142d0576142c3886142be83613a7f565b612515565b6020880197506001820191505b848210156142f7576142ea886142e583613aa6565b612515565b6020880197506001820191505b8482101561431e576143118861430c83613acd565b612515565b6020880197506001820191505b84821015614345576143388861433383613af4565b612515565b6020880197506001820191505b8482101561436c5761435f8861435a83613b1b565b612515565b6020880197506001820191505b84821015614393576143868861438183613b42565b612515565b6020880197506001820191505b848210156143ba576143ad886143a883613b69565b612515565b6020880197506001820191505b848210156143e1576143d4886143cf83613b90565b612515565b6020880197506001820191505b84821015614408576143fb886143f683613bb7565b612515565b6020880197506001820191505b505b8694505050505092915050565b600060ff82169050919050565b600061443761443283613363565b614417565b9050919050565b614447816124ed565b82525050565b600061446061445b83613397565b614417565b9050919050565b60006101a08301600080840154905061447f81613681565b61448c600087018261369b565b506001840154905061449d81613681565b6144aa602087018261369b565b50600284015490506144bb816136b4565b6144c8604087018261267d565b50600384016144da60608701826136ce565b50600484015490506144eb8161337d565b6144f860a0870182612515565b50614502816133a4565b61450f60c0870182612515565b506145198161371b565b61452660e0870182612515565b5061453081613742565b61453e610100870182612515565b50600584018583036101208701526145568382613bd1565b925050600684018583036101408701526145708382613bd1565b9250506007840154905061458381614424565b61459161016087018261443e565b5061459b8161444d565b6145a961018087018261443e565b50819250505092915050565b600481106145c6576145c56130db565b5b50565b60008190506145d7826145b5565b919050565b60006145e7826145c9565b9050919050565b6145f7816145dc565b82525050565b6000606082019050614612600083018661241c565b81810360208301526146248185614467565b905061463360408301846145ee565b949350505050565b7f4f776e61626c653a206e6577206f776e657220697320746865207a65726f206160008201527f6464726573730000000000000000000000000000000000000000000000000000602082015250565b6000614697602683612bb8565b91506146a28261463b565b604082019050919050565b600060208201905081810360008301526146c68161468a565b9050919050565b7f4f776e61626c653a2063616c6c6572206973206e6f7420746865206f776e6572600082015250565b6000614703602083612bb8565b915061470e826146cd565b602082019050919050565b60006020820190508181036000830152614732816146f6565b9050919050565b600060608201905061474e600083018661241c565b61475b602083018561312c565b614768604083018461312c565b949350505050565b6000602082840312156147865761478561232b565b5b600061479484828501612e84565b91505092915050565b6000602082840312156147b3576147b261232b565b5b60006147c184828501612da4565b91505092915050565b60006060820190506147df600083018661241c565b6147ec602083018561241c565b6147f9604083018461241c565b949350505050565b600061480c82612393565b915061481783612393565b9250827fffffffffffffffffffffffffffffffffffffffffffffffffffffffffffffffff0382111561484c5761484b612c35565b5b828201905092915050565b6000819050919050565b600061486c82614857565b915061487783614857565b9250827f8000000000000000000000000000000000000000000000000000000000000000018212600084121516156148b2576148b1612c35565b5b827f7fffffffffffffffffffffffffffffffffffffffffffffffffffffffffffffff0182136000841216156148ea576148e9612c35565b5b82820390509291505056fea2646970667358221220467a0d3743bcbe51856d24420cb26789401168502e4fd3d712b3df205db38fbb64736f6c634300080c0033",
  "devdoc": {
    "kind": "dev",
    "methods": {
      "owner()": {
        "details": "Returns the address of the current owner."
      },
      "renounceOwnership()": {
        "details": "Leaves the contract without owner. It will not be possible to call `onlyOwner` functions anymore. Can only be called by the current owner. NOTE: Renouncing ownership will leave the contract without an owner, thereby removing any functionality that is only available to the owner."
      },
      "transferOwnership(address)": {
        "details": "Transfers ownership of the contract to a new account (`newOwner`). Can only be called by the current owner."
      }
    },
    "version": 1
  },
  "userdoc": {
    "kind": "user",
    "methods": {},
    "version": 1
  },
  "storageLayout": {
    "storage": [
      {
        "astId": 7,
        "contract": "contracts/BCGames.sol:BCGames",
        "label": "_owner",
        "offset": 0,
        "slot": "0",
        "type": "t_address"
      },
      {
        "astId": 271,
        "contract": "contracts/BCGames.sol:BCGames",
        "label": "roomTiles",
        "offset": 0,
        "slot": "1",
        "type": "t_contract(RoomTileInterface)153"
      },
      {
        "astId": 274,
        "contract": "contracts/BCGames.sol:BCGames",
        "label": "chars",
        "offset": 0,
        "slot": "2",
        "type": "t_contract(CharInterface)162"
      },
      {
        "astId": 277,
        "contract": "contracts/BCGames.sol:BCGames",
        "label": "utils",
        "offset": 0,
        "slot": "3",
        "type": "t_contract(UtilsInterface)206"
      },
      {
        "astId": 280,
        "contract": "contracts/BCGames.sol:BCGames",
        "label": "maps",
        "offset": 0,
        "slot": "4",
        "type": "t_contract(MapInterface)266"
      },
      {
        "astId": 282,
        "contract": "contracts/BCGames.sol:BCGames",
        "label": "lobbiesAddress",
        "offset": 0,
        "slot": "5",
        "type": "t_address"
      },
      {
        "astId": 354,
        "contract": "contracts/BCGames.sol:BCGames",
        "label": "players",
        "offset": 0,
        "slot": "6",
        "type": "t_array(t_struct(Player)1200_storage)dyn_storage"
      },
      {
        "astId": 358,
        "contract": "contracts/BCGames.sol:BCGames",
        "label": "games",
        "offset": 0,
        "slot": "7",
        "type": "t_array(t_struct(Game)1295_storage)dyn_storage"
      }
    ],
    "types": {
      "t_address": {
        "encoding": "inplace",
        "label": "address",
        "numberOfBytes": "20"
      },
      "t_array(t_struct(Game)1295_storage)dyn_storage": {
        "base": "t_struct(Game)1295_storage",
        "encoding": "dynamic_array",
        "label": "struct BCTypes.Game[]",
        "numberOfBytes": "32"
      },
      "t_array(t_struct(Player)1200_storage)dyn_storage": {
        "base": "t_struct(Player)1200_storage",
        "encoding": "dynamic_array",
        "label": "struct BCTypes.Player[]",
        "numberOfBytes": "32"
      },
      "t_array(t_uint256)dyn_storage": {
        "base": "t_uint256",
        "encoding": "dynamic_array",
        "label": "uint256[]",
        "numberOfBytes": "32"
      },
      "t_array(t_uint8)dyn_storage": {
        "base": "t_uint8",
        "encoding": "dynamic_array",
        "label": "uint8[]",
        "numberOfBytes": "32"
      },
      "t_bool": {
        "encoding": "inplace",
        "label": "bool",
        "numberOfBytes": "1"
      },
      "t_contract(CharInterface)162": {
        "encoding": "inplace",
        "label": "contract CharInterface",
        "numberOfBytes": "20"
      },
      "t_contract(MapInterface)266": {
        "encoding": "inplace",
        "label": "contract MapInterface",
        "numberOfBytes": "20"
      },
      "t_contract(RoomTileInterface)153": {
        "encoding": "inplace",
        "label": "contract RoomTileInterface",
        "numberOfBytes": "20"
      },
      "t_contract(UtilsInterface)206": {
        "encoding": "inplace",
        "label": "contract UtilsInterface",
        "numberOfBytes": "20"
      },
      "t_struct(EventTracker)1219_storage": {
        "encoding": "inplace",
        "label": "struct BCTypes.EventTracker",
        "members": [
          {
            "astId": 1212,
            "contract": "contracts/BCGames.sol:BCGames",
            "label": "bugEvents",
            "offset": 0,
            "slot": "0",
            "type": "t_uint8"
          },
          {
            "astId": 1214,
            "contract": "contracts/BCGames.sol:BCGames",
            "label": "mysteryEvents",
            "offset": 1,
            "slot": "0",
            "type": "t_uint8"
          },
          {
            "astId": 1216,
            "contract": "contracts/BCGames.sol:BCGames",
            "label": "scavEvents",
            "offset": 2,
            "slot": "0",
            "type": "t_uint8"
          },
          {
            "astId": 1218,
            "contract": "contracts/BCGames.sol:BCGames",
            "label": "shipEvents",
            "offset": 3,
            "slot": "0",
            "type": "t_uint8"
          }
        ],
        "numberOfBytes": "32"
      },
      "t_struct(Game)1295_storage": {
        "encoding": "inplace",
        "label": "struct BCTypes.Game",
        "members": [
          {
            "astId": 1278,
            "contract": "contracts/BCGames.sol:BCGames",
            "label": "active",
            "offset": 0,
            "slot": "0",
            "type": "t_bool"
          },
          {
            "astId": 1281,
            "contract": "contracts/BCGames.sol:BCGames",
            "label": "playerIndexes",
            "offset": 0,
            "slot": "1",
            "type": "t_array(t_uint256)dyn_storage"
          },
          {
            "astId": 1283,
            "contract": "contracts/BCGames.sol:BCGames",
            "label": "currentPlayerTurnIndex",
            "offset": 0,
            "slot": "2",
            "type": "t_uint256"
          },
          {
            "astId": 1285,
            "contract": "contracts/BCGames.sol:BCGames",
            "label": "numPlayers",
            "offset": 0,
            "slot": "3",
            "type": "t_uint256"
          },
          {
            "astId": 1287,
            "contract": "contracts/BCGames.sol:BCGames",
            "label": "turnsTaken",
            "offset": 0,
            "slot": "4",
            "type": "t_uint256"
          },
          {
            "astId": 1290,
            "contract": "contracts/BCGames.sol:BCGames",
            "label": "eventTracker",
            "offset": 0,
            "slot": "5",
            "type": "t_struct(EventTracker)1219_storage"
          },
          {
            "astId": 1292,
            "contract": "contracts/BCGames.sol:BCGames",
            "label": "mapContract",
            "offset": 0,
            "slot": "6",
            "type": "t_address"
          },
          {
            "astId": 1294,
            "contract": "contracts/BCGames.sol:BCGames",
            "label": "mapId",
            "offset": 0,
            "slot": "7",
            "type": "t_uint256"
          }
        ],
        "numberOfBytes": "256"
      },
      "t_struct(Player)1200_storage": {
        "encoding": "inplace",
        "label": "struct BCTypes.Player",
        "members": [
          {
            "astId": 1174,
            "contract": "contracts/BCGames.sol:BCGames",
            "label": "owner",
            "offset": 0,
            "slot": "0",
            "type": "t_address"
          },
          {
            "astId": 1176,
            "contract": "contracts/BCGames.sol:BCGames",
            "label": "charContractAddress",
            "offset": 0,
            "slot": "1",
            "type": "t_address"
          },
          {
            "astId": 1178,
            "contract": "contracts/BCGames.sol:BCGames",
            "label": "characterId",
            "offset": 0,
            "slot": "2",
            "type": "t_uint256"
          },
          {
            "astId": 1181,
            "contract": "contracts/BCGames.sol:BCGames",
            "label": "position",
            "offset": 0,
            "slot": "3",
            "type": "t_struct(Position)1224_storage"
          },
          {
            "astId": 1183,
            "contract": "contracts/BCGames.sol:BCGames",
            "label": "healthDmgTaken",
            "offset": 0,
            "slot": "4",
            "type": "t_uint8"
          },
          {
            "astId": 1185,
            "contract": "contracts/BCGames.sol:BCGames",
            "label": "armorDmgTaken",
            "offset": 1,
            "slot": "4",
            "type": "t_uint8"
          },
          {
            "astId": 1187,
            "contract": "contracts/BCGames.sol:BCGames",
            "label": "actionsTaken",
            "offset": 2,
            "slot": "4",
            "type": "t_uint8"
          },
          {
            "astId": 1189,
            "contract": "contracts/BCGames.sol:BCGames",
            "label": "dataTokens",
            "offset": 3,
            "slot": "4",
            "type": "t_uint8"
          },
          {
            "astId": 1192,
            "contract": "contracts/BCGames.sol:BCGames",
            "label": "currentEffects",
            "offset": 0,
            "slot": "5",
            "type": "t_array(t_uint8)dyn_storage"
          },
          {
            "astId": 1195,
            "contract": "contracts/BCGames.sol:BCGames",
            "label": "inventoryIDs",
            "offset": 0,
            "slot": "6",
            "type": "t_array(t_uint8)dyn_storage"
          },
          {
            "astId": 1197,
            "contract": "contracts/BCGames.sol:BCGames",
            "label": "canHarmOthers",
            "offset": 0,
            "slot": "7",
            "type": "t_bool"
          },
          {
            "astId": 1199,
            "contract": "contracts/BCGames.sol:BCGames",
            "label": "dead",
            "offset": 1,
            "slot": "7",
            "type": "t_bool"
          }
        ],
        "numberOfBytes": "256"
      },
      "t_struct(Position)1224_storage": {
        "encoding": "inplace",
        "label": "struct BCTypes.Position",
        "members": [
          {
            "astId": 1221,
            "contract": "contracts/BCGames.sol:BCGames",
            "label": "row",
            "offset": 0,
            "slot": "0",
            "type": "t_uint8"
          },
          {
            "astId": 1223,
            "contract": "contracts/BCGames.sol:BCGames",
            "label": "col",
            "offset": 1,
            "slot": "0",
            "type": "t_uint8"
          }
        ],
        "numberOfBytes": "32"
      },
      "t_uint256": {
        "encoding": "inplace",
        "label": "uint256",
        "numberOfBytes": "32"
      },
      "t_uint8": {
        "encoding": "inplace",
        "label": "uint8",
        "numberOfBytes": "1"
      }
    }
  }
}