{
  "address": "0x95226227d58eC35Bd1c5341E6585F92b463351fC",
  "abi": [
    {
      "inputs": [],
      "stateMutability": "nonpayable",
      "type": "constructor"
    },
    {
      "anonymous": false,
      "inputs": [
        {
          "indexed": false,
          "internalType": "uint256",
          "name": "gameId",
          "type": "uint256"
        },
        {
          "indexed": false,
          "internalType": "uint256",
          "name": "roll",
          "type": "uint256"
        },
        {
          "indexed": false,
          "internalType": "uint256",
          "name": "forValue",
          "type": "uint256"
        },
        {
          "indexed": false,
          "internalType": "uint256",
          "name": "against",
          "type": "uint256"
        }
      ],
      "name": "ChallengeEvent",
      "type": "event"
    },
    {
      "anonymous": false,
      "inputs": [
        {
          "indexed": false,
          "internalType": "enum BCTypes.DenizenType",
          "name": "denizenType",
          "type": "uint8"
        },
        {
          "indexed": false,
          "internalType": "uint256",
          "name": "_playerTarget",
          "type": "uint256"
        },
        {
          "indexed": false,
          "internalType": "uint256",
          "name": "_damage",
          "type": "uint256"
        },
        {
          "indexed": false,
          "internalType": "uint256",
          "name": "_turnabout",
          "type": "uint256"
        }
      ],
      "name": "DenizenAttack",
      "type": "event"
    },
    {
      "anonymous": false,
      "inputs": [
        {
          "indexed": false,
          "internalType": "uint256",
          "name": "gameId",
          "type": "uint256"
        },
        {
          "indexed": false,
          "internalType": "uint256",
          "name": "roll",
          "type": "uint256"
        }
      ],
      "name": "DiceRollEvent",
      "type": "event"
    },
    {
      "anonymous": false,
      "inputs": [
        {
          "indexed": true,
          "internalType": "address",
          "name": "previousOwner",
          "type": "address"
        },
        {
          "indexed": true,
          "internalType": "address",
          "name": "newOwner",
          "type": "address"
        }
      ],
      "name": "OwnershipTransferred",
      "type": "event"
    },
    {
      "inputs": [],
      "name": "StartLocation",
      "outputs": [
        {
          "internalType": "uint8",
          "name": "row",
          "type": "uint8"
        },
        {
          "internalType": "uint8",
          "name": "col",
          "type": "uint8"
        }
      ],
      "stateMutability": "view",
      "type": "function"
    },
    {
      "inputs": [
        {
          "internalType": "int256",
          "name": "x",
          "type": "int256"
        }
      ],
      "name": "abs",
      "outputs": [
        {
          "internalType": "int256",
          "name": "",
          "type": "int256"
        }
      ],
      "stateMutability": "pure",
      "type": "function"
    },
    {
      "inputs": [],
      "name": "actionsAddress",
      "outputs": [
        {
          "internalType": "address",
          "name": "",
          "type": "address"
        }
      ],
      "stateMutability": "view",
      "type": "function"
    },
    {
      "inputs": [
        {
          "internalType": "uint256",
          "name": "_gameId",
          "type": "uint256"
        },
        {
          "internalType": "enum BCTypes.DenizenType",
          "name": "_type",
          "type": "uint8"
        },
        {
          "internalType": "uint256",
          "name": "_row",
          "type": "uint256"
        },
        {
          "internalType": "uint256",
          "name": "_col",
          "type": "uint256"
        }
      ],
      "name": "addDenizen",
      "outputs": [],
      "stateMutability": "nonpayable",
      "type": "function"
    },
    {
      "inputs": [
        {
          "internalType": "address",
          "name": "",
          "type": "address"
        },
        {
          "internalType": "uint256",
          "name": "",
          "type": "uint256"
        }
      ],
      "name": "addressToGame",
      "outputs": [
        {
          "internalType": "uint256",
          "name": "",
          "type": "uint256"
        }
      ],
      "stateMutability": "view",
      "type": "function"
    },
    {
      "inputs": [],
      "name": "bcEvents",
      "outputs": [
        {
          "internalType": "contract EventsInterface",
          "name": "",
          "type": "address"
        }
      ],
      "stateMutability": "view",
      "type": "function"
    },
    {
      "inputs": [],
      "name": "chars",
      "outputs": [
        {
          "internalType": "contract CharInterface",
          "name": "",
          "type": "address"
        }
      ],
      "stateMutability": "view",
      "type": "function"
    },
    {
      "inputs": [],
      "name": "charsAddress",
      "outputs": [
        {
          "internalType": "address",
          "name": "",
          "type": "address"
        }
      ],
      "stateMutability": "view",
      "type": "function"
    },
    {
      "inputs": [
        {
          "internalType": "uint256",
          "name": "_gameId",
          "type": "uint256"
        },
        {
          "components": [
            {
              "internalType": "uint8",
              "name": "row",
              "type": "uint8"
            },
            {
              "internalType": "uint8",
              "name": "col",
              "type": "uint8"
            }
          ],
          "internalType": "struct BCTypes.Position",
          "name": "_position",
          "type": "tuple"
        },
        {
          "internalType": "uint256",
          "name": "_playerId",
          "type": "uint256"
        },
        {
          "internalType": "uint256",
          "name": "_debugRoomId",
          "type": "uint256"
        }
      ],
      "name": "debugMovePlayer",
      "outputs": [],
      "stateMutability": "nonpayable",
      "type": "function"
    },
    {
      "inputs": [
        {
          "internalType": "enum BCTypes.DenizenType",
          "name": "",
          "type": "uint8"
        }
      ],
      "name": "denizenDef",
      "outputs": [
        {
          "internalType": "uint256",
          "name": "",
          "type": "uint256"
        }
      ],
      "stateMutability": "view",
      "type": "function"
    },
    {
      "inputs": [
        {
          "internalType": "enum BCTypes.DenizenType",
          "name": "",
          "type": "uint8"
        }
      ],
      "name": "denizenDmg",
      "outputs": [
        {
          "internalType": "uint256",
          "name": "",
          "type": "uint256"
        }
      ],
      "stateMutability": "view",
      "type": "function"
    },
    {
      "inputs": [
        {
          "internalType": "enum BCTypes.DenizenType",
          "name": "",
          "type": "uint8"
        }
      ],
      "name": "denizenHealth",
      "outputs": [
        {
          "internalType": "uint256",
          "name": "",
          "type": "uint256"
        }
      ],
      "stateMutability": "view",
      "type": "function"
    },
    {
      "inputs": [
        {
          "internalType": "enum BCTypes.DenizenType",
          "name": "",
          "type": "uint8"
        }
      ],
      "name": "denizenMovement",
      "outputs": [
        {
          "internalType": "uint256",
          "name": "",
          "type": "uint256"
        }
      ],
      "stateMutability": "view",
      "type": "function"
    },
    {
      "inputs": [
        {
          "internalType": "enum BCTypes.DenizenType",
          "name": "",
          "type": "uint8"
        }
      ],
      "name": "denizenOff",
      "outputs": [
        {
          "internalType": "uint256",
          "name": "",
          "type": "uint256"
        }
      ],
      "stateMutability": "view",
      "type": "function"
    },
    {
      "inputs": [
        {
          "internalType": "uint256",
          "name": "_gameId",
          "type": "uint256"
        },
        {
          "internalType": "uint256",
          "name": "_playerId",
          "type": "uint256"
        },
        {
          "internalType": "bool",
          "name": "_free",
          "type": "bool"
        }
      ],
      "name": "endPlayerAction",
      "outputs": [],
      "stateMutability": "nonpayable",
      "type": "function"
    },
    {
      "inputs": [
        {
          "internalType": "uint256",
          "name": "_id",
          "type": "uint256"
        }
      ],
      "name": "extGetGame",
      "outputs": [
        {
          "components": [
            {
              "internalType": "bool",
              "name": "active",
              "type": "bool"
            },
            {
              "internalType": "bool",
              "name": "denizenTurn",
              "type": "bool"
            },
            {
              "internalType": "uint256[]",
              "name": "playerIndexes",
              "type": "uint256[]"
            },
            {
              "internalType": "uint256",
              "name": "currentPlayerTurnIndex",
              "type": "uint256"
            },
            {
              "internalType": "uint256",
              "name": "numPlayers",
              "type": "uint256"
            },
            {
              "internalType": "uint256",
              "name": "turnsTaken",
              "type": "uint256"
            },
            {
              "components": [
                {
                  "internalType": "uint8",
                  "name": "bugEvents",
                  "type": "uint8"
                },
                {
                  "internalType": "uint8",
                  "name": "mysteryEvents",
                  "type": "uint8"
                },
                {
                  "internalType": "uint8",
                  "name": "scavEvents",
                  "type": "uint8"
                },
                {
                  "internalType": "uint8",
                  "name": "shipEvents",
                  "type": "uint8"
                }
              ],
              "internalType": "struct BCTypes.EventTracker",
              "name": "eventTracker",
              "type": "tuple"
            },
            {
              "internalType": "uint256",
              "name": "mapId",
              "type": "uint256"
            },
            {
              "internalType": "uint256",
              "name": "eventPlayerId",
              "type": "uint256"
            },
            {
              "internalType": "uint256",
              "name": "eventNumber",
              "type": "uint256"
            },
            {
              "internalType": "enum BCTypes.BCEventType",
              "name": "eventType",
              "type": "uint8"
            },
            {
              "components": [
                {
                  "internalType": "uint8",
                  "name": "row",
                  "type": "uint8"
                },
                {
                  "internalType": "uint8",
                  "name": "col",
                  "type": "uint8"
                }
              ],
              "internalType": "struct BCTypes.Position",
              "name": "eventPosition",
              "type": "tuple"
            },
            {
              "internalType": "uint256[]",
              "name": "unusedBugEvents",
              "type": "uint256[]"
            },
            {
              "internalType": "uint256[]",
              "name": "unusedMysteryEvents",
              "type": "uint256[]"
            },
            {
              "internalType": "uint256[]",
              "name": "unusedScavEvents",
              "type": "uint256[]"
            },
            {
              "internalType": "uint256[]",
              "name": "unusedShipEvents",
              "type": "uint256[]"
            },
            {
              "internalType": "uint256",
              "name": "turnTimeLimit",
              "type": "uint256"
            },
            {
              "internalType": "uint256",
              "name": "lastTurnTimestamp",
              "type": "uint256"
            },
            {
              "internalType": "uint256",
              "name": "DEBUG_returnAmount",
              "type": "uint256"
            },
            {
              "components": [
                {
                  "internalType": "uint256",
                  "name": "id",
                  "type": "uint256"
                },
                {
                  "internalType": "uint256",
                  "name": "gameId",
                  "type": "uint256"
                },
                {
                  "internalType": "enum BCTypes.DenizenType",
                  "name": "denizenType",
                  "type": "uint8"
                },
                {
                  "components": [
                    {
                      "internalType": "uint8",
                      "name": "row",
                      "type": "uint8"
                    },
                    {
                      "internalType": "uint8",
                      "name": "col",
                      "type": "uint8"
                    }
                  ],
                  "internalType": "struct BCTypes.Position",
                  "name": "position",
                  "type": "tuple"
                },
                {
                  "internalType": "uint256",
                  "name": "healthRemaining",
                  "type": "uint256"
                },
                {
                  "internalType": "bool",
                  "name": "looted",
                  "type": "bool"
                }
              ],
              "internalType": "struct BCTypes.Denizen[]",
              "name": "denizens",
              "type": "tuple[]"
            }
          ],
          "internalType": "struct BCTypes.Game",
          "name": "",
          "type": "tuple"
        }
      ],
      "stateMutability": "view",
      "type": "function"
    },
    {
      "inputs": [
        {
          "internalType": "uint256",
          "name": "_gameId",
          "type": "uint256"
        }
      ],
      "name": "extGetGamePlayerIndexes",
      "outputs": [
        {
          "internalType": "uint256[]",
          "name": "",
          "type": "uint256[]"
        }
      ],
      "stateMutability": "view",
      "type": "function"
    },
    {
      "inputs": [
        {
          "internalType": "address",
          "name": "_playerAddress",
          "type": "address"
        }
      ],
      "name": "extGetGamesOfPlayer",
      "outputs": [
        {
          "internalType": "uint256[]",
          "name": "",
          "type": "uint256[]"
        }
      ],
      "stateMutability": "view",
      "type": "function"
    },
    {
      "inputs": [],
      "name": "extGetNumGames",
      "outputs": [
        {
          "internalType": "uint256",
          "name": "",
          "type": "uint256"
        }
      ],
      "stateMutability": "view",
      "type": "function"
    },
    {
      "inputs": [
        {
          "internalType": "uint256",
          "name": "_gameId",
          "type": "uint256"
        },
        {
          "components": [
            {
              "internalType": "uint8",
              "name": "row",
              "type": "uint8"
            },
            {
              "internalType": "uint8",
              "name": "col",
              "type": "uint8"
            }
          ],
          "internalType": "struct BCTypes.Position",
          "name": "_position",
          "type": "tuple"
        },
        {
          "internalType": "uint256",
          "name": "_playerId",
          "type": "uint256"
        }
      ],
      "name": "extMovePlayer",
      "outputs": [],
      "stateMutability": "nonpayable",
      "type": "function"
    },
    {
      "inputs": [
        {
          "internalType": "uint256",
          "name": "_gameId",
          "type": "uint256"
        }
      ],
      "name": "forceNextTurn",
      "outputs": [],
      "stateMutability": "nonpayable",
      "type": "function"
    },
    {
      "inputs": [
        {
          "internalType": "uint256",
          "name": "",
          "type": "uint256"
        }
      ],
      "name": "games",
      "outputs": [
        {
          "internalType": "bool",
          "name": "active",
          "type": "bool"
        },
        {
          "internalType": "bool",
          "name": "denizenTurn",
          "type": "bool"
        },
        {
          "internalType": "uint256",
          "name": "currentPlayerTurnIndex",
          "type": "uint256"
        },
        {
          "internalType": "uint256",
          "name": "numPlayers",
          "type": "uint256"
        },
        {
          "internalType": "uint256",
          "name": "turnsTaken",
          "type": "uint256"
        },
        {
          "components": [
            {
              "internalType": "uint8",
              "name": "bugEvents",
              "type": "uint8"
            },
            {
              "internalType": "uint8",
              "name": "mysteryEvents",
              "type": "uint8"
            },
            {
              "internalType": "uint8",
              "name": "scavEvents",
              "type": "uint8"
            },
            {
              "internalType": "uint8",
              "name": "shipEvents",
              "type": "uint8"
            }
          ],
          "internalType": "struct BCTypes.EventTracker",
          "name": "eventTracker",
          "type": "tuple"
        },
        {
          "internalType": "uint256",
          "name": "mapId",
          "type": "uint256"
        },
        {
          "internalType": "uint256",
          "name": "eventPlayerId",
          "type": "uint256"
        },
        {
          "internalType": "uint256",
          "name": "eventNumber",
          "type": "uint256"
        },
        {
          "internalType": "enum BCTypes.BCEventType",
          "name": "eventType",
          "type": "uint8"
        },
        {
          "components": [
            {
              "internalType": "uint8",
              "name": "row",
              "type": "uint8"
            },
            {
              "internalType": "uint8",
              "name": "col",
              "type": "uint8"
            }
          ],
          "internalType": "struct BCTypes.Position",
          "name": "eventPosition",
          "type": "tuple"
        },
        {
          "internalType": "uint256",
          "name": "turnTimeLimit",
          "type": "uint256"
        },
        {
          "internalType": "uint256",
          "name": "lastTurnTimestamp",
          "type": "uint256"
        },
        {
          "internalType": "uint256",
          "name": "DEBUG_returnAmount",
          "type": "uint256"
        }
      ],
      "stateMutability": "view",
      "type": "function"
    },
    {
      "inputs": [
        {
          "internalType": "uint256",
          "name": "_gameId",
          "type": "uint256"
        }
      ],
      "name": "getDenizensInGame",
      "outputs": [
        {
          "components": [
            {
              "internalType": "uint256",
              "name": "id",
              "type": "uint256"
            },
            {
              "internalType": "uint256",
              "name": "gameId",
              "type": "uint256"
            },
            {
              "internalType": "enum BCTypes.DenizenType",
              "name": "denizenType",
              "type": "uint8"
            },
            {
              "components": [
                {
                  "internalType": "uint8",
                  "name": "row",
                  "type": "uint8"
                },
                {
                  "internalType": "uint8",
                  "name": "col",
                  "type": "uint8"
                }
              ],
              "internalType": "struct BCTypes.Position",
              "name": "position",
              "type": "tuple"
            },
            {
              "internalType": "uint256",
              "name": "healthRemaining",
              "type": "uint256"
            },
            {
              "internalType": "bool",
              "name": "looted",
              "type": "bool"
            }
          ],
          "internalType": "struct BCTypes.Denizen[]",
          "name": "",
          "type": "tuple[]"
        }
      ],
      "stateMutability": "view",
      "type": "function"
    },
    {
      "inputs": [
        {
          "components": [
            {
              "internalType": "uint8",
              "name": "row",
              "type": "uint8"
            },
            {
              "internalType": "uint8",
              "name": "col",
              "type": "uint8"
            }
          ],
          "internalType": "struct BCTypes.Position",
          "name": "_firstRoom",
          "type": "tuple"
        },
        {
          "components": [
            {
              "internalType": "uint8",
              "name": "row",
              "type": "uint8"
            },
            {
              "internalType": "uint8",
              "name": "col",
              "type": "uint8"
            }
          ],
          "internalType": "struct BCTypes.Position",
          "name": "_secondRoom",
          "type": "tuple"
        }
      ],
      "name": "getDirectionBetween",
      "outputs": [
        {
          "internalType": "uint256",
          "name": "",
          "type": "uint256"
        }
      ],
      "stateMutability": "pure",
      "type": "function"
    },
    {
      "inputs": [
        {
          "internalType": "uint256",
          "name": "_direction",
          "type": "uint256"
        },
        {
          "components": [
            {
              "internalType": "uint8",
              "name": "row",
              "type": "uint8"
            },
            {
              "internalType": "uint8",
              "name": "col",
              "type": "uint8"
            }
          ],
          "internalType": "struct BCTypes.Position",
          "name": "_start",
          "type": "tuple"
        }
      ],
      "name": "getNeighborRoom",
      "outputs": [
        {
          "components": [
            {
              "internalType": "uint8",
              "name": "row",
              "type": "uint8"
            },
            {
              "internalType": "uint8",
              "name": "col",
              "type": "uint8"
            }
          ],
          "internalType": "struct BCTypes.Position",
          "name": "",
          "type": "tuple"
        }
      ],
      "stateMutability": "pure",
      "type": "function"
    },
    {
      "inputs": [
        {
          "internalType": "uint256",
          "name": "_traitNum",
          "type": "uint256"
        },
        {
          "internalType": "uint256",
          "name": "_subTraitNum",
          "type": "uint256"
        }
      ],
      "name": "getUIOffset",
      "outputs": [
        {
          "internalType": "uint256",
          "name": "",
          "type": "uint256"
        }
      ],
      "stateMutability": "pure",
      "type": "function"
    },
    {
      "inputs": [],
      "name": "items",
      "outputs": [
        {
          "internalType": "contract ItemsInterface",
          "name": "",
          "type": "address"
        }
      ],
      "stateMutability": "view",
      "type": "function"
    },
    {
      "inputs": [
        {
          "internalType": "uint256",
          "name": "_gameId",
          "type": "uint256"
        },
        {
          "internalType": "uint256",
          "name": "_playerId",
          "type": "uint256"
        },
        {
          "internalType": "uint256",
          "name": "_charId",
          "type": "uint256"
        },
        {
          "internalType": "uint256",
          "name": "_currentPlayerTurnIndex",
          "type": "uint256"
        }
      ],
      "name": "leaveGame",
      "outputs": [],
      "stateMutability": "nonpayable",
      "type": "function"
    },
    {
      "inputs": [],
      "name": "lobbiesAddress",
      "outputs": [
        {
          "internalType": "address",
          "name": "",
          "type": "address"
        }
      ],
      "stateMutability": "view",
      "type": "function"
    },
    {
      "inputs": [
        {
          "components": [
            {
              "internalType": "uint8",
              "name": "row",
              "type": "uint8"
            },
            {
              "internalType": "uint8",
              "name": "col",
              "type": "uint8"
            }
          ],
          "internalType": "struct BCTypes.Position",
          "name": "_pos1",
          "type": "tuple"
        },
        {
          "components": [
            {
              "internalType": "uint8",
              "name": "row",
              "type": "uint8"
            },
            {
              "internalType": "uint8",
              "name": "col",
              "type": "uint8"
            }
          ],
          "internalType": "struct BCTypes.Position",
          "name": "_pos2",
          "type": "tuple"
        }
      ],
      "name": "manhattanDistance",
      "outputs": [
        {
          "internalType": "uint256",
          "name": "",
          "type": "uint256"
        }
      ],
      "stateMutability": "pure",
      "type": "function"
    },
    {
      "inputs": [],
      "name": "maps",
      "outputs": [
        {
          "internalType": "contract MapInterface",
          "name": "",
          "type": "address"
        }
      ],
      "stateMutability": "view",
      "type": "function"
    },
    {
      "inputs": [
        {
          "internalType": "uint256",
          "name": "_min",
          "type": "uint256"
        },
        {
          "internalType": "uint256",
          "name": "_max",
          "type": "uint256"
        },
        {
          "internalType": "uint256",
          "name": "_val",
          "type": "uint256"
        },
        {
          "internalType": "uint256",
          "name": "_valMax",
          "type": "uint256"
        }
      ],
      "name": "normalizeToSmallRange",
      "outputs": [
        {
          "internalType": "uint8",
          "name": "",
          "type": "uint8"
        }
      ],
      "stateMutability": "pure",
      "type": "function"
    },
    {
      "inputs": [
        {
          "internalType": "uint256",
          "name": "_direction",
          "type": "uint256"
        }
      ],
      "name": "opposite",
      "outputs": [
        {
          "internalType": "uint256",
          "name": "",
          "type": "uint256"
        }
      ],
      "stateMutability": "pure",
      "type": "function"
    },
    {
      "inputs": [],
      "name": "owner",
      "outputs": [
        {
          "internalType": "address",
          "name": "",
          "type": "address"
        }
      ],
      "stateMutability": "view",
      "type": "function"
    },
    {
      "inputs": [
        {
          "internalType": "uint256",
          "name": "_gameId",
          "type": "uint256"
        },
        {
          "internalType": "uint256",
          "name": "_denizenId",
          "type": "uint256"
        },
        {
          "internalType": "uint256",
          "name": "_playerId",
          "type": "uint256"
        },
        {
          "internalType": "uint256",
          "name": "_playerAttackRating",
          "type": "uint256"
        },
        {
          "components": [
            {
              "internalType": "uint8",
              "name": "row",
              "type": "uint8"
            },
            {
              "internalType": "uint8",
              "name": "col",
              "type": "uint8"
            }
          ],
          "internalType": "struct BCTypes.Position",
          "name": "_playerPosition",
          "type": "tuple"
        }
      ],
      "name": "playerAttack",
      "outputs": [],
      "stateMutability": "nonpayable",
      "type": "function"
    },
    {
      "inputs": [],
      "name": "players",
      "outputs": [
        {
          "internalType": "contract PlayersInterface",
          "name": "",
          "type": "address"
        }
      ],
      "stateMutability": "view",
      "type": "function"
    },
    {
      "inputs": [
        {
          "internalType": "uint256",
          "name": "_gameId",
          "type": "uint256"
        }
      ],
      "name": "processDenizenMoves",
      "outputs": [],
      "stateMutability": "nonpayable",
      "type": "function"
    },
    {
      "inputs": [],
      "name": "randKeccak",
      "outputs": [
        {
          "internalType": "bytes32",
          "name": "",
          "type": "bytes32"
        }
      ],
      "stateMutability": "nonpayable",
      "type": "function"
    },
    {
      "inputs": [],
      "name": "renounceOwnership",
      "outputs": [],
      "stateMutability": "nonpayable",
      "type": "function"
    },
    {
      "inputs": [
        {
          "internalType": "uint256",
          "name": "_gameId",
          "type": "uint256"
        },
        {
          "internalType": "uint256",
          "name": "_for",
          "type": "uint256"
        },
        {
          "internalType": "uint256",
          "name": "_against",
          "type": "uint256"
        }
      ],
      "name": "resolveChallenge",
      "outputs": [
        {
          "internalType": "bool",
          "name": "",
          "type": "bool"
        }
      ],
      "stateMutability": "nonpayable",
      "type": "function"
    },
    {
      "inputs": [
        {
          "internalType": "uint256",
          "name": "_gameId",
          "type": "uint256"
        },
        {
          "internalType": "uint256",
          "name": "_choice",
          "type": "uint256"
        }
      ],
      "name": "resolveEvent",
      "outputs": [],
      "stateMutability": "nonpayable",
      "type": "function"
    },
    {
      "inputs": [
        {
          "internalType": "uint256",
          "name": "_gameId",
          "type": "uint256"
        }
      ],
      "name": "roll",
      "outputs": [
        {
          "internalType": "uint256",
          "name": "",
          "type": "uint256"
        }
      ],
      "stateMutability": "nonpayable",
      "type": "function"
    },
    {
      "inputs": [
        {
          "internalType": "address",
          "name": "_charAddress",
          "type": "address"
        },
        {
          "internalType": "address",
          "name": "_utilsAddress",
          "type": "address"
        },
        {
          "internalType": "address",
          "name": "_mapsAddress",
          "type": "address"
        },
        {
          "internalType": "address",
          "name": "_lobbiesAddress",
          "type": "address"
        },
        {
          "internalType": "address",
          "name": "_actionsAddress",
          "type": "address"
        },
        {
          "internalType": "address",
          "name": "_eventsAddress",
          "type": "address"
        },
        {
          "internalType": "address",
          "name": "_itemsAddress",
          "type": "address"
        },
        {
          "internalType": "address",
          "name": "_playersAddress",
          "type": "address"
        }
      ],
      "name": "setContractAddresses",
      "outputs": [],
      "stateMutability": "nonpayable",
      "type": "function"
    },
    {
      "inputs": [
        {
          "internalType": "uint256",
          "name": "_gameId",
          "type": "uint256"
        },
        {
          "internalType": "uint256",
          "name": "_denizenId",
          "type": "uint256"
        }
      ],
      "name": "setDenizenLooted",
      "outputs": [],
      "stateMutability": "nonpayable",
      "type": "function"
    },
    {
      "inputs": [
        {
          "internalType": "bytes32",
          "name": "_hash",
          "type": "bytes32"
        },
        {
          "internalType": "uint256",
          "name": "_size",
          "type": "uint256"
        },
        {
          "internalType": "uint256",
          "name": "_offset",
          "type": "uint256"
        }
      ],
      "name": "sliceHashToSmallInt",
      "outputs": [
        {
          "internalType": "uint8",
          "name": "",
          "type": "uint8"
        }
      ],
      "stateMutability": "pure",
      "type": "function"
    },
    {
      "inputs": [
        {
          "internalType": "uint8",
          "name": "_min",
          "type": "uint8"
        },
        {
          "internalType": "uint8",
          "name": "_max",
          "type": "uint8"
        }
      ],
      "name": "smallIntBetweenVals",
      "outputs": [
        {
          "internalType": "uint8",
          "name": "",
          "type": "uint8"
        }
      ],
      "stateMutability": "nonpayable",
      "type": "function"
    },
    {
      "inputs": [
        {
          "internalType": "uint256[]",
          "name": "_playerIndexes",
          "type": "uint256[]"
        },
        {
          "internalType": "uint256",
          "name": "_numPlayers",
          "type": "uint256"
        },
        {
          "internalType": "uint256",
          "name": "_debugRoomId",
          "type": "uint256"
        }
      ],
      "name": "startGame",
      "outputs": [
        {
          "internalType": "uint256",
          "name": "",
          "type": "uint256"
        }
      ],
      "stateMutability": "nonpayable",
      "type": "function"
    },
    {
      "inputs": [
        {
          "internalType": "address",
          "name": "newOwner",
          "type": "address"
        }
      ],
      "name": "transferOwnership",
      "outputs": [],
      "stateMutability": "nonpayable",
      "type": "function"
    }
  ],
  "transactionHash": "0x5f91e8388e0012f866e076f321f25b6417336022621db30b266152ba8576fc85",
  "args": [],
  "numDeployments": 1,
  "solcInputHash": "c6c1394e60ca82b2273e48feef761973",
  "bytecode": "0x600060015560c0604052600a6080819052600660a052805461ffff191661060a1790553480156200002f57600080fd5b506200003b33620005f8565b60027ffd54ff1ed53f34a900b24c5ba64f85761163b5d82d98a47b9bd80e45466993c581905560037f10a81eed9d63d16face5e76357905348e6253d3394086026bb2bf2145d7cc2498190557f26b4a10d0f0b04925c23bd4480ee147c916e5e87a7d68206a533dad160ac81e282905560057fafafe8948a4ed9d478b1e9a5780b119b5edd00ea7d07bc35bef7c814824eb94b5560647fa5049387d9cb649c59f4bda666105ba636c2a103d8e2b232ba4d125737cd21495560327fa48544818c2c710afa9849c61ec9c60e8acdb3eaa2885f33b37e118cc8fd04ac5560c87fb91432bedff11256dbe14161d3606a2657bc9dacf8742f6b817d871dd53fb9765560197f0b705463cf5f7356780ee6e96132d37412c1b5816a4d207b8dcd42c349767457557fa7c5ba7114a813b50159add3a36832908dc83db71d0b9a24c2ad0f83be9582078190557f9adb202b1492743bc00c81d33cdc6423fa8c79109027eb6a845391e8fc1f048181905560047fe0283e559c29e31ee7f56467acc9dd307779c843a883aeeb3bf5c6128c90814481905560067fa1d6913cd9e08c872be3e7525cca82e4fc0fc298a783f19022be725b19be685a819055600a7fb9bec7e2561f624fe753ff070f1599b306cbf59fafd4e8d5a8184a1ea1841bce81905560087f92b4482321f41ce3aa65f798bda23d0d12a60fc5f212868a548ddb00aa49de72819055600c7f376529bb8a2d41b4a589a133407fc64f3212472dbd74744348be1098bf7ba08d557feab6bc3746954d8a0719de62c86ea908d362be2a58c781ada1046727253f9df28490557f169f97de0d9a84d840042b17d3c6b9638b3d6fd9024c9eb0c7a306a17b49f88f8490557fa74ba3945261e09fde15ba3db55005b205e61eeb4ad811ac0faa2b315bffeead8590557f45f76dafbbad695564362934e24d72eedc57f9fc1a65f39bca62176cc82968288590557f367ccd2d0ac16bf7110a5dffe0801fdc9452a95a1adb7e1a12fe97dd3e9a4edd8590557f6bda57492eba051cb4a12a1e19df47c9755d78165341d4009b1d09b3f36162048190557fb5a1e7cda73b1608e93d4d50ab796c3d35aa6216cb006a1f920df154d13ff61883905560077f73dfc495eb54bd6713ffc079b9f5e40f2fecd3793d143759ba0128fbedb40254557f49a9092dc5c03b26195f6621c97b5cf515cb77afe659e3fe008a73456354eb689190915560017f8c6065603763fec3f5742441d3833f3f43b982453612d76adb39a885e3006b5f8190557f853b2fefe141400fef543280f93d98bd49996069f632d0d20236afeeed8e46a28190557fb3edd0d534d647cffdae9f1294f11ad21f3fcf2814bea44c92bbb8d384a57d9e8190557f1588ac671d87f82adc0e6ae8ab009c0de98f92a20243897597e566bc59b9c126557f61a7346ab5ebdac457db2a901eaf1b805239b6049a1b2f34bab85e2e274f39cb8190557f20edfb71820f6f00f6a84ccfefb91587cd9f849f8349b0a3182a4795899d9cd98290557f4ef6145e44e4298293af15ae5f84f922a836b1d6db608fd5008f32a528b312a983905560107f5f04e77c60ed37290f5789e2e9c5d396103f3c4b14614065cbb4c8362609d5a55560116020527f17bc176d2408558f6e4111feebc3cab4e16b63e967be91cde721f4c8a488b5528490557f08037d7b151cc412d25674a4e66b334d9ae9d2e5517a7feaae5cdb828bf1c62884905560007f9bfbaa59f8e10e7868f8b402de9d605a390c45ddaebd8c9de3c6f31e733c87ff8190557f251164fe1d8864fe5e86082eae9c288bc2b58695a4d28538dfe86e9e4f175585959095557fc550213cee30afd5e67ccba7be3d381bbc169034ae08eb3ec9168caca9fe55e7919091557ffb9ce45064c7e7d9bf9deb4750ba7c94ab3d6e7418c5d76bf69966d39a9d42f68390557f98ae0176de2844d118e1a6decfe92f97691bedbc578c71fc8d5c4374be77e50c9290925591527f5fae251ae169e8e40026ce4ce85a026bc3adcccdc8459be361195e4cd924077f5562000648565b600080546001600160a01b038381166001600160a01b0319831681178455604051919092169283917f8be0079c531659141344cd1fd0a4f28419497f9722a3daafe3b4186f6b6457e09190a35050565b615f6280620006586000396000f3fe608060405234801561001057600080fd5b506004361061029f5760003560e01c80638214f22211610167578063c6850f7c116100ce578063dce6c5da11610087578063dce6c5da1461068d578063ed9067fa146106ad578063f101de9a146106c0578063f10bff2b146106d3578063f2fde38b146106e6578063fa3993c2146106f957600080fd5b8063c6850f7c146105d7578063ce28613f146105f7578063d78e7d861461060a578063d8a030821461062a578063dc0b35641461064a578063dc769ee81461065d57600080fd5b80639fca1ee1116101205780639fca1ee114610558578063a99d2a8b1461056b578063aa6e80301461057e578063afd62bb214610591578063bb248667146105a4578063c06fad06146105c457600080fd5b80638214f222146104db5780638bf52bc3146104ee5780638da5cb5b14610501578063921d279914610512578063951fc3fe1461052557806397f34c3f1461054557600080fd5b806340d4fd781161020b57806364db84bf116101c457806364db84bf1461046757806364f664671461047a5780636fe99c181461048d578063715018a6146104ad5780637b45c0d4146104b55780637ddae103146104c857600080fd5b806340d4fd78146103d157806343d7c3be146103f157806346f2434b14610404578063530116961461040c57806354731422146104315780635dc969671461044457600080fd5b80631e1de2051161025d5780631e1de2051461036a5780631f7b4f3014610372578063336d7d7b146103855780633aa07d64146103985780633deaec2b146103ab5780633f090e3d146103be57600080fd5b8062e3d898146102a457806310a2cd0d146102d7578063117a5b9014610302578063175142251461032f5780631b5ac4b5146103445780631cef40f614610357575b600080fd5b6102c46102b2366004614835565b600d6020526000908152604090205481565b6040519081526020015b60405180910390f35b6002546102ea906001600160a01b031681565b6040516001600160a01b0390911681526020016102ce565b610315610310366004614850565b61070c565b6040516102ce9e9d9c9b9a99989796959493929190614893565b61034261033d366004614a7f565b6107e1565b005b6102c4610352366004614850565b610826565b610342610365366004614ab5565b610846565b6102c4610a2f565b6102c4610380366004614850565b610aa7565b6007546102ea906001600160a01b031681565b6103426103a6366004614af0565b610b03565b6003546102ea906001600160a01b031681565b6103426103cc366004614b3a565b610ed2565b6103e46103df366004614850565b611112565b6040516102ce9190614ba7565b6103426103ff366004614bba565b611203565b600b546102c4565b61041f61041a366004614b3a565b61128a565b60405160ff90911681526020016102ce565b61034261043f366004614850565b6112c7565b610457610452366004614bdc565b611441565b60405190151581526020016102ce565b6102c4610475366004614bba565b6114de565b610342610488366004614bba565b6114f6565b6104a061049b366004614850565b6115fb565b6040516102ce9190614c9d565b6103426119fc565b6009546102ea906001600160a01b031681565b6004546102ea906001600160a01b031681565b6102c46104e9366004614850565b611a10565b6103426104fc366004614e71565b611a8a565b6000546001600160a01b03166102ea565b610342610520366004614ec2565b611adc565b610538610533366004614f6b565b611b64565b6040516102ce9190614f98565b61041f610553366004614bdc565b611c8e565b6008546102ea906001600160a01b031681565b6102c4610579366004614fb6565b611cb9565b61034261058c366004614ff0565b611cea565b6103e461059f366004615029565b611dfa565b6102c46105b2366004614835565b60116020526000908152604090205481565b6005546102ea906001600160a01b031681565b6102c46105e5366004614835565b60106020526000908152604090205481565b61041f610605366004615046565b611eca565b6102c4610618366004614835565b600f6020526000908152604090205481565b61063d610638366004614850565b611f7a565b6040516102ce919061507f565b6006546102ea906001600160a01b031681565b600a546106739060ff8082169161010090041682565b6040805160ff9384168152929091166020830152016102ce565b6102c461069b366004614835565b600e6020526000908152604090205481565b6103426106bb366004614850565b612091565b6102c46106ce3660046150b5565b612e43565b6102c46106e136600461515a565b613311565b6103426106f4366004615029565b61335e565b6102c461070736600461515a565b6133d7565b600b818154811061071c57600080fd5b6000918252602091829020601390910201805460028201546003830154600484015460408051608081018252600587015460ff81811683526101008083048216848c0152620100008304821684860152630100000090920481166060840152600689015460078a015460088b015460098c01548751808901909852600a8d0154808616895286900485169d88019d909d52600f8c015460108d01546011909d0154858d169f5095909b0484169c999b989a97999598929791969095909316939091908e565b6009546001600160a01b031633146108145760405162461bcd60e51b815260040161080b90615186565b60405180910390fd5b610821838383600061349f565b505050565b60008082121561083e57610839826151ca565b610840565b815b92915050565b600a5460ff16821480156108635750600a54610100900460ff1681145b610a29576006546001600160a01b031633146108b85760405162461bcd60e51b8152602060048201526014602482015273139bdd081c1b185e595c9cc818dbdb9d1c9858dd60621b604482015260640161080b565b6000600b85815481106108cd576108cd6151e6565b90600052602060002090601302019050600081601201805490509050816012016040518060c0016040528083815260200188815260200187600881111561091657610916614869565b815260200160405180604001604052808860ff1681526020018760ff168152508152602001600d600089600881111561095157610951614869565b600881111561096257610962614869565b8152602080820192909252604090810160009081205484529282018390528454600181810187559584529282902084516006909402019283559083015182850155820151600282018054939492939192909160ff1916908360088111156109cb576109cb614869565b02179055506060820151805160038301805460209093015160ff9081166101000261ffff199094169216919091179190911790556080820151600482015560a0909101516005909101805491151560ff199290921691909117905550505b50505050565b6001805460009182610a40836151fc565b9190505550600154600143610a559190615215565b4033604051602001610a8c93929190928352602083019190915260601b6bffffffffffffffffffffffff1916604082015260540190565b60405160208183030381529060405280519060200120905090565b600080610ab660016006611eca565b60ff1690507ffe34d093a460a16ee5fb374540914d1c734a17502c0c1a87b387c8d6097e1c518382604051610af5929190918252602082015260400190565b60405180910390a192915050565b6009546001600160a01b03163314610b2d5760405162461bcd60e51b815260040161080b90615186565b6000806000600b8881548110610b4557610b456151e6565b90600052602060002090601302016012018781548110610b6757610b676151e6565b906000526020600020906006020190506000816004015411610bcb5760405162461bcd60e51b815260206004820152601960248201527f43616e27742061747461636b20646561642064656e697a656e00000000000000604482015260640161080b565b6003810154845160ff9081169116148015610bf957506003810154602085015160ff90811661010090920416145b1580610ca55750600354600b80546001600160a01b0390921691632ec6572a91908b908110610c2a57610c2a6151e6565b906000526020600020906013020160060154868460030160006040518563ffffffff1660e01b8152600401610c629493929190615228565b602060405180830381865afa158015610c7f573d6000803e3d6000fd5b505050506040513d601f19601f82011682018060405250810190610ca39190615281565b155b15610cfe5760405162461bcd60e51b815260206004820152602360248201527f4e6f7420696e20726f6f6d20616e642063616e27742073656520746f2061747460448201526261636b60e81b606482015260840161080b565b6002810154610d49908990600e9060009060ff166008811115610d2357610d23614869565b6008811115610d3457610d34614869565b81526020019081526020016000205487611441565b15610d6a5760048101805460019450906000610d648361529e565b91905055505b600481015415610ec8576003810154845160ff9081169116148015610da257506003810154602085015160ff90811661010090920416145b80610e0f57506001600282015460ff166008811115610dc357610dc3614869565b14158015610dea57506005600282015460ff166008811115610de757610de7614869565b14155b8015610e0f57506006600282015460ff166008811115610e0c57610e0c614869565b14155b15610ec857600281015460109060009060ff166008811115610e3357610e33614869565b6008811115610e4457610e44614869565b81526020810191909152604090810160009081205460065492516301ba1eb160e31b8152600481018a905260248101829052604481019290925294506001600160a01b0390911690630dd0f58890606401600060405180830381600087803b158015610eaf57600080fd5b505af1158015610ec3573d6000803e3d6000fd5b505050505b5050505050505050565b6009546001600160a01b03163314610efc5760405162461bcd60e51b815260040161080b90615186565b6000600b8581548110610f1157610f116151e6565b60009182526020909120600554604051635f87260160e01b81526004810188905260248101899052601390930290910192506001600160a01b031690635f87260190604401600060405180830381600087803b158015610f7057600080fd5b505af1158015610f84573d6000803e3d6000fd5b5050600254604051631ff77ac560e11b8152600481018790526001600160a01b039091169250633feef58a9150602401600060405180830381600087803b158015610fce57600080fd5b505af1158015610fe2573d6000803e3d6000fd5b50505050600181810154600091610ff891615215565b6001600160401b0381111561100f5761100f614959565b604051908082528060200260200182016040528015611038578160200160208202803683370190505b5090506000805b60018401548110156110af5780851461109d57836001018181548110611067576110676151e6565b9060005260206000200154838381518110611084576110846151e6565b602090810291909101015281611099816151fc565b9250505b806110a7816151fc565b91505061103f565b5081516110c590600185019060208501906146d9565b506003830180549060006110d88361529e565b909155505060018301546002840154036110f457600060028401555b600183015460000361110957825460ff191683555b50505050505050565b60606000600b8381548110611129576111296151e6565b9060005260206000209060130201600101805490506001600160401b0381111561115557611155614959565b60405190808252806020026020018201604052801561117e578160200160208202803683370190505b50905060005b81518110156111fc57600b84815481106111a0576111a06151e6565b906000526020600020906013020160010181815481106111c2576111c26151e6565b90600052602060002001548282815181106111df576111df6151e6565b6020908102919091010152806111f4816151fc565b915050611184565b5092915050565b6009546001600160a01b0316331461122d5760405162461bcd60e51b815260040161080b90615186565b6001600b8381548110611242576112426151e6565b90600052602060002090601302016012018281548110611264576112646151e6565b60009182526020909120600690910201600501805460ff19169115159190911790555050565b6000806112978686615215565b90506000836112a686846152b5565b6112b091906152e2565b90506112bc87826152f6565b979650505050505050565b6000600b82815481106112dc576112dc6151e6565b600091825260209091206013909102018054909150610100900460ff16156113465760405162461bcd60e51b815260206004820152601860248201527f43616e277420666f7263652064656e697a656e207475726e0000000000000000604482015260640161080b565b600181810154116113995760405162461bcd60e51b815260206004820152601960248201527f43616e277420666f7263652073696e676c6520706c6179657200000000000000604482015260640161080b565b80600f015481601001546113ad91906152f6565b42116113fb5760405162461bcd60e51b815260206004820152601760248201527f5374696c6c2077697468696e2074696d65206c696d6974000000000000000000604482015260640161080b565b60088101541561141057611410826000613e9a565b61143d828260010183600201548154811061142d5761142d6151e6565b9060005260206000200154613f66565b5050565b60008061144d85610aa7565b6040805187815260208101839052908101869052606081018590529091507f75b6a8325595f91135e07382840634226793c68c9e59623da7e10d7ad3d95b959060800160405180910390a1806001036114aa5760009150506114d7565b6003836114b786846152f6565b6114c19190615309565b13156114d15760019150506114d7565b60009150505b9392505050565b6000816114ec8460046152b5565b6114d791906152f6565b6000600b838154811061150b5761150b6151e6565b600091825260209091206006546013909202016007810154604051636621a42160e01b815260048101919091529092506001600160a01b0390911690636621a42190602401602060405180830381865afa15801561156d573d6000803e3d6000fd5b505050506040513d601f19601f820116820180604052508101906115919190615334565b6001600160a01b0316336001600160a01b0316146115f15760405162461bcd60e51b815260206004820152601960248201527f4576656e74206e6f7420666f7220796f757220706c6179657200000000000000604482015260640161080b565b6108218383613e9a565b611603614724565b600b8281548110611616576116166151e6565b600091825260209182902060408051610280810182526013909302909101805460ff8082161515855261010090910416151583850152600181018054835181870281018701855281815294959294938601939283018282801561169857602002820191906000526020600020905b815481526020019060010190808311611684575b505050918352505060028201546020808301919091526003830154604080840191909152600484015460608085019190915281516080818101845260058088015460ff808216855261010080830482169886019890985262010000820481169685019690965263010000009004851693830193909352850152600685015460a0850152600785015460c0850152600885015460e08501526009850154929093019291169081111561174b5761174b614869565b600581111561175c5761175c614869565b8152604080518082018252600a84015460ff80821683526101009091041660208281019190915280840191909152600b840180548351818402810184018552818152939094019390918301828280156117d457602002820191906000526020600020905b8154815260200190600101908083116117c0575b50505050508152602001600c820180548060200260200160405190810160405280929190818152602001828054801561182c57602002820191906000526020600020905b815481526020019060010190808311611818575b50505050508152602001600d820180548060200260200160405190810160405280929190818152602001828054801561188457602002820191906000526020600020905b815481526020019060010190808311611870575b50505050508152602001600e82018054806020026020016040519081016040528092919081815260200182805480156118dc57602002820191906000526020600020905b8154815260200190600101908083116118c8575b50505050508152602001600f8201548152602001601082015481526020016011820154815260200160128201805480602002602001604051908101604052809291908181526020016000905b828210156119ee57838290600052602060002090600602016040518060c001604052908160008201548152602001600182015481526020016002820160009054906101000a900460ff16600881111561198357611983614869565b600881111561199457611994614869565b8152604080518082018252600384015460ff80821683526101009091048116602083810191909152808501929092526004850154928401929092526005909301541615156060909101529082526001929092019101611928565b505050915250909392505050565b611a04614042565b611a0e600061409c565b565b600081600003611a2257506001919050565b81600103611a3257506000919050565b81600203611a4257506003919050565b81600303611a5257506002919050565b60405162461bcd60e51b815260206004820152600d60248201526c2130b2103234b932b1ba34b7b760991b604482015260640161080b565b6000546001600160a01b03163314611ad05760405162461bcd60e51b81526020600482015260096024820152682737ba1037bbb732b960b91b604482015260640161080b565b610a298484848461349f565b611ae4614042565b600280546001600160a01b03199081166001600160a01b039a8b1617909155600380548216978a169790971790965560078054871695891695909517909455600980548616938816939093179092556004805485169187169190911790556005805484169186169190911790556006805490921693169290921790915550565b604080518082019091526000808252602082015282600003611bb657604051806040016040528060018460000151611b9c9190615351565b60ff168152602001836020015160ff168152509050610840565b82600103611bda57604051806040016040528083600001516001611b9c919061536a565b82600203611c17576040518060400160405280836000015160ff16815260200183602001516001611c0b919061536a565b60ff1690529050610840565b82600303611c48576040518060400160405280836000015160ff16815260200160018460200151611c0b9190615351565b6000611c53846140ec565b604051602001611c6391906153a7565b60405160208183030381529060405290508060405162461bcd60e51b815260040161080b91906153e2565b600080826001611c9f8660026154f9565b611ca99190615215565b901b8516831c9150509392505050565b600c6020528160005260406000208181548110611cd557600080fd5b90600052602060002001600091509150505481565b6009546001600160a01b03163314611d145760405162461bcd60e51b815260040161080b90615186565b80611d785760065460405163ce93229760e01b8152600481018490526001600160a01b039091169063ce93229790602401600060405180830381600087803b158015611d5f57600080fd5b505af1158015611d73573d6000803e3d6000fd5b505050505b6006546040516347d0e3c960e01b8152600481018490526000916001600160a01b0316906347d0e3c990602401602060405180830381865afa158015611dc2573d6000803e3d6000fd5b505050506040513d601f19601f82011682018060405250810190611de69190615505565b905060038110610a2957610a298484613f66565b6001600160a01b0381166000908152600c6020526040812054606091906001600160401b03811115611e2e57611e2e614959565b604051908082528060200260200182016040528015611e57578160200160208202803683370190505b50905060005b81518110156111fc576001600160a01b0384166000908152600c60205260409020805482908110611e9057611e906151e6565b9060005260206000200154828281518110611ead57611ead6151e6565b602090810291909101015280611ec2816151fc565b915050611e5d565b6001805460009182611edb836151fc565b9190505550600033600154600143611ef39190615215565b60405160609390931b6bffffffffffffffffffffffff19166020840152603483019190915240605482015260740160408051601f19818403018152919052805160209091012090506000611f478585615351565b611f5290600161536a565b90508460ff168160ff1683611f67919061551e565b611f7191906152f6565b95945050505050565b6060600b8281548110611f8f57611f8f6151e6565b9060005260206000209060130201601201805480602002602001604051908101604052809291908181526020016000905b8282101561208657838290600052602060002090600602016040518060c001604052908160008201548152602001600182015481526020016002820160009054906101000a900460ff16600881111561201b5761201b614869565b600881111561202c5761202c614869565b8152604080518082018252600384015460ff80821683526101009091048116602083810191909152808501929092526004850154928401929092526005909301541615156060909101529082526001929092019101611fc0565b505050509050919050565b6000600b82815481106120a6576120a66151e6565b600091825260208220600354601392909202016006810154604051630f78220b60e11b815260048101919091529093506001600160a01b0390911690631ef0441690602401600060405180830381865afa158015612108573d6000803e3d6000fd5b505050506040513d6000823e601f3d908101601f1916820160405261213091908101906155aa565b60018301549091506000906001600160401b0381111561215257612152614959565b60405190808252806020026020018201604052801561225657816020015b612243604080516101c081018252600080825260208083018290528284018290528351610100810185528281528082018390528085018390526060808201849052608080830185905260a080840186905260c0840186905260e0840186905291860192909252855180870187528481528084018590529185019190915284518086019095528285529084019190915290919082019081526000602082018190526040820181905260608083018290526080830182905260a083015260c0820181905260e082018190526101009091015290565b8152602001906001900390816121705790505b50905060005b815181101561232f576006546001850180546001600160a01b03909216916310f67fb3919084908110612291576122916151e6565b90600052602060002001546040518263ffffffff1660e01b81526004016122ba91815260200190565b600060405180830381865afa1580156122d7573d6000803e3d6000fd5b505050506040513d6000823e601f3d908101601f191682016040526122ff91908101906158bf565b828281518110612311576123116151e6565b60200260200101819052508080612327906151fc565b91505061225c565b506000600b8581548110612345576123456151e6565b9060005260206000209060130201601201905060005b8154811015612e32576000828281548110612378576123786151e6565b90600052602060002090600602019050806004015460000361239a5750612e20565b60038101548551869160ff169081106123b5576123b56151e6565b60200260200101518160030160000160019054906101000a900460ff1660ff16815181106123e5576123e56151e6565b602002602001015160c001511561240e576004810180549060006124088361529e565b91905055505b80600401546000036124205750612e20565b61270f60001960005b865181101561252957600a54875160ff9091169088908390811061244f5761244f6151e6565b6020026020010151608001516000015160ff161480156124a05750600a54875161010090910460ff169088908390811061248b5761248b6151e6565b6020026020010151608001516020015160ff16145b6125175760408051808201909152600385015460ff808216835261010090910416602082015287516000916124f2918a90859081106124e1576124e16151e6565b602002602001015160800151613311565b90508060000361250757819350809250612515565b828111612515578193508092505b505b80612521816151fc565b915050612429565b508161270f0361253b57505050612e20565b6001600284015460ff16600881111561255657612556614869565b03612752578060000361259057612588898488858151811061257a5761257a6151e6565b6020026020010151846141f4565b505050612e20565b600160005260116020527f17bc176d2408558f6e4111feebc3cab4e16b63e967be91cde721f4c8a488b552548111612752576003805460068a015488516001600160a01b03909216926345e1e03c92908701908a90879081106125f5576125f56151e6565b60200260200101516080015160006001601160006001600881111561261c5761261c614869565b600881111561262d5761262d614869565b8152602001908152602001600020546040518763ffffffff1660e01b815260040161265d96959493929190615a0a565b6040805180830381865afa158015612679573d6000803e3d6000fd5b505050506040513d601f19601f8201168201806040525081019061269d9190615a58565b805160038501805460209093015160ff9081166101000261ffff1990941692169190911791909117905585518690839081106126db576126db6151e6565b60209081029190910101516080015151600384015460ff90811691161480156127365750858281518110612711576127116151e6565b6020908102919091018101516080015101516003840154610100900460ff9081169116145b1561258857612588898488858151811061257a5761257a6151e6565b60028084015460ff16600881111561276c5761276c614869565b036129f9578060000361293c576003546040516369568fd560e01b8152600481018b90526000916001600160a01b0316906369568fd590602401600060405180830381865afa1580156127c3573d6000803e3d6000fd5b505050506040513d6000823e601f3d908101601f191682016040526127eb9190810190615a74565b905060005b600481101561290c57600282828151811061280d5761280d6151e6565b602002602001015160400151600481111561282a5761282a614869565b148061286457506001828281518110612845576128456151e6565b602002602001015160400151600481111561286257612862614869565b145b8061289d5750600382828151811061287e5761287e6151e6565b602002602001015160400151600481111561289b5761289b614869565b145b156128fa5760408051808201909152600386015460ff80821683526101009091041660208201526128cf908290611b64565b805160038701805460209093015160ff9081166101000261ffff199094169216919091179190911790555b80612904816151fc565b9150506127f0565b506129338a85898681518110612924576129246151e6565b602002602001015160016141f4565b50505050612e20565b6003805460068a015488516001600160a01b0390921692632ec6572a92908701908a908790811061296f5761296f6151e6565b60200260200101516080015160006040518563ffffffff1660e01b815260040161299c9493929190615b51565b602060405180830381865afa1580156129b9573d6000803e3d6000fd5b505050506040513d601f19601f820116820180604052508101906129dd9190615281565b156129f957612588898488858151811061257a5761257a6151e6565b6003600284015460ff166008811115612a1457612a14614869565b03612ae25761270f81108015612ac657506003805460068a015488516001600160a01b0390921692632ec6572a92908701908a9087908110612a5857612a586151e6565b60200260200101516080015160016040518563ffffffff1660e01b8152600401612a859493929190615b51565b602060405180830381865afa158015612aa2573d6000803e3d6000fd5b505050506040513d601f19601f82011682018060405250810190612ac69190615281565b15612ae257612588898488858151811061257a5761257a6151e6565b6004600284015460ff166008811115612afd57612afd614869565b03612e1c5780600003612b2157612588898488858151811061257a5761257a6151e6565b600460005260116020527f251164fe1d8864fe5e86082eae9c288bc2b58695a4d28538dfe86e9e4f175585548111612c5f576003805460068a015488516001600160a01b03909216926345e1e03c92908701908a9087908110612b8657612b866151e6565b602002602001015160800151600160006011600060046008811115612bad57612bad614869565b6008811115612bbe57612bbe614869565b8152602001908152602001600020546040518763ffffffff1660e01b8152600401612bee96959493929190615a0a565b6040805180830381865afa158015612c0a573d6000803e3d6000fd5b505050506040513d601f19601f82011682018060405250810190612c2e9190615a58565b80516003909401805460209092015160ff9081166101000261ffff199093169516949094171790925550612e209050565b61270f811015612e0a576003805460068a015488516001600160a01b03909216926345e1e03c92908701908a9087908110612c9c57612c9c6151e6565b602002602001015160800151600160006011600060046008811115612cc357612cc3614869565b6008811115612cd457612cd4614869565b8152602001908152602001600020546040518763ffffffff1660e01b8152600401612d0496959493929190615a0a565b6040805180830381865afa158015612d20573d6000803e3d6000fd5b505050506040513d601f19601f82011682018060405250810190612d449190615a58565b80516003808601805460209094015160ff9081166101000261ffff19909516931692909217929092178155905460068a015488516001600160a01b0390921692632ec6572a928a9087908110612d9c57612d9c6151e6565b60200260200101516080015160016040518563ffffffff1660e01b8152600401612dc99493929190615b51565b602060405180830381865afa158015612de6573d6000803e3d6000fd5b505050506040513d601f19601f820116820180604052508101906127369190615281565b61270f811015612e1c57505050612e20565b5050505b80612e2a816151fc565b91505061235b565b5050825461ff001916909255505050565b6007546000906001600160a01b03163314612e955760405162461bcd60e51b8152602060048201526012602482015271139bdd081b1bd8989e4818dbdb9d1c9858dd60721b604482015260640161080b565b600b80546001818101808455600093845260139092027f0175b7a638427703f0dbe7bb9bbf987a2551717b34e79f33b5b1008d1fa01db9019291612ed99190615215565b825460ff191660019081178455600060048501558751919250612f04919084019060208901906146d9565b50600382018590556040805160808101825260008082526020820181905291810182905260600181905260058301805463ffffffff19169055849003612fc757600360009054906101000a90046001600160a01b03166001600160a01b031663f01fc35a6040518163ffffffff1660e01b81526004016020604051808303816000875af1158015612f99573d6000803e3d6000fd5b505050506040513d601f19601f82011682018060405250810190612fbd9190615505565b600683015561303c565b60035460405163148e052f60e21b8152600481018690526001600160a01b039091169063523814bc906024016020604051808303816000875af1158015613012573d6000803e3d6000fd5b505050506040513d601f19601f820116820180604052508101906130369190615505565b60068301555b60005b61304a600187615215565b811161317257600683015460408051808201909152600a5460ff80821683526101009091041660208201526001850180546130a49392919085908110613092576130926151e6565b9060005260206000200154600061349f565b60065487516000916001600160a01b031690636621a421908a90859081106130ce576130ce6151e6565b60200260200101516040518263ffffffff1660e01b81526004016130f491815260200190565b602060405180830381865afa158015613111573d6000803e3d6000fd5b505050506040513d601f19601f820116820180604052508101906131359190615334565b6001600160a01b03166000908152600c6020908152604082208054600181018255908352912001839055508061316a816151fc565b91505061303f565b5060065460405163e7169ec560e01b81526001600160a01b039091169063e7169ec5906131a59089908590600401615b8c565b600060405180830381600087803b1580156131bf57600080fd5b505af11580156131d3573d6000803e3d6000fd5b5050600554604051633b09709560e21b81526001600160a01b03909116925063ec25c25491506132099084908a90600401615bae565b600060405180830381600087803b15801561322357600080fd5b505af1158015613237573d6000803e3d6000fd5b505050506000604051806101e00160405280600181526020016002815260200160038152602001600481526020016005815260200160068152602001600781526020016008815260200160098152602001600a8152602001600b8152602001600c8152602001600d8152602001600e8152602001600f81525090508083600b0190600f6132c59291906146d9565b506132d5600c840182600f6146d9565b506132e5600d840182600f6146d9565b506132f5600e840182600f6146d9565b505061012c600f83015542601090920191909155949350505050565b600080613331836000015160000b856000015160000b6103529190615309565b90506000613352846020015160000b866020015160000b6103529190615309565b9050611f7181836152f6565b613366614042565b6001600160a01b0381166133cb5760405162461bcd60e51b815260206004820152602660248201527f4f776e61626c653a206e6577206f776e657220697320746865207a65726f206160448201526564647265737360d01b606482015260840161080b565b6133d48161409c565b50565b805182516000916133e791615bc7565b60000b6001036133f957506000610840565b815183516134079190615bc7565b60000b1961341757506001610840565b8160200151836020015161342b9190615bc7565b60000b1961343b57506002610840565b8160200151836020015161344f9190615bc7565b60000b60010361346157506003610840565b60405162461bcd60e51b8152602060048201526013602482015272115c9c9bdc8e88139bdd0818591a9858d95b9d606a1b604482015260640161080b565b6000600b85815481106134b4576134b46151e6565b90600052602060002090601302019050806001016000815481106134da576134da6151e6565b9060005260206000200154831480613511575080600101600181548110613503576135036151e6565b906000526020600020015483145b8061353b57508060010160028154811061352d5761352d6151e6565b906000526020600020015483145b80613565575080600101600381548110613557576135576151e6565b906000526020600020015483145b6135b15760405162461bcd60e51b815260206004820152601760248201527f506c61796572206e6f7420696e20746869732067616d65000000000000000000604482015260640161080b565b600654600b80546001600160a01b0390921691638d491b3e9187918791908a9081106135df576135df6151e6565b9060005260206000209060130201600601546040518463ffffffff1660e01b815260040161360f93929190615be8565b6020604051808303816000875af115801561362e573d6000803e3d6000fd5b505050506040513d601f19601f820116820180604052508101906136529190615281565b613e9357600354600b80546000926001600160a01b0316916381bad36d9189908110613680576136806151e6565b90600052602060002090601302016006015487600001518860200151876040518563ffffffff1660e01b81526004016136d6949392919093845260ff928316602085015291166040830152606082015260800190565b6020604051808303816000875af11580156136f5573d6000803e3d6000fd5b505050506040513d601f19601f820116820180604052508101906137199190615505565b600354600b80549293506000926001600160a01b0390921691635805828391908a908110613749576137496151e6565b906000526020600020906013020160060154846040518363ffffffff1660e01b8152600401613782929190918252602082015260400190565b60a060405180830381865afa15801561379f573d6000803e3d6000fd5b505050506040513d601f19601f820116820180604052508101906137c39190615c17565b90506002821180156137e857506000815160058111156137e5576137e5614869565b14155b156111095760018151600581111561380257613802614869565b0361385557600b878154811061381a5761381a6151e6565b600091825260208220600560139092020101805460ff169161383b83615ca9565b91906101000a81548160ff021916908360ff160217905550505b60028151600581111561386a5761386a614869565b036138c557600b8781548110613882576138826151e6565b600091825260209091206013909102016005018054610100900460ff169060016138ab83615ca9565b91906101000a81548160ff021916908360ff160217905550505b6003815160058111156138da576138da614869565b0361393657600b87815481106138f2576138f26151e6565b60009182526020909120601390910201600501805462010000900460ff1690600261391c83615ca9565b91906101000a81548160ff021916908360ff160217905550505b60048151600581111561394b5761394b614869565b036139a857600b8781548110613963576139636151e6565b6000918252602090912060139091020160050180546301000000900460ff1690600361398e83615ca9565b91906101000a81548160ff021916908360ff160217905550505b602081015115613b275760048054602083015160405163c82c37b960e01b8152928301526000916001600160a01b039091169063c82c37b990602401600060405180830381865afa158015613a01573d6000803e3d6000fd5b505050506040513d6000823e601f3d908101601f19168201604052613a299190810190615d55565b90508060200151613b215785600b8981548110613a4857613a486151e6565b9060005260206000209060130201600701819055508160200151600b8981548110613a7557613a756151e6565b9060005260206000209060130201600801819055506005600b8981548110613a9f57613a9f6151e6565b60009182526020909120600960139092020101805460ff19166001836005811115613acc57613acc614869565b021790555086600b8981548110613ae557613ae56151e6565b60009182526020918290208351600a6013909302909101919091018054939092015160ff9081166101000261ffff199094169116179190911790555b50611109565b600081516005811115613b3c57613b3c614869565b146111095784600b8881548110613b5557613b556151e6565b90600052602060002090601302016007018190555085600b8881548110613b7e57613b7e6151e6565b60009182526020918290208351600a6013909302909101919091018054939092015160ff9081166101000261ffff19909416911617919091179055600181516005811115613bce57613bce614869565b03613c6f57613bff600b8881548110613be957613be96151e6565b9060005260206000209060130201600b01614435565b600b8881548110613c1257613c126151e6565b9060005260206000209060130201600801819055506001600b8881548110613c3c57613c3c6151e6565b60009182526020909120600960139092020101805460ff19166001836005811115613c6957613c69614869565b02179055505b600281516005811115613c8457613c84614869565b03613d2557613cb5600b8881548110613c9f57613c9f6151e6565b9060005260206000209060130201600c01614435565b600b8881548110613cc857613cc86151e6565b9060005260206000209060130201600801819055506002600b8881548110613cf257613cf26151e6565b60009182526020909120600960139092020101805460ff19166001836005811115613d1f57613d1f614869565b02179055505b600381516005811115613d3a57613d3a614869565b03613ddb57613d6b600b8881548110613d5557613d556151e6565b9060005260206000209060130201600d01614435565b600b8881548110613d7e57613d7e6151e6565b9060005260206000209060130201600801819055506003600b8881548110613da857613da86151e6565b60009182526020909120600960139092020101805460ff19166001836005811115613dd557613dd5614869565b02179055505b600481516005811115613df057613df0614869565b0361110957613e21600b8881548110613e0b57613e0b6151e6565b9060005260206000209060130201600e01614435565b600b8881548110613e3457613e346151e6565b9060005260206000209060130201600801819055506004600b8881548110613e5e57613e5e6151e6565b60009182526020909120600960139092020101805460ff19166001836005811115613e8b57613e8b614869565b021790555050505b5050505050565b6000600b8381548110613eaf57613eaf6151e6565b6000918252602090912060068054601390930290910160078101549181015460088201546009830154604051636d291bbb60e01b81529396506001600160a01b0390951694636d291bbb94613f1794899491938b93600a8b019260ff90911690600401615e46565b600060405180830381600087803b158015613f3157600080fd5b505af1158015613f45573d6000803e3d6000fd5b505060006007840181905560088401555050600901805460ff191690555050565b6000600b8381548110613f7b57613f7b6151e6565b6000918252602090912060065460405163065c363f60e41b815260048101869052601390930290910192506001600160a01b0316906365c363f090602401600060405180830381600087803b158015613fd357600080fd5b505af1158015613fe7573d6000803e3d6000fd5b505042601084015550506001808201546140019190615215565b816002015410156140285760028101805490600061401e836151fc565b9190505550505050565b61403683826006015461455b565b60006002820155505050565b6000546001600160a01b03163314611a0e5760405162461bcd60e51b815260206004820181905260248201527f4f776e61626c653a2063616c6c6572206973206e6f7420746865206f776e6572604482015260640161080b565b600080546001600160a01b038381166001600160a01b0319831681178455604051919092169283917f8be0079c531659141344cd1fd0a4f28419497f9722a3daafe3b4186f6b6457e09190a35050565b6060816000036141135750506040805180820190915260018152600360fc1b602082015290565b8160005b811561413d5780614127816151fc565b91506141369050600a836152e2565b9150614117565b6000816001600160401b0381111561415757614157614959565b6040519080825280601f01601f191660200182016040528015614181576020820181803683370190505b5090505b84156141ec57614196600183615215565b91506141a3600a8661551e565b6141ae9060306152f6565b60f81b8183815181106141c3576141c36151e6565b60200101906001600160f81b031916908160001a9053506141e5600a866152e2565b9450614185565b949350505050565b6002830154600090819061424e908790600f90849060ff16600881111561421d5761421d614869565b600881111561422e5761422e614869565b81526020019081526020016000205486606001516040015160ff16611441565b1561430a57600285015460109060009060ff16600881111561427257614272614869565b600881111561428357614283614869565b8152602081019190915260409081016000908120546006548784015193516301ba1eb160e31b8152600481019490945260248401829052604484019290925293506001600160a01b031690630dd0f58890606401600060405180830381600087803b1580156142f157600080fd5b505af1158015614305573d6000803e3d6000fd5b505050505b82158061431c5750836060015160e001515b156143e35760008360000361436757846060015160a0015160000b856060015160c0015160000b1361435657846060015160a00151614360565b846060015160c001515b9050614372565b50606084015160a001515b60028601546143c090889060ff80851691600e9160009116600881111561439b5761439b614869565b60088111156143ac576143ac614869565b815260200190815260200160002054611441565b156143e157600486018054600193509060006143db8361529e565b91905055505b505b600285015460408086015190517f2c06d3c7e90d9433476801f525a02398c92e854375485994f9c38ba874f3ef1b926144259260ff9091169186908690615e9a565b60405180910390a1505050505050565b8054600090819061444890600190615215565b90505b80156144f857600061445e600083611eca565b9050838160ff1681548110614475576144756151e6565b9060005260206000200154848381548110614492576144926151e6565b90600052602060002001548584815481106144af576144af6151e6565b906000526020600020016000878560ff16815481106144d0576144d06151e6565b60009182526020909120019290925591909155508190506144f08161529e565b91505061444b565b508154600090839061450c90600190615215565b8154811061451c5761451c6151e6565b906000526020600020015490508280548061453957614539615ec3565b600190038181906000526020600020016000905590558060ff16915050919050565b6000600b8381548110614570576145706151e6565b90600052602060002090601302019050806004016000815480929190614595906151fc565b9091555050600354604051630b06115560e31b8152600481018490526001600160a01b03909116906358308aa890602401600060405180830381600087803b1580156145e057600080fd5b505af11580156145f4573d6000803e3d6000fd5b505060035460405163c6b41b4560e01b815260048101869052600160248201526001600160a01b03909116925063c6b41b459150604401600060405180830381600087803b15801561464557600080fd5b505af1158015614659573d6000803e3d6000fd5b5050600680549084015460405163668a7f3b60e01b81526001600160a01b03909216935063668a7f3b9250614695916001860190600401615ed9565b600060405180830381600087803b1580156146af57600080fd5b505af11580156146c3573d6000803e3d6000fd5b5050825461ff0019166101001790925550505050565b828054828255906000526020600020908101928215614714579160200282015b828111156147145782518255916020019190600101906146f9565b5061472092915061480c565b5090565b6040805161028081018252600080825260208083018290526060838501819052808401839052608080850184905260a0850184905285519081018652838152918201839052938101829052928301529060c08201908152602001600081526020016000815260200160008152602001600060058111156147a6576147a6614869565b81526020016147ce6040518060400160405280600060ff168152602001600060ff1681525090565b815260200160608152602001606081526020016060815260200160608152602001600081526020016000815260200160008152602001606081525090565b5b80821115614720576000815560010161480d565b80356009811061483057600080fd5b919050565b60006020828403121561484757600080fd5b6114d782614821565b60006020828403121561486257600080fd5b5035919050565b634e487b7160e01b600052602160045260246000fd5b6006811061488f5761488f614869565b9052565b6000610240820190508f151582528e151560208301528d60408301528c60608301528b60808301526148f560a083018c60ff815116825260ff602082015116602083015260ff604082015116604083015260ff60608201511660608301525050565b89610120830152886101408301528761016083015261491861018083018861487f565b855160ff9081166101a08401526020870151166101c0830152846101e083015283610200830152826102208301529f9e505050505050505050505050505050565b634e487b7160e01b600052604160045260246000fd5b604080519081016001600160401b038111828210171561499157614991614959565b60405290565b60405160e081016001600160401b038111828210171561499157614991614959565b6040516101c081016001600160401b038111828210171561499157614991614959565b604051606081016001600160401b038111828210171561499157614991614959565b604051601f8201601f191681016001600160401b0381118282101715614a2657614a26614959565b604052919050565b60ff811681146133d457600080fd5b600060408284031215614a4f57600080fd5b614a5761496f565b90508135614a6481614a2e565b81526020820135614a7481614a2e565b602082015292915050565b600080600060808486031215614a9457600080fd5b83359250614aa58560208601614a3d565b9150606084013590509250925092565b60008060008060808587031215614acb57600080fd5b84359350614adb60208601614821565b93969395505050506040820135916060013590565b600080600080600060c08688031215614b0857600080fd5b85359450602086013593506040860135925060608601359150614b2e8760808801614a3d565b90509295509295909350565b60008060008060808587031215614b5057600080fd5b5050823594602084013594506040840135936060013592509050565b600081518084526020808501945080840160005b83811015614b9c57815187529582019590820190600101614b80565b509495945050505050565b6020815260006114d76020830184614b6c565b60008060408385031215614bcd57600080fd5b50508035926020909101359150565b600080600060608486031215614bf157600080fd5b505081359360208301359350604090920135919050565b6009811061488f5761488f614869565b600081518084526020808501945080840160005b83811015614b9c578151805188528381015184890152604080820151614c54828b0182614c08565b5050606081810151805160ff9081168b84015260208201511660808b01525050608081015160a0898101919091520151151560c088015260e09096019590820190600101614c2c565b60208152614cb060208201835115159052565b60006020830151614cc5604084018215159052565b506040830151610300806060850152614ce2610320850183614b6c565b915060608501516080850152608085015160a085015260a085015160c085015260c0850151614d4160e086018260ff815116825260ff602082015116602083015260ff604082015116604083015260ff60608201511660608301525050565b5060e085015161016081818701526101008701519150610180828188015261012088015192506101a0838189015261014089015193506101c0614d86818a018661487f565b9289015193506101e092614dac89850186805160ff908116835260209182015116910152565b828a01519450601f199250610220838a890301818b0152614dcd8887614b6c565b9750828b015195506102409250838a890301838b0152614ded8887614b6c565b9750818b015195506102609150838a890301828b0152614e0d8887614b6c565b9750848b01519550838a8903016102808b0152614e2a8887614b6c565b6102008c01516102a08c0152908b01516102c08b0152918a01516102e08a01528901518882039092018589015294509150614e6790508382614c18565b9695505050505050565b60008060008060a08587031215614e8757600080fd5b84359350614e988660208701614a3d565b93969395505050506060820135916080013590565b6001600160a01b03811681146133d457600080fd5b600080600080600080600080610100898b031215614edf57600080fd5b8835614eea81614ead565b97506020890135614efa81614ead565b96506040890135614f0a81614ead565b95506060890135614f1a81614ead565b94506080890135614f2a81614ead565b935060a0890135614f3a81614ead565b925060c0890135614f4a81614ead565b915060e0890135614f5a81614ead565b809150509295985092959890939650565b60008060608385031215614f7e57600080fd5b82359150614f8f8460208501614a3d565b90509250929050565b604081016108408284805160ff908116835260209182015116910152565b60008060408385031215614fc957600080fd5b8235614fd481614ead565b946020939093013593505050565b80151581146133d457600080fd5b60008060006060848603121561500557600080fd5b8335925060208401359150604084013561501e81614fe2565b809150509250925092565b60006020828403121561503b57600080fd5b81356114d781614ead565b6000806040838503121561505957600080fd5b823561506481614a2e565b9150602083013561507481614a2e565b809150509250929050565b6020815260006114d76020830184614c18565b60006001600160401b038211156150ab576150ab614959565b5060051b60200190565b6000806000606084860312156150ca57600080fd5b83356001600160401b038111156150e057600080fd5b8401601f810186136150f157600080fd5b8035602061510661510183615092565b6149fe565b82815260059290921b8301810191818101908984111561512557600080fd5b938201935b838510156151435784358252938201939082019061512a565b999188013598505060409096013595945050505050565b6000806080838503121561516d57600080fd5b6151778484614a3d565b9150614f8f8460408501614a3d565b602080825260149082015273139bdd081858dd1a5bdb9cc818dbdb9d1c9858dd60621b604082015260600190565b634e487b7160e01b600052601160045260246000fd5b6000600160ff1b82016151df576151df6151b4565b5060000390565b634e487b7160e01b600052603260045260246000fd5b60006001820161520e5761520e6151b4565b5060010190565b81810381811115610840576108406151b4565b84815260c0810161524c6020830186805160ff908116835260209182015116910152565b835460ff808216606085015260089190911c1660808301525b82151560a083015295945050505050565b805161483081614fe2565b60006020828403121561529357600080fd5b81516114d781614fe2565b6000816152ad576152ad6151b4565b506000190190565b8082028115828204841417610840576108406151b4565b634e487b7160e01b600052601260045260246000fd5b6000826152f1576152f16152cc565b500490565b80820180821115610840576108406151b4565b81810360008312801583831316838312821617156111fc576111fc6151b4565b805161483081614ead565b60006020828403121561534657600080fd5b81516114d781614ead565b60ff8281168282160390811115610840576108406151b4565b60ff8181168382160190811115610840576108406151b4565b60005b8381101561539e578181015183820152602001615386565b50506000910152565b72024b73b30b634b2103234b932b1ba34b7b71d1606d1b8152600082516153d5816013850160208701615383565b9190910160130192915050565b6020815260008251806020840152615401816040850160208701615383565b601f01601f19169190910160400192915050565b600181815b80851115615450578160001904821115615436576154366151b4565b8085161561544357918102915b93841c939080029061541a565b509250929050565b60008261546757506001610840565b8161547457506000610840565b816001811461548a5760028114615494576154b0565b6001915050610840565b60ff8411156154a5576154a56151b4565b50506001821b610840565b5060208310610133831016604e8410600b84101617156154d3575081810a610840565b6154dd8383615415565b80600019048211156154f1576154f16151b4565b029392505050565b60006114d78383615458565b60006020828403121561551757600080fd5b5051919050565b60008261552d5761552d6152cc565b500690565b805161483081614a2e565b600082601f83011261554e57600080fd5b604051608081018181106001600160401b038211171561557057615570614959565b60405280608084018581111561558557600080fd5b845b8181101561559f578051835260209283019201615587565b509195945050505050565b600060208083850312156155bd57600080fd5b82516001600160401b03808211156155d457600080fd5b818501915085601f8301126155e857600080fd5b81516155f661510182615092565b81815260059190911b8301840190848101908883111561561557600080fd5b8585015b838110156157325780518581111561563057600080fd5b8601603f81018b1361564157600080fd5b8781015161565161510182615092565b818152610140909102820160400190898101908d83111561567157600080fd5b6040840193505b8284101561572257610140848f03121561569157600080fd5b615699614997565b84516156a481614a2e565b8152848c01516156b381614a2e565b818d01526156c48f6040870161553d565b60408201526156d560c08601615276565b60608201526156e660e08601615276565b60808201526156f86101008601615276565b60a082015261570a6101208601615276565b60c082015282526101409390930192908a0190615678565b8652505050918601918601615619565b5098975050505050505050565b8051600081900b811461483057600080fd5b600061010080838503121561576557600080fd5b604051908101906001600160401b038211818310171561578757615787614959565b816040528092506157978461573f565b81526157a56020850161573f565b60208201526157b66040850161573f565b60408201526157c76060850161573f565b60608201526157d86080850161573f565b60808201526157e960a0850161573f565b60a08201526157fa60c0850161573f565b60c082015260e0840151915061580f82614fe2565b60e0015292915050565b60006040828403121561582b57600080fd5b61583361496f565b9050815161584081614a2e565b81526020820151614a7481614a2e565b600082601f83011261586157600080fd5b8151602061587161510183615092565b82815260059290921b8401810191818101908684111561589057600080fd5b8286015b848110156158b45780516158a781614a2e565b8352918301918301615894565b509695505050505050565b6000602082840312156158d157600080fd5b81516001600160401b03808211156158e857600080fd5b908301906102e082860312156158fd57600080fd5b6159056149b9565b61590e83615329565b815260208301516020820152604083015160408201526159318660608501615751565b606082015261016061594587828601615819565b60808301526101a061595988828701615819565b60a084015261596b6101e0860161573f565b60c084015261597d6102008601615532565b60e084015261598f6102208601615532565b6101008401526159a26102408601615532565b610120840152610260850151848111156159bb57600080fd5b6159c789828801615850565b610140850152506159db6102808601615532565b828401526159ec6102a08601615276565b6101808401526102c085015181840152505080935050505092915050565b958652935460ff80821660208089019190915260089290921c811660408801528451811660608801529301519092166080850152151560a0840152151560c083015260e08201526101000190565b600060408284031215615a6a57600080fd5b6114d78383615819565b60006020808385031215615a8757600080fd5b82516001600160401b03811115615a9d57600080fd5b8301601f81018513615aae57600080fd5b8051615abc61510182615092565b81815260609182028301840191848201919088841115615adb57600080fd5b938501935b83851015615b455780858a031215615af85760008081fd5b615b006149dc565b8551615b0b81614a2e565b815285870151615b1a81614a2e565b8188015260408681015160058110615b325760008081fd5b9082015283529384019391850191615ae0565b50979650505050505050565b848152835460ff808216602084015260089190911c16604082015260c08101835160ff90811660608401526020850151166080830152615265565b604081526000615b9f6040830185614b6c565b90508260208301529392505050565b8281526040602082015260006141ec6040830184614b6c565b600082810b9082900b03607f198112607f82131715610840576108406151b4565b60808101615c068286805160ff908116835260209182015116910152565b604082019390935260600152919050565b600060a08284031215615c2957600080fd5b60405160a081018181106001600160401b0382111715615c4b57615c4b614959565b604052825160068110615c5d57600080fd5b8152602083810151908201526040830151615c7781614a2e565b60408201526060830151615c8a81614a2e565b60608201526080830151615c9d81614fe2565b60808201529392505050565b600060ff821660ff8103615cbf57615cbf6151b4565b60010192915050565b600082601f830112615cd957600080fd5b81516020615ce961510183615092565b82815260069290921b84018101918181019086841115615d0857600080fd5b8286015b848110156158b45760408189031215615d255760008081fd5b615d2d61496f565b815160178110615d3d5760008081fd5b81528185015185820152835291830191604001615d0c565b600060208284031215615d6757600080fd5b81516001600160401b0380821115615d7e57600080fd5b9083019060e08286031215615d9257600080fd5b615d9a614997565b82518152615daa60208401615276565b6020820152615dbb60408401615532565b6040820152615dcc60608401615532565b6060820152608083015182811115615de357600080fd5b615def87828601615cc8565b60808301525060a083015182811115615e0757600080fd5b615e1387828601615cc8565b60a08301525060c083015182811115615e2b57600080fd5b615e3787828601615cc8565b60c08301525095945050505050565b878152602081018790526040810186905260608101859052835460ff808216608084015260089190911c1660a082015261010081018360c0830152615e8e60e083018461487f565b98975050505050505050565b60808101615ea88287614c08565b84602083015283604083015282606083015295945050505050565b634e487b7160e01b600052603160045260246000fd5b60006040820184835260206040818501528185548084526060860191508660005282600020935060005b81811015615f1f57845483526001948501949284019201615f03565b509097965050505050505056fea26469706673582212208f3d17b9a6920e1daef641a291968ff9cd1e19bd4b5b19fab6ce3c8c484689df64736f6c63430008110033",
  "devdoc": {
    "kind": "dev",
    "methods": {
      "owner()": {
        "details": "Returns the address of the current owner."
      },
      "renounceOwnership()": {
        "details": "Leaves the contract without owner. It will not be possible to call `onlyOwner` functions anymore. Can only be called by the current owner. NOTE: Renouncing ownership will leave the contract without an owner, thereby removing any functionality that is only available to the owner."
      },
      "transferOwnership(address)": {
        "details": "Transfers ownership of the contract to a new account (`newOwner`). Can only be called by the current owner."
      }
    },
    "version": 1
  },
  "userdoc": {
    "kind": "user",
    "methods": {},
    "version": 1
  },
  "storageLayout": {
    "storage": [
      {
        "astId": 7,
        "contract": "contracts/BCGames.sol:BCGames",
        "label": "_owner",
        "offset": 0,
        "slot": "0",
        "type": "t_address"
      },
      {
        "astId": 12123,
        "contract": "contracts/BCGames.sol:BCGames",
        "label": "TODO_randomSeed",
        "offset": 0,
        "slot": "1",
        "type": "t_uint256"
      },
      {
        "astId": 6394,
        "contract": "contracts/BCGames.sol:BCGames",
        "label": "chars",
        "offset": 0,
        "slot": "2",
        "type": "t_contract(CharInterface)6102"
      },
      {
        "astId": 6397,
        "contract": "contracts/BCGames.sol:BCGames",
        "label": "maps",
        "offset": 0,
        "slot": "3",
        "type": "t_contract(MapInterface)6269"
      },
      {
        "astId": 6400,
        "contract": "contracts/BCGames.sol:BCGames",
        "label": "bcEvents",
        "offset": 0,
        "slot": "4",
        "type": "t_contract(EventsInterface)6083"
      },
      {
        "astId": 6403,
        "contract": "contracts/BCGames.sol:BCGames",
        "label": "items",
        "offset": 0,
        "slot": "5",
        "type": "t_contract(ItemsInterface)6298"
      },
      {
        "astId": 6406,
        "contract": "contracts/BCGames.sol:BCGames",
        "label": "players",
        "offset": 0,
        "slot": "6",
        "type": "t_contract(PlayersInterface)6387"
      },
      {
        "astId": 6408,
        "contract": "contracts/BCGames.sol:BCGames",
        "label": "lobbiesAddress",
        "offset": 0,
        "slot": "7",
        "type": "t_address"
      },
      {
        "astId": 6410,
        "contract": "contracts/BCGames.sol:BCGames",
        "label": "charsAddress",
        "offset": 0,
        "slot": "8",
        "type": "t_address"
      },
      {
        "astId": 6412,
        "contract": "contracts/BCGames.sol:BCGames",
        "label": "actionsAddress",
        "offset": 0,
        "slot": "9",
        "type": "t_address"
      },
      {
        "astId": 6486,
        "contract": "contracts/BCGames.sol:BCGames",
        "label": "StartLocation",
        "offset": 0,
        "slot": "10",
        "type": "t_struct(Position)11904_storage"
      },
      {
        "astId": 6490,
        "contract": "contracts/BCGames.sol:BCGames",
        "label": "games",
        "offset": 0,
        "slot": "11",
        "type": "t_array(t_struct(Game)12005_storage)dyn_storage"
      },
      {
        "astId": 6495,
        "contract": "contracts/BCGames.sol:BCGames",
        "label": "addressToGame",
        "offset": 0,
        "slot": "12",
        "type": "t_mapping(t_address,t_array(t_uint256)dyn_storage)"
      },
      {
        "astId": 6500,
        "contract": "contracts/BCGames.sol:BCGames",
        "label": "denizenHealth",
        "offset": 0,
        "slot": "13",
        "type": "t_mapping(t_enum(DenizenType)11842,t_uint256)"
      },
      {
        "astId": 6505,
        "contract": "contracts/BCGames.sol:BCGames",
        "label": "denizenDef",
        "offset": 0,
        "slot": "14",
        "type": "t_mapping(t_enum(DenizenType)11842,t_uint256)"
      },
      {
        "astId": 6510,
        "contract": "contracts/BCGames.sol:BCGames",
        "label": "denizenOff",
        "offset": 0,
        "slot": "15",
        "type": "t_mapping(t_enum(DenizenType)11842,t_uint256)"
      },
      {
        "astId": 6515,
        "contract": "contracts/BCGames.sol:BCGames",
        "label": "denizenDmg",
        "offset": 0,
        "slot": "16",
        "type": "t_mapping(t_enum(DenizenType)11842,t_uint256)"
      },
      {
        "astId": 6520,
        "contract": "contracts/BCGames.sol:BCGames",
        "label": "denizenMovement",
        "offset": 0,
        "slot": "17",
        "type": "t_mapping(t_enum(DenizenType)11842,t_uint256)"
      }
    ],
    "types": {
      "t_address": {
        "encoding": "inplace",
        "label": "address",
        "numberOfBytes": "20"
      },
      "t_array(t_struct(Denizen)11890_storage)dyn_storage": {
        "base": "t_struct(Denizen)11890_storage",
        "encoding": "dynamic_array",
        "label": "struct BCTypes.Denizen[]",
        "numberOfBytes": "32"
      },
      "t_array(t_struct(Game)12005_storage)dyn_storage": {
        "base": "t_struct(Game)12005_storage",
        "encoding": "dynamic_array",
        "label": "struct BCTypes.Game[]",
        "numberOfBytes": "32"
      },
      "t_array(t_uint256)dyn_storage": {
        "base": "t_uint256",
        "encoding": "dynamic_array",
        "label": "uint256[]",
        "numberOfBytes": "32"
      },
      "t_bool": {
        "encoding": "inplace",
        "label": "bool",
        "numberOfBytes": "1"
      },
      "t_contract(CharInterface)6102": {
        "encoding": "inplace",
        "label": "contract CharInterface",
        "numberOfBytes": "20"
      },
      "t_contract(EventsInterface)6083": {
        "encoding": "inplace",
        "label": "contract EventsInterface",
        "numberOfBytes": "20"
      },
      "t_contract(ItemsInterface)6298": {
        "encoding": "inplace",
        "label": "contract ItemsInterface",
        "numberOfBytes": "20"
      },
      "t_contract(MapInterface)6269": {
        "encoding": "inplace",
        "label": "contract MapInterface",
        "numberOfBytes": "20"
      },
      "t_contract(PlayersInterface)6387": {
        "encoding": "inplace",
        "label": "contract PlayersInterface",
        "numberOfBytes": "20"
      },
      "t_enum(BCEventType)11810": {
        "encoding": "inplace",
        "label": "enum BCTypes.BCEventType",
        "numberOfBytes": "1"
      },
      "t_enum(DenizenType)11842": {
        "encoding": "inplace",
        "label": "enum BCTypes.DenizenType",
        "numberOfBytes": "1"
      },
      "t_mapping(t_address,t_array(t_uint256)dyn_storage)": {
        "encoding": "mapping",
        "key": "t_address",
        "label": "mapping(address => uint256[])",
        "numberOfBytes": "32",
        "value": "t_array(t_uint256)dyn_storage"
      },
      "t_mapping(t_enum(DenizenType)11842,t_uint256)": {
        "encoding": "mapping",
        "key": "t_enum(DenizenType)11842",
        "label": "mapping(enum BCTypes.DenizenType => uint256)",
        "numberOfBytes": "32",
        "value": "t_uint256"
      },
      "t_struct(Denizen)11890_storage": {
        "encoding": "inplace",
        "label": "struct BCTypes.Denizen",
        "members": [
          {
            "astId": 11877,
            "contract": "contracts/BCGames.sol:BCGames",
            "label": "id",
            "offset": 0,
            "slot": "0",
            "type": "t_uint256"
          },
          {
            "astId": 11879,
            "contract": "contracts/BCGames.sol:BCGames",
            "label": "gameId",
            "offset": 0,
            "slot": "1",
            "type": "t_uint256"
          },
          {
            "astId": 11882,
            "contract": "contracts/BCGames.sol:BCGames",
            "label": "denizenType",
            "offset": 0,
            "slot": "2",
            "type": "t_enum(DenizenType)11842"
          },
          {
            "astId": 11885,
            "contract": "contracts/BCGames.sol:BCGames",
            "label": "position",
            "offset": 0,
            "slot": "3",
            "type": "t_struct(Position)11904_storage"
          },
          {
            "astId": 11887,
            "contract": "contracts/BCGames.sol:BCGames",
            "label": "healthRemaining",
            "offset": 0,
            "slot": "4",
            "type": "t_uint256"
          },
          {
            "astId": 11889,
            "contract": "contracts/BCGames.sol:BCGames",
            "label": "looted",
            "offset": 0,
            "slot": "5",
            "type": "t_bool"
          }
        ],
        "numberOfBytes": "192"
      },
      "t_struct(EventTracker)11899_storage": {
        "encoding": "inplace",
        "label": "struct BCTypes.EventTracker",
        "members": [
          {
            "astId": 11892,
            "contract": "contracts/BCGames.sol:BCGames",
            "label": "bugEvents",
            "offset": 0,
            "slot": "0",
            "type": "t_uint8"
          },
          {
            "astId": 11894,
            "contract": "contracts/BCGames.sol:BCGames",
            "label": "mysteryEvents",
            "offset": 1,
            "slot": "0",
            "type": "t_uint8"
          },
          {
            "astId": 11896,
            "contract": "contracts/BCGames.sol:BCGames",
            "label": "scavEvents",
            "offset": 2,
            "slot": "0",
            "type": "t_uint8"
          },
          {
            "astId": 11898,
            "contract": "contracts/BCGames.sol:BCGames",
            "label": "shipEvents",
            "offset": 3,
            "slot": "0",
            "type": "t_uint8"
          }
        ],
        "numberOfBytes": "32"
      },
      "t_struct(Game)12005_storage": {
        "encoding": "inplace",
        "label": "struct BCTypes.Game",
        "members": [
          {
            "astId": 11956,
            "contract": "contracts/BCGames.sol:BCGames",
            "label": "active",
            "offset": 0,
            "slot": "0",
            "type": "t_bool"
          },
          {
            "astId": 11958,
            "contract": "contracts/BCGames.sol:BCGames",
            "label": "denizenTurn",
            "offset": 1,
            "slot": "0",
            "type": "t_bool"
          },
          {
            "astId": 11961,
            "contract": "contracts/BCGames.sol:BCGames",
            "label": "playerIndexes",
            "offset": 0,
            "slot": "1",
            "type": "t_array(t_uint256)dyn_storage"
          },
          {
            "astId": 11963,
            "contract": "contracts/BCGames.sol:BCGames",
            "label": "currentPlayerTurnIndex",
            "offset": 0,
            "slot": "2",
            "type": "t_uint256"
          },
          {
            "astId": 11965,
            "contract": "contracts/BCGames.sol:BCGames",
            "label": "numPlayers",
            "offset": 0,
            "slot": "3",
            "type": "t_uint256"
          },
          {
            "astId": 11967,
            "contract": "contracts/BCGames.sol:BCGames",
            "label": "turnsTaken",
            "offset": 0,
            "slot": "4",
            "type": "t_uint256"
          },
          {
            "astId": 11970,
            "contract": "contracts/BCGames.sol:BCGames",
            "label": "eventTracker",
            "offset": 0,
            "slot": "5",
            "type": "t_struct(EventTracker)11899_storage"
          },
          {
            "astId": 11972,
            "contract": "contracts/BCGames.sol:BCGames",
            "label": "mapId",
            "offset": 0,
            "slot": "6",
            "type": "t_uint256"
          },
          {
            "astId": 11974,
            "contract": "contracts/BCGames.sol:BCGames",
            "label": "eventPlayerId",
            "offset": 0,
            "slot": "7",
            "type": "t_uint256"
          },
          {
            "astId": 11976,
            "contract": "contracts/BCGames.sol:BCGames",
            "label": "eventNumber",
            "offset": 0,
            "slot": "8",
            "type": "t_uint256"
          },
          {
            "astId": 11979,
            "contract": "contracts/BCGames.sol:BCGames",
            "label": "eventType",
            "offset": 0,
            "slot": "9",
            "type": "t_enum(BCEventType)11810"
          },
          {
            "astId": 11982,
            "contract": "contracts/BCGames.sol:BCGames",
            "label": "eventPosition",
            "offset": 0,
            "slot": "10",
            "type": "t_struct(Position)11904_storage"
          },
          {
            "astId": 11985,
            "contract": "contracts/BCGames.sol:BCGames",
            "label": "unusedBugEvents",
            "offset": 0,
            "slot": "11",
            "type": "t_array(t_uint256)dyn_storage"
          },
          {
            "astId": 11988,
            "contract": "contracts/BCGames.sol:BCGames",
            "label": "unusedMysteryEvents",
            "offset": 0,
            "slot": "12",
            "type": "t_array(t_uint256)dyn_storage"
          },
          {
            "astId": 11991,
            "contract": "contracts/BCGames.sol:BCGames",
            "label": "unusedScavEvents",
            "offset": 0,
            "slot": "13",
            "type": "t_array(t_uint256)dyn_storage"
          },
          {
            "astId": 11994,
            "contract": "contracts/BCGames.sol:BCGames",
            "label": "unusedShipEvents",
            "offset": 0,
            "slot": "14",
            "type": "t_array(t_uint256)dyn_storage"
          },
          {
            "astId": 11996,
            "contract": "contracts/BCGames.sol:BCGames",
            "label": "turnTimeLimit",
            "offset": 0,
            "slot": "15",
            "type": "t_uint256"
          },
          {
            "astId": 11998,
            "contract": "contracts/BCGames.sol:BCGames",
            "label": "lastTurnTimestamp",
            "offset": 0,
            "slot": "16",
            "type": "t_uint256"
          },
          {
            "astId": 12000,
            "contract": "contracts/BCGames.sol:BCGames",
            "label": "DEBUG_returnAmount",
            "offset": 0,
            "slot": "17",
            "type": "t_uint256"
          },
          {
            "astId": 12004,
            "contract": "contracts/BCGames.sol:BCGames",
            "label": "denizens",
            "offset": 0,
            "slot": "18",
            "type": "t_array(t_struct(Denizen)11890_storage)dyn_storage"
          }
        ],
        "numberOfBytes": "608"
      },
      "t_struct(Position)11904_storage": {
        "encoding": "inplace",
        "label": "struct BCTypes.Position",
        "members": [
          {
            "astId": 11901,
            "contract": "contracts/BCGames.sol:BCGames",
            "label": "row",
            "offset": 0,
            "slot": "0",
            "type": "t_uint8"
          },
          {
            "astId": 11903,
            "contract": "contracts/BCGames.sol:BCGames",
            "label": "col",
            "offset": 1,
            "slot": "0",
            "type": "t_uint8"
          }
        ],
        "numberOfBytes": "32"
      },
      "t_uint256": {
        "encoding": "inplace",
        "label": "uint256",
        "numberOfBytes": "32"
      },
      "t_uint8": {
        "encoding": "inplace",
        "label": "uint8",
        "numberOfBytes": "1"
      }
    }
  }
}