{
  "address": "0xd535Db9FF8C288B2eD039F76567173F4d3c44656",
  "abi": [
    {
      "inputs": [],
      "stateMutability": "nonpayable",
      "type": "constructor"
    },
    {
      "anonymous": false,
      "inputs": [
        {
          "indexed": false,
          "internalType": "uint256",
          "name": "gameId",
          "type": "uint256"
        },
        {
          "indexed": false,
          "internalType": "uint256",
          "name": "roll",
          "type": "uint256"
        },
        {
          "indexed": false,
          "internalType": "uint256",
          "name": "forValue",
          "type": "uint256"
        },
        {
          "indexed": false,
          "internalType": "uint256",
          "name": "against",
          "type": "uint256"
        }
      ],
      "name": "ChallengeEvent",
      "type": "event"
    },
    {
      "anonymous": false,
      "inputs": [
        {
          "indexed": false,
          "internalType": "uint256",
          "name": "gameId",
          "type": "uint256"
        },
        {
          "indexed": false,
          "internalType": "uint256",
          "name": "roll",
          "type": "uint256"
        }
      ],
      "name": "DiceRollEvent",
      "type": "event"
    },
    {
      "anonymous": false,
      "inputs": [
        {
          "indexed": true,
          "internalType": "address",
          "name": "previousOwner",
          "type": "address"
        },
        {
          "indexed": true,
          "internalType": "address",
          "name": "newOwner",
          "type": "address"
        }
      ],
      "name": "OwnershipTransferred",
      "type": "event"
    },
    {
      "inputs": [],
      "name": "StartLocation",
      "outputs": [
        {
          "internalType": "uint8",
          "name": "row",
          "type": "uint8"
        },
        {
          "internalType": "uint8",
          "name": "col",
          "type": "uint8"
        }
      ],
      "stateMutability": "view",
      "type": "function"
    },
    {
      "inputs": [
        {
          "internalType": "int256",
          "name": "x",
          "type": "int256"
        }
      ],
      "name": "abs",
      "outputs": [
        {
          "internalType": "int256",
          "name": "",
          "type": "int256"
        }
      ],
      "stateMutability": "pure",
      "type": "function"
    },
    {
      "inputs": [],
      "name": "actionsAddress",
      "outputs": [
        {
          "internalType": "address",
          "name": "",
          "type": "address"
        }
      ],
      "stateMutability": "view",
      "type": "function"
    },
    {
      "inputs": [
        {
          "internalType": "address",
          "name": "",
          "type": "address"
        },
        {
          "internalType": "uint256",
          "name": "",
          "type": "uint256"
        }
      ],
      "name": "addressToGame",
      "outputs": [
        {
          "internalType": "uint256",
          "name": "",
          "type": "uint256"
        }
      ],
      "stateMutability": "view",
      "type": "function"
    },
    {
      "inputs": [],
      "name": "bcEvents",
      "outputs": [
        {
          "internalType": "contract EventsInterface",
          "name": "",
          "type": "address"
        }
      ],
      "stateMutability": "view",
      "type": "function"
    },
    {
      "inputs": [],
      "name": "chars",
      "outputs": [
        {
          "internalType": "contract CharInterface",
          "name": "",
          "type": "address"
        }
      ],
      "stateMutability": "view",
      "type": "function"
    },
    {
      "inputs": [],
      "name": "charsAddress",
      "outputs": [
        {
          "internalType": "address",
          "name": "",
          "type": "address"
        }
      ],
      "stateMutability": "view",
      "type": "function"
    },
    {
      "inputs": [
        {
          "internalType": "uint256",
          "name": "_gameId",
          "type": "uint256"
        },
        {
          "components": [
            {
              "internalType": "uint8",
              "name": "row",
              "type": "uint8"
            },
            {
              "internalType": "uint8",
              "name": "col",
              "type": "uint8"
            }
          ],
          "internalType": "struct BCTypes.Position",
          "name": "_position",
          "type": "tuple"
        },
        {
          "internalType": "uint256",
          "name": "_playerId",
          "type": "uint256"
        },
        {
          "internalType": "uint256",
          "name": "_debugRoomId",
          "type": "uint256"
        }
      ],
      "name": "debugMovePlayer",
      "outputs": [],
      "stateMutability": "nonpayable",
      "type": "function"
    },
    {
      "inputs": [
        {
          "internalType": "uint256",
          "name": "_gameId",
          "type": "uint256"
        },
        {
          "internalType": "uint256",
          "name": "_playerId",
          "type": "uint256"
        },
        {
          "internalType": "bool",
          "name": "_free",
          "type": "bool"
        }
      ],
      "name": "endPlayerAction",
      "outputs": [],
      "stateMutability": "nonpayable",
      "type": "function"
    },
    {
      "inputs": [
        {
          "internalType": "uint256",
          "name": "_id",
          "type": "uint256"
        }
      ],
      "name": "extGetGame",
      "outputs": [
        {
          "components": [
            {
              "internalType": "bool",
              "name": "active",
              "type": "bool"
            },
            {
              "internalType": "uint256[]",
              "name": "playerIndexes",
              "type": "uint256[]"
            },
            {
              "internalType": "uint256",
              "name": "currentPlayerTurnIndex",
              "type": "uint256"
            },
            {
              "internalType": "uint256",
              "name": "numPlayers",
              "type": "uint256"
            },
            {
              "internalType": "uint256",
              "name": "turnsTaken",
              "type": "uint256"
            },
            {
              "components": [
                {
                  "internalType": "uint8",
                  "name": "bugEvents",
                  "type": "uint8"
                },
                {
                  "internalType": "uint8",
                  "name": "mysteryEvents",
                  "type": "uint8"
                },
                {
                  "internalType": "uint8",
                  "name": "scavEvents",
                  "type": "uint8"
                },
                {
                  "internalType": "uint8",
                  "name": "shipEvents",
                  "type": "uint8"
                }
              ],
              "internalType": "struct BCTypes.EventTracker",
              "name": "eventTracker",
              "type": "tuple"
            },
            {
              "internalType": "uint256",
              "name": "mapId",
              "type": "uint256"
            },
            {
              "internalType": "uint256",
              "name": "eventPlayerId",
              "type": "uint256"
            },
            {
              "internalType": "uint256",
              "name": "eventNumber",
              "type": "uint256"
            },
            {
              "internalType": "enum BCTypes.BCEventType",
              "name": "eventType",
              "type": "uint8"
            },
            {
              "components": [
                {
                  "internalType": "uint8",
                  "name": "row",
                  "type": "uint8"
                },
                {
                  "internalType": "uint8",
                  "name": "col",
                  "type": "uint8"
                }
              ],
              "internalType": "struct BCTypes.Position",
              "name": "eventPosition",
              "type": "tuple"
            },
            {
              "internalType": "uint256[]",
              "name": "unusedBugEvents",
              "type": "uint256[]"
            },
            {
              "internalType": "uint256[]",
              "name": "unusedMysteryEvents",
              "type": "uint256[]"
            },
            {
              "internalType": "uint256[]",
              "name": "unusedScavEvents",
              "type": "uint256[]"
            },
            {
              "internalType": "uint256[]",
              "name": "unusedShipEvents",
              "type": "uint256[]"
            },
            {
              "internalType": "uint256",
              "name": "turnTimeLimit",
              "type": "uint256"
            },
            {
              "internalType": "uint256",
              "name": "lastTurnTimestamp",
              "type": "uint256"
            },
            {
              "internalType": "uint256",
              "name": "DEBUG_returnAmount",
              "type": "uint256"
            }
          ],
          "internalType": "struct BCTypes.Game",
          "name": "",
          "type": "tuple"
        }
      ],
      "stateMutability": "view",
      "type": "function"
    },
    {
      "inputs": [
        {
          "internalType": "uint256",
          "name": "_gameId",
          "type": "uint256"
        }
      ],
      "name": "extGetGamePlayerIndexes",
      "outputs": [
        {
          "internalType": "uint256[]",
          "name": "",
          "type": "uint256[]"
        }
      ],
      "stateMutability": "view",
      "type": "function"
    },
    {
      "inputs": [
        {
          "internalType": "address",
          "name": "_playerAddress",
          "type": "address"
        }
      ],
      "name": "extGetGamesOfPlayer",
      "outputs": [
        {
          "internalType": "uint256[]",
          "name": "",
          "type": "uint256[]"
        }
      ],
      "stateMutability": "view",
      "type": "function"
    },
    {
      "inputs": [],
      "name": "extGetNumGames",
      "outputs": [
        {
          "internalType": "uint256",
          "name": "",
          "type": "uint256"
        }
      ],
      "stateMutability": "view",
      "type": "function"
    },
    {
      "inputs": [
        {
          "internalType": "uint256",
          "name": "_gameId",
          "type": "uint256"
        },
        {
          "components": [
            {
              "internalType": "uint8",
              "name": "row",
              "type": "uint8"
            },
            {
              "internalType": "uint8",
              "name": "col",
              "type": "uint8"
            }
          ],
          "internalType": "struct BCTypes.Position",
          "name": "_position",
          "type": "tuple"
        },
        {
          "internalType": "uint256",
          "name": "_playerId",
          "type": "uint256"
        }
      ],
      "name": "extMovePlayer",
      "outputs": [],
      "stateMutability": "nonpayable",
      "type": "function"
    },
    {
      "inputs": [
        {
          "internalType": "uint256",
          "name": "_gameId",
          "type": "uint256"
        }
      ],
      "name": "forceNextTurn",
      "outputs": [],
      "stateMutability": "nonpayable",
      "type": "function"
    },
    {
      "inputs": [
        {
          "internalType": "uint256",
          "name": "",
          "type": "uint256"
        }
      ],
      "name": "games",
      "outputs": [
        {
          "internalType": "bool",
          "name": "active",
          "type": "bool"
        },
        {
          "internalType": "uint256",
          "name": "currentPlayerTurnIndex",
          "type": "uint256"
        },
        {
          "internalType": "uint256",
          "name": "numPlayers",
          "type": "uint256"
        },
        {
          "internalType": "uint256",
          "name": "turnsTaken",
          "type": "uint256"
        },
        {
          "components": [
            {
              "internalType": "uint8",
              "name": "bugEvents",
              "type": "uint8"
            },
            {
              "internalType": "uint8",
              "name": "mysteryEvents",
              "type": "uint8"
            },
            {
              "internalType": "uint8",
              "name": "scavEvents",
              "type": "uint8"
            },
            {
              "internalType": "uint8",
              "name": "shipEvents",
              "type": "uint8"
            }
          ],
          "internalType": "struct BCTypes.EventTracker",
          "name": "eventTracker",
          "type": "tuple"
        },
        {
          "internalType": "uint256",
          "name": "mapId",
          "type": "uint256"
        },
        {
          "internalType": "uint256",
          "name": "eventPlayerId",
          "type": "uint256"
        },
        {
          "internalType": "uint256",
          "name": "eventNumber",
          "type": "uint256"
        },
        {
          "internalType": "enum BCTypes.BCEventType",
          "name": "eventType",
          "type": "uint8"
        },
        {
          "components": [
            {
              "internalType": "uint8",
              "name": "row",
              "type": "uint8"
            },
            {
              "internalType": "uint8",
              "name": "col",
              "type": "uint8"
            }
          ],
          "internalType": "struct BCTypes.Position",
          "name": "eventPosition",
          "type": "tuple"
        },
        {
          "internalType": "uint256",
          "name": "turnTimeLimit",
          "type": "uint256"
        },
        {
          "internalType": "uint256",
          "name": "lastTurnTimestamp",
          "type": "uint256"
        },
        {
          "internalType": "uint256",
          "name": "DEBUG_returnAmount",
          "type": "uint256"
        }
      ],
      "stateMutability": "view",
      "type": "function"
    },
    {
      "inputs": [
        {
          "components": [
            {
              "internalType": "uint8",
              "name": "row",
              "type": "uint8"
            },
            {
              "internalType": "uint8",
              "name": "col",
              "type": "uint8"
            }
          ],
          "internalType": "struct BCTypes.Position",
          "name": "_firstRoom",
          "type": "tuple"
        },
        {
          "components": [
            {
              "internalType": "uint8",
              "name": "row",
              "type": "uint8"
            },
            {
              "internalType": "uint8",
              "name": "col",
              "type": "uint8"
            }
          ],
          "internalType": "struct BCTypes.Position",
          "name": "_secondRoom",
          "type": "tuple"
        }
      ],
      "name": "getDirectionBetween",
      "outputs": [
        {
          "internalType": "uint256",
          "name": "",
          "type": "uint256"
        }
      ],
      "stateMutability": "pure",
      "type": "function"
    },
    {
      "inputs": [
        {
          "internalType": "uint256",
          "name": "_direction",
          "type": "uint256"
        },
        {
          "components": [
            {
              "internalType": "uint8",
              "name": "row",
              "type": "uint8"
            },
            {
              "internalType": "uint8",
              "name": "col",
              "type": "uint8"
            }
          ],
          "internalType": "struct BCTypes.Position",
          "name": "_start",
          "type": "tuple"
        }
      ],
      "name": "getNeighborRoom",
      "outputs": [
        {
          "components": [
            {
              "internalType": "uint8",
              "name": "row",
              "type": "uint8"
            },
            {
              "internalType": "uint8",
              "name": "col",
              "type": "uint8"
            }
          ],
          "internalType": "struct BCTypes.Position",
          "name": "",
          "type": "tuple"
        }
      ],
      "stateMutability": "pure",
      "type": "function"
    },
    {
      "inputs": [
        {
          "internalType": "uint256",
          "name": "_traitNum",
          "type": "uint256"
        },
        {
          "internalType": "uint256",
          "name": "_subTraitNum",
          "type": "uint256"
        }
      ],
      "name": "getUIOffset",
      "outputs": [
        {
          "internalType": "uint256",
          "name": "",
          "type": "uint256"
        }
      ],
      "stateMutability": "pure",
      "type": "function"
    },
    {
      "inputs": [],
      "name": "items",
      "outputs": [
        {
          "internalType": "contract ItemsInterface",
          "name": "",
          "type": "address"
        }
      ],
      "stateMutability": "view",
      "type": "function"
    },
    {
      "inputs": [
        {
          "internalType": "uint256",
          "name": "_gameId",
          "type": "uint256"
        },
        {
          "internalType": "uint256",
          "name": "_playerId",
          "type": "uint256"
        },
        {
          "internalType": "uint256",
          "name": "_charId",
          "type": "uint256"
        },
        {
          "internalType": "uint256",
          "name": "_currentPlayerTurnIndex",
          "type": "uint256"
        }
      ],
      "name": "leaveGame",
      "outputs": [],
      "stateMutability": "nonpayable",
      "type": "function"
    },
    {
      "inputs": [],
      "name": "lobbiesAddress",
      "outputs": [
        {
          "internalType": "address",
          "name": "",
          "type": "address"
        }
      ],
      "stateMutability": "view",
      "type": "function"
    },
    {
      "inputs": [],
      "name": "maps",
      "outputs": [
        {
          "internalType": "contract MapInterface",
          "name": "",
          "type": "address"
        }
      ],
      "stateMutability": "view",
      "type": "function"
    },
    {
      "inputs": [
        {
          "internalType": "uint256",
          "name": "_min",
          "type": "uint256"
        },
        {
          "internalType": "uint256",
          "name": "_max",
          "type": "uint256"
        },
        {
          "internalType": "uint256",
          "name": "_val",
          "type": "uint256"
        },
        {
          "internalType": "uint256",
          "name": "_valMax",
          "type": "uint256"
        }
      ],
      "name": "normalizeToSmallRange",
      "outputs": [
        {
          "internalType": "uint8",
          "name": "",
          "type": "uint8"
        }
      ],
      "stateMutability": "pure",
      "type": "function"
    },
    {
      "inputs": [
        {
          "internalType": "uint256",
          "name": "_direction",
          "type": "uint256"
        }
      ],
      "name": "opposite",
      "outputs": [
        {
          "internalType": "uint256",
          "name": "",
          "type": "uint256"
        }
      ],
      "stateMutability": "pure",
      "type": "function"
    },
    {
      "inputs": [],
      "name": "owner",
      "outputs": [
        {
          "internalType": "address",
          "name": "",
          "type": "address"
        }
      ],
      "stateMutability": "view",
      "type": "function"
    },
    {
      "inputs": [],
      "name": "players",
      "outputs": [
        {
          "internalType": "contract PlayersInterface",
          "name": "",
          "type": "address"
        }
      ],
      "stateMutability": "view",
      "type": "function"
    },
    {
      "inputs": [],
      "name": "randKeccak",
      "outputs": [
        {
          "internalType": "bytes32",
          "name": "",
          "type": "bytes32"
        }
      ],
      "stateMutability": "nonpayable",
      "type": "function"
    },
    {
      "inputs": [],
      "name": "renounceOwnership",
      "outputs": [],
      "stateMutability": "nonpayable",
      "type": "function"
    },
    {
      "inputs": [
        {
          "internalType": "uint256",
          "name": "_gameId",
          "type": "uint256"
        },
        {
          "internalType": "uint256",
          "name": "_for",
          "type": "uint256"
        },
        {
          "internalType": "uint256",
          "name": "_against",
          "type": "uint256"
        }
      ],
      "name": "resolveChallenge",
      "outputs": [
        {
          "internalType": "bool",
          "name": "",
          "type": "bool"
        }
      ],
      "stateMutability": "nonpayable",
      "type": "function"
    },
    {
      "inputs": [
        {
          "internalType": "uint256",
          "name": "_gameId",
          "type": "uint256"
        },
        {
          "internalType": "uint256",
          "name": "_choice",
          "type": "uint256"
        }
      ],
      "name": "resolveEvent",
      "outputs": [],
      "stateMutability": "nonpayable",
      "type": "function"
    },
    {
      "inputs": [
        {
          "internalType": "uint256",
          "name": "_gameId",
          "type": "uint256"
        }
      ],
      "name": "roll",
      "outputs": [
        {
          "internalType": "uint256",
          "name": "",
          "type": "uint256"
        }
      ],
      "stateMutability": "nonpayable",
      "type": "function"
    },
    {
      "inputs": [
        {
          "internalType": "address",
          "name": "_charAddress",
          "type": "address"
        },
        {
          "internalType": "address",
          "name": "_utilsAddress",
          "type": "address"
        },
        {
          "internalType": "address",
          "name": "_mapsAddress",
          "type": "address"
        },
        {
          "internalType": "address",
          "name": "_lobbiesAddress",
          "type": "address"
        },
        {
          "internalType": "address",
          "name": "_actionsAddress",
          "type": "address"
        },
        {
          "internalType": "address",
          "name": "_eventsAddress",
          "type": "address"
        },
        {
          "internalType": "address",
          "name": "_itemsAddress",
          "type": "address"
        },
        {
          "internalType": "address",
          "name": "_playersAddress",
          "type": "address"
        }
      ],
      "name": "setContractAddresses",
      "outputs": [],
      "stateMutability": "nonpayable",
      "type": "function"
    },
    {
      "inputs": [
        {
          "internalType": "bytes32",
          "name": "_hash",
          "type": "bytes32"
        },
        {
          "internalType": "uint256",
          "name": "_size",
          "type": "uint256"
        },
        {
          "internalType": "uint256",
          "name": "_offset",
          "type": "uint256"
        }
      ],
      "name": "sliceHashToSmallInt",
      "outputs": [
        {
          "internalType": "uint8",
          "name": "",
          "type": "uint8"
        }
      ],
      "stateMutability": "pure",
      "type": "function"
    },
    {
      "inputs": [
        {
          "internalType": "uint8",
          "name": "_min",
          "type": "uint8"
        },
        {
          "internalType": "uint8",
          "name": "_max",
          "type": "uint8"
        }
      ],
      "name": "smallIntBetweenVals",
      "outputs": [
        {
          "internalType": "uint8",
          "name": "",
          "type": "uint8"
        }
      ],
      "stateMutability": "nonpayable",
      "type": "function"
    },
    {
      "inputs": [
        {
          "internalType": "uint256[]",
          "name": "_playerIndexes",
          "type": "uint256[]"
        },
        {
          "internalType": "uint256",
          "name": "_numPlayers",
          "type": "uint256"
        },
        {
          "internalType": "uint256",
          "name": "_debugRoomId",
          "type": "uint256"
        }
      ],
      "name": "startGame",
      "outputs": [
        {
          "internalType": "uint256",
          "name": "",
          "type": "uint256"
        }
      ],
      "stateMutability": "nonpayable",
      "type": "function"
    },
    {
      "inputs": [
        {
          "internalType": "address",
          "name": "newOwner",
          "type": "address"
        }
      ],
      "name": "transferOwnership",
      "outputs": [],
      "stateMutability": "nonpayable",
      "type": "function"
    }
  ],
  "transactionHash": "0x77b110b0e0e7ce4a2d256c92c2f05c095a8e4f56e321cc254802ad87140b771f",
  "args": [],
  "numDeployments": 1,
  "solcInputHash": "cadc6749740c390482b685fb3d5cb8f7",
  "bytecode": "0x600060015560c0604052600a6080819052600660a052805461ffff191661060a1790553480156200002f57600080fd5b506200003b3362000041565b62000091565b600080546001600160a01b038381166001600160a01b0319831681178455604051919092169283917f8be0079c531659141344cd1fd0a4f28419497f9722a3daafe3b4186f6b6457e09190a35050565b613c9580620000a16000396000f3fe608060405234801561001057600080fd5b50600436106102275760003560e01c80637b45c0d411610130578063a99d2a8b116100b8578063dc0b35641161007c578063dc0b3564146104f8578063dc769ee81461050b578063f101de9a1461053b578063f2fde38b1461054e578063fa3993c21461056157600080fd5b8063a99d2a8b14610499578063aa6e8030146104ac578063afd62bb2146104bf578063c06fad06146104d2578063ce28613f146104e557600080fd5b80638da5cb5b116100ff5780638da5cb5b1461042f578063921d279914610440578063951fc3fe1461045357806397f34c3f146104735780639fca1ee11461048657600080fd5b80637b45c0d4146103e35780637ddae103146103f65780638214f222146104095780638bf52bc31461041c57600080fd5b806340d4fd78116101b35780635dc96967116101825780635dc969671461037257806364db84bf1461039557806364f66467146103a85780636fe99c18146103bb578063715018a6146103db57600080fd5b806340d4fd781461031257806346f2434b14610332578063530116961461033a578063547314221461035f57600080fd5b80631e1de205116101fa5780631e1de205146102be5780631f7b4f30146102c6578063336d7d7b146102d95780633deaec2b146102ec5780633f090e3d146102ff57600080fd5b806310a2cd0d1461022c578063117a5b901461025c57806317514225146102885780631b5ac4b51461029d575b600080fd5b60025461023f906001600160a01b031681565b6040516001600160a01b0390911681526020015b60405180910390f35b61026f61026a366004612e15565b610574565b6040516102539d9c9b9a99989796959493929190612e66565b61029b610296366004612ffa565b610644565b005b6102b06102ab366004612e15565b6106ca565b604051908152602001610253565b6102b06106ea565b6102b06102d4366004612e15565b610762565b60075461023f906001600160a01b031681565b60035461023f906001600160a01b031681565b61029b61030d366004613030565b6107be565b610325610320366004612e15565b610a2f565b604051610253919061309d565b600b546102b0565b61034d610348366004613030565b610b21565b60405160ff9091168152602001610253565b61029b61036d366004612e15565b610b5e565b6103856103803660046130b0565b610c82565b6040519015158152602001610253565b6102b06103a33660046130dc565b610d1f565b61029b6103b63660046130dc565b610d37565b6103ce6103c9366004612e15565b610e3c565b60405161025391906130fe565b61029b61113d565b60095461023f906001600160a01b031681565b60045461023f906001600160a01b031681565b6102b0610417366004612e15565b611151565b61029b61042a3660046132a1565b6111cb565b6000546001600160a01b031661023f565b61029b61044e3660046132f2565b611223565b61046661046136600461339b565b6112ab565b60405161025391906133c8565b61034d6104813660046130b0565b6113d5565b60085461023f906001600160a01b031681565b6102b06104a73660046133e6565b611400565b61029b6104ba366004613420565b611431565b6103256104cd366004613459565b611580565b60055461023f906001600160a01b031681565b61034d6104f3366004613476565b611651565b60065461023f906001600160a01b031681565b600a546105219060ff8082169161010090041682565b6040805160ff938416815292909116602083015201610253565b6102b06105493660046134d3565b611701565b61029b61055c366004613459565b611bcf565b6102b061056f366004613579565b611c48565b600b818154811061058457600080fd5b6000918252602091829020601290910201805460028201546003830154600484015460408051608081018252600587015460ff81811683526101008083048216848c0152620100008304821684860152630100000090920481166060840152600689015460078a015460088b015460098c01548751808901909852600a8d015480861689529590950484169c87019c909c52600f8b015460108c01546011909c01549a84169d50989b979a9699949891979096909593909216939091908d565b6009546001600160a01b031633148061066757506006546001600160a01b031633145b6106b85760405162461bcd60e51b815260206004820152601c60248201527f4e6f7420616374696f6e732f706c617965727320636f6e74726163740000000060448201526064015b60405180910390fd5b6106c58383836000611d10565b505050565b6000808212156106e2576106dd826135bb565b6106e4565b815b92915050565b60018054600091826106fb836135d7565b919050555060015460014361071091906135f0565b403360405160200161074793929190928352602083019190915260601b6bffffffffffffffffffffffff1916604082015260540190565b60405160208183030381529060405280519060200120905090565b60008061077160016006611651565b60ff1690507ffe34d093a460a16ee5fb374540914d1c734a17502c0c1a87b387c8d6097e1c5183826040516107b0929190918252602082015260400190565b60405180910390a192915050565b6009546001600160a01b031633146108185760405162461bcd60e51b815260206004820181905260248201527f4e6f7420616374696f6e7320636f6e7472616374202d206c6561766547616d6560448201526064016106af565b6000600b858154811061082d5761082d613603565b60009182526020909120600554604051635f87260160e01b81526004810188905260248101899052601290930290910192506001600160a01b031690635f87260190604401600060405180830381600087803b15801561088c57600080fd5b505af11580156108a0573d6000803e3d6000fd5b5050600254604051631ff77ac560e11b8152600481018790526001600160a01b039091169250633feef58a9150602401600060405180830381600087803b1580156108ea57600080fd5b505af11580156108fe573d6000803e3d6000fd5b50505050600181810154600091610914916135f0565b67ffffffffffffffff81111561092c5761092c612f16565b604051908082528060200260200182016040528015610955578160200160208202803683370190505b5090506000805b60018401548110156109cc578085146109ba5783600101818154811061098457610984613603565b90600052602060002001548383815181106109a1576109a1613603565b6020908102919091010152816109b6816135d7565b9250505b806109c4816135d7565b91505061095c565b5081516109e29060018501906020850190612cdc565b506003830180549060006109f583613619565b90915550506001830154600284015403610a1157600060028401555b6001830154600003610a2657825460ff191683555b50505050505050565b60606000600b8381548110610a4657610a46613603565b90600052602060002090601202016001018054905067ffffffffffffffff811115610a7357610a73612f16565b604051908082528060200260200182016040528015610a9c578160200160208202803683370190505b50905060005b8151811015610b1a57600b8481548110610abe57610abe613603565b90600052602060002090601202016001018181548110610ae057610ae0613603565b9060005260206000200154828281518110610afd57610afd613603565b602090810291909101015280610b12816135d7565b915050610aa2565b5092915050565b600080610b2e86866135f0565b9050600083610b3d8684613630565b610b47919061365d565b9050610b538782613671565b979650505050505050565b6000600b8281548110610b7357610b73613603565b906000526020600020906012020190506001816001018054905011610bda5760405162461bcd60e51b815260206004820152601960248201527f43616e277420666f7263652073696e676c6520706c617965720000000000000060448201526064016106af565b80600f01548160100154610bee9190613671565b4211610c3c5760405162461bcd60e51b815260206004820152601760248201527f5374696c6c2077697468696e2074696d65206c696d697400000000000000000060448201526064016106af565b600881015415610c5157610c5182600061270b565b610c7e8282600101836002015481548110610c6e57610c6e613603565b90600052602060002001546127d7565b5050565b600080610c8e85610762565b6040805187815260208101839052908101869052606081018590529091507f75b6a8325595f91135e07382840634226793c68c9e59623da7e10d7ad3d95b959060800160405180910390a180600103610ceb576000915050610d18565b600383610cf88684613671565b610d029190613684565b1315610d12576001915050610d18565b60009150505b9392505050565b600081610d2d846004613630565b610d189190613671565b6000600b8381548110610d4c57610d4c613603565b600091825260209091206006546012909202016007810154604051636621a42160e01b815260048101919091529092506001600160a01b0390911690636621a42190602401602060405180830381865afa158015610dae573d6000803e3d6000fd5b505050506040513d601f19601f82011682018060405250810190610dd291906136a4565b6001600160a01b0316336001600160a01b031614610e325760405162461bcd60e51b815260206004820152601960248201527f4576656e74206e6f7420666f7220796f757220706c617965720000000000000060448201526064016106af565b6106c5838361270b565b610e44612d27565b600b8281548110610e5757610e57613603565b600091825260209182902060408051610240810182526012909302909101805460ff1615158352600181018054835181870281018701909452808452939491938583019392830182828015610ecb57602002820191906000526020600020905b815481526020019060010190808311610eb7575b505050918352505060028201546020808301919091526003830154604080840191909152600484015460608085019190915281516080818101845260058088015460ff808216855261010080830482169886019890985262010000820481169685019690965263010000009004851693830193909352850152600685015460a0850152600785015460c0850152600885015460e085015260098501549290930192911690811115610f7e57610f7e612e2e565b6005811115610f8f57610f8f612e2e565b8152604080518082018252600a84015460ff80821683526101009091041660208281019190915280840191909152600b8401805483518184028101840185528181529390940193909183018282801561100757602002820191906000526020600020905b815481526020019060010190808311610ff3575b50505050508152602001600c820180548060200260200160405190810160405280929190818152602001828054801561105f57602002820191906000526020600020905b81548152602001906001019080831161104b575b50505050508152602001600d82018054806020026020016040519081016040528092919081815260200182805480156110b757602002820191906000526020600020905b8154815260200190600101908083116110a3575b50505050508152602001600e820180548060200260200160405190810160405280929190818152602001828054801561110f57602002820191906000526020600020905b8154815260200190600101908083116110fb575b50505050508152602001600f8201548152602001601082015481526020016011820154815250509050919050565b6111456128b3565b61114f600061290d565b565b60008160000361116357506001919050565b8160010361117357506000919050565b8160020361118357506003919050565b8160030361119357506002919050565b60405162461bcd60e51b815260206004820152600d60248201526c2130b2103234b932b1ba34b7b760991b60448201526064016106af565b6000546001600160a01b031633146112115760405162461bcd60e51b81526020600482015260096024820152682737ba1037bbb732b960b91b60448201526064016106af565b61121d84848484611d10565b50505050565b61122b6128b3565b600280546001600160a01b03199081166001600160a01b039a8b1617909155600380548216978a169790971790965560078054871695891695909517909455600980548616938816939093179092556004805485169187169190911790556005805484169186169190911790556006805490921693169290921790915550565b6040805180820190915260008082526020820152826000036112fd576040518060400160405280600184600001516112e391906136c1565b60ff168152602001836020015160ff1681525090506106e4565b82600103611321576040518060400160405280836000015160016112e391906136da565b8260020361135e576040518060400160405280836000015160ff1681526020018360200151600161135291906136da565b60ff16905290506106e4565b8260030361138f576040518060400160405280836000015160ff1681526020016001846020015161135291906136c1565b600061139a8461295d565b6040516020016113aa9190613717565b60405160208183030381529060405290508060405162461bcd60e51b81526004016106af9190613752565b6000808260016113e6866002613869565b6113f091906135f0565b901b8516831c9150509392505050565b600c602052816000526040600020818154811061141c57600080fd5b90600052602060002001600091509150505481565b6009546001600160a01b0316331461149a5760405162461bcd60e51b815260206004820152602660248201527f4e6f7420616374696f6e7320636f6e7472616374202d20656e64506c6179657260448201526520b1ba34b7b760d11b60648201526084016106af565b806114fe5760065460405163ce93229760e01b8152600481018490526001600160a01b039091169063ce93229790602401600060405180830381600087803b1580156114e557600080fd5b505af11580156114f9573d6000803e3d6000fd5b505050505b6006546040516347d0e3c960e01b8152600481018490526000916001600160a01b0316906347d0e3c990602401602060405180830381865afa158015611548573d6000803e3d6000fd5b505050506040513d601f19601f8201168201806040525081019061156c9190613875565b90506003811061121d5761121d84846127d7565b6001600160a01b0381166000908152600c60205260408120546060919067ffffffffffffffff8111156115b5576115b5612f16565b6040519080825280602002602001820160405280156115de578160200160208202803683370190505b50905060005b8151811015610b1a576001600160a01b0384166000908152600c6020526040902080548290811061161757611617613603565b906000526020600020015482828151811061163457611634613603565b602090810291909101015280611649816135d7565b9150506115e4565b6001805460009182611662836135d7565b919050555060003360015460014361167a91906135f0565b60405160609390931b6bffffffffffffffffffffffff19166020840152603483019190915240605482015260740160408051601f198184030181529190528051602090910120905060006116ce85856136c1565b6116d99060016136da565b90508460ff168160ff16836116ee919061388e565b6116f89190613671565b95945050505050565b6007546000906001600160a01b031633146117535760405162461bcd60e51b8152602060048201526012602482015271139bdd081b1bd8989e4818dbdb9d1c9858dd60721b60448201526064016106af565b600b80546001818101808455600093845260129092027f0175b7a638427703f0dbe7bb9bbf987a2551717b34e79f33b5b1008d1fa01db901929161179791906135f0565b825460ff1916600190811784556000600485015587519192506117c291908401906020890190612cdc565b50600382018590556040805160808101825260008082526020820181905291810182905260600181905260058301805463ffffffff1916905584900361188557600360009054906101000a90046001600160a01b03166001600160a01b031663f01fc35a6040518163ffffffff1660e01b81526004016020604051808303816000875af1158015611857573d6000803e3d6000fd5b505050506040513d601f19601f8201168201806040525081019061187b9190613875565b60068301556118fa565b60035460405163148e052f60e21b8152600481018690526001600160a01b039091169063523814bc906024016020604051808303816000875af11580156118d0573d6000803e3d6000fd5b505050506040513d601f19601f820116820180604052508101906118f49190613875565b60068301555b60005b6119086001876135f0565b8111611a3057600683015460408051808201909152600a5460ff8082168352610100909104166020820152600185018054611962939291908590811061195057611950613603565b90600052602060002001546000611d10565b60065487516000916001600160a01b031690636621a421908a908590811061198c5761198c613603565b60200260200101516040518263ffffffff1660e01b81526004016119b291815260200190565b602060405180830381865afa1580156119cf573d6000803e3d6000fd5b505050506040513d601f19601f820116820180604052508101906119f391906136a4565b6001600160a01b03166000908152600c60209081526040822080546001810182559083529120018390555080611a28816135d7565b9150506118fd565b5060065460405163e7169ec560e01b81526001600160a01b039091169063e7169ec590611a6390899085906004016138a2565b600060405180830381600087803b158015611a7d57600080fd5b505af1158015611a91573d6000803e3d6000fd5b5050600554604051633b09709560e21b81526001600160a01b03909116925063ec25c2549150611ac79084908a906004016138c4565b600060405180830381600087803b158015611ae157600080fd5b505af1158015611af5573d6000803e3d6000fd5b505050506000604051806101e00160405280600181526020016002815260200160038152602001600481526020016005815260200160068152602001600781526020016008815260200160098152602001600a8152602001600b8152602001600c8152602001600d8152602001600e8152602001600f81525090508083600b0190600f611b83929190612cdc565b50611b93600c840182600f612cdc565b50611ba3600d840182600f612cdc565b50611bb3600e840182600f612cdc565b505061012c600f83015542601090920191909155949350505050565b611bd76128b3565b6001600160a01b038116611c3c5760405162461bcd60e51b815260206004820152602660248201527f4f776e61626c653a206e6577206f776e657220697320746865207a65726f206160448201526564647265737360d01b60648201526084016106af565b611c458161290d565b50565b80518251600091611c58916138dd565b60000b600103611c6a575060006106e4565b81518351611c7891906138dd565b60000b19611c88575060016106e4565b81602001518360200151611c9c91906138dd565b60000b19611cac575060026106e4565b81602001518360200151611cc091906138dd565b60000b600103611cd2575060036106e4565b60405162461bcd60e51b8152602060048201526013602482015272115c9c9bdc8e88139bdd0818591a9858d95b9d606a1b60448201526064016106af565b6000600b8581548110611d2557611d25613603565b9060005260206000209060120201905080600101600081548110611d4b57611d4b613603565b9060005260206000200154831480611d82575080600101600181548110611d7457611d74613603565b906000526020600020015483145b80611dac575080600101600281548110611d9e57611d9e613603565b906000526020600020015483145b80611dd6575080600101600381548110611dc857611dc8613603565b906000526020600020015483145b611e225760405162461bcd60e51b815260206004820152601760248201527f506c61796572206e6f7420696e20746869732067616d6500000000000000000060448201526064016106af565b600654600b80546001600160a01b0390921691638d491b3e9187918791908a908110611e5057611e50613603565b9060005260206000209060120201600601546040518463ffffffff1660e01b8152600401611e80939291906138fe565b6020604051808303816000875af1158015611e9f573d6000803e3d6000fd5b505050506040513d601f19601f82011682018060405250810190611ec3919061393d565b61270457600354600b80546000926001600160a01b0316916381bad36d9189908110611ef157611ef1613603565b90600052602060002090601202016006015487600001518860200151876040518563ffffffff1660e01b8152600401611f47949392919093845260ff928316602085015291166040830152606082015260800190565b6020604051808303816000875af1158015611f66573d6000803e3d6000fd5b505050506040513d601f19601f82011682018060405250810190611f8a9190613875565b600354600b80549293506000926001600160a01b0390921691635805828391908a908110611fba57611fba613603565b906000526020600020906012020160060154846040518363ffffffff1660e01b8152600401611ff3929190918252602082015260400190565b60a060405180830381865afa158015612010573d6000803e3d6000fd5b505050506040513d601f19601f820116820180604052508101906120349190613965565b9050600282118015612059575060008151600581111561205657612056612e2e565b14155b15610a265760018151600581111561207357612073612e2e565b036120c657600b878154811061208b5761208b613603565b600091825260208220600560129092020101805460ff16916120ac836139f8565b91906101000a81548160ff021916908360ff160217905550505b6002815160058111156120db576120db612e2e565b0361213657600b87815481106120f3576120f3613603565b600091825260209091206012909102016005018054610100900460ff1690600161211c836139f8565b91906101000a81548160ff021916908360ff160217905550505b60038151600581111561214b5761214b612e2e565b036121a757600b878154811061216357612163613603565b60009182526020909120601290910201600501805462010000900460ff1690600261218d836139f8565b91906101000a81548160ff021916908360ff160217905550505b6004815160058111156121bc576121bc612e2e565b0361221957600b87815481106121d4576121d4613603565b6000918252602090912060129091020160050180546301000000900460ff169060036121ff836139f8565b91906101000a81548160ff021916908360ff160217905550505b6020810151156123985760048054602083015160405163c82c37b960e01b8152928301526000916001600160a01b039091169063c82c37b990602401600060405180830381865afa158015612272573d6000803e3d6000fd5b505050506040513d6000823e601f3d908101601f1916820160405261229a9190810190613aaf565b905080602001516123925785600b89815481106122b9576122b9613603565b9060005260206000209060120201600701819055508160200151600b89815481106122e6576122e6613603565b9060005260206000209060120201600801819055506005600b898154811061231057612310613603565b60009182526020909120600960129092020101805460ff1916600183600581111561233d5761233d612e2e565b021790555086600b898154811061235657612356613603565b60009182526020918290208351600a6012909302909101919091018054939092015160ff9081166101000261ffff199094169116179190911790555b50610a26565b6000815160058111156123ad576123ad612e2e565b14610a265784600b88815481106123c6576123c6613603565b90600052602060002090601202016007018190555085600b88815481106123ef576123ef613603565b60009182526020918290208351600a6012909302909101919091018054939092015160ff9081166101000261ffff1990941691161791909117905560018151600581111561243f5761243f612e2e565b036124e057612470600b888154811061245a5761245a613603565b9060005260206000209060120201600b01612a66565b600b888154811061248357612483613603565b9060005260206000209060120201600801819055506001600b88815481106124ad576124ad613603565b60009182526020909120600960129092020101805460ff191660018360058111156124da576124da612e2e565b02179055505b6002815160058111156124f5576124f5612e2e565b0361259657612526600b888154811061251057612510613603565b9060005260206000209060120201600c01612a66565b600b888154811061253957612539613603565b9060005260206000209060120201600801819055506002600b888154811061256357612563613603565b60009182526020909120600960129092020101805460ff1916600183600581111561259057612590612e2e565b02179055505b6003815160058111156125ab576125ab612e2e565b0361264c576125dc600b88815481106125c6576125c6613603565b9060005260206000209060120201600d01612a66565b600b88815481106125ef576125ef613603565b9060005260206000209060120201600801819055506003600b888154811061261957612619613603565b60009182526020909120600960129092020101805460ff1916600183600581111561264657612646612e2e565b02179055505b60048151600581111561266157612661612e2e565b03610a2657612692600b888154811061267c5761267c613603565b9060005260206000209060120201600e01612a66565b600b88815481106126a5576126a5613603565b9060005260206000209060120201600801819055506004600b88815481106126cf576126cf613603565b60009182526020909120600960129092020101805460ff191660018360058111156126fc576126fc612e2e565b021790555050505b5050505050565b6000600b838154811061272057612720613603565b6000918252602090912060068054601290930290910160078101549181015460088201546009830154604051636d291bbb60e01b81529396506001600160a01b0390951694636d291bbb9461278894899491938b93600a8b019260ff90911690600401613ba1565b600060405180830381600087803b1580156127a257600080fd5b505af11580156127b6573d6000803e3d6000fd5b505060006007840181905560088401555050600901805460ff191690555050565b6000600b83815481106127ec576127ec613603565b6000918252602090912060065460405163065c363f60e41b815260048101869052601290930290910192506001600160a01b0316906365c363f090602401600060405180830381600087803b15801561284457600080fd5b505af1158015612858573d6000803e3d6000fd5b5050426010840155505060018082015461287291906135f0565b816002015410156128995760028101805490600061288f836135d7565b9190505550505050565b6128a7838260060154612b8c565b60006002820155505050565b6000546001600160a01b0316331461114f5760405162461bcd60e51b815260206004820181905260248201527f4f776e61626c653a2063616c6c6572206973206e6f7420746865206f776e657260448201526064016106af565b600080546001600160a01b038381166001600160a01b0319831681178455604051919092169283917f8be0079c531659141344cd1fd0a4f28419497f9722a3daafe3b4186f6b6457e09190a35050565b6060816000036129845750506040805180820190915260018152600360fc1b602082015290565b8160005b81156129ae5780612998816135d7565b91506129a79050600a8361365d565b9150612988565b60008167ffffffffffffffff8111156129c9576129c9612f16565b6040519080825280601f01601f1916602001820160405280156129f3576020820181803683370190505b5090505b8415612a5e57612a086001836135f0565b9150612a15600a8661388e565b612a20906030613671565b60f81b818381518110612a3557612a35613603565b60200101906001600160f81b031916908160001a905350612a57600a8661365d565b94506129f7565b949350505050565b80546000908190612a79906001906135f0565b90505b8015612b29576000612a8f600083611651565b9050838160ff1681548110612aa657612aa6613603565b9060005260206000200154848381548110612ac357612ac3613603565b9060005260206000200154858481548110612ae057612ae0613603565b906000526020600020016000878560ff1681548110612b0157612b01613603565b6000918252602090912001929092559190915550819050612b2181613619565b915050612a7c565b5081546000908390612b3d906001906135f0565b81548110612b4d57612b4d613603565b9060005260206000200154905082805480612b6a57612b6a613bf6565b600190038181906000526020600020016000905590558060ff16915050919050565b6000600b8381548110612ba157612ba1613603565b60009182526020909120600354604051630b06115560e31b815260048101869052601290930290910192506001600160a01b0316906358308aa890602401600060405180830381600087803b158015612bf957600080fd5b505af1158015612c0d573d6000803e3d6000fd5b505060035460405163c6b41b4560e01b815260048101869052600160248201526001600160a01b03909116925063c6b41b459150604401600060405180830381600087803b158015612c5e57600080fd5b505af1158015612c72573d6000803e3d6000fd5b5050600680549084015460405163668a7f3b60e01b81526001600160a01b03909216935063668a7f3b9250612cae916001860190600401613c0c565b600060405180830381600087803b158015612cc857600080fd5b505af1158015610a26573d6000803e3d6000fd5b828054828255906000526020600020908101928215612d17579160200282015b82811115612d17578251825591602001919060010190612cfc565b50612d23929150612e00565b5090565b60408051610240810182526000808252606060208084018290528385018390528184018390526080808501849052855190810186528381529081018390529384018290528301529060a0820190815260200160008152602001600081526020016000815260200160006005811115612da157612da1612e2e565b8152602001612dc96040518060400160405280600060ff168152602001600060ff1681525090565b8152602001606081526020016060815260200160608152602001606081526020016000815260200160008152602001600081525090565b5b80821115612d235760008155600101612e01565b600060208284031215612e2757600080fd5b5035919050565b634e487b7160e01b600052602160045260246000fd5b60068110612e6257634e487b7160e01b600052602160045260246000fd5b9052565b8d1515815260208082018e905260408083018e905260608084018e90528c5160ff9081166080860152928d0151831660a0850152908c0151821660c08401528b01511660e08201526102208101896101008301528861012083015287610140830152612ed6610160830188612e44565b855160ff9081166101808401526020870151166101a0830152846101c0830152836101e0830152826102008301529e9d5050505050505050505050505050565b634e487b7160e01b600052604160045260246000fd5b6040805190810167ffffffffffffffff81118282101715612f4f57612f4f612f16565b60405290565b60405160e0810167ffffffffffffffff81118282101715612f4f57612f4f612f16565b604051601f8201601f1916810167ffffffffffffffff81118282101715612fa157612fa1612f16565b604052919050565b60ff81168114611c4557600080fd5b600060408284031215612fca57600080fd5b612fd2612f2c565b90508135612fdf81612fa9565b81526020820135612fef81612fa9565b602082015292915050565b60008060006080848603121561300f57600080fd5b833592506130208560208601612fb8565b9150606084013590509250925092565b6000806000806080858703121561304657600080fd5b5050823594602084013594506040840135936060013592509050565b600081518084526020808501945080840160005b8381101561309257815187529582019590820190600101613076565b509495945050505050565b602081526000610d186020830184613062565b6000806000606084860312156130c557600080fd5b505081359360208301359350604090920135919050565b600080604083850312156130ef57600080fd5b50508035926020909101359150565b6020815261311160208201835115159052565b600060208301516102c080604085015261312f6102e0850183613062565b91506040850151606085015260608501516080850152608085015160a085015260a085015161318e60c086018260ff815116825260ff602082015116602083015260ff604082015116604083015260ff60608201511660608301525050565b5060c0850151610140818187015260e0870151915061016082818801526101008801519250610180838189015261012089015193506101a06131d2818a0186612e44565b9289015193506101c0926131f889850186805160ff908116835260209182015116910152565b828a01519450601f199250610200838a890301818b01526132198887613062565b9750828b015195506102209250838a890301838b01526132398887613062565b9750818b01519550838a8903016102408b01526132568887613062565b9750848b01519550838a8903016102608b01526132738887613062565b6101e08c01516102808c0152908b01516102a08b015291909901519490970193909352509395945050505050565b60008060008060a085870312156132b757600080fd5b843593506132c88660208701612fb8565b93969395505050506060820135916080013590565b6001600160a01b0381168114611c4557600080fd5b600080600080600080600080610100898b03121561330f57600080fd5b883561331a816132dd565b9750602089013561332a816132dd565b9650604089013561333a816132dd565b9550606089013561334a816132dd565b9450608089013561335a816132dd565b935060a089013561336a816132dd565b925060c089013561337a816132dd565b915060e089013561338a816132dd565b809150509295985092959890939650565b600080606083850312156133ae57600080fd5b823591506133bf8460208501612fb8565b90509250929050565b604081016106e48284805160ff908116835260209182015116910152565b600080604083850312156133f957600080fd5b8235613404816132dd565b946020939093013593505050565b8015158114611c4557600080fd5b60008060006060848603121561343557600080fd5b8335925060208401359150604084013561344e81613412565b809150509250925092565b60006020828403121561346b57600080fd5b8135610d18816132dd565b6000806040838503121561348957600080fd5b823561349481612fa9565b915060208301356134a481612fa9565b809150509250929050565b600067ffffffffffffffff8211156134c9576134c9612f16565b5060051b60200190565b6000806000606084860312156134e857600080fd5b833567ffffffffffffffff8111156134ff57600080fd5b8401601f8101861361351057600080fd5b80356020613525613520836134af565b612f78565b82815260059290921b8301810191818101908984111561354457600080fd5b938201935b8385101561356257843582529382019390820190613549565b999188013598505060409096013595945050505050565b6000806080838503121561358c57600080fd5b6135968484612fb8565b91506133bf8460408501612fb8565b634e487b7160e01b600052601160045260246000fd5b6000600160ff1b82016135d0576135d06135a5565b5060000390565b6000600182016135e9576135e96135a5565b5060010190565b818103818111156106e4576106e46135a5565b634e487b7160e01b600052603260045260246000fd5b600081613628576136286135a5565b506000190190565b80820281158282048414176106e4576106e46135a5565b634e487b7160e01b600052601260045260246000fd5b60008261366c5761366c613647565b500490565b808201808211156106e4576106e46135a5565b8181036000831280158383131683831282161715610b1a57610b1a6135a5565b6000602082840312156136b657600080fd5b8151610d18816132dd565b60ff82811682821603908111156106e4576106e46135a5565b60ff81811683821601908111156106e4576106e46135a5565b60005b8381101561370e5781810151838201526020016136f6565b50506000910152565b72024b73b30b634b2103234b932b1ba34b7b71d1606d1b8152600082516137458160138501602087016136f3565b9190910160130192915050565b60208152600082518060208401526137718160408501602087016136f3565b601f01601f19169190910160400192915050565b600181815b808511156137c05781600019048211156137a6576137a66135a5565b808516156137b357918102915b93841c939080029061378a565b509250929050565b6000826137d7575060016106e4565b816137e4575060006106e4565b81600181146137fa576002811461380457613820565b60019150506106e4565b60ff841115613815576138156135a5565b50506001821b6106e4565b5060208310610133831016604e8410600b8410161715613843575081810a6106e4565b61384d8383613785565b8060001904821115613861576138616135a5565b029392505050565b6000610d1883836137c8565b60006020828403121561388757600080fd5b5051919050565b60008261389d5761389d613647565b500690565b6040815260006138b56040830185613062565b90508260208301529392505050565b828152604060208201526000612a5e6040830184613062565b600082810b9082900b03607f198112607f821317156106e4576106e46135a5565b6080810161391c8286805160ff908116835260209182015116910152565b604082019390935260600152919050565b805161393881613412565b919050565b60006020828403121561394f57600080fd5b8151610d1881613412565b805161393881612fa9565b600060a0828403121561397757600080fd5b60405160a0810181811067ffffffffffffffff8211171561399a5761399a612f16565b6040528251600681106139ac57600080fd5b81526020838101519082015260408301516139c681612fa9565b604082015260608301516139d981612fa9565b606082015260808301516139ec81613412565b60808201529392505050565b600060ff821660ff8103613a0e57613a0e6135a5565b60010192915050565b600082601f830112613a2857600080fd5b81516020613a38613520836134af565b82815260069290921b84018101918181019086841115613a5757600080fd5b8286015b84811015613aa45760408189031215613a745760008081fd5b613a7c612f2c565b815160178110613a8c5760008081fd5b81528185015185820152835291830191604001613a5b565b509695505050505050565b600060208284031215613ac157600080fd5b815167ffffffffffffffff80821115613ad957600080fd5b9083019060e08286031215613aed57600080fd5b613af5612f55565b82518152613b056020840161392d565b6020820152613b166040840161395a565b6040820152613b276060840161395a565b6060820152608083015182811115613b3e57600080fd5b613b4a87828601613a17565b60808301525060a083015182811115613b6257600080fd5b613b6e87828601613a17565b60a08301525060c083015182811115613b8657600080fd5b613b9287828601613a17565b60c08301525095945050505050565b600061010082019050888252876020830152866040830152856060830152845460ff8116608084015260ff8160081c1660a0840152508360c0830152613bea60e0830184612e44565b98975050505050505050565b634e487b7160e01b600052603160045260246000fd5b60006040820184835260206040818501528185548084526060860191508660005282600020935060005b81811015613c5257845483526001948501949284019201613c36565b509097965050505050505056fea264697066735822122029939c5f4059dd6ca211cbef28c76d9c533976837a716e7b86e0bfb054cdec5d64736f6c63430008110033",
  "devdoc": {
    "kind": "dev",
    "methods": {
      "owner()": {
        "details": "Returns the address of the current owner."
      },
      "renounceOwnership()": {
        "details": "Leaves the contract without owner. It will not be possible to call `onlyOwner` functions anymore. Can only be called by the current owner. NOTE: Renouncing ownership will leave the contract without an owner, thereby removing any functionality that is only available to the owner."
      },
      "transferOwnership(address)": {
        "details": "Transfers ownership of the contract to a new account (`newOwner`). Can only be called by the current owner."
      }
    },
    "version": 1
  },
  "userdoc": {
    "kind": "user",
    "methods": {},
    "version": 1
  },
  "storageLayout": {
    "storage": [
      {
        "astId": 7,
        "contract": "contracts/BCGames.sol:BCGames",
        "label": "_owner",
        "offset": 0,
        "slot": "0",
        "type": "t_address"
      },
      {
        "astId": 17179,
        "contract": "contracts/BCGames.sol:BCGames",
        "label": "TODO_randomSeed",
        "offset": 0,
        "slot": "1",
        "type": "t_uint256"
      },
      {
        "astId": 9346,
        "contract": "contracts/BCGames.sol:BCGames",
        "label": "chars",
        "offset": 0,
        "slot": "2",
        "type": "t_contract(CharInterface)9117"
      },
      {
        "astId": 9349,
        "contract": "contracts/BCGames.sol:BCGames",
        "label": "maps",
        "offset": 0,
        "slot": "3",
        "type": "t_contract(MapInterface)9230"
      },
      {
        "astId": 9352,
        "contract": "contracts/BCGames.sol:BCGames",
        "label": "bcEvents",
        "offset": 0,
        "slot": "4",
        "type": "t_contract(EventsInterface)9098"
      },
      {
        "astId": 9355,
        "contract": "contracts/BCGames.sol:BCGames",
        "label": "items",
        "offset": 0,
        "slot": "5",
        "type": "t_contract(ItemsInterface)9259"
      },
      {
        "astId": 9358,
        "contract": "contracts/BCGames.sol:BCGames",
        "label": "players",
        "offset": 0,
        "slot": "6",
        "type": "t_contract(PlayersInterface)9339"
      },
      {
        "astId": 9360,
        "contract": "contracts/BCGames.sol:BCGames",
        "label": "lobbiesAddress",
        "offset": 0,
        "slot": "7",
        "type": "t_address"
      },
      {
        "astId": 9362,
        "contract": "contracts/BCGames.sol:BCGames",
        "label": "charsAddress",
        "offset": 0,
        "slot": "8",
        "type": "t_address"
      },
      {
        "astId": 9364,
        "contract": "contracts/BCGames.sol:BCGames",
        "label": "actionsAddress",
        "offset": 0,
        "slot": "9",
        "type": "t_address"
      },
      {
        "astId": 9438,
        "contract": "contracts/BCGames.sol:BCGames",
        "label": "StartLocation",
        "offset": 0,
        "slot": "10",
        "type": "t_struct(Position)16968_storage"
      },
      {
        "astId": 9442,
        "contract": "contracts/BCGames.sol:BCGames",
        "label": "games",
        "offset": 0,
        "slot": "11",
        "type": "t_array(t_struct(Game)17063_storage)dyn_storage"
      },
      {
        "astId": 9447,
        "contract": "contracts/BCGames.sol:BCGames",
        "label": "addressToGame",
        "offset": 0,
        "slot": "12",
        "type": "t_mapping(t_address,t_array(t_uint256)dyn_storage)"
      }
    ],
    "types": {
      "t_address": {
        "encoding": "inplace",
        "label": "address",
        "numberOfBytes": "20"
      },
      "t_array(t_struct(Game)17063_storage)dyn_storage": {
        "base": "t_struct(Game)17063_storage",
        "encoding": "dynamic_array",
        "label": "struct BCTypes.Game[]",
        "numberOfBytes": "32"
      },
      "t_array(t_uint256)dyn_storage": {
        "base": "t_uint256",
        "encoding": "dynamic_array",
        "label": "uint256[]",
        "numberOfBytes": "32"
      },
      "t_bool": {
        "encoding": "inplace",
        "label": "bool",
        "numberOfBytes": "1"
      },
      "t_contract(CharInterface)9117": {
        "encoding": "inplace",
        "label": "contract CharInterface",
        "numberOfBytes": "20"
      },
      "t_contract(EventsInterface)9098": {
        "encoding": "inplace",
        "label": "contract EventsInterface",
        "numberOfBytes": "20"
      },
      "t_contract(ItemsInterface)9259": {
        "encoding": "inplace",
        "label": "contract ItemsInterface",
        "numberOfBytes": "20"
      },
      "t_contract(MapInterface)9230": {
        "encoding": "inplace",
        "label": "contract MapInterface",
        "numberOfBytes": "20"
      },
      "t_contract(PlayersInterface)9339": {
        "encoding": "inplace",
        "label": "contract PlayersInterface",
        "numberOfBytes": "20"
      },
      "t_enum(BCEventType)16900": {
        "encoding": "inplace",
        "label": "enum BCTypes.BCEventType",
        "numberOfBytes": "1"
      },
      "t_mapping(t_address,t_array(t_uint256)dyn_storage)": {
        "encoding": "mapping",
        "key": "t_address",
        "label": "mapping(address => uint256[])",
        "numberOfBytes": "32",
        "value": "t_array(t_uint256)dyn_storage"
      },
      "t_struct(EventTracker)16963_storage": {
        "encoding": "inplace",
        "label": "struct BCTypes.EventTracker",
        "members": [
          {
            "astId": 16956,
            "contract": "contracts/BCGames.sol:BCGames",
            "label": "bugEvents",
            "offset": 0,
            "slot": "0",
            "type": "t_uint8"
          },
          {
            "astId": 16958,
            "contract": "contracts/BCGames.sol:BCGames",
            "label": "mysteryEvents",
            "offset": 1,
            "slot": "0",
            "type": "t_uint8"
          },
          {
            "astId": 16960,
            "contract": "contracts/BCGames.sol:BCGames",
            "label": "scavEvents",
            "offset": 2,
            "slot": "0",
            "type": "t_uint8"
          },
          {
            "astId": 16962,
            "contract": "contracts/BCGames.sol:BCGames",
            "label": "shipEvents",
            "offset": 3,
            "slot": "0",
            "type": "t_uint8"
          }
        ],
        "numberOfBytes": "32"
      },
      "t_struct(Game)17063_storage": {
        "encoding": "inplace",
        "label": "struct BCTypes.Game",
        "members": [
          {
            "astId": 17020,
            "contract": "contracts/BCGames.sol:BCGames",
            "label": "active",
            "offset": 0,
            "slot": "0",
            "type": "t_bool"
          },
          {
            "astId": 17023,
            "contract": "contracts/BCGames.sol:BCGames",
            "label": "playerIndexes",
            "offset": 0,
            "slot": "1",
            "type": "t_array(t_uint256)dyn_storage"
          },
          {
            "astId": 17025,
            "contract": "contracts/BCGames.sol:BCGames",
            "label": "currentPlayerTurnIndex",
            "offset": 0,
            "slot": "2",
            "type": "t_uint256"
          },
          {
            "astId": 17027,
            "contract": "contracts/BCGames.sol:BCGames",
            "label": "numPlayers",
            "offset": 0,
            "slot": "3",
            "type": "t_uint256"
          },
          {
            "astId": 17029,
            "contract": "contracts/BCGames.sol:BCGames",
            "label": "turnsTaken",
            "offset": 0,
            "slot": "4",
            "type": "t_uint256"
          },
          {
            "astId": 17032,
            "contract": "contracts/BCGames.sol:BCGames",
            "label": "eventTracker",
            "offset": 0,
            "slot": "5",
            "type": "t_struct(EventTracker)16963_storage"
          },
          {
            "astId": 17034,
            "contract": "contracts/BCGames.sol:BCGames",
            "label": "mapId",
            "offset": 0,
            "slot": "6",
            "type": "t_uint256"
          },
          {
            "astId": 17036,
            "contract": "contracts/BCGames.sol:BCGames",
            "label": "eventPlayerId",
            "offset": 0,
            "slot": "7",
            "type": "t_uint256"
          },
          {
            "astId": 17038,
            "contract": "contracts/BCGames.sol:BCGames",
            "label": "eventNumber",
            "offset": 0,
            "slot": "8",
            "type": "t_uint256"
          },
          {
            "astId": 17041,
            "contract": "contracts/BCGames.sol:BCGames",
            "label": "eventType",
            "offset": 0,
            "slot": "9",
            "type": "t_enum(BCEventType)16900"
          },
          {
            "astId": 17044,
            "contract": "contracts/BCGames.sol:BCGames",
            "label": "eventPosition",
            "offset": 0,
            "slot": "10",
            "type": "t_struct(Position)16968_storage"
          },
          {
            "astId": 17047,
            "contract": "contracts/BCGames.sol:BCGames",
            "label": "unusedBugEvents",
            "offset": 0,
            "slot": "11",
            "type": "t_array(t_uint256)dyn_storage"
          },
          {
            "astId": 17050,
            "contract": "contracts/BCGames.sol:BCGames",
            "label": "unusedMysteryEvents",
            "offset": 0,
            "slot": "12",
            "type": "t_array(t_uint256)dyn_storage"
          },
          {
            "astId": 17053,
            "contract": "contracts/BCGames.sol:BCGames",
            "label": "unusedScavEvents",
            "offset": 0,
            "slot": "13",
            "type": "t_array(t_uint256)dyn_storage"
          },
          {
            "astId": 17056,
            "contract": "contracts/BCGames.sol:BCGames",
            "label": "unusedShipEvents",
            "offset": 0,
            "slot": "14",
            "type": "t_array(t_uint256)dyn_storage"
          },
          {
            "astId": 17058,
            "contract": "contracts/BCGames.sol:BCGames",
            "label": "turnTimeLimit",
            "offset": 0,
            "slot": "15",
            "type": "t_uint256"
          },
          {
            "astId": 17060,
            "contract": "contracts/BCGames.sol:BCGames",
            "label": "lastTurnTimestamp",
            "offset": 0,
            "slot": "16",
            "type": "t_uint256"
          },
          {
            "astId": 17062,
            "contract": "contracts/BCGames.sol:BCGames",
            "label": "DEBUG_returnAmount",
            "offset": 0,
            "slot": "17",
            "type": "t_uint256"
          }
        ],
        "numberOfBytes": "576"
      },
      "t_struct(Position)16968_storage": {
        "encoding": "inplace",
        "label": "struct BCTypes.Position",
        "members": [
          {
            "astId": 16965,
            "contract": "contracts/BCGames.sol:BCGames",
            "label": "row",
            "offset": 0,
            "slot": "0",
            "type": "t_uint8"
          },
          {
            "astId": 16967,
            "contract": "contracts/BCGames.sol:BCGames",
            "label": "col",
            "offset": 1,
            "slot": "0",
            "type": "t_uint8"
          }
        ],
        "numberOfBytes": "32"
      },
      "t_uint256": {
        "encoding": "inplace",
        "label": "uint256",
        "numberOfBytes": "32"
      },
      "t_uint8": {
        "encoding": "inplace",
        "label": "uint8",
        "numberOfBytes": "1"
      }
    }
  }
}