{
  "address": "0x6D9FEe9D0D0301Eeb0aA0f4e9877d67be073Df6a",
  "abi": [
    {
      "inputs": [],
      "stateMutability": "nonpayable",
      "type": "constructor"
    },
    {
      "anonymous": false,
      "inputs": [
        {
          "indexed": false,
          "internalType": "uint256",
          "name": "gameId",
          "type": "uint256"
        },
        {
          "indexed": false,
          "internalType": "uint256",
          "name": "roll",
          "type": "uint256"
        },
        {
          "indexed": false,
          "internalType": "uint256",
          "name": "forValue",
          "type": "uint256"
        },
        {
          "indexed": false,
          "internalType": "uint256",
          "name": "against",
          "type": "uint256"
        }
      ],
      "name": "ChallengeEvent",
      "type": "event"
    },
    {
      "anonymous": false,
      "inputs": [
        {
          "indexed": false,
          "internalType": "enum BCTypes.DenizenType",
          "name": "denizenType",
          "type": "uint8"
        },
        {
          "indexed": false,
          "internalType": "uint256",
          "name": "_playerTarget",
          "type": "uint256"
        },
        {
          "indexed": false,
          "internalType": "uint256",
          "name": "_damage",
          "type": "uint256"
        },
        {
          "indexed": false,
          "internalType": "uint256",
          "name": "_turnabout",
          "type": "uint256"
        }
      ],
      "name": "DenizenAttack",
      "type": "event"
    },
    {
      "anonymous": false,
      "inputs": [
        {
          "indexed": false,
          "internalType": "uint256",
          "name": "gameId",
          "type": "uint256"
        },
        {
          "indexed": false,
          "internalType": "uint256",
          "name": "roll",
          "type": "uint256"
        }
      ],
      "name": "DiceRollEvent",
      "type": "event"
    },
    {
      "anonymous": false,
      "inputs": [
        {
          "indexed": true,
          "internalType": "address",
          "name": "previousOwner",
          "type": "address"
        },
        {
          "indexed": true,
          "internalType": "address",
          "name": "newOwner",
          "type": "address"
        }
      ],
      "name": "OwnershipTransferred",
      "type": "event"
    },
    {
      "inputs": [
        {
          "internalType": "uint256",
          "name": "_gameId",
          "type": "uint256"
        },
        {
          "internalType": "enum BCTypes.DenizenType",
          "name": "_denizenType",
          "type": "uint8"
        },
        {
          "internalType": "uint256",
          "name": "_row",
          "type": "uint256"
        },
        {
          "internalType": "uint256",
          "name": "_col",
          "type": "uint256"
        }
      ],
      "name": "DEBUGforceSpawnDenizen",
      "outputs": [],
      "stateMutability": "nonpayable",
      "type": "function"
    },
    {
      "inputs": [],
      "name": "StartLocation",
      "outputs": [
        {
          "internalType": "uint8",
          "name": "row",
          "type": "uint8"
        },
        {
          "internalType": "uint8",
          "name": "col",
          "type": "uint8"
        }
      ],
      "stateMutability": "view",
      "type": "function"
    },
    {
      "inputs": [
        {
          "internalType": "int256",
          "name": "x",
          "type": "int256"
        }
      ],
      "name": "abs",
      "outputs": [
        {
          "internalType": "int256",
          "name": "",
          "type": "int256"
        }
      ],
      "stateMutability": "pure",
      "type": "function"
    },
    {
      "inputs": [],
      "name": "actionsAddress",
      "outputs": [
        {
          "internalType": "address",
          "name": "",
          "type": "address"
        }
      ],
      "stateMutability": "view",
      "type": "function"
    },
    {
      "inputs": [
        {
          "internalType": "uint256",
          "name": "_gameId",
          "type": "uint256"
        },
        {
          "internalType": "enum BCTypes.DenizenType",
          "name": "_type",
          "type": "uint8"
        },
        {
          "internalType": "uint256",
          "name": "_row",
          "type": "uint256"
        },
        {
          "internalType": "uint256",
          "name": "_col",
          "type": "uint256"
        }
      ],
      "name": "addDenizen",
      "outputs": [],
      "stateMutability": "nonpayable",
      "type": "function"
    },
    {
      "inputs": [
        {
          "internalType": "address",
          "name": "",
          "type": "address"
        },
        {
          "internalType": "uint256",
          "name": "",
          "type": "uint256"
        }
      ],
      "name": "addressToGame",
      "outputs": [
        {
          "internalType": "uint256",
          "name": "",
          "type": "uint256"
        }
      ],
      "stateMutability": "view",
      "type": "function"
    },
    {
      "inputs": [],
      "name": "bcEvents",
      "outputs": [
        {
          "internalType": "contract EventsInterface",
          "name": "",
          "type": "address"
        }
      ],
      "stateMutability": "view",
      "type": "function"
    },
    {
      "inputs": [],
      "name": "chars",
      "outputs": [
        {
          "internalType": "contract CharInterface",
          "name": "",
          "type": "address"
        }
      ],
      "stateMutability": "view",
      "type": "function"
    },
    {
      "inputs": [],
      "name": "charsAddress",
      "outputs": [
        {
          "internalType": "address",
          "name": "",
          "type": "address"
        }
      ],
      "stateMutability": "view",
      "type": "function"
    },
    {
      "inputs": [
        {
          "internalType": "uint256",
          "name": "_gameId",
          "type": "uint256"
        },
        {
          "components": [
            {
              "internalType": "uint8",
              "name": "row",
              "type": "uint8"
            },
            {
              "internalType": "uint8",
              "name": "col",
              "type": "uint8"
            }
          ],
          "internalType": "struct BCTypes.Position",
          "name": "_position",
          "type": "tuple"
        },
        {
          "internalType": "uint256",
          "name": "_playerId",
          "type": "uint256"
        },
        {
          "internalType": "uint256",
          "name": "_debugRoomId",
          "type": "uint256"
        }
      ],
      "name": "debugMovePlayer",
      "outputs": [],
      "stateMutability": "nonpayable",
      "type": "function"
    },
    {
      "inputs": [
        {
          "internalType": "enum BCTypes.DenizenType",
          "name": "",
          "type": "uint8"
        }
      ],
      "name": "denizenDef",
      "outputs": [
        {
          "internalType": "uint256",
          "name": "",
          "type": "uint256"
        }
      ],
      "stateMutability": "view",
      "type": "function"
    },
    {
      "inputs": [
        {
          "internalType": "enum BCTypes.DenizenType",
          "name": "",
          "type": "uint8"
        }
      ],
      "name": "denizenDmg",
      "outputs": [
        {
          "internalType": "uint256",
          "name": "",
          "type": "uint256"
        }
      ],
      "stateMutability": "view",
      "type": "function"
    },
    {
      "inputs": [
        {
          "internalType": "enum BCTypes.DenizenType",
          "name": "",
          "type": "uint8"
        }
      ],
      "name": "denizenHealth",
      "outputs": [
        {
          "internalType": "uint256",
          "name": "",
          "type": "uint256"
        }
      ],
      "stateMutability": "view",
      "type": "function"
    },
    {
      "inputs": [
        {
          "internalType": "enum BCTypes.DenizenType",
          "name": "",
          "type": "uint8"
        }
      ],
      "name": "denizenMovement",
      "outputs": [
        {
          "internalType": "uint256",
          "name": "",
          "type": "uint256"
        }
      ],
      "stateMutability": "view",
      "type": "function"
    },
    {
      "inputs": [
        {
          "internalType": "enum BCTypes.DenizenType",
          "name": "",
          "type": "uint8"
        }
      ],
      "name": "denizenOff",
      "outputs": [
        {
          "internalType": "uint256",
          "name": "",
          "type": "uint256"
        }
      ],
      "stateMutability": "view",
      "type": "function"
    },
    {
      "inputs": [
        {
          "internalType": "uint256",
          "name": "_gameId",
          "type": "uint256"
        },
        {
          "internalType": "uint256",
          "name": "_playerId",
          "type": "uint256"
        },
        {
          "internalType": "bool",
          "name": "_free",
          "type": "bool"
        }
      ],
      "name": "endPlayerAction",
      "outputs": [],
      "stateMutability": "nonpayable",
      "type": "function"
    },
    {
      "inputs": [
        {
          "internalType": "uint256",
          "name": "_id",
          "type": "uint256"
        }
      ],
      "name": "extGetGame",
      "outputs": [
        {
          "components": [
            {
              "internalType": "bool",
              "name": "active",
              "type": "bool"
            },
            {
              "internalType": "bool",
              "name": "denizenTurn",
              "type": "bool"
            },
            {
              "internalType": "uint256[]",
              "name": "playerIndexes",
              "type": "uint256[]"
            },
            {
              "internalType": "uint256",
              "name": "currentPlayerTurnIndex",
              "type": "uint256"
            },
            {
              "internalType": "uint256",
              "name": "numPlayers",
              "type": "uint256"
            },
            {
              "internalType": "uint256",
              "name": "turnsTaken",
              "type": "uint256"
            },
            {
              "components": [
                {
                  "internalType": "uint8",
                  "name": "bugEvents",
                  "type": "uint8"
                },
                {
                  "internalType": "uint8",
                  "name": "mysteryEvents",
                  "type": "uint8"
                },
                {
                  "internalType": "uint8",
                  "name": "scavEvents",
                  "type": "uint8"
                },
                {
                  "internalType": "uint8",
                  "name": "shipEvents",
                  "type": "uint8"
                }
              ],
              "internalType": "struct BCTypes.EventTracker",
              "name": "eventTracker",
              "type": "tuple"
            },
            {
              "internalType": "uint256",
              "name": "mapId",
              "type": "uint256"
            },
            {
              "internalType": "uint256",
              "name": "eventPlayerId",
              "type": "uint256"
            },
            {
              "internalType": "uint256",
              "name": "eventNumber",
              "type": "uint256"
            },
            {
              "internalType": "enum BCTypes.BCEventType",
              "name": "eventType",
              "type": "uint8"
            },
            {
              "components": [
                {
                  "internalType": "uint8",
                  "name": "row",
                  "type": "uint8"
                },
                {
                  "internalType": "uint8",
                  "name": "col",
                  "type": "uint8"
                }
              ],
              "internalType": "struct BCTypes.Position",
              "name": "eventPosition",
              "type": "tuple"
            },
            {
              "internalType": "uint256[]",
              "name": "unusedBugEvents",
              "type": "uint256[]"
            },
            {
              "internalType": "uint256[]",
              "name": "unusedMysteryEvents",
              "type": "uint256[]"
            },
            {
              "internalType": "uint256[]",
              "name": "unusedScavEvents",
              "type": "uint256[]"
            },
            {
              "internalType": "uint256[]",
              "name": "unusedShipEvents",
              "type": "uint256[]"
            },
            {
              "internalType": "uint256",
              "name": "turnTimeLimit",
              "type": "uint256"
            },
            {
              "internalType": "uint256",
              "name": "lastTurnTimestamp",
              "type": "uint256"
            },
            {
              "internalType": "uint256",
              "name": "DEBUG_returnAmount",
              "type": "uint256"
            },
            {
              "components": [
                {
                  "internalType": "uint256",
                  "name": "id",
                  "type": "uint256"
                },
                {
                  "internalType": "uint256",
                  "name": "gameId",
                  "type": "uint256"
                },
                {
                  "internalType": "enum BCTypes.DenizenType",
                  "name": "denizenType",
                  "type": "uint8"
                },
                {
                  "components": [
                    {
                      "internalType": "uint8",
                      "name": "row",
                      "type": "uint8"
                    },
                    {
                      "internalType": "uint8",
                      "name": "col",
                      "type": "uint8"
                    }
                  ],
                  "internalType": "struct BCTypes.Position",
                  "name": "position",
                  "type": "tuple"
                },
                {
                  "internalType": "uint256",
                  "name": "healthRemaining",
                  "type": "uint256"
                }
              ],
              "internalType": "struct BCTypes.Denizen[]",
              "name": "denizens",
              "type": "tuple[]"
            }
          ],
          "internalType": "struct BCTypes.Game",
          "name": "",
          "type": "tuple"
        }
      ],
      "stateMutability": "view",
      "type": "function"
    },
    {
      "inputs": [
        {
          "internalType": "uint256",
          "name": "_gameId",
          "type": "uint256"
        }
      ],
      "name": "extGetGamePlayerIndexes",
      "outputs": [
        {
          "internalType": "uint256[]",
          "name": "",
          "type": "uint256[]"
        }
      ],
      "stateMutability": "view",
      "type": "function"
    },
    {
      "inputs": [
        {
          "internalType": "address",
          "name": "_playerAddress",
          "type": "address"
        }
      ],
      "name": "extGetGamesOfPlayer",
      "outputs": [
        {
          "internalType": "uint256[]",
          "name": "",
          "type": "uint256[]"
        }
      ],
      "stateMutability": "view",
      "type": "function"
    },
    {
      "inputs": [],
      "name": "extGetNumGames",
      "outputs": [
        {
          "internalType": "uint256",
          "name": "",
          "type": "uint256"
        }
      ],
      "stateMutability": "view",
      "type": "function"
    },
    {
      "inputs": [
        {
          "internalType": "uint256",
          "name": "_gameId",
          "type": "uint256"
        },
        {
          "components": [
            {
              "internalType": "uint8",
              "name": "row",
              "type": "uint8"
            },
            {
              "internalType": "uint8",
              "name": "col",
              "type": "uint8"
            }
          ],
          "internalType": "struct BCTypes.Position",
          "name": "_position",
          "type": "tuple"
        },
        {
          "internalType": "uint256",
          "name": "_playerId",
          "type": "uint256"
        }
      ],
      "name": "extMovePlayer",
      "outputs": [],
      "stateMutability": "nonpayable",
      "type": "function"
    },
    {
      "inputs": [
        {
          "internalType": "uint256",
          "name": "_gameId",
          "type": "uint256"
        }
      ],
      "name": "forceNextTurn",
      "outputs": [],
      "stateMutability": "nonpayable",
      "type": "function"
    },
    {
      "inputs": [
        {
          "internalType": "uint256",
          "name": "",
          "type": "uint256"
        }
      ],
      "name": "games",
      "outputs": [
        {
          "internalType": "bool",
          "name": "active",
          "type": "bool"
        },
        {
          "internalType": "bool",
          "name": "denizenTurn",
          "type": "bool"
        },
        {
          "internalType": "uint256",
          "name": "currentPlayerTurnIndex",
          "type": "uint256"
        },
        {
          "internalType": "uint256",
          "name": "numPlayers",
          "type": "uint256"
        },
        {
          "internalType": "uint256",
          "name": "turnsTaken",
          "type": "uint256"
        },
        {
          "components": [
            {
              "internalType": "uint8",
              "name": "bugEvents",
              "type": "uint8"
            },
            {
              "internalType": "uint8",
              "name": "mysteryEvents",
              "type": "uint8"
            },
            {
              "internalType": "uint8",
              "name": "scavEvents",
              "type": "uint8"
            },
            {
              "internalType": "uint8",
              "name": "shipEvents",
              "type": "uint8"
            }
          ],
          "internalType": "struct BCTypes.EventTracker",
          "name": "eventTracker",
          "type": "tuple"
        },
        {
          "internalType": "uint256",
          "name": "mapId",
          "type": "uint256"
        },
        {
          "internalType": "uint256",
          "name": "eventPlayerId",
          "type": "uint256"
        },
        {
          "internalType": "uint256",
          "name": "eventNumber",
          "type": "uint256"
        },
        {
          "internalType": "enum BCTypes.BCEventType",
          "name": "eventType",
          "type": "uint8"
        },
        {
          "components": [
            {
              "internalType": "uint8",
              "name": "row",
              "type": "uint8"
            },
            {
              "internalType": "uint8",
              "name": "col",
              "type": "uint8"
            }
          ],
          "internalType": "struct BCTypes.Position",
          "name": "eventPosition",
          "type": "tuple"
        },
        {
          "internalType": "uint256",
          "name": "turnTimeLimit",
          "type": "uint256"
        },
        {
          "internalType": "uint256",
          "name": "lastTurnTimestamp",
          "type": "uint256"
        },
        {
          "internalType": "uint256",
          "name": "DEBUG_returnAmount",
          "type": "uint256"
        }
      ],
      "stateMutability": "view",
      "type": "function"
    },
    {
      "inputs": [
        {
          "internalType": "uint256",
          "name": "_gameId",
          "type": "uint256"
        }
      ],
      "name": "getDenizensInGame",
      "outputs": [
        {
          "components": [
            {
              "internalType": "uint256",
              "name": "id",
              "type": "uint256"
            },
            {
              "internalType": "uint256",
              "name": "gameId",
              "type": "uint256"
            },
            {
              "internalType": "enum BCTypes.DenizenType",
              "name": "denizenType",
              "type": "uint8"
            },
            {
              "components": [
                {
                  "internalType": "uint8",
                  "name": "row",
                  "type": "uint8"
                },
                {
                  "internalType": "uint8",
                  "name": "col",
                  "type": "uint8"
                }
              ],
              "internalType": "struct BCTypes.Position",
              "name": "position",
              "type": "tuple"
            },
            {
              "internalType": "uint256",
              "name": "healthRemaining",
              "type": "uint256"
            }
          ],
          "internalType": "struct BCTypes.Denizen[]",
          "name": "",
          "type": "tuple[]"
        }
      ],
      "stateMutability": "view",
      "type": "function"
    },
    {
      "inputs": [
        {
          "components": [
            {
              "internalType": "uint8",
              "name": "row",
              "type": "uint8"
            },
            {
              "internalType": "uint8",
              "name": "col",
              "type": "uint8"
            }
          ],
          "internalType": "struct BCTypes.Position",
          "name": "_firstRoom",
          "type": "tuple"
        },
        {
          "components": [
            {
              "internalType": "uint8",
              "name": "row",
              "type": "uint8"
            },
            {
              "internalType": "uint8",
              "name": "col",
              "type": "uint8"
            }
          ],
          "internalType": "struct BCTypes.Position",
          "name": "_secondRoom",
          "type": "tuple"
        }
      ],
      "name": "getDirectionBetween",
      "outputs": [
        {
          "internalType": "uint256",
          "name": "",
          "type": "uint256"
        }
      ],
      "stateMutability": "pure",
      "type": "function"
    },
    {
      "inputs": [
        {
          "internalType": "uint256",
          "name": "_direction",
          "type": "uint256"
        },
        {
          "components": [
            {
              "internalType": "uint8",
              "name": "row",
              "type": "uint8"
            },
            {
              "internalType": "uint8",
              "name": "col",
              "type": "uint8"
            }
          ],
          "internalType": "struct BCTypes.Position",
          "name": "_start",
          "type": "tuple"
        }
      ],
      "name": "getNeighborRoom",
      "outputs": [
        {
          "components": [
            {
              "internalType": "uint8",
              "name": "row",
              "type": "uint8"
            },
            {
              "internalType": "uint8",
              "name": "col",
              "type": "uint8"
            }
          ],
          "internalType": "struct BCTypes.Position",
          "name": "",
          "type": "tuple"
        }
      ],
      "stateMutability": "pure",
      "type": "function"
    },
    {
      "inputs": [
        {
          "internalType": "uint256",
          "name": "_traitNum",
          "type": "uint256"
        },
        {
          "internalType": "uint256",
          "name": "_subTraitNum",
          "type": "uint256"
        }
      ],
      "name": "getUIOffset",
      "outputs": [
        {
          "internalType": "uint256",
          "name": "",
          "type": "uint256"
        }
      ],
      "stateMutability": "pure",
      "type": "function"
    },
    {
      "inputs": [],
      "name": "items",
      "outputs": [
        {
          "internalType": "contract ItemsInterface",
          "name": "",
          "type": "address"
        }
      ],
      "stateMutability": "view",
      "type": "function"
    },
    {
      "inputs": [
        {
          "internalType": "uint256",
          "name": "_gameId",
          "type": "uint256"
        },
        {
          "internalType": "uint256",
          "name": "_playerId",
          "type": "uint256"
        },
        {
          "internalType": "uint256",
          "name": "_charId",
          "type": "uint256"
        },
        {
          "internalType": "uint256",
          "name": "_currentPlayerTurnIndex",
          "type": "uint256"
        }
      ],
      "name": "leaveGame",
      "outputs": [],
      "stateMutability": "nonpayable",
      "type": "function"
    },
    {
      "inputs": [],
      "name": "lobbiesAddress",
      "outputs": [
        {
          "internalType": "address",
          "name": "",
          "type": "address"
        }
      ],
      "stateMutability": "view",
      "type": "function"
    },
    {
      "inputs": [
        {
          "components": [
            {
              "internalType": "uint8",
              "name": "row",
              "type": "uint8"
            },
            {
              "internalType": "uint8",
              "name": "col",
              "type": "uint8"
            }
          ],
          "internalType": "struct BCTypes.Position",
          "name": "_pos1",
          "type": "tuple"
        },
        {
          "components": [
            {
              "internalType": "uint8",
              "name": "row",
              "type": "uint8"
            },
            {
              "internalType": "uint8",
              "name": "col",
              "type": "uint8"
            }
          ],
          "internalType": "struct BCTypes.Position",
          "name": "_pos2",
          "type": "tuple"
        }
      ],
      "name": "manhattanDistance",
      "outputs": [
        {
          "internalType": "uint256",
          "name": "",
          "type": "uint256"
        }
      ],
      "stateMutability": "pure",
      "type": "function"
    },
    {
      "inputs": [],
      "name": "maps",
      "outputs": [
        {
          "internalType": "contract MapInterface",
          "name": "",
          "type": "address"
        }
      ],
      "stateMutability": "view",
      "type": "function"
    },
    {
      "inputs": [
        {
          "internalType": "uint256",
          "name": "_min",
          "type": "uint256"
        },
        {
          "internalType": "uint256",
          "name": "_max",
          "type": "uint256"
        },
        {
          "internalType": "uint256",
          "name": "_val",
          "type": "uint256"
        },
        {
          "internalType": "uint256",
          "name": "_valMax",
          "type": "uint256"
        }
      ],
      "name": "normalizeToSmallRange",
      "outputs": [
        {
          "internalType": "uint8",
          "name": "",
          "type": "uint8"
        }
      ],
      "stateMutability": "pure",
      "type": "function"
    },
    {
      "inputs": [
        {
          "internalType": "uint256",
          "name": "_direction",
          "type": "uint256"
        }
      ],
      "name": "opposite",
      "outputs": [
        {
          "internalType": "uint256",
          "name": "",
          "type": "uint256"
        }
      ],
      "stateMutability": "pure",
      "type": "function"
    },
    {
      "inputs": [],
      "name": "owner",
      "outputs": [
        {
          "internalType": "address",
          "name": "",
          "type": "address"
        }
      ],
      "stateMutability": "view",
      "type": "function"
    },
    {
      "inputs": [],
      "name": "players",
      "outputs": [
        {
          "internalType": "contract PlayersInterface",
          "name": "",
          "type": "address"
        }
      ],
      "stateMutability": "view",
      "type": "function"
    },
    {
      "inputs": [
        {
          "internalType": "uint256",
          "name": "_gameId",
          "type": "uint256"
        }
      ],
      "name": "processDenizenMoves",
      "outputs": [],
      "stateMutability": "nonpayable",
      "type": "function"
    },
    {
      "inputs": [],
      "name": "randKeccak",
      "outputs": [
        {
          "internalType": "bytes32",
          "name": "",
          "type": "bytes32"
        }
      ],
      "stateMutability": "nonpayable",
      "type": "function"
    },
    {
      "inputs": [],
      "name": "renounceOwnership",
      "outputs": [],
      "stateMutability": "nonpayable",
      "type": "function"
    },
    {
      "inputs": [
        {
          "internalType": "uint256",
          "name": "_gameId",
          "type": "uint256"
        },
        {
          "internalType": "uint256",
          "name": "_for",
          "type": "uint256"
        },
        {
          "internalType": "uint256",
          "name": "_against",
          "type": "uint256"
        }
      ],
      "name": "resolveChallenge",
      "outputs": [
        {
          "internalType": "bool",
          "name": "",
          "type": "bool"
        }
      ],
      "stateMutability": "nonpayable",
      "type": "function"
    },
    {
      "inputs": [
        {
          "internalType": "uint256",
          "name": "_gameId",
          "type": "uint256"
        },
        {
          "internalType": "uint256",
          "name": "_choice",
          "type": "uint256"
        }
      ],
      "name": "resolveEvent",
      "outputs": [],
      "stateMutability": "nonpayable",
      "type": "function"
    },
    {
      "inputs": [
        {
          "internalType": "uint256",
          "name": "_gameId",
          "type": "uint256"
        }
      ],
      "name": "roll",
      "outputs": [
        {
          "internalType": "uint256",
          "name": "",
          "type": "uint256"
        }
      ],
      "stateMutability": "nonpayable",
      "type": "function"
    },
    {
      "inputs": [
        {
          "internalType": "address",
          "name": "_charAddress",
          "type": "address"
        },
        {
          "internalType": "address",
          "name": "_utilsAddress",
          "type": "address"
        },
        {
          "internalType": "address",
          "name": "_mapsAddress",
          "type": "address"
        },
        {
          "internalType": "address",
          "name": "_lobbiesAddress",
          "type": "address"
        },
        {
          "internalType": "address",
          "name": "_actionsAddress",
          "type": "address"
        },
        {
          "internalType": "address",
          "name": "_eventsAddress",
          "type": "address"
        },
        {
          "internalType": "address",
          "name": "_itemsAddress",
          "type": "address"
        },
        {
          "internalType": "address",
          "name": "_playersAddress",
          "type": "address"
        }
      ],
      "name": "setContractAddresses",
      "outputs": [],
      "stateMutability": "nonpayable",
      "type": "function"
    },
    {
      "inputs": [
        {
          "internalType": "bytes32",
          "name": "_hash",
          "type": "bytes32"
        },
        {
          "internalType": "uint256",
          "name": "_size",
          "type": "uint256"
        },
        {
          "internalType": "uint256",
          "name": "_offset",
          "type": "uint256"
        }
      ],
      "name": "sliceHashToSmallInt",
      "outputs": [
        {
          "internalType": "uint8",
          "name": "",
          "type": "uint8"
        }
      ],
      "stateMutability": "pure",
      "type": "function"
    },
    {
      "inputs": [
        {
          "internalType": "uint8",
          "name": "_min",
          "type": "uint8"
        },
        {
          "internalType": "uint8",
          "name": "_max",
          "type": "uint8"
        }
      ],
      "name": "smallIntBetweenVals",
      "outputs": [
        {
          "internalType": "uint8",
          "name": "",
          "type": "uint8"
        }
      ],
      "stateMutability": "nonpayable",
      "type": "function"
    },
    {
      "inputs": [
        {
          "internalType": "uint256[]",
          "name": "_playerIndexes",
          "type": "uint256[]"
        },
        {
          "internalType": "uint256",
          "name": "_numPlayers",
          "type": "uint256"
        },
        {
          "internalType": "uint256",
          "name": "_debugRoomId",
          "type": "uint256"
        }
      ],
      "name": "startGame",
      "outputs": [
        {
          "internalType": "uint256",
          "name": "",
          "type": "uint256"
        }
      ],
      "stateMutability": "nonpayable",
      "type": "function"
    },
    {
      "inputs": [
        {
          "internalType": "address",
          "name": "newOwner",
          "type": "address"
        }
      ],
      "name": "transferOwnership",
      "outputs": [],
      "stateMutability": "nonpayable",
      "type": "function"
    }
  ],
  "transactionHash": "0x47c5fe311aa92f788356cca671a4d0a15ecbe6f45493148b61ae0f73f08c9faa",
  "args": [],
  "numDeployments": 1,
  "solcInputHash": "8f4f80259dfab9a55029663e25673a43",
  "bytecode": "0x600060015560c0604052600a6080819052600660a052805461ffff191661060a1790553480156200002f57600080fd5b506200003b33620005f8565b60027ffd54ff1ed53f34a900b24c5ba64f85761163b5d82d98a47b9bd80e45466993c581905560037f10a81eed9d63d16face5e76357905348e6253d3394086026bb2bf2145d7cc2498190557f26b4a10d0f0b04925c23bd4480ee147c916e5e87a7d68206a533dad160ac81e282905560057fafafe8948a4ed9d478b1e9a5780b119b5edd00ea7d07bc35bef7c814824eb94b5560647fa5049387d9cb649c59f4bda666105ba636c2a103d8e2b232ba4d125737cd21495560327fa48544818c2c710afa9849c61ec9c60e8acdb3eaa2885f33b37e118cc8fd04ac5560c87fb91432bedff11256dbe14161d3606a2657bc9dacf8742f6b817d871dd53fb9765560197f0b705463cf5f7356780ee6e96132d37412c1b5816a4d207b8dcd42c349767457557fa7c5ba7114a813b50159add3a36832908dc83db71d0b9a24c2ad0f83be9582078190557f9adb202b1492743bc00c81d33cdc6423fa8c79109027eb6a845391e8fc1f048181905560047fe0283e559c29e31ee7f56467acc9dd307779c843a883aeeb3bf5c6128c90814481905560067fa1d6913cd9e08c872be3e7525cca82e4fc0fc298a783f19022be725b19be685a819055600a7fb9bec7e2561f624fe753ff070f1599b306cbf59fafd4e8d5a8184a1ea1841bce81905560087f92b4482321f41ce3aa65f798bda23d0d12a60fc5f212868a548ddb00aa49de72819055600c7f376529bb8a2d41b4a589a133407fc64f3212472dbd74744348be1098bf7ba08d557feab6bc3746954d8a0719de62c86ea908d362be2a58c781ada1046727253f9df28490557f169f97de0d9a84d840042b17d3c6b9638b3d6fd9024c9eb0c7a306a17b49f88f8490557fa74ba3945261e09fde15ba3db55005b205e61eeb4ad811ac0faa2b315bffeead8590557f45f76dafbbad695564362934e24d72eedc57f9fc1a65f39bca62176cc82968288590557f367ccd2d0ac16bf7110a5dffe0801fdc9452a95a1adb7e1a12fe97dd3e9a4edd8590557f6bda57492eba051cb4a12a1e19df47c9755d78165341d4009b1d09b3f36162048190557fb5a1e7cda73b1608e93d4d50ab796c3d35aa6216cb006a1f920df154d13ff61883905560077f73dfc495eb54bd6713ffc079b9f5e40f2fecd3793d143759ba0128fbedb40254557f49a9092dc5c03b26195f6621c97b5cf515cb77afe659e3fe008a73456354eb689190915560017f8c6065603763fec3f5742441d3833f3f43b982453612d76adb39a885e3006b5f8190557f853b2fefe141400fef543280f93d98bd49996069f632d0d20236afeeed8e46a28190557fb3edd0d534d647cffdae9f1294f11ad21f3fcf2814bea44c92bbb8d384a57d9e8190557f1588ac671d87f82adc0e6ae8ab009c0de98f92a20243897597e566bc59b9c126557f61a7346ab5ebdac457db2a901eaf1b805239b6049a1b2f34bab85e2e274f39cb8190557f20edfb71820f6f00f6a84ccfefb91587cd9f849f8349b0a3182a4795899d9cd98290557f4ef6145e44e4298293af15ae5f84f922a836b1d6db608fd5008f32a528b312a983905560107f5f04e77c60ed37290f5789e2e9c5d396103f3c4b14614065cbb4c8362609d5a55560116020527f17bc176d2408558f6e4111feebc3cab4e16b63e967be91cde721f4c8a488b5528490557f08037d7b151cc412d25674a4e66b334d9ae9d2e5517a7feaae5cdb828bf1c62884905560007f9bfbaa59f8e10e7868f8b402de9d605a390c45ddaebd8c9de3c6f31e733c87ff8190557f251164fe1d8864fe5e86082eae9c288bc2b58695a4d28538dfe86e9e4f175585959095557fc550213cee30afd5e67ccba7be3d381bbc169034ae08eb3ec9168caca9fe55e7919091557ffb9ce45064c7e7d9bf9deb4750ba7c94ab3d6e7418c5d76bf69966d39a9d42f68390557f98ae0176de2844d118e1a6decfe92f97691bedbc578c71fc8d5c4374be77e50c9290925591527f5fae251ae169e8e40026ce4ce85a026bc3adcccdc8459be361195e4cd924077f5562000648565b600080546001600160a01b038381166001600160a01b0319831681178455604051919092169283917f8be0079c531659141344cd1fd0a4f28419497f9722a3daafe3b4186f6b6457e09190a35050565b615bab80620006586000396000f3fe608060405234801561001057600080fd5b50600436106102945760003560e01c80638bf52bc311610167578063c6850f7c116100ce578063dce6c5da11610087578063dce6c5da1461066f578063ed9067fa1461068f578063f101de9a146106a2578063f10bff2b146106b5578063f2fde38b146106c8578063fa3993c2146106db57600080fd5b8063c6850f7c146105b9578063ce28613f146105d9578063d78e7d86146105ec578063d8a030821461060c578063dc0b35641461062c578063dc769ee81461063f57600080fd5b8063a99d2a8b11610120578063a99d2a8b1461053a578063aa6e80301461054d578063afd62bb214610560578063bb24866714610573578063c06fad0614610593578063c541f4ca146105a657600080fd5b80638bf52bc3146104bd5780638da5cb5b146104d0578063921d2799146104e1578063951fc3fe146104f457806397f34c3f146105145780639fca1ee11461052757600080fd5b806340d4fd781161020b57806364f66467116101c457806364f66467146104495780636fe99c181461045c578063715018a61461047c5780637b45c0d4146104845780637ddae103146104975780638214f222146104aa57600080fd5b806340d4fd78146103b357806346f2434b146103d357806353011696146103db57806354731422146104005780635dc969671461041357806364db84bf1461043657600080fd5b80631cef40f61161025d5780631cef40f61461034c5780631e1de2051461035f5780631f7b4f3014610367578063336d7d7b1461037a5780633deaec2b1461038d5780633f090e3d146103a057600080fd5b8062e3d8981461029957806310a2cd0d146102cc578063117a5b90146102f757806317514225146103245780631b5ac4b514610339575b600080fd5b6102b96102a736600461454e565b600d6020526000908152604090205481565b6040519081526020015b60405180910390f35b6002546102df906001600160a01b031681565b6040516001600160a01b0390911681526020016102c3565b61030a610305366004614569565b6106ee565b6040516102c39e9d9c9b9a999897969594939291906145ac565b610337610332366004614798565b6107c3565b005b6102b9610347366004614569565b610849565b61033761035a3660046147ce565b610869565b6102b9610a32565b6102b9610375366004614569565b610aaa565b6007546102df906001600160a01b031681565b6003546102df906001600160a01b031681565b6103376103ae366004614809565b610b06565b6103c66103c1366004614569565b610d76565b6040516102c39190614876565b600b546102b9565b6103ee6103e9366004614809565b610e67565b60405160ff90911681526020016102c3565b61033761040e366004614569565b610ea4565b610426610421366004614889565b61101e565b60405190151581526020016102c3565b6102b96104443660046148b5565b6110bb565b6103376104573660046148b5565b6110d3565b61046f61046a366004614569565b6111d8565b6040516102c3919061495e565b6103376115c6565b6009546102df906001600160a01b031681565b6004546102df906001600160a01b031681565b6102b96104b8366004614569565b6115da565b6103376104cb366004614b32565b611654565b6000546001600160a01b03166102df565b6103376104ef366004614b83565b6116a6565b610507610502366004614c2c565b61172e565b6040516102c39190614c59565b6103ee610522366004614889565b611858565b6008546102df906001600160a01b031681565b6102b9610548366004614c77565b611883565b61033761055b366004614cb1565b6118b4565b6103c661056e366004614cea565b611a03565b6102b961058136600461454e565b60116020526000908152604090205481565b6005546102df906001600160a01b031681565b6103376105b43660046147ce565b611ad3565b6102b96105c736600461454e565b60106020526000908152604090205481565b6103ee6105e7366004614d07565b611adb565b6102b96105fa36600461454e565b600f6020526000908152604090205481565b61061f61061a366004614569565b611b8b565b6040516102c39190614d40565b6006546102df906001600160a01b031681565b600a546106559060ff8082169161010090041682565b6040805160ff9384168152929091166020830152016102c3565b6102b961067d36600461454e565b600e6020526000908152604090205481565b61033761069d366004614569565b611c8f565b6102b96106b0366004614d76565b612a30565b6102b96106c3366004614e1b565b612efe565b6103376106d6366004614cea565b612f4b565b6102b96106e9366004614e1b565b612fc4565b600b81815481106106fe57600080fd5b6000918252602091829020601390910201805460028201546003830154600484015460408051608081018252600587015460ff81811683526101008083048216848c0152620100008304821684860152630100000090920481166060840152600689015460078a015460088b015460098c01548751808901909852600a8d0154808616895286900485169d88019d909d52600f8c015460108d01546011909d0154858d169f5095909b0484169c999b989a97999598929791969095909316939091908e565b6009546001600160a01b03163314806107e657506006546001600160a01b031633145b6108375760405162461bcd60e51b815260206004820152601c60248201527f4e6f7420616374696f6e732f706c617965727320636f6e74726163740000000060448201526064015b60405180910390fd5b610844838383600061308c565b505050565b6000808212156108615761085c82614e5d565b610863565b815b92915050565b600a5460ff16821480156108865750600a54610100900460ff1681145b610a2c576006546001600160a01b031633146108db5760405162461bcd60e51b8152602060048201526014602482015273139bdd081c1b185e595c9cc818dbdb9d1c9858dd60621b604482015260640161082e565b6000600b85815481106108f0576108f0614e79565b90600052602060002090601302019050600081601201805490509050816012016040518060a0016040528083815260200188815260200187600881111561093957610939614582565b815260200160405180604001604052808860ff1681526020018760ff168152508152602001600d600089600881111561097457610974614582565b600881111561098557610985614582565b815260208082019290925260409081016000908120549093528454600181810187559584529282902084516005909402019283559083015182850155820151600282018054939492939192909160ff1916908360088111156109e9576109e9614582565b02179055506060820151805160038301805460209093015160ff9081166101000261ffff1990941692169190911791909117905560809091015160049091015550505b50505050565b6001805460009182610a4383614e8f565b9190505550600154600143610a589190614ea8565b4033604051602001610a8f93929190928352602083019190915260601b6bffffffffffffffffffffffff1916604082015260540190565b60405160208183030381529060405280519060200120905090565b600080610ab960016006611adb565b60ff1690507ffe34d093a460a16ee5fb374540914d1c734a17502c0c1a87b387c8d6097e1c518382604051610af8929190918252602082015260400190565b60405180910390a192915050565b6009546001600160a01b03163314610b605760405162461bcd60e51b815260206004820181905260248201527f4e6f7420616374696f6e7320636f6e7472616374202d206c6561766547616d65604482015260640161082e565b6000600b8581548110610b7557610b75614e79565b60009182526020909120600554604051635f87260160e01b81526004810188905260248101899052601390930290910192506001600160a01b031690635f87260190604401600060405180830381600087803b158015610bd457600080fd5b505af1158015610be8573d6000803e3d6000fd5b5050600254604051631ff77ac560e11b8152600481018790526001600160a01b039091169250633feef58a9150602401600060405180830381600087803b158015610c3257600080fd5b505af1158015610c46573d6000803e3d6000fd5b50505050600181810154600091610c5c91614ea8565b6001600160401b03811115610c7357610c73614672565b604051908082528060200260200182016040528015610c9c578160200160208202803683370190505b5090506000805b6001840154811015610d1357808514610d0157836001018181548110610ccb57610ccb614e79565b9060005260206000200154838381518110610ce857610ce8614e79565b602090810291909101015281610cfd81614e8f565b9250505b80610d0b81614e8f565b915050610ca3565b508151610d2990600185019060208501906143f2565b50600383018054906000610d3c83614ebb565b90915550506001830154600284015403610d5857600060028401555b6001830154600003610d6d57825460ff191683555b50505050505050565b60606000600b8381548110610d8d57610d8d614e79565b9060005260206000209060130201600101805490506001600160401b03811115610db957610db9614672565b604051908082528060200260200182016040528015610de2578160200160208202803683370190505b50905060005b8151811015610e6057600b8481548110610e0457610e04614e79565b90600052602060002090601302016001018181548110610e2657610e26614e79565b9060005260206000200154828281518110610e4357610e43614e79565b602090810291909101015280610e5881614e8f565b915050610de8565b5092915050565b600080610e748686614ea8565b9050600083610e838684614ed2565b610e8d9190614eff565b9050610e998782614f13565b979650505050505050565b6000600b8281548110610eb957610eb9614e79565b600091825260209091206013909102018054909150610100900460ff1615610f235760405162461bcd60e51b815260206004820152601860248201527f43616e277420666f7263652064656e697a656e207475726e0000000000000000604482015260640161082e565b60018181015411610f765760405162461bcd60e51b815260206004820152601960248201527f43616e277420666f7263652073696e676c6520706c6179657200000000000000604482015260640161082e565b80600f01548160100154610f8a9190614f13565b4211610fd85760405162461bcd60e51b815260206004820152601760248201527f5374696c6c2077697468696e2074696d65206c696d6974000000000000000000604482015260640161082e565b600881015415610fed57610fed826000613a87565b61101a828260010183600201548154811061100a5761100a614e79565b9060005260206000200154613b53565b5050565b60008061102a85610aaa565b6040805187815260208101839052908101869052606081018590529091507f75b6a8325595f91135e07382840634226793c68c9e59623da7e10d7ad3d95b959060800160405180910390a1806001036110875760009150506110b4565b6003836110948684614f13565b61109e9190614f26565b13156110ae5760019150506110b4565b60009150505b9392505050565b6000816110c9846004614ed2565b6110b49190614f13565b6000600b83815481106110e8576110e8614e79565b600091825260209091206006546013909202016007810154604051636621a42160e01b815260048101919091529092506001600160a01b0390911690636621a42190602401602060405180830381865afa15801561114a573d6000803e3d6000fd5b505050506040513d601f19601f8201168201806040525081019061116e9190614f51565b6001600160a01b0316336001600160a01b0316146111ce5760405162461bcd60e51b815260206004820152601960248201527f4576656e74206e6f7420666f7220796f757220706c6179657200000000000000604482015260640161082e565b6108448383613a87565b6111e061443d565b600b82815481106111f3576111f3614e79565b600091825260209182902060408051610280810182526013909302909101805460ff8082161515855261010090910416151583850152600181018054835181870281018701855281815294959294938601939283018282801561127557602002820191906000526020600020905b815481526020019060010190808311611261575b505050918352505060028201546020808301919091526003830154604080840191909152600484015460608085019190915281516080818101845260058088015460ff808216855261010080830482169886019890985262010000820481169685019690965263010000009004851693830193909352850152600685015460a0850152600785015460c0850152600885015460e08501526009850154929093019291169081111561132857611328614582565b600581111561133957611339614582565b8152604080518082018252600a84015460ff80821683526101009091041660208281019190915280840191909152600b840180548351818402810184018552818152939094019390918301828280156113b157602002820191906000526020600020905b81548152602001906001019080831161139d575b50505050508152602001600c820180548060200260200160405190810160405280929190818152602001828054801561140957602002820191906000526020600020905b8154815260200190600101908083116113f5575b50505050508152602001600d820180548060200260200160405190810160405280929190818152602001828054801561146157602002820191906000526020600020905b81548152602001906001019080831161144d575b50505050508152602001600e82018054806020026020016040519081016040528092919081815260200182805480156114b957602002820191906000526020600020905b8154815260200190600101908083116114a5575b50505050508152602001600f8201548152602001601082015481526020016011820154815260200160128201805480602002602001604051908101604052809291908181526020016000905b828210156115b857838290600052602060002090600502016040518060a001604052908160008201548152602001600182015481526020016002820160009054906101000a900460ff16600881111561156057611560614582565b600881111561157157611571614582565b8152604080518082018252600384015460ff808216835261010090910416602082810191909152808401919091526004909301549101529082526001929092019101611505565b505050915250909392505050565b6115ce613c2f565b6115d86000613c89565b565b6000816000036115ec57506001919050565b816001036115fc57506000919050565b8160020361160c57506003919050565b8160030361161c57506002919050565b60405162461bcd60e51b815260206004820152600d60248201526c2130b2103234b932b1ba34b7b760991b604482015260640161082e565b6000546001600160a01b0316331461169a5760405162461bcd60e51b81526020600482015260096024820152682737ba1037bbb732b960b91b604482015260640161082e565b610a2c8484848461308c565b6116ae613c2f565b600280546001600160a01b03199081166001600160a01b039a8b1617909155600380548216978a169790971790965560078054871695891695909517909455600980548616938816939093179092556004805485169187169190911790556005805484169186169190911790556006805490921693169290921790915550565b604080518082019091526000808252602082015282600003611780576040518060400160405280600184600001516117669190614f6e565b60ff168152602001836020015160ff168152509050610863565b826001036117a4576040518060400160405280836000015160016117669190614f87565b826002036117e1576040518060400160405280836000015160ff168152602001836020015160016117d59190614f87565b60ff1690529050610863565b82600303611812576040518060400160405280836000015160ff168152602001600184602001516117d59190614f6e565b600061181d84613cd9565b60405160200161182d9190614fc4565b60405160208183030381529060405290508060405162461bcd60e51b815260040161082e9190614fff565b600080826001611869866002615116565b6118739190614ea8565b901b8516831c9150509392505050565b600c602052816000526040600020818154811061189f57600080fd5b90600052602060002001600091509150505481565b6009546001600160a01b0316331461191d5760405162461bcd60e51b815260206004820152602660248201527f4e6f7420616374696f6e7320636f6e7472616374202d20656e64506c6179657260448201526520b1ba34b7b760d11b606482015260840161082e565b806119815760065460405163ce93229760e01b8152600481018490526001600160a01b039091169063ce93229790602401600060405180830381600087803b15801561196857600080fd5b505af115801561197c573d6000803e3d6000fd5b505050505b6006546040516347d0e3c960e01b8152600481018490526000916001600160a01b0316906347d0e3c990602401602060405180830381865afa1580156119cb573d6000803e3d6000fd5b505050506040513d601f19601f820116820180604052508101906119ef9190615122565b905060038110610a2c57610a2c8484613b53565b6001600160a01b0381166000908152600c6020526040812054606091906001600160401b03811115611a3757611a37614672565b604051908082528060200260200182016040528015611a60578160200160208202803683370190505b50905060005b8151811015610e60576001600160a01b0384166000908152600c60205260409020805482908110611a9957611a99614e79565b9060005260206000200154828281518110611ab657611ab6614e79565b602090810291909101015280611acb81614e8f565b915050611a66565b6108db613c2f565b6001805460009182611aec83614e8f565b9190505550600033600154600143611b049190614ea8565b60405160609390931b6bffffffffffffffffffffffff19166020840152603483019190915240605482015260740160408051601f19818403018152919052805160209091012090506000611b588585614f6e565b611b63906001614f87565b90508460ff168160ff1683611b78919061513b565b611b829190614f13565b95945050505050565b6060600b8281548110611ba057611ba0614e79565b9060005260206000209060130201601201805480602002602001604051908101604052809291908181526020016000905b82821015611c8457838290600052602060002090600502016040518060a001604052908160008201548152602001600182015481526020016002820160009054906101000a900460ff166008811115611c2c57611c2c614582565b6008811115611c3d57611c3d614582565b8152604080518082018252600384015460ff808216835261010090910416602082810191909152808401919091526004909301549101529082526001929092019101611bd1565b505050509050919050565b6000600b8281548110611ca457611ca4614e79565b600091825260208220600354601392909202016006810154604051630f78220b60e11b815260048101919091529093506001600160a01b0390911690631ef0441690602401600060405180830381865afa158015611d06573d6000803e3d6000fd5b505050506040513d6000823e601f3d908101601f19168201604052611d2e91908101906151d2565b60018301549091506000906001600160401b03811115611d5057611d50614672565b604051908082528060200260200182016040528015611e5457816020015b611e41604080516101c081018252600080825260208083018290528284018290528351610100810185528281528082018390528085018390526060808201849052608080830185905260a080840186905260c0840186905260e0840186905291860192909252855180870187528481528084018590529185019190915284518086019095528285529084019190915290919082019081526000602082018190526040820181905260608083018290526080830182905260a083015260c0820181905260e082018190526101009091015290565b815260200190600190039081611d6e5790505b50905060005b8151811015611f2d576006546001850180546001600160a01b03909216916310f67fb3919084908110611e8f57611e8f614e79565b90600052602060002001546040518263ffffffff1660e01b8152600401611eb891815260200190565b600060405180830381865afa158015611ed5573d6000803e3d6000fd5b505050506040513d6000823e601f3d908101601f19168201604052611efd91908101906154e7565b828281518110611f0f57611f0f614e79565b60200260200101819052508080611f2590614e8f565b915050611e5a565b506000600b8581548110611f4357611f43614e79565b9060005260206000209060130201601201905060005b8154811015612a1f576000828281548110611f7657611f76614e79565b906000526020600020906005020190508060040154600003611f985750612a0d565b60038101548551869160ff16908110611fb357611fb3614e79565b60200260200101518160030160000160019054906101000a900460ff1660ff1681518110611fe357611fe3614e79565b602002602001015160c001511561200c5760048101805490600061200683614ebb565b91905055505b806004015460000361201e5750612a0d565b61270f60001960005b865181101561212757600a54875160ff9091169088908390811061204d5761204d614e79565b6020026020010151608001516000015160ff1614801561209e5750600a54875161010090910460ff169088908390811061208957612089614e79565b6020026020010151608001516020015160ff16145b6121155760408051808201909152600385015460ff808216835261010090910416602082015287516000916120f0918a90859081106120df576120df614e79565b602002602001015160800151612efe565b90508060000361210557819350809250612113565b828111612113578193508092505b505b8061211f81614e8f565b915050612027565b506001600284015460ff16600881111561214357612143614582565b0361233f578060000361217d57612175898488858151811061216757612167614e79565b602002602001015184613de1565b505050612a0d565b600160005260116020527f17bc176d2408558f6e4111feebc3cab4e16b63e967be91cde721f4c8a488b55254811161233f576003805460068a015488516001600160a01b03909216926345e1e03c92908701908a90879081106121e2576121e2614e79565b60200260200101516080015160016000601160006004600881111561220957612209614582565b600881111561221a5761221a614582565b8152602001908152602001600020546040518763ffffffff1660e01b815260040161224a96959493929190615632565b6040805180830381865afa158015612266573d6000803e3d6000fd5b505050506040513d601f19601f8201168201806040525081019061228a9190615680565b805160038501805460209093015160ff9081166101000261ffff1990941692169190911791909117905585518690839081106122c8576122c8614e79565b60209081029190910101516080015151600384015460ff908116911614801561232357508582815181106122fe576122fe614e79565b6020908102919091018101516080015101516003840154610100900460ff9081169116145b1561217557612175898488858151811061216757612167614e79565b60028084015460ff16600881111561235957612359614582565b036125e65780600003612529576003546040516369568fd560e01b8152600481018b90526000916001600160a01b0316906369568fd590602401600060405180830381865afa1580156123b0573d6000803e3d6000fd5b505050506040513d6000823e601f3d908101601f191682016040526123d8919081019061569c565b905060005b60048110156124f95760028282815181106123fa576123fa614e79565b602002602001015160400151600481111561241757612417614582565b14806124515750600182828151811061243257612432614e79565b602002602001015160400151600481111561244f5761244f614582565b145b8061248a5750600382828151811061246b5761246b614e79565b602002602001015160400151600481111561248857612488614582565b145b156124e75760408051808201909152600386015460ff80821683526101009091041660208201526124bc90829061172e565b805160038701805460209093015160ff9081166101000261ffff199094169216919091179190911790555b806124f181614e8f565b9150506123dd565b506125208a8589868151811061251157612511614e79565b60200260200101516001613de1565b50505050612a0d565b6003805460068a015488516001600160a01b0390921692632ec6572a92908701908a908790811061255c5761255c614e79565b60200260200101516080015160006040518563ffffffff1660e01b81526004016125899493929190615779565b602060405180830381865afa1580156125a6573d6000803e3d6000fd5b505050506040513d601f19601f820116820180604052508101906125ca91906157b8565b156125e657612175898488858151811061216757612167614e79565b6003600284015460ff16600881111561260157612601614582565b036126cf5761270f811080156126b357506003805460068a015488516001600160a01b0390921692632ec6572a92908701908a908790811061264557612645614e79565b60200260200101516080015160016040518563ffffffff1660e01b81526004016126729493929190615779565b602060405180830381865afa15801561268f573d6000803e3d6000fd5b505050506040513d601f19601f820116820180604052508101906126b391906157b8565b156126cf57612175898488858151811061216757612167614e79565b6004600284015460ff1660088111156126ea576126ea614582565b03612a09578060000361270e57612175898488858151811061216757612167614e79565b600460005260116020527f251164fe1d8864fe5e86082eae9c288bc2b58695a4d28538dfe86e9e4f17558554811161284c576003805460068a015488516001600160a01b03909216926345e1e03c92908701908a908790811061277357612773614e79565b60200260200101516080015160016000601160006004600881111561279a5761279a614582565b60088111156127ab576127ab614582565b8152602001908152602001600020546040518763ffffffff1660e01b81526004016127db96959493929190615632565b6040805180830381865afa1580156127f7573d6000803e3d6000fd5b505050506040513d601f19601f8201168201806040525081019061281b9190615680565b80516003909401805460209092015160ff9081166101000261ffff199093169516949094171790925550612a0d9050565b61270f8110156129f7576003805460068a015488516001600160a01b03909216926345e1e03c92908701908a908790811061288957612889614e79565b6020026020010151608001516001600060116000600460088111156128b0576128b0614582565b60088111156128c1576128c1614582565b8152602001908152602001600020546040518763ffffffff1660e01b81526004016128f196959493929190615632565b6040805180830381865afa15801561290d573d6000803e3d6000fd5b505050506040513d601f19601f820116820180604052508101906129319190615680565b80516003808601805460209094015160ff9081166101000261ffff19909516931692909217929092178155905460068a015488516001600160a01b0390921692632ec6572a928a908790811061298957612989614e79565b60200260200101516080015160016040518563ffffffff1660e01b81526004016129b69493929190615779565b602060405180830381865afa1580156129d3573d6000803e3d6000fd5b505050506040513d601f19601f8201168201806040525081019061232391906157b8565b61270f811015612a0957505050612a0d565b5050505b80612a1781614e8f565b915050611f59565b5050825461ff001916909255505050565b6007546000906001600160a01b03163314612a825760405162461bcd60e51b8152602060048201526012602482015271139bdd081b1bd8989e4818dbdb9d1c9858dd60721b604482015260640161082e565b600b80546001818101808455600093845260139092027f0175b7a638427703f0dbe7bb9bbf987a2551717b34e79f33b5b1008d1fa01db9019291612ac69190614ea8565b825460ff191660019081178455600060048501558751919250612af1919084019060208901906143f2565b50600382018590556040805160808101825260008082526020820181905291810182905260600181905260058301805463ffffffff19169055849003612bb457600360009054906101000a90046001600160a01b03166001600160a01b031663f01fc35a6040518163ffffffff1660e01b81526004016020604051808303816000875af1158015612b86573d6000803e3d6000fd5b505050506040513d601f19601f82011682018060405250810190612baa9190615122565b6006830155612c29565b60035460405163148e052f60e21b8152600481018690526001600160a01b039091169063523814bc906024016020604051808303816000875af1158015612bff573d6000803e3d6000fd5b505050506040513d601f19601f82011682018060405250810190612c239190615122565b60068301555b60005b612c37600187614ea8565b8111612d5f57600683015460408051808201909152600a5460ff8082168352610100909104166020820152600185018054612c919392919085908110612c7f57612c7f614e79565b9060005260206000200154600061308c565b60065487516000916001600160a01b031690636621a421908a9085908110612cbb57612cbb614e79565b60200260200101516040518263ffffffff1660e01b8152600401612ce191815260200190565b602060405180830381865afa158015612cfe573d6000803e3d6000fd5b505050506040513d601f19601f82011682018060405250810190612d229190614f51565b6001600160a01b03166000908152600c60209081526040822080546001810182559083529120018390555080612d5781614e8f565b915050612c2c565b5060065460405163e7169ec560e01b81526001600160a01b039091169063e7169ec590612d9290899085906004016157d5565b600060405180830381600087803b158015612dac57600080fd5b505af1158015612dc0573d6000803e3d6000fd5b5050600554604051633b09709560e21b81526001600160a01b03909116925063ec25c2549150612df69084908a906004016157f7565b600060405180830381600087803b158015612e1057600080fd5b505af1158015612e24573d6000803e3d6000fd5b505050506000604051806101e00160405280600181526020016002815260200160038152602001600481526020016005815260200160068152602001600781526020016008815260200160098152602001600a8152602001600b8152602001600c8152602001600d8152602001600e8152602001600f81525090508083600b0190600f612eb29291906143f2565b50612ec2600c840182600f6143f2565b50612ed2600d840182600f6143f2565b50612ee2600e840182600f6143f2565b505061012c600f83015542601090920191909155949350505050565b600080612f1e836000015160000b856000015160000b6103479190614f26565b90506000612f3f846020015160000b866020015160000b6103479190614f26565b9050611b828183614f13565b612f53613c2f565b6001600160a01b038116612fb85760405162461bcd60e51b815260206004820152602660248201527f4f776e61626c653a206e6577206f776e657220697320746865207a65726f206160448201526564647265737360d01b606482015260840161082e565b612fc181613c89565b50565b80518251600091612fd491615810565b60000b600103612fe657506000610863565b81518351612ff49190615810565b60000b1961300457506001610863565b816020015183602001516130189190615810565b60000b1961302857506002610863565b8160200151836020015161303c9190615810565b60000b60010361304e57506003610863565b60405162461bcd60e51b8152602060048201526013602482015272115c9c9bdc8e88139bdd0818591a9858d95b9d606a1b604482015260640161082e565b6000600b85815481106130a1576130a1614e79565b90600052602060002090601302019050806001016000815481106130c7576130c7614e79565b90600052602060002001548314806130fe5750806001016001815481106130f0576130f0614e79565b906000526020600020015483145b8061312857508060010160028154811061311a5761311a614e79565b906000526020600020015483145b8061315257508060010160038154811061314457613144614e79565b906000526020600020015483145b61319e5760405162461bcd60e51b815260206004820152601760248201527f506c61796572206e6f7420696e20746869732067616d65000000000000000000604482015260640161082e565b600654600b80546001600160a01b0390921691638d491b3e9187918791908a9081106131cc576131cc614e79565b9060005260206000209060130201600601546040518463ffffffff1660e01b81526004016131fc93929190615831565b6020604051808303816000875af115801561321b573d6000803e3d6000fd5b505050506040513d601f19601f8201168201806040525081019061323f91906157b8565b613a8057600354600b80546000926001600160a01b0316916381bad36d918990811061326d5761326d614e79565b90600052602060002090601302016006015487600001518860200151876040518563ffffffff1660e01b81526004016132c3949392919093845260ff928316602085015291166040830152606082015260800190565b6020604051808303816000875af11580156132e2573d6000803e3d6000fd5b505050506040513d601f19601f820116820180604052508101906133069190615122565b600354600b80549293506000926001600160a01b0390921691635805828391908a90811061333657613336614e79565b906000526020600020906013020160060154846040518363ffffffff1660e01b815260040161336f929190918252602082015260400190565b60a060405180830381865afa15801561338c573d6000803e3d6000fd5b505050506040513d601f19601f820116820180604052508101906133b09190615860565b90506002821180156133d557506000815160058111156133d2576133d2614582565b14155b15610d6d576001815160058111156133ef576133ef614582565b0361344257600b878154811061340757613407614e79565b600091825260208220600560139092020101805460ff1691613428836158f2565b91906101000a81548160ff021916908360ff160217905550505b60028151600581111561345757613457614582565b036134b257600b878154811061346f5761346f614e79565b600091825260209091206013909102016005018054610100900460ff16906001613498836158f2565b91906101000a81548160ff021916908360ff160217905550505b6003815160058111156134c7576134c7614582565b0361352357600b87815481106134df576134df614e79565b60009182526020909120601390910201600501805462010000900460ff16906002613509836158f2565b91906101000a81548160ff021916908360ff160217905550505b60048151600581111561353857613538614582565b0361359557600b878154811061355057613550614e79565b6000918252602090912060139091020160050180546301000000900460ff1690600361357b836158f2565b91906101000a81548160ff021916908360ff160217905550505b6020810151156137145760048054602083015160405163c82c37b960e01b8152928301526000916001600160a01b039091169063c82c37b990602401600060405180830381865afa1580156135ee573d6000803e3d6000fd5b505050506040513d6000823e601f3d908101601f19168201604052613616919081019061599e565b9050806020015161370e5785600b898154811061363557613635614e79565b9060005260206000209060130201600701819055508160200151600b898154811061366257613662614e79565b9060005260206000209060130201600801819055506005600b898154811061368c5761368c614e79565b60009182526020909120600960139092020101805460ff191660018360058111156136b9576136b9614582565b021790555086600b89815481106136d2576136d2614e79565b60009182526020918290208351600a6013909302909101919091018054939092015160ff9081166101000261ffff199094169116179190911790555b50610d6d565b60008151600581111561372957613729614582565b14610d6d5784600b888154811061374257613742614e79565b90600052602060002090601302016007018190555085600b888154811061376b5761376b614e79565b60009182526020918290208351600a6013909302909101919091018054939092015160ff9081166101000261ffff199094169116179190911790556001815160058111156137bb576137bb614582565b0361385c576137ec600b88815481106137d6576137d6614e79565b9060005260206000209060130201600b016140ef565b600b88815481106137ff576137ff614e79565b9060005260206000209060130201600801819055506001600b888154811061382957613829614e79565b60009182526020909120600960139092020101805460ff1916600183600581111561385657613856614582565b02179055505b60028151600581111561387157613871614582565b03613912576138a2600b888154811061388c5761388c614e79565b9060005260206000209060130201600c016140ef565b600b88815481106138b5576138b5614e79565b9060005260206000209060130201600801819055506002600b88815481106138df576138df614e79565b60009182526020909120600960139092020101805460ff1916600183600581111561390c5761390c614582565b02179055505b60038151600581111561392757613927614582565b036139c857613958600b888154811061394257613942614e79565b9060005260206000209060130201600d016140ef565b600b888154811061396b5761396b614e79565b9060005260206000209060130201600801819055506003600b888154811061399557613995614e79565b60009182526020909120600960139092020101805460ff191660018360058111156139c2576139c2614582565b02179055505b6004815160058111156139dd576139dd614582565b03610d6d57613a0e600b88815481106139f8576139f8614e79565b9060005260206000209060130201600e016140ef565b600b8881548110613a2157613a21614e79565b9060005260206000209060130201600801819055506004600b8881548110613a4b57613a4b614e79565b60009182526020909120600960139092020101805460ff19166001836005811115613a7857613a78614582565b021790555050505b5050505050565b6000600b8381548110613a9c57613a9c614e79565b6000918252602090912060068054601390930290910160078101549181015460088201546009830154604051636d291bbb60e01b81529396506001600160a01b0390951694636d291bbb94613b0494899491938b93600a8b019260ff90911690600401615a8f565b600060405180830381600087803b158015613b1e57600080fd5b505af1158015613b32573d6000803e3d6000fd5b505060006007840181905560088401555050600901805460ff191690555050565b6000600b8381548110613b6857613b68614e79565b6000918252602090912060065460405163065c363f60e41b815260048101869052601390930290910192506001600160a01b0316906365c363f090602401600060405180830381600087803b158015613bc057600080fd5b505af1158015613bd4573d6000803e3d6000fd5b50504260108401555050600180820154613bee9190614ea8565b81600201541015613c1557600281018054906000613c0b83614e8f565b9190505550505050565b613c23838260060154614215565b60006002820155505050565b6000546001600160a01b031633146115d85760405162461bcd60e51b815260206004820181905260248201527f4f776e61626c653a2063616c6c6572206973206e6f7420746865206f776e6572604482015260640161082e565b600080546001600160a01b038381166001600160a01b0319831681178455604051919092169283917f8be0079c531659141344cd1fd0a4f28419497f9722a3daafe3b4186f6b6457e09190a35050565b606081600003613d005750506040805180820190915260018152600360fc1b602082015290565b8160005b8115613d2a5780613d1481614e8f565b9150613d239050600a83614eff565b9150613d04565b6000816001600160401b03811115613d4457613d44614672565b6040519080825280601f01601f191660200182016040528015613d6e576020820181803683370190505b5090505b8415613dd957613d83600183614ea8565b9150613d90600a8661513b565b613d9b906030614f13565b60f81b818381518110613db057613db0614e79565b60200101906001600160f81b031916908160001a905350613dd2600a86614eff565b9450613d72565b949350505050565b60028301546000908190613e3b908790600f90849060ff166008811115613e0a57613e0a614582565b6008811115613e1b57613e1b614582565b81526020019081526020016000205486606001516040015160ff1661101e565b15613ef757600285015460109060009060ff166008811115613e5f57613e5f614582565b6008811115613e7057613e70614582565b8152602081019190915260409081016000908120546006548784015193516301ba1eb160e31b8152600481019490945260248401829052604484019290925293506001600160a01b031690630dd0f58890606401600060405180830381600087803b158015613ede57600080fd5b505af1158015613ef2573d6000803e3d6000fd5b505050505b821580613f095750836060015160e001515b1561406b57600083600003613f5457846060015160a0015160000b856060015160c0015160000b13613f4357846060015160a00151613f4d565b846060015160c001515b9050613f5f565b50606084015160a001515b6002860154613fad90889060ff80851691600e91600091166008811115613f8857613f88614582565b6008811115613f9957613f99614582565b81526020019081526020016000205461101e565b1561406957600286015460109060009060ff166008811115613fd157613fd1614582565b6008811115613fe257613fe2614582565b8152602081019190915260409081016000908120546006548884015193516301ba1eb160e31b8152600481019490945260248401829052604484019290925294506001600160a01b031690630dd0f58890606401600060405180830381600087803b15801561405057600080fd5b505af1158015614064573d6000803e3d6000fd5b505050505b505b61409d6040518060400160405280601181526020017044454e495a454e2041545441434b45442160781b815250614393565b600285015460408086015190517f2c06d3c7e90d9433476801f525a02398c92e854375485994f9c38ba874f3ef1b926140df9260ff9091169186908690615ae3565b60405180910390a1505050505050565b8054600090819061410290600190614ea8565b90505b80156141b2576000614118600083611adb565b9050838160ff168154811061412f5761412f614e79565b906000526020600020015484838154811061414c5761414c614e79565b906000526020600020015485848154811061416957614169614e79565b906000526020600020016000878560ff168154811061418a5761418a614e79565b60009182526020909120019290925591909155508190506141aa81614ebb565b915050614105565b50815460009083906141c690600190614ea8565b815481106141d6576141d6614e79565b90600052602060002001549050828054806141f3576141f3615b0c565b600190038181906000526020600020016000905590558060ff16915050919050565b6000600b838154811061422a5761422a614e79565b9060005260206000209060130201905080600401600081548092919061424f90614e8f565b9091555050600354604051630b06115560e31b8152600481018490526001600160a01b03909116906358308aa890602401600060405180830381600087803b15801561429a57600080fd5b505af11580156142ae573d6000803e3d6000fd5b505060035460405163c6b41b4560e01b815260048101869052600160248201526001600160a01b03909116925063c6b41b459150604401600060405180830381600087803b1580156142ff57600080fd5b505af1158015614313573d6000803e3d6000fd5b5050600680549084015460405163668a7f3b60e01b81526001600160a01b03909216935063668a7f3b925061434f916001860190600401615b22565b600060405180830381600087803b15801561436957600080fd5b505af115801561437d573d6000803e3d6000fd5b5050825461ff0019166101001790925550505050565b612fc1816040516024016143a79190614fff565b60408051601f198184030181529190526020810180516001600160e01b031663104c13eb60e21b17905280516a636f6e736f6c652e6c6f67602083016000808483855afa5050505050565b82805482825590600052602060002090810192821561442d579160200282015b8281111561442d578251825591602001919060010190614412565b50614439929150614525565b5090565b6040805161028081018252600080825260208083018290526060838501819052808401839052608080850184905260a0850184905285519081018652838152918201839052938101829052928301529060c08201908152602001600081526020016000815260200160008152602001600060058111156144bf576144bf614582565b81526020016144e76040518060400160405280600060ff168152602001600060ff1681525090565b815260200160608152602001606081526020016060815260200160608152602001600081526020016000815260200160008152602001606081525090565b5b808211156144395760008155600101614526565b80356009811061454957600080fd5b919050565b60006020828403121561456057600080fd5b6110b48261453a565b60006020828403121561457b57600080fd5b5035919050565b634e487b7160e01b600052602160045260246000fd5b600681106145a8576145a8614582565b9052565b6000610240820190508f151582528e151560208301528d60408301528c60608301528b608083015261460e60a083018c60ff815116825260ff602082015116602083015260ff604082015116604083015260ff60608201511660608301525050565b896101208301528861014083015287610160830152614631610180830188614598565b855160ff9081166101a08401526020870151166101c0830152846101e083015283610200830152826102208301529f9e505050505050505050505050505050565b634e487b7160e01b600052604160045260246000fd5b604080519081016001600160401b03811182821017156146aa576146aa614672565b60405290565b60405160e081016001600160401b03811182821017156146aa576146aa614672565b6040516101c081016001600160401b03811182821017156146aa576146aa614672565b604051606081016001600160401b03811182821017156146aa576146aa614672565b604051601f8201601f191681016001600160401b038111828210171561473f5761473f614672565b604052919050565b60ff81168114612fc157600080fd5b60006040828403121561476857600080fd5b614770614688565b9050813561477d81614747565b8152602082013561478d81614747565b602082015292915050565b6000806000608084860312156147ad57600080fd5b833592506147be8560208601614756565b9150606084013590509250925092565b600080600080608085870312156147e457600080fd5b843593506147f46020860161453a565b93969395505050506040820135916060013590565b6000806000806080858703121561481f57600080fd5b5050823594602084013594506040840135936060013592509050565b600081518084526020808501945080840160005b8381101561486b5781518752958201959082019060010161484f565b509495945050505050565b6020815260006110b4602083018461483b565b60008060006060848603121561489e57600080fd5b505081359360208301359350604090920135919050565b600080604083850312156148c857600080fd5b50508035926020909101359150565b600981106145a8576145a8614582565b600081518084526020808501945080840160005b8381101561486b578151805188528381015184890152604080820151614923828b01826148d7565b5050606081810151805160ff9081168b84015260208201511660808b015250506080015160a088015260c090960195908201906001016148fb565b6020815261497160208201835115159052565b60006020830151614986604084018215159052565b5060408301516103008060608501526149a361032085018361483b565b915060608501516080850152608085015160a085015260a085015160c085015260c0850151614a0260e086018260ff815116825260ff602082015116602083015260ff604082015116604083015260ff60608201511660608301525050565b5060e085015161016081818701526101008701519150610180828188015261012088015192506101a0838189015261014089015193506101c0614a47818a0186614598565b9289015193506101e092614a6d89850186805160ff908116835260209182015116910152565b828a01519450601f199250610220838a890301818b0152614a8e888761483b565b9750828b015195506102409250838a890301838b0152614aae888761483b565b9750818b015195506102609150838a890301828b0152614ace888761483b565b9750848b01519550838a8903016102808b0152614aeb888761483b565b6102008c01516102a08c0152908b01516102c08b0152918a01516102e08a01528901518882039092018589015294509150614b28905083826148e7565b9695505050505050565b60008060008060a08587031215614b4857600080fd5b84359350614b598660208701614756565b93969395505050506060820135916080013590565b6001600160a01b0381168114612fc157600080fd5b600080600080600080600080610100898b031215614ba057600080fd5b8835614bab81614b6e565b97506020890135614bbb81614b6e565b96506040890135614bcb81614b6e565b95506060890135614bdb81614b6e565b94506080890135614beb81614b6e565b935060a0890135614bfb81614b6e565b925060c0890135614c0b81614b6e565b915060e0890135614c1b81614b6e565b809150509295985092959890939650565b60008060608385031215614c3f57600080fd5b82359150614c508460208501614756565b90509250929050565b604081016108638284805160ff908116835260209182015116910152565b60008060408385031215614c8a57600080fd5b8235614c9581614b6e565b946020939093013593505050565b8015158114612fc157600080fd5b600080600060608486031215614cc657600080fd5b83359250602084013591506040840135614cdf81614ca3565b809150509250925092565b600060208284031215614cfc57600080fd5b81356110b481614b6e565b60008060408385031215614d1a57600080fd5b8235614d2581614747565b91506020830135614d3581614747565b809150509250929050565b6020815260006110b460208301846148e7565b60006001600160401b03821115614d6c57614d6c614672565b5060051b60200190565b600080600060608486031215614d8b57600080fd5b83356001600160401b03811115614da157600080fd5b8401601f81018613614db257600080fd5b80356020614dc7614dc283614d53565b614717565b82815260059290921b83018101918181019089841115614de657600080fd5b938201935b83851015614e0457843582529382019390820190614deb565b999188013598505060409096013595945050505050565b60008060808385031215614e2e57600080fd5b614e388484614756565b9150614c508460408501614756565b634e487b7160e01b600052601160045260246000fd5b6000600160ff1b8201614e7257614e72614e47565b5060000390565b634e487b7160e01b600052603260045260246000fd5b600060018201614ea157614ea1614e47565b5060010190565b8181038181111561086357610863614e47565b600081614eca57614eca614e47565b506000190190565b808202811582820484141761086357610863614e47565b634e487b7160e01b600052601260045260246000fd5b600082614f0e57614f0e614ee9565b500490565b8082018082111561086357610863614e47565b8181036000831280158383131683831282161715610e6057610e60614e47565b805161454981614b6e565b600060208284031215614f6357600080fd5b81516110b481614b6e565b60ff828116828216039081111561086357610863614e47565b60ff818116838216019081111561086357610863614e47565b60005b83811015614fbb578181015183820152602001614fa3565b50506000910152565b72024b73b30b634b2103234b932b1ba34b7b71d1606d1b815260008251614ff2816013850160208701614fa0565b9190910160130192915050565b602081526000825180602084015261501e816040850160208701614fa0565b601f01601f19169190910160400192915050565b600181815b8085111561506d57816000190482111561505357615053614e47565b8085161561506057918102915b93841c9390800290615037565b509250929050565b60008261508457506001610863565b8161509157506000610863565b81600181146150a757600281146150b1576150cd565b6001915050610863565b60ff8411156150c2576150c2614e47565b50506001821b610863565b5060208310610133831016604e8410600b84101617156150f0575081810a610863565b6150fa8383615032565b806000190482111561510e5761510e614e47565b029392505050565b60006110b48383615075565b60006020828403121561513457600080fd5b5051919050565b60008261514a5761514a614ee9565b500690565b805161454981614747565b600082601f83011261516b57600080fd5b604051608081018181106001600160401b038211171561518d5761518d614672565b6040528060808401858111156151a257600080fd5b845b818110156151bc5780518352602092830192016151a4565b509195945050505050565b805161454981614ca3565b600060208083850312156151e557600080fd5b82516001600160401b03808211156151fc57600080fd5b818501915085601f83011261521057600080fd5b815161521e614dc282614d53565b81815260059190911b8301840190848101908883111561523d57600080fd5b8585015b8381101561535a5780518581111561525857600080fd5b8601603f81018b1361526957600080fd5b87810151615279614dc282614d53565b818152610140909102820160400190898101908d83111561529957600080fd5b6040840193505b8284101561534a57610140848f0312156152b957600080fd5b6152c16146b0565b84516152cc81614747565b8152848c01516152db81614747565b818d01526152ec8f6040870161515a565b60408201526152fd60c086016151c7565b606082015261530e60e086016151c7565b608082015261532061010086016151c7565b60a082015261533261012086016151c7565b60c082015282526101409390930192908a01906152a0565b8652505050918601918601615241565b5098975050505050505050565b8051600081900b811461454957600080fd5b600061010080838503121561538d57600080fd5b604051908101906001600160401b03821181831017156153af576153af614672565b816040528092506153bf84615367565b81526153cd60208501615367565b60208201526153de60408501615367565b60408201526153ef60608501615367565b606082015261540060808501615367565b608082015261541160a08501615367565b60a082015261542260c08501615367565b60c082015260e0840151915061543782614ca3565b60e0015292915050565b60006040828403121561545357600080fd5b61545b614688565b9050815161546881614747565b8152602082015161478d81614747565b600082601f83011261548957600080fd5b81516020615499614dc283614d53565b82815260059290921b840181019181810190868411156154b857600080fd5b8286015b848110156154dc5780516154cf81614747565b83529183019183016154bc565b509695505050505050565b6000602082840312156154f957600080fd5b81516001600160401b038082111561551057600080fd5b908301906102e0828603121561552557600080fd5b61552d6146d2565b61553683614f46565b815260208301516020820152604083015160408201526155598660608501615379565b606082015261016061556d87828601615441565b60808301526101a061558188828701615441565b60a08401526155936101e08601615367565b60c08401526155a5610200860161514f565b60e08401526155b7610220860161514f565b6101008401526155ca610240860161514f565b610120840152610260850151848111156155e357600080fd5b6155ef89828801615478565b61014085015250615603610280860161514f565b828401526156146102a086016151c7565b6101808401526102c085015181840152505080935050505092915050565b958652935460ff80821660208089019190915260089290921c811660408801528451811660608801529301519092166080850152151560a0840152151560c083015260e08201526101000190565b60006040828403121561569257600080fd5b6110b48383615441565b600060208083850312156156af57600080fd5b82516001600160401b038111156156c557600080fd5b8301601f810185136156d657600080fd5b80516156e4614dc282614d53565b8181526060918202830184019184820191908884111561570357600080fd5b938501935b8385101561576d5780858a0312156157205760008081fd5b6157286146f5565b855161573381614747565b81528587015161574281614747565b818801526040868101516005811061575a5760008081fd5b9082015283529384019391850191615708565b50979650505050505050565b938452915460ff80821660208087019190915260089290921c81166040860152825181166060860152910151166080830152151560a082015260c00190565b6000602082840312156157ca57600080fd5b81516110b481614ca3565b6040815260006157e8604083018561483b565b90508260208301529392505050565b828152604060208201526000613dd9604083018461483b565b600082810b9082900b03607f198112607f8213171561086357610863614e47565b6080810161584f8286805160ff908116835260209182015116910152565b604082019390935260600152919050565b600060a0828403121561587257600080fd5b60405160a081018181106001600160401b038211171561589457615894614672565b6040528251600681106158a657600080fd5b81526020838101519082015260408301516158c081614747565b604082015260608301516158d381614747565b606082015260808301516158e681614ca3565b60808201529392505050565b600060ff821660ff810361590857615908614e47565b60010192915050565b600082601f83011261592257600080fd5b81516020615932614dc283614d53565b82815260069290921b8401810191818101908684111561595157600080fd5b8286015b848110156154dc576040818903121561596e5760008081fd5b615976614688565b8151601781106159865760008081fd5b81528185015185820152835291830191604001615955565b6000602082840312156159b057600080fd5b81516001600160401b03808211156159c757600080fd5b9083019060e082860312156159db57600080fd5b6159e36146b0565b825181526159f3602084016151c7565b6020820152615a046040840161514f565b6040820152615a156060840161514f565b6060820152608083015182811115615a2c57600080fd5b615a3887828601615911565b60808301525060a083015182811115615a5057600080fd5b615a5c87828601615911565b60a08301525060c083015182811115615a7457600080fd5b615a8087828601615911565b60c08301525095945050505050565b878152602081018790526040810186905260608101859052835460ff808216608084015260089190911c1660a082015261010081018360c0830152615ad760e0830184614598565b98975050505050505050565b60808101615af182876148d7565b84602083015283604083015282606083015295945050505050565b634e487b7160e01b600052603160045260246000fd5b60006040820184835260206040818501528185548084526060860191508660005282600020935060005b81811015615b6857845483526001948501949284019201615b4c565b509097965050505050505056fea2646970667358221220839ca4bcc89e9f3857ae866618e86ef9eff56e2195dac3b4ff3c9735e013d30464736f6c63430008110033",
  "devdoc": {
    "kind": "dev",
    "methods": {
      "owner()": {
        "details": "Returns the address of the current owner."
      },
      "renounceOwnership()": {
        "details": "Leaves the contract without owner. It will not be possible to call `onlyOwner` functions anymore. Can only be called by the current owner. NOTE: Renouncing ownership will leave the contract without an owner, thereby removing any functionality that is only available to the owner."
      },
      "transferOwnership(address)": {
        "details": "Transfers ownership of the contract to a new account (`newOwner`). Can only be called by the current owner."
      }
    },
    "version": 1
  },
  "userdoc": {
    "kind": "user",
    "methods": {},
    "version": 1
  },
  "storageLayout": {
    "storage": [
      {
        "astId": 7,
        "contract": "contracts/BCGames.sol:BCGames",
        "label": "_owner",
        "offset": 0,
        "slot": "0",
        "type": "t_address"
      },
      {
        "astId": 13515,
        "contract": "contracts/BCGames.sol:BCGames",
        "label": "TODO_randomSeed",
        "offset": 0,
        "slot": "1",
        "type": "t_uint256"
      },
      {
        "astId": 7904,
        "contract": "contracts/BCGames.sol:BCGames",
        "label": "chars",
        "offset": 0,
        "slot": "2",
        "type": "t_contract(CharInterface)7612"
      },
      {
        "astId": 7907,
        "contract": "contracts/BCGames.sol:BCGames",
        "label": "maps",
        "offset": 0,
        "slot": "3",
        "type": "t_contract(MapInterface)7779"
      },
      {
        "astId": 7910,
        "contract": "contracts/BCGames.sol:BCGames",
        "label": "bcEvents",
        "offset": 0,
        "slot": "4",
        "type": "t_contract(EventsInterface)7593"
      },
      {
        "astId": 7913,
        "contract": "contracts/BCGames.sol:BCGames",
        "label": "items",
        "offset": 0,
        "slot": "5",
        "type": "t_contract(ItemsInterface)7808"
      },
      {
        "astId": 7916,
        "contract": "contracts/BCGames.sol:BCGames",
        "label": "players",
        "offset": 0,
        "slot": "6",
        "type": "t_contract(PlayersInterface)7897"
      },
      {
        "astId": 7918,
        "contract": "contracts/BCGames.sol:BCGames",
        "label": "lobbiesAddress",
        "offset": 0,
        "slot": "7",
        "type": "t_address"
      },
      {
        "astId": 7920,
        "contract": "contracts/BCGames.sol:BCGames",
        "label": "charsAddress",
        "offset": 0,
        "slot": "8",
        "type": "t_address"
      },
      {
        "astId": 7922,
        "contract": "contracts/BCGames.sol:BCGames",
        "label": "actionsAddress",
        "offset": 0,
        "slot": "9",
        "type": "t_address"
      },
      {
        "astId": 7996,
        "contract": "contracts/BCGames.sol:BCGames",
        "label": "StartLocation",
        "offset": 0,
        "slot": "10",
        "type": "t_struct(Position)13296_storage"
      },
      {
        "astId": 8000,
        "contract": "contracts/BCGames.sol:BCGames",
        "label": "games",
        "offset": 0,
        "slot": "11",
        "type": "t_array(t_struct(Game)13397_storage)dyn_storage"
      },
      {
        "astId": 8005,
        "contract": "contracts/BCGames.sol:BCGames",
        "label": "addressToGame",
        "offset": 0,
        "slot": "12",
        "type": "t_mapping(t_address,t_array(t_uint256)dyn_storage)"
      },
      {
        "astId": 8010,
        "contract": "contracts/BCGames.sol:BCGames",
        "label": "denizenHealth",
        "offset": 0,
        "slot": "13",
        "type": "t_mapping(t_enum(DenizenType)13236,t_uint256)"
      },
      {
        "astId": 8015,
        "contract": "contracts/BCGames.sol:BCGames",
        "label": "denizenDef",
        "offset": 0,
        "slot": "14",
        "type": "t_mapping(t_enum(DenizenType)13236,t_uint256)"
      },
      {
        "astId": 8020,
        "contract": "contracts/BCGames.sol:BCGames",
        "label": "denizenOff",
        "offset": 0,
        "slot": "15",
        "type": "t_mapping(t_enum(DenizenType)13236,t_uint256)"
      },
      {
        "astId": 8025,
        "contract": "contracts/BCGames.sol:BCGames",
        "label": "denizenDmg",
        "offset": 0,
        "slot": "16",
        "type": "t_mapping(t_enum(DenizenType)13236,t_uint256)"
      },
      {
        "astId": 8030,
        "contract": "contracts/BCGames.sol:BCGames",
        "label": "denizenMovement",
        "offset": 0,
        "slot": "17",
        "type": "t_mapping(t_enum(DenizenType)13236,t_uint256)"
      }
    ],
    "types": {
      "t_address": {
        "encoding": "inplace",
        "label": "address",
        "numberOfBytes": "20"
      },
      "t_array(t_struct(Denizen)13282_storage)dyn_storage": {
        "base": "t_struct(Denizen)13282_storage",
        "encoding": "dynamic_array",
        "label": "struct BCTypes.Denizen[]",
        "numberOfBytes": "32"
      },
      "t_array(t_struct(Game)13397_storage)dyn_storage": {
        "base": "t_struct(Game)13397_storage",
        "encoding": "dynamic_array",
        "label": "struct BCTypes.Game[]",
        "numberOfBytes": "32"
      },
      "t_array(t_uint256)dyn_storage": {
        "base": "t_uint256",
        "encoding": "dynamic_array",
        "label": "uint256[]",
        "numberOfBytes": "32"
      },
      "t_bool": {
        "encoding": "inplace",
        "label": "bool",
        "numberOfBytes": "1"
      },
      "t_contract(CharInterface)7612": {
        "encoding": "inplace",
        "label": "contract CharInterface",
        "numberOfBytes": "20"
      },
      "t_contract(EventsInterface)7593": {
        "encoding": "inplace",
        "label": "contract EventsInterface",
        "numberOfBytes": "20"
      },
      "t_contract(ItemsInterface)7808": {
        "encoding": "inplace",
        "label": "contract ItemsInterface",
        "numberOfBytes": "20"
      },
      "t_contract(MapInterface)7779": {
        "encoding": "inplace",
        "label": "contract MapInterface",
        "numberOfBytes": "20"
      },
      "t_contract(PlayersInterface)7897": {
        "encoding": "inplace",
        "label": "contract PlayersInterface",
        "numberOfBytes": "20"
      },
      "t_enum(BCEventType)13204": {
        "encoding": "inplace",
        "label": "enum BCTypes.BCEventType",
        "numberOfBytes": "1"
      },
      "t_enum(DenizenType)13236": {
        "encoding": "inplace",
        "label": "enum BCTypes.DenizenType",
        "numberOfBytes": "1"
      },
      "t_mapping(t_address,t_array(t_uint256)dyn_storage)": {
        "encoding": "mapping",
        "key": "t_address",
        "label": "mapping(address => uint256[])",
        "numberOfBytes": "32",
        "value": "t_array(t_uint256)dyn_storage"
      },
      "t_mapping(t_enum(DenizenType)13236,t_uint256)": {
        "encoding": "mapping",
        "key": "t_enum(DenizenType)13236",
        "label": "mapping(enum BCTypes.DenizenType => uint256)",
        "numberOfBytes": "32",
        "value": "t_uint256"
      },
      "t_struct(Denizen)13282_storage": {
        "encoding": "inplace",
        "label": "struct BCTypes.Denizen",
        "members": [
          {
            "astId": 13271,
            "contract": "contracts/BCGames.sol:BCGames",
            "label": "id",
            "offset": 0,
            "slot": "0",
            "type": "t_uint256"
          },
          {
            "astId": 13273,
            "contract": "contracts/BCGames.sol:BCGames",
            "label": "gameId",
            "offset": 0,
            "slot": "1",
            "type": "t_uint256"
          },
          {
            "astId": 13276,
            "contract": "contracts/BCGames.sol:BCGames",
            "label": "denizenType",
            "offset": 0,
            "slot": "2",
            "type": "t_enum(DenizenType)13236"
          },
          {
            "astId": 13279,
            "contract": "contracts/BCGames.sol:BCGames",
            "label": "position",
            "offset": 0,
            "slot": "3",
            "type": "t_struct(Position)13296_storage"
          },
          {
            "astId": 13281,
            "contract": "contracts/BCGames.sol:BCGames",
            "label": "healthRemaining",
            "offset": 0,
            "slot": "4",
            "type": "t_uint256"
          }
        ],
        "numberOfBytes": "160"
      },
      "t_struct(EventTracker)13291_storage": {
        "encoding": "inplace",
        "label": "struct BCTypes.EventTracker",
        "members": [
          {
            "astId": 13284,
            "contract": "contracts/BCGames.sol:BCGames",
            "label": "bugEvents",
            "offset": 0,
            "slot": "0",
            "type": "t_uint8"
          },
          {
            "astId": 13286,
            "contract": "contracts/BCGames.sol:BCGames",
            "label": "mysteryEvents",
            "offset": 1,
            "slot": "0",
            "type": "t_uint8"
          },
          {
            "astId": 13288,
            "contract": "contracts/BCGames.sol:BCGames",
            "label": "scavEvents",
            "offset": 2,
            "slot": "0",
            "type": "t_uint8"
          },
          {
            "astId": 13290,
            "contract": "contracts/BCGames.sol:BCGames",
            "label": "shipEvents",
            "offset": 3,
            "slot": "0",
            "type": "t_uint8"
          }
        ],
        "numberOfBytes": "32"
      },
      "t_struct(Game)13397_storage": {
        "encoding": "inplace",
        "label": "struct BCTypes.Game",
        "members": [
          {
            "astId": 13348,
            "contract": "contracts/BCGames.sol:BCGames",
            "label": "active",
            "offset": 0,
            "slot": "0",
            "type": "t_bool"
          },
          {
            "astId": 13350,
            "contract": "contracts/BCGames.sol:BCGames",
            "label": "denizenTurn",
            "offset": 1,
            "slot": "0",
            "type": "t_bool"
          },
          {
            "astId": 13353,
            "contract": "contracts/BCGames.sol:BCGames",
            "label": "playerIndexes",
            "offset": 0,
            "slot": "1",
            "type": "t_array(t_uint256)dyn_storage"
          },
          {
            "astId": 13355,
            "contract": "contracts/BCGames.sol:BCGames",
            "label": "currentPlayerTurnIndex",
            "offset": 0,
            "slot": "2",
            "type": "t_uint256"
          },
          {
            "astId": 13357,
            "contract": "contracts/BCGames.sol:BCGames",
            "label": "numPlayers",
            "offset": 0,
            "slot": "3",
            "type": "t_uint256"
          },
          {
            "astId": 13359,
            "contract": "contracts/BCGames.sol:BCGames",
            "label": "turnsTaken",
            "offset": 0,
            "slot": "4",
            "type": "t_uint256"
          },
          {
            "astId": 13362,
            "contract": "contracts/BCGames.sol:BCGames",
            "label": "eventTracker",
            "offset": 0,
            "slot": "5",
            "type": "t_struct(EventTracker)13291_storage"
          },
          {
            "astId": 13364,
            "contract": "contracts/BCGames.sol:BCGames",
            "label": "mapId",
            "offset": 0,
            "slot": "6",
            "type": "t_uint256"
          },
          {
            "astId": 13366,
            "contract": "contracts/BCGames.sol:BCGames",
            "label": "eventPlayerId",
            "offset": 0,
            "slot": "7",
            "type": "t_uint256"
          },
          {
            "astId": 13368,
            "contract": "contracts/BCGames.sol:BCGames",
            "label": "eventNumber",
            "offset": 0,
            "slot": "8",
            "type": "t_uint256"
          },
          {
            "astId": 13371,
            "contract": "contracts/BCGames.sol:BCGames",
            "label": "eventType",
            "offset": 0,
            "slot": "9",
            "type": "t_enum(BCEventType)13204"
          },
          {
            "astId": 13374,
            "contract": "contracts/BCGames.sol:BCGames",
            "label": "eventPosition",
            "offset": 0,
            "slot": "10",
            "type": "t_struct(Position)13296_storage"
          },
          {
            "astId": 13377,
            "contract": "contracts/BCGames.sol:BCGames",
            "label": "unusedBugEvents",
            "offset": 0,
            "slot": "11",
            "type": "t_array(t_uint256)dyn_storage"
          },
          {
            "astId": 13380,
            "contract": "contracts/BCGames.sol:BCGames",
            "label": "unusedMysteryEvents",
            "offset": 0,
            "slot": "12",
            "type": "t_array(t_uint256)dyn_storage"
          },
          {
            "astId": 13383,
            "contract": "contracts/BCGames.sol:BCGames",
            "label": "unusedScavEvents",
            "offset": 0,
            "slot": "13",
            "type": "t_array(t_uint256)dyn_storage"
          },
          {
            "astId": 13386,
            "contract": "contracts/BCGames.sol:BCGames",
            "label": "unusedShipEvents",
            "offset": 0,
            "slot": "14",
            "type": "t_array(t_uint256)dyn_storage"
          },
          {
            "astId": 13388,
            "contract": "contracts/BCGames.sol:BCGames",
            "label": "turnTimeLimit",
            "offset": 0,
            "slot": "15",
            "type": "t_uint256"
          },
          {
            "astId": 13390,
            "contract": "contracts/BCGames.sol:BCGames",
            "label": "lastTurnTimestamp",
            "offset": 0,
            "slot": "16",
            "type": "t_uint256"
          },
          {
            "astId": 13392,
            "contract": "contracts/BCGames.sol:BCGames",
            "label": "DEBUG_returnAmount",
            "offset": 0,
            "slot": "17",
            "type": "t_uint256"
          },
          {
            "astId": 13396,
            "contract": "contracts/BCGames.sol:BCGames",
            "label": "denizens",
            "offset": 0,
            "slot": "18",
            "type": "t_array(t_struct(Denizen)13282_storage)dyn_storage"
          }
        ],
        "numberOfBytes": "608"
      },
      "t_struct(Position)13296_storage": {
        "encoding": "inplace",
        "label": "struct BCTypes.Position",
        "members": [
          {
            "astId": 13293,
            "contract": "contracts/BCGames.sol:BCGames",
            "label": "row",
            "offset": 0,
            "slot": "0",
            "type": "t_uint8"
          },
          {
            "astId": 13295,
            "contract": "contracts/BCGames.sol:BCGames",
            "label": "col",
            "offset": 1,
            "slot": "0",
            "type": "t_uint8"
          }
        ],
        "numberOfBytes": "32"
      },
      "t_uint256": {
        "encoding": "inplace",
        "label": "uint256",
        "numberOfBytes": "32"
      },
      "t_uint8": {
        "encoding": "inplace",
        "label": "uint8",
        "numberOfBytes": "1"
      }
    }
  }
}