{
  "address": "0x0341b62C0D94158e2da49A336c461402Baf9eFCF",
  "abi": [
    {
      "inputs": [],
      "stateMutability": "nonpayable",
      "type": "constructor"
    },
    {
      "anonymous": false,
      "inputs": [
        {
          "indexed": true,
          "internalType": "address",
          "name": "previousOwner",
          "type": "address"
        },
        {
          "indexed": true,
          "internalType": "address",
          "name": "newOwner",
          "type": "address"
        }
      ],
      "name": "OwnershipTransferred",
      "type": "event"
    },
    {
      "inputs": [],
      "name": "StartLocation",
      "outputs": [
        {
          "internalType": "uint8",
          "name": "row",
          "type": "uint8"
        },
        {
          "internalType": "uint8",
          "name": "col",
          "type": "uint8"
        }
      ],
      "stateMutability": "view",
      "type": "function"
    },
    {
      "inputs": [],
      "name": "actionsAddress",
      "outputs": [
        {
          "internalType": "address",
          "name": "",
          "type": "address"
        }
      ],
      "stateMutability": "view",
      "type": "function"
    },
    {
      "inputs": [
        {
          "internalType": "address",
          "name": "",
          "type": "address"
        },
        {
          "internalType": "uint256",
          "name": "",
          "type": "uint256"
        }
      ],
      "name": "addressToGame",
      "outputs": [
        {
          "internalType": "uint256",
          "name": "",
          "type": "uint256"
        }
      ],
      "stateMutability": "view",
      "type": "function"
    },
    {
      "inputs": [],
      "name": "bcEvents",
      "outputs": [
        {
          "internalType": "contract EventsInterface",
          "name": "",
          "type": "address"
        }
      ],
      "stateMutability": "view",
      "type": "function"
    },
    {
      "inputs": [],
      "name": "chars",
      "outputs": [
        {
          "internalType": "contract CharInterface",
          "name": "",
          "type": "address"
        }
      ],
      "stateMutability": "view",
      "type": "function"
    },
    {
      "inputs": [],
      "name": "charsAddress",
      "outputs": [
        {
          "internalType": "address",
          "name": "",
          "type": "address"
        }
      ],
      "stateMutability": "view",
      "type": "function"
    },
    {
      "inputs": [
        {
          "internalType": "uint256",
          "name": "_gameId",
          "type": "uint256"
        },
        {
          "components": [
            {
              "internalType": "uint8",
              "name": "row",
              "type": "uint8"
            },
            {
              "internalType": "uint8",
              "name": "col",
              "type": "uint8"
            }
          ],
          "internalType": "struct BCTypes.Position",
          "name": "_position",
          "type": "tuple"
        },
        {
          "internalType": "uint256",
          "name": "_playerId",
          "type": "uint256"
        },
        {
          "internalType": "uint256",
          "name": "_debugRoomId",
          "type": "uint256"
        }
      ],
      "name": "debugMovePlayer",
      "outputs": [],
      "stateMutability": "nonpayable",
      "type": "function"
    },
    {
      "inputs": [
        {
          "internalType": "uint256[]",
          "name": "_worldItemIds",
          "type": "uint256[]"
        }
      ],
      "name": "deleteWorldItems",
      "outputs": [],
      "stateMutability": "nonpayable",
      "type": "function"
    },
    {
      "inputs": [
        {
          "internalType": "uint256",
          "name": "_gameId",
          "type": "uint256"
        },
        {
          "internalType": "uint256",
          "name": "_playerId",
          "type": "uint256"
        },
        {
          "internalType": "bool",
          "name": "_free",
          "type": "bool"
        }
      ],
      "name": "endPlayerAction",
      "outputs": [],
      "stateMutability": "nonpayable",
      "type": "function"
    },
    {
      "inputs": [
        {
          "internalType": "uint256",
          "name": "_id",
          "type": "uint256"
        }
      ],
      "name": "extGetGame",
      "outputs": [
        {
          "components": [
            {
              "internalType": "bool",
              "name": "active",
              "type": "bool"
            },
            {
              "internalType": "uint256[]",
              "name": "playerIndexes",
              "type": "uint256[]"
            },
            {
              "internalType": "uint256",
              "name": "currentPlayerTurnIndex",
              "type": "uint256"
            },
            {
              "internalType": "uint256",
              "name": "numPlayers",
              "type": "uint256"
            },
            {
              "internalType": "uint256",
              "name": "turnsTaken",
              "type": "uint256"
            },
            {
              "components": [
                {
                  "internalType": "uint8",
                  "name": "bugEvents",
                  "type": "uint8"
                },
                {
                  "internalType": "uint8",
                  "name": "mysteryEvents",
                  "type": "uint8"
                },
                {
                  "internalType": "uint8",
                  "name": "scavEvents",
                  "type": "uint8"
                },
                {
                  "internalType": "uint8",
                  "name": "shipEvents",
                  "type": "uint8"
                }
              ],
              "internalType": "struct BCTypes.EventTracker",
              "name": "eventTracker",
              "type": "tuple"
            },
            {
              "internalType": "address",
              "name": "mapContract",
              "type": "address"
            },
            {
              "internalType": "uint256",
              "name": "mapId",
              "type": "uint256"
            },
            {
              "internalType": "uint256",
              "name": "eventPlayerId",
              "type": "uint256"
            },
            {
              "internalType": "uint256",
              "name": "eventNumber",
              "type": "uint256"
            },
            {
              "internalType": "enum BCTypes.BCEventType",
              "name": "eventType",
              "type": "uint8"
            },
            {
              "components": [
                {
                  "internalType": "uint8",
                  "name": "row",
                  "type": "uint8"
                },
                {
                  "internalType": "uint8",
                  "name": "col",
                  "type": "uint8"
                }
              ],
              "internalType": "struct BCTypes.Position",
              "name": "eventPosition",
              "type": "tuple"
            },
            {
              "internalType": "uint256[]",
              "name": "unusedBugEvents",
              "type": "uint256[]"
            },
            {
              "internalType": "uint256[]",
              "name": "unusedMysteryEvents",
              "type": "uint256[]"
            },
            {
              "internalType": "uint256[]",
              "name": "unusedScavEvents",
              "type": "uint256[]"
            },
            {
              "internalType": "uint256[]",
              "name": "unusedShipEvents",
              "type": "uint256[]"
            }
          ],
          "internalType": "struct BCTypes.Game",
          "name": "",
          "type": "tuple"
        }
      ],
      "stateMutability": "view",
      "type": "function"
    },
    {
      "inputs": [
        {
          "internalType": "uint256",
          "name": "_gameId",
          "type": "uint256"
        }
      ],
      "name": "extGetGamePlayerIndexes",
      "outputs": [
        {
          "internalType": "uint256[]",
          "name": "",
          "type": "uint256[]"
        }
      ],
      "stateMutability": "view",
      "type": "function"
    },
    {
      "inputs": [
        {
          "internalType": "address",
          "name": "_playerAddress",
          "type": "address"
        }
      ],
      "name": "extGetGamesOfPlayer",
      "outputs": [
        {
          "internalType": "uint256[]",
          "name": "",
          "type": "uint256[]"
        }
      ],
      "stateMutability": "view",
      "type": "function"
    },
    {
      "inputs": [],
      "name": "extGetNumGames",
      "outputs": [
        {
          "internalType": "uint256",
          "name": "",
          "type": "uint256"
        }
      ],
      "stateMutability": "view",
      "type": "function"
    },
    {
      "inputs": [
        {
          "internalType": "uint256[]",
          "name": "_ids",
          "type": "uint256[]"
        }
      ],
      "name": "extGetWorldItems",
      "outputs": [
        {
          "components": [
            {
              "internalType": "uint256",
              "name": "gameId",
              "type": "uint256"
            },
            {
              "internalType": "uint256",
              "name": "bcItemId",
              "type": "uint256"
            },
            {
              "internalType": "enum BCTypes.WorldItemStatus",
              "name": "status",
              "type": "uint8"
            },
            {
              "components": [
                {
                  "internalType": "uint8",
                  "name": "row",
                  "type": "uint8"
                },
                {
                  "internalType": "uint8",
                  "name": "col",
                  "type": "uint8"
                }
              ],
              "internalType": "struct BCTypes.Position",
              "name": "position",
              "type": "tuple"
            }
          ],
          "internalType": "struct BCTypes.WorldItem[]",
          "name": "",
          "type": "tuple[]"
        }
      ],
      "stateMutability": "view",
      "type": "function"
    },
    {
      "inputs": [
        {
          "internalType": "uint256",
          "name": "_gameId",
          "type": "uint256"
        },
        {
          "components": [
            {
              "internalType": "uint8",
              "name": "row",
              "type": "uint8"
            },
            {
              "internalType": "uint8",
              "name": "col",
              "type": "uint8"
            }
          ],
          "internalType": "struct BCTypes.Position",
          "name": "_position",
          "type": "tuple"
        },
        {
          "internalType": "uint256",
          "name": "_playerId",
          "type": "uint256"
        }
      ],
      "name": "extMovePlayer",
      "outputs": [],
      "stateMutability": "nonpayable",
      "type": "function"
    },
    {
      "inputs": [
        {
          "internalType": "uint256",
          "name": "",
          "type": "uint256"
        },
        {
          "internalType": "uint256",
          "name": "",
          "type": "uint256"
        }
      ],
      "name": "gameIdToWorldItemIds",
      "outputs": [
        {
          "internalType": "uint256",
          "name": "",
          "type": "uint256"
        }
      ],
      "stateMutability": "view",
      "type": "function"
    },
    {
      "inputs": [
        {
          "internalType": "uint256",
          "name": "",
          "type": "uint256"
        }
      ],
      "name": "games",
      "outputs": [
        {
          "internalType": "bool",
          "name": "active",
          "type": "bool"
        },
        {
          "internalType": "uint256",
          "name": "currentPlayerTurnIndex",
          "type": "uint256"
        },
        {
          "internalType": "uint256",
          "name": "numPlayers",
          "type": "uint256"
        },
        {
          "internalType": "uint256",
          "name": "turnsTaken",
          "type": "uint256"
        },
        {
          "components": [
            {
              "internalType": "uint8",
              "name": "bugEvents",
              "type": "uint8"
            },
            {
              "internalType": "uint8",
              "name": "mysteryEvents",
              "type": "uint8"
            },
            {
              "internalType": "uint8",
              "name": "scavEvents",
              "type": "uint8"
            },
            {
              "internalType": "uint8",
              "name": "shipEvents",
              "type": "uint8"
            }
          ],
          "internalType": "struct BCTypes.EventTracker",
          "name": "eventTracker",
          "type": "tuple"
        },
        {
          "internalType": "address",
          "name": "mapContract",
          "type": "address"
        },
        {
          "internalType": "uint256",
          "name": "mapId",
          "type": "uint256"
        },
        {
          "internalType": "uint256",
          "name": "eventPlayerId",
          "type": "uint256"
        },
        {
          "internalType": "uint256",
          "name": "eventNumber",
          "type": "uint256"
        },
        {
          "internalType": "enum BCTypes.BCEventType",
          "name": "eventType",
          "type": "uint8"
        },
        {
          "components": [
            {
              "internalType": "uint8",
              "name": "row",
              "type": "uint8"
            },
            {
              "internalType": "uint8",
              "name": "col",
              "type": "uint8"
            }
          ],
          "internalType": "struct BCTypes.Position",
          "name": "eventPosition",
          "type": "tuple"
        }
      ],
      "stateMutability": "view",
      "type": "function"
    },
    {
      "inputs": [
        {
          "internalType": "uint256",
          "name": "_gameId",
          "type": "uint256"
        }
      ],
      "name": "getGameWorldItems",
      "outputs": [
        {
          "components": [
            {
              "internalType": "uint256",
              "name": "gameId",
              "type": "uint256"
            },
            {
              "internalType": "uint256",
              "name": "bcItemId",
              "type": "uint256"
            },
            {
              "internalType": "enum BCTypes.WorldItemStatus",
              "name": "status",
              "type": "uint8"
            },
            {
              "components": [
                {
                  "internalType": "uint8",
                  "name": "row",
                  "type": "uint8"
                },
                {
                  "internalType": "uint8",
                  "name": "col",
                  "type": "uint8"
                }
              ],
              "internalType": "struct BCTypes.Position",
              "name": "position",
              "type": "tuple"
            }
          ],
          "internalType": "struct BCTypes.WorldItem[]",
          "name": "",
          "type": "tuple[]"
        }
      ],
      "stateMutability": "view",
      "type": "function"
    },
    {
      "inputs": [],
      "name": "items",
      "outputs": [
        {
          "internalType": "contract ItemsInterface",
          "name": "",
          "type": "address"
        }
      ],
      "stateMutability": "view",
      "type": "function"
    },
    {
      "inputs": [],
      "name": "lobbiesAddress",
      "outputs": [
        {
          "internalType": "address",
          "name": "",
          "type": "address"
        }
      ],
      "stateMutability": "view",
      "type": "function"
    },
    {
      "inputs": [],
      "name": "maps",
      "outputs": [
        {
          "internalType": "contract MapInterface",
          "name": "",
          "type": "address"
        }
      ],
      "stateMutability": "view",
      "type": "function"
    },
    {
      "inputs": [],
      "name": "owner",
      "outputs": [
        {
          "internalType": "address",
          "name": "",
          "type": "address"
        }
      ],
      "stateMutability": "view",
      "type": "function"
    },
    {
      "inputs": [
        {
          "internalType": "uint256",
          "name": "_gameId",
          "type": "uint256"
        },
        {
          "internalType": "uint256[]",
          "name": "_itemIds",
          "type": "uint256[]"
        },
        {
          "internalType": "uint256",
          "name": "_row",
          "type": "uint256"
        },
        {
          "internalType": "uint256",
          "name": "_col",
          "type": "uint256"
        }
      ],
      "name": "placeWorldItems",
      "outputs": [],
      "stateMutability": "nonpayable",
      "type": "function"
    },
    {
      "inputs": [],
      "name": "players",
      "outputs": [
        {
          "internalType": "contract PlayersInterface",
          "name": "",
          "type": "address"
        }
      ],
      "stateMutability": "view",
      "type": "function"
    },
    {
      "inputs": [],
      "name": "renounceOwnership",
      "outputs": [],
      "stateMutability": "nonpayable",
      "type": "function"
    },
    {
      "inputs": [
        {
          "internalType": "uint256",
          "name": "_gameId",
          "type": "uint256"
        },
        {
          "internalType": "uint256",
          "name": "_choice",
          "type": "uint256"
        }
      ],
      "name": "resolveEvent",
      "outputs": [],
      "stateMutability": "nonpayable",
      "type": "function"
    },
    {
      "inputs": [
        {
          "internalType": "address",
          "name": "_charAddress",
          "type": "address"
        },
        {
          "internalType": "address",
          "name": "_utilsAddress",
          "type": "address"
        },
        {
          "internalType": "address",
          "name": "_mapsAddress",
          "type": "address"
        },
        {
          "internalType": "address",
          "name": "_lobbiesAddress",
          "type": "address"
        },
        {
          "internalType": "address",
          "name": "_actionsAddress",
          "type": "address"
        },
        {
          "internalType": "address",
          "name": "_eventsAddress",
          "type": "address"
        },
        {
          "internalType": "address",
          "name": "_itemsAddress",
          "type": "address"
        },
        {
          "internalType": "address",
          "name": "_playersAddress",
          "type": "address"
        }
      ],
      "name": "setContractAddresses",
      "outputs": [],
      "stateMutability": "nonpayable",
      "type": "function"
    },
    {
      "inputs": [
        {
          "internalType": "uint256[]",
          "name": "_playerIndexes",
          "type": "uint256[]"
        },
        {
          "internalType": "uint256",
          "name": "_numPlayers",
          "type": "uint256"
        },
        {
          "internalType": "uint256",
          "name": "_debugRoomId",
          "type": "uint256"
        }
      ],
      "name": "startGame",
      "outputs": [
        {
          "internalType": "uint256",
          "name": "",
          "type": "uint256"
        }
      ],
      "stateMutability": "nonpayable",
      "type": "function"
    },
    {
      "inputs": [
        {
          "internalType": "address",
          "name": "newOwner",
          "type": "address"
        }
      ],
      "name": "transferOwnership",
      "outputs": [],
      "stateMutability": "nonpayable",
      "type": "function"
    },
    {
      "inputs": [],
      "name": "utils",
      "outputs": [
        {
          "internalType": "contract UtilsInterface",
          "name": "",
          "type": "address"
        }
      ],
      "stateMutability": "view",
      "type": "function"
    },
    {
      "inputs": [
        {
          "internalType": "uint256",
          "name": "",
          "type": "uint256"
        }
      ],
      "name": "worldItems",
      "outputs": [
        {
          "internalType": "uint256",
          "name": "gameId",
          "type": "uint256"
        },
        {
          "internalType": "uint256",
          "name": "bcItemId",
          "type": "uint256"
        },
        {
          "internalType": "enum BCTypes.WorldItemStatus",
          "name": "status",
          "type": "uint8"
        },
        {
          "components": [
            {
              "internalType": "uint8",
              "name": "row",
              "type": "uint8"
            },
            {
              "internalType": "uint8",
              "name": "col",
              "type": "uint8"
            }
          ],
          "internalType": "struct BCTypes.Position",
          "name": "position",
          "type": "tuple"
        }
      ],
      "stateMutability": "view",
      "type": "function"
    }
  ],
  "transactionHash": "0xb2d35227f22d5a144543ee7f45775d261e926520d404901b799bc39dce32cae5",
  "args": [],
  "numDeployments": 1,
  "solcInputHash": "e4fa0a5ba7575f2f162947b2f1a14db2",
  "bytecode": "0x60c0604052600a6080819052600660a052805461ffff191661060a1790553480156200002a57600080fd5b5062000036336200003c565b6200008c565b600080546001600160a01b038381166001600160a01b0319831681178455604051919092169283917f8be0079c531659141344cd1fd0a4f28419497f9722a3daafe3b4186f6b6457e09190a35050565b61353e806200009c6000396000f3fe608060405234801561001057600080fd5b50600436106101e55760003560e01c80638bf52bc31161010f578063aa6e8030116100a2578063dc769ee811610071578063dc769ee81461044e578063e67d0e791461047e578063f101de9a14610491578063f2fde38b146104a457600080fd5b8063aa6e803014610402578063afd62bb214610415578063c06fad0614610428578063dc0b35641461043b57600080fd5b8063921d2799116100de578063921d2799146103b65780639bda278a146103c95780639fca1ee1146103dc578063a99d2a8b146103ef57600080fd5b80638bf52bc31461035c5780638ccaedfb1461036f5780638d4723ee146103825780638da5cb5b146103a557600080fd5b806340d4fd78116101875780636fe99c18116101565780636fe99c181461030e578063715018a61461032e5780637b45c0d4146103365780637ddae1031461034957600080fd5b806340d4fd78146102b657806346f2434b146102d65780635a29638d146102e857806364f66467146102fb57600080fd5b8063117a5b90116101c3578063117a5b9014610253578063175142251461027d578063336d7d7b146102905780633deaec2b146102a357600080fd5b806305892ff6146101ea5780630d8354681461021357806310a2cd0d14610228575b600080fd5b6101fd6101f83660046126c2565b6104b7565b60405161020a9190612760565b60405180910390f35b610226610221366004612922565b61060f565b005b60015461023b906001600160a01b031681565b6040516001600160a01b03909116815260200161020a565b610266610261366004612978565b610709565b60405161020a9b9a999897969594939291906129a1565b61022661028b366004612a9e565b6107d3565b60075461023b906001600160a01b031681565b60035461023b906001600160a01b031681565b6102c96102c4366004612978565b610859565b60405161020a9190612b0f565b600b545b60405190815260200161020a565b60025461023b906001600160a01b031681565b610226610309366004612b29565b61094a565b61032161031c366004612978565b610a14565b60405161020a9190612b4b565b610226610d0d565b60095461023b906001600160a01b031681565b60045461023b906001600160a01b031681565b61022661036a366004612cdc565b610d21565b6101fd61037d366004612978565b610d79565b610395610390366004612978565b610eea565b60405161020a9493929190612d18565b6000546001600160a01b031661023b565b6102266103c4366004612d68565b610f46565b6102266103d73660046126c2565b610fdc565b60085461023b906001600160a01b031681565b6102da6103fd366004612e11565b6110a5565b610226610410366004612e4b565b6110d6565b6102c9610423366004612e84565b6112e4565b60055461023b906001600160a01b031681565b60065461023b906001600160a01b031681565b600a546104649060ff8082169161010090041682565b6040805160ff93841681529290911660208301520161020a565b6102da61048c366004612b29565b6113b4565b6102da61049f366004612ea1565b6113d0565b6102266104b2366004612e84565b61183f565b60606000826001600160401b038111156104d3576104d36127e1565b60405190808252806020026020018201604052801561050c57816020015b6104f9612535565b8152602001906001900390816104f15790505b50905060005b8381101561060557600c85858381811061052e5761052e612eee565b905060200201358154811061054557610545612eee565b906000526020600020906004020160405180608001604052908160008201548152602001600182015481526020016002820160009054906101000a900460ff16600381111561059657610596612736565b60038111156105a7576105a7612736565b8152604080518082019091526003929092015460ff808216845261010090910416602083810191909152015282518390839081106105e7576105e7612eee565b602002602001018190525080806105fd90612f1a565b915050610512565b5090505b92915050565b60005b835181101561070257600c80546001810182556000919091526004027fdf6966c971051c3d54ec59162606531493a51404a002842f56009d7e5cf4a8c701858155845185908390811061066757610667612eee565b602090810291909101015160018083019190915560028201805460ff19168280021790555060408051808201825260ff868116808352908616602092830181905260038501805461ffff19169092176101009091021790556000888152600d90915220600c546106d990600190612f33565b8154600181018355600092835260209092209091015550806106fa81612f1a565b915050610612565b5050505050565b600b818154811061071957600080fd5b6000918252602091829020601090910201805460028201546003830154600484015460408051608081018252600587015460ff81811683526101008083048216848c0152620100008304821684860152630100000090920481166060840152600689015460078a015460088b015460098c0154600a8d01548851808a01909952600b909d015480861689529590950484169c87019c909c529882169b5096999598949792966001600160a01b03169592949293919216908b565b6009546001600160a01b03163314806107f657506006546001600160a01b031633145b6108475760405162461bcd60e51b815260206004820152601c60248201527f4e6f7420616374696f6e732f706c617965727320636f6e74726163740000000060448201526064015b60405180910390fd5b61085483838360006118b8565b505050565b60606000600b838154811061087057610870612eee565b9060005260206000209060100201600101805490506001600160401b0381111561089c5761089c6127e1565b6040519080825280602002602001820160405280156108c5578160200160208202803683370190505b50905060005b815181101561094357600b84815481106108e7576108e7612eee565b9060005260206000209060100201600101818154811061090957610909612eee565b906000526020600020015482828151811061092657610926612eee565b60209081029190910101528061093b81612f1a565b9150506108cb565b5092915050565b6000600b838154811061095f5761095f612eee565b60009182526020909120600654601090920201600881015460078201546009830154600a840154604051636d291bbb60e01b81529496506001600160a01b0390951694636d291bbb946109c594899490938b939192600b8b019260ff1690600401612f46565b600060405180830381600087803b1580156109df57600080fd5b505af11580156109f3573d6000803e3d6000fd5b505060006008840181905560098401555050600a01805460ff191690555050565b610a1c61258e565b600b8281548110610a2f57610a2f612eee565b600091825260209182902060408051610200810182526010909302909101805460ff1615158352600181018054835181870281018701909452808452939491938583019392830182828015610aa357602002820191906000526020600020905b815481526020019060010190808311610a8f575b505050918352505060028201546020808301919091526003830154604080840191909152600484015460608085019190915281516080818101845260058088015460ff80821685526101008083048216988601989098526201000082048116968501969096526301000000900485169383019390935285015260068501546001600160a01b031660a0850152600785015460c0850152600885015460e0850152600985015492840192909252600a840154610120909301921690811115610b6c57610b6c612736565b6005811115610b7d57610b7d612736565b8152604080518082018252600b84015460ff80821683526101009091041660208281019190915280840191909152600c84018054835181840281018401855281815293909401939091830182828015610bf557602002820191906000526020600020905b815481526020019060010190808311610be1575b50505050508152602001600d8201805480602002602001604051908101604052809291908181526020018280548015610c4d57602002820191906000526020600020905b815481526020019060010190808311610c39575b50505050508152602001600e8201805480602002602001604051908101604052809291908181526020018280548015610ca557602002820191906000526020600020905b815481526020019060010190808311610c91575b50505050508152602001600f8201805480602002602001604051908101604052809291908181526020018280548015610cfd57602002820191906000526020600020905b815481526020019060010190808311610ce9575b5050505050815250509050919050565b610d156121a0565b610d1f60006121fa565b565b6000546001600160a01b03163314610d675760405162461bcd60e51b81526020600482015260096024820152682737ba1037bbb732b960b91b604482015260640161083e565b610d73848484846118b8565b50505050565b6000818152600d6020526040812054606091906001600160401b03811115610da357610da36127e1565b604051908082528060200260200182016040528015610ddc57816020015b610dc9612535565b815260200190600190039081610dc15790505b50905060005b8151811015610943576000848152600d602052604090208054600c919083908110610e0f57610e0f612eee565b906000526020600020015481548110610e2a57610e2a612eee565b906000526020600020906004020160405180608001604052908160008201548152602001600182015481526020016002820160009054906101000a900460ff166003811115610e7b57610e7b612736565b6003811115610e8c57610e8c612736565b8152604080518082019091526003929092015460ff80821684526101009091041660208381019190915201528251839083908110610ecc57610ecc612eee565b60200260200101819052508080610ee290612f1a565b915050610de2565b600c8181548110610efa57600080fd5b60009182526020918290206004909102018054600182015460028301546040805180820190915260039094015460ff818116865261010090910481169585019590955291945092169084565b610f4e6121a0565b600180546001600160a01b03199081166001600160a01b039a8b1617909155600280548216988a1698909817909755600380548816968916969096179095556007805487169488169490941790935560098054861692871692909217909155600480548516918616919091179055600580548416918516919091179055600680549092169216919091179055565b6005546001600160a01b0316331461102b5760405162461bcd60e51b8152602060048201526012602482015271139bdd081a5d195b5cc818dbdb9d1c9858dd60721b604482015260640161083e565b60005b8181101561085457600c83838381811061104a5761104a612eee565b905060200201358154811061106157611061612eee565b600091825260208220600490910201818155600181019190915560028101805460ff19169055600301805461ffff191690558061109d81612f1a565b91505061102e565b600e60205281600052604060002081815481106110c157600080fd5b90600052602060002001600091509150505481565b6009546001600160a01b031633146111275760405162461bcd60e51b8152602060048201526014602482015273139bdd081858dd1a5bdb9cc818dbdb9d1c9858dd60621b604482015260640161083e565b8061118b5760065460405163ce93229760e01b8152600481018490526001600160a01b039091169063ce93229790602401600060405180830381600087803b15801561117257600080fd5b505af1158015611186573d6000803e3d6000fd5b505050505b6006546040516310f67fb360e01b8152600481018490526000916001600160a01b0316906310f67fb390602401600060405180830381865afa1580156111d5573d6000803e3d6000fd5b505050506040513d6000823e601f3d908101601f191682016040526111fd919081019061306e565b90506000600b858154811061121457611214612eee565b9060005260206000209060100201905060038260c0015160ff16106107025760065460405163065c363f60e41b8152600481018690526001600160a01b03909116906365c363f090602401600060405180830381600087803b15801561127957600080fd5b505af115801561128d573d6000803e3d6000fd5b505050506001818101546112a19190612f33565b816002015410156112c8576002810180549060006112be83612f1a565b9190505550610702565b6112d685826007015461224a565b600060028201555050505050565b6001600160a01b0381166000908152600e6020526040812054606091906001600160401b03811115611318576113186127e1565b604051908082528060200260200182016040528015611341578160200160208202803683370190505b50905060005b8151811015610943576001600160a01b0384166000908152600e6020526040902080548290811061137a5761137a612eee565b906000526020600020015482828151811061139757611397612eee565b6020908102919091010152806113ac81612f1a565b915050611347565b600d60205281600052604060002081815481106110c157600080fd5b6007546000906001600160a01b031633146114225760405162461bcd60e51b8152602060048201526012602482015271139bdd081b1bd8989e4818dbdb9d1c9858dd60721b604482015260640161083e565b600b80546001808201835560009283527f0175b7a638427703f0dbe7bb9bbf987a2551717b34e79f33b5b1008d1fa01db96010909202918201805460ff191690911781557f0175b7a638427703f0dbe7bb9bbf987a2551717b34e79f33b5b1008d1fa01dbd82019290925585516114c0917f0175b7a638427703f0dbe7bb9bbf987a2551717b34e79f33b5b1008d1fa01dba01906020880190612662565b5060038082018590556040805160808101825260008082526020820181905291810182905260600181905260058301805463ffffffff1916905590546006830180546001600160a01b0319166001600160a01b039092169190911790558390036115a757600360009054906101000a90046001600160a01b03166001600160a01b031663f01fc35a6040518163ffffffff1660e01b81526004016020604051808303816000875af1158015611579573d6000803e3d6000fd5b505050506040513d601f19601f8201168201806040525081019061159d91906131ba565b600782015561161c565b60035460405163148e052f60e21b8152600481018590526001600160a01b039091169063523814bc906024016020604051808303816000875af11580156115f2573d6000803e3d6000fd5b505050506040513d601f19601f8201168201806040525081019061161691906131ba565b60078201555b60005b61162a600186612f33565b811161176957600782015460408051808201909152600a5460ff8082168352610100909104166020820152600184018054611684939291908590811061167257611672612eee565b906000526020600020015460006118b8565b60065486516000916001600160a01b031690636621a421908990859081106116ae576116ae612eee565b60200260200101516040518263ffffffff1660e01b81526004016116d491815260200190565b602060405180830381865afa1580156116f1573d6000803e3d6000fd5b505050506040513d601f19601f8201168201806040525081019061171591906131d3565b6001600160a01b0381166000908152600e60205260409020600b549192509061174090600190612f33565b81546001810183556000928352602090922090910155508061176181612f1a565b91505061161f565b506000604051806101e00160405280600181526020016002815260200160038152602001600481526020016005815260200160068152602001600781526020016008815260200160098152602001600a8152602001600b8152602001600c8152602001600d8152602001600e8152602001600f81525090508082600c0190600f6117f4929190612662565b50611804600d830182600f612662565b50611814600e830182600f612662565b50611825600f808401908390612662565b50600b5461183590600190612f33565b9695505050505050565b6118476121a0565b6001600160a01b0381166118ac5760405162461bcd60e51b815260206004820152602660248201527f4f776e61626c653a206e6577206f776e657220697320746865207a65726f206160448201526564647265737360d01b606482015260840161083e565b6118b5816121fa565b50565b600654600b80546001600160a01b0390921691638d491b3e918691869190899081106118e6576118e6612eee565b9060005260206000209060100201600701546040518463ffffffff1660e01b8152600401611916939291906131f0565b6020604051808303816000875af1158015611935573d6000803e3d6000fd5b505050506040513d601f19601f82011682018060405250810190611959919061321f565b610d7357600354600b80546000926001600160a01b0316916381bad36d918890811061198757611987612eee565b90600052602060002090601002016007015486600001518760200151866040518563ffffffff1660e01b81526004016119dd949392919093845260ff928316602085015291166040830152606082015260800190565b6020604051808303816000875af11580156119fc573d6000803e3d6000fd5b505050506040513d601f19601f82011682018060405250810190611a2091906131ba565b600354600b80549293506000926001600160a01b03909216916358058283919089908110611a5057611a50612eee565b906000526020600020906010020160070154846040518363ffffffff1660e01b8152600401611a89929190918252602082015260400190565b60a060405180830381865afa158015611aa6573d6000803e3d6000fd5b505050506040513d601f19601f82011682018060405250810190611aca919061323c565b9050600282118015611aef5750600081516005811115611aec57611aec612736565b14155b1561219857600181516005811115611b0957611b09612736565b03611b5c57600b8681548110611b2157611b21612eee565b600091825260208220600560109092020101805460ff1691611b42836132ce565b91906101000a81548160ff021916908360ff160217905550505b600281516005811115611b7157611b71612736565b03611bcc57600b8681548110611b8957611b89612eee565b600091825260209091206010909102016005018054610100900460ff16906001611bb2836132ce565b91906101000a81548160ff021916908360ff160217905550505b600381516005811115611be157611be1612736565b03611c3d57600b8681548110611bf957611bf9612eee565b60009182526020909120601090910201600501805462010000900460ff16906002611c23836132ce565b91906101000a81548160ff021916908360ff160217905550505b600481516005811115611c5257611c52612736565b03611caf57600b8681548110611c6a57611c6a612eee565b6000918252602090912060109091020160050180546301000000900460ff16906003611c95836132ce565b91906101000a81548160ff021916908360ff160217905550505b602081015115611e2e5760048054602083015160405163c82c37b960e01b8152928301526000916001600160a01b039091169063c82c37b990602401600060405180830381865afa158015611d08573d6000803e3d6000fd5b505050506040513d6000823e601f3d908101601f19168201604052611d30919081019061337a565b90508060200151611e285784600b8881548110611d4f57611d4f612eee565b9060005260206000209060100201600801819055508160200151600b8881548110611d7c57611d7c612eee565b9060005260206000209060100201600901819055506005600b8881548110611da657611da6612eee565b60009182526020909120600a60109092020101805460ff19166001836005811115611dd357611dd3612736565b021790555085600b8881548110611dec57611dec612eee565b60009182526020918290208351600b6010909302909101919091018054939092015160ff9081166101000261ffff199094169116179190911790555b50612198565b600081516005811115611e4357611e43612736565b146121985783600b8781548110611e5c57611e5c612eee565b90600052602060002090601002016008018190555084600b8781548110611e8557611e85612eee565b60009182526020918290208351600b6010909302909101919091018054939092015160ff9081166101000261ffff19909416911617919091179055600181516005811115611ed557611ed5612736565b03611f7657611f06600b8781548110611ef057611ef0612eee565b9060005260206000209060100201600c016123a3565b600b8781548110611f1957611f19612eee565b9060005260206000209060100201600901819055506001600b8781548110611f4357611f43612eee565b60009182526020909120600a60109092020101805460ff19166001836005811115611f7057611f70612736565b02179055505b600281516005811115611f8b57611f8b612736565b0361202c57611fbc600b8781548110611fa657611fa6612eee565b9060005260206000209060100201600d016123a3565b600b8781548110611fcf57611fcf612eee565b9060005260206000209060100201600901819055506002600b8781548110611ff957611ff9612eee565b60009182526020909120600a60109092020101805460ff1916600183600581111561202657612026612736565b02179055505b60038151600581111561204157612041612736565b036120e257612072600b878154811061205c5761205c612eee565b9060005260206000209060100201600e016123a3565b600b878154811061208557612085612eee565b9060005260206000209060100201600901819055506003600b87815481106120af576120af612eee565b60009182526020909120600a60109092020101805460ff191660018360058111156120dc576120dc612736565b02179055505b6004815160058111156120f7576120f7612736565b0361219857612128600b878154811061211257612112612eee565b9060005260206000209060100201600f016123a3565b600b878154811061213b5761213b612eee565b9060005260206000209060100201600901819055506004600b878154811061216557612165612eee565b60009182526020909120600a60109092020101805460ff1916600183600581111561219257612192612736565b02179055505b505050505050565b6000546001600160a01b03163314610d1f5760405162461bcd60e51b815260206004820181905260248201527f4f776e61626c653a2063616c6c6572206973206e6f7420746865206f776e6572604482015260640161083e565b600080546001600160a01b038381166001600160a01b0319831681178455604051919092169283917f8be0079c531659141344cd1fd0a4f28419497f9722a3daafe3b4186f6b6457e09190a35050565b6000600b838154811061225f5761225f612eee565b60009182526020909120600354604051630b06115560e31b815260048101869052601090930290910192506001600160a01b0316906358308aa890602401600060405180830381600087803b1580156122b757600080fd5b505af11580156122cb573d6000803e3d6000fd5b505060035460405163c6b41b4560e01b815260048101869052600160248201526001600160a01b03909116925063c6b41b459150604401600060405180830381600087803b15801561231c57600080fd5b505af1158015612330573d6000803e3d6000fd5b5050600654600784015460405163668a7f3b60e01b81526001600160a01b03909216935063668a7f3b925061236c91600186019060040161346b565b600060405180830381600087803b15801561238657600080fd5b505af115801561239a573d6000803e3d6000fd5b50505050505050565b805460009081906123b690600190612f33565b90505b80156124d25760025460405163ce28613f60e01b815260006004820181905260ff84166024830152916001600160a01b03169063ce28613f906044016020604051808303816000875af1158015612414573d6000803e3d6000fd5b505050506040513d601f19601f8201168201806040525081019061243891906134be565b9050838160ff168154811061244f5761244f612eee565b906000526020600020015484838154811061246c5761246c612eee565b906000526020600020015485848154811061248957612489612eee565b906000526020600020016000878560ff16815481106124aa576124aa612eee565b60009182526020909120019290925591909155508190506124ca816134db565b9150506123b9565b50815460009083906124e690600190612f33565b815481106124f6576124f6612eee565b9060005260206000200154905082805480612513576125136134f2565b600190038181906000526020600020016000905590558060ff16915050919050565b604051806080016040528060008152602001600081526020016000600381111561256157612561612736565b81526020016125896040518060400160405280600060ff168152602001600060ff1681525090565b905290565b60408051610200810182526000808252606060208084018290528385018390528184018390526080808501849052855190810186528381529081018390529384018290528301529060a0820190815260200160006001600160a01b031681526020016000815260200160008152602001600081526020016000600581111561261857612618612736565b81526020016126406040518060400160405280600060ff168152602001600060ff1681525090565b8152602001606081526020016060815260200160608152602001606081525090565b82805482825590600052602060002090810192821561269d579160200282015b8281111561269d578251825591602001919060010190612682565b506126a99291506126ad565b5090565b5b808211156126a957600081556001016126ae565b600080602083850312156126d557600080fd5b82356001600160401b03808211156126ec57600080fd5b818501915085601f83011261270057600080fd5b81358181111561270f57600080fd5b8660208260051b850101111561272457600080fd5b60209290920196919550909350505050565b634e487b7160e01b600052602160045260246000fd5b6004811061275c5761275c612736565b9052565b602080825282518282018190526000919060409081850190868401855b828110156127d4578151805185528681015187860152858101516127a38787018261274c565b50606090810151805160ff908116928701929092526020015116608085015260a0909301929085019060010161277d565b5091979650505050505050565b634e487b7160e01b600052604160045260246000fd5b604080519081016001600160401b0381118282101715612819576128196127e1565b60405290565b6040516101c081016001600160401b0381118282101715612819576128196127e1565b60405160e081016001600160401b0381118282101715612819576128196127e1565b604051601f8201601f191681016001600160401b038111828210171561288c5761288c6127e1565b604052919050565b60006001600160401b038211156128ad576128ad6127e1565b5060051b60200190565b600082601f8301126128c857600080fd5b813560206128dd6128d883612894565b612864565b82815260059290921b840181019181810190868411156128fc57600080fd5b8286015b848110156129175780358352918301918301612900565b509695505050505050565b6000806000806080858703121561293857600080fd5b8435935060208501356001600160401b0381111561295557600080fd5b612961878288016128b7565b949794965050505060408301359260600135919050565b60006020828403121561298a57600080fd5b5035919050565b6006811061275c5761275c612736565b8b1515815260208082018c905260408083018c905260608084018c90528a5160ff9081166080860152928b0151831660a0850152908a0151821660c08401528901511660e08201526101e081016001600160a01b038816610100830152610120820187905261014082018690526101608201859052612a24610180830185612991565b825160ff9081166101a08401526020840151166101c08301529c9b505050505050505050505050565b60ff811681146118b557600080fd5b600060408284031215612a6e57600080fd5b612a766127f7565b90508135612a8381612a4d565b81526020820135612a9381612a4d565b602082015292915050565b600080600060808486031215612ab357600080fd5b83359250612ac48560208601612a5c565b9150606084013590509250925092565b600081518084526020808501945080840160005b83811015612b0457815187529582019590820190600101612ae8565b509495945050505050565b602081526000612b226020830184612ad4565b9392505050565b60008060408385031215612b3c57600080fd5b50508035926020909101359150565b60208152612b5e60208201835115159052565b60006020830151610280806040850152612b7c6102a0850183612ad4565b91506040850151606085015260608501516080850152608085015160a085015260a0850151612bdb60c086018260ff815116825260ff602082015116602083015260ff604082015116604083015260ff60608201511660608301525050565b5060c0850151610140612bf8818701836001600160a01b03169052565b60e087015161016087810191909152610100880151610180808901919091526101208901516101a0808a01919091529289015193506101c092612c3d848a0186612991565b9189015193506101e091612c6389840186805160ff908116835260209182015116910152565b818a01519450601f19915081898803016102208a0152612c838786612ad4565b9650808a01519450508088870301610240890152612ca18685612ad4565b95508289015193508088870301610260890152612cbe8685612ad4565b95508189015193508088870301858901525050506118358382612ad4565b60008060008060a08587031215612cf257600080fd5b84359350612d038660208701612a5c565b93969395505050506060820135916080013590565b8481526020810184905260a08101612d33604083018561274c565b825160ff9081166060840152602084015116608083015295945050505050565b6001600160a01b03811681146118b557600080fd5b600080600080600080600080610100898b031215612d8557600080fd5b8835612d9081612d53565b97506020890135612da081612d53565b96506040890135612db081612d53565b95506060890135612dc081612d53565b94506080890135612dd081612d53565b935060a0890135612de081612d53565b925060c0890135612df081612d53565b915060e0890135612e0081612d53565b809150509295985092959890939650565b60008060408385031215612e2457600080fd5b8235612e2f81612d53565b946020939093013593505050565b80151581146118b557600080fd5b600080600060608486031215612e6057600080fd5b83359250602084013591506040840135612e7981612e3d565b809150509250925092565b600060208284031215612e9657600080fd5b8135612b2281612d53565b600080600060608486031215612eb657600080fd5b83356001600160401b03811115612ecc57600080fd5b612ed8868287016128b7565b9660208601359650604090950135949350505050565b634e487b7160e01b600052603260045260246000fd5b634e487b7160e01b600052601160045260246000fd5b600060018201612f2c57612f2c612f04565b5060010190565b8181038181111561060957610609612f04565b600061010082019050888252876020830152866040830152856060830152845460ff8116608084015260ff8160081c1660a0840152508360c0830152612f8f60e0830184612991565b98975050505050505050565b8051612fa681612d53565b919050565b8051612fa681612a4d565b600060408284031215612fc857600080fd5b612fd06127f7565b90508151612fdd81612a4d565b81526020820151612a9381612a4d565b8051600081900b8114612fa657600080fd5b600082601f83011261301057600080fd5b815160206130206128d883612894565b82815260059290921b8401810191818101908684111561303f57600080fd5b8286015b8481101561291757805161305681612a4d565b8352918301918301613043565b8051612fa681612e3d565b60006020828403121561308057600080fd5b81516001600160401b038082111561309757600080fd5b908301906101e082860312156130ac57600080fd5b6130b461281f565b6130bd83612f9b565b81526130cb60208401612f9b565b6020820152604083015160408201526130e78660608501612fb6565b60608201526130f860a08401612fed565b608082015261310960c08401612fab565b60a082015261311a60e08401612fab565b60c082015261010061312d818501612fab565b60e0830152610120808501518481111561314657600080fd5b61315289828801612fff565b83850152506101409350613167848601612fab565b908301525061016061317a848201613063565b83830152610180925061318e838501613063565b908201526101a06131a0848201613063565b928201929092526101c09290920151908201529392505050565b6000602082840312156131cc57600080fd5b5051919050565b6000602082840312156131e557600080fd5b8151612b2281612d53565b6080810161320e8286805160ff908116835260209182015116910152565b604082019390935260600152919050565b60006020828403121561323157600080fd5b8151612b2281612e3d565b600060a0828403121561324e57600080fd5b60405160a081018181106001600160401b0382111715613270576132706127e1565b60405282516006811061328257600080fd5b815260208381015190820152604083015161329c81612a4d565b604082015260608301516132af81612a4d565b606082015260808301516132c281612e3d565b60808201529392505050565b600060ff821660ff81036132e4576132e4612f04565b60010192915050565b600082601f8301126132fe57600080fd5b8151602061330e6128d883612894565b82815260069290921b8401810191818101908684111561332d57600080fd5b8286015b84811015612917576040818903121561334a5760008081fd5b6133526127f7565b8151601781106133625760008081fd5b81528185015185820152835291830191604001613331565b60006020828403121561338c57600080fd5b81516001600160401b03808211156133a357600080fd5b9083019060e082860312156133b757600080fd5b6133bf612842565b825181526133cf60208401613063565b60208201526133e060408401612fab565b60408201526133f160608401612fab565b606082015260808301518281111561340857600080fd5b613414878286016132ed565b60808301525060a08301518281111561342c57600080fd5b613438878286016132ed565b60a08301525060c08301518281111561345057600080fd5b61345c878286016132ed565b60c08301525095945050505050565b60006040820184835260206040818501528185548084526060860191508660005282600020935060005b818110156134b157845483526001948501949284019201613495565b5090979650505050505050565b6000602082840312156134d057600080fd5b8151612b2281612a4d565b6000816134ea576134ea612f04565b506000190190565b634e487b7160e01b600052603160045260246000fdfea2646970667358221220e38a49c45b67e2bd9fcbd1e8c6b541c37bfb2cbd7dc4d85eaf824a723b2cec8564736f6c63430008110033",
  "devdoc": {
    "kind": "dev",
    "methods": {
      "owner()": {
        "details": "Returns the address of the current owner."
      },
      "renounceOwnership()": {
        "details": "Leaves the contract without owner. It will not be possible to call `onlyOwner` functions anymore. Can only be called by the current owner. NOTE: Renouncing ownership will leave the contract without an owner, thereby removing any functionality that is only available to the owner."
      },
      "transferOwnership(address)": {
        "details": "Transfers ownership of the contract to a new account (`newOwner`). Can only be called by the current owner."
      }
    },
    "version": 1
  },
  "userdoc": {
    "kind": "user",
    "methods": {},
    "version": 1
  },
  "storageLayout": {
    "storage": [
      {
        "astId": 7,
        "contract": "contracts/BCGames.sol:BCGames",
        "label": "_owner",
        "offset": 0,
        "slot": "0",
        "type": "t_address"
      },
      {
        "astId": 8522,
        "contract": "contracts/BCGames.sol:BCGames",
        "label": "chars",
        "offset": 0,
        "slot": "1",
        "type": "t_contract(CharInterface)8315"
      },
      {
        "astId": 8525,
        "contract": "contracts/BCGames.sol:BCGames",
        "label": "utils",
        "offset": 0,
        "slot": "2",
        "type": "t_contract(UtilsInterface)8325"
      },
      {
        "astId": 8528,
        "contract": "contracts/BCGames.sol:BCGames",
        "label": "maps",
        "offset": 0,
        "slot": "3",
        "type": "t_contract(MapInterface)8438"
      },
      {
        "astId": 8531,
        "contract": "contracts/BCGames.sol:BCGames",
        "label": "bcEvents",
        "offset": 0,
        "slot": "4",
        "type": "t_contract(EventsInterface)8301"
      },
      {
        "astId": 8534,
        "contract": "contracts/BCGames.sol:BCGames",
        "label": "items",
        "offset": 0,
        "slot": "5",
        "type": "t_contract(ItemsInterface)8452"
      },
      {
        "astId": 8537,
        "contract": "contracts/BCGames.sol:BCGames",
        "label": "players",
        "offset": 0,
        "slot": "6",
        "type": "t_contract(PlayersInterface)8517"
      },
      {
        "astId": 8539,
        "contract": "contracts/BCGames.sol:BCGames",
        "label": "lobbiesAddress",
        "offset": 0,
        "slot": "7",
        "type": "t_address"
      },
      {
        "astId": 8541,
        "contract": "contracts/BCGames.sol:BCGames",
        "label": "charsAddress",
        "offset": 0,
        "slot": "8",
        "type": "t_address"
      },
      {
        "astId": 8543,
        "contract": "contracts/BCGames.sol:BCGames",
        "label": "actionsAddress",
        "offset": 0,
        "slot": "9",
        "type": "t_address"
      },
      {
        "astId": 8623,
        "contract": "contracts/BCGames.sol:BCGames",
        "label": "StartLocation",
        "offset": 0,
        "slot": "10",
        "type": "t_struct(Position)14801_storage"
      },
      {
        "astId": 8627,
        "contract": "contracts/BCGames.sol:BCGames",
        "label": "games",
        "offset": 0,
        "slot": "11",
        "type": "t_array(t_struct(Game)14892_storage)dyn_storage"
      },
      {
        "astId": 8631,
        "contract": "contracts/BCGames.sol:BCGames",
        "label": "worldItems",
        "offset": 0,
        "slot": "12",
        "type": "t_array(t_struct(WorldItem)14787_storage)dyn_storage"
      },
      {
        "astId": 8636,
        "contract": "contracts/BCGames.sol:BCGames",
        "label": "gameIdToWorldItemIds",
        "offset": 0,
        "slot": "13",
        "type": "t_mapping(t_uint256,t_array(t_uint256)dyn_storage)"
      },
      {
        "astId": 8641,
        "contract": "contracts/BCGames.sol:BCGames",
        "label": "addressToGame",
        "offset": 0,
        "slot": "14",
        "type": "t_mapping(t_address,t_array(t_uint256)dyn_storage)"
      }
    ],
    "types": {
      "t_address": {
        "encoding": "inplace",
        "label": "address",
        "numberOfBytes": "20"
      },
      "t_array(t_struct(Game)14892_storage)dyn_storage": {
        "base": "t_struct(Game)14892_storage",
        "encoding": "dynamic_array",
        "label": "struct BCTypes.Game[]",
        "numberOfBytes": "32"
      },
      "t_array(t_struct(WorldItem)14787_storage)dyn_storage": {
        "base": "t_struct(WorldItem)14787_storage",
        "encoding": "dynamic_array",
        "label": "struct BCTypes.WorldItem[]",
        "numberOfBytes": "32"
      },
      "t_array(t_uint256)dyn_storage": {
        "base": "t_uint256",
        "encoding": "dynamic_array",
        "label": "uint256[]",
        "numberOfBytes": "32"
      },
      "t_bool": {
        "encoding": "inplace",
        "label": "bool",
        "numberOfBytes": "1"
      },
      "t_contract(CharInterface)8315": {
        "encoding": "inplace",
        "label": "contract CharInterface",
        "numberOfBytes": "20"
      },
      "t_contract(EventsInterface)8301": {
        "encoding": "inplace",
        "label": "contract EventsInterface",
        "numberOfBytes": "20"
      },
      "t_contract(ItemsInterface)8452": {
        "encoding": "inplace",
        "label": "contract ItemsInterface",
        "numberOfBytes": "20"
      },
      "t_contract(MapInterface)8438": {
        "encoding": "inplace",
        "label": "contract MapInterface",
        "numberOfBytes": "20"
      },
      "t_contract(PlayersInterface)8517": {
        "encoding": "inplace",
        "label": "contract PlayersInterface",
        "numberOfBytes": "20"
      },
      "t_contract(UtilsInterface)8325": {
        "encoding": "inplace",
        "label": "contract UtilsInterface",
        "numberOfBytes": "20"
      },
      "t_enum(BCEventType)14740": {
        "encoding": "inplace",
        "label": "enum BCTypes.BCEventType",
        "numberOfBytes": "1"
      },
      "t_enum(WorldItemStatus)14745": {
        "encoding": "inplace",
        "label": "enum BCTypes.WorldItemStatus",
        "numberOfBytes": "1"
      },
      "t_mapping(t_address,t_array(t_uint256)dyn_storage)": {
        "encoding": "mapping",
        "key": "t_address",
        "label": "mapping(address => uint256[])",
        "numberOfBytes": "32",
        "value": "t_array(t_uint256)dyn_storage"
      },
      "t_mapping(t_uint256,t_array(t_uint256)dyn_storage)": {
        "encoding": "mapping",
        "key": "t_uint256",
        "label": "mapping(uint256 => uint256[])",
        "numberOfBytes": "32",
        "value": "t_array(t_uint256)dyn_storage"
      },
      "t_struct(EventTracker)14796_storage": {
        "encoding": "inplace",
        "label": "struct BCTypes.EventTracker",
        "members": [
          {
            "astId": 14789,
            "contract": "contracts/BCGames.sol:BCGames",
            "label": "bugEvents",
            "offset": 0,
            "slot": "0",
            "type": "t_uint8"
          },
          {
            "astId": 14791,
            "contract": "contracts/BCGames.sol:BCGames",
            "label": "mysteryEvents",
            "offset": 1,
            "slot": "0",
            "type": "t_uint8"
          },
          {
            "astId": 14793,
            "contract": "contracts/BCGames.sol:BCGames",
            "label": "scavEvents",
            "offset": 2,
            "slot": "0",
            "type": "t_uint8"
          },
          {
            "astId": 14795,
            "contract": "contracts/BCGames.sol:BCGames",
            "label": "shipEvents",
            "offset": 3,
            "slot": "0",
            "type": "t_uint8"
          }
        ],
        "numberOfBytes": "32"
      },
      "t_struct(Game)14892_storage": {
        "encoding": "inplace",
        "label": "struct BCTypes.Game",
        "members": [
          {
            "astId": 14853,
            "contract": "contracts/BCGames.sol:BCGames",
            "label": "active",
            "offset": 0,
            "slot": "0",
            "type": "t_bool"
          },
          {
            "astId": 14856,
            "contract": "contracts/BCGames.sol:BCGames",
            "label": "playerIndexes",
            "offset": 0,
            "slot": "1",
            "type": "t_array(t_uint256)dyn_storage"
          },
          {
            "astId": 14858,
            "contract": "contracts/BCGames.sol:BCGames",
            "label": "currentPlayerTurnIndex",
            "offset": 0,
            "slot": "2",
            "type": "t_uint256"
          },
          {
            "astId": 14860,
            "contract": "contracts/BCGames.sol:BCGames",
            "label": "numPlayers",
            "offset": 0,
            "slot": "3",
            "type": "t_uint256"
          },
          {
            "astId": 14862,
            "contract": "contracts/BCGames.sol:BCGames",
            "label": "turnsTaken",
            "offset": 0,
            "slot": "4",
            "type": "t_uint256"
          },
          {
            "astId": 14865,
            "contract": "contracts/BCGames.sol:BCGames",
            "label": "eventTracker",
            "offset": 0,
            "slot": "5",
            "type": "t_struct(EventTracker)14796_storage"
          },
          {
            "astId": 14867,
            "contract": "contracts/BCGames.sol:BCGames",
            "label": "mapContract",
            "offset": 0,
            "slot": "6",
            "type": "t_address"
          },
          {
            "astId": 14869,
            "contract": "contracts/BCGames.sol:BCGames",
            "label": "mapId",
            "offset": 0,
            "slot": "7",
            "type": "t_uint256"
          },
          {
            "astId": 14871,
            "contract": "contracts/BCGames.sol:BCGames",
            "label": "eventPlayerId",
            "offset": 0,
            "slot": "8",
            "type": "t_uint256"
          },
          {
            "astId": 14873,
            "contract": "contracts/BCGames.sol:BCGames",
            "label": "eventNumber",
            "offset": 0,
            "slot": "9",
            "type": "t_uint256"
          },
          {
            "astId": 14876,
            "contract": "contracts/BCGames.sol:BCGames",
            "label": "eventType",
            "offset": 0,
            "slot": "10",
            "type": "t_enum(BCEventType)14740"
          },
          {
            "astId": 14879,
            "contract": "contracts/BCGames.sol:BCGames",
            "label": "eventPosition",
            "offset": 0,
            "slot": "11",
            "type": "t_struct(Position)14801_storage"
          },
          {
            "astId": 14882,
            "contract": "contracts/BCGames.sol:BCGames",
            "label": "unusedBugEvents",
            "offset": 0,
            "slot": "12",
            "type": "t_array(t_uint256)dyn_storage"
          },
          {
            "astId": 14885,
            "contract": "contracts/BCGames.sol:BCGames",
            "label": "unusedMysteryEvents",
            "offset": 0,
            "slot": "13",
            "type": "t_array(t_uint256)dyn_storage"
          },
          {
            "astId": 14888,
            "contract": "contracts/BCGames.sol:BCGames",
            "label": "unusedScavEvents",
            "offset": 0,
            "slot": "14",
            "type": "t_array(t_uint256)dyn_storage"
          },
          {
            "astId": 14891,
            "contract": "contracts/BCGames.sol:BCGames",
            "label": "unusedShipEvents",
            "offset": 0,
            "slot": "15",
            "type": "t_array(t_uint256)dyn_storage"
          }
        ],
        "numberOfBytes": "512"
      },
      "t_struct(Position)14801_storage": {
        "encoding": "inplace",
        "label": "struct BCTypes.Position",
        "members": [
          {
            "astId": 14798,
            "contract": "contracts/BCGames.sol:BCGames",
            "label": "row",
            "offset": 0,
            "slot": "0",
            "type": "t_uint8"
          },
          {
            "astId": 14800,
            "contract": "contracts/BCGames.sol:BCGames",
            "label": "col",
            "offset": 1,
            "slot": "0",
            "type": "t_uint8"
          }
        ],
        "numberOfBytes": "32"
      },
      "t_struct(WorldItem)14787_storage": {
        "encoding": "inplace",
        "label": "struct BCTypes.WorldItem",
        "members": [
          {
            "astId": 14778,
            "contract": "contracts/BCGames.sol:BCGames",
            "label": "gameId",
            "offset": 0,
            "slot": "0",
            "type": "t_uint256"
          },
          {
            "astId": 14780,
            "contract": "contracts/BCGames.sol:BCGames",
            "label": "bcItemId",
            "offset": 0,
            "slot": "1",
            "type": "t_uint256"
          },
          {
            "astId": 14783,
            "contract": "contracts/BCGames.sol:BCGames",
            "label": "status",
            "offset": 0,
            "slot": "2",
            "type": "t_enum(WorldItemStatus)14745"
          },
          {
            "astId": 14786,
            "contract": "contracts/BCGames.sol:BCGames",
            "label": "position",
            "offset": 0,
            "slot": "3",
            "type": "t_struct(Position)14801_storage"
          }
        ],
        "numberOfBytes": "128"
      },
      "t_uint256": {
        "encoding": "inplace",
        "label": "uint256",
        "numberOfBytes": "32"
      },
      "t_uint8": {
        "encoding": "inplace",
        "label": "uint8",
        "numberOfBytes": "1"
      }
    }
  }
}