{
  "address": "0xA25bFD9a943dDb3Ad1692d8B9d1b94C64Cd80d28",
  "abi": [
    {
      "inputs": [],
      "stateMutability": "nonpayable",
      "type": "constructor"
    },
    {
      "inputs": [],
      "name": "CantForceDenizenTurn",
      "type": "error"
    },
    {
      "inputs": [],
      "name": "CantForceSinglePlayer",
      "type": "error"
    },
    {
      "inputs": [
        {
          "internalType": "uint256",
          "name": "",
          "type": "uint256"
        }
      ],
      "name": "EventNotForPlayer",
      "type": "error"
    },
    {
      "inputs": [
        {
          "internalType": "uint256",
          "name": "",
          "type": "uint256"
        },
        {
          "internalType": "uint256",
          "name": "",
          "type": "uint256"
        }
      ],
      "name": "PlayerNotInGame",
      "type": "error"
    },
    {
      "inputs": [],
      "name": "StillWithinTimeLimit",
      "type": "error"
    },
    {
      "anonymous": false,
      "inputs": [
        {
          "indexed": false,
          "internalType": "uint256",
          "name": "gameId",
          "type": "uint256"
        },
        {
          "indexed": false,
          "internalType": "uint256",
          "name": "roll",
          "type": "uint256"
        },
        {
          "indexed": false,
          "internalType": "uint256",
          "name": "forValue",
          "type": "uint256"
        },
        {
          "indexed": false,
          "internalType": "uint256",
          "name": "against",
          "type": "uint256"
        }
      ],
      "name": "ChallengeEvent",
      "type": "event"
    },
    {
      "anonymous": false,
      "inputs": [
        {
          "indexed": false,
          "internalType": "uint256",
          "name": "gameId",
          "type": "uint256"
        },
        {
          "indexed": false,
          "internalType": "enum BCTypes.DenizenType",
          "name": "denizenType",
          "type": "uint8"
        },
        {
          "indexed": false,
          "internalType": "uint256",
          "name": "denizenId",
          "type": "uint256"
        },
        {
          "indexed": false,
          "internalType": "uint256",
          "name": "playerTarget",
          "type": "uint256"
        },
        {
          "indexed": false,
          "internalType": "uint256",
          "name": "damage",
          "type": "uint256"
        },
        {
          "indexed": false,
          "internalType": "uint256",
          "name": "turnabout",
          "type": "uint256"
        }
      ],
      "name": "DenizenAttack",
      "type": "event"
    },
    {
      "anonymous": false,
      "inputs": [
        {
          "indexed": false,
          "internalType": "uint256",
          "name": "gameId",
          "type": "uint256"
        }
      ],
      "name": "DenizenTurnOver",
      "type": "event"
    },
    {
      "anonymous": false,
      "inputs": [
        {
          "indexed": false,
          "internalType": "uint256",
          "name": "gameId",
          "type": "uint256"
        },
        {
          "indexed": false,
          "internalType": "uint256",
          "name": "roll",
          "type": "uint256"
        }
      ],
      "name": "DiceRollEvent",
      "type": "event"
    },
    {
      "anonymous": false,
      "inputs": [
        {
          "indexed": true,
          "internalType": "address",
          "name": "previousOwner",
          "type": "address"
        },
        {
          "indexed": true,
          "internalType": "address",
          "name": "newOwner",
          "type": "address"
        }
      ],
      "name": "OwnershipTransferred",
      "type": "event"
    },
    {
      "anonymous": false,
      "inputs": [
        {
          "indexed": false,
          "internalType": "uint256",
          "name": "gameId",
          "type": "uint256"
        },
        {
          "indexed": false,
          "internalType": "uint256",
          "name": "playerId",
          "type": "uint256"
        },
        {
          "indexed": false,
          "internalType": "enum BCTypes.DenizenType",
          "name": "denizenType",
          "type": "uint8"
        },
        {
          "indexed": false,
          "internalType": "uint256",
          "name": "denizenId",
          "type": "uint256"
        },
        {
          "indexed": false,
          "internalType": "uint256",
          "name": "damage",
          "type": "uint256"
        },
        {
          "indexed": false,
          "internalType": "uint256",
          "name": "turnabout",
          "type": "uint256"
        }
      ],
      "name": "PlayerAttack",
      "type": "event"
    },
    {
      "inputs": [],
      "name": "StartLocation",
      "outputs": [
        {
          "internalType": "uint8",
          "name": "row",
          "type": "uint8"
        },
        {
          "internalType": "uint8",
          "name": "col",
          "type": "uint8"
        }
      ],
      "stateMutability": "view",
      "type": "function"
    },
    {
      "inputs": [
        {
          "internalType": "int256",
          "name": "x",
          "type": "int256"
        }
      ],
      "name": "abs",
      "outputs": [
        {
          "internalType": "int256",
          "name": "",
          "type": "int256"
        }
      ],
      "stateMutability": "pure",
      "type": "function"
    },
    {
      "inputs": [],
      "name": "actionsAddress",
      "outputs": [
        {
          "internalType": "address",
          "name": "",
          "type": "address"
        }
      ],
      "stateMutability": "view",
      "type": "function"
    },
    {
      "inputs": [
        {
          "internalType": "uint256",
          "name": "_gameId",
          "type": "uint256"
        },
        {
          "internalType": "enum BCTypes.DenizenType",
          "name": "_type",
          "type": "uint8"
        },
        {
          "internalType": "uint256",
          "name": "_row",
          "type": "uint256"
        },
        {
          "internalType": "uint256",
          "name": "_col",
          "type": "uint256"
        }
      ],
      "name": "addDenizen",
      "outputs": [],
      "stateMutability": "nonpayable",
      "type": "function"
    },
    {
      "inputs": [
        {
          "internalType": "address",
          "name": "",
          "type": "address"
        },
        {
          "internalType": "uint256",
          "name": "",
          "type": "uint256"
        }
      ],
      "name": "addressToGame",
      "outputs": [
        {
          "internalType": "uint256",
          "name": "",
          "type": "uint256"
        }
      ],
      "stateMutability": "view",
      "type": "function"
    },
    {
      "inputs": [],
      "name": "bcEvents",
      "outputs": [
        {
          "internalType": "contract EventsInterface",
          "name": "",
          "type": "address"
        }
      ],
      "stateMutability": "view",
      "type": "function"
    },
    {
      "inputs": [],
      "name": "chars",
      "outputs": [
        {
          "internalType": "contract CharInterface",
          "name": "",
          "type": "address"
        }
      ],
      "stateMutability": "view",
      "type": "function"
    },
    {
      "inputs": [],
      "name": "charsAddress",
      "outputs": [
        {
          "internalType": "address",
          "name": "",
          "type": "address"
        }
      ],
      "stateMutability": "view",
      "type": "function"
    },
    {
      "inputs": [
        {
          "internalType": "uint256",
          "name": "_gameId",
          "type": "uint256"
        },
        {
          "components": [
            {
              "internalType": "uint8",
              "name": "row",
              "type": "uint8"
            },
            {
              "internalType": "uint8",
              "name": "col",
              "type": "uint8"
            }
          ],
          "internalType": "struct BCTypes.Position",
          "name": "_position",
          "type": "tuple"
        },
        {
          "internalType": "uint256",
          "name": "_playerId",
          "type": "uint256"
        },
        {
          "internalType": "uint256",
          "name": "_debugRoomId",
          "type": "uint256"
        }
      ],
      "name": "debugMovePlayer",
      "outputs": [],
      "stateMutability": "nonpayable",
      "type": "function"
    },
    {
      "inputs": [],
      "name": "denizens",
      "outputs": [
        {
          "internalType": "contract DenizensInterface",
          "name": "",
          "type": "address"
        }
      ],
      "stateMutability": "view",
      "type": "function"
    },
    {
      "inputs": [
        {
          "internalType": "uint256",
          "name": "_gameId",
          "type": "uint256"
        },
        {
          "internalType": "uint256",
          "name": "_playerId",
          "type": "uint256"
        },
        {
          "internalType": "bool",
          "name": "_free",
          "type": "bool"
        }
      ],
      "name": "endPlayerAction",
      "outputs": [],
      "stateMutability": "nonpayable",
      "type": "function"
    },
    {
      "inputs": [
        {
          "internalType": "uint256",
          "name": "_gameId",
          "type": "uint256"
        }
      ],
      "name": "extGetCharsInGame",
      "outputs": [
        {
          "components": [
            {
              "internalType": "bytes32",
              "name": "genHash",
              "type": "bytes32"
            },
            {
              "internalType": "uint256",
              "name": "id",
              "type": "uint256"
            },
            {
              "internalType": "uint256",
              "name": "uifID",
              "type": "uint256"
            },
            {
              "components": [
                {
                  "internalType": "int8",
                  "name": "health",
                  "type": "int8"
                },
                {
                  "internalType": "int8",
                  "name": "carry",
                  "type": "int8"
                },
                {
                  "internalType": "int8",
                  "name": "defense",
                  "type": "int8"
                },
                {
                  "internalType": "int8",
                  "name": "hack",
                  "type": "int8"
                },
                {
                  "internalType": "int8",
                  "name": "breach",
                  "type": "int8"
                },
                {
                  "internalType": "int8",
                  "name": "shoot",
                  "type": "int8"
                },
                {
                  "internalType": "int8",
                  "name": "melee",
                  "type": "int8"
                },
                {
                  "internalType": "bool",
                  "name": "hasGun",
                  "type": "bool"
                }
              ],
              "internalType": "struct BCTypes.Traits",
              "name": "traits",
              "type": "tuple"
            },
            {
              "internalType": "uint8",
              "name": "cloneNumber",
              "type": "uint8"
            },
            {
              "internalType": "uint8",
              "name": "maxClones",
              "type": "uint8"
            },
            {
              "internalType": "uint8",
              "name": "ability",
              "type": "uint8"
            },
            {
              "internalType": "uint8",
              "name": "flaw",
              "type": "uint8"
            },
            {
              "internalType": "bool",
              "name": "inGame",
              "type": "bool"
            },
            {
              "internalType": "uint256",
              "name": "gameId",
              "type": "uint256"
            }
          ],
          "internalType": "struct BCTypes.Character[]",
          "name": "",
          "type": "tuple[]"
        }
      ],
      "stateMutability": "view",
      "type": "function"
    },
    {
      "inputs": [
        {
          "internalType": "uint256",
          "name": "_id",
          "type": "uint256"
        }
      ],
      "name": "extGetGame",
      "outputs": [
        {
          "components": [
            {
              "internalType": "bool",
              "name": "active",
              "type": "bool"
            },
            {
              "internalType": "bool",
              "name": "denizenTurn",
              "type": "bool"
            },
            {
              "internalType": "uint256",
              "name": "gameId",
              "type": "uint256"
            },
            {
              "internalType": "uint256[]",
              "name": "playerIndexes",
              "type": "uint256[]"
            },
            {
              "internalType": "uint256[]",
              "name": "charIds",
              "type": "uint256[]"
            },
            {
              "internalType": "uint256",
              "name": "currentPlayerTurnIndex",
              "type": "uint256"
            },
            {
              "internalType": "uint256",
              "name": "numPlayers",
              "type": "uint256"
            },
            {
              "internalType": "uint256",
              "name": "turnsTaken",
              "type": "uint256"
            },
            {
              "components": [
                {
                  "internalType": "uint8",
                  "name": "bugEvents",
                  "type": "uint8"
                },
                {
                  "internalType": "uint8",
                  "name": "mysteryEvents",
                  "type": "uint8"
                },
                {
                  "internalType": "uint8",
                  "name": "scavEvents",
                  "type": "uint8"
                },
                {
                  "internalType": "uint8",
                  "name": "shipEvents",
                  "type": "uint8"
                }
              ],
              "internalType": "struct BCTypes.EventTracker",
              "name": "eventTracker",
              "type": "tuple"
            },
            {
              "internalType": "uint256",
              "name": "mapId",
              "type": "uint256"
            },
            {
              "internalType": "uint256",
              "name": "eventPlayerId",
              "type": "uint256"
            },
            {
              "internalType": "uint256",
              "name": "eventNumber",
              "type": "uint256"
            },
            {
              "internalType": "enum BCTypes.BCEventType",
              "name": "eventType",
              "type": "uint8"
            },
            {
              "components": [
                {
                  "internalType": "uint8",
                  "name": "row",
                  "type": "uint8"
                },
                {
                  "internalType": "uint8",
                  "name": "col",
                  "type": "uint8"
                }
              ],
              "internalType": "struct BCTypes.Position",
              "name": "eventPosition",
              "type": "tuple"
            },
            {
              "internalType": "uint256[]",
              "name": "unusedBugEvents",
              "type": "uint256[]"
            },
            {
              "internalType": "uint256[]",
              "name": "unusedMysteryEvents",
              "type": "uint256[]"
            },
            {
              "internalType": "uint256[]",
              "name": "unusedScavEvents",
              "type": "uint256[]"
            },
            {
              "internalType": "uint256[]",
              "name": "unusedShipEvents",
              "type": "uint256[]"
            },
            {
              "internalType": "uint256",
              "name": "turnTimeLimit",
              "type": "uint256"
            },
            {
              "internalType": "uint256",
              "name": "lastTurnTimestamp",
              "type": "uint256"
            },
            {
              "internalType": "uint256[]",
              "name": "denizenIds",
              "type": "uint256[]"
            }
          ],
          "internalType": "struct BCTypes.Game",
          "name": "",
          "type": "tuple"
        }
      ],
      "stateMutability": "view",
      "type": "function"
    },
    {
      "inputs": [
        {
          "internalType": "uint256",
          "name": "_gameId",
          "type": "uint256"
        }
      ],
      "name": "extGetGamePlayerIndexes",
      "outputs": [
        {
          "internalType": "uint256[]",
          "name": "",
          "type": "uint256[]"
        }
      ],
      "stateMutability": "view",
      "type": "function"
    },
    {
      "inputs": [
        {
          "internalType": "address",
          "name": "_playerAddress",
          "type": "address"
        }
      ],
      "name": "extGetGamesOfPlayer",
      "outputs": [
        {
          "components": [
            {
              "internalType": "bool",
              "name": "active",
              "type": "bool"
            },
            {
              "internalType": "bool",
              "name": "denizenTurn",
              "type": "bool"
            },
            {
              "internalType": "uint256",
              "name": "gameId",
              "type": "uint256"
            },
            {
              "internalType": "uint256[]",
              "name": "playerIndexes",
              "type": "uint256[]"
            },
            {
              "internalType": "uint256[]",
              "name": "charIds",
              "type": "uint256[]"
            },
            {
              "internalType": "uint256",
              "name": "currentPlayerTurnIndex",
              "type": "uint256"
            },
            {
              "internalType": "uint256",
              "name": "numPlayers",
              "type": "uint256"
            },
            {
              "internalType": "uint256",
              "name": "turnsTaken",
              "type": "uint256"
            },
            {
              "components": [
                {
                  "internalType": "uint8",
                  "name": "bugEvents",
                  "type": "uint8"
                },
                {
                  "internalType": "uint8",
                  "name": "mysteryEvents",
                  "type": "uint8"
                },
                {
                  "internalType": "uint8",
                  "name": "scavEvents",
                  "type": "uint8"
                },
                {
                  "internalType": "uint8",
                  "name": "shipEvents",
                  "type": "uint8"
                }
              ],
              "internalType": "struct BCTypes.EventTracker",
              "name": "eventTracker",
              "type": "tuple"
            },
            {
              "internalType": "uint256",
              "name": "mapId",
              "type": "uint256"
            },
            {
              "internalType": "uint256",
              "name": "eventPlayerId",
              "type": "uint256"
            },
            {
              "internalType": "uint256",
              "name": "eventNumber",
              "type": "uint256"
            },
            {
              "internalType": "enum BCTypes.BCEventType",
              "name": "eventType",
              "type": "uint8"
            },
            {
              "components": [
                {
                  "internalType": "uint8",
                  "name": "row",
                  "type": "uint8"
                },
                {
                  "internalType": "uint8",
                  "name": "col",
                  "type": "uint8"
                }
              ],
              "internalType": "struct BCTypes.Position",
              "name": "eventPosition",
              "type": "tuple"
            },
            {
              "internalType": "uint256[]",
              "name": "unusedBugEvents",
              "type": "uint256[]"
            },
            {
              "internalType": "uint256[]",
              "name": "unusedMysteryEvents",
              "type": "uint256[]"
            },
            {
              "internalType": "uint256[]",
              "name": "unusedScavEvents",
              "type": "uint256[]"
            },
            {
              "internalType": "uint256[]",
              "name": "unusedShipEvents",
              "type": "uint256[]"
            },
            {
              "internalType": "uint256",
              "name": "turnTimeLimit",
              "type": "uint256"
            },
            {
              "internalType": "uint256",
              "name": "lastTurnTimestamp",
              "type": "uint256"
            },
            {
              "internalType": "uint256[]",
              "name": "denizenIds",
              "type": "uint256[]"
            }
          ],
          "internalType": "struct BCTypes.Game[]",
          "name": "",
          "type": "tuple[]"
        }
      ],
      "stateMutability": "view",
      "type": "function"
    },
    {
      "inputs": [],
      "name": "extGetNumGames",
      "outputs": [
        {
          "internalType": "uint256",
          "name": "",
          "type": "uint256"
        }
      ],
      "stateMutability": "view",
      "type": "function"
    },
    {
      "inputs": [
        {
          "internalType": "uint256",
          "name": "_gameId",
          "type": "uint256"
        }
      ],
      "name": "extGetPlayersInGame",
      "outputs": [
        {
          "components": [
            {
              "internalType": "address",
              "name": "owner",
              "type": "address"
            },
            {
              "internalType": "uint256",
              "name": "characterId",
              "type": "uint256"
            },
            {
              "internalType": "uint256",
              "name": "id",
              "type": "uint256"
            },
            {
              "components": [
                {
                  "internalType": "int8",
                  "name": "health",
                  "type": "int8"
                },
                {
                  "internalType": "int8",
                  "name": "carry",
                  "type": "int8"
                },
                {
                  "internalType": "int8",
                  "name": "defense",
                  "type": "int8"
                },
                {
                  "internalType": "int8",
                  "name": "hack",
                  "type": "int8"
                },
                {
                  "internalType": "int8",
                  "name": "breach",
                  "type": "int8"
                },
                {
                  "internalType": "int8",
                  "name": "shoot",
                  "type": "int8"
                },
                {
                  "internalType": "int8",
                  "name": "melee",
                  "type": "int8"
                },
                {
                  "internalType": "bool",
                  "name": "hasGun",
                  "type": "bool"
                }
              ],
              "internalType": "struct BCTypes.Traits",
              "name": "currentTraits",
              "type": "tuple"
            },
            {
              "components": [
                {
                  "internalType": "uint8",
                  "name": "row",
                  "type": "uint8"
                },
                {
                  "internalType": "uint8",
                  "name": "col",
                  "type": "uint8"
                }
              ],
              "internalType": "struct BCTypes.Position",
              "name": "position",
              "type": "tuple"
            },
            {
              "components": [
                {
                  "internalType": "uint8",
                  "name": "row",
                  "type": "uint8"
                },
                {
                  "internalType": "uint8",
                  "name": "col",
                  "type": "uint8"
                }
              ],
              "internalType": "struct BCTypes.Position",
              "name": "lastPos",
              "type": "tuple"
            },
            {
              "internalType": "int8",
              "name": "healthDmgTaken",
              "type": "int8"
            },
            {
              "internalType": "uint8",
              "name": "armorDmgTaken",
              "type": "uint8"
            },
            {
              "internalType": "uint8",
              "name": "actionsTaken",
              "type": "uint8"
            },
            {
              "internalType": "uint8",
              "name": "dataTokens",
              "type": "uint8"
            },
            {
              "internalType": "uint8[]",
              "name": "currentEffects",
              "type": "uint8[]"
            },
            {
              "internalType": "uint8",
              "name": "numItemsHeld",
              "type": "uint8"
            },
            {
              "internalType": "bool",
              "name": "dead",
              "type": "bool"
            },
            {
              "internalType": "uint256",
              "name": "gameId",
              "type": "uint256"
            }
          ],
          "internalType": "struct BCTypes.Player[]",
          "name": "",
          "type": "tuple[]"
        }
      ],
      "stateMutability": "view",
      "type": "function"
    },
    {
      "inputs": [
        {
          "internalType": "uint256",
          "name": "_gameId",
          "type": "uint256"
        },
        {
          "components": [
            {
              "internalType": "uint8",
              "name": "row",
              "type": "uint8"
            },
            {
              "internalType": "uint8",
              "name": "col",
              "type": "uint8"
            }
          ],
          "internalType": "struct BCTypes.Position",
          "name": "_position",
          "type": "tuple"
        },
        {
          "internalType": "uint256",
          "name": "_playerId",
          "type": "uint256"
        }
      ],
      "name": "extMovePlayer",
      "outputs": [],
      "stateMutability": "nonpayable",
      "type": "function"
    },
    {
      "inputs": [
        {
          "internalType": "uint256",
          "name": "_gameId",
          "type": "uint256"
        }
      ],
      "name": "forceNextTurn",
      "outputs": [],
      "stateMutability": "nonpayable",
      "type": "function"
    },
    {
      "inputs": [
        {
          "internalType": "uint256",
          "name": "",
          "type": "uint256"
        }
      ],
      "name": "games",
      "outputs": [
        {
          "internalType": "bool",
          "name": "active",
          "type": "bool"
        },
        {
          "internalType": "bool",
          "name": "denizenTurn",
          "type": "bool"
        },
        {
          "internalType": "uint256",
          "name": "gameId",
          "type": "uint256"
        },
        {
          "internalType": "uint256",
          "name": "currentPlayerTurnIndex",
          "type": "uint256"
        },
        {
          "internalType": "uint256",
          "name": "numPlayers",
          "type": "uint256"
        },
        {
          "internalType": "uint256",
          "name": "turnsTaken",
          "type": "uint256"
        },
        {
          "components": [
            {
              "internalType": "uint8",
              "name": "bugEvents",
              "type": "uint8"
            },
            {
              "internalType": "uint8",
              "name": "mysteryEvents",
              "type": "uint8"
            },
            {
              "internalType": "uint8",
              "name": "scavEvents",
              "type": "uint8"
            },
            {
              "internalType": "uint8",
              "name": "shipEvents",
              "type": "uint8"
            }
          ],
          "internalType": "struct BCTypes.EventTracker",
          "name": "eventTracker",
          "type": "tuple"
        },
        {
          "internalType": "uint256",
          "name": "mapId",
          "type": "uint256"
        },
        {
          "internalType": "uint256",
          "name": "eventPlayerId",
          "type": "uint256"
        },
        {
          "internalType": "uint256",
          "name": "eventNumber",
          "type": "uint256"
        },
        {
          "internalType": "enum BCTypes.BCEventType",
          "name": "eventType",
          "type": "uint8"
        },
        {
          "components": [
            {
              "internalType": "uint8",
              "name": "row",
              "type": "uint8"
            },
            {
              "internalType": "uint8",
              "name": "col",
              "type": "uint8"
            }
          ],
          "internalType": "struct BCTypes.Position",
          "name": "eventPosition",
          "type": "tuple"
        },
        {
          "internalType": "uint256",
          "name": "turnTimeLimit",
          "type": "uint256"
        },
        {
          "internalType": "uint256",
          "name": "lastTurnTimestamp",
          "type": "uint256"
        }
      ],
      "stateMutability": "view",
      "type": "function"
    },
    {
      "inputs": [
        {
          "internalType": "uint256",
          "name": "_gameId",
          "type": "uint256"
        }
      ],
      "name": "getDenizensInGame",
      "outputs": [
        {
          "components": [
            {
              "internalType": "uint256",
              "name": "id",
              "type": "uint256"
            },
            {
              "internalType": "uint256",
              "name": "gameId",
              "type": "uint256"
            },
            {
              "internalType": "enum BCTypes.DenizenType",
              "name": "denizenType",
              "type": "uint8"
            },
            {
              "components": [
                {
                  "internalType": "uint8",
                  "name": "row",
                  "type": "uint8"
                },
                {
                  "internalType": "uint8",
                  "name": "col",
                  "type": "uint8"
                }
              ],
              "internalType": "struct BCTypes.Position",
              "name": "position",
              "type": "tuple"
            },
            {
              "internalType": "uint256",
              "name": "healthRemaining",
              "type": "uint256"
            },
            {
              "internalType": "bool",
              "name": "looted",
              "type": "bool"
            }
          ],
          "internalType": "struct BCTypes.Denizen[]",
          "name": "",
          "type": "tuple[]"
        }
      ],
      "stateMutability": "view",
      "type": "function"
    },
    {
      "inputs": [
        {
          "components": [
            {
              "internalType": "uint8",
              "name": "row",
              "type": "uint8"
            },
            {
              "internalType": "uint8",
              "name": "col",
              "type": "uint8"
            }
          ],
          "internalType": "struct BCTypes.Position",
          "name": "_firstRoom",
          "type": "tuple"
        },
        {
          "components": [
            {
              "internalType": "uint8",
              "name": "row",
              "type": "uint8"
            },
            {
              "internalType": "uint8",
              "name": "col",
              "type": "uint8"
            }
          ],
          "internalType": "struct BCTypes.Position",
          "name": "_secondRoom",
          "type": "tuple"
        }
      ],
      "name": "getDirectionBetween",
      "outputs": [
        {
          "internalType": "uint256",
          "name": "",
          "type": "uint256"
        }
      ],
      "stateMutability": "pure",
      "type": "function"
    },
    {
      "inputs": [
        {
          "internalType": "uint256",
          "name": "_gameId",
          "type": "uint256"
        }
      ],
      "name": "getEventBlocks",
      "outputs": [
        {
          "internalType": "uint256[]",
          "name": "",
          "type": "uint256[]"
        }
      ],
      "stateMutability": "view",
      "type": "function"
    },
    {
      "inputs": [
        {
          "internalType": "uint256",
          "name": "_direction",
          "type": "uint256"
        },
        {
          "components": [
            {
              "internalType": "uint8",
              "name": "row",
              "type": "uint8"
            },
            {
              "internalType": "uint8",
              "name": "col",
              "type": "uint8"
            }
          ],
          "internalType": "struct BCTypes.Position",
          "name": "_start",
          "type": "tuple"
        }
      ],
      "name": "getNeighborRoom",
      "outputs": [
        {
          "components": [
            {
              "internalType": "uint8",
              "name": "row",
              "type": "uint8"
            },
            {
              "internalType": "uint8",
              "name": "col",
              "type": "uint8"
            }
          ],
          "internalType": "struct BCTypes.Position",
          "name": "",
          "type": "tuple"
        }
      ],
      "stateMutability": "pure",
      "type": "function"
    },
    {
      "inputs": [
        {
          "internalType": "uint256",
          "name": "_traitNum",
          "type": "uint256"
        },
        {
          "internalType": "uint256",
          "name": "_subTraitNum",
          "type": "uint256"
        }
      ],
      "name": "getUIOffset",
      "outputs": [
        {
          "internalType": "uint256",
          "name": "",
          "type": "uint256"
        }
      ],
      "stateMutability": "pure",
      "type": "function"
    },
    {
      "inputs": [],
      "name": "items",
      "outputs": [
        {
          "internalType": "contract ItemsInterface",
          "name": "",
          "type": "address"
        }
      ],
      "stateMutability": "view",
      "type": "function"
    },
    {
      "inputs": [
        {
          "internalType": "uint256",
          "name": "_gameId",
          "type": "uint256"
        },
        {
          "internalType": "uint256",
          "name": "_playerId",
          "type": "uint256"
        },
        {
          "internalType": "uint256",
          "name": "_charId",
          "type": "uint256"
        },
        {
          "internalType": "uint256",
          "name": "_currentPlayerTurnIndex",
          "type": "uint256"
        }
      ],
      "name": "leaveGame",
      "outputs": [],
      "stateMutability": "nonpayable",
      "type": "function"
    },
    {
      "inputs": [],
      "name": "lobbiesAddress",
      "outputs": [
        {
          "internalType": "address",
          "name": "",
          "type": "address"
        }
      ],
      "stateMutability": "view",
      "type": "function"
    },
    {
      "inputs": [
        {
          "components": [
            {
              "internalType": "uint8",
              "name": "row",
              "type": "uint8"
            },
            {
              "internalType": "uint8",
              "name": "col",
              "type": "uint8"
            }
          ],
          "internalType": "struct BCTypes.Position",
          "name": "_pos1",
          "type": "tuple"
        },
        {
          "components": [
            {
              "internalType": "uint8",
              "name": "row",
              "type": "uint8"
            },
            {
              "internalType": "uint8",
              "name": "col",
              "type": "uint8"
            }
          ],
          "internalType": "struct BCTypes.Position",
          "name": "_pos2",
          "type": "tuple"
        }
      ],
      "name": "manhattanDistance",
      "outputs": [
        {
          "internalType": "uint256",
          "name": "",
          "type": "uint256"
        }
      ],
      "stateMutability": "pure",
      "type": "function"
    },
    {
      "inputs": [],
      "name": "maps",
      "outputs": [
        {
          "internalType": "contract MapInterface",
          "name": "",
          "type": "address"
        }
      ],
      "stateMutability": "view",
      "type": "function"
    },
    {
      "inputs": [
        {
          "internalType": "uint256",
          "name": "_min",
          "type": "uint256"
        },
        {
          "internalType": "uint256",
          "name": "_max",
          "type": "uint256"
        },
        {
          "internalType": "uint256",
          "name": "_val",
          "type": "uint256"
        },
        {
          "internalType": "uint256",
          "name": "_valMax",
          "type": "uint256"
        }
      ],
      "name": "normalizeToSmallRange",
      "outputs": [
        {
          "internalType": "uint8",
          "name": "",
          "type": "uint8"
        }
      ],
      "stateMutability": "pure",
      "type": "function"
    },
    {
      "inputs": [
        {
          "internalType": "uint256",
          "name": "_direction",
          "type": "uint256"
        }
      ],
      "name": "opposite",
      "outputs": [
        {
          "internalType": "uint256",
          "name": "",
          "type": "uint256"
        }
      ],
      "stateMutability": "pure",
      "type": "function"
    },
    {
      "inputs": [],
      "name": "owner",
      "outputs": [
        {
          "internalType": "address",
          "name": "",
          "type": "address"
        }
      ],
      "stateMutability": "view",
      "type": "function"
    },
    {
      "inputs": [],
      "name": "players",
      "outputs": [
        {
          "internalType": "contract PlayersInterface",
          "name": "",
          "type": "address"
        }
      ],
      "stateMutability": "view",
      "type": "function"
    },
    {
      "inputs": [
        {
          "internalType": "uint256",
          "name": "_gameId",
          "type": "uint256"
        }
      ],
      "name": "processDenizenMoves",
      "outputs": [],
      "stateMutability": "nonpayable",
      "type": "function"
    },
    {
      "inputs": [],
      "name": "randKeccak",
      "outputs": [
        {
          "internalType": "bytes32",
          "name": "",
          "type": "bytes32"
        }
      ],
      "stateMutability": "nonpayable",
      "type": "function"
    },
    {
      "inputs": [],
      "name": "renounceOwnership",
      "outputs": [],
      "stateMutability": "nonpayable",
      "type": "function"
    },
    {
      "inputs": [
        {
          "internalType": "uint256",
          "name": "_gameId",
          "type": "uint256"
        },
        {
          "internalType": "uint256",
          "name": "_for",
          "type": "uint256"
        },
        {
          "internalType": "uint256",
          "name": "_against",
          "type": "uint256"
        }
      ],
      "name": "resolveChallenge",
      "outputs": [
        {
          "internalType": "bool",
          "name": "",
          "type": "bool"
        }
      ],
      "stateMutability": "nonpayable",
      "type": "function"
    },
    {
      "inputs": [
        {
          "internalType": "uint256",
          "name": "_gameId",
          "type": "uint256"
        },
        {
          "internalType": "uint256",
          "name": "_choice",
          "type": "uint256"
        }
      ],
      "name": "resolveEvent",
      "outputs": [],
      "stateMutability": "nonpayable",
      "type": "function"
    },
    {
      "inputs": [
        {
          "internalType": "uint256",
          "name": "_gameId",
          "type": "uint256"
        }
      ],
      "name": "roll",
      "outputs": [
        {
          "internalType": "uint256",
          "name": "",
          "type": "uint256"
        }
      ],
      "stateMutability": "nonpayable",
      "type": "function"
    },
    {
      "inputs": [
        {
          "internalType": "address",
          "name": "_charAddress",
          "type": "address"
        },
        {
          "internalType": "address",
          "name": "_mapsAddress",
          "type": "address"
        },
        {
          "internalType": "address",
          "name": "_lobbiesAddress",
          "type": "address"
        },
        {
          "internalType": "address",
          "name": "_actionsAddress",
          "type": "address"
        },
        {
          "internalType": "address",
          "name": "_eventsAddress",
          "type": "address"
        },
        {
          "internalType": "address",
          "name": "_itemsAddress",
          "type": "address"
        },
        {
          "internalType": "address",
          "name": "_playersAddress",
          "type": "address"
        },
        {
          "internalType": "address",
          "name": "_denizensAddress",
          "type": "address"
        }
      ],
      "name": "setContractAddresses",
      "outputs": [],
      "stateMutability": "nonpayable",
      "type": "function"
    },
    {
      "inputs": [
        {
          "internalType": "bytes32",
          "name": "_hash",
          "type": "bytes32"
        },
        {
          "internalType": "uint256",
          "name": "_size",
          "type": "uint256"
        },
        {
          "internalType": "uint256",
          "name": "_offset",
          "type": "uint256"
        }
      ],
      "name": "sliceHashToSmallInt",
      "outputs": [
        {
          "internalType": "uint8",
          "name": "",
          "type": "uint8"
        }
      ],
      "stateMutability": "pure",
      "type": "function"
    },
    {
      "inputs": [
        {
          "internalType": "uint8",
          "name": "_min",
          "type": "uint8"
        },
        {
          "internalType": "uint8",
          "name": "_max",
          "type": "uint8"
        }
      ],
      "name": "smallIntBetweenVals",
      "outputs": [
        {
          "internalType": "uint8",
          "name": "",
          "type": "uint8"
        }
      ],
      "stateMutability": "nonpayable",
      "type": "function"
    },
    {
      "inputs": [
        {
          "internalType": "uint256[]",
          "name": "_playerIndexes",
          "type": "uint256[]"
        },
        {
          "internalType": "uint256",
          "name": "_numPlayers",
          "type": "uint256"
        },
        {
          "internalType": "uint256",
          "name": "_debugRoomId",
          "type": "uint256"
        }
      ],
      "name": "startGame",
      "outputs": [
        {
          "internalType": "uint256",
          "name": "",
          "type": "uint256"
        }
      ],
      "stateMutability": "nonpayable",
      "type": "function"
    },
    {
      "inputs": [
        {
          "internalType": "address",
          "name": "newOwner",
          "type": "address"
        }
      ],
      "name": "transferOwnership",
      "outputs": [],
      "stateMutability": "nonpayable",
      "type": "function"
    }
  ],
  "transactionHash": "0x86ee21cb1c33fe408e8cf6ae6a73bfd882fade92a88ba9490aa57a8b0c316ba5",
  "args": [],
  "numDeployments": 1,
  "solcInputHash": "8e62aa6b1707c53c9703dcb35914ce55",
  "bytecode": "0x600060015560c0604052600a608052600660a052600c805461ffff191661060a1790553480156200002f57600080fd5b506200003b336200004d565b600d805460010181556000526200009d565b600080546001600160a01b038381166001600160a01b0319831681178455604051919092169283917f8be0079c531659141344cd1fd0a4f28419497f9722a3daafe3b4186f6b6457e09190a35050565b61542f80620000ad6000396000f3fe608060405234801561001057600080fd5b506004361061027f5760003560e01c80637b45c0d41161015c578063afd62bb2116100ce578063dc769ee811610087578063dc769ee81461060e578063ed9067fa1461063e578063f101de9a14610651578063f10bff2b14610664578063f2fde38b14610677578063fa3993c21461068a57600080fd5b8063afd62bb214610575578063b26d339514610595578063c06fad06146105b5578063ce28613f146105c8578063d8a03082146105db578063dc0b3564146105fb57600080fd5b8063921d279911610120578063921d2799146104f6578063951fc3fe1461050957806397f34c3f146105295780639fca1ee11461053c578063a99d2a8b1461054f578063aa6e80301461056257600080fd5b80637b45c0d4146104995780637ddae103146104ac5780638214f222146104bf5780638bf52bc3146104d25780638da5cb5b146104e557600080fd5b806340d4fd78116101f557806364db84bf116101b957806364db84bf1461041857806364f664671461042b5780636fe99c181461043e578063715018a61461045e57806371fa32361461046657806372f5a2531461048657600080fd5b806340d4fd78146103a257806346f2434b146103b557806353011696146103bd57806354731422146103e25780635dc96967146103f557600080fd5b80631cef40f6116102475780631cef40f61461033b5780631e1de2051461034e5780631f7b4f3014610356578063336d7d7b146103695780633deaec2b1461037c5780633f090e3d1461038f57600080fd5b80630e73c0241461028457806310a2cd0d146102ad578063117a5b90146102d857806317514225146103055780631b5ac4b51461031a575b600080fd5b610297610292366004613c02565b61069d565b6040516102a49190613c56565b60405180910390f35b6003546102c0906001600160a01b031681565b6040516001600160a01b0390911681526020016102a4565b6102eb6102e6366004613c02565b6106bd565b6040516102a49e9d9c9b9a99989796959493929190613c93565b610318610313366004613e9e565b610793565b005b61032d610328366004613c02565b6107d8565b6040519081526020016102a4565b610318610349366004613ee1565b6107f4565b61032d61092b565b61032d610364366004613c02565b6109a3565b6009546102c0906001600160a01b031681565b6004546102c0906001600160a01b031681565b61031861039d366004613f1e565b6109ff565b6102976103b0366004613c02565b610c41565b600d5461032d565b6103d06103cb366004613f1e565b610d32565b60405160ff90911681526020016102a4565b6103186103f0366004613c02565b610d6f565b610408610403366004613f50565b610e62565b60405190151581526020016102a4565b61032d610426366004613f7c565b610eff565b610318610439366004613f7c565b610f17565b61045161044c366004613c02565b610ff5565b6040516102a49190614169565b6103186113b8565b610479610474366004613c02565b6113cc565b6040516102a49190614212565b6008546102c0906001600160a01b031681565b600b546102c0906001600160a01b031681565b6005546102c0906001600160a01b031681565b61032d6104cd366004613c02565b611541565b6103186104e036600461437d565b6115bb565b6000546001600160a01b03166102c0565b6103186105043660046143ce565b6115cf565b61051c610517366004614477565b611665565b6040516102a491906144a4565b6103d0610537366004613f50565b61178f565b600a546102c0906001600160a01b031681565b61032d61055d3660046144c2565b6117ba565b6103186105703660046144fc565b6117eb565b610588610583366004614535565b6118fb565b6040516102a49190614552565b6105a86105a3366004613c02565b611d91565b6040516102a491906145b4565b6006546102c0906001600160a01b031681565b6103d06105d6366004614672565b611f03565b6105ee6105e9366004613c02565b611fb3565b6040516102a491906146bb565b6007546102c0906001600160a01b031681565b600c546106249060ff8082169161010090041682565b6040805160ff9384168152929091166020830152016102a4565b61031861064c366004613c02565b61204f565b61032d61065f366004614769565b61213e565b61032d61067236600461480e565b612711565b610318610685366004614535565b61275e565b61032d61069836600461480e565b6127d7565b60008181526002602052604090206060906106b79061289f565b92915050565b600d81815481106106cd57600080fd5b60009182526020918290206014909102018054600182015460048301546005840154600685015460408051608081018252600788015460ff81811683526101008083048216848d015262010000830482168486015263010000009092048116606084015260088a015460098b0154600a8c0154600b8d01548751808901909852600c8e0154808616895286900485169e88019e909e5260118d01546012909d0154848d169f5094909b0483169c999b989a9799969894979196909591949216929091908e565b600b546001600160a01b031633146107c65760405162461bcd60e51b81526004016107bd9061483a565b60405180910390fd5b6107d383838360006128ac565b505050565b6000808212156107f0576107eb8261487e565b6106b7565b5090565b600c5460ff16821480156108115750600c54610100900460ff1681145b610925576007546001600160a01b031633146108665760405162461bcd60e51b8152602060048201526014602482015273139bdd081c1b185e595c9cc818dbdb9d1c9858dd60621b60448201526064016107bd565b6000600d858154811061087b5761087b61489a565b60009182526020909120600854604051630e77a07b60e11b81526014909302909101925060138301916001600160a01b0390911690631cef40f6906108ca9089908990899089906004016148b0565b6020604051808303816000875af11580156108e9573d6000803e3d6000fd5b505050506040513d601f19601f8201168201806040525081019061090d91906148d6565b81546001810183556000928352602090922090910155505b50505050565b600180546000918261093c836148ef565b91905055506001546001436109519190614908565b403360405160200161098893929190928352602083019190915260601b6bffffffffffffffffffffffff1916604082015260540190565b60405160208183030381529060405280519060200120905090565b6000806109b260016006611f03565b60ff1690507ffe34d093a460a16ee5fb374540914d1c734a17502c0c1a87b387c8d6097e1c5183826040516109f1929190918252602082015260400190565b60405180910390a192915050565b600b546001600160a01b03163314610a295760405162461bcd60e51b81526004016107bd9061483a565b6000600d8581548110610a3e57610a3e61489a565b60009182526020909120600654604051635f87260160e01b81526004810188905260248101899052601490930290910192506001600160a01b031690635f87260190604401600060405180830381600087803b158015610a9d57600080fd5b505af1158015610ab1573d6000803e3d6000fd5b5050600354604051631ff77ac560e11b8152600481018790526001600160a01b039091169250633feef58a9150602401600060405180830381600087803b158015610afb57600080fd5b505af1158015610b0f573d6000803e3d6000fd5b505050600282015460009150610b2790600190614908565b6001600160401b03811115610b3e57610b3e613d55565b604051908082528060200260200182016040528015610b67578160200160208202803683370190505b5090506000805b6002840154811015610bde57808514610bcc57836002018181548110610b9657610b9661489a565b9060005260206000200154838381518110610bb357610bb361489a565b602090810291909101015281610bc8816148ef565b9250505b80610bd6816148ef565b915050610b6e565b508151610bf4906002850190602085019061393b565b50600583018054906000610c078361491b565b90915550506002830154600484015403610c2357600060048401555b6002830154600003610c3857825460ff191683555b50505050505050565b60606000600d8381548110610c5857610c5861489a565b9060005260206000209060140201600201805490506001600160401b03811115610c8457610c84613d55565b604051908082528060200260200182016040528015610cad578160200160208202803683370190505b50905060005b8151811015610d2b57600d8481548110610ccf57610ccf61489a565b90600052602060002090601402016002018181548110610cf157610cf161489a565b9060005260206000200154828281518110610d0e57610d0e61489a565b602090810291909101015280610d23816148ef565b915050610cb3565b5092915050565b600080610d3f8686614908565b9050600083610d4e8684614932565b610d58919061495f565b9050610d648782614973565b979650505050505050565b6000600d8281548110610d8457610d8461489a565b600091825260209091206014909102018054909150610100900460ff161515600103610dc357604051633ae1755360e21b815260040160405180910390fd5b6002810154600103610de85760405163015b385160e41b815260040160405180910390fd5b80601101548160120154610dfc9190614973565b421015610e1c57604051630df3377b60e31b815260040160405180910390fd5b600a81015415610e3157610e3182600061328b565b610e5e8282600201836004015481548110610e4e57610e4e61489a565b9060005260206000200154613355565b5050565b600080610e6e856109a3565b6040805187815260208101839052908101869052606081018590529091507f75b6a8325595f91135e07382840634226793c68c9e59623da7e10d7ad3d95b959060800160405180910390a180600103610ecb576000915050610ef8565b600383610ed88684614973565b610ee29190614986565b1315610ef2576001915050610ef8565b60009150505b9392505050565b600081610f0d846004614932565b610ef89190614973565b6000600d8381548110610f2c57610f2c61489a565b600091825260209091206007546014909202016009810154604051636621a42160e01b815260048101919091529092506001600160a01b0390911690636621a42190602401602060405180830381865afa158015610f8e573d6000803e3d6000fd5b505050506040513d601f19601f82011682018060405250810190610fb291906149b6565b6001600160a01b0316336001600160a01b031614610feb578060090154604051637111468960e11b81526004016107bd91815260200190565b6107d3838361328b565b610ffd613982565b600d82815481106110105761101061489a565b6000918252602091829020604080516102a0810182526014909302909101805460ff80821615158552610100909104161515838501526001810154838301526002810180548351818702810187019094528084529394919360608601939283018282801561109d57602002820191906000526020600020905b815481526020019060010190808311611089575b50505050508152602001600382018054806020026020016040519081016040528092919081815260200182805480156110f557602002820191906000526020600020905b8154815260200190600101908083116110e1575b505050918352505060048201546020808301919091526005808401546040808501919091526006850154606080860191909152815160808181018452600788015460ff80821684526101008083048216988501989098526201000082048116958401959095526301000000900484169282019290925290850152600885015460a0850152600985015460c0850152600a85015460e0850152600b850154929093019291909116908111156111ab576111ab613c69565b60058111156111bc576111bc613c69565b8152604080518082018252600c84015460ff80821683526101009091041660208281019190915280840191909152600d8401805483518184028101840185528181529390940193909183018282801561123457602002820191906000526020600020905b815481526020019060010190808311611220575b50505050508152602001600e820180548060200260200160405190810160405280929190818152602001828054801561128c57602002820191906000526020600020905b815481526020019060010190808311611278575b50505050508152602001600f82018054806020026020016040519081016040528092919081815260200182805480156112e457602002820191906000526020600020905b8154815260200190600101908083116112d0575b505050505081526020016010820180548060200260200160405190810160405280929190818152602001828054801561133c57602002820191906000526020600020905b815481526020019060010190808311611328575b505050505081526020016011820154815260200160128201548152602001601382018054806020026020016040519081016040528092919081815260200182805480156113a857602002820191906000526020600020905b815481526020019060010190808311611394575b5050505050815250509050919050565b6113c0613432565b6113ca600061348c565b565b60606000600d83815481106113e3576113e361489a565b9060005260206000209060140201600201805490506001600160401b0381111561140f5761140f613d55565b60405190808252806020026020018201604052801561144857816020015b611435613a8d565b81526020019060019003908161142d5790505b50905060005b8151811015610d2b57600754600d80546001600160a01b03909216916310f67fb39190879081106114815761148161489a565b906000526020600020906014020160020183815481106114a3576114a361489a565b90600052602060002001546040518263ffffffff1660e01b81526004016114cc91815260200190565b600060405180830381865afa1580156114e9573d6000803e3d6000fd5b505050506040513d6000823e601f3d908101601f191682016040526115119190810190614b69565b8282815181106115235761152361489a565b60200260200101819052508080611539906148ef565b91505061144e565b60008160000361155357506001919050565b8160010361156357506000919050565b8160020361157357506003919050565b8160030361158357506002919050565b60405162461bcd60e51b815260206004820152600d60248201526c2130b2103234b932b1ba34b7b760991b60448201526064016107bd565b6115c3613432565b610925848484846128ac565b6115d7613432565b600380546001600160a01b03199081166001600160a01b039a8b1617909155600480548216988a169890981790975560098054881696891696909617909555600b805487169488169490941790935560058054861692871692909217909155600680548516918616919091179055600780548416918516919091179055600880549092169216919091179055565b6040805180820190915260008082526020820152826000036116b75760405180604001604052806001846000015161169d9190614cb4565b60ff168152602001836020015160ff1681525090506106b7565b826001036116db5760405180604001604052808360000151600161169d9190614ccd565b82600203611718576040518060400160405280836000015160ff1681526020018360200151600161170c9190614ccd565b60ff16905290506106b7565b82600303611749576040518060400160405280836000015160ff1681526020016001846020015161170c9190614cb4565b6000611754846134dc565b6040516020016117649190614d0a565b60405160208183030381529060405290508060405162461bcd60e51b81526004016107bd9190614d45565b6000808260016117a0866002614e5c565b6117aa9190614908565b901b8516831c9150509392505050565b600e60205281600052604060002081815481106117d657600080fd5b90600052602060002001600091509150505481565b600b546001600160a01b031633146118155760405162461bcd60e51b81526004016107bd9061483a565b806118795760075460405163ce93229760e01b8152600481018490526001600160a01b039091169063ce93229790602401600060405180830381600087803b15801561186057600080fd5b505af1158015611874573d6000803e3d6000fd5b505050505b6007546040516347d0e3c960e01b8152600481018490526000916001600160a01b0316906347d0e3c990602401602060405180830381865afa1580156118c3573d6000803e3d6000fd5b505050506040513d601f19601f820116820180604052508101906118e791906148d6565b905060038110610925576109258484613355565b6001600160a01b0381166000908152600e6020526040812054606091906001600160401b0381111561192f5761192f613d55565b60405190808252806020026020018201604052801561196857816020015b611955613982565b81526020019060019003908161194d5790505b50905060005b8151811015610d2b576001600160a01b0384166000908152600e602052604090208054600d9190839081106119a5576119a561489a565b9060005260206000200154815481106119c0576119c061489a565b6000918252602091829020604080516102a0810182526014909302909101805460ff808216151585526101009091041615158385015260018101548383015260028101805483518187028101870190945280845293949193606086019392830182828015611a4d57602002820191906000526020600020905b815481526020019060010190808311611a39575b5050505050815260200160038201805480602002602001604051908101604052809291908181526020018280548015611aa557602002820191906000526020600020905b815481526020019060010190808311611a91575b505050918352505060048201546020808301919091526005808401546040808501919091526006850154606080860191909152815160808181018452600788015460ff80821684526101008083048216988501989098526201000082048116958401959095526301000000900484169282019290925290850152600885015460a0850152600985015460c0850152600a85015460e0850152600b85015492909301929190911690811115611b5b57611b5b613c69565b6005811115611b6c57611b6c613c69565b8152604080518082018252600c84015460ff80821683526101009091041660208281019190915280840191909152600d84018054835181840281018401855281815293909401939091830182828015611be457602002820191906000526020600020905b815481526020019060010190808311611bd0575b50505050508152602001600e8201805480602002602001604051908101604052809291908181526020018280548015611c3c57602002820191906000526020600020905b815481526020019060010190808311611c28575b50505050508152602001600f8201805480602002602001604051908101604052809291908181526020018280548015611c9457602002820191906000526020600020905b815481526020019060010190808311611c80575b5050505050815260200160108201805480602002602001604051908101604052809291908181526020018280548015611cec57602002820191906000526020600020905b815481526020019060010190808311611cd8575b50505050508152602001601182015481526020016012820154815260200160138201805480602002602001604051908101604052809291908181526020018280548015611d5857602002820191906000526020600020905b815481526020019060010190808311611d44575b505050505081525050828281518110611d7357611d7361489a565b60200260200101819052508080611d89906148ef565b91505061196e565b60606000600d8381548110611da857611da861489a565b9060005260206000209060140201600301805490506001600160401b03811115611dd457611dd4613d55565b604051908082528060200260200182016040528015611e0d57816020015b611dfa613b4d565b815260200190600190039081611df25790505b50905060005b8151811015610d2b57600354600d80546001600160a01b0390921691634810bc59919087908110611e4657611e4661489a565b90600052602060002090601402016003018381548110611e6857611e6861489a565b90600052602060002001546040518263ffffffff1660e01b8152600401611e9191815260200190565b61022060405180830381865afa158015611eaf573d6000803e3d6000fd5b505050506040513d601f19601f82011682018060405250810190611ed39190614e68565b828281518110611ee557611ee561489a565b60200260200101819052508080611efb906148ef565b915050611e13565b6001805460009182611f14836148ef565b9190505550600033600154600143611f2c9190614908565b60405160609390931b6bffffffffffffffffffffffff19166020840152603483019190915240605482015260740160408051601f19818403018152919052805160209091012090506000611f808585614cb4565b611f8b906001614ccd565b90508460ff168160ff1683611fa09190614f1c565b611faa9190614973565b95945050505050565b600854600d80546060926001600160a01b031691633362ec729185908110611fdd57611fdd61489a565b90600052602060002090601402016013016040518263ffffffff1660e01b815260040161200a9190614f65565b600060405180830381865afa158015612027573d6000803e3d6000fd5b505050506040513d6000823e601f3d908101601f191682016040526106b79190810190614f78565b6000600d82815481106120645761206461489a565b6000918252602090912060088054601490930290910190810154604051632224e7f360e11b81529193506001600160a01b0390921691634449cfe6916120b89186916002870190601388019060040161506d565b600060405180830381600087803b1580156120d257600080fd5b505af11580156120e6573d6000803e3d6000fd5b5050825461ff001916835550506040518281527f0b902bf94ea0561a1c7b03fed6f663a1ae180c3c6d92b1b529718058696a4c389060200160405180910390a160008281526002602052604090206107d390436135e4565b6009546000906001600160a01b031633146121905760405162461bcd60e51b8152602060048201526012602482015271139bdd081b1bd8989e4818dbdb9d1c9858dd60721b60448201526064016107bd565b600d80546001818101808455600093845260149092027fd7b6990105719101dabeb77144f2a3385c8033acd3af97e9423a695e81ad1eb50192916121d49190614908565b6001808401829055835460ff1916178355600060068401558651909150612204906002840190602089019061393b565b50600582018590556040805160808101825260008082526020820181905291810182905260600181905260078301805463ffffffff191690558490036122bb57600480546040805163780fe1ad60e11b815290516001600160a01b039092169263f01fc35a92828201926020929082900301816000875af115801561228d573d6000803e3d6000fd5b505050506040513d601f19601f820116820180604052508101906122b191906148d6565b600883015561232e565b6004805460405163148e052f60e21b81529182018690526001600160a01b03169063523814bc906024016020604051808303816000875af1158015612304573d6000803e3d6000fd5b505050506040513d601f19601f8201168201806040525081019061232891906148d6565b60088301555b60005b61233c600187614908565b811161257157600883015460408051808201909152600c5460ff808216835261010090910416602082015260028501805461239693929190859081106123845761238461489a565b906000526020600020015460006128ac565b60075487516000916001600160a01b031690636621a421908a90859081106123c0576123c061489a565b60200260200101516040518263ffffffff1660e01b81526004016123e691815260200190565b602060405180830381865afa158015612403573d6000803e3d6000fd5b505050506040513d601f19601f8201168201806040525081019061242791906149b6565b6001600160a01b038082166000908152600e6020908152604082208054600181018255908352908220018690556007548b5193945090929116906373e4195c908b90869081106124795761247961489a565b60200260200101516040518263ffffffff1660e01b815260040161249f91815260200190565b602060405180830381865afa1580156124bc573d6000803e3d6000fd5b505050506040513d601f19601f820116820180604052508101906124e091906148d6565b60035460405163b60b9fcb60e01b815260048101879052602481018390529192506001600160a01b03169063b60b9fcb90604401600060405180830381600087803b15801561252e57600080fd5b505af1158015612542573d6000803e3d6000fd5b505050506003850180546001810182556000918252602090912001555080612569816148ef565b915050612331565b5060075460405163e7169ec560e01b81526001600160a01b039091169063e7169ec5906125a4908990859060040161509e565b600060405180830381600087803b1580156125be57600080fd5b505af11580156125d2573d6000803e3d6000fd5b5050600654604051633b09709560e21b81526001600160a01b03909116925063ec25c25491506126089084908a906004016150c0565b600060405180830381600087803b15801561262257600080fd5b505af1158015612636573d6000803e3d6000fd5b505050506000604051806101e00160405280600181526020016002815260200160038152602001600481526020016005815260200160068152602001600781526020016008815260200160098152602001600a8152602001600b8152602001600c8152602001600d8152602001600e8152602001600f81525090508083600d0190600f6126c492919061393b565b506126d4600e840182600f61393b565b506126e5600f80850190839061393b565b506126f56010840182600f61393b565b505061012c601183015542601290920191909155949350505050565b600080612731836000015160000b856000015160000b6103289190614986565b90506000612752846020015160000b866020015160000b6103289190614986565b9050611faa8183614973565b612766613432565b6001600160a01b0381166127cb5760405162461bcd60e51b815260206004820152602660248201527f4f776e61626c653a206e6577206f776e657220697320746865207a65726f206160448201526564647265737360d01b60648201526084016107bd565b6127d48161348c565b50565b805182516000916127e7916150d9565b60000b6001036127f9575060006106b7565b8151835161280791906150d9565b60000b19612817575060016106b7565b8160200151836020015161282b91906150d9565b60000b1961283b575060026106b7565b8160200151836020015161284f91906150d9565b60000b600103612861575060036106b7565b60405162461bcd60e51b8152602060048201526013602482015272115c9c9bdc8e88139bdd0818591a9858d95b9d606a1b60448201526064016107bd565b60606000610ef8836135f0565b6000600d85815481106128c1576128c161489a565b90600052602060002090601402019050806002016000815481106128e7576128e761489a565b906000526020600020015483141580156129215750806002016001815481106129125761291261489a565b90600052602060002001548314155b801561294d57508060020160028154811061293e5761293e61489a565b90600052602060002001548314155b801561297957508060020160038154811061296a5761296a61489a565b90600052602060002001548314155b156129a15760405163013eacb560e01b815260048101869052602481018490526044016107bd565b600754600d80546001600160a01b0390921691638d491b3e9187918791908a9081106129cf576129cf61489a565b9060005260206000209060140201600801546040518463ffffffff1660e01b81526004016129ff939291906150fa565b6020604051808303816000875af1158015612a1e573d6000803e3d6000fd5b505050506040513d601f19601f82011682018060405250810190612a429190615129565b61328457600454600d80546000926001600160a01b0316916381bad36d9189908110612a7057612a7061489a565b90600052602060002090601402016008015487600001518860200151876040518563ffffffff1660e01b8152600401612ac6949392919093845260ff928316602085015291166040830152606082015260800190565b6020604051808303816000875af1158015612ae5573d6000803e3d6000fd5b505050506040513d601f19601f82011682018060405250810190612b0991906148d6565b600454600d80549293506000926001600160a01b0390921691635805828391908a908110612b3957612b3961489a565b906000526020600020906014020160080154846040518363ffffffff1660e01b8152600401612b72929190918252602082015260400190565b60a060405180830381865afa158015612b8f573d6000803e3d6000fd5b505050506040513d601f19601f82011682018060405250810190612bb39190615146565b9050600282118015612bd85750600081516005811115612bd557612bd5613c69565b14155b15610c3857600181516005811115612bf257612bf2613c69565b03612c4557600d8781548110612c0a57612c0a61489a565b600091825260208220600760149092020101805460ff1691612c2b836151d8565b91906101000a81548160ff021916908360ff160217905550505b600281516005811115612c5a57612c5a613c69565b03612cb557600d8781548110612c7257612c7261489a565b600091825260209091206014909102016007018054610100900460ff16906001612c9b836151d8565b91906101000a81548160ff021916908360ff160217905550505b600381516005811115612cca57612cca613c69565b03612d2657600d8781548110612ce257612ce261489a565b60009182526020909120601490910201600701805462010000900460ff16906002612d0c836151d8565b91906101000a81548160ff021916908360ff160217905550505b600481516005811115612d3b57612d3b613c69565b03612d9857600d8781548110612d5357612d5361489a565b6000918252602090912060149091020160070180546301000000900460ff16906003612d7e836151d8565b91906101000a81548160ff021916908360ff160217905550505b602081015115612f1857600554602082015160405163c82c37b960e01b815260048101919091526000916001600160a01b03169063c82c37b990602401600060405180830381865afa158015612df2573d6000803e3d6000fd5b505050506040513d6000823e601f3d908101601f19168201604052612e1a9190810190615284565b90508060200151612f125785600d8981548110612e3957612e3961489a565b9060005260206000209060140201600901819055508160200151600d8981548110612e6657612e6661489a565b9060005260206000209060140201600a01819055506005600d8981548110612e9057612e9061489a565b60009182526020909120600b60149092020101805460ff19166001836005811115612ebd57612ebd613c69565b021790555086600d8981548110612ed657612ed661489a565b60009182526020918290208351600c6014909302909101919091018054939092015160ff9081166101000261ffff199094169116179190911790555b50610c38565b600081516005811115612f2d57612f2d613c69565b14610c385784600d8881548110612f4657612f4661489a565b90600052602060002090601402016009018190555085600d8881548110612f6f57612f6f61489a565b60009182526020918290208351600c6014909302909101919091018054939092015160ff9081166101000261ffff19909416911617919091179055600181516005811115612fbf57612fbf613c69565b0361306057612ff0600d8881548110612fda57612fda61489a565b9060005260206000209060140201600d0161364c565b600d88815481106130035761300361489a565b9060005260206000209060140201600a01819055506001600d888154811061302d5761302d61489a565b60009182526020909120600b60149092020101805460ff1916600183600581111561305a5761305a613c69565b02179055505b60028151600581111561307557613075613c69565b03613116576130a6600d88815481106130905761309061489a565b9060005260206000209060140201600e0161364c565b600d88815481106130b9576130b961489a565b9060005260206000209060140201600a01819055506002600d88815481106130e3576130e361489a565b60009182526020909120600b60149092020101805460ff1916600183600581111561311057613110613c69565b02179055505b60038151600581111561312b5761312b613c69565b036131cc5761315c600d88815481106131465761314661489a565b9060005260206000209060140201600f0161364c565b600d888154811061316f5761316f61489a565b9060005260206000209060140201600a01819055506003600d88815481106131995761319961489a565b60009182526020909120600b60149092020101805460ff191660018360058111156131c6576131c6613c69565b02179055505b6004815160058111156131e1576131e1613c69565b03610c3857613212600d88815481106131fc576131fc61489a565b906000526020600020906014020160100161364c565b600d88815481106132255761322561489a565b9060005260206000209060140201600a01819055506004600d888154811061324f5761324f61489a565b60009182526020909120600b60149092020101805460ff1916600183600581111561327c5761327c613c69565b021790555050505b5050505050565b6000600d83815481106132a0576132a061489a565b6000918252602090912060075460149092020160098101546008820154600a830154600b840154604051636d291bbb60e01b81529496506001600160a01b0390951694636d291bbb9461330694899490938b939192600c8b019260ff1690600401615375565b600060405180830381600087803b15801561332057600080fd5b505af1158015613334573d6000803e3d6000fd5b5050600060098401819055600a8401555050600b01805460ff191690555050565b6000600d838154811061336a5761336a61489a565b6000918252602090912060075460405163065c363f60e41b815260048101869052601490930290910192506001600160a01b0316906365c363f090602401600060405180830381600087803b1580156133c257600080fd5b505af11580156133d6573d6000803e3d6000fd5b5050426012840155505060028101546133f190600190614908565b816004015410156134185760048101805490600061340e836148ef565b9190505550505050565b613426838260080154613772565b60006004820155505050565b6000546001600160a01b031633146113ca5760405162461bcd60e51b815260206004820181905260248201527f4f776e61626c653a2063616c6c6572206973206e6f7420746865206f776e657260448201526064016107bd565b600080546001600160a01b038381166001600160a01b0319831681178455604051919092169283917f8be0079c531659141344cd1fd0a4f28419497f9722a3daafe3b4186f6b6457e09190a35050565b6060816000036135035750506040805180820190915260018152600360fc1b602082015290565b8160005b811561352d5780613517816148ef565b91506135269050600a8361495f565b9150613507565b6000816001600160401b0381111561354757613547613d55565b6040519080825280601f01601f191660200182016040528015613571576020820181803683370190505b5090505b84156135dc57613586600183614908565b9150613593600a86614f1c565b61359e906030614973565b60f81b8183815181106135b3576135b361489a565b60200101906001600160f81b031916908160001a9053506135d5600a8661495f565b9450613575565b949350505050565b6000610ef883836138ec565b60608160000180548060200260200160405190810160405280929190818152602001828054801561364057602002820191906000526020600020905b81548152602001906001019080831161362c575b50505050509050919050565b8054600090819061365f90600190614908565b90505b801561370f576000613675600083611f03565b9050838160ff168154811061368c5761368c61489a565b90600052602060002001548483815481106136a9576136a961489a565b90600052602060002001548584815481106136c6576136c661489a565b906000526020600020016000878560ff16815481106136e7576136e761489a565b60009182526020909120019290925591909155508190506137078161491b565b915050613662565b508154600090839061372390600190614908565b815481106137335761373361489a565b9060005260206000200154905082805480613750576137506153ca565b600190038181906000526020600020016000905590558060ff16915050919050565b6000600d83815481106137875761378761489a565b906000526020600020906014020190508060060160008154809291906137ac906148ef565b909155505060048054604051630b06115560e31b81529182018490526001600160a01b0316906358308aa890602401600060405180830381600087803b1580156137f557600080fd5b505af1158015613809573d6000803e3d6000fd5b50506004805460405163c6b41b4560e01b8152918201869052600160248301526001600160a01b0316925063c6b41b459150604401600060405180830381600087803b15801561385857600080fd5b505af115801561386c573d6000803e3d6000fd5b5050600754600884015460405163668a7f3b60e01b81526001600160a01b03909216935063668a7f3b92506138a89160028601906004016153e0565b600060405180830381600087803b1580156138c257600080fd5b505af11580156138d6573d6000803e3d6000fd5b5050825461ff0019166101001790925550505050565b6000818152600183016020526040812054613933575081546001818101845560008481526020808220909301849055845484825282860190935260409020919091556106b7565b5060006106b7565b828054828255906000526020600020908101928215613976579160200282015b8281111561397657825182559160200191906001019061395b565b506107f0929150613ba9565b604051806102a00160405280600015158152602001600015158152602001600081526020016060815260200160608152602001600081526020016000815260200160008152602001613a016040518060800160405280600060ff168152602001600060ff168152602001600060ff168152602001600060ff1681525090565b815260200160008152602001600081526020016000815260200160006005811115613a2e57613a2e613c69565b8152602001613a566040518060400160405280600060ff168152602001600060ff1681525090565b8152602001606081526020016060815260200160608152602001606081526020016000815260200160008152602001606081525090565b604051806101c0016040528060006001600160a01b031681526020016000815260200160008152602001613abf613bbe565b8152602001613ae76040518060400160405280600060ff168152602001600060ff1681525090565b8152602001613b0f6040518060400160405280600060ff168152602001600060ff1681525090565b81526000602082018190526040820181905260608083018290526080830182905260a083015260c0820181905260e082018190526101009091015290565b604051806101400160405280600080191681526020016000815260200160008152602001613b79613bbe565b815260006020820181905260408201819052606082018190526080820181905260a0820181905260c09091015290565b5b808211156107f05760008155600101613baa565b6040805161010081018252600080825260208201819052918101829052606081018290526080810182905260a0810182905260c0810182905260e081019190915290565b600060208284031215613c1457600080fd5b5035919050565b600081518084526020808501945080840160005b83811015613c4b57815187529582019590820190600101613c2f565b509495945050505050565b602081526000610ef86020830184613c1b565b634e487b7160e01b600052602160045260246000fd5b60068110613c8f57613c8f613c69565b9052565b6000610240820190508f151582528e151560208301528d60408301528c60608301528b60808301528a60a0830152613cfb60c083018b60ff815116825260ff602082015116602083015260ff604082015116604083015260ff60608201511660608301525050565b886101408301528761016083015286610180830152613d1e6101a0830187613c7f565b845160ff9081166101c08401526020860151166101e083015261020082019390935261022001529c9b505050505050505050505050565b634e487b7160e01b600052604160045260246000fd5b604080519081016001600160401b0381118282101715613d8d57613d8d613d55565b60405290565b6040516101c081016001600160401b0381118282101715613d8d57613d8d613d55565b60405161014081016001600160401b0381118282101715613d8d57613d8d613d55565b60405160c081016001600160401b0381118282101715613d8d57613d8d613d55565b60405160e081016001600160401b0381118282101715613d8d57613d8d613d55565b604051601f8201601f191681016001600160401b0381118282101715613e4557613e45613d55565b604052919050565b60ff811681146127d457600080fd5b600060408284031215613e6e57600080fd5b613e76613d6b565b90508135613e8381613e4d565b81526020820135613e9381613e4d565b602082015292915050565b600080600060808486031215613eb357600080fd5b83359250613ec48560208601613e5c565b9150606084013590509250925092565b600981106127d457600080fd5b60008060008060808587031215613ef757600080fd5b843593506020850135613f0981613ed4565b93969395505050506040820135916060013590565b60008060008060808587031215613f3457600080fd5b5050823594602084013594506040840135936060013592509050565b600080600060608486031215613f6557600080fd5b505081359360208301359350604090920135919050565b60008060408385031215613f8f57600080fd5b50508035926020909101359150565b80511515825260006103206020830151613fbc602086018215159052565b50604083015160408501526060830151816060860152613fde82860182613c1b565b91505060808301518482036080860152613ff88282613c1b565b91505060a083015160a085015260c083015160c085015260e083015160e0850152610100808401516140598287018260ff815116825260ff602082015116602083015260ff604082015116604083015260ff60608201511660608301525050565b5050610120830151610180818187015261014085015191506101a0828188015261016086015192506101c083818901528287015193506101e092506140a083890185613c7f565b908601519250610200906140c688830185805160ff908116835260209182015116910152565b80870151935050610240878503818901526140e18585613c1b565b94508287015193506102609250878503838901526140ff8585613c1b565b945081870151935061028091508785038289015261411d8585613c1b565b945061022087015193508785036102a089015261413a8585613c1b565b908701516102c0890152918601516102e08801528501518682036103008801529092509050611faa8282613c1b565b602081526000610ef86020830184613f9e565b8051600081810b84526020830151810b60208501526040830151810b60408501526060830151810b60608501526080830151810b608085015260a0830151810b60a085015260c0830151810b60c0850152505060e0810151151560e08301525050565b600081518084526020808501945080840160005b83811015613c4b57815160ff16875295820195908201906001016141f3565b60006020808301818452808551808352604092508286019150828160051b87010184880160005b8381101561436f57888303603f19018552815180516001600160a01b031684526102e08882015189860152878201518886015260608083015161427e8288018261417c565b505060808201516101606142a481880183805160ff908116835260209182015116910152565b60a084015191506101a06142ca81890184805160ff908116835260209182015116910152565b60c085015192506142e16101e089018460000b9052565b60e085015160ff9081166102008a015261010086015181166102208a01526101208601511661024089015261014085015161026089018590529250614328848901846141df565b935081850151925061434061028089018460ff169052565b61018085015115156102a0890152909301516102c0909601959095529588019593505090860190600101614239565b509098975050505050505050565b60008060008060a0858703121561439357600080fd5b843593506143a48660208701613e5c565b93969395505050506060820135916080013590565b6001600160a01b03811681146127d457600080fd5b600080600080600080600080610100898b0312156143eb57600080fd5b88356143f6816143b9565b97506020890135614406816143b9565b96506040890135614416816143b9565b95506060890135614426816143b9565b94506080890135614436816143b9565b935060a0890135614446816143b9565b925060c0890135614456816143b9565b915060e0890135614466816143b9565b809150509295985092959890939650565b6000806060838503121561448a57600080fd5b8235915061449b8460208501613e5c565b90509250929050565b604081016106b78284805160ff908116835260209182015116910152565b600080604083850312156144d557600080fd5b82356144e0816143b9565b946020939093013593505050565b80151581146127d457600080fd5b60008060006060848603121561451157600080fd5b8335925060208401359150604084013561452a816144ee565b809150509250925092565b60006020828403121561454757600080fd5b8135610ef8816143b9565b6000602080830181845280855180835260408601915060408160051b870101925083870160005b828110156145a757603f19888603018452614595858351613f9e565b94509285019290850190600101614579565b5092979650505050505050565b602080825282518282018190526000919060409081850190868401855b8281101561466557815180518552868101518786015285810151868601526060808201516146018288018261417c565b5050608081015160ff90811661016087015260a0820151811661018087015260c082015181166101a087015260e0820151166101c086015261010081015115156101e0860152610120015161020085015261022090930192908501906001016145d1565b5091979650505050505050565b6000806040838503121561468557600080fd5b823561469081613e4d565b915060208301356146a081613e4d565b809150509250929050565b60098110613c8f57613c8f613c69565b602080825282518282018190526000919060409081850190868401855b82811015614665578151805185528681015187860152858101516146fe878701826146ab565b50606081810151805160ff9081168884015260208201511660808801525050608081015160a0868101919091520151151560c085015260e090930192908501906001016146d8565b60006001600160401b0382111561475f5761475f613d55565b5060051b60200190565b60008060006060848603121561477e57600080fd5b83356001600160401b0381111561479457600080fd5b8401601f810186136147a557600080fd5b803560206147ba6147b583614746565b613e1d565b82815260059290921b830181019181810190898411156147d957600080fd5b938201935b838510156147f7578435825293820193908201906147de565b999188013598505060409096013595945050505050565b6000806080838503121561482157600080fd5b61482b8484613e5c565b915061449b8460408501613e5c565b602080825260149082015273139bdd081858dd1a5bdb9cc818dbdb9d1c9858dd60621b604082015260600190565b634e487b7160e01b600052601160045260246000fd5b6000600160ff1b820161489357614893614868565b5060000390565b634e487b7160e01b600052603260045260246000fd5b848152608081016148c460208301866146ab565b60408201939093526060015292915050565b6000602082840312156148e857600080fd5b5051919050565b60006001820161490157614901614868565b5060010190565b818103818111156106b7576106b7614868565b60008161492a5761492a614868565b506000190190565b80820281158282048414176106b7576106b7614868565b634e487b7160e01b600052601260045260246000fd5b60008261496e5761496e614949565b500490565b808201808211156106b7576106b7614868565b8181036000831280158383131683831282161715610d2b57610d2b614868565b80516149b1816143b9565b919050565b6000602082840312156149c857600080fd5b8151610ef8816143b9565b8051600081900b81146149b157600080fd5b80516149b1816144ee565b6000610100808385031215614a0457600080fd5b604051908101906001600160401b0382118183101715614a2657614a26613d55565b81604052809250614a36846149d3565b8152614a44602085016149d3565b6020820152614a55604085016149d3565b6040820152614a66606085016149d3565b6060820152614a77608085016149d3565b6080820152614a8860a085016149d3565b60a0820152614a9960c085016149d3565b60c082015260e08401519150614aae826144ee565b60e0015292915050565b80516149b181613e4d565b600060408284031215614ad557600080fd5b614add613d6b565b90508151614aea81613e4d565b81526020820151613e9381613e4d565b600082601f830112614b0b57600080fd5b81516020614b1b6147b583614746565b82815260059290921b84018101918181019086841115614b3a57600080fd5b8286015b84811015614b5e578051614b5181613e4d565b8352918301918301614b3e565b509695505050505050565b600060208284031215614b7b57600080fd5b81516001600160401b0380821115614b9257600080fd5b908301906102e08286031215614ba757600080fd5b614baf613d93565b614bb8836149a6565b81526020830151602082015260408301516040820152614bdb86606085016149f0565b6060820152610160614bef87828601614ac3565b60808301526101a0614c0388828701614ac3565b60a0840152614c156101e086016149d3565b60c0840152614c276102008601614ab8565b60e0840152614c396102208601614ab8565b610100840152614c4c6102408601614ab8565b61012084015261026085015184811115614c6557600080fd5b614c7189828801614afa565b61014085015250614c856102808601614ab8565b82840152614c966102a086016149e5565b6101808401526102c085015181840152505080935050505092915050565b60ff82811682821603908111156106b7576106b7614868565b60ff81811683821601908111156106b7576106b7614868565b60005b83811015614d01578181015183820152602001614ce9565b50506000910152565b72024b73b30b634b2103234b932b1ba34b7b71d1606d1b815260008251614d38816013850160208701614ce6565b9190910160130192915050565b6020815260008251806020840152614d64816040850160208701614ce6565b601f01601f19169190910160400192915050565b600181815b80851115614db3578160001904821115614d9957614d99614868565b80851615614da657918102915b93841c9390800290614d7d565b509250929050565b600082614dca575060016106b7565b81614dd7575060006106b7565b8160018114614ded5760028114614df757614e13565b60019150506106b7565b60ff841115614e0857614e08614868565b50506001821b6106b7565b5060208310610133831016604e8410600b8410161715614e36575081810a6106b7565b614e408383614d78565b8060001904821115614e5457614e54614868565b029392505050565b6000610ef88383614dbb565b60006102208284031215614e7b57600080fd5b614e83613db6565b825181526020830151602082015260408301516040820152614ea884606085016149f0565b6060820152614eba6101608401614ab8565b6080820152614ecc6101808401614ab8565b60a0820152614ede6101a08401614ab8565b60c0820152614ef06101c08401614ab8565b60e0820152614f026101e084016149e5565b610100820152610200929092015161012083015250919050565b600082614f2b57614f2b614949565b500690565b6000815480845260208085019450836000528060002060005b83811015613c4b57815487529582019560019182019101614f49565b602081526000610ef86020830184614f30565b60006020808385031215614f8b57600080fd5b82516001600160401b03811115614fa157600080fd5b8301601f81018513614fb257600080fd5b8051614fc06147b582614746565b81815260e09182028301840191848201919088841115614fdf57600080fd5b938501935b838510156150615780858a031215614ffc5760008081fd5b615004613dd9565b85518152868601518782015260408087015161501f81613ed4565b9082015260606150318b888301614ac3565b9082015260a086810151608083015260c087015161504e816144ee565b9082015283529384019391850191614fe4565b50979650505050505050565b84815283602082015260806040820152600061508c6080830185614f30565b8281036060840152610d648185614f30565b6040815260006150b16040830185613c1b565b90508260208301529392505050565b8281526040602082015260006135dc6040830184613c1b565b600082810b9082900b03607f198112607f821317156106b7576106b7614868565b608081016151188286805160ff908116835260209182015116910152565b604082019390935260600152919050565b60006020828403121561513b57600080fd5b8151610ef8816144ee565b600060a0828403121561515857600080fd5b60405160a081018181106001600160401b038211171561517a5761517a613d55565b60405282516006811061518c57600080fd5b81526020838101519082015260408301516151a681613e4d565b604082015260608301516151b981613e4d565b606082015260808301516151cc816144ee565b60808201529392505050565b600060ff821660ff81036151ee576151ee614868565b60010192915050565b600082601f83011261520857600080fd5b815160206152186147b583614746565b82815260069290921b8401810191818101908684111561523757600080fd5b8286015b84811015614b5e57604081890312156152545760008081fd5b61525c613d6b565b81516017811061526c5760008081fd5b8152818501518582015283529183019160400161523b565b60006020828403121561529657600080fd5b81516001600160401b03808211156152ad57600080fd5b9083019060e082860312156152c157600080fd5b6152c9613dfb565b825181526152d9602084016149e5565b60208201526152ea60408401614ab8565b60408201526152fb60608401614ab8565b606082015260808301518281111561531257600080fd5b61531e878286016151f7565b60808301525060a08301518281111561533657600080fd5b615342878286016151f7565b60a08301525060c08301518281111561535a57600080fd5b615366878286016151f7565b60c08301525095945050505050565b600061010082019050888252876020830152866040830152856060830152845460ff8116608084015260ff8160081c1660a0840152508360c08301526153be60e0830184613c7f565b98975050505050505050565b634e487b7160e01b600052603160045260246000fd5b8281526040602082015260006135dc6040830184614f3056fea26469706673582212203649006fe66d41906e90a530ebd5b209cddaa80e41048138ddf92f9f039cf5cd64736f6c63430008110033",
  "devdoc": {
    "kind": "dev",
    "methods": {
      "owner()": {
        "details": "Returns the address of the current owner."
      },
      "renounceOwnership()": {
        "details": "Leaves the contract without owner. It will not be possible to call `onlyOwner` functions anymore. Can only be called by the current owner. NOTE: Renouncing ownership will leave the contract without an owner, thereby removing any functionality that is only available to the owner."
      },
      "transferOwnership(address)": {
        "details": "Transfers ownership of the contract to a new account (`newOwner`). Can only be called by the current owner."
      }
    },
    "version": 1
  },
  "userdoc": {
    "kind": "user",
    "methods": {},
    "version": 1
  },
  "storageLayout": {
    "storage": [
      {
        "astId": 7,
        "contract": "contracts/BCGames.sol:BCGames",
        "label": "_owner",
        "offset": 0,
        "slot": "0",
        "type": "t_address"
      },
      {
        "astId": 9118,
        "contract": "contracts/BCGames.sol:BCGames",
        "label": "TODO_randomSeed",
        "offset": 0,
        "slot": "1",
        "type": "t_uint256"
      },
      {
        "astId": 9123,
        "contract": "contracts/BCGames.sol:BCGames",
        "label": "gameToEventBlocks",
        "offset": 0,
        "slot": "2",
        "type": "t_mapping(t_uint256,t_struct(UintSet)2262_storage)"
      },
      {
        "astId": 7061,
        "contract": "contracts/BCGames.sol:BCGames",
        "label": "chars",
        "offset": 0,
        "slot": "3",
        "type": "t_contract(CharInterface)6747"
      },
      {
        "astId": 7064,
        "contract": "contracts/BCGames.sol:BCGames",
        "label": "maps",
        "offset": 0,
        "slot": "4",
        "type": "t_contract(MapInterface)6925"
      },
      {
        "astId": 7067,
        "contract": "contracts/BCGames.sol:BCGames",
        "label": "bcEvents",
        "offset": 0,
        "slot": "5",
        "type": "t_contract(EventsInterface)6721"
      },
      {
        "astId": 7070,
        "contract": "contracts/BCGames.sol:BCGames",
        "label": "items",
        "offset": 0,
        "slot": "6",
        "type": "t_contract(ItemsInterface)6954"
      },
      {
        "astId": 7073,
        "contract": "contracts/BCGames.sol:BCGames",
        "label": "players",
        "offset": 0,
        "slot": "7",
        "type": "t_contract(PlayersInterface)7050"
      },
      {
        "astId": 7076,
        "contract": "contracts/BCGames.sol:BCGames",
        "label": "denizens",
        "offset": 0,
        "slot": "8",
        "type": "t_contract(DenizensInterface)6680"
      },
      {
        "astId": 7078,
        "contract": "contracts/BCGames.sol:BCGames",
        "label": "lobbiesAddress",
        "offset": 0,
        "slot": "9",
        "type": "t_address"
      },
      {
        "astId": 7080,
        "contract": "contracts/BCGames.sol:BCGames",
        "label": "charsAddress",
        "offset": 0,
        "slot": "10",
        "type": "t_address"
      },
      {
        "astId": 7082,
        "contract": "contracts/BCGames.sol:BCGames",
        "label": "actionsAddress",
        "offset": 0,
        "slot": "11",
        "type": "t_address"
      },
      {
        "astId": 7181,
        "contract": "contracts/BCGames.sol:BCGames",
        "label": "StartLocation",
        "offset": 0,
        "slot": "12",
        "type": "t_struct(Position)8890_storage"
      },
      {
        "astId": 7185,
        "contract": "contracts/BCGames.sol:BCGames",
        "label": "games",
        "offset": 0,
        "slot": "13",
        "type": "t_array(t_struct(Game)8993_storage)dyn_storage"
      },
      {
        "astId": 7190,
        "contract": "contracts/BCGames.sol:BCGames",
        "label": "addressToGame",
        "offset": 0,
        "slot": "14",
        "type": "t_mapping(t_address,t_array(t_uint256)dyn_storage)"
      }
    ],
    "types": {
      "t_address": {
        "encoding": "inplace",
        "label": "address",
        "numberOfBytes": "20"
      },
      "t_array(t_bytes32)dyn_storage": {
        "base": "t_bytes32",
        "encoding": "dynamic_array",
        "label": "bytes32[]",
        "numberOfBytes": "32"
      },
      "t_array(t_struct(Game)8993_storage)dyn_storage": {
        "base": "t_struct(Game)8993_storage",
        "encoding": "dynamic_array",
        "label": "struct BCTypes.Game[]",
        "numberOfBytes": "32"
      },
      "t_array(t_uint256)dyn_storage": {
        "base": "t_uint256",
        "encoding": "dynamic_array",
        "label": "uint256[]",
        "numberOfBytes": "32"
      },
      "t_bool": {
        "encoding": "inplace",
        "label": "bool",
        "numberOfBytes": "1"
      },
      "t_bytes32": {
        "encoding": "inplace",
        "label": "bytes32",
        "numberOfBytes": "32"
      },
      "t_contract(CharInterface)6747": {
        "encoding": "inplace",
        "label": "contract CharInterface",
        "numberOfBytes": "20"
      },
      "t_contract(DenizensInterface)6680": {
        "encoding": "inplace",
        "label": "contract DenizensInterface",
        "numberOfBytes": "20"
      },
      "t_contract(EventsInterface)6721": {
        "encoding": "inplace",
        "label": "contract EventsInterface",
        "numberOfBytes": "20"
      },
      "t_contract(ItemsInterface)6954": {
        "encoding": "inplace",
        "label": "contract ItemsInterface",
        "numberOfBytes": "20"
      },
      "t_contract(MapInterface)6925": {
        "encoding": "inplace",
        "label": "contract MapInterface",
        "numberOfBytes": "20"
      },
      "t_contract(PlayersInterface)7050": {
        "encoding": "inplace",
        "label": "contract PlayersInterface",
        "numberOfBytes": "20"
      },
      "t_enum(BCEventType)8796": {
        "encoding": "inplace",
        "label": "enum BCTypes.BCEventType",
        "numberOfBytes": "1"
      },
      "t_mapping(t_address,t_array(t_uint256)dyn_storage)": {
        "encoding": "mapping",
        "key": "t_address",
        "label": "mapping(address => uint256[])",
        "numberOfBytes": "32",
        "value": "t_array(t_uint256)dyn_storage"
      },
      "t_mapping(t_bytes32,t_uint256)": {
        "encoding": "mapping",
        "key": "t_bytes32",
        "label": "mapping(bytes32 => uint256)",
        "numberOfBytes": "32",
        "value": "t_uint256"
      },
      "t_mapping(t_uint256,t_struct(UintSet)2262_storage)": {
        "encoding": "mapping",
        "key": "t_uint256",
        "label": "mapping(uint256 => struct EnumerableSet.UintSet)",
        "numberOfBytes": "32",
        "value": "t_struct(UintSet)2262_storage"
      },
      "t_struct(EventTracker)8885_storage": {
        "encoding": "inplace",
        "label": "struct BCTypes.EventTracker",
        "members": [
          {
            "astId": 8878,
            "contract": "contracts/BCGames.sol:BCGames",
            "label": "bugEvents",
            "offset": 0,
            "slot": "0",
            "type": "t_uint8"
          },
          {
            "astId": 8880,
            "contract": "contracts/BCGames.sol:BCGames",
            "label": "mysteryEvents",
            "offset": 1,
            "slot": "0",
            "type": "t_uint8"
          },
          {
            "astId": 8882,
            "contract": "contracts/BCGames.sol:BCGames",
            "label": "scavEvents",
            "offset": 2,
            "slot": "0",
            "type": "t_uint8"
          },
          {
            "astId": 8884,
            "contract": "contracts/BCGames.sol:BCGames",
            "label": "shipEvents",
            "offset": 3,
            "slot": "0",
            "type": "t_uint8"
          }
        ],
        "numberOfBytes": "32"
      },
      "t_struct(Game)8993_storage": {
        "encoding": "inplace",
        "label": "struct BCTypes.Game",
        "members": [
          {
            "astId": 8942,
            "contract": "contracts/BCGames.sol:BCGames",
            "label": "active",
            "offset": 0,
            "slot": "0",
            "type": "t_bool"
          },
          {
            "astId": 8944,
            "contract": "contracts/BCGames.sol:BCGames",
            "label": "denizenTurn",
            "offset": 1,
            "slot": "0",
            "type": "t_bool"
          },
          {
            "astId": 8946,
            "contract": "contracts/BCGames.sol:BCGames",
            "label": "gameId",
            "offset": 0,
            "slot": "1",
            "type": "t_uint256"
          },
          {
            "astId": 8949,
            "contract": "contracts/BCGames.sol:BCGames",
            "label": "playerIndexes",
            "offset": 0,
            "slot": "2",
            "type": "t_array(t_uint256)dyn_storage"
          },
          {
            "astId": 8952,
            "contract": "contracts/BCGames.sol:BCGames",
            "label": "charIds",
            "offset": 0,
            "slot": "3",
            "type": "t_array(t_uint256)dyn_storage"
          },
          {
            "astId": 8954,
            "contract": "contracts/BCGames.sol:BCGames",
            "label": "currentPlayerTurnIndex",
            "offset": 0,
            "slot": "4",
            "type": "t_uint256"
          },
          {
            "astId": 8956,
            "contract": "contracts/BCGames.sol:BCGames",
            "label": "numPlayers",
            "offset": 0,
            "slot": "5",
            "type": "t_uint256"
          },
          {
            "astId": 8958,
            "contract": "contracts/BCGames.sol:BCGames",
            "label": "turnsTaken",
            "offset": 0,
            "slot": "6",
            "type": "t_uint256"
          },
          {
            "astId": 8961,
            "contract": "contracts/BCGames.sol:BCGames",
            "label": "eventTracker",
            "offset": 0,
            "slot": "7",
            "type": "t_struct(EventTracker)8885_storage"
          },
          {
            "astId": 8963,
            "contract": "contracts/BCGames.sol:BCGames",
            "label": "mapId",
            "offset": 0,
            "slot": "8",
            "type": "t_uint256"
          },
          {
            "astId": 8965,
            "contract": "contracts/BCGames.sol:BCGames",
            "label": "eventPlayerId",
            "offset": 0,
            "slot": "9",
            "type": "t_uint256"
          },
          {
            "astId": 8967,
            "contract": "contracts/BCGames.sol:BCGames",
            "label": "eventNumber",
            "offset": 0,
            "slot": "10",
            "type": "t_uint256"
          },
          {
            "astId": 8970,
            "contract": "contracts/BCGames.sol:BCGames",
            "label": "eventType",
            "offset": 0,
            "slot": "11",
            "type": "t_enum(BCEventType)8796"
          },
          {
            "astId": 8973,
            "contract": "contracts/BCGames.sol:BCGames",
            "label": "eventPosition",
            "offset": 0,
            "slot": "12",
            "type": "t_struct(Position)8890_storage"
          },
          {
            "astId": 8976,
            "contract": "contracts/BCGames.sol:BCGames",
            "label": "unusedBugEvents",
            "offset": 0,
            "slot": "13",
            "type": "t_array(t_uint256)dyn_storage"
          },
          {
            "astId": 8979,
            "contract": "contracts/BCGames.sol:BCGames",
            "label": "unusedMysteryEvents",
            "offset": 0,
            "slot": "14",
            "type": "t_array(t_uint256)dyn_storage"
          },
          {
            "astId": 8982,
            "contract": "contracts/BCGames.sol:BCGames",
            "label": "unusedScavEvents",
            "offset": 0,
            "slot": "15",
            "type": "t_array(t_uint256)dyn_storage"
          },
          {
            "astId": 8985,
            "contract": "contracts/BCGames.sol:BCGames",
            "label": "unusedShipEvents",
            "offset": 0,
            "slot": "16",
            "type": "t_array(t_uint256)dyn_storage"
          },
          {
            "astId": 8987,
            "contract": "contracts/BCGames.sol:BCGames",
            "label": "turnTimeLimit",
            "offset": 0,
            "slot": "17",
            "type": "t_uint256"
          },
          {
            "astId": 8989,
            "contract": "contracts/BCGames.sol:BCGames",
            "label": "lastTurnTimestamp",
            "offset": 0,
            "slot": "18",
            "type": "t_uint256"
          },
          {
            "astId": 8992,
            "contract": "contracts/BCGames.sol:BCGames",
            "label": "denizenIds",
            "offset": 0,
            "slot": "19",
            "type": "t_array(t_uint256)dyn_storage"
          }
        ],
        "numberOfBytes": "640"
      },
      "t_struct(Position)8890_storage": {
        "encoding": "inplace",
        "label": "struct BCTypes.Position",
        "members": [
          {
            "astId": 8887,
            "contract": "contracts/BCGames.sol:BCGames",
            "label": "row",
            "offset": 0,
            "slot": "0",
            "type": "t_uint8"
          },
          {
            "astId": 8889,
            "contract": "contracts/BCGames.sol:BCGames",
            "label": "col",
            "offset": 1,
            "slot": "0",
            "type": "t_uint8"
          }
        ],
        "numberOfBytes": "32"
      },
      "t_struct(Set)1804_storage": {
        "encoding": "inplace",
        "label": "struct EnumerableSet.Set",
        "members": [
          {
            "astId": 1799,
            "contract": "contracts/BCGames.sol:BCGames",
            "label": "_values",
            "offset": 0,
            "slot": "0",
            "type": "t_array(t_bytes32)dyn_storage"
          },
          {
            "astId": 1803,
            "contract": "contracts/BCGames.sol:BCGames",
            "label": "_indexes",
            "offset": 0,
            "slot": "1",
            "type": "t_mapping(t_bytes32,t_uint256)"
          }
        ],
        "numberOfBytes": "64"
      },
      "t_struct(UintSet)2262_storage": {
        "encoding": "inplace",
        "label": "struct EnumerableSet.UintSet",
        "members": [
          {
            "astId": 2261,
            "contract": "contracts/BCGames.sol:BCGames",
            "label": "_inner",
            "offset": 0,
            "slot": "0",
            "type": "t_struct(Set)1804_storage"
          }
        ],
        "numberOfBytes": "64"
      },
      "t_uint256": {
        "encoding": "inplace",
        "label": "uint256",
        "numberOfBytes": "32"
      },
      "t_uint8": {
        "encoding": "inplace",
        "label": "uint8",
        "numberOfBytes": "1"
      }
    }
  }
}