{
  "address": "0x4f5ceF5f79b38F78584F2d4174CFD14Ba55f293F",
  "abi": [
    {
      "inputs": [],
      "stateMutability": "nonpayable",
      "type": "constructor"
    },
    {
      "inputs": [],
      "name": "CantForceDenizenTurn",
      "type": "error"
    },
    {
      "inputs": [],
      "name": "CantForceSinglePlayer",
      "type": "error"
    },
    {
      "inputs": [
        {
          "internalType": "uint256",
          "name": "",
          "type": "uint256"
        }
      ],
      "name": "EventNotForPlayer",
      "type": "error"
    },
    {
      "inputs": [
        {
          "internalType": "uint256",
          "name": "",
          "type": "uint256"
        },
        {
          "internalType": "uint256",
          "name": "",
          "type": "uint256"
        }
      ],
      "name": "PlayerNotInGame",
      "type": "error"
    },
    {
      "inputs": [],
      "name": "StillWithinTimeLimit",
      "type": "error"
    },
    {
      "anonymous": false,
      "inputs": [
        {
          "indexed": true,
          "internalType": "uint256",
          "name": "gameId",
          "type": "uint256"
        },
        {
          "indexed": false,
          "internalType": "uint256",
          "name": "roll",
          "type": "uint256"
        },
        {
          "indexed": false,
          "internalType": "uint256",
          "name": "forValue",
          "type": "uint256"
        },
        {
          "indexed": false,
          "internalType": "uint256",
          "name": "against",
          "type": "uint256"
        }
      ],
      "name": "ChallengeEvent",
      "type": "event"
    },
    {
      "anonymous": false,
      "inputs": [
        {
          "indexed": false,
          "internalType": "uint256",
          "name": "gameId",
          "type": "uint256"
        }
      ],
      "name": "DenizenTurnOver",
      "type": "event"
    },
    {
      "anonymous": false,
      "inputs": [
        {
          "indexed": true,
          "internalType": "uint256",
          "name": "gameId",
          "type": "uint256"
        },
        {
          "indexed": false,
          "internalType": "uint256",
          "name": "roll",
          "type": "uint256"
        }
      ],
      "name": "DiceRollEvent",
      "type": "event"
    },
    {
      "anonymous": false,
      "inputs": [
        {
          "indexed": true,
          "internalType": "address",
          "name": "previousOwner",
          "type": "address"
        },
        {
          "indexed": true,
          "internalType": "address",
          "name": "newOwner",
          "type": "address"
        }
      ],
      "name": "OwnershipTransferred",
      "type": "event"
    },
    {
      "anonymous": false,
      "inputs": [
        {
          "indexed": true,
          "internalType": "uint256",
          "name": "gameId",
          "type": "uint256"
        },
        {
          "indexed": false,
          "internalType": "uint256",
          "name": "playerId",
          "type": "uint256"
        },
        {
          "indexed": false,
          "internalType": "enum BCTypes.DenizenType",
          "name": "denizenType",
          "type": "uint8"
        },
        {
          "indexed": false,
          "internalType": "uint256",
          "name": "denizenId",
          "type": "uint256"
        },
        {
          "indexed": false,
          "internalType": "uint256",
          "name": "damage",
          "type": "uint256"
        },
        {
          "indexed": false,
          "internalType": "uint256",
          "name": "turnabout",
          "type": "uint256"
        }
      ],
      "name": "PlayerAttack",
      "type": "event"
    },
    {
      "inputs": [],
      "name": "StartLocation",
      "outputs": [
        {
          "internalType": "uint8",
          "name": "row",
          "type": "uint8"
        },
        {
          "internalType": "uint8",
          "name": "col",
          "type": "uint8"
        }
      ],
      "stateMutability": "view",
      "type": "function"
    },
    {
      "inputs": [
        {
          "internalType": "int256",
          "name": "x",
          "type": "int256"
        }
      ],
      "name": "abs",
      "outputs": [
        {
          "internalType": "int256",
          "name": "",
          "type": "int256"
        }
      ],
      "stateMutability": "pure",
      "type": "function"
    },
    {
      "inputs": [],
      "name": "actionsAddress",
      "outputs": [
        {
          "internalType": "address",
          "name": "",
          "type": "address"
        }
      ],
      "stateMutability": "view",
      "type": "function"
    },
    {
      "inputs": [
        {
          "internalType": "uint256",
          "name": "_gameId",
          "type": "uint256"
        },
        {
          "internalType": "enum BCTypes.DenizenType",
          "name": "_type",
          "type": "uint8"
        },
        {
          "internalType": "uint256",
          "name": "_row",
          "type": "uint256"
        },
        {
          "internalType": "uint256",
          "name": "_col",
          "type": "uint256"
        }
      ],
      "name": "addDenizen",
      "outputs": [],
      "stateMutability": "nonpayable",
      "type": "function"
    },
    {
      "inputs": [
        {
          "internalType": "address",
          "name": "",
          "type": "address"
        },
        {
          "internalType": "uint256",
          "name": "",
          "type": "uint256"
        }
      ],
      "name": "addressToGame",
      "outputs": [
        {
          "internalType": "uint256",
          "name": "",
          "type": "uint256"
        }
      ],
      "stateMutability": "view",
      "type": "function"
    },
    {
      "inputs": [],
      "name": "bcEvents",
      "outputs": [
        {
          "internalType": "contract EventsInterface",
          "name": "",
          "type": "address"
        }
      ],
      "stateMutability": "view",
      "type": "function"
    },
    {
      "inputs": [],
      "name": "chars",
      "outputs": [
        {
          "internalType": "contract CharInterface",
          "name": "",
          "type": "address"
        }
      ],
      "stateMutability": "view",
      "type": "function"
    },
    {
      "inputs": [],
      "name": "charsAddress",
      "outputs": [
        {
          "internalType": "address",
          "name": "",
          "type": "address"
        }
      ],
      "stateMutability": "view",
      "type": "function"
    },
    {
      "inputs": [
        {
          "internalType": "uint256",
          "name": "_gameId",
          "type": "uint256"
        },
        {
          "components": [
            {
              "internalType": "uint8",
              "name": "row",
              "type": "uint8"
            },
            {
              "internalType": "uint8",
              "name": "col",
              "type": "uint8"
            }
          ],
          "internalType": "struct BCTypes.Position",
          "name": "_position",
          "type": "tuple"
        },
        {
          "internalType": "uint256",
          "name": "_playerId",
          "type": "uint256"
        },
        {
          "internalType": "uint256",
          "name": "_debugRoomId",
          "type": "uint256"
        }
      ],
      "name": "debugMovePlayer",
      "outputs": [],
      "stateMutability": "nonpayable",
      "type": "function"
    },
    {
      "inputs": [],
      "name": "denizens",
      "outputs": [
        {
          "internalType": "contract DenizensInterface",
          "name": "",
          "type": "address"
        }
      ],
      "stateMutability": "view",
      "type": "function"
    },
    {
      "inputs": [
        {
          "internalType": "uint256",
          "name": "_gameId",
          "type": "uint256"
        },
        {
          "internalType": "uint256",
          "name": "_playerId",
          "type": "uint256"
        },
        {
          "internalType": "bool",
          "name": "_free",
          "type": "bool"
        }
      ],
      "name": "endPlayerAction",
      "outputs": [],
      "stateMutability": "nonpayable",
      "type": "function"
    },
    {
      "inputs": [
        {
          "internalType": "uint256",
          "name": "_gameId",
          "type": "uint256"
        }
      ],
      "name": "extGetCharsInGame",
      "outputs": [
        {
          "components": [
            {
              "internalType": "bytes32",
              "name": "genHash",
              "type": "bytes32"
            },
            {
              "internalType": "uint256",
              "name": "id",
              "type": "uint256"
            },
            {
              "internalType": "uint256",
              "name": "uifID",
              "type": "uint256"
            },
            {
              "components": [
                {
                  "internalType": "int8",
                  "name": "health",
                  "type": "int8"
                },
                {
                  "internalType": "int8",
                  "name": "carry",
                  "type": "int8"
                },
                {
                  "internalType": "int8",
                  "name": "defense",
                  "type": "int8"
                },
                {
                  "internalType": "int8",
                  "name": "hack",
                  "type": "int8"
                },
                {
                  "internalType": "int8",
                  "name": "breach",
                  "type": "int8"
                },
                {
                  "internalType": "int8",
                  "name": "shoot",
                  "type": "int8"
                },
                {
                  "internalType": "int8",
                  "name": "melee",
                  "type": "int8"
                },
                {
                  "internalType": "bool",
                  "name": "hasGun",
                  "type": "bool"
                }
              ],
              "internalType": "struct BCTypes.Traits",
              "name": "traits",
              "type": "tuple"
            },
            {
              "internalType": "uint8",
              "name": "cloneNumber",
              "type": "uint8"
            },
            {
              "internalType": "uint8",
              "name": "maxClones",
              "type": "uint8"
            },
            {
              "internalType": "uint8",
              "name": "ability",
              "type": "uint8"
            },
            {
              "internalType": "uint8",
              "name": "flaw",
              "type": "uint8"
            },
            {
              "internalType": "bool",
              "name": "inGame",
              "type": "bool"
            },
            {
              "internalType": "uint256",
              "name": "gameId",
              "type": "uint256"
            }
          ],
          "internalType": "struct BCTypes.Character[]",
          "name": "",
          "type": "tuple[]"
        }
      ],
      "stateMutability": "view",
      "type": "function"
    },
    {
      "inputs": [
        {
          "internalType": "uint256",
          "name": "_id",
          "type": "uint256"
        }
      ],
      "name": "extGetGame",
      "outputs": [
        {
          "components": [
            {
              "internalType": "bool",
              "name": "active",
              "type": "bool"
            },
            {
              "internalType": "bool",
              "name": "denizenTurn",
              "type": "bool"
            },
            {
              "internalType": "uint256",
              "name": "gameId",
              "type": "uint256"
            },
            {
              "internalType": "uint256[]",
              "name": "playerIndexes",
              "type": "uint256[]"
            },
            {
              "internalType": "uint256[]",
              "name": "charIds",
              "type": "uint256[]"
            },
            {
              "internalType": "uint256",
              "name": "currentPlayerTurnIndex",
              "type": "uint256"
            },
            {
              "internalType": "uint256",
              "name": "numPlayers",
              "type": "uint256"
            },
            {
              "internalType": "uint256",
              "name": "turnsTaken",
              "type": "uint256"
            },
            {
              "components": [
                {
                  "internalType": "uint8",
                  "name": "bugEvents",
                  "type": "uint8"
                },
                {
                  "internalType": "uint8",
                  "name": "mysteryEvents",
                  "type": "uint8"
                },
                {
                  "internalType": "uint8",
                  "name": "scavEvents",
                  "type": "uint8"
                },
                {
                  "internalType": "uint8",
                  "name": "shipEvents",
                  "type": "uint8"
                }
              ],
              "internalType": "struct BCTypes.EventTracker",
              "name": "eventTracker",
              "type": "tuple"
            },
            {
              "internalType": "uint256",
              "name": "mapId",
              "type": "uint256"
            },
            {
              "internalType": "uint256",
              "name": "eventPlayerId",
              "type": "uint256"
            },
            {
              "internalType": "uint256",
              "name": "eventNumber",
              "type": "uint256"
            },
            {
              "internalType": "enum BCTypes.BCEventType",
              "name": "eventType",
              "type": "uint8"
            },
            {
              "components": [
                {
                  "internalType": "uint8",
                  "name": "row",
                  "type": "uint8"
                },
                {
                  "internalType": "uint8",
                  "name": "col",
                  "type": "uint8"
                }
              ],
              "internalType": "struct BCTypes.Position",
              "name": "eventPosition",
              "type": "tuple"
            },
            {
              "internalType": "uint256[]",
              "name": "unusedBugEvents",
              "type": "uint256[]"
            },
            {
              "internalType": "uint256[]",
              "name": "unusedMysteryEvents",
              "type": "uint256[]"
            },
            {
              "internalType": "uint256[]",
              "name": "unusedScavEvents",
              "type": "uint256[]"
            },
            {
              "internalType": "uint256[]",
              "name": "unusedShipEvents",
              "type": "uint256[]"
            },
            {
              "internalType": "uint256",
              "name": "turnTimeLimit",
              "type": "uint256"
            },
            {
              "internalType": "uint256",
              "name": "lastTurnTimestamp",
              "type": "uint256"
            },
            {
              "internalType": "uint256[]",
              "name": "denizenIds",
              "type": "uint256[]"
            }
          ],
          "internalType": "struct BCTypes.Game",
          "name": "",
          "type": "tuple"
        }
      ],
      "stateMutability": "view",
      "type": "function"
    },
    {
      "inputs": [
        {
          "internalType": "uint256",
          "name": "_gameId",
          "type": "uint256"
        }
      ],
      "name": "extGetGamePlayerIndexes",
      "outputs": [
        {
          "internalType": "uint256[]",
          "name": "",
          "type": "uint256[]"
        }
      ],
      "stateMutability": "view",
      "type": "function"
    },
    {
      "inputs": [
        {
          "internalType": "address",
          "name": "_playerAddress",
          "type": "address"
        }
      ],
      "name": "extGetGamesOfPlayer",
      "outputs": [
        {
          "components": [
            {
              "internalType": "bool",
              "name": "active",
              "type": "bool"
            },
            {
              "internalType": "bool",
              "name": "denizenTurn",
              "type": "bool"
            },
            {
              "internalType": "uint256",
              "name": "gameId",
              "type": "uint256"
            },
            {
              "internalType": "uint256[]",
              "name": "playerIndexes",
              "type": "uint256[]"
            },
            {
              "internalType": "uint256[]",
              "name": "charIds",
              "type": "uint256[]"
            },
            {
              "internalType": "uint256",
              "name": "currentPlayerTurnIndex",
              "type": "uint256"
            },
            {
              "internalType": "uint256",
              "name": "numPlayers",
              "type": "uint256"
            },
            {
              "internalType": "uint256",
              "name": "turnsTaken",
              "type": "uint256"
            },
            {
              "components": [
                {
                  "internalType": "uint8",
                  "name": "bugEvents",
                  "type": "uint8"
                },
                {
                  "internalType": "uint8",
                  "name": "mysteryEvents",
                  "type": "uint8"
                },
                {
                  "internalType": "uint8",
                  "name": "scavEvents",
                  "type": "uint8"
                },
                {
                  "internalType": "uint8",
                  "name": "shipEvents",
                  "type": "uint8"
                }
              ],
              "internalType": "struct BCTypes.EventTracker",
              "name": "eventTracker",
              "type": "tuple"
            },
            {
              "internalType": "uint256",
              "name": "mapId",
              "type": "uint256"
            },
            {
              "internalType": "uint256",
              "name": "eventPlayerId",
              "type": "uint256"
            },
            {
              "internalType": "uint256",
              "name": "eventNumber",
              "type": "uint256"
            },
            {
              "internalType": "enum BCTypes.BCEventType",
              "name": "eventType",
              "type": "uint8"
            },
            {
              "components": [
                {
                  "internalType": "uint8",
                  "name": "row",
                  "type": "uint8"
                },
                {
                  "internalType": "uint8",
                  "name": "col",
                  "type": "uint8"
                }
              ],
              "internalType": "struct BCTypes.Position",
              "name": "eventPosition",
              "type": "tuple"
            },
            {
              "internalType": "uint256[]",
              "name": "unusedBugEvents",
              "type": "uint256[]"
            },
            {
              "internalType": "uint256[]",
              "name": "unusedMysteryEvents",
              "type": "uint256[]"
            },
            {
              "internalType": "uint256[]",
              "name": "unusedScavEvents",
              "type": "uint256[]"
            },
            {
              "internalType": "uint256[]",
              "name": "unusedShipEvents",
              "type": "uint256[]"
            },
            {
              "internalType": "uint256",
              "name": "turnTimeLimit",
              "type": "uint256"
            },
            {
              "internalType": "uint256",
              "name": "lastTurnTimestamp",
              "type": "uint256"
            },
            {
              "internalType": "uint256[]",
              "name": "denizenIds",
              "type": "uint256[]"
            }
          ],
          "internalType": "struct BCTypes.Game[]",
          "name": "",
          "type": "tuple[]"
        }
      ],
      "stateMutability": "view",
      "type": "function"
    },
    {
      "inputs": [],
      "name": "extGetNumGames",
      "outputs": [
        {
          "internalType": "uint256",
          "name": "",
          "type": "uint256"
        }
      ],
      "stateMutability": "view",
      "type": "function"
    },
    {
      "inputs": [
        {
          "internalType": "uint256",
          "name": "_gameId",
          "type": "uint256"
        }
      ],
      "name": "extGetPlayersInGame",
      "outputs": [
        {
          "components": [
            {
              "internalType": "address",
              "name": "owner",
              "type": "address"
            },
            {
              "internalType": "uint256",
              "name": "characterId",
              "type": "uint256"
            },
            {
              "internalType": "uint256",
              "name": "id",
              "type": "uint256"
            },
            {
              "components": [
                {
                  "internalType": "int8",
                  "name": "health",
                  "type": "int8"
                },
                {
                  "internalType": "int8",
                  "name": "carry",
                  "type": "int8"
                },
                {
                  "internalType": "int8",
                  "name": "defense",
                  "type": "int8"
                },
                {
                  "internalType": "int8",
                  "name": "hack",
                  "type": "int8"
                },
                {
                  "internalType": "int8",
                  "name": "breach",
                  "type": "int8"
                },
                {
                  "internalType": "int8",
                  "name": "shoot",
                  "type": "int8"
                },
                {
                  "internalType": "int8",
                  "name": "melee",
                  "type": "int8"
                },
                {
                  "internalType": "bool",
                  "name": "hasGun",
                  "type": "bool"
                }
              ],
              "internalType": "struct BCTypes.Traits",
              "name": "currentTraits",
              "type": "tuple"
            },
            {
              "components": [
                {
                  "internalType": "uint8",
                  "name": "row",
                  "type": "uint8"
                },
                {
                  "internalType": "uint8",
                  "name": "col",
                  "type": "uint8"
                }
              ],
              "internalType": "struct BCTypes.Position",
              "name": "position",
              "type": "tuple"
            },
            {
              "components": [
                {
                  "internalType": "uint8",
                  "name": "row",
                  "type": "uint8"
                },
                {
                  "internalType": "uint8",
                  "name": "col",
                  "type": "uint8"
                }
              ],
              "internalType": "struct BCTypes.Position",
              "name": "lastPos",
              "type": "tuple"
            },
            {
              "internalType": "int8",
              "name": "healthDmgTaken",
              "type": "int8"
            },
            {
              "internalType": "uint8",
              "name": "armorDmgTaken",
              "type": "uint8"
            },
            {
              "internalType": "uint8",
              "name": "actionsTaken",
              "type": "uint8"
            },
            {
              "internalType": "uint8",
              "name": "dataTokens",
              "type": "uint8"
            },
            {
              "internalType": "uint8[]",
              "name": "currentEffects",
              "type": "uint8[]"
            },
            {
              "internalType": "uint8",
              "name": "numItemsHeld",
              "type": "uint8"
            },
            {
              "internalType": "bool",
              "name": "dead",
              "type": "bool"
            },
            {
              "internalType": "uint256",
              "name": "gameId",
              "type": "uint256"
            }
          ],
          "internalType": "struct BCTypes.Player[]",
          "name": "",
          "type": "tuple[]"
        }
      ],
      "stateMutability": "view",
      "type": "function"
    },
    {
      "inputs": [
        {
          "internalType": "uint256",
          "name": "_gameId",
          "type": "uint256"
        },
        {
          "components": [
            {
              "internalType": "uint8",
              "name": "row",
              "type": "uint8"
            },
            {
              "internalType": "uint8",
              "name": "col",
              "type": "uint8"
            }
          ],
          "internalType": "struct BCTypes.Position",
          "name": "_position",
          "type": "tuple"
        },
        {
          "internalType": "uint256",
          "name": "_playerId",
          "type": "uint256"
        }
      ],
      "name": "extMovePlayer",
      "outputs": [],
      "stateMutability": "nonpayable",
      "type": "function"
    },
    {
      "inputs": [
        {
          "internalType": "uint256",
          "name": "_gameId",
          "type": "uint256"
        }
      ],
      "name": "forceNextTurn",
      "outputs": [],
      "stateMutability": "nonpayable",
      "type": "function"
    },
    {
      "inputs": [
        {
          "internalType": "uint256",
          "name": "",
          "type": "uint256"
        }
      ],
      "name": "games",
      "outputs": [
        {
          "internalType": "bool",
          "name": "active",
          "type": "bool"
        },
        {
          "internalType": "bool",
          "name": "denizenTurn",
          "type": "bool"
        },
        {
          "internalType": "uint256",
          "name": "gameId",
          "type": "uint256"
        },
        {
          "internalType": "uint256",
          "name": "currentPlayerTurnIndex",
          "type": "uint256"
        },
        {
          "internalType": "uint256",
          "name": "numPlayers",
          "type": "uint256"
        },
        {
          "internalType": "uint256",
          "name": "turnsTaken",
          "type": "uint256"
        },
        {
          "components": [
            {
              "internalType": "uint8",
              "name": "bugEvents",
              "type": "uint8"
            },
            {
              "internalType": "uint8",
              "name": "mysteryEvents",
              "type": "uint8"
            },
            {
              "internalType": "uint8",
              "name": "scavEvents",
              "type": "uint8"
            },
            {
              "internalType": "uint8",
              "name": "shipEvents",
              "type": "uint8"
            }
          ],
          "internalType": "struct BCTypes.EventTracker",
          "name": "eventTracker",
          "type": "tuple"
        },
        {
          "internalType": "uint256",
          "name": "mapId",
          "type": "uint256"
        },
        {
          "internalType": "uint256",
          "name": "eventPlayerId",
          "type": "uint256"
        },
        {
          "internalType": "uint256",
          "name": "eventNumber",
          "type": "uint256"
        },
        {
          "internalType": "enum BCTypes.BCEventType",
          "name": "eventType",
          "type": "uint8"
        },
        {
          "components": [
            {
              "internalType": "uint8",
              "name": "row",
              "type": "uint8"
            },
            {
              "internalType": "uint8",
              "name": "col",
              "type": "uint8"
            }
          ],
          "internalType": "struct BCTypes.Position",
          "name": "eventPosition",
          "type": "tuple"
        },
        {
          "internalType": "uint256",
          "name": "turnTimeLimit",
          "type": "uint256"
        },
        {
          "internalType": "uint256",
          "name": "lastTurnTimestamp",
          "type": "uint256"
        }
      ],
      "stateMutability": "view",
      "type": "function"
    },
    {
      "inputs": [
        {
          "internalType": "uint256",
          "name": "_gameId",
          "type": "uint256"
        }
      ],
      "name": "getDenizensInGame",
      "outputs": [
        {
          "components": [
            {
              "internalType": "uint256",
              "name": "id",
              "type": "uint256"
            },
            {
              "internalType": "uint256",
              "name": "gameId",
              "type": "uint256"
            },
            {
              "internalType": "enum BCTypes.DenizenType",
              "name": "denizenType",
              "type": "uint8"
            },
            {
              "components": [
                {
                  "internalType": "uint8",
                  "name": "row",
                  "type": "uint8"
                },
                {
                  "internalType": "uint8",
                  "name": "col",
                  "type": "uint8"
                }
              ],
              "internalType": "struct BCTypes.Position",
              "name": "position",
              "type": "tuple"
            },
            {
              "internalType": "uint256",
              "name": "healthRemaining",
              "type": "uint256"
            },
            {
              "internalType": "bool",
              "name": "looted",
              "type": "bool"
            }
          ],
          "internalType": "struct BCTypes.Denizen[]",
          "name": "",
          "type": "tuple[]"
        }
      ],
      "stateMutability": "view",
      "type": "function"
    },
    {
      "inputs": [
        {
          "components": [
            {
              "internalType": "uint8",
              "name": "row",
              "type": "uint8"
            },
            {
              "internalType": "uint8",
              "name": "col",
              "type": "uint8"
            }
          ],
          "internalType": "struct BCTypes.Position",
          "name": "_firstRoom",
          "type": "tuple"
        },
        {
          "components": [
            {
              "internalType": "uint8",
              "name": "row",
              "type": "uint8"
            },
            {
              "internalType": "uint8",
              "name": "col",
              "type": "uint8"
            }
          ],
          "internalType": "struct BCTypes.Position",
          "name": "_secondRoom",
          "type": "tuple"
        }
      ],
      "name": "getDirectionBetween",
      "outputs": [
        {
          "internalType": "uint256",
          "name": "",
          "type": "uint256"
        }
      ],
      "stateMutability": "pure",
      "type": "function"
    },
    {
      "inputs": [
        {
          "internalType": "uint256",
          "name": "_gameId",
          "type": "uint256"
        }
      ],
      "name": "getEventBlocks",
      "outputs": [
        {
          "internalType": "uint256[]",
          "name": "",
          "type": "uint256[]"
        }
      ],
      "stateMutability": "view",
      "type": "function"
    },
    {
      "inputs": [
        {
          "internalType": "uint256",
          "name": "_direction",
          "type": "uint256"
        },
        {
          "components": [
            {
              "internalType": "uint8",
              "name": "row",
              "type": "uint8"
            },
            {
              "internalType": "uint8",
              "name": "col",
              "type": "uint8"
            }
          ],
          "internalType": "struct BCTypes.Position",
          "name": "_start",
          "type": "tuple"
        }
      ],
      "name": "getNeighborRoom",
      "outputs": [
        {
          "components": [
            {
              "internalType": "uint8",
              "name": "row",
              "type": "uint8"
            },
            {
              "internalType": "uint8",
              "name": "col",
              "type": "uint8"
            }
          ],
          "internalType": "struct BCTypes.Position",
          "name": "",
          "type": "tuple"
        }
      ],
      "stateMutability": "pure",
      "type": "function"
    },
    {
      "inputs": [
        {
          "internalType": "uint256",
          "name": "_traitNum",
          "type": "uint256"
        },
        {
          "internalType": "uint256",
          "name": "_subTraitNum",
          "type": "uint256"
        }
      ],
      "name": "getUIOffset",
      "outputs": [
        {
          "internalType": "uint256",
          "name": "",
          "type": "uint256"
        }
      ],
      "stateMutability": "pure",
      "type": "function"
    },
    {
      "inputs": [],
      "name": "items",
      "outputs": [
        {
          "internalType": "contract ItemsInterface",
          "name": "",
          "type": "address"
        }
      ],
      "stateMutability": "view",
      "type": "function"
    },
    {
      "inputs": [
        {
          "internalType": "uint256",
          "name": "_gameId",
          "type": "uint256"
        },
        {
          "internalType": "uint256",
          "name": "_playerId",
          "type": "uint256"
        },
        {
          "internalType": "uint256",
          "name": "_charId",
          "type": "uint256"
        },
        {
          "internalType": "uint256",
          "name": "_currentPlayerTurnIndex",
          "type": "uint256"
        }
      ],
      "name": "leaveGame",
      "outputs": [],
      "stateMutability": "nonpayable",
      "type": "function"
    },
    {
      "inputs": [],
      "name": "lobbiesAddress",
      "outputs": [
        {
          "internalType": "address",
          "name": "",
          "type": "address"
        }
      ],
      "stateMutability": "view",
      "type": "function"
    },
    {
      "inputs": [
        {
          "components": [
            {
              "internalType": "uint8",
              "name": "row",
              "type": "uint8"
            },
            {
              "internalType": "uint8",
              "name": "col",
              "type": "uint8"
            }
          ],
          "internalType": "struct BCTypes.Position",
          "name": "_pos1",
          "type": "tuple"
        },
        {
          "components": [
            {
              "internalType": "uint8",
              "name": "row",
              "type": "uint8"
            },
            {
              "internalType": "uint8",
              "name": "col",
              "type": "uint8"
            }
          ],
          "internalType": "struct BCTypes.Position",
          "name": "_pos2",
          "type": "tuple"
        }
      ],
      "name": "manhattanDistance",
      "outputs": [
        {
          "internalType": "uint256",
          "name": "",
          "type": "uint256"
        }
      ],
      "stateMutability": "pure",
      "type": "function"
    },
    {
      "inputs": [],
      "name": "maps",
      "outputs": [
        {
          "internalType": "contract MapInterface",
          "name": "",
          "type": "address"
        }
      ],
      "stateMutability": "view",
      "type": "function"
    },
    {
      "inputs": [
        {
          "internalType": "uint256",
          "name": "_min",
          "type": "uint256"
        },
        {
          "internalType": "uint256",
          "name": "_max",
          "type": "uint256"
        },
        {
          "internalType": "uint256",
          "name": "_val",
          "type": "uint256"
        },
        {
          "internalType": "uint256",
          "name": "_valMax",
          "type": "uint256"
        }
      ],
      "name": "normalizeToSmallRange",
      "outputs": [
        {
          "internalType": "uint8",
          "name": "",
          "type": "uint8"
        }
      ],
      "stateMutability": "pure",
      "type": "function"
    },
    {
      "inputs": [
        {
          "internalType": "uint256",
          "name": "_direction",
          "type": "uint256"
        }
      ],
      "name": "opposite",
      "outputs": [
        {
          "internalType": "uint256",
          "name": "",
          "type": "uint256"
        }
      ],
      "stateMutability": "pure",
      "type": "function"
    },
    {
      "inputs": [],
      "name": "owner",
      "outputs": [
        {
          "internalType": "address",
          "name": "",
          "type": "address"
        }
      ],
      "stateMutability": "view",
      "type": "function"
    },
    {
      "inputs": [],
      "name": "players",
      "outputs": [
        {
          "internalType": "contract PlayersInterface",
          "name": "",
          "type": "address"
        }
      ],
      "stateMutability": "view",
      "type": "function"
    },
    {
      "inputs": [
        {
          "internalType": "uint256",
          "name": "_gameId",
          "type": "uint256"
        }
      ],
      "name": "processDenizenMoves",
      "outputs": [],
      "stateMutability": "nonpayable",
      "type": "function"
    },
    {
      "inputs": [],
      "name": "randKeccak",
      "outputs": [
        {
          "internalType": "bytes32",
          "name": "",
          "type": "bytes32"
        }
      ],
      "stateMutability": "nonpayable",
      "type": "function"
    },
    {
      "inputs": [],
      "name": "renounceOwnership",
      "outputs": [],
      "stateMutability": "nonpayable",
      "type": "function"
    },
    {
      "inputs": [
        {
          "internalType": "uint256",
          "name": "_gameId",
          "type": "uint256"
        },
        {
          "internalType": "uint256",
          "name": "_for",
          "type": "uint256"
        },
        {
          "internalType": "uint256",
          "name": "_against",
          "type": "uint256"
        }
      ],
      "name": "resolveChallenge",
      "outputs": [
        {
          "internalType": "bool",
          "name": "",
          "type": "bool"
        }
      ],
      "stateMutability": "nonpayable",
      "type": "function"
    },
    {
      "inputs": [
        {
          "internalType": "uint256",
          "name": "_gameId",
          "type": "uint256"
        },
        {
          "internalType": "uint256",
          "name": "_choice",
          "type": "uint256"
        }
      ],
      "name": "resolveEvent",
      "outputs": [],
      "stateMutability": "nonpayable",
      "type": "function"
    },
    {
      "inputs": [
        {
          "internalType": "uint256",
          "name": "_gameId",
          "type": "uint256"
        }
      ],
      "name": "roll",
      "outputs": [
        {
          "internalType": "uint256",
          "name": "",
          "type": "uint256"
        }
      ],
      "stateMutability": "nonpayable",
      "type": "function"
    },
    {
      "inputs": [
        {
          "internalType": "address",
          "name": "_charAddress",
          "type": "address"
        },
        {
          "internalType": "address",
          "name": "_mapsAddress",
          "type": "address"
        },
        {
          "internalType": "address",
          "name": "_lobbiesAddress",
          "type": "address"
        },
        {
          "internalType": "address",
          "name": "_actionsAddress",
          "type": "address"
        },
        {
          "internalType": "address",
          "name": "_eventsAddress",
          "type": "address"
        },
        {
          "internalType": "address",
          "name": "_itemsAddress",
          "type": "address"
        },
        {
          "internalType": "address",
          "name": "_playersAddress",
          "type": "address"
        },
        {
          "internalType": "address",
          "name": "_denizensAddress",
          "type": "address"
        }
      ],
      "name": "setContractAddresses",
      "outputs": [],
      "stateMutability": "nonpayable",
      "type": "function"
    },
    {
      "inputs": [
        {
          "internalType": "bytes32",
          "name": "_hash",
          "type": "bytes32"
        },
        {
          "internalType": "uint256",
          "name": "_size",
          "type": "uint256"
        },
        {
          "internalType": "uint256",
          "name": "_offset",
          "type": "uint256"
        }
      ],
      "name": "sliceHashToSmallInt",
      "outputs": [
        {
          "internalType": "uint8",
          "name": "",
          "type": "uint8"
        }
      ],
      "stateMutability": "pure",
      "type": "function"
    },
    {
      "inputs": [
        {
          "internalType": "uint8",
          "name": "_min",
          "type": "uint8"
        },
        {
          "internalType": "uint8",
          "name": "_max",
          "type": "uint8"
        }
      ],
      "name": "smallIntBetweenVals",
      "outputs": [
        {
          "internalType": "uint8",
          "name": "",
          "type": "uint8"
        }
      ],
      "stateMutability": "nonpayable",
      "type": "function"
    },
    {
      "inputs": [
        {
          "internalType": "uint256[]",
          "name": "_playerIndexes",
          "type": "uint256[]"
        },
        {
          "internalType": "uint256",
          "name": "_numPlayers",
          "type": "uint256"
        },
        {
          "internalType": "uint256",
          "name": "_debugRoomId",
          "type": "uint256"
        }
      ],
      "name": "startGame",
      "outputs": [
        {
          "internalType": "uint256",
          "name": "",
          "type": "uint256"
        }
      ],
      "stateMutability": "nonpayable",
      "type": "function"
    },
    {
      "inputs": [
        {
          "internalType": "address",
          "name": "newOwner",
          "type": "address"
        }
      ],
      "name": "transferOwnership",
      "outputs": [],
      "stateMutability": "nonpayable",
      "type": "function"
    }
  ],
  "transactionHash": "0xcc7f0d4918f116eaa351e4245b81b8a417bfbdbef2ae024fa25c89537a400518",
  "args": [],
  "numDeployments": 1,
  "solcInputHash": "e5f151f5cbc45bae039f883ab05df643",
  "bytecode": "0x600060015560c0604052600a608052600660a052600c805461ffff191661060a1790553480156200002f57600080fd5b506200003b336200004d565b600d805460010181556000526200009d565b600080546001600160a01b038381166001600160a01b0319831681178455604051919092169283917f8be0079c531659141344cd1fd0a4f28419497f9722a3daafe3b4186f6b6457e09190a35050565b61542280620000ad6000396000f3fe608060405234801561001057600080fd5b506004361061027f5760003560e01c80637b45c0d41161015c578063afd62bb2116100ce578063dc769ee811610087578063dc769ee81461060e578063ed9067fa1461063e578063f101de9a14610651578063f10bff2b14610664578063f2fde38b14610677578063fa3993c21461068a57600080fd5b8063afd62bb214610575578063b26d339514610595578063c06fad06146105b5578063ce28613f146105c8578063d8a03082146105db578063dc0b3564146105fb57600080fd5b8063921d279911610120578063921d2799146104f6578063951fc3fe1461050957806397f34c3f146105295780639fca1ee11461053c578063a99d2a8b1461054f578063aa6e80301461056257600080fd5b80637b45c0d4146104995780637ddae103146104ac5780638214f222146104bf5780638bf52bc3146104d25780638da5cb5b146104e557600080fd5b806340d4fd78116101f557806364db84bf116101b957806364db84bf1461041857806364f664671461042b5780636fe99c181461043e578063715018a61461045e57806371fa32361461046657806372f5a2531461048657600080fd5b806340d4fd78146103a257806346f2434b146103b557806353011696146103bd57806354731422146103e25780635dc96967146103f557600080fd5b80631cef40f6116102475780631cef40f61461033b5780631e1de2051461034e5780631f7b4f3014610356578063336d7d7b146103695780633deaec2b1461037c5780633f090e3d1461038f57600080fd5b80630e73c0241461028457806310a2cd0d146102ad578063117a5b90146102d857806317514225146103055780631b5ac4b51461031a575b600080fd5b610297610292366004613bf5565b61069d565b6040516102a49190613c49565b60405180910390f35b6003546102c0906001600160a01b031681565b6040516001600160a01b0390911681526020016102a4565b6102eb6102e6366004613bf5565b6106bd565b6040516102a49e9d9c9b9a99989796959493929190613c86565b610318610313366004613e91565b610793565b005b61032d610328366004613bf5565b6107d8565b6040519081526020016102a4565b610318610349366004613ed4565b6107f4565b61032d61092b565b61032d610364366004613bf5565b6109a3565b6009546102c0906001600160a01b031681565b6004546102c0906001600160a01b031681565b61031861039d366004613f11565b6109f7565b6102976103b0366004613bf5565b610c39565b600d5461032d565b6103d06103cb366004613f11565b610d2a565b60405160ff90911681526020016102a4565b6103186103f0366004613bf5565b610d67565b610408610403366004613f43565b610e5a565b60405190151581526020016102a4565b61032d610426366004613f6f565b610ef2565b610318610439366004613f6f565b610f0a565b61045161044c366004613bf5565b610fe8565b6040516102a4919061415c565b6103186113ab565b610479610474366004613bf5565b6113bf565b6040516102a49190614205565b6008546102c0906001600160a01b031681565b600b546102c0906001600160a01b031681565b6005546102c0906001600160a01b031681565b61032d6104cd366004613bf5565b611534565b6103186104e0366004614370565b6115ae565b6000546001600160a01b03166102c0565b6103186105043660046143c1565b6115c2565b61051c61051736600461446a565b611658565b6040516102a49190614497565b6103d0610537366004613f43565b611782565b600a546102c0906001600160a01b031681565b61032d61055d3660046144b5565b6117ad565b6103186105703660046144ef565b6117de565b610588610583366004614528565b6118ee565b6040516102a49190614545565b6105a86105a3366004613bf5565b611d84565b6040516102a491906145a7565b6006546102c0906001600160a01b031681565b6103d06105d6366004614665565b611ef6565b6105ee6105e9366004613bf5565b611fa6565b6040516102a491906146ae565b6007546102c0906001600160a01b031681565b600c546106249060ff8082169161010090041682565b6040805160ff9384168152929091166020830152016102a4565b61031861064c366004613bf5565b612042565b61032d61065f36600461475c565b612131565b61032d610672366004614801565b612704565b610318610685366004614528565b612751565b61032d610698366004614801565b6127ca565b60008181526002602052604090206060906106b790612892565b92915050565b600d81815481106106cd57600080fd5b60009182526020918290206014909102018054600182015460048301546005840154600685015460408051608081018252600788015460ff81811683526101008083048216848d015262010000830482168486015263010000009092048116606084015260088a015460098b0154600a8c0154600b8d01548751808901909852600c8e0154808616895286900485169e88019e909e5260118d01546012909d0154848d169f5094909b0483169c999b989a9799969894979196909591949216929091908e565b600b546001600160a01b031633146107c65760405162461bcd60e51b81526004016107bd9061482d565b60405180910390fd5b6107d3838383600061289f565b505050565b6000808212156107f0576107eb82614871565b6106b7565b5090565b600c5460ff16821480156108115750600c54610100900460ff1681145b610925576007546001600160a01b031633146108665760405162461bcd60e51b8152602060048201526014602482015273139bdd081c1b185e595c9cc818dbdb9d1c9858dd60621b60448201526064016107bd565b6000600d858154811061087b5761087b61488d565b60009182526020909120600854604051630e77a07b60e11b81526014909302909101925060138301916001600160a01b0390911690631cef40f6906108ca9089908990899089906004016148a3565b6020604051808303816000875af11580156108e9573d6000803e3d6000fd5b505050506040513d601f19601f8201168201806040525081019061090d91906148c9565b81546001810183556000928352602090922090910155505b50505050565b600180546000918261093c836148e2565b919050555060015460014361095191906148fb565b403360405160200161098893929190928352602083019190915260601b6bffffffffffffffffffffffff1916604082015260540190565b60405160208183030381529060405280519060200120905090565b6000806109b260016006611ef6565b60ff169050827ffe34d093a460a16ee5fb374540914d1c734a17502c0c1a87b387c8d6097e1c51826040516109e991815260200190565b60405180910390a292915050565b600b546001600160a01b03163314610a215760405162461bcd60e51b81526004016107bd9061482d565b6000600d8581548110610a3657610a3661488d565b60009182526020909120600654604051635f87260160e01b81526004810188905260248101899052601490930290910192506001600160a01b031690635f87260190604401600060405180830381600087803b158015610a9557600080fd5b505af1158015610aa9573d6000803e3d6000fd5b5050600354604051631ff77ac560e11b8152600481018790526001600160a01b039091169250633feef58a9150602401600060405180830381600087803b158015610af357600080fd5b505af1158015610b07573d6000803e3d6000fd5b505050600282015460009150610b1f906001906148fb565b6001600160401b03811115610b3657610b36613d48565b604051908082528060200260200182016040528015610b5f578160200160208202803683370190505b5090506000805b6002840154811015610bd657808514610bc457836002018181548110610b8e57610b8e61488d565b9060005260206000200154838381518110610bab57610bab61488d565b602090810291909101015281610bc0816148e2565b9250505b80610bce816148e2565b915050610b66565b508151610bec906002850190602085019061392e565b50600583018054906000610bff8361490e565b90915550506002830154600484015403610c1b57600060048401555b6002830154600003610c3057825460ff191683555b50505050505050565b60606000600d8381548110610c5057610c5061488d565b9060005260206000209060140201600201805490506001600160401b03811115610c7c57610c7c613d48565b604051908082528060200260200182016040528015610ca5578160200160208202803683370190505b50905060005b8151811015610d2357600d8481548110610cc757610cc761488d565b90600052602060002090601402016002018181548110610ce957610ce961488d565b9060005260206000200154828281518110610d0657610d0661488d565b602090810291909101015280610d1b816148e2565b915050610cab565b5092915050565b600080610d3786866148fb565b9050600083610d468684614925565b610d509190614952565b9050610d5c8782614966565b979650505050505050565b6000600d8281548110610d7c57610d7c61488d565b600091825260209091206014909102018054909150610100900460ff161515600103610dbb57604051633ae1755360e21b815260040160405180910390fd5b6002810154600103610de05760405163015b385160e41b815260040160405180910390fd5b80601101548160120154610df49190614966565b421015610e1457604051630df3377b60e31b815260040160405180910390fd5b600a81015415610e2957610e2982600061327e565b610e568282600201836004015481548110610e4657610e4661488d565b9060005260206000200154613348565b5050565b600080610e66856109a3565b604080518281526020810187905290810185905290915085907f75b6a8325595f91135e07382840634226793c68c9e59623da7e10d7ad3d95b959060600160405180910390a280600103610ebe576000915050610eeb565b600383610ecb8684614966565b610ed59190614979565b1315610ee5576001915050610eeb565b60009150505b9392505050565b600081610f00846004614925565b610eeb9190614966565b6000600d8381548110610f1f57610f1f61488d565b600091825260209091206007546014909202016009810154604051636621a42160e01b815260048101919091529092506001600160a01b0390911690636621a42190602401602060405180830381865afa158015610f81573d6000803e3d6000fd5b505050506040513d601f19601f82011682018060405250810190610fa591906149a9565b6001600160a01b0316336001600160a01b031614610fde578060090154604051637111468960e11b81526004016107bd91815260200190565b6107d3838361327e565b610ff0613975565b600d82815481106110035761100361488d565b6000918252602091829020604080516102a0810182526014909302909101805460ff80821615158552610100909104161515838501526001810154838301526002810180548351818702810187019094528084529394919360608601939283018282801561109057602002820191906000526020600020905b81548152602001906001019080831161107c575b50505050508152602001600382018054806020026020016040519081016040528092919081815260200182805480156110e857602002820191906000526020600020905b8154815260200190600101908083116110d4575b505050918352505060048201546020808301919091526005808401546040808501919091526006850154606080860191909152815160808181018452600788015460ff80821684526101008083048216988501989098526201000082048116958401959095526301000000900484169282019290925290850152600885015460a0850152600985015460c0850152600a85015460e0850152600b8501549290930192919091169081111561119e5761119e613c5c565b60058111156111af576111af613c5c565b8152604080518082018252600c84015460ff80821683526101009091041660208281019190915280840191909152600d8401805483518184028101840185528181529390940193909183018282801561122757602002820191906000526020600020905b815481526020019060010190808311611213575b50505050508152602001600e820180548060200260200160405190810160405280929190818152602001828054801561127f57602002820191906000526020600020905b81548152602001906001019080831161126b575b50505050508152602001600f82018054806020026020016040519081016040528092919081815260200182805480156112d757602002820191906000526020600020905b8154815260200190600101908083116112c3575b505050505081526020016010820180548060200260200160405190810160405280929190818152602001828054801561132f57602002820191906000526020600020905b81548152602001906001019080831161131b575b5050505050815260200160118201548152602001601282015481526020016013820180548060200260200160405190810160405280929190818152602001828054801561139b57602002820191906000526020600020905b815481526020019060010190808311611387575b5050505050815250509050919050565b6113b3613425565b6113bd600061347f565b565b60606000600d83815481106113d6576113d661488d565b9060005260206000209060140201600201805490506001600160401b0381111561140257611402613d48565b60405190808252806020026020018201604052801561143b57816020015b611428613a80565b8152602001906001900390816114205790505b50905060005b8151811015610d2357600754600d80546001600160a01b03909216916310f67fb39190879081106114745761147461488d565b906000526020600020906014020160020183815481106114965761149661488d565b90600052602060002001546040518263ffffffff1660e01b81526004016114bf91815260200190565b600060405180830381865afa1580156114dc573d6000803e3d6000fd5b505050506040513d6000823e601f3d908101601f191682016040526115049190810190614b5c565b8282815181106115165761151661488d565b6020026020010181905250808061152c906148e2565b915050611441565b60008160000361154657506001919050565b8160010361155657506000919050565b8160020361156657506003919050565b8160030361157657506002919050565b60405162461bcd60e51b815260206004820152600d60248201526c2130b2103234b932b1ba34b7b760991b60448201526064016107bd565b6115b6613425565b6109258484848461289f565b6115ca613425565b600380546001600160a01b03199081166001600160a01b039a8b1617909155600480548216988a169890981790975560098054881696891696909617909555600b805487169488169490941790935560058054861692871692909217909155600680548516918616919091179055600780548416918516919091179055600880549092169216919091179055565b6040805180820190915260008082526020820152826000036116aa576040518060400160405280600184600001516116909190614ca7565b60ff168152602001836020015160ff1681525090506106b7565b826001036116ce576040518060400160405280836000015160016116909190614cc0565b8260020361170b576040518060400160405280836000015160ff168152602001836020015160016116ff9190614cc0565b60ff16905290506106b7565b8260030361173c576040518060400160405280836000015160ff168152602001600184602001516116ff9190614ca7565b6000611747846134cf565b6040516020016117579190614cfd565b60405160208183030381529060405290508060405162461bcd60e51b81526004016107bd9190614d38565b600080826001611793866002614e4f565b61179d91906148fb565b901b8516831c9150509392505050565b600e60205281600052604060002081815481106117c957600080fd5b90600052602060002001600091509150505481565b600b546001600160a01b031633146118085760405162461bcd60e51b81526004016107bd9061482d565b8061186c5760075460405163ce93229760e01b8152600481018490526001600160a01b039091169063ce93229790602401600060405180830381600087803b15801561185357600080fd5b505af1158015611867573d6000803e3d6000fd5b505050505b6007546040516347d0e3c960e01b8152600481018490526000916001600160a01b0316906347d0e3c990602401602060405180830381865afa1580156118b6573d6000803e3d6000fd5b505050506040513d601f19601f820116820180604052508101906118da91906148c9565b905060038110610925576109258484613348565b6001600160a01b0381166000908152600e6020526040812054606091906001600160401b0381111561192257611922613d48565b60405190808252806020026020018201604052801561195b57816020015b611948613975565b8152602001906001900390816119405790505b50905060005b8151811015610d23576001600160a01b0384166000908152600e602052604090208054600d9190839081106119985761199861488d565b9060005260206000200154815481106119b3576119b361488d565b6000918252602091829020604080516102a0810182526014909302909101805460ff808216151585526101009091041615158385015260018101548383015260028101805483518187028101870190945280845293949193606086019392830182828015611a4057602002820191906000526020600020905b815481526020019060010190808311611a2c575b5050505050815260200160038201805480602002602001604051908101604052809291908181526020018280548015611a9857602002820191906000526020600020905b815481526020019060010190808311611a84575b505050918352505060048201546020808301919091526005808401546040808501919091526006850154606080860191909152815160808181018452600788015460ff80821684526101008083048216988501989098526201000082048116958401959095526301000000900484169282019290925290850152600885015460a0850152600985015460c0850152600a85015460e0850152600b85015492909301929190911690811115611b4e57611b4e613c5c565b6005811115611b5f57611b5f613c5c565b8152604080518082018252600c84015460ff80821683526101009091041660208281019190915280840191909152600d84018054835181840281018401855281815293909401939091830182828015611bd757602002820191906000526020600020905b815481526020019060010190808311611bc3575b50505050508152602001600e8201805480602002602001604051908101604052809291908181526020018280548015611c2f57602002820191906000526020600020905b815481526020019060010190808311611c1b575b50505050508152602001600f8201805480602002602001604051908101604052809291908181526020018280548015611c8757602002820191906000526020600020905b815481526020019060010190808311611c73575b5050505050815260200160108201805480602002602001604051908101604052809291908181526020018280548015611cdf57602002820191906000526020600020905b815481526020019060010190808311611ccb575b50505050508152602001601182015481526020016012820154815260200160138201805480602002602001604051908101604052809291908181526020018280548015611d4b57602002820191906000526020600020905b815481526020019060010190808311611d37575b505050505081525050828281518110611d6657611d6661488d565b60200260200101819052508080611d7c906148e2565b915050611961565b60606000600d8381548110611d9b57611d9b61488d565b9060005260206000209060140201600301805490506001600160401b03811115611dc757611dc7613d48565b604051908082528060200260200182016040528015611e0057816020015b611ded613b40565b815260200190600190039081611de55790505b50905060005b8151811015610d2357600354600d80546001600160a01b0390921691634810bc59919087908110611e3957611e3961488d565b90600052602060002090601402016003018381548110611e5b57611e5b61488d565b90600052602060002001546040518263ffffffff1660e01b8152600401611e8491815260200190565b61022060405180830381865afa158015611ea2573d6000803e3d6000fd5b505050506040513d601f19601f82011682018060405250810190611ec69190614e5b565b828281518110611ed857611ed861488d565b60200260200101819052508080611eee906148e2565b915050611e06565b6001805460009182611f07836148e2565b9190505550600033600154600143611f1f91906148fb565b60405160609390931b6bffffffffffffffffffffffff19166020840152603483019190915240605482015260740160408051601f19818403018152919052805160209091012090506000611f738585614ca7565b611f7e906001614cc0565b90508460ff168160ff1683611f939190614f0f565b611f9d9190614966565b95945050505050565b600854600d80546060926001600160a01b031691633362ec729185908110611fd057611fd061488d565b90600052602060002090601402016013016040518263ffffffff1660e01b8152600401611ffd9190614f58565b600060405180830381865afa15801561201a573d6000803e3d6000fd5b505050506040513d6000823e601f3d908101601f191682016040526106b79190810190614f6b565b6000600d82815481106120575761205761488d565b6000918252602090912060088054601490930290910190810154604051632224e7f360e11b81529193506001600160a01b0390921691634449cfe6916120ab91869160028701906013880190600401615060565b600060405180830381600087803b1580156120c557600080fd5b505af11580156120d9573d6000803e3d6000fd5b5050825461ff001916835550506040518281527f0b902bf94ea0561a1c7b03fed6f663a1ae180c3c6d92b1b529718058696a4c389060200160405180910390a160008281526002602052604090206107d390436135d7565b6009546000906001600160a01b031633146121835760405162461bcd60e51b8152602060048201526012602482015271139bdd081b1bd8989e4818dbdb9d1c9858dd60721b60448201526064016107bd565b600d80546001818101808455600093845260149092027fd7b6990105719101dabeb77144f2a3385c8033acd3af97e9423a695e81ad1eb50192916121c791906148fb565b6001808401829055835460ff19161783556000600684015586519091506121f7906002840190602089019061392e565b50600582018590556040805160808101825260008082526020820181905291810182905260600181905260078301805463ffffffff191690558490036122ae57600480546040805163780fe1ad60e11b815290516001600160a01b039092169263f01fc35a92828201926020929082900301816000875af1158015612280573d6000803e3d6000fd5b505050506040513d601f19601f820116820180604052508101906122a491906148c9565b6008830155612321565b6004805460405163148e052f60e21b81529182018690526001600160a01b03169063523814bc906024016020604051808303816000875af11580156122f7573d6000803e3d6000fd5b505050506040513d601f19601f8201168201806040525081019061231b91906148c9565b60088301555b60005b61232f6001876148fb565b811161256457600883015460408051808201909152600c5460ff808216835261010090910416602082015260028501805461238993929190859081106123775761237761488d565b9060005260206000200154600061289f565b60075487516000916001600160a01b031690636621a421908a90859081106123b3576123b361488d565b60200260200101516040518263ffffffff1660e01b81526004016123d991815260200190565b602060405180830381865afa1580156123f6573d6000803e3d6000fd5b505050506040513d601f19601f8201168201806040525081019061241a91906149a9565b6001600160a01b038082166000908152600e6020908152604082208054600181018255908352908220018690556007548b5193945090929116906373e4195c908b908690811061246c5761246c61488d565b60200260200101516040518263ffffffff1660e01b815260040161249291815260200190565b602060405180830381865afa1580156124af573d6000803e3d6000fd5b505050506040513d601f19601f820116820180604052508101906124d391906148c9565b60035460405163b60b9fcb60e01b815260048101879052602481018390529192506001600160a01b03169063b60b9fcb90604401600060405180830381600087803b15801561252157600080fd5b505af1158015612535573d6000803e3d6000fd5b50505050600385018054600181018255600091825260209091200155508061255c816148e2565b915050612324565b5060075460405163e7169ec560e01b81526001600160a01b039091169063e7169ec5906125979089908590600401615091565b600060405180830381600087803b1580156125b157600080fd5b505af11580156125c5573d6000803e3d6000fd5b5050600654604051633b09709560e21b81526001600160a01b03909116925063ec25c25491506125fb9084908a906004016150b3565b600060405180830381600087803b15801561261557600080fd5b505af1158015612629573d6000803e3d6000fd5b505050506000604051806101e00160405280600181526020016002815260200160038152602001600481526020016005815260200160068152602001600781526020016008815260200160098152602001600a8152602001600b8152602001600c8152602001600d8152602001600e8152602001600f81525090508083600d0190600f6126b792919061392e565b506126c7600e840182600f61392e565b506126d8600f80850190839061392e565b506126e86010840182600f61392e565b505061012c601183015542601290920191909155949350505050565b600080612724836000015160000b856000015160000b6103289190614979565b90506000612745846020015160000b866020015160000b6103289190614979565b9050611f9d8183614966565b612759613425565b6001600160a01b0381166127be5760405162461bcd60e51b815260206004820152602660248201527f4f776e61626c653a206e6577206f776e657220697320746865207a65726f206160448201526564647265737360d01b60648201526084016107bd565b6127c78161347f565b50565b805182516000916127da916150cc565b60000b6001036127ec575060006106b7565b815183516127fa91906150cc565b60000b1961280a575060016106b7565b8160200151836020015161281e91906150cc565b60000b1961282e575060026106b7565b8160200151836020015161284291906150cc565b60000b600103612854575060036106b7565b60405162461bcd60e51b8152602060048201526013602482015272115c9c9bdc8e88139bdd0818591a9858d95b9d606a1b60448201526064016107bd565b60606000610eeb836135e3565b6000600d85815481106128b4576128b461488d565b90600052602060002090601402019050806002016000815481106128da576128da61488d565b906000526020600020015483141580156129145750806002016001815481106129055761290561488d565b90600052602060002001548314155b80156129405750806002016002815481106129315761293161488d565b90600052602060002001548314155b801561296c57508060020160038154811061295d5761295d61488d565b90600052602060002001548314155b156129945760405163013eacb560e01b815260048101869052602481018490526044016107bd565b600754600d80546001600160a01b0390921691638d491b3e9187918791908a9081106129c2576129c261488d565b9060005260206000209060140201600801546040518463ffffffff1660e01b81526004016129f2939291906150ed565b6020604051808303816000875af1158015612a11573d6000803e3d6000fd5b505050506040513d601f19601f82011682018060405250810190612a35919061511c565b61327757600454600d80546000926001600160a01b0316916381bad36d9189908110612a6357612a6361488d565b90600052602060002090601402016008015487600001518860200151876040518563ffffffff1660e01b8152600401612ab9949392919093845260ff928316602085015291166040830152606082015260800190565b6020604051808303816000875af1158015612ad8573d6000803e3d6000fd5b505050506040513d601f19601f82011682018060405250810190612afc91906148c9565b600454600d80549293506000926001600160a01b0390921691635805828391908a908110612b2c57612b2c61488d565b906000526020600020906014020160080154846040518363ffffffff1660e01b8152600401612b65929190918252602082015260400190565b60a060405180830381865afa158015612b82573d6000803e3d6000fd5b505050506040513d601f19601f82011682018060405250810190612ba69190615139565b9050600282118015612bcb5750600081516005811115612bc857612bc8613c5c565b14155b15610c3057600181516005811115612be557612be5613c5c565b03612c3857600d8781548110612bfd57612bfd61488d565b600091825260208220600760149092020101805460ff1691612c1e836151cb565b91906101000a81548160ff021916908360ff160217905550505b600281516005811115612c4d57612c4d613c5c565b03612ca857600d8781548110612c6557612c6561488d565b600091825260209091206014909102016007018054610100900460ff16906001612c8e836151cb565b91906101000a81548160ff021916908360ff160217905550505b600381516005811115612cbd57612cbd613c5c565b03612d1957600d8781548110612cd557612cd561488d565b60009182526020909120601490910201600701805462010000900460ff16906002612cff836151cb565b91906101000a81548160ff021916908360ff160217905550505b600481516005811115612d2e57612d2e613c5c565b03612d8b57600d8781548110612d4657612d4661488d565b6000918252602090912060149091020160070180546301000000900460ff16906003612d71836151cb565b91906101000a81548160ff021916908360ff160217905550505b602081015115612f0b57600554602082015160405163c82c37b960e01b815260048101919091526000916001600160a01b03169063c82c37b990602401600060405180830381865afa158015612de5573d6000803e3d6000fd5b505050506040513d6000823e601f3d908101601f19168201604052612e0d9190810190615277565b90508060200151612f055785600d8981548110612e2c57612e2c61488d565b9060005260206000209060140201600901819055508160200151600d8981548110612e5957612e5961488d565b9060005260206000209060140201600a01819055506005600d8981548110612e8357612e8361488d565b60009182526020909120600b60149092020101805460ff19166001836005811115612eb057612eb0613c5c565b021790555086600d8981548110612ec957612ec961488d565b60009182526020918290208351600c6014909302909101919091018054939092015160ff9081166101000261ffff199094169116179190911790555b50610c30565b600081516005811115612f2057612f20613c5c565b14610c305784600d8881548110612f3957612f3961488d565b90600052602060002090601402016009018190555085600d8881548110612f6257612f6261488d565b60009182526020918290208351600c6014909302909101919091018054939092015160ff9081166101000261ffff19909416911617919091179055600181516005811115612fb257612fb2613c5c565b0361305357612fe3600d8881548110612fcd57612fcd61488d565b9060005260206000209060140201600d0161363f565b600d8881548110612ff657612ff661488d565b9060005260206000209060140201600a01819055506001600d88815481106130205761302061488d565b60009182526020909120600b60149092020101805460ff1916600183600581111561304d5761304d613c5c565b02179055505b60028151600581111561306857613068613c5c565b0361310957613099600d88815481106130835761308361488d565b9060005260206000209060140201600e0161363f565b600d88815481106130ac576130ac61488d565b9060005260206000209060140201600a01819055506002600d88815481106130d6576130d661488d565b60009182526020909120600b60149092020101805460ff1916600183600581111561310357613103613c5c565b02179055505b60038151600581111561311e5761311e613c5c565b036131bf5761314f600d88815481106131395761313961488d565b9060005260206000209060140201600f0161363f565b600d88815481106131625761316261488d565b9060005260206000209060140201600a01819055506003600d888154811061318c5761318c61488d565b60009182526020909120600b60149092020101805460ff191660018360058111156131b9576131b9613c5c565b02179055505b6004815160058111156131d4576131d4613c5c565b03610c3057613205600d88815481106131ef576131ef61488d565b906000526020600020906014020160100161363f565b600d88815481106132185761321861488d565b9060005260206000209060140201600a01819055506004600d88815481106132425761324261488d565b60009182526020909120600b60149092020101805460ff1916600183600581111561326f5761326f613c5c565b021790555050505b5050505050565b6000600d83815481106132935761329361488d565b6000918252602090912060075460149092020160098101546008820154600a830154600b840154604051636d291bbb60e01b81529496506001600160a01b0390951694636d291bbb946132f994899490938b939192600c8b019260ff1690600401615368565b600060405180830381600087803b15801561331357600080fd5b505af1158015613327573d6000803e3d6000fd5b5050600060098401819055600a8401555050600b01805460ff191690555050565b6000600d838154811061335d5761335d61488d565b6000918252602090912060075460405163065c363f60e41b815260048101869052601490930290910192506001600160a01b0316906365c363f090602401600060405180830381600087803b1580156133b557600080fd5b505af11580156133c9573d6000803e3d6000fd5b5050426012840155505060028101546133e4906001906148fb565b8160040154101561340b57600481018054906000613401836148e2565b9190505550505050565b613419838260080154613765565b60006004820155505050565b6000546001600160a01b031633146113bd5760405162461bcd60e51b815260206004820181905260248201527f4f776e61626c653a2063616c6c6572206973206e6f7420746865206f776e657260448201526064016107bd565b600080546001600160a01b038381166001600160a01b0319831681178455604051919092169283917f8be0079c531659141344cd1fd0a4f28419497f9722a3daafe3b4186f6b6457e09190a35050565b6060816000036134f65750506040805180820190915260018152600360fc1b602082015290565b8160005b8115613520578061350a816148e2565b91506135199050600a83614952565b91506134fa565b6000816001600160401b0381111561353a5761353a613d48565b6040519080825280601f01601f191660200182016040528015613564576020820181803683370190505b5090505b84156135cf576135796001836148fb565b9150613586600a86614f0f565b613591906030614966565b60f81b8183815181106135a6576135a661488d565b60200101906001600160f81b031916908160001a9053506135c8600a86614952565b9450613568565b949350505050565b6000610eeb83836138df565b60608160000180548060200260200160405190810160405280929190818152602001828054801561363357602002820191906000526020600020905b81548152602001906001019080831161361f575b50505050509050919050565b80546000908190613652906001906148fb565b90505b8015613702576000613668600083611ef6565b9050838160ff168154811061367f5761367f61488d565b906000526020600020015484838154811061369c5761369c61488d565b90600052602060002001548584815481106136b9576136b961488d565b906000526020600020016000878560ff16815481106136da576136da61488d565b60009182526020909120019290925591909155508190506136fa8161490e565b915050613655565b5081546000908390613716906001906148fb565b815481106137265761372661488d565b9060005260206000200154905082805480613743576137436153bd565b600190038181906000526020600020016000905590558060ff16915050919050565b6000600d838154811061377a5761377a61488d565b9060005260206000209060140201905080600601600081548092919061379f906148e2565b909155505060048054604051630b06115560e31b81529182018490526001600160a01b0316906358308aa890602401600060405180830381600087803b1580156137e857600080fd5b505af11580156137fc573d6000803e3d6000fd5b50506004805460405163c6b41b4560e01b8152918201869052600160248301526001600160a01b0316925063c6b41b459150604401600060405180830381600087803b15801561384b57600080fd5b505af115801561385f573d6000803e3d6000fd5b5050600754600884015460405163668a7f3b60e01b81526001600160a01b03909216935063668a7f3b925061389b9160028601906004016153d3565b600060405180830381600087803b1580156138b557600080fd5b505af11580156138c9573d6000803e3d6000fd5b5050825461ff0019166101001790925550505050565b6000818152600183016020526040812054613926575081546001818101845560008481526020808220909301849055845484825282860190935260409020919091556106b7565b5060006106b7565b828054828255906000526020600020908101928215613969579160200282015b8281111561396957825182559160200191906001019061394e565b506107f0929150613b9c565b604051806102a001604052806000151581526020016000151581526020016000815260200160608152602001606081526020016000815260200160008152602001600081526020016139f46040518060800160405280600060ff168152602001600060ff168152602001600060ff168152602001600060ff1681525090565b815260200160008152602001600081526020016000815260200160006005811115613a2157613a21613c5c565b8152602001613a496040518060400160405280600060ff168152602001600060ff1681525090565b8152602001606081526020016060815260200160608152602001606081526020016000815260200160008152602001606081525090565b604051806101c0016040528060006001600160a01b031681526020016000815260200160008152602001613ab2613bb1565b8152602001613ada6040518060400160405280600060ff168152602001600060ff1681525090565b8152602001613b026040518060400160405280600060ff168152602001600060ff1681525090565b81526000602082018190526040820181905260608083018290526080830182905260a083015260c0820181905260e082018190526101009091015290565b604051806101400160405280600080191681526020016000815260200160008152602001613b6c613bb1565b815260006020820181905260408201819052606082018190526080820181905260a0820181905260c09091015290565b5b808211156107f05760008155600101613b9d565b6040805161010081018252600080825260208201819052918101829052606081018290526080810182905260a0810182905260c0810182905260e081019190915290565b600060208284031215613c0757600080fd5b5035919050565b600081518084526020808501945080840160005b83811015613c3e57815187529582019590820190600101613c22565b509495945050505050565b602081526000610eeb6020830184613c0e565b634e487b7160e01b600052602160045260246000fd5b60068110613c8257613c82613c5c565b9052565b6000610240820190508f151582528e151560208301528d60408301528c60608301528b60808301528a60a0830152613cee60c083018b60ff815116825260ff602082015116602083015260ff604082015116604083015260ff60608201511660608301525050565b886101408301528761016083015286610180830152613d116101a0830187613c72565b845160ff9081166101c08401526020860151166101e083015261020082019390935261022001529c9b505050505050505050505050565b634e487b7160e01b600052604160045260246000fd5b604080519081016001600160401b0381118282101715613d8057613d80613d48565b60405290565b6040516101c081016001600160401b0381118282101715613d8057613d80613d48565b60405161014081016001600160401b0381118282101715613d8057613d80613d48565b60405160c081016001600160401b0381118282101715613d8057613d80613d48565b60405160e081016001600160401b0381118282101715613d8057613d80613d48565b604051601f8201601f191681016001600160401b0381118282101715613e3857613e38613d48565b604052919050565b60ff811681146127c757600080fd5b600060408284031215613e6157600080fd5b613e69613d5e565b90508135613e7681613e40565b81526020820135613e8681613e40565b602082015292915050565b600080600060808486031215613ea657600080fd5b83359250613eb78560208601613e4f565b9150606084013590509250925092565b600981106127c757600080fd5b60008060008060808587031215613eea57600080fd5b843593506020850135613efc81613ec7565b93969395505050506040820135916060013590565b60008060008060808587031215613f2757600080fd5b5050823594602084013594506040840135936060013592509050565b600080600060608486031215613f5857600080fd5b505081359360208301359350604090920135919050565b60008060408385031215613f8257600080fd5b50508035926020909101359150565b80511515825260006103206020830151613faf602086018215159052565b50604083015160408501526060830151816060860152613fd182860182613c0e565b91505060808301518482036080860152613feb8282613c0e565b91505060a083015160a085015260c083015160c085015260e083015160e08501526101008084015161404c8287018260ff815116825260ff602082015116602083015260ff604082015116604083015260ff60608201511660608301525050565b5050610120830151610180818187015261014085015191506101a0828188015261016086015192506101c083818901528287015193506101e0925061409383890185613c72565b908601519250610200906140b988830185805160ff908116835260209182015116910152565b80870151935050610240878503818901526140d48585613c0e565b94508287015193506102609250878503838901526140f28585613c0e565b94508187015193506102809150878503828901526141108585613c0e565b945061022087015193508785036102a089015261412d8585613c0e565b908701516102c0890152918601516102e08801528501518682036103008801529092509050611f9d8282613c0e565b602081526000610eeb6020830184613f91565b8051600081810b84526020830151810b60208501526040830151810b60408501526060830151810b60608501526080830151810b608085015260a0830151810b60a085015260c0830151810b60c0850152505060e0810151151560e08301525050565b600081518084526020808501945080840160005b83811015613c3e57815160ff16875295820195908201906001016141e6565b60006020808301818452808551808352604092508286019150828160051b87010184880160005b8381101561436257888303603f19018552815180516001600160a01b031684526102e0888201518986015287820151888601526060808301516142718288018261416f565b5050608082015161016061429781880183805160ff908116835260209182015116910152565b60a084015191506101a06142bd81890184805160ff908116835260209182015116910152565b60c085015192506142d46101e089018460000b9052565b60e085015160ff9081166102008a015261010086015181166102208a0152610120860151166102408901526101408501516102608901859052925061431b848901846141d2565b935081850151925061433361028089018460ff169052565b61018085015115156102a0890152909301516102c090960195909552958801959350509086019060010161422c565b509098975050505050505050565b60008060008060a0858703121561438657600080fd5b843593506143978660208701613e4f565b93969395505050506060820135916080013590565b6001600160a01b03811681146127c757600080fd5b600080600080600080600080610100898b0312156143de57600080fd5b88356143e9816143ac565b975060208901356143f9816143ac565b96506040890135614409816143ac565b95506060890135614419816143ac565b94506080890135614429816143ac565b935060a0890135614439816143ac565b925060c0890135614449816143ac565b915060e0890135614459816143ac565b809150509295985092959890939650565b6000806060838503121561447d57600080fd5b8235915061448e8460208501613e4f565b90509250929050565b604081016106b78284805160ff908116835260209182015116910152565b600080604083850312156144c857600080fd5b82356144d3816143ac565b946020939093013593505050565b80151581146127c757600080fd5b60008060006060848603121561450457600080fd5b8335925060208401359150604084013561451d816144e1565b809150509250925092565b60006020828403121561453a57600080fd5b8135610eeb816143ac565b6000602080830181845280855180835260408601915060408160051b870101925083870160005b8281101561459a57603f19888603018452614588858351613f91565b9450928501929085019060010161456c565b5092979650505050505050565b602080825282518282018190526000919060409081850190868401855b8281101561465857815180518552868101518786015285810151868601526060808201516145f48288018261416f565b5050608081015160ff90811661016087015260a0820151811661018087015260c082015181166101a087015260e0820151166101c086015261010081015115156101e0860152610120015161020085015261022090930192908501906001016145c4565b5091979650505050505050565b6000806040838503121561467857600080fd5b823561468381613e40565b9150602083013561469381613e40565b809150509250929050565b60098110613c8257613c82613c5c565b602080825282518282018190526000919060409081850190868401855b82811015614658578151805185528681015187860152858101516146f18787018261469e565b50606081810151805160ff9081168884015260208201511660808801525050608081015160a0868101919091520151151560c085015260e090930192908501906001016146cb565b60006001600160401b0382111561475257614752613d48565b5060051b60200190565b60008060006060848603121561477157600080fd5b83356001600160401b0381111561478757600080fd5b8401601f8101861361479857600080fd5b803560206147ad6147a883614739565b613e10565b82815260059290921b830181019181810190898411156147cc57600080fd5b938201935b838510156147ea578435825293820193908201906147d1565b999188013598505060409096013595945050505050565b6000806080838503121561481457600080fd5b61481e8484613e4f565b915061448e8460408501613e4f565b602080825260149082015273139bdd081858dd1a5bdb9cc818dbdb9d1c9858dd60621b604082015260600190565b634e487b7160e01b600052601160045260246000fd5b6000600160ff1b82016148865761488661485b565b5060000390565b634e487b7160e01b600052603260045260246000fd5b848152608081016148b7602083018661469e565b60408201939093526060015292915050565b6000602082840312156148db57600080fd5b5051919050565b6000600182016148f4576148f461485b565b5060010190565b818103818111156106b7576106b761485b565b60008161491d5761491d61485b565b506000190190565b80820281158282048414176106b7576106b761485b565b634e487b7160e01b600052601260045260246000fd5b6000826149615761496161493c565b500490565b808201808211156106b7576106b761485b565b8181036000831280158383131683831282161715610d2357610d2361485b565b80516149a4816143ac565b919050565b6000602082840312156149bb57600080fd5b8151610eeb816143ac565b8051600081900b81146149a457600080fd5b80516149a4816144e1565b60006101008083850312156149f757600080fd5b604051908101906001600160401b0382118183101715614a1957614a19613d48565b81604052809250614a29846149c6565b8152614a37602085016149c6565b6020820152614a48604085016149c6565b6040820152614a59606085016149c6565b6060820152614a6a608085016149c6565b6080820152614a7b60a085016149c6565b60a0820152614a8c60c085016149c6565b60c082015260e08401519150614aa1826144e1565b60e0015292915050565b80516149a481613e40565b600060408284031215614ac857600080fd5b614ad0613d5e565b90508151614add81613e40565b81526020820151613e8681613e40565b600082601f830112614afe57600080fd5b81516020614b0e6147a883614739565b82815260059290921b84018101918181019086841115614b2d57600080fd5b8286015b84811015614b51578051614b4481613e40565b8352918301918301614b31565b509695505050505050565b600060208284031215614b6e57600080fd5b81516001600160401b0380821115614b8557600080fd5b908301906102e08286031215614b9a57600080fd5b614ba2613d86565b614bab83614999565b81526020830151602082015260408301516040820152614bce86606085016149e3565b6060820152610160614be287828601614ab6565b60808301526101a0614bf688828701614ab6565b60a0840152614c086101e086016149c6565b60c0840152614c1a6102008601614aab565b60e0840152614c2c6102208601614aab565b610100840152614c3f6102408601614aab565b61012084015261026085015184811115614c5857600080fd5b614c6489828801614aed565b61014085015250614c786102808601614aab565b82840152614c896102a086016149d8565b6101808401526102c085015181840152505080935050505092915050565b60ff82811682821603908111156106b7576106b761485b565b60ff81811683821601908111156106b7576106b761485b565b60005b83811015614cf4578181015183820152602001614cdc565b50506000910152565b72024b73b30b634b2103234b932b1ba34b7b71d1606d1b815260008251614d2b816013850160208701614cd9565b9190910160130192915050565b6020815260008251806020840152614d57816040850160208701614cd9565b601f01601f19169190910160400192915050565b600181815b80851115614da6578160001904821115614d8c57614d8c61485b565b80851615614d9957918102915b93841c9390800290614d70565b509250929050565b600082614dbd575060016106b7565b81614dca575060006106b7565b8160018114614de05760028114614dea57614e06565b60019150506106b7565b60ff841115614dfb57614dfb61485b565b50506001821b6106b7565b5060208310610133831016604e8410600b8410161715614e29575081810a6106b7565b614e338383614d6b565b8060001904821115614e4757614e4761485b565b029392505050565b6000610eeb8383614dae565b60006102208284031215614e6e57600080fd5b614e76613da9565b825181526020830151602082015260408301516040820152614e9b84606085016149e3565b6060820152614ead6101608401614aab565b6080820152614ebf6101808401614aab565b60a0820152614ed16101a08401614aab565b60c0820152614ee36101c08401614aab565b60e0820152614ef56101e084016149d8565b610100820152610200929092015161012083015250919050565b600082614f1e57614f1e61493c565b500690565b6000815480845260208085019450836000528060002060005b83811015613c3e57815487529582019560019182019101614f3c565b602081526000610eeb6020830184614f23565b60006020808385031215614f7e57600080fd5b82516001600160401b03811115614f9457600080fd5b8301601f81018513614fa557600080fd5b8051614fb36147a882614739565b81815260e09182028301840191848201919088841115614fd257600080fd5b938501935b838510156150545780858a031215614fef5760008081fd5b614ff7613dcc565b85518152868601518782015260408087015161501281613ec7565b9082015260606150248b888301614ab6565b9082015260a086810151608083015260c0870151615041816144e1565b9082015283529384019391850191614fd7565b50979650505050505050565b84815283602082015260806040820152600061507f6080830185614f23565b8281036060840152610d5c8185614f23565b6040815260006150a46040830185613c0e565b90508260208301529392505050565b8281526040602082015260006135cf6040830184613c0e565b600082810b9082900b03607f198112607f821317156106b7576106b761485b565b6080810161510b8286805160ff908116835260209182015116910152565b604082019390935260600152919050565b60006020828403121561512e57600080fd5b8151610eeb816144e1565b600060a0828403121561514b57600080fd5b60405160a081018181106001600160401b038211171561516d5761516d613d48565b60405282516006811061517f57600080fd5b815260208381015190820152604083015161519981613e40565b604082015260608301516151ac81613e40565b606082015260808301516151bf816144e1565b60808201529392505050565b600060ff821660ff81036151e1576151e161485b565b60010192915050565b600082601f8301126151fb57600080fd5b8151602061520b6147a883614739565b82815260069290921b8401810191818101908684111561522a57600080fd5b8286015b84811015614b5157604081890312156152475760008081fd5b61524f613d5e565b81516017811061525f5760008081fd5b8152818501518582015283529183019160400161522e565b60006020828403121561528957600080fd5b81516001600160401b03808211156152a057600080fd5b9083019060e082860312156152b457600080fd5b6152bc613dee565b825181526152cc602084016149d8565b60208201526152dd60408401614aab565b60408201526152ee60608401614aab565b606082015260808301518281111561530557600080fd5b615311878286016151ea565b60808301525060a08301518281111561532957600080fd5b615335878286016151ea565b60a08301525060c08301518281111561534d57600080fd5b615359878286016151ea565b60c08301525095945050505050565b600061010082019050888252876020830152866040830152856060830152845460ff8116608084015260ff8160081c1660a0840152508360c08301526153b160e0830184613c72565b98975050505050505050565b634e487b7160e01b600052603160045260246000fd5b8281526040602082015260006135cf6040830184614f2356fea2646970667358221220188624c4c4e3da3be189a417ec93e3416851bc5c8278b3ca94645e19926eb1fc64736f6c63430008110033",
  "devdoc": {
    "kind": "dev",
    "methods": {
      "owner()": {
        "details": "Returns the address of the current owner."
      },
      "renounceOwnership()": {
        "details": "Leaves the contract without owner. It will not be possible to call `onlyOwner` functions anymore. Can only be called by the current owner. NOTE: Renouncing ownership will leave the contract without an owner, thereby removing any functionality that is only available to the owner."
      },
      "transferOwnership(address)": {
        "details": "Transfers ownership of the contract to a new account (`newOwner`). Can only be called by the current owner."
      }
    },
    "version": 1
  },
  "userdoc": {
    "kind": "user",
    "methods": {},
    "version": 1
  },
  "storageLayout": {
    "storage": [
      {
        "astId": 7,
        "contract": "contracts/BCGames.sol:BCGames",
        "label": "_owner",
        "offset": 0,
        "slot": "0",
        "type": "t_address"
      },
      {
        "astId": 21561,
        "contract": "contracts/BCGames.sol:BCGames",
        "label": "TODO_randomSeed",
        "offset": 0,
        "slot": "1",
        "type": "t_uint256"
      },
      {
        "astId": 21566,
        "contract": "contracts/BCGames.sol:BCGames",
        "label": "gameToEventBlocks",
        "offset": 0,
        "slot": "2",
        "type": "t_mapping(t_uint256,t_struct(UintSet)3021_storage)"
      },
      {
        "astId": 12251,
        "contract": "contracts/BCGames.sol:BCGames",
        "label": "chars",
        "offset": 0,
        "slot": "3",
        "type": "t_contract(CharInterface)11937"
      },
      {
        "astId": 12254,
        "contract": "contracts/BCGames.sol:BCGames",
        "label": "maps",
        "offset": 0,
        "slot": "4",
        "type": "t_contract(MapInterface)12115"
      },
      {
        "astId": 12257,
        "contract": "contracts/BCGames.sol:BCGames",
        "label": "bcEvents",
        "offset": 0,
        "slot": "5",
        "type": "t_contract(EventsInterface)11911"
      },
      {
        "astId": 12260,
        "contract": "contracts/BCGames.sol:BCGames",
        "label": "items",
        "offset": 0,
        "slot": "6",
        "type": "t_contract(ItemsInterface)12144"
      },
      {
        "astId": 12263,
        "contract": "contracts/BCGames.sol:BCGames",
        "label": "players",
        "offset": 0,
        "slot": "7",
        "type": "t_contract(PlayersInterface)12240"
      },
      {
        "astId": 12266,
        "contract": "contracts/BCGames.sol:BCGames",
        "label": "denizens",
        "offset": 0,
        "slot": "8",
        "type": "t_contract(DenizensInterface)11870"
      },
      {
        "astId": 12268,
        "contract": "contracts/BCGames.sol:BCGames",
        "label": "lobbiesAddress",
        "offset": 0,
        "slot": "9",
        "type": "t_address"
      },
      {
        "astId": 12270,
        "contract": "contracts/BCGames.sol:BCGames",
        "label": "charsAddress",
        "offset": 0,
        "slot": "10",
        "type": "t_address"
      },
      {
        "astId": 12272,
        "contract": "contracts/BCGames.sol:BCGames",
        "label": "actionsAddress",
        "offset": 0,
        "slot": "11",
        "type": "t_address"
      },
      {
        "astId": 12371,
        "contract": "contracts/BCGames.sol:BCGames",
        "label": "StartLocation",
        "offset": 0,
        "slot": "12",
        "type": "t_struct(Position)21333_storage"
      },
      {
        "astId": 12375,
        "contract": "contracts/BCGames.sol:BCGames",
        "label": "games",
        "offset": 0,
        "slot": "13",
        "type": "t_array(t_struct(Game)21436_storage)dyn_storage"
      },
      {
        "astId": 12380,
        "contract": "contracts/BCGames.sol:BCGames",
        "label": "addressToGame",
        "offset": 0,
        "slot": "14",
        "type": "t_mapping(t_address,t_array(t_uint256)dyn_storage)"
      }
    ],
    "types": {
      "t_address": {
        "encoding": "inplace",
        "label": "address",
        "numberOfBytes": "20"
      },
      "t_array(t_bytes32)dyn_storage": {
        "base": "t_bytes32",
        "encoding": "dynamic_array",
        "label": "bytes32[]",
        "numberOfBytes": "32"
      },
      "t_array(t_struct(Game)21436_storage)dyn_storage": {
        "base": "t_struct(Game)21436_storage",
        "encoding": "dynamic_array",
        "label": "struct BCTypes.Game[]",
        "numberOfBytes": "32"
      },
      "t_array(t_uint256)dyn_storage": {
        "base": "t_uint256",
        "encoding": "dynamic_array",
        "label": "uint256[]",
        "numberOfBytes": "32"
      },
      "t_bool": {
        "encoding": "inplace",
        "label": "bool",
        "numberOfBytes": "1"
      },
      "t_bytes32": {
        "encoding": "inplace",
        "label": "bytes32",
        "numberOfBytes": "32"
      },
      "t_contract(CharInterface)11937": {
        "encoding": "inplace",
        "label": "contract CharInterface",
        "numberOfBytes": "20"
      },
      "t_contract(DenizensInterface)11870": {
        "encoding": "inplace",
        "label": "contract DenizensInterface",
        "numberOfBytes": "20"
      },
      "t_contract(EventsInterface)11911": {
        "encoding": "inplace",
        "label": "contract EventsInterface",
        "numberOfBytes": "20"
      },
      "t_contract(ItemsInterface)12144": {
        "encoding": "inplace",
        "label": "contract ItemsInterface",
        "numberOfBytes": "20"
      },
      "t_contract(MapInterface)12115": {
        "encoding": "inplace",
        "label": "contract MapInterface",
        "numberOfBytes": "20"
      },
      "t_contract(PlayersInterface)12240": {
        "encoding": "inplace",
        "label": "contract PlayersInterface",
        "numberOfBytes": "20"
      },
      "t_enum(BCEventType)21239": {
        "encoding": "inplace",
        "label": "enum BCTypes.BCEventType",
        "numberOfBytes": "1"
      },
      "t_mapping(t_address,t_array(t_uint256)dyn_storage)": {
        "encoding": "mapping",
        "key": "t_address",
        "label": "mapping(address => uint256[])",
        "numberOfBytes": "32",
        "value": "t_array(t_uint256)dyn_storage"
      },
      "t_mapping(t_bytes32,t_uint256)": {
        "encoding": "mapping",
        "key": "t_bytes32",
        "label": "mapping(bytes32 => uint256)",
        "numberOfBytes": "32",
        "value": "t_uint256"
      },
      "t_mapping(t_uint256,t_struct(UintSet)3021_storage)": {
        "encoding": "mapping",
        "key": "t_uint256",
        "label": "mapping(uint256 => struct EnumerableSet.UintSet)",
        "numberOfBytes": "32",
        "value": "t_struct(UintSet)3021_storage"
      },
      "t_struct(EventTracker)21328_storage": {
        "encoding": "inplace",
        "label": "struct BCTypes.EventTracker",
        "members": [
          {
            "astId": 21321,
            "contract": "contracts/BCGames.sol:BCGames",
            "label": "bugEvents",
            "offset": 0,
            "slot": "0",
            "type": "t_uint8"
          },
          {
            "astId": 21323,
            "contract": "contracts/BCGames.sol:BCGames",
            "label": "mysteryEvents",
            "offset": 1,
            "slot": "0",
            "type": "t_uint8"
          },
          {
            "astId": 21325,
            "contract": "contracts/BCGames.sol:BCGames",
            "label": "scavEvents",
            "offset": 2,
            "slot": "0",
            "type": "t_uint8"
          },
          {
            "astId": 21327,
            "contract": "contracts/BCGames.sol:BCGames",
            "label": "shipEvents",
            "offset": 3,
            "slot": "0",
            "type": "t_uint8"
          }
        ],
        "numberOfBytes": "32"
      },
      "t_struct(Game)21436_storage": {
        "encoding": "inplace",
        "label": "struct BCTypes.Game",
        "members": [
          {
            "astId": 21385,
            "contract": "contracts/BCGames.sol:BCGames",
            "label": "active",
            "offset": 0,
            "slot": "0",
            "type": "t_bool"
          },
          {
            "astId": 21387,
            "contract": "contracts/BCGames.sol:BCGames",
            "label": "denizenTurn",
            "offset": 1,
            "slot": "0",
            "type": "t_bool"
          },
          {
            "astId": 21389,
            "contract": "contracts/BCGames.sol:BCGames",
            "label": "gameId",
            "offset": 0,
            "slot": "1",
            "type": "t_uint256"
          },
          {
            "astId": 21392,
            "contract": "contracts/BCGames.sol:BCGames",
            "label": "playerIndexes",
            "offset": 0,
            "slot": "2",
            "type": "t_array(t_uint256)dyn_storage"
          },
          {
            "astId": 21395,
            "contract": "contracts/BCGames.sol:BCGames",
            "label": "charIds",
            "offset": 0,
            "slot": "3",
            "type": "t_array(t_uint256)dyn_storage"
          },
          {
            "astId": 21397,
            "contract": "contracts/BCGames.sol:BCGames",
            "label": "currentPlayerTurnIndex",
            "offset": 0,
            "slot": "4",
            "type": "t_uint256"
          },
          {
            "astId": 21399,
            "contract": "contracts/BCGames.sol:BCGames",
            "label": "numPlayers",
            "offset": 0,
            "slot": "5",
            "type": "t_uint256"
          },
          {
            "astId": 21401,
            "contract": "contracts/BCGames.sol:BCGames",
            "label": "turnsTaken",
            "offset": 0,
            "slot": "6",
            "type": "t_uint256"
          },
          {
            "astId": 21404,
            "contract": "contracts/BCGames.sol:BCGames",
            "label": "eventTracker",
            "offset": 0,
            "slot": "7",
            "type": "t_struct(EventTracker)21328_storage"
          },
          {
            "astId": 21406,
            "contract": "contracts/BCGames.sol:BCGames",
            "label": "mapId",
            "offset": 0,
            "slot": "8",
            "type": "t_uint256"
          },
          {
            "astId": 21408,
            "contract": "contracts/BCGames.sol:BCGames",
            "label": "eventPlayerId",
            "offset": 0,
            "slot": "9",
            "type": "t_uint256"
          },
          {
            "astId": 21410,
            "contract": "contracts/BCGames.sol:BCGames",
            "label": "eventNumber",
            "offset": 0,
            "slot": "10",
            "type": "t_uint256"
          },
          {
            "astId": 21413,
            "contract": "contracts/BCGames.sol:BCGames",
            "label": "eventType",
            "offset": 0,
            "slot": "11",
            "type": "t_enum(BCEventType)21239"
          },
          {
            "astId": 21416,
            "contract": "contracts/BCGames.sol:BCGames",
            "label": "eventPosition",
            "offset": 0,
            "slot": "12",
            "type": "t_struct(Position)21333_storage"
          },
          {
            "astId": 21419,
            "contract": "contracts/BCGames.sol:BCGames",
            "label": "unusedBugEvents",
            "offset": 0,
            "slot": "13",
            "type": "t_array(t_uint256)dyn_storage"
          },
          {
            "astId": 21422,
            "contract": "contracts/BCGames.sol:BCGames",
            "label": "unusedMysteryEvents",
            "offset": 0,
            "slot": "14",
            "type": "t_array(t_uint256)dyn_storage"
          },
          {
            "astId": 21425,
            "contract": "contracts/BCGames.sol:BCGames",
            "label": "unusedScavEvents",
            "offset": 0,
            "slot": "15",
            "type": "t_array(t_uint256)dyn_storage"
          },
          {
            "astId": 21428,
            "contract": "contracts/BCGames.sol:BCGames",
            "label": "unusedShipEvents",
            "offset": 0,
            "slot": "16",
            "type": "t_array(t_uint256)dyn_storage"
          },
          {
            "astId": 21430,
            "contract": "contracts/BCGames.sol:BCGames",
            "label": "turnTimeLimit",
            "offset": 0,
            "slot": "17",
            "type": "t_uint256"
          },
          {
            "astId": 21432,
            "contract": "contracts/BCGames.sol:BCGames",
            "label": "lastTurnTimestamp",
            "offset": 0,
            "slot": "18",
            "type": "t_uint256"
          },
          {
            "astId": 21435,
            "contract": "contracts/BCGames.sol:BCGames",
            "label": "denizenIds",
            "offset": 0,
            "slot": "19",
            "type": "t_array(t_uint256)dyn_storage"
          }
        ],
        "numberOfBytes": "640"
      },
      "t_struct(Position)21333_storage": {
        "encoding": "inplace",
        "label": "struct BCTypes.Position",
        "members": [
          {
            "astId": 21330,
            "contract": "contracts/BCGames.sol:BCGames",
            "label": "row",
            "offset": 0,
            "slot": "0",
            "type": "t_uint8"
          },
          {
            "astId": 21332,
            "contract": "contracts/BCGames.sol:BCGames",
            "label": "col",
            "offset": 1,
            "slot": "0",
            "type": "t_uint8"
          }
        ],
        "numberOfBytes": "32"
      },
      "t_struct(Set)2563_storage": {
        "encoding": "inplace",
        "label": "struct EnumerableSet.Set",
        "members": [
          {
            "astId": 2558,
            "contract": "contracts/BCGames.sol:BCGames",
            "label": "_values",
            "offset": 0,
            "slot": "0",
            "type": "t_array(t_bytes32)dyn_storage"
          },
          {
            "astId": 2562,
            "contract": "contracts/BCGames.sol:BCGames",
            "label": "_indexes",
            "offset": 0,
            "slot": "1",
            "type": "t_mapping(t_bytes32,t_uint256)"
          }
        ],
        "numberOfBytes": "64"
      },
      "t_struct(UintSet)3021_storage": {
        "encoding": "inplace",
        "label": "struct EnumerableSet.UintSet",
        "members": [
          {
            "astId": 3020,
            "contract": "contracts/BCGames.sol:BCGames",
            "label": "_inner",
            "offset": 0,
            "slot": "0",
            "type": "t_struct(Set)2563_storage"
          }
        ],
        "numberOfBytes": "64"
      },
      "t_uint256": {
        "encoding": "inplace",
        "label": "uint256",
        "numberOfBytes": "32"
      },
      "t_uint8": {
        "encoding": "inplace",
        "label": "uint8",
        "numberOfBytes": "1"
      }
    }
  }
}