{
  "address": "0x347c3A52686A919f33fac72bf48c920E72C06835",
  "abi": [
    {
      "inputs": [],
      "stateMutability": "nonpayable",
      "type": "constructor"
    },
    {
      "anonymous": false,
      "inputs": [
        {
          "indexed": true,
          "internalType": "address",
          "name": "previousOwner",
          "type": "address"
        },
        {
          "indexed": true,
          "internalType": "address",
          "name": "newOwner",
          "type": "address"
        }
      ],
      "name": "OwnershipTransferred",
      "type": "event"
    },
    {
      "inputs": [],
      "name": "StartLocation",
      "outputs": [
        {
          "internalType": "uint8",
          "name": "row",
          "type": "uint8"
        },
        {
          "internalType": "uint8",
          "name": "col",
          "type": "uint8"
        }
      ],
      "stateMutability": "view",
      "type": "function"
    },
    {
      "inputs": [],
      "name": "actionsAddress",
      "outputs": [
        {
          "internalType": "address",
          "name": "",
          "type": "address"
        }
      ],
      "stateMutability": "view",
      "type": "function"
    },
    {
      "inputs": [
        {
          "internalType": "address",
          "name": "",
          "type": "address"
        },
        {
          "internalType": "uint256",
          "name": "",
          "type": "uint256"
        }
      ],
      "name": "addressToGame",
      "outputs": [
        {
          "internalType": "uint256",
          "name": "",
          "type": "uint256"
        }
      ],
      "stateMutability": "view",
      "type": "function"
    },
    {
      "inputs": [],
      "name": "bcEvents",
      "outputs": [
        {
          "internalType": "contract EventsInterface",
          "name": "",
          "type": "address"
        }
      ],
      "stateMutability": "view",
      "type": "function"
    },
    {
      "inputs": [],
      "name": "chars",
      "outputs": [
        {
          "internalType": "contract CharInterface",
          "name": "",
          "type": "address"
        }
      ],
      "stateMutability": "view",
      "type": "function"
    },
    {
      "inputs": [],
      "name": "charsAddress",
      "outputs": [
        {
          "internalType": "address",
          "name": "",
          "type": "address"
        }
      ],
      "stateMutability": "view",
      "type": "function"
    },
    {
      "inputs": [
        {
          "internalType": "uint256",
          "name": "_gameId",
          "type": "uint256"
        },
        {
          "components": [
            {
              "internalType": "uint8",
              "name": "row",
              "type": "uint8"
            },
            {
              "internalType": "uint8",
              "name": "col",
              "type": "uint8"
            }
          ],
          "internalType": "struct BCTypes.Position",
          "name": "_position",
          "type": "tuple"
        },
        {
          "internalType": "uint256",
          "name": "_playerId",
          "type": "uint256"
        },
        {
          "internalType": "uint256",
          "name": "_debugRoomId",
          "type": "uint256"
        }
      ],
      "name": "debugMovePlayer",
      "outputs": [],
      "stateMutability": "nonpayable",
      "type": "function"
    },
    {
      "inputs": [
        {
          "internalType": "uint256[]",
          "name": "_worldItemIds",
          "type": "uint256[]"
        }
      ],
      "name": "deleteWorldItems",
      "outputs": [],
      "stateMutability": "nonpayable",
      "type": "function"
    },
    {
      "inputs": [
        {
          "internalType": "uint256",
          "name": "_gameId",
          "type": "uint256"
        },
        {
          "internalType": "uint256",
          "name": "_playerId",
          "type": "uint256"
        },
        {
          "internalType": "bool",
          "name": "_free",
          "type": "bool"
        }
      ],
      "name": "endPlayerAction",
      "outputs": [],
      "stateMutability": "nonpayable",
      "type": "function"
    },
    {
      "inputs": [
        {
          "internalType": "uint256",
          "name": "_id",
          "type": "uint256"
        }
      ],
      "name": "extGetGame",
      "outputs": [
        {
          "components": [
            {
              "internalType": "bool",
              "name": "active",
              "type": "bool"
            },
            {
              "internalType": "uint256[]",
              "name": "playerIndexes",
              "type": "uint256[]"
            },
            {
              "internalType": "uint256",
              "name": "currentPlayerTurnIndex",
              "type": "uint256"
            },
            {
              "internalType": "uint256",
              "name": "numPlayers",
              "type": "uint256"
            },
            {
              "internalType": "uint256",
              "name": "turnsTaken",
              "type": "uint256"
            },
            {
              "components": [
                {
                  "internalType": "uint8",
                  "name": "bugEvents",
                  "type": "uint8"
                },
                {
                  "internalType": "uint8",
                  "name": "mysteryEvents",
                  "type": "uint8"
                },
                {
                  "internalType": "uint8",
                  "name": "scavEvents",
                  "type": "uint8"
                },
                {
                  "internalType": "uint8",
                  "name": "shipEvents",
                  "type": "uint8"
                }
              ],
              "internalType": "struct BCTypes.EventTracker",
              "name": "eventTracker",
              "type": "tuple"
            },
            {
              "internalType": "address",
              "name": "mapContract",
              "type": "address"
            },
            {
              "internalType": "uint256",
              "name": "mapId",
              "type": "uint256"
            },
            {
              "internalType": "uint256",
              "name": "eventPlayerId",
              "type": "uint256"
            },
            {
              "internalType": "uint256",
              "name": "eventNumber",
              "type": "uint256"
            },
            {
              "internalType": "enum BCTypes.BCEventType",
              "name": "eventType",
              "type": "uint8"
            },
            {
              "components": [
                {
                  "internalType": "uint8",
                  "name": "row",
                  "type": "uint8"
                },
                {
                  "internalType": "uint8",
                  "name": "col",
                  "type": "uint8"
                }
              ],
              "internalType": "struct BCTypes.Position",
              "name": "eventPosition",
              "type": "tuple"
            },
            {
              "internalType": "uint256[]",
              "name": "unusedBugEvents",
              "type": "uint256[]"
            },
            {
              "internalType": "uint256[]",
              "name": "unusedMysteryEvents",
              "type": "uint256[]"
            },
            {
              "internalType": "uint256[]",
              "name": "unusedScavEvents",
              "type": "uint256[]"
            },
            {
              "internalType": "uint256[]",
              "name": "unusedShipEvents",
              "type": "uint256[]"
            }
          ],
          "internalType": "struct BCTypes.Game",
          "name": "",
          "type": "tuple"
        }
      ],
      "stateMutability": "view",
      "type": "function"
    },
    {
      "inputs": [
        {
          "internalType": "uint256",
          "name": "_gameId",
          "type": "uint256"
        }
      ],
      "name": "extGetGamePlayerIndexes",
      "outputs": [
        {
          "internalType": "uint256[]",
          "name": "",
          "type": "uint256[]"
        }
      ],
      "stateMutability": "view",
      "type": "function"
    },
    {
      "inputs": [
        {
          "internalType": "address",
          "name": "_playerAddress",
          "type": "address"
        }
      ],
      "name": "extGetGamesOfPlayer",
      "outputs": [
        {
          "internalType": "uint256[]",
          "name": "",
          "type": "uint256[]"
        }
      ],
      "stateMutability": "view",
      "type": "function"
    },
    {
      "inputs": [],
      "name": "extGetNumGames",
      "outputs": [
        {
          "internalType": "uint256",
          "name": "",
          "type": "uint256"
        }
      ],
      "stateMutability": "view",
      "type": "function"
    },
    {
      "inputs": [
        {
          "internalType": "uint256[]",
          "name": "_ids",
          "type": "uint256[]"
        }
      ],
      "name": "extGetWorldItems",
      "outputs": [
        {
          "components": [
            {
              "internalType": "uint256",
              "name": "id",
              "type": "uint256"
            },
            {
              "internalType": "uint256",
              "name": "gameId",
              "type": "uint256"
            },
            {
              "internalType": "uint256",
              "name": "bcItemId",
              "type": "uint256"
            },
            {
              "internalType": "enum BCTypes.WorldItemStatus",
              "name": "status",
              "type": "uint8"
            },
            {
              "components": [
                {
                  "internalType": "uint8",
                  "name": "row",
                  "type": "uint8"
                },
                {
                  "internalType": "uint8",
                  "name": "col",
                  "type": "uint8"
                }
              ],
              "internalType": "struct BCTypes.Position",
              "name": "position",
              "type": "tuple"
            }
          ],
          "internalType": "struct BCTypes.WorldItem[]",
          "name": "",
          "type": "tuple[]"
        }
      ],
      "stateMutability": "view",
      "type": "function"
    },
    {
      "inputs": [
        {
          "internalType": "uint256",
          "name": "_gameId",
          "type": "uint256"
        },
        {
          "components": [
            {
              "internalType": "uint8",
              "name": "row",
              "type": "uint8"
            },
            {
              "internalType": "uint8",
              "name": "col",
              "type": "uint8"
            }
          ],
          "internalType": "struct BCTypes.Position",
          "name": "_position",
          "type": "tuple"
        },
        {
          "internalType": "uint256",
          "name": "_playerId",
          "type": "uint256"
        }
      ],
      "name": "extMovePlayer",
      "outputs": [],
      "stateMutability": "nonpayable",
      "type": "function"
    },
    {
      "inputs": [
        {
          "internalType": "uint256",
          "name": "",
          "type": "uint256"
        },
        {
          "internalType": "uint256",
          "name": "",
          "type": "uint256"
        }
      ],
      "name": "gameIdToWorldItemIds",
      "outputs": [
        {
          "internalType": "uint256",
          "name": "",
          "type": "uint256"
        }
      ],
      "stateMutability": "view",
      "type": "function"
    },
    {
      "inputs": [
        {
          "internalType": "uint256",
          "name": "",
          "type": "uint256"
        }
      ],
      "name": "games",
      "outputs": [
        {
          "internalType": "bool",
          "name": "active",
          "type": "bool"
        },
        {
          "internalType": "uint256",
          "name": "currentPlayerTurnIndex",
          "type": "uint256"
        },
        {
          "internalType": "uint256",
          "name": "numPlayers",
          "type": "uint256"
        },
        {
          "internalType": "uint256",
          "name": "turnsTaken",
          "type": "uint256"
        },
        {
          "components": [
            {
              "internalType": "uint8",
              "name": "bugEvents",
              "type": "uint8"
            },
            {
              "internalType": "uint8",
              "name": "mysteryEvents",
              "type": "uint8"
            },
            {
              "internalType": "uint8",
              "name": "scavEvents",
              "type": "uint8"
            },
            {
              "internalType": "uint8",
              "name": "shipEvents",
              "type": "uint8"
            }
          ],
          "internalType": "struct BCTypes.EventTracker",
          "name": "eventTracker",
          "type": "tuple"
        },
        {
          "internalType": "address",
          "name": "mapContract",
          "type": "address"
        },
        {
          "internalType": "uint256",
          "name": "mapId",
          "type": "uint256"
        },
        {
          "internalType": "uint256",
          "name": "eventPlayerId",
          "type": "uint256"
        },
        {
          "internalType": "uint256",
          "name": "eventNumber",
          "type": "uint256"
        },
        {
          "internalType": "enum BCTypes.BCEventType",
          "name": "eventType",
          "type": "uint8"
        },
        {
          "components": [
            {
              "internalType": "uint8",
              "name": "row",
              "type": "uint8"
            },
            {
              "internalType": "uint8",
              "name": "col",
              "type": "uint8"
            }
          ],
          "internalType": "struct BCTypes.Position",
          "name": "eventPosition",
          "type": "tuple"
        }
      ],
      "stateMutability": "view",
      "type": "function"
    },
    {
      "inputs": [
        {
          "internalType": "uint256",
          "name": "_gameId",
          "type": "uint256"
        }
      ],
      "name": "getGameWorldItems",
      "outputs": [
        {
          "components": [
            {
              "internalType": "uint256",
              "name": "id",
              "type": "uint256"
            },
            {
              "internalType": "uint256",
              "name": "gameId",
              "type": "uint256"
            },
            {
              "internalType": "uint256",
              "name": "bcItemId",
              "type": "uint256"
            },
            {
              "internalType": "enum BCTypes.WorldItemStatus",
              "name": "status",
              "type": "uint8"
            },
            {
              "components": [
                {
                  "internalType": "uint8",
                  "name": "row",
                  "type": "uint8"
                },
                {
                  "internalType": "uint8",
                  "name": "col",
                  "type": "uint8"
                }
              ],
              "internalType": "struct BCTypes.Position",
              "name": "position",
              "type": "tuple"
            }
          ],
          "internalType": "struct BCTypes.WorldItem[]",
          "name": "",
          "type": "tuple[]"
        }
      ],
      "stateMutability": "view",
      "type": "function"
    },
    {
      "inputs": [],
      "name": "items",
      "outputs": [
        {
          "internalType": "contract ItemsInterface",
          "name": "",
          "type": "address"
        }
      ],
      "stateMutability": "view",
      "type": "function"
    },
    {
      "inputs": [],
      "name": "lobbiesAddress",
      "outputs": [
        {
          "internalType": "address",
          "name": "",
          "type": "address"
        }
      ],
      "stateMutability": "view",
      "type": "function"
    },
    {
      "inputs": [],
      "name": "maps",
      "outputs": [
        {
          "internalType": "contract MapInterface",
          "name": "",
          "type": "address"
        }
      ],
      "stateMutability": "view",
      "type": "function"
    },
    {
      "inputs": [],
      "name": "owner",
      "outputs": [
        {
          "internalType": "address",
          "name": "",
          "type": "address"
        }
      ],
      "stateMutability": "view",
      "type": "function"
    },
    {
      "inputs": [
        {
          "internalType": "uint256",
          "name": "_gameId",
          "type": "uint256"
        },
        {
          "internalType": "uint256[]",
          "name": "_itemIds",
          "type": "uint256[]"
        },
        {
          "internalType": "uint256",
          "name": "_row",
          "type": "uint256"
        },
        {
          "internalType": "uint256",
          "name": "_col",
          "type": "uint256"
        }
      ],
      "name": "placeWorldItems",
      "outputs": [],
      "stateMutability": "nonpayable",
      "type": "function"
    },
    {
      "inputs": [],
      "name": "players",
      "outputs": [
        {
          "internalType": "contract PlayersInterface",
          "name": "",
          "type": "address"
        }
      ],
      "stateMutability": "view",
      "type": "function"
    },
    {
      "inputs": [],
      "name": "renounceOwnership",
      "outputs": [],
      "stateMutability": "nonpayable",
      "type": "function"
    },
    {
      "inputs": [
        {
          "internalType": "uint256",
          "name": "_gameId",
          "type": "uint256"
        },
        {
          "internalType": "uint256",
          "name": "_choice",
          "type": "uint256"
        }
      ],
      "name": "resolveEvent",
      "outputs": [],
      "stateMutability": "nonpayable",
      "type": "function"
    },
    {
      "inputs": [
        {
          "internalType": "address",
          "name": "_charAddress",
          "type": "address"
        },
        {
          "internalType": "address",
          "name": "_utilsAddress",
          "type": "address"
        },
        {
          "internalType": "address",
          "name": "_mapsAddress",
          "type": "address"
        },
        {
          "internalType": "address",
          "name": "_lobbiesAddress",
          "type": "address"
        },
        {
          "internalType": "address",
          "name": "_actionsAddress",
          "type": "address"
        },
        {
          "internalType": "address",
          "name": "_eventsAddress",
          "type": "address"
        },
        {
          "internalType": "address",
          "name": "_itemsAddress",
          "type": "address"
        },
        {
          "internalType": "address",
          "name": "_playersAddress",
          "type": "address"
        }
      ],
      "name": "setContractAddresses",
      "outputs": [],
      "stateMutability": "nonpayable",
      "type": "function"
    },
    {
      "inputs": [
        {
          "internalType": "uint256[]",
          "name": "_playerIndexes",
          "type": "uint256[]"
        },
        {
          "internalType": "uint256",
          "name": "_numPlayers",
          "type": "uint256"
        },
        {
          "internalType": "uint256",
          "name": "_debugRoomId",
          "type": "uint256"
        }
      ],
      "name": "startGame",
      "outputs": [
        {
          "internalType": "uint256",
          "name": "",
          "type": "uint256"
        }
      ],
      "stateMutability": "nonpayable",
      "type": "function"
    },
    {
      "inputs": [
        {
          "internalType": "address",
          "name": "newOwner",
          "type": "address"
        }
      ],
      "name": "transferOwnership",
      "outputs": [],
      "stateMutability": "nonpayable",
      "type": "function"
    },
    {
      "inputs": [],
      "name": "utils",
      "outputs": [
        {
          "internalType": "contract UtilsInterface",
          "name": "",
          "type": "address"
        }
      ],
      "stateMutability": "view",
      "type": "function"
    },
    {
      "inputs": [
        {
          "internalType": "uint256",
          "name": "",
          "type": "uint256"
        }
      ],
      "name": "worldItems",
      "outputs": [
        {
          "internalType": "uint256",
          "name": "id",
          "type": "uint256"
        },
        {
          "internalType": "uint256",
          "name": "gameId",
          "type": "uint256"
        },
        {
          "internalType": "uint256",
          "name": "bcItemId",
          "type": "uint256"
        },
        {
          "internalType": "enum BCTypes.WorldItemStatus",
          "name": "status",
          "type": "uint8"
        },
        {
          "components": [
            {
              "internalType": "uint8",
              "name": "row",
              "type": "uint8"
            },
            {
              "internalType": "uint8",
              "name": "col",
              "type": "uint8"
            }
          ],
          "internalType": "struct BCTypes.Position",
          "name": "position",
          "type": "tuple"
        }
      ],
      "stateMutability": "view",
      "type": "function"
    }
  ],
  "transactionHash": "0x2325053c5381304b5df3790584c5d4f4cf0a5eeec201f73ca2c6aff6b3706f4e",
  "args": [],
  "numDeployments": 1,
  "solcInputHash": "0606bbd73f1cb9aac5f9e11b2dd53465",
  "bytecode": "0x60c0604052600a6080819052600660a052805461ffff191661060a1790553480156200002a57600080fd5b5062000036336200003c565b6200008c565b600080546001600160a01b038381166001600160a01b0319831681178455604051919092169283917f8be0079c531659141344cd1fd0a4f28419497f9722a3daafe3b4186f6b6457e09190a35050565b61358d806200009c6000396000f3fe608060405234801561001057600080fd5b50600436106101e55760003560e01c80638bf52bc31161010f578063aa6e8030116100a2578063dc769ee811610071578063dc769ee81461044f578063e67d0e791461047f578063f101de9a14610492578063f2fde38b146104a557600080fd5b8063aa6e803014610403578063afd62bb214610416578063c06fad0614610429578063dc0b35641461043c57600080fd5b8063921d2799116100de578063921d2799146103b75780639bda278a146103ca5780639fca1ee1146103dd578063a99d2a8b146103f057600080fd5b80638bf52bc31461035c5780638ccaedfb1461036f5780638d4723ee146103825780638da5cb5b146103a657600080fd5b806340d4fd78116101875780636fe99c18116101565780636fe99c181461030e578063715018a61461032e5780637b45c0d4146103365780637ddae1031461034957600080fd5b806340d4fd78146102b657806346f2434b146102d65780635a29638d146102e857806364f66467146102fb57600080fd5b8063117a5b90116101c3578063117a5b9014610253578063175142251461027d578063336d7d7b146102905780633deaec2b146102a357600080fd5b806305892ff6146101ea5780630d8354681461021357806310a2cd0d14610228575b600080fd5b6101fd6101f8366004612703565b6104b8565b60405161020a91906127a1565b60405180910390f35b61022661022136600461296e565b61061a565b005b60015461023b906001600160a01b031681565b6040516001600160a01b03909116815260200161020a565b6102666102613660046129c4565b610729565b60405161020a9b9a999897969594939291906129ed565b61022661028b366004612aea565b6107f3565b60075461023b906001600160a01b031681565b60035461023b906001600160a01b031681565b6102c96102c43660046129c4565b610879565b60405161020a9190612b5b565b600b545b60405190815260200161020a565b60025461023b906001600160a01b031681565b610226610309366004612b75565b61096a565b61032161031c3660046129c4565b610a34565b60405161020a9190612b97565b610226610d2d565b60095461023b906001600160a01b031681565b60045461023b906001600160a01b031681565b61022661036a366004612d28565b610d41565b6101fd61037d3660046129c4565b610d99565b6103956103903660046129c4565b610f14565b60405161020a959493929190612d64565b6000546001600160a01b031661023b565b6102266103c5366004612db7565b610f79565b6102266103d8366004612703565b61100f565b60085461023b906001600160a01b031681565b6102da6103fe366004612e60565b6110df565b610226610411366004612e9a565b611110565b6102c9610424366004612ed3565b61131e565b60055461023b906001600160a01b031681565b60065461023b906001600160a01b031681565b600a546104659060ff8082169161010090041682565b6040805160ff93841681529290911660208301520161020a565b6102da61048d366004612b75565b6113ee565b6102da6104a0366004612ef0565b61140a565b6102266104b3366004612ed3565b611879565b60606000826001600160401b038111156104d4576104d461282d565b60405190808252806020026020018201604052801561050d57816020015b6104fa61256f565b8152602001906001900390816104f25790505b50905060005b8381101561061057600c85858381811061052f5761052f612f3d565b905060200201358154811061054657610546612f3d565b90600052602060002090600502016040518060a00160405290816000820154815260200160018201548152602001600282015481526020016003820160009054906101000a900460ff1660038111156105a1576105a1612777565b60038111156105b2576105b2612777565b8152604080518082019091526004929092015460ff808216845261010090910416602083810191909152015282518390839081106105f2576105f2612f3d565b6020026020010181905250808061060890612f69565b915050610513565b5090505b92915050565b60005b835181101561072257600c8054600181810180845560009390935260059091027fdf6966c971051c3d54ec59162606531493a51404a002842f56009d7e5cf4a8c7019161066a9190612f82565b815560018101869055845185908390811061068757610687612f3d565b602090810291909101015160028201556003810180546001919060ff19168280021790555060408051808201825260ff868116808352908616602092830181905260048501805461ffff19169092176101009091021790556000888152600d90915220600c546106f990600190612f82565b81546001810183556000928352602090922090910155508061071a81612f69565b91505061061d565b5050505050565b600b818154811061073957600080fd5b6000918252602091829020601090910201805460028201546003830154600484015460408051608081018252600587015460ff81811683526101008083048216848c0152620100008304821684860152630100000090920481166060840152600689015460078a015460088b015460098c0154600a8d01548851808a01909952600b909d015480861689529590950484169c87019c909c529882169b5096999598949792966001600160a01b03169592949293919216908b565b6009546001600160a01b031633148061081657506006546001600160a01b031633145b6108675760405162461bcd60e51b815260206004820152601c60248201527f4e6f7420616374696f6e732f706c617965727320636f6e74726163740000000060448201526064015b60405180910390fd5b61087483838360006118f2565b505050565b60606000600b838154811061089057610890612f3d565b9060005260206000209060100201600101805490506001600160401b038111156108bc576108bc61282d565b6040519080825280602002602001820160405280156108e5578160200160208202803683370190505b50905060005b815181101561096357600b848154811061090757610907612f3d565b9060005260206000209060100201600101818154811061092957610929612f3d565b906000526020600020015482828151811061094657610946612f3d565b60209081029190910101528061095b81612f69565b9150506108eb565b5092915050565b6000600b838154811061097f5761097f612f3d565b60009182526020909120600654601090920201600881015460078201546009830154600a840154604051636d291bbb60e01b81529496506001600160a01b0390951694636d291bbb946109e594899490938b939192600b8b019260ff1690600401612f95565b600060405180830381600087803b1580156109ff57600080fd5b505af1158015610a13573d6000803e3d6000fd5b505060006008840181905560098401555050600a01805460ff191690555050565b610a3c6125cf565b600b8281548110610a4f57610a4f612f3d565b600091825260209182902060408051610200810182526010909302909101805460ff1615158352600181018054835181870281018701909452808452939491938583019392830182828015610ac357602002820191906000526020600020905b815481526020019060010190808311610aaf575b505050918352505060028201546020808301919091526003830154604080840191909152600484015460608085019190915281516080818101845260058088015460ff80821685526101008083048216988601989098526201000082048116968501969096526301000000900485169383019390935285015260068501546001600160a01b031660a0850152600785015460c0850152600885015460e0850152600985015492840192909252600a840154610120909301921690811115610b8c57610b8c612777565b6005811115610b9d57610b9d612777565b8152604080518082018252600b84015460ff80821683526101009091041660208281019190915280840191909152600c84018054835181840281018401855281815293909401939091830182828015610c1557602002820191906000526020600020905b815481526020019060010190808311610c01575b50505050508152602001600d8201805480602002602001604051908101604052809291908181526020018280548015610c6d57602002820191906000526020600020905b815481526020019060010190808311610c59575b50505050508152602001600e8201805480602002602001604051908101604052809291908181526020018280548015610cc557602002820191906000526020600020905b815481526020019060010190808311610cb1575b50505050508152602001600f8201805480602002602001604051908101604052809291908181526020018280548015610d1d57602002820191906000526020600020905b815481526020019060010190808311610d09575b5050505050815250509050919050565b610d356121da565b610d3f6000612234565b565b6000546001600160a01b03163314610d875760405162461bcd60e51b81526020600482015260096024820152682737ba1037bbb732b960b91b604482015260640161085e565b610d93848484846118f2565b50505050565b6000818152600d6020526040812054606091906001600160401b03811115610dc357610dc361282d565b604051908082528060200260200182016040528015610dfc57816020015b610de961256f565b815260200190600190039081610de15790505b50905060005b8151811015610963576000848152600d602052604090208054600c919083908110610e2f57610e2f612f3d565b906000526020600020015481548110610e4a57610e4a612f3d565b90600052602060002090600502016040518060a00160405290816000820154815260200160018201548152602001600282015481526020016003820160009054906101000a900460ff166003811115610ea557610ea5612777565b6003811115610eb657610eb6612777565b8152604080518082019091526004929092015460ff80821684526101009091041660208381019190915201528251839083908110610ef657610ef6612f3d565b60200260200101819052508080610f0c90612f69565b915050610e02565b600c8181548110610f2457600080fd5b600091825260209182902060059091020180546001820154600283015460038401546040805180820190915260049095015460ff81811687526101009091048116968601969096529295509093909291169085565b610f816121da565b600180546001600160a01b03199081166001600160a01b039a8b1617909155600280548216988a1698909817909755600380548816968916969096179095556007805487169488169490941790935560098054861692871692909217909155600480548516918616919091179055600580548416918516919091179055600680549092169216919091179055565b6005546001600160a01b0316331461105e5760405162461bcd60e51b8152602060048201526012602482015271139bdd081a5d195b5cc818dbdb9d1c9858dd60721b604482015260640161085e565b60005b8181101561087457600c83838381811061107d5761107d612f3d565b905060200201358154811061109457611094612f3d565b60009182526020822060059091020181815560018101829055600281019190915560038101805460ff19169055600401805461ffff19169055806110d781612f69565b915050611061565b600e60205281600052604060002081815481106110fb57600080fd5b90600052602060002001600091509150505481565b6009546001600160a01b031633146111615760405162461bcd60e51b8152602060048201526014602482015273139bdd081858dd1a5bdb9cc818dbdb9d1c9858dd60621b604482015260640161085e565b806111c55760065460405163ce93229760e01b8152600481018490526001600160a01b039091169063ce93229790602401600060405180830381600087803b1580156111ac57600080fd5b505af11580156111c0573d6000803e3d6000fd5b505050505b6006546040516310f67fb360e01b8152600481018490526000916001600160a01b0316906310f67fb390602401600060405180830381865afa15801561120f573d6000803e3d6000fd5b505050506040513d6000823e601f3d908101601f1916820160405261123791908101906130bd565b90506000600b858154811061124e5761124e612f3d565b9060005260206000209060100201905060038260c0015160ff16106107225760065460405163065c363f60e41b8152600481018690526001600160a01b03909116906365c363f090602401600060405180830381600087803b1580156112b357600080fd5b505af11580156112c7573d6000803e3d6000fd5b505050506001818101546112db9190612f82565b81600201541015611302576002810180549060006112f883612f69565b9190505550610722565b611310858260070154612284565b600060028201555050505050565b6001600160a01b0381166000908152600e6020526040812054606091906001600160401b038111156113525761135261282d565b60405190808252806020026020018201604052801561137b578160200160208202803683370190505b50905060005b8151811015610963576001600160a01b0384166000908152600e602052604090208054829081106113b4576113b4612f3d565b90600052602060002001548282815181106113d1576113d1612f3d565b6020908102919091010152806113e681612f69565b915050611381565b600d60205281600052604060002081815481106110fb57600080fd5b6007546000906001600160a01b0316331461145c5760405162461bcd60e51b8152602060048201526012602482015271139bdd081b1bd8989e4818dbdb9d1c9858dd60721b604482015260640161085e565b600b80546001808201835560009283527f0175b7a638427703f0dbe7bb9bbf987a2551717b34e79f33b5b1008d1fa01db96010909202918201805460ff191690911781557f0175b7a638427703f0dbe7bb9bbf987a2551717b34e79f33b5b1008d1fa01dbd82019290925585516114fa917f0175b7a638427703f0dbe7bb9bbf987a2551717b34e79f33b5b1008d1fa01dba019060208801906126a3565b5060038082018590556040805160808101825260008082526020820181905291810182905260600181905260058301805463ffffffff1916905590546006830180546001600160a01b0319166001600160a01b039092169190911790558390036115e157600360009054906101000a90046001600160a01b03166001600160a01b031663f01fc35a6040518163ffffffff1660e01b81526004016020604051808303816000875af11580156115b3573d6000803e3d6000fd5b505050506040513d601f19601f820116820180604052508101906115d79190613209565b6007820155611656565b60035460405163148e052f60e21b8152600481018590526001600160a01b039091169063523814bc906024016020604051808303816000875af115801561162c573d6000803e3d6000fd5b505050506040513d601f19601f820116820180604052508101906116509190613209565b60078201555b60005b611664600186612f82565b81116117a357600782015460408051808201909152600a5460ff80821683526101009091041660208201526001840180546116be93929190859081106116ac576116ac612f3d565b906000526020600020015460006118f2565b60065486516000916001600160a01b031690636621a421908990859081106116e8576116e8612f3d565b60200260200101516040518263ffffffff1660e01b815260040161170e91815260200190565b602060405180830381865afa15801561172b573d6000803e3d6000fd5b505050506040513d601f19601f8201168201806040525081019061174f9190613222565b6001600160a01b0381166000908152600e60205260409020600b549192509061177a90600190612f82565b81546001810183556000928352602090922090910155508061179b81612f69565b915050611659565b506000604051806101e00160405280600181526020016002815260200160038152602001600481526020016005815260200160068152602001600781526020016008815260200160098152602001600a8152602001600b8152602001600c8152602001600d8152602001600e8152602001600f81525090508082600c0190600f61182e9291906126a3565b5061183e600d830182600f6126a3565b5061184e600e830182600f6126a3565b5061185f600f8084019083906126a3565b50600b5461186f90600190612f82565b9695505050505050565b6118816121da565b6001600160a01b0381166118e65760405162461bcd60e51b815260206004820152602660248201527f4f776e61626c653a206e6577206f776e657220697320746865207a65726f206160448201526564647265737360d01b606482015260840161085e565b6118ef81612234565b50565b600654600b80546001600160a01b0390921691638d491b3e9186918691908990811061192057611920612f3d565b9060005260206000209060100201600701546040518463ffffffff1660e01b81526004016119509392919061323f565b6020604051808303816000875af115801561196f573d6000803e3d6000fd5b505050506040513d601f19601f82011682018060405250810190611993919061326e565b610d9357600354600b80546000926001600160a01b0316916381bad36d91889081106119c1576119c1612f3d565b90600052602060002090601002016007015486600001518760200151866040518563ffffffff1660e01b8152600401611a17949392919093845260ff928316602085015291166040830152606082015260800190565b6020604051808303816000875af1158015611a36573d6000803e3d6000fd5b505050506040513d601f19601f82011682018060405250810190611a5a9190613209565b600354600b80549293506000926001600160a01b03909216916358058283919089908110611a8a57611a8a612f3d565b906000526020600020906010020160070154846040518363ffffffff1660e01b8152600401611ac3929190918252602082015260400190565b60a060405180830381865afa158015611ae0573d6000803e3d6000fd5b505050506040513d601f19601f82011682018060405250810190611b04919061328b565b9050600282118015611b295750600081516005811115611b2657611b26612777565b14155b156121d257600181516005811115611b4357611b43612777565b03611b9657600b8681548110611b5b57611b5b612f3d565b600091825260208220600560109092020101805460ff1691611b7c8361331d565b91906101000a81548160ff021916908360ff160217905550505b600281516005811115611bab57611bab612777565b03611c0657600b8681548110611bc357611bc3612f3d565b600091825260209091206010909102016005018054610100900460ff16906001611bec8361331d565b91906101000a81548160ff021916908360ff160217905550505b600381516005811115611c1b57611c1b612777565b03611c7757600b8681548110611c3357611c33612f3d565b60009182526020909120601090910201600501805462010000900460ff16906002611c5d8361331d565b91906101000a81548160ff021916908360ff160217905550505b600481516005811115611c8c57611c8c612777565b03611ce957600b8681548110611ca457611ca4612f3d565b6000918252602090912060109091020160050180546301000000900460ff16906003611ccf8361331d565b91906101000a81548160ff021916908360ff160217905550505b602081015115611e685760048054602083015160405163c82c37b960e01b8152928301526000916001600160a01b039091169063c82c37b990602401600060405180830381865afa158015611d42573d6000803e3d6000fd5b505050506040513d6000823e601f3d908101601f19168201604052611d6a91908101906133c9565b90508060200151611e625784600b8881548110611d8957611d89612f3d565b9060005260206000209060100201600801819055508160200151600b8881548110611db657611db6612f3d565b9060005260206000209060100201600901819055506005600b8881548110611de057611de0612f3d565b60009182526020909120600a60109092020101805460ff19166001836005811115611e0d57611e0d612777565b021790555085600b8881548110611e2657611e26612f3d565b60009182526020918290208351600b6010909302909101919091018054939092015160ff9081166101000261ffff199094169116179190911790555b506121d2565b600081516005811115611e7d57611e7d612777565b146121d25783600b8781548110611e9657611e96612f3d565b90600052602060002090601002016008018190555084600b8781548110611ebf57611ebf612f3d565b60009182526020918290208351600b6010909302909101919091018054939092015160ff9081166101000261ffff19909416911617919091179055600181516005811115611f0f57611f0f612777565b03611fb057611f40600b8781548110611f2a57611f2a612f3d565b9060005260206000209060100201600c016123dd565b600b8781548110611f5357611f53612f3d565b9060005260206000209060100201600901819055506001600b8781548110611f7d57611f7d612f3d565b60009182526020909120600a60109092020101805460ff19166001836005811115611faa57611faa612777565b02179055505b600281516005811115611fc557611fc5612777565b0361206657611ff6600b8781548110611fe057611fe0612f3d565b9060005260206000209060100201600d016123dd565b600b878154811061200957612009612f3d565b9060005260206000209060100201600901819055506002600b878154811061203357612033612f3d565b60009182526020909120600a60109092020101805460ff1916600183600581111561206057612060612777565b02179055505b60038151600581111561207b5761207b612777565b0361211c576120ac600b878154811061209657612096612f3d565b9060005260206000209060100201600e016123dd565b600b87815481106120bf576120bf612f3d565b9060005260206000209060100201600901819055506003600b87815481106120e9576120e9612f3d565b60009182526020909120600a60109092020101805460ff1916600183600581111561211657612116612777565b02179055505b60048151600581111561213157612131612777565b036121d257612162600b878154811061214c5761214c612f3d565b9060005260206000209060100201600f016123dd565b600b878154811061217557612175612f3d565b9060005260206000209060100201600901819055506004600b878154811061219f5761219f612f3d565b60009182526020909120600a60109092020101805460ff191660018360058111156121cc576121cc612777565b02179055505b505050505050565b6000546001600160a01b03163314610d3f5760405162461bcd60e51b815260206004820181905260248201527f4f776e61626c653a2063616c6c6572206973206e6f7420746865206f776e6572604482015260640161085e565b600080546001600160a01b038381166001600160a01b0319831681178455604051919092169283917f8be0079c531659141344cd1fd0a4f28419497f9722a3daafe3b4186f6b6457e09190a35050565b6000600b838154811061229957612299612f3d565b60009182526020909120600354604051630b06115560e31b815260048101869052601090930290910192506001600160a01b0316906358308aa890602401600060405180830381600087803b1580156122f157600080fd5b505af1158015612305573d6000803e3d6000fd5b505060035460405163c6b41b4560e01b815260048101869052600160248201526001600160a01b03909116925063c6b41b459150604401600060405180830381600087803b15801561235657600080fd5b505af115801561236a573d6000803e3d6000fd5b5050600654600784015460405163668a7f3b60e01b81526001600160a01b03909216935063668a7f3b92506123a69160018601906004016134ba565b600060405180830381600087803b1580156123c057600080fd5b505af11580156123d4573d6000803e3d6000fd5b50505050505050565b805460009081906123f090600190612f82565b90505b801561250c5760025460405163ce28613f60e01b815260006004820181905260ff84166024830152916001600160a01b03169063ce28613f906044016020604051808303816000875af115801561244e573d6000803e3d6000fd5b505050506040513d601f19601f82011682018060405250810190612472919061350d565b9050838160ff168154811061248957612489612f3d565b90600052602060002001548483815481106124a6576124a6612f3d565b90600052602060002001548584815481106124c3576124c3612f3d565b906000526020600020016000878560ff16815481106124e4576124e4612f3d565b60009182526020909120019290925591909155508190506125048161352a565b9150506123f3565b508154600090839061252090600190612f82565b8154811061253057612530612f3d565b906000526020600020015490508280548061254d5761254d613541565b600190038181906000526020600020016000905590558060ff16915050919050565b6040518060a00160405280600081526020016000815260200160008152602001600060038111156125a2576125a2612777565b81526020016125ca6040518060400160405280600060ff168152602001600060ff1681525090565b905290565b60408051610200810182526000808252606060208084018290528385018390528184018390526080808501849052855190810186528381529081018390529384018290528301529060a0820190815260200160006001600160a01b031681526020016000815260200160008152602001600081526020016000600581111561265957612659612777565b81526020016126816040518060400160405280600060ff168152602001600060ff1681525090565b8152602001606081526020016060815260200160608152602001606081525090565b8280548282559060005260206000209081019282156126de579160200282015b828111156126de5782518255916020019190600101906126c3565b506126ea9291506126ee565b5090565b5b808211156126ea57600081556001016126ef565b6000806020838503121561271657600080fd5b82356001600160401b038082111561272d57600080fd5b818501915085601f83011261274157600080fd5b81358181111561275057600080fd5b8660208260051b850101111561276557600080fd5b60209290920196919550909350505050565b634e487b7160e01b600052602160045260246000fd5b6004811061279d5761279d612777565b9052565b602080825282518282018190526000919060409081850190868401855b8281101561282057815180518552868101518786015285810151868601526060808201516127ee8288018261278d565b5050608090810151805160ff90811692870192909252602001511660a085015260c090930192908501906001016127be565b5091979650505050505050565b634e487b7160e01b600052604160045260246000fd5b604080519081016001600160401b03811182821017156128655761286561282d565b60405290565b6040516101c081016001600160401b03811182821017156128655761286561282d565b60405160e081016001600160401b03811182821017156128655761286561282d565b604051601f8201601f191681016001600160401b03811182821017156128d8576128d861282d565b604052919050565b60006001600160401b038211156128f9576128f961282d565b5060051b60200190565b600082601f83011261291457600080fd5b81356020612929612924836128e0565b6128b0565b82815260059290921b8401810191818101908684111561294857600080fd5b8286015b84811015612963578035835291830191830161294c565b509695505050505050565b6000806000806080858703121561298457600080fd5b8435935060208501356001600160401b038111156129a157600080fd5b6129ad87828801612903565b949794965050505060408301359260600135919050565b6000602082840312156129d657600080fd5b5035919050565b6006811061279d5761279d612777565b8b1515815260208082018c905260408083018c905260608084018c90528a5160ff9081166080860152928b0151831660a0850152908a0151821660c08401528901511660e08201526101e081016001600160a01b038816610100830152610120820187905261014082018690526101608201859052612a706101808301856129dd565b825160ff9081166101a08401526020840151166101c08301529c9b505050505050505050505050565b60ff811681146118ef57600080fd5b600060408284031215612aba57600080fd5b612ac2612843565b90508135612acf81612a99565b81526020820135612adf81612a99565b602082015292915050565b600080600060808486031215612aff57600080fd5b83359250612b108560208601612aa8565b9150606084013590509250925092565b600081518084526020808501945080840160005b83811015612b5057815187529582019590820190600101612b34565b509495945050505050565b602081526000612b6e6020830184612b20565b9392505050565b60008060408385031215612b8857600080fd5b50508035926020909101359150565b60208152612baa60208201835115159052565b60006020830151610280806040850152612bc86102a0850183612b20565b91506040850151606085015260608501516080850152608085015160a085015260a0850151612c2760c086018260ff815116825260ff602082015116602083015260ff604082015116604083015260ff60608201511660608301525050565b5060c0850151610140612c44818701836001600160a01b03169052565b60e087015161016087810191909152610100880151610180808901919091526101208901516101a0808a01919091529289015193506101c092612c89848a01866129dd565b9189015193506101e091612caf89840186805160ff908116835260209182015116910152565b818a01519450601f19915081898803016102208a0152612ccf8786612b20565b9650808a01519450508088870301610240890152612ced8685612b20565b95508289015193508088870301610260890152612d0a8685612b20565b955081890151935080888703018589015250505061186f8382612b20565b60008060008060a08587031215612d3e57600080fd5b84359350612d4f8660208701612aa8565b93969395505050506060820135916080013590565b858152602081018590526040810184905260c08101612d86606083018561278d565b825160ff908116608084015260208401511660a083015261186f565b6001600160a01b03811681146118ef57600080fd5b600080600080600080600080610100898b031215612dd457600080fd5b8835612ddf81612da2565b97506020890135612def81612da2565b96506040890135612dff81612da2565b95506060890135612e0f81612da2565b94506080890135612e1f81612da2565b935060a0890135612e2f81612da2565b925060c0890135612e3f81612da2565b915060e0890135612e4f81612da2565b809150509295985092959890939650565b60008060408385031215612e7357600080fd5b8235612e7e81612da2565b946020939093013593505050565b80151581146118ef57600080fd5b600080600060608486031215612eaf57600080fd5b83359250602084013591506040840135612ec881612e8c565b809150509250925092565b600060208284031215612ee557600080fd5b8135612b6e81612da2565b600080600060608486031215612f0557600080fd5b83356001600160401b03811115612f1b57600080fd5b612f2786828701612903565b9660208601359650604090950135949350505050565b634e487b7160e01b600052603260045260246000fd5b634e487b7160e01b600052601160045260246000fd5b600060018201612f7b57612f7b612f53565b5060010190565b8181038181111561061457610614612f53565b600061010082019050888252876020830152866040830152856060830152845460ff8116608084015260ff8160081c1660a0840152508360c0830152612fde60e08301846129dd565b98975050505050505050565b8051612ff581612da2565b919050565b8051612ff581612a99565b60006040828403121561301757600080fd5b61301f612843565b9050815161302c81612a99565b81526020820151612adf81612a99565b8051600081900b8114612ff557600080fd5b600082601f83011261305f57600080fd5b8151602061306f612924836128e0565b82815260059290921b8401810191818101908684111561308e57600080fd5b8286015b848110156129635780516130a581612a99565b8352918301918301613092565b8051612ff581612e8c565b6000602082840312156130cf57600080fd5b81516001600160401b03808211156130e657600080fd5b908301906101e082860312156130fb57600080fd5b61310361286b565b61310c83612fea565b815261311a60208401612fea565b6020820152604083015160408201526131368660608501613005565b606082015261314760a0840161303c565b608082015261315860c08401612ffa565b60a082015261316960e08401612ffa565b60c082015261010061317c818501612ffa565b60e0830152610120808501518481111561319557600080fd5b6131a18982880161304e565b838501525061014093506131b6848601612ffa565b90830152506101606131c98482016130b2565b8383015261018092506131dd8385016130b2565b908201526101a06131ef8482016130b2565b928201929092526101c09290920151908201529392505050565b60006020828403121561321b57600080fd5b5051919050565b60006020828403121561323457600080fd5b8151612b6e81612da2565b6080810161325d8286805160ff908116835260209182015116910152565b604082019390935260600152919050565b60006020828403121561328057600080fd5b8151612b6e81612e8c565b600060a0828403121561329d57600080fd5b60405160a081018181106001600160401b03821117156132bf576132bf61282d565b6040528251600681106132d157600080fd5b81526020838101519082015260408301516132eb81612a99565b604082015260608301516132fe81612a99565b6060820152608083015161331181612e8c565b60808201529392505050565b600060ff821660ff810361333357613333612f53565b60010192915050565b600082601f83011261334d57600080fd5b8151602061335d612924836128e0565b82815260069290921b8401810191818101908684111561337c57600080fd5b8286015b8481101561296357604081890312156133995760008081fd5b6133a1612843565b8151601781106133b15760008081fd5b81528185015185820152835291830191604001613380565b6000602082840312156133db57600080fd5b81516001600160401b03808211156133f257600080fd5b9083019060e0828603121561340657600080fd5b61340e61288e565b8251815261341e602084016130b2565b602082015261342f60408401612ffa565b604082015261344060608401612ffa565b606082015260808301518281111561345757600080fd5b6134638782860161333c565b60808301525060a08301518281111561347b57600080fd5b6134878782860161333c565b60a08301525060c08301518281111561349f57600080fd5b6134ab8782860161333c565b60c08301525095945050505050565b60006040820184835260206040818501528185548084526060860191508660005282600020935060005b81811015613500578454835260019485019492840192016134e4565b5090979650505050505050565b60006020828403121561351f57600080fd5b8151612b6e81612a99565b60008161353957613539612f53565b506000190190565b634e487b7160e01b600052603160045260246000fdfea2646970667358221220a7eb75a411870be283db517adb53869f8e4f920ed7e0b85d39da6a51b894be4a64736f6c63430008110033",
  "devdoc": {
    "kind": "dev",
    "methods": {
      "owner()": {
        "details": "Returns the address of the current owner."
      },
      "renounceOwnership()": {
        "details": "Leaves the contract without owner. It will not be possible to call `onlyOwner` functions anymore. Can only be called by the current owner. NOTE: Renouncing ownership will leave the contract without an owner, thereby removing any functionality that is only available to the owner."
      },
      "transferOwnership(address)": {
        "details": "Transfers ownership of the contract to a new account (`newOwner`). Can only be called by the current owner."
      }
    },
    "version": 1
  },
  "userdoc": {
    "kind": "user",
    "methods": {},
    "version": 1
  },
  "storageLayout": {
    "storage": [
      {
        "astId": 7,
        "contract": "contracts/BCGames.sol:BCGames",
        "label": "_owner",
        "offset": 0,
        "slot": "0",
        "type": "t_address"
      },
      {
        "astId": 8522,
        "contract": "contracts/BCGames.sol:BCGames",
        "label": "chars",
        "offset": 0,
        "slot": "1",
        "type": "t_contract(CharInterface)8315"
      },
      {
        "astId": 8525,
        "contract": "contracts/BCGames.sol:BCGames",
        "label": "utils",
        "offset": 0,
        "slot": "2",
        "type": "t_contract(UtilsInterface)8325"
      },
      {
        "astId": 8528,
        "contract": "contracts/BCGames.sol:BCGames",
        "label": "maps",
        "offset": 0,
        "slot": "3",
        "type": "t_contract(MapInterface)8438"
      },
      {
        "astId": 8531,
        "contract": "contracts/BCGames.sol:BCGames",
        "label": "bcEvents",
        "offset": 0,
        "slot": "4",
        "type": "t_contract(EventsInterface)8301"
      },
      {
        "astId": 8534,
        "contract": "contracts/BCGames.sol:BCGames",
        "label": "items",
        "offset": 0,
        "slot": "5",
        "type": "t_contract(ItemsInterface)8452"
      },
      {
        "astId": 8537,
        "contract": "contracts/BCGames.sol:BCGames",
        "label": "players",
        "offset": 0,
        "slot": "6",
        "type": "t_contract(PlayersInterface)8517"
      },
      {
        "astId": 8539,
        "contract": "contracts/BCGames.sol:BCGames",
        "label": "lobbiesAddress",
        "offset": 0,
        "slot": "7",
        "type": "t_address"
      },
      {
        "astId": 8541,
        "contract": "contracts/BCGames.sol:BCGames",
        "label": "charsAddress",
        "offset": 0,
        "slot": "8",
        "type": "t_address"
      },
      {
        "astId": 8543,
        "contract": "contracts/BCGames.sol:BCGames",
        "label": "actionsAddress",
        "offset": 0,
        "slot": "9",
        "type": "t_address"
      },
      {
        "astId": 8623,
        "contract": "contracts/BCGames.sol:BCGames",
        "label": "StartLocation",
        "offset": 0,
        "slot": "10",
        "type": "t_struct(Position)14812_storage"
      },
      {
        "astId": 8627,
        "contract": "contracts/BCGames.sol:BCGames",
        "label": "games",
        "offset": 0,
        "slot": "11",
        "type": "t_array(t_struct(Game)14903_storage)dyn_storage"
      },
      {
        "astId": 8631,
        "contract": "contracts/BCGames.sol:BCGames",
        "label": "worldItems",
        "offset": 0,
        "slot": "12",
        "type": "t_array(t_struct(WorldItem)14798_storage)dyn_storage"
      },
      {
        "astId": 8636,
        "contract": "contracts/BCGames.sol:BCGames",
        "label": "gameIdToWorldItemIds",
        "offset": 0,
        "slot": "13",
        "type": "t_mapping(t_uint256,t_array(t_uint256)dyn_storage)"
      },
      {
        "astId": 8641,
        "contract": "contracts/BCGames.sol:BCGames",
        "label": "addressToGame",
        "offset": 0,
        "slot": "14",
        "type": "t_mapping(t_address,t_array(t_uint256)dyn_storage)"
      }
    ],
    "types": {
      "t_address": {
        "encoding": "inplace",
        "label": "address",
        "numberOfBytes": "20"
      },
      "t_array(t_struct(Game)14903_storage)dyn_storage": {
        "base": "t_struct(Game)14903_storage",
        "encoding": "dynamic_array",
        "label": "struct BCTypes.Game[]",
        "numberOfBytes": "32"
      },
      "t_array(t_struct(WorldItem)14798_storage)dyn_storage": {
        "base": "t_struct(WorldItem)14798_storage",
        "encoding": "dynamic_array",
        "label": "struct BCTypes.WorldItem[]",
        "numberOfBytes": "32"
      },
      "t_array(t_uint256)dyn_storage": {
        "base": "t_uint256",
        "encoding": "dynamic_array",
        "label": "uint256[]",
        "numberOfBytes": "32"
      },
      "t_bool": {
        "encoding": "inplace",
        "label": "bool",
        "numberOfBytes": "1"
      },
      "t_contract(CharInterface)8315": {
        "encoding": "inplace",
        "label": "contract CharInterface",
        "numberOfBytes": "20"
      },
      "t_contract(EventsInterface)8301": {
        "encoding": "inplace",
        "label": "contract EventsInterface",
        "numberOfBytes": "20"
      },
      "t_contract(ItemsInterface)8452": {
        "encoding": "inplace",
        "label": "contract ItemsInterface",
        "numberOfBytes": "20"
      },
      "t_contract(MapInterface)8438": {
        "encoding": "inplace",
        "label": "contract MapInterface",
        "numberOfBytes": "20"
      },
      "t_contract(PlayersInterface)8517": {
        "encoding": "inplace",
        "label": "contract PlayersInterface",
        "numberOfBytes": "20"
      },
      "t_contract(UtilsInterface)8325": {
        "encoding": "inplace",
        "label": "contract UtilsInterface",
        "numberOfBytes": "20"
      },
      "t_enum(BCEventType)14749": {
        "encoding": "inplace",
        "label": "enum BCTypes.BCEventType",
        "numberOfBytes": "1"
      },
      "t_enum(WorldItemStatus)14754": {
        "encoding": "inplace",
        "label": "enum BCTypes.WorldItemStatus",
        "numberOfBytes": "1"
      },
      "t_mapping(t_address,t_array(t_uint256)dyn_storage)": {
        "encoding": "mapping",
        "key": "t_address",
        "label": "mapping(address => uint256[])",
        "numberOfBytes": "32",
        "value": "t_array(t_uint256)dyn_storage"
      },
      "t_mapping(t_uint256,t_array(t_uint256)dyn_storage)": {
        "encoding": "mapping",
        "key": "t_uint256",
        "label": "mapping(uint256 => uint256[])",
        "numberOfBytes": "32",
        "value": "t_array(t_uint256)dyn_storage"
      },
      "t_struct(EventTracker)14807_storage": {
        "encoding": "inplace",
        "label": "struct BCTypes.EventTracker",
        "members": [
          {
            "astId": 14800,
            "contract": "contracts/BCGames.sol:BCGames",
            "label": "bugEvents",
            "offset": 0,
            "slot": "0",
            "type": "t_uint8"
          },
          {
            "astId": 14802,
            "contract": "contracts/BCGames.sol:BCGames",
            "label": "mysteryEvents",
            "offset": 1,
            "slot": "0",
            "type": "t_uint8"
          },
          {
            "astId": 14804,
            "contract": "contracts/BCGames.sol:BCGames",
            "label": "scavEvents",
            "offset": 2,
            "slot": "0",
            "type": "t_uint8"
          },
          {
            "astId": 14806,
            "contract": "contracts/BCGames.sol:BCGames",
            "label": "shipEvents",
            "offset": 3,
            "slot": "0",
            "type": "t_uint8"
          }
        ],
        "numberOfBytes": "32"
      },
      "t_struct(Game)14903_storage": {
        "encoding": "inplace",
        "label": "struct BCTypes.Game",
        "members": [
          {
            "astId": 14864,
            "contract": "contracts/BCGames.sol:BCGames",
            "label": "active",
            "offset": 0,
            "slot": "0",
            "type": "t_bool"
          },
          {
            "astId": 14867,
            "contract": "contracts/BCGames.sol:BCGames",
            "label": "playerIndexes",
            "offset": 0,
            "slot": "1",
            "type": "t_array(t_uint256)dyn_storage"
          },
          {
            "astId": 14869,
            "contract": "contracts/BCGames.sol:BCGames",
            "label": "currentPlayerTurnIndex",
            "offset": 0,
            "slot": "2",
            "type": "t_uint256"
          },
          {
            "astId": 14871,
            "contract": "contracts/BCGames.sol:BCGames",
            "label": "numPlayers",
            "offset": 0,
            "slot": "3",
            "type": "t_uint256"
          },
          {
            "astId": 14873,
            "contract": "contracts/BCGames.sol:BCGames",
            "label": "turnsTaken",
            "offset": 0,
            "slot": "4",
            "type": "t_uint256"
          },
          {
            "astId": 14876,
            "contract": "contracts/BCGames.sol:BCGames",
            "label": "eventTracker",
            "offset": 0,
            "slot": "5",
            "type": "t_struct(EventTracker)14807_storage"
          },
          {
            "astId": 14878,
            "contract": "contracts/BCGames.sol:BCGames",
            "label": "mapContract",
            "offset": 0,
            "slot": "6",
            "type": "t_address"
          },
          {
            "astId": 14880,
            "contract": "contracts/BCGames.sol:BCGames",
            "label": "mapId",
            "offset": 0,
            "slot": "7",
            "type": "t_uint256"
          },
          {
            "astId": 14882,
            "contract": "contracts/BCGames.sol:BCGames",
            "label": "eventPlayerId",
            "offset": 0,
            "slot": "8",
            "type": "t_uint256"
          },
          {
            "astId": 14884,
            "contract": "contracts/BCGames.sol:BCGames",
            "label": "eventNumber",
            "offset": 0,
            "slot": "9",
            "type": "t_uint256"
          },
          {
            "astId": 14887,
            "contract": "contracts/BCGames.sol:BCGames",
            "label": "eventType",
            "offset": 0,
            "slot": "10",
            "type": "t_enum(BCEventType)14749"
          },
          {
            "astId": 14890,
            "contract": "contracts/BCGames.sol:BCGames",
            "label": "eventPosition",
            "offset": 0,
            "slot": "11",
            "type": "t_struct(Position)14812_storage"
          },
          {
            "astId": 14893,
            "contract": "contracts/BCGames.sol:BCGames",
            "label": "unusedBugEvents",
            "offset": 0,
            "slot": "12",
            "type": "t_array(t_uint256)dyn_storage"
          },
          {
            "astId": 14896,
            "contract": "contracts/BCGames.sol:BCGames",
            "label": "unusedMysteryEvents",
            "offset": 0,
            "slot": "13",
            "type": "t_array(t_uint256)dyn_storage"
          },
          {
            "astId": 14899,
            "contract": "contracts/BCGames.sol:BCGames",
            "label": "unusedScavEvents",
            "offset": 0,
            "slot": "14",
            "type": "t_array(t_uint256)dyn_storage"
          },
          {
            "astId": 14902,
            "contract": "contracts/BCGames.sol:BCGames",
            "label": "unusedShipEvents",
            "offset": 0,
            "slot": "15",
            "type": "t_array(t_uint256)dyn_storage"
          }
        ],
        "numberOfBytes": "512"
      },
      "t_struct(Position)14812_storage": {
        "encoding": "inplace",
        "label": "struct BCTypes.Position",
        "members": [
          {
            "astId": 14809,
            "contract": "contracts/BCGames.sol:BCGames",
            "label": "row",
            "offset": 0,
            "slot": "0",
            "type": "t_uint8"
          },
          {
            "astId": 14811,
            "contract": "contracts/BCGames.sol:BCGames",
            "label": "col",
            "offset": 1,
            "slot": "0",
            "type": "t_uint8"
          }
        ],
        "numberOfBytes": "32"
      },
      "t_struct(WorldItem)14798_storage": {
        "encoding": "inplace",
        "label": "struct BCTypes.WorldItem",
        "members": [
          {
            "astId": 14787,
            "contract": "contracts/BCGames.sol:BCGames",
            "label": "id",
            "offset": 0,
            "slot": "0",
            "type": "t_uint256"
          },
          {
            "astId": 14789,
            "contract": "contracts/BCGames.sol:BCGames",
            "label": "gameId",
            "offset": 0,
            "slot": "1",
            "type": "t_uint256"
          },
          {
            "astId": 14791,
            "contract": "contracts/BCGames.sol:BCGames",
            "label": "bcItemId",
            "offset": 0,
            "slot": "2",
            "type": "t_uint256"
          },
          {
            "astId": 14794,
            "contract": "contracts/BCGames.sol:BCGames",
            "label": "status",
            "offset": 0,
            "slot": "3",
            "type": "t_enum(WorldItemStatus)14754"
          },
          {
            "astId": 14797,
            "contract": "contracts/BCGames.sol:BCGames",
            "label": "position",
            "offset": 0,
            "slot": "4",
            "type": "t_struct(Position)14812_storage"
          }
        ],
        "numberOfBytes": "160"
      },
      "t_uint256": {
        "encoding": "inplace",
        "label": "uint256",
        "numberOfBytes": "32"
      },
      "t_uint8": {
        "encoding": "inplace",
        "label": "uint8",
        "numberOfBytes": "1"
      }
    }
  }
}