{
  "address": "0x52D825A065e9a7F4D0D6fcD89a4b572Ff1fd5984",
  "abi": [
    {
      "inputs": [],
      "stateMutability": "nonpayable",
      "type": "constructor"
    },
    {
      "anonymous": false,
      "inputs": [
        {
          "indexed": false,
          "internalType": "uint256",
          "name": "gameId",
          "type": "uint256"
        },
        {
          "indexed": false,
          "internalType": "uint256",
          "name": "roll",
          "type": "uint256"
        },
        {
          "indexed": false,
          "internalType": "uint256",
          "name": "forValue",
          "type": "uint256"
        },
        {
          "indexed": false,
          "internalType": "uint256",
          "name": "against",
          "type": "uint256"
        }
      ],
      "name": "ChallengeEvent",
      "type": "event"
    },
    {
      "anonymous": false,
      "inputs": [
        {
          "indexed": false,
          "internalType": "uint256",
          "name": "gameId",
          "type": "uint256"
        },
        {
          "indexed": false,
          "internalType": "enum BCTypes.DenizenType",
          "name": "denizenType",
          "type": "uint8"
        },
        {
          "indexed": false,
          "internalType": "uint256",
          "name": "denizenId",
          "type": "uint256"
        },
        {
          "indexed": false,
          "internalType": "uint256",
          "name": "playerTarget",
          "type": "uint256"
        },
        {
          "indexed": false,
          "internalType": "uint256",
          "name": "damage",
          "type": "uint256"
        },
        {
          "indexed": false,
          "internalType": "uint256",
          "name": "turnabout",
          "type": "uint256"
        }
      ],
      "name": "DenizenAttack",
      "type": "event"
    },
    {
      "anonymous": false,
      "inputs": [
        {
          "indexed": false,
          "internalType": "uint256",
          "name": "gameId",
          "type": "uint256"
        }
      ],
      "name": "DenizenTurnOver",
      "type": "event"
    },
    {
      "anonymous": false,
      "inputs": [
        {
          "indexed": false,
          "internalType": "uint256",
          "name": "gameId",
          "type": "uint256"
        },
        {
          "indexed": false,
          "internalType": "uint256",
          "name": "roll",
          "type": "uint256"
        }
      ],
      "name": "DiceRollEvent",
      "type": "event"
    },
    {
      "anonymous": false,
      "inputs": [
        {
          "indexed": true,
          "internalType": "address",
          "name": "previousOwner",
          "type": "address"
        },
        {
          "indexed": true,
          "internalType": "address",
          "name": "newOwner",
          "type": "address"
        }
      ],
      "name": "OwnershipTransferred",
      "type": "event"
    },
    {
      "anonymous": false,
      "inputs": [
        {
          "indexed": false,
          "internalType": "uint256",
          "name": "gameId",
          "type": "uint256"
        },
        {
          "indexed": false,
          "internalType": "uint256",
          "name": "playerId",
          "type": "uint256"
        },
        {
          "indexed": false,
          "internalType": "enum BCTypes.DenizenType",
          "name": "denizenType",
          "type": "uint8"
        },
        {
          "indexed": false,
          "internalType": "uint256",
          "name": "denizenId",
          "type": "uint256"
        },
        {
          "indexed": false,
          "internalType": "uint256",
          "name": "damage",
          "type": "uint256"
        },
        {
          "indexed": false,
          "internalType": "uint256",
          "name": "turnabout",
          "type": "uint256"
        }
      ],
      "name": "PlayerAttack",
      "type": "event"
    },
    {
      "inputs": [],
      "name": "StartLocation",
      "outputs": [
        {
          "internalType": "uint8",
          "name": "row",
          "type": "uint8"
        },
        {
          "internalType": "uint8",
          "name": "col",
          "type": "uint8"
        }
      ],
      "stateMutability": "view",
      "type": "function"
    },
    {
      "inputs": [
        {
          "internalType": "int256",
          "name": "x",
          "type": "int256"
        }
      ],
      "name": "abs",
      "outputs": [
        {
          "internalType": "int256",
          "name": "",
          "type": "int256"
        }
      ],
      "stateMutability": "pure",
      "type": "function"
    },
    {
      "inputs": [],
      "name": "actionsAddress",
      "outputs": [
        {
          "internalType": "address",
          "name": "",
          "type": "address"
        }
      ],
      "stateMutability": "view",
      "type": "function"
    },
    {
      "inputs": [
        {
          "internalType": "uint256",
          "name": "_gameId",
          "type": "uint256"
        },
        {
          "internalType": "enum BCTypes.DenizenType",
          "name": "_type",
          "type": "uint8"
        },
        {
          "internalType": "uint256",
          "name": "_row",
          "type": "uint256"
        },
        {
          "internalType": "uint256",
          "name": "_col",
          "type": "uint256"
        }
      ],
      "name": "addDenizen",
      "outputs": [],
      "stateMutability": "nonpayable",
      "type": "function"
    },
    {
      "inputs": [
        {
          "internalType": "address",
          "name": "",
          "type": "address"
        },
        {
          "internalType": "uint256",
          "name": "",
          "type": "uint256"
        }
      ],
      "name": "addressToGame",
      "outputs": [
        {
          "internalType": "uint256",
          "name": "",
          "type": "uint256"
        }
      ],
      "stateMutability": "view",
      "type": "function"
    },
    {
      "inputs": [],
      "name": "bcEvents",
      "outputs": [
        {
          "internalType": "contract EventsInterface",
          "name": "",
          "type": "address"
        }
      ],
      "stateMutability": "view",
      "type": "function"
    },
    {
      "inputs": [],
      "name": "chars",
      "outputs": [
        {
          "internalType": "contract CharInterface",
          "name": "",
          "type": "address"
        }
      ],
      "stateMutability": "view",
      "type": "function"
    },
    {
      "inputs": [],
      "name": "charsAddress",
      "outputs": [
        {
          "internalType": "address",
          "name": "",
          "type": "address"
        }
      ],
      "stateMutability": "view",
      "type": "function"
    },
    {
      "inputs": [
        {
          "internalType": "uint256",
          "name": "_gameId",
          "type": "uint256"
        },
        {
          "components": [
            {
              "internalType": "uint8",
              "name": "row",
              "type": "uint8"
            },
            {
              "internalType": "uint8",
              "name": "col",
              "type": "uint8"
            }
          ],
          "internalType": "struct BCTypes.Position",
          "name": "_position",
          "type": "tuple"
        },
        {
          "internalType": "uint256",
          "name": "_playerId",
          "type": "uint256"
        },
        {
          "internalType": "uint256",
          "name": "_debugRoomId",
          "type": "uint256"
        }
      ],
      "name": "debugMovePlayer",
      "outputs": [],
      "stateMutability": "nonpayable",
      "type": "function"
    },
    {
      "inputs": [
        {
          "internalType": "enum BCTypes.DenizenType",
          "name": "",
          "type": "uint8"
        }
      ],
      "name": "denizenDef",
      "outputs": [
        {
          "internalType": "uint256",
          "name": "",
          "type": "uint256"
        }
      ],
      "stateMutability": "view",
      "type": "function"
    },
    {
      "inputs": [
        {
          "internalType": "enum BCTypes.DenizenType",
          "name": "",
          "type": "uint8"
        }
      ],
      "name": "denizenDmg",
      "outputs": [
        {
          "internalType": "uint256",
          "name": "",
          "type": "uint256"
        }
      ],
      "stateMutability": "view",
      "type": "function"
    },
    {
      "inputs": [
        {
          "internalType": "enum BCTypes.DenizenType",
          "name": "",
          "type": "uint8"
        }
      ],
      "name": "denizenHealth",
      "outputs": [
        {
          "internalType": "uint256",
          "name": "",
          "type": "uint256"
        }
      ],
      "stateMutability": "view",
      "type": "function"
    },
    {
      "inputs": [
        {
          "internalType": "enum BCTypes.DenizenType",
          "name": "",
          "type": "uint8"
        }
      ],
      "name": "denizenMovement",
      "outputs": [
        {
          "internalType": "uint256",
          "name": "",
          "type": "uint256"
        }
      ],
      "stateMutability": "view",
      "type": "function"
    },
    {
      "inputs": [
        {
          "internalType": "enum BCTypes.DenizenType",
          "name": "",
          "type": "uint8"
        }
      ],
      "name": "denizenOff",
      "outputs": [
        {
          "internalType": "uint256",
          "name": "",
          "type": "uint256"
        }
      ],
      "stateMutability": "view",
      "type": "function"
    },
    {
      "inputs": [
        {
          "internalType": "uint256",
          "name": "_gameId",
          "type": "uint256"
        },
        {
          "internalType": "uint256",
          "name": "_playerId",
          "type": "uint256"
        },
        {
          "internalType": "bool",
          "name": "_free",
          "type": "bool"
        }
      ],
      "name": "endPlayerAction",
      "outputs": [],
      "stateMutability": "nonpayable",
      "type": "function"
    },
    {
      "inputs": [
        {
          "internalType": "uint256",
          "name": "_id",
          "type": "uint256"
        }
      ],
      "name": "extGetGame",
      "outputs": [
        {
          "components": [
            {
              "internalType": "bool",
              "name": "active",
              "type": "bool"
            },
            {
              "internalType": "bool",
              "name": "denizenTurn",
              "type": "bool"
            },
            {
              "internalType": "uint256[]",
              "name": "playerIndexes",
              "type": "uint256[]"
            },
            {
              "internalType": "uint256",
              "name": "currentPlayerTurnIndex",
              "type": "uint256"
            },
            {
              "internalType": "uint256",
              "name": "numPlayers",
              "type": "uint256"
            },
            {
              "internalType": "uint256",
              "name": "turnsTaken",
              "type": "uint256"
            },
            {
              "components": [
                {
                  "internalType": "uint8",
                  "name": "bugEvents",
                  "type": "uint8"
                },
                {
                  "internalType": "uint8",
                  "name": "mysteryEvents",
                  "type": "uint8"
                },
                {
                  "internalType": "uint8",
                  "name": "scavEvents",
                  "type": "uint8"
                },
                {
                  "internalType": "uint8",
                  "name": "shipEvents",
                  "type": "uint8"
                }
              ],
              "internalType": "struct BCTypes.EventTracker",
              "name": "eventTracker",
              "type": "tuple"
            },
            {
              "internalType": "uint256",
              "name": "mapId",
              "type": "uint256"
            },
            {
              "internalType": "uint256",
              "name": "eventPlayerId",
              "type": "uint256"
            },
            {
              "internalType": "uint256",
              "name": "eventNumber",
              "type": "uint256"
            },
            {
              "internalType": "enum BCTypes.BCEventType",
              "name": "eventType",
              "type": "uint8"
            },
            {
              "components": [
                {
                  "internalType": "uint8",
                  "name": "row",
                  "type": "uint8"
                },
                {
                  "internalType": "uint8",
                  "name": "col",
                  "type": "uint8"
                }
              ],
              "internalType": "struct BCTypes.Position",
              "name": "eventPosition",
              "type": "tuple"
            },
            {
              "internalType": "uint256[]",
              "name": "unusedBugEvents",
              "type": "uint256[]"
            },
            {
              "internalType": "uint256[]",
              "name": "unusedMysteryEvents",
              "type": "uint256[]"
            },
            {
              "internalType": "uint256[]",
              "name": "unusedScavEvents",
              "type": "uint256[]"
            },
            {
              "internalType": "uint256[]",
              "name": "unusedShipEvents",
              "type": "uint256[]"
            },
            {
              "internalType": "uint256",
              "name": "turnTimeLimit",
              "type": "uint256"
            },
            {
              "internalType": "uint256",
              "name": "lastTurnTimestamp",
              "type": "uint256"
            },
            {
              "internalType": "uint256",
              "name": "DEBUG_returnAmount",
              "type": "uint256"
            },
            {
              "components": [
                {
                  "internalType": "uint256",
                  "name": "id",
                  "type": "uint256"
                },
                {
                  "internalType": "uint256",
                  "name": "gameId",
                  "type": "uint256"
                },
                {
                  "internalType": "enum BCTypes.DenizenType",
                  "name": "denizenType",
                  "type": "uint8"
                },
                {
                  "components": [
                    {
                      "internalType": "uint8",
                      "name": "row",
                      "type": "uint8"
                    },
                    {
                      "internalType": "uint8",
                      "name": "col",
                      "type": "uint8"
                    }
                  ],
                  "internalType": "struct BCTypes.Position",
                  "name": "position",
                  "type": "tuple"
                },
                {
                  "internalType": "uint256",
                  "name": "healthRemaining",
                  "type": "uint256"
                },
                {
                  "internalType": "bool",
                  "name": "looted",
                  "type": "bool"
                }
              ],
              "internalType": "struct BCTypes.Denizen[]",
              "name": "denizens",
              "type": "tuple[]"
            }
          ],
          "internalType": "struct BCTypes.Game",
          "name": "",
          "type": "tuple"
        }
      ],
      "stateMutability": "view",
      "type": "function"
    },
    {
      "inputs": [
        {
          "internalType": "uint256",
          "name": "_gameId",
          "type": "uint256"
        }
      ],
      "name": "extGetGamePlayerIndexes",
      "outputs": [
        {
          "internalType": "uint256[]",
          "name": "",
          "type": "uint256[]"
        }
      ],
      "stateMutability": "view",
      "type": "function"
    },
    {
      "inputs": [
        {
          "internalType": "address",
          "name": "_playerAddress",
          "type": "address"
        }
      ],
      "name": "extGetGamesOfPlayer",
      "outputs": [
        {
          "internalType": "uint256[]",
          "name": "",
          "type": "uint256[]"
        }
      ],
      "stateMutability": "view",
      "type": "function"
    },
    {
      "inputs": [],
      "name": "extGetNumGames",
      "outputs": [
        {
          "internalType": "uint256",
          "name": "",
          "type": "uint256"
        }
      ],
      "stateMutability": "view",
      "type": "function"
    },
    {
      "inputs": [
        {
          "internalType": "uint256",
          "name": "_gameId",
          "type": "uint256"
        },
        {
          "components": [
            {
              "internalType": "uint8",
              "name": "row",
              "type": "uint8"
            },
            {
              "internalType": "uint8",
              "name": "col",
              "type": "uint8"
            }
          ],
          "internalType": "struct BCTypes.Position",
          "name": "_position",
          "type": "tuple"
        },
        {
          "internalType": "uint256",
          "name": "_playerId",
          "type": "uint256"
        }
      ],
      "name": "extMovePlayer",
      "outputs": [],
      "stateMutability": "nonpayable",
      "type": "function"
    },
    {
      "inputs": [
        {
          "internalType": "uint256",
          "name": "_gameId",
          "type": "uint256"
        }
      ],
      "name": "forceNextTurn",
      "outputs": [],
      "stateMutability": "nonpayable",
      "type": "function"
    },
    {
      "inputs": [
        {
          "internalType": "uint256",
          "name": "",
          "type": "uint256"
        }
      ],
      "name": "games",
      "outputs": [
        {
          "internalType": "bool",
          "name": "active",
          "type": "bool"
        },
        {
          "internalType": "bool",
          "name": "denizenTurn",
          "type": "bool"
        },
        {
          "internalType": "uint256",
          "name": "currentPlayerTurnIndex",
          "type": "uint256"
        },
        {
          "internalType": "uint256",
          "name": "numPlayers",
          "type": "uint256"
        },
        {
          "internalType": "uint256",
          "name": "turnsTaken",
          "type": "uint256"
        },
        {
          "components": [
            {
              "internalType": "uint8",
              "name": "bugEvents",
              "type": "uint8"
            },
            {
              "internalType": "uint8",
              "name": "mysteryEvents",
              "type": "uint8"
            },
            {
              "internalType": "uint8",
              "name": "scavEvents",
              "type": "uint8"
            },
            {
              "internalType": "uint8",
              "name": "shipEvents",
              "type": "uint8"
            }
          ],
          "internalType": "struct BCTypes.EventTracker",
          "name": "eventTracker",
          "type": "tuple"
        },
        {
          "internalType": "uint256",
          "name": "mapId",
          "type": "uint256"
        },
        {
          "internalType": "uint256",
          "name": "eventPlayerId",
          "type": "uint256"
        },
        {
          "internalType": "uint256",
          "name": "eventNumber",
          "type": "uint256"
        },
        {
          "internalType": "enum BCTypes.BCEventType",
          "name": "eventType",
          "type": "uint8"
        },
        {
          "components": [
            {
              "internalType": "uint8",
              "name": "row",
              "type": "uint8"
            },
            {
              "internalType": "uint8",
              "name": "col",
              "type": "uint8"
            }
          ],
          "internalType": "struct BCTypes.Position",
          "name": "eventPosition",
          "type": "tuple"
        },
        {
          "internalType": "uint256",
          "name": "turnTimeLimit",
          "type": "uint256"
        },
        {
          "internalType": "uint256",
          "name": "lastTurnTimestamp",
          "type": "uint256"
        },
        {
          "internalType": "uint256",
          "name": "DEBUG_returnAmount",
          "type": "uint256"
        }
      ],
      "stateMutability": "view",
      "type": "function"
    },
    {
      "inputs": [
        {
          "internalType": "uint256",
          "name": "_gameId",
          "type": "uint256"
        }
      ],
      "name": "getDenizensInGame",
      "outputs": [
        {
          "components": [
            {
              "internalType": "uint256",
              "name": "id",
              "type": "uint256"
            },
            {
              "internalType": "uint256",
              "name": "gameId",
              "type": "uint256"
            },
            {
              "internalType": "enum BCTypes.DenizenType",
              "name": "denizenType",
              "type": "uint8"
            },
            {
              "components": [
                {
                  "internalType": "uint8",
                  "name": "row",
                  "type": "uint8"
                },
                {
                  "internalType": "uint8",
                  "name": "col",
                  "type": "uint8"
                }
              ],
              "internalType": "struct BCTypes.Position",
              "name": "position",
              "type": "tuple"
            },
            {
              "internalType": "uint256",
              "name": "healthRemaining",
              "type": "uint256"
            },
            {
              "internalType": "bool",
              "name": "looted",
              "type": "bool"
            }
          ],
          "internalType": "struct BCTypes.Denizen[]",
          "name": "",
          "type": "tuple[]"
        }
      ],
      "stateMutability": "view",
      "type": "function"
    },
    {
      "inputs": [
        {
          "components": [
            {
              "internalType": "uint8",
              "name": "row",
              "type": "uint8"
            },
            {
              "internalType": "uint8",
              "name": "col",
              "type": "uint8"
            }
          ],
          "internalType": "struct BCTypes.Position",
          "name": "_firstRoom",
          "type": "tuple"
        },
        {
          "components": [
            {
              "internalType": "uint8",
              "name": "row",
              "type": "uint8"
            },
            {
              "internalType": "uint8",
              "name": "col",
              "type": "uint8"
            }
          ],
          "internalType": "struct BCTypes.Position",
          "name": "_secondRoom",
          "type": "tuple"
        }
      ],
      "name": "getDirectionBetween",
      "outputs": [
        {
          "internalType": "uint256",
          "name": "",
          "type": "uint256"
        }
      ],
      "stateMutability": "pure",
      "type": "function"
    },
    {
      "inputs": [
        {
          "internalType": "uint256",
          "name": "_direction",
          "type": "uint256"
        },
        {
          "components": [
            {
              "internalType": "uint8",
              "name": "row",
              "type": "uint8"
            },
            {
              "internalType": "uint8",
              "name": "col",
              "type": "uint8"
            }
          ],
          "internalType": "struct BCTypes.Position",
          "name": "_start",
          "type": "tuple"
        }
      ],
      "name": "getNeighborRoom",
      "outputs": [
        {
          "components": [
            {
              "internalType": "uint8",
              "name": "row",
              "type": "uint8"
            },
            {
              "internalType": "uint8",
              "name": "col",
              "type": "uint8"
            }
          ],
          "internalType": "struct BCTypes.Position",
          "name": "",
          "type": "tuple"
        }
      ],
      "stateMutability": "pure",
      "type": "function"
    },
    {
      "inputs": [
        {
          "internalType": "uint256",
          "name": "_traitNum",
          "type": "uint256"
        },
        {
          "internalType": "uint256",
          "name": "_subTraitNum",
          "type": "uint256"
        }
      ],
      "name": "getUIOffset",
      "outputs": [
        {
          "internalType": "uint256",
          "name": "",
          "type": "uint256"
        }
      ],
      "stateMutability": "pure",
      "type": "function"
    },
    {
      "inputs": [],
      "name": "items",
      "outputs": [
        {
          "internalType": "contract ItemsInterface",
          "name": "",
          "type": "address"
        }
      ],
      "stateMutability": "view",
      "type": "function"
    },
    {
      "inputs": [
        {
          "internalType": "uint256",
          "name": "_gameId",
          "type": "uint256"
        },
        {
          "internalType": "uint256",
          "name": "_playerId",
          "type": "uint256"
        },
        {
          "internalType": "uint256",
          "name": "_charId",
          "type": "uint256"
        },
        {
          "internalType": "uint256",
          "name": "_currentPlayerTurnIndex",
          "type": "uint256"
        }
      ],
      "name": "leaveGame",
      "outputs": [],
      "stateMutability": "nonpayable",
      "type": "function"
    },
    {
      "inputs": [],
      "name": "lobbiesAddress",
      "outputs": [
        {
          "internalType": "address",
          "name": "",
          "type": "address"
        }
      ],
      "stateMutability": "view",
      "type": "function"
    },
    {
      "inputs": [
        {
          "components": [
            {
              "internalType": "uint8",
              "name": "row",
              "type": "uint8"
            },
            {
              "internalType": "uint8",
              "name": "col",
              "type": "uint8"
            }
          ],
          "internalType": "struct BCTypes.Position",
          "name": "_pos1",
          "type": "tuple"
        },
        {
          "components": [
            {
              "internalType": "uint8",
              "name": "row",
              "type": "uint8"
            },
            {
              "internalType": "uint8",
              "name": "col",
              "type": "uint8"
            }
          ],
          "internalType": "struct BCTypes.Position",
          "name": "_pos2",
          "type": "tuple"
        }
      ],
      "name": "manhattanDistance",
      "outputs": [
        {
          "internalType": "uint256",
          "name": "",
          "type": "uint256"
        }
      ],
      "stateMutability": "pure",
      "type": "function"
    },
    {
      "inputs": [],
      "name": "maps",
      "outputs": [
        {
          "internalType": "contract MapInterface",
          "name": "",
          "type": "address"
        }
      ],
      "stateMutability": "view",
      "type": "function"
    },
    {
      "inputs": [
        {
          "internalType": "uint256",
          "name": "_min",
          "type": "uint256"
        },
        {
          "internalType": "uint256",
          "name": "_max",
          "type": "uint256"
        },
        {
          "internalType": "uint256",
          "name": "_val",
          "type": "uint256"
        },
        {
          "internalType": "uint256",
          "name": "_valMax",
          "type": "uint256"
        }
      ],
      "name": "normalizeToSmallRange",
      "outputs": [
        {
          "internalType": "uint8",
          "name": "",
          "type": "uint8"
        }
      ],
      "stateMutability": "pure",
      "type": "function"
    },
    {
      "inputs": [
        {
          "internalType": "uint256",
          "name": "_direction",
          "type": "uint256"
        }
      ],
      "name": "opposite",
      "outputs": [
        {
          "internalType": "uint256",
          "name": "",
          "type": "uint256"
        }
      ],
      "stateMutability": "pure",
      "type": "function"
    },
    {
      "inputs": [],
      "name": "owner",
      "outputs": [
        {
          "internalType": "address",
          "name": "",
          "type": "address"
        }
      ],
      "stateMutability": "view",
      "type": "function"
    },
    {
      "inputs": [
        {
          "internalType": "uint256",
          "name": "_gameId",
          "type": "uint256"
        },
        {
          "internalType": "uint256",
          "name": "_denizenId",
          "type": "uint256"
        },
        {
          "internalType": "uint256",
          "name": "_playerId",
          "type": "uint256"
        },
        {
          "internalType": "uint256",
          "name": "_playerAttackRating",
          "type": "uint256"
        },
        {
          "components": [
            {
              "internalType": "uint8",
              "name": "row",
              "type": "uint8"
            },
            {
              "internalType": "uint8",
              "name": "col",
              "type": "uint8"
            }
          ],
          "internalType": "struct BCTypes.Position",
          "name": "_playerPosition",
          "type": "tuple"
        }
      ],
      "name": "playerAttack",
      "outputs": [],
      "stateMutability": "nonpayable",
      "type": "function"
    },
    {
      "inputs": [],
      "name": "players",
      "outputs": [
        {
          "internalType": "contract PlayersInterface",
          "name": "",
          "type": "address"
        }
      ],
      "stateMutability": "view",
      "type": "function"
    },
    {
      "inputs": [
        {
          "internalType": "uint256",
          "name": "_gameId",
          "type": "uint256"
        }
      ],
      "name": "processDenizenMoves",
      "outputs": [],
      "stateMutability": "nonpayable",
      "type": "function"
    },
    {
      "inputs": [],
      "name": "randKeccak",
      "outputs": [
        {
          "internalType": "bytes32",
          "name": "",
          "type": "bytes32"
        }
      ],
      "stateMutability": "nonpayable",
      "type": "function"
    },
    {
      "inputs": [],
      "name": "renounceOwnership",
      "outputs": [],
      "stateMutability": "nonpayable",
      "type": "function"
    },
    {
      "inputs": [
        {
          "internalType": "uint256",
          "name": "_gameId",
          "type": "uint256"
        },
        {
          "internalType": "uint256",
          "name": "_for",
          "type": "uint256"
        },
        {
          "internalType": "uint256",
          "name": "_against",
          "type": "uint256"
        }
      ],
      "name": "resolveChallenge",
      "outputs": [
        {
          "internalType": "bool",
          "name": "",
          "type": "bool"
        }
      ],
      "stateMutability": "nonpayable",
      "type": "function"
    },
    {
      "inputs": [
        {
          "internalType": "uint256",
          "name": "_gameId",
          "type": "uint256"
        },
        {
          "internalType": "uint256",
          "name": "_choice",
          "type": "uint256"
        }
      ],
      "name": "resolveEvent",
      "outputs": [],
      "stateMutability": "nonpayable",
      "type": "function"
    },
    {
      "inputs": [
        {
          "internalType": "uint256",
          "name": "_gameId",
          "type": "uint256"
        }
      ],
      "name": "roll",
      "outputs": [
        {
          "internalType": "uint256",
          "name": "",
          "type": "uint256"
        }
      ],
      "stateMutability": "nonpayable",
      "type": "function"
    },
    {
      "inputs": [
        {
          "internalType": "address",
          "name": "_charAddress",
          "type": "address"
        },
        {
          "internalType": "address",
          "name": "_mapsAddress",
          "type": "address"
        },
        {
          "internalType": "address",
          "name": "_lobbiesAddress",
          "type": "address"
        },
        {
          "internalType": "address",
          "name": "_actionsAddress",
          "type": "address"
        },
        {
          "internalType": "address",
          "name": "_eventsAddress",
          "type": "address"
        },
        {
          "internalType": "address",
          "name": "_itemsAddress",
          "type": "address"
        },
        {
          "internalType": "address",
          "name": "_playersAddress",
          "type": "address"
        }
      ],
      "name": "setContractAddresses",
      "outputs": [],
      "stateMutability": "nonpayable",
      "type": "function"
    },
    {
      "inputs": [
        {
          "internalType": "uint256",
          "name": "_gameId",
          "type": "uint256"
        },
        {
          "internalType": "uint256",
          "name": "_denizenId",
          "type": "uint256"
        }
      ],
      "name": "setDenizenLooted",
      "outputs": [],
      "stateMutability": "nonpayable",
      "type": "function"
    },
    {
      "inputs": [
        {
          "internalType": "bytes32",
          "name": "_hash",
          "type": "bytes32"
        },
        {
          "internalType": "uint256",
          "name": "_size",
          "type": "uint256"
        },
        {
          "internalType": "uint256",
          "name": "_offset",
          "type": "uint256"
        }
      ],
      "name": "sliceHashToSmallInt",
      "outputs": [
        {
          "internalType": "uint8",
          "name": "",
          "type": "uint8"
        }
      ],
      "stateMutability": "pure",
      "type": "function"
    },
    {
      "inputs": [
        {
          "internalType": "uint8",
          "name": "_min",
          "type": "uint8"
        },
        {
          "internalType": "uint8",
          "name": "_max",
          "type": "uint8"
        }
      ],
      "name": "smallIntBetweenVals",
      "outputs": [
        {
          "internalType": "uint8",
          "name": "",
          "type": "uint8"
        }
      ],
      "stateMutability": "nonpayable",
      "type": "function"
    },
    {
      "inputs": [
        {
          "internalType": "uint256[]",
          "name": "_playerIndexes",
          "type": "uint256[]"
        },
        {
          "internalType": "uint256",
          "name": "_numPlayers",
          "type": "uint256"
        },
        {
          "internalType": "uint256",
          "name": "_debugRoomId",
          "type": "uint256"
        }
      ],
      "name": "startGame",
      "outputs": [
        {
          "internalType": "uint256",
          "name": "",
          "type": "uint256"
        }
      ],
      "stateMutability": "nonpayable",
      "type": "function"
    },
    {
      "inputs": [
        {
          "internalType": "address",
          "name": "newOwner",
          "type": "address"
        }
      ],
      "name": "transferOwnership",
      "outputs": [],
      "stateMutability": "nonpayable",
      "type": "function"
    }
  ],
  "transactionHash": "0xdf019065564fb81ae7a22a9b13103c2e0bd64d79182bdc1eb9d66cf6b22a8335",
  "args": [],
  "numDeployments": 1,
  "solcInputHash": "53bf44f095d7d70fd7cc81c3226ef8f7",
  "bytecode": "0x600060015560c0604052600a6080819052600660a052805461ffff191661060a1790553480156200002f57600080fd5b506200003b33620005f8565b60027ffd54ff1ed53f34a900b24c5ba64f85761163b5d82d98a47b9bd80e45466993c581905560037f10a81eed9d63d16face5e76357905348e6253d3394086026bb2bf2145d7cc2498190557f26b4a10d0f0b04925c23bd4480ee147c916e5e87a7d68206a533dad160ac81e282905560057fafafe8948a4ed9d478b1e9a5780b119b5edd00ea7d07bc35bef7c814824eb94b5560647fa5049387d9cb649c59f4bda666105ba636c2a103d8e2b232ba4d125737cd21495560327fa48544818c2c710afa9849c61ec9c60e8acdb3eaa2885f33b37e118cc8fd04ac5560c87fb91432bedff11256dbe14161d3606a2657bc9dacf8742f6b817d871dd53fb9765560197f0b705463cf5f7356780ee6e96132d37412c1b5816a4d207b8dcd42c349767457557fa7c5ba7114a813b50159add3a36832908dc83db71d0b9a24c2ad0f83be9582078190557f9adb202b1492743bc00c81d33cdc6423fa8c79109027eb6a845391e8fc1f048181905560047fe0283e559c29e31ee7f56467acc9dd307779c843a883aeeb3bf5c6128c90814481905560067fa1d6913cd9e08c872be3e7525cca82e4fc0fc298a783f19022be725b19be685a819055600a7fb9bec7e2561f624fe753ff070f1599b306cbf59fafd4e8d5a8184a1ea1841bce81905560087f92b4482321f41ce3aa65f798bda23d0d12a60fc5f212868a548ddb00aa49de72819055600c7f376529bb8a2d41b4a589a133407fc64f3212472dbd74744348be1098bf7ba08d557feab6bc3746954d8a0719de62c86ea908d362be2a58c781ada1046727253f9df28490557f169f97de0d9a84d840042b17d3c6b9638b3d6fd9024c9eb0c7a306a17b49f88f8490557fa74ba3945261e09fde15ba3db55005b205e61eeb4ad811ac0faa2b315bffeead8590557f45f76dafbbad695564362934e24d72eedc57f9fc1a65f39bca62176cc82968288590557f367ccd2d0ac16bf7110a5dffe0801fdc9452a95a1adb7e1a12fe97dd3e9a4edd8590557f6bda57492eba051cb4a12a1e19df47c9755d78165341d4009b1d09b3f36162048190557fb5a1e7cda73b1608e93d4d50ab796c3d35aa6216cb006a1f920df154d13ff61883905560077f73dfc495eb54bd6713ffc079b9f5e40f2fecd3793d143759ba0128fbedb40254557f49a9092dc5c03b26195f6621c97b5cf515cb77afe659e3fe008a73456354eb689190915560017f8c6065603763fec3f5742441d3833f3f43b982453612d76adb39a885e3006b5f8190557f853b2fefe141400fef543280f93d98bd49996069f632d0d20236afeeed8e46a28190557fb3edd0d534d647cffdae9f1294f11ad21f3fcf2814bea44c92bbb8d384a57d9e8190557f1588ac671d87f82adc0e6ae8ab009c0de98f92a20243897597e566bc59b9c126557f61a7346ab5ebdac457db2a901eaf1b805239b6049a1b2f34bab85e2e274f39cb8190557f20edfb71820f6f00f6a84ccfefb91587cd9f849f8349b0a3182a4795899d9cd98290557f4ef6145e44e4298293af15ae5f84f922a836b1d6db608fd5008f32a528b312a983905560107f5f04e77c60ed37290f5789e2e9c5d396103f3c4b14614065cbb4c8362609d5a55560116020527f17bc176d2408558f6e4111feebc3cab4e16b63e967be91cde721f4c8a488b5528490557f08037d7b151cc412d25674a4e66b334d9ae9d2e5517a7feaae5cdb828bf1c62884905560007f9bfbaa59f8e10e7868f8b402de9d605a390c45ddaebd8c9de3c6f31e733c87ff8190557f251164fe1d8864fe5e86082eae9c288bc2b58695a4d28538dfe86e9e4f175585959095557fc550213cee30afd5e67ccba7be3d381bbc169034ae08eb3ec9168caca9fe55e7919091557ffb9ce45064c7e7d9bf9deb4750ba7c94ab3d6e7418c5d76bf69966d39a9d42f68390557f98ae0176de2844d118e1a6decfe92f97691bedbc578c71fc8d5c4374be77e50c9290925591527f5fae251ae169e8e40026ce4ce85a026bc3adcccdc8459be361195e4cd924077f5562000648565b600080546001600160a01b038381166001600160a01b0319831681178455604051919092169283917f8be0079c531659141344cd1fd0a4f28419497f9722a3daafe3b4186f6b6457e09190a35050565b615fdb80620006586000396000f3fe608060405234801561001057600080fd5b506004361061029f5760003560e01c80638214f22211610167578063ce28613f116100ce578063dce6c5da11610087578063dce6c5da1461068d578063ed9067fa146106ad578063f101de9a146106c0578063f10bff2b146106d3578063f2fde38b146106e6578063fa3993c2146106f957600080fd5b8063ce28613f146105e4578063d72be09d146105f7578063d78e7d861461060a578063d8a030821461062a578063dc0b35641461064a578063dc769ee81461065d57600080fd5b8063a99d2a8b11610120578063a99d2a8b14610558578063aa6e80301461056b578063afd62bb21461057e578063bb24866714610591578063c06fad06146105b1578063c6850f7c146105c457600080fd5b80638214f222146104db5780638bf52bc3146104ee5780638da5cb5b14610501578063951fc3fe1461051257806397f34c3f146105325780639fca1ee11461054557600080fd5b806340d4fd781161020b57806364db84bf116101c457806364db84bf1461046757806364f664671461047a5780636fe99c181461048d578063715018a6146104ad5780637b45c0d4146104b55780637ddae103146104c857600080fd5b806340d4fd78146103d157806343d7c3be146103f157806346f2434b14610404578063530116961461040c57806354731422146104315780635dc969671461044457600080fd5b80631e1de2051161025d5780631e1de2051461036a5780631f7b4f3014610372578063336d7d7b146103855780633aa07d64146103985780633deaec2b146103ab5780633f090e3d146103be57600080fd5b8062e3d898146102a457806310a2cd0d146102d7578063117a5b9014610302578063175142251461032f5780631b5ac4b5146103445780631cef40f614610357575b600080fd5b6102c46102b236600461487b565b600d6020526000908152604090205481565b6040519081526020015b60405180910390f35b6002546102ea906001600160a01b031681565b6040516001600160a01b0390911681526020016102ce565b610315610310366004614896565b61070c565b6040516102ce9e9d9c9b9a999897969594939291906148d9565b61034261033d366004614ac5565b6107e1565b005b6102c4610352366004614896565b610826565b610342610365366004614afb565b610846565b6102c4610a2f565b6102c4610380366004614896565b610aa7565b6007546102ea906001600160a01b031681565b6103426103a6366004614b36565b610b03565b6003546102ea906001600160a01b031681565b6103426103cc366004614b80565b610f1d565b6103e46103df366004614896565b61115d565b6040516102ce9190614bed565b6103426103ff366004614c00565b61124e565b600b546102c4565b61041f61041a366004614b80565b6112d5565b60405160ff90911681526020016102ce565b61034261043f366004614896565b611312565b610457610452366004614c22565b61148c565b60405190151581526020016102ce565b6102c4610475366004614c00565b611529565b610342610488366004614c00565b611541565b6104a061049b366004614896565b611646565b6040516102ce9190614ce3565b610342611a47565b6009546102ea906001600160a01b031681565b6004546102ea906001600160a01b031681565b6102c46104e9366004614896565b611a5b565b6103426104fc366004614eb7565b611ad5565b6000546001600160a01b03166102ea565b610525610520366004614ef3565b611ae9565b6040516102ce9190614f20565b61041f610540366004614c22565b611c13565b6008546102ea906001600160a01b031681565b6102c4610566366004614f53565b611c3e565b610342610579366004614f8d565b611c6f565b6103e461058c366004614fc6565b611d7f565b6102c461059f36600461487b565b60116020526000908152604090205481565b6005546102ea906001600160a01b031681565b6102c46105d236600461487b565b60106020526000908152604090205481565b61041f6105f2366004614fe3565b611e4f565b61034261060536600461501c565b611eff565b6102c461061836600461487b565b600f6020526000908152604090205481565b61063d610638366004614896565b611f85565b6040516102ce91906150b2565b6006546102ea906001600160a01b031681565b600a546106739060ff8082169161010090041682565b6040805160ff9384168152929091166020830152016102ce565b6102c461069b36600461487b565b600e6020526000908152604090205481565b6103426106bb366004614896565b61209c565b6102c46106ce3660046150e8565b612e4e565b6102c46106e136600461518d565b61331c565b6103426106f4366004614fc6565b613369565b6102c461070736600461518d565b6133e2565b600b818154811061071c57600080fd5b6000918252602091829020601390910201805460028201546003830154600484015460408051608081018252600587015460ff81811683526101008083048216848c0152620100008304821684860152630100000090920481166060840152600689015460078a015460088b015460098c01548751808901909852600a8d0154808616895286900485169d88019d909d52600f8c015460108d01546011909d0154858d169f5095909b0484169c999b989a97999598929791969095909316939091908e565b6009546001600160a01b031633146108145760405162461bcd60e51b815260040161080b906151b9565b60405180910390fd5b61082183838360006134aa565b505050565b60008082121561083e57610839826151fd565b610840565b815b92915050565b600a5460ff16821480156108635750600a54610100900460ff1681145b610a29576006546001600160a01b031633146108b85760405162461bcd60e51b8152602060048201526014602482015273139bdd081c1b185e595c9cc818dbdb9d1c9858dd60621b604482015260640161080b565b6000600b85815481106108cd576108cd615219565b90600052602060002090601302019050600081601201805490509050816012016040518060c00160405280838152602001888152602001876008811115610916576109166148af565b815260200160405180604001604052808860ff1681526020018760ff168152508152602001600d6000896008811115610951576109516148af565b6008811115610962576109626148af565b8152602080820192909252604090810160009081205484529282018390528454600181810187559584529282902084516006909402019283559083015182850155820151600282018054939492939192909160ff1916908360088111156109cb576109cb6148af565b02179055506060820151805160038301805460209093015160ff9081166101000261ffff199094169216919091179190911790556080820151600482015560a0909101516005909101805491151560ff199290921691909117905550505b50505050565b6001805460009182610a408361522f565b9190505550600154600143610a559190615248565b4033604051602001610a8c93929190928352602083019190915260601b6bffffffffffffffffffffffff1916604082015260540190565b60405160208183030381529060405280519060200120905090565b600080610ab660016006611e4f565b60ff1690507ffe34d093a460a16ee5fb374540914d1c734a17502c0c1a87b387c8d6097e1c518382604051610af5929190918252602082015260400190565b60405180910390a192915050565b6009546001600160a01b03163314610b2d5760405162461bcd60e51b815260040161080b906151b9565b6000806000600b8881548110610b4557610b45615219565b90600052602060002090601302016012018781548110610b6757610b67615219565b906000526020600020906006020190506000816004015411610bcb5760405162461bcd60e51b815260206004820152601960248201527f43616e27742061747461636b20646561642064656e697a656e00000000000000604482015260640161080b565b6003810154845160ff9081169116148015610bf957506003810154602085015160ff90811661010090920416145b1580610ca55750600354600b80546001600160a01b0390921691632ec6572a91908b908110610c2a57610c2a615219565b906000526020600020906013020160060154868460030160006040518563ffffffff1660e01b8152600401610c62949392919061525b565b602060405180830381865afa158015610c7f573d6000803e3d6000fd5b505050506040513d601f19601f82011682018060405250810190610ca391906152b4565b155b15610cfe5760405162461bcd60e51b815260206004820152602360248201527f4e6f7420696e20726f6f6d20616e642063616e27742073656520746f2061747460448201526261636b60e81b606482015260840161080b565b6002810154610d49908990600e9060009060ff166008811115610d2357610d236148af565b6008811115610d3457610d346148af565b8152602001908152602001600020548761148c565b15610d6a5760048101805460019450906000610d64836152d1565b91905055505b600481015415610ec8576003810154845160ff9081169116148015610da257506003810154602085015160ff90811661010090920416145b80610e0f57506001600282015460ff166008811115610dc357610dc36148af565b14158015610dea57506005600282015460ff166008811115610de757610de76148af565b14155b8015610e0f57506006600282015460ff166008811115610e0c57610e0c6148af565b14155b15610ec857600281015460109060009060ff166008811115610e3357610e336148af565b6008811115610e4457610e446148af565b81526020810191909152604090810160009081205460065492516301ba1eb160e31b8152600481018a905260248101879052604481019290925293506001600160a01b0390911690630dd0f58890606401600060405180830381600087803b158015610eaf57600080fd5b505af1158015610ec3573d6000803e3d6000fd5b505050505b60028101546040517f8e8341e4cf4165f5b8133f6805aa5cd98756c5203c1756d9eec0af9cef617d4391610f0b918b918a9160ff909116908c90899089906152e8565b60405180910390a15050505050505050565b6009546001600160a01b03163314610f475760405162461bcd60e51b815260040161080b906151b9565b6000600b8581548110610f5c57610f5c615219565b60009182526020909120600554604051635f87260160e01b81526004810188905260248101899052601390930290910192506001600160a01b031690635f87260190604401600060405180830381600087803b158015610fbb57600080fd5b505af1158015610fcf573d6000803e3d6000fd5b5050600254604051631ff77ac560e11b8152600481018790526001600160a01b039091169250633feef58a9150602401600060405180830381600087803b15801561101957600080fd5b505af115801561102d573d6000803e3d6000fd5b5050505060018181015460009161104391615248565b6001600160401b0381111561105a5761105a61499f565b604051908082528060200260200182016040528015611083578160200160208202803683370190505b5090506000805b60018401548110156110fa578085146110e8578360010181815481106110b2576110b2615219565b90600052602060002001548383815181106110cf576110cf615219565b6020908102919091010152816110e48161522f565b9250505b806110f28161522f565b91505061108a565b508151611110906001850190602085019061471f565b50600383018054906000611123836152d1565b9091555050600183015460028401540361113f57600060028401555b600183015460000361115457825460ff191683555b50505050505050565b60606000600b838154811061117457611174615219565b9060005260206000209060130201600101805490506001600160401b038111156111a0576111a061499f565b6040519080825280602002602001820160405280156111c9578160200160208202803683370190505b50905060005b815181101561124757600b84815481106111eb576111eb615219565b9060005260206000209060130201600101818154811061120d5761120d615219565b906000526020600020015482828151811061122a5761122a615219565b60209081029190910101528061123f8161522f565b9150506111cf565b5092915050565b6009546001600160a01b031633146112785760405162461bcd60e51b815260040161080b906151b9565b6001600b838154811061128d5761128d615219565b906000526020600020906013020160120182815481106112af576112af615219565b60009182526020909120600690910201600501805460ff19169115159190911790555050565b6000806112e28686615248565b90506000836112f18684615320565b6112fb919061534d565b90506113078782615361565b979650505050505050565b6000600b828154811061132757611327615219565b600091825260209091206013909102018054909150610100900460ff16156113915760405162461bcd60e51b815260206004820152601860248201527f43616e277420666f7263652064656e697a656e207475726e0000000000000000604482015260640161080b565b600181810154116113e45760405162461bcd60e51b815260206004820152601960248201527f43616e277420666f7263652073696e676c6520706c6179657200000000000000604482015260640161080b565b80600f015481601001546113f89190615361565b42116114465760405162461bcd60e51b815260206004820152601760248201527f5374696c6c2077697468696e2074696d65206c696d6974000000000000000000604482015260640161080b565b60088101541561145b5761145b826000613ed9565b611488828260010183600201548154811061147857611478615219565b9060005260206000200154613fa5565b5050565b60008061149885610aa7565b6040805187815260208101839052908101869052606081018590529091507f75b6a8325595f91135e07382840634226793c68c9e59623da7e10d7ad3d95b959060800160405180910390a1806001036114f5576000915050611522565b6003836115028684615361565b61150c9190615374565b131561151c576001915050611522565b60009150505b9392505050565b600081611537846004615320565b6115229190615361565b6000600b838154811061155657611556615219565b600091825260209091206006546013909202016007810154604051636621a42160e01b815260048101919091529092506001600160a01b0390911690636621a42190602401602060405180830381865afa1580156115b8573d6000803e3d6000fd5b505050506040513d601f19601f820116820180604052508101906115dc919061539f565b6001600160a01b0316336001600160a01b03161461163c5760405162461bcd60e51b815260206004820152601960248201527f4576656e74206e6f7420666f7220796f757220706c6179657200000000000000604482015260640161080b565b6108218383613ed9565b61164e61476a565b600b828154811061166157611661615219565b600091825260209182902060408051610280810182526013909302909101805460ff808216151585526101009091041615158385015260018101805483518187028101870185528181529495929493860193928301828280156116e357602002820191906000526020600020905b8154815260200190600101908083116116cf575b505050918352505060028201546020808301919091526003830154604080840191909152600484015460608085019190915281516080818101845260058088015460ff808216855261010080830482169886019890985262010000820481169685019690965263010000009004851693830193909352850152600685015460a0850152600785015460c0850152600885015460e085015260098501549290930192911690811115611796576117966148af565b60058111156117a7576117a76148af565b8152604080518082018252600a84015460ff80821683526101009091041660208281019190915280840191909152600b8401805483518184028101840185528181529390940193909183018282801561181f57602002820191906000526020600020905b81548152602001906001019080831161180b575b50505050508152602001600c820180548060200260200160405190810160405280929190818152602001828054801561187757602002820191906000526020600020905b815481526020019060010190808311611863575b50505050508152602001600d82018054806020026020016040519081016040528092919081815260200182805480156118cf57602002820191906000526020600020905b8154815260200190600101908083116118bb575b50505050508152602001600e820180548060200260200160405190810160405280929190818152602001828054801561192757602002820191906000526020600020905b815481526020019060010190808311611913575b50505050508152602001600f8201548152602001601082015481526020016011820154815260200160128201805480602002602001604051908101604052809291908181526020016000905b82821015611a3957838290600052602060002090600602016040518060c001604052908160008201548152602001600182015481526020016002820160009054906101000a900460ff1660088111156119ce576119ce6148af565b60088111156119df576119df6148af565b8152604080518082018252600384015460ff80821683526101009091048116602083810191909152808501929092526004850154928401929092526005909301541615156060909101529082526001929092019101611973565b505050915250909392505050565b611a4f614081565b611a5960006140db565b565b600081600003611a6d57506001919050565b81600103611a7d57506000919050565b81600203611a8d57506003919050565b81600303611a9d57506002919050565b60405162461bcd60e51b815260206004820152600d60248201526c2130b2103234b932b1ba34b7b760991b604482015260640161080b565b611add614081565b610a29848484846134aa565b604080518082019091526000808252602082015282600003611b3b57604051806040016040528060018460000151611b2191906153bc565b60ff168152602001836020015160ff168152509050610840565b82600103611b5f57604051806040016040528083600001516001611b2191906153d5565b82600203611b9c576040518060400160405280836000015160ff16815260200183602001516001611b9091906153d5565b60ff1690529050610840565b82600303611bcd576040518060400160405280836000015160ff16815260200160018460200151611b9091906153bc565b6000611bd88461412b565b604051602001611be89190615412565b60405160208183030381529060405290508060405162461bcd60e51b815260040161080b919061544d565b600080826001611c24866002615564565b611c2e9190615248565b901b8516831c9150509392505050565b600c6020528160005260406000208181548110611c5a57600080fd5b90600052602060002001600091509150505481565b6009546001600160a01b03163314611c995760405162461bcd60e51b815260040161080b906151b9565b80611cfd5760065460405163ce93229760e01b8152600481018490526001600160a01b039091169063ce93229790602401600060405180830381600087803b158015611ce457600080fd5b505af1158015611cf8573d6000803e3d6000fd5b505050505b6006546040516347d0e3c960e01b8152600481018490526000916001600160a01b0316906347d0e3c990602401602060405180830381865afa158015611d47573d6000803e3d6000fd5b505050506040513d601f19601f82011682018060405250810190611d6b9190615570565b905060038110610a2957610a298484613fa5565b6001600160a01b0381166000908152600c6020526040812054606091906001600160401b03811115611db357611db361499f565b604051908082528060200260200182016040528015611ddc578160200160208202803683370190505b50905060005b8151811015611247576001600160a01b0384166000908152600c60205260409020805482908110611e1557611e15615219565b9060005260206000200154828281518110611e3257611e32615219565b602090810291909101015280611e478161522f565b915050611de2565b6001805460009182611e608361522f565b9190505550600033600154600143611e789190615248565b60405160609390931b6bffffffffffffffffffffffff19166020840152603483019190915240605482015260740160408051601f19818403018152919052805160209091012090506000611ecc85856153bc565b611ed79060016153d5565b90508460ff168160ff1683611eec9190615589565b611ef69190615361565b95945050505050565b611f07614081565b600280546001600160a01b03199081166001600160a01b03998a1617909155600380548216978916979097179096556007805487169588169590951790945560098054861693871693909317909255600480548516918616919091179055600580548416918516919091179055600680549092169216919091179055565b6060600b8281548110611f9a57611f9a615219565b9060005260206000209060130201601201805480602002602001604051908101604052809291908181526020016000905b8282101561209157838290600052602060002090600602016040518060c001604052908160008201548152602001600182015481526020016002820160009054906101000a900460ff166008811115612026576120266148af565b6008811115612037576120376148af565b8152604080518082018252600384015460ff80821683526101009091048116602083810191909152808501929092526004850154928401929092526005909301541615156060909101529082526001929092019101611fcb565b505050509050919050565b6000600b82815481106120b1576120b1615219565b600091825260208220600354601392909202016006810154604051630f78220b60e11b815260048101919091529093506001600160a01b0390911690631ef0441690602401600060405180830381865afa158015612113573d6000803e3d6000fd5b505050506040513d6000823e601f3d908101601f1916820160405261213b9190810190615615565b60018301549091506000906001600160401b0381111561215d5761215d61499f565b60405190808252806020026020018201604052801561226157816020015b61224e604080516101c081018252600080825260208083018290528284018290528351610100810185528281528082018390528085018390526060808201849052608080830185905260a080840186905260c0840186905260e0840186905291860192909252855180870187528481528084018590529185019190915284518086019095528285529084019190915290919082019081526000602082018190526040820181905260608083018290526080830182905260a083015260c0820181905260e082018190526101009091015290565b81526020019060019003908161217b5790505b50905060005b815181101561233a576006546001850180546001600160a01b03909216916310f67fb391908490811061229c5761229c615219565b90600052602060002001546040518263ffffffff1660e01b81526004016122c591815260200190565b600060405180830381865afa1580156122e2573d6000803e3d6000fd5b505050506040513d6000823e601f3d908101601f1916820160405261230a919081019061592a565b82828151811061231c5761231c615219565b602002602001018190525080806123329061522f565b915050612267565b506000600b858154811061235057612350615219565b9060005260206000209060130201601201905060005b8154811015612e3d57600082828154811061238357612383615219565b9060005260206000209060060201905080600401546000036123a55750612e2b565b60038101548551869160ff169081106123c0576123c0615219565b60200260200101518160030160000160019054906101000a900460ff1660ff16815181106123f0576123f0615219565b602002602001015160c001511561241957600481018054906000612413836152d1565b91905055505b806004015460000361242b5750612e2b565b61270f60001960005b865181101561253457600a54875160ff9091169088908390811061245a5761245a615219565b6020026020010151608001516000015160ff161480156124ab5750600a54875161010090910460ff169088908390811061249657612496615219565b6020026020010151608001516020015160ff16145b6125225760408051808201909152600385015460ff808216835261010090910416602082015287516000916124fd918a90859081106124ec576124ec615219565b60200260200101516080015161331c565b90508060000361251257819350809250612520565b828111612520578193508092505b505b8061252c8161522f565b915050612434565b508161270f0361254657505050612e2b565b6001600284015460ff166008811115612561576125616148af565b0361275d578060000361259b57612593898488858151811061258557612585615219565b602002602001015184614233565b505050612e2b565b600160005260116020527f17bc176d2408558f6e4111feebc3cab4e16b63e967be91cde721f4c8a488b55254811161275d576003805460068a015488516001600160a01b03909216926345e1e03c92908701908a908790811061260057612600615219565b602002602001015160800151600060016011600060016008811115612627576126276148af565b6008811115612638576126386148af565b8152602001908152602001600020546040518763ffffffff1660e01b815260040161266896959493929190615a75565b6040805180830381865afa158015612684573d6000803e3d6000fd5b505050506040513d601f19601f820116820180604052508101906126a89190615ac3565b805160038501805460209093015160ff9081166101000261ffff1990941692169190911791909117905585518690839081106126e6576126e6615219565b60209081029190910101516080015151600384015460ff9081169116148015612741575085828151811061271c5761271c615219565b6020908102919091018101516080015101516003840154610100900460ff9081169116145b1561259357612593898488858151811061258557612585615219565b60028084015460ff166008811115612777576127776148af565b03612a045780600003612947576003546040516369568fd560e01b8152600481018b90526000916001600160a01b0316906369568fd590602401600060405180830381865afa1580156127ce573d6000803e3d6000fd5b505050506040513d6000823e601f3d908101601f191682016040526127f69190810190615adf565b905060005b600481101561291757600282828151811061281857612818615219565b6020026020010151604001516004811115612835576128356148af565b148061286f5750600182828151811061285057612850615219565b602002602001015160400151600481111561286d5761286d6148af565b145b806128a85750600382828151811061288957612889615219565b60200260200101516040015160048111156128a6576128a66148af565b145b156129055760408051808201909152600386015460ff80821683526101009091041660208201526128da908290611ae9565b805160038701805460209093015160ff9081166101000261ffff199094169216919091179190911790555b8061290f8161522f565b9150506127fb565b5061293e8a8589868151811061292f5761292f615219565b60200260200101516001614233565b50505050612e2b565b6003805460068a015488516001600160a01b0390921692632ec6572a92908701908a908790811061297a5761297a615219565b60200260200101516080015160006040518563ffffffff1660e01b81526004016129a79493929190615bbc565b602060405180830381865afa1580156129c4573d6000803e3d6000fd5b505050506040513d601f19601f820116820180604052508101906129e891906152b4565b15612a0457612593898488858151811061258557612585615219565b6003600284015460ff166008811115612a1f57612a1f6148af565b03612aed5761270f81108015612ad157506003805460068a015488516001600160a01b0390921692632ec6572a92908701908a9087908110612a6357612a63615219565b60200260200101516080015160016040518563ffffffff1660e01b8152600401612a909493929190615bbc565b602060405180830381865afa158015612aad573d6000803e3d6000fd5b505050506040513d601f19601f82011682018060405250810190612ad191906152b4565b15612aed57612593898488858151811061258557612585615219565b6004600284015460ff166008811115612b0857612b086148af565b03612e275780600003612b2c57612593898488858151811061258557612585615219565b600460005260116020527f251164fe1d8864fe5e86082eae9c288bc2b58695a4d28538dfe86e9e4f175585548111612c6a576003805460068a015488516001600160a01b03909216926345e1e03c92908701908a9087908110612b9157612b91615219565b602002602001015160800151600160006011600060046008811115612bb857612bb86148af565b6008811115612bc957612bc96148af565b8152602001908152602001600020546040518763ffffffff1660e01b8152600401612bf996959493929190615a75565b6040805180830381865afa158015612c15573d6000803e3d6000fd5b505050506040513d601f19601f82011682018060405250810190612c399190615ac3565b80516003909401805460209092015160ff9081166101000261ffff199093169516949094171790925550612e2b9050565b61270f811015612e15576003805460068a015488516001600160a01b03909216926345e1e03c92908701908a9087908110612ca757612ca7615219565b602002602001015160800151600160006011600060046008811115612cce57612cce6148af565b6008811115612cdf57612cdf6148af565b8152602001908152602001600020546040518763ffffffff1660e01b8152600401612d0f96959493929190615a75565b6040805180830381865afa158015612d2b573d6000803e3d6000fd5b505050506040513d601f19601f82011682018060405250810190612d4f9190615ac3565b80516003808601805460209094015160ff9081166101000261ffff19909516931692909217929092178155905460068a015488516001600160a01b0390921692632ec6572a928a9087908110612da757612da7615219565b60200260200101516080015160016040518563ffffffff1660e01b8152600401612dd49493929190615bbc565b602060405180830381865afa158015612df1573d6000803e3d6000fd5b505050506040513d601f19601f8201168201806040525081019061274191906152b4565b61270f811015612e2757505050612e2b565b5050505b80612e358161522f565b915050612366565b5050825461ff001916909255505050565b6007546000906001600160a01b03163314612ea05760405162461bcd60e51b8152602060048201526012602482015271139bdd081b1bd8989e4818dbdb9d1c9858dd60721b604482015260640161080b565b600b80546001818101808455600093845260139092027f0175b7a638427703f0dbe7bb9bbf987a2551717b34e79f33b5b1008d1fa01db9019291612ee49190615248565b825460ff191660019081178455600060048501558751919250612f0f9190840190602089019061471f565b50600382018590556040805160808101825260008082526020820181905291810182905260600181905260058301805463ffffffff19169055849003612fd257600360009054906101000a90046001600160a01b03166001600160a01b031663f01fc35a6040518163ffffffff1660e01b81526004016020604051808303816000875af1158015612fa4573d6000803e3d6000fd5b505050506040513d601f19601f82011682018060405250810190612fc89190615570565b6006830155613047565b60035460405163148e052f60e21b8152600481018690526001600160a01b039091169063523814bc906024016020604051808303816000875af115801561301d573d6000803e3d6000fd5b505050506040513d601f19601f820116820180604052508101906130419190615570565b60068301555b60005b613055600187615248565b811161317d57600683015460408051808201909152600a5460ff80821683526101009091041660208201526001850180546130af939291908590811061309d5761309d615219565b906000526020600020015460006134aa565b60065487516000916001600160a01b031690636621a421908a90859081106130d9576130d9615219565b60200260200101516040518263ffffffff1660e01b81526004016130ff91815260200190565b602060405180830381865afa15801561311c573d6000803e3d6000fd5b505050506040513d601f19601f82011682018060405250810190613140919061539f565b6001600160a01b03166000908152600c602090815260408220805460018101825590835291200183905550806131758161522f565b91505061304a565b5060065460405163e7169ec560e01b81526001600160a01b039091169063e7169ec5906131b09089908590600401615bf7565b600060405180830381600087803b1580156131ca57600080fd5b505af11580156131de573d6000803e3d6000fd5b5050600554604051633b09709560e21b81526001600160a01b03909116925063ec25c25491506132149084908a90600401615c19565b600060405180830381600087803b15801561322e57600080fd5b505af1158015613242573d6000803e3d6000fd5b505050506000604051806101e00160405280600181526020016002815260200160038152602001600481526020016005815260200160068152602001600781526020016008815260200160098152602001600a8152602001600b8152602001600c8152602001600d8152602001600e8152602001600f81525090508083600b0190600f6132d092919061471f565b506132e0600c840182600f61471f565b506132f0600d840182600f61471f565b50613300600e840182600f61471f565b505061012c600f83015542601090920191909155949350505050565b60008061333c836000015160000b856000015160000b6103529190615374565b9050600061335d846020015160000b866020015160000b6103529190615374565b9050611ef68183615361565b613371614081565b6001600160a01b0381166133d65760405162461bcd60e51b815260206004820152602660248201527f4f776e61626c653a206e6577206f776e657220697320746865207a65726f206160448201526564647265737360d01b606482015260840161080b565b6133df816140db565b50565b805182516000916133f291615c32565b60000b60010361340457506000610840565b815183516134129190615c32565b60000b1961342257506001610840565b816020015183602001516134369190615c32565b60000b1961344657506002610840565b8160200151836020015161345a9190615c32565b60000b60010361346c57506003610840565b60405162461bcd60e51b8152602060048201526013602482015272115c9c9bdc8e88139bdd0818591a9858d95b9d606a1b604482015260640161080b565b6000600b85815481106134bf576134bf615219565b90600052602060002090601302019050806001016000815481106134e5576134e5615219565b906000526020600020015483148061351c57508060010160018154811061350e5761350e615219565b906000526020600020015483145b8061354657508060010160028154811061353857613538615219565b906000526020600020015483145b8061357057508060010160038154811061356257613562615219565b906000526020600020015483145b6135bc5760405162461bcd60e51b815260206004820152601760248201527f506c61796572206e6f7420696e20746869732067616d65000000000000000000604482015260640161080b565b600654600b80546001600160a01b0390921691638d491b3e9187918791908a9081106135ea576135ea615219565b9060005260206000209060130201600601546040518463ffffffff1660e01b815260040161361a93929190615c53565b6020604051808303816000875af1158015613639573d6000803e3d6000fd5b505050506040513d601f19601f8201168201806040525081019061365d91906152b4565b613e9f57600354600b80546000926001600160a01b0316916381bad36d918990811061368b5761368b615219565b90600052602060002090601302016006015487600001518860200151876040518563ffffffff1660e01b81526004016136e1949392919093845260ff928316602085015291166040830152606082015260800190565b6020604051808303816000875af1158015613700573d6000803e3d6000fd5b505050506040513d601f19601f820116820180604052508101906137249190615570565b600354600b80549293506000926001600160a01b0390921691635805828391908a90811061375457613754615219565b906000526020600020906013020160060154846040518363ffffffff1660e01b815260040161378d929190918252602082015260400190565b60a060405180830381865afa1580156137aa573d6000803e3d6000fd5b505050506040513d601f19601f820116820180604052508101906137ce9190615c82565b90506002821180156137f357506000815160058111156137f0576137f06148af565b14155b15613e9c5760018151600581111561380d5761380d6148af565b0361386057600b878154811061382557613825615219565b600091825260208220600560139092020101805460ff169161384683615d14565b91906101000a81548160ff021916908360ff160217905550505b600281516005811115613875576138756148af565b036138d057600b878154811061388d5761388d615219565b600091825260209091206013909102016005018054610100900460ff169060016138b683615d14565b91906101000a81548160ff021916908360ff160217905550505b6003815160058111156138e5576138e56148af565b0361394157600b87815481106138fd576138fd615219565b60009182526020909120601390910201600501805462010000900460ff1690600261392783615d14565b91906101000a81548160ff021916908360ff160217905550505b600481516005811115613956576139566148af565b036139b357600b878154811061396e5761396e615219565b6000918252602090912060139091020160050180546301000000900460ff1690600361399983615d14565b91906101000a81548160ff021916908360ff160217905550505b602081015115613b325760048054602083015160405163c82c37b960e01b8152928301526000916001600160a01b039091169063c82c37b990602401600060405180830381865afa158015613a0c573d6000803e3d6000fd5b505050506040513d6000823e601f3d908101601f19168201604052613a349190810190615dc0565b90508060200151613b2c5785600b8981548110613a5357613a53615219565b9060005260206000209060130201600701819055508160200151600b8981548110613a8057613a80615219565b9060005260206000209060130201600801819055506005600b8981548110613aaa57613aaa615219565b60009182526020909120600960139092020101805460ff19166001836005811115613ad757613ad76148af565b021790555086600b8981548110613af057613af0615219565b60009182526020918290208351600a6013909302909101919091018054939092015160ff9081166101000261ffff199094169116179190911790555b50613e9c565b600081516005811115613b4757613b476148af565b14613e9c5784600b8881548110613b6057613b60615219565b90600052602060002090601302016007018190555085600b8881548110613b8957613b89615219565b60009182526020918290208351600a6013909302909101919091018054939092015160ff9081166101000261ffff19909416911617919091179055600181516005811115613bd957613bd96148af565b03613c7a57613c0a600b8881548110613bf457613bf4615219565b9060005260206000209060130201600b0161447b565b600b8881548110613c1d57613c1d615219565b9060005260206000209060130201600801819055506001600b8881548110613c4757613c47615219565b60009182526020909120600960139092020101805460ff19166001836005811115613c7457613c746148af565b02179055505b600281516005811115613c8f57613c8f6148af565b03613d3057613cc0600b8881548110613caa57613caa615219565b9060005260206000209060130201600c0161447b565b600b8881548110613cd357613cd3615219565b9060005260206000209060130201600801819055506002600b8881548110613cfd57613cfd615219565b60009182526020909120600960139092020101805460ff19166001836005811115613d2a57613d2a6148af565b02179055505b600381516005811115613d4557613d456148af565b03613de657613d76600b8881548110613d6057613d60615219565b9060005260206000209060130201600d0161447b565b600b8881548110613d8957613d89615219565b9060005260206000209060130201600801819055506003600b8881548110613db357613db3615219565b60009182526020909120600960139092020101805460ff19166001836005811115613de057613de06148af565b02179055505b600481516005811115613dfb57613dfb6148af565b03613e9c57613e2c600b8881548110613e1657613e16615219565b9060005260206000209060130201600e0161447b565b600b8881548110613e3f57613e3f615219565b9060005260206000209060130201600801819055506004600b8881548110613e6957613e69615219565b60009182526020909120600960139092020101805460ff19166001836005811115613e9657613e966148af565b02179055505b50505b6040518581527f0b902bf94ea0561a1c7b03fed6f663a1ae180c3c6d92b1b529718058696a4c389060200160405180910390a15050505050565b6000600b8381548110613eee57613eee615219565b6000918252602090912060068054601390930290910160078101549181015460088201546009830154604051636d291bbb60e01b81529396506001600160a01b0390951694636d291bbb94613f5694899491938b93600a8b019260ff90911690600401615eb1565b600060405180830381600087803b158015613f7057600080fd5b505af1158015613f84573d6000803e3d6000fd5b505060006007840181905560088401555050600901805460ff191690555050565b6000600b8381548110613fba57613fba615219565b6000918252602090912060065460405163065c363f60e41b815260048101869052601390930290910192506001600160a01b0316906365c363f090602401600060405180830381600087803b15801561401257600080fd5b505af1158015614026573d6000803e3d6000fd5b505042601084015550506001808201546140409190615248565b816002015410156140675760028101805490600061405d8361522f565b9190505550505050565b6140758382600601546145a1565b60006002820155505050565b6000546001600160a01b03163314611a595760405162461bcd60e51b815260206004820181905260248201527f4f776e61626c653a2063616c6c6572206973206e6f7420746865206f776e6572604482015260640161080b565b600080546001600160a01b038381166001600160a01b0319831681178455604051919092169283917f8be0079c531659141344cd1fd0a4f28419497f9722a3daafe3b4186f6b6457e09190a35050565b6060816000036141525750506040805180820190915260018152600360fc1b602082015290565b8160005b811561417c57806141668161522f565b91506141759050600a8361534d565b9150614156565b6000816001600160401b038111156141965761419661499f565b6040519080825280601f01601f1916602001820160405280156141c0576020820181803683370190505b5090505b841561422b576141d5600183615248565b91506141e2600a86615589565b6141ed906030615361565b60f81b81838151811061420257614202615219565b60200101906001600160f81b031916908160001a905350614224600a8661534d565b94506141c4565b949350505050565b6002830154600090819061428d908790600f90849060ff16600881111561425c5761425c6148af565b600881111561426d5761426d6148af565b81526020019081526020016000205486606001516040015160ff1661148c565b1561434957600285015460109060009060ff1660088111156142b1576142b16148af565b60088111156142c2576142c26148af565b8152602081019190915260409081016000908120546006548784015193516301ba1eb160e31b8152600481019490945260248401829052604484019290925293506001600160a01b031690630dd0f58890606401600060405180830381600087803b15801561433057600080fd5b505af1158015614344573d6000803e3d6000fd5b505050505b82158061435b5750836060015160e001515b15614422576000836000036143a657846060015160a0015160000b856060015160c0015160000b1361439557846060015160a0015161439f565b846060015160c001515b90506143b1565b50606084015160a001515b60028601546143ff90889060ff80851691600e916000911660088111156143da576143da6148af565b60088111156143eb576143eb6148af565b81526020019081526020016000205461148c565b15614420576004860180546001935090600061441a836152d1565b91905055505b505b6002850154855460408087015190517fbec470141b1ce95021ad88998cf463bb41483dbb4fa04b0f5f9e34541c7336a49361446b938b9360ff9092169290919088908890615f05565b60405180910390a1505050505050565b8054600090819061448e90600190615248565b90505b801561453e5760006144a4600083611e4f565b9050838160ff16815481106144bb576144bb615219565b90600052602060002001548483815481106144d8576144d8615219565b90600052602060002001548584815481106144f5576144f5615219565b906000526020600020016000878560ff168154811061451657614516615219565b6000918252602090912001929092559190915550819050614536816152d1565b915050614491565b508154600090839061455290600190615248565b8154811061456257614562615219565b906000526020600020015490508280548061457f5761457f615f3c565b600190038181906000526020600020016000905590558060ff16915050919050565b6000600b83815481106145b6576145b6615219565b906000526020600020906013020190508060040160008154809291906145db9061522f565b9091555050600354604051630b06115560e31b8152600481018490526001600160a01b03909116906358308aa890602401600060405180830381600087803b15801561462657600080fd5b505af115801561463a573d6000803e3d6000fd5b505060035460405163c6b41b4560e01b815260048101869052600160248201526001600160a01b03909116925063c6b41b459150604401600060405180830381600087803b15801561468b57600080fd5b505af115801561469f573d6000803e3d6000fd5b5050600680549084015460405163668a7f3b60e01b81526001600160a01b03909216935063668a7f3b92506146db916001860190600401615f52565b600060405180830381600087803b1580156146f557600080fd5b505af1158015614709573d6000803e3d6000fd5b5050825461ff0019166101001790925550505050565b82805482825590600052602060002090810192821561475a579160200282015b8281111561475a57825182559160200191906001019061473f565b50614766929150614852565b5090565b6040805161028081018252600080825260208083018290526060838501819052808401839052608080850184905260a0850184905285519081018652838152918201839052938101829052928301529060c08201908152602001600081526020016000815260200160008152602001600060058111156147ec576147ec6148af565b81526020016148146040518060400160405280600060ff168152602001600060ff1681525090565b815260200160608152602001606081526020016060815260200160608152602001600081526020016000815260200160008152602001606081525090565b5b808211156147665760008155600101614853565b80356009811061487657600080fd5b919050565b60006020828403121561488d57600080fd5b61152282614867565b6000602082840312156148a857600080fd5b5035919050565b634e487b7160e01b600052602160045260246000fd5b600681106148d5576148d56148af565b9052565b6000610240820190508f151582528e151560208301528d60408301528c60608301528b608083015261493b60a083018c60ff815116825260ff602082015116602083015260ff604082015116604083015260ff60608201511660608301525050565b89610120830152886101408301528761016083015261495e6101808301886148c5565b855160ff9081166101a08401526020870151166101c0830152846101e083015283610200830152826102208301529f9e505050505050505050505050505050565b634e487b7160e01b600052604160045260246000fd5b604080519081016001600160401b03811182821017156149d7576149d761499f565b60405290565b60405160e081016001600160401b03811182821017156149d7576149d761499f565b6040516101c081016001600160401b03811182821017156149d7576149d761499f565b604051606081016001600160401b03811182821017156149d7576149d761499f565b604051601f8201601f191681016001600160401b0381118282101715614a6c57614a6c61499f565b604052919050565b60ff811681146133df57600080fd5b600060408284031215614a9557600080fd5b614a9d6149b5565b90508135614aaa81614a74565b81526020820135614aba81614a74565b602082015292915050565b600080600060808486031215614ada57600080fd5b83359250614aeb8560208601614a83565b9150606084013590509250925092565b60008060008060808587031215614b1157600080fd5b84359350614b2160208601614867565b93969395505050506040820135916060013590565b600080600080600060c08688031215614b4e57600080fd5b85359450602086013593506040860135925060608601359150614b748760808801614a83565b90509295509295909350565b60008060008060808587031215614b9657600080fd5b5050823594602084013594506040840135936060013592509050565b600081518084526020808501945080840160005b83811015614be257815187529582019590820190600101614bc6565b509495945050505050565b6020815260006115226020830184614bb2565b60008060408385031215614c1357600080fd5b50508035926020909101359150565b600080600060608486031215614c3757600080fd5b505081359360208301359350604090920135919050565b600981106148d5576148d56148af565b600081518084526020808501945080840160005b83811015614be2578151805188528381015184890152604080820151614c9a828b0182614c4e565b5050606081810151805160ff9081168b84015260208201511660808b01525050608081015160a0898101919091520151151560c088015260e09096019590820190600101614c72565b60208152614cf660208201835115159052565b60006020830151614d0b604084018215159052565b506040830151610300806060850152614d28610320850183614bb2565b915060608501516080850152608085015160a085015260a085015160c085015260c0850151614d8760e086018260ff815116825260ff602082015116602083015260ff604082015116604083015260ff60608201511660608301525050565b5060e085015161016081818701526101008701519150610180828188015261012088015192506101a0838189015261014089015193506101c0614dcc818a01866148c5565b9289015193506101e092614df289850186805160ff908116835260209182015116910152565b828a01519450601f199250610220838a890301818b0152614e138887614bb2565b9750828b015195506102409250838a890301838b0152614e338887614bb2565b9750818b015195506102609150838a890301828b0152614e538887614bb2565b9750848b01519550838a8903016102808b0152614e708887614bb2565b6102008c01516102a08c0152908b01516102c08b0152918a01516102e08a01528901518882039092018589015294509150614ead90508382614c5e565b9695505050505050565b60008060008060a08587031215614ecd57600080fd5b84359350614ede8660208701614a83565b93969395505050506060820135916080013590565b60008060608385031215614f0657600080fd5b82359150614f178460208501614a83565b90509250929050565b604081016108408284805160ff908116835260209182015116910152565b6001600160a01b03811681146133df57600080fd5b60008060408385031215614f6657600080fd5b8235614f7181614f3e565b946020939093013593505050565b80151581146133df57600080fd5b600080600060608486031215614fa257600080fd5b83359250602084013591506040840135614fbb81614f7f565b809150509250925092565b600060208284031215614fd857600080fd5b813561152281614f3e565b60008060408385031215614ff657600080fd5b823561500181614a74565b9150602083013561501181614a74565b809150509250929050565b600080600080600080600060e0888a03121561503757600080fd5b873561504281614f3e565b9650602088013561505281614f3e565b9550604088013561506281614f3e565b9450606088013561507281614f3e565b9350608088013561508281614f3e565b925060a088013561509281614f3e565b915060c08801356150a281614f3e565b8091505092959891949750929550565b6020815260006115226020830184614c5e565b60006001600160401b038211156150de576150de61499f565b5060051b60200190565b6000806000606084860312156150fd57600080fd5b83356001600160401b0381111561511357600080fd5b8401601f8101861361512457600080fd5b80356020615139615134836150c5565b614a44565b82815260059290921b8301810191818101908984111561515857600080fd5b938201935b838510156151765784358252938201939082019061515d565b999188013598505060409096013595945050505050565b600080608083850312156151a057600080fd5b6151aa8484614a83565b9150614f178460408501614a83565b602080825260149082015273139bdd081858dd1a5bdb9cc818dbdb9d1c9858dd60621b604082015260600190565b634e487b7160e01b600052601160045260246000fd5b6000600160ff1b8201615212576152126151e7565b5060000390565b634e487b7160e01b600052603260045260246000fd5b600060018201615241576152416151e7565b5060010190565b81810381811115610840576108406151e7565b84815260c0810161527f6020830186805160ff908116835260209182015116910152565b835460ff808216606085015260089190911c1660808301525b82151560a083015295945050505050565b805161487681614f7f565b6000602082840312156152c657600080fd5b815161152281614f7f565b6000816152e0576152e06151e7565b506000190190565b8681526020810186905260c081016153036040830187614c4e565b8460608301528360808301528260a0830152979650505050505050565b8082028115828204841417610840576108406151e7565b634e487b7160e01b600052601260045260246000fd5b60008261535c5761535c615337565b500490565b80820180821115610840576108406151e7565b8181036000831280158383131683831282161715611247576112476151e7565b805161487681614f3e565b6000602082840312156153b157600080fd5b815161152281614f3e565b60ff8281168282160390811115610840576108406151e7565b60ff8181168382160190811115610840576108406151e7565b60005b838110156154095781810151838201526020016153f1565b50506000910152565b72024b73b30b634b2103234b932b1ba34b7b71d1606d1b8152600082516154408160138501602087016153ee565b9190910160130192915050565b602081526000825180602084015261546c8160408501602087016153ee565b601f01601f19169190910160400192915050565b600181815b808511156154bb5781600019048211156154a1576154a16151e7565b808516156154ae57918102915b93841c9390800290615485565b509250929050565b6000826154d257506001610840565b816154df57506000610840565b81600181146154f557600281146154ff5761551b565b6001915050610840565b60ff841115615510576155106151e7565b50506001821b610840565b5060208310610133831016604e8410600b841016171561553e575081810a610840565b6155488383615480565b806000190482111561555c5761555c6151e7565b029392505050565b600061152283836154c3565b60006020828403121561558257600080fd5b5051919050565b60008261559857615598615337565b500690565b805161487681614a74565b600082601f8301126155b957600080fd5b604051608081018181106001600160401b03821117156155db576155db61499f565b6040528060808401858111156155f057600080fd5b845b8181101561560a5780518352602092830192016155f2565b509195945050505050565b6000602080838503121561562857600080fd5b82516001600160401b038082111561563f57600080fd5b818501915085601f83011261565357600080fd5b8151615661615134826150c5565b81815260059190911b8301840190848101908883111561568057600080fd5b8585015b8381101561579d5780518581111561569b57600080fd5b8601603f81018b136156ac57600080fd5b878101516156bc615134826150c5565b818152610140909102820160400190898101908d8311156156dc57600080fd5b6040840193505b8284101561578d57610140848f0312156156fc57600080fd5b6157046149dd565b845161570f81614a74565b8152848c015161571e81614a74565b818d015261572f8f604087016155a8565b604082015261574060c086016152a9565b606082015261575160e086016152a9565b608082015261576361010086016152a9565b60a082015261577561012086016152a9565b60c082015282526101409390930192908a01906156e3565b8652505050918601918601615684565b5098975050505050505050565b8051600081900b811461487657600080fd5b60006101008083850312156157d057600080fd5b604051908101906001600160401b03821181831017156157f2576157f261499f565b81604052809250615802846157aa565b8152615810602085016157aa565b6020820152615821604085016157aa565b6040820152615832606085016157aa565b6060820152615843608085016157aa565b608082015261585460a085016157aa565b60a082015261586560c085016157aa565b60c082015260e0840151915061587a82614f7f565b60e0015292915050565b60006040828403121561589657600080fd5b61589e6149b5565b905081516158ab81614a74565b81526020820151614aba81614a74565b600082601f8301126158cc57600080fd5b815160206158dc615134836150c5565b82815260059290921b840181019181810190868411156158fb57600080fd5b8286015b8481101561591f57805161591281614a74565b83529183019183016158ff565b509695505050505050565b60006020828403121561593c57600080fd5b81516001600160401b038082111561595357600080fd5b908301906102e0828603121561596857600080fd5b6159706149ff565b61597983615394565b8152602083015160208201526040830151604082015261599c86606085016157bc565b60608201526101606159b087828601615884565b60808301526101a06159c488828701615884565b60a08401526159d66101e086016157aa565b60c08401526159e8610200860161559d565b60e08401526159fa610220860161559d565b610100840152615a0d610240860161559d565b61012084015261026085015184811115615a2657600080fd5b615a32898288016158bb565b61014085015250615a46610280860161559d565b82840152615a576102a086016152a9565b6101808401526102c085015181840152505080935050505092915050565b958652935460ff80821660208089019190915260089290921c811660408801528451811660608801529301519092166080850152151560a0840152151560c083015260e08201526101000190565b600060408284031215615ad557600080fd5b6115228383615884565b60006020808385031215615af257600080fd5b82516001600160401b03811115615b0857600080fd5b8301601f81018513615b1957600080fd5b8051615b27615134826150c5565b81815260609182028301840191848201919088841115615b4657600080fd5b938501935b83851015615bb05780858a031215615b635760008081fd5b615b6b614a22565b8551615b7681614a74565b815285870151615b8581614a74565b8188015260408681015160058110615b9d5760008081fd5b9082015283529384019391850191615b4b565b50979650505050505050565b848152835460ff808216602084015260089190911c16604082015260c08101835160ff90811660608401526020850151166080830152615298565b604081526000615c0a6040830185614bb2565b90508260208301529392505050565b82815260406020820152600061422b6040830184614bb2565b600082810b9082900b03607f198112607f82131715610840576108406151e7565b60808101615c718286805160ff908116835260209182015116910152565b604082019390935260600152919050565b600060a08284031215615c9457600080fd5b60405160a081018181106001600160401b0382111715615cb657615cb661499f565b604052825160068110615cc857600080fd5b8152602083810151908201526040830151615ce281614a74565b60408201526060830151615cf581614a74565b60608201526080830151615d0881614f7f565b60808201529392505050565b600060ff821660ff8103615d2a57615d2a6151e7565b60010192915050565b600082601f830112615d4457600080fd5b81516020615d54615134836150c5565b82815260069290921b84018101918181019086841115615d7357600080fd5b8286015b8481101561591f5760408189031215615d905760008081fd5b615d986149b5565b815160178110615da85760008081fd5b81528185015185820152835291830191604001615d77565b600060208284031215615dd257600080fd5b81516001600160401b0380821115615de957600080fd5b9083019060e08286031215615dfd57600080fd5b615e056149dd565b82518152615e15602084016152a9565b6020820152615e266040840161559d565b6040820152615e376060840161559d565b6060820152608083015182811115615e4e57600080fd5b615e5a87828601615d33565b60808301525060a083015182811115615e7257600080fd5b615e7e87828601615d33565b60a08301525060c083015182811115615e9657600080fd5b615ea287828601615d33565b60c08301525095945050505050565b878152602081018790526040810186905260608101859052835460ff808216608084015260089190911c1660a082015261010081018360c0830152615ef960e08301846148c5565b98975050505050505050565b86815260c08101615f196020830188614c4e565b8560408301528460608301528360808301528260a0830152979650505050505050565b634e487b7160e01b600052603160045260246000fd5b60006040820184835260206040818501528185548084526060860191508660005282600020935060005b81811015615f9857845483526001948501949284019201615f7c565b509097965050505050505056fea2646970667358221220b185f2361f37acd521ad97b34a2af15daffa906d6fc43f347b5d174f74e82afa64736f6c63430008110033",
  "devdoc": {
    "kind": "dev",
    "methods": {
      "owner()": {
        "details": "Returns the address of the current owner."
      },
      "renounceOwnership()": {
        "details": "Leaves the contract without owner. It will not be possible to call `onlyOwner` functions anymore. Can only be called by the current owner. NOTE: Renouncing ownership will leave the contract without an owner, thereby removing any functionality that is only available to the owner."
      },
      "transferOwnership(address)": {
        "details": "Transfers ownership of the contract to a new account (`newOwner`). Can only be called by the current owner."
      }
    },
    "version": 1
  },
  "userdoc": {
    "kind": "user",
    "methods": {},
    "version": 1
  },
  "storageLayout": {
    "storage": [
      {
        "astId": 7,
        "contract": "contracts/BCGames.sol:BCGames",
        "label": "_owner",
        "offset": 0,
        "slot": "0",
        "type": "t_address"
      },
      {
        "astId": 19653,
        "contract": "contracts/BCGames.sol:BCGames",
        "label": "TODO_randomSeed",
        "offset": 0,
        "slot": "1",
        "type": "t_uint256"
      },
      {
        "astId": 9483,
        "contract": "contracts/BCGames.sol:BCGames",
        "label": "chars",
        "offset": 0,
        "slot": "2",
        "type": "t_contract(CharInterface)9191"
      },
      {
        "astId": 9486,
        "contract": "contracts/BCGames.sol:BCGames",
        "label": "maps",
        "offset": 0,
        "slot": "3",
        "type": "t_contract(MapInterface)9358"
      },
      {
        "astId": 9489,
        "contract": "contracts/BCGames.sol:BCGames",
        "label": "bcEvents",
        "offset": 0,
        "slot": "4",
        "type": "t_contract(EventsInterface)9172"
      },
      {
        "astId": 9492,
        "contract": "contracts/BCGames.sol:BCGames",
        "label": "items",
        "offset": 0,
        "slot": "5",
        "type": "t_contract(ItemsInterface)9387"
      },
      {
        "astId": 9495,
        "contract": "contracts/BCGames.sol:BCGames",
        "label": "players",
        "offset": 0,
        "slot": "6",
        "type": "t_contract(PlayersInterface)9476"
      },
      {
        "astId": 9497,
        "contract": "contracts/BCGames.sol:BCGames",
        "label": "lobbiesAddress",
        "offset": 0,
        "slot": "7",
        "type": "t_address"
      },
      {
        "astId": 9499,
        "contract": "contracts/BCGames.sol:BCGames",
        "label": "charsAddress",
        "offset": 0,
        "slot": "8",
        "type": "t_address"
      },
      {
        "astId": 9501,
        "contract": "contracts/BCGames.sol:BCGames",
        "label": "actionsAddress",
        "offset": 0,
        "slot": "9",
        "type": "t_address"
      },
      {
        "astId": 9573,
        "contract": "contracts/BCGames.sol:BCGames",
        "label": "StartLocation",
        "offset": 0,
        "slot": "10",
        "type": "t_struct(Position)19434_storage"
      },
      {
        "astId": 9577,
        "contract": "contracts/BCGames.sol:BCGames",
        "label": "games",
        "offset": 0,
        "slot": "11",
        "type": "t_array(t_struct(Game)19535_storage)dyn_storage"
      },
      {
        "astId": 9582,
        "contract": "contracts/BCGames.sol:BCGames",
        "label": "addressToGame",
        "offset": 0,
        "slot": "12",
        "type": "t_mapping(t_address,t_array(t_uint256)dyn_storage)"
      },
      {
        "astId": 9587,
        "contract": "contracts/BCGames.sol:BCGames",
        "label": "denizenHealth",
        "offset": 0,
        "slot": "13",
        "type": "t_mapping(t_enum(DenizenType)19372,t_uint256)"
      },
      {
        "astId": 9592,
        "contract": "contracts/BCGames.sol:BCGames",
        "label": "denizenDef",
        "offset": 0,
        "slot": "14",
        "type": "t_mapping(t_enum(DenizenType)19372,t_uint256)"
      },
      {
        "astId": 9597,
        "contract": "contracts/BCGames.sol:BCGames",
        "label": "denizenOff",
        "offset": 0,
        "slot": "15",
        "type": "t_mapping(t_enum(DenizenType)19372,t_uint256)"
      },
      {
        "astId": 9602,
        "contract": "contracts/BCGames.sol:BCGames",
        "label": "denizenDmg",
        "offset": 0,
        "slot": "16",
        "type": "t_mapping(t_enum(DenizenType)19372,t_uint256)"
      },
      {
        "astId": 9607,
        "contract": "contracts/BCGames.sol:BCGames",
        "label": "denizenMovement",
        "offset": 0,
        "slot": "17",
        "type": "t_mapping(t_enum(DenizenType)19372,t_uint256)"
      }
    ],
    "types": {
      "t_address": {
        "encoding": "inplace",
        "label": "address",
        "numberOfBytes": "20"
      },
      "t_array(t_struct(Denizen)19420_storage)dyn_storage": {
        "base": "t_struct(Denizen)19420_storage",
        "encoding": "dynamic_array",
        "label": "struct BCTypes.Denizen[]",
        "numberOfBytes": "32"
      },
      "t_array(t_struct(Game)19535_storage)dyn_storage": {
        "base": "t_struct(Game)19535_storage",
        "encoding": "dynamic_array",
        "label": "struct BCTypes.Game[]",
        "numberOfBytes": "32"
      },
      "t_array(t_uint256)dyn_storage": {
        "base": "t_uint256",
        "encoding": "dynamic_array",
        "label": "uint256[]",
        "numberOfBytes": "32"
      },
      "t_bool": {
        "encoding": "inplace",
        "label": "bool",
        "numberOfBytes": "1"
      },
      "t_contract(CharInterface)9191": {
        "encoding": "inplace",
        "label": "contract CharInterface",
        "numberOfBytes": "20"
      },
      "t_contract(EventsInterface)9172": {
        "encoding": "inplace",
        "label": "contract EventsInterface",
        "numberOfBytes": "20"
      },
      "t_contract(ItemsInterface)9387": {
        "encoding": "inplace",
        "label": "contract ItemsInterface",
        "numberOfBytes": "20"
      },
      "t_contract(MapInterface)9358": {
        "encoding": "inplace",
        "label": "contract MapInterface",
        "numberOfBytes": "20"
      },
      "t_contract(PlayersInterface)9476": {
        "encoding": "inplace",
        "label": "contract PlayersInterface",
        "numberOfBytes": "20"
      },
      "t_enum(BCEventType)19340": {
        "encoding": "inplace",
        "label": "enum BCTypes.BCEventType",
        "numberOfBytes": "1"
      },
      "t_enum(DenizenType)19372": {
        "encoding": "inplace",
        "label": "enum BCTypes.DenizenType",
        "numberOfBytes": "1"
      },
      "t_mapping(t_address,t_array(t_uint256)dyn_storage)": {
        "encoding": "mapping",
        "key": "t_address",
        "label": "mapping(address => uint256[])",
        "numberOfBytes": "32",
        "value": "t_array(t_uint256)dyn_storage"
      },
      "t_mapping(t_enum(DenizenType)19372,t_uint256)": {
        "encoding": "mapping",
        "key": "t_enum(DenizenType)19372",
        "label": "mapping(enum BCTypes.DenizenType => uint256)",
        "numberOfBytes": "32",
        "value": "t_uint256"
      },
      "t_struct(Denizen)19420_storage": {
        "encoding": "inplace",
        "label": "struct BCTypes.Denizen",
        "members": [
          {
            "astId": 19407,
            "contract": "contracts/BCGames.sol:BCGames",
            "label": "id",
            "offset": 0,
            "slot": "0",
            "type": "t_uint256"
          },
          {
            "astId": 19409,
            "contract": "contracts/BCGames.sol:BCGames",
            "label": "gameId",
            "offset": 0,
            "slot": "1",
            "type": "t_uint256"
          },
          {
            "astId": 19412,
            "contract": "contracts/BCGames.sol:BCGames",
            "label": "denizenType",
            "offset": 0,
            "slot": "2",
            "type": "t_enum(DenizenType)19372"
          },
          {
            "astId": 19415,
            "contract": "contracts/BCGames.sol:BCGames",
            "label": "position",
            "offset": 0,
            "slot": "3",
            "type": "t_struct(Position)19434_storage"
          },
          {
            "astId": 19417,
            "contract": "contracts/BCGames.sol:BCGames",
            "label": "healthRemaining",
            "offset": 0,
            "slot": "4",
            "type": "t_uint256"
          },
          {
            "astId": 19419,
            "contract": "contracts/BCGames.sol:BCGames",
            "label": "looted",
            "offset": 0,
            "slot": "5",
            "type": "t_bool"
          }
        ],
        "numberOfBytes": "192"
      },
      "t_struct(EventTracker)19429_storage": {
        "encoding": "inplace",
        "label": "struct BCTypes.EventTracker",
        "members": [
          {
            "astId": 19422,
            "contract": "contracts/BCGames.sol:BCGames",
            "label": "bugEvents",
            "offset": 0,
            "slot": "0",
            "type": "t_uint8"
          },
          {
            "astId": 19424,
            "contract": "contracts/BCGames.sol:BCGames",
            "label": "mysteryEvents",
            "offset": 1,
            "slot": "0",
            "type": "t_uint8"
          },
          {
            "astId": 19426,
            "contract": "contracts/BCGames.sol:BCGames",
            "label": "scavEvents",
            "offset": 2,
            "slot": "0",
            "type": "t_uint8"
          },
          {
            "astId": 19428,
            "contract": "contracts/BCGames.sol:BCGames",
            "label": "shipEvents",
            "offset": 3,
            "slot": "0",
            "type": "t_uint8"
          }
        ],
        "numberOfBytes": "32"
      },
      "t_struct(Game)19535_storage": {
        "encoding": "inplace",
        "label": "struct BCTypes.Game",
        "members": [
          {
            "astId": 19486,
            "contract": "contracts/BCGames.sol:BCGames",
            "label": "active",
            "offset": 0,
            "slot": "0",
            "type": "t_bool"
          },
          {
            "astId": 19488,
            "contract": "contracts/BCGames.sol:BCGames",
            "label": "denizenTurn",
            "offset": 1,
            "slot": "0",
            "type": "t_bool"
          },
          {
            "astId": 19491,
            "contract": "contracts/BCGames.sol:BCGames",
            "label": "playerIndexes",
            "offset": 0,
            "slot": "1",
            "type": "t_array(t_uint256)dyn_storage"
          },
          {
            "astId": 19493,
            "contract": "contracts/BCGames.sol:BCGames",
            "label": "currentPlayerTurnIndex",
            "offset": 0,
            "slot": "2",
            "type": "t_uint256"
          },
          {
            "astId": 19495,
            "contract": "contracts/BCGames.sol:BCGames",
            "label": "numPlayers",
            "offset": 0,
            "slot": "3",
            "type": "t_uint256"
          },
          {
            "astId": 19497,
            "contract": "contracts/BCGames.sol:BCGames",
            "label": "turnsTaken",
            "offset": 0,
            "slot": "4",
            "type": "t_uint256"
          },
          {
            "astId": 19500,
            "contract": "contracts/BCGames.sol:BCGames",
            "label": "eventTracker",
            "offset": 0,
            "slot": "5",
            "type": "t_struct(EventTracker)19429_storage"
          },
          {
            "astId": 19502,
            "contract": "contracts/BCGames.sol:BCGames",
            "label": "mapId",
            "offset": 0,
            "slot": "6",
            "type": "t_uint256"
          },
          {
            "astId": 19504,
            "contract": "contracts/BCGames.sol:BCGames",
            "label": "eventPlayerId",
            "offset": 0,
            "slot": "7",
            "type": "t_uint256"
          },
          {
            "astId": 19506,
            "contract": "contracts/BCGames.sol:BCGames",
            "label": "eventNumber",
            "offset": 0,
            "slot": "8",
            "type": "t_uint256"
          },
          {
            "astId": 19509,
            "contract": "contracts/BCGames.sol:BCGames",
            "label": "eventType",
            "offset": 0,
            "slot": "9",
            "type": "t_enum(BCEventType)19340"
          },
          {
            "astId": 19512,
            "contract": "contracts/BCGames.sol:BCGames",
            "label": "eventPosition",
            "offset": 0,
            "slot": "10",
            "type": "t_struct(Position)19434_storage"
          },
          {
            "astId": 19515,
            "contract": "contracts/BCGames.sol:BCGames",
            "label": "unusedBugEvents",
            "offset": 0,
            "slot": "11",
            "type": "t_array(t_uint256)dyn_storage"
          },
          {
            "astId": 19518,
            "contract": "contracts/BCGames.sol:BCGames",
            "label": "unusedMysteryEvents",
            "offset": 0,
            "slot": "12",
            "type": "t_array(t_uint256)dyn_storage"
          },
          {
            "astId": 19521,
            "contract": "contracts/BCGames.sol:BCGames",
            "label": "unusedScavEvents",
            "offset": 0,
            "slot": "13",
            "type": "t_array(t_uint256)dyn_storage"
          },
          {
            "astId": 19524,
            "contract": "contracts/BCGames.sol:BCGames",
            "label": "unusedShipEvents",
            "offset": 0,
            "slot": "14",
            "type": "t_array(t_uint256)dyn_storage"
          },
          {
            "astId": 19526,
            "contract": "contracts/BCGames.sol:BCGames",
            "label": "turnTimeLimit",
            "offset": 0,
            "slot": "15",
            "type": "t_uint256"
          },
          {
            "astId": 19528,
            "contract": "contracts/BCGames.sol:BCGames",
            "label": "lastTurnTimestamp",
            "offset": 0,
            "slot": "16",
            "type": "t_uint256"
          },
          {
            "astId": 19530,
            "contract": "contracts/BCGames.sol:BCGames",
            "label": "DEBUG_returnAmount",
            "offset": 0,
            "slot": "17",
            "type": "t_uint256"
          },
          {
            "astId": 19534,
            "contract": "contracts/BCGames.sol:BCGames",
            "label": "denizens",
            "offset": 0,
            "slot": "18",
            "type": "t_array(t_struct(Denizen)19420_storage)dyn_storage"
          }
        ],
        "numberOfBytes": "608"
      },
      "t_struct(Position)19434_storage": {
        "encoding": "inplace",
        "label": "struct BCTypes.Position",
        "members": [
          {
            "astId": 19431,
            "contract": "contracts/BCGames.sol:BCGames",
            "label": "row",
            "offset": 0,
            "slot": "0",
            "type": "t_uint8"
          },
          {
            "astId": 19433,
            "contract": "contracts/BCGames.sol:BCGames",
            "label": "col",
            "offset": 1,
            "slot": "0",
            "type": "t_uint8"
          }
        ],
        "numberOfBytes": "32"
      },
      "t_uint256": {
        "encoding": "inplace",
        "label": "uint256",
        "numberOfBytes": "32"
      },
      "t_uint8": {
        "encoding": "inplace",
        "label": "uint8",
        "numberOfBytes": "1"
      }
    }
  }
}