{
  "address": "0xC14F9D9E667dCe0F27cE9Eb0f5f92fa4Aa366d7E",
  "abi": [
    {
      "inputs": [],
      "stateMutability": "nonpayable",
      "type": "constructor"
    },
    {
      "anonymous": false,
      "inputs": [
        {
          "indexed": true,
          "internalType": "address",
          "name": "previousOwner",
          "type": "address"
        },
        {
          "indexed": true,
          "internalType": "address",
          "name": "newOwner",
          "type": "address"
        }
      ],
      "name": "OwnershipTransferred",
      "type": "event"
    },
    {
      "inputs": [],
      "name": "StartLocation",
      "outputs": [
        {
          "internalType": "uint8",
          "name": "row",
          "type": "uint8"
        },
        {
          "internalType": "uint8",
          "name": "col",
          "type": "uint8"
        }
      ],
      "stateMutability": "view",
      "type": "function"
    },
    {
      "inputs": [],
      "name": "actionsAddress",
      "outputs": [
        {
          "internalType": "address",
          "name": "",
          "type": "address"
        }
      ],
      "stateMutability": "view",
      "type": "function"
    },
    {
      "inputs": [
        {
          "internalType": "address",
          "name": "_charContractAddress",
          "type": "address"
        },
        {
          "internalType": "uint256",
          "name": "_charId",
          "type": "uint256"
        },
        {
          "internalType": "address",
          "name": "_owner",
          "type": "address"
        }
      ],
      "name": "addPlayer",
      "outputs": [
        {
          "internalType": "uint256",
          "name": "",
          "type": "uint256"
        }
      ],
      "stateMutability": "nonpayable",
      "type": "function"
    },
    {
      "inputs": [
        {
          "internalType": "address",
          "name": "",
          "type": "address"
        },
        {
          "internalType": "uint256",
          "name": "",
          "type": "uint256"
        }
      ],
      "name": "addressToGame",
      "outputs": [
        {
          "internalType": "uint256",
          "name": "",
          "type": "uint256"
        }
      ],
      "stateMutability": "view",
      "type": "function"
    },
    {
      "inputs": [],
      "name": "chars",
      "outputs": [
        {
          "internalType": "contract CharInterface",
          "name": "",
          "type": "address"
        }
      ],
      "stateMutability": "view",
      "type": "function"
    },
    {
      "inputs": [],
      "name": "charsAddress",
      "outputs": [
        {
          "internalType": "address",
          "name": "",
          "type": "address"
        }
      ],
      "stateMutability": "view",
      "type": "function"
    },
    {
      "inputs": [
        {
          "internalType": "uint256",
          "name": "_gameId",
          "type": "uint256"
        },
        {
          "internalType": "uint256",
          "name": "_playerId",
          "type": "uint256"
        }
      ],
      "name": "endPlayerAction",
      "outputs": [],
      "stateMutability": "nonpayable",
      "type": "function"
    },
    {
      "inputs": [
        {
          "internalType": "uint256",
          "name": "_id",
          "type": "uint256"
        }
      ],
      "name": "extGetGame",
      "outputs": [
        {
          "components": [
            {
              "internalType": "bool",
              "name": "active",
              "type": "bool"
            },
            {
              "internalType": "uint256[]",
              "name": "playerIndexes",
              "type": "uint256[]"
            },
            {
              "internalType": "uint256",
              "name": "currentPlayerTurnIndex",
              "type": "uint256"
            },
            {
              "internalType": "uint256",
              "name": "numPlayers",
              "type": "uint256"
            },
            {
              "internalType": "uint256",
              "name": "turnsTaken",
              "type": "uint256"
            },
            {
              "components": [
                {
                  "internalType": "uint8",
                  "name": "bugEvents",
                  "type": "uint8"
                },
                {
                  "internalType": "uint8",
                  "name": "mysteryEvents",
                  "type": "uint8"
                },
                {
                  "internalType": "uint8",
                  "name": "scavEvents",
                  "type": "uint8"
                },
                {
                  "internalType": "uint8",
                  "name": "shipEvents",
                  "type": "uint8"
                }
              ],
              "internalType": "struct BCTypes.EventTracker",
              "name": "eventTracker",
              "type": "tuple"
            },
            {
              "internalType": "address",
              "name": "mapContract",
              "type": "address"
            },
            {
              "internalType": "uint256",
              "name": "mapId",
              "type": "uint256"
            }
          ],
          "internalType": "struct BCTypes.Game",
          "name": "",
          "type": "tuple"
        }
      ],
      "stateMutability": "view",
      "type": "function"
    },
    {
      "inputs": [
        {
          "internalType": "uint256",
          "name": "_gameId",
          "type": "uint256"
        }
      ],
      "name": "extGetGamePlayerIndexes",
      "outputs": [
        {
          "internalType": "uint256[]",
          "name": "",
          "type": "uint256[]"
        }
      ],
      "stateMutability": "view",
      "type": "function"
    },
    {
      "inputs": [
        {
          "internalType": "address",
          "name": "_playerAddress",
          "type": "address"
        }
      ],
      "name": "extGetGamesOfPlayer",
      "outputs": [
        {
          "internalType": "uint256[]",
          "name": "",
          "type": "uint256[]"
        }
      ],
      "stateMutability": "view",
      "type": "function"
    },
    {
      "inputs": [
        {
          "internalType": "uint256",
          "name": "_id",
          "type": "uint256"
        }
      ],
      "name": "extGetPlayer",
      "outputs": [
        {
          "components": [
            {
              "internalType": "address",
              "name": "owner",
              "type": "address"
            },
            {
              "internalType": "address",
              "name": "charContractAddress",
              "type": "address"
            },
            {
              "internalType": "uint256",
              "name": "characterId",
              "type": "uint256"
            },
            {
              "components": [
                {
                  "internalType": "uint8",
                  "name": "row",
                  "type": "uint8"
                },
                {
                  "internalType": "uint8",
                  "name": "col",
                  "type": "uint8"
                }
              ],
              "internalType": "struct BCTypes.Position",
              "name": "position",
              "type": "tuple"
            },
            {
              "internalType": "uint8",
              "name": "healthDmgTaken",
              "type": "uint8"
            },
            {
              "internalType": "uint8",
              "name": "armorDmgTaken",
              "type": "uint8"
            },
            {
              "internalType": "uint8",
              "name": "actionsTaken",
              "type": "uint8"
            },
            {
              "internalType": "uint8",
              "name": "dataTokens",
              "type": "uint8"
            },
            {
              "internalType": "uint8[]",
              "name": "currentEffects",
              "type": "uint8[]"
            },
            {
              "internalType": "uint8[]",
              "name": "inventoryIDs",
              "type": "uint8[]"
            },
            {
              "internalType": "bool",
              "name": "canHarmOthers",
              "type": "bool"
            },
            {
              "internalType": "bool",
              "name": "dead",
              "type": "bool"
            }
          ],
          "internalType": "struct BCTypes.Player",
          "name": "",
          "type": "tuple"
        }
      ],
      "stateMutability": "view",
      "type": "function"
    },
    {
      "inputs": [
        {
          "internalType": "uint256",
          "name": "_mapId",
          "type": "uint256"
        },
        {
          "components": [
            {
              "internalType": "uint8",
              "name": "row",
              "type": "uint8"
            },
            {
              "internalType": "uint8",
              "name": "col",
              "type": "uint8"
            }
          ],
          "internalType": "struct BCTypes.Position",
          "name": "_position",
          "type": "tuple"
        },
        {
          "internalType": "uint256",
          "name": "_playerId",
          "type": "uint256"
        }
      ],
      "name": "extMovePlayer",
      "outputs": [],
      "stateMutability": "nonpayable",
      "type": "function"
    },
    {
      "inputs": [
        {
          "internalType": "uint256",
          "name": "",
          "type": "uint256"
        }
      ],
      "name": "games",
      "outputs": [
        {
          "internalType": "bool",
          "name": "active",
          "type": "bool"
        },
        {
          "internalType": "uint256",
          "name": "currentPlayerTurnIndex",
          "type": "uint256"
        },
        {
          "internalType": "uint256",
          "name": "numPlayers",
          "type": "uint256"
        },
        {
          "internalType": "uint256",
          "name": "turnsTaken",
          "type": "uint256"
        },
        {
          "components": [
            {
              "internalType": "uint8",
              "name": "bugEvents",
              "type": "uint8"
            },
            {
              "internalType": "uint8",
              "name": "mysteryEvents",
              "type": "uint8"
            },
            {
              "internalType": "uint8",
              "name": "scavEvents",
              "type": "uint8"
            },
            {
              "internalType": "uint8",
              "name": "shipEvents",
              "type": "uint8"
            }
          ],
          "internalType": "struct BCTypes.EventTracker",
          "name": "eventTracker",
          "type": "tuple"
        },
        {
          "internalType": "address",
          "name": "mapContract",
          "type": "address"
        },
        {
          "internalType": "uint256",
          "name": "mapId",
          "type": "uint256"
        }
      ],
      "stateMutability": "view",
      "type": "function"
    },
    {
      "inputs": [
        {
          "internalType": "uint256",
          "name": "_playerId",
          "type": "uint256"
        },
        {
          "internalType": "uint8",
          "name": "_amount",
          "type": "uint8"
        }
      ],
      "name": "grantDataToPlayer",
      "outputs": [],
      "stateMutability": "nonpayable",
      "type": "function"
    },
    {
      "inputs": [],
      "name": "lobbiesAddress",
      "outputs": [
        {
          "internalType": "address",
          "name": "",
          "type": "address"
        }
      ],
      "stateMutability": "view",
      "type": "function"
    },
    {
      "inputs": [],
      "name": "maps",
      "outputs": [
        {
          "internalType": "contract MapInterface",
          "name": "",
          "type": "address"
        }
      ],
      "stateMutability": "view",
      "type": "function"
    },
    {
      "inputs": [],
      "name": "owner",
      "outputs": [
        {
          "internalType": "address",
          "name": "",
          "type": "address"
        }
      ],
      "stateMutability": "view",
      "type": "function"
    },
    {
      "inputs": [
        {
          "internalType": "uint256",
          "name": "",
          "type": "uint256"
        }
      ],
      "name": "players",
      "outputs": [
        {
          "internalType": "address",
          "name": "owner",
          "type": "address"
        },
        {
          "internalType": "address",
          "name": "charContractAddress",
          "type": "address"
        },
        {
          "internalType": "uint256",
          "name": "characterId",
          "type": "uint256"
        },
        {
          "components": [
            {
              "internalType": "uint8",
              "name": "row",
              "type": "uint8"
            },
            {
              "internalType": "uint8",
              "name": "col",
              "type": "uint8"
            }
          ],
          "internalType": "struct BCTypes.Position",
          "name": "position",
          "type": "tuple"
        },
        {
          "internalType": "uint8",
          "name": "healthDmgTaken",
          "type": "uint8"
        },
        {
          "internalType": "uint8",
          "name": "armorDmgTaken",
          "type": "uint8"
        },
        {
          "internalType": "uint8",
          "name": "actionsTaken",
          "type": "uint8"
        },
        {
          "internalType": "uint8",
          "name": "dataTokens",
          "type": "uint8"
        },
        {
          "internalType": "bool",
          "name": "canHarmOthers",
          "type": "bool"
        },
        {
          "internalType": "bool",
          "name": "dead",
          "type": "bool"
        }
      ],
      "stateMutability": "view",
      "type": "function"
    },
    {
      "inputs": [],
      "name": "renounceOwnership",
      "outputs": [],
      "stateMutability": "nonpayable",
      "type": "function"
    },
    {
      "inputs": [],
      "name": "roomTiles",
      "outputs": [
        {
          "internalType": "contract RoomTileInterface",
          "name": "",
          "type": "address"
        }
      ],
      "stateMutability": "view",
      "type": "function"
    },
    {
      "inputs": [
        {
          "internalType": "address",
          "name": "_roomTileAddress",
          "type": "address"
        },
        {
          "internalType": "address",
          "name": "_charAddress",
          "type": "address"
        },
        {
          "internalType": "address",
          "name": "_utilsAddress",
          "type": "address"
        },
        {
          "internalType": "address",
          "name": "_mapsAddress",
          "type": "address"
        },
        {
          "internalType": "address",
          "name": "_lobbiesAddress",
          "type": "address"
        },
        {
          "internalType": "address",
          "name": "_actionsAddress",
          "type": "address"
        }
      ],
      "name": "setContractAddresses",
      "outputs": [],
      "stateMutability": "nonpayable",
      "type": "function"
    },
    {
      "inputs": [
        {
          "internalType": "uint256[]",
          "name": "_playerIndexes",
          "type": "uint256[]"
        },
        {
          "internalType": "uint256",
          "name": "_numPlayers",
          "type": "uint256"
        }
      ],
      "name": "startGame",
      "outputs": [],
      "stateMutability": "nonpayable",
      "type": "function"
    },
    {
      "inputs": [],
      "name": "transferFundsOut",
      "outputs": [],
      "stateMutability": "nonpayable",
      "type": "function"
    },
    {
      "inputs": [
        {
          "internalType": "address",
          "name": "newOwner",
          "type": "address"
        }
      ],
      "name": "transferOwnership",
      "outputs": [],
      "stateMutability": "nonpayable",
      "type": "function"
    },
    {
      "inputs": [],
      "name": "utils",
      "outputs": [
        {
          "internalType": "contract UtilsInterface",
          "name": "",
          "type": "address"
        }
      ],
      "stateMutability": "view",
      "type": "function"
    }
  ],
  "transactionHash": "0x4bed8af0a04b3c756d84979e8bcda495bd1143edb80163ee40d0a61fd70aa579",
  "args": [],
  "numDeployments": 1,
  "solcInputHash": "b50a5b3c8474af06ef3db844dcea773c",
  "bytecode": "0x60806040526040518060400160405280600a60ff168152602001600660ff16815250600860008201518160000160006101000a81548160ff021916908360ff16021790555060208201518160000160016101000a81548160ff021916908360ff16021790555050503480156200007457600080fd5b5062000095620000896200009b60201b60201c565b620000a360201b60201c565b62000167565b600033905090565b60008060009054906101000a900473ffffffffffffffffffffffffffffffffffffffff169050816000806101000a81548173ffffffffffffffffffffffffffffffffffffffff021916908373ffffffffffffffffffffffffffffffffffffffff1602179055508173ffffffffffffffffffffffffffffffffffffffff168173ffffffffffffffffffffffffffffffffffffffff167f8be0079c531659141344cd1fd0a4f28419497f9722a3daafe3b4186f6b6457e060405160405180910390a35050565b6134e980620001776000396000f3fe608060405234801561001057600080fd5b50600436106101735760003560e01c806368030c72116100de578063a99d2a8b11610097578063dc769ee811610071578063dc769ee814610440578063f2fde38b1461045f578063f7157f641461047b578063f71d96cb1461049957610173565b8063a99d2a8b146103c4578063afd62bb2146103f4578063b69071941461042457610173565b806368030c72146103145780636fe99c1814610330578063715018a6146103605780637b45c0d41461036a5780638da5cb5b146103885780639fca1ee1146103a657610173565b80633838aed1116101305780633838aed1146102665780633deaec2b1461027057806340d4fd781461028e5780634c8463a7146102be5780635a29638d146102da57806360fe842e146102f857610173565b806308178b3c1461017857806310a2cd0d146101a857806310f67fb3146101c6578063117a5b90146101f6578063175142251461022c578063336d7d7b14610248575b600080fd5b610192600480360381019061018d919061224e565b6104d2565b60405161019f91906122b0565b60405180910390f35b6101b0610633565b6040516101bd919061232a565b60405180910390f35b6101e060048036038101906101db9190612345565b610659565b6040516101ed91906125b1565b60405180910390f35b610210600480360381019061020b9190612345565b610940565b6040516102239796959493929190612646565b60405180910390f35b610246600480360381019061024191906127c5565b610a3d565b005b610250610add565b60405161025d9190612818565b60405180910390f35b61026e610b03565b005b610278610b5b565b6040516102859190612854565b60405180910390f35b6102a860048036038101906102a39190612345565b610b81565b6040516102b5919061291e565b60405180910390f35b6102d860048036038101906102d39190612940565b610c82565b005b6102e2610e18565b6040516102ef91906129ee565b60405180910390f35b610312600480360381019061030d9190612a09565b610e3e565b005b61032e60048036038101906103299190612b16565b611121565b005b61034a60048036038101906103459190612345565b611555565b6040516103579190612ce8565b60405180910390f35b61036861170b565b005b61037261171f565b60405161037f9190612818565b60405180910390f35b610390611745565b60405161039d9190612818565b60405180910390f35b6103ae61176e565b6040516103bb9190612818565b60405180910390f35b6103de60048036038101906103d99190612d0a565b611794565b6040516103eb91906122b0565b60405180910390f35b61040e60048036038101906104099190612d4a565b6117c5565b60405161041b919061291e565b60405180910390f35b61043e60048036038101906104399190612d77565b6118fa565b005b6104486119e7565b604051610456929190612dc6565b60405180910390f35b61047960048036038101906104749190612d4a565b611a13565b005b610483611a97565b6040516104909190612e10565b60405180910390f35b6104b360048036038101906104ae9190612345565b611abd565b6040516104c99a99989796959493929190612e5a565b60405180910390f35b6000600560009054906101000a900473ffffffffffffffffffffffffffffffffffffffff1673ffffffffffffffffffffffffffffffffffffffff163373ffffffffffffffffffffffffffffffffffffffff1614610564576040517f08c379a000000000000000000000000000000000000000000000000000000000815260040161055b90612f54565b60405180910390fd5b600060096001816001815401808255809150500390600052602060002090600802019050848160010160006101000a81548173ffffffffffffffffffffffffffffffffffffffff021916908373ffffffffffffffffffffffffffffffffffffffff160217905550828160000160006101000a81548173ffffffffffffffffffffffffffffffffffffffff021916908373ffffffffffffffffffffffffffffffffffffffff16021790555083816002018190555060016009805490506106299190612fa3565b9150509392505050565b600260009054906101000a900473ffffffffffffffffffffffffffffffffffffffff1681565b610661611fe2565b6009828154811061067557610674612fd7565b5b9060005260206000209060080201604051806101800160405290816000820160009054906101000a900473ffffffffffffffffffffffffffffffffffffffff1673ffffffffffffffffffffffffffffffffffffffff1673ffffffffffffffffffffffffffffffffffffffff1681526020016001820160009054906101000a900473ffffffffffffffffffffffffffffffffffffffff1673ffffffffffffffffffffffffffffffffffffffff1673ffffffffffffffffffffffffffffffffffffffff16815260200160028201548152602001600382016040518060400160405290816000820160009054906101000a900460ff1660ff1660ff1681526020016000820160019054906101000a900460ff1660ff1660ff168152505081526020016004820160009054906101000a900460ff1660ff1660ff1681526020016004820160019054906101000a900460ff1660ff1660ff1681526020016004820160029054906101000a900460ff1660ff1660ff1681526020016004820160039054906101000a900460ff1660ff1660ff1681526020016005820180548060200260200160405190810160405280929190818152602001828054801561087c57602002820191906000526020600020906000905b82829054906101000a900460ff1660ff16815260200190600101906020826000010492830192600103820291508084116108455790505b50505050508152602001600682018054806020026020016040519081016040528092919081815260200182805480156108fa57602002820191906000526020600020906000905b82829054906101000a900460ff1660ff16815260200190600101906020826000010492830192600103820291508084116108c35790505b505050505081526020016007820160009054906101000a900460ff161515151581526020016007820160019054906101000a900460ff1615151515815250509050919050565b600a818154811061095057600080fd5b90600052602060002090600802016000915090508060000160009054906101000a900460ff1690806002015490806003015490806004015490806005016040518060800160405290816000820160009054906101000a900460ff1660ff1660ff1681526020016000820160019054906101000a900460ff1660ff1660ff1681526020016000820160029054906101000a900460ff1660ff1660ff1681526020016000820160039054906101000a900460ff1660ff1660ff1681525050908060060160009054906101000a900473ffffffffffffffffffffffffffffffffffffffff16908060070154905087565b600760009054906101000a900473ffffffffffffffffffffffffffffffffffffffff1673ffffffffffffffffffffffffffffffffffffffff163373ffffffffffffffffffffffffffffffffffffffff1614610acd576040517f08c379a0000000000000000000000000000000000000000000000000000000008152600401610ac490613052565b60405180910390fd5b610ad8838383611bf3565b505050565b600560009054906101000a900473ffffffffffffffffffffffffffffffffffffffff1681565b610b0b611e08565b610b13611745565b73ffffffffffffffffffffffffffffffffffffffff166108fc479081150290604051600060405180830381858888f19350505050158015610b58573d6000803e3d6000fd5b50565b600460009054906101000a900473ffffffffffffffffffffffffffffffffffffffff1681565b60606000600a8381548110610b9957610b98612fd7565b5b90600052602060002090600802016001018054905067ffffffffffffffff811115610bc757610bc66126ce565b5b604051908082528060200260200182016040528015610bf55781602001602082028036833780820191505090505b50905060005b8151811015610c7857600a8481548110610c1857610c17612fd7565b5b90600052602060002090600802016001018181548110610c3b57610c3a612fd7565b5b9060005260206000200154828281518110610c5957610c58612fd7565b5b6020026020010181815250508080610c7090613072565b915050610bfb565b5080915050919050565b610c8a611e08565b85600160006101000a81548173ffffffffffffffffffffffffffffffffffffffff021916908373ffffffffffffffffffffffffffffffffffffffff16021790555084600260006101000a81548173ffffffffffffffffffffffffffffffffffffffff021916908373ffffffffffffffffffffffffffffffffffffffff16021790555083600360006101000a81548173ffffffffffffffffffffffffffffffffffffffff021916908373ffffffffffffffffffffffffffffffffffffffff16021790555082600460006101000a81548173ffffffffffffffffffffffffffffffffffffffff021916908373ffffffffffffffffffffffffffffffffffffffff16021790555081600560006101000a81548173ffffffffffffffffffffffffffffffffffffffff021916908373ffffffffffffffffffffffffffffffffffffffff16021790555080600760006101000a81548173ffffffffffffffffffffffffffffffffffffffff021916908373ffffffffffffffffffffffffffffffffffffffff160217905550505050505050565b600360009054906101000a900473ffffffffffffffffffffffffffffffffffffffff1681565b600760009054906101000a900473ffffffffffffffffffffffffffffffffffffffff1673ffffffffffffffffffffffffffffffffffffffff163373ffffffffffffffffffffffffffffffffffffffff1614610ece576040517f08c379a0000000000000000000000000000000000000000000000000000000008152600401610ec590613052565b60405180910390fd5b600060098281548110610ee457610ee3612fd7565b5b906000526020600020906008020190506000600a8481548110610f0a57610f09612fd7565b5b9060005260206000209060080201905081600401600281819054906101000a900460ff1680929190610f3b906130bb565b91906101000a81548160ff021916908360ff1602179055505060038260040160029054906101000a900460ff1660ff16101580610f8657508160070160019054906101000a900460ff165b1561111b578160070160019054906101000a900460ff16156110a65760008260070160016101000a81548160ff021916908315150217905550600260009054906101000a900473ffffffffffffffffffffffffffffffffffffffff1673ffffffffffffffffffffffffffffffffffffffff16636d6ba75683600201546040518263ffffffff1660e01b815260040161101e91906122b0565b600060405180830381600087803b15801561103857600080fd5b505af115801561104c573d6000803e3d6000fd5b505050506110a5816007015460086040518060400160405290816000820160009054906101000a900460ff1660ff1660ff1681526020016000820160019054906101000a900460ff1660ff1660ff168152505085611bf3565b5b60008260040160026101000a81548160ff021916908360ff160217905550600181600101805490506110d89190612fa3565b81600201541015611102578060020160008154809291906110f890613072565b919050555061111a565b61110f8160070154611e86565b600081600201819055505b5b50505050565b600560009054906101000a900473ffffffffffffffffffffffffffffffffffffffff1673ffffffffffffffffffffffffffffffffffffffff163373ffffffffffffffffffffffffffffffffffffffff16146111b1576040517f08c379a00000000000000000000000000000000000000000000000000000000081526004016111a890612f54565b60405180910390fd5b6000600a600181600181540180825580915050039060005260206000209060080201905060018160000160006101000a81548160ff0219169083151502179055506000816004018190555082816001019080519060200190611214929190612085565b508181600301819055506040518060800160405280600060ff168152602001600060ff168152602001600060ff168152602001600060ff168152508160050160008201518160000160006101000a81548160ff021916908360ff16021790555060208201518160000160016101000a81548160ff021916908360ff16021790555060408201518160000160026101000a81548160ff021916908360ff16021790555060608201518160000160036101000a81548160ff021916908360ff160217905550905050600460009054906101000a900473ffffffffffffffffffffffffffffffffffffffff168160060160006101000a81548173ffffffffffffffffffffffffffffffffffffffff021916908373ffffffffffffffffffffffffffffffffffffffff160217905550600460009054906101000a900473ffffffffffffffffffffffffffffffffffffffff1673ffffffffffffffffffffffffffffffffffffffff1663f01fc35a6040518163ffffffff1660e01b81526004016020604051808303816000875af11580156113ae573d6000803e3d6000fd5b505050506040513d601f19601f820116820180604052508101906113d291906130fa565b816007018190555060005b8281101561154f5761145a826007015460086040518060400160405290816000820160009054906101000a900460ff1660ff1660ff1681526020016000820160019054906101000a900460ff1660ff1660ff168152505084600101848154811061144a57611449612fd7565b5b9060005260206000200154611bf3565b6000600983600101838154811061147457611473612fd7565b5b9060005260206000200154815481106114905761148f612fd7565b5b906000526020600020906008020160000160009054906101000a900473ffffffffffffffffffffffffffffffffffffffff169050600b60008273ffffffffffffffffffffffffffffffffffffffff1673ffffffffffffffffffffffffffffffffffffffff1681526020019081526020016000206001600a805490506115159190612fa3565b908060018154018082558091505060019003906000526020600020016000909190919091505550808061154790613072565b9150506113dd565b50505050565b61155d6120d2565b600a828154811061157157611570612fd7565b5b9060005260206000209060080201604051806101000160405290816000820160009054906101000a900460ff16151515158152602001600182018054806020026020016040519081016040528092919081815260200182805480156115f557602002820191906000526020600020905b8154815260200190600101908083116115e1575b50505050508152602001600282015481526020016003820154815260200160048201548152602001600582016040518060800160405290816000820160009054906101000a900460ff1660ff1660ff1681526020016000820160019054906101000a900460ff1660ff1660ff1681526020016000820160029054906101000a900460ff1660ff1660ff1681526020016000820160039054906101000a900460ff1660ff1660ff168152505081526020016006820160009054906101000a900473ffffffffffffffffffffffffffffffffffffffff1673ffffffffffffffffffffffffffffffffffffffff1673ffffffffffffffffffffffffffffffffffffffff1681526020016007820154815250509050919050565b611713611e08565b61171d6000611f16565b565b600760009054906101000a900473ffffffffffffffffffffffffffffffffffffffff1681565b60008060009054906101000a900473ffffffffffffffffffffffffffffffffffffffff16905090565b600660009054906101000a900473ffffffffffffffffffffffffffffffffffffffff1681565b600b60205281600052604060002081815481106117b057600080fd5b90600052602060002001600091509150505481565b60606000600b60008473ffffffffffffffffffffffffffffffffffffffff1673ffffffffffffffffffffffffffffffffffffffff1681526020019081526020016000208054905067ffffffffffffffff811115611825576118246126ce565b5b6040519080825280602002602001820160405280156118535781602001602082028036833780820191505090505b50905060005b81518110156118f057600b60008573ffffffffffffffffffffffffffffffffffffffff1673ffffffffffffffffffffffffffffffffffffffff16815260200190815260200160002081815481106118b3576118b2612fd7565b5b90600052602060002001548282815181106118d1576118d0612fd7565b5b60200260200101818152505080806118e890613072565b915050611859565b5080915050919050565b600760009054906101000a900473ffffffffffffffffffffffffffffffffffffffff1673ffffffffffffffffffffffffffffffffffffffff163373ffffffffffffffffffffffffffffffffffffffff161461198a576040517f08c379a000000000000000000000000000000000000000000000000000000000815260040161198190613052565b60405180910390fd5b806009838154811061199f5761199e612fd7565b5b906000526020600020906008020160040160038282829054906101000a900460ff166119cb9190613127565b92506101000a81548160ff021916908360ff1602179055505050565b60088060000160009054906101000a900460ff16908060000160019054906101000a900460ff16905082565b611a1b611e08565b600073ffffffffffffffffffffffffffffffffffffffff168173ffffffffffffffffffffffffffffffffffffffff161415611a8b576040517f08c379a0000000000000000000000000000000000000000000000000000000008152600401611a82906131d0565b60405180910390fd5b611a9481611f16565b50565b600160009054906101000a900473ffffffffffffffffffffffffffffffffffffffff1681565b60098181548110611acd57600080fd5b90600052602060002090600802016000915090508060000160009054906101000a900473ffffffffffffffffffffffffffffffffffffffff16908060010160009054906101000a900473ffffffffffffffffffffffffffffffffffffffff1690806002015490806003016040518060400160405290816000820160009054906101000a900460ff1660ff1660ff1681526020016000820160019054906101000a900460ff1660ff1660ff1681525050908060040160009054906101000a900460ff16908060040160019054906101000a900460ff16908060040160029054906101000a900460ff16908060040160039054906101000a900460ff16908060070160009054906101000a900460ff16908060070160019054906101000a900460ff1690508a565b8160098281548110611c0857611c07612fd7565b5b906000526020600020906008020160030160008201518160000160006101000a81548160ff021916908360ff16021790555060208201518160000160016101000a81548160ff021916908360ff160217905550905050600060ff16600460009054906101000a900473ffffffffffffffffffffffffffffffffffffffff1673ffffffffffffffffffffffffffffffffffffffff1663f9dfbfcb85856000015186602001516040518463ffffffff1660e01b8152600401611cca93929190613221565b61012060405180830381865afa158015611ce8573d6000803e3d6000fd5b505050506040513d601f19601f82011682018060405250810190611d0c91906133ec565b6000015160ff161415611d5857600160098281548110611d2f57611d2e612fd7565b5b906000526020600020906008020160070160016101000a81548160ff0219169083151502179055505b600460009054906101000a900473ffffffffffffffffffffffffffffffffffffffff1673ffffffffffffffffffffffffffffffffffffffff1663471b675984846000015185602001516040518463ffffffff1660e01b8152600401611dbf93929190613221565b6020604051808303816000875af1158015611dde573d6000803e3d6000fd5b505050506040513d601f19601f82011682018060405250810190611e02919061341a565b50505050565b611e10611fda565b73ffffffffffffffffffffffffffffffffffffffff16611e2e611745565b73ffffffffffffffffffffffffffffffffffffffff1614611e84576040517f08c379a0000000000000000000000000000000000000000000000000000000008152600401611e7b90613493565b60405180910390fd5b565b600460009054906101000a900473ffffffffffffffffffffffffffffffffffffffff1673ffffffffffffffffffffffffffffffffffffffff166358308aa8826040518263ffffffff1660e01b8152600401611ee191906122b0565b600060405180830381600087803b158015611efb57600080fd5b505af1158015611f0f573d6000803e3d6000fd5b5050505050565b60008060009054906101000a900473ffffffffffffffffffffffffffffffffffffffff169050816000806101000a81548173ffffffffffffffffffffffffffffffffffffffff021916908373ffffffffffffffffffffffffffffffffffffffff1602179055508173ffffffffffffffffffffffffffffffffffffffff168173ffffffffffffffffffffffffffffffffffffffff167f8be0079c531659141344cd1fd0a4f28419497f9722a3daafe3b4186f6b6457e060405160405180910390a35050565b600033905090565b604051806101800160405280600073ffffffffffffffffffffffffffffffffffffffff168152602001600073ffffffffffffffffffffffffffffffffffffffff16815260200160008152602001612037612135565b8152602001600060ff168152602001600060ff168152602001600060ff168152602001600060ff16815260200160608152602001606081526020016000151581526020016000151581525090565b8280548282559060005260206000209081019282156120c1579160200282015b828111156120c05782518255916020019190600101906120a5565b5b5090506120ce9190612155565b5090565b6040518061010001604052806000151581526020016060815260200160008152602001600081526020016000815260200161210b612172565b8152602001600073ffffffffffffffffffffffffffffffffffffffff168152602001600081525090565b6040518060400160405280600060ff168152602001600060ff1681525090565b5b8082111561216e576000816000905550600101612156565b5090565b6040518060800160405280600060ff168152602001600060ff168152602001600060ff168152602001600060ff1681525090565b6000604051905090565b600080fd5b600080fd5b600073ffffffffffffffffffffffffffffffffffffffff82169050919050565b60006121e5826121ba565b9050919050565b6121f5816121da565b811461220057600080fd5b50565b600081359050612212816121ec565b92915050565b6000819050919050565b61222b81612218565b811461223657600080fd5b50565b60008135905061224881612222565b92915050565b600080600060608486031215612267576122666121b0565b5b600061227586828701612203565b935050602061228686828701612239565b925050604061229786828701612203565b9150509250925092565b6122aa81612218565b82525050565b60006020820190506122c560008301846122a1565b92915050565b6000819050919050565b60006122f06122eb6122e6846121ba565b6122cb565b6121ba565b9050919050565b6000612302826122d5565b9050919050565b6000612314826122f7565b9050919050565b61232481612309565b82525050565b600060208201905061233f600083018461231b565b92915050565b60006020828403121561235b5761235a6121b0565b5b600061236984828501612239565b91505092915050565b61237b816121da565b82525050565b61238a81612218565b82525050565b600060ff82169050919050565b6123a681612390565b82525050565b6040820160008201516123c2600085018261239d565b5060208201516123d5602085018261239d565b50505050565b600081519050919050565b600082825260208201905092915050565b6000819050602082019050919050565b6000612413838361239d565b60208301905092915050565b6000602082019050919050565b6000612437826123db565b61244181856123e6565b935061244c836123f7565b8060005b8381101561247d5781516124648882612407565b975061246f8361241f565b925050600181019050612450565b5085935050505092915050565b60008115159050919050565b61249f8161248a565b82525050565b60006101a0830160008301516124be6000860182612372565b5060208301516124d16020860182612372565b5060408301516124e46040860182612381565b5060608301516124f760608601826123ac565b50608083015161250a60a086018261239d565b5060a083015161251d60c086018261239d565b5060c083015161253060e086018261239d565b5060e083015161254461010086018261239d565b5061010083015184820361012086015261255e828261242c565b91505061012083015184820361014086015261257a828261242c565b915050610140830151612591610160860182612496565b506101608301516125a6610180860182612496565b508091505092915050565b600060208201905081810360008301526125cb81846124a5565b905092915050565b6125dc8161248a565b82525050565b6080820160008201516125f8600085018261239d565b50602082015161260b602085018261239d565b50604082015161261e604085018261239d565b506060820151612631606085018261239d565b50505050565b612640816121da565b82525050565b60006101408201905061265c600083018a6125d3565b61266960208301896122a1565b61267660408301886122a1565b61268360608301876122a1565b61269060808301866125e2565b61269e610100830185612637565b6126ac6101208301846122a1565b98975050505050505050565b600080fd5b6000601f19601f8301169050919050565b7f4e487b7100000000000000000000000000000000000000000000000000000000600052604160045260246000fd5b612706826126bd565b810181811067ffffffffffffffff82111715612725576127246126ce565b5b80604052505050565b60006127386121a6565b905061274482826126fd565b919050565b61275281612390565b811461275d57600080fd5b50565b60008135905061276f81612749565b92915050565b60006040828403121561278b5761278a6126b8565b5b612795604061272e565b905060006127a584828501612760565b60008301525060206127b984828501612760565b60208301525092915050565b6000806000608084860312156127de576127dd6121b0565b5b60006127ec86828701612239565b93505060206127fd86828701612775565b925050606061280e86828701612239565b9150509250925092565b600060208201905061282d6000830184612637565b92915050565b600061283e826122f7565b9050919050565b61284e81612833565b82525050565b60006020820190506128696000830184612845565b92915050565b600081519050919050565b600082825260208201905092915050565b6000819050602082019050919050565b60006128a78383612381565b60208301905092915050565b6000602082019050919050565b60006128cb8261286f565b6128d5818561287a565b93506128e08361288b565b8060005b838110156129115781516128f8888261289b565b9750612903836128b3565b9250506001810190506128e4565b5085935050505092915050565b6000602082019050818103600083015261293881846128c0565b905092915050565b60008060008060008060c0878903121561295d5761295c6121b0565b5b600061296b89828a01612203565b965050602061297c89828a01612203565b955050604061298d89828a01612203565b945050606061299e89828a01612203565b93505060806129af89828a01612203565b92505060a06129c089828a01612203565b9150509295509295509295565b60006129d8826122f7565b9050919050565b6129e8816129cd565b82525050565b6000602082019050612a0360008301846129df565b92915050565b60008060408385031215612a2057612a1f6121b0565b5b6000612a2e85828601612239565b9250506020612a3f85828601612239565b9150509250929050565b600080fd5b600067ffffffffffffffff821115612a6957612a686126ce565b5b602082029050602081019050919050565b600080fd5b6000612a92612a8d84612a4e565b61272e565b90508083825260208201905060208402830185811115612ab557612ab4612a7a565b5b835b81811015612ade5780612aca8882612239565b845260208401935050602081019050612ab7565b5050509392505050565b600082601f830112612afd57612afc612a49565b5b8135612b0d848260208601612a7f565b91505092915050565b60008060408385031215612b2d57612b2c6121b0565b5b600083013567ffffffffffffffff811115612b4b57612b4a6121b5565b5b612b5785828601612ae8565b9250506020612b6885828601612239565b9150509250929050565b600082825260208201905092915050565b6000612b8e8261286f565b612b988185612b72565b9350612ba38361288b565b8060005b83811015612bd4578151612bbb888261289b565b9750612bc6836128b3565b925050600181019050612ba7565b5085935050505092915050565b608082016000820151612bf7600085018261239d565b506020820151612c0a602085018261239d565b506040820151612c1d604085018261239d565b506060820151612c30606085018261239d565b50505050565b600061016083016000830151612c4f6000860182612496565b5060208301518482036020860152612c678282612b83565b9150506040830151612c7c6040860182612381565b506060830151612c8f6060860182612381565b506080830151612ca26080860182612381565b5060a0830151612cb560a0860182612be1565b5060c0830151612cc9610120860182612372565b5060e0830151612cdd610140860182612381565b508091505092915050565b60006020820190508181036000830152612d028184612c36565b905092915050565b60008060408385031215612d2157612d206121b0565b5b6000612d2f85828601612203565b9250506020612d4085828601612239565b9150509250929050565b600060208284031215612d6057612d5f6121b0565b5b6000612d6e84828501612203565b91505092915050565b60008060408385031215612d8e57612d8d6121b0565b5b6000612d9c85828601612239565b9250506020612dad85828601612760565b9150509250929050565b612dc081612390565b82525050565b6000604082019050612ddb6000830185612db7565b612de86020830184612db7565b9392505050565b6000612dfa826122f7565b9050919050565b612e0a81612def565b82525050565b6000602082019050612e256000830184612e01565b92915050565b604082016000820151612e41600085018261239d565b506020820151612e54602085018261239d565b50505050565b600061016082019050612e70600083018d612637565b612e7d602083018c612637565b612e8a604083018b6122a1565b612e97606083018a612e2b565b612ea460a0830189612db7565b612eb160c0830188612db7565b612ebe60e0830187612db7565b612ecc610100830186612db7565b612eda6101208301856125d3565b612ee86101408301846125d3565b9b9a5050505050505050505050565b600082825260208201905092915050565b7f4e6f74206c6f62627920636f6e74726163740000000000000000000000000000600082015250565b6000612f3e601283612ef7565b9150612f4982612f08565b602082019050919050565b60006020820190508181036000830152612f6d81612f31565b9050919050565b7f4e487b7100000000000000000000000000000000000000000000000000000000600052601160045260246000fd5b6000612fae82612218565b9150612fb983612218565b925082821015612fcc57612fcb612f74565b5b828203905092915050565b7f4e487b7100000000000000000000000000000000000000000000000000000000600052603260045260246000fd5b7f4e6f7420616374696f6e7320636f6e7472616374000000000000000000000000600082015250565b600061303c601483612ef7565b915061304782613006565b602082019050919050565b6000602082019050818103600083015261306b8161302f565b9050919050565b600061307d82612218565b91507fffffffffffffffffffffffffffffffffffffffffffffffffffffffffffffffff8214156130b0576130af612f74565b5b600182019050919050565b60006130c682612390565b915060ff8214156130da576130d9612f74565b5b600182019050919050565b6000815190506130f481612222565b92915050565b6000602082840312156131105761310f6121b0565b5b600061311e848285016130e5565b91505092915050565b600061313282612390565b915061313d83612390565b92508260ff0382111561315357613152612f74565b5b828201905092915050565b7f4f776e61626c653a206e6577206f776e657220697320746865207a65726f206160008201527f6464726573730000000000000000000000000000000000000000000000000000602082015250565b60006131ba602683612ef7565b91506131c58261315e565b604082019050919050565b600060208201905081810360008301526131e9816131ad565b9050919050565b600061320b61320661320184612390565b6122cb565b612218565b9050919050565b61321b816131f0565b82525050565b600060608201905061323660008301866122a1565b6132436020830185613212565b6132506040830184613212565b949350505050565b60008151905061326781612749565b92915050565b600067ffffffffffffffff821115613288576132876126ce565b5b602082029050919050565b60006132a66132a18461326d565b61272e565b905080602084028301858111156132c0576132bf612a7a565b5b835b818110156132e957806132d588826130e5565b8452602084019350506020810190506132c2565b5050509392505050565b600082601f83011261330857613307612a49565b5b6004613315848285613293565b91505092915050565b6133278161248a565b811461333257600080fd5b50565b6000815190506133448161331e565b92915050565b60006101208284031215613361576133606126b8565b5b61336b60c061272e565b9050600061337b84828501613258565b600083015250602061338f84828501613258565b60208301525060406133a3848285016132f3565b60408301525060c06133b784828501613335565b60608301525060e06133cb84828501613335565b6080830152506101006133e084828501613335565b60a08301525092915050565b60006101208284031215613403576134026121b0565b5b60006134118482850161334a565b91505092915050565b6000602082840312156134305761342f6121b0565b5b600061343e84828501613335565b91505092915050565b7f4f776e61626c653a2063616c6c6572206973206e6f7420746865206f776e6572600082015250565b600061347d602083612ef7565b915061348882613447565b602082019050919050565b600060208201905081810360008301526134ac81613470565b905091905056fea2646970667358221220974f545db8a6813ac56070cc6b1176d79d30472b13e3654b9c96e95f66c408c864736f6c634300080c0033",
  "devdoc": {
    "kind": "dev",
    "methods": {
      "owner()": {
        "details": "Returns the address of the current owner."
      },
      "renounceOwnership()": {
        "details": "Leaves the contract without owner. It will not be possible to call `onlyOwner` functions anymore. Can only be called by the current owner. NOTE: Renouncing ownership will leave the contract without an owner, thereby removing any functionality that is only available to the owner."
      },
      "transferOwnership(address)": {
        "details": "Transfers ownership of the contract to a new account (`newOwner`). Can only be called by the current owner."
      }
    },
    "version": 1
  },
  "userdoc": {
    "kind": "user",
    "methods": {},
    "version": 1
  },
  "storageLayout": {
    "storage": [
      {
        "astId": 7,
        "contract": "contracts/BCGames.sol:BCGames",
        "label": "_owner",
        "offset": 0,
        "slot": "0",
        "type": "t_address"
      },
      {
        "astId": 1364,
        "contract": "contracts/BCGames.sol:BCGames",
        "label": "roomTiles",
        "offset": 0,
        "slot": "1",
        "type": "t_contract(RoomTileInterface)1199"
      },
      {
        "astId": 1367,
        "contract": "contracts/BCGames.sol:BCGames",
        "label": "chars",
        "offset": 0,
        "slot": "2",
        "type": "t_contract(CharInterface)1213"
      },
      {
        "astId": 1370,
        "contract": "contracts/BCGames.sol:BCGames",
        "label": "utils",
        "offset": 0,
        "slot": "3",
        "type": "t_contract(UtilsInterface)1266"
      },
      {
        "astId": 1373,
        "contract": "contracts/BCGames.sol:BCGames",
        "label": "maps",
        "offset": 0,
        "slot": "4",
        "type": "t_contract(MapInterface)1359"
      },
      {
        "astId": 1375,
        "contract": "contracts/BCGames.sol:BCGames",
        "label": "lobbiesAddress",
        "offset": 0,
        "slot": "5",
        "type": "t_address"
      },
      {
        "astId": 1377,
        "contract": "contracts/BCGames.sol:BCGames",
        "label": "charsAddress",
        "offset": 0,
        "slot": "6",
        "type": "t_address"
      },
      {
        "astId": 1379,
        "contract": "contracts/BCGames.sol:BCGames",
        "label": "actionsAddress",
        "offset": 0,
        "slot": "7",
        "type": "t_address"
      },
      {
        "astId": 1443,
        "contract": "contracts/BCGames.sol:BCGames",
        "label": "StartLocation",
        "offset": 0,
        "slot": "8",
        "type": "t_struct(Position)2063_storage"
      },
      {
        "astId": 1447,
        "contract": "contracts/BCGames.sol:BCGames",
        "label": "players",
        "offset": 0,
        "slot": "9",
        "type": "t_array(t_struct(Player)2039_storage)dyn_storage"
      },
      {
        "astId": 1451,
        "contract": "contracts/BCGames.sol:BCGames",
        "label": "games",
        "offset": 0,
        "slot": "10",
        "type": "t_array(t_struct(Game)2134_storage)dyn_storage"
      },
      {
        "astId": 1456,
        "contract": "contracts/BCGames.sol:BCGames",
        "label": "addressToGame",
        "offset": 0,
        "slot": "11",
        "type": "t_mapping(t_address,t_array(t_uint256)dyn_storage)"
      }
    ],
    "types": {
      "t_address": {
        "encoding": "inplace",
        "label": "address",
        "numberOfBytes": "20"
      },
      "t_array(t_struct(Game)2134_storage)dyn_storage": {
        "base": "t_struct(Game)2134_storage",
        "encoding": "dynamic_array",
        "label": "struct BCTypes.Game[]",
        "numberOfBytes": "32"
      },
      "t_array(t_struct(Player)2039_storage)dyn_storage": {
        "base": "t_struct(Player)2039_storage",
        "encoding": "dynamic_array",
        "label": "struct BCTypes.Player[]",
        "numberOfBytes": "32"
      },
      "t_array(t_uint256)dyn_storage": {
        "base": "t_uint256",
        "encoding": "dynamic_array",
        "label": "uint256[]",
        "numberOfBytes": "32"
      },
      "t_array(t_uint8)dyn_storage": {
        "base": "t_uint8",
        "encoding": "dynamic_array",
        "label": "uint8[]",
        "numberOfBytes": "32"
      },
      "t_bool": {
        "encoding": "inplace",
        "label": "bool",
        "numberOfBytes": "1"
      },
      "t_contract(CharInterface)1213": {
        "encoding": "inplace",
        "label": "contract CharInterface",
        "numberOfBytes": "20"
      },
      "t_contract(MapInterface)1359": {
        "encoding": "inplace",
        "label": "contract MapInterface",
        "numberOfBytes": "20"
      },
      "t_contract(RoomTileInterface)1199": {
        "encoding": "inplace",
        "label": "contract RoomTileInterface",
        "numberOfBytes": "20"
      },
      "t_contract(UtilsInterface)1266": {
        "encoding": "inplace",
        "label": "contract UtilsInterface",
        "numberOfBytes": "20"
      },
      "t_mapping(t_address,t_array(t_uint256)dyn_storage)": {
        "encoding": "mapping",
        "key": "t_address",
        "label": "mapping(address => uint256[])",
        "numberOfBytes": "32",
        "value": "t_array(t_uint256)dyn_storage"
      },
      "t_struct(EventTracker)2058_storage": {
        "encoding": "inplace",
        "label": "struct BCTypes.EventTracker",
        "members": [
          {
            "astId": 2051,
            "contract": "contracts/BCGames.sol:BCGames",
            "label": "bugEvents",
            "offset": 0,
            "slot": "0",
            "type": "t_uint8"
          },
          {
            "astId": 2053,
            "contract": "contracts/BCGames.sol:BCGames",
            "label": "mysteryEvents",
            "offset": 1,
            "slot": "0",
            "type": "t_uint8"
          },
          {
            "astId": 2055,
            "contract": "contracts/BCGames.sol:BCGames",
            "label": "scavEvents",
            "offset": 2,
            "slot": "0",
            "type": "t_uint8"
          },
          {
            "astId": 2057,
            "contract": "contracts/BCGames.sol:BCGames",
            "label": "shipEvents",
            "offset": 3,
            "slot": "0",
            "type": "t_uint8"
          }
        ],
        "numberOfBytes": "32"
      },
      "t_struct(Game)2134_storage": {
        "encoding": "inplace",
        "label": "struct BCTypes.Game",
        "members": [
          {
            "astId": 2117,
            "contract": "contracts/BCGames.sol:BCGames",
            "label": "active",
            "offset": 0,
            "slot": "0",
            "type": "t_bool"
          },
          {
            "astId": 2120,
            "contract": "contracts/BCGames.sol:BCGames",
            "label": "playerIndexes",
            "offset": 0,
            "slot": "1",
            "type": "t_array(t_uint256)dyn_storage"
          },
          {
            "astId": 2122,
            "contract": "contracts/BCGames.sol:BCGames",
            "label": "currentPlayerTurnIndex",
            "offset": 0,
            "slot": "2",
            "type": "t_uint256"
          },
          {
            "astId": 2124,
            "contract": "contracts/BCGames.sol:BCGames",
            "label": "numPlayers",
            "offset": 0,
            "slot": "3",
            "type": "t_uint256"
          },
          {
            "astId": 2126,
            "contract": "contracts/BCGames.sol:BCGames",
            "label": "turnsTaken",
            "offset": 0,
            "slot": "4",
            "type": "t_uint256"
          },
          {
            "astId": 2129,
            "contract": "contracts/BCGames.sol:BCGames",
            "label": "eventTracker",
            "offset": 0,
            "slot": "5",
            "type": "t_struct(EventTracker)2058_storage"
          },
          {
            "astId": 2131,
            "contract": "contracts/BCGames.sol:BCGames",
            "label": "mapContract",
            "offset": 0,
            "slot": "6",
            "type": "t_address"
          },
          {
            "astId": 2133,
            "contract": "contracts/BCGames.sol:BCGames",
            "label": "mapId",
            "offset": 0,
            "slot": "7",
            "type": "t_uint256"
          }
        ],
        "numberOfBytes": "256"
      },
      "t_struct(Player)2039_storage": {
        "encoding": "inplace",
        "label": "struct BCTypes.Player",
        "members": [
          {
            "astId": 2013,
            "contract": "contracts/BCGames.sol:BCGames",
            "label": "owner",
            "offset": 0,
            "slot": "0",
            "type": "t_address"
          },
          {
            "astId": 2015,
            "contract": "contracts/BCGames.sol:BCGames",
            "label": "charContractAddress",
            "offset": 0,
            "slot": "1",
            "type": "t_address"
          },
          {
            "astId": 2017,
            "contract": "contracts/BCGames.sol:BCGames",
            "label": "characterId",
            "offset": 0,
            "slot": "2",
            "type": "t_uint256"
          },
          {
            "astId": 2020,
            "contract": "contracts/BCGames.sol:BCGames",
            "label": "position",
            "offset": 0,
            "slot": "3",
            "type": "t_struct(Position)2063_storage"
          },
          {
            "astId": 2022,
            "contract": "contracts/BCGames.sol:BCGames",
            "label": "healthDmgTaken",
            "offset": 0,
            "slot": "4",
            "type": "t_uint8"
          },
          {
            "astId": 2024,
            "contract": "contracts/BCGames.sol:BCGames",
            "label": "armorDmgTaken",
            "offset": 1,
            "slot": "4",
            "type": "t_uint8"
          },
          {
            "astId": 2026,
            "contract": "contracts/BCGames.sol:BCGames",
            "label": "actionsTaken",
            "offset": 2,
            "slot": "4",
            "type": "t_uint8"
          },
          {
            "astId": 2028,
            "contract": "contracts/BCGames.sol:BCGames",
            "label": "dataTokens",
            "offset": 3,
            "slot": "4",
            "type": "t_uint8"
          },
          {
            "astId": 2031,
            "contract": "contracts/BCGames.sol:BCGames",
            "label": "currentEffects",
            "offset": 0,
            "slot": "5",
            "type": "t_array(t_uint8)dyn_storage"
          },
          {
            "astId": 2034,
            "contract": "contracts/BCGames.sol:BCGames",
            "label": "inventoryIDs",
            "offset": 0,
            "slot": "6",
            "type": "t_array(t_uint8)dyn_storage"
          },
          {
            "astId": 2036,
            "contract": "contracts/BCGames.sol:BCGames",
            "label": "canHarmOthers",
            "offset": 0,
            "slot": "7",
            "type": "t_bool"
          },
          {
            "astId": 2038,
            "contract": "contracts/BCGames.sol:BCGames",
            "label": "dead",
            "offset": 1,
            "slot": "7",
            "type": "t_bool"
          }
        ],
        "numberOfBytes": "256"
      },
      "t_struct(Position)2063_storage": {
        "encoding": "inplace",
        "label": "struct BCTypes.Position",
        "members": [
          {
            "astId": 2060,
            "contract": "contracts/BCGames.sol:BCGames",
            "label": "row",
            "offset": 0,
            "slot": "0",
            "type": "t_uint8"
          },
          {
            "astId": 2062,
            "contract": "contracts/BCGames.sol:BCGames",
            "label": "col",
            "offset": 1,
            "slot": "0",
            "type": "t_uint8"
          }
        ],
        "numberOfBytes": "32"
      },
      "t_uint256": {
        "encoding": "inplace",
        "label": "uint256",
        "numberOfBytes": "32"
      },
      "t_uint8": {
        "encoding": "inplace",
        "label": "uint8",
        "numberOfBytes": "1"
      }
    }
  }
}