{
  "address": "0xe202742149F5e26190409132233acEDb42EEF4Cb",
  "abi": [
    {
      "inputs": [],
      "stateMutability": "nonpayable",
      "type": "constructor"
    },
    {
      "anonymous": false,
      "inputs": [
        {
          "indexed": true,
          "internalType": "address",
          "name": "previousOwner",
          "type": "address"
        },
        {
          "indexed": true,
          "internalType": "address",
          "name": "newOwner",
          "type": "address"
        }
      ],
      "name": "OwnershipTransferred",
      "type": "event"
    },
    {
      "inputs": [],
      "name": "StartLocation",
      "outputs": [
        {
          "internalType": "uint8",
          "name": "row",
          "type": "uint8"
        },
        {
          "internalType": "uint8",
          "name": "col",
          "type": "uint8"
        }
      ],
      "stateMutability": "view",
      "type": "function"
    },
    {
      "inputs": [],
      "name": "actionsAddress",
      "outputs": [
        {
          "internalType": "address",
          "name": "",
          "type": "address"
        }
      ],
      "stateMutability": "view",
      "type": "function"
    },
    {
      "inputs": [
        {
          "internalType": "address",
          "name": "",
          "type": "address"
        },
        {
          "internalType": "uint256",
          "name": "",
          "type": "uint256"
        }
      ],
      "name": "addressToGame",
      "outputs": [
        {
          "internalType": "uint256",
          "name": "",
          "type": "uint256"
        }
      ],
      "stateMutability": "view",
      "type": "function"
    },
    {
      "inputs": [],
      "name": "bcEvents",
      "outputs": [
        {
          "internalType": "contract EventsInterface",
          "name": "",
          "type": "address"
        }
      ],
      "stateMutability": "view",
      "type": "function"
    },
    {
      "inputs": [],
      "name": "chars",
      "outputs": [
        {
          "internalType": "contract CharInterface",
          "name": "",
          "type": "address"
        }
      ],
      "stateMutability": "view",
      "type": "function"
    },
    {
      "inputs": [],
      "name": "charsAddress",
      "outputs": [
        {
          "internalType": "address",
          "name": "",
          "type": "address"
        }
      ],
      "stateMutability": "view",
      "type": "function"
    },
    {
      "inputs": [
        {
          "internalType": "uint256",
          "name": "_gameId",
          "type": "uint256"
        },
        {
          "components": [
            {
              "internalType": "uint8",
              "name": "row",
              "type": "uint8"
            },
            {
              "internalType": "uint8",
              "name": "col",
              "type": "uint8"
            }
          ],
          "internalType": "struct BCTypes.Position",
          "name": "_position",
          "type": "tuple"
        },
        {
          "internalType": "uint256",
          "name": "_playerId",
          "type": "uint256"
        },
        {
          "internalType": "uint256",
          "name": "_debugRoomId",
          "type": "uint256"
        }
      ],
      "name": "debugMovePlayer",
      "outputs": [],
      "stateMutability": "nonpayable",
      "type": "function"
    },
    {
      "inputs": [
        {
          "internalType": "uint256[]",
          "name": "_worldItemIds",
          "type": "uint256[]"
        }
      ],
      "name": "deleteWorldItems",
      "outputs": [],
      "stateMutability": "nonpayable",
      "type": "function"
    },
    {
      "inputs": [
        {
          "internalType": "uint256",
          "name": "_gameId",
          "type": "uint256"
        },
        {
          "internalType": "uint256",
          "name": "_playerId",
          "type": "uint256"
        },
        {
          "internalType": "bool",
          "name": "_free",
          "type": "bool"
        }
      ],
      "name": "endPlayerAction",
      "outputs": [],
      "stateMutability": "nonpayable",
      "type": "function"
    },
    {
      "inputs": [
        {
          "internalType": "uint256",
          "name": "_id",
          "type": "uint256"
        }
      ],
      "name": "extGetGame",
      "outputs": [
        {
          "components": [
            {
              "internalType": "bool",
              "name": "active",
              "type": "bool"
            },
            {
              "internalType": "uint256[]",
              "name": "playerIndexes",
              "type": "uint256[]"
            },
            {
              "internalType": "uint256",
              "name": "currentPlayerTurnIndex",
              "type": "uint256"
            },
            {
              "internalType": "uint256",
              "name": "numPlayers",
              "type": "uint256"
            },
            {
              "internalType": "uint256",
              "name": "turnsTaken",
              "type": "uint256"
            },
            {
              "components": [
                {
                  "internalType": "uint8",
                  "name": "bugEvents",
                  "type": "uint8"
                },
                {
                  "internalType": "uint8",
                  "name": "mysteryEvents",
                  "type": "uint8"
                },
                {
                  "internalType": "uint8",
                  "name": "scavEvents",
                  "type": "uint8"
                },
                {
                  "internalType": "uint8",
                  "name": "shipEvents",
                  "type": "uint8"
                }
              ],
              "internalType": "struct BCTypes.EventTracker",
              "name": "eventTracker",
              "type": "tuple"
            },
            {
              "internalType": "address",
              "name": "mapContract",
              "type": "address"
            },
            {
              "internalType": "uint256",
              "name": "mapId",
              "type": "uint256"
            },
            {
              "internalType": "uint256",
              "name": "eventPlayerId",
              "type": "uint256"
            },
            {
              "internalType": "uint256",
              "name": "eventNumber",
              "type": "uint256"
            },
            {
              "internalType": "enum BCTypes.BCEventType",
              "name": "eventType",
              "type": "uint8"
            },
            {
              "components": [
                {
                  "internalType": "uint8",
                  "name": "row",
                  "type": "uint8"
                },
                {
                  "internalType": "uint8",
                  "name": "col",
                  "type": "uint8"
                }
              ],
              "internalType": "struct BCTypes.Position",
              "name": "eventPosition",
              "type": "tuple"
            },
            {
              "internalType": "uint256[]",
              "name": "unusedBugEvents",
              "type": "uint256[]"
            },
            {
              "internalType": "uint256[]",
              "name": "unusedMysteryEvents",
              "type": "uint256[]"
            },
            {
              "internalType": "uint256[]",
              "name": "unusedScavEvents",
              "type": "uint256[]"
            },
            {
              "internalType": "uint256[]",
              "name": "unusedShipEvents",
              "type": "uint256[]"
            }
          ],
          "internalType": "struct BCTypes.Game",
          "name": "",
          "type": "tuple"
        }
      ],
      "stateMutability": "view",
      "type": "function"
    },
    {
      "inputs": [
        {
          "internalType": "uint256",
          "name": "_gameId",
          "type": "uint256"
        }
      ],
      "name": "extGetGamePlayerIndexes",
      "outputs": [
        {
          "internalType": "uint256[]",
          "name": "",
          "type": "uint256[]"
        }
      ],
      "stateMutability": "view",
      "type": "function"
    },
    {
      "inputs": [
        {
          "internalType": "address",
          "name": "_playerAddress",
          "type": "address"
        }
      ],
      "name": "extGetGamesOfPlayer",
      "outputs": [
        {
          "internalType": "uint256[]",
          "name": "",
          "type": "uint256[]"
        }
      ],
      "stateMutability": "view",
      "type": "function"
    },
    {
      "inputs": [],
      "name": "extGetNumGames",
      "outputs": [
        {
          "internalType": "uint256",
          "name": "",
          "type": "uint256"
        }
      ],
      "stateMutability": "view",
      "type": "function"
    },
    {
      "inputs": [
        {
          "internalType": "uint256[]",
          "name": "_ids",
          "type": "uint256[]"
        }
      ],
      "name": "extGetWorldItems",
      "outputs": [
        {
          "components": [
            {
              "internalType": "uint256",
              "name": "gameId",
              "type": "uint256"
            },
            {
              "internalType": "uint256",
              "name": "bcItemId",
              "type": "uint256"
            },
            {
              "internalType": "enum BCTypes.WorldItemStatus",
              "name": "status",
              "type": "uint8"
            },
            {
              "components": [
                {
                  "internalType": "uint8",
                  "name": "row",
                  "type": "uint8"
                },
                {
                  "internalType": "uint8",
                  "name": "col",
                  "type": "uint8"
                }
              ],
              "internalType": "struct BCTypes.Position",
              "name": "position",
              "type": "tuple"
            }
          ],
          "internalType": "struct BCTypes.WorldItem[]",
          "name": "",
          "type": "tuple[]"
        }
      ],
      "stateMutability": "view",
      "type": "function"
    },
    {
      "inputs": [
        {
          "internalType": "uint256",
          "name": "_gameId",
          "type": "uint256"
        },
        {
          "components": [
            {
              "internalType": "uint8",
              "name": "row",
              "type": "uint8"
            },
            {
              "internalType": "uint8",
              "name": "col",
              "type": "uint8"
            }
          ],
          "internalType": "struct BCTypes.Position",
          "name": "_position",
          "type": "tuple"
        },
        {
          "internalType": "uint256",
          "name": "_playerId",
          "type": "uint256"
        }
      ],
      "name": "extMovePlayer",
      "outputs": [],
      "stateMutability": "nonpayable",
      "type": "function"
    },
    {
      "inputs": [
        {
          "internalType": "uint256",
          "name": "",
          "type": "uint256"
        },
        {
          "internalType": "uint256",
          "name": "",
          "type": "uint256"
        }
      ],
      "name": "gameIdToWorldItems",
      "outputs": [
        {
          "internalType": "uint256",
          "name": "",
          "type": "uint256"
        }
      ],
      "stateMutability": "view",
      "type": "function"
    },
    {
      "inputs": [
        {
          "internalType": "uint256",
          "name": "",
          "type": "uint256"
        }
      ],
      "name": "games",
      "outputs": [
        {
          "internalType": "bool",
          "name": "active",
          "type": "bool"
        },
        {
          "internalType": "uint256",
          "name": "currentPlayerTurnIndex",
          "type": "uint256"
        },
        {
          "internalType": "uint256",
          "name": "numPlayers",
          "type": "uint256"
        },
        {
          "internalType": "uint256",
          "name": "turnsTaken",
          "type": "uint256"
        },
        {
          "components": [
            {
              "internalType": "uint8",
              "name": "bugEvents",
              "type": "uint8"
            },
            {
              "internalType": "uint8",
              "name": "mysteryEvents",
              "type": "uint8"
            },
            {
              "internalType": "uint8",
              "name": "scavEvents",
              "type": "uint8"
            },
            {
              "internalType": "uint8",
              "name": "shipEvents",
              "type": "uint8"
            }
          ],
          "internalType": "struct BCTypes.EventTracker",
          "name": "eventTracker",
          "type": "tuple"
        },
        {
          "internalType": "address",
          "name": "mapContract",
          "type": "address"
        },
        {
          "internalType": "uint256",
          "name": "mapId",
          "type": "uint256"
        },
        {
          "internalType": "uint256",
          "name": "eventPlayerId",
          "type": "uint256"
        },
        {
          "internalType": "uint256",
          "name": "eventNumber",
          "type": "uint256"
        },
        {
          "internalType": "enum BCTypes.BCEventType",
          "name": "eventType",
          "type": "uint8"
        },
        {
          "components": [
            {
              "internalType": "uint8",
              "name": "row",
              "type": "uint8"
            },
            {
              "internalType": "uint8",
              "name": "col",
              "type": "uint8"
            }
          ],
          "internalType": "struct BCTypes.Position",
          "name": "eventPosition",
          "type": "tuple"
        }
      ],
      "stateMutability": "view",
      "type": "function"
    },
    {
      "inputs": [
        {
          "internalType": "uint256",
          "name": "_gameId",
          "type": "uint256"
        }
      ],
      "name": "getGameWorldItems",
      "outputs": [
        {
          "components": [
            {
              "internalType": "uint256",
              "name": "gameId",
              "type": "uint256"
            },
            {
              "internalType": "uint256",
              "name": "bcItemId",
              "type": "uint256"
            },
            {
              "internalType": "enum BCTypes.WorldItemStatus",
              "name": "status",
              "type": "uint8"
            },
            {
              "components": [
                {
                  "internalType": "uint8",
                  "name": "row",
                  "type": "uint8"
                },
                {
                  "internalType": "uint8",
                  "name": "col",
                  "type": "uint8"
                }
              ],
              "internalType": "struct BCTypes.Position",
              "name": "position",
              "type": "tuple"
            }
          ],
          "internalType": "struct BCTypes.WorldItem[]",
          "name": "",
          "type": "tuple[]"
        }
      ],
      "stateMutability": "view",
      "type": "function"
    },
    {
      "inputs": [],
      "name": "items",
      "outputs": [
        {
          "internalType": "contract ItemsInterface",
          "name": "",
          "type": "address"
        }
      ],
      "stateMutability": "view",
      "type": "function"
    },
    {
      "inputs": [],
      "name": "lobbiesAddress",
      "outputs": [
        {
          "internalType": "address",
          "name": "",
          "type": "address"
        }
      ],
      "stateMutability": "view",
      "type": "function"
    },
    {
      "inputs": [],
      "name": "maps",
      "outputs": [
        {
          "internalType": "contract MapInterface",
          "name": "",
          "type": "address"
        }
      ],
      "stateMutability": "view",
      "type": "function"
    },
    {
      "inputs": [],
      "name": "owner",
      "outputs": [
        {
          "internalType": "address",
          "name": "",
          "type": "address"
        }
      ],
      "stateMutability": "view",
      "type": "function"
    },
    {
      "inputs": [
        {
          "internalType": "uint256",
          "name": "_gameId",
          "type": "uint256"
        },
        {
          "internalType": "uint256[]",
          "name": "_itemIds",
          "type": "uint256[]"
        },
        {
          "internalType": "uint256",
          "name": "_row",
          "type": "uint256"
        },
        {
          "internalType": "uint256",
          "name": "_col",
          "type": "uint256"
        }
      ],
      "name": "placeWorldItems",
      "outputs": [],
      "stateMutability": "nonpayable",
      "type": "function"
    },
    {
      "inputs": [],
      "name": "players",
      "outputs": [
        {
          "internalType": "contract PlayersInterface",
          "name": "",
          "type": "address"
        }
      ],
      "stateMutability": "view",
      "type": "function"
    },
    {
      "inputs": [],
      "name": "renounceOwnership",
      "outputs": [],
      "stateMutability": "nonpayable",
      "type": "function"
    },
    {
      "inputs": [
        {
          "internalType": "uint256",
          "name": "_gameId",
          "type": "uint256"
        },
        {
          "internalType": "uint256",
          "name": "_choice",
          "type": "uint256"
        }
      ],
      "name": "resolveEvent",
      "outputs": [],
      "stateMutability": "nonpayable",
      "type": "function"
    },
    {
      "inputs": [
        {
          "internalType": "address",
          "name": "_charAddress",
          "type": "address"
        },
        {
          "internalType": "address",
          "name": "_utilsAddress",
          "type": "address"
        },
        {
          "internalType": "address",
          "name": "_mapsAddress",
          "type": "address"
        },
        {
          "internalType": "address",
          "name": "_lobbiesAddress",
          "type": "address"
        },
        {
          "internalType": "address",
          "name": "_actionsAddress",
          "type": "address"
        },
        {
          "internalType": "address",
          "name": "_eventsAddress",
          "type": "address"
        },
        {
          "internalType": "address",
          "name": "_itemsAddress",
          "type": "address"
        },
        {
          "internalType": "address",
          "name": "_playersAddress",
          "type": "address"
        }
      ],
      "name": "setContractAddresses",
      "outputs": [],
      "stateMutability": "nonpayable",
      "type": "function"
    },
    {
      "inputs": [
        {
          "internalType": "uint256[]",
          "name": "_playerIndexes",
          "type": "uint256[]"
        },
        {
          "internalType": "uint256",
          "name": "_numPlayers",
          "type": "uint256"
        },
        {
          "internalType": "uint256",
          "name": "_debugRoomId",
          "type": "uint256"
        }
      ],
      "name": "startGame",
      "outputs": [
        {
          "internalType": "uint256",
          "name": "",
          "type": "uint256"
        }
      ],
      "stateMutability": "nonpayable",
      "type": "function"
    },
    {
      "inputs": [
        {
          "internalType": "address",
          "name": "newOwner",
          "type": "address"
        }
      ],
      "name": "transferOwnership",
      "outputs": [],
      "stateMutability": "nonpayable",
      "type": "function"
    },
    {
      "inputs": [],
      "name": "utils",
      "outputs": [
        {
          "internalType": "contract UtilsInterface",
          "name": "",
          "type": "address"
        }
      ],
      "stateMutability": "view",
      "type": "function"
    },
    {
      "inputs": [
        {
          "internalType": "uint256",
          "name": "",
          "type": "uint256"
        }
      ],
      "name": "worldItems",
      "outputs": [
        {
          "internalType": "uint256",
          "name": "gameId",
          "type": "uint256"
        },
        {
          "internalType": "uint256",
          "name": "bcItemId",
          "type": "uint256"
        },
        {
          "internalType": "enum BCTypes.WorldItemStatus",
          "name": "status",
          "type": "uint8"
        },
        {
          "components": [
            {
              "internalType": "uint8",
              "name": "row",
              "type": "uint8"
            },
            {
              "internalType": "uint8",
              "name": "col",
              "type": "uint8"
            }
          ],
          "internalType": "struct BCTypes.Position",
          "name": "position",
          "type": "tuple"
        }
      ],
      "stateMutability": "view",
      "type": "function"
    }
  ],
  "transactionHash": "0x220064d7cef8f10b81ba2f0793e55d5cf9e259cf31b891c174cabe011e892098",
  "args": [],
  "numDeployments": 2,
  "solcInputHash": "895840053806451452d736bcab292ed4",
  "bytecode": "0x60c0604052600a6080819052600660a052805461ffff191661060a1790553480156200002a57600080fd5b5062000036336200003c565b6200008c565b600080546001600160a01b038381166001600160a01b0319831681178455604051919092169283917f8be0079c531659141344cd1fd0a4f28419497f9722a3daafe3b4186f6b6457e09190a35050565b61354c806200009c6000396000f3fe608060405234801561001057600080fd5b50600436106101e55760003560e01c80638bf52bc31161010f578063aa6e8030116100a2578063dc0b356411610071578063dc0b35641461044e578063dc769ee814610461578063f101de9a14610491578063f2fde38b146104a457600080fd5b8063aa6e803014610402578063afd62bb214610415578063c06fad0614610428578063cdc962d51461043b57600080fd5b8063921d2799116100de578063921d2799146103b65780639bda278a146103c95780639fca1ee1146103dc578063a99d2a8b146103ef57600080fd5b80638bf52bc31461035c5780638ccaedfb1461036f5780638d4723ee146103825780638da5cb5b146103a557600080fd5b806340d4fd78116101875780636fe99c18116101565780636fe99c181461030e578063715018a61461032e5780637b45c0d4146103365780637ddae1031461034957600080fd5b806340d4fd78146102b657806346f2434b146102d65780635a29638d146102e857806364f66467146102fb57600080fd5b8063117a5b90116101c3578063117a5b9014610253578063175142251461027d578063336d7d7b146102905780633deaec2b146102a357600080fd5b806305892ff6146101ea5780630d8354681461021357806310a2cd0d14610228575b600080fd5b6101fd6101f83660046126d0565b6104b7565b60405161020a919061276e565b60405180910390f35b610226610221366004612930565b61060f565b005b60015461023b906001600160a01b031681565b6040516001600160a01b03909116815260200161020a565b610266610261366004612986565b610717565b60405161020a9b9a999897969594939291906129af565b61022661028b366004612aac565b6107e1565b60075461023b906001600160a01b031681565b60035461023b906001600160a01b031681565b6102c96102c4366004612986565b610867565b60405161020a9190612b1d565b600b545b60405190815260200161020a565b60025461023b906001600160a01b031681565b610226610309366004612b37565b610958565b61032161031c366004612986565b610a22565b60405161020a9190612b59565b610226610d1b565b60095461023b906001600160a01b031681565b60045461023b906001600160a01b031681565b61022661036a366004612cea565b610d2f565b6101fd61037d366004612986565b610d87565b610395610390366004612986565b610ef8565b60405161020a9493929190612d26565b6000546001600160a01b031661023b565b6102266103c4366004612d76565b610f54565b6102266103d73660046126d0565b610fea565b60085461023b906001600160a01b031681565b6102da6103fd366004612e1f565b6110b3565b610226610410366004612e59565b6110e4565b6102c9610423366004612e92565b6112f2565b60055461023b906001600160a01b031681565b6102da610449366004612b37565b6113c2565b60065461023b906001600160a01b031681565b600a546104779060ff8082169161010090041682565b6040805160ff93841681529290911660208301520161020a565b6102da61049f366004612eaf565b6113de565b6102266104b2366004612e92565b61184d565b60606000826001600160401b038111156104d3576104d36127ef565b60405190808252806020026020018201604052801561050c57816020015b6104f9612543565b8152602001906001900390816104f15790505b50905060005b8381101561060557600c85858381811061052e5761052e612efc565b905060200201358154811061054557610545612efc565b906000526020600020906004020160405180608001604052908160008201548152602001600182015481526020016002820160009054906101000a900460ff16600381111561059657610596612744565b60038111156105a7576105a7612744565b8152604080518082019091526003929092015460ff808216845261010090910416602083810191909152015282518390839081106105e7576105e7612efc565b602002602001018190525080806105fd90612f28565b915050610512565b5090505b92915050565b60005b835181101561071057600c80546001810182556000919091526004027fdf6966c971051c3d54ec59162606531493a51404a002842f56009d7e5cf4a8c701858155845185908390811061066757610667612efc565b602090810291909101015160018083019190915560028201805460ff19168280021790555060408051808201825260ff868116808352908616602092830181905260038501805461ffff19169092176101009091021790556000888152600d9091522085518690849081106106de576106de612efc565b60209081029190910181015182546001810184556000938452919092200155508061070881612f28565b915050610612565b5050505050565b600b818154811061072757600080fd5b6000918252602091829020601090910201805460028201546003830154600484015460408051608081018252600587015460ff81811683526101008083048216848c0152620100008304821684860152630100000090920481166060840152600689015460078a015460088b015460098c0154600a8d01548851808a01909952600b909d015480861689529590950484169c87019c909c529882169b5096999598949792966001600160a01b03169592949293919216908b565b6009546001600160a01b031633148061080457506006546001600160a01b031633145b6108555760405162461bcd60e51b815260206004820152601c60248201527f4e6f7420616374696f6e732f706c617965727320636f6e74726163740000000060448201526064015b60405180910390fd5b61086283838360006118c6565b505050565b60606000600b838154811061087e5761087e612efc565b9060005260206000209060100201600101805490506001600160401b038111156108aa576108aa6127ef565b6040519080825280602002602001820160405280156108d3578160200160208202803683370190505b50905060005b815181101561095157600b84815481106108f5576108f5612efc565b9060005260206000209060100201600101818154811061091757610917612efc565b906000526020600020015482828151811061093457610934612efc565b60209081029190910101528061094981612f28565b9150506108d9565b5092915050565b6000600b838154811061096d5761096d612efc565b60009182526020909120600654601090920201600881015460078201546009830154600a840154604051636d291bbb60e01b81529496506001600160a01b0390951694636d291bbb946109d394899490938b939192600b8b019260ff1690600401612f41565b600060405180830381600087803b1580156109ed57600080fd5b505af1158015610a01573d6000803e3d6000fd5b505060006008840181905560098401555050600a01805460ff191690555050565b610a2a61259c565b600b8281548110610a3d57610a3d612efc565b600091825260209182902060408051610200810182526010909302909101805460ff1615158352600181018054835181870281018701909452808452939491938583019392830182828015610ab157602002820191906000526020600020905b815481526020019060010190808311610a9d575b505050918352505060028201546020808301919091526003830154604080840191909152600484015460608085019190915281516080818101845260058088015460ff80821685526101008083048216988601989098526201000082048116968501969096526301000000900485169383019390935285015260068501546001600160a01b031660a0850152600785015460c0850152600885015460e0850152600985015492840192909252600a840154610120909301921690811115610b7a57610b7a612744565b6005811115610b8b57610b8b612744565b8152604080518082018252600b84015460ff80821683526101009091041660208281019190915280840191909152600c84018054835181840281018401855281815293909401939091830182828015610c0357602002820191906000526020600020905b815481526020019060010190808311610bef575b50505050508152602001600d8201805480602002602001604051908101604052809291908181526020018280548015610c5b57602002820191906000526020600020905b815481526020019060010190808311610c47575b50505050508152602001600e8201805480602002602001604051908101604052809291908181526020018280548015610cb357602002820191906000526020600020905b815481526020019060010190808311610c9f575b50505050508152602001600f8201805480602002602001604051908101604052809291908181526020018280548015610d0b57602002820191906000526020600020905b815481526020019060010190808311610cf7575b5050505050815250509050919050565b610d236121ae565b610d2d6000612208565b565b6000546001600160a01b03163314610d755760405162461bcd60e51b81526020600482015260096024820152682737ba1037bbb732b960b91b604482015260640161084c565b610d81848484846118c6565b50505050565b6000818152600d6020526040812054606091906001600160401b03811115610db157610db16127ef565b604051908082528060200260200182016040528015610dea57816020015b610dd7612543565b815260200190600190039081610dcf5790505b50905060005b8151811015610951576000848152600d602052604090208054600c919083908110610e1d57610e1d612efc565b906000526020600020015481548110610e3857610e38612efc565b906000526020600020906004020160405180608001604052908160008201548152602001600182015481526020016002820160009054906101000a900460ff166003811115610e8957610e89612744565b6003811115610e9a57610e9a612744565b8152604080518082019091526003929092015460ff80821684526101009091041660208381019190915201528251839083908110610eda57610eda612efc565b60200260200101819052508080610ef090612f28565b915050610df0565b600c8181548110610f0857600080fd5b60009182526020918290206004909102018054600182015460028301546040805180820190915260039094015460ff818116865261010090910481169585019590955291945092169084565b610f5c6121ae565b600180546001600160a01b03199081166001600160a01b039a8b1617909155600280548216988a1698909817909755600380548816968916969096179095556007805487169488169490941790935560098054861692871692909217909155600480548516918616919091179055600580548416918516919091179055600680549092169216919091179055565b6005546001600160a01b031633146110395760405162461bcd60e51b8152602060048201526012602482015271139bdd081a5d195b5cc818dbdb9d1c9858dd60721b604482015260640161084c565b60005b8181101561086257600c83838381811061105857611058612efc565b905060200201358154811061106f5761106f612efc565b600091825260208220600490910201818155600181019190915560028101805460ff19169055600301805461ffff19169055806110ab81612f28565b91505061103c565b600e60205281600052604060002081815481106110cf57600080fd5b90600052602060002001600091509150505481565b6009546001600160a01b031633146111355760405162461bcd60e51b8152602060048201526014602482015273139bdd081858dd1a5bdb9cc818dbdb9d1c9858dd60621b604482015260640161084c565b806111995760065460405163ce93229760e01b8152600481018490526001600160a01b039091169063ce93229790602401600060405180830381600087803b15801561118057600080fd5b505af1158015611194573d6000803e3d6000fd5b505050505b6006546040516310f67fb360e01b8152600481018490526000916001600160a01b0316906310f67fb390602401600060405180830381865afa1580156111e3573d6000803e3d6000fd5b505050506040513d6000823e601f3d908101601f1916820160405261120b9190810190613069565b90506000600b858154811061122257611222612efc565b9060005260206000209060100201905060038260c0015160ff16106107105760065460405163065c363f60e41b8152600481018690526001600160a01b03909116906365c363f090602401600060405180830381600087803b15801561128757600080fd5b505af115801561129b573d6000803e3d6000fd5b505050506001818101546112af91906131b5565b816002015410156112d6576002810180549060006112cc83612f28565b9190505550610710565b6112e4858260070154612258565b600060028201555050505050565b6001600160a01b0381166000908152600e6020526040812054606091906001600160401b03811115611326576113266127ef565b60405190808252806020026020018201604052801561134f578160200160208202803683370190505b50905060005b8151811015610951576001600160a01b0384166000908152600e6020526040902080548290811061138857611388612efc565b90600052602060002001548282815181106113a5576113a5612efc565b6020908102919091010152806113ba81612f28565b915050611355565b600d60205281600052604060002081815481106110cf57600080fd5b6007546000906001600160a01b031633146114305760405162461bcd60e51b8152602060048201526012602482015271139bdd081b1bd8989e4818dbdb9d1c9858dd60721b604482015260640161084c565b600b80546001808201835560009283527f0175b7a638427703f0dbe7bb9bbf987a2551717b34e79f33b5b1008d1fa01db96010909202918201805460ff191690911781557f0175b7a638427703f0dbe7bb9bbf987a2551717b34e79f33b5b1008d1fa01dbd82019290925585516114ce917f0175b7a638427703f0dbe7bb9bbf987a2551717b34e79f33b5b1008d1fa01dba01906020880190612670565b5060038082018590556040805160808101825260008082526020820181905291810182905260600181905260058301805463ffffffff1916905590546006830180546001600160a01b0319166001600160a01b039092169190911790558390036115b557600360009054906101000a90046001600160a01b03166001600160a01b031663f01fc35a6040518163ffffffff1660e01b81526004016020604051808303816000875af1158015611587573d6000803e3d6000fd5b505050506040513d601f19601f820116820180604052508101906115ab91906131c8565b600782015561162a565b60035460405163148e052f60e21b8152600481018590526001600160a01b039091169063523814bc906024016020604051808303816000875af1158015611600573d6000803e3d6000fd5b505050506040513d601f19601f8201168201806040525081019061162491906131c8565b60078201555b60005b6116386001866131b5565b811161177757600782015460408051808201909152600a5460ff8082168352610100909104166020820152600184018054611692939291908590811061168057611680612efc565b906000526020600020015460006118c6565b60065486516000916001600160a01b031690636621a421908990859081106116bc576116bc612efc565b60200260200101516040518263ffffffff1660e01b81526004016116e291815260200190565b602060405180830381865afa1580156116ff573d6000803e3d6000fd5b505050506040513d601f19601f8201168201806040525081019061172391906131e1565b6001600160a01b0381166000908152600e60205260409020600b549192509061174e906001906131b5565b81546001810183556000928352602090922090910155508061176f81612f28565b91505061162d565b506000604051806101e00160405280600181526020016002815260200160038152602001600481526020016005815260200160068152602001600781526020016008815260200160098152602001600a8152602001600b8152602001600c8152602001600d8152602001600e8152602001600f81525090508082600c0190600f611802929190612670565b50611812600d830182600f612670565b50611822600e830182600f612670565b50611833600f808401908390612670565b50600b54611843906001906131b5565b9695505050505050565b6118556121ae565b6001600160a01b0381166118ba5760405162461bcd60e51b815260206004820152602660248201527f4f776e61626c653a206e6577206f776e657220697320746865207a65726f206160448201526564647265737360d01b606482015260840161084c565b6118c381612208565b50565b600654600b80546001600160a01b0390921691638d491b3e918691869190899081106118f4576118f4612efc565b9060005260206000209060100201600701546040518463ffffffff1660e01b8152600401611924939291906131fe565b6020604051808303816000875af1158015611943573d6000803e3d6000fd5b505050506040513d601f19601f82011682018060405250810190611967919061322d565b610d8157600354600b80546000926001600160a01b0316916381bad36d918890811061199557611995612efc565b90600052602060002090601002016007015486600001518760200151866040518563ffffffff1660e01b81526004016119eb949392919093845260ff928316602085015291166040830152606082015260800190565b6020604051808303816000875af1158015611a0a573d6000803e3d6000fd5b505050506040513d601f19601f82011682018060405250810190611a2e91906131c8565b600354600b80549293506000926001600160a01b03909216916358058283919089908110611a5e57611a5e612efc565b906000526020600020906010020160070154846040518363ffffffff1660e01b8152600401611a97929190918252602082015260400190565b60a060405180830381865afa158015611ab4573d6000803e3d6000fd5b505050506040513d601f19601f82011682018060405250810190611ad8919061324a565b9050600282118015611afd5750600081516005811115611afa57611afa612744565b14155b156121a657600181516005811115611b1757611b17612744565b03611b6a57600b8681548110611b2f57611b2f612efc565b600091825260208220600560109092020101805460ff1691611b50836132dc565b91906101000a81548160ff021916908360ff160217905550505b600281516005811115611b7f57611b7f612744565b03611bda57600b8681548110611b9757611b97612efc565b600091825260209091206010909102016005018054610100900460ff16906001611bc0836132dc565b91906101000a81548160ff021916908360ff160217905550505b600381516005811115611bef57611bef612744565b03611c4b57600b8681548110611c0757611c07612efc565b60009182526020909120601090910201600501805462010000900460ff16906002611c31836132dc565b91906101000a81548160ff021916908360ff160217905550505b600481516005811115611c6057611c60612744565b03611cbd57600b8681548110611c7857611c78612efc565b6000918252602090912060109091020160050180546301000000900460ff16906003611ca3836132dc565b91906101000a81548160ff021916908360ff160217905550505b602081015115611e3c5760048054602083015160405163c82c37b960e01b8152928301526000916001600160a01b039091169063c82c37b990602401600060405180830381865afa158015611d16573d6000803e3d6000fd5b505050506040513d6000823e601f3d908101601f19168201604052611d3e9190810190613388565b90508060200151611e365784600b8881548110611d5d57611d5d612efc565b9060005260206000209060100201600801819055508160200151600b8881548110611d8a57611d8a612efc565b9060005260206000209060100201600901819055506005600b8881548110611db457611db4612efc565b60009182526020909120600a60109092020101805460ff19166001836005811115611de157611de1612744565b021790555085600b8881548110611dfa57611dfa612efc565b60009182526020918290208351600b6010909302909101919091018054939092015160ff9081166101000261ffff199094169116179190911790555b506121a6565b600081516005811115611e5157611e51612744565b146121a65783600b8781548110611e6a57611e6a612efc565b90600052602060002090601002016008018190555084600b8781548110611e9357611e93612efc565b60009182526020918290208351600b6010909302909101919091018054939092015160ff9081166101000261ffff19909416911617919091179055600181516005811115611ee357611ee3612744565b03611f8457611f14600b8781548110611efe57611efe612efc565b9060005260206000209060100201600c016123b1565b600b8781548110611f2757611f27612efc565b9060005260206000209060100201600901819055506001600b8781548110611f5157611f51612efc565b60009182526020909120600a60109092020101805460ff19166001836005811115611f7e57611f7e612744565b02179055505b600281516005811115611f9957611f99612744565b0361203a57611fca600b8781548110611fb457611fb4612efc565b9060005260206000209060100201600d016123b1565b600b8781548110611fdd57611fdd612efc565b9060005260206000209060100201600901819055506002600b878154811061200757612007612efc565b60009182526020909120600a60109092020101805460ff1916600183600581111561203457612034612744565b02179055505b60038151600581111561204f5761204f612744565b036120f057612080600b878154811061206a5761206a612efc565b9060005260206000209060100201600e016123b1565b600b878154811061209357612093612efc565b9060005260206000209060100201600901819055506003600b87815481106120bd576120bd612efc565b60009182526020909120600a60109092020101805460ff191660018360058111156120ea576120ea612744565b02179055505b60048151600581111561210557612105612744565b036121a657612136600b878154811061212057612120612efc565b9060005260206000209060100201600f016123b1565b600b878154811061214957612149612efc565b9060005260206000209060100201600901819055506004600b878154811061217357612173612efc565b60009182526020909120600a60109092020101805460ff191660018360058111156121a0576121a0612744565b02179055505b505050505050565b6000546001600160a01b03163314610d2d5760405162461bcd60e51b815260206004820181905260248201527f4f776e61626c653a2063616c6c6572206973206e6f7420746865206f776e6572604482015260640161084c565b600080546001600160a01b038381166001600160a01b0319831681178455604051919092169283917f8be0079c531659141344cd1fd0a4f28419497f9722a3daafe3b4186f6b6457e09190a35050565b6000600b838154811061226d5761226d612efc565b60009182526020909120600354604051630b06115560e31b815260048101869052601090930290910192506001600160a01b0316906358308aa890602401600060405180830381600087803b1580156122c557600080fd5b505af11580156122d9573d6000803e3d6000fd5b505060035460405163c6b41b4560e01b815260048101869052600160248201526001600160a01b03909116925063c6b41b459150604401600060405180830381600087803b15801561232a57600080fd5b505af115801561233e573d6000803e3d6000fd5b5050600654600784015460405163668a7f3b60e01b81526001600160a01b03909216935063668a7f3b925061237a916001860190600401613479565b600060405180830381600087803b15801561239457600080fd5b505af11580156123a8573d6000803e3d6000fd5b50505050505050565b805460009081906123c4906001906131b5565b90505b80156124e05760025460405163ce28613f60e01b815260006004820181905260ff84166024830152916001600160a01b03169063ce28613f906044016020604051808303816000875af1158015612422573d6000803e3d6000fd5b505050506040513d601f19601f8201168201806040525081019061244691906134cc565b9050838160ff168154811061245d5761245d612efc565b906000526020600020015484838154811061247a5761247a612efc565b906000526020600020015485848154811061249757612497612efc565b906000526020600020016000878560ff16815481106124b8576124b8612efc565b60009182526020909120019290925591909155508190506124d8816134e9565b9150506123c7565b50815460009083906124f4906001906131b5565b8154811061250457612504612efc565b906000526020600020015490508280548061252157612521613500565b600190038181906000526020600020016000905590558060ff16915050919050565b604051806080016040528060008152602001600081526020016000600381111561256f5761256f612744565b81526020016125976040518060400160405280600060ff168152602001600060ff1681525090565b905290565b60408051610200810182526000808252606060208084018290528385018390528184018390526080808501849052855190810186528381529081018390529384018290528301529060a0820190815260200160006001600160a01b031681526020016000815260200160008152602001600081526020016000600581111561262657612626612744565b815260200161264e6040518060400160405280600060ff168152602001600060ff1681525090565b8152602001606081526020016060815260200160608152602001606081525090565b8280548282559060005260206000209081019282156126ab579160200282015b828111156126ab578251825591602001919060010190612690565b506126b79291506126bb565b5090565b5b808211156126b757600081556001016126bc565b600080602083850312156126e357600080fd5b82356001600160401b03808211156126fa57600080fd5b818501915085601f83011261270e57600080fd5b81358181111561271d57600080fd5b8660208260051b850101111561273257600080fd5b60209290920196919550909350505050565b634e487b7160e01b600052602160045260246000fd5b6004811061276a5761276a612744565b9052565b602080825282518282018190526000919060409081850190868401855b828110156127e2578151805185528681015187860152858101516127b18787018261275a565b50606090810151805160ff908116928701929092526020015116608085015260a0909301929085019060010161278b565b5091979650505050505050565b634e487b7160e01b600052604160045260246000fd5b604080519081016001600160401b0381118282101715612827576128276127ef565b60405290565b6040516101c081016001600160401b0381118282101715612827576128276127ef565b60405160e081016001600160401b0381118282101715612827576128276127ef565b604051601f8201601f191681016001600160401b038111828210171561289a5761289a6127ef565b604052919050565b60006001600160401b038211156128bb576128bb6127ef565b5060051b60200190565b600082601f8301126128d657600080fd5b813560206128eb6128e6836128a2565b612872565b82815260059290921b8401810191818101908684111561290a57600080fd5b8286015b84811015612925578035835291830191830161290e565b509695505050505050565b6000806000806080858703121561294657600080fd5b8435935060208501356001600160401b0381111561296357600080fd5b61296f878288016128c5565b949794965050505060408301359260600135919050565b60006020828403121561299857600080fd5b5035919050565b6006811061276a5761276a612744565b8b1515815260208082018c905260408083018c905260608084018c90528a5160ff9081166080860152928b0151831660a0850152908a0151821660c08401528901511660e08201526101e081016001600160a01b038816610100830152610120820187905261014082018690526101608201859052612a3261018083018561299f565b825160ff9081166101a08401526020840151166101c08301529c9b505050505050505050505050565b60ff811681146118c357600080fd5b600060408284031215612a7c57600080fd5b612a84612805565b90508135612a9181612a5b565b81526020820135612aa181612a5b565b602082015292915050565b600080600060808486031215612ac157600080fd5b83359250612ad28560208601612a6a565b9150606084013590509250925092565b600081518084526020808501945080840160005b83811015612b1257815187529582019590820190600101612af6565b509495945050505050565b602081526000612b306020830184612ae2565b9392505050565b60008060408385031215612b4a57600080fd5b50508035926020909101359150565b60208152612b6c60208201835115159052565b60006020830151610280806040850152612b8a6102a0850183612ae2565b91506040850151606085015260608501516080850152608085015160a085015260a0850151612be960c086018260ff815116825260ff602082015116602083015260ff604082015116604083015260ff60608201511660608301525050565b5060c0850151610140612c06818701836001600160a01b03169052565b60e087015161016087810191909152610100880151610180808901919091526101208901516101a0808a01919091529289015193506101c092612c4b848a018661299f565b9189015193506101e091612c7189840186805160ff908116835260209182015116910152565b818a01519450601f19915081898803016102208a0152612c918786612ae2565b9650808a01519450508088870301610240890152612caf8685612ae2565b95508289015193508088870301610260890152612ccc8685612ae2565b95508189015193508088870301858901525050506118438382612ae2565b60008060008060a08587031215612d0057600080fd5b84359350612d118660208701612a6a565b93969395505050506060820135916080013590565b8481526020810184905260a08101612d41604083018561275a565b825160ff9081166060840152602084015116608083015295945050505050565b6001600160a01b03811681146118c357600080fd5b600080600080600080600080610100898b031215612d9357600080fd5b8835612d9e81612d61565b97506020890135612dae81612d61565b96506040890135612dbe81612d61565b95506060890135612dce81612d61565b94506080890135612dde81612d61565b935060a0890135612dee81612d61565b925060c0890135612dfe81612d61565b915060e0890135612e0e81612d61565b809150509295985092959890939650565b60008060408385031215612e3257600080fd5b8235612e3d81612d61565b946020939093013593505050565b80151581146118c357600080fd5b600080600060608486031215612e6e57600080fd5b83359250602084013591506040840135612e8781612e4b565b809150509250925092565b600060208284031215612ea457600080fd5b8135612b3081612d61565b600080600060608486031215612ec457600080fd5b83356001600160401b03811115612eda57600080fd5b612ee6868287016128c5565b9660208601359650604090950135949350505050565b634e487b7160e01b600052603260045260246000fd5b634e487b7160e01b600052601160045260246000fd5b600060018201612f3a57612f3a612f12565b5060010190565b600061010082019050888252876020830152866040830152856060830152845460ff8116608084015260ff8160081c1660a0840152508360c0830152612f8a60e083018461299f565b98975050505050505050565b8051612fa181612d61565b919050565b8051612fa181612a5b565b600060408284031215612fc357600080fd5b612fcb612805565b90508151612fd881612a5b565b81526020820151612aa181612a5b565b8051600081900b8114612fa157600080fd5b600082601f83011261300b57600080fd5b8151602061301b6128e6836128a2565b82815260059290921b8401810191818101908684111561303a57600080fd5b8286015b8481101561292557805161305181612a5b565b835291830191830161303e565b8051612fa181612e4b565b60006020828403121561307b57600080fd5b81516001600160401b038082111561309257600080fd5b908301906101e082860312156130a757600080fd5b6130af61282d565b6130b883612f96565b81526130c660208401612f96565b6020820152604083015160408201526130e28660608501612fb1565b60608201526130f360a08401612fe8565b608082015261310460c08401612fa6565b60a082015261311560e08401612fa6565b60c0820152610100613128818501612fa6565b60e0830152610120808501518481111561314157600080fd5b61314d89828801612ffa565b83850152506101409350613162848601612fa6565b908301525061016061317584820161305e565b83830152610180925061318983850161305e565b908201526101a061319b84820161305e565b928201929092526101c09290920151908201529392505050565b8181038181111561060957610609612f12565b6000602082840312156131da57600080fd5b5051919050565b6000602082840312156131f357600080fd5b8151612b3081612d61565b6080810161321c8286805160ff908116835260209182015116910152565b604082019390935260600152919050565b60006020828403121561323f57600080fd5b8151612b3081612e4b565b600060a0828403121561325c57600080fd5b60405160a081018181106001600160401b038211171561327e5761327e6127ef565b60405282516006811061329057600080fd5b81526020838101519082015260408301516132aa81612a5b565b604082015260608301516132bd81612a5b565b606082015260808301516132d081612e4b565b60808201529392505050565b600060ff821660ff81036132f2576132f2612f12565b60010192915050565b600082601f83011261330c57600080fd5b8151602061331c6128e6836128a2565b82815260069290921b8401810191818101908684111561333b57600080fd5b8286015b8481101561292557604081890312156133585760008081fd5b613360612805565b8151601781106133705760008081fd5b8152818501518582015283529183019160400161333f565b60006020828403121561339a57600080fd5b81516001600160401b03808211156133b157600080fd5b9083019060e082860312156133c557600080fd5b6133cd612850565b825181526133dd6020840161305e565b60208201526133ee60408401612fa6565b60408201526133ff60608401612fa6565b606082015260808301518281111561341657600080fd5b613422878286016132fb565b60808301525060a08301518281111561343a57600080fd5b613446878286016132fb565b60a08301525060c08301518281111561345e57600080fd5b61346a878286016132fb565b60c08301525095945050505050565b60006040820184835260206040818501528185548084526060860191508660005282600020935060005b818110156134bf578454835260019485019492840192016134a3565b5090979650505050505050565b6000602082840312156134de57600080fd5b8151612b3081612a5b565b6000816134f8576134f8612f12565b506000190190565b634e487b7160e01b600052603160045260246000fdfea264697066735822122094cc197a8214cbbe34a62961cb25e8a9cacff432a522dce74b6ffc9f616a783664736f6c63430008110033",
  "devdoc": {
    "kind": "dev",
    "methods": {
      "owner()": {
        "details": "Returns the address of the current owner."
      },
      "renounceOwnership()": {
        "details": "Leaves the contract without owner. It will not be possible to call `onlyOwner` functions anymore. Can only be called by the current owner. NOTE: Renouncing ownership will leave the contract without an owner, thereby removing any functionality that is only available to the owner."
      },
      "transferOwnership(address)": {
        "details": "Transfers ownership of the contract to a new account (`newOwner`). Can only be called by the current owner."
      }
    },
    "version": 1
  },
  "userdoc": {
    "kind": "user",
    "methods": {},
    "version": 1
  },
  "storageLayout": {
    "storage": [
      {
        "astId": 7,
        "contract": "contracts/BCGames.sol:BCGames",
        "label": "_owner",
        "offset": 0,
        "slot": "0",
        "type": "t_address"
      },
      {
        "astId": 8522,
        "contract": "contracts/BCGames.sol:BCGames",
        "label": "chars",
        "offset": 0,
        "slot": "1",
        "type": "t_contract(CharInterface)8315"
      },
      {
        "astId": 8525,
        "contract": "contracts/BCGames.sol:BCGames",
        "label": "utils",
        "offset": 0,
        "slot": "2",
        "type": "t_contract(UtilsInterface)8325"
      },
      {
        "astId": 8528,
        "contract": "contracts/BCGames.sol:BCGames",
        "label": "maps",
        "offset": 0,
        "slot": "3",
        "type": "t_contract(MapInterface)8438"
      },
      {
        "astId": 8531,
        "contract": "contracts/BCGames.sol:BCGames",
        "label": "bcEvents",
        "offset": 0,
        "slot": "4",
        "type": "t_contract(EventsInterface)8301"
      },
      {
        "astId": 8534,
        "contract": "contracts/BCGames.sol:BCGames",
        "label": "items",
        "offset": 0,
        "slot": "5",
        "type": "t_contract(ItemsInterface)8452"
      },
      {
        "astId": 8537,
        "contract": "contracts/BCGames.sol:BCGames",
        "label": "players",
        "offset": 0,
        "slot": "6",
        "type": "t_contract(PlayersInterface)8517"
      },
      {
        "astId": 8539,
        "contract": "contracts/BCGames.sol:BCGames",
        "label": "lobbiesAddress",
        "offset": 0,
        "slot": "7",
        "type": "t_address"
      },
      {
        "astId": 8541,
        "contract": "contracts/BCGames.sol:BCGames",
        "label": "charsAddress",
        "offset": 0,
        "slot": "8",
        "type": "t_address"
      },
      {
        "astId": 8543,
        "contract": "contracts/BCGames.sol:BCGames",
        "label": "actionsAddress",
        "offset": 0,
        "slot": "9",
        "type": "t_address"
      },
      {
        "astId": 8623,
        "contract": "contracts/BCGames.sol:BCGames",
        "label": "StartLocation",
        "offset": 0,
        "slot": "10",
        "type": "t_struct(Position)14800_storage"
      },
      {
        "astId": 8627,
        "contract": "contracts/BCGames.sol:BCGames",
        "label": "games",
        "offset": 0,
        "slot": "11",
        "type": "t_array(t_struct(Game)14891_storage)dyn_storage"
      },
      {
        "astId": 8631,
        "contract": "contracts/BCGames.sol:BCGames",
        "label": "worldItems",
        "offset": 0,
        "slot": "12",
        "type": "t_array(t_struct(WorldItem)14786_storage)dyn_storage"
      },
      {
        "astId": 8636,
        "contract": "contracts/BCGames.sol:BCGames",
        "label": "gameIdToWorldItems",
        "offset": 0,
        "slot": "13",
        "type": "t_mapping(t_uint256,t_array(t_uint256)dyn_storage)"
      },
      {
        "astId": 8641,
        "contract": "contracts/BCGames.sol:BCGames",
        "label": "addressToGame",
        "offset": 0,
        "slot": "14",
        "type": "t_mapping(t_address,t_array(t_uint256)dyn_storage)"
      }
    ],
    "types": {
      "t_address": {
        "encoding": "inplace",
        "label": "address",
        "numberOfBytes": "20"
      },
      "t_array(t_struct(Game)14891_storage)dyn_storage": {
        "base": "t_struct(Game)14891_storage",
        "encoding": "dynamic_array",
        "label": "struct BCTypes.Game[]",
        "numberOfBytes": "32"
      },
      "t_array(t_struct(WorldItem)14786_storage)dyn_storage": {
        "base": "t_struct(WorldItem)14786_storage",
        "encoding": "dynamic_array",
        "label": "struct BCTypes.WorldItem[]",
        "numberOfBytes": "32"
      },
      "t_array(t_uint256)dyn_storage": {
        "base": "t_uint256",
        "encoding": "dynamic_array",
        "label": "uint256[]",
        "numberOfBytes": "32"
      },
      "t_bool": {
        "encoding": "inplace",
        "label": "bool",
        "numberOfBytes": "1"
      },
      "t_contract(CharInterface)8315": {
        "encoding": "inplace",
        "label": "contract CharInterface",
        "numberOfBytes": "20"
      },
      "t_contract(EventsInterface)8301": {
        "encoding": "inplace",
        "label": "contract EventsInterface",
        "numberOfBytes": "20"
      },
      "t_contract(ItemsInterface)8452": {
        "encoding": "inplace",
        "label": "contract ItemsInterface",
        "numberOfBytes": "20"
      },
      "t_contract(MapInterface)8438": {
        "encoding": "inplace",
        "label": "contract MapInterface",
        "numberOfBytes": "20"
      },
      "t_contract(PlayersInterface)8517": {
        "encoding": "inplace",
        "label": "contract PlayersInterface",
        "numberOfBytes": "20"
      },
      "t_contract(UtilsInterface)8325": {
        "encoding": "inplace",
        "label": "contract UtilsInterface",
        "numberOfBytes": "20"
      },
      "t_enum(BCEventType)14739": {
        "encoding": "inplace",
        "label": "enum BCTypes.BCEventType",
        "numberOfBytes": "1"
      },
      "t_enum(WorldItemStatus)14744": {
        "encoding": "inplace",
        "label": "enum BCTypes.WorldItemStatus",
        "numberOfBytes": "1"
      },
      "t_mapping(t_address,t_array(t_uint256)dyn_storage)": {
        "encoding": "mapping",
        "key": "t_address",
        "label": "mapping(address => uint256[])",
        "numberOfBytes": "32",
        "value": "t_array(t_uint256)dyn_storage"
      },
      "t_mapping(t_uint256,t_array(t_uint256)dyn_storage)": {
        "encoding": "mapping",
        "key": "t_uint256",
        "label": "mapping(uint256 => uint256[])",
        "numberOfBytes": "32",
        "value": "t_array(t_uint256)dyn_storage"
      },
      "t_struct(EventTracker)14795_storage": {
        "encoding": "inplace",
        "label": "struct BCTypes.EventTracker",
        "members": [
          {
            "astId": 14788,
            "contract": "contracts/BCGames.sol:BCGames",
            "label": "bugEvents",
            "offset": 0,
            "slot": "0",
            "type": "t_uint8"
          },
          {
            "astId": 14790,
            "contract": "contracts/BCGames.sol:BCGames",
            "label": "mysteryEvents",
            "offset": 1,
            "slot": "0",
            "type": "t_uint8"
          },
          {
            "astId": 14792,
            "contract": "contracts/BCGames.sol:BCGames",
            "label": "scavEvents",
            "offset": 2,
            "slot": "0",
            "type": "t_uint8"
          },
          {
            "astId": 14794,
            "contract": "contracts/BCGames.sol:BCGames",
            "label": "shipEvents",
            "offset": 3,
            "slot": "0",
            "type": "t_uint8"
          }
        ],
        "numberOfBytes": "32"
      },
      "t_struct(Game)14891_storage": {
        "encoding": "inplace",
        "label": "struct BCTypes.Game",
        "members": [
          {
            "astId": 14852,
            "contract": "contracts/BCGames.sol:BCGames",
            "label": "active",
            "offset": 0,
            "slot": "0",
            "type": "t_bool"
          },
          {
            "astId": 14855,
            "contract": "contracts/BCGames.sol:BCGames",
            "label": "playerIndexes",
            "offset": 0,
            "slot": "1",
            "type": "t_array(t_uint256)dyn_storage"
          },
          {
            "astId": 14857,
            "contract": "contracts/BCGames.sol:BCGames",
            "label": "currentPlayerTurnIndex",
            "offset": 0,
            "slot": "2",
            "type": "t_uint256"
          },
          {
            "astId": 14859,
            "contract": "contracts/BCGames.sol:BCGames",
            "label": "numPlayers",
            "offset": 0,
            "slot": "3",
            "type": "t_uint256"
          },
          {
            "astId": 14861,
            "contract": "contracts/BCGames.sol:BCGames",
            "label": "turnsTaken",
            "offset": 0,
            "slot": "4",
            "type": "t_uint256"
          },
          {
            "astId": 14864,
            "contract": "contracts/BCGames.sol:BCGames",
            "label": "eventTracker",
            "offset": 0,
            "slot": "5",
            "type": "t_struct(EventTracker)14795_storage"
          },
          {
            "astId": 14866,
            "contract": "contracts/BCGames.sol:BCGames",
            "label": "mapContract",
            "offset": 0,
            "slot": "6",
            "type": "t_address"
          },
          {
            "astId": 14868,
            "contract": "contracts/BCGames.sol:BCGames",
            "label": "mapId",
            "offset": 0,
            "slot": "7",
            "type": "t_uint256"
          },
          {
            "astId": 14870,
            "contract": "contracts/BCGames.sol:BCGames",
            "label": "eventPlayerId",
            "offset": 0,
            "slot": "8",
            "type": "t_uint256"
          },
          {
            "astId": 14872,
            "contract": "contracts/BCGames.sol:BCGames",
            "label": "eventNumber",
            "offset": 0,
            "slot": "9",
            "type": "t_uint256"
          },
          {
            "astId": 14875,
            "contract": "contracts/BCGames.sol:BCGames",
            "label": "eventType",
            "offset": 0,
            "slot": "10",
            "type": "t_enum(BCEventType)14739"
          },
          {
            "astId": 14878,
            "contract": "contracts/BCGames.sol:BCGames",
            "label": "eventPosition",
            "offset": 0,
            "slot": "11",
            "type": "t_struct(Position)14800_storage"
          },
          {
            "astId": 14881,
            "contract": "contracts/BCGames.sol:BCGames",
            "label": "unusedBugEvents",
            "offset": 0,
            "slot": "12",
            "type": "t_array(t_uint256)dyn_storage"
          },
          {
            "astId": 14884,
            "contract": "contracts/BCGames.sol:BCGames",
            "label": "unusedMysteryEvents",
            "offset": 0,
            "slot": "13",
            "type": "t_array(t_uint256)dyn_storage"
          },
          {
            "astId": 14887,
            "contract": "contracts/BCGames.sol:BCGames",
            "label": "unusedScavEvents",
            "offset": 0,
            "slot": "14",
            "type": "t_array(t_uint256)dyn_storage"
          },
          {
            "astId": 14890,
            "contract": "contracts/BCGames.sol:BCGames",
            "label": "unusedShipEvents",
            "offset": 0,
            "slot": "15",
            "type": "t_array(t_uint256)dyn_storage"
          }
        ],
        "numberOfBytes": "512"
      },
      "t_struct(Position)14800_storage": {
        "encoding": "inplace",
        "label": "struct BCTypes.Position",
        "members": [
          {
            "astId": 14797,
            "contract": "contracts/BCGames.sol:BCGames",
            "label": "row",
            "offset": 0,
            "slot": "0",
            "type": "t_uint8"
          },
          {
            "astId": 14799,
            "contract": "contracts/BCGames.sol:BCGames",
            "label": "col",
            "offset": 1,
            "slot": "0",
            "type": "t_uint8"
          }
        ],
        "numberOfBytes": "32"
      },
      "t_struct(WorldItem)14786_storage": {
        "encoding": "inplace",
        "label": "struct BCTypes.WorldItem",
        "members": [
          {
            "astId": 14777,
            "contract": "contracts/BCGames.sol:BCGames",
            "label": "gameId",
            "offset": 0,
            "slot": "0",
            "type": "t_uint256"
          },
          {
            "astId": 14779,
            "contract": "contracts/BCGames.sol:BCGames",
            "label": "bcItemId",
            "offset": 0,
            "slot": "1",
            "type": "t_uint256"
          },
          {
            "astId": 14782,
            "contract": "contracts/BCGames.sol:BCGames",
            "label": "status",
            "offset": 0,
            "slot": "2",
            "type": "t_enum(WorldItemStatus)14744"
          },
          {
            "astId": 14785,
            "contract": "contracts/BCGames.sol:BCGames",
            "label": "position",
            "offset": 0,
            "slot": "3",
            "type": "t_struct(Position)14800_storage"
          }
        ],
        "numberOfBytes": "128"
      },
      "t_uint256": {
        "encoding": "inplace",
        "label": "uint256",
        "numberOfBytes": "32"
      },
      "t_uint8": {
        "encoding": "inplace",
        "label": "uint8",
        "numberOfBytes": "1"
      }
    }
  }
}