{
  "address": "0x4f71fE2bC9019196740C7a85E5556c2F8E4f1f84",
  "abi": [
    {
      "inputs": [],
      "stateMutability": "nonpayable",
      "type": "constructor"
    },
    {
      "anonymous": false,
      "inputs": [
        {
          "indexed": true,
          "internalType": "address",
          "name": "previousOwner",
          "type": "address"
        },
        {
          "indexed": true,
          "internalType": "address",
          "name": "newOwner",
          "type": "address"
        }
      ],
      "name": "OwnershipTransferred",
      "type": "event"
    },
    {
      "inputs": [],
      "name": "StartLocation",
      "outputs": [
        {
          "internalType": "uint8",
          "name": "row",
          "type": "uint8"
        },
        {
          "internalType": "uint8",
          "name": "col",
          "type": "uint8"
        }
      ],
      "stateMutability": "view",
      "type": "function"
    },
    {
      "inputs": [],
      "name": "actionsAddress",
      "outputs": [
        {
          "internalType": "address",
          "name": "",
          "type": "address"
        }
      ],
      "stateMutability": "view",
      "type": "function"
    },
    {
      "inputs": [
        {
          "internalType": "address",
          "name": "_charContractAddress",
          "type": "address"
        },
        {
          "internalType": "uint256",
          "name": "_charId",
          "type": "uint256"
        },
        {
          "internalType": "address",
          "name": "_owner",
          "type": "address"
        }
      ],
      "name": "addPlayer",
      "outputs": [
        {
          "internalType": "uint256",
          "name": "",
          "type": "uint256"
        }
      ],
      "stateMutability": "nonpayable",
      "type": "function"
    },
    {
      "inputs": [
        {
          "internalType": "address",
          "name": "",
          "type": "address"
        },
        {
          "internalType": "uint256",
          "name": "",
          "type": "uint256"
        }
      ],
      "name": "addressToGame",
      "outputs": [
        {
          "internalType": "uint256",
          "name": "",
          "type": "uint256"
        }
      ],
      "stateMutability": "view",
      "type": "function"
    },
    {
      "inputs": [],
      "name": "chars",
      "outputs": [
        {
          "internalType": "contract CharInterface",
          "name": "",
          "type": "address"
        }
      ],
      "stateMutability": "view",
      "type": "function"
    },
    {
      "inputs": [],
      "name": "charsAddress",
      "outputs": [
        {
          "internalType": "address",
          "name": "",
          "type": "address"
        }
      ],
      "stateMutability": "view",
      "type": "function"
    },
    {
      "inputs": [
        {
          "internalType": "uint256",
          "name": "_gameId",
          "type": "uint256"
        },
        {
          "internalType": "uint256",
          "name": "_playerId",
          "type": "uint256"
        }
      ],
      "name": "endPlayerAction",
      "outputs": [],
      "stateMutability": "nonpayable",
      "type": "function"
    },
    {
      "inputs": [
        {
          "internalType": "uint256",
          "name": "_id",
          "type": "uint256"
        }
      ],
      "name": "extGetGame",
      "outputs": [
        {
          "components": [
            {
              "internalType": "bool",
              "name": "active",
              "type": "bool"
            },
            {
              "internalType": "uint256[]",
              "name": "playerIndexes",
              "type": "uint256[]"
            },
            {
              "internalType": "uint256",
              "name": "currentPlayerTurnIndex",
              "type": "uint256"
            },
            {
              "internalType": "uint256",
              "name": "numPlayers",
              "type": "uint256"
            },
            {
              "internalType": "uint256",
              "name": "turnsTaken",
              "type": "uint256"
            },
            {
              "components": [
                {
                  "internalType": "uint8",
                  "name": "bugEvents",
                  "type": "uint8"
                },
                {
                  "internalType": "uint8",
                  "name": "mysteryEvents",
                  "type": "uint8"
                },
                {
                  "internalType": "uint8",
                  "name": "scavEvents",
                  "type": "uint8"
                },
                {
                  "internalType": "uint8",
                  "name": "shipEvents",
                  "type": "uint8"
                }
              ],
              "internalType": "struct BCTypes.EventTracker",
              "name": "eventTracker",
              "type": "tuple"
            },
            {
              "internalType": "address",
              "name": "mapContract",
              "type": "address"
            },
            {
              "internalType": "uint256",
              "name": "mapId",
              "type": "uint256"
            }
          ],
          "internalType": "struct BCTypes.Game",
          "name": "",
          "type": "tuple"
        }
      ],
      "stateMutability": "view",
      "type": "function"
    },
    {
      "inputs": [
        {
          "internalType": "uint256",
          "name": "_gameId",
          "type": "uint256"
        }
      ],
      "name": "extGetGamePlayerIndexes",
      "outputs": [
        {
          "internalType": "uint256[]",
          "name": "",
          "type": "uint256[]"
        }
      ],
      "stateMutability": "view",
      "type": "function"
    },
    {
      "inputs": [
        {
          "internalType": "address",
          "name": "_playerAddress",
          "type": "address"
        }
      ],
      "name": "extGetGamesOfPlayer",
      "outputs": [
        {
          "internalType": "uint256[]",
          "name": "",
          "type": "uint256[]"
        }
      ],
      "stateMutability": "view",
      "type": "function"
    },
    {
      "inputs": [
        {
          "internalType": "uint256",
          "name": "_id",
          "type": "uint256"
        }
      ],
      "name": "extGetPlayer",
      "outputs": [
        {
          "components": [
            {
              "internalType": "address",
              "name": "owner",
              "type": "address"
            },
            {
              "internalType": "address",
              "name": "charContractAddress",
              "type": "address"
            },
            {
              "internalType": "uint256",
              "name": "characterId",
              "type": "uint256"
            },
            {
              "components": [
                {
                  "internalType": "uint8",
                  "name": "row",
                  "type": "uint8"
                },
                {
                  "internalType": "uint8",
                  "name": "col",
                  "type": "uint8"
                }
              ],
              "internalType": "struct BCTypes.Position",
              "name": "position",
              "type": "tuple"
            },
            {
              "internalType": "uint8",
              "name": "healthDmgTaken",
              "type": "uint8"
            },
            {
              "internalType": "uint8",
              "name": "armorDmgTaken",
              "type": "uint8"
            },
            {
              "internalType": "uint8",
              "name": "actionsTaken",
              "type": "uint8"
            },
            {
              "internalType": "uint8",
              "name": "dataTokens",
              "type": "uint8"
            },
            {
              "internalType": "uint8[]",
              "name": "currentEffects",
              "type": "uint8[]"
            },
            {
              "internalType": "uint8[]",
              "name": "inventoryIDs",
              "type": "uint8[]"
            },
            {
              "internalType": "bool",
              "name": "canHarmOthers",
              "type": "bool"
            },
            {
              "internalType": "bool",
              "name": "dead",
              "type": "bool"
            }
          ],
          "internalType": "struct BCTypes.Player",
          "name": "",
          "type": "tuple"
        }
      ],
      "stateMutability": "view",
      "type": "function"
    },
    {
      "inputs": [
        {
          "internalType": "uint256",
          "name": "_mapId",
          "type": "uint256"
        },
        {
          "components": [
            {
              "internalType": "uint8",
              "name": "row",
              "type": "uint8"
            },
            {
              "internalType": "uint8",
              "name": "col",
              "type": "uint8"
            }
          ],
          "internalType": "struct BCTypes.Position",
          "name": "_position",
          "type": "tuple"
        },
        {
          "internalType": "uint256",
          "name": "_playerId",
          "type": "uint256"
        }
      ],
      "name": "extMovePlayer",
      "outputs": [],
      "stateMutability": "nonpayable",
      "type": "function"
    },
    {
      "inputs": [
        {
          "internalType": "uint256",
          "name": "",
          "type": "uint256"
        }
      ],
      "name": "games",
      "outputs": [
        {
          "internalType": "bool",
          "name": "active",
          "type": "bool"
        },
        {
          "internalType": "uint256",
          "name": "currentPlayerTurnIndex",
          "type": "uint256"
        },
        {
          "internalType": "uint256",
          "name": "numPlayers",
          "type": "uint256"
        },
        {
          "internalType": "uint256",
          "name": "turnsTaken",
          "type": "uint256"
        },
        {
          "components": [
            {
              "internalType": "uint8",
              "name": "bugEvents",
              "type": "uint8"
            },
            {
              "internalType": "uint8",
              "name": "mysteryEvents",
              "type": "uint8"
            },
            {
              "internalType": "uint8",
              "name": "scavEvents",
              "type": "uint8"
            },
            {
              "internalType": "uint8",
              "name": "shipEvents",
              "type": "uint8"
            }
          ],
          "internalType": "struct BCTypes.EventTracker",
          "name": "eventTracker",
          "type": "tuple"
        },
        {
          "internalType": "address",
          "name": "mapContract",
          "type": "address"
        },
        {
          "internalType": "uint256",
          "name": "mapId",
          "type": "uint256"
        }
      ],
      "stateMutability": "view",
      "type": "function"
    },
    {
      "inputs": [
        {
          "internalType": "uint256",
          "name": "_playerId",
          "type": "uint256"
        },
        {
          "internalType": "uint8",
          "name": "_amount",
          "type": "uint8"
        }
      ],
      "name": "grantData",
      "outputs": [],
      "stateMutability": "nonpayable",
      "type": "function"
    },
    {
      "inputs": [],
      "name": "lobbiesAddress",
      "outputs": [
        {
          "internalType": "address",
          "name": "",
          "type": "address"
        }
      ],
      "stateMutability": "view",
      "type": "function"
    },
    {
      "inputs": [],
      "name": "maps",
      "outputs": [
        {
          "internalType": "contract MapInterface",
          "name": "",
          "type": "address"
        }
      ],
      "stateMutability": "view",
      "type": "function"
    },
    {
      "inputs": [],
      "name": "owner",
      "outputs": [
        {
          "internalType": "address",
          "name": "",
          "type": "address"
        }
      ],
      "stateMutability": "view",
      "type": "function"
    },
    {
      "inputs": [
        {
          "internalType": "uint256",
          "name": "",
          "type": "uint256"
        }
      ],
      "name": "players",
      "outputs": [
        {
          "internalType": "address",
          "name": "owner",
          "type": "address"
        },
        {
          "internalType": "address",
          "name": "charContractAddress",
          "type": "address"
        },
        {
          "internalType": "uint256",
          "name": "characterId",
          "type": "uint256"
        },
        {
          "components": [
            {
              "internalType": "uint8",
              "name": "row",
              "type": "uint8"
            },
            {
              "internalType": "uint8",
              "name": "col",
              "type": "uint8"
            }
          ],
          "internalType": "struct BCTypes.Position",
          "name": "position",
          "type": "tuple"
        },
        {
          "internalType": "uint8",
          "name": "healthDmgTaken",
          "type": "uint8"
        },
        {
          "internalType": "uint8",
          "name": "armorDmgTaken",
          "type": "uint8"
        },
        {
          "internalType": "uint8",
          "name": "actionsTaken",
          "type": "uint8"
        },
        {
          "internalType": "uint8",
          "name": "dataTokens",
          "type": "uint8"
        },
        {
          "internalType": "bool",
          "name": "canHarmOthers",
          "type": "bool"
        },
        {
          "internalType": "bool",
          "name": "dead",
          "type": "bool"
        }
      ],
      "stateMutability": "view",
      "type": "function"
    },
    {
      "inputs": [],
      "name": "renounceOwnership",
      "outputs": [],
      "stateMutability": "nonpayable",
      "type": "function"
    },
    {
      "inputs": [],
      "name": "roomTiles",
      "outputs": [
        {
          "internalType": "contract RoomTileInterface",
          "name": "",
          "type": "address"
        }
      ],
      "stateMutability": "view",
      "type": "function"
    },
    {
      "inputs": [
        {
          "internalType": "address",
          "name": "_roomTileAddress",
          "type": "address"
        },
        {
          "internalType": "address",
          "name": "_charAddress",
          "type": "address"
        },
        {
          "internalType": "address",
          "name": "_utilsAddress",
          "type": "address"
        },
        {
          "internalType": "address",
          "name": "_mapsAddress",
          "type": "address"
        },
        {
          "internalType": "address",
          "name": "_lobbiesAddress",
          "type": "address"
        },
        {
          "internalType": "address",
          "name": "_actionsAddress",
          "type": "address"
        }
      ],
      "name": "setContractAddresses",
      "outputs": [],
      "stateMutability": "nonpayable",
      "type": "function"
    },
    {
      "inputs": [
        {
          "internalType": "uint256[]",
          "name": "_playerIndexes",
          "type": "uint256[]"
        },
        {
          "internalType": "uint256",
          "name": "_numPlayers",
          "type": "uint256"
        }
      ],
      "name": "startGame",
      "outputs": [],
      "stateMutability": "nonpayable",
      "type": "function"
    },
    {
      "inputs": [],
      "name": "transferFundsOut",
      "outputs": [],
      "stateMutability": "nonpayable",
      "type": "function"
    },
    {
      "inputs": [
        {
          "internalType": "address",
          "name": "newOwner",
          "type": "address"
        }
      ],
      "name": "transferOwnership",
      "outputs": [],
      "stateMutability": "nonpayable",
      "type": "function"
    },
    {
      "inputs": [],
      "name": "utils",
      "outputs": [
        {
          "internalType": "contract UtilsInterface",
          "name": "",
          "type": "address"
        }
      ],
      "stateMutability": "view",
      "type": "function"
    }
  ],
  "transactionHash": "0x2df6c90968e833d0821e5980f772d43cd8ec6a8d27e92fb46221593eeff8d9e3",
  "args": [],
  "numDeployments": 1,
  "solcInputHash": "106b24de3a9c6176496e0aea719f22ec",
  "bytecode": "0x60806040526040518060400160405280600a60ff168152602001600660ff16815250600860008201518160000160006101000a81548160ff021916908360ff16021790555060208201518160000160016101000a81548160ff021916908360ff16021790555050503480156200007457600080fd5b5062000095620000896200009b60201b60201c565b620000a360201b60201c565b62000167565b600033905090565b60008060009054906101000a900473ffffffffffffffffffffffffffffffffffffffff169050816000806101000a81548173ffffffffffffffffffffffffffffffffffffffff021916908373ffffffffffffffffffffffffffffffffffffffff1602179055508173ffffffffffffffffffffffffffffffffffffffff168173ffffffffffffffffffffffffffffffffffffffff167f8be0079c531659141344cd1fd0a4f28419497f9722a3daafe3b4186f6b6457e060405160405180910390a35050565b61345980620001776000396000f3fe608060405234801561001057600080fd5b50600436106101735760003560e01c806360fe842e116100de5780639fca1ee111610097578063dc769ee811610071578063dc769ee814610440578063f2fde38b1461045f578063f7157f641461047b578063f71d96cb1461049957610173565b80639fca1ee1146103c2578063a99d2a8b146103e0578063afd62bb21461041057610173565b806360fe842e1461031457806368030c72146103305780636fe99c181461034c578063715018a61461037c5780637b45c0d4146103865780638da5cb5b146103a457610173565b8063336d7d7b11610130578063336d7d7b146102645780633838aed1146102825780633deaec2b1461028c57806340d4fd78146102aa5780634c8463a7146102da5780635a29638d146102f657610173565b806308178b3c1461017857806310a2cd0d146101a857806310f67fb3146101c6578063117a5b90146101f6578063175142251461022c5780632c56e25214610248575b600080fd5b610192600480360381019061018d91906121be565b6104d2565b60405161019f9190612220565b60405180910390f35b6101b0610633565b6040516101bd919061229a565b60405180910390f35b6101e060048036038101906101db91906122b5565b610659565b6040516101ed9190612521565b60405180910390f35b610210600480360381019061020b91906122b5565b610940565b60405161022397969594939291906125b6565b60405180910390f35b61024660048036038101906102419190612735565b610a3d565b005b610262600480360381019061025d9190612788565b610add565b005b61026c610b3a565b60405161027991906127c8565b60405180910390f35b61028a610b60565b005b610294610bb8565b6040516102a19190612804565b60405180910390f35b6102c460048036038101906102bf91906122b5565b610bde565b6040516102d191906128ce565b60405180910390f35b6102f460048036038101906102ef91906128f0565b610cdf565b005b6102fe610e75565b60405161030b919061299e565b60405180910390f35b61032e600480360381019061032991906129b9565b610e9b565b005b61034a60048036038101906103459190612ac6565b61117e565b005b610366600480360381019061036191906122b5565b6115b2565b6040516103739190612c98565b60405180910390f35b610384611768565b005b61038e61177c565b60405161039b91906127c8565b60405180910390f35b6103ac6117a2565b6040516103b991906127c8565b60405180910390f35b6103ca6117cb565b6040516103d791906127c8565b60405180910390f35b6103fa60048036038101906103f59190612cba565b6117f1565b6040516104079190612220565b60405180910390f35b61042a60048036038101906104259190612cfa565b611822565b60405161043791906128ce565b60405180910390f35b610448611957565b604051610456929190612d36565b60405180910390f35b61047960048036038101906104749190612cfa565b611983565b005b610483611a07565b6040516104909190612d80565b60405180910390f35b6104b360048036038101906104ae91906122b5565b611a2d565b6040516104c99a99989796959493929190612dca565b60405180910390f35b6000600560009054906101000a900473ffffffffffffffffffffffffffffffffffffffff1673ffffffffffffffffffffffffffffffffffffffff163373ffffffffffffffffffffffffffffffffffffffff1614610564576040517f08c379a000000000000000000000000000000000000000000000000000000000815260040161055b90612ec4565b60405180910390fd5b600060096001816001815401808255809150500390600052602060002090600802019050848160010160006101000a81548173ffffffffffffffffffffffffffffffffffffffff021916908373ffffffffffffffffffffffffffffffffffffffff160217905550828160000160006101000a81548173ffffffffffffffffffffffffffffffffffffffff021916908373ffffffffffffffffffffffffffffffffffffffff16021790555083816002018190555060016009805490506106299190612f13565b9150509392505050565b600260009054906101000a900473ffffffffffffffffffffffffffffffffffffffff1681565b610661611f52565b6009828154811061067557610674612f47565b5b9060005260206000209060080201604051806101800160405290816000820160009054906101000a900473ffffffffffffffffffffffffffffffffffffffff1673ffffffffffffffffffffffffffffffffffffffff1673ffffffffffffffffffffffffffffffffffffffff1681526020016001820160009054906101000a900473ffffffffffffffffffffffffffffffffffffffff1673ffffffffffffffffffffffffffffffffffffffff1673ffffffffffffffffffffffffffffffffffffffff16815260200160028201548152602001600382016040518060400160405290816000820160009054906101000a900460ff1660ff1660ff1681526020016000820160019054906101000a900460ff1660ff1660ff168152505081526020016004820160009054906101000a900460ff1660ff1660ff1681526020016004820160019054906101000a900460ff1660ff1660ff1681526020016004820160029054906101000a900460ff1660ff1660ff1681526020016004820160039054906101000a900460ff1660ff1660ff1681526020016005820180548060200260200160405190810160405280929190818152602001828054801561087c57602002820191906000526020600020906000905b82829054906101000a900460ff1660ff16815260200190600101906020826000010492830192600103820291508084116108455790505b50505050508152602001600682018054806020026020016040519081016040528092919081815260200182805480156108fa57602002820191906000526020600020906000905b82829054906101000a900460ff1660ff16815260200190600101906020826000010492830192600103820291508084116108c35790505b505050505081526020016007820160009054906101000a900460ff161515151581526020016007820160019054906101000a900460ff1615151515815250509050919050565b600a818154811061095057600080fd5b90600052602060002090600802016000915090508060000160009054906101000a900460ff1690806002015490806003015490806004015490806005016040518060800160405290816000820160009054906101000a900460ff1660ff1660ff1681526020016000820160019054906101000a900460ff1660ff1660ff1681526020016000820160029054906101000a900460ff1660ff1660ff1681526020016000820160039054906101000a900460ff1660ff1660ff1681525050908060060160009054906101000a900473ffffffffffffffffffffffffffffffffffffffff16908060070154905087565b600760009054906101000a900473ffffffffffffffffffffffffffffffffffffffff1673ffffffffffffffffffffffffffffffffffffffff163373ffffffffffffffffffffffffffffffffffffffff1614610acd576040517f08c379a0000000000000000000000000000000000000000000000000000000008152600401610ac490612fc2565b60405180910390fd5b610ad8838383611b63565b505050565b8060098381548110610af257610af1612f47565b5b906000526020600020906008020160040160038282829054906101000a900460ff16610b1e9190612fe2565b92506101000a81548160ff021916908360ff1602179055505050565b600560009054906101000a900473ffffffffffffffffffffffffffffffffffffffff1681565b610b68611d78565b610b706117a2565b73ffffffffffffffffffffffffffffffffffffffff166108fc479081150290604051600060405180830381858888f19350505050158015610bb5573d6000803e3d6000fd5b50565b600460009054906101000a900473ffffffffffffffffffffffffffffffffffffffff1681565b60606000600a8381548110610bf657610bf5612f47565b5b90600052602060002090600802016001018054905067ffffffffffffffff811115610c2457610c2361263e565b5b604051908082528060200260200182016040528015610c525781602001602082028036833780820191505090505b50905060005b8151811015610cd557600a8481548110610c7557610c74612f47565b5b90600052602060002090600802016001018181548110610c9857610c97612f47565b5b9060005260206000200154828281518110610cb657610cb5612f47565b5b6020026020010181815250508080610ccd90613019565b915050610c58565b5080915050919050565b610ce7611d78565b85600160006101000a81548173ffffffffffffffffffffffffffffffffffffffff021916908373ffffffffffffffffffffffffffffffffffffffff16021790555084600260006101000a81548173ffffffffffffffffffffffffffffffffffffffff021916908373ffffffffffffffffffffffffffffffffffffffff16021790555083600360006101000a81548173ffffffffffffffffffffffffffffffffffffffff021916908373ffffffffffffffffffffffffffffffffffffffff16021790555082600460006101000a81548173ffffffffffffffffffffffffffffffffffffffff021916908373ffffffffffffffffffffffffffffffffffffffff16021790555081600560006101000a81548173ffffffffffffffffffffffffffffffffffffffff021916908373ffffffffffffffffffffffffffffffffffffffff16021790555080600760006101000a81548173ffffffffffffffffffffffffffffffffffffffff021916908373ffffffffffffffffffffffffffffffffffffffff160217905550505050505050565b600360009054906101000a900473ffffffffffffffffffffffffffffffffffffffff1681565b600760009054906101000a900473ffffffffffffffffffffffffffffffffffffffff1673ffffffffffffffffffffffffffffffffffffffff163373ffffffffffffffffffffffffffffffffffffffff1614610f2b576040517f08c379a0000000000000000000000000000000000000000000000000000000008152600401610f2290612fc2565b60405180910390fd5b600060098281548110610f4157610f40612f47565b5b906000526020600020906008020190506000600a8481548110610f6757610f66612f47565b5b9060005260206000209060080201905081600401600281819054906101000a900460ff1680929190610f9890613062565b91906101000a81548160ff021916908360ff1602179055505060038260040160029054906101000a900460ff1660ff16101580610fe357508160070160019054906101000a900460ff165b15611178578160070160019054906101000a900460ff16156111035760008260070160016101000a81548160ff021916908315150217905550600260009054906101000a900473ffffffffffffffffffffffffffffffffffffffff1673ffffffffffffffffffffffffffffffffffffffff16636d6ba75683600201546040518263ffffffff1660e01b815260040161107b9190612220565b600060405180830381600087803b15801561109557600080fd5b505af11580156110a9573d6000803e3d6000fd5b50505050611102816007015460086040518060400160405290816000820160009054906101000a900460ff1660ff1660ff1681526020016000820160019054906101000a900460ff1660ff1660ff168152505085611b63565b5b60008260040160026101000a81548160ff021916908360ff160217905550600181600101805490506111359190612f13565b8160020154101561115f5780600201600081548092919061115590613019565b9190505550611177565b61116c8160070154611df6565b600081600201819055505b5b50505050565b600560009054906101000a900473ffffffffffffffffffffffffffffffffffffffff1673ffffffffffffffffffffffffffffffffffffffff163373ffffffffffffffffffffffffffffffffffffffff161461120e576040517f08c379a000000000000000000000000000000000000000000000000000000000815260040161120590612ec4565b60405180910390fd5b6000600a600181600181540180825580915050039060005260206000209060080201905060018160000160006101000a81548160ff0219169083151502179055506000816004018190555082816001019080519060200190611271929190611ff5565b508181600301819055506040518060800160405280600060ff168152602001600060ff168152602001600060ff168152602001600060ff168152508160050160008201518160000160006101000a81548160ff021916908360ff16021790555060208201518160000160016101000a81548160ff021916908360ff16021790555060408201518160000160026101000a81548160ff021916908360ff16021790555060608201518160000160036101000a81548160ff021916908360ff160217905550905050600460009054906101000a900473ffffffffffffffffffffffffffffffffffffffff168160060160006101000a81548173ffffffffffffffffffffffffffffffffffffffff021916908373ffffffffffffffffffffffffffffffffffffffff160217905550600460009054906101000a900473ffffffffffffffffffffffffffffffffffffffff1673ffffffffffffffffffffffffffffffffffffffff1663f01fc35a6040518163ffffffff1660e01b81526004016020604051808303816000875af115801561140b573d6000803e3d6000fd5b505050506040513d601f19601f8201168201806040525081019061142f91906130a1565b816007018190555060005b828110156115ac576114b7826007015460086040518060400160405290816000820160009054906101000a900460ff1660ff1660ff1681526020016000820160019054906101000a900460ff1660ff1660ff16815250508460010184815481106114a7576114a6612f47565b5b9060005260206000200154611b63565b600060098360010183815481106114d1576114d0612f47565b5b9060005260206000200154815481106114ed576114ec612f47565b5b906000526020600020906008020160000160009054906101000a900473ffffffffffffffffffffffffffffffffffffffff169050600b60008273ffffffffffffffffffffffffffffffffffffffff1673ffffffffffffffffffffffffffffffffffffffff1681526020019081526020016000206001600a805490506115729190612f13565b90806001815401808255809150506001900390600052602060002001600090919091909150555080806115a490613019565b91505061143a565b50505050565b6115ba612042565b600a82815481106115ce576115cd612f47565b5b9060005260206000209060080201604051806101000160405290816000820160009054906101000a900460ff161515151581526020016001820180548060200260200160405190810160405280929190818152602001828054801561165257602002820191906000526020600020905b81548152602001906001019080831161163e575b50505050508152602001600282015481526020016003820154815260200160048201548152602001600582016040518060800160405290816000820160009054906101000a900460ff1660ff1660ff1681526020016000820160019054906101000a900460ff1660ff1660ff1681526020016000820160029054906101000a900460ff1660ff1660ff1681526020016000820160039054906101000a900460ff1660ff1660ff168152505081526020016006820160009054906101000a900473ffffffffffffffffffffffffffffffffffffffff1673ffffffffffffffffffffffffffffffffffffffff1673ffffffffffffffffffffffffffffffffffffffff1681526020016007820154815250509050919050565b611770611d78565b61177a6000611e86565b565b600760009054906101000a900473ffffffffffffffffffffffffffffffffffffffff1681565b60008060009054906101000a900473ffffffffffffffffffffffffffffffffffffffff16905090565b600660009054906101000a900473ffffffffffffffffffffffffffffffffffffffff1681565b600b602052816000526040600020818154811061180d57600080fd5b90600052602060002001600091509150505481565b60606000600b60008473ffffffffffffffffffffffffffffffffffffffff1673ffffffffffffffffffffffffffffffffffffffff1681526020019081526020016000208054905067ffffffffffffffff8111156118825761188161263e565b5b6040519080825280602002602001820160405280156118b05781602001602082028036833780820191505090505b50905060005b815181101561194d57600b60008573ffffffffffffffffffffffffffffffffffffffff1673ffffffffffffffffffffffffffffffffffffffff16815260200190815260200160002081815481106119105761190f612f47565b5b906000526020600020015482828151811061192e5761192d612f47565b5b602002602001018181525050808061194590613019565b9150506118b6565b5080915050919050565b60088060000160009054906101000a900460ff16908060000160019054906101000a900460ff16905082565b61198b611d78565b600073ffffffffffffffffffffffffffffffffffffffff168173ffffffffffffffffffffffffffffffffffffffff1614156119fb576040517f08c379a00000000000000000000000000000000000000000000000000000000081526004016119f290613140565b60405180910390fd5b611a0481611e86565b50565b600160009054906101000a900473ffffffffffffffffffffffffffffffffffffffff1681565b60098181548110611a3d57600080fd5b90600052602060002090600802016000915090508060000160009054906101000a900473ffffffffffffffffffffffffffffffffffffffff16908060010160009054906101000a900473ffffffffffffffffffffffffffffffffffffffff1690806002015490806003016040518060400160405290816000820160009054906101000a900460ff1660ff1660ff1681526020016000820160019054906101000a900460ff1660ff1660ff1681525050908060040160009054906101000a900460ff16908060040160019054906101000a900460ff16908060040160029054906101000a900460ff16908060040160039054906101000a900460ff16908060070160009054906101000a900460ff16908060070160019054906101000a900460ff1690508a565b8160098281548110611b7857611b77612f47565b5b906000526020600020906008020160030160008201518160000160006101000a81548160ff021916908360ff16021790555060208201518160000160016101000a81548160ff021916908360ff160217905550905050600060ff16600460009054906101000a900473ffffffffffffffffffffffffffffffffffffffff1673ffffffffffffffffffffffffffffffffffffffff1663f9dfbfcb85856000015186602001516040518463ffffffff1660e01b8152600401611c3a93929190613191565b61012060405180830381865afa158015611c58573d6000803e3d6000fd5b505050506040513d601f19601f82011682018060405250810190611c7c919061335c565b6000015160ff161415611cc857600160098281548110611c9f57611c9e612f47565b5b906000526020600020906008020160070160016101000a81548160ff0219169083151502179055505b600460009054906101000a900473ffffffffffffffffffffffffffffffffffffffff1673ffffffffffffffffffffffffffffffffffffffff1663471b675984846000015185602001516040518463ffffffff1660e01b8152600401611d2f93929190613191565b6020604051808303816000875af1158015611d4e573d6000803e3d6000fd5b505050506040513d601f19601f82011682018060405250810190611d72919061338a565b50505050565b611d80611f4a565b73ffffffffffffffffffffffffffffffffffffffff16611d9e6117a2565b73ffffffffffffffffffffffffffffffffffffffff1614611df4576040517f08c379a0000000000000000000000000000000000000000000000000000000008152600401611deb90613403565b60405180910390fd5b565b600460009054906101000a900473ffffffffffffffffffffffffffffffffffffffff1673ffffffffffffffffffffffffffffffffffffffff166358308aa8826040518263ffffffff1660e01b8152600401611e519190612220565b600060405180830381600087803b158015611e6b57600080fd5b505af1158015611e7f573d6000803e3d6000fd5b5050505050565b60008060009054906101000a900473ffffffffffffffffffffffffffffffffffffffff169050816000806101000a81548173ffffffffffffffffffffffffffffffffffffffff021916908373ffffffffffffffffffffffffffffffffffffffff1602179055508173ffffffffffffffffffffffffffffffffffffffff168173ffffffffffffffffffffffffffffffffffffffff167f8be0079c531659141344cd1fd0a4f28419497f9722a3daafe3b4186f6b6457e060405160405180910390a35050565b600033905090565b604051806101800160405280600073ffffffffffffffffffffffffffffffffffffffff168152602001600073ffffffffffffffffffffffffffffffffffffffff16815260200160008152602001611fa76120a5565b8152602001600060ff168152602001600060ff168152602001600060ff168152602001600060ff16815260200160608152602001606081526020016000151581526020016000151581525090565b828054828255906000526020600020908101928215612031579160200282015b82811115612030578251825591602001919060010190612015565b5b50905061203e91906120c5565b5090565b6040518061010001604052806000151581526020016060815260200160008152602001600081526020016000815260200161207b6120e2565b8152602001600073ffffffffffffffffffffffffffffffffffffffff168152602001600081525090565b6040518060400160405280600060ff168152602001600060ff1681525090565b5b808211156120de5760008160009055506001016120c6565b5090565b6040518060800160405280600060ff168152602001600060ff168152602001600060ff168152602001600060ff1681525090565b6000604051905090565b600080fd5b600080fd5b600073ffffffffffffffffffffffffffffffffffffffff82169050919050565b60006121558261212a565b9050919050565b6121658161214a565b811461217057600080fd5b50565b6000813590506121828161215c565b92915050565b6000819050919050565b61219b81612188565b81146121a657600080fd5b50565b6000813590506121b881612192565b92915050565b6000806000606084860312156121d7576121d6612120565b5b60006121e586828701612173565b93505060206121f6868287016121a9565b925050604061220786828701612173565b9150509250925092565b61221a81612188565b82525050565b60006020820190506122356000830184612211565b92915050565b6000819050919050565b600061226061225b6122568461212a565b61223b565b61212a565b9050919050565b600061227282612245565b9050919050565b600061228482612267565b9050919050565b61229481612279565b82525050565b60006020820190506122af600083018461228b565b92915050565b6000602082840312156122cb576122ca612120565b5b60006122d9848285016121a9565b91505092915050565b6122eb8161214a565b82525050565b6122fa81612188565b82525050565b600060ff82169050919050565b61231681612300565b82525050565b604082016000820151612332600085018261230d565b506020820151612345602085018261230d565b50505050565b600081519050919050565b600082825260208201905092915050565b6000819050602082019050919050565b6000612383838361230d565b60208301905092915050565b6000602082019050919050565b60006123a78261234b565b6123b18185612356565b93506123bc83612367565b8060005b838110156123ed5781516123d48882612377565b97506123df8361238f565b9250506001810190506123c0565b5085935050505092915050565b60008115159050919050565b61240f816123fa565b82525050565b60006101a08301600083015161242e60008601826122e2565b50602083015161244160208601826122e2565b50604083015161245460408601826122f1565b506060830151612467606086018261231c565b50608083015161247a60a086018261230d565b5060a083015161248d60c086018261230d565b5060c08301516124a060e086018261230d565b5060e08301516124b461010086018261230d565b506101008301518482036101208601526124ce828261239c565b9150506101208301518482036101408601526124ea828261239c565b915050610140830151612501610160860182612406565b50610160830151612516610180860182612406565b508091505092915050565b6000602082019050818103600083015261253b8184612415565b905092915050565b61254c816123fa565b82525050565b608082016000820151612568600085018261230d565b50602082015161257b602085018261230d565b50604082015161258e604085018261230d565b5060608201516125a1606085018261230d565b50505050565b6125b08161214a565b82525050565b6000610140820190506125cc600083018a612543565b6125d96020830189612211565b6125e66040830188612211565b6125f36060830187612211565b6126006080830186612552565b61260e6101008301856125a7565b61261c610120830184612211565b98975050505050505050565b600080fd5b6000601f19601f8301169050919050565b7f4e487b7100000000000000000000000000000000000000000000000000000000600052604160045260246000fd5b6126768261262d565b810181811067ffffffffffffffff821117156126955761269461263e565b5b80604052505050565b60006126a8612116565b90506126b4828261266d565b919050565b6126c281612300565b81146126cd57600080fd5b50565b6000813590506126df816126b9565b92915050565b6000604082840312156126fb576126fa612628565b5b612705604061269e565b90506000612715848285016126d0565b6000830152506020612729848285016126d0565b60208301525092915050565b60008060006080848603121561274e5761274d612120565b5b600061275c868287016121a9565b935050602061276d868287016126e5565b925050606061277e868287016121a9565b9150509250925092565b6000806040838503121561279f5761279e612120565b5b60006127ad858286016121a9565b92505060206127be858286016126d0565b9150509250929050565b60006020820190506127dd60008301846125a7565b92915050565b60006127ee82612267565b9050919050565b6127fe816127e3565b82525050565b600060208201905061281960008301846127f5565b92915050565b600081519050919050565b600082825260208201905092915050565b6000819050602082019050919050565b600061285783836122f1565b60208301905092915050565b6000602082019050919050565b600061287b8261281f565b612885818561282a565b93506128908361283b565b8060005b838110156128c15781516128a8888261284b565b97506128b383612863565b925050600181019050612894565b5085935050505092915050565b600060208201905081810360008301526128e88184612870565b905092915050565b60008060008060008060c0878903121561290d5761290c612120565b5b600061291b89828a01612173565b965050602061292c89828a01612173565b955050604061293d89828a01612173565b945050606061294e89828a01612173565b935050608061295f89828a01612173565b92505060a061297089828a01612173565b9150509295509295509295565b600061298882612267565b9050919050565b6129988161297d565b82525050565b60006020820190506129b3600083018461298f565b92915050565b600080604083850312156129d0576129cf612120565b5b60006129de858286016121a9565b92505060206129ef858286016121a9565b9150509250929050565b600080fd5b600067ffffffffffffffff821115612a1957612a1861263e565b5b602082029050602081019050919050565b600080fd5b6000612a42612a3d846129fe565b61269e565b90508083825260208201905060208402830185811115612a6557612a64612a2a565b5b835b81811015612a8e5780612a7a88826121a9565b845260208401935050602081019050612a67565b5050509392505050565b600082601f830112612aad57612aac6129f9565b5b8135612abd848260208601612a2f565b91505092915050565b60008060408385031215612add57612adc612120565b5b600083013567ffffffffffffffff811115612afb57612afa612125565b5b612b0785828601612a98565b9250506020612b18858286016121a9565b9150509250929050565b600082825260208201905092915050565b6000612b3e8261281f565b612b488185612b22565b9350612b538361283b565b8060005b83811015612b84578151612b6b888261284b565b9750612b7683612863565b925050600181019050612b57565b5085935050505092915050565b608082016000820151612ba7600085018261230d565b506020820151612bba602085018261230d565b506040820151612bcd604085018261230d565b506060820151612be0606085018261230d565b50505050565b600061016083016000830151612bff6000860182612406565b5060208301518482036020860152612c178282612b33565b9150506040830151612c2c60408601826122f1565b506060830151612c3f60608601826122f1565b506080830151612c5260808601826122f1565b5060a0830151612c6560a0860182612b91565b5060c0830151612c796101208601826122e2565b5060e0830151612c8d6101408601826122f1565b508091505092915050565b60006020820190508181036000830152612cb28184612be6565b905092915050565b60008060408385031215612cd157612cd0612120565b5b6000612cdf85828601612173565b9250506020612cf0858286016121a9565b9150509250929050565b600060208284031215612d1057612d0f612120565b5b6000612d1e84828501612173565b91505092915050565b612d3081612300565b82525050565b6000604082019050612d4b6000830185612d27565b612d586020830184612d27565b9392505050565b6000612d6a82612267565b9050919050565b612d7a81612d5f565b82525050565b6000602082019050612d956000830184612d71565b92915050565b604082016000820151612db1600085018261230d565b506020820151612dc4602085018261230d565b50505050565b600061016082019050612de0600083018d6125a7565b612ded602083018c6125a7565b612dfa604083018b612211565b612e07606083018a612d9b565b612e1460a0830189612d27565b612e2160c0830188612d27565b612e2e60e0830187612d27565b612e3c610100830186612d27565b612e4a610120830185612543565b612e58610140830184612543565b9b9a5050505050505050505050565b600082825260208201905092915050565b7f4e6f74206c6f62627920636f6e74726163740000000000000000000000000000600082015250565b6000612eae601283612e67565b9150612eb982612e78565b602082019050919050565b60006020820190508181036000830152612edd81612ea1565b9050919050565b7f4e487b7100000000000000000000000000000000000000000000000000000000600052601160045260246000fd5b6000612f1e82612188565b9150612f2983612188565b925082821015612f3c57612f3b612ee4565b5b828203905092915050565b7f4e487b7100000000000000000000000000000000000000000000000000000000600052603260045260246000fd5b7f4e6f7420616374696f6e7320636f6e7472616374000000000000000000000000600082015250565b6000612fac601483612e67565b9150612fb782612f76565b602082019050919050565b60006020820190508181036000830152612fdb81612f9f565b9050919050565b6000612fed82612300565b9150612ff883612300565b92508260ff0382111561300e5761300d612ee4565b5b828201905092915050565b600061302482612188565b91507fffffffffffffffffffffffffffffffffffffffffffffffffffffffffffffffff82141561305757613056612ee4565b5b600182019050919050565b600061306d82612300565b915060ff82141561308157613080612ee4565b5b600182019050919050565b60008151905061309b81612192565b92915050565b6000602082840312156130b7576130b6612120565b5b60006130c58482850161308c565b91505092915050565b7f4f776e61626c653a206e6577206f776e657220697320746865207a65726f206160008201527f6464726573730000000000000000000000000000000000000000000000000000602082015250565b600061312a602683612e67565b9150613135826130ce565b604082019050919050565b600060208201905081810360008301526131598161311d565b9050919050565b600061317b61317661317184612300565b61223b565b612188565b9050919050565b61318b81613160565b82525050565b60006060820190506131a66000830186612211565b6131b36020830185613182565b6131c06040830184613182565b949350505050565b6000815190506131d7816126b9565b92915050565b600067ffffffffffffffff8211156131f8576131f761263e565b5b602082029050919050565b6000613216613211846131dd565b61269e565b905080602084028301858111156132305761322f612a2a565b5b835b818110156132595780613245888261308c565b845260208401935050602081019050613232565b5050509392505050565b600082601f830112613278576132776129f9565b5b6004613285848285613203565b91505092915050565b613297816123fa565b81146132a257600080fd5b50565b6000815190506132b48161328e565b92915050565b600061012082840312156132d1576132d0612628565b5b6132db60c061269e565b905060006132eb848285016131c8565b60008301525060206132ff848285016131c8565b602083015250604061331384828501613263565b60408301525060c0613327848285016132a5565b60608301525060e061333b848285016132a5565b608083015250610100613350848285016132a5565b60a08301525092915050565b6000610120828403121561337357613372612120565b5b6000613381848285016132ba565b91505092915050565b6000602082840312156133a05761339f612120565b5b60006133ae848285016132a5565b91505092915050565b7f4f776e61626c653a2063616c6c6572206973206e6f7420746865206f776e6572600082015250565b60006133ed602083612e67565b91506133f8826133b7565b602082019050919050565b6000602082019050818103600083015261341c816133e0565b905091905056fea2646970667358221220485cee14279b0d8bbb0ac600e1450e2eae92de03723fd6f2be66f2f3bfe4ab0264736f6c634300080c0033",
  "devdoc": {
    "kind": "dev",
    "methods": {
      "owner()": {
        "details": "Returns the address of the current owner."
      },
      "renounceOwnership()": {
        "details": "Leaves the contract without owner. It will not be possible to call `onlyOwner` functions anymore. Can only be called by the current owner. NOTE: Renouncing ownership will leave the contract without an owner, thereby removing any functionality that is only available to the owner."
      },
      "transferOwnership(address)": {
        "details": "Transfers ownership of the contract to a new account (`newOwner`). Can only be called by the current owner."
      }
    },
    "version": 1
  },
  "userdoc": {
    "kind": "user",
    "methods": {},
    "version": 1
  },
  "storageLayout": {
    "storage": [
      {
        "astId": 7,
        "contract": "contracts/BCGames.sol:BCGames",
        "label": "_owner",
        "offset": 0,
        "slot": "0",
        "type": "t_address"
      },
      {
        "astId": 3799,
        "contract": "contracts/BCGames.sol:BCGames",
        "label": "roomTiles",
        "offset": 0,
        "slot": "1",
        "type": "t_contract(RoomTileInterface)3634"
      },
      {
        "astId": 3802,
        "contract": "contracts/BCGames.sol:BCGames",
        "label": "chars",
        "offset": 0,
        "slot": "2",
        "type": "t_contract(CharInterface)3648"
      },
      {
        "astId": 3805,
        "contract": "contracts/BCGames.sol:BCGames",
        "label": "utils",
        "offset": 0,
        "slot": "3",
        "type": "t_contract(UtilsInterface)3701"
      },
      {
        "astId": 3808,
        "contract": "contracts/BCGames.sol:BCGames",
        "label": "maps",
        "offset": 0,
        "slot": "4",
        "type": "t_contract(MapInterface)3794"
      },
      {
        "astId": 3810,
        "contract": "contracts/BCGames.sol:BCGames",
        "label": "lobbiesAddress",
        "offset": 0,
        "slot": "5",
        "type": "t_address"
      },
      {
        "astId": 3812,
        "contract": "contracts/BCGames.sol:BCGames",
        "label": "charsAddress",
        "offset": 0,
        "slot": "6",
        "type": "t_address"
      },
      {
        "astId": 3814,
        "contract": "contracts/BCGames.sol:BCGames",
        "label": "actionsAddress",
        "offset": 0,
        "slot": "7",
        "type": "t_address"
      },
      {
        "astId": 3878,
        "contract": "contracts/BCGames.sol:BCGames",
        "label": "StartLocation",
        "offset": 0,
        "slot": "8",
        "type": "t_struct(Position)6957_storage"
      },
      {
        "astId": 3882,
        "contract": "contracts/BCGames.sol:BCGames",
        "label": "players",
        "offset": 0,
        "slot": "9",
        "type": "t_array(t_struct(Player)6933_storage)dyn_storage"
      },
      {
        "astId": 3886,
        "contract": "contracts/BCGames.sol:BCGames",
        "label": "games",
        "offset": 0,
        "slot": "10",
        "type": "t_array(t_struct(Game)7028_storage)dyn_storage"
      },
      {
        "astId": 3891,
        "contract": "contracts/BCGames.sol:BCGames",
        "label": "addressToGame",
        "offset": 0,
        "slot": "11",
        "type": "t_mapping(t_address,t_array(t_uint256)dyn_storage)"
      }
    ],
    "types": {
      "t_address": {
        "encoding": "inplace",
        "label": "address",
        "numberOfBytes": "20"
      },
      "t_array(t_struct(Game)7028_storage)dyn_storage": {
        "base": "t_struct(Game)7028_storage",
        "encoding": "dynamic_array",
        "label": "struct BCTypes.Game[]",
        "numberOfBytes": "32"
      },
      "t_array(t_struct(Player)6933_storage)dyn_storage": {
        "base": "t_struct(Player)6933_storage",
        "encoding": "dynamic_array",
        "label": "struct BCTypes.Player[]",
        "numberOfBytes": "32"
      },
      "t_array(t_uint256)dyn_storage": {
        "base": "t_uint256",
        "encoding": "dynamic_array",
        "label": "uint256[]",
        "numberOfBytes": "32"
      },
      "t_array(t_uint8)dyn_storage": {
        "base": "t_uint8",
        "encoding": "dynamic_array",
        "label": "uint8[]",
        "numberOfBytes": "32"
      },
      "t_bool": {
        "encoding": "inplace",
        "label": "bool",
        "numberOfBytes": "1"
      },
      "t_contract(CharInterface)3648": {
        "encoding": "inplace",
        "label": "contract CharInterface",
        "numberOfBytes": "20"
      },
      "t_contract(MapInterface)3794": {
        "encoding": "inplace",
        "label": "contract MapInterface",
        "numberOfBytes": "20"
      },
      "t_contract(RoomTileInterface)3634": {
        "encoding": "inplace",
        "label": "contract RoomTileInterface",
        "numberOfBytes": "20"
      },
      "t_contract(UtilsInterface)3701": {
        "encoding": "inplace",
        "label": "contract UtilsInterface",
        "numberOfBytes": "20"
      },
      "t_mapping(t_address,t_array(t_uint256)dyn_storage)": {
        "encoding": "mapping",
        "key": "t_address",
        "label": "mapping(address => uint256[])",
        "numberOfBytes": "32",
        "value": "t_array(t_uint256)dyn_storage"
      },
      "t_struct(EventTracker)6952_storage": {
        "encoding": "inplace",
        "label": "struct BCTypes.EventTracker",
        "members": [
          {
            "astId": 6945,
            "contract": "contracts/BCGames.sol:BCGames",
            "label": "bugEvents",
            "offset": 0,
            "slot": "0",
            "type": "t_uint8"
          },
          {
            "astId": 6947,
            "contract": "contracts/BCGames.sol:BCGames",
            "label": "mysteryEvents",
            "offset": 1,
            "slot": "0",
            "type": "t_uint8"
          },
          {
            "astId": 6949,
            "contract": "contracts/BCGames.sol:BCGames",
            "label": "scavEvents",
            "offset": 2,
            "slot": "0",
            "type": "t_uint8"
          },
          {
            "astId": 6951,
            "contract": "contracts/BCGames.sol:BCGames",
            "label": "shipEvents",
            "offset": 3,
            "slot": "0",
            "type": "t_uint8"
          }
        ],
        "numberOfBytes": "32"
      },
      "t_struct(Game)7028_storage": {
        "encoding": "inplace",
        "label": "struct BCTypes.Game",
        "members": [
          {
            "astId": 7011,
            "contract": "contracts/BCGames.sol:BCGames",
            "label": "active",
            "offset": 0,
            "slot": "0",
            "type": "t_bool"
          },
          {
            "astId": 7014,
            "contract": "contracts/BCGames.sol:BCGames",
            "label": "playerIndexes",
            "offset": 0,
            "slot": "1",
            "type": "t_array(t_uint256)dyn_storage"
          },
          {
            "astId": 7016,
            "contract": "contracts/BCGames.sol:BCGames",
            "label": "currentPlayerTurnIndex",
            "offset": 0,
            "slot": "2",
            "type": "t_uint256"
          },
          {
            "astId": 7018,
            "contract": "contracts/BCGames.sol:BCGames",
            "label": "numPlayers",
            "offset": 0,
            "slot": "3",
            "type": "t_uint256"
          },
          {
            "astId": 7020,
            "contract": "contracts/BCGames.sol:BCGames",
            "label": "turnsTaken",
            "offset": 0,
            "slot": "4",
            "type": "t_uint256"
          },
          {
            "astId": 7023,
            "contract": "contracts/BCGames.sol:BCGames",
            "label": "eventTracker",
            "offset": 0,
            "slot": "5",
            "type": "t_struct(EventTracker)6952_storage"
          },
          {
            "astId": 7025,
            "contract": "contracts/BCGames.sol:BCGames",
            "label": "mapContract",
            "offset": 0,
            "slot": "6",
            "type": "t_address"
          },
          {
            "astId": 7027,
            "contract": "contracts/BCGames.sol:BCGames",
            "label": "mapId",
            "offset": 0,
            "slot": "7",
            "type": "t_uint256"
          }
        ],
        "numberOfBytes": "256"
      },
      "t_struct(Player)6933_storage": {
        "encoding": "inplace",
        "label": "struct BCTypes.Player",
        "members": [
          {
            "astId": 6907,
            "contract": "contracts/BCGames.sol:BCGames",
            "label": "owner",
            "offset": 0,
            "slot": "0",
            "type": "t_address"
          },
          {
            "astId": 6909,
            "contract": "contracts/BCGames.sol:BCGames",
            "label": "charContractAddress",
            "offset": 0,
            "slot": "1",
            "type": "t_address"
          },
          {
            "astId": 6911,
            "contract": "contracts/BCGames.sol:BCGames",
            "label": "characterId",
            "offset": 0,
            "slot": "2",
            "type": "t_uint256"
          },
          {
            "astId": 6914,
            "contract": "contracts/BCGames.sol:BCGames",
            "label": "position",
            "offset": 0,
            "slot": "3",
            "type": "t_struct(Position)6957_storage"
          },
          {
            "astId": 6916,
            "contract": "contracts/BCGames.sol:BCGames",
            "label": "healthDmgTaken",
            "offset": 0,
            "slot": "4",
            "type": "t_uint8"
          },
          {
            "astId": 6918,
            "contract": "contracts/BCGames.sol:BCGames",
            "label": "armorDmgTaken",
            "offset": 1,
            "slot": "4",
            "type": "t_uint8"
          },
          {
            "astId": 6920,
            "contract": "contracts/BCGames.sol:BCGames",
            "label": "actionsTaken",
            "offset": 2,
            "slot": "4",
            "type": "t_uint8"
          },
          {
            "astId": 6922,
            "contract": "contracts/BCGames.sol:BCGames",
            "label": "dataTokens",
            "offset": 3,
            "slot": "4",
            "type": "t_uint8"
          },
          {
            "astId": 6925,
            "contract": "contracts/BCGames.sol:BCGames",
            "label": "currentEffects",
            "offset": 0,
            "slot": "5",
            "type": "t_array(t_uint8)dyn_storage"
          },
          {
            "astId": 6928,
            "contract": "contracts/BCGames.sol:BCGames",
            "label": "inventoryIDs",
            "offset": 0,
            "slot": "6",
            "type": "t_array(t_uint8)dyn_storage"
          },
          {
            "astId": 6930,
            "contract": "contracts/BCGames.sol:BCGames",
            "label": "canHarmOthers",
            "offset": 0,
            "slot": "7",
            "type": "t_bool"
          },
          {
            "astId": 6932,
            "contract": "contracts/BCGames.sol:BCGames",
            "label": "dead",
            "offset": 1,
            "slot": "7",
            "type": "t_bool"
          }
        ],
        "numberOfBytes": "256"
      },
      "t_struct(Position)6957_storage": {
        "encoding": "inplace",
        "label": "struct BCTypes.Position",
        "members": [
          {
            "astId": 6954,
            "contract": "contracts/BCGames.sol:BCGames",
            "label": "row",
            "offset": 0,
            "slot": "0",
            "type": "t_uint8"
          },
          {
            "astId": 6956,
            "contract": "contracts/BCGames.sol:BCGames",
            "label": "col",
            "offset": 1,
            "slot": "0",
            "type": "t_uint8"
          }
        ],
        "numberOfBytes": "32"
      },
      "t_uint256": {
        "encoding": "inplace",
        "label": "uint256",
        "numberOfBytes": "32"
      },
      "t_uint8": {
        "encoding": "inplace",
        "label": "uint8",
        "numberOfBytes": "1"
      }
    }
  }
}