{
  "address": "0xA200d3850Dd4215c87Aed391753C4aB269ba5c02",
  "abi": [
    {
      "inputs": [],
      "stateMutability": "nonpayable",
      "type": "constructor"
    },
    {
      "anonymous": false,
      "inputs": [
        {
          "indexed": false,
          "internalType": "uint256",
          "name": "gameId",
          "type": "uint256"
        },
        {
          "indexed": false,
          "internalType": "uint256",
          "name": "roll",
          "type": "uint256"
        },
        {
          "indexed": false,
          "internalType": "uint256",
          "name": "forValue",
          "type": "uint256"
        },
        {
          "indexed": false,
          "internalType": "uint256",
          "name": "against",
          "type": "uint256"
        }
      ],
      "name": "ChallengeEvent",
      "type": "event"
    },
    {
      "anonymous": false,
      "inputs": [
        {
          "indexed": false,
          "internalType": "uint256",
          "name": "gameId",
          "type": "uint256"
        },
        {
          "indexed": false,
          "internalType": "uint256",
          "name": "roll",
          "type": "uint256"
        }
      ],
      "name": "DiceRollEvent",
      "type": "event"
    },
    {
      "anonymous": false,
      "inputs": [
        {
          "indexed": true,
          "internalType": "address",
          "name": "previousOwner",
          "type": "address"
        },
        {
          "indexed": true,
          "internalType": "address",
          "name": "newOwner",
          "type": "address"
        }
      ],
      "name": "OwnershipTransferred",
      "type": "event"
    },
    {
      "inputs": [],
      "name": "StartLocation",
      "outputs": [
        {
          "internalType": "uint8",
          "name": "row",
          "type": "uint8"
        },
        {
          "internalType": "uint8",
          "name": "col",
          "type": "uint8"
        }
      ],
      "stateMutability": "view",
      "type": "function"
    },
    {
      "inputs": [
        {
          "internalType": "int256",
          "name": "x",
          "type": "int256"
        }
      ],
      "name": "abs",
      "outputs": [
        {
          "internalType": "int256",
          "name": "",
          "type": "int256"
        }
      ],
      "stateMutability": "pure",
      "type": "function"
    },
    {
      "inputs": [],
      "name": "actionsAddress",
      "outputs": [
        {
          "internalType": "address",
          "name": "",
          "type": "address"
        }
      ],
      "stateMutability": "view",
      "type": "function"
    },
    {
      "inputs": [
        {
          "internalType": "address",
          "name": "",
          "type": "address"
        },
        {
          "internalType": "uint256",
          "name": "",
          "type": "uint256"
        }
      ],
      "name": "addressToGame",
      "outputs": [
        {
          "internalType": "uint256",
          "name": "",
          "type": "uint256"
        }
      ],
      "stateMutability": "view",
      "type": "function"
    },
    {
      "inputs": [],
      "name": "bcEvents",
      "outputs": [
        {
          "internalType": "contract EventsInterface",
          "name": "",
          "type": "address"
        }
      ],
      "stateMutability": "view",
      "type": "function"
    },
    {
      "inputs": [],
      "name": "chars",
      "outputs": [
        {
          "internalType": "contract CharInterface",
          "name": "",
          "type": "address"
        }
      ],
      "stateMutability": "view",
      "type": "function"
    },
    {
      "inputs": [],
      "name": "charsAddress",
      "outputs": [
        {
          "internalType": "address",
          "name": "",
          "type": "address"
        }
      ],
      "stateMutability": "view",
      "type": "function"
    },
    {
      "inputs": [
        {
          "internalType": "uint256",
          "name": "_gameId",
          "type": "uint256"
        },
        {
          "components": [
            {
              "internalType": "uint8",
              "name": "row",
              "type": "uint8"
            },
            {
              "internalType": "uint8",
              "name": "col",
              "type": "uint8"
            }
          ],
          "internalType": "struct BCTypes.Position",
          "name": "_position",
          "type": "tuple"
        },
        {
          "internalType": "uint256",
          "name": "_playerId",
          "type": "uint256"
        },
        {
          "internalType": "uint256",
          "name": "_debugRoomId",
          "type": "uint256"
        }
      ],
      "name": "debugMovePlayer",
      "outputs": [],
      "stateMutability": "nonpayable",
      "type": "function"
    },
    {
      "inputs": [
        {
          "internalType": "uint256[]",
          "name": "_worldItemIds",
          "type": "uint256[]"
        }
      ],
      "name": "deleteWorldItems",
      "outputs": [],
      "stateMutability": "nonpayable",
      "type": "function"
    },
    {
      "inputs": [
        {
          "internalType": "uint256",
          "name": "_gameId",
          "type": "uint256"
        },
        {
          "internalType": "uint256",
          "name": "_playerId",
          "type": "uint256"
        },
        {
          "internalType": "bool",
          "name": "_free",
          "type": "bool"
        }
      ],
      "name": "endPlayerAction",
      "outputs": [],
      "stateMutability": "nonpayable",
      "type": "function"
    },
    {
      "inputs": [
        {
          "internalType": "uint256",
          "name": "_id",
          "type": "uint256"
        }
      ],
      "name": "extGetGame",
      "outputs": [
        {
          "components": [
            {
              "internalType": "bool",
              "name": "active",
              "type": "bool"
            },
            {
              "internalType": "uint256[]",
              "name": "playerIndexes",
              "type": "uint256[]"
            },
            {
              "internalType": "uint256",
              "name": "currentPlayerTurnIndex",
              "type": "uint256"
            },
            {
              "internalType": "uint256",
              "name": "numPlayers",
              "type": "uint256"
            },
            {
              "internalType": "uint256",
              "name": "turnsTaken",
              "type": "uint256"
            },
            {
              "components": [
                {
                  "internalType": "uint8",
                  "name": "bugEvents",
                  "type": "uint8"
                },
                {
                  "internalType": "uint8",
                  "name": "mysteryEvents",
                  "type": "uint8"
                },
                {
                  "internalType": "uint8",
                  "name": "scavEvents",
                  "type": "uint8"
                },
                {
                  "internalType": "uint8",
                  "name": "shipEvents",
                  "type": "uint8"
                }
              ],
              "internalType": "struct BCTypes.EventTracker",
              "name": "eventTracker",
              "type": "tuple"
            },
            {
              "internalType": "uint256",
              "name": "mapId",
              "type": "uint256"
            },
            {
              "internalType": "uint256",
              "name": "eventPlayerId",
              "type": "uint256"
            },
            {
              "internalType": "uint256",
              "name": "eventNumber",
              "type": "uint256"
            },
            {
              "internalType": "enum BCTypes.BCEventType",
              "name": "eventType",
              "type": "uint8"
            },
            {
              "components": [
                {
                  "internalType": "uint8",
                  "name": "row",
                  "type": "uint8"
                },
                {
                  "internalType": "uint8",
                  "name": "col",
                  "type": "uint8"
                }
              ],
              "internalType": "struct BCTypes.Position",
              "name": "eventPosition",
              "type": "tuple"
            },
            {
              "internalType": "uint256[]",
              "name": "unusedBugEvents",
              "type": "uint256[]"
            },
            {
              "internalType": "uint256[]",
              "name": "unusedMysteryEvents",
              "type": "uint256[]"
            },
            {
              "internalType": "uint256[]",
              "name": "unusedScavEvents",
              "type": "uint256[]"
            },
            {
              "internalType": "uint256[]",
              "name": "unusedShipEvents",
              "type": "uint256[]"
            },
            {
              "internalType": "uint256",
              "name": "turnTimeLimit",
              "type": "uint256"
            },
            {
              "internalType": "uint256",
              "name": "lastTurnTimestamp",
              "type": "uint256"
            },
            {
              "internalType": "uint256",
              "name": "DEBUG_returnAmount",
              "type": "uint256"
            }
          ],
          "internalType": "struct BCTypes.Game",
          "name": "",
          "type": "tuple"
        }
      ],
      "stateMutability": "view",
      "type": "function"
    },
    {
      "inputs": [
        {
          "internalType": "uint256",
          "name": "_gameId",
          "type": "uint256"
        }
      ],
      "name": "extGetGamePlayerIndexes",
      "outputs": [
        {
          "internalType": "uint256[]",
          "name": "",
          "type": "uint256[]"
        }
      ],
      "stateMutability": "view",
      "type": "function"
    },
    {
      "inputs": [
        {
          "internalType": "address",
          "name": "_playerAddress",
          "type": "address"
        }
      ],
      "name": "extGetGamesOfPlayer",
      "outputs": [
        {
          "internalType": "uint256[]",
          "name": "",
          "type": "uint256[]"
        }
      ],
      "stateMutability": "view",
      "type": "function"
    },
    {
      "inputs": [],
      "name": "extGetNumGames",
      "outputs": [
        {
          "internalType": "uint256",
          "name": "",
          "type": "uint256"
        }
      ],
      "stateMutability": "view",
      "type": "function"
    },
    {
      "inputs": [
        {
          "internalType": "uint256[]",
          "name": "_ids",
          "type": "uint256[]"
        }
      ],
      "name": "extGetWorldItems",
      "outputs": [
        {
          "components": [
            {
              "internalType": "uint256",
              "name": "id",
              "type": "uint256"
            },
            {
              "internalType": "uint256",
              "name": "gameId",
              "type": "uint256"
            },
            {
              "internalType": "uint256",
              "name": "bcItemId",
              "type": "uint256"
            },
            {
              "internalType": "enum BCTypes.WorldItemStatus",
              "name": "status",
              "type": "uint8"
            },
            {
              "components": [
                {
                  "internalType": "uint8",
                  "name": "row",
                  "type": "uint8"
                },
                {
                  "internalType": "uint8",
                  "name": "col",
                  "type": "uint8"
                }
              ],
              "internalType": "struct BCTypes.Position",
              "name": "position",
              "type": "tuple"
            }
          ],
          "internalType": "struct BCTypes.WorldItem[]",
          "name": "",
          "type": "tuple[]"
        }
      ],
      "stateMutability": "view",
      "type": "function"
    },
    {
      "inputs": [
        {
          "internalType": "uint256",
          "name": "_gameId",
          "type": "uint256"
        },
        {
          "components": [
            {
              "internalType": "uint8",
              "name": "row",
              "type": "uint8"
            },
            {
              "internalType": "uint8",
              "name": "col",
              "type": "uint8"
            }
          ],
          "internalType": "struct BCTypes.Position",
          "name": "_position",
          "type": "tuple"
        },
        {
          "internalType": "uint256",
          "name": "_playerId",
          "type": "uint256"
        }
      ],
      "name": "extMovePlayer",
      "outputs": [],
      "stateMutability": "nonpayable",
      "type": "function"
    },
    {
      "inputs": [
        {
          "internalType": "uint256",
          "name": "_gameId",
          "type": "uint256"
        }
      ],
      "name": "forceNextTurn",
      "outputs": [],
      "stateMutability": "nonpayable",
      "type": "function"
    },
    {
      "inputs": [
        {
          "internalType": "uint256",
          "name": "",
          "type": "uint256"
        },
        {
          "internalType": "uint256",
          "name": "",
          "type": "uint256"
        }
      ],
      "name": "gameIdToWorldItemIds",
      "outputs": [
        {
          "internalType": "uint256",
          "name": "",
          "type": "uint256"
        }
      ],
      "stateMutability": "view",
      "type": "function"
    },
    {
      "inputs": [
        {
          "internalType": "uint256",
          "name": "",
          "type": "uint256"
        }
      ],
      "name": "games",
      "outputs": [
        {
          "internalType": "bool",
          "name": "active",
          "type": "bool"
        },
        {
          "internalType": "uint256",
          "name": "currentPlayerTurnIndex",
          "type": "uint256"
        },
        {
          "internalType": "uint256",
          "name": "numPlayers",
          "type": "uint256"
        },
        {
          "internalType": "uint256",
          "name": "turnsTaken",
          "type": "uint256"
        },
        {
          "components": [
            {
              "internalType": "uint8",
              "name": "bugEvents",
              "type": "uint8"
            },
            {
              "internalType": "uint8",
              "name": "mysteryEvents",
              "type": "uint8"
            },
            {
              "internalType": "uint8",
              "name": "scavEvents",
              "type": "uint8"
            },
            {
              "internalType": "uint8",
              "name": "shipEvents",
              "type": "uint8"
            }
          ],
          "internalType": "struct BCTypes.EventTracker",
          "name": "eventTracker",
          "type": "tuple"
        },
        {
          "internalType": "uint256",
          "name": "mapId",
          "type": "uint256"
        },
        {
          "internalType": "uint256",
          "name": "eventPlayerId",
          "type": "uint256"
        },
        {
          "internalType": "uint256",
          "name": "eventNumber",
          "type": "uint256"
        },
        {
          "internalType": "enum BCTypes.BCEventType",
          "name": "eventType",
          "type": "uint8"
        },
        {
          "components": [
            {
              "internalType": "uint8",
              "name": "row",
              "type": "uint8"
            },
            {
              "internalType": "uint8",
              "name": "col",
              "type": "uint8"
            }
          ],
          "internalType": "struct BCTypes.Position",
          "name": "eventPosition",
          "type": "tuple"
        },
        {
          "internalType": "uint256",
          "name": "turnTimeLimit",
          "type": "uint256"
        },
        {
          "internalType": "uint256",
          "name": "lastTurnTimestamp",
          "type": "uint256"
        },
        {
          "internalType": "uint256",
          "name": "DEBUG_returnAmount",
          "type": "uint256"
        }
      ],
      "stateMutability": "view",
      "type": "function"
    },
    {
      "inputs": [
        {
          "components": [
            {
              "internalType": "uint8",
              "name": "row",
              "type": "uint8"
            },
            {
              "internalType": "uint8",
              "name": "col",
              "type": "uint8"
            }
          ],
          "internalType": "struct BCTypes.Position",
          "name": "_firstRoom",
          "type": "tuple"
        },
        {
          "components": [
            {
              "internalType": "uint8",
              "name": "row",
              "type": "uint8"
            },
            {
              "internalType": "uint8",
              "name": "col",
              "type": "uint8"
            }
          ],
          "internalType": "struct BCTypes.Position",
          "name": "_secondRoom",
          "type": "tuple"
        }
      ],
      "name": "getDirectionBetween",
      "outputs": [
        {
          "internalType": "uint256",
          "name": "",
          "type": "uint256"
        }
      ],
      "stateMutability": "pure",
      "type": "function"
    },
    {
      "inputs": [
        {
          "internalType": "uint256",
          "name": "_gameId",
          "type": "uint256"
        }
      ],
      "name": "getGameWorldItems",
      "outputs": [
        {
          "components": [
            {
              "internalType": "uint256",
              "name": "id",
              "type": "uint256"
            },
            {
              "internalType": "uint256",
              "name": "gameId",
              "type": "uint256"
            },
            {
              "internalType": "uint256",
              "name": "bcItemId",
              "type": "uint256"
            },
            {
              "internalType": "enum BCTypes.WorldItemStatus",
              "name": "status",
              "type": "uint8"
            },
            {
              "components": [
                {
                  "internalType": "uint8",
                  "name": "row",
                  "type": "uint8"
                },
                {
                  "internalType": "uint8",
                  "name": "col",
                  "type": "uint8"
                }
              ],
              "internalType": "struct BCTypes.Position",
              "name": "position",
              "type": "tuple"
            }
          ],
          "internalType": "struct BCTypes.WorldItem[]",
          "name": "",
          "type": "tuple[]"
        }
      ],
      "stateMutability": "view",
      "type": "function"
    },
    {
      "inputs": [
        {
          "internalType": "uint256",
          "name": "_direction",
          "type": "uint256"
        },
        {
          "components": [
            {
              "internalType": "uint8",
              "name": "row",
              "type": "uint8"
            },
            {
              "internalType": "uint8",
              "name": "col",
              "type": "uint8"
            }
          ],
          "internalType": "struct BCTypes.Position",
          "name": "_start",
          "type": "tuple"
        }
      ],
      "name": "getNeighborRoom",
      "outputs": [
        {
          "components": [
            {
              "internalType": "uint8",
              "name": "row",
              "type": "uint8"
            },
            {
              "internalType": "uint8",
              "name": "col",
              "type": "uint8"
            }
          ],
          "internalType": "struct BCTypes.Position",
          "name": "",
          "type": "tuple"
        }
      ],
      "stateMutability": "pure",
      "type": "function"
    },
    {
      "inputs": [
        {
          "internalType": "uint256",
          "name": "_traitNum",
          "type": "uint256"
        },
        {
          "internalType": "uint256",
          "name": "_subTraitNum",
          "type": "uint256"
        }
      ],
      "name": "getUIOffset",
      "outputs": [
        {
          "internalType": "uint256",
          "name": "",
          "type": "uint256"
        }
      ],
      "stateMutability": "pure",
      "type": "function"
    },
    {
      "inputs": [],
      "name": "items",
      "outputs": [
        {
          "internalType": "contract ItemsInterface",
          "name": "",
          "type": "address"
        }
      ],
      "stateMutability": "view",
      "type": "function"
    },
    {
      "inputs": [],
      "name": "lobbiesAddress",
      "outputs": [
        {
          "internalType": "address",
          "name": "",
          "type": "address"
        }
      ],
      "stateMutability": "view",
      "type": "function"
    },
    {
      "inputs": [],
      "name": "maps",
      "outputs": [
        {
          "internalType": "contract MapInterface",
          "name": "",
          "type": "address"
        }
      ],
      "stateMutability": "view",
      "type": "function"
    },
    {
      "inputs": [
        {
          "internalType": "uint256",
          "name": "_min",
          "type": "uint256"
        },
        {
          "internalType": "uint256",
          "name": "_max",
          "type": "uint256"
        },
        {
          "internalType": "uint256",
          "name": "_val",
          "type": "uint256"
        },
        {
          "internalType": "uint256",
          "name": "_valMax",
          "type": "uint256"
        }
      ],
      "name": "normalizeToSmallRange",
      "outputs": [
        {
          "internalType": "uint8",
          "name": "",
          "type": "uint8"
        }
      ],
      "stateMutability": "pure",
      "type": "function"
    },
    {
      "inputs": [
        {
          "internalType": "uint256",
          "name": "_direction",
          "type": "uint256"
        }
      ],
      "name": "opposite",
      "outputs": [
        {
          "internalType": "uint256",
          "name": "",
          "type": "uint256"
        }
      ],
      "stateMutability": "pure",
      "type": "function"
    },
    {
      "inputs": [],
      "name": "owner",
      "outputs": [
        {
          "internalType": "address",
          "name": "",
          "type": "address"
        }
      ],
      "stateMutability": "view",
      "type": "function"
    },
    {
      "inputs": [
        {
          "internalType": "uint256",
          "name": "_gameId",
          "type": "uint256"
        },
        {
          "internalType": "uint256[]",
          "name": "_itemIds",
          "type": "uint256[]"
        },
        {
          "internalType": "uint256",
          "name": "_row",
          "type": "uint256"
        },
        {
          "internalType": "uint256",
          "name": "_col",
          "type": "uint256"
        }
      ],
      "name": "placeWorldItems",
      "outputs": [],
      "stateMutability": "nonpayable",
      "type": "function"
    },
    {
      "inputs": [],
      "name": "players",
      "outputs": [
        {
          "internalType": "contract PlayersInterface",
          "name": "",
          "type": "address"
        }
      ],
      "stateMutability": "view",
      "type": "function"
    },
    {
      "inputs": [],
      "name": "randKeccak",
      "outputs": [
        {
          "internalType": "bytes32",
          "name": "",
          "type": "bytes32"
        }
      ],
      "stateMutability": "nonpayable",
      "type": "function"
    },
    {
      "inputs": [],
      "name": "renounceOwnership",
      "outputs": [],
      "stateMutability": "nonpayable",
      "type": "function"
    },
    {
      "inputs": [
        {
          "internalType": "uint256",
          "name": "_gameId",
          "type": "uint256"
        },
        {
          "internalType": "uint256",
          "name": "_for",
          "type": "uint256"
        },
        {
          "internalType": "uint256",
          "name": "_against",
          "type": "uint256"
        }
      ],
      "name": "resolveChallenge",
      "outputs": [
        {
          "internalType": "bool",
          "name": "",
          "type": "bool"
        }
      ],
      "stateMutability": "nonpayable",
      "type": "function"
    },
    {
      "inputs": [
        {
          "internalType": "uint256",
          "name": "_gameId",
          "type": "uint256"
        },
        {
          "internalType": "uint256",
          "name": "_choice",
          "type": "uint256"
        }
      ],
      "name": "resolveEvent",
      "outputs": [],
      "stateMutability": "nonpayable",
      "type": "function"
    },
    {
      "inputs": [
        {
          "internalType": "uint256",
          "name": "_gameId",
          "type": "uint256"
        }
      ],
      "name": "roll",
      "outputs": [
        {
          "internalType": "uint256",
          "name": "",
          "type": "uint256"
        }
      ],
      "stateMutability": "nonpayable",
      "type": "function"
    },
    {
      "inputs": [
        {
          "internalType": "address",
          "name": "_charAddress",
          "type": "address"
        },
        {
          "internalType": "address",
          "name": "_utilsAddress",
          "type": "address"
        },
        {
          "internalType": "address",
          "name": "_mapsAddress",
          "type": "address"
        },
        {
          "internalType": "address",
          "name": "_lobbiesAddress",
          "type": "address"
        },
        {
          "internalType": "address",
          "name": "_actionsAddress",
          "type": "address"
        },
        {
          "internalType": "address",
          "name": "_eventsAddress",
          "type": "address"
        },
        {
          "internalType": "address",
          "name": "_itemsAddress",
          "type": "address"
        },
        {
          "internalType": "address",
          "name": "_playersAddress",
          "type": "address"
        }
      ],
      "name": "setContractAddresses",
      "outputs": [],
      "stateMutability": "nonpayable",
      "type": "function"
    },
    {
      "inputs": [
        {
          "internalType": "bytes32",
          "name": "_hash",
          "type": "bytes32"
        },
        {
          "internalType": "uint256",
          "name": "_size",
          "type": "uint256"
        },
        {
          "internalType": "uint256",
          "name": "_offset",
          "type": "uint256"
        }
      ],
      "name": "sliceHashToSmallInt",
      "outputs": [
        {
          "internalType": "uint8",
          "name": "",
          "type": "uint8"
        }
      ],
      "stateMutability": "pure",
      "type": "function"
    },
    {
      "inputs": [
        {
          "internalType": "uint8",
          "name": "_min",
          "type": "uint8"
        },
        {
          "internalType": "uint8",
          "name": "_max",
          "type": "uint8"
        }
      ],
      "name": "smallIntBetweenVals",
      "outputs": [
        {
          "internalType": "uint8",
          "name": "",
          "type": "uint8"
        }
      ],
      "stateMutability": "nonpayable",
      "type": "function"
    },
    {
      "inputs": [
        {
          "internalType": "uint256[]",
          "name": "_playerIndexes",
          "type": "uint256[]"
        },
        {
          "internalType": "uint256",
          "name": "_numPlayers",
          "type": "uint256"
        },
        {
          "internalType": "uint256",
          "name": "_debugRoomId",
          "type": "uint256"
        }
      ],
      "name": "startGame",
      "outputs": [
        {
          "internalType": "uint256",
          "name": "",
          "type": "uint256"
        }
      ],
      "stateMutability": "nonpayable",
      "type": "function"
    },
    {
      "inputs": [
        {
          "internalType": "address",
          "name": "newOwner",
          "type": "address"
        }
      ],
      "name": "transferOwnership",
      "outputs": [],
      "stateMutability": "nonpayable",
      "type": "function"
    },
    {
      "inputs": [
        {
          "internalType": "uint256",
          "name": "",
          "type": "uint256"
        }
      ],
      "name": "worldItems",
      "outputs": [
        {
          "internalType": "uint256",
          "name": "id",
          "type": "uint256"
        },
        {
          "internalType": "uint256",
          "name": "gameId",
          "type": "uint256"
        },
        {
          "internalType": "uint256",
          "name": "bcItemId",
          "type": "uint256"
        },
        {
          "internalType": "enum BCTypes.WorldItemStatus",
          "name": "status",
          "type": "uint8"
        },
        {
          "components": [
            {
              "internalType": "uint8",
              "name": "row",
              "type": "uint8"
            },
            {
              "internalType": "uint8",
              "name": "col",
              "type": "uint8"
            }
          ],
          "internalType": "struct BCTypes.Position",
          "name": "position",
          "type": "tuple"
        }
      ],
      "stateMutability": "view",
      "type": "function"
    }
  ],
  "transactionHash": "0x0e980de63d2b272e4b5212cd23e6c6fadd12c7f86cf328e8594130a5d7d52f2a",
  "args": [],
  "numDeployments": 2,
  "solcInputHash": "7fa2662d47aa996f50a478880944955c",
  "bytecode": "0x600060015560c0604052600a6080819052600660a052805461ffff191661060a1790553480156200002f57600080fd5b506200003b3362000041565b62000091565b600080546001600160a01b038381166001600160a01b0319831681178455604051919092169283917f8be0079c531659141344cd1fd0a4f28419497f9722a3daafe3b4186f6b6457e09190a35050565b61425f80620000a16000396000f3fe608060405234801561001057600080fd5b506004361061025e5760003560e01c80638214f22211610146578063a99d2a8b116100c3578063dc0b356411610087578063dc0b35641461059d578063dc769ee8146105b0578063e67d0e79146105e0578063f101de9a146105f3578063f2fde38b14610606578063fa3993c21461061957600080fd5b8063a99d2a8b1461053e578063aa6e803014610551578063afd62bb214610564578063c06fad0614610577578063ce28613f1461058a57600080fd5b8063921d27991161010a578063921d2799146104d2578063951fc3fe146104e557806397f34c3f146105055780639bda278a146105185780639fca1ee11461052b57600080fd5b80638214f222146104645780638bf52bc3146104775780638ccaedfb1461048a5780638d4723ee1461049d5780638da5cb5b146104c157600080fd5b806340d4fd78116101df57806364db84bf116101a357806364db84bf146103f057806364f66467146104035780636fe99c1814610416578063715018a6146104365780637b45c0d41461043e5780637ddae1031461045157600080fd5b806340d4fd781461036d57806346f2434b1461038d578063530116961461039557806354731422146103ba5780635dc96967146103cd57600080fd5b80631b5ac4b5116102265780631b5ac4b51461030b5780631e1de2051461032c5780631f7b4f3014610334578063336d7d7b146103475780633deaec2b1461035a57600080fd5b806305892ff6146102635780630d8354681461028c57806310a2cd0d146102a1578063117a5b90146102cc57806317514225146102f8575b600080fd5b6102766102713660046131f4565b61062c565b6040516102839190613292565b60405180910390f35b61029f61029a36600461343c565b61078e565b005b6002546102b4906001600160a01b031681565b6040516001600160a01b039091168152602001610283565b6102df6102da366004613492565b61089d565b6040516102839d9c9b9a999897969594939291906134bb565b61029f6103063660046135bc565b61096d565b61031e610319366004613492565b6109f3565b604051908152602001610283565b61031e610a0f565b61031e610342366004613492565b610a87565b6007546102b4906001600160a01b031681565b6003546102b4906001600160a01b031681565b61038061037b366004613492565b610ae3565b604051610283919061362d565b600b5461031e565b6103a86103a3366004613640565b610bd4565b60405160ff9091168152602001610283565b61029f6103c8366004613492565b610c11565b6103e06103db366004613672565b610cde565b6040519015158152602001610283565b61031e6103fe36600461369e565b610d7b565b61029f61041136600461369e565b610d93565b610429610424366004613492565b610fe7565b60405161028391906136c0565b61029f6112e8565b6009546102b4906001600160a01b031681565b6004546102b4906001600160a01b031681565b61031e610472366004613492565b6112fc565b61029f610485366004613863565b611376565b610276610498366004613492565b6113ce565b6104b06104ab366004613492565b611549565b60405161028395949392919061389f565b6000546001600160a01b03166102b4565b61029f6104e03660046138f7565b6115ae565b6104f86104f33660046139a0565b611636565b60405161028391906139cd565b6103a8610513366004613672565b611760565b61029f6105263660046131f4565b61178b565b6008546102b4906001600160a01b031681565b61031e61054c3660046139eb565b61185b565b61029f61055f366004613a25565b61188c565b610380610572366004613a5e565b6119c3565b6005546102b4906001600160a01b031681565b6103a8610598366004613a7b565b611a93565b6006546102b4906001600160a01b031681565b600a546105c69060ff8082169161010090041682565b6040805160ff938416815292909116602083015201610283565b61031e6105ee36600461369e565b611b43565b61031e610601366004613ab4565b611b5f565b61029f610614366004613a5e565b611fb7565b61031e610627366004613b01565b612030565b60606000826001600160401b038111156106485761064861331e565b60405190808252806020026020018201604052801561068157816020015b61066e613064565b8152602001906001900390816106665790505b50905060005b8381101561078457600c8585838181106106a3576106a3613b2d565b90506020020135815481106106ba576106ba613b2d565b90600052602060002090600502016040518060a00160405290816000820154815260200160018201548152602001600282015481526020016003820160009054906101000a900460ff16600381111561071557610715613268565b600381111561072657610726613268565b8152604080518082019091526004929092015460ff8082168452610100909104166020838101919091520152825183908390811061076657610766613b2d565b6020026020010181905250808061077c90613b59565b915050610687565b5090505b92915050565b60005b835181101561089657600c8054600181810180845560009390935260059091027fdf6966c971051c3d54ec59162606531493a51404a002842f56009d7e5cf4a8c701916107de9190613b72565b81556001810186905584518590839081106107fb576107fb613b2d565b602090810291909101015160028201556003810180546001919060ff19168280021790555060408051808201825260ff868116808352908616602092830181905260048501805461ffff19169092176101009091021790556000888152600d90915220600c5461086d90600190613b72565b81546001810183556000928352602090922090910155508061088e81613b59565b915050610791565b5050505050565b600b81815481106108ad57600080fd5b6000918252602091829020601290910201805460028201546003830154600484015460408051608081018252600587015460ff81811683526101008083048216848c0152620100008304821684860152630100000090920481166060840152600689015460078a015460088b015460098c01548751808901909852600a8d015480861689529590950484169c87019c909c52600f8b015460108c01546011909c01549a84169d50989b979a9699949891979096909593909216939091908d565b6009546001600160a01b031633148061099057506006546001600160a01b031633145b6109e15760405162461bcd60e51b815260206004820152601c60248201527f4e6f7420616374696f6e732f706c617965727320636f6e74726163740000000060448201526064015b60405180910390fd5b6109ee83838360006120f8565b505050565b600080821215610a0b57610a0682613b85565b610788565b5090565b6001805460009182610a2083613b59565b9190505550600154600143610a359190613b72565b4033604051602001610a6c93929190928352602083019190915260601b6bffffffffffffffffffffffff1916604082015260540190565b60405160208183030381529060405280519060200120905090565b600080610a9660016006611a93565b60ff1690507ffe34d093a460a16ee5fb374540914d1c734a17502c0c1a87b387c8d6097e1c518382604051610ad5929190918252602082015260400190565b60405180910390a192915050565b60606000600b8381548110610afa57610afa613b2d565b9060005260206000209060120201600101805490506001600160401b03811115610b2657610b2661331e565b604051908082528060200260200182016040528015610b4f578160200160208202803683370190505b50905060005b8151811015610bcd57600b8481548110610b7157610b71613b2d565b90600052602060002090601202016001018181548110610b9357610b93613b2d565b9060005260206000200154828281518110610bb057610bb0613b2d565b602090810291909101015280610bc581613b59565b915050610b55565b5092915050565b600080610be18686613b72565b9050600083610bf08684613ba1565b610bfa9190613bce565b9050610c068782613be2565b979650505050505050565b6000600b8281548110610c2657610c26613b2d565b9060005260206000209060120201905080600f01548160100154610c4a9190613be2565b4211610c985760405162461bcd60e51b815260206004820152601760248201527f5374696c6c2077697468696e2074696d65206c696d697400000000000000000060448201526064016109d8565b600881015415610cad57610cad8260006129e0565b610cda8282600101836002015481548110610cca57610cca613b2d565b9060005260206000200154612aac565b5050565b600080610cea85610a87565b6040805187815260208101839052908101869052606081018590529091507f75b6a8325595f91135e07382840634226793c68c9e59623da7e10d7ad3d95b959060800160405180910390a180600103610d47576000915050610d74565b600383610d548684613be2565b610d5e9190613bf5565b1315610d6e576001915050610d74565b60009150505b9392505050565b600081610d89846004613ba1565b610d749190613be2565b6000600b8381548110610da857610da8613b2d565b90600052602060002090601202019050610de46040518060400160405280600a81526020016936b9b39739b2b73232b960b11b81525033612b88565b610e7d6040518060600160405280603281526020016141f8603291396006546007840154604051636621a42160e01b81526001600160a01b0390921691636621a42191610e379160040190815260200190565b602060405180830381865afa158015610e54573d6000803e3d6000fd5b505050506040513d601f19601f82011682018060405250810190610e789190613c15565b612b88565b610eb86040518060400160405280601581526020017432bb32b73a23b0b6b29732bb32b73a273ab6b132b960591b8152508260080154612bcd565b6040805180820190915260138152726576656e7447616d652e6576656e745479706560681b60208201526009820154610f05919060ff166005811115610f0057610f00613268565b612bcd565b6006546007820154604051636621a42160e01b81526001600160a01b0390921691636621a42191610f3c9160040190815260200190565b602060405180830381865afa158015610f59573d6000803e3d6000fd5b505050506040513d601f19601f82011682018060405250810190610f7d9190613c15565b6001600160a01b0316336001600160a01b031614610fdd5760405162461bcd60e51b815260206004820152601960248201527f4576656e74206e6f7420666f7220796f757220706c617965720000000000000060448201526064016109d8565b6109ee83836129e0565b610fef6130c4565b600b828154811061100257611002613b2d565b600091825260209182902060408051610240810182526012909302909101805460ff161515835260018101805483518187028101870190945280845293949193858301939283018282801561107657602002820191906000526020600020905b815481526020019060010190808311611062575b505050918352505060028201546020808301919091526003830154604080840191909152600484015460608085019190915281516080818101845260058088015460ff808216855261010080830482169886019890985262010000820481169685019690965263010000009004851693830193909352850152600685015460a0850152600785015460c0850152600885015460e08501526009850154929093019291169081111561112957611129613268565b600581111561113a5761113a613268565b8152604080518082018252600a84015460ff80821683526101009091041660208281019190915280840191909152600b840180548351818402810184018552818152939094019390918301828280156111b257602002820191906000526020600020905b81548152602001906001019080831161119e575b50505050508152602001600c820180548060200260200160405190810160405280929190818152602001828054801561120a57602002820191906000526020600020905b8154815260200190600101908083116111f6575b50505050508152602001600d820180548060200260200160405190810160405280929190818152602001828054801561126257602002820191906000526020600020905b81548152602001906001019080831161124e575b50505050508152602001600e82018054806020026020016040519081016040528092919081815260200182805480156112ba57602002820191906000526020600020905b8154815260200190600101908083116112a6575b50505050508152602001600f8201548152602001601082015481526020016011820154815250509050919050565b6112f0612c12565b6112fa6000612c6c565b565b60008160000361130e57506001919050565b8160010361131e57506000919050565b8160020361132e57506003919050565b8160030361133e57506002919050565b60405162461bcd60e51b815260206004820152600d60248201526c2130b2103234b932b1ba34b7b760991b60448201526064016109d8565b6000546001600160a01b031633146113bc5760405162461bcd60e51b81526020600482015260096024820152682737ba1037bbb732b960b91b60448201526064016109d8565b6113c8848484846120f8565b50505050565b6000818152600d6020526040812054606091906001600160401b038111156113f8576113f861331e565b60405190808252806020026020018201604052801561143157816020015b61141e613064565b8152602001906001900390816114165790505b50905060005b8151811015610bcd576000848152600d602052604090208054600c91908390811061146457611464613b2d565b90600052602060002001548154811061147f5761147f613b2d565b90600052602060002090600502016040518060a00160405290816000820154815260200160018201548152602001600282015481526020016003820160009054906101000a900460ff1660038111156114da576114da613268565b60038111156114eb576114eb613268565b8152604080518082019091526004929092015460ff8082168452610100909104166020838101919091520152825183908390811061152b5761152b613b2d565b6020026020010181905250808061154190613b59565b915050611437565b600c818154811061155957600080fd5b600091825260209182902060059091020180546001820154600283015460038401546040805180820190915260049095015460ff81811687526101009091048116968601969096529295509093909291169085565b6115b6612c12565b600280546001600160a01b03199081166001600160a01b039a8b1617909155600380548216978a169790971790965560078054871695891695909517909455600980548616938816939093179092556004805485169187169190911790556005805484169186169190911790556006805490921693169290921790915550565b6040805180820190915260008082526020820152826000036116885760405180604001604052806001846000015161166e9190613c32565b60ff168152602001836020015160ff168152509050610788565b826001036116ac5760405180604001604052808360000151600161166e9190613c4b565b826002036116e9576040518060400160405280836000015160ff168152602001836020015160016116dd9190613c4b565b60ff1690529050610788565b8260030361171a576040518060400160405280836000015160ff168152602001600184602001516116dd9190613c32565b600061172584612cbc565b6040516020016117359190613c88565b60405160208183030381529060405290508060405162461bcd60e51b81526004016109d89190613cef565b600080826001611771866002613de6565b61177b9190613b72565b901b8516831c9150509392505050565b6005546001600160a01b031633146117da5760405162461bcd60e51b8152602060048201526012602482015271139bdd081a5d195b5cc818dbdb9d1c9858dd60721b60448201526064016109d8565b60005b818110156109ee57600c8383838181106117f9576117f9613b2d565b905060200201358154811061181057611810613b2d565b60009182526020822060059091020181815560018101829055600281019190915560038101805460ff19169055600401805461ffff191690558061185381613b59565b9150506117dd565b600e602052816000526040600020818154811061187757600080fd5b90600052602060002001600091509150505481565b6009546001600160a01b031633146118dd5760405162461bcd60e51b8152602060048201526014602482015273139bdd081858dd1a5bdb9cc818dbdb9d1c9858dd60621b60448201526064016109d8565b806119415760065460405163ce93229760e01b8152600481018490526001600160a01b039091169063ce93229790602401600060405180830381600087803b15801561192857600080fd5b505af115801561193c573d6000803e3d6000fd5b505050505b6006546040516347d0e3c960e01b8152600481018490526000916001600160a01b0316906347d0e3c990602401602060405180830381865afa15801561198b573d6000803e3d6000fd5b505050506040513d601f19601f820116820180604052508101906119af9190613df2565b9050600381106113c8576113c88484612aac565b6001600160a01b0381166000908152600e6020526040812054606091906001600160401b038111156119f7576119f761331e565b604051908082528060200260200182016040528015611a20578160200160208202803683370190505b50905060005b8151811015610bcd576001600160a01b0384166000908152600e60205260409020805482908110611a5957611a59613b2d565b9060005260206000200154828281518110611a7657611a76613b2d565b602090810291909101015280611a8b81613b59565b915050611a26565b6001805460009182611aa483613b59565b9190505550600033600154600143611abc9190613b72565b60405160609390931b6bffffffffffffffffffffffff19166020840152603483019190915240605482015260740160408051601f19818403018152919052805160209091012090506000611b108585613c32565b611b1b906001613c4b565b90508460ff168160ff1683611b309190613e0b565b611b3a9190613be2565b95945050505050565b600d602052816000526040600020818154811061187757600080fd5b6007546000906001600160a01b03163314611bb15760405162461bcd60e51b8152602060048201526012602482015271139bdd081b1bd8989e4818dbdb9d1c9858dd60721b60448201526064016109d8565b600b80546001808201835560009283527f0175b7a638427703f0dbe7bb9bbf987a2551717b34e79f33b5b1008d1fa01db96012909202918201805460ff191690911781557f0175b7a638427703f0dbe7bb9bbf987a2551717b34e79f33b5b1008d1fa01dbd8201929092558551611c4f917f0175b7a638427703f0dbe7bb9bbf987a2551717b34e79f33b5b1008d1fa01dba0190602088019061319d565b50600381018490556040805160808101825260008082526020820181905291810182905260600181905260058201805463ffffffff19169055839003611d1257600360009054906101000a90046001600160a01b03166001600160a01b031663f01fc35a6040518163ffffffff1660e01b81526004016020604051808303816000875af1158015611ce4573d6000803e3d6000fd5b505050506040513d601f19601f82011682018060405250810190611d089190613df2565b6006820155611d87565b60035460405163148e052f60e21b8152600481018590526001600160a01b039091169063523814bc906024016020604051808303816000875af1158015611d5d573d6000803e3d6000fd5b505050506040513d601f19601f82011682018060405250810190611d819190613df2565b60068201555b60005b611d95600186613b72565b8111611ed457600682015460408051808201909152600a5460ff8082168352610100909104166020820152600184018054611def9392919085908110611ddd57611ddd613b2d565b906000526020600020015460006120f8565b60065486516000916001600160a01b031690636621a42190899085908110611e1957611e19613b2d565b60200260200101516040518263ffffffff1660e01b8152600401611e3f91815260200190565b602060405180830381865afa158015611e5c573d6000803e3d6000fd5b505050506040513d601f19601f82011682018060405250810190611e809190613c15565b6001600160a01b0381166000908152600e60205260409020600b5491925090611eab90600190613b72565b815460018101835560009283526020909220909101555080611ecc81613b59565b915050611d8a565b506000604051806101e00160405280600181526020016002815260200160038152602001600481526020016005815260200160068152602001600781526020016008815260200160098152602001600a8152602001600b8152602001600c8152602001600d8152602001600e8152602001600f81525090508082600b0190600f611f5f92919061319d565b50611f6f600c830182600f61319d565b50611f7f600d830182600f61319d565b50611f8f600e830182600f61319d565b5061012c600f830155426010830155600b54611fad90600190613b72565b9695505050505050565b611fbf612c12565b6001600160a01b0381166120245760405162461bcd60e51b815260206004820152602660248201527f4f776e61626c653a206e6577206f776e657220697320746865207a65726f206160448201526564647265737360d01b60648201526084016109d8565b61202d81612c6c565b50565b8051825160009161204091613e1f565b60000b60010361205257506000610788565b815183516120609190613e1f565b60000b1961207057506001610788565b816020015183602001516120849190613e1f565b60000b1961209457506002610788565b816020015183602001516120a89190613e1f565b60000b6001036120ba57506003610788565b60405162461bcd60e51b8152602060048201526013602482015272115c9c9bdc8e88139bdd0818591a9858d95b9d606a1b60448201526064016109d8565b600654600b80546001600160a01b0390921691638d491b3e9186918691908990811061212657612126613b2d565b9060005260206000209060120201600601546040518463ffffffff1660e01b815260040161215693929190613e40565b6020604051808303816000875af1158015612175573d6000803e3d6000fd5b505050506040513d601f19601f820116820180604052508101906121999190613e7f565b6113c857600354600b80546000926001600160a01b0316916381bad36d91889081106121c7576121c7613b2d565b90600052602060002090601202016006015486600001518760200151866040518563ffffffff1660e01b815260040161221d949392919093845260ff928316602085015291166040830152606082015260800190565b6020604051808303816000875af115801561223c573d6000803e3d6000fd5b505050506040513d601f19601f820116820180604052508101906122609190613df2565b600354600b80549293506000926001600160a01b0390921691635805828391908990811061229057612290613b2d565b906000526020600020906012020160060154846040518363ffffffff1660e01b81526004016122c9929190918252602082015260400190565b60a060405180830381865afa1580156122e6573d6000803e3d6000fd5b505050506040513d601f19601f8201168201806040525081019061230a9190613ea7565b905060028211801561232f575060008151600581111561232c5761232c613268565b14155b156129d85760018151600581111561234957612349613268565b0361239c57600b868154811061236157612361613b2d565b600091825260208220600560129092020101805460ff169161238283613f39565b91906101000a81548160ff021916908360ff160217905550505b6002815160058111156123b1576123b1613268565b0361240c57600b86815481106123c9576123c9613b2d565b600091825260209091206012909102016005018054610100900460ff169060016123f283613f39565b91906101000a81548160ff021916908360ff160217905550505b60038151600581111561242157612421613268565b0361247d57600b868154811061243957612439613b2d565b60009182526020909120601290910201600501805462010000900460ff1690600261246383613f39565b91906101000a81548160ff021916908360ff160217905550505b60048151600581111561249257612492613268565b036124ef57600b86815481106124aa576124aa613b2d565b6000918252602090912060129091020160050180546301000000900460ff169060036124d583613f39565b91906101000a81548160ff021916908360ff160217905550505b60208101511561266e5760048054602083015160405163c82c37b960e01b8152928301526000916001600160a01b039091169063c82c37b990602401600060405180830381865afa158015612548573d6000803e3d6000fd5b505050506040513d6000823e601f3d908101601f191682016040526125709190810190613fe5565b905080602001516126685784600b888154811061258f5761258f613b2d565b9060005260206000209060120201600701819055508160200151600b88815481106125bc576125bc613b2d565b9060005260206000209060120201600801819055506005600b88815481106125e6576125e6613b2d565b60009182526020909120600960129092020101805460ff1916600183600581111561261357612613613268565b021790555085600b888154811061262c5761262c613b2d565b60009182526020918290208351600a6012909302909101919091018054939092015160ff9081166101000261ffff199094169116179190911790555b506129d8565b60008151600581111561268357612683613268565b146129d85783600b878154811061269c5761269c613b2d565b90600052602060002090601202016007018190555084600b87815481106126c5576126c5613b2d565b60009182526020918290208351600a6012909302909101919091018054939092015160ff9081166101000261ffff1990941691161791909117905560018151600581111561271557612715613268565b036127b657612746600b878154811061273057612730613b2d565b9060005260206000209060120201600b01612dc4565b600b878154811061275957612759613b2d565b9060005260206000209060120201600801819055506001600b878154811061278357612783613b2d565b60009182526020909120600960129092020101805460ff191660018360058111156127b0576127b0613268565b02179055505b6002815160058111156127cb576127cb613268565b0361286c576127fc600b87815481106127e6576127e6613b2d565b9060005260206000209060120201600c01612dc4565b600b878154811061280f5761280f613b2d565b9060005260206000209060120201600801819055506002600b878154811061283957612839613b2d565b60009182526020909120600960129092020101805460ff1916600183600581111561286657612866613268565b02179055505b60038151600581111561288157612881613268565b03612922576128b2600b878154811061289c5761289c613b2d565b9060005260206000209060120201600d01612dc4565b600b87815481106128c5576128c5613b2d565b9060005260206000209060120201600801819055506003600b87815481106128ef576128ef613b2d565b60009182526020909120600960129092020101805460ff1916600183600581111561291c5761291c613268565b02179055505b60048151600581111561293757612937613268565b036129d857612968600b878154811061295257612952613b2d565b9060005260206000209060120201600e01612dc4565b600b878154811061297b5761297b613b2d565b9060005260206000209060120201600801819055506004600b87815481106129a5576129a5613b2d565b60009182526020909120600960129092020101805460ff191660018360058111156129d2576129d2613268565b02179055505b505050505050565b6000600b83815481106129f5576129f5613b2d565b6000918252602090912060068054601290930290910160078101549181015460088201546009830154604051636d291bbb60e01b81529396506001600160a01b0390951694636d291bbb94612a5d94899491938b93600a8b019260ff909116906004016140d6565b600060405180830381600087803b158015612a7757600080fd5b505af1158015612a8b573d6000803e3d6000fd5b505060006007840181905560088401555050600901805460ff191690555050565b6000600b8381548110612ac157612ac1613b2d565b6000918252602090912060065460405163065c363f60e41b815260048101869052601290930290910192506001600160a01b0316906365c363f090602401600060405180830381600087803b158015612b1957600080fd5b505af1158015612b2d573d6000803e3d6000fd5b50504260108401555050600180820154612b479190613b72565b81600201541015612b6e57600281018054906000612b6483613b59565b9190505550505050565b612b7c838260060154612eea565b60006002820155505050565b610cda8282604051602401612b9e92919061412b565b60408051601f198184030181529190526020810180516001600160e01b031663319af33360e01b179052613043565b610cda8282604051602401612be3929190614155565b60408051601f198184030181529190526020810180516001600160e01b03166309710a9d60e41b179052613043565b6000546001600160a01b031633146112fa5760405162461bcd60e51b815260206004820181905260248201527f4f776e61626c653a2063616c6c6572206973206e6f7420746865206f776e657260448201526064016109d8565b600080546001600160a01b038381166001600160a01b0319831681178455604051919092169283917f8be0079c531659141344cd1fd0a4f28419497f9722a3daafe3b4186f6b6457e09190a35050565b606081600003612ce35750506040805180820190915260018152600360fc1b602082015290565b8160005b8115612d0d5780612cf781613b59565b9150612d069050600a83613bce565b9150612ce7565b6000816001600160401b03811115612d2757612d2761331e565b6040519080825280601f01601f191660200182016040528015612d51576020820181803683370190505b5090505b8415612dbc57612d66600183613b72565b9150612d73600a86613e0b565b612d7e906030613be2565b60f81b818381518110612d9357612d93613b2d565b60200101906001600160f81b031916908160001a905350612db5600a86613bce565b9450612d55565b949350505050565b80546000908190612dd790600190613b72565b90505b8015612e87576000612ded600083611a93565b9050838160ff1681548110612e0457612e04613b2d565b9060005260206000200154848381548110612e2157612e21613b2d565b9060005260206000200154858481548110612e3e57612e3e613b2d565b906000526020600020016000878560ff1681548110612e5f57612e5f613b2d565b6000918252602090912001929092559190915550819050612e7f81614177565b915050612dda565b5081546000908390612e9b90600190613b72565b81548110612eab57612eab613b2d565b9060005260206000200154905082805480612ec857612ec861418e565b600190038181906000526020600020016000905590558060ff16915050919050565b6000600b8381548110612eff57612eff613b2d565b60009182526020909120600354604051630b06115560e31b815260048101869052601290930290910192506001600160a01b0316906358308aa890602401600060405180830381600087803b158015612f5757600080fd5b505af1158015612f6b573d6000803e3d6000fd5b505060035460405163c6b41b4560e01b815260048101869052600160248201526001600160a01b03909116925063c6b41b459150604401600060405180830381600087803b158015612fbc57600080fd5b505af1158015612fd0573d6000803e3d6000fd5b5050600680549084015460405163668a7f3b60e01b81526001600160a01b03909216935063668a7f3b925061300c9160018601906004016141a4565b600060405180830381600087803b15801561302657600080fd5b505af115801561303a573d6000803e3d6000fd5b50505050505050565b80516a636f6e736f6c652e6c6f67602083016000808483855afa5050505050565b6040518060a001604052806000815260200160008152602001600081526020016000600381111561309757613097613268565b81526020016130bf6040518060400160405280600060ff168152602001600060ff1681525090565b905290565b60408051610240810182526000808252606060208084018290528385018390528184018390526080808501849052855190810186528381529081018390529384018290528301529060a082019081526020016000815260200160008152602001600081526020016000600581111561313e5761313e613268565b81526020016131666040518060400160405280600060ff168152602001600060ff1681525090565b8152602001606081526020016060815260200160608152602001606081526020016000815260200160008152602001600081525090565b8280548282559060005260206000209081019282156131d8579160200282015b828111156131d85782518255916020019190600101906131bd565b50610a0b9291505b80821115610a0b57600081556001016131e0565b6000806020838503121561320757600080fd5b82356001600160401b038082111561321e57600080fd5b818501915085601f83011261323257600080fd5b81358181111561324157600080fd5b8660208260051b850101111561325657600080fd5b60209290920196919550909350505050565b634e487b7160e01b600052602160045260246000fd5b6004811061328e5761328e613268565b9052565b602080825282518282018190526000919060409081850190868401855b8281101561331157815180518552868101518786015285810151868601526060808201516132df8288018261327e565b5050608090810151805160ff90811692870192909252602001511660a085015260c090930192908501906001016132af565b5091979650505050505050565b634e487b7160e01b600052604160045260246000fd5b604080519081016001600160401b03811182821017156133565761335661331e565b60405290565b60405160e081016001600160401b03811182821017156133565761335661331e565b604051601f8201601f191681016001600160401b03811182821017156133a6576133a661331e565b604052919050565b60006001600160401b038211156133c7576133c761331e565b5060051b60200190565b600082601f8301126133e257600080fd5b813560206133f76133f2836133ae565b61337e565b82815260059290921b8401810191818101908684111561341657600080fd5b8286015b84811015613431578035835291830191830161341a565b509695505050505050565b6000806000806080858703121561345257600080fd5b8435935060208501356001600160401b0381111561346f57600080fd5b61347b878288016133d1565b949794965050505060408301359260600135919050565b6000602082840312156134a457600080fd5b5035919050565b6006811061328e5761328e613268565b8d1515815260208082018e905260408083018e905260608084018e90528c5160ff9081166080860152928d0151831660a0850152908c0151821660c08401528b01511660e0820152610220810189610100830152886101208301528761014083015261352b6101608301886134ab565b855160ff9081166101808401526020870151166101a0830152846101c0830152836101e0830152826102008301529e9d5050505050505050505050505050565b60ff8116811461202d57600080fd5b60006040828403121561358c57600080fd5b613594613334565b905081356135a18161356b565b815260208201356135b18161356b565b602082015292915050565b6000806000608084860312156135d157600080fd5b833592506135e2856020860161357a565b9150606084013590509250925092565b600081518084526020808501945080840160005b8381101561362257815187529582019590820190600101613606565b509495945050505050565b602081526000610d7460208301846135f2565b6000806000806080858703121561365657600080fd5b5050823594602084013594506040840135936060013592509050565b60008060006060848603121561368757600080fd5b505081359360208301359350604090920135919050565b600080604083850312156136b157600080fd5b50508035926020909101359150565b602081526136d360208201835115159052565b600060208301516102c08060408501526136f16102e08501836135f2565b91506040850151606085015260608501516080850152608085015160a085015260a085015161375060c086018260ff815116825260ff602082015116602083015260ff604082015116604083015260ff60608201511660608301525050565b5060c0850151610140818187015260e0870151915061016082818801526101008801519250610180838189015261012089015193506101a0613794818a01866134ab565b9289015193506101c0926137ba89850186805160ff908116835260209182015116910152565b828a01519450601f199250610200838a890301818b01526137db88876135f2565b9750828b015195506102209250838a890301838b01526137fb88876135f2565b9750818b01519550838a8903016102408b015261381888876135f2565b9750848b01519550838a8903016102608b015261383588876135f2565b6101e08c01516102808c0152908b01516102a08b015291909901519490970193909352509395945050505050565b60008060008060a0858703121561387957600080fd5b8435935061388a866020870161357a565b93969395505050506060820135916080013590565b858152602081018590526040810184905260c081016138c1606083018561327e565b825160ff908116608084015260208401511660a08301529695505050505050565b6001600160a01b038116811461202d57600080fd5b600080600080600080600080610100898b03121561391457600080fd5b883561391f816138e2565b9750602089013561392f816138e2565b9650604089013561393f816138e2565b9550606089013561394f816138e2565b9450608089013561395f816138e2565b935060a089013561396f816138e2565b925060c089013561397f816138e2565b915060e089013561398f816138e2565b809150509295985092959890939650565b600080606083850312156139b357600080fd5b823591506139c4846020850161357a565b90509250929050565b604081016107888284805160ff908116835260209182015116910152565b600080604083850312156139fe57600080fd5b8235613a09816138e2565b946020939093013593505050565b801515811461202d57600080fd5b600080600060608486031215613a3a57600080fd5b83359250602084013591506040840135613a5381613a17565b809150509250925092565b600060208284031215613a7057600080fd5b8135610d74816138e2565b60008060408385031215613a8e57600080fd5b8235613a998161356b565b91506020830135613aa98161356b565b809150509250929050565b600080600060608486031215613ac957600080fd5b83356001600160401b03811115613adf57600080fd5b613aeb868287016133d1565b9660208601359650604090950135949350505050565b60008060808385031215613b1457600080fd5b613b1e848461357a565b91506139c4846040850161357a565b634e487b7160e01b600052603260045260246000fd5b634e487b7160e01b600052601160045260246000fd5b600060018201613b6b57613b6b613b43565b5060010190565b8181038181111561078857610788613b43565b6000600160ff1b8201613b9a57613b9a613b43565b5060000390565b808202811582820484141761078857610788613b43565b634e487b7160e01b600052601260045260246000fd5b600082613bdd57613bdd613bb8565b500490565b8082018082111561078857610788613b43565b8181036000831280158383131683831282161715610bcd57610bcd613b43565b600060208284031215613c2757600080fd5b8151610d74816138e2565b60ff828116828216039081111561078857610788613b43565b60ff818116838216019081111561078857610788613b43565b60005b83811015613c7f578181015183820152602001613c67565b50506000910152565b72024b73b30b634b2103234b932b1ba34b7b71d1606d1b815260008251613cb6816013850160208701613c64565b9190910160130192915050565b60008151808452613cdb816020860160208601613c64565b601f01601f19169290920160200192915050565b602081526000610d746020830184613cc3565b600181815b80851115613d3d578160001904821115613d2357613d23613b43565b80851615613d3057918102915b93841c9390800290613d07565b509250929050565b600082613d5457506001610788565b81613d6157506000610788565b8160018114613d775760028114613d8157613d9d565b6001915050610788565b60ff841115613d9257613d92613b43565b50506001821b610788565b5060208310610133831016604e8410600b8410161715613dc0575081810a610788565b613dca8383613d02565b8060001904821115613dde57613dde613b43565b029392505050565b6000610d748383613d45565b600060208284031215613e0457600080fd5b5051919050565b600082613e1a57613e1a613bb8565b500690565b600082810b9082900b03607f198112607f8213171561078857610788613b43565b60808101613e5e8286805160ff908116835260209182015116910152565b604082019390935260600152919050565b8051613e7a81613a17565b919050565b600060208284031215613e9157600080fd5b8151610d7481613a17565b8051613e7a8161356b565b600060a08284031215613eb957600080fd5b60405160a081018181106001600160401b0382111715613edb57613edb61331e565b604052825160068110613eed57600080fd5b8152602083810151908201526040830151613f078161356b565b60408201526060830151613f1a8161356b565b60608201526080830151613f2d81613a17565b60808201529392505050565b600060ff821660ff8103613f4f57613f4f613b43565b60010192915050565b600082601f830112613f6957600080fd5b81516020613f796133f2836133ae565b82815260069290921b84018101918181019086841115613f9857600080fd5b8286015b848110156134315760408189031215613fb55760008081fd5b613fbd613334565b815160178110613fcd5760008081fd5b81528185015185820152835291830191604001613f9c565b600060208284031215613ff757600080fd5b81516001600160401b038082111561400e57600080fd5b9083019060e0828603121561402257600080fd5b61402a61335c565b8251815261403a60208401613e6f565b602082015261404b60408401613e9c565b604082015261405c60608401613e9c565b606082015260808301518281111561407357600080fd5b61407f87828601613f58565b60808301525060a08301518281111561409757600080fd5b6140a387828601613f58565b60a08301525060c0830151828111156140bb57600080fd5b6140c787828601613f58565b60c08301525095945050505050565b600061010082019050888252876020830152866040830152856060830152845460ff8116608084015260ff8160081c1660a0840152508360c083015261411f60e08301846134ab565b98975050505050505050565b60408152600061413e6040830185613cc3565b905060018060a01b03831660208301529392505050565b6040815260006141686040830185613cc3565b90508260208301529392505050565b60008161418657614186613b43565b506000190190565b634e487b7160e01b600052603160045260246000fd5b60006040820184835260206040818501528185548084526060860191508660005282600020935060005b818110156141ea578454835260019485019492840192016141ce565b509097965050505050505056fe706c61796572732e657874476574506c617965724f776e6572286576656e7447616d652e6576656e74506c61796572496429a2646970667358221220ce38b7d4fd74b8dec8f4a9c17b6d861eefc04d2123774ee9a26589585205b97464736f6c63430008110033",
  "devdoc": {
    "kind": "dev",
    "methods": {
      "owner()": {
        "details": "Returns the address of the current owner."
      },
      "renounceOwnership()": {
        "details": "Leaves the contract without owner. It will not be possible to call `onlyOwner` functions anymore. Can only be called by the current owner. NOTE: Renouncing ownership will leave the contract without an owner, thereby removing any functionality that is only available to the owner."
      },
      "transferOwnership(address)": {
        "details": "Transfers ownership of the contract to a new account (`newOwner`). Can only be called by the current owner."
      }
    },
    "version": 1
  },
  "userdoc": {
    "kind": "user",
    "methods": {},
    "version": 1
  },
  "storageLayout": {
    "storage": [
      {
        "astId": 7,
        "contract": "contracts/BCGames.sol:BCGames",
        "label": "_owner",
        "offset": 0,
        "slot": "0",
        "type": "t_address"
      },
      {
        "astId": 16252,
        "contract": "contracts/BCGames.sol:BCGames",
        "label": "TODO_randomSeed",
        "offset": 0,
        "slot": "1",
        "type": "t_uint256"
      },
      {
        "astId": 9245,
        "contract": "contracts/BCGames.sol:BCGames",
        "label": "chars",
        "offset": 0,
        "slot": "2",
        "type": "t_contract(CharInterface)9039"
      },
      {
        "astId": 9248,
        "contract": "contracts/BCGames.sol:BCGames",
        "label": "maps",
        "offset": 0,
        "slot": "3",
        "type": "t_contract(MapInterface)9152"
      },
      {
        "astId": 9251,
        "contract": "contracts/BCGames.sol:BCGames",
        "label": "bcEvents",
        "offset": 0,
        "slot": "4",
        "type": "t_contract(EventsInterface)9025"
      },
      {
        "astId": 9254,
        "contract": "contracts/BCGames.sol:BCGames",
        "label": "items",
        "offset": 0,
        "slot": "5",
        "type": "t_contract(ItemsInterface)9166"
      },
      {
        "astId": 9257,
        "contract": "contracts/BCGames.sol:BCGames",
        "label": "players",
        "offset": 0,
        "slot": "6",
        "type": "t_contract(PlayersInterface)9238"
      },
      {
        "astId": 9259,
        "contract": "contracts/BCGames.sol:BCGames",
        "label": "lobbiesAddress",
        "offset": 0,
        "slot": "7",
        "type": "t_address"
      },
      {
        "astId": 9261,
        "contract": "contracts/BCGames.sol:BCGames",
        "label": "charsAddress",
        "offset": 0,
        "slot": "8",
        "type": "t_address"
      },
      {
        "astId": 9263,
        "contract": "contracts/BCGames.sol:BCGames",
        "label": "actionsAddress",
        "offset": 0,
        "slot": "9",
        "type": "t_address"
      },
      {
        "astId": 9337,
        "contract": "contracts/BCGames.sol:BCGames",
        "label": "StartLocation",
        "offset": 0,
        "slot": "10",
        "type": "t_struct(Position)16047_storage"
      },
      {
        "astId": 9341,
        "contract": "contracts/BCGames.sol:BCGames",
        "label": "games",
        "offset": 0,
        "slot": "11",
        "type": "t_array(t_struct(Game)16142_storage)dyn_storage"
      },
      {
        "astId": 9345,
        "contract": "contracts/BCGames.sol:BCGames",
        "label": "worldItems",
        "offset": 0,
        "slot": "12",
        "type": "t_array(t_struct(WorldItem)16033_storage)dyn_storage"
      },
      {
        "astId": 9350,
        "contract": "contracts/BCGames.sol:BCGames",
        "label": "gameIdToWorldItemIds",
        "offset": 0,
        "slot": "13",
        "type": "t_mapping(t_uint256,t_array(t_uint256)dyn_storage)"
      },
      {
        "astId": 9355,
        "contract": "contracts/BCGames.sol:BCGames",
        "label": "addressToGame",
        "offset": 0,
        "slot": "14",
        "type": "t_mapping(t_address,t_array(t_uint256)dyn_storage)"
      }
    ],
    "types": {
      "t_address": {
        "encoding": "inplace",
        "label": "address",
        "numberOfBytes": "20"
      },
      "t_array(t_struct(Game)16142_storage)dyn_storage": {
        "base": "t_struct(Game)16142_storage",
        "encoding": "dynamic_array",
        "label": "struct BCTypes.Game[]",
        "numberOfBytes": "32"
      },
      "t_array(t_struct(WorldItem)16033_storage)dyn_storage": {
        "base": "t_struct(WorldItem)16033_storage",
        "encoding": "dynamic_array",
        "label": "struct BCTypes.WorldItem[]",
        "numberOfBytes": "32"
      },
      "t_array(t_uint256)dyn_storage": {
        "base": "t_uint256",
        "encoding": "dynamic_array",
        "label": "uint256[]",
        "numberOfBytes": "32"
      },
      "t_bool": {
        "encoding": "inplace",
        "label": "bool",
        "numberOfBytes": "1"
      },
      "t_contract(CharInterface)9039": {
        "encoding": "inplace",
        "label": "contract CharInterface",
        "numberOfBytes": "20"
      },
      "t_contract(EventsInterface)9025": {
        "encoding": "inplace",
        "label": "contract EventsInterface",
        "numberOfBytes": "20"
      },
      "t_contract(ItemsInterface)9166": {
        "encoding": "inplace",
        "label": "contract ItemsInterface",
        "numberOfBytes": "20"
      },
      "t_contract(MapInterface)9152": {
        "encoding": "inplace",
        "label": "contract MapInterface",
        "numberOfBytes": "20"
      },
      "t_contract(PlayersInterface)9238": {
        "encoding": "inplace",
        "label": "contract PlayersInterface",
        "numberOfBytes": "20"
      },
      "t_enum(BCEventType)15967": {
        "encoding": "inplace",
        "label": "enum BCTypes.BCEventType",
        "numberOfBytes": "1"
      },
      "t_enum(WorldItemStatus)15972": {
        "encoding": "inplace",
        "label": "enum BCTypes.WorldItemStatus",
        "numberOfBytes": "1"
      },
      "t_mapping(t_address,t_array(t_uint256)dyn_storage)": {
        "encoding": "mapping",
        "key": "t_address",
        "label": "mapping(address => uint256[])",
        "numberOfBytes": "32",
        "value": "t_array(t_uint256)dyn_storage"
      },
      "t_mapping(t_uint256,t_array(t_uint256)dyn_storage)": {
        "encoding": "mapping",
        "key": "t_uint256",
        "label": "mapping(uint256 => uint256[])",
        "numberOfBytes": "32",
        "value": "t_array(t_uint256)dyn_storage"
      },
      "t_struct(EventTracker)16042_storage": {
        "encoding": "inplace",
        "label": "struct BCTypes.EventTracker",
        "members": [
          {
            "astId": 16035,
            "contract": "contracts/BCGames.sol:BCGames",
            "label": "bugEvents",
            "offset": 0,
            "slot": "0",
            "type": "t_uint8"
          },
          {
            "astId": 16037,
            "contract": "contracts/BCGames.sol:BCGames",
            "label": "mysteryEvents",
            "offset": 1,
            "slot": "0",
            "type": "t_uint8"
          },
          {
            "astId": 16039,
            "contract": "contracts/BCGames.sol:BCGames",
            "label": "scavEvents",
            "offset": 2,
            "slot": "0",
            "type": "t_uint8"
          },
          {
            "astId": 16041,
            "contract": "contracts/BCGames.sol:BCGames",
            "label": "shipEvents",
            "offset": 3,
            "slot": "0",
            "type": "t_uint8"
          }
        ],
        "numberOfBytes": "32"
      },
      "t_struct(Game)16142_storage": {
        "encoding": "inplace",
        "label": "struct BCTypes.Game",
        "members": [
          {
            "astId": 16099,
            "contract": "contracts/BCGames.sol:BCGames",
            "label": "active",
            "offset": 0,
            "slot": "0",
            "type": "t_bool"
          },
          {
            "astId": 16102,
            "contract": "contracts/BCGames.sol:BCGames",
            "label": "playerIndexes",
            "offset": 0,
            "slot": "1",
            "type": "t_array(t_uint256)dyn_storage"
          },
          {
            "astId": 16104,
            "contract": "contracts/BCGames.sol:BCGames",
            "label": "currentPlayerTurnIndex",
            "offset": 0,
            "slot": "2",
            "type": "t_uint256"
          },
          {
            "astId": 16106,
            "contract": "contracts/BCGames.sol:BCGames",
            "label": "numPlayers",
            "offset": 0,
            "slot": "3",
            "type": "t_uint256"
          },
          {
            "astId": 16108,
            "contract": "contracts/BCGames.sol:BCGames",
            "label": "turnsTaken",
            "offset": 0,
            "slot": "4",
            "type": "t_uint256"
          },
          {
            "astId": 16111,
            "contract": "contracts/BCGames.sol:BCGames",
            "label": "eventTracker",
            "offset": 0,
            "slot": "5",
            "type": "t_struct(EventTracker)16042_storage"
          },
          {
            "astId": 16113,
            "contract": "contracts/BCGames.sol:BCGames",
            "label": "mapId",
            "offset": 0,
            "slot": "6",
            "type": "t_uint256"
          },
          {
            "astId": 16115,
            "contract": "contracts/BCGames.sol:BCGames",
            "label": "eventPlayerId",
            "offset": 0,
            "slot": "7",
            "type": "t_uint256"
          },
          {
            "astId": 16117,
            "contract": "contracts/BCGames.sol:BCGames",
            "label": "eventNumber",
            "offset": 0,
            "slot": "8",
            "type": "t_uint256"
          },
          {
            "astId": 16120,
            "contract": "contracts/BCGames.sol:BCGames",
            "label": "eventType",
            "offset": 0,
            "slot": "9",
            "type": "t_enum(BCEventType)15967"
          },
          {
            "astId": 16123,
            "contract": "contracts/BCGames.sol:BCGames",
            "label": "eventPosition",
            "offset": 0,
            "slot": "10",
            "type": "t_struct(Position)16047_storage"
          },
          {
            "astId": 16126,
            "contract": "contracts/BCGames.sol:BCGames",
            "label": "unusedBugEvents",
            "offset": 0,
            "slot": "11",
            "type": "t_array(t_uint256)dyn_storage"
          },
          {
            "astId": 16129,
            "contract": "contracts/BCGames.sol:BCGames",
            "label": "unusedMysteryEvents",
            "offset": 0,
            "slot": "12",
            "type": "t_array(t_uint256)dyn_storage"
          },
          {
            "astId": 16132,
            "contract": "contracts/BCGames.sol:BCGames",
            "label": "unusedScavEvents",
            "offset": 0,
            "slot": "13",
            "type": "t_array(t_uint256)dyn_storage"
          },
          {
            "astId": 16135,
            "contract": "contracts/BCGames.sol:BCGames",
            "label": "unusedShipEvents",
            "offset": 0,
            "slot": "14",
            "type": "t_array(t_uint256)dyn_storage"
          },
          {
            "astId": 16137,
            "contract": "contracts/BCGames.sol:BCGames",
            "label": "turnTimeLimit",
            "offset": 0,
            "slot": "15",
            "type": "t_uint256"
          },
          {
            "astId": 16139,
            "contract": "contracts/BCGames.sol:BCGames",
            "label": "lastTurnTimestamp",
            "offset": 0,
            "slot": "16",
            "type": "t_uint256"
          },
          {
            "astId": 16141,
            "contract": "contracts/BCGames.sol:BCGames",
            "label": "DEBUG_returnAmount",
            "offset": 0,
            "slot": "17",
            "type": "t_uint256"
          }
        ],
        "numberOfBytes": "576"
      },
      "t_struct(Position)16047_storage": {
        "encoding": "inplace",
        "label": "struct BCTypes.Position",
        "members": [
          {
            "astId": 16044,
            "contract": "contracts/BCGames.sol:BCGames",
            "label": "row",
            "offset": 0,
            "slot": "0",
            "type": "t_uint8"
          },
          {
            "astId": 16046,
            "contract": "contracts/BCGames.sol:BCGames",
            "label": "col",
            "offset": 1,
            "slot": "0",
            "type": "t_uint8"
          }
        ],
        "numberOfBytes": "32"
      },
      "t_struct(WorldItem)16033_storage": {
        "encoding": "inplace",
        "label": "struct BCTypes.WorldItem",
        "members": [
          {
            "astId": 16022,
            "contract": "contracts/BCGames.sol:BCGames",
            "label": "id",
            "offset": 0,
            "slot": "0",
            "type": "t_uint256"
          },
          {
            "astId": 16024,
            "contract": "contracts/BCGames.sol:BCGames",
            "label": "gameId",
            "offset": 0,
            "slot": "1",
            "type": "t_uint256"
          },
          {
            "astId": 16026,
            "contract": "contracts/BCGames.sol:BCGames",
            "label": "bcItemId",
            "offset": 0,
            "slot": "2",
            "type": "t_uint256"
          },
          {
            "astId": 16029,
            "contract": "contracts/BCGames.sol:BCGames",
            "label": "status",
            "offset": 0,
            "slot": "3",
            "type": "t_enum(WorldItemStatus)15972"
          },
          {
            "astId": 16032,
            "contract": "contracts/BCGames.sol:BCGames",
            "label": "position",
            "offset": 0,
            "slot": "4",
            "type": "t_struct(Position)16047_storage"
          }
        ],
        "numberOfBytes": "160"
      },
      "t_uint256": {
        "encoding": "inplace",
        "label": "uint256",
        "numberOfBytes": "32"
      },
      "t_uint8": {
        "encoding": "inplace",
        "label": "uint8",
        "numberOfBytes": "1"
      }
    }
  }
}