{
  "address": "0x4eCe1754A8F8166630ce21eB56F841e0EE6572A1",
  "abi": [
    {
      "inputs": [],
      "stateMutability": "nonpayable",
      "type": "constructor"
    },
    {
      "inputs": [],
      "name": "CantForceDenizenTurn",
      "type": "error"
    },
    {
      "inputs": [],
      "name": "CantForceSinglePlayer",
      "type": "error"
    },
    {
      "inputs": [
        {
          "internalType": "uint256",
          "name": "",
          "type": "uint256"
        }
      ],
      "name": "EventNotForPlayer",
      "type": "error"
    },
    {
      "inputs": [],
      "name": "GamesExpectedActions",
      "type": "error"
    },
    {
      "inputs": [],
      "name": "GamesExpectedLobbies",
      "type": "error"
    },
    {
      "inputs": [],
      "name": "GamesExpectedPlayers",
      "type": "error"
    },
    {
      "inputs": [
        {
          "internalType": "uint256",
          "name": "",
          "type": "uint256"
        },
        {
          "internalType": "uint256",
          "name": "",
          "type": "uint256"
        }
      ],
      "name": "PlayerNotInGame",
      "type": "error"
    },
    {
      "inputs": [],
      "name": "StillWithinTimeLimit",
      "type": "error"
    },
    {
      "anonymous": false,
      "inputs": [
        {
          "indexed": false,
          "internalType": "uint256",
          "name": "gameId",
          "type": "uint256"
        }
      ],
      "name": "DenizenTurnOver",
      "type": "event"
    },
    {
      "anonymous": false,
      "inputs": [
        {
          "indexed": true,
          "internalType": "address",
          "name": "previousOwner",
          "type": "address"
        },
        {
          "indexed": true,
          "internalType": "address",
          "name": "newOwner",
          "type": "address"
        }
      ],
      "name": "OwnershipTransferred",
      "type": "event"
    },
    {
      "inputs": [],
      "name": "actions",
      "outputs": [
        {
          "internalType": "contract ActionsInterface",
          "name": "",
          "type": "address"
        }
      ],
      "stateMutability": "view",
      "type": "function"
    },
    {
      "inputs": [
        {
          "internalType": "uint256",
          "name": "_gameId",
          "type": "uint256"
        },
        {
          "internalType": "enum BCTypes.DenizenType",
          "name": "_type",
          "type": "uint8"
        },
        {
          "internalType": "uint256",
          "name": "_row",
          "type": "uint256"
        },
        {
          "internalType": "uint256",
          "name": "_col",
          "type": "uint256"
        }
      ],
      "name": "addDenizen",
      "outputs": [],
      "stateMutability": "nonpayable",
      "type": "function"
    },
    {
      "inputs": [
        {
          "internalType": "address",
          "name": "",
          "type": "address"
        },
        {
          "internalType": "uint256",
          "name": "",
          "type": "uint256"
        }
      ],
      "name": "addressToGame",
      "outputs": [
        {
          "internalType": "uint256",
          "name": "",
          "type": "uint256"
        }
      ],
      "stateMutability": "view",
      "type": "function"
    },
    {
      "inputs": [],
      "name": "bcEvents",
      "outputs": [
        {
          "internalType": "contract EventsInterface",
          "name": "",
          "type": "address"
        }
      ],
      "stateMutability": "view",
      "type": "function"
    },
    {
      "inputs": [],
      "name": "chars",
      "outputs": [
        {
          "internalType": "contract CharInterface",
          "name": "",
          "type": "address"
        }
      ],
      "stateMutability": "view",
      "type": "function"
    },
    {
      "inputs": [],
      "name": "charsAddress",
      "outputs": [
        {
          "internalType": "address",
          "name": "",
          "type": "address"
        }
      ],
      "stateMutability": "view",
      "type": "function"
    },
    {
      "inputs": [
        {
          "internalType": "uint256",
          "name": "_gameId",
          "type": "uint256"
        },
        {
          "components": [
            {
              "internalType": "uint8",
              "name": "row",
              "type": "uint8"
            },
            {
              "internalType": "uint8",
              "name": "col",
              "type": "uint8"
            }
          ],
          "internalType": "struct BCTypes.Position",
          "name": "_position",
          "type": "tuple"
        },
        {
          "internalType": "uint256",
          "name": "_playerId",
          "type": "uint256"
        },
        {
          "internalType": "uint256",
          "name": "_debugRoomId",
          "type": "uint256"
        }
      ],
      "name": "debugMovePlayer",
      "outputs": [],
      "stateMutability": "nonpayable",
      "type": "function"
    },
    {
      "inputs": [],
      "name": "denizens",
      "outputs": [
        {
          "internalType": "contract DenizensInterface",
          "name": "",
          "type": "address"
        }
      ],
      "stateMutability": "view",
      "type": "function"
    },
    {
      "inputs": [
        {
          "internalType": "uint256",
          "name": "_gameId",
          "type": "uint256"
        },
        {
          "internalType": "uint256",
          "name": "_playerId",
          "type": "uint256"
        },
        {
          "internalType": "bool",
          "name": "_free",
          "type": "bool"
        }
      ],
      "name": "endPlayerAction",
      "outputs": [],
      "stateMutability": "nonpayable",
      "type": "function"
    },
    {
      "inputs": [
        {
          "internalType": "uint256",
          "name": "_gameId",
          "type": "uint256"
        }
      ],
      "name": "extGetCharsInGame",
      "outputs": [
        {
          "components": [
            {
              "internalType": "bytes32",
              "name": "genHash",
              "type": "bytes32"
            },
            {
              "internalType": "uint256",
              "name": "id",
              "type": "uint256"
            },
            {
              "internalType": "uint256",
              "name": "uifID",
              "type": "uint256"
            },
            {
              "components": [
                {
                  "internalType": "int8",
                  "name": "health",
                  "type": "int8"
                },
                {
                  "internalType": "int8",
                  "name": "carry",
                  "type": "int8"
                },
                {
                  "internalType": "int8",
                  "name": "defense",
                  "type": "int8"
                },
                {
                  "internalType": "int8",
                  "name": "hack",
                  "type": "int8"
                },
                {
                  "internalType": "int8",
                  "name": "breach",
                  "type": "int8"
                },
                {
                  "internalType": "int8",
                  "name": "shoot",
                  "type": "int8"
                },
                {
                  "internalType": "int8",
                  "name": "melee",
                  "type": "int8"
                },
                {
                  "internalType": "bool",
                  "name": "hasGun",
                  "type": "bool"
                }
              ],
              "internalType": "struct BCTypes.Traits",
              "name": "traits",
              "type": "tuple"
            },
            {
              "internalType": "uint8",
              "name": "cloneNumber",
              "type": "uint8"
            },
            {
              "internalType": "uint8",
              "name": "maxClones",
              "type": "uint8"
            },
            {
              "internalType": "uint8",
              "name": "ability",
              "type": "uint8"
            },
            {
              "internalType": "uint8",
              "name": "flaw",
              "type": "uint8"
            },
            {
              "internalType": "bool",
              "name": "inGame",
              "type": "bool"
            },
            {
              "internalType": "uint256",
              "name": "gameId",
              "type": "uint256"
            }
          ],
          "internalType": "struct BCTypes.Character[]",
          "name": "",
          "type": "tuple[]"
        }
      ],
      "stateMutability": "view",
      "type": "function"
    },
    {
      "inputs": [
        {
          "internalType": "uint256",
          "name": "_gameId",
          "type": "uint256"
        }
      ],
      "name": "extGetFullGameState",
      "outputs": [
        {
          "components": [
            {
              "components": [
                {
                  "internalType": "bool",
                  "name": "active",
                  "type": "bool"
                },
                {
                  "internalType": "bool",
                  "name": "denizenTurn",
                  "type": "bool"
                },
                {
                  "internalType": "uint256",
                  "name": "gameId",
                  "type": "uint256"
                },
                {
                  "internalType": "uint256[]",
                  "name": "playerIndexes",
                  "type": "uint256[]"
                },
                {
                  "internalType": "uint256[]",
                  "name": "charIds",
                  "type": "uint256[]"
                },
                {
                  "internalType": "uint256",
                  "name": "currentPlayerTurnIndex",
                  "type": "uint256"
                },
                {
                  "internalType": "uint256",
                  "name": "numPlayers",
                  "type": "uint256"
                },
                {
                  "internalType": "uint256",
                  "name": "turnsTaken",
                  "type": "uint256"
                },
                {
                  "components": [
                    {
                      "internalType": "uint8",
                      "name": "bugEvents",
                      "type": "uint8"
                    },
                    {
                      "internalType": "uint8",
                      "name": "mysteryEvents",
                      "type": "uint8"
                    },
                    {
                      "internalType": "uint8",
                      "name": "scavEvents",
                      "type": "uint8"
                    },
                    {
                      "internalType": "uint8",
                      "name": "shipEvents",
                      "type": "uint8"
                    }
                  ],
                  "internalType": "struct BCTypes.EventTracker",
                  "name": "eventTracker",
                  "type": "tuple"
                },
                {
                  "internalType": "uint256",
                  "name": "mapId",
                  "type": "uint256"
                },
                {
                  "internalType": "uint256",
                  "name": "eventPlayerId",
                  "type": "uint256"
                },
                {
                  "internalType": "uint256",
                  "name": "eventNumber",
                  "type": "uint256"
                },
                {
                  "internalType": "enum BCTypes.BCEventType",
                  "name": "eventType",
                  "type": "uint8"
                },
                {
                  "components": [
                    {
                      "internalType": "uint8",
                      "name": "row",
                      "type": "uint8"
                    },
                    {
                      "internalType": "uint8",
                      "name": "col",
                      "type": "uint8"
                    }
                  ],
                  "internalType": "struct BCTypes.Position",
                  "name": "eventPosition",
                  "type": "tuple"
                },
                {
                  "internalType": "uint256[]",
                  "name": "unusedBugEvents",
                  "type": "uint256[]"
                },
                {
                  "internalType": "uint256[]",
                  "name": "unusedMysteryEvents",
                  "type": "uint256[]"
                },
                {
                  "internalType": "uint256[]",
                  "name": "unusedScavEvents",
                  "type": "uint256[]"
                },
                {
                  "internalType": "uint256[]",
                  "name": "unusedShipEvents",
                  "type": "uint256[]"
                },
                {
                  "internalType": "uint256",
                  "name": "turnTimeLimit",
                  "type": "uint256"
                },
                {
                  "internalType": "uint256",
                  "name": "lastTurnTimestamp",
                  "type": "uint256"
                },
                {
                  "internalType": "uint256[]",
                  "name": "denizenIds",
                  "type": "uint256[]"
                }
              ],
              "internalType": "struct BCTypes.Game",
              "name": "game",
              "type": "tuple"
            },
            {
              "components": [
                {
                  "internalType": "uint8",
                  "name": "roomId",
                  "type": "uint8"
                },
                {
                  "internalType": "uint8",
                  "name": "parentId",
                  "type": "uint8"
                },
                {
                  "internalType": "uint256[4]",
                  "name": "doors",
                  "type": "uint256[4]"
                },
                {
                  "internalType": "bool",
                  "name": "explored",
                  "type": "bool"
                },
                {
                  "internalType": "bool",
                  "name": "looted",
                  "type": "bool"
                },
                {
                  "internalType": "bool",
                  "name": "hasVent",
                  "type": "bool"
                },
                {
                  "internalType": "bool",
                  "name": "hasHazard",
                  "type": "bool"
                }
              ],
              "internalType": "struct BCTypes.GameTile[][]",
              "name": "board",
              "type": "tuple[][]"
            },
            {
              "components": [
                {
                  "internalType": "uint8",
                  "name": "vsBreach",
                  "type": "uint8"
                },
                {
                  "internalType": "uint8",
                  "name": "vsHack",
                  "type": "uint8"
                },
                {
                  "internalType": "enum BCTypes.DoorStatus",
                  "name": "status",
                  "type": "uint8"
                }
              ],
              "internalType": "struct BCTypes.Door[]",
              "name": "doors",
              "type": "tuple[]"
            },
            {
              "components": [
                {
                  "internalType": "enum BCTypes.BCEventType",
                  "name": "eventType",
                  "type": "uint8"
                },
                {
                  "internalType": "uint256",
                  "name": "eventNum",
                  "type": "uint256"
                },
                {
                  "internalType": "uint8",
                  "name": "numItems",
                  "type": "uint8"
                },
                {
                  "internalType": "uint8",
                  "name": "numData",
                  "type": "uint8"
                },
                {
                  "internalType": "bool",
                  "name": "sigDetected",
                  "type": "bool"
                }
              ],
              "internalType": "struct BCTypes.RoomTile[]",
              "name": "roomTiles",
              "type": "tuple[]"
            },
            {
              "components": [
                {
                  "internalType": "bytes32",
                  "name": "genHash",
                  "type": "bytes32"
                },
                {
                  "internalType": "uint256",
                  "name": "id",
                  "type": "uint256"
                },
                {
                  "internalType": "uint256",
                  "name": "uifID",
                  "type": "uint256"
                },
                {
                  "components": [
                    {
                      "internalType": "int8",
                      "name": "health",
                      "type": "int8"
                    },
                    {
                      "internalType": "int8",
                      "name": "carry",
                      "type": "int8"
                    },
                    {
                      "internalType": "int8",
                      "name": "defense",
                      "type": "int8"
                    },
                    {
                      "internalType": "int8",
                      "name": "hack",
                      "type": "int8"
                    },
                    {
                      "internalType": "int8",
                      "name": "breach",
                      "type": "int8"
                    },
                    {
                      "internalType": "int8",
                      "name": "shoot",
                      "type": "int8"
                    },
                    {
                      "internalType": "int8",
                      "name": "melee",
                      "type": "int8"
                    },
                    {
                      "internalType": "bool",
                      "name": "hasGun",
                      "type": "bool"
                    }
                  ],
                  "internalType": "struct BCTypes.Traits",
                  "name": "traits",
                  "type": "tuple"
                },
                {
                  "internalType": "uint8",
                  "name": "cloneNumber",
                  "type": "uint8"
                },
                {
                  "internalType": "uint8",
                  "name": "maxClones",
                  "type": "uint8"
                },
                {
                  "internalType": "uint8",
                  "name": "ability",
                  "type": "uint8"
                },
                {
                  "internalType": "uint8",
                  "name": "flaw",
                  "type": "uint8"
                },
                {
                  "internalType": "bool",
                  "name": "inGame",
                  "type": "bool"
                },
                {
                  "internalType": "uint256",
                  "name": "gameId",
                  "type": "uint256"
                }
              ],
              "internalType": "struct BCTypes.Character[]",
              "name": "characters",
              "type": "tuple[]"
            },
            {
              "components": [
                {
                  "internalType": "address",
                  "name": "owner",
                  "type": "address"
                },
                {
                  "internalType": "uint256",
                  "name": "characterId",
                  "type": "uint256"
                },
                {
                  "internalType": "uint256",
                  "name": "id",
                  "type": "uint256"
                },
                {
                  "components": [
                    {
                      "internalType": "int8",
                      "name": "health",
                      "type": "int8"
                    },
                    {
                      "internalType": "int8",
                      "name": "carry",
                      "type": "int8"
                    },
                    {
                      "internalType": "int8",
                      "name": "defense",
                      "type": "int8"
                    },
                    {
                      "internalType": "int8",
                      "name": "hack",
                      "type": "int8"
                    },
                    {
                      "internalType": "int8",
                      "name": "breach",
                      "type": "int8"
                    },
                    {
                      "internalType": "int8",
                      "name": "shoot",
                      "type": "int8"
                    },
                    {
                      "internalType": "int8",
                      "name": "melee",
                      "type": "int8"
                    },
                    {
                      "internalType": "bool",
                      "name": "hasGun",
                      "type": "bool"
                    }
                  ],
                  "internalType": "struct BCTypes.Traits",
                  "name": "currentTraits",
                  "type": "tuple"
                },
                {
                  "components": [
                    {
                      "internalType": "uint8",
                      "name": "row",
                      "type": "uint8"
                    },
                    {
                      "internalType": "uint8",
                      "name": "col",
                      "type": "uint8"
                    }
                  ],
                  "internalType": "struct BCTypes.Position",
                  "name": "position",
                  "type": "tuple"
                },
                {
                  "components": [
                    {
                      "internalType": "uint8",
                      "name": "row",
                      "type": "uint8"
                    },
                    {
                      "internalType": "uint8",
                      "name": "col",
                      "type": "uint8"
                    }
                  ],
                  "internalType": "struct BCTypes.Position",
                  "name": "lastPos",
                  "type": "tuple"
                },
                {
                  "internalType": "int8",
                  "name": "healthDmgTaken",
                  "type": "int8"
                },
                {
                  "internalType": "uint8",
                  "name": "armorDmgTaken",
                  "type": "uint8"
                },
                {
                  "internalType": "uint8",
                  "name": "actionsTaken",
                  "type": "uint8"
                },
                {
                  "internalType": "uint8",
                  "name": "dataTokens",
                  "type": "uint8"
                },
                {
                  "internalType": "uint8[]",
                  "name": "currentEffects",
                  "type": "uint8[]"
                },
                {
                  "internalType": "uint8",
                  "name": "numItemsHeld",
                  "type": "uint8"
                },
                {
                  "internalType": "bool",
                  "name": "dead",
                  "type": "bool"
                },
                {
                  "internalType": "uint256",
                  "name": "gameId",
                  "type": "uint256"
                }
              ],
              "internalType": "struct BCTypes.Player[]",
              "name": "players",
              "type": "tuple[]"
            },
            {
              "components": [
                {
                  "internalType": "uint256",
                  "name": "id",
                  "type": "uint256"
                },
                {
                  "internalType": "uint256",
                  "name": "gameId",
                  "type": "uint256"
                },
                {
                  "internalType": "enum BCTypes.DenizenType",
                  "name": "denizenType",
                  "type": "uint8"
                },
                {
                  "components": [
                    {
                      "internalType": "uint8",
                      "name": "row",
                      "type": "uint8"
                    },
                    {
                      "internalType": "uint8",
                      "name": "col",
                      "type": "uint8"
                    }
                  ],
                  "internalType": "struct BCTypes.Position",
                  "name": "position",
                  "type": "tuple"
                },
                {
                  "internalType": "uint256",
                  "name": "healthRemaining",
                  "type": "uint256"
                },
                {
                  "internalType": "bool",
                  "name": "looted",
                  "type": "bool"
                }
              ],
              "internalType": "struct BCTypes.Denizen[]",
              "name": "denizens",
              "type": "tuple[]"
            },
            {
              "components": [
                {
                  "internalType": "bytes32",
                  "name": "genHash",
                  "type": "bytes32"
                },
                {
                  "internalType": "uint256",
                  "name": "id",
                  "type": "uint256"
                },
                {
                  "internalType": "uint256",
                  "name": "uifID",
                  "type": "uint256"
                },
                {
                  "internalType": "uint256",
                  "name": "holdingPlayerId",
                  "type": "uint256"
                },
                {
                  "internalType": "address",
                  "name": "ownerAddress",
                  "type": "address"
                },
                {
                  "internalType": "uint256",
                  "name": "weight",
                  "type": "uint256"
                },
                {
                  "internalType": "enum BCTypes.ItemCategory",
                  "name": "itemCategory",
                  "type": "uint8"
                },
                {
                  "internalType": "uint8",
                  "name": "grantsAbility",
                  "type": "uint8"
                },
                {
                  "internalType": "uint8",
                  "name": "grantsFlaw",
                  "type": "uint8"
                },
                {
                  "internalType": "enum BCTypes.ItemType",
                  "name": "itemType",
                  "type": "uint8"
                },
                {
                  "internalType": "uint8",
                  "name": "power",
                  "type": "uint8"
                },
                {
                  "internalType": "uint256",
                  "name": "currentGame",
                  "type": "uint256"
                },
                {
                  "internalType": "enum BCTypes.WorldItemStatus",
                  "name": "status",
                  "type": "uint8"
                },
                {
                  "components": [
                    {
                      "internalType": "uint8",
                      "name": "row",
                      "type": "uint8"
                    },
                    {
                      "internalType": "uint8",
                      "name": "col",
                      "type": "uint8"
                    }
                  ],
                  "internalType": "struct BCTypes.Position",
                  "name": "position",
                  "type": "tuple"
                }
              ],
              "internalType": "struct BCTypes.Item[][]",
              "name": "playerItems",
              "type": "tuple[][]"
            },
            {
              "components": [
                {
                  "internalType": "bytes32",
                  "name": "genHash",
                  "type": "bytes32"
                },
                {
                  "internalType": "uint256",
                  "name": "id",
                  "type": "uint256"
                },
                {
                  "internalType": "uint256",
                  "name": "uifID",
                  "type": "uint256"
                },
                {
                  "internalType": "uint256",
                  "name": "holdingPlayerId",
                  "type": "uint256"
                },
                {
                  "internalType": "address",
                  "name": "ownerAddress",
                  "type": "address"
                },
                {
                  "internalType": "uint256",
                  "name": "weight",
                  "type": "uint256"
                },
                {
                  "internalType": "enum BCTypes.ItemCategory",
                  "name": "itemCategory",
                  "type": "uint8"
                },
                {
                  "internalType": "uint8",
                  "name": "grantsAbility",
                  "type": "uint8"
                },
                {
                  "internalType": "uint8",
                  "name": "grantsFlaw",
                  "type": "uint8"
                },
                {
                  "internalType": "enum BCTypes.ItemType",
                  "name": "itemType",
                  "type": "uint8"
                },
                {
                  "internalType": "uint8",
                  "name": "power",
                  "type": "uint8"
                },
                {
                  "internalType": "uint256",
                  "name": "currentGame",
                  "type": "uint256"
                },
                {
                  "internalType": "enum BCTypes.WorldItemStatus",
                  "name": "status",
                  "type": "uint8"
                },
                {
                  "components": [
                    {
                      "internalType": "uint8",
                      "name": "row",
                      "type": "uint8"
                    },
                    {
                      "internalType": "uint8",
                      "name": "col",
                      "type": "uint8"
                    }
                  ],
                  "internalType": "struct BCTypes.Position",
                  "name": "position",
                  "type": "tuple"
                }
              ],
              "internalType": "struct BCTypes.Item[]",
              "name": "worldItems",
              "type": "tuple[]"
            },
            {
              "internalType": "uint256[]",
              "name": "actionsEventBlocks",
              "type": "uint256[]"
            },
            {
              "internalType": "uint256[]",
              "name": "gameEventBlocks",
              "type": "uint256[]"
            },
            {
              "internalType": "uint256[]",
              "name": "playersEventBlocks",
              "type": "uint256[]"
            },
            {
              "internalType": "uint256[]",
              "name": "denizensEventBlocks",
              "type": "uint256[]"
            }
          ],
          "internalType": "struct BCTypes.CompleteGame",
          "name": "",
          "type": "tuple"
        }
      ],
      "stateMutability": "view",
      "type": "function"
    },
    {
      "inputs": [
        {
          "internalType": "uint256",
          "name": "_id",
          "type": "uint256"
        }
      ],
      "name": "extGetGame",
      "outputs": [
        {
          "components": [
            {
              "internalType": "bool",
              "name": "active",
              "type": "bool"
            },
            {
              "internalType": "bool",
              "name": "denizenTurn",
              "type": "bool"
            },
            {
              "internalType": "uint256",
              "name": "gameId",
              "type": "uint256"
            },
            {
              "internalType": "uint256[]",
              "name": "playerIndexes",
              "type": "uint256[]"
            },
            {
              "internalType": "uint256[]",
              "name": "charIds",
              "type": "uint256[]"
            },
            {
              "internalType": "uint256",
              "name": "currentPlayerTurnIndex",
              "type": "uint256"
            },
            {
              "internalType": "uint256",
              "name": "numPlayers",
              "type": "uint256"
            },
            {
              "internalType": "uint256",
              "name": "turnsTaken",
              "type": "uint256"
            },
            {
              "components": [
                {
                  "internalType": "uint8",
                  "name": "bugEvents",
                  "type": "uint8"
                },
                {
                  "internalType": "uint8",
                  "name": "mysteryEvents",
                  "type": "uint8"
                },
                {
                  "internalType": "uint8",
                  "name": "scavEvents",
                  "type": "uint8"
                },
                {
                  "internalType": "uint8",
                  "name": "shipEvents",
                  "type": "uint8"
                }
              ],
              "internalType": "struct BCTypes.EventTracker",
              "name": "eventTracker",
              "type": "tuple"
            },
            {
              "internalType": "uint256",
              "name": "mapId",
              "type": "uint256"
            },
            {
              "internalType": "uint256",
              "name": "eventPlayerId",
              "type": "uint256"
            },
            {
              "internalType": "uint256",
              "name": "eventNumber",
              "type": "uint256"
            },
            {
              "internalType": "enum BCTypes.BCEventType",
              "name": "eventType",
              "type": "uint8"
            },
            {
              "components": [
                {
                  "internalType": "uint8",
                  "name": "row",
                  "type": "uint8"
                },
                {
                  "internalType": "uint8",
                  "name": "col",
                  "type": "uint8"
                }
              ],
              "internalType": "struct BCTypes.Position",
              "name": "eventPosition",
              "type": "tuple"
            },
            {
              "internalType": "uint256[]",
              "name": "unusedBugEvents",
              "type": "uint256[]"
            },
            {
              "internalType": "uint256[]",
              "name": "unusedMysteryEvents",
              "type": "uint256[]"
            },
            {
              "internalType": "uint256[]",
              "name": "unusedScavEvents",
              "type": "uint256[]"
            },
            {
              "internalType": "uint256[]",
              "name": "unusedShipEvents",
              "type": "uint256[]"
            },
            {
              "internalType": "uint256",
              "name": "turnTimeLimit",
              "type": "uint256"
            },
            {
              "internalType": "uint256",
              "name": "lastTurnTimestamp",
              "type": "uint256"
            },
            {
              "internalType": "uint256[]",
              "name": "denizenIds",
              "type": "uint256[]"
            }
          ],
          "internalType": "struct BCTypes.Game",
          "name": "",
          "type": "tuple"
        }
      ],
      "stateMutability": "view",
      "type": "function"
    },
    {
      "inputs": [
        {
          "internalType": "uint256",
          "name": "_gameId",
          "type": "uint256"
        }
      ],
      "name": "extGetGamePlayerIndexes",
      "outputs": [
        {
          "internalType": "uint256[]",
          "name": "",
          "type": "uint256[]"
        }
      ],
      "stateMutability": "view",
      "type": "function"
    },
    {
      "inputs": [
        {
          "internalType": "address",
          "name": "_playerAddress",
          "type": "address"
        }
      ],
      "name": "extGetGamesOfPlayer",
      "outputs": [
        {
          "components": [
            {
              "internalType": "bool",
              "name": "active",
              "type": "bool"
            },
            {
              "internalType": "bool",
              "name": "denizenTurn",
              "type": "bool"
            },
            {
              "internalType": "uint256",
              "name": "gameId",
              "type": "uint256"
            },
            {
              "internalType": "uint256[]",
              "name": "playerIndexes",
              "type": "uint256[]"
            },
            {
              "internalType": "uint256[]",
              "name": "charIds",
              "type": "uint256[]"
            },
            {
              "internalType": "uint256",
              "name": "currentPlayerTurnIndex",
              "type": "uint256"
            },
            {
              "internalType": "uint256",
              "name": "numPlayers",
              "type": "uint256"
            },
            {
              "internalType": "uint256",
              "name": "turnsTaken",
              "type": "uint256"
            },
            {
              "components": [
                {
                  "internalType": "uint8",
                  "name": "bugEvents",
                  "type": "uint8"
                },
                {
                  "internalType": "uint8",
                  "name": "mysteryEvents",
                  "type": "uint8"
                },
                {
                  "internalType": "uint8",
                  "name": "scavEvents",
                  "type": "uint8"
                },
                {
                  "internalType": "uint8",
                  "name": "shipEvents",
                  "type": "uint8"
                }
              ],
              "internalType": "struct BCTypes.EventTracker",
              "name": "eventTracker",
              "type": "tuple"
            },
            {
              "internalType": "uint256",
              "name": "mapId",
              "type": "uint256"
            },
            {
              "internalType": "uint256",
              "name": "eventPlayerId",
              "type": "uint256"
            },
            {
              "internalType": "uint256",
              "name": "eventNumber",
              "type": "uint256"
            },
            {
              "internalType": "enum BCTypes.BCEventType",
              "name": "eventType",
              "type": "uint8"
            },
            {
              "components": [
                {
                  "internalType": "uint8",
                  "name": "row",
                  "type": "uint8"
                },
                {
                  "internalType": "uint8",
                  "name": "col",
                  "type": "uint8"
                }
              ],
              "internalType": "struct BCTypes.Position",
              "name": "eventPosition",
              "type": "tuple"
            },
            {
              "internalType": "uint256[]",
              "name": "unusedBugEvents",
              "type": "uint256[]"
            },
            {
              "internalType": "uint256[]",
              "name": "unusedMysteryEvents",
              "type": "uint256[]"
            },
            {
              "internalType": "uint256[]",
              "name": "unusedScavEvents",
              "type": "uint256[]"
            },
            {
              "internalType": "uint256[]",
              "name": "unusedShipEvents",
              "type": "uint256[]"
            },
            {
              "internalType": "uint256",
              "name": "turnTimeLimit",
              "type": "uint256"
            },
            {
              "internalType": "uint256",
              "name": "lastTurnTimestamp",
              "type": "uint256"
            },
            {
              "internalType": "uint256[]",
              "name": "denizenIds",
              "type": "uint256[]"
            }
          ],
          "internalType": "struct BCTypes.Game[]",
          "name": "",
          "type": "tuple[]"
        }
      ],
      "stateMutability": "view",
      "type": "function"
    },
    {
      "inputs": [],
      "name": "extGetNumGames",
      "outputs": [
        {
          "internalType": "uint256",
          "name": "",
          "type": "uint256"
        }
      ],
      "stateMutability": "view",
      "type": "function"
    },
    {
      "inputs": [
        {
          "internalType": "uint256",
          "name": "_gameId",
          "type": "uint256"
        }
      ],
      "name": "extGetPlayersInGame",
      "outputs": [
        {
          "components": [
            {
              "internalType": "address",
              "name": "owner",
              "type": "address"
            },
            {
              "internalType": "uint256",
              "name": "characterId",
              "type": "uint256"
            },
            {
              "internalType": "uint256",
              "name": "id",
              "type": "uint256"
            },
            {
              "components": [
                {
                  "internalType": "int8",
                  "name": "health",
                  "type": "int8"
                },
                {
                  "internalType": "int8",
                  "name": "carry",
                  "type": "int8"
                },
                {
                  "internalType": "int8",
                  "name": "defense",
                  "type": "int8"
                },
                {
                  "internalType": "int8",
                  "name": "hack",
                  "type": "int8"
                },
                {
                  "internalType": "int8",
                  "name": "breach",
                  "type": "int8"
                },
                {
                  "internalType": "int8",
                  "name": "shoot",
                  "type": "int8"
                },
                {
                  "internalType": "int8",
                  "name": "melee",
                  "type": "int8"
                },
                {
                  "internalType": "bool",
                  "name": "hasGun",
                  "type": "bool"
                }
              ],
              "internalType": "struct BCTypes.Traits",
              "name": "currentTraits",
              "type": "tuple"
            },
            {
              "components": [
                {
                  "internalType": "uint8",
                  "name": "row",
                  "type": "uint8"
                },
                {
                  "internalType": "uint8",
                  "name": "col",
                  "type": "uint8"
                }
              ],
              "internalType": "struct BCTypes.Position",
              "name": "position",
              "type": "tuple"
            },
            {
              "components": [
                {
                  "internalType": "uint8",
                  "name": "row",
                  "type": "uint8"
                },
                {
                  "internalType": "uint8",
                  "name": "col",
                  "type": "uint8"
                }
              ],
              "internalType": "struct BCTypes.Position",
              "name": "lastPos",
              "type": "tuple"
            },
            {
              "internalType": "int8",
              "name": "healthDmgTaken",
              "type": "int8"
            },
            {
              "internalType": "uint8",
              "name": "armorDmgTaken",
              "type": "uint8"
            },
            {
              "internalType": "uint8",
              "name": "actionsTaken",
              "type": "uint8"
            },
            {
              "internalType": "uint8",
              "name": "dataTokens",
              "type": "uint8"
            },
            {
              "internalType": "uint8[]",
              "name": "currentEffects",
              "type": "uint8[]"
            },
            {
              "internalType": "uint8",
              "name": "numItemsHeld",
              "type": "uint8"
            },
            {
              "internalType": "bool",
              "name": "dead",
              "type": "bool"
            },
            {
              "internalType": "uint256",
              "name": "gameId",
              "type": "uint256"
            }
          ],
          "internalType": "struct BCTypes.Player[]",
          "name": "",
          "type": "tuple[]"
        }
      ],
      "stateMutability": "view",
      "type": "function"
    },
    {
      "inputs": [
        {
          "internalType": "uint256",
          "name": "_gameId",
          "type": "uint256"
        },
        {
          "components": [
            {
              "internalType": "uint8",
              "name": "row",
              "type": "uint8"
            },
            {
              "internalType": "uint8",
              "name": "col",
              "type": "uint8"
            }
          ],
          "internalType": "struct BCTypes.Position",
          "name": "_position",
          "type": "tuple"
        },
        {
          "internalType": "uint256",
          "name": "_playerId",
          "type": "uint256"
        }
      ],
      "name": "extMovePlayer",
      "outputs": [],
      "stateMutability": "nonpayable",
      "type": "function"
    },
    {
      "inputs": [
        {
          "internalType": "uint256",
          "name": "_gameId",
          "type": "uint256"
        }
      ],
      "name": "forceNextTurn",
      "outputs": [],
      "stateMutability": "nonpayable",
      "type": "function"
    },
    {
      "inputs": [
        {
          "internalType": "uint256",
          "name": "",
          "type": "uint256"
        }
      ],
      "name": "games",
      "outputs": [
        {
          "internalType": "bool",
          "name": "active",
          "type": "bool"
        },
        {
          "internalType": "bool",
          "name": "denizenTurn",
          "type": "bool"
        },
        {
          "internalType": "uint256",
          "name": "gameId",
          "type": "uint256"
        },
        {
          "internalType": "uint256",
          "name": "currentPlayerTurnIndex",
          "type": "uint256"
        },
        {
          "internalType": "uint256",
          "name": "numPlayers",
          "type": "uint256"
        },
        {
          "internalType": "uint256",
          "name": "turnsTaken",
          "type": "uint256"
        },
        {
          "components": [
            {
              "internalType": "uint8",
              "name": "bugEvents",
              "type": "uint8"
            },
            {
              "internalType": "uint8",
              "name": "mysteryEvents",
              "type": "uint8"
            },
            {
              "internalType": "uint8",
              "name": "scavEvents",
              "type": "uint8"
            },
            {
              "internalType": "uint8",
              "name": "shipEvents",
              "type": "uint8"
            }
          ],
          "internalType": "struct BCTypes.EventTracker",
          "name": "eventTracker",
          "type": "tuple"
        },
        {
          "internalType": "uint256",
          "name": "mapId",
          "type": "uint256"
        },
        {
          "internalType": "uint256",
          "name": "eventPlayerId",
          "type": "uint256"
        },
        {
          "internalType": "uint256",
          "name": "eventNumber",
          "type": "uint256"
        },
        {
          "internalType": "enum BCTypes.BCEventType",
          "name": "eventType",
          "type": "uint8"
        },
        {
          "components": [
            {
              "internalType": "uint8",
              "name": "row",
              "type": "uint8"
            },
            {
              "internalType": "uint8",
              "name": "col",
              "type": "uint8"
            }
          ],
          "internalType": "struct BCTypes.Position",
          "name": "eventPosition",
          "type": "tuple"
        },
        {
          "internalType": "uint256",
          "name": "turnTimeLimit",
          "type": "uint256"
        },
        {
          "internalType": "uint256",
          "name": "lastTurnTimestamp",
          "type": "uint256"
        }
      ],
      "stateMutability": "view",
      "type": "function"
    },
    {
      "inputs": [
        {
          "internalType": "uint256",
          "name": "_gameId",
          "type": "uint256"
        }
      ],
      "name": "getDenizensInGame",
      "outputs": [
        {
          "components": [
            {
              "internalType": "uint256",
              "name": "id",
              "type": "uint256"
            },
            {
              "internalType": "uint256",
              "name": "gameId",
              "type": "uint256"
            },
            {
              "internalType": "enum BCTypes.DenizenType",
              "name": "denizenType",
              "type": "uint8"
            },
            {
              "components": [
                {
                  "internalType": "uint8",
                  "name": "row",
                  "type": "uint8"
                },
                {
                  "internalType": "uint8",
                  "name": "col",
                  "type": "uint8"
                }
              ],
              "internalType": "struct BCTypes.Position",
              "name": "position",
              "type": "tuple"
            },
            {
              "internalType": "uint256",
              "name": "healthRemaining",
              "type": "uint256"
            },
            {
              "internalType": "bool",
              "name": "looted",
              "type": "bool"
            }
          ],
          "internalType": "struct BCTypes.Denizen[]",
          "name": "",
          "type": "tuple[]"
        }
      ],
      "stateMutability": "view",
      "type": "function"
    },
    {
      "inputs": [
        {
          "internalType": "uint256",
          "name": "_gameId",
          "type": "uint256"
        }
      ],
      "name": "getEventBlocks",
      "outputs": [
        {
          "internalType": "uint256[]",
          "name": "",
          "type": "uint256[]"
        }
      ],
      "stateMutability": "view",
      "type": "function"
    },
    {
      "inputs": [],
      "name": "items",
      "outputs": [
        {
          "internalType": "contract ItemsInterface",
          "name": "",
          "type": "address"
        }
      ],
      "stateMutability": "view",
      "type": "function"
    },
    {
      "inputs": [
        {
          "internalType": "uint256",
          "name": "_gameId",
          "type": "uint256"
        },
        {
          "internalType": "uint256",
          "name": "_playerId",
          "type": "uint256"
        },
        {
          "internalType": "uint256",
          "name": "_charId",
          "type": "uint256"
        },
        {
          "internalType": "uint256",
          "name": "_currentPlayerTurnIndex",
          "type": "uint256"
        }
      ],
      "name": "leaveGame",
      "outputs": [],
      "stateMutability": "nonpayable",
      "type": "function"
    },
    {
      "inputs": [],
      "name": "lobbiesAddress",
      "outputs": [
        {
          "internalType": "address",
          "name": "",
          "type": "address"
        }
      ],
      "stateMutability": "view",
      "type": "function"
    },
    {
      "inputs": [],
      "name": "maps",
      "outputs": [
        {
          "internalType": "contract MapInterface",
          "name": "",
          "type": "address"
        }
      ],
      "stateMutability": "view",
      "type": "function"
    },
    {
      "inputs": [],
      "name": "owner",
      "outputs": [
        {
          "internalType": "address",
          "name": "",
          "type": "address"
        }
      ],
      "stateMutability": "view",
      "type": "function"
    },
    {
      "inputs": [],
      "name": "players",
      "outputs": [
        {
          "internalType": "contract PlayersInterface",
          "name": "",
          "type": "address"
        }
      ],
      "stateMutability": "view",
      "type": "function"
    },
    {
      "inputs": [
        {
          "internalType": "uint256",
          "name": "_gameId",
          "type": "uint256"
        }
      ],
      "name": "processDenizenMoves",
      "outputs": [],
      "stateMutability": "nonpayable",
      "type": "function"
    },
    {
      "inputs": [],
      "name": "renounceOwnership",
      "outputs": [],
      "stateMutability": "nonpayable",
      "type": "function"
    },
    {
      "inputs": [
        {
          "internalType": "uint256",
          "name": "_gameId",
          "type": "uint256"
        },
        {
          "internalType": "uint256",
          "name": "_choice",
          "type": "uint256"
        }
      ],
      "name": "resolveEvent",
      "outputs": [],
      "stateMutability": "nonpayable",
      "type": "function"
    },
    {
      "inputs": [
        {
          "internalType": "address",
          "name": "_charAddress",
          "type": "address"
        },
        {
          "internalType": "address",
          "name": "_mapsAddress",
          "type": "address"
        },
        {
          "internalType": "address",
          "name": "_lobbiesAddress",
          "type": "address"
        },
        {
          "internalType": "address",
          "name": "_actionsAddress",
          "type": "address"
        },
        {
          "internalType": "address",
          "name": "_eventsAddress",
          "type": "address"
        },
        {
          "internalType": "address",
          "name": "_itemsAddress",
          "type": "address"
        },
        {
          "internalType": "address",
          "name": "_playersAddress",
          "type": "address"
        },
        {
          "internalType": "address",
          "name": "_denizensAddress",
          "type": "address"
        }
      ],
      "name": "setContractAddresses",
      "outputs": [],
      "stateMutability": "nonpayable",
      "type": "function"
    },
    {
      "inputs": [
        {
          "internalType": "uint8",
          "name": "_min",
          "type": "uint8"
        },
        {
          "internalType": "uint8",
          "name": "_max",
          "type": "uint8"
        }
      ],
      "name": "smallIntBetweenVals",
      "outputs": [
        {
          "internalType": "uint8",
          "name": "",
          "type": "uint8"
        }
      ],
      "stateMutability": "nonpayable",
      "type": "function"
    },
    {
      "inputs": [
        {
          "internalType": "uint256[]",
          "name": "_playerIndexes",
          "type": "uint256[]"
        },
        {
          "internalType": "uint256",
          "name": "_numPlayers",
          "type": "uint256"
        },
        {
          "internalType": "uint256",
          "name": "_debugRoomId",
          "type": "uint256"
        }
      ],
      "name": "startGame",
      "outputs": [
        {
          "internalType": "uint256",
          "name": "",
          "type": "uint256"
        }
      ],
      "stateMutability": "nonpayable",
      "type": "function"
    },
    {
      "inputs": [
        {
          "internalType": "address",
          "name": "newOwner",
          "type": "address"
        }
      ],
      "name": "transferOwnership",
      "outputs": [],
      "stateMutability": "nonpayable",
      "type": "function"
    }
  ],
  "transactionHash": "0xef7efb43ee36017ee94c5d95d4d934a676586ef0e1b5f0c6b09a3643cdf16473",
  "args": [],
  "numDeployments": 1,
  "solcInputHash": "53343237385e44ecb26c93379ee6715d",
  "bytecode": "0x60806040523480156200001157600080fd5b506200001d336200002f565b600a805460010181556000526200007f565b600080546001600160a01b038381166001600160a01b0319831681178455604051919092169283917f8be0079c531659141344cd1fd0a4f28419497f9722a3daafe3b4186f6b6457e09190a35050565b615ddd806200008f6000396000f3fe608060405234801561001057600080fd5b50600436106102065760003560e01c80637ddae1031161011a578063b26d3395116100ad578063dc0b35641161007c578063dc0b3564146104ce578063ed9067fa146104e1578063f101de9a146104f4578063f2fde38b14610507578063f99e36bc1461051a57600080fd5b8063b26d339514610456578063c06fad0614610476578063ce28613f14610489578063d8a03082146104ae57600080fd5b80639fca1ee1116100e95780639fca1ee1146103fd578063a99d2a8b14610410578063aa6e803014610423578063afd62bb21461043657600080fd5b80637ddae103146103b35780638bf52bc3146103c65780638da5cb5b146103d9578063921d2799146103ea57600080fd5b80633f090e3d1161019d57806364f664671161016c57806364f66467146103455780636fe99c1814610358578063715018a61461037857806371fa32361461038057806372f5a253146103a057600080fd5b80633f090e3d146102fa57806340d4fd781461030d57806346f2434b14610320578063547314221461033257600080fd5b806317514225116101d957806317514225146102ac5780631cef40f6146102c1578063336d7d7b146102d45780633deaec2b146102e757600080fd5b806303b774f61461020b5780630e73c0241461023457806310a2cd0d14610254578063117a5b901461027f575b600080fd5b61021e610219366004613d39565b61052d565b60405161022b91906145e8565b60405180910390f35b610247610242366004613d39565b610da0565b60405161022b9190614777565b600154610267906001600160a01b031681565b6040516001600160a01b03909116815260200161022b565b61029261028d366004613d39565b610dc0565b60405161022b9e9d9c9b9a9998979695949392919061478a565b6102bf6102ba3660046149b7565b610e96565b005b6102bf6102cf3660046149fa565b610ed3565b600854610267906001600160a01b031681565b600254610267906001600160a01b031681565b6102bf610308366004614a37565b610fd7565b61024761031b366004613d39565b61121c565b600a545b60405190815260200161022b565b6102bf610340366004613d39565b61130d565b6102bf610353366004614a69565b611400565b61036b610366366004613d39565b6114e7565b60405161022b9190614a8b565b6102bf6118aa565b61039361038e366004613d39565b6118be565b60405161022b9190614a9e565b600654610267906001600160a01b031681565b600354610267906001600160a01b031681565b6102bf6103d4366004614ab1565b611a33565b6000546001600160a01b0316610267565b6102bf6103f8366004614b02565b611a47565b600954610267906001600160a01b031681565b61032461041e366004614bab565b611add565b6102bf610431366004614be5565b611b0e565b610449610444366004614c1e565b611c1f565b60405161022b9190614c3b565b610469610464366004613d39565b6120b5565b60405161022b9190614c9d565b600454610267906001600160a01b031681565b61049c610497366004614cb0565b612227565b60405160ff909116815260200161022b565b6104c16104bc366004613d39565b6122be565b60405161022b9190614ce9565b600554610267906001600160a01b031681565b6102bf6104ef366004613d39565b61235a565b610324610502366004614d1f565b612447565b6102bf610515366004614c1e565b6129c9565b600754610267906001600160a01b031681565b6105356139e1565b604051806101a00160405280600a848154811061055457610554614dc4565b6000918252602091829020604080516102a0810182526014909302909101805460ff8082161515855261010090910416151583850152600181015483830152600281018054835181870281018701909452808452939491936060860193928301828280156105e157602002820191906000526020600020905b8154815260200190600101908083116105cd575b505050505081526020016003820180548060200260200160405190810160405280929190818152602001828054801561063957602002820191906000526020600020905b815481526020019060010190808311610625575b505050918352505060048201546020808301919091526005808401546040808501919091526006850154606080860191909152815160808181018452600788015460ff80821684526101008083048216988501989098526201000082048116958401959095526301000000900484169282019290925290850152600885015460a0850152600985015460c0850152600a85015460e0850152600b850154929093019291909116908111156106ef576106ef613d8d565b600581111561070057610700613d8d565b8152604080518082018252600c84015460ff80821683526101009091041660208281019190915280840191909152600d8401805483518184028101840185528181529390940193909183018282801561077857602002820191906000526020600020905b815481526020019060010190808311610764575b50505050508152602001600e82018054806020026020016040519081016040528092919081815260200182805480156107d057602002820191906000526020600020905b8154815260200190600101908083116107bc575b50505050508152602001600f820180548060200260200160405190810160405280929190818152602001828054801561082857602002820191906000526020600020905b815481526020019060010190808311610814575b505050505081526020016010820180548060200260200160405190810160405280929190818152602001828054801561088057602002820191906000526020600020905b81548152602001906001019080831161086c575b505050505081526020016011820154815260200160128201548152602001601382018054806020026020016040519081016040528092919081815260200182805480156108ec57602002820191906000526020600020905b8154815260200190600101908083116108d8575b5050505050815250508152602001600260009054906101000a90046001600160a01b03166001600160a01b0316631ef04416600a868154811061093157610931614dc4565b9060005260206000209060140201600801546040518263ffffffff1660e01b815260040161096191815260200190565b600060405180830381865afa15801561097e573d6000803e3d6000fd5b505050506040513d6000823e601f3d908101601f191682016040526109a69190810190614e62565b8152602001600260009054906101000a90046001600160a01b03166001600160a01b03166369568fd5600a86815481106109e2576109e2614dc4565b9060005260206000209060140201600801546040518263ffffffff1660e01b8152600401610a1291815260200190565b600060405180830381865afa158015610a2f573d6000803e3d6000fd5b505050506040513d6000823e601f3d908101601f19168201604052610a57919081019061500f565b8152602001600260009054906101000a90046001600160a01b03166001600160a01b0316638af13fd2600a8681548110610a9357610a93614dc4565b9060005260206000209060140201600801546040518263ffffffff1660e01b8152600401610ac391815260200190565b600060405180830381865afa158015610ae0573d6000803e3d6000fd5b505050506040513d6000823e601f3d908101601f19168201604052610b08919081019061517f565b8152602001610b16846120b5565b8152602001610b24846118be565b8152602001610b32846122be565b815260048054604051636d7b9bbb60e11b81529182018690526020909201916001600160a01b03169063daf7377690602401600060405180830381865afa158015610b81573d6000803e3d6000fd5b505050506040513d6000823e601f3d908101601f19168201604052610ba991908101906153ae565b8152600480546040516264b0e560e81b81529182018690526020909201916001600160a01b0316906364b0e50090602401600060405180830381865afa158015610bf7573d6000803e3d6000fd5b505050506040513d6000823e601f3d908101601f19168201604052610c1f9190810190615451565b815260075460405163039cf00960e21b8152600481018690526020909201916001600160a01b0390911690630e73c02490602401600060405180830381865afa158015610c70573d6000803e3d6000fd5b505050506040513d6000823e601f3d908101601f19168201604052610c98919081019061548d565b8152602001610ca684610da0565b815260055460405163039cf00960e21b8152600481018690526020909201916001600160a01b0390911690630e73c02490602401600060405180830381865afa158015610cf7573d6000803e3d6000fd5b505050506040513d6000823e601f3d908101601f19168201604052610d1f919081019061548d565b815260065460405163039cf00960e21b8152600481018690526020909201916001600160a01b0390911690630e73c02490602401600060405180830381865afa158015610d70573d6000803e3d6000fd5b505050506040513d6000823e601f3d908101601f19168201604052610d98919081019061548d565b905292915050565b6000818152600c60205260409020606090610dba90612a42565b92915050565b600a8181548110610dd057600080fd5b60009182526020918290206014909102018054600182015460048301546005840154600685015460408051608081018252600788015460ff81811683526101008083048216848d015262010000830482168486015263010000009092048116606084015260088a015460098b0154600a8c0154600b8d01548751808901909852600c8e0154808616895286900485169e88019e909e5260118d01546012909d0154848d169f5094909b0483169c999b989a9799969894979196909591949216929091908e565b6007546001600160a01b03163314610ec15760405163ada83ddd60e01b815260040160405180910390fd5b610ece8383836000612a56565b505050565b600a82148015610ee35750600681145b610fd1576005546001600160a01b03163314610f125760405163409842cd60e01b815260040160405180910390fd5b6000600a8581548110610f2757610f27614dc4565b60009182526020909120600654604051630e77a07b60e11b81526014909302909101925060138301916001600160a01b0390911690631cef40f690610f7690899089908990899060040161551d565b6020604051808303816000875af1158015610f95573d6000803e3d6000fd5b505050506040513d601f19601f82011682018060405250810190610fb99190615543565b81546001810183556000928352602090922090910155505b50505050565b6007546001600160a01b031633146110025760405163ada83ddd60e01b815260040160405180910390fd5b6000600a858154811061101757611017614dc4565b6000918252602090912060048054604051635f87260160e01b815291820188905260248201899052601490930290910192506001600160a01b0390911690635f87260190604401600060405180830381600087803b15801561107857600080fd5b505af115801561108c573d6000803e3d6000fd5b5050600154604051631ff77ac560e11b8152600481018790526001600160a01b039091169250633feef58a9150602401600060405180830381600087803b1580156110d657600080fd5b505af11580156110ea573d6000803e3d6000fd5b50505060028201546000915061110290600190615572565b6001600160401b038111156111195761111961484c565b604051908082528060200260200182016040528015611142578160200160208202803683370190505b5090506000805b60028401548110156111b9578085146111a75783600201818154811061117157611171614dc4565b906000526020600020015483838151811061118e5761118e614dc4565b6020908102919091010152816111a381615585565b9250505b806111b181615585565b915050611149565b5081516111cf9060028501906020850190613a4f565b506005830180549060006111e28361559e565b909155505060028301546004840154036111fe57600060048401555b600283015460000361121357825460ff191683555b50505050505050565b60606000600a838154811061123357611233614dc4565b9060005260206000209060140201600201805490506001600160401b0381111561125f5761125f61484c565b604051908082528060200260200182016040528015611288578160200160208202803683370190505b50905060005b815181101561130657600a84815481106112aa576112aa614dc4565b906000526020600020906014020160020181815481106112cc576112cc614dc4565b90600052602060002001548282815181106112e9576112e9614dc4565b6020908102919091010152806112fe81615585565b91505061128e565b5092915050565b6000600a828154811061132257611322614dc4565b600091825260209091206014909102018054909150610100900460ff16151560010361136157604051633ae1755360e21b815260040160405180910390fd5b60028101546001036113865760405163015b385160e41b815260040160405180910390fd5b8060110154816012015461139a91906155b5565b4210156113ba57604051630df3377b60e31b815260040160405180910390fd5b600a810154156113cf576113cf826000613435565b6113fc82826002018360040154815481106113ec576113ec614dc4565b90600052602060002001546134ff565b5050565b6000600a838154811061141557611415614dc4565b600091825260209091206005546014909202016009810154604051636621a42160e01b815260048101919091529092506001600160a01b0390911690636621a42190602401602060405180830381865afa158015611477573d6000803e3d6000fd5b505050506040513d601f19601f8201168201806040525081019061149b91906155c8565b6001600160a01b0316336001600160a01b0316146114dd578060090154604051637111468960e11b81526004016114d491815260200190565b60405180910390fd5b610ece8383613435565b6114ef613a9a565b600a828154811061150257611502614dc4565b6000918252602091829020604080516102a0810182526014909302909101805460ff80821615158552610100909104161515838501526001810154838301526002810180548351818702810187019094528084529394919360608601939283018282801561158f57602002820191906000526020600020905b81548152602001906001019080831161157b575b50505050508152602001600382018054806020026020016040519081016040528092919081815260200182805480156115e757602002820191906000526020600020905b8154815260200190600101908083116115d3575b505050918352505060048201546020808301919091526005808401546040808501919091526006850154606080860191909152815160808181018452600788015460ff80821684526101008083048216988501989098526201000082048116958401959095526301000000900484169282019290925290850152600885015460a0850152600985015460c0850152600a85015460e0850152600b8501549290930192919091169081111561169d5761169d613d8d565b60058111156116ae576116ae613d8d565b8152604080518082018252600c84015460ff80821683526101009091041660208281019190915280840191909152600d8401805483518184028101840185528181529390940193909183018282801561172657602002820191906000526020600020905b815481526020019060010190808311611712575b50505050508152602001600e820180548060200260200160405190810160405280929190818152602001828054801561177e57602002820191906000526020600020905b81548152602001906001019080831161176a575b50505050508152602001600f82018054806020026020016040519081016040528092919081815260200182805480156117d657602002820191906000526020600020905b8154815260200190600101908083116117c2575b505050505081526020016010820180548060200260200160405190810160405280929190818152602001828054801561182e57602002820191906000526020600020905b81548152602001906001019080831161181a575b5050505050815260200160118201548152602001601282015481526020016013820180548060200260200160405190810160405280929190818152602001828054801561189a57602002820191906000526020600020905b815481526020019060010190808311611886575b5050505050815250509050919050565b6118b26135dc565b6118bc6000613636565b565b60606000600a83815481106118d5576118d5614dc4565b9060005260206000209060140201600201805490506001600160401b038111156119015761190161484c565b60405190808252806020026020018201604052801561193a57816020015b611927613ba5565b81526020019060019003908161191f5790505b50905060005b815181101561130657600554600a80546001600160a01b03909216916310f67fb391908790811061197357611973614dc4565b9060005260206000209060140201600201838154811061199557611995614dc4565b90600052602060002001546040518263ffffffff1660e01b81526004016119be91815260200190565b600060405180830381865afa1580156119db573d6000803e3d6000fd5b505050506040513d6000823e601f3d908101601f19168201604052611a03919081019061572e565b828281518110611a1557611a15614dc4565b60200260200101819052508080611a2b90615585565b915050611940565b611a3b6135dc565b610fd184848484612a56565b611a4f6135dc565b600180546001600160a01b03199081166001600160a01b039a8b1617909155600280548216988a1698909817909755600880548816968916969096179095556007805487169488169490941790935560038054861692871692909217909155600480548516918616919091179055600580548416918516919091179055600680549092169216919091179055565b600b6020528160005260406000208181548110611af957600080fd5b90600052602060002001600091509150505481565b6007546001600160a01b03163314611b395760405163ada83ddd60e01b815260040160405180910390fd5b80611b9d5760055460405163ce93229760e01b8152600481018490526001600160a01b039091169063ce93229790602401600060405180830381600087803b158015611b8457600080fd5b505af1158015611b98573d6000803e3d6000fd5b505050505b6005546040516347d0e3c960e01b8152600481018490526000916001600160a01b0316906347d0e3c990602401602060405180830381865afa158015611be7573d6000803e3d6000fd5b505050506040513d601f19601f82011682018060405250810190611c0b9190615543565b905060038110610fd157610fd184846134ff565b6001600160a01b0381166000908152600b6020526040812054606091906001600160401b03811115611c5357611c5361484c565b604051908082528060200260200182016040528015611c8c57816020015b611c79613a9a565b815260200190600190039081611c715790505b50905060005b8151811015611306576001600160a01b0384166000908152600b602052604090208054600a919083908110611cc957611cc9614dc4565b906000526020600020015481548110611ce457611ce4614dc4565b6000918252602091829020604080516102a0810182526014909302909101805460ff808216151585526101009091041615158385015260018101548383015260028101805483518187028101870190945280845293949193606086019392830182828015611d7157602002820191906000526020600020905b815481526020019060010190808311611d5d575b5050505050815260200160038201805480602002602001604051908101604052809291908181526020018280548015611dc957602002820191906000526020600020905b815481526020019060010190808311611db5575b505050918352505060048201546020808301919091526005808401546040808501919091526006850154606080860191909152815160808181018452600788015460ff80821684526101008083048216988501989098526201000082048116958401959095526301000000900484169282019290925290850152600885015460a0850152600985015460c0850152600a85015460e0850152600b85015492909301929190911690811115611e7f57611e7f613d8d565b6005811115611e9057611e90613d8d565b8152604080518082018252600c84015460ff80821683526101009091041660208281019190915280840191909152600d84018054835181840281018401855281815293909401939091830182828015611f0857602002820191906000526020600020905b815481526020019060010190808311611ef4575b50505050508152602001600e8201805480602002602001604051908101604052809291908181526020018280548015611f6057602002820191906000526020600020905b815481526020019060010190808311611f4c575b50505050508152602001600f8201805480602002602001604051908101604052809291908181526020018280548015611fb857602002820191906000526020600020905b815481526020019060010190808311611fa4575b505050505081526020016010820180548060200260200160405190810160405280929190818152602001828054801561201057602002820191906000526020600020905b815481526020019060010190808311611ffc575b5050505050815260200160118201548152602001601282015481526020016013820180548060200260200160405190810160405280929190818152602001828054801561207c57602002820191906000526020600020905b815481526020019060010190808311612068575b50505050508152505082828151811061209757612097614dc4565b602002602001018190525080806120ad90615585565b915050611c92565b60606000600a83815481106120cc576120cc614dc4565b9060005260206000209060140201600301805490506001600160401b038111156120f8576120f861484c565b60405190808252806020026020018201604052801561213157816020015b61211e613c65565b8152602001906001900390816121165790505b50905060005b815181101561130657600154600a80546001600160a01b0390921691634810bc5991908790811061216a5761216a614dc4565b9060005260206000209060140201600301838154811061218c5761218c614dc4565b90600052602060002001546040518263ffffffff1660e01b81526004016121b591815260200190565b61022060405180830381865afa1580156121d3573d6000803e3d6000fd5b505050506040513d601f19601f820116820180604052508101906121f79190615879565b82828151811061220957612209614dc4565b6020026020010181905250808061221f90615585565b915050612137565b6000803342612237600143615572565b60405160609390931b6bffffffffffffffffffffffff19166020840152603483019190915240605482015260740160408051601f1981840301815291905280516020909101209050600061228b858561592d565b612296906001615946565b90508460ff168160ff16836122ab919061595f565b6122b591906155b5565b95945050505050565b600654600a80546060926001600160a01b031691633362ec7291859081106122e8576122e8614dc4565b90600052602060002090601402016013016040518263ffffffff1660e01b815260040161231591906159b6565b600060405180830381865afa158015612332573d6000803e3d6000fd5b505050506040513d6000823e601f3d908101601f19168201604052610dba91908101906159c9565b6000600a828154811061236f5761236f614dc4565b600091825260209091206006546014909202016008810154604051632224e7f360e11b81529193506001600160a01b0390921691634449cfe6916123c191869160028701906013880190600401615ab2565b600060405180830381600087803b1580156123db57600080fd5b505af11580156123ef573d6000803e3d6000fd5b5050825461ff001916835550506040518281527f0b902bf94ea0561a1c7b03fed6f663a1ae180c3c6d92b1b529718058696a4c389060200160405180910390a16000828152600c60205260409020610ece9043613686565b6008546000906001600160a01b03163314612475576040516322e0b39560e21b815260040160405180910390fd5b600a80546001818101808455600093845260149092027fc65a7bb8d6351c1cf70c95a316cc6a92839c986682d98bc35f958f4883f9d2a80192916124b99190615572565b6001808401829055835460ff19161783556000600684015586519091506124e99060028401906020890190613a4f565b50600582018590556040805160808101825260008082526020820181905291810182905260600181905260078301805463ffffffff191690558490036125ac57600260009054906101000a90046001600160a01b03166001600160a01b031663f01fc35a6040518163ffffffff1660e01b81526004016020604051808303816000875af115801561257e573d6000803e3d6000fd5b505050506040513d601f19601f820116820180604052508101906125a29190615543565b6008830155612621565b60025460405163148e052f60e21b8152600481018690526001600160a01b039091169063523814bc906024016020604051808303816000875af11580156125f7573d6000803e3d6000fd5b505050506040513d601f19601f8201168201806040525081019061261b9190615543565b60088301555b60005b61262f600187615572565b811161285c5761268183600801546040518060400160405280600a60ff168152602001600660ff1681525085600201848154811061266f5761266f614dc4565b90600052602060002001546000612a56565b60055487516000916001600160a01b031690636621a421908a90859081106126ab576126ab614dc4565b60200260200101516040518263ffffffff1660e01b81526004016126d191815260200190565b602060405180830381865afa1580156126ee573d6000803e3d6000fd5b505050506040513d601f19601f8201168201806040525081019061271291906155c8565b6001600160a01b038082166000908152600b6020908152604082208054600181018255908352908220018690556005548b5193945090929116906373e4195c908b908690811061276457612764614dc4565b60200260200101516040518263ffffffff1660e01b815260040161278a91815260200190565b602060405180830381865afa1580156127a7573d6000803e3d6000fd5b505050506040513d601f19601f820116820180604052508101906127cb9190615543565b60015460405163b60b9fcb60e01b815260048101879052602481018390529192506001600160a01b03169063b60b9fcb90604401600060405180830381600087803b15801561281957600080fd5b505af115801561282d573d6000803e3d6000fd5b50505050600385018054600181018255600091825260209091200155508061285481615585565b915050612624565b5060055460405163e7169ec560e01b81526001600160a01b039091169063e7169ec59061288f9089908590600401615ae3565b600060405180830381600087803b1580156128a957600080fd5b505af11580156128bd573d6000803e3d6000fd5b505060048054604051633b09709560e21b81526001600160a01b03909116935063ec25c25492506128f29185918b9101615b05565b600060405180830381600087803b15801561290c57600080fd5b505af1158015612920573d6000803e3d6000fd5b5050505061292c613cc1565b60005b600f81101561296c576129438160016155b5565b8282600f811061295557612955614dc4565b60200201528061296481615585565b91505061292f565b5061297c600d840182600f613a4f565b5061298c600e840182600f613a4f565b5061299d600f808501908390613a4f565b506129ad6010840182600f613a4f565b505061012c601183015542601290920191909155949350505050565b6129d16135dc565b6001600160a01b038116612a365760405162461bcd60e51b815260206004820152602660248201527f4f776e61626c653a206e6577206f776e657220697320746865207a65726f206160448201526564647265737360d01b60648201526084016114d4565b612a3f81613636565b50565b60606000612a4f83613692565b9392505050565b6000600a8581548110612a6b57612a6b614dc4565b9060005260206000209060140201905080600201600081548110612a9157612a91614dc4565b90600052602060002001548314158015612acb575080600201600181548110612abc57612abc614dc4565b90600052602060002001548314155b8015612af7575080600201600281548110612ae857612ae8614dc4565b90600052602060002001548314155b8015612b23575080600201600381548110612b1457612b14614dc4565b90600052602060002001548314155b15612b4b5760405163013eacb560e01b815260048101869052602481018490526044016114d4565b600554600a80546001600160a01b0390921691638d491b3e9187918791908a908110612b7957612b79614dc4565b9060005260206000209060140201600801546040518463ffffffff1660e01b8152600401612ba993929190615b1e565b6020604051808303816000875af1158015612bc8573d6000803e3d6000fd5b505050506040513d601f19601f82011682018060405250810190612bec9190615b4d565b61342e57600254600a80546000926001600160a01b0316916381bad36d9189908110612c1a57612c1a614dc4565b90600052602060002090601402016008015487600001518860200151876040518563ffffffff1660e01b8152600401612c70949392919093845260ff928316602085015291166040830152606082015260800190565b6020604051808303816000875af1158015612c8f573d6000803e3d6000fd5b505050506040513d601f19601f82011682018060405250810190612cb39190615543565b600254600a80549293506000926001600160a01b0390921691635805828391908a908110612ce357612ce3614dc4565b906000526020600020906014020160080154846040518363ffffffff1660e01b8152600401612d1c929190918252602082015260400190565b60a060405180830381865afa158015612d39573d6000803e3d6000fd5b505050506040513d601f19601f82011682018060405250810190612d5d9190615b6a565b9050600282118015612d825750600081516005811115612d7f57612d7f613d8d565b14155b1561121357600181516005811115612d9c57612d9c613d8d565b03612def57600a8781548110612db457612db4614dc4565b600091825260208220600760149092020101805460ff1691612dd583615b86565b91906101000a81548160ff021916908360ff160217905550505b600281516005811115612e0457612e04613d8d565b03612e5f57600a8781548110612e1c57612e1c614dc4565b600091825260209091206014909102016007018054610100900460ff16906001612e4583615b86565b91906101000a81548160ff021916908360ff160217905550505b600381516005811115612e7457612e74613d8d565b03612ed057600a8781548110612e8c57612e8c614dc4565b60009182526020909120601490910201600701805462010000900460ff16906002612eb683615b86565b91906101000a81548160ff021916908360ff160217905550505b600481516005811115612ee557612ee5613d8d565b03612f4257600a8781548110612efd57612efd614dc4565b6000918252602090912060149091020160070180546301000000900460ff16906003612f2883615b86565b91906101000a81548160ff021916908360ff160217905550505b6020810151156130c257600354602082015160405163c82c37b960e01b815260048101919091526000916001600160a01b03169063c82c37b990602401600060405180830381865afa158015612f9c573d6000803e3d6000fd5b505050506040513d6000823e601f3d908101601f19168201604052612fc49190810190615c32565b905080602001516130bc5785600a8981548110612fe357612fe3614dc4565b9060005260206000209060140201600901819055508160200151600a898154811061301057613010614dc4565b9060005260206000209060140201600a01819055506005600a898154811061303a5761303a614dc4565b60009182526020909120600b60149092020101805460ff1916600183600581111561306757613067613d8d565b021790555086600a898154811061308057613080614dc4565b60009182526020918290208351600c6014909302909101919091018054939092015160ff9081166101000261ffff199094169116179190911790555b50611213565b6000815160058111156130d7576130d7613d8d565b146112135784600a88815481106130f0576130f0614dc4565b90600052602060002090601402016009018190555085600a888154811061311957613119614dc4565b60009182526020918290208351600c6014909302909101919091018054939092015160ff9081166101000261ffff1990941691161791909117905560018151600581111561316957613169613d8d565b0361320a5761319a600a888154811061318457613184614dc4565b9060005260206000209060140201600d016136ee565b600a88815481106131ad576131ad614dc4565b9060005260206000209060140201600a01819055506001600a88815481106131d7576131d7614dc4565b60009182526020909120600b60149092020101805460ff1916600183600581111561320457613204613d8d565b02179055505b60028151600581111561321f5761321f613d8d565b036132c057613250600a888154811061323a5761323a614dc4565b9060005260206000209060140201600e016136ee565b600a888154811061326357613263614dc4565b9060005260206000209060140201600a01819055506002600a888154811061328d5761328d614dc4565b60009182526020909120600b60149092020101805460ff191660018360058111156132ba576132ba613d8d565b02179055505b6003815160058111156132d5576132d5613d8d565b0361337657613306600a88815481106132f0576132f0614dc4565b9060005260206000209060140201600f016136ee565b600a888154811061331957613319614dc4565b9060005260206000209060140201600a01819055506003600a888154811061334357613343614dc4565b60009182526020909120600b60149092020101805460ff1916600183600581111561337057613370613d8d565b02179055505b60048151600581111561338b5761338b613d8d565b03611213576133bc600a88815481106133a6576133a6614dc4565b90600052602060002090601402016010016136ee565b600a88815481106133cf576133cf614dc4565b9060005260206000209060140201600a01819055506004600a88815481106133f9576133f9614dc4565b60009182526020909120600b60149092020101805460ff1916600183600581111561342657613426613d8d565b021790555050505b5050505050565b6000600a838154811061344a5761344a614dc4565b6000918252602090912060055460149092020160098101546008820154600a830154600b840154604051636d291bbb60e01b81529496506001600160a01b0390951694636d291bbb946134b094899490938b939192600c8b019260ff1690600401615d23565b600060405180830381600087803b1580156134ca57600080fd5b505af11580156134de573d6000803e3d6000fd5b5050600060098401819055600a8401555050600b01805460ff191690555050565b6000600a838154811061351457613514614dc4565b6000918252602090912060055460405163065c363f60e41b815260048101869052601490930290910192506001600160a01b0316906365c363f090602401600060405180830381600087803b15801561356c57600080fd5b505af1158015613580573d6000803e3d6000fd5b50504260128401555050600281015461359b90600190615572565b816004015410156135c2576004810180549060006135b883615585565b9190505550505050565b6135d0838260080154613814565b60006004820155505050565b6000546001600160a01b031633146118bc5760405162461bcd60e51b815260206004820181905260248201527f4f776e61626c653a2063616c6c6572206973206e6f7420746865206f776e657260448201526064016114d4565b600080546001600160a01b038381166001600160a01b0319831681178455604051919092169283917f8be0079c531659141344cd1fd0a4f28419497f9722a3daafe3b4186f6b6457e09190a35050565b6000612a4f8383613992565b6060816000018054806020026020016040519081016040528092919081815260200182805480156136e257602002820191906000526020600020905b8154815260200190600101908083116136ce575b50505050509050919050565b8054600090819061370190600190615572565b90505b80156137b1576000613717600083612227565b9050838160ff168154811061372e5761372e614dc4565b906000526020600020015484838154811061374b5761374b614dc4565b906000526020600020015485848154811061376857613768614dc4565b906000526020600020016000878560ff168154811061378957613789614dc4565b60009182526020909120019290925591909155508190506137a98161559e565b915050613704565b50815460009083906137c590600190615572565b815481106137d5576137d5614dc4565b90600052602060002001549050828054806137f2576137f2615d78565b600190038181906000526020600020016000905590558060ff16915050919050565b6000600a838154811061382957613829614dc4565b9060005260206000209060140201905080600601600081548092919061384e90615585565b9091555050600254604051630b06115560e31b8152600481018490526001600160a01b03909116906358308aa890602401600060405180830381600087803b15801561389957600080fd5b505af11580156138ad573d6000803e3d6000fd5b505060025460405163c6b41b4560e01b815260048101869052600160248201526001600160a01b03909116925063c6b41b459150604401600060405180830381600087803b1580156138fe57600080fd5b505af1158015613912573d6000803e3d6000fd5b5050600554600884015460405163668a7f3b60e01b81526001600160a01b03909216935063668a7f3b925061394e916002860190600401615d8e565b600060405180830381600087803b15801561396857600080fd5b505af115801561397c573d6000803e3d6000fd5b5050825461ff0019166101001790925550505050565b60008181526001830160205260408120546139d957508154600181810184556000848152602080822090930184905584548482528286019093526040902091909155610dba565b506000610dba565b604051806101a001604052806139f5613a9a565b81526020016060815260200160608152602001606081526020016060815260200160608152602001606081526020016060815260200160608152602001606081526020016060815260200160608152602001606081525090565b828054828255906000526020600020908101928215613a8a579160200282015b82811115613a8a578251825591602001919060010190613a6f565b50613a96929150613ce0565b5090565b604051806102a00160405280600015158152602001600015158152602001600081526020016060815260200160608152602001600081526020016000815260200160008152602001613b196040518060800160405280600060ff168152602001600060ff168152602001600060ff168152602001600060ff1681525090565b815260200160008152602001600081526020016000815260200160006005811115613b4657613b46613d8d565b8152602001613b6e6040518060400160405280600060ff168152602001600060ff1681525090565b8152602001606081526020016060815260200160608152602001606081526020016000815260200160008152602001606081525090565b604051806101c0016040528060006001600160a01b031681526020016000815260200160008152602001613bd7613cf5565b8152602001613bff6040518060400160405280600060ff168152602001600060ff1681525090565b8152602001613c276040518060400160405280600060ff168152602001600060ff1681525090565b81526000602082018190526040820181905260608083018290526080830182905260a083015260c0820181905260e082018190526101009091015290565b604051806101400160405280600080191681526020016000815260200160008152602001613c91613cf5565b815260006020820181905260408201819052606082018190526080820181905260a0820181905260c09091015290565b604051806101e00160405280600f906020820280368337509192915050565b5b80821115613a965760008155600101613ce1565b6040805161010081018252600080825260208201819052918101829052606081018290526080810182905260a0810182905260c0810182905260e081019190915290565b600060208284031215613d4b57600080fd5b5035919050565b600081518084526020808501945080840160005b83811015613d8257815187529582019590820190600101613d66565b509495945050505050565b634e487b7160e01b600052602160045260246000fd5b60068110613db357613db3613d8d565b9052565b80511515825260006103206020830151613dd5602086018215159052565b50604083015160408501526060830151816060860152613df782860182613d52565b91505060808301518482036080860152613e118282613d52565b91505060a083015160a085015260c083015160c085015260e083015160e085015261010080840151613e728287018260ff815116825260ff602082015116602083015260ff604082015116604083015260ff60608201511660608301525050565b5050610120830151610180818187015261014085015191506101a0828188015261016086015192506101c083818901528287015193506101e09250613eb983890185613da3565b90860151925061020090613edf88830185805160ff908116835260209182015116910152565b8087015193505061024087850381890152613efa8585613d52565b9450828701519350610260925087850383890152613f188585613d52565b9450818701519350610280915087850382890152613f368585613d52565b945061022087015193508785036102a0890152613f538585613d52565b908701516102c0890152918601516102e088015285015186820361030088015290925090506122b58282613d52565b600081518084526020808501808196508360051b8101915082860160005b8581101561406a57828403895281518051808652908601908686019060005b81811015614055578351805160ff90811685528a820151168a8501526040808201519085019060005b60048110156140055781518352918c0191908c0190600101613fe8565b505050606081015160c061401c8187018315159052565b6080830151151560e087015260a08301511515610100870152909101511515610120850152509288019261014090920191600101613fbf565b50509986019994505090840190600101613fa0565b5091979650505050505050565b60058110612a3f57612a3f613d8d565b600081518084526020808501945080840160005b83811015613d82578151805160ff9081168952848201511684890152604090810151906140c782614077565b8801526060909601959082019060010161409b565b600081518084526020808501945080840160005b83811015613d82578151614105888251613da3565b808401518885015260408082015160ff908116918a01919091526060808301519091169089015260809081015115159088015260a090960195908201906001016140f0565b8051600081810b84526020830151810b60208501526040830151810b60408501526060830151810b60608501526080830151810b608085015260a0830151810b60a085015260c0830151810b60c0850152505060e0810151151560e08301525050565b600081518084526020808501945080840160005b83811015613d82578151805188528381015184890152604080820151908901526060808201516141f3828b018261414a565b5050608081015160ff9081166101608a015260a082015181166101808a015260c082015181166101a08a015260e0820151166101c089015261010081015115156101e0890152610120015161020088015261022090960195908201906001016141c1565b600081518084526020808501945080840160005b83811015613d8257815160ff168752958201959082019060010161426b565b600081518084526020808501808196508360051b8101915082860160005b8581101561406a578284038952815180516001600160a01b031685526102e08187015186880152604080830151908701526060808301516142eb8289018261414a565b5050608082015161016061431181890183805160ff908116835260209182015116910152565b60a084015191506101a0614337818a0184805160ff908116835260209182015116910152565b60c0850151925061434e6101e08a018460000b9052565b60e085015160ff9081166102008b015261010086015181166102208b0152610120860151166102408a01526101408501516102608a018590529250614395848a0184614257565b93508185015192506143ad6102808a018460ff169052565b61018085015115156102a08a0152909301516102c09097019690965299860199945050908401906001016142a8565b60098110613db357613db3613d8d565b600081518084526020808501945080840160005b83811015613d82578151805188528381015184890152604080820151614428828b01826143dc565b5050606081810151805160ff9081168b84015260208201511660808b01525050608081015160a0898101919091520151151560c088015260e09096019590820190600101614400565b60038110613db357613db3613d8d565b600b8110613db357613db3613d8d565b613db381614077565b600081518084526020808501945080840160005b83811015613d8257815180518852838101518489015260408082015190890152606080820151908901526080808201516001600160a01b03169089015260a0808201519089015260c080820151614507828b0182614471565b505060e08181015160ff81168a83015250506101008181015160ff81168a83015250506101208082015161453d828b0182614481565b50506101408181015160ff169089015261016080820151908901526101808082015161456b828b0182614491565b50506101a090810151805160ff908116928a019290925260200151166101c08801526101e090960195908201906001016144ae565b600081518084526020808501808196508360051b8101915082860160005b8581101561406a5782840389526145d684835161449a565b988501989350908401906001016145be565b60208152600082516101a08060208501526146076101c0850183613db7565b91506020850151601f19808685030160408701526146258483613f82565b935060408701519150808685030160608701526146428483614087565b9350606087015191508086850301608087015261465f84836140dc565b935060808701519150808685030160a087015261467c84836141ad565b935060a08701519150808685030160c0870152614699848361428a565b935060c08701519150808685030160e08701526146b684836143ec565b935060e087015191506101008187860301818801526146d585846145a0565b9450808801519250506101208187860301818801526146f4858461449a565b9450808801519250506101408187860301818801526147138584613d52565b9450808801519250506101608187860301818801526147328584613d52565b9450808801519250506101808187860301818801526147518584613d52565b90880151878203909201848801529350905061476d8382613d52565b9695505050505050565b602081526000612a4f6020830184613d52565b6000610240820190508f151582528e151560208301528d60408301528c60608301528b60808301528a60a08301526147f260c083018b60ff815116825260ff602082015116602083015260ff604082015116604083015260ff60608201511660608301525050565b8861014083015287610160830152866101808301526148156101a0830187613da3565b845160ff9081166101c08401526020860151166101e083015261020082019390935261022001529c9b505050505050505050505050565b634e487b7160e01b600052604160045260246000fd5b604080519081016001600160401b03811182821017156148845761488461484c565b60405290565b60405160e081016001600160401b03811182821017156148845761488461484c565b604051606081016001600160401b03811182821017156148845761488461484c565b6040516101c081016001600160401b03811182821017156148845761488461484c565b60405161014081016001600160401b03811182821017156148845761488461484c565b60405160c081016001600160401b03811182821017156148845761488461484c565b604051601f8201601f191681016001600160401b038111828210171561495e5761495e61484c565b604052919050565b60ff81168114612a3f57600080fd5b60006040828403121561498757600080fd5b61498f614862565b9050813561499c81614966565b815260208201356149ac81614966565b602082015292915050565b6000806000608084860312156149cc57600080fd5b833592506149dd8560208601614975565b9150606084013590509250925092565b60098110612a3f57600080fd5b60008060008060808587031215614a1057600080fd5b843593506020850135614a22816149ed565b93969395505050506040820135916060013590565b60008060008060808587031215614a4d57600080fd5b5050823594602084013594506040840135936060013592509050565b60008060408385031215614a7c57600080fd5b50508035926020909101359150565b602081526000612a4f6020830184613db7565b602081526000612a4f602083018461428a565b60008060008060a08587031215614ac757600080fd5b84359350614ad88660208701614975565b93969395505050506060820135916080013590565b6001600160a01b0381168114612a3f57600080fd5b600080600080600080600080610100898b031215614b1f57600080fd5b8835614b2a81614aed565b97506020890135614b3a81614aed565b96506040890135614b4a81614aed565b95506060890135614b5a81614aed565b94506080890135614b6a81614aed565b935060a0890135614b7a81614aed565b925060c0890135614b8a81614aed565b915060e0890135614b9a81614aed565b809150509295985092959890939650565b60008060408385031215614bbe57600080fd5b8235614bc981614aed565b946020939093013593505050565b8015158114612a3f57600080fd5b600080600060608486031215614bfa57600080fd5b83359250602084013591506040840135614c1381614bd7565b809150509250925092565b600060208284031215614c3057600080fd5b8135612a4f81614aed565b6000602080830181845280855180835260408601915060408160051b870101925083870160005b82811015614c9057603f19888603018452614c7e858351613db7565b94509285019290850190600101614c62565b5092979650505050505050565b602081526000612a4f60208301846141ad565b60008060408385031215614cc357600080fd5b8235614cce81614966565b91506020830135614cde81614966565b809150509250929050565b602081526000612a4f60208301846143ec565b60006001600160401b03821115614d1557614d1561484c565b5060051b60200190565b600080600060608486031215614d3457600080fd5b83356001600160401b03811115614d4a57600080fd5b8401601f81018613614d5b57600080fd5b80356020614d70614d6b83614cfc565b614936565b82815260059290921b83018101918181019089841115614d8f57600080fd5b938201935b83851015614dad57843582529382019390820190614d94565b999188013598505060409096013595945050505050565b634e487b7160e01b600052603260045260246000fd5b8051614de581614966565b919050565b600082601f830112614dfb57600080fd5b604051608081018181106001600160401b0382111715614e1d57614e1d61484c565b604052806080840185811115614e3257600080fd5b845b81811015614e4c578051835260209283019201614e34565b509195945050505050565b8051614de581614bd7565b60006020808385031215614e7557600080fd5b82516001600160401b0380821115614e8c57600080fd5b818501915085601f830112614ea057600080fd5b8151614eae614d6b82614cfc565b81815260059190911b83018401908481019088831115614ecd57600080fd5b8585015b83811015614fea57805185811115614ee857600080fd5b8601603f81018b13614ef957600080fd5b87810151614f09614d6b82614cfc565b818152610140909102820160400190898101908d831115614f2957600080fd5b6040840193505b82841015614fda57610140848f031215614f4957600080fd5b614f5161488a565b8451614f5c81614966565b8152848c0151614f6b81614966565b818d0152614f7c8f60408701614dea565b6040820152614f8d60c08601614e57565b6060820152614f9e60e08601614e57565b6080820152614fb06101008601614e57565b60a0820152614fc26101208601614e57565b60c082015282526101409390930192908a0190614f30565b8652505050918601918601614ed1565b5098975050505050505050565b60058110612a3f57600080fd5b8051614de581614ff7565b6000602080838503121561502257600080fd5b82516001600160401b0381111561503857600080fd5b8301601f8101851361504957600080fd5b8051615057614d6b82614cfc565b8181526060918202830184019184820191908884111561507657600080fd5b938501935b838510156150db5780858a0312156150935760008081fd5b61509b6148ac565b85516150a681614966565b8152858701516150b581614966565b818801526040868101516150c881614ff7565b908201528352938401939185019161507b565b50979650505050505050565b600060a082840312156150f957600080fd5b60405160a081018181106001600160401b038211171561511b5761511b61484c565b806040525080915082516006811061513257600080fd5b815260208381015190820152604083015161514c81614966565b6040820152606083015161515f81614966565b6060820152608083015161517281614bd7565b6080919091015292915050565b6000602080838503121561519257600080fd5b82516001600160401b038111156151a857600080fd5b8301601f810185136151b957600080fd5b80516151c7614d6b82614cfc565b81815260a091820283018401918482019190888411156151e657600080fd5b938501935b838510156150db576151fd89866150e7565b835293840193918501916151eb565b8051614de581614aed565b805160038110614de557600080fd5b8051600b8110614de557600080fd5b60006040828403121561524757600080fd5b61524f614862565b9050815161525c81614966565b815260208201516149ac81614966565b600082601f83011261527d57600080fd5b8151602061528d614d6b83614cfc565b8281526101e092830285018201928282019190878511156152ad57600080fd5b8387015b858110156153a15781818a0312156152c95760008081fd5b6152d16148ce565b815181528582015186820152604080830151908201526060808301519082015260806152fe81840161520c565b9082015260a0828101519082015260c0615319818401615217565b9082015260e061532a838201614dda565b9082015261010061533c838201614dda565b9082015261012061534e838201615226565b90820152610140615360838201614dda565b90820152610160828101519082015261018061537d818401615004565b908201526101a06153908b848301615235565b9082015284529284019281016152b1565b5090979650505050505050565b600060208083850312156153c157600080fd5b82516001600160401b03808211156153d857600080fd5b818501915085601f8301126153ec57600080fd5b81516153fa614d6b82614cfc565b81815260059190911b8301840190848101908883111561541957600080fd5b8585015b83811015614fea578051858111156154355760008081fd5b6154438b89838a010161526c565b84525091860191860161541d565b60006020828403121561546357600080fd5b81516001600160401b0381111561547957600080fd5b6154858482850161526c565b949350505050565b600060208083850312156154a057600080fd5b82516001600160401b038111156154b657600080fd5b8301601f810185136154c757600080fd5b80516154d5614d6b82614cfc565b81815260059190911b820183019083810190878311156154f457600080fd5b928401925b82841015615512578351825292840192908401906154f9565b979650505050505050565b8481526080810161553160208301866143dc565b60408201939093526060015292915050565b60006020828403121561555557600080fd5b5051919050565b634e487b7160e01b600052601160045260246000fd5b81810381811115610dba57610dba61555c565b6000600182016155975761559761555c565b5060010190565b6000816155ad576155ad61555c565b506000190190565b80820180821115610dba57610dba61555c565b6000602082840312156155da57600080fd5b8151612a4f81614aed565b8051600081900b8114614de557600080fd5b600061010080838503121561560b57600080fd5b604051908101906001600160401b038211818310171561562d5761562d61484c565b8160405280925061563d846155e5565b815261564b602085016155e5565b602082015261565c604085016155e5565b604082015261566d606085016155e5565b606082015261567e608085016155e5565b608082015261568f60a085016155e5565b60a08201526156a060c085016155e5565b60c082015260e084015191506156b582614bd7565b60e0015292915050565b600082601f8301126156d057600080fd5b815160206156e0614d6b83614cfc565b82815260059290921b840181019181810190868411156156ff57600080fd5b8286015b8481101561572357805161571681614966565b8352918301918301615703565b509695505050505050565b60006020828403121561574057600080fd5b81516001600160401b038082111561575757600080fd5b908301906102e0828603121561576c57600080fd5b6157746148ce565b61577d8361520c565b815260208301516020820152604083015160408201526157a086606085016155f7565b60608201526101606157b487828601615235565b60808301526101a06157c888828701615235565b60a08401526157da6101e086016155e5565b60c08401526157ec6102008601614dda565b60e08401526157fe6102208601614dda565b6101008401526158116102408601614dda565b6101208401526102608501518481111561582a57600080fd5b615836898288016156bf565b6101408501525061584a6102808601614dda565b8284015261585b6102a08601614e57565b6101808401526102c085015181840152505080935050505092915050565b6000610220828403121561588c57600080fd5b6158946148f1565b8251815260208301516020820152604083015160408201526158b984606085016155f7565b60608201526158cb6101608401614dda565b60808201526158dd6101808401614dda565b60a08201526158ef6101a08401614dda565b60c08201526159016101c08401614dda565b60e08201526159136101e08401614e57565b610100820152610200929092015161012083015250919050565b60ff8281168282160390811115610dba57610dba61555c565b60ff8181168382160190811115610dba57610dba61555c565b60008261597c57634e487b7160e01b600052601260045260246000fd5b500690565b6000815480845260208085019450836000528060002060005b83811015613d825781548752958201956001918201910161599a565b602081526000612a4f6020830184615981565b600060208083850312156159dc57600080fd5b82516001600160401b038111156159f257600080fd5b8301601f81018513615a0357600080fd5b8051615a11614d6b82614cfc565b81815260e09182028301840191848201919088841115615a3057600080fd5b938501935b838510156150db5780858a031215615a4d5760008081fd5b615a55614914565b855181528686015187820152604080870151615a70816149ed565b908201526060615a828b888301615235565b9082015260a086810151608083015260c0870151615a9f81614bd7565b9082015283529384019391850191615a35565b848152836020820152608060408201526000615ad16080830185615981565b82810360608401526155128185615981565b604081526000615af66040830185613d52565b90508260208301529392505050565b8281526040602082015260006154856040830184613d52565b60808101615b3c8286805160ff908116835260209182015116910152565b604082019390935260600152919050565b600060208284031215615b5f57600080fd5b8151612a4f81614bd7565b600060a08284031215615b7c57600080fd5b612a4f83836150e7565b600060ff821660ff8103615b9c57615b9c61555c565b60010192915050565b600082601f830112615bb657600080fd5b81516020615bc6614d6b83614cfc565b82815260069290921b84018101918181019086841115615be557600080fd5b8286015b848110156157235760408189031215615c025760008081fd5b615c0a614862565b815160178110615c1a5760008081fd5b81528185015185820152835291830191604001615be9565b600060208284031215615c4457600080fd5b81516001600160401b0380821115615c5b57600080fd5b9083019060e08286031215615c6f57600080fd5b615c7761488a565b82518152615c8760208401614e57565b6020820152615c9860408401614dda565b6040820152615ca960608401614dda565b6060820152608083015182811115615cc057600080fd5b615ccc87828601615ba5565b60808301525060a083015182811115615ce457600080fd5b615cf087828601615ba5565b60a08301525060c083015182811115615d0857600080fd5b615d1487828601615ba5565b60c08301525095945050505050565b600061010082019050888252876020830152866040830152856060830152845460ff8116608084015260ff8160081c1660a0840152508360c0830152615d6c60e0830184613da3565b98975050505050505050565b634e487b7160e01b600052603160045260246000fd5b828152604060208201526000615485604083018461598156fea264697066735822122093732b67f6c6f26379211d92c4323c85f5155e9eab1d5280cb1dfa5d481c4f9f64736f6c63430008110033",
  "devdoc": {
    "kind": "dev",
    "methods": {
      "owner()": {
        "details": "Returns the address of the current owner."
      },
      "renounceOwnership()": {
        "details": "Leaves the contract without owner. It will not be possible to call `onlyOwner` functions anymore. Can only be called by the current owner. NOTE: Renouncing ownership will leave the contract without an owner, thereby removing any functionality that is only available to the owner."
      },
      "transferOwnership(address)": {
        "details": "Transfers ownership of the contract to a new account (`newOwner`). Can only be called by the current owner."
      }
    },
    "version": 1
  },
  "userdoc": {
    "kind": "user",
    "methods": {},
    "version": 1
  },
  "storageLayout": {
    "storage": [
      {
        "astId": 7,
        "contract": "contracts/BCGames.sol:BCGames",
        "label": "_owner",
        "offset": 0,
        "slot": "0",
        "type": "t_address"
      },
      {
        "astId": 11661,
        "contract": "contracts/BCGames.sol:BCGames",
        "label": "chars",
        "offset": 0,
        "slot": "1",
        "type": "t_contract(CharInterface)11313"
      },
      {
        "astId": 11664,
        "contract": "contracts/BCGames.sol:BCGames",
        "label": "maps",
        "offset": 0,
        "slot": "2",
        "type": "t_contract(MapInterface)11500"
      },
      {
        "astId": 11667,
        "contract": "contracts/BCGames.sol:BCGames",
        "label": "bcEvents",
        "offset": 0,
        "slot": "3",
        "type": "t_contract(EventsInterface)11287"
      },
      {
        "astId": 11670,
        "contract": "contracts/BCGames.sol:BCGames",
        "label": "items",
        "offset": 0,
        "slot": "4",
        "type": "t_contract(ItemsInterface)11548"
      },
      {
        "astId": 11673,
        "contract": "contracts/BCGames.sol:BCGames",
        "label": "players",
        "offset": 0,
        "slot": "5",
        "type": "t_contract(PlayersInterface)11652"
      },
      {
        "astId": 11676,
        "contract": "contracts/BCGames.sol:BCGames",
        "label": "denizens",
        "offset": 0,
        "slot": "6",
        "type": "t_contract(DenizensInterface)11254"
      },
      {
        "astId": 11679,
        "contract": "contracts/BCGames.sol:BCGames",
        "label": "actions",
        "offset": 0,
        "slot": "7",
        "type": "t_contract(ActionsInterface)11208"
      },
      {
        "astId": 11681,
        "contract": "contracts/BCGames.sol:BCGames",
        "label": "lobbiesAddress",
        "offset": 0,
        "slot": "8",
        "type": "t_address"
      },
      {
        "astId": 11683,
        "contract": "contracts/BCGames.sol:BCGames",
        "label": "charsAddress",
        "offset": 0,
        "slot": "9",
        "type": "t_address"
      },
      {
        "astId": 11792,
        "contract": "contracts/BCGames.sol:BCGames",
        "label": "games",
        "offset": 0,
        "slot": "10",
        "type": "t_array(t_struct(Game)21164_storage)dyn_storage"
      },
      {
        "astId": 11797,
        "contract": "contracts/BCGames.sol:BCGames",
        "label": "addressToGame",
        "offset": 0,
        "slot": "11",
        "type": "t_mapping(t_address,t_array(t_uint256)dyn_storage)"
      },
      {
        "astId": 11802,
        "contract": "contracts/BCGames.sol:BCGames",
        "label": "gameToEventBlocks",
        "offset": 0,
        "slot": "12",
        "type": "t_mapping(t_uint256,t_struct(UintSet)2262_storage)"
      }
    ],
    "types": {
      "t_address": {
        "encoding": "inplace",
        "label": "address",
        "numberOfBytes": "20"
      },
      "t_array(t_bytes32)dyn_storage": {
        "base": "t_bytes32",
        "encoding": "dynamic_array",
        "label": "bytes32[]",
        "numberOfBytes": "32"
      },
      "t_array(t_struct(Game)21164_storage)dyn_storage": {
        "base": "t_struct(Game)21164_storage",
        "encoding": "dynamic_array",
        "label": "struct BCTypes.Game[]",
        "numberOfBytes": "32"
      },
      "t_array(t_uint256)dyn_storage": {
        "base": "t_uint256",
        "encoding": "dynamic_array",
        "label": "uint256[]",
        "numberOfBytes": "32"
      },
      "t_bool": {
        "encoding": "inplace",
        "label": "bool",
        "numberOfBytes": "1"
      },
      "t_bytes32": {
        "encoding": "inplace",
        "label": "bytes32",
        "numberOfBytes": "32"
      },
      "t_contract(ActionsInterface)11208": {
        "encoding": "inplace",
        "label": "contract ActionsInterface",
        "numberOfBytes": "20"
      },
      "t_contract(CharInterface)11313": {
        "encoding": "inplace",
        "label": "contract CharInterface",
        "numberOfBytes": "20"
      },
      "t_contract(DenizensInterface)11254": {
        "encoding": "inplace",
        "label": "contract DenizensInterface",
        "numberOfBytes": "20"
      },
      "t_contract(EventsInterface)11287": {
        "encoding": "inplace",
        "label": "contract EventsInterface",
        "numberOfBytes": "20"
      },
      "t_contract(ItemsInterface)11548": {
        "encoding": "inplace",
        "label": "contract ItemsInterface",
        "numberOfBytes": "20"
      },
      "t_contract(MapInterface)11500": {
        "encoding": "inplace",
        "label": "contract MapInterface",
        "numberOfBytes": "20"
      },
      "t_contract(PlayersInterface)11652": {
        "encoding": "inplace",
        "label": "contract PlayersInterface",
        "numberOfBytes": "20"
      },
      "t_enum(BCEventType)20917": {
        "encoding": "inplace",
        "label": "enum BCTypes.BCEventType",
        "numberOfBytes": "1"
      },
      "t_mapping(t_address,t_array(t_uint256)dyn_storage)": {
        "encoding": "mapping",
        "key": "t_address",
        "label": "mapping(address => uint256[])",
        "numberOfBytes": "32",
        "value": "t_array(t_uint256)dyn_storage"
      },
      "t_mapping(t_bytes32,t_uint256)": {
        "encoding": "mapping",
        "key": "t_bytes32",
        "label": "mapping(bytes32 => uint256)",
        "numberOfBytes": "32",
        "value": "t_uint256"
      },
      "t_mapping(t_uint256,t_struct(UintSet)2262_storage)": {
        "encoding": "mapping",
        "key": "t_uint256",
        "label": "mapping(uint256 => struct EnumerableSet.UintSet)",
        "numberOfBytes": "32",
        "value": "t_struct(UintSet)2262_storage"
      },
      "t_struct(EventTracker)21056_storage": {
        "encoding": "inplace",
        "label": "struct BCTypes.EventTracker",
        "members": [
          {
            "astId": 21049,
            "contract": "contracts/BCGames.sol:BCGames",
            "label": "bugEvents",
            "offset": 0,
            "slot": "0",
            "type": "t_uint8"
          },
          {
            "astId": 21051,
            "contract": "contracts/BCGames.sol:BCGames",
            "label": "mysteryEvents",
            "offset": 1,
            "slot": "0",
            "type": "t_uint8"
          },
          {
            "astId": 21053,
            "contract": "contracts/BCGames.sol:BCGames",
            "label": "scavEvents",
            "offset": 2,
            "slot": "0",
            "type": "t_uint8"
          },
          {
            "astId": 21055,
            "contract": "contracts/BCGames.sol:BCGames",
            "label": "shipEvents",
            "offset": 3,
            "slot": "0",
            "type": "t_uint8"
          }
        ],
        "numberOfBytes": "32"
      },
      "t_struct(Game)21164_storage": {
        "encoding": "inplace",
        "label": "struct BCTypes.Game",
        "members": [
          {
            "astId": 21113,
            "contract": "contracts/BCGames.sol:BCGames",
            "label": "active",
            "offset": 0,
            "slot": "0",
            "type": "t_bool"
          },
          {
            "astId": 21115,
            "contract": "contracts/BCGames.sol:BCGames",
            "label": "denizenTurn",
            "offset": 1,
            "slot": "0",
            "type": "t_bool"
          },
          {
            "astId": 21117,
            "contract": "contracts/BCGames.sol:BCGames",
            "label": "gameId",
            "offset": 0,
            "slot": "1",
            "type": "t_uint256"
          },
          {
            "astId": 21120,
            "contract": "contracts/BCGames.sol:BCGames",
            "label": "playerIndexes",
            "offset": 0,
            "slot": "2",
            "type": "t_array(t_uint256)dyn_storage"
          },
          {
            "astId": 21123,
            "contract": "contracts/BCGames.sol:BCGames",
            "label": "charIds",
            "offset": 0,
            "slot": "3",
            "type": "t_array(t_uint256)dyn_storage"
          },
          {
            "astId": 21125,
            "contract": "contracts/BCGames.sol:BCGames",
            "label": "currentPlayerTurnIndex",
            "offset": 0,
            "slot": "4",
            "type": "t_uint256"
          },
          {
            "astId": 21127,
            "contract": "contracts/BCGames.sol:BCGames",
            "label": "numPlayers",
            "offset": 0,
            "slot": "5",
            "type": "t_uint256"
          },
          {
            "astId": 21129,
            "contract": "contracts/BCGames.sol:BCGames",
            "label": "turnsTaken",
            "offset": 0,
            "slot": "6",
            "type": "t_uint256"
          },
          {
            "astId": 21132,
            "contract": "contracts/BCGames.sol:BCGames",
            "label": "eventTracker",
            "offset": 0,
            "slot": "7",
            "type": "t_struct(EventTracker)21056_storage"
          },
          {
            "astId": 21134,
            "contract": "contracts/BCGames.sol:BCGames",
            "label": "mapId",
            "offset": 0,
            "slot": "8",
            "type": "t_uint256"
          },
          {
            "astId": 21136,
            "contract": "contracts/BCGames.sol:BCGames",
            "label": "eventPlayerId",
            "offset": 0,
            "slot": "9",
            "type": "t_uint256"
          },
          {
            "astId": 21138,
            "contract": "contracts/BCGames.sol:BCGames",
            "label": "eventNumber",
            "offset": 0,
            "slot": "10",
            "type": "t_uint256"
          },
          {
            "astId": 21141,
            "contract": "contracts/BCGames.sol:BCGames",
            "label": "eventType",
            "offset": 0,
            "slot": "11",
            "type": "t_enum(BCEventType)20917"
          },
          {
            "astId": 21144,
            "contract": "contracts/BCGames.sol:BCGames",
            "label": "eventPosition",
            "offset": 0,
            "slot": "12",
            "type": "t_struct(Position)21061_storage"
          },
          {
            "astId": 21147,
            "contract": "contracts/BCGames.sol:BCGames",
            "label": "unusedBugEvents",
            "offset": 0,
            "slot": "13",
            "type": "t_array(t_uint256)dyn_storage"
          },
          {
            "astId": 21150,
            "contract": "contracts/BCGames.sol:BCGames",
            "label": "unusedMysteryEvents",
            "offset": 0,
            "slot": "14",
            "type": "t_array(t_uint256)dyn_storage"
          },
          {
            "astId": 21153,
            "contract": "contracts/BCGames.sol:BCGames",
            "label": "unusedScavEvents",
            "offset": 0,
            "slot": "15",
            "type": "t_array(t_uint256)dyn_storage"
          },
          {
            "astId": 21156,
            "contract": "contracts/BCGames.sol:BCGames",
            "label": "unusedShipEvents",
            "offset": 0,
            "slot": "16",
            "type": "t_array(t_uint256)dyn_storage"
          },
          {
            "astId": 21158,
            "contract": "contracts/BCGames.sol:BCGames",
            "label": "turnTimeLimit",
            "offset": 0,
            "slot": "17",
            "type": "t_uint256"
          },
          {
            "astId": 21160,
            "contract": "contracts/BCGames.sol:BCGames",
            "label": "lastTurnTimestamp",
            "offset": 0,
            "slot": "18",
            "type": "t_uint256"
          },
          {
            "astId": 21163,
            "contract": "contracts/BCGames.sol:BCGames",
            "label": "denizenIds",
            "offset": 0,
            "slot": "19",
            "type": "t_array(t_uint256)dyn_storage"
          }
        ],
        "numberOfBytes": "640"
      },
      "t_struct(Position)21061_storage": {
        "encoding": "inplace",
        "label": "struct BCTypes.Position",
        "members": [
          {
            "astId": 21058,
            "contract": "contracts/BCGames.sol:BCGames",
            "label": "row",
            "offset": 0,
            "slot": "0",
            "type": "t_uint8"
          },
          {
            "astId": 21060,
            "contract": "contracts/BCGames.sol:BCGames",
            "label": "col",
            "offset": 1,
            "slot": "0",
            "type": "t_uint8"
          }
        ],
        "numberOfBytes": "32"
      },
      "t_struct(Set)1804_storage": {
        "encoding": "inplace",
        "label": "struct EnumerableSet.Set",
        "members": [
          {
            "astId": 1799,
            "contract": "contracts/BCGames.sol:BCGames",
            "label": "_values",
            "offset": 0,
            "slot": "0",
            "type": "t_array(t_bytes32)dyn_storage"
          },
          {
            "astId": 1803,
            "contract": "contracts/BCGames.sol:BCGames",
            "label": "_indexes",
            "offset": 0,
            "slot": "1",
            "type": "t_mapping(t_bytes32,t_uint256)"
          }
        ],
        "numberOfBytes": "64"
      },
      "t_struct(UintSet)2262_storage": {
        "encoding": "inplace",
        "label": "struct EnumerableSet.UintSet",
        "members": [
          {
            "astId": 2261,
            "contract": "contracts/BCGames.sol:BCGames",
            "label": "_inner",
            "offset": 0,
            "slot": "0",
            "type": "t_struct(Set)1804_storage"
          }
        ],
        "numberOfBytes": "64"
      },
      "t_uint256": {
        "encoding": "inplace",
        "label": "uint256",
        "numberOfBytes": "32"
      },
      "t_uint8": {
        "encoding": "inplace",
        "label": "uint8",
        "numberOfBytes": "1"
      }
    }
  }
}