{
  "address": "0x8148D9792e9329cE021b859Ba8F4e08DeE79932B",
  "abi": [
    {
      "inputs": [],
      "stateMutability": "nonpayable",
      "type": "constructor"
    },
    {
      "anonymous": false,
      "inputs": [
        {
          "indexed": false,
          "internalType": "uint256",
          "name": "gameId",
          "type": "uint256"
        },
        {
          "indexed": false,
          "internalType": "uint256",
          "name": "roll",
          "type": "uint256"
        },
        {
          "indexed": false,
          "internalType": "uint256",
          "name": "forValue",
          "type": "uint256"
        },
        {
          "indexed": false,
          "internalType": "uint256",
          "name": "against",
          "type": "uint256"
        }
      ],
      "name": "ChallengeEvent",
      "type": "event"
    },
    {
      "anonymous": false,
      "inputs": [
        {
          "indexed": false,
          "internalType": "enum BCTypes.DenizenType",
          "name": "denizenType",
          "type": "uint8"
        },
        {
          "indexed": false,
          "internalType": "uint256",
          "name": "_playerTarget",
          "type": "uint256"
        },
        {
          "indexed": false,
          "internalType": "uint256",
          "name": "_damage",
          "type": "uint256"
        },
        {
          "indexed": false,
          "internalType": "uint256",
          "name": "_turnabout",
          "type": "uint256"
        }
      ],
      "name": "DenizenAttack",
      "type": "event"
    },
    {
      "anonymous": false,
      "inputs": [
        {
          "indexed": false,
          "internalType": "uint256",
          "name": "gameId",
          "type": "uint256"
        },
        {
          "indexed": false,
          "internalType": "uint256",
          "name": "roll",
          "type": "uint256"
        }
      ],
      "name": "DiceRollEvent",
      "type": "event"
    },
    {
      "anonymous": false,
      "inputs": [
        {
          "indexed": true,
          "internalType": "address",
          "name": "previousOwner",
          "type": "address"
        },
        {
          "indexed": true,
          "internalType": "address",
          "name": "newOwner",
          "type": "address"
        }
      ],
      "name": "OwnershipTransferred",
      "type": "event"
    },
    {
      "inputs": [
        {
          "internalType": "uint256",
          "name": "_gameId",
          "type": "uint256"
        },
        {
          "internalType": "enum BCTypes.DenizenType",
          "name": "_denizenType",
          "type": "uint8"
        },
        {
          "internalType": "uint256",
          "name": "_row",
          "type": "uint256"
        },
        {
          "internalType": "uint256",
          "name": "_col",
          "type": "uint256"
        }
      ],
      "name": "DEBUGforceSpawnDenizen",
      "outputs": [],
      "stateMutability": "nonpayable",
      "type": "function"
    },
    {
      "inputs": [],
      "name": "StartLocation",
      "outputs": [
        {
          "internalType": "uint8",
          "name": "row",
          "type": "uint8"
        },
        {
          "internalType": "uint8",
          "name": "col",
          "type": "uint8"
        }
      ],
      "stateMutability": "view",
      "type": "function"
    },
    {
      "inputs": [
        {
          "internalType": "int256",
          "name": "x",
          "type": "int256"
        }
      ],
      "name": "abs",
      "outputs": [
        {
          "internalType": "int256",
          "name": "",
          "type": "int256"
        }
      ],
      "stateMutability": "pure",
      "type": "function"
    },
    {
      "inputs": [],
      "name": "actionsAddress",
      "outputs": [
        {
          "internalType": "address",
          "name": "",
          "type": "address"
        }
      ],
      "stateMutability": "view",
      "type": "function"
    },
    {
      "inputs": [
        {
          "internalType": "uint256",
          "name": "_gameId",
          "type": "uint256"
        },
        {
          "internalType": "enum BCTypes.DenizenType",
          "name": "_type",
          "type": "uint8"
        },
        {
          "internalType": "uint256",
          "name": "_row",
          "type": "uint256"
        },
        {
          "internalType": "uint256",
          "name": "_col",
          "type": "uint256"
        }
      ],
      "name": "addDenizen",
      "outputs": [],
      "stateMutability": "nonpayable",
      "type": "function"
    },
    {
      "inputs": [
        {
          "internalType": "address",
          "name": "",
          "type": "address"
        },
        {
          "internalType": "uint256",
          "name": "",
          "type": "uint256"
        }
      ],
      "name": "addressToGame",
      "outputs": [
        {
          "internalType": "uint256",
          "name": "",
          "type": "uint256"
        }
      ],
      "stateMutability": "view",
      "type": "function"
    },
    {
      "inputs": [],
      "name": "bcEvents",
      "outputs": [
        {
          "internalType": "contract EventsInterface",
          "name": "",
          "type": "address"
        }
      ],
      "stateMutability": "view",
      "type": "function"
    },
    {
      "inputs": [],
      "name": "chars",
      "outputs": [
        {
          "internalType": "contract CharInterface",
          "name": "",
          "type": "address"
        }
      ],
      "stateMutability": "view",
      "type": "function"
    },
    {
      "inputs": [],
      "name": "charsAddress",
      "outputs": [
        {
          "internalType": "address",
          "name": "",
          "type": "address"
        }
      ],
      "stateMutability": "view",
      "type": "function"
    },
    {
      "inputs": [
        {
          "internalType": "uint256",
          "name": "_gameId",
          "type": "uint256"
        },
        {
          "components": [
            {
              "internalType": "uint8",
              "name": "row",
              "type": "uint8"
            },
            {
              "internalType": "uint8",
              "name": "col",
              "type": "uint8"
            }
          ],
          "internalType": "struct BCTypes.Position",
          "name": "_position",
          "type": "tuple"
        },
        {
          "internalType": "uint256",
          "name": "_playerId",
          "type": "uint256"
        },
        {
          "internalType": "uint256",
          "name": "_debugRoomId",
          "type": "uint256"
        }
      ],
      "name": "debugMovePlayer",
      "outputs": [],
      "stateMutability": "nonpayable",
      "type": "function"
    },
    {
      "inputs": [
        {
          "internalType": "enum BCTypes.DenizenType",
          "name": "",
          "type": "uint8"
        }
      ],
      "name": "denizenDef",
      "outputs": [
        {
          "internalType": "uint256",
          "name": "",
          "type": "uint256"
        }
      ],
      "stateMutability": "view",
      "type": "function"
    },
    {
      "inputs": [
        {
          "internalType": "enum BCTypes.DenizenType",
          "name": "",
          "type": "uint8"
        }
      ],
      "name": "denizenDmg",
      "outputs": [
        {
          "internalType": "uint256",
          "name": "",
          "type": "uint256"
        }
      ],
      "stateMutability": "view",
      "type": "function"
    },
    {
      "inputs": [
        {
          "internalType": "enum BCTypes.DenizenType",
          "name": "",
          "type": "uint8"
        }
      ],
      "name": "denizenHealth",
      "outputs": [
        {
          "internalType": "uint256",
          "name": "",
          "type": "uint256"
        }
      ],
      "stateMutability": "view",
      "type": "function"
    },
    {
      "inputs": [
        {
          "internalType": "enum BCTypes.DenizenType",
          "name": "",
          "type": "uint8"
        }
      ],
      "name": "denizenMovement",
      "outputs": [
        {
          "internalType": "uint256",
          "name": "",
          "type": "uint256"
        }
      ],
      "stateMutability": "view",
      "type": "function"
    },
    {
      "inputs": [
        {
          "internalType": "enum BCTypes.DenizenType",
          "name": "",
          "type": "uint8"
        }
      ],
      "name": "denizenOff",
      "outputs": [
        {
          "internalType": "uint256",
          "name": "",
          "type": "uint256"
        }
      ],
      "stateMutability": "view",
      "type": "function"
    },
    {
      "inputs": [
        {
          "internalType": "uint256",
          "name": "_gameId",
          "type": "uint256"
        },
        {
          "internalType": "uint256",
          "name": "_playerId",
          "type": "uint256"
        },
        {
          "internalType": "bool",
          "name": "_free",
          "type": "bool"
        }
      ],
      "name": "endPlayerAction",
      "outputs": [],
      "stateMutability": "nonpayable",
      "type": "function"
    },
    {
      "inputs": [
        {
          "internalType": "uint256",
          "name": "_id",
          "type": "uint256"
        }
      ],
      "name": "extGetGame",
      "outputs": [
        {
          "components": [
            {
              "internalType": "bool",
              "name": "active",
              "type": "bool"
            },
            {
              "internalType": "bool",
              "name": "denizenTurn",
              "type": "bool"
            },
            {
              "internalType": "uint256[]",
              "name": "playerIndexes",
              "type": "uint256[]"
            },
            {
              "internalType": "uint256",
              "name": "currentPlayerTurnIndex",
              "type": "uint256"
            },
            {
              "internalType": "uint256",
              "name": "numPlayers",
              "type": "uint256"
            },
            {
              "internalType": "uint256",
              "name": "turnsTaken",
              "type": "uint256"
            },
            {
              "components": [
                {
                  "internalType": "uint8",
                  "name": "bugEvents",
                  "type": "uint8"
                },
                {
                  "internalType": "uint8",
                  "name": "mysteryEvents",
                  "type": "uint8"
                },
                {
                  "internalType": "uint8",
                  "name": "scavEvents",
                  "type": "uint8"
                },
                {
                  "internalType": "uint8",
                  "name": "shipEvents",
                  "type": "uint8"
                }
              ],
              "internalType": "struct BCTypes.EventTracker",
              "name": "eventTracker",
              "type": "tuple"
            },
            {
              "internalType": "uint256",
              "name": "mapId",
              "type": "uint256"
            },
            {
              "internalType": "uint256",
              "name": "eventPlayerId",
              "type": "uint256"
            },
            {
              "internalType": "uint256",
              "name": "eventNumber",
              "type": "uint256"
            },
            {
              "internalType": "enum BCTypes.BCEventType",
              "name": "eventType",
              "type": "uint8"
            },
            {
              "components": [
                {
                  "internalType": "uint8",
                  "name": "row",
                  "type": "uint8"
                },
                {
                  "internalType": "uint8",
                  "name": "col",
                  "type": "uint8"
                }
              ],
              "internalType": "struct BCTypes.Position",
              "name": "eventPosition",
              "type": "tuple"
            },
            {
              "internalType": "uint256[]",
              "name": "unusedBugEvents",
              "type": "uint256[]"
            },
            {
              "internalType": "uint256[]",
              "name": "unusedMysteryEvents",
              "type": "uint256[]"
            },
            {
              "internalType": "uint256[]",
              "name": "unusedScavEvents",
              "type": "uint256[]"
            },
            {
              "internalType": "uint256[]",
              "name": "unusedShipEvents",
              "type": "uint256[]"
            },
            {
              "internalType": "uint256",
              "name": "turnTimeLimit",
              "type": "uint256"
            },
            {
              "internalType": "uint256",
              "name": "lastTurnTimestamp",
              "type": "uint256"
            },
            {
              "internalType": "uint256",
              "name": "DEBUG_returnAmount",
              "type": "uint256"
            },
            {
              "components": [
                {
                  "internalType": "uint256",
                  "name": "id",
                  "type": "uint256"
                },
                {
                  "internalType": "uint256",
                  "name": "gameId",
                  "type": "uint256"
                },
                {
                  "internalType": "enum BCTypes.DenizenType",
                  "name": "denizenType",
                  "type": "uint8"
                },
                {
                  "components": [
                    {
                      "internalType": "uint8",
                      "name": "row",
                      "type": "uint8"
                    },
                    {
                      "internalType": "uint8",
                      "name": "col",
                      "type": "uint8"
                    }
                  ],
                  "internalType": "struct BCTypes.Position",
                  "name": "position",
                  "type": "tuple"
                },
                {
                  "internalType": "uint256",
                  "name": "healthRemaining",
                  "type": "uint256"
                }
              ],
              "internalType": "struct BCTypes.Denizen[]",
              "name": "denizens",
              "type": "tuple[]"
            }
          ],
          "internalType": "struct BCTypes.Game",
          "name": "",
          "type": "tuple"
        }
      ],
      "stateMutability": "view",
      "type": "function"
    },
    {
      "inputs": [
        {
          "internalType": "uint256",
          "name": "_gameId",
          "type": "uint256"
        }
      ],
      "name": "extGetGamePlayerIndexes",
      "outputs": [
        {
          "internalType": "uint256[]",
          "name": "",
          "type": "uint256[]"
        }
      ],
      "stateMutability": "view",
      "type": "function"
    },
    {
      "inputs": [
        {
          "internalType": "address",
          "name": "_playerAddress",
          "type": "address"
        }
      ],
      "name": "extGetGamesOfPlayer",
      "outputs": [
        {
          "internalType": "uint256[]",
          "name": "",
          "type": "uint256[]"
        }
      ],
      "stateMutability": "view",
      "type": "function"
    },
    {
      "inputs": [],
      "name": "extGetNumGames",
      "outputs": [
        {
          "internalType": "uint256",
          "name": "",
          "type": "uint256"
        }
      ],
      "stateMutability": "view",
      "type": "function"
    },
    {
      "inputs": [
        {
          "internalType": "uint256",
          "name": "_gameId",
          "type": "uint256"
        },
        {
          "components": [
            {
              "internalType": "uint8",
              "name": "row",
              "type": "uint8"
            },
            {
              "internalType": "uint8",
              "name": "col",
              "type": "uint8"
            }
          ],
          "internalType": "struct BCTypes.Position",
          "name": "_position",
          "type": "tuple"
        },
        {
          "internalType": "uint256",
          "name": "_playerId",
          "type": "uint256"
        }
      ],
      "name": "extMovePlayer",
      "outputs": [],
      "stateMutability": "nonpayable",
      "type": "function"
    },
    {
      "inputs": [
        {
          "internalType": "uint256",
          "name": "_gameId",
          "type": "uint256"
        }
      ],
      "name": "forceNextTurn",
      "outputs": [],
      "stateMutability": "nonpayable",
      "type": "function"
    },
    {
      "inputs": [
        {
          "internalType": "uint256",
          "name": "",
          "type": "uint256"
        }
      ],
      "name": "games",
      "outputs": [
        {
          "internalType": "bool",
          "name": "active",
          "type": "bool"
        },
        {
          "internalType": "bool",
          "name": "denizenTurn",
          "type": "bool"
        },
        {
          "internalType": "uint256",
          "name": "currentPlayerTurnIndex",
          "type": "uint256"
        },
        {
          "internalType": "uint256",
          "name": "numPlayers",
          "type": "uint256"
        },
        {
          "internalType": "uint256",
          "name": "turnsTaken",
          "type": "uint256"
        },
        {
          "components": [
            {
              "internalType": "uint8",
              "name": "bugEvents",
              "type": "uint8"
            },
            {
              "internalType": "uint8",
              "name": "mysteryEvents",
              "type": "uint8"
            },
            {
              "internalType": "uint8",
              "name": "scavEvents",
              "type": "uint8"
            },
            {
              "internalType": "uint8",
              "name": "shipEvents",
              "type": "uint8"
            }
          ],
          "internalType": "struct BCTypes.EventTracker",
          "name": "eventTracker",
          "type": "tuple"
        },
        {
          "internalType": "uint256",
          "name": "mapId",
          "type": "uint256"
        },
        {
          "internalType": "uint256",
          "name": "eventPlayerId",
          "type": "uint256"
        },
        {
          "internalType": "uint256",
          "name": "eventNumber",
          "type": "uint256"
        },
        {
          "internalType": "enum BCTypes.BCEventType",
          "name": "eventType",
          "type": "uint8"
        },
        {
          "components": [
            {
              "internalType": "uint8",
              "name": "row",
              "type": "uint8"
            },
            {
              "internalType": "uint8",
              "name": "col",
              "type": "uint8"
            }
          ],
          "internalType": "struct BCTypes.Position",
          "name": "eventPosition",
          "type": "tuple"
        },
        {
          "internalType": "uint256",
          "name": "turnTimeLimit",
          "type": "uint256"
        },
        {
          "internalType": "uint256",
          "name": "lastTurnTimestamp",
          "type": "uint256"
        },
        {
          "internalType": "uint256",
          "name": "DEBUG_returnAmount",
          "type": "uint256"
        }
      ],
      "stateMutability": "view",
      "type": "function"
    },
    {
      "inputs": [
        {
          "internalType": "uint256",
          "name": "_gameId",
          "type": "uint256"
        }
      ],
      "name": "getDenizensInGame",
      "outputs": [
        {
          "components": [
            {
              "internalType": "uint256",
              "name": "id",
              "type": "uint256"
            },
            {
              "internalType": "uint256",
              "name": "gameId",
              "type": "uint256"
            },
            {
              "internalType": "enum BCTypes.DenizenType",
              "name": "denizenType",
              "type": "uint8"
            },
            {
              "components": [
                {
                  "internalType": "uint8",
                  "name": "row",
                  "type": "uint8"
                },
                {
                  "internalType": "uint8",
                  "name": "col",
                  "type": "uint8"
                }
              ],
              "internalType": "struct BCTypes.Position",
              "name": "position",
              "type": "tuple"
            },
            {
              "internalType": "uint256",
              "name": "healthRemaining",
              "type": "uint256"
            }
          ],
          "internalType": "struct BCTypes.Denizen[]",
          "name": "",
          "type": "tuple[]"
        }
      ],
      "stateMutability": "view",
      "type": "function"
    },
    {
      "inputs": [
        {
          "components": [
            {
              "internalType": "uint8",
              "name": "row",
              "type": "uint8"
            },
            {
              "internalType": "uint8",
              "name": "col",
              "type": "uint8"
            }
          ],
          "internalType": "struct BCTypes.Position",
          "name": "_firstRoom",
          "type": "tuple"
        },
        {
          "components": [
            {
              "internalType": "uint8",
              "name": "row",
              "type": "uint8"
            },
            {
              "internalType": "uint8",
              "name": "col",
              "type": "uint8"
            }
          ],
          "internalType": "struct BCTypes.Position",
          "name": "_secondRoom",
          "type": "tuple"
        }
      ],
      "name": "getDirectionBetween",
      "outputs": [
        {
          "internalType": "uint256",
          "name": "",
          "type": "uint256"
        }
      ],
      "stateMutability": "pure",
      "type": "function"
    },
    {
      "inputs": [
        {
          "internalType": "uint256",
          "name": "_direction",
          "type": "uint256"
        },
        {
          "components": [
            {
              "internalType": "uint8",
              "name": "row",
              "type": "uint8"
            },
            {
              "internalType": "uint8",
              "name": "col",
              "type": "uint8"
            }
          ],
          "internalType": "struct BCTypes.Position",
          "name": "_start",
          "type": "tuple"
        }
      ],
      "name": "getNeighborRoom",
      "outputs": [
        {
          "components": [
            {
              "internalType": "uint8",
              "name": "row",
              "type": "uint8"
            },
            {
              "internalType": "uint8",
              "name": "col",
              "type": "uint8"
            }
          ],
          "internalType": "struct BCTypes.Position",
          "name": "",
          "type": "tuple"
        }
      ],
      "stateMutability": "pure",
      "type": "function"
    },
    {
      "inputs": [
        {
          "internalType": "uint256",
          "name": "_traitNum",
          "type": "uint256"
        },
        {
          "internalType": "uint256",
          "name": "_subTraitNum",
          "type": "uint256"
        }
      ],
      "name": "getUIOffset",
      "outputs": [
        {
          "internalType": "uint256",
          "name": "",
          "type": "uint256"
        }
      ],
      "stateMutability": "pure",
      "type": "function"
    },
    {
      "inputs": [],
      "name": "items",
      "outputs": [
        {
          "internalType": "contract ItemsInterface",
          "name": "",
          "type": "address"
        }
      ],
      "stateMutability": "view",
      "type": "function"
    },
    {
      "inputs": [
        {
          "internalType": "uint256",
          "name": "_gameId",
          "type": "uint256"
        },
        {
          "internalType": "uint256",
          "name": "_playerId",
          "type": "uint256"
        },
        {
          "internalType": "uint256",
          "name": "_charId",
          "type": "uint256"
        },
        {
          "internalType": "uint256",
          "name": "_currentPlayerTurnIndex",
          "type": "uint256"
        }
      ],
      "name": "leaveGame",
      "outputs": [],
      "stateMutability": "nonpayable",
      "type": "function"
    },
    {
      "inputs": [],
      "name": "lobbiesAddress",
      "outputs": [
        {
          "internalType": "address",
          "name": "",
          "type": "address"
        }
      ],
      "stateMutability": "view",
      "type": "function"
    },
    {
      "inputs": [
        {
          "components": [
            {
              "internalType": "uint8",
              "name": "row",
              "type": "uint8"
            },
            {
              "internalType": "uint8",
              "name": "col",
              "type": "uint8"
            }
          ],
          "internalType": "struct BCTypes.Position",
          "name": "_pos1",
          "type": "tuple"
        },
        {
          "components": [
            {
              "internalType": "uint8",
              "name": "row",
              "type": "uint8"
            },
            {
              "internalType": "uint8",
              "name": "col",
              "type": "uint8"
            }
          ],
          "internalType": "struct BCTypes.Position",
          "name": "_pos2",
          "type": "tuple"
        }
      ],
      "name": "manhattanDistance",
      "outputs": [
        {
          "internalType": "uint256",
          "name": "",
          "type": "uint256"
        }
      ],
      "stateMutability": "pure",
      "type": "function"
    },
    {
      "inputs": [],
      "name": "maps",
      "outputs": [
        {
          "internalType": "contract MapInterface",
          "name": "",
          "type": "address"
        }
      ],
      "stateMutability": "view",
      "type": "function"
    },
    {
      "inputs": [
        {
          "internalType": "uint256",
          "name": "_min",
          "type": "uint256"
        },
        {
          "internalType": "uint256",
          "name": "_max",
          "type": "uint256"
        },
        {
          "internalType": "uint256",
          "name": "_val",
          "type": "uint256"
        },
        {
          "internalType": "uint256",
          "name": "_valMax",
          "type": "uint256"
        }
      ],
      "name": "normalizeToSmallRange",
      "outputs": [
        {
          "internalType": "uint8",
          "name": "",
          "type": "uint8"
        }
      ],
      "stateMutability": "pure",
      "type": "function"
    },
    {
      "inputs": [
        {
          "internalType": "uint256",
          "name": "_direction",
          "type": "uint256"
        }
      ],
      "name": "opposite",
      "outputs": [
        {
          "internalType": "uint256",
          "name": "",
          "type": "uint256"
        }
      ],
      "stateMutability": "pure",
      "type": "function"
    },
    {
      "inputs": [],
      "name": "owner",
      "outputs": [
        {
          "internalType": "address",
          "name": "",
          "type": "address"
        }
      ],
      "stateMutability": "view",
      "type": "function"
    },
    {
      "inputs": [
        {
          "internalType": "uint256",
          "name": "_gameId",
          "type": "uint256"
        },
        {
          "internalType": "uint256",
          "name": "_denizenId",
          "type": "uint256"
        },
        {
          "internalType": "uint256",
          "name": "_playerId",
          "type": "uint256"
        },
        {
          "internalType": "uint256",
          "name": "_playerAttackRating",
          "type": "uint256"
        },
        {
          "components": [
            {
              "internalType": "uint8",
              "name": "row",
              "type": "uint8"
            },
            {
              "internalType": "uint8",
              "name": "col",
              "type": "uint8"
            }
          ],
          "internalType": "struct BCTypes.Position",
          "name": "_playerPosition",
          "type": "tuple"
        }
      ],
      "name": "playerAttack",
      "outputs": [],
      "stateMutability": "nonpayable",
      "type": "function"
    },
    {
      "inputs": [],
      "name": "players",
      "outputs": [
        {
          "internalType": "contract PlayersInterface",
          "name": "",
          "type": "address"
        }
      ],
      "stateMutability": "view",
      "type": "function"
    },
    {
      "inputs": [
        {
          "internalType": "uint256",
          "name": "_gameId",
          "type": "uint256"
        }
      ],
      "name": "processDenizenMoves",
      "outputs": [],
      "stateMutability": "nonpayable",
      "type": "function"
    },
    {
      "inputs": [],
      "name": "randKeccak",
      "outputs": [
        {
          "internalType": "bytes32",
          "name": "",
          "type": "bytes32"
        }
      ],
      "stateMutability": "nonpayable",
      "type": "function"
    },
    {
      "inputs": [],
      "name": "renounceOwnership",
      "outputs": [],
      "stateMutability": "nonpayable",
      "type": "function"
    },
    {
      "inputs": [
        {
          "internalType": "uint256",
          "name": "_gameId",
          "type": "uint256"
        },
        {
          "internalType": "uint256",
          "name": "_for",
          "type": "uint256"
        },
        {
          "internalType": "uint256",
          "name": "_against",
          "type": "uint256"
        }
      ],
      "name": "resolveChallenge",
      "outputs": [
        {
          "internalType": "bool",
          "name": "",
          "type": "bool"
        }
      ],
      "stateMutability": "nonpayable",
      "type": "function"
    },
    {
      "inputs": [
        {
          "internalType": "uint256",
          "name": "_gameId",
          "type": "uint256"
        },
        {
          "internalType": "uint256",
          "name": "_choice",
          "type": "uint256"
        }
      ],
      "name": "resolveEvent",
      "outputs": [],
      "stateMutability": "nonpayable",
      "type": "function"
    },
    {
      "inputs": [
        {
          "internalType": "uint256",
          "name": "_gameId",
          "type": "uint256"
        }
      ],
      "name": "roll",
      "outputs": [
        {
          "internalType": "uint256",
          "name": "",
          "type": "uint256"
        }
      ],
      "stateMutability": "nonpayable",
      "type": "function"
    },
    {
      "inputs": [
        {
          "internalType": "address",
          "name": "_charAddress",
          "type": "address"
        },
        {
          "internalType": "address",
          "name": "_utilsAddress",
          "type": "address"
        },
        {
          "internalType": "address",
          "name": "_mapsAddress",
          "type": "address"
        },
        {
          "internalType": "address",
          "name": "_lobbiesAddress",
          "type": "address"
        },
        {
          "internalType": "address",
          "name": "_actionsAddress",
          "type": "address"
        },
        {
          "internalType": "address",
          "name": "_eventsAddress",
          "type": "address"
        },
        {
          "internalType": "address",
          "name": "_itemsAddress",
          "type": "address"
        },
        {
          "internalType": "address",
          "name": "_playersAddress",
          "type": "address"
        }
      ],
      "name": "setContractAddresses",
      "outputs": [],
      "stateMutability": "nonpayable",
      "type": "function"
    },
    {
      "inputs": [
        {
          "internalType": "bytes32",
          "name": "_hash",
          "type": "bytes32"
        },
        {
          "internalType": "uint256",
          "name": "_size",
          "type": "uint256"
        },
        {
          "internalType": "uint256",
          "name": "_offset",
          "type": "uint256"
        }
      ],
      "name": "sliceHashToSmallInt",
      "outputs": [
        {
          "internalType": "uint8",
          "name": "",
          "type": "uint8"
        }
      ],
      "stateMutability": "pure",
      "type": "function"
    },
    {
      "inputs": [
        {
          "internalType": "uint8",
          "name": "_min",
          "type": "uint8"
        },
        {
          "internalType": "uint8",
          "name": "_max",
          "type": "uint8"
        }
      ],
      "name": "smallIntBetweenVals",
      "outputs": [
        {
          "internalType": "uint8",
          "name": "",
          "type": "uint8"
        }
      ],
      "stateMutability": "nonpayable",
      "type": "function"
    },
    {
      "inputs": [
        {
          "internalType": "uint256[]",
          "name": "_playerIndexes",
          "type": "uint256[]"
        },
        {
          "internalType": "uint256",
          "name": "_numPlayers",
          "type": "uint256"
        },
        {
          "internalType": "uint256",
          "name": "_debugRoomId",
          "type": "uint256"
        }
      ],
      "name": "startGame",
      "outputs": [
        {
          "internalType": "uint256",
          "name": "",
          "type": "uint256"
        }
      ],
      "stateMutability": "nonpayable",
      "type": "function"
    },
    {
      "inputs": [
        {
          "internalType": "address",
          "name": "newOwner",
          "type": "address"
        }
      ],
      "name": "transferOwnership",
      "outputs": [],
      "stateMutability": "nonpayable",
      "type": "function"
    }
  ],
  "transactionHash": "0x558b7da8cf109e9a8194d3e9d3a2f8fc71cff29bd4e2b8d4dddc8c02d7b195dc",
  "args": [],
  "numDeployments": 1,
  "solcInputHash": "b20c193bf04b28dc0cfd0c3cb57f3762",
  "bytecode": "0x600060015560c0604052600a6080819052600660a052805461ffff191661060a1790553480156200002f57600080fd5b506200003b33620005f8565b60027ffd54ff1ed53f34a900b24c5ba64f85761163b5d82d98a47b9bd80e45466993c581905560037f10a81eed9d63d16face5e76357905348e6253d3394086026bb2bf2145d7cc2498190557f26b4a10d0f0b04925c23bd4480ee147c916e5e87a7d68206a533dad160ac81e282905560057fafafe8948a4ed9d478b1e9a5780b119b5edd00ea7d07bc35bef7c814824eb94b5560647fa5049387d9cb649c59f4bda666105ba636c2a103d8e2b232ba4d125737cd21495560327fa48544818c2c710afa9849c61ec9c60e8acdb3eaa2885f33b37e118cc8fd04ac5560c87fb91432bedff11256dbe14161d3606a2657bc9dacf8742f6b817d871dd53fb9765560197f0b705463cf5f7356780ee6e96132d37412c1b5816a4d207b8dcd42c349767457557fa7c5ba7114a813b50159add3a36832908dc83db71d0b9a24c2ad0f83be9582078190557f9adb202b1492743bc00c81d33cdc6423fa8c79109027eb6a845391e8fc1f048181905560047fe0283e559c29e31ee7f56467acc9dd307779c843a883aeeb3bf5c6128c90814481905560067fa1d6913cd9e08c872be3e7525cca82e4fc0fc298a783f19022be725b19be685a819055600a7fb9bec7e2561f624fe753ff070f1599b306cbf59fafd4e8d5a8184a1ea1841bce81905560087f92b4482321f41ce3aa65f798bda23d0d12a60fc5f212868a548ddb00aa49de72819055600c7f376529bb8a2d41b4a589a133407fc64f3212472dbd74744348be1098bf7ba08d557feab6bc3746954d8a0719de62c86ea908d362be2a58c781ada1046727253f9df28490557f169f97de0d9a84d840042b17d3c6b9638b3d6fd9024c9eb0c7a306a17b49f88f8490557fa74ba3945261e09fde15ba3db55005b205e61eeb4ad811ac0faa2b315bffeead8590557f45f76dafbbad695564362934e24d72eedc57f9fc1a65f39bca62176cc82968288590557f367ccd2d0ac16bf7110a5dffe0801fdc9452a95a1adb7e1a12fe97dd3e9a4edd8590557f6bda57492eba051cb4a12a1e19df47c9755d78165341d4009b1d09b3f36162048190557fb5a1e7cda73b1608e93d4d50ab796c3d35aa6216cb006a1f920df154d13ff61883905560077f73dfc495eb54bd6713ffc079b9f5e40f2fecd3793d143759ba0128fbedb40254557f49a9092dc5c03b26195f6621c97b5cf515cb77afe659e3fe008a73456354eb689190915560017f8c6065603763fec3f5742441d3833f3f43b982453612d76adb39a885e3006b5f8190557f853b2fefe141400fef543280f93d98bd49996069f632d0d20236afeeed8e46a28190557fb3edd0d534d647cffdae9f1294f11ad21f3fcf2814bea44c92bbb8d384a57d9e8190557f1588ac671d87f82adc0e6ae8ab009c0de98f92a20243897597e566bc59b9c126557f61a7346ab5ebdac457db2a901eaf1b805239b6049a1b2f34bab85e2e274f39cb8190557f20edfb71820f6f00f6a84ccfefb91587cd9f849f8349b0a3182a4795899d9cd98290557f4ef6145e44e4298293af15ae5f84f922a836b1d6db608fd5008f32a528b312a983905560107f5f04e77c60ed37290f5789e2e9c5d396103f3c4b14614065cbb4c8362609d5a55560116020527f17bc176d2408558f6e4111feebc3cab4e16b63e967be91cde721f4c8a488b5528490557f08037d7b151cc412d25674a4e66b334d9ae9d2e5517a7feaae5cdb828bf1c62884905560007f9bfbaa59f8e10e7868f8b402de9d605a390c45ddaebd8c9de3c6f31e733c87ff8190557f251164fe1d8864fe5e86082eae9c288bc2b58695a4d28538dfe86e9e4f175585959095557fc550213cee30afd5e67ccba7be3d381bbc169034ae08eb3ec9168caca9fe55e7919091557ffb9ce45064c7e7d9bf9deb4750ba7c94ab3d6e7418c5d76bf69966d39a9d42f68390557f98ae0176de2844d118e1a6decfe92f97691bedbc578c71fc8d5c4374be77e50c9290925591527f5fae251ae169e8e40026ce4ce85a026bc3adcccdc8459be361195e4cd924077f5562000648565b600080546001600160a01b038381166001600160a01b0319831681178455604051919092169283917f8be0079c531659141344cd1fd0a4f28419497f9722a3daafe3b4186f6b6457e09190a35050565b615fb880620006586000396000f3fe608060405234801561001057600080fd5b506004361061029f5760003560e01c80638bf52bc311610167578063c6850f7c116100ce578063dce6c5da11610087578063dce6c5da1461068d578063ed9067fa146106ad578063f101de9a146106c0578063f10bff2b146106d3578063f2fde38b146106e6578063fa3993c2146106f957600080fd5b8063c6850f7c146105d7578063ce28613f146105f7578063d78e7d861461060a578063d8a030821461062a578063dc0b35641461064a578063dc769ee81461065d57600080fd5b8063a99d2a8b11610120578063a99d2a8b14610558578063aa6e80301461056b578063afd62bb21461057e578063bb24866714610591578063c06fad06146105b1578063c541f4ca146105c457600080fd5b80638bf52bc3146104db5780638da5cb5b146104ee578063921d2799146104ff578063951fc3fe1461051257806397f34c3f146105325780639fca1ee11461054557600080fd5b806340d4fd781161020b57806364f66467116101c457806364f66467146104675780636fe99c181461047a578063715018a61461049a5780637b45c0d4146104a25780637ddae103146104b55780638214f222146104c857600080fd5b806340d4fd78146103d157806346f2434b146103f157806353011696146103f9578063547314221461041e5780635dc969671461043157806364db84bf1461045457600080fd5b80631e1de2051161025d5780631e1de2051461036a5780631f7b4f3014610372578063336d7d7b146103855780633aa07d64146103985780633deaec2b146103ab5780633f090e3d146103be57600080fd5b8062e3d898146102a457806310a2cd0d146102d7578063117a5b9014610302578063175142251461032f5780631b5ac4b5146103445780631cef40f614610357575b600080fd5b6102c46102b23660046148c7565b600d6020526000908152604090205481565b6040519081526020015b60405180910390f35b6002546102ea906001600160a01b031681565b6040516001600160a01b0390911681526020016102ce565b6103156103103660046148e2565b61070c565b6040516102ce9e9d9c9b9a99989796959493929190614925565b61034261033d366004614b11565b6107e1565b005b6102c46103523660046148e2565b610867565b610342610365366004614b47565b610887565b6102c4610a50565b6102c46103803660046148e2565b610ac8565b6007546102ea906001600160a01b031681565b6103426103a6366004614b82565b610b24565b6003546102ea906001600160a01b031681565b6103426103cc366004614bcc565b610f1a565b6103e46103df3660046148e2565b61118a565b6040516102ce9190614c39565b600b546102c4565b61040c610407366004614bcc565b61127b565b60405160ff90911681526020016102ce565b61034261042c3660046148e2565b6112b8565b61044461043f366004614c4c565b611432565b60405190151581526020016102ce565b6102c4610462366004614c78565b6114cf565b610342610475366004614c78565b6114e7565b61048d6104883660046148e2565b6115ec565b6040516102ce9190614d21565b6103426119da565b6009546102ea906001600160a01b031681565b6004546102ea906001600160a01b031681565b6102c46104d63660046148e2565b6119ee565b6103426104e9366004614ef5565b611a68565b6000546001600160a01b03166102ea565b61034261050d366004614f46565b611aba565b610525610520366004614fef565b611b42565b6040516102ce919061501c565b61040c610540366004614c4c565b611c6c565b6008546102ea906001600160a01b031681565b6102c461056636600461503a565b611c97565b610342610579366004615074565b611cc8565b6103e461058c3660046150ad565b611e17565b6102c461059f3660046148c7565b60116020526000908152604090205481565b6005546102ea906001600160a01b031681565b6103426105d2366004614b47565b611ee7565b6102c46105e53660046148c7565b60106020526000908152604090205481565b61040c6106053660046150ca565b611eef565b6102c46106183660046148c7565b600f6020526000908152604090205481565b61063d6106383660046148e2565b611f9f565b6040516102ce9190615103565b6006546102ea906001600160a01b031681565b600a546106739060ff8082169161010090041682565b6040805160ff9384168152929091166020830152016102ce565b6102c461069b3660046148c7565b600e6020526000908152604090205481565b6103426106bb3660046148e2565b6120a3565b6102c46106ce366004615139565b612e44565b6102c46106e13660046151de565b613312565b6103426106f43660046150ad565b61335f565b6102c46107073660046151de565b6133d8565b600b818154811061071c57600080fd5b6000918252602091829020601390910201805460028201546003830154600484015460408051608081018252600587015460ff81811683526101008083048216848c0152620100008304821684860152630100000090920481166060840152600689015460078a015460088b015460098c01548751808901909852600a8d0154808616895286900485169d88019d909d52600f8c015460108d01546011909d0154858d169f5095909b0484169c999b989a97999598929791969095909316939091908e565b6009546001600160a01b031633148061080457506006546001600160a01b031633145b6108555760405162461bcd60e51b815260206004820152601c60248201527f4e6f7420616374696f6e732f706c617965727320636f6e74726163740000000060448201526064015b60405180910390fd5b61086283838360006134a0565b505050565b60008082121561087f5761087a82615220565b610881565b815b92915050565b600a5460ff16821480156108a45750600a54610100900460ff1681145b610a4a576006546001600160a01b031633146108f95760405162461bcd60e51b8152602060048201526014602482015273139bdd081c1b185e595c9cc818dbdb9d1c9858dd60621b604482015260640161084c565b6000600b858154811061090e5761090e61523c565b90600052602060002090601302019050600081601201805490509050816012016040518060a00160405280838152602001888152602001876008811115610957576109576148fb565b815260200160405180604001604052808860ff1681526020018760ff168152508152602001600d6000896008811115610992576109926148fb565b60088111156109a3576109a36148fb565b815260208082019290925260409081016000908120549093528454600181810187559584529282902084516005909402019283559083015182850155820151600282018054939492939192909160ff191690836008811115610a0757610a076148fb565b02179055506060820151805160038301805460209093015160ff9081166101000261ffff1990941692169190911791909117905560809091015160049091015550505b50505050565b6001805460009182610a6183615252565b9190505550600154600143610a76919061526b565b4033604051602001610aad93929190928352602083019190915260601b6bffffffffffffffffffffffff1916604082015260540190565b60405160208183030381529060405280519060200120905090565b600080610ad760016006611eef565b60ff1690507ffe34d093a460a16ee5fb374540914d1c734a17502c0c1a87b387c8d6097e1c518382604051610b16929190918252602082015260400190565b60405180910390a192915050565b6009546001600160a01b03163314610b755760405162461bcd60e51b8152602060048201526014602482015273139bdd081858dd1a5bdb9cc818dbdb9d1c9858dd60621b604482015260640161084c565b6000806000600b8881548110610b8d57610b8d61523c565b90600052602060002090601302016012018781548110610baf57610baf61523c565b906000526020600020906005020190506000816004015411610c135760405162461bcd60e51b815260206004820152601960248201527f43616e27742061747461636b20646561642064656e697a656e00000000000000604482015260640161084c565b6003810154845160ff9081169116148015610c4157506003810154602085015160ff90811661010090920416145b1580610ced5750600354600b80546001600160a01b0390921691632ec6572a91908b908110610c7257610c7261523c565b906000526020600020906013020160060154868460030160006040518563ffffffff1660e01b8152600401610caa949392919061527e565b602060405180830381865afa158015610cc7573d6000803e3d6000fd5b505050506040513d601f19601f82011682018060405250810190610ceb91906152d7565b155b15610d465760405162461bcd60e51b815260206004820152602360248201527f4e6f7420696e20726f6f6d20616e642063616e27742073656520746f2061747460448201526261636b60e81b606482015260840161084c565b6002810154610d91908990600e9060009060ff166008811115610d6b57610d6b6148fb565b6008811115610d7c57610d7c6148fb565b81526020019081526020016000205487611432565b15610db25760048101805460019450906000610dac836152f4565b91905055505b600481015415610f10576003810154845160ff9081169116148015610dea57506003810154602085015160ff90811661010090920416145b80610e5757506001600282015460ff166008811115610e0b57610e0b6148fb565b14158015610e3257506005600282015460ff166008811115610e2f57610e2f6148fb565b14155b8015610e5757506006600282015460ff166008811115610e5457610e546148fb565b14155b15610f1057600281015460109060009060ff166008811115610e7b57610e7b6148fb565b6008811115610e8c57610e8c6148fb565b81526020810191909152604090810160009081205460065492516301ba1eb160e31b8152600481018a905260248101829052604481019290925294506001600160a01b0390911690630dd0f58890606401600060405180830381600087803b158015610ef757600080fd5b505af1158015610f0b573d6000803e3d6000fd5b505050505b5050505050505050565b6009546001600160a01b03163314610f745760405162461bcd60e51b815260206004820181905260248201527f4e6f7420616374696f6e7320636f6e7472616374202d206c6561766547616d65604482015260640161084c565b6000600b8581548110610f8957610f8961523c565b60009182526020909120600554604051635f87260160e01b81526004810188905260248101899052601390930290910192506001600160a01b031690635f87260190604401600060405180830381600087803b158015610fe857600080fd5b505af1158015610ffc573d6000803e3d6000fd5b5050600254604051631ff77ac560e11b8152600481018790526001600160a01b039091169250633feef58a9150602401600060405180830381600087803b15801561104657600080fd5b505af115801561105a573d6000803e3d6000fd5b505050506001818101546000916110709161526b565b6001600160401b03811115611087576110876149eb565b6040519080825280602002602001820160405280156110b0578160200160208202803683370190505b5090506000805b600184015481101561112757808514611115578360010181815481106110df576110df61523c565b90600052602060002001548383815181106110fc576110fc61523c565b60209081029190910101528161111181615252565b9250505b8061111f81615252565b9150506110b7565b50815161113d906001850190602085019061476b565b50600383018054906000611150836152f4565b9091555050600183015460028401540361116c57600060028401555b600183015460000361118157825460ff191683555b50505050505050565b60606000600b83815481106111a1576111a161523c565b9060005260206000209060130201600101805490506001600160401b038111156111cd576111cd6149eb565b6040519080825280602002602001820160405280156111f6578160200160208202803683370190505b50905060005b815181101561127457600b84815481106112185761121861523c565b9060005260206000209060130201600101818154811061123a5761123a61523c565b90600052602060002001548282815181106112575761125761523c565b60209081029190910101528061126c81615252565b9150506111fc565b5092915050565b600080611288868661526b565b9050600083611297868461530b565b6112a19190615338565b90506112ad878261534c565b979650505050505050565b6000600b82815481106112cd576112cd61523c565b600091825260209091206013909102018054909150610100900460ff16156113375760405162461bcd60e51b815260206004820152601860248201527f43616e277420666f7263652064656e697a656e207475726e0000000000000000604482015260640161084c565b6001818101541161138a5760405162461bcd60e51b815260206004820152601960248201527f43616e277420666f7263652073696e676c6520706c6179657200000000000000604482015260640161084c565b80600f0154816010015461139e919061534c565b42116113ec5760405162461bcd60e51b815260206004820152601760248201527f5374696c6c2077697468696e2074696d65206c696d6974000000000000000000604482015260640161084c565b60088101541561140157611401826000613e9b565b61142e828260010183600201548154811061141e5761141e61523c565b9060005260206000200154613f67565b5050565b60008061143e85610ac8565b6040805187815260208101839052908101869052606081018590529091507f75b6a8325595f91135e07382840634226793c68c9e59623da7e10d7ad3d95b959060800160405180910390a18060010361149b5760009150506114c8565b6003836114a8868461534c565b6114b2919061535f565b13156114c25760019150506114c8565b60009150505b9392505050565b6000816114dd84600461530b565b6114c8919061534c565b6000600b83815481106114fc576114fc61523c565b600091825260209091206006546013909202016007810154604051636621a42160e01b815260048101919091529092506001600160a01b0390911690636621a42190602401602060405180830381865afa15801561155e573d6000803e3d6000fd5b505050506040513d601f19601f82011682018060405250810190611582919061538a565b6001600160a01b0316336001600160a01b0316146115e25760405162461bcd60e51b815260206004820152601960248201527f4576656e74206e6f7420666f7220796f757220706c6179657200000000000000604482015260640161084c565b6108628383613e9b565b6115f46147b6565b600b82815481106116075761160761523c565b600091825260209182902060408051610280810182526013909302909101805460ff8082161515855261010090910416151583850152600181018054835181870281018701855281815294959294938601939283018282801561168957602002820191906000526020600020905b815481526020019060010190808311611675575b505050918352505060028201546020808301919091526003830154604080840191909152600484015460608085019190915281516080818101845260058088015460ff808216855261010080830482169886019890985262010000820481169685019690965263010000009004851693830193909352850152600685015460a0850152600785015460c0850152600885015460e08501526009850154929093019291169081111561173c5761173c6148fb565b600581111561174d5761174d6148fb565b8152604080518082018252600a84015460ff80821683526101009091041660208281019190915280840191909152600b840180548351818402810184018552818152939094019390918301828280156117c557602002820191906000526020600020905b8154815260200190600101908083116117b1575b50505050508152602001600c820180548060200260200160405190810160405280929190818152602001828054801561181d57602002820191906000526020600020905b815481526020019060010190808311611809575b50505050508152602001600d820180548060200260200160405190810160405280929190818152602001828054801561187557602002820191906000526020600020905b815481526020019060010190808311611861575b50505050508152602001600e82018054806020026020016040519081016040528092919081815260200182805480156118cd57602002820191906000526020600020905b8154815260200190600101908083116118b9575b50505050508152602001600f8201548152602001601082015481526020016011820154815260200160128201805480602002602001604051908101604052809291908181526020016000905b828210156119cc57838290600052602060002090600502016040518060a001604052908160008201548152602001600182015481526020016002820160009054906101000a900460ff166008811115611974576119746148fb565b6008811115611985576119856148fb565b8152604080518082018252600384015460ff808216835261010090910416602082810191909152808401919091526004909301549101529082526001929092019101611919565b505050915250909392505050565b6119e2614043565b6119ec600061409d565b565b600081600003611a0057506001919050565b81600103611a1057506000919050565b81600203611a2057506003919050565b81600303611a3057506002919050565b60405162461bcd60e51b815260206004820152600d60248201526c2130b2103234b932b1ba34b7b760991b604482015260640161084c565b6000546001600160a01b03163314611aae5760405162461bcd60e51b81526020600482015260096024820152682737ba1037bbb732b960b91b604482015260640161084c565b610a4a848484846134a0565b611ac2614043565b600280546001600160a01b03199081166001600160a01b039a8b1617909155600380548216978a169790971790965560078054871695891695909517909455600980548616938816939093179092556004805485169187169190911790556005805484169186169190911790556006805490921693169290921790915550565b604080518082019091526000808252602082015282600003611b9457604051806040016040528060018460000151611b7a91906153a7565b60ff168152602001836020015160ff168152509050610881565b82600103611bb857604051806040016040528083600001516001611b7a91906153c0565b82600203611bf5576040518060400160405280836000015160ff16815260200183602001516001611be991906153c0565b60ff1690529050610881565b82600303611c26576040518060400160405280836000015160ff16815260200160018460200151611be991906153a7565b6000611c31846140ed565b604051602001611c4191906153fd565b60405160208183030381529060405290508060405162461bcd60e51b815260040161084c9190615438565b600080826001611c7d86600261554f565b611c87919061526b565b901b8516831c9150509392505050565b600c6020528160005260406000208181548110611cb357600080fd5b90600052602060002001600091509150505481565b6009546001600160a01b03163314611d315760405162461bcd60e51b815260206004820152602660248201527f4e6f7420616374696f6e7320636f6e7472616374202d20656e64506c6179657260448201526520b1ba34b7b760d11b606482015260840161084c565b80611d955760065460405163ce93229760e01b8152600481018490526001600160a01b039091169063ce93229790602401600060405180830381600087803b158015611d7c57600080fd5b505af1158015611d90573d6000803e3d6000fd5b505050505b6006546040516347d0e3c960e01b8152600481018490526000916001600160a01b0316906347d0e3c990602401602060405180830381865afa158015611ddf573d6000803e3d6000fd5b505050506040513d601f19601f82011682018060405250810190611e03919061555b565b905060038110610a4a57610a4a8484613f67565b6001600160a01b0381166000908152600c6020526040812054606091906001600160401b03811115611e4b57611e4b6149eb565b604051908082528060200260200182016040528015611e74578160200160208202803683370190505b50905060005b8151811015611274576001600160a01b0384166000908152600c60205260409020805482908110611ead57611ead61523c565b9060005260206000200154828281518110611eca57611eca61523c565b602090810291909101015280611edf81615252565b915050611e7a565b6108f9614043565b6001805460009182611f0083615252565b9190505550600033600154600143611f18919061526b565b60405160609390931b6bffffffffffffffffffffffff19166020840152603483019190915240605482015260740160408051601f19818403018152919052805160209091012090506000611f6c85856153a7565b611f779060016153c0565b90508460ff168160ff1683611f8c9190615574565b611f96919061534c565b95945050505050565b6060600b8281548110611fb457611fb461523c565b9060005260206000209060130201601201805480602002602001604051908101604052809291908181526020016000905b8282101561209857838290600052602060002090600502016040518060a001604052908160008201548152602001600182015481526020016002820160009054906101000a900460ff166008811115612040576120406148fb565b6008811115612051576120516148fb565b8152604080518082018252600384015460ff808216835261010090910416602082810191909152808401919091526004909301549101529082526001929092019101611fe5565b505050509050919050565b6000600b82815481106120b8576120b861523c565b600091825260208220600354601392909202016006810154604051630f78220b60e11b815260048101919091529093506001600160a01b0390911690631ef0441690602401600060405180830381865afa15801561211a573d6000803e3d6000fd5b505050506040513d6000823e601f3d908101601f191682016040526121429190810190615600565b60018301549091506000906001600160401b03811115612164576121646149eb565b60405190808252806020026020018201604052801561226857816020015b612255604080516101c081018252600080825260208083018290528284018290528351610100810185528281528082018390528085018390526060808201849052608080830185905260a080840186905260c0840186905260e0840186905291860192909252855180870187528481528084018590529185019190915284518086019095528285529084019190915290919082019081526000602082018190526040820181905260608083018290526080830182905260a083015260c0820181905260e082018190526101009091015290565b8152602001906001900390816121825790505b50905060005b8151811015612341576006546001850180546001600160a01b03909216916310f67fb39190849081106122a3576122a361523c565b90600052602060002001546040518263ffffffff1660e01b81526004016122cc91815260200190565b600060405180830381865afa1580156122e9573d6000803e3d6000fd5b505050506040513d6000823e601f3d908101601f191682016040526123119190810190615915565b8282815181106123235761232361523c565b6020026020010181905250808061233990615252565b91505061226e565b506000600b85815481106123575761235761523c565b9060005260206000209060130201601201905060005b8154811015612e3357600082828154811061238a5761238a61523c565b9060005260206000209060050201905080600401546000036123ac5750612e21565b60038101548551869160ff169081106123c7576123c761523c565b60200260200101518160030160000160019054906101000a900460ff1660ff16815181106123f7576123f761523c565b602002602001015160c00151156124205760048101805490600061241a836152f4565b91905055505b80600401546000036124325750612e21565b61270f60001960005b865181101561253b57600a54875160ff909116908890839081106124615761246161523c565b6020026020010151608001516000015160ff161480156124b25750600a54875161010090910460ff169088908390811061249d5761249d61523c565b6020026020010151608001516020015160ff16145b6125295760408051808201909152600385015460ff80821683526101009091041660208201528751600091612504918a90859081106124f3576124f361523c565b602002602001015160800151613312565b90508060000361251957819350809250612527565b828111612527578193508092505b505b8061253381615252565b91505061243b565b506001600284015460ff166008811115612557576125576148fb565b03612753578060000361259157612589898488858151811061257b5761257b61523c565b6020026020010151846141f5565b505050612e21565b600160005260116020527f17bc176d2408558f6e4111feebc3cab4e16b63e967be91cde721f4c8a488b552548111612753576003805460068a015488516001600160a01b03909216926345e1e03c92908701908a90879081106125f6576125f661523c565b60200260200101516080015160006001601160006001600881111561261d5761261d6148fb565b600881111561262e5761262e6148fb565b8152602001908152602001600020546040518763ffffffff1660e01b815260040161265e96959493929190615a60565b6040805180830381865afa15801561267a573d6000803e3d6000fd5b505050506040513d601f19601f8201168201806040525081019061269e9190615aae565b805160038501805460209093015160ff9081166101000261ffff1990941692169190911791909117905585518690839081106126dc576126dc61523c565b60209081029190910101516080015151600384015460ff908116911614801561273757508582815181106127125761271261523c565b6020908102919091018101516080015101516003840154610100900460ff9081169116145b1561258957612589898488858151811061257b5761257b61523c565b60028084015460ff16600881111561276d5761276d6148fb565b036129fa578060000361293d576003546040516369568fd560e01b8152600481018b90526000916001600160a01b0316906369568fd590602401600060405180830381865afa1580156127c4573d6000803e3d6000fd5b505050506040513d6000823e601f3d908101601f191682016040526127ec9190810190615aca565b905060005b600481101561290d57600282828151811061280e5761280e61523c565b602002602001015160400151600481111561282b5761282b6148fb565b1480612865575060018282815181106128465761284661523c565b6020026020010151604001516004811115612863576128636148fb565b145b8061289e5750600382828151811061287f5761287f61523c565b602002602001015160400151600481111561289c5761289c6148fb565b145b156128fb5760408051808201909152600386015460ff80821683526101009091041660208201526128d0908290611b42565b805160038701805460209093015160ff9081166101000261ffff199094169216919091179190911790555b8061290581615252565b9150506127f1565b506129348a858986815181106129255761292561523c565b602002602001015160016141f5565b50505050612e21565b6003805460068a015488516001600160a01b0390921692632ec6572a92908701908a90879081106129705761297061523c565b60200260200101516080015160006040518563ffffffff1660e01b815260040161299d9493929190615ba7565b602060405180830381865afa1580156129ba573d6000803e3d6000fd5b505050506040513d601f19601f820116820180604052508101906129de91906152d7565b156129fa57612589898488858151811061257b5761257b61523c565b6003600284015460ff166008811115612a1557612a156148fb565b03612ae35761270f81108015612ac757506003805460068a015488516001600160a01b0390921692632ec6572a92908701908a9087908110612a5957612a5961523c565b60200260200101516080015160016040518563ffffffff1660e01b8152600401612a869493929190615ba7565b602060405180830381865afa158015612aa3573d6000803e3d6000fd5b505050506040513d601f19601f82011682018060405250810190612ac791906152d7565b15612ae357612589898488858151811061257b5761257b61523c565b6004600284015460ff166008811115612afe57612afe6148fb565b03612e1d5780600003612b2257612589898488858151811061257b5761257b61523c565b600460005260116020527f251164fe1d8864fe5e86082eae9c288bc2b58695a4d28538dfe86e9e4f175585548111612c60576003805460068a015488516001600160a01b03909216926345e1e03c92908701908a9087908110612b8757612b8761523c565b602002602001015160800151600160006011600060046008811115612bae57612bae6148fb565b6008811115612bbf57612bbf6148fb565b8152602001908152602001600020546040518763ffffffff1660e01b8152600401612bef96959493929190615a60565b6040805180830381865afa158015612c0b573d6000803e3d6000fd5b505050506040513d601f19601f82011682018060405250810190612c2f9190615aae565b80516003909401805460209092015160ff9081166101000261ffff199093169516949094171790925550612e219050565b61270f811015612e0b576003805460068a015488516001600160a01b03909216926345e1e03c92908701908a9087908110612c9d57612c9d61523c565b602002602001015160800151600160006011600060046008811115612cc457612cc46148fb565b6008811115612cd557612cd56148fb565b8152602001908152602001600020546040518763ffffffff1660e01b8152600401612d0596959493929190615a60565b6040805180830381865afa158015612d21573d6000803e3d6000fd5b505050506040513d601f19601f82011682018060405250810190612d459190615aae565b80516003808601805460209094015160ff9081166101000261ffff19909516931692909217929092178155905460068a015488516001600160a01b0390921692632ec6572a928a9087908110612d9d57612d9d61523c565b60200260200101516080015160016040518563ffffffff1660e01b8152600401612dca9493929190615ba7565b602060405180830381865afa158015612de7573d6000803e3d6000fd5b505050506040513d601f19601f8201168201806040525081019061273791906152d7565b61270f811015612e1d57505050612e21565b5050505b80612e2b81615252565b91505061236d565b5050825461ff001916909255505050565b6007546000906001600160a01b03163314612e965760405162461bcd60e51b8152602060048201526012602482015271139bdd081b1bd8989e4818dbdb9d1c9858dd60721b604482015260640161084c565b600b80546001818101808455600093845260139092027f0175b7a638427703f0dbe7bb9bbf987a2551717b34e79f33b5b1008d1fa01db9019291612eda919061526b565b825460ff191660019081178455600060048501558751919250612f059190840190602089019061476b565b50600382018590556040805160808101825260008082526020820181905291810182905260600181905260058301805463ffffffff19169055849003612fc857600360009054906101000a90046001600160a01b03166001600160a01b031663f01fc35a6040518163ffffffff1660e01b81526004016020604051808303816000875af1158015612f9a573d6000803e3d6000fd5b505050506040513d601f19601f82011682018060405250810190612fbe919061555b565b600683015561303d565b60035460405163148e052f60e21b8152600481018690526001600160a01b039091169063523814bc906024016020604051808303816000875af1158015613013573d6000803e3d6000fd5b505050506040513d601f19601f82011682018060405250810190613037919061555b565b60068301555b60005b61304b60018761526b565b811161317357600683015460408051808201909152600a5460ff80821683526101009091041660208201526001850180546130a593929190859081106130935761309361523c565b906000526020600020015460006134a0565b60065487516000916001600160a01b031690636621a421908a90859081106130cf576130cf61523c565b60200260200101516040518263ffffffff1660e01b81526004016130f591815260200190565b602060405180830381865afa158015613112573d6000803e3d6000fd5b505050506040513d601f19601f82011682018060405250810190613136919061538a565b6001600160a01b03166000908152600c6020908152604082208054600181018255908352912001839055508061316b81615252565b915050613040565b5060065460405163e7169ec560e01b81526001600160a01b039091169063e7169ec5906131a69089908590600401615be2565b600060405180830381600087803b1580156131c057600080fd5b505af11580156131d4573d6000803e3d6000fd5b5050600554604051633b09709560e21b81526001600160a01b03909116925063ec25c254915061320a9084908a90600401615c04565b600060405180830381600087803b15801561322457600080fd5b505af1158015613238573d6000803e3d6000fd5b505050506000604051806101e00160405280600181526020016002815260200160038152602001600481526020016005815260200160068152602001600781526020016008815260200160098152602001600a8152602001600b8152602001600c8152602001600d8152602001600e8152602001600f81525090508083600b0190600f6132c692919061476b565b506132d6600c840182600f61476b565b506132e6600d840182600f61476b565b506132f6600e840182600f61476b565b505061012c600f83015542601090920191909155949350505050565b600080613332836000015160000b856000015160000b610352919061535f565b90506000613353846020015160000b866020015160000b610352919061535f565b9050611f96818361534c565b613367614043565b6001600160a01b0381166133cc5760405162461bcd60e51b815260206004820152602660248201527f4f776e61626c653a206e6577206f776e657220697320746865207a65726f206160448201526564647265737360d01b606482015260840161084c565b6133d58161409d565b50565b805182516000916133e891615c1d565b60000b6001036133fa57506000610881565b815183516134089190615c1d565b60000b1961341857506001610881565b8160200151836020015161342c9190615c1d565b60000b1961343c57506002610881565b816020015183602001516134509190615c1d565b60000b60010361346257506003610881565b60405162461bcd60e51b8152602060048201526013602482015272115c9c9bdc8e88139bdd0818591a9858d95b9d606a1b604482015260640161084c565b6000600b85815481106134b5576134b561523c565b90600052602060002090601302019050806001016000815481106134db576134db61523c565b90600052602060002001548314806135125750806001016001815481106135045761350461523c565b906000526020600020015483145b8061353c57508060010160028154811061352e5761352e61523c565b906000526020600020015483145b806135665750806001016003815481106135585761355861523c565b906000526020600020015483145b6135b25760405162461bcd60e51b815260206004820152601760248201527f506c61796572206e6f7420696e20746869732067616d65000000000000000000604482015260640161084c565b600654600b80546001600160a01b0390921691638d491b3e9187918791908a9081106135e0576135e061523c565b9060005260206000209060130201600601546040518463ffffffff1660e01b815260040161361093929190615c3e565b6020604051808303816000875af115801561362f573d6000803e3d6000fd5b505050506040513d601f19601f8201168201806040525081019061365391906152d7565b613e9457600354600b80546000926001600160a01b0316916381bad36d91899081106136815761368161523c565b90600052602060002090601302016006015487600001518860200151876040518563ffffffff1660e01b81526004016136d7949392919093845260ff928316602085015291166040830152606082015260800190565b6020604051808303816000875af11580156136f6573d6000803e3d6000fd5b505050506040513d601f19601f8201168201806040525081019061371a919061555b565b600354600b80549293506000926001600160a01b0390921691635805828391908a90811061374a5761374a61523c565b906000526020600020906013020160060154846040518363ffffffff1660e01b8152600401613783929190918252602082015260400190565b60a060405180830381865afa1580156137a0573d6000803e3d6000fd5b505050506040513d601f19601f820116820180604052508101906137c49190615c6d565b90506002821180156137e957506000815160058111156137e6576137e66148fb565b14155b1561118157600181516005811115613803576138036148fb565b0361385657600b878154811061381b5761381b61523c565b600091825260208220600560139092020101805460ff169161383c83615cff565b91906101000a81548160ff021916908360ff160217905550505b60028151600581111561386b5761386b6148fb565b036138c657600b87815481106138835761388361523c565b600091825260209091206013909102016005018054610100900460ff169060016138ac83615cff565b91906101000a81548160ff021916908360ff160217905550505b6003815160058111156138db576138db6148fb565b0361393757600b87815481106138f3576138f361523c565b60009182526020909120601390910201600501805462010000900460ff1690600261391d83615cff565b91906101000a81548160ff021916908360ff160217905550505b60048151600581111561394c5761394c6148fb565b036139a957600b87815481106139645761396461523c565b6000918252602090912060139091020160050180546301000000900460ff1690600361398f83615cff565b91906101000a81548160ff021916908360ff160217905550505b602081015115613b285760048054602083015160405163c82c37b960e01b8152928301526000916001600160a01b039091169063c82c37b990602401600060405180830381865afa158015613a02573d6000803e3d6000fd5b505050506040513d6000823e601f3d908101601f19168201604052613a2a9190810190615dab565b90508060200151613b225785600b8981548110613a4957613a4961523c565b9060005260206000209060130201600701819055508160200151600b8981548110613a7657613a7661523c565b9060005260206000209060130201600801819055506005600b8981548110613aa057613aa061523c565b60009182526020909120600960139092020101805460ff19166001836005811115613acd57613acd6148fb565b021790555086600b8981548110613ae657613ae661523c565b60009182526020918290208351600a6013909302909101919091018054939092015160ff9081166101000261ffff199094169116179190911790555b50611181565b600081516005811115613b3d57613b3d6148fb565b146111815784600b8881548110613b5657613b5661523c565b90600052602060002090601302016007018190555085600b8881548110613b7f57613b7f61523c565b60009182526020918290208351600a6013909302909101919091018054939092015160ff9081166101000261ffff19909416911617919091179055600181516005811115613bcf57613bcf6148fb565b03613c7057613c00600b8881548110613bea57613bea61523c565b9060005260206000209060130201600b01614468565b600b8881548110613c1357613c1361523c565b9060005260206000209060130201600801819055506001600b8881548110613c3d57613c3d61523c565b60009182526020909120600960139092020101805460ff19166001836005811115613c6a57613c6a6148fb565b02179055505b600281516005811115613c8557613c856148fb565b03613d2657613cb6600b8881548110613ca057613ca061523c565b9060005260206000209060130201600c01614468565b600b8881548110613cc957613cc961523c565b9060005260206000209060130201600801819055506002600b8881548110613cf357613cf361523c565b60009182526020909120600960139092020101805460ff19166001836005811115613d2057613d206148fb565b02179055505b600381516005811115613d3b57613d3b6148fb565b03613ddc57613d6c600b8881548110613d5657613d5661523c565b9060005260206000209060130201600d01614468565b600b8881548110613d7f57613d7f61523c565b9060005260206000209060130201600801819055506003600b8881548110613da957613da961523c565b60009182526020909120600960139092020101805460ff19166001836005811115613dd657613dd66148fb565b02179055505b600481516005811115613df157613df16148fb565b0361118157613e22600b8881548110613e0c57613e0c61523c565b9060005260206000209060130201600e01614468565b600b8881548110613e3557613e3561523c565b9060005260206000209060130201600801819055506004600b8881548110613e5f57613e5f61523c565b60009182526020909120600960139092020101805460ff19166001836005811115613e8c57613e8c6148fb565b021790555050505b5050505050565b6000600b8381548110613eb057613eb061523c565b6000918252602090912060068054601390930290910160078101549181015460088201546009830154604051636d291bbb60e01b81529396506001600160a01b0390951694636d291bbb94613f1894899491938b93600a8b019260ff90911690600401615e9c565b600060405180830381600087803b158015613f3257600080fd5b505af1158015613f46573d6000803e3d6000fd5b505060006007840181905560088401555050600901805460ff191690555050565b6000600b8381548110613f7c57613f7c61523c565b6000918252602090912060065460405163065c363f60e41b815260048101869052601390930290910192506001600160a01b0316906365c363f090602401600060405180830381600087803b158015613fd457600080fd5b505af1158015613fe8573d6000803e3d6000fd5b50504260108401555050600180820154614002919061526b565b816002015410156140295760028101805490600061401f83615252565b9190505550505050565b61403783826006015461458e565b60006002820155505050565b6000546001600160a01b031633146119ec5760405162461bcd60e51b815260206004820181905260248201527f4f776e61626c653a2063616c6c6572206973206e6f7420746865206f776e6572604482015260640161084c565b600080546001600160a01b038381166001600160a01b0319831681178455604051919092169283917f8be0079c531659141344cd1fd0a4f28419497f9722a3daafe3b4186f6b6457e09190a35050565b6060816000036141145750506040805180820190915260018152600360fc1b602082015290565b8160005b811561413e578061412881615252565b91506141379050600a83615338565b9150614118565b6000816001600160401b03811115614158576141586149eb565b6040519080825280601f01601f191660200182016040528015614182576020820181803683370190505b5090505b84156141ed5761419760018361526b565b91506141a4600a86615574565b6141af90603061534c565b60f81b8183815181106141c4576141c461523c565b60200101906001600160f81b031916908160001a9053506141e6600a86615338565b9450614186565b949350505050565b6002830154600090819061424f908790600f90849060ff16600881111561421e5761421e6148fb565b600881111561422f5761422f6148fb565b81526020019081526020016000205486606001516040015160ff16611432565b1561430b57600285015460109060009060ff166008811115614273576142736148fb565b6008811115614284576142846148fb565b8152602081019190915260409081016000908120546006548784015193516301ba1eb160e31b8152600481019490945260248401829052604484019290925293506001600160a01b031690630dd0f58890606401600060405180830381600087803b1580156142f257600080fd5b505af1158015614306573d6000803e3d6000fd5b505050505b82158061431d5750836060015160e001515b156143e45760008360000361436857846060015160a0015160000b856060015160c0015160000b1361435757846060015160a00151614361565b846060015160c001515b9050614373565b50606084015160a001515b60028601546143c190889060ff80851691600e9160009116600881111561439c5761439c6148fb565b60088111156143ad576143ad6148fb565b815260200190815260200160002054611432565b156143e257600486018054600193509060006143dc836152f4565b91905055505b505b6144166040518060400160405280601181526020017044454e495a454e2041545441434b45442160781b81525061470c565b600285015460408086015190517f2c06d3c7e90d9433476801f525a02398c92e854375485994f9c38ba874f3ef1b926144589260ff9091169186908690615ef0565b60405180910390a1505050505050565b8054600090819061447b9060019061526b565b90505b801561452b576000614491600083611eef565b9050838160ff16815481106144a8576144a861523c565b90600052602060002001548483815481106144c5576144c561523c565b90600052602060002001548584815481106144e2576144e261523c565b906000526020600020016000878560ff16815481106145035761450361523c565b6000918252602090912001929092559190915550819050614523816152f4565b91505061447e565b508154600090839061453f9060019061526b565b8154811061454f5761454f61523c565b906000526020600020015490508280548061456c5761456c615f19565b600190038181906000526020600020016000905590558060ff16915050919050565b6000600b83815481106145a3576145a361523c565b906000526020600020906013020190508060040160008154809291906145c890615252565b9091555050600354604051630b06115560e31b8152600481018490526001600160a01b03909116906358308aa890602401600060405180830381600087803b15801561461357600080fd5b505af1158015614627573d6000803e3d6000fd5b505060035460405163c6b41b4560e01b815260048101869052600160248201526001600160a01b03909116925063c6b41b459150604401600060405180830381600087803b15801561467857600080fd5b505af115801561468c573d6000803e3d6000fd5b5050600680549084015460405163668a7f3b60e01b81526001600160a01b03909216935063668a7f3b92506146c8916001860190600401615f2f565b600060405180830381600087803b1580156146e257600080fd5b505af11580156146f6573d6000803e3d6000fd5b5050825461ff0019166101001790925550505050565b6133d5816040516024016147209190615438565b60408051601f198184030181529190526020810180516001600160e01b031663104c13eb60e21b17905280516a636f6e736f6c652e6c6f67602083016000808483855afa5050505050565b8280548282559060005260206000209081019282156147a6579160200282015b828111156147a657825182559160200191906001019061478b565b506147b292915061489e565b5090565b6040805161028081018252600080825260208083018290526060838501819052808401839052608080850184905260a0850184905285519081018652838152918201839052938101829052928301529060c0820190815260200160008152602001600081526020016000815260200160006005811115614838576148386148fb565b81526020016148606040518060400160405280600060ff168152602001600060ff1681525090565b815260200160608152602001606081526020016060815260200160608152602001600081526020016000815260200160008152602001606081525090565b5b808211156147b2576000815560010161489f565b8035600981106148c257600080fd5b919050565b6000602082840312156148d957600080fd5b6114c8826148b3565b6000602082840312156148f457600080fd5b5035919050565b634e487b7160e01b600052602160045260246000fd5b60068110614921576149216148fb565b9052565b6000610240820190508f151582528e151560208301528d60408301528c60608301528b608083015261498760a083018c60ff815116825260ff602082015116602083015260ff604082015116604083015260ff60608201511660608301525050565b8961012083015288610140830152876101608301526149aa610180830188614911565b855160ff9081166101a08401526020870151166101c0830152846101e083015283610200830152826102208301529f9e505050505050505050505050505050565b634e487b7160e01b600052604160045260246000fd5b604080519081016001600160401b0381118282101715614a2357614a236149eb565b60405290565b60405160e081016001600160401b0381118282101715614a2357614a236149eb565b6040516101c081016001600160401b0381118282101715614a2357614a236149eb565b604051606081016001600160401b0381118282101715614a2357614a236149eb565b604051601f8201601f191681016001600160401b0381118282101715614ab857614ab86149eb565b604052919050565b60ff811681146133d557600080fd5b600060408284031215614ae157600080fd5b614ae9614a01565b90508135614af681614ac0565b81526020820135614b0681614ac0565b602082015292915050565b600080600060808486031215614b2657600080fd5b83359250614b378560208601614acf565b9150606084013590509250925092565b60008060008060808587031215614b5d57600080fd5b84359350614b6d602086016148b3565b93969395505050506040820135916060013590565b600080600080600060c08688031215614b9a57600080fd5b85359450602086013593506040860135925060608601359150614bc08760808801614acf565b90509295509295909350565b60008060008060808587031215614be257600080fd5b5050823594602084013594506040840135936060013592509050565b600081518084526020808501945080840160005b83811015614c2e57815187529582019590820190600101614c12565b509495945050505050565b6020815260006114c86020830184614bfe565b600080600060608486031215614c6157600080fd5b505081359360208301359350604090920135919050565b60008060408385031215614c8b57600080fd5b50508035926020909101359150565b60098110614921576149216148fb565b600081518084526020808501945080840160005b83811015614c2e578151805188528381015184890152604080820151614ce6828b0182614c9a565b5050606081810151805160ff9081168b84015260208201511660808b015250506080015160a088015260c09096019590820190600101614cbe565b60208152614d3460208201835115159052565b60006020830151614d49604084018215159052565b506040830151610300806060850152614d66610320850183614bfe565b915060608501516080850152608085015160a085015260a085015160c085015260c0850151614dc560e086018260ff815116825260ff602082015116602083015260ff604082015116604083015260ff60608201511660608301525050565b5060e085015161016081818701526101008701519150610180828188015261012088015192506101a0838189015261014089015193506101c0614e0a818a0186614911565b9289015193506101e092614e3089850186805160ff908116835260209182015116910152565b828a01519450601f199250610220838a890301818b0152614e518887614bfe565b9750828b015195506102409250838a890301838b0152614e718887614bfe565b9750818b015195506102609150838a890301828b0152614e918887614bfe565b9750848b01519550838a8903016102808b0152614eae8887614bfe565b6102008c01516102a08c0152908b01516102c08b0152918a01516102e08a01528901518882039092018589015294509150614eeb90508382614caa565b9695505050505050565b60008060008060a08587031215614f0b57600080fd5b84359350614f1c8660208701614acf565b93969395505050506060820135916080013590565b6001600160a01b03811681146133d557600080fd5b600080600080600080600080610100898b031215614f6357600080fd5b8835614f6e81614f31565b97506020890135614f7e81614f31565b96506040890135614f8e81614f31565b95506060890135614f9e81614f31565b94506080890135614fae81614f31565b935060a0890135614fbe81614f31565b925060c0890135614fce81614f31565b915060e0890135614fde81614f31565b809150509295985092959890939650565b6000806060838503121561500257600080fd5b823591506150138460208501614acf565b90509250929050565b604081016108818284805160ff908116835260209182015116910152565b6000806040838503121561504d57600080fd5b823561505881614f31565b946020939093013593505050565b80151581146133d557600080fd5b60008060006060848603121561508957600080fd5b833592506020840135915060408401356150a281615066565b809150509250925092565b6000602082840312156150bf57600080fd5b81356114c881614f31565b600080604083850312156150dd57600080fd5b82356150e881614ac0565b915060208301356150f881614ac0565b809150509250929050565b6020815260006114c86020830184614caa565b60006001600160401b0382111561512f5761512f6149eb565b5060051b60200190565b60008060006060848603121561514e57600080fd5b83356001600160401b0381111561516457600080fd5b8401601f8101861361517557600080fd5b8035602061518a61518583615116565b614a90565b82815260059290921b830181019181810190898411156151a957600080fd5b938201935b838510156151c7578435825293820193908201906151ae565b999188013598505060409096013595945050505050565b600080608083850312156151f157600080fd5b6151fb8484614acf565b91506150138460408501614acf565b634e487b7160e01b600052601160045260246000fd5b6000600160ff1b82016152355761523561520a565b5060000390565b634e487b7160e01b600052603260045260246000fd5b6000600182016152645761526461520a565b5060010190565b818103818111156108815761088161520a565b84815260c081016152a26020830186805160ff908116835260209182015116910152565b835460ff808216606085015260089190911c1660808301525b82151560a083015295945050505050565b80516148c281615066565b6000602082840312156152e957600080fd5b81516114c881615066565b6000816153035761530361520a565b506000190190565b80820281158282048414176108815761088161520a565b634e487b7160e01b600052601260045260246000fd5b60008261534757615347615322565b500490565b808201808211156108815761088161520a565b81810360008312801583831316838312821617156112745761127461520a565b80516148c281614f31565b60006020828403121561539c57600080fd5b81516114c881614f31565b60ff82811682821603908111156108815761088161520a565b60ff81811683821601908111156108815761088161520a565b60005b838110156153f45781810151838201526020016153dc565b50506000910152565b72024b73b30b634b2103234b932b1ba34b7b71d1606d1b81526000825161542b8160138501602087016153d9565b9190910160130192915050565b60208152600082518060208401526154578160408501602087016153d9565b601f01601f19169190910160400192915050565b600181815b808511156154a657816000190482111561548c5761548c61520a565b8085161561549957918102915b93841c9390800290615470565b509250929050565b6000826154bd57506001610881565b816154ca57506000610881565b81600181146154e057600281146154ea57615506565b6001915050610881565b60ff8411156154fb576154fb61520a565b50506001821b610881565b5060208310610133831016604e8410600b8410161715615529575081810a610881565b615533838361546b565b80600019048211156155475761554761520a565b029392505050565b60006114c883836154ae565b60006020828403121561556d57600080fd5b5051919050565b60008261558357615583615322565b500690565b80516148c281614ac0565b600082601f8301126155a457600080fd5b604051608081018181106001600160401b03821117156155c6576155c66149eb565b6040528060808401858111156155db57600080fd5b845b818110156155f55780518352602092830192016155dd565b509195945050505050565b6000602080838503121561561357600080fd5b82516001600160401b038082111561562a57600080fd5b818501915085601f83011261563e57600080fd5b815161564c61518582615116565b81815260059190911b8301840190848101908883111561566b57600080fd5b8585015b838110156157885780518581111561568657600080fd5b8601603f81018b1361569757600080fd5b878101516156a761518582615116565b818152610140909102820160400190898101908d8311156156c757600080fd5b6040840193505b8284101561577857610140848f0312156156e757600080fd5b6156ef614a29565b84516156fa81614ac0565b8152848c015161570981614ac0565b818d015261571a8f60408701615593565b604082015261572b60c086016152cc565b606082015261573c60e086016152cc565b608082015261574e61010086016152cc565b60a082015261576061012086016152cc565b60c082015282526101409390930192908a01906156ce565b865250505091860191860161566f565b5098975050505050505050565b8051600081900b81146148c257600080fd5b60006101008083850312156157bb57600080fd5b604051908101906001600160401b03821181831017156157dd576157dd6149eb565b816040528092506157ed84615795565b81526157fb60208501615795565b602082015261580c60408501615795565b604082015261581d60608501615795565b606082015261582e60808501615795565b608082015261583f60a08501615795565b60a082015261585060c08501615795565b60c082015260e0840151915061586582615066565b60e0015292915050565b60006040828403121561588157600080fd5b615889614a01565b9050815161589681614ac0565b81526020820151614b0681614ac0565b600082601f8301126158b757600080fd5b815160206158c761518583615116565b82815260059290921b840181019181810190868411156158e657600080fd5b8286015b8481101561590a5780516158fd81614ac0565b83529183019183016158ea565b509695505050505050565b60006020828403121561592757600080fd5b81516001600160401b038082111561593e57600080fd5b908301906102e0828603121561595357600080fd5b61595b614a4b565b6159648361537f565b8152602083015160208201526040830151604082015261598786606085016157a7565b606082015261016061599b8782860161586f565b60808301526101a06159af8882870161586f565b60a08401526159c16101e08601615795565b60c08401526159d36102008601615588565b60e08401526159e56102208601615588565b6101008401526159f86102408601615588565b61012084015261026085015184811115615a1157600080fd5b615a1d898288016158a6565b61014085015250615a316102808601615588565b82840152615a426102a086016152cc565b6101808401526102c085015181840152505080935050505092915050565b958652935460ff80821660208089019190915260089290921c811660408801528451811660608801529301519092166080850152151560a0840152151560c083015260e08201526101000190565b600060408284031215615ac057600080fd5b6114c8838361586f565b60006020808385031215615add57600080fd5b82516001600160401b03811115615af357600080fd5b8301601f81018513615b0457600080fd5b8051615b1261518582615116565b81815260609182028301840191848201919088841115615b3157600080fd5b938501935b83851015615b9b5780858a031215615b4e5760008081fd5b615b56614a6e565b8551615b6181614ac0565b815285870151615b7081614ac0565b8188015260408681015160058110615b885760008081fd5b9082015283529384019391850191615b36565b50979650505050505050565b848152835460ff808216602084015260089190911c16604082015260c08101835160ff908116606084015260208501511660808301526152bb565b604081526000615bf56040830185614bfe565b90508260208301529392505050565b8281526040602082015260006141ed6040830184614bfe565b600082810b9082900b03607f198112607f821317156108815761088161520a565b60808101615c5c8286805160ff908116835260209182015116910152565b604082019390935260600152919050565b600060a08284031215615c7f57600080fd5b60405160a081018181106001600160401b0382111715615ca157615ca16149eb565b604052825160068110615cb357600080fd5b8152602083810151908201526040830151615ccd81614ac0565b60408201526060830151615ce081614ac0565b60608201526080830151615cf381615066565b60808201529392505050565b600060ff821660ff8103615d1557615d1561520a565b60010192915050565b600082601f830112615d2f57600080fd5b81516020615d3f61518583615116565b82815260069290921b84018101918181019086841115615d5e57600080fd5b8286015b8481101561590a5760408189031215615d7b5760008081fd5b615d83614a01565b815160178110615d935760008081fd5b81528185015185820152835291830191604001615d62565b600060208284031215615dbd57600080fd5b81516001600160401b0380821115615dd457600080fd5b9083019060e08286031215615de857600080fd5b615df0614a29565b82518152615e00602084016152cc565b6020820152615e1160408401615588565b6040820152615e2260608401615588565b6060820152608083015182811115615e3957600080fd5b615e4587828601615d1e565b60808301525060a083015182811115615e5d57600080fd5b615e6987828601615d1e565b60a08301525060c083015182811115615e8157600080fd5b615e8d87828601615d1e565b60c08301525095945050505050565b878152602081018790526040810186905260608101859052835460ff808216608084015260089190911c1660a082015261010081018360c0830152615ee460e0830184614911565b98975050505050505050565b60808101615efe8287614c9a565b84602083015283604083015282606083015295945050505050565b634e487b7160e01b600052603160045260246000fd5b60006040820184835260206040818501528185548084526060860191508660005282600020935060005b81811015615f7557845483526001948501949284019201615f59565b509097965050505050505056fea2646970667358221220152ee3c83f62f4965c00bb8a92b23dd51c3dc4cb2c5d4ddf75b83c2a22ee442e64736f6c63430008110033",
  "devdoc": {
    "kind": "dev",
    "methods": {
      "owner()": {
        "details": "Returns the address of the current owner."
      },
      "renounceOwnership()": {
        "details": "Leaves the contract without owner. It will not be possible to call `onlyOwner` functions anymore. Can only be called by the current owner. NOTE: Renouncing ownership will leave the contract without an owner, thereby removing any functionality that is only available to the owner."
      },
      "transferOwnership(address)": {
        "details": "Transfers ownership of the contract to a new account (`newOwner`). Can only be called by the current owner."
      }
    },
    "version": 1
  },
  "userdoc": {
    "kind": "user",
    "methods": {},
    "version": 1
  },
  "storageLayout": {
    "storage": [
      {
        "astId": 7,
        "contract": "contracts/BCGames.sol:BCGames",
        "label": "_owner",
        "offset": 0,
        "slot": "0",
        "type": "t_address"
      },
      {
        "astId": 19678,
        "contract": "contracts/BCGames.sol:BCGames",
        "label": "TODO_randomSeed",
        "offset": 0,
        "slot": "1",
        "type": "t_uint256"
      },
      {
        "astId": 9485,
        "contract": "contracts/BCGames.sol:BCGames",
        "label": "chars",
        "offset": 0,
        "slot": "2",
        "type": "t_contract(CharInterface)9193"
      },
      {
        "astId": 9488,
        "contract": "contracts/BCGames.sol:BCGames",
        "label": "maps",
        "offset": 0,
        "slot": "3",
        "type": "t_contract(MapInterface)9360"
      },
      {
        "astId": 9491,
        "contract": "contracts/BCGames.sol:BCGames",
        "label": "bcEvents",
        "offset": 0,
        "slot": "4",
        "type": "t_contract(EventsInterface)9174"
      },
      {
        "astId": 9494,
        "contract": "contracts/BCGames.sol:BCGames",
        "label": "items",
        "offset": 0,
        "slot": "5",
        "type": "t_contract(ItemsInterface)9389"
      },
      {
        "astId": 9497,
        "contract": "contracts/BCGames.sol:BCGames",
        "label": "players",
        "offset": 0,
        "slot": "6",
        "type": "t_contract(PlayersInterface)9478"
      },
      {
        "astId": 9499,
        "contract": "contracts/BCGames.sol:BCGames",
        "label": "lobbiesAddress",
        "offset": 0,
        "slot": "7",
        "type": "t_address"
      },
      {
        "astId": 9501,
        "contract": "contracts/BCGames.sol:BCGames",
        "label": "charsAddress",
        "offset": 0,
        "slot": "8",
        "type": "t_address"
      },
      {
        "astId": 9503,
        "contract": "contracts/BCGames.sol:BCGames",
        "label": "actionsAddress",
        "offset": 0,
        "slot": "9",
        "type": "t_address"
      },
      {
        "astId": 9577,
        "contract": "contracts/BCGames.sol:BCGames",
        "label": "StartLocation",
        "offset": 0,
        "slot": "10",
        "type": "t_struct(Position)19459_storage"
      },
      {
        "astId": 9581,
        "contract": "contracts/BCGames.sol:BCGames",
        "label": "games",
        "offset": 0,
        "slot": "11",
        "type": "t_array(t_struct(Game)19560_storage)dyn_storage"
      },
      {
        "astId": 9586,
        "contract": "contracts/BCGames.sol:BCGames",
        "label": "addressToGame",
        "offset": 0,
        "slot": "12",
        "type": "t_mapping(t_address,t_array(t_uint256)dyn_storage)"
      },
      {
        "astId": 9591,
        "contract": "contracts/BCGames.sol:BCGames",
        "label": "denizenHealth",
        "offset": 0,
        "slot": "13",
        "type": "t_mapping(t_enum(DenizenType)19399,t_uint256)"
      },
      {
        "astId": 9596,
        "contract": "contracts/BCGames.sol:BCGames",
        "label": "denizenDef",
        "offset": 0,
        "slot": "14",
        "type": "t_mapping(t_enum(DenizenType)19399,t_uint256)"
      },
      {
        "astId": 9601,
        "contract": "contracts/BCGames.sol:BCGames",
        "label": "denizenOff",
        "offset": 0,
        "slot": "15",
        "type": "t_mapping(t_enum(DenizenType)19399,t_uint256)"
      },
      {
        "astId": 9606,
        "contract": "contracts/BCGames.sol:BCGames",
        "label": "denizenDmg",
        "offset": 0,
        "slot": "16",
        "type": "t_mapping(t_enum(DenizenType)19399,t_uint256)"
      },
      {
        "astId": 9611,
        "contract": "contracts/BCGames.sol:BCGames",
        "label": "denizenMovement",
        "offset": 0,
        "slot": "17",
        "type": "t_mapping(t_enum(DenizenType)19399,t_uint256)"
      }
    ],
    "types": {
      "t_address": {
        "encoding": "inplace",
        "label": "address",
        "numberOfBytes": "20"
      },
      "t_array(t_struct(Denizen)19445_storage)dyn_storage": {
        "base": "t_struct(Denizen)19445_storage",
        "encoding": "dynamic_array",
        "label": "struct BCTypes.Denizen[]",
        "numberOfBytes": "32"
      },
      "t_array(t_struct(Game)19560_storage)dyn_storage": {
        "base": "t_struct(Game)19560_storage",
        "encoding": "dynamic_array",
        "label": "struct BCTypes.Game[]",
        "numberOfBytes": "32"
      },
      "t_array(t_uint256)dyn_storage": {
        "base": "t_uint256",
        "encoding": "dynamic_array",
        "label": "uint256[]",
        "numberOfBytes": "32"
      },
      "t_bool": {
        "encoding": "inplace",
        "label": "bool",
        "numberOfBytes": "1"
      },
      "t_contract(CharInterface)9193": {
        "encoding": "inplace",
        "label": "contract CharInterface",
        "numberOfBytes": "20"
      },
      "t_contract(EventsInterface)9174": {
        "encoding": "inplace",
        "label": "contract EventsInterface",
        "numberOfBytes": "20"
      },
      "t_contract(ItemsInterface)9389": {
        "encoding": "inplace",
        "label": "contract ItemsInterface",
        "numberOfBytes": "20"
      },
      "t_contract(MapInterface)9360": {
        "encoding": "inplace",
        "label": "contract MapInterface",
        "numberOfBytes": "20"
      },
      "t_contract(PlayersInterface)9478": {
        "encoding": "inplace",
        "label": "contract PlayersInterface",
        "numberOfBytes": "20"
      },
      "t_enum(BCEventType)19367": {
        "encoding": "inplace",
        "label": "enum BCTypes.BCEventType",
        "numberOfBytes": "1"
      },
      "t_enum(DenizenType)19399": {
        "encoding": "inplace",
        "label": "enum BCTypes.DenizenType",
        "numberOfBytes": "1"
      },
      "t_mapping(t_address,t_array(t_uint256)dyn_storage)": {
        "encoding": "mapping",
        "key": "t_address",
        "label": "mapping(address => uint256[])",
        "numberOfBytes": "32",
        "value": "t_array(t_uint256)dyn_storage"
      },
      "t_mapping(t_enum(DenizenType)19399,t_uint256)": {
        "encoding": "mapping",
        "key": "t_enum(DenizenType)19399",
        "label": "mapping(enum BCTypes.DenizenType => uint256)",
        "numberOfBytes": "32",
        "value": "t_uint256"
      },
      "t_struct(Denizen)19445_storage": {
        "encoding": "inplace",
        "label": "struct BCTypes.Denizen",
        "members": [
          {
            "astId": 19434,
            "contract": "contracts/BCGames.sol:BCGames",
            "label": "id",
            "offset": 0,
            "slot": "0",
            "type": "t_uint256"
          },
          {
            "astId": 19436,
            "contract": "contracts/BCGames.sol:BCGames",
            "label": "gameId",
            "offset": 0,
            "slot": "1",
            "type": "t_uint256"
          },
          {
            "astId": 19439,
            "contract": "contracts/BCGames.sol:BCGames",
            "label": "denizenType",
            "offset": 0,
            "slot": "2",
            "type": "t_enum(DenizenType)19399"
          },
          {
            "astId": 19442,
            "contract": "contracts/BCGames.sol:BCGames",
            "label": "position",
            "offset": 0,
            "slot": "3",
            "type": "t_struct(Position)19459_storage"
          },
          {
            "astId": 19444,
            "contract": "contracts/BCGames.sol:BCGames",
            "label": "healthRemaining",
            "offset": 0,
            "slot": "4",
            "type": "t_uint256"
          }
        ],
        "numberOfBytes": "160"
      },
      "t_struct(EventTracker)19454_storage": {
        "encoding": "inplace",
        "label": "struct BCTypes.EventTracker",
        "members": [
          {
            "astId": 19447,
            "contract": "contracts/BCGames.sol:BCGames",
            "label": "bugEvents",
            "offset": 0,
            "slot": "0",
            "type": "t_uint8"
          },
          {
            "astId": 19449,
            "contract": "contracts/BCGames.sol:BCGames",
            "label": "mysteryEvents",
            "offset": 1,
            "slot": "0",
            "type": "t_uint8"
          },
          {
            "astId": 19451,
            "contract": "contracts/BCGames.sol:BCGames",
            "label": "scavEvents",
            "offset": 2,
            "slot": "0",
            "type": "t_uint8"
          },
          {
            "astId": 19453,
            "contract": "contracts/BCGames.sol:BCGames",
            "label": "shipEvents",
            "offset": 3,
            "slot": "0",
            "type": "t_uint8"
          }
        ],
        "numberOfBytes": "32"
      },
      "t_struct(Game)19560_storage": {
        "encoding": "inplace",
        "label": "struct BCTypes.Game",
        "members": [
          {
            "astId": 19511,
            "contract": "contracts/BCGames.sol:BCGames",
            "label": "active",
            "offset": 0,
            "slot": "0",
            "type": "t_bool"
          },
          {
            "astId": 19513,
            "contract": "contracts/BCGames.sol:BCGames",
            "label": "denizenTurn",
            "offset": 1,
            "slot": "0",
            "type": "t_bool"
          },
          {
            "astId": 19516,
            "contract": "contracts/BCGames.sol:BCGames",
            "label": "playerIndexes",
            "offset": 0,
            "slot": "1",
            "type": "t_array(t_uint256)dyn_storage"
          },
          {
            "astId": 19518,
            "contract": "contracts/BCGames.sol:BCGames",
            "label": "currentPlayerTurnIndex",
            "offset": 0,
            "slot": "2",
            "type": "t_uint256"
          },
          {
            "astId": 19520,
            "contract": "contracts/BCGames.sol:BCGames",
            "label": "numPlayers",
            "offset": 0,
            "slot": "3",
            "type": "t_uint256"
          },
          {
            "astId": 19522,
            "contract": "contracts/BCGames.sol:BCGames",
            "label": "turnsTaken",
            "offset": 0,
            "slot": "4",
            "type": "t_uint256"
          },
          {
            "astId": 19525,
            "contract": "contracts/BCGames.sol:BCGames",
            "label": "eventTracker",
            "offset": 0,
            "slot": "5",
            "type": "t_struct(EventTracker)19454_storage"
          },
          {
            "astId": 19527,
            "contract": "contracts/BCGames.sol:BCGames",
            "label": "mapId",
            "offset": 0,
            "slot": "6",
            "type": "t_uint256"
          },
          {
            "astId": 19529,
            "contract": "contracts/BCGames.sol:BCGames",
            "label": "eventPlayerId",
            "offset": 0,
            "slot": "7",
            "type": "t_uint256"
          },
          {
            "astId": 19531,
            "contract": "contracts/BCGames.sol:BCGames",
            "label": "eventNumber",
            "offset": 0,
            "slot": "8",
            "type": "t_uint256"
          },
          {
            "astId": 19534,
            "contract": "contracts/BCGames.sol:BCGames",
            "label": "eventType",
            "offset": 0,
            "slot": "9",
            "type": "t_enum(BCEventType)19367"
          },
          {
            "astId": 19537,
            "contract": "contracts/BCGames.sol:BCGames",
            "label": "eventPosition",
            "offset": 0,
            "slot": "10",
            "type": "t_struct(Position)19459_storage"
          },
          {
            "astId": 19540,
            "contract": "contracts/BCGames.sol:BCGames",
            "label": "unusedBugEvents",
            "offset": 0,
            "slot": "11",
            "type": "t_array(t_uint256)dyn_storage"
          },
          {
            "astId": 19543,
            "contract": "contracts/BCGames.sol:BCGames",
            "label": "unusedMysteryEvents",
            "offset": 0,
            "slot": "12",
            "type": "t_array(t_uint256)dyn_storage"
          },
          {
            "astId": 19546,
            "contract": "contracts/BCGames.sol:BCGames",
            "label": "unusedScavEvents",
            "offset": 0,
            "slot": "13",
            "type": "t_array(t_uint256)dyn_storage"
          },
          {
            "astId": 19549,
            "contract": "contracts/BCGames.sol:BCGames",
            "label": "unusedShipEvents",
            "offset": 0,
            "slot": "14",
            "type": "t_array(t_uint256)dyn_storage"
          },
          {
            "astId": 19551,
            "contract": "contracts/BCGames.sol:BCGames",
            "label": "turnTimeLimit",
            "offset": 0,
            "slot": "15",
            "type": "t_uint256"
          },
          {
            "astId": 19553,
            "contract": "contracts/BCGames.sol:BCGames",
            "label": "lastTurnTimestamp",
            "offset": 0,
            "slot": "16",
            "type": "t_uint256"
          },
          {
            "astId": 19555,
            "contract": "contracts/BCGames.sol:BCGames",
            "label": "DEBUG_returnAmount",
            "offset": 0,
            "slot": "17",
            "type": "t_uint256"
          },
          {
            "astId": 19559,
            "contract": "contracts/BCGames.sol:BCGames",
            "label": "denizens",
            "offset": 0,
            "slot": "18",
            "type": "t_array(t_struct(Denizen)19445_storage)dyn_storage"
          }
        ],
        "numberOfBytes": "608"
      },
      "t_struct(Position)19459_storage": {
        "encoding": "inplace",
        "label": "struct BCTypes.Position",
        "members": [
          {
            "astId": 19456,
            "contract": "contracts/BCGames.sol:BCGames",
            "label": "row",
            "offset": 0,
            "slot": "0",
            "type": "t_uint8"
          },
          {
            "astId": 19458,
            "contract": "contracts/BCGames.sol:BCGames",
            "label": "col",
            "offset": 1,
            "slot": "0",
            "type": "t_uint8"
          }
        ],
        "numberOfBytes": "32"
      },
      "t_uint256": {
        "encoding": "inplace",
        "label": "uint256",
        "numberOfBytes": "32"
      },
      "t_uint8": {
        "encoding": "inplace",
        "label": "uint8",
        "numberOfBytes": "1"
      }
    }
  }
}