{
  "address": "0x6E6fE3b5eBdfBa060cC0473DFe80E00608aB23C5",
  "abi": [
    {
      "inputs": [],
      "stateMutability": "nonpayable",
      "type": "constructor"
    },
    {
      "anonymous": false,
      "inputs": [
        {
          "indexed": false,
          "internalType": "uint256",
          "name": "gameId",
          "type": "uint256"
        },
        {
          "indexed": false,
          "internalType": "uint256",
          "name": "roll",
          "type": "uint256"
        },
        {
          "indexed": false,
          "internalType": "uint256",
          "name": "forValue",
          "type": "uint256"
        },
        {
          "indexed": false,
          "internalType": "uint256",
          "name": "against",
          "type": "uint256"
        }
      ],
      "name": "ChallengeEvent",
      "type": "event"
    },
    {
      "anonymous": false,
      "inputs": [
        {
          "indexed": false,
          "internalType": "uint256",
          "name": "gameId",
          "type": "uint256"
        },
        {
          "indexed": false,
          "internalType": "uint256",
          "name": "roll",
          "type": "uint256"
        }
      ],
      "name": "DiceRollEvent",
      "type": "event"
    },
    {
      "anonymous": false,
      "inputs": [
        {
          "indexed": true,
          "internalType": "address",
          "name": "previousOwner",
          "type": "address"
        },
        {
          "indexed": true,
          "internalType": "address",
          "name": "newOwner",
          "type": "address"
        }
      ],
      "name": "OwnershipTransferred",
      "type": "event"
    },
    {
      "anonymous": false,
      "inputs": [],
      "name": "Received",
      "type": "event"
    },
    {
      "inputs": [
        {
          "internalType": "uint256",
          "name": "_matic",
          "type": "uint256"
        }
      ],
      "name": "SetMintCostInMatic",
      "outputs": [],
      "stateMutability": "nonpayable",
      "type": "function"
    },
    {
      "inputs": [
        {
          "internalType": "int256",
          "name": "x",
          "type": "int256"
        }
      ],
      "name": "abs",
      "outputs": [
        {
          "internalType": "int256",
          "name": "",
          "type": "int256"
        }
      ],
      "stateMutability": "pure",
      "type": "function"
    },
    {
      "inputs": [],
      "name": "actionsContract",
      "outputs": [
        {
          "internalType": "address",
          "name": "",
          "type": "address"
        }
      ],
      "stateMutability": "view",
      "type": "function"
    },
    {
      "inputs": [
        {
          "internalType": "uint256",
          "name": "_gameId",
          "type": "uint256"
        },
        {
          "internalType": "uint256[]",
          "name": "_playerIds",
          "type": "uint256[]"
        }
      ],
      "name": "addItemsToGame",
      "outputs": [],
      "stateMutability": "nonpayable",
      "type": "function"
    },
    {
      "inputs": [
        {
          "internalType": "uint256",
          "name": "_playerId",
          "type": "uint256"
        },
        {
          "internalType": "uint256[]",
          "name": "_itemIds",
          "type": "uint256[]"
        },
        {
          "internalType": "address",
          "name": "_owner",
          "type": "address"
        }
      ],
      "name": "addItemsToPlayer",
      "outputs": [],
      "stateMutability": "nonpayable",
      "type": "function"
    },
    {
      "inputs": [],
      "name": "commitItemToMission",
      "outputs": [],
      "stateMutability": "nonpayable",
      "type": "function"
    },
    {
      "inputs": [
        {
          "internalType": "uint256",
          "name": "_playerId",
          "type": "uint256"
        },
        {
          "internalType": "uint256",
          "name": "_itemId",
          "type": "uint256"
        }
      ],
      "name": "destroyItem",
      "outputs": [],
      "stateMutability": "nonpayable",
      "type": "function"
    },
    {
      "inputs": [
        {
          "internalType": "uint256",
          "name": "_gameId",
          "type": "uint256"
        },
        {
          "internalType": "uint256",
          "name": "_playerId",
          "type": "uint256"
        },
        {
          "internalType": "uint256",
          "name": "_row",
          "type": "uint256"
        },
        {
          "internalType": "uint256",
          "name": "_col",
          "type": "uint256"
        }
      ],
      "name": "dropAllItems",
      "outputs": [],
      "stateMutability": "nonpayable",
      "type": "function"
    },
    {
      "inputs": [],
      "name": "games",
      "outputs": [
        {
          "internalType": "contract GameInterface",
          "name": "",
          "type": "address"
        }
      ],
      "stateMutability": "view",
      "type": "function"
    },
    {
      "inputs": [],
      "name": "gamesContract",
      "outputs": [
        {
          "internalType": "address",
          "name": "",
          "type": "address"
        }
      ],
      "stateMutability": "view",
      "type": "function"
    },
    {
      "inputs": [
        {
          "components": [
            {
              "internalType": "uint8",
              "name": "row",
              "type": "uint8"
            },
            {
              "internalType": "uint8",
              "name": "col",
              "type": "uint8"
            }
          ],
          "internalType": "struct BCTypes.Position",
          "name": "_firstRoom",
          "type": "tuple"
        },
        {
          "components": [
            {
              "internalType": "uint8",
              "name": "row",
              "type": "uint8"
            },
            {
              "internalType": "uint8",
              "name": "col",
              "type": "uint8"
            }
          ],
          "internalType": "struct BCTypes.Position",
          "name": "_secondRoom",
          "type": "tuple"
        }
      ],
      "name": "getDirectionBetween",
      "outputs": [
        {
          "internalType": "uint256",
          "name": "",
          "type": "uint256"
        }
      ],
      "stateMutability": "pure",
      "type": "function"
    },
    {
      "inputs": [
        {
          "internalType": "uint256",
          "name": "_playerID",
          "type": "uint256"
        }
      ],
      "name": "getItemIDsByPlayer",
      "outputs": [
        {
          "internalType": "uint256[]",
          "name": "",
          "type": "uint256[]"
        }
      ],
      "stateMutability": "view",
      "type": "function"
    },
    {
      "inputs": [
        {
          "internalType": "uint256",
          "name": "_playerID",
          "type": "uint256"
        }
      ],
      "name": "getItemsByPlayer",
      "outputs": [
        {
          "components": [
            {
              "internalType": "bytes32",
              "name": "genHash",
              "type": "bytes32"
            },
            {
              "internalType": "uint256",
              "name": "id",
              "type": "uint256"
            },
            {
              "internalType": "uint256",
              "name": "uifID",
              "type": "uint256"
            },
            {
              "internalType": "uint256",
              "name": "holdingPlayerId",
              "type": "uint256"
            },
            {
              "internalType": "address",
              "name": "ownerAddress",
              "type": "address"
            },
            {
              "internalType": "uint256",
              "name": "weight",
              "type": "uint256"
            },
            {
              "internalType": "enum BCTypes.ItemCategory",
              "name": "itemCategory",
              "type": "uint8"
            },
            {
              "internalType": "uint8",
              "name": "grantsAbility",
              "type": "uint8"
            },
            {
              "internalType": "uint8",
              "name": "grantsFlaw",
              "type": "uint8"
            },
            {
              "internalType": "enum BCTypes.ItemType",
              "name": "itemType",
              "type": "uint8"
            },
            {
              "internalType": "uint8",
              "name": "power",
              "type": "uint8"
            },
            {
              "internalType": "uint256",
              "name": "currentGame",
              "type": "uint256"
            },
            {
              "internalType": "enum BCTypes.WorldItemStatus",
              "name": "status",
              "type": "uint8"
            },
            {
              "components": [
                {
                  "internalType": "uint8",
                  "name": "row",
                  "type": "uint8"
                },
                {
                  "internalType": "uint8",
                  "name": "col",
                  "type": "uint8"
                }
              ],
              "internalType": "struct BCTypes.Position",
              "name": "position",
              "type": "tuple"
            }
          ],
          "internalType": "struct BCTypes.Item[]",
          "name": "",
          "type": "tuple[]"
        }
      ],
      "stateMutability": "view",
      "type": "function"
    },
    {
      "inputs": [
        {
          "internalType": "uint256",
          "name": "_gameId",
          "type": "uint256"
        }
      ],
      "name": "getItemsIdsInGame",
      "outputs": [
        {
          "internalType": "uint256[]",
          "name": "",
          "type": "uint256[]"
        }
      ],
      "stateMutability": "view",
      "type": "function"
    },
    {
      "inputs": [
        {
          "internalType": "uint256",
          "name": "_direction",
          "type": "uint256"
        },
        {
          "components": [
            {
              "internalType": "uint8",
              "name": "row",
              "type": "uint8"
            },
            {
              "internalType": "uint8",
              "name": "col",
              "type": "uint8"
            }
          ],
          "internalType": "struct BCTypes.Position",
          "name": "_start",
          "type": "tuple"
        }
      ],
      "name": "getNeighborRoom",
      "outputs": [
        {
          "components": [
            {
              "internalType": "uint8",
              "name": "row",
              "type": "uint8"
            },
            {
              "internalType": "uint8",
              "name": "col",
              "type": "uint8"
            }
          ],
          "internalType": "struct BCTypes.Position",
          "name": "",
          "type": "tuple"
        }
      ],
      "stateMutability": "pure",
      "type": "function"
    },
    {
      "inputs": [
        {
          "internalType": "address",
          "name": "_address",
          "type": "address"
        }
      ],
      "name": "getOwnedItemIds",
      "outputs": [
        {
          "internalType": "uint256[]",
          "name": "",
          "type": "uint256[]"
        }
      ],
      "stateMutability": "view",
      "type": "function"
    },
    {
      "inputs": [
        {
          "internalType": "address",
          "name": "_address",
          "type": "address"
        }
      ],
      "name": "getOwnedItems",
      "outputs": [
        {
          "components": [
            {
              "internalType": "bytes32",
              "name": "genHash",
              "type": "bytes32"
            },
            {
              "internalType": "uint256",
              "name": "id",
              "type": "uint256"
            },
            {
              "internalType": "uint256",
              "name": "uifID",
              "type": "uint256"
            },
            {
              "internalType": "uint256",
              "name": "holdingPlayerId",
              "type": "uint256"
            },
            {
              "internalType": "address",
              "name": "ownerAddress",
              "type": "address"
            },
            {
              "internalType": "uint256",
              "name": "weight",
              "type": "uint256"
            },
            {
              "internalType": "enum BCTypes.ItemCategory",
              "name": "itemCategory",
              "type": "uint8"
            },
            {
              "internalType": "uint8",
              "name": "grantsAbility",
              "type": "uint8"
            },
            {
              "internalType": "uint8",
              "name": "grantsFlaw",
              "type": "uint8"
            },
            {
              "internalType": "enum BCTypes.ItemType",
              "name": "itemType",
              "type": "uint8"
            },
            {
              "internalType": "uint8",
              "name": "power",
              "type": "uint8"
            },
            {
              "internalType": "uint256",
              "name": "currentGame",
              "type": "uint256"
            },
            {
              "internalType": "enum BCTypes.WorldItemStatus",
              "name": "status",
              "type": "uint8"
            },
            {
              "components": [
                {
                  "internalType": "uint8",
                  "name": "row",
                  "type": "uint8"
                },
                {
                  "internalType": "uint8",
                  "name": "col",
                  "type": "uint8"
                }
              ],
              "internalType": "struct BCTypes.Position",
              "name": "position",
              "type": "tuple"
            }
          ],
          "internalType": "struct BCTypes.Item[]",
          "name": "",
          "type": "tuple[]"
        }
      ],
      "stateMutability": "view",
      "type": "function"
    },
    {
      "inputs": [
        {
          "internalType": "uint256",
          "name": "_playerId",
          "type": "uint256"
        }
      ],
      "name": "getTraitModifiers",
      "outputs": [
        {
          "components": [
            {
              "internalType": "int8",
              "name": "health",
              "type": "int8"
            },
            {
              "internalType": "int8",
              "name": "carry",
              "type": "int8"
            },
            {
              "internalType": "int8",
              "name": "defense",
              "type": "int8"
            },
            {
              "internalType": "int8",
              "name": "hack",
              "type": "int8"
            },
            {
              "internalType": "int8",
              "name": "breach",
              "type": "int8"
            },
            {
              "internalType": "int8",
              "name": "shoot",
              "type": "int8"
            },
            {
              "internalType": "int8",
              "name": "melee",
              "type": "int8"
            }
          ],
          "internalType": "struct BCTypes.Traits",
          "name": "",
          "type": "tuple"
        }
      ],
      "stateMutability": "view",
      "type": "function"
    },
    {
      "inputs": [
        {
          "internalType": "uint256",
          "name": "_traitNum",
          "type": "uint256"
        },
        {
          "internalType": "uint256",
          "name": "_subTraitNum",
          "type": "uint256"
        }
      ],
      "name": "getUIOffset",
      "outputs": [
        {
          "internalType": "uint256",
          "name": "",
          "type": "uint256"
        }
      ],
      "stateMutability": "pure",
      "type": "function"
    },
    {
      "inputs": [
        {
          "internalType": "uint256",
          "name": "_gameId",
          "type": "uint256"
        }
      ],
      "name": "getWorldItemIds",
      "outputs": [
        {
          "internalType": "uint256[]",
          "name": "",
          "type": "uint256[]"
        }
      ],
      "stateMutability": "view",
      "type": "function"
    },
    {
      "inputs": [
        {
          "internalType": "uint256",
          "name": "_gameId",
          "type": "uint256"
        }
      ],
      "name": "getWorldItems",
      "outputs": [
        {
          "components": [
            {
              "internalType": "bytes32",
              "name": "genHash",
              "type": "bytes32"
            },
            {
              "internalType": "uint256",
              "name": "id",
              "type": "uint256"
            },
            {
              "internalType": "uint256",
              "name": "uifID",
              "type": "uint256"
            },
            {
              "internalType": "uint256",
              "name": "holdingPlayerId",
              "type": "uint256"
            },
            {
              "internalType": "address",
              "name": "ownerAddress",
              "type": "address"
            },
            {
              "internalType": "uint256",
              "name": "weight",
              "type": "uint256"
            },
            {
              "internalType": "enum BCTypes.ItemCategory",
              "name": "itemCategory",
              "type": "uint8"
            },
            {
              "internalType": "uint8",
              "name": "grantsAbility",
              "type": "uint8"
            },
            {
              "internalType": "uint8",
              "name": "grantsFlaw",
              "type": "uint8"
            },
            {
              "internalType": "enum BCTypes.ItemType",
              "name": "itemType",
              "type": "uint8"
            },
            {
              "internalType": "uint8",
              "name": "power",
              "type": "uint8"
            },
            {
              "internalType": "uint256",
              "name": "currentGame",
              "type": "uint256"
            },
            {
              "internalType": "enum BCTypes.WorldItemStatus",
              "name": "status",
              "type": "uint8"
            },
            {
              "components": [
                {
                  "internalType": "uint8",
                  "name": "row",
                  "type": "uint8"
                },
                {
                  "internalType": "uint8",
                  "name": "col",
                  "type": "uint8"
                }
              ],
              "internalType": "struct BCTypes.Position",
              "name": "position",
              "type": "tuple"
            }
          ],
          "internalType": "struct BCTypes.Item[]",
          "name": "",
          "type": "tuple[]"
        }
      ],
      "stateMutability": "view",
      "type": "function"
    },
    {
      "inputs": [
        {
          "internalType": "uint256",
          "name": "",
          "type": "uint256"
        }
      ],
      "name": "items",
      "outputs": [
        {
          "internalType": "bytes32",
          "name": "genHash",
          "type": "bytes32"
        },
        {
          "internalType": "uint256",
          "name": "id",
          "type": "uint256"
        },
        {
          "internalType": "uint256",
          "name": "uifID",
          "type": "uint256"
        },
        {
          "internalType": "uint256",
          "name": "holdingPlayerId",
          "type": "uint256"
        },
        {
          "internalType": "address",
          "name": "ownerAddress",
          "type": "address"
        },
        {
          "internalType": "uint256",
          "name": "weight",
          "type": "uint256"
        },
        {
          "internalType": "enum BCTypes.ItemCategory",
          "name": "itemCategory",
          "type": "uint8"
        },
        {
          "internalType": "uint8",
          "name": "grantsAbility",
          "type": "uint8"
        },
        {
          "internalType": "uint8",
          "name": "grantsFlaw",
          "type": "uint8"
        },
        {
          "internalType": "enum BCTypes.ItemType",
          "name": "itemType",
          "type": "uint8"
        },
        {
          "internalType": "uint8",
          "name": "power",
          "type": "uint8"
        },
        {
          "internalType": "uint256",
          "name": "currentGame",
          "type": "uint256"
        },
        {
          "internalType": "enum BCTypes.WorldItemStatus",
          "name": "status",
          "type": "uint8"
        },
        {
          "components": [
            {
              "internalType": "uint8",
              "name": "row",
              "type": "uint8"
            },
            {
              "internalType": "uint8",
              "name": "col",
              "type": "uint8"
            }
          ],
          "internalType": "struct BCTypes.Position",
          "name": "position",
          "type": "tuple"
        }
      ],
      "stateMutability": "view",
      "type": "function"
    },
    {
      "inputs": [],
      "name": "lobbies",
      "outputs": [
        {
          "internalType": "contract LobbyInterface",
          "name": "",
          "type": "address"
        }
      ],
      "stateMutability": "view",
      "type": "function"
    },
    {
      "inputs": [
        {
          "internalType": "uint256",
          "name": "_holdingPlayerId",
          "type": "uint256"
        },
        {
          "internalType": "address",
          "name": "_holderAddress",
          "type": "address"
        },
        {
          "internalType": "uint256",
          "name": "_gameId",
          "type": "uint256"
        }
      ],
      "name": "lootItem",
      "outputs": [],
      "stateMutability": "payable",
      "type": "function"
    },
    {
      "inputs": [],
      "name": "mintCost",
      "outputs": [
        {
          "internalType": "uint256",
          "name": "",
          "type": "uint256"
        }
      ],
      "stateMutability": "view",
      "type": "function"
    },
    {
      "inputs": [],
      "name": "mintIsActive",
      "outputs": [
        {
          "internalType": "bool",
          "name": "",
          "type": "bool"
        }
      ],
      "stateMutability": "view",
      "type": "function"
    },
    {
      "inputs": [
        {
          "internalType": "uint256",
          "name": "_min",
          "type": "uint256"
        },
        {
          "internalType": "uint256",
          "name": "_max",
          "type": "uint256"
        },
        {
          "internalType": "uint256",
          "name": "_val",
          "type": "uint256"
        },
        {
          "internalType": "uint256",
          "name": "_valMax",
          "type": "uint256"
        }
      ],
      "name": "normalizeToSmallRange",
      "outputs": [
        {
          "internalType": "uint8",
          "name": "",
          "type": "uint8"
        }
      ],
      "stateMutability": "pure",
      "type": "function"
    },
    {
      "inputs": [
        {
          "internalType": "address",
          "name": "_operator",
          "type": "address"
        },
        {
          "internalType": "address",
          "name": "_from",
          "type": "address"
        },
        {
          "internalType": "uint256",
          "name": "_tokenId",
          "type": "uint256"
        },
        {
          "internalType": "bytes",
          "name": "_data",
          "type": "bytes"
        }
      ],
      "name": "onERC721Received",
      "outputs": [
        {
          "internalType": "bytes4",
          "name": "",
          "type": "bytes4"
        }
      ],
      "stateMutability": "nonpayable",
      "type": "function"
    },
    {
      "inputs": [
        {
          "internalType": "uint256",
          "name": "_direction",
          "type": "uint256"
        }
      ],
      "name": "opposite",
      "outputs": [
        {
          "internalType": "uint256",
          "name": "",
          "type": "uint256"
        }
      ],
      "stateMutability": "pure",
      "type": "function"
    },
    {
      "inputs": [],
      "name": "owner",
      "outputs": [
        {
          "internalType": "address",
          "name": "",
          "type": "address"
        }
      ],
      "stateMutability": "view",
      "type": "function"
    },
    {
      "inputs": [
        {
          "internalType": "uint256",
          "name": "_playerId",
          "type": "uint256"
        },
        {
          "internalType": "uint256[]",
          "name": "_itemIds",
          "type": "uint256[]"
        },
        {
          "internalType": "address",
          "name": "_newOwnerAddress",
          "type": "address"
        }
      ],
      "name": "pickupWorldItems",
      "outputs": [],
      "stateMutability": "nonpayable",
      "type": "function"
    },
    {
      "inputs": [],
      "name": "playersContract",
      "outputs": [
        {
          "internalType": "contract PlayersContract",
          "name": "",
          "type": "address"
        }
      ],
      "stateMutability": "view",
      "type": "function"
    },
    {
      "inputs": [],
      "name": "randKeccak",
      "outputs": [
        {
          "internalType": "bytes32",
          "name": "",
          "type": "bytes32"
        }
      ],
      "stateMutability": "nonpayable",
      "type": "function"
    },
    {
      "inputs": [],
      "name": "renounceOwnership",
      "outputs": [],
      "stateMutability": "nonpayable",
      "type": "function"
    },
    {
      "inputs": [
        {
          "internalType": "uint256",
          "name": "_gameId",
          "type": "uint256"
        },
        {
          "internalType": "uint256",
          "name": "_for",
          "type": "uint256"
        },
        {
          "internalType": "uint256",
          "name": "_against",
          "type": "uint256"
        }
      ],
      "name": "resolveChallenge",
      "outputs": [
        {
          "internalType": "bool",
          "name": "",
          "type": "bool"
        }
      ],
      "stateMutability": "nonpayable",
      "type": "function"
    },
    {
      "inputs": [
        {
          "internalType": "uint256",
          "name": "_gameId",
          "type": "uint256"
        }
      ],
      "name": "roll",
      "outputs": [
        {
          "internalType": "uint256",
          "name": "",
          "type": "uint256"
        }
      ],
      "stateMutability": "nonpayable",
      "type": "function"
    },
    {
      "inputs": [
        {
          "internalType": "address",
          "name": "_lobbyContractAddress",
          "type": "address"
        },
        {
          "internalType": "address",
          "name": "_gameContract",
          "type": "address"
        },
        {
          "internalType": "address",
          "name": "_UIFAddress",
          "type": "address"
        },
        {
          "internalType": "address",
          "name": "_actionsContract",
          "type": "address"
        },
        {
          "internalType": "address",
          "name": "_playersContract",
          "type": "address"
        }
      ],
      "name": "setContractAddresses",
      "outputs": [],
      "stateMutability": "nonpayable",
      "type": "function"
    },
    {
      "inputs": [
        {
          "internalType": "bool",
          "name": "_status",
          "type": "bool"
        }
      ],
      "name": "setMintingStatus",
      "outputs": [],
      "stateMutability": "nonpayable",
      "type": "function"
    },
    {
      "inputs": [
        {
          "internalType": "bytes32",
          "name": "_hash",
          "type": "bytes32"
        },
        {
          "internalType": "uint256",
          "name": "_size",
          "type": "uint256"
        },
        {
          "internalType": "uint256",
          "name": "_offset",
          "type": "uint256"
        }
      ],
      "name": "sliceHashToSmallInt",
      "outputs": [
        {
          "internalType": "uint8",
          "name": "",
          "type": "uint8"
        }
      ],
      "stateMutability": "pure",
      "type": "function"
    },
    {
      "inputs": [
        {
          "internalType": "uint8",
          "name": "_min",
          "type": "uint8"
        },
        {
          "internalType": "uint8",
          "name": "_max",
          "type": "uint8"
        }
      ],
      "name": "smallIntBetweenVals",
      "outputs": [
        {
          "internalType": "uint8",
          "name": "",
          "type": "uint8"
        }
      ],
      "stateMutability": "nonpayable",
      "type": "function"
    },
    {
      "inputs": [],
      "name": "spawnCompanyItem",
      "outputs": [],
      "stateMutability": "payable",
      "type": "function"
    },
    {
      "inputs": [
        {
          "internalType": "uint256",
          "name": "_gameId",
          "type": "uint256"
        },
        {
          "internalType": "uint256[]",
          "name": "_itemIds",
          "type": "uint256[]"
        },
        {
          "internalType": "uint256",
          "name": "_row",
          "type": "uint256"
        },
        {
          "internalType": "uint256",
          "name": "_col",
          "type": "uint256"
        },
        {
          "internalType": "uint256",
          "name": "_formerOwnerId",
          "type": "uint256"
        }
      ],
      "name": "spawnWorldItems",
      "outputs": [],
      "stateMutability": "nonpayable",
      "type": "function"
    },
    {
      "inputs": [
        {
          "internalType": "uint256",
          "name": "_playerId",
          "type": "uint256"
        },
        {
          "internalType": "uint256",
          "name": "_gameId",
          "type": "uint256"
        }
      ],
      "name": "takeItemsHome",
      "outputs": [],
      "stateMutability": "nonpayable",
      "type": "function"
    },
    {
      "inputs": [],
      "name": "transferFundsOut",
      "outputs": [],
      "stateMutability": "nonpayable",
      "type": "function"
    },
    {
      "inputs": [
        {
          "internalType": "address",
          "name": "newOwner",
          "type": "address"
        }
      ],
      "name": "transferOwnership",
      "outputs": [],
      "stateMutability": "nonpayable",
      "type": "function"
    },
    {
      "inputs": [],
      "name": "uif",
      "outputs": [
        {
          "internalType": "contract UIFInterface",
          "name": "",
          "type": "address"
        }
      ],
      "stateMutability": "view",
      "type": "function"
    }
  ],
  "transactionHash": "0xa9e2c3cf79694315241a17acbdb81ef499310d810b43bc8ea333d609b5cd66d1",
  "args": [],
  "numDeployments": 1,
  "solcInputHash": "cadc6749740c390482b685fb3d5cb8f7",
  "bytecode": "0x60806040526000600190815564174876e8006008556009805460ff191690911790553480156200002e57600080fd5b506200003a3362000040565b62000090565b600080546001600160a01b038381166001600160a01b0319831681178455604051919092169283917f8be0079c531659141344cd1fd0a4f28419497f9722a3daafe3b4186f6b6457e09190a35050565b613ebb80620000a06000396000f3fe60806040526004361061027d5760003560e01c806364b0e5001161014f57806397f34c3f116100c1578063e417dc351161007a578063e417dc3514610828578063e847ae1e14610848578063ec25c25414610868578063f135332a14610888578063f2fde38b146108a8578063fa3993c2146108c857600080fd5b806397f34c3f14610758578063b78e665114610778578063b918fd6814610798578063bdb4b848146107b8578063bfb231d2146107ce578063ce28613f1461080857600080fd5b806376c8aa271161011357806376c8aa27146106a157806377e01eca146106ad5780638214f222146106cd5780638da5cb5b146106ed578063951fc3fe1461070b578063955a015b1461073857600080fd5b806364b0e500146105ff57806364db84bf1461062c578063705498dc1461064c578063715018a61461066c5780637420aa361461068157600080fd5b80631f7b4f30116101f357806347ef26b1116101ac57806347ef26b1146104c4578063501f97841461054d578063530116961461056d5780635dc969671461059f5780635f09c782146105bf5780635f872601146105df57600080fd5b80631f7b4f30146103f8578063249af0b414610418578063268f1d4d146104385780633838aed1146104585780633841fae11461046d578063471a42941461049a57600080fd5b8063150b7a0211610245578063150b7a021461031c578063154fa27a14610355578063185ae9dc146103755780631b5ac4b5146103955780631e1de205146103c35780631ef2688c146103d857600080fd5b80630364f88c146102825780630cc0db53146102bf5780630fd8e833146102d457806311ff7047146102dc578063129f0903146102fc575b600080fd5b34801561028e57600080fd5b506002546102a2906001600160a01b031681565b6040516001600160a01b0390911681526020015b60405180910390f35b6102d26102cd366004613354565b6108e8565b005b6102d2610a00565b3480156102e857600080fd5b506102d26102f7366004613432565b610aec565b34801561030857600080fd5b506007546102a2906001600160a01b031681565b34801561032857600080fd5b5061033c610337366004613494565b610ddf565b6040516001600160e01b031990911681526020016102b6565b34801561036157600080fd5b506003546102a2906001600160a01b031681565b34801561038157600080fd5b506005546102a2906001600160a01b031681565b3480156103a157600080fd5b506103b56103b0366004613533565b610e1c565b6040519081526020016102b6565b3480156103cf57600080fd5b506103b5610e3c565b3480156103e457600080fd5b506102d26103f336600461354c565b610eb4565b34801561040457600080fd5b506103b5610413366004613533565b61109b565b34801561042457600080fd5b506102d26104333660046135de565b6110f7565b34801561044457600080fd5b506102d2610453366004613639565b6112d9565b34801561046457600080fd5b506102d2611365565b34801561047957600080fd5b5061048d610488366004613533565b6113aa565b6040516102b6919061366b565b3480156104a657600080fd5b506009546104b49060ff1681565b60405190151581526020016102b6565b3480156104d057600080fd5b506104e46104df366004613533565b6113c4565b6040516102b69190600060e0820190508251600081810b84526020850151810b60208501526040850151810b60408501526060850151810b60608501526080850151810b608085015260a0850151810b60a085015260c0850151810b60c0850152505092915050565b34801561055957600080fd5b506102d2610568366004613533565b61175b565b34801561057957600080fd5b5061058d610588366004613639565b61177b565b60405160ff90911681526020016102b6565b3480156105ab57600080fd5b506104b46105ba3660046136af565b6117b8565b3480156105cb57600080fd5b506102d26105da3660046136db565b611855565b3480156105eb57600080fd5b506102d26105fa3660046136db565b611946565b34801561060b57600080fd5b5061061f61061a366004613533565b611af3565b6040516102b69190613747565b34801561063857600080fd5b506103b56106473660046136db565b611d96565b34801561065857600080fd5b506004546102a2906001600160a01b031681565b34801561067857600080fd5b506102d2611dae565b34801561068d57600080fd5b506102d261069c366004613861565b611dc0565b3480156102d257600080fd5b3480156106b957600080fd5b5061048d6106c8366004613883565b611ddb565b3480156106d957600080fd5b506103b56106e8366004613533565b611dff565b3480156106f957600080fd5b506000546001600160a01b03166102a2565b34801561071757600080fd5b5061072b61072636600461390f565b611e79565b6040516102b6919061393c565b34801561074457600080fd5b506006546102a2906001600160a01b031681565b34801561076457600080fd5b5061058d6107733660046136af565b611fa3565b34801561078457600080fd5b5061061f610793366004613533565b611fce565b3480156107a457600080fd5b5061048d6107b3366004613533565b612214565b3480156107c457600080fd5b506103b560085481565b3480156107da57600080fd5b506107ee6107e9366004613533565b612322565b6040516102b69e9d9c9b9a9998979695949392919061395a565b34801561081457600080fd5b5061058d610823366004613a05565b6123d8565b34801561083457600080fd5b5061061f610843366004613883565b612488565b34801561085457600080fd5b506102d2610863366004613a2f565b6126db565b34801561087457600080fd5b506102d2610883366004613aa0565b61274c565b34801561089457600080fd5b5061048d6108a3366004613533565b612875565b3480156108b457600080fd5b506102d26108c3366004613883565b61288f565b3480156108d457600080fd5b506103b56108e3366004613ae7565b612905565b600854604080516602830bcb2b21d160cd1b60208201523460278201526a0161031b7b9ba1034b99d160ad1b60478201526052808201939093528151808203909301835260720190526000546001600160a01b031633148061094b575060085434145b81906109735760405162461bcd60e51b815260040161096a9190613b37565b60405180910390fd5b506000546001600160a01b031633148061099757506003546001600160a01b031633145b806109ac57506005546001600160a01b031633145b6109ef5760405162461bcd60e51b815260206004820152601460248201527310dbdb9d1c9858dd081b9bdd08185b1b1bddd95960621b604482015260640161096a565b6109fa8484846129cd565b50505050565b6000546001600160a01b0316331480610a1a575060085434145b610a5a5760405162461bcd60e51b8152602060048201526011602482015270125b98dbdc9c9958dd081c185e5b595b9d607a1b604482015260640161096a565b6000546001600160a01b0316331480610a7a575060095460ff1615156001145b610abe5760405162461bcd60e51b81526020600482015260156024820152744d696e74696e67206973206e6f742061637469766560581b604482015260640161096a565b6000546001600160a01b0316331480610ae157506003546001600160a01b031633145b610aea57600080fd5b565b6005546001600160a01b0316331480610b0f57506007546001600160a01b031633145b610b755760405162461bcd60e51b815260206004820152603160248201527f4e6f7420616374696f6e73206f7220706c617965727320636f6e7472616374206044820152702d20737061776e576f726c644974656d7360781b606482015260840161096a565b835115610dd85760075484516000916001600160a01b031690636621a42190600a9088908590610ba757610ba7613b6a565b602002602001015181548110610bbf57610bbf613b6a565b90600052602060002090600a0201600301546040518263ffffffff1660e01b8152600401610bef91815260200190565b602060405180830381865afa158015610c0c573d6000803e3d6000fd5b505050506040513d601f19601f82011682018060405250810190610c309190613b80565b905060005b8551811015610dd557600460009054906101000a90046001600160a01b03166001600160a01b03166307084e56600084600a8a8681518110610c7957610c79613b6a565b602002602001015181548110610c9157610c91613b6a565b600091825260209091206002600a9092020101546040516001600160e01b031960e086901b1681526001600160a01b0393841660048201529290911660248301526044820152606401600060405180830381600087803b158015610cf457600080fd5b505af1158015610d08573d6000803e3d6000fd5b50505050610d2f83878381518110610d2257610d22613b6a565b6020026020010151612cad565b6000600a878381518110610d4557610d45613b6a565b602002602001015181548110610d5d57610d5d613b6a565b6000918252602082206003600a909202019081019190915560088101805491925060029160ff191660018302179055506040805180820190915260ff8781168083529087166020909201829052600992909201805461ffff191690921761010090910217905580610dcd81613bb3565b915050610c35565b50505b5050505050565b6040516000907f544c765b33ca411cce832250371569244f765a17fcd217832be093f0fd5fa45b908290a150630a85bd0160e11b95945050505050565b600080821215610e3457610e2f82613bcc565b610e36565b815b92915050565b6001805460009182610e4d83613bb3565b9190505550600154600143610e629190613be8565b4033604051602001610e9993929190928352602083019190915260601b6bffffffffffffffffffffffff1916604082015260540190565b60405160208183030381529060405280519060200120905090565b6005546001600160a01b03163314610f1e5760405162461bcd60e51b815260206004820152602760248201527f4e6f7420616374696f6e7320636f6e7472616374202d207069636b7570576f726044820152666c644974656d7360c81b606482015260840161096a565b60005b82811015610dd8576004546001600160a01b03166307084e56836000600a888887818110610f5157610f51613b6a565b9050602002013581548110610f6857610f68613b6a565b600091825260209091206002600a9092020101546040516001600160e01b031960e086901b1681526001600160a01b0393841660048201529290911660248301526044820152606401600060405180830381600087803b158015610fcb57600080fd5b505af1158015610fdf573d6000803e3d6000fd5b50505050611015848483818110610ff857610ff8613b6a565b6000898152600b6020908152604090912093910201359050612d29565b506000600a85858481811061102c5761102c613b6a565b905060200201358154811061104357611043613b6a565b600091825260208083206003600a9093020191820189905560088201805460ff19166001179055604080518082019091528381520191909152600901805461ffff19169055508061109381613bb3565b915050610f21565b6000806110aa600160066123d8565b60ff1690507ffe34d093a460a16ee5fb374540914d1c734a17502c0c1a87b387c8d6097e1c5183826040516110e9929190918252602082015260400190565b60405180910390a192915050565b6007546001600160a01b031633146111615760405162461bcd60e51b815260206004820152602760248201527f4e6f7420706c617965727320636f6e7472616374202d206164644974656d735460448201526637a83630bcb2b960c91b606482015260840161096a565b60005b82518110156109fa57600083828151811061118157611181613b6a565b602002602001015190506000600a82815481106111a0576111a0613b6a565b90600052602060002090600a0201905080600301546000146112045760405162461bcd60e51b815260206004820181905260248201527f536f6d656f6e6520697320616c726561647920686f6c64696e67207468697321604482015260640161096a565b60048101546001600160a01b0385811691161461126f5760405162461bcd60e51b815260206004820152602360248201527f4f776e657220666f72206974656d20616e64206368617220646f6e2774206d616044820152620e8c6d60eb1b606482015260840161096a565b600381018690556004810180546001600160a01b03191690556000868152600b602052604090206112a09083612d29565b506001600160a01b0384166000908152600d602052604090206112c39083612d35565b50505080806112d190613bb3565b915050611164565b6007546001600160a01b0316331461133f5760405162461bcd60e51b815260206004820152602360248201527f4e6f7420706c617965727320636f6e7472616374202d2064726f70416c6c4974604482015262656d7360e81b606482015260840161096a565b6000838152600b6020526040812061135690612d41565b9050610dd88582858588610aec565b61136d612d4e565b600080546040516001600160a01b03909116914780156108fc02929091818181858888f193505050501580156113a7573d6000803e3d6000fd5b50565b6000818152600b60205260409020606090610e3690612d41565b6040805160e08082018352600080835260208084018290528385018290526060808501839052608080860184905260a080870185905260c0808801869052898652600b855288862089519788018a52868852948701869052978601859052918501849052840183905283018290529382015290919060005b61144583612da8565b811015611753576000600a61145a8584612db2565b8154811061146a5761146a613b6a565b60009182526020909120600a909102019050600160068201546301000000900460ff16600a81111561149e5761149e6136fd565b036114e0578060060160049054906101000a900460ff1660000b836000015160000b12156114db576006810154600160201b900460ff1660000b83525b611740565b600260068201546301000000900460ff16600a811115611502576115026136fd565b03611546578060060160049054906101000a900460ff1660000b836020015160000b12156114db576006810154600160201b900460ff1660000b6020840152611740565b600360068201546301000000900460ff16600a811115611568576115686136fd565b036115ac578060060160049054906101000a900460ff1660000b836040015160000b12156114db576006810154600160201b900460ff1660000b6040840152611740565b600460068201546301000000900460ff16600a8111156115ce576115ce6136fd565b03611612578060060160049054906101000a900460ff1660000b836060015160000b12156114db576006810154600160201b900460ff1660000b6060840152611740565b600560068201546301000000900460ff16600a811115611634576116346136fd565b03611678578060060160049054906101000a900460ff1660000b836080015160000b12156114db576006810154600160201b900460ff1660000b6080840152611740565b600860068201546301000000900460ff16600a81111561169a5761169a6136fd565b036116de578060060160049054906101000a900460ff1660000b8360a0015160000b12156114db576006810154600160201b900460ff1660000b60a0840152611740565b600960068201546301000000900460ff16600a811115611700576117006136fd565b03611740578060060160049054906101000a900460ff1660000b8360c0015160000b1215611740576006810154600160201b900460ff1660000b60c08401525b508061174b81613bb3565b91505061143c565b509392505050565b611763612d4e565b61177581670de0b6b3a7640000613bfb565b60085550565b6000806117888686613be8565b90506000836117978684613bfb565b6117a19190613c28565b90506117ad8782613c3c565b979650505050505050565b6000806117c48561109b565b6040805187815260208101839052908101869052606081018590529091507f75b6a8325595f91135e07382840634226793c68c9e59623da7e10d7ad3d95b959060800160405180910390a18060010361182157600091505061184e565b60038361182e8684613c3c565b6118389190613c4f565b131561184857600191505061184e565b60009150505b9392505050565b6003546001600160a01b031633146118a35760405162461bcd60e51b8152602060048201526011602482015270139bdd0819d85b594818dbdb9d1c9858dd607a1b604482015260640161096a565b6000600a82815481106118b8576118b8613b6a565b90600052602060002090600a020190506118d28383612cad565b6118e0816007015483612dbe565b600060038201819055600782015560048054604051630852cd8d60e31b81529182018490526001600160a01b0316906342966c6890602401600060405180830381600087803b15801561193257600080fd5b505af1158015610dd5573d6000803e3d6000fd5b6006546001600160a01b031633146119955760405162461bcd60e51b8152602060048201526012602482015271139bdd0819d85b595cc818dbdb9d1c9858dd60721b604482015260640161096a565b6000828152600b60205260408082206007549151636621a42160e01b8152600481018690529092916001600160a01b031690636621a42190602401602060405180830381865afa1580156119ed573d6000803e3d6000fd5b505050506040513d601f19601f82011682018060405250810190611a119190613b80565b90506000611a1e83612da8565b9050805b8015611aeb576000611a3f611a38600184613be8565b8690612db2565b90506000600a8281548110611a5657611a56613b6a565b600091825260208083206003600a9390930201918201839055600480830180546001600160a01b038b166001600160a01b031990911681179091556007840185905560088401805460ff19169092179091558352600d90526040909120909150611ac09083612d29565b50611acb8683612d35565b50611ad68783612dbe565b50508080611ae390613c6f565b915050611a22565b505050505050565b60606000611b0083612e3a565b90506000808267ffffffffffffffff811115611b1e57611b1e61338c565b604051908082528060200260200182016040528015611b5757816020015b611b446132be565b815260200190600190039081611b3c5790505b506000868152600c60205260408120919250611b7282612da8565b905060005b81811015611d8a576002600a611b8d8584612db2565b81548110611b9d57611b9d613b6a565b600091825260209091206008600a90920201015460ff166004811115611bc557611bc56136fd565b03611d7857600a611bd68483612db2565b81548110611be657611be6613b6a565b6000918252602091829020604080516101c081018252600a90930290910180548352600181015493830193909352600280840154918301919091526003830154606083015260048301546001600160a01b03166080830152600583015460a0830152600683015491929160c084019160ff90911690811115611c6a57611c6a6136fd565b6002811115611c7b57611c7b6136fd565b8152600682015460ff61010082048116602084015262010000820481166040840152606090920191630100000090910416600a811115611cbd57611cbd6136fd565b600a811115611cce57611cce6136fd565b8152600682015460ff600160201b90910481166020830152600783015460408301526008830154606090920191166004811115611d0d57611d0d6136fd565b6004811115611d1e57611d1e6136fd565b8152604080518082019091526009929092015460ff80821684526101009091041660208381019190915201528451859087908110611d5e57611d5e613b6a565b60200260200101819052508480611d7490613bb3565b9550505b80611d8281613bb3565b915050611b77565b50919695505050505050565b600081611da4846004613bfb565b61184e9190613c3c565b611db6612d4e565b610aea6000612ed6565b611dc8612d4e565b6009805460ff1916911515919091179055565b6001600160a01b0381166000908152600d60205260409020606090610e3690612d41565b600081600003611e1157506001919050565b81600103611e2157506000919050565b81600203611e3157506003919050565b81600303611e4157506002919050565b60405162461bcd60e51b815260206004820152600d60248201526c2130b2103234b932b1ba34b7b760991b604482015260640161096a565b604080518082019091526000808252602082015282600003611ecb57604051806040016040528060018460000151611eb19190613c86565b60ff168152602001836020015160ff168152509050610e36565b82600103611eef57604051806040016040528083600001516001611eb19190613c9f565b82600203611f2c576040518060400160405280836000015160ff16815260200183602001516001611f209190613c9f565b60ff1690529050610e36565b82600303611f5d576040518060400160405280836000015160ff16815260200160018460200151611f209190613c86565b6000611f6884612f26565b604051602001611f789190613cb8565b60405160208183030381529060405290508060405162461bcd60e51b815260040161096a9190613b37565b600080826001611fb4866002613dd7565b611fbe9190613be8565b901b8516831c9150509392505050565b6000818152600b6020526040812060609190611fe990612da8565b67ffffffffffffffff8111156120015761200161338c565b60405190808252806020026020018201604052801561203a57816020015b6120276132be565b81526020019060019003908161201f5790505b50905060005b815181101561220d576000848152600b602052604081206120619083612db2565b9050600a818154811061207657612076613b6a565b6000918252602091829020604080516101c081018252600a90930290910180548352600181015493830193909352600280840154918301919091526003830154606083015260048301546001600160a01b03166080830152600583015460a0830152600683015491929160c084019160ff909116908111156120fa576120fa6136fd565b600281111561210b5761210b6136fd565b8152600682015460ff61010082048116602084015262010000820481166040840152606090920191630100000090910416600a81111561214d5761214d6136fd565b600a81111561215e5761215e6136fd565b8152600682015460ff600160201b9091048116602083015260078301546040830152600883015460609092019116600481111561219d5761219d6136fd565b60048111156121ae576121ae6136fd565b8152604080518082019091526009929092015460ff808216845261010090910416602083810191909152015283518490849081106121ee576121ee613b6a565b602002602001018190525050808061220590613bb3565b915050612040565b5092915050565b6060600061222183612e3a565b90506000808267ffffffffffffffff81111561223f5761223f61338c565b604051908082528060200260200182016040528015612268578160200160208202803683370190505b506000868152600c6020526040812091925061228382612da8565b905060005b81811015611d8a576002600a61229e8584612db2565b815481106122ae576122ae613b6a565b600091825260209091206008600a90920201015460ff1660048111156122d6576122d66136fd565b03612310576122e58382612db2565b8486815181106122f7576122f7613b6a565b60209081029190910101528461230c81613bb3565b9550505b8061231a81613bb3565b915050612288565b600a818154811061233257600080fd5b6000918252602091829020600a90910201805460018201546002830154600384015460048501546005860154600687015460078801546008890154604080518082019091526009909a015460ff8181168c526101009182900481169c8c019c909c52989b509699959894976001600160a01b039094169692958083169594830481169462010000840482169463010000008504831694600160201b90048316939216908e565b60018054600091826123e983613bb3565b91905055506000336001546001436124019190613be8565b60405160609390931b6bffffffffffffffffffffffff19166020840152603483019190915240605482015260740160408051601f198184030181529190528051602090910120905060006124558585613c86565b612460906001613c9f565b90508460ff168160ff16836124759190613de3565b61247f9190613c3c565b95945050505050565b6001600160a01b0381166000908152600d60205260408120606091906124ad90612da8565b67ffffffffffffffff8111156124c5576124c561338c565b6040519080825280602002602001820160405280156124fe57816020015b6124eb6132be565b8152602001906001900390816124e35790505b50905060005b815181101561220d576001600160a01b0384166000908152600d6020526040812061252f9083612db2565b9050600a818154811061254457612544613b6a565b6000918252602091829020604080516101c081018252600a90930290910180548352600181015493830193909352600280840154918301919091526003830154606083015260048301546001600160a01b03166080830152600583015460a0830152600683015491929160c084019160ff909116908111156125c8576125c86136fd565b60028111156125d9576125d96136fd565b8152600682015460ff61010082048116602084015262010000820481166040840152606090920191630100000090910416600a81111561261b5761261b6136fd565b600a81111561262c5761262c6136fd565b8152600682015460ff600160201b9091048116602083015260078301546040830152600883015460609092019116600481111561266b5761266b6136fd565b600481111561267c5761267c6136fd565b8152604080518082019091526009929092015460ff808216845261010090910416602083810191909152015283518490849081106126bc576126bc613b6a565b60200260200101819052505080806126d390613bb3565b915050612504565b6126e3612d4e565b600280546001600160a01b039687166001600160a01b031991821617909155600380549587169582168617905560068054821690951790945560048054938616938516939093179092556005805491851691841691909117905560078054919093169116179055565b6006546001600160a01b0316331461279b5760405162461bcd60e51b8152602060048201526012602482015271139bdd0819d85b595cc818dbdb9d1c9858dd60721b604482015260640161096a565b60005b8151811015612870576000600b60008484815181106127bf576127bf613b6a565b60200260200101518152602001908152602001600020905060005b6127e382612da8565b81101561285b5760006127f68383612db2565b905085600a828154811061280c5761280c613b6a565b90600052602060002090600a02016007018190555061284681600c6000898152602001908152602001600020612d2990919063ffffffff16565b5050808061285390613bb3565b9150506127da565b5050808061286890613bb3565b91505061279e565b505050565b6000818152600c60205260409020606090610e3690612d41565b612897612d4e565b6001600160a01b0381166128fc5760405162461bcd60e51b815260206004820152602660248201527f4f776e61626c653a206e6577206f776e657220697320746865207a65726f206160448201526564647265737360d01b606482015260840161096a565b6113a781612ed6565b8051825160009161291591613df7565b60000b60010361292757506000610e36565b815183516129359190613df7565b60000b1961294557506001610e36565b816020015183602001516129599190613df7565b60000b1961296957506002610e36565b8160200151836020015161297d9190613df7565b60000b60010361298f57506003610e36565b60405162461bcd60e51b8152602060048201526013602482015272115c9c9bdc8e88139bdd0818591a9858d95b9d606a1b604482015260640161096a565b600480546040516309b6507f60e41b8152808301929092526000602483018190526001600160a01b0385811660448501529092911690639b6507f09064174876e8009060640160206040518083038185885af1158015612a31573d6000803e3d6000fd5b50505050506040513d601f19601f82011682018060405250810190612a569190613e18565b60048054604051632851838160e01b81529182018390529192506000916001600160a01b031690632851838190602401602060405180830381865afa158015612aa3573d6000803e3d6000fd5b505050506040513d601f19601f82011682018060405250810190612ac79190613e18565b600a80546001818101835560008390529082027fc65a7bb8d6351c1cf70c95a316cc6a92839c986682d98bc35f958f4883f9d2a80183815591549293509091612b109190613be8565b600180830191909155600282018490556003820187905560058201819055600b90612b45908490600490610773906000611d96565b60ff161015612b55576001612b58565b60025b60068201805460ff19166001836002811115612b7657612b766136fd565b021790555060068101805462ffff0019169055612ba6612b9e83600461077360006001611d96565b60ff1661302f565b60068201805463ff0000001916630100000083600a811115612bca57612bca6136fd565b02179055506000612be383600461077360016002611d96565b90506002600683015460ff166002811115612c0057612c006136fd565b03612c1f576003612c12826002613e31565b612c1c9190613e4d565b90505b612c31600160048360ff16600f61177b565b60068301805464ff000000001916600160201b60ff8416021790556007830186905560088301805491925060019160ff19168280021790555060018201546000888152600b60205260409020612c8691612d29565b5060018201546000868152600c60205260409020612ca391612d29565b5050505050505050565b6000828152600b60205260409020612cc590826130de565b612d115760405162461bcd60e51b815260206004820152601e60248201527f506c6179657220646f65736e277420686176652074686973206974656d210000604482015260640161096a565b6000828152600b602052604090206128709082612d35565b600061184e83836130f6565b600061184e8383613145565b6060600061184e83613238565b6000546001600160a01b03163314610aea5760405162461bcd60e51b815260206004820181905260248201527f4f776e61626c653a2063616c6c6572206973206e6f7420746865206f776e6572604482015260640161096a565b6000610e36825490565b600061184e8383613294565b6000828152600c60205260409020612dd690826130de565b612e225760405162461bcd60e51b815260206004820152601c60248201527f47616d6520646f65736e277420686176652074686973206974656d2100000000604482015260640161096a565b6000828152600c602052604090206128709082612d35565b6000818152600c60205260408120819081612e5482612da8565b905060005b81811015612ecc576002600a612e6f8584612db2565b81548110612e7f57612e7f613b6a565b600091825260209091206008600a90920201015460ff166004811115612ea757612ea76136fd565b03612eba5783612eb681613bb3565b9450505b80612ec481613bb3565b915050612e59565b5091949350505050565b600080546001600160a01b038381166001600160a01b0319831681178455604051919092169283917f8be0079c531659141344cd1fd0a4f28419497f9722a3daafe3b4186f6b6457e09190a35050565b606081600003612f4d5750506040805180820190915260018152600360fc1b602082015290565b8160005b8115612f775780612f6181613bb3565b9150612f709050600a83613c28565b9150612f51565b60008167ffffffffffffffff811115612f9257612f9261338c565b6040519080825280601f01601f191660200182016040528015612fbc576020820181803683370190505b5090505b841561302757612fd1600183613be8565b9150612fde600a86613de3565b612fe9906030613c3c565b60f81b818381518110612ffe57612ffe613b6a565b60200101906001600160f81b031916908160001a905350613020600a86613c28565b9450612fc0565b949350505050565b60006001821161304157506000919050565b6002821161305157506001919050565b6003821161306157506002919050565b6004821161307157506003919050565b6005821161308157506004919050565b6006821161309157506005919050565b600882116130a157506006919050565b600a82116130b157506007919050565b600c82116130c157506008919050565b600e82116130d157506009919050565b50600a919050565b919050565b6000818152600183016020526040812054151561184e565b600081815260018301602052604081205461313d57508154600181810184556000848152602080822090930184905584548482528286019093526040902091909155610e36565b506000610e36565b6000818152600183016020526040812054801561322e576000613169600183613be8565b855490915060009061317d90600190613be8565b90508181146131e257600086600001828154811061319d5761319d613b6a565b90600052602060002001549050808760000184815481106131c0576131c0613b6a565b6000918252602080832090910192909255918252600188019052604090208390555b85548690806131f3576131f3613e6f565b600190038181906000526020600020016000905590558560010160008681526020019081526020016000206000905560019350505050610e36565b6000915050610e36565b60608160000180548060200260200160405190810160405280929190818152602001828054801561328857602002820191906000526020600020905b815481526020019060010190808311613274575b50505050509050919050565b60008260000182815481106132ab576132ab613b6a565b9060005260206000200154905092915050565b604080516101c08101825260008082526020808301829052828401829052606083018290526080830182905260a0830182905260c0830182905260e08301829052610100830182905261012083018290526101408301829052610160830182905261018083018290528351808501909452818452830152906101a082015290565b6001600160a01b03811681146113a757600080fd5b60008060006060848603121561336957600080fd5b83359250602084013561337b8161333f565b929592945050506040919091013590565b634e487b7160e01b600052604160045260246000fd5b600082601f8301126133b357600080fd5b8135602067ffffffffffffffff808311156133d0576133d061338c565b8260051b604051601f19603f830116810181811084821117156133f5576133f561338c565b60405293845285810183019383810192508785111561341357600080fd5b83870191505b848210156117ad57813583529183019190830190613419565b600080600080600060a0868803121561344a57600080fd5b85359450602086013567ffffffffffffffff81111561346857600080fd5b613474888289016133a2565b959895975050505060408401359360608101359360809091013592509050565b6000806000806000608086880312156134ac57600080fd5b85356134b78161333f565b945060208601356134c78161333f565b935060408601359250606086013567ffffffffffffffff808211156134eb57600080fd5b818801915088601f8301126134ff57600080fd5b81358181111561350e57600080fd5b89602082850101111561352057600080fd5b9699959850939650602001949392505050565b60006020828403121561354557600080fd5b5035919050565b6000806000806060858703121561356257600080fd5b84359350602085013567ffffffffffffffff8082111561358157600080fd5b818701915087601f83011261359557600080fd5b8135818111156135a457600080fd5b8860208260051b85010111156135b957600080fd5b60208301955080945050505060408501356135d38161333f565b939692955090935050565b6000806000606084860312156135f357600080fd5b83359250602084013567ffffffffffffffff81111561361157600080fd5b61361d868287016133a2565b925050604084013561362e8161333f565b809150509250925092565b6000806000806080858703121561364f57600080fd5b5050823594602084013594506040840135936060013592509050565b6020808252825182820181905260009190848201906040850190845b818110156136a357835183529284019291840191600101613687565b50909695505050505050565b6000806000606084860312156136c457600080fd5b505081359360208301359350604090920135919050565b600080604083850312156136ee57600080fd5b50508035926020909101359150565b634e487b7160e01b600052602160045260246000fd5b60038110613723576137236136fd565b9052565b600b8110613723576137236136fd565b60058110613723576137236136fd565b602080825282518282018190526000919060409081850190868401855b828110156138545781518051855286810151878601528581015186860152606080820151908601526080808201516001600160a01b03169086015260a0808201519086015260c0808201516137bb82880182613713565b505060e08181015160ff81168783015250506101008181015160ff8116878301525050610120808201516137f182880182613727565b50506101408181015160ff169086015261016080820151908601526101808082015161381f82880182613737565b50506101a090810151805160ff9081169287019290925260200151166101c08501526101e09093019290850190600101613764565b5091979650505050505050565b60006020828403121561387357600080fd5b8135801515811461184e57600080fd5b60006020828403121561389557600080fd5b813561184e8161333f565b803560ff811681146130d957600080fd5b6000604082840312156138c357600080fd5b6040516040810181811067ffffffffffffffff821117156138e6576138e661338c565b6040529050806138f5836138a0565b8152613903602084016138a0565b60208201525092915050565b6000806060838503121561392257600080fd5b8235915061393384602085016138b1565b90509250929050565b60408101610e368284805160ff908116835260209182015116910152565b8e8152602081018e9052604081018d9052606081018c90526001600160a01b038b16608082015260a081018a90526101e0810161399a60c083018b613713565b60ff89811660e084015288166101008301526139ba610120830188613727565b60ff8616610140830152846101608301526139d9610180830185613737565b825160ff9081166101a08401526020840151166101c08301529f9e505050505050505050505050505050565b60008060408385031215613a1857600080fd5b613a21836138a0565b9150613933602084016138a0565b600080600080600060a08688031215613a4757600080fd5b8535613a528161333f565b94506020860135613a628161333f565b93506040860135613a728161333f565b92506060860135613a828161333f565b91506080860135613a928161333f565b809150509295509295909350565b60008060408385031215613ab357600080fd5b82359150602083013567ffffffffffffffff811115613ad157600080fd5b613add858286016133a2565b9150509250929050565b60008060808385031215613afa57600080fd5b613b0484846138b1565b915061393384604085016138b1565b60005b83811015613b2e578181015183820152602001613b16565b50506000910152565b6020815260008251806020840152613b56816040850160208701613b13565b601f01601f19169190910160400192915050565b634e487b7160e01b600052603260045260246000fd5b600060208284031215613b9257600080fd5b815161184e8161333f565b634e487b7160e01b600052601160045260246000fd5b600060018201613bc557613bc5613b9d565b5060010190565b6000600160ff1b8201613be157613be1613b9d565b5060000390565b81810381811115610e3657610e36613b9d565b8082028115828204841417610e3657610e36613b9d565b634e487b7160e01b600052601260045260246000fd5b600082613c3757613c37613c12565b500490565b80820180821115610e3657610e36613b9d565b818103600083128015838313168383128216171561220d5761220d613b9d565b600081613c7e57613c7e613b9d565b506000190190565b60ff8281168282160390811115610e3657610e36613b9d565b60ff8181168382160190811115610e3657610e36613b9d565b72024b73b30b634b2103234b932b1ba34b7b71d1606d1b815260008251613ce6816013850160208701613b13565b9190910160130192915050565b600181815b80851115613d2e578160001904821115613d1457613d14613b9d565b80851615613d2157918102915b93841c9390800290613cf8565b509250929050565b600082613d4557506001610e36565b81613d5257506000610e36565b8160018114613d685760028114613d7257613d8e565b6001915050610e36565b60ff841115613d8357613d83613b9d565b50506001821b610e36565b5060208310610133831016604e8410600b8410161715613db1575081810a610e36565b613dbb8383613cf3565b8060001904821115613dcf57613dcf613b9d565b029392505050565b600061184e8383613d36565b600082613df257613df2613c12565b500690565b600082810b9082900b03607f198112607f82131715610e3657610e36613b9d565b600060208284031215613e2a57600080fd5b5051919050565b60ff818116838216029081169081811461220d5761220d613b9d565b600060ff831680613e6057613e60613c12565b8060ff84160491505092915050565b634e487b7160e01b600052603160045260246000fdfea2646970667358221220dd192e2361e7c60e601197e3869a4a08b5fc006df023a911241b0713f7ec976b64736f6c63430008110033",
  "devdoc": {
    "kind": "dev",
    "methods": {
      "owner()": {
        "details": "Returns the address of the current owner."
      },
      "renounceOwnership()": {
        "details": "Leaves the contract without owner. It will not be possible to call `onlyOwner` functions anymore. Can only be called by the current owner. NOTE: Renouncing ownership will leave the contract without an owner, thereby removing any functionality that is only available to the owner."
      },
      "transferOwnership(address)": {
        "details": "Transfers ownership of the contract to a new account (`newOwner`). Can only be called by the current owner."
      }
    },
    "version": 1
  },
  "userdoc": {
    "kind": "user",
    "methods": {},
    "version": 1
  },
  "storageLayout": {
    "storage": [
      {
        "astId": 7,
        "contract": "contracts/BCItems.sol:BCItems",
        "label": "_owner",
        "offset": 0,
        "slot": "0",
        "type": "t_address"
      },
      {
        "astId": 17179,
        "contract": "contracts/BCItems.sol:BCItems",
        "label": "TODO_randomSeed",
        "offset": 0,
        "slot": "1",
        "type": "t_uint256"
      },
      {
        "astId": 10810,
        "contract": "contracts/BCItems.sol:BCItems",
        "label": "lobbies",
        "offset": 0,
        "slot": "2",
        "type": "t_contract(LobbyInterface)10715"
      },
      {
        "astId": 10812,
        "contract": "contracts/BCItems.sol:BCItems",
        "label": "gamesContract",
        "offset": 0,
        "slot": "3",
        "type": "t_address"
      },
      {
        "astId": 10815,
        "contract": "contracts/BCItems.sol:BCItems",
        "label": "uif",
        "offset": 0,
        "slot": "4",
        "type": "t_contract(UIFInterface)10789"
      },
      {
        "astId": 10817,
        "contract": "contracts/BCItems.sol:BCItems",
        "label": "actionsContract",
        "offset": 0,
        "slot": "5",
        "type": "t_address"
      },
      {
        "astId": 10820,
        "contract": "contracts/BCItems.sol:BCItems",
        "label": "games",
        "offset": 0,
        "slot": "6",
        "type": "t_contract(GameInterface)10734"
      },
      {
        "astId": 10823,
        "contract": "contracts/BCItems.sol:BCItems",
        "label": "playersContract",
        "offset": 0,
        "slot": "7",
        "type": "t_contract(PlayersContract)10797"
      },
      {
        "astId": 10874,
        "contract": "contracts/BCItems.sol:BCItems",
        "label": "mintCost",
        "offset": 0,
        "slot": "8",
        "type": "t_uint256"
      },
      {
        "astId": 10877,
        "contract": "contracts/BCItems.sol:BCItems",
        "label": "mintIsActive",
        "offset": 0,
        "slot": "9",
        "type": "t_bool"
      },
      {
        "astId": 10883,
        "contract": "contracts/BCItems.sol:BCItems",
        "label": "items",
        "offset": 0,
        "slot": "10",
        "type": "t_array(t_struct(Item)17151_storage)dyn_storage"
      },
      {
        "astId": 10888,
        "contract": "contracts/BCItems.sol:BCItems",
        "label": "playerToItems",
        "offset": 0,
        "slot": "11",
        "type": "t_mapping(t_uint256,t_struct(UintSet)2292_storage)"
      },
      {
        "astId": 10893,
        "contract": "contracts/BCItems.sol:BCItems",
        "label": "gameToItems",
        "offset": 0,
        "slot": "12",
        "type": "t_mapping(t_uint256,t_struct(UintSet)2292_storage)"
      },
      {
        "astId": 10898,
        "contract": "contracts/BCItems.sol:BCItems",
        "label": "ownedItems",
        "offset": 0,
        "slot": "13",
        "type": "t_mapping(t_address,t_struct(UintSet)2292_storage)"
      }
    ],
    "types": {
      "t_address": {
        "encoding": "inplace",
        "label": "address",
        "numberOfBytes": "20"
      },
      "t_array(t_bytes32)dyn_storage": {
        "base": "t_bytes32",
        "encoding": "dynamic_array",
        "label": "bytes32[]",
        "numberOfBytes": "32"
      },
      "t_array(t_struct(Item)17151_storage)dyn_storage": {
        "base": "t_struct(Item)17151_storage",
        "encoding": "dynamic_array",
        "label": "struct BCTypes.Item[]",
        "numberOfBytes": "32"
      },
      "t_bool": {
        "encoding": "inplace",
        "label": "bool",
        "numberOfBytes": "1"
      },
      "t_bytes32": {
        "encoding": "inplace",
        "label": "bytes32",
        "numberOfBytes": "32"
      },
      "t_contract(GameInterface)10734": {
        "encoding": "inplace",
        "label": "contract GameInterface",
        "numberOfBytes": "20"
      },
      "t_contract(LobbyInterface)10715": {
        "encoding": "inplace",
        "label": "contract LobbyInterface",
        "numberOfBytes": "20"
      },
      "t_contract(PlayersContract)10797": {
        "encoding": "inplace",
        "label": "contract PlayersContract",
        "numberOfBytes": "20"
      },
      "t_contract(UIFInterface)10789": {
        "encoding": "inplace",
        "label": "contract UIFInterface",
        "numberOfBytes": "20"
      },
      "t_enum(ItemCategory)16910": {
        "encoding": "inplace",
        "label": "enum BCTypes.ItemCategory",
        "numberOfBytes": "1"
      },
      "t_enum(ItemType)16922": {
        "encoding": "inplace",
        "label": "enum BCTypes.ItemType",
        "numberOfBytes": "1"
      },
      "t_enum(WorldItemStatus)16906": {
        "encoding": "inplace",
        "label": "enum BCTypes.WorldItemStatus",
        "numberOfBytes": "1"
      },
      "t_mapping(t_address,t_struct(UintSet)2292_storage)": {
        "encoding": "mapping",
        "key": "t_address",
        "label": "mapping(address => struct EnumerableSet.UintSet)",
        "numberOfBytes": "32",
        "value": "t_struct(UintSet)2292_storage"
      },
      "t_mapping(t_bytes32,t_uint256)": {
        "encoding": "mapping",
        "key": "t_bytes32",
        "label": "mapping(bytes32 => uint256)",
        "numberOfBytes": "32",
        "value": "t_uint256"
      },
      "t_mapping(t_uint256,t_struct(UintSet)2292_storage)": {
        "encoding": "mapping",
        "key": "t_uint256",
        "label": "mapping(uint256 => struct EnumerableSet.UintSet)",
        "numberOfBytes": "32",
        "value": "t_struct(UintSet)2292_storage"
      },
      "t_struct(Item)17151_storage": {
        "encoding": "inplace",
        "label": "struct BCTypes.Item",
        "members": [
          {
            "astId": 17120,
            "contract": "contracts/BCItems.sol:BCItems",
            "label": "genHash",
            "offset": 0,
            "slot": "0",
            "type": "t_bytes32"
          },
          {
            "astId": 17122,
            "contract": "contracts/BCItems.sol:BCItems",
            "label": "id",
            "offset": 0,
            "slot": "1",
            "type": "t_uint256"
          },
          {
            "astId": 17124,
            "contract": "contracts/BCItems.sol:BCItems",
            "label": "uifID",
            "offset": 0,
            "slot": "2",
            "type": "t_uint256"
          },
          {
            "astId": 17126,
            "contract": "contracts/BCItems.sol:BCItems",
            "label": "holdingPlayerId",
            "offset": 0,
            "slot": "3",
            "type": "t_uint256"
          },
          {
            "astId": 17128,
            "contract": "contracts/BCItems.sol:BCItems",
            "label": "ownerAddress",
            "offset": 0,
            "slot": "4",
            "type": "t_address"
          },
          {
            "astId": 17130,
            "contract": "contracts/BCItems.sol:BCItems",
            "label": "weight",
            "offset": 0,
            "slot": "5",
            "type": "t_uint256"
          },
          {
            "astId": 17133,
            "contract": "contracts/BCItems.sol:BCItems",
            "label": "itemCategory",
            "offset": 0,
            "slot": "6",
            "type": "t_enum(ItemCategory)16910"
          },
          {
            "astId": 17135,
            "contract": "contracts/BCItems.sol:BCItems",
            "label": "grantsAbility",
            "offset": 1,
            "slot": "6",
            "type": "t_uint8"
          },
          {
            "astId": 17137,
            "contract": "contracts/BCItems.sol:BCItems",
            "label": "grantsFlaw",
            "offset": 2,
            "slot": "6",
            "type": "t_uint8"
          },
          {
            "astId": 17140,
            "contract": "contracts/BCItems.sol:BCItems",
            "label": "itemType",
            "offset": 3,
            "slot": "6",
            "type": "t_enum(ItemType)16922"
          },
          {
            "astId": 17142,
            "contract": "contracts/BCItems.sol:BCItems",
            "label": "power",
            "offset": 4,
            "slot": "6",
            "type": "t_uint8"
          },
          {
            "astId": 17144,
            "contract": "contracts/BCItems.sol:BCItems",
            "label": "currentGame",
            "offset": 0,
            "slot": "7",
            "type": "t_uint256"
          },
          {
            "astId": 17147,
            "contract": "contracts/BCItems.sol:BCItems",
            "label": "status",
            "offset": 0,
            "slot": "8",
            "type": "t_enum(WorldItemStatus)16906"
          },
          {
            "astId": 17150,
            "contract": "contracts/BCItems.sol:BCItems",
            "label": "position",
            "offset": 0,
            "slot": "9",
            "type": "t_struct(Position)16968_storage"
          }
        ],
        "numberOfBytes": "320"
      },
      "t_struct(Position)16968_storage": {
        "encoding": "inplace",
        "label": "struct BCTypes.Position",
        "members": [
          {
            "astId": 16965,
            "contract": "contracts/BCItems.sol:BCItems",
            "label": "row",
            "offset": 0,
            "slot": "0",
            "type": "t_uint8"
          },
          {
            "astId": 16967,
            "contract": "contracts/BCItems.sol:BCItems",
            "label": "col",
            "offset": 1,
            "slot": "0",
            "type": "t_uint8"
          }
        ],
        "numberOfBytes": "32"
      },
      "t_struct(Set)1834_storage": {
        "encoding": "inplace",
        "label": "struct EnumerableSet.Set",
        "members": [
          {
            "astId": 1829,
            "contract": "contracts/BCItems.sol:BCItems",
            "label": "_values",
            "offset": 0,
            "slot": "0",
            "type": "t_array(t_bytes32)dyn_storage"
          },
          {
            "astId": 1833,
            "contract": "contracts/BCItems.sol:BCItems",
            "label": "_indexes",
            "offset": 0,
            "slot": "1",
            "type": "t_mapping(t_bytes32,t_uint256)"
          }
        ],
        "numberOfBytes": "64"
      },
      "t_struct(UintSet)2292_storage": {
        "encoding": "inplace",
        "label": "struct EnumerableSet.UintSet",
        "members": [
          {
            "astId": 2291,
            "contract": "contracts/BCItems.sol:BCItems",
            "label": "_inner",
            "offset": 0,
            "slot": "0",
            "type": "t_struct(Set)1834_storage"
          }
        ],
        "numberOfBytes": "64"
      },
      "t_uint256": {
        "encoding": "inplace",
        "label": "uint256",
        "numberOfBytes": "32"
      },
      "t_uint8": {
        "encoding": "inplace",
        "label": "uint8",
        "numberOfBytes": "1"
      }
    }
  }
}