{
  "address": "0x9e6b84B8A1cfB17D29dC1712E49C6b91F7FA4b90",
  "abi": [
    {
      "inputs": [],
      "stateMutability": "nonpayable",
      "type": "constructor"
    },
    {
      "anonymous": false,
      "inputs": [
        {
          "indexed": false,
          "internalType": "uint256",
          "name": "roll",
          "type": "uint256"
        },
        {
          "indexed": false,
          "internalType": "uint256",
          "name": "forValue",
          "type": "uint256"
        },
        {
          "indexed": false,
          "internalType": "uint256",
          "name": "against",
          "type": "uint256"
        }
      ],
      "name": "DiceRollEvent",
      "type": "event"
    },
    {
      "anonymous": false,
      "inputs": [
        {
          "indexed": true,
          "internalType": "address",
          "name": "previousOwner",
          "type": "address"
        },
        {
          "indexed": true,
          "internalType": "address",
          "name": "newOwner",
          "type": "address"
        }
      ],
      "name": "OwnershipTransferred",
      "type": "event"
    },
    {
      "anonymous": false,
      "inputs": [],
      "name": "Received",
      "type": "event"
    },
    {
      "inputs": [
        {
          "internalType": "uint256",
          "name": "_matic",
          "type": "uint256"
        }
      ],
      "name": "SetMintCostInMatic",
      "outputs": [],
      "stateMutability": "nonpayable",
      "type": "function"
    },
    {
      "inputs": [
        {
          "internalType": "int256",
          "name": "x",
          "type": "int256"
        }
      ],
      "name": "abs",
      "outputs": [
        {
          "internalType": "int256",
          "name": "",
          "type": "int256"
        }
      ],
      "stateMutability": "pure",
      "type": "function"
    },
    {
      "inputs": [],
      "name": "actionsContract",
      "outputs": [
        {
          "internalType": "address",
          "name": "",
          "type": "address"
        }
      ],
      "stateMutability": "view",
      "type": "function"
    },
    {
      "inputs": [],
      "name": "allowedContract",
      "outputs": [
        {
          "internalType": "address",
          "name": "",
          "type": "address"
        }
      ],
      "stateMutability": "view",
      "type": "function"
    },
    {
      "inputs": [],
      "name": "commitItemToMission",
      "outputs": [],
      "stateMutability": "nonpayable",
      "type": "function"
    },
    {
      "inputs": [],
      "name": "gamesContract",
      "outputs": [
        {
          "internalType": "address",
          "name": "",
          "type": "address"
        }
      ],
      "stateMutability": "view",
      "type": "function"
    },
    {
      "inputs": [
        {
          "components": [
            {
              "internalType": "uint8",
              "name": "row",
              "type": "uint8"
            },
            {
              "internalType": "uint8",
              "name": "col",
              "type": "uint8"
            }
          ],
          "internalType": "struct BCTypes.Position",
          "name": "_firstRoom",
          "type": "tuple"
        },
        {
          "components": [
            {
              "internalType": "uint8",
              "name": "row",
              "type": "uint8"
            },
            {
              "internalType": "uint8",
              "name": "col",
              "type": "uint8"
            }
          ],
          "internalType": "struct BCTypes.Position",
          "name": "_secondRoom",
          "type": "tuple"
        }
      ],
      "name": "getDirectionBetween",
      "outputs": [
        {
          "internalType": "uint256",
          "name": "",
          "type": "uint256"
        }
      ],
      "stateMutability": "pure",
      "type": "function"
    },
    {
      "inputs": [
        {
          "internalType": "uint256",
          "name": "_playerID",
          "type": "uint256"
        }
      ],
      "name": "getItemsByPlayer",
      "outputs": [
        {
          "components": [
            {
              "internalType": "bytes32",
              "name": "genHash",
              "type": "bytes32"
            },
            {
              "internalType": "uint256",
              "name": "id",
              "type": "uint256"
            },
            {
              "internalType": "uint256",
              "name": "uifID",
              "type": "uint256"
            },
            {
              "internalType": "uint256",
              "name": "holdingPlayerId",
              "type": "uint256"
            },
            {
              "internalType": "uint256",
              "name": "weight",
              "type": "uint256"
            },
            {
              "internalType": "uint256",
              "name": "traitModID",
              "type": "uint256"
            },
            {
              "internalType": "enum BCTypes.ItemCategory",
              "name": "itemCategory",
              "type": "uint8"
            },
            {
              "internalType": "uint8",
              "name": "grantsAbility",
              "type": "uint8"
            },
            {
              "internalType": "uint8",
              "name": "grantsFlaw",
              "type": "uint8"
            },
            {
              "internalType": "enum BCTypes.ItemType",
              "name": "itemType",
              "type": "uint8"
            },
            {
              "internalType": "uint8",
              "name": "power",
              "type": "uint8"
            },
            {
              "internalType": "bool",
              "name": "inGame",
              "type": "bool"
            }
          ],
          "internalType": "struct BCTypes.Item[]",
          "name": "",
          "type": "tuple[]"
        }
      ],
      "stateMutability": "view",
      "type": "function"
    },
    {
      "inputs": [
        {
          "internalType": "uint256",
          "name": "_direction",
          "type": "uint256"
        },
        {
          "components": [
            {
              "internalType": "uint8",
              "name": "row",
              "type": "uint8"
            },
            {
              "internalType": "uint8",
              "name": "col",
              "type": "uint8"
            }
          ],
          "internalType": "struct BCTypes.Position",
          "name": "_start",
          "type": "tuple"
        }
      ],
      "name": "getNeighborRoom",
      "outputs": [
        {
          "components": [
            {
              "internalType": "uint8",
              "name": "row",
              "type": "uint8"
            },
            {
              "internalType": "uint8",
              "name": "col",
              "type": "uint8"
            }
          ],
          "internalType": "struct BCTypes.Position",
          "name": "",
          "type": "tuple"
        }
      ],
      "stateMutability": "pure",
      "type": "function"
    },
    {
      "inputs": [
        {
          "internalType": "uint256",
          "name": "_traitNum",
          "type": "uint256"
        },
        {
          "internalType": "uint256",
          "name": "_subTraitNum",
          "type": "uint256"
        }
      ],
      "name": "getUIOffset",
      "outputs": [
        {
          "internalType": "uint256",
          "name": "",
          "type": "uint256"
        }
      ],
      "stateMutability": "pure",
      "type": "function"
    },
    {
      "inputs": [
        {
          "internalType": "uint256",
          "name": "",
          "type": "uint256"
        }
      ],
      "name": "items",
      "outputs": [
        {
          "internalType": "bytes32",
          "name": "genHash",
          "type": "bytes32"
        },
        {
          "internalType": "uint256",
          "name": "id",
          "type": "uint256"
        },
        {
          "internalType": "uint256",
          "name": "uifID",
          "type": "uint256"
        },
        {
          "internalType": "uint256",
          "name": "holdingPlayerId",
          "type": "uint256"
        },
        {
          "internalType": "uint256",
          "name": "weight",
          "type": "uint256"
        },
        {
          "internalType": "uint256",
          "name": "traitModID",
          "type": "uint256"
        },
        {
          "internalType": "enum BCTypes.ItemCategory",
          "name": "itemCategory",
          "type": "uint8"
        },
        {
          "internalType": "uint8",
          "name": "grantsAbility",
          "type": "uint8"
        },
        {
          "internalType": "uint8",
          "name": "grantsFlaw",
          "type": "uint8"
        },
        {
          "internalType": "enum BCTypes.ItemType",
          "name": "itemType",
          "type": "uint8"
        },
        {
          "internalType": "uint8",
          "name": "power",
          "type": "uint8"
        },
        {
          "internalType": "bool",
          "name": "inGame",
          "type": "bool"
        }
      ],
      "stateMutability": "view",
      "type": "function"
    },
    {
      "inputs": [],
      "name": "lobbies",
      "outputs": [
        {
          "internalType": "contract LobbyInterface",
          "name": "",
          "type": "address"
        }
      ],
      "stateMutability": "view",
      "type": "function"
    },
    {
      "inputs": [
        {
          "internalType": "uint256",
          "name": "_holdingPlayerId",
          "type": "uint256"
        },
        {
          "internalType": "address",
          "name": "_holderAddress",
          "type": "address"
        }
      ],
      "name": "lootItem",
      "outputs": [],
      "stateMutability": "payable",
      "type": "function"
    },
    {
      "inputs": [],
      "name": "mintCost",
      "outputs": [
        {
          "internalType": "uint256",
          "name": "",
          "type": "uint256"
        }
      ],
      "stateMutability": "view",
      "type": "function"
    },
    {
      "inputs": [],
      "name": "mintIsActive",
      "outputs": [
        {
          "internalType": "bool",
          "name": "",
          "type": "bool"
        }
      ],
      "stateMutability": "view",
      "type": "function"
    },
    {
      "inputs": [
        {
          "internalType": "uint256",
          "name": "_min",
          "type": "uint256"
        },
        {
          "internalType": "uint256",
          "name": "_max",
          "type": "uint256"
        },
        {
          "internalType": "uint256",
          "name": "_val",
          "type": "uint256"
        },
        {
          "internalType": "uint256",
          "name": "_valMax",
          "type": "uint256"
        }
      ],
      "name": "normalizeToSmallRange",
      "outputs": [
        {
          "internalType": "uint8",
          "name": "",
          "type": "uint8"
        }
      ],
      "stateMutability": "pure",
      "type": "function"
    },
    {
      "inputs": [
        {
          "internalType": "address",
          "name": "_operator",
          "type": "address"
        },
        {
          "internalType": "address",
          "name": "_from",
          "type": "address"
        },
        {
          "internalType": "uint256",
          "name": "_tokenId",
          "type": "uint256"
        },
        {
          "internalType": "bytes",
          "name": "_data",
          "type": "bytes"
        }
      ],
      "name": "onERC721Received",
      "outputs": [
        {
          "internalType": "bytes4",
          "name": "",
          "type": "bytes4"
        }
      ],
      "stateMutability": "nonpayable",
      "type": "function"
    },
    {
      "inputs": [
        {
          "internalType": "uint256",
          "name": "_direction",
          "type": "uint256"
        }
      ],
      "name": "opposite",
      "outputs": [
        {
          "internalType": "uint256",
          "name": "",
          "type": "uint256"
        }
      ],
      "stateMutability": "pure",
      "type": "function"
    },
    {
      "inputs": [],
      "name": "owner",
      "outputs": [
        {
          "internalType": "address",
          "name": "",
          "type": "address"
        }
      ],
      "stateMutability": "view",
      "type": "function"
    },
    {
      "inputs": [
        {
          "internalType": "uint256",
          "name": "",
          "type": "uint256"
        },
        {
          "internalType": "uint256",
          "name": "",
          "type": "uint256"
        }
      ],
      "name": "playerToItems",
      "outputs": [
        {
          "internalType": "uint256",
          "name": "",
          "type": "uint256"
        }
      ],
      "stateMutability": "view",
      "type": "function"
    },
    {
      "inputs": [],
      "name": "randKeccak",
      "outputs": [
        {
          "internalType": "bytes32",
          "name": "",
          "type": "bytes32"
        }
      ],
      "stateMutability": "nonpayable",
      "type": "function"
    },
    {
      "inputs": [],
      "name": "renounceOwnership",
      "outputs": [],
      "stateMutability": "nonpayable",
      "type": "function"
    },
    {
      "inputs": [
        {
          "internalType": "uint256",
          "name": "_for",
          "type": "uint256"
        },
        {
          "internalType": "uint256",
          "name": "_against",
          "type": "uint256"
        }
      ],
      "name": "resolveChallenge",
      "outputs": [
        {
          "internalType": "bool",
          "name": "",
          "type": "bool"
        }
      ],
      "stateMutability": "nonpayable",
      "type": "function"
    },
    {
      "inputs": [],
      "name": "roll",
      "outputs": [
        {
          "internalType": "uint256",
          "name": "",
          "type": "uint256"
        }
      ],
      "stateMutability": "nonpayable",
      "type": "function"
    },
    {
      "inputs": [
        {
          "internalType": "address",
          "name": "_lobbyContractAddress",
          "type": "address"
        },
        {
          "internalType": "address",
          "name": "_gameContract",
          "type": "address"
        },
        {
          "internalType": "address",
          "name": "_UIFAddress",
          "type": "address"
        },
        {
          "internalType": "address",
          "name": "_actionsContract",
          "type": "address"
        }
      ],
      "name": "setContractAddresses",
      "outputs": [],
      "stateMutability": "nonpayable",
      "type": "function"
    },
    {
      "inputs": [
        {
          "internalType": "bool",
          "name": "_status",
          "type": "bool"
        }
      ],
      "name": "setMintingStatus",
      "outputs": [],
      "stateMutability": "nonpayable",
      "type": "function"
    },
    {
      "inputs": [
        {
          "internalType": "bytes32",
          "name": "_hash",
          "type": "bytes32"
        },
        {
          "internalType": "uint256",
          "name": "_size",
          "type": "uint256"
        },
        {
          "internalType": "uint256",
          "name": "_offset",
          "type": "uint256"
        }
      ],
      "name": "sliceHashToSmallInt",
      "outputs": [
        {
          "internalType": "uint8",
          "name": "",
          "type": "uint8"
        }
      ],
      "stateMutability": "pure",
      "type": "function"
    },
    {
      "inputs": [
        {
          "internalType": "uint8",
          "name": "_min",
          "type": "uint8"
        },
        {
          "internalType": "uint8",
          "name": "_max",
          "type": "uint8"
        }
      ],
      "name": "smallIntBetweenVals",
      "outputs": [
        {
          "internalType": "uint8",
          "name": "",
          "type": "uint8"
        }
      ],
      "stateMutability": "nonpayable",
      "type": "function"
    },
    {
      "inputs": [],
      "name": "spawnCompanyItem",
      "outputs": [],
      "stateMutability": "payable",
      "type": "function"
    },
    {
      "inputs": [],
      "name": "spawnItem",
      "outputs": [],
      "stateMutability": "payable",
      "type": "function"
    },
    {
      "inputs": [],
      "name": "transferFundsOut",
      "outputs": [],
      "stateMutability": "nonpayable",
      "type": "function"
    },
    {
      "inputs": [
        {
          "internalType": "address",
          "name": "newOwner",
          "type": "address"
        }
      ],
      "name": "transferOwnership",
      "outputs": [],
      "stateMutability": "nonpayable",
      "type": "function"
    },
    {
      "inputs": [],
      "name": "uif",
      "outputs": [
        {
          "internalType": "contract UIFInterface",
          "name": "",
          "type": "address"
        }
      ],
      "stateMutability": "view",
      "type": "function"
    }
  ],
  "transactionHash": "0x42956e0401143200e572665e70b00e7ea5d603977dd831e4bff1336d40e07860",
  "args": [],
  "numDeployments": 1,
  "solcInputHash": "1ed45c9fed2d4196fa6714e8347f0ae1",
  "bytecode": "0x6080604052600060015564174876e8006006556001600760006101000a81548160ff02191690831515021790555060006008553480156200003f57600080fd5b5062000060620000546200008360201b60201c565b6200008b60201b60201c565b600b6001816001815401808255809150500390600052602060002050506200014f565b600033905090565b60008060009054906101000a900473ffffffffffffffffffffffffffffffffffffffff169050816000806101000a81548173ffffffffffffffffffffffffffffffffffffffff021916908373ffffffffffffffffffffffffffffffffffffffff1602179055508173ffffffffffffffffffffffffffffffffffffffff168173ffffffffffffffffffffffffffffffffffffffff167f8be0079c531659141344cd1fd0a4f28419497f9722a3daafe3b4186f6b6457e060405160405180910390a35050565b613831806200015f6000396000f3fe6080604052600436106101ee5760003560e01c80638214f2221161010d578063b78e6651116100a0578063ce28613f1161006f578063ce28613f146106d3578063dff2fb3114610710578063e89d5a891461074d578063f2fde38b14610778578063fa3993c2146107a1576101ee565b8063b78e6651146105f8578063bdb4b84814610635578063bfb231d214610660578063cd5e3c5d146106a8576101ee565b806397f34c3f116100dc57806397f34c3f1461056c578063a20df9fa146105a9578063aa3eb1b5146105b3578063aaa68777146105cf576101ee565b80638214f2221461048a5780638ac031b3146104c75780638da5cb5b14610504578063951fc3fe1461052f576101ee565b8063471a429411610185578063705498dc11610154578063705498dc14610408578063715018a6146104335780637420aa361461044a57806376c8aa2714610473576101ee565b8063471a42941461033a578063501f978414610365578063530116961461038e57806364db84bf146103cb576101ee565b8063185ae9dc116101c1578063185ae9dc146102905780631b5ac4b5146102bb5780631e1de205146102f85780633838aed114610323576101ee565b80630364f88c146101f35780630fd8e8331461021e578063150b7a0214610228578063154fa27a14610265575b600080fd5b3480156101ff57600080fd5b506102086107de565b6040516102159190611f61565b60405180910390f35b610226610804565b005b34801561023457600080fd5b5061024f600480360381019061024a9190612069565b6109b1565b60405161025c919061212c565b60405180910390f35b34801561027157600080fd5b5061027a6109f2565b6040516102879190612156565b60405180910390f35b34801561029c57600080fd5b506102a5610a18565b6040516102b29190612156565b60405180910390f35b3480156102c757600080fd5b506102e260048036038101906102dd91906121a7565b610a3e565b6040516102ef91906121e3565b60405180910390f35b34801561030457600080fd5b5061030d610a60565b60405161031a9190612217565b60405180910390f35b34801561032f57600080fd5b50610338610aac565b005b34801561034657600080fd5b5061034f610b04565b60405161035c919061224d565b60405180910390f35b34801561037157600080fd5b5061038c60048036038101906103879190612268565b610b17565b005b34801561039a57600080fd5b506103b560048036038101906103b09190612295565b610b3c565b6040516103c29190612318565b60405180910390f35b3480156103d757600080fd5b506103f260048036038101906103ed9190612333565b610b80565b6040516103ff9190612382565b60405180910390f35b34801561041457600080fd5b5061041d610ba2565b60405161042a91906123be565b60405180910390f35b34801561043f57600080fd5b50610448610bc8565b005b34801561045657600080fd5b50610471600480360381019061046c9190612405565b610bdc565b005b34801561047f57600080fd5b50610488610c01565b005b34801561049657600080fd5b506104b160048036038101906104ac9190612268565b610c03565b6040516104be9190612382565b60405180910390f35b3480156104d357600080fd5b506104ee60048036038101906104e99190612333565b610c8c565b6040516104fb9190612382565b60405180910390f35b34801561051057600080fd5b50610519610cbd565b6040516105269190612156565b60405180910390f35b34801561053b57600080fd5b506105566004803603810190610551919061253f565b610ce6565b60405161056391906125bd565b60405180910390f35b34801561057857600080fd5b50610593600480360381019061058e9190612604565b610e2b565b6040516105a09190612318565b60405180910390f35b6105b1610e62565b005b6105cd60048036038101906105c89190612657565b61101a565b005b3480156105db57600080fd5b506105f660048036038101906105f19190612697565b6111fb565b005b34801561060457600080fd5b5061061f600480360381019061061a9190612268565b61130d565b60405161062c9190612990565b60405180910390f35b34801561064157600080fd5b5061064a6115b6565b6040516106579190612382565b60405180910390f35b34801561066c57600080fd5b5061068760048036038101906106829190612268565b6115bc565b60405161069f9c9b9a999897969594939291906129d0565b60405180910390f35b3480156106b457600080fd5b506106bd61167a565b6040516106ca9190612382565b60405180910390f35b3480156106df57600080fd5b506106fa60048036038101906106f59190612a8a565b611690565b6040516107079190612318565b60405180910390f35b34801561071c57600080fd5b5061073760048036038101906107329190612333565b611721565b604051610744919061224d565b60405180910390f35b34801561075957600080fd5b506107626117b1565b60405161076f9190612156565b60405180910390f35b34801561078457600080fd5b5061079f600480360381019061079a9190612aca565b6117d7565b005b3480156107ad57600080fd5b506107c860048036038101906107c39190612af7565b61185b565b6040516107d59190612382565b60405180910390f35b600260009054906101000a900473ffffffffffffffffffffffffffffffffffffffff1681565b61080c610cbd565b73ffffffffffffffffffffffffffffffffffffffff163373ffffffffffffffffffffffffffffffffffffffff161480610846575060065434145b610885576040517f08c379a000000000000000000000000000000000000000000000000000000000815260040161087c90612b94565b60405180910390fd5b61088d610cbd565b73ffffffffffffffffffffffffffffffffffffffff163373ffffffffffffffffffffffffffffffffffffffff1614806108d9575060011515600760009054906101000a900460ff161515145b610918576040517f08c379a000000000000000000000000000000000000000000000000000000000815260040161090f90612c00565b60405180910390fd5b610920610cbd565b73ffffffffffffffffffffffffffffffffffffffff163373ffffffffffffffffffffffffffffffffffffffff1614806109a65750600360009054906101000a900473ffffffffffffffffffffffffffffffffffffffff1673ffffffffffffffffffffffffffffffffffffffff163373ffffffffffffffffffffffffffffffffffffffff16145b6109af57600080fd5b565b60007f544c765b33ca411cce832250371569244f765a17fcd217832be093f0fd5fa45b60405160405180910390a163150b7a0260e01b905095945050505050565b600360009054906101000a900473ffffffffffffffffffffffffffffffffffffffff1681565b600560009054906101000a900473ffffffffffffffffffffffffffffffffffffffff1681565b600080821215610a575781610a5290612c4f565b610a59565b815b9050919050565b600060016000815480929190610a7590612c98565b91905055506001544233604051602001610a9193929190612d4a565b60405160208183030381529060405280519060200120905090565b610ab461197c565b610abc610cbd565b73ffffffffffffffffffffffffffffffffffffffff166108fc479081150290604051600060405180830381858888f19350505050158015610b01573d6000803e3d6000fd5b50565b600760009054906101000a900460ff1681565b610b1f61197c565b670de0b6b3a764000081610b339190612d87565b60068190555050565b6000808585610b4b9190612de1565b90506000838583610b5c9190612d87565b610b669190612e44565b90508681610b749190612e75565b92505050949350505050565b600081836004610b909190612d87565b610b9a9190612e75565b905092915050565b600460009054906101000a900473ffffffffffffffffffffffffffffffffffffffff1681565b610bd061197c565b610bda60006119fa565b565b610be461197c565b80600760006101000a81548160ff02191690831515021790555050565b565b600080821415610c165760019050610c87565b6001821415610c285760009050610c87565b6002821415610c3a5760039050610c87565b6003821415610c4c5760029050610c87565b6040517f08c379a0000000000000000000000000000000000000000000000000000000008152600401610c7e90612f17565b60405180910390fd5b919050565b600a6020528160005260406000208181548110610ca857600080fd5b90600052602060002001600091509150505481565b60008060009054906101000a900473ffffffffffffffffffffffffffffffffffffffff16905090565b610cee611e2f565b6000831415610d2d57604051806040016040528060018460000151610d139190612f37565b60ff168152602001836020015160ff168152509050610e25565b6001831415610d6c57604051806040016040528060018460000151610d529190612f6b565b60ff168152602001836020015160ff168152509050610e25565b6002831415610dab576040518060400160405280836000015160ff16815260200160018460200151610d9e9190612f6b565b60ff168152509050610e25565b6003831415610dea576040518060400160405280836000015160ff16815260200160018460200151610ddd9190612f37565b60ff168152509050610e25565b6040517f08c379a0000000000000000000000000000000000000000000000000000000008152600401610e1c90612fee565b60405180910390fd5b92915050565b600080826001856002610e3e9190613141565b610e489190612de1565b60001b901b905082818616901c60001c9150509392505050565b610e6a610cbd565b73ffffffffffffffffffffffffffffffffffffffff163373ffffffffffffffffffffffffffffffffffffffff161480610ea4575060065434145b610ee3576040517f08c379a0000000000000000000000000000000000000000000000000000000008152600401610eda90612b94565b60405180910390fd5b610eeb610cbd565b73ffffffffffffffffffffffffffffffffffffffff163373ffffffffffffffffffffffffffffffffffffffff161480610f37575060011515600760009054906101000a900460ff161515145b610f76576040517f08c379a0000000000000000000000000000000000000000000000000000000008152600401610f6d90612c00565b60405180910390fd5b610f7e610cbd565b73ffffffffffffffffffffffffffffffffffffffff163373ffffffffffffffffffffffffffffffffffffffff1614806110045750600360009054906101000a900473ffffffffffffffffffffffffffffffffffffffff1673ffffffffffffffffffffffffffffffffffffffff163373ffffffffffffffffffffffffffffffffffffffff16145b61100d57600080fd5b611018600033611abe565b565b60003460065460405160200161103192919061322f565b604051602081830303815290604052905061104a610cbd565b73ffffffffffffffffffffffffffffffffffffffff163373ffffffffffffffffffffffffffffffffffffffff161480611084575060065434145b81906110c6576040517f08c379a00000000000000000000000000000000000000000000000000000000081526004016110bd91906132e8565b60405180910390fd5b506110cf610cbd565b73ffffffffffffffffffffffffffffffffffffffff163373ffffffffffffffffffffffffffffffffffffffff1614806111555750600360009054906101000a900473ffffffffffffffffffffffffffffffffffffffff1673ffffffffffffffffffffffffffffffffffffffff163373ffffffffffffffffffffffffffffffffffffffff16145b806111ad5750600560009054906101000a900473ffffffffffffffffffffffffffffffffffffffff1673ffffffffffffffffffffffffffffffffffffffff163373ffffffffffffffffffffffffffffffffffffffff16145b6111ec576040517f08c379a00000000000000000000000000000000000000000000000000000000081526004016111e390613356565b60405180910390fd5b6111f68383611abe565b505050565b61120361197c565b83600260006101000a81548173ffffffffffffffffffffffffffffffffffffffff021916908373ffffffffffffffffffffffffffffffffffffffff16021790555082600360006101000a81548173ffffffffffffffffffffffffffffffffffffffff021916908373ffffffffffffffffffffffffffffffffffffffff16021790555081600460006101000a81548173ffffffffffffffffffffffffffffffffffffffff021916908373ffffffffffffffffffffffffffffffffffffffff16021790555080600560006101000a81548173ffffffffffffffffffffffffffffffffffffffff021916908373ffffffffffffffffffffffffffffffffffffffff16021790555050505050565b60606000600a6000848152602001908152602001600020805490509050600081141561139057600067ffffffffffffffff81111561134e5761134d612448565b5b60405190808252806020026020018201604052801561138757816020015b611374611e4f565b81526020019060019003908161136c5790505b509150506115b1565b60008167ffffffffffffffff8111156113ac576113ab612448565b5b6040519080825280602002602001820160405280156113e557816020015b6113d2611e4f565b8152602001906001900390816113ca5790505b50905060005b6009805490508110156115aa576009600a6000878152602001908152602001600020828154811061141f5761141e613376565b5b90600052602060002001548154811061143b5761143a613376565b5b9060005260206000209060070201604051806101800160405290816000820154815260200160018201548152602001600282015481526020016003820154815260200160048201548152602001600582015481526020016006820160009054906101000a900460ff1660028111156114b6576114b5612748565b5b60028111156114c8576114c7612748565b5b81526020016006820160019054906101000a900460ff1660ff1660ff1681526020016006820160029054906101000a900460ff1660ff1660ff1681526020016006820160039054906101000a900460ff16600381111561152b5761152a612748565b5b600381111561153d5761153c612748565b5b81526020016006820160049054906101000a900460ff1660ff1660ff1681526020016006820160059054906101000a900460ff16151515158152505082828151811061158c5761158b613376565b5b602002602001018190525080806115a290612c98565b9150506113eb565b5080925050505b919050565b60065481565b600981815481106115cc57600080fd5b90600052602060002090600702016000915090508060000154908060010154908060020154908060030154908060040154908060050154908060060160009054906101000a900460ff16908060060160019054906101000a900460ff16908060060160029054906101000a900460ff16908060060160039054906101000a900460ff16908060060160049054906101000a900460ff16908060060160059054906101000a900460ff1690508c565b600061168860016006611690565b60ff16905090565b6000600160008154809291906116a590612c98565b9190505550600033600154426040516020016116c3939291906133a5565b6040516020818303038152906040528051906020012060001c90506000600185856116ee9190612f37565b6116f89190612f6b565b90508460ff168160ff168361170d91906133e2565b6117179190612e75565b9250505092915050565b60008061172c61167a565b90507f2729adc6efc811c2141edf691ce91423fbcd06f2d8fe8be0a13b24e47d1050c481858560405161176193929190613413565b60405180910390a1600181141561177c5760009150506117ab565b600383858361178b9190612e75565b611795919061344a565b13156117a55760019150506117ab565b60009150505b92915050565b600760019054906101000a900473ffffffffffffffffffffffffffffffffffffffff1681565b6117df61197c565b600073ffffffffffffffffffffffffffffffffffffffff168173ffffffffffffffffffffffffffffffffffffffff16141561184f576040517f08c379a000000000000000000000000000000000000000000000000000000000815260040161184690613550565b60405180910390fd5b611858816119fa565b50565b6000600182600001518460000151611873919061357d565b60000b14156118855760009050611976565b7fffffffffffffffffffffffffffffffffffffffffffffffffffffffffffffffff826000015184600001516118ba919061357d565b60000b14156118cc5760019050611976565b7fffffffffffffffffffffffffffffffffffffffffffffffffffffffffffffffff82602001518460200151611901919061357d565b60000b14156119135760029050611976565b600182602001518460200151611929919061357d565b60000b141561193b5760039050611976565b6040517f08c379a000000000000000000000000000000000000000000000000000000000815260040161196d9061363e565b60405180910390fd5b92915050565b611984611de6565b73ffffffffffffffffffffffffffffffffffffffff166119a2610cbd565b73ffffffffffffffffffffffffffffffffffffffff16146119f8576040517f08c379a00000000000000000000000000000000000000000000000000000000081526004016119ef906136aa565b60405180910390fd5b565b60008060009054906101000a900473ffffffffffffffffffffffffffffffffffffffff169050816000806101000a81548173ffffffffffffffffffffffffffffffffffffffff021916908373ffffffffffffffffffffffffffffffffffffffff1602179055508173ffffffffffffffffffffffffffffffffffffffff168173ffffffffffffffffffffffffffffffffffffffff167f8be0079c531659141344cd1fd0a4f28419497f9722a3daafe3b4186f6b6457e060405160405180910390a35050565b6000600460009054906101000a900473ffffffffffffffffffffffffffffffffffffffff1673ffffffffffffffffffffffffffffffffffffffff16639b6507f064174876e80060046000866040518563ffffffff1660e01b8152600401611b2793929190613740565b60206040518083038185885af1158015611b45573d6000803e3d6000fd5b50505050506040513d601f19601f82011682018060405250810190611b6a919061378c565b90506000600460009054906101000a900473ffffffffffffffffffffffffffffffffffffffff1673ffffffffffffffffffffffffffffffffffffffff166328518381836040518263ffffffff1660e01b8152600401611bc99190612382565b602060405180830381865afa158015611be6573d6000803e3d6000fd5b505050506040513d601f19601f82011682018060405250810190611c0a91906137ce565b90506000600960018160018154018082558091505003906000526020600020906007020190508181600001819055506001600980549050611c4b9190612de1565b81600101819055508281600201819055508481600301819055506001816004018190555060008160050181905550600b611c92836004611c8d60016000610b80565b610e2b565b60ff161015611ca2576001611ca5565b60025b8160060160006101000a81548160ff02191690836002811115611ccb57611cca612748565b5b021790555060008160060160016101000a81548160ff021916908360ff16021790555060008160060160026101000a81548160ff021916908360ff160217905550611d2e611d26836004611d2160006001610b80565b610e2b565b60ff16611dee565b8160060160036101000a81548160ff02191690836003811115611d5457611d53612748565b5b021790555060018160060160046101000a81548160ff021916908360ff16021790555060018160060160056101000a81548160ff021916908315150217905550600a60008681526020019081526020016000206001600980549050611db99190612de1565b90806001815401808255809150506001900390600052602060002001600090919091909150555050505050565b600033905090565b600080821415611e015760009050611e2a565b6000821415611e135760009050611e2a565b6000821415611e255760029050611e2a565b600390505b919050565b6040518060400160405280600060ff168152602001600060ff1681525090565b60405180610180016040528060008019168152602001600081526020016000815260200160008152602001600081526020016000815260200160006002811115611e9c57611e9b612748565b5b8152602001600060ff168152602001600060ff16815260200160006003811115611ec957611ec8612748565b5b8152602001600060ff1681526020016000151581525090565b600073ffffffffffffffffffffffffffffffffffffffff82169050919050565b6000819050919050565b6000611f27611f22611f1d84611ee2565b611f02565b611ee2565b9050919050565b6000611f3982611f0c565b9050919050565b6000611f4b82611f2e565b9050919050565b611f5b81611f40565b82525050565b6000602082019050611f766000830184611f52565b92915050565b6000604051905090565b600080fd5b600080fd5b6000611f9b82611ee2565b9050919050565b611fab81611f90565b8114611fb657600080fd5b50565b600081359050611fc881611fa2565b92915050565b6000819050919050565b611fe181611fce565b8114611fec57600080fd5b50565b600081359050611ffe81611fd8565b92915050565b600080fd5b600080fd5b600080fd5b60008083601f84011261202957612028612004565b5b8235905067ffffffffffffffff81111561204657612045612009565b5b6020830191508360018202830111156120625761206161200e565b5b9250929050565b60008060008060006080868803121561208557612084611f86565b5b600061209388828901611fb9565b95505060206120a488828901611fb9565b94505060406120b588828901611fef565b935050606086013567ffffffffffffffff8111156120d6576120d5611f8b565b5b6120e288828901612013565b92509250509295509295909350565b60007fffffffff0000000000000000000000000000000000000000000000000000000082169050919050565b612126816120f1565b82525050565b6000602082019050612141600083018461211d565b92915050565b61215081611f90565b82525050565b600060208201905061216b6000830184612147565b92915050565b6000819050919050565b61218481612171565b811461218f57600080fd5b50565b6000813590506121a18161217b565b92915050565b6000602082840312156121bd576121bc611f86565b5b60006121cb84828501612192565b91505092915050565b6121dd81612171565b82525050565b60006020820190506121f860008301846121d4565b92915050565b6000819050919050565b612211816121fe565b82525050565b600060208201905061222c6000830184612208565b92915050565b60008115159050919050565b61224781612232565b82525050565b6000602082019050612262600083018461223e565b92915050565b60006020828403121561227e5761227d611f86565b5b600061228c84828501611fef565b91505092915050565b600080600080608085870312156122af576122ae611f86565b5b60006122bd87828801611fef565b94505060206122ce87828801611fef565b93505060406122df87828801611fef565b92505060606122f087828801611fef565b91505092959194509250565b600060ff82169050919050565b612312816122fc565b82525050565b600060208201905061232d6000830184612309565b92915050565b6000806040838503121561234a57612349611f86565b5b600061235885828601611fef565b925050602061236985828601611fef565b9150509250929050565b61237c81611fce565b82525050565b60006020820190506123976000830184612373565b92915050565b60006123a882611f2e565b9050919050565b6123b88161239d565b82525050565b60006020820190506123d360008301846123af565b92915050565b6123e281612232565b81146123ed57600080fd5b50565b6000813590506123ff816123d9565b92915050565b60006020828403121561241b5761241a611f86565b5b6000612429848285016123f0565b91505092915050565b600080fd5b6000601f19601f8301169050919050565b7f4e487b7100000000000000000000000000000000000000000000000000000000600052604160045260246000fd5b61248082612437565b810181811067ffffffffffffffff8211171561249f5761249e612448565b5b80604052505050565b60006124b2611f7c565b90506124be8282612477565b919050565b6124cc816122fc565b81146124d757600080fd5b50565b6000813590506124e9816124c3565b92915050565b60006040828403121561250557612504612432565b5b61250f60406124a8565b9050600061251f848285016124da565b6000830152506020612533848285016124da565b60208301525092915050565b6000806060838503121561255657612555611f86565b5b600061256485828601611fef565b9250506020612575858286016124ef565b9150509250929050565b612588816122fc565b82525050565b6040820160008201516125a4600085018261257f565b5060208201516125b7602085018261257f565b50505050565b60006040820190506125d2600083018461258e565b92915050565b6125e1816121fe565b81146125ec57600080fd5b50565b6000813590506125fe816125d8565b92915050565b60008060006060848603121561261d5761261c611f86565b5b600061262b868287016125ef565b935050602061263c86828701611fef565b925050604061264d86828701611fef565b9150509250925092565b6000806040838503121561266e5761266d611f86565b5b600061267c85828601611fef565b925050602061268d85828601611fb9565b9150509250929050565b600080600080608085870312156126b1576126b0611f86565b5b60006126bf87828801611fb9565b94505060206126d087828801611fb9565b93505060406126e187828801611fb9565b92505060606126f287828801611fb9565b91505092959194509250565b600081519050919050565b600082825260208201905092915050565b6000819050602082019050919050565b612733816121fe565b82525050565b61274281611fce565b82525050565b7f4e487b7100000000000000000000000000000000000000000000000000000000600052602160045260246000fd5b6003811061278857612787612748565b5b50565b600081905061279982612777565b919050565b60006127a98261278b565b9050919050565b6127b98161279e565b82525050565b600481106127d0576127cf612748565b5b50565b60008190506127e1826127bf565b919050565b60006127f1826127d3565b9050919050565b612801816127e6565b82525050565b61281081612232565b82525050565b6101808201600082015161282d600085018261272a565b5060208201516128406020850182612739565b5060408201516128536040850182612739565b5060608201516128666060850182612739565b5060808201516128796080850182612739565b5060a082015161288c60a0850182612739565b5060c082015161289f60c08501826127b0565b5060e08201516128b260e085018261257f565b506101008201516128c761010085018261257f565b506101208201516128dc6101208501826127f8565b506101408201516128f161014085018261257f565b50610160820151612906610160850182612807565b50505050565b60006129188383612816565b6101808301905092915050565b6000602082019050919050565b600061293d826126fe565b6129478185612709565b93506129528361271a565b8060005b8381101561298357815161296a888261290c565b975061297583612925565b925050600181019050612956565b5085935050505092915050565b600060208201905081810360008301526129aa8184612932565b905092915050565b6129bb8161279e565b82525050565b6129ca816127e6565b82525050565b6000610180820190506129e6600083018f612208565b6129f3602083018e612373565b612a00604083018d612373565b612a0d606083018c612373565b612a1a608083018b612373565b612a2760a083018a612373565b612a3460c08301896129b2565b612a4160e0830188612309565b612a4f610100830187612309565b612a5d6101208301866129c1565b612a6b610140830185612309565b612a7961016083018461223e565b9d9c50505050505050505050505050565b60008060408385031215612aa157612aa0611f86565b5b6000612aaf858286016124da565b9250506020612ac0858286016124da565b9150509250929050565b600060208284031215612ae057612adf611f86565b5b6000612aee84828501611fb9565b91505092915050565b60008060808385031215612b0e57612b0d611f86565b5b6000612b1c858286016124ef565b9250506040612b2d858286016124ef565b9150509250929050565b600082825260208201905092915050565b7f496e636f7272656374207061796d656e74000000000000000000000000000000600082015250565b6000612b7e601183612b37565b9150612b8982612b48565b602082019050919050565b60006020820190508181036000830152612bad81612b71565b9050919050565b7f4d696e74696e67206973206e6f74206163746976650000000000000000000000600082015250565b6000612bea601583612b37565b9150612bf582612bb4565b602082019050919050565b60006020820190508181036000830152612c1981612bdd565b9050919050565b7f4e487b7100000000000000000000000000000000000000000000000000000000600052601160045260246000fd5b6000612c5a82612171565b91507f8000000000000000000000000000000000000000000000000000000000000000821415612c8d57612c8c612c20565b5b816000039050919050565b6000612ca382611fce565b91507fffffffffffffffffffffffffffffffffffffffffffffffffffffffffffffffff821415612cd657612cd5612c20565b5b600182019050919050565b6000819050919050565b612cfc612cf782611fce565b612ce1565b82525050565b60008160601b9050919050565b6000612d1a82612d02565b9050919050565b6000612d2c82612d0f565b9050919050565b612d44612d3f82611f90565b612d21565b82525050565b6000612d568286612ceb565b602082019150612d668285612ceb565b602082019150612d768284612d33565b601482019150819050949350505050565b6000612d9282611fce565b9150612d9d83611fce565b9250817fffffffffffffffffffffffffffffffffffffffffffffffffffffffffffffffff0483118215151615612dd657612dd5612c20565b5b828202905092915050565b6000612dec82611fce565b9150612df783611fce565b925082821015612e0a57612e09612c20565b5b828203905092915050565b7f4e487b7100000000000000000000000000000000000000000000000000000000600052601260045260246000fd5b6000612e4f82611fce565b9150612e5a83611fce565b925082612e6a57612e69612e15565b5b828204905092915050565b6000612e8082611fce565b9150612e8b83611fce565b9250827fffffffffffffffffffffffffffffffffffffffffffffffffffffffffffffffff03821115612ec057612ebf612c20565b5b828201905092915050565b7f42616420646972656374696f6e00000000000000000000000000000000000000600082015250565b6000612f01600d83612b37565b9150612f0c82612ecb565b602082019050919050565b60006020820190508181036000830152612f3081612ef4565b9050919050565b6000612f42826122fc565b9150612f4d836122fc565b925082821015612f6057612f5f612c20565b5b828203905092915050565b6000612f76826122fc565b9150612f81836122fc565b92508260ff03821115612f9757612f96612c20565b5b828201905092915050565b7f496e76616c696420646972656374696f6e000000000000000000000000000000600082015250565b6000612fd8601183612b37565b9150612fe382612fa2565b602082019050919050565b6000602082019050818103600083015261300781612fcb565b9050919050565b60008160011c9050919050565b6000808291508390505b60018511156130655780860481111561304157613040612c20565b5b60018516156130505780820291505b808102905061305e8561300e565b9450613025565b94509492505050565b60008261307e576001905061313a565b8161308c576000905061313a565b81600181146130a257600281146130ac576130db565b600191505061313a565b60ff8411156130be576130bd612c20565b5b8360020a9150848211156130d5576130d4612c20565b5b5061313a565b5060208310610133831016604e8410600b84101617156131105782820a90508381111561310b5761310a612c20565b5b61313a565b61311d848484600161301b565b9250905081840481111561313457613133612c20565b5b81810290505b9392505050565b600061314c82611fce565b915061315783611fce565b92506131847fffffffffffffffffffffffffffffffffffffffffffffffffffffffffffffffff848461306e565b905092915050565b600081905092915050565b7f50617965643a2000000000000000000000000000000000000000000000000000600082015250565b60006131cd60078361318c565b91506131d882613197565b600782019050919050565b7f2c20636f73742069733a20000000000000000000000000000000000000000000600082015250565b6000613219600b8361318c565b9150613224826131e3565b600b82019050919050565b600061323a826131c0565b91506132468285612ceb565b6020820191506132558261320c565b91506132618284612ceb565b6020820191508190509392505050565b600081519050919050565b60005b8381101561329a57808201518184015260208101905061327f565b838111156132a9576000848401525b50505050565b60006132ba82613271565b6132c48185612b37565b93506132d481856020860161327c565b6132dd81612437565b840191505092915050565b6000602082019050818103600083015261330281846132af565b905092915050565b7f436f6e7472616374206e6f7420616c6c6f776564000000000000000000000000600082015250565b6000613340601483612b37565b915061334b8261330a565b602082019050919050565b6000602082019050818103600083015261336f81613333565b9050919050565b7f4e487b7100000000000000000000000000000000000000000000000000000000600052603260045260246000fd5b60006133b18286612d33565b6014820191506133c18285612ceb565b6020820191506133d18284612ceb565b602082019150819050949350505050565b60006133ed82611fce565b91506133f883611fce565b92508261340857613407612e15565b5b828206905092915050565b60006060820190506134286000830186612373565b6134356020830185612373565b6134426040830184612373565b949350505050565b600061345582612171565b915061346083612171565b9250827f80000000000000000000000000000000000000000000000000000000000000000182126000841215161561349b5761349a612c20565b5b827f7fffffffffffffffffffffffffffffffffffffffffffffffffffffffffffffff0182136000841216156134d3576134d2612c20565b5b828203905092915050565b7f4f776e61626c653a206e6577206f776e657220697320746865207a65726f206160008201527f6464726573730000000000000000000000000000000000000000000000000000602082015250565b600061353a602683612b37565b9150613545826134de565b604082019050919050565b600060208201905081810360008301526135698161352d565b9050919050565b60008160000b9050919050565b600061358882613570565b915061359383613570565b9250827fffffffffffffffffffffffffffffffffffffffffffffffffffffffffffffff80018212600084121516156135ce576135cd612c20565b5b82607f0182136000841216156135e7576135e6612c20565b5b828203905092915050565b7f4572726f723a204e6f742061646a6163656e7400000000000000000000000000600082015250565b6000613628601383612b37565b9150613633826135f2565b602082019050919050565b600060208201905081810360008301526136578161361b565b9050919050565b7f4f776e61626c653a2063616c6c6572206973206e6f7420746865206f776e6572600082015250565b6000613694602083612b37565b915061369f8261365e565b602082019050919050565b600060208201905081810360008301526136c381613687565b9050919050565b6000819050919050565b60006136ef6136ea6136e5846136ca565b611f02565b611fce565b9050919050565b6136ff816136d4565b82525050565b6000819050919050565b600061372a61372561372084613705565b611f02565b611fce565b9050919050565b61373a8161370f565b82525050565b600060608201905061375560008301866136f6565b6137626020830185613731565b61376f6040830184612147565b949350505050565b60008151905061378681611fd8565b92915050565b6000602082840312156137a2576137a1611f86565b5b60006137b084828501613777565b91505092915050565b6000815190506137c8816125d8565b92915050565b6000602082840312156137e4576137e3611f86565b5b60006137f2848285016137b9565b9150509291505056fea2646970667358221220bbfd4f06828b4c9bd391ebf5a4fad1f245efc053a8615e61b0746a2b8126183b64736f6c634300080c0033",
  "devdoc": {
    "kind": "dev",
    "methods": {
      "owner()": {
        "details": "Returns the address of the current owner."
      },
      "renounceOwnership()": {
        "details": "Leaves the contract without owner. It will not be possible to call `onlyOwner` functions anymore. Can only be called by the current owner. NOTE: Renouncing ownership will leave the contract without an owner, thereby removing any functionality that is only available to the owner."
      },
      "transferOwnership(address)": {
        "details": "Transfers ownership of the contract to a new account (`newOwner`). Can only be called by the current owner."
      }
    },
    "version": 1
  },
  "userdoc": {
    "kind": "user",
    "methods": {},
    "version": 1
  },
  "storageLayout": {
    "storage": [
      {
        "astId": 7,
        "contract": "contracts/BCItems.sol:BCItems",
        "label": "_owner",
        "offset": 0,
        "slot": "0",
        "type": "t_address"
      },
      {
        "astId": 1043,
        "contract": "contracts/BCItems.sol:BCItems",
        "label": "TODO_randomSeed",
        "offset": 0,
        "slot": "1",
        "type": "t_uint256"
      },
      {
        "astId": 211,
        "contract": "contracts/BCItems.sol:BCItems",
        "label": "lobbies",
        "offset": 0,
        "slot": "2",
        "type": "t_contract(LobbyInterface)160"
      },
      {
        "astId": 213,
        "contract": "contracts/BCItems.sol:BCItems",
        "label": "gamesContract",
        "offset": 0,
        "slot": "3",
        "type": "t_address"
      },
      {
        "astId": 216,
        "contract": "contracts/BCItems.sol:BCItems",
        "label": "uif",
        "offset": 0,
        "slot": "4",
        "type": "t_contract(UIFInterface)202"
      },
      {
        "astId": 218,
        "contract": "contracts/BCItems.sol:BCItems",
        "label": "actionsContract",
        "offset": 0,
        "slot": "5",
        "type": "t_address"
      },
      {
        "astId": 255,
        "contract": "contracts/BCItems.sol:BCItems",
        "label": "mintCost",
        "offset": 0,
        "slot": "6",
        "type": "t_uint256"
      },
      {
        "astId": 258,
        "contract": "contracts/BCItems.sol:BCItems",
        "label": "mintIsActive",
        "offset": 0,
        "slot": "7",
        "type": "t_bool"
      },
      {
        "astId": 262,
        "contract": "contracts/BCItems.sol:BCItems",
        "label": "allowedContract",
        "offset": 1,
        "slot": "7",
        "type": "t_address"
      },
      {
        "astId": 265,
        "contract": "contracts/BCItems.sol:BCItems",
        "label": "randSeed",
        "offset": 0,
        "slot": "8",
        "type": "t_uint256"
      },
      {
        "astId": 269,
        "contract": "contracts/BCItems.sol:BCItems",
        "label": "items",
        "offset": 0,
        "slot": "9",
        "type": "t_array(t_struct(Item)1024_storage)dyn_storage"
      },
      {
        "astId": 274,
        "contract": "contracts/BCItems.sol:BCItems",
        "label": "playerToItems",
        "offset": 0,
        "slot": "10",
        "type": "t_mapping(t_uint256,t_array(t_uint256)dyn_storage)"
      },
      {
        "astId": 278,
        "contract": "contracts/BCItems.sol:BCItems",
        "label": "itemTraitModifiers",
        "offset": 0,
        "slot": "11",
        "type": "t_array(t_struct(Traits)968_storage)dyn_storage"
      }
    ],
    "types": {
      "t_address": {
        "encoding": "inplace",
        "label": "address",
        "numberOfBytes": "20"
      },
      "t_array(t_struct(Item)1024_storage)dyn_storage": {
        "base": "t_struct(Item)1024_storage",
        "encoding": "dynamic_array",
        "label": "struct BCTypes.Item[]",
        "numberOfBytes": "32"
      },
      "t_array(t_struct(Traits)968_storage)dyn_storage": {
        "base": "t_struct(Traits)968_storage",
        "encoding": "dynamic_array",
        "label": "struct BCTypes.Traits[]",
        "numberOfBytes": "32"
      },
      "t_array(t_uint256)dyn_storage": {
        "base": "t_uint256",
        "encoding": "dynamic_array",
        "label": "uint256[]",
        "numberOfBytes": "32"
      },
      "t_bool": {
        "encoding": "inplace",
        "label": "bool",
        "numberOfBytes": "1"
      },
      "t_bytes32": {
        "encoding": "inplace",
        "label": "bytes32",
        "numberOfBytes": "32"
      },
      "t_contract(LobbyInterface)160": {
        "encoding": "inplace",
        "label": "contract LobbyInterface",
        "numberOfBytes": "20"
      },
      "t_contract(UIFInterface)202": {
        "encoding": "inplace",
        "label": "contract UIFInterface",
        "numberOfBytes": "20"
      },
      "t_enum(ItemCategory)992": {
        "encoding": "inplace",
        "label": "enum BCTypes.ItemCategory",
        "numberOfBytes": "1"
      },
      "t_enum(ItemType)997": {
        "encoding": "inplace",
        "label": "enum BCTypes.ItemType",
        "numberOfBytes": "1"
      },
      "t_mapping(t_uint256,t_array(t_uint256)dyn_storage)": {
        "encoding": "mapping",
        "key": "t_uint256",
        "label": "mapping(uint256 => uint256[])",
        "numberOfBytes": "32",
        "value": "t_array(t_uint256)dyn_storage"
      },
      "t_struct(Item)1024_storage": {
        "encoding": "inplace",
        "label": "struct BCTypes.Item",
        "members": [
          {
            "astId": 999,
            "contract": "contracts/BCItems.sol:BCItems",
            "label": "genHash",
            "offset": 0,
            "slot": "0",
            "type": "t_bytes32"
          },
          {
            "astId": 1001,
            "contract": "contracts/BCItems.sol:BCItems",
            "label": "id",
            "offset": 0,
            "slot": "1",
            "type": "t_uint256"
          },
          {
            "astId": 1003,
            "contract": "contracts/BCItems.sol:BCItems",
            "label": "uifID",
            "offset": 0,
            "slot": "2",
            "type": "t_uint256"
          },
          {
            "astId": 1005,
            "contract": "contracts/BCItems.sol:BCItems",
            "label": "holdingPlayerId",
            "offset": 0,
            "slot": "3",
            "type": "t_uint256"
          },
          {
            "astId": 1007,
            "contract": "contracts/BCItems.sol:BCItems",
            "label": "weight",
            "offset": 0,
            "slot": "4",
            "type": "t_uint256"
          },
          {
            "astId": 1009,
            "contract": "contracts/BCItems.sol:BCItems",
            "label": "traitModID",
            "offset": 0,
            "slot": "5",
            "type": "t_uint256"
          },
          {
            "astId": 1012,
            "contract": "contracts/BCItems.sol:BCItems",
            "label": "itemCategory",
            "offset": 0,
            "slot": "6",
            "type": "t_enum(ItemCategory)992"
          },
          {
            "astId": 1014,
            "contract": "contracts/BCItems.sol:BCItems",
            "label": "grantsAbility",
            "offset": 1,
            "slot": "6",
            "type": "t_uint8"
          },
          {
            "astId": 1016,
            "contract": "contracts/BCItems.sol:BCItems",
            "label": "grantsFlaw",
            "offset": 2,
            "slot": "6",
            "type": "t_uint8"
          },
          {
            "astId": 1019,
            "contract": "contracts/BCItems.sol:BCItems",
            "label": "itemType",
            "offset": 3,
            "slot": "6",
            "type": "t_enum(ItemType)997"
          },
          {
            "astId": 1021,
            "contract": "contracts/BCItems.sol:BCItems",
            "label": "power",
            "offset": 4,
            "slot": "6",
            "type": "t_uint8"
          },
          {
            "astId": 1023,
            "contract": "contracts/BCItems.sol:BCItems",
            "label": "inGame",
            "offset": 5,
            "slot": "6",
            "type": "t_bool"
          }
        ],
        "numberOfBytes": "224"
      },
      "t_struct(Traits)968_storage": {
        "encoding": "inplace",
        "label": "struct BCTypes.Traits",
        "members": [
          {
            "astId": 955,
            "contract": "contracts/BCItems.sol:BCItems",
            "label": "health",
            "offset": 0,
            "slot": "0",
            "type": "t_uint8"
          },
          {
            "astId": 957,
            "contract": "contracts/BCItems.sol:BCItems",
            "label": "carry",
            "offset": 1,
            "slot": "0",
            "type": "t_uint8"
          },
          {
            "astId": 959,
            "contract": "contracts/BCItems.sol:BCItems",
            "label": "defense",
            "offset": 2,
            "slot": "0",
            "type": "t_uint8"
          },
          {
            "astId": 961,
            "contract": "contracts/BCItems.sol:BCItems",
            "label": "hack",
            "offset": 3,
            "slot": "0",
            "type": "t_uint8"
          },
          {
            "astId": 963,
            "contract": "contracts/BCItems.sol:BCItems",
            "label": "breach",
            "offset": 4,
            "slot": "0",
            "type": "t_uint8"
          },
          {
            "astId": 965,
            "contract": "contracts/BCItems.sol:BCItems",
            "label": "shoot",
            "offset": 5,
            "slot": "0",
            "type": "t_uint8"
          },
          {
            "astId": 967,
            "contract": "contracts/BCItems.sol:BCItems",
            "label": "melee",
            "offset": 6,
            "slot": "0",
            "type": "t_uint8"
          }
        ],
        "numberOfBytes": "32"
      },
      "t_uint256": {
        "encoding": "inplace",
        "label": "uint256",
        "numberOfBytes": "32"
      },
      "t_uint8": {
        "encoding": "inplace",
        "label": "uint8",
        "numberOfBytes": "1"
      }
    }
  }
}