{
  "address": "0x11d7A39A449c3557c0A3dF1256d77322fef510f5",
  "abi": [
    {
      "inputs": [],
      "stateMutability": "nonpayable",
      "type": "constructor"
    },
    {
      "anonymous": false,
      "inputs": [
        {
          "indexed": false,
          "internalType": "uint256",
          "name": "gameId",
          "type": "uint256"
        },
        {
          "indexed": false,
          "internalType": "uint256",
          "name": "roll",
          "type": "uint256"
        },
        {
          "indexed": false,
          "internalType": "uint256",
          "name": "forValue",
          "type": "uint256"
        },
        {
          "indexed": false,
          "internalType": "uint256",
          "name": "against",
          "type": "uint256"
        }
      ],
      "name": "ChallengeEvent",
      "type": "event"
    },
    {
      "anonymous": false,
      "inputs": [
        {
          "indexed": false,
          "internalType": "uint256",
          "name": "gameId",
          "type": "uint256"
        },
        {
          "indexed": false,
          "internalType": "uint256",
          "name": "roll",
          "type": "uint256"
        }
      ],
      "name": "DiceRollEvent",
      "type": "event"
    },
    {
      "anonymous": false,
      "inputs": [
        {
          "indexed": true,
          "internalType": "address",
          "name": "previousOwner",
          "type": "address"
        },
        {
          "indexed": true,
          "internalType": "address",
          "name": "newOwner",
          "type": "address"
        }
      ],
      "name": "OwnershipTransferred",
      "type": "event"
    },
    {
      "anonymous": false,
      "inputs": [],
      "name": "Received",
      "type": "event"
    },
    {
      "inputs": [
        {
          "internalType": "uint256",
          "name": "_matic",
          "type": "uint256"
        }
      ],
      "name": "SetMintCostInMatic",
      "outputs": [],
      "stateMutability": "nonpayable",
      "type": "function"
    },
    {
      "inputs": [
        {
          "internalType": "int256",
          "name": "x",
          "type": "int256"
        }
      ],
      "name": "abs",
      "outputs": [
        {
          "internalType": "int256",
          "name": "",
          "type": "int256"
        }
      ],
      "stateMutability": "pure",
      "type": "function"
    },
    {
      "inputs": [],
      "name": "actionsContract",
      "outputs": [
        {
          "internalType": "address",
          "name": "",
          "type": "address"
        }
      ],
      "stateMutability": "view",
      "type": "function"
    },
    {
      "inputs": [
        {
          "internalType": "uint256",
          "name": "_gameId",
          "type": "uint256"
        },
        {
          "internalType": "uint256[]",
          "name": "_playerIds",
          "type": "uint256[]"
        }
      ],
      "name": "addItemsToGame",
      "outputs": [],
      "stateMutability": "nonpayable",
      "type": "function"
    },
    {
      "inputs": [
        {
          "internalType": "uint256",
          "name": "_playerId",
          "type": "uint256"
        },
        {
          "internalType": "uint256[]",
          "name": "_itemIds",
          "type": "uint256[]"
        },
        {
          "internalType": "address",
          "name": "_owner",
          "type": "address"
        }
      ],
      "name": "addItemsToPlayer",
      "outputs": [],
      "stateMutability": "nonpayable",
      "type": "function"
    },
    {
      "inputs": [],
      "name": "commitItemToMission",
      "outputs": [],
      "stateMutability": "nonpayable",
      "type": "function"
    },
    {
      "inputs": [
        {
          "internalType": "uint256",
          "name": "_playerId",
          "type": "uint256"
        },
        {
          "internalType": "uint256",
          "name": "_itemId",
          "type": "uint256"
        }
      ],
      "name": "destroyItem",
      "outputs": [],
      "stateMutability": "nonpayable",
      "type": "function"
    },
    {
      "inputs": [
        {
          "internalType": "uint256",
          "name": "_gameId",
          "type": "uint256"
        },
        {
          "internalType": "uint256",
          "name": "_playerId",
          "type": "uint256"
        },
        {
          "internalType": "uint256",
          "name": "_row",
          "type": "uint256"
        },
        {
          "internalType": "uint256",
          "name": "_col",
          "type": "uint256"
        }
      ],
      "name": "dropAllItems",
      "outputs": [],
      "stateMutability": "nonpayable",
      "type": "function"
    },
    {
      "inputs": [],
      "name": "games",
      "outputs": [
        {
          "internalType": "contract GameInterface",
          "name": "",
          "type": "address"
        }
      ],
      "stateMutability": "view",
      "type": "function"
    },
    {
      "inputs": [],
      "name": "gamesContract",
      "outputs": [
        {
          "internalType": "address",
          "name": "",
          "type": "address"
        }
      ],
      "stateMutability": "view",
      "type": "function"
    },
    {
      "inputs": [
        {
          "components": [
            {
              "internalType": "uint8",
              "name": "row",
              "type": "uint8"
            },
            {
              "internalType": "uint8",
              "name": "col",
              "type": "uint8"
            }
          ],
          "internalType": "struct BCTypes.Position",
          "name": "_firstRoom",
          "type": "tuple"
        },
        {
          "components": [
            {
              "internalType": "uint8",
              "name": "row",
              "type": "uint8"
            },
            {
              "internalType": "uint8",
              "name": "col",
              "type": "uint8"
            }
          ],
          "internalType": "struct BCTypes.Position",
          "name": "_secondRoom",
          "type": "tuple"
        }
      ],
      "name": "getDirectionBetween",
      "outputs": [
        {
          "internalType": "uint256",
          "name": "",
          "type": "uint256"
        }
      ],
      "stateMutability": "pure",
      "type": "function"
    },
    {
      "inputs": [
        {
          "internalType": "uint256",
          "name": "_playerID",
          "type": "uint256"
        }
      ],
      "name": "getItemIDsByPlayer",
      "outputs": [
        {
          "internalType": "uint256[]",
          "name": "",
          "type": "uint256[]"
        }
      ],
      "stateMutability": "view",
      "type": "function"
    },
    {
      "inputs": [
        {
          "internalType": "uint256",
          "name": "_playerID",
          "type": "uint256"
        }
      ],
      "name": "getItemsByPlayer",
      "outputs": [
        {
          "components": [
            {
              "internalType": "bytes32",
              "name": "genHash",
              "type": "bytes32"
            },
            {
              "internalType": "uint256",
              "name": "id",
              "type": "uint256"
            },
            {
              "internalType": "uint256",
              "name": "uifID",
              "type": "uint256"
            },
            {
              "internalType": "uint256",
              "name": "holdingPlayerId",
              "type": "uint256"
            },
            {
              "internalType": "address",
              "name": "ownerAddress",
              "type": "address"
            },
            {
              "internalType": "uint256",
              "name": "weight",
              "type": "uint256"
            },
            {
              "internalType": "enum BCTypes.ItemCategory",
              "name": "itemCategory",
              "type": "uint8"
            },
            {
              "internalType": "uint8",
              "name": "grantsAbility",
              "type": "uint8"
            },
            {
              "internalType": "uint8",
              "name": "grantsFlaw",
              "type": "uint8"
            },
            {
              "internalType": "enum BCTypes.ItemType",
              "name": "itemType",
              "type": "uint8"
            },
            {
              "internalType": "uint8",
              "name": "power",
              "type": "uint8"
            },
            {
              "internalType": "uint256",
              "name": "currentGame",
              "type": "uint256"
            },
            {
              "internalType": "enum BCTypes.WorldItemStatus",
              "name": "status",
              "type": "uint8"
            },
            {
              "components": [
                {
                  "internalType": "uint8",
                  "name": "row",
                  "type": "uint8"
                },
                {
                  "internalType": "uint8",
                  "name": "col",
                  "type": "uint8"
                }
              ],
              "internalType": "struct BCTypes.Position",
              "name": "position",
              "type": "tuple"
            }
          ],
          "internalType": "struct BCTypes.Item[]",
          "name": "",
          "type": "tuple[]"
        }
      ],
      "stateMutability": "view",
      "type": "function"
    },
    {
      "inputs": [
        {
          "internalType": "uint256",
          "name": "_gameId",
          "type": "uint256"
        }
      ],
      "name": "getItemsIdsInGame",
      "outputs": [
        {
          "internalType": "uint256[]",
          "name": "",
          "type": "uint256[]"
        }
      ],
      "stateMutability": "view",
      "type": "function"
    },
    {
      "inputs": [
        {
          "internalType": "uint256",
          "name": "_direction",
          "type": "uint256"
        },
        {
          "components": [
            {
              "internalType": "uint8",
              "name": "row",
              "type": "uint8"
            },
            {
              "internalType": "uint8",
              "name": "col",
              "type": "uint8"
            }
          ],
          "internalType": "struct BCTypes.Position",
          "name": "_start",
          "type": "tuple"
        }
      ],
      "name": "getNeighborRoom",
      "outputs": [
        {
          "components": [
            {
              "internalType": "uint8",
              "name": "row",
              "type": "uint8"
            },
            {
              "internalType": "uint8",
              "name": "col",
              "type": "uint8"
            }
          ],
          "internalType": "struct BCTypes.Position",
          "name": "",
          "type": "tuple"
        }
      ],
      "stateMutability": "pure",
      "type": "function"
    },
    {
      "inputs": [
        {
          "internalType": "address",
          "name": "_address",
          "type": "address"
        }
      ],
      "name": "getOwnedItemIds",
      "outputs": [
        {
          "internalType": "uint256[]",
          "name": "",
          "type": "uint256[]"
        }
      ],
      "stateMutability": "view",
      "type": "function"
    },
    {
      "inputs": [
        {
          "internalType": "uint256",
          "name": "_playerId",
          "type": "uint256"
        }
      ],
      "name": "getTraitModifiers",
      "outputs": [
        {
          "components": [
            {
              "internalType": "int8",
              "name": "health",
              "type": "int8"
            },
            {
              "internalType": "int8",
              "name": "carry",
              "type": "int8"
            },
            {
              "internalType": "int8",
              "name": "defense",
              "type": "int8"
            },
            {
              "internalType": "int8",
              "name": "hack",
              "type": "int8"
            },
            {
              "internalType": "int8",
              "name": "breach",
              "type": "int8"
            },
            {
              "internalType": "int8",
              "name": "shoot",
              "type": "int8"
            },
            {
              "internalType": "int8",
              "name": "melee",
              "type": "int8"
            }
          ],
          "internalType": "struct BCTypes.Traits",
          "name": "",
          "type": "tuple"
        }
      ],
      "stateMutability": "view",
      "type": "function"
    },
    {
      "inputs": [
        {
          "internalType": "uint256",
          "name": "_traitNum",
          "type": "uint256"
        },
        {
          "internalType": "uint256",
          "name": "_subTraitNum",
          "type": "uint256"
        }
      ],
      "name": "getUIOffset",
      "outputs": [
        {
          "internalType": "uint256",
          "name": "",
          "type": "uint256"
        }
      ],
      "stateMutability": "pure",
      "type": "function"
    },
    {
      "inputs": [
        {
          "internalType": "uint256",
          "name": "_gameId",
          "type": "uint256"
        }
      ],
      "name": "getWorldItemIds",
      "outputs": [
        {
          "internalType": "uint256[]",
          "name": "",
          "type": "uint256[]"
        }
      ],
      "stateMutability": "view",
      "type": "function"
    },
    {
      "inputs": [
        {
          "internalType": "uint256",
          "name": "_gameId",
          "type": "uint256"
        }
      ],
      "name": "getWorldItems",
      "outputs": [
        {
          "components": [
            {
              "internalType": "bytes32",
              "name": "genHash",
              "type": "bytes32"
            },
            {
              "internalType": "uint256",
              "name": "id",
              "type": "uint256"
            },
            {
              "internalType": "uint256",
              "name": "uifID",
              "type": "uint256"
            },
            {
              "internalType": "uint256",
              "name": "holdingPlayerId",
              "type": "uint256"
            },
            {
              "internalType": "address",
              "name": "ownerAddress",
              "type": "address"
            },
            {
              "internalType": "uint256",
              "name": "weight",
              "type": "uint256"
            },
            {
              "internalType": "enum BCTypes.ItemCategory",
              "name": "itemCategory",
              "type": "uint8"
            },
            {
              "internalType": "uint8",
              "name": "grantsAbility",
              "type": "uint8"
            },
            {
              "internalType": "uint8",
              "name": "grantsFlaw",
              "type": "uint8"
            },
            {
              "internalType": "enum BCTypes.ItemType",
              "name": "itemType",
              "type": "uint8"
            },
            {
              "internalType": "uint8",
              "name": "power",
              "type": "uint8"
            },
            {
              "internalType": "uint256",
              "name": "currentGame",
              "type": "uint256"
            },
            {
              "internalType": "enum BCTypes.WorldItemStatus",
              "name": "status",
              "type": "uint8"
            },
            {
              "components": [
                {
                  "internalType": "uint8",
                  "name": "row",
                  "type": "uint8"
                },
                {
                  "internalType": "uint8",
                  "name": "col",
                  "type": "uint8"
                }
              ],
              "internalType": "struct BCTypes.Position",
              "name": "position",
              "type": "tuple"
            }
          ],
          "internalType": "struct BCTypes.Item[]",
          "name": "",
          "type": "tuple[]"
        }
      ],
      "stateMutability": "view",
      "type": "function"
    },
    {
      "inputs": [
        {
          "internalType": "uint256",
          "name": "",
          "type": "uint256"
        }
      ],
      "name": "items",
      "outputs": [
        {
          "internalType": "bytes32",
          "name": "genHash",
          "type": "bytes32"
        },
        {
          "internalType": "uint256",
          "name": "id",
          "type": "uint256"
        },
        {
          "internalType": "uint256",
          "name": "uifID",
          "type": "uint256"
        },
        {
          "internalType": "uint256",
          "name": "holdingPlayerId",
          "type": "uint256"
        },
        {
          "internalType": "address",
          "name": "ownerAddress",
          "type": "address"
        },
        {
          "internalType": "uint256",
          "name": "weight",
          "type": "uint256"
        },
        {
          "internalType": "enum BCTypes.ItemCategory",
          "name": "itemCategory",
          "type": "uint8"
        },
        {
          "internalType": "uint8",
          "name": "grantsAbility",
          "type": "uint8"
        },
        {
          "internalType": "uint8",
          "name": "grantsFlaw",
          "type": "uint8"
        },
        {
          "internalType": "enum BCTypes.ItemType",
          "name": "itemType",
          "type": "uint8"
        },
        {
          "internalType": "uint8",
          "name": "power",
          "type": "uint8"
        },
        {
          "internalType": "uint256",
          "name": "currentGame",
          "type": "uint256"
        },
        {
          "internalType": "enum BCTypes.WorldItemStatus",
          "name": "status",
          "type": "uint8"
        },
        {
          "components": [
            {
              "internalType": "uint8",
              "name": "row",
              "type": "uint8"
            },
            {
              "internalType": "uint8",
              "name": "col",
              "type": "uint8"
            }
          ],
          "internalType": "struct BCTypes.Position",
          "name": "position",
          "type": "tuple"
        }
      ],
      "stateMutability": "view",
      "type": "function"
    },
    {
      "inputs": [],
      "name": "lobbies",
      "outputs": [
        {
          "internalType": "contract LobbyInterface",
          "name": "",
          "type": "address"
        }
      ],
      "stateMutability": "view",
      "type": "function"
    },
    {
      "inputs": [
        {
          "internalType": "uint256",
          "name": "_holdingPlayerId",
          "type": "uint256"
        },
        {
          "internalType": "address",
          "name": "_holderAddress",
          "type": "address"
        },
        {
          "internalType": "uint256",
          "name": "_gameId",
          "type": "uint256"
        }
      ],
      "name": "lootItem",
      "outputs": [],
      "stateMutability": "payable",
      "type": "function"
    },
    {
      "inputs": [],
      "name": "mintCost",
      "outputs": [
        {
          "internalType": "uint256",
          "name": "",
          "type": "uint256"
        }
      ],
      "stateMutability": "view",
      "type": "function"
    },
    {
      "inputs": [],
      "name": "mintIsActive",
      "outputs": [
        {
          "internalType": "bool",
          "name": "",
          "type": "bool"
        }
      ],
      "stateMutability": "view",
      "type": "function"
    },
    {
      "inputs": [
        {
          "internalType": "uint256",
          "name": "_min",
          "type": "uint256"
        },
        {
          "internalType": "uint256",
          "name": "_max",
          "type": "uint256"
        },
        {
          "internalType": "uint256",
          "name": "_val",
          "type": "uint256"
        },
        {
          "internalType": "uint256",
          "name": "_valMax",
          "type": "uint256"
        }
      ],
      "name": "normalizeToSmallRange",
      "outputs": [
        {
          "internalType": "uint8",
          "name": "",
          "type": "uint8"
        }
      ],
      "stateMutability": "pure",
      "type": "function"
    },
    {
      "inputs": [
        {
          "internalType": "address",
          "name": "_operator",
          "type": "address"
        },
        {
          "internalType": "address",
          "name": "_from",
          "type": "address"
        },
        {
          "internalType": "uint256",
          "name": "_tokenId",
          "type": "uint256"
        },
        {
          "internalType": "bytes",
          "name": "_data",
          "type": "bytes"
        }
      ],
      "name": "onERC721Received",
      "outputs": [
        {
          "internalType": "bytes4",
          "name": "",
          "type": "bytes4"
        }
      ],
      "stateMutability": "nonpayable",
      "type": "function"
    },
    {
      "inputs": [
        {
          "internalType": "uint256",
          "name": "_direction",
          "type": "uint256"
        }
      ],
      "name": "opposite",
      "outputs": [
        {
          "internalType": "uint256",
          "name": "",
          "type": "uint256"
        }
      ],
      "stateMutability": "pure",
      "type": "function"
    },
    {
      "inputs": [],
      "name": "owner",
      "outputs": [
        {
          "internalType": "address",
          "name": "",
          "type": "address"
        }
      ],
      "stateMutability": "view",
      "type": "function"
    },
    {
      "inputs": [
        {
          "internalType": "uint256",
          "name": "_playerId",
          "type": "uint256"
        },
        {
          "internalType": "uint256[]",
          "name": "_itemIds",
          "type": "uint256[]"
        },
        {
          "internalType": "address",
          "name": "_newOwnerAddress",
          "type": "address"
        }
      ],
      "name": "pickupWorldItems",
      "outputs": [],
      "stateMutability": "nonpayable",
      "type": "function"
    },
    {
      "inputs": [],
      "name": "playersContract",
      "outputs": [
        {
          "internalType": "contract PlayersContract",
          "name": "",
          "type": "address"
        }
      ],
      "stateMutability": "view",
      "type": "function"
    },
    {
      "inputs": [],
      "name": "randKeccak",
      "outputs": [
        {
          "internalType": "bytes32",
          "name": "",
          "type": "bytes32"
        }
      ],
      "stateMutability": "nonpayable",
      "type": "function"
    },
    {
      "inputs": [],
      "name": "renounceOwnership",
      "outputs": [],
      "stateMutability": "nonpayable",
      "type": "function"
    },
    {
      "inputs": [
        {
          "internalType": "uint256",
          "name": "_gameId",
          "type": "uint256"
        },
        {
          "internalType": "uint256",
          "name": "_for",
          "type": "uint256"
        },
        {
          "internalType": "uint256",
          "name": "_against",
          "type": "uint256"
        }
      ],
      "name": "resolveChallenge",
      "outputs": [
        {
          "internalType": "bool",
          "name": "",
          "type": "bool"
        }
      ],
      "stateMutability": "nonpayable",
      "type": "function"
    },
    {
      "inputs": [
        {
          "internalType": "uint256",
          "name": "_gameId",
          "type": "uint256"
        }
      ],
      "name": "roll",
      "outputs": [
        {
          "internalType": "uint256",
          "name": "",
          "type": "uint256"
        }
      ],
      "stateMutability": "nonpayable",
      "type": "function"
    },
    {
      "inputs": [
        {
          "internalType": "address",
          "name": "_lobbyContractAddress",
          "type": "address"
        },
        {
          "internalType": "address",
          "name": "_gameContract",
          "type": "address"
        },
        {
          "internalType": "address",
          "name": "_UIFAddress",
          "type": "address"
        },
        {
          "internalType": "address",
          "name": "_actionsContract",
          "type": "address"
        },
        {
          "internalType": "address",
          "name": "_playersContract",
          "type": "address"
        }
      ],
      "name": "setContractAddresses",
      "outputs": [],
      "stateMutability": "nonpayable",
      "type": "function"
    },
    {
      "inputs": [
        {
          "internalType": "bool",
          "name": "_status",
          "type": "bool"
        }
      ],
      "name": "setMintingStatus",
      "outputs": [],
      "stateMutability": "nonpayable",
      "type": "function"
    },
    {
      "inputs": [
        {
          "internalType": "bytes32",
          "name": "_hash",
          "type": "bytes32"
        },
        {
          "internalType": "uint256",
          "name": "_size",
          "type": "uint256"
        },
        {
          "internalType": "uint256",
          "name": "_offset",
          "type": "uint256"
        }
      ],
      "name": "sliceHashToSmallInt",
      "outputs": [
        {
          "internalType": "uint8",
          "name": "",
          "type": "uint8"
        }
      ],
      "stateMutability": "pure",
      "type": "function"
    },
    {
      "inputs": [
        {
          "internalType": "uint8",
          "name": "_min",
          "type": "uint8"
        },
        {
          "internalType": "uint8",
          "name": "_max",
          "type": "uint8"
        }
      ],
      "name": "smallIntBetweenVals",
      "outputs": [
        {
          "internalType": "uint8",
          "name": "",
          "type": "uint8"
        }
      ],
      "stateMutability": "nonpayable",
      "type": "function"
    },
    {
      "inputs": [],
      "name": "spawnCompanyItem",
      "outputs": [],
      "stateMutability": "payable",
      "type": "function"
    },
    {
      "inputs": [
        {
          "internalType": "uint256",
          "name": "_gameId",
          "type": "uint256"
        },
        {
          "internalType": "uint256[]",
          "name": "_itemIds",
          "type": "uint256[]"
        },
        {
          "internalType": "uint256",
          "name": "_row",
          "type": "uint256"
        },
        {
          "internalType": "uint256",
          "name": "_col",
          "type": "uint256"
        },
        {
          "internalType": "uint256",
          "name": "_formerOwnerId",
          "type": "uint256"
        }
      ],
      "name": "spawnWorldItems",
      "outputs": [],
      "stateMutability": "nonpayable",
      "type": "function"
    },
    {
      "inputs": [
        {
          "internalType": "uint256",
          "name": "_playerId",
          "type": "uint256"
        },
        {
          "internalType": "uint256",
          "name": "_gameId",
          "type": "uint256"
        }
      ],
      "name": "takeItemsHome",
      "outputs": [],
      "stateMutability": "nonpayable",
      "type": "function"
    },
    {
      "inputs": [],
      "name": "transferFundsOut",
      "outputs": [],
      "stateMutability": "nonpayable",
      "type": "function"
    },
    {
      "inputs": [
        {
          "internalType": "address",
          "name": "newOwner",
          "type": "address"
        }
      ],
      "name": "transferOwnership",
      "outputs": [],
      "stateMutability": "nonpayable",
      "type": "function"
    },
    {
      "inputs": [],
      "name": "uif",
      "outputs": [
        {
          "internalType": "contract UIFInterface",
          "name": "",
          "type": "address"
        }
      ],
      "stateMutability": "view",
      "type": "function"
    }
  ],
  "transactionHash": "0xe32d02e60b8a745a45e5f24ff73f23c0932875be42b0daf0bd9cc1ef3038a176",
  "args": [],
  "numDeployments": 1,
  "solcInputHash": "0e1e83ba9ee77b944b8675384efabcd0",
  "bytecode": "0x60806040526000600190815564174876e8006008556009805460ff191690911790553480156200002e57600080fd5b506200003a3362000040565b62000090565b600080546001600160a01b038381166001600160a01b0319831681178455604051919092169283917f8be0079c531659141344cd1fd0a4f28419497f9722a3daafe3b4186f6b6457e09190a35050565b613c1080620000a06000396000f3fe6080604052600436106102725760003560e01c80635f8726011161014f578063955a015b116100c1578063ce28613f1161007a578063ce28613f146107fd578063e847ae1e1461081d578063ec25c2541461083d578063f135332a1461085d578063f2fde38b1461087d578063fa3993c21461089d57600080fd5b8063955a015b1461072d57806397f34c3f1461074d578063b78e66511461076d578063b918fd681461078d578063bdb4b848146107ad578063bfb231d2146107c357600080fd5b80637420aa36116101135780637420aa361461067657806376c8aa271461069657806377e01eca146106a25780638214f222146106c25780638da5cb5b146106e2578063951fc3fe1461070057600080fd5b80635f872601146105d457806364b0e500146105f457806364db84bf14610621578063705498dc14610641578063715018a61461066157600080fd5b80631f7b4f30116101e8578063471a4294116101ac578063471a42941461048f57806347ef26b1146104b9578063501f97841461054257806353011696146105625780635dc96967146105945780635f09c782146105b457600080fd5b80631f7b4f30146103ed578063249af0b41461040d578063268f1d4d1461042d5780633838aed11461044d5780633841fae11461046257600080fd5b8063150b7a021161023a578063150b7a0214610311578063154fa27a1461034a578063185ae9dc1461036a5780631b5ac4b51461038a5780631e1de205146103b85780631ef2688c146103cd57600080fd5b80630364f88c146102775780630cc0db53146102b45780630fd8e833146102c957806311ff7047146102d1578063129f0903146102f1575b600080fd5b34801561028357600080fd5b50600254610297906001600160a01b031681565b6040516001600160a01b0390911681526020015b60405180910390f35b6102c76102c23660046130c0565b6108bd565b005b6102c76109d5565b3480156102dd57600080fd5b506102c76102ec36600461319e565b610ac1565b3480156102fd57600080fd5b50600754610297906001600160a01b031681565b34801561031d57600080fd5b5061033161032c366004613200565b610dac565b6040516001600160e01b031990911681526020016102ab565b34801561035657600080fd5b50600354610297906001600160a01b031681565b34801561037657600080fd5b50600554610297906001600160a01b031681565b34801561039657600080fd5b506103aa6103a536600461329f565b610de9565b6040519081526020016102ab565b3480156103c457600080fd5b506103aa610e09565b3480156103d957600080fd5b506102c76103e83660046132b8565b610e81565b3480156103f957600080fd5b506103aa61040836600461329f565b61106f565b34801561041957600080fd5b506102c761042836600461334a565b6110cb565b34801561043957600080fd5b506102c76104483660046133a5565b6112ad565b34801561045957600080fd5b506102c7611339565b34801561046e57600080fd5b5061048261047d36600461329f565b61137e565b6040516102ab91906133d7565b34801561049b57600080fd5b506009546104a99060ff1681565b60405190151581526020016102ab565b3480156104c557600080fd5b506104d96104d436600461329f565b611398565b6040516102ab9190600060e0820190508251600081810b84526020850151810b60208501526040850151810b60408501526060850151810b60608501526080850151810b608085015260a0850151810b60a085015260c0850151810b60c0850152505092915050565b34801561054e57600080fd5b506102c761055d36600461329f565b61172f565b34801561056e57600080fd5b5061058261057d3660046133a5565b61174f565b60405160ff90911681526020016102ab565b3480156105a057600080fd5b506104a96105af36600461341b565b61178c565b3480156105c057600080fd5b506102c76105cf366004613447565b611829565b3480156105e057600080fd5b506102c76105ef366004613447565b61191a565b34801561060057600080fd5b5061061461060f36600461329f565b611ab2565b6040516102ab91906134b3565b34801561062d57600080fd5b506103aa61063c366004613447565b611d55565b34801561064d57600080fd5b50600454610297906001600160a01b031681565b34801561066d57600080fd5b506102c7611d6d565b34801561068257600080fd5b506102c76106913660046135cd565b611d7f565b3480156102c757600080fd5b3480156106ae57600080fd5b506104826106bd3660046135ef565b611d9a565b3480156106ce57600080fd5b506103aa6106dd36600461329f565b611dbe565b3480156106ee57600080fd5b506000546001600160a01b0316610297565b34801561070c57600080fd5b5061072061071b36600461367b565b611e38565b6040516102ab91906136a8565b34801561073957600080fd5b50600654610297906001600160a01b031681565b34801561075957600080fd5b5061058261076836600461341b565b611f62565b34801561077957600080fd5b5061061461078836600461329f565b611f8d565b34801561079957600080fd5b506104826107a836600461329f565b6121d3565b3480156107b957600080fd5b506103aa60085481565b3480156107cf57600080fd5b506107e36107de36600461329f565b6122e1565b6040516102ab9e9d9c9b9a999897969594939291906136c6565b34801561080957600080fd5b50610582610818366004613771565b612397565b34801561082957600080fd5b506102c761083836600461379b565b612447565b34801561084957600080fd5b506102c761085836600461380c565b6124b8565b34801561086957600080fd5b5061048261087836600461329f565b6125e1565b34801561088957600080fd5b506102c76108983660046135ef565b6125fb565b3480156108a957600080fd5b506103aa6108b8366004613853565b612671565b600854604080516602830bcb2b21d160cd1b60208201523460278201526a0161031b7b9ba1034b99d160ad1b60478201526052808201939093528151808203909301835260720190526000546001600160a01b0316331480610920575060085434145b81906109485760405162461bcd60e51b815260040161093f91906138a3565b60405180910390fd5b506000546001600160a01b031633148061096c57506003546001600160a01b031633145b8061098157506005546001600160a01b031633145b6109c45760405162461bcd60e51b815260206004820152601460248201527310dbdb9d1c9858dd081b9bdd08185b1b1bddd95960621b604482015260640161093f565b6109cf848484612739565b50505050565b6000546001600160a01b03163314806109ef575060085434145b610a2f5760405162461bcd60e51b8152602060048201526011602482015270125b98dbdc9c9958dd081c185e5b595b9d607a1b604482015260640161093f565b6000546001600160a01b0316331480610a4f575060095460ff1615156001145b610a935760405162461bcd60e51b81526020600482015260156024820152744d696e74696e67206973206e6f742061637469766560581b604482015260640161093f565b6000546001600160a01b0316331480610ab657506003546001600160a01b031633145b610abf57600080fd5b565b6005546001600160a01b0316331480610ae457506007546001600160a01b031633145b610b4a5760405162461bcd60e51b815260206004820152603160248201527f4e6f7420616374696f6e73206f7220706c617965727320636f6e7472616374206044820152702d20737061776e576f726c644974656d7360781b606482015260840161093f565b60075484516000916001600160a01b031690636621a42190600a9088908590610b7557610b756138d6565b602002602001015181548110610b8d57610b8d6138d6565b90600052602060002090600a0201600301546040518263ffffffff1660e01b8152600401610bbd91815260200190565b602060405180830381865afa158015610bda573d6000803e3d6000fd5b505050506040513d601f19601f82011682018060405250810190610bfe91906138ec565b905060005b8551811015610da357600460009054906101000a90046001600160a01b03166001600160a01b03166307084e56600084600a8a8681518110610c4757610c476138d6565b602002602001015181548110610c5f57610c5f6138d6565b600091825260209091206002600a9092020101546040516001600160e01b031960e086901b1681526001600160a01b0393841660048201529290911660248301526044820152606401600060405180830381600087803b158015610cc257600080fd5b505af1158015610cd6573d6000803e3d6000fd5b50505050610cfd83878381518110610cf057610cf06138d6565b6020026020010151612a19565b6000600a878381518110610d1357610d136138d6565b602002602001015181548110610d2b57610d2b6138d6565b6000918252602082206003600a909202019081019190915560088101805491925060029160ff191660018302179055506040805180820190915260ff8781168083529087166020909201829052600992909201805461ffff191690921761010090910217905580610d9b8161391f565b915050610c03565b50505050505050565b6040516000907f544c765b33ca411cce832250371569244f765a17fcd217832be093f0fd5fa45b908290a150630a85bd0160e11b95945050505050565b600080821215610e0157610dfc82613938565b610e03565b815b92915050565b6001805460009182610e1a8361391f565b9190505550600154600143610e2f9190613954565b4033604051602001610e6693929190928352602083019190915260601b6bffffffffffffffffffffffff1916604082015260540190565b60405160208183030381529060405280519060200120905090565b6005546001600160a01b03163314610eeb5760405162461bcd60e51b815260206004820152602760248201527f4e6f7420616374696f6e7320636f6e7472616374202d207069636b7570576f726044820152666c644974656d7360c81b606482015260840161093f565b60005b82811015611068576004546001600160a01b03166307084e56836000600a888887818110610f1e57610f1e6138d6565b9050602002013581548110610f3557610f356138d6565b600091825260209091206002600a9092020101546040516001600160e01b031960e086901b1681526001600160a01b0393841660048201529290911660248301526044820152606401600060405180830381600087803b158015610f9857600080fd5b505af1158015610fac573d6000803e3d6000fd5b50505050610fe2848483818110610fc557610fc56138d6565b6000898152600b6020908152604090912093910201359050612a95565b506000600a858584818110610ff957610ff96138d6565b9050602002013581548110611010576110106138d6565b600091825260208083206003600a9093020191820189905560088201805460ff19166001179055604080518082019091528381520191909152600901805461ffff1916905550806110608161391f565b915050610eee565b5050505050565b60008061107e60016006612397565b60ff1690507ffe34d093a460a16ee5fb374540914d1c734a17502c0c1a87b387c8d6097e1c5183826040516110bd929190918252602082015260400190565b60405180910390a192915050565b6007546001600160a01b031633146111355760405162461bcd60e51b815260206004820152602760248201527f4e6f7420706c617965727320636f6e7472616374202d206164644974656d735460448201526637a83630bcb2b960c91b606482015260840161093f565b60005b82518110156109cf576000838281518110611155576111556138d6565b602002602001015190506000600a8281548110611174576111746138d6565b90600052602060002090600a0201905080600301546000146111d85760405162461bcd60e51b815260206004820181905260248201527f536f6d656f6e6520697320616c726561647920686f6c64696e67207468697321604482015260640161093f565b60048101546001600160a01b038581169116146112435760405162461bcd60e51b815260206004820152602360248201527f4f776e657220666f72206974656d20616e64206368617220646f6e2774206d616044820152620e8c6d60eb1b606482015260840161093f565b600381018690556004810180546001600160a01b03191690556000868152600b602052604090206112749083612a95565b506001600160a01b0384166000908152600d602052604090206112979083612aa1565b50505080806112a59061391f565b915050611138565b6007546001600160a01b031633146113135760405162461bcd60e51b815260206004820152602360248201527f4e6f7420706c617965727320636f6e7472616374202d2064726f70416c6c4974604482015262656d7360e81b606482015260840161093f565b6000838152600b6020526040812061132a90612aad565b90506110688582858588610ac1565b611341612aba565b600080546040516001600160a01b03909116914780156108fc02929091818181858888f1935050505015801561137b573d6000803e3d6000fd5b50565b6000818152600b60205260409020606090610e0390612aad565b6040805160e08082018352600080835260208084018290528385018290526060808501839052608080860184905260a080870185905260c0808801869052898652600b855288862089519788018a52868852948701869052978601859052918501849052840183905283018290529382015290919060005b61141983612b14565b811015611727576000600a61142e8584612b1e565b8154811061143e5761143e6138d6565b60009182526020909120600a909102019050600160068201546301000000900460ff16600a81111561147257611472613469565b036114b4578060060160049054906101000a900460ff1660000b836000015160000b12156114af576006810154600160201b900460ff1660000b83525b611714565b600260068201546301000000900460ff16600a8111156114d6576114d6613469565b0361151a578060060160049054906101000a900460ff1660000b836020015160000b12156114af576006810154600160201b900460ff1660000b6020840152611714565b600360068201546301000000900460ff16600a81111561153c5761153c613469565b03611580578060060160049054906101000a900460ff1660000b836040015160000b12156114af576006810154600160201b900460ff1660000b6040840152611714565b600460068201546301000000900460ff16600a8111156115a2576115a2613469565b036115e6578060060160049054906101000a900460ff1660000b836060015160000b12156114af576006810154600160201b900460ff1660000b6060840152611714565b600560068201546301000000900460ff16600a81111561160857611608613469565b0361164c578060060160049054906101000a900460ff1660000b836080015160000b12156114af576006810154600160201b900460ff1660000b6080840152611714565b600860068201546301000000900460ff16600a81111561166e5761166e613469565b036116b2578060060160049054906101000a900460ff1660000b8360a0015160000b12156114af576006810154600160201b900460ff1660000b60a0840152611714565b600960068201546301000000900460ff16600a8111156116d4576116d4613469565b03611714578060060160049054906101000a900460ff1660000b8360c0015160000b1215611714576006810154600160201b900460ff1660000b60c08401525b508061171f8161391f565b915050611410565b509392505050565b611737612aba565b61174981670de0b6b3a7640000613967565b60085550565b60008061175c8686613954565b905060008361176b8684613967565b6117759190613994565b905061178187826139a8565b979650505050505050565b6000806117988561106f565b6040805187815260208101839052908101869052606081018590529091507f75b6a8325595f91135e07382840634226793c68c9e59623da7e10d7ad3d95b959060800160405180910390a1806001036117f5576000915050611822565b60038361180286846139a8565b61180c91906139bb565b131561181c576001915050611822565b60009150505b9392505050565b6003546001600160a01b031633146118775760405162461bcd60e51b8152602060048201526011602482015270139bdd0819d85b594818dbdb9d1c9858dd607a1b604482015260640161093f565b6000600a828154811061188c5761188c6138d6565b90600052602060002090600a020190506118a68383612a19565b6118b4816007015483612b2a565b600060038201819055600782015560048054604051630852cd8d60e31b81529182018490526001600160a01b0316906342966c6890602401600060405180830381600087803b15801561190657600080fd5b505af1158015610da3573d6000803e3d6000fd5b6006546001600160a01b031633146119695760405162461bcd60e51b8152602060048201526012602482015271139bdd0819d85b595cc818dbdb9d1c9858dd60721b604482015260640161093f565b6000828152600b60205260408082206007549151636621a42160e01b8152600481018690529092916001600160a01b031690636621a42190602401602060405180830381865afa1580156119c1573d6000803e3d6000fd5b505050506040513d601f19601f820116820180604052508101906119e591906138ec565b905060005b6119f383612b14565b811015611068576000611a068483612b1e565b90506000600a8281548110611a1d57611a1d6138d6565b600091825260208083206003600a9390930201918201839055600480830180546001600160a01b038a166001600160a01b031990911681179091556007840185905560088401805460ff19169092179091558352600d90526040909120909150611a879083612a95565b50611a928583612aa1565b50611a9d8683612b2a565b50508080611aaa9061391f565b9150506119ea565b60606000611abf83612ba6565b90506000808267ffffffffffffffff811115611add57611add6130f8565b604051908082528060200260200182016040528015611b1657816020015b611b0361302a565b815260200190600190039081611afb5790505b506000868152600c60205260408120919250611b3182612b14565b905060005b81811015611d49576002600a611b4c8584612b1e565b81548110611b5c57611b5c6138d6565b600091825260209091206008600a90920201015460ff166004811115611b8457611b84613469565b03611d3757600a611b958483612b1e565b81548110611ba557611ba56138d6565b6000918252602091829020604080516101c081018252600a90930290910180548352600181015493830193909352600280840154918301919091526003830154606083015260048301546001600160a01b03166080830152600583015460a0830152600683015491929160c084019160ff90911690811115611c2957611c29613469565b6002811115611c3a57611c3a613469565b8152600682015460ff61010082048116602084015262010000820481166040840152606090920191630100000090910416600a811115611c7c57611c7c613469565b600a811115611c8d57611c8d613469565b8152600682015460ff600160201b90910481166020830152600783015460408301526008830154606090920191166004811115611ccc57611ccc613469565b6004811115611cdd57611cdd613469565b8152604080518082019091526009929092015460ff80821684526101009091041660208381019190915201528451859087908110611d1d57611d1d6138d6565b60200260200101819052508480611d339061391f565b9550505b80611d418161391f565b915050611b36565b50919695505050505050565b600081611d63846004613967565b61182291906139a8565b611d75612aba565b610abf6000612c42565b611d87612aba565b6009805460ff1916911515919091179055565b6001600160a01b0381166000908152600d60205260409020606090610e0390612aad565b600081600003611dd057506001919050565b81600103611de057506000919050565b81600203611df057506003919050565b81600303611e0057506002919050565b60405162461bcd60e51b815260206004820152600d60248201526c2130b2103234b932b1ba34b7b760991b604482015260640161093f565b604080518082019091526000808252602082015282600003611e8a57604051806040016040528060018460000151611e7091906139db565b60ff168152602001836020015160ff168152509050610e03565b82600103611eae57604051806040016040528083600001516001611e7091906139f4565b82600203611eeb576040518060400160405280836000015160ff16815260200183602001516001611edf91906139f4565b60ff1690529050610e03565b82600303611f1c576040518060400160405280836000015160ff16815260200160018460200151611edf91906139db565b6000611f2784612c92565b604051602001611f379190613a0d565b60405160208183030381529060405290508060405162461bcd60e51b815260040161093f91906138a3565b600080826001611f73866002613b2c565b611f7d9190613954565b901b8516831c9150509392505050565b6000818152600b6020526040812060609190611fa890612b14565b67ffffffffffffffff811115611fc057611fc06130f8565b604051908082528060200260200182016040528015611ff957816020015b611fe661302a565b815260200190600190039081611fde5790505b50905060005b81518110156121cc576000848152600b602052604081206120209083612b1e565b9050600a8181548110612035576120356138d6565b6000918252602091829020604080516101c081018252600a90930290910180548352600181015493830193909352600280840154918301919091526003830154606083015260048301546001600160a01b03166080830152600583015460a0830152600683015491929160c084019160ff909116908111156120b9576120b9613469565b60028111156120ca576120ca613469565b8152600682015460ff61010082048116602084015262010000820481166040840152606090920191630100000090910416600a81111561210c5761210c613469565b600a81111561211d5761211d613469565b8152600682015460ff600160201b9091048116602083015260078301546040830152600883015460609092019116600481111561215c5761215c613469565b600481111561216d5761216d613469565b8152604080518082019091526009929092015460ff808216845261010090910416602083810191909152015283518490849081106121ad576121ad6138d6565b60200260200101819052505080806121c49061391f565b915050611fff565b5092915050565b606060006121e083612ba6565b90506000808267ffffffffffffffff8111156121fe576121fe6130f8565b604051908082528060200260200182016040528015612227578160200160208202803683370190505b506000868152600c6020526040812091925061224282612b14565b905060005b81811015611d49576002600a61225d8584612b1e565b8154811061226d5761226d6138d6565b600091825260209091206008600a90920201015460ff16600481111561229557612295613469565b036122cf576122a48382612b1e565b8486815181106122b6576122b66138d6565b6020908102919091010152846122cb8161391f565b9550505b806122d98161391f565b915050612247565b600a81815481106122f157600080fd5b6000918252602091829020600a90910201805460018201546002830154600384015460048501546005860154600687015460078801546008890154604080518082019091526009909a015460ff8181168c526101009182900481169c8c019c909c52989b509699959894976001600160a01b039094169692958083169594830481169462010000840482169463010000008504831694600160201b90048316939216908e565b60018054600091826123a88361391f565b91905055506000336001546001436123c09190613954565b60405160609390931b6bffffffffffffffffffffffff19166020840152603483019190915240605482015260740160408051601f1981840301815291905280516020909101209050600061241485856139db565b61241f9060016139f4565b90508460ff168160ff16836124349190613b38565b61243e91906139a8565b95945050505050565b61244f612aba565b600280546001600160a01b039687166001600160a01b031991821617909155600380549587169582168617905560068054821690951790945560048054938616938516939093179092556005805491851691841691909117905560078054919093169116179055565b6006546001600160a01b031633146125075760405162461bcd60e51b8152602060048201526012602482015271139bdd0819d85b595cc818dbdb9d1c9858dd60721b604482015260640161093f565b60005b81518110156125dc576000600b600084848151811061252b5761252b6138d6565b60200260200101518152602001908152602001600020905060005b61254f82612b14565b8110156125c75760006125628383612b1e565b905085600a8281548110612578576125786138d6565b90600052602060002090600a0201600701819055506125b281600c6000898152602001908152602001600020612a9590919063ffffffff16565b505080806125bf9061391f565b915050612546565b505080806125d49061391f565b91505061250a565b505050565b6000818152600c60205260409020606090610e0390612aad565b612603612aba565b6001600160a01b0381166126685760405162461bcd60e51b815260206004820152602660248201527f4f776e61626c653a206e6577206f776e657220697320746865207a65726f206160448201526564647265737360d01b606482015260840161093f565b61137b81612c42565b8051825160009161268191613b4c565b60000b60010361269357506000610e03565b815183516126a19190613b4c565b60000b196126b157506001610e03565b816020015183602001516126c59190613b4c565b60000b196126d557506002610e03565b816020015183602001516126e99190613b4c565b60000b6001036126fb57506003610e03565b60405162461bcd60e51b8152602060048201526013602482015272115c9c9bdc8e88139bdd0818591a9858d95b9d606a1b604482015260640161093f565b600480546040516309b6507f60e41b8152808301929092526000602483018190526001600160a01b0385811660448501529092911690639b6507f09064174876e8009060640160206040518083038185885af115801561279d573d6000803e3d6000fd5b50505050506040513d601f19601f820116820180604052508101906127c29190613b6d565b60048054604051632851838160e01b81529182018390529192506000916001600160a01b031690632851838190602401602060405180830381865afa15801561280f573d6000803e3d6000fd5b505050506040513d601f19601f820116820180604052508101906128339190613b6d565b600a80546001818101835560008390529082027fc65a7bb8d6351c1cf70c95a316cc6a92839c986682d98bc35f958f4883f9d2a8018381559154929350909161287c9190613954565b600180830191909155600282018490556003820187905560058201819055600b906128b1908490600490610768906000611d55565b60ff1610156128c15760016128c4565b60025b60068201805460ff191660018360028111156128e2576128e2613469565b021790555060068101805462ffff001916905561291261290a83600461076860006001611d55565b60ff16612d9b565b60068201805463ff0000001916630100000083600a81111561293657612936613469565b0217905550600061294f83600461076860016002611d55565b90506002600683015460ff16600281111561296c5761296c613469565b0361298b57600361297e826002613b86565b6129889190613ba2565b90505b61299d600160048360ff16600f61174f565b60068301805464ff000000001916600160201b60ff8416021790556007830186905560088301805491925060019160ff19168280021790555060018201546000888152600b602052604090206129f291612a95565b5060018201546000868152600c60205260409020612a0f91612a95565b5050505050505050565b6000828152600b60205260409020612a319082612e4a565b612a7d5760405162461bcd60e51b815260206004820152601e60248201527f506c6179657220646f65736e277420686176652074686973206974656d210000604482015260640161093f565b6000828152600b602052604090206125dc9082612aa1565b60006118228383612e62565b60006118228383612eb1565b6060600061182283612fa4565b6000546001600160a01b03163314610abf5760405162461bcd60e51b815260206004820181905260248201527f4f776e61626c653a2063616c6c6572206973206e6f7420746865206f776e6572604482015260640161093f565b6000610e03825490565b60006118228383613000565b6000828152600c60205260409020612b429082612e4a565b612b8e5760405162461bcd60e51b815260206004820152601c60248201527f47616d6520646f65736e277420686176652074686973206974656d2100000000604482015260640161093f565b6000818152600c602052604090206125dc9082612aa1565b6000818152600c60205260408120819081612bc082612b14565b905060005b81811015612c38576002600a612bdb8584612b1e565b81548110612beb57612beb6138d6565b600091825260209091206008600a90920201015460ff166004811115612c1357612c13613469565b03612c265783612c228161391f565b9450505b80612c308161391f565b915050612bc5565b5091949350505050565b600080546001600160a01b038381166001600160a01b0319831681178455604051919092169283917f8be0079c531659141344cd1fd0a4f28419497f9722a3daafe3b4186f6b6457e09190a35050565b606081600003612cb95750506040805180820190915260018152600360fc1b602082015290565b8160005b8115612ce35780612ccd8161391f565b9150612cdc9050600a83613994565b9150612cbd565b60008167ffffffffffffffff811115612cfe57612cfe6130f8565b6040519080825280601f01601f191660200182016040528015612d28576020820181803683370190505b5090505b8415612d9357612d3d600183613954565b9150612d4a600a86613b38565b612d559060306139a8565b60f81b818381518110612d6a57612d6a6138d6565b60200101906001600160f81b031916908160001a905350612d8c600a86613994565b9450612d2c565b949350505050565b600060018211612dad57506000919050565b60028211612dbd57506001919050565b60038211612dcd57506002919050565b60048211612ddd57506003919050565b60058211612ded57506004919050565b60068211612dfd57506005919050565b60088211612e0d57506006919050565b600a8211612e1d57506007919050565b600c8211612e2d57506008919050565b600e8211612e3d57506009919050565b50600a919050565b919050565b60008181526001830160205260408120541515611822565b6000818152600183016020526040812054612ea957508154600181810184556000848152602080822090930184905584548482528286019093526040902091909155610e03565b506000610e03565b60008181526001830160205260408120548015612f9a576000612ed5600183613954565b8554909150600090612ee990600190613954565b9050818114612f4e576000866000018281548110612f0957612f096138d6565b9060005260206000200154905080876000018481548110612f2c57612f2c6138d6565b6000918252602080832090910192909255918252600188019052604090208390555b8554869080612f5f57612f5f613bc4565b600190038181906000526020600020016000905590558560010160008681526020019081526020016000206000905560019350505050610e03565b6000915050610e03565b606081600001805480602002602001604051908101604052809291908181526020018280548015612ff457602002820191906000526020600020905b815481526020019060010190808311612fe0575b50505050509050919050565b6000826000018281548110613017576130176138d6565b9060005260206000200154905092915050565b604080516101c08101825260008082526020808301829052828401829052606083018290526080830182905260a0830182905260c0830182905260e08301829052610100830182905261012083018290526101408301829052610160830182905261018083018290528351808501909452818452830152906101a082015290565b6001600160a01b038116811461137b57600080fd5b6000806000606084860312156130d557600080fd5b8335925060208401356130e7816130ab565b929592945050506040919091013590565b634e487b7160e01b600052604160045260246000fd5b600082601f83011261311f57600080fd5b8135602067ffffffffffffffff8083111561313c5761313c6130f8565b8260051b604051601f19603f83011681018181108482111715613161576131616130f8565b60405293845285810183019383810192508785111561317f57600080fd5b83870191505b8482101561178157813583529183019190830190613185565b600080600080600060a086880312156131b657600080fd5b85359450602086013567ffffffffffffffff8111156131d457600080fd5b6131e08882890161310e565b959895975050505060408401359360608101359360809091013592509050565b60008060008060006080868803121561321857600080fd5b8535613223816130ab565b94506020860135613233816130ab565b935060408601359250606086013567ffffffffffffffff8082111561325757600080fd5b818801915088601f83011261326b57600080fd5b81358181111561327a57600080fd5b89602082850101111561328c57600080fd5b9699959850939650602001949392505050565b6000602082840312156132b157600080fd5b5035919050565b600080600080606085870312156132ce57600080fd5b84359350602085013567ffffffffffffffff808211156132ed57600080fd5b818701915087601f83011261330157600080fd5b81358181111561331057600080fd5b8860208260051b850101111561332557600080fd5b602083019550809450505050604085013561333f816130ab565b939692955090935050565b60008060006060848603121561335f57600080fd5b83359250602084013567ffffffffffffffff81111561337d57600080fd5b6133898682870161310e565b925050604084013561339a816130ab565b809150509250925092565b600080600080608085870312156133bb57600080fd5b5050823594602084013594506040840135936060013592509050565b6020808252825182820181905260009190848201906040850190845b8181101561340f578351835292840192918401916001016133f3565b50909695505050505050565b60008060006060848603121561343057600080fd5b505081359360208301359350604090920135919050565b6000806040838503121561345a57600080fd5b50508035926020909101359150565b634e487b7160e01b600052602160045260246000fd5b6003811061348f5761348f613469565b9052565b600b811061348f5761348f613469565b6005811061348f5761348f613469565b602080825282518282018190526000919060409081850190868401855b828110156135c05781518051855286810151878601528581015186860152606080820151908601526080808201516001600160a01b03169086015260a0808201519086015260c0808201516135278288018261347f565b505060e08181015160ff81168783015250506101008181015160ff81168783015250506101208082015161355d82880182613493565b50506101408181015160ff169086015261016080820151908601526101808082015161358b828801826134a3565b50506101a090810151805160ff9081169287019290925260200151166101c08501526101e090930192908501906001016134d0565b5091979650505050505050565b6000602082840312156135df57600080fd5b8135801515811461182257600080fd5b60006020828403121561360157600080fd5b8135611822816130ab565b803560ff81168114612e4557600080fd5b60006040828403121561362f57600080fd5b6040516040810181811067ffffffffffffffff82111715613652576136526130f8565b6040529050806136618361360c565b815261366f6020840161360c565b60208201525092915050565b6000806060838503121561368e57600080fd5b8235915061369f846020850161361d565b90509250929050565b60408101610e038284805160ff908116835260209182015116910152565b8e8152602081018e9052604081018d9052606081018c90526001600160a01b038b16608082015260a081018a90526101e0810161370660c083018b61347f565b60ff89811660e08401528816610100830152613726610120830188613493565b60ff8616610140830152846101608301526137456101808301856134a3565b825160ff9081166101a08401526020840151166101c08301529f9e505050505050505050505050505050565b6000806040838503121561378457600080fd5b61378d8361360c565b915061369f6020840161360c565b600080600080600060a086880312156137b357600080fd5b85356137be816130ab565b945060208601356137ce816130ab565b935060408601356137de816130ab565b925060608601356137ee816130ab565b915060808601356137fe816130ab565b809150509295509295909350565b6000806040838503121561381f57600080fd5b82359150602083013567ffffffffffffffff81111561383d57600080fd5b6138498582860161310e565b9150509250929050565b6000806080838503121561386657600080fd5b613870848461361d565b915061369f846040850161361d565b60005b8381101561389a578181015183820152602001613882565b50506000910152565b60208152600082518060208401526138c281604085016020870161387f565b601f01601f19169190910160400192915050565b634e487b7160e01b600052603260045260246000fd5b6000602082840312156138fe57600080fd5b8151611822816130ab565b634e487b7160e01b600052601160045260246000fd5b60006001820161393157613931613909565b5060010190565b6000600160ff1b820161394d5761394d613909565b5060000390565b81810381811115610e0357610e03613909565b8082028115828204841417610e0357610e03613909565b634e487b7160e01b600052601260045260246000fd5b6000826139a3576139a361397e565b500490565b80820180821115610e0357610e03613909565b81810360008312801583831316838312821617156121cc576121cc613909565b60ff8281168282160390811115610e0357610e03613909565b60ff8181168382160190811115610e0357610e03613909565b72024b73b30b634b2103234b932b1ba34b7b71d1606d1b815260008251613a3b81601385016020870161387f565b9190910160130192915050565b600181815b80851115613a83578160001904821115613a6957613a69613909565b80851615613a7657918102915b93841c9390800290613a4d565b509250929050565b600082613a9a57506001610e03565b81613aa757506000610e03565b8160018114613abd5760028114613ac757613ae3565b6001915050610e03565b60ff841115613ad857613ad8613909565b50506001821b610e03565b5060208310610133831016604e8410600b8410161715613b06575081810a610e03565b613b108383613a48565b8060001904821115613b2457613b24613909565b029392505050565b60006118228383613a8b565b600082613b4757613b4761397e565b500690565b600082810b9082900b03607f198112607f82131715610e0357610e03613909565b600060208284031215613b7f57600080fd5b5051919050565b60ff81811683821602908116908181146121cc576121cc613909565b600060ff831680613bb557613bb561397e565b8060ff84160491505092915050565b634e487b7160e01b600052603160045260246000fdfea264697066735822122093223e9f4e876cb07dc735ef91bd563c11e1157421e8944de534e618ea11794b64736f6c63430008110033",
  "devdoc": {
    "kind": "dev",
    "methods": {
      "owner()": {
        "details": "Returns the address of the current owner."
      },
      "renounceOwnership()": {
        "details": "Leaves the contract without owner. It will not be possible to call `onlyOwner` functions anymore. Can only be called by the current owner. NOTE: Renouncing ownership will leave the contract without an owner, thereby removing any functionality that is only available to the owner."
      },
      "transferOwnership(address)": {
        "details": "Transfers ownership of the contract to a new account (`newOwner`). Can only be called by the current owner."
      }
    },
    "version": 1
  },
  "userdoc": {
    "kind": "user",
    "methods": {},
    "version": 1
  },
  "storageLayout": {
    "storage": [
      {
        "astId": 7,
        "contract": "contracts/BCItems.sol:BCItems",
        "label": "_owner",
        "offset": 0,
        "slot": "0",
        "type": "t_address"
      },
      {
        "astId": 17101,
        "contract": "contracts/BCItems.sol:BCItems",
        "label": "TODO_randomSeed",
        "offset": 0,
        "slot": "1",
        "type": "t_uint256"
      },
      {
        "astId": 10804,
        "contract": "contracts/BCItems.sol:BCItems",
        "label": "lobbies",
        "offset": 0,
        "slot": "2",
        "type": "t_contract(LobbyInterface)10709"
      },
      {
        "astId": 10806,
        "contract": "contracts/BCItems.sol:BCItems",
        "label": "gamesContract",
        "offset": 0,
        "slot": "3",
        "type": "t_address"
      },
      {
        "astId": 10809,
        "contract": "contracts/BCItems.sol:BCItems",
        "label": "uif",
        "offset": 0,
        "slot": "4",
        "type": "t_contract(UIFInterface)10783"
      },
      {
        "astId": 10811,
        "contract": "contracts/BCItems.sol:BCItems",
        "label": "actionsContract",
        "offset": 0,
        "slot": "5",
        "type": "t_address"
      },
      {
        "astId": 10814,
        "contract": "contracts/BCItems.sol:BCItems",
        "label": "games",
        "offset": 0,
        "slot": "6",
        "type": "t_contract(GameInterface)10728"
      },
      {
        "astId": 10817,
        "contract": "contracts/BCItems.sol:BCItems",
        "label": "playersContract",
        "offset": 0,
        "slot": "7",
        "type": "t_contract(PlayersContract)10791"
      },
      {
        "astId": 10868,
        "contract": "contracts/BCItems.sol:BCItems",
        "label": "mintCost",
        "offset": 0,
        "slot": "8",
        "type": "t_uint256"
      },
      {
        "astId": 10871,
        "contract": "contracts/BCItems.sol:BCItems",
        "label": "mintIsActive",
        "offset": 0,
        "slot": "9",
        "type": "t_bool"
      },
      {
        "astId": 10877,
        "contract": "contracts/BCItems.sol:BCItems",
        "label": "items",
        "offset": 0,
        "slot": "10",
        "type": "t_array(t_struct(Item)17073_storage)dyn_storage"
      },
      {
        "astId": 10882,
        "contract": "contracts/BCItems.sol:BCItems",
        "label": "playerToItems",
        "offset": 0,
        "slot": "11",
        "type": "t_mapping(t_uint256,t_struct(UintSet)2292_storage)"
      },
      {
        "astId": 10887,
        "contract": "contracts/BCItems.sol:BCItems",
        "label": "gameToItems",
        "offset": 0,
        "slot": "12",
        "type": "t_mapping(t_uint256,t_struct(UintSet)2292_storage)"
      },
      {
        "astId": 10892,
        "contract": "contracts/BCItems.sol:BCItems",
        "label": "ownedItems",
        "offset": 0,
        "slot": "13",
        "type": "t_mapping(t_address,t_struct(UintSet)2292_storage)"
      }
    ],
    "types": {
      "t_address": {
        "encoding": "inplace",
        "label": "address",
        "numberOfBytes": "20"
      },
      "t_array(t_bytes32)dyn_storage": {
        "base": "t_bytes32",
        "encoding": "dynamic_array",
        "label": "bytes32[]",
        "numberOfBytes": "32"
      },
      "t_array(t_struct(Item)17073_storage)dyn_storage": {
        "base": "t_struct(Item)17073_storage",
        "encoding": "dynamic_array",
        "label": "struct BCTypes.Item[]",
        "numberOfBytes": "32"
      },
      "t_bool": {
        "encoding": "inplace",
        "label": "bool",
        "numberOfBytes": "1"
      },
      "t_bytes32": {
        "encoding": "inplace",
        "label": "bytes32",
        "numberOfBytes": "32"
      },
      "t_contract(GameInterface)10728": {
        "encoding": "inplace",
        "label": "contract GameInterface",
        "numberOfBytes": "20"
      },
      "t_contract(LobbyInterface)10709": {
        "encoding": "inplace",
        "label": "contract LobbyInterface",
        "numberOfBytes": "20"
      },
      "t_contract(PlayersContract)10791": {
        "encoding": "inplace",
        "label": "contract PlayersContract",
        "numberOfBytes": "20"
      },
      "t_contract(UIFInterface)10783": {
        "encoding": "inplace",
        "label": "contract UIFInterface",
        "numberOfBytes": "20"
      },
      "t_enum(ItemCategory)16832": {
        "encoding": "inplace",
        "label": "enum BCTypes.ItemCategory",
        "numberOfBytes": "1"
      },
      "t_enum(ItemType)16844": {
        "encoding": "inplace",
        "label": "enum BCTypes.ItemType",
        "numberOfBytes": "1"
      },
      "t_enum(WorldItemStatus)16828": {
        "encoding": "inplace",
        "label": "enum BCTypes.WorldItemStatus",
        "numberOfBytes": "1"
      },
      "t_mapping(t_address,t_struct(UintSet)2292_storage)": {
        "encoding": "mapping",
        "key": "t_address",
        "label": "mapping(address => struct EnumerableSet.UintSet)",
        "numberOfBytes": "32",
        "value": "t_struct(UintSet)2292_storage"
      },
      "t_mapping(t_bytes32,t_uint256)": {
        "encoding": "mapping",
        "key": "t_bytes32",
        "label": "mapping(bytes32 => uint256)",
        "numberOfBytes": "32",
        "value": "t_uint256"
      },
      "t_mapping(t_uint256,t_struct(UintSet)2292_storage)": {
        "encoding": "mapping",
        "key": "t_uint256",
        "label": "mapping(uint256 => struct EnumerableSet.UintSet)",
        "numberOfBytes": "32",
        "value": "t_struct(UintSet)2292_storage"
      },
      "t_struct(Item)17073_storage": {
        "encoding": "inplace",
        "label": "struct BCTypes.Item",
        "members": [
          {
            "astId": 17042,
            "contract": "contracts/BCItems.sol:BCItems",
            "label": "genHash",
            "offset": 0,
            "slot": "0",
            "type": "t_bytes32"
          },
          {
            "astId": 17044,
            "contract": "contracts/BCItems.sol:BCItems",
            "label": "id",
            "offset": 0,
            "slot": "1",
            "type": "t_uint256"
          },
          {
            "astId": 17046,
            "contract": "contracts/BCItems.sol:BCItems",
            "label": "uifID",
            "offset": 0,
            "slot": "2",
            "type": "t_uint256"
          },
          {
            "astId": 17048,
            "contract": "contracts/BCItems.sol:BCItems",
            "label": "holdingPlayerId",
            "offset": 0,
            "slot": "3",
            "type": "t_uint256"
          },
          {
            "astId": 17050,
            "contract": "contracts/BCItems.sol:BCItems",
            "label": "ownerAddress",
            "offset": 0,
            "slot": "4",
            "type": "t_address"
          },
          {
            "astId": 17052,
            "contract": "contracts/BCItems.sol:BCItems",
            "label": "weight",
            "offset": 0,
            "slot": "5",
            "type": "t_uint256"
          },
          {
            "astId": 17055,
            "contract": "contracts/BCItems.sol:BCItems",
            "label": "itemCategory",
            "offset": 0,
            "slot": "6",
            "type": "t_enum(ItemCategory)16832"
          },
          {
            "astId": 17057,
            "contract": "contracts/BCItems.sol:BCItems",
            "label": "grantsAbility",
            "offset": 1,
            "slot": "6",
            "type": "t_uint8"
          },
          {
            "astId": 17059,
            "contract": "contracts/BCItems.sol:BCItems",
            "label": "grantsFlaw",
            "offset": 2,
            "slot": "6",
            "type": "t_uint8"
          },
          {
            "astId": 17062,
            "contract": "contracts/BCItems.sol:BCItems",
            "label": "itemType",
            "offset": 3,
            "slot": "6",
            "type": "t_enum(ItemType)16844"
          },
          {
            "astId": 17064,
            "contract": "contracts/BCItems.sol:BCItems",
            "label": "power",
            "offset": 4,
            "slot": "6",
            "type": "t_uint8"
          },
          {
            "astId": 17066,
            "contract": "contracts/BCItems.sol:BCItems",
            "label": "currentGame",
            "offset": 0,
            "slot": "7",
            "type": "t_uint256"
          },
          {
            "astId": 17069,
            "contract": "contracts/BCItems.sol:BCItems",
            "label": "status",
            "offset": 0,
            "slot": "8",
            "type": "t_enum(WorldItemStatus)16828"
          },
          {
            "astId": 17072,
            "contract": "contracts/BCItems.sol:BCItems",
            "label": "position",
            "offset": 0,
            "slot": "9",
            "type": "t_struct(Position)16890_storage"
          }
        ],
        "numberOfBytes": "320"
      },
      "t_struct(Position)16890_storage": {
        "encoding": "inplace",
        "label": "struct BCTypes.Position",
        "members": [
          {
            "astId": 16887,
            "contract": "contracts/BCItems.sol:BCItems",
            "label": "row",
            "offset": 0,
            "slot": "0",
            "type": "t_uint8"
          },
          {
            "astId": 16889,
            "contract": "contracts/BCItems.sol:BCItems",
            "label": "col",
            "offset": 1,
            "slot": "0",
            "type": "t_uint8"
          }
        ],
        "numberOfBytes": "32"
      },
      "t_struct(Set)1834_storage": {
        "encoding": "inplace",
        "label": "struct EnumerableSet.Set",
        "members": [
          {
            "astId": 1829,
            "contract": "contracts/BCItems.sol:BCItems",
            "label": "_values",
            "offset": 0,
            "slot": "0",
            "type": "t_array(t_bytes32)dyn_storage"
          },
          {
            "astId": 1833,
            "contract": "contracts/BCItems.sol:BCItems",
            "label": "_indexes",
            "offset": 0,
            "slot": "1",
            "type": "t_mapping(t_bytes32,t_uint256)"
          }
        ],
        "numberOfBytes": "64"
      },
      "t_struct(UintSet)2292_storage": {
        "encoding": "inplace",
        "label": "struct EnumerableSet.UintSet",
        "members": [
          {
            "astId": 2291,
            "contract": "contracts/BCItems.sol:BCItems",
            "label": "_inner",
            "offset": 0,
            "slot": "0",
            "type": "t_struct(Set)1834_storage"
          }
        ],
        "numberOfBytes": "64"
      },
      "t_uint256": {
        "encoding": "inplace",
        "label": "uint256",
        "numberOfBytes": "32"
      },
      "t_uint8": {
        "encoding": "inplace",
        "label": "uint8",
        "numberOfBytes": "1"
      }
    }
  }
}