{
  "address": "0x9c790C8d4052B1D3c1f9F2b6C055b3b57e770daa",
  "abi": [
    {
      "inputs": [],
      "stateMutability": "nonpayable",
      "type": "constructor"
    },
    {
      "anonymous": false,
      "inputs": [
        {
          "indexed": false,
          "internalType": "uint256",
          "name": "roll",
          "type": "uint256"
        },
        {
          "indexed": false,
          "internalType": "uint256",
          "name": "forValue",
          "type": "uint256"
        },
        {
          "indexed": false,
          "internalType": "uint256",
          "name": "against",
          "type": "uint256"
        }
      ],
      "name": "DiceRollEvent",
      "type": "event"
    },
    {
      "anonymous": false,
      "inputs": [
        {
          "indexed": true,
          "internalType": "address",
          "name": "previousOwner",
          "type": "address"
        },
        {
          "indexed": true,
          "internalType": "address",
          "name": "newOwner",
          "type": "address"
        }
      ],
      "name": "OwnershipTransferred",
      "type": "event"
    },
    {
      "anonymous": false,
      "inputs": [],
      "name": "Received",
      "type": "event"
    },
    {
      "inputs": [
        {
          "internalType": "uint256",
          "name": "_matic",
          "type": "uint256"
        }
      ],
      "name": "SetMintCostInMatic",
      "outputs": [],
      "stateMutability": "nonpayable",
      "type": "function"
    },
    {
      "inputs": [
        {
          "internalType": "int256",
          "name": "x",
          "type": "int256"
        }
      ],
      "name": "abs",
      "outputs": [
        {
          "internalType": "int256",
          "name": "",
          "type": "int256"
        }
      ],
      "stateMutability": "pure",
      "type": "function"
    },
    {
      "inputs": [],
      "name": "actionsContract",
      "outputs": [
        {
          "internalType": "address",
          "name": "",
          "type": "address"
        }
      ],
      "stateMutability": "view",
      "type": "function"
    },
    {
      "inputs": [],
      "name": "allowedContract",
      "outputs": [
        {
          "internalType": "address",
          "name": "",
          "type": "address"
        }
      ],
      "stateMutability": "view",
      "type": "function"
    },
    {
      "inputs": [],
      "name": "commitItemToMission",
      "outputs": [],
      "stateMutability": "nonpayable",
      "type": "function"
    },
    {
      "inputs": [],
      "name": "gamesContract",
      "outputs": [
        {
          "internalType": "address",
          "name": "",
          "type": "address"
        }
      ],
      "stateMutability": "view",
      "type": "function"
    },
    {
      "inputs": [
        {
          "components": [
            {
              "internalType": "uint8",
              "name": "row",
              "type": "uint8"
            },
            {
              "internalType": "uint8",
              "name": "col",
              "type": "uint8"
            }
          ],
          "internalType": "struct BCTypes.Position",
          "name": "_firstRoom",
          "type": "tuple"
        },
        {
          "components": [
            {
              "internalType": "uint8",
              "name": "row",
              "type": "uint8"
            },
            {
              "internalType": "uint8",
              "name": "col",
              "type": "uint8"
            }
          ],
          "internalType": "struct BCTypes.Position",
          "name": "_secondRoom",
          "type": "tuple"
        }
      ],
      "name": "getDirectionBetween",
      "outputs": [
        {
          "internalType": "uint256",
          "name": "",
          "type": "uint256"
        }
      ],
      "stateMutability": "pure",
      "type": "function"
    },
    {
      "inputs": [
        {
          "internalType": "uint256",
          "name": "_playerID",
          "type": "uint256"
        }
      ],
      "name": "getItemsByChar",
      "outputs": [
        {
          "components": [
            {
              "internalType": "bytes32",
              "name": "genHash",
              "type": "bytes32"
            },
            {
              "internalType": "uint256",
              "name": "id",
              "type": "uint256"
            },
            {
              "internalType": "uint256",
              "name": "uifID",
              "type": "uint256"
            },
            {
              "internalType": "uint256",
              "name": "holdingPlayerId",
              "type": "uint256"
            },
            {
              "internalType": "uint256",
              "name": "weight",
              "type": "uint256"
            },
            {
              "internalType": "uint256",
              "name": "traitModID",
              "type": "uint256"
            },
            {
              "internalType": "enum BCTypes.ItemCategory",
              "name": "itemCategory",
              "type": "uint8"
            },
            {
              "internalType": "uint8",
              "name": "grantsAbility",
              "type": "uint8"
            },
            {
              "internalType": "uint8",
              "name": "grantsFlaw",
              "type": "uint8"
            },
            {
              "internalType": "enum BCTypes.ItemType",
              "name": "itemType",
              "type": "uint8"
            },
            {
              "internalType": "uint8",
              "name": "power",
              "type": "uint8"
            },
            {
              "internalType": "bool",
              "name": "inGame",
              "type": "bool"
            }
          ],
          "internalType": "struct BCTypes.Item[]",
          "name": "",
          "type": "tuple[]"
        }
      ],
      "stateMutability": "view",
      "type": "function"
    },
    {
      "inputs": [
        {
          "internalType": "uint256",
          "name": "_direction",
          "type": "uint256"
        },
        {
          "components": [
            {
              "internalType": "uint8",
              "name": "row",
              "type": "uint8"
            },
            {
              "internalType": "uint8",
              "name": "col",
              "type": "uint8"
            }
          ],
          "internalType": "struct BCTypes.Position",
          "name": "_start",
          "type": "tuple"
        }
      ],
      "name": "getNeighborRoom",
      "outputs": [
        {
          "components": [
            {
              "internalType": "uint8",
              "name": "row",
              "type": "uint8"
            },
            {
              "internalType": "uint8",
              "name": "col",
              "type": "uint8"
            }
          ],
          "internalType": "struct BCTypes.Position",
          "name": "",
          "type": "tuple"
        }
      ],
      "stateMutability": "pure",
      "type": "function"
    },
    {
      "inputs": [
        {
          "internalType": "uint256",
          "name": "_traitNum",
          "type": "uint256"
        },
        {
          "internalType": "uint256",
          "name": "_subTraitNum",
          "type": "uint256"
        }
      ],
      "name": "getUIOffset",
      "outputs": [
        {
          "internalType": "uint256",
          "name": "",
          "type": "uint256"
        }
      ],
      "stateMutability": "pure",
      "type": "function"
    },
    {
      "inputs": [
        {
          "internalType": "uint256",
          "name": "",
          "type": "uint256"
        }
      ],
      "name": "items",
      "outputs": [
        {
          "internalType": "bytes32",
          "name": "genHash",
          "type": "bytes32"
        },
        {
          "internalType": "uint256",
          "name": "id",
          "type": "uint256"
        },
        {
          "internalType": "uint256",
          "name": "uifID",
          "type": "uint256"
        },
        {
          "internalType": "uint256",
          "name": "holdingPlayerId",
          "type": "uint256"
        },
        {
          "internalType": "uint256",
          "name": "weight",
          "type": "uint256"
        },
        {
          "internalType": "uint256",
          "name": "traitModID",
          "type": "uint256"
        },
        {
          "internalType": "enum BCTypes.ItemCategory",
          "name": "itemCategory",
          "type": "uint8"
        },
        {
          "internalType": "uint8",
          "name": "grantsAbility",
          "type": "uint8"
        },
        {
          "internalType": "uint8",
          "name": "grantsFlaw",
          "type": "uint8"
        },
        {
          "internalType": "enum BCTypes.ItemType",
          "name": "itemType",
          "type": "uint8"
        },
        {
          "internalType": "uint8",
          "name": "power",
          "type": "uint8"
        },
        {
          "internalType": "bool",
          "name": "inGame",
          "type": "bool"
        }
      ],
      "stateMutability": "view",
      "type": "function"
    },
    {
      "inputs": [],
      "name": "lobbies",
      "outputs": [
        {
          "internalType": "contract LobbyInterface",
          "name": "",
          "type": "address"
        }
      ],
      "stateMutability": "view",
      "type": "function"
    },
    {
      "inputs": [
        {
          "internalType": "uint256",
          "name": "_holdingPlayerId",
          "type": "uint256"
        },
        {
          "internalType": "address",
          "name": "_holderAddress",
          "type": "address"
        }
      ],
      "name": "lootItem",
      "outputs": [],
      "stateMutability": "payable",
      "type": "function"
    },
    {
      "inputs": [],
      "name": "mintCost",
      "outputs": [
        {
          "internalType": "uint256",
          "name": "",
          "type": "uint256"
        }
      ],
      "stateMutability": "view",
      "type": "function"
    },
    {
      "inputs": [],
      "name": "mintIsActive",
      "outputs": [
        {
          "internalType": "bool",
          "name": "",
          "type": "bool"
        }
      ],
      "stateMutability": "view",
      "type": "function"
    },
    {
      "inputs": [
        {
          "internalType": "uint256",
          "name": "_min",
          "type": "uint256"
        },
        {
          "internalType": "uint256",
          "name": "_max",
          "type": "uint256"
        },
        {
          "internalType": "uint256",
          "name": "_val",
          "type": "uint256"
        },
        {
          "internalType": "uint256",
          "name": "_valMax",
          "type": "uint256"
        }
      ],
      "name": "normalizeToSmallRange",
      "outputs": [
        {
          "internalType": "uint8",
          "name": "",
          "type": "uint8"
        }
      ],
      "stateMutability": "pure",
      "type": "function"
    },
    {
      "inputs": [
        {
          "internalType": "address",
          "name": "_operator",
          "type": "address"
        },
        {
          "internalType": "address",
          "name": "_from",
          "type": "address"
        },
        {
          "internalType": "uint256",
          "name": "_tokenId",
          "type": "uint256"
        },
        {
          "internalType": "bytes",
          "name": "_data",
          "type": "bytes"
        }
      ],
      "name": "onERC721Received",
      "outputs": [
        {
          "internalType": "bytes4",
          "name": "",
          "type": "bytes4"
        }
      ],
      "stateMutability": "nonpayable",
      "type": "function"
    },
    {
      "inputs": [
        {
          "internalType": "uint256",
          "name": "_direction",
          "type": "uint256"
        }
      ],
      "name": "opposite",
      "outputs": [
        {
          "internalType": "uint256",
          "name": "",
          "type": "uint256"
        }
      ],
      "stateMutability": "pure",
      "type": "function"
    },
    {
      "inputs": [],
      "name": "owner",
      "outputs": [
        {
          "internalType": "address",
          "name": "",
          "type": "address"
        }
      ],
      "stateMutability": "view",
      "type": "function"
    },
    {
      "inputs": [
        {
          "internalType": "uint256",
          "name": "",
          "type": "uint256"
        },
        {
          "internalType": "uint256",
          "name": "",
          "type": "uint256"
        }
      ],
      "name": "playerToItems",
      "outputs": [
        {
          "internalType": "uint256",
          "name": "",
          "type": "uint256"
        }
      ],
      "stateMutability": "view",
      "type": "function"
    },
    {
      "inputs": [],
      "name": "randKeccak",
      "outputs": [
        {
          "internalType": "bytes32",
          "name": "",
          "type": "bytes32"
        }
      ],
      "stateMutability": "nonpayable",
      "type": "function"
    },
    {
      "inputs": [],
      "name": "renounceOwnership",
      "outputs": [],
      "stateMutability": "nonpayable",
      "type": "function"
    },
    {
      "inputs": [
        {
          "internalType": "uint256",
          "name": "_for",
          "type": "uint256"
        },
        {
          "internalType": "uint256",
          "name": "_against",
          "type": "uint256"
        }
      ],
      "name": "resolveChallenge",
      "outputs": [
        {
          "internalType": "bool",
          "name": "",
          "type": "bool"
        }
      ],
      "stateMutability": "nonpayable",
      "type": "function"
    },
    {
      "inputs": [],
      "name": "roll",
      "outputs": [
        {
          "internalType": "uint256",
          "name": "",
          "type": "uint256"
        }
      ],
      "stateMutability": "nonpayable",
      "type": "function"
    },
    {
      "inputs": [
        {
          "internalType": "address",
          "name": "_lobbyContractAddress",
          "type": "address"
        },
        {
          "internalType": "address",
          "name": "_gameContract",
          "type": "address"
        },
        {
          "internalType": "address",
          "name": "_UIFAddress",
          "type": "address"
        },
        {
          "internalType": "address",
          "name": "_actionsContract",
          "type": "address"
        }
      ],
      "name": "setContractAddresses",
      "outputs": [],
      "stateMutability": "nonpayable",
      "type": "function"
    },
    {
      "inputs": [
        {
          "internalType": "bool",
          "name": "_status",
          "type": "bool"
        }
      ],
      "name": "setMintingStatus",
      "outputs": [],
      "stateMutability": "nonpayable",
      "type": "function"
    },
    {
      "inputs": [
        {
          "internalType": "bytes32",
          "name": "_hash",
          "type": "bytes32"
        },
        {
          "internalType": "uint256",
          "name": "_size",
          "type": "uint256"
        },
        {
          "internalType": "uint256",
          "name": "_offset",
          "type": "uint256"
        }
      ],
      "name": "sliceHashToSmallInt",
      "outputs": [
        {
          "internalType": "uint8",
          "name": "",
          "type": "uint8"
        }
      ],
      "stateMutability": "pure",
      "type": "function"
    },
    {
      "inputs": [
        {
          "internalType": "uint8",
          "name": "_min",
          "type": "uint8"
        },
        {
          "internalType": "uint8",
          "name": "_max",
          "type": "uint8"
        }
      ],
      "name": "smallIntBetweenVals",
      "outputs": [
        {
          "internalType": "uint8",
          "name": "",
          "type": "uint8"
        }
      ],
      "stateMutability": "nonpayable",
      "type": "function"
    },
    {
      "inputs": [],
      "name": "spawnCompanyItem",
      "outputs": [],
      "stateMutability": "payable",
      "type": "function"
    },
    {
      "inputs": [],
      "name": "spawnItem",
      "outputs": [],
      "stateMutability": "payable",
      "type": "function"
    },
    {
      "inputs": [],
      "name": "transferFundsOut",
      "outputs": [],
      "stateMutability": "nonpayable",
      "type": "function"
    },
    {
      "inputs": [
        {
          "internalType": "address",
          "name": "newOwner",
          "type": "address"
        }
      ],
      "name": "transferOwnership",
      "outputs": [],
      "stateMutability": "nonpayable",
      "type": "function"
    },
    {
      "inputs": [],
      "name": "uif",
      "outputs": [
        {
          "internalType": "contract UIFInterface",
          "name": "",
          "type": "address"
        }
      ],
      "stateMutability": "view",
      "type": "function"
    }
  ],
  "transactionHash": "0x7effb65ed8bd67c96558cfa298f0fa2bc2a5705034c7bdf6aacaaf6e3823cbd5",
  "args": [],
  "numDeployments": 1,
  "solcInputHash": "106b24de3a9c6176496e0aea719f22ec",
  "bytecode": "0x60806040526000600155655af3107a40006006556001600760006101000a81548160ff02191690831515021790555060006008553480156200004057600080fd5b5062000061620000556200008460201b60201c565b6200008c60201b60201c565b600b60018160018154018082558091505003906000526020600020505062000150565b600033905090565b60008060009054906101000a900473ffffffffffffffffffffffffffffffffffffffff169050816000806101000a81548173ffffffffffffffffffffffffffffffffffffffff021916908373ffffffffffffffffffffffffffffffffffffffff1602179055508173ffffffffffffffffffffffffffffffffffffffff168173ffffffffffffffffffffffffffffffffffffffff167f8be0079c531659141344cd1fd0a4f28419497f9722a3daafe3b4186f6b6457e060405160405180910390a35050565b61357d80620001606000396000f3fe6080604052600436106101ee5760003560e01c80638214f2221161010d578063bdb4b848116100a0578063d29b9c9b1161006f578063d29b9c9b146106d3578063dff2fb3114610710578063e89d5a891461074d578063f2fde38b14610778578063fa3993c2146107a1576101ee565b8063bdb4b848146105f8578063bfb231d214610623578063cd5e3c5d1461066b578063ce28613f14610696576101ee565b806397f34c3f116100dc57806397f34c3f1461056c578063a20df9fa146105a9578063aa3eb1b5146105b3578063aaa68777146105cf576101ee565b80638214f2221461048a5780638ac031b3146104c75780638da5cb5b14610504578063951fc3fe1461052f576101ee565b8063471a429411610185578063705498dc11610154578063705498dc14610408578063715018a6146104335780637420aa361461044a57806376c8aa2714610473576101ee565b8063471a42941461033a578063501f978414610365578063530116961461038e57806364db84bf146103cb576101ee565b8063185ae9dc116101c1578063185ae9dc146102905780631b5ac4b5146102bb5780631e1de205146102f85780633838aed114610323576101ee565b80630364f88c146101f35780630fd8e8331461021e578063150b7a0214610228578063154fa27a14610265575b600080fd5b3480156101ff57600080fd5b506102086107de565b6040516102159190611e97565b60405180910390f35b610226610804565b005b34801561023457600080fd5b5061024f600480360381019061024a9190611f9f565b6109b1565b60405161025c9190612062565b60405180910390f35b34801561027157600080fd5b5061027a6109f2565b604051610287919061208c565b60405180910390f35b34801561029c57600080fd5b506102a5610a18565b6040516102b2919061208c565b60405180910390f35b3480156102c757600080fd5b506102e260048036038101906102dd91906120dd565b610a3e565b6040516102ef9190612119565b60405180910390f35b34801561030457600080fd5b5061030d610a60565b60405161031a919061214d565b60405180910390f35b34801561032f57600080fd5b50610338610aac565b005b34801561034657600080fd5b5061034f610b04565b60405161035c9190612183565b60405180910390f35b34801561037157600080fd5b5061038c6004803603810190610387919061219e565b610b17565b005b34801561039a57600080fd5b506103b560048036038101906103b091906121cb565b610b3c565b6040516103c2919061224e565b60405180910390f35b3480156103d757600080fd5b506103f260048036038101906103ed9190612269565b610b80565b6040516103ff91906122b8565b60405180910390f35b34801561041457600080fd5b5061041d610ba2565b60405161042a91906122f4565b60405180910390f35b34801561043f57600080fd5b50610448610bc8565b005b34801561045657600080fd5b50610471600480360381019061046c919061233b565b610bdc565b005b34801561047f57600080fd5b50610488610c01565b005b34801561049657600080fd5b506104b160048036038101906104ac919061219e565b610c03565b6040516104be91906122b8565b60405180910390f35b3480156104d357600080fd5b506104ee60048036038101906104e99190612269565b610c8c565b6040516104fb91906122b8565b60405180910390f35b34801561051057600080fd5b50610519610cbd565b604051610526919061208c565b60405180910390f35b34801561053b57600080fd5b5061055660048036038101906105519190612475565b610ce6565b60405161056391906124f3565b60405180910390f35b34801561057857600080fd5b50610593600480360381019061058e919061253a565b610e2b565b6040516105a0919061224e565b60405180910390f35b6105b1610e62565b005b6105cd60048036038101906105c8919061258d565b61101a565b005b3480156105db57600080fd5b506105f660048036038101906105f191906125cd565b611198565b005b34801561060457600080fd5b5061060d6112aa565b60405161061a91906122b8565b60405180910390f35b34801561062f57600080fd5b5061064a6004803603810190610645919061219e565b6112b0565b6040516106629c9b9a999897969594939291906126f3565b60405180910390f35b34801561067757600080fd5b5061068061136e565b60405161068d91906122b8565b60405180910390f35b3480156106a257600080fd5b506106bd60048036038101906106b891906127ad565b611384565b6040516106ca919061224e565b60405180910390f35b3480156106df57600080fd5b506106fa60048036038101906106f5919061219e565b611415565b60405161070791906129de565b60405180910390f35b34801561071c57600080fd5b5061073760048036038101906107329190612269565b611657565b6040516107449190612183565b60405180910390f35b34801561075957600080fd5b506107626116e7565b60405161076f919061208c565b60405180910390f35b34801561078457600080fd5b5061079f600480360381019061079a9190612a00565b61170d565b005b3480156107ad57600080fd5b506107c860048036038101906107c39190612a2d565b611791565b6040516107d591906122b8565b60405180910390f35b600260009054906101000a900473ffffffffffffffffffffffffffffffffffffffff1681565b61080c610cbd565b73ffffffffffffffffffffffffffffffffffffffff163373ffffffffffffffffffffffffffffffffffffffff161480610846575060065434145b610885576040517f08c379a000000000000000000000000000000000000000000000000000000000815260040161087c90612aca565b60405180910390fd5b61088d610cbd565b73ffffffffffffffffffffffffffffffffffffffff163373ffffffffffffffffffffffffffffffffffffffff1614806108d9575060011515600760009054906101000a900460ff161515145b610918576040517f08c379a000000000000000000000000000000000000000000000000000000000815260040161090f90612b36565b60405180910390fd5b610920610cbd565b73ffffffffffffffffffffffffffffffffffffffff163373ffffffffffffffffffffffffffffffffffffffff1614806109a65750600360009054906101000a900473ffffffffffffffffffffffffffffffffffffffff1673ffffffffffffffffffffffffffffffffffffffff163373ffffffffffffffffffffffffffffffffffffffff16145b6109af57600080fd5b565b60007f544c765b33ca411cce832250371569244f765a17fcd217832be093f0fd5fa45b60405160405180910390a163150b7a0260e01b905095945050505050565b600360009054906101000a900473ffffffffffffffffffffffffffffffffffffffff1681565b600560009054906101000a900473ffffffffffffffffffffffffffffffffffffffff1681565b600080821215610a575781610a5290612b85565b610a59565b815b9050919050565b600060016000815480929190610a7590612bce565b91905055506001544233604051602001610a9193929190612c80565b60405160208183030381529060405280519060200120905090565b610ab46118b2565b610abc610cbd565b73ffffffffffffffffffffffffffffffffffffffff166108fc479081150290604051600060405180830381858888f19350505050158015610b01573d6000803e3d6000fd5b50565b600760009054906101000a900460ff1681565b610b1f6118b2565b670de0b6b3a764000081610b339190612cbd565b60068190555050565b6000808585610b4b9190612d17565b90506000838583610b5c9190612cbd565b610b669190612d7a565b90508681610b749190612dab565b92505050949350505050565b600081836004610b909190612cbd565b610b9a9190612dab565b905092915050565b600460009054906101000a900473ffffffffffffffffffffffffffffffffffffffff1681565b610bd06118b2565b610bda6000611930565b565b610be46118b2565b80600760006101000a81548160ff02191690831515021790555050565b565b600080821415610c165760019050610c87565b6001821415610c285760009050610c87565b6002821415610c3a5760039050610c87565b6003821415610c4c5760029050610c87565b6040517f08c379a0000000000000000000000000000000000000000000000000000000008152600401610c7e90612e4d565b60405180910390fd5b919050565b600a6020528160005260406000208181548110610ca857600080fd5b90600052602060002001600091509150505481565b60008060009054906101000a900473ffffffffffffffffffffffffffffffffffffffff16905090565b610cee611d65565b6000831415610d2d57604051806040016040528060018460000151610d139190612e6d565b60ff168152602001836020015160ff168152509050610e25565b6001831415610d6c57604051806040016040528060018460000151610d529190612ea1565b60ff168152602001836020015160ff168152509050610e25565b6002831415610dab576040518060400160405280836000015160ff16815260200160018460200151610d9e9190612ea1565b60ff168152509050610e25565b6003831415610dea576040518060400160405280836000015160ff16815260200160018460200151610ddd9190612e6d565b60ff168152509050610e25565b6040517f08c379a0000000000000000000000000000000000000000000000000000000008152600401610e1c90612f24565b60405180910390fd5b92915050565b600080826001856002610e3e9190613077565b610e489190612d17565b60001b901b905082818616901c60001c9150509392505050565b610e6a610cbd565b73ffffffffffffffffffffffffffffffffffffffff163373ffffffffffffffffffffffffffffffffffffffff161480610ea4575060065434145b610ee3576040517f08c379a0000000000000000000000000000000000000000000000000000000008152600401610eda90612aca565b60405180910390fd5b610eeb610cbd565b73ffffffffffffffffffffffffffffffffffffffff163373ffffffffffffffffffffffffffffffffffffffff161480610f37575060011515600760009054906101000a900460ff161515145b610f76576040517f08c379a0000000000000000000000000000000000000000000000000000000008152600401610f6d90612b36565b60405180910390fd5b610f7e610cbd565b73ffffffffffffffffffffffffffffffffffffffff163373ffffffffffffffffffffffffffffffffffffffff1614806110045750600360009054906101000a900473ffffffffffffffffffffffffffffffffffffffff1673ffffffffffffffffffffffffffffffffffffffff163373ffffffffffffffffffffffffffffffffffffffff16145b61100d57600080fd5b6110186000336119f4565b565b611022610cbd565b73ffffffffffffffffffffffffffffffffffffffff163373ffffffffffffffffffffffffffffffffffffffff16148061105c575060065434145b61109b576040517f08c379a000000000000000000000000000000000000000000000000000000000815260040161109290612aca565b60405180910390fd5b6110a3610cbd565b73ffffffffffffffffffffffffffffffffffffffff163373ffffffffffffffffffffffffffffffffffffffff1614806111295750600360009054906101000a900473ffffffffffffffffffffffffffffffffffffffff1673ffffffffffffffffffffffffffffffffffffffff163373ffffffffffffffffffffffffffffffffffffffff16145b806111815750600560009054906101000a900473ffffffffffffffffffffffffffffffffffffffff1673ffffffffffffffffffffffffffffffffffffffff163373ffffffffffffffffffffffffffffffffffffffff16145b61118a57600080fd5b61119482826119f4565b5050565b6111a06118b2565b83600260006101000a81548173ffffffffffffffffffffffffffffffffffffffff021916908373ffffffffffffffffffffffffffffffffffffffff16021790555082600360006101000a81548173ffffffffffffffffffffffffffffffffffffffff021916908373ffffffffffffffffffffffffffffffffffffffff16021790555081600460006101000a81548173ffffffffffffffffffffffffffffffffffffffff021916908373ffffffffffffffffffffffffffffffffffffffff16021790555080600560006101000a81548173ffffffffffffffffffffffffffffffffffffffff021916908373ffffffffffffffffffffffffffffffffffffffff16021790555050505050565b60065481565b600981815481106112c057600080fd5b90600052602060002090600702016000915090508060000154908060010154908060020154908060030154908060040154908060050154908060060160009054906101000a900460ff16908060060160019054906101000a900460ff16908060060160029054906101000a900460ff16908060060160039054906101000a900460ff16908060060160049054906101000a900460ff16908060060160059054906101000a900460ff1690508c565b600061137c60016006611384565b60ff16905090565b60006001600081548092919061139990612bce565b9190505550600033600154426040516020016113b7939291906130c2565b6040516020818303038152906040528051906020012060001c90506000600185856113e29190612e6d565b6113ec9190612ea1565b90508460ff168160ff168361140191906130ff565b61140b9190612dab565b9250505092915050565b60606000600a600084815260200190815260200160002080549050905060008167ffffffffffffffff81111561144e5761144d61237e565b5b60405190808252806020026020018201604052801561148757816020015b611474611d85565b81526020019060019003908161146c5790505b50905060005b60098054905081101561164c576009600a600087815260200190815260200160002082815481106114c1576114c0613130565b5b9060005260206000200154815481106114dd576114dc613130565b5b9060005260206000209060070201604051806101800160405290816000820154815260200160018201548152602001600282015481526020016003820154815260200160048201548152602001600582015481526020016006820160009054906101000a900460ff16600281111561155857611557612634565b5b600281111561156a57611569612634565b5b81526020016006820160019054906101000a900460ff1660ff1660ff1681526020016006820160029054906101000a900460ff1660ff1660ff1681526020016006820160039054906101000a900460ff1660038111156115cd576115cc612634565b5b60038111156115df576115de612634565b5b81526020016006820160049054906101000a900460ff1660ff1660ff1681526020016006820160059054906101000a900460ff16151515158152505082828151811061162e5761162d613130565b5b6020026020010181905250808061164490612bce565b91505061148d565b508092505050919050565b60008061166261136e565b90507f2729adc6efc811c2141edf691ce91423fbcd06f2d8fe8be0a13b24e47d1050c48185856040516116979392919061315f565b60405180910390a160018114156116b25760009150506116e1565b60038385836116c19190612dab565b6116cb9190613196565b13156116db5760019150506116e1565b60009150505b92915050565b600760019054906101000a900473ffffffffffffffffffffffffffffffffffffffff1681565b6117156118b2565b600073ffffffffffffffffffffffffffffffffffffffff168173ffffffffffffffffffffffffffffffffffffffff161415611785576040517f08c379a000000000000000000000000000000000000000000000000000000000815260040161177c9061329c565b60405180910390fd5b61178e81611930565b50565b60006001826000015184600001516117a991906132c9565b60000b14156117bb57600090506118ac565b7fffffffffffffffffffffffffffffffffffffffffffffffffffffffffffffffff826000015184600001516117f091906132c9565b60000b141561180257600190506118ac565b7fffffffffffffffffffffffffffffffffffffffffffffffffffffffffffffffff8260200151846020015161183791906132c9565b60000b141561184957600290506118ac565b60018260200151846020015161185f91906132c9565b60000b141561187157600390506118ac565b6040517f08c379a00000000000000000000000000000000000000000000000000000000081526004016118a39061338a565b60405180910390fd5b92915050565b6118ba611d1c565b73ffffffffffffffffffffffffffffffffffffffff166118d8610cbd565b73ffffffffffffffffffffffffffffffffffffffff161461192e576040517f08c379a0000000000000000000000000000000000000000000000000000000008152600401611925906133f6565b60405180910390fd5b565b60008060009054906101000a900473ffffffffffffffffffffffffffffffffffffffff169050816000806101000a81548173ffffffffffffffffffffffffffffffffffffffff021916908373ffffffffffffffffffffffffffffffffffffffff1602179055508173ffffffffffffffffffffffffffffffffffffffff168173ffffffffffffffffffffffffffffffffffffffff167f8be0079c531659141344cd1fd0a4f28419497f9722a3daafe3b4186f6b6457e060405160405180910390a35050565b6000600460009054906101000a900473ffffffffffffffffffffffffffffffffffffffff1673ffffffffffffffffffffffffffffffffffffffff16639b6507f064174876e80060046000866040518563ffffffff1660e01b8152600401611a5d9392919061348c565b60206040518083038185885af1158015611a7b573d6000803e3d6000fd5b50505050506040513d601f19601f82011682018060405250810190611aa091906134d8565b90506000600460009054906101000a900473ffffffffffffffffffffffffffffffffffffffff1673ffffffffffffffffffffffffffffffffffffffff166328518381836040518263ffffffff1660e01b8152600401611aff91906122b8565b602060405180830381865afa158015611b1c573d6000803e3d6000fd5b505050506040513d601f19601f82011682018060405250810190611b40919061351a565b90506000600960018160018154018082558091505003906000526020600020906007020190508181600001819055506001600980549050611b819190612d17565b81600101819055508281600201819055508481600301819055506001816004018190555060008160050181905550600b611bc8836004611bc360016000610b80565b610e2b565b60ff161015611bd8576001611bdb565b60025b8160060160006101000a81548160ff02191690836002811115611c0157611c00612634565b5b021790555060008160060160016101000a81548160ff021916908360ff16021790555060008160060160026101000a81548160ff021916908360ff160217905550611c64611c5c836004611c5760006001610b80565b610e2b565b60ff16611d24565b8160060160036101000a81548160ff02191690836003811115611c8a57611c89612634565b5b021790555060018160060160046101000a81548160ff021916908360ff16021790555060018160060160056101000a81548160ff021916908315150217905550600a60008681526020019081526020016000206001600980549050611cef9190612d17565b90806001815401808255809150506001900390600052602060002001600090919091909150555050505050565b600033905090565b600080821415611d375760009050611d60565b6000821415611d495760009050611d60565b6000821415611d5b5760029050611d60565b600390505b919050565b6040518060400160405280600060ff168152602001600060ff1681525090565b60405180610180016040528060008019168152602001600081526020016000815260200160008152602001600081526020016000815260200160006002811115611dd257611dd1612634565b5b8152602001600060ff168152602001600060ff16815260200160006003811115611dff57611dfe612634565b5b8152602001600060ff1681526020016000151581525090565b600073ffffffffffffffffffffffffffffffffffffffff82169050919050565b6000819050919050565b6000611e5d611e58611e5384611e18565b611e38565b611e18565b9050919050565b6000611e6f82611e42565b9050919050565b6000611e8182611e64565b9050919050565b611e9181611e76565b82525050565b6000602082019050611eac6000830184611e88565b92915050565b6000604051905090565b600080fd5b600080fd5b6000611ed182611e18565b9050919050565b611ee181611ec6565b8114611eec57600080fd5b50565b600081359050611efe81611ed8565b92915050565b6000819050919050565b611f1781611f04565b8114611f2257600080fd5b50565b600081359050611f3481611f0e565b92915050565b600080fd5b600080fd5b600080fd5b60008083601f840112611f5f57611f5e611f3a565b5b8235905067ffffffffffffffff811115611f7c57611f7b611f3f565b5b602083019150836001820283011115611f9857611f97611f44565b5b9250929050565b600080600080600060808688031215611fbb57611fba611ebc565b5b6000611fc988828901611eef565b9550506020611fda88828901611eef565b9450506040611feb88828901611f25565b935050606086013567ffffffffffffffff81111561200c5761200b611ec1565b5b61201888828901611f49565b92509250509295509295909350565b60007fffffffff0000000000000000000000000000000000000000000000000000000082169050919050565b61205c81612027565b82525050565b60006020820190506120776000830184612053565b92915050565b61208681611ec6565b82525050565b60006020820190506120a1600083018461207d565b92915050565b6000819050919050565b6120ba816120a7565b81146120c557600080fd5b50565b6000813590506120d7816120b1565b92915050565b6000602082840312156120f3576120f2611ebc565b5b6000612101848285016120c8565b91505092915050565b612113816120a7565b82525050565b600060208201905061212e600083018461210a565b92915050565b6000819050919050565b61214781612134565b82525050565b6000602082019050612162600083018461213e565b92915050565b60008115159050919050565b61217d81612168565b82525050565b60006020820190506121986000830184612174565b92915050565b6000602082840312156121b4576121b3611ebc565b5b60006121c284828501611f25565b91505092915050565b600080600080608085870312156121e5576121e4611ebc565b5b60006121f387828801611f25565b945050602061220487828801611f25565b935050604061221587828801611f25565b925050606061222687828801611f25565b91505092959194509250565b600060ff82169050919050565b61224881612232565b82525050565b6000602082019050612263600083018461223f565b92915050565b600080604083850312156122805761227f611ebc565b5b600061228e85828601611f25565b925050602061229f85828601611f25565b9150509250929050565b6122b281611f04565b82525050565b60006020820190506122cd60008301846122a9565b92915050565b60006122de82611e64565b9050919050565b6122ee816122d3565b82525050565b600060208201905061230960008301846122e5565b92915050565b61231881612168565b811461232357600080fd5b50565b6000813590506123358161230f565b92915050565b60006020828403121561235157612350611ebc565b5b600061235f84828501612326565b91505092915050565b600080fd5b6000601f19601f8301169050919050565b7f4e487b7100000000000000000000000000000000000000000000000000000000600052604160045260246000fd5b6123b68261236d565b810181811067ffffffffffffffff821117156123d5576123d461237e565b5b80604052505050565b60006123e8611eb2565b90506123f482826123ad565b919050565b61240281612232565b811461240d57600080fd5b50565b60008135905061241f816123f9565b92915050565b60006040828403121561243b5761243a612368565b5b61244560406123de565b9050600061245584828501612410565b600083015250602061246984828501612410565b60208301525092915050565b6000806060838503121561248c5761248b611ebc565b5b600061249a85828601611f25565b92505060206124ab85828601612425565b9150509250929050565b6124be81612232565b82525050565b6040820160008201516124da60008501826124b5565b5060208201516124ed60208501826124b5565b50505050565b600060408201905061250860008301846124c4565b92915050565b61251781612134565b811461252257600080fd5b50565b6000813590506125348161250e565b92915050565b60008060006060848603121561255357612552611ebc565b5b600061256186828701612525565b935050602061257286828701611f25565b925050604061258386828701611f25565b9150509250925092565b600080604083850312156125a4576125a3611ebc565b5b60006125b285828601611f25565b92505060206125c385828601611eef565b9150509250929050565b600080600080608085870312156125e7576125e6611ebc565b5b60006125f587828801611eef565b945050602061260687828801611eef565b935050604061261787828801611eef565b925050606061262887828801611eef565b91505092959194509250565b7f4e487b7100000000000000000000000000000000000000000000000000000000600052602160045260246000fd5b6003811061267457612673612634565b5b50565b600081905061268582612663565b919050565b600061269582612677565b9050919050565b6126a58161268a565b82525050565b600481106126bc576126bb612634565b5b50565b60008190506126cd826126ab565b919050565b60006126dd826126bf565b9050919050565b6126ed816126d2565b82525050565b600061018082019050612709600083018f61213e565b612716602083018e6122a9565b612723604083018d6122a9565b612730606083018c6122a9565b61273d608083018b6122a9565b61274a60a083018a6122a9565b61275760c083018961269c565b61276460e083018861223f565b61277261010083018761223f565b6127806101208301866126e4565b61278e61014083018561223f565b61279c610160830184612174565b9d9c50505050505050505050505050565b600080604083850312156127c4576127c3611ebc565b5b60006127d285828601612410565b92505060206127e385828601612410565b9150509250929050565b600081519050919050565b600082825260208201905092915050565b6000819050602082019050919050565b61282281612134565b82525050565b61283181611f04565b82525050565b6128408161268a565b82525050565b61284f816126d2565b82525050565b61285e81612168565b82525050565b6101808201600082015161287b6000850182612819565b50602082015161288e6020850182612828565b5060408201516128a16040850182612828565b5060608201516128b46060850182612828565b5060808201516128c76080850182612828565b5060a08201516128da60a0850182612828565b5060c08201516128ed60c0850182612837565b5060e082015161290060e08501826124b5565b506101008201516129156101008501826124b5565b5061012082015161292a610120850182612846565b5061014082015161293f6101408501826124b5565b50610160820151612954610160850182612855565b50505050565b60006129668383612864565b6101808301905092915050565b6000602082019050919050565b600061298b826127ed565b61299581856127f8565b93506129a083612809565b8060005b838110156129d15781516129b8888261295a565b97506129c383612973565b9250506001810190506129a4565b5085935050505092915050565b600060208201905081810360008301526129f88184612980565b905092915050565b600060208284031215612a1657612a15611ebc565b5b6000612a2484828501611eef565b91505092915050565b60008060808385031215612a4457612a43611ebc565b5b6000612a5285828601612425565b9250506040612a6385828601612425565b9150509250929050565b600082825260208201905092915050565b7f496e636f7272656374207061796d656e74000000000000000000000000000000600082015250565b6000612ab4601183612a6d565b9150612abf82612a7e565b602082019050919050565b60006020820190508181036000830152612ae381612aa7565b9050919050565b7f4d696e74696e67206973206e6f74206163746976650000000000000000000000600082015250565b6000612b20601583612a6d565b9150612b2b82612aea565b602082019050919050565b60006020820190508181036000830152612b4f81612b13565b9050919050565b7f4e487b7100000000000000000000000000000000000000000000000000000000600052601160045260246000fd5b6000612b90826120a7565b91507f8000000000000000000000000000000000000000000000000000000000000000821415612bc357612bc2612b56565b5b816000039050919050565b6000612bd982611f04565b91507fffffffffffffffffffffffffffffffffffffffffffffffffffffffffffffffff821415612c0c57612c0b612b56565b5b600182019050919050565b6000819050919050565b612c32612c2d82611f04565b612c17565b82525050565b60008160601b9050919050565b6000612c5082612c38565b9050919050565b6000612c6282612c45565b9050919050565b612c7a612c7582611ec6565b612c57565b82525050565b6000612c8c8286612c21565b602082019150612c9c8285612c21565b602082019150612cac8284612c69565b601482019150819050949350505050565b6000612cc882611f04565b9150612cd383611f04565b9250817fffffffffffffffffffffffffffffffffffffffffffffffffffffffffffffffff0483118215151615612d0c57612d0b612b56565b5b828202905092915050565b6000612d2282611f04565b9150612d2d83611f04565b925082821015612d4057612d3f612b56565b5b828203905092915050565b7f4e487b7100000000000000000000000000000000000000000000000000000000600052601260045260246000fd5b6000612d8582611f04565b9150612d9083611f04565b925082612da057612d9f612d4b565b5b828204905092915050565b6000612db682611f04565b9150612dc183611f04565b9250827fffffffffffffffffffffffffffffffffffffffffffffffffffffffffffffffff03821115612df657612df5612b56565b5b828201905092915050565b7f42616420646972656374696f6e00000000000000000000000000000000000000600082015250565b6000612e37600d83612a6d565b9150612e4282612e01565b602082019050919050565b60006020820190508181036000830152612e6681612e2a565b9050919050565b6000612e7882612232565b9150612e8383612232565b925082821015612e9657612e95612b56565b5b828203905092915050565b6000612eac82612232565b9150612eb783612232565b92508260ff03821115612ecd57612ecc612b56565b5b828201905092915050565b7f496e76616c696420646972656374696f6e000000000000000000000000000000600082015250565b6000612f0e601183612a6d565b9150612f1982612ed8565b602082019050919050565b60006020820190508181036000830152612f3d81612f01565b9050919050565b60008160011c9050919050565b6000808291508390505b6001851115612f9b57808604811115612f7757612f76612b56565b5b6001851615612f865780820291505b8081029050612f9485612f44565b9450612f5b565b94509492505050565b600082612fb45760019050613070565b81612fc25760009050613070565b8160018114612fd85760028114612fe257613011565b6001915050613070565b60ff841115612ff457612ff3612b56565b5b8360020a91508482111561300b5761300a612b56565b5b50613070565b5060208310610133831016604e8410600b84101617156130465782820a90508381111561304157613040612b56565b5b613070565b6130538484846001612f51565b9250905081840481111561306a57613069612b56565b5b81810290505b9392505050565b600061308282611f04565b915061308d83611f04565b92506130ba7fffffffffffffffffffffffffffffffffffffffffffffffffffffffffffffffff8484612fa4565b905092915050565b60006130ce8286612c69565b6014820191506130de8285612c21565b6020820191506130ee8284612c21565b602082019150819050949350505050565b600061310a82611f04565b915061311583611f04565b92508261312557613124612d4b565b5b828206905092915050565b7f4e487b7100000000000000000000000000000000000000000000000000000000600052603260045260246000fd5b600060608201905061317460008301866122a9565b61318160208301856122a9565b61318e60408301846122a9565b949350505050565b60006131a1826120a7565b91506131ac836120a7565b9250827f8000000000000000000000000000000000000000000000000000000000000000018212600084121516156131e7576131e6612b56565b5b827f7fffffffffffffffffffffffffffffffffffffffffffffffffffffffffffffff01821360008412161561321f5761321e612b56565b5b828203905092915050565b7f4f776e61626c653a206e6577206f776e657220697320746865207a65726f206160008201527f6464726573730000000000000000000000000000000000000000000000000000602082015250565b6000613286602683612a6d565b91506132918261322a565b604082019050919050565b600060208201905081810360008301526132b581613279565b9050919050565b60008160000b9050919050565b60006132d4826132bc565b91506132df836132bc565b9250827fffffffffffffffffffffffffffffffffffffffffffffffffffffffffffffff800182126000841215161561331a57613319612b56565b5b82607f01821360008412161561333357613332612b56565b5b828203905092915050565b7f4572726f723a204e6f742061646a6163656e7400000000000000000000000000600082015250565b6000613374601383612a6d565b915061337f8261333e565b602082019050919050565b600060208201905081810360008301526133a381613367565b9050919050565b7f4f776e61626c653a2063616c6c6572206973206e6f7420746865206f776e6572600082015250565b60006133e0602083612a6d565b91506133eb826133aa565b602082019050919050565b6000602082019050818103600083015261340f816133d3565b9050919050565b6000819050919050565b600061343b61343661343184613416565b611e38565b611f04565b9050919050565b61344b81613420565b82525050565b6000819050919050565b600061347661347161346c84613451565b611e38565b611f04565b9050919050565b6134868161345b565b82525050565b60006060820190506134a16000830186613442565b6134ae602083018561347d565b6134bb604083018461207d565b949350505050565b6000815190506134d281611f0e565b92915050565b6000602082840312156134ee576134ed611ebc565b5b60006134fc848285016134c3565b91505092915050565b6000815190506135148161250e565b92915050565b6000602082840312156135305761352f611ebc565b5b600061353e84828501613505565b9150509291505056fea2646970667358221220b4702c9e0092bc5fe8e762c7abb4714a7de7ad5087dcfc47602fb8da4ec5a2e964736f6c634300080c0033",
  "devdoc": {
    "kind": "dev",
    "methods": {
      "owner()": {
        "details": "Returns the address of the current owner."
      },
      "renounceOwnership()": {
        "details": "Leaves the contract without owner. It will not be possible to call `onlyOwner` functions anymore. Can only be called by the current owner. NOTE: Renouncing ownership will leave the contract without an owner, thereby removing any functionality that is only available to the owner."
      },
      "transferOwnership(address)": {
        "details": "Transfers ownership of the contract to a new account (`newOwner`). Can only be called by the current owner."
      }
    },
    "version": 1
  },
  "userdoc": {
    "kind": "user",
    "methods": {},
    "version": 1
  },
  "storageLayout": {
    "storage": [
      {
        "astId": 7,
        "contract": "contracts/BCItems.sol:BCItems",
        "label": "_owner",
        "offset": 0,
        "slot": "0",
        "type": "t_address"
      },
      {
        "astId": 7146,
        "contract": "contracts/BCItems.sol:BCItems",
        "label": "TODO_randomSeed",
        "offset": 0,
        "slot": "1",
        "type": "t_uint256"
      },
      {
        "astId": 4479,
        "contract": "contracts/BCItems.sol:BCItems",
        "label": "lobbies",
        "offset": 0,
        "slot": "2",
        "type": "t_contract(LobbyInterface)4428"
      },
      {
        "astId": 4481,
        "contract": "contracts/BCItems.sol:BCItems",
        "label": "gamesContract",
        "offset": 0,
        "slot": "3",
        "type": "t_address"
      },
      {
        "astId": 4484,
        "contract": "contracts/BCItems.sol:BCItems",
        "label": "uif",
        "offset": 0,
        "slot": "4",
        "type": "t_contract(UIFInterface)4470"
      },
      {
        "astId": 4486,
        "contract": "contracts/BCItems.sol:BCItems",
        "label": "actionsContract",
        "offset": 0,
        "slot": "5",
        "type": "t_address"
      },
      {
        "astId": 4527,
        "contract": "contracts/BCItems.sol:BCItems",
        "label": "mintCost",
        "offset": 0,
        "slot": "6",
        "type": "t_uint256"
      },
      {
        "astId": 4530,
        "contract": "contracts/BCItems.sol:BCItems",
        "label": "mintIsActive",
        "offset": 0,
        "slot": "7",
        "type": "t_bool"
      },
      {
        "astId": 4534,
        "contract": "contracts/BCItems.sol:BCItems",
        "label": "allowedContract",
        "offset": 1,
        "slot": "7",
        "type": "t_address"
      },
      {
        "astId": 4537,
        "contract": "contracts/BCItems.sol:BCItems",
        "label": "randSeed",
        "offset": 0,
        "slot": "8",
        "type": "t_uint256"
      },
      {
        "astId": 4541,
        "contract": "contracts/BCItems.sol:BCItems",
        "label": "items",
        "offset": 0,
        "slot": "9",
        "type": "t_array(t_struct(Item)7127_storage)dyn_storage"
      },
      {
        "astId": 4546,
        "contract": "contracts/BCItems.sol:BCItems",
        "label": "playerToItems",
        "offset": 0,
        "slot": "10",
        "type": "t_mapping(t_uint256,t_array(t_uint256)dyn_storage)"
      },
      {
        "astId": 4550,
        "contract": "contracts/BCItems.sol:BCItems",
        "label": "itemTraitModifiers",
        "offset": 0,
        "slot": "11",
        "type": "t_array(t_struct(Traits)7071_storage)dyn_storage"
      }
    ],
    "types": {
      "t_address": {
        "encoding": "inplace",
        "label": "address",
        "numberOfBytes": "20"
      },
      "t_array(t_struct(Item)7127_storage)dyn_storage": {
        "base": "t_struct(Item)7127_storage",
        "encoding": "dynamic_array",
        "label": "struct BCTypes.Item[]",
        "numberOfBytes": "32"
      },
      "t_array(t_struct(Traits)7071_storage)dyn_storage": {
        "base": "t_struct(Traits)7071_storage",
        "encoding": "dynamic_array",
        "label": "struct BCTypes.Traits[]",
        "numberOfBytes": "32"
      },
      "t_array(t_uint256)dyn_storage": {
        "base": "t_uint256",
        "encoding": "dynamic_array",
        "label": "uint256[]",
        "numberOfBytes": "32"
      },
      "t_bool": {
        "encoding": "inplace",
        "label": "bool",
        "numberOfBytes": "1"
      },
      "t_bytes32": {
        "encoding": "inplace",
        "label": "bytes32",
        "numberOfBytes": "32"
      },
      "t_contract(LobbyInterface)4428": {
        "encoding": "inplace",
        "label": "contract LobbyInterface",
        "numberOfBytes": "20"
      },
      "t_contract(UIFInterface)4470": {
        "encoding": "inplace",
        "label": "contract UIFInterface",
        "numberOfBytes": "20"
      },
      "t_enum(ItemCategory)7095": {
        "encoding": "inplace",
        "label": "enum BCTypes.ItemCategory",
        "numberOfBytes": "1"
      },
      "t_enum(ItemType)7100": {
        "encoding": "inplace",
        "label": "enum BCTypes.ItemType",
        "numberOfBytes": "1"
      },
      "t_mapping(t_uint256,t_array(t_uint256)dyn_storage)": {
        "encoding": "mapping",
        "key": "t_uint256",
        "label": "mapping(uint256 => uint256[])",
        "numberOfBytes": "32",
        "value": "t_array(t_uint256)dyn_storage"
      },
      "t_struct(Item)7127_storage": {
        "encoding": "inplace",
        "label": "struct BCTypes.Item",
        "members": [
          {
            "astId": 7102,
            "contract": "contracts/BCItems.sol:BCItems",
            "label": "genHash",
            "offset": 0,
            "slot": "0",
            "type": "t_bytes32"
          },
          {
            "astId": 7104,
            "contract": "contracts/BCItems.sol:BCItems",
            "label": "id",
            "offset": 0,
            "slot": "1",
            "type": "t_uint256"
          },
          {
            "astId": 7106,
            "contract": "contracts/BCItems.sol:BCItems",
            "label": "uifID",
            "offset": 0,
            "slot": "2",
            "type": "t_uint256"
          },
          {
            "astId": 7108,
            "contract": "contracts/BCItems.sol:BCItems",
            "label": "holdingPlayerId",
            "offset": 0,
            "slot": "3",
            "type": "t_uint256"
          },
          {
            "astId": 7110,
            "contract": "contracts/BCItems.sol:BCItems",
            "label": "weight",
            "offset": 0,
            "slot": "4",
            "type": "t_uint256"
          },
          {
            "astId": 7112,
            "contract": "contracts/BCItems.sol:BCItems",
            "label": "traitModID",
            "offset": 0,
            "slot": "5",
            "type": "t_uint256"
          },
          {
            "astId": 7115,
            "contract": "contracts/BCItems.sol:BCItems",
            "label": "itemCategory",
            "offset": 0,
            "slot": "6",
            "type": "t_enum(ItemCategory)7095"
          },
          {
            "astId": 7117,
            "contract": "contracts/BCItems.sol:BCItems",
            "label": "grantsAbility",
            "offset": 1,
            "slot": "6",
            "type": "t_uint8"
          },
          {
            "astId": 7119,
            "contract": "contracts/BCItems.sol:BCItems",
            "label": "grantsFlaw",
            "offset": 2,
            "slot": "6",
            "type": "t_uint8"
          },
          {
            "astId": 7122,
            "contract": "contracts/BCItems.sol:BCItems",
            "label": "itemType",
            "offset": 3,
            "slot": "6",
            "type": "t_enum(ItemType)7100"
          },
          {
            "astId": 7124,
            "contract": "contracts/BCItems.sol:BCItems",
            "label": "power",
            "offset": 4,
            "slot": "6",
            "type": "t_uint8"
          },
          {
            "astId": 7126,
            "contract": "contracts/BCItems.sol:BCItems",
            "label": "inGame",
            "offset": 5,
            "slot": "6",
            "type": "t_bool"
          }
        ],
        "numberOfBytes": "224"
      },
      "t_struct(Traits)7071_storage": {
        "encoding": "inplace",
        "label": "struct BCTypes.Traits",
        "members": [
          {
            "astId": 7058,
            "contract": "contracts/BCItems.sol:BCItems",
            "label": "health",
            "offset": 0,
            "slot": "0",
            "type": "t_uint8"
          },
          {
            "astId": 7060,
            "contract": "contracts/BCItems.sol:BCItems",
            "label": "carry",
            "offset": 1,
            "slot": "0",
            "type": "t_uint8"
          },
          {
            "astId": 7062,
            "contract": "contracts/BCItems.sol:BCItems",
            "label": "defense",
            "offset": 2,
            "slot": "0",
            "type": "t_uint8"
          },
          {
            "astId": 7064,
            "contract": "contracts/BCItems.sol:BCItems",
            "label": "hack",
            "offset": 3,
            "slot": "0",
            "type": "t_uint8"
          },
          {
            "astId": 7066,
            "contract": "contracts/BCItems.sol:BCItems",
            "label": "breach",
            "offset": 4,
            "slot": "0",
            "type": "t_uint8"
          },
          {
            "astId": 7068,
            "contract": "contracts/BCItems.sol:BCItems",
            "label": "shoot",
            "offset": 5,
            "slot": "0",
            "type": "t_uint8"
          },
          {
            "astId": 7070,
            "contract": "contracts/BCItems.sol:BCItems",
            "label": "melee",
            "offset": 6,
            "slot": "0",
            "type": "t_uint8"
          }
        ],
        "numberOfBytes": "32"
      },
      "t_uint256": {
        "encoding": "inplace",
        "label": "uint256",
        "numberOfBytes": "32"
      },
      "t_uint8": {
        "encoding": "inplace",
        "label": "uint8",
        "numberOfBytes": "1"
      }
    }
  }
}