{
  "address": "0x3d881069B522F50ffC5206cc7EeF22597a73c822",
  "abi": [
    {
      "inputs": [],
      "stateMutability": "nonpayable",
      "type": "constructor"
    },
    {
      "anonymous": false,
      "inputs": [
        {
          "indexed": false,
          "internalType": "uint256",
          "name": "gameId",
          "type": "uint256"
        },
        {
          "indexed": false,
          "internalType": "uint256",
          "name": "roll",
          "type": "uint256"
        },
        {
          "indexed": false,
          "internalType": "uint256",
          "name": "forValue",
          "type": "uint256"
        },
        {
          "indexed": false,
          "internalType": "uint256",
          "name": "against",
          "type": "uint256"
        }
      ],
      "name": "ChallengeEvent",
      "type": "event"
    },
    {
      "anonymous": false,
      "inputs": [
        {
          "indexed": false,
          "internalType": "uint256",
          "name": "gameId",
          "type": "uint256"
        },
        {
          "indexed": false,
          "internalType": "uint256",
          "name": "roll",
          "type": "uint256"
        }
      ],
      "name": "DiceRollEvent",
      "type": "event"
    },
    {
      "anonymous": false,
      "inputs": [
        {
          "indexed": true,
          "internalType": "address",
          "name": "previousOwner",
          "type": "address"
        },
        {
          "indexed": true,
          "internalType": "address",
          "name": "newOwner",
          "type": "address"
        }
      ],
      "name": "OwnershipTransferred",
      "type": "event"
    },
    {
      "anonymous": false,
      "inputs": [],
      "name": "Received",
      "type": "event"
    },
    {
      "inputs": [
        {
          "internalType": "uint256",
          "name": "_matic",
          "type": "uint256"
        }
      ],
      "name": "SetMintCostInMatic",
      "outputs": [],
      "stateMutability": "nonpayable",
      "type": "function"
    },
    {
      "inputs": [
        {
          "internalType": "int256",
          "name": "x",
          "type": "int256"
        }
      ],
      "name": "abs",
      "outputs": [
        {
          "internalType": "int256",
          "name": "",
          "type": "int256"
        }
      ],
      "stateMutability": "pure",
      "type": "function"
    },
    {
      "inputs": [],
      "name": "actionsContract",
      "outputs": [
        {
          "internalType": "address",
          "name": "",
          "type": "address"
        }
      ],
      "stateMutability": "view",
      "type": "function"
    },
    {
      "inputs": [],
      "name": "allowedContract",
      "outputs": [
        {
          "internalType": "address",
          "name": "",
          "type": "address"
        }
      ],
      "stateMutability": "view",
      "type": "function"
    },
    {
      "inputs": [],
      "name": "commitItemToMission",
      "outputs": [],
      "stateMutability": "nonpayable",
      "type": "function"
    },
    {
      "inputs": [
        {
          "internalType": "uint256",
          "name": "_playerId",
          "type": "uint256"
        },
        {
          "internalType": "uint256",
          "name": "_itemId",
          "type": "uint256"
        }
      ],
      "name": "destroyItem",
      "outputs": [],
      "stateMutability": "nonpayable",
      "type": "function"
    },
    {
      "inputs": [],
      "name": "games",
      "outputs": [
        {
          "internalType": "contract GameInterface",
          "name": "",
          "type": "address"
        }
      ],
      "stateMutability": "view",
      "type": "function"
    },
    {
      "inputs": [],
      "name": "gamesContract",
      "outputs": [
        {
          "internalType": "address",
          "name": "",
          "type": "address"
        }
      ],
      "stateMutability": "view",
      "type": "function"
    },
    {
      "inputs": [
        {
          "components": [
            {
              "internalType": "uint8",
              "name": "row",
              "type": "uint8"
            },
            {
              "internalType": "uint8",
              "name": "col",
              "type": "uint8"
            }
          ],
          "internalType": "struct BCTypes.Position",
          "name": "_firstRoom",
          "type": "tuple"
        },
        {
          "components": [
            {
              "internalType": "uint8",
              "name": "row",
              "type": "uint8"
            },
            {
              "internalType": "uint8",
              "name": "col",
              "type": "uint8"
            }
          ],
          "internalType": "struct BCTypes.Position",
          "name": "_secondRoom",
          "type": "tuple"
        }
      ],
      "name": "getDirectionBetween",
      "outputs": [
        {
          "internalType": "uint256",
          "name": "",
          "type": "uint256"
        }
      ],
      "stateMutability": "pure",
      "type": "function"
    },
    {
      "inputs": [
        {
          "internalType": "uint256",
          "name": "_playerID",
          "type": "uint256"
        }
      ],
      "name": "getItemIDsByPlayer",
      "outputs": [
        {
          "internalType": "uint256[]",
          "name": "",
          "type": "uint256[]"
        }
      ],
      "stateMutability": "view",
      "type": "function"
    },
    {
      "inputs": [
        {
          "internalType": "uint256",
          "name": "_playerID",
          "type": "uint256"
        }
      ],
      "name": "getItemsByPlayer",
      "outputs": [
        {
          "components": [
            {
              "internalType": "bytes32",
              "name": "genHash",
              "type": "bytes32"
            },
            {
              "internalType": "uint256",
              "name": "id",
              "type": "uint256"
            },
            {
              "internalType": "uint256",
              "name": "uifID",
              "type": "uint256"
            },
            {
              "internalType": "uint256",
              "name": "holdingPlayerId",
              "type": "uint256"
            },
            {
              "internalType": "uint256",
              "name": "weight",
              "type": "uint256"
            },
            {
              "internalType": "uint256",
              "name": "traitModID",
              "type": "uint256"
            },
            {
              "internalType": "enum BCTypes.ItemCategory",
              "name": "itemCategory",
              "type": "uint8"
            },
            {
              "internalType": "uint8",
              "name": "grantsAbility",
              "type": "uint8"
            },
            {
              "internalType": "uint8",
              "name": "grantsFlaw",
              "type": "uint8"
            },
            {
              "internalType": "enum BCTypes.ItemType",
              "name": "itemType",
              "type": "uint8"
            },
            {
              "internalType": "uint8",
              "name": "power",
              "type": "uint8"
            },
            {
              "internalType": "bool",
              "name": "inGame",
              "type": "bool"
            }
          ],
          "internalType": "struct BCTypes.Item[]",
          "name": "",
          "type": "tuple[]"
        }
      ],
      "stateMutability": "view",
      "type": "function"
    },
    {
      "inputs": [
        {
          "internalType": "uint256",
          "name": "_direction",
          "type": "uint256"
        },
        {
          "components": [
            {
              "internalType": "uint8",
              "name": "row",
              "type": "uint8"
            },
            {
              "internalType": "uint8",
              "name": "col",
              "type": "uint8"
            }
          ],
          "internalType": "struct BCTypes.Position",
          "name": "_start",
          "type": "tuple"
        }
      ],
      "name": "getNeighborRoom",
      "outputs": [
        {
          "components": [
            {
              "internalType": "uint8",
              "name": "row",
              "type": "uint8"
            },
            {
              "internalType": "uint8",
              "name": "col",
              "type": "uint8"
            }
          ],
          "internalType": "struct BCTypes.Position",
          "name": "",
          "type": "tuple"
        }
      ],
      "stateMutability": "pure",
      "type": "function"
    },
    {
      "inputs": [
        {
          "internalType": "uint256",
          "name": "_traitNum",
          "type": "uint256"
        },
        {
          "internalType": "uint256",
          "name": "_subTraitNum",
          "type": "uint256"
        }
      ],
      "name": "getUIOffset",
      "outputs": [
        {
          "internalType": "uint256",
          "name": "",
          "type": "uint256"
        }
      ],
      "stateMutability": "pure",
      "type": "function"
    },
    {
      "inputs": [
        {
          "internalType": "uint256",
          "name": "",
          "type": "uint256"
        }
      ],
      "name": "items",
      "outputs": [
        {
          "internalType": "bytes32",
          "name": "genHash",
          "type": "bytes32"
        },
        {
          "internalType": "uint256",
          "name": "id",
          "type": "uint256"
        },
        {
          "internalType": "uint256",
          "name": "uifID",
          "type": "uint256"
        },
        {
          "internalType": "uint256",
          "name": "holdingPlayerId",
          "type": "uint256"
        },
        {
          "internalType": "uint256",
          "name": "weight",
          "type": "uint256"
        },
        {
          "internalType": "uint256",
          "name": "traitModID",
          "type": "uint256"
        },
        {
          "internalType": "enum BCTypes.ItemCategory",
          "name": "itemCategory",
          "type": "uint8"
        },
        {
          "internalType": "uint8",
          "name": "grantsAbility",
          "type": "uint8"
        },
        {
          "internalType": "uint8",
          "name": "grantsFlaw",
          "type": "uint8"
        },
        {
          "internalType": "enum BCTypes.ItemType",
          "name": "itemType",
          "type": "uint8"
        },
        {
          "internalType": "uint8",
          "name": "power",
          "type": "uint8"
        },
        {
          "internalType": "bool",
          "name": "inGame",
          "type": "bool"
        }
      ],
      "stateMutability": "view",
      "type": "function"
    },
    {
      "inputs": [],
      "name": "lobbies",
      "outputs": [
        {
          "internalType": "contract LobbyInterface",
          "name": "",
          "type": "address"
        }
      ],
      "stateMutability": "view",
      "type": "function"
    },
    {
      "inputs": [
        {
          "internalType": "uint256",
          "name": "_holdingPlayerId",
          "type": "uint256"
        },
        {
          "internalType": "address",
          "name": "_holderAddress",
          "type": "address"
        }
      ],
      "name": "lootItem",
      "outputs": [],
      "stateMutability": "payable",
      "type": "function"
    },
    {
      "inputs": [],
      "name": "mintCost",
      "outputs": [
        {
          "internalType": "uint256",
          "name": "",
          "type": "uint256"
        }
      ],
      "stateMutability": "view",
      "type": "function"
    },
    {
      "inputs": [],
      "name": "mintIsActive",
      "outputs": [
        {
          "internalType": "bool",
          "name": "",
          "type": "bool"
        }
      ],
      "stateMutability": "view",
      "type": "function"
    },
    {
      "inputs": [
        {
          "internalType": "uint256",
          "name": "_min",
          "type": "uint256"
        },
        {
          "internalType": "uint256",
          "name": "_max",
          "type": "uint256"
        },
        {
          "internalType": "uint256",
          "name": "_val",
          "type": "uint256"
        },
        {
          "internalType": "uint256",
          "name": "_valMax",
          "type": "uint256"
        }
      ],
      "name": "normalizeToSmallRange",
      "outputs": [
        {
          "internalType": "uint8",
          "name": "",
          "type": "uint8"
        }
      ],
      "stateMutability": "pure",
      "type": "function"
    },
    {
      "inputs": [
        {
          "internalType": "address",
          "name": "_operator",
          "type": "address"
        },
        {
          "internalType": "address",
          "name": "_from",
          "type": "address"
        },
        {
          "internalType": "uint256",
          "name": "_tokenId",
          "type": "uint256"
        },
        {
          "internalType": "bytes",
          "name": "_data",
          "type": "bytes"
        }
      ],
      "name": "onERC721Received",
      "outputs": [
        {
          "internalType": "bytes4",
          "name": "",
          "type": "bytes4"
        }
      ],
      "stateMutability": "nonpayable",
      "type": "function"
    },
    {
      "inputs": [
        {
          "internalType": "uint256",
          "name": "_direction",
          "type": "uint256"
        }
      ],
      "name": "opposite",
      "outputs": [
        {
          "internalType": "uint256",
          "name": "",
          "type": "uint256"
        }
      ],
      "stateMutability": "pure",
      "type": "function"
    },
    {
      "inputs": [],
      "name": "owner",
      "outputs": [
        {
          "internalType": "address",
          "name": "",
          "type": "address"
        }
      ],
      "stateMutability": "view",
      "type": "function"
    },
    {
      "inputs": [
        {
          "internalType": "uint256",
          "name": "_playerId",
          "type": "uint256"
        },
        {
          "internalType": "uint256[]",
          "name": "_itemIds",
          "type": "uint256[]"
        },
        {
          "internalType": "address",
          "name": "_newOwnerAddress",
          "type": "address"
        }
      ],
      "name": "pickupWorldItems",
      "outputs": [],
      "stateMutability": "nonpayable",
      "type": "function"
    },
    {
      "inputs": [
        {
          "internalType": "uint256",
          "name": "",
          "type": "uint256"
        },
        {
          "internalType": "uint256",
          "name": "",
          "type": "uint256"
        }
      ],
      "name": "playerToItems",
      "outputs": [
        {
          "internalType": "uint256",
          "name": "",
          "type": "uint256"
        }
      ],
      "stateMutability": "view",
      "type": "function"
    },
    {
      "inputs": [],
      "name": "playersContract",
      "outputs": [
        {
          "internalType": "contract PlayersContract",
          "name": "",
          "type": "address"
        }
      ],
      "stateMutability": "view",
      "type": "function"
    },
    {
      "inputs": [],
      "name": "randKeccak",
      "outputs": [
        {
          "internalType": "bytes32",
          "name": "",
          "type": "bytes32"
        }
      ],
      "stateMutability": "nonpayable",
      "type": "function"
    },
    {
      "inputs": [],
      "name": "renounceOwnership",
      "outputs": [],
      "stateMutability": "nonpayable",
      "type": "function"
    },
    {
      "inputs": [
        {
          "internalType": "uint256",
          "name": "_gameId",
          "type": "uint256"
        },
        {
          "internalType": "uint256",
          "name": "_for",
          "type": "uint256"
        },
        {
          "internalType": "uint256",
          "name": "_against",
          "type": "uint256"
        }
      ],
      "name": "resolveChallenge",
      "outputs": [
        {
          "internalType": "bool",
          "name": "",
          "type": "bool"
        }
      ],
      "stateMutability": "nonpayable",
      "type": "function"
    },
    {
      "inputs": [
        {
          "internalType": "uint256",
          "name": "_gameId",
          "type": "uint256"
        }
      ],
      "name": "roll",
      "outputs": [
        {
          "internalType": "uint256",
          "name": "",
          "type": "uint256"
        }
      ],
      "stateMutability": "nonpayable",
      "type": "function"
    },
    {
      "inputs": [
        {
          "internalType": "address",
          "name": "_lobbyContractAddress",
          "type": "address"
        },
        {
          "internalType": "address",
          "name": "_gameContract",
          "type": "address"
        },
        {
          "internalType": "address",
          "name": "_UIFAddress",
          "type": "address"
        },
        {
          "internalType": "address",
          "name": "_actionsContract",
          "type": "address"
        },
        {
          "internalType": "address",
          "name": "_playersContract",
          "type": "address"
        }
      ],
      "name": "setContractAddresses",
      "outputs": [],
      "stateMutability": "nonpayable",
      "type": "function"
    },
    {
      "inputs": [
        {
          "internalType": "bool",
          "name": "_status",
          "type": "bool"
        }
      ],
      "name": "setMintingStatus",
      "outputs": [],
      "stateMutability": "nonpayable",
      "type": "function"
    },
    {
      "inputs": [
        {
          "internalType": "bytes32",
          "name": "_hash",
          "type": "bytes32"
        },
        {
          "internalType": "uint256",
          "name": "_size",
          "type": "uint256"
        },
        {
          "internalType": "uint256",
          "name": "_offset",
          "type": "uint256"
        }
      ],
      "name": "sliceHashToSmallInt",
      "outputs": [
        {
          "internalType": "uint8",
          "name": "",
          "type": "uint8"
        }
      ],
      "stateMutability": "pure",
      "type": "function"
    },
    {
      "inputs": [
        {
          "internalType": "uint8",
          "name": "_min",
          "type": "uint8"
        },
        {
          "internalType": "uint8",
          "name": "_max",
          "type": "uint8"
        }
      ],
      "name": "smallIntBetweenVals",
      "outputs": [
        {
          "internalType": "uint8",
          "name": "",
          "type": "uint8"
        }
      ],
      "stateMutability": "nonpayable",
      "type": "function"
    },
    {
      "inputs": [],
      "name": "spawnCompanyItem",
      "outputs": [],
      "stateMutability": "payable",
      "type": "function"
    },
    {
      "inputs": [
        {
          "internalType": "uint256",
          "name": "_gameId",
          "type": "uint256"
        },
        {
          "internalType": "uint256[]",
          "name": "_itemIds",
          "type": "uint256[]"
        },
        {
          "internalType": "uint256",
          "name": "_row",
          "type": "uint256"
        },
        {
          "internalType": "uint256",
          "name": "_col",
          "type": "uint256"
        },
        {
          "internalType": "uint256",
          "name": "_formerOwnerId",
          "type": "uint256"
        }
      ],
      "name": "spawnWorldItems",
      "outputs": [],
      "stateMutability": "nonpayable",
      "type": "function"
    },
    {
      "inputs": [],
      "name": "transferFundsOut",
      "outputs": [],
      "stateMutability": "nonpayable",
      "type": "function"
    },
    {
      "inputs": [
        {
          "internalType": "address",
          "name": "newOwner",
          "type": "address"
        }
      ],
      "name": "transferOwnership",
      "outputs": [],
      "stateMutability": "nonpayable",
      "type": "function"
    },
    {
      "inputs": [],
      "name": "uif",
      "outputs": [
        {
          "internalType": "contract UIFInterface",
          "name": "",
          "type": "address"
        }
      ],
      "stateMutability": "view",
      "type": "function"
    }
  ],
  "transactionHash": "0xcd0efd768e4945d371498e072ab36966fc767483145f96536fb45fed582655e9",
  "args": [],
  "numDeployments": 1,
  "solcInputHash": "0606bbd73f1cb9aac5f9e11b2dd53465",
  "bytecode": "0x60806040526000600181815564174876e8006008556009805460ff19169091179055600a5534801561003057600080fd5b5061003a3361004b565b600d8054600101815560005261009b565b600080546001600160a01b038381166001600160a01b0319831681178455604051919092169283917f8be0079c531659141344cd1fd0a4f28419497f9722a3daafe3b4186f6b6457e09190a35050565b612979806100aa6000396000f3fe6080604052600436106102255760003560e01c8063705498dc1161012357806397f34c3f116100ab578063ce28613f1161006f578063ce28613f14610699578063e847ae1e146106b9578063e89d5a89146106d9578063f2fde38b146106fe578063fa3993c21461071e57600080fd5b806397f34c3f146105eb578063aa3eb1b51461060b578063b78e66511461061e578063bdb4b8481461064b578063bfb231d21461066157600080fd5b80638214f222116100f25780638214f2221461052c5780638ac031b31461054c5780638da5cb5b1461056c578063951fc3fe1461058a578063955a015b146105cb57600080fd5b8063705498dc146104cb578063715018a6146104eb5780637420aa361461050057806376c8aa271461052057600080fd5b80631ef2688c116101b1578063501f978411610175578063501f97841461041957806353011696146104395780635dc969671461046b5780635f09c7821461048b57806364db84bf146104ab57600080fd5b80631ef2688c1461036d5780631f7b4f301461038d5780633838aed1146103ad5780633841fae1146103c2578063471a4294146103ef57600080fd5b8063150b7a02116101f8578063150b7a02146102b1578063154fa27a146102ea578063185ae9dc1461030a5780631b5ac4b51461032a5780631e1de2051461035857600080fd5b80630364f88c1461022a5780630fd8e8331461026757806311ff704714610271578063129f090314610291575b600080fd5b34801561023657600080fd5b5060025461024a906001600160a01b031681565b6040516001600160a01b0390911681526020015b60405180910390f35b61026f61073e565b005b34801561027d57600080fd5b5061026f61028c366004611fdc565b61082f565b34801561029d57600080fd5b5060075461024a906001600160a01b031681565b3480156102bd57600080fd5b506102d16102cc366004612057565b610ade565b6040516001600160e01b0319909116815260200161025e565b3480156102f657600080fd5b5060035461024a906001600160a01b031681565b34801561031657600080fd5b5060055461024a906001600160a01b031681565b34801561033657600080fd5b5061034a6103453660046120f6565b610b1b565b60405190815260200161025e565b34801561036457600080fd5b5061034a610b3b565b34801561037957600080fd5b5061026f61038836600461210f565b610ba6565b34801561039957600080fd5b5061034a6103a83660046120f6565b610da7565b3480156103b957600080fd5b5061026f610e03565b3480156103ce57600080fd5b506103e26103dd3660046120f6565b610e48565b60405161025e919061216e565b3480156103fb57600080fd5b506009546104099060ff1681565b604051901515815260200161025e565b34801561042557600080fd5b5061026f6104343660046120f6565b610eaa565b34801561044557600080fd5b506104596104543660046121b2565b610eca565b60405160ff909116815260200161025e565b34801561047757600080fd5b506104096104863660046121e4565b610f07565b34801561049757600080fd5b5061026f6104a6366004612210565b610fa4565b3480156104b757600080fd5b5061034a6104c6366004612210565b6110cc565b3480156104d757600080fd5b5060045461024a906001600160a01b031681565b3480156104f757600080fd5b5061026f6110e4565b34801561050c57600080fd5b5061026f61051b366004612232565b6110f6565b34801561026f57600080fd5b34801561053857600080fd5b5061034a6105473660046120f6565b611111565b34801561055857600080fd5b5061034a610567366004612210565b61118b565b34801561057857600080fd5b506000546001600160a01b031661024a565b34801561059657600080fd5b506105aa6105a53660046122ec565b6111bc565b60408051825160ff908116825260209384015116928101929092520161025e565b3480156105d757600080fd5b5060065461024a906001600160a01b031681565b3480156105f757600080fd5b506104596106063660046121e4565b6112e6565b61026f610619366004612319565b611311565b34801561062a57600080fd5b5061063e6106393660046120f6565b61141e565b60405161025e9190612383565b34801561065757600080fd5b5061034a60085481565b34801561066d57600080fd5b5061068161067c3660046120f6565b61164f565b60405161025e9c9b9a99989796959493929190612461565b3480156106a557600080fd5b506104596106b43660046124dd565b6116d4565b3480156106c557600080fd5b5061026f6106d4366004612507565b611775565b3480156106e557600080fd5b5060095461024a9061010090046001600160a01b031681565b34801561070a57600080fd5b5061026f610719366004612578565b6117e6565b34801561072a57600080fd5b5061034a610739366004612595565b61185c565b6000546001600160a01b0316331480610758575060085434145b61079d5760405162461bcd60e51b8152602060048201526011602482015270125b98dbdc9c9958dd081c185e5b595b9d607a1b60448201526064015b60405180910390fd5b6000546001600160a01b03163314806107bd575060095460ff1615156001145b6108015760405162461bcd60e51b81526020600482015260156024820152744d696e74696e67206973206e6f742061637469766560581b6044820152606401610794565b6000546001600160a01b031633148061082457506003546001600160a01b031633145b61082d57600080fd5b565b6005546001600160a01b031633146108805760405162461bcd60e51b8152602060048201526014602482015273139bdd081858dd1a5bdb9cc818dbdb9d1c9858dd60621b6044820152606401610794565b6007546000906001600160a01b0316636621a421600b888885816108a6576108a66125c1565b90506020020135815481106108bd576108bd6125c1565b9060005260206000209060070201600301546040518263ffffffff1660e01b81526004016108ed91815260200190565b602060405180830381865afa15801561090a573d6000803e3d6000fd5b505050506040513d601f19601f8201168201806040525081019061092e91906125d7565b905060005b85811015610a6a576004546001600160a01b03166307084e56600084600b8b8b87818110610963576109636125c1565b905060200201358154811061097a5761097a6125c1565b60009182526020909120600260079092020101546040516001600160e01b031960e086901b1681526001600160a01b0393841660048201529290911660248301526044820152606401600060405180830381600087803b1580156109dd57600080fd5b505af11580156109f1573d6000803e3d6000fd5b50505050610a1783888884818110610a0b57610a0b6125c1565b90506020020135611924565b6000600b888884818110610a2d57610a2d6125c1565b9050602002013581548110610a4457610a446125c1565b600091825260209091206003600790920201015580610a628161260a565b915050610933565b506006546040516301b06a8d60e31b81526001600160a01b0390911690630d83546890610aa3908a908a908a908a908a90600401612655565b600060405180830381600087803b158015610abd57600080fd5b505af1158015610ad1573d6000803e3d6000fd5b5050505050505050505050565b6040516000907f544c765b33ca411cce832250371569244f765a17fcd217832be093f0fd5fa45b908290a150630a85bd0160e11b95945050505050565b600080821215610b3357610b2e82612683565b610b35565b815b92915050565b6001805460009182610b4c8361260a565b91905055506001544233604051602001610b8b93929190928352602083019190915260601b6bffffffffffffffffffffffff1916604082015260540190565b60405160208183030381529060405280519060200120905090565b6005546001600160a01b03163314610bf75760405162461bcd60e51b8152602060048201526014602482015273139bdd081858dd1a5bdb9cc818dbdb9d1c9858dd60621b6044820152606401610794565b60005b82811015610d3c576004546001600160a01b03166307084e56836000600b888887818110610c2a57610c2a6125c1565b9050602002013581548110610c4157610c416125c1565b60009182526020909120600260079092020101546040516001600160e01b031960e086901b1681526001600160a01b0393841660048201529290911660248301526044820152606401600060405180830381600087803b158015610ca457600080fd5b505af1158015610cb8573d6000803e3d6000fd5b5050506000868152600c602052604090209050848483818110610cdd57610cdd6125c1565b83546001810185556000948552602094859020919094029290920135919092015550600b805486919082908110610d1657610d166125c1565b600091825260209091206003600790920201015580610d348161260a565b915050610bfa565b50600654604051634ded13c560e11b81526001600160a01b0390911690639bda278a90610d6f908690869060040161269f565b600060405180830381600087803b158015610d8957600080fd5b505af1158015610d9d573d6000803e3d6000fd5b5050505050505050565b600080610db6600160066116d4565b60ff1690507ffe34d093a460a16ee5fb374540914d1c734a17502c0c1a87b387c8d6097e1c518382604051610df5929190918252602082015260400190565b60405180910390a192915050565b610e0b611a70565b600080546040516001600160a01b03909116914780156108fc02929091818181858888f19350505050158015610e45573d6000803e3d6000fd5b50565b6000818152600c6020908152604091829020805483518184028101840190945280845260609392830182828015610e9e57602002820191906000526020600020905b815481526020019060010190808311610e8a575b50505050509050919050565b610eb2611a70565b610ec481670de0b6b3a76400006126b3565b60085550565b600080610ed786866126ca565b9050600083610ee686846126b3565b610ef091906126f3565b9050610efc8782612707565b979650505050505050565b600080610f1385610da7565b6040805187815260208101839052908101869052606081018590529091507f75b6a8325595f91135e07382840634226793c68c9e59623da7e10d7ad3d95b959060800160405180910390a180600103610f70576000915050610f9d565b600383610f7d8684612707565b610f87919061271a565b1315610f97576001915050610f9d565b60009150505b9392505050565b6003546001600160a01b03163314610ff25760405162461bcd60e51b8152602060048201526011602482015270139bdd0819d85b594818dbdb9d1c9858dd607a1b6044820152606401610794565b6000600b8281548110611007576110076125c1565b9060005260206000209060070201600301819055506000600b8281548110611031576110316125c1565b600091825260209091206006600790920201018054911515650100000000000265ff00000000001990921691909117905560048054604051630852cd8d60e31b81529182018390526001600160a01b0316906342966c6890602401600060405180830381600087803b1580156110a657600080fd5b505af11580156110ba573d6000803e3d6000fd5b505050506110c88282611924565b5050565b6000816110da8460046126b3565b610f9d9190612707565b6110ec611a70565b61082d6000611aca565b6110fe611a70565b6009805460ff1916911515919091179055565b60008160000361112357506001919050565b8160010361113357506000919050565b8160020361114357506003919050565b8160030361115357506002919050565b60405162461bcd60e51b815260206004820152600d60248201526c2130b2103234b932b1ba34b7b760991b6044820152606401610794565b600c60205281600052604060002081815481106111a757600080fd5b90600052602060002001600091509150505481565b60408051808201909152600080825260208201528260000361120e576040518060400160405280600184600001516111f49190612741565b60ff168152602001836020015160ff168152509050610b35565b82600103611232576040518060400160405280836000015160016111f4919061275a565b8260020361126f576040518060400160405280836000015160ff16815260200183602001516001611263919061275a565b60ff1690529050610b35565b826003036112a0576040518060400160405280836000015160ff168152602001600184602001516112639190612741565b60006112ab84611b1a565b6040516020016112bb9190612797565b60405160208183030381529060405290508060405162461bcd60e51b815260040161079491906127d2565b6000808260016112f78660026128e9565b61130191906126ca565b901b8516831c9150509392505050565b600854604080516602830bcb2b21d160cd1b60208201523460278201526a0161031b7b9ba1034b99d160ad1b60478201526052808201939093528151808203909301835260720190526000546001600160a01b0316331480611374575060085434145b81906113935760405162461bcd60e51b815260040161079491906127d2565b506000546001600160a01b03163314806113b757506003546001600160a01b031633145b806113cc57506005546001600160a01b031633145b61140f5760405162461bcd60e51b815260206004820152601460248201527310dbdb9d1c9858dd081b9bdd08185b1b1bddd95960621b6044820152606401610794565b6114198383611c23565b505050565b6000818152600c6020526040812054606091819003611470576040805160008082526020820190925290611468565b611455611ebb565b81526020019060019003908161144d5790505b509392505050565b60008167ffffffffffffffff81111561148b5761148b612254565b6040519080825280602002602001820160405280156114c457816020015b6114b1611ebb565b8152602001906001900390816114a95790505b50905060005b8151811015611468576000858152600c602052604090208054600b9190839081106114f7576114f76125c1565b906000526020600020015481548110611512576115126125c1565b9060005260206000209060070201604051806101800160405290816000820154815260200160018201548152602001600282015481526020016003820154815260200160048201548152602001600582015481526020016006820160009054906101000a900460ff16600281111561158c5761158c612349565b600281111561159d5761159d612349565b8152600682015460ff6101008204811660208401526201000082048116604084015260609092019163010000009091041660038111156115df576115df612349565b60038111156115f0576115f0612349565b81526006919091015460ff640100000000820481166020840152650100000000009091041615156040909101528251839083908110611631576116316125c1565b602002602001018190525080806116479061260a565b9150506114ca565b600b818154811061165f57600080fd5b60009182526020909120600790910201805460018201546002830154600384015460048501546005860154600690960154949650929491939092919060ff808216916101008104821691620100008204811691630100000081048216916401000000008204811691650100000000009004168c565b60018054600091826116e58361260a565b90915550506001546040516bffffffffffffffffffffffff193360601b166020820152603481019190915242605482015260009060740160408051601f198184030181529190528051602090910120905060006117428585612741565b61174d90600161275a565b90508460ff168160ff168361176291906128f5565b61176c9190612707565b95945050505050565b61177d611a70565b600280546001600160a01b039687166001600160a01b031991821617909155600380549587169582168617905560068054821690951790945560048054938616938516939093179092556005805491851691841691909117905560078054919093169116179055565b6117ee611a70565b6001600160a01b0381166118535760405162461bcd60e51b815260206004820152602660248201527f4f776e61626c653a206e6577206f776e657220697320746865207a65726f206160448201526564647265737360d01b6064820152608401610794565b610e4581611aca565b8051825160009161186c91612909565b60000b60010361187e57506000610b35565b8151835161188c9190612909565b60000b1961189c57506001610b35565b816020015183602001516118b09190612909565b60000b196118c057506002610b35565b816020015183602001516118d49190612909565b60000b6001036118e657506003610b35565b60405162461bcd60e51b8152602060048201526013602482015272115c9c9bdc8e88139bdd0818591a9858d95b9d606a1b6044820152606401610794565b6000828152600c602052604081205461193f906001906126ca565b67ffffffffffffffff81111561195757611957612254565b604051908082528060200260200182016040528015611980578160200160208202803683370190505b5090506000805b6000858152600c6020526040902054811015611a49576000858152600c602052604090208054859190839081106119c0576119c06125c1565b9060005260206000200154036119e257816119da8161260a565b925050611a37565b6000858152600c60205260409020805482908110611a0257611a026125c1565b9060005260206000200154838383611a1a91906126ca565b81518110611a2a57611a2a6125c1565b6020026020010181815250505b80611a418161260a565b915050611987565b506000848152600c602090815260409091208351611a6992850190611f30565b5050505050565b6000546001600160a01b0316331461082d5760405162461bcd60e51b815260206004820181905260248201527f4f776e61626c653a2063616c6c6572206973206e6f7420746865206f776e65726044820152606401610794565b600080546001600160a01b038381166001600160a01b0319831681178455604051919092169283917f8be0079c531659141344cd1fd0a4f28419497f9722a3daafe3b4186f6b6457e09190a35050565b606081600003611b415750506040805180820190915260018152600360fc1b602082015290565b8160005b8115611b6b5780611b558161260a565b9150611b649050600a836126f3565b9150611b45565b60008167ffffffffffffffff811115611b8657611b86612254565b6040519080825280601f01601f191660200182016040528015611bb0576020820181803683370190505b5090505b8415611c1b57611bc56001836126ca565b9150611bd2600a866128f5565b611bdd906030612707565b60f81b818381518110611bf257611bf26125c1565b60200101906001600160f81b031916908160001a905350611c14600a866126f3565b9450611bb4565b949350505050565b600480546040516309b6507f60e41b8152808301929092526000602483018190526001600160a01b0384811660448501529092911690639b6507f09064174876e8009060640160206040518083038185885af1158015611c87573d6000803e3d6000fd5b50505050506040513d601f19601f82011682018060405250810190611cac919061292a565b60048054604051632851838160e01b81529182018390529192506000916001600160a01b031690632851838190602401602060405180830381865afa158015611cf9573d6000803e3d6000fd5b505050506040513d601f19601f82011682018060405250810190611d1d919061292a565b600b805460018181018355600083905260079091027f0175b7a638427703f0dbe7bb9bbf987a2551717b34e79f33b5b1008d1fa01db90183815591549293509091611d6891906126ca565b60018083019190915560028201849055600382018690556004808301829055600060058401819055600b92611da49286929091610606916110cc565b60ff161015611db4576001611db7565b60025b60068201805460ff19166001836002811115611dd557611dd5612349565b021790555060068101805462ffff0019169055611e05611dfd836004610606600060016110cc565b60ff16611e81565b60068201805463ff00000019166301000000836003811115611e2957611e29612349565b021790555060068101805465ffff000000001916650101000000001790556000858152600c60205260409020600b54611e64906001906126ca565b815460018101835560009283526020909220909101555050505050565b600081600003611e9357506000919050565b81600003611ea357506000919050565b81600003611eb357506002919050565b506003919050565b60405180610180016040528060008019168152602001600081526020016000815260200160008152602001600081526020016000815260200160006002811115611f0757611f07612349565b815260006020820181905260408201819052606082018190526080820181905260a09091015290565b828054828255906000526020600020908101928215611f6b579160200282015b82811115611f6b578251825591602001919060010190611f50565b50611f77929150611f7b565b5090565b5b80821115611f775760008155600101611f7c565b60008083601f840112611fa257600080fd5b50813567ffffffffffffffff811115611fba57600080fd5b6020830191508360208260051b8501011115611fd557600080fd5b9250929050565b60008060008060008060a08789031215611ff557600080fd5b86359550602087013567ffffffffffffffff81111561201357600080fd5b61201f89828a01611f90565b979a90995096976040810135976060820135975060809091013595509350505050565b6001600160a01b0381168114610e4557600080fd5b60008060008060006080868803121561206f57600080fd5b853561207a81612042565b9450602086013561208a81612042565b935060408601359250606086013567ffffffffffffffff808211156120ae57600080fd5b818801915088601f8301126120c257600080fd5b8135818111156120d157600080fd5b8960208285010111156120e357600080fd5b9699959850939650602001949392505050565b60006020828403121561210857600080fd5b5035919050565b6000806000806060858703121561212557600080fd5b84359350602085013567ffffffffffffffff81111561214357600080fd5b61214f87828801611f90565b909450925050604085013561216381612042565b939692955090935050565b6020808252825182820181905260009190848201906040850190845b818110156121a65783518352928401929184019160010161218a565b50909695505050505050565b600080600080608085870312156121c857600080fd5b5050823594602084013594506040840135936060013592509050565b6000806000606084860312156121f957600080fd5b505081359360208301359350604090920135919050565b6000806040838503121561222357600080fd5b50508035926020909101359150565b60006020828403121561224457600080fd5b81358015158114610f9d57600080fd5b634e487b7160e01b600052604160045260246000fd5b803560ff8116811461227b57600080fd5b919050565b60006040828403121561229257600080fd5b6040516040810181811067ffffffffffffffff821117156122c357634e487b7160e01b600052604160045260246000fd5b6040529050806122d28361226a565b81526122e06020840161226a565b60208201525092915050565b600080606083850312156122ff57600080fd5b823591506123108460208501612280565b90509250929050565b6000806040838503121561232c57600080fd5b82359150602083013561233e81612042565b809150509250929050565b634e487b7160e01b600052602160045260246000fd5b6003811061236f5761236f612349565b9052565b6004811061236f5761236f612349565b602080825282518282018190526000919060409081850190868401855b828110156124545781518051855286810151878601528581015186860152606080820151908601526080808201519086015260a0808201519086015260c0808201516123ee8288018261235f565b505060e08181015160ff81168783015250506101008181015160ff81168783015250506101208082015161242482880182612373565b50506101408181015160ff16908601526101609081015115159085015261018090930192908501906001016123a0565b5091979650505050505050565b6000610180820190508d82528c60208301528b60408301528a60608301528960808301528860a083015261249860c083018961235f565b60ff871660e083015260ff86166101008301526124b9610120830186612373565b60ff84166101408301528215156101608301529d9c50505050505050505050505050565b600080604083850312156124f057600080fd5b6124f98361226a565b91506123106020840161226a565b600080600080600060a0868803121561251f57600080fd5b853561252a81612042565b9450602086013561253a81612042565b9350604086013561254a81612042565b9250606086013561255a81612042565b9150608086013561256a81612042565b809150509295509295909350565b60006020828403121561258a57600080fd5b8135610f9d81612042565b600080608083850312156125a857600080fd5b6125b28484612280565b91506123108460408501612280565b634e487b7160e01b600052603260045260246000fd5b6000602082840312156125e957600080fd5b8151610f9d81612042565b634e487b7160e01b600052601160045260246000fd5b60006001820161261c5761261c6125f4565b5060010190565b81835260006001600160fb1b0383111561263c57600080fd5b8260051b80836020870137939093016020019392505050565b85815260806020820152600061266f608083018688612623565b604083019490945250606001529392505050565b6000600160ff1b8201612698576126986125f4565b5060000390565b602081526000611c1b602083018486612623565b8082028115828204841417610b3557610b356125f4565b81810381811115610b3557610b356125f4565b634e487b7160e01b600052601260045260246000fd5b600082612702576127026126dd565b500490565b80820180821115610b3557610b356125f4565b818103600083128015838313168383128216171561273a5761273a6125f4565b5092915050565b60ff8281168282160390811115610b3557610b356125f4565b60ff8181168382160190811115610b3557610b356125f4565b60005b8381101561278e578181015183820152602001612776565b50506000910152565b72024b73b30b634b2103234b932b1ba34b7b71d1606d1b8152600082516127c5816013850160208701612773565b9190910160130192915050565b60208152600082518060208401526127f1816040850160208701612773565b601f01601f19169190910160400192915050565b600181815b80851115612840578160001904821115612826576128266125f4565b8085161561283357918102915b93841c939080029061280a565b509250929050565b60008261285757506001610b35565b8161286457506000610b35565b816001811461287a5760028114612884576128a0565b6001915050610b35565b60ff841115612895576128956125f4565b50506001821b610b35565b5060208310610133831016604e8410600b84101617156128c3575081810a610b35565b6128cd8383612805565b80600019048211156128e1576128e16125f4565b029392505050565b6000610f9d8383612848565b600082612904576129046126dd565b500690565b600082810b9082900b03607f198112607f82131715610b3557610b356125f4565b60006020828403121561293c57600080fd5b505191905056fea26469706673582212207e704e42c6d6a9597ec2adaf569ae1d5cbedfebe93cb61c7d240cc0394648fc564736f6c63430008110033",
  "devdoc": {
    "kind": "dev",
    "methods": {
      "owner()": {
        "details": "Returns the address of the current owner."
      },
      "renounceOwnership()": {
        "details": "Leaves the contract without owner. It will not be possible to call `onlyOwner` functions anymore. Can only be called by the current owner. NOTE: Renouncing ownership will leave the contract without an owner, thereby removing any functionality that is only available to the owner."
      },
      "transferOwnership(address)": {
        "details": "Transfers ownership of the contract to a new account (`newOwner`). Can only be called by the current owner."
      }
    },
    "version": 1
  },
  "userdoc": {
    "kind": "user",
    "methods": {},
    "version": 1
  },
  "storageLayout": {
    "storage": [
      {
        "astId": 7,
        "contract": "contracts/BCItems.sol:BCItems",
        "label": "_owner",
        "offset": 0,
        "slot": "0",
        "type": "t_address"
      },
      {
        "astId": 15022,
        "contract": "contracts/BCItems.sol:BCItems",
        "label": "TODO_randomSeed",
        "offset": 0,
        "slot": "1",
        "type": "t_uint256"
      },
      {
        "astId": 9926,
        "contract": "contracts/BCItems.sol:BCItems",
        "label": "lobbies",
        "offset": 0,
        "slot": "2",
        "type": "t_contract(LobbyInterface)9835"
      },
      {
        "astId": 9928,
        "contract": "contracts/BCItems.sol:BCItems",
        "label": "gamesContract",
        "offset": 0,
        "slot": "3",
        "type": "t_address"
      },
      {
        "astId": 9931,
        "contract": "contracts/BCItems.sol:BCItems",
        "label": "uif",
        "offset": 0,
        "slot": "4",
        "type": "t_contract(UIFInterface)9909"
      },
      {
        "astId": 9933,
        "contract": "contracts/BCItems.sol:BCItems",
        "label": "actionsContract",
        "offset": 0,
        "slot": "5",
        "type": "t_address"
      },
      {
        "astId": 9936,
        "contract": "contracts/BCItems.sol:BCItems",
        "label": "games",
        "offset": 0,
        "slot": "6",
        "type": "t_contract(GameInterface)9854"
      },
      {
        "astId": 9939,
        "contract": "contracts/BCItems.sol:BCItems",
        "label": "playersContract",
        "offset": 0,
        "slot": "7",
        "type": "t_contract(PlayersContract)9917"
      },
      {
        "astId": 9990,
        "contract": "contracts/BCItems.sol:BCItems",
        "label": "mintCost",
        "offset": 0,
        "slot": "8",
        "type": "t_uint256"
      },
      {
        "astId": 9993,
        "contract": "contracts/BCItems.sol:BCItems",
        "label": "mintIsActive",
        "offset": 0,
        "slot": "9",
        "type": "t_bool"
      },
      {
        "astId": 9997,
        "contract": "contracts/BCItems.sol:BCItems",
        "label": "allowedContract",
        "offset": 1,
        "slot": "9",
        "type": "t_address"
      },
      {
        "astId": 10000,
        "contract": "contracts/BCItems.sol:BCItems",
        "label": "randSeed",
        "offset": 0,
        "slot": "10",
        "type": "t_uint256"
      },
      {
        "astId": 10004,
        "contract": "contracts/BCItems.sol:BCItems",
        "label": "items",
        "offset": 0,
        "slot": "11",
        "type": "t_array(t_struct(Item)14994_storage)dyn_storage"
      },
      {
        "astId": 10009,
        "contract": "contracts/BCItems.sol:BCItems",
        "label": "playerToItems",
        "offset": 0,
        "slot": "12",
        "type": "t_mapping(t_uint256,t_array(t_uint256)dyn_storage)"
      },
      {
        "astId": 10013,
        "contract": "contracts/BCItems.sol:BCItems",
        "label": "itemTraitModifiers",
        "offset": 0,
        "slot": "13",
        "type": "t_array(t_struct(Traits)14938_storage)dyn_storage"
      }
    ],
    "types": {
      "t_address": {
        "encoding": "inplace",
        "label": "address",
        "numberOfBytes": "20"
      },
      "t_array(t_struct(Item)14994_storage)dyn_storage": {
        "base": "t_struct(Item)14994_storage",
        "encoding": "dynamic_array",
        "label": "struct BCTypes.Item[]",
        "numberOfBytes": "32"
      },
      "t_array(t_struct(Traits)14938_storage)dyn_storage": {
        "base": "t_struct(Traits)14938_storage",
        "encoding": "dynamic_array",
        "label": "struct BCTypes.Traits[]",
        "numberOfBytes": "32"
      },
      "t_array(t_uint256)dyn_storage": {
        "base": "t_uint256",
        "encoding": "dynamic_array",
        "label": "uint256[]",
        "numberOfBytes": "32"
      },
      "t_bool": {
        "encoding": "inplace",
        "label": "bool",
        "numberOfBytes": "1"
      },
      "t_bytes32": {
        "encoding": "inplace",
        "label": "bytes32",
        "numberOfBytes": "32"
      },
      "t_contract(GameInterface)9854": {
        "encoding": "inplace",
        "label": "contract GameInterface",
        "numberOfBytes": "20"
      },
      "t_contract(LobbyInterface)9835": {
        "encoding": "inplace",
        "label": "contract LobbyInterface",
        "numberOfBytes": "20"
      },
      "t_contract(PlayersContract)9917": {
        "encoding": "inplace",
        "label": "contract PlayersContract",
        "numberOfBytes": "20"
      },
      "t_contract(UIFInterface)9909": {
        "encoding": "inplace",
        "label": "contract UIFInterface",
        "numberOfBytes": "20"
      },
      "t_enum(ItemCategory)14962": {
        "encoding": "inplace",
        "label": "enum BCTypes.ItemCategory",
        "numberOfBytes": "1"
      },
      "t_enum(ItemType)14967": {
        "encoding": "inplace",
        "label": "enum BCTypes.ItemType",
        "numberOfBytes": "1"
      },
      "t_int8": {
        "encoding": "inplace",
        "label": "int8",
        "numberOfBytes": "1"
      },
      "t_mapping(t_uint256,t_array(t_uint256)dyn_storage)": {
        "encoding": "mapping",
        "key": "t_uint256",
        "label": "mapping(uint256 => uint256[])",
        "numberOfBytes": "32",
        "value": "t_array(t_uint256)dyn_storage"
      },
      "t_struct(Item)14994_storage": {
        "encoding": "inplace",
        "label": "struct BCTypes.Item",
        "members": [
          {
            "astId": 14969,
            "contract": "contracts/BCItems.sol:BCItems",
            "label": "genHash",
            "offset": 0,
            "slot": "0",
            "type": "t_bytes32"
          },
          {
            "astId": 14971,
            "contract": "contracts/BCItems.sol:BCItems",
            "label": "id",
            "offset": 0,
            "slot": "1",
            "type": "t_uint256"
          },
          {
            "astId": 14973,
            "contract": "contracts/BCItems.sol:BCItems",
            "label": "uifID",
            "offset": 0,
            "slot": "2",
            "type": "t_uint256"
          },
          {
            "astId": 14975,
            "contract": "contracts/BCItems.sol:BCItems",
            "label": "holdingPlayerId",
            "offset": 0,
            "slot": "3",
            "type": "t_uint256"
          },
          {
            "astId": 14977,
            "contract": "contracts/BCItems.sol:BCItems",
            "label": "weight",
            "offset": 0,
            "slot": "4",
            "type": "t_uint256"
          },
          {
            "astId": 14979,
            "contract": "contracts/BCItems.sol:BCItems",
            "label": "traitModID",
            "offset": 0,
            "slot": "5",
            "type": "t_uint256"
          },
          {
            "astId": 14982,
            "contract": "contracts/BCItems.sol:BCItems",
            "label": "itemCategory",
            "offset": 0,
            "slot": "6",
            "type": "t_enum(ItemCategory)14962"
          },
          {
            "astId": 14984,
            "contract": "contracts/BCItems.sol:BCItems",
            "label": "grantsAbility",
            "offset": 1,
            "slot": "6",
            "type": "t_uint8"
          },
          {
            "astId": 14986,
            "contract": "contracts/BCItems.sol:BCItems",
            "label": "grantsFlaw",
            "offset": 2,
            "slot": "6",
            "type": "t_uint8"
          },
          {
            "astId": 14989,
            "contract": "contracts/BCItems.sol:BCItems",
            "label": "itemType",
            "offset": 3,
            "slot": "6",
            "type": "t_enum(ItemType)14967"
          },
          {
            "astId": 14991,
            "contract": "contracts/BCItems.sol:BCItems",
            "label": "power",
            "offset": 4,
            "slot": "6",
            "type": "t_uint8"
          },
          {
            "astId": 14993,
            "contract": "contracts/BCItems.sol:BCItems",
            "label": "inGame",
            "offset": 5,
            "slot": "6",
            "type": "t_bool"
          }
        ],
        "numberOfBytes": "224"
      },
      "t_struct(Traits)14938_storage": {
        "encoding": "inplace",
        "label": "struct BCTypes.Traits",
        "members": [
          {
            "astId": 14925,
            "contract": "contracts/BCItems.sol:BCItems",
            "label": "health",
            "offset": 0,
            "slot": "0",
            "type": "t_int8"
          },
          {
            "astId": 14927,
            "contract": "contracts/BCItems.sol:BCItems",
            "label": "carry",
            "offset": 1,
            "slot": "0",
            "type": "t_int8"
          },
          {
            "astId": 14929,
            "contract": "contracts/BCItems.sol:BCItems",
            "label": "defense",
            "offset": 2,
            "slot": "0",
            "type": "t_int8"
          },
          {
            "astId": 14931,
            "contract": "contracts/BCItems.sol:BCItems",
            "label": "hack",
            "offset": 3,
            "slot": "0",
            "type": "t_int8"
          },
          {
            "astId": 14933,
            "contract": "contracts/BCItems.sol:BCItems",
            "label": "breach",
            "offset": 4,
            "slot": "0",
            "type": "t_int8"
          },
          {
            "astId": 14935,
            "contract": "contracts/BCItems.sol:BCItems",
            "label": "shoot",
            "offset": 5,
            "slot": "0",
            "type": "t_int8"
          },
          {
            "astId": 14937,
            "contract": "contracts/BCItems.sol:BCItems",
            "label": "melee",
            "offset": 6,
            "slot": "0",
            "type": "t_int8"
          }
        ],
        "numberOfBytes": "32"
      },
      "t_uint256": {
        "encoding": "inplace",
        "label": "uint256",
        "numberOfBytes": "32"
      },
      "t_uint8": {
        "encoding": "inplace",
        "label": "uint8",
        "numberOfBytes": "1"
      }
    }
  }
}