{
  "address": "0x86ab684008368Ae131213335ae4eAe2f9adF49E6",
  "abi": [
    {
      "inputs": [],
      "stateMutability": "nonpayable",
      "type": "constructor"
    },
    {
      "anonymous": false,
      "inputs": [
        {
          "indexed": false,
          "internalType": "uint256",
          "name": "gameId",
          "type": "uint256"
        },
        {
          "indexed": false,
          "internalType": "uint256",
          "name": "roll",
          "type": "uint256"
        },
        {
          "indexed": false,
          "internalType": "uint256",
          "name": "forValue",
          "type": "uint256"
        },
        {
          "indexed": false,
          "internalType": "uint256",
          "name": "against",
          "type": "uint256"
        }
      ],
      "name": "ChallengeEvent",
      "type": "event"
    },
    {
      "anonymous": false,
      "inputs": [
        {
          "indexed": false,
          "internalType": "uint256",
          "name": "gameId",
          "type": "uint256"
        },
        {
          "indexed": false,
          "internalType": "uint256",
          "name": "roll",
          "type": "uint256"
        }
      ],
      "name": "DiceRollEvent",
      "type": "event"
    },
    {
      "anonymous": false,
      "inputs": [
        {
          "indexed": true,
          "internalType": "address",
          "name": "previousOwner",
          "type": "address"
        },
        {
          "indexed": true,
          "internalType": "address",
          "name": "newOwner",
          "type": "address"
        }
      ],
      "name": "OwnershipTransferred",
      "type": "event"
    },
    {
      "anonymous": false,
      "inputs": [],
      "name": "Received",
      "type": "event"
    },
    {
      "inputs": [
        {
          "internalType": "uint256",
          "name": "_matic",
          "type": "uint256"
        }
      ],
      "name": "SetMintCostInMatic",
      "outputs": [],
      "stateMutability": "nonpayable",
      "type": "function"
    },
    {
      "inputs": [
        {
          "internalType": "int256",
          "name": "x",
          "type": "int256"
        }
      ],
      "name": "abs",
      "outputs": [
        {
          "internalType": "int256",
          "name": "",
          "type": "int256"
        }
      ],
      "stateMutability": "pure",
      "type": "function"
    },
    {
      "inputs": [],
      "name": "actionsContract",
      "outputs": [
        {
          "internalType": "address",
          "name": "",
          "type": "address"
        }
      ],
      "stateMutability": "view",
      "type": "function"
    },
    {
      "inputs": [
        {
          "internalType": "uint256",
          "name": "_gameId",
          "type": "uint256"
        },
        {
          "internalType": "uint256[]",
          "name": "_playerIds",
          "type": "uint256[]"
        }
      ],
      "name": "addItemsToGame",
      "outputs": [],
      "stateMutability": "nonpayable",
      "type": "function"
    },
    {
      "inputs": [
        {
          "internalType": "uint256",
          "name": "_playerId",
          "type": "uint256"
        },
        {
          "internalType": "uint256[]",
          "name": "_itemIds",
          "type": "uint256[]"
        },
        {
          "internalType": "address",
          "name": "_owner",
          "type": "address"
        }
      ],
      "name": "addItemsToPlayer",
      "outputs": [],
      "stateMutability": "nonpayable",
      "type": "function"
    },
    {
      "inputs": [],
      "name": "commitItemToMission",
      "outputs": [],
      "stateMutability": "nonpayable",
      "type": "function"
    },
    {
      "inputs": [
        {
          "internalType": "uint256",
          "name": "_playerId",
          "type": "uint256"
        },
        {
          "internalType": "uint256",
          "name": "_itemId",
          "type": "uint256"
        }
      ],
      "name": "destroyItem",
      "outputs": [],
      "stateMutability": "nonpayable",
      "type": "function"
    },
    {
      "inputs": [
        {
          "internalType": "uint256",
          "name": "_gameId",
          "type": "uint256"
        },
        {
          "internalType": "uint256",
          "name": "_playerId",
          "type": "uint256"
        },
        {
          "internalType": "uint256",
          "name": "_row",
          "type": "uint256"
        },
        {
          "internalType": "uint256",
          "name": "_col",
          "type": "uint256"
        }
      ],
      "name": "dropAllItems",
      "outputs": [],
      "stateMutability": "nonpayable",
      "type": "function"
    },
    {
      "inputs": [],
      "name": "games",
      "outputs": [
        {
          "internalType": "contract GameInterface",
          "name": "",
          "type": "address"
        }
      ],
      "stateMutability": "view",
      "type": "function"
    },
    {
      "inputs": [],
      "name": "gamesContract",
      "outputs": [
        {
          "internalType": "address",
          "name": "",
          "type": "address"
        }
      ],
      "stateMutability": "view",
      "type": "function"
    },
    {
      "inputs": [
        {
          "components": [
            {
              "internalType": "uint8",
              "name": "row",
              "type": "uint8"
            },
            {
              "internalType": "uint8",
              "name": "col",
              "type": "uint8"
            }
          ],
          "internalType": "struct BCTypes.Position",
          "name": "_firstRoom",
          "type": "tuple"
        },
        {
          "components": [
            {
              "internalType": "uint8",
              "name": "row",
              "type": "uint8"
            },
            {
              "internalType": "uint8",
              "name": "col",
              "type": "uint8"
            }
          ],
          "internalType": "struct BCTypes.Position",
          "name": "_secondRoom",
          "type": "tuple"
        }
      ],
      "name": "getDirectionBetween",
      "outputs": [
        {
          "internalType": "uint256",
          "name": "",
          "type": "uint256"
        }
      ],
      "stateMutability": "pure",
      "type": "function"
    },
    {
      "inputs": [
        {
          "internalType": "uint256",
          "name": "_playerID",
          "type": "uint256"
        }
      ],
      "name": "getItemIDsByPlayer",
      "outputs": [
        {
          "internalType": "uint256[]",
          "name": "",
          "type": "uint256[]"
        }
      ],
      "stateMutability": "view",
      "type": "function"
    },
    {
      "inputs": [
        {
          "internalType": "uint256",
          "name": "_playerID",
          "type": "uint256"
        }
      ],
      "name": "getItemsByPlayer",
      "outputs": [
        {
          "components": [
            {
              "internalType": "bytes32",
              "name": "genHash",
              "type": "bytes32"
            },
            {
              "internalType": "uint256",
              "name": "id",
              "type": "uint256"
            },
            {
              "internalType": "uint256",
              "name": "uifID",
              "type": "uint256"
            },
            {
              "internalType": "uint256",
              "name": "holdingPlayerId",
              "type": "uint256"
            },
            {
              "internalType": "address",
              "name": "ownerAddress",
              "type": "address"
            },
            {
              "internalType": "uint256",
              "name": "weight",
              "type": "uint256"
            },
            {
              "internalType": "enum BCTypes.ItemCategory",
              "name": "itemCategory",
              "type": "uint8"
            },
            {
              "internalType": "uint8",
              "name": "grantsAbility",
              "type": "uint8"
            },
            {
              "internalType": "uint8",
              "name": "grantsFlaw",
              "type": "uint8"
            },
            {
              "internalType": "enum BCTypes.ItemType",
              "name": "itemType",
              "type": "uint8"
            },
            {
              "internalType": "uint8",
              "name": "power",
              "type": "uint8"
            },
            {
              "internalType": "uint256",
              "name": "currentGame",
              "type": "uint256"
            },
            {
              "internalType": "enum BCTypes.WorldItemStatus",
              "name": "status",
              "type": "uint8"
            },
            {
              "components": [
                {
                  "internalType": "uint8",
                  "name": "row",
                  "type": "uint8"
                },
                {
                  "internalType": "uint8",
                  "name": "col",
                  "type": "uint8"
                }
              ],
              "internalType": "struct BCTypes.Position",
              "name": "position",
              "type": "tuple"
            }
          ],
          "internalType": "struct BCTypes.Item[]",
          "name": "",
          "type": "tuple[]"
        }
      ],
      "stateMutability": "view",
      "type": "function"
    },
    {
      "inputs": [
        {
          "internalType": "uint256",
          "name": "_gameId",
          "type": "uint256"
        }
      ],
      "name": "getItemsIdsInGame",
      "outputs": [
        {
          "internalType": "uint256[]",
          "name": "",
          "type": "uint256[]"
        }
      ],
      "stateMutability": "view",
      "type": "function"
    },
    {
      "inputs": [
        {
          "internalType": "uint256",
          "name": "_direction",
          "type": "uint256"
        },
        {
          "components": [
            {
              "internalType": "uint8",
              "name": "row",
              "type": "uint8"
            },
            {
              "internalType": "uint8",
              "name": "col",
              "type": "uint8"
            }
          ],
          "internalType": "struct BCTypes.Position",
          "name": "_start",
          "type": "tuple"
        }
      ],
      "name": "getNeighborRoom",
      "outputs": [
        {
          "components": [
            {
              "internalType": "uint8",
              "name": "row",
              "type": "uint8"
            },
            {
              "internalType": "uint8",
              "name": "col",
              "type": "uint8"
            }
          ],
          "internalType": "struct BCTypes.Position",
          "name": "",
          "type": "tuple"
        }
      ],
      "stateMutability": "pure",
      "type": "function"
    },
    {
      "inputs": [
        {
          "internalType": "address",
          "name": "_address",
          "type": "address"
        }
      ],
      "name": "getOwnedItemIds",
      "outputs": [
        {
          "internalType": "uint256[]",
          "name": "",
          "type": "uint256[]"
        }
      ],
      "stateMutability": "view",
      "type": "function"
    },
    {
      "inputs": [
        {
          "internalType": "address",
          "name": "_address",
          "type": "address"
        }
      ],
      "name": "getOwnedItems",
      "outputs": [
        {
          "components": [
            {
              "internalType": "bytes32",
              "name": "genHash",
              "type": "bytes32"
            },
            {
              "internalType": "uint256",
              "name": "id",
              "type": "uint256"
            },
            {
              "internalType": "uint256",
              "name": "uifID",
              "type": "uint256"
            },
            {
              "internalType": "uint256",
              "name": "holdingPlayerId",
              "type": "uint256"
            },
            {
              "internalType": "address",
              "name": "ownerAddress",
              "type": "address"
            },
            {
              "internalType": "uint256",
              "name": "weight",
              "type": "uint256"
            },
            {
              "internalType": "enum BCTypes.ItemCategory",
              "name": "itemCategory",
              "type": "uint8"
            },
            {
              "internalType": "uint8",
              "name": "grantsAbility",
              "type": "uint8"
            },
            {
              "internalType": "uint8",
              "name": "grantsFlaw",
              "type": "uint8"
            },
            {
              "internalType": "enum BCTypes.ItemType",
              "name": "itemType",
              "type": "uint8"
            },
            {
              "internalType": "uint8",
              "name": "power",
              "type": "uint8"
            },
            {
              "internalType": "uint256",
              "name": "currentGame",
              "type": "uint256"
            },
            {
              "internalType": "enum BCTypes.WorldItemStatus",
              "name": "status",
              "type": "uint8"
            },
            {
              "components": [
                {
                  "internalType": "uint8",
                  "name": "row",
                  "type": "uint8"
                },
                {
                  "internalType": "uint8",
                  "name": "col",
                  "type": "uint8"
                }
              ],
              "internalType": "struct BCTypes.Position",
              "name": "position",
              "type": "tuple"
            }
          ],
          "internalType": "struct BCTypes.Item[]",
          "name": "",
          "type": "tuple[]"
        }
      ],
      "stateMutability": "view",
      "type": "function"
    },
    {
      "inputs": [
        {
          "internalType": "uint256",
          "name": "_playerId",
          "type": "uint256"
        }
      ],
      "name": "getTraitModifiers",
      "outputs": [
        {
          "components": [
            {
              "internalType": "int8",
              "name": "health",
              "type": "int8"
            },
            {
              "internalType": "int8",
              "name": "carry",
              "type": "int8"
            },
            {
              "internalType": "int8",
              "name": "defense",
              "type": "int8"
            },
            {
              "internalType": "int8",
              "name": "hack",
              "type": "int8"
            },
            {
              "internalType": "int8",
              "name": "breach",
              "type": "int8"
            },
            {
              "internalType": "int8",
              "name": "shoot",
              "type": "int8"
            },
            {
              "internalType": "int8",
              "name": "melee",
              "type": "int8"
            }
          ],
          "internalType": "struct BCTypes.Traits",
          "name": "",
          "type": "tuple"
        }
      ],
      "stateMutability": "view",
      "type": "function"
    },
    {
      "inputs": [
        {
          "internalType": "uint256",
          "name": "_traitNum",
          "type": "uint256"
        },
        {
          "internalType": "uint256",
          "name": "_subTraitNum",
          "type": "uint256"
        }
      ],
      "name": "getUIOffset",
      "outputs": [
        {
          "internalType": "uint256",
          "name": "",
          "type": "uint256"
        }
      ],
      "stateMutability": "pure",
      "type": "function"
    },
    {
      "inputs": [
        {
          "internalType": "uint256",
          "name": "_gameId",
          "type": "uint256"
        }
      ],
      "name": "getWorldItemIds",
      "outputs": [
        {
          "internalType": "uint256[]",
          "name": "",
          "type": "uint256[]"
        }
      ],
      "stateMutability": "view",
      "type": "function"
    },
    {
      "inputs": [
        {
          "internalType": "uint256",
          "name": "_gameId",
          "type": "uint256"
        }
      ],
      "name": "getWorldItems",
      "outputs": [
        {
          "components": [
            {
              "internalType": "bytes32",
              "name": "genHash",
              "type": "bytes32"
            },
            {
              "internalType": "uint256",
              "name": "id",
              "type": "uint256"
            },
            {
              "internalType": "uint256",
              "name": "uifID",
              "type": "uint256"
            },
            {
              "internalType": "uint256",
              "name": "holdingPlayerId",
              "type": "uint256"
            },
            {
              "internalType": "address",
              "name": "ownerAddress",
              "type": "address"
            },
            {
              "internalType": "uint256",
              "name": "weight",
              "type": "uint256"
            },
            {
              "internalType": "enum BCTypes.ItemCategory",
              "name": "itemCategory",
              "type": "uint8"
            },
            {
              "internalType": "uint8",
              "name": "grantsAbility",
              "type": "uint8"
            },
            {
              "internalType": "uint8",
              "name": "grantsFlaw",
              "type": "uint8"
            },
            {
              "internalType": "enum BCTypes.ItemType",
              "name": "itemType",
              "type": "uint8"
            },
            {
              "internalType": "uint8",
              "name": "power",
              "type": "uint8"
            },
            {
              "internalType": "uint256",
              "name": "currentGame",
              "type": "uint256"
            },
            {
              "internalType": "enum BCTypes.WorldItemStatus",
              "name": "status",
              "type": "uint8"
            },
            {
              "components": [
                {
                  "internalType": "uint8",
                  "name": "row",
                  "type": "uint8"
                },
                {
                  "internalType": "uint8",
                  "name": "col",
                  "type": "uint8"
                }
              ],
              "internalType": "struct BCTypes.Position",
              "name": "position",
              "type": "tuple"
            }
          ],
          "internalType": "struct BCTypes.Item[]",
          "name": "",
          "type": "tuple[]"
        }
      ],
      "stateMutability": "view",
      "type": "function"
    },
    {
      "inputs": [
        {
          "internalType": "uint256",
          "name": "",
          "type": "uint256"
        }
      ],
      "name": "items",
      "outputs": [
        {
          "internalType": "bytes32",
          "name": "genHash",
          "type": "bytes32"
        },
        {
          "internalType": "uint256",
          "name": "id",
          "type": "uint256"
        },
        {
          "internalType": "uint256",
          "name": "uifID",
          "type": "uint256"
        },
        {
          "internalType": "uint256",
          "name": "holdingPlayerId",
          "type": "uint256"
        },
        {
          "internalType": "address",
          "name": "ownerAddress",
          "type": "address"
        },
        {
          "internalType": "uint256",
          "name": "weight",
          "type": "uint256"
        },
        {
          "internalType": "enum BCTypes.ItemCategory",
          "name": "itemCategory",
          "type": "uint8"
        },
        {
          "internalType": "uint8",
          "name": "grantsAbility",
          "type": "uint8"
        },
        {
          "internalType": "uint8",
          "name": "grantsFlaw",
          "type": "uint8"
        },
        {
          "internalType": "enum BCTypes.ItemType",
          "name": "itemType",
          "type": "uint8"
        },
        {
          "internalType": "uint8",
          "name": "power",
          "type": "uint8"
        },
        {
          "internalType": "uint256",
          "name": "currentGame",
          "type": "uint256"
        },
        {
          "internalType": "enum BCTypes.WorldItemStatus",
          "name": "status",
          "type": "uint8"
        },
        {
          "components": [
            {
              "internalType": "uint8",
              "name": "row",
              "type": "uint8"
            },
            {
              "internalType": "uint8",
              "name": "col",
              "type": "uint8"
            }
          ],
          "internalType": "struct BCTypes.Position",
          "name": "position",
          "type": "tuple"
        }
      ],
      "stateMutability": "view",
      "type": "function"
    },
    {
      "inputs": [],
      "name": "lobbies",
      "outputs": [
        {
          "internalType": "contract LobbyInterface",
          "name": "",
          "type": "address"
        }
      ],
      "stateMutability": "view",
      "type": "function"
    },
    {
      "inputs": [
        {
          "internalType": "uint256",
          "name": "_holdingPlayerId",
          "type": "uint256"
        },
        {
          "internalType": "address",
          "name": "_holderAddress",
          "type": "address"
        },
        {
          "internalType": "uint256",
          "name": "_gameId",
          "type": "uint256"
        }
      ],
      "name": "lootItem",
      "outputs": [],
      "stateMutability": "payable",
      "type": "function"
    },
    {
      "inputs": [],
      "name": "mintCost",
      "outputs": [
        {
          "internalType": "uint256",
          "name": "",
          "type": "uint256"
        }
      ],
      "stateMutability": "view",
      "type": "function"
    },
    {
      "inputs": [],
      "name": "mintIsActive",
      "outputs": [
        {
          "internalType": "bool",
          "name": "",
          "type": "bool"
        }
      ],
      "stateMutability": "view",
      "type": "function"
    },
    {
      "inputs": [
        {
          "internalType": "uint256",
          "name": "_min",
          "type": "uint256"
        },
        {
          "internalType": "uint256",
          "name": "_max",
          "type": "uint256"
        },
        {
          "internalType": "uint256",
          "name": "_val",
          "type": "uint256"
        },
        {
          "internalType": "uint256",
          "name": "_valMax",
          "type": "uint256"
        }
      ],
      "name": "normalizeToSmallRange",
      "outputs": [
        {
          "internalType": "uint8",
          "name": "",
          "type": "uint8"
        }
      ],
      "stateMutability": "pure",
      "type": "function"
    },
    {
      "inputs": [
        {
          "internalType": "address",
          "name": "_operator",
          "type": "address"
        },
        {
          "internalType": "address",
          "name": "_from",
          "type": "address"
        },
        {
          "internalType": "uint256",
          "name": "_tokenId",
          "type": "uint256"
        },
        {
          "internalType": "bytes",
          "name": "_data",
          "type": "bytes"
        }
      ],
      "name": "onERC721Received",
      "outputs": [
        {
          "internalType": "bytes4",
          "name": "",
          "type": "bytes4"
        }
      ],
      "stateMutability": "nonpayable",
      "type": "function"
    },
    {
      "inputs": [
        {
          "internalType": "uint256",
          "name": "_direction",
          "type": "uint256"
        }
      ],
      "name": "opposite",
      "outputs": [
        {
          "internalType": "uint256",
          "name": "",
          "type": "uint256"
        }
      ],
      "stateMutability": "pure",
      "type": "function"
    },
    {
      "inputs": [],
      "name": "owner",
      "outputs": [
        {
          "internalType": "address",
          "name": "",
          "type": "address"
        }
      ],
      "stateMutability": "view",
      "type": "function"
    },
    {
      "inputs": [
        {
          "internalType": "uint256",
          "name": "_playerId",
          "type": "uint256"
        },
        {
          "internalType": "uint256[]",
          "name": "_itemIds",
          "type": "uint256[]"
        },
        {
          "internalType": "address",
          "name": "_newOwnerAddress",
          "type": "address"
        }
      ],
      "name": "pickupWorldItems",
      "outputs": [],
      "stateMutability": "nonpayable",
      "type": "function"
    },
    {
      "inputs": [],
      "name": "playersContract",
      "outputs": [
        {
          "internalType": "contract PlayersContract",
          "name": "",
          "type": "address"
        }
      ],
      "stateMutability": "view",
      "type": "function"
    },
    {
      "inputs": [],
      "name": "randKeccak",
      "outputs": [
        {
          "internalType": "bytes32",
          "name": "",
          "type": "bytes32"
        }
      ],
      "stateMutability": "nonpayable",
      "type": "function"
    },
    {
      "inputs": [],
      "name": "renounceOwnership",
      "outputs": [],
      "stateMutability": "nonpayable",
      "type": "function"
    },
    {
      "inputs": [
        {
          "internalType": "uint256",
          "name": "_gameId",
          "type": "uint256"
        },
        {
          "internalType": "uint256",
          "name": "_for",
          "type": "uint256"
        },
        {
          "internalType": "uint256",
          "name": "_against",
          "type": "uint256"
        }
      ],
      "name": "resolveChallenge",
      "outputs": [
        {
          "internalType": "bool",
          "name": "",
          "type": "bool"
        }
      ],
      "stateMutability": "nonpayable",
      "type": "function"
    },
    {
      "inputs": [
        {
          "internalType": "uint256",
          "name": "_gameId",
          "type": "uint256"
        }
      ],
      "name": "roll",
      "outputs": [
        {
          "internalType": "uint256",
          "name": "",
          "type": "uint256"
        }
      ],
      "stateMutability": "nonpayable",
      "type": "function"
    },
    {
      "inputs": [
        {
          "internalType": "address",
          "name": "_lobbyContractAddress",
          "type": "address"
        },
        {
          "internalType": "address",
          "name": "_gameContract",
          "type": "address"
        },
        {
          "internalType": "address",
          "name": "_UIFAddress",
          "type": "address"
        },
        {
          "internalType": "address",
          "name": "_actionsContract",
          "type": "address"
        },
        {
          "internalType": "address",
          "name": "_playersContract",
          "type": "address"
        }
      ],
      "name": "setContractAddresses",
      "outputs": [],
      "stateMutability": "nonpayable",
      "type": "function"
    },
    {
      "inputs": [
        {
          "internalType": "bool",
          "name": "_status",
          "type": "bool"
        }
      ],
      "name": "setMintingStatus",
      "outputs": [],
      "stateMutability": "nonpayable",
      "type": "function"
    },
    {
      "inputs": [
        {
          "internalType": "bytes32",
          "name": "_hash",
          "type": "bytes32"
        },
        {
          "internalType": "uint256",
          "name": "_size",
          "type": "uint256"
        },
        {
          "internalType": "uint256",
          "name": "_offset",
          "type": "uint256"
        }
      ],
      "name": "sliceHashToSmallInt",
      "outputs": [
        {
          "internalType": "uint8",
          "name": "",
          "type": "uint8"
        }
      ],
      "stateMutability": "pure",
      "type": "function"
    },
    {
      "inputs": [
        {
          "internalType": "uint8",
          "name": "_min",
          "type": "uint8"
        },
        {
          "internalType": "uint8",
          "name": "_max",
          "type": "uint8"
        }
      ],
      "name": "smallIntBetweenVals",
      "outputs": [
        {
          "internalType": "uint8",
          "name": "",
          "type": "uint8"
        }
      ],
      "stateMutability": "nonpayable",
      "type": "function"
    },
    {
      "inputs": [],
      "name": "spawnCompanyItem",
      "outputs": [],
      "stateMutability": "payable",
      "type": "function"
    },
    {
      "inputs": [
        {
          "internalType": "uint256",
          "name": "_gameId",
          "type": "uint256"
        },
        {
          "internalType": "uint256[]",
          "name": "_itemIds",
          "type": "uint256[]"
        },
        {
          "internalType": "uint256",
          "name": "_row",
          "type": "uint256"
        },
        {
          "internalType": "uint256",
          "name": "_col",
          "type": "uint256"
        },
        {
          "internalType": "uint256",
          "name": "_formerOwnerId",
          "type": "uint256"
        }
      ],
      "name": "spawnWorldItems",
      "outputs": [],
      "stateMutability": "nonpayable",
      "type": "function"
    },
    {
      "inputs": [
        {
          "internalType": "uint256",
          "name": "_playerId",
          "type": "uint256"
        },
        {
          "internalType": "uint256",
          "name": "_gameId",
          "type": "uint256"
        }
      ],
      "name": "takeItemsHome",
      "outputs": [],
      "stateMutability": "nonpayable",
      "type": "function"
    },
    {
      "inputs": [],
      "name": "transferFundsOut",
      "outputs": [],
      "stateMutability": "nonpayable",
      "type": "function"
    },
    {
      "inputs": [
        {
          "internalType": "address",
          "name": "newOwner",
          "type": "address"
        }
      ],
      "name": "transferOwnership",
      "outputs": [],
      "stateMutability": "nonpayable",
      "type": "function"
    },
    {
      "inputs": [],
      "name": "uif",
      "outputs": [
        {
          "internalType": "contract UIFInterface",
          "name": "",
          "type": "address"
        }
      ],
      "stateMutability": "view",
      "type": "function"
    }
  ],
  "transactionHash": "0xffaf4ed393b718793edd0e3dd312172c5f32423fa5fa112b633a76d997fe8373",
  "args": [],
  "numDeployments": 1,
  "solcInputHash": "0ecc2b69042fdebab0fae20988ed0489",
  "bytecode": "0x60806040526000600190815564174876e8006008556009805460ff191690911790553480156200002e57600080fd5b506200003a3362000040565b62000090565b600080546001600160a01b038381166001600160a01b0319831681178455604051919092169283917f8be0079c531659141344cd1fd0a4f28419497f9722a3daafe3b4186f6b6457e09190a35050565b613e8e80620000a06000396000f3fe60806040526004361061027d5760003560e01c806364b0e5001161014f57806397f34c3f116100c1578063e417dc351161007a578063e417dc3514610828578063e847ae1e14610848578063ec25c25414610868578063f135332a14610888578063f2fde38b146108a8578063fa3993c2146108c857600080fd5b806397f34c3f14610758578063b78e665114610778578063b918fd6814610798578063bdb4b848146107b8578063bfb231d2146107ce578063ce28613f1461080857600080fd5b806376c8aa271161011357806376c8aa27146106a157806377e01eca146106ad5780638214f222146106cd5780638da5cb5b146106ed578063951fc3fe1461070b578063955a015b1461073857600080fd5b806364b0e500146105ff57806364db84bf1461062c578063705498dc1461064c578063715018a61461066c5780637420aa361461068157600080fd5b80631f7b4f30116101f357806347ef26b1116101ac57806347ef26b1146104c4578063501f97841461054d578063530116961461056d5780635dc969671461059f5780635f09c782146105bf5780635f872601146105df57600080fd5b80631f7b4f30146103f8578063249af0b414610418578063268f1d4d146104385780633838aed1146104585780633841fae11461046d578063471a42941461049a57600080fd5b8063150b7a0211610245578063150b7a021461031c578063154fa27a14610355578063185ae9dc146103755780631b5ac4b5146103955780631e1de205146103c35780631ef2688c146103d857600080fd5b80630364f88c146102825780630cc0db53146102bf5780630fd8e833146102d457806311ff7047146102dc578063129f0903146102fc575b600080fd5b34801561028e57600080fd5b506002546102a2906001600160a01b031681565b6040516001600160a01b0390911681526020015b60405180910390f35b6102d26102cd36600461333e565b6108e8565b005b6102d2610a00565b3480156102e857600080fd5b506102d26102f736600461341c565b610aec565b34801561030857600080fd5b506007546102a2906001600160a01b031681565b34801561032857600080fd5b5061033c61033736600461347e565b610dd7565b6040516001600160e01b031990911681526020016102b6565b34801561036157600080fd5b506003546102a2906001600160a01b031681565b34801561038157600080fd5b506005546102a2906001600160a01b031681565b3480156103a157600080fd5b506103b56103b036600461351d565b610e14565b6040519081526020016102b6565b3480156103cf57600080fd5b506103b5610e34565b3480156103e457600080fd5b506102d26103f3366004613536565b610eac565b34801561040457600080fd5b506103b561041336600461351d565b61109a565b34801561042457600080fd5b506102d26104333660046135c8565b6110f6565b34801561044457600080fd5b506102d2610453366004613623565b6112d8565b34801561046457600080fd5b506102d2611364565b34801561047957600080fd5b5061048d61048836600461351d565b6113a9565b6040516102b69190613655565b3480156104a657600080fd5b506009546104b49060ff1681565b60405190151581526020016102b6565b3480156104d057600080fd5b506104e46104df36600461351d565b6113c3565b6040516102b69190600060e0820190508251600081810b84526020850151810b60208501526040850151810b60408501526060850151810b60608501526080850151810b608085015260a0850151810b60a085015260c0850151810b60c0850152505092915050565b34801561055957600080fd5b506102d261056836600461351d565b61175a565b34801561057957600080fd5b5061058d610588366004613623565b61177a565b60405160ff90911681526020016102b6565b3480156105ab57600080fd5b506104b46105ba366004613699565b6117b7565b3480156105cb57600080fd5b506102d26105da3660046136c5565b611854565b3480156105eb57600080fd5b506102d26105fa3660046136c5565b611945565b34801561060b57600080fd5b5061061f61061a36600461351d565b611add565b6040516102b69190613731565b34801561063857600080fd5b506103b56106473660046136c5565b611d80565b34801561065857600080fd5b506004546102a2906001600160a01b031681565b34801561067857600080fd5b506102d2611d98565b34801561068d57600080fd5b506102d261069c36600461384b565b611daa565b3480156102d257600080fd5b3480156106b957600080fd5b5061048d6106c836600461386d565b611dc5565b3480156106d957600080fd5b506103b56106e836600461351d565b611de9565b3480156106f957600080fd5b506000546001600160a01b03166102a2565b34801561071757600080fd5b5061072b6107263660046138f9565b611e63565b6040516102b69190613926565b34801561074457600080fd5b506006546102a2906001600160a01b031681565b34801561076457600080fd5b5061058d610773366004613699565b611f8d565b34801561078457600080fd5b5061061f61079336600461351d565b611fb8565b3480156107a457600080fd5b5061048d6107b336600461351d565b6121fe565b3480156107c457600080fd5b506103b560085481565b3480156107da57600080fd5b506107ee6107e936600461351d565b61230c565b6040516102b69e9d9c9b9a99989796959493929190613944565b34801561081457600080fd5b5061058d6108233660046139ef565b6123c2565b34801561083457600080fd5b5061061f61084336600461386d565b612472565b34801561085457600080fd5b506102d2610863366004613a19565b6126c5565b34801561087457600080fd5b506102d2610883366004613a8a565b612736565b34801561089457600080fd5b5061048d6108a336600461351d565b61285f565b3480156108b457600080fd5b506102d26108c336600461386d565b612879565b3480156108d457600080fd5b506103b56108e3366004613ad1565b6128ef565b600854604080516602830bcb2b21d160cd1b60208201523460278201526a0161031b7b9ba1034b99d160ad1b60478201526052808201939093528151808203909301835260720190526000546001600160a01b031633148061094b575060085434145b81906109735760405162461bcd60e51b815260040161096a9190613b21565b60405180910390fd5b506000546001600160a01b031633148061099757506003546001600160a01b031633145b806109ac57506005546001600160a01b031633145b6109ef5760405162461bcd60e51b815260206004820152601460248201527310dbdb9d1c9858dd081b9bdd08185b1b1bddd95960621b604482015260640161096a565b6109fa8484846129b7565b50505050565b6000546001600160a01b0316331480610a1a575060085434145b610a5a5760405162461bcd60e51b8152602060048201526011602482015270125b98dbdc9c9958dd081c185e5b595b9d607a1b604482015260640161096a565b6000546001600160a01b0316331480610a7a575060095460ff1615156001145b610abe5760405162461bcd60e51b81526020600482015260156024820152744d696e74696e67206973206e6f742061637469766560581b604482015260640161096a565b6000546001600160a01b0316331480610ae157506003546001600160a01b031633145b610aea57600080fd5b565b6005546001600160a01b0316331480610b0f57506007546001600160a01b031633145b610b755760405162461bcd60e51b815260206004820152603160248201527f4e6f7420616374696f6e73206f7220706c617965727320636f6e7472616374206044820152702d20737061776e576f726c644974656d7360781b606482015260840161096a565b60075484516000916001600160a01b031690636621a42190600a9088908590610ba057610ba0613b54565b602002602001015181548110610bb857610bb8613b54565b90600052602060002090600a0201600301546040518263ffffffff1660e01b8152600401610be891815260200190565b602060405180830381865afa158015610c05573d6000803e3d6000fd5b505050506040513d601f19601f82011682018060405250810190610c299190613b6a565b905060005b8551811015610dce57600460009054906101000a90046001600160a01b03166001600160a01b03166307084e56600084600a8a8681518110610c7257610c72613b54565b602002602001015181548110610c8a57610c8a613b54565b600091825260209091206002600a9092020101546040516001600160e01b031960e086901b1681526001600160a01b0393841660048201529290911660248301526044820152606401600060405180830381600087803b158015610ced57600080fd5b505af1158015610d01573d6000803e3d6000fd5b50505050610d2883878381518110610d1b57610d1b613b54565b6020026020010151612c97565b6000600a878381518110610d3e57610d3e613b54565b602002602001015181548110610d5657610d56613b54565b6000918252602082206003600a909202019081019190915560088101805491925060029160ff191660018302179055506040805180820190915260ff8781168083529087166020909201829052600992909201805461ffff191690921761010090910217905580610dc681613b9d565b915050610c2e565b50505050505050565b6040516000907f544c765b33ca411cce832250371569244f765a17fcd217832be093f0fd5fa45b908290a150630a85bd0160e11b95945050505050565b600080821215610e2c57610e2782613bb6565b610e2e565b815b92915050565b6001805460009182610e4583613b9d565b9190505550600154600143610e5a9190613bd2565b4033604051602001610e9193929190928352602083019190915260601b6bffffffffffffffffffffffff1916604082015260540190565b60405160208183030381529060405280519060200120905090565b6005546001600160a01b03163314610f165760405162461bcd60e51b815260206004820152602760248201527f4e6f7420616374696f6e7320636f6e7472616374202d207069636b7570576f726044820152666c644974656d7360c81b606482015260840161096a565b60005b82811015611093576004546001600160a01b03166307084e56836000600a888887818110610f4957610f49613b54565b9050602002013581548110610f6057610f60613b54565b600091825260209091206002600a9092020101546040516001600160e01b031960e086901b1681526001600160a01b0393841660048201529290911660248301526044820152606401600060405180830381600087803b158015610fc357600080fd5b505af1158015610fd7573d6000803e3d6000fd5b5050505061100d848483818110610ff057610ff0613b54565b6000898152600b6020908152604090912093910201359050612d13565b506000600a85858481811061102457611024613b54565b905060200201358154811061103b5761103b613b54565b600091825260208083206003600a9093020191820189905560088201805460ff19166001179055604080518082019091528381520191909152600901805461ffff19169055508061108b81613b9d565b915050610f19565b5050505050565b6000806110a9600160066123c2565b60ff1690507ffe34d093a460a16ee5fb374540914d1c734a17502c0c1a87b387c8d6097e1c5183826040516110e8929190918252602082015260400190565b60405180910390a192915050565b6007546001600160a01b031633146111605760405162461bcd60e51b815260206004820152602760248201527f4e6f7420706c617965727320636f6e7472616374202d206164644974656d735460448201526637a83630bcb2b960c91b606482015260840161096a565b60005b82518110156109fa57600083828151811061118057611180613b54565b602002602001015190506000600a828154811061119f5761119f613b54565b90600052602060002090600a0201905080600301546000146112035760405162461bcd60e51b815260206004820181905260248201527f536f6d656f6e6520697320616c726561647920686f6c64696e67207468697321604482015260640161096a565b60048101546001600160a01b0385811691161461126e5760405162461bcd60e51b815260206004820152602360248201527f4f776e657220666f72206974656d20616e64206368617220646f6e2774206d616044820152620e8c6d60eb1b606482015260840161096a565b600381018690556004810180546001600160a01b03191690556000868152600b6020526040902061129f9083612d13565b506001600160a01b0384166000908152600d602052604090206112c29083612d1f565b50505080806112d090613b9d565b915050611163565b6007546001600160a01b0316331461133e5760405162461bcd60e51b815260206004820152602360248201527f4e6f7420706c617965727320636f6e7472616374202d2064726f70416c6c4974604482015262656d7360e81b606482015260840161096a565b6000838152600b6020526040812061135590612d2b565b90506110938582858588610aec565b61136c612d38565b600080546040516001600160a01b03909116914780156108fc02929091818181858888f193505050501580156113a6573d6000803e3d6000fd5b50565b6000818152600b60205260409020606090610e2e90612d2b565b6040805160e08082018352600080835260208084018290528385018290526060808501839052608080860184905260a080870185905260c0808801869052898652600b855288862089519788018a52868852948701869052978601859052918501849052840183905283018290529382015290919060005b61144483612d92565b811015611752576000600a6114598584612d9c565b8154811061146957611469613b54565b60009182526020909120600a909102019050600160068201546301000000900460ff16600a81111561149d5761149d6136e7565b036114df578060060160049054906101000a900460ff1660000b836000015160000b12156114da576006810154600160201b900460ff1660000b83525b61173f565b600260068201546301000000900460ff16600a811115611501576115016136e7565b03611545578060060160049054906101000a900460ff1660000b836020015160000b12156114da576006810154600160201b900460ff1660000b602084015261173f565b600360068201546301000000900460ff16600a811115611567576115676136e7565b036115ab578060060160049054906101000a900460ff1660000b836040015160000b12156114da576006810154600160201b900460ff1660000b604084015261173f565b600460068201546301000000900460ff16600a8111156115cd576115cd6136e7565b03611611578060060160049054906101000a900460ff1660000b836060015160000b12156114da576006810154600160201b900460ff1660000b606084015261173f565b600560068201546301000000900460ff16600a811115611633576116336136e7565b03611677578060060160049054906101000a900460ff1660000b836080015160000b12156114da576006810154600160201b900460ff1660000b608084015261173f565b600860068201546301000000900460ff16600a811115611699576116996136e7565b036116dd578060060160049054906101000a900460ff1660000b8360a0015160000b12156114da576006810154600160201b900460ff1660000b60a084015261173f565b600960068201546301000000900460ff16600a8111156116ff576116ff6136e7565b0361173f578060060160049054906101000a900460ff1660000b8360c0015160000b121561173f576006810154600160201b900460ff1660000b60c08401525b508061174a81613b9d565b91505061143b565b509392505050565b611762612d38565b61177481670de0b6b3a7640000613be5565b60085550565b6000806117878686613bd2565b90506000836117968684613be5565b6117a09190613c12565b90506117ac8782613c26565b979650505050505050565b6000806117c38561109a565b6040805187815260208101839052908101869052606081018590529091507f75b6a8325595f91135e07382840634226793c68c9e59623da7e10d7ad3d95b959060800160405180910390a18060010361182057600091505061184d565b60038361182d8684613c26565b6118379190613c39565b131561184757600191505061184d565b60009150505b9392505050565b6003546001600160a01b031633146118a25760405162461bcd60e51b8152602060048201526011602482015270139bdd0819d85b594818dbdb9d1c9858dd607a1b604482015260640161096a565b6000600a82815481106118b7576118b7613b54565b90600052602060002090600a020190506118d18383612c97565b6118df816007015483612da8565b600060038201819055600782015560048054604051630852cd8d60e31b81529182018490526001600160a01b0316906342966c6890602401600060405180830381600087803b15801561193157600080fd5b505af1158015610dce573d6000803e3d6000fd5b6006546001600160a01b031633146119945760405162461bcd60e51b8152602060048201526012602482015271139bdd0819d85b595cc818dbdb9d1c9858dd60721b604482015260640161096a565b6000828152600b60205260408082206007549151636621a42160e01b8152600481018690529092916001600160a01b031690636621a42190602401602060405180830381865afa1580156119ec573d6000803e3d6000fd5b505050506040513d601f19601f82011682018060405250810190611a109190613b6a565b905060005b611a1e83612d92565b811015611093576000611a318483612d9c565b90506000600a8281548110611a4857611a48613b54565b600091825260208083206003600a9390930201918201839055600480830180546001600160a01b038a166001600160a01b031990911681179091556007840185905560088401805460ff19169092179091558352600d90526040909120909150611ab29083612d13565b50611abd8583612d1f565b50611ac88683612da8565b50508080611ad590613b9d565b915050611a15565b60606000611aea83612e24565b90506000808267ffffffffffffffff811115611b0857611b08613376565b604051908082528060200260200182016040528015611b4157816020015b611b2e6132a8565b815260200190600190039081611b265790505b506000868152600c60205260408120919250611b5c82612d92565b905060005b81811015611d74576002600a611b778584612d9c565b81548110611b8757611b87613b54565b600091825260209091206008600a90920201015460ff166004811115611baf57611baf6136e7565b03611d6257600a611bc08483612d9c565b81548110611bd057611bd0613b54565b6000918252602091829020604080516101c081018252600a90930290910180548352600181015493830193909352600280840154918301919091526003830154606083015260048301546001600160a01b03166080830152600583015460a0830152600683015491929160c084019160ff90911690811115611c5457611c546136e7565b6002811115611c6557611c656136e7565b8152600682015460ff61010082048116602084015262010000820481166040840152606090920191630100000090910416600a811115611ca757611ca76136e7565b600a811115611cb857611cb86136e7565b8152600682015460ff600160201b90910481166020830152600783015460408301526008830154606090920191166004811115611cf757611cf76136e7565b6004811115611d0857611d086136e7565b8152604080518082019091526009929092015460ff80821684526101009091041660208381019190915201528451859087908110611d4857611d48613b54565b60200260200101819052508480611d5e90613b9d565b9550505b80611d6c81613b9d565b915050611b61565b50919695505050505050565b600081611d8e846004613be5565b61184d9190613c26565b611da0612d38565b610aea6000612ec0565b611db2612d38565b6009805460ff1916911515919091179055565b6001600160a01b0381166000908152600d60205260409020606090610e2e90612d2b565b600081600003611dfb57506001919050565b81600103611e0b57506000919050565b81600203611e1b57506003919050565b81600303611e2b57506002919050565b60405162461bcd60e51b815260206004820152600d60248201526c2130b2103234b932b1ba34b7b760991b604482015260640161096a565b604080518082019091526000808252602082015282600003611eb557604051806040016040528060018460000151611e9b9190613c59565b60ff168152602001836020015160ff168152509050610e2e565b82600103611ed957604051806040016040528083600001516001611e9b9190613c72565b82600203611f16576040518060400160405280836000015160ff16815260200183602001516001611f0a9190613c72565b60ff1690529050610e2e565b82600303611f47576040518060400160405280836000015160ff16815260200160018460200151611f0a9190613c59565b6000611f5284612f10565b604051602001611f629190613c8b565b60405160208183030381529060405290508060405162461bcd60e51b815260040161096a9190613b21565b600080826001611f9e866002613daa565b611fa89190613bd2565b901b8516831c9150509392505050565b6000818152600b6020526040812060609190611fd390612d92565b67ffffffffffffffff811115611feb57611feb613376565b60405190808252806020026020018201604052801561202457816020015b6120116132a8565b8152602001906001900390816120095790505b50905060005b81518110156121f7576000848152600b6020526040812061204b9083612d9c565b9050600a818154811061206057612060613b54565b6000918252602091829020604080516101c081018252600a90930290910180548352600181015493830193909352600280840154918301919091526003830154606083015260048301546001600160a01b03166080830152600583015460a0830152600683015491929160c084019160ff909116908111156120e4576120e46136e7565b60028111156120f5576120f56136e7565b8152600682015460ff61010082048116602084015262010000820481166040840152606090920191630100000090910416600a811115612137576121376136e7565b600a811115612148576121486136e7565b8152600682015460ff600160201b90910481166020830152600783015460408301526008830154606090920191166004811115612187576121876136e7565b6004811115612198576121986136e7565b8152604080518082019091526009929092015460ff808216845261010090910416602083810191909152015283518490849081106121d8576121d8613b54565b60200260200101819052505080806121ef90613b9d565b91505061202a565b5092915050565b6060600061220b83612e24565b90506000808267ffffffffffffffff81111561222957612229613376565b604051908082528060200260200182016040528015612252578160200160208202803683370190505b506000868152600c6020526040812091925061226d82612d92565b905060005b81811015611d74576002600a6122888584612d9c565b8154811061229857612298613b54565b600091825260209091206008600a90920201015460ff1660048111156122c0576122c06136e7565b036122fa576122cf8382612d9c565b8486815181106122e1576122e1613b54565b6020908102919091010152846122f681613b9d565b9550505b8061230481613b9d565b915050612272565b600a818154811061231c57600080fd5b6000918252602091829020600a90910201805460018201546002830154600384015460048501546005860154600687015460078801546008890154604080518082019091526009909a015460ff8181168c526101009182900481169c8c019c909c52989b509699959894976001600160a01b039094169692958083169594830481169462010000840482169463010000008504831694600160201b90048316939216908e565b60018054600091826123d383613b9d565b91905055506000336001546001436123eb9190613bd2565b60405160609390931b6bffffffffffffffffffffffff19166020840152603483019190915240605482015260740160408051601f1981840301815291905280516020909101209050600061243f8585613c59565b61244a906001613c72565b90508460ff168160ff168361245f9190613db6565b6124699190613c26565b95945050505050565b6001600160a01b0381166000908152600d602052604081206060919061249790612d92565b67ffffffffffffffff8111156124af576124af613376565b6040519080825280602002602001820160405280156124e857816020015b6124d56132a8565b8152602001906001900390816124cd5790505b50905060005b81518110156121f7576001600160a01b0384166000908152600d602052604081206125199083612d9c565b9050600a818154811061252e5761252e613b54565b6000918252602091829020604080516101c081018252600a90930290910180548352600181015493830193909352600280840154918301919091526003830154606083015260048301546001600160a01b03166080830152600583015460a0830152600683015491929160c084019160ff909116908111156125b2576125b26136e7565b60028111156125c3576125c36136e7565b8152600682015460ff61010082048116602084015262010000820481166040840152606090920191630100000090910416600a811115612605576126056136e7565b600a811115612616576126166136e7565b8152600682015460ff600160201b90910481166020830152600783015460408301526008830154606090920191166004811115612655576126556136e7565b6004811115612666576126666136e7565b8152604080518082019091526009929092015460ff808216845261010090910416602083810191909152015283518490849081106126a6576126a6613b54565b60200260200101819052505080806126bd90613b9d565b9150506124ee565b6126cd612d38565b600280546001600160a01b039687166001600160a01b031991821617909155600380549587169582168617905560068054821690951790945560048054938616938516939093179092556005805491851691841691909117905560078054919093169116179055565b6006546001600160a01b031633146127855760405162461bcd60e51b8152602060048201526012602482015271139bdd0819d85b595cc818dbdb9d1c9858dd60721b604482015260640161096a565b60005b815181101561285a576000600b60008484815181106127a9576127a9613b54565b60200260200101518152602001908152602001600020905060005b6127cd82612d92565b8110156128455760006127e08383612d9c565b905085600a82815481106127f6576127f6613b54565b90600052602060002090600a02016007018190555061283081600c6000898152602001908152602001600020612d1390919063ffffffff16565b5050808061283d90613b9d565b9150506127c4565b5050808061285290613b9d565b915050612788565b505050565b6000818152600c60205260409020606090610e2e90612d2b565b612881612d38565b6001600160a01b0381166128e65760405162461bcd60e51b815260206004820152602660248201527f4f776e61626c653a206e6577206f776e657220697320746865207a65726f206160448201526564647265737360d01b606482015260840161096a565b6113a681612ec0565b805182516000916128ff91613dca565b60000b60010361291157506000610e2e565b8151835161291f9190613dca565b60000b1961292f57506001610e2e565b816020015183602001516129439190613dca565b60000b1961295357506002610e2e565b816020015183602001516129679190613dca565b60000b60010361297957506003610e2e565b60405162461bcd60e51b8152602060048201526013602482015272115c9c9bdc8e88139bdd0818591a9858d95b9d606a1b604482015260640161096a565b600480546040516309b6507f60e41b8152808301929092526000602483018190526001600160a01b0385811660448501529092911690639b6507f09064174876e8009060640160206040518083038185885af1158015612a1b573d6000803e3d6000fd5b50505050506040513d601f19601f82011682018060405250810190612a409190613deb565b60048054604051632851838160e01b81529182018390529192506000916001600160a01b031690632851838190602401602060405180830381865afa158015612a8d573d6000803e3d6000fd5b505050506040513d601f19601f82011682018060405250810190612ab19190613deb565b600a80546001818101835560008390529082027fc65a7bb8d6351c1cf70c95a316cc6a92839c986682d98bc35f958f4883f9d2a80183815591549293509091612afa9190613bd2565b600180830191909155600282018490556003820187905560058201819055600b90612b2f908490600490610773906000611d80565b60ff161015612b3f576001612b42565b60025b60068201805460ff19166001836002811115612b6057612b606136e7565b021790555060068101805462ffff0019169055612b90612b8883600461077360006001611d80565b60ff16613019565b60068201805463ff0000001916630100000083600a811115612bb457612bb46136e7565b02179055506000612bcd83600461077360016002611d80565b90506002600683015460ff166002811115612bea57612bea6136e7565b03612c09576003612bfc826002613e04565b612c069190613e20565b90505b612c1b600160048360ff16600f61177a565b60068301805464ff000000001916600160201b60ff8416021790556007830186905560088301805491925060019160ff19168280021790555060018201546000888152600b60205260409020612c7091612d13565b5060018201546000868152600c60205260409020612c8d91612d13565b5050505050505050565b6000828152600b60205260409020612caf90826130c8565b612cfb5760405162461bcd60e51b815260206004820152601e60248201527f506c6179657220646f65736e277420686176652074686973206974656d210000604482015260640161096a565b6000828152600b6020526040902061285a9082612d1f565b600061184d83836130e0565b600061184d838361312f565b6060600061184d83613222565b6000546001600160a01b03163314610aea5760405162461bcd60e51b815260206004820181905260248201527f4f776e61626c653a2063616c6c6572206973206e6f7420746865206f776e6572604482015260640161096a565b6000610e2e825490565b600061184d838361327e565b6000828152600c60205260409020612dc090826130c8565b612e0c5760405162461bcd60e51b815260206004820152601c60248201527f47616d6520646f65736e277420686176652074686973206974656d2100000000604482015260640161096a565b6000818152600c6020526040902061285a9082612d1f565b6000818152600c60205260408120819081612e3e82612d92565b905060005b81811015612eb6576002600a612e598584612d9c565b81548110612e6957612e69613b54565b600091825260209091206008600a90920201015460ff166004811115612e9157612e916136e7565b03612ea45783612ea081613b9d565b9450505b80612eae81613b9d565b915050612e43565b5091949350505050565b600080546001600160a01b038381166001600160a01b0319831681178455604051919092169283917f8be0079c531659141344cd1fd0a4f28419497f9722a3daafe3b4186f6b6457e09190a35050565b606081600003612f375750506040805180820190915260018152600360fc1b602082015290565b8160005b8115612f615780612f4b81613b9d565b9150612f5a9050600a83613c12565b9150612f3b565b60008167ffffffffffffffff811115612f7c57612f7c613376565b6040519080825280601f01601f191660200182016040528015612fa6576020820181803683370190505b5090505b841561301157612fbb600183613bd2565b9150612fc8600a86613db6565b612fd3906030613c26565b60f81b818381518110612fe857612fe8613b54565b60200101906001600160f81b031916908160001a90535061300a600a86613c12565b9450612faa565b949350505050565b60006001821161302b57506000919050565b6002821161303b57506001919050565b6003821161304b57506002919050565b6004821161305b57506003919050565b6005821161306b57506004919050565b6006821161307b57506005919050565b6008821161308b57506006919050565b600a821161309b57506007919050565b600c82116130ab57506008919050565b600e82116130bb57506009919050565b50600a919050565b919050565b6000818152600183016020526040812054151561184d565b600081815260018301602052604081205461312757508154600181810184556000848152602080822090930184905584548482528286019093526040902091909155610e2e565b506000610e2e565b60008181526001830160205260408120548015613218576000613153600183613bd2565b855490915060009061316790600190613bd2565b90508181146131cc57600086600001828154811061318757613187613b54565b90600052602060002001549050808760000184815481106131aa576131aa613b54565b6000918252602080832090910192909255918252600188019052604090208390555b85548690806131dd576131dd613e42565b600190038181906000526020600020016000905590558560010160008681526020019081526020016000206000905560019350505050610e2e565b6000915050610e2e565b60608160000180548060200260200160405190810160405280929190818152602001828054801561327257602002820191906000526020600020905b81548152602001906001019080831161325e575b50505050509050919050565b600082600001828154811061329557613295613b54565b9060005260206000200154905092915050565b604080516101c08101825260008082526020808301829052828401829052606083018290526080830182905260a0830182905260c0830182905260e08301829052610100830182905261012083018290526101408301829052610160830182905261018083018290528351808501909452818452830152906101a082015290565b6001600160a01b03811681146113a657600080fd5b60008060006060848603121561335357600080fd5b83359250602084013561336581613329565b929592945050506040919091013590565b634e487b7160e01b600052604160045260246000fd5b600082601f83011261339d57600080fd5b8135602067ffffffffffffffff808311156133ba576133ba613376565b8260051b604051601f19603f830116810181811084821117156133df576133df613376565b6040529384528581018301938381019250878511156133fd57600080fd5b83870191505b848210156117ac57813583529183019190830190613403565b600080600080600060a0868803121561343457600080fd5b85359450602086013567ffffffffffffffff81111561345257600080fd5b61345e8882890161338c565b959895975050505060408401359360608101359360809091013592509050565b60008060008060006080868803121561349657600080fd5b85356134a181613329565b945060208601356134b181613329565b935060408601359250606086013567ffffffffffffffff808211156134d557600080fd5b818801915088601f8301126134e957600080fd5b8135818111156134f857600080fd5b89602082850101111561350a57600080fd5b9699959850939650602001949392505050565b60006020828403121561352f57600080fd5b5035919050565b6000806000806060858703121561354c57600080fd5b84359350602085013567ffffffffffffffff8082111561356b57600080fd5b818701915087601f83011261357f57600080fd5b81358181111561358e57600080fd5b8860208260051b85010111156135a357600080fd5b60208301955080945050505060408501356135bd81613329565b939692955090935050565b6000806000606084860312156135dd57600080fd5b83359250602084013567ffffffffffffffff8111156135fb57600080fd5b6136078682870161338c565b925050604084013561361881613329565b809150509250925092565b6000806000806080858703121561363957600080fd5b5050823594602084013594506040840135936060013592509050565b6020808252825182820181905260009190848201906040850190845b8181101561368d57835183529284019291840191600101613671565b50909695505050505050565b6000806000606084860312156136ae57600080fd5b505081359360208301359350604090920135919050565b600080604083850312156136d857600080fd5b50508035926020909101359150565b634e487b7160e01b600052602160045260246000fd5b6003811061370d5761370d6136e7565b9052565b600b811061370d5761370d6136e7565b6005811061370d5761370d6136e7565b602080825282518282018190526000919060409081850190868401855b8281101561383e5781518051855286810151878601528581015186860152606080820151908601526080808201516001600160a01b03169086015260a0808201519086015260c0808201516137a5828801826136fd565b505060e08181015160ff81168783015250506101008181015160ff8116878301525050610120808201516137db82880182613711565b50506101408181015160ff169086015261016080820151908601526101808082015161380982880182613721565b50506101a090810151805160ff9081169287019290925260200151166101c08501526101e0909301929085019060010161374e565b5091979650505050505050565b60006020828403121561385d57600080fd5b8135801515811461184d57600080fd5b60006020828403121561387f57600080fd5b813561184d81613329565b803560ff811681146130c357600080fd5b6000604082840312156138ad57600080fd5b6040516040810181811067ffffffffffffffff821117156138d0576138d0613376565b6040529050806138df8361388a565b81526138ed6020840161388a565b60208201525092915050565b6000806060838503121561390c57600080fd5b8235915061391d846020850161389b565b90509250929050565b60408101610e2e8284805160ff908116835260209182015116910152565b8e8152602081018e9052604081018d9052606081018c90526001600160a01b038b16608082015260a081018a90526101e0810161398460c083018b6136fd565b60ff89811660e084015288166101008301526139a4610120830188613711565b60ff8616610140830152846101608301526139c3610180830185613721565b825160ff9081166101a08401526020840151166101c08301529f9e505050505050505050505050505050565b60008060408385031215613a0257600080fd5b613a0b8361388a565b915061391d6020840161388a565b600080600080600060a08688031215613a3157600080fd5b8535613a3c81613329565b94506020860135613a4c81613329565b93506040860135613a5c81613329565b92506060860135613a6c81613329565b91506080860135613a7c81613329565b809150509295509295909350565b60008060408385031215613a9d57600080fd5b82359150602083013567ffffffffffffffff811115613abb57600080fd5b613ac78582860161338c565b9150509250929050565b60008060808385031215613ae457600080fd5b613aee848461389b565b915061391d846040850161389b565b60005b83811015613b18578181015183820152602001613b00565b50506000910152565b6020815260008251806020840152613b40816040850160208701613afd565b601f01601f19169190910160400192915050565b634e487b7160e01b600052603260045260246000fd5b600060208284031215613b7c57600080fd5b815161184d81613329565b634e487b7160e01b600052601160045260246000fd5b600060018201613baf57613baf613b87565b5060010190565b6000600160ff1b8201613bcb57613bcb613b87565b5060000390565b81810381811115610e2e57610e2e613b87565b8082028115828204841417610e2e57610e2e613b87565b634e487b7160e01b600052601260045260246000fd5b600082613c2157613c21613bfc565b500490565b80820180821115610e2e57610e2e613b87565b81810360008312801583831316838312821617156121f7576121f7613b87565b60ff8281168282160390811115610e2e57610e2e613b87565b60ff8181168382160190811115610e2e57610e2e613b87565b72024b73b30b634b2103234b932b1ba34b7b71d1606d1b815260008251613cb9816013850160208701613afd565b9190910160130192915050565b600181815b80851115613d01578160001904821115613ce757613ce7613b87565b80851615613cf457918102915b93841c9390800290613ccb565b509250929050565b600082613d1857506001610e2e565b81613d2557506000610e2e565b8160018114613d3b5760028114613d4557613d61565b6001915050610e2e565b60ff841115613d5657613d56613b87565b50506001821b610e2e565b5060208310610133831016604e8410600b8410161715613d84575081810a610e2e565b613d8e8383613cc6565b8060001904821115613da257613da2613b87565b029392505050565b600061184d8383613d09565b600082613dc557613dc5613bfc565b500690565b600082810b9082900b03607f198112607f82131715610e2e57610e2e613b87565b600060208284031215613dfd57600080fd5b5051919050565b60ff81811683821602908116908181146121f7576121f7613b87565b600060ff831680613e3357613e33613bfc565b8060ff84160491505092915050565b634e487b7160e01b600052603160045260246000fdfea264697066735822122045bb2a2520fd87bc75efcc9fc55de2a3872c8cfa1f76c67d08a13de40b3ecffe64736f6c63430008110033",
  "devdoc": {
    "kind": "dev",
    "methods": {
      "owner()": {
        "details": "Returns the address of the current owner."
      },
      "renounceOwnership()": {
        "details": "Leaves the contract without owner. It will not be possible to call `onlyOwner` functions anymore. Can only be called by the current owner. NOTE: Renouncing ownership will leave the contract without an owner, thereby removing any functionality that is only available to the owner."
      },
      "transferOwnership(address)": {
        "details": "Transfers ownership of the contract to a new account (`newOwner`). Can only be called by the current owner."
      }
    },
    "version": 1
  },
  "userdoc": {
    "kind": "user",
    "methods": {},
    "version": 1
  },
  "storageLayout": {
    "storage": [
      {
        "astId": 7,
        "contract": "contracts/BCItems.sol:BCItems",
        "label": "_owner",
        "offset": 0,
        "slot": "0",
        "type": "t_address"
      },
      {
        "astId": 17166,
        "contract": "contracts/BCItems.sol:BCItems",
        "label": "TODO_randomSeed",
        "offset": 0,
        "slot": "1",
        "type": "t_uint256"
      },
      {
        "astId": 10810,
        "contract": "contracts/BCItems.sol:BCItems",
        "label": "lobbies",
        "offset": 0,
        "slot": "2",
        "type": "t_contract(LobbyInterface)10715"
      },
      {
        "astId": 10812,
        "contract": "contracts/BCItems.sol:BCItems",
        "label": "gamesContract",
        "offset": 0,
        "slot": "3",
        "type": "t_address"
      },
      {
        "astId": 10815,
        "contract": "contracts/BCItems.sol:BCItems",
        "label": "uif",
        "offset": 0,
        "slot": "4",
        "type": "t_contract(UIFInterface)10789"
      },
      {
        "astId": 10817,
        "contract": "contracts/BCItems.sol:BCItems",
        "label": "actionsContract",
        "offset": 0,
        "slot": "5",
        "type": "t_address"
      },
      {
        "astId": 10820,
        "contract": "contracts/BCItems.sol:BCItems",
        "label": "games",
        "offset": 0,
        "slot": "6",
        "type": "t_contract(GameInterface)10734"
      },
      {
        "astId": 10823,
        "contract": "contracts/BCItems.sol:BCItems",
        "label": "playersContract",
        "offset": 0,
        "slot": "7",
        "type": "t_contract(PlayersContract)10797"
      },
      {
        "astId": 10874,
        "contract": "contracts/BCItems.sol:BCItems",
        "label": "mintCost",
        "offset": 0,
        "slot": "8",
        "type": "t_uint256"
      },
      {
        "astId": 10877,
        "contract": "contracts/BCItems.sol:BCItems",
        "label": "mintIsActive",
        "offset": 0,
        "slot": "9",
        "type": "t_bool"
      },
      {
        "astId": 10883,
        "contract": "contracts/BCItems.sol:BCItems",
        "label": "items",
        "offset": 0,
        "slot": "10",
        "type": "t_array(t_struct(Item)17138_storage)dyn_storage"
      },
      {
        "astId": 10888,
        "contract": "contracts/BCItems.sol:BCItems",
        "label": "playerToItems",
        "offset": 0,
        "slot": "11",
        "type": "t_mapping(t_uint256,t_struct(UintSet)2292_storage)"
      },
      {
        "astId": 10893,
        "contract": "contracts/BCItems.sol:BCItems",
        "label": "gameToItems",
        "offset": 0,
        "slot": "12",
        "type": "t_mapping(t_uint256,t_struct(UintSet)2292_storage)"
      },
      {
        "astId": 10898,
        "contract": "contracts/BCItems.sol:BCItems",
        "label": "ownedItems",
        "offset": 0,
        "slot": "13",
        "type": "t_mapping(t_address,t_struct(UintSet)2292_storage)"
      }
    ],
    "types": {
      "t_address": {
        "encoding": "inplace",
        "label": "address",
        "numberOfBytes": "20"
      },
      "t_array(t_bytes32)dyn_storage": {
        "base": "t_bytes32",
        "encoding": "dynamic_array",
        "label": "bytes32[]",
        "numberOfBytes": "32"
      },
      "t_array(t_struct(Item)17138_storage)dyn_storage": {
        "base": "t_struct(Item)17138_storage",
        "encoding": "dynamic_array",
        "label": "struct BCTypes.Item[]",
        "numberOfBytes": "32"
      },
      "t_bool": {
        "encoding": "inplace",
        "label": "bool",
        "numberOfBytes": "1"
      },
      "t_bytes32": {
        "encoding": "inplace",
        "label": "bytes32",
        "numberOfBytes": "32"
      },
      "t_contract(GameInterface)10734": {
        "encoding": "inplace",
        "label": "contract GameInterface",
        "numberOfBytes": "20"
      },
      "t_contract(LobbyInterface)10715": {
        "encoding": "inplace",
        "label": "contract LobbyInterface",
        "numberOfBytes": "20"
      },
      "t_contract(PlayersContract)10797": {
        "encoding": "inplace",
        "label": "contract PlayersContract",
        "numberOfBytes": "20"
      },
      "t_contract(UIFInterface)10789": {
        "encoding": "inplace",
        "label": "contract UIFInterface",
        "numberOfBytes": "20"
      },
      "t_enum(ItemCategory)16897": {
        "encoding": "inplace",
        "label": "enum BCTypes.ItemCategory",
        "numberOfBytes": "1"
      },
      "t_enum(ItemType)16909": {
        "encoding": "inplace",
        "label": "enum BCTypes.ItemType",
        "numberOfBytes": "1"
      },
      "t_enum(WorldItemStatus)16893": {
        "encoding": "inplace",
        "label": "enum BCTypes.WorldItemStatus",
        "numberOfBytes": "1"
      },
      "t_mapping(t_address,t_struct(UintSet)2292_storage)": {
        "encoding": "mapping",
        "key": "t_address",
        "label": "mapping(address => struct EnumerableSet.UintSet)",
        "numberOfBytes": "32",
        "value": "t_struct(UintSet)2292_storage"
      },
      "t_mapping(t_bytes32,t_uint256)": {
        "encoding": "mapping",
        "key": "t_bytes32",
        "label": "mapping(bytes32 => uint256)",
        "numberOfBytes": "32",
        "value": "t_uint256"
      },
      "t_mapping(t_uint256,t_struct(UintSet)2292_storage)": {
        "encoding": "mapping",
        "key": "t_uint256",
        "label": "mapping(uint256 => struct EnumerableSet.UintSet)",
        "numberOfBytes": "32",
        "value": "t_struct(UintSet)2292_storage"
      },
      "t_struct(Item)17138_storage": {
        "encoding": "inplace",
        "label": "struct BCTypes.Item",
        "members": [
          {
            "astId": 17107,
            "contract": "contracts/BCItems.sol:BCItems",
            "label": "genHash",
            "offset": 0,
            "slot": "0",
            "type": "t_bytes32"
          },
          {
            "astId": 17109,
            "contract": "contracts/BCItems.sol:BCItems",
            "label": "id",
            "offset": 0,
            "slot": "1",
            "type": "t_uint256"
          },
          {
            "astId": 17111,
            "contract": "contracts/BCItems.sol:BCItems",
            "label": "uifID",
            "offset": 0,
            "slot": "2",
            "type": "t_uint256"
          },
          {
            "astId": 17113,
            "contract": "contracts/BCItems.sol:BCItems",
            "label": "holdingPlayerId",
            "offset": 0,
            "slot": "3",
            "type": "t_uint256"
          },
          {
            "astId": 17115,
            "contract": "contracts/BCItems.sol:BCItems",
            "label": "ownerAddress",
            "offset": 0,
            "slot": "4",
            "type": "t_address"
          },
          {
            "astId": 17117,
            "contract": "contracts/BCItems.sol:BCItems",
            "label": "weight",
            "offset": 0,
            "slot": "5",
            "type": "t_uint256"
          },
          {
            "astId": 17120,
            "contract": "contracts/BCItems.sol:BCItems",
            "label": "itemCategory",
            "offset": 0,
            "slot": "6",
            "type": "t_enum(ItemCategory)16897"
          },
          {
            "astId": 17122,
            "contract": "contracts/BCItems.sol:BCItems",
            "label": "grantsAbility",
            "offset": 1,
            "slot": "6",
            "type": "t_uint8"
          },
          {
            "astId": 17124,
            "contract": "contracts/BCItems.sol:BCItems",
            "label": "grantsFlaw",
            "offset": 2,
            "slot": "6",
            "type": "t_uint8"
          },
          {
            "astId": 17127,
            "contract": "contracts/BCItems.sol:BCItems",
            "label": "itemType",
            "offset": 3,
            "slot": "6",
            "type": "t_enum(ItemType)16909"
          },
          {
            "astId": 17129,
            "contract": "contracts/BCItems.sol:BCItems",
            "label": "power",
            "offset": 4,
            "slot": "6",
            "type": "t_uint8"
          },
          {
            "astId": 17131,
            "contract": "contracts/BCItems.sol:BCItems",
            "label": "currentGame",
            "offset": 0,
            "slot": "7",
            "type": "t_uint256"
          },
          {
            "astId": 17134,
            "contract": "contracts/BCItems.sol:BCItems",
            "label": "status",
            "offset": 0,
            "slot": "8",
            "type": "t_enum(WorldItemStatus)16893"
          },
          {
            "astId": 17137,
            "contract": "contracts/BCItems.sol:BCItems",
            "label": "position",
            "offset": 0,
            "slot": "9",
            "type": "t_struct(Position)16955_storage"
          }
        ],
        "numberOfBytes": "320"
      },
      "t_struct(Position)16955_storage": {
        "encoding": "inplace",
        "label": "struct BCTypes.Position",
        "members": [
          {
            "astId": 16952,
            "contract": "contracts/BCItems.sol:BCItems",
            "label": "row",
            "offset": 0,
            "slot": "0",
            "type": "t_uint8"
          },
          {
            "astId": 16954,
            "contract": "contracts/BCItems.sol:BCItems",
            "label": "col",
            "offset": 1,
            "slot": "0",
            "type": "t_uint8"
          }
        ],
        "numberOfBytes": "32"
      },
      "t_struct(Set)1834_storage": {
        "encoding": "inplace",
        "label": "struct EnumerableSet.Set",
        "members": [
          {
            "astId": 1829,
            "contract": "contracts/BCItems.sol:BCItems",
            "label": "_values",
            "offset": 0,
            "slot": "0",
            "type": "t_array(t_bytes32)dyn_storage"
          },
          {
            "astId": 1833,
            "contract": "contracts/BCItems.sol:BCItems",
            "label": "_indexes",
            "offset": 0,
            "slot": "1",
            "type": "t_mapping(t_bytes32,t_uint256)"
          }
        ],
        "numberOfBytes": "64"
      },
      "t_struct(UintSet)2292_storage": {
        "encoding": "inplace",
        "label": "struct EnumerableSet.UintSet",
        "members": [
          {
            "astId": 2291,
            "contract": "contracts/BCItems.sol:BCItems",
            "label": "_inner",
            "offset": 0,
            "slot": "0",
            "type": "t_struct(Set)1834_storage"
          }
        ],
        "numberOfBytes": "64"
      },
      "t_uint256": {
        "encoding": "inplace",
        "label": "uint256",
        "numberOfBytes": "32"
      },
      "t_uint8": {
        "encoding": "inplace",
        "label": "uint8",
        "numberOfBytes": "1"
      }
    }
  }
}