{
  "address": "0x1A0C1179CaD1463AE24f37e919672a60501a2c25",
  "abi": [
    {
      "inputs": [],
      "stateMutability": "nonpayable",
      "type": "constructor"
    },
    {
      "anonymous": false,
      "inputs": [
        {
          "indexed": false,
          "internalType": "uint256",
          "name": "gameId",
          "type": "uint256"
        },
        {
          "indexed": false,
          "internalType": "uint256",
          "name": "roll",
          "type": "uint256"
        },
        {
          "indexed": false,
          "internalType": "uint256",
          "name": "forValue",
          "type": "uint256"
        },
        {
          "indexed": false,
          "internalType": "uint256",
          "name": "against",
          "type": "uint256"
        }
      ],
      "name": "ChallengeEvent",
      "type": "event"
    },
    {
      "anonymous": false,
      "inputs": [
        {
          "indexed": false,
          "internalType": "uint256",
          "name": "gameId",
          "type": "uint256"
        },
        {
          "indexed": false,
          "internalType": "uint256",
          "name": "roll",
          "type": "uint256"
        }
      ],
      "name": "DiceRollEvent",
      "type": "event"
    },
    {
      "anonymous": false,
      "inputs": [
        {
          "indexed": true,
          "internalType": "address",
          "name": "previousOwner",
          "type": "address"
        },
        {
          "indexed": true,
          "internalType": "address",
          "name": "newOwner",
          "type": "address"
        }
      ],
      "name": "OwnershipTransferred",
      "type": "event"
    },
    {
      "anonymous": false,
      "inputs": [],
      "name": "Received",
      "type": "event"
    },
    {
      "inputs": [
        {
          "internalType": "uint256",
          "name": "_matic",
          "type": "uint256"
        }
      ],
      "name": "SetMintCostInMatic",
      "outputs": [],
      "stateMutability": "nonpayable",
      "type": "function"
    },
    {
      "inputs": [
        {
          "internalType": "int256",
          "name": "x",
          "type": "int256"
        }
      ],
      "name": "abs",
      "outputs": [
        {
          "internalType": "int256",
          "name": "",
          "type": "int256"
        }
      ],
      "stateMutability": "pure",
      "type": "function"
    },
    {
      "inputs": [],
      "name": "actionsContract",
      "outputs": [
        {
          "internalType": "address",
          "name": "",
          "type": "address"
        }
      ],
      "stateMutability": "view",
      "type": "function"
    },
    {
      "inputs": [],
      "name": "allowedContract",
      "outputs": [
        {
          "internalType": "address",
          "name": "",
          "type": "address"
        }
      ],
      "stateMutability": "view",
      "type": "function"
    },
    {
      "inputs": [],
      "name": "commitItemToMission",
      "outputs": [],
      "stateMutability": "nonpayable",
      "type": "function"
    },
    {
      "inputs": [
        {
          "internalType": "uint256",
          "name": "_playerId",
          "type": "uint256"
        },
        {
          "internalType": "uint256",
          "name": "_itemId",
          "type": "uint256"
        }
      ],
      "name": "destroyItem",
      "outputs": [],
      "stateMutability": "nonpayable",
      "type": "function"
    },
    {
      "inputs": [],
      "name": "games",
      "outputs": [
        {
          "internalType": "contract GameInterface",
          "name": "",
          "type": "address"
        }
      ],
      "stateMutability": "view",
      "type": "function"
    },
    {
      "inputs": [],
      "name": "gamesContract",
      "outputs": [
        {
          "internalType": "address",
          "name": "",
          "type": "address"
        }
      ],
      "stateMutability": "view",
      "type": "function"
    },
    {
      "inputs": [
        {
          "components": [
            {
              "internalType": "uint8",
              "name": "row",
              "type": "uint8"
            },
            {
              "internalType": "uint8",
              "name": "col",
              "type": "uint8"
            }
          ],
          "internalType": "struct BCTypes.Position",
          "name": "_firstRoom",
          "type": "tuple"
        },
        {
          "components": [
            {
              "internalType": "uint8",
              "name": "row",
              "type": "uint8"
            },
            {
              "internalType": "uint8",
              "name": "col",
              "type": "uint8"
            }
          ],
          "internalType": "struct BCTypes.Position",
          "name": "_secondRoom",
          "type": "tuple"
        }
      ],
      "name": "getDirectionBetween",
      "outputs": [
        {
          "internalType": "uint256",
          "name": "",
          "type": "uint256"
        }
      ],
      "stateMutability": "pure",
      "type": "function"
    },
    {
      "inputs": [
        {
          "internalType": "uint256",
          "name": "_playerID",
          "type": "uint256"
        }
      ],
      "name": "getItemIDsByPlayer",
      "outputs": [
        {
          "internalType": "uint256[]",
          "name": "",
          "type": "uint256[]"
        }
      ],
      "stateMutability": "view",
      "type": "function"
    },
    {
      "inputs": [
        {
          "internalType": "uint256",
          "name": "_playerID",
          "type": "uint256"
        }
      ],
      "name": "getItemsByPlayer",
      "outputs": [
        {
          "components": [
            {
              "internalType": "bytes32",
              "name": "genHash",
              "type": "bytes32"
            },
            {
              "internalType": "uint256",
              "name": "id",
              "type": "uint256"
            },
            {
              "internalType": "uint256",
              "name": "uifID",
              "type": "uint256"
            },
            {
              "internalType": "uint256",
              "name": "holdingPlayerId",
              "type": "uint256"
            },
            {
              "internalType": "uint256",
              "name": "weight",
              "type": "uint256"
            },
            {
              "internalType": "uint256",
              "name": "traitModID",
              "type": "uint256"
            },
            {
              "internalType": "enum BCTypes.ItemCategory",
              "name": "itemCategory",
              "type": "uint8"
            },
            {
              "internalType": "uint8",
              "name": "grantsAbility",
              "type": "uint8"
            },
            {
              "internalType": "uint8",
              "name": "grantsFlaw",
              "type": "uint8"
            },
            {
              "internalType": "enum BCTypes.ItemType",
              "name": "itemType",
              "type": "uint8"
            },
            {
              "internalType": "uint8",
              "name": "power",
              "type": "uint8"
            },
            {
              "internalType": "bool",
              "name": "inGame",
              "type": "bool"
            }
          ],
          "internalType": "struct BCTypes.Item[]",
          "name": "",
          "type": "tuple[]"
        }
      ],
      "stateMutability": "view",
      "type": "function"
    },
    {
      "inputs": [
        {
          "internalType": "uint256",
          "name": "_direction",
          "type": "uint256"
        },
        {
          "components": [
            {
              "internalType": "uint8",
              "name": "row",
              "type": "uint8"
            },
            {
              "internalType": "uint8",
              "name": "col",
              "type": "uint8"
            }
          ],
          "internalType": "struct BCTypes.Position",
          "name": "_start",
          "type": "tuple"
        }
      ],
      "name": "getNeighborRoom",
      "outputs": [
        {
          "components": [
            {
              "internalType": "uint8",
              "name": "row",
              "type": "uint8"
            },
            {
              "internalType": "uint8",
              "name": "col",
              "type": "uint8"
            }
          ],
          "internalType": "struct BCTypes.Position",
          "name": "",
          "type": "tuple"
        }
      ],
      "stateMutability": "pure",
      "type": "function"
    },
    {
      "inputs": [
        {
          "internalType": "uint256",
          "name": "_playerId",
          "type": "uint256"
        }
      ],
      "name": "getTraitModifiers",
      "outputs": [
        {
          "components": [
            {
              "internalType": "int8",
              "name": "health",
              "type": "int8"
            },
            {
              "internalType": "int8",
              "name": "carry",
              "type": "int8"
            },
            {
              "internalType": "int8",
              "name": "defense",
              "type": "int8"
            },
            {
              "internalType": "int8",
              "name": "hack",
              "type": "int8"
            },
            {
              "internalType": "int8",
              "name": "breach",
              "type": "int8"
            },
            {
              "internalType": "int8",
              "name": "shoot",
              "type": "int8"
            },
            {
              "internalType": "int8",
              "name": "melee",
              "type": "int8"
            }
          ],
          "internalType": "struct BCTypes.Traits",
          "name": "",
          "type": "tuple"
        }
      ],
      "stateMutability": "view",
      "type": "function"
    },
    {
      "inputs": [
        {
          "internalType": "uint256",
          "name": "_traitNum",
          "type": "uint256"
        },
        {
          "internalType": "uint256",
          "name": "_subTraitNum",
          "type": "uint256"
        }
      ],
      "name": "getUIOffset",
      "outputs": [
        {
          "internalType": "uint256",
          "name": "",
          "type": "uint256"
        }
      ],
      "stateMutability": "pure",
      "type": "function"
    },
    {
      "inputs": [
        {
          "internalType": "uint256",
          "name": "",
          "type": "uint256"
        }
      ],
      "name": "items",
      "outputs": [
        {
          "internalType": "bytes32",
          "name": "genHash",
          "type": "bytes32"
        },
        {
          "internalType": "uint256",
          "name": "id",
          "type": "uint256"
        },
        {
          "internalType": "uint256",
          "name": "uifID",
          "type": "uint256"
        },
        {
          "internalType": "uint256",
          "name": "holdingPlayerId",
          "type": "uint256"
        },
        {
          "internalType": "uint256",
          "name": "weight",
          "type": "uint256"
        },
        {
          "internalType": "uint256",
          "name": "traitModID",
          "type": "uint256"
        },
        {
          "internalType": "enum BCTypes.ItemCategory",
          "name": "itemCategory",
          "type": "uint8"
        },
        {
          "internalType": "uint8",
          "name": "grantsAbility",
          "type": "uint8"
        },
        {
          "internalType": "uint8",
          "name": "grantsFlaw",
          "type": "uint8"
        },
        {
          "internalType": "enum BCTypes.ItemType",
          "name": "itemType",
          "type": "uint8"
        },
        {
          "internalType": "uint8",
          "name": "power",
          "type": "uint8"
        },
        {
          "internalType": "bool",
          "name": "inGame",
          "type": "bool"
        }
      ],
      "stateMutability": "view",
      "type": "function"
    },
    {
      "inputs": [],
      "name": "lobbies",
      "outputs": [
        {
          "internalType": "contract LobbyInterface",
          "name": "",
          "type": "address"
        }
      ],
      "stateMutability": "view",
      "type": "function"
    },
    {
      "inputs": [
        {
          "internalType": "uint256",
          "name": "_holdingPlayerId",
          "type": "uint256"
        },
        {
          "internalType": "address",
          "name": "_holderAddress",
          "type": "address"
        }
      ],
      "name": "lootItem",
      "outputs": [],
      "stateMutability": "payable",
      "type": "function"
    },
    {
      "inputs": [],
      "name": "mintCost",
      "outputs": [
        {
          "internalType": "uint256",
          "name": "",
          "type": "uint256"
        }
      ],
      "stateMutability": "view",
      "type": "function"
    },
    {
      "inputs": [],
      "name": "mintIsActive",
      "outputs": [
        {
          "internalType": "bool",
          "name": "",
          "type": "bool"
        }
      ],
      "stateMutability": "view",
      "type": "function"
    },
    {
      "inputs": [
        {
          "internalType": "uint256",
          "name": "_min",
          "type": "uint256"
        },
        {
          "internalType": "uint256",
          "name": "_max",
          "type": "uint256"
        },
        {
          "internalType": "uint256",
          "name": "_val",
          "type": "uint256"
        },
        {
          "internalType": "uint256",
          "name": "_valMax",
          "type": "uint256"
        }
      ],
      "name": "normalizeToSmallRange",
      "outputs": [
        {
          "internalType": "uint8",
          "name": "",
          "type": "uint8"
        }
      ],
      "stateMutability": "pure",
      "type": "function"
    },
    {
      "inputs": [
        {
          "internalType": "address",
          "name": "_operator",
          "type": "address"
        },
        {
          "internalType": "address",
          "name": "_from",
          "type": "address"
        },
        {
          "internalType": "uint256",
          "name": "_tokenId",
          "type": "uint256"
        },
        {
          "internalType": "bytes",
          "name": "_data",
          "type": "bytes"
        }
      ],
      "name": "onERC721Received",
      "outputs": [
        {
          "internalType": "bytes4",
          "name": "",
          "type": "bytes4"
        }
      ],
      "stateMutability": "nonpayable",
      "type": "function"
    },
    {
      "inputs": [
        {
          "internalType": "uint256",
          "name": "_direction",
          "type": "uint256"
        }
      ],
      "name": "opposite",
      "outputs": [
        {
          "internalType": "uint256",
          "name": "",
          "type": "uint256"
        }
      ],
      "stateMutability": "pure",
      "type": "function"
    },
    {
      "inputs": [],
      "name": "owner",
      "outputs": [
        {
          "internalType": "address",
          "name": "",
          "type": "address"
        }
      ],
      "stateMutability": "view",
      "type": "function"
    },
    {
      "inputs": [
        {
          "internalType": "uint256",
          "name": "_playerId",
          "type": "uint256"
        },
        {
          "internalType": "uint256[]",
          "name": "_itemIds",
          "type": "uint256[]"
        },
        {
          "internalType": "address",
          "name": "_newOwnerAddress",
          "type": "address"
        }
      ],
      "name": "pickupWorldItems",
      "outputs": [],
      "stateMutability": "nonpayable",
      "type": "function"
    },
    {
      "inputs": [
        {
          "internalType": "uint256",
          "name": "",
          "type": "uint256"
        },
        {
          "internalType": "uint256",
          "name": "",
          "type": "uint256"
        }
      ],
      "name": "playerToItems",
      "outputs": [
        {
          "internalType": "uint256",
          "name": "",
          "type": "uint256"
        }
      ],
      "stateMutability": "view",
      "type": "function"
    },
    {
      "inputs": [],
      "name": "playersContract",
      "outputs": [
        {
          "internalType": "contract PlayersContract",
          "name": "",
          "type": "address"
        }
      ],
      "stateMutability": "view",
      "type": "function"
    },
    {
      "inputs": [],
      "name": "randKeccak",
      "outputs": [
        {
          "internalType": "bytes32",
          "name": "",
          "type": "bytes32"
        }
      ],
      "stateMutability": "nonpayable",
      "type": "function"
    },
    {
      "inputs": [],
      "name": "renounceOwnership",
      "outputs": [],
      "stateMutability": "nonpayable",
      "type": "function"
    },
    {
      "inputs": [
        {
          "internalType": "uint256",
          "name": "_gameId",
          "type": "uint256"
        },
        {
          "internalType": "uint256",
          "name": "_for",
          "type": "uint256"
        },
        {
          "internalType": "uint256",
          "name": "_against",
          "type": "uint256"
        }
      ],
      "name": "resolveChallenge",
      "outputs": [
        {
          "internalType": "bool",
          "name": "",
          "type": "bool"
        }
      ],
      "stateMutability": "nonpayable",
      "type": "function"
    },
    {
      "inputs": [
        {
          "internalType": "uint256",
          "name": "_gameId",
          "type": "uint256"
        }
      ],
      "name": "roll",
      "outputs": [
        {
          "internalType": "uint256",
          "name": "",
          "type": "uint256"
        }
      ],
      "stateMutability": "nonpayable",
      "type": "function"
    },
    {
      "inputs": [
        {
          "internalType": "address",
          "name": "_lobbyContractAddress",
          "type": "address"
        },
        {
          "internalType": "address",
          "name": "_gameContract",
          "type": "address"
        },
        {
          "internalType": "address",
          "name": "_UIFAddress",
          "type": "address"
        },
        {
          "internalType": "address",
          "name": "_actionsContract",
          "type": "address"
        },
        {
          "internalType": "address",
          "name": "_playersContract",
          "type": "address"
        }
      ],
      "name": "setContractAddresses",
      "outputs": [],
      "stateMutability": "nonpayable",
      "type": "function"
    },
    {
      "inputs": [
        {
          "internalType": "bool",
          "name": "_status",
          "type": "bool"
        }
      ],
      "name": "setMintingStatus",
      "outputs": [],
      "stateMutability": "nonpayable",
      "type": "function"
    },
    {
      "inputs": [
        {
          "internalType": "bytes32",
          "name": "_hash",
          "type": "bytes32"
        },
        {
          "internalType": "uint256",
          "name": "_size",
          "type": "uint256"
        },
        {
          "internalType": "uint256",
          "name": "_offset",
          "type": "uint256"
        }
      ],
      "name": "sliceHashToSmallInt",
      "outputs": [
        {
          "internalType": "uint8",
          "name": "",
          "type": "uint8"
        }
      ],
      "stateMutability": "pure",
      "type": "function"
    },
    {
      "inputs": [
        {
          "internalType": "uint8",
          "name": "_min",
          "type": "uint8"
        },
        {
          "internalType": "uint8",
          "name": "_max",
          "type": "uint8"
        }
      ],
      "name": "smallIntBetweenVals",
      "outputs": [
        {
          "internalType": "uint8",
          "name": "",
          "type": "uint8"
        }
      ],
      "stateMutability": "nonpayable",
      "type": "function"
    },
    {
      "inputs": [],
      "name": "spawnCompanyItem",
      "outputs": [],
      "stateMutability": "payable",
      "type": "function"
    },
    {
      "inputs": [
        {
          "internalType": "uint256",
          "name": "_gameId",
          "type": "uint256"
        },
        {
          "internalType": "uint256[]",
          "name": "_itemIds",
          "type": "uint256[]"
        },
        {
          "internalType": "uint256",
          "name": "_row",
          "type": "uint256"
        },
        {
          "internalType": "uint256",
          "name": "_col",
          "type": "uint256"
        },
        {
          "internalType": "uint256",
          "name": "_formerOwnerId",
          "type": "uint256"
        }
      ],
      "name": "spawnWorldItems",
      "outputs": [],
      "stateMutability": "nonpayable",
      "type": "function"
    },
    {
      "inputs": [],
      "name": "transferFundsOut",
      "outputs": [],
      "stateMutability": "nonpayable",
      "type": "function"
    },
    {
      "inputs": [
        {
          "internalType": "address",
          "name": "newOwner",
          "type": "address"
        }
      ],
      "name": "transferOwnership",
      "outputs": [],
      "stateMutability": "nonpayable",
      "type": "function"
    },
    {
      "inputs": [],
      "name": "uif",
      "outputs": [
        {
          "internalType": "contract UIFInterface",
          "name": "",
          "type": "address"
        }
      ],
      "stateMutability": "view",
      "type": "function"
    }
  ],
  "transactionHash": "0xe4ca1ee2d4f7eb615dcd7e61337c7954a25e512f39dfe0c8d13311e79dce17bd",
  "args": [],
  "numDeployments": 1,
  "solcInputHash": "83a9a68576a41548aedeabb90c8fba9e",
  "bytecode": "0x60806040526000600181815564174876e8006008556009805460ff19169091179055600a5534801561003057600080fd5b5061003a3361003f565b61008f565b600080546001600160a01b038381166001600160a01b0319831681178455604051919092169283917f8be0079c531659141344cd1fd0a4f28419497f9722a3daafe3b4186f6b6457e09190a35050565b612ed0806200009f6000396000f3fe6080604052600436106102305760003560e01c806364db84bf1161012e57806397f34c3f116100ab578063ce28613f1161006f578063ce28613f1461072d578063e847ae1e1461074d578063e89d5a891461076d578063f2fde38b14610792578063fa3993c2146107b257600080fd5b806397f34c3f1461067f578063aa3eb1b51461069f578063b78e6651146106b2578063bdb4b848146106df578063bfb231d2146106f557600080fd5b80638214f222116100f25780638214f222146105c05780638ac031b3146105e05780638da5cb5b14610600578063951fc3fe1461061e578063955a015b1461065f57600080fd5b806364db84bf1461053f578063705498dc1461055f578063715018a61461057f5780637420aa361461059457806376c8aa27146105b457600080fd5b80631ef2688c116101bc57806347ef26b11161018057806347ef26b114610424578063501f9784146104ad57806353011696146104cd5780635dc96967146104ff5780635f09c7821461051f57600080fd5b80631ef2688c146103785780631f7b4f30146103985780633838aed1146103b85780633841fae1146103cd578063471a4294146103fa57600080fd5b8063150b7a0211610203578063150b7a02146102bc578063154fa27a146102f5578063185ae9dc146103155780631b5ac4b5146103355780631e1de2051461036357600080fd5b80630364f88c146102355780630fd8e8331461027257806311ff70471461027c578063129f09031461029c575b600080fd5b34801561024157600080fd5b50600254610255906001600160a01b031681565b6040516001600160a01b0390911681526020015b60405180910390f35b61027a6107d2565b005b34801561028857600080fd5b5061027a6102973660046124fa565b6108c3565b3480156102a857600080fd5b50600754610255906001600160a01b031681565b3480156102c857600080fd5b506102dc6102d7366004612575565b610b72565b6040516001600160e01b03199091168152602001610269565b34801561030157600080fd5b50600354610255906001600160a01b031681565b34801561032157600080fd5b50600554610255906001600160a01b031681565b34801561034157600080fd5b50610355610350366004612614565b610baf565b604051908152602001610269565b34801561036f57600080fd5b50610355610bcf565b34801561038457600080fd5b5061027a61039336600461262d565b610c3a565b3480156103a457600080fd5b506103556103b3366004612614565b610e3b565b3480156103c457600080fd5b5061027a610e97565b3480156103d957600080fd5b506103ed6103e8366004612614565b610edc565b604051610269919061268c565b34801561040657600080fd5b506009546104149060ff1681565b6040519015158152602001610269565b34801561043057600080fd5b5061044461043f366004612614565b610f3e565b6040516102699190600060e0820190508251600081810b84526020850151810b60208501526040850151810b60408501526060850151810b60608501526080850151810b608085015260a0850151810b60a085015260c0850151810b60c0850152505092915050565b3480156104b957600080fd5b5061027a6104c8366004612614565b6112e1565b3480156104d957600080fd5b506104ed6104e83660046126d0565b611301565b60405160ff9091168152602001610269565b34801561050b57600080fd5b5061041461051a366004612702565b61133e565b34801561052b57600080fd5b5061027a61053a36600461272e565b6113db565b34801561054b57600080fd5b5061035561055a36600461272e565b611501565b34801561056b57600080fd5b50600454610255906001600160a01b031681565b34801561058b57600080fd5b5061027a611519565b3480156105a057600080fd5b5061027a6105af366004612750565b61152b565b34801561027a57600080fd5b3480156105cc57600080fd5b506103556105db366004612614565b611546565b3480156105ec57600080fd5b506103556105fb36600461272e565b6115c0565b34801561060c57600080fd5b506000546001600160a01b0316610255565b34801561062a57600080fd5b5061063e610639366004612805565b6115f1565b60408051825160ff9081168252602093840151169281019290925201610269565b34801561066b57600080fd5b50600654610255906001600160a01b031681565b34801561068b57600080fd5b506104ed61069a366004612702565b61171b565b61027a6106ad366004612832565b611746565b3480156106be57600080fd5b506106d26106cd366004612614565b611853565b604051610269919061289c565b3480156106eb57600080fd5b5061035560085481565b34801561070157600080fd5b50610715610710366004612614565b611a80565b6040516102699c9b9a9998979695949392919061297a565b34801561073957600080fd5b506104ed6107483660046129f6565b611b02565b34801561075957600080fd5b5061027a610768366004612a20565b611ba3565b34801561077957600080fd5b506009546102559061010090046001600160a01b031681565b34801561079e57600080fd5b5061027a6107ad366004612a91565b611c14565b3480156107be57600080fd5b506103556107cd366004612aae565b611c8a565b6000546001600160a01b03163314806107ec575060085434145b6108315760405162461bcd60e51b8152602060048201526011602482015270125b98dbdc9c9958dd081c185e5b595b9d607a1b60448201526064015b60405180910390fd5b6000546001600160a01b0316331480610851575060095460ff1615156001145b6108955760405162461bcd60e51b81526020600482015260156024820152744d696e74696e67206973206e6f742061637469766560581b6044820152606401610828565b6000546001600160a01b03163314806108b857506003546001600160a01b031633145b6108c157600080fd5b565b6005546001600160a01b031633146109145760405162461bcd60e51b8152602060048201526014602482015273139bdd081858dd1a5bdb9cc818dbdb9d1c9858dd60621b6044820152606401610828565b6007546000906001600160a01b0316636621a421600b8888858161093a5761093a612ada565b905060200201358154811061095157610951612ada565b9060005260206000209060070201600301546040518263ffffffff1660e01b815260040161098191815260200190565b602060405180830381865afa15801561099e573d6000803e3d6000fd5b505050506040513d601f19601f820116820180604052508101906109c29190612af0565b905060005b85811015610afe576004546001600160a01b03166307084e56600084600b8b8b878181106109f7576109f7612ada565b9050602002013581548110610a0e57610a0e612ada565b60009182526020909120600260079092020101546040516001600160e01b031960e086901b1681526001600160a01b0393841660048201529290911660248301526044820152606401600060405180830381600087803b158015610a7157600080fd5b505af1158015610a85573d6000803e3d6000fd5b50505050610aab83888884818110610a9f57610a9f612ada565b90506020020135611d52565b6000600b888884818110610ac157610ac1612ada565b9050602002013581548110610ad857610ad8612ada565b600091825260209091206003600790920201015580610af681612b23565b9150506109c7565b506006546040516301b06a8d60e31b81526001600160a01b0390911690630d83546890610b37908a908a908a908a908a90600401612b6e565b600060405180830381600087803b158015610b5157600080fd5b505af1158015610b65573d6000803e3d6000fd5b5050505050505050505050565b6040516000907f544c765b33ca411cce832250371569244f765a17fcd217832be093f0fd5fa45b908290a150630a85bd0160e11b95945050505050565b600080821215610bc757610bc282612b9c565b610bc9565b815b92915050565b6001805460009182610be083612b23565b91905055506001544233604051602001610c1f93929190928352602083019190915260601b6bffffffffffffffffffffffff1916604082015260540190565b60405160208183030381529060405280519060200120905090565b6005546001600160a01b03163314610c8b5760405162461bcd60e51b8152602060048201526014602482015273139bdd081858dd1a5bdb9cc818dbdb9d1c9858dd60621b6044820152606401610828565b60005b82811015610dd0576004546001600160a01b03166307084e56836000600b888887818110610cbe57610cbe612ada565b9050602002013581548110610cd557610cd5612ada565b60009182526020909120600260079092020101546040516001600160e01b031960e086901b1681526001600160a01b0393841660048201529290911660248301526044820152606401600060405180830381600087803b158015610d3857600080fd5b505af1158015610d4c573d6000803e3d6000fd5b5050506000868152600c602052604090209050848483818110610d7157610d71612ada565b83546001810185556000948552602094859020919094029290920135919092015550600b805486919082908110610daa57610daa612ada565b600091825260209091206003600790920201015580610dc881612b23565b915050610c8e565b50600654604051634ded13c560e11b81526001600160a01b0390911690639bda278a90610e039086908690600401612bb8565b600060405180830381600087803b158015610e1d57600080fd5b505af1158015610e31573d6000803e3d6000fd5b5050505050505050565b600080610e4a60016006611b02565b60ff1690507ffe34d093a460a16ee5fb374540914d1c734a17502c0c1a87b387c8d6097e1c518382604051610e89929190918252602082015260400190565b60405180910390a192915050565b610e9f611e9e565b600080546040516001600160a01b03909116914780156108fc02929091818181858888f19350505050158015610ed9573d6000803e3d6000fd5b50565b6000818152600c6020908152604091829020805483518184028101840190945280845260609392830182828015610f3257602002820191906000526020600020905b815481526020019060010190808311610f1e575b50505050509050919050565b6040805160e08082018352600080835260208084018290528385018290526060808501839052608080860184905260a080870185905260c0808801869052898652600c855288862089519788018a52868852948701869052978601859052918501849052840183905283018290529382015290919060005b82548110156112d9576000600b848381548110610fd557610fd5612ada565b906000526020600020015481548110610ff057610ff0612ada565b600091825260209091206007909102019050600160068201546301000000900460ff16600a81111561102457611024612862565b03611066578060060160049054906101000a900460ff1660000b836000015160000b1215611061576006810154600160201b900460ff1660000b83525b6112c6565b600260068201546301000000900460ff16600a81111561108857611088612862565b036110cc578060060160049054906101000a900460ff1660000b836020015160000b1215611061576006810154600160201b900460ff1660000b60208401526112c6565b600360068201546301000000900460ff16600a8111156110ee576110ee612862565b03611132578060060160049054906101000a900460ff1660000b836040015160000b1215611061576006810154600160201b900460ff1660000b60408401526112c6565b600460068201546301000000900460ff16600a81111561115457611154612862565b03611198578060060160049054906101000a900460ff1660000b836060015160000b1215611061576006810154600160201b900460ff1660000b60608401526112c6565b600560068201546301000000900460ff16600a8111156111ba576111ba612862565b036111fe578060060160049054906101000a900460ff1660000b836080015160000b1215611061576006810154600160201b900460ff1660000b60808401526112c6565b600860068201546301000000900460ff16600a81111561122057611220612862565b03611264578060060160049054906101000a900460ff1660000b8360a0015160000b1215611061576006810154600160201b900460ff1660000b60a08401526112c6565b600960068201546301000000900460ff16600a81111561128657611286612862565b036112c6578060060160049054906101000a900460ff1660000b8360c0015160000b12156112c6576006810154600160201b900460ff1660000b60c08401525b50806112d181612b23565b915050610fb6565b509392505050565b6112e9611e9e565b6112fb81670de0b6b3a7640000612bcc565b60085550565b60008061130e8686612be3565b905060008361131d8684612bcc565b6113279190612c0c565b90506113338782612c20565b979650505050505050565b60008061134a85610e3b565b6040805187815260208101839052908101869052606081018590529091507f75b6a8325595f91135e07382840634226793c68c9e59623da7e10d7ad3d95b959060800160405180910390a1806001036113a75760009150506113d4565b6003836113b48684612c20565b6113be9190612c33565b13156113ce5760019150506113d4565b60009150505b9392505050565b6003546001600160a01b031633146114295760405162461bcd60e51b8152602060048201526011602482015270139bdd0819d85b594818dbdb9d1c9858dd607a1b6044820152606401610828565b6000600b828154811061143e5761143e612ada565b9060005260206000209060070201600301819055506000600b828154811061146857611468612ada565b600091825260209091206006600790920201018054911515600160281b0265ff00000000001990921691909117905560048054604051630852cd8d60e31b81529182018390526001600160a01b0316906342966c6890602401600060405180830381600087803b1580156114db57600080fd5b505af11580156114ef573d6000803e3d6000fd5b505050506114fd8282611d52565b5050565b60008161150f846004612bcc565b6113d49190612c20565b611521611e9e565b6108c16000611ef8565b611533611e9e565b6009805460ff1916911515919091179055565b60008160000361155857506001919050565b8160010361156857506000919050565b8160020361157857506003919050565b8160030361158857506002919050565b60405162461bcd60e51b815260206004820152600d60248201526c2130b2103234b932b1ba34b7b760991b6044820152606401610828565b600c60205281600052604060002081815481106115dc57600080fd5b90600052602060002001600091509150505481565b604080518082019091526000808252602082015282600003611643576040518060400160405280600184600001516116299190612c5a565b60ff168152602001836020015160ff168152509050610bc9565b82600103611667576040518060400160405280836000015160016116299190612c73565b826002036116a4576040518060400160405280836000015160ff168152602001836020015160016116989190612c73565b60ff1690529050610bc9565b826003036116d5576040518060400160405280836000015160ff168152602001600184602001516116989190612c5a565b60006116e084611f48565b6040516020016116f09190612cb0565b60405160208183030381529060405290508060405162461bcd60e51b81526004016108289190612ceb565b60008082600161172c866002612e02565b6117369190612be3565b901b8516831c9150509392505050565b600854604080516602830bcb2b21d160cd1b60208201523460278201526a0161031b7b9ba1034b99d160ad1b60478201526052808201939093528151808203909301835260720190526000546001600160a01b03163314806117a9575060085434145b81906117c85760405162461bcd60e51b81526004016108289190612ceb565b506000546001600160a01b03163314806117ec57506003546001600160a01b031633145b8061180157506005546001600160a01b031633145b6118445760405162461bcd60e51b815260206004820152601460248201527310dbdb9d1c9858dd081b9bdd08185b1b1bddd95960621b6044820152606401610828565b61184e8383612051565b505050565b6000818152600c60205260408120546060918190036118a45760408051600080825260208201909252906112d9565b61188a6123d9565b815260200190600190039081611882579050509392505050565b60008167ffffffffffffffff8111156118bf576118bf612772565b6040519080825280602002602001820160405280156118f857816020015b6118e56123d9565b8152602001906001900390816118dd5790505b50905060005b81518110156112d9576000858152600c602052604090208054600b91908390811061192b5761192b612ada565b90600052602060002001548154811061194657611946612ada565b9060005260206000209060070201604051806101800160405290816000820154815260200160018201548152602001600282015481526020016003820154815260200160048201548152602001600582015481526020016006820160009054906101000a900460ff1660028111156119c0576119c0612862565b60028111156119d1576119d1612862565b8152600682015460ff61010082048116602084015262010000820481166040840152606090920191630100000090910416600a811115611a1357611a13612862565b600a811115611a2457611a24612862565b81526006919091015460ff600160201b820481166020840152600160281b9091041615156040909101528251839083908110611a6257611a62612ada565b60200260200101819052508080611a7890612b23565b9150506118fe565b600b8181548110611a9057600080fd5b60009182526020909120600790910201805460018201546002830154600384015460048501546005860154600690960154949650929491939092919060ff80821691610100810482169162010000820481169163010000008104821691600160201b8204811691600160281b9004168c565b6001805460009182611b1383612b23565b90915550506001546040516bffffffffffffffffffffffff193360601b166020820152603481019190915242605482015260009060740160408051601f19818403018152919052805160209091012090506000611b708585612c5a565b611b7b906001612c73565b90508460ff168160ff1683611b909190612e0e565b611b9a9190612c20565b95945050505050565b611bab611e9e565b600280546001600160a01b039687166001600160a01b031991821617909155600380549587169582168617905560068054821690951790945560048054938616938516939093179092556005805491851691841691909117905560078054919093169116179055565b611c1c611e9e565b6001600160a01b038116611c815760405162461bcd60e51b815260206004820152602660248201527f4f776e61626c653a206e6577206f776e657220697320746865207a65726f206160448201526564647265737360d01b6064820152608401610828565b610ed981611ef8565b80518251600091611c9a91612e22565b60000b600103611cac57506000610bc9565b81518351611cba9190612e22565b60000b19611cca57506001610bc9565b81602001518360200151611cde9190612e22565b60000b19611cee57506002610bc9565b81602001518360200151611d029190612e22565b60000b600103611d1457506003610bc9565b60405162461bcd60e51b8152602060048201526013602482015272115c9c9bdc8e88139bdd0818591a9858d95b9d606a1b6044820152606401610828565b6000828152600c6020526040812054611d6d90600190612be3565b67ffffffffffffffff811115611d8557611d85612772565b604051908082528060200260200182016040528015611dae578160200160208202803683370190505b5090506000805b6000858152600c6020526040902054811015611e77576000858152600c60205260409020805485919083908110611dee57611dee612ada565b906000526020600020015403611e105781611e0881612b23565b925050611e65565b6000858152600c60205260409020805482908110611e3057611e30612ada565b9060005260206000200154838383611e489190612be3565b81518110611e5857611e58612ada565b6020026020010181815250505b80611e6f81612b23565b915050611db5565b506000848152600c602090815260409091208351611e979285019061244e565b5050505050565b6000546001600160a01b031633146108c15760405162461bcd60e51b815260206004820181905260248201527f4f776e61626c653a2063616c6c6572206973206e6f7420746865206f776e65726044820152606401610828565b600080546001600160a01b038381166001600160a01b0319831681178455604051919092169283917f8be0079c531659141344cd1fd0a4f28419497f9722a3daafe3b4186f6b6457e09190a35050565b606081600003611f6f5750506040805180820190915260018152600360fc1b602082015290565b8160005b8115611f995780611f8381612b23565b9150611f929050600a83612c0c565b9150611f73565b60008167ffffffffffffffff811115611fb457611fb4612772565b6040519080825280601f01601f191660200182016040528015611fde576020820181803683370190505b5090505b841561204957611ff3600183612be3565b9150612000600a86612e0e565b61200b906030612c20565b60f81b81838151811061202057612020612ada565b60200101906001600160f81b031916908160001a905350612042600a86612c0c565b9450611fe2565b949350505050565b600480546040516309b6507f60e41b8152808301929092526000602483018190526001600160a01b0384811660448501529092911690639b6507f09064174876e8009060640160206040518083038185885af11580156120b5573d6000803e3d6000fd5b50505050506040513d601f19601f820116820180604052508101906120da9190612e43565b60048054604051632851838160e01b81529182018390529192506000916001600160a01b031690632851838190602401602060405180830381865afa158015612127573d6000803e3d6000fd5b505050506040513d601f19601f8201168201806040525081019061214b9190612e43565b600b805460018181018355600083905260079091027f0175b7a638427703f0dbe7bb9bbf987a2551717b34e79f33b5b1008d1fa01db901838155915492935090916121969190612be3565b60018083019190915560028201849055600382018690556004808301829055600060058401819055600b926121d2928692909161069a91611501565b60ff1610156121e25760016121e5565b60025b60068201805460ff1916600183600281111561220357612203612862565b021790555060068101805462ffff001916905561223361222b83600461069a60006001611501565b60ff1661232a565b60068201805463ff0000001916630100000083600a81111561225757612257612862565b0217905550600061227083600461069a60016002611501565b90506002600683015460ff16600281111561228d5761228d612862565b036122ac57600361229f826002612e5c565b6122a99190612e78565b90505b6122be600160048360ff16600f611301565b60068301805465ff00000000001960ff8416600160201b021665ffff000000001990911617600160281b1790556000878152600c60205260409020600b549192509061230c90600190612be3565b81546001810183556000928352602090922090910155505050505050565b60006001821161233c57506000919050565b6002821161234c57506001919050565b6003821161235c57506002919050565b6004821161236c57506003919050565b6005821161237c57506004919050565b6006821161238c57506005919050565b6008821161239c57506006919050565b600a82116123ac57506007919050565b600c82116123bc57506008919050565b600e82116123cc57506009919050565b50600a919050565b919050565b6040518061018001604052806000801916815260200160008152602001600081526020016000815260200160008152602001600081526020016000600281111561242557612425612862565b815260006020820181905260408201819052606082018190526080820181905260a09091015290565b828054828255906000526020600020908101928215612489579160200282015b8281111561248957825182559160200191906001019061246e565b50612495929150612499565b5090565b5b80821115612495576000815560010161249a565b60008083601f8401126124c057600080fd5b50813567ffffffffffffffff8111156124d857600080fd5b6020830191508360208260051b85010111156124f357600080fd5b9250929050565b60008060008060008060a0878903121561251357600080fd5b86359550602087013567ffffffffffffffff81111561253157600080fd5b61253d89828a016124ae565b979a90995096976040810135976060820135975060809091013595509350505050565b6001600160a01b0381168114610ed957600080fd5b60008060008060006080868803121561258d57600080fd5b853561259881612560565b945060208601356125a881612560565b935060408601359250606086013567ffffffffffffffff808211156125cc57600080fd5b818801915088601f8301126125e057600080fd5b8135818111156125ef57600080fd5b89602082850101111561260157600080fd5b9699959850939650602001949392505050565b60006020828403121561262657600080fd5b5035919050565b6000806000806060858703121561264357600080fd5b84359350602085013567ffffffffffffffff81111561266157600080fd5b61266d878288016124ae565b909450925050604085013561268181612560565b939692955090935050565b6020808252825182820181905260009190848201906040850190845b818110156126c4578351835292840192918401916001016126a8565b50909695505050505050565b600080600080608085870312156126e657600080fd5b5050823594602084013594506040840135936060013592509050565b60008060006060848603121561271757600080fd5b505081359360208301359350604090920135919050565b6000806040838503121561274157600080fd5b50508035926020909101359150565b60006020828403121561276257600080fd5b813580151581146113d457600080fd5b634e487b7160e01b600052604160045260246000fd5b803560ff811681146123d457600080fd5b6000604082840312156127ab57600080fd5b6040516040810181811067ffffffffffffffff821117156127dc57634e487b7160e01b600052604160045260246000fd5b6040529050806127eb83612788565b81526127f960208401612788565b60208201525092915050565b6000806060838503121561281857600080fd5b823591506128298460208501612799565b90509250929050565b6000806040838503121561284557600080fd5b82359150602083013561285781612560565b809150509250929050565b634e487b7160e01b600052602160045260246000fd5b6003811061288857612888612862565b9052565b600b811061288857612888612862565b602080825282518282018190526000919060409081850190868401855b8281101561296d5781518051855286810151878601528581015186860152606080820151908601526080808201519086015260a0808201519086015260c08082015161290782880182612878565b505060e08181015160ff81168783015250506101008181015160ff81168783015250506101208082015161293d8288018261288c565b50506101408181015160ff16908601526101609081015115159085015261018090930192908501906001016128b9565b5091979650505050505050565b6000610180820190508d82528c60208301528b60408301528a60608301528960808301528860a08301526129b160c0830189612878565b60ff871660e083015260ff86166101008301526129d261012083018661288c565b60ff84166101408301528215156101608301529d9c50505050505050505050505050565b60008060408385031215612a0957600080fd5b612a1283612788565b915061282960208401612788565b600080600080600060a08688031215612a3857600080fd5b8535612a4381612560565b94506020860135612a5381612560565b93506040860135612a6381612560565b92506060860135612a7381612560565b91506080860135612a8381612560565b809150509295509295909350565b600060208284031215612aa357600080fd5b81356113d481612560565b60008060808385031215612ac157600080fd5b612acb8484612799565b91506128298460408501612799565b634e487b7160e01b600052603260045260246000fd5b600060208284031215612b0257600080fd5b81516113d481612560565b634e487b7160e01b600052601160045260246000fd5b600060018201612b3557612b35612b0d565b5060010190565b81835260006001600160fb1b03831115612b5557600080fd5b8260051b80836020870137939093016020019392505050565b858152608060208201526000612b88608083018688612b3c565b604083019490945250606001529392505050565b6000600160ff1b8201612bb157612bb1612b0d565b5060000390565b602081526000612049602083018486612b3c565b8082028115828204841417610bc957610bc9612b0d565b81810381811115610bc957610bc9612b0d565b634e487b7160e01b600052601260045260246000fd5b600082612c1b57612c1b612bf6565b500490565b80820180821115610bc957610bc9612b0d565b8181036000831280158383131683831282161715612c5357612c53612b0d565b5092915050565b60ff8281168282160390811115610bc957610bc9612b0d565b60ff8181168382160190811115610bc957610bc9612b0d565b60005b83811015612ca7578181015183820152602001612c8f565b50506000910152565b72024b73b30b634b2103234b932b1ba34b7b71d1606d1b815260008251612cde816013850160208701612c8c565b9190910160130192915050565b6020815260008251806020840152612d0a816040850160208701612c8c565b601f01601f19169190910160400192915050565b600181815b80851115612d59578160001904821115612d3f57612d3f612b0d565b80851615612d4c57918102915b93841c9390800290612d23565b509250929050565b600082612d7057506001610bc9565b81612d7d57506000610bc9565b8160018114612d935760028114612d9d57612db9565b6001915050610bc9565b60ff841115612dae57612dae612b0d565b50506001821b610bc9565b5060208310610133831016604e8410600b8410161715612ddc575081810a610bc9565b612de68383612d1e565b8060001904821115612dfa57612dfa612b0d565b029392505050565b60006113d48383612d61565b600082612e1d57612e1d612bf6565b500690565b600082810b9082900b03607f198112607f82131715610bc957610bc9612b0d565b600060208284031215612e5557600080fd5b5051919050565b60ff8181168382160290811690818114612c5357612c53612b0d565b600060ff831680612e8b57612e8b612bf6565b8060ff8416049150509291505056fea26469706673582212201c7aac6a1dc2951a9a6d7f5e9ecde882482a28241a29508efda1a977ad23ca1d64736f6c63430008110033",
  "devdoc": {
    "kind": "dev",
    "methods": {
      "owner()": {
        "details": "Returns the address of the current owner."
      },
      "renounceOwnership()": {
        "details": "Leaves the contract without owner. It will not be possible to call `onlyOwner` functions anymore. Can only be called by the current owner. NOTE: Renouncing ownership will leave the contract without an owner, thereby removing any functionality that is only available to the owner."
      },
      "transferOwnership(address)": {
        "details": "Transfers ownership of the contract to a new account (`newOwner`). Can only be called by the current owner."
      }
    },
    "version": 1
  },
  "userdoc": {
    "kind": "user",
    "methods": {},
    "version": 1
  },
  "storageLayout": {
    "storage": [
      {
        "astId": 7,
        "contract": "contracts/BCItems.sol:BCItems",
        "label": "_owner",
        "offset": 0,
        "slot": "0",
        "type": "t_address"
      },
      {
        "astId": 15514,
        "contract": "contracts/BCItems.sol:BCItems",
        "label": "TODO_randomSeed",
        "offset": 0,
        "slot": "1",
        "type": "t_uint256"
      },
      {
        "astId": 9953,
        "contract": "contracts/BCItems.sol:BCItems",
        "label": "lobbies",
        "offset": 0,
        "slot": "2",
        "type": "t_contract(LobbyInterface)9862"
      },
      {
        "astId": 9955,
        "contract": "contracts/BCItems.sol:BCItems",
        "label": "gamesContract",
        "offset": 0,
        "slot": "3",
        "type": "t_address"
      },
      {
        "astId": 9958,
        "contract": "contracts/BCItems.sol:BCItems",
        "label": "uif",
        "offset": 0,
        "slot": "4",
        "type": "t_contract(UIFInterface)9936"
      },
      {
        "astId": 9960,
        "contract": "contracts/BCItems.sol:BCItems",
        "label": "actionsContract",
        "offset": 0,
        "slot": "5",
        "type": "t_address"
      },
      {
        "astId": 9963,
        "contract": "contracts/BCItems.sol:BCItems",
        "label": "games",
        "offset": 0,
        "slot": "6",
        "type": "t_contract(GameInterface)9881"
      },
      {
        "astId": 9966,
        "contract": "contracts/BCItems.sol:BCItems",
        "label": "playersContract",
        "offset": 0,
        "slot": "7",
        "type": "t_contract(PlayersContract)9944"
      },
      {
        "astId": 10017,
        "contract": "contracts/BCItems.sol:BCItems",
        "label": "mintCost",
        "offset": 0,
        "slot": "8",
        "type": "t_uint256"
      },
      {
        "astId": 10020,
        "contract": "contracts/BCItems.sol:BCItems",
        "label": "mintIsActive",
        "offset": 0,
        "slot": "9",
        "type": "t_bool"
      },
      {
        "astId": 10024,
        "contract": "contracts/BCItems.sol:BCItems",
        "label": "allowedContract",
        "offset": 1,
        "slot": "9",
        "type": "t_address"
      },
      {
        "astId": 10027,
        "contract": "contracts/BCItems.sol:BCItems",
        "label": "randSeed",
        "offset": 0,
        "slot": "10",
        "type": "t_uint256"
      },
      {
        "astId": 10031,
        "contract": "contracts/BCItems.sol:BCItems",
        "label": "items",
        "offset": 0,
        "slot": "11",
        "type": "t_array(t_struct(Item)15486_storage)dyn_storage"
      },
      {
        "astId": 10036,
        "contract": "contracts/BCItems.sol:BCItems",
        "label": "playerToItems",
        "offset": 0,
        "slot": "12",
        "type": "t_mapping(t_uint256,t_array(t_uint256)dyn_storage)"
      }
    ],
    "types": {
      "t_address": {
        "encoding": "inplace",
        "label": "address",
        "numberOfBytes": "20"
      },
      "t_array(t_struct(Item)15486_storage)dyn_storage": {
        "base": "t_struct(Item)15486_storage",
        "encoding": "dynamic_array",
        "label": "struct BCTypes.Item[]",
        "numberOfBytes": "32"
      },
      "t_array(t_uint256)dyn_storage": {
        "base": "t_uint256",
        "encoding": "dynamic_array",
        "label": "uint256[]",
        "numberOfBytes": "32"
      },
      "t_bool": {
        "encoding": "inplace",
        "label": "bool",
        "numberOfBytes": "1"
      },
      "t_bytes32": {
        "encoding": "inplace",
        "label": "bytes32",
        "numberOfBytes": "32"
      },
      "t_contract(GameInterface)9881": {
        "encoding": "inplace",
        "label": "contract GameInterface",
        "numberOfBytes": "20"
      },
      "t_contract(LobbyInterface)9862": {
        "encoding": "inplace",
        "label": "contract LobbyInterface",
        "numberOfBytes": "20"
      },
      "t_contract(PlayersContract)9944": {
        "encoding": "inplace",
        "label": "contract PlayersContract",
        "numberOfBytes": "20"
      },
      "t_contract(UIFInterface)9936": {
        "encoding": "inplace",
        "label": "contract UIFInterface",
        "numberOfBytes": "20"
      },
      "t_enum(ItemCategory)15242": {
        "encoding": "inplace",
        "label": "enum BCTypes.ItemCategory",
        "numberOfBytes": "1"
      },
      "t_enum(ItemType)15254": {
        "encoding": "inplace",
        "label": "enum BCTypes.ItemType",
        "numberOfBytes": "1"
      },
      "t_mapping(t_uint256,t_array(t_uint256)dyn_storage)": {
        "encoding": "mapping",
        "key": "t_uint256",
        "label": "mapping(uint256 => uint256[])",
        "numberOfBytes": "32",
        "value": "t_array(t_uint256)dyn_storage"
      },
      "t_struct(Item)15486_storage": {
        "encoding": "inplace",
        "label": "struct BCTypes.Item",
        "members": [
          {
            "astId": 15461,
            "contract": "contracts/BCItems.sol:BCItems",
            "label": "genHash",
            "offset": 0,
            "slot": "0",
            "type": "t_bytes32"
          },
          {
            "astId": 15463,
            "contract": "contracts/BCItems.sol:BCItems",
            "label": "id",
            "offset": 0,
            "slot": "1",
            "type": "t_uint256"
          },
          {
            "astId": 15465,
            "contract": "contracts/BCItems.sol:BCItems",
            "label": "uifID",
            "offset": 0,
            "slot": "2",
            "type": "t_uint256"
          },
          {
            "astId": 15467,
            "contract": "contracts/BCItems.sol:BCItems",
            "label": "holdingPlayerId",
            "offset": 0,
            "slot": "3",
            "type": "t_uint256"
          },
          {
            "astId": 15469,
            "contract": "contracts/BCItems.sol:BCItems",
            "label": "weight",
            "offset": 0,
            "slot": "4",
            "type": "t_uint256"
          },
          {
            "astId": 15471,
            "contract": "contracts/BCItems.sol:BCItems",
            "label": "traitModID",
            "offset": 0,
            "slot": "5",
            "type": "t_uint256"
          },
          {
            "astId": 15474,
            "contract": "contracts/BCItems.sol:BCItems",
            "label": "itemCategory",
            "offset": 0,
            "slot": "6",
            "type": "t_enum(ItemCategory)15242"
          },
          {
            "astId": 15476,
            "contract": "contracts/BCItems.sol:BCItems",
            "label": "grantsAbility",
            "offset": 1,
            "slot": "6",
            "type": "t_uint8"
          },
          {
            "astId": 15478,
            "contract": "contracts/BCItems.sol:BCItems",
            "label": "grantsFlaw",
            "offset": 2,
            "slot": "6",
            "type": "t_uint8"
          },
          {
            "astId": 15481,
            "contract": "contracts/BCItems.sol:BCItems",
            "label": "itemType",
            "offset": 3,
            "slot": "6",
            "type": "t_enum(ItemType)15254"
          },
          {
            "astId": 15483,
            "contract": "contracts/BCItems.sol:BCItems",
            "label": "power",
            "offset": 4,
            "slot": "6",
            "type": "t_uint8"
          },
          {
            "astId": 15485,
            "contract": "contracts/BCItems.sol:BCItems",
            "label": "inGame",
            "offset": 5,
            "slot": "6",
            "type": "t_bool"
          }
        ],
        "numberOfBytes": "224"
      },
      "t_uint256": {
        "encoding": "inplace",
        "label": "uint256",
        "numberOfBytes": "32"
      },
      "t_uint8": {
        "encoding": "inplace",
        "label": "uint8",
        "numberOfBytes": "1"
      }
    }
  }
}