{
  "address": "0x97e8dB8a74A10945937214237992034c75cfc973",
  "abi": [
    {
      "inputs": [],
      "stateMutability": "nonpayable",
      "type": "constructor"
    },
    {
      "anonymous": false,
      "inputs": [
        {
          "indexed": false,
          "internalType": "uint256",
          "name": "gameId",
          "type": "uint256"
        },
        {
          "indexed": false,
          "internalType": "uint256",
          "name": "roll",
          "type": "uint256"
        },
        {
          "indexed": false,
          "internalType": "uint256",
          "name": "forValue",
          "type": "uint256"
        },
        {
          "indexed": false,
          "internalType": "uint256",
          "name": "against",
          "type": "uint256"
        }
      ],
      "name": "ChallengeEvent",
      "type": "event"
    },
    {
      "anonymous": false,
      "inputs": [
        {
          "indexed": false,
          "internalType": "uint256",
          "name": "gameId",
          "type": "uint256"
        },
        {
          "indexed": false,
          "internalType": "uint256",
          "name": "roll",
          "type": "uint256"
        }
      ],
      "name": "DiceRollEvent",
      "type": "event"
    },
    {
      "anonymous": false,
      "inputs": [
        {
          "indexed": true,
          "internalType": "address",
          "name": "previousOwner",
          "type": "address"
        },
        {
          "indexed": true,
          "internalType": "address",
          "name": "newOwner",
          "type": "address"
        }
      ],
      "name": "OwnershipTransferred",
      "type": "event"
    },
    {
      "anonymous": false,
      "inputs": [],
      "name": "Received",
      "type": "event"
    },
    {
      "inputs": [
        {
          "internalType": "uint256",
          "name": "_matic",
          "type": "uint256"
        }
      ],
      "name": "SetMintCostInMatic",
      "outputs": [],
      "stateMutability": "nonpayable",
      "type": "function"
    },
    {
      "inputs": [
        {
          "internalType": "int256",
          "name": "x",
          "type": "int256"
        }
      ],
      "name": "abs",
      "outputs": [
        {
          "internalType": "int256",
          "name": "",
          "type": "int256"
        }
      ],
      "stateMutability": "pure",
      "type": "function"
    },
    {
      "inputs": [],
      "name": "actionsContract",
      "outputs": [
        {
          "internalType": "address",
          "name": "",
          "type": "address"
        }
      ],
      "stateMutability": "view",
      "type": "function"
    },
    {
      "inputs": [
        {
          "internalType": "uint256",
          "name": "_gameId",
          "type": "uint256"
        },
        {
          "internalType": "uint256[]",
          "name": "_playerIds",
          "type": "uint256[]"
        }
      ],
      "name": "addItemsToGame",
      "outputs": [],
      "stateMutability": "nonpayable",
      "type": "function"
    },
    {
      "inputs": [
        {
          "internalType": "uint256",
          "name": "_playerId",
          "type": "uint256"
        },
        {
          "internalType": "uint256[]",
          "name": "_itemIds",
          "type": "uint256[]"
        },
        {
          "internalType": "address",
          "name": "_owner",
          "type": "address"
        }
      ],
      "name": "addItemsToPlayer",
      "outputs": [],
      "stateMutability": "nonpayable",
      "type": "function"
    },
    {
      "inputs": [],
      "name": "commitItemToMission",
      "outputs": [],
      "stateMutability": "nonpayable",
      "type": "function"
    },
    {
      "inputs": [
        {
          "internalType": "uint256",
          "name": "_playerId",
          "type": "uint256"
        },
        {
          "internalType": "uint256",
          "name": "_itemId",
          "type": "uint256"
        }
      ],
      "name": "destroyItem",
      "outputs": [],
      "stateMutability": "nonpayable",
      "type": "function"
    },
    {
      "inputs": [
        {
          "internalType": "uint256",
          "name": "_gameId",
          "type": "uint256"
        },
        {
          "internalType": "uint256",
          "name": "_playerId",
          "type": "uint256"
        },
        {
          "internalType": "uint256",
          "name": "_row",
          "type": "uint256"
        },
        {
          "internalType": "uint256",
          "name": "_col",
          "type": "uint256"
        }
      ],
      "name": "dropAllItems",
      "outputs": [],
      "stateMutability": "nonpayable",
      "type": "function"
    },
    {
      "inputs": [],
      "name": "games",
      "outputs": [
        {
          "internalType": "contract GameInterface",
          "name": "",
          "type": "address"
        }
      ],
      "stateMutability": "view",
      "type": "function"
    },
    {
      "inputs": [],
      "name": "gamesContract",
      "outputs": [
        {
          "internalType": "address",
          "name": "",
          "type": "address"
        }
      ],
      "stateMutability": "view",
      "type": "function"
    },
    {
      "inputs": [
        {
          "internalType": "uint256",
          "name": "_gameId",
          "type": "uint256"
        }
      ],
      "name": "getAllPlayersItems",
      "outputs": [
        {
          "components": [
            {
              "internalType": "bytes32",
              "name": "genHash",
              "type": "bytes32"
            },
            {
              "internalType": "uint256",
              "name": "id",
              "type": "uint256"
            },
            {
              "internalType": "uint256",
              "name": "uifID",
              "type": "uint256"
            },
            {
              "internalType": "uint256",
              "name": "holdingPlayerId",
              "type": "uint256"
            },
            {
              "internalType": "address",
              "name": "ownerAddress",
              "type": "address"
            },
            {
              "internalType": "uint256",
              "name": "weight",
              "type": "uint256"
            },
            {
              "internalType": "enum BCTypes.ItemCategory",
              "name": "itemCategory",
              "type": "uint8"
            },
            {
              "internalType": "uint8",
              "name": "grantsAbility",
              "type": "uint8"
            },
            {
              "internalType": "uint8",
              "name": "grantsFlaw",
              "type": "uint8"
            },
            {
              "internalType": "enum BCTypes.ItemType",
              "name": "itemType",
              "type": "uint8"
            },
            {
              "internalType": "uint8",
              "name": "power",
              "type": "uint8"
            },
            {
              "internalType": "uint256",
              "name": "currentGame",
              "type": "uint256"
            },
            {
              "internalType": "enum BCTypes.WorldItemStatus",
              "name": "status",
              "type": "uint8"
            },
            {
              "components": [
                {
                  "internalType": "uint8",
                  "name": "row",
                  "type": "uint8"
                },
                {
                  "internalType": "uint8",
                  "name": "col",
                  "type": "uint8"
                }
              ],
              "internalType": "struct BCTypes.Position",
              "name": "position",
              "type": "tuple"
            }
          ],
          "internalType": "struct BCTypes.Item[][]",
          "name": "",
          "type": "tuple[][]"
        }
      ],
      "stateMutability": "view",
      "type": "function"
    },
    {
      "inputs": [
        {
          "components": [
            {
              "internalType": "uint8",
              "name": "row",
              "type": "uint8"
            },
            {
              "internalType": "uint8",
              "name": "col",
              "type": "uint8"
            }
          ],
          "internalType": "struct BCTypes.Position",
          "name": "_firstRoom",
          "type": "tuple"
        },
        {
          "components": [
            {
              "internalType": "uint8",
              "name": "row",
              "type": "uint8"
            },
            {
              "internalType": "uint8",
              "name": "col",
              "type": "uint8"
            }
          ],
          "internalType": "struct BCTypes.Position",
          "name": "_secondRoom",
          "type": "tuple"
        }
      ],
      "name": "getDirectionBetween",
      "outputs": [
        {
          "internalType": "uint256",
          "name": "",
          "type": "uint256"
        }
      ],
      "stateMutability": "pure",
      "type": "function"
    },
    {
      "inputs": [
        {
          "internalType": "uint256",
          "name": "_gameId",
          "type": "uint256"
        }
      ],
      "name": "getEventBlocks",
      "outputs": [
        {
          "internalType": "uint256[]",
          "name": "",
          "type": "uint256[]"
        }
      ],
      "stateMutability": "view",
      "type": "function"
    },
    {
      "inputs": [
        {
          "internalType": "uint256",
          "name": "_playerID",
          "type": "uint256"
        }
      ],
      "name": "getItemIDsByPlayer",
      "outputs": [
        {
          "internalType": "uint256[]",
          "name": "",
          "type": "uint256[]"
        }
      ],
      "stateMutability": "view",
      "type": "function"
    },
    {
      "inputs": [
        {
          "internalType": "uint256",
          "name": "_playerID",
          "type": "uint256"
        }
      ],
      "name": "getItemsByPlayer",
      "outputs": [
        {
          "components": [
            {
              "internalType": "bytes32",
              "name": "genHash",
              "type": "bytes32"
            },
            {
              "internalType": "uint256",
              "name": "id",
              "type": "uint256"
            },
            {
              "internalType": "uint256",
              "name": "uifID",
              "type": "uint256"
            },
            {
              "internalType": "uint256",
              "name": "holdingPlayerId",
              "type": "uint256"
            },
            {
              "internalType": "address",
              "name": "ownerAddress",
              "type": "address"
            },
            {
              "internalType": "uint256",
              "name": "weight",
              "type": "uint256"
            },
            {
              "internalType": "enum BCTypes.ItemCategory",
              "name": "itemCategory",
              "type": "uint8"
            },
            {
              "internalType": "uint8",
              "name": "grantsAbility",
              "type": "uint8"
            },
            {
              "internalType": "uint8",
              "name": "grantsFlaw",
              "type": "uint8"
            },
            {
              "internalType": "enum BCTypes.ItemType",
              "name": "itemType",
              "type": "uint8"
            },
            {
              "internalType": "uint8",
              "name": "power",
              "type": "uint8"
            },
            {
              "internalType": "uint256",
              "name": "currentGame",
              "type": "uint256"
            },
            {
              "internalType": "enum BCTypes.WorldItemStatus",
              "name": "status",
              "type": "uint8"
            },
            {
              "components": [
                {
                  "internalType": "uint8",
                  "name": "row",
                  "type": "uint8"
                },
                {
                  "internalType": "uint8",
                  "name": "col",
                  "type": "uint8"
                }
              ],
              "internalType": "struct BCTypes.Position",
              "name": "position",
              "type": "tuple"
            }
          ],
          "internalType": "struct BCTypes.Item[]",
          "name": "",
          "type": "tuple[]"
        }
      ],
      "stateMutability": "view",
      "type": "function"
    },
    {
      "inputs": [
        {
          "internalType": "uint256",
          "name": "_gameId",
          "type": "uint256"
        }
      ],
      "name": "getItemsIdsInGame",
      "outputs": [
        {
          "internalType": "uint256[]",
          "name": "",
          "type": "uint256[]"
        }
      ],
      "stateMutability": "view",
      "type": "function"
    },
    {
      "inputs": [
        {
          "internalType": "uint256",
          "name": "_direction",
          "type": "uint256"
        },
        {
          "components": [
            {
              "internalType": "uint8",
              "name": "row",
              "type": "uint8"
            },
            {
              "internalType": "uint8",
              "name": "col",
              "type": "uint8"
            }
          ],
          "internalType": "struct BCTypes.Position",
          "name": "_start",
          "type": "tuple"
        }
      ],
      "name": "getNeighborRoom",
      "outputs": [
        {
          "components": [
            {
              "internalType": "uint8",
              "name": "row",
              "type": "uint8"
            },
            {
              "internalType": "uint8",
              "name": "col",
              "type": "uint8"
            }
          ],
          "internalType": "struct BCTypes.Position",
          "name": "",
          "type": "tuple"
        }
      ],
      "stateMutability": "pure",
      "type": "function"
    },
    {
      "inputs": [
        {
          "internalType": "address",
          "name": "_address",
          "type": "address"
        }
      ],
      "name": "getOwnedItemIds",
      "outputs": [
        {
          "internalType": "uint256[]",
          "name": "",
          "type": "uint256[]"
        }
      ],
      "stateMutability": "view",
      "type": "function"
    },
    {
      "inputs": [
        {
          "internalType": "address",
          "name": "_address",
          "type": "address"
        }
      ],
      "name": "getOwnedItems",
      "outputs": [
        {
          "components": [
            {
              "internalType": "bytes32",
              "name": "genHash",
              "type": "bytes32"
            },
            {
              "internalType": "uint256",
              "name": "id",
              "type": "uint256"
            },
            {
              "internalType": "uint256",
              "name": "uifID",
              "type": "uint256"
            },
            {
              "internalType": "uint256",
              "name": "holdingPlayerId",
              "type": "uint256"
            },
            {
              "internalType": "address",
              "name": "ownerAddress",
              "type": "address"
            },
            {
              "internalType": "uint256",
              "name": "weight",
              "type": "uint256"
            },
            {
              "internalType": "enum BCTypes.ItemCategory",
              "name": "itemCategory",
              "type": "uint8"
            },
            {
              "internalType": "uint8",
              "name": "grantsAbility",
              "type": "uint8"
            },
            {
              "internalType": "uint8",
              "name": "grantsFlaw",
              "type": "uint8"
            },
            {
              "internalType": "enum BCTypes.ItemType",
              "name": "itemType",
              "type": "uint8"
            },
            {
              "internalType": "uint8",
              "name": "power",
              "type": "uint8"
            },
            {
              "internalType": "uint256",
              "name": "currentGame",
              "type": "uint256"
            },
            {
              "internalType": "enum BCTypes.WorldItemStatus",
              "name": "status",
              "type": "uint8"
            },
            {
              "components": [
                {
                  "internalType": "uint8",
                  "name": "row",
                  "type": "uint8"
                },
                {
                  "internalType": "uint8",
                  "name": "col",
                  "type": "uint8"
                }
              ],
              "internalType": "struct BCTypes.Position",
              "name": "position",
              "type": "tuple"
            }
          ],
          "internalType": "struct BCTypes.Item[]",
          "name": "",
          "type": "tuple[]"
        }
      ],
      "stateMutability": "view",
      "type": "function"
    },
    {
      "inputs": [
        {
          "internalType": "uint256",
          "name": "_playerId",
          "type": "uint256"
        }
      ],
      "name": "getTraitModifiers",
      "outputs": [
        {
          "components": [
            {
              "internalType": "int8",
              "name": "health",
              "type": "int8"
            },
            {
              "internalType": "int8",
              "name": "carry",
              "type": "int8"
            },
            {
              "internalType": "int8",
              "name": "defense",
              "type": "int8"
            },
            {
              "internalType": "int8",
              "name": "hack",
              "type": "int8"
            },
            {
              "internalType": "int8",
              "name": "breach",
              "type": "int8"
            },
            {
              "internalType": "int8",
              "name": "shoot",
              "type": "int8"
            },
            {
              "internalType": "int8",
              "name": "melee",
              "type": "int8"
            },
            {
              "internalType": "bool",
              "name": "hasGun",
              "type": "bool"
            }
          ],
          "internalType": "struct BCTypes.Traits",
          "name": "",
          "type": "tuple"
        }
      ],
      "stateMutability": "view",
      "type": "function"
    },
    {
      "inputs": [
        {
          "internalType": "uint256",
          "name": "_traitNum",
          "type": "uint256"
        },
        {
          "internalType": "uint256",
          "name": "_subTraitNum",
          "type": "uint256"
        }
      ],
      "name": "getUIOffset",
      "outputs": [
        {
          "internalType": "uint256",
          "name": "",
          "type": "uint256"
        }
      ],
      "stateMutability": "pure",
      "type": "function"
    },
    {
      "inputs": [
        {
          "internalType": "uint256",
          "name": "_gameId",
          "type": "uint256"
        }
      ],
      "name": "getWorldItemIds",
      "outputs": [
        {
          "internalType": "uint256[]",
          "name": "",
          "type": "uint256[]"
        }
      ],
      "stateMutability": "view",
      "type": "function"
    },
    {
      "inputs": [
        {
          "internalType": "uint256",
          "name": "_gameId",
          "type": "uint256"
        }
      ],
      "name": "getWorldItems",
      "outputs": [
        {
          "components": [
            {
              "internalType": "bytes32",
              "name": "genHash",
              "type": "bytes32"
            },
            {
              "internalType": "uint256",
              "name": "id",
              "type": "uint256"
            },
            {
              "internalType": "uint256",
              "name": "uifID",
              "type": "uint256"
            },
            {
              "internalType": "uint256",
              "name": "holdingPlayerId",
              "type": "uint256"
            },
            {
              "internalType": "address",
              "name": "ownerAddress",
              "type": "address"
            },
            {
              "internalType": "uint256",
              "name": "weight",
              "type": "uint256"
            },
            {
              "internalType": "enum BCTypes.ItemCategory",
              "name": "itemCategory",
              "type": "uint8"
            },
            {
              "internalType": "uint8",
              "name": "grantsAbility",
              "type": "uint8"
            },
            {
              "internalType": "uint8",
              "name": "grantsFlaw",
              "type": "uint8"
            },
            {
              "internalType": "enum BCTypes.ItemType",
              "name": "itemType",
              "type": "uint8"
            },
            {
              "internalType": "uint8",
              "name": "power",
              "type": "uint8"
            },
            {
              "internalType": "uint256",
              "name": "currentGame",
              "type": "uint256"
            },
            {
              "internalType": "enum BCTypes.WorldItemStatus",
              "name": "status",
              "type": "uint8"
            },
            {
              "components": [
                {
                  "internalType": "uint8",
                  "name": "row",
                  "type": "uint8"
                },
                {
                  "internalType": "uint8",
                  "name": "col",
                  "type": "uint8"
                }
              ],
              "internalType": "struct BCTypes.Position",
              "name": "position",
              "type": "tuple"
            }
          ],
          "internalType": "struct BCTypes.Item[]",
          "name": "",
          "type": "tuple[]"
        }
      ],
      "stateMutability": "view",
      "type": "function"
    },
    {
      "inputs": [
        {
          "internalType": "uint256",
          "name": "",
          "type": "uint256"
        }
      ],
      "name": "items",
      "outputs": [
        {
          "internalType": "bytes32",
          "name": "genHash",
          "type": "bytes32"
        },
        {
          "internalType": "uint256",
          "name": "id",
          "type": "uint256"
        },
        {
          "internalType": "uint256",
          "name": "uifID",
          "type": "uint256"
        },
        {
          "internalType": "uint256",
          "name": "holdingPlayerId",
          "type": "uint256"
        },
        {
          "internalType": "address",
          "name": "ownerAddress",
          "type": "address"
        },
        {
          "internalType": "uint256",
          "name": "weight",
          "type": "uint256"
        },
        {
          "internalType": "enum BCTypes.ItemCategory",
          "name": "itemCategory",
          "type": "uint8"
        },
        {
          "internalType": "uint8",
          "name": "grantsAbility",
          "type": "uint8"
        },
        {
          "internalType": "uint8",
          "name": "grantsFlaw",
          "type": "uint8"
        },
        {
          "internalType": "enum BCTypes.ItemType",
          "name": "itemType",
          "type": "uint8"
        },
        {
          "internalType": "uint8",
          "name": "power",
          "type": "uint8"
        },
        {
          "internalType": "uint256",
          "name": "currentGame",
          "type": "uint256"
        },
        {
          "internalType": "enum BCTypes.WorldItemStatus",
          "name": "status",
          "type": "uint8"
        },
        {
          "components": [
            {
              "internalType": "uint8",
              "name": "row",
              "type": "uint8"
            },
            {
              "internalType": "uint8",
              "name": "col",
              "type": "uint8"
            }
          ],
          "internalType": "struct BCTypes.Position",
          "name": "position",
          "type": "tuple"
        }
      ],
      "stateMutability": "view",
      "type": "function"
    },
    {
      "inputs": [],
      "name": "lobbies",
      "outputs": [
        {
          "internalType": "contract LobbyInterface",
          "name": "",
          "type": "address"
        }
      ],
      "stateMutability": "view",
      "type": "function"
    },
    {
      "inputs": [
        {
          "internalType": "uint256",
          "name": "_holdingPlayerId",
          "type": "uint256"
        },
        {
          "internalType": "address",
          "name": "_holderAddress",
          "type": "address"
        },
        {
          "internalType": "uint256",
          "name": "_gameId",
          "type": "uint256"
        }
      ],
      "name": "lootItem",
      "outputs": [],
      "stateMutability": "payable",
      "type": "function"
    },
    {
      "inputs": [
        {
          "components": [
            {
              "internalType": "uint8",
              "name": "row",
              "type": "uint8"
            },
            {
              "internalType": "uint8",
              "name": "col",
              "type": "uint8"
            }
          ],
          "internalType": "struct BCTypes.Position",
          "name": "_pos1",
          "type": "tuple"
        },
        {
          "components": [
            {
              "internalType": "uint8",
              "name": "row",
              "type": "uint8"
            },
            {
              "internalType": "uint8",
              "name": "col",
              "type": "uint8"
            }
          ],
          "internalType": "struct BCTypes.Position",
          "name": "_pos2",
          "type": "tuple"
        }
      ],
      "name": "manhattanDistance",
      "outputs": [
        {
          "internalType": "uint256",
          "name": "",
          "type": "uint256"
        }
      ],
      "stateMutability": "pure",
      "type": "function"
    },
    {
      "inputs": [],
      "name": "mintCost",
      "outputs": [
        {
          "internalType": "uint256",
          "name": "",
          "type": "uint256"
        }
      ],
      "stateMutability": "view",
      "type": "function"
    },
    {
      "inputs": [],
      "name": "mintIsActive",
      "outputs": [
        {
          "internalType": "bool",
          "name": "",
          "type": "bool"
        }
      ],
      "stateMutability": "view",
      "type": "function"
    },
    {
      "inputs": [
        {
          "internalType": "uint256",
          "name": "_min",
          "type": "uint256"
        },
        {
          "internalType": "uint256",
          "name": "_max",
          "type": "uint256"
        },
        {
          "internalType": "uint256",
          "name": "_val",
          "type": "uint256"
        },
        {
          "internalType": "uint256",
          "name": "_valMax",
          "type": "uint256"
        }
      ],
      "name": "normalizeToSmallRange",
      "outputs": [
        {
          "internalType": "uint8",
          "name": "",
          "type": "uint8"
        }
      ],
      "stateMutability": "pure",
      "type": "function"
    },
    {
      "inputs": [
        {
          "internalType": "address",
          "name": "_operator",
          "type": "address"
        },
        {
          "internalType": "address",
          "name": "_from",
          "type": "address"
        },
        {
          "internalType": "uint256",
          "name": "_tokenId",
          "type": "uint256"
        },
        {
          "internalType": "bytes",
          "name": "_data",
          "type": "bytes"
        }
      ],
      "name": "onERC721Received",
      "outputs": [
        {
          "internalType": "bytes4",
          "name": "",
          "type": "bytes4"
        }
      ],
      "stateMutability": "nonpayable",
      "type": "function"
    },
    {
      "inputs": [
        {
          "internalType": "uint256",
          "name": "_direction",
          "type": "uint256"
        }
      ],
      "name": "opposite",
      "outputs": [
        {
          "internalType": "uint256",
          "name": "",
          "type": "uint256"
        }
      ],
      "stateMutability": "pure",
      "type": "function"
    },
    {
      "inputs": [],
      "name": "owner",
      "outputs": [
        {
          "internalType": "address",
          "name": "",
          "type": "address"
        }
      ],
      "stateMutability": "view",
      "type": "function"
    },
    {
      "inputs": [
        {
          "internalType": "uint256",
          "name": "_playerId",
          "type": "uint256"
        },
        {
          "internalType": "uint256[]",
          "name": "_itemIds",
          "type": "uint256[]"
        },
        {
          "internalType": "address",
          "name": "_newOwnerAddress",
          "type": "address"
        }
      ],
      "name": "pickupWorldItems",
      "outputs": [],
      "stateMutability": "nonpayable",
      "type": "function"
    },
    {
      "inputs": [],
      "name": "playersContract",
      "outputs": [
        {
          "internalType": "contract PlayersContract",
          "name": "",
          "type": "address"
        }
      ],
      "stateMutability": "view",
      "type": "function"
    },
    {
      "inputs": [],
      "name": "randKeccak",
      "outputs": [
        {
          "internalType": "bytes32",
          "name": "",
          "type": "bytes32"
        }
      ],
      "stateMutability": "nonpayable",
      "type": "function"
    },
    {
      "inputs": [],
      "name": "renounceOwnership",
      "outputs": [],
      "stateMutability": "nonpayable",
      "type": "function"
    },
    {
      "inputs": [
        {
          "internalType": "uint256",
          "name": "_gameId",
          "type": "uint256"
        },
        {
          "internalType": "uint256",
          "name": "_for",
          "type": "uint256"
        },
        {
          "internalType": "uint256",
          "name": "_against",
          "type": "uint256"
        }
      ],
      "name": "resolveChallenge",
      "outputs": [
        {
          "internalType": "bool",
          "name": "",
          "type": "bool"
        }
      ],
      "stateMutability": "nonpayable",
      "type": "function"
    },
    {
      "inputs": [
        {
          "internalType": "uint256",
          "name": "_gameId",
          "type": "uint256"
        }
      ],
      "name": "roll",
      "outputs": [
        {
          "internalType": "uint256",
          "name": "",
          "type": "uint256"
        }
      ],
      "stateMutability": "nonpayable",
      "type": "function"
    },
    {
      "inputs": [
        {
          "internalType": "address",
          "name": "_lobbyContractAddress",
          "type": "address"
        },
        {
          "internalType": "address",
          "name": "_gameContract",
          "type": "address"
        },
        {
          "internalType": "address",
          "name": "_UIFAddress",
          "type": "address"
        },
        {
          "internalType": "address",
          "name": "_actionsContract",
          "type": "address"
        },
        {
          "internalType": "address",
          "name": "_playersContract",
          "type": "address"
        }
      ],
      "name": "setContractAddresses",
      "outputs": [],
      "stateMutability": "nonpayable",
      "type": "function"
    },
    {
      "inputs": [
        {
          "internalType": "bool",
          "name": "_status",
          "type": "bool"
        }
      ],
      "name": "setMintingStatus",
      "outputs": [],
      "stateMutability": "nonpayable",
      "type": "function"
    },
    {
      "inputs": [
        {
          "internalType": "bytes32",
          "name": "_hash",
          "type": "bytes32"
        },
        {
          "internalType": "uint256",
          "name": "_size",
          "type": "uint256"
        },
        {
          "internalType": "uint256",
          "name": "_offset",
          "type": "uint256"
        }
      ],
      "name": "sliceHashToSmallInt",
      "outputs": [
        {
          "internalType": "uint8",
          "name": "",
          "type": "uint8"
        }
      ],
      "stateMutability": "pure",
      "type": "function"
    },
    {
      "inputs": [
        {
          "internalType": "uint8",
          "name": "_min",
          "type": "uint8"
        },
        {
          "internalType": "uint8",
          "name": "_max",
          "type": "uint8"
        }
      ],
      "name": "smallIntBetweenVals",
      "outputs": [
        {
          "internalType": "uint8",
          "name": "",
          "type": "uint8"
        }
      ],
      "stateMutability": "nonpayable",
      "type": "function"
    },
    {
      "inputs": [],
      "name": "spawnCompanyItem",
      "outputs": [],
      "stateMutability": "payable",
      "type": "function"
    },
    {
      "inputs": [
        {
          "internalType": "uint256",
          "name": "_gameId",
          "type": "uint256"
        },
        {
          "internalType": "uint256[]",
          "name": "_itemIds",
          "type": "uint256[]"
        },
        {
          "internalType": "uint256",
          "name": "_row",
          "type": "uint256"
        },
        {
          "internalType": "uint256",
          "name": "_col",
          "type": "uint256"
        },
        {
          "internalType": "uint256",
          "name": "_formerOwnerId",
          "type": "uint256"
        }
      ],
      "name": "spawnWorldItems",
      "outputs": [],
      "stateMutability": "nonpayable",
      "type": "function"
    },
    {
      "inputs": [
        {
          "internalType": "uint256",
          "name": "_playerId",
          "type": "uint256"
        },
        {
          "internalType": "uint256",
          "name": "_gameId",
          "type": "uint256"
        }
      ],
      "name": "takeItemsHome",
      "outputs": [],
      "stateMutability": "nonpayable",
      "type": "function"
    },
    {
      "inputs": [],
      "name": "transferFundsOut",
      "outputs": [],
      "stateMutability": "nonpayable",
      "type": "function"
    },
    {
      "inputs": [
        {
          "internalType": "address",
          "name": "newOwner",
          "type": "address"
        }
      ],
      "name": "transferOwnership",
      "outputs": [],
      "stateMutability": "nonpayable",
      "type": "function"
    },
    {
      "inputs": [],
      "name": "uif",
      "outputs": [
        {
          "internalType": "contract UIFInterface",
          "name": "",
          "type": "address"
        }
      ],
      "stateMutability": "view",
      "type": "function"
    }
  ],
  "transactionHash": "0xa181f3f11b1244eae7b0ccd8dfd2decb5611a9aec3072382946e780046ef589f",
  "args": [],
  "numDeployments": 1,
  "solcInputHash": "df75a07ce310e8d33994ff42cae65914",
  "bytecode": "0x60806040526000600190815564174876e800600955600a805460ff191690911790553480156200002e57600080fd5b506200003a3362000040565b62000090565b600080546001600160a01b038381166001600160a01b0319831681178455604051919092169283917f8be0079c531659141344cd1fd0a4f28419497f9722a3daafe3b4186f6b6457e09190a35050565b6141cb80620000a06000396000f3fe6080604052600436106102ae5760003560e01c806364b0e50011610175578063b78e6651116100dc578063e417dc3511610095578063f10bff2b1161006f578063f10bff2b146108aa578063f135332a146108ca578063f2fde38b146108ea578063fa3993c21461090a57600080fd5b8063e417dc351461084a578063e847ae1e1461086a578063ec25c2541461088a57600080fd5b8063b78e66511461076d578063b918fd681461078d578063bdb4b848146107ad578063bfb231d2146107c3578063ce28613f146107fd578063daf737761461081d57600080fd5b806377e01eca1161012e57806377e01eca146106a25780638214f222146106c25780638da5cb5b146106e2578063951fc3fe14610700578063955a015b1461072d57806397f34c3f1461074d57600080fd5b806364b0e500146105f457806364db84bf14610621578063705498dc14610641578063715018a6146106615780637420aa361461067657806376c8aa271461069657600080fd5b80631f7b4f301161021957806347ef26b1116101d257806347ef26b114610515578063501f97841461054257806353011696146105625780635dc96967146105945780635f09c782146105b45780635f872601146105d457600080fd5b80631f7b4f3014610456578063249af0b414610476578063268f1d4d146104965780633838aed1146104b65780633841fae1146104cb578063471a4294146104eb57600080fd5b8063150b7a021161026b578063150b7a021461037a578063154fa27a146103b3578063185ae9dc146103d35780631b5ac4b5146103f35780631e1de205146104215780631ef2688c1461043657600080fd5b80630364f88c146102b35780630cc0db53146102f05780630e73c024146103055780630fd8e8331461033257806311ff70471461033a578063129f09031461035a575b600080fd5b3480156102bf57600080fd5b506003546102d3906001600160a01b031681565b6040516001600160a01b0390911681526020015b60405180910390f35b6103036102fe3660046134dc565b61092a565b005b34801561031157600080fd5b50610325610320366004613514565b610a42565b6040516102e7919061352d565b610303610a62565b34801561034657600080fd5b50610303610355366004613645565b610b4e565b34801561036657600080fd5b506008546102d3906001600160a01b031681565b34801561038657600080fd5b5061039a6103953660046136a6565b610e41565b6040516001600160e01b031990911681526020016102e7565b3480156103bf57600080fd5b506004546102d3906001600160a01b031681565b3480156103df57600080fd5b506006546102d3906001600160a01b031681565b3480156103ff57600080fd5b5061041361040e366004613514565b610e7e565b6040519081526020016102e7565b34801561042d57600080fd5b50610413610e9a565b34801561044257600080fd5b50610303610451366004613744565b610f12565b34801561046257600080fd5b50610413610471366004613514565b6110f9565b34801561048257600080fd5b506103036104913660046137d5565b611155565b3480156104a257600080fd5b506103036104b136600461382f565b611337565b3480156104c257600080fd5b506103036113c3565b3480156104d757600080fd5b506103256104e6366004613514565b611408565b3480156104f757600080fd5b50600a546105059060ff1681565b60405190151581526020016102e7565b34801561052157600080fd5b50610535610530366004613514565b611422565b6040516102e79190613861565b34801561054e57600080fd5b5061030361055d366004613514565b611769565b34801561056e57600080fd5b5061058261057d36600461382f565b611789565b60405160ff90911681526020016102e7565b3480156105a057600080fd5b506105056105af3660046138d0565b6117c6565b3480156105c057600080fd5b506103036105cf3660046138fc565b611863565b3480156105e057600080fd5b506103036105ef3660046138fc565b611919565b34801561060057600080fd5b5061061461060f366004613514565b611ac6565b6040516102e79190613a79565b34801561062d57600080fd5b5061041361063c3660046138fc565b611d68565b34801561064d57600080fd5b506005546102d3906001600160a01b031681565b34801561066d57600080fd5b50610303611d80565b34801561068257600080fd5b50610303610691366004613a8c565b611d92565b34801561030357600080fd5b3480156106ae57600080fd5b506103256106bd366004613aae565b611dad565b3480156106ce57600080fd5b506104136106dd366004613514565b611dd1565b3480156106ee57600080fd5b506000546001600160a01b03166102d3565b34801561070c57600080fd5b5061072061071b366004613b39565b611e4b565b6040516102e79190613b66565b34801561073957600080fd5b506007546102d3906001600160a01b031681565b34801561075957600080fd5b506105826107683660046138d0565b611f75565b34801561077957600080fd5b50610614610788366004613514565b611fa0565b34801561079957600080fd5b506103256107a8366004613514565b6121e5565b3480156107b957600080fd5b5061041360095481565b3480156107cf57600080fd5b506107e36107de366004613514565b6122f2565b6040516102e79e9d9c9b9a99989796959493929190613b84565b34801561080957600080fd5b50610582610818366004613c2f565b6123a8565b34801561082957600080fd5b5061083d610838366004613514565b612458565b6040516102e79190613c59565b34801561085657600080fd5b50610614610865366004613aae565b612580565b34801561087657600080fd5b50610303610885366004613cbb565b6127d2565b34801561089657600080fd5b506103036108a5366004613d2c565b612843565b3480156108b657600080fd5b506104136108c5366004613d72565b61296c565b3480156108d657600080fd5b506103256108e5366004613514565b6129b9565b3480156108f657600080fd5b50610303610905366004613aae565b6129d3565b34801561091657600080fd5b50610413610925366004613d72565b612a49565b600954604080516602830bcb2b21d160cd1b60208201523460278201526a0161031b7b9ba1034b99d160ad1b60478201526052808201939093528151808203909301835260720190526000546001600160a01b031633148061098d575060095434145b81906109b55760405162461bcd60e51b81526004016109ac9190613dc2565b60405180910390fd5b506000546001600160a01b03163314806109d957506004546001600160a01b031633145b806109ee57506006546001600160a01b031633145b610a315760405162461bcd60e51b815260206004820152601460248201527310dbdb9d1c9858dd081b9bdd08185b1b1bddd95960621b60448201526064016109ac565b610a3c848484612b11565b50505050565b6000818152600260205260409020606090610a5c90612df2565b92915050565b6000546001600160a01b0316331480610a7c575060095434145b610abc5760405162461bcd60e51b8152602060048201526011602482015270125b98dbdc9c9958dd081c185e5b595b9d607a1b60448201526064016109ac565b6000546001600160a01b0316331480610adc5750600a5460ff1615156001145b610b205760405162461bcd60e51b81526020600482015260156024820152744d696e74696e67206973206e6f742061637469766560581b60448201526064016109ac565b6000546001600160a01b0316331480610b4357506004546001600160a01b031633145b610b4c57600080fd5b565b6006546001600160a01b0316331480610b7157506008546001600160a01b031633145b610bd75760405162461bcd60e51b815260206004820152603160248201527f4e6f7420616374696f6e73206f7220706c617965727320636f6e7472616374206044820152702d20737061776e576f726c644974656d7360781b60648201526084016109ac565b835115610e3a5760085484516000916001600160a01b031690636621a42190600b9088908590610c0957610c09613df5565b602002602001015181548110610c2157610c21613df5565b90600052602060002090600a0201600301546040518263ffffffff1660e01b8152600401610c5191815260200190565b602060405180830381865afa158015610c6e573d6000803e3d6000fd5b505050506040513d601f19601f82011682018060405250810190610c929190613e0b565b905060005b8551811015610e3757600560009054906101000a90046001600160a01b03166001600160a01b03166307084e56600084600b8a8681518110610cdb57610cdb613df5565b602002602001015181548110610cf357610cf3613df5565b600091825260209091206002600a9092020101546040516001600160e01b031960e086901b1681526001600160a01b0393841660048201529290911660248301526044820152606401600060405180830381600087803b158015610d5657600080fd5b505af1158015610d6a573d6000803e3d6000fd5b50505050610d9183878381518110610d8457610d84613df5565b6020026020010151612dff565b6000600b878381518110610da757610da7613df5565b602002602001015181548110610dbf57610dbf613df5565b6000918252602082206003600a909202019081019190915560088101805491925060029160ff191660018302179055506040805180820190915260ff8781168083529087166020909201829052600992909201805461ffff191690921761010090910217905580610e2f81613e3e565b915050610c97565b50505b5050505050565b6040516000907f544c765b33ca411cce832250371569244f765a17fcd217832be093f0fd5fa45b908290a150630a85bd0160e11b95945050505050565b600080821215610e9657610e9182613e57565b610a5c565b5090565b6001805460009182610eab83613e3e565b9190505550600154600143610ec09190613e73565b4033604051602001610ef793929190928352602083019190915260601b6bffffffffffffffffffffffff1916604082015260540190565b60405160208183030381529060405280519060200120905090565b6006546001600160a01b03163314610f7c5760405162461bcd60e51b815260206004820152602760248201527f4e6f7420616374696f6e7320636f6e7472616374202d207069636b7570576f726044820152666c644974656d7360c81b60648201526084016109ac565b60005b82811015610e3a576005546001600160a01b03166307084e56836000600b888887818110610faf57610faf613df5565b9050602002013581548110610fc657610fc6613df5565b600091825260209091206002600a9092020101546040516001600160e01b031960e086901b1681526001600160a01b0393841660048201529290911660248301526044820152606401600060405180830381600087803b15801561102957600080fd5b505af115801561103d573d6000803e3d6000fd5b5050505061107384848381811061105657611056613df5565b6000898152600c6020908152604090912093910201359050612e7b565b506000600b85858481811061108a5761108a613df5565b90506020020135815481106110a1576110a1613df5565b600091825260208083206003600a9093020191820189905560088201805460ff19166001179055604080518082019091528381520191909152600901805461ffff1916905550806110f181613e3e565b915050610f7f565b600080611108600160066123a8565b60ff1690507ffe34d093a460a16ee5fb374540914d1c734a17502c0c1a87b387c8d6097e1c518382604051611147929190918252602082015260400190565b60405180910390a192915050565b6008546001600160a01b031633146111bf5760405162461bcd60e51b815260206004820152602760248201527f4e6f7420706c617965727320636f6e7472616374202d206164644974656d735460448201526637a83630bcb2b960c91b60648201526084016109ac565b60005b8251811015610a3c5760008382815181106111df576111df613df5565b602002602001015190506000600b82815481106111fe576111fe613df5565b90600052602060002090600a0201905080600301546000146112625760405162461bcd60e51b815260206004820181905260248201527f536f6d656f6e6520697320616c726561647920686f6c64696e6720746869732160448201526064016109ac565b60048101546001600160a01b038581169116146112cd5760405162461bcd60e51b815260206004820152602360248201527f4f776e657220666f72206974656d20616e64206368617220646f6e2774206d616044820152620e8c6d60eb1b60648201526084016109ac565b600381018690556004810180546001600160a01b03191690556000868152600c602052604090206112fe9083612e7b565b506001600160a01b0384166000908152600e602052604090206113219083612e87565b505050808061132f90613e3e565b9150506111c2565b6008546001600160a01b0316331461139d5760405162461bcd60e51b815260206004820152602360248201527f4e6f7420706c617965727320636f6e7472616374202d2064726f70416c6c4974604482015262656d7360e81b60648201526084016109ac565b6000838152600c602052604081206113b490612df2565b9050610e3a8582858588610b4e565b6113cb612e93565b600080546040516001600160a01b03909116914780156108fc02929091818181858888f19350505050158015611405573d6000803e3d6000fd5b50565b6000818152600c60205260409020606090610a5c90612df2565b61142a613402565b6000828152600c60205260409020611440613402565b60005b61144c83612eed565b811015611761576000600b6114618584612ef7565b8154811061147157611471613df5565b60009182526020909120600a909102019050600160068201546301000000900460ff16600a8111156114a5576114a561391e565b036114e7578060060160049054906101000a900460ff1660000b836000015160000b12156114e2576006810154600160201b900460ff1660000b83525b61174e565b600260068201546301000000900460ff16600a8111156115095761150961391e565b0361154d578060060160049054906101000a900460ff1660000b836020015160000b12156114e2576006810154600160201b900460ff1660000b602084015261174e565b600360068201546301000000900460ff16600a81111561156f5761156f61391e565b036115b3578060060160049054906101000a900460ff1660000b836040015160000b12156114e2576006810154600160201b900460ff1660000b604084015261174e565b600460068201546301000000900460ff16600a8111156115d5576115d561391e565b03611619578060060160049054906101000a900460ff1660000b836060015160000b12156114e2576006810154600160201b900460ff1660000b606084015261174e565b600560068201546301000000900460ff16600a81111561163b5761163b61391e565b0361167f578060060160049054906101000a900460ff1660000b836080015160000b12156114e2576006810154600160201b900460ff1660000b608084015261174e565b600860068201546301000000900460ff16600a8111156116a1576116a161391e565b036116ec578060060160049054906101000a900460ff1660000b8360a0015160000b12156114e2576006810154600160201b900460ff1660000b60a0840152600160e084015261174e565b600960068201546301000000900460ff16600a81111561170e5761170e61391e565b0361174e578060060160049054906101000a900460ff1660000b8360c0015160000b121561174e576006810154600160201b900460ff1660000b60c08401525b508061175981613e3e565b915050611443565b509392505050565b611771612e93565b61178381670de0b6b3a7640000613e86565b60095550565b6000806117968686613e73565b90506000836117a58684613e86565b6117af9190613eb3565b90506117bb8782613ec7565b979650505050505050565b6000806117d2856110f9565b6040805187815260208101839052908101869052606081018590529091507f75b6a8325595f91135e07382840634226793c68c9e59623da7e10d7ad3d95b959060800160405180910390a18060010361182f57600091505061185c565b60038361183c8684613ec7565b6118469190613eda565b131561185657600191505061185c565b60009150505b9392505050565b6004546001600160a01b031633148061188657506008546001600160a01b031633145b6118c95760405162461bcd60e51b8152602060048201526014602482015273139bdd08185b1b1bddd9590818dbdb9d1c9858dd60621b60448201526064016109ac565b6000600b82815481106118de576118de613df5565b90600052602060002090600a020190506118f88383612dff565b611906816007015483612f03565b6000600382018190556007909101555050565b6007546001600160a01b031633146119685760405162461bcd60e51b8152602060048201526012602482015271139bdd0819d85b595cc818dbdb9d1c9858dd60721b60448201526064016109ac565b6000828152600c60205260408082206008549151636621a42160e01b8152600481018690529092916001600160a01b031690636621a42190602401602060405180830381865afa1580156119c0573d6000803e3d6000fd5b505050506040513d601f19601f820116820180604052508101906119e49190613e0b565b905060006119f183612eed565b9050805b8015611abe576000611a12611a0b600184613e73565b8690612ef7565b90506000600b8281548110611a2957611a29613df5565b600091825260208083206003600a9390930201918201839055600480830180546001600160a01b038b166001600160a01b031990911681179091556007840185905560088401805460ff19169092179091558352600e90526040909120909150611a939083612e7b565b50611a9e8683612e87565b50611aa98783612f03565b50508080611ab690613efa565b9150506119f5565b505050505050565b60606000611ad383612f7f565b9050600080826001600160401b03811115611af057611af0613571565b604051908082528060200260200182016040528015611b2957816020015b611b16613446565b815260200190600190039081611b0e5790505b506000868152600d60205260408120919250611b4482612eed565b905060005b81811015611d5c576002600b611b5f8584612ef7565b81548110611b6f57611b6f613df5565b600091825260209091206008600a90920201015460ff166004811115611b9757611b9761391e565b03611d4a57600b611ba88483612ef7565b81548110611bb857611bb8613df5565b6000918252602091829020604080516101c081018252600a90930290910180548352600181015493830193909352600280840154918301919091526003830154606083015260048301546001600160a01b03166080830152600583015460a0830152600683015491929160c084019160ff90911690811115611c3c57611c3c61391e565b6002811115611c4d57611c4d61391e565b8152600682015460ff61010082048116602084015262010000820481166040840152606090920191630100000090910416600a811115611c8f57611c8f61391e565b600a811115611ca057611ca061391e565b8152600682015460ff600160201b90910481166020830152600783015460408301526008830154606090920191166004811115611cdf57611cdf61391e565b6004811115611cf057611cf061391e565b8152604080518082019091526009929092015460ff80821684526101009091041660208381019190915201528451859087908110611d3057611d30613df5565b60200260200101819052508480611d4690613e3e565b9550505b80611d5481613e3e565b915050611b49565b50919695505050505050565b600081611d76846004613e86565b61185c9190613ec7565b611d88612e93565b610b4c600061301b565b611d9a612e93565b600a805460ff1916911515919091179055565b6001600160a01b0381166000908152600e60205260409020606090610a5c90612df2565b600081600003611de357506001919050565b81600103611df357506000919050565b81600203611e0357506003919050565b81600303611e1357506002919050565b60405162461bcd60e51b815260206004820152600d60248201526c2130b2103234b932b1ba34b7b760991b60448201526064016109ac565b604080518082019091526000808252602082015282600003611e9d57604051806040016040528060018460000151611e839190613f11565b60ff168152602001836020015160ff168152509050610a5c565b82600103611ec157604051806040016040528083600001516001611e839190613f2a565b82600203611efe576040518060400160405280836000015160ff16815260200183602001516001611ef29190613f2a565b60ff1690529050610a5c565b82600303611f2f576040518060400160405280836000015160ff16815260200160018460200151611ef29190613f11565b6000611f3a8461306b565b604051602001611f4a9190613f43565b60405160208183030381529060405290508060405162461bcd60e51b81526004016109ac9190613dc2565b600080826001611f86866002614062565b611f909190613e73565b901b8516831c9150509392505050565b6000818152600c6020526040812060609190611fbb90612eed565b6001600160401b03811115611fd257611fd2613571565b60405190808252806020026020018201604052801561200b57816020015b611ff8613446565b815260200190600190039081611ff05790505b50905060005b81518110156121de576000848152600c602052604081206120329083612ef7565b9050600b818154811061204757612047613df5565b6000918252602091829020604080516101c081018252600a90930290910180548352600181015493830193909352600280840154918301919091526003830154606083015260048301546001600160a01b03166080830152600583015460a0830152600683015491929160c084019160ff909116908111156120cb576120cb61391e565b60028111156120dc576120dc61391e565b8152600682015460ff61010082048116602084015262010000820481166040840152606090920191630100000090910416600a81111561211e5761211e61391e565b600a81111561212f5761212f61391e565b8152600682015460ff600160201b9091048116602083015260078301546040830152600883015460609092019116600481111561216e5761216e61391e565b600481111561217f5761217f61391e565b8152604080518082019091526009929092015460ff808216845261010090910416602083810191909152015283518490849081106121bf576121bf613df5565b60200260200101819052505080806121d690613e3e565b915050612011565b5092915050565b606060006121f283612f7f565b9050600080826001600160401b0381111561220f5761220f613571565b604051908082528060200260200182016040528015612238578160200160208202803683370190505b506000868152600d6020526040812091925061225382612eed565b905060005b81811015611d5c576002600b61226e8584612ef7565b8154811061227e5761227e613df5565b600091825260209091206008600a90920201015460ff1660048111156122a6576122a661391e565b036122e0576122b58382612ef7565b8486815181106122c7576122c7613df5565b6020908102919091010152846122dc81613e3e565b9550505b806122ea81613e3e565b915050612258565b600b818154811061230257600080fd5b6000918252602091829020600a90910201805460018201546002830154600384015460048501546005860154600687015460078801546008890154604080518082019091526009909a015460ff8181168c526101009182900481169c8c019c909c52989b509699959894976001600160a01b039094169692958083169594830481169462010000840482169463010000008504831694600160201b90048316939216908e565b60018054600091826123b983613e3e565b91905055506000336001546001436123d19190613e73565b60405160609390931b6bffffffffffffffffffffffff19166020840152603483019190915240605482015260740160408051601f198184030181529190528051602090910120905060006124258585613f11565b612430906001613f2a565b90508460ff168160ff1683612445919061406e565b61244f9190613ec7565b95945050505050565b60075460405163081a9faf60e31b8152600481018390526060916000916001600160a01b03909116906340d4fd7890602401600060405180830381865afa1580156124a7573d6000803e3d6000fd5b505050506040513d6000823e601f3d908101601f191682016040526124cf9190810190614082565b9050600081516001600160401b038111156124ec576124ec613571565b60405190808252806020026020018201604052801561251f57816020015b606081526020019060019003908161250a5790505b50905060005b82518110156117615761255083828151811061254357612543613df5565b6020026020010151611fa0565b82828151811061256257612562613df5565b6020026020010181905250808061257890613e3e565b915050612525565b6001600160a01b0381166000908152600e60205260408120606091906125a590612eed565b6001600160401b038111156125bc576125bc613571565b6040519080825280602002602001820160405280156125f557816020015b6125e2613446565b8152602001906001900390816125da5790505b50905060005b81518110156121de576001600160a01b0384166000908152600e602052604081206126269083612ef7565b9050600b818154811061263b5761263b613df5565b6000918252602091829020604080516101c081018252600a90930290910180548352600181015493830193909352600280840154918301919091526003830154606083015260048301546001600160a01b03166080830152600583015460a0830152600683015491929160c084019160ff909116908111156126bf576126bf61391e565b60028111156126d0576126d061391e565b8152600682015460ff61010082048116602084015262010000820481166040840152606090920191630100000090910416600a8111156127125761271261391e565b600a8111156127235761272361391e565b8152600682015460ff600160201b909104811660208301526007830154604083015260088301546060909201911660048111156127625761276261391e565b60048111156127735761277361391e565b8152604080518082019091526009929092015460ff808216845261010090910416602083810191909152015283518490849081106127b3576127b3613df5565b60200260200101819052505080806127ca90613e3e565b9150506125fb565b6127da612e93565b600380546001600160a01b039687166001600160a01b031991821617909155600480549587169582168617905560078054821690951790945560058054938616938516939093179092556006805491851691841691909117905560088054919093169116179055565b6007546001600160a01b031633146128925760405162461bcd60e51b8152602060048201526012602482015271139bdd0819d85b595cc818dbdb9d1c9858dd60721b60448201526064016109ac565b60005b8151811015612967576000600c60008484815181106128b6576128b6613df5565b60200260200101518152602001908152602001600020905060005b6128da82612eed565b8110156129525760006128ed8383612ef7565b905085600b828154811061290357612903613df5565b90600052602060002090600a02016007018190555061293d81600d6000898152602001908152602001600020612e7b90919063ffffffff16565b5050808061294a90613e3e565b9150506128d1565b5050808061295f90613e3e565b915050612895565b505050565b60008061298c836000015160000b856000015160000b61040e9190613eda565b905060006129ad846020015160000b866020015160000b61040e9190613eda565b905061244f8183613ec7565b6000818152600d60205260409020606090610a5c90612df2565b6129db612e93565b6001600160a01b038116612a405760405162461bcd60e51b815260206004820152602660248201527f4f776e61626c653a206e6577206f776e657220697320746865207a65726f206160448201526564647265737360d01b60648201526084016109ac565b6114058161301b565b80518251600091612a5991614107565b60000b600103612a6b57506000610a5c565b81518351612a799190614107565b60000b19612a8957506001610a5c565b81602001518360200151612a9d9190614107565b60000b19612aad57506002610a5c565b81602001518360200151612ac19190614107565b60000b600103612ad357506003610a5c565b60405162461bcd60e51b8152602060048201526013602482015272115c9c9bdc8e88139bdd0818591a9858d95b9d606a1b60448201526064016109ac565b6005546040516309b6507f60e41b81526004808201526000602482018190526001600160a01b03858116604484015290921690639b6507f09064174876e8009060640160206040518083038185885af1158015612b72573d6000803e3d6000fd5b50505050506040513d601f19601f82011682018060405250810190612b979190614128565b600554604051632851838160e01b8152600481018390529192506000916001600160a01b0390911690632851838190602401602060405180830381865afa158015612be6573d6000803e3d6000fd5b505050506040513d601f19601f82011682018060405250810190612c0a9190614128565b600b8054600181810183556000839052600a9091027f0175b7a638427703f0dbe7bb9bbf987a2551717b34e79f33b5b1008d1fa01db90183815591549293509091612c559190613e73565b600180830191909155600282018490556003820187905560058201819055600b90612c8a908490600490610768906000611d68565b60ff161015612c9a576001612c9d565b60025b60068201805460ff19166001836002811115612cbb57612cbb61391e565b021790555060068101805462ffff0019169055612ceb612ce383600461076860006001611d68565b60ff16613173565b60068201805463ff0000001916630100000083600a811115612d0f57612d0f61391e565b02179055506000612d2883600461076860016002611d68565b90506002600683015460ff166002811115612d4557612d4561391e565b03612d64576003612d57826002614141565b612d61919061415d565b90505b612d76600160048360ff16600f611789565b60068301805464ff000000001916600160201b60ff8416021790556007830186905560088301805491925060019160ff19168280021790555060018201546000888152600c60205260409020612dcb91612e7b565b5060018201546000868152600d60205260409020612de891612e7b565b5050505050505050565b6060600061185c83613222565b6000828152600c60205260409020612e17908261327e565b612e635760405162461bcd60e51b815260206004820152601e60248201527f506c6179657220646f65736e277420686176652074686973206974656d21000060448201526064016109ac565b6000828152600c602052604090206129679082612e87565b600061185c8383613296565b600061185c83836132e5565b6000546001600160a01b03163314610b4c5760405162461bcd60e51b815260206004820181905260248201527f4f776e61626c653a2063616c6c6572206973206e6f7420746865206f776e657260448201526064016109ac565b6000610a5c825490565b600061185c83836133d8565b6000828152600d60205260409020612f1b908261327e565b612f675760405162461bcd60e51b815260206004820152601c60248201527f47616d6520646f65736e277420686176652074686973206974656d210000000060448201526064016109ac565b6000828152600d602052604090206129679082612e87565b6000818152600d60205260408120819081612f9982612eed565b905060005b81811015613011576002600b612fb48584612ef7565b81548110612fc457612fc4613df5565b600091825260209091206008600a90920201015460ff166004811115612fec57612fec61391e565b03612fff5783612ffb81613e3e565b9450505b8061300981613e3e565b915050612f9e565b5091949350505050565b600080546001600160a01b038381166001600160a01b0319831681178455604051919092169283917f8be0079c531659141344cd1fd0a4f28419497f9722a3daafe3b4186f6b6457e09190a35050565b6060816000036130925750506040805180820190915260018152600360fc1b602082015290565b8160005b81156130bc57806130a681613e3e565b91506130b59050600a83613eb3565b9150613096565b6000816001600160401b038111156130d6576130d6613571565b6040519080825280601f01601f191660200182016040528015613100576020820181803683370190505b5090505b841561316b57613115600183613e73565b9150613122600a8661406e565b61312d906030613ec7565b60f81b81838151811061314257613142613df5565b60200101906001600160f81b031916908160001a905350613164600a86613eb3565b9450613104565b949350505050565b60006001821161318557506000919050565b6002821161319557506001919050565b600382116131a557506002919050565b600482116131b557506003919050565b600582116131c557506004919050565b600682116131d557506005919050565b600882116131e557506006919050565b600a82116131f557506007919050565b600c821161320557506008919050565b600e821161321557506009919050565b50600a919050565b919050565b60608160000180548060200260200160405190810160405280929190818152602001828054801561327257602002820191906000526020600020905b81548152602001906001019080831161325e575b50505050509050919050565b6000818152600183016020526040812054151561185c565b60008181526001830160205260408120546132dd57508154600181810184556000848152602080822090930184905584548482528286019093526040902091909155610a5c565b506000610a5c565b600081815260018301602052604081205480156133ce576000613309600183613e73565b855490915060009061331d90600190613e73565b905081811461338257600086600001828154811061333d5761333d613df5565b906000526020600020015490508087600001848154811061336057613360613df5565b6000918252602080832090910192909255918252600188019052604090208390555b85548690806133935761339361417f565b600190038181906000526020600020016000905590558560010160008681526020019081526020016000206000905560019350505050610a5c565b6000915050610a5c565b60008260000182815481106133ef576133ef613df5565b9060005260206000200154905092915050565b6040805161010081018252600080825260208201819052918101829052606081018290526080810182905260a0810182905260c0810182905260e081019190915290565b604080516101c08101825260008082526020808301829052828401829052606083018290526080830182905260a0830182905260c0830182905260e08301829052610100830182905261012083018290526101408301829052610160830182905261018083018290528351808501909452818452830152906101a082015290565b6001600160a01b038116811461140557600080fd5b6000806000606084860312156134f157600080fd5b833592506020840135613503816134c7565b929592945050506040919091013590565b60006020828403121561352657600080fd5b5035919050565b6020808252825182820181905260009190848201906040850190845b8181101561356557835183529284019291840191600101613549565b50909695505050505050565b634e487b7160e01b600052604160045260246000fd5b604051601f8201601f191681016001600160401b03811182821017156135af576135af613571565b604052919050565b60006001600160401b038211156135d0576135d0613571565b5060051b60200190565b600082601f8301126135eb57600080fd5b813560206136006135fb836135b7565b613587565b82815260059290921b8401810191818101908684111561361f57600080fd5b8286015b8481101561363a5780358352918301918301613623565b509695505050505050565b600080600080600060a0868803121561365d57600080fd5b8535945060208601356001600160401b0381111561367a57600080fd5b613686888289016135da565b959895975050505060408401359360608101359360809091013592509050565b6000806000806000608086880312156136be57600080fd5b85356136c9816134c7565b945060208601356136d9816134c7565b93506040860135925060608601356001600160401b03808211156136fc57600080fd5b818801915088601f83011261371057600080fd5b81358181111561371f57600080fd5b89602082850101111561373157600080fd5b9699959850939650602001949392505050565b6000806000806060858703121561375a57600080fd5b8435935060208501356001600160401b038082111561377857600080fd5b818701915087601f83011261378c57600080fd5b81358181111561379b57600080fd5b8860208260051b85010111156137b057600080fd5b60208301955080945050505060408501356137ca816134c7565b939692955090935050565b6000806000606084860312156137ea57600080fd5b8335925060208401356001600160401b0381111561380757600080fd5b613813868287016135da565b9250506040840135613824816134c7565b809150509250925092565b6000806000806080858703121561384557600080fd5b5050823594602084013594506040840135936060013592509050565b6000610100820190508251600081810b84526020850151810b60208501526040850151810b60408501526060850151810b60608501526080850151810b608085015260a0850151810b60a085015260c0850151810b60c0850152505060e08301516121de60e084018215159052565b6000806000606084860312156138e557600080fd5b505081359360208301359350604090920135919050565b6000806040838503121561390f57600080fd5b50508035926020909101359150565b634e487b7160e01b600052602160045260246000fd5b600381106139445761394461391e565b9052565b600b81106139445761394461391e565b600581106139445761394461391e565b600081518084526020808501945080840160005b83811015613a6e57815180518852838101518489015260408082015190890152606080820151908901526080808201516001600160a01b03169089015260a0808201519089015260c0808201516139d5828b0182613934565b505060e08181015160ff81168a83015250506101008181015160ff81168a830152505061012080820151613a0b828b0182613948565b50506101408181015160ff1690890152610160808201519089015261018080820151613a39828b0182613958565b50506101a090810151805160ff908116928a019290925260200151166101c08801526101e0909601959082019060010161397c565b509495945050505050565b60208152600061185c6020830184613968565b600060208284031215613a9e57600080fd5b8135801515811461185c57600080fd5b600060208284031215613ac057600080fd5b813561185c816134c7565b803560ff8116811461321d57600080fd5b600060408284031215613aee57600080fd5b604051604081018181106001600160401b0382111715613b1057613b10613571565b604052905080613b1f83613acb565b8152613b2d60208401613acb565b60208201525092915050565b60008060608385031215613b4c57600080fd5b82359150613b5d8460208501613adc565b90509250929050565b60408101610a5c8284805160ff908116835260209182015116910152565b8e8152602081018e9052604081018d9052606081018c90526001600160a01b038b16608082015260a081018a90526101e08101613bc460c083018b613934565b60ff89811660e08401528816610100830152613be4610120830188613948565b60ff861661014083015284610160830152613c03610180830185613958565b825160ff9081166101a08401526020840151166101c08301529f9e505050505050505050505050505050565b60008060408385031215613c4257600080fd5b613c4b83613acb565b9150613b5d60208401613acb565b6000602080830181845280855180835260408601915060408160051b870101925083870160005b82811015613cae57603f19888603018452613c9c858351613968565b94509285019290850190600101613c80565b5092979650505050505050565b600080600080600060a08688031215613cd357600080fd5b8535613cde816134c7565b94506020860135613cee816134c7565b93506040860135613cfe816134c7565b92506060860135613d0e816134c7565b91506080860135613d1e816134c7565b809150509295509295909350565b60008060408385031215613d3f57600080fd5b8235915060208301356001600160401b03811115613d5c57600080fd5b613d68858286016135da565b9150509250929050565b60008060808385031215613d8557600080fd5b613d8f8484613adc565b9150613b5d8460408501613adc565b60005b83811015613db9578181015183820152602001613da1565b50506000910152565b6020815260008251806020840152613de1816040850160208701613d9e565b601f01601f19169190910160400192915050565b634e487b7160e01b600052603260045260246000fd5b600060208284031215613e1d57600080fd5b815161185c816134c7565b634e487b7160e01b600052601160045260246000fd5b600060018201613e5057613e50613e28565b5060010190565b6000600160ff1b8201613e6c57613e6c613e28565b5060000390565b81810381811115610a5c57610a5c613e28565b8082028115828204841417610a5c57610a5c613e28565b634e487b7160e01b600052601260045260246000fd5b600082613ec257613ec2613e9d565b500490565b80820180821115610a5c57610a5c613e28565b81810360008312801583831316838312821617156121de576121de613e28565b600081613f0957613f09613e28565b506000190190565b60ff8281168282160390811115610a5c57610a5c613e28565b60ff8181168382160190811115610a5c57610a5c613e28565b72024b73b30b634b2103234b932b1ba34b7b71d1606d1b815260008251613f71816013850160208701613d9e565b9190910160130192915050565b600181815b80851115613fb9578160001904821115613f9f57613f9f613e28565b80851615613fac57918102915b93841c9390800290613f83565b509250929050565b600082613fd057506001610a5c565b81613fdd57506000610a5c565b8160018114613ff35760028114613ffd57614019565b6001915050610a5c565b60ff84111561400e5761400e613e28565b50506001821b610a5c565b5060208310610133831016604e8410600b841016171561403c575081810a610a5c565b6140468383613f7e565b806000190482111561405a5761405a613e28565b029392505050565b600061185c8383613fc1565b60008261407d5761407d613e9d565b500690565b6000602080838503121561409557600080fd5b82516001600160401b038111156140ab57600080fd5b8301601f810185136140bc57600080fd5b80516140ca6135fb826135b7565b81815260059190911b820183019083810190878311156140e957600080fd5b928401925b828410156117bb578351825292840192908401906140ee565b600082810b9082900b03607f198112607f82131715610a5c57610a5c613e28565b60006020828403121561413a57600080fd5b5051919050565b60ff81811683821602908116908181146121de576121de613e28565b600060ff83168061417057614170613e9d565b8060ff84160491505092915050565b634e487b7160e01b600052603160045260246000fdfea2646970667358221220dd1334684fce4271406a43eda8a468bfa4eb49be44c2a9060b573ad0ab5f087d64736f6c63430008110033",
  "devdoc": {
    "kind": "dev",
    "methods": {
      "owner()": {
        "details": "Returns the address of the current owner."
      },
      "renounceOwnership()": {
        "details": "Leaves the contract without owner. It will not be possible to call `onlyOwner` functions anymore. Can only be called by the current owner. NOTE: Renouncing ownership will leave the contract without an owner, thereby removing any functionality that is only available to the owner."
      },
      "transferOwnership(address)": {
        "details": "Transfers ownership of the contract to a new account (`newOwner`). Can only be called by the current owner."
      }
    },
    "version": 1
  },
  "userdoc": {
    "kind": "user",
    "methods": {},
    "version": 1
  },
  "storageLayout": {
    "storage": [
      {
        "astId": 7,
        "contract": "contracts/BCItems.sol:BCItems",
        "label": "_owner",
        "offset": 0,
        "slot": "0",
        "type": "t_address"
      },
      {
        "astId": 20693,
        "contract": "contracts/BCItems.sol:BCItems",
        "label": "TODO_randomSeed",
        "offset": 0,
        "slot": "1",
        "type": "t_uint256"
      },
      {
        "astId": 20698,
        "contract": "contracts/BCItems.sol:BCItems",
        "label": "gameToEventBlocks",
        "offset": 0,
        "slot": "2",
        "type": "t_mapping(t_uint256,t_struct(UintSet)2262_storage)"
      },
      {
        "astId": 13177,
        "contract": "contracts/BCItems.sol:BCItems",
        "label": "lobbies",
        "offset": 0,
        "slot": "3",
        "type": "t_contract(LobbyInterface)13079"
      },
      {
        "astId": 13179,
        "contract": "contracts/BCItems.sol:BCItems",
        "label": "gamesContract",
        "offset": 0,
        "slot": "4",
        "type": "t_address"
      },
      {
        "astId": 13182,
        "contract": "contracts/BCItems.sol:BCItems",
        "label": "uif",
        "offset": 0,
        "slot": "5",
        "type": "t_contract(UIFInterface)13156"
      },
      {
        "astId": 13184,
        "contract": "contracts/BCItems.sol:BCItems",
        "label": "actionsContract",
        "offset": 0,
        "slot": "6",
        "type": "t_address"
      },
      {
        "astId": 13187,
        "contract": "contracts/BCItems.sol:BCItems",
        "label": "games",
        "offset": 0,
        "slot": "7",
        "type": "t_contract(GameInterface)13106"
      },
      {
        "astId": 13190,
        "contract": "contracts/BCItems.sol:BCItems",
        "label": "playersContract",
        "offset": 0,
        "slot": "8",
        "type": "t_contract(PlayersContract)13164"
      },
      {
        "astId": 13241,
        "contract": "contracts/BCItems.sol:BCItems",
        "label": "mintCost",
        "offset": 0,
        "slot": "9",
        "type": "t_uint256"
      },
      {
        "astId": 13244,
        "contract": "contracts/BCItems.sol:BCItems",
        "label": "mintIsActive",
        "offset": 0,
        "slot": "10",
        "type": "t_bool"
      },
      {
        "astId": 13250,
        "contract": "contracts/BCItems.sol:BCItems",
        "label": "items",
        "offset": 0,
        "slot": "11",
        "type": "t_array(t_struct(Item)20660_storage)dyn_storage"
      },
      {
        "astId": 13255,
        "contract": "contracts/BCItems.sol:BCItems",
        "label": "playerToItems",
        "offset": 0,
        "slot": "12",
        "type": "t_mapping(t_uint256,t_struct(UintSet)2262_storage)"
      },
      {
        "astId": 13260,
        "contract": "contracts/BCItems.sol:BCItems",
        "label": "gameToItems",
        "offset": 0,
        "slot": "13",
        "type": "t_mapping(t_uint256,t_struct(UintSet)2262_storage)"
      },
      {
        "astId": 13265,
        "contract": "contracts/BCItems.sol:BCItems",
        "label": "ownedItems",
        "offset": 0,
        "slot": "14",
        "type": "t_mapping(t_address,t_struct(UintSet)2262_storage)"
      }
    ],
    "types": {
      "t_address": {
        "encoding": "inplace",
        "label": "address",
        "numberOfBytes": "20"
      },
      "t_array(t_bytes32)dyn_storage": {
        "base": "t_bytes32",
        "encoding": "dynamic_array",
        "label": "bytes32[]",
        "numberOfBytes": "32"
      },
      "t_array(t_struct(Item)20660_storage)dyn_storage": {
        "base": "t_struct(Item)20660_storage",
        "encoding": "dynamic_array",
        "label": "struct BCTypes.Item[]",
        "numberOfBytes": "32"
      },
      "t_bool": {
        "encoding": "inplace",
        "label": "bool",
        "numberOfBytes": "1"
      },
      "t_bytes32": {
        "encoding": "inplace",
        "label": "bytes32",
        "numberOfBytes": "32"
      },
      "t_contract(GameInterface)13106": {
        "encoding": "inplace",
        "label": "contract GameInterface",
        "numberOfBytes": "20"
      },
      "t_contract(LobbyInterface)13079": {
        "encoding": "inplace",
        "label": "contract LobbyInterface",
        "numberOfBytes": "20"
      },
      "t_contract(PlayersContract)13164": {
        "encoding": "inplace",
        "label": "contract PlayersContract",
        "numberOfBytes": "20"
      },
      "t_contract(UIFInterface)13156": {
        "encoding": "inplace",
        "label": "contract UIFInterface",
        "numberOfBytes": "20"
      },
      "t_enum(ItemCategory)20381": {
        "encoding": "inplace",
        "label": "enum BCTypes.ItemCategory",
        "numberOfBytes": "1"
      },
      "t_enum(ItemType)20393": {
        "encoding": "inplace",
        "label": "enum BCTypes.ItemType",
        "numberOfBytes": "1"
      },
      "t_enum(WorldItemStatus)20377": {
        "encoding": "inplace",
        "label": "enum BCTypes.WorldItemStatus",
        "numberOfBytes": "1"
      },
      "t_mapping(t_address,t_struct(UintSet)2262_storage)": {
        "encoding": "mapping",
        "key": "t_address",
        "label": "mapping(address => struct EnumerableSet.UintSet)",
        "numberOfBytes": "32",
        "value": "t_struct(UintSet)2262_storage"
      },
      "t_mapping(t_bytes32,t_uint256)": {
        "encoding": "mapping",
        "key": "t_bytes32",
        "label": "mapping(bytes32 => uint256)",
        "numberOfBytes": "32",
        "value": "t_uint256"
      },
      "t_mapping(t_uint256,t_struct(UintSet)2262_storage)": {
        "encoding": "mapping",
        "key": "t_uint256",
        "label": "mapping(uint256 => struct EnumerableSet.UintSet)",
        "numberOfBytes": "32",
        "value": "t_struct(UintSet)2262_storage"
      },
      "t_struct(Item)20660_storage": {
        "encoding": "inplace",
        "label": "struct BCTypes.Item",
        "members": [
          {
            "astId": 20629,
            "contract": "contracts/BCItems.sol:BCItems",
            "label": "genHash",
            "offset": 0,
            "slot": "0",
            "type": "t_bytes32"
          },
          {
            "astId": 20631,
            "contract": "contracts/BCItems.sol:BCItems",
            "label": "id",
            "offset": 0,
            "slot": "1",
            "type": "t_uint256"
          },
          {
            "astId": 20633,
            "contract": "contracts/BCItems.sol:BCItems",
            "label": "uifID",
            "offset": 0,
            "slot": "2",
            "type": "t_uint256"
          },
          {
            "astId": 20635,
            "contract": "contracts/BCItems.sol:BCItems",
            "label": "holdingPlayerId",
            "offset": 0,
            "slot": "3",
            "type": "t_uint256"
          },
          {
            "astId": 20637,
            "contract": "contracts/BCItems.sol:BCItems",
            "label": "ownerAddress",
            "offset": 0,
            "slot": "4",
            "type": "t_address"
          },
          {
            "astId": 20639,
            "contract": "contracts/BCItems.sol:BCItems",
            "label": "weight",
            "offset": 0,
            "slot": "5",
            "type": "t_uint256"
          },
          {
            "astId": 20642,
            "contract": "contracts/BCItems.sol:BCItems",
            "label": "itemCategory",
            "offset": 0,
            "slot": "6",
            "type": "t_enum(ItemCategory)20381"
          },
          {
            "astId": 20644,
            "contract": "contracts/BCItems.sol:BCItems",
            "label": "grantsAbility",
            "offset": 1,
            "slot": "6",
            "type": "t_uint8"
          },
          {
            "astId": 20646,
            "contract": "contracts/BCItems.sol:BCItems",
            "label": "grantsFlaw",
            "offset": 2,
            "slot": "6",
            "type": "t_uint8"
          },
          {
            "astId": 20649,
            "contract": "contracts/BCItems.sol:BCItems",
            "label": "itemType",
            "offset": 3,
            "slot": "6",
            "type": "t_enum(ItemType)20393"
          },
          {
            "astId": 20651,
            "contract": "contracts/BCItems.sol:BCItems",
            "label": "power",
            "offset": 4,
            "slot": "6",
            "type": "t_uint8"
          },
          {
            "astId": 20653,
            "contract": "contracts/BCItems.sol:BCItems",
            "label": "currentGame",
            "offset": 0,
            "slot": "7",
            "type": "t_uint256"
          },
          {
            "astId": 20656,
            "contract": "contracts/BCItems.sol:BCItems",
            "label": "status",
            "offset": 0,
            "slot": "8",
            "type": "t_enum(WorldItemStatus)20377"
          },
          {
            "astId": 20659,
            "contract": "contracts/BCItems.sol:BCItems",
            "label": "position",
            "offset": 0,
            "slot": "9",
            "type": "t_struct(Position)20465_storage"
          }
        ],
        "numberOfBytes": "320"
      },
      "t_struct(Position)20465_storage": {
        "encoding": "inplace",
        "label": "struct BCTypes.Position",
        "members": [
          {
            "astId": 20462,
            "contract": "contracts/BCItems.sol:BCItems",
            "label": "row",
            "offset": 0,
            "slot": "0",
            "type": "t_uint8"
          },
          {
            "astId": 20464,
            "contract": "contracts/BCItems.sol:BCItems",
            "label": "col",
            "offset": 1,
            "slot": "0",
            "type": "t_uint8"
          }
        ],
        "numberOfBytes": "32"
      },
      "t_struct(Set)1804_storage": {
        "encoding": "inplace",
        "label": "struct EnumerableSet.Set",
        "members": [
          {
            "astId": 1799,
            "contract": "contracts/BCItems.sol:BCItems",
            "label": "_values",
            "offset": 0,
            "slot": "0",
            "type": "t_array(t_bytes32)dyn_storage"
          },
          {
            "astId": 1803,
            "contract": "contracts/BCItems.sol:BCItems",
            "label": "_indexes",
            "offset": 0,
            "slot": "1",
            "type": "t_mapping(t_bytes32,t_uint256)"
          }
        ],
        "numberOfBytes": "64"
      },
      "t_struct(UintSet)2262_storage": {
        "encoding": "inplace",
        "label": "struct EnumerableSet.UintSet",
        "members": [
          {
            "astId": 2261,
            "contract": "contracts/BCItems.sol:BCItems",
            "label": "_inner",
            "offset": 0,
            "slot": "0",
            "type": "t_struct(Set)1804_storage"
          }
        ],
        "numberOfBytes": "64"
      },
      "t_uint256": {
        "encoding": "inplace",
        "label": "uint256",
        "numberOfBytes": "32"
      },
      "t_uint8": {
        "encoding": "inplace",
        "label": "uint8",
        "numberOfBytes": "1"
      }
    }
  }
}