{
  "address": "0x4B598DE437c6c4D32f5fabb75069A28e0B5935B5",
  "abi": [
    {
      "inputs": [],
      "stateMutability": "nonpayable",
      "type": "constructor"
    },
    {
      "anonymous": false,
      "inputs": [
        {
          "indexed": true,
          "internalType": "address",
          "name": "owner",
          "type": "address"
        },
        {
          "indexed": true,
          "internalType": "address",
          "name": "approved",
          "type": "address"
        },
        {
          "indexed": true,
          "internalType": "uint256",
          "name": "tokenId",
          "type": "uint256"
        }
      ],
      "name": "Approval",
      "type": "event"
    },
    {
      "anonymous": false,
      "inputs": [
        {
          "indexed": true,
          "internalType": "address",
          "name": "owner",
          "type": "address"
        },
        {
          "indexed": true,
          "internalType": "address",
          "name": "operator",
          "type": "address"
        },
        {
          "indexed": false,
          "internalType": "bool",
          "name": "approved",
          "type": "bool"
        }
      ],
      "name": "ApprovalForAll",
      "type": "event"
    },
    {
      "anonymous": false,
      "inputs": [
        {
          "indexed": true,
          "internalType": "address",
          "name": "previousOwner",
          "type": "address"
        },
        {
          "indexed": true,
          "internalType": "address",
          "name": "newOwner",
          "type": "address"
        }
      ],
      "name": "OwnershipTransferred",
      "type": "event"
    },
    {
      "anonymous": false,
      "inputs": [
        {
          "indexed": true,
          "internalType": "address",
          "name": "from",
          "type": "address"
        },
        {
          "indexed": true,
          "internalType": "address",
          "name": "to",
          "type": "address"
        },
        {
          "indexed": true,
          "internalType": "uint256",
          "name": "tokenId",
          "type": "uint256"
        }
      ],
      "name": "Transfer",
      "type": "event"
    },
    {
      "inputs": [
        {
          "internalType": "int256",
          "name": "x",
          "type": "int256"
        }
      ],
      "name": "abs",
      "outputs": [
        {
          "internalType": "int256",
          "name": "",
          "type": "int256"
        }
      ],
      "stateMutability": "pure",
      "type": "function"
    },
    {
      "inputs": [
        {
          "components": [
            {
              "internalType": "uint256",
              "name": "value",
              "type": "uint256"
            },
            {
              "internalType": "uint256",
              "name": "weight",
              "type": "uint256"
            },
            {
              "internalType": "enum BCItems.BCItemType",
              "name": "itemType",
              "type": "uint8"
            },
            {
              "components": [
                {
                  "internalType": "uint8",
                  "name": "health",
                  "type": "uint8"
                },
                {
                  "internalType": "uint8",
                  "name": "carry",
                  "type": "uint8"
                },
                {
                  "internalType": "uint8",
                  "name": "defense",
                  "type": "uint8"
                },
                {
                  "internalType": "uint8",
                  "name": "hack",
                  "type": "uint8"
                },
                {
                  "internalType": "uint8",
                  "name": "breach",
                  "type": "uint8"
                },
                {
                  "internalType": "uint8",
                  "name": "shoot",
                  "type": "uint8"
                },
                {
                  "internalType": "uint8",
                  "name": "melee",
                  "type": "uint8"
                }
              ],
              "internalType": "struct BCTypes.Traits",
              "name": "traitIncreases",
              "type": "tuple"
            },
            {
              "components": [
                {
                  "internalType": "uint8",
                  "name": "health",
                  "type": "uint8"
                },
                {
                  "internalType": "uint8",
                  "name": "carry",
                  "type": "uint8"
                },
                {
                  "internalType": "uint8",
                  "name": "defense",
                  "type": "uint8"
                },
                {
                  "internalType": "uint8",
                  "name": "hack",
                  "type": "uint8"
                },
                {
                  "internalType": "uint8",
                  "name": "breach",
                  "type": "uint8"
                },
                {
                  "internalType": "uint8",
                  "name": "shoot",
                  "type": "uint8"
                },
                {
                  "internalType": "uint8",
                  "name": "melee",
                  "type": "uint8"
                }
              ],
              "internalType": "struct BCTypes.Traits",
              "name": "traitDecreases",
              "type": "tuple"
            },
            {
              "internalType": "uint8",
              "name": "grantsAbility",
              "type": "uint8"
            },
            {
              "internalType": "uint8",
              "name": "weaponType",
              "type": "uint8"
            },
            {
              "internalType": "uint8",
              "name": "damage",
              "type": "uint8"
            },
            {
              "internalType": "bool",
              "name": "asAnAction",
              "type": "bool"
            },
            {
              "internalType": "bool",
              "name": "consumable",
              "type": "bool"
            }
          ],
          "internalType": "struct BCItems.BaseItem",
          "name": "_newBaseItem",
          "type": "tuple"
        }
      ],
      "name": "addBaseItem",
      "outputs": [],
      "stateMutability": "nonpayable",
      "type": "function"
    },
    {
      "inputs": [],
      "name": "allowedContract",
      "outputs": [
        {
          "internalType": "address",
          "name": "",
          "type": "address"
        }
      ],
      "stateMutability": "view",
      "type": "function"
    },
    {
      "inputs": [
        {
          "internalType": "address",
          "name": "to",
          "type": "address"
        },
        {
          "internalType": "uint256",
          "name": "tokenId",
          "type": "uint256"
        }
      ],
      "name": "approve",
      "outputs": [],
      "stateMutability": "nonpayable",
      "type": "function"
    },
    {
      "inputs": [
        {
          "internalType": "address",
          "name": "owner",
          "type": "address"
        }
      ],
      "name": "balanceOf",
      "outputs": [
        {
          "internalType": "uint256",
          "name": "",
          "type": "uint256"
        }
      ],
      "stateMutability": "view",
      "type": "function"
    },
    {
      "inputs": [
        {
          "internalType": "uint256",
          "name": "",
          "type": "uint256"
        }
      ],
      "name": "baseItems",
      "outputs": [
        {
          "internalType": "uint256",
          "name": "value",
          "type": "uint256"
        },
        {
          "internalType": "uint256",
          "name": "weight",
          "type": "uint256"
        },
        {
          "internalType": "enum BCItems.BCItemType",
          "name": "itemType",
          "type": "uint8"
        },
        {
          "components": [
            {
              "internalType": "uint8",
              "name": "health",
              "type": "uint8"
            },
            {
              "internalType": "uint8",
              "name": "carry",
              "type": "uint8"
            },
            {
              "internalType": "uint8",
              "name": "defense",
              "type": "uint8"
            },
            {
              "internalType": "uint8",
              "name": "hack",
              "type": "uint8"
            },
            {
              "internalType": "uint8",
              "name": "breach",
              "type": "uint8"
            },
            {
              "internalType": "uint8",
              "name": "shoot",
              "type": "uint8"
            },
            {
              "internalType": "uint8",
              "name": "melee",
              "type": "uint8"
            }
          ],
          "internalType": "struct BCTypes.Traits",
          "name": "traitIncreases",
          "type": "tuple"
        },
        {
          "components": [
            {
              "internalType": "uint8",
              "name": "health",
              "type": "uint8"
            },
            {
              "internalType": "uint8",
              "name": "carry",
              "type": "uint8"
            },
            {
              "internalType": "uint8",
              "name": "defense",
              "type": "uint8"
            },
            {
              "internalType": "uint8",
              "name": "hack",
              "type": "uint8"
            },
            {
              "internalType": "uint8",
              "name": "breach",
              "type": "uint8"
            },
            {
              "internalType": "uint8",
              "name": "shoot",
              "type": "uint8"
            },
            {
              "internalType": "uint8",
              "name": "melee",
              "type": "uint8"
            }
          ],
          "internalType": "struct BCTypes.Traits",
          "name": "traitDecreases",
          "type": "tuple"
        },
        {
          "internalType": "uint8",
          "name": "grantsAbility",
          "type": "uint8"
        },
        {
          "internalType": "uint8",
          "name": "weaponType",
          "type": "uint8"
        },
        {
          "internalType": "uint8",
          "name": "damage",
          "type": "uint8"
        },
        {
          "internalType": "bool",
          "name": "asAnAction",
          "type": "bool"
        },
        {
          "internalType": "bool",
          "name": "consumable",
          "type": "bool"
        }
      ],
      "stateMutability": "view",
      "type": "function"
    },
    {
      "inputs": [
        {
          "internalType": "uint256",
          "name": "tokenId",
          "type": "uint256"
        }
      ],
      "name": "getApproved",
      "outputs": [
        {
          "internalType": "address",
          "name": "",
          "type": "address"
        }
      ],
      "stateMutability": "view",
      "type": "function"
    },
    {
      "inputs": [
        {
          "components": [
            {
              "internalType": "uint8",
              "name": "row",
              "type": "uint8"
            },
            {
              "internalType": "uint8",
              "name": "col",
              "type": "uint8"
            }
          ],
          "internalType": "struct BCTypes.Position",
          "name": "_firstRoom",
          "type": "tuple"
        },
        {
          "components": [
            {
              "internalType": "uint8",
              "name": "row",
              "type": "uint8"
            },
            {
              "internalType": "uint8",
              "name": "col",
              "type": "uint8"
            }
          ],
          "internalType": "struct BCTypes.Position",
          "name": "_secondRoom",
          "type": "tuple"
        }
      ],
      "name": "getDirectionBetween",
      "outputs": [
        {
          "internalType": "uint256",
          "name": "",
          "type": "uint256"
        }
      ],
      "stateMutability": "pure",
      "type": "function"
    },
    {
      "inputs": [
        {
          "internalType": "uint256",
          "name": "_direction",
          "type": "uint256"
        },
        {
          "components": [
            {
              "internalType": "uint8",
              "name": "row",
              "type": "uint8"
            },
            {
              "internalType": "uint8",
              "name": "col",
              "type": "uint8"
            }
          ],
          "internalType": "struct BCTypes.Position",
          "name": "_start",
          "type": "tuple"
        }
      ],
      "name": "getNeighborRoom",
      "outputs": [
        {
          "components": [
            {
              "internalType": "uint8",
              "name": "row",
              "type": "uint8"
            },
            {
              "internalType": "uint8",
              "name": "col",
              "type": "uint8"
            }
          ],
          "internalType": "struct BCTypes.Position",
          "name": "",
          "type": "tuple"
        }
      ],
      "stateMutability": "pure",
      "type": "function"
    },
    {
      "inputs": [
        {
          "internalType": "uint256",
          "name": "_traitNum",
          "type": "uint256"
        },
        {
          "internalType": "uint256",
          "name": "_subTraitNum",
          "type": "uint256"
        }
      ],
      "name": "getUIOffset",
      "outputs": [
        {
          "internalType": "uint256",
          "name": "",
          "type": "uint256"
        }
      ],
      "stateMutability": "pure",
      "type": "function"
    },
    {
      "inputs": [
        {
          "internalType": "address",
          "name": "owner",
          "type": "address"
        },
        {
          "internalType": "address",
          "name": "operator",
          "type": "address"
        }
      ],
      "name": "isApprovedForAll",
      "outputs": [
        {
          "internalType": "bool",
          "name": "",
          "type": "bool"
        }
      ],
      "stateMutability": "view",
      "type": "function"
    },
    {
      "inputs": [
        {
          "internalType": "uint256",
          "name": "",
          "type": "uint256"
        }
      ],
      "name": "itemToOwner",
      "outputs": [
        {
          "internalType": "address",
          "name": "",
          "type": "address"
        }
      ],
      "stateMutability": "view",
      "type": "function"
    },
    {
      "inputs": [
        {
          "internalType": "uint256",
          "name": "",
          "type": "uint256"
        }
      ],
      "name": "items",
      "outputs": [
        {
          "internalType": "uint16",
          "name": "baseItemId",
          "type": "uint16"
        }
      ],
      "stateMutability": "view",
      "type": "function"
    },
    {
      "inputs": [],
      "name": "name",
      "outputs": [
        {
          "internalType": "string",
          "name": "",
          "type": "string"
        }
      ],
      "stateMutability": "view",
      "type": "function"
    },
    {
      "inputs": [
        {
          "internalType": "uint256",
          "name": "_min",
          "type": "uint256"
        },
        {
          "internalType": "uint256",
          "name": "_max",
          "type": "uint256"
        },
        {
          "internalType": "uint256",
          "name": "_val",
          "type": "uint256"
        },
        {
          "internalType": "uint256",
          "name": "_valMax",
          "type": "uint256"
        }
      ],
      "name": "normalizeToSmallRange",
      "outputs": [
        {
          "internalType": "uint8",
          "name": "",
          "type": "uint8"
        }
      ],
      "stateMutability": "pure",
      "type": "function"
    },
    {
      "inputs": [],
      "name": "owner",
      "outputs": [
        {
          "internalType": "address",
          "name": "",
          "type": "address"
        }
      ],
      "stateMutability": "view",
      "type": "function"
    },
    {
      "inputs": [
        {
          "internalType": "uint256",
          "name": "tokenId",
          "type": "uint256"
        }
      ],
      "name": "ownerOf",
      "outputs": [
        {
          "internalType": "address",
          "name": "",
          "type": "address"
        }
      ],
      "stateMutability": "view",
      "type": "function"
    },
    {
      "inputs": [],
      "name": "randKeccak",
      "outputs": [
        {
          "internalType": "bytes32",
          "name": "",
          "type": "bytes32"
        }
      ],
      "stateMutability": "nonpayable",
      "type": "function"
    },
    {
      "inputs": [],
      "name": "renounceOwnership",
      "outputs": [],
      "stateMutability": "nonpayable",
      "type": "function"
    },
    {
      "inputs": [],
      "name": "roll",
      "outputs": [
        {
          "internalType": "uint256",
          "name": "",
          "type": "uint256"
        }
      ],
      "stateMutability": "nonpayable",
      "type": "function"
    },
    {
      "inputs": [
        {
          "internalType": "address",
          "name": "from",
          "type": "address"
        },
        {
          "internalType": "address",
          "name": "to",
          "type": "address"
        },
        {
          "internalType": "uint256",
          "name": "tokenId",
          "type": "uint256"
        }
      ],
      "name": "safeTransferFrom",
      "outputs": [],
      "stateMutability": "nonpayable",
      "type": "function"
    },
    {
      "inputs": [
        {
          "internalType": "address",
          "name": "from",
          "type": "address"
        },
        {
          "internalType": "address",
          "name": "to",
          "type": "address"
        },
        {
          "internalType": "uint256",
          "name": "tokenId",
          "type": "uint256"
        },
        {
          "internalType": "bytes",
          "name": "data",
          "type": "bytes"
        }
      ],
      "name": "safeTransferFrom",
      "outputs": [],
      "stateMutability": "nonpayable",
      "type": "function"
    },
    {
      "inputs": [
        {
          "internalType": "address",
          "name": "_allowedContract",
          "type": "address"
        }
      ],
      "name": "setAllowedContract",
      "outputs": [],
      "stateMutability": "nonpayable",
      "type": "function"
    },
    {
      "inputs": [
        {
          "internalType": "address",
          "name": "operator",
          "type": "address"
        },
        {
          "internalType": "bool",
          "name": "approved",
          "type": "bool"
        }
      ],
      "name": "setApprovalForAll",
      "outputs": [],
      "stateMutability": "nonpayable",
      "type": "function"
    },
    {
      "inputs": [
        {
          "internalType": "bytes32",
          "name": "_hash",
          "type": "bytes32"
        },
        {
          "internalType": "uint256",
          "name": "_size",
          "type": "uint256"
        },
        {
          "internalType": "uint256",
          "name": "_offset",
          "type": "uint256"
        }
      ],
      "name": "sliceHashToSmallInt",
      "outputs": [
        {
          "internalType": "uint8",
          "name": "",
          "type": "uint8"
        }
      ],
      "stateMutability": "pure",
      "type": "function"
    },
    {
      "inputs": [
        {
          "internalType": "uint8",
          "name": "_min",
          "type": "uint8"
        },
        {
          "internalType": "uint8",
          "name": "_max",
          "type": "uint8"
        }
      ],
      "name": "smallIntBetweenVals",
      "outputs": [
        {
          "internalType": "uint8",
          "name": "",
          "type": "uint8"
        }
      ],
      "stateMutability": "nonpayable",
      "type": "function"
    },
    {
      "inputs": [
        {
          "internalType": "bytes4",
          "name": "interfaceId",
          "type": "bytes4"
        }
      ],
      "name": "supportsInterface",
      "outputs": [
        {
          "internalType": "bool",
          "name": "",
          "type": "bool"
        }
      ],
      "stateMutability": "view",
      "type": "function"
    },
    {
      "inputs": [],
      "name": "symbol",
      "outputs": [
        {
          "internalType": "string",
          "name": "",
          "type": "string"
        }
      ],
      "stateMutability": "view",
      "type": "function"
    },
    {
      "inputs": [
        {
          "internalType": "address",
          "name": "_player",
          "type": "address"
        }
      ],
      "name": "testExternalCreateItem",
      "outputs": [],
      "stateMutability": "nonpayable",
      "type": "function"
    },
    {
      "inputs": [
        {
          "internalType": "uint256",
          "name": "tokenId",
          "type": "uint256"
        }
      ],
      "name": "tokenURI",
      "outputs": [
        {
          "internalType": "string",
          "name": "",
          "type": "string"
        }
      ],
      "stateMutability": "view",
      "type": "function"
    },
    {
      "inputs": [
        {
          "internalType": "address",
          "name": "from",
          "type": "address"
        },
        {
          "internalType": "address",
          "name": "to",
          "type": "address"
        },
        {
          "internalType": "uint256",
          "name": "tokenId",
          "type": "uint256"
        }
      ],
      "name": "transferFrom",
      "outputs": [],
      "stateMutability": "nonpayable",
      "type": "function"
    },
    {
      "inputs": [
        {
          "internalType": "address",
          "name": "newOwner",
          "type": "address"
        }
      ],
      "name": "transferOwnership",
      "outputs": [],
      "stateMutability": "nonpayable",
      "type": "function"
    }
  ],
  "transactionHash": "0xc7c55bb53c1349c34e9f7c3abf74484f683d85ad085a62929cb4d7255dae2d8b",
  "args": [],
  "numDeployments": 2,
  "solcInputHash": "8d9cd68909f0e3220381f38f6580afc3",
  "bytecode": "0x608060405260006008556000600a553480156200001b57600080fd5b506040518060400160405280601181526020017f426c61636b20436f6d6574204974656d730000000000000000000000000000008152506040518060400160405280600381526020017f42434900000000000000000000000000000000000000000000000000000000008152508160009080519060200190620000a092919062000d4b565b508060019080519060200190620000b992919062000d4b565b505050620000dc620000d0620000f260201b60201c565b620000fa60201b60201c565b620000ec620001c060201b60201c565b62000ee1565b600033905090565b6000600760009054906101000a900473ffffffffffffffffffffffffffffffffffffffff16905081600760006101000a81548173ffffffffffffffffffffffffffffffffffffffff021916908373ffffffffffffffffffffffffffffffffffffffff1602179055508173ffffffffffffffffffffffffffffffffffffffff168173ffffffffffffffffffffffffffffffffffffffff167f8be0079c531659141344cd1fd0a4f28419497f9722a3daafe3b4186f6b6457e060405160405180910390a35050565b620001ca62000ddc565b600b6040518061014001604052806004815260200160028152602001600380811115620001fc57620001fb62000e4d565b5b8152602001838152602001838152602001600060ff168152602001600060ff168152602001600060ff168152602001600015158152602001600015158152509080600181540180825580915050600190039060005260206000209060060201600090919091909150600082015181600001556020820151816001015560408201518160020160006101000a81548160ff02191690836003811115620002a657620002a562000e4d565b5b021790555060608201518160030160008201518160000160006101000a81548160ff021916908360ff16021790555060208201518160000160016101000a81548160ff021916908360ff16021790555060408201518160000160026101000a81548160ff021916908360ff16021790555060608201518160000160036101000a81548160ff021916908360ff16021790555060808201518160000160046101000a81548160ff021916908360ff16021790555060a08201518160000160056101000a81548160ff021916908360ff16021790555060c08201518160000160066101000a81548160ff021916908360ff160217905550505060808201518160040160008201518160000160006101000a81548160ff021916908360ff16021790555060208201518160000160016101000a81548160ff021916908360ff16021790555060408201518160000160026101000a81548160ff021916908360ff16021790555060608201518160000160036101000a81548160ff021916908360ff16021790555060808201518160000160046101000a81548160ff021916908360ff16021790555060a08201518160000160056101000a81548160ff021916908360ff16021790555060c08201518160000160066101000a81548160ff021916908360ff160217905550505060a08201518160050160006101000a81548160ff021916908360ff16021790555060c08201518160050160016101000a81548160ff021916908360ff16021790555060e08201518160050160026101000a81548160ff021916908360ff1602179055506101008201518160050160036101000a81548160ff0219169083151502179055506101208201518160050160046101000a81548160ff0219169083151502179055505050600b60405180610140016040528060008152602001600181526020016002600381111562000569576200056862000e4d565b5b81526020016040518060e00160405280600060ff168152602001600060ff168152602001600060ff168152602001600060ff168152602001600060ff168152602001600060ff168152602001600160ff1681525081526020016040518060e00160405280600060ff168152602001600060ff168152602001600060ff168152602001600060ff168152602001600060ff168152602001600060ff168152602001600060ff168152508152602001600060ff168152602001600160ff168152602001600160ff168152602001600015158152602001600015158152509080600181540180825580915050600190039060005260206000209060060201600090919091909150600082015181600001556020820151816001015560408201518160020160006101000a81548160ff02191690836003811115620006af57620006ae62000e4d565b5b021790555060608201518160030160008201518160000160006101000a81548160ff021916908360ff16021790555060208201518160000160016101000a81548160ff021916908360ff16021790555060408201518160000160026101000a81548160ff021916908360ff16021790555060608201518160000160036101000a81548160ff021916908360ff16021790555060808201518160000160046101000a81548160ff021916908360ff16021790555060a08201518160000160056101000a81548160ff021916908360ff16021790555060c08201518160000160066101000a81548160ff021916908360ff160217905550505060808201518160040160008201518160000160006101000a81548160ff021916908360ff16021790555060208201518160000160016101000a81548160ff021916908360ff16021790555060408201518160000160026101000a81548160ff021916908360ff16021790555060608201518160000160036101000a81548160ff021916908360ff16021790555060808201518160000160046101000a81548160ff021916908360ff16021790555060a08201518160000160056101000a81548160ff021916908360ff16021790555060c08201518160000160066101000a81548160ff021916908360ff160217905550505060a08201518160050160006101000a81548160ff021916908360ff16021790555060c08201518160050160016101000a81548160ff021916908360ff16021790555060e08201518160050160026101000a81548160ff021916908360ff1602179055506101008201518160050160036101000a81548160ff0219169083151502179055506101208201518160050160046101000a81548160ff0219169083151502179055505050600b60405180610140016040528060028152602001600181526020016001600381111562000972576200097162000e4d565b5b81526020016040518060e00160405280600060ff168152602001600060ff168152602001600060ff168152602001600060ff168152602001600260ff168152602001600060ff168152602001600160ff1681525081526020016040518060e00160405280600060ff168152602001600060ff168152602001600060ff168152602001600060ff168152602001600060ff168152602001600060ff168152602001600060ff168152508152602001600060ff168152602001600160ff168152602001600260ff168152602001600015158152602001600015158152509080600181540180825580915050600190039060005260206000209060060201600090919091909150600082015181600001556020820151816001015560408201518160020160006101000a81548160ff0219169083600381111562000ab85762000ab762000e4d565b5b021790555060608201518160030160008201518160000160006101000a81548160ff021916908360ff16021790555060208201518160000160016101000a81548160ff021916908360ff16021790555060408201518160000160026101000a81548160ff021916908360ff16021790555060608201518160000160036101000a81548160ff021916908360ff16021790555060808201518160000160046101000a81548160ff021916908360ff16021790555060a08201518160000160056101000a81548160ff021916908360ff16021790555060c08201518160000160066101000a81548160ff021916908360ff160217905550505060808201518160040160008201518160000160006101000a81548160ff021916908360ff16021790555060208201518160000160016101000a81548160ff021916908360ff16021790555060408201518160000160026101000a81548160ff021916908360ff16021790555060608201518160000160036101000a81548160ff021916908360ff16021790555060808201518160000160046101000a81548160ff021916908360ff16021790555060a08201518160000160056101000a81548160ff021916908360ff16021790555060c08201518160000160066101000a81548160ff021916908360ff160217905550505060a08201518160050160006101000a81548160ff021916908360ff16021790555060c08201518160050160016101000a81548160ff021916908360ff16021790555060e08201518160050160026101000a81548160ff021916908360ff1602179055506101008201518160050160036101000a81548160ff0219169083151502179055506101208201518160050160046101000a81548160ff021916908315150217905550505050565b82805462000d599062000eab565b90600052602060002090601f01602090048101928262000d7d576000855562000dc9565b82601f1062000d9857805160ff191683800117855562000dc9565b8280016001018555821562000dc9579182015b8281111562000dc857825182559160200191906001019062000dab565b5b50905062000dd8919062000e2e565b5090565b6040518060e00160405280600060ff168152602001600060ff168152602001600060ff168152602001600060ff168152602001600060ff168152602001600060ff168152602001600060ff1681525090565b5b8082111562000e4957600081600090555060010162000e2f565b5090565b7f4e487b7100000000000000000000000000000000000000000000000000000000600052602160045260246000fd5b7f4e487b7100000000000000000000000000000000000000000000000000000000600052602260045260246000fd5b6000600282049050600182168062000ec457607f821691505b6020821081141562000edb5762000eda62000e7c565b5b50919050565b6145528062000ef16000396000f3fe608060405234801561001057600080fd5b50600436106101f05760003560e01c8063951fc3fe1161010f578063cd5e3c5d116100a2578063efcab58511610071578063efcab58514610617578063f2fde38b14610633578063fa3993c21461064f578063fca6e9c71461067f576101f0565b8063cd5e3c5d1461057b578063ce28613f14610599578063e89d5a89146105c9578063e985e9c5146105e7576101f0565b8063abbcbd6e116100de578063abbcbd6e146104e3578063b88d4fde146104ff578063bfb231d21461051b578063c87b56dd1461054b576101f0565b8063951fc3fe1461044957806395d89b411461047957806397f34c3f14610497578063a22cb465146104c7576101f0565b806342842e0e1161018757806370a082311161015657806370a08231146103d5578063715018a61461040557806386e32ed01461040f5780638da5cb5b1461042b576101f0565b806342842e0e1461032957806353011696146103455780636352211e1461037557806364db84bf146103a5576101f0565b80631a4d96cd116101c35780631a4d96cd1461028f5780631b5ac4b5146102bf5780631e1de205146102ef57806323b872dd1461030d576101f0565b806301ffc9a7146101f557806306fdde0314610225578063081812fc14610243578063095ea7b314610273575b600080fd5b61020f600480360381019061020a91906128e8565b6106b8565b60405161021c9190612930565b60405180910390f35b61022d61079a565b60405161023a91906129e4565b60405180910390f35b61025d60048036038101906102589190612a3c565b61082c565b60405161026a9190612aaa565b60405180910390f35b61028d60048036038101906102889190612af1565b610872565b005b6102a960048036038101906102a49190612a3c565b61098a565b6040516102b69190612aaa565b60405180910390f35b6102d960048036038101906102d49190612b67565b6109bd565b6040516102e69190612ba3565b60405180910390f35b6102f76109df565b6040516103049190612bd7565b60405180910390f35b61032760048036038101906103229190612bf2565b610a2b565b005b610343600480360381019061033e9190612bf2565b610a8b565b005b61035f600480360381019061035a9190612c45565b610aab565b60405161036c9190612cc8565b60405180910390f35b61038f600480360381019061038a9190612a3c565b610aef565b60405161039c9190612aaa565b60405180910390f35b6103bf60048036038101906103ba9190612ce3565b610ba1565b6040516103cc9190612d32565b60405180910390f35b6103ef60048036038101906103ea9190612d4d565b610bc3565b6040516103fc9190612d32565b60405180910390f35b61040d610c7b565b005b61042960048036038101906104249190612d4d565b610c8f565b005b610433610cdb565b6040516104409190612aaa565b60405180910390f35b610463600480360381019061045e9190612e76565b610d05565b6040516104709190612ef4565b60405180910390f35b610481610e4a565b60405161048e91906129e4565b60405180910390f35b6104b160048036038101906104ac9190612f3b565b610edc565b6040516104be9190612cc8565b60405180910390f35b6104e160048036038101906104dc9190612fba565b610f13565b005b6104fd60048036038101906104f89190612d4d565b610f29565b005b610519600480360381019061051491906130b4565b610ff6565b005b61053560048036038101906105309190612a3c565b611058565b6040516105429190613154565b60405180910390f35b61056560048036038101906105609190612a3c565b611090565b60405161057291906129e4565b60405180910390f35b6105836111a3565b6040516105909190612d32565b60405180910390f35b6105b360048036038101906105ae919061316f565b6111b9565b6040516105c09190612cc8565b60405180910390f35b6105d161124a565b6040516105de9190612aaa565b60405180910390f35b61060160048036038101906105fc91906131af565b611270565b60405161060e9190612930565b60405180910390f35b610631600480360381019061062c91906133c2565b611304565b005b61064d60048036038101906106489190612d4d565b61160a565b005b610669600480360381019061066491906133f0565b61168e565b6040516106769190612d32565b60405180910390f35b61069960048036038101906106949190612a3c565b6117af565b6040516106af9a99989796959493929190613535565b60405180910390f35b60007f80ac58cd000000000000000000000000000000000000000000000000000000007bffffffffffffffffffffffffffffffffffffffffffffffffffffffff1916827bffffffffffffffffffffffffffffffffffffffffffffffffffffffff1916148061078357507f5b5e139f000000000000000000000000000000000000000000000000000000007bffffffffffffffffffffffffffffffffffffffffffffffffffffffff1916827bffffffffffffffffffffffffffffffffffffffffffffffffffffffff1916145b80610793575061079282611a0b565b5b9050919050565b6060600080546107a990613604565b80601f01602080910402602001604051908101604052809291908181526020018280546107d590613604565b80156108225780601f106107f757610100808354040283529160200191610822565b820191906000526020600020905b81548152906001019060200180831161080557829003601f168201915b5050505050905090565b600061083782611a75565b6004600083815260200190815260200160002060009054906101000a900473ffffffffffffffffffffffffffffffffffffffff169050919050565b600061087d82610aef565b90508073ffffffffffffffffffffffffffffffffffffffff168373ffffffffffffffffffffffffffffffffffffffff1614156108ee576040517f08c379a00000000000000000000000000000000000000000000000000000000081526004016108e5906136a8565b60405180910390fd5b8073ffffffffffffffffffffffffffffffffffffffff1661090d611ac0565b73ffffffffffffffffffffffffffffffffffffffff16148061093c575061093b81610936611ac0565b611270565b5b61097b576040517f08c379a00000000000000000000000000000000000000000000000000000000081526004016109729061373a565b60405180910390fd5b6109858383611ac8565b505050565b600d6020528060005260406000206000915054906101000a900473ffffffffffffffffffffffffffffffffffffffff1681565b6000808212156109d657816109d190613789565b6109d8565b815b9050919050565b6000600860008154809291906109f4906137d2565b91905055506008544233604051602001610a1093929190613884565b60405160208183030381529060405280519060200120905090565b610a3c610a36611ac0565b82611b81565b610a7b576040517f08c379a0000000000000000000000000000000000000000000000000000000008152600401610a7290613933565b60405180910390fd5b610a86838383611c16565b505050565b610aa683838360405180602001604052806000815250610ff6565b505050565b6000808585610aba9190613953565b90506000838583610acb9190613987565b610ad59190613a10565b90508681610ae39190613a41565b92505050949350505050565b6000806002600084815260200190815260200160002060009054906101000a900473ffffffffffffffffffffffffffffffffffffffff169050600073ffffffffffffffffffffffffffffffffffffffff168173ffffffffffffffffffffffffffffffffffffffff161415610b98576040517f08c379a0000000000000000000000000000000000000000000000000000000008152600401610b8f90613ae3565b60405180910390fd5b80915050919050565b600081836004610bb19190613987565b610bbb9190613a41565b905092915050565b60008073ffffffffffffffffffffffffffffffffffffffff168273ffffffffffffffffffffffffffffffffffffffff161415610c34576040517f08c379a0000000000000000000000000000000000000000000000000000000008152600401610c2b90613b75565b60405180910390fd5b600360008373ffffffffffffffffffffffffffffffffffffffff1673ffffffffffffffffffffffffffffffffffffffff168152602001908152602001600020549050919050565b610c83611e7d565b610c8d6000611efb565b565b610c97611e7d565b80600960006101000a81548173ffffffffffffffffffffffffffffffffffffffff021916908373ffffffffffffffffffffffffffffffffffffffff16021790555050565b6000600760009054906101000a900473ffffffffffffffffffffffffffffffffffffffff16905090565b610d0d61285c565b6000831415610d4c57604051806040016040528060018460000151610d329190613b95565b60ff168152602001836020015160ff168152509050610e44565b6001831415610d8b57604051806040016040528060018460000151610d719190613bc9565b60ff168152602001836020015160ff168152509050610e44565b6002831415610dca576040518060400160405280836000015160ff16815260200160018460200151610dbd9190613bc9565b60ff168152509050610e44565b6003831415610e09576040518060400160405280836000015160ff16815260200160018460200151610dfc9190613b95565b60ff168152509050610e44565b6040517f08c379a0000000000000000000000000000000000000000000000000000000008152600401610e3b90613c4c565b60405180910390fd5b92915050565b606060018054610e5990613604565b80601f0160208091040260200160405190810160405280929190818152602001828054610e8590613604565b8015610ed25780601f10610ea757610100808354040283529160200191610ed2565b820191906000526020600020905b815481529060010190602001808311610eb557829003601f168201915b5050505050905090565b600080826001856002610eef9190613d9f565b610ef99190613953565b60001b901b905082818616901c60001c9150509392505050565b610f25610f1e611ac0565b8383611fc1565b5050565b600960009054906101000a900473ffffffffffffffffffffffffffffffffffffffff1673ffffffffffffffffffffffffffffffffffffffff163373ffffffffffffffffffffffffffffffffffffffff1614610fb9576040517f08c379a0000000000000000000000000000000000000000000000000000000008152600401610fb090613e36565b60405180910390fd5b600a6000815480929190610fcc906137d2565b91905055506000600b80549050600a54610fe69190613e56565b9050610ff2818361212e565b5050565b611007611001611ac0565b83611b81565b611046576040517f08c379a000000000000000000000000000000000000000000000000000000000815260040161103d90613933565b60405180910390fd5b611052848484846121ac565b50505050565b600c818154811061106857600080fd5b906000526020600020016000915090508060000160009054906101000a900461ffff16905081565b606061109b82611a75565b60006006600084815260200190815260200160002080546110bb90613604565b80601f01602080910402602001604051908101604052809291908181526020018280546110e790613604565b80156111345780601f1061110957610100808354040283529160200191611134565b820191906000526020600020905b81548152906001019060200180831161111757829003601f168201915b505050505090506000611145612208565b905060008151141561115b57819250505061119e565b600082511115611190578082604051602001611178929190613ec3565b6040516020818303038152906040529250505061119e565b6111998461221f565b925050505b919050565b60006111b1600160066111b9565b60ff16905090565b6000600860008154809291906111ce906137d2565b9190505550600033600854426040516020016111ec93929190613ee7565b6040516020818303038152906040528051906020012060001c90506000600185856112179190613b95565b6112219190613bc9565b90508460ff168160ff16836112369190613e56565b6112409190613a41565b9250505092915050565b600960009054906101000a900473ffffffffffffffffffffffffffffffffffffffff1681565b6000600560008473ffffffffffffffffffffffffffffffffffffffff1673ffffffffffffffffffffffffffffffffffffffff16815260200190815260200160002060008373ffffffffffffffffffffffffffffffffffffffff1673ffffffffffffffffffffffffffffffffffffffff16815260200190815260200160002060009054906101000a900460ff16905092915050565b61130c611e7d565b600b819080600181540180825580915050600190039060005260206000209060060201600090919091909150600082015181600001556020820151816001015560408201518160020160006101000a81548160ff0219169083600381111561137757611376613430565b5b021790555060608201518160030160008201518160000160006101000a81548160ff021916908360ff16021790555060208201518160000160016101000a81548160ff021916908360ff16021790555060408201518160000160026101000a81548160ff021916908360ff16021790555060608201518160000160036101000a81548160ff021916908360ff16021790555060808201518160000160046101000a81548160ff021916908360ff16021790555060a08201518160000160056101000a81548160ff021916908360ff16021790555060c08201518160000160066101000a81548160ff021916908360ff160217905550505060808201518160040160008201518160000160006101000a81548160ff021916908360ff16021790555060208201518160000160016101000a81548160ff021916908360ff16021790555060408201518160000160026101000a81548160ff021916908360ff16021790555060608201518160000160036101000a81548160ff021916908360ff16021790555060808201518160000160046101000a81548160ff021916908360ff16021790555060a08201518160000160056101000a81548160ff021916908360ff16021790555060c08201518160000160066101000a81548160ff021916908360ff160217905550505060a08201518160050160006101000a81548160ff021916908360ff16021790555060c08201518160050160016101000a81548160ff021916908360ff16021790555060e08201518160050160026101000a81548160ff021916908360ff1602179055506101008201518160050160036101000a81548160ff0219169083151502179055506101208201518160050160046101000a81548160ff021916908315150217905550505050565b611612611e7d565b600073ffffffffffffffffffffffffffffffffffffffff168173ffffffffffffffffffffffffffffffffffffffff161415611682576040517f08c379a000000000000000000000000000000000000000000000000000000000815260040161167990613f96565b60405180910390fd5b61168b81611efb565b50565b60006001826000015184600001516116a69190613fc3565b60000b14156116b857600090506117a9565b7fffffffffffffffffffffffffffffffffffffffffffffffffffffffffffffffff826000015184600001516116ed9190613fc3565b60000b14156116ff57600190506117a9565b7fffffffffffffffffffffffffffffffffffffffffffffffffffffffffffffffff826020015184602001516117349190613fc3565b60000b141561174657600290506117a9565b60018260200151846020015161175c9190613fc3565b60000b141561176e57600390506117a9565b6040517f08c379a00000000000000000000000000000000000000000000000000000000081526004016117a090614084565b60405180910390fd5b92915050565b600b81815481106117bf57600080fd5b90600052602060002090600602016000915090508060000154908060010154908060020160009054906101000a900460ff1690806003016040518060e00160405290816000820160009054906101000a900460ff1660ff1660ff1681526020016000820160019054906101000a900460ff1660ff1660ff1681526020016000820160029054906101000a900460ff1660ff1660ff1681526020016000820160039054906101000a900460ff1660ff1660ff1681526020016000820160049054906101000a900460ff1660ff1660ff1681526020016000820160059054906101000a900460ff1660ff1660ff1681526020016000820160069054906101000a900460ff1660ff1660ff168152505090806004016040518060e00160405290816000820160009054906101000a900460ff1660ff1660ff1681526020016000820160019054906101000a900460ff1660ff1660ff1681526020016000820160029054906101000a900460ff1660ff1660ff1681526020016000820160039054906101000a900460ff1660ff1660ff1681526020016000820160049054906101000a900460ff1660ff1660ff1681526020016000820160059054906101000a900460ff1660ff1660ff1681526020016000820160069054906101000a900460ff1660ff1660ff1681525050908060050160009054906101000a900460ff16908060050160019054906101000a900460ff16908060050160029054906101000a900460ff16908060050160039054906101000a900460ff16908060050160049054906101000a900460ff1690508a565b60007f01ffc9a7000000000000000000000000000000000000000000000000000000007bffffffffffffffffffffffffffffffffffffffffffffffffffffffff1916827bffffffffffffffffffffffffffffffffffffffffffffffffffffffff1916149050919050565b611a7e81612287565b611abd576040517f08c379a0000000000000000000000000000000000000000000000000000000008152600401611ab490613ae3565b60405180910390fd5b50565b600033905090565b816004600083815260200190815260200160002060006101000a81548173ffffffffffffffffffffffffffffffffffffffff021916908373ffffffffffffffffffffffffffffffffffffffff160217905550808273ffffffffffffffffffffffffffffffffffffffff16611b3b83610aef565b73ffffffffffffffffffffffffffffffffffffffff167f8c5be1e5ebec7d5bd14f71427d1e84f3dd0314c0f7b2291e5b200ac8c7c3b92560405160405180910390a45050565b600080611b8d83610aef565b90508073ffffffffffffffffffffffffffffffffffffffff168473ffffffffffffffffffffffffffffffffffffffff161480611bcf5750611bce8185611270565b5b80611c0d57508373ffffffffffffffffffffffffffffffffffffffff16611bf58461082c565b73ffffffffffffffffffffffffffffffffffffffff16145b91505092915050565b8273ffffffffffffffffffffffffffffffffffffffff16611c3682610aef565b73ffffffffffffffffffffffffffffffffffffffff1614611c8c576040517f08c379a0000000000000000000000000000000000000000000000000000000008152600401611c8390614116565b60405180910390fd5b600073ffffffffffffffffffffffffffffffffffffffff168273ffffffffffffffffffffffffffffffffffffffff161415611cfc576040517f08c379a0000000000000000000000000000000000000000000000000000000008152600401611cf3906141a8565b60405180910390fd5b611d078383836122f3565b611d12600082611ac8565b6001600360008573ffffffffffffffffffffffffffffffffffffffff1673ffffffffffffffffffffffffffffffffffffffff1681526020019081526020016000206000828254611d629190613953565b925050819055506001600360008473ffffffffffffffffffffffffffffffffffffffff1673ffffffffffffffffffffffffffffffffffffffff1681526020019081526020016000206000828254611db99190613a41565b92505081905550816002600083815260200190815260200160002060006101000a81548173ffffffffffffffffffffffffffffffffffffffff021916908373ffffffffffffffffffffffffffffffffffffffff160217905550808273ffffffffffffffffffffffffffffffffffffffff168473ffffffffffffffffffffffffffffffffffffffff167fddf252ad1be2c89b69c2b068fc378daa952ba7f163c4a11628f55a4df523b3ef60405160405180910390a4611e788383836122f8565b505050565b611e85611ac0565b73ffffffffffffffffffffffffffffffffffffffff16611ea3610cdb565b73ffffffffffffffffffffffffffffffffffffffff1614611ef9576040517f08c379a0000000000000000000000000000000000000000000000000000000008152600401611ef090614214565b60405180910390fd5b565b6000600760009054906101000a900473ffffffffffffffffffffffffffffffffffffffff16905081600760006101000a81548173ffffffffffffffffffffffffffffffffffffffff021916908373ffffffffffffffffffffffffffffffffffffffff1602179055508173ffffffffffffffffffffffffffffffffffffffff168173ffffffffffffffffffffffffffffffffffffffff167f8be0079c531659141344cd1fd0a4f28419497f9722a3daafe3b4186f6b6457e060405160405180910390a35050565b8173ffffffffffffffffffffffffffffffffffffffff168373ffffffffffffffffffffffffffffffffffffffff161415612030576040517f08c379a000000000000000000000000000000000000000000000000000000000815260040161202790614280565b60405180910390fd5b80600560008573ffffffffffffffffffffffffffffffffffffffff1673ffffffffffffffffffffffffffffffffffffffff16815260200190815260200160002060008473ffffffffffffffffffffffffffffffffffffffff1673ffffffffffffffffffffffffffffffffffffffff16815260200190815260200160002060006101000a81548160ff0219169083151502179055508173ffffffffffffffffffffffffffffffffffffffff168373ffffffffffffffffffffffffffffffffffffffff167f17307eab39ab6107e8899845ad3d59bd9653f200f220920489ca2b5937696c31836040516121219190612930565b60405180910390a3505050565b600c60405180602001604052808461ffff168152509080600181540180825580915050600190039060005260206000200160009091909190915060008201518160000160006101000a81548161ffff021916908361ffff16021790555050506121a8816001600c805490506121a39190613953565b6122fd565b5050565b6121b7848484611c16565b6121c38484848461231b565b612202576040517f08c379a00000000000000000000000000000000000000000000000000000000081526004016121f990614312565b60405180910390fd5b50505050565b606060405180602001604052806000815250905090565b606061222a82611a75565b6000612234612208565b90506000815111612254576040518060200160405280600081525061227f565b8061225e846124a3565b60405160200161226f929190613ec3565b6040516020818303038152906040525b915050919050565b60008073ffffffffffffffffffffffffffffffffffffffff166002600084815260200190815260200160002060009054906101000a900473ffffffffffffffffffffffffffffffffffffffff1673ffffffffffffffffffffffffffffffffffffffff1614159050919050565b505050565b505050565b612317828260405180602001604052806000815250612604565b5050565b600061233c8473ffffffffffffffffffffffffffffffffffffffff1661265f565b15612496578373ffffffffffffffffffffffffffffffffffffffff1663150b7a02612365611ac0565b8786866040518563ffffffff1660e01b81526004016123879493929190614387565b6020604051808303816000875af19250505080156123c357506040513d601f19601f820116820180604052508101906123c091906143e8565b60015b612446573d80600081146123f3576040519150601f19603f3d011682016040523d82523d6000602084013e6123f8565b606091505b5060008151141561243e576040517f08c379a000000000000000000000000000000000000000000000000000000000815260040161243590614312565b60405180910390fd5b805181602001fd5b63150b7a0260e01b7bffffffffffffffffffffffffffffffffffffffffffffffffffffffff1916817bffffffffffffffffffffffffffffffffffffffffffffffffffffffff19161491505061249b565b600190505b949350505050565b606060008214156124eb576040518060400160405280600181526020017f300000000000000000000000000000000000000000000000000000000000000081525090506125ff565b600082905060005b6000821461251d578080612506906137d2565b915050600a826125169190613a10565b91506124f3565b60008167ffffffffffffffff81111561253957612538612d7f565b5b6040519080825280601f01601f19166020018201604052801561256b5781602001600182028036833780820191505090505b5090505b600085146125f8576001826125849190613953565b9150600a856125939190613e56565b603061259f9190613a41565b60f81b8183815181106125b5576125b4614415565b5b60200101907effffffffffffffffffffffffffffffffffffffffffffffffffffffffffffff1916908160001a905350600a856125f19190613a10565b945061256f565b8093505050505b919050565b61260e8383612682565b61261b600084848461231b565b61265a576040517f08c379a000000000000000000000000000000000000000000000000000000000815260040161265190614312565b60405180910390fd5b505050565b6000808273ffffffffffffffffffffffffffffffffffffffff163b119050919050565b600073ffffffffffffffffffffffffffffffffffffffff168273ffffffffffffffffffffffffffffffffffffffff1614156126f2576040517f08c379a00000000000000000000000000000000000000000000000000000000081526004016126e990614490565b60405180910390fd5b6126fb81612287565b1561273b576040517f08c379a0000000000000000000000000000000000000000000000000000000008152600401612732906144fc565b60405180910390fd5b612747600083836122f3565b6001600360008473ffffffffffffffffffffffffffffffffffffffff1673ffffffffffffffffffffffffffffffffffffffff16815260200190815260200160002060008282546127979190613a41565b92505081905550816002600083815260200190815260200160002060006101000a81548173ffffffffffffffffffffffffffffffffffffffff021916908373ffffffffffffffffffffffffffffffffffffffff160217905550808273ffffffffffffffffffffffffffffffffffffffff16600073ffffffffffffffffffffffffffffffffffffffff167fddf252ad1be2c89b69c2b068fc378daa952ba7f163c4a11628f55a4df523b3ef60405160405180910390a4612858600083836122f8565b5050565b6040518060400160405280600060ff168152602001600060ff1681525090565b6000604051905090565b600080fd5b600080fd5b60007fffffffff0000000000000000000000000000000000000000000000000000000082169050919050565b6128c581612890565b81146128d057600080fd5b50565b6000813590506128e2816128bc565b92915050565b6000602082840312156128fe576128fd612886565b5b600061290c848285016128d3565b91505092915050565b60008115159050919050565b61292a81612915565b82525050565b60006020820190506129456000830184612921565b92915050565b600081519050919050565b600082825260208201905092915050565b60005b8381101561298557808201518184015260208101905061296a565b83811115612994576000848401525b50505050565b6000601f19601f8301169050919050565b60006129b68261294b565b6129c08185612956565b93506129d0818560208601612967565b6129d98161299a565b840191505092915050565b600060208201905081810360008301526129fe81846129ab565b905092915050565b6000819050919050565b612a1981612a06565b8114612a2457600080fd5b50565b600081359050612a3681612a10565b92915050565b600060208284031215612a5257612a51612886565b5b6000612a6084828501612a27565b91505092915050565b600073ffffffffffffffffffffffffffffffffffffffff82169050919050565b6000612a9482612a69565b9050919050565b612aa481612a89565b82525050565b6000602082019050612abf6000830184612a9b565b92915050565b612ace81612a89565b8114612ad957600080fd5b50565b600081359050612aeb81612ac5565b92915050565b60008060408385031215612b0857612b07612886565b5b6000612b1685828601612adc565b9250506020612b2785828601612a27565b9150509250929050565b6000819050919050565b612b4481612b31565b8114612b4f57600080fd5b50565b600081359050612b6181612b3b565b92915050565b600060208284031215612b7d57612b7c612886565b5b6000612b8b84828501612b52565b91505092915050565b612b9d81612b31565b82525050565b6000602082019050612bb86000830184612b94565b92915050565b6000819050919050565b612bd181612bbe565b82525050565b6000602082019050612bec6000830184612bc8565b92915050565b600080600060608486031215612c0b57612c0a612886565b5b6000612c1986828701612adc565b9350506020612c2a86828701612adc565b9250506040612c3b86828701612a27565b9150509250925092565b60008060008060808587031215612c5f57612c5e612886565b5b6000612c6d87828801612a27565b9450506020612c7e87828801612a27565b9350506040612c8f87828801612a27565b9250506060612ca087828801612a27565b91505092959194509250565b600060ff82169050919050565b612cc281612cac565b82525050565b6000602082019050612cdd6000830184612cb9565b92915050565b60008060408385031215612cfa57612cf9612886565b5b6000612d0885828601612a27565b9250506020612d1985828601612a27565b9150509250929050565b612d2c81612a06565b82525050565b6000602082019050612d476000830184612d23565b92915050565b600060208284031215612d6357612d62612886565b5b6000612d7184828501612adc565b91505092915050565b600080fd5b7f4e487b7100000000000000000000000000000000000000000000000000000000600052604160045260246000fd5b612db78261299a565b810181811067ffffffffffffffff82111715612dd657612dd5612d7f565b5b80604052505050565b6000612de961287c565b9050612df58282612dae565b919050565b612e0381612cac565b8114612e0e57600080fd5b50565b600081359050612e2081612dfa565b92915050565b600060408284031215612e3c57612e3b612d7a565b5b612e466040612ddf565b90506000612e5684828501612e11565b6000830152506020612e6a84828501612e11565b60208301525092915050565b60008060608385031215612e8d57612e8c612886565b5b6000612e9b85828601612a27565b9250506020612eac85828601612e26565b9150509250929050565b612ebf81612cac565b82525050565b604082016000820151612edb6000850182612eb6565b506020820151612eee6020850182612eb6565b50505050565b6000604082019050612f096000830184612ec5565b92915050565b612f1881612bbe565b8114612f2357600080fd5b50565b600081359050612f3581612f0f565b92915050565b600080600060608486031215612f5457612f53612886565b5b6000612f6286828701612f26565b9350506020612f7386828701612a27565b9250506040612f8486828701612a27565b9150509250925092565b612f9781612915565b8114612fa257600080fd5b50565b600081359050612fb481612f8e565b92915050565b60008060408385031215612fd157612fd0612886565b5b6000612fdf85828601612adc565b9250506020612ff085828601612fa5565b9150509250929050565b600080fd5b600080fd5b600067ffffffffffffffff82111561301f5761301e612d7f565b5b6130288261299a565b9050602081019050919050565b82818337600083830152505050565b600061305761305284613004565b612ddf565b90508281526020810184848401111561307357613072612fff565b5b61307e848285613035565b509392505050565b600082601f83011261309b5761309a612ffa565b5b81356130ab848260208601613044565b91505092915050565b600080600080608085870312156130ce576130cd612886565b5b60006130dc87828801612adc565b94505060206130ed87828801612adc565b93505060406130fe87828801612a27565b925050606085013567ffffffffffffffff81111561311f5761311e61288b565b5b61312b87828801613086565b91505092959194509250565b600061ffff82169050919050565b61314e81613137565b82525050565b60006020820190506131696000830184613145565b92915050565b6000806040838503121561318657613185612886565b5b600061319485828601612e11565b92505060206131a585828601612e11565b9150509250929050565b600080604083850312156131c6576131c5612886565b5b60006131d485828601612adc565b92505060206131e585828601612adc565b9150509250929050565b600481106131fc57600080fd5b50565b60008135905061320e816131ef565b92915050565b600060e0828403121561322a57613229612d7a565b5b61323460e0612ddf565b9050600061324484828501612e11565b600083015250602061325884828501612e11565b602083015250604061326c84828501612e11565b604083015250606061328084828501612e11565b606083015250608061329484828501612e11565b60808301525060a06132a884828501612e11565b60a08301525060c06132bc84828501612e11565b60c08301525092915050565b60006102c082840312156132df576132de612d7a565b5b6132ea610140612ddf565b905060006132fa84828501612a27565b600083015250602061330e84828501612a27565b6020830152506040613322848285016131ff565b604083015250606061333684828501613214565b60608301525061014061334b84828501613214565b60808301525061022061336084828501612e11565b60a08301525061024061337584828501612e11565b60c08301525061026061338a84828501612e11565b60e08301525061028061339f84828501612fa5565b610100830152506102a06133b584828501612fa5565b6101208301525092915050565b60006102c082840312156133d9576133d8612886565b5b60006133e7848285016132c8565b91505092915050565b6000806080838503121561340757613406612886565b5b600061341585828601612e26565b925050604061342685828601612e26565b9150509250929050565b7f4e487b7100000000000000000000000000000000000000000000000000000000600052602160045260246000fd5b600481106134705761346f613430565b5b50565b60008190506134818261345f565b919050565b600061349182613473565b9050919050565b6134a181613486565b82525050565b60e0820160008201516134bd6000850182612eb6565b5060208201516134d06020850182612eb6565b5060408201516134e36040850182612eb6565b5060608201516134f66060850182612eb6565b5060808201516135096080850182612eb6565b5060a082015161351c60a0850182612eb6565b5060c082015161352f60c0850182612eb6565b50505050565b60006102c08201905061354b600083018d612d23565b613558602083018c612d23565b613565604083018b613498565b613572606083018a6134a7565b6135806101408301896134a7565b61358e610220830188612cb9565b61359c610240830187612cb9565b6135aa610260830186612cb9565b6135b8610280830185612921565b6135c66102a0830184612921565b9b9a5050505050505050505050565b7f4e487b7100000000000000000000000000000000000000000000000000000000600052602260045260246000fd5b6000600282049050600182168061361c57607f821691505b602082108114156136305761362f6135d5565b5b50919050565b7f4552433732313a20617070726f76616c20746f2063757272656e74206f776e6560008201527f7200000000000000000000000000000000000000000000000000000000000000602082015250565b6000613692602183612956565b915061369d82613636565b604082019050919050565b600060208201905081810360008301526136c181613685565b9050919050565b7f4552433732313a20617070726f76652063616c6c6572206973206e6f7420746f60008201527f6b656e206f776e6572206e6f7220617070726f76656420666f7220616c6c0000602082015250565b6000613724603e83612956565b915061372f826136c8565b604082019050919050565b6000602082019050818103600083015261375381613717565b9050919050565b7f4e487b7100000000000000000000000000000000000000000000000000000000600052601160045260246000fd5b600061379482612b31565b91507f80000000000000000000000000000000000000000000000000000000000000008214156137c7576137c661375a565b5b816000039050919050565b60006137dd82612a06565b91507fffffffffffffffffffffffffffffffffffffffffffffffffffffffffffffffff8214156138105761380f61375a565b5b600182019050919050565b6000819050919050565b61383661383182612a06565b61381b565b82525050565b60008160601b9050919050565b60006138548261383c565b9050919050565b600061386682613849565b9050919050565b61387e61387982612a89565b61385b565b82525050565b60006138908286613825565b6020820191506138a08285613825565b6020820191506138b0828461386d565b601482019150819050949350505050565b7f4552433732313a2063616c6c6572206973206e6f7420746f6b656e206f776e6560008201527f72206e6f7220617070726f766564000000000000000000000000000000000000602082015250565b600061391d602e83612956565b9150613928826138c1565b604082019050919050565b6000602082019050818103600083015261394c81613910565b9050919050565b600061395e82612a06565b915061396983612a06565b92508282101561397c5761397b61375a565b5b828203905092915050565b600061399282612a06565b915061399d83612a06565b9250817fffffffffffffffffffffffffffffffffffffffffffffffffffffffffffffffff04831182151516156139d6576139d561375a565b5b828202905092915050565b7f4e487b7100000000000000000000000000000000000000000000000000000000600052601260045260246000fd5b6000613a1b82612a06565b9150613a2683612a06565b925082613a3657613a356139e1565b5b828204905092915050565b6000613a4c82612a06565b9150613a5783612a06565b9250827fffffffffffffffffffffffffffffffffffffffffffffffffffffffffffffffff03821115613a8c57613a8b61375a565b5b828201905092915050565b7f4552433732313a20696e76616c696420746f6b656e2049440000000000000000600082015250565b6000613acd601883612956565b9150613ad882613a97565b602082019050919050565b60006020820190508181036000830152613afc81613ac0565b9050919050565b7f4552433732313a2061646472657373207a65726f206973206e6f74206120766160008201527f6c6964206f776e65720000000000000000000000000000000000000000000000602082015250565b6000613b5f602983612956565b9150613b6a82613b03565b604082019050919050565b60006020820190508181036000830152613b8e81613b52565b9050919050565b6000613ba082612cac565b9150613bab83612cac565b925082821015613bbe57613bbd61375a565b5b828203905092915050565b6000613bd482612cac565b9150613bdf83612cac565b92508260ff03821115613bf557613bf461375a565b5b828201905092915050565b7f496e76616c696420646972656374696f6e000000000000000000000000000000600082015250565b6000613c36601183612956565b9150613c4182613c00565b602082019050919050565b60006020820190508181036000830152613c6581613c29565b9050919050565b60008160011c9050919050565b6000808291508390505b6001851115613cc357808604811115613c9f57613c9e61375a565b5b6001851615613cae5780820291505b8081029050613cbc85613c6c565b9450613c83565b94509492505050565b600082613cdc5760019050613d98565b81613cea5760009050613d98565b8160018114613d005760028114613d0a57613d39565b6001915050613d98565b60ff841115613d1c57613d1b61375a565b5b8360020a915084821115613d3357613d3261375a565b5b50613d98565b5060208310610133831016604e8410600b8410161715613d6e5782820a905083811115613d6957613d6861375a565b5b613d98565b613d7b8484846001613c79565b92509050818404811115613d9257613d9161375a565b5b81810290505b9392505050565b6000613daa82612a06565b9150613db583612a06565b9250613de27fffffffffffffffffffffffffffffffffffffffffffffffffffffffffffffffff8484613ccc565b905092915050565b7f6f6e6c7920616c6c6f77656420636f6e74726163742063616e2063616c6c0000600082015250565b6000613e20601e83612956565b9150613e2b82613dea565b602082019050919050565b60006020820190508181036000830152613e4f81613e13565b9050919050565b6000613e6182612a06565b9150613e6c83612a06565b925082613e7c57613e7b6139e1565b5b828206905092915050565b600081905092915050565b6000613e9d8261294b565b613ea78185613e87565b9350613eb7818560208601612967565b80840191505092915050565b6000613ecf8285613e92565b9150613edb8284613e92565b91508190509392505050565b6000613ef3828661386d565b601482019150613f038285613825565b602082019150613f138284613825565b602082019150819050949350505050565b7f4f776e61626c653a206e6577206f776e657220697320746865207a65726f206160008201527f6464726573730000000000000000000000000000000000000000000000000000602082015250565b6000613f80602683612956565b9150613f8b82613f24565b604082019050919050565b60006020820190508181036000830152613faf81613f73565b9050919050565b60008160000b9050919050565b6000613fce82613fb6565b9150613fd983613fb6565b9250827fffffffffffffffffffffffffffffffffffffffffffffffffffffffffffffff80018212600084121516156140145761401361375a565b5b82607f01821360008412161561402d5761402c61375a565b5b828203905092915050565b7f4572726f723a204e6f742061646a6163656e7400000000000000000000000000600082015250565b600061406e601383612956565b915061407982614038565b602082019050919050565b6000602082019050818103600083015261409d81614061565b9050919050565b7f4552433732313a207472616e736665722066726f6d20696e636f72726563742060008201527f6f776e6572000000000000000000000000000000000000000000000000000000602082015250565b6000614100602583612956565b915061410b826140a4565b604082019050919050565b6000602082019050818103600083015261412f816140f3565b9050919050565b7f4552433732313a207472616e7366657220746f20746865207a65726f2061646460008201527f7265737300000000000000000000000000000000000000000000000000000000602082015250565b6000614192602483612956565b915061419d82614136565b604082019050919050565b600060208201905081810360008301526141c181614185565b9050919050565b7f4f776e61626c653a2063616c6c6572206973206e6f7420746865206f776e6572600082015250565b60006141fe602083612956565b9150614209826141c8565b602082019050919050565b6000602082019050818103600083015261422d816141f1565b9050919050565b7f4552433732313a20617070726f766520746f2063616c6c657200000000000000600082015250565b600061426a601983612956565b915061427582614234565b602082019050919050565b600060208201905081810360008301526142998161425d565b9050919050565b7f4552433732313a207472616e7366657220746f206e6f6e20455243373231526560008201527f63656976657220696d706c656d656e7465720000000000000000000000000000602082015250565b60006142fc603283612956565b9150614307826142a0565b604082019050919050565b6000602082019050818103600083015261432b816142ef565b9050919050565b600081519050919050565b600082825260208201905092915050565b600061435982614332565b614363818561433d565b9350614373818560208601612967565b61437c8161299a565b840191505092915050565b600060808201905061439c6000830187612a9b565b6143a96020830186612a9b565b6143b66040830185612d23565b81810360608301526143c8818461434e565b905095945050505050565b6000815190506143e2816128bc565b92915050565b6000602082840312156143fe576143fd612886565b5b600061440c848285016143d3565b91505092915050565b7f4e487b7100000000000000000000000000000000000000000000000000000000600052603260045260246000fd5b7f4552433732313a206d696e7420746f20746865207a65726f2061646472657373600082015250565b600061447a602083612956565b915061448582614444565b602082019050919050565b600060208201905081810360008301526144a98161446d565b9050919050565b7f4552433732313a20746f6b656e20616c7265616479206d696e74656400000000600082015250565b60006144e6601c83612956565b91506144f1826144b0565b602082019050919050565b60006020820190508181036000830152614515816144d9565b905091905056fea26469706673582212204982238b321c782b04a2d33835a16ac8f7df31e923232dede64ae7b697dda70564736f6c634300080c0033",
  "devdoc": {
    "kind": "dev",
    "methods": {
      "approve(address,uint256)": {
        "details": "See {IERC721-approve}."
      },
      "balanceOf(address)": {
        "details": "See {IERC721-balanceOf}."
      },
      "getApproved(uint256)": {
        "details": "See {IERC721-getApproved}."
      },
      "isApprovedForAll(address,address)": {
        "details": "See {IERC721-isApprovedForAll}."
      },
      "name()": {
        "details": "See {IERC721Metadata-name}."
      },
      "owner()": {
        "details": "Returns the address of the current owner."
      },
      "ownerOf(uint256)": {
        "details": "See {IERC721-ownerOf}."
      },
      "renounceOwnership()": {
        "details": "Leaves the contract without owner. It will not be possible to call `onlyOwner` functions anymore. Can only be called by the current owner. NOTE: Renouncing ownership will leave the contract without an owner, thereby removing any functionality that is only available to the owner."
      },
      "safeTransferFrom(address,address,uint256)": {
        "details": "See {IERC721-safeTransferFrom}."
      },
      "safeTransferFrom(address,address,uint256,bytes)": {
        "details": "See {IERC721-safeTransferFrom}."
      },
      "setApprovalForAll(address,bool)": {
        "details": "See {IERC721-setApprovalForAll}."
      },
      "supportsInterface(bytes4)": {
        "details": "See {IERC165-supportsInterface}."
      },
      "symbol()": {
        "details": "See {IERC721Metadata-symbol}."
      },
      "tokenURI(uint256)": {
        "details": "See {IERC721Metadata-tokenURI}."
      },
      "transferFrom(address,address,uint256)": {
        "details": "See {IERC721-transferFrom}."
      },
      "transferOwnership(address)": {
        "details": "Transfers ownership of the contract to a new account (`newOwner`). Can only be called by the current owner."
      }
    },
    "version": 1
  },
  "userdoc": {
    "kind": "user",
    "methods": {},
    "version": 1
  },
  "storageLayout": {
    "storage": [
      {
        "astId": 138,
        "contract": "contracts/BCItems.sol:BCItems",
        "label": "_name",
        "offset": 0,
        "slot": "0",
        "type": "t_string_storage"
      },
      {
        "astId": 140,
        "contract": "contracts/BCItems.sol:BCItems",
        "label": "_symbol",
        "offset": 0,
        "slot": "1",
        "type": "t_string_storage"
      },
      {
        "astId": 144,
        "contract": "contracts/BCItems.sol:BCItems",
        "label": "_owners",
        "offset": 0,
        "slot": "2",
        "type": "t_mapping(t_uint256,t_address)"
      },
      {
        "astId": 148,
        "contract": "contracts/BCItems.sol:BCItems",
        "label": "_balances",
        "offset": 0,
        "slot": "3",
        "type": "t_mapping(t_address,t_uint256)"
      },
      {
        "astId": 152,
        "contract": "contracts/BCItems.sol:BCItems",
        "label": "_tokenApprovals",
        "offset": 0,
        "slot": "4",
        "type": "t_mapping(t_uint256,t_address)"
      },
      {
        "astId": 158,
        "contract": "contracts/BCItems.sol:BCItems",
        "label": "_operatorApprovals",
        "offset": 0,
        "slot": "5",
        "type": "t_mapping(t_address,t_mapping(t_address,t_bool))"
      },
      {
        "astId": 1126,
        "contract": "contracts/BCItems.sol:BCItems",
        "label": "_tokenURIs",
        "offset": 0,
        "slot": "6",
        "type": "t_mapping(t_uint256,t_string_storage)"
      },
      {
        "astId": 7,
        "contract": "contracts/BCItems.sol:BCItems",
        "label": "_owner",
        "offset": 0,
        "slot": "7",
        "type": "t_address"
      },
      {
        "astId": 6313,
        "contract": "contracts/BCItems.sol:BCItems",
        "label": "TODO_randomSeed",
        "offset": 0,
        "slot": "8",
        "type": "t_uint256"
      },
      {
        "astId": 4007,
        "contract": "contracts/BCItems.sol:BCItems",
        "label": "allowedContract",
        "offset": 0,
        "slot": "9",
        "type": "t_address"
      },
      {
        "astId": 4010,
        "contract": "contracts/BCItems.sol:BCItems",
        "label": "randSeed",
        "offset": 0,
        "slot": "10",
        "type": "t_uint256"
      },
      {
        "astId": 4043,
        "contract": "contracts/BCItems.sol:BCItems",
        "label": "baseItems",
        "offset": 0,
        "slot": "11",
        "type": "t_array(t_struct(BaseItem)4039_storage)dyn_storage"
      },
      {
        "astId": 4050,
        "contract": "contracts/BCItems.sol:BCItems",
        "label": "items",
        "offset": 0,
        "slot": "12",
        "type": "t_array(t_struct(Item)4046_storage)dyn_storage"
      },
      {
        "astId": 4054,
        "contract": "contracts/BCItems.sol:BCItems",
        "label": "itemToOwner",
        "offset": 0,
        "slot": "13",
        "type": "t_mapping(t_uint256,t_address)"
      }
    ],
    "types": {
      "t_address": {
        "encoding": "inplace",
        "label": "address",
        "numberOfBytes": "20"
      },
      "t_array(t_struct(BaseItem)4039_storage)dyn_storage": {
        "base": "t_struct(BaseItem)4039_storage",
        "encoding": "dynamic_array",
        "label": "struct BCItems.BaseItem[]",
        "numberOfBytes": "32"
      },
      "t_array(t_struct(Item)4046_storage)dyn_storage": {
        "base": "t_struct(Item)4046_storage",
        "encoding": "dynamic_array",
        "label": "struct BCItems.Item[]",
        "numberOfBytes": "32"
      },
      "t_bool": {
        "encoding": "inplace",
        "label": "bool",
        "numberOfBytes": "1"
      },
      "t_enum(BCItemType)4015": {
        "encoding": "inplace",
        "label": "enum BCItems.BCItemType",
        "numberOfBytes": "1"
      },
      "t_mapping(t_address,t_bool)": {
        "encoding": "mapping",
        "key": "t_address",
        "label": "mapping(address => bool)",
        "numberOfBytes": "32",
        "value": "t_bool"
      },
      "t_mapping(t_address,t_mapping(t_address,t_bool))": {
        "encoding": "mapping",
        "key": "t_address",
        "label": "mapping(address => mapping(address => bool))",
        "numberOfBytes": "32",
        "value": "t_mapping(t_address,t_bool)"
      },
      "t_mapping(t_address,t_uint256)": {
        "encoding": "mapping",
        "key": "t_address",
        "label": "mapping(address => uint256)",
        "numberOfBytes": "32",
        "value": "t_uint256"
      },
      "t_mapping(t_uint256,t_address)": {
        "encoding": "mapping",
        "key": "t_uint256",
        "label": "mapping(uint256 => address)",
        "numberOfBytes": "32",
        "value": "t_address"
      },
      "t_mapping(t_uint256,t_string_storage)": {
        "encoding": "mapping",
        "key": "t_uint256",
        "label": "mapping(uint256 => string)",
        "numberOfBytes": "32",
        "value": "t_string_storage"
      },
      "t_string_storage": {
        "encoding": "bytes",
        "label": "string",
        "numberOfBytes": "32"
      },
      "t_struct(BaseItem)4039_storage": {
        "encoding": "inplace",
        "label": "struct BCItems.BaseItem",
        "members": [
          {
            "astId": 4017,
            "contract": "contracts/BCItems.sol:BCItems",
            "label": "value",
            "offset": 0,
            "slot": "0",
            "type": "t_uint256"
          },
          {
            "astId": 4019,
            "contract": "contracts/BCItems.sol:BCItems",
            "label": "weight",
            "offset": 0,
            "slot": "1",
            "type": "t_uint256"
          },
          {
            "astId": 4022,
            "contract": "contracts/BCItems.sol:BCItems",
            "label": "itemType",
            "offset": 0,
            "slot": "2",
            "type": "t_enum(BCItemType)4015"
          },
          {
            "astId": 4025,
            "contract": "contracts/BCItems.sol:BCItems",
            "label": "traitIncreases",
            "offset": 0,
            "slot": "3",
            "type": "t_struct(Traits)6291_storage"
          },
          {
            "astId": 4028,
            "contract": "contracts/BCItems.sol:BCItems",
            "label": "traitDecreases",
            "offset": 0,
            "slot": "4",
            "type": "t_struct(Traits)6291_storage"
          },
          {
            "astId": 4030,
            "contract": "contracts/BCItems.sol:BCItems",
            "label": "grantsAbility",
            "offset": 0,
            "slot": "5",
            "type": "t_uint8"
          },
          {
            "astId": 4032,
            "contract": "contracts/BCItems.sol:BCItems",
            "label": "weaponType",
            "offset": 1,
            "slot": "5",
            "type": "t_uint8"
          },
          {
            "astId": 4034,
            "contract": "contracts/BCItems.sol:BCItems",
            "label": "damage",
            "offset": 2,
            "slot": "5",
            "type": "t_uint8"
          },
          {
            "astId": 4036,
            "contract": "contracts/BCItems.sol:BCItems",
            "label": "asAnAction",
            "offset": 3,
            "slot": "5",
            "type": "t_bool"
          },
          {
            "astId": 4038,
            "contract": "contracts/BCItems.sol:BCItems",
            "label": "consumable",
            "offset": 4,
            "slot": "5",
            "type": "t_bool"
          }
        ],
        "numberOfBytes": "192"
      },
      "t_struct(Item)4046_storage": {
        "encoding": "inplace",
        "label": "struct BCItems.Item",
        "members": [
          {
            "astId": 4045,
            "contract": "contracts/BCItems.sol:BCItems",
            "label": "baseItemId",
            "offset": 0,
            "slot": "0",
            "type": "t_uint16"
          }
        ],
        "numberOfBytes": "32"
      },
      "t_struct(Traits)6291_storage": {
        "encoding": "inplace",
        "label": "struct BCTypes.Traits",
        "members": [
          {
            "astId": 6278,
            "contract": "contracts/BCItems.sol:BCItems",
            "label": "health",
            "offset": 0,
            "slot": "0",
            "type": "t_uint8"
          },
          {
            "astId": 6280,
            "contract": "contracts/BCItems.sol:BCItems",
            "label": "carry",
            "offset": 1,
            "slot": "0",
            "type": "t_uint8"
          },
          {
            "astId": 6282,
            "contract": "contracts/BCItems.sol:BCItems",
            "label": "defense",
            "offset": 2,
            "slot": "0",
            "type": "t_uint8"
          },
          {
            "astId": 6284,
            "contract": "contracts/BCItems.sol:BCItems",
            "label": "hack",
            "offset": 3,
            "slot": "0",
            "type": "t_uint8"
          },
          {
            "astId": 6286,
            "contract": "contracts/BCItems.sol:BCItems",
            "label": "breach",
            "offset": 4,
            "slot": "0",
            "type": "t_uint8"
          },
          {
            "astId": 6288,
            "contract": "contracts/BCItems.sol:BCItems",
            "label": "shoot",
            "offset": 5,
            "slot": "0",
            "type": "t_uint8"
          },
          {
            "astId": 6290,
            "contract": "contracts/BCItems.sol:BCItems",
            "label": "melee",
            "offset": 6,
            "slot": "0",
            "type": "t_uint8"
          }
        ],
        "numberOfBytes": "32"
      },
      "t_uint16": {
        "encoding": "inplace",
        "label": "uint16",
        "numberOfBytes": "2"
      },
      "t_uint256": {
        "encoding": "inplace",
        "label": "uint256",
        "numberOfBytes": "32"
      },
      "t_uint8": {
        "encoding": "inplace",
        "label": "uint8",
        "numberOfBytes": "1"
      }
    }
  }
}