{
  "address": "0xF585E323306B548E1482342Ffc0e49B4c6E28207",
  "abi": [
    {
      "inputs": [],
      "stateMutability": "nonpayable",
      "type": "constructor"
    },
    {
      "anonymous": false,
      "inputs": [
        {
          "indexed": false,
          "internalType": "uint256",
          "name": "gameId",
          "type": "uint256"
        },
        {
          "indexed": false,
          "internalType": "uint256",
          "name": "roll",
          "type": "uint256"
        },
        {
          "indexed": false,
          "internalType": "uint256",
          "name": "forValue",
          "type": "uint256"
        },
        {
          "indexed": false,
          "internalType": "uint256",
          "name": "against",
          "type": "uint256"
        }
      ],
      "name": "ChallengeEvent",
      "type": "event"
    },
    {
      "anonymous": false,
      "inputs": [
        {
          "indexed": false,
          "internalType": "uint256",
          "name": "gameId",
          "type": "uint256"
        },
        {
          "indexed": false,
          "internalType": "uint256",
          "name": "roll",
          "type": "uint256"
        }
      ],
      "name": "DiceRollEvent",
      "type": "event"
    },
    {
      "anonymous": false,
      "inputs": [
        {
          "indexed": true,
          "internalType": "address",
          "name": "previousOwner",
          "type": "address"
        },
        {
          "indexed": true,
          "internalType": "address",
          "name": "newOwner",
          "type": "address"
        }
      ],
      "name": "OwnershipTransferred",
      "type": "event"
    },
    {
      "anonymous": false,
      "inputs": [],
      "name": "Received",
      "type": "event"
    },
    {
      "inputs": [
        {
          "internalType": "uint256",
          "name": "_matic",
          "type": "uint256"
        }
      ],
      "name": "SetMintCostInMatic",
      "outputs": [],
      "stateMutability": "nonpayable",
      "type": "function"
    },
    {
      "inputs": [
        {
          "internalType": "int256",
          "name": "x",
          "type": "int256"
        }
      ],
      "name": "abs",
      "outputs": [
        {
          "internalType": "int256",
          "name": "",
          "type": "int256"
        }
      ],
      "stateMutability": "pure",
      "type": "function"
    },
    {
      "inputs": [],
      "name": "actionsContract",
      "outputs": [
        {
          "internalType": "address",
          "name": "",
          "type": "address"
        }
      ],
      "stateMutability": "view",
      "type": "function"
    },
    {
      "inputs": [],
      "name": "allowedContract",
      "outputs": [
        {
          "internalType": "address",
          "name": "",
          "type": "address"
        }
      ],
      "stateMutability": "view",
      "type": "function"
    },
    {
      "inputs": [],
      "name": "commitItemToMission",
      "outputs": [],
      "stateMutability": "nonpayable",
      "type": "function"
    },
    {
      "inputs": [
        {
          "internalType": "uint256",
          "name": "_playerId",
          "type": "uint256"
        },
        {
          "internalType": "uint256",
          "name": "_itemId",
          "type": "uint256"
        }
      ],
      "name": "destroyItem",
      "outputs": [],
      "stateMutability": "nonpayable",
      "type": "function"
    },
    {
      "inputs": [],
      "name": "games",
      "outputs": [
        {
          "internalType": "contract GameInterface",
          "name": "",
          "type": "address"
        }
      ],
      "stateMutability": "view",
      "type": "function"
    },
    {
      "inputs": [],
      "name": "gamesContract",
      "outputs": [
        {
          "internalType": "address",
          "name": "",
          "type": "address"
        }
      ],
      "stateMutability": "view",
      "type": "function"
    },
    {
      "inputs": [
        {
          "components": [
            {
              "internalType": "uint8",
              "name": "row",
              "type": "uint8"
            },
            {
              "internalType": "uint8",
              "name": "col",
              "type": "uint8"
            }
          ],
          "internalType": "struct BCTypes.Position",
          "name": "_firstRoom",
          "type": "tuple"
        },
        {
          "components": [
            {
              "internalType": "uint8",
              "name": "row",
              "type": "uint8"
            },
            {
              "internalType": "uint8",
              "name": "col",
              "type": "uint8"
            }
          ],
          "internalType": "struct BCTypes.Position",
          "name": "_secondRoom",
          "type": "tuple"
        }
      ],
      "name": "getDirectionBetween",
      "outputs": [
        {
          "internalType": "uint256",
          "name": "",
          "type": "uint256"
        }
      ],
      "stateMutability": "pure",
      "type": "function"
    },
    {
      "inputs": [
        {
          "internalType": "uint256",
          "name": "_playerID",
          "type": "uint256"
        }
      ],
      "name": "getItemIDsByPlayer",
      "outputs": [
        {
          "internalType": "uint256[]",
          "name": "",
          "type": "uint256[]"
        }
      ],
      "stateMutability": "view",
      "type": "function"
    },
    {
      "inputs": [
        {
          "internalType": "uint256",
          "name": "_playerID",
          "type": "uint256"
        }
      ],
      "name": "getItemsByPlayer",
      "outputs": [
        {
          "components": [
            {
              "internalType": "bytes32",
              "name": "genHash",
              "type": "bytes32"
            },
            {
              "internalType": "uint256",
              "name": "id",
              "type": "uint256"
            },
            {
              "internalType": "uint256",
              "name": "uifID",
              "type": "uint256"
            },
            {
              "internalType": "uint256",
              "name": "holdingPlayerId",
              "type": "uint256"
            },
            {
              "internalType": "uint256",
              "name": "weight",
              "type": "uint256"
            },
            {
              "internalType": "uint256",
              "name": "traitModID",
              "type": "uint256"
            },
            {
              "internalType": "enum BCTypes.ItemCategory",
              "name": "itemCategory",
              "type": "uint8"
            },
            {
              "internalType": "uint8",
              "name": "grantsAbility",
              "type": "uint8"
            },
            {
              "internalType": "uint8",
              "name": "grantsFlaw",
              "type": "uint8"
            },
            {
              "internalType": "enum BCTypes.ItemType",
              "name": "itemType",
              "type": "uint8"
            },
            {
              "internalType": "uint8",
              "name": "power",
              "type": "uint8"
            },
            {
              "internalType": "uint256",
              "name": "currentGame",
              "type": "uint256"
            },
            {
              "internalType": "enum BCTypes.WorldItemStatus",
              "name": "status",
              "type": "uint8"
            },
            {
              "components": [
                {
                  "internalType": "uint8",
                  "name": "row",
                  "type": "uint8"
                },
                {
                  "internalType": "uint8",
                  "name": "col",
                  "type": "uint8"
                }
              ],
              "internalType": "struct BCTypes.Position",
              "name": "position",
              "type": "tuple"
            }
          ],
          "internalType": "struct BCTypes.Item[]",
          "name": "",
          "type": "tuple[]"
        }
      ],
      "stateMutability": "view",
      "type": "function"
    },
    {
      "inputs": [
        {
          "internalType": "uint256",
          "name": "_direction",
          "type": "uint256"
        },
        {
          "components": [
            {
              "internalType": "uint8",
              "name": "row",
              "type": "uint8"
            },
            {
              "internalType": "uint8",
              "name": "col",
              "type": "uint8"
            }
          ],
          "internalType": "struct BCTypes.Position",
          "name": "_start",
          "type": "tuple"
        }
      ],
      "name": "getNeighborRoom",
      "outputs": [
        {
          "components": [
            {
              "internalType": "uint8",
              "name": "row",
              "type": "uint8"
            },
            {
              "internalType": "uint8",
              "name": "col",
              "type": "uint8"
            }
          ],
          "internalType": "struct BCTypes.Position",
          "name": "",
          "type": "tuple"
        }
      ],
      "stateMutability": "pure",
      "type": "function"
    },
    {
      "inputs": [
        {
          "internalType": "uint256",
          "name": "_playerId",
          "type": "uint256"
        }
      ],
      "name": "getTraitModifiers",
      "outputs": [
        {
          "components": [
            {
              "internalType": "int8",
              "name": "health",
              "type": "int8"
            },
            {
              "internalType": "int8",
              "name": "carry",
              "type": "int8"
            },
            {
              "internalType": "int8",
              "name": "defense",
              "type": "int8"
            },
            {
              "internalType": "int8",
              "name": "hack",
              "type": "int8"
            },
            {
              "internalType": "int8",
              "name": "breach",
              "type": "int8"
            },
            {
              "internalType": "int8",
              "name": "shoot",
              "type": "int8"
            },
            {
              "internalType": "int8",
              "name": "melee",
              "type": "int8"
            }
          ],
          "internalType": "struct BCTypes.Traits",
          "name": "",
          "type": "tuple"
        }
      ],
      "stateMutability": "view",
      "type": "function"
    },
    {
      "inputs": [
        {
          "internalType": "uint256",
          "name": "_traitNum",
          "type": "uint256"
        },
        {
          "internalType": "uint256",
          "name": "_subTraitNum",
          "type": "uint256"
        }
      ],
      "name": "getUIOffset",
      "outputs": [
        {
          "internalType": "uint256",
          "name": "",
          "type": "uint256"
        }
      ],
      "stateMutability": "pure",
      "type": "function"
    },
    {
      "inputs": [
        {
          "internalType": "uint256",
          "name": "_gameId",
          "type": "uint256"
        }
      ],
      "name": "getWorldItemIds",
      "outputs": [
        {
          "internalType": "uint256[]",
          "name": "",
          "type": "uint256[]"
        }
      ],
      "stateMutability": "view",
      "type": "function"
    },
    {
      "inputs": [
        {
          "internalType": "uint256",
          "name": "_gameId",
          "type": "uint256"
        }
      ],
      "name": "getWorldItems",
      "outputs": [
        {
          "components": [
            {
              "internalType": "bytes32",
              "name": "genHash",
              "type": "bytes32"
            },
            {
              "internalType": "uint256",
              "name": "id",
              "type": "uint256"
            },
            {
              "internalType": "uint256",
              "name": "uifID",
              "type": "uint256"
            },
            {
              "internalType": "uint256",
              "name": "holdingPlayerId",
              "type": "uint256"
            },
            {
              "internalType": "uint256",
              "name": "weight",
              "type": "uint256"
            },
            {
              "internalType": "uint256",
              "name": "traitModID",
              "type": "uint256"
            },
            {
              "internalType": "enum BCTypes.ItemCategory",
              "name": "itemCategory",
              "type": "uint8"
            },
            {
              "internalType": "uint8",
              "name": "grantsAbility",
              "type": "uint8"
            },
            {
              "internalType": "uint8",
              "name": "grantsFlaw",
              "type": "uint8"
            },
            {
              "internalType": "enum BCTypes.ItemType",
              "name": "itemType",
              "type": "uint8"
            },
            {
              "internalType": "uint8",
              "name": "power",
              "type": "uint8"
            },
            {
              "internalType": "uint256",
              "name": "currentGame",
              "type": "uint256"
            },
            {
              "internalType": "enum BCTypes.WorldItemStatus",
              "name": "status",
              "type": "uint8"
            },
            {
              "components": [
                {
                  "internalType": "uint8",
                  "name": "row",
                  "type": "uint8"
                },
                {
                  "internalType": "uint8",
                  "name": "col",
                  "type": "uint8"
                }
              ],
              "internalType": "struct BCTypes.Position",
              "name": "position",
              "type": "tuple"
            }
          ],
          "internalType": "struct BCTypes.Item[]",
          "name": "",
          "type": "tuple[]"
        }
      ],
      "stateMutability": "view",
      "type": "function"
    },
    {
      "inputs": [
        {
          "internalType": "uint256",
          "name": "",
          "type": "uint256"
        }
      ],
      "name": "items",
      "outputs": [
        {
          "internalType": "bytes32",
          "name": "genHash",
          "type": "bytes32"
        },
        {
          "internalType": "uint256",
          "name": "id",
          "type": "uint256"
        },
        {
          "internalType": "uint256",
          "name": "uifID",
          "type": "uint256"
        },
        {
          "internalType": "uint256",
          "name": "holdingPlayerId",
          "type": "uint256"
        },
        {
          "internalType": "uint256",
          "name": "weight",
          "type": "uint256"
        },
        {
          "internalType": "uint256",
          "name": "traitModID",
          "type": "uint256"
        },
        {
          "internalType": "enum BCTypes.ItemCategory",
          "name": "itemCategory",
          "type": "uint8"
        },
        {
          "internalType": "uint8",
          "name": "grantsAbility",
          "type": "uint8"
        },
        {
          "internalType": "uint8",
          "name": "grantsFlaw",
          "type": "uint8"
        },
        {
          "internalType": "enum BCTypes.ItemType",
          "name": "itemType",
          "type": "uint8"
        },
        {
          "internalType": "uint8",
          "name": "power",
          "type": "uint8"
        },
        {
          "internalType": "uint256",
          "name": "currentGame",
          "type": "uint256"
        },
        {
          "internalType": "enum BCTypes.WorldItemStatus",
          "name": "status",
          "type": "uint8"
        },
        {
          "components": [
            {
              "internalType": "uint8",
              "name": "row",
              "type": "uint8"
            },
            {
              "internalType": "uint8",
              "name": "col",
              "type": "uint8"
            }
          ],
          "internalType": "struct BCTypes.Position",
          "name": "position",
          "type": "tuple"
        }
      ],
      "stateMutability": "view",
      "type": "function"
    },
    {
      "inputs": [],
      "name": "lobbies",
      "outputs": [
        {
          "internalType": "contract LobbyInterface",
          "name": "",
          "type": "address"
        }
      ],
      "stateMutability": "view",
      "type": "function"
    },
    {
      "inputs": [
        {
          "internalType": "uint256",
          "name": "_holdingPlayerId",
          "type": "uint256"
        },
        {
          "internalType": "address",
          "name": "_holderAddress",
          "type": "address"
        },
        {
          "internalType": "uint256",
          "name": "_gameId",
          "type": "uint256"
        }
      ],
      "name": "lootItem",
      "outputs": [],
      "stateMutability": "payable",
      "type": "function"
    },
    {
      "inputs": [],
      "name": "mintCost",
      "outputs": [
        {
          "internalType": "uint256",
          "name": "",
          "type": "uint256"
        }
      ],
      "stateMutability": "view",
      "type": "function"
    },
    {
      "inputs": [],
      "name": "mintIsActive",
      "outputs": [
        {
          "internalType": "bool",
          "name": "",
          "type": "bool"
        }
      ],
      "stateMutability": "view",
      "type": "function"
    },
    {
      "inputs": [
        {
          "internalType": "uint256",
          "name": "_min",
          "type": "uint256"
        },
        {
          "internalType": "uint256",
          "name": "_max",
          "type": "uint256"
        },
        {
          "internalType": "uint256",
          "name": "_val",
          "type": "uint256"
        },
        {
          "internalType": "uint256",
          "name": "_valMax",
          "type": "uint256"
        }
      ],
      "name": "normalizeToSmallRange",
      "outputs": [
        {
          "internalType": "uint8",
          "name": "",
          "type": "uint8"
        }
      ],
      "stateMutability": "pure",
      "type": "function"
    },
    {
      "inputs": [
        {
          "internalType": "address",
          "name": "_operator",
          "type": "address"
        },
        {
          "internalType": "address",
          "name": "_from",
          "type": "address"
        },
        {
          "internalType": "uint256",
          "name": "_tokenId",
          "type": "uint256"
        },
        {
          "internalType": "bytes",
          "name": "_data",
          "type": "bytes"
        }
      ],
      "name": "onERC721Received",
      "outputs": [
        {
          "internalType": "bytes4",
          "name": "",
          "type": "bytes4"
        }
      ],
      "stateMutability": "nonpayable",
      "type": "function"
    },
    {
      "inputs": [
        {
          "internalType": "uint256",
          "name": "_direction",
          "type": "uint256"
        }
      ],
      "name": "opposite",
      "outputs": [
        {
          "internalType": "uint256",
          "name": "",
          "type": "uint256"
        }
      ],
      "stateMutability": "pure",
      "type": "function"
    },
    {
      "inputs": [],
      "name": "owner",
      "outputs": [
        {
          "internalType": "address",
          "name": "",
          "type": "address"
        }
      ],
      "stateMutability": "view",
      "type": "function"
    },
    {
      "inputs": [
        {
          "internalType": "uint256",
          "name": "_playerId",
          "type": "uint256"
        },
        {
          "internalType": "uint256[]",
          "name": "_itemIds",
          "type": "uint256[]"
        },
        {
          "internalType": "address",
          "name": "_newOwnerAddress",
          "type": "address"
        }
      ],
      "name": "pickupWorldItems",
      "outputs": [],
      "stateMutability": "nonpayable",
      "type": "function"
    },
    {
      "inputs": [],
      "name": "playersContract",
      "outputs": [
        {
          "internalType": "contract PlayersContract",
          "name": "",
          "type": "address"
        }
      ],
      "stateMutability": "view",
      "type": "function"
    },
    {
      "inputs": [],
      "name": "randKeccak",
      "outputs": [
        {
          "internalType": "bytes32",
          "name": "",
          "type": "bytes32"
        }
      ],
      "stateMutability": "nonpayable",
      "type": "function"
    },
    {
      "inputs": [],
      "name": "renounceOwnership",
      "outputs": [],
      "stateMutability": "nonpayable",
      "type": "function"
    },
    {
      "inputs": [
        {
          "internalType": "uint256",
          "name": "_gameId",
          "type": "uint256"
        },
        {
          "internalType": "uint256",
          "name": "_for",
          "type": "uint256"
        },
        {
          "internalType": "uint256",
          "name": "_against",
          "type": "uint256"
        }
      ],
      "name": "resolveChallenge",
      "outputs": [
        {
          "internalType": "bool",
          "name": "",
          "type": "bool"
        }
      ],
      "stateMutability": "nonpayable",
      "type": "function"
    },
    {
      "inputs": [
        {
          "internalType": "uint256",
          "name": "_gameId",
          "type": "uint256"
        }
      ],
      "name": "roll",
      "outputs": [
        {
          "internalType": "uint256",
          "name": "",
          "type": "uint256"
        }
      ],
      "stateMutability": "nonpayable",
      "type": "function"
    },
    {
      "inputs": [
        {
          "internalType": "address",
          "name": "_lobbyContractAddress",
          "type": "address"
        },
        {
          "internalType": "address",
          "name": "_gameContract",
          "type": "address"
        },
        {
          "internalType": "address",
          "name": "_UIFAddress",
          "type": "address"
        },
        {
          "internalType": "address",
          "name": "_actionsContract",
          "type": "address"
        },
        {
          "internalType": "address",
          "name": "_playersContract",
          "type": "address"
        }
      ],
      "name": "setContractAddresses",
      "outputs": [],
      "stateMutability": "nonpayable",
      "type": "function"
    },
    {
      "inputs": [
        {
          "internalType": "bool",
          "name": "_status",
          "type": "bool"
        }
      ],
      "name": "setMintingStatus",
      "outputs": [],
      "stateMutability": "nonpayable",
      "type": "function"
    },
    {
      "inputs": [
        {
          "internalType": "bytes32",
          "name": "_hash",
          "type": "bytes32"
        },
        {
          "internalType": "uint256",
          "name": "_size",
          "type": "uint256"
        },
        {
          "internalType": "uint256",
          "name": "_offset",
          "type": "uint256"
        }
      ],
      "name": "sliceHashToSmallInt",
      "outputs": [
        {
          "internalType": "uint8",
          "name": "",
          "type": "uint8"
        }
      ],
      "stateMutability": "pure",
      "type": "function"
    },
    {
      "inputs": [
        {
          "internalType": "uint8",
          "name": "_min",
          "type": "uint8"
        },
        {
          "internalType": "uint8",
          "name": "_max",
          "type": "uint8"
        }
      ],
      "name": "smallIntBetweenVals",
      "outputs": [
        {
          "internalType": "uint8",
          "name": "",
          "type": "uint8"
        }
      ],
      "stateMutability": "nonpayable",
      "type": "function"
    },
    {
      "inputs": [],
      "name": "spawnCompanyItem",
      "outputs": [],
      "stateMutability": "payable",
      "type": "function"
    },
    {
      "inputs": [
        {
          "internalType": "uint256",
          "name": "_gameId",
          "type": "uint256"
        },
        {
          "internalType": "uint256[]",
          "name": "_itemIds",
          "type": "uint256[]"
        },
        {
          "internalType": "uint256",
          "name": "_row",
          "type": "uint256"
        },
        {
          "internalType": "uint256",
          "name": "_col",
          "type": "uint256"
        },
        {
          "internalType": "uint256",
          "name": "_formerOwnerId",
          "type": "uint256"
        }
      ],
      "name": "spawnWorldItems",
      "outputs": [],
      "stateMutability": "nonpayable",
      "type": "function"
    },
    {
      "inputs": [],
      "name": "transferFundsOut",
      "outputs": [],
      "stateMutability": "nonpayable",
      "type": "function"
    },
    {
      "inputs": [
        {
          "internalType": "address",
          "name": "newOwner",
          "type": "address"
        }
      ],
      "name": "transferOwnership",
      "outputs": [],
      "stateMutability": "nonpayable",
      "type": "function"
    },
    {
      "inputs": [],
      "name": "uif",
      "outputs": [
        {
          "internalType": "contract UIFInterface",
          "name": "",
          "type": "address"
        }
      ],
      "stateMutability": "view",
      "type": "function"
    }
  ],
  "transactionHash": "0x990958df24693d7039c14988396da8c725a85f763ea7f8720a40e26df976a00e",
  "args": [],
  "numDeployments": 3,
  "solcInputHash": "7ac0abbebf11abf1379f7ffb2ec3a099",
  "bytecode": "0x60806040526000600181815564174876e8006008556009805460ff19169091179055600a553480156200003157600080fd5b506200003d3362000043565b62000093565b600080546001600160a01b038381166001600160a01b0319831681178455604051919092169283917f8be0079c531659141344cd1fd0a4f28419497f9722a3daafe3b4186f6b6457e09190a35050565b61345180620000a36000396000f3fe60806040526004361061023b5760003560e01c806364b0e5001161012e57806397f34c3f116100ab578063ce28613f1161006f578063ce28613f14610746578063e847ae1e14610766578063e89d5a8914610786578063f2fde38b146107ab578063fa3993c2146107cb57600080fd5b806397f34c3f14610696578063b78e6651146106b6578063b918fd68146106d6578063bdb4b848146106f6578063bfb231d21461070c57600080fd5b806376c8aa27116100f257806376c8aa27146105ff5780638214f2221461060b5780638da5cb5b1461062b578063951fc3fe14610649578063955a015b1461067657600080fd5b806364b0e5001461055d57806364db84bf1461058a578063705498dc146105aa578063715018a6146105ca5780637420aa36146105df57600080fd5b80631ef2688c116101bc57806347ef26b11161018057806347ef26b114610442578063501f9784146104cb57806353011696146104eb5780635dc969671461051d5780635f09c7821461053d57600080fd5b80631ef2688c146103965780631f7b4f30146103b65780633838aed1146103d65780633841fae1146103eb578063471a42941461041857600080fd5b8063150b7a0211610203578063150b7a02146102da578063154fa27a14610313578063185ae9dc146103335780631b5ac4b5146103535780631e1de2051461038157600080fd5b80630364f88c146102405780630cc0db531461027d5780630fd8e8331461029257806311ff70471461029a578063129f0903146102ba575b600080fd5b34801561024c57600080fd5b50600254610260906001600160a01b031681565b6040516001600160a01b0390911681526020015b60405180910390f35b61029061028b366004612a19565b6107eb565b005b610290610903565b3480156102a657600080fd5b506102906102b5366004612a9d565b6109ef565b3480156102c657600080fd5b50600754610260906001600160a01b031681565b3480156102e657600080fd5b506102fa6102f5366004612b03565b610c86565b6040516001600160e01b03199091168152602001610274565b34801561031f57600080fd5b50600354610260906001600160a01b031681565b34801561033f57600080fd5b50600554610260906001600160a01b031681565b34801561035f57600080fd5b5061037361036e366004612ba2565b610cc3565b604051908152602001610274565b34801561038d57600080fd5b50610373610ce3565b3480156103a257600080fd5b506102906103b1366004612bbb565b610d5b565b3480156103c257600080fd5b506103736103d1366004612ba2565b610f30565b3480156103e257600080fd5b50610290610f8c565b3480156103f757600080fd5b5061040b610406366004612ba2565b610fd1565b6040516102749190612c1a565b34801561042457600080fd5b506009546104329060ff1681565b6040519015158152602001610274565b34801561044e57600080fd5b5061046261045d366004612ba2565b610feb565b6040516102749190600060e0820190508251600081810b84526020850151810b60208501526040850151810b60408501526060850151810b60608501526080850151810b608085015260a0850151810b60a085015260c0850151810b60c0850152505092915050565b3480156104d757600080fd5b506102906104e6366004612ba2565b611382565b3480156104f757600080fd5b5061050b610506366004612c5e565b6113a2565b60405160ff9091168152602001610274565b34801561052957600080fd5b50610432610538366004612c90565b6113df565b34801561054957600080fd5b50610290610558366004612cbc565b61147c565b34801561056957600080fd5b5061057d610578366004612ba2565b611576565b6040516102749190612d28565b34801561059657600080fd5b506103736105a5366004612cbc565b61180f565b3480156105b657600080fd5b50600454610260906001600160a01b031681565b3480156105d657600080fd5b50610290611827565b3480156105eb57600080fd5b506102906105fa366004612e39565b611839565b34801561029057600080fd5b34801561061757600080fd5b50610373610626366004612ba2565b611854565b34801561063757600080fd5b506000546001600160a01b0316610260565b34801561065557600080fd5b50610669610664366004612eee565b6118ce565b6040516102749190612f1b565b34801561068257600080fd5b50600654610260906001600160a01b031681565b3480156106a257600080fd5b5061050b6106b1366004612c90565b6119f8565b3480156106c257600080fd5b5061057d6106d1366004612ba2565b611a23565b3480156106e257600080fd5b5061040b6106f1366004612ba2565b611c5f565b34801561070257600080fd5b5061037360085481565b34801561071857600080fd5b5061072c610727366004612ba2565b611d6d565b6040516102749e9d9c9b9a99989796959493929190612f39565b34801561075257600080fd5b5061050b610761366004612fdc565b611e19565b34801561077257600080fd5b50610290610781366004613006565b611ec9565b34801561079257600080fd5b506009546102609061010090046001600160a01b031681565b3480156107b757600080fd5b506102906107c6366004613077565b611f3a565b3480156107d757600080fd5b506103736107e6366004613094565b611fb0565b600854604080516602830bcb2b21d160cd1b60208201523460278201526a0161031b7b9ba1034b99d160ad1b60478201526052808201939093528151808203909301835260720190526000546001600160a01b031633148061084e575060085434145b81906108765760405162461bcd60e51b815260040161086d91906130e4565b60405180910390fd5b506000546001600160a01b031633148061089a57506003546001600160a01b031633145b806108af57506005546001600160a01b031633145b6108f25760405162461bcd60e51b815260206004820152601460248201527310dbdb9d1c9858dd081b9bdd08185b1b1bddd95960621b604482015260640161086d565b6108fd848484612078565b50505050565b6000546001600160a01b031633148061091d575060085434145b61095d5760405162461bcd60e51b8152602060048201526011602482015270125b98dbdc9c9958dd081c185e5b595b9d607a1b604482015260640161086d565b6000546001600160a01b031633148061097d575060095460ff1615156001145b6109c15760405162461bcd60e51b81526020600482015260156024820152744d696e74696e67206973206e6f742061637469766560581b604482015260640161086d565b6000546001600160a01b03163314806109e457506003546001600160a01b031633145b6109ed57600080fd5b565b6005546001600160a01b03163314610a405760405162461bcd60e51b8152602060048201526014602482015273139bdd081858dd1a5bdb9cc818dbdb9d1c9858dd60621b604482015260640161086d565b6007546000906001600160a01b0316636621a421600b88888581610a6657610a66613117565b9050602002013581548110610a7d57610a7d613117565b90600052602060002090600a0201600301546040518263ffffffff1660e01b8152600401610aad91815260200190565b602060405180830381865afa158015610aca573d6000803e3d6000fd5b505050506040513d601f19601f82011682018060405250810190610aee919061312d565b905060005b85811015610c7c576004546001600160a01b03166307084e56600084600b8b8b87818110610b2357610b23613117565b9050602002013581548110610b3a57610b3a613117565b600091825260209091206002600a9092020101546040516001600160e01b031960e086901b1681526001600160a01b0393841660048201529290911660248301526044820152606401600060405180830381600087803b158015610b9d57600080fd5b505af1158015610bb1573d6000803e3d6000fd5b50505050610bd783888884818110610bcb57610bcb613117565b90506020020135612357565b6000600b888884818110610bed57610bed613117565b9050602002013581548110610c0457610c04613117565b6000918252602082206003600a909202019081019190915560088101805491925060029160ff191660018302179055506040805180820190915260ff8781168083529087166020909201829052600992909201805461ffff191690921761010090910217905580610c7481613160565b915050610af3565b5050505050505050565b6040516000907f544c765b33ca411cce832250371569244f765a17fcd217832be093f0fd5fa45b908290a150630a85bd0160e11b95945050505050565b600080821215610cdb57610cd682613179565b610cdd565b815b92915050565b6001805460009182610cf483613160565b9190505550600154600143610d099190613195565b4033604051602001610d4093929190928352602083019190915260601b6bffffffffffffffffffffffff1916604082015260540190565b60405160208183030381529060405280519060200120905090565b6005546001600160a01b03163314610dac5760405162461bcd60e51b8152602060048201526014602482015273139bdd081858dd1a5bdb9cc818dbdb9d1c9858dd60621b604482015260640161086d565b60005b82811015610f29576004546001600160a01b03166307084e56836000600b888887818110610ddf57610ddf613117565b9050602002013581548110610df657610df6613117565b600091825260209091206002600a9092020101546040516001600160e01b031960e086901b1681526001600160a01b0393841660048201529290911660248301526044820152606401600060405180830381600087803b158015610e5957600080fd5b505af1158015610e6d573d6000803e3d6000fd5b50505050610ea3848483818110610e8657610e86613117565b6000898152600c60209081526040909120939102013590506123d8565b506000600b858584818110610eba57610eba613117565b9050602002013581548110610ed157610ed1613117565b600091825260208083206003600a9093020191820189905560088201805460ff19166001179055604080518082019091528381520191909152600901805461ffff191690555080610f2181613160565b915050610daf565b5050505050565b600080610f3f60016006611e19565b60ff1690507ffe34d093a460a16ee5fb374540914d1c734a17502c0c1a87b387c8d6097e1c518382604051610f7e929190918252602082015260400190565b60405180910390a192915050565b610f946123e4565b600080546040516001600160a01b03909116914780156108fc02929091818181858888f19350505050158015610fce573d6000803e3d6000fd5b50565b6000818152600c60205260409020606090610cdd9061243e565b6040805160e08082018352600080835260208084018290528385018290526060808501839052608080860184905260a080870185905260c0808801869052898652600c855288862089519788018a52868852948701869052978601859052918501849052840183905283018290529382015290919060005b61106c8361244b565b81101561137a576000600b6110818584612455565b8154811061109157611091613117565b60009182526020909120600a909102019050600160068201546301000000900460ff16600a8111156110c5576110c5612cde565b03611107578060060160049054906101000a900460ff1660000b836000015160000b1215611102576006810154600160201b900460ff1660000b83525b611367565b600260068201546301000000900460ff16600a81111561112957611129612cde565b0361116d578060060160049054906101000a900460ff1660000b836020015160000b1215611102576006810154600160201b900460ff1660000b6020840152611367565b600360068201546301000000900460ff16600a81111561118f5761118f612cde565b036111d3578060060160049054906101000a900460ff1660000b836040015160000b1215611102576006810154600160201b900460ff1660000b6040840152611367565b600460068201546301000000900460ff16600a8111156111f5576111f5612cde565b03611239578060060160049054906101000a900460ff1660000b836060015160000b1215611102576006810154600160201b900460ff1660000b6060840152611367565b600560068201546301000000900460ff16600a81111561125b5761125b612cde565b0361129f578060060160049054906101000a900460ff1660000b836080015160000b1215611102576006810154600160201b900460ff1660000b6080840152611367565b600860068201546301000000900460ff16600a8111156112c1576112c1612cde565b03611305578060060160049054906101000a900460ff1660000b8360a0015160000b1215611102576006810154600160201b900460ff1660000b60a0840152611367565b600960068201546301000000900460ff16600a81111561132757611327612cde565b03611367578060060160049054906101000a900460ff1660000b8360c0015160000b1215611367576006810154600160201b900460ff1660000b60c08401525b508061137281613160565b915050611063565b509392505050565b61138a6123e4565b61139c81670de0b6b3a76400006131a8565b60085550565b6000806113af8686613195565b90506000836113be86846131a8565b6113c891906131d5565b90506113d487826131e9565b979650505050505050565b6000806113eb85610f30565b6040805187815260208101839052908101869052606081018590529091507f75b6a8325595f91135e07382840634226793c68c9e59623da7e10d7ad3d95b959060800160405180910390a180600103611448576000915050611475565b60038361145586846131e9565b61145f91906131fc565b131561146f576001915050611475565b60009150505b9392505050565b6003546001600160a01b031633146114ca5760405162461bcd60e51b8152602060048201526011602482015270139bdd0819d85b594818dbdb9d1c9858dd607a1b604482015260640161086d565b6000600b82815481106114df576114df613117565b90600052602060002090600a020190506114f98383612357565b611507816007015483612461565b600060038201819055600782015560048054604051630852cd8d60e31b81529182018490526001600160a01b0316906342966c6890602401600060405180830381600087803b15801561155957600080fd5b505af115801561156d573d6000803e3d6000fd5b50505050505050565b60606000611583836124dd565b90506000808267ffffffffffffffff8111156115a1576115a1612e5b565b6040519080825280602002602001820160405280156115da57816020015b6115c761296d565b8152602001906001900390816115bf5790505b506000868152600d602052604081209192506115f58261244b565b905060005b81811015611803576002600b6116108584612455565b8154811061162057611620613117565b600091825260209091206008600a90920201015460ff16600381111561164857611648612cde565b036117f157600b6116598483612455565b8154811061166957611669613117565b90600052602060002090600a0201604051806101c00160405290816000820154815260200160018201548152602001600282015481526020016003820154815260200160048201548152602001600582015481526020016006820160009054906101000a900460ff1660028111156116e3576116e3612cde565b60028111156116f4576116f4612cde565b8152600682015460ff61010082048116602084015262010000820481166040840152606090920191630100000090910416600a81111561173657611736612cde565b600a81111561174757611747612cde565b8152600682015460ff600160201b9091048116602083015260078301546040830152600883015460609092019116600381111561178657611786612cde565b600381111561179757611797612cde565b8152604080518082019091526009929092015460ff808216845261010090910416602083810191909152015284518590879081106117d7576117d7613117565b602002602001018190525084806117ed90613160565b9550505b806117fb81613160565b9150506115fa565b50919695505050505050565b60008161181d8460046131a8565b61147591906131e9565b61182f6123e4565b6109ed6000612579565b6118416123e4565b6009805460ff1916911515919091179055565b60008160000361186657506001919050565b8160010361187657506000919050565b8160020361188657506003919050565b8160030361189657506002919050565b60405162461bcd60e51b815260206004820152600d60248201526c2130b2103234b932b1ba34b7b760991b604482015260640161086d565b60408051808201909152600080825260208201528260000361192057604051806040016040528060018460000151611906919061321c565b60ff168152602001836020015160ff168152509050610cdd565b82600103611944576040518060400160405280836000015160016119069190613235565b82600203611981576040518060400160405280836000015160ff168152602001836020015160016119759190613235565b60ff1690529050610cdd565b826003036119b2576040518060400160405280836000015160ff16815260200160018460200151611975919061321c565b60006119bd846125c9565b6040516020016119cd919061324e565b60405160208183030381529060405290508060405162461bcd60e51b815260040161086d91906130e4565b600080826001611a0986600261336d565b611a139190613195565b901b8516831c9150509392505050565b6000818152600c6020526040812060609190611a3e9061244b565b67ffffffffffffffff811115611a5657611a56612e5b565b604051908082528060200260200182016040528015611a8f57816020015b611a7c61296d565b815260200190600190039081611a745790505b50905060005b8151811015611c58576000848152600c60205260408120611ab69083612455565b9050600b8181548110611acb57611acb613117565b90600052602060002090600a0201604051806101c00160405290816000820154815260200160018201548152602001600282015481526020016003820154815260200160048201548152602001600582015481526020016006820160009054906101000a900460ff166002811115611b4557611b45612cde565b6002811115611b5657611b56612cde565b8152600682015460ff61010082048116602084015262010000820481166040840152606090920191630100000090910416600a811115611b9857611b98612cde565b600a811115611ba957611ba9612cde565b8152600682015460ff600160201b90910481166020830152600783015460408301526008830154606090920191166003811115611be857611be8612cde565b6003811115611bf957611bf9612cde565b8152604080518082019091526009929092015460ff80821684526101009091041660208381019190915201528351849084908110611c3957611c39613117565b6020026020010181905250508080611c5090613160565b915050611a95565b5092915050565b60606000611c6c836124dd565b90506000808267ffffffffffffffff811115611c8a57611c8a612e5b565b604051908082528060200260200182016040528015611cb3578160200160208202803683370190505b506000868152600d60205260408120919250611cce8261244b565b905060005b81811015611803576002600b611ce98584612455565b81548110611cf957611cf9613117565b600091825260209091206008600a90920201015460ff166003811115611d2157611d21612cde565b03611d5b57611d308382612455565b848681518110611d4257611d42613117565b602090810291909101015284611d5781613160565b9550505b80611d6581613160565b915050611cd3565b600b8181548110611d7d57600080fd5b6000918252602091829020600a90910201805460018201546002830154600384015460048501546005860154600687015460078801546008890154604080518082019091526009909a015460ff8181168c526101009182900481169c8c019c909c52989b50969995989497939692958083169594830481169462010000840482169463010000008504831694600160201b90048316939216908e565b6001805460009182611e2a83613160565b9190505550600033600154600143611e429190613195565b60405160609390931b6bffffffffffffffffffffffff19166020840152603483019190915240605482015260740160408051601f19818403018152919052805160209091012090506000611e96858561321c565b611ea1906001613235565b90508460ff168160ff1683611eb69190613379565b611ec091906131e9565b95945050505050565b611ed16123e4565b600280546001600160a01b039687166001600160a01b031991821617909155600380549587169582168617905560068054821690951790945560048054938616938516939093179092556005805491851691841691909117905560078054919093169116179055565b611f426123e4565b6001600160a01b038116611fa75760405162461bcd60e51b815260206004820152602660248201527f4f776e61626c653a206e6577206f776e657220697320746865207a65726f206160448201526564647265737360d01b606482015260840161086d565b610fce81612579565b80518251600091611fc09161338d565b60000b600103611fd257506000610cdd565b81518351611fe0919061338d565b60000b19611ff057506001610cdd565b81602001518360200151612004919061338d565b60000b1961201457506002610cdd565b81602001518360200151612028919061338d565b60000b60010361203a57506003610cdd565b60405162461bcd60e51b8152602060048201526013602482015272115c9c9bdc8e88139bdd0818591a9858d95b9d606a1b604482015260640161086d565b600480546040516309b6507f60e41b8152808301929092526000602483018190526001600160a01b0385811660448501529092911690639b6507f09064174876e8009060640160206040518083038185885af11580156120dc573d6000803e3d6000fd5b50505050506040513d601f19601f8201168201806040525081019061210191906133ae565b60048054604051632851838160e01b81529182018390529192506000916001600160a01b031690632851838190602401602060405180830381865afa15801561214e573d6000803e3d6000fd5b505050506040513d601f19601f8201168201806040525081019061217291906133ae565b600b8054600181810183556000839052600a9091027f0175b7a638427703f0dbe7bb9bbf987a2551717b34e79f33b5b1008d1fa01db901838155915492935090916121bd9190613195565b60018083019190915560028201849055600382018790556004808301829055600060058401819055600b926121f992869290916106b19161180f565b60ff16101561220957600161220c565b60025b60068201805460ff1916600183600281111561222a5761222a612cde565b021790555060068101805462ffff001916905561225a6122528360046106b16000600161180f565b60ff166126d2565b60068201805463ff0000001916630100000083600a81111561227e5761227e612cde565b021790555060006122978360046106b16001600261180f565b90506002600683015460ff1660028111156122b4576122b4612cde565b036122d35760036122c68260026133c7565b6122d091906133e3565b90505b6122e5600160048360ff16600f6113a2565b60068301805464ff000000001916600160201b60ff8416021790556007830186905560088301805491925060019160ff19168280021790555060018201546000888152600c6020526040902061233a916123d8565b5060018201546000868152600d60205260409020610c7c916123d8565b6000828152600c6020526040902061236f9082612781565b6123bb5760405162461bcd60e51b815260206004820152601e60248201527f506c6179657220646f65736e277420686176652074686973206974656d210000604482015260640161086d565b6000828152600c602052604090206123d39082612799565b505050565b600061147583836127a5565b6000546001600160a01b031633146109ed5760405162461bcd60e51b815260206004820181905260248201527f4f776e61626c653a2063616c6c6572206973206e6f7420746865206f776e6572604482015260640161086d565b60606000611475836127f4565b6000610cdd825490565b60006114758383612850565b6000828152600d602052604090206124799082612781565b6124c55760405162461bcd60e51b815260206004820152601c60248201527f47616d6520646f65736e277420686176652074686973206974656d2100000000604482015260640161086d565b6000818152600d602052604090206123d39082612799565b6000818152600d602052604081208190816124f78261244b565b905060005b8181101561256f576002600b6125128584612455565b8154811061252257612522613117565b600091825260209091206008600a90920201015460ff16600381111561254a5761254a612cde565b0361255d578361255981613160565b9450505b8061256781613160565b9150506124fc565b5091949350505050565b600080546001600160a01b038381166001600160a01b0319831681178455604051919092169283917f8be0079c531659141344cd1fd0a4f28419497f9722a3daafe3b4186f6b6457e09190a35050565b6060816000036125f05750506040805180820190915260018152600360fc1b602082015290565b8160005b811561261a578061260481613160565b91506126139050600a836131d5565b91506125f4565b60008167ffffffffffffffff81111561263557612635612e5b565b6040519080825280601f01601f19166020018201604052801561265f576020820181803683370190505b5090505b84156126ca57612674600183613195565b9150612681600a86613379565b61268c9060306131e9565b60f81b8183815181106126a1576126a1613117565b60200101906001600160f81b031916908160001a9053506126c3600a866131d5565b9450612663565b949350505050565b6000600182116126e457506000919050565b600282116126f457506001919050565b6003821161270457506002919050565b6004821161271457506003919050565b6005821161272457506004919050565b6006821161273457506005919050565b6008821161274457506006919050565b600a821161275457506007919050565b600c821161276457506008919050565b600e821161277457506009919050565b50600a919050565b919050565b60008181526001830160205260408120541515611475565b6000611475838361287a565b60008181526001830160205260408120546127ec57508154600181810184556000848152602080822090930184905584548482528286019093526040902091909155610cdd565b506000610cdd565b60608160000180548060200260200160405190810160405280929190818152602001828054801561284457602002820191906000526020600020905b815481526020019060010190808311612830575b50505050509050919050565b600082600001828154811061286757612867613117565b9060005260206000200154905092915050565b6000818152600183016020526040812054801561296357600061289e600183613195565b85549091506000906128b290600190613195565b90508181146129175760008660000182815481106128d2576128d2613117565b90600052602060002001549050808760000184815481106128f5576128f5613117565b6000918252602080832090910192909255918252600188019052604090208390555b855486908061292857612928613405565b600190038181906000526020600020016000905590558560010160008681526020019081526020016000206000905560019350505050610cdd565b6000915050610cdd565b604051806101c00160405280600080191681526020016000815260200160008152602001600081526020016000815260200160008152602001600060028111156129b9576129b9612cde565b8152600060208083018290526040808401839052606084018390526080840183905260a0840183905260c0840183905280518082019091528281529081019190915260e09091015290565b6001600160a01b0381168114610fce57600080fd5b600080600060608486031215612a2e57600080fd5b833592506020840135612a4081612a04565b929592945050506040919091013590565b60008083601f840112612a6357600080fd5b50813567ffffffffffffffff811115612a7b57600080fd5b6020830191508360208260051b8501011115612a9657600080fd5b9250929050565b60008060008060008060a08789031215612ab657600080fd5b86359550602087013567ffffffffffffffff811115612ad457600080fd5b612ae089828a01612a51565b979a90995096976040810135976060820135975060809091013595509350505050565b600080600080600060808688031215612b1b57600080fd5b8535612b2681612a04565b94506020860135612b3681612a04565b935060408601359250606086013567ffffffffffffffff80821115612b5a57600080fd5b818801915088601f830112612b6e57600080fd5b813581811115612b7d57600080fd5b896020828501011115612b8f57600080fd5b9699959850939650602001949392505050565b600060208284031215612bb457600080fd5b5035919050565b60008060008060608587031215612bd157600080fd5b84359350602085013567ffffffffffffffff811115612bef57600080fd5b612bfb87828801612a51565b9094509250506040850135612c0f81612a04565b939692955090935050565b6020808252825182820181905260009190848201906040850190845b81811015612c5257835183529284019291840191600101612c36565b50909695505050505050565b60008060008060808587031215612c7457600080fd5b5050823594602084013594506040840135936060013592509050565b600080600060608486031215612ca557600080fd5b505081359360208301359350604090920135919050565b60008060408385031215612ccf57600080fd5b50508035926020909101359150565b634e487b7160e01b600052602160045260246000fd5b60038110612d0457612d04612cde565b9052565b600b8110612d0457612d04612cde565b60048110612d0457612d04612cde565b602080825282518282018190526000919060409081850190868401855b82811015612e2c5781518051855286810151878601528581015186860152606080820151908601526080808201519086015260a0808201519086015260c080820151612d9382880182612cf4565b505060e08181015160ff81168783015250506101008181015160ff811687830152505061012080820151612dc982880182612d08565b50506101408181015160ff1690860152610160808201519086015261018080820151612df782880182612d18565b50506101a090810151805160ff9081169287019290925260200151166101c08501526101e09093019290850190600101612d45565b5091979650505050505050565b600060208284031215612e4b57600080fd5b8135801515811461147557600080fd5b634e487b7160e01b600052604160045260246000fd5b803560ff8116811461277c57600080fd5b600060408284031215612e9457600080fd5b6040516040810181811067ffffffffffffffff82111715612ec557634e487b7160e01b600052604160045260246000fd5b604052905080612ed483612e71565b8152612ee260208401612e71565b60208201525092915050565b60008060608385031215612f0157600080fd5b82359150612f128460208501612e82565b90509250929050565b60408101610cdd8284805160ff908116835260209182015116910152565b60006101e0820190508f82528e60208301528d60408301528c60608301528b60808301528a60a0830152612f7060c083018b612cf4565b60ff891660e083015260ff8816610100830152612f91610120830188612d08565b60ff861661014083015284610160830152612fb0610180830185612d18565b825160ff9081166101a08401526020840151166101c08301529f9e505050505050505050505050505050565b60008060408385031215612fef57600080fd5b612ff883612e71565b9150612f1260208401612e71565b600080600080600060a0868803121561301e57600080fd5b853561302981612a04565b9450602086013561303981612a04565b9350604086013561304981612a04565b9250606086013561305981612a04565b9150608086013561306981612a04565b809150509295509295909350565b60006020828403121561308957600080fd5b813561147581612a04565b600080608083850312156130a757600080fd5b6130b18484612e82565b9150612f128460408501612e82565b60005b838110156130db5781810151838201526020016130c3565b50506000910152565b60208152600082518060208401526131038160408501602087016130c0565b601f01601f19169190910160400192915050565b634e487b7160e01b600052603260045260246000fd5b60006020828403121561313f57600080fd5b815161147581612a04565b634e487b7160e01b600052601160045260246000fd5b6000600182016131725761317261314a565b5060010190565b6000600160ff1b820161318e5761318e61314a565b5060000390565b81810381811115610cdd57610cdd61314a565b8082028115828204841417610cdd57610cdd61314a565b634e487b7160e01b600052601260045260246000fd5b6000826131e4576131e46131bf565b500490565b80820180821115610cdd57610cdd61314a565b8181036000831280158383131683831282161715611c5857611c5861314a565b60ff8281168282160390811115610cdd57610cdd61314a565b60ff8181168382160190811115610cdd57610cdd61314a565b72024b73b30b634b2103234b932b1ba34b7b71d1606d1b81526000825161327c8160138501602087016130c0565b9190910160130192915050565b600181815b808511156132c45781600019048211156132aa576132aa61314a565b808516156132b757918102915b93841c939080029061328e565b509250929050565b6000826132db57506001610cdd565b816132e857506000610cdd565b81600181146132fe576002811461330857613324565b6001915050610cdd565b60ff8411156133195761331961314a565b50506001821b610cdd565b5060208310610133831016604e8410600b8410161715613347575081810a610cdd565b6133518383613289565b80600019048211156133655761336561314a565b029392505050565b600061147583836132cc565b600082613388576133886131bf565b500690565b600082810b9082900b03607f198112607f82131715610cdd57610cdd61314a565b6000602082840312156133c057600080fd5b5051919050565b60ff8181168382160290811690818114611c5857611c5861314a565b600060ff8316806133f6576133f66131bf565b8060ff84160491505092915050565b634e487b7160e01b600052603160045260246000fdfea2646970667358221220fca29412ae8f895f588a5aaf19e094e7124ac5d61c9b9db1b5ad90b6b7580c6764736f6c63430008110033",
  "devdoc": {
    "kind": "dev",
    "methods": {
      "owner()": {
        "details": "Returns the address of the current owner."
      },
      "renounceOwnership()": {
        "details": "Leaves the contract without owner. It will not be possible to call `onlyOwner` functions anymore. Can only be called by the current owner. NOTE: Renouncing ownership will leave the contract without an owner, thereby removing any functionality that is only available to the owner."
      },
      "transferOwnership(address)": {
        "details": "Transfers ownership of the contract to a new account (`newOwner`). Can only be called by the current owner."
      }
    },
    "version": 1
  },
  "userdoc": {
    "kind": "user",
    "methods": {},
    "version": 1
  },
  "storageLayout": {
    "storage": [
      {
        "astId": 7,
        "contract": "contracts/BCItems.sol:BCItems",
        "label": "_owner",
        "offset": 0,
        "slot": "0",
        "type": "t_address"
      },
      {
        "astId": 16431,
        "contract": "contracts/BCItems.sol:BCItems",
        "label": "TODO_randomSeed",
        "offset": 0,
        "slot": "1",
        "type": "t_uint256"
      },
      {
        "astId": 10591,
        "contract": "contracts/BCItems.sol:BCItems",
        "label": "lobbies",
        "offset": 0,
        "slot": "2",
        "type": "t_contract(LobbyInterface)10496"
      },
      {
        "astId": 10593,
        "contract": "contracts/BCItems.sol:BCItems",
        "label": "gamesContract",
        "offset": 0,
        "slot": "3",
        "type": "t_address"
      },
      {
        "astId": 10596,
        "contract": "contracts/BCItems.sol:BCItems",
        "label": "uif",
        "offset": 0,
        "slot": "4",
        "type": "t_contract(UIFInterface)10570"
      },
      {
        "astId": 10598,
        "contract": "contracts/BCItems.sol:BCItems",
        "label": "actionsContract",
        "offset": 0,
        "slot": "5",
        "type": "t_address"
      },
      {
        "astId": 10601,
        "contract": "contracts/BCItems.sol:BCItems",
        "label": "games",
        "offset": 0,
        "slot": "6",
        "type": "t_contract(GameInterface)10515"
      },
      {
        "astId": 10604,
        "contract": "contracts/BCItems.sol:BCItems",
        "label": "playersContract",
        "offset": 0,
        "slot": "7",
        "type": "t_contract(PlayersContract)10578"
      },
      {
        "astId": 10655,
        "contract": "contracts/BCItems.sol:BCItems",
        "label": "mintCost",
        "offset": 0,
        "slot": "8",
        "type": "t_uint256"
      },
      {
        "astId": 10658,
        "contract": "contracts/BCItems.sol:BCItems",
        "label": "mintIsActive",
        "offset": 0,
        "slot": "9",
        "type": "t_bool"
      },
      {
        "astId": 10662,
        "contract": "contracts/BCItems.sol:BCItems",
        "label": "allowedContract",
        "offset": 1,
        "slot": "9",
        "type": "t_address"
      },
      {
        "astId": 10665,
        "contract": "contracts/BCItems.sol:BCItems",
        "label": "randSeed",
        "offset": 0,
        "slot": "10",
        "type": "t_uint256"
      },
      {
        "astId": 10669,
        "contract": "contracts/BCItems.sol:BCItems",
        "label": "items",
        "offset": 0,
        "slot": "11",
        "type": "t_array(t_struct(Item)16403_storage)dyn_storage"
      },
      {
        "astId": 10674,
        "contract": "contracts/BCItems.sol:BCItems",
        "label": "playerToItems",
        "offset": 0,
        "slot": "12",
        "type": "t_mapping(t_uint256,t_struct(UintSet)2292_storage)"
      },
      {
        "astId": 10679,
        "contract": "contracts/BCItems.sol:BCItems",
        "label": "gameToItems",
        "offset": 0,
        "slot": "13",
        "type": "t_mapping(t_uint256,t_struct(UintSet)2292_storage)"
      }
    ],
    "types": {
      "t_address": {
        "encoding": "inplace",
        "label": "address",
        "numberOfBytes": "20"
      },
      "t_array(t_bytes32)dyn_storage": {
        "base": "t_bytes32",
        "encoding": "dynamic_array",
        "label": "bytes32[]",
        "numberOfBytes": "32"
      },
      "t_array(t_struct(Item)16403_storage)dyn_storage": {
        "base": "t_struct(Item)16403_storage",
        "encoding": "dynamic_array",
        "label": "struct BCTypes.Item[]",
        "numberOfBytes": "32"
      },
      "t_bool": {
        "encoding": "inplace",
        "label": "bool",
        "numberOfBytes": "1"
      },
      "t_bytes32": {
        "encoding": "inplace",
        "label": "bytes32",
        "numberOfBytes": "32"
      },
      "t_contract(GameInterface)10515": {
        "encoding": "inplace",
        "label": "contract GameInterface",
        "numberOfBytes": "20"
      },
      "t_contract(LobbyInterface)10496": {
        "encoding": "inplace",
        "label": "contract LobbyInterface",
        "numberOfBytes": "20"
      },
      "t_contract(PlayersContract)10578": {
        "encoding": "inplace",
        "label": "contract PlayersContract",
        "numberOfBytes": "20"
      },
      "t_contract(UIFInterface)10570": {
        "encoding": "inplace",
        "label": "contract UIFInterface",
        "numberOfBytes": "20"
      },
      "t_enum(ItemCategory)16162": {
        "encoding": "inplace",
        "label": "enum BCTypes.ItemCategory",
        "numberOfBytes": "1"
      },
      "t_enum(ItemType)16174": {
        "encoding": "inplace",
        "label": "enum BCTypes.ItemType",
        "numberOfBytes": "1"
      },
      "t_enum(WorldItemStatus)16158": {
        "encoding": "inplace",
        "label": "enum BCTypes.WorldItemStatus",
        "numberOfBytes": "1"
      },
      "t_mapping(t_bytes32,t_uint256)": {
        "encoding": "mapping",
        "key": "t_bytes32",
        "label": "mapping(bytes32 => uint256)",
        "numberOfBytes": "32",
        "value": "t_uint256"
      },
      "t_mapping(t_uint256,t_struct(UintSet)2292_storage)": {
        "encoding": "mapping",
        "key": "t_uint256",
        "label": "mapping(uint256 => struct EnumerableSet.UintSet)",
        "numberOfBytes": "32",
        "value": "t_struct(UintSet)2292_storage"
      },
      "t_struct(Item)16403_storage": {
        "encoding": "inplace",
        "label": "struct BCTypes.Item",
        "members": [
          {
            "astId": 16372,
            "contract": "contracts/BCItems.sol:BCItems",
            "label": "genHash",
            "offset": 0,
            "slot": "0",
            "type": "t_bytes32"
          },
          {
            "astId": 16374,
            "contract": "contracts/BCItems.sol:BCItems",
            "label": "id",
            "offset": 0,
            "slot": "1",
            "type": "t_uint256"
          },
          {
            "astId": 16376,
            "contract": "contracts/BCItems.sol:BCItems",
            "label": "uifID",
            "offset": 0,
            "slot": "2",
            "type": "t_uint256"
          },
          {
            "astId": 16378,
            "contract": "contracts/BCItems.sol:BCItems",
            "label": "holdingPlayerId",
            "offset": 0,
            "slot": "3",
            "type": "t_uint256"
          },
          {
            "astId": 16380,
            "contract": "contracts/BCItems.sol:BCItems",
            "label": "weight",
            "offset": 0,
            "slot": "4",
            "type": "t_uint256"
          },
          {
            "astId": 16382,
            "contract": "contracts/BCItems.sol:BCItems",
            "label": "traitModID",
            "offset": 0,
            "slot": "5",
            "type": "t_uint256"
          },
          {
            "astId": 16385,
            "contract": "contracts/BCItems.sol:BCItems",
            "label": "itemCategory",
            "offset": 0,
            "slot": "6",
            "type": "t_enum(ItemCategory)16162"
          },
          {
            "astId": 16387,
            "contract": "contracts/BCItems.sol:BCItems",
            "label": "grantsAbility",
            "offset": 1,
            "slot": "6",
            "type": "t_uint8"
          },
          {
            "astId": 16389,
            "contract": "contracts/BCItems.sol:BCItems",
            "label": "grantsFlaw",
            "offset": 2,
            "slot": "6",
            "type": "t_uint8"
          },
          {
            "astId": 16392,
            "contract": "contracts/BCItems.sol:BCItems",
            "label": "itemType",
            "offset": 3,
            "slot": "6",
            "type": "t_enum(ItemType)16174"
          },
          {
            "astId": 16394,
            "contract": "contracts/BCItems.sol:BCItems",
            "label": "power",
            "offset": 4,
            "slot": "6",
            "type": "t_uint8"
          },
          {
            "astId": 16396,
            "contract": "contracts/BCItems.sol:BCItems",
            "label": "currentGame",
            "offset": 0,
            "slot": "7",
            "type": "t_uint256"
          },
          {
            "astId": 16399,
            "contract": "contracts/BCItems.sol:BCItems",
            "label": "status",
            "offset": 0,
            "slot": "8",
            "type": "t_enum(WorldItemStatus)16158"
          },
          {
            "astId": 16402,
            "contract": "contracts/BCItems.sol:BCItems",
            "label": "position",
            "offset": 0,
            "slot": "9",
            "type": "t_struct(Position)16220_storage"
          }
        ],
        "numberOfBytes": "320"
      },
      "t_struct(Position)16220_storage": {
        "encoding": "inplace",
        "label": "struct BCTypes.Position",
        "members": [
          {
            "astId": 16217,
            "contract": "contracts/BCItems.sol:BCItems",
            "label": "row",
            "offset": 0,
            "slot": "0",
            "type": "t_uint8"
          },
          {
            "astId": 16219,
            "contract": "contracts/BCItems.sol:BCItems",
            "label": "col",
            "offset": 1,
            "slot": "0",
            "type": "t_uint8"
          }
        ],
        "numberOfBytes": "32"
      },
      "t_struct(Set)1834_storage": {
        "encoding": "inplace",
        "label": "struct EnumerableSet.Set",
        "members": [
          {
            "astId": 1829,
            "contract": "contracts/BCItems.sol:BCItems",
            "label": "_values",
            "offset": 0,
            "slot": "0",
            "type": "t_array(t_bytes32)dyn_storage"
          },
          {
            "astId": 1833,
            "contract": "contracts/BCItems.sol:BCItems",
            "label": "_indexes",
            "offset": 0,
            "slot": "1",
            "type": "t_mapping(t_bytes32,t_uint256)"
          }
        ],
        "numberOfBytes": "64"
      },
      "t_struct(UintSet)2292_storage": {
        "encoding": "inplace",
        "label": "struct EnumerableSet.UintSet",
        "members": [
          {
            "astId": 2291,
            "contract": "contracts/BCItems.sol:BCItems",
            "label": "_inner",
            "offset": 0,
            "slot": "0",
            "type": "t_struct(Set)1834_storage"
          }
        ],
        "numberOfBytes": "64"
      },
      "t_uint256": {
        "encoding": "inplace",
        "label": "uint256",
        "numberOfBytes": "32"
      },
      "t_uint8": {
        "encoding": "inplace",
        "label": "uint8",
        "numberOfBytes": "1"
      }
    }
  }
}