{
  "address": "0xdc47E49450c3b0F931679b42c60818C7899EF940",
  "abi": [
    {
      "inputs": [],
      "stateMutability": "nonpayable",
      "type": "constructor"
    },
    {
      "anonymous": false,
      "inputs": [
        {
          "indexed": false,
          "internalType": "uint256",
          "name": "gameId",
          "type": "uint256"
        },
        {
          "indexed": false,
          "internalType": "uint256",
          "name": "roll",
          "type": "uint256"
        },
        {
          "indexed": false,
          "internalType": "uint256",
          "name": "forValue",
          "type": "uint256"
        },
        {
          "indexed": false,
          "internalType": "uint256",
          "name": "against",
          "type": "uint256"
        }
      ],
      "name": "ChallengeEvent",
      "type": "event"
    },
    {
      "anonymous": false,
      "inputs": [
        {
          "indexed": false,
          "internalType": "uint256",
          "name": "gameId",
          "type": "uint256"
        },
        {
          "indexed": false,
          "internalType": "uint256",
          "name": "roll",
          "type": "uint256"
        }
      ],
      "name": "DiceRollEvent",
      "type": "event"
    },
    {
      "anonymous": false,
      "inputs": [
        {
          "indexed": true,
          "internalType": "address",
          "name": "previousOwner",
          "type": "address"
        },
        {
          "indexed": true,
          "internalType": "address",
          "name": "newOwner",
          "type": "address"
        }
      ],
      "name": "OwnershipTransferred",
      "type": "event"
    },
    {
      "anonymous": false,
      "inputs": [],
      "name": "Received",
      "type": "event"
    },
    {
      "inputs": [
        {
          "internalType": "uint256",
          "name": "_matic",
          "type": "uint256"
        }
      ],
      "name": "SetMintCostInMatic",
      "outputs": [],
      "stateMutability": "nonpayable",
      "type": "function"
    },
    {
      "inputs": [
        {
          "internalType": "int256",
          "name": "x",
          "type": "int256"
        }
      ],
      "name": "abs",
      "outputs": [
        {
          "internalType": "int256",
          "name": "",
          "type": "int256"
        }
      ],
      "stateMutability": "pure",
      "type": "function"
    },
    {
      "inputs": [],
      "name": "actionsContract",
      "outputs": [
        {
          "internalType": "address",
          "name": "",
          "type": "address"
        }
      ],
      "stateMutability": "view",
      "type": "function"
    },
    {
      "inputs": [
        {
          "internalType": "uint256",
          "name": "_gameId",
          "type": "uint256"
        },
        {
          "internalType": "uint256[]",
          "name": "_playerIds",
          "type": "uint256[]"
        }
      ],
      "name": "addItemsToGame",
      "outputs": [],
      "stateMutability": "nonpayable",
      "type": "function"
    },
    {
      "inputs": [
        {
          "internalType": "uint256",
          "name": "_playerId",
          "type": "uint256"
        },
        {
          "internalType": "uint256[]",
          "name": "_itemIds",
          "type": "uint256[]"
        },
        {
          "internalType": "address",
          "name": "_owner",
          "type": "address"
        }
      ],
      "name": "addItemsToPlayer",
      "outputs": [],
      "stateMutability": "nonpayable",
      "type": "function"
    },
    {
      "inputs": [],
      "name": "commitItemToMission",
      "outputs": [],
      "stateMutability": "nonpayable",
      "type": "function"
    },
    {
      "inputs": [
        {
          "internalType": "uint256",
          "name": "_playerId",
          "type": "uint256"
        },
        {
          "internalType": "uint256",
          "name": "_itemId",
          "type": "uint256"
        }
      ],
      "name": "destroyItem",
      "outputs": [],
      "stateMutability": "nonpayable",
      "type": "function"
    },
    {
      "inputs": [
        {
          "internalType": "uint256",
          "name": "_gameId",
          "type": "uint256"
        },
        {
          "internalType": "uint256",
          "name": "_playerId",
          "type": "uint256"
        },
        {
          "internalType": "uint256",
          "name": "_row",
          "type": "uint256"
        },
        {
          "internalType": "uint256",
          "name": "_col",
          "type": "uint256"
        }
      ],
      "name": "dropAllItems",
      "outputs": [],
      "stateMutability": "nonpayable",
      "type": "function"
    },
    {
      "inputs": [],
      "name": "games",
      "outputs": [
        {
          "internalType": "contract GameInterface",
          "name": "",
          "type": "address"
        }
      ],
      "stateMutability": "view",
      "type": "function"
    },
    {
      "inputs": [],
      "name": "gamesContract",
      "outputs": [
        {
          "internalType": "address",
          "name": "",
          "type": "address"
        }
      ],
      "stateMutability": "view",
      "type": "function"
    },
    {
      "inputs": [
        {
          "components": [
            {
              "internalType": "uint8",
              "name": "row",
              "type": "uint8"
            },
            {
              "internalType": "uint8",
              "name": "col",
              "type": "uint8"
            }
          ],
          "internalType": "struct BCTypes.Position",
          "name": "_firstRoom",
          "type": "tuple"
        },
        {
          "components": [
            {
              "internalType": "uint8",
              "name": "row",
              "type": "uint8"
            },
            {
              "internalType": "uint8",
              "name": "col",
              "type": "uint8"
            }
          ],
          "internalType": "struct BCTypes.Position",
          "name": "_secondRoom",
          "type": "tuple"
        }
      ],
      "name": "getDirectionBetween",
      "outputs": [
        {
          "internalType": "uint256",
          "name": "",
          "type": "uint256"
        }
      ],
      "stateMutability": "pure",
      "type": "function"
    },
    {
      "inputs": [
        {
          "internalType": "uint256",
          "name": "_playerID",
          "type": "uint256"
        }
      ],
      "name": "getItemIDsByPlayer",
      "outputs": [
        {
          "internalType": "uint256[]",
          "name": "",
          "type": "uint256[]"
        }
      ],
      "stateMutability": "view",
      "type": "function"
    },
    {
      "inputs": [
        {
          "internalType": "uint256",
          "name": "_playerID",
          "type": "uint256"
        }
      ],
      "name": "getItemsByPlayer",
      "outputs": [
        {
          "components": [
            {
              "internalType": "bytes32",
              "name": "genHash",
              "type": "bytes32"
            },
            {
              "internalType": "uint256",
              "name": "id",
              "type": "uint256"
            },
            {
              "internalType": "uint256",
              "name": "uifID",
              "type": "uint256"
            },
            {
              "internalType": "uint256",
              "name": "holdingPlayerId",
              "type": "uint256"
            },
            {
              "internalType": "address",
              "name": "ownerAddress",
              "type": "address"
            },
            {
              "internalType": "uint256",
              "name": "weight",
              "type": "uint256"
            },
            {
              "internalType": "enum BCTypes.ItemCategory",
              "name": "itemCategory",
              "type": "uint8"
            },
            {
              "internalType": "uint8",
              "name": "grantsAbility",
              "type": "uint8"
            },
            {
              "internalType": "uint8",
              "name": "grantsFlaw",
              "type": "uint8"
            },
            {
              "internalType": "enum BCTypes.ItemType",
              "name": "itemType",
              "type": "uint8"
            },
            {
              "internalType": "uint8",
              "name": "power",
              "type": "uint8"
            },
            {
              "internalType": "uint256",
              "name": "currentGame",
              "type": "uint256"
            },
            {
              "internalType": "enum BCTypes.WorldItemStatus",
              "name": "status",
              "type": "uint8"
            },
            {
              "components": [
                {
                  "internalType": "uint8",
                  "name": "row",
                  "type": "uint8"
                },
                {
                  "internalType": "uint8",
                  "name": "col",
                  "type": "uint8"
                }
              ],
              "internalType": "struct BCTypes.Position",
              "name": "position",
              "type": "tuple"
            }
          ],
          "internalType": "struct BCTypes.Item[]",
          "name": "",
          "type": "tuple[]"
        }
      ],
      "stateMutability": "view",
      "type": "function"
    },
    {
      "inputs": [
        {
          "internalType": "uint256",
          "name": "_gameId",
          "type": "uint256"
        }
      ],
      "name": "getItemsIdsInGame",
      "outputs": [
        {
          "internalType": "uint256[]",
          "name": "",
          "type": "uint256[]"
        }
      ],
      "stateMutability": "view",
      "type": "function"
    },
    {
      "inputs": [
        {
          "internalType": "uint256",
          "name": "_direction",
          "type": "uint256"
        },
        {
          "components": [
            {
              "internalType": "uint8",
              "name": "row",
              "type": "uint8"
            },
            {
              "internalType": "uint8",
              "name": "col",
              "type": "uint8"
            }
          ],
          "internalType": "struct BCTypes.Position",
          "name": "_start",
          "type": "tuple"
        }
      ],
      "name": "getNeighborRoom",
      "outputs": [
        {
          "components": [
            {
              "internalType": "uint8",
              "name": "row",
              "type": "uint8"
            },
            {
              "internalType": "uint8",
              "name": "col",
              "type": "uint8"
            }
          ],
          "internalType": "struct BCTypes.Position",
          "name": "",
          "type": "tuple"
        }
      ],
      "stateMutability": "pure",
      "type": "function"
    },
    {
      "inputs": [
        {
          "internalType": "address",
          "name": "_address",
          "type": "address"
        }
      ],
      "name": "getOwnedItemIds",
      "outputs": [
        {
          "internalType": "uint256[]",
          "name": "",
          "type": "uint256[]"
        }
      ],
      "stateMutability": "view",
      "type": "function"
    },
    {
      "inputs": [
        {
          "internalType": "address",
          "name": "_address",
          "type": "address"
        }
      ],
      "name": "getOwnedItems",
      "outputs": [
        {
          "components": [
            {
              "internalType": "bytes32",
              "name": "genHash",
              "type": "bytes32"
            },
            {
              "internalType": "uint256",
              "name": "id",
              "type": "uint256"
            },
            {
              "internalType": "uint256",
              "name": "uifID",
              "type": "uint256"
            },
            {
              "internalType": "uint256",
              "name": "holdingPlayerId",
              "type": "uint256"
            },
            {
              "internalType": "address",
              "name": "ownerAddress",
              "type": "address"
            },
            {
              "internalType": "uint256",
              "name": "weight",
              "type": "uint256"
            },
            {
              "internalType": "enum BCTypes.ItemCategory",
              "name": "itemCategory",
              "type": "uint8"
            },
            {
              "internalType": "uint8",
              "name": "grantsAbility",
              "type": "uint8"
            },
            {
              "internalType": "uint8",
              "name": "grantsFlaw",
              "type": "uint8"
            },
            {
              "internalType": "enum BCTypes.ItemType",
              "name": "itemType",
              "type": "uint8"
            },
            {
              "internalType": "uint8",
              "name": "power",
              "type": "uint8"
            },
            {
              "internalType": "uint256",
              "name": "currentGame",
              "type": "uint256"
            },
            {
              "internalType": "enum BCTypes.WorldItemStatus",
              "name": "status",
              "type": "uint8"
            },
            {
              "components": [
                {
                  "internalType": "uint8",
                  "name": "row",
                  "type": "uint8"
                },
                {
                  "internalType": "uint8",
                  "name": "col",
                  "type": "uint8"
                }
              ],
              "internalType": "struct BCTypes.Position",
              "name": "position",
              "type": "tuple"
            }
          ],
          "internalType": "struct BCTypes.Item[]",
          "name": "",
          "type": "tuple[]"
        }
      ],
      "stateMutability": "view",
      "type": "function"
    },
    {
      "inputs": [
        {
          "internalType": "uint256",
          "name": "_playerId",
          "type": "uint256"
        }
      ],
      "name": "getTraitModifiers",
      "outputs": [
        {
          "components": [
            {
              "internalType": "int8",
              "name": "health",
              "type": "int8"
            },
            {
              "internalType": "int8",
              "name": "carry",
              "type": "int8"
            },
            {
              "internalType": "int8",
              "name": "defense",
              "type": "int8"
            },
            {
              "internalType": "int8",
              "name": "hack",
              "type": "int8"
            },
            {
              "internalType": "int8",
              "name": "breach",
              "type": "int8"
            },
            {
              "internalType": "int8",
              "name": "shoot",
              "type": "int8"
            },
            {
              "internalType": "int8",
              "name": "melee",
              "type": "int8"
            },
            {
              "internalType": "bool",
              "name": "hasGun",
              "type": "bool"
            }
          ],
          "internalType": "struct BCTypes.Traits",
          "name": "",
          "type": "tuple"
        }
      ],
      "stateMutability": "view",
      "type": "function"
    },
    {
      "inputs": [
        {
          "internalType": "uint256",
          "name": "_traitNum",
          "type": "uint256"
        },
        {
          "internalType": "uint256",
          "name": "_subTraitNum",
          "type": "uint256"
        }
      ],
      "name": "getUIOffset",
      "outputs": [
        {
          "internalType": "uint256",
          "name": "",
          "type": "uint256"
        }
      ],
      "stateMutability": "pure",
      "type": "function"
    },
    {
      "inputs": [
        {
          "internalType": "uint256",
          "name": "_gameId",
          "type": "uint256"
        }
      ],
      "name": "getWorldItemIds",
      "outputs": [
        {
          "internalType": "uint256[]",
          "name": "",
          "type": "uint256[]"
        }
      ],
      "stateMutability": "view",
      "type": "function"
    },
    {
      "inputs": [
        {
          "internalType": "uint256",
          "name": "_gameId",
          "type": "uint256"
        }
      ],
      "name": "getWorldItems",
      "outputs": [
        {
          "components": [
            {
              "internalType": "bytes32",
              "name": "genHash",
              "type": "bytes32"
            },
            {
              "internalType": "uint256",
              "name": "id",
              "type": "uint256"
            },
            {
              "internalType": "uint256",
              "name": "uifID",
              "type": "uint256"
            },
            {
              "internalType": "uint256",
              "name": "holdingPlayerId",
              "type": "uint256"
            },
            {
              "internalType": "address",
              "name": "ownerAddress",
              "type": "address"
            },
            {
              "internalType": "uint256",
              "name": "weight",
              "type": "uint256"
            },
            {
              "internalType": "enum BCTypes.ItemCategory",
              "name": "itemCategory",
              "type": "uint8"
            },
            {
              "internalType": "uint8",
              "name": "grantsAbility",
              "type": "uint8"
            },
            {
              "internalType": "uint8",
              "name": "grantsFlaw",
              "type": "uint8"
            },
            {
              "internalType": "enum BCTypes.ItemType",
              "name": "itemType",
              "type": "uint8"
            },
            {
              "internalType": "uint8",
              "name": "power",
              "type": "uint8"
            },
            {
              "internalType": "uint256",
              "name": "currentGame",
              "type": "uint256"
            },
            {
              "internalType": "enum BCTypes.WorldItemStatus",
              "name": "status",
              "type": "uint8"
            },
            {
              "components": [
                {
                  "internalType": "uint8",
                  "name": "row",
                  "type": "uint8"
                },
                {
                  "internalType": "uint8",
                  "name": "col",
                  "type": "uint8"
                }
              ],
              "internalType": "struct BCTypes.Position",
              "name": "position",
              "type": "tuple"
            }
          ],
          "internalType": "struct BCTypes.Item[]",
          "name": "",
          "type": "tuple[]"
        }
      ],
      "stateMutability": "view",
      "type": "function"
    },
    {
      "inputs": [
        {
          "internalType": "uint256",
          "name": "",
          "type": "uint256"
        }
      ],
      "name": "items",
      "outputs": [
        {
          "internalType": "bytes32",
          "name": "genHash",
          "type": "bytes32"
        },
        {
          "internalType": "uint256",
          "name": "id",
          "type": "uint256"
        },
        {
          "internalType": "uint256",
          "name": "uifID",
          "type": "uint256"
        },
        {
          "internalType": "uint256",
          "name": "holdingPlayerId",
          "type": "uint256"
        },
        {
          "internalType": "address",
          "name": "ownerAddress",
          "type": "address"
        },
        {
          "internalType": "uint256",
          "name": "weight",
          "type": "uint256"
        },
        {
          "internalType": "enum BCTypes.ItemCategory",
          "name": "itemCategory",
          "type": "uint8"
        },
        {
          "internalType": "uint8",
          "name": "grantsAbility",
          "type": "uint8"
        },
        {
          "internalType": "uint8",
          "name": "grantsFlaw",
          "type": "uint8"
        },
        {
          "internalType": "enum BCTypes.ItemType",
          "name": "itemType",
          "type": "uint8"
        },
        {
          "internalType": "uint8",
          "name": "power",
          "type": "uint8"
        },
        {
          "internalType": "uint256",
          "name": "currentGame",
          "type": "uint256"
        },
        {
          "internalType": "enum BCTypes.WorldItemStatus",
          "name": "status",
          "type": "uint8"
        },
        {
          "components": [
            {
              "internalType": "uint8",
              "name": "row",
              "type": "uint8"
            },
            {
              "internalType": "uint8",
              "name": "col",
              "type": "uint8"
            }
          ],
          "internalType": "struct BCTypes.Position",
          "name": "position",
          "type": "tuple"
        }
      ],
      "stateMutability": "view",
      "type": "function"
    },
    {
      "inputs": [],
      "name": "lobbies",
      "outputs": [
        {
          "internalType": "contract LobbyInterface",
          "name": "",
          "type": "address"
        }
      ],
      "stateMutability": "view",
      "type": "function"
    },
    {
      "inputs": [
        {
          "internalType": "uint256",
          "name": "_holdingPlayerId",
          "type": "uint256"
        },
        {
          "internalType": "address",
          "name": "_holderAddress",
          "type": "address"
        },
        {
          "internalType": "uint256",
          "name": "_gameId",
          "type": "uint256"
        }
      ],
      "name": "lootItem",
      "outputs": [],
      "stateMutability": "payable",
      "type": "function"
    },
    {
      "inputs": [
        {
          "components": [
            {
              "internalType": "uint8",
              "name": "row",
              "type": "uint8"
            },
            {
              "internalType": "uint8",
              "name": "col",
              "type": "uint8"
            }
          ],
          "internalType": "struct BCTypes.Position",
          "name": "_pos1",
          "type": "tuple"
        },
        {
          "components": [
            {
              "internalType": "uint8",
              "name": "row",
              "type": "uint8"
            },
            {
              "internalType": "uint8",
              "name": "col",
              "type": "uint8"
            }
          ],
          "internalType": "struct BCTypes.Position",
          "name": "_pos2",
          "type": "tuple"
        }
      ],
      "name": "manhattanDistance",
      "outputs": [
        {
          "internalType": "uint256",
          "name": "",
          "type": "uint256"
        }
      ],
      "stateMutability": "pure",
      "type": "function"
    },
    {
      "inputs": [],
      "name": "mintCost",
      "outputs": [
        {
          "internalType": "uint256",
          "name": "",
          "type": "uint256"
        }
      ],
      "stateMutability": "view",
      "type": "function"
    },
    {
      "inputs": [],
      "name": "mintIsActive",
      "outputs": [
        {
          "internalType": "bool",
          "name": "",
          "type": "bool"
        }
      ],
      "stateMutability": "view",
      "type": "function"
    },
    {
      "inputs": [
        {
          "internalType": "uint256",
          "name": "_min",
          "type": "uint256"
        },
        {
          "internalType": "uint256",
          "name": "_max",
          "type": "uint256"
        },
        {
          "internalType": "uint256",
          "name": "_val",
          "type": "uint256"
        },
        {
          "internalType": "uint256",
          "name": "_valMax",
          "type": "uint256"
        }
      ],
      "name": "normalizeToSmallRange",
      "outputs": [
        {
          "internalType": "uint8",
          "name": "",
          "type": "uint8"
        }
      ],
      "stateMutability": "pure",
      "type": "function"
    },
    {
      "inputs": [
        {
          "internalType": "address",
          "name": "_operator",
          "type": "address"
        },
        {
          "internalType": "address",
          "name": "_from",
          "type": "address"
        },
        {
          "internalType": "uint256",
          "name": "_tokenId",
          "type": "uint256"
        },
        {
          "internalType": "bytes",
          "name": "_data",
          "type": "bytes"
        }
      ],
      "name": "onERC721Received",
      "outputs": [
        {
          "internalType": "bytes4",
          "name": "",
          "type": "bytes4"
        }
      ],
      "stateMutability": "nonpayable",
      "type": "function"
    },
    {
      "inputs": [
        {
          "internalType": "uint256",
          "name": "_direction",
          "type": "uint256"
        }
      ],
      "name": "opposite",
      "outputs": [
        {
          "internalType": "uint256",
          "name": "",
          "type": "uint256"
        }
      ],
      "stateMutability": "pure",
      "type": "function"
    },
    {
      "inputs": [],
      "name": "owner",
      "outputs": [
        {
          "internalType": "address",
          "name": "",
          "type": "address"
        }
      ],
      "stateMutability": "view",
      "type": "function"
    },
    {
      "inputs": [
        {
          "internalType": "uint256",
          "name": "_playerId",
          "type": "uint256"
        },
        {
          "internalType": "uint256[]",
          "name": "_itemIds",
          "type": "uint256[]"
        },
        {
          "internalType": "address",
          "name": "_newOwnerAddress",
          "type": "address"
        }
      ],
      "name": "pickupWorldItems",
      "outputs": [],
      "stateMutability": "nonpayable",
      "type": "function"
    },
    {
      "inputs": [],
      "name": "playersContract",
      "outputs": [
        {
          "internalType": "contract PlayersContract",
          "name": "",
          "type": "address"
        }
      ],
      "stateMutability": "view",
      "type": "function"
    },
    {
      "inputs": [],
      "name": "randKeccak",
      "outputs": [
        {
          "internalType": "bytes32",
          "name": "",
          "type": "bytes32"
        }
      ],
      "stateMutability": "nonpayable",
      "type": "function"
    },
    {
      "inputs": [],
      "name": "renounceOwnership",
      "outputs": [],
      "stateMutability": "nonpayable",
      "type": "function"
    },
    {
      "inputs": [
        {
          "internalType": "uint256",
          "name": "_gameId",
          "type": "uint256"
        },
        {
          "internalType": "uint256",
          "name": "_for",
          "type": "uint256"
        },
        {
          "internalType": "uint256",
          "name": "_against",
          "type": "uint256"
        }
      ],
      "name": "resolveChallenge",
      "outputs": [
        {
          "internalType": "bool",
          "name": "",
          "type": "bool"
        }
      ],
      "stateMutability": "nonpayable",
      "type": "function"
    },
    {
      "inputs": [
        {
          "internalType": "uint256",
          "name": "_gameId",
          "type": "uint256"
        }
      ],
      "name": "roll",
      "outputs": [
        {
          "internalType": "uint256",
          "name": "",
          "type": "uint256"
        }
      ],
      "stateMutability": "nonpayable",
      "type": "function"
    },
    {
      "inputs": [
        {
          "internalType": "address",
          "name": "_lobbyContractAddress",
          "type": "address"
        },
        {
          "internalType": "address",
          "name": "_gameContract",
          "type": "address"
        },
        {
          "internalType": "address",
          "name": "_UIFAddress",
          "type": "address"
        },
        {
          "internalType": "address",
          "name": "_actionsContract",
          "type": "address"
        },
        {
          "internalType": "address",
          "name": "_playersContract",
          "type": "address"
        }
      ],
      "name": "setContractAddresses",
      "outputs": [],
      "stateMutability": "nonpayable",
      "type": "function"
    },
    {
      "inputs": [
        {
          "internalType": "bool",
          "name": "_status",
          "type": "bool"
        }
      ],
      "name": "setMintingStatus",
      "outputs": [],
      "stateMutability": "nonpayable",
      "type": "function"
    },
    {
      "inputs": [
        {
          "internalType": "bytes32",
          "name": "_hash",
          "type": "bytes32"
        },
        {
          "internalType": "uint256",
          "name": "_size",
          "type": "uint256"
        },
        {
          "internalType": "uint256",
          "name": "_offset",
          "type": "uint256"
        }
      ],
      "name": "sliceHashToSmallInt",
      "outputs": [
        {
          "internalType": "uint8",
          "name": "",
          "type": "uint8"
        }
      ],
      "stateMutability": "pure",
      "type": "function"
    },
    {
      "inputs": [
        {
          "internalType": "uint8",
          "name": "_min",
          "type": "uint8"
        },
        {
          "internalType": "uint8",
          "name": "_max",
          "type": "uint8"
        }
      ],
      "name": "smallIntBetweenVals",
      "outputs": [
        {
          "internalType": "uint8",
          "name": "",
          "type": "uint8"
        }
      ],
      "stateMutability": "nonpayable",
      "type": "function"
    },
    {
      "inputs": [],
      "name": "spawnCompanyItem",
      "outputs": [],
      "stateMutability": "payable",
      "type": "function"
    },
    {
      "inputs": [
        {
          "internalType": "uint256",
          "name": "_gameId",
          "type": "uint256"
        },
        {
          "internalType": "uint256[]",
          "name": "_itemIds",
          "type": "uint256[]"
        },
        {
          "internalType": "uint256",
          "name": "_row",
          "type": "uint256"
        },
        {
          "internalType": "uint256",
          "name": "_col",
          "type": "uint256"
        },
        {
          "internalType": "uint256",
          "name": "_formerOwnerId",
          "type": "uint256"
        }
      ],
      "name": "spawnWorldItems",
      "outputs": [],
      "stateMutability": "nonpayable",
      "type": "function"
    },
    {
      "inputs": [
        {
          "internalType": "uint256",
          "name": "_playerId",
          "type": "uint256"
        },
        {
          "internalType": "uint256",
          "name": "_gameId",
          "type": "uint256"
        }
      ],
      "name": "takeItemsHome",
      "outputs": [],
      "stateMutability": "nonpayable",
      "type": "function"
    },
    {
      "inputs": [],
      "name": "transferFundsOut",
      "outputs": [],
      "stateMutability": "nonpayable",
      "type": "function"
    },
    {
      "inputs": [
        {
          "internalType": "address",
          "name": "newOwner",
          "type": "address"
        }
      ],
      "name": "transferOwnership",
      "outputs": [],
      "stateMutability": "nonpayable",
      "type": "function"
    },
    {
      "inputs": [],
      "name": "uif",
      "outputs": [
        {
          "internalType": "contract UIFInterface",
          "name": "",
          "type": "address"
        }
      ],
      "stateMutability": "view",
      "type": "function"
    }
  ],
  "transactionHash": "0x86e0b7eff387f90221b4fe2451bc3c13eb8c9909947ea62515ad3c131ace009a",
  "args": [],
  "numDeployments": 1,
  "solcInputHash": "c135a17d550c85f8b826ea79e494fac6",
  "bytecode": "0x60806040526000600190815564174876e8006008556009805460ff191690911790553480156200002e57600080fd5b506200003a3362000040565b62000090565b600080546001600160a01b038381166001600160a01b0319831681178455604051919092169283917f8be0079c531659141344cd1fd0a4f28419497f9722a3daafe3b4186f6b6457e09190a35050565b613eff80620000a06000396000f3fe6080604052600436106102885760003560e01c806364b0e5001161015a578063b78e6651116100c1578063e847ae1e1161007a578063e847ae1e146107f7578063ec25c25414610817578063f10bff2b14610837578063f135332a14610857578063f2fde38b14610877578063fa3993c21461089757600080fd5b8063b78e665114610727578063b918fd6814610747578063bdb4b84814610767578063bfb231d21461077d578063ce28613f146107b7578063e417dc35146107d757600080fd5b806377e01eca1161011357806377e01eca1461065c5780638214f2221461067c5780638da5cb5b1461069c578063951fc3fe146106ba578063955a015b146106e757806397f34c3f1461070757600080fd5b806364b0e500146105ae57806364db84bf146105db578063705498dc146105fb578063715018a61461061b5780637420aa361461063057806376c8aa271461065057600080fd5b80631f7b4f30116101fe57806347ef26b1116101b757806347ef26b1146104cf578063501f9784146104fc578063530116961461051c5780635dc969671461054e5780635f09c7821461056e5780635f8726011461058e57600080fd5b80631f7b4f3014610403578063249af0b414610423578063268f1d4d146104435780633838aed1146104635780633841fae114610478578063471a4294146104a557600080fd5b8063150b7a0211610250578063150b7a0214610327578063154fa27a14610360578063185ae9dc146103805780631b5ac4b5146103a05780631e1de205146103ce5780631ef2688c146103e357600080fd5b80630364f88c1461028d5780630cc0db53146102ca5780630fd8e833146102df57806311ff7047146102e7578063129f090314610307575b600080fd5b34801561029957600080fd5b506002546102ad906001600160a01b031681565b6040516001600160a01b0390911681526020015b60405180910390f35b6102dd6102d8366004613329565b6108b7565b005b6102dd6109cf565b3480156102f357600080fd5b506102dd610302366004613407565b610abb565b34801561031357600080fd5b506007546102ad906001600160a01b031681565b34801561033357600080fd5b50610347610342366004613469565b610dae565b6040516001600160e01b031990911681526020016102c1565b34801561036c57600080fd5b506003546102ad906001600160a01b031681565b34801561038c57600080fd5b506005546102ad906001600160a01b031681565b3480156103ac57600080fd5b506103c06103bb366004613508565b610deb565b6040519081526020016102c1565b3480156103da57600080fd5b506103c0610e0b565b3480156103ef57600080fd5b506102dd6103fe366004613521565b610e83565b34801561040f57600080fd5b506103c061041e366004613508565b61106a565b34801561042f57600080fd5b506102dd61043e3660046135b3565b6110c6565b34801561044f57600080fd5b506102dd61045e36600461360e565b6112a8565b34801561046f57600080fd5b506102dd611334565b34801561048457600080fd5b50610498610493366004613508565b611379565b6040516102c19190613640565b3480156104b157600080fd5b506009546104bf9060ff1681565b60405190151581526020016102c1565b3480156104db57600080fd5b506104ef6104ea366004613508565b611393565b6040516102c19190613684565b34801561050857600080fd5b506102dd610517366004613508565b6116da565b34801561052857600080fd5b5061053c61053736600461360e565b6116fa565b60405160ff90911681526020016102c1565b34801561055a57600080fd5b506104bf6105693660046136f3565b611737565b34801561057a57600080fd5b506102dd61058936600461371f565b6117d4565b34801561059a57600080fd5b506102dd6105a936600461371f565b61188a565b3480156105ba57600080fd5b506105ce6105c9366004613508565b611a37565b6040516102c1919061378b565b3480156105e757600080fd5b506103c06105f636600461371f565b611cda565b34801561060757600080fd5b506004546102ad906001600160a01b031681565b34801561062757600080fd5b506102dd611cf2565b34801561063c57600080fd5b506102dd61064b3660046138a5565b611d04565b3480156102dd57600080fd5b34801561066857600080fd5b506104986106773660046138c7565b611d1f565b34801561068857600080fd5b506103c0610697366004613508565b611d43565b3480156106a857600080fd5b506000546001600160a01b03166102ad565b3480156106c657600080fd5b506106da6106d5366004613953565b611dbd565b6040516102c19190613980565b3480156106f357600080fd5b506006546102ad906001600160a01b031681565b34801561071357600080fd5b5061053c6107223660046136f3565b611ee7565b34801561073357600080fd5b506105ce610742366004613508565b611f12565b34801561075357600080fd5b50610498610762366004613508565b612158565b34801561077357600080fd5b506103c060085481565b34801561078957600080fd5b5061079d610798366004613508565b612266565b6040516102c19e9d9c9b9a9998979695949392919061399e565b3480156107c357600080fd5b5061053c6107d2366004613a49565b61231c565b3480156107e357600080fd5b506105ce6107f23660046138c7565b6123cc565b34801561080357600080fd5b506102dd610812366004613a73565b61261f565b34801561082357600080fd5b506102dd610832366004613ae4565b612690565b34801561084357600080fd5b506103c0610852366004613b2b565b6127b9565b34801561086357600080fd5b50610498610872366004613508565b612806565b34801561088357600080fd5b506102dd6108923660046138c7565b612820565b3480156108a357600080fd5b506103c06108b2366004613b2b565b612896565b600854604080516602830bcb2b21d160cd1b60208201523460278201526a0161031b7b9ba1034b99d160ad1b60478201526052808201939093528151808203909301835260720190526000546001600160a01b031633148061091a575060085434145b81906109425760405162461bcd60e51b81526004016109399190613b7b565b60405180910390fd5b506000546001600160a01b031633148061096657506003546001600160a01b031633145b8061097b57506005546001600160a01b031633145b6109be5760405162461bcd60e51b815260206004820152601460248201527310dbdb9d1c9858dd081b9bdd08185b1b1bddd95960621b6044820152606401610939565b6109c984848461295e565b50505050565b6000546001600160a01b03163314806109e9575060085434145b610a295760405162461bcd60e51b8152602060048201526011602482015270125b98dbdc9c9958dd081c185e5b595b9d607a1b6044820152606401610939565b6000546001600160a01b0316331480610a49575060095460ff1615156001145b610a8d5760405162461bcd60e51b81526020600482015260156024820152744d696e74696e67206973206e6f742061637469766560581b6044820152606401610939565b6000546001600160a01b0316331480610ab057506003546001600160a01b031633145b610ab957600080fd5b565b6005546001600160a01b0316331480610ade57506007546001600160a01b031633145b610b445760405162461bcd60e51b815260206004820152603160248201527f4e6f7420616374696f6e73206f7220706c617965727320636f6e7472616374206044820152702d20737061776e576f726c644974656d7360781b6064820152608401610939565b835115610da75760075484516000916001600160a01b031690636621a42190600a9088908590610b7657610b76613bae565b602002602001015181548110610b8e57610b8e613bae565b90600052602060002090600a0201600301546040518263ffffffff1660e01b8152600401610bbe91815260200190565b602060405180830381865afa158015610bdb573d6000803e3d6000fd5b505050506040513d601f19601f82011682018060405250810190610bff9190613bc4565b905060005b8551811015610da457600460009054906101000a90046001600160a01b03166001600160a01b03166307084e56600084600a8a8681518110610c4857610c48613bae565b602002602001015181548110610c6057610c60613bae565b600091825260209091206002600a9092020101546040516001600160e01b031960e086901b1681526001600160a01b0393841660048201529290911660248301526044820152606401600060405180830381600087803b158015610cc357600080fd5b505af1158015610cd7573d6000803e3d6000fd5b50505050610cfe83878381518110610cf157610cf1613bae565b6020026020010151612c3e565b6000600a878381518110610d1457610d14613bae565b602002602001015181548110610d2c57610d2c613bae565b6000918252602082206003600a909202019081019190915560088101805491925060029160ff191660018302179055506040805180820190915260ff8781168083529087166020909201829052600992909201805461ffff191690921761010090910217905580610d9c81613bf7565b915050610c04565b50505b5050505050565b6040516000907f544c765b33ca411cce832250371569244f765a17fcd217832be093f0fd5fa45b908290a150630a85bd0160e11b95945050505050565b600080821215610e0357610dfe82613c10565b610e05565b815b92915050565b6001805460009182610e1c83613bf7565b9190505550600154600143610e319190613c2c565b4033604051602001610e6893929190928352602083019190915260601b6bffffffffffffffffffffffff1916604082015260540190565b60405160208183030381529060405280519060200120905090565b6005546001600160a01b03163314610eed5760405162461bcd60e51b815260206004820152602760248201527f4e6f7420616374696f6e7320636f6e7472616374202d207069636b7570576f726044820152666c644974656d7360c81b6064820152608401610939565b60005b82811015610da7576004546001600160a01b03166307084e56836000600a888887818110610f2057610f20613bae565b9050602002013581548110610f3757610f37613bae565b600091825260209091206002600a9092020101546040516001600160e01b031960e086901b1681526001600160a01b0393841660048201529290911660248301526044820152606401600060405180830381600087803b158015610f9a57600080fd5b505af1158015610fae573d6000803e3d6000fd5b50505050610fe4848483818110610fc757610fc7613bae565b6000898152600b6020908152604090912093910201359050612cba565b506000600a858584818110610ffb57610ffb613bae565b905060200201358154811061101257611012613bae565b600091825260208083206003600a9093020191820189905560088201805460ff19166001179055604080518082019091528381520191909152600901805461ffff19169055508061106281613bf7565b915050610ef0565b6000806110796001600661231c565b60ff1690507ffe34d093a460a16ee5fb374540914d1c734a17502c0c1a87b387c8d6097e1c5183826040516110b8929190918252602082015260400190565b60405180910390a192915050565b6007546001600160a01b031633146111305760405162461bcd60e51b815260206004820152602760248201527f4e6f7420706c617965727320636f6e7472616374202d206164644974656d735460448201526637a83630bcb2b960c91b6064820152608401610939565b60005b82518110156109c957600083828151811061115057611150613bae565b602002602001015190506000600a828154811061116f5761116f613bae565b90600052602060002090600a0201905080600301546000146111d35760405162461bcd60e51b815260206004820181905260248201527f536f6d656f6e6520697320616c726561647920686f6c64696e672074686973216044820152606401610939565b60048101546001600160a01b0385811691161461123e5760405162461bcd60e51b815260206004820152602360248201527f4f776e657220666f72206974656d20616e64206368617220646f6e2774206d616044820152620e8c6d60eb1b6064820152608401610939565b600381018690556004810180546001600160a01b03191690556000868152600b6020526040902061126f9083612cba565b506001600160a01b0384166000908152600d602052604090206112929083612cc6565b50505080806112a090613bf7565b915050611133565b6007546001600160a01b0316331461130e5760405162461bcd60e51b815260206004820152602360248201527f4e6f7420706c617965727320636f6e7472616374202d2064726f70416c6c4974604482015262656d7360e81b6064820152608401610939565b6000838152600b6020526040812061132590612cd2565b9050610da78582858588610abb565b61133c612cdf565b600080546040516001600160a01b03909116914780156108fc02929091818181858888f19350505050158015611376573d6000803e3d6000fd5b50565b6000818152600b60205260409020606090610e0590612cd2565b61139b61324f565b6000828152600b602052604090206113b161324f565b60005b6113bd83612d39565b8110156116d2576000600a6113d28584612d43565b815481106113e2576113e2613bae565b60009182526020909120600a909102019050600160068201546301000000900460ff16600a81111561141657611416613741565b03611458578060060160049054906101000a900460ff1660000b836000015160000b1215611453576006810154600160201b900460ff1660000b83525b6116bf565b600260068201546301000000900460ff16600a81111561147a5761147a613741565b036114be578060060160049054906101000a900460ff1660000b836020015160000b1215611453576006810154600160201b900460ff1660000b60208401526116bf565b600360068201546301000000900460ff16600a8111156114e0576114e0613741565b03611524578060060160049054906101000a900460ff1660000b836040015160000b1215611453576006810154600160201b900460ff1660000b60408401526116bf565b600460068201546301000000900460ff16600a81111561154657611546613741565b0361158a578060060160049054906101000a900460ff1660000b836060015160000b1215611453576006810154600160201b900460ff1660000b60608401526116bf565b600560068201546301000000900460ff16600a8111156115ac576115ac613741565b036115f0578060060160049054906101000a900460ff1660000b836080015160000b1215611453576006810154600160201b900460ff1660000b60808401526116bf565b600860068201546301000000900460ff16600a81111561161257611612613741565b0361165d578060060160049054906101000a900460ff1660000b8360a0015160000b1215611453576006810154600160201b900460ff1660000b60a0840152600160e08401526116bf565b600960068201546301000000900460ff16600a81111561167f5761167f613741565b036116bf578060060160049054906101000a900460ff1660000b8360c0015160000b12156116bf576006810154600160201b900460ff1660000b60c08401525b50806116ca81613bf7565b9150506113b4565b509392505050565b6116e2612cdf565b6116f481670de0b6b3a7640000613c3f565b60085550565b6000806117078686613c2c565b90506000836117168684613c3f565b6117209190613c6c565b905061172c8782613c80565b979650505050505050565b6000806117438561106a565b6040805187815260208101839052908101869052606081018590529091507f75b6a8325595f91135e07382840634226793c68c9e59623da7e10d7ad3d95b959060800160405180910390a1806001036117a05760009150506117cd565b6003836117ad8684613c80565b6117b79190613c93565b13156117c75760019150506117cd565b60009150505b9392505050565b6003546001600160a01b03163314806117f757506007546001600160a01b031633145b61183a5760405162461bcd60e51b8152602060048201526014602482015273139bdd08185b1b1bddd9590818dbdb9d1c9858dd60621b6044820152606401610939565b6000600a828154811061184f5761184f613bae565b90600052602060002090600a020190506118698383612c3e565b611877816007015483612d4f565b6000600382018190556007909101555050565b6006546001600160a01b031633146118d95760405162461bcd60e51b8152602060048201526012602482015271139bdd0819d85b595cc818dbdb9d1c9858dd60721b6044820152606401610939565b6000828152600b60205260408082206007549151636621a42160e01b8152600481018690529092916001600160a01b031690636621a42190602401602060405180830381865afa158015611931573d6000803e3d6000fd5b505050506040513d601f19601f820116820180604052508101906119559190613bc4565b9050600061196283612d39565b9050805b8015611a2f57600061198361197c600184613c2c565b8690612d43565b90506000600a828154811061199a5761199a613bae565b600091825260208083206003600a9390930201918201839055600480830180546001600160a01b038b166001600160a01b031990911681179091556007840185905560088401805460ff19169092179091558352600d90526040909120909150611a049083612cba565b50611a0f8683612cc6565b50611a1a8783612d4f565b50508080611a2790613cb3565b915050611966565b505050505050565b60606000611a4483612dcb565b90506000808267ffffffffffffffff811115611a6257611a62613361565b604051908082528060200260200182016040528015611a9b57816020015b611a88613293565b815260200190600190039081611a805790505b506000868152600c60205260408120919250611ab682612d39565b905060005b81811015611cce576002600a611ad18584612d43565b81548110611ae157611ae1613bae565b600091825260209091206008600a90920201015460ff166004811115611b0957611b09613741565b03611cbc57600a611b1a8483612d43565b81548110611b2a57611b2a613bae565b6000918252602091829020604080516101c081018252600a90930290910180548352600181015493830193909352600280840154918301919091526003830154606083015260048301546001600160a01b03166080830152600583015460a0830152600683015491929160c084019160ff90911690811115611bae57611bae613741565b6002811115611bbf57611bbf613741565b8152600682015460ff61010082048116602084015262010000820481166040840152606090920191630100000090910416600a811115611c0157611c01613741565b600a811115611c1257611c12613741565b8152600682015460ff600160201b90910481166020830152600783015460408301526008830154606090920191166004811115611c5157611c51613741565b6004811115611c6257611c62613741565b8152604080518082019091526009929092015460ff80821684526101009091041660208381019190915201528451859087908110611ca257611ca2613bae565b60200260200101819052508480611cb890613bf7565b9550505b80611cc681613bf7565b915050611abb565b50919695505050505050565b600081611ce8846004613c3f565b6117cd9190613c80565b611cfa612cdf565b610ab96000612e67565b611d0c612cdf565b6009805460ff1916911515919091179055565b6001600160a01b0381166000908152600d60205260409020606090610e0590612cd2565b600081600003611d5557506001919050565b81600103611d6557506000919050565b81600203611d7557506003919050565b81600303611d8557506002919050565b60405162461bcd60e51b815260206004820152600d60248201526c2130b2103234b932b1ba34b7b760991b6044820152606401610939565b604080518082019091526000808252602082015282600003611e0f57604051806040016040528060018460000151611df59190613cca565b60ff168152602001836020015160ff168152509050610e05565b82600103611e3357604051806040016040528083600001516001611df59190613ce3565b82600203611e70576040518060400160405280836000015160ff16815260200183602001516001611e649190613ce3565b60ff1690529050610e05565b82600303611ea1576040518060400160405280836000015160ff16815260200160018460200151611e649190613cca565b6000611eac84612eb7565b604051602001611ebc9190613cfc565b60405160208183030381529060405290508060405162461bcd60e51b81526004016109399190613b7b565b600080826001611ef8866002613e1b565b611f029190613c2c565b901b8516831c9150509392505050565b6000818152600b6020526040812060609190611f2d90612d39565b67ffffffffffffffff811115611f4557611f45613361565b604051908082528060200260200182016040528015611f7e57816020015b611f6b613293565b815260200190600190039081611f635790505b50905060005b8151811015612151576000848152600b60205260408120611fa59083612d43565b9050600a8181548110611fba57611fba613bae565b6000918252602091829020604080516101c081018252600a90930290910180548352600181015493830193909352600280840154918301919091526003830154606083015260048301546001600160a01b03166080830152600583015460a0830152600683015491929160c084019160ff9091169081111561203e5761203e613741565b600281111561204f5761204f613741565b8152600682015460ff61010082048116602084015262010000820481166040840152606090920191630100000090910416600a81111561209157612091613741565b600a8111156120a2576120a2613741565b8152600682015460ff600160201b909104811660208301526007830154604083015260088301546060909201911660048111156120e1576120e1613741565b60048111156120f2576120f2613741565b8152604080518082019091526009929092015460ff8082168452610100909104166020838101919091520152835184908490811061213257612132613bae565b602002602001018190525050808061214990613bf7565b915050611f84565b5092915050565b6060600061216583612dcb565b90506000808267ffffffffffffffff81111561218357612183613361565b6040519080825280602002602001820160405280156121ac578160200160208202803683370190505b506000868152600c602052604081209192506121c782612d39565b905060005b81811015611cce576002600a6121e28584612d43565b815481106121f2576121f2613bae565b600091825260209091206008600a90920201015460ff16600481111561221a5761221a613741565b03612254576122298382612d43565b84868151811061223b5761223b613bae565b60209081029190910101528461225081613bf7565b9550505b8061225e81613bf7565b9150506121cc565b600a818154811061227657600080fd5b6000918252602091829020600a90910201805460018201546002830154600384015460048501546005860154600687015460078801546008890154604080518082019091526009909a015460ff8181168c526101009182900481169c8c019c909c52989b509699959894976001600160a01b039094169692958083169594830481169462010000840482169463010000008504831694600160201b90048316939216908e565b600180546000918261232d83613bf7565b91905055506000336001546001436123459190613c2c565b60405160609390931b6bffffffffffffffffffffffff19166020840152603483019190915240605482015260740160408051601f198184030181529190528051602090910120905060006123998585613cca565b6123a4906001613ce3565b90508460ff168160ff16836123b99190613e27565b6123c39190613c80565b95945050505050565b6001600160a01b0381166000908152600d60205260408120606091906123f190612d39565b67ffffffffffffffff81111561240957612409613361565b60405190808252806020026020018201604052801561244257816020015b61242f613293565b8152602001906001900390816124275790505b50905060005b8151811015612151576001600160a01b0384166000908152600d602052604081206124739083612d43565b9050600a818154811061248857612488613bae565b6000918252602091829020604080516101c081018252600a90930290910180548352600181015493830193909352600280840154918301919091526003830154606083015260048301546001600160a01b03166080830152600583015460a0830152600683015491929160c084019160ff9091169081111561250c5761250c613741565b600281111561251d5761251d613741565b8152600682015460ff61010082048116602084015262010000820481166040840152606090920191630100000090910416600a81111561255f5761255f613741565b600a81111561257057612570613741565b8152600682015460ff600160201b909104811660208301526007830154604083015260088301546060909201911660048111156125af576125af613741565b60048111156125c0576125c0613741565b8152604080518082019091526009929092015460ff8082168452610100909104166020838101919091520152835184908490811061260057612600613bae565b602002602001018190525050808061261790613bf7565b915050612448565b612627612cdf565b600280546001600160a01b039687166001600160a01b031991821617909155600380549587169582168617905560068054821690951790945560048054938616938516939093179092556005805491851691841691909117905560078054919093169116179055565b6006546001600160a01b031633146126df5760405162461bcd60e51b8152602060048201526012602482015271139bdd0819d85b595cc818dbdb9d1c9858dd60721b6044820152606401610939565b60005b81518110156127b4576000600b600084848151811061270357612703613bae565b60200260200101518152602001908152602001600020905060005b61272782612d39565b81101561279f57600061273a8383612d43565b905085600a828154811061275057612750613bae565b90600052602060002090600a02016007018190555061278a81600c6000898152602001908152602001600020612cba90919063ffffffff16565b5050808061279790613bf7565b91505061271e565b505080806127ac90613bf7565b9150506126e2565b505050565b6000806127d9836000015160000b856000015160000b6103bb9190613c93565b905060006127fa846020015160000b866020015160000b6103bb9190613c93565b90506123c38183613c80565b6000818152600c60205260409020606090610e0590612cd2565b612828612cdf565b6001600160a01b03811661288d5760405162461bcd60e51b815260206004820152602660248201527f4f776e61626c653a206e6577206f776e657220697320746865207a65726f206160448201526564647265737360d01b6064820152608401610939565b61137681612e67565b805182516000916128a691613e3b565b60000b6001036128b857506000610e05565b815183516128c69190613e3b565b60000b196128d657506001610e05565b816020015183602001516128ea9190613e3b565b60000b196128fa57506002610e05565b8160200151836020015161290e9190613e3b565b60000b60010361292057506003610e05565b60405162461bcd60e51b8152602060048201526013602482015272115c9c9bdc8e88139bdd0818591a9858d95b9d606a1b6044820152606401610939565b600480546040516309b6507f60e41b8152808301929092526000602483018190526001600160a01b0385811660448501529092911690639b6507f09064174876e8009060640160206040518083038185885af11580156129c2573d6000803e3d6000fd5b50505050506040513d601f19601f820116820180604052508101906129e79190613e5c565b60048054604051632851838160e01b81529182018390529192506000916001600160a01b031690632851838190602401602060405180830381865afa158015612a34573d6000803e3d6000fd5b505050506040513d601f19601f82011682018060405250810190612a589190613e5c565b600a80546001818101835560008390529082027fc65a7bb8d6351c1cf70c95a316cc6a92839c986682d98bc35f958f4883f9d2a80183815591549293509091612aa19190613c2c565b600180830191909155600282018490556003820187905560058201819055600b90612ad6908490600490610722906000611cda565b60ff161015612ae6576001612ae9565b60025b60068201805460ff19166001836002811115612b0757612b07613741565b021790555060068101805462ffff0019169055612b37612b2f83600461072260006001611cda565b60ff16612fc0565b60068201805463ff0000001916630100000083600a811115612b5b57612b5b613741565b02179055506000612b7483600461072260016002611cda565b90506002600683015460ff166002811115612b9157612b91613741565b03612bb0576003612ba3826002613e75565b612bad9190613e91565b90505b612bc2600160048360ff16600f6116fa565b60068301805464ff000000001916600160201b60ff8416021790556007830186905560088301805491925060019160ff19168280021790555060018201546000888152600b60205260409020612c1791612cba565b5060018201546000868152600c60205260409020612c3491612cba565b5050505050505050565b6000828152600b60205260409020612c56908261306f565b612ca25760405162461bcd60e51b815260206004820152601e60248201527f506c6179657220646f65736e277420686176652074686973206974656d2100006044820152606401610939565b6000828152600b602052604090206127b49082612cc6565b60006117cd8383613087565b60006117cd83836130d6565b606060006117cd836131c9565b6000546001600160a01b03163314610ab95760405162461bcd60e51b815260206004820181905260248201527f4f776e61626c653a2063616c6c6572206973206e6f7420746865206f776e65726044820152606401610939565b6000610e05825490565b60006117cd8383613225565b6000828152600c60205260409020612d67908261306f565b612db35760405162461bcd60e51b815260206004820152601c60248201527f47616d6520646f65736e277420686176652074686973206974656d21000000006044820152606401610939565b6000828152600c602052604090206127b49082612cc6565b6000818152600c60205260408120819081612de582612d39565b905060005b81811015612e5d576002600a612e008584612d43565b81548110612e1057612e10613bae565b600091825260209091206008600a90920201015460ff166004811115612e3857612e38613741565b03612e4b5783612e4781613bf7565b9450505b80612e5581613bf7565b915050612dea565b5091949350505050565b600080546001600160a01b038381166001600160a01b0319831681178455604051919092169283917f8be0079c531659141344cd1fd0a4f28419497f9722a3daafe3b4186f6b6457e09190a35050565b606081600003612ede5750506040805180820190915260018152600360fc1b602082015290565b8160005b8115612f085780612ef281613bf7565b9150612f019050600a83613c6c565b9150612ee2565b60008167ffffffffffffffff811115612f2357612f23613361565b6040519080825280601f01601f191660200182016040528015612f4d576020820181803683370190505b5090505b8415612fb857612f62600183613c2c565b9150612f6f600a86613e27565b612f7a906030613c80565b60f81b818381518110612f8f57612f8f613bae565b60200101906001600160f81b031916908160001a905350612fb1600a86613c6c565b9450612f51565b949350505050565b600060018211612fd257506000919050565b60028211612fe257506001919050565b60038211612ff257506002919050565b6004821161300257506003919050565b6005821161301257506004919050565b6006821161302257506005919050565b6008821161303257506006919050565b600a821161304257506007919050565b600c821161305257506008919050565b600e821161306257506009919050565b50600a919050565b919050565b600081815260018301602052604081205415156117cd565b60008181526001830160205260408120546130ce57508154600181810184556000848152602080822090930184905584548482528286019093526040902091909155610e05565b506000610e05565b600081815260018301602052604081205480156131bf5760006130fa600183613c2c565b855490915060009061310e90600190613c2c565b905081811461317357600086600001828154811061312e5761312e613bae565b906000526020600020015490508087600001848154811061315157613151613bae565b6000918252602080832090910192909255918252600188019052604090208390555b855486908061318457613184613eb3565b600190038181906000526020600020016000905590558560010160008681526020019081526020016000206000905560019350505050610e05565b6000915050610e05565b60608160000180548060200260200160405190810160405280929190818152602001828054801561321957602002820191906000526020600020905b815481526020019060010190808311613205575b50505050509050919050565b600082600001828154811061323c5761323c613bae565b9060005260206000200154905092915050565b6040805161010081018252600080825260208201819052918101829052606081018290526080810182905260a0810182905260c0810182905260e081019190915290565b604080516101c08101825260008082526020808301829052828401829052606083018290526080830182905260a0830182905260c0830182905260e08301829052610100830182905261012083018290526101408301829052610160830182905261018083018290528351808501909452818452830152906101a082015290565b6001600160a01b038116811461137657600080fd5b60008060006060848603121561333e57600080fd5b83359250602084013561335081613314565b929592945050506040919091013590565b634e487b7160e01b600052604160045260246000fd5b600082601f83011261338857600080fd5b8135602067ffffffffffffffff808311156133a5576133a5613361565b8260051b604051601f19603f830116810181811084821117156133ca576133ca613361565b6040529384528581018301938381019250878511156133e857600080fd5b83870191505b8482101561172c578135835291830191908301906133ee565b600080600080600060a0868803121561341f57600080fd5b85359450602086013567ffffffffffffffff81111561343d57600080fd5b61344988828901613377565b959895975050505060408401359360608101359360809091013592509050565b60008060008060006080868803121561348157600080fd5b853561348c81613314565b9450602086013561349c81613314565b935060408601359250606086013567ffffffffffffffff808211156134c057600080fd5b818801915088601f8301126134d457600080fd5b8135818111156134e357600080fd5b8960208285010111156134f557600080fd5b9699959850939650602001949392505050565b60006020828403121561351a57600080fd5b5035919050565b6000806000806060858703121561353757600080fd5b84359350602085013567ffffffffffffffff8082111561355657600080fd5b818701915087601f83011261356a57600080fd5b81358181111561357957600080fd5b8860208260051b850101111561358e57600080fd5b60208301955080945050505060408501356135a881613314565b939692955090935050565b6000806000606084860312156135c857600080fd5b83359250602084013567ffffffffffffffff8111156135e657600080fd5b6135f286828701613377565b925050604084013561360381613314565b809150509250925092565b6000806000806080858703121561362457600080fd5b5050823594602084013594506040840135936060013592509050565b6020808252825182820181905260009190848201906040850190845b818110156136785783518352928401929184019160010161365c565b50909695505050505050565b6000610100820190508251600081810b84526020850151810b60208501526040850151810b60408501526060850151810b60608501526080850151810b608085015260a0850151810b60a085015260c0850151810b60c0850152505060e083015161215160e084018215159052565b60008060006060848603121561370857600080fd5b505081359360208301359350604090920135919050565b6000806040838503121561373257600080fd5b50508035926020909101359150565b634e487b7160e01b600052602160045260246000fd5b6003811061376757613767613741565b9052565b600b811061376757613767613741565b6005811061376757613767613741565b602080825282518282018190526000919060409081850190868401855b828110156138985781518051855286810151878601528581015186860152606080820151908601526080808201516001600160a01b03169086015260a0808201519086015260c0808201516137ff82880182613757565b505060e08181015160ff81168783015250506101008181015160ff8116878301525050610120808201516138358288018261376b565b50506101408181015160ff16908601526101608082015190860152610180808201516138638288018261377b565b50506101a090810151805160ff9081169287019290925260200151166101c08501526101e090930192908501906001016137a8565b5091979650505050505050565b6000602082840312156138b757600080fd5b813580151581146117cd57600080fd5b6000602082840312156138d957600080fd5b81356117cd81613314565b803560ff8116811461306a57600080fd5b60006040828403121561390757600080fd5b6040516040810181811067ffffffffffffffff8211171561392a5761392a613361565b604052905080613939836138e4565b8152613947602084016138e4565b60208201525092915050565b6000806060838503121561396657600080fd5b8235915061397784602085016138f5565b90509250929050565b60408101610e058284805160ff908116835260209182015116910152565b8e8152602081018e9052604081018d9052606081018c90526001600160a01b038b16608082015260a081018a90526101e081016139de60c083018b613757565b60ff89811660e084015288166101008301526139fe61012083018861376b565b60ff861661014083015284610160830152613a1d61018083018561377b565b825160ff9081166101a08401526020840151166101c08301529f9e505050505050505050505050505050565b60008060408385031215613a5c57600080fd5b613a65836138e4565b9150613977602084016138e4565b600080600080600060a08688031215613a8b57600080fd5b8535613a9681613314565b94506020860135613aa681613314565b93506040860135613ab681613314565b92506060860135613ac681613314565b91506080860135613ad681613314565b809150509295509295909350565b60008060408385031215613af757600080fd5b82359150602083013567ffffffffffffffff811115613b1557600080fd5b613b2185828601613377565b9150509250929050565b60008060808385031215613b3e57600080fd5b613b4884846138f5565b915061397784604085016138f5565b60005b83811015613b72578181015183820152602001613b5a565b50506000910152565b6020815260008251806020840152613b9a816040850160208701613b57565b601f01601f19169190910160400192915050565b634e487b7160e01b600052603260045260246000fd5b600060208284031215613bd657600080fd5b81516117cd81613314565b634e487b7160e01b600052601160045260246000fd5b600060018201613c0957613c09613be1565b5060010190565b6000600160ff1b8201613c2557613c25613be1565b5060000390565b81810381811115610e0557610e05613be1565b8082028115828204841417610e0557610e05613be1565b634e487b7160e01b600052601260045260246000fd5b600082613c7b57613c7b613c56565b500490565b80820180821115610e0557610e05613be1565b818103600083128015838313168383128216171561215157612151613be1565b600081613cc257613cc2613be1565b506000190190565b60ff8281168282160390811115610e0557610e05613be1565b60ff8181168382160190811115610e0557610e05613be1565b72024b73b30b634b2103234b932b1ba34b7b71d1606d1b815260008251613d2a816013850160208701613b57565b9190910160130192915050565b600181815b80851115613d72578160001904821115613d5857613d58613be1565b80851615613d6557918102915b93841c9390800290613d3c565b509250929050565b600082613d8957506001610e05565b81613d9657506000610e05565b8160018114613dac5760028114613db657613dd2565b6001915050610e05565b60ff841115613dc757613dc7613be1565b50506001821b610e05565b5060208310610133831016604e8410600b8410161715613df5575081810a610e05565b613dff8383613d37565b8060001904821115613e1357613e13613be1565b029392505050565b60006117cd8383613d7a565b600082613e3657613e36613c56565b500690565b600082810b9082900b03607f198112607f82131715610e0557610e05613be1565b600060208284031215613e6e57600080fd5b5051919050565b60ff818116838216029081169081811461215157612151613be1565b600060ff831680613ea457613ea4613c56565b8060ff84160491505092915050565b634e487b7160e01b600052603160045260246000fdfea264697066735822122082517a30f71c38584bf5eef9b7c842e972f04938cb32e3265d7964ec56a7e17a64736f6c63430008110033",
  "devdoc": {
    "kind": "dev",
    "methods": {
      "owner()": {
        "details": "Returns the address of the current owner."
      },
      "renounceOwnership()": {
        "details": "Leaves the contract without owner. It will not be possible to call `onlyOwner` functions anymore. Can only be called by the current owner. NOTE: Renouncing ownership will leave the contract without an owner, thereby removing any functionality that is only available to the owner."
      },
      "transferOwnership(address)": {
        "details": "Transfers ownership of the contract to a new account (`newOwner`). Can only be called by the current owner."
      }
    },
    "version": 1
  },
  "userdoc": {
    "kind": "user",
    "methods": {},
    "version": 1
  },
  "storageLayout": {
    "storage": [
      {
        "astId": 7,
        "contract": "contracts/BCItems.sol:BCItems",
        "label": "_owner",
        "offset": 0,
        "slot": "0",
        "type": "t_address"
      },
      {
        "astId": 16520,
        "contract": "contracts/BCItems.sol:BCItems",
        "label": "TODO_randomSeed",
        "offset": 0,
        "slot": "1",
        "type": "t_uint256"
      },
      {
        "astId": 12279,
        "contract": "contracts/BCItems.sol:BCItems",
        "label": "lobbies",
        "offset": 0,
        "slot": "2",
        "type": "t_contract(LobbyInterface)12184"
      },
      {
        "astId": 12281,
        "contract": "contracts/BCItems.sol:BCItems",
        "label": "gamesContract",
        "offset": 0,
        "slot": "3",
        "type": "t_address"
      },
      {
        "astId": 12284,
        "contract": "contracts/BCItems.sol:BCItems",
        "label": "uif",
        "offset": 0,
        "slot": "4",
        "type": "t_contract(UIFInterface)12258"
      },
      {
        "astId": 12286,
        "contract": "contracts/BCItems.sol:BCItems",
        "label": "actionsContract",
        "offset": 0,
        "slot": "5",
        "type": "t_address"
      },
      {
        "astId": 12289,
        "contract": "contracts/BCItems.sol:BCItems",
        "label": "games",
        "offset": 0,
        "slot": "6",
        "type": "t_contract(GameInterface)12203"
      },
      {
        "astId": 12292,
        "contract": "contracts/BCItems.sol:BCItems",
        "label": "playersContract",
        "offset": 0,
        "slot": "7",
        "type": "t_contract(PlayersContract)12266"
      },
      {
        "astId": 12343,
        "contract": "contracts/BCItems.sol:BCItems",
        "label": "mintCost",
        "offset": 0,
        "slot": "8",
        "type": "t_uint256"
      },
      {
        "astId": 12346,
        "contract": "contracts/BCItems.sol:BCItems",
        "label": "mintIsActive",
        "offset": 0,
        "slot": "9",
        "type": "t_bool"
      },
      {
        "astId": 12352,
        "contract": "contracts/BCItems.sol:BCItems",
        "label": "items",
        "offset": 0,
        "slot": "10",
        "type": "t_array(t_struct(Item)16492_storage)dyn_storage"
      },
      {
        "astId": 12357,
        "contract": "contracts/BCItems.sol:BCItems",
        "label": "playerToItems",
        "offset": 0,
        "slot": "11",
        "type": "t_mapping(t_uint256,t_struct(UintSet)2262_storage)"
      },
      {
        "astId": 12362,
        "contract": "contracts/BCItems.sol:BCItems",
        "label": "gameToItems",
        "offset": 0,
        "slot": "12",
        "type": "t_mapping(t_uint256,t_struct(UintSet)2262_storage)"
      },
      {
        "astId": 12367,
        "contract": "contracts/BCItems.sol:BCItems",
        "label": "ownedItems",
        "offset": 0,
        "slot": "13",
        "type": "t_mapping(t_address,t_struct(UintSet)2262_storage)"
      }
    ],
    "types": {
      "t_address": {
        "encoding": "inplace",
        "label": "address",
        "numberOfBytes": "20"
      },
      "t_array(t_bytes32)dyn_storage": {
        "base": "t_bytes32",
        "encoding": "dynamic_array",
        "label": "bytes32[]",
        "numberOfBytes": "32"
      },
      "t_array(t_struct(Item)16492_storage)dyn_storage": {
        "base": "t_struct(Item)16492_storage",
        "encoding": "dynamic_array",
        "label": "struct BCTypes.Item[]",
        "numberOfBytes": "32"
      },
      "t_bool": {
        "encoding": "inplace",
        "label": "bool",
        "numberOfBytes": "1"
      },
      "t_bytes32": {
        "encoding": "inplace",
        "label": "bytes32",
        "numberOfBytes": "32"
      },
      "t_contract(GameInterface)12203": {
        "encoding": "inplace",
        "label": "contract GameInterface",
        "numberOfBytes": "20"
      },
      "t_contract(LobbyInterface)12184": {
        "encoding": "inplace",
        "label": "contract LobbyInterface",
        "numberOfBytes": "20"
      },
      "t_contract(PlayersContract)12266": {
        "encoding": "inplace",
        "label": "contract PlayersContract",
        "numberOfBytes": "20"
      },
      "t_contract(UIFInterface)12258": {
        "encoding": "inplace",
        "label": "contract UIFInterface",
        "numberOfBytes": "20"
      },
      "t_enum(ItemCategory)16217": {
        "encoding": "inplace",
        "label": "enum BCTypes.ItemCategory",
        "numberOfBytes": "1"
      },
      "t_enum(ItemType)16229": {
        "encoding": "inplace",
        "label": "enum BCTypes.ItemType",
        "numberOfBytes": "1"
      },
      "t_enum(WorldItemStatus)16213": {
        "encoding": "inplace",
        "label": "enum BCTypes.WorldItemStatus",
        "numberOfBytes": "1"
      },
      "t_mapping(t_address,t_struct(UintSet)2262_storage)": {
        "encoding": "mapping",
        "key": "t_address",
        "label": "mapping(address => struct EnumerableSet.UintSet)",
        "numberOfBytes": "32",
        "value": "t_struct(UintSet)2262_storage"
      },
      "t_mapping(t_bytes32,t_uint256)": {
        "encoding": "mapping",
        "key": "t_bytes32",
        "label": "mapping(bytes32 => uint256)",
        "numberOfBytes": "32",
        "value": "t_uint256"
      },
      "t_mapping(t_uint256,t_struct(UintSet)2262_storage)": {
        "encoding": "mapping",
        "key": "t_uint256",
        "label": "mapping(uint256 => struct EnumerableSet.UintSet)",
        "numberOfBytes": "32",
        "value": "t_struct(UintSet)2262_storage"
      },
      "t_struct(Item)16492_storage": {
        "encoding": "inplace",
        "label": "struct BCTypes.Item",
        "members": [
          {
            "astId": 16461,
            "contract": "contracts/BCItems.sol:BCItems",
            "label": "genHash",
            "offset": 0,
            "slot": "0",
            "type": "t_bytes32"
          },
          {
            "astId": 16463,
            "contract": "contracts/BCItems.sol:BCItems",
            "label": "id",
            "offset": 0,
            "slot": "1",
            "type": "t_uint256"
          },
          {
            "astId": 16465,
            "contract": "contracts/BCItems.sol:BCItems",
            "label": "uifID",
            "offset": 0,
            "slot": "2",
            "type": "t_uint256"
          },
          {
            "astId": 16467,
            "contract": "contracts/BCItems.sol:BCItems",
            "label": "holdingPlayerId",
            "offset": 0,
            "slot": "3",
            "type": "t_uint256"
          },
          {
            "astId": 16469,
            "contract": "contracts/BCItems.sol:BCItems",
            "label": "ownerAddress",
            "offset": 0,
            "slot": "4",
            "type": "t_address"
          },
          {
            "astId": 16471,
            "contract": "contracts/BCItems.sol:BCItems",
            "label": "weight",
            "offset": 0,
            "slot": "5",
            "type": "t_uint256"
          },
          {
            "astId": 16474,
            "contract": "contracts/BCItems.sol:BCItems",
            "label": "itemCategory",
            "offset": 0,
            "slot": "6",
            "type": "t_enum(ItemCategory)16217"
          },
          {
            "astId": 16476,
            "contract": "contracts/BCItems.sol:BCItems",
            "label": "grantsAbility",
            "offset": 1,
            "slot": "6",
            "type": "t_uint8"
          },
          {
            "astId": 16478,
            "contract": "contracts/BCItems.sol:BCItems",
            "label": "grantsFlaw",
            "offset": 2,
            "slot": "6",
            "type": "t_uint8"
          },
          {
            "astId": 16481,
            "contract": "contracts/BCItems.sol:BCItems",
            "label": "itemType",
            "offset": 3,
            "slot": "6",
            "type": "t_enum(ItemType)16229"
          },
          {
            "astId": 16483,
            "contract": "contracts/BCItems.sol:BCItems",
            "label": "power",
            "offset": 4,
            "slot": "6",
            "type": "t_uint8"
          },
          {
            "astId": 16485,
            "contract": "contracts/BCItems.sol:BCItems",
            "label": "currentGame",
            "offset": 0,
            "slot": "7",
            "type": "t_uint256"
          },
          {
            "astId": 16488,
            "contract": "contracts/BCItems.sol:BCItems",
            "label": "status",
            "offset": 0,
            "slot": "8",
            "type": "t_enum(WorldItemStatus)16213"
          },
          {
            "astId": 16491,
            "contract": "contracts/BCItems.sol:BCItems",
            "label": "position",
            "offset": 0,
            "slot": "9",
            "type": "t_struct(Position)16301_storage"
          }
        ],
        "numberOfBytes": "320"
      },
      "t_struct(Position)16301_storage": {
        "encoding": "inplace",
        "label": "struct BCTypes.Position",
        "members": [
          {
            "astId": 16298,
            "contract": "contracts/BCItems.sol:BCItems",
            "label": "row",
            "offset": 0,
            "slot": "0",
            "type": "t_uint8"
          },
          {
            "astId": 16300,
            "contract": "contracts/BCItems.sol:BCItems",
            "label": "col",
            "offset": 1,
            "slot": "0",
            "type": "t_uint8"
          }
        ],
        "numberOfBytes": "32"
      },
      "t_struct(Set)1804_storage": {
        "encoding": "inplace",
        "label": "struct EnumerableSet.Set",
        "members": [
          {
            "astId": 1799,
            "contract": "contracts/BCItems.sol:BCItems",
            "label": "_values",
            "offset": 0,
            "slot": "0",
            "type": "t_array(t_bytes32)dyn_storage"
          },
          {
            "astId": 1803,
            "contract": "contracts/BCItems.sol:BCItems",
            "label": "_indexes",
            "offset": 0,
            "slot": "1",
            "type": "t_mapping(t_bytes32,t_uint256)"
          }
        ],
        "numberOfBytes": "64"
      },
      "t_struct(UintSet)2262_storage": {
        "encoding": "inplace",
        "label": "struct EnumerableSet.UintSet",
        "members": [
          {
            "astId": 2261,
            "contract": "contracts/BCItems.sol:BCItems",
            "label": "_inner",
            "offset": 0,
            "slot": "0",
            "type": "t_struct(Set)1804_storage"
          }
        ],
        "numberOfBytes": "64"
      },
      "t_uint256": {
        "encoding": "inplace",
        "label": "uint256",
        "numberOfBytes": "32"
      },
      "t_uint8": {
        "encoding": "inplace",
        "label": "uint8",
        "numberOfBytes": "1"
      }
    }
  }
}