{
  "address": "0x30A1a45a6cC26B57E4e5ed05169D5818bf2ba296",
  "abi": [
    {
      "inputs": [],
      "stateMutability": "nonpayable",
      "type": "constructor"
    },
    {
      "anonymous": false,
      "inputs": [
        {
          "indexed": false,
          "internalType": "uint256",
          "name": "roll",
          "type": "uint256"
        },
        {
          "indexed": false,
          "internalType": "uint256",
          "name": "forValue",
          "type": "uint256"
        },
        {
          "indexed": false,
          "internalType": "uint256",
          "name": "against",
          "type": "uint256"
        }
      ],
      "name": "ChallengeEvent",
      "type": "event"
    },
    {
      "anonymous": false,
      "inputs": [
        {
          "indexed": false,
          "internalType": "uint256",
          "name": "roll",
          "type": "uint256"
        }
      ],
      "name": "DiceRollEvent",
      "type": "event"
    },
    {
      "anonymous": false,
      "inputs": [
        {
          "indexed": true,
          "internalType": "address",
          "name": "previousOwner",
          "type": "address"
        },
        {
          "indexed": true,
          "internalType": "address",
          "name": "newOwner",
          "type": "address"
        }
      ],
      "name": "OwnershipTransferred",
      "type": "event"
    },
    {
      "anonymous": false,
      "inputs": [],
      "name": "Received",
      "type": "event"
    },
    {
      "inputs": [
        {
          "internalType": "uint256",
          "name": "_matic",
          "type": "uint256"
        }
      ],
      "name": "SetMintCostInMatic",
      "outputs": [],
      "stateMutability": "nonpayable",
      "type": "function"
    },
    {
      "inputs": [
        {
          "internalType": "int256",
          "name": "x",
          "type": "int256"
        }
      ],
      "name": "abs",
      "outputs": [
        {
          "internalType": "int256",
          "name": "",
          "type": "int256"
        }
      ],
      "stateMutability": "pure",
      "type": "function"
    },
    {
      "inputs": [],
      "name": "actionsContract",
      "outputs": [
        {
          "internalType": "address",
          "name": "",
          "type": "address"
        }
      ],
      "stateMutability": "view",
      "type": "function"
    },
    {
      "inputs": [],
      "name": "allowedContract",
      "outputs": [
        {
          "internalType": "address",
          "name": "",
          "type": "address"
        }
      ],
      "stateMutability": "view",
      "type": "function"
    },
    {
      "inputs": [],
      "name": "commitItemToMission",
      "outputs": [],
      "stateMutability": "nonpayable",
      "type": "function"
    },
    {
      "inputs": [
        {
          "internalType": "uint256",
          "name": "_itemId",
          "type": "uint256"
        }
      ],
      "name": "destroyItem",
      "outputs": [],
      "stateMutability": "nonpayable",
      "type": "function"
    },
    {
      "inputs": [],
      "name": "gamesContract",
      "outputs": [
        {
          "internalType": "address",
          "name": "",
          "type": "address"
        }
      ],
      "stateMutability": "view",
      "type": "function"
    },
    {
      "inputs": [
        {
          "components": [
            {
              "internalType": "uint8",
              "name": "row",
              "type": "uint8"
            },
            {
              "internalType": "uint8",
              "name": "col",
              "type": "uint8"
            }
          ],
          "internalType": "struct BCTypes.Position",
          "name": "_firstRoom",
          "type": "tuple"
        },
        {
          "components": [
            {
              "internalType": "uint8",
              "name": "row",
              "type": "uint8"
            },
            {
              "internalType": "uint8",
              "name": "col",
              "type": "uint8"
            }
          ],
          "internalType": "struct BCTypes.Position",
          "name": "_secondRoom",
          "type": "tuple"
        }
      ],
      "name": "getDirectionBetween",
      "outputs": [
        {
          "internalType": "uint256",
          "name": "",
          "type": "uint256"
        }
      ],
      "stateMutability": "pure",
      "type": "function"
    },
    {
      "inputs": [
        {
          "internalType": "uint256",
          "name": "_playerID",
          "type": "uint256"
        }
      ],
      "name": "getItemIDsByPlayer",
      "outputs": [
        {
          "internalType": "uint256[]",
          "name": "",
          "type": "uint256[]"
        }
      ],
      "stateMutability": "view",
      "type": "function"
    },
    {
      "inputs": [
        {
          "internalType": "uint256",
          "name": "_playerID",
          "type": "uint256"
        }
      ],
      "name": "getItemsByPlayer",
      "outputs": [
        {
          "components": [
            {
              "internalType": "bytes32",
              "name": "genHash",
              "type": "bytes32"
            },
            {
              "internalType": "uint256",
              "name": "id",
              "type": "uint256"
            },
            {
              "internalType": "uint256",
              "name": "uifID",
              "type": "uint256"
            },
            {
              "internalType": "uint256",
              "name": "holdingPlayerId",
              "type": "uint256"
            },
            {
              "internalType": "uint256",
              "name": "weight",
              "type": "uint256"
            },
            {
              "internalType": "uint256",
              "name": "traitModID",
              "type": "uint256"
            },
            {
              "internalType": "enum BCTypes.ItemCategory",
              "name": "itemCategory",
              "type": "uint8"
            },
            {
              "internalType": "uint8",
              "name": "grantsAbility",
              "type": "uint8"
            },
            {
              "internalType": "uint8",
              "name": "grantsFlaw",
              "type": "uint8"
            },
            {
              "internalType": "enum BCTypes.ItemType",
              "name": "itemType",
              "type": "uint8"
            },
            {
              "internalType": "uint8",
              "name": "power",
              "type": "uint8"
            },
            {
              "internalType": "bool",
              "name": "inGame",
              "type": "bool"
            }
          ],
          "internalType": "struct BCTypes.Item[]",
          "name": "",
          "type": "tuple[]"
        }
      ],
      "stateMutability": "view",
      "type": "function"
    },
    {
      "inputs": [
        {
          "internalType": "uint256",
          "name": "_direction",
          "type": "uint256"
        },
        {
          "components": [
            {
              "internalType": "uint8",
              "name": "row",
              "type": "uint8"
            },
            {
              "internalType": "uint8",
              "name": "col",
              "type": "uint8"
            }
          ],
          "internalType": "struct BCTypes.Position",
          "name": "_start",
          "type": "tuple"
        }
      ],
      "name": "getNeighborRoom",
      "outputs": [
        {
          "components": [
            {
              "internalType": "uint8",
              "name": "row",
              "type": "uint8"
            },
            {
              "internalType": "uint8",
              "name": "col",
              "type": "uint8"
            }
          ],
          "internalType": "struct BCTypes.Position",
          "name": "",
          "type": "tuple"
        }
      ],
      "stateMutability": "pure",
      "type": "function"
    },
    {
      "inputs": [
        {
          "internalType": "uint256",
          "name": "_traitNum",
          "type": "uint256"
        },
        {
          "internalType": "uint256",
          "name": "_subTraitNum",
          "type": "uint256"
        }
      ],
      "name": "getUIOffset",
      "outputs": [
        {
          "internalType": "uint256",
          "name": "",
          "type": "uint256"
        }
      ],
      "stateMutability": "pure",
      "type": "function"
    },
    {
      "inputs": [
        {
          "internalType": "uint256",
          "name": "",
          "type": "uint256"
        }
      ],
      "name": "items",
      "outputs": [
        {
          "internalType": "bytes32",
          "name": "genHash",
          "type": "bytes32"
        },
        {
          "internalType": "uint256",
          "name": "id",
          "type": "uint256"
        },
        {
          "internalType": "uint256",
          "name": "uifID",
          "type": "uint256"
        },
        {
          "internalType": "uint256",
          "name": "holdingPlayerId",
          "type": "uint256"
        },
        {
          "internalType": "uint256",
          "name": "weight",
          "type": "uint256"
        },
        {
          "internalType": "uint256",
          "name": "traitModID",
          "type": "uint256"
        },
        {
          "internalType": "enum BCTypes.ItemCategory",
          "name": "itemCategory",
          "type": "uint8"
        },
        {
          "internalType": "uint8",
          "name": "grantsAbility",
          "type": "uint8"
        },
        {
          "internalType": "uint8",
          "name": "grantsFlaw",
          "type": "uint8"
        },
        {
          "internalType": "enum BCTypes.ItemType",
          "name": "itemType",
          "type": "uint8"
        },
        {
          "internalType": "uint8",
          "name": "power",
          "type": "uint8"
        },
        {
          "internalType": "bool",
          "name": "inGame",
          "type": "bool"
        }
      ],
      "stateMutability": "view",
      "type": "function"
    },
    {
      "inputs": [],
      "name": "lobbies",
      "outputs": [
        {
          "internalType": "contract LobbyInterface",
          "name": "",
          "type": "address"
        }
      ],
      "stateMutability": "view",
      "type": "function"
    },
    {
      "inputs": [
        {
          "internalType": "uint256",
          "name": "_holdingPlayerId",
          "type": "uint256"
        },
        {
          "internalType": "address",
          "name": "_holderAddress",
          "type": "address"
        }
      ],
      "name": "lootItem",
      "outputs": [],
      "stateMutability": "payable",
      "type": "function"
    },
    {
      "inputs": [],
      "name": "mintCost",
      "outputs": [
        {
          "internalType": "uint256",
          "name": "",
          "type": "uint256"
        }
      ],
      "stateMutability": "view",
      "type": "function"
    },
    {
      "inputs": [],
      "name": "mintIsActive",
      "outputs": [
        {
          "internalType": "bool",
          "name": "",
          "type": "bool"
        }
      ],
      "stateMutability": "view",
      "type": "function"
    },
    {
      "inputs": [
        {
          "internalType": "uint256",
          "name": "_min",
          "type": "uint256"
        },
        {
          "internalType": "uint256",
          "name": "_max",
          "type": "uint256"
        },
        {
          "internalType": "uint256",
          "name": "_val",
          "type": "uint256"
        },
        {
          "internalType": "uint256",
          "name": "_valMax",
          "type": "uint256"
        }
      ],
      "name": "normalizeToSmallRange",
      "outputs": [
        {
          "internalType": "uint8",
          "name": "",
          "type": "uint8"
        }
      ],
      "stateMutability": "pure",
      "type": "function"
    },
    {
      "inputs": [
        {
          "internalType": "address",
          "name": "_operator",
          "type": "address"
        },
        {
          "internalType": "address",
          "name": "_from",
          "type": "address"
        },
        {
          "internalType": "uint256",
          "name": "_tokenId",
          "type": "uint256"
        },
        {
          "internalType": "bytes",
          "name": "_data",
          "type": "bytes"
        }
      ],
      "name": "onERC721Received",
      "outputs": [
        {
          "internalType": "bytes4",
          "name": "",
          "type": "bytes4"
        }
      ],
      "stateMutability": "nonpayable",
      "type": "function"
    },
    {
      "inputs": [
        {
          "internalType": "uint256",
          "name": "_direction",
          "type": "uint256"
        }
      ],
      "name": "opposite",
      "outputs": [
        {
          "internalType": "uint256",
          "name": "",
          "type": "uint256"
        }
      ],
      "stateMutability": "pure",
      "type": "function"
    },
    {
      "inputs": [],
      "name": "owner",
      "outputs": [
        {
          "internalType": "address",
          "name": "",
          "type": "address"
        }
      ],
      "stateMutability": "view",
      "type": "function"
    },
    {
      "inputs": [
        {
          "internalType": "uint256",
          "name": "",
          "type": "uint256"
        },
        {
          "internalType": "uint256",
          "name": "",
          "type": "uint256"
        }
      ],
      "name": "playerToItems",
      "outputs": [
        {
          "internalType": "uint256",
          "name": "",
          "type": "uint256"
        }
      ],
      "stateMutability": "view",
      "type": "function"
    },
    {
      "inputs": [],
      "name": "randKeccak",
      "outputs": [
        {
          "internalType": "bytes32",
          "name": "",
          "type": "bytes32"
        }
      ],
      "stateMutability": "nonpayable",
      "type": "function"
    },
    {
      "inputs": [],
      "name": "renounceOwnership",
      "outputs": [],
      "stateMutability": "nonpayable",
      "type": "function"
    },
    {
      "inputs": [
        {
          "internalType": "uint256",
          "name": "_for",
          "type": "uint256"
        },
        {
          "internalType": "uint256",
          "name": "_against",
          "type": "uint256"
        }
      ],
      "name": "resolveChallenge",
      "outputs": [
        {
          "internalType": "bool",
          "name": "",
          "type": "bool"
        }
      ],
      "stateMutability": "nonpayable",
      "type": "function"
    },
    {
      "inputs": [],
      "name": "roll",
      "outputs": [
        {
          "internalType": "uint256",
          "name": "",
          "type": "uint256"
        }
      ],
      "stateMutability": "nonpayable",
      "type": "function"
    },
    {
      "inputs": [
        {
          "internalType": "address",
          "name": "_lobbyContractAddress",
          "type": "address"
        },
        {
          "internalType": "address",
          "name": "_gameContract",
          "type": "address"
        },
        {
          "internalType": "address",
          "name": "_UIFAddress",
          "type": "address"
        },
        {
          "internalType": "address",
          "name": "_actionsContract",
          "type": "address"
        }
      ],
      "name": "setContractAddresses",
      "outputs": [],
      "stateMutability": "nonpayable",
      "type": "function"
    },
    {
      "inputs": [
        {
          "internalType": "bool",
          "name": "_status",
          "type": "bool"
        }
      ],
      "name": "setMintingStatus",
      "outputs": [],
      "stateMutability": "nonpayable",
      "type": "function"
    },
    {
      "inputs": [
        {
          "internalType": "bytes32",
          "name": "_hash",
          "type": "bytes32"
        },
        {
          "internalType": "uint256",
          "name": "_size",
          "type": "uint256"
        },
        {
          "internalType": "uint256",
          "name": "_offset",
          "type": "uint256"
        }
      ],
      "name": "sliceHashToSmallInt",
      "outputs": [
        {
          "internalType": "uint8",
          "name": "",
          "type": "uint8"
        }
      ],
      "stateMutability": "pure",
      "type": "function"
    },
    {
      "inputs": [
        {
          "internalType": "uint8",
          "name": "_min",
          "type": "uint8"
        },
        {
          "internalType": "uint8",
          "name": "_max",
          "type": "uint8"
        }
      ],
      "name": "smallIntBetweenVals",
      "outputs": [
        {
          "internalType": "uint8",
          "name": "",
          "type": "uint8"
        }
      ],
      "stateMutability": "nonpayable",
      "type": "function"
    },
    {
      "inputs": [],
      "name": "spawnCompanyItem",
      "outputs": [],
      "stateMutability": "payable",
      "type": "function"
    },
    {
      "inputs": [],
      "name": "spawnItem",
      "outputs": [],
      "stateMutability": "payable",
      "type": "function"
    },
    {
      "inputs": [],
      "name": "transferFundsOut",
      "outputs": [],
      "stateMutability": "nonpayable",
      "type": "function"
    },
    {
      "inputs": [
        {
          "internalType": "address",
          "name": "newOwner",
          "type": "address"
        }
      ],
      "name": "transferOwnership",
      "outputs": [],
      "stateMutability": "nonpayable",
      "type": "function"
    },
    {
      "inputs": [],
      "name": "uif",
      "outputs": [
        {
          "internalType": "contract UIFInterface",
          "name": "",
          "type": "address"
        }
      ],
      "stateMutability": "view",
      "type": "function"
    }
  ],
  "transactionHash": "0xb9d4d69145fdf143afeaeb062c12dcb8d302facc8d7c3c850e8863c3af56261b",
  "args": [],
  "numDeployments": 1,
  "solcInputHash": "947388adb37d92a940b70138bdfabf5d",
  "bytecode": "0x6080604052600060015564174876e8006006556001600760006101000a81548160ff02191690831515021790555060006008553480156200003f57600080fd5b5062000060620000546200008360201b60201c565b6200008b60201b60201c565b600b6001816001815401808255809150500390600052602060002050506200014f565b600033905090565b60008060009054906101000a900473ffffffffffffffffffffffffffffffffffffffff169050816000806101000a81548173ffffffffffffffffffffffffffffffffffffffff021916908373ffffffffffffffffffffffffffffffffffffffff1602179055508173ffffffffffffffffffffffffffffffffffffffff168173ffffffffffffffffffffffffffffffffffffffff167f8be0079c531659141344cd1fd0a4f28419497f9722a3daafe3b4186f6b6457e060405160405180910390a35050565b613db6806200015f6000396000f3fe6080604052600436106102045760003560e01c80638214f22211610118578063bdb4b848116100a0578063dff2fb311161006f578063dff2fb3114610763578063e89d5a89146107a0578063f2fde38b146107cb578063f7c8af48146107f4578063fa3993c21461081d57610204565b8063bdb4b84814610688578063bfb231d2146106b3578063cd5e3c5d146106fb578063ce28613f1461072657610204565b806397f34c3f116100e757806397f34c3f146105bf578063a20df9fa146105fc578063aa3eb1b514610606578063aaa6877714610622578063b78e66511461064b57610204565b80638214f222146104dd5780638ac031b31461051a5780638da5cb5b14610557578063951fc3fe1461058257610204565b80633841fae11161019b57806364db84bf1161016a57806364db84bf1461041e578063705498dc1461045b578063715018a6146104865780637420aa361461049d57806376c8aa27146104c657610204565b80633841fae114610350578063471a42941461038d578063501f9784146103b857806353011696146103e157610204565b8063185ae9dc116101d7578063185ae9dc146102a65780631b5ac4b5146102d15780631e1de2051461030e5780633838aed11461033957610204565b80630364f88c146102095780630fd8e83314610234578063150b7a021461023e578063154fa27a1461027b575b600080fd5b34801561021557600080fd5b5061021e61085a565b60405161022b9190612398565b60405180910390f35b61023c610880565b005b34801561024a57600080fd5b50610265600480360381019061026091906124a0565b610a2d565b6040516102729190612563565b60405180910390f35b34801561028757600080fd5b50610290610a6e565b60405161029d919061258d565b60405180910390f35b3480156102b257600080fd5b506102bb610a94565b6040516102c8919061258d565b60405180910390f35b3480156102dd57600080fd5b506102f860048036038101906102f391906125de565b610aba565b604051610305919061261a565b60405180910390f35b34801561031a57600080fd5b50610323610adc565b604051610330919061264e565b60405180910390f35b34801561034557600080fd5b5061034e610b28565b005b34801561035c57600080fd5b5061037760048036038101906103729190612669565b610b80565b6040516103849190612754565b60405180910390f35b34801561039957600080fd5b506103a2610beb565b6040516103af9190612791565b60405180910390f35b3480156103c457600080fd5b506103df60048036038101906103da9190612669565b610bfe565b005b3480156103ed57600080fd5b50610408600480360381019061040391906127ac565b610c23565b604051610415919061282f565b60405180910390f35b34801561042a57600080fd5b506104456004803603810190610440919061284a565b610c67565b6040516104529190612899565b60405180910390f35b34801561046757600080fd5b50610470610c89565b60405161047d91906128d5565b60405180910390f35b34801561049257600080fd5b5061049b610caf565b005b3480156104a957600080fd5b506104c460048036038101906104bf919061291c565b610cc3565b005b3480156104d257600080fd5b506104db610ce8565b005b3480156104e957600080fd5b5061050460048036038101906104ff9190612669565b610cea565b6040516105119190612899565b60405180910390f35b34801561052657600080fd5b50610541600480360381019061053c919061284a565b610d73565b60405161054e9190612899565b60405180910390f35b34801561056357600080fd5b5061056c610da4565b604051610579919061258d565b60405180910390f35b34801561058e57600080fd5b506105a960048036038101906105a49190612a56565b610dcd565b6040516105b69190612ad4565b60405180910390f35b3480156105cb57600080fd5b506105e660048036038101906105e19190612b1b565b610f40565b6040516105f3919061282f565b60405180910390f35b610604610f77565b005b610620600480360381019061061b9190612b6e565b61112f565b005b34801561062e57600080fd5b5061064960048036038101906106449190612bae565b611310565b005b34801561065757600080fd5b50610672600480360381019061066d9190612669565b611422565b60405161067f9190612e98565b60405180910390f35b34801561069457600080fd5b5061069d6116c7565b6040516106aa9190612899565b60405180910390f35b3480156106bf57600080fd5b506106da60048036038101906106d59190612669565b6116cd565b6040516106f29c9b9a99989796959493929190612ed8565b60405180910390f35b34801561070757600080fd5b5061071061178b565b60405161071d9190612899565b60405180910390f35b34801561073257600080fd5b5061074d60048036038101906107489190612f92565b6117dd565b60405161075a919061282f565b60405180910390f35b34801561076f57600080fd5b5061078a6004803603810190610785919061284a565b61186e565b6040516107979190612791565b60405180910390f35b3480156107ac57600080fd5b506107b56118fe565b6040516107c2919061258d565b60405180910390f35b3480156107d757600080fd5b506107f260048036038101906107ed9190612fd2565b611924565b005b34801561080057600080fd5b5061081b60048036038101906108169190612669565b6119a8565b005b34801561082957600080fd5b50610844600480360381019061083f9190612fff565b611b31565b6040516108519190612899565b60405180910390f35b600260009054906101000a900473ffffffffffffffffffffffffffffffffffffffff1681565b610888610da4565b73ffffffffffffffffffffffffffffffffffffffff163373ffffffffffffffffffffffffffffffffffffffff1614806108c2575060065434145b610901576040517f08c379a00000000000000000000000000000000000000000000000000000000081526004016108f89061309c565b60405180910390fd5b610909610da4565b73ffffffffffffffffffffffffffffffffffffffff163373ffffffffffffffffffffffffffffffffffffffff161480610955575060011515600760009054906101000a900460ff161515145b610994576040517f08c379a000000000000000000000000000000000000000000000000000000000815260040161098b90613108565b60405180910390fd5b61099c610da4565b73ffffffffffffffffffffffffffffffffffffffff163373ffffffffffffffffffffffffffffffffffffffff161480610a225750600360009054906101000a900473ffffffffffffffffffffffffffffffffffffffff1673ffffffffffffffffffffffffffffffffffffffff163373ffffffffffffffffffffffffffffffffffffffff16145b610a2b57600080fd5b565b60007f544c765b33ca411cce832250371569244f765a17fcd217832be093f0fd5fa45b60405160405180910390a163150b7a0260e01b905095945050505050565b600360009054906101000a900473ffffffffffffffffffffffffffffffffffffffff1681565b600560009054906101000a900473ffffffffffffffffffffffffffffffffffffffff1681565b600080821215610ad35781610ace90613157565b610ad5565b815b9050919050565b600060016000815480929190610af1906131a0565b91905055506001544233604051602001610b0d93929190613252565b60405160208183030381529060405280519060200120905090565b610b30611c52565b610b38610da4565b73ffffffffffffffffffffffffffffffffffffffff166108fc479081150290604051600060405180830381858888f19350505050158015610b7d573d6000803e3d6000fd5b50565b6060600a6000838152602001908152602001600020805480602002602001604051908101604052809291908181526020018280548015610bdf57602002820191906000526020600020905b815481526020019060010190808311610bcb575b50505050509050919050565b600760009054906101000a900460ff1681565b610c06611c52565b670de0b6b3a764000081610c1a919061328f565b60068190555050565b6000808585610c3291906132e9565b90506000838583610c43919061328f565b610c4d919061334c565b90508681610c5b919061337d565b92505050949350505050565b600081836004610c77919061328f565b610c81919061337d565b905092915050565b600460009054906101000a900473ffffffffffffffffffffffffffffffffffffffff1681565b610cb7611c52565b610cc16000611cd0565b565b610ccb611c52565b80600760006101000a81548160ff02191690831515021790555050565b565b600080821415610cfd5760019050610d6e565b6001821415610d0f5760009050610d6e565b6002821415610d215760039050610d6e565b6003821415610d335760029050610d6e565b6040517f08c379a0000000000000000000000000000000000000000000000000000000008152600401610d659061341f565b60405180910390fd5b919050565b600a6020528160005260406000208181548110610d8f57600080fd5b90600052602060002001600091509150505481565b60008060009054906101000a900473ffffffffffffffffffffffffffffffffffffffff16905090565b610dd5612266565b6000831415610e1457604051806040016040528060018460000151610dfa919061343f565b60ff168152602001836020015160ff168152509050610f3a565b6001831415610e5357604051806040016040528060018460000151610e399190613473565b60ff168152602001836020015160ff168152509050610f3a565b6002831415610e92576040518060400160405280836000015160ff16815260200160018460200151610e859190613473565b60ff168152509050610f3a565b6003831415610ed1576040518060400160405280836000015160ff16815260200160018460200151610ec4919061343f565b60ff168152509050610f3a565b6000610edc84611d94565b604051602001610eec919061354a565b6040516020818303038152906040529050806040517f08c379a0000000000000000000000000000000000000000000000000000000008152600401610f3191906135a9565b60405180910390fd5b92915050565b600080826001856002610f5391906136fe565b610f5d91906132e9565b60001b901b905082818616901c60001c9150509392505050565b610f7f610da4565b73ffffffffffffffffffffffffffffffffffffffff163373ffffffffffffffffffffffffffffffffffffffff161480610fb9575060065434145b610ff8576040517f08c379a0000000000000000000000000000000000000000000000000000000008152600401610fef9061309c565b60405180910390fd5b611000610da4565b73ffffffffffffffffffffffffffffffffffffffff163373ffffffffffffffffffffffffffffffffffffffff16148061104c575060011515600760009054906101000a900460ff161515145b61108b576040517f08c379a000000000000000000000000000000000000000000000000000000000815260040161108290613108565b60405180910390fd5b611093610da4565b73ffffffffffffffffffffffffffffffffffffffff163373ffffffffffffffffffffffffffffffffffffffff1614806111195750600360009054906101000a900473ffffffffffffffffffffffffffffffffffffffff1673ffffffffffffffffffffffffffffffffffffffff163373ffffffffffffffffffffffffffffffffffffffff16145b61112257600080fd5b61112d600033611ef5565b565b6000346006546040516020016111469291906137e1565b604051602081830303815290604052905061115f610da4565b73ffffffffffffffffffffffffffffffffffffffff163373ffffffffffffffffffffffffffffffffffffffff161480611199575060065434145b81906111db576040517f08c379a00000000000000000000000000000000000000000000000000000000081526004016111d291906135a9565b60405180910390fd5b506111e4610da4565b73ffffffffffffffffffffffffffffffffffffffff163373ffffffffffffffffffffffffffffffffffffffff16148061126a5750600360009054906101000a900473ffffffffffffffffffffffffffffffffffffffff1673ffffffffffffffffffffffffffffffffffffffff163373ffffffffffffffffffffffffffffffffffffffff16145b806112c25750600560009054906101000a900473ffffffffffffffffffffffffffffffffffffffff1673ffffffffffffffffffffffffffffffffffffffff163373ffffffffffffffffffffffffffffffffffffffff16145b611301576040517f08c379a00000000000000000000000000000000000000000000000000000000081526004016112f89061386f565b60405180910390fd5b61130b8383611ef5565b505050565b611318611c52565b83600260006101000a81548173ffffffffffffffffffffffffffffffffffffffff021916908373ffffffffffffffffffffffffffffffffffffffff16021790555082600360006101000a81548173ffffffffffffffffffffffffffffffffffffffff021916908373ffffffffffffffffffffffffffffffffffffffff16021790555081600460006101000a81548173ffffffffffffffffffffffffffffffffffffffff021916908373ffffffffffffffffffffffffffffffffffffffff16021790555080600560006101000a81548173ffffffffffffffffffffffffffffffffffffffff021916908373ffffffffffffffffffffffffffffffffffffffff16021790555050505050565b60606000600a600084815260200190815260200160002080549050905060008114156114a557600067ffffffffffffffff8111156114635761146261295f565b5b60405190808252806020026020018201604052801561149c57816020015b611489612286565b8152602001906001900390816114815790505b509150506116c2565b60008167ffffffffffffffff8111156114c1576114c061295f565b5b6040519080825280602002602001820160405280156114fa57816020015b6114e7612286565b8152602001906001900390816114df5790505b50905060005b81518110156116bb576009600a600087815260200190815260200160002082815481106115305761152f61388f565b5b90600052602060002001548154811061154c5761154b61388f565b5b9060005260206000209060070201604051806101800160405290816000820154815260200160018201548152602001600282015481526020016003820154815260200160048201548152602001600582015481526020016006820160009054906101000a900460ff1660028111156115c7576115c6612c50565b5b60028111156115d9576115d8612c50565b5b81526020016006820160019054906101000a900460ff1660ff1660ff1681526020016006820160029054906101000a900460ff1660ff1660ff1681526020016006820160039054906101000a900460ff16600381111561163c5761163b612c50565b5b600381111561164e5761164d612c50565b5b81526020016006820160049054906101000a900460ff1660ff1660ff1681526020016006820160059054906101000a900460ff16151515158152505082828151811061169d5761169c61388f565b5b602002602001018190525080806116b3906131a0565b915050611500565b5080925050505b919050565b60065481565b600981815481106116dd57600080fd5b90600052602060002090600702016000915090508060000154908060010154908060020154908060030154908060040154908060050154908060060160009054906101000a900460ff16908060060160019054906101000a900460ff16908060060160029054906101000a900460ff16908060060160039054906101000a900460ff16908060060160049054906101000a900460ff16908060060160059054906101000a900460ff1690508c565b60008061179a600160066117dd565b60ff1690507f095cdc619082b4591c96a4dcfd31737c0f7d768edeb74d7cda25aba2eefe7268816040516117ce9190612899565b60405180910390a18091505090565b6000600160008154809291906117f2906131a0565b919050555060003360015442604051602001611810939291906138be565b6040516020818303038152906040528051906020012060001c905060006001858561183b919061343f565b6118459190613473565b90508460ff168160ff168361185a91906138fb565b611864919061337d565b9250505092915050565b60008061187961178b565b90507f5d360683067536056d2d530278a59b1f5c60a2affe207338479da0f44feda76d8185856040516118ae9392919061392c565b60405180910390a160018114156118c95760009150506118f8565b60038385836118d8919061337d565b6118e29190613963565b13156118f25760019150506118f8565b60009150505b92915050565b600760019054906101000a900473ffffffffffffffffffffffffffffffffffffffff1681565b61192c611c52565b600073ffffffffffffffffffffffffffffffffffffffff168173ffffffffffffffffffffffffffffffffffffffff16141561199c576040517f08c379a000000000000000000000000000000000000000000000000000000000815260040161199390613a69565b60405180910390fd5b6119a581611cd0565b50565b600360009054906101000a900473ffffffffffffffffffffffffffffffffffffffff1673ffffffffffffffffffffffffffffffffffffffff163373ffffffffffffffffffffffffffffffffffffffff1614611a38576040517f08c379a0000000000000000000000000000000000000000000000000000000008152600401611a2f90613ad5565b60405180910390fd5b600060098281548110611a4e57611a4d61388f565b5b906000526020600020906007020160030181905550600060098281548110611a7957611a7861388f565b5b906000526020600020906007020160060160056101000a81548160ff021916908315150217905550600460009054906101000a900473ffffffffffffffffffffffffffffffffffffffff1673ffffffffffffffffffffffffffffffffffffffff166342966c68826040518263ffffffff1660e01b8152600401611afc9190612899565b600060405180830381600087803b158015611b1657600080fd5b505af1158015611b2a573d6000803e3d6000fd5b5050505050565b6000600182600001518460000151611b499190613b02565b60000b1415611b5b5760009050611c4c565b7fffffffffffffffffffffffffffffffffffffffffffffffffffffffffffffffff82600001518460000151611b909190613b02565b60000b1415611ba25760019050611c4c565b7fffffffffffffffffffffffffffffffffffffffffffffffffffffffffffffffff82602001518460200151611bd79190613b02565b60000b1415611be95760029050611c4c565b600182602001518460200151611bff9190613b02565b60000b1415611c115760039050611c4c565b6040517f08c379a0000000000000000000000000000000000000000000000000000000008152600401611c4390613bc3565b60405180910390fd5b92915050565b611c5a61221d565b73ffffffffffffffffffffffffffffffffffffffff16611c78610da4565b73ffffffffffffffffffffffffffffffffffffffff1614611cce576040517f08c379a0000000000000000000000000000000000000000000000000000000008152600401611cc590613c2f565b60405180910390fd5b565b60008060009054906101000a900473ffffffffffffffffffffffffffffffffffffffff169050816000806101000a81548173ffffffffffffffffffffffffffffffffffffffff021916908373ffffffffffffffffffffffffffffffffffffffff1602179055508173ffffffffffffffffffffffffffffffffffffffff168173ffffffffffffffffffffffffffffffffffffffff167f8be0079c531659141344cd1fd0a4f28419497f9722a3daafe3b4186f6b6457e060405160405180910390a35050565b60606000821415611ddc576040518060400160405280600181526020017f30000000000000000000000000000000000000000000000000000000000000008152509050611ef0565b600082905060005b60008214611e0e578080611df7906131a0565b915050600a82611e07919061334c565b9150611de4565b60008167ffffffffffffffff811115611e2a57611e2961295f565b5b6040519080825280601f01601f191660200182016040528015611e5c5781602001600182028036833780820191505090505b5090505b60008514611ee957600182611e7591906132e9565b9150600a85611e8491906138fb565b6030611e90919061337d565b60f81b818381518110611ea657611ea561388f565b5b60200101907effffffffffffffffffffffffffffffffffffffffffffffffffffffffffffff1916908160001a905350600a85611ee2919061334c565b9450611e60565b8093505050505b919050565b6000600460009054906101000a900473ffffffffffffffffffffffffffffffffffffffff1673ffffffffffffffffffffffffffffffffffffffff16639b6507f064174876e80060046000866040518563ffffffff1660e01b8152600401611f5e93929190613cc5565b60206040518083038185885af1158015611f7c573d6000803e3d6000fd5b50505050506040513d601f19601f82011682018060405250810190611fa19190613d11565b90506000600460009054906101000a900473ffffffffffffffffffffffffffffffffffffffff1673ffffffffffffffffffffffffffffffffffffffff166328518381836040518263ffffffff1660e01b81526004016120009190612899565b602060405180830381865afa15801561201d573d6000803e3d6000fd5b505050506040513d601f19601f820116820180604052508101906120419190613d53565b9050600060096001816001815401808255809150500390600052602060002090600702019050818160000181905550600160098054905061208291906132e9565b81600101819055508281600201819055508481600301819055506001816004018190555060008160050181905550600b6120c98360046120c460016000610c67565b610f40565b60ff1610156120d95760016120dc565b60025b8160060160006101000a81548160ff0219169083600281111561210257612101612c50565b5b021790555060008160060160016101000a81548160ff021916908360ff16021790555060008160060160026101000a81548160ff021916908360ff16021790555061216561215d83600461215860006001610c67565b610f40565b60ff16612225565b8160060160036101000a81548160ff0219169083600381111561218b5761218a612c50565b5b021790555060018160060160046101000a81548160ff021916908360ff16021790555060018160060160056101000a81548160ff021916908315150217905550600a600086815260200190815260200160002060016009805490506121f091906132e9565b90806001815401808255809150506001900390600052602060002001600090919091909150555050505050565b600033905090565b6000808214156122385760009050612261565b600082141561224a5760009050612261565b600082141561225c5760029050612261565b600390505b919050565b6040518060400160405280600060ff168152602001600060ff1681525090565b604051806101800160405280600080191681526020016000815260200160008152602001600081526020016000815260200160008152602001600060028111156122d3576122d2612c50565b5b8152602001600060ff168152602001600060ff16815260200160006003811115612300576122ff612c50565b5b8152602001600060ff1681526020016000151581525090565b600073ffffffffffffffffffffffffffffffffffffffff82169050919050565b6000819050919050565b600061235e61235961235484612319565b612339565b612319565b9050919050565b600061237082612343565b9050919050565b600061238282612365565b9050919050565b61239281612377565b82525050565b60006020820190506123ad6000830184612389565b92915050565b6000604051905090565b600080fd5b600080fd5b60006123d282612319565b9050919050565b6123e2816123c7565b81146123ed57600080fd5b50565b6000813590506123ff816123d9565b92915050565b6000819050919050565b61241881612405565b811461242357600080fd5b50565b6000813590506124358161240f565b92915050565b600080fd5b600080fd5b600080fd5b60008083601f8401126124605761245f61243b565b5b8235905067ffffffffffffffff81111561247d5761247c612440565b5b60208301915083600182028301111561249957612498612445565b5b9250929050565b6000806000806000608086880312156124bc576124bb6123bd565b5b60006124ca888289016123f0565b95505060206124db888289016123f0565b94505060406124ec88828901612426565b935050606086013567ffffffffffffffff81111561250d5761250c6123c2565b5b6125198882890161244a565b92509250509295509295909350565b60007fffffffff0000000000000000000000000000000000000000000000000000000082169050919050565b61255d81612528565b82525050565b60006020820190506125786000830184612554565b92915050565b612587816123c7565b82525050565b60006020820190506125a2600083018461257e565b92915050565b6000819050919050565b6125bb816125a8565b81146125c657600080fd5b50565b6000813590506125d8816125b2565b92915050565b6000602082840312156125f4576125f36123bd565b5b6000612602848285016125c9565b91505092915050565b612614816125a8565b82525050565b600060208201905061262f600083018461260b565b92915050565b6000819050919050565b61264881612635565b82525050565b6000602082019050612663600083018461263f565b92915050565b60006020828403121561267f5761267e6123bd565b5b600061268d84828501612426565b91505092915050565b600081519050919050565b600082825260208201905092915050565b6000819050602082019050919050565b6126cb81612405565b82525050565b60006126dd83836126c2565b60208301905092915050565b6000602082019050919050565b600061270182612696565b61270b81856126a1565b9350612716836126b2565b8060005b8381101561274757815161272e88826126d1565b9750612739836126e9565b92505060018101905061271a565b5085935050505092915050565b6000602082019050818103600083015261276e81846126f6565b905092915050565b60008115159050919050565b61278b81612776565b82525050565b60006020820190506127a66000830184612782565b92915050565b600080600080608085870312156127c6576127c56123bd565b5b60006127d487828801612426565b94505060206127e587828801612426565b93505060406127f687828801612426565b925050606061280787828801612426565b91505092959194509250565b600060ff82169050919050565b61282981612813565b82525050565b60006020820190506128446000830184612820565b92915050565b60008060408385031215612861576128606123bd565b5b600061286f85828601612426565b925050602061288085828601612426565b9150509250929050565b61289381612405565b82525050565b60006020820190506128ae600083018461288a565b92915050565b60006128bf82612365565b9050919050565b6128cf816128b4565b82525050565b60006020820190506128ea60008301846128c6565b92915050565b6128f981612776565b811461290457600080fd5b50565b600081359050612916816128f0565b92915050565b600060208284031215612932576129316123bd565b5b600061294084828501612907565b91505092915050565b600080fd5b6000601f19601f8301169050919050565b7f4e487b7100000000000000000000000000000000000000000000000000000000600052604160045260246000fd5b6129978261294e565b810181811067ffffffffffffffff821117156129b6576129b561295f565b5b80604052505050565b60006129c96123b3565b90506129d5828261298e565b919050565b6129e381612813565b81146129ee57600080fd5b50565b600081359050612a00816129da565b92915050565b600060408284031215612a1c57612a1b612949565b5b612a2660406129bf565b90506000612a36848285016129f1565b6000830152506020612a4a848285016129f1565b60208301525092915050565b60008060608385031215612a6d57612a6c6123bd565b5b6000612a7b85828601612426565b9250506020612a8c85828601612a06565b9150509250929050565b612a9f81612813565b82525050565b604082016000820151612abb6000850182612a96565b506020820151612ace6020850182612a96565b50505050565b6000604082019050612ae96000830184612aa5565b92915050565b612af881612635565b8114612b0357600080fd5b50565b600081359050612b1581612aef565b92915050565b600080600060608486031215612b3457612b336123bd565b5b6000612b4286828701612b06565b9350506020612b5386828701612426565b9250506040612b6486828701612426565b9150509250925092565b60008060408385031215612b8557612b846123bd565b5b6000612b9385828601612426565b9250506020612ba4858286016123f0565b9150509250929050565b60008060008060808587031215612bc857612bc76123bd565b5b6000612bd6878288016123f0565b9450506020612be7878288016123f0565b9350506040612bf8878288016123f0565b9250506060612c09878288016123f0565b91505092959194509250565b600081519050919050565b600082825260208201905092915050565b6000819050602082019050919050565b612c4a81612635565b82525050565b7f4e487b7100000000000000000000000000000000000000000000000000000000600052602160045260246000fd5b60038110612c9057612c8f612c50565b5b50565b6000819050612ca182612c7f565b919050565b6000612cb182612c93565b9050919050565b612cc181612ca6565b82525050565b60048110612cd857612cd7612c50565b5b50565b6000819050612ce982612cc7565b919050565b6000612cf982612cdb565b9050919050565b612d0981612cee565b82525050565b612d1881612776565b82525050565b61018082016000820151612d356000850182612c41565b506020820151612d4860208501826126c2565b506040820151612d5b60408501826126c2565b506060820151612d6e60608501826126c2565b506080820151612d8160808501826126c2565b5060a0820151612d9460a08501826126c2565b5060c0820151612da760c0850182612cb8565b5060e0820151612dba60e0850182612a96565b50610100820151612dcf610100850182612a96565b50610120820151612de4610120850182612d00565b50610140820151612df9610140850182612a96565b50610160820151612e0e610160850182612d0f565b50505050565b6000612e208383612d1e565b6101808301905092915050565b6000602082019050919050565b6000612e4582612c15565b612e4f8185612c20565b9350612e5a83612c31565b8060005b83811015612e8b578151612e728882612e14565b9750612e7d83612e2d565b925050600181019050612e5e565b5085935050505092915050565b60006020820190508181036000830152612eb28184612e3a565b905092915050565b612ec381612ca6565b82525050565b612ed281612cee565b82525050565b600061018082019050612eee600083018f61263f565b612efb602083018e61288a565b612f08604083018d61288a565b612f15606083018c61288a565b612f22608083018b61288a565b612f2f60a083018a61288a565b612f3c60c0830189612eba565b612f4960e0830188612820565b612f57610100830187612820565b612f65610120830186612ec9565b612f73610140830185612820565b612f81610160830184612782565b9d9c50505050505050505050505050565b60008060408385031215612fa957612fa86123bd565b5b6000612fb7858286016129f1565b9250506020612fc8858286016129f1565b9150509250929050565b600060208284031215612fe857612fe76123bd565b5b6000612ff6848285016123f0565b91505092915050565b60008060808385031215613016576130156123bd565b5b600061302485828601612a06565b925050604061303585828601612a06565b9150509250929050565b600082825260208201905092915050565b7f496e636f7272656374207061796d656e74000000000000000000000000000000600082015250565b600061308660118361303f565b915061309182613050565b602082019050919050565b600060208201905081810360008301526130b581613079565b9050919050565b7f4d696e74696e67206973206e6f74206163746976650000000000000000000000600082015250565b60006130f260158361303f565b91506130fd826130bc565b602082019050919050565b60006020820190508181036000830152613121816130e5565b9050919050565b7f4e487b7100000000000000000000000000000000000000000000000000000000600052601160045260246000fd5b6000613162826125a8565b91507f800000000000000000000000000000000000000000000000000000000000000082141561319557613194613128565b5b816000039050919050565b60006131ab82612405565b91507fffffffffffffffffffffffffffffffffffffffffffffffffffffffffffffffff8214156131de576131dd613128565b5b600182019050919050565b6000819050919050565b6132046131ff82612405565b6131e9565b82525050565b60008160601b9050919050565b60006132228261320a565b9050919050565b600061323482613217565b9050919050565b61324c613247826123c7565b613229565b82525050565b600061325e82866131f3565b60208201915061326e82856131f3565b60208201915061327e828461323b565b601482019150819050949350505050565b600061329a82612405565b91506132a583612405565b9250817fffffffffffffffffffffffffffffffffffffffffffffffffffffffffffffffff04831182151516156132de576132dd613128565b5b828202905092915050565b60006132f482612405565b91506132ff83612405565b92508282101561331257613311613128565b5b828203905092915050565b7f4e487b7100000000000000000000000000000000000000000000000000000000600052601260045260246000fd5b600061335782612405565b915061336283612405565b9250826133725761337161331d565b5b828204905092915050565b600061338882612405565b915061339383612405565b9250827fffffffffffffffffffffffffffffffffffffffffffffffffffffffffffffffff038211156133c8576133c7613128565b5b828201905092915050565b7f42616420646972656374696f6e00000000000000000000000000000000000000600082015250565b6000613409600d8361303f565b9150613414826133d3565b602082019050919050565b60006020820190508181036000830152613438816133fc565b9050919050565b600061344a82612813565b915061345583612813565b92508282101561346857613467613128565b5b828203905092915050565b600061347e82612813565b915061348983612813565b92508260ff0382111561349f5761349e613128565b5b828201905092915050565b7f496e76616c696420646972656374696f6e3a2000000000000000000000000000815250565b600081519050919050565b600081905092915050565b60005b838110156135045780820151818401526020810190506134e9565b83811115613513576000848401525b50505050565b6000613524826134d0565b61352e81856134db565b935061353e8185602086016134e6565b80840191505092915050565b6000613555826134aa565b6013820191506135658284613519565b915081905092915050565b600061357b826134d0565b613585818561303f565b93506135958185602086016134e6565b61359e8161294e565b840191505092915050565b600060208201905081810360008301526135c38184613570565b905092915050565b60008160011c9050919050565b6000808291508390505b6001851115613622578086048111156135fe576135fd613128565b5b600185161561360d5780820291505b808102905061361b856135cb565b94506135e2565b94509492505050565b60008261363b57600190506136f7565b8161364957600090506136f7565b816001811461365f576002811461366957613698565b60019150506136f7565b60ff84111561367b5761367a613128565b5b8360020a91508482111561369257613691613128565b5b506136f7565b5060208310610133831016604e8410600b84101617156136cd5782820a9050838111156136c8576136c7613128565b5b6136f7565b6136da84848460016135d8565b925090508184048111156136f1576136f0613128565b5b81810290505b9392505050565b600061370982612405565b915061371483612405565b92506137417fffffffffffffffffffffffffffffffffffffffffffffffffffffffffffffffff848461362b565b905092915050565b7f50617965643a2000000000000000000000000000000000000000000000000000600082015250565b600061377f6007836134db565b915061378a82613749565b600782019050919050565b7f2c20636f73742069733a20000000000000000000000000000000000000000000600082015250565b60006137cb600b836134db565b91506137d682613795565b600b82019050919050565b60006137ec82613772565b91506137f882856131f3565b602082019150613807826137be565b915061381382846131f3565b6020820191508190509392505050565b7f436f6e7472616374206e6f7420616c6c6f776564000000000000000000000000600082015250565b600061385960148361303f565b915061386482613823565b602082019050919050565b600060208201905081810360008301526138888161384c565b9050919050565b7f4e487b7100000000000000000000000000000000000000000000000000000000600052603260045260246000fd5b60006138ca828661323b565b6014820191506138da82856131f3565b6020820191506138ea82846131f3565b602082019150819050949350505050565b600061390682612405565b915061391183612405565b9250826139215761392061331d565b5b828206905092915050565b6000606082019050613941600083018661288a565b61394e602083018561288a565b61395b604083018461288a565b949350505050565b600061396e826125a8565b9150613979836125a8565b9250827f8000000000000000000000000000000000000000000000000000000000000000018212600084121516156139b4576139b3613128565b5b827f7fffffffffffffffffffffffffffffffffffffffffffffffffffffffffffffff0182136000841216156139ec576139eb613128565b5b828203905092915050565b7f4f776e61626c653a206e6577206f776e657220697320746865207a65726f206160008201527f6464726573730000000000000000000000000000000000000000000000000000602082015250565b6000613a5360268361303f565b9150613a5e826139f7565b604082019050919050565b60006020820190508181036000830152613a8281613a46565b9050919050565b7f4e6f742067616d6520636f6e7472616374000000000000000000000000000000600082015250565b6000613abf60118361303f565b9150613aca82613a89565b602082019050919050565b60006020820190508181036000830152613aee81613ab2565b9050919050565b60008160000b9050919050565b6000613b0d82613af5565b9150613b1883613af5565b9250827fffffffffffffffffffffffffffffffffffffffffffffffffffffffffffffff8001821260008412151615613b5357613b52613128565b5b82607f018213600084121615613b6c57613b6b613128565b5b828203905092915050565b7f4572726f723a204e6f742061646a6163656e7400000000000000000000000000600082015250565b6000613bad60138361303f565b9150613bb882613b77565b602082019050919050565b60006020820190508181036000830152613bdc81613ba0565b9050919050565b7f4f776e61626c653a2063616c6c6572206973206e6f7420746865206f776e6572600082015250565b6000613c1960208361303f565b9150613c2482613be3565b602082019050919050565b60006020820190508181036000830152613c4881613c0c565b9050919050565b6000819050919050565b6000613c74613c6f613c6a84613c4f565b612339565b612405565b9050919050565b613c8481613c59565b82525050565b6000819050919050565b6000613caf613caa613ca584613c8a565b612339565b612405565b9050919050565b613cbf81613c94565b82525050565b6000606082019050613cda6000830186613c7b565b613ce76020830185613cb6565b613cf4604083018461257e565b949350505050565b600081519050613d0b8161240f565b92915050565b600060208284031215613d2757613d266123bd565b5b6000613d3584828501613cfc565b91505092915050565b600081519050613d4d81612aef565b92915050565b600060208284031215613d6957613d686123bd565b5b6000613d7784828501613d3e565b9150509291505056fea2646970667358221220897442da270a744137f51b08ba9870748087fad3a7f3e09e07e77fc081ef223264736f6c634300080c0033",
  "devdoc": {
    "kind": "dev",
    "methods": {
      "owner()": {
        "details": "Returns the address of the current owner."
      },
      "renounceOwnership()": {
        "details": "Leaves the contract without owner. It will not be possible to call `onlyOwner` functions anymore. Can only be called by the current owner. NOTE: Renouncing ownership will leave the contract without an owner, thereby removing any functionality that is only available to the owner."
      },
      "transferOwnership(address)": {
        "details": "Transfers ownership of the contract to a new account (`newOwner`). Can only be called by the current owner."
      }
    },
    "version": 1
  },
  "userdoc": {
    "kind": "user",
    "methods": {},
    "version": 1
  },
  "storageLayout": {
    "storage": [
      {
        "astId": 7,
        "contract": "contracts/BCItems.sol:BCItems",
        "label": "_owner",
        "offset": 0,
        "slot": "0",
        "type": "t_address"
      },
      {
        "astId": 1339,
        "contract": "contracts/BCItems.sol:BCItems",
        "label": "TODO_randomSeed",
        "offset": 0,
        "slot": "1",
        "type": "t_uint256"
      },
      {
        "astId": 442,
        "contract": "contracts/BCItems.sol:BCItems",
        "label": "lobbies",
        "offset": 0,
        "slot": "2",
        "type": "t_contract(LobbyInterface)386"
      },
      {
        "astId": 444,
        "contract": "contracts/BCItems.sol:BCItems",
        "label": "gamesContract",
        "offset": 0,
        "slot": "3",
        "type": "t_address"
      },
      {
        "astId": 447,
        "contract": "contracts/BCItems.sol:BCItems",
        "label": "uif",
        "offset": 0,
        "slot": "4",
        "type": "t_contract(UIFInterface)433"
      },
      {
        "astId": 449,
        "contract": "contracts/BCItems.sol:BCItems",
        "label": "actionsContract",
        "offset": 0,
        "slot": "5",
        "type": "t_address"
      },
      {
        "astId": 486,
        "contract": "contracts/BCItems.sol:BCItems",
        "label": "mintCost",
        "offset": 0,
        "slot": "6",
        "type": "t_uint256"
      },
      {
        "astId": 489,
        "contract": "contracts/BCItems.sol:BCItems",
        "label": "mintIsActive",
        "offset": 0,
        "slot": "7",
        "type": "t_bool"
      },
      {
        "astId": 493,
        "contract": "contracts/BCItems.sol:BCItems",
        "label": "allowedContract",
        "offset": 1,
        "slot": "7",
        "type": "t_address"
      },
      {
        "astId": 496,
        "contract": "contracts/BCItems.sol:BCItems",
        "label": "randSeed",
        "offset": 0,
        "slot": "8",
        "type": "t_uint256"
      },
      {
        "astId": 500,
        "contract": "contracts/BCItems.sol:BCItems",
        "label": "items",
        "offset": 0,
        "slot": "9",
        "type": "t_array(t_struct(Item)1315_storage)dyn_storage"
      },
      {
        "astId": 505,
        "contract": "contracts/BCItems.sol:BCItems",
        "label": "playerToItems",
        "offset": 0,
        "slot": "10",
        "type": "t_mapping(t_uint256,t_array(t_uint256)dyn_storage)"
      },
      {
        "astId": 509,
        "contract": "contracts/BCItems.sol:BCItems",
        "label": "itemTraitModifiers",
        "offset": 0,
        "slot": "11",
        "type": "t_array(t_struct(Traits)1259_storage)dyn_storage"
      }
    ],
    "types": {
      "t_address": {
        "encoding": "inplace",
        "label": "address",
        "numberOfBytes": "20"
      },
      "t_array(t_struct(Item)1315_storage)dyn_storage": {
        "base": "t_struct(Item)1315_storage",
        "encoding": "dynamic_array",
        "label": "struct BCTypes.Item[]",
        "numberOfBytes": "32"
      },
      "t_array(t_struct(Traits)1259_storage)dyn_storage": {
        "base": "t_struct(Traits)1259_storage",
        "encoding": "dynamic_array",
        "label": "struct BCTypes.Traits[]",
        "numberOfBytes": "32"
      },
      "t_array(t_uint256)dyn_storage": {
        "base": "t_uint256",
        "encoding": "dynamic_array",
        "label": "uint256[]",
        "numberOfBytes": "32"
      },
      "t_bool": {
        "encoding": "inplace",
        "label": "bool",
        "numberOfBytes": "1"
      },
      "t_bytes32": {
        "encoding": "inplace",
        "label": "bytes32",
        "numberOfBytes": "32"
      },
      "t_contract(LobbyInterface)386": {
        "encoding": "inplace",
        "label": "contract LobbyInterface",
        "numberOfBytes": "20"
      },
      "t_contract(UIFInterface)433": {
        "encoding": "inplace",
        "label": "contract UIFInterface",
        "numberOfBytes": "20"
      },
      "t_enum(ItemCategory)1283": {
        "encoding": "inplace",
        "label": "enum BCTypes.ItemCategory",
        "numberOfBytes": "1"
      },
      "t_enum(ItemType)1288": {
        "encoding": "inplace",
        "label": "enum BCTypes.ItemType",
        "numberOfBytes": "1"
      },
      "t_int8": {
        "encoding": "inplace",
        "label": "int8",
        "numberOfBytes": "1"
      },
      "t_mapping(t_uint256,t_array(t_uint256)dyn_storage)": {
        "encoding": "mapping",
        "key": "t_uint256",
        "label": "mapping(uint256 => uint256[])",
        "numberOfBytes": "32",
        "value": "t_array(t_uint256)dyn_storage"
      },
      "t_struct(Item)1315_storage": {
        "encoding": "inplace",
        "label": "struct BCTypes.Item",
        "members": [
          {
            "astId": 1290,
            "contract": "contracts/BCItems.sol:BCItems",
            "label": "genHash",
            "offset": 0,
            "slot": "0",
            "type": "t_bytes32"
          },
          {
            "astId": 1292,
            "contract": "contracts/BCItems.sol:BCItems",
            "label": "id",
            "offset": 0,
            "slot": "1",
            "type": "t_uint256"
          },
          {
            "astId": 1294,
            "contract": "contracts/BCItems.sol:BCItems",
            "label": "uifID",
            "offset": 0,
            "slot": "2",
            "type": "t_uint256"
          },
          {
            "astId": 1296,
            "contract": "contracts/BCItems.sol:BCItems",
            "label": "holdingPlayerId",
            "offset": 0,
            "slot": "3",
            "type": "t_uint256"
          },
          {
            "astId": 1298,
            "contract": "contracts/BCItems.sol:BCItems",
            "label": "weight",
            "offset": 0,
            "slot": "4",
            "type": "t_uint256"
          },
          {
            "astId": 1300,
            "contract": "contracts/BCItems.sol:BCItems",
            "label": "traitModID",
            "offset": 0,
            "slot": "5",
            "type": "t_uint256"
          },
          {
            "astId": 1303,
            "contract": "contracts/BCItems.sol:BCItems",
            "label": "itemCategory",
            "offset": 0,
            "slot": "6",
            "type": "t_enum(ItemCategory)1283"
          },
          {
            "astId": 1305,
            "contract": "contracts/BCItems.sol:BCItems",
            "label": "grantsAbility",
            "offset": 1,
            "slot": "6",
            "type": "t_uint8"
          },
          {
            "astId": 1307,
            "contract": "contracts/BCItems.sol:BCItems",
            "label": "grantsFlaw",
            "offset": 2,
            "slot": "6",
            "type": "t_uint8"
          },
          {
            "astId": 1310,
            "contract": "contracts/BCItems.sol:BCItems",
            "label": "itemType",
            "offset": 3,
            "slot": "6",
            "type": "t_enum(ItemType)1288"
          },
          {
            "astId": 1312,
            "contract": "contracts/BCItems.sol:BCItems",
            "label": "power",
            "offset": 4,
            "slot": "6",
            "type": "t_uint8"
          },
          {
            "astId": 1314,
            "contract": "contracts/BCItems.sol:BCItems",
            "label": "inGame",
            "offset": 5,
            "slot": "6",
            "type": "t_bool"
          }
        ],
        "numberOfBytes": "224"
      },
      "t_struct(Traits)1259_storage": {
        "encoding": "inplace",
        "label": "struct BCTypes.Traits",
        "members": [
          {
            "astId": 1246,
            "contract": "contracts/BCItems.sol:BCItems",
            "label": "health",
            "offset": 0,
            "slot": "0",
            "type": "t_int8"
          },
          {
            "astId": 1248,
            "contract": "contracts/BCItems.sol:BCItems",
            "label": "carry",
            "offset": 1,
            "slot": "0",
            "type": "t_int8"
          },
          {
            "astId": 1250,
            "contract": "contracts/BCItems.sol:BCItems",
            "label": "defense",
            "offset": 2,
            "slot": "0",
            "type": "t_int8"
          },
          {
            "astId": 1252,
            "contract": "contracts/BCItems.sol:BCItems",
            "label": "hack",
            "offset": 3,
            "slot": "0",
            "type": "t_int8"
          },
          {
            "astId": 1254,
            "contract": "contracts/BCItems.sol:BCItems",
            "label": "breach",
            "offset": 4,
            "slot": "0",
            "type": "t_int8"
          },
          {
            "astId": 1256,
            "contract": "contracts/BCItems.sol:BCItems",
            "label": "shoot",
            "offset": 5,
            "slot": "0",
            "type": "t_int8"
          },
          {
            "astId": 1258,
            "contract": "contracts/BCItems.sol:BCItems",
            "label": "melee",
            "offset": 6,
            "slot": "0",
            "type": "t_int8"
          }
        ],
        "numberOfBytes": "32"
      },
      "t_uint256": {
        "encoding": "inplace",
        "label": "uint256",
        "numberOfBytes": "32"
      },
      "t_uint8": {
        "encoding": "inplace",
        "label": "uint8",
        "numberOfBytes": "1"
      }
    }
  }
}