{
  "address": "0xB5728e7c5f2EfB9D5d28Eb32cD1478823c4b85ab",
  "abi": [
    {
      "inputs": [],
      "stateMutability": "nonpayable",
      "type": "constructor"
    },
    {
      "anonymous": false,
      "inputs": [
        {
          "indexed": false,
          "internalType": "uint256",
          "name": "gameId",
          "type": "uint256"
        },
        {
          "indexed": false,
          "internalType": "uint256",
          "name": "roll",
          "type": "uint256"
        },
        {
          "indexed": false,
          "internalType": "uint256",
          "name": "forValue",
          "type": "uint256"
        },
        {
          "indexed": false,
          "internalType": "uint256",
          "name": "against",
          "type": "uint256"
        }
      ],
      "name": "ChallengeEvent",
      "type": "event"
    },
    {
      "anonymous": false,
      "inputs": [
        {
          "indexed": false,
          "internalType": "uint256",
          "name": "gameId",
          "type": "uint256"
        },
        {
          "indexed": false,
          "internalType": "uint256",
          "name": "roll",
          "type": "uint256"
        }
      ],
      "name": "DiceRollEvent",
      "type": "event"
    },
    {
      "anonymous": false,
      "inputs": [
        {
          "indexed": true,
          "internalType": "address",
          "name": "previousOwner",
          "type": "address"
        },
        {
          "indexed": true,
          "internalType": "address",
          "name": "newOwner",
          "type": "address"
        }
      ],
      "name": "OwnershipTransferred",
      "type": "event"
    },
    {
      "anonymous": false,
      "inputs": [],
      "name": "Received",
      "type": "event"
    },
    {
      "inputs": [
        {
          "internalType": "uint256",
          "name": "_matic",
          "type": "uint256"
        }
      ],
      "name": "SetMintCostInMatic",
      "outputs": [],
      "stateMutability": "nonpayable",
      "type": "function"
    },
    {
      "inputs": [
        {
          "internalType": "int256",
          "name": "x",
          "type": "int256"
        }
      ],
      "name": "abs",
      "outputs": [
        {
          "internalType": "int256",
          "name": "",
          "type": "int256"
        }
      ],
      "stateMutability": "pure",
      "type": "function"
    },
    {
      "inputs": [],
      "name": "actionsContract",
      "outputs": [
        {
          "internalType": "address",
          "name": "",
          "type": "address"
        }
      ],
      "stateMutability": "view",
      "type": "function"
    },
    {
      "inputs": [],
      "name": "allowedContract",
      "outputs": [
        {
          "internalType": "address",
          "name": "",
          "type": "address"
        }
      ],
      "stateMutability": "view",
      "type": "function"
    },
    {
      "inputs": [],
      "name": "commitItemToMission",
      "outputs": [],
      "stateMutability": "nonpayable",
      "type": "function"
    },
    {
      "inputs": [
        {
          "internalType": "uint256",
          "name": "_itemId",
          "type": "uint256"
        }
      ],
      "name": "destroyItem",
      "outputs": [],
      "stateMutability": "nonpayable",
      "type": "function"
    },
    {
      "inputs": [],
      "name": "gamesContract",
      "outputs": [
        {
          "internalType": "address",
          "name": "",
          "type": "address"
        }
      ],
      "stateMutability": "view",
      "type": "function"
    },
    {
      "inputs": [
        {
          "components": [
            {
              "internalType": "uint8",
              "name": "row",
              "type": "uint8"
            },
            {
              "internalType": "uint8",
              "name": "col",
              "type": "uint8"
            }
          ],
          "internalType": "struct BCTypes.Position",
          "name": "_firstRoom",
          "type": "tuple"
        },
        {
          "components": [
            {
              "internalType": "uint8",
              "name": "row",
              "type": "uint8"
            },
            {
              "internalType": "uint8",
              "name": "col",
              "type": "uint8"
            }
          ],
          "internalType": "struct BCTypes.Position",
          "name": "_secondRoom",
          "type": "tuple"
        }
      ],
      "name": "getDirectionBetween",
      "outputs": [
        {
          "internalType": "uint256",
          "name": "",
          "type": "uint256"
        }
      ],
      "stateMutability": "pure",
      "type": "function"
    },
    {
      "inputs": [
        {
          "internalType": "uint256",
          "name": "_playerID",
          "type": "uint256"
        }
      ],
      "name": "getItemIDsByPlayer",
      "outputs": [
        {
          "internalType": "uint256[]",
          "name": "",
          "type": "uint256[]"
        }
      ],
      "stateMutability": "view",
      "type": "function"
    },
    {
      "inputs": [
        {
          "internalType": "uint256",
          "name": "_playerID",
          "type": "uint256"
        }
      ],
      "name": "getItemsByPlayer",
      "outputs": [
        {
          "components": [
            {
              "internalType": "bytes32",
              "name": "genHash",
              "type": "bytes32"
            },
            {
              "internalType": "uint256",
              "name": "id",
              "type": "uint256"
            },
            {
              "internalType": "uint256",
              "name": "uifID",
              "type": "uint256"
            },
            {
              "internalType": "uint256",
              "name": "holdingPlayerId",
              "type": "uint256"
            },
            {
              "internalType": "uint256",
              "name": "weight",
              "type": "uint256"
            },
            {
              "internalType": "uint256",
              "name": "traitModID",
              "type": "uint256"
            },
            {
              "internalType": "enum BCTypes.ItemCategory",
              "name": "itemCategory",
              "type": "uint8"
            },
            {
              "internalType": "uint8",
              "name": "grantsAbility",
              "type": "uint8"
            },
            {
              "internalType": "uint8",
              "name": "grantsFlaw",
              "type": "uint8"
            },
            {
              "internalType": "enum BCTypes.ItemType",
              "name": "itemType",
              "type": "uint8"
            },
            {
              "internalType": "uint8",
              "name": "power",
              "type": "uint8"
            },
            {
              "internalType": "bool",
              "name": "inGame",
              "type": "bool"
            }
          ],
          "internalType": "struct BCTypes.Item[]",
          "name": "",
          "type": "tuple[]"
        }
      ],
      "stateMutability": "view",
      "type": "function"
    },
    {
      "inputs": [
        {
          "internalType": "uint256",
          "name": "_direction",
          "type": "uint256"
        },
        {
          "components": [
            {
              "internalType": "uint8",
              "name": "row",
              "type": "uint8"
            },
            {
              "internalType": "uint8",
              "name": "col",
              "type": "uint8"
            }
          ],
          "internalType": "struct BCTypes.Position",
          "name": "_start",
          "type": "tuple"
        }
      ],
      "name": "getNeighborRoom",
      "outputs": [
        {
          "components": [
            {
              "internalType": "uint8",
              "name": "row",
              "type": "uint8"
            },
            {
              "internalType": "uint8",
              "name": "col",
              "type": "uint8"
            }
          ],
          "internalType": "struct BCTypes.Position",
          "name": "",
          "type": "tuple"
        }
      ],
      "stateMutability": "pure",
      "type": "function"
    },
    {
      "inputs": [
        {
          "internalType": "uint256",
          "name": "_traitNum",
          "type": "uint256"
        },
        {
          "internalType": "uint256",
          "name": "_subTraitNum",
          "type": "uint256"
        }
      ],
      "name": "getUIOffset",
      "outputs": [
        {
          "internalType": "uint256",
          "name": "",
          "type": "uint256"
        }
      ],
      "stateMutability": "pure",
      "type": "function"
    },
    {
      "inputs": [
        {
          "internalType": "uint256",
          "name": "",
          "type": "uint256"
        }
      ],
      "name": "items",
      "outputs": [
        {
          "internalType": "bytes32",
          "name": "genHash",
          "type": "bytes32"
        },
        {
          "internalType": "uint256",
          "name": "id",
          "type": "uint256"
        },
        {
          "internalType": "uint256",
          "name": "uifID",
          "type": "uint256"
        },
        {
          "internalType": "uint256",
          "name": "holdingPlayerId",
          "type": "uint256"
        },
        {
          "internalType": "uint256",
          "name": "weight",
          "type": "uint256"
        },
        {
          "internalType": "uint256",
          "name": "traitModID",
          "type": "uint256"
        },
        {
          "internalType": "enum BCTypes.ItemCategory",
          "name": "itemCategory",
          "type": "uint8"
        },
        {
          "internalType": "uint8",
          "name": "grantsAbility",
          "type": "uint8"
        },
        {
          "internalType": "uint8",
          "name": "grantsFlaw",
          "type": "uint8"
        },
        {
          "internalType": "enum BCTypes.ItemType",
          "name": "itemType",
          "type": "uint8"
        },
        {
          "internalType": "uint8",
          "name": "power",
          "type": "uint8"
        },
        {
          "internalType": "bool",
          "name": "inGame",
          "type": "bool"
        }
      ],
      "stateMutability": "view",
      "type": "function"
    },
    {
      "inputs": [],
      "name": "lobbies",
      "outputs": [
        {
          "internalType": "contract LobbyInterface",
          "name": "",
          "type": "address"
        }
      ],
      "stateMutability": "view",
      "type": "function"
    },
    {
      "inputs": [
        {
          "internalType": "uint256",
          "name": "_holdingPlayerId",
          "type": "uint256"
        },
        {
          "internalType": "address",
          "name": "_holderAddress",
          "type": "address"
        }
      ],
      "name": "lootItem",
      "outputs": [],
      "stateMutability": "payable",
      "type": "function"
    },
    {
      "inputs": [],
      "name": "mintCost",
      "outputs": [
        {
          "internalType": "uint256",
          "name": "",
          "type": "uint256"
        }
      ],
      "stateMutability": "view",
      "type": "function"
    },
    {
      "inputs": [],
      "name": "mintIsActive",
      "outputs": [
        {
          "internalType": "bool",
          "name": "",
          "type": "bool"
        }
      ],
      "stateMutability": "view",
      "type": "function"
    },
    {
      "inputs": [
        {
          "internalType": "uint256",
          "name": "_min",
          "type": "uint256"
        },
        {
          "internalType": "uint256",
          "name": "_max",
          "type": "uint256"
        },
        {
          "internalType": "uint256",
          "name": "_val",
          "type": "uint256"
        },
        {
          "internalType": "uint256",
          "name": "_valMax",
          "type": "uint256"
        }
      ],
      "name": "normalizeToSmallRange",
      "outputs": [
        {
          "internalType": "uint8",
          "name": "",
          "type": "uint8"
        }
      ],
      "stateMutability": "pure",
      "type": "function"
    },
    {
      "inputs": [
        {
          "internalType": "address",
          "name": "_operator",
          "type": "address"
        },
        {
          "internalType": "address",
          "name": "_from",
          "type": "address"
        },
        {
          "internalType": "uint256",
          "name": "_tokenId",
          "type": "uint256"
        },
        {
          "internalType": "bytes",
          "name": "_data",
          "type": "bytes"
        }
      ],
      "name": "onERC721Received",
      "outputs": [
        {
          "internalType": "bytes4",
          "name": "",
          "type": "bytes4"
        }
      ],
      "stateMutability": "nonpayable",
      "type": "function"
    },
    {
      "inputs": [
        {
          "internalType": "uint256",
          "name": "_direction",
          "type": "uint256"
        }
      ],
      "name": "opposite",
      "outputs": [
        {
          "internalType": "uint256",
          "name": "",
          "type": "uint256"
        }
      ],
      "stateMutability": "pure",
      "type": "function"
    },
    {
      "inputs": [],
      "name": "owner",
      "outputs": [
        {
          "internalType": "address",
          "name": "",
          "type": "address"
        }
      ],
      "stateMutability": "view",
      "type": "function"
    },
    {
      "inputs": [
        {
          "internalType": "uint256",
          "name": "",
          "type": "uint256"
        },
        {
          "internalType": "uint256",
          "name": "",
          "type": "uint256"
        }
      ],
      "name": "playerToItems",
      "outputs": [
        {
          "internalType": "uint256",
          "name": "",
          "type": "uint256"
        }
      ],
      "stateMutability": "view",
      "type": "function"
    },
    {
      "inputs": [],
      "name": "randKeccak",
      "outputs": [
        {
          "internalType": "bytes32",
          "name": "",
          "type": "bytes32"
        }
      ],
      "stateMutability": "nonpayable",
      "type": "function"
    },
    {
      "inputs": [],
      "name": "renounceOwnership",
      "outputs": [],
      "stateMutability": "nonpayable",
      "type": "function"
    },
    {
      "inputs": [
        {
          "internalType": "uint256",
          "name": "_gameId",
          "type": "uint256"
        },
        {
          "internalType": "uint256",
          "name": "_for",
          "type": "uint256"
        },
        {
          "internalType": "uint256",
          "name": "_against",
          "type": "uint256"
        }
      ],
      "name": "resolveChallenge",
      "outputs": [
        {
          "internalType": "bool",
          "name": "",
          "type": "bool"
        }
      ],
      "stateMutability": "nonpayable",
      "type": "function"
    },
    {
      "inputs": [
        {
          "internalType": "uint256",
          "name": "_gameId",
          "type": "uint256"
        }
      ],
      "name": "roll",
      "outputs": [
        {
          "internalType": "uint256",
          "name": "",
          "type": "uint256"
        }
      ],
      "stateMutability": "nonpayable",
      "type": "function"
    },
    {
      "inputs": [
        {
          "internalType": "address",
          "name": "_lobbyContractAddress",
          "type": "address"
        },
        {
          "internalType": "address",
          "name": "_gameContract",
          "type": "address"
        },
        {
          "internalType": "address",
          "name": "_UIFAddress",
          "type": "address"
        },
        {
          "internalType": "address",
          "name": "_actionsContract",
          "type": "address"
        }
      ],
      "name": "setContractAddresses",
      "outputs": [],
      "stateMutability": "nonpayable",
      "type": "function"
    },
    {
      "inputs": [
        {
          "internalType": "bool",
          "name": "_status",
          "type": "bool"
        }
      ],
      "name": "setMintingStatus",
      "outputs": [],
      "stateMutability": "nonpayable",
      "type": "function"
    },
    {
      "inputs": [
        {
          "internalType": "bytes32",
          "name": "_hash",
          "type": "bytes32"
        },
        {
          "internalType": "uint256",
          "name": "_size",
          "type": "uint256"
        },
        {
          "internalType": "uint256",
          "name": "_offset",
          "type": "uint256"
        }
      ],
      "name": "sliceHashToSmallInt",
      "outputs": [
        {
          "internalType": "uint8",
          "name": "",
          "type": "uint8"
        }
      ],
      "stateMutability": "pure",
      "type": "function"
    },
    {
      "inputs": [
        {
          "internalType": "uint8",
          "name": "_min",
          "type": "uint8"
        },
        {
          "internalType": "uint8",
          "name": "_max",
          "type": "uint8"
        }
      ],
      "name": "smallIntBetweenVals",
      "outputs": [
        {
          "internalType": "uint8",
          "name": "",
          "type": "uint8"
        }
      ],
      "stateMutability": "nonpayable",
      "type": "function"
    },
    {
      "inputs": [],
      "name": "spawnCompanyItem",
      "outputs": [],
      "stateMutability": "payable",
      "type": "function"
    },
    {
      "inputs": [],
      "name": "spawnItem",
      "outputs": [],
      "stateMutability": "payable",
      "type": "function"
    },
    {
      "inputs": [],
      "name": "transferFundsOut",
      "outputs": [],
      "stateMutability": "nonpayable",
      "type": "function"
    },
    {
      "inputs": [
        {
          "internalType": "address",
          "name": "newOwner",
          "type": "address"
        }
      ],
      "name": "transferOwnership",
      "outputs": [],
      "stateMutability": "nonpayable",
      "type": "function"
    },
    {
      "inputs": [],
      "name": "uif",
      "outputs": [
        {
          "internalType": "contract UIFInterface",
          "name": "",
          "type": "address"
        }
      ],
      "stateMutability": "view",
      "type": "function"
    }
  ],
  "transactionHash": "0x929d1285f35107ffe2d54c62341a072b5a2b31ecbc269090d37f715c2e77794f",
  "args": [],
  "numDeployments": 2,
  "solcInputHash": "b8f0c7d5da28a8474dbe47fb7941425d",
  "bytecode": "0x6080604052600060015564174876e8006006556001600760006101000a81548160ff02191690831515021790555060006008553480156200003f57600080fd5b5062000060620000546200008360201b60201c565b6200008b60201b60201c565b600b6001816001815401808255809150500390600052602060002050506200014f565b600033905090565b60008060009054906101000a900473ffffffffffffffffffffffffffffffffffffffff169050816000806101000a81548173ffffffffffffffffffffffffffffffffffffffff021916908373ffffffffffffffffffffffffffffffffffffffff1602179055508173ffffffffffffffffffffffffffffffffffffffff168173ffffffffffffffffffffffffffffffffffffffff167f8be0079c531659141344cd1fd0a4f28419497f9722a3daafe3b4186f6b6457e060405160405180910390a35050565b613d94806200015f6000396000f3fe6080604052600436106102045760003560e01c80637420aa3611610118578063aaa68777116100a0578063ce28613f1161006f578063ce28613f14610775578063e89d5a89146107b2578063f2fde38b146107dd578063f7c8af4814610806578063fa3993c21461082f57610204565b8063aaa687771461069c578063b78e6651146106c5578063bdb4b84814610702578063bfb231d21461072d57610204565b80638da5cb5b116100e75780638da5cb5b146105d1578063951fc3fe146105fc57806397f34c3f14610639578063a20df9fa14610676578063aa3eb1b51461068057610204565b80637420aa361461051757806376c8aa27146105405780638214f222146105575780638ac031b31461059457610204565b80633838aed11161019b578063530116961161016a578063530116961461041e5780635dc969671461045b57806364db84bf14610498578063705498dc146104d5578063715018a61461050057610204565b80633838aed1146103765780633841fae11461038d578063471a4294146103ca578063501f9784146103f557610204565b8063185ae9dc116101d7578063185ae9dc146102a65780631b5ac4b5146102d15780631e1de2051461030e5780631f7b4f301461033957610204565b80630364f88c146102095780630fd8e83314610234578063150b7a021461023e578063154fa27a1461027b575b600080fd5b34801561021557600080fd5b5061021e61086c565b60405161022b919061239f565b60405180910390f35b61023c610892565b005b34801561024a57600080fd5b50610265600480360381019061026091906124a7565b610a3f565b604051610272919061256a565b60405180910390f35b34801561028757600080fd5b50610290610a80565b60405161029d9190612594565b60405180910390f35b3480156102b257600080fd5b506102bb610aa6565b6040516102c89190612594565b60405180910390f35b3480156102dd57600080fd5b506102f860048036038101906102f391906125e5565b610acc565b6040516103059190612621565b60405180910390f35b34801561031a57600080fd5b50610323610aee565b6040516103309190612655565b60405180910390f35b34801561034557600080fd5b50610360600480360381019061035b9190612670565b610b3a565b60405161036d91906126ac565b60405180910390f35b34801561038257600080fd5b5061038b610b90565b005b34801561039957600080fd5b506103b460048036038101906103af9190612670565b610be8565b6040516103c19190612785565b60405180910390f35b3480156103d657600080fd5b506103df610c53565b6040516103ec91906127c2565b60405180910390f35b34801561040157600080fd5b5061041c60048036038101906104179190612670565b610c66565b005b34801561042a57600080fd5b50610445600480360381019061044091906127dd565b610c8b565b6040516104529190612860565b60405180910390f35b34801561046757600080fd5b50610482600480360381019061047d919061287b565b610ccf565b60405161048f91906127c2565b60405180910390f35b3480156104a457600080fd5b506104bf60048036038101906104ba91906128ce565b610d62565b6040516104cc91906126ac565b60405180910390f35b3480156104e157600080fd5b506104ea610d84565b6040516104f7919061292f565b60405180910390f35b34801561050c57600080fd5b50610515610daa565b005b34801561052357600080fd5b5061053e60048036038101906105399190612976565b610dbe565b005b34801561054c57600080fd5b50610555610de3565b005b34801561056357600080fd5b5061057e60048036038101906105799190612670565b610de5565b60405161058b91906126ac565b60405180910390f35b3480156105a057600080fd5b506105bb60048036038101906105b691906128ce565b610e6a565b6040516105c891906126ac565b60405180910390f35b3480156105dd57600080fd5b506105e6610e9b565b6040516105f39190612594565b60405180910390f35b34801561060857600080fd5b50610623600480360381019061061e9190612ab0565b610ec4565b6040516106309190612b2e565b60405180910390f35b34801561064557600080fd5b50610660600480360381019061065b9190612b75565b611033565b60405161066d9190612860565b60405180910390f35b61067e61106a565b005b61069a60048036038101906106959190612bc8565b611222565b005b3480156106a857600080fd5b506106c360048036038101906106be9190612c08565b611403565b005b3480156106d157600080fd5b506106ec60048036038101906106e79190612670565b611515565b6040516106f99190612ef2565b60405180910390f35b34801561070e57600080fd5b506107176117b9565b60405161072491906126ac565b60405180910390f35b34801561073957600080fd5b50610754600480360381019061074f9190612670565b6117bf565b60405161076c9c9b9a99989796959493929190612f32565b60405180910390f35b34801561078157600080fd5b5061079c60048036038101906107979190612fec565b61187d565b6040516107a99190612860565b60405180910390f35b3480156107be57600080fd5b506107c761190e565b6040516107d49190612594565b60405180910390f35b3480156107e957600080fd5b5061080460048036038101906107ff919061302c565b611934565b005b34801561081257600080fd5b5061082d60048036038101906108289190612670565b6119b7565b005b34801561083b57600080fd5b5061085660048036038101906108519190613059565b611b40565b60405161086391906126ac565b60405180910390f35b600260009054906101000a900473ffffffffffffffffffffffffffffffffffffffff1681565b61089a610e9b565b73ffffffffffffffffffffffffffffffffffffffff163373ffffffffffffffffffffffffffffffffffffffff1614806108d4575060065434145b610913576040517f08c379a000000000000000000000000000000000000000000000000000000000815260040161090a906130f6565b60405180910390fd5b61091b610e9b565b73ffffffffffffffffffffffffffffffffffffffff163373ffffffffffffffffffffffffffffffffffffffff161480610967575060011515600760009054906101000a900460ff161515145b6109a6576040517f08c379a000000000000000000000000000000000000000000000000000000000815260040161099d90613162565b60405180910390fd5b6109ae610e9b565b73ffffffffffffffffffffffffffffffffffffffff163373ffffffffffffffffffffffffffffffffffffffff161480610a345750600360009054906101000a900473ffffffffffffffffffffffffffffffffffffffff1673ffffffffffffffffffffffffffffffffffffffff163373ffffffffffffffffffffffffffffffffffffffff16145b610a3d57600080fd5b565b60007f544c765b33ca411cce832250371569244f765a17fcd217832be093f0fd5fa45b60405160405180910390a163150b7a0260e01b905095945050505050565b600360009054906101000a900473ffffffffffffffffffffffffffffffffffffffff1681565b600560009054906101000a900473ffffffffffffffffffffffffffffffffffffffff1681565b600080821215610ae55781610ae0906131b1565b610ae7565b815b9050919050565b600060016000815480929190610b03906131f9565b91905055506001544233604051602001610b1f939291906132aa565b60405160208183030381529060405280519060200120905090565b600080610b496001600661187d565b60ff1690507ffe34d093a460a16ee5fb374540914d1c734a17502c0c1a87b387c8d6097e1c518382604051610b7f9291906132e7565b60405180910390a180915050919050565b610b98611c5d565b610ba0610e9b565b73ffffffffffffffffffffffffffffffffffffffff166108fc479081150290604051600060405180830381858888f19350505050158015610be5573d6000803e3d6000fd5b50565b6060600a6000838152602001908152602001600020805480602002602001604051908101604052809291908181526020018280548015610c4757602002820191906000526020600020905b815481526020019060010190808311610c33575b50505050509050919050565b600760009054906101000a900460ff1681565b610c6e611c5d565b670de0b6b3a764000081610c829190613310565b60068190555050565b6000808585610c9a9190613352565b90506000838583610cab9190613310565b610cb591906133b5565b90508681610cc391906133e6565b92505050949350505050565b600080610cdb85610b3a565b90507f75b6a8325595f91135e07382840634226793c68c9e59623da7e10d7ad3d95b9585828686604051610d12949392919061341a565b60405180910390a160018103610d2c576000915050610d5b565b6003838583610d3b91906133e6565b610d45919061345f565b1315610d55576001915050610d5b565b60009150505b9392505050565b600081836004610d729190613310565b610d7c91906133e6565b905092915050565b600460009054906101000a900473ffffffffffffffffffffffffffffffffffffffff1681565b610db2611c5d565b610dbc6000611cdb565b565b610dc6611c5d565b80600760006101000a81548160ff02191690831515021790555050565b565b6000808203610df75760019050610e65565b60018203610e085760009050610e65565b60028203610e195760039050610e65565b60038203610e2a5760029050610e65565b6040517f08c379a0000000000000000000000000000000000000000000000000000000008152600401610e5c906134ee565b60405180910390fd5b919050565b600a6020528160005260406000208181548110610e8657600080fd5b90600052602060002001600091509150505481565b60008060009054906101000a900473ffffffffffffffffffffffffffffffffffffffff16905090565b610ecc61226d565b60008303610f0a57604051806040016040528060018460000151610ef0919061350e565b60ff168152602001836020015160ff16815250905061102d565b60018303610f4857604051806040016040528060018460000151610f2e9190613543565b60ff168152602001836020015160ff16815250905061102d565b60028303610f86576040518060400160405280836000015160ff16815260200160018460200151610f799190613543565b60ff16815250905061102d565b60038303610fc4576040518060400160405280836000015160ff16815260200160018460200151610fb7919061350e565b60ff16815250905061102d565b6000610fcf84611d9f565b604051602001610fdf919061360f565b6040516020818303038152906040529050806040517f08c379a0000000000000000000000000000000000000000000000000000000008152600401611024919061366e565b60405180910390fd5b92915050565b60008082600185600261104691906137c3565b6110509190613352565b60001b901b905082818616901c60001c9150509392505050565b611072610e9b565b73ffffffffffffffffffffffffffffffffffffffff163373ffffffffffffffffffffffffffffffffffffffff1614806110ac575060065434145b6110eb576040517f08c379a00000000000000000000000000000000000000000000000000000000081526004016110e2906130f6565b60405180910390fd5b6110f3610e9b565b73ffffffffffffffffffffffffffffffffffffffff163373ffffffffffffffffffffffffffffffffffffffff16148061113f575060011515600760009054906101000a900460ff161515145b61117e576040517f08c379a000000000000000000000000000000000000000000000000000000000815260040161117590613162565b60405180910390fd5b611186610e9b565b73ffffffffffffffffffffffffffffffffffffffff163373ffffffffffffffffffffffffffffffffffffffff16148061120c5750600360009054906101000a900473ffffffffffffffffffffffffffffffffffffffff1673ffffffffffffffffffffffffffffffffffffffff163373ffffffffffffffffffffffffffffffffffffffff16145b61121557600080fd5b611220600033611eff565b565b6000346006546040516020016112399291906138a6565b6040516020818303038152906040529050611252610e9b565b73ffffffffffffffffffffffffffffffffffffffff163373ffffffffffffffffffffffffffffffffffffffff16148061128c575060065434145b81906112ce576040517f08c379a00000000000000000000000000000000000000000000000000000000081526004016112c5919061366e565b60405180910390fd5b506112d7610e9b565b73ffffffffffffffffffffffffffffffffffffffff163373ffffffffffffffffffffffffffffffffffffffff16148061135d5750600360009054906101000a900473ffffffffffffffffffffffffffffffffffffffff1673ffffffffffffffffffffffffffffffffffffffff163373ffffffffffffffffffffffffffffffffffffffff16145b806113b55750600560009054906101000a900473ffffffffffffffffffffffffffffffffffffffff1673ffffffffffffffffffffffffffffffffffffffff163373ffffffffffffffffffffffffffffffffffffffff16145b6113f4576040517f08c379a00000000000000000000000000000000000000000000000000000000081526004016113eb90613934565b60405180910390fd5b6113fe8383611eff565b505050565b61140b611c5d565b83600260006101000a81548173ffffffffffffffffffffffffffffffffffffffff021916908373ffffffffffffffffffffffffffffffffffffffff16021790555082600360006101000a81548173ffffffffffffffffffffffffffffffffffffffff021916908373ffffffffffffffffffffffffffffffffffffffff16021790555081600460006101000a81548173ffffffffffffffffffffffffffffffffffffffff021916908373ffffffffffffffffffffffffffffffffffffffff16021790555080600560006101000a81548173ffffffffffffffffffffffffffffffffffffffff021916908373ffffffffffffffffffffffffffffffffffffffff16021790555050505050565b60606000600a60008481526020019081526020016000208054905090506000810361159757600067ffffffffffffffff811115611555576115546129b9565b5b60405190808252806020026020018201604052801561158e57816020015b61157b61228d565b8152602001906001900390816115735790505b509150506117b4565b60008167ffffffffffffffff8111156115b3576115b26129b9565b5b6040519080825280602002602001820160405280156115ec57816020015b6115d961228d565b8152602001906001900390816115d15790505b50905060005b81518110156117ad576009600a6000878152602001908152602001600020828154811061162257611621613954565b5b90600052602060002001548154811061163e5761163d613954565b5b9060005260206000209060070201604051806101800160405290816000820154815260200160018201548152602001600282015481526020016003820154815260200160048201548152602001600582015481526020016006820160009054906101000a900460ff1660028111156116b9576116b8612caa565b5b60028111156116cb576116ca612caa565b5b81526020016006820160019054906101000a900460ff1660ff1660ff1681526020016006820160029054906101000a900460ff1660ff1660ff1681526020016006820160039054906101000a900460ff16600381111561172e5761172d612caa565b5b60038111156117405761173f612caa565b5b81526020016006820160049054906101000a900460ff1660ff1660ff1681526020016006820160059054906101000a900460ff16151515158152505082828151811061178f5761178e613954565b5b602002602001018190525080806117a5906131f9565b9150506115f2565b5080925050505b919050565b60065481565b600981815481106117cf57600080fd5b90600052602060002090600702016000915090508060000154908060010154908060020154908060030154908060040154908060050154908060060160009054906101000a900460ff16908060060160019054906101000a900460ff16908060060160029054906101000a900460ff16908060060160039054906101000a900460ff16908060060160049054906101000a900460ff16908060060160059054906101000a900460ff1690508c565b600060016000815480929190611892906131f9565b9190505550600033600154426040516020016118b093929190613983565b6040516020818303038152906040528051906020012060001c90506000600185856118db919061350e565b6118e59190613543565b90508460ff168160ff16836118fa91906139c0565b61190491906133e6565b9250505092915050565b600760019054906101000a900473ffffffffffffffffffffffffffffffffffffffff1681565b61193c611c5d565b600073ffffffffffffffffffffffffffffffffffffffff168173ffffffffffffffffffffffffffffffffffffffff16036119ab576040517f08c379a00000000000000000000000000000000000000000000000000000000081526004016119a290613a63565b60405180910390fd5b6119b481611cdb565b50565b600360009054906101000a900473ffffffffffffffffffffffffffffffffffffffff1673ffffffffffffffffffffffffffffffffffffffff163373ffffffffffffffffffffffffffffffffffffffff1614611a47576040517f08c379a0000000000000000000000000000000000000000000000000000000008152600401611a3e90613acf565b60405180910390fd5b600060098281548110611a5d57611a5c613954565b5b906000526020600020906007020160030181905550600060098281548110611a8857611a87613954565b5b906000526020600020906007020160060160056101000a81548160ff021916908315150217905550600460009054906101000a900473ffffffffffffffffffffffffffffffffffffffff1673ffffffffffffffffffffffffffffffffffffffff166342966c68826040518263ffffffff1660e01b8152600401611b0b91906126ac565b600060405180830381600087803b158015611b2557600080fd5b505af1158015611b39573d6000803e3d6000fd5b5050505050565b6000600182600001518460000151611b589190613afc565b60000b03611b695760009050611c57565b7fffffffffffffffffffffffffffffffffffffffffffffffffffffffffffffffff82600001518460000151611b9e9190613afc565b60000b03611baf5760019050611c57565b7fffffffffffffffffffffffffffffffffffffffffffffffffffffffffffffffff82602001518460200151611be49190613afc565b60000b03611bf55760029050611c57565b600182602001518460200151611c0b9190613afc565b60000b03611c1c5760039050611c57565b6040517f08c379a0000000000000000000000000000000000000000000000000000000008152600401611c4e90613ba1565b60405180910390fd5b92915050565b611c65612227565b73ffffffffffffffffffffffffffffffffffffffff16611c83610e9b565b73ffffffffffffffffffffffffffffffffffffffff1614611cd9576040517f08c379a0000000000000000000000000000000000000000000000000000000008152600401611cd090613c0d565b60405180910390fd5b565b60008060009054906101000a900473ffffffffffffffffffffffffffffffffffffffff169050816000806101000a81548173ffffffffffffffffffffffffffffffffffffffff021916908373ffffffffffffffffffffffffffffffffffffffff1602179055508173ffffffffffffffffffffffffffffffffffffffff168173ffffffffffffffffffffffffffffffffffffffff167f8be0079c531659141344cd1fd0a4f28419497f9722a3daafe3b4186f6b6457e060405160405180910390a35050565b606060008203611de6576040518060400160405280600181526020017f30000000000000000000000000000000000000000000000000000000000000008152509050611efa565b600082905060005b60008214611e18578080611e01906131f9565b915050600a82611e1191906133b5565b9150611dee565b60008167ffffffffffffffff811115611e3457611e336129b9565b5b6040519080825280601f01601f191660200182016040528015611e665781602001600182028036833780820191505090505b5090505b60008514611ef357600182611e7f9190613352565b9150600a85611e8e91906139c0565b6030611e9a91906133e6565b60f81b818381518110611eb057611eaf613954565b5b60200101907effffffffffffffffffffffffffffffffffffffffffffffffffffffffffffff1916908160001a905350600a85611eec91906133b5565b9450611e6a565b8093505050505b919050565b6000600460009054906101000a900473ffffffffffffffffffffffffffffffffffffffff1673ffffffffffffffffffffffffffffffffffffffff16639b6507f064174876e80060046000866040518563ffffffff1660e01b8152600401611f6893929190613ca3565b60206040518083038185885af1158015611f86573d6000803e3d6000fd5b50505050506040513d601f19601f82011682018060405250810190611fab9190613cef565b90506000600460009054906101000a900473ffffffffffffffffffffffffffffffffffffffff1673ffffffffffffffffffffffffffffffffffffffff166328518381836040518263ffffffff1660e01b815260040161200a91906126ac565b602060405180830381865afa158015612027573d6000803e3d6000fd5b505050506040513d601f19601f8201168201806040525081019061204b9190613d31565b9050600060096001816001815401808255809150500390600052602060002090600702019050818160000181905550600160098054905061208c9190613352565b81600101819055508281600201819055508481600301819055506001816004018190555060008160050181905550600b6120d38360046120ce60016000610d62565b611033565b60ff1610156120e35760016120e6565b60025b8160060160006101000a81548160ff0219169083600281111561210c5761210b612caa565b5b021790555060008160060160016101000a81548160ff021916908360ff16021790555060008160060160026101000a81548160ff021916908360ff16021790555061216f61216783600461216260006001610d62565b611033565b60ff1661222f565b8160060160036101000a81548160ff0219169083600381111561219557612194612caa565b5b021790555060018160060160046101000a81548160ff021916908360ff16021790555060018160060160056101000a81548160ff021916908315150217905550600a600086815260200190815260200160002060016009805490506121fa9190613352565b90806001815401808255809150506001900390600052602060002001600090919091909150555050505050565b600033905090565b60008082036122415760009050612268565b600082036122525760009050612268565b600082036122635760029050612268565b600390505b919050565b6040518060400160405280600060ff168152602001600060ff1681525090565b604051806101800160405280600080191681526020016000815260200160008152602001600081526020016000815260200160008152602001600060028111156122da576122d9612caa565b5b8152602001600060ff168152602001600060ff1681526020016000600381111561230757612306612caa565b5b8152602001600060ff1681526020016000151581525090565b600073ffffffffffffffffffffffffffffffffffffffff82169050919050565b6000819050919050565b600061236561236061235b84612320565b612340565b612320565b9050919050565b60006123778261234a565b9050919050565b60006123898261236c565b9050919050565b6123998161237e565b82525050565b60006020820190506123b46000830184612390565b92915050565b6000604051905090565b600080fd5b600080fd5b60006123d982612320565b9050919050565b6123e9816123ce565b81146123f457600080fd5b50565b600081359050612406816123e0565b92915050565b6000819050919050565b61241f8161240c565b811461242a57600080fd5b50565b60008135905061243c81612416565b92915050565b600080fd5b600080fd5b600080fd5b60008083601f84011261246757612466612442565b5b8235905067ffffffffffffffff81111561248457612483612447565b5b6020830191508360018202830111156124a05761249f61244c565b5b9250929050565b6000806000806000608086880312156124c3576124c26123c4565b5b60006124d1888289016123f7565b95505060206124e2888289016123f7565b94505060406124f38882890161242d565b935050606086013567ffffffffffffffff811115612514576125136123c9565b5b61252088828901612451565b92509250509295509295909350565b60007fffffffff0000000000000000000000000000000000000000000000000000000082169050919050565b6125648161252f565b82525050565b600060208201905061257f600083018461255b565b92915050565b61258e816123ce565b82525050565b60006020820190506125a96000830184612585565b92915050565b6000819050919050565b6125c2816125af565b81146125cd57600080fd5b50565b6000813590506125df816125b9565b92915050565b6000602082840312156125fb576125fa6123c4565b5b6000612609848285016125d0565b91505092915050565b61261b816125af565b82525050565b60006020820190506126366000830184612612565b92915050565b6000819050919050565b61264f8161263c565b82525050565b600060208201905061266a6000830184612646565b92915050565b600060208284031215612686576126856123c4565b5b60006126948482850161242d565b91505092915050565b6126a68161240c565b82525050565b60006020820190506126c1600083018461269d565b92915050565b600081519050919050565b600082825260208201905092915050565b6000819050602082019050919050565b6126fc8161240c565b82525050565b600061270e83836126f3565b60208301905092915050565b6000602082019050919050565b6000612732826126c7565b61273c81856126d2565b9350612747836126e3565b8060005b8381101561277857815161275f8882612702565b975061276a8361271a565b92505060018101905061274b565b5085935050505092915050565b6000602082019050818103600083015261279f8184612727565b905092915050565b60008115159050919050565b6127bc816127a7565b82525050565b60006020820190506127d760008301846127b3565b92915050565b600080600080608085870312156127f7576127f66123c4565b5b60006128058782880161242d565b94505060206128168782880161242d565b93505060406128278782880161242d565b92505060606128388782880161242d565b91505092959194509250565b600060ff82169050919050565b61285a81612844565b82525050565b60006020820190506128756000830184612851565b92915050565b600080600060608486031215612894576128936123c4565b5b60006128a28682870161242d565b93505060206128b38682870161242d565b92505060406128c48682870161242d565b9150509250925092565b600080604083850312156128e5576128e46123c4565b5b60006128f38582860161242d565b92505060206129048582860161242d565b9150509250929050565b60006129198261236c565b9050919050565b6129298161290e565b82525050565b60006020820190506129446000830184612920565b92915050565b612953816127a7565b811461295e57600080fd5b50565b6000813590506129708161294a565b92915050565b60006020828403121561298c5761298b6123c4565b5b600061299a84828501612961565b91505092915050565b600080fd5b6000601f19601f8301169050919050565b7f4e487b7100000000000000000000000000000000000000000000000000000000600052604160045260246000fd5b6129f1826129a8565b810181811067ffffffffffffffff82111715612a1057612a0f6129b9565b5b80604052505050565b6000612a236123ba565b9050612a2f82826129e8565b919050565b612a3d81612844565b8114612a4857600080fd5b50565b600081359050612a5a81612a34565b92915050565b600060408284031215612a7657612a756129a3565b5b612a806040612a19565b90506000612a9084828501612a4b565b6000830152506020612aa484828501612a4b565b60208301525092915050565b60008060608385031215612ac757612ac66123c4565b5b6000612ad58582860161242d565b9250506020612ae685828601612a60565b9150509250929050565b612af981612844565b82525050565b604082016000820151612b156000850182612af0565b506020820151612b286020850182612af0565b50505050565b6000604082019050612b436000830184612aff565b92915050565b612b528161263c565b8114612b5d57600080fd5b50565b600081359050612b6f81612b49565b92915050565b600080600060608486031215612b8e57612b8d6123c4565b5b6000612b9c86828701612b60565b9350506020612bad8682870161242d565b9250506040612bbe8682870161242d565b9150509250925092565b60008060408385031215612bdf57612bde6123c4565b5b6000612bed8582860161242d565b9250506020612bfe858286016123f7565b9150509250929050565b60008060008060808587031215612c2257612c216123c4565b5b6000612c30878288016123f7565b9450506020612c41878288016123f7565b9350506040612c52878288016123f7565b9250506060612c63878288016123f7565b91505092959194509250565b600081519050919050565b600082825260208201905092915050565b6000819050602082019050919050565b612ca48161263c565b82525050565b7f4e487b7100000000000000000000000000000000000000000000000000000000600052602160045260246000fd5b60038110612cea57612ce9612caa565b5b50565b6000819050612cfb82612cd9565b919050565b6000612d0b82612ced565b9050919050565b612d1b81612d00565b82525050565b60048110612d3257612d31612caa565b5b50565b6000819050612d4382612d21565b919050565b6000612d5382612d35565b9050919050565b612d6381612d48565b82525050565b612d72816127a7565b82525050565b61018082016000820151612d8f6000850182612c9b565b506020820151612da260208501826126f3565b506040820151612db560408501826126f3565b506060820151612dc860608501826126f3565b506080820151612ddb60808501826126f3565b5060a0820151612dee60a08501826126f3565b5060c0820151612e0160c0850182612d12565b5060e0820151612e1460e0850182612af0565b50610100820151612e29610100850182612af0565b50610120820151612e3e610120850182612d5a565b50610140820151612e53610140850182612af0565b50610160820151612e68610160850182612d69565b50505050565b6000612e7a8383612d78565b6101808301905092915050565b6000602082019050919050565b6000612e9f82612c6f565b612ea98185612c7a565b9350612eb483612c8b565b8060005b83811015612ee5578151612ecc8882612e6e565b9750612ed783612e87565b925050600181019050612eb8565b5085935050505092915050565b60006020820190508181036000830152612f0c8184612e94565b905092915050565b612f1d81612d00565b82525050565b612f2c81612d48565b82525050565b600061018082019050612f48600083018f612646565b612f55602083018e61269d565b612f62604083018d61269d565b612f6f606083018c61269d565b612f7c608083018b61269d565b612f8960a083018a61269d565b612f9660c0830189612f14565b612fa360e0830188612851565b612fb1610100830187612851565b612fbf610120830186612f23565b612fcd610140830185612851565b612fdb6101608301846127b3565b9d9c50505050505050505050505050565b60008060408385031215613003576130026123c4565b5b600061301185828601612a4b565b925050602061302285828601612a4b565b9150509250929050565b600060208284031215613042576130416123c4565b5b6000613050848285016123f7565b91505092915050565b600080608083850312156130705761306f6123c4565b5b600061307e85828601612a60565b925050604061308f85828601612a60565b9150509250929050565b600082825260208201905092915050565b7f496e636f7272656374207061796d656e74000000000000000000000000000000600082015250565b60006130e0601183613099565b91506130eb826130aa565b602082019050919050565b6000602082019050818103600083015261310f816130d3565b9050919050565b7f4d696e74696e67206973206e6f74206163746976650000000000000000000000600082015250565b600061314c601583613099565b915061315782613116565b602082019050919050565b6000602082019050818103600083015261317b8161313f565b9050919050565b7f4e487b7100000000000000000000000000000000000000000000000000000000600052601160045260246000fd5b60006131bc826125af565b91507f800000000000000000000000000000000000000000000000000000000000000082036131ee576131ed613182565b5b816000039050919050565b60006132048261240c565b91507fffffffffffffffffffffffffffffffffffffffffffffffffffffffffffffffff820361323657613235613182565b5b600182019050919050565b6000819050919050565b61325c6132578261240c565b613241565b82525050565b60008160601b9050919050565b600061327a82613262565b9050919050565b600061328c8261326f565b9050919050565b6132a461329f826123ce565b613281565b82525050565b60006132b6828661324b565b6020820191506132c6828561324b565b6020820191506132d68284613293565b601482019150819050949350505050565b60006040820190506132fc600083018561269d565b613309602083018461269d565b9392505050565b600061331b8261240c565b91506133268361240c565b92508282026133348161240c565b9150828204841483151761334b5761334a613182565b5b5092915050565b600061335d8261240c565b91506133688361240c565b92508282039050818111156133805761337f613182565b5b92915050565b7f4e487b7100000000000000000000000000000000000000000000000000000000600052601260045260246000fd5b60006133c08261240c565b91506133cb8361240c565b9250826133db576133da613386565b5b828204905092915050565b60006133f18261240c565b91506133fc8361240c565b925082820190508082111561341457613413613182565b5b92915050565b600060808201905061342f600083018761269d565b61343c602083018661269d565b613449604083018561269d565b613456606083018461269d565b95945050505050565b600061346a826125af565b9150613475836125af565b925082820390508181126000841216828213600085121516171561349c5761349b613182565b5b92915050565b7f42616420646972656374696f6e00000000000000000000000000000000000000600082015250565b60006134d8600d83613099565b91506134e3826134a2565b602082019050919050565b60006020820190508181036000830152613507816134cb565b9050919050565b600061351982612844565b915061352483612844565b9250828203905060ff81111561353d5761353c613182565b5b92915050565b600061354e82612844565b915061355983612844565b9250828201905060ff81111561357257613571613182565b5b92915050565b7f496e76616c696420646972656374696f6e3a2000000000000000000000000000815250565b600081519050919050565b600081905092915050565b60005b838110156135d25780820151818401526020810190506135b7565b60008484015250505050565b60006135e98261359e565b6135f381856135a9565b93506136038185602086016135b4565b80840191505092915050565b600061361a82613578565b60138201915061362a82846135de565b915081905092915050565b60006136408261359e565b61364a8185613099565b935061365a8185602086016135b4565b613663816129a8565b840191505092915050565b600060208201905081810360008301526136888184613635565b905092915050565b60008160011c9050919050565b6000808291508390505b60018511156136e7578086048111156136c3576136c2613182565b5b60018516156136d25780820291505b80810290506136e085613690565b94506136a7565b94509492505050565b60008261370057600190506137bc565b8161370e57600090506137bc565b8160018114613724576002811461372e5761375d565b60019150506137bc565b60ff8411156137405761373f613182565b5b8360020a91508482111561375757613756613182565b5b506137bc565b5060208310610133831016604e8410600b84101617156137925782820a90508381111561378d5761378c613182565b5b6137bc565b61379f848484600161369d565b925090508184048111156137b6576137b5613182565b5b81810290505b9392505050565b60006137ce8261240c565b91506137d98361240c565b92506138067fffffffffffffffffffffffffffffffffffffffffffffffffffffffffffffffff84846136f0565b905092915050565b7f50617965643a2000000000000000000000000000000000000000000000000000600082015250565b60006138446007836135a9565b915061384f8261380e565b600782019050919050565b7f2c20636f73742069733a20000000000000000000000000000000000000000000600082015250565b6000613890600b836135a9565b915061389b8261385a565b600b82019050919050565b60006138b182613837565b91506138bd828561324b565b6020820191506138cc82613883565b91506138d8828461324b565b6020820191508190509392505050565b7f436f6e7472616374206e6f7420616c6c6f776564000000000000000000000000600082015250565b600061391e601483613099565b9150613929826138e8565b602082019050919050565b6000602082019050818103600083015261394d81613911565b9050919050565b7f4e487b7100000000000000000000000000000000000000000000000000000000600052603260045260246000fd5b600061398f8286613293565b60148201915061399f828561324b565b6020820191506139af828461324b565b602082019150819050949350505050565b60006139cb8261240c565b91506139d68361240c565b9250826139e6576139e5613386565b5b828206905092915050565b7f4f776e61626c653a206e6577206f776e657220697320746865207a65726f206160008201527f6464726573730000000000000000000000000000000000000000000000000000602082015250565b6000613a4d602683613099565b9150613a58826139f1565b604082019050919050565b60006020820190508181036000830152613a7c81613a40565b9050919050565b7f4e6f742067616d6520636f6e7472616374000000000000000000000000000000600082015250565b6000613ab9601183613099565b9150613ac482613a83565b602082019050919050565b60006020820190508181036000830152613ae881613aac565b9050919050565b60008160000b9050919050565b6000613b0782613aef565b9150613b1283613aef565b92508282039050607f81137fffffffffffffffffffffffffffffffffffffffffffffffffffffffffffffff8082121715613b4f57613b4e613182565b5b92915050565b7f4572726f723a204e6f742061646a6163656e7400000000000000000000000000600082015250565b6000613b8b601383613099565b9150613b9682613b55565b602082019050919050565b60006020820190508181036000830152613bba81613b7e565b9050919050565b7f4f776e61626c653a2063616c6c6572206973206e6f7420746865206f776e6572600082015250565b6000613bf7602083613099565b9150613c0282613bc1565b602082019050919050565b60006020820190508181036000830152613c2681613bea565b9050919050565b6000819050919050565b6000613c52613c4d613c4884613c2d565b612340565b61240c565b9050919050565b613c6281613c37565b82525050565b6000819050919050565b6000613c8d613c88613c8384613c68565b612340565b61240c565b9050919050565b613c9d81613c72565b82525050565b6000606082019050613cb86000830186613c59565b613cc56020830185613c94565b613cd26040830184612585565b949350505050565b600081519050613ce981612416565b92915050565b600060208284031215613d0557613d046123c4565b5b6000613d1384828501613cda565b91505092915050565b600081519050613d2b81612b49565b92915050565b600060208284031215613d4757613d466123c4565b5b6000613d5584828501613d1c565b9150509291505056fea26469706673582212208e750df0ad9ac76dd712b079decdefbb97aec57459c235cf7dd63c9bd6af42ba64736f6c63430008110033",
  "devdoc": {
    "kind": "dev",
    "methods": {
      "owner()": {
        "details": "Returns the address of the current owner."
      },
      "renounceOwnership()": {
        "details": "Leaves the contract without owner. It will not be possible to call `onlyOwner` functions anymore. Can only be called by the current owner. NOTE: Renouncing ownership will leave the contract without an owner, thereby removing any functionality that is only available to the owner."
      },
      "transferOwnership(address)": {
        "details": "Transfers ownership of the contract to a new account (`newOwner`). Can only be called by the current owner."
      }
    },
    "version": 1
  },
  "userdoc": {
    "kind": "user",
    "methods": {},
    "version": 1
  },
  "storageLayout": {
    "storage": [
      {
        "astId": 7,
        "contract": "contracts/BCItems.sol:BCItems",
        "label": "_owner",
        "offset": 0,
        "slot": "0",
        "type": "t_address"
      },
      {
        "astId": 10303,
        "contract": "contracts/BCItems.sol:BCItems",
        "label": "TODO_randomSeed",
        "offset": 0,
        "slot": "1",
        "type": "t_uint256"
      },
      {
        "astId": 5495,
        "contract": "contracts/BCItems.sol:BCItems",
        "label": "lobbies",
        "offset": 0,
        "slot": "2",
        "type": "t_contract(LobbyInterface)5439"
      },
      {
        "astId": 5497,
        "contract": "contracts/BCItems.sol:BCItems",
        "label": "gamesContract",
        "offset": 0,
        "slot": "3",
        "type": "t_address"
      },
      {
        "astId": 5500,
        "contract": "contracts/BCItems.sol:BCItems",
        "label": "uif",
        "offset": 0,
        "slot": "4",
        "type": "t_contract(UIFInterface)5486"
      },
      {
        "astId": 5502,
        "contract": "contracts/BCItems.sol:BCItems",
        "label": "actionsContract",
        "offset": 0,
        "slot": "5",
        "type": "t_address"
      },
      {
        "astId": 5539,
        "contract": "contracts/BCItems.sol:BCItems",
        "label": "mintCost",
        "offset": 0,
        "slot": "6",
        "type": "t_uint256"
      },
      {
        "astId": 5542,
        "contract": "contracts/BCItems.sol:BCItems",
        "label": "mintIsActive",
        "offset": 0,
        "slot": "7",
        "type": "t_bool"
      },
      {
        "astId": 5546,
        "contract": "contracts/BCItems.sol:BCItems",
        "label": "allowedContract",
        "offset": 1,
        "slot": "7",
        "type": "t_address"
      },
      {
        "astId": 5549,
        "contract": "contracts/BCItems.sol:BCItems",
        "label": "randSeed",
        "offset": 0,
        "slot": "8",
        "type": "t_uint256"
      },
      {
        "astId": 5553,
        "contract": "contracts/BCItems.sol:BCItems",
        "label": "items",
        "offset": 0,
        "slot": "9",
        "type": "t_array(t_struct(Item)10275_storage)dyn_storage"
      },
      {
        "astId": 5558,
        "contract": "contracts/BCItems.sol:BCItems",
        "label": "playerToItems",
        "offset": 0,
        "slot": "10",
        "type": "t_mapping(t_uint256,t_array(t_uint256)dyn_storage)"
      },
      {
        "astId": 5562,
        "contract": "contracts/BCItems.sol:BCItems",
        "label": "itemTraitModifiers",
        "offset": 0,
        "slot": "11",
        "type": "t_array(t_struct(Traits)10219_storage)dyn_storage"
      }
    ],
    "types": {
      "t_address": {
        "encoding": "inplace",
        "label": "address",
        "numberOfBytes": "20"
      },
      "t_array(t_struct(Item)10275_storage)dyn_storage": {
        "base": "t_struct(Item)10275_storage",
        "encoding": "dynamic_array",
        "label": "struct BCTypes.Item[]",
        "numberOfBytes": "32"
      },
      "t_array(t_struct(Traits)10219_storage)dyn_storage": {
        "base": "t_struct(Traits)10219_storage",
        "encoding": "dynamic_array",
        "label": "struct BCTypes.Traits[]",
        "numberOfBytes": "32"
      },
      "t_array(t_uint256)dyn_storage": {
        "base": "t_uint256",
        "encoding": "dynamic_array",
        "label": "uint256[]",
        "numberOfBytes": "32"
      },
      "t_bool": {
        "encoding": "inplace",
        "label": "bool",
        "numberOfBytes": "1"
      },
      "t_bytes32": {
        "encoding": "inplace",
        "label": "bytes32",
        "numberOfBytes": "32"
      },
      "t_contract(LobbyInterface)5439": {
        "encoding": "inplace",
        "label": "contract LobbyInterface",
        "numberOfBytes": "20"
      },
      "t_contract(UIFInterface)5486": {
        "encoding": "inplace",
        "label": "contract UIFInterface",
        "numberOfBytes": "20"
      },
      "t_enum(ItemCategory)10243": {
        "encoding": "inplace",
        "label": "enum BCTypes.ItemCategory",
        "numberOfBytes": "1"
      },
      "t_enum(ItemType)10248": {
        "encoding": "inplace",
        "label": "enum BCTypes.ItemType",
        "numberOfBytes": "1"
      },
      "t_int8": {
        "encoding": "inplace",
        "label": "int8",
        "numberOfBytes": "1"
      },
      "t_mapping(t_uint256,t_array(t_uint256)dyn_storage)": {
        "encoding": "mapping",
        "key": "t_uint256",
        "label": "mapping(uint256 => uint256[])",
        "numberOfBytes": "32",
        "value": "t_array(t_uint256)dyn_storage"
      },
      "t_struct(Item)10275_storage": {
        "encoding": "inplace",
        "label": "struct BCTypes.Item",
        "members": [
          {
            "astId": 10250,
            "contract": "contracts/BCItems.sol:BCItems",
            "label": "genHash",
            "offset": 0,
            "slot": "0",
            "type": "t_bytes32"
          },
          {
            "astId": 10252,
            "contract": "contracts/BCItems.sol:BCItems",
            "label": "id",
            "offset": 0,
            "slot": "1",
            "type": "t_uint256"
          },
          {
            "astId": 10254,
            "contract": "contracts/BCItems.sol:BCItems",
            "label": "uifID",
            "offset": 0,
            "slot": "2",
            "type": "t_uint256"
          },
          {
            "astId": 10256,
            "contract": "contracts/BCItems.sol:BCItems",
            "label": "holdingPlayerId",
            "offset": 0,
            "slot": "3",
            "type": "t_uint256"
          },
          {
            "astId": 10258,
            "contract": "contracts/BCItems.sol:BCItems",
            "label": "weight",
            "offset": 0,
            "slot": "4",
            "type": "t_uint256"
          },
          {
            "astId": 10260,
            "contract": "contracts/BCItems.sol:BCItems",
            "label": "traitModID",
            "offset": 0,
            "slot": "5",
            "type": "t_uint256"
          },
          {
            "astId": 10263,
            "contract": "contracts/BCItems.sol:BCItems",
            "label": "itemCategory",
            "offset": 0,
            "slot": "6",
            "type": "t_enum(ItemCategory)10243"
          },
          {
            "astId": 10265,
            "contract": "contracts/BCItems.sol:BCItems",
            "label": "grantsAbility",
            "offset": 1,
            "slot": "6",
            "type": "t_uint8"
          },
          {
            "astId": 10267,
            "contract": "contracts/BCItems.sol:BCItems",
            "label": "grantsFlaw",
            "offset": 2,
            "slot": "6",
            "type": "t_uint8"
          },
          {
            "astId": 10270,
            "contract": "contracts/BCItems.sol:BCItems",
            "label": "itemType",
            "offset": 3,
            "slot": "6",
            "type": "t_enum(ItemType)10248"
          },
          {
            "astId": 10272,
            "contract": "contracts/BCItems.sol:BCItems",
            "label": "power",
            "offset": 4,
            "slot": "6",
            "type": "t_uint8"
          },
          {
            "astId": 10274,
            "contract": "contracts/BCItems.sol:BCItems",
            "label": "inGame",
            "offset": 5,
            "slot": "6",
            "type": "t_bool"
          }
        ],
        "numberOfBytes": "224"
      },
      "t_struct(Traits)10219_storage": {
        "encoding": "inplace",
        "label": "struct BCTypes.Traits",
        "members": [
          {
            "astId": 10206,
            "contract": "contracts/BCItems.sol:BCItems",
            "label": "health",
            "offset": 0,
            "slot": "0",
            "type": "t_int8"
          },
          {
            "astId": 10208,
            "contract": "contracts/BCItems.sol:BCItems",
            "label": "carry",
            "offset": 1,
            "slot": "0",
            "type": "t_int8"
          },
          {
            "astId": 10210,
            "contract": "contracts/BCItems.sol:BCItems",
            "label": "defense",
            "offset": 2,
            "slot": "0",
            "type": "t_int8"
          },
          {
            "astId": 10212,
            "contract": "contracts/BCItems.sol:BCItems",
            "label": "hack",
            "offset": 3,
            "slot": "0",
            "type": "t_int8"
          },
          {
            "astId": 10214,
            "contract": "contracts/BCItems.sol:BCItems",
            "label": "breach",
            "offset": 4,
            "slot": "0",
            "type": "t_int8"
          },
          {
            "astId": 10216,
            "contract": "contracts/BCItems.sol:BCItems",
            "label": "shoot",
            "offset": 5,
            "slot": "0",
            "type": "t_int8"
          },
          {
            "astId": 10218,
            "contract": "contracts/BCItems.sol:BCItems",
            "label": "melee",
            "offset": 6,
            "slot": "0",
            "type": "t_int8"
          }
        ],
        "numberOfBytes": "32"
      },
      "t_uint256": {
        "encoding": "inplace",
        "label": "uint256",
        "numberOfBytes": "32"
      },
      "t_uint8": {
        "encoding": "inplace",
        "label": "uint8",
        "numberOfBytes": "1"
      }
    }
  }
}