{
  "address": "0x474332Cf1927EFBdb100898B12Cf80321a751c15",
  "abi": [
    {
      "inputs": [],
      "stateMutability": "nonpayable",
      "type": "constructor"
    },
    {
      "anonymous": false,
      "inputs": [
        {
          "indexed": false,
          "internalType": "uint256",
          "name": "roll",
          "type": "uint256"
        },
        {
          "indexed": false,
          "internalType": "uint256",
          "name": "forValue",
          "type": "uint256"
        },
        {
          "indexed": false,
          "internalType": "uint256",
          "name": "against",
          "type": "uint256"
        }
      ],
      "name": "DiceRollEvent",
      "type": "event"
    },
    {
      "anonymous": false,
      "inputs": [
        {
          "indexed": true,
          "internalType": "address",
          "name": "previousOwner",
          "type": "address"
        },
        {
          "indexed": true,
          "internalType": "address",
          "name": "newOwner",
          "type": "address"
        }
      ],
      "name": "OwnershipTransferred",
      "type": "event"
    },
    {
      "anonymous": false,
      "inputs": [],
      "name": "Received",
      "type": "event"
    },
    {
      "inputs": [
        {
          "internalType": "uint256",
          "name": "_matic",
          "type": "uint256"
        }
      ],
      "name": "SetMintCostInMatic",
      "outputs": [],
      "stateMutability": "nonpayable",
      "type": "function"
    },
    {
      "inputs": [
        {
          "internalType": "int256",
          "name": "x",
          "type": "int256"
        }
      ],
      "name": "abs",
      "outputs": [
        {
          "internalType": "int256",
          "name": "",
          "type": "int256"
        }
      ],
      "stateMutability": "pure",
      "type": "function"
    },
    {
      "inputs": [],
      "name": "actionsContract",
      "outputs": [
        {
          "internalType": "address",
          "name": "",
          "type": "address"
        }
      ],
      "stateMutability": "view",
      "type": "function"
    },
    {
      "inputs": [],
      "name": "allowedContract",
      "outputs": [
        {
          "internalType": "address",
          "name": "",
          "type": "address"
        }
      ],
      "stateMutability": "view",
      "type": "function"
    },
    {
      "inputs": [],
      "name": "commitItemToMission",
      "outputs": [],
      "stateMutability": "nonpayable",
      "type": "function"
    },
    {
      "inputs": [],
      "name": "gamesContract",
      "outputs": [
        {
          "internalType": "address",
          "name": "",
          "type": "address"
        }
      ],
      "stateMutability": "view",
      "type": "function"
    },
    {
      "inputs": [
        {
          "components": [
            {
              "internalType": "uint8",
              "name": "row",
              "type": "uint8"
            },
            {
              "internalType": "uint8",
              "name": "col",
              "type": "uint8"
            }
          ],
          "internalType": "struct BCTypes.Position",
          "name": "_firstRoom",
          "type": "tuple"
        },
        {
          "components": [
            {
              "internalType": "uint8",
              "name": "row",
              "type": "uint8"
            },
            {
              "internalType": "uint8",
              "name": "col",
              "type": "uint8"
            }
          ],
          "internalType": "struct BCTypes.Position",
          "name": "_secondRoom",
          "type": "tuple"
        }
      ],
      "name": "getDirectionBetween",
      "outputs": [
        {
          "internalType": "uint256",
          "name": "",
          "type": "uint256"
        }
      ],
      "stateMutability": "pure",
      "type": "function"
    },
    {
      "inputs": [
        {
          "internalType": "uint256",
          "name": "_playerID",
          "type": "uint256"
        }
      ],
      "name": "getItemsByChar",
      "outputs": [
        {
          "components": [
            {
              "internalType": "bytes32",
              "name": "genHash",
              "type": "bytes32"
            },
            {
              "internalType": "uint256",
              "name": "id",
              "type": "uint256"
            },
            {
              "internalType": "uint256",
              "name": "uifID",
              "type": "uint256"
            },
            {
              "internalType": "uint256",
              "name": "holdingPlayerId",
              "type": "uint256"
            },
            {
              "internalType": "uint256",
              "name": "weight",
              "type": "uint256"
            },
            {
              "internalType": "uint256",
              "name": "traitModID",
              "type": "uint256"
            },
            {
              "internalType": "enum BCTypes.ItemCategory",
              "name": "itemCategory",
              "type": "uint8"
            },
            {
              "internalType": "uint8",
              "name": "grantsAbility",
              "type": "uint8"
            },
            {
              "internalType": "uint8",
              "name": "grantsFlaw",
              "type": "uint8"
            },
            {
              "internalType": "enum BCTypes.ItemType",
              "name": "itemType",
              "type": "uint8"
            },
            {
              "internalType": "uint8",
              "name": "power",
              "type": "uint8"
            },
            {
              "internalType": "bool",
              "name": "inGame",
              "type": "bool"
            }
          ],
          "internalType": "struct BCTypes.Item[]",
          "name": "",
          "type": "tuple[]"
        }
      ],
      "stateMutability": "view",
      "type": "function"
    },
    {
      "inputs": [
        {
          "internalType": "uint256",
          "name": "_direction",
          "type": "uint256"
        },
        {
          "components": [
            {
              "internalType": "uint8",
              "name": "row",
              "type": "uint8"
            },
            {
              "internalType": "uint8",
              "name": "col",
              "type": "uint8"
            }
          ],
          "internalType": "struct BCTypes.Position",
          "name": "_start",
          "type": "tuple"
        }
      ],
      "name": "getNeighborRoom",
      "outputs": [
        {
          "components": [
            {
              "internalType": "uint8",
              "name": "row",
              "type": "uint8"
            },
            {
              "internalType": "uint8",
              "name": "col",
              "type": "uint8"
            }
          ],
          "internalType": "struct BCTypes.Position",
          "name": "",
          "type": "tuple"
        }
      ],
      "stateMutability": "pure",
      "type": "function"
    },
    {
      "inputs": [
        {
          "internalType": "uint256",
          "name": "_traitNum",
          "type": "uint256"
        },
        {
          "internalType": "uint256",
          "name": "_subTraitNum",
          "type": "uint256"
        }
      ],
      "name": "getUIOffset",
      "outputs": [
        {
          "internalType": "uint256",
          "name": "",
          "type": "uint256"
        }
      ],
      "stateMutability": "pure",
      "type": "function"
    },
    {
      "inputs": [
        {
          "internalType": "uint256",
          "name": "",
          "type": "uint256"
        }
      ],
      "name": "items",
      "outputs": [
        {
          "internalType": "bytes32",
          "name": "genHash",
          "type": "bytes32"
        },
        {
          "internalType": "uint256",
          "name": "id",
          "type": "uint256"
        },
        {
          "internalType": "uint256",
          "name": "uifID",
          "type": "uint256"
        },
        {
          "internalType": "uint256",
          "name": "holdingPlayerId",
          "type": "uint256"
        },
        {
          "internalType": "uint256",
          "name": "weight",
          "type": "uint256"
        },
        {
          "internalType": "uint256",
          "name": "traitModID",
          "type": "uint256"
        },
        {
          "internalType": "enum BCTypes.ItemCategory",
          "name": "itemCategory",
          "type": "uint8"
        },
        {
          "internalType": "uint8",
          "name": "grantsAbility",
          "type": "uint8"
        },
        {
          "internalType": "uint8",
          "name": "grantsFlaw",
          "type": "uint8"
        },
        {
          "internalType": "enum BCTypes.ItemType",
          "name": "itemType",
          "type": "uint8"
        },
        {
          "internalType": "uint8",
          "name": "power",
          "type": "uint8"
        },
        {
          "internalType": "bool",
          "name": "inGame",
          "type": "bool"
        }
      ],
      "stateMutability": "view",
      "type": "function"
    },
    {
      "inputs": [],
      "name": "lobbies",
      "outputs": [
        {
          "internalType": "contract LobbyInterface",
          "name": "",
          "type": "address"
        }
      ],
      "stateMutability": "view",
      "type": "function"
    },
    {
      "inputs": [
        {
          "internalType": "uint256",
          "name": "_holdingPlayerId",
          "type": "uint256"
        },
        {
          "internalType": "address",
          "name": "_holderAddress",
          "type": "address"
        }
      ],
      "name": "lootItem",
      "outputs": [],
      "stateMutability": "payable",
      "type": "function"
    },
    {
      "inputs": [],
      "name": "mintCost",
      "outputs": [
        {
          "internalType": "uint256",
          "name": "",
          "type": "uint256"
        }
      ],
      "stateMutability": "view",
      "type": "function"
    },
    {
      "inputs": [],
      "name": "mintIsActive",
      "outputs": [
        {
          "internalType": "bool",
          "name": "",
          "type": "bool"
        }
      ],
      "stateMutability": "view",
      "type": "function"
    },
    {
      "inputs": [
        {
          "internalType": "uint256",
          "name": "_min",
          "type": "uint256"
        },
        {
          "internalType": "uint256",
          "name": "_max",
          "type": "uint256"
        },
        {
          "internalType": "uint256",
          "name": "_val",
          "type": "uint256"
        },
        {
          "internalType": "uint256",
          "name": "_valMax",
          "type": "uint256"
        }
      ],
      "name": "normalizeToSmallRange",
      "outputs": [
        {
          "internalType": "uint8",
          "name": "",
          "type": "uint8"
        }
      ],
      "stateMutability": "pure",
      "type": "function"
    },
    {
      "inputs": [
        {
          "internalType": "address",
          "name": "_operator",
          "type": "address"
        },
        {
          "internalType": "address",
          "name": "_from",
          "type": "address"
        },
        {
          "internalType": "uint256",
          "name": "_tokenId",
          "type": "uint256"
        },
        {
          "internalType": "bytes",
          "name": "_data",
          "type": "bytes"
        }
      ],
      "name": "onERC721Received",
      "outputs": [
        {
          "internalType": "bytes4",
          "name": "",
          "type": "bytes4"
        }
      ],
      "stateMutability": "nonpayable",
      "type": "function"
    },
    {
      "inputs": [
        {
          "internalType": "uint256",
          "name": "_direction",
          "type": "uint256"
        }
      ],
      "name": "opposite",
      "outputs": [
        {
          "internalType": "uint256",
          "name": "",
          "type": "uint256"
        }
      ],
      "stateMutability": "pure",
      "type": "function"
    },
    {
      "inputs": [],
      "name": "owner",
      "outputs": [
        {
          "internalType": "address",
          "name": "",
          "type": "address"
        }
      ],
      "stateMutability": "view",
      "type": "function"
    },
    {
      "inputs": [
        {
          "internalType": "uint256",
          "name": "",
          "type": "uint256"
        },
        {
          "internalType": "uint256",
          "name": "",
          "type": "uint256"
        }
      ],
      "name": "playerToItems",
      "outputs": [
        {
          "internalType": "uint256",
          "name": "",
          "type": "uint256"
        }
      ],
      "stateMutability": "view",
      "type": "function"
    },
    {
      "inputs": [],
      "name": "randKeccak",
      "outputs": [
        {
          "internalType": "bytes32",
          "name": "",
          "type": "bytes32"
        }
      ],
      "stateMutability": "nonpayable",
      "type": "function"
    },
    {
      "inputs": [],
      "name": "renounceOwnership",
      "outputs": [],
      "stateMutability": "nonpayable",
      "type": "function"
    },
    {
      "inputs": [
        {
          "internalType": "uint256",
          "name": "_for",
          "type": "uint256"
        },
        {
          "internalType": "uint256",
          "name": "_against",
          "type": "uint256"
        }
      ],
      "name": "resolveChallenge",
      "outputs": [
        {
          "internalType": "bool",
          "name": "",
          "type": "bool"
        }
      ],
      "stateMutability": "nonpayable",
      "type": "function"
    },
    {
      "inputs": [],
      "name": "roll",
      "outputs": [
        {
          "internalType": "uint256",
          "name": "",
          "type": "uint256"
        }
      ],
      "stateMutability": "nonpayable",
      "type": "function"
    },
    {
      "inputs": [
        {
          "internalType": "address",
          "name": "_lobbyContractAddress",
          "type": "address"
        },
        {
          "internalType": "address",
          "name": "_gameContract",
          "type": "address"
        },
        {
          "internalType": "address",
          "name": "_UIFAddress",
          "type": "address"
        },
        {
          "internalType": "address",
          "name": "_actionsContract",
          "type": "address"
        }
      ],
      "name": "setContractAddresses",
      "outputs": [],
      "stateMutability": "nonpayable",
      "type": "function"
    },
    {
      "inputs": [
        {
          "internalType": "bool",
          "name": "_status",
          "type": "bool"
        }
      ],
      "name": "setMintingStatus",
      "outputs": [],
      "stateMutability": "nonpayable",
      "type": "function"
    },
    {
      "inputs": [
        {
          "internalType": "bytes32",
          "name": "_hash",
          "type": "bytes32"
        },
        {
          "internalType": "uint256",
          "name": "_size",
          "type": "uint256"
        },
        {
          "internalType": "uint256",
          "name": "_offset",
          "type": "uint256"
        }
      ],
      "name": "sliceHashToSmallInt",
      "outputs": [
        {
          "internalType": "uint8",
          "name": "",
          "type": "uint8"
        }
      ],
      "stateMutability": "pure",
      "type": "function"
    },
    {
      "inputs": [
        {
          "internalType": "uint8",
          "name": "_min",
          "type": "uint8"
        },
        {
          "internalType": "uint8",
          "name": "_max",
          "type": "uint8"
        }
      ],
      "name": "smallIntBetweenVals",
      "outputs": [
        {
          "internalType": "uint8",
          "name": "",
          "type": "uint8"
        }
      ],
      "stateMutability": "nonpayable",
      "type": "function"
    },
    {
      "inputs": [],
      "name": "spawnCompanyItem",
      "outputs": [],
      "stateMutability": "payable",
      "type": "function"
    },
    {
      "inputs": [],
      "name": "spawnItem",
      "outputs": [],
      "stateMutability": "payable",
      "type": "function"
    },
    {
      "inputs": [],
      "name": "transferFundsOut",
      "outputs": [],
      "stateMutability": "nonpayable",
      "type": "function"
    },
    {
      "inputs": [
        {
          "internalType": "address",
          "name": "newOwner",
          "type": "address"
        }
      ],
      "name": "transferOwnership",
      "outputs": [],
      "stateMutability": "nonpayable",
      "type": "function"
    },
    {
      "inputs": [],
      "name": "uif",
      "outputs": [
        {
          "internalType": "contract UIFInterface",
          "name": "",
          "type": "address"
        }
      ],
      "stateMutability": "view",
      "type": "function"
    }
  ],
  "transactionHash": "0x7dd3c7028a8dcb71300961c81967938a7165bb5931f007af0fb36b61c113aa2a",
  "args": [],
  "numDeployments": 1,
  "solcInputHash": "76d3353e332217d143cdae74f2e0f1e8",
  "bytecode": "0x60806040526000600155655af3107a40006006556001600760006101000a81548160ff02191690831515021790555060006008553480156200004057600080fd5b5062000061620000556200008460201b60201c565b6200008c60201b60201c565b600b60018160018154018082558091505003906000526020600020505062000150565b600033905090565b60008060009054906101000a900473ffffffffffffffffffffffffffffffffffffffff169050816000806101000a81548173ffffffffffffffffffffffffffffffffffffffff021916908373ffffffffffffffffffffffffffffffffffffffff1602179055508173ffffffffffffffffffffffffffffffffffffffff168173ffffffffffffffffffffffffffffffffffffffff167f8be0079c531659141344cd1fd0a4f28419497f9722a3daafe3b4186f6b6457e060405160405180910390a35050565b61361f80620001606000396000f3fe6080604052600436106101ee5760003560e01c80638214f2221161010d578063bdb4b848116100a0578063d29b9c9b1161006f578063d29b9c9b146106d3578063dff2fb3114610710578063e89d5a891461074d578063f2fde38b14610778578063fa3993c2146107a1576101ee565b8063bdb4b848146105f8578063bfb231d214610623578063cd5e3c5d1461066b578063ce28613f14610696576101ee565b806397f34c3f116100dc57806397f34c3f1461056c578063a20df9fa146105a9578063aa3eb1b5146105b3578063aaa68777146105cf576101ee565b80638214f2221461048a5780638ac031b3146104c75780638da5cb5b14610504578063951fc3fe1461052f576101ee565b8063471a429411610185578063705498dc11610154578063705498dc14610408578063715018a6146104335780637420aa361461044a57806376c8aa2714610473576101ee565b8063471a42941461033a578063501f978414610365578063530116961461038e57806364db84bf146103cb576101ee565b8063185ae9dc116101c1578063185ae9dc146102905780631b5ac4b5146102bb5780631e1de205146102f85780633838aed114610323576101ee565b80630364f88c146101f35780630fd8e8331461021e578063150b7a0214610228578063154fa27a14610265575b600080fd5b3480156101ff57600080fd5b506102086107de565b6040516102159190611ecd565b60405180910390f35b610226610804565b005b34801561023457600080fd5b5061024f600480360381019061024a9190611fd5565b6109b1565b60405161025c9190612098565b60405180910390f35b34801561027157600080fd5b5061027a6109f2565b60405161028791906120c2565b60405180910390f35b34801561029c57600080fd5b506102a5610a18565b6040516102b291906120c2565b60405180910390f35b3480156102c757600080fd5b506102e260048036038101906102dd9190612113565b610a3e565b6040516102ef919061214f565b60405180910390f35b34801561030457600080fd5b5061030d610a60565b60405161031a9190612183565b60405180910390f35b34801561032f57600080fd5b50610338610aac565b005b34801561034657600080fd5b5061034f610b04565b60405161035c91906121b9565b60405180910390f35b34801561037157600080fd5b5061038c600480360381019061038791906121d4565b610b17565b005b34801561039a57600080fd5b506103b560048036038101906103b09190612201565b610b3c565b6040516103c29190612284565b60405180910390f35b3480156103d757600080fd5b506103f260048036038101906103ed919061229f565b610b80565b6040516103ff91906122ee565b60405180910390f35b34801561041457600080fd5b5061041d610ba2565b60405161042a919061232a565b60405180910390f35b34801561043f57600080fd5b50610448610bc8565b005b34801561045657600080fd5b50610471600480360381019061046c9190612371565b610bdc565b005b34801561047f57600080fd5b50610488610c01565b005b34801561049657600080fd5b506104b160048036038101906104ac91906121d4565b610c03565b6040516104be91906122ee565b60405180910390f35b3480156104d357600080fd5b506104ee60048036038101906104e9919061229f565b610c8c565b6040516104fb91906122ee565b60405180910390f35b34801561051057600080fd5b50610519610cbd565b60405161052691906120c2565b60405180910390f35b34801561053b57600080fd5b50610556600480360381019061055191906124ab565b610ce6565b6040516105639190612529565b60405180910390f35b34801561057857600080fd5b50610593600480360381019061058e9190612570565b610e2b565b6040516105a09190612284565b60405180910390f35b6105b1610e62565b005b6105cd60048036038101906105c891906125c3565b61101a565b005b3480156105db57600080fd5b506105f660048036038101906105f19190612603565b6111ce565b005b34801561060457600080fd5b5061060d6112e0565b60405161061a91906122ee565b60405180910390f35b34801561062f57600080fd5b5061064a600480360381019061064591906121d4565b6112e6565b6040516106629c9b9a99989796959493929190612729565b60405180910390f35b34801561067757600080fd5b506106806113a4565b60405161068d91906122ee565b60405180910390f35b3480156106a257600080fd5b506106bd60048036038101906106b891906127e3565b6113ba565b6040516106ca9190612284565b60405180910390f35b3480156106df57600080fd5b506106fa60048036038101906106f591906121d4565b61144b565b6040516107079190612a14565b60405180910390f35b34801561071c57600080fd5b506107376004803603810190610732919061229f565b61168d565b60405161074491906121b9565b60405180910390f35b34801561075957600080fd5b5061076261171d565b60405161076f91906120c2565b60405180910390f35b34801561078457600080fd5b5061079f600480360381019061079a9190612a36565b611743565b005b3480156107ad57600080fd5b506107c860048036038101906107c39190612a63565b6117c7565b6040516107d591906122ee565b60405180910390f35b600260009054906101000a900473ffffffffffffffffffffffffffffffffffffffff1681565b61080c610cbd565b73ffffffffffffffffffffffffffffffffffffffff163373ffffffffffffffffffffffffffffffffffffffff161480610846575060065434145b610885576040517f08c379a000000000000000000000000000000000000000000000000000000000815260040161087c90612b00565b60405180910390fd5b61088d610cbd565b73ffffffffffffffffffffffffffffffffffffffff163373ffffffffffffffffffffffffffffffffffffffff1614806108d9575060011515600760009054906101000a900460ff161515145b610918576040517f08c379a000000000000000000000000000000000000000000000000000000000815260040161090f90612b6c565b60405180910390fd5b610920610cbd565b73ffffffffffffffffffffffffffffffffffffffff163373ffffffffffffffffffffffffffffffffffffffff1614806109a65750600360009054906101000a900473ffffffffffffffffffffffffffffffffffffffff1673ffffffffffffffffffffffffffffffffffffffff163373ffffffffffffffffffffffffffffffffffffffff16145b6109af57600080fd5b565b60007f544c765b33ca411cce832250371569244f765a17fcd217832be093f0fd5fa45b60405160405180910390a163150b7a0260e01b905095945050505050565b600360009054906101000a900473ffffffffffffffffffffffffffffffffffffffff1681565b600560009054906101000a900473ffffffffffffffffffffffffffffffffffffffff1681565b600080821215610a575781610a5290612bbb565b610a59565b815b9050919050565b600060016000815480929190610a7590612c04565b91905055506001544233604051602001610a9193929190612cb6565b60405160208183030381529060405280519060200120905090565b610ab46118e8565b610abc610cbd565b73ffffffffffffffffffffffffffffffffffffffff166108fc479081150290604051600060405180830381858888f19350505050158015610b01573d6000803e3d6000fd5b50565b600760009054906101000a900460ff1681565b610b1f6118e8565b670de0b6b3a764000081610b339190612cf3565b60068190555050565b6000808585610b4b9190612d4d565b90506000838583610b5c9190612cf3565b610b669190612db0565b90508681610b749190612de1565b92505050949350505050565b600081836004610b909190612cf3565b610b9a9190612de1565b905092915050565b600460009054906101000a900473ffffffffffffffffffffffffffffffffffffffff1681565b610bd06118e8565b610bda6000611966565b565b610be46118e8565b80600760006101000a81548160ff02191690831515021790555050565b565b600080821415610c165760019050610c87565b6001821415610c285760009050610c87565b6002821415610c3a5760039050610c87565b6003821415610c4c5760029050610c87565b6040517f08c379a0000000000000000000000000000000000000000000000000000000008152600401610c7e90612e83565b60405180910390fd5b919050565b600a6020528160005260406000208181548110610ca857600080fd5b90600052602060002001600091509150505481565b60008060009054906101000a900473ffffffffffffffffffffffffffffffffffffffff16905090565b610cee611d9b565b6000831415610d2d57604051806040016040528060018460000151610d139190612ea3565b60ff168152602001836020015160ff168152509050610e25565b6001831415610d6c57604051806040016040528060018460000151610d529190612ed7565b60ff168152602001836020015160ff168152509050610e25565b6002831415610dab576040518060400160405280836000015160ff16815260200160018460200151610d9e9190612ed7565b60ff168152509050610e25565b6003831415610dea576040518060400160405280836000015160ff16815260200160018460200151610ddd9190612ea3565b60ff168152509050610e25565b6040517f08c379a0000000000000000000000000000000000000000000000000000000008152600401610e1c90612f5a565b60405180910390fd5b92915050565b600080826001856002610e3e91906130ad565b610e489190612d4d565b60001b901b905082818616901c60001c9150509392505050565b610e6a610cbd565b73ffffffffffffffffffffffffffffffffffffffff163373ffffffffffffffffffffffffffffffffffffffff161480610ea4575060065434145b610ee3576040517f08c379a0000000000000000000000000000000000000000000000000000000008152600401610eda90612b00565b60405180910390fd5b610eeb610cbd565b73ffffffffffffffffffffffffffffffffffffffff163373ffffffffffffffffffffffffffffffffffffffff161480610f37575060011515600760009054906101000a900460ff161515145b610f76576040517f08c379a0000000000000000000000000000000000000000000000000000000008152600401610f6d90612b6c565b60405180910390fd5b610f7e610cbd565b73ffffffffffffffffffffffffffffffffffffffff163373ffffffffffffffffffffffffffffffffffffffff1614806110045750600360009054906101000a900473ffffffffffffffffffffffffffffffffffffffff1673ffffffffffffffffffffffffffffffffffffffff163373ffffffffffffffffffffffffffffffffffffffff16145b61100d57600080fd5b611018600033611a2a565b565b611022610cbd565b73ffffffffffffffffffffffffffffffffffffffff163373ffffffffffffffffffffffffffffffffffffffff16148061105c575060065434145b61109b576040517f08c379a000000000000000000000000000000000000000000000000000000000815260040161109290612b00565b60405180910390fd5b6110a3610cbd565b73ffffffffffffffffffffffffffffffffffffffff163373ffffffffffffffffffffffffffffffffffffffff1614806111295750600360009054906101000a900473ffffffffffffffffffffffffffffffffffffffff1673ffffffffffffffffffffffffffffffffffffffff163373ffffffffffffffffffffffffffffffffffffffff16145b806111815750600560009054906101000a900473ffffffffffffffffffffffffffffffffffffffff1673ffffffffffffffffffffffffffffffffffffffff163373ffffffffffffffffffffffffffffffffffffffff16145b6111c0576040517f08c379a00000000000000000000000000000000000000000000000000000000081526004016111b790613144565b60405180910390fd5b6111ca8282611a2a565b5050565b6111d66118e8565b83600260006101000a81548173ffffffffffffffffffffffffffffffffffffffff021916908373ffffffffffffffffffffffffffffffffffffffff16021790555082600360006101000a81548173ffffffffffffffffffffffffffffffffffffffff021916908373ffffffffffffffffffffffffffffffffffffffff16021790555081600460006101000a81548173ffffffffffffffffffffffffffffffffffffffff021916908373ffffffffffffffffffffffffffffffffffffffff16021790555080600560006101000a81548173ffffffffffffffffffffffffffffffffffffffff021916908373ffffffffffffffffffffffffffffffffffffffff16021790555050505050565b60065481565b600981815481106112f657600080fd5b90600052602060002090600702016000915090508060000154908060010154908060020154908060030154908060040154908060050154908060060160009054906101000a900460ff16908060060160019054906101000a900460ff16908060060160029054906101000a900460ff16908060060160039054906101000a900460ff16908060060160049054906101000a900460ff16908060060160059054906101000a900460ff1690508c565b60006113b2600160066113ba565b60ff16905090565b6000600160008154809291906113cf90612c04565b9190505550600033600154426040516020016113ed93929190613164565b6040516020818303038152906040528051906020012060001c90506000600185856114189190612ea3565b6114229190612ed7565b90508460ff168160ff168361143791906131a1565b6114419190612de1565b9250505092915050565b60606000600a600084815260200190815260200160002080549050905060008167ffffffffffffffff811115611484576114836123b4565b5b6040519080825280602002602001820160405280156114bd57816020015b6114aa611dbb565b8152602001906001900390816114a25790505b50905060005b600980549050811015611682576009600a600087815260200190815260200160002082815481106114f7576114f66131d2565b5b906000526020600020015481548110611513576115126131d2565b5b9060005260206000209060070201604051806101800160405290816000820154815260200160018201548152602001600282015481526020016003820154815260200160048201548152602001600582015481526020016006820160009054906101000a900460ff16600281111561158e5761158d61266a565b5b60028111156115a05761159f61266a565b5b81526020016006820160019054906101000a900460ff1660ff1660ff1681526020016006820160029054906101000a900460ff1660ff1660ff1681526020016006820160039054906101000a900460ff1660038111156116035761160261266a565b5b60038111156116155761161461266a565b5b81526020016006820160049054906101000a900460ff1660ff1660ff1681526020016006820160059054906101000a900460ff161515151581525050828281518110611664576116636131d2565b5b6020026020010181905250808061167a90612c04565b9150506114c3565b508092505050919050565b6000806116986113a4565b90507f2729adc6efc811c2141edf691ce91423fbcd06f2d8fe8be0a13b24e47d1050c48185856040516116cd93929190613201565b60405180910390a160018114156116e8576000915050611717565b60038385836116f79190612de1565b6117019190613238565b1315611711576001915050611717565b60009150505b92915050565b600760019054906101000a900473ffffffffffffffffffffffffffffffffffffffff1681565b61174b6118e8565b600073ffffffffffffffffffffffffffffffffffffffff168173ffffffffffffffffffffffffffffffffffffffff1614156117bb576040517f08c379a00000000000000000000000000000000000000000000000000000000081526004016117b29061333e565b60405180910390fd5b6117c481611966565b50565b60006001826000015184600001516117df919061336b565b60000b14156117f157600090506118e2565b7fffffffffffffffffffffffffffffffffffffffffffffffffffffffffffffffff82600001518460000151611826919061336b565b60000b141561183857600190506118e2565b7fffffffffffffffffffffffffffffffffffffffffffffffffffffffffffffffff8260200151846020015161186d919061336b565b60000b141561187f57600290506118e2565b600182602001518460200151611895919061336b565b60000b14156118a757600390506118e2565b6040517f08c379a00000000000000000000000000000000000000000000000000000000081526004016118d99061342c565b60405180910390fd5b92915050565b6118f0611d52565b73ffffffffffffffffffffffffffffffffffffffff1661190e610cbd565b73ffffffffffffffffffffffffffffffffffffffff1614611964576040517f08c379a000000000000000000000000000000000000000000000000000000000815260040161195b90613498565b60405180910390fd5b565b60008060009054906101000a900473ffffffffffffffffffffffffffffffffffffffff169050816000806101000a81548173ffffffffffffffffffffffffffffffffffffffff021916908373ffffffffffffffffffffffffffffffffffffffff1602179055508173ffffffffffffffffffffffffffffffffffffffff168173ffffffffffffffffffffffffffffffffffffffff167f8be0079c531659141344cd1fd0a4f28419497f9722a3daafe3b4186f6b6457e060405160405180910390a35050565b6000600460009054906101000a900473ffffffffffffffffffffffffffffffffffffffff1673ffffffffffffffffffffffffffffffffffffffff16639b6507f064174876e80060046000866040518563ffffffff1660e01b8152600401611a939392919061352e565b60206040518083038185885af1158015611ab1573d6000803e3d6000fd5b50505050506040513d601f19601f82011682018060405250810190611ad6919061357a565b90506000600460009054906101000a900473ffffffffffffffffffffffffffffffffffffffff1673ffffffffffffffffffffffffffffffffffffffff166328518381836040518263ffffffff1660e01b8152600401611b3591906122ee565b602060405180830381865afa158015611b52573d6000803e3d6000fd5b505050506040513d601f19601f82011682018060405250810190611b7691906135bc565b90506000600960018160018154018082558091505003906000526020600020906007020190508181600001819055506001600980549050611bb79190612d4d565b81600101819055508281600201819055508481600301819055506001816004018190555060008160050181905550600b611bfe836004611bf960016000610b80565b610e2b565b60ff161015611c0e576001611c11565b60025b8160060160006101000a81548160ff02191690836002811115611c3757611c3661266a565b5b021790555060008160060160016101000a81548160ff021916908360ff16021790555060008160060160026101000a81548160ff021916908360ff160217905550611c9a611c92836004611c8d60006001610b80565b610e2b565b60ff16611d5a565b8160060160036101000a81548160ff02191690836003811115611cc057611cbf61266a565b5b021790555060018160060160046101000a81548160ff021916908360ff16021790555060018160060160056101000a81548160ff021916908315150217905550600a60008681526020019081526020016000206001600980549050611d259190612d4d565b90806001815401808255809150506001900390600052602060002001600090919091909150555050505050565b600033905090565b600080821415611d6d5760009050611d96565b6000821415611d7f5760009050611d96565b6000821415611d915760029050611d96565b600390505b919050565b6040518060400160405280600060ff168152602001600060ff1681525090565b60405180610180016040528060008019168152602001600081526020016000815260200160008152602001600081526020016000815260200160006002811115611e0857611e0761266a565b5b8152602001600060ff168152602001600060ff16815260200160006003811115611e3557611e3461266a565b5b8152602001600060ff1681526020016000151581525090565b600073ffffffffffffffffffffffffffffffffffffffff82169050919050565b6000819050919050565b6000611e93611e8e611e8984611e4e565b611e6e565b611e4e565b9050919050565b6000611ea582611e78565b9050919050565b6000611eb782611e9a565b9050919050565b611ec781611eac565b82525050565b6000602082019050611ee26000830184611ebe565b92915050565b6000604051905090565b600080fd5b600080fd5b6000611f0782611e4e565b9050919050565b611f1781611efc565b8114611f2257600080fd5b50565b600081359050611f3481611f0e565b92915050565b6000819050919050565b611f4d81611f3a565b8114611f5857600080fd5b50565b600081359050611f6a81611f44565b92915050565b600080fd5b600080fd5b600080fd5b60008083601f840112611f9557611f94611f70565b5b8235905067ffffffffffffffff811115611fb257611fb1611f75565b5b602083019150836001820283011115611fce57611fcd611f7a565b5b9250929050565b600080600080600060808688031215611ff157611ff0611ef2565b5b6000611fff88828901611f25565b955050602061201088828901611f25565b945050604061202188828901611f5b565b935050606086013567ffffffffffffffff81111561204257612041611ef7565b5b61204e88828901611f7f565b92509250509295509295909350565b60007fffffffff0000000000000000000000000000000000000000000000000000000082169050919050565b6120928161205d565b82525050565b60006020820190506120ad6000830184612089565b92915050565b6120bc81611efc565b82525050565b60006020820190506120d760008301846120b3565b92915050565b6000819050919050565b6120f0816120dd565b81146120fb57600080fd5b50565b60008135905061210d816120e7565b92915050565b60006020828403121561212957612128611ef2565b5b6000612137848285016120fe565b91505092915050565b612149816120dd565b82525050565b60006020820190506121646000830184612140565b92915050565b6000819050919050565b61217d8161216a565b82525050565b60006020820190506121986000830184612174565b92915050565b60008115159050919050565b6121b38161219e565b82525050565b60006020820190506121ce60008301846121aa565b92915050565b6000602082840312156121ea576121e9611ef2565b5b60006121f884828501611f5b565b91505092915050565b6000806000806080858703121561221b5761221a611ef2565b5b600061222987828801611f5b565b945050602061223a87828801611f5b565b935050604061224b87828801611f5b565b925050606061225c87828801611f5b565b91505092959194509250565b600060ff82169050919050565b61227e81612268565b82525050565b60006020820190506122996000830184612275565b92915050565b600080604083850312156122b6576122b5611ef2565b5b60006122c485828601611f5b565b92505060206122d585828601611f5b565b9150509250929050565b6122e881611f3a565b82525050565b600060208201905061230360008301846122df565b92915050565b600061231482611e9a565b9050919050565b61232481612309565b82525050565b600060208201905061233f600083018461231b565b92915050565b61234e8161219e565b811461235957600080fd5b50565b60008135905061236b81612345565b92915050565b60006020828403121561238757612386611ef2565b5b60006123958482850161235c565b91505092915050565b600080fd5b6000601f19601f8301169050919050565b7f4e487b7100000000000000000000000000000000000000000000000000000000600052604160045260246000fd5b6123ec826123a3565b810181811067ffffffffffffffff8211171561240b5761240a6123b4565b5b80604052505050565b600061241e611ee8565b905061242a82826123e3565b919050565b61243881612268565b811461244357600080fd5b50565b6000813590506124558161242f565b92915050565b6000604082840312156124715761247061239e565b5b61247b6040612414565b9050600061248b84828501612446565b600083015250602061249f84828501612446565b60208301525092915050565b600080606083850312156124c2576124c1611ef2565b5b60006124d085828601611f5b565b92505060206124e18582860161245b565b9150509250929050565b6124f481612268565b82525050565b60408201600082015161251060008501826124eb565b50602082015161252360208501826124eb565b50505050565b600060408201905061253e60008301846124fa565b92915050565b61254d8161216a565b811461255857600080fd5b50565b60008135905061256a81612544565b92915050565b60008060006060848603121561258957612588611ef2565b5b60006125978682870161255b565b93505060206125a886828701611f5b565b92505060406125b986828701611f5b565b9150509250925092565b600080604083850312156125da576125d9611ef2565b5b60006125e885828601611f5b565b92505060206125f985828601611f25565b9150509250929050565b6000806000806080858703121561261d5761261c611ef2565b5b600061262b87828801611f25565b945050602061263c87828801611f25565b935050604061264d87828801611f25565b925050606061265e87828801611f25565b91505092959194509250565b7f4e487b7100000000000000000000000000000000000000000000000000000000600052602160045260246000fd5b600381106126aa576126a961266a565b5b50565b60008190506126bb82612699565b919050565b60006126cb826126ad565b9050919050565b6126db816126c0565b82525050565b600481106126f2576126f161266a565b5b50565b6000819050612703826126e1565b919050565b6000612713826126f5565b9050919050565b61272381612708565b82525050565b60006101808201905061273f600083018f612174565b61274c602083018e6122df565b612759604083018d6122df565b612766606083018c6122df565b612773608083018b6122df565b61278060a083018a6122df565b61278d60c08301896126d2565b61279a60e0830188612275565b6127a8610100830187612275565b6127b661012083018661271a565b6127c4610140830185612275565b6127d26101608301846121aa565b9d9c50505050505050505050505050565b600080604083850312156127fa576127f9611ef2565b5b600061280885828601612446565b925050602061281985828601612446565b9150509250929050565b600081519050919050565b600082825260208201905092915050565b6000819050602082019050919050565b6128588161216a565b82525050565b61286781611f3a565b82525050565b612876816126c0565b82525050565b61288581612708565b82525050565b6128948161219e565b82525050565b610180820160008201516128b1600085018261284f565b5060208201516128c4602085018261285e565b5060408201516128d7604085018261285e565b5060608201516128ea606085018261285e565b5060808201516128fd608085018261285e565b5060a082015161291060a085018261285e565b5060c082015161292360c085018261286d565b5060e082015161293660e08501826124eb565b5061010082015161294b6101008501826124eb565b5061012082015161296061012085018261287c565b506101408201516129756101408501826124eb565b5061016082015161298a61016085018261288b565b50505050565b600061299c838361289a565b6101808301905092915050565b6000602082019050919050565b60006129c182612823565b6129cb818561282e565b93506129d68361283f565b8060005b83811015612a075781516129ee8882612990565b97506129f9836129a9565b9250506001810190506129da565b5085935050505092915050565b60006020820190508181036000830152612a2e81846129b6565b905092915050565b600060208284031215612a4c57612a4b611ef2565b5b6000612a5a84828501611f25565b91505092915050565b60008060808385031215612a7a57612a79611ef2565b5b6000612a888582860161245b565b9250506040612a998582860161245b565b9150509250929050565b600082825260208201905092915050565b7f496e636f7272656374207061796d656e74000000000000000000000000000000600082015250565b6000612aea601183612aa3565b9150612af582612ab4565b602082019050919050565b60006020820190508181036000830152612b1981612add565b9050919050565b7f4d696e74696e67206973206e6f74206163746976650000000000000000000000600082015250565b6000612b56601583612aa3565b9150612b6182612b20565b602082019050919050565b60006020820190508181036000830152612b8581612b49565b9050919050565b7f4e487b7100000000000000000000000000000000000000000000000000000000600052601160045260246000fd5b6000612bc6826120dd565b91507f8000000000000000000000000000000000000000000000000000000000000000821415612bf957612bf8612b8c565b5b816000039050919050565b6000612c0f82611f3a565b91507fffffffffffffffffffffffffffffffffffffffffffffffffffffffffffffffff821415612c4257612c41612b8c565b5b600182019050919050565b6000819050919050565b612c68612c6382611f3a565b612c4d565b82525050565b60008160601b9050919050565b6000612c8682612c6e565b9050919050565b6000612c9882612c7b565b9050919050565b612cb0612cab82611efc565b612c8d565b82525050565b6000612cc28286612c57565b602082019150612cd28285612c57565b602082019150612ce28284612c9f565b601482019150819050949350505050565b6000612cfe82611f3a565b9150612d0983611f3a565b9250817fffffffffffffffffffffffffffffffffffffffffffffffffffffffffffffffff0483118215151615612d4257612d41612b8c565b5b828202905092915050565b6000612d5882611f3a565b9150612d6383611f3a565b925082821015612d7657612d75612b8c565b5b828203905092915050565b7f4e487b7100000000000000000000000000000000000000000000000000000000600052601260045260246000fd5b6000612dbb82611f3a565b9150612dc683611f3a565b925082612dd657612dd5612d81565b5b828204905092915050565b6000612dec82611f3a565b9150612df783611f3a565b9250827fffffffffffffffffffffffffffffffffffffffffffffffffffffffffffffffff03821115612e2c57612e2b612b8c565b5b828201905092915050565b7f42616420646972656374696f6e00000000000000000000000000000000000000600082015250565b6000612e6d600d83612aa3565b9150612e7882612e37565b602082019050919050565b60006020820190508181036000830152612e9c81612e60565b9050919050565b6000612eae82612268565b9150612eb983612268565b925082821015612ecc57612ecb612b8c565b5b828203905092915050565b6000612ee282612268565b9150612eed83612268565b92508260ff03821115612f0357612f02612b8c565b5b828201905092915050565b7f496e76616c696420646972656374696f6e000000000000000000000000000000600082015250565b6000612f44601183612aa3565b9150612f4f82612f0e565b602082019050919050565b60006020820190508181036000830152612f7381612f37565b9050919050565b60008160011c9050919050565b6000808291508390505b6001851115612fd157808604811115612fad57612fac612b8c565b5b6001851615612fbc5780820291505b8081029050612fca85612f7a565b9450612f91565b94509492505050565b600082612fea57600190506130a6565b81612ff857600090506130a6565b816001811461300e576002811461301857613047565b60019150506130a6565b60ff84111561302a57613029612b8c565b5b8360020a91508482111561304157613040612b8c565b5b506130a6565b5060208310610133831016604e8410600b841016171561307c5782820a90508381111561307757613076612b8c565b5b6130a6565b6130898484846001612f87565b925090508184048111156130a05761309f612b8c565b5b81810290505b9392505050565b60006130b882611f3a565b91506130c383611f3a565b92506130f07fffffffffffffffffffffffffffffffffffffffffffffffffffffffffffffffff8484612fda565b905092915050565b7f436f6e7472616374206e6f7420616c6c6f776564000000000000000000000000600082015250565b600061312e601483612aa3565b9150613139826130f8565b602082019050919050565b6000602082019050818103600083015261315d81613121565b9050919050565b60006131708286612c9f565b6014820191506131808285612c57565b6020820191506131908284612c57565b602082019150819050949350505050565b60006131ac82611f3a565b91506131b783611f3a565b9250826131c7576131c6612d81565b5b828206905092915050565b7f4e487b7100000000000000000000000000000000000000000000000000000000600052603260045260246000fd5b600060608201905061321660008301866122df565b61322360208301856122df565b61323060408301846122df565b949350505050565b6000613243826120dd565b915061324e836120dd565b9250827f80000000000000000000000000000000000000000000000000000000000000000182126000841215161561328957613288612b8c565b5b827f7fffffffffffffffffffffffffffffffffffffffffffffffffffffffffffffff0182136000841216156132c1576132c0612b8c565b5b828203905092915050565b7f4f776e61626c653a206e6577206f776e657220697320746865207a65726f206160008201527f6464726573730000000000000000000000000000000000000000000000000000602082015250565b6000613328602683612aa3565b9150613333826132cc565b604082019050919050565b600060208201905081810360008301526133578161331b565b9050919050565b60008160000b9050919050565b60006133768261335e565b91506133818361335e565b9250827fffffffffffffffffffffffffffffffffffffffffffffffffffffffffffffff80018212600084121516156133bc576133bb612b8c565b5b82607f0182136000841216156133d5576133d4612b8c565b5b828203905092915050565b7f4572726f723a204e6f742061646a6163656e7400000000000000000000000000600082015250565b6000613416601383612aa3565b9150613421826133e0565b602082019050919050565b6000602082019050818103600083015261344581613409565b9050919050565b7f4f776e61626c653a2063616c6c6572206973206e6f7420746865206f776e6572600082015250565b6000613482602083612aa3565b915061348d8261344c565b602082019050919050565b600060208201905081810360008301526134b181613475565b9050919050565b6000819050919050565b60006134dd6134d86134d3846134b8565b611e6e565b611f3a565b9050919050565b6134ed816134c2565b82525050565b6000819050919050565b600061351861351361350e846134f3565b611e6e565b611f3a565b9050919050565b613528816134fd565b82525050565b600060608201905061354360008301866134e4565b613550602083018561351f565b61355d60408301846120b3565b949350505050565b60008151905061357481611f44565b92915050565b6000602082840312156135905761358f611ef2565b5b600061359e84828501613565565b91505092915050565b6000815190506135b681612544565b92915050565b6000602082840312156135d2576135d1611ef2565b5b60006135e0848285016135a7565b9150509291505056fea26469706673582212207dc3b26f869712b1075b9ff6d1a79d7a0915e37483f36b18709a62f216b8dfbd64736f6c634300080c0033",
  "devdoc": {
    "kind": "dev",
    "methods": {
      "owner()": {
        "details": "Returns the address of the current owner."
      },
      "renounceOwnership()": {
        "details": "Leaves the contract without owner. It will not be possible to call `onlyOwner` functions anymore. Can only be called by the current owner. NOTE: Renouncing ownership will leave the contract without an owner, thereby removing any functionality that is only available to the owner."
      },
      "transferOwnership(address)": {
        "details": "Transfers ownership of the contract to a new account (`newOwner`). Can only be called by the current owner."
      }
    },
    "version": 1
  },
  "userdoc": {
    "kind": "user",
    "methods": {},
    "version": 1
  },
  "storageLayout": {
    "storage": [
      {
        "astId": 7,
        "contract": "contracts/BCItems.sol:BCItems",
        "label": "_owner",
        "offset": 0,
        "slot": "0",
        "type": "t_address"
      },
      {
        "astId": 2597,
        "contract": "contracts/BCItems.sol:BCItems",
        "label": "TODO_randomSeed",
        "offset": 0,
        "slot": "1",
        "type": "t_uint256"
      },
      {
        "astId": 211,
        "contract": "contracts/BCItems.sol:BCItems",
        "label": "lobbies",
        "offset": 0,
        "slot": "2",
        "type": "t_contract(LobbyInterface)160"
      },
      {
        "astId": 213,
        "contract": "contracts/BCItems.sol:BCItems",
        "label": "gamesContract",
        "offset": 0,
        "slot": "3",
        "type": "t_address"
      },
      {
        "astId": 216,
        "contract": "contracts/BCItems.sol:BCItems",
        "label": "uif",
        "offset": 0,
        "slot": "4",
        "type": "t_contract(UIFInterface)202"
      },
      {
        "astId": 218,
        "contract": "contracts/BCItems.sol:BCItems",
        "label": "actionsContract",
        "offset": 0,
        "slot": "5",
        "type": "t_address"
      },
      {
        "astId": 259,
        "contract": "contracts/BCItems.sol:BCItems",
        "label": "mintCost",
        "offset": 0,
        "slot": "6",
        "type": "t_uint256"
      },
      {
        "astId": 262,
        "contract": "contracts/BCItems.sol:BCItems",
        "label": "mintIsActive",
        "offset": 0,
        "slot": "7",
        "type": "t_bool"
      },
      {
        "astId": 266,
        "contract": "contracts/BCItems.sol:BCItems",
        "label": "allowedContract",
        "offset": 1,
        "slot": "7",
        "type": "t_address"
      },
      {
        "astId": 269,
        "contract": "contracts/BCItems.sol:BCItems",
        "label": "randSeed",
        "offset": 0,
        "slot": "8",
        "type": "t_uint256"
      },
      {
        "astId": 273,
        "contract": "contracts/BCItems.sol:BCItems",
        "label": "items",
        "offset": 0,
        "slot": "9",
        "type": "t_array(t_struct(Item)2578_storage)dyn_storage"
      },
      {
        "astId": 278,
        "contract": "contracts/BCItems.sol:BCItems",
        "label": "playerToItems",
        "offset": 0,
        "slot": "10",
        "type": "t_mapping(t_uint256,t_array(t_uint256)dyn_storage)"
      },
      {
        "astId": 282,
        "contract": "contracts/BCItems.sol:BCItems",
        "label": "itemTraitModifiers",
        "offset": 0,
        "slot": "11",
        "type": "t_array(t_struct(Traits)2522_storage)dyn_storage"
      }
    ],
    "types": {
      "t_address": {
        "encoding": "inplace",
        "label": "address",
        "numberOfBytes": "20"
      },
      "t_array(t_struct(Item)2578_storage)dyn_storage": {
        "base": "t_struct(Item)2578_storage",
        "encoding": "dynamic_array",
        "label": "struct BCTypes.Item[]",
        "numberOfBytes": "32"
      },
      "t_array(t_struct(Traits)2522_storage)dyn_storage": {
        "base": "t_struct(Traits)2522_storage",
        "encoding": "dynamic_array",
        "label": "struct BCTypes.Traits[]",
        "numberOfBytes": "32"
      },
      "t_array(t_uint256)dyn_storage": {
        "base": "t_uint256",
        "encoding": "dynamic_array",
        "label": "uint256[]",
        "numberOfBytes": "32"
      },
      "t_bool": {
        "encoding": "inplace",
        "label": "bool",
        "numberOfBytes": "1"
      },
      "t_bytes32": {
        "encoding": "inplace",
        "label": "bytes32",
        "numberOfBytes": "32"
      },
      "t_contract(LobbyInterface)160": {
        "encoding": "inplace",
        "label": "contract LobbyInterface",
        "numberOfBytes": "20"
      },
      "t_contract(UIFInterface)202": {
        "encoding": "inplace",
        "label": "contract UIFInterface",
        "numberOfBytes": "20"
      },
      "t_enum(ItemCategory)2546": {
        "encoding": "inplace",
        "label": "enum BCTypes.ItemCategory",
        "numberOfBytes": "1"
      },
      "t_enum(ItemType)2551": {
        "encoding": "inplace",
        "label": "enum BCTypes.ItemType",
        "numberOfBytes": "1"
      },
      "t_mapping(t_uint256,t_array(t_uint256)dyn_storage)": {
        "encoding": "mapping",
        "key": "t_uint256",
        "label": "mapping(uint256 => uint256[])",
        "numberOfBytes": "32",
        "value": "t_array(t_uint256)dyn_storage"
      },
      "t_struct(Item)2578_storage": {
        "encoding": "inplace",
        "label": "struct BCTypes.Item",
        "members": [
          {
            "astId": 2553,
            "contract": "contracts/BCItems.sol:BCItems",
            "label": "genHash",
            "offset": 0,
            "slot": "0",
            "type": "t_bytes32"
          },
          {
            "astId": 2555,
            "contract": "contracts/BCItems.sol:BCItems",
            "label": "id",
            "offset": 0,
            "slot": "1",
            "type": "t_uint256"
          },
          {
            "astId": 2557,
            "contract": "contracts/BCItems.sol:BCItems",
            "label": "uifID",
            "offset": 0,
            "slot": "2",
            "type": "t_uint256"
          },
          {
            "astId": 2559,
            "contract": "contracts/BCItems.sol:BCItems",
            "label": "holdingPlayerId",
            "offset": 0,
            "slot": "3",
            "type": "t_uint256"
          },
          {
            "astId": 2561,
            "contract": "contracts/BCItems.sol:BCItems",
            "label": "weight",
            "offset": 0,
            "slot": "4",
            "type": "t_uint256"
          },
          {
            "astId": 2563,
            "contract": "contracts/BCItems.sol:BCItems",
            "label": "traitModID",
            "offset": 0,
            "slot": "5",
            "type": "t_uint256"
          },
          {
            "astId": 2566,
            "contract": "contracts/BCItems.sol:BCItems",
            "label": "itemCategory",
            "offset": 0,
            "slot": "6",
            "type": "t_enum(ItemCategory)2546"
          },
          {
            "astId": 2568,
            "contract": "contracts/BCItems.sol:BCItems",
            "label": "grantsAbility",
            "offset": 1,
            "slot": "6",
            "type": "t_uint8"
          },
          {
            "astId": 2570,
            "contract": "contracts/BCItems.sol:BCItems",
            "label": "grantsFlaw",
            "offset": 2,
            "slot": "6",
            "type": "t_uint8"
          },
          {
            "astId": 2573,
            "contract": "contracts/BCItems.sol:BCItems",
            "label": "itemType",
            "offset": 3,
            "slot": "6",
            "type": "t_enum(ItemType)2551"
          },
          {
            "astId": 2575,
            "contract": "contracts/BCItems.sol:BCItems",
            "label": "power",
            "offset": 4,
            "slot": "6",
            "type": "t_uint8"
          },
          {
            "astId": 2577,
            "contract": "contracts/BCItems.sol:BCItems",
            "label": "inGame",
            "offset": 5,
            "slot": "6",
            "type": "t_bool"
          }
        ],
        "numberOfBytes": "224"
      },
      "t_struct(Traits)2522_storage": {
        "encoding": "inplace",
        "label": "struct BCTypes.Traits",
        "members": [
          {
            "astId": 2509,
            "contract": "contracts/BCItems.sol:BCItems",
            "label": "health",
            "offset": 0,
            "slot": "0",
            "type": "t_uint8"
          },
          {
            "astId": 2511,
            "contract": "contracts/BCItems.sol:BCItems",
            "label": "carry",
            "offset": 1,
            "slot": "0",
            "type": "t_uint8"
          },
          {
            "astId": 2513,
            "contract": "contracts/BCItems.sol:BCItems",
            "label": "defense",
            "offset": 2,
            "slot": "0",
            "type": "t_uint8"
          },
          {
            "astId": 2515,
            "contract": "contracts/BCItems.sol:BCItems",
            "label": "hack",
            "offset": 3,
            "slot": "0",
            "type": "t_uint8"
          },
          {
            "astId": 2517,
            "contract": "contracts/BCItems.sol:BCItems",
            "label": "breach",
            "offset": 4,
            "slot": "0",
            "type": "t_uint8"
          },
          {
            "astId": 2519,
            "contract": "contracts/BCItems.sol:BCItems",
            "label": "shoot",
            "offset": 5,
            "slot": "0",
            "type": "t_uint8"
          },
          {
            "astId": 2521,
            "contract": "contracts/BCItems.sol:BCItems",
            "label": "melee",
            "offset": 6,
            "slot": "0",
            "type": "t_uint8"
          }
        ],
        "numberOfBytes": "32"
      },
      "t_uint256": {
        "encoding": "inplace",
        "label": "uint256",
        "numberOfBytes": "32"
      },
      "t_uint8": {
        "encoding": "inplace",
        "label": "uint8",
        "numberOfBytes": "1"
      }
    }
  }
}