{
  "address": "0x201d21e0BE728f152a3f811346b9557D392f068d",
  "abi": [
    {
      "inputs": [],
      "stateMutability": "nonpayable",
      "type": "constructor"
    },
    {
      "anonymous": false,
      "inputs": [
        {
          "indexed": false,
          "internalType": "uint256",
          "name": "gameId",
          "type": "uint256"
        },
        {
          "indexed": false,
          "internalType": "uint256",
          "name": "roll",
          "type": "uint256"
        },
        {
          "indexed": false,
          "internalType": "uint256",
          "name": "forValue",
          "type": "uint256"
        },
        {
          "indexed": false,
          "internalType": "uint256",
          "name": "against",
          "type": "uint256"
        }
      ],
      "name": "ChallengeEvent",
      "type": "event"
    },
    {
      "anonymous": false,
      "inputs": [
        {
          "indexed": false,
          "internalType": "uint256",
          "name": "gameId",
          "type": "uint256"
        },
        {
          "indexed": false,
          "internalType": "uint256",
          "name": "roll",
          "type": "uint256"
        }
      ],
      "name": "DiceRollEvent",
      "type": "event"
    },
    {
      "anonymous": false,
      "inputs": [
        {
          "indexed": true,
          "internalType": "address",
          "name": "previousOwner",
          "type": "address"
        },
        {
          "indexed": true,
          "internalType": "address",
          "name": "newOwner",
          "type": "address"
        }
      ],
      "name": "OwnershipTransferred",
      "type": "event"
    },
    {
      "anonymous": false,
      "inputs": [],
      "name": "Received",
      "type": "event"
    },
    {
      "inputs": [
        {
          "internalType": "uint256",
          "name": "_matic",
          "type": "uint256"
        }
      ],
      "name": "SetMintCostInMatic",
      "outputs": [],
      "stateMutability": "nonpayable",
      "type": "function"
    },
    {
      "inputs": [
        {
          "internalType": "int256",
          "name": "x",
          "type": "int256"
        }
      ],
      "name": "abs",
      "outputs": [
        {
          "internalType": "int256",
          "name": "",
          "type": "int256"
        }
      ],
      "stateMutability": "pure",
      "type": "function"
    },
    {
      "inputs": [],
      "name": "actionsContract",
      "outputs": [
        {
          "internalType": "address",
          "name": "",
          "type": "address"
        }
      ],
      "stateMutability": "view",
      "type": "function"
    },
    {
      "inputs": [],
      "name": "allowedContract",
      "outputs": [
        {
          "internalType": "address",
          "name": "",
          "type": "address"
        }
      ],
      "stateMutability": "view",
      "type": "function"
    },
    {
      "inputs": [],
      "name": "commitItemToMission",
      "outputs": [],
      "stateMutability": "nonpayable",
      "type": "function"
    },
    {
      "inputs": [
        {
          "internalType": "uint256",
          "name": "_playerId",
          "type": "uint256"
        },
        {
          "internalType": "uint256",
          "name": "_itemId",
          "type": "uint256"
        }
      ],
      "name": "destroyItem",
      "outputs": [],
      "stateMutability": "nonpayable",
      "type": "function"
    },
    {
      "inputs": [],
      "name": "games",
      "outputs": [
        {
          "internalType": "contract GameInterface",
          "name": "",
          "type": "address"
        }
      ],
      "stateMutability": "view",
      "type": "function"
    },
    {
      "inputs": [],
      "name": "gamesContract",
      "outputs": [
        {
          "internalType": "address",
          "name": "",
          "type": "address"
        }
      ],
      "stateMutability": "view",
      "type": "function"
    },
    {
      "inputs": [
        {
          "components": [
            {
              "internalType": "uint8",
              "name": "row",
              "type": "uint8"
            },
            {
              "internalType": "uint8",
              "name": "col",
              "type": "uint8"
            }
          ],
          "internalType": "struct BCTypes.Position",
          "name": "_firstRoom",
          "type": "tuple"
        },
        {
          "components": [
            {
              "internalType": "uint8",
              "name": "row",
              "type": "uint8"
            },
            {
              "internalType": "uint8",
              "name": "col",
              "type": "uint8"
            }
          ],
          "internalType": "struct BCTypes.Position",
          "name": "_secondRoom",
          "type": "tuple"
        }
      ],
      "name": "getDirectionBetween",
      "outputs": [
        {
          "internalType": "uint256",
          "name": "",
          "type": "uint256"
        }
      ],
      "stateMutability": "pure",
      "type": "function"
    },
    {
      "inputs": [
        {
          "internalType": "uint256",
          "name": "_playerID",
          "type": "uint256"
        }
      ],
      "name": "getItemIDsByPlayer",
      "outputs": [
        {
          "internalType": "uint256[]",
          "name": "",
          "type": "uint256[]"
        }
      ],
      "stateMutability": "view",
      "type": "function"
    },
    {
      "inputs": [
        {
          "internalType": "uint256",
          "name": "_playerID",
          "type": "uint256"
        }
      ],
      "name": "getItemsByPlayer",
      "outputs": [
        {
          "components": [
            {
              "internalType": "bytes32",
              "name": "genHash",
              "type": "bytes32"
            },
            {
              "internalType": "uint256",
              "name": "id",
              "type": "uint256"
            },
            {
              "internalType": "uint256",
              "name": "uifID",
              "type": "uint256"
            },
            {
              "internalType": "uint256",
              "name": "holdingPlayerId",
              "type": "uint256"
            },
            {
              "internalType": "uint256",
              "name": "weight",
              "type": "uint256"
            },
            {
              "internalType": "uint256",
              "name": "traitModID",
              "type": "uint256"
            },
            {
              "internalType": "enum BCTypes.ItemCategory",
              "name": "itemCategory",
              "type": "uint8"
            },
            {
              "internalType": "uint8",
              "name": "grantsAbility",
              "type": "uint8"
            },
            {
              "internalType": "uint8",
              "name": "grantsFlaw",
              "type": "uint8"
            },
            {
              "internalType": "enum BCTypes.ItemType",
              "name": "itemType",
              "type": "uint8"
            },
            {
              "internalType": "uint8",
              "name": "power",
              "type": "uint8"
            },
            {
              "internalType": "bool",
              "name": "inGame",
              "type": "bool"
            }
          ],
          "internalType": "struct BCTypes.Item[]",
          "name": "",
          "type": "tuple[]"
        }
      ],
      "stateMutability": "view",
      "type": "function"
    },
    {
      "inputs": [
        {
          "internalType": "uint256",
          "name": "_direction",
          "type": "uint256"
        },
        {
          "components": [
            {
              "internalType": "uint8",
              "name": "row",
              "type": "uint8"
            },
            {
              "internalType": "uint8",
              "name": "col",
              "type": "uint8"
            }
          ],
          "internalType": "struct BCTypes.Position",
          "name": "_start",
          "type": "tuple"
        }
      ],
      "name": "getNeighborRoom",
      "outputs": [
        {
          "components": [
            {
              "internalType": "uint8",
              "name": "row",
              "type": "uint8"
            },
            {
              "internalType": "uint8",
              "name": "col",
              "type": "uint8"
            }
          ],
          "internalType": "struct BCTypes.Position",
          "name": "",
          "type": "tuple"
        }
      ],
      "stateMutability": "pure",
      "type": "function"
    },
    {
      "inputs": [
        {
          "internalType": "uint256",
          "name": "_playerId",
          "type": "uint256"
        }
      ],
      "name": "getTraitModifiers",
      "outputs": [
        {
          "components": [
            {
              "internalType": "int8",
              "name": "health",
              "type": "int8"
            },
            {
              "internalType": "int8",
              "name": "carry",
              "type": "int8"
            },
            {
              "internalType": "int8",
              "name": "defense",
              "type": "int8"
            },
            {
              "internalType": "int8",
              "name": "hack",
              "type": "int8"
            },
            {
              "internalType": "int8",
              "name": "breach",
              "type": "int8"
            },
            {
              "internalType": "int8",
              "name": "shoot",
              "type": "int8"
            },
            {
              "internalType": "int8",
              "name": "melee",
              "type": "int8"
            }
          ],
          "internalType": "struct BCTypes.Traits",
          "name": "",
          "type": "tuple"
        }
      ],
      "stateMutability": "view",
      "type": "function"
    },
    {
      "inputs": [
        {
          "internalType": "uint256",
          "name": "_traitNum",
          "type": "uint256"
        },
        {
          "internalType": "uint256",
          "name": "_subTraitNum",
          "type": "uint256"
        }
      ],
      "name": "getUIOffset",
      "outputs": [
        {
          "internalType": "uint256",
          "name": "",
          "type": "uint256"
        }
      ],
      "stateMutability": "pure",
      "type": "function"
    },
    {
      "inputs": [
        {
          "internalType": "uint256",
          "name": "",
          "type": "uint256"
        }
      ],
      "name": "items",
      "outputs": [
        {
          "internalType": "bytes32",
          "name": "genHash",
          "type": "bytes32"
        },
        {
          "internalType": "uint256",
          "name": "id",
          "type": "uint256"
        },
        {
          "internalType": "uint256",
          "name": "uifID",
          "type": "uint256"
        },
        {
          "internalType": "uint256",
          "name": "holdingPlayerId",
          "type": "uint256"
        },
        {
          "internalType": "uint256",
          "name": "weight",
          "type": "uint256"
        },
        {
          "internalType": "uint256",
          "name": "traitModID",
          "type": "uint256"
        },
        {
          "internalType": "enum BCTypes.ItemCategory",
          "name": "itemCategory",
          "type": "uint8"
        },
        {
          "internalType": "uint8",
          "name": "grantsAbility",
          "type": "uint8"
        },
        {
          "internalType": "uint8",
          "name": "grantsFlaw",
          "type": "uint8"
        },
        {
          "internalType": "enum BCTypes.ItemType",
          "name": "itemType",
          "type": "uint8"
        },
        {
          "internalType": "uint8",
          "name": "power",
          "type": "uint8"
        },
        {
          "internalType": "bool",
          "name": "inGame",
          "type": "bool"
        }
      ],
      "stateMutability": "view",
      "type": "function"
    },
    {
      "inputs": [],
      "name": "lobbies",
      "outputs": [
        {
          "internalType": "contract LobbyInterface",
          "name": "",
          "type": "address"
        }
      ],
      "stateMutability": "view",
      "type": "function"
    },
    {
      "inputs": [
        {
          "internalType": "uint256",
          "name": "_holdingPlayerId",
          "type": "uint256"
        },
        {
          "internalType": "address",
          "name": "_holderAddress",
          "type": "address"
        }
      ],
      "name": "lootItem",
      "outputs": [],
      "stateMutability": "payable",
      "type": "function"
    },
    {
      "inputs": [],
      "name": "mintCost",
      "outputs": [
        {
          "internalType": "uint256",
          "name": "",
          "type": "uint256"
        }
      ],
      "stateMutability": "view",
      "type": "function"
    },
    {
      "inputs": [],
      "name": "mintIsActive",
      "outputs": [
        {
          "internalType": "bool",
          "name": "",
          "type": "bool"
        }
      ],
      "stateMutability": "view",
      "type": "function"
    },
    {
      "inputs": [
        {
          "internalType": "uint256",
          "name": "_min",
          "type": "uint256"
        },
        {
          "internalType": "uint256",
          "name": "_max",
          "type": "uint256"
        },
        {
          "internalType": "uint256",
          "name": "_val",
          "type": "uint256"
        },
        {
          "internalType": "uint256",
          "name": "_valMax",
          "type": "uint256"
        }
      ],
      "name": "normalizeToSmallRange",
      "outputs": [
        {
          "internalType": "uint8",
          "name": "",
          "type": "uint8"
        }
      ],
      "stateMutability": "pure",
      "type": "function"
    },
    {
      "inputs": [
        {
          "internalType": "address",
          "name": "_operator",
          "type": "address"
        },
        {
          "internalType": "address",
          "name": "_from",
          "type": "address"
        },
        {
          "internalType": "uint256",
          "name": "_tokenId",
          "type": "uint256"
        },
        {
          "internalType": "bytes",
          "name": "_data",
          "type": "bytes"
        }
      ],
      "name": "onERC721Received",
      "outputs": [
        {
          "internalType": "bytes4",
          "name": "",
          "type": "bytes4"
        }
      ],
      "stateMutability": "nonpayable",
      "type": "function"
    },
    {
      "inputs": [
        {
          "internalType": "uint256",
          "name": "_direction",
          "type": "uint256"
        }
      ],
      "name": "opposite",
      "outputs": [
        {
          "internalType": "uint256",
          "name": "",
          "type": "uint256"
        }
      ],
      "stateMutability": "pure",
      "type": "function"
    },
    {
      "inputs": [],
      "name": "owner",
      "outputs": [
        {
          "internalType": "address",
          "name": "",
          "type": "address"
        }
      ],
      "stateMutability": "view",
      "type": "function"
    },
    {
      "inputs": [
        {
          "internalType": "uint256",
          "name": "_playerId",
          "type": "uint256"
        },
        {
          "internalType": "uint256[]",
          "name": "_itemIds",
          "type": "uint256[]"
        },
        {
          "internalType": "address",
          "name": "_newOwnerAddress",
          "type": "address"
        }
      ],
      "name": "pickupWorldItems",
      "outputs": [],
      "stateMutability": "nonpayable",
      "type": "function"
    },
    {
      "inputs": [],
      "name": "playersContract",
      "outputs": [
        {
          "internalType": "contract PlayersContract",
          "name": "",
          "type": "address"
        }
      ],
      "stateMutability": "view",
      "type": "function"
    },
    {
      "inputs": [],
      "name": "randKeccak",
      "outputs": [
        {
          "internalType": "bytes32",
          "name": "",
          "type": "bytes32"
        }
      ],
      "stateMutability": "nonpayable",
      "type": "function"
    },
    {
      "inputs": [],
      "name": "renounceOwnership",
      "outputs": [],
      "stateMutability": "nonpayable",
      "type": "function"
    },
    {
      "inputs": [
        {
          "internalType": "uint256",
          "name": "_gameId",
          "type": "uint256"
        },
        {
          "internalType": "uint256",
          "name": "_for",
          "type": "uint256"
        },
        {
          "internalType": "uint256",
          "name": "_against",
          "type": "uint256"
        }
      ],
      "name": "resolveChallenge",
      "outputs": [
        {
          "internalType": "bool",
          "name": "",
          "type": "bool"
        }
      ],
      "stateMutability": "nonpayable",
      "type": "function"
    },
    {
      "inputs": [
        {
          "internalType": "uint256",
          "name": "_gameId",
          "type": "uint256"
        }
      ],
      "name": "roll",
      "outputs": [
        {
          "internalType": "uint256",
          "name": "",
          "type": "uint256"
        }
      ],
      "stateMutability": "nonpayable",
      "type": "function"
    },
    {
      "inputs": [
        {
          "internalType": "address",
          "name": "_lobbyContractAddress",
          "type": "address"
        },
        {
          "internalType": "address",
          "name": "_gameContract",
          "type": "address"
        },
        {
          "internalType": "address",
          "name": "_UIFAddress",
          "type": "address"
        },
        {
          "internalType": "address",
          "name": "_actionsContract",
          "type": "address"
        },
        {
          "internalType": "address",
          "name": "_playersContract",
          "type": "address"
        }
      ],
      "name": "setContractAddresses",
      "outputs": [],
      "stateMutability": "nonpayable",
      "type": "function"
    },
    {
      "inputs": [
        {
          "internalType": "bool",
          "name": "_status",
          "type": "bool"
        }
      ],
      "name": "setMintingStatus",
      "outputs": [],
      "stateMutability": "nonpayable",
      "type": "function"
    },
    {
      "inputs": [
        {
          "internalType": "bytes32",
          "name": "_hash",
          "type": "bytes32"
        },
        {
          "internalType": "uint256",
          "name": "_size",
          "type": "uint256"
        },
        {
          "internalType": "uint256",
          "name": "_offset",
          "type": "uint256"
        }
      ],
      "name": "sliceHashToSmallInt",
      "outputs": [
        {
          "internalType": "uint8",
          "name": "",
          "type": "uint8"
        }
      ],
      "stateMutability": "pure",
      "type": "function"
    },
    {
      "inputs": [
        {
          "internalType": "uint8",
          "name": "_min",
          "type": "uint8"
        },
        {
          "internalType": "uint8",
          "name": "_max",
          "type": "uint8"
        }
      ],
      "name": "smallIntBetweenVals",
      "outputs": [
        {
          "internalType": "uint8",
          "name": "",
          "type": "uint8"
        }
      ],
      "stateMutability": "nonpayable",
      "type": "function"
    },
    {
      "inputs": [],
      "name": "spawnCompanyItem",
      "outputs": [],
      "stateMutability": "payable",
      "type": "function"
    },
    {
      "inputs": [
        {
          "internalType": "uint256",
          "name": "_gameId",
          "type": "uint256"
        },
        {
          "internalType": "uint256[]",
          "name": "_itemIds",
          "type": "uint256[]"
        },
        {
          "internalType": "uint256",
          "name": "_row",
          "type": "uint256"
        },
        {
          "internalType": "uint256",
          "name": "_col",
          "type": "uint256"
        },
        {
          "internalType": "uint256",
          "name": "_formerOwnerId",
          "type": "uint256"
        }
      ],
      "name": "spawnWorldItems",
      "outputs": [],
      "stateMutability": "nonpayable",
      "type": "function"
    },
    {
      "inputs": [],
      "name": "transferFundsOut",
      "outputs": [],
      "stateMutability": "nonpayable",
      "type": "function"
    },
    {
      "inputs": [
        {
          "internalType": "address",
          "name": "newOwner",
          "type": "address"
        }
      ],
      "name": "transferOwnership",
      "outputs": [],
      "stateMutability": "nonpayable",
      "type": "function"
    },
    {
      "inputs": [],
      "name": "uif",
      "outputs": [
        {
          "internalType": "contract UIFInterface",
          "name": "",
          "type": "address"
        }
      ],
      "stateMutability": "view",
      "type": "function"
    }
  ],
  "transactionHash": "0x92b05c562e0bfe76e3543b727ad24858de3bb796e915ed1c8e369aa0db33a519",
  "args": [],
  "numDeployments": 2,
  "solcInputHash": "7fa2662d47aa996f50a478880944955c",
  "bytecode": "0x60806040526000600181815564174876e8006008556009805460ff19169091179055600a5534801561003057600080fd5b5061003a3361003f565b61008f565b600080546001600160a01b038381166001600160a01b0319831681178455604051919092169283917f8be0079c531659141344cd1fd0a4f28419497f9722a3daafe3b4186f6b6457e09190a35050565b612eca806200009f6000396000f3fe6080604052600436106102255760003560e01c806364db84bf1161012357806397f34c3f116100ab578063ce28613f1161006f578063ce28613f14610702578063e847ae1e14610722578063e89d5a8914610742578063f2fde38b14610767578063fa3993c21461078757600080fd5b806397f34c3f14610654578063aa3eb1b514610674578063b78e665114610687578063bdb4b848146106b4578063bfb231d2146106ca57600080fd5b806376c8aa27116100f257806376c8aa27146105a95780638214f222146105b55780638da5cb5b146105d5578063951fc3fe146105f3578063955a015b1461063457600080fd5b806364db84bf14610534578063705498dc14610554578063715018a6146105745780637420aa361461058957600080fd5b80631ef2688c116101b157806347ef26b11161017557806347ef26b114610419578063501f9784146104a257806353011696146104c25780635dc96967146104f45780635f09c7821461051457600080fd5b80631ef2688c1461036d5780631f7b4f301461038d5780633838aed1146103ad5780633841fae1146103c2578063471a4294146103ef57600080fd5b8063150b7a02116101f8578063150b7a02146102b1578063154fa27a146102ea578063185ae9dc1461030a5780631b5ac4b51461032a5780631e1de2051461035857600080fd5b80630364f88c1461022a5780630fd8e8331461026757806311ff704714610271578063129f090314610291575b600080fd5b34801561023657600080fd5b5060025461024a906001600160a01b031681565b6040516001600160a01b0390911681526020015b60405180910390f35b61026f6107a7565b005b34801561027d57600080fd5b5061026f61028c3660046124e5565b610898565b34801561029d57600080fd5b5060075461024a906001600160a01b031681565b3480156102bd57600080fd5b506102d16102cc366004612560565b610b47565b6040516001600160e01b0319909116815260200161025e565b3480156102f657600080fd5b5060035461024a906001600160a01b031681565b34801561031657600080fd5b5060055461024a906001600160a01b031681565b34801561033657600080fd5b5061034a6103453660046125ff565b610b84565b60405190815260200161025e565b34801561036457600080fd5b5061034a610ba4565b34801561037957600080fd5b5061026f610388366004612618565b610c1c565b34801561039957600080fd5b5061034a6103a83660046125ff565b610e0a565b3480156103b957600080fd5b5061026f610e66565b3480156103ce57600080fd5b506103e26103dd3660046125ff565b610eab565b60405161025e9190612677565b3480156103fb57600080fd5b506009546104099060ff1681565b604051901515815260200161025e565b34801561042557600080fd5b506104396104343660046125ff565b610ec5565b60405161025e9190600060e0820190508251600081810b84526020850151810b60208501526040850151810b60408501526060850151810b60608501526080850151810b608085015260a0850151810b60a085015260c0850151810b60c0850152505092915050565b3480156104ae57600080fd5b5061026f6104bd3660046125ff565b61125c565b3480156104ce57600080fd5b506104e26104dd3660046126bb565b61127c565b60405160ff909116815260200161025e565b34801561050057600080fd5b5061040961050f3660046126ed565b6112b9565b34801561052057600080fd5b5061026f61052f366004612719565b611356565b34801561054057600080fd5b5061034a61054f366004612719565b61147c565b34801561056057600080fd5b5060045461024a906001600160a01b031681565b34801561058057600080fd5b5061026f611494565b34801561059557600080fd5b5061026f6105a436600461273b565b6114a6565b34801561026f57600080fd5b3480156105c157600080fd5b5061034a6105d03660046125ff565b6114c1565b3480156105e157600080fd5b506000546001600160a01b031661024a565b3480156105ff57600080fd5b5061061361060e3660046127f0565b61153b565b60408051825160ff908116825260209384015116928101929092520161025e565b34801561064057600080fd5b5060065461024a906001600160a01b031681565b34801561066057600080fd5b506104e261066f3660046126ed565b611665565b61026f61068236600461281d565b611690565b34801561069357600080fd5b506106a76106a23660046125ff565b61179d565b60405161025e9190612887565b3480156106c057600080fd5b5061034a60085481565b3480156106d657600080fd5b506106ea6106e53660046125ff565b611987565b60405161025e9c9b9a99989796959493929190612965565b34801561070e57600080fd5b506104e261071d3660046129e1565b611a09565b34801561072e57600080fd5b5061026f61073d366004612a0b565b611ab9565b34801561074e57600080fd5b5060095461024a9061010090046001600160a01b031681565b34801561077357600080fd5b5061026f610782366004612a7c565b611b2a565b34801561079357600080fd5b5061034a6107a2366004612a99565b611ba0565b6000546001600160a01b03163314806107c1575060085434145b6108065760405162461bcd60e51b8152602060048201526011602482015270125b98dbdc9c9958dd081c185e5b595b9d607a1b60448201526064015b60405180910390fd5b6000546001600160a01b0316331480610826575060095460ff1615156001145b61086a5760405162461bcd60e51b81526020600482015260156024820152744d696e74696e67206973206e6f742061637469766560581b60448201526064016107fd565b6000546001600160a01b031633148061088d57506003546001600160a01b031633145b61089657600080fd5b565b6005546001600160a01b031633146108e95760405162461bcd60e51b8152602060048201526014602482015273139bdd081858dd1a5bdb9cc818dbdb9d1c9858dd60621b60448201526064016107fd565b6007546000906001600160a01b0316636621a421600b8888858161090f5761090f612ac5565b905060200201358154811061092657610926612ac5565b9060005260206000209060070201600301546040518263ffffffff1660e01b815260040161095691815260200190565b602060405180830381865afa158015610973573d6000803e3d6000fd5b505050506040513d601f19601f820116820180604052508101906109979190612adb565b905060005b85811015610ad3576004546001600160a01b03166307084e56600084600b8b8b878181106109cc576109cc612ac5565b90506020020135815481106109e3576109e3612ac5565b60009182526020909120600260079092020101546040516001600160e01b031960e086901b1681526001600160a01b0393841660048201529290911660248301526044820152606401600060405180830381600087803b158015610a4657600080fd5b505af1158015610a5a573d6000803e3d6000fd5b50505050610a8083888884818110610a7457610a74612ac5565b90506020020135611c68565b6000600b888884818110610a9657610a96612ac5565b9050602002013581548110610aad57610aad612ac5565b600091825260209091206003600790920201015580610acb81612b0e565b91505061099c565b506006546040516301b06a8d60e31b81526001600160a01b0390911690630d83546890610b0c908a908a908a908a908a90600401612b59565b600060405180830381600087803b158015610b2657600080fd5b505af1158015610b3a573d6000803e3d6000fd5b5050505050505050505050565b6040516000907f544c765b33ca411cce832250371569244f765a17fcd217832be093f0fd5fa45b908290a150630a85bd0160e11b95945050505050565b600080821215610b9c57610b9782612b87565b610b9e565b815b92915050565b6001805460009182610bb583612b0e565b9190505550600154600143610bca9190612ba3565b4033604051602001610c0193929190928352602083019190915260601b6bffffffffffffffffffffffff1916604082015260540190565b60405160208183030381529060405280519060200120905090565b6005546001600160a01b03163314610c6d5760405162461bcd60e51b8152602060048201526014602482015273139bdd081858dd1a5bdb9cc818dbdb9d1c9858dd60621b60448201526064016107fd565b60005b82811015610d9f576004546001600160a01b03166307084e56836000600b888887818110610ca057610ca0612ac5565b9050602002013581548110610cb757610cb7612ac5565b60009182526020909120600260079092020101546040516001600160e01b031960e086901b1681526001600160a01b0393841660048201529290911660248301526044820152606401600060405180830381600087803b158015610d1a57600080fd5b505af1158015610d2e573d6000803e3d6000fd5b50505050610d64848483818110610d4757610d47612ac5565b6000898152600c6020908152604090912093910201359050611ce4565b5084600b8681548110610d7957610d79612ac5565b600091825260209091206003600790920201015580610d9781612b0e565b915050610c70565b50600654604051634ded13c560e11b81526001600160a01b0390911690639bda278a90610dd29086908690600401612bb6565b600060405180830381600087803b158015610dec57600080fd5b505af1158015610e00573d6000803e3d6000fd5b5050505050505050565b600080610e1960016006611a09565b60ff1690507ffe34d093a460a16ee5fb374540914d1c734a17502c0c1a87b387c8d6097e1c518382604051610e58929190918252602082015260400190565b60405180910390a192915050565b610e6e611cf0565b600080546040516001600160a01b03909116914780156108fc02929091818181858888f19350505050158015610ea8573d6000803e3d6000fd5b50565b6000818152600c60205260409020606090610b9e90611d4a565b6040805160e08082018352600080835260208084018290528385018290526060808501839052608080860184905260a080870185905260c0808801869052898652600c855288862089519788018a52868852948701869052978601859052918501849052840183905283018290529382015290919060005b610f4683611d57565b811015611254576000600b610f5b8584611d61565b81548110610f6b57610f6b612ac5565b600091825260209091206007909102019050600160068201546301000000900460ff16600a811115610f9f57610f9f61284d565b03610fe1578060060160049054906101000a900460ff1660000b836000015160000b1215610fdc576006810154600160201b900460ff1660000b83525b611241565b600260068201546301000000900460ff16600a8111156110035761100361284d565b03611047578060060160049054906101000a900460ff1660000b836020015160000b1215610fdc576006810154600160201b900460ff1660000b6020840152611241565b600360068201546301000000900460ff16600a8111156110695761106961284d565b036110ad578060060160049054906101000a900460ff1660000b836040015160000b1215610fdc576006810154600160201b900460ff1660000b6040840152611241565b600460068201546301000000900460ff16600a8111156110cf576110cf61284d565b03611113578060060160049054906101000a900460ff1660000b836060015160000b1215610fdc576006810154600160201b900460ff1660000b6060840152611241565b600560068201546301000000900460ff16600a8111156111355761113561284d565b03611179578060060160049054906101000a900460ff1660000b836080015160000b1215610fdc576006810154600160201b900460ff1660000b6080840152611241565b600860068201546301000000900460ff16600a81111561119b5761119b61284d565b036111df578060060160049054906101000a900460ff1660000b8360a0015160000b1215610fdc576006810154600160201b900460ff1660000b60a0840152611241565b600960068201546301000000900460ff16600a8111156112015761120161284d565b03611241578060060160049054906101000a900460ff1660000b8360c0015160000b1215611241576006810154600160201b900460ff1660000b60c08401525b508061124c81612b0e565b915050610f3d565b509392505050565b611264611cf0565b61127681670de0b6b3a7640000612bca565b60085550565b6000806112898686612ba3565b90506000836112988684612bca565b6112a29190612bf7565b90506112ae8782612c0b565b979650505050505050565b6000806112c585610e0a565b6040805187815260208101839052908101869052606081018590529091507f75b6a8325595f91135e07382840634226793c68c9e59623da7e10d7ad3d95b959060800160405180910390a18060010361132257600091505061134f565b60038361132f8684612c0b565b6113399190612c1e565b131561134957600191505061134f565b60009150505b9392505050565b6003546001600160a01b031633146113a45760405162461bcd60e51b8152602060048201526011602482015270139bdd0819d85b594818dbdb9d1c9858dd607a1b60448201526064016107fd565b6000600b82815481106113b9576113b9612ac5565b9060005260206000209060070201600301819055506000600b82815481106113e3576113e3612ac5565b600091825260209091206006600790920201018054911515600160281b0265ff00000000001990921691909117905560048054604051630852cd8d60e31b81529182018390526001600160a01b0316906342966c6890602401600060405180830381600087803b15801561145657600080fd5b505af115801561146a573d6000803e3d6000fd5b505050506114788282611c68565b5050565b60008161148a846004612bca565b61134f9190612c0b565b61149c611cf0565b6108966000611d6d565b6114ae611cf0565b6009805460ff1916911515919091179055565b6000816000036114d357506001919050565b816001036114e357506000919050565b816002036114f357506003919050565b8160030361150357506002919050565b60405162461bcd60e51b815260206004820152600d60248201526c2130b2103234b932b1ba34b7b760991b60448201526064016107fd565b60408051808201909152600080825260208201528260000361158d576040518060400160405280600184600001516115739190612c3e565b60ff168152602001836020015160ff168152509050610b9e565b826001036115b1576040518060400160405280836000015160016115739190612c57565b826002036115ee576040518060400160405280836000015160ff168152602001836020015160016115e29190612c57565b60ff1690529050610b9e565b8260030361161f576040518060400160405280836000015160ff168152602001600184602001516115e29190612c3e565b600061162a84611dbd565b60405160200161163a9190612c94565b60405160208183030381529060405290508060405162461bcd60e51b81526004016107fd9190612ccf565b600080826001611676866002612de6565b6116809190612ba3565b901b8516831c9150509392505050565b600854604080516602830bcb2b21d160cd1b60208201523460278201526a0161031b7b9ba1034b99d160ad1b60478201526052808201939093528151808203909301835260720190526000546001600160a01b03163314806116f3575060085434145b81906117125760405162461bcd60e51b81526004016107fd9190612ccf565b506000546001600160a01b031633148061173657506003546001600160a01b031633145b8061174b57506005546001600160a01b031633145b61178e5760405162461bcd60e51b815260206004820152601460248201527310dbdb9d1c9858dd081b9bdd08185b1b1bddd95960621b60448201526064016107fd565b6117988383611ec6565b505050565b6000818152600c60205260408120606091906117b890611d57565b67ffffffffffffffff8111156117d0576117d061275d565b60405190808252806020026020018201604052801561180957816020015b6117f6612424565b8152602001906001900390816117ee5790505b50905060005b8151811015611980576000848152600c602052604081206118309083611d61565b9050600b818154811061184557611845612ac5565b9060005260206000209060070201604051806101800160405290816000820154815260200160018201548152602001600282015481526020016003820154815260200160048201548152602001600582015481526020016006820160009054906101000a900460ff1660028111156118bf576118bf61284d565b60028111156118d0576118d061284d565b8152600682015460ff61010082048116602084015262010000820481166040840152606090920191630100000090910416600a8111156119125761191261284d565b600a8111156119235761192361284d565b81526006919091015460ff600160201b820481166020840152600160281b909104161515604090910152835184908490811061196157611961612ac5565b602002602001018190525050808061197890612b0e565b91505061180f565b5092915050565b600b818154811061199757600080fd5b60009182526020909120600790910201805460018201546002830154600384015460048501546005860154600690960154949650929491939092919060ff80821691610100810482169162010000820481169163010000008104821691600160201b8204811691600160281b9004168c565b6001805460009182611a1a83612b0e565b9190505550600033600154600143611a329190612ba3565b60405160609390931b6bffffffffffffffffffffffff19166020840152603483019190915240605482015260740160408051601f19818403018152919052805160209091012090506000611a868585612c3e565b611a91906001612c57565b90508460ff168160ff1683611aa69190612df2565b611ab09190612c0b565b95945050505050565b611ac1611cf0565b600280546001600160a01b039687166001600160a01b031991821617909155600380549587169582168617905560068054821690951790945560048054938616938516939093179092556005805491851691841691909117905560078054919093169116179055565b611b32611cf0565b6001600160a01b038116611b975760405162461bcd60e51b815260206004820152602660248201527f4f776e61626c653a206e6577206f776e657220697320746865207a65726f206160448201526564647265737360d01b60648201526084016107fd565b610ea881611d6d565b80518251600091611bb091612e06565b60000b600103611bc257506000610b9e565b81518351611bd09190612e06565b60000b19611be057506001610b9e565b81602001518360200151611bf49190612e06565b60000b19611c0457506002610b9e565b81602001518360200151611c189190612e06565b60000b600103611c2a57506003610b9e565b60405162461bcd60e51b8152602060048201526013602482015272115c9c9bdc8e88139bdd0818591a9858d95b9d606a1b60448201526064016107fd565b6000828152600c60205260409020611c809082612189565b611ccc5760405162461bcd60e51b815260206004820152601e60248201527f506c6179657220646f65736e277420686176652074686973206974656d21000060448201526064016107fd565b6000828152600c6020526040902061179890826121a1565b600061134f83836121ad565b6000546001600160a01b031633146108965760405162461bcd60e51b815260206004820181905260248201527f4f776e61626c653a2063616c6c6572206973206e6f7420746865206f776e657260448201526064016107fd565b6060600061134f836121fc565b6000610b9e825490565b600061134f8383612258565b600080546001600160a01b038381166001600160a01b0319831681178455604051919092169283917f8be0079c531659141344cd1fd0a4f28419497f9722a3daafe3b4186f6b6457e09190a35050565b606081600003611de45750506040805180820190915260018152600360fc1b602082015290565b8160005b8115611e0e5780611df881612b0e565b9150611e079050600a83612bf7565b9150611de8565b60008167ffffffffffffffff811115611e2957611e2961275d565b6040519080825280601f01601f191660200182016040528015611e53576020820181803683370190505b5090505b8415611ebe57611e68600183612ba3565b9150611e75600a86612df2565b611e80906030612c0b565b60f81b818381518110611e9557611e95612ac5565b60200101906001600160f81b031916908160001a905350611eb7600a86612bf7565b9450611e57565b949350505050565b600480546040516309b6507f60e41b8152808301929092526000602483018190526001600160a01b0384811660448501529092911690639b6507f09064174876e8009060640160206040518083038185885af1158015611f2a573d6000803e3d6000fd5b50505050506040513d601f19601f82011682018060405250810190611f4f9190612e27565b60048054604051632851838160e01b81529182018390529192506000916001600160a01b031690632851838190602401602060405180830381865afa158015611f9c573d6000803e3d6000fd5b505050506040513d601f19601f82011682018060405250810190611fc09190612e27565b600b805460018181018355600083905260079091027f0175b7a638427703f0dbe7bb9bbf987a2551717b34e79f33b5b1008d1fa01db9018381559154929350909161200b9190612ba3565b60018083019190915560028201849055600382018690556004808301829055600060058401819055600b92612047928692909161066f9161147c565b60ff16101561205757600161205a565b60025b60068201805460ff191660018360028111156120785761207861284d565b021790555060068101805462ffff00191690556120a86120a083600461066f6000600161147c565b60ff16612282565b60068201805463ff0000001916630100000083600a8111156120cc576120cc61284d565b021790555060006120e583600461066f6001600261147c565b90506002600683015460ff1660028111156121025761210261284d565b03612121576003612114826002612e40565b61211e9190612e5c565b90505b612133600160048360ff16600f61127c565b60068301805465ff00000000001960ff8416600160201b021665ffff000000001990911617600160281b17905560018301546000888152600c602052604090209192506121809190611ce4565b50505050505050565b6000818152600183016020526040812054151561134f565b600061134f8383612331565b60008181526001830160205260408120546121f457508154600181810184556000848152602080822090930184905584548482528286019093526040902091909155610b9e565b506000610b9e565b60608160000180548060200260200160405190810160405280929190818152602001828054801561224c57602002820191906000526020600020905b815481526020019060010190808311612238575b50505050509050919050565b600082600001828154811061226f5761226f612ac5565b9060005260206000200154905092915050565b60006001821161229457506000919050565b600282116122a457506001919050565b600382116122b457506002919050565b600482116122c457506003919050565b600582116122d457506004919050565b600682116122e457506005919050565b600882116122f457506006919050565b600a821161230457506007919050565b600c821161231457506008919050565b600e821161232457506009919050565b50600a919050565b919050565b6000818152600183016020526040812054801561241a576000612355600183612ba3565b855490915060009061236990600190612ba3565b90508181146123ce57600086600001828154811061238957612389612ac5565b90600052602060002001549050808760000184815481106123ac576123ac612ac5565b6000918252602080832090910192909255918252600188019052604090208390555b85548690806123df576123df612e7e565b600190038181906000526020600020016000905590558560010160008681526020019081526020016000206000905560019350505050610b9e565b6000915050610b9e565b604051806101800160405280600080191681526020016000815260200160008152602001600081526020016000815260200160008152602001600060028111156124705761247061284d565b815260006020820181905260408201819052606082018190526080820181905260a09091015290565b60008083601f8401126124ab57600080fd5b50813567ffffffffffffffff8111156124c357600080fd5b6020830191508360208260051b85010111156124de57600080fd5b9250929050565b60008060008060008060a087890312156124fe57600080fd5b86359550602087013567ffffffffffffffff81111561251c57600080fd5b61252889828a01612499565b979a90995096976040810135976060820135975060809091013595509350505050565b6001600160a01b0381168114610ea857600080fd5b60008060008060006080868803121561257857600080fd5b85356125838161254b565b945060208601356125938161254b565b935060408601359250606086013567ffffffffffffffff808211156125b757600080fd5b818801915088601f8301126125cb57600080fd5b8135818111156125da57600080fd5b8960208285010111156125ec57600080fd5b9699959850939650602001949392505050565b60006020828403121561261157600080fd5b5035919050565b6000806000806060858703121561262e57600080fd5b84359350602085013567ffffffffffffffff81111561264c57600080fd5b61265887828801612499565b909450925050604085013561266c8161254b565b939692955090935050565b6020808252825182820181905260009190848201906040850190845b818110156126af57835183529284019291840191600101612693565b50909695505050505050565b600080600080608085870312156126d157600080fd5b5050823594602084013594506040840135936060013592509050565b60008060006060848603121561270257600080fd5b505081359360208301359350604090920135919050565b6000806040838503121561272c57600080fd5b50508035926020909101359150565b60006020828403121561274d57600080fd5b8135801515811461134f57600080fd5b634e487b7160e01b600052604160045260246000fd5b803560ff8116811461232c57600080fd5b60006040828403121561279657600080fd5b6040516040810181811067ffffffffffffffff821117156127c757634e487b7160e01b600052604160045260246000fd5b6040529050806127d683612773565b81526127e460208401612773565b60208201525092915050565b6000806060838503121561280357600080fd5b823591506128148460208501612784565b90509250929050565b6000806040838503121561283057600080fd5b8235915060208301356128428161254b565b809150509250929050565b634e487b7160e01b600052602160045260246000fd5b600381106128735761287361284d565b9052565b600b81106128735761287361284d565b602080825282518282018190526000919060409081850190868401855b828110156129585781518051855286810151878601528581015186860152606080820151908601526080808201519086015260a0808201519086015260c0808201516128f282880182612863565b505060e08181015160ff81168783015250506101008181015160ff81168783015250506101208082015161292882880182612877565b50506101408181015160ff16908601526101609081015115159085015261018090930192908501906001016128a4565b5091979650505050505050565b6000610180820190508d82528c60208301528b60408301528a60608301528960808301528860a083015261299c60c0830189612863565b60ff871660e083015260ff86166101008301526129bd610120830186612877565b60ff84166101408301528215156101608301529d9c50505050505050505050505050565b600080604083850312156129f457600080fd5b6129fd83612773565b915061281460208401612773565b600080600080600060a08688031215612a2357600080fd5b8535612a2e8161254b565b94506020860135612a3e8161254b565b93506040860135612a4e8161254b565b92506060860135612a5e8161254b565b91506080860135612a6e8161254b565b809150509295509295909350565b600060208284031215612a8e57600080fd5b813561134f8161254b565b60008060808385031215612aac57600080fd5b612ab68484612784565b91506128148460408501612784565b634e487b7160e01b600052603260045260246000fd5b600060208284031215612aed57600080fd5b815161134f8161254b565b634e487b7160e01b600052601160045260246000fd5b600060018201612b2057612b20612af8565b5060010190565b81835260006001600160fb1b03831115612b4057600080fd5b8260051b80836020870137939093016020019392505050565b858152608060208201526000612b73608083018688612b27565b604083019490945250606001529392505050565b6000600160ff1b8201612b9c57612b9c612af8565b5060000390565b81810381811115610b9e57610b9e612af8565b602081526000611ebe602083018486612b27565b8082028115828204841417610b9e57610b9e612af8565b634e487b7160e01b600052601260045260246000fd5b600082612c0657612c06612be1565b500490565b80820180821115610b9e57610b9e612af8565b818103600083128015838313168383128216171561198057611980612af8565b60ff8281168282160390811115610b9e57610b9e612af8565b60ff8181168382160190811115610b9e57610b9e612af8565b60005b83811015612c8b578181015183820152602001612c73565b50506000910152565b72024b73b30b634b2103234b932b1ba34b7b71d1606d1b815260008251612cc2816013850160208701612c70565b9190910160130192915050565b6020815260008251806020840152612cee816040850160208701612c70565b601f01601f19169190910160400192915050565b600181815b80851115612d3d578160001904821115612d2357612d23612af8565b80851615612d3057918102915b93841c9390800290612d07565b509250929050565b600082612d5457506001610b9e565b81612d6157506000610b9e565b8160018114612d775760028114612d8157612d9d565b6001915050610b9e565b60ff841115612d9257612d92612af8565b50506001821b610b9e565b5060208310610133831016604e8410600b8410161715612dc0575081810a610b9e565b612dca8383612d02565b8060001904821115612dde57612dde612af8565b029392505050565b600061134f8383612d45565b600082612e0157612e01612be1565b500690565b600082810b9082900b03607f198112607f82131715610b9e57610b9e612af8565b600060208284031215612e3957600080fd5b5051919050565b60ff818116838216029081169081811461198057611980612af8565b600060ff831680612e6f57612e6f612be1565b8060ff84160491505092915050565b634e487b7160e01b600052603160045260246000fdfea2646970667358221220c7d6ec23474e784e6dae6ca169c8859ceb8a403e5cd103695c8fa5f704c1b2d764736f6c63430008110033",
  "devdoc": {
    "kind": "dev",
    "methods": {
      "owner()": {
        "details": "Returns the address of the current owner."
      },
      "renounceOwnership()": {
        "details": "Leaves the contract without owner. It will not be possible to call `onlyOwner` functions anymore. Can only be called by the current owner. NOTE: Renouncing ownership will leave the contract without an owner, thereby removing any functionality that is only available to the owner."
      },
      "transferOwnership(address)": {
        "details": "Transfers ownership of the contract to a new account (`newOwner`). Can only be called by the current owner."
      }
    },
    "version": 1
  },
  "userdoc": {
    "kind": "user",
    "methods": {},
    "version": 1
  },
  "storageLayout": {
    "storage": [
      {
        "astId": 7,
        "contract": "contracts/BCItems.sol:BCItems",
        "label": "_owner",
        "offset": 0,
        "slot": "0",
        "type": "t_address"
      },
      {
        "astId": 16252,
        "contract": "contracts/BCItems.sol:BCItems",
        "label": "TODO_randomSeed",
        "offset": 0,
        "slot": "1",
        "type": "t_uint256"
      },
      {
        "astId": 10783,
        "contract": "contracts/BCItems.sol:BCItems",
        "label": "lobbies",
        "offset": 0,
        "slot": "2",
        "type": "t_contract(LobbyInterface)10688"
      },
      {
        "astId": 10785,
        "contract": "contracts/BCItems.sol:BCItems",
        "label": "gamesContract",
        "offset": 0,
        "slot": "3",
        "type": "t_address"
      },
      {
        "astId": 10788,
        "contract": "contracts/BCItems.sol:BCItems",
        "label": "uif",
        "offset": 0,
        "slot": "4",
        "type": "t_contract(UIFInterface)10762"
      },
      {
        "astId": 10790,
        "contract": "contracts/BCItems.sol:BCItems",
        "label": "actionsContract",
        "offset": 0,
        "slot": "5",
        "type": "t_address"
      },
      {
        "astId": 10793,
        "contract": "contracts/BCItems.sol:BCItems",
        "label": "games",
        "offset": 0,
        "slot": "6",
        "type": "t_contract(GameInterface)10707"
      },
      {
        "astId": 10796,
        "contract": "contracts/BCItems.sol:BCItems",
        "label": "playersContract",
        "offset": 0,
        "slot": "7",
        "type": "t_contract(PlayersContract)10770"
      },
      {
        "astId": 10847,
        "contract": "contracts/BCItems.sol:BCItems",
        "label": "mintCost",
        "offset": 0,
        "slot": "8",
        "type": "t_uint256"
      },
      {
        "astId": 10850,
        "contract": "contracts/BCItems.sol:BCItems",
        "label": "mintIsActive",
        "offset": 0,
        "slot": "9",
        "type": "t_bool"
      },
      {
        "astId": 10854,
        "contract": "contracts/BCItems.sol:BCItems",
        "label": "allowedContract",
        "offset": 1,
        "slot": "9",
        "type": "t_address"
      },
      {
        "astId": 10857,
        "contract": "contracts/BCItems.sol:BCItems",
        "label": "randSeed",
        "offset": 0,
        "slot": "10",
        "type": "t_uint256"
      },
      {
        "astId": 10861,
        "contract": "contracts/BCItems.sol:BCItems",
        "label": "items",
        "offset": 0,
        "slot": "11",
        "type": "t_array(t_struct(Item)16224_storage)dyn_storage"
      },
      {
        "astId": 10866,
        "contract": "contracts/BCItems.sol:BCItems",
        "label": "playerToItems",
        "offset": 0,
        "slot": "12",
        "type": "t_mapping(t_uint256,t_struct(UintSet)2292_storage)"
      }
    ],
    "types": {
      "t_address": {
        "encoding": "inplace",
        "label": "address",
        "numberOfBytes": "20"
      },
      "t_array(t_bytes32)dyn_storage": {
        "base": "t_bytes32",
        "encoding": "dynamic_array",
        "label": "bytes32[]",
        "numberOfBytes": "32"
      },
      "t_array(t_struct(Item)16224_storage)dyn_storage": {
        "base": "t_struct(Item)16224_storage",
        "encoding": "dynamic_array",
        "label": "struct BCTypes.Item[]",
        "numberOfBytes": "32"
      },
      "t_bool": {
        "encoding": "inplace",
        "label": "bool",
        "numberOfBytes": "1"
      },
      "t_bytes32": {
        "encoding": "inplace",
        "label": "bytes32",
        "numberOfBytes": "32"
      },
      "t_contract(GameInterface)10707": {
        "encoding": "inplace",
        "label": "contract GameInterface",
        "numberOfBytes": "20"
      },
      "t_contract(LobbyInterface)10688": {
        "encoding": "inplace",
        "label": "contract LobbyInterface",
        "numberOfBytes": "20"
      },
      "t_contract(PlayersContract)10770": {
        "encoding": "inplace",
        "label": "contract PlayersContract",
        "numberOfBytes": "20"
      },
      "t_contract(UIFInterface)10762": {
        "encoding": "inplace",
        "label": "contract UIFInterface",
        "numberOfBytes": "20"
      },
      "t_enum(ItemCategory)15976": {
        "encoding": "inplace",
        "label": "enum BCTypes.ItemCategory",
        "numberOfBytes": "1"
      },
      "t_enum(ItemType)15988": {
        "encoding": "inplace",
        "label": "enum BCTypes.ItemType",
        "numberOfBytes": "1"
      },
      "t_mapping(t_bytes32,t_uint256)": {
        "encoding": "mapping",
        "key": "t_bytes32",
        "label": "mapping(bytes32 => uint256)",
        "numberOfBytes": "32",
        "value": "t_uint256"
      },
      "t_mapping(t_uint256,t_struct(UintSet)2292_storage)": {
        "encoding": "mapping",
        "key": "t_uint256",
        "label": "mapping(uint256 => struct EnumerableSet.UintSet)",
        "numberOfBytes": "32",
        "value": "t_struct(UintSet)2292_storage"
      },
      "t_struct(Item)16224_storage": {
        "encoding": "inplace",
        "label": "struct BCTypes.Item",
        "members": [
          {
            "astId": 16199,
            "contract": "contracts/BCItems.sol:BCItems",
            "label": "genHash",
            "offset": 0,
            "slot": "0",
            "type": "t_bytes32"
          },
          {
            "astId": 16201,
            "contract": "contracts/BCItems.sol:BCItems",
            "label": "id",
            "offset": 0,
            "slot": "1",
            "type": "t_uint256"
          },
          {
            "astId": 16203,
            "contract": "contracts/BCItems.sol:BCItems",
            "label": "uifID",
            "offset": 0,
            "slot": "2",
            "type": "t_uint256"
          },
          {
            "astId": 16205,
            "contract": "contracts/BCItems.sol:BCItems",
            "label": "holdingPlayerId",
            "offset": 0,
            "slot": "3",
            "type": "t_uint256"
          },
          {
            "astId": 16207,
            "contract": "contracts/BCItems.sol:BCItems",
            "label": "weight",
            "offset": 0,
            "slot": "4",
            "type": "t_uint256"
          },
          {
            "astId": 16209,
            "contract": "contracts/BCItems.sol:BCItems",
            "label": "traitModID",
            "offset": 0,
            "slot": "5",
            "type": "t_uint256"
          },
          {
            "astId": 16212,
            "contract": "contracts/BCItems.sol:BCItems",
            "label": "itemCategory",
            "offset": 0,
            "slot": "6",
            "type": "t_enum(ItemCategory)15976"
          },
          {
            "astId": 16214,
            "contract": "contracts/BCItems.sol:BCItems",
            "label": "grantsAbility",
            "offset": 1,
            "slot": "6",
            "type": "t_uint8"
          },
          {
            "astId": 16216,
            "contract": "contracts/BCItems.sol:BCItems",
            "label": "grantsFlaw",
            "offset": 2,
            "slot": "6",
            "type": "t_uint8"
          },
          {
            "astId": 16219,
            "contract": "contracts/BCItems.sol:BCItems",
            "label": "itemType",
            "offset": 3,
            "slot": "6",
            "type": "t_enum(ItemType)15988"
          },
          {
            "astId": 16221,
            "contract": "contracts/BCItems.sol:BCItems",
            "label": "power",
            "offset": 4,
            "slot": "6",
            "type": "t_uint8"
          },
          {
            "astId": 16223,
            "contract": "contracts/BCItems.sol:BCItems",
            "label": "inGame",
            "offset": 5,
            "slot": "6",
            "type": "t_bool"
          }
        ],
        "numberOfBytes": "224"
      },
      "t_struct(Set)1834_storage": {
        "encoding": "inplace",
        "label": "struct EnumerableSet.Set",
        "members": [
          {
            "astId": 1829,
            "contract": "contracts/BCItems.sol:BCItems",
            "label": "_values",
            "offset": 0,
            "slot": "0",
            "type": "t_array(t_bytes32)dyn_storage"
          },
          {
            "astId": 1833,
            "contract": "contracts/BCItems.sol:BCItems",
            "label": "_indexes",
            "offset": 0,
            "slot": "1",
            "type": "t_mapping(t_bytes32,t_uint256)"
          }
        ],
        "numberOfBytes": "64"
      },
      "t_struct(UintSet)2292_storage": {
        "encoding": "inplace",
        "label": "struct EnumerableSet.UintSet",
        "members": [
          {
            "astId": 2291,
            "contract": "contracts/BCItems.sol:BCItems",
            "label": "_inner",
            "offset": 0,
            "slot": "0",
            "type": "t_struct(Set)1834_storage"
          }
        ],
        "numberOfBytes": "64"
      },
      "t_uint256": {
        "encoding": "inplace",
        "label": "uint256",
        "numberOfBytes": "32"
      },
      "t_uint8": {
        "encoding": "inplace",
        "label": "uint8",
        "numberOfBytes": "1"
      }
    }
  }
}