{
  "address": "0x6a7Db5C7592caa917B563dAd931B14545900cB1B",
  "abi": [
    {
      "inputs": [],
      "stateMutability": "nonpayable",
      "type": "constructor"
    },
    {
      "anonymous": false,
      "inputs": [
        {
          "indexed": true,
          "internalType": "uint256",
          "name": "gameId",
          "type": "uint256"
        },
        {
          "indexed": false,
          "internalType": "uint256",
          "name": "roll",
          "type": "uint256"
        },
        {
          "indexed": false,
          "internalType": "uint256",
          "name": "forValue",
          "type": "uint256"
        },
        {
          "indexed": false,
          "internalType": "uint256",
          "name": "against",
          "type": "uint256"
        }
      ],
      "name": "ChallengeEvent",
      "type": "event"
    },
    {
      "anonymous": false,
      "inputs": [
        {
          "indexed": true,
          "internalType": "uint256",
          "name": "gameId",
          "type": "uint256"
        },
        {
          "indexed": false,
          "internalType": "uint256",
          "name": "roll",
          "type": "uint256"
        }
      ],
      "name": "DiceRollEvent",
      "type": "event"
    },
    {
      "anonymous": false,
      "inputs": [
        {
          "indexed": true,
          "internalType": "address",
          "name": "previousOwner",
          "type": "address"
        },
        {
          "indexed": true,
          "internalType": "address",
          "name": "newOwner",
          "type": "address"
        }
      ],
      "name": "OwnershipTransferred",
      "type": "event"
    },
    {
      "anonymous": false,
      "inputs": [],
      "name": "Received",
      "type": "event"
    },
    {
      "inputs": [
        {
          "internalType": "uint256",
          "name": "_matic",
          "type": "uint256"
        }
      ],
      "name": "SetMintCostInMatic",
      "outputs": [],
      "stateMutability": "nonpayable",
      "type": "function"
    },
    {
      "inputs": [],
      "name": "actionsContract",
      "outputs": [
        {
          "internalType": "address",
          "name": "",
          "type": "address"
        }
      ],
      "stateMutability": "view",
      "type": "function"
    },
    {
      "inputs": [
        {
          "internalType": "uint256",
          "name": "_gameId",
          "type": "uint256"
        },
        {
          "internalType": "uint256[]",
          "name": "_playerIds",
          "type": "uint256[]"
        }
      ],
      "name": "addItemsToGame",
      "outputs": [],
      "stateMutability": "nonpayable",
      "type": "function"
    },
    {
      "inputs": [
        {
          "internalType": "uint256",
          "name": "_playerId",
          "type": "uint256"
        },
        {
          "internalType": "uint256[]",
          "name": "_itemIds",
          "type": "uint256[]"
        },
        {
          "internalType": "address",
          "name": "_owner",
          "type": "address"
        }
      ],
      "name": "addItemsToPlayer",
      "outputs": [],
      "stateMutability": "nonpayable",
      "type": "function"
    },
    {
      "inputs": [],
      "name": "commitItemToMission",
      "outputs": [],
      "stateMutability": "nonpayable",
      "type": "function"
    },
    {
      "inputs": [
        {
          "internalType": "uint256",
          "name": "_playerId",
          "type": "uint256"
        },
        {
          "internalType": "uint256",
          "name": "_itemId",
          "type": "uint256"
        }
      ],
      "name": "destroyItem",
      "outputs": [],
      "stateMutability": "nonpayable",
      "type": "function"
    },
    {
      "inputs": [
        {
          "internalType": "uint256",
          "name": "_gameId",
          "type": "uint256"
        },
        {
          "internalType": "uint256",
          "name": "_playerId",
          "type": "uint256"
        },
        {
          "internalType": "uint256",
          "name": "_row",
          "type": "uint256"
        },
        {
          "internalType": "uint256",
          "name": "_col",
          "type": "uint256"
        }
      ],
      "name": "dropAllItems",
      "outputs": [],
      "stateMutability": "nonpayable",
      "type": "function"
    },
    {
      "inputs": [],
      "name": "games",
      "outputs": [
        {
          "internalType": "contract GameInterface",
          "name": "",
          "type": "address"
        }
      ],
      "stateMutability": "view",
      "type": "function"
    },
    {
      "inputs": [],
      "name": "gamesContract",
      "outputs": [
        {
          "internalType": "address",
          "name": "",
          "type": "address"
        }
      ],
      "stateMutability": "view",
      "type": "function"
    },
    {
      "inputs": [
        {
          "internalType": "uint256",
          "name": "_gameId",
          "type": "uint256"
        }
      ],
      "name": "getAllPlayersItems",
      "outputs": [
        {
          "components": [
            {
              "internalType": "bytes32",
              "name": "genHash",
              "type": "bytes32"
            },
            {
              "internalType": "uint256",
              "name": "id",
              "type": "uint256"
            },
            {
              "internalType": "uint256",
              "name": "uifID",
              "type": "uint256"
            },
            {
              "internalType": "uint256",
              "name": "holdingPlayerId",
              "type": "uint256"
            },
            {
              "internalType": "address",
              "name": "ownerAddress",
              "type": "address"
            },
            {
              "internalType": "uint256",
              "name": "weight",
              "type": "uint256"
            },
            {
              "internalType": "enum BCTypes.ItemCategory",
              "name": "itemCategory",
              "type": "uint8"
            },
            {
              "internalType": "uint8",
              "name": "grantsAbility",
              "type": "uint8"
            },
            {
              "internalType": "uint8",
              "name": "grantsFlaw",
              "type": "uint8"
            },
            {
              "internalType": "enum BCTypes.ItemType",
              "name": "itemType",
              "type": "uint8"
            },
            {
              "internalType": "uint8",
              "name": "power",
              "type": "uint8"
            },
            {
              "internalType": "uint256",
              "name": "currentGame",
              "type": "uint256"
            },
            {
              "internalType": "enum BCTypes.WorldItemStatus",
              "name": "status",
              "type": "uint8"
            },
            {
              "components": [
                {
                  "internalType": "uint8",
                  "name": "row",
                  "type": "uint8"
                },
                {
                  "internalType": "uint8",
                  "name": "col",
                  "type": "uint8"
                }
              ],
              "internalType": "struct BCTypes.Position",
              "name": "position",
              "type": "tuple"
            }
          ],
          "internalType": "struct BCTypes.Item[][]",
          "name": "",
          "type": "tuple[][]"
        }
      ],
      "stateMutability": "view",
      "type": "function"
    },
    {
      "inputs": [
        {
          "internalType": "uint256",
          "name": "_gameId",
          "type": "uint256"
        }
      ],
      "name": "getEventBlocks",
      "outputs": [
        {
          "internalType": "uint256[]",
          "name": "",
          "type": "uint256[]"
        }
      ],
      "stateMutability": "view",
      "type": "function"
    },
    {
      "inputs": [
        {
          "internalType": "uint256",
          "name": "_playerID",
          "type": "uint256"
        }
      ],
      "name": "getItemIDsByPlayer",
      "outputs": [
        {
          "internalType": "uint256[]",
          "name": "",
          "type": "uint256[]"
        }
      ],
      "stateMutability": "view",
      "type": "function"
    },
    {
      "inputs": [
        {
          "internalType": "uint256",
          "name": "_playerID",
          "type": "uint256"
        }
      ],
      "name": "getItemsByPlayer",
      "outputs": [
        {
          "components": [
            {
              "internalType": "bytes32",
              "name": "genHash",
              "type": "bytes32"
            },
            {
              "internalType": "uint256",
              "name": "id",
              "type": "uint256"
            },
            {
              "internalType": "uint256",
              "name": "uifID",
              "type": "uint256"
            },
            {
              "internalType": "uint256",
              "name": "holdingPlayerId",
              "type": "uint256"
            },
            {
              "internalType": "address",
              "name": "ownerAddress",
              "type": "address"
            },
            {
              "internalType": "uint256",
              "name": "weight",
              "type": "uint256"
            },
            {
              "internalType": "enum BCTypes.ItemCategory",
              "name": "itemCategory",
              "type": "uint8"
            },
            {
              "internalType": "uint8",
              "name": "grantsAbility",
              "type": "uint8"
            },
            {
              "internalType": "uint8",
              "name": "grantsFlaw",
              "type": "uint8"
            },
            {
              "internalType": "enum BCTypes.ItemType",
              "name": "itemType",
              "type": "uint8"
            },
            {
              "internalType": "uint8",
              "name": "power",
              "type": "uint8"
            },
            {
              "internalType": "uint256",
              "name": "currentGame",
              "type": "uint256"
            },
            {
              "internalType": "enum BCTypes.WorldItemStatus",
              "name": "status",
              "type": "uint8"
            },
            {
              "components": [
                {
                  "internalType": "uint8",
                  "name": "row",
                  "type": "uint8"
                },
                {
                  "internalType": "uint8",
                  "name": "col",
                  "type": "uint8"
                }
              ],
              "internalType": "struct BCTypes.Position",
              "name": "position",
              "type": "tuple"
            }
          ],
          "internalType": "struct BCTypes.Item[]",
          "name": "",
          "type": "tuple[]"
        }
      ],
      "stateMutability": "view",
      "type": "function"
    },
    {
      "inputs": [
        {
          "internalType": "uint256",
          "name": "_gameId",
          "type": "uint256"
        }
      ],
      "name": "getItemsIdsInGame",
      "outputs": [
        {
          "internalType": "uint256[]",
          "name": "",
          "type": "uint256[]"
        }
      ],
      "stateMutability": "view",
      "type": "function"
    },
    {
      "inputs": [
        {
          "internalType": "uint256",
          "name": "_direction",
          "type": "uint256"
        },
        {
          "components": [
            {
              "internalType": "uint8",
              "name": "row",
              "type": "uint8"
            },
            {
              "internalType": "uint8",
              "name": "col",
              "type": "uint8"
            }
          ],
          "internalType": "struct BCTypes.Position",
          "name": "_start",
          "type": "tuple"
        }
      ],
      "name": "getNeighborRoom",
      "outputs": [
        {
          "components": [
            {
              "internalType": "uint8",
              "name": "row",
              "type": "uint8"
            },
            {
              "internalType": "uint8",
              "name": "col",
              "type": "uint8"
            }
          ],
          "internalType": "struct BCTypes.Position",
          "name": "",
          "type": "tuple"
        }
      ],
      "stateMutability": "pure",
      "type": "function"
    },
    {
      "inputs": [
        {
          "internalType": "address",
          "name": "_address",
          "type": "address"
        }
      ],
      "name": "getOwnedItemIds",
      "outputs": [
        {
          "internalType": "uint256[]",
          "name": "",
          "type": "uint256[]"
        }
      ],
      "stateMutability": "view",
      "type": "function"
    },
    {
      "inputs": [
        {
          "internalType": "address",
          "name": "_address",
          "type": "address"
        }
      ],
      "name": "getOwnedItems",
      "outputs": [
        {
          "components": [
            {
              "internalType": "bytes32",
              "name": "genHash",
              "type": "bytes32"
            },
            {
              "internalType": "uint256",
              "name": "id",
              "type": "uint256"
            },
            {
              "internalType": "uint256",
              "name": "uifID",
              "type": "uint256"
            },
            {
              "internalType": "uint256",
              "name": "holdingPlayerId",
              "type": "uint256"
            },
            {
              "internalType": "address",
              "name": "ownerAddress",
              "type": "address"
            },
            {
              "internalType": "uint256",
              "name": "weight",
              "type": "uint256"
            },
            {
              "internalType": "enum BCTypes.ItemCategory",
              "name": "itemCategory",
              "type": "uint8"
            },
            {
              "internalType": "uint8",
              "name": "grantsAbility",
              "type": "uint8"
            },
            {
              "internalType": "uint8",
              "name": "grantsFlaw",
              "type": "uint8"
            },
            {
              "internalType": "enum BCTypes.ItemType",
              "name": "itemType",
              "type": "uint8"
            },
            {
              "internalType": "uint8",
              "name": "power",
              "type": "uint8"
            },
            {
              "internalType": "uint256",
              "name": "currentGame",
              "type": "uint256"
            },
            {
              "internalType": "enum BCTypes.WorldItemStatus",
              "name": "status",
              "type": "uint8"
            },
            {
              "components": [
                {
                  "internalType": "uint8",
                  "name": "row",
                  "type": "uint8"
                },
                {
                  "internalType": "uint8",
                  "name": "col",
                  "type": "uint8"
                }
              ],
              "internalType": "struct BCTypes.Position",
              "name": "position",
              "type": "tuple"
            }
          ],
          "internalType": "struct BCTypes.Item[]",
          "name": "",
          "type": "tuple[]"
        }
      ],
      "stateMutability": "view",
      "type": "function"
    },
    {
      "inputs": [
        {
          "internalType": "uint256",
          "name": "_playerId",
          "type": "uint256"
        }
      ],
      "name": "getTraitModifiers",
      "outputs": [
        {
          "components": [
            {
              "internalType": "int8",
              "name": "health",
              "type": "int8"
            },
            {
              "internalType": "int8",
              "name": "carry",
              "type": "int8"
            },
            {
              "internalType": "int8",
              "name": "defense",
              "type": "int8"
            },
            {
              "internalType": "int8",
              "name": "hack",
              "type": "int8"
            },
            {
              "internalType": "int8",
              "name": "breach",
              "type": "int8"
            },
            {
              "internalType": "int8",
              "name": "shoot",
              "type": "int8"
            },
            {
              "internalType": "int8",
              "name": "melee",
              "type": "int8"
            },
            {
              "internalType": "bool",
              "name": "hasGun",
              "type": "bool"
            }
          ],
          "internalType": "struct BCTypes.Traits",
          "name": "",
          "type": "tuple"
        }
      ],
      "stateMutability": "view",
      "type": "function"
    },
    {
      "inputs": [
        {
          "internalType": "uint256",
          "name": "_traitNum",
          "type": "uint256"
        },
        {
          "internalType": "uint256",
          "name": "_subTraitNum",
          "type": "uint256"
        }
      ],
      "name": "getUIOffset",
      "outputs": [
        {
          "internalType": "uint256",
          "name": "",
          "type": "uint256"
        }
      ],
      "stateMutability": "pure",
      "type": "function"
    },
    {
      "inputs": [
        {
          "internalType": "uint256",
          "name": "_gameId",
          "type": "uint256"
        }
      ],
      "name": "getWorldItemIds",
      "outputs": [
        {
          "internalType": "uint256[]",
          "name": "",
          "type": "uint256[]"
        }
      ],
      "stateMutability": "view",
      "type": "function"
    },
    {
      "inputs": [
        {
          "internalType": "uint256",
          "name": "_gameId",
          "type": "uint256"
        }
      ],
      "name": "getWorldItems",
      "outputs": [
        {
          "components": [
            {
              "internalType": "bytes32",
              "name": "genHash",
              "type": "bytes32"
            },
            {
              "internalType": "uint256",
              "name": "id",
              "type": "uint256"
            },
            {
              "internalType": "uint256",
              "name": "uifID",
              "type": "uint256"
            },
            {
              "internalType": "uint256",
              "name": "holdingPlayerId",
              "type": "uint256"
            },
            {
              "internalType": "address",
              "name": "ownerAddress",
              "type": "address"
            },
            {
              "internalType": "uint256",
              "name": "weight",
              "type": "uint256"
            },
            {
              "internalType": "enum BCTypes.ItemCategory",
              "name": "itemCategory",
              "type": "uint8"
            },
            {
              "internalType": "uint8",
              "name": "grantsAbility",
              "type": "uint8"
            },
            {
              "internalType": "uint8",
              "name": "grantsFlaw",
              "type": "uint8"
            },
            {
              "internalType": "enum BCTypes.ItemType",
              "name": "itemType",
              "type": "uint8"
            },
            {
              "internalType": "uint8",
              "name": "power",
              "type": "uint8"
            },
            {
              "internalType": "uint256",
              "name": "currentGame",
              "type": "uint256"
            },
            {
              "internalType": "enum BCTypes.WorldItemStatus",
              "name": "status",
              "type": "uint8"
            },
            {
              "components": [
                {
                  "internalType": "uint8",
                  "name": "row",
                  "type": "uint8"
                },
                {
                  "internalType": "uint8",
                  "name": "col",
                  "type": "uint8"
                }
              ],
              "internalType": "struct BCTypes.Position",
              "name": "position",
              "type": "tuple"
            }
          ],
          "internalType": "struct BCTypes.Item[]",
          "name": "",
          "type": "tuple[]"
        }
      ],
      "stateMutability": "view",
      "type": "function"
    },
    {
      "inputs": [
        {
          "internalType": "uint256",
          "name": "",
          "type": "uint256"
        }
      ],
      "name": "items",
      "outputs": [
        {
          "internalType": "bytes32",
          "name": "genHash",
          "type": "bytes32"
        },
        {
          "internalType": "uint256",
          "name": "id",
          "type": "uint256"
        },
        {
          "internalType": "uint256",
          "name": "uifID",
          "type": "uint256"
        },
        {
          "internalType": "uint256",
          "name": "holdingPlayerId",
          "type": "uint256"
        },
        {
          "internalType": "address",
          "name": "ownerAddress",
          "type": "address"
        },
        {
          "internalType": "uint256",
          "name": "weight",
          "type": "uint256"
        },
        {
          "internalType": "enum BCTypes.ItemCategory",
          "name": "itemCategory",
          "type": "uint8"
        },
        {
          "internalType": "uint8",
          "name": "grantsAbility",
          "type": "uint8"
        },
        {
          "internalType": "uint8",
          "name": "grantsFlaw",
          "type": "uint8"
        },
        {
          "internalType": "enum BCTypes.ItemType",
          "name": "itemType",
          "type": "uint8"
        },
        {
          "internalType": "uint8",
          "name": "power",
          "type": "uint8"
        },
        {
          "internalType": "uint256",
          "name": "currentGame",
          "type": "uint256"
        },
        {
          "internalType": "enum BCTypes.WorldItemStatus",
          "name": "status",
          "type": "uint8"
        },
        {
          "components": [
            {
              "internalType": "uint8",
              "name": "row",
              "type": "uint8"
            },
            {
              "internalType": "uint8",
              "name": "col",
              "type": "uint8"
            }
          ],
          "internalType": "struct BCTypes.Position",
          "name": "position",
          "type": "tuple"
        }
      ],
      "stateMutability": "view",
      "type": "function"
    },
    {
      "inputs": [],
      "name": "lobbies",
      "outputs": [
        {
          "internalType": "contract LobbyInterface",
          "name": "",
          "type": "address"
        }
      ],
      "stateMutability": "view",
      "type": "function"
    },
    {
      "inputs": [
        {
          "internalType": "uint256",
          "name": "_holdingPlayerId",
          "type": "uint256"
        },
        {
          "internalType": "address",
          "name": "_holderAddress",
          "type": "address"
        },
        {
          "internalType": "uint256",
          "name": "_gameId",
          "type": "uint256"
        }
      ],
      "name": "lootItem",
      "outputs": [],
      "stateMutability": "payable",
      "type": "function"
    },
    {
      "inputs": [],
      "name": "mintCost",
      "outputs": [
        {
          "internalType": "uint256",
          "name": "",
          "type": "uint256"
        }
      ],
      "stateMutability": "view",
      "type": "function"
    },
    {
      "inputs": [],
      "name": "mintIsActive",
      "outputs": [
        {
          "internalType": "bool",
          "name": "",
          "type": "bool"
        }
      ],
      "stateMutability": "view",
      "type": "function"
    },
    {
      "inputs": [
        {
          "internalType": "uint256",
          "name": "_min",
          "type": "uint256"
        },
        {
          "internalType": "uint256",
          "name": "_max",
          "type": "uint256"
        },
        {
          "internalType": "uint256",
          "name": "_val",
          "type": "uint256"
        },
        {
          "internalType": "uint256",
          "name": "_valMax",
          "type": "uint256"
        }
      ],
      "name": "normalizeToSmallRange",
      "outputs": [
        {
          "internalType": "uint8",
          "name": "",
          "type": "uint8"
        }
      ],
      "stateMutability": "pure",
      "type": "function"
    },
    {
      "inputs": [
        {
          "internalType": "address",
          "name": "_operator",
          "type": "address"
        },
        {
          "internalType": "address",
          "name": "_from",
          "type": "address"
        },
        {
          "internalType": "uint256",
          "name": "_tokenId",
          "type": "uint256"
        },
        {
          "internalType": "bytes",
          "name": "_data",
          "type": "bytes"
        }
      ],
      "name": "onERC721Received",
      "outputs": [
        {
          "internalType": "bytes4",
          "name": "",
          "type": "bytes4"
        }
      ],
      "stateMutability": "nonpayable",
      "type": "function"
    },
    {
      "inputs": [],
      "name": "owner",
      "outputs": [
        {
          "internalType": "address",
          "name": "",
          "type": "address"
        }
      ],
      "stateMutability": "view",
      "type": "function"
    },
    {
      "inputs": [
        {
          "internalType": "uint256",
          "name": "_playerId",
          "type": "uint256"
        },
        {
          "internalType": "uint256[]",
          "name": "_itemIds",
          "type": "uint256[]"
        },
        {
          "internalType": "address",
          "name": "_newOwnerAddress",
          "type": "address"
        }
      ],
      "name": "pickupWorldItems",
      "outputs": [],
      "stateMutability": "nonpayable",
      "type": "function"
    },
    {
      "inputs": [],
      "name": "playersContract",
      "outputs": [
        {
          "internalType": "contract PlayersContract",
          "name": "",
          "type": "address"
        }
      ],
      "stateMutability": "view",
      "type": "function"
    },
    {
      "inputs": [],
      "name": "renounceOwnership",
      "outputs": [],
      "stateMutability": "nonpayable",
      "type": "function"
    },
    {
      "inputs": [
        {
          "internalType": "uint256",
          "name": "_gameId",
          "type": "uint256"
        },
        {
          "internalType": "uint256",
          "name": "_for",
          "type": "uint256"
        },
        {
          "internalType": "uint256",
          "name": "_against",
          "type": "uint256"
        }
      ],
      "name": "resolveChallenge",
      "outputs": [
        {
          "internalType": "bool",
          "name": "",
          "type": "bool"
        }
      ],
      "stateMutability": "nonpayable",
      "type": "function"
    },
    {
      "inputs": [
        {
          "internalType": "uint256",
          "name": "_gameId",
          "type": "uint256"
        }
      ],
      "name": "roll",
      "outputs": [
        {
          "internalType": "uint256",
          "name": "",
          "type": "uint256"
        }
      ],
      "stateMutability": "nonpayable",
      "type": "function"
    },
    {
      "inputs": [
        {
          "internalType": "address",
          "name": "_lobbyContractAddress",
          "type": "address"
        },
        {
          "internalType": "address",
          "name": "_gameContract",
          "type": "address"
        },
        {
          "internalType": "address",
          "name": "_UIFAddress",
          "type": "address"
        },
        {
          "internalType": "address",
          "name": "_actionsContract",
          "type": "address"
        },
        {
          "internalType": "address",
          "name": "_playersContract",
          "type": "address"
        }
      ],
      "name": "setContractAddresses",
      "outputs": [],
      "stateMutability": "nonpayable",
      "type": "function"
    },
    {
      "inputs": [
        {
          "internalType": "bool",
          "name": "_status",
          "type": "bool"
        }
      ],
      "name": "setMintingStatus",
      "outputs": [],
      "stateMutability": "nonpayable",
      "type": "function"
    },
    {
      "inputs": [
        {
          "internalType": "bytes32",
          "name": "_hash",
          "type": "bytes32"
        },
        {
          "internalType": "uint256",
          "name": "_size",
          "type": "uint256"
        },
        {
          "internalType": "uint256",
          "name": "_offset",
          "type": "uint256"
        }
      ],
      "name": "sliceHashToSmallInt",
      "outputs": [
        {
          "internalType": "uint8",
          "name": "",
          "type": "uint8"
        }
      ],
      "stateMutability": "pure",
      "type": "function"
    },
    {
      "inputs": [
        {
          "internalType": "uint8",
          "name": "_min",
          "type": "uint8"
        },
        {
          "internalType": "uint8",
          "name": "_max",
          "type": "uint8"
        }
      ],
      "name": "smallIntBetweenVals",
      "outputs": [
        {
          "internalType": "uint8",
          "name": "",
          "type": "uint8"
        }
      ],
      "stateMutability": "nonpayable",
      "type": "function"
    },
    {
      "inputs": [],
      "name": "spawnCompanyItem",
      "outputs": [],
      "stateMutability": "payable",
      "type": "function"
    },
    {
      "inputs": [
        {
          "internalType": "uint256",
          "name": "_gameId",
          "type": "uint256"
        },
        {
          "internalType": "uint256[]",
          "name": "_itemIds",
          "type": "uint256[]"
        },
        {
          "internalType": "uint256",
          "name": "_row",
          "type": "uint256"
        },
        {
          "internalType": "uint256",
          "name": "_col",
          "type": "uint256"
        },
        {
          "internalType": "uint256",
          "name": "_formerOwnerId",
          "type": "uint256"
        }
      ],
      "name": "spawnWorldItems",
      "outputs": [],
      "stateMutability": "nonpayable",
      "type": "function"
    },
    {
      "inputs": [
        {
          "internalType": "uint256",
          "name": "_playerId",
          "type": "uint256"
        },
        {
          "internalType": "uint256",
          "name": "_gameId",
          "type": "uint256"
        }
      ],
      "name": "takeItemsHome",
      "outputs": [],
      "stateMutability": "nonpayable",
      "type": "function"
    },
    {
      "inputs": [],
      "name": "transferFundsOut",
      "outputs": [],
      "stateMutability": "nonpayable",
      "type": "function"
    },
    {
      "inputs": [
        {
          "internalType": "address",
          "name": "newOwner",
          "type": "address"
        }
      ],
      "name": "transferOwnership",
      "outputs": [],
      "stateMutability": "nonpayable",
      "type": "function"
    },
    {
      "inputs": [],
      "name": "uif",
      "outputs": [
        {
          "internalType": "contract UIFInterface",
          "name": "",
          "type": "address"
        }
      ],
      "stateMutability": "view",
      "type": "function"
    }
  ],
  "transactionHash": "0x485d713452292fd330ffe588fc182038875b6b92ae94798c954e8cabcdbbea8a",
  "args": [],
  "numDeployments": 1,
  "solcInputHash": "53343237385e44ecb26c93379ee6715d",
  "bytecode": "0x60806040526000600190815564174876e800600955600a805460ff191690911790553480156200002e57600080fd5b506200003a3362000040565b62000090565b600080546001600160a01b038381166001600160a01b0319831681178455604051919092169283917f8be0079c531659141344cd1fd0a4f28419497f9722a3daafe3b4186f6b6457e09190a35050565b613e4f80620000a06000396000f3fe6080604052600436106102675760003560e01c806364b0e50011610144578063b78e6651116100b6578063daf737761161007a578063daf7377614610781578063e417dc35146107ae578063e847ae1e146107ce578063ec25c254146107ee578063f135332a1461080e578063f2fde38b1461082e57600080fd5b8063b78e6651146106d1578063b918fd68146106f1578063bdb4b84814610711578063bfb231d214610727578063ce28613f1461076157600080fd5b806376c8aa271161010857806376c8aa271461061a57806377e01eca146106265780638da5cb5b14610646578063951fc3fe14610664578063955a015b1461069157806397f34c3f146106b157600080fd5b806364b0e5001461057857806364db84bf146105a5578063705498dc146105c5578063715018a6146105e55780637420aa36146105fa57600080fd5b8063249af0b4116101dd57806347ef26b1116101a157806347ef26b114610499578063501f9784146104c657806353011696146104e65780635dc96967146105185780635f09c782146105385780635f8726011461055857600080fd5b8063249af0b4146103fa578063268f1d4d1461041a5780633838aed11461043a5780633841fae11461044f578063471a42941461046f57600080fd5b8063129f09031161022f578063129f090314610313578063150b7a0214610333578063154fa27a1461036c578063185ae9dc1461038c5780631ef2688c146103ac5780631f7b4f30146103cc57600080fd5b80630364f88c1461026c5780630cc0db53146102a95780630e73c024146102be5780630fd8e833146102eb57806311ff7047146102f3575b600080fd5b34801561027857600080fd5b5060035461028c906001600160a01b031681565b6040516001600160a01b0390911681526020015b60405180910390f35b6102bc6102b73660046131d0565b61084e565b005b3480156102ca57600080fd5b506102de6102d9366004613208565b610966565b6040516102a09190613221565b6102bc610986565b3480156102ff57600080fd5b506102bc61030e366004613339565b610a72565b34801561031f57600080fd5b5060085461028c906001600160a01b031681565b34801561033f57600080fd5b5061035361034e36600461339a565b610d65565b6040516001600160e01b031990911681526020016102a0565b34801561037857600080fd5b5060045461028c906001600160a01b031681565b34801561039857600080fd5b5060065461028c906001600160a01b031681565b3480156103b857600080fd5b506102bc6103c7366004613438565b610da2565b3480156103d857600080fd5b506103ec6103e7366004613208565b610f89565b6040519081526020016102a0565b34801561040657600080fd5b506102bc6104153660046134c9565b610fdd565b34801561042657600080fd5b506102bc610435366004613523565b6111bf565b34801561044657600080fd5b506102bc61124b565b34801561045b57600080fd5b506102de61046a366004613208565b611290565b34801561047b57600080fd5b50600a546104899060ff1681565b60405190151581526020016102a0565b3480156104a557600080fd5b506104b96104b4366004613208565b6112aa565b6040516102a09190613555565b3480156104d257600080fd5b506102bc6104e1366004613208565b6115f1565b3480156104f257600080fd5b50610506610501366004613523565b611611565b60405160ff90911681526020016102a0565b34801561052457600080fd5b506104896105333660046135c4565b61164e565b34801561054457600080fd5b506102bc6105533660046135f0565b6116e6565b34801561056457600080fd5b506102bc6105733660046135f0565b61179c565b34801561058457600080fd5b50610598610593366004613208565b611949565b6040516102a0919061376d565b3480156105b157600080fd5b506103ec6105c03660046135f0565b611beb565b3480156105d157600080fd5b5060055461028c906001600160a01b031681565b3480156105f157600080fd5b506102bc611c03565b34801561060657600080fd5b506102bc610615366004613780565b611c15565b3480156102bc57600080fd5b34801561063257600080fd5b506102de6106413660046137a2565b611c30565b34801561065257600080fd5b506000546001600160a01b031661028c565b34801561067057600080fd5b5061068461067f3660046137d0565b611c54565b6040516102a0919061384a565b34801561069d57600080fd5b5060075461028c906001600160a01b031681565b3480156106bd57600080fd5b506105066106cc3660046135c4565b611d7e565b3480156106dd57600080fd5b506105986106ec366004613208565b611da9565b3480156106fd57600080fd5b506102de61070c366004613208565b611fee565b34801561071d57600080fd5b506103ec60095481565b34801561073357600080fd5b50610747610742366004613208565b6120fb565b6040516102a09e9d9c9b9a99989796959493929190613868565b34801561076d57600080fd5b5061050661077c366004613913565b6121b1565b34801561078d57600080fd5b506107a161079c366004613208565b612261565b6040516102a09190613946565b3480156107ba57600080fd5b506105986107c93660046137a2565b612389565b3480156107da57600080fd5b506102bc6107e93660046139a8565b6125db565b3480156107fa57600080fd5b506102bc610809366004613a19565b61264c565b34801561081a57600080fd5b506102de610829366004613208565b612775565b34801561083a57600080fd5b506102bc6108493660046137a2565b61278f565b600954604080516602830bcb2b21d160cd1b60208201523460278201526a0161031b7b9ba1034b99d160ad1b60478201526052808201939093528151808203909301835260720190526000546001600160a01b03163314806108b1575060095434145b81906108d95760405162461bcd60e51b81526004016108d09190613a83565b60405180910390fd5b506000546001600160a01b03163314806108fd57506004546001600160a01b031633145b8061091257506006546001600160a01b031633145b6109555760405162461bcd60e51b815260206004820152601460248201527310dbdb9d1c9858dd081b9bdd08185b1b1bddd95960621b60448201526064016108d0565b610960848484612805565b50505050565b600081815260026020526040902060609061098090612ae6565b92915050565b6000546001600160a01b03163314806109a0575060095434145b6109e05760405162461bcd60e51b8152602060048201526011602482015270125b98dbdc9c9958dd081c185e5b595b9d607a1b60448201526064016108d0565b6000546001600160a01b0316331480610a005750600a5460ff1615156001145b610a445760405162461bcd60e51b81526020600482015260156024820152744d696e74696e67206973206e6f742061637469766560581b60448201526064016108d0565b6000546001600160a01b0316331480610a6757506004546001600160a01b031633145b610a7057600080fd5b565b6006546001600160a01b0316331480610a9557506008546001600160a01b031633145b610afb5760405162461bcd60e51b815260206004820152603160248201527f4e6f7420616374696f6e73206f7220706c617965727320636f6e7472616374206044820152702d20737061776e576f726c644974656d7360781b60648201526084016108d0565b835115610d5e5760085484516000916001600160a01b031690636621a42190600b9088908590610b2d57610b2d613ab6565b602002602001015181548110610b4557610b45613ab6565b90600052602060002090600a0201600301546040518263ffffffff1660e01b8152600401610b7591815260200190565b602060405180830381865afa158015610b92573d6000803e3d6000fd5b505050506040513d601f19601f82011682018060405250810190610bb69190613acc565b905060005b8551811015610d5b57600560009054906101000a90046001600160a01b03166001600160a01b03166307084e56600084600b8a8681518110610bff57610bff613ab6565b602002602001015181548110610c1757610c17613ab6565b600091825260209091206002600a9092020101546040516001600160e01b031960e086901b1681526001600160a01b0393841660048201529290911660248301526044820152606401600060405180830381600087803b158015610c7a57600080fd5b505af1158015610c8e573d6000803e3d6000fd5b50505050610cb583878381518110610ca857610ca8613ab6565b6020026020010151612af3565b6000600b878381518110610ccb57610ccb613ab6565b602002602001015181548110610ce357610ce3613ab6565b6000918252602082206003600a909202019081019190915560088101805491925060029160ff191660018302179055506040805180820190915260ff8781168083529087166020909201829052600992909201805461ffff191690921761010090910217905580610d5381613aff565b915050610bbb565b50505b5050505050565b6040516000907f544c765b33ca411cce832250371569244f765a17fcd217832be093f0fd5fa45b908290a150630a85bd0160e11b95945050505050565b6006546001600160a01b03163314610e0c5760405162461bcd60e51b815260206004820152602760248201527f4e6f7420616374696f6e7320636f6e7472616374202d207069636b7570576f726044820152666c644974656d7360c81b60648201526084016108d0565b60005b82811015610d5e576005546001600160a01b03166307084e56836000600b888887818110610e3f57610e3f613ab6565b9050602002013581548110610e5657610e56613ab6565b600091825260209091206002600a9092020101546040516001600160e01b031960e086901b1681526001600160a01b0393841660048201529290911660248301526044820152606401600060405180830381600087803b158015610eb957600080fd5b505af1158015610ecd573d6000803e3d6000fd5b50505050610f03848483818110610ee657610ee6613ab6565b6000898152600c6020908152604090912093910201359050612b6f565b506000600b858584818110610f1a57610f1a613ab6565b9050602002013581548110610f3157610f31613ab6565b600091825260208083206003600a9093020191820189905560088201805460ff19166001179055604080518082019091528381520191909152600901805461ffff191690555080610f8181613aff565b915050610e0f565b600080610f98600160066121b1565b60ff169050827ffe34d093a460a16ee5fb374540914d1c734a17502c0c1a87b387c8d6097e1c5182604051610fcf91815260200190565b60405180910390a292915050565b6008546001600160a01b031633146110475760405162461bcd60e51b815260206004820152602760248201527f4e6f7420706c617965727320636f6e7472616374202d206164644974656d735460448201526637a83630bcb2b960c91b60648201526084016108d0565b60005b825181101561096057600083828151811061106757611067613ab6565b602002602001015190506000600b828154811061108657611086613ab6565b90600052602060002090600a0201905080600301546000146110ea5760405162461bcd60e51b815260206004820181905260248201527f536f6d656f6e6520697320616c726561647920686f6c64696e6720746869732160448201526064016108d0565b60048101546001600160a01b038581169116146111555760405162461bcd60e51b815260206004820152602360248201527f4f776e657220666f72206974656d20616e64206368617220646f6e2774206d616044820152620e8c6d60eb1b60648201526084016108d0565b600381018690556004810180546001600160a01b03191690556000868152600c602052604090206111869083612b6f565b506001600160a01b0384166000908152600e602052604090206111a99083612b7b565b50505080806111b790613aff565b91505061104a565b6008546001600160a01b031633146112255760405162461bcd60e51b815260206004820152602360248201527f4e6f7420706c617965727320636f6e7472616374202d2064726f70416c6c4974604482015262656d7360e81b60648201526084016108d0565b6000838152600c6020526040812061123c90612ae6565b9050610d5e8582858588610a72565b611253612b87565b600080546040516001600160a01b03909116914780156108fc02929091818181858888f1935050505015801561128d573d6000803e3d6000fd5b50565b6000818152600c6020526040902060609061098090612ae6565b6112b26130f6565b6000828152600c602052604090206112c86130f6565b60005b6112d483612be1565b8110156115e9576000600b6112e98584612beb565b815481106112f9576112f9613ab6565b60009182526020909120600a909102019050600160068201546301000000900460ff16600a81111561132d5761132d613612565b0361136f578060060160049054906101000a900460ff1660000b836000015160000b121561136a576006810154600160201b900460ff1660000b83525b6115d6565b600260068201546301000000900460ff16600a81111561139157611391613612565b036113d5578060060160049054906101000a900460ff1660000b836020015160000b121561136a576006810154600160201b900460ff1660000b60208401526115d6565b600360068201546301000000900460ff16600a8111156113f7576113f7613612565b0361143b578060060160049054906101000a900460ff1660000b836040015160000b121561136a576006810154600160201b900460ff1660000b60408401526115d6565b600460068201546301000000900460ff16600a81111561145d5761145d613612565b036114a1578060060160049054906101000a900460ff1660000b836060015160000b121561136a576006810154600160201b900460ff1660000b60608401526115d6565b600560068201546301000000900460ff16600a8111156114c3576114c3613612565b03611507578060060160049054906101000a900460ff1660000b836080015160000b121561136a576006810154600160201b900460ff1660000b60808401526115d6565b600860068201546301000000900460ff16600a81111561152957611529613612565b03611574578060060160049054906101000a900460ff1660000b8360a0015160000b121561136a576006810154600160201b900460ff1660000b60a0840152600160e08401526115d6565b600960068201546301000000900460ff16600a81111561159657611596613612565b036115d6578060060160049054906101000a900460ff1660000b8360c0015160000b12156115d6576006810154600160201b900460ff1660000b60c08401525b50806115e181613aff565b9150506112cb565b509392505050565b6115f9612b87565b61160b81670de0b6b3a7640000613b18565b60095550565b60008061161e8686613b2f565b905060008361162d8684613b18565b6116379190613b58565b90506116438782613b6c565b979650505050505050565b60008061165a85610f89565b604080518281526020810187905290810185905290915085907f75b6a8325595f91135e07382840634226793c68c9e59623da7e10d7ad3d95b959060600160405180910390a2806001036116b25760009150506116df565b6003836116bf8684613b6c565b6116c99190613b7f565b13156116d95760019150506116df565b60009150505b9392505050565b6004546001600160a01b031633148061170957506008546001600160a01b031633145b61174c5760405162461bcd60e51b8152602060048201526014602482015273139bdd08185b1b1bddd9590818dbdb9d1c9858dd60621b60448201526064016108d0565b6000600b828154811061176157611761613ab6565b90600052602060002090600a0201905061177b8383612af3565b611789816007015483612bf7565b6000600382018190556007909101555050565b6007546001600160a01b031633146117eb5760405162461bcd60e51b8152602060048201526012602482015271139bdd0819d85b595cc818dbdb9d1c9858dd60721b60448201526064016108d0565b6000828152600c60205260408082206008549151636621a42160e01b8152600481018690529092916001600160a01b031690636621a42190602401602060405180830381865afa158015611843573d6000803e3d6000fd5b505050506040513d601f19601f820116820180604052508101906118679190613acc565b9050600061187483612be1565b9050805b801561194157600061189561188e600184613b2f565b8690612beb565b90506000600b82815481106118ac576118ac613ab6565b600091825260208083206003600a9390930201918201839055600480830180546001600160a01b038b166001600160a01b031990911681179091556007840185905560088401805460ff19169092179091558352600e905260409091209091506119169083612b6f565b506119218683612b7b565b5061192c8783612bf7565b5050808061193990613b9f565b915050611878565b505050505050565b6060600061195683612c73565b9050600080826001600160401b0381111561197357611973613265565b6040519080825280602002602001820160405280156119ac57816020015b61199961313a565b8152602001906001900390816119915790505b506000868152600d602052604081209192506119c782612be1565b905060005b81811015611bdf576002600b6119e28584612beb565b815481106119f2576119f2613ab6565b600091825260209091206008600a90920201015460ff166004811115611a1a57611a1a613612565b03611bcd57600b611a2b8483612beb565b81548110611a3b57611a3b613ab6565b6000918252602091829020604080516101c081018252600a90930290910180548352600181015493830193909352600280840154918301919091526003830154606083015260048301546001600160a01b03166080830152600583015460a0830152600683015491929160c084019160ff90911690811115611abf57611abf613612565b6002811115611ad057611ad0613612565b8152600682015460ff61010082048116602084015262010000820481166040840152606090920191630100000090910416600a811115611b1257611b12613612565b600a811115611b2357611b23613612565b8152600682015460ff600160201b90910481166020830152600783015460408301526008830154606090920191166004811115611b6257611b62613612565b6004811115611b7357611b73613612565b8152604080518082019091526009929092015460ff80821684526101009091041660208381019190915201528451859087908110611bb357611bb3613ab6565b60200260200101819052508480611bc990613aff565b9550505b80611bd781613aff565b9150506119cc565b50919695505050505050565b600081611bf9846004613b18565b6116df9190613b6c565b611c0b612b87565b610a706000612d0f565b611c1d612b87565b600a805460ff1916911515919091179055565b6001600160a01b0381166000908152600e6020526040902060609061098090612ae6565b604080518082019091526000808252602082015282600003611ca657604051806040016040528060018460000151611c8c9190613bb6565b60ff168152602001836020015160ff168152509050610980565b82600103611cca57604051806040016040528083600001516001611c8c9190613bcf565b82600203611d07576040518060400160405280836000015160ff16815260200183602001516001611cfb9190613bcf565b60ff1690529050610980565b82600303611d38576040518060400160405280836000015160ff16815260200160018460200151611cfb9190613bb6565b6000611d4384612d5f565b604051602001611d539190613be8565b60405160208183030381529060405290508060405162461bcd60e51b81526004016108d09190613a83565b600080826001611d8f866002613d07565b611d999190613b2f565b901b8516831c9150509392505050565b6000818152600c6020526040812060609190611dc490612be1565b6001600160401b03811115611ddb57611ddb613265565b604051908082528060200260200182016040528015611e1457816020015b611e0161313a565b815260200190600190039081611df95790505b50905060005b8151811015611fe7576000848152600c60205260408120611e3b9083612beb565b9050600b8181548110611e5057611e50613ab6565b6000918252602091829020604080516101c081018252600a90930290910180548352600181015493830193909352600280840154918301919091526003830154606083015260048301546001600160a01b03166080830152600583015460a0830152600683015491929160c084019160ff90911690811115611ed457611ed4613612565b6002811115611ee557611ee5613612565b8152600682015460ff61010082048116602084015262010000820481166040840152606090920191630100000090910416600a811115611f2757611f27613612565b600a811115611f3857611f38613612565b8152600682015460ff600160201b90910481166020830152600783015460408301526008830154606090920191166004811115611f7757611f77613612565b6004811115611f8857611f88613612565b8152604080518082019091526009929092015460ff80821684526101009091041660208381019190915201528351849084908110611fc857611fc8613ab6565b6020026020010181905250508080611fdf90613aff565b915050611e1a565b5092915050565b60606000611ffb83612c73565b9050600080826001600160401b0381111561201857612018613265565b604051908082528060200260200182016040528015612041578160200160208202803683370190505b506000868152600d6020526040812091925061205c82612be1565b905060005b81811015611bdf576002600b6120778584612beb565b8154811061208757612087613ab6565b600091825260209091206008600a90920201015460ff1660048111156120af576120af613612565b036120e9576120be8382612beb565b8486815181106120d0576120d0613ab6565b6020908102919091010152846120e581613aff565b9550505b806120f381613aff565b915050612061565b600b818154811061210b57600080fd5b6000918252602091829020600a90910201805460018201546002830154600384015460048501546005860154600687015460078801546008890154604080518082019091526009909a015460ff8181168c526101009182900481169c8c019c909c52989b509699959894976001600160a01b039094169692958083169594830481169462010000840482169463010000008504831694600160201b90048316939216908e565b60018054600091826121c283613aff565b91905055506000336001546001436121da9190613b2f565b60405160609390931b6bffffffffffffffffffffffff19166020840152603483019190915240605482015260740160408051601f1981840301815291905280516020909101209050600061222e8585613bb6565b612239906001613bcf565b90508460ff168160ff168361224e9190613d13565b6122589190613b6c565b95945050505050565b60075460405163081a9faf60e31b8152600481018390526060916000916001600160a01b03909116906340d4fd7890602401600060405180830381865afa1580156122b0573d6000803e3d6000fd5b505050506040513d6000823e601f3d908101601f191682016040526122d89190810190613d27565b9050600081516001600160401b038111156122f5576122f5613265565b60405190808252806020026020018201604052801561232857816020015b60608152602001906001900390816123135790505b50905060005b82518110156115e95761235983828151811061234c5761234c613ab6565b6020026020010151611da9565b82828151811061236b5761236b613ab6565b6020026020010181905250808061238190613aff565b91505061232e565b6001600160a01b0381166000908152600e60205260408120606091906123ae90612be1565b6001600160401b038111156123c5576123c5613265565b6040519080825280602002602001820160405280156123fe57816020015b6123eb61313a565b8152602001906001900390816123e35790505b50905060005b8151811015611fe7576001600160a01b0384166000908152600e6020526040812061242f9083612beb565b9050600b818154811061244457612444613ab6565b6000918252602091829020604080516101c081018252600a90930290910180548352600181015493830193909352600280840154918301919091526003830154606083015260048301546001600160a01b03166080830152600583015460a0830152600683015491929160c084019160ff909116908111156124c8576124c8613612565b60028111156124d9576124d9613612565b8152600682015460ff61010082048116602084015262010000820481166040840152606090920191630100000090910416600a81111561251b5761251b613612565b600a81111561252c5761252c613612565b8152600682015460ff600160201b9091048116602083015260078301546040830152600883015460609092019116600481111561256b5761256b613612565b600481111561257c5761257c613612565b8152604080518082019091526009929092015460ff808216845261010090910416602083810191909152015283518490849081106125bc576125bc613ab6565b60200260200101819052505080806125d390613aff565b915050612404565b6125e3612b87565b600380546001600160a01b039687166001600160a01b031991821617909155600480549587169582168617905560078054821690951790945560058054938616938516939093179092556006805491851691841691909117905560088054919093169116179055565b6007546001600160a01b0316331461269b5760405162461bcd60e51b8152602060048201526012602482015271139bdd0819d85b595cc818dbdb9d1c9858dd60721b60448201526064016108d0565b60005b8151811015612770576000600c60008484815181106126bf576126bf613ab6565b60200260200101518152602001908152602001600020905060005b6126e382612be1565b81101561275b5760006126f68383612beb565b905085600b828154811061270c5761270c613ab6565b90600052602060002090600a02016007018190555061274681600d6000898152602001908152602001600020612b6f90919063ffffffff16565b5050808061275390613aff565b9150506126da565b5050808061276890613aff565b91505061269e565b505050565b6000818152600d6020526040902060609061098090612ae6565b612797612b87565b6001600160a01b0381166127fc5760405162461bcd60e51b815260206004820152602660248201527f4f776e61626c653a206e6577206f776e657220697320746865207a65726f206160448201526564647265737360d01b60648201526084016108d0565b61128d81612d0f565b6005546040516309b6507f60e41b81526004808201526000602482018190526001600160a01b03858116604484015290921690639b6507f09064174876e8009060640160206040518083038185885af1158015612866573d6000803e3d6000fd5b50505050506040513d601f19601f8201168201806040525081019061288b9190613dac565b600554604051632851838160e01b8152600481018390529192506000916001600160a01b0390911690632851838190602401602060405180830381865afa1580156128da573d6000803e3d6000fd5b505050506040513d601f19601f820116820180604052508101906128fe9190613dac565b600b8054600181810183556000839052600a9091027f0175b7a638427703f0dbe7bb9bbf987a2551717b34e79f33b5b1008d1fa01db901838155915492935090916129499190613b2f565b600180830191909155600282018490556003820187905560058201819055600b9061297e9084906004906106cc906000611beb565b60ff16101561298e576001612991565b60025b60068201805460ff191660018360028111156129af576129af613612565b021790555060068101805462ffff00191690556129df6129d78360046106cc60006001611beb565b60ff16612e67565b60068201805463ff0000001916630100000083600a811115612a0357612a03613612565b02179055506000612a1c8360046106cc60016002611beb565b90506002600683015460ff166002811115612a3957612a39613612565b03612a58576003612a4b826002613dc5565b612a559190613de1565b90505b612a6a600160048360ff16600f611611565b60068301805464ff000000001916600160201b60ff8416021790556007830186905560088301805491925060019160ff19168280021790555060018201546000888152600c60205260409020612abf91612b6f565b5060018201546000868152600d60205260409020612adc91612b6f565b5050505050505050565b606060006116df83612f16565b6000828152600c60205260409020612b0b9082612f72565b612b575760405162461bcd60e51b815260206004820152601e60248201527f506c6179657220646f65736e277420686176652074686973206974656d21000060448201526064016108d0565b6000828152600c602052604090206127709082612b7b565b60006116df8383612f8a565b60006116df8383612fd9565b6000546001600160a01b03163314610a705760405162461bcd60e51b815260206004820181905260248201527f4f776e61626c653a2063616c6c6572206973206e6f7420746865206f776e657260448201526064016108d0565b6000610980825490565b60006116df83836130cc565b6000828152600d60205260409020612c0f9082612f72565b612c5b5760405162461bcd60e51b815260206004820152601c60248201527f47616d6520646f65736e277420686176652074686973206974656d210000000060448201526064016108d0565b6000828152600d602052604090206127709082612b7b565b6000818152600d60205260408120819081612c8d82612be1565b905060005b81811015612d05576002600b612ca88584612beb565b81548110612cb857612cb8613ab6565b600091825260209091206008600a90920201015460ff166004811115612ce057612ce0613612565b03612cf35783612cef81613aff565b9450505b80612cfd81613aff565b915050612c92565b5091949350505050565b600080546001600160a01b038381166001600160a01b0319831681178455604051919092169283917f8be0079c531659141344cd1fd0a4f28419497f9722a3daafe3b4186f6b6457e09190a35050565b606081600003612d865750506040805180820190915260018152600360fc1b602082015290565b8160005b8115612db05780612d9a81613aff565b9150612da99050600a83613b58565b9150612d8a565b6000816001600160401b03811115612dca57612dca613265565b6040519080825280601f01601f191660200182016040528015612df4576020820181803683370190505b5090505b8415612e5f57612e09600183613b2f565b9150612e16600a86613d13565b612e21906030613b6c565b60f81b818381518110612e3657612e36613ab6565b60200101906001600160f81b031916908160001a905350612e58600a86613b58565b9450612df8565b949350505050565b600060018211612e7957506000919050565b60028211612e8957506001919050565b60038211612e9957506002919050565b60048211612ea957506003919050565b60058211612eb957506004919050565b60068211612ec957506005919050565b60088211612ed957506006919050565b600a8211612ee957506007919050565b600c8211612ef957506008919050565b600e8211612f0957506009919050565b50600a919050565b919050565b606081600001805480602002602001604051908101604052809291908181526020018280548015612f6657602002820191906000526020600020905b815481526020019060010190808311612f52575b50505050509050919050565b600081815260018301602052604081205415156116df565b6000818152600183016020526040812054612fd157508154600181810184556000848152602080822090930184905584548482528286019093526040902091909155610980565b506000610980565b600081815260018301602052604081205480156130c2576000612ffd600183613b2f565b855490915060009061301190600190613b2f565b905081811461307657600086600001828154811061303157613031613ab6565b906000526020600020015490508087600001848154811061305457613054613ab6565b6000918252602080832090910192909255918252600188019052604090208390555b855486908061308757613087613e03565b600190038181906000526020600020016000905590558560010160008681526020019081526020016000206000905560019350505050610980565b6000915050610980565b60008260000182815481106130e3576130e3613ab6565b9060005260206000200154905092915050565b6040805161010081018252600080825260208201819052918101829052606081018290526080810182905260a0810182905260c0810182905260e081019190915290565b604080516101c08101825260008082526020808301829052828401829052606083018290526080830182905260a0830182905260c0830182905260e08301829052610100830182905261012083018290526101408301829052610160830182905261018083018290528351808501909452818452830152906101a082015290565b6001600160a01b038116811461128d57600080fd5b6000806000606084860312156131e557600080fd5b8335925060208401356131f7816131bb565b929592945050506040919091013590565b60006020828403121561321a57600080fd5b5035919050565b6020808252825182820181905260009190848201906040850190845b818110156132595783518352928401929184019160010161323d565b50909695505050505050565b634e487b7160e01b600052604160045260246000fd5b604051601f8201601f191681016001600160401b03811182821017156132a3576132a3613265565b604052919050565b60006001600160401b038211156132c4576132c4613265565b5060051b60200190565b600082601f8301126132df57600080fd5b813560206132f46132ef836132ab565b61327b565b82815260059290921b8401810191818101908684111561331357600080fd5b8286015b8481101561332e5780358352918301918301613317565b509695505050505050565b600080600080600060a0868803121561335157600080fd5b8535945060208601356001600160401b0381111561336e57600080fd5b61337a888289016132ce565b959895975050505060408401359360608101359360809091013592509050565b6000806000806000608086880312156133b257600080fd5b85356133bd816131bb565b945060208601356133cd816131bb565b93506040860135925060608601356001600160401b03808211156133f057600080fd5b818801915088601f83011261340457600080fd5b81358181111561341357600080fd5b89602082850101111561342557600080fd5b9699959850939650602001949392505050565b6000806000806060858703121561344e57600080fd5b8435935060208501356001600160401b038082111561346c57600080fd5b818701915087601f83011261348057600080fd5b81358181111561348f57600080fd5b8860208260051b85010111156134a457600080fd5b60208301955080945050505060408501356134be816131bb565b939692955090935050565b6000806000606084860312156134de57600080fd5b8335925060208401356001600160401b038111156134fb57600080fd5b613507868287016132ce565b9250506040840135613518816131bb565b809150509250925092565b6000806000806080858703121561353957600080fd5b5050823594602084013594506040840135936060013592509050565b6000610100820190508251600081810b84526020850151810b60208501526040850151810b60408501526060850151810b60608501526080850151810b608085015260a0850151810b60a085015260c0850151810b60c0850152505060e0830151611fe760e084018215159052565b6000806000606084860312156135d957600080fd5b505081359360208301359350604090920135919050565b6000806040838503121561360357600080fd5b50508035926020909101359150565b634e487b7160e01b600052602160045260246000fd5b6003811061363857613638613612565b9052565b600b811061363857613638613612565b6005811061363857613638613612565b600081518084526020808501945080840160005b8381101561376257815180518852838101518489015260408082015190890152606080820151908901526080808201516001600160a01b03169089015260a0808201519089015260c0808201516136c9828b0182613628565b505060e08181015160ff81168a83015250506101008181015160ff81168a8301525050610120808201516136ff828b018261363c565b50506101408181015160ff169089015261016080820151908901526101808082015161372d828b018261364c565b50506101a090810151805160ff908116928a019290925260200151166101c08801526101e09096019590820190600101613670565b509495945050505050565b6020815260006116df602083018461365c565b60006020828403121561379257600080fd5b813580151581146116df57600080fd5b6000602082840312156137b457600080fd5b81356116df816131bb565b803560ff81168114612f1157600080fd5b60008082840360608112156137e457600080fd5b833592506040601f19820112156137fa57600080fd5b50604051604081018181106001600160401b038211171561381d5761381d613265565b60405261382c602085016137bf565b815261383a604085016137bf565b6020820152809150509250929050565b604081016109808284805160ff908116835260209182015116910152565b8e8152602081018e9052604081018d9052606081018c90526001600160a01b038b16608082015260a081018a90526101e081016138a860c083018b613628565b60ff89811660e084015288166101008301526138c861012083018861363c565b60ff8616610140830152846101608301526138e761018083018561364c565b825160ff9081166101a08401526020840151166101c08301529f9e505050505050505050505050505050565b6000806040838503121561392657600080fd5b61392f836137bf565b915061393d602084016137bf565b90509250929050565b6000602080830181845280855180835260408601915060408160051b870101925083870160005b8281101561399b57603f1988860301845261398985835161365c565b9450928501929085019060010161396d565b5092979650505050505050565b600080600080600060a086880312156139c057600080fd5b85356139cb816131bb565b945060208601356139db816131bb565b935060408601356139eb816131bb565b925060608601356139fb816131bb565b91506080860135613a0b816131bb565b809150509295509295909350565b60008060408385031215613a2c57600080fd5b8235915060208301356001600160401b03811115613a4957600080fd5b613a55858286016132ce565b9150509250929050565b60005b83811015613a7a578181015183820152602001613a62565b50506000910152565b6020815260008251806020840152613aa2816040850160208701613a5f565b601f01601f19169190910160400192915050565b634e487b7160e01b600052603260045260246000fd5b600060208284031215613ade57600080fd5b81516116df816131bb565b634e487b7160e01b600052601160045260246000fd5b600060018201613b1157613b11613ae9565b5060010190565b808202811582820484141761098057610980613ae9565b8181038181111561098057610980613ae9565b634e487b7160e01b600052601260045260246000fd5b600082613b6757613b67613b42565b500490565b8082018082111561098057610980613ae9565b8181036000831280158383131683831282161715611fe757611fe7613ae9565b600081613bae57613bae613ae9565b506000190190565b60ff828116828216039081111561098057610980613ae9565b60ff818116838216019081111561098057610980613ae9565b72024b73b30b634b2103234b932b1ba34b7b71d1606d1b815260008251613c16816013850160208701613a5f565b9190910160130192915050565b600181815b80851115613c5e578160001904821115613c4457613c44613ae9565b80851615613c5157918102915b93841c9390800290613c28565b509250929050565b600082613c7557506001610980565b81613c8257506000610980565b8160018114613c985760028114613ca257613cbe565b6001915050610980565b60ff841115613cb357613cb3613ae9565b50506001821b610980565b5060208310610133831016604e8410600b8410161715613ce1575081810a610980565b613ceb8383613c23565b8060001904821115613cff57613cff613ae9565b029392505050565b60006116df8383613c66565b600082613d2257613d22613b42565b500690565b60006020808385031215613d3a57600080fd5b82516001600160401b03811115613d5057600080fd5b8301601f81018513613d6157600080fd5b8051613d6f6132ef826132ab565b81815260059190911b82018301908381019087831115613d8e57600080fd5b928401925b8284101561164357835182529284019290840190613d93565b600060208284031215613dbe57600080fd5b5051919050565b60ff8181168382160290811690818114611fe757611fe7613ae9565b600060ff831680613df457613df4613b42565b8060ff84160491505092915050565b634e487b7160e01b600052603160045260246000fdfea26469706673582212206adf6db8132fa4211a5713a0492350d5389d8725cc13e4ae3b7d92e1da3b32fd64736f6c63430008110033",
  "devdoc": {
    "kind": "dev",
    "methods": {
      "owner()": {
        "details": "Returns the address of the current owner."
      },
      "renounceOwnership()": {
        "details": "Leaves the contract without owner. It will not be possible to call `onlyOwner` functions anymore. Can only be called by the current owner. NOTE: Renouncing ownership will leave the contract without an owner, thereby removing any functionality that is only available to the owner."
      },
      "transferOwnership(address)": {
        "details": "Transfers ownership of the contract to a new account (`newOwner`). Can only be called by the current owner."
      }
    },
    "version": 1
  },
  "userdoc": {
    "kind": "user",
    "methods": {},
    "version": 1
  },
  "storageLayout": {
    "storage": [
      {
        "astId": 7,
        "contract": "contracts/BCItems.sol:BCItems",
        "label": "_owner",
        "offset": 0,
        "slot": "0",
        "type": "t_address"
      },
      {
        "astId": 21289,
        "contract": "contracts/BCItems.sol:BCItems",
        "label": "TODO_randomSeed",
        "offset": 0,
        "slot": "1",
        "type": "t_uint256"
      },
      {
        "astId": 21294,
        "contract": "contracts/BCItems.sol:BCItems",
        "label": "gameToEventBlocks",
        "offset": 0,
        "slot": "2",
        "type": "t_mapping(t_uint256,t_struct(UintSet)2262_storage)"
      },
      {
        "astId": 13597,
        "contract": "contracts/BCItems.sol:BCItems",
        "label": "lobbies",
        "offset": 0,
        "slot": "3",
        "type": "t_contract(LobbyInterface)13497"
      },
      {
        "astId": 13599,
        "contract": "contracts/BCItems.sol:BCItems",
        "label": "gamesContract",
        "offset": 0,
        "slot": "4",
        "type": "t_address"
      },
      {
        "astId": 13602,
        "contract": "contracts/BCItems.sol:BCItems",
        "label": "uif",
        "offset": 0,
        "slot": "5",
        "type": "t_contract(UIFInterface)13574"
      },
      {
        "astId": 13604,
        "contract": "contracts/BCItems.sol:BCItems",
        "label": "actionsContract",
        "offset": 0,
        "slot": "6",
        "type": "t_address"
      },
      {
        "astId": 13607,
        "contract": "contracts/BCItems.sol:BCItems",
        "label": "games",
        "offset": 0,
        "slot": "7",
        "type": "t_contract(GameInterface)13524"
      },
      {
        "astId": 13610,
        "contract": "contracts/BCItems.sol:BCItems",
        "label": "playersContract",
        "offset": 0,
        "slot": "8",
        "type": "t_contract(PlayersContract)13582"
      },
      {
        "astId": 13661,
        "contract": "contracts/BCItems.sol:BCItems",
        "label": "mintCost",
        "offset": 0,
        "slot": "9",
        "type": "t_uint256"
      },
      {
        "astId": 13664,
        "contract": "contracts/BCItems.sol:BCItems",
        "label": "mintIsActive",
        "offset": 0,
        "slot": "10",
        "type": "t_bool"
      },
      {
        "astId": 13670,
        "contract": "contracts/BCItems.sol:BCItems",
        "label": "items",
        "offset": 0,
        "slot": "11",
        "type": "t_array(t_struct(Item)21256_storage)dyn_storage"
      },
      {
        "astId": 13675,
        "contract": "contracts/BCItems.sol:BCItems",
        "label": "playerToItems",
        "offset": 0,
        "slot": "12",
        "type": "t_mapping(t_uint256,t_struct(UintSet)2262_storage)"
      },
      {
        "astId": 13680,
        "contract": "contracts/BCItems.sol:BCItems",
        "label": "gameToItems",
        "offset": 0,
        "slot": "13",
        "type": "t_mapping(t_uint256,t_struct(UintSet)2262_storage)"
      },
      {
        "astId": 13685,
        "contract": "contracts/BCItems.sol:BCItems",
        "label": "ownedItems",
        "offset": 0,
        "slot": "14",
        "type": "t_mapping(t_address,t_struct(UintSet)2262_storage)"
      }
    ],
    "types": {
      "t_address": {
        "encoding": "inplace",
        "label": "address",
        "numberOfBytes": "20"
      },
      "t_array(t_bytes32)dyn_storage": {
        "base": "t_bytes32",
        "encoding": "dynamic_array",
        "label": "bytes32[]",
        "numberOfBytes": "32"
      },
      "t_array(t_struct(Item)21256_storage)dyn_storage": {
        "base": "t_struct(Item)21256_storage",
        "encoding": "dynamic_array",
        "label": "struct BCTypes.Item[]",
        "numberOfBytes": "32"
      },
      "t_bool": {
        "encoding": "inplace",
        "label": "bool",
        "numberOfBytes": "1"
      },
      "t_bytes32": {
        "encoding": "inplace",
        "label": "bytes32",
        "numberOfBytes": "32"
      },
      "t_contract(GameInterface)13524": {
        "encoding": "inplace",
        "label": "contract GameInterface",
        "numberOfBytes": "20"
      },
      "t_contract(LobbyInterface)13497": {
        "encoding": "inplace",
        "label": "contract LobbyInterface",
        "numberOfBytes": "20"
      },
      "t_contract(PlayersContract)13582": {
        "encoding": "inplace",
        "label": "contract PlayersContract",
        "numberOfBytes": "20"
      },
      "t_contract(UIFInterface)13574": {
        "encoding": "inplace",
        "label": "contract UIFInterface",
        "numberOfBytes": "20"
      },
      "t_enum(ItemCategory)20927": {
        "encoding": "inplace",
        "label": "enum BCTypes.ItemCategory",
        "numberOfBytes": "1"
      },
      "t_enum(ItemType)20939": {
        "encoding": "inplace",
        "label": "enum BCTypes.ItemType",
        "numberOfBytes": "1"
      },
      "t_enum(WorldItemStatus)20923": {
        "encoding": "inplace",
        "label": "enum BCTypes.WorldItemStatus",
        "numberOfBytes": "1"
      },
      "t_mapping(t_address,t_struct(UintSet)2262_storage)": {
        "encoding": "mapping",
        "key": "t_address",
        "label": "mapping(address => struct EnumerableSet.UintSet)",
        "numberOfBytes": "32",
        "value": "t_struct(UintSet)2262_storage"
      },
      "t_mapping(t_bytes32,t_uint256)": {
        "encoding": "mapping",
        "key": "t_bytes32",
        "label": "mapping(bytes32 => uint256)",
        "numberOfBytes": "32",
        "value": "t_uint256"
      },
      "t_mapping(t_uint256,t_struct(UintSet)2262_storage)": {
        "encoding": "mapping",
        "key": "t_uint256",
        "label": "mapping(uint256 => struct EnumerableSet.UintSet)",
        "numberOfBytes": "32",
        "value": "t_struct(UintSet)2262_storage"
      },
      "t_struct(Item)21256_storage": {
        "encoding": "inplace",
        "label": "struct BCTypes.Item",
        "members": [
          {
            "astId": 21225,
            "contract": "contracts/BCItems.sol:BCItems",
            "label": "genHash",
            "offset": 0,
            "slot": "0",
            "type": "t_bytes32"
          },
          {
            "astId": 21227,
            "contract": "contracts/BCItems.sol:BCItems",
            "label": "id",
            "offset": 0,
            "slot": "1",
            "type": "t_uint256"
          },
          {
            "astId": 21229,
            "contract": "contracts/BCItems.sol:BCItems",
            "label": "uifID",
            "offset": 0,
            "slot": "2",
            "type": "t_uint256"
          },
          {
            "astId": 21231,
            "contract": "contracts/BCItems.sol:BCItems",
            "label": "holdingPlayerId",
            "offset": 0,
            "slot": "3",
            "type": "t_uint256"
          },
          {
            "astId": 21233,
            "contract": "contracts/BCItems.sol:BCItems",
            "label": "ownerAddress",
            "offset": 0,
            "slot": "4",
            "type": "t_address"
          },
          {
            "astId": 21235,
            "contract": "contracts/BCItems.sol:BCItems",
            "label": "weight",
            "offset": 0,
            "slot": "5",
            "type": "t_uint256"
          },
          {
            "astId": 21238,
            "contract": "contracts/BCItems.sol:BCItems",
            "label": "itemCategory",
            "offset": 0,
            "slot": "6",
            "type": "t_enum(ItemCategory)20927"
          },
          {
            "astId": 21240,
            "contract": "contracts/BCItems.sol:BCItems",
            "label": "grantsAbility",
            "offset": 1,
            "slot": "6",
            "type": "t_uint8"
          },
          {
            "astId": 21242,
            "contract": "contracts/BCItems.sol:BCItems",
            "label": "grantsFlaw",
            "offset": 2,
            "slot": "6",
            "type": "t_uint8"
          },
          {
            "astId": 21245,
            "contract": "contracts/BCItems.sol:BCItems",
            "label": "itemType",
            "offset": 3,
            "slot": "6",
            "type": "t_enum(ItemType)20939"
          },
          {
            "astId": 21247,
            "contract": "contracts/BCItems.sol:BCItems",
            "label": "power",
            "offset": 4,
            "slot": "6",
            "type": "t_uint8"
          },
          {
            "astId": 21249,
            "contract": "contracts/BCItems.sol:BCItems",
            "label": "currentGame",
            "offset": 0,
            "slot": "7",
            "type": "t_uint256"
          },
          {
            "astId": 21252,
            "contract": "contracts/BCItems.sol:BCItems",
            "label": "status",
            "offset": 0,
            "slot": "8",
            "type": "t_enum(WorldItemStatus)20923"
          },
          {
            "astId": 21255,
            "contract": "contracts/BCItems.sol:BCItems",
            "label": "position",
            "offset": 0,
            "slot": "9",
            "type": "t_struct(Position)21061_storage"
          }
        ],
        "numberOfBytes": "320"
      },
      "t_struct(Position)21061_storage": {
        "encoding": "inplace",
        "label": "struct BCTypes.Position",
        "members": [
          {
            "astId": 21058,
            "contract": "contracts/BCItems.sol:BCItems",
            "label": "row",
            "offset": 0,
            "slot": "0",
            "type": "t_uint8"
          },
          {
            "astId": 21060,
            "contract": "contracts/BCItems.sol:BCItems",
            "label": "col",
            "offset": 1,
            "slot": "0",
            "type": "t_uint8"
          }
        ],
        "numberOfBytes": "32"
      },
      "t_struct(Set)1804_storage": {
        "encoding": "inplace",
        "label": "struct EnumerableSet.Set",
        "members": [
          {
            "astId": 1799,
            "contract": "contracts/BCItems.sol:BCItems",
            "label": "_values",
            "offset": 0,
            "slot": "0",
            "type": "t_array(t_bytes32)dyn_storage"
          },
          {
            "astId": 1803,
            "contract": "contracts/BCItems.sol:BCItems",
            "label": "_indexes",
            "offset": 0,
            "slot": "1",
            "type": "t_mapping(t_bytes32,t_uint256)"
          }
        ],
        "numberOfBytes": "64"
      },
      "t_struct(UintSet)2262_storage": {
        "encoding": "inplace",
        "label": "struct EnumerableSet.UintSet",
        "members": [
          {
            "astId": 2261,
            "contract": "contracts/BCItems.sol:BCItems",
            "label": "_inner",
            "offset": 0,
            "slot": "0",
            "type": "t_struct(Set)1804_storage"
          }
        ],
        "numberOfBytes": "64"
      },
      "t_uint256": {
        "encoding": "inplace",
        "label": "uint256",
        "numberOfBytes": "32"
      },
      "t_uint8": {
        "encoding": "inplace",
        "label": "uint8",
        "numberOfBytes": "1"
      }
    }
  }
}