{
  "address": "0xC030e4D1EF9CaA05144Bb9a8E5470bE1Ba014cb7",
  "abi": [
    {
      "inputs": [],
      "stateMutability": "nonpayable",
      "type": "constructor"
    },
    {
      "anonymous": false,
      "inputs": [
        {
          "indexed": false,
          "internalType": "uint256",
          "name": "roll",
          "type": "uint256"
        },
        {
          "indexed": false,
          "internalType": "uint256",
          "name": "forValue",
          "type": "uint256"
        },
        {
          "indexed": false,
          "internalType": "uint256",
          "name": "against",
          "type": "uint256"
        }
      ],
      "name": "ChallengeEvent",
      "type": "event"
    },
    {
      "anonymous": false,
      "inputs": [
        {
          "indexed": false,
          "internalType": "uint256",
          "name": "roll",
          "type": "uint256"
        }
      ],
      "name": "DiceRollEvent",
      "type": "event"
    },
    {
      "anonymous": false,
      "inputs": [
        {
          "indexed": true,
          "internalType": "address",
          "name": "previousOwner",
          "type": "address"
        },
        {
          "indexed": true,
          "internalType": "address",
          "name": "newOwner",
          "type": "address"
        }
      ],
      "name": "OwnershipTransferred",
      "type": "event"
    },
    {
      "anonymous": false,
      "inputs": [],
      "name": "Received",
      "type": "event"
    },
    {
      "inputs": [
        {
          "internalType": "uint256",
          "name": "_matic",
          "type": "uint256"
        }
      ],
      "name": "SetMintCostInMatic",
      "outputs": [],
      "stateMutability": "nonpayable",
      "type": "function"
    },
    {
      "inputs": [
        {
          "internalType": "int256",
          "name": "x",
          "type": "int256"
        }
      ],
      "name": "abs",
      "outputs": [
        {
          "internalType": "int256",
          "name": "",
          "type": "int256"
        }
      ],
      "stateMutability": "pure",
      "type": "function"
    },
    {
      "inputs": [],
      "name": "actionsContract",
      "outputs": [
        {
          "internalType": "address",
          "name": "",
          "type": "address"
        }
      ],
      "stateMutability": "view",
      "type": "function"
    },
    {
      "inputs": [],
      "name": "allowedContract",
      "outputs": [
        {
          "internalType": "address",
          "name": "",
          "type": "address"
        }
      ],
      "stateMutability": "view",
      "type": "function"
    },
    {
      "inputs": [],
      "name": "commitItemToMission",
      "outputs": [],
      "stateMutability": "nonpayable",
      "type": "function"
    },
    {
      "inputs": [
        {
          "internalType": "uint256",
          "name": "_itemId",
          "type": "uint256"
        }
      ],
      "name": "destroyItem",
      "outputs": [],
      "stateMutability": "nonpayable",
      "type": "function"
    },
    {
      "inputs": [],
      "name": "gamesContract",
      "outputs": [
        {
          "internalType": "address",
          "name": "",
          "type": "address"
        }
      ],
      "stateMutability": "view",
      "type": "function"
    },
    {
      "inputs": [
        {
          "components": [
            {
              "internalType": "uint8",
              "name": "row",
              "type": "uint8"
            },
            {
              "internalType": "uint8",
              "name": "col",
              "type": "uint8"
            }
          ],
          "internalType": "struct BCTypes.Position",
          "name": "_firstRoom",
          "type": "tuple"
        },
        {
          "components": [
            {
              "internalType": "uint8",
              "name": "row",
              "type": "uint8"
            },
            {
              "internalType": "uint8",
              "name": "col",
              "type": "uint8"
            }
          ],
          "internalType": "struct BCTypes.Position",
          "name": "_secondRoom",
          "type": "tuple"
        }
      ],
      "name": "getDirectionBetween",
      "outputs": [
        {
          "internalType": "uint256",
          "name": "",
          "type": "uint256"
        }
      ],
      "stateMutability": "pure",
      "type": "function"
    },
    {
      "inputs": [
        {
          "internalType": "uint256",
          "name": "_playerID",
          "type": "uint256"
        }
      ],
      "name": "getItemIDsByPlayer",
      "outputs": [
        {
          "internalType": "uint256[]",
          "name": "",
          "type": "uint256[]"
        }
      ],
      "stateMutability": "view",
      "type": "function"
    },
    {
      "inputs": [
        {
          "internalType": "uint256",
          "name": "_playerID",
          "type": "uint256"
        }
      ],
      "name": "getItemsByPlayer",
      "outputs": [
        {
          "components": [
            {
              "internalType": "bytes32",
              "name": "genHash",
              "type": "bytes32"
            },
            {
              "internalType": "uint256",
              "name": "id",
              "type": "uint256"
            },
            {
              "internalType": "uint256",
              "name": "uifID",
              "type": "uint256"
            },
            {
              "internalType": "uint256",
              "name": "holdingPlayerId",
              "type": "uint256"
            },
            {
              "internalType": "uint256",
              "name": "weight",
              "type": "uint256"
            },
            {
              "internalType": "uint256",
              "name": "traitModID",
              "type": "uint256"
            },
            {
              "internalType": "enum BCTypes.ItemCategory",
              "name": "itemCategory",
              "type": "uint8"
            },
            {
              "internalType": "uint8",
              "name": "grantsAbility",
              "type": "uint8"
            },
            {
              "internalType": "uint8",
              "name": "grantsFlaw",
              "type": "uint8"
            },
            {
              "internalType": "enum BCTypes.ItemType",
              "name": "itemType",
              "type": "uint8"
            },
            {
              "internalType": "uint8",
              "name": "power",
              "type": "uint8"
            },
            {
              "internalType": "bool",
              "name": "inGame",
              "type": "bool"
            }
          ],
          "internalType": "struct BCTypes.Item[]",
          "name": "",
          "type": "tuple[]"
        }
      ],
      "stateMutability": "view",
      "type": "function"
    },
    {
      "inputs": [
        {
          "internalType": "uint256",
          "name": "_direction",
          "type": "uint256"
        },
        {
          "components": [
            {
              "internalType": "uint8",
              "name": "row",
              "type": "uint8"
            },
            {
              "internalType": "uint8",
              "name": "col",
              "type": "uint8"
            }
          ],
          "internalType": "struct BCTypes.Position",
          "name": "_start",
          "type": "tuple"
        }
      ],
      "name": "getNeighborRoom",
      "outputs": [
        {
          "components": [
            {
              "internalType": "uint8",
              "name": "row",
              "type": "uint8"
            },
            {
              "internalType": "uint8",
              "name": "col",
              "type": "uint8"
            }
          ],
          "internalType": "struct BCTypes.Position",
          "name": "",
          "type": "tuple"
        }
      ],
      "stateMutability": "pure",
      "type": "function"
    },
    {
      "inputs": [
        {
          "internalType": "uint256",
          "name": "_traitNum",
          "type": "uint256"
        },
        {
          "internalType": "uint256",
          "name": "_subTraitNum",
          "type": "uint256"
        }
      ],
      "name": "getUIOffset",
      "outputs": [
        {
          "internalType": "uint256",
          "name": "",
          "type": "uint256"
        }
      ],
      "stateMutability": "pure",
      "type": "function"
    },
    {
      "inputs": [
        {
          "internalType": "uint256",
          "name": "",
          "type": "uint256"
        }
      ],
      "name": "items",
      "outputs": [
        {
          "internalType": "bytes32",
          "name": "genHash",
          "type": "bytes32"
        },
        {
          "internalType": "uint256",
          "name": "id",
          "type": "uint256"
        },
        {
          "internalType": "uint256",
          "name": "uifID",
          "type": "uint256"
        },
        {
          "internalType": "uint256",
          "name": "holdingPlayerId",
          "type": "uint256"
        },
        {
          "internalType": "uint256",
          "name": "weight",
          "type": "uint256"
        },
        {
          "internalType": "uint256",
          "name": "traitModID",
          "type": "uint256"
        },
        {
          "internalType": "enum BCTypes.ItemCategory",
          "name": "itemCategory",
          "type": "uint8"
        },
        {
          "internalType": "uint8",
          "name": "grantsAbility",
          "type": "uint8"
        },
        {
          "internalType": "uint8",
          "name": "grantsFlaw",
          "type": "uint8"
        },
        {
          "internalType": "enum BCTypes.ItemType",
          "name": "itemType",
          "type": "uint8"
        },
        {
          "internalType": "uint8",
          "name": "power",
          "type": "uint8"
        },
        {
          "internalType": "bool",
          "name": "inGame",
          "type": "bool"
        }
      ],
      "stateMutability": "view",
      "type": "function"
    },
    {
      "inputs": [],
      "name": "lobbies",
      "outputs": [
        {
          "internalType": "contract LobbyInterface",
          "name": "",
          "type": "address"
        }
      ],
      "stateMutability": "view",
      "type": "function"
    },
    {
      "inputs": [
        {
          "internalType": "uint256",
          "name": "_holdingPlayerId",
          "type": "uint256"
        },
        {
          "internalType": "address",
          "name": "_holderAddress",
          "type": "address"
        }
      ],
      "name": "lootItem",
      "outputs": [],
      "stateMutability": "payable",
      "type": "function"
    },
    {
      "inputs": [],
      "name": "mintCost",
      "outputs": [
        {
          "internalType": "uint256",
          "name": "",
          "type": "uint256"
        }
      ],
      "stateMutability": "view",
      "type": "function"
    },
    {
      "inputs": [],
      "name": "mintIsActive",
      "outputs": [
        {
          "internalType": "bool",
          "name": "",
          "type": "bool"
        }
      ],
      "stateMutability": "view",
      "type": "function"
    },
    {
      "inputs": [
        {
          "internalType": "uint256",
          "name": "_min",
          "type": "uint256"
        },
        {
          "internalType": "uint256",
          "name": "_max",
          "type": "uint256"
        },
        {
          "internalType": "uint256",
          "name": "_val",
          "type": "uint256"
        },
        {
          "internalType": "uint256",
          "name": "_valMax",
          "type": "uint256"
        }
      ],
      "name": "normalizeToSmallRange",
      "outputs": [
        {
          "internalType": "uint8",
          "name": "",
          "type": "uint8"
        }
      ],
      "stateMutability": "pure",
      "type": "function"
    },
    {
      "inputs": [
        {
          "internalType": "address",
          "name": "_operator",
          "type": "address"
        },
        {
          "internalType": "address",
          "name": "_from",
          "type": "address"
        },
        {
          "internalType": "uint256",
          "name": "_tokenId",
          "type": "uint256"
        },
        {
          "internalType": "bytes",
          "name": "_data",
          "type": "bytes"
        }
      ],
      "name": "onERC721Received",
      "outputs": [
        {
          "internalType": "bytes4",
          "name": "",
          "type": "bytes4"
        }
      ],
      "stateMutability": "nonpayable",
      "type": "function"
    },
    {
      "inputs": [
        {
          "internalType": "uint256",
          "name": "_direction",
          "type": "uint256"
        }
      ],
      "name": "opposite",
      "outputs": [
        {
          "internalType": "uint256",
          "name": "",
          "type": "uint256"
        }
      ],
      "stateMutability": "pure",
      "type": "function"
    },
    {
      "inputs": [],
      "name": "owner",
      "outputs": [
        {
          "internalType": "address",
          "name": "",
          "type": "address"
        }
      ],
      "stateMutability": "view",
      "type": "function"
    },
    {
      "inputs": [
        {
          "internalType": "uint256",
          "name": "",
          "type": "uint256"
        },
        {
          "internalType": "uint256",
          "name": "",
          "type": "uint256"
        }
      ],
      "name": "playerToItems",
      "outputs": [
        {
          "internalType": "uint256",
          "name": "",
          "type": "uint256"
        }
      ],
      "stateMutability": "view",
      "type": "function"
    },
    {
      "inputs": [],
      "name": "randKeccak",
      "outputs": [
        {
          "internalType": "bytes32",
          "name": "",
          "type": "bytes32"
        }
      ],
      "stateMutability": "nonpayable",
      "type": "function"
    },
    {
      "inputs": [],
      "name": "renounceOwnership",
      "outputs": [],
      "stateMutability": "nonpayable",
      "type": "function"
    },
    {
      "inputs": [
        {
          "internalType": "uint256",
          "name": "_for",
          "type": "uint256"
        },
        {
          "internalType": "uint256",
          "name": "_against",
          "type": "uint256"
        }
      ],
      "name": "resolveChallenge",
      "outputs": [
        {
          "internalType": "bool",
          "name": "",
          "type": "bool"
        }
      ],
      "stateMutability": "nonpayable",
      "type": "function"
    },
    {
      "inputs": [],
      "name": "roll",
      "outputs": [
        {
          "internalType": "uint256",
          "name": "",
          "type": "uint256"
        }
      ],
      "stateMutability": "nonpayable",
      "type": "function"
    },
    {
      "inputs": [
        {
          "internalType": "address",
          "name": "_lobbyContractAddress",
          "type": "address"
        },
        {
          "internalType": "address",
          "name": "_gameContract",
          "type": "address"
        },
        {
          "internalType": "address",
          "name": "_UIFAddress",
          "type": "address"
        },
        {
          "internalType": "address",
          "name": "_actionsContract",
          "type": "address"
        }
      ],
      "name": "setContractAddresses",
      "outputs": [],
      "stateMutability": "nonpayable",
      "type": "function"
    },
    {
      "inputs": [
        {
          "internalType": "bool",
          "name": "_status",
          "type": "bool"
        }
      ],
      "name": "setMintingStatus",
      "outputs": [],
      "stateMutability": "nonpayable",
      "type": "function"
    },
    {
      "inputs": [
        {
          "internalType": "bytes32",
          "name": "_hash",
          "type": "bytes32"
        },
        {
          "internalType": "uint256",
          "name": "_size",
          "type": "uint256"
        },
        {
          "internalType": "uint256",
          "name": "_offset",
          "type": "uint256"
        }
      ],
      "name": "sliceHashToSmallInt",
      "outputs": [
        {
          "internalType": "uint8",
          "name": "",
          "type": "uint8"
        }
      ],
      "stateMutability": "pure",
      "type": "function"
    },
    {
      "inputs": [
        {
          "internalType": "uint8",
          "name": "_min",
          "type": "uint8"
        },
        {
          "internalType": "uint8",
          "name": "_max",
          "type": "uint8"
        }
      ],
      "name": "smallIntBetweenVals",
      "outputs": [
        {
          "internalType": "uint8",
          "name": "",
          "type": "uint8"
        }
      ],
      "stateMutability": "nonpayable",
      "type": "function"
    },
    {
      "inputs": [],
      "name": "spawnCompanyItem",
      "outputs": [],
      "stateMutability": "payable",
      "type": "function"
    },
    {
      "inputs": [],
      "name": "spawnItem",
      "outputs": [],
      "stateMutability": "payable",
      "type": "function"
    },
    {
      "inputs": [],
      "name": "transferFundsOut",
      "outputs": [],
      "stateMutability": "nonpayable",
      "type": "function"
    },
    {
      "inputs": [
        {
          "internalType": "address",
          "name": "newOwner",
          "type": "address"
        }
      ],
      "name": "transferOwnership",
      "outputs": [],
      "stateMutability": "nonpayable",
      "type": "function"
    },
    {
      "inputs": [],
      "name": "uif",
      "outputs": [
        {
          "internalType": "contract UIFInterface",
          "name": "",
          "type": "address"
        }
      ],
      "stateMutability": "view",
      "type": "function"
    }
  ],
  "transactionHash": "0x343b1f3776cc6a9748069dc9e97304653d75267f54acd1a80eef21a1a90f9657",
  "args": [],
  "numDeployments": 1,
  "solcInputHash": "fedce54f8dc80a552109a67f6962d510",
  "bytecode": "0x6080604052600060015564174876e8006006556001600760006101000a81548160ff02191690831515021790555060006008553480156200003f57600080fd5b5062000060620000546200008360201b60201c565b6200008b60201b60201c565b600b6001816001815401808255809150500390600052602060002050506200014f565b600033905090565b60008060009054906101000a900473ffffffffffffffffffffffffffffffffffffffff169050816000806101000a81548173ffffffffffffffffffffffffffffffffffffffff021916908373ffffffffffffffffffffffffffffffffffffffff1602179055508173ffffffffffffffffffffffffffffffffffffffff168173ffffffffffffffffffffffffffffffffffffffff167f8be0079c531659141344cd1fd0a4f28419497f9722a3daafe3b4186f6b6457e060405160405180910390a35050565b613dba806200015f6000396000f3fe6080604052600436106102045760003560e01c80638214f22211610118578063bdb4b848116100a0578063dff2fb311161006f578063dff2fb3114610763578063e89d5a89146107a0578063f2fde38b146107cb578063f7c8af48146107f4578063fa3993c21461081d57610204565b8063bdb4b84814610688578063bfb231d2146106b3578063cd5e3c5d146106fb578063ce28613f1461072657610204565b806397f34c3f116100e757806397f34c3f146105bf578063a20df9fa146105fc578063aa3eb1b514610606578063aaa6877714610622578063b78e66511461064b57610204565b80638214f222146104dd5780638ac031b31461051a5780638da5cb5b14610557578063951fc3fe1461058257610204565b80633841fae11161019b57806364db84bf1161016a57806364db84bf1461041e578063705498dc1461045b578063715018a6146104865780637420aa361461049d57806376c8aa27146104c657610204565b80633841fae114610350578063471a42941461038d578063501f9784146103b857806353011696146103e157610204565b8063185ae9dc116101d7578063185ae9dc146102a65780631b5ac4b5146102d15780631e1de2051461030e5780633838aed11461033957610204565b80630364f88c146102095780630fd8e83314610234578063150b7a021461023e578063154fa27a1461027b575b600080fd5b34801561021557600080fd5b5061021e61085a565b60405161022b919061239c565b60405180910390f35b61023c610880565b005b34801561024a57600080fd5b50610265600480360381019061026091906124a4565b610a2d565b6040516102729190612567565b60405180910390f35b34801561028757600080fd5b50610290610a6e565b60405161029d9190612591565b60405180910390f35b3480156102b257600080fd5b506102bb610a94565b6040516102c89190612591565b60405180910390f35b3480156102dd57600080fd5b506102f860048036038101906102f391906125e2565b610aba565b604051610305919061261e565b60405180910390f35b34801561031a57600080fd5b50610323610adc565b6040516103309190612652565b60405180910390f35b34801561034557600080fd5b5061034e610b28565b005b34801561035c57600080fd5b506103776004803603810190610372919061266d565b610b80565b6040516103849190612758565b60405180910390f35b34801561039957600080fd5b506103a2610beb565b6040516103af9190612795565b60405180910390f35b3480156103c457600080fd5b506103df60048036038101906103da919061266d565b610bfe565b005b3480156103ed57600080fd5b50610408600480360381019061040391906127b0565b610c23565b6040516104159190612833565b60405180910390f35b34801561042a57600080fd5b506104456004803603810190610440919061284e565b610c67565b604051610452919061289d565b60405180910390f35b34801561046757600080fd5b50610470610c89565b60405161047d91906128d9565b60405180910390f35b34801561049257600080fd5b5061049b610caf565b005b3480156104a957600080fd5b506104c460048036038101906104bf9190612920565b610cc3565b005b3480156104d257600080fd5b506104db610ce8565b005b3480156104e957600080fd5b5061050460048036038101906104ff919061266d565b610cea565b604051610511919061289d565b60405180910390f35b34801561052657600080fd5b50610541600480360381019061053c919061284e565b610d73565b60405161054e919061289d565b60405180910390f35b34801561056357600080fd5b5061056c610da4565b6040516105799190612591565b60405180910390f35b34801561058e57600080fd5b506105a960048036038101906105a49190612a5a565b610dcd565b6040516105b69190612ad8565b60405180910390f35b3480156105cb57600080fd5b506105e660048036038101906105e19190612b1f565b610f40565b6040516105f39190612833565b60405180910390f35b610604610f77565b005b610620600480360381019061061b9190612b72565b61112f565b005b34801561062e57600080fd5b5061064960048036038101906106449190612bb2565b611310565b005b34801561065757600080fd5b50610672600480360381019061066d919061266d565b611422565b60405161067f9190612e9c565b60405180910390f35b34801561069457600080fd5b5061069d6116cb565b6040516106aa919061289d565b60405180910390f35b3480156106bf57600080fd5b506106da60048036038101906106d5919061266d565b6116d1565b6040516106f29c9b9a99989796959493929190612edc565b60405180910390f35b34801561070757600080fd5b5061071061178f565b60405161071d919061289d565b60405180910390f35b34801561073257600080fd5b5061074d60048036038101906107489190612f96565b6117e1565b60405161075a9190612833565b60405180910390f35b34801561076f57600080fd5b5061078a6004803603810190610785919061284e565b611872565b6040516107979190612795565b60405180910390f35b3480156107ac57600080fd5b506107b5611902565b6040516107c29190612591565b60405180910390f35b3480156107d757600080fd5b506107f260048036038101906107ed9190612fd6565b611928565b005b34801561080057600080fd5b5061081b6004803603810190610816919061266d565b6119ac565b005b34801561082957600080fd5b50610844600480360381019061083f9190613003565b611b35565b604051610851919061289d565b60405180910390f35b600260009054906101000a900473ffffffffffffffffffffffffffffffffffffffff1681565b610888610da4565b73ffffffffffffffffffffffffffffffffffffffff163373ffffffffffffffffffffffffffffffffffffffff1614806108c2575060065434145b610901576040517f08c379a00000000000000000000000000000000000000000000000000000000081526004016108f8906130a0565b60405180910390fd5b610909610da4565b73ffffffffffffffffffffffffffffffffffffffff163373ffffffffffffffffffffffffffffffffffffffff161480610955575060011515600760009054906101000a900460ff161515145b610994576040517f08c379a000000000000000000000000000000000000000000000000000000000815260040161098b9061310c565b60405180910390fd5b61099c610da4565b73ffffffffffffffffffffffffffffffffffffffff163373ffffffffffffffffffffffffffffffffffffffff161480610a225750600360009054906101000a900473ffffffffffffffffffffffffffffffffffffffff1673ffffffffffffffffffffffffffffffffffffffff163373ffffffffffffffffffffffffffffffffffffffff16145b610a2b57600080fd5b565b60007f544c765b33ca411cce832250371569244f765a17fcd217832be093f0fd5fa45b60405160405180910390a163150b7a0260e01b905095945050505050565b600360009054906101000a900473ffffffffffffffffffffffffffffffffffffffff1681565b600560009054906101000a900473ffffffffffffffffffffffffffffffffffffffff1681565b600080821215610ad35781610ace9061315b565b610ad5565b815b9050919050565b600060016000815480929190610af1906131a4565b91905055506001544233604051602001610b0d93929190613256565b60405160208183030381529060405280519060200120905090565b610b30611c56565b610b38610da4565b73ffffffffffffffffffffffffffffffffffffffff166108fc479081150290604051600060405180830381858888f19350505050158015610b7d573d6000803e3d6000fd5b50565b6060600a6000838152602001908152602001600020805480602002602001604051908101604052809291908181526020018280548015610bdf57602002820191906000526020600020905b815481526020019060010190808311610bcb575b50505050509050919050565b600760009054906101000a900460ff1681565b610c06611c56565b670de0b6b3a764000081610c1a9190613293565b60068190555050565b6000808585610c3291906132ed565b90506000838583610c439190613293565b610c4d9190613350565b90508681610c5b9190613381565b92505050949350505050565b600081836004610c779190613293565b610c819190613381565b905092915050565b600460009054906101000a900473ffffffffffffffffffffffffffffffffffffffff1681565b610cb7611c56565b610cc16000611cd4565b565b610ccb611c56565b80600760006101000a81548160ff02191690831515021790555050565b565b600080821415610cfd5760019050610d6e565b6001821415610d0f5760009050610d6e565b6002821415610d215760039050610d6e565b6003821415610d335760029050610d6e565b6040517f08c379a0000000000000000000000000000000000000000000000000000000008152600401610d6590613423565b60405180910390fd5b919050565b600a6020528160005260406000208181548110610d8f57600080fd5b90600052602060002001600091509150505481565b60008060009054906101000a900473ffffffffffffffffffffffffffffffffffffffff16905090565b610dd561226a565b6000831415610e1457604051806040016040528060018460000151610dfa9190613443565b60ff168152602001836020015160ff168152509050610f3a565b6001831415610e5357604051806040016040528060018460000151610e399190613477565b60ff168152602001836020015160ff168152509050610f3a565b6002831415610e92576040518060400160405280836000015160ff16815260200160018460200151610e859190613477565b60ff168152509050610f3a565b6003831415610ed1576040518060400160405280836000015160ff16815260200160018460200151610ec49190613443565b60ff168152509050610f3a565b6000610edc84611d98565b604051602001610eec919061354e565b6040516020818303038152906040529050806040517f08c379a0000000000000000000000000000000000000000000000000000000008152600401610f3191906135ad565b60405180910390fd5b92915050565b600080826001856002610f539190613702565b610f5d91906132ed565b60001b901b905082818616901c60001c9150509392505050565b610f7f610da4565b73ffffffffffffffffffffffffffffffffffffffff163373ffffffffffffffffffffffffffffffffffffffff161480610fb9575060065434145b610ff8576040517f08c379a0000000000000000000000000000000000000000000000000000000008152600401610fef906130a0565b60405180910390fd5b611000610da4565b73ffffffffffffffffffffffffffffffffffffffff163373ffffffffffffffffffffffffffffffffffffffff16148061104c575060011515600760009054906101000a900460ff161515145b61108b576040517f08c379a00000000000000000000000000000000000000000000000000000000081526004016110829061310c565b60405180910390fd5b611093610da4565b73ffffffffffffffffffffffffffffffffffffffff163373ffffffffffffffffffffffffffffffffffffffff1614806111195750600360009054906101000a900473ffffffffffffffffffffffffffffffffffffffff1673ffffffffffffffffffffffffffffffffffffffff163373ffffffffffffffffffffffffffffffffffffffff16145b61112257600080fd5b61112d600033611ef9565b565b6000346006546040516020016111469291906137e5565b604051602081830303815290604052905061115f610da4565b73ffffffffffffffffffffffffffffffffffffffff163373ffffffffffffffffffffffffffffffffffffffff161480611199575060065434145b81906111db576040517f08c379a00000000000000000000000000000000000000000000000000000000081526004016111d291906135ad565b60405180910390fd5b506111e4610da4565b73ffffffffffffffffffffffffffffffffffffffff163373ffffffffffffffffffffffffffffffffffffffff16148061126a5750600360009054906101000a900473ffffffffffffffffffffffffffffffffffffffff1673ffffffffffffffffffffffffffffffffffffffff163373ffffffffffffffffffffffffffffffffffffffff16145b806112c25750600560009054906101000a900473ffffffffffffffffffffffffffffffffffffffff1673ffffffffffffffffffffffffffffffffffffffff163373ffffffffffffffffffffffffffffffffffffffff16145b611301576040517f08c379a00000000000000000000000000000000000000000000000000000000081526004016112f890613873565b60405180910390fd5b61130b8383611ef9565b505050565b611318611c56565b83600260006101000a81548173ffffffffffffffffffffffffffffffffffffffff021916908373ffffffffffffffffffffffffffffffffffffffff16021790555082600360006101000a81548173ffffffffffffffffffffffffffffffffffffffff021916908373ffffffffffffffffffffffffffffffffffffffff16021790555081600460006101000a81548173ffffffffffffffffffffffffffffffffffffffff021916908373ffffffffffffffffffffffffffffffffffffffff16021790555080600560006101000a81548173ffffffffffffffffffffffffffffffffffffffff021916908373ffffffffffffffffffffffffffffffffffffffff16021790555050505050565b60606000600a600084815260200190815260200160002080549050905060008114156114a557600067ffffffffffffffff81111561146357611462612963565b5b60405190808252806020026020018201604052801561149c57816020015b61148961228a565b8152602001906001900390816114815790505b509150506116c6565b60008167ffffffffffffffff8111156114c1576114c0612963565b5b6040519080825280602002602001820160405280156114fa57816020015b6114e761228a565b8152602001906001900390816114df5790505b50905060005b6009805490508110156116bf576009600a6000878152602001908152602001600020828154811061153457611533613893565b5b9060005260206000200154815481106115505761154f613893565b5b9060005260206000209060070201604051806101800160405290816000820154815260200160018201548152602001600282015481526020016003820154815260200160048201548152602001600582015481526020016006820160009054906101000a900460ff1660028111156115cb576115ca612c54565b5b60028111156115dd576115dc612c54565b5b81526020016006820160019054906101000a900460ff1660ff1660ff1681526020016006820160029054906101000a900460ff1660ff1660ff1681526020016006820160039054906101000a900460ff1660038111156116405761163f612c54565b5b600381111561165257611651612c54565b5b81526020016006820160049054906101000a900460ff1660ff1660ff1681526020016006820160059054906101000a900460ff1615151515815250508282815181106116a1576116a0613893565b5b602002602001018190525080806116b7906131a4565b915050611500565b5080925050505b919050565b60065481565b600981815481106116e157600080fd5b90600052602060002090600702016000915090508060000154908060010154908060020154908060030154908060040154908060050154908060060160009054906101000a900460ff16908060060160019054906101000a900460ff16908060060160029054906101000a900460ff16908060060160039054906101000a900460ff16908060060160049054906101000a900460ff16908060060160059054906101000a900460ff1690508c565b60008061179e600160066117e1565b60ff1690507f095cdc619082b4591c96a4dcfd31737c0f7d768edeb74d7cda25aba2eefe7268816040516117d2919061289d565b60405180910390a18091505090565b6000600160008154809291906117f6906131a4565b919050555060003360015442604051602001611814939291906138c2565b6040516020818303038152906040528051906020012060001c905060006001858561183f9190613443565b6118499190613477565b90508460ff168160ff168361185e91906138ff565b6118689190613381565b9250505092915050565b60008061187d61178f565b90507f5d360683067536056d2d530278a59b1f5c60a2affe207338479da0f44feda76d8185856040516118b293929190613930565b60405180910390a160018114156118cd5760009150506118fc565b60038385836118dc9190613381565b6118e69190613967565b13156118f65760019150506118fc565b60009150505b92915050565b600760019054906101000a900473ffffffffffffffffffffffffffffffffffffffff1681565b611930611c56565b600073ffffffffffffffffffffffffffffffffffffffff168173ffffffffffffffffffffffffffffffffffffffff1614156119a0576040517f08c379a000000000000000000000000000000000000000000000000000000000815260040161199790613a6d565b60405180910390fd5b6119a981611cd4565b50565b600360009054906101000a900473ffffffffffffffffffffffffffffffffffffffff1673ffffffffffffffffffffffffffffffffffffffff163373ffffffffffffffffffffffffffffffffffffffff1614611a3c576040517f08c379a0000000000000000000000000000000000000000000000000000000008152600401611a3390613ad9565b60405180910390fd5b600060098281548110611a5257611a51613893565b5b906000526020600020906007020160030181905550600060098281548110611a7d57611a7c613893565b5b906000526020600020906007020160060160056101000a81548160ff021916908315150217905550600460009054906101000a900473ffffffffffffffffffffffffffffffffffffffff1673ffffffffffffffffffffffffffffffffffffffff166342966c68826040518263ffffffff1660e01b8152600401611b00919061289d565b600060405180830381600087803b158015611b1a57600080fd5b505af1158015611b2e573d6000803e3d6000fd5b5050505050565b6000600182600001518460000151611b4d9190613b06565b60000b1415611b5f5760009050611c50565b7fffffffffffffffffffffffffffffffffffffffffffffffffffffffffffffffff82600001518460000151611b949190613b06565b60000b1415611ba65760019050611c50565b7fffffffffffffffffffffffffffffffffffffffffffffffffffffffffffffffff82602001518460200151611bdb9190613b06565b60000b1415611bed5760029050611c50565b600182602001518460200151611c039190613b06565b60000b1415611c155760039050611c50565b6040517f08c379a0000000000000000000000000000000000000000000000000000000008152600401611c4790613bc7565b60405180910390fd5b92915050565b611c5e612221565b73ffffffffffffffffffffffffffffffffffffffff16611c7c610da4565b73ffffffffffffffffffffffffffffffffffffffff1614611cd2576040517f08c379a0000000000000000000000000000000000000000000000000000000008152600401611cc990613c33565b60405180910390fd5b565b60008060009054906101000a900473ffffffffffffffffffffffffffffffffffffffff169050816000806101000a81548173ffffffffffffffffffffffffffffffffffffffff021916908373ffffffffffffffffffffffffffffffffffffffff1602179055508173ffffffffffffffffffffffffffffffffffffffff168173ffffffffffffffffffffffffffffffffffffffff167f8be0079c531659141344cd1fd0a4f28419497f9722a3daafe3b4186f6b6457e060405160405180910390a35050565b60606000821415611de0576040518060400160405280600181526020017f30000000000000000000000000000000000000000000000000000000000000008152509050611ef4565b600082905060005b60008214611e12578080611dfb906131a4565b915050600a82611e0b9190613350565b9150611de8565b60008167ffffffffffffffff811115611e2e57611e2d612963565b5b6040519080825280601f01601f191660200182016040528015611e605781602001600182028036833780820191505090505b5090505b60008514611eed57600182611e7991906132ed565b9150600a85611e8891906138ff565b6030611e949190613381565b60f81b818381518110611eaa57611ea9613893565b5b60200101907effffffffffffffffffffffffffffffffffffffffffffffffffffffffffffff1916908160001a905350600a85611ee69190613350565b9450611e64565b8093505050505b919050565b6000600460009054906101000a900473ffffffffffffffffffffffffffffffffffffffff1673ffffffffffffffffffffffffffffffffffffffff16639b6507f064174876e80060046000866040518563ffffffff1660e01b8152600401611f6293929190613cc9565b60206040518083038185885af1158015611f80573d6000803e3d6000fd5b50505050506040513d601f19601f82011682018060405250810190611fa59190613d15565b90506000600460009054906101000a900473ffffffffffffffffffffffffffffffffffffffff1673ffffffffffffffffffffffffffffffffffffffff166328518381836040518263ffffffff1660e01b8152600401612004919061289d565b602060405180830381865afa158015612021573d6000803e3d6000fd5b505050506040513d601f19601f820116820180604052508101906120459190613d57565b9050600060096001816001815401808255809150500390600052602060002090600702019050818160000181905550600160098054905061208691906132ed565b81600101819055508281600201819055508481600301819055506001816004018190555060008160050181905550600b6120cd8360046120c860016000610c67565b610f40565b60ff1610156120dd5760016120e0565b60025b8160060160006101000a81548160ff0219169083600281111561210657612105612c54565b5b021790555060008160060160016101000a81548160ff021916908360ff16021790555060008160060160026101000a81548160ff021916908360ff16021790555061216961216183600461215c60006001610c67565b610f40565b60ff16612229565b8160060160036101000a81548160ff0219169083600381111561218f5761218e612c54565b5b021790555060018160060160046101000a81548160ff021916908360ff16021790555060018160060160056101000a81548160ff021916908315150217905550600a600086815260200190815260200160002060016009805490506121f491906132ed565b90806001815401808255809150506001900390600052602060002001600090919091909150555050505050565b600033905090565b60008082141561223c5760009050612265565b600082141561224e5760009050612265565b60008214156122605760029050612265565b600390505b919050565b6040518060400160405280600060ff168152602001600060ff1681525090565b604051806101800160405280600080191681526020016000815260200160008152602001600081526020016000815260200160008152602001600060028111156122d7576122d6612c54565b5b8152602001600060ff168152602001600060ff1681526020016000600381111561230457612303612c54565b5b8152602001600060ff1681526020016000151581525090565b600073ffffffffffffffffffffffffffffffffffffffff82169050919050565b6000819050919050565b600061236261235d6123588461231d565b61233d565b61231d565b9050919050565b600061237482612347565b9050919050565b600061238682612369565b9050919050565b6123968161237b565b82525050565b60006020820190506123b1600083018461238d565b92915050565b6000604051905090565b600080fd5b600080fd5b60006123d68261231d565b9050919050565b6123e6816123cb565b81146123f157600080fd5b50565b600081359050612403816123dd565b92915050565b6000819050919050565b61241c81612409565b811461242757600080fd5b50565b60008135905061243981612413565b92915050565b600080fd5b600080fd5b600080fd5b60008083601f8401126124645761246361243f565b5b8235905067ffffffffffffffff81111561248157612480612444565b5b60208301915083600182028301111561249d5761249c612449565b5b9250929050565b6000806000806000608086880312156124c0576124bf6123c1565b5b60006124ce888289016123f4565b95505060206124df888289016123f4565b94505060406124f08882890161242a565b935050606086013567ffffffffffffffff811115612511576125106123c6565b5b61251d8882890161244e565b92509250509295509295909350565b60007fffffffff0000000000000000000000000000000000000000000000000000000082169050919050565b6125618161252c565b82525050565b600060208201905061257c6000830184612558565b92915050565b61258b816123cb565b82525050565b60006020820190506125a66000830184612582565b92915050565b6000819050919050565b6125bf816125ac565b81146125ca57600080fd5b50565b6000813590506125dc816125b6565b92915050565b6000602082840312156125f8576125f76123c1565b5b6000612606848285016125cd565b91505092915050565b612618816125ac565b82525050565b6000602082019050612633600083018461260f565b92915050565b6000819050919050565b61264c81612639565b82525050565b60006020820190506126676000830184612643565b92915050565b600060208284031215612683576126826123c1565b5b60006126918482850161242a565b91505092915050565b600081519050919050565b600082825260208201905092915050565b6000819050602082019050919050565b6126cf81612409565b82525050565b60006126e183836126c6565b60208301905092915050565b6000602082019050919050565b60006127058261269a565b61270f81856126a5565b935061271a836126b6565b8060005b8381101561274b57815161273288826126d5565b975061273d836126ed565b92505060018101905061271e565b5085935050505092915050565b6000602082019050818103600083015261277281846126fa565b905092915050565b60008115159050919050565b61278f8161277a565b82525050565b60006020820190506127aa6000830184612786565b92915050565b600080600080608085870312156127ca576127c96123c1565b5b60006127d88782880161242a565b94505060206127e98782880161242a565b93505060406127fa8782880161242a565b925050606061280b8782880161242a565b91505092959194509250565b600060ff82169050919050565b61282d81612817565b82525050565b60006020820190506128486000830184612824565b92915050565b60008060408385031215612865576128646123c1565b5b60006128738582860161242a565b92505060206128848582860161242a565b9150509250929050565b61289781612409565b82525050565b60006020820190506128b2600083018461288e565b92915050565b60006128c382612369565b9050919050565b6128d3816128b8565b82525050565b60006020820190506128ee60008301846128ca565b92915050565b6128fd8161277a565b811461290857600080fd5b50565b60008135905061291a816128f4565b92915050565b600060208284031215612936576129356123c1565b5b60006129448482850161290b565b91505092915050565b600080fd5b6000601f19601f8301169050919050565b7f4e487b7100000000000000000000000000000000000000000000000000000000600052604160045260246000fd5b61299b82612952565b810181811067ffffffffffffffff821117156129ba576129b9612963565b5b80604052505050565b60006129cd6123b7565b90506129d98282612992565b919050565b6129e781612817565b81146129f257600080fd5b50565b600081359050612a04816129de565b92915050565b600060408284031215612a2057612a1f61294d565b5b612a2a60406129c3565b90506000612a3a848285016129f5565b6000830152506020612a4e848285016129f5565b60208301525092915050565b60008060608385031215612a7157612a706123c1565b5b6000612a7f8582860161242a565b9250506020612a9085828601612a0a565b9150509250929050565b612aa381612817565b82525050565b604082016000820151612abf6000850182612a9a565b506020820151612ad26020850182612a9a565b50505050565b6000604082019050612aed6000830184612aa9565b92915050565b612afc81612639565b8114612b0757600080fd5b50565b600081359050612b1981612af3565b92915050565b600080600060608486031215612b3857612b376123c1565b5b6000612b4686828701612b0a565b9350506020612b578682870161242a565b9250506040612b688682870161242a565b9150509250925092565b60008060408385031215612b8957612b886123c1565b5b6000612b978582860161242a565b9250506020612ba8858286016123f4565b9150509250929050565b60008060008060808587031215612bcc57612bcb6123c1565b5b6000612bda878288016123f4565b9450506020612beb878288016123f4565b9350506040612bfc878288016123f4565b9250506060612c0d878288016123f4565b91505092959194509250565b600081519050919050565b600082825260208201905092915050565b6000819050602082019050919050565b612c4e81612639565b82525050565b7f4e487b7100000000000000000000000000000000000000000000000000000000600052602160045260246000fd5b60038110612c9457612c93612c54565b5b50565b6000819050612ca582612c83565b919050565b6000612cb582612c97565b9050919050565b612cc581612caa565b82525050565b60048110612cdc57612cdb612c54565b5b50565b6000819050612ced82612ccb565b919050565b6000612cfd82612cdf565b9050919050565b612d0d81612cf2565b82525050565b612d1c8161277a565b82525050565b61018082016000820151612d396000850182612c45565b506020820151612d4c60208501826126c6565b506040820151612d5f60408501826126c6565b506060820151612d7260608501826126c6565b506080820151612d8560808501826126c6565b5060a0820151612d9860a08501826126c6565b5060c0820151612dab60c0850182612cbc565b5060e0820151612dbe60e0850182612a9a565b50610100820151612dd3610100850182612a9a565b50610120820151612de8610120850182612d04565b50610140820151612dfd610140850182612a9a565b50610160820151612e12610160850182612d13565b50505050565b6000612e248383612d22565b6101808301905092915050565b6000602082019050919050565b6000612e4982612c19565b612e538185612c24565b9350612e5e83612c35565b8060005b83811015612e8f578151612e768882612e18565b9750612e8183612e31565b925050600181019050612e62565b5085935050505092915050565b60006020820190508181036000830152612eb68184612e3e565b905092915050565b612ec781612caa565b82525050565b612ed681612cf2565b82525050565b600061018082019050612ef2600083018f612643565b612eff602083018e61288e565b612f0c604083018d61288e565b612f19606083018c61288e565b612f26608083018b61288e565b612f3360a083018a61288e565b612f4060c0830189612ebe565b612f4d60e0830188612824565b612f5b610100830187612824565b612f69610120830186612ecd565b612f77610140830185612824565b612f85610160830184612786565b9d9c50505050505050505050505050565b60008060408385031215612fad57612fac6123c1565b5b6000612fbb858286016129f5565b9250506020612fcc858286016129f5565b9150509250929050565b600060208284031215612fec57612feb6123c1565b5b6000612ffa848285016123f4565b91505092915050565b6000806080838503121561301a576130196123c1565b5b600061302885828601612a0a565b925050604061303985828601612a0a565b9150509250929050565b600082825260208201905092915050565b7f496e636f7272656374207061796d656e74000000000000000000000000000000600082015250565b600061308a601183613043565b915061309582613054565b602082019050919050565b600060208201905081810360008301526130b98161307d565b9050919050565b7f4d696e74696e67206973206e6f74206163746976650000000000000000000000600082015250565b60006130f6601583613043565b9150613101826130c0565b602082019050919050565b60006020820190508181036000830152613125816130e9565b9050919050565b7f4e487b7100000000000000000000000000000000000000000000000000000000600052601160045260246000fd5b6000613166826125ac565b91507f80000000000000000000000000000000000000000000000000000000000000008214156131995761319861312c565b5b816000039050919050565b60006131af82612409565b91507fffffffffffffffffffffffffffffffffffffffffffffffffffffffffffffffff8214156131e2576131e161312c565b5b600182019050919050565b6000819050919050565b61320861320382612409565b6131ed565b82525050565b60008160601b9050919050565b60006132268261320e565b9050919050565b60006132388261321b565b9050919050565b61325061324b826123cb565b61322d565b82525050565b600061326282866131f7565b60208201915061327282856131f7565b602082019150613282828461323f565b601482019150819050949350505050565b600061329e82612409565b91506132a983612409565b9250817fffffffffffffffffffffffffffffffffffffffffffffffffffffffffffffffff04831182151516156132e2576132e161312c565b5b828202905092915050565b60006132f882612409565b915061330383612409565b9250828210156133165761331561312c565b5b828203905092915050565b7f4e487b7100000000000000000000000000000000000000000000000000000000600052601260045260246000fd5b600061335b82612409565b915061336683612409565b92508261337657613375613321565b5b828204905092915050565b600061338c82612409565b915061339783612409565b9250827fffffffffffffffffffffffffffffffffffffffffffffffffffffffffffffffff038211156133cc576133cb61312c565b5b828201905092915050565b7f42616420646972656374696f6e00000000000000000000000000000000000000600082015250565b600061340d600d83613043565b9150613418826133d7565b602082019050919050565b6000602082019050818103600083015261343c81613400565b9050919050565b600061344e82612817565b915061345983612817565b92508282101561346c5761346b61312c565b5b828203905092915050565b600061348282612817565b915061348d83612817565b92508260ff038211156134a3576134a261312c565b5b828201905092915050565b7f496e76616c696420646972656374696f6e3a2000000000000000000000000000815250565b600081519050919050565b600081905092915050565b60005b838110156135085780820151818401526020810190506134ed565b83811115613517576000848401525b50505050565b6000613528826134d4565b61353281856134df565b93506135428185602086016134ea565b80840191505092915050565b6000613559826134ae565b601382019150613569828461351d565b915081905092915050565b600061357f826134d4565b6135898185613043565b93506135998185602086016134ea565b6135a281612952565b840191505092915050565b600060208201905081810360008301526135c78184613574565b905092915050565b60008160011c9050919050565b6000808291508390505b6001851115613626578086048111156136025761360161312c565b5b60018516156136115780820291505b808102905061361f856135cf565b94506135e6565b94509492505050565b60008261363f57600190506136fb565b8161364d57600090506136fb565b8160018114613663576002811461366d5761369c565b60019150506136fb565b60ff84111561367f5761367e61312c565b5b8360020a9150848211156136965761369561312c565b5b506136fb565b5060208310610133831016604e8410600b84101617156136d15782820a9050838111156136cc576136cb61312c565b5b6136fb565b6136de84848460016135dc565b925090508184048111156136f5576136f461312c565b5b81810290505b9392505050565b600061370d82612409565b915061371883612409565b92506137457fffffffffffffffffffffffffffffffffffffffffffffffffffffffffffffffff848461362f565b905092915050565b7f50617965643a2000000000000000000000000000000000000000000000000000600082015250565b60006137836007836134df565b915061378e8261374d565b600782019050919050565b7f2c20636f73742069733a20000000000000000000000000000000000000000000600082015250565b60006137cf600b836134df565b91506137da82613799565b600b82019050919050565b60006137f082613776565b91506137fc82856131f7565b60208201915061380b826137c2565b915061381782846131f7565b6020820191508190509392505050565b7f436f6e7472616374206e6f7420616c6c6f776564000000000000000000000000600082015250565b600061385d601483613043565b915061386882613827565b602082019050919050565b6000602082019050818103600083015261388c81613850565b9050919050565b7f4e487b7100000000000000000000000000000000000000000000000000000000600052603260045260246000fd5b60006138ce828661323f565b6014820191506138de82856131f7565b6020820191506138ee82846131f7565b602082019150819050949350505050565b600061390a82612409565b915061391583612409565b92508261392557613924613321565b5b828206905092915050565b6000606082019050613945600083018661288e565b613952602083018561288e565b61395f604083018461288e565b949350505050565b6000613972826125ac565b915061397d836125ac565b9250827f8000000000000000000000000000000000000000000000000000000000000000018212600084121516156139b8576139b761312c565b5b827f7fffffffffffffffffffffffffffffffffffffffffffffffffffffffffffffff0182136000841216156139f0576139ef61312c565b5b828203905092915050565b7f4f776e61626c653a206e6577206f776e657220697320746865207a65726f206160008201527f6464726573730000000000000000000000000000000000000000000000000000602082015250565b6000613a57602683613043565b9150613a62826139fb565b604082019050919050565b60006020820190508181036000830152613a8681613a4a565b9050919050565b7f4e6f742067616d6520636f6e7472616374000000000000000000000000000000600082015250565b6000613ac3601183613043565b9150613ace82613a8d565b602082019050919050565b60006020820190508181036000830152613af281613ab6565b9050919050565b60008160000b9050919050565b6000613b1182613af9565b9150613b1c83613af9565b9250827fffffffffffffffffffffffffffffffffffffffffffffffffffffffffffffff8001821260008412151615613b5757613b5661312c565b5b82607f018213600084121615613b7057613b6f61312c565b5b828203905092915050565b7f4572726f723a204e6f742061646a6163656e7400000000000000000000000000600082015250565b6000613bb1601383613043565b9150613bbc82613b7b565b602082019050919050565b60006020820190508181036000830152613be081613ba4565b9050919050565b7f4f776e61626c653a2063616c6c6572206973206e6f7420746865206f776e6572600082015250565b6000613c1d602083613043565b9150613c2882613be7565b602082019050919050565b60006020820190508181036000830152613c4c81613c10565b9050919050565b6000819050919050565b6000613c78613c73613c6e84613c53565b61233d565b612409565b9050919050565b613c8881613c5d565b82525050565b6000819050919050565b6000613cb3613cae613ca984613c8e565b61233d565b612409565b9050919050565b613cc381613c98565b82525050565b6000606082019050613cde6000830186613c7f565b613ceb6020830185613cba565b613cf86040830184612582565b949350505050565b600081519050613d0f81612413565b92915050565b600060208284031215613d2b57613d2a6123c1565b5b6000613d3984828501613d00565b91505092915050565b600081519050613d5181612af3565b92915050565b600060208284031215613d6d57613d6c6123c1565b5b6000613d7b84828501613d42565b9150509291505056fea2646970667358221220f857afa006f4fd340d13b1f636074c37379e097d3fb0c5ddef417a622f4c975364736f6c634300080c0033",
  "devdoc": {
    "kind": "dev",
    "methods": {
      "owner()": {
        "details": "Returns the address of the current owner."
      },
      "renounceOwnership()": {
        "details": "Leaves the contract without owner. It will not be possible to call `onlyOwner` functions anymore. Can only be called by the current owner. NOTE: Renouncing ownership will leave the contract without an owner, thereby removing any functionality that is only available to the owner."
      },
      "transferOwnership(address)": {
        "details": "Transfers ownership of the contract to a new account (`newOwner`). Can only be called by the current owner."
      }
    },
    "version": 1
  },
  "userdoc": {
    "kind": "user",
    "methods": {},
    "version": 1
  },
  "storageLayout": {
    "storage": [
      {
        "astId": 7,
        "contract": "contracts/BCItems.sol:BCItems",
        "label": "_owner",
        "offset": 0,
        "slot": "0",
        "type": "t_address"
      },
      {
        "astId": 4260,
        "contract": "contracts/BCItems.sol:BCItems",
        "label": "TODO_randomSeed",
        "offset": 0,
        "slot": "1",
        "type": "t_uint256"
      },
      {
        "astId": 3363,
        "contract": "contracts/BCItems.sol:BCItems",
        "label": "lobbies",
        "offset": 0,
        "slot": "2",
        "type": "t_contract(LobbyInterface)3307"
      },
      {
        "astId": 3365,
        "contract": "contracts/BCItems.sol:BCItems",
        "label": "gamesContract",
        "offset": 0,
        "slot": "3",
        "type": "t_address"
      },
      {
        "astId": 3368,
        "contract": "contracts/BCItems.sol:BCItems",
        "label": "uif",
        "offset": 0,
        "slot": "4",
        "type": "t_contract(UIFInterface)3354"
      },
      {
        "astId": 3370,
        "contract": "contracts/BCItems.sol:BCItems",
        "label": "actionsContract",
        "offset": 0,
        "slot": "5",
        "type": "t_address"
      },
      {
        "astId": 3407,
        "contract": "contracts/BCItems.sol:BCItems",
        "label": "mintCost",
        "offset": 0,
        "slot": "6",
        "type": "t_uint256"
      },
      {
        "astId": 3410,
        "contract": "contracts/BCItems.sol:BCItems",
        "label": "mintIsActive",
        "offset": 0,
        "slot": "7",
        "type": "t_bool"
      },
      {
        "astId": 3414,
        "contract": "contracts/BCItems.sol:BCItems",
        "label": "allowedContract",
        "offset": 1,
        "slot": "7",
        "type": "t_address"
      },
      {
        "astId": 3417,
        "contract": "contracts/BCItems.sol:BCItems",
        "label": "randSeed",
        "offset": 0,
        "slot": "8",
        "type": "t_uint256"
      },
      {
        "astId": 3421,
        "contract": "contracts/BCItems.sol:BCItems",
        "label": "items",
        "offset": 0,
        "slot": "9",
        "type": "t_array(t_struct(Item)4236_storage)dyn_storage"
      },
      {
        "astId": 3426,
        "contract": "contracts/BCItems.sol:BCItems",
        "label": "playerToItems",
        "offset": 0,
        "slot": "10",
        "type": "t_mapping(t_uint256,t_array(t_uint256)dyn_storage)"
      },
      {
        "astId": 3430,
        "contract": "contracts/BCItems.sol:BCItems",
        "label": "itemTraitModifiers",
        "offset": 0,
        "slot": "11",
        "type": "t_array(t_struct(Traits)4180_storage)dyn_storage"
      }
    ],
    "types": {
      "t_address": {
        "encoding": "inplace",
        "label": "address",
        "numberOfBytes": "20"
      },
      "t_array(t_struct(Item)4236_storage)dyn_storage": {
        "base": "t_struct(Item)4236_storage",
        "encoding": "dynamic_array",
        "label": "struct BCTypes.Item[]",
        "numberOfBytes": "32"
      },
      "t_array(t_struct(Traits)4180_storage)dyn_storage": {
        "base": "t_struct(Traits)4180_storage",
        "encoding": "dynamic_array",
        "label": "struct BCTypes.Traits[]",
        "numberOfBytes": "32"
      },
      "t_array(t_uint256)dyn_storage": {
        "base": "t_uint256",
        "encoding": "dynamic_array",
        "label": "uint256[]",
        "numberOfBytes": "32"
      },
      "t_bool": {
        "encoding": "inplace",
        "label": "bool",
        "numberOfBytes": "1"
      },
      "t_bytes32": {
        "encoding": "inplace",
        "label": "bytes32",
        "numberOfBytes": "32"
      },
      "t_contract(LobbyInterface)3307": {
        "encoding": "inplace",
        "label": "contract LobbyInterface",
        "numberOfBytes": "20"
      },
      "t_contract(UIFInterface)3354": {
        "encoding": "inplace",
        "label": "contract UIFInterface",
        "numberOfBytes": "20"
      },
      "t_enum(ItemCategory)4204": {
        "encoding": "inplace",
        "label": "enum BCTypes.ItemCategory",
        "numberOfBytes": "1"
      },
      "t_enum(ItemType)4209": {
        "encoding": "inplace",
        "label": "enum BCTypes.ItemType",
        "numberOfBytes": "1"
      },
      "t_int8": {
        "encoding": "inplace",
        "label": "int8",
        "numberOfBytes": "1"
      },
      "t_mapping(t_uint256,t_array(t_uint256)dyn_storage)": {
        "encoding": "mapping",
        "key": "t_uint256",
        "label": "mapping(uint256 => uint256[])",
        "numberOfBytes": "32",
        "value": "t_array(t_uint256)dyn_storage"
      },
      "t_struct(Item)4236_storage": {
        "encoding": "inplace",
        "label": "struct BCTypes.Item",
        "members": [
          {
            "astId": 4211,
            "contract": "contracts/BCItems.sol:BCItems",
            "label": "genHash",
            "offset": 0,
            "slot": "0",
            "type": "t_bytes32"
          },
          {
            "astId": 4213,
            "contract": "contracts/BCItems.sol:BCItems",
            "label": "id",
            "offset": 0,
            "slot": "1",
            "type": "t_uint256"
          },
          {
            "astId": 4215,
            "contract": "contracts/BCItems.sol:BCItems",
            "label": "uifID",
            "offset": 0,
            "slot": "2",
            "type": "t_uint256"
          },
          {
            "astId": 4217,
            "contract": "contracts/BCItems.sol:BCItems",
            "label": "holdingPlayerId",
            "offset": 0,
            "slot": "3",
            "type": "t_uint256"
          },
          {
            "astId": 4219,
            "contract": "contracts/BCItems.sol:BCItems",
            "label": "weight",
            "offset": 0,
            "slot": "4",
            "type": "t_uint256"
          },
          {
            "astId": 4221,
            "contract": "contracts/BCItems.sol:BCItems",
            "label": "traitModID",
            "offset": 0,
            "slot": "5",
            "type": "t_uint256"
          },
          {
            "astId": 4224,
            "contract": "contracts/BCItems.sol:BCItems",
            "label": "itemCategory",
            "offset": 0,
            "slot": "6",
            "type": "t_enum(ItemCategory)4204"
          },
          {
            "astId": 4226,
            "contract": "contracts/BCItems.sol:BCItems",
            "label": "grantsAbility",
            "offset": 1,
            "slot": "6",
            "type": "t_uint8"
          },
          {
            "astId": 4228,
            "contract": "contracts/BCItems.sol:BCItems",
            "label": "grantsFlaw",
            "offset": 2,
            "slot": "6",
            "type": "t_uint8"
          },
          {
            "astId": 4231,
            "contract": "contracts/BCItems.sol:BCItems",
            "label": "itemType",
            "offset": 3,
            "slot": "6",
            "type": "t_enum(ItemType)4209"
          },
          {
            "astId": 4233,
            "contract": "contracts/BCItems.sol:BCItems",
            "label": "power",
            "offset": 4,
            "slot": "6",
            "type": "t_uint8"
          },
          {
            "astId": 4235,
            "contract": "contracts/BCItems.sol:BCItems",
            "label": "inGame",
            "offset": 5,
            "slot": "6",
            "type": "t_bool"
          }
        ],
        "numberOfBytes": "224"
      },
      "t_struct(Traits)4180_storage": {
        "encoding": "inplace",
        "label": "struct BCTypes.Traits",
        "members": [
          {
            "astId": 4167,
            "contract": "contracts/BCItems.sol:BCItems",
            "label": "health",
            "offset": 0,
            "slot": "0",
            "type": "t_int8"
          },
          {
            "astId": 4169,
            "contract": "contracts/BCItems.sol:BCItems",
            "label": "carry",
            "offset": 1,
            "slot": "0",
            "type": "t_int8"
          },
          {
            "astId": 4171,
            "contract": "contracts/BCItems.sol:BCItems",
            "label": "defense",
            "offset": 2,
            "slot": "0",
            "type": "t_int8"
          },
          {
            "astId": 4173,
            "contract": "contracts/BCItems.sol:BCItems",
            "label": "hack",
            "offset": 3,
            "slot": "0",
            "type": "t_int8"
          },
          {
            "astId": 4175,
            "contract": "contracts/BCItems.sol:BCItems",
            "label": "breach",
            "offset": 4,
            "slot": "0",
            "type": "t_int8"
          },
          {
            "astId": 4177,
            "contract": "contracts/BCItems.sol:BCItems",
            "label": "shoot",
            "offset": 5,
            "slot": "0",
            "type": "t_int8"
          },
          {
            "astId": 4179,
            "contract": "contracts/BCItems.sol:BCItems",
            "label": "melee",
            "offset": 6,
            "slot": "0",
            "type": "t_int8"
          }
        ],
        "numberOfBytes": "32"
      },
      "t_uint256": {
        "encoding": "inplace",
        "label": "uint256",
        "numberOfBytes": "32"
      },
      "t_uint8": {
        "encoding": "inplace",
        "label": "uint8",
        "numberOfBytes": "1"
      }
    }
  }
}