{
  "address": "0x213a057Ac72fBaF3506Fd55Bbb5C3960aEccc0E9",
  "abi": [
    {
      "inputs": [],
      "stateMutability": "nonpayable",
      "type": "constructor"
    },
    {
      "anonymous": false,
      "inputs": [
        {
          "indexed": true,
          "internalType": "address",
          "name": "previousOwner",
          "type": "address"
        },
        {
          "indexed": true,
          "internalType": "address",
          "name": "newOwner",
          "type": "address"
        }
      ],
      "name": "OwnershipTransferred",
      "type": "event"
    },
    {
      "inputs": [],
      "name": "StartLocation",
      "outputs": [
        {
          "internalType": "uint8",
          "name": "row",
          "type": "uint8"
        },
        {
          "internalType": "uint8",
          "name": "col",
          "type": "uint8"
        }
      ],
      "stateMutability": "view",
      "type": "function"
    },
    {
      "inputs": [],
      "name": "actionsAddress",
      "outputs": [
        {
          "internalType": "address",
          "name": "",
          "type": "address"
        }
      ],
      "stateMutability": "view",
      "type": "function"
    },
    {
      "inputs": [
        {
          "internalType": "address",
          "name": "_charContractAddress",
          "type": "address"
        },
        {
          "internalType": "uint256",
          "name": "_charId",
          "type": "uint256"
        },
        {
          "internalType": "address",
          "name": "_owner",
          "type": "address"
        }
      ],
      "name": "addPlayer",
      "outputs": [
        {
          "internalType": "uint256",
          "name": "",
          "type": "uint256"
        }
      ],
      "stateMutability": "nonpayable",
      "type": "function"
    },
    {
      "inputs": [
        {
          "internalType": "uint256",
          "name": "_mapId",
          "type": "uint256"
        },
        {
          "internalType": "uint256[]",
          "name": "_players",
          "type": "uint256[]"
        }
      ],
      "name": "applyHazardDamage",
      "outputs": [],
      "stateMutability": "nonpayable",
      "type": "function"
    },
    {
      "inputs": [],
      "name": "bcEvents",
      "outputs": [
        {
          "internalType": "contract EventsInterface",
          "name": "",
          "type": "address"
        }
      ],
      "stateMutability": "view",
      "type": "function"
    },
    {
      "inputs": [],
      "name": "chars",
      "outputs": [
        {
          "internalType": "contract CharInterface",
          "name": "",
          "type": "address"
        }
      ],
      "stateMutability": "view",
      "type": "function"
    },
    {
      "inputs": [],
      "name": "charsAddress",
      "outputs": [
        {
          "internalType": "address",
          "name": "",
          "type": "address"
        }
      ],
      "stateMutability": "view",
      "type": "function"
    },
    {
      "inputs": [
        {
          "internalType": "uint256",
          "name": "_playerId",
          "type": "uint256"
        },
        {
          "internalType": "uint256",
          "name": "_gameId",
          "type": "uint256"
        },
        {
          "internalType": "uint256",
          "name": "_mapId",
          "type": "uint256"
        },
        {
          "components": [
            {
              "internalType": "uint8",
              "name": "row",
              "type": "uint8"
            },
            {
              "internalType": "uint8",
              "name": "col",
              "type": "uint8"
            }
          ],
          "internalType": "struct BCTypes.Position",
          "name": "_position",
          "type": "tuple"
        },
        {
          "internalType": "uint256",
          "name": "_eventId",
          "type": "uint256"
        },
        {
          "internalType": "uint256",
          "name": "_effectNum",
          "type": "uint256"
        }
      ],
      "name": "extApplyEffect",
      "outputs": [],
      "stateMutability": "nonpayable",
      "type": "function"
    },
    {
      "inputs": [
        {
          "internalType": "uint256",
          "name": "_choice",
          "type": "uint256"
        },
        {
          "internalType": "uint256",
          "name": "_eventPlayerId",
          "type": "uint256"
        },
        {
          "internalType": "uint256",
          "name": "_gameId",
          "type": "uint256"
        },
        {
          "internalType": "uint256",
          "name": "_mapId",
          "type": "uint256"
        },
        {
          "components": [
            {
              "internalType": "uint8",
              "name": "row",
              "type": "uint8"
            },
            {
              "internalType": "uint8",
              "name": "col",
              "type": "uint8"
            }
          ],
          "internalType": "struct BCTypes.Position",
          "name": "_position",
          "type": "tuple"
        },
        {
          "internalType": "uint256",
          "name": "_eventNumber",
          "type": "uint256"
        },
        {
          "internalType": "bool",
          "name": "_eventIsTile",
          "type": "bool"
        }
      ],
      "name": "extChooseEffect",
      "outputs": [],
      "stateMutability": "nonpayable",
      "type": "function"
    },
    {
      "inputs": [
        {
          "internalType": "uint256",
          "name": "_id",
          "type": "uint256"
        }
      ],
      "name": "extGetPlayer",
      "outputs": [
        {
          "components": [
            {
              "internalType": "address",
              "name": "owner",
              "type": "address"
            },
            {
              "internalType": "address",
              "name": "charContractAddress",
              "type": "address"
            },
            {
              "internalType": "uint256",
              "name": "characterId",
              "type": "uint256"
            },
            {
              "components": [
                {
                  "internalType": "uint8",
                  "name": "row",
                  "type": "uint8"
                },
                {
                  "internalType": "uint8",
                  "name": "col",
                  "type": "uint8"
                }
              ],
              "internalType": "struct BCTypes.Position",
              "name": "position",
              "type": "tuple"
            },
            {
              "internalType": "int8",
              "name": "healthDmgTaken",
              "type": "int8"
            },
            {
              "internalType": "uint8",
              "name": "armorDmgTaken",
              "type": "uint8"
            },
            {
              "internalType": "uint8",
              "name": "actionsTaken",
              "type": "uint8"
            },
            {
              "internalType": "uint8",
              "name": "dataTokens",
              "type": "uint8"
            },
            {
              "internalType": "uint8[]",
              "name": "currentEffects",
              "type": "uint8[]"
            },
            {
              "internalType": "uint8[]",
              "name": "inventoryIDs",
              "type": "uint8[]"
            },
            {
              "internalType": "bool",
              "name": "canHarmOthers",
              "type": "bool"
            },
            {
              "internalType": "bool",
              "name": "dead",
              "type": "bool"
            },
            {
              "internalType": "bool",
              "name": "hasEgg",
              "type": "bool"
            }
          ],
          "internalType": "struct BCTypes.Player",
          "name": "",
          "type": "tuple"
        }
      ],
      "stateMutability": "view",
      "type": "function"
    },
    {
      "inputs": [
        {
          "internalType": "uint256",
          "name": "_id",
          "type": "uint256"
        }
      ],
      "name": "extGetPlayerOwner",
      "outputs": [
        {
          "internalType": "address",
          "name": "",
          "type": "address"
        }
      ],
      "stateMutability": "view",
      "type": "function"
    },
    {
      "inputs": [
        {
          "internalType": "uint256",
          "name": "_playerId",
          "type": "uint256"
        },
        {
          "internalType": "uint256",
          "name": "_amount",
          "type": "uint256"
        },
        {
          "internalType": "bool",
          "name": "_hazard",
          "type": "bool"
        }
      ],
      "name": "extHurtPlayer",
      "outputs": [],
      "stateMutability": "nonpayable",
      "type": "function"
    },
    {
      "inputs": [
        {
          "components": [
            {
              "internalType": "uint8",
              "name": "row",
              "type": "uint8"
            },
            {
              "internalType": "uint8",
              "name": "col",
              "type": "uint8"
            }
          ],
          "internalType": "struct BCTypes.Position",
          "name": "_position",
          "type": "tuple"
        },
        {
          "internalType": "uint256",
          "name": "_playerId",
          "type": "uint256"
        },
        {
          "internalType": "uint256",
          "name": "_mapId",
          "type": "uint256"
        }
      ],
      "name": "extMovePlayer",
      "outputs": [
        {
          "internalType": "bool",
          "name": "",
          "type": "bool"
        }
      ],
      "stateMutability": "nonpayable",
      "type": "function"
    },
    {
      "inputs": [],
      "name": "games",
      "outputs": [
        {
          "internalType": "contract GamesInterface",
          "name": "",
          "type": "address"
        }
      ],
      "stateMutability": "view",
      "type": "function"
    },
    {
      "inputs": [
        {
          "internalType": "uint256",
          "name": "_playerId",
          "type": "uint256"
        },
        {
          "internalType": "uint8",
          "name": "_amount",
          "type": "uint8"
        }
      ],
      "name": "grantDataToPlayer",
      "outputs": [],
      "stateMutability": "nonpayable",
      "type": "function"
    },
    {
      "inputs": [
        {
          "internalType": "uint256",
          "name": "_playerId",
          "type": "uint256"
        }
      ],
      "name": "incrementPlayerActions",
      "outputs": [],
      "stateMutability": "nonpayable",
      "type": "function"
    },
    {
      "inputs": [],
      "name": "items",
      "outputs": [
        {
          "internalType": "contract ItemsInterface",
          "name": "",
          "type": "address"
        }
      ],
      "stateMutability": "view",
      "type": "function"
    },
    {
      "inputs": [],
      "name": "lobbiesAddress",
      "outputs": [
        {
          "internalType": "address",
          "name": "",
          "type": "address"
        }
      ],
      "stateMutability": "view",
      "type": "function"
    },
    {
      "inputs": [],
      "name": "maps",
      "outputs": [
        {
          "internalType": "contract MapInterface",
          "name": "",
          "type": "address"
        }
      ],
      "stateMutability": "view",
      "type": "function"
    },
    {
      "inputs": [],
      "name": "owner",
      "outputs": [
        {
          "internalType": "address",
          "name": "",
          "type": "address"
        }
      ],
      "stateMutability": "view",
      "type": "function"
    },
    {
      "inputs": [
        {
          "internalType": "uint256",
          "name": "",
          "type": "uint256"
        }
      ],
      "name": "players",
      "outputs": [
        {
          "internalType": "address",
          "name": "owner",
          "type": "address"
        },
        {
          "internalType": "address",
          "name": "charContractAddress",
          "type": "address"
        },
        {
          "internalType": "uint256",
          "name": "characterId",
          "type": "uint256"
        },
        {
          "components": [
            {
              "internalType": "uint8",
              "name": "row",
              "type": "uint8"
            },
            {
              "internalType": "uint8",
              "name": "col",
              "type": "uint8"
            }
          ],
          "internalType": "struct BCTypes.Position",
          "name": "position",
          "type": "tuple"
        },
        {
          "internalType": "int8",
          "name": "healthDmgTaken",
          "type": "int8"
        },
        {
          "internalType": "uint8",
          "name": "armorDmgTaken",
          "type": "uint8"
        },
        {
          "internalType": "uint8",
          "name": "actionsTaken",
          "type": "uint8"
        },
        {
          "internalType": "uint8",
          "name": "dataTokens",
          "type": "uint8"
        },
        {
          "internalType": "bool",
          "name": "canHarmOthers",
          "type": "bool"
        },
        {
          "internalType": "bool",
          "name": "dead",
          "type": "bool"
        },
        {
          "internalType": "bool",
          "name": "hasEgg",
          "type": "bool"
        }
      ],
      "stateMutability": "view",
      "type": "function"
    },
    {
      "inputs": [],
      "name": "renounceOwnership",
      "outputs": [],
      "stateMutability": "nonpayable",
      "type": "function"
    },
    {
      "inputs": [
        {
          "internalType": "uint256",
          "name": "_playerId",
          "type": "uint256"
        }
      ],
      "name": "resetPlayerActions",
      "outputs": [],
      "stateMutability": "nonpayable",
      "type": "function"
    },
    {
      "inputs": [
        {
          "internalType": "address",
          "name": "_charAddress",
          "type": "address"
        },
        {
          "internalType": "address",
          "name": "_utilsAddress",
          "type": "address"
        },
        {
          "internalType": "address",
          "name": "_mapsAddress",
          "type": "address"
        },
        {
          "internalType": "address",
          "name": "_lobbiesAddress",
          "type": "address"
        },
        {
          "internalType": "address",
          "name": "_actionsAddress",
          "type": "address"
        },
        {
          "internalType": "address",
          "name": "_eventsAddress",
          "type": "address"
        },
        {
          "internalType": "address",
          "name": "_itemsAddress",
          "type": "address"
        },
        {
          "internalType": "address",
          "name": "_gamesAddress",
          "type": "address"
        }
      ],
      "name": "setContractAddresses",
      "outputs": [],
      "stateMutability": "nonpayable",
      "type": "function"
    },
    {
      "inputs": [
        {
          "internalType": "address",
          "name": "newOwner",
          "type": "address"
        }
      ],
      "name": "transferOwnership",
      "outputs": [],
      "stateMutability": "nonpayable",
      "type": "function"
    },
    {
      "inputs": [],
      "name": "utils",
      "outputs": [
        {
          "internalType": "contract UtilsInterface",
          "name": "",
          "type": "address"
        }
      ],
      "stateMutability": "view",
      "type": "function"
    }
  ],
  "transactionHash": "0x4309f84dc32217cde6a8d0f42ce1c3435212cc3ecb2a2bc62a9cfa8f679cac3b",
  "args": [],
  "numDeployments": 1,
  "solcInputHash": "69f104f7ab54265cf2f4f56c57cecebe",
  "bytecode": "0x60806040526040518060400160405280600a60ff168152602001600660ff16815250600a60008201518160000160006101000a81548160ff021916908360ff16021790555060208201518160000160016101000a81548160ff021916908360ff16021790555050503480156200007457600080fd5b5062000095620000896200009b60201b60201c565b620000a360201b60201c565b62000167565b600033905090565b60008060009054906101000a900473ffffffffffffffffffffffffffffffffffffffff169050816000806101000a81548173ffffffffffffffffffffffffffffffffffffffff021916908373ffffffffffffffffffffffffffffffffffffffff1602179055508173ffffffffffffffffffffffffffffffffffffffff168173ffffffffffffffffffffffffffffffffffffffff167f8be0079c531659141344cd1fd0a4f28419497f9722a3daafe3b4186f6b6457e060405160405180910390a35050565b6146d380620001776000396000f3fe608060405234801561001057600080fd5b506004361061018e5760003560e01c80638d491b3e116100de578063b690719411610097578063dc769ee811610071578063dc769ee81461044d578063ed8619611461046c578063f2fde38b14610488578063f71d96cb146104a45761018e565b8063b6907194146103f7578063c06fad0614610413578063ce932297146104315761018e565b80638d491b3e146103355780638da5cb5b146103655780638f0aa2dd14610383578063921d27991461039f578063955a015b146103bb5780639fca1ee1146103d95761018e565b80635a29638d1161014b578063668a7f3b11610125578063668a7f3b146102d3578063715018a6146102ef5780637b45c0d4146102f95780637ddae103146103175761018e565b80635a29638d1461026957806365c363f0146102875780636621a421146102a35761018e565b806308178b3c146101935780630dd0f588146101c357806310a2cd0d146101df57806310f67fb3146101fd578063336d7d7b1461022d5780633deaec2b1461024b575b600080fd5b6101ad60048036038101906101a89190612a0c565b6104de565b6040516101ba9190612a6e565b60405180910390f35b6101dd60048036038101906101d89190612ac1565b61063f565b005b6101e76106df565b6040516101f49190612b73565b60405180910390f35b61021760048036038101906102129190612b8e565b610705565b6040516102249190612e1f565b60405180910390f35b610235610a07565b6040516102429190612e50565b60405180910390f35b610253610a2d565b6040516102609190612e8c565b60405180910390f35b610271610a53565b60405161027e9190612ec8565b60405180910390f35b6102a1600480360381019061029c9190612b8e565b610a79565b005b6102bd60048036038101906102b89190612b8e565b610b15565b6040516102ca9190612e50565b60405180910390f35b6102ed60048036038101906102e8919061303c565b610b64565b005b6102f7610d63565b005b610301610d77565b60405161030e9190612e50565b60405180910390f35b61031f610d9d565b60405161032c91906130b9565b60405180910390f35b61034f600480360381019061034a9190613155565b610dc3565b60405161035c91906131b7565b60405180910390f35b61036d610f98565b60405161037a9190612e50565b60405180910390f35b61039d600480360381019061039891906131d2565b610fc1565b005b6103b960048036038101906103b49190613275565b61137c565b005b6103c3611596565b6040516103d0919061334c565b60405180910390f35b6103e16115bc565b6040516103ee9190612e50565b60405180910390f35b610411600480360381019061040c9190613367565b6115e2565b005b61041b6116cf565b60405161042891906133c8565b60405180910390f35b61044b60048036038101906104469190612b8e565b6116f5565b005b6104556117ad565b6040516104639291906133f2565b60405180910390f35b6104866004803603810190610481919061341b565b6117d9565b005b6104a2600480360381019061049d91906134a8565b611941565b005b6104be60048036038101906104b99190612b8e565b6119c4565b6040516104d59b9a99989796959493929190613513565b60405180910390f35b6000600760009054906101000a900473ffffffffffffffffffffffffffffffffffffffff1673ffffffffffffffffffffffffffffffffffffffff163373ffffffffffffffffffffffffffffffffffffffff1614610570576040517f08c379a00000000000000000000000000000000000000000000000000000000081526004016105679061361c565b60405180910390fd5b6000600b6001816001815401808255809150500390600052602060002090600802019050848160010160006101000a81548173ffffffffffffffffffffffffffffffffffffffff021916908373ffffffffffffffffffffffffffffffffffffffff160217905550828160000160006101000a81548173ffffffffffffffffffffffffffffffffffffffff021916908373ffffffffffffffffffffffffffffffffffffffff1602179055508381600201819055506001600b80549050610635919061366b565b9150509392505050565b600660009054906101000a900473ffffffffffffffffffffffffffffffffffffffff1673ffffffffffffffffffffffffffffffffffffffff163373ffffffffffffffffffffffffffffffffffffffff16146106cf576040517f08c379a00000000000000000000000000000000000000000000000000000000081526004016106c6906136eb565b60405180910390fd5b6106da838383611b0d565b505050565b600160009054906101000a900473ffffffffffffffffffffffffffffffffffffffff1681565b61070d6126f7565b600b82815481106107215761072061370b565b5b9060005260206000209060080201604051806101a00160405290816000820160009054906101000a900473ffffffffffffffffffffffffffffffffffffffff1673ffffffffffffffffffffffffffffffffffffffff1673ffffffffffffffffffffffffffffffffffffffff1681526020016001820160009054906101000a900473ffffffffffffffffffffffffffffffffffffffff1673ffffffffffffffffffffffffffffffffffffffff1673ffffffffffffffffffffffffffffffffffffffff16815260200160028201548152602001600382016040518060400160405290816000820160009054906101000a900460ff1660ff1660ff1681526020016000820160019054906101000a900460ff1660ff1660ff168152505081526020016004820160009054906101000a900460000b60000b60000b81526020016004820160019054906101000a900460ff1660ff1660ff1681526020016004820160029054906101000a900460ff1660ff1660ff1681526020016004820160039054906101000a900460ff1660ff1660ff1681526020016005820180548060200260200160405190810160405280929190818152602001828054801561092857602002820191906000526020600020906000905b82829054906101000a900460ff1660ff16815260200190600101906020826000010492830192600103820291508084116108f15790505b50505050508152602001600682018054806020026020016040519081016040528092919081815260200182805480156109a657602002820191906000526020600020906000905b82829054906101000a900460ff1660ff168152602001906001019060208260000104928301926001038202915080841161096f5790505b505050505081526020016007820160009054906101000a900460ff161515151581526020016007820160019054906101000a900460ff161515151581526020016007820160029054906101000a900460ff1615151515815250509050919050565b600760009054906101000a900473ffffffffffffffffffffffffffffffffffffffff1681565b600360009054906101000a900473ffffffffffffffffffffffffffffffffffffffff1681565b600260009054906101000a900473ffffffffffffffffffffffffffffffffffffffff1681565b600660009054906101000a900473ffffffffffffffffffffffffffffffffffffffff1673ffffffffffffffffffffffffffffffffffffffff163373ffffffffffffffffffffffffffffffffffffffff1614610ad357600080fd5b6000600b8281548110610ae957610ae861370b565b5b906000526020600020906008020160040160026101000a81548160ff021916908360ff16021790555050565b6000600b8281548110610b2b57610b2a61370b565b5b906000526020600020906008020160000160009054906101000a900473ffffffffffffffffffffffffffffffffffffffff169050919050565b600660009054906101000a900473ffffffffffffffffffffffffffffffffffffffff1673ffffffffffffffffffffffffffffffffffffffff163373ffffffffffffffffffffffffffffffffffffffff1614610bf4576040517f08c379a0000000000000000000000000000000000000000000000000000000008152600401610beb906136eb565b60405180910390fd5b60005b60018251610c05919061366b565b8111610d5e576000600b838381518110610c2257610c2161370b565b5b602002602001015181548110610c3b57610c3a61370b565b5b906000526020600020906008020190506000600360009054906101000a900473ffffffffffffffffffffffffffffffffffffffff1673ffffffffffffffffffffffffffffffffffffffff1663f9dfbfcb868460030160000160009054906101000a900460ff168560030160000160019054906101000a900460ff166040518463ffffffff1660e01b8152600401610cd49392919061376b565b61014060405180830381865afa158015610cf2573d6000803e3d6000fd5b505050506040513d601f19601f82011682018060405250810190610d169190613949565b90508060c0015115610d4957610d48848481518110610d3857610d3761370b565b5b6020026020010151600180611b0d565b5b50508080610d5690613977565b915050610bf7565b505050565b610d6b611c4b565b610d756000611cc9565b565b600960009054906101000a900473ffffffffffffffffffffffffffffffffffffffff1681565b600460009054906101000a900473ffffffffffffffffffffffffffffffffffffffff1681565b6000600660009054906101000a900473ffffffffffffffffffffffffffffffffffffffff1673ffffffffffffffffffffffffffffffffffffffff163373ffffffffffffffffffffffffffffffffffffffff1614610e55576040517f08c379a0000000000000000000000000000000000000000000000000000000008152600401610e4c906136eb565b60405180910390fd5b83600b8481548110610e6a57610e6961370b565b5b906000526020600020906008020160030160008201518160000160006101000a81548160ff021916908360ff16021790555060208201518160000160016101000a81548160ff021916908360ff160217905550905050600060ff16600360009054906101000a900473ffffffffffffffffffffffffffffffffffffffff1673ffffffffffffffffffffffffffffffffffffffff1663f9dfbfcb84876000015188602001516040518463ffffffff1660e01b8152600401610f2c9392919061376b565b61014060405180830381865afa158015610f4a573d6000803e3d6000fd5b505050506040513d601f19601f82011682018060405250810190610f6e9190613949565b6000015160ff1603610f8c57610f8383611d8d565b60019050610f91565b600090505b9392505050565b60008060009054906101000a900473ffffffffffffffffffffffffffffffffffffffff16905090565b600660009054906101000a900473ffffffffffffffffffffffffffffffffffffffff1673ffffffffffffffffffffffffffffffffffffffff163373ffffffffffffffffffffffffffffffffffffffff1614611051576040517f08c379a0000000000000000000000000000000000000000000000000000000008152600401611048906136eb565b60405180910390fd5b6110596127a2565b811561110357600460009054906101000a900473ffffffffffffffffffffffffffffffffffffffff1673ffffffffffffffffffffffffffffffffffffffff1663c82c37b9846040518263ffffffff1660e01b81526004016110ba9190612a6e565b610a4060405180830381865afa1580156110d8573d6000803e3d6000fd5b505050506040513d601f19601f820116820180604052508101906110fc9190613d97565b9050611109565b50611373565b6000600460009054906101000a900473ffffffffffffffffffffffffffffffffffffffff1673ffffffffffffffffffffffffffffffffffffffff1663a49ac41184866040518363ffffffff1660e01b8152600401611168929190613dc5565b600060405180830381865afa158015611185573d6000803e3d6000fd5b505050506040513d6000823e3d601f19601f820116820180604052508101906111ae9190613eb3565b90506000826040015160ff161480156111ce57506000826060015160ff16145b15611200576111fb88888888856000815181106111ee576111ed61370b565b5b6020026020010151611f10565b611370565b6000600260009054906101000a900473ffffffffffffffffffffffffffffffffffffffff1673ffffffffffffffffffffffffffffffffffffffff16631f7b4f30896040518263ffffffff1660e01b815260040161125d9190612a6e565b6020604051808303816000875af115801561127c573d6000803e3d6000fd5b505050506040513d601f19601f820116820180604052508101906112a09190613efc565b90506000836040015160ff16141580156112c15750826040015160ff168111155b156112f3576112ee89898989866001815181106112e1576112e061370b565b5b6020026020010151611f10565b61136e565b6000836060015160ff16141580156113125750826060015160ff168110155b156113445761133f89898989866002815181106113325761133161370b565b5b6020026020010151611f10565b61136d565b61136c898989898660008151811061135f5761135e61370b565b5b6020026020010151611f10565b5b5b505b50505b50505050505050565b611384611c4b565b87600160006101000a81548173ffffffffffffffffffffffffffffffffffffffff021916908373ffffffffffffffffffffffffffffffffffffffff16021790555086600260006101000a81548173ffffffffffffffffffffffffffffffffffffffff021916908373ffffffffffffffffffffffffffffffffffffffff16021790555085600360006101000a81548173ffffffffffffffffffffffffffffffffffffffff021916908373ffffffffffffffffffffffffffffffffffffffff16021790555084600760006101000a81548173ffffffffffffffffffffffffffffffffffffffff021916908373ffffffffffffffffffffffffffffffffffffffff16021790555083600960006101000a81548173ffffffffffffffffffffffffffffffffffffffff021916908373ffffffffffffffffffffffffffffffffffffffff16021790555082600460006101000a81548173ffffffffffffffffffffffffffffffffffffffff021916908373ffffffffffffffffffffffffffffffffffffffff16021790555081600560006101000a81548173ffffffffffffffffffffffffffffffffffffffff021916908373ffffffffffffffffffffffffffffffffffffffff16021790555080600660006101000a81548173ffffffffffffffffffffffffffffffffffffffff021916908373ffffffffffffffffffffffffffffffffffffffff1602179055505050505050505050565b600660009054906101000a900473ffffffffffffffffffffffffffffffffffffffff1681565b600860009054906101000a900473ffffffffffffffffffffffffffffffffffffffff1681565b600960009054906101000a900473ffffffffffffffffffffffffffffffffffffffff1673ffffffffffffffffffffffffffffffffffffffff163373ffffffffffffffffffffffffffffffffffffffff1614611672576040517f08c379a000000000000000000000000000000000000000000000000000000000815260040161166990613f75565b60405180910390fd5b80600b83815481106116875761168661370b565b5b906000526020600020906008020160040160038282829054906101000a900460ff166116b39190613f95565b92506101000a81548160ff021916908360ff1602179055505050565b600560009054906101000a900473ffffffffffffffffffffffffffffffffffffffff1681565b600660009054906101000a900473ffffffffffffffffffffffffffffffffffffffff1673ffffffffffffffffffffffffffffffffffffffff163373ffffffffffffffffffffffffffffffffffffffff161461174f57600080fd5b600b81815481106117635761176261370b565b5b9060005260206000209060080201600401600281819054906101000a900460ff168092919061179190613fca565b91906101000a81548160ff021916908360ff1602179055505050565b600a8060000160009054906101000a900460ff16908060000160019054906101000a900460ff16905082565b600960009054906101000a900473ffffffffffffffffffffffffffffffffffffffff1673ffffffffffffffffffffffffffffffffffffffff163373ffffffffffffffffffffffffffffffffffffffff1614611869576040517f08c379a000000000000000000000000000000000000000000000000000000000815260040161186090613f75565b60405180910390fd5b6000600460009054906101000a900473ffffffffffffffffffffffffffffffffffffffff1673ffffffffffffffffffffffffffffffffffffffff1663a49ac4116001856040518363ffffffff1660e01b81526004016118c9929190613dc5565b600060405180830381865afa1580156118e6573d6000803e3d6000fd5b505050506040513d6000823e3d601f19601f8201168201806040525081019061190f9190613eb3565b82815181106119215761192061370b565b5b602002602001015190506119388787878785611f10565b50505050505050565b611949611c4b565b600073ffffffffffffffffffffffffffffffffffffffff168173ffffffffffffffffffffffffffffffffffffffff16036119b8576040517f08c379a00000000000000000000000000000000000000000000000000000000081526004016119af90614065565b60405180910390fd5b6119c181611cc9565b50565b600b81815481106119d457600080fd5b90600052602060002090600802016000915090508060000160009054906101000a900473ffffffffffffffffffffffffffffffffffffffff16908060010160009054906101000a900473ffffffffffffffffffffffffffffffffffffffff1690806002015490806003016040518060400160405290816000820160009054906101000a900460ff1660ff1660ff1681526020016000820160019054906101000a900460ff1660ff1660ff1681525050908060040160009054906101000a900460000b908060040160019054906101000a900460ff16908060040160029054906101000a900460ff16908060040160039054906101000a900460ff16908060070160009054906101000a900460ff16908060070160019054906101000a900460ff16908060070160029054906101000a900460ff1690508b565b6000600b8481548110611b2357611b2261370b565b5b906000526020600020906008020190506000600160009054906101000a900473ffffffffffffffffffffffffffffffffffffffff1673ffffffffffffffffffffffffffffffffffffffff16634810bc5983600201546040518263ffffffff1660e01b8152600401611b949190612a6e565b6101e060405180830381865afa158015611bb2573d6000803e3d6000fd5b505050506040513d601f19601f82011682018060405250810190611bd6919061419f565b9050838260040160008282829054906101000a900460000b611bf891906141cd565b92506101000a81548160ff021916908360000b60ff16021790555080606001516000015160000b8260040160009054906101000a900460000b60000b1315611c4457611c4385611d8d565b5b5050505050565b611c536126ef565b73ffffffffffffffffffffffffffffffffffffffff16611c71610f98565b73ffffffffffffffffffffffffffffffffffffffff1614611cc7576040517f08c379a0000000000000000000000000000000000000000000000000000000008152600401611cbe90614272565b60405180910390fd5b565b60008060009054906101000a900473ffffffffffffffffffffffffffffffffffffffff169050816000806101000a81548173ffffffffffffffffffffffffffffffffffffffff021916908373ffffffffffffffffffffffffffffffffffffffff1602179055508173ffffffffffffffffffffffffffffffffffffffff168173ffffffffffffffffffffffffffffffffffffffff167f8be0079c531659141344cd1fd0a4f28419497f9722a3daafe3b4186f6b6457e060405160405180910390a35050565b6000600b8281548110611da357611da261370b565b5b9060005260206000209060080201905060008160040160006101000a81548160ff021916908360000b60ff160217905550600160009054906101000a900473ffffffffffffffffffffffffffffffffffffffff1673ffffffffffffffffffffffffffffffffffffffff16636d6ba756600b8481548110611e2657611e2561370b565b5b9060005260206000209060080201600201546040518263ffffffff1660e01b8152600401611e549190612a6e565b600060405180830381600087803b158015611e6e57600080fd5b505af1158015611e82573d6000803e3d6000fd5b50505050600a600b8381548110611e9c57611e9b61370b565b5b90600052602060002090600802016003016000820160009054906101000a900460ff168160000160006101000a81548160ff021916908360ff1602179055506000820160019054906101000a900460ff168160000160016101000a81548160ff021916908360ff1602179055509050505050565b6000600b8681548110611f2657611f2561370b565b5b90600052602060002090600802019050816000015150816020015115611f685760008160040160006101000a81548160ff021916908360000b60ff1602179055505b816040015115611f7c57611f7b86611d8d565b5b81606001511561202357600360009054906101000a900473ffffffffffffffffffffffffffffffffffffffff1673ffffffffffffffffffffffffffffffffffffffff1663fe368d7a858560000151866020015160016040518563ffffffff1660e01b8152600401611ff09493929190614292565b600060405180830381600087803b15801561200a57600080fd5b505af115801561201e573d6000803e3d6000fd5b505050505b81608001515060008260a0015160ff1611156120f857816020015115612078578160a00151600061205491906142d7565b8160040160006101000a81548160ff021916908360000b60ff1602179055506120f7565b8160a001518160040160008282829054906101000a900460000b61209c91906142d7565b92506101000a81548160ff021916908360000b60ff16021790555060008160040160009054906101000a900460000b60000b12156120f65760008160040160006101000a81548160ff021916908360000b60ff1602179055505b5b5b60008260c00151505060008260e0015160ff16111561212557612124868360e0015160ff166001611b0d565b5b600082610100015150506000600481111561214357612142614330565b5b826101400151600481111561215b5761215a614330565b5b5050600082610180015160ff16111561217e5761217d868361018001516115e2565b5b6000826101a0015150506000826101c0015160ff161115612487576000826101c0015160ff1690506000600560009054906101000a900473ffffffffffffffffffffffffffffffffffffffff1673ffffffffffffffffffffffffffffffffffffffff16633841fae1896040518263ffffffff1660e01b81526004016122039190612a6e565b600060405180830381865afa158015612220573d6000803e3d6000fd5b505050506040513d6000823e3d601f19601f8201168201806040525081019061224991906143f6565b905060008151111561248457600060018251612265919061366b565b90505b60008111156123a4576000600260009054906101000a900473ffffffffffffffffffffffffffffffffffffffff1673ffffffffffffffffffffffffffffffffffffffff1663ce28613f6000846040518363ffffffff1660e01b81526004016122d192919061447a565b6020604051808303816000875af11580156122f0573d6000803e3d6000fd5b505050506040513d601f19601f8201168201806040525081019061231491906144a3565b9050828160ff168151811061232c5761232b61370b565b5b60200260200101518383815181106123475761234661370b565b5b60200260200101518484815181106123625761236161370b565b5b60200260200101858460ff168151811061237f5761237e61370b565b5b602002602001018281525082815250505050808061239c906144d0565b915050612268565b5060005b815181101561248257600560009054906101000a900473ffffffffffffffffffffffffffffffffffffffff1673ffffffffffffffffffffffffffffffffffffffff1663f7c8af488383815181106124025761240161370b565b5b60200260200101516040518263ffffffff1660e01b81526004016124269190612a6e565b600060405180830381600087803b15801561244057600080fd5b505af1158015612454573d6000803e3d6000fd5b505050508280612463906144d0565b935050600083031561248257808061247a90613977565b9150506123a8565b505b50505b6000600581111561249b5761249a614330565b5b826101e0015160058111156124b3576124b2614330565b5b50506000826102000151505060008261022001515050600082610240015160ff1611156126e75760005b60048110156126e5576000600360009054906101000a900473ffffffffffffffffffffffffffffffffffffffff1673ffffffffffffffffffffffffffffffffffffffff16636ea1dcd88787600001518860200151866040518563ffffffff1660e01b815260040161255194939291906144f9565b606060405180830381865afa15801561256e573d6000803e3d6000fd5b505050506040513d601f19601f8201168201806040525081019061259291906145c7565b9050600160048111156125a8576125a7614330565b5b816040015160048111156125bf576125be614330565b5b14806125f35750600260048111156125da576125d9614330565b5b816040015160048111156125f1576125f0614330565b5b145b8061262657506003600481111561260d5761260c614330565b5b8160400151600481111561262457612623614330565b5b145b156126d157600360009054906101000a900473ffffffffffffffffffffffffffffffffffffffff1673ffffffffffffffffffffffffffffffffffffffff16635921522387876000015188602001518660018a61024001516040518763ffffffff1660e01b815260040161269e9695949392919061463c565b600060405180830381600087803b1580156126b857600080fd5b505af11580156126cc573d6000803e3d6000fd5b505050505b5080806126dd90613977565b9150506124dd565b505b505050505050565b600033905090565b604051806101a00160405280600073ffffffffffffffffffffffffffffffffffffffff168152602001600073ffffffffffffffffffffffffffffffffffffffff1681526020016000815260200161274c6127f9565b81526020016000800b8152602001600060ff168152602001600060ff168152602001600060ff16815260200160608152602001606081526020016000151581526020016000151581526020016000151581525090565b6040518060e0016040528060008152602001600015158152602001600060ff168152602001600060ff1681526020016127d9612819565b81526020016127e6612819565b81526020016127f3612819565b81525090565b6040518060400160405280600060ff168152602001600060ff1681525090565b604051806102800160405280600015158152602001600015158152602001600015158152602001600015158152602001600015158152602001600060ff168152602001600060ff168152602001600060ff168152602001600060ff168152602001600060ff1681526020016000600481111561289857612897614330565b5b8152602001600060038111156128b1576128b0614330565b5b8152602001600060ff168152602001600060ff168152602001600060ff168152602001600060058111156128e8576128e7614330565b5b8152602001600060ff168152602001600060ff168152602001600060ff168152602001612913612919565b81525090565b6040518060e001604052806000800b81526020016000800b81526020016000800b81526020016000800b81526020016000800b81526020016000800b81526020016000800b81525090565b6000604051905090565b600080fd5b600080fd5b600073ffffffffffffffffffffffffffffffffffffffff82169050919050565b60006129a382612978565b9050919050565b6129b381612998565b81146129be57600080fd5b50565b6000813590506129d0816129aa565b92915050565b6000819050919050565b6129e9816129d6565b81146129f457600080fd5b50565b600081359050612a06816129e0565b92915050565b600080600060608486031215612a2557612a2461296e565b5b6000612a33868287016129c1565b9350506020612a44868287016129f7565b9250506040612a55868287016129c1565b9150509250925092565b612a68816129d6565b82525050565b6000602082019050612a836000830184612a5f565b92915050565b60008115159050919050565b612a9e81612a89565b8114612aa957600080fd5b50565b600081359050612abb81612a95565b92915050565b600080600060608486031215612ada57612ad961296e565b5b6000612ae8868287016129f7565b9350506020612af9868287016129f7565b9250506040612b0a86828701612aac565b9150509250925092565b6000819050919050565b6000612b39612b34612b2f84612978565b612b14565b612978565b9050919050565b6000612b4b82612b1e565b9050919050565b6000612b5d82612b40565b9050919050565b612b6d81612b52565b82525050565b6000602082019050612b886000830184612b64565b92915050565b600060208284031215612ba457612ba361296e565b5b6000612bb2848285016129f7565b91505092915050565b612bc481612998565b82525050565b612bd3816129d6565b82525050565b600060ff82169050919050565b612bef81612bd9565b82525050565b604082016000820151612c0b6000850182612be6565b506020820151612c1e6020850182612be6565b50505050565b60008160000b9050919050565b612c3a81612c24565b82525050565b600081519050919050565b600082825260208201905092915050565b6000819050602082019050919050565b6000612c788383612be6565b60208301905092915050565b6000602082019050919050565b6000612c9c82612c40565b612ca68185612c4b565b9350612cb183612c5c565b8060005b83811015612ce2578151612cc98882612c6c565b9750612cd483612c84565b925050600181019050612cb5565b5085935050505092915050565b612cf881612a89565b82525050565b60006101c083016000830151612d176000860182612bbb565b506020830151612d2a6020860182612bbb565b506040830151612d3d6040860182612bca565b506060830151612d506060860182612bf5565b506080830151612d6360a0860182612c31565b5060a0830151612d7660c0860182612be6565b5060c0830151612d8960e0860182612be6565b5060e0830151612d9d610100860182612be6565b50610100830151848203610120860152612db78282612c91565b915050610120830151848203610140860152612dd38282612c91565b915050610140830151612dea610160860182612cef565b50610160830151612dff610180860182612cef565b50610180830151612e146101a0860182612cef565b508091505092915050565b60006020820190508181036000830152612e398184612cfe565b905092915050565b612e4a81612998565b82525050565b6000602082019050612e656000830184612e41565b92915050565b6000612e7682612b40565b9050919050565b612e8681612e6b565b82525050565b6000602082019050612ea16000830184612e7d565b92915050565b6000612eb282612b40565b9050919050565b612ec281612ea7565b82525050565b6000602082019050612edd6000830184612eb9565b92915050565b600080fd5b6000601f19601f8301169050919050565b7f4e487b7100000000000000000000000000000000000000000000000000000000600052604160045260246000fd5b612f3182612ee8565b810181811067ffffffffffffffff82111715612f5057612f4f612ef9565b5b80604052505050565b6000612f63612964565b9050612f6f8282612f28565b919050565b600067ffffffffffffffff821115612f8f57612f8e612ef9565b5b602082029050602081019050919050565b600080fd5b6000612fb8612fb384612f74565b612f59565b90508083825260208201905060208402830185811115612fdb57612fda612fa0565b5b835b818110156130045780612ff088826129f7565b845260208401935050602081019050612fdd565b5050509392505050565b600082601f83011261302357613022612ee3565b5b8135613033848260208601612fa5565b91505092915050565b600080604083850312156130535761305261296e565b5b6000613061858286016129f7565b925050602083013567ffffffffffffffff81111561308257613081612973565b5b61308e8582860161300e565b9150509250929050565b60006130a382612b40565b9050919050565b6130b381613098565b82525050565b60006020820190506130ce60008301846130aa565b92915050565b600080fd5b6130e281612bd9565b81146130ed57600080fd5b50565b6000813590506130ff816130d9565b92915050565b60006040828403121561311b5761311a6130d4565b5b6131256040612f59565b90506000613135848285016130f0565b6000830152506020613149848285016130f0565b60208301525092915050565b60008060006080848603121561316e5761316d61296e565b5b600061317c86828701613105565b935050604061318d868287016129f7565b925050606061319e868287016129f7565b9150509250925092565b6131b181612a89565b82525050565b60006020820190506131cc60008301846131a8565b92915050565b6000806000806000806000610100888a0312156131f2576131f161296e565b5b60006132008a828b016129f7565b97505060206132118a828b016129f7565b96505060406132228a828b016129f7565b95505060606132338a828b016129f7565b94505060806132448a828b01613105565b93505060c06132558a828b016129f7565b92505060e06132668a828b01612aac565b91505092959891949750929550565b600080600080600080600080610100898b0312156132965761329561296e565b5b60006132a48b828c016129c1565b98505060206132b58b828c016129c1565b97505060406132c68b828c016129c1565b96505060606132d78b828c016129c1565b95505060806132e88b828c016129c1565b94505060a06132f98b828c016129c1565b93505060c061330a8b828c016129c1565b92505060e061331b8b828c016129c1565b9150509295985092959890939650565b600061333682612b40565b9050919050565b6133468161332b565b82525050565b6000602082019050613361600083018461333d565b92915050565b6000806040838503121561337e5761337d61296e565b5b600061338c858286016129f7565b925050602061339d858286016130f0565b9150509250929050565b60006133b282612b40565b9050919050565b6133c2816133a7565b82525050565b60006020820190506133dd60008301846133b9565b92915050565b6133ec81612bd9565b82525050565b600060408201905061340760008301856133e3565b61341460208301846133e3565b9392505050565b60008060008060008060e087890312156134385761343761296e565b5b600061344689828a016129f7565b965050602061345789828a016129f7565b955050604061346889828a016129f7565b945050606061347989828a01613105565b93505060a061348a89828a016129f7565b92505060c061349b89828a016129f7565b9150509295509295509295565b6000602082840312156134be576134bd61296e565b5b60006134cc848285016129c1565b91505092915050565b6040820160008201516134eb6000850182612be6565b5060208201516134fe6020850182612be6565b50505050565b61350d81612c24565b82525050565b600061018082019050613529600083018e612e41565b613536602083018d612e41565b613543604083018c612a5f565b613550606083018b6134d5565b61355d60a083018a613504565b61356a60c08301896133e3565b61357760e08301886133e3565b6135856101008301876133e3565b6135936101208301866131a8565b6135a16101408301856131a8565b6135af6101608301846131a8565b9c9b505050505050505050505050565b600082825260208201905092915050565b7f4e6f74206c6f62627920636f6e74726163740000000000000000000000000000600082015250565b60006136066012836135bf565b9150613611826135d0565b602082019050919050565b60006020820190508181036000830152613635816135f9565b9050919050565b7f4e487b7100000000000000000000000000000000000000000000000000000000600052601160045260246000fd5b6000613676826129d6565b9150613681836129d6565b92508282039050818111156136995761369861363c565b5b92915050565b7f4e6f742067616d657320636f6e74726163740000000000000000000000000000600082015250565b60006136d56012836135bf565b91506136e08261369f565b602082019050919050565b60006020820190508181036000830152613704816136c8565b9050919050565b7f4e487b7100000000000000000000000000000000000000000000000000000000600052603260045260246000fd5b600061375561375061374b84612bd9565b612b14565b6129d6565b9050919050565b6137658161373a565b82525050565b60006060820190506137806000830186612a5f565b61378d602083018561375c565b61379a604083018461375c565b949350505050565b6000815190506137b1816130d9565b92915050565b600067ffffffffffffffff8211156137d2576137d1612ef9565b5b602082029050919050565b6000815190506137ec816129e0565b92915050565b6000613805613800846137b7565b612f59565b9050806020840283018581111561381f5761381e612fa0565b5b835b81811015613848578061383488826137dd565b845260208401935050602081019050613821565b5050509392505050565b600082601f83011261386757613866612ee3565b5b60046138748482856137f2565b91505092915050565b60008151905061388c81612a95565b92915050565b600061014082840312156138a9576138a86130d4565b5b6138b360e0612f59565b905060006138c3848285016137a2565b60008301525060206138d7848285016137a2565b60208301525060406138eb84828501613852565b60408301525060c06138ff8482850161387d565b60608301525060e06139138482850161387d565b6080830152506101006139288482850161387d565b60a08301525061012061393d8482850161387d565b60c08301525092915050565b600061014082840312156139605761395f61296e565b5b600061396e84828501613892565b91505092915050565b6000613982826129d6565b91507fffffffffffffffffffffffffffffffffffffffffffffffffffffffffffffffff82036139b4576139b361363c565b5b600182019050919050565b600581106139cc57600080fd5b50565b6000815190506139de816139bf565b92915050565b600481106139f157600080fd5b50565b600081519050613a03816139e4565b92915050565b60068110613a1657600080fd5b50565b600081519050613a2881613a09565b92915050565b613a3781612c24565b8114613a4257600080fd5b50565b600081519050613a5481613a2e565b92915050565b600060e08284031215613a7057613a6f6130d4565b5b613a7a60e0612f59565b90506000613a8a84828501613a45565b6000830152506020613a9e84828501613a45565b6020830152506040613ab284828501613a45565b6040830152506060613ac684828501613a45565b6060830152506080613ada84828501613a45565b60808301525060a0613aee84828501613a45565b60a08301525060c0613b0284828501613a45565b60c08301525092915050565b60006103408284031215613b2557613b246130d4565b5b613b30610280612f59565b90506000613b408482850161387d565b6000830152506020613b548482850161387d565b6020830152506040613b688482850161387d565b6040830152506060613b7c8482850161387d565b6060830152506080613b908482850161387d565b60808301525060a0613ba4848285016137a2565b60a08301525060c0613bb8848285016137a2565b60c08301525060e0613bcc848285016137a2565b60e083015250610100613be1848285016137a2565b61010083015250610120613bf7848285016137a2565b61012083015250610140613c0d848285016139cf565b61014083015250610160613c23848285016139f4565b61016083015250610180613c39848285016137a2565b610180830152506101a0613c4f848285016137a2565b6101a0830152506101c0613c65848285016137a2565b6101c0830152506101e0613c7b84828501613a19565b6101e083015250610200613c91848285016137a2565b61020083015250610220613ca7848285016137a2565b61022083015250610240613cbd848285016137a2565b61024083015250610260613cd384828501613a5a565b6102608301525092915050565b6000610a408284031215613cf757613cf66130d4565b5b613d0160e0612f59565b90506000613d11848285016137dd565b6000830152506020613d258482850161387d565b6020830152506040613d39848285016137a2565b6040830152506060613d4d848285016137a2565b6060830152506080613d6184828501613b0e565b6080830152506103c0613d7684828501613b0e565b60a083015250610700613d8b84828501613b0e565b60c08301525092915050565b6000610a408284031215613dae57613dad61296e565b5b6000613dbc84828501613ce0565b91505092915050565b6000604082019050613dda60008301856131a8565b613de76020830184612a5f565b9392505050565b600067ffffffffffffffff821115613e0957613e08612ef9565b5b602082029050602081019050919050565b6000613e2d613e2884613dee565b612f59565b9050808382526020820190506103408402830185811115613e5157613e50612fa0565b5b835b81811015613e7b5780613e668882613b0e565b84526020840193505061034081019050613e53565b5050509392505050565b600082601f830112613e9a57613e99612ee3565b5b8151613eaa848260208601613e1a565b91505092915050565b600060208284031215613ec957613ec861296e565b5b600082015167ffffffffffffffff811115613ee757613ee6612973565b5b613ef384828501613e85565b91505092915050565b600060208284031215613f1257613f1161296e565b5b6000613f20848285016137dd565b91505092915050565b7f4e6f7420616374696f6e7320636f6e7472616374000000000000000000000000600082015250565b6000613f5f6014836135bf565b9150613f6a82613f29565b602082019050919050565b60006020820190508181036000830152613f8e81613f52565b9050919050565b6000613fa082612bd9565b9150613fab83612bd9565b9250828201905060ff811115613fc457613fc361363c565b5b92915050565b6000613fd582612bd9565b915060ff8203613fe857613fe761363c565b5b600182019050919050565b7f4f776e61626c653a206e6577206f776e657220697320746865207a65726f206160008201527f6464726573730000000000000000000000000000000000000000000000000000602082015250565b600061404f6026836135bf565b915061405a82613ff3565b604082019050919050565b6000602082019050818103600083015261407e81614042565b9050919050565b6000819050919050565b61409881614085565b81146140a357600080fd5b50565b6000815190506140b58161408f565b92915050565b60006101e082840312156140d2576140d16130d4565b5b6140dd610120612f59565b905060006140ed848285016140a6565b6000830152506020614101848285016137dd565b6020830152506040614115848285016137dd565b604083015250606061412984828501613a5a565b60608301525061014061413e848285016137a2565b608083015250610160614153848285016137a2565b60a083015250610180614168848285016137a2565b60c0830152506101a061417d848285016137a2565b60e0830152506101c06141928482850161387d565b6101008301525092915050565b60006101e082840312156141b6576141b561296e565b5b60006141c4848285016140bb565b91505092915050565b60006141d882612c24565b91506141e383612c24565b925082820190507fffffffffffffffffffffffffffffffffffffffffffffffffffffffffffffff808112607f821317156142205761421f61363c565b5b92915050565b7f4f776e61626c653a2063616c6c6572206973206e6f7420746865206f776e6572600082015250565b600061425c6020836135bf565b915061426782614226565b602082019050919050565b6000602082019050818103600083015261428b8161424f565b9050919050565b60006080820190506142a76000830187612a5f565b6142b4602083018661375c565b6142c1604083018561375c565b6142ce60608301846131a8565b95945050505050565b60006142e282612c24565b91506142ed83612c24565b92508282039050607f81137fffffffffffffffffffffffffffffffffffffffffffffffffffffffffffffff808212171561432a5761432961363c565b5b92915050565b7f4e487b7100000000000000000000000000000000000000000000000000000000600052602160045260246000fd5b600061437261436d84612f74565b612f59565b9050808382526020820190506020840283018581111561439557614394612fa0565b5b835b818110156143be57806143aa88826137dd565b845260208401935050602081019050614397565b5050509392505050565b600082601f8301126143dd576143dc612ee3565b5b81516143ed84826020860161435f565b91505092915050565b60006020828403121561440c5761440b61296e565b5b600082015167ffffffffffffffff81111561442a57614429612973565b5b614436848285016143c8565b91505092915050565b6000819050919050565b600061446461445f61445a8461443f565b612b14565b612bd9565b9050919050565b61447481614449565b82525050565b600060408201905061448f600083018561446b565b61449c60208301846133e3565b9392505050565b6000602082840312156144b9576144b861296e565b5b60006144c7848285016137a2565b91505092915050565b60006144db826129d6565b9150600082036144ee576144ed61363c565b5b600182039050919050565b600060808201905061450e6000830187612a5f565b61451b602083018661375c565b614528604083018561375c565b6145356060830184612a5f565b95945050505050565b6005811061454b57600080fd5b50565b60008151905061455d8161453e565b92915050565b600060608284031215614579576145786130d4565b5b6145836060612f59565b90506000614593848285016137a2565b60008301525060206145a7848285016137a2565b60208301525060406145bb8482850161454e565b60408301525092915050565b6000606082840312156145dd576145dc61296e565b5b60006145eb84828501614563565b91505092915050565b6005811061460557614604614330565b5b50565b6000819050614616826145f4565b919050565b600061462682614608565b9050919050565b6146368161461b565b82525050565b600060c0820190506146516000830189612a5f565b61465e602083018861375c565b61466b604083018761375c565b6146786060830186612a5f565b614685608083018561462d565b61469260a083018461375c565b97965050505050505056fea2646970667358221220ece9c8b83a3f2006ec837ce81a6913c17e85eb502737f932e913343a02e3bef964736f6c63430008110033",
  "devdoc": {
    "kind": "dev",
    "methods": {
      "owner()": {
        "details": "Returns the address of the current owner."
      },
      "renounceOwnership()": {
        "details": "Leaves the contract without owner. It will not be possible to call `onlyOwner` functions anymore. Can only be called by the current owner. NOTE: Renouncing ownership will leave the contract without an owner, thereby removing any functionality that is only available to the owner."
      },
      "transferOwnership(address)": {
        "details": "Transfers ownership of the contract to a new account (`newOwner`). Can only be called by the current owner."
      }
    },
    "version": 1
  },
  "userdoc": {
    "kind": "user",
    "methods": {},
    "version": 1
  },
  "storageLayout": {
    "storage": [
      {
        "astId": 7,
        "contract": "contracts/BCPlayers.sol:BCPlayers",
        "label": "_owner",
        "offset": 0,
        "slot": "0",
        "type": "t_address"
      },
      {
        "astId": 6333,
        "contract": "contracts/BCPlayers.sol:BCPlayers",
        "label": "chars",
        "offset": 0,
        "slot": "1",
        "type": "t_contract(CharInterface)6174"
      },
      {
        "astId": 6336,
        "contract": "contracts/BCPlayers.sol:BCPlayers",
        "label": "utils",
        "offset": 0,
        "slot": "2",
        "type": "t_contract(UtilsInterface)6191"
      },
      {
        "astId": 6339,
        "contract": "contracts/BCPlayers.sol:BCPlayers",
        "label": "maps",
        "offset": 0,
        "slot": "3",
        "type": "t_contract(MapInterface)6313"
      },
      {
        "astId": 6342,
        "contract": "contracts/BCPlayers.sol:BCPlayers",
        "label": "bcEvents",
        "offset": 0,
        "slot": "4",
        "type": "t_contract(EventsInterface)6152"
      },
      {
        "astId": 6345,
        "contract": "contracts/BCPlayers.sol:BCPlayers",
        "label": "items",
        "offset": 0,
        "slot": "5",
        "type": "t_contract(ItemsInterface)6327"
      },
      {
        "astId": 6348,
        "contract": "contracts/BCPlayers.sol:BCPlayers",
        "label": "games",
        "offset": 0,
        "slot": "6",
        "type": "t_contract(GamesInterface)6328"
      },
      {
        "astId": 6350,
        "contract": "contracts/BCPlayers.sol:BCPlayers",
        "label": "lobbiesAddress",
        "offset": 0,
        "slot": "7",
        "type": "t_address"
      },
      {
        "astId": 6352,
        "contract": "contracts/BCPlayers.sol:BCPlayers",
        "label": "charsAddress",
        "offset": 0,
        "slot": "8",
        "type": "t_address"
      },
      {
        "astId": 6354,
        "contract": "contracts/BCPlayers.sol:BCPlayers",
        "label": "actionsAddress",
        "offset": 0,
        "slot": "9",
        "type": "t_address"
      },
      {
        "astId": 6434,
        "contract": "contracts/BCPlayers.sol:BCPlayers",
        "label": "StartLocation",
        "offset": 0,
        "slot": "10",
        "type": "t_struct(Position)7462_storage"
      },
      {
        "astId": 6438,
        "contract": "contracts/BCPlayers.sol:BCPlayers",
        "label": "players",
        "offset": 0,
        "slot": "11",
        "type": "t_array(t_struct(Player)7438_storage)dyn_storage"
      }
    ],
    "types": {
      "t_address": {
        "encoding": "inplace",
        "label": "address",
        "numberOfBytes": "20"
      },
      "t_array(t_struct(Player)7438_storage)dyn_storage": {
        "base": "t_struct(Player)7438_storage",
        "encoding": "dynamic_array",
        "label": "struct BCTypes.Player[]",
        "numberOfBytes": "32"
      },
      "t_array(t_uint8)dyn_storage": {
        "base": "t_uint8",
        "encoding": "dynamic_array",
        "label": "uint8[]",
        "numberOfBytes": "32"
      },
      "t_bool": {
        "encoding": "inplace",
        "label": "bool",
        "numberOfBytes": "1"
      },
      "t_contract(CharInterface)6174": {
        "encoding": "inplace",
        "label": "contract CharInterface",
        "numberOfBytes": "20"
      },
      "t_contract(EventsInterface)6152": {
        "encoding": "inplace",
        "label": "contract EventsInterface",
        "numberOfBytes": "20"
      },
      "t_contract(GamesInterface)6328": {
        "encoding": "inplace",
        "label": "contract GamesInterface",
        "numberOfBytes": "20"
      },
      "t_contract(ItemsInterface)6327": {
        "encoding": "inplace",
        "label": "contract ItemsInterface",
        "numberOfBytes": "20"
      },
      "t_contract(MapInterface)6313": {
        "encoding": "inplace",
        "label": "contract MapInterface",
        "numberOfBytes": "20"
      },
      "t_contract(UtilsInterface)6191": {
        "encoding": "inplace",
        "label": "contract UtilsInterface",
        "numberOfBytes": "20"
      },
      "t_int8": {
        "encoding": "inplace",
        "label": "int8",
        "numberOfBytes": "1"
      },
      "t_struct(Player)7438_storage": {
        "encoding": "inplace",
        "label": "struct BCTypes.Player",
        "members": [
          {
            "astId": 7410,
            "contract": "contracts/BCPlayers.sol:BCPlayers",
            "label": "owner",
            "offset": 0,
            "slot": "0",
            "type": "t_address"
          },
          {
            "astId": 7412,
            "contract": "contracts/BCPlayers.sol:BCPlayers",
            "label": "charContractAddress",
            "offset": 0,
            "slot": "1",
            "type": "t_address"
          },
          {
            "astId": 7414,
            "contract": "contracts/BCPlayers.sol:BCPlayers",
            "label": "characterId",
            "offset": 0,
            "slot": "2",
            "type": "t_uint256"
          },
          {
            "astId": 7417,
            "contract": "contracts/BCPlayers.sol:BCPlayers",
            "label": "position",
            "offset": 0,
            "slot": "3",
            "type": "t_struct(Position)7462_storage"
          },
          {
            "astId": 7419,
            "contract": "contracts/BCPlayers.sol:BCPlayers",
            "label": "healthDmgTaken",
            "offset": 0,
            "slot": "4",
            "type": "t_int8"
          },
          {
            "astId": 7421,
            "contract": "contracts/BCPlayers.sol:BCPlayers",
            "label": "armorDmgTaken",
            "offset": 1,
            "slot": "4",
            "type": "t_uint8"
          },
          {
            "astId": 7423,
            "contract": "contracts/BCPlayers.sol:BCPlayers",
            "label": "actionsTaken",
            "offset": 2,
            "slot": "4",
            "type": "t_uint8"
          },
          {
            "astId": 7425,
            "contract": "contracts/BCPlayers.sol:BCPlayers",
            "label": "dataTokens",
            "offset": 3,
            "slot": "4",
            "type": "t_uint8"
          },
          {
            "astId": 7428,
            "contract": "contracts/BCPlayers.sol:BCPlayers",
            "label": "currentEffects",
            "offset": 0,
            "slot": "5",
            "type": "t_array(t_uint8)dyn_storage"
          },
          {
            "astId": 7431,
            "contract": "contracts/BCPlayers.sol:BCPlayers",
            "label": "inventoryIDs",
            "offset": 0,
            "slot": "6",
            "type": "t_array(t_uint8)dyn_storage"
          },
          {
            "astId": 7433,
            "contract": "contracts/BCPlayers.sol:BCPlayers",
            "label": "canHarmOthers",
            "offset": 0,
            "slot": "7",
            "type": "t_bool"
          },
          {
            "astId": 7435,
            "contract": "contracts/BCPlayers.sol:BCPlayers",
            "label": "dead",
            "offset": 1,
            "slot": "7",
            "type": "t_bool"
          },
          {
            "astId": 7437,
            "contract": "contracts/BCPlayers.sol:BCPlayers",
            "label": "hasEgg",
            "offset": 2,
            "slot": "7",
            "type": "t_bool"
          }
        ],
        "numberOfBytes": "256"
      },
      "t_struct(Position)7462_storage": {
        "encoding": "inplace",
        "label": "struct BCTypes.Position",
        "members": [
          {
            "astId": 7459,
            "contract": "contracts/BCPlayers.sol:BCPlayers",
            "label": "row",
            "offset": 0,
            "slot": "0",
            "type": "t_uint8"
          },
          {
            "astId": 7461,
            "contract": "contracts/BCPlayers.sol:BCPlayers",
            "label": "col",
            "offset": 1,
            "slot": "0",
            "type": "t_uint8"
          }
        ],
        "numberOfBytes": "32"
      },
      "t_uint256": {
        "encoding": "inplace",
        "label": "uint256",
        "numberOfBytes": "32"
      },
      "t_uint8": {
        "encoding": "inplace",
        "label": "uint8",
        "numberOfBytes": "1"
      }
    }
  }
}