{
  "address": "0xd94737C0f753AA15447ea2b8682f9fAE23781B20",
  "abi": [
    {
      "inputs": [],
      "stateMutability": "nonpayable",
      "type": "constructor"
    },
    {
      "anonymous": false,
      "inputs": [
        {
          "indexed": false,
          "internalType": "uint256",
          "name": "gameId",
          "type": "uint256"
        },
        {
          "indexed": false,
          "internalType": "uint256",
          "name": "playerId",
          "type": "uint256"
        },
        {
          "components": [
            {
              "internalType": "uint256",
              "name": "id",
              "type": "uint256"
            },
            {
              "internalType": "bool",
              "name": "permanent",
              "type": "bool"
            },
            {
              "internalType": "uint8",
              "name": "rollForLow",
              "type": "uint8"
            },
            {
              "internalType": "uint8",
              "name": "rollForHigh",
              "type": "uint8"
            },
            {
              "components": [
                {
                  "internalType": "enum BCEvents.EffectTypes",
                  "name": "effect",
                  "type": "uint8"
                },
                {
                  "internalType": "uint256",
                  "name": "value",
                  "type": "uint256"
                }
              ],
              "internalType": "struct BCEvents.Effect[]",
              "name": "defaultEffect",
              "type": "tuple[]"
            },
            {
              "components": [
                {
                  "internalType": "enum BCEvents.EffectTypes",
                  "name": "effect",
                  "type": "uint8"
                },
                {
                  "internalType": "uint256",
                  "name": "value",
                  "type": "uint256"
                }
              ],
              "internalType": "struct BCEvents.Effect[]",
              "name": "lowEffect",
              "type": "tuple[]"
            },
            {
              "components": [
                {
                  "internalType": "enum BCEvents.EffectTypes",
                  "name": "effect",
                  "type": "uint8"
                },
                {
                  "internalType": "uint256",
                  "name": "value",
                  "type": "uint256"
                }
              ],
              "internalType": "struct BCEvents.Effect[]",
              "name": "highEffect",
              "type": "tuple[]"
            }
          ],
          "indexed": false,
          "internalType": "struct BCEvents.BCEvent",
          "name": "bcEvent",
          "type": "tuple"
        },
        {
          "components": [
            {
              "internalType": "enum BCEvents.EffectTypes",
              "name": "effect",
              "type": "uint8"
            },
            {
              "internalType": "uint256",
              "name": "value",
              "type": "uint256"
            }
          ],
          "indexed": false,
          "internalType": "struct BCEvents.Effect[]",
          "name": "bcEffects",
          "type": "tuple[]"
        }
      ],
      "name": "EventResolvedEvent",
      "type": "event"
    },
    {
      "anonymous": false,
      "inputs": [
        {
          "indexed": true,
          "internalType": "address",
          "name": "previousOwner",
          "type": "address"
        },
        {
          "indexed": true,
          "internalType": "address",
          "name": "newOwner",
          "type": "address"
        }
      ],
      "name": "OwnershipTransferred",
      "type": "event"
    },
    {
      "inputs": [],
      "name": "StartLocation",
      "outputs": [
        {
          "internalType": "uint8",
          "name": "row",
          "type": "uint8"
        },
        {
          "internalType": "uint8",
          "name": "col",
          "type": "uint8"
        }
      ],
      "stateMutability": "view",
      "type": "function"
    },
    {
      "inputs": [],
      "name": "actionsAddress",
      "outputs": [
        {
          "internalType": "address",
          "name": "",
          "type": "address"
        }
      ],
      "stateMutability": "view",
      "type": "function"
    },
    {
      "inputs": [
        {
          "internalType": "address",
          "name": "_charContractAddress",
          "type": "address"
        },
        {
          "internalType": "uint256",
          "name": "_charId",
          "type": "uint256"
        },
        {
          "internalType": "address",
          "name": "_owner",
          "type": "address"
        }
      ],
      "name": "addPlayer",
      "outputs": [
        {
          "internalType": "uint256",
          "name": "",
          "type": "uint256"
        }
      ],
      "stateMutability": "nonpayable",
      "type": "function"
    },
    {
      "inputs": [
        {
          "internalType": "uint256",
          "name": "_mapId",
          "type": "uint256"
        },
        {
          "internalType": "uint256[]",
          "name": "_players",
          "type": "uint256[]"
        }
      ],
      "name": "applyHazardDamage",
      "outputs": [],
      "stateMutability": "nonpayable",
      "type": "function"
    },
    {
      "inputs": [],
      "name": "bcEvents",
      "outputs": [
        {
          "internalType": "contract EventsInterface",
          "name": "",
          "type": "address"
        }
      ],
      "stateMutability": "view",
      "type": "function"
    },
    {
      "inputs": [],
      "name": "chars",
      "outputs": [
        {
          "internalType": "contract CharInterface",
          "name": "",
          "type": "address"
        }
      ],
      "stateMutability": "view",
      "type": "function"
    },
    {
      "inputs": [],
      "name": "charsAddress",
      "outputs": [
        {
          "internalType": "address",
          "name": "",
          "type": "address"
        }
      ],
      "stateMutability": "view",
      "type": "function"
    },
    {
      "inputs": [
        {
          "internalType": "uint256",
          "name": "_playerId",
          "type": "uint256"
        },
        {
          "internalType": "uint256",
          "name": "_gameId",
          "type": "uint256"
        },
        {
          "internalType": "uint256",
          "name": "_mapId",
          "type": "uint256"
        },
        {
          "components": [
            {
              "internalType": "uint8",
              "name": "row",
              "type": "uint8"
            },
            {
              "internalType": "uint8",
              "name": "col",
              "type": "uint8"
            }
          ],
          "internalType": "struct BCTypes.Position",
          "name": "_position",
          "type": "tuple"
        },
        {
          "internalType": "uint256",
          "name": "_eventId",
          "type": "uint256"
        },
        {
          "internalType": "uint256",
          "name": "_effectNum",
          "type": "uint256"
        }
      ],
      "name": "extApplyEffect",
      "outputs": [],
      "stateMutability": "nonpayable",
      "type": "function"
    },
    {
      "inputs": [
        {
          "internalType": "uint256",
          "name": "_choice",
          "type": "uint256"
        },
        {
          "internalType": "uint256",
          "name": "_eventPlayerId",
          "type": "uint256"
        },
        {
          "internalType": "uint256",
          "name": "_gameId",
          "type": "uint256"
        },
        {
          "internalType": "uint256",
          "name": "_mapId",
          "type": "uint256"
        },
        {
          "components": [
            {
              "internalType": "uint8",
              "name": "row",
              "type": "uint8"
            },
            {
              "internalType": "uint8",
              "name": "col",
              "type": "uint8"
            }
          ],
          "internalType": "struct BCTypes.Position",
          "name": "_position",
          "type": "tuple"
        },
        {
          "internalType": "uint256",
          "name": "_eventNumber",
          "type": "uint256"
        },
        {
          "internalType": "enum BCTypes.BCEventType",
          "name": "_eventType",
          "type": "uint8"
        }
      ],
      "name": "extChooseEffect",
      "outputs": [],
      "stateMutability": "nonpayable",
      "type": "function"
    },
    {
      "inputs": [
        {
          "internalType": "uint256",
          "name": "_id",
          "type": "uint256"
        }
      ],
      "name": "extGetPlayer",
      "outputs": [
        {
          "components": [
            {
              "internalType": "address",
              "name": "owner",
              "type": "address"
            },
            {
              "internalType": "address",
              "name": "charContractAddress",
              "type": "address"
            },
            {
              "internalType": "uint256",
              "name": "characterId",
              "type": "uint256"
            },
            {
              "components": [
                {
                  "internalType": "uint8",
                  "name": "row",
                  "type": "uint8"
                },
                {
                  "internalType": "uint8",
                  "name": "col",
                  "type": "uint8"
                }
              ],
              "internalType": "struct BCTypes.Position",
              "name": "position",
              "type": "tuple"
            },
            {
              "internalType": "int8",
              "name": "healthDmgTaken",
              "type": "int8"
            },
            {
              "internalType": "uint8",
              "name": "armorDmgTaken",
              "type": "uint8"
            },
            {
              "internalType": "uint8",
              "name": "actionsTaken",
              "type": "uint8"
            },
            {
              "internalType": "uint8",
              "name": "dataTokens",
              "type": "uint8"
            },
            {
              "internalType": "uint8[]",
              "name": "currentEffects",
              "type": "uint8[]"
            },
            {
              "internalType": "uint8[]",
              "name": "inventoryIDs",
              "type": "uint8[]"
            },
            {
              "internalType": "bool",
              "name": "canHarmOthers",
              "type": "bool"
            },
            {
              "internalType": "bool",
              "name": "dead",
              "type": "bool"
            },
            {
              "internalType": "bool",
              "name": "hasEgg",
              "type": "bool"
            }
          ],
          "internalType": "struct BCTypes.Player",
          "name": "",
          "type": "tuple"
        }
      ],
      "stateMutability": "view",
      "type": "function"
    },
    {
      "inputs": [
        {
          "internalType": "uint256",
          "name": "_id",
          "type": "uint256"
        }
      ],
      "name": "extGetPlayerOwner",
      "outputs": [
        {
          "internalType": "address",
          "name": "",
          "type": "address"
        }
      ],
      "stateMutability": "view",
      "type": "function"
    },
    {
      "inputs": [
        {
          "internalType": "uint256",
          "name": "_playerId",
          "type": "uint256"
        },
        {
          "internalType": "uint256",
          "name": "_amount",
          "type": "uint256"
        },
        {
          "internalType": "bool",
          "name": "_hazard",
          "type": "bool"
        }
      ],
      "name": "extHurtPlayer",
      "outputs": [],
      "stateMutability": "nonpayable",
      "type": "function"
    },
    {
      "inputs": [
        {
          "components": [
            {
              "internalType": "uint8",
              "name": "row",
              "type": "uint8"
            },
            {
              "internalType": "uint8",
              "name": "col",
              "type": "uint8"
            }
          ],
          "internalType": "struct BCTypes.Position",
          "name": "_position",
          "type": "tuple"
        },
        {
          "internalType": "uint256",
          "name": "_playerId",
          "type": "uint256"
        },
        {
          "internalType": "uint256",
          "name": "_mapId",
          "type": "uint256"
        }
      ],
      "name": "extMovePlayer",
      "outputs": [
        {
          "internalType": "bool",
          "name": "",
          "type": "bool"
        }
      ],
      "stateMutability": "nonpayable",
      "type": "function"
    },
    {
      "inputs": [],
      "name": "games",
      "outputs": [
        {
          "internalType": "contract GamesInterface",
          "name": "",
          "type": "address"
        }
      ],
      "stateMutability": "view",
      "type": "function"
    },
    {
      "inputs": [
        {
          "internalType": "uint256",
          "name": "_playerId",
          "type": "uint256"
        },
        {
          "internalType": "uint8",
          "name": "_amount",
          "type": "uint8"
        }
      ],
      "name": "grantDataToPlayer",
      "outputs": [],
      "stateMutability": "nonpayable",
      "type": "function"
    },
    {
      "inputs": [
        {
          "internalType": "uint256",
          "name": "_playerId",
          "type": "uint256"
        }
      ],
      "name": "incrementPlayerActions",
      "outputs": [],
      "stateMutability": "nonpayable",
      "type": "function"
    },
    {
      "inputs": [],
      "name": "items",
      "outputs": [
        {
          "internalType": "contract ItemsInterface",
          "name": "",
          "type": "address"
        }
      ],
      "stateMutability": "view",
      "type": "function"
    },
    {
      "inputs": [],
      "name": "lobbiesAddress",
      "outputs": [
        {
          "internalType": "address",
          "name": "",
          "type": "address"
        }
      ],
      "stateMutability": "view",
      "type": "function"
    },
    {
      "inputs": [],
      "name": "maps",
      "outputs": [
        {
          "internalType": "contract MapInterface",
          "name": "",
          "type": "address"
        }
      ],
      "stateMutability": "view",
      "type": "function"
    },
    {
      "inputs": [],
      "name": "owner",
      "outputs": [
        {
          "internalType": "address",
          "name": "",
          "type": "address"
        }
      ],
      "stateMutability": "view",
      "type": "function"
    },
    {
      "inputs": [
        {
          "internalType": "uint256",
          "name": "",
          "type": "uint256"
        }
      ],
      "name": "players",
      "outputs": [
        {
          "internalType": "address",
          "name": "owner",
          "type": "address"
        },
        {
          "internalType": "address",
          "name": "charContractAddress",
          "type": "address"
        },
        {
          "internalType": "uint256",
          "name": "characterId",
          "type": "uint256"
        },
        {
          "components": [
            {
              "internalType": "uint8",
              "name": "row",
              "type": "uint8"
            },
            {
              "internalType": "uint8",
              "name": "col",
              "type": "uint8"
            }
          ],
          "internalType": "struct BCTypes.Position",
          "name": "position",
          "type": "tuple"
        },
        {
          "internalType": "int8",
          "name": "healthDmgTaken",
          "type": "int8"
        },
        {
          "internalType": "uint8",
          "name": "armorDmgTaken",
          "type": "uint8"
        },
        {
          "internalType": "uint8",
          "name": "actionsTaken",
          "type": "uint8"
        },
        {
          "internalType": "uint8",
          "name": "dataTokens",
          "type": "uint8"
        },
        {
          "internalType": "bool",
          "name": "canHarmOthers",
          "type": "bool"
        },
        {
          "internalType": "bool",
          "name": "dead",
          "type": "bool"
        },
        {
          "internalType": "bool",
          "name": "hasEgg",
          "type": "bool"
        }
      ],
      "stateMutability": "view",
      "type": "function"
    },
    {
      "inputs": [],
      "name": "renounceOwnership",
      "outputs": [],
      "stateMutability": "nonpayable",
      "type": "function"
    },
    {
      "inputs": [
        {
          "internalType": "uint256",
          "name": "_playerId",
          "type": "uint256"
        }
      ],
      "name": "resetPlayerActions",
      "outputs": [],
      "stateMutability": "nonpayable",
      "type": "function"
    },
    {
      "inputs": [
        {
          "internalType": "address",
          "name": "_charAddress",
          "type": "address"
        },
        {
          "internalType": "address",
          "name": "_utilsAddress",
          "type": "address"
        },
        {
          "internalType": "address",
          "name": "_mapsAddress",
          "type": "address"
        },
        {
          "internalType": "address",
          "name": "_lobbiesAddress",
          "type": "address"
        },
        {
          "internalType": "address",
          "name": "_actionsAddress",
          "type": "address"
        },
        {
          "internalType": "address",
          "name": "_eventsAddress",
          "type": "address"
        },
        {
          "internalType": "address",
          "name": "_itemsAddress",
          "type": "address"
        },
        {
          "internalType": "address",
          "name": "_gamesAddress",
          "type": "address"
        }
      ],
      "name": "setContractAddresses",
      "outputs": [],
      "stateMutability": "nonpayable",
      "type": "function"
    },
    {
      "inputs": [
        {
          "internalType": "address",
          "name": "newOwner",
          "type": "address"
        }
      ],
      "name": "transferOwnership",
      "outputs": [],
      "stateMutability": "nonpayable",
      "type": "function"
    },
    {
      "inputs": [],
      "name": "utils",
      "outputs": [
        {
          "internalType": "contract UtilsInterface",
          "name": "",
          "type": "address"
        }
      ],
      "stateMutability": "view",
      "type": "function"
    }
  ],
  "transactionHash": "0x0cf14ad1ce35bebbb9fd1d6b4cbf26e4114df2b2a73bf6b473c68cb56a3e12a9",
  "args": [],
  "numDeployments": 1,
  "solcInputHash": "865e7b561cfc2141bac262bd2c2cc21d",
  "bytecode": "0x60c0604052600a6080819052600660a052805461ffff191661060a17905534801561002957600080fd5b5061003333610038565b610088565b600080546001600160a01b038381166001600160a01b0319831681178455604051919092169283917f8be0079c531659141344cd1fd0a4f28419497f9722a3daafe3b4186f6b6457e09190a35050565b612f3a80620000986000396000f3fe608060405234801561001057600080fd5b506004361061018e5760003560e01c80637ddae103116100de578063b690719411610097578063dc769ee811610071578063dc769ee814610372578063ed861961146103a2578063f2fde38b146103b5578063f71d96cb146103c857600080fd5b8063b690719414610339578063c06fad061461034c578063ce9322971461035f57600080fd5b80637ddae103146102b95780638d491b3e146102cc5780638da5cb5b146102ef578063921d279914610300578063955a015b146103135780639fca1ee11461032657600080fd5b80635a29638d1161014b578063668a7f3b11610125578063668a7f3b146102785780636d291bbb1461028b578063715018a61461029e5780637b45c0d4146102a657600080fd5b80635a29638d1461023f57806365c363f0146102525780636621a4211461026557600080fd5b806308178b3c146101935780630dd0f588146101b957806310a2cd0d146101ce57806310f67fb3146101f9578063336d7d7b146102195780633deaec2b1461022c575b600080fd5b6101a66101a1366004611fec565b6103f2565b6040519081526020015b60405180910390f35b6101cc6101c7366004612036565b610510565b005b6001546101e1906001600160a01b031681565b6040516001600160a01b0390911681526020016101b0565b61020c61020736600461206f565b61054a565b6040516101b091906120c6565b6007546101e1906001600160a01b031681565b6003546101e1906001600160a01b031681565b6002546101e1906001600160a01b031681565b6101cc61026036600461206f565b610794565b6101e161027336600461206f565b6107ec565b6101cc6102863660046122cf565b610821565b6101cc6102993660046123c2565b610976565b6101cc610d10565b6009546101e1906001600160a01b031681565b6004546101e1906001600160a01b031681565b6102df6102da36600461242f565b610d24565b60405190151581526020016101b0565b6000546001600160a01b03166101e1565b6101cc61030e366004612463565b610e50565b6006546101e1906001600160a01b031681565b6008546101e1906001600160a01b031681565b6101cc6103473660046124fa565b610ee6565b6005546101e1906001600160a01b031681565b6101cc61036d36600461206f565b610f93565b600a546103889060ff8082169161010090041682565b6040805160ff9384168152929091166020830152016101b0565b6101cc6103b036600461252a565b611003565b6101cc6103c336600461257c565b6110ff565b6103db6103d636600461206f565b611178565b6040516101b09b9a99989796959493929190612597565b6007546000906001600160a01b031633146104495760405162461bcd60e51b8152602060048201526012602482015271139bdd081b1bd8989e4818dbdb9d1c9858dd60721b60448201526064015b60405180910390fd5b600b80546001818101835560008390527f0175b7a638427703f0dbe7bb9bbf987a2551717b34e79f33b5b1008d1fa01dba600890920291820180546001600160a01b03808a166001600160a01b0319928316179092557f0175b7a638427703f0dbe7bb9bbf987a2551717b34e79f33b5b1008d1fa01db984018054928816929091169190911781557f0175b7a638427703f0dbe7bb9bbf987a2551717b34e79f33b5b1008d1fa01dbb9092018690559154909161050591612640565b9150505b9392505050565b6006546001600160a01b0316331461053a5760405162461bcd60e51b815260040161044090612659565b61054583838361121d565b505050565b6105c5604080516101a08101825260008082526020808301829052828401829052835180850190945281845283015290606082019081526000602082018190526040820181905260608083018290526080830182905260a0830181905260c083015260e0820181905261010082018190526101209091015290565b600b82815481106105d8576105d8612685565b60009182526020808320604080516101a081018252600890940290910180546001600160a01b0390811685526001820154168484015260028101548483015281518083018352600382015460ff808216835261010091829004811683870152606087019290925260048301549687900b6080870152808704821660a0870152620100008704821660c087015263010000009096041660e085015260058101805483518186028101860190945280845294959194918601939091908301828280156106df57602002820191906000526020600020906000905b825461010083900a900460ff168152602060019283018181049485019490930390920291018084116106b05790505b505050505081526020016006820180548060200260200160405190810160405280929190818152602001828054801561075557602002820191906000526020600020906000905b825461010083900a900460ff168152602060019283018181049485019490930390920291018084116107265790505b50505091835250506007919091015460ff8082161515602084015261010082048116151560408401526201000090910416151560609091015292915050565b6006546001600160a01b031633146107ab57600080fd5b6000600b82815481106107c0576107c0612685565b906000526020600020906008020160040160026101000a81548160ff021916908360ff16021790555050565b6000600b828154811061080157610801612685565b60009182526020909120600890910201546001600160a01b031692915050565b6006546001600160a01b0316331461084b5760405162461bcd60e51b815260040161044090612659565b60005b6001825161085c9190612640565b8111610545576000600b83838151811061087857610878612685565b60200260200101518154811061089057610890612685565b600091825260208220600380546008939093029091019081015460405163f9dfbfcb60e01b81526004810189905260ff808316602483015261010090920490911660448201529093506001600160a01b039091169063f9dfbfcb9060640161014060405180830381865afa15801561090c573d6000803e3d6000fd5b505050506040513d601f19601f8201168201806040525081019061093091906126b1565b90508060c00151156109615761096184848151811061095157610951612685565b602002602001015160018061121d565b5050808061096e906127a4565b91505061084e565b6006546001600160a01b031633146109a05760405162461bcd60e51b815260040161044090612659565b6109e86040518060e0016040528060008152602001600015158152602001600060ff168152602001600060ff1681526020016060815260200160608152602001606081525090565b606060058360058111156109fe576109fe6127bd565b03610a79576004805460405163c82c37b960e01b81529182018690526001600160a01b03169063c82c37b990602401600060405180830381865afa158015610a4a573d6000803e3d6000fd5b505050506040513d6000823e601f3d908101601f19168201604052610a72919081019061286b565b9150610af2565b6004805460405163e4dc1a8360e01b81526001600160a01b039091169163e4dc1a8391610aaa918891889101612971565b600060405180830381865afa158015610ac7573d6000803e3d6000fd5b505050506040513d6000823e601f3d908101601f19168201604052610aef919081019061286b565b91505b600480546040516336772a9360e21b81526000926001600160a01b039092169163d9dcaa4c91610b269188918a9101612985565b600060405180830381865afa158015610b43573d6000803e3d6000fd5b505050506040513d6000823e601f3d908101601f19168201604052610b6b91908101906129a0565b9050826040015160ff166000148015610b895750606083015160ff16155b15610bba57610bb58989898985600081518110610ba857610ba8612685565b6020026020010151611318565b610cc7565b6002546040516301f7b4f360e41b8152600481018a90526000916001600160a01b031690631f7b4f30906024016020604051808303816000875af1158015610c06573d6000803e3d6000fd5b505050506040513d601f19601f82011682018060405250810190610c2a9190612a51565b9050836040015160ff16600014158015610c4b5750836040015160ff168111155b15610c6f57610c6a8a8a8a8a86600181518110610ba857610ba8612685565b610cc5565b606084015160ff1615801590610c8c5750836060015160ff168110155b15610cab57610c6a8a8a8a8a86600281518110610ba857610ba8612685565b610cc58a8a8a8a86600081518110610ba857610ba8612685565b505b7f854f143c4475e8754c8844dbfe9928cf11388710860ea82bb21c19da10f6c73d888a8585604051610cfc9493929190612ab5565b60405180910390a150505050505050505050565b610d18611e0c565b610d226000611e66565b565b6006546000906001600160a01b03163314610d515760405162461bcd60e51b815260040161044090612659565b83600b8481548110610d6557610d65612685565b60009182526020808320845160036008909402909101830180549583015160ff9081166101000261ffff19909716921691909117949094179093555486519287015160405163f9dfbfcb60e01b815292936001600160a01b039092169263f9dfbfcb92610dea92889260040192835260ff918216602084015216604082015260600190565b61014060405180830381865afa158015610e08573d6000803e3d6000fd5b505050506040513d601f19601f82011682018060405250810190610e2c91906126b1565b5160ff1603610e4657610e3e83611eb6565b506001610509565b5060009392505050565b610e58611e0c565b600180546001600160a01b03199081166001600160a01b039a8b1617909155600280548216988a1698909817909755600380548816968916969096179095556007805487169488169490941790935560098054861692871692909217909155600480548516918616919091179055600580548416918516919091179055600680549092169216919091179055565b6009546001600160a01b03163314610f375760405162461bcd60e51b8152602060048201526014602482015273139bdd081858dd1a5bdb9cc818dbdb9d1c9858dd60621b6044820152606401610440565b80600b8381548110610f4b57610f4b612685565b906000526020600020906008020160040160038282829054906101000a900460ff16610f779190612b75565b92506101000a81548160ff021916908360ff1602179055505050565b6006546001600160a01b03163314610faa57600080fd5b600b8181548110610fbd57610fbd612685565b60009182526020909120600890910201600401805462010000900460ff16906002610fe783612b8e565b91906101000a81548160ff021916908360ff1602179055505050565b6009546001600160a01b031633146110545760405162461bcd60e51b8152602060048201526014602482015273139bdd081858dd1a5bdb9cc818dbdb9d1c9858dd60621b6044820152606401610440565b600480546040516336772a9360e21b81526000926001600160a01b039092169163d9dcaa4c9161108991600591889101612985565b600060405180830381865afa1580156110a6573d6000803e3d6000fd5b505050506040513d6000823e601f3d908101601f191682016040526110ce91908101906129a0565b82815181106110df576110df612685565b602002602001015190506110f68787878785611318565b50505050505050565b611107611e0c565b6001600160a01b03811661116c5760405162461bcd60e51b815260206004820152602660248201527f4f776e61626c653a206e6577206f776e657220697320746865207a65726f206160448201526564647265737360d01b6064820152608401610440565b61117581611e66565b50565b600b818154811061118857600080fd5b60009182526020808320600890920290910180546001820154600283015460408051808201909152600385015460ff80821683526101009182900481169783019790975260048601546007909601546001600160a01b0395861699509390941696919590949182900b93808304821693620100008085048416946301000000900484169382811693830481169291909104168b565b6000600b848154811061123257611232612685565b600091825260208220600154600892909202016002810154604051634810bc5960e01b815260048101919091529093506001600160a01b0390911690634810bc59906024016101e060405180830381865afa158015611295573d6000803e3d6000fd5b505050506040513d601f19601f820116820180604052508101906112b99190612c52565b60048301805491925085916000906112d4908490830b612cf9565b825460ff9182166101009390930a9283029190920219909116179055506060810151516004830154600091820b910b126113115761131185611eb6565b5050505050565b60005b8151811015611e04576000600b878154811061133957611339612685565b600091825260209091206008909102019050600183838151811061135f5761135f612685565b602002602001015160000151601681111561137c5761137c6127bd565b5050600283838151811061139257611392612685565b60200260200101516000015160168111156113af576113af6127bd565b036113f5578282815181106113c6576113c6612685565b60200260200101516020015160006113de9190612d1a565b60048201805460ff191660ff929092169190911790555b600383838151811061140957611409612685565b6020026020010151600001516016811115611426576114266127bd565b036114345761143487611eb6565b600483838151811061144857611448612685565b6020026020010151600001516016811115611465576114656127bd565b036114e85760035484516020860151604051637f1b46bd60e11b81526004810189905260ff928316602482015291166044820152600160648201526001600160a01b039091169063fe368d7a90608401600060405180830381600087803b1580156114cf57600080fd5b505af11580156114e3573d6000803e3d6000fd5b505050505b60058383815181106114fc576114fc612685565b6020026020010151600001516016811115611519576115196127bd565b5050600683838151811061152f5761152f612685565b602002602001015160000151601681111561154c5761154c6127bd565b036115c15782828151811061156357611563612685565b6020908102919091018101510151600482018054600090611587908490830b612d1a565b825460ff9182166101009390930a9283029190920219909116179055506004810154600090810b12156115c15760048101805460ff191690555b60078383815181106115d5576115d5612685565b60200260200101516000015160168111156115f2576115f26127bd565b5050600883838151811061160857611608612685565b6020026020010151600001516016811115611625576116256127bd565b03611653576116538784848151811061164057611640612685565b602002602001015160200151600161121d565b600983838151811061166757611667612685565b6020026020010151600001516016811115611684576116846127bd565b036116b2576116b28784848151811061169f5761169f612685565b602002602001015160200151600061121d565b600b8383815181106116c6576116c6612685565b60200260200101516000015160168111156116e3576116e36127bd565b5050600d8383815181106116f9576116f9612685565b6020026020010151600001516016811115611716576117166127bd565b03611742576117428784848151811061173157611731612685565b602002602001015160200151610ee6565b600e83838151811061175657611756612685565b6020026020010151600001516016811115611773576117736127bd565b5050600f83838151811061178957611789612685565b60200260200101516000015160168111156117a6576117a66127bd565b03611a225760008383815181106117bf576117bf612685565b6020908102919091018101510151600554604051633841fae160e01b8152600481018b90529192506000916001600160a01b0390911690633841fae190602401600060405180830381865afa15801561181c573d6000803e3d6000fd5b505050506040513d6000823e601f3d908101601f191682016040526118449190810190612d3b565b805190915015611a1f5760006001825161185e9190612640565b90505b80156119695760025460405163ce28613f60e01b815260006004820181905260ff84166024830152916001600160a01b03169063ce28613f906044016020604051808303816000875af11580156118bc573d6000803e3d6000fd5b505050506040513d601f19601f820116820180604052508101906118e09190612dc1565b9050828160ff16815181106118f7576118f7612685565b602002602001015183838151811061191157611911612685565b602002602001015184848151811061192b5761192b612685565b60200260200101858460ff168151811061194757611947612685565b602090810291909101019190915252508061196181612dde565b915050611861565b5060005b8151851015611a1d5760055482516001600160a01b039091169063f7c8af489084908490811061199f5761199f612685565b60200260200101516040518263ffffffff1660e01b81526004016119c591815260200190565b600060405180830381600087803b1580156119df57600080fd5b505af11580156119f3573d6000803e3d6000fd5b505050508280611a0290612dde565b9350508215611a1d5780611a15816127a4565b91505061196d565b505b50505b6011838381518110611a3657611a36612685565b6020026020010151600001516016811115611a5357611a536127bd565b03611b70576005838381518110611a6c57611a6c612685565b60200260200101516020015103611b7057600354604051632fc4a8f360e11b81526004810187905260009182916001600160a01b0390911690635f8951e6906024016040805180830381865afa158015611aca573d6000803e3d6000fd5b505050506040513d601f19601f82011682018060405250810190611aee9190612df5565b60065460408051808201825260ff8086168252841660208201529051631751422560e01b81529395509193506001600160a01b031691631751422591611b3b918c91908e90600401612e19565b600060405180830381600087803b158015611b5557600080fd5b505af1158015611b69573d6000803e3d6000fd5b5050505050505b6012838381518110611b8457611b84612685565b6020026020010151600001516016811115611ba157611ba16127bd565b50506013838381518110611bb757611bb7612685565b6020026020010151600001516016811115611bd457611bd46127bd565b50506015838381518110611bea57611bea612685565b6020026020010151600001516016811115611c0757611c076127bd565b03611dbe5760005b6004811015611dbc5760035485516020870151604051630dd43b9b60e31b8152600481018a905260ff928316602482015291166044820152606481018390526000916001600160a01b031690636ea1dcd890608401606060405180830381865afa158015611c81573d6000803e3d6000fd5b505050506040513d601f19601f82011682018060405250810190611ca59190612e4b565b9050600181604001516004811115611cbf57611cbf6127bd565b1480611ce05750600281604001516004811115611cde57611cde6127bd565b145b80611d005750600381604001516004811115611cfe57611cfe6127bd565b145b15611da957600360009054906101000a90046001600160a01b03166001600160a01b0316635921522388886000015189602001518660018b8b81518110611d4957611d49612685565b6020026020010151602001516040518763ffffffff1660e01b8152600401611d7696959493929190612ec1565b600060405180830381600087803b158015611d9057600080fd5b505af1158015611da4573d6000803e3d6000fd5b505050505b5080611db4816127a4565b915050611c0f565b505b6014838381518110611dd257611dd2612685565b6020026020010151600001516016811115611def57611def6127bd565b50505080611dfc816127a4565b91505061131b565b505050505050565b6000546001600160a01b03163314610d225760405162461bcd60e51b815260206004820181905260248201527f4f776e61626c653a2063616c6c6572206973206e6f7420746865206f776e65726044820152606401610440565b600080546001600160a01b038381166001600160a01b0319831681178455604051919092169283917f8be0079c531659141344cd1fd0a4f28419497f9722a3daafe3b4186f6b6457e09190a35050565b6000600b8281548110611ecb57611ecb612685565b6000918252602090912060089091020160048101805460ff19169055600154600b80549293506001600160a01b0390911691636d6ba756919085908110611f1457611f14612685565b9060005260206000209060080201600201546040518263ffffffff1660e01b8152600401611f4491815260200190565b600060405180830381600087803b158015611f5e57600080fd5b505af1158015611f72573d6000803e3d6000fd5b50505050600a600b8381548110611f8b57611f8b612685565b600091825260209091208254600890920201600301805460ff92831660ff19821681178355935461ffff19909116909317610100938490049092169092021790555050565b80356001600160a01b0381168114611fe757600080fd5b919050565b60008060006060848603121561200157600080fd5b61200a84611fd0565b92506020840135915061201f60408501611fd0565b90509250925092565b801515811461117557600080fd5b60008060006060848603121561204b57600080fd5b8335925060208401359150604084013561206481612028565b809150509250925092565b60006020828403121561208157600080fd5b5035919050565b600081518084526020808501945080840160005b838110156120bb57815160ff168752958201959082019060010161209c565b509495945050505050565b602081526120e06020820183516001600160a01b03169052565b600060208301516120fc60408401826001600160a01b03169052565b506040830151606083015260608301516121296080840182805160ff908116835260209182015116910152565b50608083015161213e60c084018260000b9052565b5060a083015160ff811660e08401525060c08301516101006121648185018360ff169052565b60e0850151915061012061217c8186018460ff169052565b8186015192506101c09150610140828187015261219d6101e0870185612088565b9350818701519150610160601f1987860301818801526121bd8584612088565b945081880151925061018091506121d78288018415159052565b87015115156101a087015290950151151593019290925250919050565b634e487b7160e01b600052604160045260246000fd5b6040805190810167ffffffffffffffff8111828210171561222d5761222d6121f4565b60405290565b60405160e0810167ffffffffffffffff8111828210171561222d5761222d6121f4565b604051610120810167ffffffffffffffff8111828210171561222d5761222d6121f4565b604051601f8201601f1916810167ffffffffffffffff811182821017156122a3576122a36121f4565b604052919050565b600067ffffffffffffffff8211156122c5576122c56121f4565b5060051b60200190565b600080604083850312156122e257600080fd5b8235915060208084013567ffffffffffffffff81111561230157600080fd5b8401601f8101861361231257600080fd5b8035612325612320826122ab565b61227a565b81815260059190911b8201830190838101908883111561234457600080fd5b928401925b8284101561236257833582529284019290840190612349565b80955050505050509250929050565b60ff8116811461117557600080fd5b60006040828403121561239257600080fd5b61239a61220a565b905081356123a781612371565b815260208201356123b781612371565b602082015292915050565b6000806000806000806000610100888a0312156123de57600080fd5b873596506020880135955060408801359450606088013593506124048960808a01612380565b925060c0880135915060e08801356006811061241f57600080fd5b8091505092959891949750929550565b60008060006080848603121561244457600080fd5b61244e8585612380565b95604085013595506060909401359392505050565b600080600080600080600080610100898b03121561248057600080fd5b61248989611fd0565b975061249760208a01611fd0565b96506124a560408a01611fd0565b95506124b360608a01611fd0565b94506124c160808a01611fd0565b93506124cf60a08a01611fd0565b92506124dd60c08a01611fd0565b91506124eb60e08a01611fd0565b90509295985092959890939650565b6000806040838503121561250d57600080fd5b82359150602083013561251f81612371565b809150509250929050565b60008060008060008060e0878903121561254357600080fd5b8635955060208701359450604087013593506125628860608901612380565b925060a0870135915060c087013590509295509295509295565b60006020828403121561258e57600080fd5b61050982611fd0565b6001600160a01b038c811682528b166020820152604081018a905261018081016125d4606083018b805160ff908116835260209182015116910152565b8860000b60a083015260ff881660c083015260ff871660e083015260ff861661010083015284151561012083015283151561014083015261261a61016083018415159052565b9c9b505050505050505050505050565b634e487b7160e01b600052601160045260246000fd5b818103818111156126535761265361262a565b92915050565b602080825260129082015271139bdd0819d85b595cc818dbdb9d1c9858dd60721b604082015260600190565b634e487b7160e01b600052603260045260246000fd5b8051611fe781612371565b8051611fe781612028565b600061014082840312156126c457600080fd5b6126cc612233565b82516126d781612371565b81526020838101516126e881612371565b82820152605f840185136126fb57600080fd5b6040516080810181811067ffffffffffffffff8211171561271e5761271e6121f4565b6040528060c086018781111561273357600080fd5b604087015b8181101561274f5780518352918401918401612738565b5082604086015261275f816126a6565b60608601525050505061277460e084016126a6565b608082015261278661010084016126a6565b60a082015261279861012084016126a6565b60c08201529392505050565b6000600182016127b6576127b661262a565b5060010190565b634e487b7160e01b600052602160045260246000fd5b600082601f8301126127e457600080fd5b815160206127f4612320836122ab565b82815260069290921b8401810191818101908684111561281357600080fd5b8286015b8481101561286057604081890312156128305760008081fd5b61283861220a565b8151601781106128485760008081fd5b81528185015185820152835291830191604001612817565b509695505050505050565b60006020828403121561287d57600080fd5b815167ffffffffffffffff8082111561289557600080fd5b9083019060e082860312156128a957600080fd5b6128b1612233565b825181526128c1602084016126a6565b60208201526128d26040840161269b565b60408201526128e36060840161269b565b60608201526080830151828111156128fa57600080fd5b612906878286016127d3565b60808301525060a08301518281111561291e57600080fd5b61292a878286016127d3565b60a08301525060c08301518281111561294257600080fd5b61294e878286016127d3565b60c08301525095945050505050565b6006811061296d5761296d6127bd565b9052565b82815260408101610509602083018461295d565b60408101612993828561295d565b8260208301529392505050565b600060208083850312156129b357600080fd5b825167ffffffffffffffff808211156129cb57600080fd5b818501915085601f8301126129df57600080fd5b81516129ed612320826122ab565b81815260059190911b83018401908481019088831115612a0c57600080fd5b8585015b83811015612a4457805185811115612a285760008081fd5b612a368b89838a01016127d3565b845250918601918601612a10565b5098975050505050505050565b600060208284031215612a6357600080fd5b5051919050565b600081518084526020808501945080840160005b838110156120bb578151805160178110612a9a57612a9a6127bd565b88528301518388015260409096019590820190600101612a7e565b84815283602082015260806040820152825160808201526020830151151560a082015260ff60408401511660c082015260006060840151612afb60e084018260ff169052565b50608084015160e0610100840152612b17610160840182612a6a565b905060a0850151607f198085840301610120860152612b368383612a6a565b925060c08701519150808584030161014086015250612b558282612a6a565b9150508281036060840152612b6a8185612a6a565b979650505050505050565b60ff81811683821601908111156126535761265361262a565b600060ff821660ff8103612ba457612ba461262a565b60010192915050565b8051600081900b8114611fe757600080fd5b600060e08284031215612bd157600080fd5b612bd9612233565b9050612be482612bad565b8152612bf260208301612bad565b6020820152612c0360408301612bad565b6040820152612c1460608301612bad565b6060820152612c2560808301612bad565b6080820152612c3660a08301612bad565b60a0820152612c4760c08301612bad565b60c082015292915050565b60006101e08284031215612c6557600080fd5b612c6d612256565b825181526020830151602082015260408301516040820152612c928460608501612bbf565b6060820152612ca4610140840161269b565b6080820152612cb6610160840161269b565b60a0820152612cc8610180840161269b565b60c0820152612cda6101a0840161269b565b60e0820152612cec6101c084016126a6565b6101008201529392505050565b600081810b9083900b01607f8113607f19821217156126535761265361262a565b600082810b9082900b03607f198112607f821317156126535761265361262a565b60006020808385031215612d4e57600080fd5b825167ffffffffffffffff811115612d6557600080fd5b8301601f81018513612d7657600080fd5b8051612d84612320826122ab565b81815260059190911b82018301908381019087831115612da357600080fd5b928401925b82841015612b6a57835182529284019290840190612da8565b600060208284031215612dd357600080fd5b815161050981612371565b600081612ded57612ded61262a565b506000190190565b60008060408385031215612e0857600080fd5b505080516020909101519092909150565b83815260808101612e3d6020830185805160ff908116835260209182015116910152565b826060830152949350505050565b600060608284031215612e5d57600080fd5b6040516060810181811067ffffffffffffffff82111715612e8057612e806121f4565b6040528251612e8e81612371565b81526020830151612e9e81612371565b6020820152604083015160058110612eb557600080fd5b60408201529392505050565b86815260ff8681166020830152851660408201526060810184905260c0810160058410612ef057612ef06127bd565b608082019390935260a0015294935050505056fea2646970667358221220be338fe9fdcf9e809d913fea6f93f56e13b1f24ffbe6f2622c6f07285b85f44364736f6c63430008110033",
  "devdoc": {
    "kind": "dev",
    "methods": {
      "owner()": {
        "details": "Returns the address of the current owner."
      },
      "renounceOwnership()": {
        "details": "Leaves the contract without owner. It will not be possible to call `onlyOwner` functions anymore. Can only be called by the current owner. NOTE: Renouncing ownership will leave the contract without an owner, thereby removing any functionality that is only available to the owner."
      },
      "transferOwnership(address)": {
        "details": "Transfers ownership of the contract to a new account (`newOwner`). Can only be called by the current owner."
      }
    },
    "version": 1
  },
  "userdoc": {
    "kind": "user",
    "methods": {},
    "version": 1
  },
  "storageLayout": {
    "storage": [
      {
        "astId": 7,
        "contract": "contracts/BCPlayers.sol:BCPlayers",
        "label": "_owner",
        "offset": 0,
        "slot": "0",
        "type": "t_address"
      },
      {
        "astId": 12575,
        "contract": "contracts/BCPlayers.sol:BCPlayers",
        "label": "chars",
        "offset": 0,
        "slot": "1",
        "type": "t_contract(CharInterface)12408"
      },
      {
        "astId": 12578,
        "contract": "contracts/BCPlayers.sol:BCPlayers",
        "label": "utils",
        "offset": 0,
        "slot": "2",
        "type": "t_contract(UtilsInterface)12425"
      },
      {
        "astId": 12581,
        "contract": "contracts/BCPlayers.sol:BCPlayers",
        "label": "maps",
        "offset": 0,
        "slot": "3",
        "type": "t_contract(MapInterface)12545"
      },
      {
        "astId": 12584,
        "contract": "contracts/BCPlayers.sol:BCPlayers",
        "label": "bcEvents",
        "offset": 0,
        "slot": "4",
        "type": "t_contract(EventsInterface)12386"
      },
      {
        "astId": 12587,
        "contract": "contracts/BCPlayers.sol:BCPlayers",
        "label": "items",
        "offset": 0,
        "slot": "5",
        "type": "t_contract(ItemsInterface)12559"
      },
      {
        "astId": 12590,
        "contract": "contracts/BCPlayers.sol:BCPlayers",
        "label": "games",
        "offset": 0,
        "slot": "6",
        "type": "t_contract(GamesInterface)12570"
      },
      {
        "astId": 12592,
        "contract": "contracts/BCPlayers.sol:BCPlayers",
        "label": "lobbiesAddress",
        "offset": 0,
        "slot": "7",
        "type": "t_address"
      },
      {
        "astId": 12594,
        "contract": "contracts/BCPlayers.sol:BCPlayers",
        "label": "charsAddress",
        "offset": 0,
        "slot": "8",
        "type": "t_address"
      },
      {
        "astId": 12596,
        "contract": "contracts/BCPlayers.sol:BCPlayers",
        "label": "actionsAddress",
        "offset": 0,
        "slot": "9",
        "type": "t_address"
      },
      {
        "astId": 12676,
        "contract": "contracts/BCPlayers.sol:BCPlayers",
        "label": "StartLocation",
        "offset": 0,
        "slot": "10",
        "type": "t_struct(Position)13905_storage"
      },
      {
        "astId": 12680,
        "contract": "contracts/BCPlayers.sol:BCPlayers",
        "label": "players",
        "offset": 0,
        "slot": "11",
        "type": "t_array(t_struct(Player)13881_storage)dyn_storage"
      }
    ],
    "types": {
      "t_address": {
        "encoding": "inplace",
        "label": "address",
        "numberOfBytes": "20"
      },
      "t_array(t_struct(Player)13881_storage)dyn_storage": {
        "base": "t_struct(Player)13881_storage",
        "encoding": "dynamic_array",
        "label": "struct BCTypes.Player[]",
        "numberOfBytes": "32"
      },
      "t_array(t_uint8)dyn_storage": {
        "base": "t_uint8",
        "encoding": "dynamic_array",
        "label": "uint8[]",
        "numberOfBytes": "32"
      },
      "t_bool": {
        "encoding": "inplace",
        "label": "bool",
        "numberOfBytes": "1"
      },
      "t_contract(CharInterface)12408": {
        "encoding": "inplace",
        "label": "contract CharInterface",
        "numberOfBytes": "20"
      },
      "t_contract(EventsInterface)12386": {
        "encoding": "inplace",
        "label": "contract EventsInterface",
        "numberOfBytes": "20"
      },
      "t_contract(GamesInterface)12570": {
        "encoding": "inplace",
        "label": "contract GamesInterface",
        "numberOfBytes": "20"
      },
      "t_contract(ItemsInterface)12559": {
        "encoding": "inplace",
        "label": "contract ItemsInterface",
        "numberOfBytes": "20"
      },
      "t_contract(MapInterface)12545": {
        "encoding": "inplace",
        "label": "contract MapInterface",
        "numberOfBytes": "20"
      },
      "t_contract(UtilsInterface)12425": {
        "encoding": "inplace",
        "label": "contract UtilsInterface",
        "numberOfBytes": "20"
      },
      "t_int8": {
        "encoding": "inplace",
        "label": "int8",
        "numberOfBytes": "1"
      },
      "t_struct(Player)13881_storage": {
        "encoding": "inplace",
        "label": "struct BCTypes.Player",
        "members": [
          {
            "astId": 13853,
            "contract": "contracts/BCPlayers.sol:BCPlayers",
            "label": "owner",
            "offset": 0,
            "slot": "0",
            "type": "t_address"
          },
          {
            "astId": 13855,
            "contract": "contracts/BCPlayers.sol:BCPlayers",
            "label": "charContractAddress",
            "offset": 0,
            "slot": "1",
            "type": "t_address"
          },
          {
            "astId": 13857,
            "contract": "contracts/BCPlayers.sol:BCPlayers",
            "label": "characterId",
            "offset": 0,
            "slot": "2",
            "type": "t_uint256"
          },
          {
            "astId": 13860,
            "contract": "contracts/BCPlayers.sol:BCPlayers",
            "label": "position",
            "offset": 0,
            "slot": "3",
            "type": "t_struct(Position)13905_storage"
          },
          {
            "astId": 13862,
            "contract": "contracts/BCPlayers.sol:BCPlayers",
            "label": "healthDmgTaken",
            "offset": 0,
            "slot": "4",
            "type": "t_int8"
          },
          {
            "astId": 13864,
            "contract": "contracts/BCPlayers.sol:BCPlayers",
            "label": "armorDmgTaken",
            "offset": 1,
            "slot": "4",
            "type": "t_uint8"
          },
          {
            "astId": 13866,
            "contract": "contracts/BCPlayers.sol:BCPlayers",
            "label": "actionsTaken",
            "offset": 2,
            "slot": "4",
            "type": "t_uint8"
          },
          {
            "astId": 13868,
            "contract": "contracts/BCPlayers.sol:BCPlayers",
            "label": "dataTokens",
            "offset": 3,
            "slot": "4",
            "type": "t_uint8"
          },
          {
            "astId": 13871,
            "contract": "contracts/BCPlayers.sol:BCPlayers",
            "label": "currentEffects",
            "offset": 0,
            "slot": "5",
            "type": "t_array(t_uint8)dyn_storage"
          },
          {
            "astId": 13874,
            "contract": "contracts/BCPlayers.sol:BCPlayers",
            "label": "inventoryIDs",
            "offset": 0,
            "slot": "6",
            "type": "t_array(t_uint8)dyn_storage"
          },
          {
            "astId": 13876,
            "contract": "contracts/BCPlayers.sol:BCPlayers",
            "label": "canHarmOthers",
            "offset": 0,
            "slot": "7",
            "type": "t_bool"
          },
          {
            "astId": 13878,
            "contract": "contracts/BCPlayers.sol:BCPlayers",
            "label": "dead",
            "offset": 1,
            "slot": "7",
            "type": "t_bool"
          },
          {
            "astId": 13880,
            "contract": "contracts/BCPlayers.sol:BCPlayers",
            "label": "hasEgg",
            "offset": 2,
            "slot": "7",
            "type": "t_bool"
          }
        ],
        "numberOfBytes": "256"
      },
      "t_struct(Position)13905_storage": {
        "encoding": "inplace",
        "label": "struct BCTypes.Position",
        "members": [
          {
            "astId": 13902,
            "contract": "contracts/BCPlayers.sol:BCPlayers",
            "label": "row",
            "offset": 0,
            "slot": "0",
            "type": "t_uint8"
          },
          {
            "astId": 13904,
            "contract": "contracts/BCPlayers.sol:BCPlayers",
            "label": "col",
            "offset": 1,
            "slot": "0",
            "type": "t_uint8"
          }
        ],
        "numberOfBytes": "32"
      },
      "t_uint256": {
        "encoding": "inplace",
        "label": "uint256",
        "numberOfBytes": "32"
      },
      "t_uint8": {
        "encoding": "inplace",
        "label": "uint8",
        "numberOfBytes": "1"
      }
    }
  }
}