{
  "address": "0x46288e6e6e6872d41ac6D6399FBd8E21512d3731",
  "abi": [
    {
      "inputs": [],
      "stateMutability": "nonpayable",
      "type": "constructor"
    },
    {
      "anonymous": false,
      "inputs": [
        {
          "indexed": false,
          "internalType": "uint256",
          "name": "gameId",
          "type": "uint256"
        },
        {
          "indexed": false,
          "internalType": "uint256",
          "name": "roll",
          "type": "uint256"
        },
        {
          "indexed": false,
          "internalType": "uint256",
          "name": "forValue",
          "type": "uint256"
        },
        {
          "indexed": false,
          "internalType": "uint256",
          "name": "against",
          "type": "uint256"
        }
      ],
      "name": "ChallengeEvent",
      "type": "event"
    },
    {
      "anonymous": false,
      "inputs": [
        {
          "indexed": false,
          "internalType": "uint256",
          "name": "gameId",
          "type": "uint256"
        },
        {
          "indexed": false,
          "internalType": "uint256",
          "name": "roll",
          "type": "uint256"
        }
      ],
      "name": "DiceRollEvent",
      "type": "event"
    },
    {
      "anonymous": false,
      "inputs": [
        {
          "indexed": false,
          "internalType": "uint256",
          "name": "gameId",
          "type": "uint256"
        },
        {
          "indexed": false,
          "internalType": "uint256",
          "name": "playerId",
          "type": "uint256"
        },
        {
          "components": [
            {
              "internalType": "uint256",
              "name": "id",
              "type": "uint256"
            },
            {
              "internalType": "bool",
              "name": "permanent",
              "type": "bool"
            },
            {
              "internalType": "uint8",
              "name": "rollForLow",
              "type": "uint8"
            },
            {
              "internalType": "uint8",
              "name": "rollForHigh",
              "type": "uint8"
            },
            {
              "components": [
                {
                  "internalType": "enum BCEvents.EffectTypes",
                  "name": "effect",
                  "type": "uint8"
                },
                {
                  "internalType": "uint256",
                  "name": "value",
                  "type": "uint256"
                }
              ],
              "internalType": "struct BCEvents.Effect[]",
              "name": "defaultEffect",
              "type": "tuple[]"
            },
            {
              "components": [
                {
                  "internalType": "enum BCEvents.EffectTypes",
                  "name": "effect",
                  "type": "uint8"
                },
                {
                  "internalType": "uint256",
                  "name": "value",
                  "type": "uint256"
                }
              ],
              "internalType": "struct BCEvents.Effect[]",
              "name": "lowEffect",
              "type": "tuple[]"
            },
            {
              "components": [
                {
                  "internalType": "enum BCEvents.EffectTypes",
                  "name": "effect",
                  "type": "uint8"
                },
                {
                  "internalType": "uint256",
                  "name": "value",
                  "type": "uint256"
                }
              ],
              "internalType": "struct BCEvents.Effect[]",
              "name": "highEffect",
              "type": "tuple[]"
            }
          ],
          "indexed": false,
          "internalType": "struct BCEvents.BCEvent",
          "name": "bcEvent",
          "type": "tuple"
        },
        {
          "components": [
            {
              "internalType": "enum BCEvents.EffectTypes",
              "name": "effect",
              "type": "uint8"
            },
            {
              "internalType": "uint256",
              "name": "value",
              "type": "uint256"
            }
          ],
          "indexed": false,
          "internalType": "struct BCEvents.Effect[]",
          "name": "appliedBCEffects",
          "type": "tuple[]"
        },
        {
          "components": [
            {
              "internalType": "uint8",
              "name": "row",
              "type": "uint8"
            },
            {
              "internalType": "uint8",
              "name": "col",
              "type": "uint8"
            }
          ],
          "indexed": false,
          "internalType": "struct BCTypes.Position",
          "name": "position",
          "type": "tuple"
        }
      ],
      "name": "EventResolvedEvent",
      "type": "event"
    },
    {
      "anonymous": false,
      "inputs": [
        {
          "indexed": true,
          "internalType": "address",
          "name": "previousOwner",
          "type": "address"
        },
        {
          "indexed": true,
          "internalType": "address",
          "name": "newOwner",
          "type": "address"
        }
      ],
      "name": "OwnershipTransferred",
      "type": "event"
    },
    {
      "anonymous": false,
      "inputs": [
        {
          "indexed": false,
          "internalType": "uint256",
          "name": "gameId",
          "type": "uint256"
        },
        {
          "indexed": false,
          "internalType": "uint256",
          "name": "playerId",
          "type": "uint256"
        },
        {
          "indexed": false,
          "internalType": "uint256",
          "name": "damage",
          "type": "uint256"
        },
        {
          "components": [
            {
              "internalType": "uint8",
              "name": "row",
              "type": "uint8"
            },
            {
              "internalType": "uint8",
              "name": "col",
              "type": "uint8"
            }
          ],
          "indexed": false,
          "internalType": "struct BCTypes.Position",
          "name": "position",
          "type": "tuple"
        }
      ],
      "name": "PlayerDiedEvent",
      "type": "event"
    },
    {
      "inputs": [],
      "name": "StartLocation",
      "outputs": [
        {
          "internalType": "uint8",
          "name": "row",
          "type": "uint8"
        },
        {
          "internalType": "uint8",
          "name": "col",
          "type": "uint8"
        }
      ],
      "stateMutability": "view",
      "type": "function"
    },
    {
      "inputs": [
        {
          "internalType": "int256",
          "name": "x",
          "type": "int256"
        }
      ],
      "name": "abs",
      "outputs": [
        {
          "internalType": "int256",
          "name": "",
          "type": "int256"
        }
      ],
      "stateMutability": "pure",
      "type": "function"
    },
    {
      "inputs": [],
      "name": "actionsAddress",
      "outputs": [
        {
          "internalType": "address",
          "name": "",
          "type": "address"
        }
      ],
      "stateMutability": "view",
      "type": "function"
    },
    {
      "inputs": [
        {
          "internalType": "uint256",
          "name": "_charId",
          "type": "uint256"
        },
        {
          "internalType": "address",
          "name": "_owner",
          "type": "address"
        },
        {
          "internalType": "uint256[]",
          "name": "_itemIds",
          "type": "uint256[]"
        }
      ],
      "name": "addPlayer",
      "outputs": [
        {
          "internalType": "uint256",
          "name": "",
          "type": "uint256"
        }
      ],
      "stateMutability": "nonpayable",
      "type": "function"
    },
    {
      "inputs": [
        {
          "internalType": "uint256",
          "name": "_mapId",
          "type": "uint256"
        },
        {
          "internalType": "uint256[]",
          "name": "_players",
          "type": "uint256[]"
        }
      ],
      "name": "applyHazardDamage",
      "outputs": [],
      "stateMutability": "nonpayable",
      "type": "function"
    },
    {
      "inputs": [],
      "name": "bcEvents",
      "outputs": [
        {
          "internalType": "contract EventsInterface",
          "name": "",
          "type": "address"
        }
      ],
      "stateMutability": "view",
      "type": "function"
    },
    {
      "inputs": [],
      "name": "chars",
      "outputs": [
        {
          "internalType": "contract CharInterface",
          "name": "",
          "type": "address"
        }
      ],
      "stateMutability": "view",
      "type": "function"
    },
    {
      "inputs": [],
      "name": "charsAddress",
      "outputs": [
        {
          "internalType": "address",
          "name": "",
          "type": "address"
        }
      ],
      "stateMutability": "view",
      "type": "function"
    },
    {
      "inputs": [
        {
          "internalType": "uint256",
          "name": "_playerId",
          "type": "uint256"
        },
        {
          "internalType": "uint256",
          "name": "_num",
          "type": "uint256"
        }
      ],
      "name": "decrementNumItemsHeld",
      "outputs": [],
      "stateMutability": "nonpayable",
      "type": "function"
    },
    {
      "inputs": [],
      "name": "denizensAddress",
      "outputs": [
        {
          "internalType": "address",
          "name": "",
          "type": "address"
        }
      ],
      "stateMutability": "view",
      "type": "function"
    },
    {
      "inputs": [
        {
          "internalType": "uint256",
          "name": "_playerId",
          "type": "uint256"
        },
        {
          "internalType": "uint256",
          "name": "_gameId",
          "type": "uint256"
        },
        {
          "internalType": "uint256",
          "name": "_mapId",
          "type": "uint256"
        },
        {
          "components": [
            {
              "internalType": "uint8",
              "name": "row",
              "type": "uint8"
            },
            {
              "internalType": "uint8",
              "name": "col",
              "type": "uint8"
            }
          ],
          "internalType": "struct BCTypes.Position",
          "name": "_position",
          "type": "tuple"
        },
        {
          "internalType": "uint256",
          "name": "_eventId",
          "type": "uint256"
        },
        {
          "internalType": "uint256",
          "name": "_effectNum",
          "type": "uint256"
        }
      ],
      "name": "extApplyEffect",
      "outputs": [],
      "stateMutability": "nonpayable",
      "type": "function"
    },
    {
      "inputs": [
        {
          "internalType": "uint256",
          "name": "_choice",
          "type": "uint256"
        },
        {
          "internalType": "uint256",
          "name": "_eventPlayerId",
          "type": "uint256"
        },
        {
          "internalType": "uint256",
          "name": "_gameId",
          "type": "uint256"
        },
        {
          "internalType": "uint256",
          "name": "_mapId",
          "type": "uint256"
        },
        {
          "components": [
            {
              "internalType": "uint8",
              "name": "row",
              "type": "uint8"
            },
            {
              "internalType": "uint8",
              "name": "col",
              "type": "uint8"
            }
          ],
          "internalType": "struct BCTypes.Position",
          "name": "_position",
          "type": "tuple"
        },
        {
          "internalType": "uint256",
          "name": "_eventNumber",
          "type": "uint256"
        },
        {
          "internalType": "enum BCTypes.BCEventType",
          "name": "_eventType",
          "type": "uint8"
        }
      ],
      "name": "extChooseEffect",
      "outputs": [],
      "stateMutability": "nonpayable",
      "type": "function"
    },
    {
      "inputs": [
        {
          "internalType": "uint256",
          "name": "_id",
          "type": "uint256"
        }
      ],
      "name": "extGetActionsTaken",
      "outputs": [
        {
          "internalType": "uint256",
          "name": "",
          "type": "uint256"
        }
      ],
      "stateMutability": "view",
      "type": "function"
    },
    {
      "inputs": [
        {
          "internalType": "uint256",
          "name": "_id",
          "type": "uint256"
        }
      ],
      "name": "extGetPlayer",
      "outputs": [
        {
          "components": [
            {
              "internalType": "address",
              "name": "owner",
              "type": "address"
            },
            {
              "internalType": "uint256",
              "name": "characterId",
              "type": "uint256"
            },
            {
              "internalType": "uint256",
              "name": "id",
              "type": "uint256"
            },
            {
              "components": [
                {
                  "internalType": "int8",
                  "name": "health",
                  "type": "int8"
                },
                {
                  "internalType": "int8",
                  "name": "carry",
                  "type": "int8"
                },
                {
                  "internalType": "int8",
                  "name": "defense",
                  "type": "int8"
                },
                {
                  "internalType": "int8",
                  "name": "hack",
                  "type": "int8"
                },
                {
                  "internalType": "int8",
                  "name": "breach",
                  "type": "int8"
                },
                {
                  "internalType": "int8",
                  "name": "shoot",
                  "type": "int8"
                },
                {
                  "internalType": "int8",
                  "name": "melee",
                  "type": "int8"
                },
                {
                  "internalType": "bool",
                  "name": "hasGun",
                  "type": "bool"
                }
              ],
              "internalType": "struct BCTypes.Traits",
              "name": "currentTraits",
              "type": "tuple"
            },
            {
              "components": [
                {
                  "internalType": "uint8",
                  "name": "row",
                  "type": "uint8"
                },
                {
                  "internalType": "uint8",
                  "name": "col",
                  "type": "uint8"
                }
              ],
              "internalType": "struct BCTypes.Position",
              "name": "position",
              "type": "tuple"
            },
            {
              "components": [
                {
                  "internalType": "uint8",
                  "name": "row",
                  "type": "uint8"
                },
                {
                  "internalType": "uint8",
                  "name": "col",
                  "type": "uint8"
                }
              ],
              "internalType": "struct BCTypes.Position",
              "name": "lastPos",
              "type": "tuple"
            },
            {
              "internalType": "int8",
              "name": "healthDmgTaken",
              "type": "int8"
            },
            {
              "internalType": "uint8",
              "name": "armorDmgTaken",
              "type": "uint8"
            },
            {
              "internalType": "uint8",
              "name": "actionsTaken",
              "type": "uint8"
            },
            {
              "internalType": "uint8",
              "name": "dataTokens",
              "type": "uint8"
            },
            {
              "internalType": "uint8[]",
              "name": "currentEffects",
              "type": "uint8[]"
            },
            {
              "internalType": "uint8",
              "name": "numItemsHeld",
              "type": "uint8"
            },
            {
              "internalType": "bool",
              "name": "dead",
              "type": "bool"
            },
            {
              "internalType": "uint256",
              "name": "gameId",
              "type": "uint256"
            }
          ],
          "internalType": "struct BCTypes.Player",
          "name": "",
          "type": "tuple"
        }
      ],
      "stateMutability": "view",
      "type": "function"
    },
    {
      "inputs": [
        {
          "internalType": "uint256",
          "name": "_id",
          "type": "uint256"
        }
      ],
      "name": "extGetPlayerCharId",
      "outputs": [
        {
          "internalType": "uint256",
          "name": "",
          "type": "uint256"
        }
      ],
      "stateMutability": "view",
      "type": "function"
    },
    {
      "inputs": [
        {
          "internalType": "uint256",
          "name": "_id",
          "type": "uint256"
        }
      ],
      "name": "extGetPlayerOwner",
      "outputs": [
        {
          "internalType": "address",
          "name": "",
          "type": "address"
        }
      ],
      "stateMutability": "view",
      "type": "function"
    },
    {
      "inputs": [
        {
          "internalType": "uint256",
          "name": "_playerId",
          "type": "uint256"
        },
        {
          "internalType": "uint256",
          "name": "_amount",
          "type": "uint256"
        },
        {
          "internalType": "bool",
          "name": "_hazard",
          "type": "bool"
        }
      ],
      "name": "extHurtPlayer",
      "outputs": [],
      "stateMutability": "nonpayable",
      "type": "function"
    },
    {
      "inputs": [
        {
          "components": [
            {
              "internalType": "uint8",
              "name": "row",
              "type": "uint8"
            },
            {
              "internalType": "uint8",
              "name": "col",
              "type": "uint8"
            }
          ],
          "internalType": "struct BCTypes.Position",
          "name": "_position",
          "type": "tuple"
        },
        {
          "internalType": "uint256",
          "name": "_playerId",
          "type": "uint256"
        },
        {
          "internalType": "uint256",
          "name": "_mapId",
          "type": "uint256"
        }
      ],
      "name": "extMovePlayer",
      "outputs": [
        {
          "internalType": "bool",
          "name": "",
          "type": "bool"
        }
      ],
      "stateMutability": "nonpayable",
      "type": "function"
    },
    {
      "inputs": [],
      "name": "games",
      "outputs": [
        {
          "internalType": "contract GamesInterface",
          "name": "",
          "type": "address"
        }
      ],
      "stateMutability": "view",
      "type": "function"
    },
    {
      "inputs": [
        {
          "components": [
            {
              "internalType": "uint8",
              "name": "row",
              "type": "uint8"
            },
            {
              "internalType": "uint8",
              "name": "col",
              "type": "uint8"
            }
          ],
          "internalType": "struct BCTypes.Position",
          "name": "_firstRoom",
          "type": "tuple"
        },
        {
          "components": [
            {
              "internalType": "uint8",
              "name": "row",
              "type": "uint8"
            },
            {
              "internalType": "uint8",
              "name": "col",
              "type": "uint8"
            }
          ],
          "internalType": "struct BCTypes.Position",
          "name": "_secondRoom",
          "type": "tuple"
        }
      ],
      "name": "getDirectionBetween",
      "outputs": [
        {
          "internalType": "uint256",
          "name": "",
          "type": "uint256"
        }
      ],
      "stateMutability": "pure",
      "type": "function"
    },
    {
      "inputs": [
        {
          "internalType": "uint256",
          "name": "_gameId",
          "type": "uint256"
        }
      ],
      "name": "getEventBlocks",
      "outputs": [
        {
          "internalType": "uint256[]",
          "name": "",
          "type": "uint256[]"
        }
      ],
      "stateMutability": "view",
      "type": "function"
    },
    {
      "inputs": [
        {
          "internalType": "uint256",
          "name": "_direction",
          "type": "uint256"
        },
        {
          "components": [
            {
              "internalType": "uint8",
              "name": "row",
              "type": "uint8"
            },
            {
              "internalType": "uint8",
              "name": "col",
              "type": "uint8"
            }
          ],
          "internalType": "struct BCTypes.Position",
          "name": "_start",
          "type": "tuple"
        }
      ],
      "name": "getNeighborRoom",
      "outputs": [
        {
          "components": [
            {
              "internalType": "uint8",
              "name": "row",
              "type": "uint8"
            },
            {
              "internalType": "uint8",
              "name": "col",
              "type": "uint8"
            }
          ],
          "internalType": "struct BCTypes.Position",
          "name": "",
          "type": "tuple"
        }
      ],
      "stateMutability": "pure",
      "type": "function"
    },
    {
      "inputs": [
        {
          "internalType": "uint256",
          "name": "_traitNum",
          "type": "uint256"
        },
        {
          "internalType": "uint256",
          "name": "_subTraitNum",
          "type": "uint256"
        }
      ],
      "name": "getUIOffset",
      "outputs": [
        {
          "internalType": "uint256",
          "name": "",
          "type": "uint256"
        }
      ],
      "stateMutability": "pure",
      "type": "function"
    },
    {
      "inputs": [
        {
          "internalType": "uint256",
          "name": "_playerId",
          "type": "uint256"
        },
        {
          "internalType": "uint8",
          "name": "_amount",
          "type": "uint8"
        }
      ],
      "name": "grantDataToPlayer",
      "outputs": [],
      "stateMutability": "nonpayable",
      "type": "function"
    },
    {
      "inputs": [
        {
          "internalType": "uint256",
          "name": "_playerId",
          "type": "uint256"
        },
        {
          "internalType": "uint256",
          "name": "_num",
          "type": "uint256"
        }
      ],
      "name": "incrementNumItemsHeld",
      "outputs": [],
      "stateMutability": "nonpayable",
      "type": "function"
    },
    {
      "inputs": [
        {
          "internalType": "uint256",
          "name": "_playerId",
          "type": "uint256"
        }
      ],
      "name": "incrementPlayerActions",
      "outputs": [],
      "stateMutability": "nonpayable",
      "type": "function"
    },
    {
      "inputs": [],
      "name": "items",
      "outputs": [
        {
          "internalType": "contract ItemsInterface",
          "name": "",
          "type": "address"
        }
      ],
      "stateMutability": "view",
      "type": "function"
    },
    {
      "inputs": [],
      "name": "lobbiesAddress",
      "outputs": [
        {
          "internalType": "address",
          "name": "",
          "type": "address"
        }
      ],
      "stateMutability": "view",
      "type": "function"
    },
    {
      "inputs": [
        {
          "components": [
            {
              "internalType": "uint8",
              "name": "row",
              "type": "uint8"
            },
            {
              "internalType": "uint8",
              "name": "col",
              "type": "uint8"
            }
          ],
          "internalType": "struct BCTypes.Position",
          "name": "_pos1",
          "type": "tuple"
        },
        {
          "components": [
            {
              "internalType": "uint8",
              "name": "row",
              "type": "uint8"
            },
            {
              "internalType": "uint8",
              "name": "col",
              "type": "uint8"
            }
          ],
          "internalType": "struct BCTypes.Position",
          "name": "_pos2",
          "type": "tuple"
        }
      ],
      "name": "manhattanDistance",
      "outputs": [
        {
          "internalType": "uint256",
          "name": "",
          "type": "uint256"
        }
      ],
      "stateMutability": "pure",
      "type": "function"
    },
    {
      "inputs": [],
      "name": "maps",
      "outputs": [
        {
          "internalType": "contract MapInterface",
          "name": "",
          "type": "address"
        }
      ],
      "stateMutability": "view",
      "type": "function"
    },
    {
      "inputs": [
        {
          "internalType": "uint256",
          "name": "_min",
          "type": "uint256"
        },
        {
          "internalType": "uint256",
          "name": "_max",
          "type": "uint256"
        },
        {
          "internalType": "uint256",
          "name": "_val",
          "type": "uint256"
        },
        {
          "internalType": "uint256",
          "name": "_valMax",
          "type": "uint256"
        }
      ],
      "name": "normalizeToSmallRange",
      "outputs": [
        {
          "internalType": "uint8",
          "name": "",
          "type": "uint8"
        }
      ],
      "stateMutability": "pure",
      "type": "function"
    },
    {
      "inputs": [
        {
          "internalType": "uint256",
          "name": "_direction",
          "type": "uint256"
        }
      ],
      "name": "opposite",
      "outputs": [
        {
          "internalType": "uint256",
          "name": "",
          "type": "uint256"
        }
      ],
      "stateMutability": "pure",
      "type": "function"
    },
    {
      "inputs": [],
      "name": "owner",
      "outputs": [
        {
          "internalType": "address",
          "name": "",
          "type": "address"
        }
      ],
      "stateMutability": "view",
      "type": "function"
    },
    {
      "inputs": [
        {
          "internalType": "uint256",
          "name": "",
          "type": "uint256"
        }
      ],
      "name": "players",
      "outputs": [
        {
          "internalType": "address",
          "name": "owner",
          "type": "address"
        },
        {
          "internalType": "uint256",
          "name": "characterId",
          "type": "uint256"
        },
        {
          "internalType": "uint256",
          "name": "id",
          "type": "uint256"
        },
        {
          "components": [
            {
              "internalType": "int8",
              "name": "health",
              "type": "int8"
            },
            {
              "internalType": "int8",
              "name": "carry",
              "type": "int8"
            },
            {
              "internalType": "int8",
              "name": "defense",
              "type": "int8"
            },
            {
              "internalType": "int8",
              "name": "hack",
              "type": "int8"
            },
            {
              "internalType": "int8",
              "name": "breach",
              "type": "int8"
            },
            {
              "internalType": "int8",
              "name": "shoot",
              "type": "int8"
            },
            {
              "internalType": "int8",
              "name": "melee",
              "type": "int8"
            },
            {
              "internalType": "bool",
              "name": "hasGun",
              "type": "bool"
            }
          ],
          "internalType": "struct BCTypes.Traits",
          "name": "currentTraits",
          "type": "tuple"
        },
        {
          "components": [
            {
              "internalType": "uint8",
              "name": "row",
              "type": "uint8"
            },
            {
              "internalType": "uint8",
              "name": "col",
              "type": "uint8"
            }
          ],
          "internalType": "struct BCTypes.Position",
          "name": "position",
          "type": "tuple"
        },
        {
          "components": [
            {
              "internalType": "uint8",
              "name": "row",
              "type": "uint8"
            },
            {
              "internalType": "uint8",
              "name": "col",
              "type": "uint8"
            }
          ],
          "internalType": "struct BCTypes.Position",
          "name": "lastPos",
          "type": "tuple"
        },
        {
          "internalType": "int8",
          "name": "healthDmgTaken",
          "type": "int8"
        },
        {
          "internalType": "uint8",
          "name": "armorDmgTaken",
          "type": "uint8"
        },
        {
          "internalType": "uint8",
          "name": "actionsTaken",
          "type": "uint8"
        },
        {
          "internalType": "uint8",
          "name": "dataTokens",
          "type": "uint8"
        },
        {
          "internalType": "uint8",
          "name": "numItemsHeld",
          "type": "uint8"
        },
        {
          "internalType": "bool",
          "name": "dead",
          "type": "bool"
        },
        {
          "internalType": "uint256",
          "name": "gameId",
          "type": "uint256"
        }
      ],
      "stateMutability": "view",
      "type": "function"
    },
    {
      "inputs": [],
      "name": "randKeccak",
      "outputs": [
        {
          "internalType": "bytes32",
          "name": "",
          "type": "bytes32"
        }
      ],
      "stateMutability": "nonpayable",
      "type": "function"
    },
    {
      "inputs": [],
      "name": "renounceOwnership",
      "outputs": [],
      "stateMutability": "nonpayable",
      "type": "function"
    },
    {
      "inputs": [
        {
          "internalType": "uint256",
          "name": "_playerId",
          "type": "uint256"
        }
      ],
      "name": "resetPlayerActions",
      "outputs": [],
      "stateMutability": "nonpayable",
      "type": "function"
    },
    {
      "inputs": [
        {
          "internalType": "uint256",
          "name": "_gameId",
          "type": "uint256"
        },
        {
          "internalType": "uint256",
          "name": "_for",
          "type": "uint256"
        },
        {
          "internalType": "uint256",
          "name": "_against",
          "type": "uint256"
        }
      ],
      "name": "resolveChallenge",
      "outputs": [
        {
          "internalType": "bool",
          "name": "",
          "type": "bool"
        }
      ],
      "stateMutability": "nonpayable",
      "type": "function"
    },
    {
      "inputs": [
        {
          "internalType": "uint256",
          "name": "_gameId",
          "type": "uint256"
        }
      ],
      "name": "roll",
      "outputs": [
        {
          "internalType": "uint256",
          "name": "",
          "type": "uint256"
        }
      ],
      "stateMutability": "nonpayable",
      "type": "function"
    },
    {
      "inputs": [
        {
          "internalType": "address",
          "name": "_charAddress",
          "type": "address"
        },
        {
          "internalType": "address",
          "name": "_utilsAddress",
          "type": "address"
        },
        {
          "internalType": "address",
          "name": "_mapsAddress",
          "type": "address"
        },
        {
          "internalType": "address",
          "name": "_lobbiesAddress",
          "type": "address"
        },
        {
          "internalType": "address",
          "name": "_actionsAddress",
          "type": "address"
        },
        {
          "internalType": "address",
          "name": "_eventsAddress",
          "type": "address"
        },
        {
          "internalType": "address",
          "name": "_itemsAddress",
          "type": "address"
        },
        {
          "internalType": "address",
          "name": "_gamesAddress",
          "type": "address"
        },
        {
          "internalType": "address",
          "name": "_denizensAddress",
          "type": "address"
        }
      ],
      "name": "setContractAddresses",
      "outputs": [],
      "stateMutability": "nonpayable",
      "type": "function"
    },
    {
      "inputs": [
        {
          "internalType": "uint256[]",
          "name": "ids",
          "type": "uint256[]"
        },
        {
          "internalType": "uint256",
          "name": "_gameId",
          "type": "uint256"
        }
      ],
      "name": "setPlayersGameId",
      "outputs": [],
      "stateMutability": "nonpayable",
      "type": "function"
    },
    {
      "inputs": [
        {
          "internalType": "bytes32",
          "name": "_hash",
          "type": "bytes32"
        },
        {
          "internalType": "uint256",
          "name": "_size",
          "type": "uint256"
        },
        {
          "internalType": "uint256",
          "name": "_offset",
          "type": "uint256"
        }
      ],
      "name": "sliceHashToSmallInt",
      "outputs": [
        {
          "internalType": "uint8",
          "name": "",
          "type": "uint8"
        }
      ],
      "stateMutability": "pure",
      "type": "function"
    },
    {
      "inputs": [
        {
          "internalType": "uint8",
          "name": "_min",
          "type": "uint8"
        },
        {
          "internalType": "uint8",
          "name": "_max",
          "type": "uint8"
        }
      ],
      "name": "smallIntBetweenVals",
      "outputs": [
        {
          "internalType": "uint8",
          "name": "",
          "type": "uint8"
        }
      ],
      "stateMutability": "nonpayable",
      "type": "function"
    },
    {
      "inputs": [
        {
          "internalType": "address",
          "name": "newOwner",
          "type": "address"
        }
      ],
      "name": "transferOwnership",
      "outputs": [],
      "stateMutability": "nonpayable",
      "type": "function"
    },
    {
      "inputs": [
        {
          "internalType": "uint256",
          "name": "_charId",
          "type": "uint256"
        },
        {
          "internalType": "uint256",
          "name": "_playerId",
          "type": "uint256"
        }
      ],
      "name": "updatePlayerTraits",
      "outputs": [],
      "stateMutability": "nonpayable",
      "type": "function"
    }
  ],
  "transactionHash": "0xcc0ec5b1d631b4a02cc75596fa88278aa59f922281c05ebd77cb8f4b7de02410",
  "args": [],
  "numDeployments": 1,
  "solcInputHash": "df75a07ce310e8d33994ff42cae65914",
  "bytecode": "0x600060015560c0604052600a608052600660a052600c805461ffff191661060a1790553480156200002f57600080fd5b506200003b3362000428565b6200010f604080516101c081018252600080825260208083018290528284018290528351610100810185528281528082018390528085018390526060808201849052608080830185905260a080840186905260c0840186905260e0840186905291860192909252855180870187528481528084018590529185019190915284518086019095528285529084019190915290919082019081526000602082018190526040820181905260608083018290526080830182905260a083015260c0820181905260e082018190526101009091015290565b600d8190806001815401808255809150506001900390600052602060002090600a020160009091909190915060008201518160000160006101000a8154816001600160a01b0302191690836001600160a01b03160217905550602082015181600101556040820151816002015560608201518160030160008201518160000160006101000a81548160ff021916908360000b60ff16021790555060208201518160000160016101000a81548160ff021916908360000b60ff16021790555060408201518160000160026101000a81548160ff021916908360000b60ff16021790555060608201518160000160036101000a81548160ff021916908360000b60ff16021790555060808201518160000160046101000a81548160ff021916908360000b60ff16021790555060a08201518160000160056101000a81548160ff021916908360000b60ff16021790555060c08201518160000160066101000a81548160ff021916908360000b60ff16021790555060e08201518160000160076101000a81548160ff021916908315150217905550505060808201518160040160008201518160000160006101000a81548160ff021916908360ff16021790555060208201518160000160016101000a81548160ff021916908360ff160217905550505060a08201518160050160008201518160000160006101000a81548160ff021916908360ff16021790555060208201518160000160016101000a81548160ff021916908360ff160217905550505060c08201518160060160006101000a81548160ff021916908360000b60ff16021790555060e08201518160060160016101000a81548160ff021916908360ff1602179055506101008201518160060160026101000a81548160ff021916908360ff1602179055506101208201518160060160036101000a81548160ff021916908360ff160217905550610140820151816007019080519060200190620003e592919062000478565b5061016082015160088201805461018085015115156101000261ffff1990911660ff909316929092179190911790556101a090910151600990910155506200053c565b600080546001600160a01b038381166001600160a01b0319831681178455604051919092169283917f8be0079c531659141344cd1fd0a4f28419497f9722a3daafe3b4186f6b6457e09190a35050565b82805482825590600052602060002090601f01602090048101928215620005135791602002820160005b83821115620004e257835183826101000a81548160ff021916908360ff1602179055509260200192600101602081600001049283019260010302620004a2565b8015620005115782816101000a81549060ff0219169055600101602081600001049283019260010302620004e2565b505b506200052192915062000525565b5090565b5b8082111562000521576000815560010162000526565b614abe806200054c6000396000f3fe608060405234801561001057600080fd5b506004361061027f5760003560e01c80637ddae1031161015c578063ce28613f116100ce578063f10bff2b11610087578063f10bff2b146105e8578063f2fde38b146105fb578063f71d96cb1461060e578063f96f55d01461063a578063fa3993c21461064d578063fe23e2df1461066057600080fd5b8063ce28613f14610559578063ce9322971461056c578063dbf496ab1461057f578063dc769ee814610592578063e7169ec5146105c2578063ed861961146105d557600080fd5b8063955a015b11610120578063955a015b146104e757806397f34c3f146104fa5780639fca1ee11461050d578063b690719414610520578063c06fad0614610533578063ca39dfc41461054657600080fd5b80637ddae1031461047d5780638214f222146104905780638d491b3e146104a35780638da5cb5b146104b6578063951fc3fe146104c757600080fd5b806353011696116101f55780636621a421116101b95780636621a42114610416578063668a7f3b146104295780636d291bbb1461043c578063715018a61461044f57806373e4195c146104575780637b45c0d41461046a57600080fd5b806353011696146103955780635519f439146103ba5780635dc96967146103cd57806364db84bf146103f057806365c363f01461040357600080fd5b80631e1de205116102475780631e1de2051461032e5780631f7b4f3014610336578063336d7d7b14610349578063351dacdf1461035c5780633deaec2b1461036f57806347d0e3c91461038257600080fd5b80630dd0f588146102845780630e73c0241461029957806310a2cd0d146102c257806310f67fb3146102ed5780631b5ac4b51461030d575b600080fd5b610297610292366004613571565b610673565b005b6102ac6102a73660046135aa565b6106da565b6040516102b991906135fe565b60405180910390f35b6003546102d5906001600160a01b031681565b6040516001600160a01b0390911681526020016102b9565b6103006102fb3660046135aa565b6106fa565b6040516102b991906136a7565b61032061031b3660046135aa565b6109c3565b6040519081526020016102b9565b6103206109df565b6103206103443660046135aa565b610a57565b6008546102d5906001600160a01b031681565b61029761036a3660046137be565b610ab3565b6004546102d5906001600160a01b031681565b6103206103903660046135aa565b610b08565b6103a86103a33660046137e0565b610b40565b60405160ff90911681526020016102b9565b6103206103c8366004613991565b610b7d565b6103e06103db3660046139e7565b610cd9565b60405190151581526020016102b9565b6103206103fe3660046137be565b610d74565b6102976104113660046135aa565b610d8c565b6102d56104243660046135aa565b610de4565b610297610437366004613a13565b610e19565b61029761044a366004613aaa565b610f6a565b6102976113ce565b6103206104653660046135aa565b6113e2565b600a546102d5906001600160a01b031681565b6005546102d5906001600160a01b031681565b61032061049e3660046135aa565b611410565b6103e06104b1366004613b17565b61148a565b6000546001600160a01b03166102d5565b6104da6104d5366004613b4b565b61164b565b6040516102b99190613b78565b6007546102d5906001600160a01b031681565b6103a86105083660046139e7565b611775565b6009546102d5906001600160a01b031681565b61029761052e366004613b96565b6117a0565b6006546102d5906001600160a01b031681565b600b546102d5906001600160a01b031681565b6103a8610567366004613bc6565b61184b565b61029761057a3660046135aa565b6118fb565b61029761058d366004613bf4565b61196b565b600c546105a89060ff8082169161010090041682565b6040805160ff9384168152929091166020830152016102b9565b6102976105d0366004613c9c565b611a03565b6102976105e3366004613ce0565b611a8c565b6103206105f6366004613d32565b611b9f565b610297610609366004613d5e565b611bec565b61062161061c3660046135aa565b611c65565b6040516102b99d9c9b9a99989796959493929190613d79565b6102976106483660046137be565b611d8f565b61032061065b366004613d32565b61200f565b61029761066e3660046137be565b6120d7565b600b546001600160a01b031633146106ca5760405162461bcd60e51b8152602060048201526015602482015274139bdd0819195b9a5e995b9cc818dbdb9d1c9858dd605a1b60448201526064015b60405180910390fd5b6106d5838383612110565b505050565b60008181526002602052604090206060906106f4906121f1565b92915050565b6107cd604080516101c081018252600080825260208083018290528284018290528351610100810185528281528082018390528085018390526060808201849052608080830185905260a080840186905260c0840186905260e0840186905291860192909252855180870187528481528084018590529185019190915284518086019095528285529084019190915290919082019081526000602082018190526040820181905260608083018290526080830182905260a083015260c0820181905260e082018190526101009091015290565b600d82815481106107e0576107e0613e1d565b60009182526020808320604080516101c081018252600a90940290910180546001600160a01b0316845260018101548484015260028101548483015281516101008181018452600383015480880b8352818104880b8387015262010000808204890b8487015263010000008083048a0b60608681019190915264010000000084048b0b6080808801919091526501000000000085048c0b60a080890191909152600160301b86048d0b60c0808a019190915260ff600160381b9097048716151560e0808b0191909152938d01989098528951808b018b5260048a015480881682528890048716818d0152918c01919091528851808a018a52600589015480871682528790048616818c0152908b015260068701549a8b900b958a0195909552838a048316948901949094528804811691870191909152950490941661012084015260078401805482518185028101850190935280835293949361014086019383018282801561098c57602002820191906000526020600020906000905b825461010083900a900460ff1681526020600192830181810494850194909303909202910180841161095d5790505b5050509183525050600882015460ff8082166020840152610100909104161515604082015260099091015460609091015292915050565b6000808212156109db576109d682613e49565b6106f4565b5090565b60018054600091826109f083613e65565b9190505550600154600143610a059190613e7e565b4033604051602001610a3c93929190928352602083019190915260601b6bffffffffffffffffffffffff1916604082015260540190565b60405160208183030381529060405280519060200120905090565b600080610a666001600661184b565b60ff1690507ffe34d093a460a16ee5fb374540914d1c734a17502c0c1a87b387c8d6097e1c518382604051610aa5929190918252602082015260400190565b60405180910390a192915050565b80600d8381548110610ac757610ac7613e1d565b6000918252602082206008600a90920201018054909190610aec90849060ff16613e91565b92506101000a81548160ff021916908360ff1602179055505050565b6000600d8281548110610b1d57610b1d613e1d565b60009182526020909120600a909102016006015462010000900460ff1692915050565b600080610b4d8686613e7e565b9050600083610b5c8684613eaa565b610b669190613ed7565b9050610b728782613eeb565b979650505050505050565b6008546000906001600160a01b03163314610bcf5760405162461bcd60e51b8152602060048201526012602482015271139bdd081b1bd8989e4818dbdb9d1c9858dd60721b60448201526064016106c1565b600d805460018181018084556000938452600a9092027fd7b6990105719101dabeb77144f2a3385c8033acd3af97e9423a695e81ad1eb5019291610c139190613e7e565b82546001600160a01b0319166001600160a01b038716178355600180840188905560028401829055600d54919250610c5091889161064891613e7e565b835160088301805460ff191660ff909216919091179055600654604051630926bc2d60e21b81526001600160a01b039091169063249af0b490610c9b90849088908a90600401613efe565b600060405180830381600087803b158015610cb557600080fd5b505af1158015610cc9573d6000803e3d6000fd5b50929450505050505b9392505050565b600080610ce585610a57565b6040805187815260208101839052908101869052606081018590529091507f75b6a8325595f91135e07382840634226793c68c9e59623da7e10d7ad3d95b959060800160405180910390a180600103610d42576000915050610cd2565b600383610d4f8684613eeb565b610d599190613f2f565b1315610d69576001915050610cd2565b506000949350505050565b600081610d82846004613eaa565b610cd29190613eeb565b6007546001600160a01b03163314610da357600080fd5b6000600d8281548110610db857610db8613e1d565b90600052602060002090600a020160060160026101000a81548160ff021916908360ff16021790555050565b6000600d8281548110610df957610df9613e1d565b60009182526020909120600a90910201546001600160a01b031692915050565b6007546001600160a01b03163314610e435760405162461bcd60e51b81526004016106c190613f56565b60005b60018251610e549190613e7e565b81116106d5576000600d838381518110610e7057610e70613e1d565b602002602001015181548110610e8857610e88613e1d565b60009182526020822060048054600a939093029091018082015460405163f9dfbfcb60e01b815292830189905260ff808216602485015261010090910416604483015293506001600160a01b039091169063f9dfbfcb9060640161014060405180830381865afa158015610f00573d6000803e3d6000fd5b505050506040513d601f19601f82011682018060405250810190610f249190613f98565b90508060c0015115610f5557610f55848481518110610f4557610f45613e1d565b6020026020010151600180612110565b50508080610f6290613e65565b915050610e46565b6007546001600160a01b03163314610f945760405162461bcd60e51b81526004016106c190613f56565b610fdc6040518060e0016040528060008152602001600015158152602001600060ff168152602001600060ff1681526020016060815260200160608152602001606081525090565b6005826005811115610ff057610ff061406d565b0361106d5760055460405163c82c37b960e01b8152600481018590526001600160a01b039091169063c82c37b990602401600060405180830381865afa15801561103e573d6000803e3d6000fd5b505050506040513d6000823e601f3d908101601f191682016040526110669190810190614110565b90506110e7565b60055460405163e4dc1a8360e01b81526001600160a01b039091169063e4dc1a839061109f9086908690600401614215565b600060405180830381865afa1580156110bc573d6000803e3d6000fd5b505050506040513d6000823e601f3d908101601f191682016040526110e49190810190614110565b90505b6005546040516336772a9360e21b81526000916001600160a01b03169063d9dcaa4c9061111a9086908890600401614229565b600060405180830381865afa158015611137573d6000803e3d6000fd5b505050506040513d6000823e601f3d908101601f1916820160405261115f9190810190614244565b9050816040015160ff16600014801561117d5750606082015160ff16155b1561120e576111a9888888888560008151811061119c5761119c613e1d565b60200260200101516121fe565b600080516020614a69833981519152878984846000815181106111ce576111ce613e1d565b6020026020010151896040516111e895949392919061433f565b60405180910390a1600087815260026020526040902061120890436130d1565b506113c3565b600061121988610a57565b9050826040015160ff1660001415801561123a5750826040015160ff168111155b156112be57611259898989898660018151811061119c5761119c613e1d565b600080516020614a69833981519152888a858560018151811061127e5761127e613e1d565b60200260200101518a60405161129895949392919061433f565b60405180910390a160008881526002602052604090206112b890436130d1565b506113c1565b606083015160ff16158015906112db5750826060015160ff168110155b15611346576112fa898989898660028151811061119c5761119c613e1d565b600080516020614a69833981519152888a858560028151811061131f5761131f613e1d565b60200260200101518a60405161133995949392919061433f565b60405180910390a16113c1565b611360898989898660008151811061119c5761119c613e1d565b600080516020614a69833981519152888a858560008151811061138557611385613e1d565b60200260200101518a60405161139f95949392919061433f565b60405180910390a160008881526002602052604090206113bf90436130d1565b505b505b505050505050505050565b6113d66130dd565b6113e06000613137565b565b6000600d82815481106113f7576113f7613e1d565b90600052602060002090600a0201600101549050919050565b60008160000361142257506001919050565b8160010361143257506000919050565b8160020361144257506003919050565b8160030361145257506002919050565b60405162461bcd60e51b815260206004820152600d60248201526c2130b2103234b932b1ba34b7b760991b60448201526064016106c1565b6007546000906001600160a01b031633146114b75760405162461bcd60e51b81526004016106c190613f56565b6000600d84815481106114cc576114cc613e1d565b90600052602060002090600a02019050600d84815481106114ef576114ef613e1d565b60009182526020808320600a929092029091016004908101805460058601805460ff92831660ff19821681178355935461ffff199182169094176101009485900484168502179091558a518785018054968d01519184169690921686179216928302919091179055815460405163f9dfbfcb60e01b8152928301889052602483019390935260448201526001600160a01b039091169063f9dfbfcb9060640161014060405180830381865afa1580156115ac573d6000803e3d6000fd5b505050506040513d601f19601f820116820180604052508101906115d09190613f98565b5160ff1603610d695760098101546040805191825260208201869052600082820152600483015460ff808216606085015260089190911c166080830152517f1814753a06b465e9bcfcecac84fe4a96f85b9951c514e1429ed058d0f885483a9181900360a00190a161164184613187565b6001915050610cd2565b60408051808201909152600080825260208201528260000361169d576040518060400160405280600184600001516116839190613e91565b60ff168152602001836020015160ff1681525090506106f4565b826001036116c1576040518060400160405280836000015160016116839190614420565b826002036116fe576040518060400160405280836000015160ff168152602001836020015160016116f29190614420565b60ff16905290506106f4565b8260030361172f576040518060400160405280836000015160ff168152602001600184602001516116f29190613e91565b600061173a84613346565b60405160200161174a919061445d565b60405160208183030381529060405290508060405162461bcd60e51b81526004016106c191906144c4565b6000808260016117868660026145bb565b6117909190613e7e565b901b8516831c9150509392505050565b600a546001600160a01b0316331461180b5760405162461bcd60e51b815260206004820152602860248201527f4e6f7420616374696f6e7320636f6e7472616374202d206772616e74446174616044820152672a37a83630bcb2b960c11b60648201526084016106c1565b80600d838154811061181f5761181f613e1d565b90600052602060002090600a020160060160038282829054906101000a900460ff16610aec9190614420565b600180546000918261185c83613e65565b91905055506000336001546001436118749190613e7e565b60405160609390931b6bffffffffffffffffffffffff19166020840152603483019190915240605482015260740160408051601f198184030181529190528051602090910120905060006118c88585613e91565b6118d3906001614420565b90508460ff168160ff16836118e891906145c7565b6118f29190613eeb565b95945050505050565b6007546001600160a01b0316331461191257600080fd5b600d818154811061192557611925613e1d565b60009182526020909120600a90910201600601805462010000900460ff1690600261194f836145db565b91906101000a81548160ff021916908360ff1602179055505050565b6119736130dd565b600380546001600160a01b03199081166001600160a01b039b8c1617909155600480548216988b1698909817909755600880548816968a1696909617909555600a805487169489169490941790935560058054861692881692909217909155600680548516918716919091179055600780548416918616919091179055600b805490921693169290921790915550565b6007546001600160a01b03163314611a2d5760405162461bcd60e51b81526004016106c190613f56565b60005b82518110156106d55781600d848381518110611a4e57611a4e613e1d565b602002602001015181548110611a6657611a66613e1d565b600091825260209091206009600a90920201015580611a8481613e65565b915050611a30565b600a546001600160a01b03163314611af45760405162461bcd60e51b815260206004820152602560248201527f4e6f7420616374696f6e7320636f6e7472616374202d206578744170706c794560448201526419999958dd60da1b60648201526084016106c1565b600580546040516336772a9360e21b81526000926001600160a01b039092169163d9dcaa4c91611b2991908790600401614229565b600060405180830381865afa158015611b46573d6000803e3d6000fd5b505050506040513d6000823e601f3d908101601f19168201604052611b6e9190810190614244565b8281518110611b7f57611b7f613e1d565b60200260200101519050611b9687878787856121fe565b50505050505050565b600080611bbf836000015160000b856000015160000b61031b9190613f2f565b90506000611be0846020015160000b866020015160000b61031b9190613f2f565b90506118f28183613eeb565b611bf46130dd565b6001600160a01b038116611c595760405162461bcd60e51b815260206004820152602660248201527f4f776e61626c653a206e6577206f776e657220697320746865207a65726f206160448201526564647265737360d01b60648201526084016106c1565b611c6281613137565b50565b600d8181548110611c7557600080fd5b60009182526020808320600a9092029091018054600182015460028301546040805161010081810183526003870154808a0b83528181048a0b838a0152620100008082048b0b8486015263010000008083048c0b606086015264010000000083048c0b60808601526501000000000083048c0b60a0860152600160301b83048c0b60c086015260ff600160381b9093048316151560e08601528551808701875260048b015480851682528590048416818d0152865180880190975260058b0154808516885285900484169b87019b909b5260068a015460088b01546009909b01546001600160a01b03909a169d50979b969a9499949895979687900b9684810484169692810484169591900483169381841693910416908d565b600354604051634810bc5960e01b8152600481018490526000916001600160a01b031690634810bc599060240161022060405180830381865afa158015611dda573d6000803e3d6000fd5b505050506040513d601f19601f82011682018060405250810190611dfe91906146d4565b606001516006546040516347ef26b160e01b8152600481018590529192506000916001600160a01b03909116906347ef26b19060240161010060405180830381865afa158015611e52573d6000803e3d6000fd5b505050506040513d601f19601f82011682018060405250810190611e769190614788565b90506000600d8481548110611e8d57611e8d613e1d565b90600052602060002090600a0201905081600001518360000151611eb191906147a5565b60038201805460ff191660ff9290921691909117905560208281015190840151611edb91906147a5565b60038201805460ff929092166101000261ff001990921691909117905560408083015190840151611f0c91906147a5565b60038201805460ff92909216620100000262ff00001990921691909117905560608083015190840151611f3f91906147a5565b60038201805460ff9290921663010000000263ff0000001990921691909117905560808083015190840151611f7491906147a5565b60038201805460ff929092166401000000000264ff000000001990921691909117905560a08083015190840151611fab91906147a5565b60038201805460ff92909216650100000000000265ff00000000001990921691909117905560c08083015190840151611fe491906147a5565b6003909101805460ff92909216600160301b0266ff0000000000001990921691909117905550505050565b8051825160009161201f916147c6565b60000b600103612031575060006106f4565b8151835161203f91906147c6565b60000b1961204f575060016106f4565b8160200151836020015161206391906147c6565b60000b19612073575060026106f4565b8160200151836020015161208791906147c6565b60000b600103612099575060036106f4565b60405162461bcd60e51b8152602060048201526013602482015272115c9c9bdc8e88139bdd0818591a9858d95b9d606a1b60448201526064016106c1565b80600d83815481106120eb576120eb613e1d565b6000918252602082206008600a90920201018054909190610aec90849060ff16614420565b6000600d848154811061212557612125613e1d565b6000918252602082206006600a9092020190810180549193508592909161214f908490830b6147a5565b825460ff9182166101009390930a92830291909202199091161790555060038101546006820154600091820b910b126121eb57600981015460408051918252602082018690528101849052600482015460ff808216606084015260089190911c1660808201527f1814753a06b465e9bcfcecac84fe4a96f85b9951c514e1429ed058d0f885483a9060a00160405180910390a16121eb84613187565b50505050565b60606000610cd28361344e565b60005b81518110156130c9576122426040518060400160405280601681526020017520b838363cb4b7339032b33332b1ba10373ab6b132b960511b815250826134aa565b6000600d878154811061225757612257613e1d565b60009182526020909120600a909102019050600183838151811061227d5761227d613e1d565b602002602001015160000151601681111561229a5761229a61406d565b505060028383815181106122b0576122b0613e1d565b60200260200101516000015160168111156122cd576122cd61406d565b03612313578282815181106122e4576122e4613e1d565b60200260200101516020015160006122fc91906147c6565b60068201805460ff191660ff929092169190911790555b600383838151811061232757612327613e1d565b60200260200101516000015160168111156123445761234461406d565b036123b15760098101546040805191825260208201899052600082820152600483015460ff808216606085015260089190911c166080830152517f1814753a06b465e9bcfcecac84fe4a96f85b9951c514e1429ed058d0f885483a9181900360a00190a16123b187613187565b60048383815181106123c5576123c5613e1d565b60200260200101516000015160168111156123e2576123e261406d565b03612462576004805485516020870151604051637f1b46bd60e11b815293840189905260ff9182166024850152166044830152600160648301526001600160a01b03169063fe368d7a90608401600060405180830381600087803b15801561244957600080fd5b505af115801561245d573d6000803e3d6000fd5b505050505b600583838151811061247657612476613e1d565b60200260200101516000015160168111156124935761249361406d565b505060068383815181106124a9576124a9613e1d565b60200260200101516000015160168111156124c6576124c661406d565b0361253b578282815181106124dd576124dd613e1d565b6020908102919091018101510151600682018054600090612501908490830b6147c6565b825460ff9182166101009390930a9283029190920219909116179055506006810154600090810b121561253b5760068101805460ff191690555b600783838151811061254f5761254f613e1d565b602002602001015160000151601681111561256c5761256c61406d565b5050600883838151811061258257612582613e1d565b602002602001015160000151601681111561259f5761259f61406d565b036125cd576125cd878484815181106125ba576125ba613e1d565b6020026020010151602001516001612110565b60098383815181106125e1576125e1613e1d565b60200260200101516000015160168111156125fe576125fe61406d565b0361262c5761262c8784848151811061261957612619613e1d565b6020026020010151602001516000612110565b600a83838151811061264057612640613e1d565b602002602001015160000151601681111561265d5761265d61406d565b03612a0357600083838151811061267657612676613e1d565b6020026020010151602001519050600b60168111156126975761269761406d565b846126a3856001613eeb565b815181106126b3576126b3613e1d565b60200260200101516000015160168111156126d0576126d061406d565b146126dd576126dd6147e7565b6000846001815181106126f2576126f2613e1d565b602002602001015160200151600881111561270f5761270f61406d565b9050600c8561271f866002613eeb565b8151811061272f5761272f613e1d565b602002602001015160000151601681111561274c5761274c61406d565b14612759576127596147e7565b60008560028151811061276e5761276e613e1d565b602002602001015160200151600381111561278b5761278b61406d565b60048054895160208b01516040516315636a4d60e01b81529384018d905260ff91821660248501521660448301529192506000916001600160a01b0316906315636a4d90606401608060405180830381865afa1580156127ef573d6000803e3d6000fd5b505050506040513d601f19601f8201168201806040525081019061281391906147fd565b905060038260038111156128295761282961406d565b036129275760005b600481101561291c5781816004811061284c5761284c613e1d565b6020020151151560010361290a5760005b85811015612908576000612871838c61164b565b9050600760009054906101000a90046001600160a01b03166001600160a01b0316631cef40f68e88846000015185602001516040518563ffffffff1660e01b81526004016128c29493929190614866565b600060405180830381600087803b1580156128dc57600080fd5b505af11580156128f0573d6000803e3d6000fd5b5050505050808061290090613e65565b91505061285d565b505b8061291481613e65565b915050612831565b5050505050506130c9565b60005b8481101561291c576007546001600160a01b0316631cef40f68c8660018760038111156129595761295961406d565b1461296b5760058a015460ff1661296e565b8c515b60018860038111156129825761298261406d565b146129995760058b0154610100900460ff1661299f565b8d602001515b6040518563ffffffff1660e01b81526004016129be9493929190614866565b600060405180830381600087803b1580156129d857600080fd5b505af11580156129ec573d6000803e3d6000fd5b5050505080806129fb90613e65565b91505061292a565b600d838381518110612a1757612a17613e1d565b6020026020010151600001516016811115612a3457612a3461406d565b03612a6057612a6087848481518110612a4f57612a4f613e1d565b6020026020010151602001516117a0565b600e838381518110612a7457612a74613e1d565b6020026020010151600001516016811115612a9157612a9161406d565b5050600f838381518110612aa757612aa7613e1d565b6020026020010151600001516016811115612ac457612ac461406d565b03612ce8576000838381518110612add57612add613e1d565b6020908102919091018101510151600654604051633841fae160e01b8152600481018b90529192506000916001600160a01b0390911690633841fae190602401600060405180830381865afa158015612b3a573d6000803e3d6000fd5b505050506040513d6000823e601f3d908101601f19168201604052612b62919081019061489c565b805190915015612ce557600060018251612b7c9190613e7e565b90505b8015612c1b576000612b9260008361184b565b9050828160ff1681518110612ba957612ba9613e1d565b6020026020010151838381518110612bc357612bc3613e1d565b6020026020010151848481518110612bdd57612bdd613e1d565b60200260200101858460ff1681518110612bf957612bf9613e1d565b6020908102919091010191909152525080612c1381614921565b915050612b7f565b5060005b8151851015612ce35760065482516001600160a01b0390911690635f09c782908c90859085908110612c5357612c53613e1d565b60200260200101516040518363ffffffff1660e01b8152600401612c81929190918252602082015260400190565b600060405180830381600087803b158015612c9b57600080fd5b505af1158015612caf573d6000803e3d6000fd5b50505050612cbe8a6001610ab3565b82612cc881614921565b9350508215612ce35780612cdb81613e65565b915050612c1f565b505b50505b6011838381518110612cfc57612cfc613e1d565b6020026020010151600001516016811115612d1957612d1961406d565b03612e34576005838381518110612d3257612d32613e1d565b60200260200101516020015103612e345760048054604051632fc4a8f360e11b815291820187905260009182916001600160a01b031690635f8951e6906024016040805180830381865afa158015612d8e573d6000803e3d6000fd5b505050506040513d601f19601f82011682018060405250810190612db29190614938565b60075460408051808201825260ff8086168252841660208201529051631751422560e01b81529395509193506001600160a01b031691631751422591612dff918c91908e9060040161495c565b600060405180830381600087803b158015612e1957600080fd5b505af1158015612e2d573d6000803e3d6000fd5b5050505050505b6012838381518110612e4857612e48613e1d565b6020026020010151600001516016811115612e6557612e6561406d565b50506013838381518110612e7b57612e7b613e1d565b6020026020010151600001516016811115612e9857612e9861406d565b50506015838381518110612eae57612eae613e1d565b6020026020010151600001516016811115612ecb57612ecb61406d565b036130835760005b6004811015613081576004805486516020880151604051630dd43b9b60e31b81529384018a905260ff9182166024850152166044830152606482018390526000916001600160a01b0390911690636ea1dcd890608401606060405180830381865afa158015612f46573d6000803e3d6000fd5b505050506040513d601f19601f82011682018060405250810190612f6a919061498e565b9050600181604001516004811115612f8457612f8461406d565b1480612fa55750600281604001516004811115612fa357612fa361406d565b145b80612fc55750600381604001516004811115612fc357612fc361406d565b145b1561306e57600460009054906101000a90046001600160a01b03166001600160a01b0316635921522388886000015189602001518660018b8b8151811061300e5761300e613e1d565b6020026020010151602001516040518763ffffffff1660e01b815260040161303b96959493929190614a03565b600060405180830381600087803b15801561305557600080fd5b505af1158015613069573d6000803e3d6000fd5b505050505b508061307981613e65565b915050612ed3565b505b601483838151811061309757613097613e1d565b60200260200101516000015160168111156130b4576130b461406d565b505050806130c181613e65565b915050612201565b505050505050565b6000610cd283836134f3565b6000546001600160a01b031633146113e05760405162461bcd60e51b815260206004820181905260248201527f4f776e61626c653a2063616c6c6572206973206e6f7420746865206f776e657260448201526064016106c1565b600080546001600160a01b038381166001600160a01b0319831681178455604051919092169283917f8be0079c531659141344cd1fd0a4f28419497f9722a3daafe3b4186f6b6457e09190a35050565b6000600d828154811061319c5761319c613e1d565b60009182526020909120600654600a90920201600981015460048083015460405163268f1d4d60e01b8152918201929092526024810186905260ff808316604483015261010090920490911660648201529092506001600160a01b039091169063268f1d4d90608401600060405180830381600087803b15801561321f57600080fd5b505af1158015613233573d6000803e3d6000fd5b50505060068201805460ff1990811690915560088301805490911690555060018101546132609083611d8f565b600354600d80546001600160a01b0390921691636d6ba75691908590811061328a5761328a613e1d565b90600052602060002090600a0201600101546040518263ffffffff1660e01b81526004016132ba91815260200190565b600060405180830381600087803b1580156132d457600080fd5b505af11580156132e8573d6000803e3d6000fd5b50505050600c600d838154811061330157613301613e1d565b600091825260209091208254600a90920201600401805460ff92831660ff19821681178355935461ffff19909116909317610100938490049092169092021790555050565b60608160000361336d5750506040805180820190915260018152600360fc1b602082015290565b8160005b8115613397578061338181613e65565b91506133909050600a83613ed7565b9150613371565b6000816001600160401b038111156133b1576133b161382e565b6040519080825280601f01601f1916602001820160405280156133db576020820181803683370190505b5090505b8415613446576133f0600183613e7e565b91506133fd600a866145c7565b613408906030613eeb565b60f81b81838151811061341d5761341d613e1d565b60200101906001600160f81b031916908160001a90535061343f600a86613ed7565b94506133df565b949350505050565b60608160000180548060200260200160405190810160405280929190818152602001828054801561349e57602002820191906000526020600020905b81548152602001906001019080831161348a575b50505050509050919050565b6134ef82826040516024016134c0929190614a46565b60408051601f198184030181529190526020810180516001600160e01b0316632d839cb360e21b179052613542565b5050565b600081815260018301602052604081205461353a575081546001818101845560008481526020808220909301849055845484825282860190935260409020919091556106f4565b5060006106f4565b80516a636f6e736f6c652e6c6f67602083016000808483855afa5050505050565b8015158114611c6257600080fd5b60008060006060848603121561358657600080fd5b8335925060208401359150604084013561359f81613563565b809150509250925092565b6000602082840312156135bc57600080fd5b5035919050565b600081518084526020808501945080840160005b838110156135f3578151875295820195908201906001016135d7565b509495945050505050565b602081526000610cd260208301846135c3565b8051600081810b84526020830151810b60208501526040830151810b60408501526060830151810b60608501526080830151810b608085015260a0830151810b60a085015260c0830151810b60c0850152505060e0810151151560e08301525050565b600081518084526020808501945080840160005b838110156135f357815160ff1687529582019590820190600101613688565b602081526136c16020820183516001600160a01b03169052565b6020820151604082015260408201516060820152600060608301516136e96080840182613611565b50608083015161018061370e81850183805160ff908116835260209182015116910152565b60a0850151805160ff9081166101c087015260209091015181166101e086015260c086015160000b61020086015260e086015181166102208601526101008601518116610240860152610120860151166102608501526101408501516102e06102808601819052909250613786610300860184613674565b925061016086015161379e6102a087018260ff169052565b509085015115156102c08501526101a09094015192909301919091525090565b600080604083850312156137d157600080fd5b50508035926020909101359150565b600080600080608085870312156137f657600080fd5b5050823594602084013594506040840135936060013592509050565b80356001600160a01b038116811461382957600080fd5b919050565b634e487b7160e01b600052604160045260246000fd5b604080519081016001600160401b03811182821017156138665761386661382e565b60405290565b60405160e081016001600160401b03811182821017156138665761386661382e565b60405161014081016001600160401b03811182821017156138665761386661382e565b604051608081016001600160401b03811182821017156138665761386661382e565b604051601f8201601f191681016001600160401b03811182821017156138fb576138fb61382e565b604052919050565b60006001600160401b0382111561391c5761391c61382e565b5060051b60200190565b600082601f83011261393757600080fd5b8135602061394c61394783613903565b6138d3565b82815260059290921b8401810191818101908684111561396b57600080fd5b8286015b84811015613986578035835291830191830161396f565b509695505050505050565b6000806000606084860312156139a657600080fd5b833592506139b660208501613812565b915060408401356001600160401b038111156139d157600080fd5b6139dd86828701613926565b9150509250925092565b6000806000606084860312156139fc57600080fd5b505081359360208301359350604090920135919050565b60008060408385031215613a2657600080fd5b8235915060208301356001600160401b03811115613a4357600080fd5b613a4f85828601613926565b9150509250929050565b60ff81168114611c6257600080fd5b600060408284031215613a7a57600080fd5b613a82613844565b90508135613a8f81613a59565b81526020820135613a9f81613a59565b602082015292915050565b6000806000806000806000610100888a031215613ac657600080fd5b87359650602088013595506040880135945060608801359350613aec8960808a01613a68565b925060c0880135915060e088013560068110613b0757600080fd5b8091505092959891949750929550565b600080600060808486031215613b2c57600080fd5b613b368585613a68565b95604085013595506060909401359392505050565b60008060608385031215613b5e57600080fd5b82359150613b6f8460208501613a68565b90509250929050565b604081016106f48284805160ff908116835260209182015116910152565b60008060408385031215613ba957600080fd5b823591506020830135613bbb81613a59565b809150509250929050565b60008060408385031215613bd957600080fd5b8235613be481613a59565b91506020830135613bbb81613a59565b60008060008060008060008060006101208a8c031215613c1357600080fd5b613c1c8a613812565b9850613c2a60208b01613812565b9750613c3860408b01613812565b9650613c4660608b01613812565b9550613c5460808b01613812565b9450613c6260a08b01613812565b9350613c7060c08b01613812565b9250613c7e60e08b01613812565b9150613c8d6101008b01613812565b90509295985092959850929598565b60008060408385031215613caf57600080fd5b82356001600160401b03811115613cc557600080fd5b613cd185828601613926565b95602094909401359450505050565b60008060008060008060e08789031215613cf957600080fd5b863595506020870135945060408701359350613d188860608901613a68565b925060a0870135915060c087013590509295509295509295565b60008060808385031215613d4557600080fd5b613d4f8484613a68565b9150613b6f8460408501613a68565b600060208284031215613d7057600080fd5b610cd282613812565b6001600160a01b038e168152602081018d9052604081018c90526102c08101613da5606083018d613611565b8a5160ff90811661016084015260209b8c015181166101808401528a5181166101a084015299909a015189166101c082015260009790970b6101e08801529487166102008701529286166102208601529085166102408501529093166102608301529115156102808201526102a00152949350505050565b634e487b7160e01b600052603260045260246000fd5b634e487b7160e01b600052601160045260246000fd5b6000600160ff1b8201613e5e57613e5e613e33565b5060000390565b600060018201613e7757613e77613e33565b5060010190565b818103818111156106f4576106f4613e33565b60ff82811682821603908111156106f4576106f4613e33565b80820281158282048414176106f4576106f4613e33565b634e487b7160e01b600052601260045260246000fd5b600082613ee657613ee6613ec1565b500490565b808201808211156106f4576106f4613e33565b838152606060208201526000613f1760608301856135c3565b905060018060a01b0383166040830152949350505050565b8181036000831280158383131683831282161715613f4f57613f4f613e33565b5092915050565b602080825260129082015271139bdd0819d85b595cc818dbdb9d1c9858dd60721b604082015260600190565b805161382981613a59565b805161382981613563565b60006101408284031215613fab57600080fd5b613fb361386c565b8251613fbe81613a59565b8152602083810151613fcf81613a59565b82820152605f84018513613fe257600080fd5b613fea6138b1565b8060c0860187811115613ffc57600080fd5b604087015b818110156140185780518452928401928401614001565b5081604086015261402881613f8d565b60608601525050505061403d60e08401613f8d565b608082015261404f6101008401613f8d565b60a08201526140616101208401613f8d565b60c08201529392505050565b634e487b7160e01b600052602160045260246000fd5b600082601f83011261409457600080fd5b815160206140a461394783613903565b82815260069290921b840181019181810190868411156140c357600080fd5b8286015b8481101561398657604081890312156140e05760008081fd5b6140e8613844565b8151601781106140f85760008081fd5b815281850151858201528352918301916040016140c7565b60006020828403121561412257600080fd5b81516001600160401b038082111561413957600080fd5b9083019060e0828603121561414d57600080fd5b61415561386c565b8251815261416560208401613f8d565b602082015261417660408401613f82565b604082015261418760608401613f82565b606082015260808301518281111561419e57600080fd5b6141aa87828601614083565b60808301525060a0830151828111156141c257600080fd5b6141ce87828601614083565b60a08301525060c0830151828111156141e657600080fd5b6141f287828601614083565b60c08301525095945050505050565b600681106142115761421161406d565b9052565b82815260408101610cd26020830184614201565b604081016142378285614201565b8260208301529392505050565b6000602080838503121561425757600080fd5b82516001600160401b038082111561426e57600080fd5b818501915085601f83011261428257600080fd5b815161429061394782613903565b81815260059190911b830184019084810190888311156142af57600080fd5b8585015b838110156142e7578051858111156142cb5760008081fd5b6142d98b89838a0101614083565b8452509186019186016142b3565b5098975050505050505050565b600081518084526020808501945080840160005b838110156135f35781518051601781106143245761432461406d565b88528301518388015260409096019590820190600101614308565b85815284602082015260c06040820152835160c08201526020840151151560e082015260ff6040850151166101008201526000606085015161438761012084018260ff169052565b50608085015160e06101408401526143a36101a08401826142f4565b905060a086015160bf1980858403016101608601526143c283836142f4565b925060c088015191508085840301610180860152506143e182826142f4565b91505082810360608401526143f681866142f4565b845160ff908116608086015260208601511660a085015291506144169050565b9695505050505050565b60ff81811683821601908111156106f4576106f4613e33565b60005b8381101561445457818101518382015260200161443c565b50506000910152565b72024b73b30b634b2103234b932b1ba34b7b71d1606d1b81526000825161448b816013850160208701614439565b9190910160130192915050565b600081518084526144b0816020860160208601614439565b601f01601f19169290920160200192915050565b602081526000610cd26020830184614498565b600181815b808511156145125781600019048211156144f8576144f8613e33565b8085161561450557918102915b93841c93908002906144dc565b509250929050565b600082614529575060016106f4565b81614536575060006106f4565b816001811461454c576002811461455657614572565b60019150506106f4565b60ff84111561456757614567613e33565b50506001821b6106f4565b5060208310610133831016604e8410600b8410161715614595575081810a6106f4565b61459f83836144d7565b80600019048211156145b3576145b3613e33565b029392505050565b6000610cd2838361451a565b6000826145d6576145d6613ec1565b500690565b600060ff821660ff81036145f1576145f1613e33565b60010192915050565b8051600081900b811461382957600080fd5b600061010080838503121561462057600080fd5b604051908101906001600160401b03821181831017156146425761464261382e565b81604052809250614652846145fa565b8152614660602085016145fa565b6020820152614671604085016145fa565b6040820152614682606085016145fa565b6060820152614693608085016145fa565b60808201526146a460a085016145fa565b60a08201526146b560c085016145fa565b60c082015260e084015191506146ca82613563565b60e0015292915050565b600061022082840312156146e757600080fd5b6146ef61388e565b825181526020830151602082015260408301516040820152614714846060850161460c565b60608201526147266101608401613f82565b60808201526147386101808401613f82565b60a082015261474a6101a08401613f82565b60c082015261475c6101c08401613f82565b60e082015261476e6101e08401613f8d565b610100820152610200929092015161012083015250919050565b6000610100828403121561479b57600080fd5b610cd2838361460c565b600081810b9083900b01607f8113607f19821217156106f4576106f4613e33565b600082810b9082900b03607f198112607f821317156106f4576106f4613e33565b634e487b7160e01b600052600160045260246000fd5b60006080828403121561480f57600080fd5b82601f83011261481e57600080fd5b6148266138b1565b80608084018581111561483857600080fd5b845b8181101561485b57805161484d81613563565b84526020938401930161483a565b509095945050505050565b848152608081016009851061487d5761487d61406d565b602082019490945260ff92831660408201529116606090910152919050565b600060208083850312156148af57600080fd5b82516001600160401b038111156148c557600080fd5b8301601f810185136148d657600080fd5b80516148e461394782613903565b81815260059190911b8201830190838101908783111561490357600080fd5b928401925b82841015610b7257835182529284019290840190614908565b60008161493057614930613e33565b506000190190565b6000806040838503121561494b57600080fd5b505080516020909101519092909150565b838152608081016149806020830185805160ff908116835260209182015116910152565b826060830152949350505050565b6000606082840312156149a057600080fd5b604051606081018181106001600160401b03821117156149c2576149c261382e565b60405282516149d081613a59565b815260208301516149e081613a59565b60208201526040830151600581106149f757600080fd5b60408201529392505050565b86815260ff8681166020830152851660408201526060810184905260c0810160058410614a3257614a3261406d565b608082019390935260a00152949350505050565b604081526000614a596040830185614498565b9050826020830152939250505056fe0d8334653668b057f97ab0194d84efdd8d4b95b9fc457e80f4b710081afb1ff6a264697066735822122028f7fbe4a385d3956213b8ae250198c8cbb255e0d451a98f81cfb4f5fef03bb664736f6c63430008110033",
  "devdoc": {
    "kind": "dev",
    "methods": {
      "owner()": {
        "details": "Returns the address of the current owner."
      },
      "renounceOwnership()": {
        "details": "Leaves the contract without owner. It will not be possible to call `onlyOwner` functions anymore. Can only be called by the current owner. NOTE: Renouncing ownership will leave the contract without an owner, thereby removing any functionality that is only available to the owner."
      },
      "transferOwnership(address)": {
        "details": "Transfers ownership of the contract to a new account (`newOwner`). Can only be called by the current owner."
      }
    },
    "version": 1
  },
  "userdoc": {
    "kind": "user",
    "methods": {},
    "version": 1
  },
  "storageLayout": {
    "storage": [
      {
        "astId": 7,
        "contract": "contracts/BCPlayers.sol:BCPlayers",
        "label": "_owner",
        "offset": 0,
        "slot": "0",
        "type": "t_address"
      },
      {
        "astId": 20693,
        "contract": "contracts/BCPlayers.sol:BCPlayers",
        "label": "TODO_randomSeed",
        "offset": 0,
        "slot": "1",
        "type": "t_uint256"
      },
      {
        "astId": 20698,
        "contract": "contracts/BCPlayers.sol:BCPlayers",
        "label": "gameToEventBlocks",
        "offset": 0,
        "slot": "2",
        "type": "t_mapping(t_uint256,t_struct(UintSet)2262_storage)"
      },
      {
        "astId": 18514,
        "contract": "contracts/BCPlayers.sol:BCPlayers",
        "label": "chars",
        "offset": 0,
        "slot": "3",
        "type": "t_contract(CharInterface)18302"
      },
      {
        "astId": 18517,
        "contract": "contracts/BCPlayers.sol:BCPlayers",
        "label": "maps",
        "offset": 0,
        "slot": "4",
        "type": "t_contract(MapInterface)18435"
      },
      {
        "astId": 18520,
        "contract": "contracts/BCPlayers.sol:BCPlayers",
        "label": "bcEvents",
        "offset": 0,
        "slot": "5",
        "type": "t_contract(EventsInterface)18280"
      },
      {
        "astId": 18523,
        "contract": "contracts/BCPlayers.sol:BCPlayers",
        "label": "items",
        "offset": 0,
        "slot": "6",
        "type": "t_contract(ItemsInterface)18480"
      },
      {
        "astId": 18526,
        "contract": "contracts/BCPlayers.sol:BCPlayers",
        "label": "games",
        "offset": 0,
        "slot": "7",
        "type": "t_contract(GamesInterface)18503"
      },
      {
        "astId": 18528,
        "contract": "contracts/BCPlayers.sol:BCPlayers",
        "label": "lobbiesAddress",
        "offset": 0,
        "slot": "8",
        "type": "t_address"
      },
      {
        "astId": 18530,
        "contract": "contracts/BCPlayers.sol:BCPlayers",
        "label": "charsAddress",
        "offset": 0,
        "slot": "9",
        "type": "t_address"
      },
      {
        "astId": 18532,
        "contract": "contracts/BCPlayers.sol:BCPlayers",
        "label": "actionsAddress",
        "offset": 0,
        "slot": "10",
        "type": "t_address"
      },
      {
        "astId": 18534,
        "contract": "contracts/BCPlayers.sol:BCPlayers",
        "label": "denizensAddress",
        "offset": 0,
        "slot": "11",
        "type": "t_address"
      },
      {
        "astId": 18614,
        "contract": "contracts/BCPlayers.sol:BCPlayers",
        "label": "StartLocation",
        "offset": 0,
        "slot": "12",
        "type": "t_struct(Position)20465_storage"
      },
      {
        "astId": 18618,
        "contract": "contracts/BCPlayers.sol:BCPlayers",
        "label": "players",
        "offset": 0,
        "slot": "13",
        "type": "t_array(t_struct(Player)20436_storage)dyn_storage"
      }
    ],
    "types": {
      "t_address": {
        "encoding": "inplace",
        "label": "address",
        "numberOfBytes": "20"
      },
      "t_array(t_bytes32)dyn_storage": {
        "base": "t_bytes32",
        "encoding": "dynamic_array",
        "label": "bytes32[]",
        "numberOfBytes": "32"
      },
      "t_array(t_struct(Player)20436_storage)dyn_storage": {
        "base": "t_struct(Player)20436_storage",
        "encoding": "dynamic_array",
        "label": "struct BCTypes.Player[]",
        "numberOfBytes": "32"
      },
      "t_array(t_uint8)dyn_storage": {
        "base": "t_uint8",
        "encoding": "dynamic_array",
        "label": "uint8[]",
        "numberOfBytes": "32"
      },
      "t_bool": {
        "encoding": "inplace",
        "label": "bool",
        "numberOfBytes": "1"
      },
      "t_bytes32": {
        "encoding": "inplace",
        "label": "bytes32",
        "numberOfBytes": "32"
      },
      "t_contract(CharInterface)18302": {
        "encoding": "inplace",
        "label": "contract CharInterface",
        "numberOfBytes": "20"
      },
      "t_contract(EventsInterface)18280": {
        "encoding": "inplace",
        "label": "contract EventsInterface",
        "numberOfBytes": "20"
      },
      "t_contract(GamesInterface)18503": {
        "encoding": "inplace",
        "label": "contract GamesInterface",
        "numberOfBytes": "20"
      },
      "t_contract(ItemsInterface)18480": {
        "encoding": "inplace",
        "label": "contract ItemsInterface",
        "numberOfBytes": "20"
      },
      "t_contract(MapInterface)18435": {
        "encoding": "inplace",
        "label": "contract MapInterface",
        "numberOfBytes": "20"
      },
      "t_int8": {
        "encoding": "inplace",
        "label": "int8",
        "numberOfBytes": "1"
      },
      "t_mapping(t_bytes32,t_uint256)": {
        "encoding": "mapping",
        "key": "t_bytes32",
        "label": "mapping(bytes32 => uint256)",
        "numberOfBytes": "32",
        "value": "t_uint256"
      },
      "t_mapping(t_uint256,t_struct(UintSet)2262_storage)": {
        "encoding": "mapping",
        "key": "t_uint256",
        "label": "mapping(uint256 => struct EnumerableSet.UintSet)",
        "numberOfBytes": "32",
        "value": "t_struct(UintSet)2262_storage"
      },
      "t_struct(Player)20436_storage": {
        "encoding": "inplace",
        "label": "struct BCTypes.Player",
        "members": [
          {
            "astId": 20405,
            "contract": "contracts/BCPlayers.sol:BCPlayers",
            "label": "owner",
            "offset": 0,
            "slot": "0",
            "type": "t_address"
          },
          {
            "astId": 20407,
            "contract": "contracts/BCPlayers.sol:BCPlayers",
            "label": "characterId",
            "offset": 0,
            "slot": "1",
            "type": "t_uint256"
          },
          {
            "astId": 20409,
            "contract": "contracts/BCPlayers.sol:BCPlayers",
            "label": "id",
            "offset": 0,
            "slot": "2",
            "type": "t_uint256"
          },
          {
            "astId": 20412,
            "contract": "contracts/BCPlayers.sol:BCPlayers",
            "label": "currentTraits",
            "offset": 0,
            "slot": "3",
            "type": "t_struct(Traits)20605_storage"
          },
          {
            "astId": 20415,
            "contract": "contracts/BCPlayers.sol:BCPlayers",
            "label": "position",
            "offset": 0,
            "slot": "4",
            "type": "t_struct(Position)20465_storage"
          },
          {
            "astId": 20418,
            "contract": "contracts/BCPlayers.sol:BCPlayers",
            "label": "lastPos",
            "offset": 0,
            "slot": "5",
            "type": "t_struct(Position)20465_storage"
          },
          {
            "astId": 20420,
            "contract": "contracts/BCPlayers.sol:BCPlayers",
            "label": "healthDmgTaken",
            "offset": 0,
            "slot": "6",
            "type": "t_int8"
          },
          {
            "astId": 20422,
            "contract": "contracts/BCPlayers.sol:BCPlayers",
            "label": "armorDmgTaken",
            "offset": 1,
            "slot": "6",
            "type": "t_uint8"
          },
          {
            "astId": 20424,
            "contract": "contracts/BCPlayers.sol:BCPlayers",
            "label": "actionsTaken",
            "offset": 2,
            "slot": "6",
            "type": "t_uint8"
          },
          {
            "astId": 20426,
            "contract": "contracts/BCPlayers.sol:BCPlayers",
            "label": "dataTokens",
            "offset": 3,
            "slot": "6",
            "type": "t_uint8"
          },
          {
            "astId": 20429,
            "contract": "contracts/BCPlayers.sol:BCPlayers",
            "label": "currentEffects",
            "offset": 0,
            "slot": "7",
            "type": "t_array(t_uint8)dyn_storage"
          },
          {
            "astId": 20431,
            "contract": "contracts/BCPlayers.sol:BCPlayers",
            "label": "numItemsHeld",
            "offset": 0,
            "slot": "8",
            "type": "t_uint8"
          },
          {
            "astId": 20433,
            "contract": "contracts/BCPlayers.sol:BCPlayers",
            "label": "dead",
            "offset": 1,
            "slot": "8",
            "type": "t_bool"
          },
          {
            "astId": 20435,
            "contract": "contracts/BCPlayers.sol:BCPlayers",
            "label": "gameId",
            "offset": 0,
            "slot": "9",
            "type": "t_uint256"
          }
        ],
        "numberOfBytes": "320"
      },
      "t_struct(Position)20465_storage": {
        "encoding": "inplace",
        "label": "struct BCTypes.Position",
        "members": [
          {
            "astId": 20462,
            "contract": "contracts/BCPlayers.sol:BCPlayers",
            "label": "row",
            "offset": 0,
            "slot": "0",
            "type": "t_uint8"
          },
          {
            "astId": 20464,
            "contract": "contracts/BCPlayers.sol:BCPlayers",
            "label": "col",
            "offset": 1,
            "slot": "0",
            "type": "t_uint8"
          }
        ],
        "numberOfBytes": "32"
      },
      "t_struct(Set)1804_storage": {
        "encoding": "inplace",
        "label": "struct EnumerableSet.Set",
        "members": [
          {
            "astId": 1799,
            "contract": "contracts/BCPlayers.sol:BCPlayers",
            "label": "_values",
            "offset": 0,
            "slot": "0",
            "type": "t_array(t_bytes32)dyn_storage"
          },
          {
            "astId": 1803,
            "contract": "contracts/BCPlayers.sol:BCPlayers",
            "label": "_indexes",
            "offset": 0,
            "slot": "1",
            "type": "t_mapping(t_bytes32,t_uint256)"
          }
        ],
        "numberOfBytes": "64"
      },
      "t_struct(Traits)20605_storage": {
        "encoding": "inplace",
        "label": "struct BCTypes.Traits",
        "members": [
          {
            "astId": 20590,
            "contract": "contracts/BCPlayers.sol:BCPlayers",
            "label": "health",
            "offset": 0,
            "slot": "0",
            "type": "t_int8"
          },
          {
            "astId": 20592,
            "contract": "contracts/BCPlayers.sol:BCPlayers",
            "label": "carry",
            "offset": 1,
            "slot": "0",
            "type": "t_int8"
          },
          {
            "astId": 20594,
            "contract": "contracts/BCPlayers.sol:BCPlayers",
            "label": "defense",
            "offset": 2,
            "slot": "0",
            "type": "t_int8"
          },
          {
            "astId": 20596,
            "contract": "contracts/BCPlayers.sol:BCPlayers",
            "label": "hack",
            "offset": 3,
            "slot": "0",
            "type": "t_int8"
          },
          {
            "astId": 20598,
            "contract": "contracts/BCPlayers.sol:BCPlayers",
            "label": "breach",
            "offset": 4,
            "slot": "0",
            "type": "t_int8"
          },
          {
            "astId": 20600,
            "contract": "contracts/BCPlayers.sol:BCPlayers",
            "label": "shoot",
            "offset": 5,
            "slot": "0",
            "type": "t_int8"
          },
          {
            "astId": 20602,
            "contract": "contracts/BCPlayers.sol:BCPlayers",
            "label": "melee",
            "offset": 6,
            "slot": "0",
            "type": "t_int8"
          },
          {
            "astId": 20604,
            "contract": "contracts/BCPlayers.sol:BCPlayers",
            "label": "hasGun",
            "offset": 7,
            "slot": "0",
            "type": "t_bool"
          }
        ],
        "numberOfBytes": "32"
      },
      "t_struct(UintSet)2262_storage": {
        "encoding": "inplace",
        "label": "struct EnumerableSet.UintSet",
        "members": [
          {
            "astId": 2261,
            "contract": "contracts/BCPlayers.sol:BCPlayers",
            "label": "_inner",
            "offset": 0,
            "slot": "0",
            "type": "t_struct(Set)1804_storage"
          }
        ],
        "numberOfBytes": "64"
      },
      "t_uint256": {
        "encoding": "inplace",
        "label": "uint256",
        "numberOfBytes": "32"
      },
      "t_uint8": {
        "encoding": "inplace",
        "label": "uint8",
        "numberOfBytes": "1"
      }
    }
  }
}