{
  "address": "0xC7b154D89F5b2Fb34e9c86e22D1EeE476DC38350",
  "abi": [
    {
      "inputs": [],
      "stateMutability": "nonpayable",
      "type": "constructor"
    },
    {
      "anonymous": false,
      "inputs": [
        {
          "indexed": false,
          "internalType": "uint256",
          "name": "gameId",
          "type": "uint256"
        },
        {
          "indexed": false,
          "internalType": "uint256",
          "name": "playerId",
          "type": "uint256"
        },
        {
          "components": [
            {
              "internalType": "uint256",
              "name": "id",
              "type": "uint256"
            },
            {
              "internalType": "bool",
              "name": "permanent",
              "type": "bool"
            },
            {
              "internalType": "uint8",
              "name": "rollForLow",
              "type": "uint8"
            },
            {
              "internalType": "uint8",
              "name": "rollForHigh",
              "type": "uint8"
            },
            {
              "components": [
                {
                  "internalType": "enum BCEvents.EffectTypes",
                  "name": "effect",
                  "type": "uint8"
                },
                {
                  "internalType": "uint256",
                  "name": "value",
                  "type": "uint256"
                }
              ],
              "internalType": "struct BCEvents.Effect[]",
              "name": "defaultEffect",
              "type": "tuple[]"
            },
            {
              "components": [
                {
                  "internalType": "enum BCEvents.EffectTypes",
                  "name": "effect",
                  "type": "uint8"
                },
                {
                  "internalType": "uint256",
                  "name": "value",
                  "type": "uint256"
                }
              ],
              "internalType": "struct BCEvents.Effect[]",
              "name": "lowEffect",
              "type": "tuple[]"
            },
            {
              "components": [
                {
                  "internalType": "enum BCEvents.EffectTypes",
                  "name": "effect",
                  "type": "uint8"
                },
                {
                  "internalType": "uint256",
                  "name": "value",
                  "type": "uint256"
                }
              ],
              "internalType": "struct BCEvents.Effect[]",
              "name": "highEffect",
              "type": "tuple[]"
            }
          ],
          "indexed": false,
          "internalType": "struct BCEvents.BCEvent",
          "name": "bcEvent",
          "type": "tuple"
        },
        {
          "components": [
            {
              "internalType": "enum BCEvents.EffectTypes",
              "name": "effect",
              "type": "uint8"
            },
            {
              "internalType": "uint256",
              "name": "value",
              "type": "uint256"
            }
          ],
          "indexed": false,
          "internalType": "struct BCEvents.Effect[]",
          "name": "bcEffects",
          "type": "tuple[]"
        }
      ],
      "name": "EventResolvedEvent",
      "type": "event"
    },
    {
      "anonymous": false,
      "inputs": [
        {
          "indexed": true,
          "internalType": "address",
          "name": "previousOwner",
          "type": "address"
        },
        {
          "indexed": true,
          "internalType": "address",
          "name": "newOwner",
          "type": "address"
        }
      ],
      "name": "OwnershipTransferred",
      "type": "event"
    },
    {
      "inputs": [],
      "name": "StartLocation",
      "outputs": [
        {
          "internalType": "uint8",
          "name": "row",
          "type": "uint8"
        },
        {
          "internalType": "uint8",
          "name": "col",
          "type": "uint8"
        }
      ],
      "stateMutability": "view",
      "type": "function"
    },
    {
      "inputs": [],
      "name": "actionsAddress",
      "outputs": [
        {
          "internalType": "address",
          "name": "",
          "type": "address"
        }
      ],
      "stateMutability": "view",
      "type": "function"
    },
    {
      "inputs": [
        {
          "internalType": "address",
          "name": "_charContractAddress",
          "type": "address"
        },
        {
          "internalType": "uint256",
          "name": "_charId",
          "type": "uint256"
        },
        {
          "internalType": "address",
          "name": "_owner",
          "type": "address"
        }
      ],
      "name": "addPlayer",
      "outputs": [
        {
          "internalType": "uint256",
          "name": "",
          "type": "uint256"
        }
      ],
      "stateMutability": "nonpayable",
      "type": "function"
    },
    {
      "inputs": [
        {
          "internalType": "uint256",
          "name": "_mapId",
          "type": "uint256"
        },
        {
          "internalType": "uint256[]",
          "name": "_players",
          "type": "uint256[]"
        }
      ],
      "name": "applyHazardDamage",
      "outputs": [],
      "stateMutability": "nonpayable",
      "type": "function"
    },
    {
      "inputs": [],
      "name": "bcEvents",
      "outputs": [
        {
          "internalType": "contract EventsInterface",
          "name": "",
          "type": "address"
        }
      ],
      "stateMutability": "view",
      "type": "function"
    },
    {
      "inputs": [],
      "name": "chars",
      "outputs": [
        {
          "internalType": "contract CharInterface",
          "name": "",
          "type": "address"
        }
      ],
      "stateMutability": "view",
      "type": "function"
    },
    {
      "inputs": [],
      "name": "charsAddress",
      "outputs": [
        {
          "internalType": "address",
          "name": "",
          "type": "address"
        }
      ],
      "stateMutability": "view",
      "type": "function"
    },
    {
      "inputs": [
        {
          "internalType": "uint256",
          "name": "_playerId",
          "type": "uint256"
        },
        {
          "internalType": "uint256",
          "name": "_gameId",
          "type": "uint256"
        },
        {
          "internalType": "uint256",
          "name": "_mapId",
          "type": "uint256"
        },
        {
          "components": [
            {
              "internalType": "uint8",
              "name": "row",
              "type": "uint8"
            },
            {
              "internalType": "uint8",
              "name": "col",
              "type": "uint8"
            }
          ],
          "internalType": "struct BCTypes.Position",
          "name": "_position",
          "type": "tuple"
        },
        {
          "internalType": "uint256",
          "name": "_eventId",
          "type": "uint256"
        },
        {
          "internalType": "uint256",
          "name": "_effectNum",
          "type": "uint256"
        }
      ],
      "name": "extApplyEffect",
      "outputs": [],
      "stateMutability": "nonpayable",
      "type": "function"
    },
    {
      "inputs": [
        {
          "internalType": "uint256",
          "name": "_choice",
          "type": "uint256"
        },
        {
          "internalType": "uint256",
          "name": "_eventPlayerId",
          "type": "uint256"
        },
        {
          "internalType": "uint256",
          "name": "_gameId",
          "type": "uint256"
        },
        {
          "internalType": "uint256",
          "name": "_mapId",
          "type": "uint256"
        },
        {
          "components": [
            {
              "internalType": "uint8",
              "name": "row",
              "type": "uint8"
            },
            {
              "internalType": "uint8",
              "name": "col",
              "type": "uint8"
            }
          ],
          "internalType": "struct BCTypes.Position",
          "name": "_position",
          "type": "tuple"
        },
        {
          "internalType": "uint256",
          "name": "_eventNumber",
          "type": "uint256"
        },
        {
          "internalType": "enum BCTypes.BCEventType",
          "name": "_eventType",
          "type": "uint8"
        }
      ],
      "name": "extChooseEffect",
      "outputs": [],
      "stateMutability": "nonpayable",
      "type": "function"
    },
    {
      "inputs": [
        {
          "internalType": "uint256",
          "name": "_id",
          "type": "uint256"
        }
      ],
      "name": "extGetPlayer",
      "outputs": [
        {
          "components": [
            {
              "internalType": "address",
              "name": "owner",
              "type": "address"
            },
            {
              "internalType": "address",
              "name": "charContractAddress",
              "type": "address"
            },
            {
              "internalType": "uint256",
              "name": "characterId",
              "type": "uint256"
            },
            {
              "components": [
                {
                  "internalType": "uint8",
                  "name": "row",
                  "type": "uint8"
                },
                {
                  "internalType": "uint8",
                  "name": "col",
                  "type": "uint8"
                }
              ],
              "internalType": "struct BCTypes.Position",
              "name": "position",
              "type": "tuple"
            },
            {
              "internalType": "int8",
              "name": "healthDmgTaken",
              "type": "int8"
            },
            {
              "internalType": "uint8",
              "name": "armorDmgTaken",
              "type": "uint8"
            },
            {
              "internalType": "uint8",
              "name": "actionsTaken",
              "type": "uint8"
            },
            {
              "internalType": "uint8",
              "name": "dataTokens",
              "type": "uint8"
            },
            {
              "internalType": "uint8[]",
              "name": "currentEffects",
              "type": "uint8[]"
            },
            {
              "internalType": "uint8[]",
              "name": "inventoryIDs",
              "type": "uint8[]"
            },
            {
              "internalType": "bool",
              "name": "canHarmOthers",
              "type": "bool"
            },
            {
              "internalType": "bool",
              "name": "dead",
              "type": "bool"
            },
            {
              "internalType": "bool",
              "name": "hasEgg",
              "type": "bool"
            }
          ],
          "internalType": "struct BCTypes.Player",
          "name": "",
          "type": "tuple"
        }
      ],
      "stateMutability": "view",
      "type": "function"
    },
    {
      "inputs": [
        {
          "internalType": "uint256",
          "name": "_id",
          "type": "uint256"
        }
      ],
      "name": "extGetPlayerOwner",
      "outputs": [
        {
          "internalType": "address",
          "name": "",
          "type": "address"
        }
      ],
      "stateMutability": "view",
      "type": "function"
    },
    {
      "inputs": [
        {
          "internalType": "uint256",
          "name": "_playerId",
          "type": "uint256"
        },
        {
          "internalType": "uint256",
          "name": "_amount",
          "type": "uint256"
        },
        {
          "internalType": "bool",
          "name": "_hazard",
          "type": "bool"
        }
      ],
      "name": "extHurtPlayer",
      "outputs": [],
      "stateMutability": "nonpayable",
      "type": "function"
    },
    {
      "inputs": [
        {
          "components": [
            {
              "internalType": "uint8",
              "name": "row",
              "type": "uint8"
            },
            {
              "internalType": "uint8",
              "name": "col",
              "type": "uint8"
            }
          ],
          "internalType": "struct BCTypes.Position",
          "name": "_position",
          "type": "tuple"
        },
        {
          "internalType": "uint256",
          "name": "_playerId",
          "type": "uint256"
        },
        {
          "internalType": "uint256",
          "name": "_mapId",
          "type": "uint256"
        }
      ],
      "name": "extMovePlayer",
      "outputs": [
        {
          "internalType": "bool",
          "name": "",
          "type": "bool"
        }
      ],
      "stateMutability": "nonpayable",
      "type": "function"
    },
    {
      "inputs": [],
      "name": "games",
      "outputs": [
        {
          "internalType": "contract GamesInterface",
          "name": "",
          "type": "address"
        }
      ],
      "stateMutability": "view",
      "type": "function"
    },
    {
      "inputs": [
        {
          "internalType": "uint256",
          "name": "_playerId",
          "type": "uint256"
        },
        {
          "internalType": "uint8",
          "name": "_amount",
          "type": "uint8"
        }
      ],
      "name": "grantDataToPlayer",
      "outputs": [],
      "stateMutability": "nonpayable",
      "type": "function"
    },
    {
      "inputs": [
        {
          "internalType": "uint256",
          "name": "_playerId",
          "type": "uint256"
        }
      ],
      "name": "incrementPlayerActions",
      "outputs": [],
      "stateMutability": "nonpayable",
      "type": "function"
    },
    {
      "inputs": [],
      "name": "items",
      "outputs": [
        {
          "internalType": "contract ItemsInterface",
          "name": "",
          "type": "address"
        }
      ],
      "stateMutability": "view",
      "type": "function"
    },
    {
      "inputs": [],
      "name": "lobbiesAddress",
      "outputs": [
        {
          "internalType": "address",
          "name": "",
          "type": "address"
        }
      ],
      "stateMutability": "view",
      "type": "function"
    },
    {
      "inputs": [],
      "name": "maps",
      "outputs": [
        {
          "internalType": "contract MapInterface",
          "name": "",
          "type": "address"
        }
      ],
      "stateMutability": "view",
      "type": "function"
    },
    {
      "inputs": [],
      "name": "owner",
      "outputs": [
        {
          "internalType": "address",
          "name": "",
          "type": "address"
        }
      ],
      "stateMutability": "view",
      "type": "function"
    },
    {
      "inputs": [
        {
          "internalType": "uint256",
          "name": "",
          "type": "uint256"
        }
      ],
      "name": "players",
      "outputs": [
        {
          "internalType": "address",
          "name": "owner",
          "type": "address"
        },
        {
          "internalType": "address",
          "name": "charContractAddress",
          "type": "address"
        },
        {
          "internalType": "uint256",
          "name": "characterId",
          "type": "uint256"
        },
        {
          "components": [
            {
              "internalType": "uint8",
              "name": "row",
              "type": "uint8"
            },
            {
              "internalType": "uint8",
              "name": "col",
              "type": "uint8"
            }
          ],
          "internalType": "struct BCTypes.Position",
          "name": "position",
          "type": "tuple"
        },
        {
          "internalType": "int8",
          "name": "healthDmgTaken",
          "type": "int8"
        },
        {
          "internalType": "uint8",
          "name": "armorDmgTaken",
          "type": "uint8"
        },
        {
          "internalType": "uint8",
          "name": "actionsTaken",
          "type": "uint8"
        },
        {
          "internalType": "uint8",
          "name": "dataTokens",
          "type": "uint8"
        },
        {
          "internalType": "bool",
          "name": "canHarmOthers",
          "type": "bool"
        },
        {
          "internalType": "bool",
          "name": "dead",
          "type": "bool"
        },
        {
          "internalType": "bool",
          "name": "hasEgg",
          "type": "bool"
        }
      ],
      "stateMutability": "view",
      "type": "function"
    },
    {
      "inputs": [],
      "name": "renounceOwnership",
      "outputs": [],
      "stateMutability": "nonpayable",
      "type": "function"
    },
    {
      "inputs": [
        {
          "internalType": "uint256",
          "name": "_playerId",
          "type": "uint256"
        }
      ],
      "name": "resetPlayerActions",
      "outputs": [],
      "stateMutability": "nonpayable",
      "type": "function"
    },
    {
      "inputs": [
        {
          "internalType": "address",
          "name": "_charAddress",
          "type": "address"
        },
        {
          "internalType": "address",
          "name": "_utilsAddress",
          "type": "address"
        },
        {
          "internalType": "address",
          "name": "_mapsAddress",
          "type": "address"
        },
        {
          "internalType": "address",
          "name": "_lobbiesAddress",
          "type": "address"
        },
        {
          "internalType": "address",
          "name": "_actionsAddress",
          "type": "address"
        },
        {
          "internalType": "address",
          "name": "_eventsAddress",
          "type": "address"
        },
        {
          "internalType": "address",
          "name": "_itemsAddress",
          "type": "address"
        },
        {
          "internalType": "address",
          "name": "_gamesAddress",
          "type": "address"
        }
      ],
      "name": "setContractAddresses",
      "outputs": [],
      "stateMutability": "nonpayable",
      "type": "function"
    },
    {
      "inputs": [
        {
          "internalType": "address",
          "name": "newOwner",
          "type": "address"
        }
      ],
      "name": "transferOwnership",
      "outputs": [],
      "stateMutability": "nonpayable",
      "type": "function"
    },
    {
      "inputs": [],
      "name": "utils",
      "outputs": [
        {
          "internalType": "contract UtilsInterface",
          "name": "",
          "type": "address"
        }
      ],
      "stateMutability": "view",
      "type": "function"
    }
  ],
  "transactionHash": "0x1ac24c0a4f8651aa0ff5c0cb0f763eb5668012c77c6b1f21b501c0f1fdf96201",
  "args": [],
  "numDeployments": 2,
  "solcInputHash": "927b54aab0ea7258e06983ba7a51e557",
  "bytecode": "0x60c0604052600a6080819052600660a052805461ffff191661060a17905534801561002957600080fd5b5061003333610038565b610088565b600080546001600160a01b038381166001600160a01b0319831681178455604051919092169283917f8be0079c531659141344cd1fd0a4f28419497f9722a3daafe3b4186f6b6457e09190a35050565b612e9b80620000986000396000f3fe608060405234801561001057600080fd5b506004361061018e5760003560e01c80637ddae103116100de578063b690719411610097578063dc769ee811610071578063dc769ee814610372578063ed861961146103a2578063f2fde38b146103b5578063f71d96cb146103c857600080fd5b8063b690719414610339578063c06fad061461034c578063ce9322971461035f57600080fd5b80637ddae103146102b95780638d491b3e146102cc5780638da5cb5b146102ef578063921d279914610300578063955a015b146103135780639fca1ee11461032657600080fd5b80635a29638d1161014b578063668a7f3b11610125578063668a7f3b146102785780636d291bbb1461028b578063715018a61461029e5780637b45c0d4146102a657600080fd5b80635a29638d1461023f57806365c363f0146102525780636621a4211461026557600080fd5b806308178b3c146101935780630dd0f588146101b957806310a2cd0d146101ce57806310f67fb3146101f9578063336d7d7b146102195780633deaec2b1461022c575b600080fd5b6101a66101a1366004611f72565b6103f2565b6040519081526020015b60405180910390f35b6101cc6101c7366004611fbc565b610510565b005b6001546101e1906001600160a01b031681565b6040516001600160a01b0390911681526020016101b0565b61020c610207366004611ff5565b61054a565b6040516101b0919061204c565b6007546101e1906001600160a01b031681565b6003546101e1906001600160a01b031681565b6002546101e1906001600160a01b031681565b6101cc610260366004611ff5565b610794565b6101e1610273366004611ff5565b6107ec565b6101cc610286366004612255565b610821565b6101cc610299366004612348565b610976565b6101cc610c9f565b6009546101e1906001600160a01b031681565b6004546101e1906001600160a01b031681565b6102df6102da3660046123b5565b610cb3565b60405190151581526020016101b0565b6000546001600160a01b03166101e1565b6101cc61030e3660046123e9565b610ddf565b6006546101e1906001600160a01b031681565b6008546101e1906001600160a01b031681565b6101cc610347366004612480565b610e75565b6005546101e1906001600160a01b031681565b6101cc61036d366004611ff5565b610f22565b600a546103889060ff8082169161010090041682565b6040805160ff9384168152929091166020830152016101b0565b6101cc6103b03660046124b0565b610f92565b6101cc6103c3366004612502565b611085565b6103db6103d6366004611ff5565b6110fe565b6040516101b09b9a9998979695949392919061251d565b6007546000906001600160a01b031633146104495760405162461bcd60e51b8152602060048201526012602482015271139bdd081b1bd8989e4818dbdb9d1c9858dd60721b60448201526064015b60405180910390fd5b600b80546001818101835560008390527f0175b7a638427703f0dbe7bb9bbf987a2551717b34e79f33b5b1008d1fa01dba600890920291820180546001600160a01b03808a166001600160a01b0319928316179092557f0175b7a638427703f0dbe7bb9bbf987a2551717b34e79f33b5b1008d1fa01db984018054928816929091169190911781557f0175b7a638427703f0dbe7bb9bbf987a2551717b34e79f33b5b1008d1fa01dbb90920186905591549091610505916125c6565b9150505b9392505050565b6006546001600160a01b0316331461053a5760405162461bcd60e51b8152600401610440906125df565b6105458383836111a3565b505050565b6105c5604080516101a08101825260008082526020808301829052828401829052835180850190945281845283015290606082019081526000602082018190526040820181905260608083018290526080830182905260a0830181905260c083015260e0820181905261010082018190526101209091015290565b600b82815481106105d8576105d861260b565b60009182526020808320604080516101a081018252600890940290910180546001600160a01b0390811685526001820154168484015260028101548483015281518083018352600382015460ff808216835261010091829004811683870152606087019290925260048301549687900b6080870152808704821660a0870152620100008704821660c087015263010000009096041660e085015260058101805483518186028101860190945280845294959194918601939091908301828280156106df57602002820191906000526020600020906000905b825461010083900a900460ff168152602060019283018181049485019490930390920291018084116106b05790505b505050505081526020016006820180548060200260200160405190810160405280929190818152602001828054801561075557602002820191906000526020600020906000905b825461010083900a900460ff168152602060019283018181049485019490930390920291018084116107265790505b50505091835250506007919091015460ff8082161515602084015261010082048116151560408401526201000090910416151560609091015292915050565b6006546001600160a01b031633146107ab57600080fd5b6000600b82815481106107c0576107c061260b565b906000526020600020906008020160040160026101000a81548160ff021916908360ff16021790555050565b6000600b82815481106108015761080161260b565b60009182526020909120600890910201546001600160a01b031692915050565b6006546001600160a01b0316331461084b5760405162461bcd60e51b8152600401610440906125df565b60005b6001825161085c91906125c6565b8111610545576000600b8383815181106108785761087861260b565b6020026020010151815481106108905761089061260b565b600091825260208220600380546008939093029091019081015460405163f9dfbfcb60e01b81526004810189905260ff808316602483015261010090920490911660448201529093506001600160a01b039091169063f9dfbfcb9060640161014060405180830381865afa15801561090c573d6000803e3d6000fd5b505050506040513d601f19601f820116820180604052508101906109309190612637565b90508060c0015115610961576109618484815181106109515761095161260b565b60200260200101516001806111a3565b5050808061096e9061272a565b91505061084e565b6006546001600160a01b031633146109a05760405162461bcd60e51b8152600401610440906125df565b6109e86040518060e0016040528060008152602001600015158152602001600060ff168152602001600060ff1681526020016060815260200160608152602001606081525090565b606060058360058111156109fe576109fe612743565b03610a79576004805460405163c82c37b960e01b81529182018690526001600160a01b03169063c82c37b990602401600060405180830381865afa158015610a4a573d6000803e3d6000fd5b505050506040513d6000823e601f3d908101601f19168201604052610a7291908101906127f1565b9150610a80565b5050610c96565b600480546040516336772a9360e21b81526000926001600160a01b039092169163d9dcaa4c91610ab49188918a91016128e3565b600060405180830381865afa158015610ad1573d6000803e3d6000fd5b505050506040513d6000823e601f3d908101601f19168201604052610af99190810190612901565b9050826040015160ff166000148015610b175750606083015160ff16155b15610b4857610b438989898985600081518110610b3657610b3661260b565b602002602001015161129e565b610c55565b6002546040516301f7b4f360e41b8152600481018a90526000916001600160a01b031690631f7b4f30906024016020604051808303816000875af1158015610b94573d6000803e3d6000fd5b505050506040513d601f19601f82011682018060405250810190610bb891906129b2565b9050836040015160ff16600014158015610bd95750836040015160ff168111155b15610bfd57610bf88a8a8a8a86600181518110610b3657610b3661260b565b610c53565b606084015160ff1615801590610c1a5750836060015160ff168110155b15610c3957610bf88a8a8a8a86600281518110610b3657610b3661260b565b610c538a8a8a8a86600081518110610b3657610b3661260b565b505b7f854f143c4475e8754c8844dbfe9928cf11388710860ea82bb21c19da10f6c73d888a8585604051610c8a9493929190612a16565b60405180910390a15050505b50505050505050565b610ca7611d92565b610cb16000611dec565b565b6006546000906001600160a01b03163314610ce05760405162461bcd60e51b8152600401610440906125df565b83600b8481548110610cf457610cf461260b565b60009182526020808320845160036008909402909101830180549583015160ff9081166101000261ffff19909716921691909117949094179093555486519287015160405163f9dfbfcb60e01b815292936001600160a01b039092169263f9dfbfcb92610d7992889260040192835260ff918216602084015216604082015260600190565b61014060405180830381865afa158015610d97573d6000803e3d6000fd5b505050506040513d601f19601f82011682018060405250810190610dbb9190612637565b5160ff1603610dd557610dcd83611e3c565b506001610509565b5060009392505050565b610de7611d92565b600180546001600160a01b03199081166001600160a01b039a8b1617909155600280548216988a1698909817909755600380548816968916969096179095556007805487169488169490941790935560098054861692871692909217909155600480548516918616919091179055600580548416918516919091179055600680549092169216919091179055565b6009546001600160a01b03163314610ec65760405162461bcd60e51b8152602060048201526014602482015273139bdd081858dd1a5bdb9cc818dbdb9d1c9858dd60621b6044820152606401610440565b80600b8381548110610eda57610eda61260b565b906000526020600020906008020160040160038282829054906101000a900460ff16610f069190612ad6565b92506101000a81548160ff021916908360ff1602179055505050565b6006546001600160a01b03163314610f3957600080fd5b600b8181548110610f4c57610f4c61260b565b60009182526020909120600890910201600401805462010000900460ff16906002610f7683612aef565b91906101000a81548160ff021916908360ff1602179055505050565b6009546001600160a01b03163314610fe35760405162461bcd60e51b8152602060048201526014602482015273139bdd081858dd1a5bdb9cc818dbdb9d1c9858dd60621b6044820152606401610440565b600480546040516336772a9360e21b81526000926001600160a01b039092169163d9dcaa4c91611018916005918891016128e3565b600060405180830381865afa158015611035573d6000803e3d6000fd5b505050506040513d6000823e601f3d908101601f1916820160405261105d9190810190612901565b828151811061106e5761106e61260b565b60200260200101519050610c96878787878561129e565b61108d611d92565b6001600160a01b0381166110f25760405162461bcd60e51b815260206004820152602660248201527f4f776e61626c653a206e6577206f776e657220697320746865207a65726f206160448201526564647265737360d01b6064820152608401610440565b6110fb81611dec565b50565b600b818154811061110e57600080fd5b60009182526020808320600890920290910180546001820154600283015460408051808201909152600385015460ff80821683526101009182900481169783019790975260048601546007909601546001600160a01b0395861699509390941696919590949182900b93808304821693620100008085048416946301000000900484169382811693830481169291909104168b565b6000600b84815481106111b8576111b861260b565b600091825260208220600154600892909202016002810154604051634810bc5960e01b815260048101919091529093506001600160a01b0390911690634810bc59906024016101e060405180830381865afa15801561121b573d6000803e3d6000fd5b505050506040513d601f19601f8201168201806040525081019061123f9190612bb3565b600483018054919250859160009061125a908490830b612c5a565b825460ff9182166101009390930a9283029190920219909116179055506060810151516004830154600091820b910b126112975761129785611e3c565b5050505050565b60005b8151811015611d8a576000600b87815481106112bf576112bf61260b565b60009182526020909120600890910201905060018383815181106112e5576112e561260b565b602002602001015160000151601681111561130257611302612743565b505060028383815181106113185761131861260b565b602002602001015160000151601681111561133557611335612743565b0361137b5782828151811061134c5761134c61260b565b60200260200101516020015160006113649190612c7b565b60048201805460ff191660ff929092169190911790555b600383838151811061138f5761138f61260b565b60200260200101516000015160168111156113ac576113ac612743565b036113ba576113ba87611e3c565b60048383815181106113ce576113ce61260b565b60200260200101516000015160168111156113eb576113eb612743565b0361146e5760035484516020860151604051637f1b46bd60e11b81526004810189905260ff928316602482015291166044820152600160648201526001600160a01b039091169063fe368d7a90608401600060405180830381600087803b15801561145557600080fd5b505af1158015611469573d6000803e3d6000fd5b505050505b60058383815181106114825761148261260b565b602002602001015160000151601681111561149f5761149f612743565b505060068383815181106114b5576114b561260b565b60200260200101516000015160168111156114d2576114d2612743565b03611547578282815181106114e9576114e961260b565b602090810291909101810151015160048201805460009061150d908490830b612c7b565b825460ff9182166101009390930a9283029190920219909116179055506004810154600090810b12156115475760048101805460ff191690555b600783838151811061155b5761155b61260b565b602002602001015160000151601681111561157857611578612743565b5050600883838151811061158e5761158e61260b565b60200260200101516000015160168111156115ab576115ab612743565b036115d9576115d9878484815181106115c6576115c661260b565b60200260200101516020015160016111a3565b60098383815181106115ed576115ed61260b565b602002602001015160000151601681111561160a5761160a612743565b0361163857611638878484815181106116255761162561260b565b60200260200101516020015160006111a3565b600b83838151811061164c5761164c61260b565b602002602001015160000151601681111561166957611669612743565b5050600d83838151811061167f5761167f61260b565b602002602001015160000151601681111561169c5761169c612743565b036116c8576116c8878484815181106116b7576116b761260b565b602002602001015160200151610e75565b600e8383815181106116dc576116dc61260b565b60200260200101516000015160168111156116f9576116f9612743565b5050600f83838151811061170f5761170f61260b565b602002602001015160000151601681111561172c5761172c612743565b036119a85760008383815181106117455761174561260b565b6020908102919091018101510151600554604051633841fae160e01b8152600481018b90529192506000916001600160a01b0390911690633841fae190602401600060405180830381865afa1580156117a2573d6000803e3d6000fd5b505050506040513d6000823e601f3d908101601f191682016040526117ca9190810190612c9c565b8051909150156119a5576000600182516117e491906125c6565b90505b80156118ef5760025460405163ce28613f60e01b815260006004820181905260ff84166024830152916001600160a01b03169063ce28613f906044016020604051808303816000875af1158015611842573d6000803e3d6000fd5b505050506040513d601f19601f820116820180604052508101906118669190612d22565b9050828160ff168151811061187d5761187d61260b565b60200260200101518383815181106118975761189761260b565b60200260200101518484815181106118b1576118b161260b565b60200260200101858460ff16815181106118cd576118cd61260b565b60209081029190910101919091525250806118e781612d3f565b9150506117e7565b5060005b81518510156119a35760055482516001600160a01b039091169063f7c8af48908490849081106119255761192561260b565b60200260200101516040518263ffffffff1660e01b815260040161194b91815260200190565b600060405180830381600087803b15801561196557600080fd5b505af1158015611979573d6000803e3d6000fd5b50505050828061198890612d3f565b93505082156119a3578061199b8161272a565b9150506118f3565b505b50505b60118383815181106119bc576119bc61260b565b60200260200101516000015160168111156119d9576119d9612743565b03611af65760058383815181106119f2576119f261260b565b60200260200101516020015103611af657600354604051632fc4a8f360e11b81526004810187905260009182916001600160a01b0390911690635f8951e6906024016040805180830381865afa158015611a50573d6000803e3d6000fd5b505050506040513d601f19601f82011682018060405250810190611a749190612d56565b60065460408051808201825260ff8086168252841660208201529051631751422560e01b81529395509193506001600160a01b031691631751422591611ac1918c91908e90600401612d7a565b600060405180830381600087803b158015611adb57600080fd5b505af1158015611aef573d6000803e3d6000fd5b5050505050505b6012838381518110611b0a57611b0a61260b565b6020026020010151600001516016811115611b2757611b27612743565b50506013838381518110611b3d57611b3d61260b565b6020026020010151600001516016811115611b5a57611b5a612743565b50506015838381518110611b7057611b7061260b565b6020026020010151600001516016811115611b8d57611b8d612743565b03611d445760005b6004811015611d425760035485516020870151604051630dd43b9b60e31b8152600481018a905260ff928316602482015291166044820152606481018390526000916001600160a01b031690636ea1dcd890608401606060405180830381865afa158015611c07573d6000803e3d6000fd5b505050506040513d601f19601f82011682018060405250810190611c2b9190612dac565b9050600181604001516004811115611c4557611c45612743565b1480611c665750600281604001516004811115611c6457611c64612743565b145b80611c865750600381604001516004811115611c8457611c84612743565b145b15611d2f57600360009054906101000a90046001600160a01b03166001600160a01b0316635921522388886000015189602001518660018b8b81518110611ccf57611ccf61260b565b6020026020010151602001516040518763ffffffff1660e01b8152600401611cfc96959493929190612e22565b600060405180830381600087803b158015611d1657600080fd5b505af1158015611d2a573d6000803e3d6000fd5b505050505b5080611d3a8161272a565b915050611b95565b505b6014838381518110611d5857611d5861260b565b6020026020010151600001516016811115611d7557611d75612743565b50505080611d828161272a565b9150506112a1565b505050505050565b6000546001600160a01b03163314610cb15760405162461bcd60e51b815260206004820181905260248201527f4f776e61626c653a2063616c6c6572206973206e6f7420746865206f776e65726044820152606401610440565b600080546001600160a01b038381166001600160a01b0319831681178455604051919092169283917f8be0079c531659141344cd1fd0a4f28419497f9722a3daafe3b4186f6b6457e09190a35050565b6000600b8281548110611e5157611e5161260b565b6000918252602090912060089091020160048101805460ff19169055600154600b80549293506001600160a01b0390911691636d6ba756919085908110611e9a57611e9a61260b565b9060005260206000209060080201600201546040518263ffffffff1660e01b8152600401611eca91815260200190565b600060405180830381600087803b158015611ee457600080fd5b505af1158015611ef8573d6000803e3d6000fd5b50505050600a600b8381548110611f1157611f1161260b565b600091825260209091208254600890920201600301805460ff92831660ff19821681178355935461ffff19909116909317610100938490049092169092021790555050565b80356001600160a01b0381168114611f6d57600080fd5b919050565b600080600060608486031215611f8757600080fd5b611f9084611f56565b925060208401359150611fa560408501611f56565b90509250925092565b80151581146110fb57600080fd5b600080600060608486031215611fd157600080fd5b83359250602084013591506040840135611fea81611fae565b809150509250925092565b60006020828403121561200757600080fd5b5035919050565b600081518084526020808501945080840160005b8381101561204157815160ff1687529582019590820190600101612022565b509495945050505050565b602081526120666020820183516001600160a01b03169052565b6000602083015161208260408401826001600160a01b03169052565b506040830151606083015260608301516120af6080840182805160ff908116835260209182015116910152565b5060808301516120c460c084018260000b9052565b5060a083015160ff811660e08401525060c08301516101006120ea8185018360ff169052565b60e085015191506101206121028186018460ff169052565b8186015192506101c0915061014082818701526121236101e087018561200e565b9350818701519150610160601f198786030181880152612143858461200e565b9450818801519250610180915061215d8288018415159052565b87015115156101a087015290950151151593019290925250919050565b634e487b7160e01b600052604160045260246000fd5b6040805190810167ffffffffffffffff811182821017156121b3576121b361217a565b60405290565b60405160e0810167ffffffffffffffff811182821017156121b3576121b361217a565b604051610120810167ffffffffffffffff811182821017156121b3576121b361217a565b604051601f8201601f1916810167ffffffffffffffff811182821017156122295761222961217a565b604052919050565b600067ffffffffffffffff82111561224b5761224b61217a565b5060051b60200190565b6000806040838503121561226857600080fd5b8235915060208084013567ffffffffffffffff81111561228757600080fd5b8401601f8101861361229857600080fd5b80356122ab6122a682612231565b612200565b81815260059190911b820183019083810190888311156122ca57600080fd5b928401925b828410156122e8578335825292840192908401906122cf565b80955050505050509250929050565b60ff811681146110fb57600080fd5b60006040828403121561231857600080fd5b612320612190565b9050813561232d816122f7565b8152602082013561233d816122f7565b602082015292915050565b6000806000806000806000610100888a03121561236457600080fd5b8735965060208801359550604088013594506060880135935061238a8960808a01612306565b925060c0880135915060e0880135600681106123a557600080fd5b8091505092959891949750929550565b6000806000608084860312156123ca57600080fd5b6123d48585612306565b95604085013595506060909401359392505050565b600080600080600080600080610100898b03121561240657600080fd5b61240f89611f56565b975061241d60208a01611f56565b965061242b60408a01611f56565b955061243960608a01611f56565b945061244760808a01611f56565b935061245560a08a01611f56565b925061246360c08a01611f56565b915061247160e08a01611f56565b90509295985092959890939650565b6000806040838503121561249357600080fd5b8235915060208301356124a5816122f7565b809150509250929050565b60008060008060008060e087890312156124c957600080fd5b8635955060208701359450604087013593506124e88860608901612306565b925060a0870135915060c087013590509295509295509295565b60006020828403121561251457600080fd5b61050982611f56565b6001600160a01b038c811682528b166020820152604081018a9052610180810161255a606083018b805160ff908116835260209182015116910152565b8860000b60a083015260ff881660c083015260ff871660e083015260ff86166101008301528415156101208301528315156101408301526125a061016083018415159052565b9c9b505050505050505050505050565b634e487b7160e01b600052601160045260246000fd5b818103818111156125d9576125d96125b0565b92915050565b602080825260129082015271139bdd0819d85b595cc818dbdb9d1c9858dd60721b604082015260600190565b634e487b7160e01b600052603260045260246000fd5b8051611f6d816122f7565b8051611f6d81611fae565b6000610140828403121561264a57600080fd5b6126526121b9565b825161265d816122f7565b815260208381015161266e816122f7565b82820152605f8401851361268157600080fd5b6040516080810181811067ffffffffffffffff821117156126a4576126a461217a565b6040528060c08601878111156126b957600080fd5b604087015b818110156126d557805183529184019184016126be565b508260408601526126e58161262c565b6060860152505050506126fa60e0840161262c565b608082015261270c610100840161262c565b60a082015261271e610120840161262c565b60c08201529392505050565b60006001820161273c5761273c6125b0565b5060010190565b634e487b7160e01b600052602160045260246000fd5b600082601f83011261276a57600080fd5b8151602061277a6122a683612231565b82815260069290921b8401810191818101908684111561279957600080fd5b8286015b848110156127e657604081890312156127b65760008081fd5b6127be612190565b8151601781106127ce5760008081fd5b8152818501518582015283529183019160400161279d565b509695505050505050565b60006020828403121561280357600080fd5b815167ffffffffffffffff8082111561281b57600080fd5b9083019060e0828603121561282f57600080fd5b6128376121b9565b825181526128476020840161262c565b602082015261285860408401612621565b604082015261286960608401612621565b606082015260808301518281111561288057600080fd5b61288c87828601612759565b60808301525060a0830151828111156128a457600080fd5b6128b087828601612759565b60a08301525060c0830151828111156128c857600080fd5b6128d487828601612759565b60c08301525095945050505050565b60408101600684106128f7576128f7612743565b9281526020015290565b6000602080838503121561291457600080fd5b825167ffffffffffffffff8082111561292c57600080fd5b818501915085601f83011261294057600080fd5b815161294e6122a682612231565b81815260059190911b8301840190848101908883111561296d57600080fd5b8585015b838110156129a5578051858111156129895760008081fd5b6129978b89838a0101612759565b845250918601918601612971565b5098975050505050505050565b6000602082840312156129c457600080fd5b5051919050565b600081518084526020808501945080840160005b838110156120415781518051601781106129fb576129fb612743565b885283015183880152604090960195908201906001016129df565b84815283602082015260806040820152825160808201526020830151151560a082015260ff60408401511660c082015260006060840151612a5c60e084018260ff169052565b50608084015160e0610100840152612a786101608401826129cb565b905060a0850151607f198085840301610120860152612a9783836129cb565b925060c08701519150808584030161014086015250612ab682826129cb565b9150508281036060840152612acb81856129cb565b979650505050505050565b60ff81811683821601908111156125d9576125d96125b0565b600060ff821660ff8103612b0557612b056125b0565b60010192915050565b8051600081900b8114611f6d57600080fd5b600060e08284031215612b3257600080fd5b612b3a6121b9565b9050612b4582612b0e565b8152612b5360208301612b0e565b6020820152612b6460408301612b0e565b6040820152612b7560608301612b0e565b6060820152612b8660808301612b0e565b6080820152612b9760a08301612b0e565b60a0820152612ba860c08301612b0e565b60c082015292915050565b60006101e08284031215612bc657600080fd5b612bce6121dc565b825181526020830151602082015260408301516040820152612bf38460608501612b20565b6060820152612c056101408401612621565b6080820152612c176101608401612621565b60a0820152612c296101808401612621565b60c0820152612c3b6101a08401612621565b60e0820152612c4d6101c0840161262c565b6101008201529392505050565b600081810b9083900b01607f8113607f19821217156125d9576125d96125b0565b600082810b9082900b03607f198112607f821317156125d9576125d96125b0565b60006020808385031215612caf57600080fd5b825167ffffffffffffffff811115612cc657600080fd5b8301601f81018513612cd757600080fd5b8051612ce56122a682612231565b81815260059190911b82018301908381019087831115612d0457600080fd5b928401925b82841015612acb57835182529284019290840190612d09565b600060208284031215612d3457600080fd5b8151610509816122f7565b600081612d4e57612d4e6125b0565b506000190190565b60008060408385031215612d6957600080fd5b505080516020909101519092909150565b83815260808101612d9e6020830185805160ff908116835260209182015116910152565b826060830152949350505050565b600060608284031215612dbe57600080fd5b6040516060810181811067ffffffffffffffff82111715612de157612de161217a565b6040528251612def816122f7565b81526020830151612dff816122f7565b6020820152604083015160058110612e1657600080fd5b60408201529392505050565b86815260ff8681166020830152851660408201526060810184905260c0810160058410612e5157612e51612743565b608082019390935260a0015294935050505056fea2646970667358221220918d05ebf084ce96ff749b54bb0d2c6b37b3b0e736dc71b1ed214299467ab92764736f6c63430008110033",
  "devdoc": {
    "kind": "dev",
    "methods": {
      "owner()": {
        "details": "Returns the address of the current owner."
      },
      "renounceOwnership()": {
        "details": "Leaves the contract without owner. It will not be possible to call `onlyOwner` functions anymore. Can only be called by the current owner. NOTE: Renouncing ownership will leave the contract without an owner, thereby removing any functionality that is only available to the owner."
      },
      "transferOwnership(address)": {
        "details": "Transfers ownership of the contract to a new account (`newOwner`). Can only be called by the current owner."
      }
    },
    "version": 1
  },
  "userdoc": {
    "kind": "user",
    "methods": {},
    "version": 1
  },
  "storageLayout": {
    "storage": [
      {
        "astId": 7,
        "contract": "contracts/BCPlayers.sol:BCPlayers",
        "label": "_owner",
        "offset": 0,
        "slot": "0",
        "type": "t_address"
      },
      {
        "astId": 10187,
        "contract": "contracts/BCPlayers.sol:BCPlayers",
        "label": "chars",
        "offset": 0,
        "slot": "1",
        "type": "t_contract(CharInterface)10020"
      },
      {
        "astId": 10190,
        "contract": "contracts/BCPlayers.sol:BCPlayers",
        "label": "utils",
        "offset": 0,
        "slot": "2",
        "type": "t_contract(UtilsInterface)10037"
      },
      {
        "astId": 10193,
        "contract": "contracts/BCPlayers.sol:BCPlayers",
        "label": "maps",
        "offset": 0,
        "slot": "3",
        "type": "t_contract(MapInterface)10157"
      },
      {
        "astId": 10196,
        "contract": "contracts/BCPlayers.sol:BCPlayers",
        "label": "bcEvents",
        "offset": 0,
        "slot": "4",
        "type": "t_contract(EventsInterface)9998"
      },
      {
        "astId": 10199,
        "contract": "contracts/BCPlayers.sol:BCPlayers",
        "label": "items",
        "offset": 0,
        "slot": "5",
        "type": "t_contract(ItemsInterface)10171"
      },
      {
        "astId": 10202,
        "contract": "contracts/BCPlayers.sol:BCPlayers",
        "label": "games",
        "offset": 0,
        "slot": "6",
        "type": "t_contract(GamesInterface)10182"
      },
      {
        "astId": 10204,
        "contract": "contracts/BCPlayers.sol:BCPlayers",
        "label": "lobbiesAddress",
        "offset": 0,
        "slot": "7",
        "type": "t_address"
      },
      {
        "astId": 10206,
        "contract": "contracts/BCPlayers.sol:BCPlayers",
        "label": "charsAddress",
        "offset": 0,
        "slot": "8",
        "type": "t_address"
      },
      {
        "astId": 10208,
        "contract": "contracts/BCPlayers.sol:BCPlayers",
        "label": "actionsAddress",
        "offset": 0,
        "slot": "9",
        "type": "t_address"
      },
      {
        "astId": 10288,
        "contract": "contracts/BCPlayers.sol:BCPlayers",
        "label": "StartLocation",
        "offset": 0,
        "slot": "10",
        "type": "t_struct(Position)11510_storage"
      },
      {
        "astId": 10292,
        "contract": "contracts/BCPlayers.sol:BCPlayers",
        "label": "players",
        "offset": 0,
        "slot": "11",
        "type": "t_array(t_struct(Player)11486_storage)dyn_storage"
      }
    ],
    "types": {
      "t_address": {
        "encoding": "inplace",
        "label": "address",
        "numberOfBytes": "20"
      },
      "t_array(t_struct(Player)11486_storage)dyn_storage": {
        "base": "t_struct(Player)11486_storage",
        "encoding": "dynamic_array",
        "label": "struct BCTypes.Player[]",
        "numberOfBytes": "32"
      },
      "t_array(t_uint8)dyn_storage": {
        "base": "t_uint8",
        "encoding": "dynamic_array",
        "label": "uint8[]",
        "numberOfBytes": "32"
      },
      "t_bool": {
        "encoding": "inplace",
        "label": "bool",
        "numberOfBytes": "1"
      },
      "t_contract(CharInterface)10020": {
        "encoding": "inplace",
        "label": "contract CharInterface",
        "numberOfBytes": "20"
      },
      "t_contract(EventsInterface)9998": {
        "encoding": "inplace",
        "label": "contract EventsInterface",
        "numberOfBytes": "20"
      },
      "t_contract(GamesInterface)10182": {
        "encoding": "inplace",
        "label": "contract GamesInterface",
        "numberOfBytes": "20"
      },
      "t_contract(ItemsInterface)10171": {
        "encoding": "inplace",
        "label": "contract ItemsInterface",
        "numberOfBytes": "20"
      },
      "t_contract(MapInterface)10157": {
        "encoding": "inplace",
        "label": "contract MapInterface",
        "numberOfBytes": "20"
      },
      "t_contract(UtilsInterface)10037": {
        "encoding": "inplace",
        "label": "contract UtilsInterface",
        "numberOfBytes": "20"
      },
      "t_int8": {
        "encoding": "inplace",
        "label": "int8",
        "numberOfBytes": "1"
      },
      "t_struct(Player)11486_storage": {
        "encoding": "inplace",
        "label": "struct BCTypes.Player",
        "members": [
          {
            "astId": 11458,
            "contract": "contracts/BCPlayers.sol:BCPlayers",
            "label": "owner",
            "offset": 0,
            "slot": "0",
            "type": "t_address"
          },
          {
            "astId": 11460,
            "contract": "contracts/BCPlayers.sol:BCPlayers",
            "label": "charContractAddress",
            "offset": 0,
            "slot": "1",
            "type": "t_address"
          },
          {
            "astId": 11462,
            "contract": "contracts/BCPlayers.sol:BCPlayers",
            "label": "characterId",
            "offset": 0,
            "slot": "2",
            "type": "t_uint256"
          },
          {
            "astId": 11465,
            "contract": "contracts/BCPlayers.sol:BCPlayers",
            "label": "position",
            "offset": 0,
            "slot": "3",
            "type": "t_struct(Position)11510_storage"
          },
          {
            "astId": 11467,
            "contract": "contracts/BCPlayers.sol:BCPlayers",
            "label": "healthDmgTaken",
            "offset": 0,
            "slot": "4",
            "type": "t_int8"
          },
          {
            "astId": 11469,
            "contract": "contracts/BCPlayers.sol:BCPlayers",
            "label": "armorDmgTaken",
            "offset": 1,
            "slot": "4",
            "type": "t_uint8"
          },
          {
            "astId": 11471,
            "contract": "contracts/BCPlayers.sol:BCPlayers",
            "label": "actionsTaken",
            "offset": 2,
            "slot": "4",
            "type": "t_uint8"
          },
          {
            "astId": 11473,
            "contract": "contracts/BCPlayers.sol:BCPlayers",
            "label": "dataTokens",
            "offset": 3,
            "slot": "4",
            "type": "t_uint8"
          },
          {
            "astId": 11476,
            "contract": "contracts/BCPlayers.sol:BCPlayers",
            "label": "currentEffects",
            "offset": 0,
            "slot": "5",
            "type": "t_array(t_uint8)dyn_storage"
          },
          {
            "astId": 11479,
            "contract": "contracts/BCPlayers.sol:BCPlayers",
            "label": "inventoryIDs",
            "offset": 0,
            "slot": "6",
            "type": "t_array(t_uint8)dyn_storage"
          },
          {
            "astId": 11481,
            "contract": "contracts/BCPlayers.sol:BCPlayers",
            "label": "canHarmOthers",
            "offset": 0,
            "slot": "7",
            "type": "t_bool"
          },
          {
            "astId": 11483,
            "contract": "contracts/BCPlayers.sol:BCPlayers",
            "label": "dead",
            "offset": 1,
            "slot": "7",
            "type": "t_bool"
          },
          {
            "astId": 11485,
            "contract": "contracts/BCPlayers.sol:BCPlayers",
            "label": "hasEgg",
            "offset": 2,
            "slot": "7",
            "type": "t_bool"
          }
        ],
        "numberOfBytes": "256"
      },
      "t_struct(Position)11510_storage": {
        "encoding": "inplace",
        "label": "struct BCTypes.Position",
        "members": [
          {
            "astId": 11507,
            "contract": "contracts/BCPlayers.sol:BCPlayers",
            "label": "row",
            "offset": 0,
            "slot": "0",
            "type": "t_uint8"
          },
          {
            "astId": 11509,
            "contract": "contracts/BCPlayers.sol:BCPlayers",
            "label": "col",
            "offset": 1,
            "slot": "0",
            "type": "t_uint8"
          }
        ],
        "numberOfBytes": "32"
      },
      "t_uint256": {
        "encoding": "inplace",
        "label": "uint256",
        "numberOfBytes": "32"
      },
      "t_uint8": {
        "encoding": "inplace",
        "label": "uint8",
        "numberOfBytes": "1"
      }
    }
  }
}