{
  "address": "0x8cb7774B56E17129D7C86644A74D0DE3110e3074",
  "abi": [
    {
      "inputs": [],
      "stateMutability": "nonpayable",
      "type": "constructor"
    },
    {
      "anonymous": false,
      "inputs": [
        {
          "indexed": false,
          "internalType": "uint256",
          "name": "gameId",
          "type": "uint256"
        },
        {
          "indexed": false,
          "internalType": "uint256",
          "name": "playerId",
          "type": "uint256"
        },
        {
          "components": [
            {
              "internalType": "uint256",
              "name": "id",
              "type": "uint256"
            },
            {
              "internalType": "bool",
              "name": "permanent",
              "type": "bool"
            },
            {
              "internalType": "uint8",
              "name": "rollForLow",
              "type": "uint8"
            },
            {
              "internalType": "uint8",
              "name": "rollForHigh",
              "type": "uint8"
            },
            {
              "components": [
                {
                  "internalType": "enum BCEvents.EffectTypes",
                  "name": "effect",
                  "type": "uint8"
                },
                {
                  "internalType": "uint256",
                  "name": "value",
                  "type": "uint256"
                }
              ],
              "internalType": "struct BCEvents.Effect[]",
              "name": "defaultEffect",
              "type": "tuple[]"
            },
            {
              "components": [
                {
                  "internalType": "enum BCEvents.EffectTypes",
                  "name": "effect",
                  "type": "uint8"
                },
                {
                  "internalType": "uint256",
                  "name": "value",
                  "type": "uint256"
                }
              ],
              "internalType": "struct BCEvents.Effect[]",
              "name": "lowEffect",
              "type": "tuple[]"
            },
            {
              "components": [
                {
                  "internalType": "enum BCEvents.EffectTypes",
                  "name": "effect",
                  "type": "uint8"
                },
                {
                  "internalType": "uint256",
                  "name": "value",
                  "type": "uint256"
                }
              ],
              "internalType": "struct BCEvents.Effect[]",
              "name": "highEffect",
              "type": "tuple[]"
            }
          ],
          "indexed": false,
          "internalType": "struct BCEvents.BCEvent",
          "name": "bcEvent",
          "type": "tuple"
        },
        {
          "components": [
            {
              "internalType": "enum BCEvents.EffectTypes",
              "name": "effect",
              "type": "uint8"
            },
            {
              "internalType": "uint256",
              "name": "value",
              "type": "uint256"
            }
          ],
          "indexed": false,
          "internalType": "struct BCEvents.Effect[]",
          "name": "appliedBCEffects",
          "type": "tuple[]"
        }
      ],
      "name": "EventResolvedEvent",
      "type": "event"
    },
    {
      "anonymous": false,
      "inputs": [
        {
          "indexed": true,
          "internalType": "address",
          "name": "previousOwner",
          "type": "address"
        },
        {
          "indexed": true,
          "internalType": "address",
          "name": "newOwner",
          "type": "address"
        }
      ],
      "name": "OwnershipTransferred",
      "type": "event"
    },
    {
      "inputs": [],
      "name": "StartLocation",
      "outputs": [
        {
          "internalType": "uint8",
          "name": "row",
          "type": "uint8"
        },
        {
          "internalType": "uint8",
          "name": "col",
          "type": "uint8"
        }
      ],
      "stateMutability": "view",
      "type": "function"
    },
    {
      "inputs": [],
      "name": "actionsAddress",
      "outputs": [
        {
          "internalType": "address",
          "name": "",
          "type": "address"
        }
      ],
      "stateMutability": "view",
      "type": "function"
    },
    {
      "inputs": [
        {
          "internalType": "uint256",
          "name": "_charId",
          "type": "uint256"
        },
        {
          "internalType": "address",
          "name": "_owner",
          "type": "address"
        }
      ],
      "name": "addPlayer",
      "outputs": [
        {
          "internalType": "uint256",
          "name": "",
          "type": "uint256"
        }
      ],
      "stateMutability": "nonpayable",
      "type": "function"
    },
    {
      "inputs": [
        {
          "internalType": "uint256",
          "name": "_mapId",
          "type": "uint256"
        },
        {
          "internalType": "uint256[]",
          "name": "_players",
          "type": "uint256[]"
        }
      ],
      "name": "applyHazardDamage",
      "outputs": [],
      "stateMutability": "nonpayable",
      "type": "function"
    },
    {
      "inputs": [],
      "name": "bcEvents",
      "outputs": [
        {
          "internalType": "contract EventsInterface",
          "name": "",
          "type": "address"
        }
      ],
      "stateMutability": "view",
      "type": "function"
    },
    {
      "inputs": [],
      "name": "chars",
      "outputs": [
        {
          "internalType": "contract CharInterface",
          "name": "",
          "type": "address"
        }
      ],
      "stateMutability": "view",
      "type": "function"
    },
    {
      "inputs": [],
      "name": "charsAddress",
      "outputs": [
        {
          "internalType": "address",
          "name": "",
          "type": "address"
        }
      ],
      "stateMutability": "view",
      "type": "function"
    },
    {
      "inputs": [
        {
          "internalType": "uint256",
          "name": "_playerId",
          "type": "uint256"
        },
        {
          "internalType": "uint256",
          "name": "_num",
          "type": "uint256"
        }
      ],
      "name": "decrementNumItemsHeld",
      "outputs": [],
      "stateMutability": "nonpayable",
      "type": "function"
    },
    {
      "inputs": [
        {
          "internalType": "uint256",
          "name": "_playerId",
          "type": "uint256"
        },
        {
          "internalType": "uint256",
          "name": "_gameId",
          "type": "uint256"
        },
        {
          "internalType": "uint256",
          "name": "_mapId",
          "type": "uint256"
        },
        {
          "components": [
            {
              "internalType": "uint8",
              "name": "row",
              "type": "uint8"
            },
            {
              "internalType": "uint8",
              "name": "col",
              "type": "uint8"
            }
          ],
          "internalType": "struct BCTypes.Position",
          "name": "_position",
          "type": "tuple"
        },
        {
          "internalType": "uint256",
          "name": "_eventId",
          "type": "uint256"
        },
        {
          "internalType": "uint256",
          "name": "_effectNum",
          "type": "uint256"
        }
      ],
      "name": "extApplyEffect",
      "outputs": [],
      "stateMutability": "nonpayable",
      "type": "function"
    },
    {
      "inputs": [
        {
          "internalType": "uint256",
          "name": "_choice",
          "type": "uint256"
        },
        {
          "internalType": "uint256",
          "name": "_eventPlayerId",
          "type": "uint256"
        },
        {
          "internalType": "uint256",
          "name": "_gameId",
          "type": "uint256"
        },
        {
          "internalType": "uint256",
          "name": "_mapId",
          "type": "uint256"
        },
        {
          "components": [
            {
              "internalType": "uint8",
              "name": "row",
              "type": "uint8"
            },
            {
              "internalType": "uint8",
              "name": "col",
              "type": "uint8"
            }
          ],
          "internalType": "struct BCTypes.Position",
          "name": "_position",
          "type": "tuple"
        },
        {
          "internalType": "uint256",
          "name": "_eventNumber",
          "type": "uint256"
        },
        {
          "internalType": "enum BCTypes.BCEventType",
          "name": "_eventType",
          "type": "uint8"
        }
      ],
      "name": "extChooseEffect",
      "outputs": [],
      "stateMutability": "nonpayable",
      "type": "function"
    },
    {
      "inputs": [
        {
          "internalType": "uint256",
          "name": "_id",
          "type": "uint256"
        }
      ],
      "name": "extGetPlayer",
      "outputs": [
        {
          "components": [
            {
              "internalType": "address",
              "name": "owner",
              "type": "address"
            },
            {
              "internalType": "uint256",
              "name": "characterId",
              "type": "uint256"
            },
            {
              "components": [
                {
                  "internalType": "int8",
                  "name": "health",
                  "type": "int8"
                },
                {
                  "internalType": "int8",
                  "name": "carry",
                  "type": "int8"
                },
                {
                  "internalType": "int8",
                  "name": "defense",
                  "type": "int8"
                },
                {
                  "internalType": "int8",
                  "name": "hack",
                  "type": "int8"
                },
                {
                  "internalType": "int8",
                  "name": "breach",
                  "type": "int8"
                },
                {
                  "internalType": "int8",
                  "name": "shoot",
                  "type": "int8"
                },
                {
                  "internalType": "int8",
                  "name": "melee",
                  "type": "int8"
                }
              ],
              "internalType": "struct BCTypes.Traits",
              "name": "currentTraits",
              "type": "tuple"
            },
            {
              "components": [
                {
                  "internalType": "uint8",
                  "name": "row",
                  "type": "uint8"
                },
                {
                  "internalType": "uint8",
                  "name": "col",
                  "type": "uint8"
                }
              ],
              "internalType": "struct BCTypes.Position",
              "name": "position",
              "type": "tuple"
            },
            {
              "internalType": "int8",
              "name": "healthDmgTaken",
              "type": "int8"
            },
            {
              "internalType": "uint8",
              "name": "armorDmgTaken",
              "type": "uint8"
            },
            {
              "internalType": "uint8",
              "name": "actionsTaken",
              "type": "uint8"
            },
            {
              "internalType": "uint8",
              "name": "dataTokens",
              "type": "uint8"
            },
            {
              "internalType": "uint8[]",
              "name": "currentEffects",
              "type": "uint8[]"
            },
            {
              "internalType": "uint8",
              "name": "numItemsHeld",
              "type": "uint8"
            },
            {
              "internalType": "bool",
              "name": "canHarmOthers",
              "type": "bool"
            },
            {
              "internalType": "bool",
              "name": "dead",
              "type": "bool"
            },
            {
              "internalType": "bool",
              "name": "hasEgg",
              "type": "bool"
            },
            {
              "internalType": "uint256",
              "name": "gameId",
              "type": "uint256"
            }
          ],
          "internalType": "struct BCTypes.Player",
          "name": "",
          "type": "tuple"
        }
      ],
      "stateMutability": "view",
      "type": "function"
    },
    {
      "inputs": [
        {
          "internalType": "uint256",
          "name": "_id",
          "type": "uint256"
        }
      ],
      "name": "extGetPlayerOwner",
      "outputs": [
        {
          "internalType": "address",
          "name": "",
          "type": "address"
        }
      ],
      "stateMutability": "view",
      "type": "function"
    },
    {
      "inputs": [
        {
          "internalType": "uint256",
          "name": "_playerId",
          "type": "uint256"
        },
        {
          "internalType": "uint256",
          "name": "_amount",
          "type": "uint256"
        },
        {
          "internalType": "bool",
          "name": "_hazard",
          "type": "bool"
        }
      ],
      "name": "extHurtPlayer",
      "outputs": [],
      "stateMutability": "nonpayable",
      "type": "function"
    },
    {
      "inputs": [
        {
          "components": [
            {
              "internalType": "uint8",
              "name": "row",
              "type": "uint8"
            },
            {
              "internalType": "uint8",
              "name": "col",
              "type": "uint8"
            }
          ],
          "internalType": "struct BCTypes.Position",
          "name": "_position",
          "type": "tuple"
        },
        {
          "internalType": "uint256",
          "name": "_playerId",
          "type": "uint256"
        },
        {
          "internalType": "uint256",
          "name": "_mapId",
          "type": "uint256"
        }
      ],
      "name": "extMovePlayer",
      "outputs": [
        {
          "internalType": "bool",
          "name": "",
          "type": "bool"
        }
      ],
      "stateMutability": "nonpayable",
      "type": "function"
    },
    {
      "inputs": [],
      "name": "games",
      "outputs": [
        {
          "internalType": "contract GamesInterface",
          "name": "",
          "type": "address"
        }
      ],
      "stateMutability": "view",
      "type": "function"
    },
    {
      "inputs": [
        {
          "internalType": "uint256",
          "name": "_playerId",
          "type": "uint256"
        },
        {
          "internalType": "uint8",
          "name": "_amount",
          "type": "uint8"
        }
      ],
      "name": "grantDataToPlayer",
      "outputs": [],
      "stateMutability": "nonpayable",
      "type": "function"
    },
    {
      "inputs": [
        {
          "internalType": "uint256",
          "name": "_playerId",
          "type": "uint256"
        },
        {
          "internalType": "uint256",
          "name": "_num",
          "type": "uint256"
        }
      ],
      "name": "incrementNumItemsHeld",
      "outputs": [],
      "stateMutability": "nonpayable",
      "type": "function"
    },
    {
      "inputs": [
        {
          "internalType": "uint256",
          "name": "_playerId",
          "type": "uint256"
        }
      ],
      "name": "incrementPlayerActions",
      "outputs": [],
      "stateMutability": "nonpayable",
      "type": "function"
    },
    {
      "inputs": [],
      "name": "items",
      "outputs": [
        {
          "internalType": "contract ItemsInterface",
          "name": "",
          "type": "address"
        }
      ],
      "stateMutability": "view",
      "type": "function"
    },
    {
      "inputs": [],
      "name": "lobbiesAddress",
      "outputs": [
        {
          "internalType": "address",
          "name": "",
          "type": "address"
        }
      ],
      "stateMutability": "view",
      "type": "function"
    },
    {
      "inputs": [],
      "name": "maps",
      "outputs": [
        {
          "internalType": "contract MapInterface",
          "name": "",
          "type": "address"
        }
      ],
      "stateMutability": "view",
      "type": "function"
    },
    {
      "inputs": [],
      "name": "owner",
      "outputs": [
        {
          "internalType": "address",
          "name": "",
          "type": "address"
        }
      ],
      "stateMutability": "view",
      "type": "function"
    },
    {
      "inputs": [
        {
          "internalType": "uint256",
          "name": "",
          "type": "uint256"
        }
      ],
      "name": "players",
      "outputs": [
        {
          "internalType": "address",
          "name": "owner",
          "type": "address"
        },
        {
          "internalType": "uint256",
          "name": "characterId",
          "type": "uint256"
        },
        {
          "components": [
            {
              "internalType": "int8",
              "name": "health",
              "type": "int8"
            },
            {
              "internalType": "int8",
              "name": "carry",
              "type": "int8"
            },
            {
              "internalType": "int8",
              "name": "defense",
              "type": "int8"
            },
            {
              "internalType": "int8",
              "name": "hack",
              "type": "int8"
            },
            {
              "internalType": "int8",
              "name": "breach",
              "type": "int8"
            },
            {
              "internalType": "int8",
              "name": "shoot",
              "type": "int8"
            },
            {
              "internalType": "int8",
              "name": "melee",
              "type": "int8"
            }
          ],
          "internalType": "struct BCTypes.Traits",
          "name": "currentTraits",
          "type": "tuple"
        },
        {
          "components": [
            {
              "internalType": "uint8",
              "name": "row",
              "type": "uint8"
            },
            {
              "internalType": "uint8",
              "name": "col",
              "type": "uint8"
            }
          ],
          "internalType": "struct BCTypes.Position",
          "name": "position",
          "type": "tuple"
        },
        {
          "internalType": "int8",
          "name": "healthDmgTaken",
          "type": "int8"
        },
        {
          "internalType": "uint8",
          "name": "armorDmgTaken",
          "type": "uint8"
        },
        {
          "internalType": "uint8",
          "name": "actionsTaken",
          "type": "uint8"
        },
        {
          "internalType": "uint8",
          "name": "dataTokens",
          "type": "uint8"
        },
        {
          "internalType": "uint8",
          "name": "numItemsHeld",
          "type": "uint8"
        },
        {
          "internalType": "bool",
          "name": "canHarmOthers",
          "type": "bool"
        },
        {
          "internalType": "bool",
          "name": "dead",
          "type": "bool"
        },
        {
          "internalType": "bool",
          "name": "hasEgg",
          "type": "bool"
        },
        {
          "internalType": "uint256",
          "name": "gameId",
          "type": "uint256"
        }
      ],
      "stateMutability": "view",
      "type": "function"
    },
    {
      "inputs": [],
      "name": "renounceOwnership",
      "outputs": [],
      "stateMutability": "nonpayable",
      "type": "function"
    },
    {
      "inputs": [
        {
          "internalType": "uint256",
          "name": "_playerId",
          "type": "uint256"
        }
      ],
      "name": "resetPlayerActions",
      "outputs": [],
      "stateMutability": "nonpayable",
      "type": "function"
    },
    {
      "inputs": [
        {
          "internalType": "address",
          "name": "_charAddress",
          "type": "address"
        },
        {
          "internalType": "address",
          "name": "_utilsAddress",
          "type": "address"
        },
        {
          "internalType": "address",
          "name": "_mapsAddress",
          "type": "address"
        },
        {
          "internalType": "address",
          "name": "_lobbiesAddress",
          "type": "address"
        },
        {
          "internalType": "address",
          "name": "_actionsAddress",
          "type": "address"
        },
        {
          "internalType": "address",
          "name": "_eventsAddress",
          "type": "address"
        },
        {
          "internalType": "address",
          "name": "_itemsAddress",
          "type": "address"
        },
        {
          "internalType": "address",
          "name": "_gamesAddress",
          "type": "address"
        }
      ],
      "name": "setContractAddresses",
      "outputs": [],
      "stateMutability": "nonpayable",
      "type": "function"
    },
    {
      "inputs": [
        {
          "internalType": "address",
          "name": "newOwner",
          "type": "address"
        }
      ],
      "name": "transferOwnership",
      "outputs": [],
      "stateMutability": "nonpayable",
      "type": "function"
    },
    {
      "inputs": [
        {
          "internalType": "uint256",
          "name": "_charId",
          "type": "uint256"
        },
        {
          "internalType": "uint256",
          "name": "_playerId",
          "type": "uint256"
        }
      ],
      "name": "updatePlayerTraits",
      "outputs": [],
      "stateMutability": "nonpayable",
      "type": "function"
    },
    {
      "inputs": [],
      "name": "utils",
      "outputs": [
        {
          "internalType": "contract UtilsInterface",
          "name": "",
          "type": "address"
        }
      ],
      "stateMutability": "view",
      "type": "function"
    }
  ],
  "transactionHash": "0x4b6c9c8d2f54c4e33679a48290cf6540629c62ab600aaa4ce68b997184fbd014",
  "args": [],
  "numDeployments": 1,
  "solcInputHash": "83a9a68576a41548aedeabb90c8fba9e",
  "bytecode": "0x60c0604052600a6080819052600660a052805461ffff191661060a1790553480156200002a57600080fd5b5062000036336200003c565b6200008c565b600080546001600160a01b038381166001600160a01b0319831681178455604051919092169283917f8be0079c531659141344cd1fd0a4f28419497f9722a3daafe3b4186f6b6457e09190a35050565b6134c9806200009c6000396000f3fe608060405234801561001057600080fd5b50600436106101cf5760003560e01c80638d491b3e11610104578063ce932297116100a2578063f2fde38b11610071578063f2fde38b14610409578063f71d96cb1461041c578063f96f55d014610448578063fe23e2df1461045b57600080fd5b8063ce93229714610392578063d6419349146103a5578063dc769ee8146103c6578063ed861961146103f657600080fd5b8063955a015b116100de578063955a015b146103465780639fca1ee114610359578063b69071941461036c578063c06fad061461037f57600080fd5b80638d491b3e146102ff5780638da5cb5b14610322578063921d27991461033357600080fd5b806365c363f0116101715780636d291bbb1161014b5780636d291bbb146102be578063715018a6146102d15780637b45c0d4146102d95780637ddae103146102ec57600080fd5b806365c363f0146102855780636621a42114610298578063668a7f3b146102ab57600080fd5b8063336d7d7b116101ad578063336d7d7b14610239578063351dacdf1461024c5780633deaec2b1461025f5780635a29638d1461027257600080fd5b80630dd0f588146101d457806310a2cd0d146101e957806310f67fb314610219575b600080fd5b6101e76101e23660046124b7565b61046e565b005b6001546101fc906001600160a01b031681565b6040516001600160a01b0390911681526020015b60405180910390f35b61022c6102273660046124f0565b6104b1565b604051610210919061259e565b6007546101fc906001600160a01b031681565b6101e761025a3660046126b8565b610696565b6003546101fc906001600160a01b031681565b6002546101fc906001600160a01b031681565b6101e76102933660046124f0565b6106eb565b6101fc6102a63660046124f0565b610743565b6101e76102b93660046127b5565b610778565b6101e76102cc3660046128a8565b6108cd565b6101e7610d1c565b6009546101fc906001600160a01b031681565b6004546101fc906001600160a01b031681565b61031261030d366004612915565b610d30565b6040519015158152602001610210565b6000546001600160a01b03166101fc565b6101e7610341366004612965565b610e5d565b6006546101fc906001600160a01b031681565b6008546101fc906001600160a01b031681565b6101e761037a3660046129fc565b610ef3565b6005546101fc906001600160a01b031681565b6101e76103a03660046124f0565b610f84565b6103b86103b3366004612a2c565b610ff4565b604051908152602001610210565b600a546103dc9060ff8082169161010090041682565b6040805160ff938416815292909116602083015201610210565b6101e7610404366004612a58565b6110eb565b6101e7610417366004612aaa565b6111e7565b61042f61042a3660046124f0565b611260565b6040516102109d9c9b9a99989796959493929190612ac5565b6101e76104563660046126b8565b611366565b6101e76104693660046126b8565b6115e5565b6006546001600160a01b031633146104a15760405162461bcd60e51b815260040161049890612b6a565b60405180910390fd5b6104ac83838361161e565b505050565b6104b96123e2565b600b82815481106104cc576104cc612b96565b60009182526020808320604080516101c081018252600890940290910180546001600160a01b03168452600181015484840152815160e08082018452600283015480880b8352610100808204890b84880152620100008083048a0b8588015263010000008084048b0b60608088019190915264010000000085048c0b6080808901919091526501000000000086048d0b60a0808a0191909152600160301b9096048d0b60c0808a01919091528c8b01989098528951808b018b5260038a015460ff8082168352908790048116828e0152928d015260048901549c8d900b908c0152838c048116948b0194909452908a048316948901949094529290970490961695850195909552600581018054835181860281018601909452808452949591949186019390919083018282801561064057602002820191906000526020600020906000905b825461010083900a900460ff168152602060019283018181049485019490930390920291018084116106115790505b5050509183525050600682015460ff808216602084015261010082048116151560408401526201000082048116151560608401526301000000909104161515608082015260079091015460a09091015292915050565b80600b83815481106106aa576106aa612b96565b60009182526020822060066008909202010180549091906106cf90849060ff16612bc2565b92506101000a81548160ff021916908360ff1602179055505050565b6006546001600160a01b0316331461070257600080fd5b6000600b828154811061071757610717612b96565b906000526020600020906008020160040160026101000a81548160ff021916908360ff16021790555050565b6000600b828154811061075857610758612b96565b60009182526020909120600890910201546001600160a01b031692915050565b6006546001600160a01b031633146107a25760405162461bcd60e51b815260040161049890612b6a565b60005b600182516107b39190612bdb565b81116104ac576000600b8383815181106107cf576107cf612b96565b6020026020010151815481106107e7576107e7612b96565b600091825260208220600380546008939093029091019081015460405163f9dfbfcb60e01b81526004810189905260ff808316602483015261010090920490911660448201529093506001600160a01b039091169063f9dfbfcb9060640161014060405180830381865afa158015610863573d6000803e3d6000fd5b505050506040513d601f19601f820116820180604052508101906108879190612c04565b90508060c00151156108b8576108b88484815181106108a8576108a8612b96565b602002602001015160018061161e565b505080806108c590612cf7565b9150506107a5565b6006546001600160a01b031633146108f75760405162461bcd60e51b815260040161049890612b6a565b61093f6040518060e0016040528060008152602001600015158152602001600060ff168152602001600060ff1681526020016060815260200160608152602001606081525090565b600582600581111561095357610953612d10565b036109ce576004805460405163c82c37b960e01b81529182018590526001600160a01b03169063c82c37b990602401600060405180830381865afa15801561099f573d6000803e3d6000fd5b505050506040513d6000823e601f3d908101601f191682016040526109c79190810190612dbe565b9050610a47565b6004805460405163e4dc1a8360e01b81526001600160a01b039091169163e4dc1a83916109ff918791879101612ec4565b600060405180830381865afa158015610a1c573d6000803e3d6000fd5b505050506040513d6000823e601f3d908101601f19168201604052610a449190810190612dbe565b90505b600480546040516336772a9360e21b81526000926001600160a01b039092169163d9dcaa4c91610a7b918791899101612ed8565b600060405180830381865afa158015610a98573d6000803e3d6000fd5b505050506040513d6000823e601f3d908101601f19168201604052610ac09190810190612ef3565b9050816040015160ff166000148015610ade5750606082015160ff16155b15610b5457610b0a8888888885600081518110610afd57610afd612b96565b6020026020010151611720565b60008051602061347483398151915287898484600081518110610b2f57610b2f612b96565b6020026020010151604051610b479493929190612fef565b60405180910390a1610d11565b6002546040516301f7b4f360e41b8152600481018990526000916001600160a01b031690631f7b4f30906024016020604051808303816000875af1158015610ba0573d6000803e3d6000fd5b505050506040513d601f19601f82011682018060405250810190610bc491906130af565b9050826040015160ff16600014158015610be55750826040015160ff168111155b15610c4e57610c048989898986600181518110610afd57610afd612b96565b600080516020613474833981519152888a8585600181518110610c2957610c29612b96565b6020026020010151604051610c419493929190612fef565b60405180910390a1610d0f565b606083015160ff1615801590610c6b5750826060015160ff168110155b15610caf57610c8a8989898986600281518110610afd57610afd612b96565b600080516020613474833981519152888a8585600281518110610c2957610c29612b96565b610cc98989898986600081518110610afd57610afd612b96565b600080516020613474833981519152888a8585600081518110610cee57610cee612b96565b6020026020010151604051610d069493929190612fef565b60405180910390a15b505b505050505050505050565b610d2461221e565b610d2e6000612278565b565b6006546000906001600160a01b03163314610d5d5760405162461bcd60e51b815260040161049890612b6a565b83600b8481548110610d7157610d71612b96565b60009182526020808320845160036008909402909101830180549583015160ff9081166101000261ffff19909716921691909117949094179093555486519287015160405163f9dfbfcb60e01b815292936001600160a01b039092169263f9dfbfcb92610df692889260040192835260ff918216602084015216604082015260600190565b61014060405180830381865afa158015610e14573d6000803e3d6000fd5b505050506040513d601f19601f82011682018060405250810190610e389190612c04565b5160ff1603610e5257610e4a836122c8565b506001610e56565b5060005b9392505050565b610e6561221e565b600180546001600160a01b03199081166001600160a01b039a8b1617909155600280548216988a1698909817909755600380548816968916969096179095556007805487169488169490941790935560098054861692871692909217909155600480548516918616919091179055600580548416918516919091179055600680549092169216919091179055565b6009546001600160a01b03163314610f445760405162461bcd60e51b8152602060048201526014602482015273139bdd081858dd1a5bdb9cc818dbdb9d1c9858dd60621b6044820152606401610498565b80600b8381548110610f5857610f58612b96565b906000526020600020906008020160040160038282829054906101000a900460ff166106cf91906130c8565b6006546001600160a01b03163314610f9b57600080fd5b600b8181548110610fae57610fae612b96565b60009182526020909120600890910201600401805462010000900460ff16906002610fd8836130e1565b91906101000a81548160ff021916908360ff1602179055505050565b6007546000906001600160a01b031633146110465760405162461bcd60e51b8152602060048201526012602482015271139bdd081b1bd8989e4818dbdb9d1c9858dd60721b6044820152606401610498565b600b805460018181018355600083905260089091027f0175b7a638427703f0dbe7bb9bbf987a2551717b34e79f33b5b1008d1fa01db9810180546001600160a01b0387166001600160a01b03199091161781557f0175b7a638427703f0dbe7bb9bbf987a2551717b34e79f33b5b1008d1fa01dba90910186905591546110d29186916104569190612bdb565b600b546110e190600190612bdb565b9150505b92915050565b6009546001600160a01b0316331461113c5760405162461bcd60e51b8152602060048201526014602482015273139bdd081858dd1a5bdb9cc818dbdb9d1c9858dd60621b6044820152606401610498565b600480546040516336772a9360e21b81526000926001600160a01b039092169163d9dcaa4c9161117191600591889101612ed8565b600060405180830381865afa15801561118e573d6000803e3d6000fd5b505050506040513d6000823e601f3d908101601f191682016040526111b69190810190612ef3565b82815181106111c7576111c7612b96565b602002602001015190506111de8787878785611720565b50505050505050565b6111ef61221e565b6001600160a01b0381166112545760405162461bcd60e51b815260206004820152602660248201527f4f776e61626c653a206e6577206f776e657220697320746865207a65726f206160448201526564647265737360d01b6064820152608401610498565b61125d81612278565b50565b600b818154811061127057600080fd5b600091825260208083206008909202909101805460018201546040805160e081018252600285015480880b8252610100808204890b83890152620100008083048a0b8486015263010000008084048b0b606086015264010000000084048b0b60808601526501000000000084048b0b60a0860152600160301b9093048a0b60c08501528451808601909552600388015460ff808216875290839004811699860199909952600488015460068901546007909901546001600160a01b039098169b509599939894979386900b968287048616968281048716969085900481169580821695948104821694938104821693900416908d565b600154604051634810bc5960e01b8152600481018490526000916001600160a01b031690634810bc59906024016101e060405180830381865afa1580156113b1573d6000803e3d6000fd5b505050506040513d601f19601f820116820180604052508101906113d591906131a5565b606001516005546040516347ef26b160e01b8152600481018590529192506000916001600160a01b03909116906347ef26b19060240160e060405180830381865afa158015611428573d6000803e3d6000fd5b505050506040513d601f19601f8201168201806040525081019061144c919061324c565b90506000600b848154811061146357611463612b96565b90600052602060002090600802019050816000015183600001516114879190613268565b60028201805460ff191660ff92909216919091179055602082810151908401516114b19190613268565b60028201805460ff929092166101000261ff0019909216919091179055604080830151908401516114e29190613268565b60028201805460ff92909216620100000262ff000019909216919091179055606080830151908401516115159190613268565b60028201805460ff9290921663010000000263ff000000199092169190911790556080808301519084015161154a9190613268565b60028201805460ff929092166401000000000264ff000000001990921691909117905560a080830151908401516115819190613268565b60028201805460ff92909216650100000000000265ff00000000001990921691909117905560c080830151908401516115ba9190613268565b6002909101805460ff92909216600160301b0266ff0000000000001990921691909117905550505050565b80600b83815481106115f9576115f9612b96565b60009182526020822060066008909202010180549091906106cf90849060ff166130c8565b6000600b848154811061163357611633612b96565b60009182526020822060018054600890930290910190810154604051634810bc5960e01b81529194506001600160a01b0390921691634810bc599161167f919060040190815260200190565b6101e060405180830381865afa15801561169d573d6000803e3d6000fd5b505050506040513d601f19601f820116820180604052508101906116c191906131a5565b60048301805491925085916000906116dc908490830b613268565b825460ff9182166101009390930a9283029190920219909116179055506060810151516004830154600091820b910b1261171957611719856122c8565b5050505050565b60005b8151811015612216576000600b878154811061174157611741612b96565b600091825260209091206008909102019050600183838151811061176757611767612b96565b602002602001015160000151601681111561178457611784612d10565b5050600283838151811061179a5761179a612b96565b60200260200101516000015160168111156117b7576117b7612d10565b036117fd578282815181106117ce576117ce612b96565b60200260200101516020015160006117e69190613289565b60048201805460ff191660ff929092169190911790555b600383838151811061181157611811612b96565b602002602001015160000151601681111561182e5761182e612d10565b0361183c5761183c876122c8565b600483838151811061185057611850612b96565b602002602001015160000151601681111561186d5761186d612d10565b036118f05760035484516020860151604051637f1b46bd60e11b81526004810189905260ff928316602482015291166044820152600160648201526001600160a01b039091169063fe368d7a90608401600060405180830381600087803b1580156118d757600080fd5b505af11580156118eb573d6000803e3d6000fd5b505050505b600583838151811061190457611904612b96565b602002602001015160000151601681111561192157611921612d10565b5050600683838151811061193757611937612b96565b602002602001015160000151601681111561195457611954612d10565b036119c95782828151811061196b5761196b612b96565b602090810291909101810151015160048201805460009061198f908490830b613289565b825460ff9182166101009390930a9283029190920219909116179055506004810154600090810b12156119c95760048101805460ff191690555b60078383815181106119dd576119dd612b96565b60200260200101516000015160168111156119fa576119fa612d10565b50506008838381518110611a1057611a10612b96565b6020026020010151600001516016811115611a2d57611a2d612d10565b03611a5b57611a5b87848481518110611a4857611a48612b96565b602002602001015160200151600161161e565b6009838381518110611a6f57611a6f612b96565b6020026020010151600001516016811115611a8c57611a8c612d10565b03611aba57611aba87848481518110611aa757611aa7612b96565b602002602001015160200151600061161e565b600b838381518110611ace57611ace612b96565b6020026020010151600001516016811115611aeb57611aeb612d10565b5050600d838381518110611b0157611b01612b96565b6020026020010151600001516016811115611b1e57611b1e612d10565b03611b4a57611b4a87848481518110611b3957611b39612b96565b602002602001015160200151610ef3565b600e838381518110611b5e57611b5e612b96565b6020026020010151600001516016811115611b7b57611b7b612d10565b5050600f838381518110611b9157611b91612b96565b6020026020010151600001516016811115611bae57611bae612d10565b03611e34576000838381518110611bc757611bc7612b96565b6020908102919091018101510151600554604051633841fae160e01b8152600481018b90529192506000916001600160a01b0390911690633841fae190602401600060405180830381865afa158015611c24573d6000803e3d6000fd5b505050506040513d6000823e601f3d908101601f19168201604052611c4c91908101906132aa565b805190915015611e3157600060018251611c669190612bdb565b90505b8015611d715760025460405163ce28613f60e01b815260006004820181905260ff84166024830152916001600160a01b03169063ce28613f906044016020604051808303816000875af1158015611cc4573d6000803e3d6000fd5b505050506040513d601f19601f82011682018060405250810190611ce89190613330565b9050828160ff1681518110611cff57611cff612b96565b6020026020010151838381518110611d1957611d19612b96565b6020026020010151848481518110611d3357611d33612b96565b60200260200101858460ff1681518110611d4f57611d4f612b96565b6020908102919091010191909152525080611d698161334d565b915050611c69565b5060005b8151851015611e2f5760055482516001600160a01b0390911690635f09c782908c90859085908110611da957611da9612b96565b60200260200101516040518363ffffffff1660e01b8152600401611dd7929190918252602082015260400190565b600060405180830381600087803b158015611df157600080fd5b505af1158015611e05573d6000803e3d6000fd5b505050508280611e149061334d565b9350508215611e2f5780611e2781612cf7565b915050611d75565b505b50505b6011838381518110611e4857611e48612b96565b6020026020010151600001516016811115611e6557611e65612d10565b03611f82576005838381518110611e7e57611e7e612b96565b60200260200101516020015103611f8257600354604051632fc4a8f360e11b81526004810187905260009182916001600160a01b0390911690635f8951e6906024016040805180830381865afa158015611edc573d6000803e3d6000fd5b505050506040513d601f19601f82011682018060405250810190611f009190613364565b60065460408051808201825260ff8086168252841660208201529051631751422560e01b81529395509193506001600160a01b031691631751422591611f4d918c91908e90600401613388565b600060405180830381600087803b158015611f6757600080fd5b505af1158015611f7b573d6000803e3d6000fd5b5050505050505b6012838381518110611f9657611f96612b96565b6020026020010151600001516016811115611fb357611fb3612d10565b50506013838381518110611fc957611fc9612b96565b6020026020010151600001516016811115611fe657611fe6612d10565b50506015838381518110611ffc57611ffc612b96565b602002602001015160000151601681111561201957612019612d10565b036121d05760005b60048110156121ce5760035485516020870151604051630dd43b9b60e31b8152600481018a905260ff928316602482015291166044820152606481018390526000916001600160a01b031690636ea1dcd890608401606060405180830381865afa158015612093573d6000803e3d6000fd5b505050506040513d601f19601f820116820180604052508101906120b791906133ba565b90506001816040015160048111156120d1576120d1612d10565b14806120f257506002816040015160048111156120f0576120f0612d10565b145b80612112575060038160400151600481111561211057612110612d10565b145b156121bb57600360009054906101000a90046001600160a01b03166001600160a01b0316635921522388886000015189602001518660018b8b8151811061215b5761215b612b96565b6020026020010151602001516040518763ffffffff1660e01b815260040161218896959493929190613430565b600060405180830381600087803b1580156121a257600080fd5b505af11580156121b6573d6000803e3d6000fd5b505050505b50806121c681612cf7565b915050612021565b505b60148383815181106121e4576121e4612b96565b602002602001015160000151601681111561220157612201612d10565b5050508061220e81612cf7565b915050611723565b505050505050565b6000546001600160a01b03163314610d2e5760405162461bcd60e51b815260206004820181905260248201527f4f776e61626c653a2063616c6c6572206973206e6f7420746865206f776e65726044820152606401610498565b600080546001600160a01b038381166001600160a01b0319831681178455604051919092169283917f8be0079c531659141344cd1fd0a4f28419497f9722a3daafe3b4186f6b6457e09190a35050565b6000600b82815481106122dd576122dd612b96565b6000918252602090912060089091020160048101805460ff19169055600154600b80549293506001600160a01b0390911691636d6ba75691908590811061232657612326612b96565b9060005260206000209060080201600101546040518263ffffffff1660e01b815260040161235691815260200190565b600060405180830381600087803b15801561237057600080fd5b505af1158015612384573d6000803e3d6000fd5b50505050600a600b838154811061239d5761239d612b96565b600091825260209091208254600890920201600301805460ff92831660ff19821681178355935461ffff19909116909317610100938490049092169092021790555050565b604080516101c08101825260008082526020808301829052835160e081018552828152908101829052808401829052606081018290526080810182905260a0810182905260c08101919091529091820190815260200161245b6040518060400160405280600060ff168152602001600060ff1681525090565b81526000602082018190526040820181905260608083018290526080830182905260a083015260c0820181905260e08201819052610100820181905261012082018190526101409091015290565b801515811461125d57600080fd5b6000806000606084860312156124cc57600080fd5b833592506020840135915060408401356124e5816124a9565b809150509250925092565b60006020828403121561250257600080fd5b5035919050565b8051600081810b84526020830151810b60208501526040830151810b60408501526060830151810b60608501526080830151810b608085015260a0830151810b60a085015260c0830151810b60c085015250505050565b600081518084526020808501945080840160005b8381101561259357815160ff1687529582019590820190600101612574565b509495945050505050565b602081526125b86020820183516001600160a01b03169052565b60208201516040820152600060408301516125d66060840182612509565b5060608301516101406125fb81850183805160ff908116835260209182015116910152565b608085015191506101806126138186018460000b9052565b60a086015192506101a061262b8187018560ff169052565b60c087015160ff9081166101c088015260e0880151166101e08701526101008701516102a061020088018190529094506126696102c0880186612560565b945061012088015161268161022089018260ff169052565b5092870151151561024087015261016087015115156102608701529086015115156102808601529094015192909301919091525090565b600080604083850312156126cb57600080fd5b50508035926020909101359150565b634e487b7160e01b600052604160045260246000fd5b6040805190810167ffffffffffffffff81118282101715612713576127136126da565b60405290565b60405160e0810167ffffffffffffffff81118282101715612713576127136126da565b604051610120810167ffffffffffffffff81118282101715612713576127136126da565b604051601f8201601f1916810167ffffffffffffffff81118282101715612789576127896126da565b604052919050565b600067ffffffffffffffff8211156127ab576127ab6126da565b5060051b60200190565b600080604083850312156127c857600080fd5b8235915060208084013567ffffffffffffffff8111156127e757600080fd5b8401601f810186136127f857600080fd5b803561280b61280682612791565b612760565b81815260059190911b8201830190838101908883111561282a57600080fd5b928401925b828410156128485783358252928401929084019061282f565b80955050505050509250929050565b60ff8116811461125d57600080fd5b60006040828403121561287857600080fd5b6128806126f0565b9050813561288d81612857565b8152602082013561289d81612857565b602082015292915050565b6000806000806000806000610100888a0312156128c457600080fd5b873596506020880135955060408801359450606088013593506128ea8960808a01612866565b925060c0880135915060e08801356006811061290557600080fd5b8091505092959891949750929550565b60008060006080848603121561292a57600080fd5b6129348585612866565b95604085013595506060909401359392505050565b80356001600160a01b038116811461296057600080fd5b919050565b600080600080600080600080610100898b03121561298257600080fd5b61298b89612949565b975061299960208a01612949565b96506129a760408a01612949565b95506129b560608a01612949565b94506129c360808a01612949565b93506129d160a08a01612949565b92506129df60c08a01612949565b91506129ed60e08a01612949565b90509295985092959890939650565b60008060408385031215612a0f57600080fd5b823591506020830135612a2181612857565b809150509250929050565b60008060408385031215612a3f57600080fd5b82359150612a4f60208401612949565b90509250929050565b60008060008060008060e08789031215612a7157600080fd5b863595506020870135945060408701359350612a908860608901612866565b925060a0870135915060c087013590509295509295509295565b600060208284031215612abc57600080fd5b610e5682612949565b6001600160a01b038e168152602081018d90526102808101612aea604083018e612509565b8b5160ff90811661012084015260208d0151166101408301528a60000b61016083015260ff8a1661018083015260ff89166101a083015260ff88166101c0830152612b3b6101e083018860ff169052565b941515610200820152921515610220840152901515610240830152610260909101529998505050505050505050565b602080825260129082015271139bdd0819d85b595cc818dbdb9d1c9858dd60721b604082015260600190565b634e487b7160e01b600052603260045260246000fd5b634e487b7160e01b600052601160045260246000fd5b60ff82811682821603908111156110e5576110e5612bac565b818103818111156110e5576110e5612bac565b805161296081612857565b8051612960816124a9565b60006101408284031215612c1757600080fd5b612c1f612719565b8251612c2a81612857565b8152602083810151612c3b81612857565b82820152605f84018513612c4e57600080fd5b6040516080810181811067ffffffffffffffff82111715612c7157612c716126da565b6040528060c0860187811115612c8657600080fd5b604087015b81811015612ca25780518352918401918401612c8b565b50826040860152612cb281612bf9565b606086015250505050612cc760e08401612bf9565b6080820152612cd96101008401612bf9565b60a0820152612ceb6101208401612bf9565b60c08201529392505050565b600060018201612d0957612d09612bac565b5060010190565b634e487b7160e01b600052602160045260246000fd5b600082601f830112612d3757600080fd5b81516020612d4761280683612791565b82815260069290921b84018101918181019086841115612d6657600080fd5b8286015b84811015612db35760408189031215612d835760008081fd5b612d8b6126f0565b815160178110612d9b5760008081fd5b81528185015185820152835291830191604001612d6a565b509695505050505050565b600060208284031215612dd057600080fd5b815167ffffffffffffffff80821115612de857600080fd5b9083019060e08286031215612dfc57600080fd5b612e04612719565b82518152612e1460208401612bf9565b6020820152612e2560408401612bee565b6040820152612e3660608401612bee565b6060820152608083015182811115612e4d57600080fd5b612e5987828601612d26565b60808301525060a083015182811115612e7157600080fd5b612e7d87828601612d26565b60a08301525060c083015182811115612e9557600080fd5b612ea187828601612d26565b60c08301525095945050505050565b60068110612ec057612ec0612d10565b9052565b82815260408101610e566020830184612eb0565b60408101612ee68285612eb0565b8260208301529392505050565b60006020808385031215612f0657600080fd5b825167ffffffffffffffff80821115612f1e57600080fd5b818501915085601f830112612f3257600080fd5b8151612f4061280682612791565b81815260059190911b83018401908481019088831115612f5f57600080fd5b8585015b83811015612f9757805185811115612f7b5760008081fd5b612f898b89838a0101612d26565b845250918601918601612f63565b5098975050505050505050565b600081518084526020808501945080840160005b83811015612593578151805160178110612fd457612fd4612d10565b88528301518388015260409096019590820190600101612fb8565b84815283602082015260806040820152825160808201526020830151151560a082015260ff60408401511660c08201526000606084015161303560e084018260ff169052565b50608084015160e0610100840152613051610160840182612fa4565b905060a0850151607f1980858403016101208601526130708383612fa4565b925060c0870151915080858403016101408601525061308f8282612fa4565b91505082810360608401526130a48185612fa4565b979650505050505050565b6000602082840312156130c157600080fd5b5051919050565b60ff81811683821601908111156110e5576110e5612bac565b600060ff821660ff81036130f7576130f7612bac565b60010192915050565b8051600081900b811461296057600080fd5b600060e0828403121561312457600080fd5b61312c612719565b905061313782613100565b815261314560208301613100565b602082015261315660408301613100565b604082015261316760608301613100565b606082015261317860808301613100565b608082015261318960a08301613100565b60a082015261319a60c08301613100565b60c082015292915050565b60006101e082840312156131b857600080fd5b6131c061273c565b8251815260208301516020820152604083015160408201526131e58460608501613112565b60608201526131f76101408401612bee565b60808201526132096101608401612bee565b60a082015261321b6101808401612bee565b60c082015261322d6101a08401612bee565b60e082015261323f6101c08401612bf9565b6101008201529392505050565b600060e0828403121561325e57600080fd5b610e568383613112565b600081810b9083900b01607f8113607f19821217156110e5576110e5612bac565b600082810b9082900b03607f198112607f821317156110e5576110e5612bac565b600060208083850312156132bd57600080fd5b825167ffffffffffffffff8111156132d457600080fd5b8301601f810185136132e557600080fd5b80516132f361280682612791565b81815260059190911b8201830190838101908783111561331257600080fd5b928401925b828410156130a457835182529284019290840190613317565b60006020828403121561334257600080fd5b8151610e5681612857565b60008161335c5761335c612bac565b506000190190565b6000806040838503121561337757600080fd5b505080516020909101519092909150565b838152608081016133ac6020830185805160ff908116835260209182015116910152565b826060830152949350505050565b6000606082840312156133cc57600080fd5b6040516060810181811067ffffffffffffffff821117156133ef576133ef6126da565b60405282516133fd81612857565b8152602083015161340d81612857565b602082015260408301516005811061342457600080fd5b60408201529392505050565b86815260ff8681166020830152851660408201526060810184905260c081016005841061345f5761345f612d10565b608082019390935260a0015294935050505056fe854f143c4475e8754c8844dbfe9928cf11388710860ea82bb21c19da10f6c73da2646970667358221220a9bd35713d004f9911f62df65378762ec75c3db3821680a19a272f904565f47564736f6c63430008110033",
  "devdoc": {
    "kind": "dev",
    "methods": {
      "owner()": {
        "details": "Returns the address of the current owner."
      },
      "renounceOwnership()": {
        "details": "Leaves the contract without owner. It will not be possible to call `onlyOwner` functions anymore. Can only be called by the current owner. NOTE: Renouncing ownership will leave the contract without an owner, thereby removing any functionality that is only available to the owner."
      },
      "transferOwnership(address)": {
        "details": "Transfers ownership of the contract to a new account (`newOwner`). Can only be called by the current owner."
      }
    },
    "version": 1
  },
  "userdoc": {
    "kind": "user",
    "methods": {},
    "version": 1
  },
  "storageLayout": {
    "storage": [
      {
        "astId": 7,
        "contract": "contracts/BCPlayers.sol:BCPlayers",
        "label": "_owner",
        "offset": 0,
        "slot": "0",
        "type": "t_address"
      },
      {
        "astId": 13774,
        "contract": "contracts/BCPlayers.sol:BCPlayers",
        "label": "chars",
        "offset": 0,
        "slot": "1",
        "type": "t_contract(CharInterface)13597"
      },
      {
        "astId": 13777,
        "contract": "contracts/BCPlayers.sol:BCPlayers",
        "label": "utils",
        "offset": 0,
        "slot": "2",
        "type": "t_contract(UtilsInterface)13614"
      },
      {
        "astId": 13780,
        "contract": "contracts/BCPlayers.sol:BCPlayers",
        "label": "maps",
        "offset": 0,
        "slot": "3",
        "type": "t_contract(MapInterface)13734"
      },
      {
        "astId": 13783,
        "contract": "contracts/BCPlayers.sol:BCPlayers",
        "label": "bcEvents",
        "offset": 0,
        "slot": "4",
        "type": "t_contract(EventsInterface)13575"
      },
      {
        "astId": 13786,
        "contract": "contracts/BCPlayers.sol:BCPlayers",
        "label": "items",
        "offset": 0,
        "slot": "5",
        "type": "t_contract(ItemsInterface)13758"
      },
      {
        "astId": 13789,
        "contract": "contracts/BCPlayers.sol:BCPlayers",
        "label": "games",
        "offset": 0,
        "slot": "6",
        "type": "t_contract(GamesInterface)13769"
      },
      {
        "astId": 13791,
        "contract": "contracts/BCPlayers.sol:BCPlayers",
        "label": "lobbiesAddress",
        "offset": 0,
        "slot": "7",
        "type": "t_address"
      },
      {
        "astId": 13793,
        "contract": "contracts/BCPlayers.sol:BCPlayers",
        "label": "charsAddress",
        "offset": 0,
        "slot": "8",
        "type": "t_address"
      },
      {
        "astId": 13795,
        "contract": "contracts/BCPlayers.sol:BCPlayers",
        "label": "actionsAddress",
        "offset": 0,
        "slot": "9",
        "type": "t_address"
      },
      {
        "astId": 13875,
        "contract": "contracts/BCPlayers.sol:BCPlayers",
        "label": "StartLocation",
        "offset": 0,
        "slot": "10",
        "type": "t_struct(Position)15313_storage"
      },
      {
        "astId": 13879,
        "contract": "contracts/BCPlayers.sol:BCPlayers",
        "label": "players",
        "offset": 0,
        "slot": "11",
        "type": "t_array(t_struct(Player)15286_storage)dyn_storage"
      }
    ],
    "types": {
      "t_address": {
        "encoding": "inplace",
        "label": "address",
        "numberOfBytes": "20"
      },
      "t_array(t_struct(Player)15286_storage)dyn_storage": {
        "base": "t_struct(Player)15286_storage",
        "encoding": "dynamic_array",
        "label": "struct BCTypes.Player[]",
        "numberOfBytes": "32"
      },
      "t_array(t_uint8)dyn_storage": {
        "base": "t_uint8",
        "encoding": "dynamic_array",
        "label": "uint8[]",
        "numberOfBytes": "32"
      },
      "t_bool": {
        "encoding": "inplace",
        "label": "bool",
        "numberOfBytes": "1"
      },
      "t_contract(CharInterface)13597": {
        "encoding": "inplace",
        "label": "contract CharInterface",
        "numberOfBytes": "20"
      },
      "t_contract(EventsInterface)13575": {
        "encoding": "inplace",
        "label": "contract EventsInterface",
        "numberOfBytes": "20"
      },
      "t_contract(GamesInterface)13769": {
        "encoding": "inplace",
        "label": "contract GamesInterface",
        "numberOfBytes": "20"
      },
      "t_contract(ItemsInterface)13758": {
        "encoding": "inplace",
        "label": "contract ItemsInterface",
        "numberOfBytes": "20"
      },
      "t_contract(MapInterface)13734": {
        "encoding": "inplace",
        "label": "contract MapInterface",
        "numberOfBytes": "20"
      },
      "t_contract(UtilsInterface)13614": {
        "encoding": "inplace",
        "label": "contract UtilsInterface",
        "numberOfBytes": "20"
      },
      "t_int8": {
        "encoding": "inplace",
        "label": "int8",
        "numberOfBytes": "1"
      },
      "t_struct(Player)15286_storage": {
        "encoding": "inplace",
        "label": "struct BCTypes.Player",
        "members": [
          {
            "astId": 15256,
            "contract": "contracts/BCPlayers.sol:BCPlayers",
            "label": "owner",
            "offset": 0,
            "slot": "0",
            "type": "t_address"
          },
          {
            "astId": 15258,
            "contract": "contracts/BCPlayers.sol:BCPlayers",
            "label": "characterId",
            "offset": 0,
            "slot": "1",
            "type": "t_uint256"
          },
          {
            "astId": 15261,
            "contract": "contracts/BCPlayers.sol:BCPlayers",
            "label": "currentTraits",
            "offset": 0,
            "slot": "2",
            "type": "t_struct(Traits)15439_storage"
          },
          {
            "astId": 15264,
            "contract": "contracts/BCPlayers.sol:BCPlayers",
            "label": "position",
            "offset": 0,
            "slot": "3",
            "type": "t_struct(Position)15313_storage"
          },
          {
            "astId": 15266,
            "contract": "contracts/BCPlayers.sol:BCPlayers",
            "label": "healthDmgTaken",
            "offset": 0,
            "slot": "4",
            "type": "t_int8"
          },
          {
            "astId": 15268,
            "contract": "contracts/BCPlayers.sol:BCPlayers",
            "label": "armorDmgTaken",
            "offset": 1,
            "slot": "4",
            "type": "t_uint8"
          },
          {
            "astId": 15270,
            "contract": "contracts/BCPlayers.sol:BCPlayers",
            "label": "actionsTaken",
            "offset": 2,
            "slot": "4",
            "type": "t_uint8"
          },
          {
            "astId": 15272,
            "contract": "contracts/BCPlayers.sol:BCPlayers",
            "label": "dataTokens",
            "offset": 3,
            "slot": "4",
            "type": "t_uint8"
          },
          {
            "astId": 15275,
            "contract": "contracts/BCPlayers.sol:BCPlayers",
            "label": "currentEffects",
            "offset": 0,
            "slot": "5",
            "type": "t_array(t_uint8)dyn_storage"
          },
          {
            "astId": 15277,
            "contract": "contracts/BCPlayers.sol:BCPlayers",
            "label": "numItemsHeld",
            "offset": 0,
            "slot": "6",
            "type": "t_uint8"
          },
          {
            "astId": 15279,
            "contract": "contracts/BCPlayers.sol:BCPlayers",
            "label": "canHarmOthers",
            "offset": 1,
            "slot": "6",
            "type": "t_bool"
          },
          {
            "astId": 15281,
            "contract": "contracts/BCPlayers.sol:BCPlayers",
            "label": "dead",
            "offset": 2,
            "slot": "6",
            "type": "t_bool"
          },
          {
            "astId": 15283,
            "contract": "contracts/BCPlayers.sol:BCPlayers",
            "label": "hasEgg",
            "offset": 3,
            "slot": "6",
            "type": "t_bool"
          },
          {
            "astId": 15285,
            "contract": "contracts/BCPlayers.sol:BCPlayers",
            "label": "gameId",
            "offset": 0,
            "slot": "7",
            "type": "t_uint256"
          }
        ],
        "numberOfBytes": "256"
      },
      "t_struct(Position)15313_storage": {
        "encoding": "inplace",
        "label": "struct BCTypes.Position",
        "members": [
          {
            "astId": 15310,
            "contract": "contracts/BCPlayers.sol:BCPlayers",
            "label": "row",
            "offset": 0,
            "slot": "0",
            "type": "t_uint8"
          },
          {
            "astId": 15312,
            "contract": "contracts/BCPlayers.sol:BCPlayers",
            "label": "col",
            "offset": 1,
            "slot": "0",
            "type": "t_uint8"
          }
        ],
        "numberOfBytes": "32"
      },
      "t_struct(Traits)15439_storage": {
        "encoding": "inplace",
        "label": "struct BCTypes.Traits",
        "members": [
          {
            "astId": 15426,
            "contract": "contracts/BCPlayers.sol:BCPlayers",
            "label": "health",
            "offset": 0,
            "slot": "0",
            "type": "t_int8"
          },
          {
            "astId": 15428,
            "contract": "contracts/BCPlayers.sol:BCPlayers",
            "label": "carry",
            "offset": 1,
            "slot": "0",
            "type": "t_int8"
          },
          {
            "astId": 15430,
            "contract": "contracts/BCPlayers.sol:BCPlayers",
            "label": "defense",
            "offset": 2,
            "slot": "0",
            "type": "t_int8"
          },
          {
            "astId": 15432,
            "contract": "contracts/BCPlayers.sol:BCPlayers",
            "label": "hack",
            "offset": 3,
            "slot": "0",
            "type": "t_int8"
          },
          {
            "astId": 15434,
            "contract": "contracts/BCPlayers.sol:BCPlayers",
            "label": "breach",
            "offset": 4,
            "slot": "0",
            "type": "t_int8"
          },
          {
            "astId": 15436,
            "contract": "contracts/BCPlayers.sol:BCPlayers",
            "label": "shoot",
            "offset": 5,
            "slot": "0",
            "type": "t_int8"
          },
          {
            "astId": 15438,
            "contract": "contracts/BCPlayers.sol:BCPlayers",
            "label": "melee",
            "offset": 6,
            "slot": "0",
            "type": "t_int8"
          }
        ],
        "numberOfBytes": "32"
      },
      "t_uint256": {
        "encoding": "inplace",
        "label": "uint256",
        "numberOfBytes": "32"
      },
      "t_uint8": {
        "encoding": "inplace",
        "label": "uint8",
        "numberOfBytes": "1"
      }
    }
  }
}