{
  "address": "0x9d28D33db74aFa4D9A2f736362008B28399cb749",
  "abi": [
    {
      "inputs": [],
      "stateMutability": "nonpayable",
      "type": "constructor"
    },
    {
      "anonymous": false,
      "inputs": [
        {
          "indexed": false,
          "internalType": "uint256",
          "name": "gameId",
          "type": "uint256"
        },
        {
          "indexed": false,
          "internalType": "uint256",
          "name": "roll",
          "type": "uint256"
        },
        {
          "indexed": false,
          "internalType": "uint256",
          "name": "forValue",
          "type": "uint256"
        },
        {
          "indexed": false,
          "internalType": "uint256",
          "name": "against",
          "type": "uint256"
        }
      ],
      "name": "ChallengeEvent",
      "type": "event"
    },
    {
      "anonymous": false,
      "inputs": [
        {
          "indexed": false,
          "internalType": "uint256",
          "name": "gameId",
          "type": "uint256"
        },
        {
          "indexed": false,
          "internalType": "uint256",
          "name": "roll",
          "type": "uint256"
        }
      ],
      "name": "DiceRollEvent",
      "type": "event"
    },
    {
      "anonymous": false,
      "inputs": [
        {
          "indexed": false,
          "internalType": "uint256",
          "name": "gameId",
          "type": "uint256"
        },
        {
          "indexed": false,
          "internalType": "uint256",
          "name": "playerId",
          "type": "uint256"
        },
        {
          "components": [
            {
              "internalType": "uint256",
              "name": "id",
              "type": "uint256"
            },
            {
              "internalType": "bool",
              "name": "permanent",
              "type": "bool"
            },
            {
              "internalType": "uint8",
              "name": "rollForLow",
              "type": "uint8"
            },
            {
              "internalType": "uint8",
              "name": "rollForHigh",
              "type": "uint8"
            },
            {
              "components": [
                {
                  "internalType": "enum BCEvents.EffectTypes",
                  "name": "effect",
                  "type": "uint8"
                },
                {
                  "internalType": "uint256",
                  "name": "value",
                  "type": "uint256"
                }
              ],
              "internalType": "struct BCEvents.Effect[]",
              "name": "defaultEffect",
              "type": "tuple[]"
            },
            {
              "components": [
                {
                  "internalType": "enum BCEvents.EffectTypes",
                  "name": "effect",
                  "type": "uint8"
                },
                {
                  "internalType": "uint256",
                  "name": "value",
                  "type": "uint256"
                }
              ],
              "internalType": "struct BCEvents.Effect[]",
              "name": "lowEffect",
              "type": "tuple[]"
            },
            {
              "components": [
                {
                  "internalType": "enum BCEvents.EffectTypes",
                  "name": "effect",
                  "type": "uint8"
                },
                {
                  "internalType": "uint256",
                  "name": "value",
                  "type": "uint256"
                }
              ],
              "internalType": "struct BCEvents.Effect[]",
              "name": "highEffect",
              "type": "tuple[]"
            }
          ],
          "indexed": false,
          "internalType": "struct BCEvents.BCEvent",
          "name": "bcEvent",
          "type": "tuple"
        },
        {
          "components": [
            {
              "internalType": "enum BCEvents.EffectTypes",
              "name": "effect",
              "type": "uint8"
            },
            {
              "internalType": "uint256",
              "name": "value",
              "type": "uint256"
            }
          ],
          "indexed": false,
          "internalType": "struct BCEvents.Effect[]",
          "name": "appliedBCEffects",
          "type": "tuple[]"
        }
      ],
      "name": "EventResolvedEvent",
      "type": "event"
    },
    {
      "anonymous": false,
      "inputs": [
        {
          "indexed": true,
          "internalType": "address",
          "name": "previousOwner",
          "type": "address"
        },
        {
          "indexed": true,
          "internalType": "address",
          "name": "newOwner",
          "type": "address"
        }
      ],
      "name": "OwnershipTransferred",
      "type": "event"
    },
    {
      "inputs": [],
      "name": "StartLocation",
      "outputs": [
        {
          "internalType": "uint8",
          "name": "row",
          "type": "uint8"
        },
        {
          "internalType": "uint8",
          "name": "col",
          "type": "uint8"
        }
      ],
      "stateMutability": "view",
      "type": "function"
    },
    {
      "inputs": [
        {
          "internalType": "int256",
          "name": "x",
          "type": "int256"
        }
      ],
      "name": "abs",
      "outputs": [
        {
          "internalType": "int256",
          "name": "",
          "type": "int256"
        }
      ],
      "stateMutability": "pure",
      "type": "function"
    },
    {
      "inputs": [],
      "name": "actionsAddress",
      "outputs": [
        {
          "internalType": "address",
          "name": "",
          "type": "address"
        }
      ],
      "stateMutability": "view",
      "type": "function"
    },
    {
      "inputs": [
        {
          "internalType": "uint256",
          "name": "_charId",
          "type": "uint256"
        },
        {
          "internalType": "address",
          "name": "_owner",
          "type": "address"
        },
        {
          "internalType": "uint256[]",
          "name": "_itemIds",
          "type": "uint256[]"
        }
      ],
      "name": "addPlayer",
      "outputs": [
        {
          "internalType": "uint256",
          "name": "",
          "type": "uint256"
        }
      ],
      "stateMutability": "nonpayable",
      "type": "function"
    },
    {
      "inputs": [
        {
          "internalType": "uint256",
          "name": "_mapId",
          "type": "uint256"
        },
        {
          "internalType": "uint256[]",
          "name": "_players",
          "type": "uint256[]"
        }
      ],
      "name": "applyHazardDamage",
      "outputs": [],
      "stateMutability": "nonpayable",
      "type": "function"
    },
    {
      "inputs": [],
      "name": "bcEvents",
      "outputs": [
        {
          "internalType": "contract EventsInterface",
          "name": "",
          "type": "address"
        }
      ],
      "stateMutability": "view",
      "type": "function"
    },
    {
      "inputs": [],
      "name": "chars",
      "outputs": [
        {
          "internalType": "contract CharInterface",
          "name": "",
          "type": "address"
        }
      ],
      "stateMutability": "view",
      "type": "function"
    },
    {
      "inputs": [],
      "name": "charsAddress",
      "outputs": [
        {
          "internalType": "address",
          "name": "",
          "type": "address"
        }
      ],
      "stateMutability": "view",
      "type": "function"
    },
    {
      "inputs": [
        {
          "internalType": "uint256",
          "name": "_playerId",
          "type": "uint256"
        },
        {
          "internalType": "uint256",
          "name": "_num",
          "type": "uint256"
        }
      ],
      "name": "decrementNumItemsHeld",
      "outputs": [],
      "stateMutability": "nonpayable",
      "type": "function"
    },
    {
      "inputs": [
        {
          "internalType": "uint256",
          "name": "_playerId",
          "type": "uint256"
        },
        {
          "internalType": "uint256",
          "name": "_gameId",
          "type": "uint256"
        },
        {
          "internalType": "uint256",
          "name": "_mapId",
          "type": "uint256"
        },
        {
          "components": [
            {
              "internalType": "uint8",
              "name": "row",
              "type": "uint8"
            },
            {
              "internalType": "uint8",
              "name": "col",
              "type": "uint8"
            }
          ],
          "internalType": "struct BCTypes.Position",
          "name": "_position",
          "type": "tuple"
        },
        {
          "internalType": "uint256",
          "name": "_eventId",
          "type": "uint256"
        },
        {
          "internalType": "uint256",
          "name": "_effectNum",
          "type": "uint256"
        }
      ],
      "name": "extApplyEffect",
      "outputs": [],
      "stateMutability": "nonpayable",
      "type": "function"
    },
    {
      "inputs": [
        {
          "internalType": "uint256",
          "name": "_choice",
          "type": "uint256"
        },
        {
          "internalType": "uint256",
          "name": "_eventPlayerId",
          "type": "uint256"
        },
        {
          "internalType": "uint256",
          "name": "_gameId",
          "type": "uint256"
        },
        {
          "internalType": "uint256",
          "name": "_mapId",
          "type": "uint256"
        },
        {
          "components": [
            {
              "internalType": "uint8",
              "name": "row",
              "type": "uint8"
            },
            {
              "internalType": "uint8",
              "name": "col",
              "type": "uint8"
            }
          ],
          "internalType": "struct BCTypes.Position",
          "name": "_position",
          "type": "tuple"
        },
        {
          "internalType": "uint256",
          "name": "_eventNumber",
          "type": "uint256"
        },
        {
          "internalType": "enum BCTypes.BCEventType",
          "name": "_eventType",
          "type": "uint8"
        }
      ],
      "name": "extChooseEffect",
      "outputs": [],
      "stateMutability": "nonpayable",
      "type": "function"
    },
    {
      "inputs": [
        {
          "internalType": "uint256",
          "name": "_id",
          "type": "uint256"
        }
      ],
      "name": "extGetActionsTaken",
      "outputs": [
        {
          "internalType": "uint256",
          "name": "",
          "type": "uint256"
        }
      ],
      "stateMutability": "view",
      "type": "function"
    },
    {
      "inputs": [
        {
          "internalType": "uint256",
          "name": "_id",
          "type": "uint256"
        }
      ],
      "name": "extGetPlayer",
      "outputs": [
        {
          "components": [
            {
              "internalType": "address",
              "name": "owner",
              "type": "address"
            },
            {
              "internalType": "uint256",
              "name": "characterId",
              "type": "uint256"
            },
            {
              "components": [
                {
                  "internalType": "int8",
                  "name": "health",
                  "type": "int8"
                },
                {
                  "internalType": "int8",
                  "name": "carry",
                  "type": "int8"
                },
                {
                  "internalType": "int8",
                  "name": "defense",
                  "type": "int8"
                },
                {
                  "internalType": "int8",
                  "name": "hack",
                  "type": "int8"
                },
                {
                  "internalType": "int8",
                  "name": "breach",
                  "type": "int8"
                },
                {
                  "internalType": "int8",
                  "name": "shoot",
                  "type": "int8"
                },
                {
                  "internalType": "int8",
                  "name": "melee",
                  "type": "int8"
                }
              ],
              "internalType": "struct BCTypes.Traits",
              "name": "currentTraits",
              "type": "tuple"
            },
            {
              "components": [
                {
                  "internalType": "uint8",
                  "name": "row",
                  "type": "uint8"
                },
                {
                  "internalType": "uint8",
                  "name": "col",
                  "type": "uint8"
                }
              ],
              "internalType": "struct BCTypes.Position",
              "name": "position",
              "type": "tuple"
            },
            {
              "components": [
                {
                  "internalType": "uint8",
                  "name": "row",
                  "type": "uint8"
                },
                {
                  "internalType": "uint8",
                  "name": "col",
                  "type": "uint8"
                }
              ],
              "internalType": "struct BCTypes.Position",
              "name": "lastPos",
              "type": "tuple"
            },
            {
              "internalType": "int8",
              "name": "healthDmgTaken",
              "type": "int8"
            },
            {
              "internalType": "uint8",
              "name": "armorDmgTaken",
              "type": "uint8"
            },
            {
              "internalType": "uint8",
              "name": "actionsTaken",
              "type": "uint8"
            },
            {
              "internalType": "uint8",
              "name": "dataTokens",
              "type": "uint8"
            },
            {
              "internalType": "uint8[]",
              "name": "currentEffects",
              "type": "uint8[]"
            },
            {
              "internalType": "uint8",
              "name": "numItemsHeld",
              "type": "uint8"
            },
            {
              "internalType": "bool",
              "name": "canHarmOthers",
              "type": "bool"
            },
            {
              "internalType": "bool",
              "name": "dead",
              "type": "bool"
            },
            {
              "internalType": "uint256",
              "name": "gameId",
              "type": "uint256"
            }
          ],
          "internalType": "struct BCTypes.Player",
          "name": "",
          "type": "tuple"
        }
      ],
      "stateMutability": "view",
      "type": "function"
    },
    {
      "inputs": [
        {
          "internalType": "uint256",
          "name": "_id",
          "type": "uint256"
        }
      ],
      "name": "extGetPlayerOwner",
      "outputs": [
        {
          "internalType": "address",
          "name": "",
          "type": "address"
        }
      ],
      "stateMutability": "view",
      "type": "function"
    },
    {
      "inputs": [
        {
          "internalType": "uint256",
          "name": "_playerId",
          "type": "uint256"
        },
        {
          "internalType": "uint256",
          "name": "_amount",
          "type": "uint256"
        },
        {
          "internalType": "bool",
          "name": "_hazard",
          "type": "bool"
        }
      ],
      "name": "extHurtPlayer",
      "outputs": [],
      "stateMutability": "nonpayable",
      "type": "function"
    },
    {
      "inputs": [
        {
          "components": [
            {
              "internalType": "uint8",
              "name": "row",
              "type": "uint8"
            },
            {
              "internalType": "uint8",
              "name": "col",
              "type": "uint8"
            }
          ],
          "internalType": "struct BCTypes.Position",
          "name": "_position",
          "type": "tuple"
        },
        {
          "internalType": "uint256",
          "name": "_playerId",
          "type": "uint256"
        },
        {
          "internalType": "uint256",
          "name": "_mapId",
          "type": "uint256"
        }
      ],
      "name": "extMovePlayer",
      "outputs": [
        {
          "internalType": "bool",
          "name": "",
          "type": "bool"
        }
      ],
      "stateMutability": "nonpayable",
      "type": "function"
    },
    {
      "inputs": [],
      "name": "games",
      "outputs": [
        {
          "internalType": "contract GamesInterface",
          "name": "",
          "type": "address"
        }
      ],
      "stateMutability": "view",
      "type": "function"
    },
    {
      "inputs": [
        {
          "components": [
            {
              "internalType": "uint8",
              "name": "row",
              "type": "uint8"
            },
            {
              "internalType": "uint8",
              "name": "col",
              "type": "uint8"
            }
          ],
          "internalType": "struct BCTypes.Position",
          "name": "_firstRoom",
          "type": "tuple"
        },
        {
          "components": [
            {
              "internalType": "uint8",
              "name": "row",
              "type": "uint8"
            },
            {
              "internalType": "uint8",
              "name": "col",
              "type": "uint8"
            }
          ],
          "internalType": "struct BCTypes.Position",
          "name": "_secondRoom",
          "type": "tuple"
        }
      ],
      "name": "getDirectionBetween",
      "outputs": [
        {
          "internalType": "uint256",
          "name": "",
          "type": "uint256"
        }
      ],
      "stateMutability": "pure",
      "type": "function"
    },
    {
      "inputs": [
        {
          "internalType": "uint256",
          "name": "_direction",
          "type": "uint256"
        },
        {
          "components": [
            {
              "internalType": "uint8",
              "name": "row",
              "type": "uint8"
            },
            {
              "internalType": "uint8",
              "name": "col",
              "type": "uint8"
            }
          ],
          "internalType": "struct BCTypes.Position",
          "name": "_start",
          "type": "tuple"
        }
      ],
      "name": "getNeighborRoom",
      "outputs": [
        {
          "components": [
            {
              "internalType": "uint8",
              "name": "row",
              "type": "uint8"
            },
            {
              "internalType": "uint8",
              "name": "col",
              "type": "uint8"
            }
          ],
          "internalType": "struct BCTypes.Position",
          "name": "",
          "type": "tuple"
        }
      ],
      "stateMutability": "pure",
      "type": "function"
    },
    {
      "inputs": [
        {
          "internalType": "uint256",
          "name": "_traitNum",
          "type": "uint256"
        },
        {
          "internalType": "uint256",
          "name": "_subTraitNum",
          "type": "uint256"
        }
      ],
      "name": "getUIOffset",
      "outputs": [
        {
          "internalType": "uint256",
          "name": "",
          "type": "uint256"
        }
      ],
      "stateMutability": "pure",
      "type": "function"
    },
    {
      "inputs": [
        {
          "internalType": "uint256",
          "name": "_playerId",
          "type": "uint256"
        },
        {
          "internalType": "uint8",
          "name": "_amount",
          "type": "uint8"
        }
      ],
      "name": "grantDataToPlayer",
      "outputs": [],
      "stateMutability": "nonpayable",
      "type": "function"
    },
    {
      "inputs": [
        {
          "internalType": "uint256",
          "name": "_playerId",
          "type": "uint256"
        },
        {
          "internalType": "uint256",
          "name": "_num",
          "type": "uint256"
        }
      ],
      "name": "incrementNumItemsHeld",
      "outputs": [],
      "stateMutability": "nonpayable",
      "type": "function"
    },
    {
      "inputs": [
        {
          "internalType": "uint256",
          "name": "_playerId",
          "type": "uint256"
        }
      ],
      "name": "incrementPlayerActions",
      "outputs": [],
      "stateMutability": "nonpayable",
      "type": "function"
    },
    {
      "inputs": [],
      "name": "items",
      "outputs": [
        {
          "internalType": "contract ItemsInterface",
          "name": "",
          "type": "address"
        }
      ],
      "stateMutability": "view",
      "type": "function"
    },
    {
      "inputs": [],
      "name": "lobbiesAddress",
      "outputs": [
        {
          "internalType": "address",
          "name": "",
          "type": "address"
        }
      ],
      "stateMutability": "view",
      "type": "function"
    },
    {
      "inputs": [],
      "name": "maps",
      "outputs": [
        {
          "internalType": "contract MapInterface",
          "name": "",
          "type": "address"
        }
      ],
      "stateMutability": "view",
      "type": "function"
    },
    {
      "inputs": [
        {
          "internalType": "uint256",
          "name": "_min",
          "type": "uint256"
        },
        {
          "internalType": "uint256",
          "name": "_max",
          "type": "uint256"
        },
        {
          "internalType": "uint256",
          "name": "_val",
          "type": "uint256"
        },
        {
          "internalType": "uint256",
          "name": "_valMax",
          "type": "uint256"
        }
      ],
      "name": "normalizeToSmallRange",
      "outputs": [
        {
          "internalType": "uint8",
          "name": "",
          "type": "uint8"
        }
      ],
      "stateMutability": "pure",
      "type": "function"
    },
    {
      "inputs": [
        {
          "internalType": "uint256",
          "name": "_direction",
          "type": "uint256"
        }
      ],
      "name": "opposite",
      "outputs": [
        {
          "internalType": "uint256",
          "name": "",
          "type": "uint256"
        }
      ],
      "stateMutability": "pure",
      "type": "function"
    },
    {
      "inputs": [],
      "name": "owner",
      "outputs": [
        {
          "internalType": "address",
          "name": "",
          "type": "address"
        }
      ],
      "stateMutability": "view",
      "type": "function"
    },
    {
      "inputs": [
        {
          "internalType": "uint256",
          "name": "",
          "type": "uint256"
        }
      ],
      "name": "players",
      "outputs": [
        {
          "internalType": "address",
          "name": "owner",
          "type": "address"
        },
        {
          "internalType": "uint256",
          "name": "characterId",
          "type": "uint256"
        },
        {
          "components": [
            {
              "internalType": "int8",
              "name": "health",
              "type": "int8"
            },
            {
              "internalType": "int8",
              "name": "carry",
              "type": "int8"
            },
            {
              "internalType": "int8",
              "name": "defense",
              "type": "int8"
            },
            {
              "internalType": "int8",
              "name": "hack",
              "type": "int8"
            },
            {
              "internalType": "int8",
              "name": "breach",
              "type": "int8"
            },
            {
              "internalType": "int8",
              "name": "shoot",
              "type": "int8"
            },
            {
              "internalType": "int8",
              "name": "melee",
              "type": "int8"
            }
          ],
          "internalType": "struct BCTypes.Traits",
          "name": "currentTraits",
          "type": "tuple"
        },
        {
          "components": [
            {
              "internalType": "uint8",
              "name": "row",
              "type": "uint8"
            },
            {
              "internalType": "uint8",
              "name": "col",
              "type": "uint8"
            }
          ],
          "internalType": "struct BCTypes.Position",
          "name": "position",
          "type": "tuple"
        },
        {
          "components": [
            {
              "internalType": "uint8",
              "name": "row",
              "type": "uint8"
            },
            {
              "internalType": "uint8",
              "name": "col",
              "type": "uint8"
            }
          ],
          "internalType": "struct BCTypes.Position",
          "name": "lastPos",
          "type": "tuple"
        },
        {
          "internalType": "int8",
          "name": "healthDmgTaken",
          "type": "int8"
        },
        {
          "internalType": "uint8",
          "name": "armorDmgTaken",
          "type": "uint8"
        },
        {
          "internalType": "uint8",
          "name": "actionsTaken",
          "type": "uint8"
        },
        {
          "internalType": "uint8",
          "name": "dataTokens",
          "type": "uint8"
        },
        {
          "internalType": "uint8",
          "name": "numItemsHeld",
          "type": "uint8"
        },
        {
          "internalType": "bool",
          "name": "canHarmOthers",
          "type": "bool"
        },
        {
          "internalType": "bool",
          "name": "dead",
          "type": "bool"
        },
        {
          "internalType": "uint256",
          "name": "gameId",
          "type": "uint256"
        }
      ],
      "stateMutability": "view",
      "type": "function"
    },
    {
      "inputs": [],
      "name": "randKeccak",
      "outputs": [
        {
          "internalType": "bytes32",
          "name": "",
          "type": "bytes32"
        }
      ],
      "stateMutability": "nonpayable",
      "type": "function"
    },
    {
      "inputs": [],
      "name": "renounceOwnership",
      "outputs": [],
      "stateMutability": "nonpayable",
      "type": "function"
    },
    {
      "inputs": [
        {
          "internalType": "uint256",
          "name": "_playerId",
          "type": "uint256"
        }
      ],
      "name": "resetPlayerActions",
      "outputs": [],
      "stateMutability": "nonpayable",
      "type": "function"
    },
    {
      "inputs": [
        {
          "internalType": "uint256",
          "name": "_gameId",
          "type": "uint256"
        },
        {
          "internalType": "uint256",
          "name": "_for",
          "type": "uint256"
        },
        {
          "internalType": "uint256",
          "name": "_against",
          "type": "uint256"
        }
      ],
      "name": "resolveChallenge",
      "outputs": [
        {
          "internalType": "bool",
          "name": "",
          "type": "bool"
        }
      ],
      "stateMutability": "nonpayable",
      "type": "function"
    },
    {
      "inputs": [
        {
          "internalType": "uint256",
          "name": "_gameId",
          "type": "uint256"
        }
      ],
      "name": "roll",
      "outputs": [
        {
          "internalType": "uint256",
          "name": "",
          "type": "uint256"
        }
      ],
      "stateMutability": "nonpayable",
      "type": "function"
    },
    {
      "inputs": [
        {
          "internalType": "address",
          "name": "_charAddress",
          "type": "address"
        },
        {
          "internalType": "address",
          "name": "_utilsAddress",
          "type": "address"
        },
        {
          "internalType": "address",
          "name": "_mapsAddress",
          "type": "address"
        },
        {
          "internalType": "address",
          "name": "_lobbiesAddress",
          "type": "address"
        },
        {
          "internalType": "address",
          "name": "_actionsAddress",
          "type": "address"
        },
        {
          "internalType": "address",
          "name": "_eventsAddress",
          "type": "address"
        },
        {
          "internalType": "address",
          "name": "_itemsAddress",
          "type": "address"
        },
        {
          "internalType": "address",
          "name": "_gamesAddress",
          "type": "address"
        }
      ],
      "name": "setContractAddresses",
      "outputs": [],
      "stateMutability": "nonpayable",
      "type": "function"
    },
    {
      "inputs": [
        {
          "internalType": "uint256[]",
          "name": "ids",
          "type": "uint256[]"
        },
        {
          "internalType": "uint256",
          "name": "_gameId",
          "type": "uint256"
        }
      ],
      "name": "setPlayersGameId",
      "outputs": [],
      "stateMutability": "nonpayable",
      "type": "function"
    },
    {
      "inputs": [
        {
          "internalType": "bytes32",
          "name": "_hash",
          "type": "bytes32"
        },
        {
          "internalType": "uint256",
          "name": "_size",
          "type": "uint256"
        },
        {
          "internalType": "uint256",
          "name": "_offset",
          "type": "uint256"
        }
      ],
      "name": "sliceHashToSmallInt",
      "outputs": [
        {
          "internalType": "uint8",
          "name": "",
          "type": "uint8"
        }
      ],
      "stateMutability": "pure",
      "type": "function"
    },
    {
      "inputs": [
        {
          "internalType": "uint8",
          "name": "_min",
          "type": "uint8"
        },
        {
          "internalType": "uint8",
          "name": "_max",
          "type": "uint8"
        }
      ],
      "name": "smallIntBetweenVals",
      "outputs": [
        {
          "internalType": "uint8",
          "name": "",
          "type": "uint8"
        }
      ],
      "stateMutability": "nonpayable",
      "type": "function"
    },
    {
      "inputs": [
        {
          "internalType": "address",
          "name": "newOwner",
          "type": "address"
        }
      ],
      "name": "transferOwnership",
      "outputs": [],
      "stateMutability": "nonpayable",
      "type": "function"
    },
    {
      "inputs": [
        {
          "internalType": "uint256",
          "name": "_charId",
          "type": "uint256"
        },
        {
          "internalType": "uint256",
          "name": "_playerId",
          "type": "uint256"
        }
      ],
      "name": "updatePlayerTraits",
      "outputs": [],
      "stateMutability": "nonpayable",
      "type": "function"
    }
  ],
  "transactionHash": "0x5de4c8ad977f15b8312fcf8dc65ef279a0b9a1e2a7e8ca08786f68272974d5ee",
  "args": [],
  "numDeployments": 1,
  "solcInputHash": "85d32012a8bf294d89afef03a219a1f5",
  "bytecode": "0x600060015560c0604052600a6080819052600660a052805461ffff191661060a1790553480156200002f57600080fd5b506200003b336200034b565b620000456200039b565b600b81908060018154018082558091505060019003906000526020600020906009020160009091909190915060008201518160000160006101000a8154816001600160a01b0302191690836001600160a01b031602179055506020820151816001015560408201518160020160008201518160000160006101000a81548160ff021916908360000b60ff16021790555060208201518160000160016101000a81548160ff021916908360000b60ff16021790555060408201518160000160026101000a81548160ff021916908360000b60ff16021790555060608201518160000160036101000a81548160ff021916908360000b60ff16021790555060808201518160000160046101000a81548160ff021916908360000b60ff16021790555060a08201518160000160056101000a81548160ff021916908360000b60ff16021790555060c08201518160000160066101000a81548160ff021916908360000b60ff160217905550505060608201518160030160008201518160000160006101000a81548160ff021916908360ff16021790555060208201518160000160016101000a81548160ff021916908360ff160217905550505060808201518160040160008201518160000160006101000a81548160ff021916908360ff16021790555060208201518160000160016101000a81548160ff021916908360ff160217905550505060a08201518160050160006101000a81548160ff021916908360000b60ff16021790555060c08201518160050160016101000a81548160ff021916908360ff16021790555060e08201518160050160026101000a81548160ff021916908360ff1602179055506101008201518160050160036101000a81548160ff021916908360ff160217905550610120820151816006019080519060200190620002f092919062000484565b506101408201516007820180546101608501516101808601511515620100000262ff0000199115156101000261ffff1990931660ff9095169490941791909117169190911790556101a0909101516008909101555062000548565b600080546001600160a01b038381166001600160a01b0319831681178455604051919092169283917f8be0079c531659141344cd1fd0a4f28419497f9722a3daafe3b4186f6b6457e09190a35050565b604080516101c08101825260008082526020808301829052835160e081018552828152908101829052808401829052606081018290526080810182905260a0810182905260c081019190915290918201908152602001620004156040518060400160405280600060ff168152602001600060ff1681525090565b81526020016200043e6040518060400160405280600060ff168152602001600060ff1681525090565b81526000602082018190526040820181905260608083018290526080830182905260a083015260c0820181905260e0820181905261010082018190526101209091015290565b82805482825590600052602060002090601f016020900481019282156200051f5791602002820160005b83821115620004ee57835183826101000a81548160ff021916908360ff1602179055509260200192600101602081600001049283019260010302620004ae565b80156200051d5782816101000a81549060ff0219169055600101602081600001049283019260010302620004ee565b505b506200052d92915062000531565b5090565b5b808211156200052d576000815560010162000532565b61473680620005586000396000f3fe608060405234801561001057600080fd5b50600436106102535760003560e01c80637ddae10311610146578063c06fad06116100c3578063ed86196111610087578063ed8619611461055f578063f2fde38b14610572578063f71d96cb14610585578063f96f55d0146105b1578063fa3993c2146105c4578063fe23e2df146105d757600080fd5b8063c06fad06146104e3578063ce28613f146104f6578063ce93229714610509578063dc769ee81461051c578063e7169ec51461054c57600080fd5b8063951fc3fe1161010a578063951fc3fe14610477578063955a015b1461049757806397f34c3f146104aa5780639fca1ee1146104bd578063b6907194146104d057600080fd5b80637ddae1031461041a5780638214f2221461042d5780638d491b3e146104405780638da5cb5b14610453578063921d27991461046457600080fd5b806353011696116101d45780636621a421116101985780636621a421146103c6578063668a7f3b146103d95780636d291bbb146103ec578063715018a6146103ff5780637b45c0d41461040757600080fd5b806353011696146103455780635519f4391461036a5780635dc969671461037d57806364db84bf146103a057806365c363f0146103b357600080fd5b80631f7b4f301161021b5780631f7b4f30146102e6578063336d7d7b146102f9578063351dacdf1461030c5780633deaec2b1461031f57806347d0e3c91461033257600080fd5b80630dd0f5881461025857806310a2cd0d1461026d57806310f67fb31461029d5780631b5ac4b5146102bd5780631e1de205146102de575b600080fd5b61026b61026636600461327a565b6105ea565b005b600254610280906001600160a01b031681565b6040516001600160a01b0390911681526020015b60405180910390f35b6102b06102ab3660046132b3565b61062d565b6040516102949190613361565b6102d06102cb3660046132b3565b61081e565b604051908152602001610294565b6102d061083e565b6102d06102f43660046132b3565b6108b6565b600754610280906001600160a01b031681565b61026b61031a366004613483565b610912565b600354610280906001600160a01b031681565b6102d06103403660046132b3565b610967565b6103586103533660046134a5565b61099f565b60405160ff9091168152602001610294565b6102d0610378366004613656565b6109dc565b61039061038b3660046136ac565b610b31565b6040519015158152602001610294565b6102d06103ae366004613483565b610bcc565b61026b6103c13660046132b3565b610be4565b6102806103d43660046132b3565b610c3c565b61026b6103e73660046136d8565b610c71565b61026b6103fa36600461376f565b610dc6565b61026b6111b0565b600954610280906001600160a01b031681565b600454610280906001600160a01b031681565b6102d061043b3660046132b3565b6111c4565b61039061044e3660046137dc565b61123e565b6000546001600160a01b0316610280565b61026b610472366004613810565b6113e5565b61048a6104853660046138a7565b61146d565b60405161029491906138d4565b600654610280906001600160a01b031681565b6103586104b83660046136ac565b611597565b600854610280906001600160a01b031681565b61026b6104de3660046138f2565b6115c2565b600554610280906001600160a01b031681565b610358610504366004613922565b61166d565b61026b6105173660046132b3565b61171d565b600a546105329060ff8082169161010090041682565b6040805160ff938416815292909116602083015201610294565b61026b61055a366004613950565b61178d565b61026b61056d366004613994565b611816565b61026b6105803660046139e6565b611929565b6105986105933660046132b3565b6119a2565b6040516102949d9c9b9a99989796959493929190613a01565b61026b6105bf366004613483565b611ac0565b6102d06105d2366004613aa6565b611d3f565b61026b6105e5366004613483565b611e07565b6006546001600160a01b0316331461061d5760405162461bcd60e51b815260040161061490613ad2565b60405180910390fd5b610628838383611e40565b505050565b610635613185565b600b828154811061064857610648613afe565b60009182526020808320604080516101c081018252600990940290910180546001600160a01b03168452600181015484840152815160e08082018452600283015480880b8352610100808204890b84880152620100008083048a0b8588015263010000008084048b0b60608088019190915264010000000085048c0b6080808901919091526501000000000086048d0b60a0808a0191909152600160301b9096048d0b60c0808a01919091528c8b01989098528951808b018b5260038a015460ff8082168352908790048116828e0152928d01528951808b018b5260048a015480841682528690048316818d0152908c015260058801549b8c900b948b0194909452828b048416958a019590955289048216928801929092529190960416948401949094526006840180548251818502810185019093528083529394936101208601938301828280156107d857602002820191906000526020600020906000905b825461010083900a900460ff168152602060019283018181049485019490930390920291018084116107a95790505b5050509183525050600782015460ff8082166020840152610100820481161515604084015262010000909104161515606082015260089091015460809091015292915050565b6000808212156108365761083182613b2a565b610838565b815b92915050565b600180546000918261084f83613b46565b91905055506001546001436108649190613b5f565b403360405160200161089b93929190928352602083019190915260601b6bffffffffffffffffffffffff1916604082015260540190565b60405160208183030381529060405280519060200120905090565b6000806108c56001600661166d565b60ff1690507ffe34d093a460a16ee5fb374540914d1c734a17502c0c1a87b387c8d6097e1c518382604051610904929190918252602082015260400190565b60405180910390a192915050565b80600b838154811061092657610926613afe565b600091825260208220600760099092020101805490919061094b90849060ff16613b72565b92506101000a81548160ff021916908360ff1602179055505050565b6000600b828154811061097c5761097c613afe565b600091825260209091206009909102016005015462010000900460ff1692915050565b6000806109ac8686613b5f565b90506000836109bb8684613b8b565b6109c59190613bb8565b90506109d18782613bcc565b979650505050505050565b6007546000906001600160a01b03163314610a2e5760405162461bcd60e51b8152602060048201526012602482015271139bdd081b1bd8989e4818dbdb9d1c9858dd60721b6044820152606401610614565b600b80546001818101808455600093845260099092027f0175b7a638427703f0dbe7bb9bbf987a2551717b34e79f33b5b1008d1fa01db9019291610a729190613b5f565b82546001600160a01b0319166001600160a01b0387161783556001808401889055600b54919250610aa89188916105bf91613b5f565b835160078301805460ff191660ff909216919091179055600554604051630926bc2d60e21b81526001600160a01b039091169063249af0b490610af390849088908a90600401613bdf565b600060405180830381600087803b158015610b0d57600080fd5b505af1158015610b21573d6000803e3d6000fd5b50929450505050505b9392505050565b600080610b3d856108b6565b6040805187815260208101839052908101869052606081018590529091507f75b6a8325595f91135e07382840634226793c68c9e59623da7e10d7ad3d95b959060800160405180910390a180600103610b9a576000915050610b2a565b600383610ba78684613bcc565b610bb19190613c42565b1315610bc1576001915050610b2a565b506000949350505050565b600081610bda846004613b8b565b610b2a9190613bcc565b6006546001600160a01b03163314610bfb57600080fd5b6000600b8281548110610c1057610c10613afe565b906000526020600020906009020160050160026101000a81548160ff021916908360ff16021790555050565b6000600b8281548110610c5157610c51613afe565b60009182526020909120600990910201546001600160a01b031692915050565b6006546001600160a01b03163314610c9b5760405162461bcd60e51b815260040161061490613ad2565b60005b60018251610cac9190613b5f565b8111610628576000600b838381518110610cc857610cc8613afe565b602002602001015181548110610ce057610ce0613afe565b600091825260208220600380546009939093029091019081015460405163f9dfbfcb60e01b81526004810189905260ff808316602483015261010090920490911660448201529093506001600160a01b039091169063f9dfbfcb9060640161014060405180830381865afa158015610d5c573d6000803e3d6000fd5b505050506040513d601f19601f82011682018060405250810190610d809190613c7f565b90508060c0015115610db157610db1848481518110610da157610da1613afe565b6020026020010151600180611e40565b50508080610dbe90613b46565b915050610c9e565b6006546001600160a01b03163314610df05760405162461bcd60e51b815260040161061490613ad2565b610e386040518060e0016040528060008152602001600015158152602001600060ff168152602001600060ff1681526020016060815260200160608152602001606081525090565b6005826005811115610e4c57610e4c613d54565b03610ec7576004805460405163c82c37b960e01b81529182018590526001600160a01b03169063c82c37b990602401600060405180830381865afa158015610e98573d6000803e3d6000fd5b505050506040513d6000823e601f3d908101601f19168201604052610ec09190810190613df7565b9050610f40565b6004805460405163e4dc1a8360e01b81526001600160a01b039091169163e4dc1a8391610ef8918791879101613efc565b600060405180830381865afa158015610f15573d6000803e3d6000fd5b505050506040513d6000823e601f3d908101601f19168201604052610f3d9190810190613df7565b90505b600480546040516336772a9360e21b81526000926001600160a01b039092169163d9dcaa4c91610f74918791899101613f10565b600060405180830381865afa158015610f91573d6000803e3d6000fd5b505050506040513d6000823e601f3d908101601f19168201604052610fb99190810190613f2b565b9050816040015160ff166000148015610fd75750606082015160ff16155b1561104d576110038888888885600081518110610ff657610ff6613afe565b6020026020010151611f3b565b6000805160206146e18339815191528789848460008151811061102857611028613afe565b60200260200101516040516110409493929190614026565b60405180910390a16111a5565b6000611058886108b6565b9050826040015160ff166000141580156110795750826040015160ff168111155b156110e2576110988989898986600181518110610ff657610ff6613afe565b6000805160206146e1833981519152888a85856001815181106110bd576110bd613afe565b60200260200101516040516110d59493929190614026565b60405180910390a16111a3565b606083015160ff16158015906110ff5750826060015160ff168110155b156111435761111e8989898986600281518110610ff657610ff6613afe565b6000805160206146e1833981519152888a85856002815181106110bd576110bd613afe565b61115d8989898986600081518110610ff657610ff6613afe565b6000805160206146e1833981519152888a858560008151811061118257611182613afe565b602002602001015160405161119a9493929190614026565b60405180910390a15b505b505050505050505050565b6111b8612dac565b6111c26000612e06565b565b6000816000036111d657506001919050565b816001036111e657506000919050565b816002036111f657506003919050565b8160030361120657506002919050565b60405162461bcd60e51b815260206004820152600d60248201526c2130b2103234b932b1ba34b7b760991b6044820152606401610614565b6006546000906001600160a01b0316331461126b5760405162461bcd60e51b815260040161061490613ad2565b600b838154811061127e5761127e613afe565b9060005260206000209060090201600301600b84815481106112a2576112a2613afe565b600091825260209091208254600990920201600401805460ff92831660ff19821681178355935461ffff1990911690931761010093849004909216909202179055600b8054859190859081106112fa576112fa613afe565b60009182526020808320845160036009909402909101830180549583015160ff9081166101000261ffff19909716921691909117949094179093555486519287015160405163f9dfbfcb60e01b815292936001600160a01b039092169263f9dfbfcb9261137f92889260040192835260ff918216602084015216604082015260600190565b61014060405180830381865afa15801561139d573d6000803e3d6000fd5b505050506040513d601f19601f820116820180604052508101906113c19190613c7f565b5160ff16036113db576113d383612e56565b506001610b2a565b5060009392505050565b6113ed612dac565b600280546001600160a01b03199081166001600160a01b039a8b1617909155600380548216978a169790971790965560078054871695891695909517909455600980548616938816939093179092556004805485169187169190911790556005805484169186169190911790556006805490921693169290921790915550565b6040805180820190915260008082526020820152826000036114bf576040518060400160405280600184600001516114a59190613b72565b60ff168152602001836020015160ff168152509050610838565b826001036114e3576040518060400160405280836000015160016114a591906140db565b82600203611520576040518060400160405280836000015160ff1681526020018360200151600161151491906140db565b60ff1690529050610838565b82600303611551576040518060400160405280836000015160ff168152602001600184602001516115149190613b72565b600061155c84613013565b60405160200161156c9190614118565b60405160208183030381529060405290508060405162461bcd60e51b8152600401610614919061417f565b6000808260016115a8866002614276565b6115b29190613b5f565b901b8516831c9150509392505050565b6009546001600160a01b0316331461162d5760405162461bcd60e51b815260206004820152602860248201527f4e6f7420616374696f6e7320636f6e7472616374202d206772616e74446174616044820152672a37a83630bcb2b960c11b6064820152608401610614565b80600b838154811061164157611641613afe565b906000526020600020906009020160050160038282829054906101000a900460ff1661094b91906140db565b600180546000918261167e83613b46565b91905055506000336001546001436116969190613b5f565b60405160609390931b6bffffffffffffffffffffffff19166020840152603483019190915240605482015260740160408051601f198184030181529190528051602090910120905060006116ea8585613b72565b6116f59060016140db565b90508460ff168160ff168361170a9190614282565b6117149190613bcc565b95945050505050565b6006546001600160a01b0316331461173457600080fd5b600b818154811061174757611747613afe565b60009182526020909120600990910201600501805462010000900460ff1690600261177183614296565b91906101000a81548160ff021916908360ff1602179055505050565b6006546001600160a01b031633146117b75760405162461bcd60e51b815260040161061490613ad2565b60005b82518110156106285781600b8483815181106117d8576117d8613afe565b6020026020010151815481106117f0576117f0613afe565b60009182526020909120600860099092020101558061180e81613b46565b9150506117ba565b6009546001600160a01b0316331461187e5760405162461bcd60e51b815260206004820152602560248201527f4e6f7420616374696f6e7320636f6e7472616374202d206578744170706c794560448201526419999958dd60da1b6064820152608401610614565b600480546040516336772a9360e21b81526000926001600160a01b039092169163d9dcaa4c916118b391600591889101613f10565b600060405180830381865afa1580156118d0573d6000803e3d6000fd5b505050506040513d6000823e601f3d908101601f191682016040526118f89190810190613f2b565b828151811061190957611909613afe565b602002602001015190506119208787878785611f3b565b50505050505050565b611931612dac565b6001600160a01b0381166119965760405162461bcd60e51b815260206004820152602660248201527f4f776e61626c653a206e6577206f776e657220697320746865207a65726f206160448201526564647265737360d01b6064820152608401610614565b61199f81612e06565b50565b600b81815481106119b257600080fd5b600091825260208083206009909202909101805460018201546040805160e081018252600285015480880b8252610100808204890b83890152620100008083048a0b8486015263010000008084048b0b606086015264010000000084048b0b60808601526501000000000084048b0b60a0860152600160301b9093048a0b60c085015284518086018652600389015460ff8082168352908490048116828c0152865180880190975260048a0154808216885284900481169a87019a909a52600589015460078a01546008909a01546001600160a01b039099169c50969a9499909895979487900b9683810482169683820483169695909104821694818316948204831693909104909116908d565b600254604051634810bc5960e01b8152600481018490526000916001600160a01b031690634810bc59906024016101e060405180830381865afa158015611b0b573d6000803e3d6000fd5b505050506040513d601f19601f82011682018060405250810190611b2f919061435a565b606001516005546040516347ef26b160e01b8152600481018590529192506000916001600160a01b03909116906347ef26b19060240160e060405180830381865afa158015611b82573d6000803e3d6000fd5b505050506040513d601f19601f82011682018060405250810190611ba69190614401565b90506000600b8481548110611bbd57611bbd613afe565b9060005260206000209060090201905081600001518360000151611be1919061441d565b60028201805460ff191660ff9290921691909117905560208281015190840151611c0b919061441d565b60028201805460ff929092166101000261ff001990921691909117905560408083015190840151611c3c919061441d565b60028201805460ff92909216620100000262ff00001990921691909117905560608083015190840151611c6f919061441d565b60028201805460ff9290921663010000000263ff0000001990921691909117905560808083015190840151611ca4919061441d565b60028201805460ff929092166401000000000264ff000000001990921691909117905560a08083015190840151611cdb919061441d565b60028201805460ff92909216650100000000000265ff00000000001990921691909117905560c08083015190840151611d14919061441d565b6002909101805460ff92909216600160301b0266ff0000000000001990921691909117905550505050565b80518251600091611d4f9161443e565b60000b600103611d6157506000610838565b81518351611d6f919061443e565b60000b19611d7f57506001610838565b81602001518360200151611d93919061443e565b60000b19611da357506002610838565b81602001518360200151611db7919061443e565b60000b600103611dc957506003610838565b60405162461bcd60e51b8152602060048201526013602482015272115c9c9bdc8e88139bdd0818591a9858d95b9d606a1b6044820152606401610614565b80600b8381548110611e1b57611e1b613afe565b600091825260208220600760099092020101805490919061094b90849060ff166140db565b6000600b8481548110611e5557611e55613afe565b600091825260208220600254600992909202016001810154604051634810bc5960e01b815260048101919091529093506001600160a01b0390911690634810bc59906024016101e060405180830381865afa158015611eb8573d6000803e3d6000fd5b505050506040513d601f19601f82011682018060405250810190611edc919061435a565b6005830180549192508591600090611ef7908490830b61441d565b825460ff9182166101009390930a9283029190920219909116179055506060810151516005830154600091820b910b12611f3457611f3485612e56565b5050505050565b60005b8151811015612da457611f7f6040518060400160405280601681526020017520b838363cb4b7339032b33332b1ba10373ab6b132b960511b8152508261311b565b6000600b8781548110611f9457611f94613afe565b6000918252602090912060099091020190506001838381518110611fba57611fba613afe565b6020026020010151600001516016811115611fd757611fd7613d54565b50506002838381518110611fed57611fed613afe565b602002602001015160000151601681111561200a5761200a613d54565b036120505782828151811061202157612021613afe565b6020026020010151602001516000612039919061443e565b60058201805460ff191660ff929092169190911790555b600383838151811061206457612064613afe565b602002602001015160000151601681111561208157612081613d54565b0361208f5761208f87612e56565b60048383815181106120a3576120a3613afe565b60200260200101516000015160168111156120c0576120c0613d54565b036121435760035484516020860151604051637f1b46bd60e11b81526004810189905260ff928316602482015291166044820152600160648201526001600160a01b039091169063fe368d7a90608401600060405180830381600087803b15801561212a57600080fd5b505af115801561213e573d6000803e3d6000fd5b505050505b600583838151811061215757612157613afe565b602002602001015160000151601681111561217457612174613d54565b5050600683838151811061218a5761218a613afe565b60200260200101516000015160168111156121a7576121a7613d54565b0361221c578282815181106121be576121be613afe565b60209081029190910181015101516005820180546000906121e2908490830b61443e565b825460ff9182166101009390930a9283029190920219909116179055506005810154600090810b121561221c5760058101805460ff191690555b600783838151811061223057612230613afe565b602002602001015160000151601681111561224d5761224d613d54565b5050600883838151811061226357612263613afe565b602002602001015160000151601681111561228057612280613d54565b036122ae576122ae8784848151811061229b5761229b613afe565b6020026020010151602001516001611e40565b60098383815181106122c2576122c2613afe565b60200260200101516000015160168111156122df576122df613d54565b0361230d5761230d878484815181106122fa576122fa613afe565b6020026020010151602001516000611e40565b600a83838151811061232157612321613afe565b602002602001015160000151601681111561233e5761233e613d54565b036126e757600083838151811061235757612357613afe565b6020026020010151602001519050600b601681111561237857612378613d54565b84612384856001613bcc565b8151811061239457612394613afe565b60200260200101516000015160168111156123b1576123b1613d54565b146123be576123be61445f565b6000846001815181106123d3576123d3613afe565b60200260200101516020015160088111156123f0576123f0613d54565b9050600c85612400866002613bcc565b8151811061241057612410613afe565b602002602001015160000151601681111561242d5761242d613d54565b1461243a5761243a61445f565b60008560028151811061244f5761244f613afe565b602002602001015160200151600381111561246c5761246c613d54565b600354885160208a01516040516315636a4d60e01b8152600481018d905260ff9283166024820152911660448201529192506000916001600160a01b03909116906315636a4d90606401608060405180830381865afa1580156124d3573d6000803e3d6000fd5b505050506040513d601f19601f820116820180604052508101906124f79190614475565b9050600382600381111561250d5761250d613d54565b0361260b5760005b60048110156126005781816004811061253057612530613afe565b602002015115156001036125ee5760005b858110156125ec576000612555838c61146d565b9050600660009054906101000a90046001600160a01b03166001600160a01b0316631cef40f68e88846000015185602001516040518563ffffffff1660e01b81526004016125a694939291906144de565b600060405180830381600087803b1580156125c057600080fd5b505af11580156125d4573d6000803e3d6000fd5b505050505080806125e490613b46565b915050612541565b505b806125f881613b46565b915050612515565b505050505050612da4565b60005b84811015612600576006546001600160a01b0316631cef40f68c86600187600381111561263d5761263d613d54565b1461264f5760048a015460ff16612652565b8c515b600188600381111561266657612666613d54565b1461267d5760048b0154610100900460ff16612683565b8d602001515b6040518563ffffffff1660e01b81526004016126a294939291906144de565b600060405180830381600087803b1580156126bc57600080fd5b505af11580156126d0573d6000803e3d6000fd5b5050505080806126df90613b46565b91505061260e565b600d8383815181106126fb576126fb613afe565b602002602001015160000151601681111561271857612718613d54565b03612744576127448784848151811061273357612733613afe565b6020026020010151602001516115c2565b600e83838151811061275857612758613afe565b602002602001015160000151601681111561277557612775613d54565b5050600f83838151811061278b5761278b613afe565b60200260200101516000015160168111156127a8576127a8613d54565b036129c25760008383815181106127c1576127c1613afe565b6020908102919091018101510151600554604051633841fae160e01b8152600481018b90529192506000916001600160a01b0390911690633841fae190602401600060405180830381865afa15801561281e573d6000803e3d6000fd5b505050506040513d6000823e601f3d908101601f191682016040526128469190810190614514565b8051909150156129bf576000600182516128609190613b5f565b90505b80156128ff57600061287660008361166d565b9050828160ff168151811061288d5761288d613afe565b60200260200101518383815181106128a7576128a7613afe565b60200260200101518484815181106128c1576128c1613afe565b60200260200101858460ff16815181106128dd576128dd613afe565b60209081029190910101919091525250806128f781614599565b915050612863565b5060005b81518510156129bd5760055482516001600160a01b0390911690635f09c782908c9085908590811061293757612937613afe565b60200260200101516040518363ffffffff1660e01b8152600401612965929190918252602082015260400190565b600060405180830381600087803b15801561297f57600080fd5b505af1158015612993573d6000803e3d6000fd5b5050505082806129a290614599565b93505082156129bd57806129b581613b46565b915050612903565b505b50505b60118383815181106129d6576129d6613afe565b60200260200101516000015160168111156129f3576129f3613d54565b03612b10576005838381518110612a0c57612a0c613afe565b60200260200101516020015103612b1057600354604051632fc4a8f360e11b81526004810187905260009182916001600160a01b0390911690635f8951e6906024016040805180830381865afa158015612a6a573d6000803e3d6000fd5b505050506040513d601f19601f82011682018060405250810190612a8e91906145b0565b60065460408051808201825260ff8086168252841660208201529051631751422560e01b81529395509193506001600160a01b031691631751422591612adb918c91908e906004016145d4565b600060405180830381600087803b158015612af557600080fd5b505af1158015612b09573d6000803e3d6000fd5b5050505050505b6012838381518110612b2457612b24613afe565b6020026020010151600001516016811115612b4157612b41613d54565b50506013838381518110612b5757612b57613afe565b6020026020010151600001516016811115612b7457612b74613d54565b50506015838381518110612b8a57612b8a613afe565b6020026020010151600001516016811115612ba757612ba7613d54565b03612d5e5760005b6004811015612d5c5760035485516020870151604051630dd43b9b60e31b8152600481018a905260ff928316602482015291166044820152606481018390526000916001600160a01b031690636ea1dcd890608401606060405180830381865afa158015612c21573d6000803e3d6000fd5b505050506040513d601f19601f82011682018060405250810190612c459190614606565b9050600181604001516004811115612c5f57612c5f613d54565b1480612c805750600281604001516004811115612c7e57612c7e613d54565b145b80612ca05750600381604001516004811115612c9e57612c9e613d54565b145b15612d4957600360009054906101000a90046001600160a01b03166001600160a01b0316635921522388886000015189602001518660018b8b81518110612ce957612ce9613afe565b6020026020010151602001516040518763ffffffff1660e01b8152600401612d169695949392919061467b565b600060405180830381600087803b158015612d3057600080fd5b505af1158015612d44573d6000803e3d6000fd5b505050505b5080612d5481613b46565b915050612baf565b505b6014838381518110612d7257612d72613afe565b6020026020010151600001516016811115612d8f57612d8f613d54565b50505080612d9c81613b46565b915050611f3e565b505050505050565b6000546001600160a01b031633146111c25760405162461bcd60e51b815260206004820181905260248201527f4f776e61626c653a2063616c6c6572206973206e6f7420746865206f776e65726044820152606401610614565b600080546001600160a01b038381166001600160a01b0319831681178455604051919092169283917f8be0079c531659141344cd1fd0a4f28419497f9722a3daafe3b4186f6b6457e09190a35050565b6000600b8281548110612e6b57612e6b613afe565b600091825260209091206005546009909202016008810154600382015460405163268f1d4d60e01b815260048101929092526024820186905260ff80821660448401526101009091041660648201529092506001600160a01b039091169063268f1d4d90608401600060405180830381600087803b158015612eec57600080fd5b505af1158015612f00573d6000803e3d6000fd5b50505060058201805460ff199081169091556007830180549091169055506001810154612f2d9083611ac0565b600254600b80546001600160a01b0390921691636d6ba756919085908110612f5757612f57613afe565b9060005260206000209060090201600101546040518263ffffffff1660e01b8152600401612f8791815260200190565b600060405180830381600087803b158015612fa157600080fd5b505af1158015612fb5573d6000803e3d6000fd5b50505050600a600b8381548110612fce57612fce613afe565b600091825260209091208254600990920201600301805460ff92831660ff19821681178355935461ffff19909116909317610100938490049092169092021790555050565b60608160000361303a5750506040805180820190915260018152600360fc1b602082015290565b8160005b8115613064578061304e81613b46565b915061305d9050600a83613bb8565b915061303e565b6000816001600160401b0381111561307e5761307e6134f3565b6040519080825280601f01601f1916602001820160405280156130a8576020820181803683370190505b5090505b8415613113576130bd600183613b5f565b91506130ca600a86614282565b6130d5906030613bcc565b60f81b8183815181106130ea576130ea613afe565b60200101906001600160f81b031916908160001a90535061310c600a86613bb8565b94506130ac565b949350505050565b61316082826040516024016131319291906146be565b60408051601f198184030181529190526020810180516001600160e01b0316632d839cb360e21b179052613164565b5050565b80516a636f6e736f6c652e6c6f67602083016000808483855afa5050505050565b604080516101c08101825260008082526020808301829052835160e081018552828152908101829052808401829052606081018290526080810182905260a0810182905260c0810191909152909182019081526020016131fe6040518060400160405280600060ff168152602001600060ff1681525090565b81526020016132266040518060400160405280600060ff168152602001600060ff1681525090565b81526000602082018190526040820181905260608083018290526080830182905260a083015260c0820181905260e0820181905261010082018190526101209091015290565b801515811461199f57600080fd5b60008060006060848603121561328f57600080fd5b833592506020840135915060408401356132a88161326c565b809150509250925092565b6000602082840312156132c557600080fd5b5035919050565b8051600081810b84526020830151810b60208501526040830151810b60408501526060830151810b60608501526080830151810b608085015260a0830151810b60a085015260c0830151810b60c085015250505050565b600081518084526020808501945080840160005b8381101561335657815160ff1687529582019590820190600101613337565b509495945050505050565b6020815261337b6020820183516001600160a01b03169052565b602082015160408201526000604083015161339960608401826132cc565b5060608301516101406133be81850183805160ff908116835260209182015116910152565b608085015191506101806133e481860184805160ff908116835260209182015116910152565b60a086015192506133fb6101c086018460000b9052565b60c086015160ff9081166101e087015260e08701518116610200870152610100870151166102208601526101208601516102c061024087018190529093506134476102e0870185613323565b9287015160ff1661026087015261016087015115156102808701529086015115156102a08601526101a090950151949093019390935250919050565b6000806040838503121561349657600080fd5b50508035926020909101359150565b600080600080608085870312156134bb57600080fd5b5050823594602084013594506040840135936060013592509050565b80356001600160a01b03811681146134ee57600080fd5b919050565b634e487b7160e01b600052604160045260246000fd5b604080519081016001600160401b038111828210171561352b5761352b6134f3565b60405290565b60405160e081016001600160401b038111828210171561352b5761352b6134f3565b60405161012081016001600160401b038111828210171561352b5761352b6134f3565b604051608081016001600160401b038111828210171561352b5761352b6134f3565b604051601f8201601f191681016001600160401b03811182821017156135c0576135c06134f3565b604052919050565b60006001600160401b038211156135e1576135e16134f3565b5060051b60200190565b600082601f8301126135fc57600080fd5b8135602061361161360c836135c8565b613598565b82815260059290921b8401810191818101908684111561363057600080fd5b8286015b8481101561364b5780358352918301918301613634565b509695505050505050565b60008060006060848603121561366b57600080fd5b8335925061367b602085016134d7565b915060408401356001600160401b0381111561369657600080fd5b6136a2868287016135eb565b9150509250925092565b6000806000606084860312156136c157600080fd5b505081359360208301359350604090920135919050565b600080604083850312156136eb57600080fd5b8235915060208301356001600160401b0381111561370857600080fd5b613714858286016135eb565b9150509250929050565b60ff8116811461199f57600080fd5b60006040828403121561373f57600080fd5b613747613509565b905081356137548161371e565b815260208201356137648161371e565b602082015292915050565b6000806000806000806000610100888a03121561378b57600080fd5b873596506020880135955060408801359450606088013593506137b18960808a0161372d565b925060c0880135915060e0880135600681106137cc57600080fd5b8091505092959891949750929550565b6000806000608084860312156137f157600080fd5b6137fb858561372d565b95604085013595506060909401359392505050565b600080600080600080600080610100898b03121561382d57600080fd5b613836896134d7565b975061384460208a016134d7565b965061385260408a016134d7565b955061386060608a016134d7565b945061386e60808a016134d7565b935061387c60a08a016134d7565b925061388a60c08a016134d7565b915061389860e08a016134d7565b90509295985092959890939650565b600080606083850312156138ba57600080fd5b823591506138cb846020850161372d565b90509250929050565b604081016108388284805160ff908116835260209182015116910152565b6000806040838503121561390557600080fd5b8235915060208301356139178161371e565b809150509250929050565b6000806040838503121561393557600080fd5b82356139408161371e565b915060208301356139178161371e565b6000806040838503121561396357600080fd5b82356001600160401b0381111561397957600080fd5b613985858286016135eb565b95602094909401359450505050565b60008060008060008060e087890312156139ad57600080fd5b8635955060208701359450604087013593506139cc886060890161372d565b925060a0870135915060c087013590509295509295509295565b6000602082840312156139f857600080fd5b610b2a826134d7565b6001600160a01b038e168152602081018d90526102a08101613a26604083018e6132cc565b8b5160ff90811661012084015260209c8d015181166101408401528b5181166101608401529a909b01518a1661018082015260009890980b6101a08901529588166101c08801529387166101e087015291861661020086015290941661022084015292151561024083015291151561026082015261028001529392505050565b60008060808385031215613ab957600080fd5b613ac3848461372d565b91506138cb846040850161372d565b602080825260129082015271139bdd0819d85b595cc818dbdb9d1c9858dd60721b604082015260600190565b634e487b7160e01b600052603260045260246000fd5b634e487b7160e01b600052601160045260246000fd5b6000600160ff1b8201613b3f57613b3f613b14565b5060000390565b600060018201613b5857613b58613b14565b5060010190565b8181038181111561083857610838613b14565b60ff828116828216039081111561083857610838613b14565b808202811582820484141761083857610838613b14565b634e487b7160e01b600052601260045260246000fd5b600082613bc757613bc7613ba2565b500490565b8082018082111561083857610838613b14565b6000606082018583526020606081850152818651808452608086019150828801935060005b81811015613c2057845183529383019391830191600101613c04565b50506001600160a01b0395909516604094909401939093525091949350505050565b8181036000831280158383131683831282161715613c6257613c62613b14565b5092915050565b80516134ee8161371e565b80516134ee8161326c565b60006101408284031215613c9257600080fd5b613c9a613531565b8251613ca58161371e565b8152602083810151613cb68161371e565b82820152605f84018513613cc957600080fd5b613cd1613576565b8060c0860187811115613ce357600080fd5b604087015b81811015613cff5780518452928401928401613ce8565b50816040860152613d0f81613c74565b606086015250505050613d2460e08401613c74565b6080820152613d366101008401613c74565b60a0820152613d486101208401613c74565b60c08201529392505050565b634e487b7160e01b600052602160045260246000fd5b600082601f830112613d7b57600080fd5b81516020613d8b61360c836135c8565b82815260069290921b84018101918181019086841115613daa57600080fd5b8286015b8481101561364b5760408189031215613dc75760008081fd5b613dcf613509565b815160178110613ddf5760008081fd5b81528185015185820152835291830191604001613dae565b600060208284031215613e0957600080fd5b81516001600160401b0380821115613e2057600080fd5b9083019060e08286031215613e3457600080fd5b613e3c613531565b82518152613e4c60208401613c74565b6020820152613e5d60408401613c69565b6040820152613e6e60608401613c69565b6060820152608083015182811115613e8557600080fd5b613e9187828601613d6a565b60808301525060a083015182811115613ea957600080fd5b613eb587828601613d6a565b60a08301525060c083015182811115613ecd57600080fd5b613ed987828601613d6a565b60c08301525095945050505050565b60068110613ef857613ef8613d54565b9052565b82815260408101610b2a6020830184613ee8565b60408101613f1e8285613ee8565b8260208301529392505050565b60006020808385031215613f3e57600080fd5b82516001600160401b0380821115613f5557600080fd5b818501915085601f830112613f6957600080fd5b8151613f7761360c826135c8565b81815260059190911b83018401908481019088831115613f9657600080fd5b8585015b83811015613fce57805185811115613fb25760008081fd5b613fc08b89838a0101613d6a565b845250918601918601613f9a565b5098975050505050505050565b600081518084526020808501945080840160005b8381101561335657815180516017811061400b5761400b613d54565b88528301518388015260409096019590820190600101613fef565b84815283602082015260806040820152825160808201526020830151151560a082015260ff60408401511660c08201526000606084015161406c60e084018260ff169052565b50608084015160e0610100840152614088610160840182613fdb565b905060a0850151607f1980858403016101208601526140a78383613fdb565b925060c087015191508085840301610140860152506140c68282613fdb565b91505082810360608401526109d18185613fdb565b60ff818116838216019081111561083857610838613b14565b60005b8381101561410f5781810151838201526020016140f7565b50506000910152565b72024b73b30b634b2103234b932b1ba34b7b71d1606d1b8152600082516141468160138501602087016140f4565b9190910160130192915050565b6000815180845261416b8160208601602086016140f4565b601f01601f19169290920160200192915050565b602081526000610b2a6020830184614153565b600181815b808511156141cd5781600019048211156141b3576141b3613b14565b808516156141c057918102915b93841c9390800290614197565b509250929050565b6000826141e457506001610838565b816141f157506000610838565b816001811461420757600281146142115761422d565b6001915050610838565b60ff84111561422257614222613b14565b50506001821b610838565b5060208310610133831016604e8410600b8410161715614250575081810a610838565b61425a8383614192565b806000190482111561426e5761426e613b14565b029392505050565b6000610b2a83836141d5565b60008261429157614291613ba2565b500690565b600060ff821660ff81036142ac576142ac613b14565b60010192915050565b8051600081900b81146134ee57600080fd5b600060e082840312156142d957600080fd5b6142e1613531565b90506142ec826142b5565b81526142fa602083016142b5565b602082015261430b604083016142b5565b604082015261431c606083016142b5565b606082015261432d608083016142b5565b608082015261433e60a083016142b5565b60a082015261434f60c083016142b5565b60c082015292915050565b60006101e0828403121561436d57600080fd5b614375613553565b82518152602083015160208201526040830151604082015261439a84606085016142c7565b60608201526143ac6101408401613c69565b60808201526143be6101608401613c69565b60a08201526143d06101808401613c69565b60c08201526143e26101a08401613c69565b60e08201526143f46101c08401613c74565b6101008201529392505050565b600060e0828403121561441357600080fd5b610b2a83836142c7565b600081810b9083900b01607f8113607f198212171561083857610838613b14565b600082810b9082900b03607f198112607f8213171561083857610838613b14565b634e487b7160e01b600052600160045260246000fd5b60006080828403121561448757600080fd5b82601f83011261449657600080fd5b61449e613576565b8060808401858111156144b057600080fd5b845b818110156144d35780516144c58161326c565b8452602093840193016144b2565b509095945050505050565b84815260808101600985106144f5576144f5613d54565b602082019490945260ff92831660408201529116606090910152919050565b6000602080838503121561452757600080fd5b82516001600160401b0381111561453d57600080fd5b8301601f8101851361454e57600080fd5b805161455c61360c826135c8565b81815260059190911b8201830190838101908783111561457b57600080fd5b928401925b828410156109d157835182529284019290840190614580565b6000816145a8576145a8613b14565b506000190190565b600080604083850312156145c357600080fd5b505080516020909101519092909150565b838152608081016145f86020830185805160ff908116835260209182015116910152565b826060830152949350505050565b60006060828403121561461857600080fd5b604051606081018181106001600160401b038211171561463a5761463a6134f3565b60405282516146488161371e565b815260208301516146588161371e565b602082015260408301516005811061466f57600080fd5b60408201529392505050565b86815260ff8681166020830152851660408201526060810184905260c08101600584106146aa576146aa613d54565b608082019390935260a00152949350505050565b6040815260006146d16040830185614153565b9050826020830152939250505056fe854f143c4475e8754c8844dbfe9928cf11388710860ea82bb21c19da10f6c73da26469706673582212201fe6f26b51d21117b091037afa15102dd234988cd3042af208cc41131b9686f764736f6c63430008110033",
  "devdoc": {
    "kind": "dev",
    "methods": {
      "owner()": {
        "details": "Returns the address of the current owner."
      },
      "renounceOwnership()": {
        "details": "Leaves the contract without owner. It will not be possible to call `onlyOwner` functions anymore. Can only be called by the current owner. NOTE: Renouncing ownership will leave the contract without an owner, thereby removing any functionality that is only available to the owner."
      },
      "transferOwnership(address)": {
        "details": "Transfers ownership of the contract to a new account (`newOwner`). Can only be called by the current owner."
      }
    },
    "version": 1
  },
  "userdoc": {
    "kind": "user",
    "methods": {},
    "version": 1
  },
  "storageLayout": {
    "storage": [
      {
        "astId": 7,
        "contract": "contracts/BCPlayers.sol:BCPlayers",
        "label": "_owner",
        "offset": 0,
        "slot": "0",
        "type": "t_address"
      },
      {
        "astId": 10398,
        "contract": "contracts/BCPlayers.sol:BCPlayers",
        "label": "TODO_randomSeed",
        "offset": 0,
        "slot": "1",
        "type": "t_uint256"
      },
      {
        "astId": 8331,
        "contract": "contracts/BCPlayers.sol:BCPlayers",
        "label": "chars",
        "offset": 0,
        "slot": "2",
        "type": "t_contract(CharInterface)8123"
      },
      {
        "astId": 8334,
        "contract": "contracts/BCPlayers.sol:BCPlayers",
        "label": "maps",
        "offset": 0,
        "slot": "3",
        "type": "t_contract(MapInterface)8256"
      },
      {
        "astId": 8337,
        "contract": "contracts/BCPlayers.sol:BCPlayers",
        "label": "bcEvents",
        "offset": 0,
        "slot": "4",
        "type": "t_contract(EventsInterface)8101"
      },
      {
        "astId": 8340,
        "contract": "contracts/BCPlayers.sol:BCPlayers",
        "label": "items",
        "offset": 0,
        "slot": "5",
        "type": "t_contract(ItemsInterface)8301"
      },
      {
        "astId": 8343,
        "contract": "contracts/BCPlayers.sol:BCPlayers",
        "label": "games",
        "offset": 0,
        "slot": "6",
        "type": "t_contract(GamesInterface)8324"
      },
      {
        "astId": 8345,
        "contract": "contracts/BCPlayers.sol:BCPlayers",
        "label": "lobbiesAddress",
        "offset": 0,
        "slot": "7",
        "type": "t_address"
      },
      {
        "astId": 8347,
        "contract": "contracts/BCPlayers.sol:BCPlayers",
        "label": "charsAddress",
        "offset": 0,
        "slot": "8",
        "type": "t_address"
      },
      {
        "astId": 8349,
        "contract": "contracts/BCPlayers.sol:BCPlayers",
        "label": "actionsAddress",
        "offset": 0,
        "slot": "9",
        "type": "t_address"
      },
      {
        "astId": 8423,
        "contract": "contracts/BCPlayers.sol:BCPlayers",
        "label": "StartLocation",
        "offset": 0,
        "slot": "10",
        "type": "t_struct(Position)10183_storage"
      },
      {
        "astId": 8427,
        "contract": "contracts/BCPlayers.sol:BCPlayers",
        "label": "players",
        "offset": 0,
        "slot": "11",
        "type": "t_array(t_struct(Player)10156_storage)dyn_storage"
      }
    ],
    "types": {
      "t_address": {
        "encoding": "inplace",
        "label": "address",
        "numberOfBytes": "20"
      },
      "t_array(t_struct(Player)10156_storage)dyn_storage": {
        "base": "t_struct(Player)10156_storage",
        "encoding": "dynamic_array",
        "label": "struct BCTypes.Player[]",
        "numberOfBytes": "32"
      },
      "t_array(t_uint8)dyn_storage": {
        "base": "t_uint8",
        "encoding": "dynamic_array",
        "label": "uint8[]",
        "numberOfBytes": "32"
      },
      "t_bool": {
        "encoding": "inplace",
        "label": "bool",
        "numberOfBytes": "1"
      },
      "t_contract(CharInterface)8123": {
        "encoding": "inplace",
        "label": "contract CharInterface",
        "numberOfBytes": "20"
      },
      "t_contract(EventsInterface)8101": {
        "encoding": "inplace",
        "label": "contract EventsInterface",
        "numberOfBytes": "20"
      },
      "t_contract(GamesInterface)8324": {
        "encoding": "inplace",
        "label": "contract GamesInterface",
        "numberOfBytes": "20"
      },
      "t_contract(ItemsInterface)8301": {
        "encoding": "inplace",
        "label": "contract ItemsInterface",
        "numberOfBytes": "20"
      },
      "t_contract(MapInterface)8256": {
        "encoding": "inplace",
        "label": "contract MapInterface",
        "numberOfBytes": "20"
      },
      "t_int8": {
        "encoding": "inplace",
        "label": "int8",
        "numberOfBytes": "1"
      },
      "t_struct(Player)10156_storage": {
        "encoding": "inplace",
        "label": "struct BCTypes.Player",
        "members": [
          {
            "astId": 10125,
            "contract": "contracts/BCPlayers.sol:BCPlayers",
            "label": "owner",
            "offset": 0,
            "slot": "0",
            "type": "t_address"
          },
          {
            "astId": 10127,
            "contract": "contracts/BCPlayers.sol:BCPlayers",
            "label": "characterId",
            "offset": 0,
            "slot": "1",
            "type": "t_uint256"
          },
          {
            "astId": 10130,
            "contract": "contracts/BCPlayers.sol:BCPlayers",
            "label": "currentTraits",
            "offset": 0,
            "slot": "2",
            "type": "t_struct(Traits)10317_storage"
          },
          {
            "astId": 10133,
            "contract": "contracts/BCPlayers.sol:BCPlayers",
            "label": "position",
            "offset": 0,
            "slot": "3",
            "type": "t_struct(Position)10183_storage"
          },
          {
            "astId": 10136,
            "contract": "contracts/BCPlayers.sol:BCPlayers",
            "label": "lastPos",
            "offset": 0,
            "slot": "4",
            "type": "t_struct(Position)10183_storage"
          },
          {
            "astId": 10138,
            "contract": "contracts/BCPlayers.sol:BCPlayers",
            "label": "healthDmgTaken",
            "offset": 0,
            "slot": "5",
            "type": "t_int8"
          },
          {
            "astId": 10140,
            "contract": "contracts/BCPlayers.sol:BCPlayers",
            "label": "armorDmgTaken",
            "offset": 1,
            "slot": "5",
            "type": "t_uint8"
          },
          {
            "astId": 10142,
            "contract": "contracts/BCPlayers.sol:BCPlayers",
            "label": "actionsTaken",
            "offset": 2,
            "slot": "5",
            "type": "t_uint8"
          },
          {
            "astId": 10144,
            "contract": "contracts/BCPlayers.sol:BCPlayers",
            "label": "dataTokens",
            "offset": 3,
            "slot": "5",
            "type": "t_uint8"
          },
          {
            "astId": 10147,
            "contract": "contracts/BCPlayers.sol:BCPlayers",
            "label": "currentEffects",
            "offset": 0,
            "slot": "6",
            "type": "t_array(t_uint8)dyn_storage"
          },
          {
            "astId": 10149,
            "contract": "contracts/BCPlayers.sol:BCPlayers",
            "label": "numItemsHeld",
            "offset": 0,
            "slot": "7",
            "type": "t_uint8"
          },
          {
            "astId": 10151,
            "contract": "contracts/BCPlayers.sol:BCPlayers",
            "label": "canHarmOthers",
            "offset": 1,
            "slot": "7",
            "type": "t_bool"
          },
          {
            "astId": 10153,
            "contract": "contracts/BCPlayers.sol:BCPlayers",
            "label": "dead",
            "offset": 2,
            "slot": "7",
            "type": "t_bool"
          },
          {
            "astId": 10155,
            "contract": "contracts/BCPlayers.sol:BCPlayers",
            "label": "gameId",
            "offset": 0,
            "slot": "8",
            "type": "t_uint256"
          }
        ],
        "numberOfBytes": "288"
      },
      "t_struct(Position)10183_storage": {
        "encoding": "inplace",
        "label": "struct BCTypes.Position",
        "members": [
          {
            "astId": 10180,
            "contract": "contracts/BCPlayers.sol:BCPlayers",
            "label": "row",
            "offset": 0,
            "slot": "0",
            "type": "t_uint8"
          },
          {
            "astId": 10182,
            "contract": "contracts/BCPlayers.sol:BCPlayers",
            "label": "col",
            "offset": 1,
            "slot": "0",
            "type": "t_uint8"
          }
        ],
        "numberOfBytes": "32"
      },
      "t_struct(Traits)10317_storage": {
        "encoding": "inplace",
        "label": "struct BCTypes.Traits",
        "members": [
          {
            "astId": 10304,
            "contract": "contracts/BCPlayers.sol:BCPlayers",
            "label": "health",
            "offset": 0,
            "slot": "0",
            "type": "t_int8"
          },
          {
            "astId": 10306,
            "contract": "contracts/BCPlayers.sol:BCPlayers",
            "label": "carry",
            "offset": 1,
            "slot": "0",
            "type": "t_int8"
          },
          {
            "astId": 10308,
            "contract": "contracts/BCPlayers.sol:BCPlayers",
            "label": "defense",
            "offset": 2,
            "slot": "0",
            "type": "t_int8"
          },
          {
            "astId": 10310,
            "contract": "contracts/BCPlayers.sol:BCPlayers",
            "label": "hack",
            "offset": 3,
            "slot": "0",
            "type": "t_int8"
          },
          {
            "astId": 10312,
            "contract": "contracts/BCPlayers.sol:BCPlayers",
            "label": "breach",
            "offset": 4,
            "slot": "0",
            "type": "t_int8"
          },
          {
            "astId": 10314,
            "contract": "contracts/BCPlayers.sol:BCPlayers",
            "label": "shoot",
            "offset": 5,
            "slot": "0",
            "type": "t_int8"
          },
          {
            "astId": 10316,
            "contract": "contracts/BCPlayers.sol:BCPlayers",
            "label": "melee",
            "offset": 6,
            "slot": "0",
            "type": "t_int8"
          }
        ],
        "numberOfBytes": "32"
      },
      "t_uint256": {
        "encoding": "inplace",
        "label": "uint256",
        "numberOfBytes": "32"
      },
      "t_uint8": {
        "encoding": "inplace",
        "label": "uint8",
        "numberOfBytes": "1"
      }
    }
  }
}