{
  "address": "0x59C6F65ED29f4Fb8646603c55905eBBCea437A47",
  "abi": [
    {
      "inputs": [],
      "stateMutability": "nonpayable",
      "type": "constructor"
    },
    {
      "anonymous": false,
      "inputs": [
        {
          "indexed": false,
          "internalType": "uint256",
          "name": "gameId",
          "type": "uint256"
        },
        {
          "indexed": false,
          "internalType": "uint256",
          "name": "roll",
          "type": "uint256"
        },
        {
          "indexed": false,
          "internalType": "uint256",
          "name": "forValue",
          "type": "uint256"
        },
        {
          "indexed": false,
          "internalType": "uint256",
          "name": "against",
          "type": "uint256"
        }
      ],
      "name": "ChallengeEvent",
      "type": "event"
    },
    {
      "anonymous": false,
      "inputs": [
        {
          "indexed": false,
          "internalType": "uint256",
          "name": "gameId",
          "type": "uint256"
        },
        {
          "indexed": false,
          "internalType": "uint256",
          "name": "roll",
          "type": "uint256"
        }
      ],
      "name": "DiceRollEvent",
      "type": "event"
    },
    {
      "anonymous": false,
      "inputs": [
        {
          "indexed": false,
          "internalType": "uint256",
          "name": "gameId",
          "type": "uint256"
        },
        {
          "indexed": false,
          "internalType": "uint256",
          "name": "playerId",
          "type": "uint256"
        },
        {
          "components": [
            {
              "internalType": "uint256",
              "name": "id",
              "type": "uint256"
            },
            {
              "internalType": "bool",
              "name": "permanent",
              "type": "bool"
            },
            {
              "internalType": "uint8",
              "name": "rollForLow",
              "type": "uint8"
            },
            {
              "internalType": "uint8",
              "name": "rollForHigh",
              "type": "uint8"
            },
            {
              "components": [
                {
                  "internalType": "enum BCEvents.EffectTypes",
                  "name": "effect",
                  "type": "uint8"
                },
                {
                  "internalType": "uint256",
                  "name": "value",
                  "type": "uint256"
                }
              ],
              "internalType": "struct BCEvents.Effect[]",
              "name": "defaultEffect",
              "type": "tuple[]"
            },
            {
              "components": [
                {
                  "internalType": "enum BCEvents.EffectTypes",
                  "name": "effect",
                  "type": "uint8"
                },
                {
                  "internalType": "uint256",
                  "name": "value",
                  "type": "uint256"
                }
              ],
              "internalType": "struct BCEvents.Effect[]",
              "name": "lowEffect",
              "type": "tuple[]"
            },
            {
              "components": [
                {
                  "internalType": "enum BCEvents.EffectTypes",
                  "name": "effect",
                  "type": "uint8"
                },
                {
                  "internalType": "uint256",
                  "name": "value",
                  "type": "uint256"
                }
              ],
              "internalType": "struct BCEvents.Effect[]",
              "name": "highEffect",
              "type": "tuple[]"
            }
          ],
          "indexed": false,
          "internalType": "struct BCEvents.BCEvent",
          "name": "bcEvent",
          "type": "tuple"
        },
        {
          "components": [
            {
              "internalType": "enum BCEvents.EffectTypes",
              "name": "effect",
              "type": "uint8"
            },
            {
              "internalType": "uint256",
              "name": "value",
              "type": "uint256"
            }
          ],
          "indexed": false,
          "internalType": "struct BCEvents.Effect[]",
          "name": "appliedBCEffects",
          "type": "tuple[]"
        }
      ],
      "name": "EventResolvedEvent",
      "type": "event"
    },
    {
      "anonymous": false,
      "inputs": [
        {
          "indexed": true,
          "internalType": "address",
          "name": "previousOwner",
          "type": "address"
        },
        {
          "indexed": true,
          "internalType": "address",
          "name": "newOwner",
          "type": "address"
        }
      ],
      "name": "OwnershipTransferred",
      "type": "event"
    },
    {
      "inputs": [],
      "name": "StartLocation",
      "outputs": [
        {
          "internalType": "uint8",
          "name": "row",
          "type": "uint8"
        },
        {
          "internalType": "uint8",
          "name": "col",
          "type": "uint8"
        }
      ],
      "stateMutability": "view",
      "type": "function"
    },
    {
      "inputs": [
        {
          "internalType": "int256",
          "name": "x",
          "type": "int256"
        }
      ],
      "name": "abs",
      "outputs": [
        {
          "internalType": "int256",
          "name": "",
          "type": "int256"
        }
      ],
      "stateMutability": "pure",
      "type": "function"
    },
    {
      "inputs": [],
      "name": "actionsAddress",
      "outputs": [
        {
          "internalType": "address",
          "name": "",
          "type": "address"
        }
      ],
      "stateMutability": "view",
      "type": "function"
    },
    {
      "inputs": [
        {
          "internalType": "uint256",
          "name": "_charId",
          "type": "uint256"
        },
        {
          "internalType": "address",
          "name": "_owner",
          "type": "address"
        },
        {
          "internalType": "uint256[]",
          "name": "_itemIds",
          "type": "uint256[]"
        }
      ],
      "name": "addPlayer",
      "outputs": [
        {
          "internalType": "uint256",
          "name": "",
          "type": "uint256"
        }
      ],
      "stateMutability": "nonpayable",
      "type": "function"
    },
    {
      "inputs": [
        {
          "internalType": "uint256",
          "name": "_mapId",
          "type": "uint256"
        },
        {
          "internalType": "uint256[]",
          "name": "_players",
          "type": "uint256[]"
        }
      ],
      "name": "applyHazardDamage",
      "outputs": [],
      "stateMutability": "nonpayable",
      "type": "function"
    },
    {
      "inputs": [],
      "name": "bcEvents",
      "outputs": [
        {
          "internalType": "contract EventsInterface",
          "name": "",
          "type": "address"
        }
      ],
      "stateMutability": "view",
      "type": "function"
    },
    {
      "inputs": [],
      "name": "chars",
      "outputs": [
        {
          "internalType": "contract CharInterface",
          "name": "",
          "type": "address"
        }
      ],
      "stateMutability": "view",
      "type": "function"
    },
    {
      "inputs": [],
      "name": "charsAddress",
      "outputs": [
        {
          "internalType": "address",
          "name": "",
          "type": "address"
        }
      ],
      "stateMutability": "view",
      "type": "function"
    },
    {
      "inputs": [
        {
          "internalType": "uint256",
          "name": "_playerId",
          "type": "uint256"
        },
        {
          "internalType": "uint256",
          "name": "_num",
          "type": "uint256"
        }
      ],
      "name": "decrementNumItemsHeld",
      "outputs": [],
      "stateMutability": "nonpayable",
      "type": "function"
    },
    {
      "inputs": [
        {
          "internalType": "uint256",
          "name": "_playerId",
          "type": "uint256"
        },
        {
          "internalType": "uint256",
          "name": "_gameId",
          "type": "uint256"
        },
        {
          "internalType": "uint256",
          "name": "_mapId",
          "type": "uint256"
        },
        {
          "components": [
            {
              "internalType": "uint8",
              "name": "row",
              "type": "uint8"
            },
            {
              "internalType": "uint8",
              "name": "col",
              "type": "uint8"
            }
          ],
          "internalType": "struct BCTypes.Position",
          "name": "_position",
          "type": "tuple"
        },
        {
          "internalType": "uint256",
          "name": "_eventId",
          "type": "uint256"
        },
        {
          "internalType": "uint256",
          "name": "_effectNum",
          "type": "uint256"
        }
      ],
      "name": "extApplyEffect",
      "outputs": [],
      "stateMutability": "nonpayable",
      "type": "function"
    },
    {
      "inputs": [
        {
          "internalType": "uint256",
          "name": "_choice",
          "type": "uint256"
        },
        {
          "internalType": "uint256",
          "name": "_eventPlayerId",
          "type": "uint256"
        },
        {
          "internalType": "uint256",
          "name": "_gameId",
          "type": "uint256"
        },
        {
          "internalType": "uint256",
          "name": "_mapId",
          "type": "uint256"
        },
        {
          "components": [
            {
              "internalType": "uint8",
              "name": "row",
              "type": "uint8"
            },
            {
              "internalType": "uint8",
              "name": "col",
              "type": "uint8"
            }
          ],
          "internalType": "struct BCTypes.Position",
          "name": "_position",
          "type": "tuple"
        },
        {
          "internalType": "uint256",
          "name": "_eventNumber",
          "type": "uint256"
        },
        {
          "internalType": "enum BCTypes.BCEventType",
          "name": "_eventType",
          "type": "uint8"
        }
      ],
      "name": "extChooseEffect",
      "outputs": [],
      "stateMutability": "nonpayable",
      "type": "function"
    },
    {
      "inputs": [
        {
          "internalType": "uint256",
          "name": "_id",
          "type": "uint256"
        }
      ],
      "name": "extGetActionsTaken",
      "outputs": [
        {
          "internalType": "uint256",
          "name": "",
          "type": "uint256"
        }
      ],
      "stateMutability": "view",
      "type": "function"
    },
    {
      "inputs": [
        {
          "internalType": "uint256",
          "name": "_id",
          "type": "uint256"
        }
      ],
      "name": "extGetPlayer",
      "outputs": [
        {
          "components": [
            {
              "internalType": "address",
              "name": "owner",
              "type": "address"
            },
            {
              "internalType": "uint256",
              "name": "characterId",
              "type": "uint256"
            },
            {
              "internalType": "uint256",
              "name": "id",
              "type": "uint256"
            },
            {
              "components": [
                {
                  "internalType": "int8",
                  "name": "health",
                  "type": "int8"
                },
                {
                  "internalType": "int8",
                  "name": "carry",
                  "type": "int8"
                },
                {
                  "internalType": "int8",
                  "name": "defense",
                  "type": "int8"
                },
                {
                  "internalType": "int8",
                  "name": "hack",
                  "type": "int8"
                },
                {
                  "internalType": "int8",
                  "name": "breach",
                  "type": "int8"
                },
                {
                  "internalType": "int8",
                  "name": "shoot",
                  "type": "int8"
                },
                {
                  "internalType": "int8",
                  "name": "melee",
                  "type": "int8"
                },
                {
                  "internalType": "bool",
                  "name": "hasGun",
                  "type": "bool"
                }
              ],
              "internalType": "struct BCTypes.Traits",
              "name": "currentTraits",
              "type": "tuple"
            },
            {
              "components": [
                {
                  "internalType": "uint8",
                  "name": "row",
                  "type": "uint8"
                },
                {
                  "internalType": "uint8",
                  "name": "col",
                  "type": "uint8"
                }
              ],
              "internalType": "struct BCTypes.Position",
              "name": "position",
              "type": "tuple"
            },
            {
              "components": [
                {
                  "internalType": "uint8",
                  "name": "row",
                  "type": "uint8"
                },
                {
                  "internalType": "uint8",
                  "name": "col",
                  "type": "uint8"
                }
              ],
              "internalType": "struct BCTypes.Position",
              "name": "lastPos",
              "type": "tuple"
            },
            {
              "internalType": "int8",
              "name": "healthDmgTaken",
              "type": "int8"
            },
            {
              "internalType": "uint8",
              "name": "armorDmgTaken",
              "type": "uint8"
            },
            {
              "internalType": "uint8",
              "name": "actionsTaken",
              "type": "uint8"
            },
            {
              "internalType": "uint8",
              "name": "dataTokens",
              "type": "uint8"
            },
            {
              "internalType": "uint8[]",
              "name": "currentEffects",
              "type": "uint8[]"
            },
            {
              "internalType": "uint8",
              "name": "numItemsHeld",
              "type": "uint8"
            },
            {
              "internalType": "bool",
              "name": "dead",
              "type": "bool"
            },
            {
              "internalType": "uint256",
              "name": "gameId",
              "type": "uint256"
            }
          ],
          "internalType": "struct BCTypes.Player",
          "name": "",
          "type": "tuple"
        }
      ],
      "stateMutability": "view",
      "type": "function"
    },
    {
      "inputs": [
        {
          "internalType": "uint256",
          "name": "_id",
          "type": "uint256"
        }
      ],
      "name": "extGetPlayerOwner",
      "outputs": [
        {
          "internalType": "address",
          "name": "",
          "type": "address"
        }
      ],
      "stateMutability": "view",
      "type": "function"
    },
    {
      "inputs": [
        {
          "internalType": "uint256",
          "name": "_playerId",
          "type": "uint256"
        },
        {
          "internalType": "uint256",
          "name": "_amount",
          "type": "uint256"
        },
        {
          "internalType": "bool",
          "name": "_hazard",
          "type": "bool"
        }
      ],
      "name": "extHurtPlayer",
      "outputs": [],
      "stateMutability": "nonpayable",
      "type": "function"
    },
    {
      "inputs": [
        {
          "components": [
            {
              "internalType": "uint8",
              "name": "row",
              "type": "uint8"
            },
            {
              "internalType": "uint8",
              "name": "col",
              "type": "uint8"
            }
          ],
          "internalType": "struct BCTypes.Position",
          "name": "_position",
          "type": "tuple"
        },
        {
          "internalType": "uint256",
          "name": "_playerId",
          "type": "uint256"
        },
        {
          "internalType": "uint256",
          "name": "_mapId",
          "type": "uint256"
        }
      ],
      "name": "extMovePlayer",
      "outputs": [
        {
          "internalType": "bool",
          "name": "",
          "type": "bool"
        }
      ],
      "stateMutability": "nonpayable",
      "type": "function"
    },
    {
      "inputs": [],
      "name": "games",
      "outputs": [
        {
          "internalType": "contract GamesInterface",
          "name": "",
          "type": "address"
        }
      ],
      "stateMutability": "view",
      "type": "function"
    },
    {
      "inputs": [
        {
          "components": [
            {
              "internalType": "uint8",
              "name": "row",
              "type": "uint8"
            },
            {
              "internalType": "uint8",
              "name": "col",
              "type": "uint8"
            }
          ],
          "internalType": "struct BCTypes.Position",
          "name": "_firstRoom",
          "type": "tuple"
        },
        {
          "components": [
            {
              "internalType": "uint8",
              "name": "row",
              "type": "uint8"
            },
            {
              "internalType": "uint8",
              "name": "col",
              "type": "uint8"
            }
          ],
          "internalType": "struct BCTypes.Position",
          "name": "_secondRoom",
          "type": "tuple"
        }
      ],
      "name": "getDirectionBetween",
      "outputs": [
        {
          "internalType": "uint256",
          "name": "",
          "type": "uint256"
        }
      ],
      "stateMutability": "pure",
      "type": "function"
    },
    {
      "inputs": [
        {
          "internalType": "uint256",
          "name": "_direction",
          "type": "uint256"
        },
        {
          "components": [
            {
              "internalType": "uint8",
              "name": "row",
              "type": "uint8"
            },
            {
              "internalType": "uint8",
              "name": "col",
              "type": "uint8"
            }
          ],
          "internalType": "struct BCTypes.Position",
          "name": "_start",
          "type": "tuple"
        }
      ],
      "name": "getNeighborRoom",
      "outputs": [
        {
          "components": [
            {
              "internalType": "uint8",
              "name": "row",
              "type": "uint8"
            },
            {
              "internalType": "uint8",
              "name": "col",
              "type": "uint8"
            }
          ],
          "internalType": "struct BCTypes.Position",
          "name": "",
          "type": "tuple"
        }
      ],
      "stateMutability": "pure",
      "type": "function"
    },
    {
      "inputs": [
        {
          "internalType": "uint256",
          "name": "_traitNum",
          "type": "uint256"
        },
        {
          "internalType": "uint256",
          "name": "_subTraitNum",
          "type": "uint256"
        }
      ],
      "name": "getUIOffset",
      "outputs": [
        {
          "internalType": "uint256",
          "name": "",
          "type": "uint256"
        }
      ],
      "stateMutability": "pure",
      "type": "function"
    },
    {
      "inputs": [
        {
          "internalType": "uint256",
          "name": "_playerId",
          "type": "uint256"
        },
        {
          "internalType": "uint8",
          "name": "_amount",
          "type": "uint8"
        }
      ],
      "name": "grantDataToPlayer",
      "outputs": [],
      "stateMutability": "nonpayable",
      "type": "function"
    },
    {
      "inputs": [
        {
          "internalType": "uint256",
          "name": "_playerId",
          "type": "uint256"
        },
        {
          "internalType": "uint256",
          "name": "_num",
          "type": "uint256"
        }
      ],
      "name": "incrementNumItemsHeld",
      "outputs": [],
      "stateMutability": "nonpayable",
      "type": "function"
    },
    {
      "inputs": [
        {
          "internalType": "uint256",
          "name": "_playerId",
          "type": "uint256"
        }
      ],
      "name": "incrementPlayerActions",
      "outputs": [],
      "stateMutability": "nonpayable",
      "type": "function"
    },
    {
      "inputs": [],
      "name": "items",
      "outputs": [
        {
          "internalType": "contract ItemsInterface",
          "name": "",
          "type": "address"
        }
      ],
      "stateMutability": "view",
      "type": "function"
    },
    {
      "inputs": [],
      "name": "lobbiesAddress",
      "outputs": [
        {
          "internalType": "address",
          "name": "",
          "type": "address"
        }
      ],
      "stateMutability": "view",
      "type": "function"
    },
    {
      "inputs": [
        {
          "components": [
            {
              "internalType": "uint8",
              "name": "row",
              "type": "uint8"
            },
            {
              "internalType": "uint8",
              "name": "col",
              "type": "uint8"
            }
          ],
          "internalType": "struct BCTypes.Position",
          "name": "_pos1",
          "type": "tuple"
        },
        {
          "components": [
            {
              "internalType": "uint8",
              "name": "row",
              "type": "uint8"
            },
            {
              "internalType": "uint8",
              "name": "col",
              "type": "uint8"
            }
          ],
          "internalType": "struct BCTypes.Position",
          "name": "_pos2",
          "type": "tuple"
        }
      ],
      "name": "manhattanDistance",
      "outputs": [
        {
          "internalType": "uint256",
          "name": "",
          "type": "uint256"
        }
      ],
      "stateMutability": "pure",
      "type": "function"
    },
    {
      "inputs": [],
      "name": "maps",
      "outputs": [
        {
          "internalType": "contract MapInterface",
          "name": "",
          "type": "address"
        }
      ],
      "stateMutability": "view",
      "type": "function"
    },
    {
      "inputs": [
        {
          "internalType": "uint256",
          "name": "_min",
          "type": "uint256"
        },
        {
          "internalType": "uint256",
          "name": "_max",
          "type": "uint256"
        },
        {
          "internalType": "uint256",
          "name": "_val",
          "type": "uint256"
        },
        {
          "internalType": "uint256",
          "name": "_valMax",
          "type": "uint256"
        }
      ],
      "name": "normalizeToSmallRange",
      "outputs": [
        {
          "internalType": "uint8",
          "name": "",
          "type": "uint8"
        }
      ],
      "stateMutability": "pure",
      "type": "function"
    },
    {
      "inputs": [
        {
          "internalType": "uint256",
          "name": "_direction",
          "type": "uint256"
        }
      ],
      "name": "opposite",
      "outputs": [
        {
          "internalType": "uint256",
          "name": "",
          "type": "uint256"
        }
      ],
      "stateMutability": "pure",
      "type": "function"
    },
    {
      "inputs": [],
      "name": "owner",
      "outputs": [
        {
          "internalType": "address",
          "name": "",
          "type": "address"
        }
      ],
      "stateMutability": "view",
      "type": "function"
    },
    {
      "inputs": [
        {
          "internalType": "uint256",
          "name": "",
          "type": "uint256"
        }
      ],
      "name": "players",
      "outputs": [
        {
          "internalType": "address",
          "name": "owner",
          "type": "address"
        },
        {
          "internalType": "uint256",
          "name": "characterId",
          "type": "uint256"
        },
        {
          "internalType": "uint256",
          "name": "id",
          "type": "uint256"
        },
        {
          "components": [
            {
              "internalType": "int8",
              "name": "health",
              "type": "int8"
            },
            {
              "internalType": "int8",
              "name": "carry",
              "type": "int8"
            },
            {
              "internalType": "int8",
              "name": "defense",
              "type": "int8"
            },
            {
              "internalType": "int8",
              "name": "hack",
              "type": "int8"
            },
            {
              "internalType": "int8",
              "name": "breach",
              "type": "int8"
            },
            {
              "internalType": "int8",
              "name": "shoot",
              "type": "int8"
            },
            {
              "internalType": "int8",
              "name": "melee",
              "type": "int8"
            },
            {
              "internalType": "bool",
              "name": "hasGun",
              "type": "bool"
            }
          ],
          "internalType": "struct BCTypes.Traits",
          "name": "currentTraits",
          "type": "tuple"
        },
        {
          "components": [
            {
              "internalType": "uint8",
              "name": "row",
              "type": "uint8"
            },
            {
              "internalType": "uint8",
              "name": "col",
              "type": "uint8"
            }
          ],
          "internalType": "struct BCTypes.Position",
          "name": "position",
          "type": "tuple"
        },
        {
          "components": [
            {
              "internalType": "uint8",
              "name": "row",
              "type": "uint8"
            },
            {
              "internalType": "uint8",
              "name": "col",
              "type": "uint8"
            }
          ],
          "internalType": "struct BCTypes.Position",
          "name": "lastPos",
          "type": "tuple"
        },
        {
          "internalType": "int8",
          "name": "healthDmgTaken",
          "type": "int8"
        },
        {
          "internalType": "uint8",
          "name": "armorDmgTaken",
          "type": "uint8"
        },
        {
          "internalType": "uint8",
          "name": "actionsTaken",
          "type": "uint8"
        },
        {
          "internalType": "uint8",
          "name": "dataTokens",
          "type": "uint8"
        },
        {
          "internalType": "uint8",
          "name": "numItemsHeld",
          "type": "uint8"
        },
        {
          "internalType": "bool",
          "name": "dead",
          "type": "bool"
        },
        {
          "internalType": "uint256",
          "name": "gameId",
          "type": "uint256"
        }
      ],
      "stateMutability": "view",
      "type": "function"
    },
    {
      "inputs": [],
      "name": "randKeccak",
      "outputs": [
        {
          "internalType": "bytes32",
          "name": "",
          "type": "bytes32"
        }
      ],
      "stateMutability": "nonpayable",
      "type": "function"
    },
    {
      "inputs": [],
      "name": "renounceOwnership",
      "outputs": [],
      "stateMutability": "nonpayable",
      "type": "function"
    },
    {
      "inputs": [
        {
          "internalType": "uint256",
          "name": "_playerId",
          "type": "uint256"
        }
      ],
      "name": "resetPlayerActions",
      "outputs": [],
      "stateMutability": "nonpayable",
      "type": "function"
    },
    {
      "inputs": [
        {
          "internalType": "uint256",
          "name": "_gameId",
          "type": "uint256"
        },
        {
          "internalType": "uint256",
          "name": "_for",
          "type": "uint256"
        },
        {
          "internalType": "uint256",
          "name": "_against",
          "type": "uint256"
        }
      ],
      "name": "resolveChallenge",
      "outputs": [
        {
          "internalType": "bool",
          "name": "",
          "type": "bool"
        }
      ],
      "stateMutability": "nonpayable",
      "type": "function"
    },
    {
      "inputs": [
        {
          "internalType": "uint256",
          "name": "_gameId",
          "type": "uint256"
        }
      ],
      "name": "roll",
      "outputs": [
        {
          "internalType": "uint256",
          "name": "",
          "type": "uint256"
        }
      ],
      "stateMutability": "nonpayable",
      "type": "function"
    },
    {
      "inputs": [
        {
          "internalType": "address",
          "name": "_charAddress",
          "type": "address"
        },
        {
          "internalType": "address",
          "name": "_utilsAddress",
          "type": "address"
        },
        {
          "internalType": "address",
          "name": "_mapsAddress",
          "type": "address"
        },
        {
          "internalType": "address",
          "name": "_lobbiesAddress",
          "type": "address"
        },
        {
          "internalType": "address",
          "name": "_actionsAddress",
          "type": "address"
        },
        {
          "internalType": "address",
          "name": "_eventsAddress",
          "type": "address"
        },
        {
          "internalType": "address",
          "name": "_itemsAddress",
          "type": "address"
        },
        {
          "internalType": "address",
          "name": "_gamesAddress",
          "type": "address"
        }
      ],
      "name": "setContractAddresses",
      "outputs": [],
      "stateMutability": "nonpayable",
      "type": "function"
    },
    {
      "inputs": [
        {
          "internalType": "uint256[]",
          "name": "ids",
          "type": "uint256[]"
        },
        {
          "internalType": "uint256",
          "name": "_gameId",
          "type": "uint256"
        }
      ],
      "name": "setPlayersGameId",
      "outputs": [],
      "stateMutability": "nonpayable",
      "type": "function"
    },
    {
      "inputs": [
        {
          "internalType": "bytes32",
          "name": "_hash",
          "type": "bytes32"
        },
        {
          "internalType": "uint256",
          "name": "_size",
          "type": "uint256"
        },
        {
          "internalType": "uint256",
          "name": "_offset",
          "type": "uint256"
        }
      ],
      "name": "sliceHashToSmallInt",
      "outputs": [
        {
          "internalType": "uint8",
          "name": "",
          "type": "uint8"
        }
      ],
      "stateMutability": "pure",
      "type": "function"
    },
    {
      "inputs": [
        {
          "internalType": "uint8",
          "name": "_min",
          "type": "uint8"
        },
        {
          "internalType": "uint8",
          "name": "_max",
          "type": "uint8"
        }
      ],
      "name": "smallIntBetweenVals",
      "outputs": [
        {
          "internalType": "uint8",
          "name": "",
          "type": "uint8"
        }
      ],
      "stateMutability": "nonpayable",
      "type": "function"
    },
    {
      "inputs": [
        {
          "internalType": "address",
          "name": "newOwner",
          "type": "address"
        }
      ],
      "name": "transferOwnership",
      "outputs": [],
      "stateMutability": "nonpayable",
      "type": "function"
    },
    {
      "inputs": [
        {
          "internalType": "uint256",
          "name": "_charId",
          "type": "uint256"
        },
        {
          "internalType": "uint256",
          "name": "_playerId",
          "type": "uint256"
        }
      ],
      "name": "updatePlayerTraits",
      "outputs": [],
      "stateMutability": "nonpayable",
      "type": "function"
    }
  ],
  "transactionHash": "0x54d648f97a993990720f42c783fcf915d97c380a7ab5e227e8a03099fb68e8e6",
  "args": [],
  "numDeployments": 1,
  "solcInputHash": "53bf44f095d7d70fd7cc81c3226ef8f7",
  "bytecode": "0x600060015560c0604052600a6080819052600660a052805461ffff191661060a1790553480156200002f57600080fd5b506200003b3362000428565b6200010f604080516101c081018252600080825260208083018290528284018290528351610100810185528281528082018390528085018390526060808201849052608080830185905260a080840186905260c0840186905260e0840186905291860192909252855180870187528481528084018590529185019190915284518086019095528285529084019190915290919082019081526000602082018190526040820181905260608083018290526080830182905260a083015260c0820181905260e082018190526101009091015290565b600b8190806001815401808255809150506001900390600052602060002090600a020160009091909190915060008201518160000160006101000a8154816001600160a01b0302191690836001600160a01b03160217905550602082015181600101556040820151816002015560608201518160030160008201518160000160006101000a81548160ff021916908360000b60ff16021790555060208201518160000160016101000a81548160ff021916908360000b60ff16021790555060408201518160000160026101000a81548160ff021916908360000b60ff16021790555060608201518160000160036101000a81548160ff021916908360000b60ff16021790555060808201518160000160046101000a81548160ff021916908360000b60ff16021790555060a08201518160000160056101000a81548160ff021916908360000b60ff16021790555060c08201518160000160066101000a81548160ff021916908360000b60ff16021790555060e08201518160000160076101000a81548160ff021916908315150217905550505060808201518160040160008201518160000160006101000a81548160ff021916908360ff16021790555060208201518160000160016101000a81548160ff021916908360ff160217905550505060a08201518160050160008201518160000160006101000a81548160ff021916908360ff16021790555060208201518160000160016101000a81548160ff021916908360ff160217905550505060c08201518160060160006101000a81548160ff021916908360000b60ff16021790555060e08201518160060160016101000a81548160ff021916908360ff1602179055506101008201518160060160026101000a81548160ff021916908360ff1602179055506101208201518160060160036101000a81548160ff021916908360ff160217905550610140820151816007019080519060200190620003e592919062000478565b5061016082015160088201805461018085015115156101000261ffff1990911660ff909316929092179190911790556101a090910151600990910155506200053c565b600080546001600160a01b038381166001600160a01b0319831681178455604051919092169283917f8be0079c531659141344cd1fd0a4f28419497f9722a3daafe3b4186f6b6457e09190a35050565b82805482825590600052602060002090601f01602090048101928215620005135791602002820160005b83821115620004e257835183826101000a81548160ff021916908360ff1602179055509260200192600101602081600001049283019260010302620004a2565b8015620005115782816101000a81549060ff0219169055600101602081600001049283019260010302620004e2565b505b506200052192915062000525565b5090565b5b8082111562000521576000815560010162000526565b614761806200054c6000396000f3fe608060405234801561001057600080fd5b506004361061025e5760003560e01c80638214f22211610146578063ce28613f116100c3578063f10bff2b11610087578063f10bff2b1461057d578063f2fde38b14610590578063f71d96cb146105a3578063f96f55d0146105cf578063fa3993c2146105e2578063fe23e2df146105f557600080fd5b8063ce28613f14610501578063ce93229714610514578063dc769ee814610527578063e7169ec514610557578063ed8619611461056a57600080fd5b8063955a015b1161010a578063955a015b146104a257806397f34c3f146104b55780639fca1ee1146104c8578063b6907194146104db578063c06fad06146104ee57600080fd5b80638214f222146104385780638d491b3e1461044b5780638da5cb5b1461045e578063921d27991461046f578063951fc3fe1461048257600080fd5b806353011696116101df5780636621a421116101a35780636621a421146103d1578063668a7f3b146103e45780636d291bbb146103f7578063715018a61461040a5780637b45c0d4146104125780637ddae1031461042557600080fd5b806353011696146103505780635519f439146103755780635dc969671461038857806364db84bf146103ab57806365c363f0146103be57600080fd5b80631f7b4f30116102265780631f7b4f30146102f1578063336d7d7b14610304578063351dacdf146103175780633deaec2b1461032a57806347d0e3c91461033d57600080fd5b80630dd0f5881461026357806310a2cd0d1461027857806310f67fb3146102a85780631b5ac4b5146102c85780631e1de205146102e9575b600080fd5b61027661027136600461326f565b610608565b005b60025461028b906001600160a01b031681565b6040516001600160a01b0390911681526020015b60405180910390f35b6102bb6102b63660046132a8565b61064b565b60405161029f9190613362565b6102db6102d63660046132a8565b610914565b60405190815260200161029f565b6102db610934565b6102db6102ff3660046132a8565b6109ac565b60075461028b906001600160a01b031681565b610276610325366004613479565b610a08565b60035461028b906001600160a01b031681565b6102db61034b3660046132a8565b610a5d565b61036361035e36600461349b565b610a95565b60405160ff909116815260200161029f565b6102db61038336600461364c565b610ad2565b61039b6103963660046136a2565b610c2e565b604051901515815260200161029f565b6102db6103b9366004613479565b610cc9565b6102766103cc3660046132a8565b610ce1565b61028b6103df3660046132a8565b610d39565b6102766103f23660046136ce565b610d6e565b610276610405366004613765565b610ebe565b6102766112a8565b60095461028b906001600160a01b031681565b60045461028b906001600160a01b031681565b6102db6104463660046132a8565b6112bc565b61039b6104593660046137d2565b611336565b6000546001600160a01b031661028b565b61027661047d366004613806565b6114d5565b61049561049036600461389d565b61155d565b60405161029f91906138ca565b60065461028b906001600160a01b031681565b6103636104c33660046136a2565b611687565b60085461028b906001600160a01b031681565b6102766104e93660046138e8565b6116b2565b60055461028b906001600160a01b031681565b61036361050f366004613918565b61175d565b6102766105223660046132a8565b61180d565b600a5461053d9060ff8082169161010090041682565b6040805160ff93841681529290911660208301520161029f565b610276610565366004613946565b61187d565b61027661057836600461398a565b611906565b6102db61058b3660046139dc565b611a19565b61027661059e366004613a08565b611a66565b6105b66105b13660046132a8565b611adf565b60405161029f9d9c9b9a99989796959493929190613a23565b6102766105dd366004613479565b611c09565b6102db6105f03660046139dc565b611e89565b610276610603366004613479565b611f51565b6006546001600160a01b0316331461063b5760405162461bcd60e51b815260040161063290613ac7565b60405180910390fd5b610646838383611f8a565b505050565b61071e604080516101c081018252600080825260208083018290528284018290528351610100810185528281528082018390528085018390526060808201849052608080830185905260a080840186905260c0840186905260e0840186905291860192909252855180870187528481528084018590529185019190915284518086019095528285529084019190915290919082019081526000602082018190526040820181905260608083018290526080830182905260a083015260c0820181905260e082018190526101009091015290565b600b828154811061073157610731613af3565b60009182526020808320604080516101c081018252600a90940290910180546001600160a01b0316845260018101548484015260028101548483015281516101008181018452600383015480880b8352818104880b8387015262010000808204890b8487015263010000008083048a0b60608681019190915264010000000084048b0b6080808801919091526501000000000085048c0b60a080890191909152600160301b86048d0b60c0808a019190915260ff600160381b9097048716151560e0808b0191909152938d01989098528951808b018b5260048a015480881682528890048716818d0152918c01919091528851808a018a52600589015480871682528790048616818c0152908b015260068701549a8b900b958a0195909552838a04831694890194909452880481169187019190915295049094166101208401526007840180548251818502810185019093528083529394936101408601938301828280156108dd57602002820191906000526020600020906000905b825461010083900a900460ff168152602060019283018181049485019490930390920291018084116108ae5790505b5050509183525050600882015460ff8082166020840152610100909104161515604082015260099091015460609091015292915050565b60008082121561092c5761092782613b1f565b61092e565b815b92915050565b600180546000918261094583613b3b565b919050555060015460014361095a9190613b54565b403360405160200161099193929190928352602083019190915260601b6bffffffffffffffffffffffff1916604082015260540190565b60405160208183030381529060405280519060200120905090565b6000806109bb6001600661175d565b60ff1690507ffe34d093a460a16ee5fb374540914d1c734a17502c0c1a87b387c8d6097e1c5183826040516109fa929190918252602082015260400190565b60405180910390a192915050565b80600b8381548110610a1c57610a1c613af3565b6000918252602082206008600a90920201018054909190610a4190849060ff16613b67565b92506101000a81548160ff021916908360ff1602179055505050565b6000600b8281548110610a7257610a72613af3565b60009182526020909120600a909102016006015462010000900460ff1692915050565b600080610aa28686613b54565b9050600083610ab18684613b80565b610abb9190613bad565b9050610ac78782613bc1565b979650505050505050565b6007546000906001600160a01b03163314610b245760405162461bcd60e51b8152602060048201526012602482015271139bdd081b1bd8989e4818dbdb9d1c9858dd60721b6044820152606401610632565b600b805460018181018084556000938452600a9092027f0175b7a638427703f0dbe7bb9bbf987a2551717b34e79f33b5b1008d1fa01db9019291610b689190613b54565b82546001600160a01b0319166001600160a01b038716178355600180840188905560028401829055600b54919250610ba59188916105dd91613b54565b835160088301805460ff191660ff909216919091179055600554604051630926bc2d60e21b81526001600160a01b039091169063249af0b490610bf090849088908a90600401613bd4565b600060405180830381600087803b158015610c0a57600080fd5b505af1158015610c1e573d6000803e3d6000fd5b50929450505050505b9392505050565b600080610c3a856109ac565b6040805187815260208101839052908101869052606081018590529091507f75b6a8325595f91135e07382840634226793c68c9e59623da7e10d7ad3d95b959060800160405180910390a180600103610c97576000915050610c27565b600383610ca48684613bc1565b610cae9190613c37565b1315610cbe576001915050610c27565b506000949350505050565b600081610cd7846004613b80565b610c279190613bc1565b6006546001600160a01b03163314610cf857600080fd5b6000600b8281548110610d0d57610d0d613af3565b90600052602060002090600a020160060160026101000a81548160ff021916908360ff16021790555050565b6000600b8281548110610d4e57610d4e613af3565b60009182526020909120600a90910201546001600160a01b031692915050565b6006546001600160a01b03163314610d985760405162461bcd60e51b815260040161063290613ac7565b60005b60018251610da99190613b54565b8111610646576000600b838381518110610dc557610dc5613af3565b602002602001015181548110610ddd57610ddd613af3565b6000918252602082206003546004600a939093029091018281015460405163f9dfbfcb60e01b815293840189905260ff808216602486015261010090910416604484015293506001600160a01b03169063f9dfbfcb9060640161014060405180830381865afa158015610e54573d6000803e3d6000fd5b505050506040513d601f19601f82011682018060405250810190610e789190613c74565b90508060c0015115610ea957610ea9848481518110610e9957610e99613af3565b6020026020010151600180611f8a565b50508080610eb690613b3b565b915050610d9b565b6006546001600160a01b03163314610ee85760405162461bcd60e51b815260040161063290613ac7565b610f306040518060e0016040528060008152602001600015158152602001600060ff168152602001600060ff1681526020016060815260200160608152602001606081525090565b6005826005811115610f4457610f44613d49565b03610fbf576004805460405163c82c37b960e01b81529182018590526001600160a01b03169063c82c37b990602401600060405180830381865afa158015610f90573d6000803e3d6000fd5b505050506040513d6000823e601f3d908101601f19168201604052610fb89190810190613dec565b9050611038565b6004805460405163e4dc1a8360e01b81526001600160a01b039091169163e4dc1a8391610ff0918791879101613ef1565b600060405180830381865afa15801561100d573d6000803e3d6000fd5b505050506040513d6000823e601f3d908101601f191682016040526110359190810190613dec565b90505b600480546040516336772a9360e21b81526000926001600160a01b039092169163d9dcaa4c9161106c918791899101613f05565b600060405180830381865afa158015611089573d6000803e3d6000fd5b505050506040513d6000823e601f3d908101601f191682016040526110b19190810190613f20565b9050816040015160ff1660001480156110cf5750606082015160ff16155b15611145576110fb88888888856000815181106110ee576110ee613af3565b602002602001015161200b565b60008051602061470c8339815191528789848460008151811061112057611120613af3565b6020026020010151604051611138949392919061401b565b60405180910390a161129d565b6000611150886109ac565b9050826040015160ff166000141580156111715750826040015160ff168111155b156111da5761119089898989866001815181106110ee576110ee613af3565b60008051602061470c833981519152888a85856001815181106111b5576111b5613af3565b60200260200101516040516111cd949392919061401b565b60405180910390a161129b565b606083015160ff16158015906111f75750826060015160ff168110155b1561123b5761121689898989866002815181106110ee576110ee613af3565b60008051602061470c833981519152888a85856002815181106111b5576111b5613af3565b61125589898989866000815181106110ee576110ee613af3565b60008051602061470c833981519152888a858560008151811061127a5761127a613af3565b6020026020010151604051611292949392919061401b565b60405180910390a15b505b505050505050505050565b6112b0612e86565b6112ba6000612ee0565b565b6000816000036112ce57506001919050565b816001036112de57506000919050565b816002036112ee57506003919050565b816003036112fe57506002919050565b60405162461bcd60e51b815260206004820152600d60248201526c2130b2103234b932b1ba34b7b760991b6044820152606401610632565b6006546000906001600160a01b031633146113635760405162461bcd60e51b815260040161063290613ac7565b600b838154811061137657611376613af3565b90600052602060002090600a0201600401600b848154811061139a5761139a613af3565b600091825260209091208254600a90920201600501805460ff92831660ff19821681178355935461ffff1990911690931761010093849004909216909202179055600b8054859190859081106113f2576113f2613af3565b6000918252602080832084516004600a94909402909101830180549583015160ff9081166101000261ffff19909716928116929092179590951790945560035488519189015160405163f9dfbfcb60e01b815293840188905291851660248401529316604482015290916001600160a01b03169063f9dfbfcb9060640161014060405180830381865afa15801561148d573d6000803e3d6000fd5b505050506040513d601f19601f820116820180604052508101906114b19190613c74565b5160ff16036114cb576114c383612f30565b506001610c27565b5060009392505050565b6114dd612e86565b600280546001600160a01b03199081166001600160a01b039a8b1617909155600380548216978a169790971790965560078054871695891695909517909455600980548616938816939093179092556004805485169187169190911790556005805484169186169190911790556006805490921693169290921790915550565b6040805180820190915260008082526020820152826000036115af576040518060400160405280600184600001516115959190613b67565b60ff168152602001836020015160ff16815250905061092e565b826001036115d35760405180604001604052808360000151600161159591906140d0565b82600203611610576040518060400160405280836000015160ff1681526020018360200151600161160491906140d0565b60ff169052905061092e565b82600303611641576040518060400160405280836000015160ff168152602001600184602001516116049190613b67565b600061164c846130ef565b60405160200161165c919061410d565b60405160208183030381529060405290508060405162461bcd60e51b81526004016106329190614174565b60008082600161169886600261426b565b6116a29190613b54565b901b8516831c9150509392505050565b6009546001600160a01b0316331461171d5760405162461bcd60e51b815260206004820152602860248201527f4e6f7420616374696f6e7320636f6e7472616374202d206772616e74446174616044820152672a37a83630bcb2b960c11b6064820152608401610632565b80600b838154811061173157611731613af3565b90600052602060002090600a020160060160038282829054906101000a900460ff16610a4191906140d0565b600180546000918261176e83613b3b565b91905055506000336001546001436117869190613b54565b60405160609390931b6bffffffffffffffffffffffff19166020840152603483019190915240605482015260740160408051601f198184030181529190528051602090910120905060006117da8585613b67565b6117e59060016140d0565b90508460ff168160ff16836117fa9190614277565b6118049190613bc1565b95945050505050565b6006546001600160a01b0316331461182457600080fd5b600b818154811061183757611837613af3565b60009182526020909120600a90910201600601805462010000900460ff169060026118618361428b565b91906101000a81548160ff021916908360ff1602179055505050565b6006546001600160a01b031633146118a75760405162461bcd60e51b815260040161063290613ac7565b60005b82518110156106465781600b8483815181106118c8576118c8613af3565b6020026020010151815481106118e0576118e0613af3565b600091825260209091206009600a909202010155806118fe81613b3b565b9150506118aa565b6009546001600160a01b0316331461196e5760405162461bcd60e51b815260206004820152602560248201527f4e6f7420616374696f6e7320636f6e7472616374202d206578744170706c794560448201526419999958dd60da1b6064820152608401610632565b600480546040516336772a9360e21b81526000926001600160a01b039092169163d9dcaa4c916119a391600591889101613f05565b600060405180830381865afa1580156119c0573d6000803e3d6000fd5b505050506040513d6000823e601f3d908101601f191682016040526119e89190810190613f20565b82815181106119f9576119f9613af3565b60200260200101519050611a10878787878561200b565b50505050505050565b600080611a39836000015160000b856000015160000b6102d69190613c37565b90506000611a5a846020015160000b866020015160000b6102d69190613c37565b90506118048183613bc1565b611a6e612e86565b6001600160a01b038116611ad35760405162461bcd60e51b815260206004820152602660248201527f4f776e61626c653a206e6577206f776e657220697320746865207a65726f206160448201526564647265737360d01b6064820152608401610632565b611adc81612ee0565b50565b600b8181548110611aef57600080fd5b60009182526020808320600a9092029091018054600182015460028301546040805161010081810183526003870154808a0b83528181048a0b838a0152620100008082048b0b8486015263010000008083048c0b606086015264010000000083048c0b60808601526501000000000083048c0b60a0860152600160301b83048c0b60c086015260ff600160381b9093048316151560e08601528551808701875260048b015480851682528590048416818d0152865180880190975260058b0154808516885285900484169b87019b909b5260068a015460088b01546009909b01546001600160a01b03909a169d50979b969a9499949895979687900b9684810484169692810484169591900483169381841693910416908d565b600254604051634810bc5960e01b8152600481018490526000916001600160a01b031690634810bc599060240161020060405180830381865afa158015611c54573d6000803e3d6000fd5b505050506040513d601f19601f82011682018060405250810190611c789190614384565b606001516005546040516347ef26b160e01b8152600481018590529192506000916001600160a01b03909116906347ef26b19060240161010060405180830381865afa158015611ccc573d6000803e3d6000fd5b505050506040513d601f19601f82011682018060405250810190611cf0919061442b565b90506000600b8481548110611d0757611d07613af3565b90600052602060002090600a0201905081600001518360000151611d2b9190614448565b60038201805460ff191660ff9290921691909117905560208281015190840151611d559190614448565b60038201805460ff929092166101000261ff001990921691909117905560408083015190840151611d869190614448565b60038201805460ff92909216620100000262ff00001990921691909117905560608083015190840151611db99190614448565b60038201805460ff9290921663010000000263ff0000001990921691909117905560808083015190840151611dee9190614448565b60038201805460ff929092166401000000000264ff000000001990921691909117905560a08083015190840151611e259190614448565b60038201805460ff92909216650100000000000265ff00000000001990921691909117905560c08083015190840151611e5e9190614448565b6003909101805460ff92909216600160301b0266ff0000000000001990921691909117905550505050565b80518251600091611e9991614469565b60000b600103611eab5750600061092e565b81518351611eb99190614469565b60000b19611ec95750600161092e565b81602001518360200151611edd9190614469565b60000b19611eed5750600261092e565b81602001518360200151611f019190614469565b60000b600103611f135750600361092e565b60405162461bcd60e51b8152602060048201526013602482015272115c9c9bdc8e88139bdd0818591a9858d95b9d606a1b6044820152606401610632565b80600b8381548110611f6557611f65613af3565b6000918252602082206008600a90920201018054909190610a4190849060ff166140d0565b6000600b8481548110611f9f57611f9f613af3565b6000918252602082206006600a90920201908101805491935085929091611fc9908490830b614448565b825460ff9182166101009390930a92830291909202199091161790555060038101546006820154600091820b910b126120055761200584612f30565b50505050565b60005b8151811015612e7e5761204f6040518060400160405280601681526020017520b838363cb4b7339032b33332b1ba10373ab6b132b960511b815250826131f7565b6000600b878154811061206457612064613af3565b60009182526020909120600a909102019050600183838151811061208a5761208a613af3565b60200260200101516000015160168111156120a7576120a7613d49565b505060028383815181106120bd576120bd613af3565b60200260200101516000015160168111156120da576120da613d49565b03612120578282815181106120f1576120f1613af3565b60200260200101516020015160006121099190614469565b60068201805460ff191660ff929092169190911790555b600383838151811061213457612134613af3565b602002602001015160000151601681111561215157612151613d49565b0361215f5761215f87612f30565b600483838151811061217357612173613af3565b602002602001015160000151601681111561219057612190613d49565b036122135760035484516020860151604051637f1b46bd60e11b81526004810189905260ff928316602482015291166044820152600160648201526001600160a01b039091169063fe368d7a90608401600060405180830381600087803b1580156121fa57600080fd5b505af115801561220e573d6000803e3d6000fd5b505050505b600583838151811061222757612227613af3565b602002602001015160000151601681111561224457612244613d49565b5050600683838151811061225a5761225a613af3565b602002602001015160000151601681111561227757612277613d49565b036122ec5782828151811061228e5761228e613af3565b60209081029190910181015101516006820180546000906122b2908490830b614469565b825460ff9182166101009390930a9283029190920219909116179055506006810154600090810b12156122ec5760068101805460ff191690555b600783838151811061230057612300613af3565b602002602001015160000151601681111561231d5761231d613d49565b5050600883838151811061233357612333613af3565b602002602001015160000151601681111561235057612350613d49565b0361237e5761237e8784848151811061236b5761236b613af3565b6020026020010151602001516001611f8a565b600983838151811061239257612392613af3565b60200260200101516000015160168111156123af576123af613d49565b036123dd576123dd878484815181106123ca576123ca613af3565b6020026020010151602001516000611f8a565b600a8383815181106123f1576123f1613af3565b602002602001015160000151601681111561240e5761240e613d49565b036127b757600083838151811061242757612427613af3565b6020026020010151602001519050600b601681111561244857612448613d49565b84612454856001613bc1565b8151811061246457612464613af3565b602002602001015160000151601681111561248157612481613d49565b1461248e5761248e61448a565b6000846001815181106124a3576124a3613af3565b60200260200101516020015160088111156124c0576124c0613d49565b9050600c856124d0866002613bc1565b815181106124e0576124e0613af3565b60200260200101516000015160168111156124fd576124fd613d49565b1461250a5761250a61448a565b60008560028151811061251f5761251f613af3565b602002602001015160200151600381111561253c5761253c613d49565b600354885160208a01516040516315636a4d60e01b8152600481018d905260ff9283166024820152911660448201529192506000916001600160a01b03909116906315636a4d90606401608060405180830381865afa1580156125a3573d6000803e3d6000fd5b505050506040513d601f19601f820116820180604052508101906125c791906144a0565b905060038260038111156125dd576125dd613d49565b036126db5760005b60048110156126d05781816004811061260057612600613af3565b602002015115156001036126be5760005b858110156126bc576000612625838c61155d565b9050600660009054906101000a90046001600160a01b03166001600160a01b0316631cef40f68e88846000015185602001516040518563ffffffff1660e01b81526004016126769493929190614509565b600060405180830381600087803b15801561269057600080fd5b505af11580156126a4573d6000803e3d6000fd5b505050505080806126b490613b3b565b915050612611565b505b806126c881613b3b565b9150506125e5565b505050505050612e7e565b60005b848110156126d0576006546001600160a01b0316631cef40f68c86600187600381111561270d5761270d613d49565b1461271f5760058a015460ff16612722565b8c515b600188600381111561273657612736613d49565b1461274d5760058b0154610100900460ff16612753565b8d602001515b6040518563ffffffff1660e01b81526004016127729493929190614509565b600060405180830381600087803b15801561278c57600080fd5b505af11580156127a0573d6000803e3d6000fd5b5050505080806127af90613b3b565b9150506126de565b600d8383815181106127cb576127cb613af3565b60200260200101516000015160168111156127e8576127e8613d49565b03612814576128148784848151811061280357612803613af3565b6020026020010151602001516116b2565b600e83838151811061282857612828613af3565b602002602001015160000151601681111561284557612845613d49565b5050600f83838151811061285b5761285b613af3565b602002602001015160000151601681111561287857612878613d49565b03612a9c57600083838151811061289157612891613af3565b6020908102919091018101510151600554604051633841fae160e01b8152600481018b90529192506000916001600160a01b0390911690633841fae190602401600060405180830381865afa1580156128ee573d6000803e3d6000fd5b505050506040513d6000823e601f3d908101601f19168201604052612916919081019061453f565b805190915015612a99576000600182516129309190613b54565b90505b80156129cf57600061294660008361175d565b9050828160ff168151811061295d5761295d613af3565b602002602001015183838151811061297757612977613af3565b602002602001015184848151811061299157612991613af3565b60200260200101858460ff16815181106129ad576129ad613af3565b60209081029190910101919091525250806129c7816145c4565b915050612933565b5060005b8151851015612a975760055482516001600160a01b0390911690635f09c782908c90859085908110612a0757612a07613af3565b60200260200101516040518363ffffffff1660e01b8152600401612a35929190918252602082015260400190565b600060405180830381600087803b158015612a4f57600080fd5b505af1158015612a63573d6000803e3d6000fd5b50505050612a728a6001610a08565b82612a7c816145c4565b9350508215612a975780612a8f81613b3b565b9150506129d3565b505b50505b6011838381518110612ab057612ab0613af3565b6020026020010151600001516016811115612acd57612acd613d49565b03612bea576005838381518110612ae657612ae6613af3565b60200260200101516020015103612bea57600354604051632fc4a8f360e11b81526004810187905260009182916001600160a01b0390911690635f8951e6906024016040805180830381865afa158015612b44573d6000803e3d6000fd5b505050506040513d601f19601f82011682018060405250810190612b6891906145db565b60065460408051808201825260ff8086168252841660208201529051631751422560e01b81529395509193506001600160a01b031691631751422591612bb5918c91908e906004016145ff565b600060405180830381600087803b158015612bcf57600080fd5b505af1158015612be3573d6000803e3d6000fd5b5050505050505b6012838381518110612bfe57612bfe613af3565b6020026020010151600001516016811115612c1b57612c1b613d49565b50506013838381518110612c3157612c31613af3565b6020026020010151600001516016811115612c4e57612c4e613d49565b50506015838381518110612c6457612c64613af3565b6020026020010151600001516016811115612c8157612c81613d49565b03612e385760005b6004811015612e365760035485516020870151604051630dd43b9b60e31b8152600481018a905260ff928316602482015291166044820152606481018390526000916001600160a01b031690636ea1dcd890608401606060405180830381865afa158015612cfb573d6000803e3d6000fd5b505050506040513d601f19601f82011682018060405250810190612d1f9190614631565b9050600181604001516004811115612d3957612d39613d49565b1480612d5a5750600281604001516004811115612d5857612d58613d49565b145b80612d7a5750600381604001516004811115612d7857612d78613d49565b145b15612e2357600360009054906101000a90046001600160a01b03166001600160a01b0316635921522388886000015189602001518660018b8b81518110612dc357612dc3613af3565b6020026020010151602001516040518763ffffffff1660e01b8152600401612df0969594939291906146a6565b600060405180830381600087803b158015612e0a57600080fd5b505af1158015612e1e573d6000803e3d6000fd5b505050505b5080612e2e81613b3b565b915050612c89565b505b6014838381518110612e4c57612e4c613af3565b6020026020010151600001516016811115612e6957612e69613d49565b50505080612e7681613b3b565b91505061200e565b505050505050565b6000546001600160a01b031633146112ba5760405162461bcd60e51b815260206004820181905260248201527f4f776e61626c653a2063616c6c6572206973206e6f7420746865206f776e65726044820152606401610632565b600080546001600160a01b038381166001600160a01b0319831681178455604051919092169283917f8be0079c531659141344cd1fd0a4f28419497f9722a3daafe3b4186f6b6457e09190a35050565b6000600b8281548110612f4557612f45613af3565b60009182526020909120600554600a90920201600981015460048083015460405163268f1d4d60e01b8152918201929092526024810186905260ff808316604483015261010090920490911660648201529092506001600160a01b039091169063268f1d4d90608401600060405180830381600087803b158015612fc857600080fd5b505af1158015612fdc573d6000803e3d6000fd5b50505060068201805460ff1990811690915560088301805490911690555060018101546130099083611c09565b600254600b80546001600160a01b0390921691636d6ba75691908590811061303357613033613af3565b90600052602060002090600a0201600101546040518263ffffffff1660e01b815260040161306391815260200190565b600060405180830381600087803b15801561307d57600080fd5b505af1158015613091573d6000803e3d6000fd5b50505050600a600b83815481106130aa576130aa613af3565b600091825260209091208254600a90920201600401805460ff92831660ff19821681178355935461ffff19909116909317610100938490049092169092021790555050565b6060816000036131165750506040805180820190915260018152600360fc1b602082015290565b8160005b8115613140578061312a81613b3b565b91506131399050600a83613bad565b915061311a565b6000816001600160401b0381111561315a5761315a6134e9565b6040519080825280601f01601f191660200182016040528015613184576020820181803683370190505b5090505b84156131ef57613199600183613b54565b91506131a6600a86614277565b6131b1906030613bc1565b60f81b8183815181106131c6576131c6613af3565b60200101906001600160f81b031916908160001a9053506131e8600a86613bad565b9450613188565b949350505050565b61323c828260405160240161320d9291906146e9565b60408051601f198184030181529190526020810180516001600160e01b0316632d839cb360e21b179052613240565b5050565b80516a636f6e736f6c652e6c6f67602083016000808483855afa5050505050565b8015158114611adc57600080fd5b60008060006060848603121561328457600080fd5b8335925060208401359150604084013561329d81613261565b809150509250925092565b6000602082840312156132ba57600080fd5b5035919050565b8051600081810b84526020830151810b60208501526040830151810b60408501526060830151810b60608501526080830151810b608085015260a0830151810b60a085015260c0830151810b60c0850152505060e0810151151560e08301525050565b600081518084526020808501945080840160005b8381101561335757815160ff1687529582019590820190600101613338565b509495945050505050565b6020815261337c6020820183516001600160a01b03169052565b6020820151604082015260408201516060820152600060608301516133a460808401826132c1565b5060808301516101806133c981850183805160ff908116835260209182015116910152565b60a0850151805160ff9081166101c087015260209091015181166101e086015260c086015160000b61020086015260e086015181166102208601526101008601518116610240860152610120860151166102608501526101408501516102e06102808601819052909250613441610300860184613324565b92506101608601516134596102a087018260ff169052565b509085015115156102c08501526101a09094015192909301919091525090565b6000806040838503121561348c57600080fd5b50508035926020909101359150565b600080600080608085870312156134b157600080fd5b5050823594602084013594506040840135936060013592509050565b80356001600160a01b03811681146134e457600080fd5b919050565b634e487b7160e01b600052604160045260246000fd5b604080519081016001600160401b0381118282101715613521576135216134e9565b60405290565b60405160e081016001600160401b0381118282101715613521576135216134e9565b60405161012081016001600160401b0381118282101715613521576135216134e9565b604051608081016001600160401b0381118282101715613521576135216134e9565b604051601f8201601f191681016001600160401b03811182821017156135b6576135b66134e9565b604052919050565b60006001600160401b038211156135d7576135d76134e9565b5060051b60200190565b600082601f8301126135f257600080fd5b81356020613607613602836135be565b61358e565b82815260059290921b8401810191818101908684111561362657600080fd5b8286015b84811015613641578035835291830191830161362a565b509695505050505050565b60008060006060848603121561366157600080fd5b83359250613671602085016134cd565b915060408401356001600160401b0381111561368c57600080fd5b613698868287016135e1565b9150509250925092565b6000806000606084860312156136b757600080fd5b505081359360208301359350604090920135919050565b600080604083850312156136e157600080fd5b8235915060208301356001600160401b038111156136fe57600080fd5b61370a858286016135e1565b9150509250929050565b60ff81168114611adc57600080fd5b60006040828403121561373557600080fd5b61373d6134ff565b9050813561374a81613714565b8152602082013561375a81613714565b602082015292915050565b6000806000806000806000610100888a03121561378157600080fd5b873596506020880135955060408801359450606088013593506137a78960808a01613723565b925060c0880135915060e0880135600681106137c257600080fd5b8091505092959891949750929550565b6000806000608084860312156137e757600080fd5b6137f18585613723565b95604085013595506060909401359392505050565b600080600080600080600080610100898b03121561382357600080fd5b61382c896134cd565b975061383a60208a016134cd565b965061384860408a016134cd565b955061385660608a016134cd565b945061386460808a016134cd565b935061387260a08a016134cd565b925061388060c08a016134cd565b915061388e60e08a016134cd565b90509295985092959890939650565b600080606083850312156138b057600080fd5b823591506138c18460208501613723565b90509250929050565b6040810161092e8284805160ff908116835260209182015116910152565b600080604083850312156138fb57600080fd5b82359150602083013561390d81613714565b809150509250929050565b6000806040838503121561392b57600080fd5b823561393681613714565b9150602083013561390d81613714565b6000806040838503121561395957600080fd5b82356001600160401b0381111561396f57600080fd5b61397b858286016135e1565b95602094909401359450505050565b60008060008060008060e087890312156139a357600080fd5b8635955060208701359450604087013593506139c28860608901613723565b925060a0870135915060c087013590509295509295509295565b600080608083850312156139ef57600080fd5b6139f98484613723565b91506138c18460408501613723565b600060208284031215613a1a57600080fd5b610c27826134cd565b6001600160a01b038e168152602081018d9052604081018c90526102c08101613a4f606083018d6132c1565b8a5160ff90811661016084015260209b8c015181166101808401528a5181166101a084015299909a015189166101c082015260009790970b6101e08801529487166102008701529286166102208601529085166102408501529093166102608301529115156102808201526102a00152949350505050565b602080825260129082015271139bdd0819d85b595cc818dbdb9d1c9858dd60721b604082015260600190565b634e487b7160e01b600052603260045260246000fd5b634e487b7160e01b600052601160045260246000fd5b6000600160ff1b8201613b3457613b34613b09565b5060000390565b600060018201613b4d57613b4d613b09565b5060010190565b8181038181111561092e5761092e613b09565b60ff828116828216039081111561092e5761092e613b09565b808202811582820484141761092e5761092e613b09565b634e487b7160e01b600052601260045260246000fd5b600082613bbc57613bbc613b97565b500490565b8082018082111561092e5761092e613b09565b6000606082018583526020606081850152818651808452608086019150828801935060005b81811015613c1557845183529383019391830191600101613bf9565b50506001600160a01b0395909516604094909401939093525091949350505050565b8181036000831280158383131683831282161715613c5757613c57613b09565b5092915050565b80516134e481613714565b80516134e481613261565b60006101408284031215613c8757600080fd5b613c8f613527565b8251613c9a81613714565b8152602083810151613cab81613714565b82820152605f84018513613cbe57600080fd5b613cc661356c565b8060c0860187811115613cd857600080fd5b604087015b81811015613cf45780518452928401928401613cdd565b50816040860152613d0481613c69565b606086015250505050613d1960e08401613c69565b6080820152613d2b6101008401613c69565b60a0820152613d3d6101208401613c69565b60c08201529392505050565b634e487b7160e01b600052602160045260246000fd5b600082601f830112613d7057600080fd5b81516020613d80613602836135be565b82815260069290921b84018101918181019086841115613d9f57600080fd5b8286015b848110156136415760408189031215613dbc5760008081fd5b613dc46134ff565b815160178110613dd45760008081fd5b81528185015185820152835291830191604001613da3565b600060208284031215613dfe57600080fd5b81516001600160401b0380821115613e1557600080fd5b9083019060e08286031215613e2957600080fd5b613e31613527565b82518152613e4160208401613c69565b6020820152613e5260408401613c5e565b6040820152613e6360608401613c5e565b6060820152608083015182811115613e7a57600080fd5b613e8687828601613d5f565b60808301525060a083015182811115613e9e57600080fd5b613eaa87828601613d5f565b60a08301525060c083015182811115613ec257600080fd5b613ece87828601613d5f565b60c08301525095945050505050565b60068110613eed57613eed613d49565b9052565b82815260408101610c276020830184613edd565b60408101613f138285613edd565b8260208301529392505050565b60006020808385031215613f3357600080fd5b82516001600160401b0380821115613f4a57600080fd5b818501915085601f830112613f5e57600080fd5b8151613f6c613602826135be565b81815260059190911b83018401908481019088831115613f8b57600080fd5b8585015b83811015613fc357805185811115613fa75760008081fd5b613fb58b89838a0101613d5f565b845250918601918601613f8f565b5098975050505050505050565b600081518084526020808501945080840160005b8381101561335757815180516017811061400057614000613d49565b88528301518388015260409096019590820190600101613fe4565b84815283602082015260806040820152825160808201526020830151151560a082015260ff60408401511660c08201526000606084015161406160e084018260ff169052565b50608084015160e061010084015261407d610160840182613fd0565b905060a0850151607f19808584030161012086015261409c8383613fd0565b925060c087015191508085840301610140860152506140bb8282613fd0565b9150508281036060840152610ac78185613fd0565b60ff818116838216019081111561092e5761092e613b09565b60005b838110156141045781810151838201526020016140ec565b50506000910152565b72024b73b30b634b2103234b932b1ba34b7b71d1606d1b81526000825161413b8160138501602087016140e9565b9190910160130192915050565b600081518084526141608160208601602086016140e9565b601f01601f19169290920160200192915050565b602081526000610c276020830184614148565b600181815b808511156141c25781600019048211156141a8576141a8613b09565b808516156141b557918102915b93841c939080029061418c565b509250929050565b6000826141d95750600161092e565b816141e65750600061092e565b81600181146141fc576002811461420657614222565b600191505061092e565b60ff84111561421757614217613b09565b50506001821b61092e565b5060208310610133831016604e8410600b8410161715614245575081810a61092e565b61424f8383614187565b806000190482111561426357614263613b09565b029392505050565b6000610c2783836141ca565b60008261428657614286613b97565b500690565b600060ff821660ff81036142a1576142a1613b09565b60010192915050565b8051600081900b81146134e457600080fd5b60006101008083850312156142d057600080fd5b604051908101906001600160401b03821181831017156142f2576142f26134e9565b81604052809250614302846142aa565b8152614310602085016142aa565b6020820152614321604085016142aa565b6040820152614332606085016142aa565b6060820152614343608085016142aa565b608082015261435460a085016142aa565b60a082015261436560c085016142aa565b60c082015260e0840151915061437a82613261565b60e0015292915050565b6000610200828403121561439757600080fd5b61439f613549565b8251815260208301516020820152604083015160408201526143c484606085016142bc565b60608201526143d66101608401613c5e565b60808201526143e86101808401613c5e565b60a08201526143fa6101a08401613c5e565b60c082015261440c6101c08401613c5e565b60e082015261441e6101e08401613c69565b6101008201529392505050565b6000610100828403121561443e57600080fd5b610c2783836142bc565b600081810b9083900b01607f8113607f198212171561092e5761092e613b09565b600082810b9082900b03607f198112607f8213171561092e5761092e613b09565b634e487b7160e01b600052600160045260246000fd5b6000608082840312156144b257600080fd5b82601f8301126144c157600080fd5b6144c961356c565b8060808401858111156144db57600080fd5b845b818110156144fe5780516144f081613261565b8452602093840193016144dd565b509095945050505050565b848152608081016009851061452057614520613d49565b602082019490945260ff92831660408201529116606090910152919050565b6000602080838503121561455257600080fd5b82516001600160401b0381111561456857600080fd5b8301601f8101851361457957600080fd5b8051614587613602826135be565b81815260059190911b820183019083810190878311156145a657600080fd5b928401925b82841015610ac7578351825292840192908401906145ab565b6000816145d3576145d3613b09565b506000190190565b600080604083850312156145ee57600080fd5b505080516020909101519092909150565b838152608081016146236020830185805160ff908116835260209182015116910152565b826060830152949350505050565b60006060828403121561464357600080fd5b604051606081018181106001600160401b0382111715614665576146656134e9565b604052825161467381613714565b8152602083015161468381613714565b602082015260408301516005811061469a57600080fd5b60408201529392505050565b86815260ff8681166020830152851660408201526060810184905260c08101600584106146d5576146d5613d49565b608082019390935260a00152949350505050565b6040815260006146fc6040830185614148565b9050826020830152939250505056fe854f143c4475e8754c8844dbfe9928cf11388710860ea82bb21c19da10f6c73da26469706673582212202a87706a3ea4d627dd85ba00188672f7e8465ab8073c70930fce1810ba57a7ad64736f6c63430008110033",
  "devdoc": {
    "kind": "dev",
    "methods": {
      "owner()": {
        "details": "Returns the address of the current owner."
      },
      "renounceOwnership()": {
        "details": "Leaves the contract without owner. It will not be possible to call `onlyOwner` functions anymore. Can only be called by the current owner. NOTE: Renouncing ownership will leave the contract without an owner, thereby removing any functionality that is only available to the owner."
      },
      "transferOwnership(address)": {
        "details": "Transfers ownership of the contract to a new account (`newOwner`). Can only be called by the current owner."
      }
    },
    "version": 1
  },
  "userdoc": {
    "kind": "user",
    "methods": {},
    "version": 1
  },
  "storageLayout": {
    "storage": [
      {
        "astId": 7,
        "contract": "contracts/BCPlayers.sol:BCPlayers",
        "label": "_owner",
        "offset": 0,
        "slot": "0",
        "type": "t_address"
      },
      {
        "astId": 19653,
        "contract": "contracts/BCPlayers.sol:BCPlayers",
        "label": "TODO_randomSeed",
        "offset": 0,
        "slot": "1",
        "type": "t_uint256"
      },
      {
        "astId": 17577,
        "contract": "contracts/BCPlayers.sol:BCPlayers",
        "label": "chars",
        "offset": 0,
        "slot": "2",
        "type": "t_contract(CharInterface)17369"
      },
      {
        "astId": 17580,
        "contract": "contracts/BCPlayers.sol:BCPlayers",
        "label": "maps",
        "offset": 0,
        "slot": "3",
        "type": "t_contract(MapInterface)17502"
      },
      {
        "astId": 17583,
        "contract": "contracts/BCPlayers.sol:BCPlayers",
        "label": "bcEvents",
        "offset": 0,
        "slot": "4",
        "type": "t_contract(EventsInterface)17347"
      },
      {
        "astId": 17586,
        "contract": "contracts/BCPlayers.sol:BCPlayers",
        "label": "items",
        "offset": 0,
        "slot": "5",
        "type": "t_contract(ItemsInterface)17547"
      },
      {
        "astId": 17589,
        "contract": "contracts/BCPlayers.sol:BCPlayers",
        "label": "games",
        "offset": 0,
        "slot": "6",
        "type": "t_contract(GamesInterface)17570"
      },
      {
        "astId": 17591,
        "contract": "contracts/BCPlayers.sol:BCPlayers",
        "label": "lobbiesAddress",
        "offset": 0,
        "slot": "7",
        "type": "t_address"
      },
      {
        "astId": 17593,
        "contract": "contracts/BCPlayers.sol:BCPlayers",
        "label": "charsAddress",
        "offset": 0,
        "slot": "8",
        "type": "t_address"
      },
      {
        "astId": 17595,
        "contract": "contracts/BCPlayers.sol:BCPlayers",
        "label": "actionsAddress",
        "offset": 0,
        "slot": "9",
        "type": "t_address"
      },
      {
        "astId": 17669,
        "contract": "contracts/BCPlayers.sol:BCPlayers",
        "label": "StartLocation",
        "offset": 0,
        "slot": "10",
        "type": "t_struct(Position)19434_storage"
      },
      {
        "astId": 17673,
        "contract": "contracts/BCPlayers.sol:BCPlayers",
        "label": "players",
        "offset": 0,
        "slot": "11",
        "type": "t_array(t_struct(Player)19405_storage)dyn_storage"
      }
    ],
    "types": {
      "t_address": {
        "encoding": "inplace",
        "label": "address",
        "numberOfBytes": "20"
      },
      "t_array(t_struct(Player)19405_storage)dyn_storage": {
        "base": "t_struct(Player)19405_storage",
        "encoding": "dynamic_array",
        "label": "struct BCTypes.Player[]",
        "numberOfBytes": "32"
      },
      "t_array(t_uint8)dyn_storage": {
        "base": "t_uint8",
        "encoding": "dynamic_array",
        "label": "uint8[]",
        "numberOfBytes": "32"
      },
      "t_bool": {
        "encoding": "inplace",
        "label": "bool",
        "numberOfBytes": "1"
      },
      "t_contract(CharInterface)17369": {
        "encoding": "inplace",
        "label": "contract CharInterface",
        "numberOfBytes": "20"
      },
      "t_contract(EventsInterface)17347": {
        "encoding": "inplace",
        "label": "contract EventsInterface",
        "numberOfBytes": "20"
      },
      "t_contract(GamesInterface)17570": {
        "encoding": "inplace",
        "label": "contract GamesInterface",
        "numberOfBytes": "20"
      },
      "t_contract(ItemsInterface)17547": {
        "encoding": "inplace",
        "label": "contract ItemsInterface",
        "numberOfBytes": "20"
      },
      "t_contract(MapInterface)17502": {
        "encoding": "inplace",
        "label": "contract MapInterface",
        "numberOfBytes": "20"
      },
      "t_int8": {
        "encoding": "inplace",
        "label": "int8",
        "numberOfBytes": "1"
      },
      "t_struct(Player)19405_storage": {
        "encoding": "inplace",
        "label": "struct BCTypes.Player",
        "members": [
          {
            "astId": 19374,
            "contract": "contracts/BCPlayers.sol:BCPlayers",
            "label": "owner",
            "offset": 0,
            "slot": "0",
            "type": "t_address"
          },
          {
            "astId": 19376,
            "contract": "contracts/BCPlayers.sol:BCPlayers",
            "label": "characterId",
            "offset": 0,
            "slot": "1",
            "type": "t_uint256"
          },
          {
            "astId": 19378,
            "contract": "contracts/BCPlayers.sol:BCPlayers",
            "label": "id",
            "offset": 0,
            "slot": "2",
            "type": "t_uint256"
          },
          {
            "astId": 19381,
            "contract": "contracts/BCPlayers.sol:BCPlayers",
            "label": "currentTraits",
            "offset": 0,
            "slot": "3",
            "type": "t_struct(Traits)19572_storage"
          },
          {
            "astId": 19384,
            "contract": "contracts/BCPlayers.sol:BCPlayers",
            "label": "position",
            "offset": 0,
            "slot": "4",
            "type": "t_struct(Position)19434_storage"
          },
          {
            "astId": 19387,
            "contract": "contracts/BCPlayers.sol:BCPlayers",
            "label": "lastPos",
            "offset": 0,
            "slot": "5",
            "type": "t_struct(Position)19434_storage"
          },
          {
            "astId": 19389,
            "contract": "contracts/BCPlayers.sol:BCPlayers",
            "label": "healthDmgTaken",
            "offset": 0,
            "slot": "6",
            "type": "t_int8"
          },
          {
            "astId": 19391,
            "contract": "contracts/BCPlayers.sol:BCPlayers",
            "label": "armorDmgTaken",
            "offset": 1,
            "slot": "6",
            "type": "t_uint8"
          },
          {
            "astId": 19393,
            "contract": "contracts/BCPlayers.sol:BCPlayers",
            "label": "actionsTaken",
            "offset": 2,
            "slot": "6",
            "type": "t_uint8"
          },
          {
            "astId": 19395,
            "contract": "contracts/BCPlayers.sol:BCPlayers",
            "label": "dataTokens",
            "offset": 3,
            "slot": "6",
            "type": "t_uint8"
          },
          {
            "astId": 19398,
            "contract": "contracts/BCPlayers.sol:BCPlayers",
            "label": "currentEffects",
            "offset": 0,
            "slot": "7",
            "type": "t_array(t_uint8)dyn_storage"
          },
          {
            "astId": 19400,
            "contract": "contracts/BCPlayers.sol:BCPlayers",
            "label": "numItemsHeld",
            "offset": 0,
            "slot": "8",
            "type": "t_uint8"
          },
          {
            "astId": 19402,
            "contract": "contracts/BCPlayers.sol:BCPlayers",
            "label": "dead",
            "offset": 1,
            "slot": "8",
            "type": "t_bool"
          },
          {
            "astId": 19404,
            "contract": "contracts/BCPlayers.sol:BCPlayers",
            "label": "gameId",
            "offset": 0,
            "slot": "9",
            "type": "t_uint256"
          }
        ],
        "numberOfBytes": "320"
      },
      "t_struct(Position)19434_storage": {
        "encoding": "inplace",
        "label": "struct BCTypes.Position",
        "members": [
          {
            "astId": 19431,
            "contract": "contracts/BCPlayers.sol:BCPlayers",
            "label": "row",
            "offset": 0,
            "slot": "0",
            "type": "t_uint8"
          },
          {
            "astId": 19433,
            "contract": "contracts/BCPlayers.sol:BCPlayers",
            "label": "col",
            "offset": 1,
            "slot": "0",
            "type": "t_uint8"
          }
        ],
        "numberOfBytes": "32"
      },
      "t_struct(Traits)19572_storage": {
        "encoding": "inplace",
        "label": "struct BCTypes.Traits",
        "members": [
          {
            "astId": 19557,
            "contract": "contracts/BCPlayers.sol:BCPlayers",
            "label": "health",
            "offset": 0,
            "slot": "0",
            "type": "t_int8"
          },
          {
            "astId": 19559,
            "contract": "contracts/BCPlayers.sol:BCPlayers",
            "label": "carry",
            "offset": 1,
            "slot": "0",
            "type": "t_int8"
          },
          {
            "astId": 19561,
            "contract": "contracts/BCPlayers.sol:BCPlayers",
            "label": "defense",
            "offset": 2,
            "slot": "0",
            "type": "t_int8"
          },
          {
            "astId": 19563,
            "contract": "contracts/BCPlayers.sol:BCPlayers",
            "label": "hack",
            "offset": 3,
            "slot": "0",
            "type": "t_int8"
          },
          {
            "astId": 19565,
            "contract": "contracts/BCPlayers.sol:BCPlayers",
            "label": "breach",
            "offset": 4,
            "slot": "0",
            "type": "t_int8"
          },
          {
            "astId": 19567,
            "contract": "contracts/BCPlayers.sol:BCPlayers",
            "label": "shoot",
            "offset": 5,
            "slot": "0",
            "type": "t_int8"
          },
          {
            "astId": 19569,
            "contract": "contracts/BCPlayers.sol:BCPlayers",
            "label": "melee",
            "offset": 6,
            "slot": "0",
            "type": "t_int8"
          },
          {
            "astId": 19571,
            "contract": "contracts/BCPlayers.sol:BCPlayers",
            "label": "hasGun",
            "offset": 7,
            "slot": "0",
            "type": "t_bool"
          }
        ],
        "numberOfBytes": "32"
      },
      "t_uint256": {
        "encoding": "inplace",
        "label": "uint256",
        "numberOfBytes": "32"
      },
      "t_uint8": {
        "encoding": "inplace",
        "label": "uint8",
        "numberOfBytes": "1"
      }
    }
  }
}