{
  "address": "0xd4566898B7b49F9680b3ADb2d0d9Faa2174Cf186",
  "abi": [
    {
      "inputs": [],
      "stateMutability": "nonpayable",
      "type": "constructor"
    },
    {
      "anonymous": false,
      "inputs": [
        {
          "indexed": false,
          "internalType": "uint256",
          "name": "gameId",
          "type": "uint256"
        },
        {
          "indexed": false,
          "internalType": "uint256",
          "name": "roll",
          "type": "uint256"
        },
        {
          "indexed": false,
          "internalType": "uint256",
          "name": "forValue",
          "type": "uint256"
        },
        {
          "indexed": false,
          "internalType": "uint256",
          "name": "against",
          "type": "uint256"
        }
      ],
      "name": "ChallengeEvent",
      "type": "event"
    },
    {
      "anonymous": false,
      "inputs": [
        {
          "indexed": false,
          "internalType": "uint256",
          "name": "gameId",
          "type": "uint256"
        },
        {
          "indexed": false,
          "internalType": "uint256",
          "name": "roll",
          "type": "uint256"
        }
      ],
      "name": "DiceRollEvent",
      "type": "event"
    },
    {
      "anonymous": false,
      "inputs": [
        {
          "indexed": false,
          "internalType": "uint256",
          "name": "gameId",
          "type": "uint256"
        },
        {
          "indexed": false,
          "internalType": "uint256",
          "name": "playerId",
          "type": "uint256"
        },
        {
          "components": [
            {
              "internalType": "uint256",
              "name": "id",
              "type": "uint256"
            },
            {
              "internalType": "bool",
              "name": "permanent",
              "type": "bool"
            },
            {
              "internalType": "uint8",
              "name": "rollForLow",
              "type": "uint8"
            },
            {
              "internalType": "uint8",
              "name": "rollForHigh",
              "type": "uint8"
            },
            {
              "components": [
                {
                  "internalType": "enum BCEvents.EffectTypes",
                  "name": "effect",
                  "type": "uint8"
                },
                {
                  "internalType": "uint256",
                  "name": "value",
                  "type": "uint256"
                }
              ],
              "internalType": "struct BCEvents.Effect[]",
              "name": "defaultEffect",
              "type": "tuple[]"
            },
            {
              "components": [
                {
                  "internalType": "enum BCEvents.EffectTypes",
                  "name": "effect",
                  "type": "uint8"
                },
                {
                  "internalType": "uint256",
                  "name": "value",
                  "type": "uint256"
                }
              ],
              "internalType": "struct BCEvents.Effect[]",
              "name": "lowEffect",
              "type": "tuple[]"
            },
            {
              "components": [
                {
                  "internalType": "enum BCEvents.EffectTypes",
                  "name": "effect",
                  "type": "uint8"
                },
                {
                  "internalType": "uint256",
                  "name": "value",
                  "type": "uint256"
                }
              ],
              "internalType": "struct BCEvents.Effect[]",
              "name": "highEffect",
              "type": "tuple[]"
            }
          ],
          "indexed": false,
          "internalType": "struct BCEvents.BCEvent",
          "name": "bcEvent",
          "type": "tuple"
        },
        {
          "components": [
            {
              "internalType": "enum BCEvents.EffectTypes",
              "name": "effect",
              "type": "uint8"
            },
            {
              "internalType": "uint256",
              "name": "value",
              "type": "uint256"
            }
          ],
          "indexed": false,
          "internalType": "struct BCEvents.Effect[]",
          "name": "appliedBCEffects",
          "type": "tuple[]"
        }
      ],
      "name": "EventResolvedEvent",
      "type": "event"
    },
    {
      "anonymous": false,
      "inputs": [
        {
          "indexed": true,
          "internalType": "address",
          "name": "previousOwner",
          "type": "address"
        },
        {
          "indexed": true,
          "internalType": "address",
          "name": "newOwner",
          "type": "address"
        }
      ],
      "name": "OwnershipTransferred",
      "type": "event"
    },
    {
      "inputs": [],
      "name": "StartLocation",
      "outputs": [
        {
          "internalType": "uint8",
          "name": "row",
          "type": "uint8"
        },
        {
          "internalType": "uint8",
          "name": "col",
          "type": "uint8"
        }
      ],
      "stateMutability": "view",
      "type": "function"
    },
    {
      "inputs": [
        {
          "internalType": "int256",
          "name": "x",
          "type": "int256"
        }
      ],
      "name": "abs",
      "outputs": [
        {
          "internalType": "int256",
          "name": "",
          "type": "int256"
        }
      ],
      "stateMutability": "pure",
      "type": "function"
    },
    {
      "inputs": [],
      "name": "actionsAddress",
      "outputs": [
        {
          "internalType": "address",
          "name": "",
          "type": "address"
        }
      ],
      "stateMutability": "view",
      "type": "function"
    },
    {
      "inputs": [
        {
          "internalType": "uint256",
          "name": "_charId",
          "type": "uint256"
        },
        {
          "internalType": "address",
          "name": "_owner",
          "type": "address"
        }
      ],
      "name": "addPlayer",
      "outputs": [
        {
          "internalType": "uint256",
          "name": "",
          "type": "uint256"
        }
      ],
      "stateMutability": "nonpayable",
      "type": "function"
    },
    {
      "inputs": [
        {
          "internalType": "uint256",
          "name": "_mapId",
          "type": "uint256"
        },
        {
          "internalType": "uint256[]",
          "name": "_players",
          "type": "uint256[]"
        }
      ],
      "name": "applyHazardDamage",
      "outputs": [],
      "stateMutability": "nonpayable",
      "type": "function"
    },
    {
      "inputs": [],
      "name": "bcEvents",
      "outputs": [
        {
          "internalType": "contract EventsInterface",
          "name": "",
          "type": "address"
        }
      ],
      "stateMutability": "view",
      "type": "function"
    },
    {
      "inputs": [],
      "name": "chars",
      "outputs": [
        {
          "internalType": "contract CharInterface",
          "name": "",
          "type": "address"
        }
      ],
      "stateMutability": "view",
      "type": "function"
    },
    {
      "inputs": [],
      "name": "charsAddress",
      "outputs": [
        {
          "internalType": "address",
          "name": "",
          "type": "address"
        }
      ],
      "stateMutability": "view",
      "type": "function"
    },
    {
      "inputs": [
        {
          "internalType": "uint256",
          "name": "_playerId",
          "type": "uint256"
        },
        {
          "internalType": "uint256",
          "name": "_num",
          "type": "uint256"
        }
      ],
      "name": "decrementNumItemsHeld",
      "outputs": [],
      "stateMutability": "nonpayable",
      "type": "function"
    },
    {
      "inputs": [
        {
          "internalType": "uint256",
          "name": "_playerId",
          "type": "uint256"
        },
        {
          "internalType": "uint256",
          "name": "_gameId",
          "type": "uint256"
        },
        {
          "internalType": "uint256",
          "name": "_mapId",
          "type": "uint256"
        },
        {
          "components": [
            {
              "internalType": "uint8",
              "name": "row",
              "type": "uint8"
            },
            {
              "internalType": "uint8",
              "name": "col",
              "type": "uint8"
            }
          ],
          "internalType": "struct BCTypes.Position",
          "name": "_position",
          "type": "tuple"
        },
        {
          "internalType": "uint256",
          "name": "_eventId",
          "type": "uint256"
        },
        {
          "internalType": "uint256",
          "name": "_effectNum",
          "type": "uint256"
        }
      ],
      "name": "extApplyEffect",
      "outputs": [],
      "stateMutability": "nonpayable",
      "type": "function"
    },
    {
      "inputs": [
        {
          "internalType": "uint256",
          "name": "_choice",
          "type": "uint256"
        },
        {
          "internalType": "uint256",
          "name": "_eventPlayerId",
          "type": "uint256"
        },
        {
          "internalType": "uint256",
          "name": "_gameId",
          "type": "uint256"
        },
        {
          "internalType": "uint256",
          "name": "_mapId",
          "type": "uint256"
        },
        {
          "components": [
            {
              "internalType": "uint8",
              "name": "row",
              "type": "uint8"
            },
            {
              "internalType": "uint8",
              "name": "col",
              "type": "uint8"
            }
          ],
          "internalType": "struct BCTypes.Position",
          "name": "_position",
          "type": "tuple"
        },
        {
          "internalType": "uint256",
          "name": "_eventNumber",
          "type": "uint256"
        },
        {
          "internalType": "enum BCTypes.BCEventType",
          "name": "_eventType",
          "type": "uint8"
        }
      ],
      "name": "extChooseEffect",
      "outputs": [],
      "stateMutability": "nonpayable",
      "type": "function"
    },
    {
      "inputs": [
        {
          "internalType": "uint256",
          "name": "_id",
          "type": "uint256"
        }
      ],
      "name": "extGetActionsTaken",
      "outputs": [
        {
          "internalType": "uint256",
          "name": "",
          "type": "uint256"
        }
      ],
      "stateMutability": "view",
      "type": "function"
    },
    {
      "inputs": [
        {
          "internalType": "uint256",
          "name": "_id",
          "type": "uint256"
        }
      ],
      "name": "extGetPlayer",
      "outputs": [
        {
          "components": [
            {
              "internalType": "address",
              "name": "owner",
              "type": "address"
            },
            {
              "internalType": "uint256",
              "name": "characterId",
              "type": "uint256"
            },
            {
              "components": [
                {
                  "internalType": "int8",
                  "name": "health",
                  "type": "int8"
                },
                {
                  "internalType": "int8",
                  "name": "carry",
                  "type": "int8"
                },
                {
                  "internalType": "int8",
                  "name": "defense",
                  "type": "int8"
                },
                {
                  "internalType": "int8",
                  "name": "hack",
                  "type": "int8"
                },
                {
                  "internalType": "int8",
                  "name": "breach",
                  "type": "int8"
                },
                {
                  "internalType": "int8",
                  "name": "shoot",
                  "type": "int8"
                },
                {
                  "internalType": "int8",
                  "name": "melee",
                  "type": "int8"
                }
              ],
              "internalType": "struct BCTypes.Traits",
              "name": "currentTraits",
              "type": "tuple"
            },
            {
              "components": [
                {
                  "internalType": "uint8",
                  "name": "row",
                  "type": "uint8"
                },
                {
                  "internalType": "uint8",
                  "name": "col",
                  "type": "uint8"
                }
              ],
              "internalType": "struct BCTypes.Position",
              "name": "position",
              "type": "tuple"
            },
            {
              "internalType": "int8",
              "name": "healthDmgTaken",
              "type": "int8"
            },
            {
              "internalType": "uint8",
              "name": "armorDmgTaken",
              "type": "uint8"
            },
            {
              "internalType": "uint8",
              "name": "actionsTaken",
              "type": "uint8"
            },
            {
              "internalType": "uint8",
              "name": "dataTokens",
              "type": "uint8"
            },
            {
              "internalType": "uint8[]",
              "name": "currentEffects",
              "type": "uint8[]"
            },
            {
              "internalType": "uint8",
              "name": "numItemsHeld",
              "type": "uint8"
            },
            {
              "internalType": "bool",
              "name": "canHarmOthers",
              "type": "bool"
            },
            {
              "internalType": "bool",
              "name": "dead",
              "type": "bool"
            },
            {
              "internalType": "bool",
              "name": "hasEgg",
              "type": "bool"
            },
            {
              "internalType": "uint256",
              "name": "gameId",
              "type": "uint256"
            }
          ],
          "internalType": "struct BCTypes.Player",
          "name": "",
          "type": "tuple"
        }
      ],
      "stateMutability": "view",
      "type": "function"
    },
    {
      "inputs": [
        {
          "internalType": "uint256",
          "name": "_id",
          "type": "uint256"
        }
      ],
      "name": "extGetPlayerOwner",
      "outputs": [
        {
          "internalType": "address",
          "name": "",
          "type": "address"
        }
      ],
      "stateMutability": "view",
      "type": "function"
    },
    {
      "inputs": [
        {
          "internalType": "uint256",
          "name": "_playerId",
          "type": "uint256"
        },
        {
          "internalType": "uint256",
          "name": "_amount",
          "type": "uint256"
        },
        {
          "internalType": "bool",
          "name": "_hazard",
          "type": "bool"
        }
      ],
      "name": "extHurtPlayer",
      "outputs": [],
      "stateMutability": "nonpayable",
      "type": "function"
    },
    {
      "inputs": [
        {
          "components": [
            {
              "internalType": "uint8",
              "name": "row",
              "type": "uint8"
            },
            {
              "internalType": "uint8",
              "name": "col",
              "type": "uint8"
            }
          ],
          "internalType": "struct BCTypes.Position",
          "name": "_position",
          "type": "tuple"
        },
        {
          "internalType": "uint256",
          "name": "_playerId",
          "type": "uint256"
        },
        {
          "internalType": "uint256",
          "name": "_mapId",
          "type": "uint256"
        }
      ],
      "name": "extMovePlayer",
      "outputs": [
        {
          "internalType": "bool",
          "name": "",
          "type": "bool"
        }
      ],
      "stateMutability": "nonpayable",
      "type": "function"
    },
    {
      "inputs": [],
      "name": "games",
      "outputs": [
        {
          "internalType": "contract GamesInterface",
          "name": "",
          "type": "address"
        }
      ],
      "stateMutability": "view",
      "type": "function"
    },
    {
      "inputs": [
        {
          "components": [
            {
              "internalType": "uint8",
              "name": "row",
              "type": "uint8"
            },
            {
              "internalType": "uint8",
              "name": "col",
              "type": "uint8"
            }
          ],
          "internalType": "struct BCTypes.Position",
          "name": "_firstRoom",
          "type": "tuple"
        },
        {
          "components": [
            {
              "internalType": "uint8",
              "name": "row",
              "type": "uint8"
            },
            {
              "internalType": "uint8",
              "name": "col",
              "type": "uint8"
            }
          ],
          "internalType": "struct BCTypes.Position",
          "name": "_secondRoom",
          "type": "tuple"
        }
      ],
      "name": "getDirectionBetween",
      "outputs": [
        {
          "internalType": "uint256",
          "name": "",
          "type": "uint256"
        }
      ],
      "stateMutability": "pure",
      "type": "function"
    },
    {
      "inputs": [
        {
          "internalType": "uint256",
          "name": "_direction",
          "type": "uint256"
        },
        {
          "components": [
            {
              "internalType": "uint8",
              "name": "row",
              "type": "uint8"
            },
            {
              "internalType": "uint8",
              "name": "col",
              "type": "uint8"
            }
          ],
          "internalType": "struct BCTypes.Position",
          "name": "_start",
          "type": "tuple"
        }
      ],
      "name": "getNeighborRoom",
      "outputs": [
        {
          "components": [
            {
              "internalType": "uint8",
              "name": "row",
              "type": "uint8"
            },
            {
              "internalType": "uint8",
              "name": "col",
              "type": "uint8"
            }
          ],
          "internalType": "struct BCTypes.Position",
          "name": "",
          "type": "tuple"
        }
      ],
      "stateMutability": "pure",
      "type": "function"
    },
    {
      "inputs": [
        {
          "internalType": "uint256",
          "name": "_traitNum",
          "type": "uint256"
        },
        {
          "internalType": "uint256",
          "name": "_subTraitNum",
          "type": "uint256"
        }
      ],
      "name": "getUIOffset",
      "outputs": [
        {
          "internalType": "uint256",
          "name": "",
          "type": "uint256"
        }
      ],
      "stateMutability": "pure",
      "type": "function"
    },
    {
      "inputs": [
        {
          "internalType": "uint256",
          "name": "_playerId",
          "type": "uint256"
        },
        {
          "internalType": "uint8",
          "name": "_amount",
          "type": "uint8"
        }
      ],
      "name": "grantDataToPlayer",
      "outputs": [],
      "stateMutability": "nonpayable",
      "type": "function"
    },
    {
      "inputs": [
        {
          "internalType": "uint256",
          "name": "_playerId",
          "type": "uint256"
        },
        {
          "internalType": "uint256",
          "name": "_num",
          "type": "uint256"
        }
      ],
      "name": "incrementNumItemsHeld",
      "outputs": [],
      "stateMutability": "nonpayable",
      "type": "function"
    },
    {
      "inputs": [
        {
          "internalType": "uint256",
          "name": "_playerId",
          "type": "uint256"
        }
      ],
      "name": "incrementPlayerActions",
      "outputs": [],
      "stateMutability": "nonpayable",
      "type": "function"
    },
    {
      "inputs": [],
      "name": "items",
      "outputs": [
        {
          "internalType": "contract ItemsInterface",
          "name": "",
          "type": "address"
        }
      ],
      "stateMutability": "view",
      "type": "function"
    },
    {
      "inputs": [],
      "name": "lobbiesAddress",
      "outputs": [
        {
          "internalType": "address",
          "name": "",
          "type": "address"
        }
      ],
      "stateMutability": "view",
      "type": "function"
    },
    {
      "inputs": [],
      "name": "maps",
      "outputs": [
        {
          "internalType": "contract MapInterface",
          "name": "",
          "type": "address"
        }
      ],
      "stateMutability": "view",
      "type": "function"
    },
    {
      "inputs": [
        {
          "internalType": "uint256",
          "name": "_min",
          "type": "uint256"
        },
        {
          "internalType": "uint256",
          "name": "_max",
          "type": "uint256"
        },
        {
          "internalType": "uint256",
          "name": "_val",
          "type": "uint256"
        },
        {
          "internalType": "uint256",
          "name": "_valMax",
          "type": "uint256"
        }
      ],
      "name": "normalizeToSmallRange",
      "outputs": [
        {
          "internalType": "uint8",
          "name": "",
          "type": "uint8"
        }
      ],
      "stateMutability": "pure",
      "type": "function"
    },
    {
      "inputs": [
        {
          "internalType": "uint256",
          "name": "_direction",
          "type": "uint256"
        }
      ],
      "name": "opposite",
      "outputs": [
        {
          "internalType": "uint256",
          "name": "",
          "type": "uint256"
        }
      ],
      "stateMutability": "pure",
      "type": "function"
    },
    {
      "inputs": [],
      "name": "owner",
      "outputs": [
        {
          "internalType": "address",
          "name": "",
          "type": "address"
        }
      ],
      "stateMutability": "view",
      "type": "function"
    },
    {
      "inputs": [
        {
          "internalType": "uint256",
          "name": "",
          "type": "uint256"
        }
      ],
      "name": "players",
      "outputs": [
        {
          "internalType": "address",
          "name": "owner",
          "type": "address"
        },
        {
          "internalType": "uint256",
          "name": "characterId",
          "type": "uint256"
        },
        {
          "components": [
            {
              "internalType": "int8",
              "name": "health",
              "type": "int8"
            },
            {
              "internalType": "int8",
              "name": "carry",
              "type": "int8"
            },
            {
              "internalType": "int8",
              "name": "defense",
              "type": "int8"
            },
            {
              "internalType": "int8",
              "name": "hack",
              "type": "int8"
            },
            {
              "internalType": "int8",
              "name": "breach",
              "type": "int8"
            },
            {
              "internalType": "int8",
              "name": "shoot",
              "type": "int8"
            },
            {
              "internalType": "int8",
              "name": "melee",
              "type": "int8"
            }
          ],
          "internalType": "struct BCTypes.Traits",
          "name": "currentTraits",
          "type": "tuple"
        },
        {
          "components": [
            {
              "internalType": "uint8",
              "name": "row",
              "type": "uint8"
            },
            {
              "internalType": "uint8",
              "name": "col",
              "type": "uint8"
            }
          ],
          "internalType": "struct BCTypes.Position",
          "name": "position",
          "type": "tuple"
        },
        {
          "internalType": "int8",
          "name": "healthDmgTaken",
          "type": "int8"
        },
        {
          "internalType": "uint8",
          "name": "armorDmgTaken",
          "type": "uint8"
        },
        {
          "internalType": "uint8",
          "name": "actionsTaken",
          "type": "uint8"
        },
        {
          "internalType": "uint8",
          "name": "dataTokens",
          "type": "uint8"
        },
        {
          "internalType": "uint8",
          "name": "numItemsHeld",
          "type": "uint8"
        },
        {
          "internalType": "bool",
          "name": "canHarmOthers",
          "type": "bool"
        },
        {
          "internalType": "bool",
          "name": "dead",
          "type": "bool"
        },
        {
          "internalType": "bool",
          "name": "hasEgg",
          "type": "bool"
        },
        {
          "internalType": "uint256",
          "name": "gameId",
          "type": "uint256"
        }
      ],
      "stateMutability": "view",
      "type": "function"
    },
    {
      "inputs": [],
      "name": "randKeccak",
      "outputs": [
        {
          "internalType": "bytes32",
          "name": "",
          "type": "bytes32"
        }
      ],
      "stateMutability": "nonpayable",
      "type": "function"
    },
    {
      "inputs": [],
      "name": "renounceOwnership",
      "outputs": [],
      "stateMutability": "nonpayable",
      "type": "function"
    },
    {
      "inputs": [
        {
          "internalType": "uint256",
          "name": "_playerId",
          "type": "uint256"
        }
      ],
      "name": "resetPlayerActions",
      "outputs": [],
      "stateMutability": "nonpayable",
      "type": "function"
    },
    {
      "inputs": [
        {
          "internalType": "uint256",
          "name": "_gameId",
          "type": "uint256"
        },
        {
          "internalType": "uint256",
          "name": "_for",
          "type": "uint256"
        },
        {
          "internalType": "uint256",
          "name": "_against",
          "type": "uint256"
        }
      ],
      "name": "resolveChallenge",
      "outputs": [
        {
          "internalType": "bool",
          "name": "",
          "type": "bool"
        }
      ],
      "stateMutability": "nonpayable",
      "type": "function"
    },
    {
      "inputs": [
        {
          "internalType": "uint256",
          "name": "_gameId",
          "type": "uint256"
        }
      ],
      "name": "roll",
      "outputs": [
        {
          "internalType": "uint256",
          "name": "",
          "type": "uint256"
        }
      ],
      "stateMutability": "nonpayable",
      "type": "function"
    },
    {
      "inputs": [
        {
          "internalType": "address",
          "name": "_charAddress",
          "type": "address"
        },
        {
          "internalType": "address",
          "name": "_utilsAddress",
          "type": "address"
        },
        {
          "internalType": "address",
          "name": "_mapsAddress",
          "type": "address"
        },
        {
          "internalType": "address",
          "name": "_lobbiesAddress",
          "type": "address"
        },
        {
          "internalType": "address",
          "name": "_actionsAddress",
          "type": "address"
        },
        {
          "internalType": "address",
          "name": "_eventsAddress",
          "type": "address"
        },
        {
          "internalType": "address",
          "name": "_itemsAddress",
          "type": "address"
        },
        {
          "internalType": "address",
          "name": "_gamesAddress",
          "type": "address"
        }
      ],
      "name": "setContractAddresses",
      "outputs": [],
      "stateMutability": "nonpayable",
      "type": "function"
    },
    {
      "inputs": [
        {
          "internalType": "bytes32",
          "name": "_hash",
          "type": "bytes32"
        },
        {
          "internalType": "uint256",
          "name": "_size",
          "type": "uint256"
        },
        {
          "internalType": "uint256",
          "name": "_offset",
          "type": "uint256"
        }
      ],
      "name": "sliceHashToSmallInt",
      "outputs": [
        {
          "internalType": "uint8",
          "name": "",
          "type": "uint8"
        }
      ],
      "stateMutability": "pure",
      "type": "function"
    },
    {
      "inputs": [
        {
          "internalType": "uint8",
          "name": "_min",
          "type": "uint8"
        },
        {
          "internalType": "uint8",
          "name": "_max",
          "type": "uint8"
        }
      ],
      "name": "smallIntBetweenVals",
      "outputs": [
        {
          "internalType": "uint8",
          "name": "",
          "type": "uint8"
        }
      ],
      "stateMutability": "nonpayable",
      "type": "function"
    },
    {
      "inputs": [
        {
          "internalType": "address",
          "name": "newOwner",
          "type": "address"
        }
      ],
      "name": "transferOwnership",
      "outputs": [],
      "stateMutability": "nonpayable",
      "type": "function"
    },
    {
      "inputs": [
        {
          "internalType": "uint256",
          "name": "_charId",
          "type": "uint256"
        },
        {
          "internalType": "uint256",
          "name": "_playerId",
          "type": "uint256"
        }
      ],
      "name": "updatePlayerTraits",
      "outputs": [],
      "stateMutability": "nonpayable",
      "type": "function"
    }
  ],
  "transactionHash": "0xb26f08a746163a62e5f2b5632bbae30e2119a9b65fa1ad516168ad38e458b542",
  "args": [],
  "numDeployments": 2,
  "solcInputHash": "7fa2662d47aa996f50a478880944955c",
  "bytecode": "0x600060015560c0604052600a6080819052600660a052805461ffff191661060a1790553480156200002f57600080fd5b506200003b336200031b565b620000456200036b565b600b81908060018154018082558091505060019003906000526020600020906008020160009091909190915060008201518160000160006101000a8154816001600160a01b0302191690836001600160a01b031602179055506020820151816001015560408201518160020160008201518160000160006101000a81548160ff021916908360000b60ff16021790555060208201518160000160016101000a81548160ff021916908360000b60ff16021790555060408201518160000160026101000a81548160ff021916908360000b60ff16021790555060608201518160000160036101000a81548160ff021916908360000b60ff16021790555060808201518160000160046101000a81548160ff021916908360000b60ff16021790555060a08201518160000160056101000a81548160ff021916908360000b60ff16021790555060c08201518160000160066101000a81548160ff021916908360000b60ff160217905550505060608201518160030160008201518160000160006101000a81548160ff021916908360ff16021790555060208201518160000160016101000a81548160ff021916908360ff160217905550505060808201518160040160006101000a81548160ff021916908360000b60ff16021790555060a08201518160040160016101000a81548160ff021916908360ff16021790555060c08201518160040160026101000a81548160ff021916908360ff16021790555060e08201518160040160036101000a81548160ff021916908360ff160217905550610100820151816005019080519060200190620002a292919062000433565b50610120820151600682018054610140850151610160860151610180870151151563010000000263ff0000001991151562010000029190911663ffff0000199215156101000261ffff1990941660ff909616959095179290921716929092179190911790556101a09091015160079091015550620004f7565b600080546001600160a01b038381166001600160a01b0319831681178455604051919092169283917f8be0079c531659141344cd1fd0a4f28419497f9722a3daafe3b4186f6b6457e09190a35050565b604080516101c08101825260008082526020808301829052835160e081018552828152908101829052808401829052606081018290526080810182905260a0810182905260c081019190915290918201908152602001620003e56040518060400160405280600060ff168152602001600060ff1681525090565b81526000602082018190526040820181905260608083018290526080830182905260a083015260c0820181905260e08201819052610100820181905261012082018190526101409091015290565b82805482825590600052602060002090601f01602090048101928215620004ce5791602002820160005b838211156200049d57835183826101000a81548160ff021916908360ff16021790555092602001926001016020816000010492830192600103026200045d565b8015620004cc5782816101000a81549060ff02191690556001016020816000010492830192600103026200049d565b505b50620004dc929150620004e0565b5090565b5b80821115620004dc5760008155600101620004e1565b613f8d80620005076000396000f3fe608060405234801561001057600080fd5b50600436106102485760003560e01c80638214f2221161013b578063ce28613f116100b8578063f2fde38b1161007c578063f2fde38b14610554578063f71d96cb14610567578063f96f55d014610593578063fa3993c2146105a6578063fe23e2df146105b957600080fd5b8063ce28613f146104d8578063ce932297146104eb578063d6419349146104fe578063dc769ee814610511578063ed8619611461054157600080fd5b8063955a015b116100ff578063955a015b1461047957806397f34c3f1461048c5780639fca1ee11461049f578063b6907194146104b2578063c06fad06146104c557600080fd5b80638214f2221461040f5780638d491b3e146104225780638da5cb5b14610435578063921d279914610446578063951fc3fe1461045957600080fd5b806353011696116101c9578063668a7f3b1161018d578063668a7f3b146103bb5780636d291bbb146103ce578063715018a6146103e15780637b45c0d4146103e95780637ddae103146103fc57600080fd5b8063530116961461033a5780635dc969671461035f57806364db84bf1461038257806365c363f0146103955780636621a421146103a857600080fd5b80631f7b4f30116102105780631f7b4f30146102db578063336d7d7b146102ee578063351dacdf146103015780633deaec2b1461031457806347d0e3c91461032757600080fd5b80630dd0f5881461024d57806310a2cd0d1461026257806310f67fb3146102925780631b5ac4b5146102b25780631e1de205146102d3575b600080fd5b61026061025b366004612c67565b6105cc565b005b600254610275906001600160a01b031681565b6040516001600160a01b0390911681526020015b60405180910390f35b6102a56102a0366004612ca0565b61060f565b6040516102899190612d4e565b6102c56102c0366004612ca0565b6107f4565b604051908152602001610289565b6102c5610814565b6102c56102e9366004612ca0565b61088c565b600754610275906001600160a01b031681565b61026061030f366004612e68565b6108e8565b600354610275906001600160a01b031681565b6102c5610335366004612ca0565b61093d565b61034d610348366004612e8a565b610975565b60405160ff9091168152602001610289565b61037261036d366004612ebc565b6109b2565b6040519015158152602001610289565b6102c5610390366004612e68565b610a4f565b6102606103a3366004612ca0565b610a67565b6102756103b6366004612ca0565b610abf565b6102606103c9366004612fc3565b610af4565b6102606103dc3660046130b6565b610c49565b61026061109e565b600954610275906001600160a01b031681565b600454610275906001600160a01b031681565b6102c561041d366004612ca0565b6110b2565b610372610430366004613123565b61112c565b6000546001600160a01b0316610275565b610260610454366004613173565b611258565b61046c61046736600461320a565b6112e0565b6040516102899190613237565b600654610275906001600160a01b031681565b61034d61049a366004612ebc565b61140a565b600854610275906001600160a01b031681565b6102606104c0366004613255565b611435565b600554610275906001600160a01b031681565b61034d6104e6366004613285565b6114c6565b6102606104f9366004612ca0565b611576565b6102c561050c3660046132b3565b6115e6565b600a546105279060ff8082169161010090041682565b6040805160ff938416815292909116602083015201610289565b61026061054f3660046132d6565b6116db565b610260610562366004613328565b6117d7565b61057a610575366004612ca0565b611850565b6040516102899d9c9b9a99989796959493929190613343565b6102606105a1366004612e68565b611956565b6102c56105b43660046133e8565b611bd5565b6102606105c7366004612e68565b611c9d565b6006546001600160a01b031633146105ff5760405162461bcd60e51b81526004016105f690613414565b60405180910390fd5b61060a838383611cd6565b505050565b610617612b92565b600b828154811061062a5761062a613440565b60009182526020808320604080516101c081018252600890940290910180546001600160a01b03168452600181015484840152815160e08082018452600283015480880b8352610100808204890b84880152620100008083048a0b8588015263010000008084048b0b60608088019190915264010000000085048c0b6080808901919091526501000000000086048d0b60a0808a0191909152600160301b9096048d0b60c0808a01919091528c8b01989098528951808b018b5260038a015460ff8082168352908790048116828e0152928d015260048901549c8d900b908c0152838c048116948b0194909452908a048316948901949094529290970490961695850195909552600581018054835181860281018601909452808452949591949186019390919083018282801561079e57602002820191906000526020600020906000905b825461010083900a900460ff1681526020600192830181810494850194909303909202910180841161076f5790505b5050509183525050600682015460ff808216602084015261010082048116151560408401526201000082048116151560608401526301000000909104161515608082015260079091015460a09091015292915050565b60008082121561080c576108078261346c565b61080e565b815b92915050565b600180546000918261082583613488565b919050555060015460014361083a91906134a1565b403360405160200161087193929190928352602083019190915260601b6bffffffffffffffffffffffff1916604082015260540190565b60405160208183030381529060405280519060200120905090565b60008061089b600160066114c6565b60ff1690507ffe34d093a460a16ee5fb374540914d1c734a17502c0c1a87b387c8d6097e1c5183826040516108da929190918252602082015260400190565b60405180910390a192915050565b80600b83815481106108fc576108fc613440565b600091825260208220600660089092020101805490919061092190849060ff166134b4565b92506101000a81548160ff021916908360ff1602179055505050565b6000600b828154811061095257610952613440565b600091825260209091206008909102016004015462010000900460ff1692915050565b60008061098286866134a1565b905060008361099186846134cd565b61099b91906134fa565b90506109a7878261350e565b979650505050505050565b6000806109be8561088c565b6040805187815260208101839052908101869052606081018590529091507f75b6a8325595f91135e07382840634226793c68c9e59623da7e10d7ad3d95b959060800160405180910390a180600103610a1b576000915050610a48565b600383610a28868461350e565b610a329190613521565b1315610a42576001915050610a48565b60009150505b9392505050565b600081610a5d8460046134cd565b610a48919061350e565b6006546001600160a01b03163314610a7e57600080fd5b6000600b8281548110610a9357610a93613440565b906000526020600020906008020160040160026101000a81548160ff021916908360ff16021790555050565b6000600b8281548110610ad457610ad4613440565b60009182526020909120600890910201546001600160a01b031692915050565b6006546001600160a01b03163314610b1e5760405162461bcd60e51b81526004016105f690613414565b60005b60018251610b2f91906134a1565b811161060a576000600b838381518110610b4b57610b4b613440565b602002602001015181548110610b6357610b63613440565b600091825260208220600380546008939093029091019081015460405163f9dfbfcb60e01b81526004810189905260ff808316602483015261010090920490911660448201529093506001600160a01b039091169063f9dfbfcb9060640161014060405180830381865afa158015610bdf573d6000803e3d6000fd5b505050506040513d601f19601f82011682018060405250810190610c03919061355e565b90508060c0015115610c3457610c34848481518110610c2457610c24613440565b6020026020010151600180611cd6565b50508080610c4190613488565b915050610b21565b610c776040518060400160405280600c81526020016b2fb2bb32b73a273ab6b132b960a11b81525083611dd1565b610cb46040518060400160405280600a8152602001695f6576656e745479706560b01b815250826005811115610caf57610caf613651565b611dd1565b6006546001600160a01b03163314610cde5760405162461bcd60e51b81526004016105f690613414565b610d266040518060e0016040528060008152602001600015158152602001600060ff168152602001600060ff1681526020016060815260200160608152602001606081525090565b6005826005811115610d3a57610d3a613651565b03610db5576004805460405163c82c37b960e01b81529182018590526001600160a01b03169063c82c37b990602401600060405180830381865afa158015610d86573d6000803e3d6000fd5b505050506040513d6000823e601f3d908101601f19168201604052610dae91908101906136ff565b9050610e2e565b6004805460405163e4dc1a8360e01b81526001600160a01b039091169163e4dc1a8391610de6918791879101613805565b600060405180830381865afa158015610e03573d6000803e3d6000fd5b505050506040513d6000823e601f3d908101601f19168201604052610e2b91908101906136ff565b90505b600480546040516336772a9360e21b81526000926001600160a01b039092169163d9dcaa4c91610e62918791899101613819565b600060405180830381865afa158015610e7f573d6000803e3d6000fd5b505050506040513d6000823e601f3d908101601f19168201604052610ea79190810190613834565b9050816040015160ff166000148015610ec55750606082015160ff16155b15610f3b57610ef18888888885600081518110610ee457610ee4613440565b6020026020010151611e1a565b600080516020613f3883398151915287898484600081518110610f1657610f16613440565b6020026020010151604051610f2e9493929190613930565b60405180910390a1611093565b6000610f468861088c565b9050826040015160ff16600014158015610f675750826040015160ff168111155b15610fd057610f868989898986600181518110610ee457610ee4613440565b600080516020613f38833981519152888a8585600181518110610fab57610fab613440565b6020026020010151604051610fc39493929190613930565b60405180910390a1611091565b606083015160ff1615801590610fed5750826060015160ff168110155b156110315761100c8989898986600281518110610ee457610ee4613440565b600080516020613f38833981519152888a8585600281518110610fab57610fab613440565b61104b8989898986600081518110610ee457610ee4613440565b600080516020613f38833981519152888a858560008151811061107057611070613440565b60200260200101516040516110889493929190613930565b60405180910390a15b505b505050505050505050565b6110a66128ac565b6110b06000612906565b565b6000816000036110c457506001919050565b816001036110d457506000919050565b816002036110e457506003919050565b816003036110f457506002919050565b60405162461bcd60e51b815260206004820152600d60248201526c2130b2103234b932b1ba34b7b760991b60448201526064016105f6565b6006546000906001600160a01b031633146111595760405162461bcd60e51b81526004016105f690613414565b83600b848154811061116d5761116d613440565b60009182526020808320845160036008909402909101830180549583015160ff9081166101000261ffff19909716921691909117949094179093555486519287015160405163f9dfbfcb60e01b815292936001600160a01b039092169263f9dfbfcb926111f292889260040192835260ff918216602084015216604082015260600190565b61014060405180830381865afa158015611210573d6000803e3d6000fd5b505050506040513d601f19601f82011682018060405250810190611234919061355e565b5160ff160361124e5761124683612956565b506001610a48565b5060009392505050565b6112606128ac565b600280546001600160a01b03199081166001600160a01b039a8b1617909155600380548216978a169790971790965560078054871695891695909517909455600980548616938816939093179092556004805485169187169190911790556005805484169186169190911790556006805490921693169290921790915550565b6040805180820190915260008082526020820152826000036113325760405180604001604052806001846000015161131891906134b4565b60ff168152602001836020015160ff16815250905061080e565b826001036113565760405180604001604052808360000151600161131891906139e5565b82600203611393576040518060400160405280836000015160ff1681526020018360200151600161138791906139e5565b60ff169052905061080e565b826003036113c4576040518060400160405280836000015160ff1681526020016001846020015161138791906134b4565b60006113cf84612a70565b6040516020016113df9190613a22565b60405160208183030381529060405290508060405162461bcd60e51b81526004016105f69190613a89565b60008082600161141b866002613b80565b61142591906134a1565b901b8516831c9150509392505050565b6009546001600160a01b031633146114865760405162461bcd60e51b8152602060048201526014602482015273139bdd081858dd1a5bdb9cc818dbdb9d1c9858dd60621b60448201526064016105f6565b80600b838154811061149a5761149a613440565b906000526020600020906008020160040160038282829054906101000a900460ff1661092191906139e5565b60018054600091826114d783613488565b91905055506000336001546001436114ef91906134a1565b60405160609390931b6bffffffffffffffffffffffff19166020840152603483019190915240605482015260740160408051601f1981840301815291905280516020909101209050600061154385856134b4565b61154e9060016139e5565b90508460ff168160ff16836115639190613b8c565b61156d919061350e565b95945050505050565b6006546001600160a01b0316331461158d57600080fd5b600b81815481106115a0576115a0613440565b60009182526020909120600890910201600401805462010000900460ff169060026115ca83613ba0565b91906101000a81548160ff021916908360ff1602179055505050565b6007546000906001600160a01b031633146116385760405162461bcd60e51b8152602060048201526012602482015271139bdd081b1bd8989e4818dbdb9d1c9858dd60721b60448201526064016105f6565b600b805460018181018355600083905260089091027f0175b7a638427703f0dbe7bb9bbf987a2551717b34e79f33b5b1008d1fa01db9810180546001600160a01b0387166001600160a01b03199091161781557f0175b7a638427703f0dbe7bb9bbf987a2551717b34e79f33b5b1008d1fa01dba90910186905591546116c49186916105a191906134a1565b600b546116d3906001906134a1565b949350505050565b6009546001600160a01b0316331461172c5760405162461bcd60e51b8152602060048201526014602482015273139bdd081858dd1a5bdb9cc818dbdb9d1c9858dd60621b60448201526064016105f6565b600480546040516336772a9360e21b81526000926001600160a01b039092169163d9dcaa4c9161176191600591889101613819565b600060405180830381865afa15801561177e573d6000803e3d6000fd5b505050506040513d6000823e601f3d908101601f191682016040526117a69190810190613834565b82815181106117b7576117b7613440565b602002602001015190506117ce8787878785611e1a565b50505050505050565b6117df6128ac565b6001600160a01b0381166118445760405162461bcd60e51b815260206004820152602660248201527f4f776e61626c653a206e6577206f776e657220697320746865207a65726f206160448201526564647265737360d01b60648201526084016105f6565b61184d81612906565b50565b600b818154811061186057600080fd5b600091825260208083206008909202909101805460018201546040805160e081018252600285015480880b8252610100808204890b83890152620100008083048a0b8486015263010000008084048b0b606086015264010000000084048b0b60808601526501000000000084048b0b60a0860152600160301b9093048a0b60c08501528451808601909552600388015460ff808216875290839004811699860199909952600488015460068901546007909901546001600160a01b039098169b509599939894979386900b968287048616968281048716969085900481169580821695948104821694938104821693900416908d565b600254604051634810bc5960e01b8152600481018490526000916001600160a01b031690634810bc59906024016101e060405180830381865afa1580156119a1573d6000803e3d6000fd5b505050506040513d601f19601f820116820180604052508101906119c59190613c64565b606001516005546040516347ef26b160e01b8152600481018590529192506000916001600160a01b03909116906347ef26b19060240160e060405180830381865afa158015611a18573d6000803e3d6000fd5b505050506040513d601f19601f82011682018060405250810190611a3c9190613d0b565b90506000600b8481548110611a5357611a53613440565b9060005260206000209060080201905081600001518360000151611a779190613d27565b60028201805460ff191660ff9290921691909117905560208281015190840151611aa19190613d27565b60028201805460ff929092166101000261ff001990921691909117905560408083015190840151611ad29190613d27565b60028201805460ff92909216620100000262ff00001990921691909117905560608083015190840151611b059190613d27565b60028201805460ff9290921663010000000263ff0000001990921691909117905560808083015190840151611b3a9190613d27565b60028201805460ff929092166401000000000264ff000000001990921691909117905560a08083015190840151611b719190613d27565b60028201805460ff92909216650100000000000265ff00000000001990921691909117905560c08083015190840151611baa9190613d27565b6002909101805460ff92909216600160301b0266ff0000000000001990921691909117905550505050565b80518251600091611be591613d48565b60000b600103611bf75750600061080e565b81518351611c059190613d48565b60000b19611c155750600161080e565b81602001518360200151611c299190613d48565b60000b19611c395750600261080e565b81602001518360200151611c4d9190613d48565b60000b600103611c5f5750600361080e565b60405162461bcd60e51b8152602060048201526013602482015272115c9c9bdc8e88139bdd0818591a9858d95b9d606a1b60448201526064016105f6565b80600b8381548110611cb157611cb1613440565b600091825260208220600660089092020101805490919061092190849060ff166139e5565b6000600b8481548110611ceb57611ceb613440565b600091825260208220600254600892909202016001810154604051634810bc5960e01b815260048101919091529093506001600160a01b0390911690634810bc59906024016101e060405180830381865afa158015611d4e573d6000803e3d6000fd5b505050506040513d601f19601f82011682018060405250810190611d729190613c64565b6004830180549192508591600090611d8d908490830b613d27565b825460ff9182166101009390930a9283029190920219909116179055506060810151516004830154600091820b910b12611dca57611dca85612956565b5050505050565b611e168282604051602401611de7929190613d69565b60408051601f198184030181529190526020810180516001600160e01b03166309710a9d60e41b179052612b71565b5050565b60005b81518110156128a4576000600b8781548110611e3b57611e3b613440565b6000918252602090912060089091020190506001838381518110611e6157611e61613440565b6020026020010151600001516016811115611e7e57611e7e613651565b50506002838381518110611e9457611e94613440565b6020026020010151600001516016811115611eb157611eb1613651565b03611ef757828281518110611ec857611ec8613440565b6020026020010151602001516000611ee09190613d48565b60048201805460ff191660ff929092169190911790555b6003838381518110611f0b57611f0b613440565b6020026020010151600001516016811115611f2857611f28613651565b03611f3657611f3687612956565b6004838381518110611f4a57611f4a613440565b6020026020010151600001516016811115611f6757611f67613651565b03611fea5760035484516020860151604051637f1b46bd60e11b81526004810189905260ff928316602482015291166044820152600160648201526001600160a01b039091169063fe368d7a90608401600060405180830381600087803b158015611fd157600080fd5b505af1158015611fe5573d6000803e3d6000fd5b505050505b6005838381518110611ffe57611ffe613440565b602002602001015160000151601681111561201b5761201b613651565b5050600683838151811061203157612031613440565b602002602001015160000151601681111561204e5761204e613651565b036120c35782828151811061206557612065613440565b6020908102919091018101510151600482018054600090612089908490830b613d48565b825460ff9182166101009390930a9283029190920219909116179055506004810154600090810b12156120c35760048101805460ff191690555b60078383815181106120d7576120d7613440565b60200260200101516000015160168111156120f4576120f4613651565b5050600883838151811061210a5761210a613440565b602002602001015160000151601681111561212757612127613651565b03612155576121558784848151811061214257612142613440565b6020026020010151602001516001611cd6565b600983838151811061216957612169613440565b602002602001015160000151601681111561218657612186613651565b036121b4576121b4878484815181106121a1576121a1613440565b6020026020010151602001516000611cd6565b600b8383815181106121c8576121c8613440565b60200260200101516000015160168111156121e5576121e5613651565b5050600d8383815181106121fb576121fb613440565b602002602001015160000151601681111561221857612218613651565b03612244576122448784848151811061223357612233613440565b602002602001015160200151611435565b600e83838151811061225857612258613440565b602002602001015160000151601681111561227557612275613651565b5050600f83838151811061228b5761228b613440565b60200260200101516000015160168111156122a8576122a8613651565b036124c25760008383815181106122c1576122c1613440565b6020908102919091018101510151600554604051633841fae160e01b8152600481018b90529192506000916001600160a01b0390911690633841fae190602401600060405180830381865afa15801561231e573d6000803e3d6000fd5b505050506040513d6000823e601f3d908101601f191682016040526123469190810190613d8b565b8051909150156124bf5760006001825161236091906134a1565b90505b80156123ff5760006123766000836114c6565b9050828160ff168151811061238d5761238d613440565b60200260200101518383815181106123a7576123a7613440565b60200260200101518484815181106123c1576123c1613440565b60200260200101858460ff16815181106123dd576123dd613440565b60209081029190910101919091525250806123f781613e11565b915050612363565b5060005b81518510156124bd5760055482516001600160a01b0390911690635f09c782908c9085908590811061243757612437613440565b60200260200101516040518363ffffffff1660e01b8152600401612465929190918252602082015260400190565b600060405180830381600087803b15801561247f57600080fd5b505af1158015612493573d6000803e3d6000fd5b5050505082806124a290613e11565b93505082156124bd57806124b581613488565b915050612403565b505b50505b60118383815181106124d6576124d6613440565b60200260200101516000015160168111156124f3576124f3613651565b0361261057600583838151811061250c5761250c613440565b6020026020010151602001510361261057600354604051632fc4a8f360e11b81526004810187905260009182916001600160a01b0390911690635f8951e6906024016040805180830381865afa15801561256a573d6000803e3d6000fd5b505050506040513d601f19601f8201168201806040525081019061258e9190613e28565b60065460408051808201825260ff8086168252841660208201529051631751422560e01b81529395509193506001600160a01b0316916317514225916125db918c91908e90600401613e4c565b600060405180830381600087803b1580156125f557600080fd5b505af1158015612609573d6000803e3d6000fd5b5050505050505b601283838151811061262457612624613440565b602002602001015160000151601681111561264157612641613651565b5050601383838151811061265757612657613440565b602002602001015160000151601681111561267457612674613651565b5050601583838151811061268a5761268a613440565b60200260200101516000015160168111156126a7576126a7613651565b0361285e5760005b600481101561285c5760035485516020870151604051630dd43b9b60e31b8152600481018a905260ff928316602482015291166044820152606481018390526000916001600160a01b031690636ea1dcd890608401606060405180830381865afa158015612721573d6000803e3d6000fd5b505050506040513d601f19601f820116820180604052508101906127459190613e7e565b905060018160400151600481111561275f5761275f613651565b1480612780575060028160400151600481111561277e5761277e613651565b145b806127a0575060038160400151600481111561279e5761279e613651565b145b1561284957600360009054906101000a90046001600160a01b03166001600160a01b0316635921522388886000015189602001518660018b8b815181106127e9576127e9613440565b6020026020010151602001516040518763ffffffff1660e01b815260040161281696959493929190613ef4565b600060405180830381600087803b15801561283057600080fd5b505af1158015612844573d6000803e3d6000fd5b505050505b508061285481613488565b9150506126af565b505b601483838151811061287257612872613440565b602002602001015160000151601681111561288f5761288f613651565b5050508061289c81613488565b915050611e1d565b505050505050565b6000546001600160a01b031633146110b05760405162461bcd60e51b815260206004820181905260248201527f4f776e61626c653a2063616c6c6572206973206e6f7420746865206f776e657260448201526064016105f6565b600080546001600160a01b038381166001600160a01b0319831681178455604051919092169283917f8be0079c531659141344cd1fd0a4f28419497f9722a3daafe3b4186f6b6457e09190a35050565b6000600b828154811061296b5761296b613440565b6000918252602090912060089091020160048101805460ff19169055600254600b80549293506001600160a01b0390911691636d6ba7569190859081106129b4576129b4613440565b9060005260206000209060080201600101546040518263ffffffff1660e01b81526004016129e491815260200190565b600060405180830381600087803b1580156129fe57600080fd5b505af1158015612a12573d6000803e3d6000fd5b50505050600a600b8381548110612a2b57612a2b613440565b600091825260209091208254600890920201600301805460ff92831660ff19821681178355935461ffff19909116909317610100938490049092169092021790555050565b606081600003612a975750506040805180820190915260018152600360fc1b602082015290565b8160005b8115612ac15780612aab81613488565b9150612aba9050600a836134fa565b9150612a9b565b60008167ffffffffffffffff811115612adc57612adc612ee8565b6040519080825280601f01601f191660200182016040528015612b06576020820181803683370190505b5090505b84156116d357612b1b6001836134a1565b9150612b28600a86613b8c565b612b3390603061350e565b60f81b818381518110612b4857612b48613440565b60200101906001600160f81b031916908160001a905350612b6a600a866134fa565b9450612b0a565b80516a636f6e736f6c652e6c6f67602083016000808483855afa5050505050565b604080516101c08101825260008082526020808301829052835160e081018552828152908101829052808401829052606081018290526080810182905260a0810182905260c081019190915290918201908152602001612c0b6040518060400160405280600060ff168152602001600060ff1681525090565b81526000602082018190526040820181905260608083018290526080830182905260a083015260c0820181905260e08201819052610100820181905261012082018190526101409091015290565b801515811461184d57600080fd5b600080600060608486031215612c7c57600080fd5b83359250602084013591506040840135612c9581612c59565b809150509250925092565b600060208284031215612cb257600080fd5b5035919050565b8051600081810b84526020830151810b60208501526040830151810b60408501526060830151810b60608501526080830151810b608085015260a0830151810b60a085015260c0830151810b60c085015250505050565b600081518084526020808501945080840160005b83811015612d4357815160ff1687529582019590820190600101612d24565b509495945050505050565b60208152612d686020820183516001600160a01b03169052565b6020820151604082015260006040830151612d866060840182612cb9565b506060830151610140612dab81850183805160ff908116835260209182015116910152565b60808501519150610180612dc38186018460000b9052565b60a086015192506101a0612ddb8187018560ff169052565b60c087015160ff9081166101c088015260e0880151166101e08701526101008701516102a06102008801819052909450612e196102c0880186612d10565b9450610120880151612e3161022089018260ff169052565b5092870151151561024087015261016087015115156102608701529086015115156102808601529094015192909301919091525090565b60008060408385031215612e7b57600080fd5b50508035926020909101359150565b60008060008060808587031215612ea057600080fd5b5050823594602084013594506040840135936060013592509050565b600080600060608486031215612ed157600080fd5b505081359360208301359350604090920135919050565b634e487b7160e01b600052604160045260246000fd5b6040805190810167ffffffffffffffff81118282101715612f2157612f21612ee8565b60405290565b60405160e0810167ffffffffffffffff81118282101715612f2157612f21612ee8565b604051610120810167ffffffffffffffff81118282101715612f2157612f21612ee8565b604051601f8201601f1916810167ffffffffffffffff81118282101715612f9757612f97612ee8565b604052919050565b600067ffffffffffffffff821115612fb957612fb9612ee8565b5060051b60200190565b60008060408385031215612fd657600080fd5b8235915060208084013567ffffffffffffffff811115612ff557600080fd5b8401601f8101861361300657600080fd5b803561301961301482612f9f565b612f6e565b81815260059190911b8201830190838101908883111561303857600080fd5b928401925b828410156130565783358252928401929084019061303d565b80955050505050509250929050565b60ff8116811461184d57600080fd5b60006040828403121561308657600080fd5b61308e612efe565b9050813561309b81613065565b815260208201356130ab81613065565b602082015292915050565b6000806000806000806000610100888a0312156130d257600080fd5b873596506020880135955060408801359450606088013593506130f88960808a01613074565b925060c0880135915060e08801356006811061311357600080fd5b8091505092959891949750929550565b60008060006080848603121561313857600080fd5b6131428585613074565b95604085013595506060909401359392505050565b80356001600160a01b038116811461316e57600080fd5b919050565b600080600080600080600080610100898b03121561319057600080fd5b61319989613157565b97506131a760208a01613157565b96506131b560408a01613157565b95506131c360608a01613157565b94506131d160808a01613157565b93506131df60a08a01613157565b92506131ed60c08a01613157565b91506131fb60e08a01613157565b90509295985092959890939650565b6000806060838503121561321d57600080fd5b8235915061322e8460208501613074565b90509250929050565b6040810161080e8284805160ff908116835260209182015116910152565b6000806040838503121561326857600080fd5b82359150602083013561327a81613065565b809150509250929050565b6000806040838503121561329857600080fd5b82356132a381613065565b9150602083013561327a81613065565b600080604083850312156132c657600080fd5b8235915061322e60208401613157565b60008060008060008060e087890312156132ef57600080fd5b86359550602087013594506040870135935061330e8860608901613074565b925060a0870135915060c087013590509295509295509295565b60006020828403121561333a57600080fd5b610a4882613157565b6001600160a01b038e168152602081018d90526102808101613368604083018e612cb9565b8b5160ff90811661012084015260208d0151166101408301528a60000b61016083015260ff8a1661018083015260ff89166101a083015260ff88166101c08301526133b96101e083018860ff169052565b941515610200820152921515610220840152901515610240830152610260909101529998505050505050505050565b600080608083850312156133fb57600080fd5b6134058484613074565b915061322e8460408501613074565b602080825260129082015271139bdd0819d85b595cc818dbdb9d1c9858dd60721b604082015260600190565b634e487b7160e01b600052603260045260246000fd5b634e487b7160e01b600052601160045260246000fd5b6000600160ff1b820161348157613481613456565b5060000390565b60006001820161349a5761349a613456565b5060010190565b8181038181111561080e5761080e613456565b60ff828116828216039081111561080e5761080e613456565b808202811582820484141761080e5761080e613456565b634e487b7160e01b600052601260045260246000fd5b600082613509576135096134e4565b500490565b8082018082111561080e5761080e613456565b818103600083128015838313168383128216171561354157613541613456565b5092915050565b805161316e81613065565b805161316e81612c59565b6000610140828403121561357157600080fd5b613579612f27565b825161358481613065565b815260208381015161359581613065565b82820152605f840185136135a857600080fd5b6040516080810181811067ffffffffffffffff821117156135cb576135cb612ee8565b6040528060c08601878111156135e057600080fd5b604087015b818110156135fc57805183529184019184016135e5565b5082604086015261360c81613553565b60608601525050505061362160e08401613553565b60808201526136336101008401613553565b60a08201526136456101208401613553565b60c08201529392505050565b634e487b7160e01b600052602160045260246000fd5b600082601f83011261367857600080fd5b8151602061368861301483612f9f565b82815260069290921b840181019181810190868411156136a757600080fd5b8286015b848110156136f457604081890312156136c45760008081fd5b6136cc612efe565b8151601781106136dc5760008081fd5b815281850151858201528352918301916040016136ab565b509695505050505050565b60006020828403121561371157600080fd5b815167ffffffffffffffff8082111561372957600080fd5b9083019060e0828603121561373d57600080fd5b613745612f27565b8251815261375560208401613553565b602082015261376660408401613548565b604082015261377760608401613548565b606082015260808301518281111561378e57600080fd5b61379a87828601613667565b60808301525060a0830151828111156137b257600080fd5b6137be87828601613667565b60a08301525060c0830151828111156137d657600080fd5b6137e287828601613667565b60c08301525095945050505050565b6006811061380157613801613651565b9052565b82815260408101610a4860208301846137f1565b6040810161382782856137f1565b8260208301529392505050565b6000602080838503121561384757600080fd5b825167ffffffffffffffff8082111561385f57600080fd5b818501915085601f83011261387357600080fd5b815161388161301482612f9f565b81815260059190911b830184019084810190888311156138a057600080fd5b8585015b838110156138d8578051858111156138bc5760008081fd5b6138ca8b89838a0101613667565b8452509186019186016138a4565b5098975050505050505050565b600081518084526020808501945080840160005b83811015612d4357815180516017811061391557613915613651565b885283015183880152604090960195908201906001016138f9565b84815283602082015260806040820152825160808201526020830151151560a082015260ff60408401511660c08201526000606084015161397660e084018260ff169052565b50608084015160e06101008401526139926101608401826138e5565b905060a0850151607f1980858403016101208601526139b183836138e5565b925060c087015191508085840301610140860152506139d082826138e5565b91505082810360608401526109a781856138e5565b60ff818116838216019081111561080e5761080e613456565b60005b83811015613a19578181015183820152602001613a01565b50506000910152565b72024b73b30b634b2103234b932b1ba34b7b71d1606d1b815260008251613a508160138501602087016139fe565b9190910160130192915050565b60008151808452613a758160208601602086016139fe565b601f01601f19169290920160200192915050565b602081526000610a486020830184613a5d565b600181815b80851115613ad7578160001904821115613abd57613abd613456565b80851615613aca57918102915b93841c9390800290613aa1565b509250929050565b600082613aee5750600161080e565b81613afb5750600061080e565b8160018114613b115760028114613b1b57613b37565b600191505061080e565b60ff841115613b2c57613b2c613456565b50506001821b61080e565b5060208310610133831016604e8410600b8410161715613b5a575081810a61080e565b613b648383613a9c565b8060001904821115613b7857613b78613456565b029392505050565b6000610a488383613adf565b600082613b9b57613b9b6134e4565b500690565b600060ff821660ff8103613bb657613bb6613456565b60010192915050565b8051600081900b811461316e57600080fd5b600060e08284031215613be357600080fd5b613beb612f27565b9050613bf682613bbf565b8152613c0460208301613bbf565b6020820152613c1560408301613bbf565b6040820152613c2660608301613bbf565b6060820152613c3760808301613bbf565b6080820152613c4860a08301613bbf565b60a0820152613c5960c08301613bbf565b60c082015292915050565b60006101e08284031215613c7757600080fd5b613c7f612f4a565b825181526020830151602082015260408301516040820152613ca48460608501613bd1565b6060820152613cb66101408401613548565b6080820152613cc86101608401613548565b60a0820152613cda6101808401613548565b60c0820152613cec6101a08401613548565b60e0820152613cfe6101c08401613553565b6101008201529392505050565b600060e08284031215613d1d57600080fd5b610a488383613bd1565b600081810b9083900b01607f8113607f198212171561080e5761080e613456565b600082810b9082900b03607f198112607f8213171561080e5761080e613456565b604081526000613d7c6040830185613a5d565b90508260208301529392505050565b60006020808385031215613d9e57600080fd5b825167ffffffffffffffff811115613db557600080fd5b8301601f81018513613dc657600080fd5b8051613dd461301482612f9f565b81815260059190911b82018301908381019087831115613df357600080fd5b928401925b828410156109a757835182529284019290840190613df8565b600081613e2057613e20613456565b506000190190565b60008060408385031215613e3b57600080fd5b505080516020909101519092909150565b83815260808101613e706020830185805160ff908116835260209182015116910152565b826060830152949350505050565b600060608284031215613e9057600080fd5b6040516060810181811067ffffffffffffffff82111715613eb357613eb3612ee8565b6040528251613ec181613065565b81526020830151613ed181613065565b6020820152604083015160058110613ee857600080fd5b60408201529392505050565b86815260ff8681166020830152851660408201526060810184905260c0810160058410613f2357613f23613651565b608082019390935260a0015294935050505056fe854f143c4475e8754c8844dbfe9928cf11388710860ea82bb21c19da10f6c73da2646970667358221220098af5d3f0708d335ecd13dabd77454da9dd2205d515b4b2e3fb0076b691b72964736f6c63430008110033",
  "devdoc": {
    "kind": "dev",
    "methods": {
      "owner()": {
        "details": "Returns the address of the current owner."
      },
      "renounceOwnership()": {
        "details": "Leaves the contract without owner. It will not be possible to call `onlyOwner` functions anymore. Can only be called by the current owner. NOTE: Renouncing ownership will leave the contract without an owner, thereby removing any functionality that is only available to the owner."
      },
      "transferOwnership(address)": {
        "details": "Transfers ownership of the contract to a new account (`newOwner`). Can only be called by the current owner."
      }
    },
    "version": 1
  },
  "userdoc": {
    "kind": "user",
    "methods": {},
    "version": 1
  },
  "storageLayout": {
    "storage": [
      {
        "astId": 7,
        "contract": "contracts/BCPlayers.sol:BCPlayers",
        "label": "_owner",
        "offset": 0,
        "slot": "0",
        "type": "t_address"
      },
      {
        "astId": 16252,
        "contract": "contracts/BCPlayers.sol:BCPlayers",
        "label": "TODO_randomSeed",
        "offset": 0,
        "slot": "1",
        "type": "t_uint256"
      },
      {
        "astId": 14477,
        "contract": "contracts/BCPlayers.sol:BCPlayers",
        "label": "chars",
        "offset": 0,
        "slot": "2",
        "type": "t_contract(CharInterface)14315"
      },
      {
        "astId": 14480,
        "contract": "contracts/BCPlayers.sol:BCPlayers",
        "label": "maps",
        "offset": 0,
        "slot": "3",
        "type": "t_contract(MapInterface)14435"
      },
      {
        "astId": 14483,
        "contract": "contracts/BCPlayers.sol:BCPlayers",
        "label": "bcEvents",
        "offset": 0,
        "slot": "4",
        "type": "t_contract(EventsInterface)14293"
      },
      {
        "astId": 14486,
        "contract": "contracts/BCPlayers.sol:BCPlayers",
        "label": "items",
        "offset": 0,
        "slot": "5",
        "type": "t_contract(ItemsInterface)14459"
      },
      {
        "astId": 14489,
        "contract": "contracts/BCPlayers.sol:BCPlayers",
        "label": "games",
        "offset": 0,
        "slot": "6",
        "type": "t_contract(GamesInterface)14470"
      },
      {
        "astId": 14491,
        "contract": "contracts/BCPlayers.sol:BCPlayers",
        "label": "lobbiesAddress",
        "offset": 0,
        "slot": "7",
        "type": "t_address"
      },
      {
        "astId": 14493,
        "contract": "contracts/BCPlayers.sol:BCPlayers",
        "label": "charsAddress",
        "offset": 0,
        "slot": "8",
        "type": "t_address"
      },
      {
        "astId": 14495,
        "contract": "contracts/BCPlayers.sol:BCPlayers",
        "label": "actionsAddress",
        "offset": 0,
        "slot": "9",
        "type": "t_address"
      },
      {
        "astId": 14569,
        "contract": "contracts/BCPlayers.sol:BCPlayers",
        "label": "StartLocation",
        "offset": 0,
        "slot": "10",
        "type": "t_struct(Position)16047_storage"
      },
      {
        "astId": 14573,
        "contract": "contracts/BCPlayers.sol:BCPlayers",
        "label": "players",
        "offset": 0,
        "slot": "11",
        "type": "t_array(t_struct(Player)16020_storage)dyn_storage"
      }
    ],
    "types": {
      "t_address": {
        "encoding": "inplace",
        "label": "address",
        "numberOfBytes": "20"
      },
      "t_array(t_struct(Player)16020_storage)dyn_storage": {
        "base": "t_struct(Player)16020_storage",
        "encoding": "dynamic_array",
        "label": "struct BCTypes.Player[]",
        "numberOfBytes": "32"
      },
      "t_array(t_uint8)dyn_storage": {
        "base": "t_uint8",
        "encoding": "dynamic_array",
        "label": "uint8[]",
        "numberOfBytes": "32"
      },
      "t_bool": {
        "encoding": "inplace",
        "label": "bool",
        "numberOfBytes": "1"
      },
      "t_contract(CharInterface)14315": {
        "encoding": "inplace",
        "label": "contract CharInterface",
        "numberOfBytes": "20"
      },
      "t_contract(EventsInterface)14293": {
        "encoding": "inplace",
        "label": "contract EventsInterface",
        "numberOfBytes": "20"
      },
      "t_contract(GamesInterface)14470": {
        "encoding": "inplace",
        "label": "contract GamesInterface",
        "numberOfBytes": "20"
      },
      "t_contract(ItemsInterface)14459": {
        "encoding": "inplace",
        "label": "contract ItemsInterface",
        "numberOfBytes": "20"
      },
      "t_contract(MapInterface)14435": {
        "encoding": "inplace",
        "label": "contract MapInterface",
        "numberOfBytes": "20"
      },
      "t_int8": {
        "encoding": "inplace",
        "label": "int8",
        "numberOfBytes": "1"
      },
      "t_struct(Player)16020_storage": {
        "encoding": "inplace",
        "label": "struct BCTypes.Player",
        "members": [
          {
            "astId": 15990,
            "contract": "contracts/BCPlayers.sol:BCPlayers",
            "label": "owner",
            "offset": 0,
            "slot": "0",
            "type": "t_address"
          },
          {
            "astId": 15992,
            "contract": "contracts/BCPlayers.sol:BCPlayers",
            "label": "characterId",
            "offset": 0,
            "slot": "1",
            "type": "t_uint256"
          },
          {
            "astId": 15995,
            "contract": "contracts/BCPlayers.sol:BCPlayers",
            "label": "currentTraits",
            "offset": 0,
            "slot": "2",
            "type": "t_struct(Traits)16177_storage"
          },
          {
            "astId": 15998,
            "contract": "contracts/BCPlayers.sol:BCPlayers",
            "label": "position",
            "offset": 0,
            "slot": "3",
            "type": "t_struct(Position)16047_storage"
          },
          {
            "astId": 16000,
            "contract": "contracts/BCPlayers.sol:BCPlayers",
            "label": "healthDmgTaken",
            "offset": 0,
            "slot": "4",
            "type": "t_int8"
          },
          {
            "astId": 16002,
            "contract": "contracts/BCPlayers.sol:BCPlayers",
            "label": "armorDmgTaken",
            "offset": 1,
            "slot": "4",
            "type": "t_uint8"
          },
          {
            "astId": 16004,
            "contract": "contracts/BCPlayers.sol:BCPlayers",
            "label": "actionsTaken",
            "offset": 2,
            "slot": "4",
            "type": "t_uint8"
          },
          {
            "astId": 16006,
            "contract": "contracts/BCPlayers.sol:BCPlayers",
            "label": "dataTokens",
            "offset": 3,
            "slot": "4",
            "type": "t_uint8"
          },
          {
            "astId": 16009,
            "contract": "contracts/BCPlayers.sol:BCPlayers",
            "label": "currentEffects",
            "offset": 0,
            "slot": "5",
            "type": "t_array(t_uint8)dyn_storage"
          },
          {
            "astId": 16011,
            "contract": "contracts/BCPlayers.sol:BCPlayers",
            "label": "numItemsHeld",
            "offset": 0,
            "slot": "6",
            "type": "t_uint8"
          },
          {
            "astId": 16013,
            "contract": "contracts/BCPlayers.sol:BCPlayers",
            "label": "canHarmOthers",
            "offset": 1,
            "slot": "6",
            "type": "t_bool"
          },
          {
            "astId": 16015,
            "contract": "contracts/BCPlayers.sol:BCPlayers",
            "label": "dead",
            "offset": 2,
            "slot": "6",
            "type": "t_bool"
          },
          {
            "astId": 16017,
            "contract": "contracts/BCPlayers.sol:BCPlayers",
            "label": "hasEgg",
            "offset": 3,
            "slot": "6",
            "type": "t_bool"
          },
          {
            "astId": 16019,
            "contract": "contracts/BCPlayers.sol:BCPlayers",
            "label": "gameId",
            "offset": 0,
            "slot": "7",
            "type": "t_uint256"
          }
        ],
        "numberOfBytes": "256"
      },
      "t_struct(Position)16047_storage": {
        "encoding": "inplace",
        "label": "struct BCTypes.Position",
        "members": [
          {
            "astId": 16044,
            "contract": "contracts/BCPlayers.sol:BCPlayers",
            "label": "row",
            "offset": 0,
            "slot": "0",
            "type": "t_uint8"
          },
          {
            "astId": 16046,
            "contract": "contracts/BCPlayers.sol:BCPlayers",
            "label": "col",
            "offset": 1,
            "slot": "0",
            "type": "t_uint8"
          }
        ],
        "numberOfBytes": "32"
      },
      "t_struct(Traits)16177_storage": {
        "encoding": "inplace",
        "label": "struct BCTypes.Traits",
        "members": [
          {
            "astId": 16164,
            "contract": "contracts/BCPlayers.sol:BCPlayers",
            "label": "health",
            "offset": 0,
            "slot": "0",
            "type": "t_int8"
          },
          {
            "astId": 16166,
            "contract": "contracts/BCPlayers.sol:BCPlayers",
            "label": "carry",
            "offset": 1,
            "slot": "0",
            "type": "t_int8"
          },
          {
            "astId": 16168,
            "contract": "contracts/BCPlayers.sol:BCPlayers",
            "label": "defense",
            "offset": 2,
            "slot": "0",
            "type": "t_int8"
          },
          {
            "astId": 16170,
            "contract": "contracts/BCPlayers.sol:BCPlayers",
            "label": "hack",
            "offset": 3,
            "slot": "0",
            "type": "t_int8"
          },
          {
            "astId": 16172,
            "contract": "contracts/BCPlayers.sol:BCPlayers",
            "label": "breach",
            "offset": 4,
            "slot": "0",
            "type": "t_int8"
          },
          {
            "astId": 16174,
            "contract": "contracts/BCPlayers.sol:BCPlayers",
            "label": "shoot",
            "offset": 5,
            "slot": "0",
            "type": "t_int8"
          },
          {
            "astId": 16176,
            "contract": "contracts/BCPlayers.sol:BCPlayers",
            "label": "melee",
            "offset": 6,
            "slot": "0",
            "type": "t_int8"
          }
        ],
        "numberOfBytes": "32"
      },
      "t_uint256": {
        "encoding": "inplace",
        "label": "uint256",
        "numberOfBytes": "32"
      },
      "t_uint8": {
        "encoding": "inplace",
        "label": "uint8",
        "numberOfBytes": "1"
      }
    }
  }
}