{
  "address": "0x8e6eBd32126A388FeDe327fBFe011ad0149890E9",
  "abi": [
    {
      "inputs": [],
      "stateMutability": "nonpayable",
      "type": "constructor"
    },
    {
      "anonymous": false,
      "inputs": [
        {
          "indexed": false,
          "internalType": "uint256",
          "name": "gameId",
          "type": "uint256"
        },
        {
          "indexed": false,
          "internalType": "uint256",
          "name": "playerId",
          "type": "uint256"
        },
        {
          "components": [
            {
              "internalType": "uint256",
              "name": "id",
              "type": "uint256"
            },
            {
              "internalType": "bool",
              "name": "permanent",
              "type": "bool"
            },
            {
              "internalType": "uint8",
              "name": "rollForLow",
              "type": "uint8"
            },
            {
              "internalType": "uint8",
              "name": "rollForHigh",
              "type": "uint8"
            },
            {
              "components": [
                {
                  "internalType": "enum BCEvents.EffectTypes",
                  "name": "effect",
                  "type": "uint8"
                },
                {
                  "internalType": "uint256",
                  "name": "value",
                  "type": "uint256"
                }
              ],
              "internalType": "struct BCEvents.Effect[]",
              "name": "defaultEffect",
              "type": "tuple[]"
            },
            {
              "components": [
                {
                  "internalType": "enum BCEvents.EffectTypes",
                  "name": "effect",
                  "type": "uint8"
                },
                {
                  "internalType": "uint256",
                  "name": "value",
                  "type": "uint256"
                }
              ],
              "internalType": "struct BCEvents.Effect[]",
              "name": "lowEffect",
              "type": "tuple[]"
            },
            {
              "components": [
                {
                  "internalType": "enum BCEvents.EffectTypes",
                  "name": "effect",
                  "type": "uint8"
                },
                {
                  "internalType": "uint256",
                  "name": "value",
                  "type": "uint256"
                }
              ],
              "internalType": "struct BCEvents.Effect[]",
              "name": "highEffect",
              "type": "tuple[]"
            }
          ],
          "indexed": false,
          "internalType": "struct BCEvents.BCEvent",
          "name": "bcEvent",
          "type": "tuple"
        },
        {
          "components": [
            {
              "internalType": "enum BCEvents.EffectTypes",
              "name": "effect",
              "type": "uint8"
            },
            {
              "internalType": "uint256",
              "name": "value",
              "type": "uint256"
            }
          ],
          "indexed": false,
          "internalType": "struct BCEvents.Effect[]",
          "name": "bcEffects",
          "type": "tuple[]"
        }
      ],
      "name": "EventResolvedEvent",
      "type": "event"
    },
    {
      "anonymous": false,
      "inputs": [
        {
          "indexed": true,
          "internalType": "address",
          "name": "previousOwner",
          "type": "address"
        },
        {
          "indexed": true,
          "internalType": "address",
          "name": "newOwner",
          "type": "address"
        }
      ],
      "name": "OwnershipTransferred",
      "type": "event"
    },
    {
      "inputs": [],
      "name": "StartLocation",
      "outputs": [
        {
          "internalType": "uint8",
          "name": "row",
          "type": "uint8"
        },
        {
          "internalType": "uint8",
          "name": "col",
          "type": "uint8"
        }
      ],
      "stateMutability": "view",
      "type": "function"
    },
    {
      "inputs": [],
      "name": "actionsAddress",
      "outputs": [
        {
          "internalType": "address",
          "name": "",
          "type": "address"
        }
      ],
      "stateMutability": "view",
      "type": "function"
    },
    {
      "inputs": [
        {
          "internalType": "address",
          "name": "_charContractAddress",
          "type": "address"
        },
        {
          "internalType": "uint256",
          "name": "_charId",
          "type": "uint256"
        },
        {
          "internalType": "address",
          "name": "_owner",
          "type": "address"
        }
      ],
      "name": "addPlayer",
      "outputs": [
        {
          "internalType": "uint256",
          "name": "",
          "type": "uint256"
        }
      ],
      "stateMutability": "nonpayable",
      "type": "function"
    },
    {
      "inputs": [
        {
          "internalType": "uint256",
          "name": "_mapId",
          "type": "uint256"
        },
        {
          "internalType": "uint256[]",
          "name": "_players",
          "type": "uint256[]"
        }
      ],
      "name": "applyHazardDamage",
      "outputs": [],
      "stateMutability": "nonpayable",
      "type": "function"
    },
    {
      "inputs": [],
      "name": "bcEvents",
      "outputs": [
        {
          "internalType": "contract EventsInterface",
          "name": "",
          "type": "address"
        }
      ],
      "stateMutability": "view",
      "type": "function"
    },
    {
      "inputs": [],
      "name": "chars",
      "outputs": [
        {
          "internalType": "contract CharInterface",
          "name": "",
          "type": "address"
        }
      ],
      "stateMutability": "view",
      "type": "function"
    },
    {
      "inputs": [],
      "name": "charsAddress",
      "outputs": [
        {
          "internalType": "address",
          "name": "",
          "type": "address"
        }
      ],
      "stateMutability": "view",
      "type": "function"
    },
    {
      "inputs": [
        {
          "internalType": "uint256",
          "name": "_playerId",
          "type": "uint256"
        },
        {
          "internalType": "uint256",
          "name": "_gameId",
          "type": "uint256"
        },
        {
          "internalType": "uint256",
          "name": "_mapId",
          "type": "uint256"
        },
        {
          "components": [
            {
              "internalType": "uint8",
              "name": "row",
              "type": "uint8"
            },
            {
              "internalType": "uint8",
              "name": "col",
              "type": "uint8"
            }
          ],
          "internalType": "struct BCTypes.Position",
          "name": "_position",
          "type": "tuple"
        },
        {
          "internalType": "uint256",
          "name": "_eventId",
          "type": "uint256"
        },
        {
          "internalType": "uint256",
          "name": "_effectNum",
          "type": "uint256"
        }
      ],
      "name": "extApplyEffect",
      "outputs": [],
      "stateMutability": "nonpayable",
      "type": "function"
    },
    {
      "inputs": [
        {
          "internalType": "uint256",
          "name": "_choice",
          "type": "uint256"
        },
        {
          "internalType": "uint256",
          "name": "_eventPlayerId",
          "type": "uint256"
        },
        {
          "internalType": "uint256",
          "name": "_gameId",
          "type": "uint256"
        },
        {
          "internalType": "uint256",
          "name": "_mapId",
          "type": "uint256"
        },
        {
          "components": [
            {
              "internalType": "uint8",
              "name": "row",
              "type": "uint8"
            },
            {
              "internalType": "uint8",
              "name": "col",
              "type": "uint8"
            }
          ],
          "internalType": "struct BCTypes.Position",
          "name": "_position",
          "type": "tuple"
        },
        {
          "internalType": "uint256",
          "name": "_eventNumber",
          "type": "uint256"
        },
        {
          "internalType": "bool",
          "name": "_eventIsTile",
          "type": "bool"
        }
      ],
      "name": "extChooseEffect",
      "outputs": [],
      "stateMutability": "nonpayable",
      "type": "function"
    },
    {
      "inputs": [
        {
          "internalType": "uint256",
          "name": "_id",
          "type": "uint256"
        }
      ],
      "name": "extGetPlayer",
      "outputs": [
        {
          "components": [
            {
              "internalType": "address",
              "name": "owner",
              "type": "address"
            },
            {
              "internalType": "address",
              "name": "charContractAddress",
              "type": "address"
            },
            {
              "internalType": "uint256",
              "name": "characterId",
              "type": "uint256"
            },
            {
              "components": [
                {
                  "internalType": "uint8",
                  "name": "row",
                  "type": "uint8"
                },
                {
                  "internalType": "uint8",
                  "name": "col",
                  "type": "uint8"
                }
              ],
              "internalType": "struct BCTypes.Position",
              "name": "position",
              "type": "tuple"
            },
            {
              "internalType": "int8",
              "name": "healthDmgTaken",
              "type": "int8"
            },
            {
              "internalType": "uint8",
              "name": "armorDmgTaken",
              "type": "uint8"
            },
            {
              "internalType": "uint8",
              "name": "actionsTaken",
              "type": "uint8"
            },
            {
              "internalType": "uint8",
              "name": "dataTokens",
              "type": "uint8"
            },
            {
              "internalType": "uint8[]",
              "name": "currentEffects",
              "type": "uint8[]"
            },
            {
              "internalType": "uint8[]",
              "name": "inventoryIDs",
              "type": "uint8[]"
            },
            {
              "internalType": "bool",
              "name": "canHarmOthers",
              "type": "bool"
            },
            {
              "internalType": "bool",
              "name": "dead",
              "type": "bool"
            },
            {
              "internalType": "bool",
              "name": "hasEgg",
              "type": "bool"
            }
          ],
          "internalType": "struct BCTypes.Player",
          "name": "",
          "type": "tuple"
        }
      ],
      "stateMutability": "view",
      "type": "function"
    },
    {
      "inputs": [
        {
          "internalType": "uint256",
          "name": "_id",
          "type": "uint256"
        }
      ],
      "name": "extGetPlayerOwner",
      "outputs": [
        {
          "internalType": "address",
          "name": "",
          "type": "address"
        }
      ],
      "stateMutability": "view",
      "type": "function"
    },
    {
      "inputs": [
        {
          "internalType": "uint256",
          "name": "_playerId",
          "type": "uint256"
        },
        {
          "internalType": "uint256",
          "name": "_amount",
          "type": "uint256"
        },
        {
          "internalType": "bool",
          "name": "_hazard",
          "type": "bool"
        }
      ],
      "name": "extHurtPlayer",
      "outputs": [],
      "stateMutability": "nonpayable",
      "type": "function"
    },
    {
      "inputs": [
        {
          "components": [
            {
              "internalType": "uint8",
              "name": "row",
              "type": "uint8"
            },
            {
              "internalType": "uint8",
              "name": "col",
              "type": "uint8"
            }
          ],
          "internalType": "struct BCTypes.Position",
          "name": "_position",
          "type": "tuple"
        },
        {
          "internalType": "uint256",
          "name": "_playerId",
          "type": "uint256"
        },
        {
          "internalType": "uint256",
          "name": "_mapId",
          "type": "uint256"
        }
      ],
      "name": "extMovePlayer",
      "outputs": [
        {
          "internalType": "bool",
          "name": "",
          "type": "bool"
        }
      ],
      "stateMutability": "nonpayable",
      "type": "function"
    },
    {
      "inputs": [],
      "name": "games",
      "outputs": [
        {
          "internalType": "contract GamesInterface",
          "name": "",
          "type": "address"
        }
      ],
      "stateMutability": "view",
      "type": "function"
    },
    {
      "inputs": [
        {
          "internalType": "uint256",
          "name": "_playerId",
          "type": "uint256"
        },
        {
          "internalType": "uint8",
          "name": "_amount",
          "type": "uint8"
        }
      ],
      "name": "grantDataToPlayer",
      "outputs": [],
      "stateMutability": "nonpayable",
      "type": "function"
    },
    {
      "inputs": [
        {
          "internalType": "uint256",
          "name": "_playerId",
          "type": "uint256"
        }
      ],
      "name": "incrementPlayerActions",
      "outputs": [],
      "stateMutability": "nonpayable",
      "type": "function"
    },
    {
      "inputs": [],
      "name": "items",
      "outputs": [
        {
          "internalType": "contract ItemsInterface",
          "name": "",
          "type": "address"
        }
      ],
      "stateMutability": "view",
      "type": "function"
    },
    {
      "inputs": [],
      "name": "lobbiesAddress",
      "outputs": [
        {
          "internalType": "address",
          "name": "",
          "type": "address"
        }
      ],
      "stateMutability": "view",
      "type": "function"
    },
    {
      "inputs": [],
      "name": "maps",
      "outputs": [
        {
          "internalType": "contract MapInterface",
          "name": "",
          "type": "address"
        }
      ],
      "stateMutability": "view",
      "type": "function"
    },
    {
      "inputs": [],
      "name": "owner",
      "outputs": [
        {
          "internalType": "address",
          "name": "",
          "type": "address"
        }
      ],
      "stateMutability": "view",
      "type": "function"
    },
    {
      "inputs": [
        {
          "internalType": "uint256",
          "name": "",
          "type": "uint256"
        }
      ],
      "name": "players",
      "outputs": [
        {
          "internalType": "address",
          "name": "owner",
          "type": "address"
        },
        {
          "internalType": "address",
          "name": "charContractAddress",
          "type": "address"
        },
        {
          "internalType": "uint256",
          "name": "characterId",
          "type": "uint256"
        },
        {
          "components": [
            {
              "internalType": "uint8",
              "name": "row",
              "type": "uint8"
            },
            {
              "internalType": "uint8",
              "name": "col",
              "type": "uint8"
            }
          ],
          "internalType": "struct BCTypes.Position",
          "name": "position",
          "type": "tuple"
        },
        {
          "internalType": "int8",
          "name": "healthDmgTaken",
          "type": "int8"
        },
        {
          "internalType": "uint8",
          "name": "armorDmgTaken",
          "type": "uint8"
        },
        {
          "internalType": "uint8",
          "name": "actionsTaken",
          "type": "uint8"
        },
        {
          "internalType": "uint8",
          "name": "dataTokens",
          "type": "uint8"
        },
        {
          "internalType": "bool",
          "name": "canHarmOthers",
          "type": "bool"
        },
        {
          "internalType": "bool",
          "name": "dead",
          "type": "bool"
        },
        {
          "internalType": "bool",
          "name": "hasEgg",
          "type": "bool"
        }
      ],
      "stateMutability": "view",
      "type": "function"
    },
    {
      "inputs": [],
      "name": "renounceOwnership",
      "outputs": [],
      "stateMutability": "nonpayable",
      "type": "function"
    },
    {
      "inputs": [
        {
          "internalType": "uint256",
          "name": "_playerId",
          "type": "uint256"
        }
      ],
      "name": "resetPlayerActions",
      "outputs": [],
      "stateMutability": "nonpayable",
      "type": "function"
    },
    {
      "inputs": [
        {
          "internalType": "address",
          "name": "_charAddress",
          "type": "address"
        },
        {
          "internalType": "address",
          "name": "_utilsAddress",
          "type": "address"
        },
        {
          "internalType": "address",
          "name": "_mapsAddress",
          "type": "address"
        },
        {
          "internalType": "address",
          "name": "_lobbiesAddress",
          "type": "address"
        },
        {
          "internalType": "address",
          "name": "_actionsAddress",
          "type": "address"
        },
        {
          "internalType": "address",
          "name": "_eventsAddress",
          "type": "address"
        },
        {
          "internalType": "address",
          "name": "_itemsAddress",
          "type": "address"
        },
        {
          "internalType": "address",
          "name": "_gamesAddress",
          "type": "address"
        }
      ],
      "name": "setContractAddresses",
      "outputs": [],
      "stateMutability": "nonpayable",
      "type": "function"
    },
    {
      "inputs": [
        {
          "internalType": "address",
          "name": "newOwner",
          "type": "address"
        }
      ],
      "name": "transferOwnership",
      "outputs": [],
      "stateMutability": "nonpayable",
      "type": "function"
    },
    {
      "inputs": [],
      "name": "utils",
      "outputs": [
        {
          "internalType": "contract UtilsInterface",
          "name": "",
          "type": "address"
        }
      ],
      "stateMutability": "view",
      "type": "function"
    }
  ],
  "transactionHash": "0x5cf0cdae2dda2979fda71fde26fac05c68b76d3bf685fd5cf1df628f44a89a24",
  "args": [],
  "numDeployments": 1,
  "solcInputHash": "3bb9a8bfbba7b0d23e5324b4eda443e4",
  "bytecode": "0x60806040526040518060400160405280600a60ff168152602001600660ff16815250600a60008201518160000160006101000a81548160ff021916908360ff16021790555060208201518160000160016101000a81548160ff021916908360ff16021790555050503480156200007457600080fd5b5062000095620000896200009b60201b60201c565b620000a360201b60201c565b62000167565b600033905090565b60008060009054906101000a900473ffffffffffffffffffffffffffffffffffffffff169050816000806101000a81548173ffffffffffffffffffffffffffffffffffffffff021916908373ffffffffffffffffffffffffffffffffffffffff1602179055508173ffffffffffffffffffffffffffffffffffffffff168173ffffffffffffffffffffffffffffffffffffffff167f8be0079c531659141344cd1fd0a4f28419497f9722a3daafe3b4186f6b6457e060405160405180910390a35050565b614e4780620001776000396000f3fe608060405234801561001057600080fd5b506004361061018e5760003560e01c80638d491b3e116100de578063b690719411610097578063dc769ee811610071578063dc769ee81461044d578063ed8619611461046c578063f2fde38b14610488578063f71d96cb146104a45761018e565b8063b6907194146103f7578063c06fad0614610413578063ce932297146104315761018e565b80638d491b3e146103355780638da5cb5b146103655780638f0aa2dd14610383578063921d27991461039f578063955a015b146103bb5780639fca1ee1146103d95761018e565b80635a29638d1161014b578063668a7f3b11610125578063668a7f3b146102d3578063715018a6146102ef5780637b45c0d4146102f95780637ddae103146103175761018e565b80635a29638d1461026957806365c363f0146102875780636621a421146102a35761018e565b806308178b3c146101935780630dd0f588146101c357806310a2cd0d146101df57806310f67fb3146101fd578063336d7d7b1461022d5780633deaec2b1461024b575b600080fd5b6101ad60048036038101906101a89190612ef3565b6104de565b6040516101ba9190612f55565b60405180910390f35b6101dd60048036038101906101d89190612fa8565b61063f565b005b6101e76106df565b6040516101f4919061305a565b60405180910390f35b61021760048036038101906102129190613075565b610705565b6040516102249190613306565b60405180910390f35b610235610a07565b6040516102429190613337565b60405180910390f35b610253610a2d565b6040516102609190613373565b60405180910390f35b610271610a53565b60405161027e91906133af565b60405180910390f35b6102a1600480360381019061029c9190613075565b610a79565b005b6102bd60048036038101906102b89190613075565b610b15565b6040516102ca9190613337565b60405180910390f35b6102ed60048036038101906102e89190613523565b610b64565b005b6102f7610d63565b005b610301610d77565b60405161030e9190613337565b60405180910390f35b61031f610d9d565b60405161032c91906135a0565b60405180910390f35b61034f600480360381019061034a9190613641565b610dc3565b60405161035c91906136a3565b60405180910390f35b61036d610f98565b60405161037a9190613337565b60405180910390f35b61039d600480360381019061039891906136be565b610fc1565b005b6103b960048036038101906103b49190613761565b6113c1565b005b6103c36115db565b6040516103d09190613838565b60405180910390f35b6103e1611601565b6040516103ee9190613337565b60405180910390f35b610411600480360381019061040c9190613853565b611627565b005b61041b611714565b60405161042891906138b4565b60405180910390f35b61044b60048036038101906104469190613075565b61173a565b005b6104556117f2565b6040516104639291906138de565b60405180910390f35b61048660048036038101906104819190613907565b61181e565b005b6104a2600480360381019061049d9190613994565b611986565b005b6104be60048036038101906104b99190613075565b611a09565b6040516104d59b9a999897969594939291906139ff565b60405180910390f35b6000600760009054906101000a900473ffffffffffffffffffffffffffffffffffffffff1673ffffffffffffffffffffffffffffffffffffffff163373ffffffffffffffffffffffffffffffffffffffff1614610570576040517f08c379a000000000000000000000000000000000000000000000000000000000815260040161056790613b08565b60405180910390fd5b6000600b6001816001815401808255809150500390600052602060002090600802019050848160010160006101000a81548173ffffffffffffffffffffffffffffffffffffffff021916908373ffffffffffffffffffffffffffffffffffffffff160217905550828160000160006101000a81548173ffffffffffffffffffffffffffffffffffffffff021916908373ffffffffffffffffffffffffffffffffffffffff1602179055508381600201819055506001600b805490506106359190613b57565b9150509392505050565b600660009054906101000a900473ffffffffffffffffffffffffffffffffffffffff1673ffffffffffffffffffffffffffffffffffffffff163373ffffffffffffffffffffffffffffffffffffffff16146106cf576040517f08c379a00000000000000000000000000000000000000000000000000000000081526004016106c690613bd7565b60405180910390fd5b6106da838383611b52565b505050565b600160009054906101000a900473ffffffffffffffffffffffffffffffffffffffff1681565b61070d612d3b565b600b828154811061072157610720613bf7565b5b9060005260206000209060080201604051806101a00160405290816000820160009054906101000a900473ffffffffffffffffffffffffffffffffffffffff1673ffffffffffffffffffffffffffffffffffffffff1673ffffffffffffffffffffffffffffffffffffffff1681526020016001820160009054906101000a900473ffffffffffffffffffffffffffffffffffffffff1673ffffffffffffffffffffffffffffffffffffffff1673ffffffffffffffffffffffffffffffffffffffff16815260200160028201548152602001600382016040518060400160405290816000820160009054906101000a900460ff1660ff1660ff1681526020016000820160019054906101000a900460ff1660ff1660ff168152505081526020016004820160009054906101000a900460000b60000b60000b81526020016004820160019054906101000a900460ff1660ff1660ff1681526020016004820160029054906101000a900460ff1660ff1660ff1681526020016004820160039054906101000a900460ff1660ff1660ff1681526020016005820180548060200260200160405190810160405280929190818152602001828054801561092857602002820191906000526020600020906000905b82829054906101000a900460ff1660ff16815260200190600101906020826000010492830192600103820291508084116108f15790505b50505050508152602001600682018054806020026020016040519081016040528092919081815260200182805480156109a657602002820191906000526020600020906000905b82829054906101000a900460ff1660ff168152602001906001019060208260000104928301926001038202915080841161096f5790505b505050505081526020016007820160009054906101000a900460ff161515151581526020016007820160019054906101000a900460ff161515151581526020016007820160029054906101000a900460ff1615151515815250509050919050565b600760009054906101000a900473ffffffffffffffffffffffffffffffffffffffff1681565b600360009054906101000a900473ffffffffffffffffffffffffffffffffffffffff1681565b600260009054906101000a900473ffffffffffffffffffffffffffffffffffffffff1681565b600660009054906101000a900473ffffffffffffffffffffffffffffffffffffffff1673ffffffffffffffffffffffffffffffffffffffff163373ffffffffffffffffffffffffffffffffffffffff1614610ad357600080fd5b6000600b8281548110610ae957610ae8613bf7565b5b906000526020600020906008020160040160026101000a81548160ff021916908360ff16021790555050565b6000600b8281548110610b2b57610b2a613bf7565b5b906000526020600020906008020160000160009054906101000a900473ffffffffffffffffffffffffffffffffffffffff169050919050565b600660009054906101000a900473ffffffffffffffffffffffffffffffffffffffff1673ffffffffffffffffffffffffffffffffffffffff163373ffffffffffffffffffffffffffffffffffffffff1614610bf4576040517f08c379a0000000000000000000000000000000000000000000000000000000008152600401610beb90613bd7565b60405180910390fd5b60005b60018251610c059190613b57565b8111610d5e576000600b838381518110610c2257610c21613bf7565b5b602002602001015181548110610c3b57610c3a613bf7565b5b906000526020600020906008020190506000600360009054906101000a900473ffffffffffffffffffffffffffffffffffffffff1673ffffffffffffffffffffffffffffffffffffffff1663f9dfbfcb868460030160000160009054906101000a900460ff168560030160000160019054906101000a900460ff166040518463ffffffff1660e01b8152600401610cd493929190613c57565b61014060405180830381865afa158015610cf2573d6000803e3d6000fd5b505050506040513d601f19601f82011682018060405250810190610d169190613e35565b90508060c0015115610d4957610d48848481518110610d3857610d37613bf7565b5b6020026020010151600180611b52565b5b50508080610d5690613e63565b915050610bf7565b505050565b610d6b611c8f565b610d756000611d0d565b565b600960009054906101000a900473ffffffffffffffffffffffffffffffffffffffff1681565b600460009054906101000a900473ffffffffffffffffffffffffffffffffffffffff1681565b6000600660009054906101000a900473ffffffffffffffffffffffffffffffffffffffff1673ffffffffffffffffffffffffffffffffffffffff163373ffffffffffffffffffffffffffffffffffffffff1614610e55576040517f08c379a0000000000000000000000000000000000000000000000000000000008152600401610e4c90613bd7565b60405180910390fd5b83600b8481548110610e6a57610e69613bf7565b5b906000526020600020906008020160030160008201518160000160006101000a81548160ff021916908360ff16021790555060208201518160000160016101000a81548160ff021916908360ff160217905550905050600060ff16600360009054906101000a900473ffffffffffffffffffffffffffffffffffffffff1673ffffffffffffffffffffffffffffffffffffffff1663f9dfbfcb84876000015188602001516040518463ffffffff1660e01b8152600401610f2c93929190613c57565b61014060405180830381865afa158015610f4a573d6000803e3d6000fd5b505050506040513d601f19601f82011682018060405250810190610f6e9190613e35565b6000015160ff1603610f8c57610f8383611dd1565b60019050610f91565b600090505b9392505050565b60008060009054906101000a900473ffffffffffffffffffffffffffffffffffffffff16905090565b600660009054906101000a900473ffffffffffffffffffffffffffffffffffffffff1673ffffffffffffffffffffffffffffffffffffffff163373ffffffffffffffffffffffffffffffffffffffff1614611051576040517f08c379a000000000000000000000000000000000000000000000000000000000815260040161104890613bd7565b60405180910390fd5b611059612de6565b6060821561110957600460009054906101000a900473ffffffffffffffffffffffffffffffffffffffff1673ffffffffffffffffffffffffffffffffffffffff1663c82c37b9856040518263ffffffff1660e01b81526004016110bc9190612f55565b600060405180830381865afa1580156110d9573d6000803e3d6000fd5b505050506040513d6000823e3d601f19601f8201168201806040525081019061110291906140eb565b9150611110565b50506113b8565b6000600460009054906101000a900473ffffffffffffffffffffffffffffffffffffffff1673ffffffffffffffffffffffffffffffffffffffff1663a49ac41185876040518363ffffffff1660e01b815260040161116f929190614134565b600060405180830381865afa15801561118c573d6000803e3d6000fd5b505050506040513d6000823e3d601f19601f820116820180604052508101906111b5919061423e565b90506000836040015160ff161480156111d557506000836060015160ff16145b156112075761120289898989856000815181106111f5576111f4613bf7565b5b6020026020010151611f54565b611377565b6000600260009054906101000a900473ffffffffffffffffffffffffffffffffffffffff1673ffffffffffffffffffffffffffffffffffffffff16631f7b4f308a6040518263ffffffff1660e01b81526004016112649190612f55565b6020604051808303816000875af1158015611283573d6000803e3d6000fd5b505050506040513d601f19601f820116820180604052508101906112a79190614287565b90506000846040015160ff16141580156112c85750836040015160ff168111155b156112fa576112f58a8a8a8a866001815181106112e8576112e7613bf7565b5b6020026020010151611f54565b611375565b6000846060015160ff16141580156113195750836060015160ff168110155b1561134b576113468a8a8a8a8660028151811061133957611338613bf7565b5b6020026020010151611f54565b611374565b6113738a8a8a8a8660008151811061136657611365613bf7565b5b6020026020010151611f54565b5b5b505b7f854f143c4475e8754c8844dbfe9928cf11388710860ea82bb21c19da10f6c73d888a85856040516113ac9493929190614522565b60405180910390a15050505b50505050505050565b6113c9611c8f565b87600160006101000a81548173ffffffffffffffffffffffffffffffffffffffff021916908373ffffffffffffffffffffffffffffffffffffffff16021790555086600260006101000a81548173ffffffffffffffffffffffffffffffffffffffff021916908373ffffffffffffffffffffffffffffffffffffffff16021790555085600360006101000a81548173ffffffffffffffffffffffffffffffffffffffff021916908373ffffffffffffffffffffffffffffffffffffffff16021790555084600760006101000a81548173ffffffffffffffffffffffffffffffffffffffff021916908373ffffffffffffffffffffffffffffffffffffffff16021790555083600960006101000a81548173ffffffffffffffffffffffffffffffffffffffff021916908373ffffffffffffffffffffffffffffffffffffffff16021790555082600460006101000a81548173ffffffffffffffffffffffffffffffffffffffff021916908373ffffffffffffffffffffffffffffffffffffffff16021790555081600560006101000a81548173ffffffffffffffffffffffffffffffffffffffff021916908373ffffffffffffffffffffffffffffffffffffffff16021790555080600660006101000a81548173ffffffffffffffffffffffffffffffffffffffff021916908373ffffffffffffffffffffffffffffffffffffffff1602179055505050505050505050565b600660009054906101000a900473ffffffffffffffffffffffffffffffffffffffff1681565b600860009054906101000a900473ffffffffffffffffffffffffffffffffffffffff1681565b600960009054906101000a900473ffffffffffffffffffffffffffffffffffffffff1673ffffffffffffffffffffffffffffffffffffffff163373ffffffffffffffffffffffffffffffffffffffff16146116b7576040517f08c379a00000000000000000000000000000000000000000000000000000000081526004016116ae906145c1565b60405180910390fd5b80600b83815481106116cc576116cb613bf7565b5b906000526020600020906008020160040160038282829054906101000a900460ff166116f891906145e1565b92506101000a81548160ff021916908360ff1602179055505050565b600560009054906101000a900473ffffffffffffffffffffffffffffffffffffffff1681565b600660009054906101000a900473ffffffffffffffffffffffffffffffffffffffff1673ffffffffffffffffffffffffffffffffffffffff163373ffffffffffffffffffffffffffffffffffffffff161461179457600080fd5b600b81815481106117a8576117a7613bf7565b5b9060005260206000209060080201600401600281819054906101000a900460ff16809291906117d690614616565b91906101000a81548160ff021916908360ff1602179055505050565b600a8060000160009054906101000a900460ff16908060000160019054906101000a900460ff16905082565b600960009054906101000a900473ffffffffffffffffffffffffffffffffffffffff1673ffffffffffffffffffffffffffffffffffffffff163373ffffffffffffffffffffffffffffffffffffffff16146118ae576040517f08c379a00000000000000000000000000000000000000000000000000000000081526004016118a5906145c1565b60405180910390fd5b6000600460009054906101000a900473ffffffffffffffffffffffffffffffffffffffff1673ffffffffffffffffffffffffffffffffffffffff1663a49ac4116001856040518363ffffffff1660e01b815260040161190e929190614134565b600060405180830381865afa15801561192b573d6000803e3d6000fd5b505050506040513d6000823e3d601f19601f82011682018060405250810190611954919061423e565b828151811061196657611965613bf7565b5b6020026020010151905061197d8787878785611f54565b50505050505050565b61198e611c8f565b600073ffffffffffffffffffffffffffffffffffffffff168173ffffffffffffffffffffffffffffffffffffffff16036119fd576040517f08c379a00000000000000000000000000000000000000000000000000000000081526004016119f4906146b1565b60405180910390fd5b611a0681611d0d565b50565b600b8181548110611a1957600080fd5b90600052602060002090600802016000915090508060000160009054906101000a900473ffffffffffffffffffffffffffffffffffffffff16908060010160009054906101000a900473ffffffffffffffffffffffffffffffffffffffff1690806002015490806003016040518060400160405290816000820160009054906101000a900460ff1660ff1660ff1681526020016000820160019054906101000a900460ff1660ff1660ff1681525050908060040160009054906101000a900460000b908060040160019054906101000a900460ff16908060040160029054906101000a900460ff16908060040160039054906101000a900460ff16908060070160009054906101000a900460ff16908060070160019054906101000a900460ff16908060070160029054906101000a900460ff1690508b565b6000600b8481548110611b6857611b67613bf7565b5b906000526020600020906008020190506000600160009054906101000a900473ffffffffffffffffffffffffffffffffffffffff1673ffffffffffffffffffffffffffffffffffffffff16634810bc5983600201546040518263ffffffff1660e01b8152600401611bd99190612f55565b6101e060405180830381865afa158015611bf7573d6000803e3d6000fd5b505050506040513d601f19601f82011682018060405250810190611c1b91906148cb565b9050838260040160008282829054906101000a900460000b611c3d91906148f9565b92506101000a81548160ff021916908360000b60ff16021790555080606001516000015160000b8260040160009054906101000a900460000b60000b12611c8857611c8785611dd1565b5b5050505050565b611c97612d33565b73ffffffffffffffffffffffffffffffffffffffff16611cb5610f98565b73ffffffffffffffffffffffffffffffffffffffff1614611d0b576040517f08c379a0000000000000000000000000000000000000000000000000000000008152600401611d029061499e565b60405180910390fd5b565b60008060009054906101000a900473ffffffffffffffffffffffffffffffffffffffff169050816000806101000a81548173ffffffffffffffffffffffffffffffffffffffff021916908373ffffffffffffffffffffffffffffffffffffffff1602179055508173ffffffffffffffffffffffffffffffffffffffff168173ffffffffffffffffffffffffffffffffffffffff167f8be0079c531659141344cd1fd0a4f28419497f9722a3daafe3b4186f6b6457e060405160405180910390a35050565b6000600b8281548110611de757611de6613bf7565b5b9060005260206000209060080201905060008160040160006101000a81548160ff021916908360000b60ff160217905550600160009054906101000a900473ffffffffffffffffffffffffffffffffffffffff1673ffffffffffffffffffffffffffffffffffffffff16636d6ba756600b8481548110611e6a57611e69613bf7565b5b9060005260206000209060080201600201546040518263ffffffff1660e01b8152600401611e989190612f55565b600060405180830381600087803b158015611eb257600080fd5b505af1158015611ec6573d6000803e3d6000fd5b50505050600a600b8381548110611ee057611edf613bf7565b5b90600052602060002090600802016003016000820160009054906101000a900460ff168160000160006101000a81548160ff021916908360ff1602179055506000820160019054906101000a900460ff168160000160016101000a81548160ff021916908360ff1602179055509050505050565b60005b8151811015612d2b576000600b8781548110611f7657611f75613bf7565b5b9060005260206000209060080201905060016014811115611f9a57611f996142e0565b5b838381518110611fad57611fac613bf7565b5b6020026020010151600001516014811115611fcb57611fca6142e0565b5b505060026014811115611fe157611fe06142e0565b5b838381518110611ff457611ff3613bf7565b5b6020026020010151600001516014811115612012576120116142e0565b5b036120625782828151811061202a57612029613bf7565b5b602002602001015160200151600061204291906149be565b8160040160006101000a81548160ff021916908360000b60ff1602179055505b60036014811115612076576120756142e0565b5b83838151811061208957612088613bf7565b5b60200260200101516000015160148111156120a7576120a66142e0565b5b036120b6576120b587611dd1565b5b600460148111156120ca576120c96142e0565b5b8383815181106120dd576120dc613bf7565b5b60200260200101516000015160148111156120fb576120fa6142e0565b5b0361219d57600360009054906101000a900473ffffffffffffffffffffffffffffffffffffffff1673ffffffffffffffffffffffffffffffffffffffff1663fe368d7a868660000151876020015160016040518563ffffffff1660e01b815260040161216a9493929190614a17565b600060405180830381600087803b15801561218457600080fd5b505af1158015612198573d6000803e3d6000fd5b505050505b600560148111156121b1576121b06142e0565b5b8383815181106121c4576121c3613bf7565b5b60200260200101516000015160148111156121e2576121e16142e0565b5b5050600660148111156121f8576121f76142e0565b5b83838151811061220b5761220a613bf7565b5b6020026020010151600001516014811115612229576122286142e0565b5b036122c75782828151811061224157612240613bf7565b5b6020026020010151602001518160040160008282829054906101000a900460000b61226c91906149be565b92506101000a81548160ff021916908360000b60ff16021790555060008160040160009054906101000a900460000b60000b12156122c65760008160040160006101000a81548160ff021916908360000b60ff1602179055505b5b600760148111156122db576122da6142e0565b5b8383815181106122ee576122ed613bf7565b5b602002602001015160000151601481111561230c5761230b6142e0565b5b505060086014811115612322576123216142e0565b5b83838151811061233557612334613bf7565b5b6020026020010151600001516014811115612353576123526142e0565b5b03612383576123828784848151811061236f5761236e613bf7565b5b6020026020010151602001516001611b52565b5b60096014811115612397576123966142e0565b5b8383815181106123aa576123a9613bf7565b5b60200260200101516000015160148111156123c8576123c76142e0565b5b036123f8576123f7878484815181106123e4576123e3613bf7565b5b6020026020010151602001516000611b52565b5b600b601481111561240c5761240b6142e0565b5b83838151811061241f5761241e613bf7565b5b602002602001015160000151601481111561243d5761243c6142e0565b5b5050600d6014811115612453576124526142e0565b5b83838151811061246657612465613bf7565b5b6020026020010151600001516014811115612484576124836142e0565b5b036124b2576124b1878484815181106124a05761249f613bf7565b5b602002602001015160200151611627565b5b600e60148111156124c6576124c56142e0565b5b8383815181106124d9576124d8613bf7565b5b60200260200101516000015160148111156124f7576124f66142e0565b5b5050600f601481111561250d5761250c6142e0565b5b8383815181106125205761251f613bf7565b5b602002602001015160000151601481111561253e5761253d6142e0565b5b0361284757600083838151811061255857612557613bf7565b5b60200260200101516020015190506000600560009054906101000a900473ffffffffffffffffffffffffffffffffffffffff1673ffffffffffffffffffffffffffffffffffffffff16633841fae18a6040518263ffffffff1660e01b81526004016125c39190612f55565b600060405180830381865afa1580156125e0573d6000803e3d6000fd5b505050506040513d6000823e3d601f19601f820116820180604052508101906126099190614af3565b9050600081511115612844576000600182516126259190613b57565b90505b6000811115612764576000600260009054906101000a900473ffffffffffffffffffffffffffffffffffffffff1673ffffffffffffffffffffffffffffffffffffffff1663ce28613f6000846040518363ffffffff1660e01b8152600401612691929190614b77565b6020604051808303816000875af11580156126b0573d6000803e3d6000fd5b505050506040513d601f19601f820116820180604052508101906126d49190614ba0565b9050828160ff16815181106126ec576126eb613bf7565b5b602002602001015183838151811061270757612706613bf7565b5b602002602001015184848151811061272257612721613bf7565b5b60200260200101858460ff168151811061273f5761273e613bf7565b5b602002602001018281525082815250505050808061275c90614bcd565b915050612628565b5060005b815185101561284257600560009054906101000a900473ffffffffffffffffffffffffffffffffffffffff1673ffffffffffffffffffffffffffffffffffffffff1663f7c8af488383815181106127c2576127c1613bf7565b5b60200260200101516040518263ffffffff1660e01b81526004016127e69190612f55565b600060405180830381600087803b15801561280057600080fd5b505af1158015612814573d6000803e3d6000fd5b50505050828061282390614bcd565b935050600083031561284257808061283a90613e63565b915050612768565b505b50505b6010601481111561285b5761285a6142e0565b5b83838151811061286e5761286d613bf7565b5b602002602001015160000151601481111561288c5761288b6142e0565b5b03612a19576005808111156128a4576128a36142e0565b5b8383815181106128b7576128b6613bf7565b5b60200260200101516020015103612a1857600080600360009054906101000a900473ffffffffffffffffffffffffffffffffffffffff1673ffffffffffffffffffffffffffffffffffffffff16635f8951e6886040518263ffffffff1660e01b81526004016129269190612f55565b6040805180830381865afa158015612942573d6000803e3d6000fd5b505050506040513d601f19601f820116820180604052508101906129669190614bf6565b91509150600660009054906101000a900473ffffffffffffffffffffffffffffffffffffffff1673ffffffffffffffffffffffffffffffffffffffff1663175142258960405180604001604052808660ff1681526020018560ff168152508c6040518463ffffffff1660e01b81526004016129e393929190614c36565b600060405180830381600087803b1580156129fd57600080fd5b505af1158015612a11573d6000803e3d6000fd5b5050505050505b5b60116014811115612a2d57612a2c6142e0565b5b838381518110612a4057612a3f613bf7565b5b6020026020010151600001516014811115612a5e57612a5d6142e0565b5b505060126014811115612a7457612a736142e0565b5b838381518110612a8757612a86613bf7565b5b6020026020010151600001516014811115612aa557612aa46142e0565b5b505060136014811115612abb57612aba6142e0565b5b838381518110612ace57612acd613bf7565b5b6020026020010151600001516014811115612aec57612aeb6142e0565b5b03612d175760005b6004811015612d15576000600360009054906101000a900473ffffffffffffffffffffffffffffffffffffffff1673ffffffffffffffffffffffffffffffffffffffff16636ea1dcd88888600001518960200151866040518563ffffffff1660e01b8152600401612b689493929190614c6d565b606060405180830381865afa158015612b85573d6000803e3d6000fd5b505050506040513d601f19601f82011682018060405250810190612ba99190614d3b565b905060016004811115612bbf57612bbe6142e0565b5b81604001516004811115612bd657612bd56142e0565b5b1480612c0a575060026004811115612bf157612bf06142e0565b5b81604001516004811115612c0857612c076142e0565b5b145b80612c3d575060036004811115612c2457612c236142e0565b5b81604001516004811115612c3b57612c3a6142e0565b5b145b15612d0157600360009054906101000a900473ffffffffffffffffffffffffffffffffffffffff1673ffffffffffffffffffffffffffffffffffffffff16635921522388886000015189602001518660018b8b81518110612ca157612ca0613bf7565b5b6020026020010151602001516040518763ffffffff1660e01b8152600401612cce96959493929190614db0565b600060405180830381600087803b158015612ce857600080fd5b505af1158015612cfc573d6000803e3d6000fd5b505050505b508080612d0d90613e63565b915050612af4565b505b508080612d2390613e63565b915050611f57565b505050505050565b600033905090565b604051806101a00160405280600073ffffffffffffffffffffffffffffffffffffffff168152602001600073ffffffffffffffffffffffffffffffffffffffff16815260200160008152602001612d90612e2b565b81526020016000800b8152602001600060ff168152602001600060ff168152602001600060ff16815260200160608152602001606081526020016000151581526020016000151581526020016000151581525090565b6040518060e0016040528060008152602001600015158152602001600060ff168152602001600060ff1681526020016060815260200160608152602001606081525090565b6040518060400160405280600060ff168152602001600060ff1681525090565b6000604051905090565b600080fd5b600080fd5b600073ffffffffffffffffffffffffffffffffffffffff82169050919050565b6000612e8a82612e5f565b9050919050565b612e9a81612e7f565b8114612ea557600080fd5b50565b600081359050612eb781612e91565b92915050565b6000819050919050565b612ed081612ebd565b8114612edb57600080fd5b50565b600081359050612eed81612ec7565b92915050565b600080600060608486031215612f0c57612f0b612e55565b5b6000612f1a86828701612ea8565b9350506020612f2b86828701612ede565b9250506040612f3c86828701612ea8565b9150509250925092565b612f4f81612ebd565b82525050565b6000602082019050612f6a6000830184612f46565b92915050565b60008115159050919050565b612f8581612f70565b8114612f9057600080fd5b50565b600081359050612fa281612f7c565b92915050565b600080600060608486031215612fc157612fc0612e55565b5b6000612fcf86828701612ede565b9350506020612fe086828701612ede565b9250506040612ff186828701612f93565b9150509250925092565b6000819050919050565b600061302061301b61301684612e5f565b612ffb565b612e5f565b9050919050565b600061303282613005565b9050919050565b600061304482613027565b9050919050565b61305481613039565b82525050565b600060208201905061306f600083018461304b565b92915050565b60006020828403121561308b5761308a612e55565b5b600061309984828501612ede565b91505092915050565b6130ab81612e7f565b82525050565b6130ba81612ebd565b82525050565b600060ff82169050919050565b6130d6816130c0565b82525050565b6040820160008201516130f260008501826130cd565b50602082015161310560208501826130cd565b50505050565b60008160000b9050919050565b6131218161310b565b82525050565b600081519050919050565b600082825260208201905092915050565b6000819050602082019050919050565b600061315f83836130cd565b60208301905092915050565b6000602082019050919050565b600061318382613127565b61318d8185613132565b935061319883613143565b8060005b838110156131c95781516131b08882613153565b97506131bb8361316b565b92505060018101905061319c565b5085935050505092915050565b6131df81612f70565b82525050565b60006101c0830160008301516131fe60008601826130a2565b50602083015161321160208601826130a2565b50604083015161322460408601826130b1565b50606083015161323760608601826130dc565b50608083015161324a60a0860182613118565b5060a083015161325d60c08601826130cd565b5060c083015161327060e08601826130cd565b5060e08301516132846101008601826130cd565b5061010083015184820361012086015261329e8282613178565b9150506101208301518482036101408601526132ba8282613178565b9150506101408301516132d16101608601826131d6565b506101608301516132e66101808601826131d6565b506101808301516132fb6101a08601826131d6565b508091505092915050565b6000602082019050818103600083015261332081846131e5565b905092915050565b61333181612e7f565b82525050565b600060208201905061334c6000830184613328565b92915050565b600061335d82613027565b9050919050565b61336d81613352565b82525050565b60006020820190506133886000830184613364565b92915050565b600061339982613027565b9050919050565b6133a98161338e565b82525050565b60006020820190506133c460008301846133a0565b92915050565b600080fd5b6000601f19601f8301169050919050565b7f4e487b7100000000000000000000000000000000000000000000000000000000600052604160045260246000fd5b613418826133cf565b810181811067ffffffffffffffff82111715613437576134366133e0565b5b80604052505050565b600061344a612e4b565b9050613456828261340f565b919050565b600067ffffffffffffffff821115613476576134756133e0565b5b602082029050602081019050919050565b600080fd5b600061349f61349a8461345b565b613440565b905080838252602082019050602084028301858111156134c2576134c1613487565b5b835b818110156134eb57806134d78882612ede565b8452602084019350506020810190506134c4565b5050509392505050565b600082601f83011261350a576135096133ca565b5b813561351a84826020860161348c565b91505092915050565b6000806040838503121561353a57613539612e55565b5b600061354885828601612ede565b925050602083013567ffffffffffffffff81111561356957613568612e5a565b5b613575858286016134f5565b9150509250929050565b600061358a82613027565b9050919050565b61359a8161357f565b82525050565b60006020820190506135b56000830184613591565b92915050565b600080fd5b600080fd5b6135ce816130c0565b81146135d957600080fd5b50565b6000813590506135eb816135c5565b92915050565b600060408284031215613607576136066135bb565b5b6136116040613440565b90506000613621848285016135dc565b6000830152506020613635848285016135dc565b60208301525092915050565b60008060006080848603121561365a57613659612e55565b5b6000613668868287016135f1565b935050604061367986828701612ede565b925050606061368a86828701612ede565b9150509250925092565b61369d81612f70565b82525050565b60006020820190506136b86000830184613694565b92915050565b6000806000806000806000610100888a0312156136de576136dd612e55565b5b60006136ec8a828b01612ede565b97505060206136fd8a828b01612ede565b965050604061370e8a828b01612ede565b955050606061371f8a828b01612ede565b94505060806137308a828b016135f1565b93505060c06137418a828b01612ede565b92505060e06137528a828b01612f93565b91505092959891949750929550565b600080600080600080600080610100898b03121561378257613781612e55565b5b60006137908b828c01612ea8565b98505060206137a18b828c01612ea8565b97505060406137b28b828c01612ea8565b96505060606137c38b828c01612ea8565b95505060806137d48b828c01612ea8565b94505060a06137e58b828c01612ea8565b93505060c06137f68b828c01612ea8565b92505060e06138078b828c01612ea8565b9150509295985092959890939650565b600061382282613027565b9050919050565b61383281613817565b82525050565b600060208201905061384d6000830184613829565b92915050565b6000806040838503121561386a57613869612e55565b5b600061387885828601612ede565b9250506020613889858286016135dc565b9150509250929050565b600061389e82613027565b9050919050565b6138ae81613893565b82525050565b60006020820190506138c960008301846138a5565b92915050565b6138d8816130c0565b82525050565b60006040820190506138f360008301856138cf565b61390060208301846138cf565b9392505050565b60008060008060008060e0878903121561392457613923612e55565b5b600061393289828a01612ede565b965050602061394389828a01612ede565b955050604061395489828a01612ede565b945050606061396589828a016135f1565b93505060a061397689828a01612ede565b92505060c061398789828a01612ede565b9150509295509295509295565b6000602082840312156139aa576139a9612e55565b5b60006139b884828501612ea8565b91505092915050565b6040820160008201516139d760008501826130cd565b5060208201516139ea60208501826130cd565b50505050565b6139f98161310b565b82525050565b600061018082019050613a15600083018e613328565b613a22602083018d613328565b613a2f604083018c612f46565b613a3c606083018b6139c1565b613a4960a083018a6139f0565b613a5660c08301896138cf565b613a6360e08301886138cf565b613a716101008301876138cf565b613a7f610120830186613694565b613a8d610140830185613694565b613a9b610160830184613694565b9c9b505050505050505050505050565b600082825260208201905092915050565b7f4e6f74206c6f62627920636f6e74726163740000000000000000000000000000600082015250565b6000613af2601283613aab565b9150613afd82613abc565b602082019050919050565b60006020820190508181036000830152613b2181613ae5565b9050919050565b7f4e487b7100000000000000000000000000000000000000000000000000000000600052601160045260246000fd5b6000613b6282612ebd565b9150613b6d83612ebd565b9250828203905081811115613b8557613b84613b28565b5b92915050565b7f4e6f742067616d657320636f6e74726163740000000000000000000000000000600082015250565b6000613bc1601283613aab565b9150613bcc82613b8b565b602082019050919050565b60006020820190508181036000830152613bf081613bb4565b9050919050565b7f4e487b7100000000000000000000000000000000000000000000000000000000600052603260045260246000fd5b6000613c41613c3c613c37846130c0565b612ffb565b612ebd565b9050919050565b613c5181613c26565b82525050565b6000606082019050613c6c6000830186612f46565b613c796020830185613c48565b613c866040830184613c48565b949350505050565b600081519050613c9d816135c5565b92915050565b600067ffffffffffffffff821115613cbe57613cbd6133e0565b5b602082029050919050565b600081519050613cd881612ec7565b92915050565b6000613cf1613cec84613ca3565b613440565b90508060208402830185811115613d0b57613d0a613487565b5b835b81811015613d345780613d208882613cc9565b845260208401935050602081019050613d0d565b5050509392505050565b600082601f830112613d5357613d526133ca565b5b6004613d60848285613cde565b91505092915050565b600081519050613d7881612f7c565b92915050565b60006101408284031215613d9557613d946135bb565b5b613d9f60e0613440565b90506000613daf84828501613c8e565b6000830152506020613dc384828501613c8e565b6020830152506040613dd784828501613d3e565b60408301525060c0613deb84828501613d69565b60608301525060e0613dff84828501613d69565b608083015250610100613e1484828501613d69565b60a083015250610120613e2984828501613d69565b60c08301525092915050565b60006101408284031215613e4c57613e4b612e55565b5b6000613e5a84828501613d7e565b91505092915050565b6000613e6e82612ebd565b91507fffffffffffffffffffffffffffffffffffffffffffffffffffffffffffffffff8203613ea057613e9f613b28565b5b600182019050919050565b600067ffffffffffffffff821115613ec657613ec56133e0565b5b602082029050602081019050919050565b60158110613ee457600080fd5b50565b600081519050613ef681613ed7565b92915050565b600060408284031215613f1257613f116135bb565b5b613f1c6040613440565b90506000613f2c84828501613ee7565b6000830152506020613f4084828501613cc9565b60208301525092915050565b6000613f5f613f5a84613eab565b613440565b90508083825260208201905060408402830185811115613f8257613f81613487565b5b835b81811015613fab5780613f978882613efc565b845260208401935050604081019050613f84565b5050509392505050565b600082601f830112613fca57613fc96133ca565b5b8151613fda848260208601613f4c565b91505092915050565b600060e08284031215613ff957613ff86135bb565b5b61400360e0613440565b9050600061401384828501613cc9565b600083015250602061402784828501613d69565b602083015250604061403b84828501613c8e565b604083015250606061404f84828501613c8e565b606083015250608082015167ffffffffffffffff811115614073576140726135c0565b5b61407f84828501613fb5565b60808301525060a082015167ffffffffffffffff8111156140a3576140a26135c0565b5b6140af84828501613fb5565b60a08301525060c082015167ffffffffffffffff8111156140d3576140d26135c0565b5b6140df84828501613fb5565b60c08301525092915050565b60006020828403121561410157614100612e55565b5b600082015167ffffffffffffffff81111561411f5761411e612e5a565b5b61412b84828501613fe3565b91505092915050565b60006040820190506141496000830185613694565b6141566020830184612f46565b9392505050565b600067ffffffffffffffff821115614178576141776133e0565b5b602082029050602081019050919050565b600061419c6141978461415d565b613440565b905080838252602082019050602084028301858111156141bf576141be613487565b5b835b8181101561420657805167ffffffffffffffff8111156141e4576141e36133ca565b5b8086016141f18982613fb5565b855260208501945050506020810190506141c1565b5050509392505050565b600082601f830112614225576142246133ca565b5b8151614235848260208601614189565b91505092915050565b60006020828403121561425457614253612e55565b5b600082015167ffffffffffffffff81111561427257614271612e5a565b5b61427e84828501614210565b91505092915050565b60006020828403121561429d5761429c612e55565b5b60006142ab84828501613cc9565b91505092915050565b600081519050919050565b600082825260208201905092915050565b6000819050602082019050919050565b7f4e487b7100000000000000000000000000000000000000000000000000000000600052602160045260246000fd5b601581106143205761431f6142e0565b5b50565b60008190506143318261430f565b919050565b600061434182614323565b9050919050565b61435181614336565b82525050565b60408201600082015161436d6000850182614348565b50602082015161438060208501826130b1565b50505050565b60006143928383614357565b60408301905092915050565b6000602082019050919050565b60006143b6826142b4565b6143c081856142bf565b93506143cb836142d0565b8060005b838110156143fc5781516143e38882614386565b97506143ee8361439e565b9250506001810190506143cf565b5085935050505092915050565b600060e08301600083015161442160008601826130b1565b50602083015161443460208601826131d6565b50604083015161444760408601826130cd565b50606083015161445a60608601826130cd565b506080830151848203608086015261447282826143ab565b91505060a083015184820360a086015261448c82826143ab565b91505060c083015184820360c08601526144a682826143ab565b9150508091505092915050565b600082825260208201905092915050565b60006144cf826142b4565b6144d981856144b3565b93506144e4836142d0565b8060005b838110156145155781516144fc8882614386565b97506145078361439e565b9250506001810190506144e8565b5085935050505092915050565b60006080820190506145376000830187612f46565b6145446020830186612f46565b81810360408301526145568185614409565b9050818103606083015261456a81846144c4565b905095945050505050565b7f4e6f7420616374696f6e7320636f6e7472616374000000000000000000000000600082015250565b60006145ab601483613aab565b91506145b682614575565b602082019050919050565b600060208201905081810360008301526145da8161459e565b9050919050565b60006145ec826130c0565b91506145f7836130c0565b9250828201905060ff8111156146105761460f613b28565b5b92915050565b6000614621826130c0565b915060ff820361463457614633613b28565b5b600182019050919050565b7f4f776e61626c653a206e6577206f776e657220697320746865207a65726f206160008201527f6464726573730000000000000000000000000000000000000000000000000000602082015250565b600061469b602683613aab565b91506146a68261463f565b604082019050919050565b600060208201905081810360008301526146ca8161468e565b9050919050565b6000819050919050565b6146e4816146d1565b81146146ef57600080fd5b50565b600081519050614701816146db565b92915050565b6147108161310b565b811461471b57600080fd5b50565b60008151905061472d81614707565b92915050565b600060e08284031215614749576147486135bb565b5b61475360e0613440565b905060006147638482850161471e565b60008301525060206147778482850161471e565b602083015250604061478b8482850161471e565b604083015250606061479f8482850161471e565b60608301525060806147b38482850161471e565b60808301525060a06147c78482850161471e565b60a08301525060c06147db8482850161471e565b60c08301525092915050565b60006101e082840312156147fe576147fd6135bb565b5b614809610120613440565b90506000614819848285016146f2565b600083015250602061482d84828501613cc9565b602083015250604061484184828501613cc9565b604083015250606061485584828501614733565b60608301525061014061486a84828501613c8e565b60808301525061016061487f84828501613c8e565b60a08301525061018061489484828501613c8e565b60c0830152506101a06148a984828501613c8e565b60e0830152506101c06148be84828501613d69565b6101008301525092915050565b60006101e082840312156148e2576148e1612e55565b5b60006148f0848285016147e7565b91505092915050565b60006149048261310b565b915061490f8361310b565b925082820190507fffffffffffffffffffffffffffffffffffffffffffffffffffffffffffffff808112607f8213171561494c5761494b613b28565b5b92915050565b7f4f776e61626c653a2063616c6c6572206973206e6f7420746865206f776e6572600082015250565b6000614988602083613aab565b915061499382614952565b602082019050919050565b600060208201905081810360008301526149b78161497b565b9050919050565b60006149c98261310b565b91506149d48361310b565b92508282039050607f81137fffffffffffffffffffffffffffffffffffffffffffffffffffffffffffffff8082121715614a1157614a10613b28565b5b92915050565b6000608082019050614a2c6000830187612f46565b614a396020830186613c48565b614a466040830185613c48565b614a536060830184613694565b95945050505050565b6000614a6f614a6a8461345b565b613440565b90508083825260208201905060208402830185811115614a9257614a91613487565b5b835b81811015614abb5780614aa78882613cc9565b845260208401935050602081019050614a94565b5050509392505050565b600082601f830112614ada57614ad96133ca565b5b8151614aea848260208601614a5c565b91505092915050565b600060208284031215614b0957614b08612e55565b5b600082015167ffffffffffffffff811115614b2757614b26612e5a565b5b614b3384828501614ac5565b91505092915050565b6000819050919050565b6000614b61614b5c614b5784614b3c565b612ffb565b6130c0565b9050919050565b614b7181614b46565b82525050565b6000604082019050614b8c6000830185614b68565b614b9960208301846138cf565b9392505050565b600060208284031215614bb657614bb5612e55565b5b6000614bc484828501613c8e565b91505092915050565b6000614bd882612ebd565b915060008203614beb57614bea613b28565b5b600182039050919050565b60008060408385031215614c0d57614c0c612e55565b5b6000614c1b85828601613cc9565b9250506020614c2c85828601613cc9565b9150509250929050565b6000608082019050614c4b6000830186612f46565b614c5860208301856139c1565b614c656060830184612f46565b949350505050565b6000608082019050614c826000830187612f46565b614c8f6020830186613c48565b614c9c6040830185613c48565b614ca96060830184612f46565b95945050505050565b60058110614cbf57600080fd5b50565b600081519050614cd181614cb2565b92915050565b600060608284031215614ced57614cec6135bb565b5b614cf76060613440565b90506000614d0784828501613c8e565b6000830152506020614d1b84828501613c8e565b6020830152506040614d2f84828501614cc2565b60408301525092915050565b600060608284031215614d5157614d50612e55565b5b6000614d5f84828501614cd7565b91505092915050565b60058110614d7957614d786142e0565b5b50565b6000819050614d8a82614d68565b919050565b6000614d9a82614d7c565b9050919050565b614daa81614d8f565b82525050565b600060c082019050614dc56000830189612f46565b614dd26020830188613c48565b614ddf6040830187613c48565b614dec6060830186612f46565b614df96080830185614da1565b614e0660a0830184612f46565b97965050505050505056fea26469706673582212202aa9952ba95b4aa66cd2901d6de178310e2f5847397e00e66c185659411ceaa264736f6c63430008110033",
  "devdoc": {
    "kind": "dev",
    "methods": {
      "owner()": {
        "details": "Returns the address of the current owner."
      },
      "renounceOwnership()": {
        "details": "Leaves the contract without owner. It will not be possible to call `onlyOwner` functions anymore. Can only be called by the current owner. NOTE: Renouncing ownership will leave the contract without an owner, thereby removing any functionality that is only available to the owner."
      },
      "transferOwnership(address)": {
        "details": "Transfers ownership of the contract to a new account (`newOwner`). Can only be called by the current owner."
      }
    },
    "version": 1
  },
  "userdoc": {
    "kind": "user",
    "methods": {},
    "version": 1
  },
  "storageLayout": {
    "storage": [
      {
        "astId": 7,
        "contract": "contracts/BCPlayers.sol:BCPlayers",
        "label": "_owner",
        "offset": 0,
        "slot": "0",
        "type": "t_address"
      },
      {
        "astId": 9345,
        "contract": "contracts/BCPlayers.sol:BCPlayers",
        "label": "chars",
        "offset": 0,
        "slot": "1",
        "type": "t_contract(CharInterface)9167"
      },
      {
        "astId": 9348,
        "contract": "contracts/BCPlayers.sol:BCPlayers",
        "label": "utils",
        "offset": 0,
        "slot": "2",
        "type": "t_contract(UtilsInterface)9184"
      },
      {
        "astId": 9351,
        "contract": "contracts/BCPlayers.sol:BCPlayers",
        "label": "maps",
        "offset": 0,
        "slot": "3",
        "type": "t_contract(MapInterface)9315"
      },
      {
        "astId": 9354,
        "contract": "contracts/BCPlayers.sol:BCPlayers",
        "label": "bcEvents",
        "offset": 0,
        "slot": "4",
        "type": "t_contract(EventsInterface)9145"
      },
      {
        "astId": 9357,
        "contract": "contracts/BCPlayers.sol:BCPlayers",
        "label": "items",
        "offset": 0,
        "slot": "5",
        "type": "t_contract(ItemsInterface)9329"
      },
      {
        "astId": 9360,
        "contract": "contracts/BCPlayers.sol:BCPlayers",
        "label": "games",
        "offset": 0,
        "slot": "6",
        "type": "t_contract(GamesInterface)9340"
      },
      {
        "astId": 9362,
        "contract": "contracts/BCPlayers.sol:BCPlayers",
        "label": "lobbiesAddress",
        "offset": 0,
        "slot": "7",
        "type": "t_address"
      },
      {
        "astId": 9364,
        "contract": "contracts/BCPlayers.sol:BCPlayers",
        "label": "charsAddress",
        "offset": 0,
        "slot": "8",
        "type": "t_address"
      },
      {
        "astId": 9366,
        "contract": "contracts/BCPlayers.sol:BCPlayers",
        "label": "actionsAddress",
        "offset": 0,
        "slot": "9",
        "type": "t_address"
      },
      {
        "astId": 9446,
        "contract": "contracts/BCPlayers.sol:BCPlayers",
        "label": "StartLocation",
        "offset": 0,
        "slot": "10",
        "type": "t_struct(Position)10650_storage"
      },
      {
        "astId": 9450,
        "contract": "contracts/BCPlayers.sol:BCPlayers",
        "label": "players",
        "offset": 0,
        "slot": "11",
        "type": "t_array(t_struct(Player)10626_storage)dyn_storage"
      }
    ],
    "types": {
      "t_address": {
        "encoding": "inplace",
        "label": "address",
        "numberOfBytes": "20"
      },
      "t_array(t_struct(Player)10626_storage)dyn_storage": {
        "base": "t_struct(Player)10626_storage",
        "encoding": "dynamic_array",
        "label": "struct BCTypes.Player[]",
        "numberOfBytes": "32"
      },
      "t_array(t_uint8)dyn_storage": {
        "base": "t_uint8",
        "encoding": "dynamic_array",
        "label": "uint8[]",
        "numberOfBytes": "32"
      },
      "t_bool": {
        "encoding": "inplace",
        "label": "bool",
        "numberOfBytes": "1"
      },
      "t_contract(CharInterface)9167": {
        "encoding": "inplace",
        "label": "contract CharInterface",
        "numberOfBytes": "20"
      },
      "t_contract(EventsInterface)9145": {
        "encoding": "inplace",
        "label": "contract EventsInterface",
        "numberOfBytes": "20"
      },
      "t_contract(GamesInterface)9340": {
        "encoding": "inplace",
        "label": "contract GamesInterface",
        "numberOfBytes": "20"
      },
      "t_contract(ItemsInterface)9329": {
        "encoding": "inplace",
        "label": "contract ItemsInterface",
        "numberOfBytes": "20"
      },
      "t_contract(MapInterface)9315": {
        "encoding": "inplace",
        "label": "contract MapInterface",
        "numberOfBytes": "20"
      },
      "t_contract(UtilsInterface)9184": {
        "encoding": "inplace",
        "label": "contract UtilsInterface",
        "numberOfBytes": "20"
      },
      "t_int8": {
        "encoding": "inplace",
        "label": "int8",
        "numberOfBytes": "1"
      },
      "t_struct(Player)10626_storage": {
        "encoding": "inplace",
        "label": "struct BCTypes.Player",
        "members": [
          {
            "astId": 10598,
            "contract": "contracts/BCPlayers.sol:BCPlayers",
            "label": "owner",
            "offset": 0,
            "slot": "0",
            "type": "t_address"
          },
          {
            "astId": 10600,
            "contract": "contracts/BCPlayers.sol:BCPlayers",
            "label": "charContractAddress",
            "offset": 0,
            "slot": "1",
            "type": "t_address"
          },
          {
            "astId": 10602,
            "contract": "contracts/BCPlayers.sol:BCPlayers",
            "label": "characterId",
            "offset": 0,
            "slot": "2",
            "type": "t_uint256"
          },
          {
            "astId": 10605,
            "contract": "contracts/BCPlayers.sol:BCPlayers",
            "label": "position",
            "offset": 0,
            "slot": "3",
            "type": "t_struct(Position)10650_storage"
          },
          {
            "astId": 10607,
            "contract": "contracts/BCPlayers.sol:BCPlayers",
            "label": "healthDmgTaken",
            "offset": 0,
            "slot": "4",
            "type": "t_int8"
          },
          {
            "astId": 10609,
            "contract": "contracts/BCPlayers.sol:BCPlayers",
            "label": "armorDmgTaken",
            "offset": 1,
            "slot": "4",
            "type": "t_uint8"
          },
          {
            "astId": 10611,
            "contract": "contracts/BCPlayers.sol:BCPlayers",
            "label": "actionsTaken",
            "offset": 2,
            "slot": "4",
            "type": "t_uint8"
          },
          {
            "astId": 10613,
            "contract": "contracts/BCPlayers.sol:BCPlayers",
            "label": "dataTokens",
            "offset": 3,
            "slot": "4",
            "type": "t_uint8"
          },
          {
            "astId": 10616,
            "contract": "contracts/BCPlayers.sol:BCPlayers",
            "label": "currentEffects",
            "offset": 0,
            "slot": "5",
            "type": "t_array(t_uint8)dyn_storage"
          },
          {
            "astId": 10619,
            "contract": "contracts/BCPlayers.sol:BCPlayers",
            "label": "inventoryIDs",
            "offset": 0,
            "slot": "6",
            "type": "t_array(t_uint8)dyn_storage"
          },
          {
            "astId": 10621,
            "contract": "contracts/BCPlayers.sol:BCPlayers",
            "label": "canHarmOthers",
            "offset": 0,
            "slot": "7",
            "type": "t_bool"
          },
          {
            "astId": 10623,
            "contract": "contracts/BCPlayers.sol:BCPlayers",
            "label": "dead",
            "offset": 1,
            "slot": "7",
            "type": "t_bool"
          },
          {
            "astId": 10625,
            "contract": "contracts/BCPlayers.sol:BCPlayers",
            "label": "hasEgg",
            "offset": 2,
            "slot": "7",
            "type": "t_bool"
          }
        ],
        "numberOfBytes": "256"
      },
      "t_struct(Position)10650_storage": {
        "encoding": "inplace",
        "label": "struct BCTypes.Position",
        "members": [
          {
            "astId": 10647,
            "contract": "contracts/BCPlayers.sol:BCPlayers",
            "label": "row",
            "offset": 0,
            "slot": "0",
            "type": "t_uint8"
          },
          {
            "astId": 10649,
            "contract": "contracts/BCPlayers.sol:BCPlayers",
            "label": "col",
            "offset": 1,
            "slot": "0",
            "type": "t_uint8"
          }
        ],
        "numberOfBytes": "32"
      },
      "t_uint256": {
        "encoding": "inplace",
        "label": "uint256",
        "numberOfBytes": "32"
      },
      "t_uint8": {
        "encoding": "inplace",
        "label": "uint8",
        "numberOfBytes": "1"
      }
    }
  }
}