{
  "address": "0x661BF9CEF30fe0086DC5FB64B4E66D029AA6A82D",
  "abi": [
    {
      "inputs": [],
      "stateMutability": "nonpayable",
      "type": "constructor"
    },
    {
      "anonymous": false,
      "inputs": [
        {
          "indexed": true,
          "internalType": "uint256",
          "name": "gameId",
          "type": "uint256"
        },
        {
          "indexed": false,
          "internalType": "uint256",
          "name": "roll",
          "type": "uint256"
        },
        {
          "indexed": false,
          "internalType": "uint256",
          "name": "forValue",
          "type": "uint256"
        },
        {
          "indexed": false,
          "internalType": "uint256",
          "name": "against",
          "type": "uint256"
        }
      ],
      "name": "ChallengeEvent",
      "type": "event"
    },
    {
      "anonymous": false,
      "inputs": [
        {
          "indexed": true,
          "internalType": "uint256",
          "name": "gameId",
          "type": "uint256"
        },
        {
          "indexed": false,
          "internalType": "uint256",
          "name": "roll",
          "type": "uint256"
        }
      ],
      "name": "DiceRollEvent",
      "type": "event"
    },
    {
      "anonymous": false,
      "inputs": [
        {
          "indexed": true,
          "internalType": "uint256",
          "name": "gameId",
          "type": "uint256"
        },
        {
          "indexed": false,
          "internalType": "uint256",
          "name": "playerId",
          "type": "uint256"
        },
        {
          "components": [
            {
              "internalType": "uint256",
              "name": "id",
              "type": "uint256"
            },
            {
              "internalType": "bool",
              "name": "permanent",
              "type": "bool"
            },
            {
              "internalType": "uint8",
              "name": "rollForLow",
              "type": "uint8"
            },
            {
              "internalType": "uint8",
              "name": "rollForHigh",
              "type": "uint8"
            },
            {
              "components": [
                {
                  "internalType": "enum BCEvents.EffectTypes",
                  "name": "effect",
                  "type": "uint8"
                },
                {
                  "internalType": "uint256",
                  "name": "value",
                  "type": "uint256"
                }
              ],
              "internalType": "struct BCEvents.Effect[]",
              "name": "defaultEffect",
              "type": "tuple[]"
            },
            {
              "components": [
                {
                  "internalType": "enum BCEvents.EffectTypes",
                  "name": "effect",
                  "type": "uint8"
                },
                {
                  "internalType": "uint256",
                  "name": "value",
                  "type": "uint256"
                }
              ],
              "internalType": "struct BCEvents.Effect[]",
              "name": "lowEffect",
              "type": "tuple[]"
            },
            {
              "components": [
                {
                  "internalType": "enum BCEvents.EffectTypes",
                  "name": "effect",
                  "type": "uint8"
                },
                {
                  "internalType": "uint256",
                  "name": "value",
                  "type": "uint256"
                }
              ],
              "internalType": "struct BCEvents.Effect[]",
              "name": "highEffect",
              "type": "tuple[]"
            }
          ],
          "indexed": false,
          "internalType": "struct BCEvents.BCEvent",
          "name": "bcEvent",
          "type": "tuple"
        },
        {
          "components": [
            {
              "internalType": "enum BCEvents.EffectTypes",
              "name": "effect",
              "type": "uint8"
            },
            {
              "internalType": "uint256",
              "name": "value",
              "type": "uint256"
            }
          ],
          "indexed": false,
          "internalType": "struct BCEvents.Effect[]",
          "name": "appliedBCEffects",
          "type": "tuple[]"
        },
        {
          "components": [
            {
              "internalType": "uint8",
              "name": "row",
              "type": "uint8"
            },
            {
              "internalType": "uint8",
              "name": "col",
              "type": "uint8"
            }
          ],
          "indexed": false,
          "internalType": "struct BCTypes.Position",
          "name": "position",
          "type": "tuple"
        }
      ],
      "name": "EventResolvedEvent",
      "type": "event"
    },
    {
      "anonymous": false,
      "inputs": [
        {
          "indexed": true,
          "internalType": "address",
          "name": "previousOwner",
          "type": "address"
        },
        {
          "indexed": true,
          "internalType": "address",
          "name": "newOwner",
          "type": "address"
        }
      ],
      "name": "OwnershipTransferred",
      "type": "event"
    },
    {
      "anonymous": false,
      "inputs": [
        {
          "indexed": true,
          "internalType": "uint256",
          "name": "gameId",
          "type": "uint256"
        },
        {
          "indexed": false,
          "internalType": "uint256",
          "name": "playerId",
          "type": "uint256"
        },
        {
          "indexed": false,
          "internalType": "uint256",
          "name": "damage",
          "type": "uint256"
        },
        {
          "components": [
            {
              "internalType": "uint8",
              "name": "row",
              "type": "uint8"
            },
            {
              "internalType": "uint8",
              "name": "col",
              "type": "uint8"
            }
          ],
          "indexed": false,
          "internalType": "struct BCTypes.Position",
          "name": "position",
          "type": "tuple"
        }
      ],
      "name": "PlayerDiedEvent",
      "type": "event"
    },
    {
      "inputs": [],
      "name": "StartLocation",
      "outputs": [
        {
          "internalType": "uint8",
          "name": "row",
          "type": "uint8"
        },
        {
          "internalType": "uint8",
          "name": "col",
          "type": "uint8"
        }
      ],
      "stateMutability": "view",
      "type": "function"
    },
    {
      "inputs": [],
      "name": "actionsAddress",
      "outputs": [
        {
          "internalType": "address",
          "name": "",
          "type": "address"
        }
      ],
      "stateMutability": "view",
      "type": "function"
    },
    {
      "inputs": [
        {
          "internalType": "uint256",
          "name": "_charId",
          "type": "uint256"
        },
        {
          "internalType": "address",
          "name": "_owner",
          "type": "address"
        },
        {
          "internalType": "uint256[]",
          "name": "_itemIds",
          "type": "uint256[]"
        }
      ],
      "name": "addPlayer",
      "outputs": [
        {
          "internalType": "uint256",
          "name": "",
          "type": "uint256"
        }
      ],
      "stateMutability": "nonpayable",
      "type": "function"
    },
    {
      "inputs": [
        {
          "internalType": "uint256",
          "name": "_mapId",
          "type": "uint256"
        },
        {
          "internalType": "uint256[]",
          "name": "_players",
          "type": "uint256[]"
        }
      ],
      "name": "applyHazardDamage",
      "outputs": [],
      "stateMutability": "nonpayable",
      "type": "function"
    },
    {
      "inputs": [],
      "name": "bcEvents",
      "outputs": [
        {
          "internalType": "contract EventsInterface",
          "name": "",
          "type": "address"
        }
      ],
      "stateMutability": "view",
      "type": "function"
    },
    {
      "inputs": [],
      "name": "chars",
      "outputs": [
        {
          "internalType": "contract CharInterface",
          "name": "",
          "type": "address"
        }
      ],
      "stateMutability": "view",
      "type": "function"
    },
    {
      "inputs": [],
      "name": "charsAddress",
      "outputs": [
        {
          "internalType": "address",
          "name": "",
          "type": "address"
        }
      ],
      "stateMutability": "view",
      "type": "function"
    },
    {
      "inputs": [
        {
          "internalType": "uint256",
          "name": "_playerId",
          "type": "uint256"
        },
        {
          "internalType": "uint256",
          "name": "_num",
          "type": "uint256"
        }
      ],
      "name": "decrementNumItemsHeld",
      "outputs": [],
      "stateMutability": "nonpayable",
      "type": "function"
    },
    {
      "inputs": [],
      "name": "denizensAddress",
      "outputs": [
        {
          "internalType": "address",
          "name": "",
          "type": "address"
        }
      ],
      "stateMutability": "view",
      "type": "function"
    },
    {
      "inputs": [
        {
          "internalType": "uint256",
          "name": "_playerId",
          "type": "uint256"
        },
        {
          "internalType": "uint256",
          "name": "_gameId",
          "type": "uint256"
        },
        {
          "internalType": "uint256",
          "name": "_mapId",
          "type": "uint256"
        },
        {
          "components": [
            {
              "internalType": "uint8",
              "name": "row",
              "type": "uint8"
            },
            {
              "internalType": "uint8",
              "name": "col",
              "type": "uint8"
            }
          ],
          "internalType": "struct BCTypes.Position",
          "name": "_position",
          "type": "tuple"
        },
        {
          "internalType": "uint256",
          "name": "_eventId",
          "type": "uint256"
        },
        {
          "internalType": "uint256",
          "name": "_effectNum",
          "type": "uint256"
        }
      ],
      "name": "extApplyEffect",
      "outputs": [],
      "stateMutability": "nonpayable",
      "type": "function"
    },
    {
      "inputs": [
        {
          "internalType": "uint256",
          "name": "_choice",
          "type": "uint256"
        },
        {
          "internalType": "uint256",
          "name": "_eventPlayerId",
          "type": "uint256"
        },
        {
          "internalType": "uint256",
          "name": "_gameId",
          "type": "uint256"
        },
        {
          "internalType": "uint256",
          "name": "_mapId",
          "type": "uint256"
        },
        {
          "components": [
            {
              "internalType": "uint8",
              "name": "row",
              "type": "uint8"
            },
            {
              "internalType": "uint8",
              "name": "col",
              "type": "uint8"
            }
          ],
          "internalType": "struct BCTypes.Position",
          "name": "_position",
          "type": "tuple"
        },
        {
          "internalType": "uint256",
          "name": "_eventNumber",
          "type": "uint256"
        },
        {
          "internalType": "enum BCTypes.BCEventType",
          "name": "_eventType",
          "type": "uint8"
        }
      ],
      "name": "extChooseEffect",
      "outputs": [],
      "stateMutability": "nonpayable",
      "type": "function"
    },
    {
      "inputs": [
        {
          "internalType": "uint256",
          "name": "_id",
          "type": "uint256"
        }
      ],
      "name": "extGetActionsTaken",
      "outputs": [
        {
          "internalType": "uint256",
          "name": "",
          "type": "uint256"
        }
      ],
      "stateMutability": "view",
      "type": "function"
    },
    {
      "inputs": [
        {
          "internalType": "uint256",
          "name": "_id",
          "type": "uint256"
        }
      ],
      "name": "extGetPlayer",
      "outputs": [
        {
          "components": [
            {
              "internalType": "address",
              "name": "owner",
              "type": "address"
            },
            {
              "internalType": "uint256",
              "name": "characterId",
              "type": "uint256"
            },
            {
              "internalType": "uint256",
              "name": "id",
              "type": "uint256"
            },
            {
              "components": [
                {
                  "internalType": "int8",
                  "name": "health",
                  "type": "int8"
                },
                {
                  "internalType": "int8",
                  "name": "carry",
                  "type": "int8"
                },
                {
                  "internalType": "int8",
                  "name": "defense",
                  "type": "int8"
                },
                {
                  "internalType": "int8",
                  "name": "hack",
                  "type": "int8"
                },
                {
                  "internalType": "int8",
                  "name": "breach",
                  "type": "int8"
                },
                {
                  "internalType": "int8",
                  "name": "shoot",
                  "type": "int8"
                },
                {
                  "internalType": "int8",
                  "name": "melee",
                  "type": "int8"
                },
                {
                  "internalType": "bool",
                  "name": "hasGun",
                  "type": "bool"
                }
              ],
              "internalType": "struct BCTypes.Traits",
              "name": "currentTraits",
              "type": "tuple"
            },
            {
              "components": [
                {
                  "internalType": "uint8",
                  "name": "row",
                  "type": "uint8"
                },
                {
                  "internalType": "uint8",
                  "name": "col",
                  "type": "uint8"
                }
              ],
              "internalType": "struct BCTypes.Position",
              "name": "position",
              "type": "tuple"
            },
            {
              "components": [
                {
                  "internalType": "uint8",
                  "name": "row",
                  "type": "uint8"
                },
                {
                  "internalType": "uint8",
                  "name": "col",
                  "type": "uint8"
                }
              ],
              "internalType": "struct BCTypes.Position",
              "name": "lastPos",
              "type": "tuple"
            },
            {
              "internalType": "int8",
              "name": "healthDmgTaken",
              "type": "int8"
            },
            {
              "internalType": "uint8",
              "name": "armorDmgTaken",
              "type": "uint8"
            },
            {
              "internalType": "uint8",
              "name": "actionsTaken",
              "type": "uint8"
            },
            {
              "internalType": "uint8",
              "name": "dataTokens",
              "type": "uint8"
            },
            {
              "internalType": "uint8[]",
              "name": "currentEffects",
              "type": "uint8[]"
            },
            {
              "internalType": "uint8",
              "name": "numItemsHeld",
              "type": "uint8"
            },
            {
              "internalType": "bool",
              "name": "dead",
              "type": "bool"
            },
            {
              "internalType": "uint256",
              "name": "gameId",
              "type": "uint256"
            }
          ],
          "internalType": "struct BCTypes.Player",
          "name": "",
          "type": "tuple"
        }
      ],
      "stateMutability": "view",
      "type": "function"
    },
    {
      "inputs": [
        {
          "internalType": "uint256",
          "name": "_id",
          "type": "uint256"
        }
      ],
      "name": "extGetPlayerCharId",
      "outputs": [
        {
          "internalType": "uint256",
          "name": "",
          "type": "uint256"
        }
      ],
      "stateMutability": "view",
      "type": "function"
    },
    {
      "inputs": [
        {
          "internalType": "uint256",
          "name": "_id",
          "type": "uint256"
        }
      ],
      "name": "extGetPlayerOwner",
      "outputs": [
        {
          "internalType": "address",
          "name": "",
          "type": "address"
        }
      ],
      "stateMutability": "view",
      "type": "function"
    },
    {
      "inputs": [
        {
          "internalType": "uint256",
          "name": "_playerId",
          "type": "uint256"
        },
        {
          "internalType": "uint256",
          "name": "_amount",
          "type": "uint256"
        },
        {
          "internalType": "bool",
          "name": "_hazard",
          "type": "bool"
        }
      ],
      "name": "extHurtPlayer",
      "outputs": [],
      "stateMutability": "nonpayable",
      "type": "function"
    },
    {
      "inputs": [
        {
          "components": [
            {
              "internalType": "uint8",
              "name": "row",
              "type": "uint8"
            },
            {
              "internalType": "uint8",
              "name": "col",
              "type": "uint8"
            }
          ],
          "internalType": "struct BCTypes.Position",
          "name": "_position",
          "type": "tuple"
        },
        {
          "internalType": "uint256",
          "name": "_playerId",
          "type": "uint256"
        },
        {
          "internalType": "uint256",
          "name": "_mapId",
          "type": "uint256"
        }
      ],
      "name": "extMovePlayer",
      "outputs": [
        {
          "internalType": "bool",
          "name": "",
          "type": "bool"
        }
      ],
      "stateMutability": "nonpayable",
      "type": "function"
    },
    {
      "inputs": [],
      "name": "games",
      "outputs": [
        {
          "internalType": "contract GamesInterface",
          "name": "",
          "type": "address"
        }
      ],
      "stateMutability": "view",
      "type": "function"
    },
    {
      "inputs": [
        {
          "internalType": "uint256",
          "name": "_gameId",
          "type": "uint256"
        }
      ],
      "name": "getEventBlocks",
      "outputs": [
        {
          "internalType": "uint256[]",
          "name": "",
          "type": "uint256[]"
        }
      ],
      "stateMutability": "view",
      "type": "function"
    },
    {
      "inputs": [
        {
          "internalType": "uint256",
          "name": "_direction",
          "type": "uint256"
        },
        {
          "components": [
            {
              "internalType": "uint8",
              "name": "row",
              "type": "uint8"
            },
            {
              "internalType": "uint8",
              "name": "col",
              "type": "uint8"
            }
          ],
          "internalType": "struct BCTypes.Position",
          "name": "_start",
          "type": "tuple"
        }
      ],
      "name": "getNeighborRoom",
      "outputs": [
        {
          "components": [
            {
              "internalType": "uint8",
              "name": "row",
              "type": "uint8"
            },
            {
              "internalType": "uint8",
              "name": "col",
              "type": "uint8"
            }
          ],
          "internalType": "struct BCTypes.Position",
          "name": "",
          "type": "tuple"
        }
      ],
      "stateMutability": "pure",
      "type": "function"
    },
    {
      "inputs": [
        {
          "internalType": "uint256",
          "name": "_playerId",
          "type": "uint256"
        },
        {
          "internalType": "uint8",
          "name": "_amount",
          "type": "uint8"
        }
      ],
      "name": "grantDataToPlayer",
      "outputs": [],
      "stateMutability": "nonpayable",
      "type": "function"
    },
    {
      "inputs": [
        {
          "internalType": "uint256",
          "name": "_playerId",
          "type": "uint256"
        },
        {
          "internalType": "uint256",
          "name": "_num",
          "type": "uint256"
        }
      ],
      "name": "incrementNumItemsHeld",
      "outputs": [],
      "stateMutability": "nonpayable",
      "type": "function"
    },
    {
      "inputs": [
        {
          "internalType": "uint256",
          "name": "_playerId",
          "type": "uint256"
        }
      ],
      "name": "incrementPlayerActions",
      "outputs": [],
      "stateMutability": "nonpayable",
      "type": "function"
    },
    {
      "inputs": [],
      "name": "items",
      "outputs": [
        {
          "internalType": "contract ItemsInterface",
          "name": "",
          "type": "address"
        }
      ],
      "stateMutability": "view",
      "type": "function"
    },
    {
      "inputs": [],
      "name": "lobbiesAddress",
      "outputs": [
        {
          "internalType": "address",
          "name": "",
          "type": "address"
        }
      ],
      "stateMutability": "view",
      "type": "function"
    },
    {
      "inputs": [],
      "name": "maps",
      "outputs": [
        {
          "internalType": "contract MapInterface",
          "name": "",
          "type": "address"
        }
      ],
      "stateMutability": "view",
      "type": "function"
    },
    {
      "inputs": [],
      "name": "owner",
      "outputs": [
        {
          "internalType": "address",
          "name": "",
          "type": "address"
        }
      ],
      "stateMutability": "view",
      "type": "function"
    },
    {
      "inputs": [
        {
          "internalType": "uint256",
          "name": "",
          "type": "uint256"
        }
      ],
      "name": "players",
      "outputs": [
        {
          "internalType": "address",
          "name": "owner",
          "type": "address"
        },
        {
          "internalType": "uint256",
          "name": "characterId",
          "type": "uint256"
        },
        {
          "internalType": "uint256",
          "name": "id",
          "type": "uint256"
        },
        {
          "components": [
            {
              "internalType": "int8",
              "name": "health",
              "type": "int8"
            },
            {
              "internalType": "int8",
              "name": "carry",
              "type": "int8"
            },
            {
              "internalType": "int8",
              "name": "defense",
              "type": "int8"
            },
            {
              "internalType": "int8",
              "name": "hack",
              "type": "int8"
            },
            {
              "internalType": "int8",
              "name": "breach",
              "type": "int8"
            },
            {
              "internalType": "int8",
              "name": "shoot",
              "type": "int8"
            },
            {
              "internalType": "int8",
              "name": "melee",
              "type": "int8"
            },
            {
              "internalType": "bool",
              "name": "hasGun",
              "type": "bool"
            }
          ],
          "internalType": "struct BCTypes.Traits",
          "name": "currentTraits",
          "type": "tuple"
        },
        {
          "components": [
            {
              "internalType": "uint8",
              "name": "row",
              "type": "uint8"
            },
            {
              "internalType": "uint8",
              "name": "col",
              "type": "uint8"
            }
          ],
          "internalType": "struct BCTypes.Position",
          "name": "position",
          "type": "tuple"
        },
        {
          "components": [
            {
              "internalType": "uint8",
              "name": "row",
              "type": "uint8"
            },
            {
              "internalType": "uint8",
              "name": "col",
              "type": "uint8"
            }
          ],
          "internalType": "struct BCTypes.Position",
          "name": "lastPos",
          "type": "tuple"
        },
        {
          "internalType": "int8",
          "name": "healthDmgTaken",
          "type": "int8"
        },
        {
          "internalType": "uint8",
          "name": "armorDmgTaken",
          "type": "uint8"
        },
        {
          "internalType": "uint8",
          "name": "actionsTaken",
          "type": "uint8"
        },
        {
          "internalType": "uint8",
          "name": "dataTokens",
          "type": "uint8"
        },
        {
          "internalType": "uint8",
          "name": "numItemsHeld",
          "type": "uint8"
        },
        {
          "internalType": "bool",
          "name": "dead",
          "type": "bool"
        },
        {
          "internalType": "uint256",
          "name": "gameId",
          "type": "uint256"
        }
      ],
      "stateMutability": "view",
      "type": "function"
    },
    {
      "inputs": [],
      "name": "renounceOwnership",
      "outputs": [],
      "stateMutability": "nonpayable",
      "type": "function"
    },
    {
      "inputs": [
        {
          "internalType": "uint256",
          "name": "_playerId",
          "type": "uint256"
        }
      ],
      "name": "resetPlayerActions",
      "outputs": [],
      "stateMutability": "nonpayable",
      "type": "function"
    },
    {
      "inputs": [
        {
          "internalType": "uint256",
          "name": "_gameId",
          "type": "uint256"
        },
        {
          "internalType": "uint256",
          "name": "_for",
          "type": "uint256"
        },
        {
          "internalType": "uint256",
          "name": "_against",
          "type": "uint256"
        }
      ],
      "name": "resolveChallenge",
      "outputs": [
        {
          "internalType": "bool",
          "name": "",
          "type": "bool"
        }
      ],
      "stateMutability": "nonpayable",
      "type": "function"
    },
    {
      "inputs": [
        {
          "internalType": "uint256",
          "name": "_gameId",
          "type": "uint256"
        }
      ],
      "name": "roll",
      "outputs": [
        {
          "internalType": "uint256",
          "name": "",
          "type": "uint256"
        }
      ],
      "stateMutability": "nonpayable",
      "type": "function"
    },
    {
      "inputs": [
        {
          "internalType": "address",
          "name": "_charAddress",
          "type": "address"
        },
        {
          "internalType": "address",
          "name": "_utilsAddress",
          "type": "address"
        },
        {
          "internalType": "address",
          "name": "_mapsAddress",
          "type": "address"
        },
        {
          "internalType": "address",
          "name": "_lobbiesAddress",
          "type": "address"
        },
        {
          "internalType": "address",
          "name": "_actionsAddress",
          "type": "address"
        },
        {
          "internalType": "address",
          "name": "_eventsAddress",
          "type": "address"
        },
        {
          "internalType": "address",
          "name": "_itemsAddress",
          "type": "address"
        },
        {
          "internalType": "address",
          "name": "_gamesAddress",
          "type": "address"
        },
        {
          "internalType": "address",
          "name": "_denizensAddress",
          "type": "address"
        }
      ],
      "name": "setContractAddresses",
      "outputs": [],
      "stateMutability": "nonpayable",
      "type": "function"
    },
    {
      "inputs": [
        {
          "internalType": "uint256[]",
          "name": "ids",
          "type": "uint256[]"
        },
        {
          "internalType": "uint256",
          "name": "_gameId",
          "type": "uint256"
        }
      ],
      "name": "setPlayersGameId",
      "outputs": [],
      "stateMutability": "nonpayable",
      "type": "function"
    },
    {
      "inputs": [
        {
          "internalType": "uint8",
          "name": "_min",
          "type": "uint8"
        },
        {
          "internalType": "uint8",
          "name": "_max",
          "type": "uint8"
        }
      ],
      "name": "smallIntBetweenVals",
      "outputs": [
        {
          "internalType": "uint8",
          "name": "",
          "type": "uint8"
        }
      ],
      "stateMutability": "nonpayable",
      "type": "function"
    },
    {
      "inputs": [
        {
          "internalType": "address",
          "name": "newOwner",
          "type": "address"
        }
      ],
      "name": "transferOwnership",
      "outputs": [],
      "stateMutability": "nonpayable",
      "type": "function"
    },
    {
      "inputs": [
        {
          "internalType": "uint256",
          "name": "_charId",
          "type": "uint256"
        },
        {
          "internalType": "uint256",
          "name": "_playerId",
          "type": "uint256"
        }
      ],
      "name": "updatePlayerTraits",
      "outputs": [],
      "stateMutability": "nonpayable",
      "type": "function"
    }
  ],
  "transactionHash": "0xc54ba344307a64a6292aa6db9055f1f5331adea105a3538b58656f0f5adc05e8",
  "args": [],
  "numDeployments": 1,
  "solcInputHash": "53343237385e44ecb26c93379ee6715d",
  "bytecode": "0x600060015560c0604052600a608052600660a052600c805461ffff191661060a1790553480156200002f57600080fd5b506200003b3362000428565b6200010f604080516101c081018252600080825260208083018290528284018290528351610100810185528281528082018390528085018390526060808201849052608080830185905260a080840186905260c0840186905260e0840186905291860192909252855180870187528481528084018590529185019190915284518086019095528285529084019190915290919082019081526000602082018190526040820181905260608083018290526080830182905260a083015260c0820181905260e082018190526101009091015290565b600d8190806001815401808255809150506001900390600052602060002090600a020160009091909190915060008201518160000160006101000a8154816001600160a01b0302191690836001600160a01b03160217905550602082015181600101556040820151816002015560608201518160030160008201518160000160006101000a81548160ff021916908360000b60ff16021790555060208201518160000160016101000a81548160ff021916908360000b60ff16021790555060408201518160000160026101000a81548160ff021916908360000b60ff16021790555060608201518160000160036101000a81548160ff021916908360000b60ff16021790555060808201518160000160046101000a81548160ff021916908360000b60ff16021790555060a08201518160000160056101000a81548160ff021916908360000b60ff16021790555060c08201518160000160066101000a81548160ff021916908360000b60ff16021790555060e08201518160000160076101000a81548160ff021916908315150217905550505060808201518160040160008201518160000160006101000a81548160ff021916908360ff16021790555060208201518160000160016101000a81548160ff021916908360ff160217905550505060a08201518160050160008201518160000160006101000a81548160ff021916908360ff16021790555060208201518160000160016101000a81548160ff021916908360ff160217905550505060c08201518160060160006101000a81548160ff021916908360000b60ff16021790555060e08201518160060160016101000a81548160ff021916908360ff1602179055506101008201518160060160026101000a81548160ff021916908360ff1602179055506101208201518160060160036101000a81548160ff021916908360ff160217905550610140820151816007019080519060200190620003e592919062000478565b5061016082015160088201805461018085015115156101000261ffff1990911660ff909316929092179190911790556101a090910151600990910155506200053c565b600080546001600160a01b038381166001600160a01b0319831681178455604051919092169283917f8be0079c531659141344cd1fd0a4f28419497f9722a3daafe3b4186f6b6457e09190a35050565b82805482825590600052602060002090601f01602090048101928215620005135791602002820160005b83821115620004e257835183826101000a81548160ff021916908360ff1602179055509260200192600101602081600001049283019260010302620004a2565b8015620005115782816101000a81549060ff0219169055600101602081600001049283019260010302620004e2565b505b506200052192915062000525565b5090565b5b8082111562000521576000815560010162000526565b614576806200054c6000396000f3fe608060405234801561001057600080fd5b50600436106102275760003560e01c80637ddae10311610130578063ce28613f116100b8578063ed8619611161007c578063ed86196114610516578063f2fde38b14610529578063f71d96cb1461053c578063f96f55d014610568578063fe23e2df1461057b57600080fd5b8063ce28613f14610488578063ce932297146104ad578063dbf496ab146104c0578063dc769ee8146104d3578063e7169ec51461050357600080fd5b8063955a015b116100ff578063955a015b146104295780639fca1ee11461043c578063b69071941461044f578063c06fad0614610462578063ca39dfc41461047557600080fd5b80637ddae103146103d25780638d491b3e146103e55780638da5cb5b146103f8578063951fc3fe1461040957600080fd5b80635519f439116101b3578063668a7f3b11610182578063668a7f3b1461037e5780636d291bbb14610391578063715018a6146103a457806373e4195c146103ac5780637b45c0d4146103bf57600080fd5b80635519f439146103225780635dc969671461033557806365c363f0146103585780636621a4211461036b57600080fd5b80631f7b4f30116101fa5780631f7b4f30146102b5578063336d7d7b146102d6578063351dacdf146102e95780633deaec2b146102fc57806347d0e3c91461030f57600080fd5b80630dd0f5881461022c5780630e73c0241461024157806310a2cd0d1461026a57806310f67fb314610295575b600080fd5b61023f61023a366004613185565b61058e565b005b61025461024f3660046131be565b6105f5565b6040516102619190613212565b60405180910390f35b60035461027d906001600160a01b031681565b6040516001600160a01b039091168152602001610261565b6102a86102a33660046131be565b610615565b60405161026191906132bb565b6102c86102c33660046131be565b6108de565b604051908152602001610261565b60085461027d906001600160a01b031681565b61023f6102f73660046133d2565b610932565b60045461027d906001600160a01b031681565b6102c861031d3660046131be565b610987565b6102c8610330366004613573565b6109bf565b6103486103433660046135c9565b610b1b565b6040519015158152602001610261565b61023f6103663660046131be565b610bb1565b61027d6103793660046131be565b610c09565b61023f61038c3660046135f5565b610c3e565b61023f61039f36600461368c565b610d8f565b61023f6111ef565b6102c86103ba3660046131be565b611203565b600a5461027d906001600160a01b031681565b60055461027d906001600160a01b031681565b6103486103f33660046136f9565b611231565b6000546001600160a01b031661027d565b61041c61041736600461372d565b6113d7565b604051610261919061375a565b60075461027d906001600160a01b031681565b60095461027d906001600160a01b031681565b61023f61045d366004613778565b611501565b60065461027d906001600160a01b031681565b600b5461027d906001600160a01b031681565b61049b6104963660046137a8565b6115ac565b60405160ff9091168152602001610261565b61023f6104bb3660046131be565b61165c565b61023f6104ce3660046137d6565b6116cc565b600c546104e99060ff8082169161010090041682565b6040805160ff938416815292909116602083015201610261565b61023f61051136600461387e565b611764565b61023f6105243660046138c2565b6117ed565b61023f610537366004613914565b611900565b61054f61054a3660046131be565b611979565b6040516102619d9c9b9a9998979695949392919061392f565b61023f6105763660046133d2565b611aa3565b61023f6105893660046133d2565b611d23565b600b546001600160a01b031633146105e55760405162461bcd60e51b8152602060048201526015602482015274139bdd0819195b9a5e995b9cc818dbdb9d1c9858dd605a1b60448201526064015b60405180910390fd5b6105f0838383611d5c565b505050565b600081815260026020526040902060609061060f90611e20565b92915050565b6106e8604080516101c081018252600080825260208083018290528284018290528351610100810185528281528082018390528085018390526060808201849052608080830185905260a080840186905260c0840186905260e0840186905291860192909252855180870187528481528084018590529185019190915284518086019095528285529084019190915290919082019081526000602082018190526040820181905260608083018290526080830182905260a083015260c0820181905260e082018190526101009091015290565b600d82815481106106fb576106fb6139d3565b60009182526020808320604080516101c081018252600a90940290910180546001600160a01b0316845260018101548484015260028101548483015281516101008181018452600383015480880b8352818104880b8387015262010000808204890b8487015263010000008083048a0b60608681019190915264010000000084048b0b6080808801919091526501000000000085048c0b60a080890191909152600160301b86048d0b60c0808a019190915260ff600160381b9097048716151560e0808b0191909152938d01989098528951808b018b5260048a015480881682528890048716818d0152918c01919091528851808a018a52600589015480871682528790048616818c0152908b015260068701549a8b900b958a0195909552838a04831694890194909452880481169187019190915295049094166101208401526007840180548251818502810185019093528083529394936101408601938301828280156108a757602002820191906000526020600020906000905b825461010083900a900460ff168152602060019283018181049485019490930390920291018084116108785790505b5050509183525050600882015460ff8082166020840152610100909104161515604082015260099091015460609091015292915050565b6000806108ed600160066115ac565b60ff169050827ffe34d093a460a16ee5fb374540914d1c734a17502c0c1a87b387c8d6097e1c518260405161092491815260200190565b60405180910390a292915050565b80600d8381548110610946576109466139d3565b6000918252602082206008600a9092020101805490919061096b90849060ff166139ff565b92506101000a81548160ff021916908360ff1602179055505050565b6000600d828154811061099c5761099c6139d3565b60009182526020909120600a909102016006015462010000900460ff1692915050565b6008546000906001600160a01b03163314610a115760405162461bcd60e51b8152602060048201526012602482015271139bdd081b1bd8989e4818dbdb9d1c9858dd60721b60448201526064016105dc565b600d805460018181018084556000938452600a9092027fd7b6990105719101dabeb77144f2a3385c8033acd3af97e9423a695e81ad1eb5019291610a559190613a18565b82546001600160a01b0319166001600160a01b038716178355600180840188905560028401829055600d54919250610a9291889161057691613a18565b835160088301805460ff191660ff909216919091179055600654604051630926bc2d60e21b81526001600160a01b039091169063249af0b490610add90849088908a90600401613a2b565b600060405180830381600087803b158015610af757600080fd5b505af1158015610b0b573d6000803e3d6000fd5b50929450505050505b9392505050565b600080610b27856108de565b604080518281526020810187905290810185905290915085907f75b6a8325595f91135e07382840634226793c68c9e59623da7e10d7ad3d95b959060600160405180910390a280600103610b7f576000915050610b14565b600383610b8c8684613a5c565b610b969190613a6f565b1315610ba6576001915050610b14565b506000949350505050565b6007546001600160a01b03163314610bc857600080fd5b6000600d8281548110610bdd57610bdd6139d3565b90600052602060002090600a020160060160026101000a81548160ff021916908360ff16021790555050565b6000600d8281548110610c1e57610c1e6139d3565b60009182526020909120600a90910201546001600160a01b031692915050565b6007546001600160a01b03163314610c685760405162461bcd60e51b81526004016105dc90613a96565b60005b60018251610c799190613a18565b81116105f0576000600d838381518110610c9557610c956139d3565b602002602001015181548110610cad57610cad6139d3565b60009182526020822060048054600a939093029091018082015460405163f9dfbfcb60e01b815292830189905260ff808216602485015261010090910416604483015293506001600160a01b039091169063f9dfbfcb9060640161014060405180830381865afa158015610d25573d6000803e3d6000fd5b505050506040513d601f19601f82011682018060405250810190610d499190613ad8565b90508060c0015115610d7a57610d7a848481518110610d6a57610d6a6139d3565b6020026020010151600180611d5c565b50508080610d8790613bad565b915050610c6b565b6007546001600160a01b03163314610db95760405162461bcd60e51b81526004016105dc90613a96565b610e016040518060e0016040528060008152602001600015158152602001600060ff168152602001600060ff1681526020016060815260200160608152602001606081525090565b6005826005811115610e1557610e15613bc6565b03610e925760055460405163c82c37b960e01b8152600481018590526001600160a01b039091169063c82c37b990602401600060405180830381865afa158015610e63573d6000803e3d6000fd5b505050506040513d6000823e601f3d908101601f19168201604052610e8b9190810190613c69565b9050610f0c565b60055460405163e4dc1a8360e01b81526001600160a01b039091169063e4dc1a8390610ec49086908690600401613d6e565b600060405180830381865afa158015610ee1573d6000803e3d6000fd5b505050506040513d6000823e601f3d908101601f19168201604052610f099190810190613c69565b90505b6005546040516336772a9360e21b81526000916001600160a01b03169063d9dcaa4c90610f3f9086908890600401613d82565b600060405180830381865afa158015610f5c573d6000803e3d6000fd5b505050506040513d6000823e601f3d908101601f19168201604052610f849190810190613d9d565b9050816040015160ff166000148015610fa25750606082015160ff16155b1561103257610fce8888888885600081518110610fc157610fc16139d3565b6020026020010151611e2d565b86600080516020614521833981519152898484600081518110610ff357610ff36139d3565b60200260200101518960405161100c9493929190613e98565b60405180910390a2600087815260026020526040902061102c9043612ce5565b506111e4565b600061103d886108de565b9050826040015160ff1660001415801561105e5750826040015160ff168111155b156110e15761107d8989898986600181518110610fc157610fc16139d3565b876000805160206145218339815191528a85856001815181106110a2576110a26139d3565b60200260200101518a6040516110bb9493929190613e98565b60405180910390a260008881526002602052604090206110db9043612ce5565b506111e2565b606083015160ff16158015906110fe5750826060015160ff168110155b156111685761111d8989898986600281518110610fc157610fc16139d3565b876000805160206145218339815191528a8585600281518110611142576111426139d3565b60200260200101518a60405161115b9493929190613e98565b60405180910390a26111e2565b6111828989898986600081518110610fc157610fc16139d3565b876000805160206145218339815191528a85856000815181106111a7576111a76139d3565b60200260200101518a6040516111c09493929190613e98565b60405180910390a260008881526002602052604090206111e09043612ce5565b505b505b505050505050505050565b6111f7612cf1565b6112016000612d4b565b565b6000600d8281548110611218576112186139d3565b90600052602060002090600a0201600101549050919050565b6007546000906001600160a01b0316331461125e5760405162461bcd60e51b81526004016105dc90613a96565b6000600d8481548110611273576112736139d3565b90600052602060002090600a02019050600d8481548110611296576112966139d3565b60009182526020808320600a929092029091016004908101805460058601805460ff92831660ff19821681178355935461ffff199182169094176101009485900484168502179091558a518785018054968d01519184169690921686179216928302919091179055815460405163f9dfbfcb60e01b8152928301889052602483019390935260448201526001600160a01b039091169063f9dfbfcb9060640161014060405180830381865afa158015611353573d6000803e3d6000fd5b505050506040513d601f19601f820116820180604052508101906113779190613ad8565b5160ff1603610ba65780600901547f1814753a06b465e9bcfcecac84fe4a96f85b9951c514e1429ed058d0f885483a856000846004016040516113bc93929190613f68565b60405180910390a26113cd84612d9b565b6001915050610b14565b6040805180820190915260008082526020820152826000036114295760405180604001604052806001846000015161140f91906139ff565b60ff168152602001836020015160ff16815250905061060f565b8260010361144d5760405180604001604052808360000151600161140f9190613f93565b8260020361148a576040518060400160405280836000015160ff1681526020018360200151600161147e9190613f93565b60ff169052905061060f565b826003036114bb576040518060400160405280836000015160ff1681526020016001846020015161147e91906139ff565b60006114c684612f5a565b6040516020016114d69190613fd0565b60405160208183030381529060405290508060405162461bcd60e51b81526004016105dc9190614037565b600a546001600160a01b0316331461156c5760405162461bcd60e51b815260206004820152602860248201527f4e6f7420616374696f6e7320636f6e7472616374202d206772616e74446174616044820152672a37a83630bcb2b960c11b60648201526084016105dc565b80600d8381548110611580576115806139d3565b90600052602060002090600a020160060160038282829054906101000a900460ff1661096b9190613f93565b60018054600091826115bd83613bad565b91905055506000336001546001436115d59190613a18565b60405160609390931b6bffffffffffffffffffffffff19166020840152603483019190915240605482015260740160408051601f1981840301815291905280516020909101209050600061162985856139ff565b611634906001613f93565b90508460ff168160ff16836116499190614060565b6116539190613a5c565b95945050505050565b6007546001600160a01b0316331461167357600080fd5b600d8181548110611686576116866139d3565b60009182526020909120600a90910201600601805462010000900460ff169060026116b083614074565b91906101000a81548160ff021916908360ff1602179055505050565b6116d4612cf1565b600380546001600160a01b03199081166001600160a01b039b8c1617909155600480548216988b1698909817909755600880548816968a1696909617909555600a805487169489169490941790935560058054861692881692909217909155600680548516918716919091179055600780548416918616919091179055600b805490921693169290921790915550565b6007546001600160a01b0316331461178e5760405162461bcd60e51b81526004016105dc90613a96565b60005b82518110156105f05781600d8483815181106117af576117af6139d3565b6020026020010151815481106117c7576117c76139d3565b600091825260209091206009600a909202010155806117e581613bad565b915050611791565b600a546001600160a01b031633146118555760405162461bcd60e51b815260206004820152602560248201527f4e6f7420616374696f6e7320636f6e7472616374202d206578744170706c794560448201526419999958dd60da1b60648201526084016105dc565b600580546040516336772a9360e21b81526000926001600160a01b039092169163d9dcaa4c9161188a91908790600401613d82565b600060405180830381865afa1580156118a7573d6000803e3d6000fd5b505050506040513d6000823e601f3d908101601f191682016040526118cf9190810190613d9d565b82815181106118e0576118e06139d3565b602002602001015190506118f78787878785611e2d565b50505050505050565b611908612cf1565b6001600160a01b03811661196d5760405162461bcd60e51b815260206004820152602660248201527f4f776e61626c653a206e6577206f776e657220697320746865207a65726f206160448201526564647265737360d01b60648201526084016105dc565b61197681612d4b565b50565b600d818154811061198957600080fd5b60009182526020808320600a9092029091018054600182015460028301546040805161010081810183526003870154808a0b83528181048a0b838a0152620100008082048b0b8486015263010000008083048c0b606086015264010000000083048c0b60808601526501000000000083048c0b60a0860152600160301b83048c0b60c086015260ff600160381b9093048316151560e08601528551808701875260048b015480851682528590048416818d0152865180880190975260058b0154808516885285900484169b87019b909b5260068a015460088b01546009909b01546001600160a01b03909a169d50979b969a9499949895979687900b9684810484169692810484169591900483169381841693910416908d565b600354604051634810bc5960e01b8152600481018490526000916001600160a01b031690634810bc599060240161022060405180830381865afa158015611aee573d6000803e3d6000fd5b505050506040513d601f19601f82011682018060405250810190611b12919061416d565b606001516006546040516347ef26b160e01b8152600481018590529192506000916001600160a01b03909116906347ef26b19060240161010060405180830381865afa158015611b66573d6000803e3d6000fd5b505050506040513d601f19601f82011682018060405250810190611b8a9190614221565b90506000600d8481548110611ba157611ba16139d3565b90600052602060002090600a0201905081600001518360000151611bc5919061423e565b60038201805460ff191660ff9290921691909117905560208281015190840151611bef919061423e565b60038201805460ff929092166101000261ff001990921691909117905560408083015190840151611c20919061423e565b60038201805460ff92909216620100000262ff00001990921691909117905560608083015190840151611c53919061423e565b60038201805460ff9290921663010000000263ff0000001990921691909117905560808083015190840151611c88919061423e565b60038201805460ff929092166401000000000264ff000000001990921691909117905560a08083015190840151611cbf919061423e565b60038201805460ff92909216650100000000000265ff00000000001990921691909117905560c08083015190840151611cf8919061423e565b6003909101805460ff92909216600160301b0266ff0000000000001990921691909117905550505050565b80600d8381548110611d3757611d376139d3565b6000918252602082206008600a9092020101805490919061096b90849060ff16613f93565b6000600d8481548110611d7157611d716139d3565b6000918252602082206006600a90920201908101805491935085929091611d9b908490830b61423e565b825460ff9182166101009390930a92830291909202199091161790555060038101546006820154600091820b910b12611e1a5780600901547f1814753a06b465e9bcfcecac84fe4a96f85b9951c514e1429ed058d0f885483a858584600401604051611e0993929190613f68565b60405180910390a2611e1a84612d9b565b50505050565b60606000610b1483613062565b60005b8151811015612cdd57611e716040518060400160405280601681526020017520b838363cb4b7339032b33332b1ba10373ab6b132b960511b815250826130be565b6000600d8781548110611e8657611e866139d3565b60009182526020909120600a9091020190506001838381518110611eac57611eac6139d3565b6020026020010151600001516016811115611ec957611ec9613bc6565b50506002838381518110611edf57611edf6139d3565b6020026020010151600001516016811115611efc57611efc613bc6565b03611f4257828281518110611f1357611f136139d3565b6020026020010151602001516000611f2b919061425f565b60068201805460ff191660ff929092169190911790555b6003838381518110611f5657611f566139d3565b6020026020010151600001516016811115611f7357611f73613bc6565b03611fc55780600901547f1814753a06b465e9bcfcecac84fe4a96f85b9951c514e1429ed058d0f885483a88600084600401604051611fb493929190613f68565b60405180910390a2611fc587612d9b565b6004838381518110611fd957611fd96139d3565b6020026020010151600001516016811115611ff657611ff6613bc6565b03612076576004805485516020870151604051637f1b46bd60e11b815293840189905260ff9182166024850152166044830152600160648301526001600160a01b03169063fe368d7a90608401600060405180830381600087803b15801561205d57600080fd5b505af1158015612071573d6000803e3d6000fd5b505050505b600583838151811061208a5761208a6139d3565b60200260200101516000015160168111156120a7576120a7613bc6565b505060068383815181106120bd576120bd6139d3565b60200260200101516000015160168111156120da576120da613bc6565b0361214f578282815181106120f1576120f16139d3565b6020908102919091018101510151600682018054600090612115908490830b61425f565b825460ff9182166101009390930a9283029190920219909116179055506006810154600090810b121561214f5760068101805460ff191690555b6007838381518110612163576121636139d3565b602002602001015160000151601681111561218057612180613bc6565b50506008838381518110612196576121966139d3565b60200260200101516000015160168111156121b3576121b3613bc6565b036121e1576121e1878484815181106121ce576121ce6139d3565b6020026020010151602001516001611d5c565b60098383815181106121f5576121f56139d3565b602002602001015160000151601681111561221257612212613bc6565b03612240576122408784848151811061222d5761222d6139d3565b6020026020010151602001516000611d5c565b600a838381518110612254576122546139d3565b602002602001015160000151601681111561227157612271613bc6565b0361261757600083838151811061228a5761228a6139d3565b6020026020010151602001519050600b60168111156122ab576122ab613bc6565b846122b7856001613a5c565b815181106122c7576122c76139d3565b60200260200101516000015160168111156122e4576122e4613bc6565b146122f1576122f1614280565b600084600181518110612306576123066139d3565b602002602001015160200151600881111561232357612323613bc6565b9050600c85612333866002613a5c565b81518110612343576123436139d3565b602002602001015160000151601681111561236057612360613bc6565b1461236d5761236d614280565b600085600281518110612382576123826139d3565b602002602001015160200151600381111561239f5761239f613bc6565b60048054895160208b01516040516315636a4d60e01b81529384018d905260ff91821660248501521660448301529192506000916001600160a01b0316906315636a4d90606401608060405180830381865afa158015612403573d6000803e3d6000fd5b505050506040513d601f19601f820116820180604052508101906124279190614296565b9050600382600381111561243d5761243d613bc6565b0361253b5760005b600481101561253057818160048110612460576124606139d3565b6020020151151560010361251e5760005b8581101561251c576000612485838c6113d7565b9050600760009054906101000a90046001600160a01b03166001600160a01b0316631cef40f68e88846000015185602001516040518563ffffffff1660e01b81526004016124d694939291906142ff565b600060405180830381600087803b1580156124f057600080fd5b505af1158015612504573d6000803e3d6000fd5b5050505050808061251490613bad565b915050612471565b505b8061252881613bad565b915050612445565b505050505050612cdd565b60005b84811015612530576007546001600160a01b0316631cef40f68c86600187600381111561256d5761256d613bc6565b1461257f5760058a015460ff16612582565b8c515b600188600381111561259657612596613bc6565b146125ad5760058b0154610100900460ff166125b3565b8d602001515b6040518563ffffffff1660e01b81526004016125d294939291906142ff565b600060405180830381600087803b1580156125ec57600080fd5b505af1158015612600573d6000803e3d6000fd5b50505050808061260f90613bad565b91505061253e565b600d83838151811061262b5761262b6139d3565b602002602001015160000151601681111561264857612648613bc6565b036126745761267487848481518110612663576126636139d3565b602002602001015160200151611501565b600e838381518110612688576126886139d3565b60200260200101516000015160168111156126a5576126a5613bc6565b5050600f8383815181106126bb576126bb6139d3565b60200260200101516000015160168111156126d8576126d8613bc6565b036128fc5760008383815181106126f1576126f16139d3565b6020908102919091018101510151600654604051633841fae160e01b8152600481018b90529192506000916001600160a01b0390911690633841fae190602401600060405180830381865afa15801561274e573d6000803e3d6000fd5b505050506040513d6000823e601f3d908101601f191682016040526127769190810190614335565b8051909150156128f9576000600182516127909190613a18565b90505b801561282f5760006127a66000836115ac565b9050828160ff16815181106127bd576127bd6139d3565b60200260200101518383815181106127d7576127d76139d3565b60200260200101518484815181106127f1576127f16139d3565b60200260200101858460ff168151811061280d5761280d6139d3565b6020908102919091010191909152525080612827816143c5565b915050612793565b5060005b81518510156128f75760065482516001600160a01b0390911690635f09c782908c90859085908110612867576128676139d3565b60200260200101516040518363ffffffff1660e01b8152600401612895929190918252602082015260400190565b600060405180830381600087803b1580156128af57600080fd5b505af11580156128c3573d6000803e3d6000fd5b505050506128d28a6001610932565b826128dc816143c5565b93505082156128f757806128ef81613bad565b915050612833565b505b50505b6011838381518110612910576129106139d3565b602002602001015160000151601681111561292d5761292d613bc6565b03612a48576005838381518110612946576129466139d3565b60200260200101516020015103612a485760048054604051632fc4a8f360e11b815291820187905260009182916001600160a01b031690635f8951e6906024016040805180830381865afa1580156129a2573d6000803e3d6000fd5b505050506040513d601f19601f820116820180604052508101906129c691906143dc565b60075460408051808201825260ff8086168252841660208201529051631751422560e01b81529395509193506001600160a01b031691631751422591612a13918c91908e90600401614400565b600060405180830381600087803b158015612a2d57600080fd5b505af1158015612a41573d6000803e3d6000fd5b5050505050505b6012838381518110612a5c57612a5c6139d3565b6020026020010151600001516016811115612a7957612a79613bc6565b50506013838381518110612a8f57612a8f6139d3565b6020026020010151600001516016811115612aac57612aac613bc6565b50506015838381518110612ac257612ac26139d3565b6020026020010151600001516016811115612adf57612adf613bc6565b03612c975760005b6004811015612c95576004805486516020880151604051630dd43b9b60e31b81529384018a905260ff9182166024850152166044830152606482018390526000916001600160a01b0390911690636ea1dcd890608401606060405180830381865afa158015612b5a573d6000803e3d6000fd5b505050506040513d601f19601f82011682018060405250810190612b7e9190614432565b9050600181604001516004811115612b9857612b98613bc6565b1480612bb95750600281604001516004811115612bb757612bb7613bc6565b145b80612bd95750600381604001516004811115612bd757612bd7613bc6565b145b15612c8257600460009054906101000a90046001600160a01b03166001600160a01b0316635921522388886000015189602001518660018b8b81518110612c2257612c226139d3565b6020026020010151602001516040518763ffffffff1660e01b8152600401612c4f969594939291906144a7565b600060405180830381600087803b158015612c6957600080fd5b505af1158015612c7d573d6000803e3d6000fd5b505050505b5080612c8d81613bad565b915050612ae7565b505b6014838381518110612cab57612cab6139d3565b6020026020010151600001516016811115612cc857612cc8613bc6565b50505080612cd581613bad565b915050611e30565b505050505050565b6000610b148383613107565b6000546001600160a01b031633146112015760405162461bcd60e51b815260206004820181905260248201527f4f776e61626c653a2063616c6c6572206973206e6f7420746865206f776e657260448201526064016105dc565b600080546001600160a01b038381166001600160a01b0319831681178455604051919092169283917f8be0079c531659141344cd1fd0a4f28419497f9722a3daafe3b4186f6b6457e09190a35050565b6000600d8281548110612db057612db06139d3565b60009182526020909120600654600a90920201600981015460048083015460405163268f1d4d60e01b8152918201929092526024810186905260ff808316604483015261010090920490911660648201529092506001600160a01b039091169063268f1d4d90608401600060405180830381600087803b158015612e3357600080fd5b505af1158015612e47573d6000803e3d6000fd5b50505060068201805460ff199081169091556008830180549091169055506001810154612e749083611aa3565b600354600d80546001600160a01b0390921691636d6ba756919085908110612e9e57612e9e6139d3565b90600052602060002090600a0201600101546040518263ffffffff1660e01b8152600401612ece91815260200190565b600060405180830381600087803b158015612ee857600080fd5b505af1158015612efc573d6000803e3d6000fd5b50505050600c600d8381548110612f1557612f156139d3565b600091825260209091208254600a90920201600401805460ff92831660ff19821681178355935461ffff19909116909317610100938490049092169092021790555050565b606081600003612f815750506040805180820190915260018152600360fc1b602082015290565b8160005b8115612fab5780612f9581613bad565b9150612fa49050600a836144ea565b9150612f85565b6000816001600160401b03811115612fc557612fc5613410565b6040519080825280601f01601f191660200182016040528015612fef576020820181803683370190505b5090505b841561305a57613004600183613a18565b9150613011600a86614060565b61301c906030613a5c565b60f81b818381518110613031576130316139d3565b60200101906001600160f81b031916908160001a905350613053600a866144ea565b9450612ff3565b949350505050565b6060816000018054806020026020016040519081016040528092919081815260200182805480156130b257602002820191906000526020600020905b81548152602001906001019080831161309e575b50505050509050919050565b61310382826040516024016130d49291906144fe565b60408051601f198184030181529190526020810180516001600160e01b0316632d839cb360e21b179052613156565b5050565b600081815260018301602052604081205461314e5750815460018181018455600084815260208082209093018490558454848252828601909352604090209190915561060f565b50600061060f565b80516a636f6e736f6c652e6c6f67602083016000808483855afa5050505050565b801515811461197657600080fd5b60008060006060848603121561319a57600080fd5b833592506020840135915060408401356131b381613177565b809150509250925092565b6000602082840312156131d057600080fd5b5035919050565b600081518084526020808501945080840160005b83811015613207578151875295820195908201906001016131eb565b509495945050505050565b602081526000610b1460208301846131d7565b8051600081810b84526020830151810b60208501526040830151810b60408501526060830151810b60608501526080830151810b608085015260a0830151810b60a085015260c0830151810b60c0850152505060e0810151151560e08301525050565b600081518084526020808501945080840160005b8381101561320757815160ff168752958201959082019060010161329c565b602081526132d56020820183516001600160a01b03169052565b6020820151604082015260408201516060820152600060608301516132fd6080840182613225565b50608083015161018061332281850183805160ff908116835260209182015116910152565b60a0850151805160ff9081166101c087015260209091015181166101e086015260c086015160000b61020086015260e086015181166102208601526101008601518116610240860152610120860151166102608501526101408501516102e0610280860181905290925061339a610300860184613288565b92506101608601516133b26102a087018260ff169052565b509085015115156102c08501526101a09094015192909301919091525090565b600080604083850312156133e557600080fd5b50508035926020909101359150565b80356001600160a01b038116811461340b57600080fd5b919050565b634e487b7160e01b600052604160045260246000fd5b604080519081016001600160401b038111828210171561344857613448613410565b60405290565b60405160e081016001600160401b038111828210171561344857613448613410565b60405161014081016001600160401b038111828210171561344857613448613410565b604051608081016001600160401b038111828210171561344857613448613410565b604051601f8201601f191681016001600160401b03811182821017156134dd576134dd613410565b604052919050565b60006001600160401b038211156134fe576134fe613410565b5060051b60200190565b600082601f83011261351957600080fd5b8135602061352e613529836134e5565b6134b5565b82815260059290921b8401810191818101908684111561354d57600080fd5b8286015b848110156135685780358352918301918301613551565b509695505050505050565b60008060006060848603121561358857600080fd5b83359250613598602085016133f4565b915060408401356001600160401b038111156135b357600080fd5b6135bf86828701613508565b9150509250925092565b6000806000606084860312156135de57600080fd5b505081359360208301359350604090920135919050565b6000806040838503121561360857600080fd5b8235915060208301356001600160401b0381111561362557600080fd5b61363185828601613508565b9150509250929050565b60ff8116811461197657600080fd5b60006040828403121561365c57600080fd5b613664613426565b905081356136718161363b565b815260208201356136818161363b565b602082015292915050565b6000806000806000806000610100888a0312156136a857600080fd5b873596506020880135955060408801359450606088013593506136ce8960808a0161364a565b925060c0880135915060e0880135600681106136e957600080fd5b8091505092959891949750929550565b60008060006080848603121561370e57600080fd5b613718858561364a565b95604085013595506060909401359392505050565b6000806060838503121561374057600080fd5b82359150613751846020850161364a565b90509250929050565b6040810161060f8284805160ff908116835260209182015116910152565b6000806040838503121561378b57600080fd5b82359150602083013561379d8161363b565b809150509250929050565b600080604083850312156137bb57600080fd5b82356137c68161363b565b9150602083013561379d8161363b565b60008060008060008060008060006101208a8c0312156137f557600080fd5b6137fe8a6133f4565b985061380c60208b016133f4565b975061381a60408b016133f4565b965061382860608b016133f4565b955061383660808b016133f4565b945061384460a08b016133f4565b935061385260c08b016133f4565b925061386060e08b016133f4565b915061386f6101008b016133f4565b90509295985092959850929598565b6000806040838503121561389157600080fd5b82356001600160401b038111156138a757600080fd5b6138b385828601613508565b95602094909401359450505050565b60008060008060008060e087890312156138db57600080fd5b8635955060208701359450604087013593506138fa886060890161364a565b925060a0870135915060c087013590509295509295509295565b60006020828403121561392657600080fd5b610b14826133f4565b6001600160a01b038e168152602081018d9052604081018c90526102c0810161395b606083018d613225565b8a5160ff90811661016084015260209b8c015181166101808401528a5181166101a084015299909a015189166101c082015260009790970b6101e08801529487166102008701529286166102208601529085166102408501529093166102608301529115156102808201526102a00152949350505050565b634e487b7160e01b600052603260045260246000fd5b634e487b7160e01b600052601160045260246000fd5b60ff828116828216039081111561060f5761060f6139e9565b8181038181111561060f5761060f6139e9565b838152606060208201526000613a4460608301856131d7565b905060018060a01b0383166040830152949350505050565b8082018082111561060f5761060f6139e9565b8181036000831280158383131683831282161715613a8f57613a8f6139e9565b5092915050565b602080825260129082015271139bdd0819d85b595cc818dbdb9d1c9858dd60721b604082015260600190565b805161340b8161363b565b805161340b81613177565b60006101408284031215613aeb57600080fd5b613af361344e565b8251613afe8161363b565b8152602083810151613b0f8161363b565b82820152605f84018513613b2257600080fd5b613b2a613493565b8060c0860187811115613b3c57600080fd5b604087015b81811015613b585780518452928401928401613b41565b50816040860152613b6881613acd565b606086015250505050613b7d60e08401613acd565b6080820152613b8f6101008401613acd565b60a0820152613ba16101208401613acd565b60c08201529392505050565b600060018201613bbf57613bbf6139e9565b5060010190565b634e487b7160e01b600052602160045260246000fd5b600082601f830112613bed57600080fd5b81516020613bfd613529836134e5565b82815260069290921b84018101918181019086841115613c1c57600080fd5b8286015b848110156135685760408189031215613c395760008081fd5b613c41613426565b815160178110613c515760008081fd5b81528185015185820152835291830191604001613c20565b600060208284031215613c7b57600080fd5b81516001600160401b0380821115613c9257600080fd5b9083019060e08286031215613ca657600080fd5b613cae61344e565b82518152613cbe60208401613acd565b6020820152613ccf60408401613ac2565b6040820152613ce060608401613ac2565b6060820152608083015182811115613cf757600080fd5b613d0387828601613bdc565b60808301525060a083015182811115613d1b57600080fd5b613d2787828601613bdc565b60a08301525060c083015182811115613d3f57600080fd5b613d4b87828601613bdc565b60c08301525095945050505050565b60068110613d6a57613d6a613bc6565b9052565b82815260408101610b146020830184613d5a565b60408101613d908285613d5a565b8260208301529392505050565b60006020808385031215613db057600080fd5b82516001600160401b0380821115613dc757600080fd5b818501915085601f830112613ddb57600080fd5b8151613de9613529826134e5565b81815260059190911b83018401908481019088831115613e0857600080fd5b8585015b83811015613e4057805185811115613e245760008081fd5b613e328b89838a0101613bdc565b845250918601918601613e0c565b5098975050505050505050565b600081518084526020808501945080840160005b83811015613207578151805160178110613e7d57613e7d613bc6565b88528301518388015260409096019590820190600101613e61565b84815260a06020820152835160a08201526020840151151560c082015260ff60408501511660e082015260006060850151613ed961010084018260ff169052565b50608085015160e0610120840152613ef5610180840182613e4d565b905060a0860151609f198085840301610140860152613f148383613e4d565b925060c08801519150808584030161016086015250613f338282613e4d565b9150508281036040840152613f488186613e4d565b845160ff9081166060860152602086015116608085015291506116539050565b83815260208101839052815460ff808216604084015260089190911c1660608201526080810161305a565b60ff818116838216019081111561060f5761060f6139e9565b60005b83811015613fc7578181015183820152602001613faf565b50506000910152565b72024b73b30b634b2103234b932b1ba34b7b71d1606d1b815260008251613ffe816013850160208701613fac565b9190910160130192915050565b60008151808452614023816020860160208601613fac565b601f01601f19169290920160200192915050565b602081526000610b14602083018461400b565b634e487b7160e01b600052601260045260246000fd5b60008261406f5761406f61404a565b500690565b600060ff821660ff810361408a5761408a6139e9565b60010192915050565b8051600081900b811461340b57600080fd5b60006101008083850312156140b957600080fd5b604051908101906001600160401b03821181831017156140db576140db613410565b816040528092506140eb84614093565b81526140f960208501614093565b602082015261410a60408501614093565b604082015261411b60608501614093565b606082015261412c60808501614093565b608082015261413d60a08501614093565b60a082015261414e60c08501614093565b60c082015260e0840151915061416382613177565b60e0015292915050565b6000610220828403121561418057600080fd5b614188613470565b8251815260208301516020820152604083015160408201526141ad84606085016140a5565b60608201526141bf6101608401613ac2565b60808201526141d16101808401613ac2565b60a08201526141e36101a08401613ac2565b60c08201526141f56101c08401613ac2565b60e08201526142076101e08401613acd565b610100820152610200929092015161012083015250919050565b6000610100828403121561423457600080fd5b610b1483836140a5565b600081810b9083900b01607f8113607f198212171561060f5761060f6139e9565b600082810b9082900b03607f198112607f8213171561060f5761060f6139e9565b634e487b7160e01b600052600160045260246000fd5b6000608082840312156142a857600080fd5b82601f8301126142b757600080fd5b6142bf613493565b8060808401858111156142d157600080fd5b845b818110156142f45780516142e681613177565b8452602093840193016142d3565b509095945050505050565b848152608081016009851061431657614316613bc6565b602082019490945260ff92831660408201529116606090910152919050565b6000602080838503121561434857600080fd5b82516001600160401b0381111561435e57600080fd5b8301601f8101851361436f57600080fd5b805161437d613529826134e5565b81815260059190911b8201830190838101908783111561439c57600080fd5b928401925b828410156143ba578351825292840192908401906143a1565b979650505050505050565b6000816143d4576143d46139e9565b506000190190565b600080604083850312156143ef57600080fd5b505080516020909101519092909150565b838152608081016144246020830185805160ff908116835260209182015116910152565b826060830152949350505050565b60006060828403121561444457600080fd5b604051606081018181106001600160401b038211171561446657614466613410565b60405282516144748161363b565b815260208301516144848161363b565b602082015260408301516005811061449b57600080fd5b60408201529392505050565b86815260ff8681166020830152851660408201526060810184905260c08101600584106144d6576144d6613bc6565b608082019390935260a00152949350505050565b6000826144f9576144f961404a565b500490565b604081526000614511604083018561400b565b9050826020830152939250505056fe0d8334653668b057f97ab0194d84efdd8d4b95b9fc457e80f4b710081afb1ff6a2646970667358221220ce0ba2b1bc4a7348453c908820a15d6729646a0f5bec080bfb04f7cba8f8e34064736f6c63430008110033",
  "devdoc": {
    "kind": "dev",
    "methods": {
      "owner()": {
        "details": "Returns the address of the current owner."
      },
      "renounceOwnership()": {
        "details": "Leaves the contract without owner. It will not be possible to call `onlyOwner` functions anymore. Can only be called by the current owner. NOTE: Renouncing ownership will leave the contract without an owner, thereby removing any functionality that is only available to the owner."
      },
      "transferOwnership(address)": {
        "details": "Transfers ownership of the contract to a new account (`newOwner`). Can only be called by the current owner."
      }
    },
    "version": 1
  },
  "userdoc": {
    "kind": "user",
    "methods": {},
    "version": 1
  },
  "storageLayout": {
    "storage": [
      {
        "astId": 7,
        "contract": "contracts/BCPlayers.sol:BCPlayers",
        "label": "_owner",
        "offset": 0,
        "slot": "0",
        "type": "t_address"
      },
      {
        "astId": 21289,
        "contract": "contracts/BCPlayers.sol:BCPlayers",
        "label": "TODO_randomSeed",
        "offset": 0,
        "slot": "1",
        "type": "t_uint256"
      },
      {
        "astId": 21294,
        "contract": "contracts/BCPlayers.sol:BCPlayers",
        "label": "gameToEventBlocks",
        "offset": 0,
        "slot": "2",
        "type": "t_mapping(t_uint256,t_struct(UintSet)2262_storage)"
      },
      {
        "astId": 19060,
        "contract": "contracts/BCPlayers.sol:BCPlayers",
        "label": "chars",
        "offset": 0,
        "slot": "3",
        "type": "t_contract(CharInterface)18848"
      },
      {
        "astId": 19063,
        "contract": "contracts/BCPlayers.sol:BCPlayers",
        "label": "maps",
        "offset": 0,
        "slot": "4",
        "type": "t_contract(MapInterface)18981"
      },
      {
        "astId": 19066,
        "contract": "contracts/BCPlayers.sol:BCPlayers",
        "label": "bcEvents",
        "offset": 0,
        "slot": "5",
        "type": "t_contract(EventsInterface)18826"
      },
      {
        "astId": 19069,
        "contract": "contracts/BCPlayers.sol:BCPlayers",
        "label": "items",
        "offset": 0,
        "slot": "6",
        "type": "t_contract(ItemsInterface)19026"
      },
      {
        "astId": 19072,
        "contract": "contracts/BCPlayers.sol:BCPlayers",
        "label": "games",
        "offset": 0,
        "slot": "7",
        "type": "t_contract(GamesInterface)19049"
      },
      {
        "astId": 19074,
        "contract": "contracts/BCPlayers.sol:BCPlayers",
        "label": "lobbiesAddress",
        "offset": 0,
        "slot": "8",
        "type": "t_address"
      },
      {
        "astId": 19076,
        "contract": "contracts/BCPlayers.sol:BCPlayers",
        "label": "charsAddress",
        "offset": 0,
        "slot": "9",
        "type": "t_address"
      },
      {
        "astId": 19078,
        "contract": "contracts/BCPlayers.sol:BCPlayers",
        "label": "actionsAddress",
        "offset": 0,
        "slot": "10",
        "type": "t_address"
      },
      {
        "astId": 19080,
        "contract": "contracts/BCPlayers.sol:BCPlayers",
        "label": "denizensAddress",
        "offset": 0,
        "slot": "11",
        "type": "t_address"
      },
      {
        "astId": 19160,
        "contract": "contracts/BCPlayers.sol:BCPlayers",
        "label": "StartLocation",
        "offset": 0,
        "slot": "12",
        "type": "t_struct(Position)21061_storage"
      },
      {
        "astId": 19164,
        "contract": "contracts/BCPlayers.sol:BCPlayers",
        "label": "players",
        "offset": 0,
        "slot": "13",
        "type": "t_array(t_struct(Player)21032_storage)dyn_storage"
      }
    ],
    "types": {
      "t_address": {
        "encoding": "inplace",
        "label": "address",
        "numberOfBytes": "20"
      },
      "t_array(t_bytes32)dyn_storage": {
        "base": "t_bytes32",
        "encoding": "dynamic_array",
        "label": "bytes32[]",
        "numberOfBytes": "32"
      },
      "t_array(t_struct(Player)21032_storage)dyn_storage": {
        "base": "t_struct(Player)21032_storage",
        "encoding": "dynamic_array",
        "label": "struct BCTypes.Player[]",
        "numberOfBytes": "32"
      },
      "t_array(t_uint8)dyn_storage": {
        "base": "t_uint8",
        "encoding": "dynamic_array",
        "label": "uint8[]",
        "numberOfBytes": "32"
      },
      "t_bool": {
        "encoding": "inplace",
        "label": "bool",
        "numberOfBytes": "1"
      },
      "t_bytes32": {
        "encoding": "inplace",
        "label": "bytes32",
        "numberOfBytes": "32"
      },
      "t_contract(CharInterface)18848": {
        "encoding": "inplace",
        "label": "contract CharInterface",
        "numberOfBytes": "20"
      },
      "t_contract(EventsInterface)18826": {
        "encoding": "inplace",
        "label": "contract EventsInterface",
        "numberOfBytes": "20"
      },
      "t_contract(GamesInterface)19049": {
        "encoding": "inplace",
        "label": "contract GamesInterface",
        "numberOfBytes": "20"
      },
      "t_contract(ItemsInterface)19026": {
        "encoding": "inplace",
        "label": "contract ItemsInterface",
        "numberOfBytes": "20"
      },
      "t_contract(MapInterface)18981": {
        "encoding": "inplace",
        "label": "contract MapInterface",
        "numberOfBytes": "20"
      },
      "t_int8": {
        "encoding": "inplace",
        "label": "int8",
        "numberOfBytes": "1"
      },
      "t_mapping(t_bytes32,t_uint256)": {
        "encoding": "mapping",
        "key": "t_bytes32",
        "label": "mapping(bytes32 => uint256)",
        "numberOfBytes": "32",
        "value": "t_uint256"
      },
      "t_mapping(t_uint256,t_struct(UintSet)2262_storage)": {
        "encoding": "mapping",
        "key": "t_uint256",
        "label": "mapping(uint256 => struct EnumerableSet.UintSet)",
        "numberOfBytes": "32",
        "value": "t_struct(UintSet)2262_storage"
      },
      "t_struct(Player)21032_storage": {
        "encoding": "inplace",
        "label": "struct BCTypes.Player",
        "members": [
          {
            "astId": 21001,
            "contract": "contracts/BCPlayers.sol:BCPlayers",
            "label": "owner",
            "offset": 0,
            "slot": "0",
            "type": "t_address"
          },
          {
            "astId": 21003,
            "contract": "contracts/BCPlayers.sol:BCPlayers",
            "label": "characterId",
            "offset": 0,
            "slot": "1",
            "type": "t_uint256"
          },
          {
            "astId": 21005,
            "contract": "contracts/BCPlayers.sol:BCPlayers",
            "label": "id",
            "offset": 0,
            "slot": "2",
            "type": "t_uint256"
          },
          {
            "astId": 21008,
            "contract": "contracts/BCPlayers.sol:BCPlayers",
            "label": "currentTraits",
            "offset": 0,
            "slot": "3",
            "type": "t_struct(Traits)21201_storage"
          },
          {
            "astId": 21011,
            "contract": "contracts/BCPlayers.sol:BCPlayers",
            "label": "position",
            "offset": 0,
            "slot": "4",
            "type": "t_struct(Position)21061_storage"
          },
          {
            "astId": 21014,
            "contract": "contracts/BCPlayers.sol:BCPlayers",
            "label": "lastPos",
            "offset": 0,
            "slot": "5",
            "type": "t_struct(Position)21061_storage"
          },
          {
            "astId": 21016,
            "contract": "contracts/BCPlayers.sol:BCPlayers",
            "label": "healthDmgTaken",
            "offset": 0,
            "slot": "6",
            "type": "t_int8"
          },
          {
            "astId": 21018,
            "contract": "contracts/BCPlayers.sol:BCPlayers",
            "label": "armorDmgTaken",
            "offset": 1,
            "slot": "6",
            "type": "t_uint8"
          },
          {
            "astId": 21020,
            "contract": "contracts/BCPlayers.sol:BCPlayers",
            "label": "actionsTaken",
            "offset": 2,
            "slot": "6",
            "type": "t_uint8"
          },
          {
            "astId": 21022,
            "contract": "contracts/BCPlayers.sol:BCPlayers",
            "label": "dataTokens",
            "offset": 3,
            "slot": "6",
            "type": "t_uint8"
          },
          {
            "astId": 21025,
            "contract": "contracts/BCPlayers.sol:BCPlayers",
            "label": "currentEffects",
            "offset": 0,
            "slot": "7",
            "type": "t_array(t_uint8)dyn_storage"
          },
          {
            "astId": 21027,
            "contract": "contracts/BCPlayers.sol:BCPlayers",
            "label": "numItemsHeld",
            "offset": 0,
            "slot": "8",
            "type": "t_uint8"
          },
          {
            "astId": 21029,
            "contract": "contracts/BCPlayers.sol:BCPlayers",
            "label": "dead",
            "offset": 1,
            "slot": "8",
            "type": "t_bool"
          },
          {
            "astId": 21031,
            "contract": "contracts/BCPlayers.sol:BCPlayers",
            "label": "gameId",
            "offset": 0,
            "slot": "9",
            "type": "t_uint256"
          }
        ],
        "numberOfBytes": "320"
      },
      "t_struct(Position)21061_storage": {
        "encoding": "inplace",
        "label": "struct BCTypes.Position",
        "members": [
          {
            "astId": 21058,
            "contract": "contracts/BCPlayers.sol:BCPlayers",
            "label": "row",
            "offset": 0,
            "slot": "0",
            "type": "t_uint8"
          },
          {
            "astId": 21060,
            "contract": "contracts/BCPlayers.sol:BCPlayers",
            "label": "col",
            "offset": 1,
            "slot": "0",
            "type": "t_uint8"
          }
        ],
        "numberOfBytes": "32"
      },
      "t_struct(Set)1804_storage": {
        "encoding": "inplace",
        "label": "struct EnumerableSet.Set",
        "members": [
          {
            "astId": 1799,
            "contract": "contracts/BCPlayers.sol:BCPlayers",
            "label": "_values",
            "offset": 0,
            "slot": "0",
            "type": "t_array(t_bytes32)dyn_storage"
          },
          {
            "astId": 1803,
            "contract": "contracts/BCPlayers.sol:BCPlayers",
            "label": "_indexes",
            "offset": 0,
            "slot": "1",
            "type": "t_mapping(t_bytes32,t_uint256)"
          }
        ],
        "numberOfBytes": "64"
      },
      "t_struct(Traits)21201_storage": {
        "encoding": "inplace",
        "label": "struct BCTypes.Traits",
        "members": [
          {
            "astId": 21186,
            "contract": "contracts/BCPlayers.sol:BCPlayers",
            "label": "health",
            "offset": 0,
            "slot": "0",
            "type": "t_int8"
          },
          {
            "astId": 21188,
            "contract": "contracts/BCPlayers.sol:BCPlayers",
            "label": "carry",
            "offset": 1,
            "slot": "0",
            "type": "t_int8"
          },
          {
            "astId": 21190,
            "contract": "contracts/BCPlayers.sol:BCPlayers",
            "label": "defense",
            "offset": 2,
            "slot": "0",
            "type": "t_int8"
          },
          {
            "astId": 21192,
            "contract": "contracts/BCPlayers.sol:BCPlayers",
            "label": "hack",
            "offset": 3,
            "slot": "0",
            "type": "t_int8"
          },
          {
            "astId": 21194,
            "contract": "contracts/BCPlayers.sol:BCPlayers",
            "label": "breach",
            "offset": 4,
            "slot": "0",
            "type": "t_int8"
          },
          {
            "astId": 21196,
            "contract": "contracts/BCPlayers.sol:BCPlayers",
            "label": "shoot",
            "offset": 5,
            "slot": "0",
            "type": "t_int8"
          },
          {
            "astId": 21198,
            "contract": "contracts/BCPlayers.sol:BCPlayers",
            "label": "melee",
            "offset": 6,
            "slot": "0",
            "type": "t_int8"
          },
          {
            "astId": 21200,
            "contract": "contracts/BCPlayers.sol:BCPlayers",
            "label": "hasGun",
            "offset": 7,
            "slot": "0",
            "type": "t_bool"
          }
        ],
        "numberOfBytes": "32"
      },
      "t_struct(UintSet)2262_storage": {
        "encoding": "inplace",
        "label": "struct EnumerableSet.UintSet",
        "members": [
          {
            "astId": 2261,
            "contract": "contracts/BCPlayers.sol:BCPlayers",
            "label": "_inner",
            "offset": 0,
            "slot": "0",
            "type": "t_struct(Set)1804_storage"
          }
        ],
        "numberOfBytes": "64"
      },
      "t_uint256": {
        "encoding": "inplace",
        "label": "uint256",
        "numberOfBytes": "32"
      },
      "t_uint8": {
        "encoding": "inplace",
        "label": "uint8",
        "numberOfBytes": "1"
      }
    }
  }
}