{
  "address": "0xd602382D8Bbf86664b8f6b9b7429EBBAeA7B84C9",
  "abi": [
    {
      "inputs": [],
      "stateMutability": "nonpayable",
      "type": "constructor"
    },
    {
      "anonymous": false,
      "inputs": [
        {
          "indexed": false,
          "internalType": "uint256",
          "name": "gameId",
          "type": "uint256"
        },
        {
          "indexed": false,
          "internalType": "uint256",
          "name": "roll",
          "type": "uint256"
        },
        {
          "indexed": false,
          "internalType": "uint256",
          "name": "forValue",
          "type": "uint256"
        },
        {
          "indexed": false,
          "internalType": "uint256",
          "name": "against",
          "type": "uint256"
        }
      ],
      "name": "ChallengeEvent",
      "type": "event"
    },
    {
      "anonymous": false,
      "inputs": [
        {
          "indexed": false,
          "internalType": "uint256",
          "name": "gameId",
          "type": "uint256"
        },
        {
          "indexed": false,
          "internalType": "uint256",
          "name": "roll",
          "type": "uint256"
        }
      ],
      "name": "DiceRollEvent",
      "type": "event"
    },
    {
      "anonymous": false,
      "inputs": [
        {
          "indexed": false,
          "internalType": "uint256",
          "name": "gameId",
          "type": "uint256"
        },
        {
          "indexed": false,
          "internalType": "uint256",
          "name": "playerId",
          "type": "uint256"
        },
        {
          "components": [
            {
              "internalType": "uint256",
              "name": "id",
              "type": "uint256"
            },
            {
              "internalType": "bool",
              "name": "permanent",
              "type": "bool"
            },
            {
              "internalType": "uint8",
              "name": "rollForLow",
              "type": "uint8"
            },
            {
              "internalType": "uint8",
              "name": "rollForHigh",
              "type": "uint8"
            },
            {
              "components": [
                {
                  "internalType": "enum BCEvents.EffectTypes",
                  "name": "effect",
                  "type": "uint8"
                },
                {
                  "internalType": "uint256",
                  "name": "value",
                  "type": "uint256"
                }
              ],
              "internalType": "struct BCEvents.Effect[]",
              "name": "defaultEffect",
              "type": "tuple[]"
            },
            {
              "components": [
                {
                  "internalType": "enum BCEvents.EffectTypes",
                  "name": "effect",
                  "type": "uint8"
                },
                {
                  "internalType": "uint256",
                  "name": "value",
                  "type": "uint256"
                }
              ],
              "internalType": "struct BCEvents.Effect[]",
              "name": "lowEffect",
              "type": "tuple[]"
            },
            {
              "components": [
                {
                  "internalType": "enum BCEvents.EffectTypes",
                  "name": "effect",
                  "type": "uint8"
                },
                {
                  "internalType": "uint256",
                  "name": "value",
                  "type": "uint256"
                }
              ],
              "internalType": "struct BCEvents.Effect[]",
              "name": "highEffect",
              "type": "tuple[]"
            }
          ],
          "indexed": false,
          "internalType": "struct BCEvents.BCEvent",
          "name": "bcEvent",
          "type": "tuple"
        },
        {
          "components": [
            {
              "internalType": "enum BCEvents.EffectTypes",
              "name": "effect",
              "type": "uint8"
            },
            {
              "internalType": "uint256",
              "name": "value",
              "type": "uint256"
            }
          ],
          "indexed": false,
          "internalType": "struct BCEvents.Effect[]",
          "name": "appliedBCEffects",
          "type": "tuple[]"
        }
      ],
      "name": "EventResolvedEvent",
      "type": "event"
    },
    {
      "anonymous": false,
      "inputs": [
        {
          "indexed": true,
          "internalType": "address",
          "name": "previousOwner",
          "type": "address"
        },
        {
          "indexed": true,
          "internalType": "address",
          "name": "newOwner",
          "type": "address"
        }
      ],
      "name": "OwnershipTransferred",
      "type": "event"
    },
    {
      "inputs": [],
      "name": "StartLocation",
      "outputs": [
        {
          "internalType": "uint8",
          "name": "row",
          "type": "uint8"
        },
        {
          "internalType": "uint8",
          "name": "col",
          "type": "uint8"
        }
      ],
      "stateMutability": "view",
      "type": "function"
    },
    {
      "inputs": [
        {
          "internalType": "int256",
          "name": "x",
          "type": "int256"
        }
      ],
      "name": "abs",
      "outputs": [
        {
          "internalType": "int256",
          "name": "",
          "type": "int256"
        }
      ],
      "stateMutability": "pure",
      "type": "function"
    },
    {
      "inputs": [],
      "name": "actionsAddress",
      "outputs": [
        {
          "internalType": "address",
          "name": "",
          "type": "address"
        }
      ],
      "stateMutability": "view",
      "type": "function"
    },
    {
      "inputs": [
        {
          "internalType": "uint256",
          "name": "_charId",
          "type": "uint256"
        },
        {
          "internalType": "address",
          "name": "_owner",
          "type": "address"
        },
        {
          "internalType": "uint256[]",
          "name": "_itemIds",
          "type": "uint256[]"
        }
      ],
      "name": "addPlayer",
      "outputs": [
        {
          "internalType": "uint256",
          "name": "",
          "type": "uint256"
        }
      ],
      "stateMutability": "nonpayable",
      "type": "function"
    },
    {
      "inputs": [
        {
          "internalType": "uint256",
          "name": "_mapId",
          "type": "uint256"
        },
        {
          "internalType": "uint256[]",
          "name": "_players",
          "type": "uint256[]"
        }
      ],
      "name": "applyHazardDamage",
      "outputs": [],
      "stateMutability": "nonpayable",
      "type": "function"
    },
    {
      "inputs": [],
      "name": "bcEvents",
      "outputs": [
        {
          "internalType": "contract EventsInterface",
          "name": "",
          "type": "address"
        }
      ],
      "stateMutability": "view",
      "type": "function"
    },
    {
      "inputs": [],
      "name": "chars",
      "outputs": [
        {
          "internalType": "contract CharInterface",
          "name": "",
          "type": "address"
        }
      ],
      "stateMutability": "view",
      "type": "function"
    },
    {
      "inputs": [],
      "name": "charsAddress",
      "outputs": [
        {
          "internalType": "address",
          "name": "",
          "type": "address"
        }
      ],
      "stateMutability": "view",
      "type": "function"
    },
    {
      "inputs": [
        {
          "internalType": "uint256",
          "name": "_playerId",
          "type": "uint256"
        },
        {
          "internalType": "uint256",
          "name": "_num",
          "type": "uint256"
        }
      ],
      "name": "decrementNumItemsHeld",
      "outputs": [],
      "stateMutability": "nonpayable",
      "type": "function"
    },
    {
      "inputs": [
        {
          "internalType": "uint256",
          "name": "_playerId",
          "type": "uint256"
        },
        {
          "internalType": "uint256",
          "name": "_gameId",
          "type": "uint256"
        },
        {
          "internalType": "uint256",
          "name": "_mapId",
          "type": "uint256"
        },
        {
          "components": [
            {
              "internalType": "uint8",
              "name": "row",
              "type": "uint8"
            },
            {
              "internalType": "uint8",
              "name": "col",
              "type": "uint8"
            }
          ],
          "internalType": "struct BCTypes.Position",
          "name": "_position",
          "type": "tuple"
        },
        {
          "internalType": "uint256",
          "name": "_eventId",
          "type": "uint256"
        },
        {
          "internalType": "uint256",
          "name": "_effectNum",
          "type": "uint256"
        }
      ],
      "name": "extApplyEffect",
      "outputs": [],
      "stateMutability": "nonpayable",
      "type": "function"
    },
    {
      "inputs": [
        {
          "internalType": "uint256",
          "name": "_choice",
          "type": "uint256"
        },
        {
          "internalType": "uint256",
          "name": "_eventPlayerId",
          "type": "uint256"
        },
        {
          "internalType": "uint256",
          "name": "_gameId",
          "type": "uint256"
        },
        {
          "internalType": "uint256",
          "name": "_mapId",
          "type": "uint256"
        },
        {
          "components": [
            {
              "internalType": "uint8",
              "name": "row",
              "type": "uint8"
            },
            {
              "internalType": "uint8",
              "name": "col",
              "type": "uint8"
            }
          ],
          "internalType": "struct BCTypes.Position",
          "name": "_position",
          "type": "tuple"
        },
        {
          "internalType": "uint256",
          "name": "_eventNumber",
          "type": "uint256"
        },
        {
          "internalType": "enum BCTypes.BCEventType",
          "name": "_eventType",
          "type": "uint8"
        }
      ],
      "name": "extChooseEffect",
      "outputs": [],
      "stateMutability": "nonpayable",
      "type": "function"
    },
    {
      "inputs": [
        {
          "internalType": "uint256",
          "name": "_id",
          "type": "uint256"
        }
      ],
      "name": "extGetActionsTaken",
      "outputs": [
        {
          "internalType": "uint256",
          "name": "",
          "type": "uint256"
        }
      ],
      "stateMutability": "view",
      "type": "function"
    },
    {
      "inputs": [
        {
          "internalType": "uint256",
          "name": "_id",
          "type": "uint256"
        }
      ],
      "name": "extGetPlayer",
      "outputs": [
        {
          "components": [
            {
              "internalType": "address",
              "name": "owner",
              "type": "address"
            },
            {
              "internalType": "uint256",
              "name": "characterId",
              "type": "uint256"
            },
            {
              "internalType": "uint256",
              "name": "id",
              "type": "uint256"
            },
            {
              "components": [
                {
                  "internalType": "int8",
                  "name": "health",
                  "type": "int8"
                },
                {
                  "internalType": "int8",
                  "name": "carry",
                  "type": "int8"
                },
                {
                  "internalType": "int8",
                  "name": "defense",
                  "type": "int8"
                },
                {
                  "internalType": "int8",
                  "name": "hack",
                  "type": "int8"
                },
                {
                  "internalType": "int8",
                  "name": "breach",
                  "type": "int8"
                },
                {
                  "internalType": "int8",
                  "name": "shoot",
                  "type": "int8"
                },
                {
                  "internalType": "int8",
                  "name": "melee",
                  "type": "int8"
                },
                {
                  "internalType": "bool",
                  "name": "hasGun",
                  "type": "bool"
                }
              ],
              "internalType": "struct BCTypes.Traits",
              "name": "currentTraits",
              "type": "tuple"
            },
            {
              "components": [
                {
                  "internalType": "uint8",
                  "name": "row",
                  "type": "uint8"
                },
                {
                  "internalType": "uint8",
                  "name": "col",
                  "type": "uint8"
                }
              ],
              "internalType": "struct BCTypes.Position",
              "name": "position",
              "type": "tuple"
            },
            {
              "components": [
                {
                  "internalType": "uint8",
                  "name": "row",
                  "type": "uint8"
                },
                {
                  "internalType": "uint8",
                  "name": "col",
                  "type": "uint8"
                }
              ],
              "internalType": "struct BCTypes.Position",
              "name": "lastPos",
              "type": "tuple"
            },
            {
              "internalType": "int8",
              "name": "healthDmgTaken",
              "type": "int8"
            },
            {
              "internalType": "uint8",
              "name": "armorDmgTaken",
              "type": "uint8"
            },
            {
              "internalType": "uint8",
              "name": "actionsTaken",
              "type": "uint8"
            },
            {
              "internalType": "uint8",
              "name": "dataTokens",
              "type": "uint8"
            },
            {
              "internalType": "uint8[]",
              "name": "currentEffects",
              "type": "uint8[]"
            },
            {
              "internalType": "uint8",
              "name": "numItemsHeld",
              "type": "uint8"
            },
            {
              "internalType": "bool",
              "name": "dead",
              "type": "bool"
            },
            {
              "internalType": "uint256",
              "name": "gameId",
              "type": "uint256"
            }
          ],
          "internalType": "struct BCTypes.Player",
          "name": "",
          "type": "tuple"
        }
      ],
      "stateMutability": "view",
      "type": "function"
    },
    {
      "inputs": [
        {
          "internalType": "uint256",
          "name": "_id",
          "type": "uint256"
        }
      ],
      "name": "extGetPlayerOwner",
      "outputs": [
        {
          "internalType": "address",
          "name": "",
          "type": "address"
        }
      ],
      "stateMutability": "view",
      "type": "function"
    },
    {
      "inputs": [
        {
          "internalType": "uint256",
          "name": "_playerId",
          "type": "uint256"
        },
        {
          "internalType": "uint256",
          "name": "_amount",
          "type": "uint256"
        },
        {
          "internalType": "bool",
          "name": "_hazard",
          "type": "bool"
        }
      ],
      "name": "extHurtPlayer",
      "outputs": [],
      "stateMutability": "nonpayable",
      "type": "function"
    },
    {
      "inputs": [
        {
          "components": [
            {
              "internalType": "uint8",
              "name": "row",
              "type": "uint8"
            },
            {
              "internalType": "uint8",
              "name": "col",
              "type": "uint8"
            }
          ],
          "internalType": "struct BCTypes.Position",
          "name": "_position",
          "type": "tuple"
        },
        {
          "internalType": "uint256",
          "name": "_playerId",
          "type": "uint256"
        },
        {
          "internalType": "uint256",
          "name": "_mapId",
          "type": "uint256"
        }
      ],
      "name": "extMovePlayer",
      "outputs": [
        {
          "internalType": "bool",
          "name": "",
          "type": "bool"
        }
      ],
      "stateMutability": "nonpayable",
      "type": "function"
    },
    {
      "inputs": [],
      "name": "games",
      "outputs": [
        {
          "internalType": "contract GamesInterface",
          "name": "",
          "type": "address"
        }
      ],
      "stateMutability": "view",
      "type": "function"
    },
    {
      "inputs": [
        {
          "components": [
            {
              "internalType": "uint8",
              "name": "row",
              "type": "uint8"
            },
            {
              "internalType": "uint8",
              "name": "col",
              "type": "uint8"
            }
          ],
          "internalType": "struct BCTypes.Position",
          "name": "_firstRoom",
          "type": "tuple"
        },
        {
          "components": [
            {
              "internalType": "uint8",
              "name": "row",
              "type": "uint8"
            },
            {
              "internalType": "uint8",
              "name": "col",
              "type": "uint8"
            }
          ],
          "internalType": "struct BCTypes.Position",
          "name": "_secondRoom",
          "type": "tuple"
        }
      ],
      "name": "getDirectionBetween",
      "outputs": [
        {
          "internalType": "uint256",
          "name": "",
          "type": "uint256"
        }
      ],
      "stateMutability": "pure",
      "type": "function"
    },
    {
      "inputs": [
        {
          "internalType": "uint256",
          "name": "_gameId",
          "type": "uint256"
        }
      ],
      "name": "getEventBlocks",
      "outputs": [
        {
          "internalType": "uint256[]",
          "name": "",
          "type": "uint256[]"
        }
      ],
      "stateMutability": "view",
      "type": "function"
    },
    {
      "inputs": [
        {
          "internalType": "uint256",
          "name": "_direction",
          "type": "uint256"
        },
        {
          "components": [
            {
              "internalType": "uint8",
              "name": "row",
              "type": "uint8"
            },
            {
              "internalType": "uint8",
              "name": "col",
              "type": "uint8"
            }
          ],
          "internalType": "struct BCTypes.Position",
          "name": "_start",
          "type": "tuple"
        }
      ],
      "name": "getNeighborRoom",
      "outputs": [
        {
          "components": [
            {
              "internalType": "uint8",
              "name": "row",
              "type": "uint8"
            },
            {
              "internalType": "uint8",
              "name": "col",
              "type": "uint8"
            }
          ],
          "internalType": "struct BCTypes.Position",
          "name": "",
          "type": "tuple"
        }
      ],
      "stateMutability": "pure",
      "type": "function"
    },
    {
      "inputs": [
        {
          "internalType": "uint256",
          "name": "_traitNum",
          "type": "uint256"
        },
        {
          "internalType": "uint256",
          "name": "_subTraitNum",
          "type": "uint256"
        }
      ],
      "name": "getUIOffset",
      "outputs": [
        {
          "internalType": "uint256",
          "name": "",
          "type": "uint256"
        }
      ],
      "stateMutability": "pure",
      "type": "function"
    },
    {
      "inputs": [
        {
          "internalType": "uint256",
          "name": "_playerId",
          "type": "uint256"
        },
        {
          "internalType": "uint8",
          "name": "_amount",
          "type": "uint8"
        }
      ],
      "name": "grantDataToPlayer",
      "outputs": [],
      "stateMutability": "nonpayable",
      "type": "function"
    },
    {
      "inputs": [
        {
          "internalType": "uint256",
          "name": "_playerId",
          "type": "uint256"
        },
        {
          "internalType": "uint256",
          "name": "_num",
          "type": "uint256"
        }
      ],
      "name": "incrementNumItemsHeld",
      "outputs": [],
      "stateMutability": "nonpayable",
      "type": "function"
    },
    {
      "inputs": [
        {
          "internalType": "uint256",
          "name": "_playerId",
          "type": "uint256"
        }
      ],
      "name": "incrementPlayerActions",
      "outputs": [],
      "stateMutability": "nonpayable",
      "type": "function"
    },
    {
      "inputs": [],
      "name": "items",
      "outputs": [
        {
          "internalType": "contract ItemsInterface",
          "name": "",
          "type": "address"
        }
      ],
      "stateMutability": "view",
      "type": "function"
    },
    {
      "inputs": [],
      "name": "lobbiesAddress",
      "outputs": [
        {
          "internalType": "address",
          "name": "",
          "type": "address"
        }
      ],
      "stateMutability": "view",
      "type": "function"
    },
    {
      "inputs": [
        {
          "components": [
            {
              "internalType": "uint8",
              "name": "row",
              "type": "uint8"
            },
            {
              "internalType": "uint8",
              "name": "col",
              "type": "uint8"
            }
          ],
          "internalType": "struct BCTypes.Position",
          "name": "_pos1",
          "type": "tuple"
        },
        {
          "components": [
            {
              "internalType": "uint8",
              "name": "row",
              "type": "uint8"
            },
            {
              "internalType": "uint8",
              "name": "col",
              "type": "uint8"
            }
          ],
          "internalType": "struct BCTypes.Position",
          "name": "_pos2",
          "type": "tuple"
        }
      ],
      "name": "manhattanDistance",
      "outputs": [
        {
          "internalType": "uint256",
          "name": "",
          "type": "uint256"
        }
      ],
      "stateMutability": "pure",
      "type": "function"
    },
    {
      "inputs": [],
      "name": "maps",
      "outputs": [
        {
          "internalType": "contract MapInterface",
          "name": "",
          "type": "address"
        }
      ],
      "stateMutability": "view",
      "type": "function"
    },
    {
      "inputs": [
        {
          "internalType": "uint256",
          "name": "_min",
          "type": "uint256"
        },
        {
          "internalType": "uint256",
          "name": "_max",
          "type": "uint256"
        },
        {
          "internalType": "uint256",
          "name": "_val",
          "type": "uint256"
        },
        {
          "internalType": "uint256",
          "name": "_valMax",
          "type": "uint256"
        }
      ],
      "name": "normalizeToSmallRange",
      "outputs": [
        {
          "internalType": "uint8",
          "name": "",
          "type": "uint8"
        }
      ],
      "stateMutability": "pure",
      "type": "function"
    },
    {
      "inputs": [
        {
          "internalType": "uint256",
          "name": "_direction",
          "type": "uint256"
        }
      ],
      "name": "opposite",
      "outputs": [
        {
          "internalType": "uint256",
          "name": "",
          "type": "uint256"
        }
      ],
      "stateMutability": "pure",
      "type": "function"
    },
    {
      "inputs": [],
      "name": "owner",
      "outputs": [
        {
          "internalType": "address",
          "name": "",
          "type": "address"
        }
      ],
      "stateMutability": "view",
      "type": "function"
    },
    {
      "inputs": [
        {
          "internalType": "uint256",
          "name": "",
          "type": "uint256"
        }
      ],
      "name": "players",
      "outputs": [
        {
          "internalType": "address",
          "name": "owner",
          "type": "address"
        },
        {
          "internalType": "uint256",
          "name": "characterId",
          "type": "uint256"
        },
        {
          "internalType": "uint256",
          "name": "id",
          "type": "uint256"
        },
        {
          "components": [
            {
              "internalType": "int8",
              "name": "health",
              "type": "int8"
            },
            {
              "internalType": "int8",
              "name": "carry",
              "type": "int8"
            },
            {
              "internalType": "int8",
              "name": "defense",
              "type": "int8"
            },
            {
              "internalType": "int8",
              "name": "hack",
              "type": "int8"
            },
            {
              "internalType": "int8",
              "name": "breach",
              "type": "int8"
            },
            {
              "internalType": "int8",
              "name": "shoot",
              "type": "int8"
            },
            {
              "internalType": "int8",
              "name": "melee",
              "type": "int8"
            },
            {
              "internalType": "bool",
              "name": "hasGun",
              "type": "bool"
            }
          ],
          "internalType": "struct BCTypes.Traits",
          "name": "currentTraits",
          "type": "tuple"
        },
        {
          "components": [
            {
              "internalType": "uint8",
              "name": "row",
              "type": "uint8"
            },
            {
              "internalType": "uint8",
              "name": "col",
              "type": "uint8"
            }
          ],
          "internalType": "struct BCTypes.Position",
          "name": "position",
          "type": "tuple"
        },
        {
          "components": [
            {
              "internalType": "uint8",
              "name": "row",
              "type": "uint8"
            },
            {
              "internalType": "uint8",
              "name": "col",
              "type": "uint8"
            }
          ],
          "internalType": "struct BCTypes.Position",
          "name": "lastPos",
          "type": "tuple"
        },
        {
          "internalType": "int8",
          "name": "healthDmgTaken",
          "type": "int8"
        },
        {
          "internalType": "uint8",
          "name": "armorDmgTaken",
          "type": "uint8"
        },
        {
          "internalType": "uint8",
          "name": "actionsTaken",
          "type": "uint8"
        },
        {
          "internalType": "uint8",
          "name": "dataTokens",
          "type": "uint8"
        },
        {
          "internalType": "uint8",
          "name": "numItemsHeld",
          "type": "uint8"
        },
        {
          "internalType": "bool",
          "name": "dead",
          "type": "bool"
        },
        {
          "internalType": "uint256",
          "name": "gameId",
          "type": "uint256"
        }
      ],
      "stateMutability": "view",
      "type": "function"
    },
    {
      "inputs": [],
      "name": "randKeccak",
      "outputs": [
        {
          "internalType": "bytes32",
          "name": "",
          "type": "bytes32"
        }
      ],
      "stateMutability": "nonpayable",
      "type": "function"
    },
    {
      "inputs": [],
      "name": "renounceOwnership",
      "outputs": [],
      "stateMutability": "nonpayable",
      "type": "function"
    },
    {
      "inputs": [
        {
          "internalType": "uint256",
          "name": "_playerId",
          "type": "uint256"
        }
      ],
      "name": "resetPlayerActions",
      "outputs": [],
      "stateMutability": "nonpayable",
      "type": "function"
    },
    {
      "inputs": [
        {
          "internalType": "uint256",
          "name": "_gameId",
          "type": "uint256"
        },
        {
          "internalType": "uint256",
          "name": "_for",
          "type": "uint256"
        },
        {
          "internalType": "uint256",
          "name": "_against",
          "type": "uint256"
        }
      ],
      "name": "resolveChallenge",
      "outputs": [
        {
          "internalType": "bool",
          "name": "",
          "type": "bool"
        }
      ],
      "stateMutability": "nonpayable",
      "type": "function"
    },
    {
      "inputs": [
        {
          "internalType": "uint256",
          "name": "_gameId",
          "type": "uint256"
        }
      ],
      "name": "roll",
      "outputs": [
        {
          "internalType": "uint256",
          "name": "",
          "type": "uint256"
        }
      ],
      "stateMutability": "nonpayable",
      "type": "function"
    },
    {
      "inputs": [
        {
          "internalType": "address",
          "name": "_charAddress",
          "type": "address"
        },
        {
          "internalType": "address",
          "name": "_utilsAddress",
          "type": "address"
        },
        {
          "internalType": "address",
          "name": "_mapsAddress",
          "type": "address"
        },
        {
          "internalType": "address",
          "name": "_lobbiesAddress",
          "type": "address"
        },
        {
          "internalType": "address",
          "name": "_actionsAddress",
          "type": "address"
        },
        {
          "internalType": "address",
          "name": "_eventsAddress",
          "type": "address"
        },
        {
          "internalType": "address",
          "name": "_itemsAddress",
          "type": "address"
        },
        {
          "internalType": "address",
          "name": "_gamesAddress",
          "type": "address"
        }
      ],
      "name": "setContractAddresses",
      "outputs": [],
      "stateMutability": "nonpayable",
      "type": "function"
    },
    {
      "inputs": [
        {
          "internalType": "uint256[]",
          "name": "ids",
          "type": "uint256[]"
        },
        {
          "internalType": "uint256",
          "name": "_gameId",
          "type": "uint256"
        }
      ],
      "name": "setPlayersGameId",
      "outputs": [],
      "stateMutability": "nonpayable",
      "type": "function"
    },
    {
      "inputs": [
        {
          "internalType": "bytes32",
          "name": "_hash",
          "type": "bytes32"
        },
        {
          "internalType": "uint256",
          "name": "_size",
          "type": "uint256"
        },
        {
          "internalType": "uint256",
          "name": "_offset",
          "type": "uint256"
        }
      ],
      "name": "sliceHashToSmallInt",
      "outputs": [
        {
          "internalType": "uint8",
          "name": "",
          "type": "uint8"
        }
      ],
      "stateMutability": "pure",
      "type": "function"
    },
    {
      "inputs": [
        {
          "internalType": "uint8",
          "name": "_min",
          "type": "uint8"
        },
        {
          "internalType": "uint8",
          "name": "_max",
          "type": "uint8"
        }
      ],
      "name": "smallIntBetweenVals",
      "outputs": [
        {
          "internalType": "uint8",
          "name": "",
          "type": "uint8"
        }
      ],
      "stateMutability": "nonpayable",
      "type": "function"
    },
    {
      "inputs": [
        {
          "internalType": "address",
          "name": "newOwner",
          "type": "address"
        }
      ],
      "name": "transferOwnership",
      "outputs": [],
      "stateMutability": "nonpayable",
      "type": "function"
    },
    {
      "inputs": [
        {
          "internalType": "uint256",
          "name": "_charId",
          "type": "uint256"
        },
        {
          "internalType": "uint256",
          "name": "_playerId",
          "type": "uint256"
        }
      ],
      "name": "updatePlayerTraits",
      "outputs": [],
      "stateMutability": "nonpayable",
      "type": "function"
    }
  ],
  "transactionHash": "0x6e9b147441f9b1da11866ec4ec46c43ba5579b4dfe965bbe092f513eb76f5b8e",
  "args": [],
  "numDeployments": 1,
  "solcInputHash": "7fe7d74cf5e99a055f186c111b0acb37",
  "bytecode": "0x600060015560c0604052600a608052600660a052600b805461ffff191661060a1790553480156200002f57600080fd5b506200003b3362000428565b6200010f604080516101c081018252600080825260208083018290528284018290528351610100810185528281528082018390528085018390526060808201849052608080830185905260a080840186905260c0840186905260e0840186905291860192909252855180870187528481528084018590529185019190915284518086019095528285529084019190915290919082019081526000602082018190526040820181905260608083018290526080830182905260a083015260c0820181905260e082018190526101009091015290565b600c8190806001815401808255809150506001900390600052602060002090600a020160009091909190915060008201518160000160006101000a8154816001600160a01b0302191690836001600160a01b03160217905550602082015181600101556040820151816002015560608201518160030160008201518160000160006101000a81548160ff021916908360000b60ff16021790555060208201518160000160016101000a81548160ff021916908360000b60ff16021790555060408201518160000160026101000a81548160ff021916908360000b60ff16021790555060608201518160000160036101000a81548160ff021916908360000b60ff16021790555060808201518160000160046101000a81548160ff021916908360000b60ff16021790555060a08201518160000160056101000a81548160ff021916908360000b60ff16021790555060c08201518160000160066101000a81548160ff021916908360000b60ff16021790555060e08201518160000160076101000a81548160ff021916908315150217905550505060808201518160040160008201518160000160006101000a81548160ff021916908360ff16021790555060208201518160000160016101000a81548160ff021916908360ff160217905550505060a08201518160050160008201518160000160006101000a81548160ff021916908360ff16021790555060208201518160000160016101000a81548160ff021916908360ff160217905550505060c08201518160060160006101000a81548160ff021916908360000b60ff16021790555060e08201518160060160016101000a81548160ff021916908360ff1602179055506101008201518160060160026101000a81548160ff021916908360ff1602179055506101208201518160060160036101000a81548160ff021916908360ff160217905550610140820151816007019080519060200190620003e592919062000478565b5061016082015160088201805461018085015115156101000261ffff1990911660ff909316929092179190911790556101a090910151600990910155506200053c565b600080546001600160a01b038381166001600160a01b0319831681178455604051919092169283917f8be0079c531659141344cd1fd0a4f28419497f9722a3daafe3b4186f6b6457e09190a35050565b82805482825590600052602060002090601f01602090048101928215620005135791602002820160005b83821115620004e257835183826101000a81548160ff021916908360ff1602179055509260200192600101602081600001049283019260010302620004a2565b8015620005115782816101000a81549060ff0219169055600101602081600001049283019260010302620004e2565b505b506200052192915062000525565b5090565b5b8082111562000521576000815560010162000526565b6148ec806200054c6000396000f3fe608060405234801561001057600080fd5b50600436106102695760003560e01c80637ddae10311610151578063ce28613f116100c3578063f10bff2b11610087578063f10bff2b146105ac578063f2fde38b146105bf578063f71d96cb146105d2578063f96f55d0146105fe578063fa3993c214610611578063fe23e2df1461062457600080fd5b8063ce28613f14610530578063ce93229714610543578063dc769ee814610556578063e7169ec514610586578063ed8619611461059957600080fd5b8063951fc3fe11610115578063951fc3fe146104b1578063955a015b146104d157806397f34c3f146104e45780639fca1ee1146104f7578063b69071941461050a578063c06fad061461051d57600080fd5b80637ddae103146104545780638214f222146104675780638d491b3e1461047a5780638da5cb5b1461048d578063921d27991461049e57600080fd5b806347d0e3c9116101ea57806365c363f0116101ae57806365c363f0146103ed5780636621a42114610400578063668a7f3b146104135780636d291bbb14610426578063715018a6146104395780637b45c0d41461044157600080fd5b806347d0e3c91461036c578063530116961461037f5780635519f439146103a45780635dc96967146103b757806364db84bf146103da57600080fd5b80631e1de205116102315780631e1de205146103185780631f7b4f3014610320578063336d7d7b14610333578063351dacdf146103465780633deaec2b1461035957600080fd5b80630dd0f5881461026e5780630e73c0241461028357806310a2cd0d146102ac57806310f67fb3146102d75780631b5ac4b5146102f7575b600080fd5b61028161027c3660046133e9565b610637565b005b610296610291366004613422565b61067a565b6040516102a39190613476565b60405180910390f35b6003546102bf906001600160a01b031681565b6040516001600160a01b0390911681526020016102a3565b6102ea6102e5366004613422565b61069a565b6040516102a3919061351f565b61030a610305366004613422565b610963565b6040519081526020016102a3565b61030a61097f565b61030a61032e366004613422565b6109f7565b6008546102bf906001600160a01b031681565b610281610354366004613636565b610a53565b6004546102bf906001600160a01b031681565b61030a61037a366004613422565b610aa8565b61039261038d366004613658565b610ae0565b60405160ff90911681526020016102a3565b61030a6103b2366004613809565b610b1d565b6103ca6103c536600461385f565b610c79565b60405190151581526020016102a3565b61030a6103e8366004613636565b610d14565b6102816103fb366004613422565b610d2c565b6102bf61040e366004613422565b610d84565b61028161042136600461388b565b610db9565b610281610434366004613922565b610f0a565b610281611366565b600a546102bf906001600160a01b031681565b6005546102bf906001600160a01b031681565b61030a610475366004613422565b61137a565b6103ca61048836600461398f565b6113f4565b6000546001600160a01b03166102bf565b6102816104ac3660046139c3565b611592565b6104c46104bf366004613a5a565b61161a565b6040516102a39190613a87565b6007546102bf906001600160a01b031681565b6103926104f236600461385f565b611744565b6009546102bf906001600160a01b031681565b610281610518366004613aa5565b61176f565b6006546102bf906001600160a01b031681565b61039261053e366004613ad5565b61181a565b610281610551366004613422565b6118ca565b600b5461056c9060ff8082169161010090041682565b6040805160ff9384168152929091166020830152016102a3565b610281610594366004613b03565b61193a565b6102816105a7366004613b47565b6119c3565b61030a6105ba366004613b99565b611ad6565b6102816105cd366004613bc5565b611b23565b6105e56105e0366004613422565b611b9c565b6040516102a39d9c9b9a99989796959493929190613be0565b61028161060c366004613636565b611cc6565b61030a61061f366004613b99565b611f46565b610281610632366004613636565b61200e565b6007546001600160a01b0316331461066a5760405162461bcd60e51b815260040161066190613c84565b60405180910390fd5b610675838383612047565b505050565b6000818152600260205260409020606090610694906120c8565b92915050565b61076d604080516101c081018252600080825260208083018290528284018290528351610100810185528281528082018390528085018390526060808201849052608080830185905260a080840186905260c0840186905260e0840186905291860192909252855180870187528481528084018590529185019190915284518086019095528285529084019190915290919082019081526000602082018190526040820181905260608083018290526080830182905260a083015260c0820181905260e082018190526101009091015290565b600c828154811061078057610780613cb0565b60009182526020808320604080516101c081018252600a90940290910180546001600160a01b0316845260018101548484015260028101548483015281516101008181018452600383015480880b8352818104880b8387015262010000808204890b8487015263010000008083048a0b60608681019190915264010000000084048b0b6080808801919091526501000000000085048c0b60a080890191909152600160301b86048d0b60c0808a019190915260ff600160381b9097048716151560e0808b0191909152938d01989098528951808b018b5260048a015480881682528890048716818d0152918c01919091528851808a018a52600589015480871682528790048616818c0152908b015260068701549a8b900b958a0195909552838a048316948901949094528804811691870191909152950490941661012084015260078401805482518185028101850190935280835293949361014086019383018282801561092c57602002820191906000526020600020906000905b825461010083900a900460ff168152602060019283018181049485019490930390920291018084116108fd5790505b5050509183525050600882015460ff8082166020840152610100909104161515604082015260099091015460609091015292915050565b60008082121561097b5761097682613cdc565b610694565b5090565b600180546000918261099083613cf8565b91905055506001546001436109a59190613d11565b40336040516020016109dc93929190928352602083019190915260601b6bffffffffffffffffffffffff1916604082015260540190565b60405160208183030381529060405280519060200120905090565b600080610a066001600661181a565b60ff1690507ffe34d093a460a16ee5fb374540914d1c734a17502c0c1a87b387c8d6097e1c518382604051610a45929190918252602082015260400190565b60405180910390a192915050565b80600c8381548110610a6757610a67613cb0565b6000918252602082206008600a90920201018054909190610a8c90849060ff16613d24565b92506101000a81548160ff021916908360ff1602179055505050565b6000600c8281548110610abd57610abd613cb0565b60009182526020909120600a909102016006015462010000900460ff1692915050565b600080610aed8686613d11565b9050600083610afc8684613d3d565b610b069190613d6a565b9050610b128782613d7e565b979650505050505050565b6008546000906001600160a01b03163314610b6f5760405162461bcd60e51b8152602060048201526012602482015271139bdd081b1bd8989e4818dbdb9d1c9858dd60721b6044820152606401610661565b600c805460018181018084556000938452600a9092027fdf6966c971051c3d54ec59162606531493a51404a002842f56009d7e5cf4a8c7019291610bb39190613d11565b82546001600160a01b0319166001600160a01b038716178355600180840188905560028401829055600c54919250610bf091889161060c91613d11565b835160088301805460ff191660ff909216919091179055600654604051630926bc2d60e21b81526001600160a01b039091169063249af0b490610c3b90849088908a90600401613d91565b600060405180830381600087803b158015610c5557600080fd5b505af1158015610c69573d6000803e3d6000fd5b50929450505050505b9392505050565b600080610c85856109f7565b6040805187815260208101839052908101869052606081018590529091507f75b6a8325595f91135e07382840634226793c68c9e59623da7e10d7ad3d95b959060800160405180910390a180600103610ce2576000915050610c72565b600383610cef8684613d7e565b610cf99190613dc2565b1315610d09576001915050610c72565b506000949350505050565b600081610d22846004613d3d565b610c729190613d7e565b6007546001600160a01b03163314610d4357600080fd5b6000600c8281548110610d5857610d58613cb0565b90600052602060002090600a020160060160026101000a81548160ff021916908360ff16021790555050565b6000600c8281548110610d9957610d99613cb0565b60009182526020909120600a90910201546001600160a01b031692915050565b6007546001600160a01b03163314610de35760405162461bcd60e51b815260040161066190613c84565b60005b60018251610df49190613d11565b8111610675576000600c838381518110610e1057610e10613cb0565b602002602001015181548110610e2857610e28613cb0565b60009182526020822060048054600a939093029091018082015460405163f9dfbfcb60e01b815292830189905260ff808216602485015261010090910416604483015293506001600160a01b039091169063f9dfbfcb9060640161014060405180830381865afa158015610ea0573d6000803e3d6000fd5b505050506040513d601f19601f82011682018060405250810190610ec49190613dff565b90508060c0015115610ef557610ef5848481518110610ee557610ee5613cb0565b6020026020010151600180612047565b50508080610f0290613cf8565b915050610de6565b6007546001600160a01b03163314610f345760405162461bcd60e51b815260040161066190613c84565b610f7c6040518060e0016040528060008152602001600015158152602001600060ff168152602001600060ff1681526020016060815260200160608152602001606081525090565b6005826005811115610f9057610f90613ed4565b0361100d5760055460405163c82c37b960e01b8152600481018590526001600160a01b039091169063c82c37b990602401600060405180830381865afa158015610fde573d6000803e3d6000fd5b505050506040513d6000823e601f3d908101601f191682016040526110069190810190613f77565b9050611087565b60055460405163e4dc1a8360e01b81526001600160a01b039091169063e4dc1a839061103f908690869060040161407c565b600060405180830381865afa15801561105c573d6000803e3d6000fd5b505050506040513d6000823e601f3d908101601f191682016040526110849190810190613f77565b90505b6005546040516336772a9360e21b81526000916001600160a01b03169063d9dcaa4c906110ba9086908890600401614090565b600060405180830381865afa1580156110d7573d6000803e3d6000fd5b505050506040513d6000823e601f3d908101601f191682016040526110ff91908101906140ab565b9050816040015160ff16600014801561111d5750606082015160ff16155b156111ac57611149888888888560008151811061113c5761113c613cb0565b60200260200101516120d5565b6000805160206148978339815191528789848460008151811061116e5761116e613cb0565b602002602001015160405161118694939291906141a6565b60405180910390a160008781526002602052604090206111a69043612f49565b5061135b565b60006111b7886109f7565b9050826040015160ff166000141580156111d85750826040015160ff168111155b1561125a576111f7898989898660018151811061113c5761113c613cb0565b600080516020614897833981519152888a858560018151811061121c5761121c613cb0565b602002602001015160405161123494939291906141a6565b60405180910390a160008881526002602052604090206112549043612f49565b50611359565b606083015160ff16158015906112775750826060015160ff168110155b156112e057611296898989898660028151811061113c5761113c613cb0565b600080516020614897833981519152888a85856002815181106112bb576112bb613cb0565b60200260200101516040516112d394939291906141a6565b60405180910390a1611359565b6112fa898989898660008151811061113c5761113c613cb0565b600080516020614897833981519152888a858560008151811061131f5761131f613cb0565b602002602001015160405161133794939291906141a6565b60405180910390a160008881526002602052604090206113579043612f49565b505b505b505050505050505050565b61136e612f55565b6113786000612faf565b565b60008160000361138c57506001919050565b8160010361139c57506000919050565b816002036113ac57506003919050565b816003036113bc57506002919050565b60405162461bcd60e51b815260206004820152600d60248201526c2130b2103234b932b1ba34b7b760991b6044820152606401610661565b6007546000906001600160a01b031633146114215760405162461bcd60e51b815260040161066190613c84565b600c838154811061143457611434613cb0565b90600052602060002090600a0201600401600c848154811061145857611458613cb0565b600091825260209091208254600a90920201600501805460ff92831660ff19821681178355935461ffff1990911690931761010093849004909216909202179055600c8054859190859081106114b0576114b0613cb0565b6000918252602080832084516004600a94909402909101830180549583015160ff9081166101000261ffff199097169281169290921795909517909455815488519189015160405163f9dfbfcb60e01b815293840188905291851660248401529316604482015290916001600160a01b03169063f9dfbfcb9060640161014060405180830381865afa15801561154a573d6000803e3d6000fd5b505050506040513d601f19601f8201168201806040525081019061156e9190613dff565b5160ff16036115885761158083612fff565b506001610c72565b5060009392505050565b61159a612f55565b600380546001600160a01b03199081166001600160a01b039a8b1617909155600480548216978a169790971790965560088054871695891695909517909455600a80548616938816939093179092556005805485169187169190911790556006805484169186169190911790556007805490921693169290921790915550565b60408051808201909152600080825260208201528260000361166c576040518060400160405280600184600001516116529190613d24565b60ff168152602001836020015160ff168152509050610694565b8260010361169057604051806040016040528083600001516001611652919061425b565b826002036116cd576040518060400160405280836000015160ff168152602001836020015160016116c1919061425b565b60ff1690529050610694565b826003036116fe576040518060400160405280836000015160ff168152602001600184602001516116c19190613d24565b6000611709846131be565b6040516020016117199190614298565b60405160208183030381529060405290508060405162461bcd60e51b815260040161066191906142ff565b6000808260016117558660026143f6565b61175f9190613d11565b901b8516831c9150509392505050565b600a546001600160a01b031633146117da5760405162461bcd60e51b815260206004820152602860248201527f4e6f7420616374696f6e7320636f6e7472616374202d206772616e74446174616044820152672a37a83630bcb2b960c11b6064820152608401610661565b80600c83815481106117ee576117ee613cb0565b90600052602060002090600a020160060160038282829054906101000a900460ff16610a8c919061425b565b600180546000918261182b83613cf8565b91905055506000336001546001436118439190613d11565b60405160609390931b6bffffffffffffffffffffffff19166020840152603483019190915240605482015260740160408051601f198184030181529190528051602090910120905060006118978585613d24565b6118a290600161425b565b90508460ff168160ff16836118b79190614402565b6118c19190613d7e565b95945050505050565b6007546001600160a01b031633146118e157600080fd5b600c81815481106118f4576118f4613cb0565b60009182526020909120600a90910201600601805462010000900460ff1690600261191e83614416565b91906101000a81548160ff021916908360ff1602179055505050565b6007546001600160a01b031633146119645760405162461bcd60e51b815260040161066190613c84565b60005b82518110156106755781600c84838151811061198557611985613cb0565b60200260200101518154811061199d5761199d613cb0565b600091825260209091206009600a909202010155806119bb81613cf8565b915050611967565b600a546001600160a01b03163314611a2b5760405162461bcd60e51b815260206004820152602560248201527f4e6f7420616374696f6e7320636f6e7472616374202d206578744170706c794560448201526419999958dd60da1b6064820152608401610661565b600580546040516336772a9360e21b81526000926001600160a01b039092169163d9dcaa4c91611a6091908790600401614090565b600060405180830381865afa158015611a7d573d6000803e3d6000fd5b505050506040513d6000823e601f3d908101601f19168201604052611aa591908101906140ab565b8281518110611ab657611ab6613cb0565b60200260200101519050611acd87878787856120d5565b50505050505050565b600080611af6836000015160000b856000015160000b6103059190613dc2565b90506000611b17846020015160000b866020015160000b6103059190613dc2565b90506118c18183613d7e565b611b2b612f55565b6001600160a01b038116611b905760405162461bcd60e51b815260206004820152602660248201527f4f776e61626c653a206e6577206f776e657220697320746865207a65726f206160448201526564647265737360d01b6064820152608401610661565b611b9981612faf565b50565b600c8181548110611bac57600080fd5b60009182526020808320600a9092029091018054600182015460028301546040805161010081810183526003870154808a0b83528181048a0b838a0152620100008082048b0b8486015263010000008083048c0b606086015264010000000083048c0b60808601526501000000000083048c0b60a0860152600160301b83048c0b60c086015260ff600160381b9093048316151560e08601528551808701875260048b015480851682528590048416818d0152865180880190975260058b0154808516885285900484169b87019b909b5260068a015460088b01546009909b01546001600160a01b03909a169d50979b969a9499949895979687900b9684810484169692810484169591900483169381841693910416908d565b600354604051634810bc5960e01b8152600481018490526000916001600160a01b031690634810bc599060240161020060405180830381865afa158015611d11573d6000803e3d6000fd5b505050506040513d601f19601f82011682018060405250810190611d35919061450f565b606001516006546040516347ef26b160e01b8152600481018590529192506000916001600160a01b03909116906347ef26b19060240161010060405180830381865afa158015611d89573d6000803e3d6000fd5b505050506040513d601f19601f82011682018060405250810190611dad91906145b6565b90506000600c8481548110611dc457611dc4613cb0565b90600052602060002090600a0201905081600001518360000151611de891906145d3565b60038201805460ff191660ff9290921691909117905560208281015190840151611e1291906145d3565b60038201805460ff929092166101000261ff001990921691909117905560408083015190840151611e4391906145d3565b60038201805460ff92909216620100000262ff00001990921691909117905560608083015190840151611e7691906145d3565b60038201805460ff9290921663010000000263ff0000001990921691909117905560808083015190840151611eab91906145d3565b60038201805460ff929092166401000000000264ff000000001990921691909117905560a08083015190840151611ee291906145d3565b60038201805460ff92909216650100000000000265ff00000000001990921691909117905560c08083015190840151611f1b91906145d3565b6003909101805460ff92909216600160301b0266ff0000000000001990921691909117905550505050565b80518251600091611f56916145f4565b60000b600103611f6857506000610694565b81518351611f7691906145f4565b60000b19611f8657506001610694565b81602001518360200151611f9a91906145f4565b60000b19611faa57506002610694565b81602001518360200151611fbe91906145f4565b60000b600103611fd057506003610694565b60405162461bcd60e51b8152602060048201526013602482015272115c9c9bdc8e88139bdd0818591a9858d95b9d606a1b6044820152606401610661565b80600c838154811061202257612022613cb0565b6000918252602082206008600a90920201018054909190610a8c90849060ff1661425b565b6000600c848154811061205c5761205c613cb0565b6000918252602082206006600a90920201908101805491935085929091612086908490830b6145d3565b825460ff9182166101009390930a92830291909202199091161790555060038101546006820154600091820b910b126120c2576120c284612fff565b50505050565b60606000610c72836132c6565b60005b8151811015612f41576121196040518060400160405280601681526020017520b838363cb4b7339032b33332b1ba10373ab6b132b960511b81525082613322565b6000600c878154811061212e5761212e613cb0565b60009182526020909120600a909102019050600183838151811061215457612154613cb0565b602002602001015160000151601681111561217157612171613ed4565b5050600283838151811061218757612187613cb0565b60200260200101516000015160168111156121a4576121a4613ed4565b036121ea578282815181106121bb576121bb613cb0565b60200260200101516020015160006121d391906145f4565b60068201805460ff191660ff929092169190911790555b60038383815181106121fe576121fe613cb0565b602002602001015160000151601681111561221b5761221b613ed4565b036122295761222987612fff565b600483838151811061223d5761223d613cb0565b602002602001015160000151601681111561225a5761225a613ed4565b036122da576004805485516020870151604051637f1b46bd60e11b815293840189905260ff9182166024850152166044830152600160648301526001600160a01b03169063fe368d7a90608401600060405180830381600087803b1580156122c157600080fd5b505af11580156122d5573d6000803e3d6000fd5b505050505b60058383815181106122ee576122ee613cb0565b602002602001015160000151601681111561230b5761230b613ed4565b5050600683838151811061232157612321613cb0565b602002602001015160000151601681111561233e5761233e613ed4565b036123b35782828151811061235557612355613cb0565b6020908102919091018101510151600682018054600090612379908490830b6145f4565b825460ff9182166101009390930a9283029190920219909116179055506006810154600090810b12156123b35760068101805460ff191690555b60078383815181106123c7576123c7613cb0565b60200260200101516000015160168111156123e4576123e4613ed4565b505060088383815181106123fa576123fa613cb0565b602002602001015160000151601681111561241757612417613ed4565b03612445576124458784848151811061243257612432613cb0565b6020026020010151602001516001612047565b600983838151811061245957612459613cb0565b602002602001015160000151601681111561247657612476613ed4565b036124a4576124a48784848151811061249157612491613cb0565b6020026020010151602001516000612047565b600a8383815181106124b8576124b8613cb0565b60200260200101516000015160168111156124d5576124d5613ed4565b0361287b5760008383815181106124ee576124ee613cb0565b6020026020010151602001519050600b601681111561250f5761250f613ed4565b8461251b856001613d7e565b8151811061252b5761252b613cb0565b602002602001015160000151601681111561254857612548613ed4565b1461255557612555614615565b60008460018151811061256a5761256a613cb0565b602002602001015160200151600881111561258757612587613ed4565b9050600c85612597866002613d7e565b815181106125a7576125a7613cb0565b60200260200101516000015160168111156125c4576125c4613ed4565b146125d1576125d1614615565b6000856002815181106125e6576125e6613cb0565b602002602001015160200151600381111561260357612603613ed4565b60048054895160208b01516040516315636a4d60e01b81529384018d905260ff91821660248501521660448301529192506000916001600160a01b0316906315636a4d90606401608060405180830381865afa158015612667573d6000803e3d6000fd5b505050506040513d601f19601f8201168201806040525081019061268b919061462b565b905060038260038111156126a1576126a1613ed4565b0361279f5760005b6004811015612794578181600481106126c4576126c4613cb0565b602002015115156001036127825760005b858110156127805760006126e9838c61161a565b9050600760009054906101000a90046001600160a01b03166001600160a01b0316631cef40f68e88846000015185602001516040518563ffffffff1660e01b815260040161273a9493929190614694565b600060405180830381600087803b15801561275457600080fd5b505af1158015612768573d6000803e3d6000fd5b5050505050808061277890613cf8565b9150506126d5565b505b8061278c81613cf8565b9150506126a9565b505050505050612f41565b60005b84811015612794576007546001600160a01b0316631cef40f68c8660018760038111156127d1576127d1613ed4565b146127e35760058a015460ff166127e6565b8c515b60018860038111156127fa576127fa613ed4565b146128115760058b0154610100900460ff16612817565b8d602001515b6040518563ffffffff1660e01b81526004016128369493929190614694565b600060405180830381600087803b15801561285057600080fd5b505af1158015612864573d6000803e3d6000fd5b50505050808061287390613cf8565b9150506127a2565b600d83838151811061288f5761288f613cb0565b60200260200101516000015160168111156128ac576128ac613ed4565b036128d8576128d8878484815181106128c7576128c7613cb0565b60200260200101516020015161176f565b600e8383815181106128ec576128ec613cb0565b602002602001015160000151601681111561290957612909613ed4565b5050600f83838151811061291f5761291f613cb0565b602002602001015160000151601681111561293c5761293c613ed4565b03612b6057600083838151811061295557612955613cb0565b6020908102919091018101510151600654604051633841fae160e01b8152600481018b90529192506000916001600160a01b0390911690633841fae190602401600060405180830381865afa1580156129b2573d6000803e3d6000fd5b505050506040513d6000823e601f3d908101601f191682016040526129da91908101906146ca565b805190915015612b5d576000600182516129f49190613d11565b90505b8015612a93576000612a0a60008361181a565b9050828160ff1681518110612a2157612a21613cb0565b6020026020010151838381518110612a3b57612a3b613cb0565b6020026020010151848481518110612a5557612a55613cb0565b60200260200101858460ff1681518110612a7157612a71613cb0565b6020908102919091010191909152525080612a8b8161474f565b9150506129f7565b5060005b8151851015612b5b5760065482516001600160a01b0390911690635f09c782908c90859085908110612acb57612acb613cb0565b60200260200101516040518363ffffffff1660e01b8152600401612af9929190918252602082015260400190565b600060405180830381600087803b158015612b1357600080fd5b505af1158015612b27573d6000803e3d6000fd5b50505050612b368a6001610a53565b82612b408161474f565b9350508215612b5b5780612b5381613cf8565b915050612a97565b505b50505b6011838381518110612b7457612b74613cb0565b6020026020010151600001516016811115612b9157612b91613ed4565b03612cac576005838381518110612baa57612baa613cb0565b60200260200101516020015103612cac5760048054604051632fc4a8f360e11b815291820187905260009182916001600160a01b031690635f8951e6906024016040805180830381865afa158015612c06573d6000803e3d6000fd5b505050506040513d601f19601f82011682018060405250810190612c2a9190614766565b60075460408051808201825260ff8086168252841660208201529051631751422560e01b81529395509193506001600160a01b031691631751422591612c77918c91908e9060040161478a565b600060405180830381600087803b158015612c9157600080fd5b505af1158015612ca5573d6000803e3d6000fd5b5050505050505b6012838381518110612cc057612cc0613cb0565b6020026020010151600001516016811115612cdd57612cdd613ed4565b50506013838381518110612cf357612cf3613cb0565b6020026020010151600001516016811115612d1057612d10613ed4565b50506015838381518110612d2657612d26613cb0565b6020026020010151600001516016811115612d4357612d43613ed4565b03612efb5760005b6004811015612ef9576004805486516020880151604051630dd43b9b60e31b81529384018a905260ff9182166024850152166044830152606482018390526000916001600160a01b0390911690636ea1dcd890608401606060405180830381865afa158015612dbe573d6000803e3d6000fd5b505050506040513d601f19601f82011682018060405250810190612de291906147bc565b9050600181604001516004811115612dfc57612dfc613ed4565b1480612e1d5750600281604001516004811115612e1b57612e1b613ed4565b145b80612e3d5750600381604001516004811115612e3b57612e3b613ed4565b145b15612ee657600460009054906101000a90046001600160a01b03166001600160a01b0316635921522388886000015189602001518660018b8b81518110612e8657612e86613cb0565b6020026020010151602001516040518763ffffffff1660e01b8152600401612eb396959493929190614831565b600060405180830381600087803b158015612ecd57600080fd5b505af1158015612ee1573d6000803e3d6000fd5b505050505b5080612ef181613cf8565b915050612d4b565b505b6014838381518110612f0f57612f0f613cb0565b6020026020010151600001516016811115612f2c57612f2c613ed4565b50505080612f3981613cf8565b9150506120d8565b505050505050565b6000610c72838361336b565b6000546001600160a01b031633146113785760405162461bcd60e51b815260206004820181905260248201527f4f776e61626c653a2063616c6c6572206973206e6f7420746865206f776e65726044820152606401610661565b600080546001600160a01b038381166001600160a01b0319831681178455604051919092169283917f8be0079c531659141344cd1fd0a4f28419497f9722a3daafe3b4186f6b6457e09190a35050565b6000600c828154811061301457613014613cb0565b60009182526020909120600654600a90920201600981015460048083015460405163268f1d4d60e01b8152918201929092526024810186905260ff808316604483015261010090920490911660648201529092506001600160a01b039091169063268f1d4d90608401600060405180830381600087803b15801561309757600080fd5b505af11580156130ab573d6000803e3d6000fd5b50505060068201805460ff1990811690915560088301805490911690555060018101546130d89083611cc6565b600354600c80546001600160a01b0390921691636d6ba75691908590811061310257613102613cb0565b90600052602060002090600a0201600101546040518263ffffffff1660e01b815260040161313291815260200190565b600060405180830381600087803b15801561314c57600080fd5b505af1158015613160573d6000803e3d6000fd5b50505050600b600c838154811061317957613179613cb0565b600091825260209091208254600a90920201600401805460ff92831660ff19821681178355935461ffff19909116909317610100938490049092169092021790555050565b6060816000036131e55750506040805180820190915260018152600360fc1b602082015290565b8160005b811561320f57806131f981613cf8565b91506132089050600a83613d6a565b91506131e9565b6000816001600160401b03811115613229576132296136a6565b6040519080825280601f01601f191660200182016040528015613253576020820181803683370190505b5090505b84156132be57613268600183613d11565b9150613275600a86614402565b613280906030613d7e565b60f81b81838151811061329557613295613cb0565b60200101906001600160f81b031916908160001a9053506132b7600a86613d6a565b9450613257565b949350505050565b60608160000180548060200260200160405190810160405280929190818152602001828054801561331657602002820191906000526020600020905b815481526020019060010190808311613302575b50505050509050919050565b6133678282604051602401613338929190614874565b60408051601f198184030181529190526020810180516001600160e01b0316632d839cb360e21b1790526133ba565b5050565b60008181526001830160205260408120546133b257508154600181810184556000848152602080822090930184905584548482528286019093526040902091909155610694565b506000610694565b80516a636f6e736f6c652e6c6f67602083016000808483855afa5050505050565b8015158114611b9957600080fd5b6000806000606084860312156133fe57600080fd5b83359250602084013591506040840135613417816133db565b809150509250925092565b60006020828403121561343457600080fd5b5035919050565b600081518084526020808501945080840160005b8381101561346b5781518752958201959082019060010161344f565b509495945050505050565b602081526000610c72602083018461343b565b8051600081810b84526020830151810b60208501526040830151810b60408501526060830151810b60608501526080830151810b608085015260a0830151810b60a085015260c0830151810b60c0850152505060e0810151151560e08301525050565b600081518084526020808501945080840160005b8381101561346b57815160ff1687529582019590820190600101613500565b602081526135396020820183516001600160a01b03169052565b6020820151604082015260408201516060820152600060608301516135616080840182613489565b50608083015161018061358681850183805160ff908116835260209182015116910152565b60a0850151805160ff9081166101c087015260209091015181166101e086015260c086015160000b61020086015260e086015181166102208601526101008601518116610240860152610120860151166102608501526101408501516102e061028086018190529092506135fe6103008601846134ec565b92506101608601516136166102a087018260ff169052565b509085015115156102c08501526101a09094015192909301919091525090565b6000806040838503121561364957600080fd5b50508035926020909101359150565b6000806000806080858703121561366e57600080fd5b5050823594602084013594506040840135936060013592509050565b80356001600160a01b03811681146136a157600080fd5b919050565b634e487b7160e01b600052604160045260246000fd5b604080519081016001600160401b03811182821017156136de576136de6136a6565b60405290565b60405160e081016001600160401b03811182821017156136de576136de6136a6565b60405161012081016001600160401b03811182821017156136de576136de6136a6565b604051608081016001600160401b03811182821017156136de576136de6136a6565b604051601f8201601f191681016001600160401b0381118282101715613773576137736136a6565b604052919050565b60006001600160401b03821115613794576137946136a6565b5060051b60200190565b600082601f8301126137af57600080fd5b813560206137c46137bf8361377b565b61374b565b82815260059290921b840181019181810190868411156137e357600080fd5b8286015b848110156137fe57803583529183019183016137e7565b509695505050505050565b60008060006060848603121561381e57600080fd5b8335925061382e6020850161368a565b915060408401356001600160401b0381111561384957600080fd5b6138558682870161379e565b9150509250925092565b60008060006060848603121561387457600080fd5b505081359360208301359350604090920135919050565b6000806040838503121561389e57600080fd5b8235915060208301356001600160401b038111156138bb57600080fd5b6138c78582860161379e565b9150509250929050565b60ff81168114611b9957600080fd5b6000604082840312156138f257600080fd5b6138fa6136bc565b90508135613907816138d1565b81526020820135613917816138d1565b602082015292915050565b6000806000806000806000610100888a03121561393e57600080fd5b873596506020880135955060408801359450606088013593506139648960808a016138e0565b925060c0880135915060e08801356006811061397f57600080fd5b8091505092959891949750929550565b6000806000608084860312156139a457600080fd5b6139ae85856138e0565b95604085013595506060909401359392505050565b600080600080600080600080610100898b0312156139e057600080fd5b6139e98961368a565b97506139f760208a0161368a565b9650613a0560408a0161368a565b9550613a1360608a0161368a565b9450613a2160808a0161368a565b9350613a2f60a08a0161368a565b9250613a3d60c08a0161368a565b9150613a4b60e08a0161368a565b90509295985092959890939650565b60008060608385031215613a6d57600080fd5b82359150613a7e84602085016138e0565b90509250929050565b604081016106948284805160ff908116835260209182015116910152565b60008060408385031215613ab857600080fd5b823591506020830135613aca816138d1565b809150509250929050565b60008060408385031215613ae857600080fd5b8235613af3816138d1565b91506020830135613aca816138d1565b60008060408385031215613b1657600080fd5b82356001600160401b03811115613b2c57600080fd5b613b388582860161379e565b95602094909401359450505050565b60008060008060008060e08789031215613b6057600080fd5b863595506020870135945060408701359350613b7f88606089016138e0565b925060a0870135915060c087013590509295509295509295565b60008060808385031215613bac57600080fd5b613bb684846138e0565b9150613a7e84604085016138e0565b600060208284031215613bd757600080fd5b610c728261368a565b6001600160a01b038e168152602081018d9052604081018c90526102c08101613c0c606083018d613489565b8a5160ff90811661016084015260209b8c015181166101808401528a5181166101a084015299909a015189166101c082015260009790970b6101e08801529487166102008701529286166102208601529085166102408501529093166102608301529115156102808201526102a00152949350505050565b602080825260129082015271139bdd0819d85b595cc818dbdb9d1c9858dd60721b604082015260600190565b634e487b7160e01b600052603260045260246000fd5b634e487b7160e01b600052601160045260246000fd5b6000600160ff1b8201613cf157613cf1613cc6565b5060000390565b600060018201613d0a57613d0a613cc6565b5060010190565b8181038181111561069457610694613cc6565b60ff828116828216039081111561069457610694613cc6565b808202811582820484141761069457610694613cc6565b634e487b7160e01b600052601260045260246000fd5b600082613d7957613d79613d54565b500490565b8082018082111561069457610694613cc6565b838152606060208201526000613daa606083018561343b565b905060018060a01b0383166040830152949350505050565b8181036000831280158383131683831282161715613de257613de2613cc6565b5092915050565b80516136a1816138d1565b80516136a1816133db565b60006101408284031215613e1257600080fd5b613e1a6136e4565b8251613e25816138d1565b8152602083810151613e36816138d1565b82820152605f84018513613e4957600080fd5b613e51613729565b8060c0860187811115613e6357600080fd5b604087015b81811015613e7f5780518452928401928401613e68565b50816040860152613e8f81613df4565b606086015250505050613ea460e08401613df4565b6080820152613eb66101008401613df4565b60a0820152613ec86101208401613df4565b60c08201529392505050565b634e487b7160e01b600052602160045260246000fd5b600082601f830112613efb57600080fd5b81516020613f0b6137bf8361377b565b82815260069290921b84018101918181019086841115613f2a57600080fd5b8286015b848110156137fe5760408189031215613f475760008081fd5b613f4f6136bc565b815160178110613f5f5760008081fd5b81528185015185820152835291830191604001613f2e565b600060208284031215613f8957600080fd5b81516001600160401b0380821115613fa057600080fd5b9083019060e08286031215613fb457600080fd5b613fbc6136e4565b82518152613fcc60208401613df4565b6020820152613fdd60408401613de9565b6040820152613fee60608401613de9565b606082015260808301518281111561400557600080fd5b61401187828601613eea565b60808301525060a08301518281111561402957600080fd5b61403587828601613eea565b60a08301525060c08301518281111561404d57600080fd5b61405987828601613eea565b60c08301525095945050505050565b6006811061407857614078613ed4565b9052565b82815260408101610c726020830184614068565b6040810161409e8285614068565b8260208301529392505050565b600060208083850312156140be57600080fd5b82516001600160401b03808211156140d557600080fd5b818501915085601f8301126140e957600080fd5b81516140f76137bf8261377b565b81815260059190911b8301840190848101908883111561411657600080fd5b8585015b8381101561414e578051858111156141325760008081fd5b6141408b89838a0101613eea565b84525091860191860161411a565b5098975050505050505050565b600081518084526020808501945080840160005b8381101561346b57815180516017811061418b5761418b613ed4565b8852830151838801526040909601959082019060010161416f565b84815283602082015260806040820152825160808201526020830151151560a082015260ff60408401511660c0820152600060608401516141ec60e084018260ff169052565b50608084015160e061010084015261420861016084018261415b565b905060a0850151607f198085840301610120860152614227838361415b565b925060c08701519150808584030161014086015250614246828261415b565b9150508281036060840152610b12818561415b565b60ff818116838216019081111561069457610694613cc6565b60005b8381101561428f578181015183820152602001614277565b50506000910152565b72024b73b30b634b2103234b932b1ba34b7b71d1606d1b8152600082516142c6816013850160208701614274565b9190910160130192915050565b600081518084526142eb816020860160208601614274565b601f01601f19169290920160200192915050565b602081526000610c7260208301846142d3565b600181815b8085111561434d57816000190482111561433357614333613cc6565b8085161561434057918102915b93841c9390800290614317565b509250929050565b60008261436457506001610694565b8161437157506000610694565b81600181146143875760028114614391576143ad565b6001915050610694565b60ff8411156143a2576143a2613cc6565b50506001821b610694565b5060208310610133831016604e8410600b84101617156143d0575081810a610694565b6143da8383614312565b80600019048211156143ee576143ee613cc6565b029392505050565b6000610c728383614355565b60008261441157614411613d54565b500690565b600060ff821660ff810361442c5761442c613cc6565b60010192915050565b8051600081900b81146136a157600080fd5b600061010080838503121561445b57600080fd5b604051908101906001600160401b038211818310171561447d5761447d6136a6565b8160405280925061448d84614435565b815261449b60208501614435565b60208201526144ac60408501614435565b60408201526144bd60608501614435565b60608201526144ce60808501614435565b60808201526144df60a08501614435565b60a08201526144f060c08501614435565b60c082015260e08401519150614505826133db565b60e0015292915050565b6000610200828403121561452257600080fd5b61452a613706565b82518152602083015160208201526040830151604082015261454f8460608501614447565b60608201526145616101608401613de9565b60808201526145736101808401613de9565b60a08201526145856101a08401613de9565b60c08201526145976101c08401613de9565b60e08201526145a96101e08401613df4565b6101008201529392505050565b600061010082840312156145c957600080fd5b610c728383614447565b600081810b9083900b01607f8113607f198212171561069457610694613cc6565b600082810b9082900b03607f198112607f8213171561069457610694613cc6565b634e487b7160e01b600052600160045260246000fd5b60006080828403121561463d57600080fd5b82601f83011261464c57600080fd5b614654613729565b80608084018581111561466657600080fd5b845b8181101561468957805161467b816133db565b845260209384019301614668565b509095945050505050565b84815260808101600985106146ab576146ab613ed4565b602082019490945260ff92831660408201529116606090910152919050565b600060208083850312156146dd57600080fd5b82516001600160401b038111156146f357600080fd5b8301601f8101851361470457600080fd5b80516147126137bf8261377b565b81815260059190911b8201830190838101908783111561473157600080fd5b928401925b82841015610b1257835182529284019290840190614736565b60008161475e5761475e613cc6565b506000190190565b6000806040838503121561477957600080fd5b505080516020909101519092909150565b838152608081016147ae6020830185805160ff908116835260209182015116910152565b826060830152949350505050565b6000606082840312156147ce57600080fd5b604051606081018181106001600160401b03821117156147f0576147f06136a6565b60405282516147fe816138d1565b8152602083015161480e816138d1565b602082015260408301516005811061482557600080fd5b60408201529392505050565b86815260ff8681166020830152851660408201526060810184905260c081016005841061486057614860613ed4565b608082019390935260a00152949350505050565b60408152600061488760408301856142d3565b9050826020830152939250505056fe854f143c4475e8754c8844dbfe9928cf11388710860ea82bb21c19da10f6c73da26469706673582212207a9f7c21f6994152650decbc85534d9a312f7f564fa40580246505fb8d8f162964736f6c63430008110033",
  "devdoc": {
    "kind": "dev",
    "methods": {
      "owner()": {
        "details": "Returns the address of the current owner."
      },
      "renounceOwnership()": {
        "details": "Leaves the contract without owner. It will not be possible to call `onlyOwner` functions anymore. Can only be called by the current owner. NOTE: Renouncing ownership will leave the contract without an owner, thereby removing any functionality that is only available to the owner."
      },
      "transferOwnership(address)": {
        "details": "Transfers ownership of the contract to a new account (`newOwner`). Can only be called by the current owner."
      }
    },
    "version": 1
  },
  "userdoc": {
    "kind": "user",
    "methods": {},
    "version": 1
  },
  "storageLayout": {
    "storage": [
      {
        "astId": 7,
        "contract": "contracts/BCPlayers.sol:BCPlayers",
        "label": "_owner",
        "offset": 0,
        "slot": "0",
        "type": "t_address"
      },
      {
        "astId": 9026,
        "contract": "contracts/BCPlayers.sol:BCPlayers",
        "label": "TODO_randomSeed",
        "offset": 0,
        "slot": "1",
        "type": "t_uint256"
      },
      {
        "astId": 9031,
        "contract": "contracts/BCPlayers.sol:BCPlayers",
        "label": "gameToEventBlocks",
        "offset": 0,
        "slot": "2",
        "type": "t_mapping(t_uint256,t_struct(UintSet)2262_storage)"
      },
      {
        "astId": 6921,
        "contract": "contracts/BCPlayers.sol:BCPlayers",
        "label": "chars",
        "offset": 0,
        "slot": "3",
        "type": "t_contract(CharInterface)6709"
      },
      {
        "astId": 6924,
        "contract": "contracts/BCPlayers.sol:BCPlayers",
        "label": "maps",
        "offset": 0,
        "slot": "4",
        "type": "t_contract(MapInterface)6842"
      },
      {
        "astId": 6927,
        "contract": "contracts/BCPlayers.sol:BCPlayers",
        "label": "bcEvents",
        "offset": 0,
        "slot": "5",
        "type": "t_contract(EventsInterface)6687"
      },
      {
        "astId": 6930,
        "contract": "contracts/BCPlayers.sol:BCPlayers",
        "label": "items",
        "offset": 0,
        "slot": "6",
        "type": "t_contract(ItemsInterface)6887"
      },
      {
        "astId": 6933,
        "contract": "contracts/BCPlayers.sol:BCPlayers",
        "label": "games",
        "offset": 0,
        "slot": "7",
        "type": "t_contract(GamesInterface)6910"
      },
      {
        "astId": 6935,
        "contract": "contracts/BCPlayers.sol:BCPlayers",
        "label": "lobbiesAddress",
        "offset": 0,
        "slot": "8",
        "type": "t_address"
      },
      {
        "astId": 6937,
        "contract": "contracts/BCPlayers.sol:BCPlayers",
        "label": "charsAddress",
        "offset": 0,
        "slot": "9",
        "type": "t_address"
      },
      {
        "astId": 6939,
        "contract": "contracts/BCPlayers.sol:BCPlayers",
        "label": "actionsAddress",
        "offset": 0,
        "slot": "10",
        "type": "t_address"
      },
      {
        "astId": 7013,
        "contract": "contracts/BCPlayers.sol:BCPlayers",
        "label": "StartLocation",
        "offset": 0,
        "slot": "11",
        "type": "t_struct(Position)8802_storage"
      },
      {
        "astId": 7017,
        "contract": "contracts/BCPlayers.sol:BCPlayers",
        "label": "players",
        "offset": 0,
        "slot": "12",
        "type": "t_array(t_struct(Player)8773_storage)dyn_storage"
      }
    ],
    "types": {
      "t_address": {
        "encoding": "inplace",
        "label": "address",
        "numberOfBytes": "20"
      },
      "t_array(t_bytes32)dyn_storage": {
        "base": "t_bytes32",
        "encoding": "dynamic_array",
        "label": "bytes32[]",
        "numberOfBytes": "32"
      },
      "t_array(t_struct(Player)8773_storage)dyn_storage": {
        "base": "t_struct(Player)8773_storage",
        "encoding": "dynamic_array",
        "label": "struct BCTypes.Player[]",
        "numberOfBytes": "32"
      },
      "t_array(t_uint8)dyn_storage": {
        "base": "t_uint8",
        "encoding": "dynamic_array",
        "label": "uint8[]",
        "numberOfBytes": "32"
      },
      "t_bool": {
        "encoding": "inplace",
        "label": "bool",
        "numberOfBytes": "1"
      },
      "t_bytes32": {
        "encoding": "inplace",
        "label": "bytes32",
        "numberOfBytes": "32"
      },
      "t_contract(CharInterface)6709": {
        "encoding": "inplace",
        "label": "contract CharInterface",
        "numberOfBytes": "20"
      },
      "t_contract(EventsInterface)6687": {
        "encoding": "inplace",
        "label": "contract EventsInterface",
        "numberOfBytes": "20"
      },
      "t_contract(GamesInterface)6910": {
        "encoding": "inplace",
        "label": "contract GamesInterface",
        "numberOfBytes": "20"
      },
      "t_contract(ItemsInterface)6887": {
        "encoding": "inplace",
        "label": "contract ItemsInterface",
        "numberOfBytes": "20"
      },
      "t_contract(MapInterface)6842": {
        "encoding": "inplace",
        "label": "contract MapInterface",
        "numberOfBytes": "20"
      },
      "t_int8": {
        "encoding": "inplace",
        "label": "int8",
        "numberOfBytes": "1"
      },
      "t_mapping(t_bytes32,t_uint256)": {
        "encoding": "mapping",
        "key": "t_bytes32",
        "label": "mapping(bytes32 => uint256)",
        "numberOfBytes": "32",
        "value": "t_uint256"
      },
      "t_mapping(t_uint256,t_struct(UintSet)2262_storage)": {
        "encoding": "mapping",
        "key": "t_uint256",
        "label": "mapping(uint256 => struct EnumerableSet.UintSet)",
        "numberOfBytes": "32",
        "value": "t_struct(UintSet)2262_storage"
      },
      "t_struct(Player)8773_storage": {
        "encoding": "inplace",
        "label": "struct BCTypes.Player",
        "members": [
          {
            "astId": 8742,
            "contract": "contracts/BCPlayers.sol:BCPlayers",
            "label": "owner",
            "offset": 0,
            "slot": "0",
            "type": "t_address"
          },
          {
            "astId": 8744,
            "contract": "contracts/BCPlayers.sol:BCPlayers",
            "label": "characterId",
            "offset": 0,
            "slot": "1",
            "type": "t_uint256"
          },
          {
            "astId": 8746,
            "contract": "contracts/BCPlayers.sol:BCPlayers",
            "label": "id",
            "offset": 0,
            "slot": "2",
            "type": "t_uint256"
          },
          {
            "astId": 8749,
            "contract": "contracts/BCPlayers.sol:BCPlayers",
            "label": "currentTraits",
            "offset": 0,
            "slot": "3",
            "type": "t_struct(Traits)8940_storage"
          },
          {
            "astId": 8752,
            "contract": "contracts/BCPlayers.sol:BCPlayers",
            "label": "position",
            "offset": 0,
            "slot": "4",
            "type": "t_struct(Position)8802_storage"
          },
          {
            "astId": 8755,
            "contract": "contracts/BCPlayers.sol:BCPlayers",
            "label": "lastPos",
            "offset": 0,
            "slot": "5",
            "type": "t_struct(Position)8802_storage"
          },
          {
            "astId": 8757,
            "contract": "contracts/BCPlayers.sol:BCPlayers",
            "label": "healthDmgTaken",
            "offset": 0,
            "slot": "6",
            "type": "t_int8"
          },
          {
            "astId": 8759,
            "contract": "contracts/BCPlayers.sol:BCPlayers",
            "label": "armorDmgTaken",
            "offset": 1,
            "slot": "6",
            "type": "t_uint8"
          },
          {
            "astId": 8761,
            "contract": "contracts/BCPlayers.sol:BCPlayers",
            "label": "actionsTaken",
            "offset": 2,
            "slot": "6",
            "type": "t_uint8"
          },
          {
            "astId": 8763,
            "contract": "contracts/BCPlayers.sol:BCPlayers",
            "label": "dataTokens",
            "offset": 3,
            "slot": "6",
            "type": "t_uint8"
          },
          {
            "astId": 8766,
            "contract": "contracts/BCPlayers.sol:BCPlayers",
            "label": "currentEffects",
            "offset": 0,
            "slot": "7",
            "type": "t_array(t_uint8)dyn_storage"
          },
          {
            "astId": 8768,
            "contract": "contracts/BCPlayers.sol:BCPlayers",
            "label": "numItemsHeld",
            "offset": 0,
            "slot": "8",
            "type": "t_uint8"
          },
          {
            "astId": 8770,
            "contract": "contracts/BCPlayers.sol:BCPlayers",
            "label": "dead",
            "offset": 1,
            "slot": "8",
            "type": "t_bool"
          },
          {
            "astId": 8772,
            "contract": "contracts/BCPlayers.sol:BCPlayers",
            "label": "gameId",
            "offset": 0,
            "slot": "9",
            "type": "t_uint256"
          }
        ],
        "numberOfBytes": "320"
      },
      "t_struct(Position)8802_storage": {
        "encoding": "inplace",
        "label": "struct BCTypes.Position",
        "members": [
          {
            "astId": 8799,
            "contract": "contracts/BCPlayers.sol:BCPlayers",
            "label": "row",
            "offset": 0,
            "slot": "0",
            "type": "t_uint8"
          },
          {
            "astId": 8801,
            "contract": "contracts/BCPlayers.sol:BCPlayers",
            "label": "col",
            "offset": 1,
            "slot": "0",
            "type": "t_uint8"
          }
        ],
        "numberOfBytes": "32"
      },
      "t_struct(Set)1804_storage": {
        "encoding": "inplace",
        "label": "struct EnumerableSet.Set",
        "members": [
          {
            "astId": 1799,
            "contract": "contracts/BCPlayers.sol:BCPlayers",
            "label": "_values",
            "offset": 0,
            "slot": "0",
            "type": "t_array(t_bytes32)dyn_storage"
          },
          {
            "astId": 1803,
            "contract": "contracts/BCPlayers.sol:BCPlayers",
            "label": "_indexes",
            "offset": 0,
            "slot": "1",
            "type": "t_mapping(t_bytes32,t_uint256)"
          }
        ],
        "numberOfBytes": "64"
      },
      "t_struct(Traits)8940_storage": {
        "encoding": "inplace",
        "label": "struct BCTypes.Traits",
        "members": [
          {
            "astId": 8925,
            "contract": "contracts/BCPlayers.sol:BCPlayers",
            "label": "health",
            "offset": 0,
            "slot": "0",
            "type": "t_int8"
          },
          {
            "astId": 8927,
            "contract": "contracts/BCPlayers.sol:BCPlayers",
            "label": "carry",
            "offset": 1,
            "slot": "0",
            "type": "t_int8"
          },
          {
            "astId": 8929,
            "contract": "contracts/BCPlayers.sol:BCPlayers",
            "label": "defense",
            "offset": 2,
            "slot": "0",
            "type": "t_int8"
          },
          {
            "astId": 8931,
            "contract": "contracts/BCPlayers.sol:BCPlayers",
            "label": "hack",
            "offset": 3,
            "slot": "0",
            "type": "t_int8"
          },
          {
            "astId": 8933,
            "contract": "contracts/BCPlayers.sol:BCPlayers",
            "label": "breach",
            "offset": 4,
            "slot": "0",
            "type": "t_int8"
          },
          {
            "astId": 8935,
            "contract": "contracts/BCPlayers.sol:BCPlayers",
            "label": "shoot",
            "offset": 5,
            "slot": "0",
            "type": "t_int8"
          },
          {
            "astId": 8937,
            "contract": "contracts/BCPlayers.sol:BCPlayers",
            "label": "melee",
            "offset": 6,
            "slot": "0",
            "type": "t_int8"
          },
          {
            "astId": 8939,
            "contract": "contracts/BCPlayers.sol:BCPlayers",
            "label": "hasGun",
            "offset": 7,
            "slot": "0",
            "type": "t_bool"
          }
        ],
        "numberOfBytes": "32"
      },
      "t_struct(UintSet)2262_storage": {
        "encoding": "inplace",
        "label": "struct EnumerableSet.UintSet",
        "members": [
          {
            "astId": 2261,
            "contract": "contracts/BCPlayers.sol:BCPlayers",
            "label": "_inner",
            "offset": 0,
            "slot": "0",
            "type": "t_struct(Set)1804_storage"
          }
        ],
        "numberOfBytes": "64"
      },
      "t_uint256": {
        "encoding": "inplace",
        "label": "uint256",
        "numberOfBytes": "32"
      },
      "t_uint8": {
        "encoding": "inplace",
        "label": "uint8",
        "numberOfBytes": "1"
      }
    }
  }
}