{
  "address": "0xfe7126D92dbbC07b3F76D694fcDa9939E07D42bC",
  "abi": [
    {
      "inputs": [],
      "stateMutability": "nonpayable",
      "type": "constructor"
    },
    {
      "anonymous": false,
      "inputs": [
        {
          "indexed": false,
          "internalType": "uint256",
          "name": "gameId",
          "type": "uint256"
        },
        {
          "indexed": false,
          "internalType": "uint256",
          "name": "roll",
          "type": "uint256"
        },
        {
          "indexed": false,
          "internalType": "uint256",
          "name": "forValue",
          "type": "uint256"
        },
        {
          "indexed": false,
          "internalType": "uint256",
          "name": "against",
          "type": "uint256"
        }
      ],
      "name": "ChallengeEvent",
      "type": "event"
    },
    {
      "anonymous": false,
      "inputs": [
        {
          "indexed": false,
          "internalType": "uint256",
          "name": "gameId",
          "type": "uint256"
        },
        {
          "indexed": false,
          "internalType": "uint256",
          "name": "roll",
          "type": "uint256"
        }
      ],
      "name": "DiceRollEvent",
      "type": "event"
    },
    {
      "anonymous": false,
      "inputs": [
        {
          "indexed": false,
          "internalType": "uint256",
          "name": "gameId",
          "type": "uint256"
        },
        {
          "indexed": false,
          "internalType": "uint256",
          "name": "playerId",
          "type": "uint256"
        },
        {
          "components": [
            {
              "internalType": "uint256",
              "name": "id",
              "type": "uint256"
            },
            {
              "internalType": "bool",
              "name": "permanent",
              "type": "bool"
            },
            {
              "internalType": "uint8",
              "name": "rollForLow",
              "type": "uint8"
            },
            {
              "internalType": "uint8",
              "name": "rollForHigh",
              "type": "uint8"
            },
            {
              "components": [
                {
                  "internalType": "enum BCEvents.EffectTypes",
                  "name": "effect",
                  "type": "uint8"
                },
                {
                  "internalType": "uint256",
                  "name": "value",
                  "type": "uint256"
                }
              ],
              "internalType": "struct BCEvents.Effect[]",
              "name": "defaultEffect",
              "type": "tuple[]"
            },
            {
              "components": [
                {
                  "internalType": "enum BCEvents.EffectTypes",
                  "name": "effect",
                  "type": "uint8"
                },
                {
                  "internalType": "uint256",
                  "name": "value",
                  "type": "uint256"
                }
              ],
              "internalType": "struct BCEvents.Effect[]",
              "name": "lowEffect",
              "type": "tuple[]"
            },
            {
              "components": [
                {
                  "internalType": "enum BCEvents.EffectTypes",
                  "name": "effect",
                  "type": "uint8"
                },
                {
                  "internalType": "uint256",
                  "name": "value",
                  "type": "uint256"
                }
              ],
              "internalType": "struct BCEvents.Effect[]",
              "name": "highEffect",
              "type": "tuple[]"
            }
          ],
          "indexed": false,
          "internalType": "struct BCEvents.BCEvent",
          "name": "bcEvent",
          "type": "tuple"
        },
        {
          "components": [
            {
              "internalType": "enum BCEvents.EffectTypes",
              "name": "effect",
              "type": "uint8"
            },
            {
              "internalType": "uint256",
              "name": "value",
              "type": "uint256"
            }
          ],
          "indexed": false,
          "internalType": "struct BCEvents.Effect[]",
          "name": "appliedBCEffects",
          "type": "tuple[]"
        }
      ],
      "name": "EventResolvedEvent",
      "type": "event"
    },
    {
      "anonymous": false,
      "inputs": [
        {
          "indexed": true,
          "internalType": "address",
          "name": "previousOwner",
          "type": "address"
        },
        {
          "indexed": true,
          "internalType": "address",
          "name": "newOwner",
          "type": "address"
        }
      ],
      "name": "OwnershipTransferred",
      "type": "event"
    },
    {
      "inputs": [],
      "name": "StartLocation",
      "outputs": [
        {
          "internalType": "uint8",
          "name": "row",
          "type": "uint8"
        },
        {
          "internalType": "uint8",
          "name": "col",
          "type": "uint8"
        }
      ],
      "stateMutability": "view",
      "type": "function"
    },
    {
      "inputs": [
        {
          "internalType": "int256",
          "name": "x",
          "type": "int256"
        }
      ],
      "name": "abs",
      "outputs": [
        {
          "internalType": "int256",
          "name": "",
          "type": "int256"
        }
      ],
      "stateMutability": "pure",
      "type": "function"
    },
    {
      "inputs": [],
      "name": "actionsAddress",
      "outputs": [
        {
          "internalType": "address",
          "name": "",
          "type": "address"
        }
      ],
      "stateMutability": "view",
      "type": "function"
    },
    {
      "inputs": [
        {
          "internalType": "uint256",
          "name": "_charId",
          "type": "uint256"
        },
        {
          "internalType": "address",
          "name": "_owner",
          "type": "address"
        },
        {
          "internalType": "uint256[]",
          "name": "_itemIds",
          "type": "uint256[]"
        }
      ],
      "name": "addPlayer",
      "outputs": [
        {
          "internalType": "uint256",
          "name": "",
          "type": "uint256"
        }
      ],
      "stateMutability": "nonpayable",
      "type": "function"
    },
    {
      "inputs": [
        {
          "internalType": "uint256",
          "name": "_mapId",
          "type": "uint256"
        },
        {
          "internalType": "uint256[]",
          "name": "_players",
          "type": "uint256[]"
        }
      ],
      "name": "applyHazardDamage",
      "outputs": [],
      "stateMutability": "nonpayable",
      "type": "function"
    },
    {
      "inputs": [],
      "name": "bcEvents",
      "outputs": [
        {
          "internalType": "contract EventsInterface",
          "name": "",
          "type": "address"
        }
      ],
      "stateMutability": "view",
      "type": "function"
    },
    {
      "inputs": [],
      "name": "chars",
      "outputs": [
        {
          "internalType": "contract CharInterface",
          "name": "",
          "type": "address"
        }
      ],
      "stateMutability": "view",
      "type": "function"
    },
    {
      "inputs": [],
      "name": "charsAddress",
      "outputs": [
        {
          "internalType": "address",
          "name": "",
          "type": "address"
        }
      ],
      "stateMutability": "view",
      "type": "function"
    },
    {
      "inputs": [
        {
          "internalType": "uint256",
          "name": "_playerId",
          "type": "uint256"
        },
        {
          "internalType": "uint256",
          "name": "_num",
          "type": "uint256"
        }
      ],
      "name": "decrementNumItemsHeld",
      "outputs": [],
      "stateMutability": "nonpayable",
      "type": "function"
    },
    {
      "inputs": [
        {
          "internalType": "uint256",
          "name": "_playerId",
          "type": "uint256"
        },
        {
          "internalType": "uint256",
          "name": "_gameId",
          "type": "uint256"
        },
        {
          "internalType": "uint256",
          "name": "_mapId",
          "type": "uint256"
        },
        {
          "components": [
            {
              "internalType": "uint8",
              "name": "row",
              "type": "uint8"
            },
            {
              "internalType": "uint8",
              "name": "col",
              "type": "uint8"
            }
          ],
          "internalType": "struct BCTypes.Position",
          "name": "_position",
          "type": "tuple"
        },
        {
          "internalType": "uint256",
          "name": "_eventId",
          "type": "uint256"
        },
        {
          "internalType": "uint256",
          "name": "_effectNum",
          "type": "uint256"
        }
      ],
      "name": "extApplyEffect",
      "outputs": [],
      "stateMutability": "nonpayable",
      "type": "function"
    },
    {
      "inputs": [
        {
          "internalType": "uint256",
          "name": "_choice",
          "type": "uint256"
        },
        {
          "internalType": "uint256",
          "name": "_eventPlayerId",
          "type": "uint256"
        },
        {
          "internalType": "uint256",
          "name": "_gameId",
          "type": "uint256"
        },
        {
          "internalType": "uint256",
          "name": "_mapId",
          "type": "uint256"
        },
        {
          "components": [
            {
              "internalType": "uint8",
              "name": "row",
              "type": "uint8"
            },
            {
              "internalType": "uint8",
              "name": "col",
              "type": "uint8"
            }
          ],
          "internalType": "struct BCTypes.Position",
          "name": "_position",
          "type": "tuple"
        },
        {
          "internalType": "uint256",
          "name": "_eventNumber",
          "type": "uint256"
        },
        {
          "internalType": "enum BCTypes.BCEventType",
          "name": "_eventType",
          "type": "uint8"
        }
      ],
      "name": "extChooseEffect",
      "outputs": [],
      "stateMutability": "nonpayable",
      "type": "function"
    },
    {
      "inputs": [
        {
          "internalType": "uint256",
          "name": "_id",
          "type": "uint256"
        }
      ],
      "name": "extGetActionsTaken",
      "outputs": [
        {
          "internalType": "uint256",
          "name": "",
          "type": "uint256"
        }
      ],
      "stateMutability": "view",
      "type": "function"
    },
    {
      "inputs": [
        {
          "internalType": "uint256",
          "name": "_id",
          "type": "uint256"
        }
      ],
      "name": "extGetPlayer",
      "outputs": [
        {
          "components": [
            {
              "internalType": "address",
              "name": "owner",
              "type": "address"
            },
            {
              "internalType": "uint256",
              "name": "characterId",
              "type": "uint256"
            },
            {
              "internalType": "uint256",
              "name": "id",
              "type": "uint256"
            },
            {
              "components": [
                {
                  "internalType": "int8",
                  "name": "health",
                  "type": "int8"
                },
                {
                  "internalType": "int8",
                  "name": "carry",
                  "type": "int8"
                },
                {
                  "internalType": "int8",
                  "name": "defense",
                  "type": "int8"
                },
                {
                  "internalType": "int8",
                  "name": "hack",
                  "type": "int8"
                },
                {
                  "internalType": "int8",
                  "name": "breach",
                  "type": "int8"
                },
                {
                  "internalType": "int8",
                  "name": "shoot",
                  "type": "int8"
                },
                {
                  "internalType": "int8",
                  "name": "melee",
                  "type": "int8"
                },
                {
                  "internalType": "bool",
                  "name": "hasGun",
                  "type": "bool"
                }
              ],
              "internalType": "struct BCTypes.Traits",
              "name": "currentTraits",
              "type": "tuple"
            },
            {
              "components": [
                {
                  "internalType": "uint8",
                  "name": "row",
                  "type": "uint8"
                },
                {
                  "internalType": "uint8",
                  "name": "col",
                  "type": "uint8"
                }
              ],
              "internalType": "struct BCTypes.Position",
              "name": "position",
              "type": "tuple"
            },
            {
              "components": [
                {
                  "internalType": "uint8",
                  "name": "row",
                  "type": "uint8"
                },
                {
                  "internalType": "uint8",
                  "name": "col",
                  "type": "uint8"
                }
              ],
              "internalType": "struct BCTypes.Position",
              "name": "lastPos",
              "type": "tuple"
            },
            {
              "internalType": "int8",
              "name": "healthDmgTaken",
              "type": "int8"
            },
            {
              "internalType": "uint8",
              "name": "armorDmgTaken",
              "type": "uint8"
            },
            {
              "internalType": "uint8",
              "name": "actionsTaken",
              "type": "uint8"
            },
            {
              "internalType": "uint8",
              "name": "dataTokens",
              "type": "uint8"
            },
            {
              "internalType": "uint8[]",
              "name": "currentEffects",
              "type": "uint8[]"
            },
            {
              "internalType": "uint8",
              "name": "numItemsHeld",
              "type": "uint8"
            },
            {
              "internalType": "bool",
              "name": "dead",
              "type": "bool"
            },
            {
              "internalType": "uint256",
              "name": "gameId",
              "type": "uint256"
            }
          ],
          "internalType": "struct BCTypes.Player",
          "name": "",
          "type": "tuple"
        }
      ],
      "stateMutability": "view",
      "type": "function"
    },
    {
      "inputs": [
        {
          "internalType": "uint256",
          "name": "_id",
          "type": "uint256"
        }
      ],
      "name": "extGetPlayerOwner",
      "outputs": [
        {
          "internalType": "address",
          "name": "",
          "type": "address"
        }
      ],
      "stateMutability": "view",
      "type": "function"
    },
    {
      "inputs": [
        {
          "internalType": "uint256",
          "name": "_playerId",
          "type": "uint256"
        },
        {
          "internalType": "uint256",
          "name": "_amount",
          "type": "uint256"
        },
        {
          "internalType": "bool",
          "name": "_hazard",
          "type": "bool"
        }
      ],
      "name": "extHurtPlayer",
      "outputs": [],
      "stateMutability": "nonpayable",
      "type": "function"
    },
    {
      "inputs": [
        {
          "components": [
            {
              "internalType": "uint8",
              "name": "row",
              "type": "uint8"
            },
            {
              "internalType": "uint8",
              "name": "col",
              "type": "uint8"
            }
          ],
          "internalType": "struct BCTypes.Position",
          "name": "_position",
          "type": "tuple"
        },
        {
          "internalType": "uint256",
          "name": "_playerId",
          "type": "uint256"
        },
        {
          "internalType": "uint256",
          "name": "_mapId",
          "type": "uint256"
        }
      ],
      "name": "extMovePlayer",
      "outputs": [
        {
          "internalType": "bool",
          "name": "",
          "type": "bool"
        }
      ],
      "stateMutability": "nonpayable",
      "type": "function"
    },
    {
      "inputs": [],
      "name": "games",
      "outputs": [
        {
          "internalType": "contract GamesInterface",
          "name": "",
          "type": "address"
        }
      ],
      "stateMutability": "view",
      "type": "function"
    },
    {
      "inputs": [
        {
          "components": [
            {
              "internalType": "uint8",
              "name": "row",
              "type": "uint8"
            },
            {
              "internalType": "uint8",
              "name": "col",
              "type": "uint8"
            }
          ],
          "internalType": "struct BCTypes.Position",
          "name": "_firstRoom",
          "type": "tuple"
        },
        {
          "components": [
            {
              "internalType": "uint8",
              "name": "row",
              "type": "uint8"
            },
            {
              "internalType": "uint8",
              "name": "col",
              "type": "uint8"
            }
          ],
          "internalType": "struct BCTypes.Position",
          "name": "_secondRoom",
          "type": "tuple"
        }
      ],
      "name": "getDirectionBetween",
      "outputs": [
        {
          "internalType": "uint256",
          "name": "",
          "type": "uint256"
        }
      ],
      "stateMutability": "pure",
      "type": "function"
    },
    {
      "inputs": [
        {
          "internalType": "uint256",
          "name": "_direction",
          "type": "uint256"
        },
        {
          "components": [
            {
              "internalType": "uint8",
              "name": "row",
              "type": "uint8"
            },
            {
              "internalType": "uint8",
              "name": "col",
              "type": "uint8"
            }
          ],
          "internalType": "struct BCTypes.Position",
          "name": "_start",
          "type": "tuple"
        }
      ],
      "name": "getNeighborRoom",
      "outputs": [
        {
          "components": [
            {
              "internalType": "uint8",
              "name": "row",
              "type": "uint8"
            },
            {
              "internalType": "uint8",
              "name": "col",
              "type": "uint8"
            }
          ],
          "internalType": "struct BCTypes.Position",
          "name": "",
          "type": "tuple"
        }
      ],
      "stateMutability": "pure",
      "type": "function"
    },
    {
      "inputs": [
        {
          "internalType": "uint256",
          "name": "_traitNum",
          "type": "uint256"
        },
        {
          "internalType": "uint256",
          "name": "_subTraitNum",
          "type": "uint256"
        }
      ],
      "name": "getUIOffset",
      "outputs": [
        {
          "internalType": "uint256",
          "name": "",
          "type": "uint256"
        }
      ],
      "stateMutability": "pure",
      "type": "function"
    },
    {
      "inputs": [
        {
          "internalType": "uint256",
          "name": "_playerId",
          "type": "uint256"
        },
        {
          "internalType": "uint8",
          "name": "_amount",
          "type": "uint8"
        }
      ],
      "name": "grantDataToPlayer",
      "outputs": [],
      "stateMutability": "nonpayable",
      "type": "function"
    },
    {
      "inputs": [
        {
          "internalType": "uint256",
          "name": "_playerId",
          "type": "uint256"
        },
        {
          "internalType": "uint256",
          "name": "_num",
          "type": "uint256"
        }
      ],
      "name": "incrementNumItemsHeld",
      "outputs": [],
      "stateMutability": "nonpayable",
      "type": "function"
    },
    {
      "inputs": [
        {
          "internalType": "uint256",
          "name": "_playerId",
          "type": "uint256"
        }
      ],
      "name": "incrementPlayerActions",
      "outputs": [],
      "stateMutability": "nonpayable",
      "type": "function"
    },
    {
      "inputs": [],
      "name": "items",
      "outputs": [
        {
          "internalType": "contract ItemsInterface",
          "name": "",
          "type": "address"
        }
      ],
      "stateMutability": "view",
      "type": "function"
    },
    {
      "inputs": [],
      "name": "lobbiesAddress",
      "outputs": [
        {
          "internalType": "address",
          "name": "",
          "type": "address"
        }
      ],
      "stateMutability": "view",
      "type": "function"
    },
    {
      "inputs": [
        {
          "components": [
            {
              "internalType": "uint8",
              "name": "row",
              "type": "uint8"
            },
            {
              "internalType": "uint8",
              "name": "col",
              "type": "uint8"
            }
          ],
          "internalType": "struct BCTypes.Position",
          "name": "_pos1",
          "type": "tuple"
        },
        {
          "components": [
            {
              "internalType": "uint8",
              "name": "row",
              "type": "uint8"
            },
            {
              "internalType": "uint8",
              "name": "col",
              "type": "uint8"
            }
          ],
          "internalType": "struct BCTypes.Position",
          "name": "_pos2",
          "type": "tuple"
        }
      ],
      "name": "manhattanDistance",
      "outputs": [
        {
          "internalType": "uint256",
          "name": "",
          "type": "uint256"
        }
      ],
      "stateMutability": "pure",
      "type": "function"
    },
    {
      "inputs": [],
      "name": "maps",
      "outputs": [
        {
          "internalType": "contract MapInterface",
          "name": "",
          "type": "address"
        }
      ],
      "stateMutability": "view",
      "type": "function"
    },
    {
      "inputs": [
        {
          "internalType": "uint256",
          "name": "_min",
          "type": "uint256"
        },
        {
          "internalType": "uint256",
          "name": "_max",
          "type": "uint256"
        },
        {
          "internalType": "uint256",
          "name": "_val",
          "type": "uint256"
        },
        {
          "internalType": "uint256",
          "name": "_valMax",
          "type": "uint256"
        }
      ],
      "name": "normalizeToSmallRange",
      "outputs": [
        {
          "internalType": "uint8",
          "name": "",
          "type": "uint8"
        }
      ],
      "stateMutability": "pure",
      "type": "function"
    },
    {
      "inputs": [
        {
          "internalType": "uint256",
          "name": "_direction",
          "type": "uint256"
        }
      ],
      "name": "opposite",
      "outputs": [
        {
          "internalType": "uint256",
          "name": "",
          "type": "uint256"
        }
      ],
      "stateMutability": "pure",
      "type": "function"
    },
    {
      "inputs": [],
      "name": "owner",
      "outputs": [
        {
          "internalType": "address",
          "name": "",
          "type": "address"
        }
      ],
      "stateMutability": "view",
      "type": "function"
    },
    {
      "inputs": [
        {
          "internalType": "uint256",
          "name": "",
          "type": "uint256"
        }
      ],
      "name": "players",
      "outputs": [
        {
          "internalType": "address",
          "name": "owner",
          "type": "address"
        },
        {
          "internalType": "uint256",
          "name": "characterId",
          "type": "uint256"
        },
        {
          "internalType": "uint256",
          "name": "id",
          "type": "uint256"
        },
        {
          "components": [
            {
              "internalType": "int8",
              "name": "health",
              "type": "int8"
            },
            {
              "internalType": "int8",
              "name": "carry",
              "type": "int8"
            },
            {
              "internalType": "int8",
              "name": "defense",
              "type": "int8"
            },
            {
              "internalType": "int8",
              "name": "hack",
              "type": "int8"
            },
            {
              "internalType": "int8",
              "name": "breach",
              "type": "int8"
            },
            {
              "internalType": "int8",
              "name": "shoot",
              "type": "int8"
            },
            {
              "internalType": "int8",
              "name": "melee",
              "type": "int8"
            },
            {
              "internalType": "bool",
              "name": "hasGun",
              "type": "bool"
            }
          ],
          "internalType": "struct BCTypes.Traits",
          "name": "currentTraits",
          "type": "tuple"
        },
        {
          "components": [
            {
              "internalType": "uint8",
              "name": "row",
              "type": "uint8"
            },
            {
              "internalType": "uint8",
              "name": "col",
              "type": "uint8"
            }
          ],
          "internalType": "struct BCTypes.Position",
          "name": "position",
          "type": "tuple"
        },
        {
          "components": [
            {
              "internalType": "uint8",
              "name": "row",
              "type": "uint8"
            },
            {
              "internalType": "uint8",
              "name": "col",
              "type": "uint8"
            }
          ],
          "internalType": "struct BCTypes.Position",
          "name": "lastPos",
          "type": "tuple"
        },
        {
          "internalType": "int8",
          "name": "healthDmgTaken",
          "type": "int8"
        },
        {
          "internalType": "uint8",
          "name": "armorDmgTaken",
          "type": "uint8"
        },
        {
          "internalType": "uint8",
          "name": "actionsTaken",
          "type": "uint8"
        },
        {
          "internalType": "uint8",
          "name": "dataTokens",
          "type": "uint8"
        },
        {
          "internalType": "uint8",
          "name": "numItemsHeld",
          "type": "uint8"
        },
        {
          "internalType": "bool",
          "name": "dead",
          "type": "bool"
        },
        {
          "internalType": "uint256",
          "name": "gameId",
          "type": "uint256"
        }
      ],
      "stateMutability": "view",
      "type": "function"
    },
    {
      "inputs": [],
      "name": "randKeccak",
      "outputs": [
        {
          "internalType": "bytes32",
          "name": "",
          "type": "bytes32"
        }
      ],
      "stateMutability": "nonpayable",
      "type": "function"
    },
    {
      "inputs": [],
      "name": "renounceOwnership",
      "outputs": [],
      "stateMutability": "nonpayable",
      "type": "function"
    },
    {
      "inputs": [
        {
          "internalType": "uint256",
          "name": "_playerId",
          "type": "uint256"
        }
      ],
      "name": "resetPlayerActions",
      "outputs": [],
      "stateMutability": "nonpayable",
      "type": "function"
    },
    {
      "inputs": [
        {
          "internalType": "uint256",
          "name": "_gameId",
          "type": "uint256"
        },
        {
          "internalType": "uint256",
          "name": "_for",
          "type": "uint256"
        },
        {
          "internalType": "uint256",
          "name": "_against",
          "type": "uint256"
        }
      ],
      "name": "resolveChallenge",
      "outputs": [
        {
          "internalType": "bool",
          "name": "",
          "type": "bool"
        }
      ],
      "stateMutability": "nonpayable",
      "type": "function"
    },
    {
      "inputs": [
        {
          "internalType": "uint256",
          "name": "_gameId",
          "type": "uint256"
        }
      ],
      "name": "roll",
      "outputs": [
        {
          "internalType": "uint256",
          "name": "",
          "type": "uint256"
        }
      ],
      "stateMutability": "nonpayable",
      "type": "function"
    },
    {
      "inputs": [
        {
          "internalType": "address",
          "name": "_charAddress",
          "type": "address"
        },
        {
          "internalType": "address",
          "name": "_utilsAddress",
          "type": "address"
        },
        {
          "internalType": "address",
          "name": "_mapsAddress",
          "type": "address"
        },
        {
          "internalType": "address",
          "name": "_lobbiesAddress",
          "type": "address"
        },
        {
          "internalType": "address",
          "name": "_actionsAddress",
          "type": "address"
        },
        {
          "internalType": "address",
          "name": "_eventsAddress",
          "type": "address"
        },
        {
          "internalType": "address",
          "name": "_itemsAddress",
          "type": "address"
        },
        {
          "internalType": "address",
          "name": "_gamesAddress",
          "type": "address"
        }
      ],
      "name": "setContractAddresses",
      "outputs": [],
      "stateMutability": "nonpayable",
      "type": "function"
    },
    {
      "inputs": [
        {
          "internalType": "uint256[]",
          "name": "ids",
          "type": "uint256[]"
        },
        {
          "internalType": "uint256",
          "name": "_gameId",
          "type": "uint256"
        }
      ],
      "name": "setPlayersGameId",
      "outputs": [],
      "stateMutability": "nonpayable",
      "type": "function"
    },
    {
      "inputs": [
        {
          "internalType": "bytes32",
          "name": "_hash",
          "type": "bytes32"
        },
        {
          "internalType": "uint256",
          "name": "_size",
          "type": "uint256"
        },
        {
          "internalType": "uint256",
          "name": "_offset",
          "type": "uint256"
        }
      ],
      "name": "sliceHashToSmallInt",
      "outputs": [
        {
          "internalType": "uint8",
          "name": "",
          "type": "uint8"
        }
      ],
      "stateMutability": "pure",
      "type": "function"
    },
    {
      "inputs": [
        {
          "internalType": "uint8",
          "name": "_min",
          "type": "uint8"
        },
        {
          "internalType": "uint8",
          "name": "_max",
          "type": "uint8"
        }
      ],
      "name": "smallIntBetweenVals",
      "outputs": [
        {
          "internalType": "uint8",
          "name": "",
          "type": "uint8"
        }
      ],
      "stateMutability": "nonpayable",
      "type": "function"
    },
    {
      "inputs": [
        {
          "internalType": "address",
          "name": "newOwner",
          "type": "address"
        }
      ],
      "name": "transferOwnership",
      "outputs": [],
      "stateMutability": "nonpayable",
      "type": "function"
    },
    {
      "inputs": [
        {
          "internalType": "uint256",
          "name": "_charId",
          "type": "uint256"
        },
        {
          "internalType": "uint256",
          "name": "_playerId",
          "type": "uint256"
        }
      ],
      "name": "updatePlayerTraits",
      "outputs": [],
      "stateMutability": "nonpayable",
      "type": "function"
    }
  ],
  "transactionHash": "0xc81c21a8bb03afa82b454890b41e92bba5798ff724b2bbfcd1461a8bb45f35a8",
  "args": [],
  "numDeployments": 1,
  "solcInputHash": "3b973de51732fc114236bb1be8e178c7",
  "bytecode": "0x600060015560c0604052600a6080819052600660a052805461ffff191661060a1790553480156200002f57600080fd5b506200003b3362000428565b6200010f604080516101c081018252600080825260208083018290528284018290528351610100810185528281528082018390528085018390526060808201849052608080830185905260a080840186905260c0840186905260e0840186905291860192909252855180870187528481528084018590529185019190915284518086019095528285529084019190915290919082019081526000602082018190526040820181905260608083018290526080830182905260a083015260c0820181905260e082018190526101009091015290565b600b8190806001815401808255809150506001900390600052602060002090600a020160009091909190915060008201518160000160006101000a8154816001600160a01b0302191690836001600160a01b03160217905550602082015181600101556040820151816002015560608201518160030160008201518160000160006101000a81548160ff021916908360000b60ff16021790555060208201518160000160016101000a81548160ff021916908360000b60ff16021790555060408201518160000160026101000a81548160ff021916908360000b60ff16021790555060608201518160000160036101000a81548160ff021916908360000b60ff16021790555060808201518160000160046101000a81548160ff021916908360000b60ff16021790555060a08201518160000160056101000a81548160ff021916908360000b60ff16021790555060c08201518160000160066101000a81548160ff021916908360000b60ff16021790555060e08201518160000160076101000a81548160ff021916908315150217905550505060808201518160040160008201518160000160006101000a81548160ff021916908360ff16021790555060208201518160000160016101000a81548160ff021916908360ff160217905550505060a08201518160050160008201518160000160006101000a81548160ff021916908360ff16021790555060208201518160000160016101000a81548160ff021916908360ff160217905550505060c08201518160060160006101000a81548160ff021916908360000b60ff16021790555060e08201518160060160016101000a81548160ff021916908360ff1602179055506101008201518160060160026101000a81548160ff021916908360ff1602179055506101208201518160060160036101000a81548160ff021916908360ff160217905550610140820151816007019080519060200190620003e592919062000478565b5061016082015160088201805461018085015115156101000261ffff1990911660ff909316929092179190911790556101a090910151600990910155506200053c565b600080546001600160a01b038381166001600160a01b0319831681178455604051919092169283917f8be0079c531659141344cd1fd0a4f28419497f9722a3daafe3b4186f6b6457e09190a35050565b82805482825590600052602060002090601f01602090048101928215620005135791602002820160005b83821115620004e257835183826101000a81548160ff021916908360ff1602179055509260200192600101602081600001049283019260010302620004a2565b8015620005115782816101000a81549060ff0219169055600101602081600001049283019260010302620004e2565b505b506200052192915062000525565b5090565b5b8082111562000521576000815560010162000526565b6147d1806200054c6000396000f3fe608060405234801561001057600080fd5b506004361061025e5760003560e01c80638214f22211610146578063ce28613f116100c3578063f10bff2b11610087578063f10bff2b1461057d578063f2fde38b14610590578063f71d96cb146105a3578063f96f55d0146105cf578063fa3993c2146105e2578063fe23e2df146105f557600080fd5b8063ce28613f14610501578063ce93229714610514578063dc769ee814610527578063e7169ec514610557578063ed8619611461056a57600080fd5b8063955a015b1161010a578063955a015b146104a257806397f34c3f146104b55780639fca1ee1146104c8578063b6907194146104db578063c06fad06146104ee57600080fd5b80638214f222146104385780638d491b3e1461044b5780638da5cb5b1461045e578063921d27991461046f578063951fc3fe1461048257600080fd5b806353011696116101df5780636621a421116101a35780636621a421146103d1578063668a7f3b146103e45780636d291bbb146103f7578063715018a61461040a5780637b45c0d4146104125780637ddae1031461042557600080fd5b806353011696146103505780635519f439146103755780635dc969671461038857806364db84bf146103ab57806365c363f0146103be57600080fd5b80631f7b4f30116102265780631f7b4f30146102f1578063336d7d7b14610304578063351dacdf146103175780633deaec2b1461032a57806347d0e3c91461033d57600080fd5b80630dd0f5881461026357806310a2cd0d1461027857806310f67fb3146102a85780631b5ac4b5146102c85780631e1de205146102e9575b600080fd5b6102766102713660046132df565b610608565b005b60025461028b906001600160a01b031681565b6040516001600160a01b0390911681526020015b60405180910390f35b6102bb6102b6366004613318565b61064b565b60405161029f91906133d2565b6102db6102d6366004613318565b610914565b60405190815260200161029f565b6102db610934565b6102db6102ff366004613318565b6109ac565b60075461028b906001600160a01b031681565b6102766103253660046134e9565b610a08565b60035461028b906001600160a01b031681565b6102db61034b366004613318565b610a5d565b61036361035e36600461350b565b610a95565b60405160ff909116815260200161029f565b6102db6103833660046136bc565b610ad2565b61039b610396366004613712565b610c2e565b604051901515815260200161029f565b6102db6103b93660046134e9565b610cc9565b6102766103cc366004613318565b610ce1565b61028b6103df366004613318565b610d39565b6102766103f236600461373e565b610d6e565b6102766104053660046137d5565b610ebe565b6102766112a8565b60095461028b906001600160a01b031681565b60045461028b906001600160a01b031681565b6102db610446366004613318565b6112bc565b61039b610459366004613842565b611336565b6000546001600160a01b031661028b565b61027661047d366004613876565b6114d5565b61049561049036600461390d565b61155d565b60405161029f919061393a565b60065461028b906001600160a01b031681565b6103636104c3366004613712565b611687565b60085461028b906001600160a01b031681565b6102766104e9366004613958565b6116b2565b60055461028b906001600160a01b031681565b61036361050f366004613988565b61175d565b610276610522366004613318565b61180d565b600a5461053d9060ff8082169161010090041682565b6040805160ff93841681529290911660208301520161029f565b6102766105653660046139b6565b61187d565b6102766105783660046139fa565b611906565b6102db61058b366004613a4c565b611a19565b61027661059e366004613a78565b611a66565b6105b66105b1366004613318565b611adf565b60405161029f9d9c9b9a99989796959493929190613a93565b6102766105dd3660046134e9565b611c09565b6102db6105f0366004613a4c565b611e89565b6102766106033660046134e9565b611f51565b6006546001600160a01b0316331461063b5760405162461bcd60e51b815260040161063290613b37565b60405180910390fd5b610646838383611f8a565b505050565b61071e604080516101c081018252600080825260208083018290528284018290528351610100810185528281528082018390528085018390526060808201849052608080830185905260a080840186905260c0840186905260e0840186905291860192909252855180870187528481528084018590529185019190915284518086019095528285529084019190915290919082019081526000602082018190526040820181905260608083018290526080830182905260a083015260c0820181905260e082018190526101009091015290565b600b828154811061073157610731613b63565b60009182526020808320604080516101c081018252600a90940290910180546001600160a01b0316845260018101548484015260028101548483015281516101008181018452600383015480880b8352818104880b8387015262010000808204890b8487015263010000008083048a0b60608681019190915264010000000084048b0b6080808801919091526501000000000085048c0b60a080890191909152600160301b86048d0b60c0808a019190915260ff600160381b9097048716151560e0808b0191909152938d01989098528951808b018b5260048a015480881682528890048716818d0152918c01919091528851808a018a52600589015480871682528790048616818c0152908b015260068701549a8b900b958a0195909552838a04831694890194909452880481169187019190915295049094166101208401526007840180548251818502810185019093528083529394936101408601938301828280156108dd57602002820191906000526020600020906000905b825461010083900a900460ff168152602060019283018181049485019490930390920291018084116108ae5790505b5050509183525050600882015460ff8082166020840152610100909104161515604082015260099091015460609091015292915050565b60008082121561092c5761092782613b8f565b61092e565b815b92915050565b600180546000918261094583613bab565b919050555060015460014361095a9190613bc4565b403360405160200161099193929190928352602083019190915260601b6bffffffffffffffffffffffff1916604082015260540190565b60405160208183030381529060405280519060200120905090565b6000806109bb6001600661175d565b60ff1690507ffe34d093a460a16ee5fb374540914d1c734a17502c0c1a87b387c8d6097e1c5183826040516109fa929190918252602082015260400190565b60405180910390a192915050565b80600b8381548110610a1c57610a1c613b63565b6000918252602082206008600a90920201018054909190610a4190849060ff16613bd7565b92506101000a81548160ff021916908360ff1602179055505050565b6000600b8281548110610a7257610a72613b63565b60009182526020909120600a909102016006015462010000900460ff1692915050565b600080610aa28686613bc4565b9050600083610ab18684613bf0565b610abb9190613c1d565b9050610ac78782613c31565b979650505050505050565b6007546000906001600160a01b03163314610b245760405162461bcd60e51b8152602060048201526012602482015271139bdd081b1bd8989e4818dbdb9d1c9858dd60721b6044820152606401610632565b600b805460018181018084556000938452600a9092027f0175b7a638427703f0dbe7bb9bbf987a2551717b34e79f33b5b1008d1fa01db9019291610b689190613bc4565b82546001600160a01b0319166001600160a01b038716178355600180840188905560028401829055600b54919250610ba59188916105dd91613bc4565b835160088301805460ff191660ff909216919091179055600554604051630926bc2d60e21b81526001600160a01b039091169063249af0b490610bf090849088908a90600401613c44565b600060405180830381600087803b158015610c0a57600080fd5b505af1158015610c1e573d6000803e3d6000fd5b50929450505050505b9392505050565b600080610c3a856109ac565b6040805187815260208101839052908101869052606081018590529091507f75b6a8325595f91135e07382840634226793c68c9e59623da7e10d7ad3d95b959060800160405180910390a180600103610c97576000915050610c27565b600383610ca48684613c31565b610cae9190613ca7565b1315610cbe576001915050610c27565b506000949350505050565b600081610cd7846004613bf0565b610c279190613c31565b6006546001600160a01b03163314610cf857600080fd5b6000600b8281548110610d0d57610d0d613b63565b90600052602060002090600a020160060160026101000a81548160ff021916908360ff16021790555050565b6000600b8281548110610d4e57610d4e613b63565b60009182526020909120600a90910201546001600160a01b031692915050565b6006546001600160a01b03163314610d985760405162461bcd60e51b815260040161063290613b37565b60005b60018251610da99190613bc4565b8111610646576000600b838381518110610dc557610dc5613b63565b602002602001015181548110610ddd57610ddd613b63565b6000918252602082206003546004600a939093029091018281015460405163f9dfbfcb60e01b815293840189905260ff808216602486015261010090910416604484015293506001600160a01b03169063f9dfbfcb9060640161014060405180830381865afa158015610e54573d6000803e3d6000fd5b505050506040513d601f19601f82011682018060405250810190610e789190613ce4565b90508060c0015115610ea957610ea9848481518110610e9957610e99613b63565b6020026020010151600180611f8a565b50508080610eb690613bab565b915050610d9b565b6006546001600160a01b03163314610ee85760405162461bcd60e51b815260040161063290613b37565b610f306040518060e0016040528060008152602001600015158152602001600060ff168152602001600060ff1681526020016060815260200160608152602001606081525090565b6005826005811115610f4457610f44613db9565b03610fbf576004805460405163c82c37b960e01b81529182018590526001600160a01b03169063c82c37b990602401600060405180830381865afa158015610f90573d6000803e3d6000fd5b505050506040513d6000823e601f3d908101601f19168201604052610fb89190810190613e5c565b9050611038565b6004805460405163e4dc1a8360e01b81526001600160a01b039091169163e4dc1a8391610ff0918791879101613f61565b600060405180830381865afa15801561100d573d6000803e3d6000fd5b505050506040513d6000823e601f3d908101601f191682016040526110359190810190613e5c565b90505b600480546040516336772a9360e21b81526000926001600160a01b039092169163d9dcaa4c9161106c918791899101613f75565b600060405180830381865afa158015611089573d6000803e3d6000fd5b505050506040513d6000823e601f3d908101601f191682016040526110b19190810190613f90565b9050816040015160ff1660001480156110cf5750606082015160ff16155b15611145576110fb88888888856000815181106110ee576110ee613b63565b6020026020010151612085565b60008051602061477c8339815191528789848460008151811061112057611120613b63565b6020026020010151604051611138949392919061408b565b60405180910390a161129d565b6000611150886109ac565b9050826040015160ff166000141580156111715750826040015160ff168111155b156111da5761119089898989866001815181106110ee576110ee613b63565b60008051602061477c833981519152888a85856001815181106111b5576111b5613b63565b60200260200101516040516111cd949392919061408b565b60405180910390a161129b565b606083015160ff16158015906111f75750826060015160ff168110155b1561123b5761121689898989866002815181106110ee576110ee613b63565b60008051602061477c833981519152888a85856002815181106111b5576111b5613b63565b61125589898989866000815181106110ee576110ee613b63565b60008051602061477c833981519152888a858560008151811061127a5761127a613b63565b6020026020010151604051611292949392919061408b565b60405180910390a15b505b505050505050505050565b6112b0612ef6565b6112ba6000612f50565b565b6000816000036112ce57506001919050565b816001036112de57506000919050565b816002036112ee57506003919050565b816003036112fe57506002919050565b60405162461bcd60e51b815260206004820152600d60248201526c2130b2103234b932b1ba34b7b760991b6044820152606401610632565b6006546000906001600160a01b031633146113635760405162461bcd60e51b815260040161063290613b37565b600b838154811061137657611376613b63565b90600052602060002090600a0201600401600b848154811061139a5761139a613b63565b600091825260209091208254600a90920201600501805460ff92831660ff19821681178355935461ffff1990911690931761010093849004909216909202179055600b8054859190859081106113f2576113f2613b63565b6000918252602080832084516004600a94909402909101830180549583015160ff9081166101000261ffff19909716928116929092179590951790945560035488519189015160405163f9dfbfcb60e01b815293840188905291851660248401529316604482015290916001600160a01b03169063f9dfbfcb9060640161014060405180830381865afa15801561148d573d6000803e3d6000fd5b505050506040513d601f19601f820116820180604052508101906114b19190613ce4565b5160ff16036114cb576114c383612fa0565b506001610c27565b5060009392505050565b6114dd612ef6565b600280546001600160a01b03199081166001600160a01b039a8b1617909155600380548216978a169790971790965560078054871695891695909517909455600980548616938816939093179092556004805485169187169190911790556005805484169186169190911790556006805490921693169290921790915550565b6040805180820190915260008082526020820152826000036115af576040518060400160405280600184600001516115959190613bd7565b60ff168152602001836020015160ff16815250905061092e565b826001036115d3576040518060400160405280836000015160016115959190614140565b82600203611610576040518060400160405280836000015160ff168152602001836020015160016116049190614140565b60ff169052905061092e565b82600303611641576040518060400160405280836000015160ff168152602001600184602001516116049190613bd7565b600061164c8461315f565b60405160200161165c919061417d565b60405160208183030381529060405290508060405162461bcd60e51b815260040161063291906141e4565b6000808260016116988660026142db565b6116a29190613bc4565b901b8516831c9150509392505050565b6009546001600160a01b0316331461171d5760405162461bcd60e51b815260206004820152602860248201527f4e6f7420616374696f6e7320636f6e7472616374202d206772616e74446174616044820152672a37a83630bcb2b960c11b6064820152608401610632565b80600b838154811061173157611731613b63565b90600052602060002090600a020160060160038282829054906101000a900460ff16610a419190614140565b600180546000918261176e83613bab565b91905055506000336001546001436117869190613bc4565b60405160609390931b6bffffffffffffffffffffffff19166020840152603483019190915240605482015260740160408051601f198184030181529190528051602090910120905060006117da8585613bd7565b6117e5906001614140565b90508460ff168160ff16836117fa91906142e7565b6118049190613c31565b95945050505050565b6006546001600160a01b0316331461182457600080fd5b600b818154811061183757611837613b63565b60009182526020909120600a90910201600601805462010000900460ff16906002611861836142fb565b91906101000a81548160ff021916908360ff1602179055505050565b6006546001600160a01b031633146118a75760405162461bcd60e51b815260040161063290613b37565b60005b82518110156106465781600b8483815181106118c8576118c8613b63565b6020026020010151815481106118e0576118e0613b63565b600091825260209091206009600a909202010155806118fe81613bab565b9150506118aa565b6009546001600160a01b0316331461196e5760405162461bcd60e51b815260206004820152602560248201527f4e6f7420616374696f6e7320636f6e7472616374202d206578744170706c794560448201526419999958dd60da1b6064820152608401610632565b600480546040516336772a9360e21b81526000926001600160a01b039092169163d9dcaa4c916119a391600591889101613f75565b600060405180830381865afa1580156119c0573d6000803e3d6000fd5b505050506040513d6000823e601f3d908101601f191682016040526119e89190810190613f90565b82815181106119f9576119f9613b63565b60200260200101519050611a108787878785612085565b50505050505050565b600080611a39836000015160000b856000015160000b6102d69190613ca7565b90506000611a5a846020015160000b866020015160000b6102d69190613ca7565b90506118048183613c31565b611a6e612ef6565b6001600160a01b038116611ad35760405162461bcd60e51b815260206004820152602660248201527f4f776e61626c653a206e6577206f776e657220697320746865207a65726f206160448201526564647265737360d01b6064820152608401610632565b611adc81612f50565b50565b600b8181548110611aef57600080fd5b60009182526020808320600a9092029091018054600182015460028301546040805161010081810183526003870154808a0b83528181048a0b838a0152620100008082048b0b8486015263010000008083048c0b606086015264010000000083048c0b60808601526501000000000083048c0b60a0860152600160301b83048c0b60c086015260ff600160381b9093048316151560e08601528551808701875260048b015480851682528590048416818d0152865180880190975260058b0154808516885285900484169b87019b909b5260068a015460088b01546009909b01546001600160a01b03909a169d50979b969a9499949895979687900b9684810484169692810484169591900483169381841693910416908d565b600254604051634810bc5960e01b8152600481018490526000916001600160a01b031690634810bc599060240161020060405180830381865afa158015611c54573d6000803e3d6000fd5b505050506040513d601f19601f82011682018060405250810190611c7891906143f4565b606001516005546040516347ef26b160e01b8152600481018590529192506000916001600160a01b03909116906347ef26b19060240161010060405180830381865afa158015611ccc573d6000803e3d6000fd5b505050506040513d601f19601f82011682018060405250810190611cf0919061449b565b90506000600b8481548110611d0757611d07613b63565b90600052602060002090600a0201905081600001518360000151611d2b91906144b8565b60038201805460ff191660ff9290921691909117905560208281015190840151611d5591906144b8565b60038201805460ff929092166101000261ff001990921691909117905560408083015190840151611d8691906144b8565b60038201805460ff92909216620100000262ff00001990921691909117905560608083015190840151611db991906144b8565b60038201805460ff9290921663010000000263ff0000001990921691909117905560808083015190840151611dee91906144b8565b60038201805460ff929092166401000000000264ff000000001990921691909117905560a08083015190840151611e2591906144b8565b60038201805460ff92909216650100000000000265ff00000000001990921691909117905560c08083015190840151611e5e91906144b8565b6003909101805460ff92909216600160301b0266ff0000000000001990921691909117905550505050565b80518251600091611e99916144d9565b60000b600103611eab5750600061092e565b81518351611eb991906144d9565b60000b19611ec95750600161092e565b81602001518360200151611edd91906144d9565b60000b19611eed5750600261092e565b81602001518360200151611f0191906144d9565b60000b600103611f135750600361092e565b60405162461bcd60e51b8152602060048201526013602482015272115c9c9bdc8e88139bdd0818591a9858d95b9d606a1b6044820152606401610632565b80600b8381548110611f6557611f65613b63565b6000918252602082206008600a90920201018054909190610a4190849060ff16614140565b6000600b8481548110611f9f57611f9f613b63565b600091825260208220600254600a92909202016001810154604051634810bc5960e01b815260048101919091529093506001600160a01b0390911690634810bc599060240161020060405180830381865afa158015612002573d6000803e3d6000fd5b505050506040513d601f19601f8201168201806040525081019061202691906143f4565b6006830180549192508591600090612041908490830b6144b8565b825460ff9182166101009390930a9283029190920219909116179055506060810151516006830154600091820b910b1261207e5761207e85612fa0565b5050505050565b60005b8151811015612eee576120c96040518060400160405280601681526020017520b838363cb4b7339032b33332b1ba10373ab6b132b960511b81525082613267565b6000600b87815481106120de576120de613b63565b60009182526020909120600a909102019050600183838151811061210457612104613b63565b602002602001015160000151601681111561212157612121613db9565b5050600283838151811061213757612137613b63565b602002602001015160000151601681111561215457612154613db9565b0361219a5782828151811061216b5761216b613b63565b602002602001015160200151600061218391906144d9565b60068201805460ff191660ff929092169190911790555b60038383815181106121ae576121ae613b63565b60200260200101516000015160168111156121cb576121cb613db9565b036121d9576121d987612fa0565b60048383815181106121ed576121ed613b63565b602002602001015160000151601681111561220a5761220a613db9565b0361228d5760035484516020860151604051637f1b46bd60e11b81526004810189905260ff928316602482015291166044820152600160648201526001600160a01b039091169063fe368d7a90608401600060405180830381600087803b15801561227457600080fd5b505af1158015612288573d6000803e3d6000fd5b505050505b60058383815181106122a1576122a1613b63565b60200260200101516000015160168111156122be576122be613db9565b505060068383815181106122d4576122d4613b63565b60200260200101516000015160168111156122f1576122f1613db9565b036123665782828151811061230857612308613b63565b602090810291909101810151015160068201805460009061232c908490830b6144d9565b825460ff9182166101009390930a9283029190920219909116179055506006810154600090810b12156123665760068101805460ff191690555b600783838151811061237a5761237a613b63565b602002602001015160000151601681111561239757612397613db9565b505060088383815181106123ad576123ad613b63565b60200260200101516000015160168111156123ca576123ca613db9565b036123f8576123f8878484815181106123e5576123e5613b63565b6020026020010151602001516001611f8a565b600983838151811061240c5761240c613b63565b602002602001015160000151601681111561242957612429613db9565b03612457576124578784848151811061244457612444613b63565b6020026020010151602001516000611f8a565b600a83838151811061246b5761246b613b63565b602002602001015160000151601681111561248857612488613db9565b036128315760008383815181106124a1576124a1613b63565b6020026020010151602001519050600b60168111156124c2576124c2613db9565b846124ce856001613c31565b815181106124de576124de613b63565b60200260200101516000015160168111156124fb576124fb613db9565b14612508576125086144fa565b60008460018151811061251d5761251d613b63565b602002602001015160200151600881111561253a5761253a613db9565b9050600c8561254a866002613c31565b8151811061255a5761255a613b63565b602002602001015160000151601681111561257757612577613db9565b14612584576125846144fa565b60008560028151811061259957612599613b63565b60200260200101516020015160038111156125b6576125b6613db9565b600354885160208a01516040516315636a4d60e01b8152600481018d905260ff9283166024820152911660448201529192506000916001600160a01b03909116906315636a4d90606401608060405180830381865afa15801561261d573d6000803e3d6000fd5b505050506040513d601f19601f820116820180604052508101906126419190614510565b9050600382600381111561265757612657613db9565b036127555760005b600481101561274a5781816004811061267a5761267a613b63565b602002015115156001036127385760005b8581101561273657600061269f838c61155d565b9050600660009054906101000a90046001600160a01b03166001600160a01b0316631cef40f68e88846000015185602001516040518563ffffffff1660e01b81526004016126f09493929190614579565b600060405180830381600087803b15801561270a57600080fd5b505af115801561271e573d6000803e3d6000fd5b5050505050808061272e90613bab565b91505061268b565b505b8061274281613bab565b91505061265f565b505050505050612eee565b60005b8481101561274a576006546001600160a01b0316631cef40f68c86600187600381111561278757612787613db9565b146127995760058a015460ff1661279c565b8c515b60018860038111156127b0576127b0613db9565b146127c75760058b0154610100900460ff166127cd565b8d602001515b6040518563ffffffff1660e01b81526004016127ec9493929190614579565b600060405180830381600087803b15801561280657600080fd5b505af115801561281a573d6000803e3d6000fd5b50505050808061282990613bab565b915050612758565b600d83838151811061284557612845613b63565b602002602001015160000151601681111561286257612862613db9565b0361288e5761288e8784848151811061287d5761287d613b63565b6020026020010151602001516116b2565b600e8383815181106128a2576128a2613b63565b60200260200101516000015160168111156128bf576128bf613db9565b5050600f8383815181106128d5576128d5613b63565b60200260200101516000015160168111156128f2576128f2613db9565b03612b0c57600083838151811061290b5761290b613b63565b6020908102919091018101510151600554604051633841fae160e01b8152600481018b90529192506000916001600160a01b0390911690633841fae190602401600060405180830381865afa158015612968573d6000803e3d6000fd5b505050506040513d6000823e601f3d908101601f1916820160405261299091908101906145af565b805190915015612b09576000600182516129aa9190613bc4565b90505b8015612a495760006129c060008361175d565b9050828160ff16815181106129d7576129d7613b63565b60200260200101518383815181106129f1576129f1613b63565b6020026020010151848481518110612a0b57612a0b613b63565b60200260200101858460ff1681518110612a2757612a27613b63565b6020908102919091010191909152525080612a4181614634565b9150506129ad565b5060005b8151851015612b075760055482516001600160a01b0390911690635f09c782908c90859085908110612a8157612a81613b63565b60200260200101516040518363ffffffff1660e01b8152600401612aaf929190918252602082015260400190565b600060405180830381600087803b158015612ac957600080fd5b505af1158015612add573d6000803e3d6000fd5b505050508280612aec90614634565b9350508215612b075780612aff81613bab565b915050612a4d565b505b50505b6011838381518110612b2057612b20613b63565b6020026020010151600001516016811115612b3d57612b3d613db9565b03612c5a576005838381518110612b5657612b56613b63565b60200260200101516020015103612c5a57600354604051632fc4a8f360e11b81526004810187905260009182916001600160a01b0390911690635f8951e6906024016040805180830381865afa158015612bb4573d6000803e3d6000fd5b505050506040513d601f19601f82011682018060405250810190612bd8919061464b565b60065460408051808201825260ff8086168252841660208201529051631751422560e01b81529395509193506001600160a01b031691631751422591612c25918c91908e9060040161466f565b600060405180830381600087803b158015612c3f57600080fd5b505af1158015612c53573d6000803e3d6000fd5b5050505050505b6012838381518110612c6e57612c6e613b63565b6020026020010151600001516016811115612c8b57612c8b613db9565b50506013838381518110612ca157612ca1613b63565b6020026020010151600001516016811115612cbe57612cbe613db9565b50506015838381518110612cd457612cd4613b63565b6020026020010151600001516016811115612cf157612cf1613db9565b03612ea85760005b6004811015612ea65760035485516020870151604051630dd43b9b60e31b8152600481018a905260ff928316602482015291166044820152606481018390526000916001600160a01b031690636ea1dcd890608401606060405180830381865afa158015612d6b573d6000803e3d6000fd5b505050506040513d601f19601f82011682018060405250810190612d8f91906146a1565b9050600181604001516004811115612da957612da9613db9565b1480612dca5750600281604001516004811115612dc857612dc8613db9565b145b80612dea5750600381604001516004811115612de857612de8613db9565b145b15612e9357600360009054906101000a90046001600160a01b03166001600160a01b0316635921522388886000015189602001518660018b8b81518110612e3357612e33613b63565b6020026020010151602001516040518763ffffffff1660e01b8152600401612e6096959493929190614716565b600060405180830381600087803b158015612e7a57600080fd5b505af1158015612e8e573d6000803e3d6000fd5b505050505b5080612e9e81613bab565b915050612cf9565b505b6014838381518110612ebc57612ebc613b63565b6020026020010151600001516016811115612ed957612ed9613db9565b50505080612ee681613bab565b915050612088565b505050505050565b6000546001600160a01b031633146112ba5760405162461bcd60e51b815260206004820181905260248201527f4f776e61626c653a2063616c6c6572206973206e6f7420746865206f776e65726044820152606401610632565b600080546001600160a01b038381166001600160a01b0319831681178455604051919092169283917f8be0079c531659141344cd1fd0a4f28419497f9722a3daafe3b4186f6b6457e09190a35050565b6000600b8281548110612fb557612fb5613b63565b60009182526020909120600554600a90920201600981015460048083015460405163268f1d4d60e01b8152918201929092526024810186905260ff808316604483015261010090920490911660648201529092506001600160a01b039091169063268f1d4d90608401600060405180830381600087803b15801561303857600080fd5b505af115801561304c573d6000803e3d6000fd5b50505060068201805460ff1990811690915560088301805490911690555060018101546130799083611c09565b600254600b80546001600160a01b0390921691636d6ba7569190859081106130a3576130a3613b63565b90600052602060002090600a0201600101546040518263ffffffff1660e01b81526004016130d391815260200190565b600060405180830381600087803b1580156130ed57600080fd5b505af1158015613101573d6000803e3d6000fd5b50505050600a600b838154811061311a5761311a613b63565b600091825260209091208254600a90920201600401805460ff92831660ff19821681178355935461ffff19909116909317610100938490049092169092021790555050565b6060816000036131865750506040805180820190915260018152600360fc1b602082015290565b8160005b81156131b0578061319a81613bab565b91506131a99050600a83613c1d565b915061318a565b6000816001600160401b038111156131ca576131ca613559565b6040519080825280601f01601f1916602001820160405280156131f4576020820181803683370190505b5090505b841561325f57613209600183613bc4565b9150613216600a866142e7565b613221906030613c31565b60f81b81838151811061323657613236613b63565b60200101906001600160f81b031916908160001a905350613258600a86613c1d565b94506131f8565b949350505050565b6132ac828260405160240161327d929190614759565b60408051601f198184030181529190526020810180516001600160e01b0316632d839cb360e21b1790526132b0565b5050565b80516a636f6e736f6c652e6c6f67602083016000808483855afa5050505050565b8015158114611adc57600080fd5b6000806000606084860312156132f457600080fd5b8335925060208401359150604084013561330d816132d1565b809150509250925092565b60006020828403121561332a57600080fd5b5035919050565b8051600081810b84526020830151810b60208501526040830151810b60408501526060830151810b60608501526080830151810b608085015260a0830151810b60a085015260c0830151810b60c0850152505060e0810151151560e08301525050565b600081518084526020808501945080840160005b838110156133c757815160ff16875295820195908201906001016133a8565b509495945050505050565b602081526133ec6020820183516001600160a01b03169052565b6020820151604082015260408201516060820152600060608301516134146080840182613331565b50608083015161018061343981850183805160ff908116835260209182015116910152565b60a0850151805160ff9081166101c087015260209091015181166101e086015260c086015160000b61020086015260e086015181166102208601526101008601518116610240860152610120860151166102608501526101408501516102e061028086018190529092506134b1610300860184613394565b92506101608601516134c96102a087018260ff169052565b509085015115156102c08501526101a09094015192909301919091525090565b600080604083850312156134fc57600080fd5b50508035926020909101359150565b6000806000806080858703121561352157600080fd5b5050823594602084013594506040840135936060013592509050565b80356001600160a01b038116811461355457600080fd5b919050565b634e487b7160e01b600052604160045260246000fd5b604080519081016001600160401b038111828210171561359157613591613559565b60405290565b60405160e081016001600160401b038111828210171561359157613591613559565b60405161012081016001600160401b038111828210171561359157613591613559565b604051608081016001600160401b038111828210171561359157613591613559565b604051601f8201601f191681016001600160401b038111828210171561362657613626613559565b604052919050565b60006001600160401b0382111561364757613647613559565b5060051b60200190565b600082601f83011261366257600080fd5b813560206136776136728361362e565b6135fe565b82815260059290921b8401810191818101908684111561369657600080fd5b8286015b848110156136b1578035835291830191830161369a565b509695505050505050565b6000806000606084860312156136d157600080fd5b833592506136e16020850161353d565b915060408401356001600160401b038111156136fc57600080fd5b61370886828701613651565b9150509250925092565b60008060006060848603121561372757600080fd5b505081359360208301359350604090920135919050565b6000806040838503121561375157600080fd5b8235915060208301356001600160401b0381111561376e57600080fd5b61377a85828601613651565b9150509250929050565b60ff81168114611adc57600080fd5b6000604082840312156137a557600080fd5b6137ad61356f565b905081356137ba81613784565b815260208201356137ca81613784565b602082015292915050565b6000806000806000806000610100888a0312156137f157600080fd5b873596506020880135955060408801359450606088013593506138178960808a01613793565b925060c0880135915060e08801356006811061383257600080fd5b8091505092959891949750929550565b60008060006080848603121561385757600080fd5b6138618585613793565b95604085013595506060909401359392505050565b600080600080600080600080610100898b03121561389357600080fd5b61389c8961353d565b97506138aa60208a0161353d565b96506138b860408a0161353d565b95506138c660608a0161353d565b94506138d460808a0161353d565b93506138e260a08a0161353d565b92506138f060c08a0161353d565b91506138fe60e08a0161353d565b90509295985092959890939650565b6000806060838503121561392057600080fd5b823591506139318460208501613793565b90509250929050565b6040810161092e8284805160ff908116835260209182015116910152565b6000806040838503121561396b57600080fd5b82359150602083013561397d81613784565b809150509250929050565b6000806040838503121561399b57600080fd5b82356139a681613784565b9150602083013561397d81613784565b600080604083850312156139c957600080fd5b82356001600160401b038111156139df57600080fd5b6139eb85828601613651565b95602094909401359450505050565b60008060008060008060e08789031215613a1357600080fd5b863595506020870135945060408701359350613a328860608901613793565b925060a0870135915060c087013590509295509295509295565b60008060808385031215613a5f57600080fd5b613a698484613793565b91506139318460408501613793565b600060208284031215613a8a57600080fd5b610c278261353d565b6001600160a01b038e168152602081018d9052604081018c90526102c08101613abf606083018d613331565b8a5160ff90811661016084015260209b8c015181166101808401528a5181166101a084015299909a015189166101c082015260009790970b6101e08801529487166102008701529286166102208601529085166102408501529093166102608301529115156102808201526102a00152949350505050565b602080825260129082015271139bdd0819d85b595cc818dbdb9d1c9858dd60721b604082015260600190565b634e487b7160e01b600052603260045260246000fd5b634e487b7160e01b600052601160045260246000fd5b6000600160ff1b8201613ba457613ba4613b79565b5060000390565b600060018201613bbd57613bbd613b79565b5060010190565b8181038181111561092e5761092e613b79565b60ff828116828216039081111561092e5761092e613b79565b808202811582820484141761092e5761092e613b79565b634e487b7160e01b600052601260045260246000fd5b600082613c2c57613c2c613c07565b500490565b8082018082111561092e5761092e613b79565b6000606082018583526020606081850152818651808452608086019150828801935060005b81811015613c8557845183529383019391830191600101613c69565b50506001600160a01b0395909516604094909401939093525091949350505050565b8181036000831280158383131683831282161715613cc757613cc7613b79565b5092915050565b805161355481613784565b8051613554816132d1565b60006101408284031215613cf757600080fd5b613cff613597565b8251613d0a81613784565b8152602083810151613d1b81613784565b82820152605f84018513613d2e57600080fd5b613d366135dc565b8060c0860187811115613d4857600080fd5b604087015b81811015613d645780518452928401928401613d4d565b50816040860152613d7481613cd9565b606086015250505050613d8960e08401613cd9565b6080820152613d9b6101008401613cd9565b60a0820152613dad6101208401613cd9565b60c08201529392505050565b634e487b7160e01b600052602160045260246000fd5b600082601f830112613de057600080fd5b81516020613df06136728361362e565b82815260069290921b84018101918181019086841115613e0f57600080fd5b8286015b848110156136b15760408189031215613e2c5760008081fd5b613e3461356f565b815160178110613e445760008081fd5b81528185015185820152835291830191604001613e13565b600060208284031215613e6e57600080fd5b81516001600160401b0380821115613e8557600080fd5b9083019060e08286031215613e9957600080fd5b613ea1613597565b82518152613eb160208401613cd9565b6020820152613ec260408401613cce565b6040820152613ed360608401613cce565b6060820152608083015182811115613eea57600080fd5b613ef687828601613dcf565b60808301525060a083015182811115613f0e57600080fd5b613f1a87828601613dcf565b60a08301525060c083015182811115613f3257600080fd5b613f3e87828601613dcf565b60c08301525095945050505050565b60068110613f5d57613f5d613db9565b9052565b82815260408101610c276020830184613f4d565b60408101613f838285613f4d565b8260208301529392505050565b60006020808385031215613fa357600080fd5b82516001600160401b0380821115613fba57600080fd5b818501915085601f830112613fce57600080fd5b8151613fdc6136728261362e565b81815260059190911b83018401908481019088831115613ffb57600080fd5b8585015b83811015614033578051858111156140175760008081fd5b6140258b89838a0101613dcf565b845250918601918601613fff565b5098975050505050505050565b600081518084526020808501945080840160005b838110156133c757815180516017811061407057614070613db9565b88528301518388015260409096019590820190600101614054565b84815283602082015260806040820152825160808201526020830151151560a082015260ff60408401511660c0820152600060608401516140d160e084018260ff169052565b50608084015160e06101008401526140ed610160840182614040565b905060a0850151607f19808584030161012086015261410c8383614040565b925060c0870151915080858403016101408601525061412b8282614040565b9150508281036060840152610ac78185614040565b60ff818116838216019081111561092e5761092e613b79565b60005b8381101561417457818101518382015260200161415c565b50506000910152565b72024b73b30b634b2103234b932b1ba34b7b71d1606d1b8152600082516141ab816013850160208701614159565b9190910160130192915050565b600081518084526141d0816020860160208601614159565b601f01601f19169290920160200192915050565b602081526000610c2760208301846141b8565b600181815b8085111561423257816000190482111561421857614218613b79565b8085161561422557918102915b93841c93908002906141fc565b509250929050565b6000826142495750600161092e565b816142565750600061092e565b816001811461426c576002811461427657614292565b600191505061092e565b60ff84111561428757614287613b79565b50506001821b61092e565b5060208310610133831016604e8410600b84101617156142b5575081810a61092e565b6142bf83836141f7565b80600019048211156142d3576142d3613b79565b029392505050565b6000610c27838361423a565b6000826142f6576142f6613c07565b500690565b600060ff821660ff810361431157614311613b79565b60010192915050565b8051600081900b811461355457600080fd5b600061010080838503121561434057600080fd5b604051908101906001600160401b038211818310171561436257614362613559565b816040528092506143728461431a565b81526143806020850161431a565b60208201526143916040850161431a565b60408201526143a26060850161431a565b60608201526143b36080850161431a565b60808201526143c460a0850161431a565b60a08201526143d560c0850161431a565b60c082015260e084015191506143ea826132d1565b60e0015292915050565b6000610200828403121561440757600080fd5b61440f6135b9565b825181526020830151602082015260408301516040820152614434846060850161432c565b60608201526144466101608401613cce565b60808201526144586101808401613cce565b60a082015261446a6101a08401613cce565b60c082015261447c6101c08401613cce565b60e082015261448e6101e08401613cd9565b6101008201529392505050565b600061010082840312156144ae57600080fd5b610c27838361432c565b600081810b9083900b01607f8113607f198212171561092e5761092e613b79565b600082810b9082900b03607f198112607f8213171561092e5761092e613b79565b634e487b7160e01b600052600160045260246000fd5b60006080828403121561452257600080fd5b82601f83011261453157600080fd5b6145396135dc565b80608084018581111561454b57600080fd5b845b8181101561456e578051614560816132d1565b84526020938401930161454d565b509095945050505050565b848152608081016009851061459057614590613db9565b602082019490945260ff92831660408201529116606090910152919050565b600060208083850312156145c257600080fd5b82516001600160401b038111156145d857600080fd5b8301601f810185136145e957600080fd5b80516145f76136728261362e565b81815260059190911b8201830190838101908783111561461657600080fd5b928401925b82841015610ac75783518252928401929084019061461b565b60008161464357614643613b79565b506000190190565b6000806040838503121561465e57600080fd5b505080516020909101519092909150565b838152608081016146936020830185805160ff908116835260209182015116910152565b826060830152949350505050565b6000606082840312156146b357600080fd5b604051606081018181106001600160401b03821117156146d5576146d5613559565b60405282516146e381613784565b815260208301516146f381613784565b602082015260408301516005811061470a57600080fd5b60408201529392505050565b86815260ff8681166020830152851660408201526060810184905260c081016005841061474557614745613db9565b608082019390935260a00152949350505050565b60408152600061476c60408301856141b8565b9050826020830152939250505056fe854f143c4475e8754c8844dbfe9928cf11388710860ea82bb21c19da10f6c73da2646970667358221220404a77484c157de63ec98708aaa637c96828fa2c192ae05f5048b35a1bdf6ad164736f6c63430008110033",
  "devdoc": {
    "kind": "dev",
    "methods": {
      "owner()": {
        "details": "Returns the address of the current owner."
      },
      "renounceOwnership()": {
        "details": "Leaves the contract without owner. It will not be possible to call `onlyOwner` functions anymore. Can only be called by the current owner. NOTE: Renouncing ownership will leave the contract without an owner, thereby removing any functionality that is only available to the owner."
      },
      "transferOwnership(address)": {
        "details": "Transfers ownership of the contract to a new account (`newOwner`). Can only be called by the current owner."
      }
    },
    "version": 1
  },
  "userdoc": {
    "kind": "user",
    "methods": {},
    "version": 1
  },
  "storageLayout": {
    "storage": [
      {
        "astId": 7,
        "contract": "contracts/BCPlayers.sol:BCPlayers",
        "label": "_owner",
        "offset": 0,
        "slot": "0",
        "type": "t_address"
      },
      {
        "astId": 19315,
        "contract": "contracts/BCPlayers.sol:BCPlayers",
        "label": "TODO_randomSeed",
        "offset": 0,
        "slot": "1",
        "type": "t_uint256"
      },
      {
        "astId": 17238,
        "contract": "contracts/BCPlayers.sol:BCPlayers",
        "label": "chars",
        "offset": 0,
        "slot": "2",
        "type": "t_contract(CharInterface)17030"
      },
      {
        "astId": 17241,
        "contract": "contracts/BCPlayers.sol:BCPlayers",
        "label": "maps",
        "offset": 0,
        "slot": "3",
        "type": "t_contract(MapInterface)17163"
      },
      {
        "astId": 17244,
        "contract": "contracts/BCPlayers.sol:BCPlayers",
        "label": "bcEvents",
        "offset": 0,
        "slot": "4",
        "type": "t_contract(EventsInterface)17008"
      },
      {
        "astId": 17247,
        "contract": "contracts/BCPlayers.sol:BCPlayers",
        "label": "items",
        "offset": 0,
        "slot": "5",
        "type": "t_contract(ItemsInterface)17208"
      },
      {
        "astId": 17250,
        "contract": "contracts/BCPlayers.sol:BCPlayers",
        "label": "games",
        "offset": 0,
        "slot": "6",
        "type": "t_contract(GamesInterface)17231"
      },
      {
        "astId": 17252,
        "contract": "contracts/BCPlayers.sol:BCPlayers",
        "label": "lobbiesAddress",
        "offset": 0,
        "slot": "7",
        "type": "t_address"
      },
      {
        "astId": 17254,
        "contract": "contracts/BCPlayers.sol:BCPlayers",
        "label": "charsAddress",
        "offset": 0,
        "slot": "8",
        "type": "t_address"
      },
      {
        "astId": 17256,
        "contract": "contracts/BCPlayers.sol:BCPlayers",
        "label": "actionsAddress",
        "offset": 0,
        "slot": "9",
        "type": "t_address"
      },
      {
        "astId": 17330,
        "contract": "contracts/BCPlayers.sol:BCPlayers",
        "label": "StartLocation",
        "offset": 0,
        "slot": "10",
        "type": "t_struct(Position)19096_storage"
      },
      {
        "astId": 17334,
        "contract": "contracts/BCPlayers.sol:BCPlayers",
        "label": "players",
        "offset": 0,
        "slot": "11",
        "type": "t_array(t_struct(Player)19069_storage)dyn_storage"
      }
    ],
    "types": {
      "t_address": {
        "encoding": "inplace",
        "label": "address",
        "numberOfBytes": "20"
      },
      "t_array(t_struct(Player)19069_storage)dyn_storage": {
        "base": "t_struct(Player)19069_storage",
        "encoding": "dynamic_array",
        "label": "struct BCTypes.Player[]",
        "numberOfBytes": "32"
      },
      "t_array(t_uint8)dyn_storage": {
        "base": "t_uint8",
        "encoding": "dynamic_array",
        "label": "uint8[]",
        "numberOfBytes": "32"
      },
      "t_bool": {
        "encoding": "inplace",
        "label": "bool",
        "numberOfBytes": "1"
      },
      "t_contract(CharInterface)17030": {
        "encoding": "inplace",
        "label": "contract CharInterface",
        "numberOfBytes": "20"
      },
      "t_contract(EventsInterface)17008": {
        "encoding": "inplace",
        "label": "contract EventsInterface",
        "numberOfBytes": "20"
      },
      "t_contract(GamesInterface)17231": {
        "encoding": "inplace",
        "label": "contract GamesInterface",
        "numberOfBytes": "20"
      },
      "t_contract(ItemsInterface)17208": {
        "encoding": "inplace",
        "label": "contract ItemsInterface",
        "numberOfBytes": "20"
      },
      "t_contract(MapInterface)17163": {
        "encoding": "inplace",
        "label": "contract MapInterface",
        "numberOfBytes": "20"
      },
      "t_int8": {
        "encoding": "inplace",
        "label": "int8",
        "numberOfBytes": "1"
      },
      "t_struct(Player)19069_storage": {
        "encoding": "inplace",
        "label": "struct BCTypes.Player",
        "members": [
          {
            "astId": 19038,
            "contract": "contracts/BCPlayers.sol:BCPlayers",
            "label": "owner",
            "offset": 0,
            "slot": "0",
            "type": "t_address"
          },
          {
            "astId": 19040,
            "contract": "contracts/BCPlayers.sol:BCPlayers",
            "label": "characterId",
            "offset": 0,
            "slot": "1",
            "type": "t_uint256"
          },
          {
            "astId": 19042,
            "contract": "contracts/BCPlayers.sol:BCPlayers",
            "label": "id",
            "offset": 0,
            "slot": "2",
            "type": "t_uint256"
          },
          {
            "astId": 19045,
            "contract": "contracts/BCPlayers.sol:BCPlayers",
            "label": "currentTraits",
            "offset": 0,
            "slot": "3",
            "type": "t_struct(Traits)19234_storage"
          },
          {
            "astId": 19048,
            "contract": "contracts/BCPlayers.sol:BCPlayers",
            "label": "position",
            "offset": 0,
            "slot": "4",
            "type": "t_struct(Position)19096_storage"
          },
          {
            "astId": 19051,
            "contract": "contracts/BCPlayers.sol:BCPlayers",
            "label": "lastPos",
            "offset": 0,
            "slot": "5",
            "type": "t_struct(Position)19096_storage"
          },
          {
            "astId": 19053,
            "contract": "contracts/BCPlayers.sol:BCPlayers",
            "label": "healthDmgTaken",
            "offset": 0,
            "slot": "6",
            "type": "t_int8"
          },
          {
            "astId": 19055,
            "contract": "contracts/BCPlayers.sol:BCPlayers",
            "label": "armorDmgTaken",
            "offset": 1,
            "slot": "6",
            "type": "t_uint8"
          },
          {
            "astId": 19057,
            "contract": "contracts/BCPlayers.sol:BCPlayers",
            "label": "actionsTaken",
            "offset": 2,
            "slot": "6",
            "type": "t_uint8"
          },
          {
            "astId": 19059,
            "contract": "contracts/BCPlayers.sol:BCPlayers",
            "label": "dataTokens",
            "offset": 3,
            "slot": "6",
            "type": "t_uint8"
          },
          {
            "astId": 19062,
            "contract": "contracts/BCPlayers.sol:BCPlayers",
            "label": "currentEffects",
            "offset": 0,
            "slot": "7",
            "type": "t_array(t_uint8)dyn_storage"
          },
          {
            "astId": 19064,
            "contract": "contracts/BCPlayers.sol:BCPlayers",
            "label": "numItemsHeld",
            "offset": 0,
            "slot": "8",
            "type": "t_uint8"
          },
          {
            "astId": 19066,
            "contract": "contracts/BCPlayers.sol:BCPlayers",
            "label": "dead",
            "offset": 1,
            "slot": "8",
            "type": "t_bool"
          },
          {
            "astId": 19068,
            "contract": "contracts/BCPlayers.sol:BCPlayers",
            "label": "gameId",
            "offset": 0,
            "slot": "9",
            "type": "t_uint256"
          }
        ],
        "numberOfBytes": "320"
      },
      "t_struct(Position)19096_storage": {
        "encoding": "inplace",
        "label": "struct BCTypes.Position",
        "members": [
          {
            "astId": 19093,
            "contract": "contracts/BCPlayers.sol:BCPlayers",
            "label": "row",
            "offset": 0,
            "slot": "0",
            "type": "t_uint8"
          },
          {
            "astId": 19095,
            "contract": "contracts/BCPlayers.sol:BCPlayers",
            "label": "col",
            "offset": 1,
            "slot": "0",
            "type": "t_uint8"
          }
        ],
        "numberOfBytes": "32"
      },
      "t_struct(Traits)19234_storage": {
        "encoding": "inplace",
        "label": "struct BCTypes.Traits",
        "members": [
          {
            "astId": 19219,
            "contract": "contracts/BCPlayers.sol:BCPlayers",
            "label": "health",
            "offset": 0,
            "slot": "0",
            "type": "t_int8"
          },
          {
            "astId": 19221,
            "contract": "contracts/BCPlayers.sol:BCPlayers",
            "label": "carry",
            "offset": 1,
            "slot": "0",
            "type": "t_int8"
          },
          {
            "astId": 19223,
            "contract": "contracts/BCPlayers.sol:BCPlayers",
            "label": "defense",
            "offset": 2,
            "slot": "0",
            "type": "t_int8"
          },
          {
            "astId": 19225,
            "contract": "contracts/BCPlayers.sol:BCPlayers",
            "label": "hack",
            "offset": 3,
            "slot": "0",
            "type": "t_int8"
          },
          {
            "astId": 19227,
            "contract": "contracts/BCPlayers.sol:BCPlayers",
            "label": "breach",
            "offset": 4,
            "slot": "0",
            "type": "t_int8"
          },
          {
            "astId": 19229,
            "contract": "contracts/BCPlayers.sol:BCPlayers",
            "label": "shoot",
            "offset": 5,
            "slot": "0",
            "type": "t_int8"
          },
          {
            "astId": 19231,
            "contract": "contracts/BCPlayers.sol:BCPlayers",
            "label": "melee",
            "offset": 6,
            "slot": "0",
            "type": "t_int8"
          },
          {
            "astId": 19233,
            "contract": "contracts/BCPlayers.sol:BCPlayers",
            "label": "hasGun",
            "offset": 7,
            "slot": "0",
            "type": "t_bool"
          }
        ],
        "numberOfBytes": "32"
      },
      "t_uint256": {
        "encoding": "inplace",
        "label": "uint256",
        "numberOfBytes": "32"
      },
      "t_uint8": {
        "encoding": "inplace",
        "label": "uint8",
        "numberOfBytes": "1"
      }
    }
  }
}