{
  "address": "0x72Db7Cee96973C2cf1E1B688306D4c3b1eA47768",
  "abi": [
    {
      "inputs": [],
      "stateMutability": "nonpayable",
      "type": "constructor"
    },
    {
      "anonymous": false,
      "inputs": [
        {
          "indexed": false,
          "internalType": "uint256",
          "name": "gameId",
          "type": "uint256"
        },
        {
          "indexed": false,
          "internalType": "uint256",
          "name": "roll",
          "type": "uint256"
        },
        {
          "indexed": false,
          "internalType": "uint256",
          "name": "forValue",
          "type": "uint256"
        },
        {
          "indexed": false,
          "internalType": "uint256",
          "name": "against",
          "type": "uint256"
        }
      ],
      "name": "ChallengeEvent",
      "type": "event"
    },
    {
      "anonymous": false,
      "inputs": [
        {
          "indexed": false,
          "internalType": "uint256",
          "name": "gameId",
          "type": "uint256"
        },
        {
          "indexed": false,
          "internalType": "uint256",
          "name": "roll",
          "type": "uint256"
        }
      ],
      "name": "DiceRollEvent",
      "type": "event"
    },
    {
      "anonymous": false,
      "inputs": [
        {
          "indexed": false,
          "internalType": "uint256",
          "name": "gameId",
          "type": "uint256"
        },
        {
          "indexed": false,
          "internalType": "uint256",
          "name": "playerId",
          "type": "uint256"
        },
        {
          "components": [
            {
              "internalType": "uint256",
              "name": "id",
              "type": "uint256"
            },
            {
              "internalType": "bool",
              "name": "permanent",
              "type": "bool"
            },
            {
              "internalType": "uint8",
              "name": "rollForLow",
              "type": "uint8"
            },
            {
              "internalType": "uint8",
              "name": "rollForHigh",
              "type": "uint8"
            },
            {
              "components": [
                {
                  "internalType": "enum BCEvents.EffectTypes",
                  "name": "effect",
                  "type": "uint8"
                },
                {
                  "internalType": "uint256",
                  "name": "value",
                  "type": "uint256"
                }
              ],
              "internalType": "struct BCEvents.Effect[]",
              "name": "defaultEffect",
              "type": "tuple[]"
            },
            {
              "components": [
                {
                  "internalType": "enum BCEvents.EffectTypes",
                  "name": "effect",
                  "type": "uint8"
                },
                {
                  "internalType": "uint256",
                  "name": "value",
                  "type": "uint256"
                }
              ],
              "internalType": "struct BCEvents.Effect[]",
              "name": "lowEffect",
              "type": "tuple[]"
            },
            {
              "components": [
                {
                  "internalType": "enum BCEvents.EffectTypes",
                  "name": "effect",
                  "type": "uint8"
                },
                {
                  "internalType": "uint256",
                  "name": "value",
                  "type": "uint256"
                }
              ],
              "internalType": "struct BCEvents.Effect[]",
              "name": "highEffect",
              "type": "tuple[]"
            }
          ],
          "indexed": false,
          "internalType": "struct BCEvents.BCEvent",
          "name": "bcEvent",
          "type": "tuple"
        },
        {
          "components": [
            {
              "internalType": "enum BCEvents.EffectTypes",
              "name": "effect",
              "type": "uint8"
            },
            {
              "internalType": "uint256",
              "name": "value",
              "type": "uint256"
            }
          ],
          "indexed": false,
          "internalType": "struct BCEvents.Effect[]",
          "name": "appliedBCEffects",
          "type": "tuple[]"
        }
      ],
      "name": "EventResolvedEvent",
      "type": "event"
    },
    {
      "anonymous": false,
      "inputs": [
        {
          "indexed": true,
          "internalType": "address",
          "name": "previousOwner",
          "type": "address"
        },
        {
          "indexed": true,
          "internalType": "address",
          "name": "newOwner",
          "type": "address"
        }
      ],
      "name": "OwnershipTransferred",
      "type": "event"
    },
    {
      "inputs": [],
      "name": "StartLocation",
      "outputs": [
        {
          "internalType": "uint8",
          "name": "row",
          "type": "uint8"
        },
        {
          "internalType": "uint8",
          "name": "col",
          "type": "uint8"
        }
      ],
      "stateMutability": "view",
      "type": "function"
    },
    {
      "inputs": [
        {
          "internalType": "int256",
          "name": "x",
          "type": "int256"
        }
      ],
      "name": "abs",
      "outputs": [
        {
          "internalType": "int256",
          "name": "",
          "type": "int256"
        }
      ],
      "stateMutability": "pure",
      "type": "function"
    },
    {
      "inputs": [],
      "name": "actionsAddress",
      "outputs": [
        {
          "internalType": "address",
          "name": "",
          "type": "address"
        }
      ],
      "stateMutability": "view",
      "type": "function"
    },
    {
      "inputs": [
        {
          "internalType": "uint256",
          "name": "_charId",
          "type": "uint256"
        },
        {
          "internalType": "address",
          "name": "_owner",
          "type": "address"
        }
      ],
      "name": "addPlayer",
      "outputs": [
        {
          "internalType": "uint256",
          "name": "",
          "type": "uint256"
        }
      ],
      "stateMutability": "nonpayable",
      "type": "function"
    },
    {
      "inputs": [
        {
          "internalType": "uint256",
          "name": "_mapId",
          "type": "uint256"
        },
        {
          "internalType": "uint256[]",
          "name": "_players",
          "type": "uint256[]"
        }
      ],
      "name": "applyHazardDamage",
      "outputs": [],
      "stateMutability": "nonpayable",
      "type": "function"
    },
    {
      "inputs": [],
      "name": "bcEvents",
      "outputs": [
        {
          "internalType": "contract EventsInterface",
          "name": "",
          "type": "address"
        }
      ],
      "stateMutability": "view",
      "type": "function"
    },
    {
      "inputs": [],
      "name": "chars",
      "outputs": [
        {
          "internalType": "contract CharInterface",
          "name": "",
          "type": "address"
        }
      ],
      "stateMutability": "view",
      "type": "function"
    },
    {
      "inputs": [],
      "name": "charsAddress",
      "outputs": [
        {
          "internalType": "address",
          "name": "",
          "type": "address"
        }
      ],
      "stateMutability": "view",
      "type": "function"
    },
    {
      "inputs": [
        {
          "internalType": "uint256",
          "name": "_playerId",
          "type": "uint256"
        },
        {
          "internalType": "uint256",
          "name": "_num",
          "type": "uint256"
        }
      ],
      "name": "decrementNumItemsHeld",
      "outputs": [],
      "stateMutability": "nonpayable",
      "type": "function"
    },
    {
      "inputs": [
        {
          "internalType": "uint256",
          "name": "_playerId",
          "type": "uint256"
        },
        {
          "internalType": "uint256",
          "name": "_gameId",
          "type": "uint256"
        },
        {
          "internalType": "uint256",
          "name": "_mapId",
          "type": "uint256"
        },
        {
          "components": [
            {
              "internalType": "uint8",
              "name": "row",
              "type": "uint8"
            },
            {
              "internalType": "uint8",
              "name": "col",
              "type": "uint8"
            }
          ],
          "internalType": "struct BCTypes.Position",
          "name": "_position",
          "type": "tuple"
        },
        {
          "internalType": "uint256",
          "name": "_eventId",
          "type": "uint256"
        },
        {
          "internalType": "uint256",
          "name": "_effectNum",
          "type": "uint256"
        }
      ],
      "name": "extApplyEffect",
      "outputs": [],
      "stateMutability": "nonpayable",
      "type": "function"
    },
    {
      "inputs": [
        {
          "internalType": "uint256",
          "name": "_choice",
          "type": "uint256"
        },
        {
          "internalType": "uint256",
          "name": "_eventPlayerId",
          "type": "uint256"
        },
        {
          "internalType": "uint256",
          "name": "_gameId",
          "type": "uint256"
        },
        {
          "internalType": "uint256",
          "name": "_mapId",
          "type": "uint256"
        },
        {
          "components": [
            {
              "internalType": "uint8",
              "name": "row",
              "type": "uint8"
            },
            {
              "internalType": "uint8",
              "name": "col",
              "type": "uint8"
            }
          ],
          "internalType": "struct BCTypes.Position",
          "name": "_position",
          "type": "tuple"
        },
        {
          "internalType": "uint256",
          "name": "_eventNumber",
          "type": "uint256"
        },
        {
          "internalType": "enum BCTypes.BCEventType",
          "name": "_eventType",
          "type": "uint8"
        }
      ],
      "name": "extChooseEffect",
      "outputs": [],
      "stateMutability": "nonpayable",
      "type": "function"
    },
    {
      "inputs": [
        {
          "internalType": "uint256",
          "name": "_id",
          "type": "uint256"
        }
      ],
      "name": "extGetActionsTaken",
      "outputs": [
        {
          "internalType": "uint256",
          "name": "",
          "type": "uint256"
        }
      ],
      "stateMutability": "view",
      "type": "function"
    },
    {
      "inputs": [
        {
          "internalType": "uint256",
          "name": "_id",
          "type": "uint256"
        }
      ],
      "name": "extGetPlayer",
      "outputs": [
        {
          "components": [
            {
              "internalType": "address",
              "name": "owner",
              "type": "address"
            },
            {
              "internalType": "uint256",
              "name": "characterId",
              "type": "uint256"
            },
            {
              "components": [
                {
                  "internalType": "int8",
                  "name": "health",
                  "type": "int8"
                },
                {
                  "internalType": "int8",
                  "name": "carry",
                  "type": "int8"
                },
                {
                  "internalType": "int8",
                  "name": "defense",
                  "type": "int8"
                },
                {
                  "internalType": "int8",
                  "name": "hack",
                  "type": "int8"
                },
                {
                  "internalType": "int8",
                  "name": "breach",
                  "type": "int8"
                },
                {
                  "internalType": "int8",
                  "name": "shoot",
                  "type": "int8"
                },
                {
                  "internalType": "int8",
                  "name": "melee",
                  "type": "int8"
                }
              ],
              "internalType": "struct BCTypes.Traits",
              "name": "currentTraits",
              "type": "tuple"
            },
            {
              "components": [
                {
                  "internalType": "uint8",
                  "name": "row",
                  "type": "uint8"
                },
                {
                  "internalType": "uint8",
                  "name": "col",
                  "type": "uint8"
                }
              ],
              "internalType": "struct BCTypes.Position",
              "name": "position",
              "type": "tuple"
            },
            {
              "internalType": "int8",
              "name": "healthDmgTaken",
              "type": "int8"
            },
            {
              "internalType": "uint8",
              "name": "armorDmgTaken",
              "type": "uint8"
            },
            {
              "internalType": "uint8",
              "name": "actionsTaken",
              "type": "uint8"
            },
            {
              "internalType": "uint8",
              "name": "dataTokens",
              "type": "uint8"
            },
            {
              "internalType": "uint8[]",
              "name": "currentEffects",
              "type": "uint8[]"
            },
            {
              "internalType": "uint8",
              "name": "numItemsHeld",
              "type": "uint8"
            },
            {
              "internalType": "bool",
              "name": "canHarmOthers",
              "type": "bool"
            },
            {
              "internalType": "bool",
              "name": "dead",
              "type": "bool"
            },
            {
              "internalType": "bool",
              "name": "hasEgg",
              "type": "bool"
            },
            {
              "internalType": "uint256",
              "name": "gameId",
              "type": "uint256"
            }
          ],
          "internalType": "struct BCTypes.Player",
          "name": "",
          "type": "tuple"
        }
      ],
      "stateMutability": "view",
      "type": "function"
    },
    {
      "inputs": [
        {
          "internalType": "uint256",
          "name": "_id",
          "type": "uint256"
        }
      ],
      "name": "extGetPlayerOwner",
      "outputs": [
        {
          "internalType": "address",
          "name": "",
          "type": "address"
        }
      ],
      "stateMutability": "view",
      "type": "function"
    },
    {
      "inputs": [
        {
          "internalType": "uint256",
          "name": "_playerId",
          "type": "uint256"
        },
        {
          "internalType": "uint256",
          "name": "_amount",
          "type": "uint256"
        },
        {
          "internalType": "bool",
          "name": "_hazard",
          "type": "bool"
        }
      ],
      "name": "extHurtPlayer",
      "outputs": [],
      "stateMutability": "nonpayable",
      "type": "function"
    },
    {
      "inputs": [
        {
          "components": [
            {
              "internalType": "uint8",
              "name": "row",
              "type": "uint8"
            },
            {
              "internalType": "uint8",
              "name": "col",
              "type": "uint8"
            }
          ],
          "internalType": "struct BCTypes.Position",
          "name": "_position",
          "type": "tuple"
        },
        {
          "internalType": "uint256",
          "name": "_playerId",
          "type": "uint256"
        },
        {
          "internalType": "uint256",
          "name": "_mapId",
          "type": "uint256"
        }
      ],
      "name": "extMovePlayer",
      "outputs": [
        {
          "internalType": "bool",
          "name": "",
          "type": "bool"
        }
      ],
      "stateMutability": "nonpayable",
      "type": "function"
    },
    {
      "inputs": [],
      "name": "games",
      "outputs": [
        {
          "internalType": "contract GamesInterface",
          "name": "",
          "type": "address"
        }
      ],
      "stateMutability": "view",
      "type": "function"
    },
    {
      "inputs": [
        {
          "components": [
            {
              "internalType": "uint8",
              "name": "row",
              "type": "uint8"
            },
            {
              "internalType": "uint8",
              "name": "col",
              "type": "uint8"
            }
          ],
          "internalType": "struct BCTypes.Position",
          "name": "_firstRoom",
          "type": "tuple"
        },
        {
          "components": [
            {
              "internalType": "uint8",
              "name": "row",
              "type": "uint8"
            },
            {
              "internalType": "uint8",
              "name": "col",
              "type": "uint8"
            }
          ],
          "internalType": "struct BCTypes.Position",
          "name": "_secondRoom",
          "type": "tuple"
        }
      ],
      "name": "getDirectionBetween",
      "outputs": [
        {
          "internalType": "uint256",
          "name": "",
          "type": "uint256"
        }
      ],
      "stateMutability": "pure",
      "type": "function"
    },
    {
      "inputs": [
        {
          "internalType": "uint256",
          "name": "_direction",
          "type": "uint256"
        },
        {
          "components": [
            {
              "internalType": "uint8",
              "name": "row",
              "type": "uint8"
            },
            {
              "internalType": "uint8",
              "name": "col",
              "type": "uint8"
            }
          ],
          "internalType": "struct BCTypes.Position",
          "name": "_start",
          "type": "tuple"
        }
      ],
      "name": "getNeighborRoom",
      "outputs": [
        {
          "components": [
            {
              "internalType": "uint8",
              "name": "row",
              "type": "uint8"
            },
            {
              "internalType": "uint8",
              "name": "col",
              "type": "uint8"
            }
          ],
          "internalType": "struct BCTypes.Position",
          "name": "",
          "type": "tuple"
        }
      ],
      "stateMutability": "pure",
      "type": "function"
    },
    {
      "inputs": [
        {
          "internalType": "uint256",
          "name": "_traitNum",
          "type": "uint256"
        },
        {
          "internalType": "uint256",
          "name": "_subTraitNum",
          "type": "uint256"
        }
      ],
      "name": "getUIOffset",
      "outputs": [
        {
          "internalType": "uint256",
          "name": "",
          "type": "uint256"
        }
      ],
      "stateMutability": "pure",
      "type": "function"
    },
    {
      "inputs": [
        {
          "internalType": "uint256",
          "name": "_playerId",
          "type": "uint256"
        },
        {
          "internalType": "uint8",
          "name": "_amount",
          "type": "uint8"
        }
      ],
      "name": "grantDataToPlayer",
      "outputs": [],
      "stateMutability": "nonpayable",
      "type": "function"
    },
    {
      "inputs": [
        {
          "internalType": "uint256",
          "name": "_playerId",
          "type": "uint256"
        },
        {
          "internalType": "uint256",
          "name": "_num",
          "type": "uint256"
        }
      ],
      "name": "incrementNumItemsHeld",
      "outputs": [],
      "stateMutability": "nonpayable",
      "type": "function"
    },
    {
      "inputs": [
        {
          "internalType": "uint256",
          "name": "_playerId",
          "type": "uint256"
        }
      ],
      "name": "incrementPlayerActions",
      "outputs": [],
      "stateMutability": "nonpayable",
      "type": "function"
    },
    {
      "inputs": [],
      "name": "items",
      "outputs": [
        {
          "internalType": "contract ItemsInterface",
          "name": "",
          "type": "address"
        }
      ],
      "stateMutability": "view",
      "type": "function"
    },
    {
      "inputs": [],
      "name": "lobbiesAddress",
      "outputs": [
        {
          "internalType": "address",
          "name": "",
          "type": "address"
        }
      ],
      "stateMutability": "view",
      "type": "function"
    },
    {
      "inputs": [],
      "name": "maps",
      "outputs": [
        {
          "internalType": "contract MapInterface",
          "name": "",
          "type": "address"
        }
      ],
      "stateMutability": "view",
      "type": "function"
    },
    {
      "inputs": [
        {
          "internalType": "uint256",
          "name": "_min",
          "type": "uint256"
        },
        {
          "internalType": "uint256",
          "name": "_max",
          "type": "uint256"
        },
        {
          "internalType": "uint256",
          "name": "_val",
          "type": "uint256"
        },
        {
          "internalType": "uint256",
          "name": "_valMax",
          "type": "uint256"
        }
      ],
      "name": "normalizeToSmallRange",
      "outputs": [
        {
          "internalType": "uint8",
          "name": "",
          "type": "uint8"
        }
      ],
      "stateMutability": "pure",
      "type": "function"
    },
    {
      "inputs": [
        {
          "internalType": "uint256",
          "name": "_direction",
          "type": "uint256"
        }
      ],
      "name": "opposite",
      "outputs": [
        {
          "internalType": "uint256",
          "name": "",
          "type": "uint256"
        }
      ],
      "stateMutability": "pure",
      "type": "function"
    },
    {
      "inputs": [],
      "name": "owner",
      "outputs": [
        {
          "internalType": "address",
          "name": "",
          "type": "address"
        }
      ],
      "stateMutability": "view",
      "type": "function"
    },
    {
      "inputs": [
        {
          "internalType": "uint256",
          "name": "",
          "type": "uint256"
        }
      ],
      "name": "players",
      "outputs": [
        {
          "internalType": "address",
          "name": "owner",
          "type": "address"
        },
        {
          "internalType": "uint256",
          "name": "characterId",
          "type": "uint256"
        },
        {
          "components": [
            {
              "internalType": "int8",
              "name": "health",
              "type": "int8"
            },
            {
              "internalType": "int8",
              "name": "carry",
              "type": "int8"
            },
            {
              "internalType": "int8",
              "name": "defense",
              "type": "int8"
            },
            {
              "internalType": "int8",
              "name": "hack",
              "type": "int8"
            },
            {
              "internalType": "int8",
              "name": "breach",
              "type": "int8"
            },
            {
              "internalType": "int8",
              "name": "shoot",
              "type": "int8"
            },
            {
              "internalType": "int8",
              "name": "melee",
              "type": "int8"
            }
          ],
          "internalType": "struct BCTypes.Traits",
          "name": "currentTraits",
          "type": "tuple"
        },
        {
          "components": [
            {
              "internalType": "uint8",
              "name": "row",
              "type": "uint8"
            },
            {
              "internalType": "uint8",
              "name": "col",
              "type": "uint8"
            }
          ],
          "internalType": "struct BCTypes.Position",
          "name": "position",
          "type": "tuple"
        },
        {
          "internalType": "int8",
          "name": "healthDmgTaken",
          "type": "int8"
        },
        {
          "internalType": "uint8",
          "name": "armorDmgTaken",
          "type": "uint8"
        },
        {
          "internalType": "uint8",
          "name": "actionsTaken",
          "type": "uint8"
        },
        {
          "internalType": "uint8",
          "name": "dataTokens",
          "type": "uint8"
        },
        {
          "internalType": "uint8",
          "name": "numItemsHeld",
          "type": "uint8"
        },
        {
          "internalType": "bool",
          "name": "canHarmOthers",
          "type": "bool"
        },
        {
          "internalType": "bool",
          "name": "dead",
          "type": "bool"
        },
        {
          "internalType": "bool",
          "name": "hasEgg",
          "type": "bool"
        },
        {
          "internalType": "uint256",
          "name": "gameId",
          "type": "uint256"
        }
      ],
      "stateMutability": "view",
      "type": "function"
    },
    {
      "inputs": [],
      "name": "randKeccak",
      "outputs": [
        {
          "internalType": "bytes32",
          "name": "",
          "type": "bytes32"
        }
      ],
      "stateMutability": "nonpayable",
      "type": "function"
    },
    {
      "inputs": [],
      "name": "renounceOwnership",
      "outputs": [],
      "stateMutability": "nonpayable",
      "type": "function"
    },
    {
      "inputs": [
        {
          "internalType": "uint256",
          "name": "_playerId",
          "type": "uint256"
        }
      ],
      "name": "resetPlayerActions",
      "outputs": [],
      "stateMutability": "nonpayable",
      "type": "function"
    },
    {
      "inputs": [
        {
          "internalType": "uint256",
          "name": "_gameId",
          "type": "uint256"
        },
        {
          "internalType": "uint256",
          "name": "_for",
          "type": "uint256"
        },
        {
          "internalType": "uint256",
          "name": "_against",
          "type": "uint256"
        }
      ],
      "name": "resolveChallenge",
      "outputs": [
        {
          "internalType": "bool",
          "name": "",
          "type": "bool"
        }
      ],
      "stateMutability": "nonpayable",
      "type": "function"
    },
    {
      "inputs": [
        {
          "internalType": "uint256",
          "name": "_gameId",
          "type": "uint256"
        }
      ],
      "name": "roll",
      "outputs": [
        {
          "internalType": "uint256",
          "name": "",
          "type": "uint256"
        }
      ],
      "stateMutability": "nonpayable",
      "type": "function"
    },
    {
      "inputs": [
        {
          "internalType": "address",
          "name": "_charAddress",
          "type": "address"
        },
        {
          "internalType": "address",
          "name": "_utilsAddress",
          "type": "address"
        },
        {
          "internalType": "address",
          "name": "_mapsAddress",
          "type": "address"
        },
        {
          "internalType": "address",
          "name": "_lobbiesAddress",
          "type": "address"
        },
        {
          "internalType": "address",
          "name": "_actionsAddress",
          "type": "address"
        },
        {
          "internalType": "address",
          "name": "_eventsAddress",
          "type": "address"
        },
        {
          "internalType": "address",
          "name": "_itemsAddress",
          "type": "address"
        },
        {
          "internalType": "address",
          "name": "_gamesAddress",
          "type": "address"
        }
      ],
      "name": "setContractAddresses",
      "outputs": [],
      "stateMutability": "nonpayable",
      "type": "function"
    },
    {
      "inputs": [
        {
          "internalType": "uint256[]",
          "name": "ids",
          "type": "uint256[]"
        },
        {
          "internalType": "uint256",
          "name": "_gameId",
          "type": "uint256"
        }
      ],
      "name": "setPlayersGameId",
      "outputs": [],
      "stateMutability": "nonpayable",
      "type": "function"
    },
    {
      "inputs": [
        {
          "internalType": "bytes32",
          "name": "_hash",
          "type": "bytes32"
        },
        {
          "internalType": "uint256",
          "name": "_size",
          "type": "uint256"
        },
        {
          "internalType": "uint256",
          "name": "_offset",
          "type": "uint256"
        }
      ],
      "name": "sliceHashToSmallInt",
      "outputs": [
        {
          "internalType": "uint8",
          "name": "",
          "type": "uint8"
        }
      ],
      "stateMutability": "pure",
      "type": "function"
    },
    {
      "inputs": [
        {
          "internalType": "uint8",
          "name": "_min",
          "type": "uint8"
        },
        {
          "internalType": "uint8",
          "name": "_max",
          "type": "uint8"
        }
      ],
      "name": "smallIntBetweenVals",
      "outputs": [
        {
          "internalType": "uint8",
          "name": "",
          "type": "uint8"
        }
      ],
      "stateMutability": "nonpayable",
      "type": "function"
    },
    {
      "inputs": [
        {
          "internalType": "address",
          "name": "newOwner",
          "type": "address"
        }
      ],
      "name": "transferOwnership",
      "outputs": [],
      "stateMutability": "nonpayable",
      "type": "function"
    },
    {
      "inputs": [
        {
          "internalType": "uint256",
          "name": "_charId",
          "type": "uint256"
        },
        {
          "internalType": "uint256",
          "name": "_playerId",
          "type": "uint256"
        }
      ],
      "name": "updatePlayerTraits",
      "outputs": [],
      "stateMutability": "nonpayable",
      "type": "function"
    }
  ],
  "transactionHash": "0x9e073fd07963dec7b4de180e1c865632a31207fea9c6ca44846782f202905c32",
  "args": [],
  "numDeployments": 3,
  "solcInputHash": "7ac0abbebf11abf1379f7ffb2ec3a099",
  "bytecode": "0x600060015560c0604052600a6080819052600660a052805461ffff191661060a1790553480156200002f57600080fd5b506200003b336200031b565b620000456200036b565b600b81908060018154018082558091505060019003906000526020600020906008020160009091909190915060008201518160000160006101000a8154816001600160a01b0302191690836001600160a01b031602179055506020820151816001015560408201518160020160008201518160000160006101000a81548160ff021916908360000b60ff16021790555060208201518160000160016101000a81548160ff021916908360000b60ff16021790555060408201518160000160026101000a81548160ff021916908360000b60ff16021790555060608201518160000160036101000a81548160ff021916908360000b60ff16021790555060808201518160000160046101000a81548160ff021916908360000b60ff16021790555060a08201518160000160056101000a81548160ff021916908360000b60ff16021790555060c08201518160000160066101000a81548160ff021916908360000b60ff160217905550505060608201518160030160008201518160000160006101000a81548160ff021916908360ff16021790555060208201518160000160016101000a81548160ff021916908360ff160217905550505060808201518160040160006101000a81548160ff021916908360000b60ff16021790555060a08201518160040160016101000a81548160ff021916908360ff16021790555060c08201518160040160026101000a81548160ff021916908360ff16021790555060e08201518160040160036101000a81548160ff021916908360ff160217905550610100820151816005019080519060200190620002a292919062000433565b50610120820151600682018054610140850151610160860151610180870151151563010000000263ff0000001991151562010000029190911663ffff0000199215156101000261ffff1990941660ff909616959095179290921716929092179190911790556101a09091015160079091015550620004f7565b600080546001600160a01b038381166001600160a01b0319831681178455604051919092169283917f8be0079c531659141344cd1fd0a4f28419497f9722a3daafe3b4186f6b6457e09190a35050565b604080516101c08101825260008082526020808301829052835160e081018552828152908101829052808401829052606081018290526080810182905260a0810182905260c081019190915290918201908152602001620003e56040518060400160405280600060ff168152602001600060ff1681525090565b81526000602082018190526040820181905260608083018290526080830182905260a083015260c0820181905260e08201819052610100820181905261012082018190526101409091015290565b82805482825590600052602060002090601f01602090048101928215620004ce5791602002820160005b838211156200049d57835183826101000a81548160ff021916908360ff16021790555092602001926001016020816000010492830192600103026200045d565b8015620004cc5782816101000a81549060ff02191690556001016020816000010492830192600103026200049d565b505b50620004dc929150620004e0565b5090565b5b80821115620004dc5760008155600101620004e1565b61407180620005076000396000f3fe608060405234801561001057600080fd5b50600436106102535760003560e01c80638214f22211610146578063ce28613f116100c3578063ed86196111610087578063ed8619611461055f578063f2fde38b14610572578063f71d96cb14610585578063f96f55d0146105b1578063fa3993c2146105c4578063fe23e2df146105d757600080fd5b8063ce28613f146104e3578063ce932297146104f6578063d641934914610509578063dc769ee81461051c578063e7169ec51461054c57600080fd5b8063955a015b1161010a578063955a015b1461048457806397f34c3f146104975780639fca1ee1146104aa578063b6907194146104bd578063c06fad06146104d057600080fd5b80638214f2221461041a5780638d491b3e1461042d5780638da5cb5b14610440578063921d279914610451578063951fc3fe1461046457600080fd5b806353011696116101d4578063668a7f3b11610198578063668a7f3b146103c65780636d291bbb146103d9578063715018a6146103ec5780637b45c0d4146103f45780637ddae1031461040757600080fd5b806353011696146103455780635dc969671461036a57806364db84bf1461038d57806365c363f0146103a05780636621a421146103b357600080fd5b80631f7b4f301161021b5780631f7b4f30146102e6578063336d7d7b146102f9578063351dacdf1461030c5780633deaec2b1461031f57806347d0e3c91461033257600080fd5b80630dd0f5881461025857806310a2cd0d1461026d57806310f67fb31461029d5780631b5ac4b5146102bd5780631e1de205146102de575b600080fd5b61026b610266366004612d0d565b6105ea565b005b600254610280906001600160a01b031681565b6040516001600160a01b0390911681526020015b60405180910390f35b6102b06102ab366004612d46565b61062d565b6040516102949190612df4565b6102d06102cb366004612d46565b610812565b604051908152602001610294565b6102d0610832565b6102d06102f4366004612d46565b6108aa565b600754610280906001600160a01b031681565b61026b61031a366004612f0e565b610906565b600354610280906001600160a01b031681565b6102d0610340366004612d46565b61095b565b610358610353366004612f30565b610993565b60405160ff9091168152602001610294565b61037d610378366004612f62565b6109d0565b6040519015158152602001610294565b6102d061039b366004612f0e565b610a6d565b61026b6103ae366004612d46565b610a85565b6102806103c1366004612d46565b610add565b61026b6103d43660046130cf565b610b12565b61026b6103e7366004613166565b610c67565b61026b6110bc565b600954610280906001600160a01b031681565b600454610280906001600160a01b031681565b6102d0610428366004612d46565b6110d0565b61037d61043b3660046131d3565b61114a565b6000546001600160a01b0316610280565b61026b61045f366004613223565b611276565b6104776104723660046132ba565b6112fe565b60405161029491906132e7565b600654610280906001600160a01b031681565b6103586104a5366004612f62565b611428565b600854610280906001600160a01b031681565b61026b6104cb366004613305565b611453565b600554610280906001600160a01b031681565b6103586104f1366004613335565b6114e4565b61026b610504366004612d46565b611594565b6102d0610517366004613363565b611604565b600a546105329060ff8082169161010090041682565b6040805160ff938416815292909116602083015201610294565b61026b61055a366004613386565b6116f9565b61026b61056d3660046133ca565b611782565b61026b61058036600461341c565b61187e565b610598610593366004612d46565b6118f7565b6040516102949d9c9b9a99989796959493929190613437565b61026b6105bf366004612f0e565b6119fd565b6102d06105d23660046134dc565b611c7c565b61026b6105e5366004612f0e565b611d44565b6006546001600160a01b0316331461061d5760405162461bcd60e51b815260040161061490613508565b60405180910390fd5b610628838383611d7d565b505050565b610635612c38565b600b828154811061064857610648613534565b60009182526020808320604080516101c081018252600890940290910180546001600160a01b03168452600181015484840152815160e08082018452600283015480880b8352610100808204890b84880152620100008083048a0b8588015263010000008084048b0b60608088019190915264010000000085048c0b6080808901919091526501000000000086048d0b60a0808a0191909152600160301b9096048d0b60c0808a01919091528c8b01989098528951808b018b5260038a015460ff8082168352908790048116828e0152928d015260048901549c8d900b908c0152838c048116948b0194909452908a04831694890194909452929097049096169585019590955260058101805483518186028101860190945280845294959194918601939091908301828280156107bc57602002820191906000526020600020906000905b825461010083900a900460ff1681526020600192830181810494850194909303909202910180841161078d5790505b5050509183525050600682015460ff808216602084015261010082048116151560408401526201000082048116151560608401526301000000909104161515608082015260079091015460a09091015292915050565b60008082121561082a5761082582613560565b61082c565b815b92915050565b60018054600091826108438361357c565b91905055506001546001436108589190613595565b403360405160200161088f93929190928352602083019190915260601b6bffffffffffffffffffffffff1916604082015260540190565b60405160208183030381529060405280519060200120905090565b6000806108b9600160066114e4565b60ff1690507ffe34d093a460a16ee5fb374540914d1c734a17502c0c1a87b387c8d6097e1c5183826040516108f8929190918252602082015260400190565b60405180910390a192915050565b80600b838154811061091a5761091a613534565b600091825260208220600660089092020101805490919061093f90849060ff166135a8565b92506101000a81548160ff021916908360ff1602179055505050565b6000600b828154811061097057610970613534565b600091825260209091206008909102016004015462010000900460ff1692915050565b6000806109a08686613595565b90506000836109af86846135c1565b6109b991906135ee565b90506109c58782613602565b979650505050505050565b6000806109dc856108aa565b6040805187815260208101839052908101869052606081018590529091507f75b6a8325595f91135e07382840634226793c68c9e59623da7e10d7ad3d95b959060800160405180910390a180600103610a39576000915050610a66565b600383610a468684613602565b610a509190613615565b1315610a60576001915050610a66565b60009150505b9392505050565b600081610a7b8460046135c1565b610a669190613602565b6006546001600160a01b03163314610a9c57600080fd5b6000600b8281548110610ab157610ab1613534565b906000526020600020906008020160040160026101000a81548160ff021916908360ff16021790555050565b6000600b8281548110610af257610af2613534565b60009182526020909120600890910201546001600160a01b031692915050565b6006546001600160a01b03163314610b3c5760405162461bcd60e51b815260040161061490613508565b60005b60018251610b4d9190613595565b8111610628576000600b838381518110610b6957610b69613534565b602002602001015181548110610b8157610b81613534565b600091825260208220600380546008939093029091019081015460405163f9dfbfcb60e01b81526004810189905260ff808316602483015261010090920490911660448201529093506001600160a01b039091169063f9dfbfcb9060640161014060405180830381865afa158015610bfd573d6000803e3d6000fd5b505050506040513d601f19601f82011682018060405250810190610c219190613652565b90508060c0015115610c5257610c52848481518110610c4257610c42613534565b6020026020010151600180611d7d565b50508080610c5f9061357c565b915050610b3f565b610c956040518060400160405280600c81526020016b2fb2bb32b73a273ab6b132b960a11b81525083611e78565b610cd26040518060400160405280600a8152602001695f6576656e745479706560b01b815250826005811115610ccd57610ccd613744565b611e78565b6006546001600160a01b03163314610cfc5760405162461bcd60e51b815260040161061490613508565b610d446040518060e0016040528060008152602001600015158152602001600060ff168152602001600060ff1681526020016060815260200160608152602001606081525090565b6005826005811115610d5857610d58613744565b03610dd3576004805460405163c82c37b960e01b81529182018590526001600160a01b03169063c82c37b990602401600060405180830381865afa158015610da4573d6000803e3d6000fd5b505050506040513d6000823e601f3d908101601f19168201604052610dcc91908101906137e7565b9050610e4c565b6004805460405163e4dc1a8360e01b81526001600160a01b039091169163e4dc1a8391610e049187918791016138ec565b600060405180830381865afa158015610e21573d6000803e3d6000fd5b505050506040513d6000823e601f3d908101601f19168201604052610e4991908101906137e7565b90505b600480546040516336772a9360e21b81526000926001600160a01b039092169163d9dcaa4c91610e80918791899101613900565b600060405180830381865afa158015610e9d573d6000803e3d6000fd5b505050506040513d6000823e601f3d908101601f19168201604052610ec5919081019061391b565b9050816040015160ff166000148015610ee35750606082015160ff16155b15610f5957610f0f8888888885600081518110610f0257610f02613534565b6020026020010151611ec1565b60008051602061401c83398151915287898484600081518110610f3457610f34613534565b6020026020010151604051610f4c9493929190613a16565b60405180910390a16110b1565b6000610f64886108aa565b9050826040015160ff16600014158015610f855750826040015160ff168111155b15610fee57610fa48989898986600181518110610f0257610f02613534565b60008051602061401c833981519152888a8585600181518110610fc957610fc9613534565b6020026020010151604051610fe19493929190613a16565b60405180910390a16110af565b606083015160ff161580159061100b5750826060015160ff168110155b1561104f5761102a8989898986600281518110610f0257610f02613534565b60008051602061401c833981519152888a8585600281518110610fc957610fc9613534565b6110698989898986600081518110610f0257610f02613534565b60008051602061401c833981519152888a858560008151811061108e5761108e613534565b60200260200101516040516110a69493929190613a16565b60405180910390a15b505b505050505050505050565b6110c4612953565b6110ce60006129ad565b565b6000816000036110e257506001919050565b816001036110f257506000919050565b8160020361110257506003919050565b8160030361111257506002919050565b60405162461bcd60e51b815260206004820152600d60248201526c2130b2103234b932b1ba34b7b760991b6044820152606401610614565b6006546000906001600160a01b031633146111775760405162461bcd60e51b815260040161061490613508565b83600b848154811061118b5761118b613534565b60009182526020808320845160036008909402909101830180549583015160ff9081166101000261ffff19909716921691909117949094179093555486519287015160405163f9dfbfcb60e01b815292936001600160a01b039092169263f9dfbfcb9261121092889260040192835260ff918216602084015216604082015260600190565b61014060405180830381865afa15801561122e573d6000803e3d6000fd5b505050506040513d601f19601f820116820180604052508101906112529190613652565b5160ff160361126c57611264836129fd565b506001610a66565b5060009392505050565b61127e612953565b600280546001600160a01b03199081166001600160a01b039a8b1617909155600380548216978a169790971790965560078054871695891695909517909455600980548616938816939093179092556004805485169187169190911790556005805484169186169190911790556006805490921693169290921790915550565b6040805180820190915260008082526020820152826000036113505760405180604001604052806001846000015161133691906135a8565b60ff168152602001836020015160ff16815250905061082c565b82600103611374576040518060400160405280836000015160016113369190613acb565b826002036113b1576040518060400160405280836000015160ff168152602001836020015160016113a59190613acb565b60ff169052905061082c565b826003036113e2576040518060400160405280836000015160ff168152602001600184602001516113a591906135a8565b60006113ed84612b17565b6040516020016113fd9190613b08565b60405160208183030381529060405290508060405162461bcd60e51b81526004016106149190613b6f565b600080826001611439866002613c66565b6114439190613595565b901b8516831c9150509392505050565b6009546001600160a01b031633146114a45760405162461bcd60e51b8152602060048201526014602482015273139bdd081858dd1a5bdb9cc818dbdb9d1c9858dd60621b6044820152606401610614565b80600b83815481106114b8576114b8613534565b906000526020600020906008020160040160038282829054906101000a900460ff1661093f9190613acb565b60018054600091826114f58361357c565b919050555060003360015460014361150d9190613595565b60405160609390931b6bffffffffffffffffffffffff19166020840152603483019190915240605482015260740160408051601f1981840301815291905280516020909101209050600061156185856135a8565b61156c906001613acb565b90508460ff168160ff16836115819190613c72565b61158b9190613602565b95945050505050565b6006546001600160a01b031633146115ab57600080fd5b600b81815481106115be576115be613534565b60009182526020909120600890910201600401805462010000900460ff169060026115e883613c86565b91906101000a81548160ff021916908360ff1602179055505050565b6007546000906001600160a01b031633146116565760405162461bcd60e51b8152602060048201526012602482015271139bdd081b1bd8989e4818dbdb9d1c9858dd60721b6044820152606401610614565b600b805460018181018355600083905260089091027f0175b7a638427703f0dbe7bb9bbf987a2551717b34e79f33b5b1008d1fa01db9810180546001600160a01b0387166001600160a01b03199091161781557f0175b7a638427703f0dbe7bb9bbf987a2551717b34e79f33b5b1008d1fa01dba90910186905591546116e29186916105bf9190613595565b600b546116f190600190613595565b949350505050565b6006546001600160a01b031633146117235760405162461bcd60e51b815260040161061490613508565b60005b82518110156106285781600b84838151811061174457611744613534565b60200260200101518154811061175c5761175c613534565b60009182526020909120600760089092020101558061177a8161357c565b915050611726565b6009546001600160a01b031633146117d35760405162461bcd60e51b8152602060048201526014602482015273139bdd081858dd1a5bdb9cc818dbdb9d1c9858dd60621b6044820152606401610614565b600480546040516336772a9360e21b81526000926001600160a01b039092169163d9dcaa4c9161180891600591889101613900565b600060405180830381865afa158015611825573d6000803e3d6000fd5b505050506040513d6000823e601f3d908101601f1916820160405261184d919081019061391b565b828151811061185e5761185e613534565b602002602001015190506118758787878785611ec1565b50505050505050565b611886612953565b6001600160a01b0381166118eb5760405162461bcd60e51b815260206004820152602660248201527f4f776e61626c653a206e6577206f776e657220697320746865207a65726f206160448201526564647265737360d01b6064820152608401610614565b6118f4816129ad565b50565b600b818154811061190757600080fd5b600091825260208083206008909202909101805460018201546040805160e081018252600285015480880b8252610100808204890b83890152620100008083048a0b8486015263010000008084048b0b606086015264010000000084048b0b60808601526501000000000084048b0b60a0860152600160301b9093048a0b60c08501528451808601909552600388015460ff808216875290839004811699860199909952600488015460068901546007909901546001600160a01b039098169b509599939894979386900b968287048616968281048716969085900481169580821695948104821694938104821693900416908d565b600254604051634810bc5960e01b8152600481018490526000916001600160a01b031690634810bc59906024016101e060405180830381865afa158015611a48573d6000803e3d6000fd5b505050506040513d601f19601f82011682018060405250810190611a6c9190613d4a565b606001516005546040516347ef26b160e01b8152600481018590529192506000916001600160a01b03909116906347ef26b19060240160e060405180830381865afa158015611abf573d6000803e3d6000fd5b505050506040513d601f19601f82011682018060405250810190611ae39190613df1565b90506000600b8481548110611afa57611afa613534565b9060005260206000209060080201905081600001518360000151611b1e9190613e0d565b60028201805460ff191660ff9290921691909117905560208281015190840151611b489190613e0d565b60028201805460ff929092166101000261ff001990921691909117905560408083015190840151611b799190613e0d565b60028201805460ff92909216620100000262ff00001990921691909117905560608083015190840151611bac9190613e0d565b60028201805460ff9290921663010000000263ff0000001990921691909117905560808083015190840151611be19190613e0d565b60028201805460ff929092166401000000000264ff000000001990921691909117905560a08083015190840151611c189190613e0d565b60028201805460ff92909216650100000000000265ff00000000001990921691909117905560c08083015190840151611c519190613e0d565b6002909101805460ff92909216600160301b0266ff0000000000001990921691909117905550505050565b80518251600091611c8c91613e2e565b60000b600103611c9e5750600061082c565b81518351611cac9190613e2e565b60000b19611cbc5750600161082c565b81602001518360200151611cd09190613e2e565b60000b19611ce05750600261082c565b81602001518360200151611cf49190613e2e565b60000b600103611d065750600361082c565b60405162461bcd60e51b8152602060048201526013602482015272115c9c9bdc8e88139bdd0818591a9858d95b9d606a1b6044820152606401610614565b80600b8381548110611d5857611d58613534565b600091825260208220600660089092020101805490919061093f90849060ff16613acb565b6000600b8481548110611d9257611d92613534565b600091825260208220600254600892909202016001810154604051634810bc5960e01b815260048101919091529093506001600160a01b0390911690634810bc59906024016101e060405180830381865afa158015611df5573d6000803e3d6000fd5b505050506040513d601f19601f82011682018060405250810190611e199190613d4a565b6004830180549192508591600090611e34908490830b613e0d565b825460ff9182166101009390930a9283029190920219909116179055506060810151516004830154600091820b910b12611e7157611e71856129fd565b5050505050565b611ebd8282604051602401611e8e929190613e4f565b60408051601f198184030181529190526020810180516001600160e01b03166309710a9d60e41b179052612c17565b5050565b60005b815181101561294b576000600b8781548110611ee257611ee2613534565b6000918252602090912060089091020190506001838381518110611f0857611f08613534565b6020026020010151600001516016811115611f2557611f25613744565b50506002838381518110611f3b57611f3b613534565b6020026020010151600001516016811115611f5857611f58613744565b03611f9e57828281518110611f6f57611f6f613534565b6020026020010151602001516000611f879190613e2e565b60048201805460ff191660ff929092169190911790555b6003838381518110611fb257611fb2613534565b6020026020010151600001516016811115611fcf57611fcf613744565b03611fdd57611fdd876129fd565b6004838381518110611ff157611ff1613534565b602002602001015160000151601681111561200e5761200e613744565b036120915760035484516020860151604051637f1b46bd60e11b81526004810189905260ff928316602482015291166044820152600160648201526001600160a01b039091169063fe368d7a90608401600060405180830381600087803b15801561207857600080fd5b505af115801561208c573d6000803e3d6000fd5b505050505b60058383815181106120a5576120a5613534565b60200260200101516000015160168111156120c2576120c2613744565b505060068383815181106120d8576120d8613534565b60200260200101516000015160168111156120f5576120f5613744565b0361216a5782828151811061210c5761210c613534565b6020908102919091018101510151600482018054600090612130908490830b613e2e565b825460ff9182166101009390930a9283029190920219909116179055506004810154600090810b121561216a5760048101805460ff191690555b600783838151811061217e5761217e613534565b602002602001015160000151601681111561219b5761219b613744565b505060088383815181106121b1576121b1613534565b60200260200101516000015160168111156121ce576121ce613744565b036121fc576121fc878484815181106121e9576121e9613534565b6020026020010151602001516001611d7d565b600983838151811061221057612210613534565b602002602001015160000151601681111561222d5761222d613744565b0361225b5761225b8784848151811061224857612248613534565b6020026020010151602001516000611d7d565b600b83838151811061226f5761226f613534565b602002602001015160000151601681111561228c5761228c613744565b5050600d8383815181106122a2576122a2613534565b60200260200101516000015160168111156122bf576122bf613744565b036122eb576122eb878484815181106122da576122da613534565b602002602001015160200151611453565b600e8383815181106122ff576122ff613534565b602002602001015160000151601681111561231c5761231c613744565b5050600f83838151811061233257612332613534565b602002602001015160000151601681111561234f5761234f613744565b0361256957600083838151811061236857612368613534565b6020908102919091018101510151600554604051633841fae160e01b8152600481018b90529192506000916001600160a01b0390911690633841fae190602401600060405180830381865afa1580156123c5573d6000803e3d6000fd5b505050506040513d6000823e601f3d908101601f191682016040526123ed9190810190613e71565b805190915015612566576000600182516124079190613595565b90505b80156124a657600061241d6000836114e4565b9050828160ff168151811061243457612434613534565b602002602001015183838151811061244e5761244e613534565b602002602001015184848151811061246857612468613534565b60200260200101858460ff168151811061248457612484613534565b602090810291909101019190915252508061249e81613ef6565b91505061240a565b5060005b81518510156125645760055482516001600160a01b0390911690635f09c782908c908590859081106124de576124de613534565b60200260200101516040518363ffffffff1660e01b815260040161250c929190918252602082015260400190565b600060405180830381600087803b15801561252657600080fd5b505af115801561253a573d6000803e3d6000fd5b50505050828061254990613ef6565b9350508215612564578061255c8161357c565b9150506124aa565b505b50505b601183838151811061257d5761257d613534565b602002602001015160000151601681111561259a5761259a613744565b036126b75760058383815181106125b3576125b3613534565b602002602001015160200151036126b757600354604051632fc4a8f360e11b81526004810187905260009182916001600160a01b0390911690635f8951e6906024016040805180830381865afa158015612611573d6000803e3d6000fd5b505050506040513d601f19601f820116820180604052508101906126359190613f0d565b60065460408051808201825260ff8086168252841660208201529051631751422560e01b81529395509193506001600160a01b031691631751422591612682918c91908e90600401613f31565b600060405180830381600087803b15801561269c57600080fd5b505af11580156126b0573d6000803e3d6000fd5b5050505050505b60128383815181106126cb576126cb613534565b60200260200101516000015160168111156126e8576126e8613744565b505060138383815181106126fe576126fe613534565b602002602001015160000151601681111561271b5761271b613744565b5050601583838151811061273157612731613534565b602002602001015160000151601681111561274e5761274e613744565b036129055760005b60048110156129035760035485516020870151604051630dd43b9b60e31b8152600481018a905260ff928316602482015291166044820152606481018390526000916001600160a01b031690636ea1dcd890608401606060405180830381865afa1580156127c8573d6000803e3d6000fd5b505050506040513d601f19601f820116820180604052508101906127ec9190613f63565b905060018160400151600481111561280657612806613744565b1480612827575060028160400151600481111561282557612825613744565b145b80612847575060038160400151600481111561284557612845613744565b145b156128f057600360009054906101000a90046001600160a01b03166001600160a01b0316635921522388886000015189602001518660018b8b8151811061289057612890613534565b6020026020010151602001516040518763ffffffff1660e01b81526004016128bd96959493929190613fd8565b600060405180830381600087803b1580156128d757600080fd5b505af11580156128eb573d6000803e3d6000fd5b505050505b50806128fb8161357c565b915050612756565b505b601483838151811061291957612919613534565b602002602001015160000151601681111561293657612936613744565b505050806129438161357c565b915050611ec4565b505050505050565b6000546001600160a01b031633146110ce5760405162461bcd60e51b815260206004820181905260248201527f4f776e61626c653a2063616c6c6572206973206e6f7420746865206f776e65726044820152606401610614565b600080546001600160a01b038381166001600160a01b0319831681178455604051919092169283917f8be0079c531659141344cd1fd0a4f28419497f9722a3daafe3b4186f6b6457e09190a35050565b6000600b8281548110612a1257612a12613534565b6000918252602090912060089091020160048101805460ff19169055600254600b80549293506001600160a01b0390911691636d6ba756919085908110612a5b57612a5b613534565b9060005260206000209060080201600101546040518263ffffffff1660e01b8152600401612a8b91815260200190565b600060405180830381600087803b158015612aa557600080fd5b505af1158015612ab9573d6000803e3d6000fd5b50505050600a600b8381548110612ad257612ad2613534565b600091825260209091208254600890920201600301805460ff92831660ff19821681178355935461ffff19909116909317610100938490049092169092021790555050565b606081600003612b3e5750506040805180820190915260018152600360fc1b602082015290565b8160005b8115612b685780612b528161357c565b9150612b619050600a836135ee565b9150612b42565b6000816001600160401b03811115612b8257612b82612f8e565b6040519080825280601f01601f191660200182016040528015612bac576020820181803683370190505b5090505b84156116f157612bc1600183613595565b9150612bce600a86613c72565b612bd9906030613602565b60f81b818381518110612bee57612bee613534565b60200101906001600160f81b031916908160001a905350612c10600a866135ee565b9450612bb0565b80516a636f6e736f6c652e6c6f67602083016000808483855afa5050505050565b604080516101c08101825260008082526020808301829052835160e081018552828152908101829052808401829052606081018290526080810182905260a0810182905260c081019190915290918201908152602001612cb16040518060400160405280600060ff168152602001600060ff1681525090565b81526000602082018190526040820181905260608083018290526080830182905260a083015260c0820181905260e08201819052610100820181905261012082018190526101409091015290565b80151581146118f457600080fd5b600080600060608486031215612d2257600080fd5b83359250602084013591506040840135612d3b81612cff565b809150509250925092565b600060208284031215612d5857600080fd5b5035919050565b8051600081810b84526020830151810b60208501526040830151810b60408501526060830151810b60608501526080830151810b608085015260a0830151810b60a085015260c0830151810b60c085015250505050565b600081518084526020808501945080840160005b83811015612de957815160ff1687529582019590820190600101612dca565b509495945050505050565b60208152612e0e6020820183516001600160a01b03169052565b6020820151604082015260006040830151612e2c6060840182612d5f565b506060830151610140612e5181850183805160ff908116835260209182015116910152565b60808501519150610180612e698186018460000b9052565b60a086015192506101a0612e818187018560ff169052565b60c087015160ff9081166101c088015260e0880151166101e08701526101008701516102a06102008801819052909450612ebf6102c0880186612db6565b9450610120880151612ed761022089018260ff169052565b5092870151151561024087015261016087015115156102608701529086015115156102808601529094015192909301919091525090565b60008060408385031215612f2157600080fd5b50508035926020909101359150565b60008060008060808587031215612f4657600080fd5b5050823594602084013594506040840135936060013592509050565b600080600060608486031215612f7757600080fd5b505081359360208301359350604090920135919050565b634e487b7160e01b600052604160045260246000fd5b604080519081016001600160401b0381118282101715612fc657612fc6612f8e565b60405290565b60405160e081016001600160401b0381118282101715612fc657612fc6612f8e565b60405161012081016001600160401b0381118282101715612fc657612fc6612f8e565b604051601f8201601f191681016001600160401b038111828210171561303957613039612f8e565b604052919050565b60006001600160401b0382111561305a5761305a612f8e565b5060051b60200190565b600082601f83011261307557600080fd5b8135602061308a61308583613041565b613011565b82815260059290921b840181019181810190868411156130a957600080fd5b8286015b848110156130c457803583529183019183016130ad565b509695505050505050565b600080604083850312156130e257600080fd5b8235915060208301356001600160401b038111156130ff57600080fd5b61310b85828601613064565b9150509250929050565b60ff811681146118f457600080fd5b60006040828403121561313657600080fd5b61313e612fa4565b9050813561314b81613115565b8152602082013561315b81613115565b602082015292915050565b6000806000806000806000610100888a03121561318257600080fd5b873596506020880135955060408801359450606088013593506131a88960808a01613124565b925060c0880135915060e0880135600681106131c357600080fd5b8091505092959891949750929550565b6000806000608084860312156131e857600080fd5b6131f28585613124565b95604085013595506060909401359392505050565b80356001600160a01b038116811461321e57600080fd5b919050565b600080600080600080600080610100898b03121561324057600080fd5b61324989613207565b975061325760208a01613207565b965061326560408a01613207565b955061327360608a01613207565b945061328160808a01613207565b935061328f60a08a01613207565b925061329d60c08a01613207565b91506132ab60e08a01613207565b90509295985092959890939650565b600080606083850312156132cd57600080fd5b823591506132de8460208501613124565b90509250929050565b6040810161082c8284805160ff908116835260209182015116910152565b6000806040838503121561331857600080fd5b82359150602083013561332a81613115565b809150509250929050565b6000806040838503121561334857600080fd5b823561335381613115565b9150602083013561332a81613115565b6000806040838503121561337657600080fd5b823591506132de60208401613207565b6000806040838503121561339957600080fd5b82356001600160401b038111156133af57600080fd5b6133bb85828601613064565b95602094909401359450505050565b60008060008060008060e087890312156133e357600080fd5b8635955060208701359450604087013593506134028860608901613124565b925060a0870135915060c087013590509295509295509295565b60006020828403121561342e57600080fd5b610a6682613207565b6001600160a01b038e168152602081018d9052610280810161345c604083018e612d5f565b8b5160ff90811661012084015260208d0151166101408301528a60000b61016083015260ff8a1661018083015260ff89166101a083015260ff88166101c08301526134ad6101e083018860ff169052565b941515610200820152921515610220840152901515610240830152610260909101529998505050505050505050565b600080608083850312156134ef57600080fd5b6134f98484613124565b91506132de8460408501613124565b602080825260129082015271139bdd0819d85b595cc818dbdb9d1c9858dd60721b604082015260600190565b634e487b7160e01b600052603260045260246000fd5b634e487b7160e01b600052601160045260246000fd5b6000600160ff1b82016135755761357561354a565b5060000390565b60006001820161358e5761358e61354a565b5060010190565b8181038181111561082c5761082c61354a565b60ff828116828216039081111561082c5761082c61354a565b808202811582820484141761082c5761082c61354a565b634e487b7160e01b600052601260045260246000fd5b6000826135fd576135fd6135d8565b500490565b8082018082111561082c5761082c61354a565b81810360008312801583831316838312821617156136355761363561354a565b5092915050565b805161321e81613115565b805161321e81612cff565b6000610140828403121561366557600080fd5b61366d612fcc565b825161367881613115565b815260208381015161368981613115565b82820152605f8401851361369c57600080fd5b604051608081018181106001600160401b03821117156136be576136be612f8e565b6040528060c08601878111156136d357600080fd5b604087015b818110156136ef57805183529184019184016136d8565b508260408601526136ff81613647565b60608601525050505061371460e08401613647565b60808201526137266101008401613647565b60a08201526137386101208401613647565b60c08201529392505050565b634e487b7160e01b600052602160045260246000fd5b600082601f83011261376b57600080fd5b8151602061377b61308583613041565b82815260069290921b8401810191818101908684111561379a57600080fd5b8286015b848110156130c457604081890312156137b75760008081fd5b6137bf612fa4565b8151601781106137cf5760008081fd5b8152818501518582015283529183019160400161379e565b6000602082840312156137f957600080fd5b81516001600160401b038082111561381057600080fd5b9083019060e0828603121561382457600080fd5b61382c612fcc565b8251815261383c60208401613647565b602082015261384d6040840161363c565b604082015261385e6060840161363c565b606082015260808301518281111561387557600080fd5b6138818782860161375a565b60808301525060a08301518281111561389957600080fd5b6138a58782860161375a565b60a08301525060c0830151828111156138bd57600080fd5b6138c98782860161375a565b60c08301525095945050505050565b600681106138e8576138e8613744565b9052565b82815260408101610a6660208301846138d8565b6040810161390e82856138d8565b8260208301529392505050565b6000602080838503121561392e57600080fd5b82516001600160401b038082111561394557600080fd5b818501915085601f83011261395957600080fd5b815161396761308582613041565b81815260059190911b8301840190848101908883111561398657600080fd5b8585015b838110156139be578051858111156139a25760008081fd5b6139b08b89838a010161375a565b84525091860191860161398a565b5098975050505050505050565b600081518084526020808501945080840160005b83811015612de95781518051601781106139fb576139fb613744565b885283015183880152604090960195908201906001016139df565b84815283602082015260806040820152825160808201526020830151151560a082015260ff60408401511660c082015260006060840151613a5c60e084018260ff169052565b50608084015160e0610100840152613a786101608401826139cb565b905060a0850151607f198085840301610120860152613a9783836139cb565b925060c08701519150808584030161014086015250613ab682826139cb565b91505082810360608401526109c581856139cb565b60ff818116838216019081111561082c5761082c61354a565b60005b83811015613aff578181015183820152602001613ae7565b50506000910152565b72024b73b30b634b2103234b932b1ba34b7b71d1606d1b815260008251613b36816013850160208701613ae4565b9190910160130192915050565b60008151808452613b5b816020860160208601613ae4565b601f01601f19169290920160200192915050565b602081526000610a666020830184613b43565b600181815b80851115613bbd578160001904821115613ba357613ba361354a565b80851615613bb057918102915b93841c9390800290613b87565b509250929050565b600082613bd45750600161082c565b81613be15750600061082c565b8160018114613bf75760028114613c0157613c1d565b600191505061082c565b60ff841115613c1257613c1261354a565b50506001821b61082c565b5060208310610133831016604e8410600b8410161715613c40575081810a61082c565b613c4a8383613b82565b8060001904821115613c5e57613c5e61354a565b029392505050565b6000610a668383613bc5565b600082613c8157613c816135d8565b500690565b600060ff821660ff8103613c9c57613c9c61354a565b60010192915050565b8051600081900b811461321e57600080fd5b600060e08284031215613cc957600080fd5b613cd1612fcc565b9050613cdc82613ca5565b8152613cea60208301613ca5565b6020820152613cfb60408301613ca5565b6040820152613d0c60608301613ca5565b6060820152613d1d60808301613ca5565b6080820152613d2e60a08301613ca5565b60a0820152613d3f60c08301613ca5565b60c082015292915050565b60006101e08284031215613d5d57600080fd5b613d65612fee565b825181526020830151602082015260408301516040820152613d8a8460608501613cb7565b6060820152613d9c610140840161363c565b6080820152613dae610160840161363c565b60a0820152613dc0610180840161363c565b60c0820152613dd26101a0840161363c565b60e0820152613de46101c08401613647565b6101008201529392505050565b600060e08284031215613e0357600080fd5b610a668383613cb7565b600081810b9083900b01607f8113607f198212171561082c5761082c61354a565b600082810b9082900b03607f198112607f8213171561082c5761082c61354a565b604081526000613e626040830185613b43565b90508260208301529392505050565b60006020808385031215613e8457600080fd5b82516001600160401b03811115613e9a57600080fd5b8301601f81018513613eab57600080fd5b8051613eb961308582613041565b81815260059190911b82018301908381019087831115613ed857600080fd5b928401925b828410156109c557835182529284019290840190613edd565b600081613f0557613f0561354a565b506000190190565b60008060408385031215613f2057600080fd5b505080516020909101519092909150565b83815260808101613f556020830185805160ff908116835260209182015116910152565b826060830152949350505050565b600060608284031215613f7557600080fd5b604051606081018181106001600160401b0382111715613f9757613f97612f8e565b6040528251613fa581613115565b81526020830151613fb581613115565b6020820152604083015160058110613fcc57600080fd5b60408201529392505050565b86815260ff8681166020830152851660408201526060810184905260c081016005841061400757614007613744565b608082019390935260a0015294935050505056fe854f143c4475e8754c8844dbfe9928cf11388710860ea82bb21c19da10f6c73da26469706673582212207d53df730922e974ecc091f85f70ebc6a0d81fb636e887b7fcb62bdb9a17b29d64736f6c63430008110033",
  "devdoc": {
    "kind": "dev",
    "methods": {
      "owner()": {
        "details": "Returns the address of the current owner."
      },
      "renounceOwnership()": {
        "details": "Leaves the contract without owner. It will not be possible to call `onlyOwner` functions anymore. Can only be called by the current owner. NOTE: Renouncing ownership will leave the contract without an owner, thereby removing any functionality that is only available to the owner."
      },
      "transferOwnership(address)": {
        "details": "Transfers ownership of the contract to a new account (`newOwner`). Can only be called by the current owner."
      }
    },
    "version": 1
  },
  "userdoc": {
    "kind": "user",
    "methods": {},
    "version": 1
  },
  "storageLayout": {
    "storage": [
      {
        "astId": 7,
        "contract": "contracts/BCPlayers.sol:BCPlayers",
        "label": "_owner",
        "offset": 0,
        "slot": "0",
        "type": "t_address"
      },
      {
        "astId": 16431,
        "contract": "contracts/BCPlayers.sol:BCPlayers",
        "label": "TODO_randomSeed",
        "offset": 0,
        "slot": "1",
        "type": "t_uint256"
      },
      {
        "astId": 14621,
        "contract": "contracts/BCPlayers.sol:BCPlayers",
        "label": "chars",
        "offset": 0,
        "slot": "2",
        "type": "t_contract(CharInterface)14459"
      },
      {
        "astId": 14624,
        "contract": "contracts/BCPlayers.sol:BCPlayers",
        "label": "maps",
        "offset": 0,
        "slot": "3",
        "type": "t_contract(MapInterface)14579"
      },
      {
        "astId": 14627,
        "contract": "contracts/BCPlayers.sol:BCPlayers",
        "label": "bcEvents",
        "offset": 0,
        "slot": "4",
        "type": "t_contract(EventsInterface)14437"
      },
      {
        "astId": 14630,
        "contract": "contracts/BCPlayers.sol:BCPlayers",
        "label": "items",
        "offset": 0,
        "slot": "5",
        "type": "t_contract(ItemsInterface)14603"
      },
      {
        "astId": 14633,
        "contract": "contracts/BCPlayers.sol:BCPlayers",
        "label": "games",
        "offset": 0,
        "slot": "6",
        "type": "t_contract(GamesInterface)14614"
      },
      {
        "astId": 14635,
        "contract": "contracts/BCPlayers.sol:BCPlayers",
        "label": "lobbiesAddress",
        "offset": 0,
        "slot": "7",
        "type": "t_address"
      },
      {
        "astId": 14637,
        "contract": "contracts/BCPlayers.sol:BCPlayers",
        "label": "charsAddress",
        "offset": 0,
        "slot": "8",
        "type": "t_address"
      },
      {
        "astId": 14639,
        "contract": "contracts/BCPlayers.sol:BCPlayers",
        "label": "actionsAddress",
        "offset": 0,
        "slot": "9",
        "type": "t_address"
      },
      {
        "astId": 14713,
        "contract": "contracts/BCPlayers.sol:BCPlayers",
        "label": "StartLocation",
        "offset": 0,
        "slot": "10",
        "type": "t_struct(Position)16220_storage"
      },
      {
        "astId": 14717,
        "contract": "contracts/BCPlayers.sol:BCPlayers",
        "label": "players",
        "offset": 0,
        "slot": "11",
        "type": "t_array(t_struct(Player)16206_storage)dyn_storage"
      }
    ],
    "types": {
      "t_address": {
        "encoding": "inplace",
        "label": "address",
        "numberOfBytes": "20"
      },
      "t_array(t_struct(Player)16206_storage)dyn_storage": {
        "base": "t_struct(Player)16206_storage",
        "encoding": "dynamic_array",
        "label": "struct BCTypes.Player[]",
        "numberOfBytes": "32"
      },
      "t_array(t_uint8)dyn_storage": {
        "base": "t_uint8",
        "encoding": "dynamic_array",
        "label": "uint8[]",
        "numberOfBytes": "32"
      },
      "t_bool": {
        "encoding": "inplace",
        "label": "bool",
        "numberOfBytes": "1"
      },
      "t_contract(CharInterface)14459": {
        "encoding": "inplace",
        "label": "contract CharInterface",
        "numberOfBytes": "20"
      },
      "t_contract(EventsInterface)14437": {
        "encoding": "inplace",
        "label": "contract EventsInterface",
        "numberOfBytes": "20"
      },
      "t_contract(GamesInterface)14614": {
        "encoding": "inplace",
        "label": "contract GamesInterface",
        "numberOfBytes": "20"
      },
      "t_contract(ItemsInterface)14603": {
        "encoding": "inplace",
        "label": "contract ItemsInterface",
        "numberOfBytes": "20"
      },
      "t_contract(MapInterface)14579": {
        "encoding": "inplace",
        "label": "contract MapInterface",
        "numberOfBytes": "20"
      },
      "t_int8": {
        "encoding": "inplace",
        "label": "int8",
        "numberOfBytes": "1"
      },
      "t_struct(Player)16206_storage": {
        "encoding": "inplace",
        "label": "struct BCTypes.Player",
        "members": [
          {
            "astId": 16176,
            "contract": "contracts/BCPlayers.sol:BCPlayers",
            "label": "owner",
            "offset": 0,
            "slot": "0",
            "type": "t_address"
          },
          {
            "astId": 16178,
            "contract": "contracts/BCPlayers.sol:BCPlayers",
            "label": "characterId",
            "offset": 0,
            "slot": "1",
            "type": "t_uint256"
          },
          {
            "astId": 16181,
            "contract": "contracts/BCPlayers.sol:BCPlayers",
            "label": "currentTraits",
            "offset": 0,
            "slot": "2",
            "type": "t_struct(Traits)16350_storage"
          },
          {
            "astId": 16184,
            "contract": "contracts/BCPlayers.sol:BCPlayers",
            "label": "position",
            "offset": 0,
            "slot": "3",
            "type": "t_struct(Position)16220_storage"
          },
          {
            "astId": 16186,
            "contract": "contracts/BCPlayers.sol:BCPlayers",
            "label": "healthDmgTaken",
            "offset": 0,
            "slot": "4",
            "type": "t_int8"
          },
          {
            "astId": 16188,
            "contract": "contracts/BCPlayers.sol:BCPlayers",
            "label": "armorDmgTaken",
            "offset": 1,
            "slot": "4",
            "type": "t_uint8"
          },
          {
            "astId": 16190,
            "contract": "contracts/BCPlayers.sol:BCPlayers",
            "label": "actionsTaken",
            "offset": 2,
            "slot": "4",
            "type": "t_uint8"
          },
          {
            "astId": 16192,
            "contract": "contracts/BCPlayers.sol:BCPlayers",
            "label": "dataTokens",
            "offset": 3,
            "slot": "4",
            "type": "t_uint8"
          },
          {
            "astId": 16195,
            "contract": "contracts/BCPlayers.sol:BCPlayers",
            "label": "currentEffects",
            "offset": 0,
            "slot": "5",
            "type": "t_array(t_uint8)dyn_storage"
          },
          {
            "astId": 16197,
            "contract": "contracts/BCPlayers.sol:BCPlayers",
            "label": "numItemsHeld",
            "offset": 0,
            "slot": "6",
            "type": "t_uint8"
          },
          {
            "astId": 16199,
            "contract": "contracts/BCPlayers.sol:BCPlayers",
            "label": "canHarmOthers",
            "offset": 1,
            "slot": "6",
            "type": "t_bool"
          },
          {
            "astId": 16201,
            "contract": "contracts/BCPlayers.sol:BCPlayers",
            "label": "dead",
            "offset": 2,
            "slot": "6",
            "type": "t_bool"
          },
          {
            "astId": 16203,
            "contract": "contracts/BCPlayers.sol:BCPlayers",
            "label": "hasEgg",
            "offset": 3,
            "slot": "6",
            "type": "t_bool"
          },
          {
            "astId": 16205,
            "contract": "contracts/BCPlayers.sol:BCPlayers",
            "label": "gameId",
            "offset": 0,
            "slot": "7",
            "type": "t_uint256"
          }
        ],
        "numberOfBytes": "256"
      },
      "t_struct(Position)16220_storage": {
        "encoding": "inplace",
        "label": "struct BCTypes.Position",
        "members": [
          {
            "astId": 16217,
            "contract": "contracts/BCPlayers.sol:BCPlayers",
            "label": "row",
            "offset": 0,
            "slot": "0",
            "type": "t_uint8"
          },
          {
            "astId": 16219,
            "contract": "contracts/BCPlayers.sol:BCPlayers",
            "label": "col",
            "offset": 1,
            "slot": "0",
            "type": "t_uint8"
          }
        ],
        "numberOfBytes": "32"
      },
      "t_struct(Traits)16350_storage": {
        "encoding": "inplace",
        "label": "struct BCTypes.Traits",
        "members": [
          {
            "astId": 16337,
            "contract": "contracts/BCPlayers.sol:BCPlayers",
            "label": "health",
            "offset": 0,
            "slot": "0",
            "type": "t_int8"
          },
          {
            "astId": 16339,
            "contract": "contracts/BCPlayers.sol:BCPlayers",
            "label": "carry",
            "offset": 1,
            "slot": "0",
            "type": "t_int8"
          },
          {
            "astId": 16341,
            "contract": "contracts/BCPlayers.sol:BCPlayers",
            "label": "defense",
            "offset": 2,
            "slot": "0",
            "type": "t_int8"
          },
          {
            "astId": 16343,
            "contract": "contracts/BCPlayers.sol:BCPlayers",
            "label": "hack",
            "offset": 3,
            "slot": "0",
            "type": "t_int8"
          },
          {
            "astId": 16345,
            "contract": "contracts/BCPlayers.sol:BCPlayers",
            "label": "breach",
            "offset": 4,
            "slot": "0",
            "type": "t_int8"
          },
          {
            "astId": 16347,
            "contract": "contracts/BCPlayers.sol:BCPlayers",
            "label": "shoot",
            "offset": 5,
            "slot": "0",
            "type": "t_int8"
          },
          {
            "astId": 16349,
            "contract": "contracts/BCPlayers.sol:BCPlayers",
            "label": "melee",
            "offset": 6,
            "slot": "0",
            "type": "t_int8"
          }
        ],
        "numberOfBytes": "32"
      },
      "t_uint256": {
        "encoding": "inplace",
        "label": "uint256",
        "numberOfBytes": "32"
      },
      "t_uint8": {
        "encoding": "inplace",
        "label": "uint8",
        "numberOfBytes": "1"
      }
    }
  }
}