{
  "address": "0x675c23DA1ff924410E27C7F428ac1a35f5868b1f",
  "abi": [
    {
      "inputs": [],
      "stateMutability": "nonpayable",
      "type": "constructor"
    },
    {
      "anonymous": false,
      "inputs": [
        {
          "indexed": false,
          "internalType": "uint256",
          "name": "gameId",
          "type": "uint256"
        },
        {
          "indexed": false,
          "internalType": "uint256",
          "name": "playerId",
          "type": "uint256"
        },
        {
          "components": [
            {
              "internalType": "uint256",
              "name": "id",
              "type": "uint256"
            },
            {
              "internalType": "bool",
              "name": "permanent",
              "type": "bool"
            },
            {
              "internalType": "uint8",
              "name": "rollForLow",
              "type": "uint8"
            },
            {
              "internalType": "uint8",
              "name": "rollForHigh",
              "type": "uint8"
            },
            {
              "components": [
                {
                  "internalType": "enum BCEvents.EffectTypes",
                  "name": "effect",
                  "type": "uint8"
                },
                {
                  "internalType": "uint256",
                  "name": "value",
                  "type": "uint256"
                }
              ],
              "internalType": "struct BCEvents.Effect[]",
              "name": "defaultEffect",
              "type": "tuple[]"
            },
            {
              "components": [
                {
                  "internalType": "enum BCEvents.EffectTypes",
                  "name": "effect",
                  "type": "uint8"
                },
                {
                  "internalType": "uint256",
                  "name": "value",
                  "type": "uint256"
                }
              ],
              "internalType": "struct BCEvents.Effect[]",
              "name": "lowEffect",
              "type": "tuple[]"
            },
            {
              "components": [
                {
                  "internalType": "enum BCEvents.EffectTypes",
                  "name": "effect",
                  "type": "uint8"
                },
                {
                  "internalType": "uint256",
                  "name": "value",
                  "type": "uint256"
                }
              ],
              "internalType": "struct BCEvents.Effect[]",
              "name": "highEffect",
              "type": "tuple[]"
            }
          ],
          "indexed": false,
          "internalType": "struct BCEvents.BCEvent",
          "name": "bcEvent",
          "type": "tuple"
        },
        {
          "components": [
            {
              "internalType": "enum BCEvents.EffectTypes",
              "name": "effect",
              "type": "uint8"
            },
            {
              "internalType": "uint256",
              "name": "value",
              "type": "uint256"
            }
          ],
          "indexed": false,
          "internalType": "struct BCEvents.Effect[]",
          "name": "appliedBCEffects",
          "type": "tuple[]"
        }
      ],
      "name": "EventResolvedEvent",
      "type": "event"
    },
    {
      "anonymous": false,
      "inputs": [
        {
          "indexed": true,
          "internalType": "address",
          "name": "previousOwner",
          "type": "address"
        },
        {
          "indexed": true,
          "internalType": "address",
          "name": "newOwner",
          "type": "address"
        }
      ],
      "name": "OwnershipTransferred",
      "type": "event"
    },
    {
      "inputs": [],
      "name": "StartLocation",
      "outputs": [
        {
          "internalType": "uint8",
          "name": "row",
          "type": "uint8"
        },
        {
          "internalType": "uint8",
          "name": "col",
          "type": "uint8"
        }
      ],
      "stateMutability": "view",
      "type": "function"
    },
    {
      "inputs": [],
      "name": "actionsAddress",
      "outputs": [
        {
          "internalType": "address",
          "name": "",
          "type": "address"
        }
      ],
      "stateMutability": "view",
      "type": "function"
    },
    {
      "inputs": [
        {
          "internalType": "address",
          "name": "_charContractAddress",
          "type": "address"
        },
        {
          "internalType": "uint256",
          "name": "_charId",
          "type": "uint256"
        },
        {
          "internalType": "address",
          "name": "_owner",
          "type": "address"
        }
      ],
      "name": "addPlayer",
      "outputs": [
        {
          "internalType": "uint256",
          "name": "",
          "type": "uint256"
        }
      ],
      "stateMutability": "nonpayable",
      "type": "function"
    },
    {
      "inputs": [
        {
          "internalType": "uint256",
          "name": "_mapId",
          "type": "uint256"
        },
        {
          "internalType": "uint256[]",
          "name": "_players",
          "type": "uint256[]"
        }
      ],
      "name": "applyHazardDamage",
      "outputs": [],
      "stateMutability": "nonpayable",
      "type": "function"
    },
    {
      "inputs": [],
      "name": "bcEvents",
      "outputs": [
        {
          "internalType": "contract EventsInterface",
          "name": "",
          "type": "address"
        }
      ],
      "stateMutability": "view",
      "type": "function"
    },
    {
      "inputs": [],
      "name": "chars",
      "outputs": [
        {
          "internalType": "contract CharInterface",
          "name": "",
          "type": "address"
        }
      ],
      "stateMutability": "view",
      "type": "function"
    },
    {
      "inputs": [],
      "name": "charsAddress",
      "outputs": [
        {
          "internalType": "address",
          "name": "",
          "type": "address"
        }
      ],
      "stateMutability": "view",
      "type": "function"
    },
    {
      "inputs": [
        {
          "internalType": "uint256",
          "name": "_playerId",
          "type": "uint256"
        },
        {
          "internalType": "uint256",
          "name": "_num",
          "type": "uint256"
        }
      ],
      "name": "decrementNumItemsHeld",
      "outputs": [],
      "stateMutability": "nonpayable",
      "type": "function"
    },
    {
      "inputs": [
        {
          "internalType": "uint256",
          "name": "_playerId",
          "type": "uint256"
        },
        {
          "internalType": "uint256",
          "name": "_gameId",
          "type": "uint256"
        },
        {
          "internalType": "uint256",
          "name": "_mapId",
          "type": "uint256"
        },
        {
          "components": [
            {
              "internalType": "uint8",
              "name": "row",
              "type": "uint8"
            },
            {
              "internalType": "uint8",
              "name": "col",
              "type": "uint8"
            }
          ],
          "internalType": "struct BCTypes.Position",
          "name": "_position",
          "type": "tuple"
        },
        {
          "internalType": "uint256",
          "name": "_eventId",
          "type": "uint256"
        },
        {
          "internalType": "uint256",
          "name": "_effectNum",
          "type": "uint256"
        }
      ],
      "name": "extApplyEffect",
      "outputs": [],
      "stateMutability": "nonpayable",
      "type": "function"
    },
    {
      "inputs": [
        {
          "internalType": "uint256",
          "name": "_choice",
          "type": "uint256"
        },
        {
          "internalType": "uint256",
          "name": "_eventPlayerId",
          "type": "uint256"
        },
        {
          "internalType": "uint256",
          "name": "_gameId",
          "type": "uint256"
        },
        {
          "internalType": "uint256",
          "name": "_mapId",
          "type": "uint256"
        },
        {
          "components": [
            {
              "internalType": "uint8",
              "name": "row",
              "type": "uint8"
            },
            {
              "internalType": "uint8",
              "name": "col",
              "type": "uint8"
            }
          ],
          "internalType": "struct BCTypes.Position",
          "name": "_position",
          "type": "tuple"
        },
        {
          "internalType": "uint256",
          "name": "_eventNumber",
          "type": "uint256"
        },
        {
          "internalType": "enum BCTypes.BCEventType",
          "name": "_eventType",
          "type": "uint8"
        }
      ],
      "name": "extChooseEffect",
      "outputs": [],
      "stateMutability": "nonpayable",
      "type": "function"
    },
    {
      "inputs": [
        {
          "internalType": "uint256",
          "name": "_id",
          "type": "uint256"
        }
      ],
      "name": "extGetPlayer",
      "outputs": [
        {
          "components": [
            {
              "internalType": "address",
              "name": "owner",
              "type": "address"
            },
            {
              "internalType": "address",
              "name": "charContractAddress",
              "type": "address"
            },
            {
              "internalType": "uint256",
              "name": "characterId",
              "type": "uint256"
            },
            {
              "components": [
                {
                  "internalType": "uint8",
                  "name": "row",
                  "type": "uint8"
                },
                {
                  "internalType": "uint8",
                  "name": "col",
                  "type": "uint8"
                }
              ],
              "internalType": "struct BCTypes.Position",
              "name": "position",
              "type": "tuple"
            },
            {
              "internalType": "int8",
              "name": "healthDmgTaken",
              "type": "int8"
            },
            {
              "internalType": "uint8",
              "name": "armorDmgTaken",
              "type": "uint8"
            },
            {
              "internalType": "uint8",
              "name": "actionsTaken",
              "type": "uint8"
            },
            {
              "internalType": "uint8",
              "name": "dataTokens",
              "type": "uint8"
            },
            {
              "internalType": "uint8[]",
              "name": "currentEffects",
              "type": "uint8[]"
            },
            {
              "internalType": "uint8",
              "name": "numItemsHeld",
              "type": "uint8"
            },
            {
              "internalType": "bool",
              "name": "canHarmOthers",
              "type": "bool"
            },
            {
              "internalType": "bool",
              "name": "dead",
              "type": "bool"
            },
            {
              "internalType": "bool",
              "name": "hasEgg",
              "type": "bool"
            },
            {
              "internalType": "uint256",
              "name": "gameId",
              "type": "uint256"
            }
          ],
          "internalType": "struct BCTypes.Player",
          "name": "",
          "type": "tuple"
        }
      ],
      "stateMutability": "view",
      "type": "function"
    },
    {
      "inputs": [
        {
          "internalType": "uint256",
          "name": "_id",
          "type": "uint256"
        }
      ],
      "name": "extGetPlayerOwner",
      "outputs": [
        {
          "internalType": "address",
          "name": "",
          "type": "address"
        }
      ],
      "stateMutability": "view",
      "type": "function"
    },
    {
      "inputs": [
        {
          "internalType": "uint256",
          "name": "_playerId",
          "type": "uint256"
        },
        {
          "internalType": "uint256",
          "name": "_amount",
          "type": "uint256"
        },
        {
          "internalType": "bool",
          "name": "_hazard",
          "type": "bool"
        }
      ],
      "name": "extHurtPlayer",
      "outputs": [],
      "stateMutability": "nonpayable",
      "type": "function"
    },
    {
      "inputs": [
        {
          "components": [
            {
              "internalType": "uint8",
              "name": "row",
              "type": "uint8"
            },
            {
              "internalType": "uint8",
              "name": "col",
              "type": "uint8"
            }
          ],
          "internalType": "struct BCTypes.Position",
          "name": "_position",
          "type": "tuple"
        },
        {
          "internalType": "uint256",
          "name": "_playerId",
          "type": "uint256"
        },
        {
          "internalType": "uint256",
          "name": "_mapId",
          "type": "uint256"
        }
      ],
      "name": "extMovePlayer",
      "outputs": [
        {
          "internalType": "bool",
          "name": "",
          "type": "bool"
        }
      ],
      "stateMutability": "nonpayable",
      "type": "function"
    },
    {
      "inputs": [],
      "name": "games",
      "outputs": [
        {
          "internalType": "contract GamesInterface",
          "name": "",
          "type": "address"
        }
      ],
      "stateMutability": "view",
      "type": "function"
    },
    {
      "inputs": [
        {
          "internalType": "uint256",
          "name": "_playerId",
          "type": "uint256"
        },
        {
          "internalType": "uint8",
          "name": "_amount",
          "type": "uint8"
        }
      ],
      "name": "grantDataToPlayer",
      "outputs": [],
      "stateMutability": "nonpayable",
      "type": "function"
    },
    {
      "inputs": [
        {
          "internalType": "uint256",
          "name": "_playerId",
          "type": "uint256"
        },
        {
          "internalType": "uint256",
          "name": "_num",
          "type": "uint256"
        }
      ],
      "name": "incrementNumItemsHeld",
      "outputs": [],
      "stateMutability": "nonpayable",
      "type": "function"
    },
    {
      "inputs": [
        {
          "internalType": "uint256",
          "name": "_playerId",
          "type": "uint256"
        }
      ],
      "name": "incrementPlayerActions",
      "outputs": [],
      "stateMutability": "nonpayable",
      "type": "function"
    },
    {
      "inputs": [],
      "name": "items",
      "outputs": [
        {
          "internalType": "contract ItemsInterface",
          "name": "",
          "type": "address"
        }
      ],
      "stateMutability": "view",
      "type": "function"
    },
    {
      "inputs": [],
      "name": "lobbiesAddress",
      "outputs": [
        {
          "internalType": "address",
          "name": "",
          "type": "address"
        }
      ],
      "stateMutability": "view",
      "type": "function"
    },
    {
      "inputs": [],
      "name": "maps",
      "outputs": [
        {
          "internalType": "contract MapInterface",
          "name": "",
          "type": "address"
        }
      ],
      "stateMutability": "view",
      "type": "function"
    },
    {
      "inputs": [],
      "name": "owner",
      "outputs": [
        {
          "internalType": "address",
          "name": "",
          "type": "address"
        }
      ],
      "stateMutability": "view",
      "type": "function"
    },
    {
      "inputs": [
        {
          "internalType": "uint256",
          "name": "",
          "type": "uint256"
        }
      ],
      "name": "players",
      "outputs": [
        {
          "internalType": "address",
          "name": "owner",
          "type": "address"
        },
        {
          "internalType": "address",
          "name": "charContractAddress",
          "type": "address"
        },
        {
          "internalType": "uint256",
          "name": "characterId",
          "type": "uint256"
        },
        {
          "components": [
            {
              "internalType": "uint8",
              "name": "row",
              "type": "uint8"
            },
            {
              "internalType": "uint8",
              "name": "col",
              "type": "uint8"
            }
          ],
          "internalType": "struct BCTypes.Position",
          "name": "position",
          "type": "tuple"
        },
        {
          "internalType": "int8",
          "name": "healthDmgTaken",
          "type": "int8"
        },
        {
          "internalType": "uint8",
          "name": "armorDmgTaken",
          "type": "uint8"
        },
        {
          "internalType": "uint8",
          "name": "actionsTaken",
          "type": "uint8"
        },
        {
          "internalType": "uint8",
          "name": "dataTokens",
          "type": "uint8"
        },
        {
          "internalType": "uint8",
          "name": "numItemsHeld",
          "type": "uint8"
        },
        {
          "internalType": "bool",
          "name": "canHarmOthers",
          "type": "bool"
        },
        {
          "internalType": "bool",
          "name": "dead",
          "type": "bool"
        },
        {
          "internalType": "bool",
          "name": "hasEgg",
          "type": "bool"
        },
        {
          "internalType": "uint256",
          "name": "gameId",
          "type": "uint256"
        }
      ],
      "stateMutability": "view",
      "type": "function"
    },
    {
      "inputs": [],
      "name": "renounceOwnership",
      "outputs": [],
      "stateMutability": "nonpayable",
      "type": "function"
    },
    {
      "inputs": [
        {
          "internalType": "uint256",
          "name": "_playerId",
          "type": "uint256"
        }
      ],
      "name": "resetPlayerActions",
      "outputs": [],
      "stateMutability": "nonpayable",
      "type": "function"
    },
    {
      "inputs": [
        {
          "internalType": "address",
          "name": "_charAddress",
          "type": "address"
        },
        {
          "internalType": "address",
          "name": "_utilsAddress",
          "type": "address"
        },
        {
          "internalType": "address",
          "name": "_mapsAddress",
          "type": "address"
        },
        {
          "internalType": "address",
          "name": "_lobbiesAddress",
          "type": "address"
        },
        {
          "internalType": "address",
          "name": "_actionsAddress",
          "type": "address"
        },
        {
          "internalType": "address",
          "name": "_eventsAddress",
          "type": "address"
        },
        {
          "internalType": "address",
          "name": "_itemsAddress",
          "type": "address"
        },
        {
          "internalType": "address",
          "name": "_gamesAddress",
          "type": "address"
        }
      ],
      "name": "setContractAddresses",
      "outputs": [],
      "stateMutability": "nonpayable",
      "type": "function"
    },
    {
      "inputs": [
        {
          "internalType": "address",
          "name": "newOwner",
          "type": "address"
        }
      ],
      "name": "transferOwnership",
      "outputs": [],
      "stateMutability": "nonpayable",
      "type": "function"
    },
    {
      "inputs": [],
      "name": "utils",
      "outputs": [
        {
          "internalType": "contract UtilsInterface",
          "name": "",
          "type": "address"
        }
      ],
      "stateMutability": "view",
      "type": "function"
    }
  ],
  "transactionHash": "0x396a3ed157768b756e8b6a368495151432ba4bf6498bd764cd8b23183d2a6945",
  "args": [],
  "numDeployments": 1,
  "solcInputHash": "e4fa0a5ba7575f2f162947b2f1a14db2",
  "bytecode": "0x60c0604052600a6080819052600660a052805461ffff191661060a17905534801561002957600080fd5b5061003333610038565b610088565b600080546001600160a01b038381166001600160a01b0319831681178455604051919092169283917f8be0079c531659141344cd1fd0a4f28419497f9722a3daafe3b4186f6b6457e09190a35050565b6130f280620000986000396000f3fe608060405234801561001057600080fd5b50600436106101c45760003560e01c80637ddae103116100f9578063c06fad0611610097578063ed86196111610071578063ed861961146103eb578063f2fde38b146103fe578063f71d96cb14610411578063fe23e2df1461043d57600080fd5b8063c06fad0614610395578063ce932297146103a8578063dc769ee8146103bb57600080fd5b8063921d2799116100d3578063921d279914610349578063955a015b1461035c5780639fca1ee11461036f578063b69071941461038257600080fd5b80637ddae103146103025780638d491b3e146103155780638da5cb5b1461033857600080fd5b80635a29638d11610166578063668a7f3b11610140578063668a7f3b146102c15780636d291bbb146102d4578063715018a6146102e75780637b45c0d4146102ef57600080fd5b80635a29638d1461028857806365c363f01461029b5780636621a421146102ae57600080fd5b806310f67fb3116101a257806310f67fb31461022f578063336d7d7b1461024f578063351dacdf146102625780633deaec2b1461027557600080fd5b806308178b3c146101c95780630dd0f588146101ef57806310a2cd0d14610204575b600080fd5b6101dc6101d7366004612132565b610450565b6040519081526020015b60405180910390f35b6102026101fd36600461217c565b61056e565b005b600154610217906001600160a01b031681565b6040516001600160a01b0390911681526020016101e6565b61024261023d3660046121b5565b6105a8565b6040516101e6919061220c565b600754610217906001600160a01b031681565b610202610270366004612343565b61079b565b600354610217906001600160a01b031681565b600254610217906001600160a01b031681565b6102026102a93660046121b5565b6107f0565b6102176102bc3660046121b5565b610848565b6102026102cf366004612440565b61087d565b6102026102e2366004612533565b6109d2565b610202610e21565b600954610217906001600160a01b031681565b600454610217906001600160a01b031681565b6103286103233660046125a0565b610e35565b60405190151581526020016101e6565b6000546001600160a01b0316610217565b6102026103573660046125d4565b610f61565b600654610217906001600160a01b031681565b600854610217906001600160a01b031681565b61020261039036600461266b565b610ff7565b600554610217906001600160a01b031681565b6102026103b63660046121b5565b611088565b600a546103d19060ff8082169161010090041682565b6040805160ff9384168152929091166020830152016101e6565b6102026103f936600461269b565b6110f8565b61020261040c3660046126ed565b6111f4565b61042461041f3660046121b5565b61126d565b6040516101e69d9c9b9a99989796959493929190612708565b61020261044b366004612343565b611320565b6007546000906001600160a01b031633146104a75760405162461bcd60e51b8152602060048201526012602482015271139bdd081b1bd8989e4818dbdb9d1c9858dd60721b60448201526064015b60405180910390fd5b600b80546001818101835560008390527f0175b7a638427703f0dbe7bb9bbf987a2551717b34e79f33b5b1008d1fa01dba600890920291820180546001600160a01b03808a166001600160a01b0319928316179092557f0175b7a638427703f0dbe7bb9bbf987a2551717b34e79f33b5b1008d1fa01db984018054928816929091169190911781557f0175b7a638427703f0dbe7bb9bbf987a2551717b34e79f33b5b1008d1fa01dbb90920186905591549091610563916127bf565b9150505b9392505050565b6006546001600160a01b031633146105985760405162461bcd60e51b815260040161049e906127d8565b6105a3838383611359565b505050565b61062b604080516101c08101825260008082526020808301829052828401829052835180850190945281845283015290606082019081526000602082018190526040820181905260608083018290526080830182905260a083015260c0820181905260e08201819052610100820181905261012082018190526101409091015290565b600b828154811061063e5761063e612804565b60009182526020808320604080516101c081018252600890940290910180546001600160a01b0390811685526001820154168484015260028101548483015281518083018352600382015460ff808216835261010091829004811683870152606087019290925260048301549687900b6080870152808704821660a0870152620100008704821660c087015263010000009096041660e0850152600581018054835181860281018601909452808452949591949186019390919083018282801561074557602002820191906000526020600020906000905b825461010083900a900460ff168152602060019283018181049485019490930390920291018084116107165790505b5050509183525050600682015460ff808216602084015261010082048116151560408401526201000082048116151560608401526301000000909104161515608082015260079091015460a09091015292915050565b80600b83815481106107af576107af612804565b60009182526020822060066008909202010180549091906107d490849060ff1661281a565b92506101000a81548160ff021916908360ff1602179055505050565b6006546001600160a01b0316331461080757600080fd5b6000600b828154811061081c5761081c612804565b906000526020600020906008020160040160026101000a81548160ff021916908360ff16021790555050565b6000600b828154811061085d5761085d612804565b60009182526020909120600890910201546001600160a01b031692915050565b6006546001600160a01b031633146108a75760405162461bcd60e51b815260040161049e906127d8565b60005b600182516108b891906127bf565b81116105a3576000600b8383815181106108d4576108d4612804565b6020026020010151815481106108ec576108ec612804565b600091825260208220600380546008939093029091019081015460405163f9dfbfcb60e01b81526004810189905260ff808316602483015261010090920490911660448201529093506001600160a01b039091169063f9dfbfcb9060640161014060405180830381865afa158015610968573d6000803e3d6000fd5b505050506040513d601f19601f8201168201806040525081019061098c9190612849565b90508060c00151156109bd576109bd8484815181106109ad576109ad612804565b6020026020010151600180611359565b505080806109ca9061293c565b9150506108aa565b6006546001600160a01b031633146109fc5760405162461bcd60e51b815260040161049e906127d8565b610a446040518060e0016040528060008152602001600015158152602001600060ff168152602001600060ff1681526020016060815260200160608152602001606081525090565b6005826005811115610a5857610a58612955565b03610ad3576004805460405163c82c37b960e01b81529182018590526001600160a01b03169063c82c37b990602401600060405180830381865afa158015610aa4573d6000803e3d6000fd5b505050506040513d6000823e601f3d908101601f19168201604052610acc9190810190612a03565b9050610b4c565b6004805460405163e4dc1a8360e01b81526001600160a01b039091169163e4dc1a8391610b04918791879101612b09565b600060405180830381865afa158015610b21573d6000803e3d6000fd5b505050506040513d6000823e601f3d908101601f19168201604052610b499190810190612a03565b90505b600480546040516336772a9360e21b81526000926001600160a01b039092169163d9dcaa4c91610b80918791899101612b1d565b600060405180830381865afa158015610b9d573d6000803e3d6000fd5b505050506040513d6000823e601f3d908101601f19168201604052610bc59190810190612b38565b9050816040015160ff166000148015610be35750606082015160ff16155b15610c5957610c0f8888888885600081518110610c0257610c02612804565b6020026020010151611454565b60008051602061309d83398151915287898484600081518110610c3457610c34612804565b6020026020010151604051610c4c9493929190612c34565b60405180910390a1610e16565b6002546040516301f7b4f360e41b8152600481018990526000916001600160a01b031690631f7b4f30906024016020604051808303816000875af1158015610ca5573d6000803e3d6000fd5b505050506040513d601f19601f82011682018060405250810190610cc99190612cf4565b9050826040015160ff16600014158015610cea5750826040015160ff168111155b15610d5357610d098989898986600181518110610c0257610c02612804565b60008051602061309d833981519152888a8585600181518110610d2e57610d2e612804565b6020026020010151604051610d469493929190612c34565b60405180910390a1610e14565b606083015160ff1615801590610d705750826060015160ff168110155b15610db457610d8f8989898986600281518110610c0257610c02612804565b60008051602061309d833981519152888a8585600281518110610d2e57610d2e612804565b610dce8989898986600081518110610c0257610c02612804565b60008051602061309d833981519152888a8585600081518110610df357610df3612804565b6020026020010151604051610e0b9493929190612c34565b60405180910390a15b505b505050505050505050565b610e29611f52565b610e336000611fac565b565b6006546000906001600160a01b03163314610e625760405162461bcd60e51b815260040161049e906127d8565b83600b8481548110610e7657610e76612804565b60009182526020808320845160036008909402909101830180549583015160ff9081166101000261ffff19909716921691909117949094179093555486519287015160405163f9dfbfcb60e01b815292936001600160a01b039092169263f9dfbfcb92610efb92889260040192835260ff918216602084015216604082015260600190565b61014060405180830381865afa158015610f19573d6000803e3d6000fd5b505050506040513d601f19601f82011682018060405250810190610f3d9190612849565b5160ff1603610f5757610f4f83611ffc565b506001610567565b5060009392505050565b610f69611f52565b600180546001600160a01b03199081166001600160a01b039a8b1617909155600280548216988a1698909817909755600380548816968916969096179095556007805487169488169490941790935560098054861692871692909217909155600480548516918616919091179055600580548416918516919091179055600680549092169216919091179055565b6009546001600160a01b031633146110485760405162461bcd60e51b8152602060048201526014602482015273139bdd081858dd1a5bdb9cc818dbdb9d1c9858dd60621b604482015260640161049e565b80600b838154811061105c5761105c612804565b906000526020600020906008020160040160038282829054906101000a900460ff166107d49190612d0d565b6006546001600160a01b0316331461109f57600080fd5b600b81815481106110b2576110b2612804565b60009182526020909120600890910201600401805462010000900460ff169060026110dc83612d26565b91906101000a81548160ff021916908360ff1602179055505050565b6009546001600160a01b031633146111495760405162461bcd60e51b8152602060048201526014602482015273139bdd081858dd1a5bdb9cc818dbdb9d1c9858dd60621b604482015260640161049e565b600480546040516336772a9360e21b81526000926001600160a01b039092169163d9dcaa4c9161117e91600591889101612b1d565b600060405180830381865afa15801561119b573d6000803e3d6000fd5b505050506040513d6000823e601f3d908101601f191682016040526111c39190810190612b38565b82815181106111d4576111d4612804565b602002602001015190506111eb8787878785611454565b50505050505050565b6111fc611f52565b6001600160a01b0381166112615760405162461bcd60e51b815260206004820152602660248201527f4f776e61626c653a206e6577206f776e657220697320746865207a65726f206160448201526564647265737360d01b606482015260840161049e565b61126a81611fac565b50565b600b818154811061127d57600080fd5b60009182526020808320600890920290910180546001820154600283015460408051808201909152600385015460ff808216835261010091829004811697830197909752600486015460068701546007909701546001600160a01b039687169a509490951697929691959285900b94818104831694620100008083048516956301000000938490048616958181169582048116949282048116939290910416908d565b80600b838154811061133457611334612804565b60009182526020822060066008909202010180549091906107d490849060ff16612d0d565b6000600b848154811061136e5761136e612804565b600091825260208220600154600892909202016002810154604051634810bc5960e01b815260048101919091529093506001600160a01b0390911690634810bc59906024016101e060405180830381865afa1580156113d1573d6000803e3d6000fd5b505050506040513d601f19601f820116820180604052508101906113f59190612dea565b6004830180549192508591600090611410908490830b612e91565b825460ff9182166101009390930a9283029190920219909116179055506060810151516004830154600091820b910b1261144d5761144d85611ffc565b5050505050565b60005b8151811015611f4a576000600b878154811061147557611475612804565b600091825260209091206008909102019050600183838151811061149b5761149b612804565b60200260200101516000015160168111156114b8576114b8612955565b505060028383815181106114ce576114ce612804565b60200260200101516000015160168111156114eb576114eb612955565b036115315782828151811061150257611502612804565b602002602001015160200151600061151a9190612eb2565b60048201805460ff191660ff929092169190911790555b600383838151811061154557611545612804565b602002602001015160000151601681111561156257611562612955565b036115705761157087611ffc565b600483838151811061158457611584612804565b60200260200101516000015160168111156115a1576115a1612955565b036116245760035484516020860151604051637f1b46bd60e11b81526004810189905260ff928316602482015291166044820152600160648201526001600160a01b039091169063fe368d7a90608401600060405180830381600087803b15801561160b57600080fd5b505af115801561161f573d6000803e3d6000fd5b505050505b600583838151811061163857611638612804565b602002602001015160000151601681111561165557611655612955565b5050600683838151811061166b5761166b612804565b602002602001015160000151601681111561168857611688612955565b036116fd5782828151811061169f5761169f612804565b60209081029190910181015101516004820180546000906116c3908490830b612eb2565b825460ff9182166101009390930a9283029190920219909116179055506004810154600090810b12156116fd5760048101805460ff191690555b600783838151811061171157611711612804565b602002602001015160000151601681111561172e5761172e612955565b5050600883838151811061174457611744612804565b602002602001015160000151601681111561176157611761612955565b0361178f5761178f8784848151811061177c5761177c612804565b6020026020010151602001516001611359565b60098383815181106117a3576117a3612804565b60200260200101516000015160168111156117c0576117c0612955565b036117ee576117ee878484815181106117db576117db612804565b6020026020010151602001516000611359565b600b83838151811061180257611802612804565b602002602001015160000151601681111561181f5761181f612955565b5050600d83838151811061183557611835612804565b602002602001015160000151601681111561185257611852612955565b0361187e5761187e8784848151811061186d5761186d612804565b602002602001015160200151610ff7565b600e83838151811061189257611892612804565b60200260200101516000015160168111156118af576118af612955565b5050600f8383815181106118c5576118c5612804565b60200260200101516000015160168111156118e2576118e2612955565b03611b685760008383815181106118fb576118fb612804565b6020908102919091018101510151600554604051633841fae160e01b8152600481018b90529192506000916001600160a01b0390911690633841fae190602401600060405180830381865afa158015611958573d6000803e3d6000fd5b505050506040513d6000823e601f3d908101601f191682016040526119809190810190612ed3565b805190915015611b655760006001825161199a91906127bf565b90505b8015611aa55760025460405163ce28613f60e01b815260006004820181905260ff84166024830152916001600160a01b03169063ce28613f906044016020604051808303816000875af11580156119f8573d6000803e3d6000fd5b505050506040513d601f19601f82011682018060405250810190611a1c9190612f59565b9050828160ff1681518110611a3357611a33612804565b6020026020010151838381518110611a4d57611a4d612804565b6020026020010151848481518110611a6757611a67612804565b60200260200101858460ff1681518110611a8357611a83612804565b6020908102919091010191909152525080611a9d81612f76565b91505061199d565b5060005b8151851015611b635760055482516001600160a01b0390911690635f09c782908c90859085908110611add57611add612804565b60200260200101516040518363ffffffff1660e01b8152600401611b0b929190918252602082015260400190565b600060405180830381600087803b158015611b2557600080fd5b505af1158015611b39573d6000803e3d6000fd5b505050508280611b4890612f76565b9350508215611b635780611b5b8161293c565b915050611aa9565b505b50505b6011838381518110611b7c57611b7c612804565b6020026020010151600001516016811115611b9957611b99612955565b03611cb6576005838381518110611bb257611bb2612804565b60200260200101516020015103611cb657600354604051632fc4a8f360e11b81526004810187905260009182916001600160a01b0390911690635f8951e6906024016040805180830381865afa158015611c10573d6000803e3d6000fd5b505050506040513d601f19601f82011682018060405250810190611c349190612f8d565b60065460408051808201825260ff8086168252841660208201529051631751422560e01b81529395509193506001600160a01b031691631751422591611c81918c91908e90600401612fb1565b600060405180830381600087803b158015611c9b57600080fd5b505af1158015611caf573d6000803e3d6000fd5b5050505050505b6012838381518110611cca57611cca612804565b6020026020010151600001516016811115611ce757611ce7612955565b50506013838381518110611cfd57611cfd612804565b6020026020010151600001516016811115611d1a57611d1a612955565b50506015838381518110611d3057611d30612804565b6020026020010151600001516016811115611d4d57611d4d612955565b03611f045760005b6004811015611f025760035485516020870151604051630dd43b9b60e31b8152600481018a905260ff928316602482015291166044820152606481018390526000916001600160a01b031690636ea1dcd890608401606060405180830381865afa158015611dc7573d6000803e3d6000fd5b505050506040513d601f19601f82011682018060405250810190611deb9190612fe3565b9050600181604001516004811115611e0557611e05612955565b1480611e265750600281604001516004811115611e2457611e24612955565b145b80611e465750600381604001516004811115611e4457611e44612955565b145b15611eef57600360009054906101000a90046001600160a01b03166001600160a01b0316635921522388886000015189602001518660018b8b81518110611e8f57611e8f612804565b6020026020010151602001516040518763ffffffff1660e01b8152600401611ebc96959493929190613059565b600060405180830381600087803b158015611ed657600080fd5b505af1158015611eea573d6000803e3d6000fd5b505050505b5080611efa8161293c565b915050611d55565b505b6014838381518110611f1857611f18612804565b6020026020010151600001516016811115611f3557611f35612955565b50505080611f428161293c565b915050611457565b505050505050565b6000546001600160a01b03163314610e335760405162461bcd60e51b815260206004820181905260248201527f4f776e61626c653a2063616c6c6572206973206e6f7420746865206f776e6572604482015260640161049e565b600080546001600160a01b038381166001600160a01b0319831681178455604051919092169283917f8be0079c531659141344cd1fd0a4f28419497f9722a3daafe3b4186f6b6457e09190a35050565b6000600b828154811061201157612011612804565b6000918252602090912060089091020160048101805460ff19169055600154600b80549293506001600160a01b0390911691636d6ba75691908590811061205a5761205a612804565b9060005260206000209060080201600201546040518263ffffffff1660e01b815260040161208a91815260200190565b600060405180830381600087803b1580156120a457600080fd5b505af11580156120b8573d6000803e3d6000fd5b50505050600a600b83815481106120d1576120d1612804565b600091825260209091208254600890920201600301805460ff92831660ff19821681178355935461ffff19909116909317610100938490049092169092021790555050565b80356001600160a01b038116811461212d57600080fd5b919050565b60008060006060848603121561214757600080fd5b61215084612116565b92506020840135915061216560408501612116565b90509250925092565b801515811461126a57600080fd5b60008060006060848603121561219157600080fd5b833592506020840135915060408401356121aa8161216e565b809150509250925092565b6000602082840312156121c757600080fd5b5035919050565b600081518084526020808501945080840160005b8381101561220157815160ff16875295820195908201906001016121e2565b509495945050505050565b602081526122266020820183516001600160a01b03169052565b6000602083015161224260408401826001600160a01b03169052565b5060408301516060830152606083015161226f6080840182805160ff908116835260209182015116910152565b50608083015161228460c084018260000b9052565b5060a083015160ff811660e08401525060c08301516101006122aa8185018360ff169052565b60e085015191506101206122c28186018460ff169052565b8186015192506101e0915061014082818701526122e36102008701856121ce565b918701519193506101606122fb8782018460ff169052565b908701519150610180906123128783018415159052565b87015191506101a06123278782018415159052565b9087015115156101c08701529095015193019290925250919050565b6000806040838503121561235657600080fd5b50508035926020909101359150565b634e487b7160e01b600052604160045260246000fd5b6040805190810167ffffffffffffffff8111828210171561239e5761239e612365565b60405290565b60405160e0810167ffffffffffffffff8111828210171561239e5761239e612365565b604051610120810167ffffffffffffffff8111828210171561239e5761239e612365565b604051601f8201601f1916810167ffffffffffffffff8111828210171561241457612414612365565b604052919050565b600067ffffffffffffffff82111561243657612436612365565b5060051b60200190565b6000806040838503121561245357600080fd5b8235915060208084013567ffffffffffffffff81111561247257600080fd5b8401601f8101861361248357600080fd5b80356124966124918261241c565b6123eb565b81815260059190911b820183019083810190888311156124b557600080fd5b928401925b828410156124d3578335825292840192908401906124ba565b80955050505050509250929050565b60ff8116811461126a57600080fd5b60006040828403121561250357600080fd5b61250b61237b565b90508135612518816124e2565b81526020820135612528816124e2565b602082015292915050565b6000806000806000806000610100888a03121561254f57600080fd5b873596506020880135955060408801359450606088013593506125758960808a016124f1565b925060c0880135915060e08801356006811061259057600080fd5b8091505092959891949750929550565b6000806000608084860312156125b557600080fd5b6125bf85856124f1565b95604085013595506060909401359392505050565b600080600080600080600080610100898b0312156125f157600080fd5b6125fa89612116565b975061260860208a01612116565b965061261660408a01612116565b955061262460608a01612116565b945061263260808a01612116565b935061264060a08a01612116565b925061264e60c08a01612116565b915061265c60e08a01612116565b90509295985092959890939650565b6000806040838503121561267e57600080fd5b823591506020830135612690816124e2565b809150509250929050565b60008060008060008060e087890312156126b457600080fd5b8635955060208701359450604087013593506126d388606089016124f1565b925060a0870135915060c087013590509295509295509295565b6000602082840312156126ff57600080fd5b61056782612116565b6001600160a01b038e811682528d166020820152604081018c90526101c08101612745606083018d805160ff908116835260209182015116910152565b8a60000b60a083015260ff8a1660c083015260ff891660e083015261277061010083018960ff169052565b60ff9690961661012082015293151561014085015291151561016084015215156101808301526101a09091015298975050505050505050565b634e487b7160e01b600052601160045260246000fd5b818103818111156127d2576127d26127a9565b92915050565b602080825260129082015271139bdd0819d85b595cc818dbdb9d1c9858dd60721b604082015260600190565b634e487b7160e01b600052603260045260246000fd5b60ff82811682821603908111156127d2576127d26127a9565b805161212d816124e2565b805161212d8161216e565b6000610140828403121561285c57600080fd5b6128646123a4565b825161286f816124e2565b8152602083810151612880816124e2565b82820152605f8401851361289357600080fd5b6040516080810181811067ffffffffffffffff821117156128b6576128b6612365565b6040528060c08601878111156128cb57600080fd5b604087015b818110156128e757805183529184019184016128d0565b508260408601526128f78161283e565b60608601525050505061290c60e0840161283e565b608082015261291e610100840161283e565b60a0820152612930610120840161283e565b60c08201529392505050565b60006001820161294e5761294e6127a9565b5060010190565b634e487b7160e01b600052602160045260246000fd5b600082601f83011261297c57600080fd5b8151602061298c6124918361241c565b82815260069290921b840181019181810190868411156129ab57600080fd5b8286015b848110156129f857604081890312156129c85760008081fd5b6129d061237b565b8151601781106129e05760008081fd5b815281850151858201528352918301916040016129af565b509695505050505050565b600060208284031215612a1557600080fd5b815167ffffffffffffffff80821115612a2d57600080fd5b9083019060e08286031215612a4157600080fd5b612a496123a4565b82518152612a596020840161283e565b6020820152612a6a60408401612833565b6040820152612a7b60608401612833565b6060820152608083015182811115612a9257600080fd5b612a9e8782860161296b565b60808301525060a083015182811115612ab657600080fd5b612ac28782860161296b565b60a08301525060c083015182811115612ada57600080fd5b612ae68782860161296b565b60c08301525095945050505050565b60068110612b0557612b05612955565b9052565b828152604081016105676020830184612af5565b60408101612b2b8285612af5565b8260208301529392505050565b60006020808385031215612b4b57600080fd5b825167ffffffffffffffff80821115612b6357600080fd5b818501915085601f830112612b7757600080fd5b8151612b856124918261241c565b81815260059190911b83018401908481019088831115612ba457600080fd5b8585015b83811015612bdc57805185811115612bc05760008081fd5b612bce8b89838a010161296b565b845250918601918601612ba8565b5098975050505050505050565b600081518084526020808501945080840160005b83811015612201578151805160178110612c1957612c19612955565b88528301518388015260409096019590820190600101612bfd565b84815283602082015260806040820152825160808201526020830151151560a082015260ff60408401511660c082015260006060840151612c7a60e084018260ff169052565b50608084015160e0610100840152612c96610160840182612be9565b905060a0850151607f198085840301610120860152612cb58383612be9565b925060c08701519150808584030161014086015250612cd48282612be9565b9150508281036060840152612ce98185612be9565b979650505050505050565b600060208284031215612d0657600080fd5b5051919050565b60ff81811683821601908111156127d2576127d26127a9565b600060ff821660ff8103612d3c57612d3c6127a9565b60010192915050565b8051600081900b811461212d57600080fd5b600060e08284031215612d6957600080fd5b612d716123a4565b9050612d7c82612d45565b8152612d8a60208301612d45565b6020820152612d9b60408301612d45565b6040820152612dac60608301612d45565b6060820152612dbd60808301612d45565b6080820152612dce60a08301612d45565b60a0820152612ddf60c08301612d45565b60c082015292915050565b60006101e08284031215612dfd57600080fd5b612e056123c7565b825181526020830151602082015260408301516040820152612e2a8460608501612d57565b6060820152612e3c6101408401612833565b6080820152612e4e6101608401612833565b60a0820152612e606101808401612833565b60c0820152612e726101a08401612833565b60e0820152612e846101c0840161283e565b6101008201529392505050565b600081810b9083900b01607f8113607f19821217156127d2576127d26127a9565b600082810b9082900b03607f198112607f821317156127d2576127d26127a9565b60006020808385031215612ee657600080fd5b825167ffffffffffffffff811115612efd57600080fd5b8301601f81018513612f0e57600080fd5b8051612f1c6124918261241c565b81815260059190911b82018301908381019087831115612f3b57600080fd5b928401925b82841015612ce957835182529284019290840190612f40565b600060208284031215612f6b57600080fd5b8151610567816124e2565b600081612f8557612f856127a9565b506000190190565b60008060408385031215612fa057600080fd5b505080516020909101519092909150565b83815260808101612fd56020830185805160ff908116835260209182015116910152565b826060830152949350505050565b600060608284031215612ff557600080fd5b6040516060810181811067ffffffffffffffff8211171561301857613018612365565b6040528251613026816124e2565b81526020830151613036816124e2565b602082015260408301516005811061304d57600080fd5b60408201529392505050565b86815260ff8681166020830152851660408201526060810184905260c081016005841061308857613088612955565b608082019390935260a0015294935050505056fe854f143c4475e8754c8844dbfe9928cf11388710860ea82bb21c19da10f6c73da2646970667358221220d254898e83c4150c65fb46cad526dee3cafe7ad565dba98eef5b7fc7bdb59baa64736f6c63430008110033",
  "devdoc": {
    "kind": "dev",
    "methods": {
      "owner()": {
        "details": "Returns the address of the current owner."
      },
      "renounceOwnership()": {
        "details": "Leaves the contract without owner. It will not be possible to call `onlyOwner` functions anymore. Can only be called by the current owner. NOTE: Renouncing ownership will leave the contract without an owner, thereby removing any functionality that is only available to the owner."
      },
      "transferOwnership(address)": {
        "details": "Transfers ownership of the contract to a new account (`newOwner`). Can only be called by the current owner."
      }
    },
    "version": 1
  },
  "userdoc": {
    "kind": "user",
    "methods": {},
    "version": 1
  },
  "storageLayout": {
    "storage": [
      {
        "astId": 7,
        "contract": "contracts/BCPlayers.sol:BCPlayers",
        "label": "_owner",
        "offset": 0,
        "slot": "0",
        "type": "t_address"
      },
      {
        "astId": 13403,
        "contract": "contracts/BCPlayers.sol:BCPlayers",
        "label": "chars",
        "offset": 0,
        "slot": "1",
        "type": "t_contract(CharInterface)13234"
      },
      {
        "astId": 13406,
        "contract": "contracts/BCPlayers.sol:BCPlayers",
        "label": "utils",
        "offset": 0,
        "slot": "2",
        "type": "t_contract(UtilsInterface)13251"
      },
      {
        "astId": 13409,
        "contract": "contracts/BCPlayers.sol:BCPlayers",
        "label": "maps",
        "offset": 0,
        "slot": "3",
        "type": "t_contract(MapInterface)13371"
      },
      {
        "astId": 13412,
        "contract": "contracts/BCPlayers.sol:BCPlayers",
        "label": "bcEvents",
        "offset": 0,
        "slot": "4",
        "type": "t_contract(EventsInterface)13212"
      },
      {
        "astId": 13415,
        "contract": "contracts/BCPlayers.sol:BCPlayers",
        "label": "items",
        "offset": 0,
        "slot": "5",
        "type": "t_contract(ItemsInterface)13387"
      },
      {
        "astId": 13418,
        "contract": "contracts/BCPlayers.sol:BCPlayers",
        "label": "games",
        "offset": 0,
        "slot": "6",
        "type": "t_contract(GamesInterface)13398"
      },
      {
        "astId": 13420,
        "contract": "contracts/BCPlayers.sol:BCPlayers",
        "label": "lobbiesAddress",
        "offset": 0,
        "slot": "7",
        "type": "t_address"
      },
      {
        "astId": 13422,
        "contract": "contracts/BCPlayers.sol:BCPlayers",
        "label": "charsAddress",
        "offset": 0,
        "slot": "8",
        "type": "t_address"
      },
      {
        "astId": 13424,
        "contract": "contracts/BCPlayers.sol:BCPlayers",
        "label": "actionsAddress",
        "offset": 0,
        "slot": "9",
        "type": "t_address"
      },
      {
        "astId": 13504,
        "contract": "contracts/BCPlayers.sol:BCPlayers",
        "label": "StartLocation",
        "offset": 0,
        "slot": "10",
        "type": "t_struct(Position)14801_storage"
      },
      {
        "astId": 13508,
        "contract": "contracts/BCPlayers.sol:BCPlayers",
        "label": "players",
        "offset": 0,
        "slot": "11",
        "type": "t_array(t_struct(Player)14776_storage)dyn_storage"
      }
    ],
    "types": {
      "t_address": {
        "encoding": "inplace",
        "label": "address",
        "numberOfBytes": "20"
      },
      "t_array(t_struct(Player)14776_storage)dyn_storage": {
        "base": "t_struct(Player)14776_storage",
        "encoding": "dynamic_array",
        "label": "struct BCTypes.Player[]",
        "numberOfBytes": "32"
      },
      "t_array(t_uint8)dyn_storage": {
        "base": "t_uint8",
        "encoding": "dynamic_array",
        "label": "uint8[]",
        "numberOfBytes": "32"
      },
      "t_bool": {
        "encoding": "inplace",
        "label": "bool",
        "numberOfBytes": "1"
      },
      "t_contract(CharInterface)13234": {
        "encoding": "inplace",
        "label": "contract CharInterface",
        "numberOfBytes": "20"
      },
      "t_contract(EventsInterface)13212": {
        "encoding": "inplace",
        "label": "contract EventsInterface",
        "numberOfBytes": "20"
      },
      "t_contract(GamesInterface)13398": {
        "encoding": "inplace",
        "label": "contract GamesInterface",
        "numberOfBytes": "20"
      },
      "t_contract(ItemsInterface)13387": {
        "encoding": "inplace",
        "label": "contract ItemsInterface",
        "numberOfBytes": "20"
      },
      "t_contract(MapInterface)13371": {
        "encoding": "inplace",
        "label": "contract MapInterface",
        "numberOfBytes": "20"
      },
      "t_contract(UtilsInterface)13251": {
        "encoding": "inplace",
        "label": "contract UtilsInterface",
        "numberOfBytes": "20"
      },
      "t_int8": {
        "encoding": "inplace",
        "label": "int8",
        "numberOfBytes": "1"
      },
      "t_struct(Player)14776_storage": {
        "encoding": "inplace",
        "label": "struct BCTypes.Player",
        "members": [
          {
            "astId": 14747,
            "contract": "contracts/BCPlayers.sol:BCPlayers",
            "label": "owner",
            "offset": 0,
            "slot": "0",
            "type": "t_address"
          },
          {
            "astId": 14749,
            "contract": "contracts/BCPlayers.sol:BCPlayers",
            "label": "charContractAddress",
            "offset": 0,
            "slot": "1",
            "type": "t_address"
          },
          {
            "astId": 14751,
            "contract": "contracts/BCPlayers.sol:BCPlayers",
            "label": "characterId",
            "offset": 0,
            "slot": "2",
            "type": "t_uint256"
          },
          {
            "astId": 14754,
            "contract": "contracts/BCPlayers.sol:BCPlayers",
            "label": "position",
            "offset": 0,
            "slot": "3",
            "type": "t_struct(Position)14801_storage"
          },
          {
            "astId": 14756,
            "contract": "contracts/BCPlayers.sol:BCPlayers",
            "label": "healthDmgTaken",
            "offset": 0,
            "slot": "4",
            "type": "t_int8"
          },
          {
            "astId": 14758,
            "contract": "contracts/BCPlayers.sol:BCPlayers",
            "label": "armorDmgTaken",
            "offset": 1,
            "slot": "4",
            "type": "t_uint8"
          },
          {
            "astId": 14760,
            "contract": "contracts/BCPlayers.sol:BCPlayers",
            "label": "actionsTaken",
            "offset": 2,
            "slot": "4",
            "type": "t_uint8"
          },
          {
            "astId": 14762,
            "contract": "contracts/BCPlayers.sol:BCPlayers",
            "label": "dataTokens",
            "offset": 3,
            "slot": "4",
            "type": "t_uint8"
          },
          {
            "astId": 14765,
            "contract": "contracts/BCPlayers.sol:BCPlayers",
            "label": "currentEffects",
            "offset": 0,
            "slot": "5",
            "type": "t_array(t_uint8)dyn_storage"
          },
          {
            "astId": 14767,
            "contract": "contracts/BCPlayers.sol:BCPlayers",
            "label": "numItemsHeld",
            "offset": 0,
            "slot": "6",
            "type": "t_uint8"
          },
          {
            "astId": 14769,
            "contract": "contracts/BCPlayers.sol:BCPlayers",
            "label": "canHarmOthers",
            "offset": 1,
            "slot": "6",
            "type": "t_bool"
          },
          {
            "astId": 14771,
            "contract": "contracts/BCPlayers.sol:BCPlayers",
            "label": "dead",
            "offset": 2,
            "slot": "6",
            "type": "t_bool"
          },
          {
            "astId": 14773,
            "contract": "contracts/BCPlayers.sol:BCPlayers",
            "label": "hasEgg",
            "offset": 3,
            "slot": "6",
            "type": "t_bool"
          },
          {
            "astId": 14775,
            "contract": "contracts/BCPlayers.sol:BCPlayers",
            "label": "gameId",
            "offset": 0,
            "slot": "7",
            "type": "t_uint256"
          }
        ],
        "numberOfBytes": "256"
      },
      "t_struct(Position)14801_storage": {
        "encoding": "inplace",
        "label": "struct BCTypes.Position",
        "members": [
          {
            "astId": 14798,
            "contract": "contracts/BCPlayers.sol:BCPlayers",
            "label": "row",
            "offset": 0,
            "slot": "0",
            "type": "t_uint8"
          },
          {
            "astId": 14800,
            "contract": "contracts/BCPlayers.sol:BCPlayers",
            "label": "col",
            "offset": 1,
            "slot": "0",
            "type": "t_uint8"
          }
        ],
        "numberOfBytes": "32"
      },
      "t_uint256": {
        "encoding": "inplace",
        "label": "uint256",
        "numberOfBytes": "32"
      },
      "t_uint8": {
        "encoding": "inplace",
        "label": "uint8",
        "numberOfBytes": "1"
      }
    }
  }
}