{
  "address": "0x2194f042da1Adb0541CfD4226D3c5721A39a4741",
  "abi": [
    {
      "inputs": [],
      "stateMutability": "nonpayable",
      "type": "constructor"
    },
    {
      "anonymous": false,
      "inputs": [
        {
          "indexed": false,
          "internalType": "uint256",
          "name": "gameId",
          "type": "uint256"
        },
        {
          "indexed": false,
          "internalType": "uint256",
          "name": "roll",
          "type": "uint256"
        },
        {
          "indexed": false,
          "internalType": "uint256",
          "name": "forValue",
          "type": "uint256"
        },
        {
          "indexed": false,
          "internalType": "uint256",
          "name": "against",
          "type": "uint256"
        }
      ],
      "name": "ChallengeEvent",
      "type": "event"
    },
    {
      "anonymous": false,
      "inputs": [
        {
          "indexed": false,
          "internalType": "uint256",
          "name": "gameId",
          "type": "uint256"
        },
        {
          "indexed": false,
          "internalType": "uint256",
          "name": "roll",
          "type": "uint256"
        }
      ],
      "name": "DiceRollEvent",
      "type": "event"
    },
    {
      "anonymous": false,
      "inputs": [
        {
          "indexed": false,
          "internalType": "uint256",
          "name": "gameId",
          "type": "uint256"
        },
        {
          "indexed": false,
          "internalType": "uint256",
          "name": "playerId",
          "type": "uint256"
        },
        {
          "components": [
            {
              "internalType": "uint256",
              "name": "id",
              "type": "uint256"
            },
            {
              "internalType": "bool",
              "name": "permanent",
              "type": "bool"
            },
            {
              "internalType": "uint8",
              "name": "rollForLow",
              "type": "uint8"
            },
            {
              "internalType": "uint8",
              "name": "rollForHigh",
              "type": "uint8"
            },
            {
              "components": [
                {
                  "internalType": "enum BCEvents.EffectTypes",
                  "name": "effect",
                  "type": "uint8"
                },
                {
                  "internalType": "uint256",
                  "name": "value",
                  "type": "uint256"
                }
              ],
              "internalType": "struct BCEvents.Effect[]",
              "name": "defaultEffect",
              "type": "tuple[]"
            },
            {
              "components": [
                {
                  "internalType": "enum BCEvents.EffectTypes",
                  "name": "effect",
                  "type": "uint8"
                },
                {
                  "internalType": "uint256",
                  "name": "value",
                  "type": "uint256"
                }
              ],
              "internalType": "struct BCEvents.Effect[]",
              "name": "lowEffect",
              "type": "tuple[]"
            },
            {
              "components": [
                {
                  "internalType": "enum BCEvents.EffectTypes",
                  "name": "effect",
                  "type": "uint8"
                },
                {
                  "internalType": "uint256",
                  "name": "value",
                  "type": "uint256"
                }
              ],
              "internalType": "struct BCEvents.Effect[]",
              "name": "highEffect",
              "type": "tuple[]"
            }
          ],
          "indexed": false,
          "internalType": "struct BCEvents.BCEvent",
          "name": "bcEvent",
          "type": "tuple"
        },
        {
          "components": [
            {
              "internalType": "enum BCEvents.EffectTypes",
              "name": "effect",
              "type": "uint8"
            },
            {
              "internalType": "uint256",
              "name": "value",
              "type": "uint256"
            }
          ],
          "indexed": false,
          "internalType": "struct BCEvents.Effect[]",
          "name": "appliedBCEffects",
          "type": "tuple[]"
        },
        {
          "components": [
            {
              "internalType": "uint8",
              "name": "row",
              "type": "uint8"
            },
            {
              "internalType": "uint8",
              "name": "col",
              "type": "uint8"
            }
          ],
          "indexed": false,
          "internalType": "struct BCTypes.Position",
          "name": "position",
          "type": "tuple"
        }
      ],
      "name": "EventResolvedEvent",
      "type": "event"
    },
    {
      "anonymous": false,
      "inputs": [
        {
          "indexed": true,
          "internalType": "address",
          "name": "previousOwner",
          "type": "address"
        },
        {
          "indexed": true,
          "internalType": "address",
          "name": "newOwner",
          "type": "address"
        }
      ],
      "name": "OwnershipTransferred",
      "type": "event"
    },
    {
      "anonymous": false,
      "inputs": [
        {
          "indexed": false,
          "internalType": "uint256",
          "name": "gameId",
          "type": "uint256"
        },
        {
          "indexed": false,
          "internalType": "uint256",
          "name": "playerId",
          "type": "uint256"
        },
        {
          "indexed": false,
          "internalType": "uint256",
          "name": "damage",
          "type": "uint256"
        },
        {
          "components": [
            {
              "internalType": "uint8",
              "name": "row",
              "type": "uint8"
            },
            {
              "internalType": "uint8",
              "name": "col",
              "type": "uint8"
            }
          ],
          "indexed": false,
          "internalType": "struct BCTypes.Position",
          "name": "position",
          "type": "tuple"
        }
      ],
      "name": "PlayerDiedEvent",
      "type": "event"
    },
    {
      "inputs": [],
      "name": "StartLocation",
      "outputs": [
        {
          "internalType": "uint8",
          "name": "row",
          "type": "uint8"
        },
        {
          "internalType": "uint8",
          "name": "col",
          "type": "uint8"
        }
      ],
      "stateMutability": "view",
      "type": "function"
    },
    {
      "inputs": [
        {
          "internalType": "int256",
          "name": "x",
          "type": "int256"
        }
      ],
      "name": "abs",
      "outputs": [
        {
          "internalType": "int256",
          "name": "",
          "type": "int256"
        }
      ],
      "stateMutability": "pure",
      "type": "function"
    },
    {
      "inputs": [],
      "name": "actionsAddress",
      "outputs": [
        {
          "internalType": "address",
          "name": "",
          "type": "address"
        }
      ],
      "stateMutability": "view",
      "type": "function"
    },
    {
      "inputs": [
        {
          "internalType": "uint256",
          "name": "_charId",
          "type": "uint256"
        },
        {
          "internalType": "address",
          "name": "_owner",
          "type": "address"
        },
        {
          "internalType": "uint256[]",
          "name": "_itemIds",
          "type": "uint256[]"
        }
      ],
      "name": "addPlayer",
      "outputs": [
        {
          "internalType": "uint256",
          "name": "",
          "type": "uint256"
        }
      ],
      "stateMutability": "nonpayable",
      "type": "function"
    },
    {
      "inputs": [
        {
          "internalType": "uint256",
          "name": "_mapId",
          "type": "uint256"
        },
        {
          "internalType": "uint256[]",
          "name": "_players",
          "type": "uint256[]"
        }
      ],
      "name": "applyHazardDamage",
      "outputs": [],
      "stateMutability": "nonpayable",
      "type": "function"
    },
    {
      "inputs": [],
      "name": "bcEvents",
      "outputs": [
        {
          "internalType": "contract EventsInterface",
          "name": "",
          "type": "address"
        }
      ],
      "stateMutability": "view",
      "type": "function"
    },
    {
      "inputs": [],
      "name": "chars",
      "outputs": [
        {
          "internalType": "contract CharInterface",
          "name": "",
          "type": "address"
        }
      ],
      "stateMutability": "view",
      "type": "function"
    },
    {
      "inputs": [],
      "name": "charsAddress",
      "outputs": [
        {
          "internalType": "address",
          "name": "",
          "type": "address"
        }
      ],
      "stateMutability": "view",
      "type": "function"
    },
    {
      "inputs": [
        {
          "internalType": "uint256",
          "name": "_playerId",
          "type": "uint256"
        },
        {
          "internalType": "uint256",
          "name": "_num",
          "type": "uint256"
        }
      ],
      "name": "decrementNumItemsHeld",
      "outputs": [],
      "stateMutability": "nonpayable",
      "type": "function"
    },
    {
      "inputs": [
        {
          "internalType": "uint256",
          "name": "_playerId",
          "type": "uint256"
        },
        {
          "internalType": "uint256",
          "name": "_gameId",
          "type": "uint256"
        },
        {
          "internalType": "uint256",
          "name": "_mapId",
          "type": "uint256"
        },
        {
          "components": [
            {
              "internalType": "uint8",
              "name": "row",
              "type": "uint8"
            },
            {
              "internalType": "uint8",
              "name": "col",
              "type": "uint8"
            }
          ],
          "internalType": "struct BCTypes.Position",
          "name": "_position",
          "type": "tuple"
        },
        {
          "internalType": "uint256",
          "name": "_eventId",
          "type": "uint256"
        },
        {
          "internalType": "uint256",
          "name": "_effectNum",
          "type": "uint256"
        }
      ],
      "name": "extApplyEffect",
      "outputs": [],
      "stateMutability": "nonpayable",
      "type": "function"
    },
    {
      "inputs": [
        {
          "internalType": "uint256",
          "name": "_choice",
          "type": "uint256"
        },
        {
          "internalType": "uint256",
          "name": "_eventPlayerId",
          "type": "uint256"
        },
        {
          "internalType": "uint256",
          "name": "_gameId",
          "type": "uint256"
        },
        {
          "internalType": "uint256",
          "name": "_mapId",
          "type": "uint256"
        },
        {
          "components": [
            {
              "internalType": "uint8",
              "name": "row",
              "type": "uint8"
            },
            {
              "internalType": "uint8",
              "name": "col",
              "type": "uint8"
            }
          ],
          "internalType": "struct BCTypes.Position",
          "name": "_position",
          "type": "tuple"
        },
        {
          "internalType": "uint256",
          "name": "_eventNumber",
          "type": "uint256"
        },
        {
          "internalType": "enum BCTypes.BCEventType",
          "name": "_eventType",
          "type": "uint8"
        }
      ],
      "name": "extChooseEffect",
      "outputs": [],
      "stateMutability": "nonpayable",
      "type": "function"
    },
    {
      "inputs": [
        {
          "internalType": "uint256",
          "name": "_id",
          "type": "uint256"
        }
      ],
      "name": "extGetActionsTaken",
      "outputs": [
        {
          "internalType": "uint256",
          "name": "",
          "type": "uint256"
        }
      ],
      "stateMutability": "view",
      "type": "function"
    },
    {
      "inputs": [
        {
          "internalType": "uint256",
          "name": "_id",
          "type": "uint256"
        }
      ],
      "name": "extGetPlayer",
      "outputs": [
        {
          "components": [
            {
              "internalType": "address",
              "name": "owner",
              "type": "address"
            },
            {
              "internalType": "uint256",
              "name": "characterId",
              "type": "uint256"
            },
            {
              "internalType": "uint256",
              "name": "id",
              "type": "uint256"
            },
            {
              "components": [
                {
                  "internalType": "int8",
                  "name": "health",
                  "type": "int8"
                },
                {
                  "internalType": "int8",
                  "name": "carry",
                  "type": "int8"
                },
                {
                  "internalType": "int8",
                  "name": "defense",
                  "type": "int8"
                },
                {
                  "internalType": "int8",
                  "name": "hack",
                  "type": "int8"
                },
                {
                  "internalType": "int8",
                  "name": "breach",
                  "type": "int8"
                },
                {
                  "internalType": "int8",
                  "name": "shoot",
                  "type": "int8"
                },
                {
                  "internalType": "int8",
                  "name": "melee",
                  "type": "int8"
                },
                {
                  "internalType": "bool",
                  "name": "hasGun",
                  "type": "bool"
                }
              ],
              "internalType": "struct BCTypes.Traits",
              "name": "currentTraits",
              "type": "tuple"
            },
            {
              "components": [
                {
                  "internalType": "uint8",
                  "name": "row",
                  "type": "uint8"
                },
                {
                  "internalType": "uint8",
                  "name": "col",
                  "type": "uint8"
                }
              ],
              "internalType": "struct BCTypes.Position",
              "name": "position",
              "type": "tuple"
            },
            {
              "components": [
                {
                  "internalType": "uint8",
                  "name": "row",
                  "type": "uint8"
                },
                {
                  "internalType": "uint8",
                  "name": "col",
                  "type": "uint8"
                }
              ],
              "internalType": "struct BCTypes.Position",
              "name": "lastPos",
              "type": "tuple"
            },
            {
              "internalType": "int8",
              "name": "healthDmgTaken",
              "type": "int8"
            },
            {
              "internalType": "uint8",
              "name": "armorDmgTaken",
              "type": "uint8"
            },
            {
              "internalType": "uint8",
              "name": "actionsTaken",
              "type": "uint8"
            },
            {
              "internalType": "uint8",
              "name": "dataTokens",
              "type": "uint8"
            },
            {
              "internalType": "uint8[]",
              "name": "currentEffects",
              "type": "uint8[]"
            },
            {
              "internalType": "uint8",
              "name": "numItemsHeld",
              "type": "uint8"
            },
            {
              "internalType": "bool",
              "name": "dead",
              "type": "bool"
            },
            {
              "internalType": "uint256",
              "name": "gameId",
              "type": "uint256"
            }
          ],
          "internalType": "struct BCTypes.Player",
          "name": "",
          "type": "tuple"
        }
      ],
      "stateMutability": "view",
      "type": "function"
    },
    {
      "inputs": [
        {
          "internalType": "uint256",
          "name": "_id",
          "type": "uint256"
        }
      ],
      "name": "extGetPlayerOwner",
      "outputs": [
        {
          "internalType": "address",
          "name": "",
          "type": "address"
        }
      ],
      "stateMutability": "view",
      "type": "function"
    },
    {
      "inputs": [
        {
          "internalType": "uint256",
          "name": "_playerId",
          "type": "uint256"
        },
        {
          "internalType": "uint256",
          "name": "_amount",
          "type": "uint256"
        },
        {
          "internalType": "bool",
          "name": "_hazard",
          "type": "bool"
        }
      ],
      "name": "extHurtPlayer",
      "outputs": [],
      "stateMutability": "nonpayable",
      "type": "function"
    },
    {
      "inputs": [
        {
          "components": [
            {
              "internalType": "uint8",
              "name": "row",
              "type": "uint8"
            },
            {
              "internalType": "uint8",
              "name": "col",
              "type": "uint8"
            }
          ],
          "internalType": "struct BCTypes.Position",
          "name": "_position",
          "type": "tuple"
        },
        {
          "internalType": "uint256",
          "name": "_playerId",
          "type": "uint256"
        },
        {
          "internalType": "uint256",
          "name": "_mapId",
          "type": "uint256"
        }
      ],
      "name": "extMovePlayer",
      "outputs": [
        {
          "internalType": "bool",
          "name": "",
          "type": "bool"
        }
      ],
      "stateMutability": "nonpayable",
      "type": "function"
    },
    {
      "inputs": [],
      "name": "games",
      "outputs": [
        {
          "internalType": "contract GamesInterface",
          "name": "",
          "type": "address"
        }
      ],
      "stateMutability": "view",
      "type": "function"
    },
    {
      "inputs": [
        {
          "components": [
            {
              "internalType": "uint8",
              "name": "row",
              "type": "uint8"
            },
            {
              "internalType": "uint8",
              "name": "col",
              "type": "uint8"
            }
          ],
          "internalType": "struct BCTypes.Position",
          "name": "_firstRoom",
          "type": "tuple"
        },
        {
          "components": [
            {
              "internalType": "uint8",
              "name": "row",
              "type": "uint8"
            },
            {
              "internalType": "uint8",
              "name": "col",
              "type": "uint8"
            }
          ],
          "internalType": "struct BCTypes.Position",
          "name": "_secondRoom",
          "type": "tuple"
        }
      ],
      "name": "getDirectionBetween",
      "outputs": [
        {
          "internalType": "uint256",
          "name": "",
          "type": "uint256"
        }
      ],
      "stateMutability": "pure",
      "type": "function"
    },
    {
      "inputs": [
        {
          "internalType": "uint256",
          "name": "_gameId",
          "type": "uint256"
        }
      ],
      "name": "getEventBlocks",
      "outputs": [
        {
          "internalType": "uint256[]",
          "name": "",
          "type": "uint256[]"
        }
      ],
      "stateMutability": "view",
      "type": "function"
    },
    {
      "inputs": [
        {
          "internalType": "uint256",
          "name": "_direction",
          "type": "uint256"
        },
        {
          "components": [
            {
              "internalType": "uint8",
              "name": "row",
              "type": "uint8"
            },
            {
              "internalType": "uint8",
              "name": "col",
              "type": "uint8"
            }
          ],
          "internalType": "struct BCTypes.Position",
          "name": "_start",
          "type": "tuple"
        }
      ],
      "name": "getNeighborRoom",
      "outputs": [
        {
          "components": [
            {
              "internalType": "uint8",
              "name": "row",
              "type": "uint8"
            },
            {
              "internalType": "uint8",
              "name": "col",
              "type": "uint8"
            }
          ],
          "internalType": "struct BCTypes.Position",
          "name": "",
          "type": "tuple"
        }
      ],
      "stateMutability": "pure",
      "type": "function"
    },
    {
      "inputs": [
        {
          "internalType": "uint256",
          "name": "_traitNum",
          "type": "uint256"
        },
        {
          "internalType": "uint256",
          "name": "_subTraitNum",
          "type": "uint256"
        }
      ],
      "name": "getUIOffset",
      "outputs": [
        {
          "internalType": "uint256",
          "name": "",
          "type": "uint256"
        }
      ],
      "stateMutability": "pure",
      "type": "function"
    },
    {
      "inputs": [
        {
          "internalType": "uint256",
          "name": "_playerId",
          "type": "uint256"
        },
        {
          "internalType": "uint8",
          "name": "_amount",
          "type": "uint8"
        }
      ],
      "name": "grantDataToPlayer",
      "outputs": [],
      "stateMutability": "nonpayable",
      "type": "function"
    },
    {
      "inputs": [
        {
          "internalType": "uint256",
          "name": "_playerId",
          "type": "uint256"
        },
        {
          "internalType": "uint256",
          "name": "_num",
          "type": "uint256"
        }
      ],
      "name": "incrementNumItemsHeld",
      "outputs": [],
      "stateMutability": "nonpayable",
      "type": "function"
    },
    {
      "inputs": [
        {
          "internalType": "uint256",
          "name": "_playerId",
          "type": "uint256"
        }
      ],
      "name": "incrementPlayerActions",
      "outputs": [],
      "stateMutability": "nonpayable",
      "type": "function"
    },
    {
      "inputs": [],
      "name": "items",
      "outputs": [
        {
          "internalType": "contract ItemsInterface",
          "name": "",
          "type": "address"
        }
      ],
      "stateMutability": "view",
      "type": "function"
    },
    {
      "inputs": [],
      "name": "lobbiesAddress",
      "outputs": [
        {
          "internalType": "address",
          "name": "",
          "type": "address"
        }
      ],
      "stateMutability": "view",
      "type": "function"
    },
    {
      "inputs": [
        {
          "components": [
            {
              "internalType": "uint8",
              "name": "row",
              "type": "uint8"
            },
            {
              "internalType": "uint8",
              "name": "col",
              "type": "uint8"
            }
          ],
          "internalType": "struct BCTypes.Position",
          "name": "_pos1",
          "type": "tuple"
        },
        {
          "components": [
            {
              "internalType": "uint8",
              "name": "row",
              "type": "uint8"
            },
            {
              "internalType": "uint8",
              "name": "col",
              "type": "uint8"
            }
          ],
          "internalType": "struct BCTypes.Position",
          "name": "_pos2",
          "type": "tuple"
        }
      ],
      "name": "manhattanDistance",
      "outputs": [
        {
          "internalType": "uint256",
          "name": "",
          "type": "uint256"
        }
      ],
      "stateMutability": "pure",
      "type": "function"
    },
    {
      "inputs": [],
      "name": "maps",
      "outputs": [
        {
          "internalType": "contract MapInterface",
          "name": "",
          "type": "address"
        }
      ],
      "stateMutability": "view",
      "type": "function"
    },
    {
      "inputs": [
        {
          "internalType": "uint256",
          "name": "_min",
          "type": "uint256"
        },
        {
          "internalType": "uint256",
          "name": "_max",
          "type": "uint256"
        },
        {
          "internalType": "uint256",
          "name": "_val",
          "type": "uint256"
        },
        {
          "internalType": "uint256",
          "name": "_valMax",
          "type": "uint256"
        }
      ],
      "name": "normalizeToSmallRange",
      "outputs": [
        {
          "internalType": "uint8",
          "name": "",
          "type": "uint8"
        }
      ],
      "stateMutability": "pure",
      "type": "function"
    },
    {
      "inputs": [
        {
          "internalType": "uint256",
          "name": "_direction",
          "type": "uint256"
        }
      ],
      "name": "opposite",
      "outputs": [
        {
          "internalType": "uint256",
          "name": "",
          "type": "uint256"
        }
      ],
      "stateMutability": "pure",
      "type": "function"
    },
    {
      "inputs": [],
      "name": "owner",
      "outputs": [
        {
          "internalType": "address",
          "name": "",
          "type": "address"
        }
      ],
      "stateMutability": "view",
      "type": "function"
    },
    {
      "inputs": [
        {
          "internalType": "uint256",
          "name": "",
          "type": "uint256"
        }
      ],
      "name": "players",
      "outputs": [
        {
          "internalType": "address",
          "name": "owner",
          "type": "address"
        },
        {
          "internalType": "uint256",
          "name": "characterId",
          "type": "uint256"
        },
        {
          "internalType": "uint256",
          "name": "id",
          "type": "uint256"
        },
        {
          "components": [
            {
              "internalType": "int8",
              "name": "health",
              "type": "int8"
            },
            {
              "internalType": "int8",
              "name": "carry",
              "type": "int8"
            },
            {
              "internalType": "int8",
              "name": "defense",
              "type": "int8"
            },
            {
              "internalType": "int8",
              "name": "hack",
              "type": "int8"
            },
            {
              "internalType": "int8",
              "name": "breach",
              "type": "int8"
            },
            {
              "internalType": "int8",
              "name": "shoot",
              "type": "int8"
            },
            {
              "internalType": "int8",
              "name": "melee",
              "type": "int8"
            },
            {
              "internalType": "bool",
              "name": "hasGun",
              "type": "bool"
            }
          ],
          "internalType": "struct BCTypes.Traits",
          "name": "currentTraits",
          "type": "tuple"
        },
        {
          "components": [
            {
              "internalType": "uint8",
              "name": "row",
              "type": "uint8"
            },
            {
              "internalType": "uint8",
              "name": "col",
              "type": "uint8"
            }
          ],
          "internalType": "struct BCTypes.Position",
          "name": "position",
          "type": "tuple"
        },
        {
          "components": [
            {
              "internalType": "uint8",
              "name": "row",
              "type": "uint8"
            },
            {
              "internalType": "uint8",
              "name": "col",
              "type": "uint8"
            }
          ],
          "internalType": "struct BCTypes.Position",
          "name": "lastPos",
          "type": "tuple"
        },
        {
          "internalType": "int8",
          "name": "healthDmgTaken",
          "type": "int8"
        },
        {
          "internalType": "uint8",
          "name": "armorDmgTaken",
          "type": "uint8"
        },
        {
          "internalType": "uint8",
          "name": "actionsTaken",
          "type": "uint8"
        },
        {
          "internalType": "uint8",
          "name": "dataTokens",
          "type": "uint8"
        },
        {
          "internalType": "uint8",
          "name": "numItemsHeld",
          "type": "uint8"
        },
        {
          "internalType": "bool",
          "name": "dead",
          "type": "bool"
        },
        {
          "internalType": "uint256",
          "name": "gameId",
          "type": "uint256"
        }
      ],
      "stateMutability": "view",
      "type": "function"
    },
    {
      "inputs": [],
      "name": "randKeccak",
      "outputs": [
        {
          "internalType": "bytes32",
          "name": "",
          "type": "bytes32"
        }
      ],
      "stateMutability": "nonpayable",
      "type": "function"
    },
    {
      "inputs": [],
      "name": "renounceOwnership",
      "outputs": [],
      "stateMutability": "nonpayable",
      "type": "function"
    },
    {
      "inputs": [
        {
          "internalType": "uint256",
          "name": "_playerId",
          "type": "uint256"
        }
      ],
      "name": "resetPlayerActions",
      "outputs": [],
      "stateMutability": "nonpayable",
      "type": "function"
    },
    {
      "inputs": [
        {
          "internalType": "uint256",
          "name": "_gameId",
          "type": "uint256"
        },
        {
          "internalType": "uint256",
          "name": "_for",
          "type": "uint256"
        },
        {
          "internalType": "uint256",
          "name": "_against",
          "type": "uint256"
        }
      ],
      "name": "resolveChallenge",
      "outputs": [
        {
          "internalType": "bool",
          "name": "",
          "type": "bool"
        }
      ],
      "stateMutability": "nonpayable",
      "type": "function"
    },
    {
      "inputs": [
        {
          "internalType": "uint256",
          "name": "_gameId",
          "type": "uint256"
        }
      ],
      "name": "roll",
      "outputs": [
        {
          "internalType": "uint256",
          "name": "",
          "type": "uint256"
        }
      ],
      "stateMutability": "nonpayable",
      "type": "function"
    },
    {
      "inputs": [
        {
          "internalType": "address",
          "name": "_charAddress",
          "type": "address"
        },
        {
          "internalType": "address",
          "name": "_utilsAddress",
          "type": "address"
        },
        {
          "internalType": "address",
          "name": "_mapsAddress",
          "type": "address"
        },
        {
          "internalType": "address",
          "name": "_lobbiesAddress",
          "type": "address"
        },
        {
          "internalType": "address",
          "name": "_actionsAddress",
          "type": "address"
        },
        {
          "internalType": "address",
          "name": "_eventsAddress",
          "type": "address"
        },
        {
          "internalType": "address",
          "name": "_itemsAddress",
          "type": "address"
        },
        {
          "internalType": "address",
          "name": "_gamesAddress",
          "type": "address"
        }
      ],
      "name": "setContractAddresses",
      "outputs": [],
      "stateMutability": "nonpayable",
      "type": "function"
    },
    {
      "inputs": [
        {
          "internalType": "uint256[]",
          "name": "ids",
          "type": "uint256[]"
        },
        {
          "internalType": "uint256",
          "name": "_gameId",
          "type": "uint256"
        }
      ],
      "name": "setPlayersGameId",
      "outputs": [],
      "stateMutability": "nonpayable",
      "type": "function"
    },
    {
      "inputs": [
        {
          "internalType": "bytes32",
          "name": "_hash",
          "type": "bytes32"
        },
        {
          "internalType": "uint256",
          "name": "_size",
          "type": "uint256"
        },
        {
          "internalType": "uint256",
          "name": "_offset",
          "type": "uint256"
        }
      ],
      "name": "sliceHashToSmallInt",
      "outputs": [
        {
          "internalType": "uint8",
          "name": "",
          "type": "uint8"
        }
      ],
      "stateMutability": "pure",
      "type": "function"
    },
    {
      "inputs": [
        {
          "internalType": "uint8",
          "name": "_min",
          "type": "uint8"
        },
        {
          "internalType": "uint8",
          "name": "_max",
          "type": "uint8"
        }
      ],
      "name": "smallIntBetweenVals",
      "outputs": [
        {
          "internalType": "uint8",
          "name": "",
          "type": "uint8"
        }
      ],
      "stateMutability": "nonpayable",
      "type": "function"
    },
    {
      "inputs": [
        {
          "internalType": "address",
          "name": "newOwner",
          "type": "address"
        }
      ],
      "name": "transferOwnership",
      "outputs": [],
      "stateMutability": "nonpayable",
      "type": "function"
    },
    {
      "inputs": [
        {
          "internalType": "uint256",
          "name": "_charId",
          "type": "uint256"
        },
        {
          "internalType": "uint256",
          "name": "_playerId",
          "type": "uint256"
        }
      ],
      "name": "updatePlayerTraits",
      "outputs": [],
      "stateMutability": "nonpayable",
      "type": "function"
    }
  ],
  "transactionHash": "0x68d7a8b8b05028abfb80bd11e5b07e3246c84a54eb44e0b5941b4d63362118e6",
  "args": [],
  "numDeployments": 1,
  "solcInputHash": "95fd6822a2af1851844f0c53e2691a42",
  "bytecode": "0x600060015560c0604052600a608052600660a052600b805461ffff191661060a1790553480156200002f57600080fd5b506200003b3362000428565b6200010f604080516101c081018252600080825260208083018290528284018290528351610100810185528281528082018390528085018390526060808201849052608080830185905260a080840186905260c0840186905260e0840186905291860192909252855180870187528481528084018590529185019190915284518086019095528285529084019190915290919082019081526000602082018190526040820181905260608083018290526080830182905260a083015260c0820181905260e082018190526101009091015290565b600c8190806001815401808255809150506001900390600052602060002090600a020160009091909190915060008201518160000160006101000a8154816001600160a01b0302191690836001600160a01b03160217905550602082015181600101556040820151816002015560608201518160030160008201518160000160006101000a81548160ff021916908360000b60ff16021790555060208201518160000160016101000a81548160ff021916908360000b60ff16021790555060408201518160000160026101000a81548160ff021916908360000b60ff16021790555060608201518160000160036101000a81548160ff021916908360000b60ff16021790555060808201518160000160046101000a81548160ff021916908360000b60ff16021790555060a08201518160000160056101000a81548160ff021916908360000b60ff16021790555060c08201518160000160066101000a81548160ff021916908360000b60ff16021790555060e08201518160000160076101000a81548160ff021916908315150217905550505060808201518160040160008201518160000160006101000a81548160ff021916908360ff16021790555060208201518160000160016101000a81548160ff021916908360ff160217905550505060a08201518160050160008201518160000160006101000a81548160ff021916908360ff16021790555060208201518160000160016101000a81548160ff021916908360ff160217905550505060c08201518160060160006101000a81548160ff021916908360000b60ff16021790555060e08201518160060160016101000a81548160ff021916908360ff1602179055506101008201518160060160026101000a81548160ff021916908360ff1602179055506101208201518160060160036101000a81548160ff021916908360ff160217905550610140820151816007019080519060200190620003e592919062000478565b5061016082015160088201805461018085015115156101000261ffff1990911660ff909316929092179190911790556101a090910151600990910155506200053c565b600080546001600160a01b038381166001600160a01b0319831681178455604051919092169283917f8be0079c531659141344cd1fd0a4f28419497f9722a3daafe3b4186f6b6457e09190a35050565b82805482825590600052602060002090601f01602090048101928215620005135791602002820160005b83821115620004e257835183826101000a81548160ff021916908360ff1602179055509260200192600101602081600001049283019260010302620004a2565b8015620005115782816101000a81549060ff0219169055600101602081600001049283019260010302620004e2565b505b506200052192915062000525565b5090565b5b8082111562000521576000815560010162000526565b614a02806200054c6000396000f3fe608060405234801561001057600080fd5b50600436106102695760003560e01c80637ddae10311610151578063ce28613f116100c3578063f10bff2b11610087578063f10bff2b146105ac578063f2fde38b146105bf578063f71d96cb146105d2578063f96f55d0146105fe578063fa3993c214610611578063fe23e2df1461062457600080fd5b8063ce28613f14610530578063ce93229714610543578063dc769ee814610556578063e7169ec514610586578063ed8619611461059957600080fd5b8063951fc3fe11610115578063951fc3fe146104b1578063955a015b146104d157806397f34c3f146104e45780639fca1ee1146104f7578063b69071941461050a578063c06fad061461051d57600080fd5b80637ddae103146104545780638214f222146104675780638d491b3e1461047a5780638da5cb5b1461048d578063921d27991461049e57600080fd5b806347d0e3c9116101ea57806365c363f0116101ae57806365c363f0146103ed5780636621a42114610400578063668a7f3b146104135780636d291bbb14610426578063715018a6146104395780637b45c0d41461044157600080fd5b806347d0e3c91461036c578063530116961461037f5780635519f439146103a45780635dc96967146103b757806364db84bf146103da57600080fd5b80631e1de205116102315780631e1de205146103185780631f7b4f3014610320578063336d7d7b14610333578063351dacdf146103465780633deaec2b1461035957600080fd5b80630dd0f5881461026e5780630e73c0241461028357806310a2cd0d146102ac57806310f67fb3146102d75780631b5ac4b5146102f7575b600080fd5b61028161027c3660046134d3565b610637565b005b61029661029136600461350c565b61067a565b6040516102a39190613560565b60405180910390f35b6003546102bf906001600160a01b031681565b6040516001600160a01b0390911681526020016102a3565b6102ea6102e536600461350c565b61069a565b6040516102a39190613609565b61030a61030536600461350c565b610963565b6040519081526020016102a3565b61030a61097f565b61030a61032e36600461350c565b6109f7565b6008546102bf906001600160a01b031681565b610281610354366004613720565b610a53565b6004546102bf906001600160a01b031681565b61030a61037a36600461350c565b610aa8565b61039261038d366004613742565b610ae0565b60405160ff90911681526020016102a3565b61030a6103b23660046138f3565b610b1d565b6103ca6103c5366004613949565b610c79565b60405190151581526020016102a3565b61030a6103e8366004613720565b610d14565b6102816103fb36600461350c565b610d2c565b6102bf61040e36600461350c565b610d84565b610281610421366004613975565b610db9565b610281610434366004613a0c565b610f0a565b61028161136e565b600a546102bf906001600160a01b031681565b6005546102bf906001600160a01b031681565b61030a61047536600461350c565b611382565b6103ca610488366004613a79565b6113fc565b6000546001600160a01b03166102bf565b6102816104ac366004613aad565b6115bd565b6104c46104bf366004613b44565b611645565b6040516102a39190613b71565b6007546102bf906001600160a01b031681565b6103926104f2366004613949565b61176f565b6009546102bf906001600160a01b031681565b610281610518366004613b8f565b61179a565b6006546102bf906001600160a01b031681565b61039261053e366004613bbf565b611845565b61028161055136600461350c565b6118f5565b600b5461056c9060ff8082169161010090041682565b6040805160ff9384168152929091166020830152016102a3565b610281610594366004613bed565b611965565b6102816105a7366004613c31565b6119ee565b61030a6105ba366004613c83565b611b01565b6102816105cd366004613caf565b611b4e565b6105e56105e036600461350c565b611bc7565b6040516102a39d9c9b9a99989796959493929190613cca565b61028161060c366004613720565b611cf1565b61030a61061f366004613c83565b611f71565b610281610632366004613720565b612039565b6007546001600160a01b0316331461066a5760405162461bcd60e51b815260040161066190613d6e565b60405180910390fd5b610675838383612072565b505050565b600081815260026020526040902060609061069490612153565b92915050565b61076d604080516101c081018252600080825260208083018290528284018290528351610100810185528281528082018390528085018390526060808201849052608080830185905260a080840186905260c0840186905260e0840186905291860192909252855180870187528481528084018590529185019190915284518086019095528285529084019190915290919082019081526000602082018190526040820181905260608083018290526080830182905260a083015260c0820181905260e082018190526101009091015290565b600c828154811061078057610780613d9a565b60009182526020808320604080516101c081018252600a90940290910180546001600160a01b0316845260018101548484015260028101548483015281516101008181018452600383015480880b8352818104880b8387015262010000808204890b8487015263010000008083048a0b60608681019190915264010000000084048b0b6080808801919091526501000000000085048c0b60a080890191909152600160301b86048d0b60c0808a019190915260ff600160381b9097048716151560e0808b0191909152938d01989098528951808b018b5260048a015480881682528890048716818d0152918c01919091528851808a018a52600589015480871682528790048616818c0152908b015260068701549a8b900b958a0195909552838a048316948901949094528804811691870191909152950490941661012084015260078401805482518185028101850190935280835293949361014086019383018282801561092c57602002820191906000526020600020906000905b825461010083900a900460ff168152602060019283018181049485019490930390920291018084116108fd5790505b5050509183525050600882015460ff8082166020840152610100909104161515604082015260099091015460609091015292915050565b60008082121561097b5761097682613dc6565b610694565b5090565b600180546000918261099083613de2565b91905055506001546001436109a59190613dfb565b40336040516020016109dc93929190928352602083019190915260601b6bffffffffffffffffffffffff1916604082015260540190565b60405160208183030381529060405280519060200120905090565b600080610a0660016006611845565b60ff1690507ffe34d093a460a16ee5fb374540914d1c734a17502c0c1a87b387c8d6097e1c518382604051610a45929190918252602082015260400190565b60405180910390a192915050565b80600c8381548110610a6757610a67613d9a565b6000918252602082206008600a90920201018054909190610a8c90849060ff16613e0e565b92506101000a81548160ff021916908360ff1602179055505050565b6000600c8281548110610abd57610abd613d9a565b60009182526020909120600a909102016006015462010000900460ff1692915050565b600080610aed8686613dfb565b9050600083610afc8684613e27565b610b069190613e54565b9050610b128782613e68565b979650505050505050565b6008546000906001600160a01b03163314610b6f5760405162461bcd60e51b8152602060048201526012602482015271139bdd081b1bd8989e4818dbdb9d1c9858dd60721b6044820152606401610661565b600c805460018181018084556000938452600a9092027fdf6966c971051c3d54ec59162606531493a51404a002842f56009d7e5cf4a8c7019291610bb39190613dfb565b82546001600160a01b0319166001600160a01b038716178355600180840188905560028401829055600c54919250610bf091889161060c91613dfb565b835160088301805460ff191660ff909216919091179055600654604051630926bc2d60e21b81526001600160a01b039091169063249af0b490610c3b90849088908a90600401613e7b565b600060405180830381600087803b158015610c5557600080fd5b505af1158015610c69573d6000803e3d6000fd5b50929450505050505b9392505050565b600080610c85856109f7565b6040805187815260208101839052908101869052606081018590529091507f75b6a8325595f91135e07382840634226793c68c9e59623da7e10d7ad3d95b959060800160405180910390a180600103610ce2576000915050610c72565b600383610cef8684613e68565b610cf99190613eac565b1315610d09576001915050610c72565b506000949350505050565b600081610d22846004613e27565b610c729190613e68565b6007546001600160a01b03163314610d4357600080fd5b6000600c8281548110610d5857610d58613d9a565b90600052602060002090600a020160060160026101000a81548160ff021916908360ff16021790555050565b6000600c8281548110610d9957610d99613d9a565b60009182526020909120600a90910201546001600160a01b031692915050565b6007546001600160a01b03163314610de35760405162461bcd60e51b815260040161066190613d6e565b60005b60018251610df49190613dfb565b8111610675576000600c838381518110610e1057610e10613d9a565b602002602001015181548110610e2857610e28613d9a565b60009182526020822060048054600a939093029091018082015460405163f9dfbfcb60e01b815292830189905260ff808216602485015261010090910416604483015293506001600160a01b039091169063f9dfbfcb9060640161014060405180830381865afa158015610ea0573d6000803e3d6000fd5b505050506040513d601f19601f82011682018060405250810190610ec49190613ee9565b90508060c0015115610ef557610ef5848481518110610ee557610ee5613d9a565b6020026020010151600180612072565b50508080610f0290613de2565b915050610de6565b6007546001600160a01b03163314610f345760405162461bcd60e51b815260040161066190613d6e565b610f7c6040518060e0016040528060008152602001600015158152602001600060ff168152602001600060ff1681526020016060815260200160608152602001606081525090565b6005826005811115610f9057610f90613fbe565b0361100d5760055460405163c82c37b960e01b8152600481018590526001600160a01b039091169063c82c37b990602401600060405180830381865afa158015610fde573d6000803e3d6000fd5b505050506040513d6000823e601f3d908101601f191682016040526110069190810190614061565b9050611087565b60055460405163e4dc1a8360e01b81526001600160a01b039091169063e4dc1a839061103f9086908690600401614166565b600060405180830381865afa15801561105c573d6000803e3d6000fd5b505050506040513d6000823e601f3d908101601f191682016040526110849190810190614061565b90505b6005546040516336772a9360e21b81526000916001600160a01b03169063d9dcaa4c906110ba908690889060040161417a565b600060405180830381865afa1580156110d7573d6000803e3d6000fd5b505050506040513d6000823e601f3d908101601f191682016040526110ff9190810190614195565b9050816040015160ff16600014801561111d5750606082015160ff16155b156111ae57611149888888888560008151811061113c5761113c613d9a565b6020026020010151612160565b6000805160206149ad8339815191528789848460008151811061116e5761116e613d9a565b602002602001015189604051611188959493929190614290565b60405180910390a160008781526002602052604090206111a89043613033565b50611363565b60006111b9886109f7565b9050826040015160ff166000141580156111da5750826040015160ff168111155b1561125e576111f9898989898660018151811061113c5761113c613d9a565b6000805160206149ad833981519152888a858560018151811061121e5761121e613d9a565b60200260200101518a604051611238959493929190614290565b60405180910390a160008881526002602052604090206112589043613033565b50611361565b606083015160ff161580159061127b5750826060015160ff168110155b156112e65761129a898989898660028151811061113c5761113c613d9a565b6000805160206149ad833981519152888a85856002815181106112bf576112bf613d9a565b60200260200101518a6040516112d9959493929190614290565b60405180910390a1611361565b611300898989898660008151811061113c5761113c613d9a565b6000805160206149ad833981519152888a858560008151811061132557611325613d9a565b60200260200101518a60405161133f959493929190614290565b60405180910390a1600088815260026020526040902061135f9043613033565b505b505b505050505050505050565b61137661303f565b6113806000613099565b565b60008160000361139457506001919050565b816001036113a457506000919050565b816002036113b457506003919050565b816003036113c457506002919050565b60405162461bcd60e51b815260206004820152600d60248201526c2130b2103234b932b1ba34b7b760991b6044820152606401610661565b6007546000906001600160a01b031633146114295760405162461bcd60e51b815260040161066190613d6e565b6000600c848154811061143e5761143e613d9a565b90600052602060002090600a02019050600c848154811061146157611461613d9a565b60009182526020808320600a929092029091016004908101805460058601805460ff92831660ff19821681178355935461ffff199182169094176101009485900484168502179091558a518785018054968d01519184169690921686179216928302919091179055815460405163f9dfbfcb60e01b8152928301889052602483019390935260448201526001600160a01b039091169063f9dfbfcb9060640161014060405180830381865afa15801561151e573d6000803e3d6000fd5b505050506040513d601f19601f820116820180604052508101906115429190613ee9565b5160ff1603610d095760098101546040805191825260208201869052600082820152600483015460ff808216606085015260089190911c166080830152517f1814753a06b465e9bcfcecac84fe4a96f85b9951c514e1429ed058d0f885483a9181900360a00190a16115b3846130e9565b6001915050610c72565b6115c561303f565b600380546001600160a01b03199081166001600160a01b039a8b1617909155600480548216978a169790971790965560088054871695891695909517909455600a80548616938816939093179092556005805485169187169190911790556006805484169186169190911790556007805490921693169290921790915550565b6040805180820190915260008082526020820152826000036116975760405180604001604052806001846000015161167d9190613e0e565b60ff168152602001836020015160ff168152509050610694565b826001036116bb5760405180604001604052808360000151600161167d9190614371565b826002036116f8576040518060400160405280836000015160ff168152602001836020015160016116ec9190614371565b60ff1690529050610694565b82600303611729576040518060400160405280836000015160ff168152602001600184602001516116ec9190613e0e565b6000611734846132a8565b60405160200161174491906143ae565b60405160208183030381529060405290508060405162461bcd60e51b81526004016106619190614415565b60008082600161178086600261450c565b61178a9190613dfb565b901b8516831c9150509392505050565b600a546001600160a01b031633146118055760405162461bcd60e51b815260206004820152602860248201527f4e6f7420616374696f6e7320636f6e7472616374202d206772616e74446174616044820152672a37a83630bcb2b960c11b6064820152608401610661565b80600c838154811061181957611819613d9a565b90600052602060002090600a020160060160038282829054906101000a900460ff16610a8c9190614371565b600180546000918261185683613de2565b919050555060003360015460014361186e9190613dfb565b60405160609390931b6bffffffffffffffffffffffff19166020840152603483019190915240605482015260740160408051601f198184030181529190528051602090910120905060006118c28585613e0e565b6118cd906001614371565b90508460ff168160ff16836118e29190614518565b6118ec9190613e68565b95945050505050565b6007546001600160a01b0316331461190c57600080fd5b600c818154811061191f5761191f613d9a565b60009182526020909120600a90910201600601805462010000900460ff169060026119498361452c565b91906101000a81548160ff021916908360ff1602179055505050565b6007546001600160a01b0316331461198f5760405162461bcd60e51b815260040161066190613d6e565b60005b82518110156106755781600c8483815181106119b0576119b0613d9a565b6020026020010151815481106119c8576119c8613d9a565b600091825260209091206009600a909202010155806119e681613de2565b915050611992565b600a546001600160a01b03163314611a565760405162461bcd60e51b815260206004820152602560248201527f4e6f7420616374696f6e7320636f6e7472616374202d206578744170706c794560448201526419999958dd60da1b6064820152608401610661565b600580546040516336772a9360e21b81526000926001600160a01b039092169163d9dcaa4c91611a8b9190879060040161417a565b600060405180830381865afa158015611aa8573d6000803e3d6000fd5b505050506040513d6000823e601f3d908101601f19168201604052611ad09190810190614195565b8281518110611ae157611ae1613d9a565b60200260200101519050611af88787878785612160565b50505050505050565b600080611b21836000015160000b856000015160000b6103059190613eac565b90506000611b42846020015160000b866020015160000b6103059190613eac565b90506118ec8183613e68565b611b5661303f565b6001600160a01b038116611bbb5760405162461bcd60e51b815260206004820152602660248201527f4f776e61626c653a206e6577206f776e657220697320746865207a65726f206160448201526564647265737360d01b6064820152608401610661565b611bc481613099565b50565b600c8181548110611bd757600080fd5b60009182526020808320600a9092029091018054600182015460028301546040805161010081810183526003870154808a0b83528181048a0b838a0152620100008082048b0b8486015263010000008083048c0b606086015264010000000083048c0b60808601526501000000000083048c0b60a0860152600160301b83048c0b60c086015260ff600160381b9093048316151560e08601528551808701875260048b015480851682528590048416818d0152865180880190975260058b0154808516885285900484169b87019b909b5260068a015460088b01546009909b01546001600160a01b03909a169d50979b969a9499949895979687900b9684810484169692810484169591900483169381841693910416908d565b600354604051634810bc5960e01b8152600481018490526000916001600160a01b031690634810bc599060240161020060405180830381865afa158015611d3c573d6000803e3d6000fd5b505050506040513d601f19601f82011682018060405250810190611d609190614625565b606001516006546040516347ef26b160e01b8152600481018590529192506000916001600160a01b03909116906347ef26b19060240161010060405180830381865afa158015611db4573d6000803e3d6000fd5b505050506040513d601f19601f82011682018060405250810190611dd891906146cc565b90506000600c8481548110611def57611def613d9a565b90600052602060002090600a0201905081600001518360000151611e1391906146e9565b60038201805460ff191660ff9290921691909117905560208281015190840151611e3d91906146e9565b60038201805460ff929092166101000261ff001990921691909117905560408083015190840151611e6e91906146e9565b60038201805460ff92909216620100000262ff00001990921691909117905560608083015190840151611ea191906146e9565b60038201805460ff9290921663010000000263ff0000001990921691909117905560808083015190840151611ed691906146e9565b60038201805460ff929092166401000000000264ff000000001990921691909117905560a08083015190840151611f0d91906146e9565b60038201805460ff92909216650100000000000265ff00000000001990921691909117905560c08083015190840151611f4691906146e9565b6003909101805460ff92909216600160301b0266ff0000000000001990921691909117905550505050565b80518251600091611f819161470a565b60000b600103611f9357506000610694565b81518351611fa1919061470a565b60000b19611fb157506001610694565b81602001518360200151611fc5919061470a565b60000b19611fd557506002610694565b81602001518360200151611fe9919061470a565b60000b600103611ffb57506003610694565b60405162461bcd60e51b8152602060048201526013602482015272115c9c9bdc8e88139bdd0818591a9858d95b9d606a1b6044820152606401610661565b80600c838154811061204d5761204d613d9a565b6000918252602082206008600a90920201018054909190610a8c90849060ff16614371565b6000600c848154811061208757612087613d9a565b6000918252602082206006600a909202019081018054919350859290916120b1908490830b6146e9565b825460ff9182166101009390930a92830291909202199091161790555060038101546006820154600091820b910b1261214d57600981015460408051918252602082018690528101849052600482015460ff808216606084015260089190911c1660808201527f1814753a06b465e9bcfcecac84fe4a96f85b9951c514e1429ed058d0f885483a9060a00160405180910390a161214d846130e9565b50505050565b60606000610c72836133b0565b60005b815181101561302b576121a46040518060400160405280601681526020017520b838363cb4b7339032b33332b1ba10373ab6b132b960511b8152508261340c565b6000600c87815481106121b9576121b9613d9a565b60009182526020909120600a90910201905060018383815181106121df576121df613d9a565b60200260200101516000015160168111156121fc576121fc613fbe565b5050600283838151811061221257612212613d9a565b602002602001015160000151601681111561222f5761222f613fbe565b036122755782828151811061224657612246613d9a565b602002602001015160200151600061225e919061470a565b60068201805460ff191660ff929092169190911790555b600383838151811061228957612289613d9a565b60200260200101516000015160168111156122a6576122a6613fbe565b036123135760098101546040805191825260208201899052600082820152600483015460ff808216606085015260089190911c166080830152517f1814753a06b465e9bcfcecac84fe4a96f85b9951c514e1429ed058d0f885483a9181900360a00190a1612313876130e9565b600483838151811061232757612327613d9a565b602002602001015160000151601681111561234457612344613fbe565b036123c4576004805485516020870151604051637f1b46bd60e11b815293840189905260ff9182166024850152166044830152600160648301526001600160a01b03169063fe368d7a90608401600060405180830381600087803b1580156123ab57600080fd5b505af11580156123bf573d6000803e3d6000fd5b505050505b60058383815181106123d8576123d8613d9a565b60200260200101516000015160168111156123f5576123f5613fbe565b5050600683838151811061240b5761240b613d9a565b602002602001015160000151601681111561242857612428613fbe565b0361249d5782828151811061243f5761243f613d9a565b6020908102919091018101510151600682018054600090612463908490830b61470a565b825460ff9182166101009390930a9283029190920219909116179055506006810154600090810b121561249d5760068101805460ff191690555b60078383815181106124b1576124b1613d9a565b60200260200101516000015160168111156124ce576124ce613fbe565b505060088383815181106124e4576124e4613d9a565b602002602001015160000151601681111561250157612501613fbe565b0361252f5761252f8784848151811061251c5761251c613d9a565b6020026020010151602001516001612072565b600983838151811061254357612543613d9a565b602002602001015160000151601681111561256057612560613fbe565b0361258e5761258e8784848151811061257b5761257b613d9a565b6020026020010151602001516000612072565b600a8383815181106125a2576125a2613d9a565b60200260200101516000015160168111156125bf576125bf613fbe565b036129655760008383815181106125d8576125d8613d9a565b6020026020010151602001519050600b60168111156125f9576125f9613fbe565b84612605856001613e68565b8151811061261557612615613d9a565b602002602001015160000151601681111561263257612632613fbe565b1461263f5761263f61472b565b60008460018151811061265457612654613d9a565b602002602001015160200151600881111561267157612671613fbe565b9050600c85612681866002613e68565b8151811061269157612691613d9a565b60200260200101516000015160168111156126ae576126ae613fbe565b146126bb576126bb61472b565b6000856002815181106126d0576126d0613d9a565b60200260200101516020015160038111156126ed576126ed613fbe565b60048054895160208b01516040516315636a4d60e01b81529384018d905260ff91821660248501521660448301529192506000916001600160a01b0316906315636a4d90606401608060405180830381865afa158015612751573d6000803e3d6000fd5b505050506040513d601f19601f820116820180604052508101906127759190614741565b9050600382600381111561278b5761278b613fbe565b036128895760005b600481101561287e578181600481106127ae576127ae613d9a565b6020020151151560010361286c5760005b8581101561286a5760006127d3838c611645565b9050600760009054906101000a90046001600160a01b03166001600160a01b0316631cef40f68e88846000015185602001516040518563ffffffff1660e01b815260040161282494939291906147aa565b600060405180830381600087803b15801561283e57600080fd5b505af1158015612852573d6000803e3d6000fd5b5050505050808061286290613de2565b9150506127bf565b505b8061287681613de2565b915050612793565b50505050505061302b565b60005b8481101561287e576007546001600160a01b0316631cef40f68c8660018760038111156128bb576128bb613fbe565b146128cd5760058a015460ff166128d0565b8c515b60018860038111156128e4576128e4613fbe565b146128fb5760058b0154610100900460ff16612901565b8d602001515b6040518563ffffffff1660e01b815260040161292094939291906147aa565b600060405180830381600087803b15801561293a57600080fd5b505af115801561294e573d6000803e3d6000fd5b50505050808061295d90613de2565b91505061288c565b600d83838151811061297957612979613d9a565b602002602001015160000151601681111561299657612996613fbe565b036129c2576129c2878484815181106129b1576129b1613d9a565b60200260200101516020015161179a565b600e8383815181106129d6576129d6613d9a565b60200260200101516000015160168111156129f3576129f3613fbe565b5050600f838381518110612a0957612a09613d9a565b6020026020010151600001516016811115612a2657612a26613fbe565b03612c4a576000838381518110612a3f57612a3f613d9a565b6020908102919091018101510151600654604051633841fae160e01b8152600481018b90529192506000916001600160a01b0390911690633841fae190602401600060405180830381865afa158015612a9c573d6000803e3d6000fd5b505050506040513d6000823e601f3d908101601f19168201604052612ac491908101906147e0565b805190915015612c4757600060018251612ade9190613dfb565b90505b8015612b7d576000612af4600083611845565b9050828160ff1681518110612b0b57612b0b613d9a565b6020026020010151838381518110612b2557612b25613d9a565b6020026020010151848481518110612b3f57612b3f613d9a565b60200260200101858460ff1681518110612b5b57612b5b613d9a565b6020908102919091010191909152525080612b7581614865565b915050612ae1565b5060005b8151851015612c455760065482516001600160a01b0390911690635f09c782908c90859085908110612bb557612bb5613d9a565b60200260200101516040518363ffffffff1660e01b8152600401612be3929190918252602082015260400190565b600060405180830381600087803b158015612bfd57600080fd5b505af1158015612c11573d6000803e3d6000fd5b50505050612c208a6001610a53565b82612c2a81614865565b9350508215612c455780612c3d81613de2565b915050612b81565b505b50505b6011838381518110612c5e57612c5e613d9a565b6020026020010151600001516016811115612c7b57612c7b613fbe565b03612d96576005838381518110612c9457612c94613d9a565b60200260200101516020015103612d965760048054604051632fc4a8f360e11b815291820187905260009182916001600160a01b031690635f8951e6906024016040805180830381865afa158015612cf0573d6000803e3d6000fd5b505050506040513d601f19601f82011682018060405250810190612d14919061487c565b60075460408051808201825260ff8086168252841660208201529051631751422560e01b81529395509193506001600160a01b031691631751422591612d61918c91908e906004016148a0565b600060405180830381600087803b158015612d7b57600080fd5b505af1158015612d8f573d6000803e3d6000fd5b5050505050505b6012838381518110612daa57612daa613d9a565b6020026020010151600001516016811115612dc757612dc7613fbe565b50506013838381518110612ddd57612ddd613d9a565b6020026020010151600001516016811115612dfa57612dfa613fbe565b50506015838381518110612e1057612e10613d9a565b6020026020010151600001516016811115612e2d57612e2d613fbe565b03612fe55760005b6004811015612fe3576004805486516020880151604051630dd43b9b60e31b81529384018a905260ff9182166024850152166044830152606482018390526000916001600160a01b0390911690636ea1dcd890608401606060405180830381865afa158015612ea8573d6000803e3d6000fd5b505050506040513d601f19601f82011682018060405250810190612ecc91906148d2565b9050600181604001516004811115612ee657612ee6613fbe565b1480612f075750600281604001516004811115612f0557612f05613fbe565b145b80612f275750600381604001516004811115612f2557612f25613fbe565b145b15612fd057600460009054906101000a90046001600160a01b03166001600160a01b0316635921522388886000015189602001518660018b8b81518110612f7057612f70613d9a565b6020026020010151602001516040518763ffffffff1660e01b8152600401612f9d96959493929190614947565b600060405180830381600087803b158015612fb757600080fd5b505af1158015612fcb573d6000803e3d6000fd5b505050505b5080612fdb81613de2565b915050612e35565b505b6014838381518110612ff957612ff9613d9a565b602002602001015160000151601681111561301657613016613fbe565b5050508061302381613de2565b915050612163565b505050505050565b6000610c728383613455565b6000546001600160a01b031633146113805760405162461bcd60e51b815260206004820181905260248201527f4f776e61626c653a2063616c6c6572206973206e6f7420746865206f776e65726044820152606401610661565b600080546001600160a01b038381166001600160a01b0319831681178455604051919092169283917f8be0079c531659141344cd1fd0a4f28419497f9722a3daafe3b4186f6b6457e09190a35050565b6000600c82815481106130fe576130fe613d9a565b60009182526020909120600654600a90920201600981015460048083015460405163268f1d4d60e01b8152918201929092526024810186905260ff808316604483015261010090920490911660648201529092506001600160a01b039091169063268f1d4d90608401600060405180830381600087803b15801561318157600080fd5b505af1158015613195573d6000803e3d6000fd5b50505060068201805460ff1990811690915560088301805490911690555060018101546131c29083611cf1565b600354600c80546001600160a01b0390921691636d6ba7569190859081106131ec576131ec613d9a565b90600052602060002090600a0201600101546040518263ffffffff1660e01b815260040161321c91815260200190565b600060405180830381600087803b15801561323657600080fd5b505af115801561324a573d6000803e3d6000fd5b50505050600b600c838154811061326357613263613d9a565b600091825260209091208254600a90920201600401805460ff92831660ff19821681178355935461ffff19909116909317610100938490049092169092021790555050565b6060816000036132cf5750506040805180820190915260018152600360fc1b602082015290565b8160005b81156132f957806132e381613de2565b91506132f29050600a83613e54565b91506132d3565b6000816001600160401b0381111561331357613313613790565b6040519080825280601f01601f19166020018201604052801561333d576020820181803683370190505b5090505b84156133a857613352600183613dfb565b915061335f600a86614518565b61336a906030613e68565b60f81b81838151811061337f5761337f613d9a565b60200101906001600160f81b031916908160001a9053506133a1600a86613e54565b9450613341565b949350505050565b60608160000180548060200260200160405190810160405280929190818152602001828054801561340057602002820191906000526020600020905b8154815260200190600101908083116133ec575b50505050509050919050565b613451828260405160240161342292919061498a565b60408051601f198184030181529190526020810180516001600160e01b0316632d839cb360e21b1790526134a4565b5050565b600081815260018301602052604081205461349c57508154600181810184556000848152602080822090930184905584548482528286019093526040902091909155610694565b506000610694565b80516a636f6e736f6c652e6c6f67602083016000808483855afa5050505050565b8015158114611bc457600080fd5b6000806000606084860312156134e857600080fd5b83359250602084013591506040840135613501816134c5565b809150509250925092565b60006020828403121561351e57600080fd5b5035919050565b600081518084526020808501945080840160005b8381101561355557815187529582019590820190600101613539565b509495945050505050565b602081526000610c726020830184613525565b8051600081810b84526020830151810b60208501526040830151810b60408501526060830151810b60608501526080830151810b608085015260a0830151810b60a085015260c0830151810b60c0850152505060e0810151151560e08301525050565b600081518084526020808501945080840160005b8381101561355557815160ff16875295820195908201906001016135ea565b602081526136236020820183516001600160a01b03169052565b60208201516040820152604082015160608201526000606083015161364b6080840182613573565b50608083015161018061367081850183805160ff908116835260209182015116910152565b60a0850151805160ff9081166101c087015260209091015181166101e086015260c086015160000b61020086015260e086015181166102208601526101008601518116610240860152610120860151166102608501526101408501516102e061028086018190529092506136e86103008601846135d6565b92506101608601516137006102a087018260ff169052565b509085015115156102c08501526101a09094015192909301919091525090565b6000806040838503121561373357600080fd5b50508035926020909101359150565b6000806000806080858703121561375857600080fd5b5050823594602084013594506040840135936060013592509050565b80356001600160a01b038116811461378b57600080fd5b919050565b634e487b7160e01b600052604160045260246000fd5b604080519081016001600160401b03811182821017156137c8576137c8613790565b60405290565b60405160e081016001600160401b03811182821017156137c8576137c8613790565b60405161012081016001600160401b03811182821017156137c8576137c8613790565b604051608081016001600160401b03811182821017156137c8576137c8613790565b604051601f8201601f191681016001600160401b038111828210171561385d5761385d613790565b604052919050565b60006001600160401b0382111561387e5761387e613790565b5060051b60200190565b600082601f83011261389957600080fd5b813560206138ae6138a983613865565b613835565b82815260059290921b840181019181810190868411156138cd57600080fd5b8286015b848110156138e857803583529183019183016138d1565b509695505050505050565b60008060006060848603121561390857600080fd5b8335925061391860208501613774565b915060408401356001600160401b0381111561393357600080fd5b61393f86828701613888565b9150509250925092565b60008060006060848603121561395e57600080fd5b505081359360208301359350604090920135919050565b6000806040838503121561398857600080fd5b8235915060208301356001600160401b038111156139a557600080fd5b6139b185828601613888565b9150509250929050565b60ff81168114611bc457600080fd5b6000604082840312156139dc57600080fd5b6139e46137a6565b905081356139f1816139bb565b81526020820135613a01816139bb565b602082015292915050565b6000806000806000806000610100888a031215613a2857600080fd5b87359650602088013595506040880135945060608801359350613a4e8960808a016139ca565b925060c0880135915060e088013560068110613a6957600080fd5b8091505092959891949750929550565b600080600060808486031215613a8e57600080fd5b613a9885856139ca565b95604085013595506060909401359392505050565b600080600080600080600080610100898b031215613aca57600080fd5b613ad389613774565b9750613ae160208a01613774565b9650613aef60408a01613774565b9550613afd60608a01613774565b9450613b0b60808a01613774565b9350613b1960a08a01613774565b9250613b2760c08a01613774565b9150613b3560e08a01613774565b90509295985092959890939650565b60008060608385031215613b5757600080fd5b82359150613b6884602085016139ca565b90509250929050565b604081016106948284805160ff908116835260209182015116910152565b60008060408385031215613ba257600080fd5b823591506020830135613bb4816139bb565b809150509250929050565b60008060408385031215613bd257600080fd5b8235613bdd816139bb565b91506020830135613bb4816139bb565b60008060408385031215613c0057600080fd5b82356001600160401b03811115613c1657600080fd5b613c2285828601613888565b95602094909401359450505050565b60008060008060008060e08789031215613c4a57600080fd5b863595506020870135945060408701359350613c6988606089016139ca565b925060a0870135915060c087013590509295509295509295565b60008060808385031215613c9657600080fd5b613ca084846139ca565b9150613b6884604085016139ca565b600060208284031215613cc157600080fd5b610c7282613774565b6001600160a01b038e168152602081018d9052604081018c90526102c08101613cf6606083018d613573565b8a5160ff90811661016084015260209b8c015181166101808401528a5181166101a084015299909a015189166101c082015260009790970b6101e08801529487166102008701529286166102208601529085166102408501529093166102608301529115156102808201526102a00152949350505050565b602080825260129082015271139bdd0819d85b595cc818dbdb9d1c9858dd60721b604082015260600190565b634e487b7160e01b600052603260045260246000fd5b634e487b7160e01b600052601160045260246000fd5b6000600160ff1b8201613ddb57613ddb613db0565b5060000390565b600060018201613df457613df4613db0565b5060010190565b8181038181111561069457610694613db0565b60ff828116828216039081111561069457610694613db0565b808202811582820484141761069457610694613db0565b634e487b7160e01b600052601260045260246000fd5b600082613e6357613e63613e3e565b500490565b8082018082111561069457610694613db0565b838152606060208201526000613e946060830185613525565b905060018060a01b0383166040830152949350505050565b8181036000831280158383131683831282161715613ecc57613ecc613db0565b5092915050565b805161378b816139bb565b805161378b816134c5565b60006101408284031215613efc57600080fd5b613f046137ce565b8251613f0f816139bb565b8152602083810151613f20816139bb565b82820152605f84018513613f3357600080fd5b613f3b613813565b8060c0860187811115613f4d57600080fd5b604087015b81811015613f695780518452928401928401613f52565b50816040860152613f7981613ede565b606086015250505050613f8e60e08401613ede565b6080820152613fa06101008401613ede565b60a0820152613fb26101208401613ede565b60c08201529392505050565b634e487b7160e01b600052602160045260246000fd5b600082601f830112613fe557600080fd5b81516020613ff56138a983613865565b82815260069290921b8401810191818101908684111561401457600080fd5b8286015b848110156138e857604081890312156140315760008081fd5b6140396137a6565b8151601781106140495760008081fd5b81528185015185820152835291830191604001614018565b60006020828403121561407357600080fd5b81516001600160401b038082111561408a57600080fd5b9083019060e0828603121561409e57600080fd5b6140a66137ce565b825181526140b660208401613ede565b60208201526140c760408401613ed3565b60408201526140d860608401613ed3565b60608201526080830151828111156140ef57600080fd5b6140fb87828601613fd4565b60808301525060a08301518281111561411357600080fd5b61411f87828601613fd4565b60a08301525060c08301518281111561413757600080fd5b61414387828601613fd4565b60c08301525095945050505050565b6006811061416257614162613fbe565b9052565b82815260408101610c726020830184614152565b604081016141888285614152565b8260208301529392505050565b600060208083850312156141a857600080fd5b82516001600160401b03808211156141bf57600080fd5b818501915085601f8301126141d357600080fd5b81516141e16138a982613865565b81815260059190911b8301840190848101908883111561420057600080fd5b8585015b838110156142385780518581111561421c5760008081fd5b61422a8b89838a0101613fd4565b845250918601918601614204565b5098975050505050505050565b600081518084526020808501945080840160005b8381101561355557815180516017811061427557614275613fbe565b88528301518388015260409096019590820190600101614259565b85815284602082015260c06040820152835160c08201526020840151151560e082015260ff604085015116610100820152600060608501516142d861012084018260ff169052565b50608085015160e06101408401526142f46101a0840182614245565b905060a086015160bf1980858403016101608601526143138383614245565b925060c088015191508085840301610180860152506143328282614245565b91505082810360608401526143478186614245565b845160ff908116608086015260208601511660a085015291506143679050565b9695505050505050565b60ff818116838216019081111561069457610694613db0565b60005b838110156143a557818101518382015260200161438d565b50506000910152565b72024b73b30b634b2103234b932b1ba34b7b71d1606d1b8152600082516143dc81601385016020870161438a565b9190910160130192915050565b6000815180845261440181602086016020860161438a565b601f01601f19169290920160200192915050565b602081526000610c7260208301846143e9565b600181815b8085111561446357816000190482111561444957614449613db0565b8085161561445657918102915b93841c939080029061442d565b509250929050565b60008261447a57506001610694565b8161448757506000610694565b816001811461449d57600281146144a7576144c3565b6001915050610694565b60ff8411156144b8576144b8613db0565b50506001821b610694565b5060208310610133831016604e8410600b84101617156144e6575081810a610694565b6144f08383614428565b806000190482111561450457614504613db0565b029392505050565b6000610c72838361446b565b60008261452757614527613e3e565b500690565b600060ff821660ff810361454257614542613db0565b60010192915050565b8051600081900b811461378b57600080fd5b600061010080838503121561457157600080fd5b604051908101906001600160401b038211818310171561459357614593613790565b816040528092506145a38461454b565b81526145b16020850161454b565b60208201526145c26040850161454b565b60408201526145d36060850161454b565b60608201526145e46080850161454b565b60808201526145f560a0850161454b565b60a082015261460660c0850161454b565b60c082015260e0840151915061461b826134c5565b60e0015292915050565b6000610200828403121561463857600080fd5b6146406137f0565b825181526020830151602082015260408301516040820152614665846060850161455d565b60608201526146776101608401613ed3565b60808201526146896101808401613ed3565b60a082015261469b6101a08401613ed3565b60c08201526146ad6101c08401613ed3565b60e08201526146bf6101e08401613ede565b6101008201529392505050565b600061010082840312156146df57600080fd5b610c72838361455d565b600081810b9083900b01607f8113607f198212171561069457610694613db0565b600082810b9082900b03607f198112607f8213171561069457610694613db0565b634e487b7160e01b600052600160045260246000fd5b60006080828403121561475357600080fd5b82601f83011261476257600080fd5b61476a613813565b80608084018581111561477c57600080fd5b845b8181101561479f578051614791816134c5565b84526020938401930161477e565b509095945050505050565b84815260808101600985106147c1576147c1613fbe565b602082019490945260ff92831660408201529116606090910152919050565b600060208083850312156147f357600080fd5b82516001600160401b0381111561480957600080fd5b8301601f8101851361481a57600080fd5b80516148286138a982613865565b81815260059190911b8201830190838101908783111561484757600080fd5b928401925b82841015610b125783518252928401929084019061484c565b60008161487457614874613db0565b506000190190565b6000806040838503121561488f57600080fd5b505080516020909101519092909150565b838152608081016148c46020830185805160ff908116835260209182015116910152565b826060830152949350505050565b6000606082840312156148e457600080fd5b604051606081018181106001600160401b038211171561490657614906613790565b6040528251614914816139bb565b81526020830151614924816139bb565b602082015260408301516005811061493b57600080fd5b60408201529392505050565b86815260ff8681166020830152851660408201526060810184905260c081016005841061497657614976613fbe565b608082019390935260a00152949350505050565b60408152600061499d60408301856143e9565b9050826020830152939250505056fe0d8334653668b057f97ab0194d84efdd8d4b95b9fc457e80f4b710081afb1ff6a264697066735822122066bb631ce5fc2c483b51a65489d2cae25837c3cb59f994f63b38bf225a0bb35864736f6c63430008110033",
  "devdoc": {
    "kind": "dev",
    "methods": {
      "owner()": {
        "details": "Returns the address of the current owner."
      },
      "renounceOwnership()": {
        "details": "Leaves the contract without owner. It will not be possible to call `onlyOwner` functions anymore. Can only be called by the current owner. NOTE: Renouncing ownership will leave the contract without an owner, thereby removing any functionality that is only available to the owner."
      },
      "transferOwnership(address)": {
        "details": "Transfers ownership of the contract to a new account (`newOwner`). Can only be called by the current owner."
      }
    },
    "version": 1
  },
  "userdoc": {
    "kind": "user",
    "methods": {},
    "version": 1
  },
  "storageLayout": {
    "storage": [
      {
        "astId": 7,
        "contract": "contracts/BCPlayers.sol:BCPlayers",
        "label": "_owner",
        "offset": 0,
        "slot": "0",
        "type": "t_address"
      },
      {
        "astId": 20570,
        "contract": "contracts/BCPlayers.sol:BCPlayers",
        "label": "TODO_randomSeed",
        "offset": 0,
        "slot": "1",
        "type": "t_uint256"
      },
      {
        "astId": 20575,
        "contract": "contracts/BCPlayers.sol:BCPlayers",
        "label": "gameToEventBlocks",
        "offset": 0,
        "slot": "2",
        "type": "t_mapping(t_uint256,t_struct(UintSet)3021_storage)"
      },
      {
        "astId": 18413,
        "contract": "contracts/BCPlayers.sol:BCPlayers",
        "label": "chars",
        "offset": 0,
        "slot": "3",
        "type": "t_contract(CharInterface)18201"
      },
      {
        "astId": 18416,
        "contract": "contracts/BCPlayers.sol:BCPlayers",
        "label": "maps",
        "offset": 0,
        "slot": "4",
        "type": "t_contract(MapInterface)18334"
      },
      {
        "astId": 18419,
        "contract": "contracts/BCPlayers.sol:BCPlayers",
        "label": "bcEvents",
        "offset": 0,
        "slot": "5",
        "type": "t_contract(EventsInterface)18179"
      },
      {
        "astId": 18422,
        "contract": "contracts/BCPlayers.sol:BCPlayers",
        "label": "items",
        "offset": 0,
        "slot": "6",
        "type": "t_contract(ItemsInterface)18379"
      },
      {
        "astId": 18425,
        "contract": "contracts/BCPlayers.sol:BCPlayers",
        "label": "games",
        "offset": 0,
        "slot": "7",
        "type": "t_contract(GamesInterface)18402"
      },
      {
        "astId": 18427,
        "contract": "contracts/BCPlayers.sol:BCPlayers",
        "label": "lobbiesAddress",
        "offset": 0,
        "slot": "8",
        "type": "t_address"
      },
      {
        "astId": 18429,
        "contract": "contracts/BCPlayers.sol:BCPlayers",
        "label": "charsAddress",
        "offset": 0,
        "slot": "9",
        "type": "t_address"
      },
      {
        "astId": 18431,
        "contract": "contracts/BCPlayers.sol:BCPlayers",
        "label": "actionsAddress",
        "offset": 0,
        "slot": "10",
        "type": "t_address"
      },
      {
        "astId": 18505,
        "contract": "contracts/BCPlayers.sol:BCPlayers",
        "label": "StartLocation",
        "offset": 0,
        "slot": "11",
        "type": "t_struct(Position)20346_storage"
      },
      {
        "astId": 18509,
        "contract": "contracts/BCPlayers.sol:BCPlayers",
        "label": "players",
        "offset": 0,
        "slot": "12",
        "type": "t_array(t_struct(Player)20317_storage)dyn_storage"
      }
    ],
    "types": {
      "t_address": {
        "encoding": "inplace",
        "label": "address",
        "numberOfBytes": "20"
      },
      "t_array(t_bytes32)dyn_storage": {
        "base": "t_bytes32",
        "encoding": "dynamic_array",
        "label": "bytes32[]",
        "numberOfBytes": "32"
      },
      "t_array(t_struct(Player)20317_storage)dyn_storage": {
        "base": "t_struct(Player)20317_storage",
        "encoding": "dynamic_array",
        "label": "struct BCTypes.Player[]",
        "numberOfBytes": "32"
      },
      "t_array(t_uint8)dyn_storage": {
        "base": "t_uint8",
        "encoding": "dynamic_array",
        "label": "uint8[]",
        "numberOfBytes": "32"
      },
      "t_bool": {
        "encoding": "inplace",
        "label": "bool",
        "numberOfBytes": "1"
      },
      "t_bytes32": {
        "encoding": "inplace",
        "label": "bytes32",
        "numberOfBytes": "32"
      },
      "t_contract(CharInterface)18201": {
        "encoding": "inplace",
        "label": "contract CharInterface",
        "numberOfBytes": "20"
      },
      "t_contract(EventsInterface)18179": {
        "encoding": "inplace",
        "label": "contract EventsInterface",
        "numberOfBytes": "20"
      },
      "t_contract(GamesInterface)18402": {
        "encoding": "inplace",
        "label": "contract GamesInterface",
        "numberOfBytes": "20"
      },
      "t_contract(ItemsInterface)18379": {
        "encoding": "inplace",
        "label": "contract ItemsInterface",
        "numberOfBytes": "20"
      },
      "t_contract(MapInterface)18334": {
        "encoding": "inplace",
        "label": "contract MapInterface",
        "numberOfBytes": "20"
      },
      "t_int8": {
        "encoding": "inplace",
        "label": "int8",
        "numberOfBytes": "1"
      },
      "t_mapping(t_bytes32,t_uint256)": {
        "encoding": "mapping",
        "key": "t_bytes32",
        "label": "mapping(bytes32 => uint256)",
        "numberOfBytes": "32",
        "value": "t_uint256"
      },
      "t_mapping(t_uint256,t_struct(UintSet)3021_storage)": {
        "encoding": "mapping",
        "key": "t_uint256",
        "label": "mapping(uint256 => struct EnumerableSet.UintSet)",
        "numberOfBytes": "32",
        "value": "t_struct(UintSet)3021_storage"
      },
      "t_struct(Player)20317_storage": {
        "encoding": "inplace",
        "label": "struct BCTypes.Player",
        "members": [
          {
            "astId": 20286,
            "contract": "contracts/BCPlayers.sol:BCPlayers",
            "label": "owner",
            "offset": 0,
            "slot": "0",
            "type": "t_address"
          },
          {
            "astId": 20288,
            "contract": "contracts/BCPlayers.sol:BCPlayers",
            "label": "characterId",
            "offset": 0,
            "slot": "1",
            "type": "t_uint256"
          },
          {
            "astId": 20290,
            "contract": "contracts/BCPlayers.sol:BCPlayers",
            "label": "id",
            "offset": 0,
            "slot": "2",
            "type": "t_uint256"
          },
          {
            "astId": 20293,
            "contract": "contracts/BCPlayers.sol:BCPlayers",
            "label": "currentTraits",
            "offset": 0,
            "slot": "3",
            "type": "t_struct(Traits)20484_storage"
          },
          {
            "astId": 20296,
            "contract": "contracts/BCPlayers.sol:BCPlayers",
            "label": "position",
            "offset": 0,
            "slot": "4",
            "type": "t_struct(Position)20346_storage"
          },
          {
            "astId": 20299,
            "contract": "contracts/BCPlayers.sol:BCPlayers",
            "label": "lastPos",
            "offset": 0,
            "slot": "5",
            "type": "t_struct(Position)20346_storage"
          },
          {
            "astId": 20301,
            "contract": "contracts/BCPlayers.sol:BCPlayers",
            "label": "healthDmgTaken",
            "offset": 0,
            "slot": "6",
            "type": "t_int8"
          },
          {
            "astId": 20303,
            "contract": "contracts/BCPlayers.sol:BCPlayers",
            "label": "armorDmgTaken",
            "offset": 1,
            "slot": "6",
            "type": "t_uint8"
          },
          {
            "astId": 20305,
            "contract": "contracts/BCPlayers.sol:BCPlayers",
            "label": "actionsTaken",
            "offset": 2,
            "slot": "6",
            "type": "t_uint8"
          },
          {
            "astId": 20307,
            "contract": "contracts/BCPlayers.sol:BCPlayers",
            "label": "dataTokens",
            "offset": 3,
            "slot": "6",
            "type": "t_uint8"
          },
          {
            "astId": 20310,
            "contract": "contracts/BCPlayers.sol:BCPlayers",
            "label": "currentEffects",
            "offset": 0,
            "slot": "7",
            "type": "t_array(t_uint8)dyn_storage"
          },
          {
            "astId": 20312,
            "contract": "contracts/BCPlayers.sol:BCPlayers",
            "label": "numItemsHeld",
            "offset": 0,
            "slot": "8",
            "type": "t_uint8"
          },
          {
            "astId": 20314,
            "contract": "contracts/BCPlayers.sol:BCPlayers",
            "label": "dead",
            "offset": 1,
            "slot": "8",
            "type": "t_bool"
          },
          {
            "astId": 20316,
            "contract": "contracts/BCPlayers.sol:BCPlayers",
            "label": "gameId",
            "offset": 0,
            "slot": "9",
            "type": "t_uint256"
          }
        ],
        "numberOfBytes": "320"
      },
      "t_struct(Position)20346_storage": {
        "encoding": "inplace",
        "label": "struct BCTypes.Position",
        "members": [
          {
            "astId": 20343,
            "contract": "contracts/BCPlayers.sol:BCPlayers",
            "label": "row",
            "offset": 0,
            "slot": "0",
            "type": "t_uint8"
          },
          {
            "astId": 20345,
            "contract": "contracts/BCPlayers.sol:BCPlayers",
            "label": "col",
            "offset": 1,
            "slot": "0",
            "type": "t_uint8"
          }
        ],
        "numberOfBytes": "32"
      },
      "t_struct(Set)2563_storage": {
        "encoding": "inplace",
        "label": "struct EnumerableSet.Set",
        "members": [
          {
            "astId": 2558,
            "contract": "contracts/BCPlayers.sol:BCPlayers",
            "label": "_values",
            "offset": 0,
            "slot": "0",
            "type": "t_array(t_bytes32)dyn_storage"
          },
          {
            "astId": 2562,
            "contract": "contracts/BCPlayers.sol:BCPlayers",
            "label": "_indexes",
            "offset": 0,
            "slot": "1",
            "type": "t_mapping(t_bytes32,t_uint256)"
          }
        ],
        "numberOfBytes": "64"
      },
      "t_struct(Traits)20484_storage": {
        "encoding": "inplace",
        "label": "struct BCTypes.Traits",
        "members": [
          {
            "astId": 20469,
            "contract": "contracts/BCPlayers.sol:BCPlayers",
            "label": "health",
            "offset": 0,
            "slot": "0",
            "type": "t_int8"
          },
          {
            "astId": 20471,
            "contract": "contracts/BCPlayers.sol:BCPlayers",
            "label": "carry",
            "offset": 1,
            "slot": "0",
            "type": "t_int8"
          },
          {
            "astId": 20473,
            "contract": "contracts/BCPlayers.sol:BCPlayers",
            "label": "defense",
            "offset": 2,
            "slot": "0",
            "type": "t_int8"
          },
          {
            "astId": 20475,
            "contract": "contracts/BCPlayers.sol:BCPlayers",
            "label": "hack",
            "offset": 3,
            "slot": "0",
            "type": "t_int8"
          },
          {
            "astId": 20477,
            "contract": "contracts/BCPlayers.sol:BCPlayers",
            "label": "breach",
            "offset": 4,
            "slot": "0",
            "type": "t_int8"
          },
          {
            "astId": 20479,
            "contract": "contracts/BCPlayers.sol:BCPlayers",
            "label": "shoot",
            "offset": 5,
            "slot": "0",
            "type": "t_int8"
          },
          {
            "astId": 20481,
            "contract": "contracts/BCPlayers.sol:BCPlayers",
            "label": "melee",
            "offset": 6,
            "slot": "0",
            "type": "t_int8"
          },
          {
            "astId": 20483,
            "contract": "contracts/BCPlayers.sol:BCPlayers",
            "label": "hasGun",
            "offset": 7,
            "slot": "0",
            "type": "t_bool"
          }
        ],
        "numberOfBytes": "32"
      },
      "t_struct(UintSet)3021_storage": {
        "encoding": "inplace",
        "label": "struct EnumerableSet.UintSet",
        "members": [
          {
            "astId": 3020,
            "contract": "contracts/BCPlayers.sol:BCPlayers",
            "label": "_inner",
            "offset": 0,
            "slot": "0",
            "type": "t_struct(Set)2563_storage"
          }
        ],
        "numberOfBytes": "64"
      },
      "t_uint256": {
        "encoding": "inplace",
        "label": "uint256",
        "numberOfBytes": "32"
      },
      "t_uint8": {
        "encoding": "inplace",
        "label": "uint8",
        "numberOfBytes": "1"
      }
    }
  }
}