{
  "address": "0x3B32D71627f2470E842878c5D3b802b515a3445c",
  "abi": [
    {
      "anonymous": false,
      "inputs": [
        {
          "indexed": false,
          "internalType": "uint256",
          "name": "roll",
          "type": "uint256"
        },
        {
          "indexed": false,
          "internalType": "uint256",
          "name": "forValue",
          "type": "uint256"
        },
        {
          "indexed": false,
          "internalType": "uint256",
          "name": "against",
          "type": "uint256"
        }
      ],
      "name": "DiceRollEvent",
      "type": "event"
    },
    {
      "inputs": [
        {
          "internalType": "int256",
          "name": "x",
          "type": "int256"
        }
      ],
      "name": "abs",
      "outputs": [
        {
          "internalType": "int256",
          "name": "",
          "type": "int256"
        }
      ],
      "stateMutability": "pure",
      "type": "function"
    },
    {
      "inputs": [
        {
          "components": [
            {
              "internalType": "uint8",
              "name": "row",
              "type": "uint8"
            },
            {
              "internalType": "uint8",
              "name": "col",
              "type": "uint8"
            }
          ],
          "internalType": "struct BCTypes.Position",
          "name": "_firstRoom",
          "type": "tuple"
        },
        {
          "components": [
            {
              "internalType": "uint8",
              "name": "row",
              "type": "uint8"
            },
            {
              "internalType": "uint8",
              "name": "col",
              "type": "uint8"
            }
          ],
          "internalType": "struct BCTypes.Position",
          "name": "_secondRoom",
          "type": "tuple"
        }
      ],
      "name": "getDirectionBetween",
      "outputs": [
        {
          "internalType": "uint256",
          "name": "",
          "type": "uint256"
        }
      ],
      "stateMutability": "pure",
      "type": "function"
    },
    {
      "inputs": [
        {
          "internalType": "uint256",
          "name": "_direction",
          "type": "uint256"
        },
        {
          "components": [
            {
              "internalType": "uint8",
              "name": "row",
              "type": "uint8"
            },
            {
              "internalType": "uint8",
              "name": "col",
              "type": "uint8"
            }
          ],
          "internalType": "struct BCTypes.Position",
          "name": "_start",
          "type": "tuple"
        }
      ],
      "name": "getNeighborRoom",
      "outputs": [
        {
          "components": [
            {
              "internalType": "uint8",
              "name": "row",
              "type": "uint8"
            },
            {
              "internalType": "uint8",
              "name": "col",
              "type": "uint8"
            }
          ],
          "internalType": "struct BCTypes.Position",
          "name": "",
          "type": "tuple"
        }
      ],
      "stateMutability": "pure",
      "type": "function"
    },
    {
      "inputs": [
        {
          "internalType": "uint256",
          "name": "_traitNum",
          "type": "uint256"
        },
        {
          "internalType": "uint256",
          "name": "_subTraitNum",
          "type": "uint256"
        }
      ],
      "name": "getUIOffset",
      "outputs": [
        {
          "internalType": "uint256",
          "name": "",
          "type": "uint256"
        }
      ],
      "stateMutability": "pure",
      "type": "function"
    },
    {
      "inputs": [
        {
          "internalType": "uint256",
          "name": "_min",
          "type": "uint256"
        },
        {
          "internalType": "uint256",
          "name": "_max",
          "type": "uint256"
        },
        {
          "internalType": "uint256",
          "name": "_val",
          "type": "uint256"
        },
        {
          "internalType": "uint256",
          "name": "_valMax",
          "type": "uint256"
        }
      ],
      "name": "normalizeToSmallRange",
      "outputs": [
        {
          "internalType": "uint8",
          "name": "",
          "type": "uint8"
        }
      ],
      "stateMutability": "pure",
      "type": "function"
    },
    {
      "inputs": [
        {
          "internalType": "uint256",
          "name": "_direction",
          "type": "uint256"
        }
      ],
      "name": "opposite",
      "outputs": [
        {
          "internalType": "uint256",
          "name": "",
          "type": "uint256"
        }
      ],
      "stateMutability": "pure",
      "type": "function"
    },
    {
      "inputs": [],
      "name": "randKeccak",
      "outputs": [
        {
          "internalType": "bytes32",
          "name": "",
          "type": "bytes32"
        }
      ],
      "stateMutability": "nonpayable",
      "type": "function"
    },
    {
      "inputs": [
        {
          "internalType": "uint256",
          "name": "_for",
          "type": "uint256"
        },
        {
          "internalType": "uint256",
          "name": "_against",
          "type": "uint256"
        }
      ],
      "name": "resolveChallenge",
      "outputs": [
        {
          "internalType": "bool",
          "name": "",
          "type": "bool"
        }
      ],
      "stateMutability": "nonpayable",
      "type": "function"
    },
    {
      "inputs": [],
      "name": "roll",
      "outputs": [
        {
          "internalType": "uint256",
          "name": "",
          "type": "uint256"
        }
      ],
      "stateMutability": "nonpayable",
      "type": "function"
    },
    {
      "inputs": [
        {
          "internalType": "bytes32",
          "name": "_hash",
          "type": "bytes32"
        },
        {
          "internalType": "uint256",
          "name": "_size",
          "type": "uint256"
        },
        {
          "internalType": "uint256",
          "name": "_offset",
          "type": "uint256"
        }
      ],
      "name": "sliceHashToSmallInt",
      "outputs": [
        {
          "internalType": "uint8",
          "name": "",
          "type": "uint8"
        }
      ],
      "stateMutability": "pure",
      "type": "function"
    },
    {
      "inputs": [
        {
          "internalType": "uint8",
          "name": "_min",
          "type": "uint8"
        },
        {
          "internalType": "uint8",
          "name": "_max",
          "type": "uint8"
        }
      ],
      "name": "smallIntBetweenVals",
      "outputs": [
        {
          "internalType": "uint8",
          "name": "",
          "type": "uint8"
        }
      ],
      "stateMutability": "nonpayable",
      "type": "function"
    }
  ],
  "transactionHash": "0xb3f2e75bf63eb03beae7eb49aaa0ea65eca3e9470be5e11faf19a3e93f7e349b",
  "args": [],
  "numDeployments": 1,
  "solcInputHash": "106b24de3a9c6176496e0aea719f22ec",
  "bytecode": "0x60806040526000805534801561001457600080fd5b5061150b806100246000396000f3fe608060405234801561001057600080fd5b50600436106100a95760003560e01c8063951fc3fe11610071578063951fc3fe1461018c57806397f34c3f146101bc578063cd5e3c5d146101ec578063ce28613f1461020a578063dff2fb311461023a578063fa3993c21461026a576100a9565b80631b5ac4b5146100ae5780631e1de205146100de57806353011696146100fc57806364db84bf1461012c5780638214f2221461015c575b600080fd5b6100c860048036038101906100c3919061082e565b61029a565b6040516100d5919061086a565b60405180910390f35b6100e66102bc565b6040516100f3919061089e565b60405180910390f35b610116600480360381019061011191906108ef565b610307565b6040516101239190610972565b60405180910390f35b6101466004803603810190610141919061098d565b61034b565b60405161015391906109dc565b60405180910390f35b610176600480360381019061017191906109f7565b61036d565b60405161018391906109dc565b60405180910390f35b6101a660048036038101906101a19190610b31565b6103f6565b6040516101b39190610baf565b60405180910390f35b6101d660048036038101906101d19190610bf6565b61053b565b6040516101e39190610972565b60405180910390f35b6101f4610572565b60405161020191906109dc565b60405180910390f35b610224600480360381019061021f9190610c49565b610588565b6040516102319190610972565b60405180910390f35b610254600480360381019061024f919061098d565b610618565b6040516102619190610ca4565b60405180910390f35b610284600480360381019061027f9190610cbf565b6106a8565b60405161029191906109dc565b60405180910390f35b6000808212156102b357816102ae90610d2e565b6102b5565b815b9050919050565b60008060008154809291906102d090610d77565b919050555060005442336040516020016102ec93929190610e5b565b60405160208183030381529060405280519060200120905090565b60008085856103169190610e98565b905060008385836103279190610ecc565b6103319190610f55565b9050868161033f9190610f86565b92505050949350505050565b60008183600461035b9190610ecc565b6103659190610f86565b905092915050565b60008082141561038057600190506103f1565b600182141561039257600090506103f1565b60028214156103a457600390506103f1565b60038214156103b657600290506103f1565b6040517f08c379a00000000000000000000000000000000000000000000000000000000081526004016103e890611039565b60405180910390fd5b919050565b6103fe6107c9565b600083141561043d576040518060400160405280600184600001516104239190611059565b60ff168152602001836020015160ff168152509050610535565b600183141561047c57604051806040016040528060018460000151610462919061108d565b60ff168152602001836020015160ff168152509050610535565b60028314156104bb576040518060400160405280836000015160ff168152602001600184602001516104ae919061108d565b60ff168152509050610535565b60038314156104fa576040518060400160405280836000015160ff168152602001600184602001516104ed9190611059565b60ff168152509050610535565b6040517f08c379a000000000000000000000000000000000000000000000000000000000815260040161052c90611110565b60405180910390fd5b92915050565b60008082600185600261054e9190611263565b6105589190610e98565b60001b901b905082818616901c60001c9150509392505050565b600061058060016006610588565b60ff16905090565b600080600081548092919061059c90610d77565b9190505550600033600054426040516020016105ba939291906112ae565b6040516020818303038152906040528051906020012060001c90506000600185856105e59190611059565b6105ef919061108d565b90508460ff168160ff168361060491906112eb565b61060e9190610f86565b9250505092915050565b600080610623610572565b90507f2729adc6efc811c2141edf691ce91423fbcd06f2d8fe8be0a13b24e47d1050c48185856040516106589392919061131c565b60405180910390a160018114156106735760009150506106a2565b60038385836106829190610f86565b61068c9190611353565b131561069c5760019150506106a2565b60009150505b92915050565b60006001826000015184600001516106c091906113f4565b60000b14156106d257600090506107c3565b7fffffffffffffffffffffffffffffffffffffffffffffffffffffffffffffffff8260000151846000015161070791906113f4565b60000b141561071957600190506107c3565b7fffffffffffffffffffffffffffffffffffffffffffffffffffffffffffffffff8260200151846020015161074e91906113f4565b60000b141561076057600290506107c3565b60018260200151846020015161077691906113f4565b60000b141561078857600390506107c3565b6040517f08c379a00000000000000000000000000000000000000000000000000000000081526004016107ba906114b5565b60405180910390fd5b92915050565b6040518060400160405280600060ff168152602001600060ff1681525090565b6000604051905090565b600080fd5b6000819050919050565b61080b816107f8565b811461081657600080fd5b50565b60008135905061082881610802565b92915050565b600060208284031215610844576108436107f3565b5b600061085284828501610819565b91505092915050565b610864816107f8565b82525050565b600060208201905061087f600083018461085b565b92915050565b6000819050919050565b61089881610885565b82525050565b60006020820190506108b3600083018461088f565b92915050565b6000819050919050565b6108cc816108b9565b81146108d757600080fd5b50565b6000813590506108e9816108c3565b92915050565b60008060008060808587031215610909576109086107f3565b5b6000610917878288016108da565b9450506020610928878288016108da565b9350506040610939878288016108da565b925050606061094a878288016108da565b91505092959194509250565b600060ff82169050919050565b61096c81610956565b82525050565b60006020820190506109876000830184610963565b92915050565b600080604083850312156109a4576109a36107f3565b5b60006109b2858286016108da565b92505060206109c3858286016108da565b9150509250929050565b6109d6816108b9565b82525050565b60006020820190506109f160008301846109cd565b92915050565b600060208284031215610a0d57610a0c6107f3565b5b6000610a1b848285016108da565b91505092915050565b600080fd5b6000601f19601f8301169050919050565b7f4e487b7100000000000000000000000000000000000000000000000000000000600052604160045260246000fd5b610a7282610a29565b810181811067ffffffffffffffff82111715610a9157610a90610a3a565b5b80604052505050565b6000610aa46107e9565b9050610ab08282610a69565b919050565b610abe81610956565b8114610ac957600080fd5b50565b600081359050610adb81610ab5565b92915050565b600060408284031215610af757610af6610a24565b5b610b016040610a9a565b90506000610b1184828501610acc565b6000830152506020610b2584828501610acc565b60208301525092915050565b60008060608385031215610b4857610b476107f3565b5b6000610b56858286016108da565b9250506020610b6785828601610ae1565b9150509250929050565b610b7a81610956565b82525050565b604082016000820151610b966000850182610b71565b506020820151610ba96020850182610b71565b50505050565b6000604082019050610bc46000830184610b80565b92915050565b610bd381610885565b8114610bde57600080fd5b50565b600081359050610bf081610bca565b92915050565b600080600060608486031215610c0f57610c0e6107f3565b5b6000610c1d86828701610be1565b9350506020610c2e868287016108da565b9250506040610c3f868287016108da565b9150509250925092565b60008060408385031215610c6057610c5f6107f3565b5b6000610c6e85828601610acc565b9250506020610c7f85828601610acc565b9150509250929050565b60008115159050919050565b610c9e81610c89565b82525050565b6000602082019050610cb96000830184610c95565b92915050565b60008060808385031215610cd657610cd56107f3565b5b6000610ce485828601610ae1565b9250506040610cf585828601610ae1565b9150509250929050565b7f4e487b7100000000000000000000000000000000000000000000000000000000600052601160045260246000fd5b6000610d39826107f8565b91507f8000000000000000000000000000000000000000000000000000000000000000821415610d6c57610d6b610cff565b5b816000039050919050565b6000610d82826108b9565b91507fffffffffffffffffffffffffffffffffffffffffffffffffffffffffffffffff821415610db557610db4610cff565b5b600182019050919050565b6000819050919050565b610ddb610dd6826108b9565b610dc0565b82525050565b600073ffffffffffffffffffffffffffffffffffffffff82169050919050565b6000610e0c82610de1565b9050919050565b60008160601b9050919050565b6000610e2b82610e13565b9050919050565b6000610e3d82610e20565b9050919050565b610e55610e5082610e01565b610e32565b82525050565b6000610e678286610dca565b602082019150610e778285610dca565b602082019150610e878284610e44565b601482019150819050949350505050565b6000610ea3826108b9565b9150610eae836108b9565b925082821015610ec157610ec0610cff565b5b828203905092915050565b6000610ed7826108b9565b9150610ee2836108b9565b9250817fffffffffffffffffffffffffffffffffffffffffffffffffffffffffffffffff0483118215151615610f1b57610f1a610cff565b5b828202905092915050565b7f4e487b7100000000000000000000000000000000000000000000000000000000600052601260045260246000fd5b6000610f60826108b9565b9150610f6b836108b9565b925082610f7b57610f7a610f26565b5b828204905092915050565b6000610f91826108b9565b9150610f9c836108b9565b9250827fffffffffffffffffffffffffffffffffffffffffffffffffffffffffffffffff03821115610fd157610fd0610cff565b5b828201905092915050565b600082825260208201905092915050565b7f42616420646972656374696f6e00000000000000000000000000000000000000600082015250565b6000611023600d83610fdc565b915061102e82610fed565b602082019050919050565b6000602082019050818103600083015261105281611016565b9050919050565b600061106482610956565b915061106f83610956565b92508282101561108257611081610cff565b5b828203905092915050565b600061109882610956565b91506110a383610956565b92508260ff038211156110b9576110b8610cff565b5b828201905092915050565b7f496e76616c696420646972656374696f6e000000000000000000000000000000600082015250565b60006110fa601183610fdc565b9150611105826110c4565b602082019050919050565b60006020820190508181036000830152611129816110ed565b9050919050565b60008160011c9050919050565b6000808291508390505b60018511156111875780860481111561116357611162610cff565b5b60018516156111725780820291505b808102905061118085611130565b9450611147565b94509492505050565b6000826111a0576001905061125c565b816111ae576000905061125c565b81600181146111c457600281146111ce576111fd565b600191505061125c565b60ff8411156111e0576111df610cff565b5b8360020a9150848211156111f7576111f6610cff565b5b5061125c565b5060208310610133831016604e8410600b84101617156112325782820a90508381111561122d5761122c610cff565b5b61125c565b61123f848484600161113d565b9250905081840481111561125657611255610cff565b5b81810290505b9392505050565b600061126e826108b9565b9150611279836108b9565b92506112a67fffffffffffffffffffffffffffffffffffffffffffffffffffffffffffffffff8484611190565b905092915050565b60006112ba8286610e44565b6014820191506112ca8285610dca565b6020820191506112da8284610dca565b602082019150819050949350505050565b60006112f6826108b9565b9150611301836108b9565b92508261131157611310610f26565b5b828206905092915050565b600060608201905061133160008301866109cd565b61133e60208301856109cd565b61134b60408301846109cd565b949350505050565b600061135e826107f8565b9150611369836107f8565b9250827f8000000000000000000000000000000000000000000000000000000000000000018212600084121516156113a4576113a3610cff565b5b827f7fffffffffffffffffffffffffffffffffffffffffffffffffffffffffffffff0182136000841216156113dc576113db610cff565b5b828203905092915050565b60008160000b9050919050565b60006113ff826113e7565b915061140a836113e7565b9250827fffffffffffffffffffffffffffffffffffffffffffffffffffffffffffffff800182126000841215161561144557611444610cff565b5b82607f01821360008412161561145e5761145d610cff565b5b828203905092915050565b7f4572726f723a204e6f742061646a6163656e7400000000000000000000000000600082015250565b600061149f601383610fdc565b91506114aa82611469565b602082019050919050565b600060208201905081810360008301526114ce81611492565b905091905056fea264697066735822122098723fb67062d99aa43ce97172e57ecbb1a5bf42122d3053d6bcf50d6dd2379b64736f6c634300080c0033",
  "devdoc": {
    "kind": "dev",
    "methods": {},
    "version": 1
  },
  "userdoc": {
    "kind": "user",
    "methods": {},
    "version": 1
  },
  "storageLayout": {
    "storage": [
      {
        "astId": 7146,
        "contract": "contracts/BCUtils.sol:BCUtils",
        "label": "TODO_randomSeed",
        "offset": 0,
        "slot": "0",
        "type": "t_uint256"
      }
    ],
    "types": {
      "t_uint256": {
        "encoding": "inplace",
        "label": "uint256",
        "numberOfBytes": "32"
      }
    }
  }
}