{
  "address": "0x392fF93343AACE0926f9AFa8a8e3603b7bc13B8f",
  "abi": [
    {
      "anonymous": false,
      "inputs": [
        {
          "indexed": true,
          "internalType": "uint256",
          "name": "gameId",
          "type": "uint256"
        },
        {
          "indexed": false,
          "internalType": "uint256",
          "name": "roll",
          "type": "uint256"
        },
        {
          "indexed": false,
          "internalType": "uint256",
          "name": "forValue",
          "type": "uint256"
        },
        {
          "indexed": false,
          "internalType": "uint256",
          "name": "against",
          "type": "uint256"
        }
      ],
      "name": "ChallengeEvent",
      "type": "event"
    },
    {
      "anonymous": false,
      "inputs": [
        {
          "indexed": true,
          "internalType": "uint256",
          "name": "gameId",
          "type": "uint256"
        },
        {
          "indexed": false,
          "internalType": "uint256",
          "name": "roll",
          "type": "uint256"
        }
      ],
      "name": "DiceRollEvent",
      "type": "event"
    },
    {
      "inputs": [
        {
          "internalType": "uint256",
          "name": "_gameId",
          "type": "uint256"
        }
      ],
      "name": "getEventBlocks",
      "outputs": [
        {
          "internalType": "uint256[]",
          "name": "",
          "type": "uint256[]"
        }
      ],
      "stateMutability": "view",
      "type": "function"
    },
    {
      "inputs": [
        {
          "internalType": "uint256",
          "name": "_direction",
          "type": "uint256"
        },
        {
          "components": [
            {
              "internalType": "uint8",
              "name": "row",
              "type": "uint8"
            },
            {
              "internalType": "uint8",
              "name": "col",
              "type": "uint8"
            }
          ],
          "internalType": "struct BCTypes.Position",
          "name": "_start",
          "type": "tuple"
        }
      ],
      "name": "getNeighborRoom",
      "outputs": [
        {
          "components": [
            {
              "internalType": "uint8",
              "name": "row",
              "type": "uint8"
            },
            {
              "internalType": "uint8",
              "name": "col",
              "type": "uint8"
            }
          ],
          "internalType": "struct BCTypes.Position",
          "name": "",
          "type": "tuple"
        }
      ],
      "stateMutability": "pure",
      "type": "function"
    },
    {
      "inputs": [
        {
          "internalType": "uint256",
          "name": "_gameId",
          "type": "uint256"
        },
        {
          "internalType": "uint256",
          "name": "_for",
          "type": "uint256"
        },
        {
          "internalType": "uint256",
          "name": "_against",
          "type": "uint256"
        }
      ],
      "name": "resolveChallenge",
      "outputs": [
        {
          "internalType": "bool",
          "name": "",
          "type": "bool"
        }
      ],
      "stateMutability": "nonpayable",
      "type": "function"
    },
    {
      "inputs": [
        {
          "internalType": "uint256",
          "name": "_gameId",
          "type": "uint256"
        }
      ],
      "name": "roll",
      "outputs": [
        {
          "internalType": "uint256",
          "name": "",
          "type": "uint256"
        }
      ],
      "stateMutability": "nonpayable",
      "type": "function"
    },
    {
      "inputs": [
        {
          "internalType": "uint8",
          "name": "_min",
          "type": "uint8"
        },
        {
          "internalType": "uint8",
          "name": "_max",
          "type": "uint8"
        }
      ],
      "name": "smallIntBetweenVals",
      "outputs": [
        {
          "internalType": "uint8",
          "name": "",
          "type": "uint8"
        }
      ],
      "stateMutability": "nonpayable",
      "type": "function"
    }
  ],
  "transactionHash": "0x076dfe146a18a8d26c5dd1ba03f6005a800050c3e974de0fd7c166266bba614c",
  "args": [],
  "numDeployments": 1,
  "solcInputHash": "53343237385e44ecb26c93379ee6715d",
  "bytecode": "0x60806040526000805534801561001457600080fd5b506108ba806100246000396000f3fe608060405234801561001057600080fd5b50600436106100575760003560e01c80630e73c0241461005c5780631f7b4f30146100855780635dc96967146100a6578063951fc3fe146100c9578063ce28613f146100fd575b600080fd5b61006f61006a36600461057f565b610122565b60405161007c9190610598565b60405180910390f35b61009861009336600461057f565b610142565b60405190815260200161007c565b6100b96100b43660046105dc565b610196565b604051901515815260200161007c565b6100dc6100d7366004610634565b61022e565b60408051825160ff908116825260209384015116928101929092520161007c565b61011061010b3660046106bd565b610361565b60405160ff909116815260200161007c565b600081815260016020526040902060609061013c9061040d565b92915050565b60008061015160016006610361565b60ff169050827ffe34d093a460a16ee5fb374540914d1c734a17502c0c1a87b387c8d6097e1c518260405161018891815260200190565b60405180910390a292915050565b6000806101a285610142565b604080518281526020810187905290810185905290915085907f75b6a8325595f91135e07382840634226793c68c9e59623da7e10d7ad3d95b959060600160405180910390a2806001036101fa576000915050610227565b6003836102078684610706565b6102119190610719565b1315610221576001915050610227565b60009150505b9392505050565b604080518082019091526000808252602082015282600003610280576040518060400160405280600184600001516102669190610740565b60ff168152602001836020015160ff16815250905061013c565b826001036102a4576040518060400160405280836000015160016102669190610759565b826002036102e1576040518060400160405280836000015160ff168152602001836020015160016102d59190610759565b60ff169052905061013c565b82600303610312576040518060400160405280836000015160ff168152602001600184602001516102d59190610740565b600061031d8461041a565b60405160200161032d9190610796565b60405160208183030381529060405290508060405162461bcd60e51b815260040161035891906107d1565b60405180910390fd5b60008054818061037083610804565b909155505060008054339061038660014361081d565b60405160609390931b6bffffffffffffffffffffffff19166020840152603483019190915240605482015260740160408051601f198184030181529190528051602090910120905060006103da8585610740565b6103e5906001610759565b90508460ff168160ff16836103fa9190610846565b6104049190610706565b95945050505050565b6060600061022783610523565b6060816000036104415750506040805180820190915260018152600360fc1b602082015290565b8160005b811561046b578061045581610804565b91506104649050600a8361085a565b9150610445565b60008167ffffffffffffffff81111561048657610486610608565b6040519080825280601f01601f1916602001820160405280156104b0576020820181803683370190505b5090505b841561051b576104c560018361081d565b91506104d2600a86610846565b6104dd906030610706565b60f81b8183815181106104f2576104f261086e565b60200101906001600160f81b031916908160001a905350610514600a8661085a565b94506104b4565b949350505050565b60608160000180548060200260200160405190810160405280929190818152602001828054801561057357602002820191906000526020600020905b81548152602001906001019080831161055f575b50505050509050919050565b60006020828403121561059157600080fd5b5035919050565b6020808252825182820181905260009190848201906040850190845b818110156105d0578351835292840192918401916001016105b4565b50909695505050505050565b6000806000606084860312156105f157600080fd5b505081359360208301359350604090920135919050565b634e487b7160e01b600052604160045260246000fd5b803560ff8116811461062f57600080fd5b919050565b600080828403606081121561064857600080fd5b833592506040601f198201121561065e57600080fd5b506040516040810181811067ffffffffffffffff8211171561069057634e487b7160e01b600052604160045260246000fd5b60405261069f6020850161061e565b81526106ad6040850161061e565b6020820152809150509250929050565b600080604083850312156106d057600080fd5b6106d98361061e565b91506106e76020840161061e565b90509250929050565b634e487b7160e01b600052601160045260246000fd5b8082018082111561013c5761013c6106f0565b8181036000831280158383131683831282161715610739576107396106f0565b5092915050565b60ff828116828216039081111561013c5761013c6106f0565b60ff818116838216019081111561013c5761013c6106f0565b60005b8381101561078d578181015183820152602001610775565b50506000910152565b72024b73b30b634b2103234b932b1ba34b7b71d1606d1b8152600082516107c4816013850160208701610772565b9190910160130192915050565b60208152600082518060208401526107f0816040850160208701610772565b601f01601f19169190910160400192915050565b600060018201610816576108166106f0565b5060010190565b8181038181111561013c5761013c6106f0565b634e487b7160e01b600052601260045260246000fd5b60008261085557610855610830565b500690565b60008261086957610869610830565b500490565b634e487b7160e01b600052603260045260246000fdfea2646970667358221220dac4697e126ba7f2dd5460e0d382ac21d08ff07e2009520374506a01535293ee64736f6c63430008110033",
  "devdoc": {
    "kind": "dev",
    "methods": {},
    "version": 1
  },
  "userdoc": {
    "kind": "user",
    "methods": {},
    "version": 1
  },
  "storageLayout": {
    "storage": [
      {
        "astId": 21289,
        "contract": "contracts/BCUtils.sol:BCUtils",
        "label": "TODO_randomSeed",
        "offset": 0,
        "slot": "0",
        "type": "t_uint256"
      },
      {
        "astId": 21294,
        "contract": "contracts/BCUtils.sol:BCUtils",
        "label": "gameToEventBlocks",
        "offset": 0,
        "slot": "1",
        "type": "t_mapping(t_uint256,t_struct(UintSet)2262_storage)"
      }
    ],
    "types": {
      "t_array(t_bytes32)dyn_storage": {
        "base": "t_bytes32",
        "encoding": "dynamic_array",
        "label": "bytes32[]",
        "numberOfBytes": "32"
      },
      "t_bytes32": {
        "encoding": "inplace",
        "label": "bytes32",
        "numberOfBytes": "32"
      },
      "t_mapping(t_bytes32,t_uint256)": {
        "encoding": "mapping",
        "key": "t_bytes32",
        "label": "mapping(bytes32 => uint256)",
        "numberOfBytes": "32",
        "value": "t_uint256"
      },
      "t_mapping(t_uint256,t_struct(UintSet)2262_storage)": {
        "encoding": "mapping",
        "key": "t_uint256",
        "label": "mapping(uint256 => struct EnumerableSet.UintSet)",
        "numberOfBytes": "32",
        "value": "t_struct(UintSet)2262_storage"
      },
      "t_struct(Set)1804_storage": {
        "encoding": "inplace",
        "label": "struct EnumerableSet.Set",
        "members": [
          {
            "astId": 1799,
            "contract": "contracts/BCUtils.sol:BCUtils",
            "label": "_values",
            "offset": 0,
            "slot": "0",
            "type": "t_array(t_bytes32)dyn_storage"
          },
          {
            "astId": 1803,
            "contract": "contracts/BCUtils.sol:BCUtils",
            "label": "_indexes",
            "offset": 0,
            "slot": "1",
            "type": "t_mapping(t_bytes32,t_uint256)"
          }
        ],
        "numberOfBytes": "64"
      },
      "t_struct(UintSet)2262_storage": {
        "encoding": "inplace",
        "label": "struct EnumerableSet.UintSet",
        "members": [
          {
            "astId": 2261,
            "contract": "contracts/BCUtils.sol:BCUtils",
            "label": "_inner",
            "offset": 0,
            "slot": "0",
            "type": "t_struct(Set)1804_storage"
          }
        ],
        "numberOfBytes": "64"
      },
      "t_uint256": {
        "encoding": "inplace",
        "label": "uint256",
        "numberOfBytes": "32"
      }
    }
  }
}