{
  "address": "0x8707a51F6A5aEe3fbB94d61e433FF6c25Be7640A",
  "abi": [
    {
      "anonymous": false,
      "inputs": [
        {
          "indexed": false,
          "internalType": "uint256",
          "name": "gameId",
          "type": "uint256"
        },
        {
          "indexed": false,
          "internalType": "uint256",
          "name": "roll",
          "type": "uint256"
        },
        {
          "indexed": false,
          "internalType": "uint256",
          "name": "forValue",
          "type": "uint256"
        },
        {
          "indexed": false,
          "internalType": "uint256",
          "name": "against",
          "type": "uint256"
        }
      ],
      "name": "ChallengeEvent",
      "type": "event"
    },
    {
      "anonymous": false,
      "inputs": [
        {
          "indexed": false,
          "internalType": "uint256",
          "name": "gameId",
          "type": "uint256"
        },
        {
          "indexed": false,
          "internalType": "uint256",
          "name": "roll",
          "type": "uint256"
        }
      ],
      "name": "DiceRollEvent",
      "type": "event"
    },
    {
      "inputs": [
        {
          "internalType": "int256",
          "name": "x",
          "type": "int256"
        }
      ],
      "name": "abs",
      "outputs": [
        {
          "internalType": "int256",
          "name": "",
          "type": "int256"
        }
      ],
      "stateMutability": "pure",
      "type": "function"
    },
    {
      "inputs": [
        {
          "components": [
            {
              "internalType": "uint8",
              "name": "row",
              "type": "uint8"
            },
            {
              "internalType": "uint8",
              "name": "col",
              "type": "uint8"
            }
          ],
          "internalType": "struct BCTypes.Position",
          "name": "_firstRoom",
          "type": "tuple"
        },
        {
          "components": [
            {
              "internalType": "uint8",
              "name": "row",
              "type": "uint8"
            },
            {
              "internalType": "uint8",
              "name": "col",
              "type": "uint8"
            }
          ],
          "internalType": "struct BCTypes.Position",
          "name": "_secondRoom",
          "type": "tuple"
        }
      ],
      "name": "getDirectionBetween",
      "outputs": [
        {
          "internalType": "uint256",
          "name": "",
          "type": "uint256"
        }
      ],
      "stateMutability": "pure",
      "type": "function"
    },
    {
      "inputs": [
        {
          "internalType": "uint256",
          "name": "_direction",
          "type": "uint256"
        },
        {
          "components": [
            {
              "internalType": "uint8",
              "name": "row",
              "type": "uint8"
            },
            {
              "internalType": "uint8",
              "name": "col",
              "type": "uint8"
            }
          ],
          "internalType": "struct BCTypes.Position",
          "name": "_start",
          "type": "tuple"
        }
      ],
      "name": "getNeighborRoom",
      "outputs": [
        {
          "components": [
            {
              "internalType": "uint8",
              "name": "row",
              "type": "uint8"
            },
            {
              "internalType": "uint8",
              "name": "col",
              "type": "uint8"
            }
          ],
          "internalType": "struct BCTypes.Position",
          "name": "",
          "type": "tuple"
        }
      ],
      "stateMutability": "pure",
      "type": "function"
    },
    {
      "inputs": [
        {
          "internalType": "uint256",
          "name": "_traitNum",
          "type": "uint256"
        },
        {
          "internalType": "uint256",
          "name": "_subTraitNum",
          "type": "uint256"
        }
      ],
      "name": "getUIOffset",
      "outputs": [
        {
          "internalType": "uint256",
          "name": "",
          "type": "uint256"
        }
      ],
      "stateMutability": "pure",
      "type": "function"
    },
    {
      "inputs": [
        {
          "internalType": "uint256",
          "name": "_min",
          "type": "uint256"
        },
        {
          "internalType": "uint256",
          "name": "_max",
          "type": "uint256"
        },
        {
          "internalType": "uint256",
          "name": "_val",
          "type": "uint256"
        },
        {
          "internalType": "uint256",
          "name": "_valMax",
          "type": "uint256"
        }
      ],
      "name": "normalizeToSmallRange",
      "outputs": [
        {
          "internalType": "uint8",
          "name": "",
          "type": "uint8"
        }
      ],
      "stateMutability": "pure",
      "type": "function"
    },
    {
      "inputs": [
        {
          "internalType": "uint256",
          "name": "_direction",
          "type": "uint256"
        }
      ],
      "name": "opposite",
      "outputs": [
        {
          "internalType": "uint256",
          "name": "",
          "type": "uint256"
        }
      ],
      "stateMutability": "pure",
      "type": "function"
    },
    {
      "inputs": [],
      "name": "randKeccak",
      "outputs": [
        {
          "internalType": "bytes32",
          "name": "",
          "type": "bytes32"
        }
      ],
      "stateMutability": "nonpayable",
      "type": "function"
    },
    {
      "inputs": [
        {
          "internalType": "uint256",
          "name": "_gameId",
          "type": "uint256"
        },
        {
          "internalType": "uint256",
          "name": "_for",
          "type": "uint256"
        },
        {
          "internalType": "uint256",
          "name": "_against",
          "type": "uint256"
        }
      ],
      "name": "resolveChallenge",
      "outputs": [
        {
          "internalType": "bool",
          "name": "",
          "type": "bool"
        }
      ],
      "stateMutability": "nonpayable",
      "type": "function"
    },
    {
      "inputs": [
        {
          "internalType": "uint256",
          "name": "_gameId",
          "type": "uint256"
        }
      ],
      "name": "roll",
      "outputs": [
        {
          "internalType": "uint256",
          "name": "",
          "type": "uint256"
        }
      ],
      "stateMutability": "nonpayable",
      "type": "function"
    },
    {
      "inputs": [
        {
          "internalType": "bytes32",
          "name": "_hash",
          "type": "bytes32"
        },
        {
          "internalType": "uint256",
          "name": "_size",
          "type": "uint256"
        },
        {
          "internalType": "uint256",
          "name": "_offset",
          "type": "uint256"
        }
      ],
      "name": "sliceHashToSmallInt",
      "outputs": [
        {
          "internalType": "uint8",
          "name": "",
          "type": "uint8"
        }
      ],
      "stateMutability": "pure",
      "type": "function"
    },
    {
      "inputs": [
        {
          "internalType": "uint8",
          "name": "_min",
          "type": "uint8"
        },
        {
          "internalType": "uint8",
          "name": "_max",
          "type": "uint8"
        }
      ],
      "name": "smallIntBetweenVals",
      "outputs": [
        {
          "internalType": "uint8",
          "name": "",
          "type": "uint8"
        }
      ],
      "stateMutability": "nonpayable",
      "type": "function"
    }
  ],
  "transactionHash": "0x46e4dfbb7a59b77cca6dcb5eff2b0a2103fe4ae72b36bca84db358764edf17cf",
  "args": [],
  "numDeployments": 1,
  "solcInputHash": "0606bbd73f1cb9aac5f9e11b2dd53465",
  "bytecode": "0x60806040526000805534801561001457600080fd5b50610ca5806100246000396000f3fe608060405234801561001057600080fd5b50600436106100a95760003560e01c806364db84bf1161007157806364db84bf146101375780638214f2221461014a578063951fc3fe1461015d57806397f34c3f14610191578063ce28613f146101a4578063fa3993c2146101b757600080fd5b80631b5ac4b5146100ae5780631e1de205146100d45780631f7b4f30146100dc57806353011696146100ef5780635dc9696714610114575b600080fd5b6100c16100bc3660046107e3565b6101ca565b6040519081526020015b60405180910390f35b6100c16101ea565b6100c16100ea3660046107e3565b610253565b6101026100fd3660046107fc565b6102af565b60405160ff90911681526020016100cb565b61012761012236600461082e565b6102ec565b60405190151581526020016100cb565b6100c161014536600461085a565b610389565b6100c16101583660046107e3565b6103a1565b61017061016b366004610914565b610420565b60408051825160ff90811682526020938401511692810192909252016100cb565b61010261019f36600461082e565b61054a565b6101026101b2366004610941565b610575565b6100c16101c536600461096b565b610612565b6000808212156101e2576101dd826109ad565b6101e4565b815b92915050565b6000805481806101f9836109c9565b9190505550600054423360405160200161023893929190928352602083019190915260601b6bffffffffffffffffffffffff1916604082015260540190565b60405160208183030381529060405280519060200120905090565b60008061026260016006610575565b60ff1690507ffe34d093a460a16ee5fb374540914d1c734a17502c0c1a87b387c8d6097e1c5183826040516102a1929190918252602082015260400190565b60405180910390a192915050565b6000806102bc86866109e2565b90506000836102cb86846109f5565b6102d59190610a22565b90506102e18782610a36565b979650505050505050565b6000806102f885610253565b6040805187815260208101839052908101869052606081018590529091507f75b6a8325595f91135e07382840634226793c68c9e59623da7e10d7ad3d95b959060800160405180910390a180600103610355576000915050610382565b6003836103628684610a36565b61036c9190610a49565b131561037c576001915050610382565b60009150505b9392505050565b6000816103978460046109f5565b6103829190610a36565b6000816000036103b357506001919050565b816001036103c357506000919050565b816002036103d357506003919050565b816003036103e357506002919050565b60405162461bcd60e51b815260206004820152600d60248201526c2130b2103234b932b1ba34b7b760991b60448201526064015b60405180910390fd5b604080518082019091526000808252602082015282600003610472576040518060400160405280600184600001516104589190610a70565b60ff168152602001836020015160ff1681525090506101e4565b82600103610496576040518060400160405280836000015160016104589190610a89565b826002036104d3576040518060400160405280836000015160ff168152602001836020015160016104c79190610a89565b60ff16905290506101e4565b82600303610504576040518060400160405280836000015160ff168152602001600184602001516104c79190610a70565b600061050f846106da565b60405160200161051f9190610ac6565b60405160208183030381529060405290508060405162461bcd60e51b81526004016104179190610b01565b60008082600161055b866002610c18565b61056591906109e2565b901b8516831c9150509392505050565b600080548180610584836109c9565b9091555050600080546040516bffffffffffffffffffffffff193360601b166020820152603481019190915242605482015260740160408051601f198184030181529190528051602090910120905060006105df8585610a70565b6105ea906001610a89565b90508460ff168160ff16836105ff9190610c24565b6106099190610a36565b95945050505050565b8051825160009161062291610c38565b60000b600103610634575060006101e4565b815183516106429190610c38565b60000b19610652575060016101e4565b816020015183602001516106669190610c38565b60000b19610676575060026101e4565b8160200151836020015161068a9190610c38565b60000b60010361069c575060036101e4565b60405162461bcd60e51b8152602060048201526013602482015272115c9c9bdc8e88139bdd0818591a9858d95b9d606a1b6044820152606401610417565b6060816000036107015750506040805180820190915260018152600360fc1b602082015290565b8160005b811561072b5780610715816109c9565b91506107249050600a83610a22565b9150610705565b60008167ffffffffffffffff8111156107465761074661087c565b6040519080825280601f01601f191660200182016040528015610770576020820181803683370190505b5090505b84156107db576107856001836109e2565b9150610792600a86610c24565b61079d906030610a36565b60f81b8183815181106107b2576107b2610c59565b60200101906001600160f81b031916908160001a9053506107d4600a86610a22565b9450610774565b949350505050565b6000602082840312156107f557600080fd5b5035919050565b6000806000806080858703121561081257600080fd5b5050823594602084013594506040840135936060013592509050565b60008060006060848603121561084357600080fd5b505081359360208301359350604090920135919050565b6000806040838503121561086d57600080fd5b50508035926020909101359150565b634e487b7160e01b600052604160045260246000fd5b803560ff811681146108a357600080fd5b919050565b6000604082840312156108ba57600080fd5b6040516040810181811067ffffffffffffffff821117156108eb57634e487b7160e01b600052604160045260246000fd5b6040529050806108fa83610892565b815261090860208401610892565b60208201525092915050565b6000806060838503121561092757600080fd5b8235915061093884602085016108a8565b90509250929050565b6000806040838503121561095457600080fd5b61095d83610892565b915061093860208401610892565b6000806080838503121561097e57600080fd5b61098884846108a8565b915061093884604085016108a8565b634e487b7160e01b600052601160045260246000fd5b6000600160ff1b82016109c2576109c2610997565b5060000390565b6000600182016109db576109db610997565b5060010190565b818103818111156101e4576101e4610997565b80820281158282048414176101e4576101e4610997565b634e487b7160e01b600052601260045260246000fd5b600082610a3157610a31610a0c565b500490565b808201808211156101e4576101e4610997565b8181036000831280158383131683831282161715610a6957610a69610997565b5092915050565b60ff82811682821603908111156101e4576101e4610997565b60ff81811683821601908111156101e4576101e4610997565b60005b83811015610abd578181015183820152602001610aa5565b50506000910152565b72024b73b30b634b2103234b932b1ba34b7b71d1606d1b815260008251610af4816013850160208701610aa2565b9190910160130192915050565b6020815260008251806020840152610b20816040850160208701610aa2565b601f01601f19169190910160400192915050565b600181815b80851115610b6f578160001904821115610b5557610b55610997565b80851615610b6257918102915b93841c9390800290610b39565b509250929050565b600082610b86575060016101e4565b81610b93575060006101e4565b8160018114610ba95760028114610bb357610bcf565b60019150506101e4565b60ff841115610bc457610bc4610997565b50506001821b6101e4565b5060208310610133831016604e8410600b8410161715610bf2575081810a6101e4565b610bfc8383610b34565b8060001904821115610c1057610c10610997565b029392505050565b60006103828383610b77565b600082610c3357610c33610a0c565b500690565b600082810b9082900b03607f198112607f821317156101e4576101e4610997565b634e487b7160e01b600052603260045260246000fdfea2646970667358221220a7a304d42c71c21cdf6548e2c1590bd1a852105ad0fff760b419b258a71b626b64736f6c63430008110033",
  "devdoc": {
    "kind": "dev",
    "methods": {},
    "version": 1
  },
  "userdoc": {
    "kind": "user",
    "methods": {},
    "version": 1
  },
  "storageLayout": {
    "storage": [
      {
        "astId": 15022,
        "contract": "contracts/BCUtils.sol:BCUtils",
        "label": "TODO_randomSeed",
        "offset": 0,
        "slot": "0",
        "type": "t_uint256"
      }
    ],
    "types": {
      "t_uint256": {
        "encoding": "inplace",
        "label": "uint256",
        "numberOfBytes": "32"
      }
    }
  }
}