{
  "address": "0x08bDf09fce323657E147edABbE27768AC8c46072",
  "abi": [
    {
      "anonymous": false,
      "inputs": [
        {
          "indexed": false,
          "internalType": "uint256",
          "name": "gameId",
          "type": "uint256"
        },
        {
          "indexed": false,
          "internalType": "uint256",
          "name": "roll",
          "type": "uint256"
        },
        {
          "indexed": false,
          "internalType": "uint256",
          "name": "forValue",
          "type": "uint256"
        },
        {
          "indexed": false,
          "internalType": "uint256",
          "name": "against",
          "type": "uint256"
        }
      ],
      "name": "ChallengeEvent",
      "type": "event"
    },
    {
      "anonymous": false,
      "inputs": [
        {
          "indexed": false,
          "internalType": "uint256",
          "name": "gameId",
          "type": "uint256"
        },
        {
          "indexed": false,
          "internalType": "uint256",
          "name": "roll",
          "type": "uint256"
        }
      ],
      "name": "DiceRollEvent",
      "type": "event"
    },
    {
      "inputs": [
        {
          "internalType": "int256",
          "name": "x",
          "type": "int256"
        }
      ],
      "name": "abs",
      "outputs": [
        {
          "internalType": "int256",
          "name": "",
          "type": "int256"
        }
      ],
      "stateMutability": "pure",
      "type": "function"
    },
    {
      "inputs": [
        {
          "components": [
            {
              "internalType": "uint8",
              "name": "row",
              "type": "uint8"
            },
            {
              "internalType": "uint8",
              "name": "col",
              "type": "uint8"
            }
          ],
          "internalType": "struct BCTypes.Position",
          "name": "_firstRoom",
          "type": "tuple"
        },
        {
          "components": [
            {
              "internalType": "uint8",
              "name": "row",
              "type": "uint8"
            },
            {
              "internalType": "uint8",
              "name": "col",
              "type": "uint8"
            }
          ],
          "internalType": "struct BCTypes.Position",
          "name": "_secondRoom",
          "type": "tuple"
        }
      ],
      "name": "getDirectionBetween",
      "outputs": [
        {
          "internalType": "uint256",
          "name": "",
          "type": "uint256"
        }
      ],
      "stateMutability": "pure",
      "type": "function"
    },
    {
      "inputs": [
        {
          "internalType": "uint256",
          "name": "_direction",
          "type": "uint256"
        },
        {
          "components": [
            {
              "internalType": "uint8",
              "name": "row",
              "type": "uint8"
            },
            {
              "internalType": "uint8",
              "name": "col",
              "type": "uint8"
            }
          ],
          "internalType": "struct BCTypes.Position",
          "name": "_start",
          "type": "tuple"
        }
      ],
      "name": "getNeighborRoom",
      "outputs": [
        {
          "components": [
            {
              "internalType": "uint8",
              "name": "row",
              "type": "uint8"
            },
            {
              "internalType": "uint8",
              "name": "col",
              "type": "uint8"
            }
          ],
          "internalType": "struct BCTypes.Position",
          "name": "",
          "type": "tuple"
        }
      ],
      "stateMutability": "pure",
      "type": "function"
    },
    {
      "inputs": [
        {
          "internalType": "uint256",
          "name": "_traitNum",
          "type": "uint256"
        },
        {
          "internalType": "uint256",
          "name": "_subTraitNum",
          "type": "uint256"
        }
      ],
      "name": "getUIOffset",
      "outputs": [
        {
          "internalType": "uint256",
          "name": "",
          "type": "uint256"
        }
      ],
      "stateMutability": "pure",
      "type": "function"
    },
    {
      "inputs": [
        {
          "components": [
            {
              "internalType": "uint8",
              "name": "row",
              "type": "uint8"
            },
            {
              "internalType": "uint8",
              "name": "col",
              "type": "uint8"
            }
          ],
          "internalType": "struct BCTypes.Position",
          "name": "_pos1",
          "type": "tuple"
        },
        {
          "components": [
            {
              "internalType": "uint8",
              "name": "row",
              "type": "uint8"
            },
            {
              "internalType": "uint8",
              "name": "col",
              "type": "uint8"
            }
          ],
          "internalType": "struct BCTypes.Position",
          "name": "_pos2",
          "type": "tuple"
        }
      ],
      "name": "manhattanDistance",
      "outputs": [
        {
          "internalType": "uint256",
          "name": "",
          "type": "uint256"
        }
      ],
      "stateMutability": "pure",
      "type": "function"
    },
    {
      "inputs": [
        {
          "internalType": "uint256",
          "name": "_min",
          "type": "uint256"
        },
        {
          "internalType": "uint256",
          "name": "_max",
          "type": "uint256"
        },
        {
          "internalType": "uint256",
          "name": "_val",
          "type": "uint256"
        },
        {
          "internalType": "uint256",
          "name": "_valMax",
          "type": "uint256"
        }
      ],
      "name": "normalizeToSmallRange",
      "outputs": [
        {
          "internalType": "uint8",
          "name": "",
          "type": "uint8"
        }
      ],
      "stateMutability": "pure",
      "type": "function"
    },
    {
      "inputs": [
        {
          "internalType": "uint256",
          "name": "_direction",
          "type": "uint256"
        }
      ],
      "name": "opposite",
      "outputs": [
        {
          "internalType": "uint256",
          "name": "",
          "type": "uint256"
        }
      ],
      "stateMutability": "pure",
      "type": "function"
    },
    {
      "inputs": [],
      "name": "randKeccak",
      "outputs": [
        {
          "internalType": "bytes32",
          "name": "",
          "type": "bytes32"
        }
      ],
      "stateMutability": "nonpayable",
      "type": "function"
    },
    {
      "inputs": [
        {
          "internalType": "uint256",
          "name": "_gameId",
          "type": "uint256"
        },
        {
          "internalType": "uint256",
          "name": "_for",
          "type": "uint256"
        },
        {
          "internalType": "uint256",
          "name": "_against",
          "type": "uint256"
        }
      ],
      "name": "resolveChallenge",
      "outputs": [
        {
          "internalType": "bool",
          "name": "",
          "type": "bool"
        }
      ],
      "stateMutability": "nonpayable",
      "type": "function"
    },
    {
      "inputs": [
        {
          "internalType": "uint256",
          "name": "_gameId",
          "type": "uint256"
        }
      ],
      "name": "roll",
      "outputs": [
        {
          "internalType": "uint256",
          "name": "",
          "type": "uint256"
        }
      ],
      "stateMutability": "nonpayable",
      "type": "function"
    },
    {
      "inputs": [
        {
          "internalType": "bytes32",
          "name": "_hash",
          "type": "bytes32"
        },
        {
          "internalType": "uint256",
          "name": "_size",
          "type": "uint256"
        },
        {
          "internalType": "uint256",
          "name": "_offset",
          "type": "uint256"
        }
      ],
      "name": "sliceHashToSmallInt",
      "outputs": [
        {
          "internalType": "uint8",
          "name": "",
          "type": "uint8"
        }
      ],
      "stateMutability": "pure",
      "type": "function"
    },
    {
      "inputs": [
        {
          "internalType": "uint8",
          "name": "_min",
          "type": "uint8"
        },
        {
          "internalType": "uint8",
          "name": "_max",
          "type": "uint8"
        }
      ],
      "name": "smallIntBetweenVals",
      "outputs": [
        {
          "internalType": "uint8",
          "name": "",
          "type": "uint8"
        }
      ],
      "stateMutability": "nonpayable",
      "type": "function"
    }
  ],
  "transactionHash": "0xb51914cd3e0a710c07c1242562cc1319cf63afaa3d528cb65eb60967bd53c567",
  "args": [],
  "numDeployments": 1,
  "solcInputHash": "ae622bfc290d8310b7fc5584e4c698c1",
  "bytecode": "0x60806040526000805534801561001457600080fd5b50610d2a806100246000396000f3fe608060405234801561001057600080fd5b50600436106100b45760003560e01c80638214f222116100715780638214f22214610155578063951fc3fe1461016857806397f34c3f1461019c578063ce28613f146101af578063f10bff2b146101c2578063fa3993c2146101d557600080fd5b80631b5ac4b5146100b95780631e1de205146100df5780631f7b4f30146100e757806353011696146100fa5780635dc969671461011f57806364db84bf14610142575b600080fd5b6100cc6100c7366004610868565b6101e8565b6040519081526020015b60405180910390f35b6100cc610208565b6100cc6100f5366004610868565b61027c565b61010d610108366004610881565b6102d8565b60405160ff90911681526020016100d6565b61013261012d3660046108b3565b610315565b60405190151581526020016100d6565b6100cc6101503660046108df565b6103b2565b6100cc610163366004610868565b6103ca565b61017b610176366004610999565b610449565b60408051825160ff90811682526020938401511692810192909252016100d6565b61010d6101aa3660046108b3565b610573565b61010d6101bd3660046109c6565b61059e565b6100cc6101d03660046109f0565b61064a565b6100cc6101e33660046109f0565b610697565b600080821215610200576101fb82610a32565b610202565b815b92915050565b60008054818061021783610a4e565b909155505060005461022a600143610a67565b403360405160200161026193929190928352602083019190915260601b6bffffffffffffffffffffffff1916604082015260540190565b60405160208183030381529060405280519060200120905090565b60008061028b6001600661059e565b60ff1690507ffe34d093a460a16ee5fb374540914d1c734a17502c0c1a87b387c8d6097e1c5183826040516102ca929190918252602082015260400190565b60405180910390a192915050565b6000806102e58686610a67565b90506000836102f48684610a7a565b6102fe9190610aa7565b905061030a8782610abb565b979650505050505050565b6000806103218561027c565b6040805187815260208101839052908101869052606081018590529091507f75b6a8325595f91135e07382840634226793c68c9e59623da7e10d7ad3d95b959060800160405180910390a18060010361037e5760009150506103ab565b60038361038b8684610abb565b6103959190610ace565b13156103a55760019150506103ab565b60009150505b9392505050565b6000816103c0846004610a7a565b6103ab9190610abb565b6000816000036103dc57506001919050565b816001036103ec57506000919050565b816002036103fc57506003919050565b8160030361040c57506002919050565b60405162461bcd60e51b815260206004820152600d60248201526c2130b2103234b932b1ba34b7b760991b60448201526064015b60405180910390fd5b60408051808201909152600080825260208201528260000361049b576040518060400160405280600184600001516104819190610af5565b60ff168152602001836020015160ff168152509050610202565b826001036104bf576040518060400160405280836000015160016104819190610b0e565b826002036104fc576040518060400160405280836000015160ff168152602001836020015160016104f09190610b0e565b60ff1690529050610202565b8260030361052d576040518060400160405280836000015160ff168152602001600184602001516104f09190610af5565b60006105388461075f565b6040516020016105489190610b4b565b60405160208183030381529060405290508060405162461bcd60e51b81526004016104409190610b86565b600080826001610584866002610c9d565b61058e9190610a67565b901b8516831c9150509392505050565b6000805481806105ad83610a4e565b90915550506000805433906105c3600143610a67565b60405160609390931b6bffffffffffffffffffffffff19166020840152603483019190915240605482015260740160408051601f198184030181529190528051602090910120905060006106178585610af5565b610622906001610b0e565b90508460ff168160ff16836106379190610ca9565b6106419190610abb565b95945050505050565b60008061066a836000015160000b856000015160000b6100c79190610ace565b9050600061068b846020015160000b866020015160000b6100c79190610ace565b90506106418183610abb565b805182516000916106a791610cbd565b60000b6001036106b957506000610202565b815183516106c79190610cbd565b60000b196106d757506001610202565b816020015183602001516106eb9190610cbd565b60000b196106fb57506002610202565b8160200151836020015161070f9190610cbd565b60000b60010361072157506003610202565b60405162461bcd60e51b8152602060048201526013602482015272115c9c9bdc8e88139bdd0818591a9858d95b9d606a1b6044820152606401610440565b6060816000036107865750506040805180820190915260018152600360fc1b602082015290565b8160005b81156107b0578061079a81610a4e565b91506107a99050600a83610aa7565b915061078a565b60008167ffffffffffffffff8111156107cb576107cb610901565b6040519080825280601f01601f1916602001820160405280156107f5576020820181803683370190505b5090505b84156108605761080a600183610a67565b9150610817600a86610ca9565b610822906030610abb565b60f81b81838151811061083757610837610cde565b60200101906001600160f81b031916908160001a905350610859600a86610aa7565b94506107f9565b949350505050565b60006020828403121561087a57600080fd5b5035919050565b6000806000806080858703121561089757600080fd5b5050823594602084013594506040840135936060013592509050565b6000806000606084860312156108c857600080fd5b505081359360208301359350604090920135919050565b600080604083850312156108f257600080fd5b50508035926020909101359150565b634e487b7160e01b600052604160045260246000fd5b803560ff8116811461092857600080fd5b919050565b60006040828403121561093f57600080fd5b6040516040810181811067ffffffffffffffff8211171561097057634e487b7160e01b600052604160045260246000fd5b60405290508061097f83610917565b815261098d60208401610917565b60208201525092915050565b600080606083850312156109ac57600080fd5b823591506109bd846020850161092d565b90509250929050565b600080604083850312156109d957600080fd5b6109e283610917565b91506109bd60208401610917565b60008060808385031215610a0357600080fd5b610a0d848461092d565b91506109bd846040850161092d565b634e487b7160e01b600052601160045260246000fd5b6000600160ff1b8201610a4757610a47610a1c565b5060000390565b600060018201610a6057610a60610a1c565b5060010190565b8181038181111561020257610202610a1c565b808202811582820484141761020257610202610a1c565b634e487b7160e01b600052601260045260246000fd5b600082610ab657610ab6610a91565b500490565b8082018082111561020257610202610a1c565b8181036000831280158383131683831282161715610aee57610aee610a1c565b5092915050565b60ff828116828216039081111561020257610202610a1c565b60ff818116838216019081111561020257610202610a1c565b60005b83811015610b42578181015183820152602001610b2a565b50506000910152565b72024b73b30b634b2103234b932b1ba34b7b71d1606d1b815260008251610b79816013850160208701610b27565b9190910160130192915050565b6020815260008251806020840152610ba5816040850160208701610b27565b601f01601f19169190910160400192915050565b600181815b80851115610bf4578160001904821115610bda57610bda610a1c565b80851615610be757918102915b93841c9390800290610bbe565b509250929050565b600082610c0b57506001610202565b81610c1857506000610202565b8160018114610c2e5760028114610c3857610c54565b6001915050610202565b60ff841115610c4957610c49610a1c565b50506001821b610202565b5060208310610133831016604e8410600b8410161715610c77575081810a610202565b610c818383610bb9565b8060001904821115610c9557610c95610a1c565b029392505050565b60006103ab8383610bfc565b600082610cb857610cb8610a91565b500690565b600082810b9082900b03607f198112607f8213171561020257610202610a1c565b634e487b7160e01b600052603260045260246000fdfea2646970667358221220588dae63da2b2351d531cd25f5e8c46fbfda84617109ff3f9e5d17df78bdf35064736f6c63430008110033",
  "devdoc": {
    "kind": "dev",
    "methods": {},
    "version": 1
  },
  "userdoc": {
    "kind": "user",
    "methods": {},
    "version": 1
  },
  "storageLayout": {
    "storage": [
      {
        "astId": 19617,
        "contract": "contracts/BCUtils.sol:BCUtils",
        "label": "TODO_randomSeed",
        "offset": 0,
        "slot": "0",
        "type": "t_uint256"
      }
    ],
    "types": {
      "t_uint256": {
        "encoding": "inplace",
        "label": "uint256",
        "numberOfBytes": "32"
      }
    }
  }
}