{
  "address": "0x8932bD6Fd69f686fb80D8cedFd8898796e210357",
  "abi": [
    {
      "anonymous": false,
      "inputs": [
        {
          "indexed": false,
          "internalType": "uint256",
          "name": "gameId",
          "type": "uint256"
        },
        {
          "indexed": false,
          "internalType": "uint256",
          "name": "roll",
          "type": "uint256"
        },
        {
          "indexed": false,
          "internalType": "uint256",
          "name": "forValue",
          "type": "uint256"
        },
        {
          "indexed": false,
          "internalType": "uint256",
          "name": "against",
          "type": "uint256"
        }
      ],
      "name": "ChallengeEvent",
      "type": "event"
    },
    {
      "anonymous": false,
      "inputs": [
        {
          "indexed": false,
          "internalType": "uint256",
          "name": "gameId",
          "type": "uint256"
        },
        {
          "indexed": false,
          "internalType": "uint256",
          "name": "roll",
          "type": "uint256"
        }
      ],
      "name": "DiceRollEvent",
      "type": "event"
    },
    {
      "inputs": [
        {
          "internalType": "int256",
          "name": "x",
          "type": "int256"
        }
      ],
      "name": "abs",
      "outputs": [
        {
          "internalType": "int256",
          "name": "",
          "type": "int256"
        }
      ],
      "stateMutability": "pure",
      "type": "function"
    },
    {
      "inputs": [
        {
          "components": [
            {
              "internalType": "uint8",
              "name": "row",
              "type": "uint8"
            },
            {
              "internalType": "uint8",
              "name": "col",
              "type": "uint8"
            }
          ],
          "internalType": "struct BCTypes.Position",
          "name": "_firstRoom",
          "type": "tuple"
        },
        {
          "components": [
            {
              "internalType": "uint8",
              "name": "row",
              "type": "uint8"
            },
            {
              "internalType": "uint8",
              "name": "col",
              "type": "uint8"
            }
          ],
          "internalType": "struct BCTypes.Position",
          "name": "_secondRoom",
          "type": "tuple"
        }
      ],
      "name": "getDirectionBetween",
      "outputs": [
        {
          "internalType": "uint256",
          "name": "",
          "type": "uint256"
        }
      ],
      "stateMutability": "pure",
      "type": "function"
    },
    {
      "inputs": [
        {
          "internalType": "uint256",
          "name": "_gameId",
          "type": "uint256"
        }
      ],
      "name": "getEventBlocks",
      "outputs": [
        {
          "internalType": "uint256[]",
          "name": "",
          "type": "uint256[]"
        }
      ],
      "stateMutability": "view",
      "type": "function"
    },
    {
      "inputs": [
        {
          "internalType": "uint256",
          "name": "_direction",
          "type": "uint256"
        },
        {
          "components": [
            {
              "internalType": "uint8",
              "name": "row",
              "type": "uint8"
            },
            {
              "internalType": "uint8",
              "name": "col",
              "type": "uint8"
            }
          ],
          "internalType": "struct BCTypes.Position",
          "name": "_start",
          "type": "tuple"
        }
      ],
      "name": "getNeighborRoom",
      "outputs": [
        {
          "components": [
            {
              "internalType": "uint8",
              "name": "row",
              "type": "uint8"
            },
            {
              "internalType": "uint8",
              "name": "col",
              "type": "uint8"
            }
          ],
          "internalType": "struct BCTypes.Position",
          "name": "",
          "type": "tuple"
        }
      ],
      "stateMutability": "pure",
      "type": "function"
    },
    {
      "inputs": [
        {
          "internalType": "uint256",
          "name": "_traitNum",
          "type": "uint256"
        },
        {
          "internalType": "uint256",
          "name": "_subTraitNum",
          "type": "uint256"
        }
      ],
      "name": "getUIOffset",
      "outputs": [
        {
          "internalType": "uint256",
          "name": "",
          "type": "uint256"
        }
      ],
      "stateMutability": "pure",
      "type": "function"
    },
    {
      "inputs": [
        {
          "components": [
            {
              "internalType": "uint8",
              "name": "row",
              "type": "uint8"
            },
            {
              "internalType": "uint8",
              "name": "col",
              "type": "uint8"
            }
          ],
          "internalType": "struct BCTypes.Position",
          "name": "_pos1",
          "type": "tuple"
        },
        {
          "components": [
            {
              "internalType": "uint8",
              "name": "row",
              "type": "uint8"
            },
            {
              "internalType": "uint8",
              "name": "col",
              "type": "uint8"
            }
          ],
          "internalType": "struct BCTypes.Position",
          "name": "_pos2",
          "type": "tuple"
        }
      ],
      "name": "manhattanDistance",
      "outputs": [
        {
          "internalType": "uint256",
          "name": "",
          "type": "uint256"
        }
      ],
      "stateMutability": "pure",
      "type": "function"
    },
    {
      "inputs": [
        {
          "internalType": "uint256",
          "name": "_min",
          "type": "uint256"
        },
        {
          "internalType": "uint256",
          "name": "_max",
          "type": "uint256"
        },
        {
          "internalType": "uint256",
          "name": "_val",
          "type": "uint256"
        },
        {
          "internalType": "uint256",
          "name": "_valMax",
          "type": "uint256"
        }
      ],
      "name": "normalizeToSmallRange",
      "outputs": [
        {
          "internalType": "uint8",
          "name": "",
          "type": "uint8"
        }
      ],
      "stateMutability": "pure",
      "type": "function"
    },
    {
      "inputs": [
        {
          "internalType": "uint256",
          "name": "_direction",
          "type": "uint256"
        }
      ],
      "name": "opposite",
      "outputs": [
        {
          "internalType": "uint256",
          "name": "",
          "type": "uint256"
        }
      ],
      "stateMutability": "pure",
      "type": "function"
    },
    {
      "inputs": [],
      "name": "randKeccak",
      "outputs": [
        {
          "internalType": "bytes32",
          "name": "",
          "type": "bytes32"
        }
      ],
      "stateMutability": "nonpayable",
      "type": "function"
    },
    {
      "inputs": [
        {
          "internalType": "uint256",
          "name": "_gameId",
          "type": "uint256"
        },
        {
          "internalType": "uint256",
          "name": "_for",
          "type": "uint256"
        },
        {
          "internalType": "uint256",
          "name": "_against",
          "type": "uint256"
        }
      ],
      "name": "resolveChallenge",
      "outputs": [
        {
          "internalType": "bool",
          "name": "",
          "type": "bool"
        }
      ],
      "stateMutability": "nonpayable",
      "type": "function"
    },
    {
      "inputs": [
        {
          "internalType": "uint256",
          "name": "_gameId",
          "type": "uint256"
        }
      ],
      "name": "roll",
      "outputs": [
        {
          "internalType": "uint256",
          "name": "",
          "type": "uint256"
        }
      ],
      "stateMutability": "nonpayable",
      "type": "function"
    },
    {
      "inputs": [
        {
          "internalType": "bytes32",
          "name": "_hash",
          "type": "bytes32"
        },
        {
          "internalType": "uint256",
          "name": "_size",
          "type": "uint256"
        },
        {
          "internalType": "uint256",
          "name": "_offset",
          "type": "uint256"
        }
      ],
      "name": "sliceHashToSmallInt",
      "outputs": [
        {
          "internalType": "uint8",
          "name": "",
          "type": "uint8"
        }
      ],
      "stateMutability": "pure",
      "type": "function"
    },
    {
      "inputs": [
        {
          "internalType": "uint8",
          "name": "_min",
          "type": "uint8"
        },
        {
          "internalType": "uint8",
          "name": "_max",
          "type": "uint8"
        }
      ],
      "name": "smallIntBetweenVals",
      "outputs": [
        {
          "internalType": "uint8",
          "name": "",
          "type": "uint8"
        }
      ],
      "stateMutability": "nonpayable",
      "type": "function"
    }
  ],
  "transactionHash": "0x71dc2ae36e400dbd08be2e313e8fd7ef684ed871c946fb957cf7bc499016856c",
  "args": [],
  "numDeployments": 1,
  "solcInputHash": "95fd6822a2af1851844f0c53e2691a42",
  "bytecode": "0x60806040526000805534801561001457600080fd5b50610e32806100246000396000f3fe608060405234801561001057600080fd5b50600436106100cf5760003560e01c806364db84bf1161008c57806397f34c3f1161006657806397f34c3f146101db578063ce28613f146101ee578063f10bff2b14610201578063fa3993c21461021457600080fd5b806364db84bf146101815780638214f22214610194578063951fc3fe146101a757600080fd5b80630e73c024146100d45780631b5ac4b5146100fd5780631e1de2051461011e5780631f7b4f301461012657806353011696146101395780635dc969671461015e575b600080fd5b6100e76100e236600461092c565b610227565b6040516100f49190610945565b60405180910390f35b61011061010b36600461092c565b610247565b6040519081526020016100f4565b610110610263565b61011061013436600461092c565b6102d7565b61014c610147366004610989565b610333565b60405160ff90911681526020016100f4565b61017161016c3660046109bb565b610370565b60405190151581526020016100f4565b61011061018f3660046109e7565b61040d565b6101106101a236600461092c565b610425565b6101ba6101b5366004610aa1565b6104a4565b60408051825160ff90811682526020938401511692810192909252016100f4565b61014c6101e93660046109bb565b6105ce565b61014c6101fc366004610ace565b6105f9565b61011061020f366004610af8565b6106a5565b610110610222366004610af8565b6106f2565b6000818152600160205260409020606090610241906107ba565b92915050565b60008082121561025f5761025a82610b3a565b610241565b5090565b60008054818061027283610b56565b9091555050600054610285600143610b6f565b40336040516020016102bc93929190928352602083019190915260601b6bffffffffffffffffffffffff1916604082015260540190565b60405160208183030381529060405280519060200120905090565b6000806102e6600160066105f9565b60ff1690507ffe34d093a460a16ee5fb374540914d1c734a17502c0c1a87b387c8d6097e1c518382604051610325929190918252602082015260400190565b60405180910390a192915050565b6000806103408686610b6f565b905060008361034f8684610b82565b6103599190610baf565b90506103658782610bc3565b979650505050505050565b60008061037c856102d7565b6040805187815260208101839052908101869052606081018590529091507f75b6a8325595f91135e07382840634226793c68c9e59623da7e10d7ad3d95b959060800160405180910390a1806001036103d9576000915050610406565b6003836103e68684610bc3565b6103f09190610bd6565b1315610400576001915050610406565b60009150505b9392505050565b60008161041b846004610b82565b6104069190610bc3565b60008160000361043757506001919050565b8160010361044757506000919050565b8160020361045757506003919050565b8160030361046757506002919050565b60405162461bcd60e51b815260206004820152600d60248201526c2130b2103234b932b1ba34b7b760991b60448201526064015b60405180910390fd5b6040805180820190915260008082526020820152826000036104f6576040518060400160405280600184600001516104dc9190610bfd565b60ff168152602001836020015160ff168152509050610241565b8260010361051a576040518060400160405280836000015160016104dc9190610c16565b82600203610557576040518060400160405280836000015160ff1681526020018360200151600161054b9190610c16565b60ff1690529050610241565b82600303610588576040518060400160405280836000015160ff1681526020016001846020015161054b9190610bfd565b6000610593846107c7565b6040516020016105a39190610c53565b60405160208183030381529060405290508060405162461bcd60e51b815260040161049b9190610c8e565b6000808260016105df866002610da5565b6105e99190610b6f565b901b8516831c9150509392505050565b60008054818061060883610b56565b909155505060008054339061061e600143610b6f565b60405160609390931b6bffffffffffffffffffffffff19166020840152603483019190915240605482015260740160408051601f198184030181529190528051602090910120905060006106728585610bfd565b61067d906001610c16565b90508460ff168160ff16836106929190610db1565b61069c9190610bc3565b95945050505050565b6000806106c5836000015160000b856000015160000b61010b9190610bd6565b905060006106e6846020015160000b866020015160000b61010b9190610bd6565b905061069c8183610bc3565b8051825160009161070291610dc5565b60000b60010361071457506000610241565b815183516107229190610dc5565b60000b1961073257506001610241565b816020015183602001516107469190610dc5565b60000b1961075657506002610241565b8160200151836020015161076a9190610dc5565b60000b60010361077c57506003610241565b60405162461bcd60e51b8152602060048201526013602482015272115c9c9bdc8e88139bdd0818591a9858d95b9d606a1b604482015260640161049b565b60606000610406836108d0565b6060816000036107ee5750506040805180820190915260018152600360fc1b602082015290565b8160005b8115610818578061080281610b56565b91506108119050600a83610baf565b91506107f2565b60008167ffffffffffffffff81111561083357610833610a09565b6040519080825280601f01601f19166020018201604052801561085d576020820181803683370190505b5090505b84156108c857610872600183610b6f565b915061087f600a86610db1565b61088a906030610bc3565b60f81b81838151811061089f5761089f610de6565b60200101906001600160f81b031916908160001a9053506108c1600a86610baf565b9450610861565b949350505050565b60608160000180548060200260200160405190810160405280929190818152602001828054801561092057602002820191906000526020600020905b81548152602001906001019080831161090c575b50505050509050919050565b60006020828403121561093e57600080fd5b5035919050565b6020808252825182820181905260009190848201906040850190845b8181101561097d57835183529284019291840191600101610961565b50909695505050505050565b6000806000806080858703121561099f57600080fd5b5050823594602084013594506040840135936060013592509050565b6000806000606084860312156109d057600080fd5b505081359360208301359350604090920135919050565b600080604083850312156109fa57600080fd5b50508035926020909101359150565b634e487b7160e01b600052604160045260246000fd5b803560ff81168114610a3057600080fd5b919050565b600060408284031215610a4757600080fd5b6040516040810181811067ffffffffffffffff82111715610a7857634e487b7160e01b600052604160045260246000fd5b604052905080610a8783610a1f565b8152610a9560208401610a1f565b60208201525092915050565b60008060608385031215610ab457600080fd5b82359150610ac58460208501610a35565b90509250929050565b60008060408385031215610ae157600080fd5b610aea83610a1f565b9150610ac560208401610a1f565b60008060808385031215610b0b57600080fd5b610b158484610a35565b9150610ac58460408501610a35565b634e487b7160e01b600052601160045260246000fd5b6000600160ff1b8201610b4f57610b4f610b24565b5060000390565b600060018201610b6857610b68610b24565b5060010190565b8181038181111561024157610241610b24565b808202811582820484141761024157610241610b24565b634e487b7160e01b600052601260045260246000fd5b600082610bbe57610bbe610b99565b500490565b8082018082111561024157610241610b24565b8181036000831280158383131683831282161715610bf657610bf6610b24565b5092915050565b60ff828116828216039081111561024157610241610b24565b60ff818116838216019081111561024157610241610b24565b60005b83811015610c4a578181015183820152602001610c32565b50506000910152565b72024b73b30b634b2103234b932b1ba34b7b71d1606d1b815260008251610c81816013850160208701610c2f565b9190910160130192915050565b6020815260008251806020840152610cad816040850160208701610c2f565b601f01601f19169190910160400192915050565b600181815b80851115610cfc578160001904821115610ce257610ce2610b24565b80851615610cef57918102915b93841c9390800290610cc6565b509250929050565b600082610d1357506001610241565b81610d2057506000610241565b8160018114610d365760028114610d4057610d5c565b6001915050610241565b60ff841115610d5157610d51610b24565b50506001821b610241565b5060208310610133831016604e8410600b8410161715610d7f575081810a610241565b610d898383610cc1565b8060001904821115610d9d57610d9d610b24565b029392505050565b60006104068383610d04565b600082610dc057610dc0610b99565b500690565b600082810b9082900b03607f198112607f8213171561024157610241610b24565b634e487b7160e01b600052603260045260246000fdfea26469706673582212205ea91a1922ba2e6eef432548eba6eb6395da8fbb1a20a4298a4dac42f625238764736f6c63430008110033",
  "devdoc": {
    "kind": "dev",
    "methods": {},
    "version": 1
  },
  "userdoc": {
    "kind": "user",
    "methods": {},
    "version": 1
  },
  "storageLayout": {
    "storage": [
      {
        "astId": 20570,
        "contract": "contracts/BCUtils.sol:BCUtils",
        "label": "TODO_randomSeed",
        "offset": 0,
        "slot": "0",
        "type": "t_uint256"
      },
      {
        "astId": 20575,
        "contract": "contracts/BCUtils.sol:BCUtils",
        "label": "gameToEventBlocks",
        "offset": 0,
        "slot": "1",
        "type": "t_mapping(t_uint256,t_struct(UintSet)3021_storage)"
      }
    ],
    "types": {
      "t_array(t_bytes32)dyn_storage": {
        "base": "t_bytes32",
        "encoding": "dynamic_array",
        "label": "bytes32[]",
        "numberOfBytes": "32"
      },
      "t_bytes32": {
        "encoding": "inplace",
        "label": "bytes32",
        "numberOfBytes": "32"
      },
      "t_mapping(t_bytes32,t_uint256)": {
        "encoding": "mapping",
        "key": "t_bytes32",
        "label": "mapping(bytes32 => uint256)",
        "numberOfBytes": "32",
        "value": "t_uint256"
      },
      "t_mapping(t_uint256,t_struct(UintSet)3021_storage)": {
        "encoding": "mapping",
        "key": "t_uint256",
        "label": "mapping(uint256 => struct EnumerableSet.UintSet)",
        "numberOfBytes": "32",
        "value": "t_struct(UintSet)3021_storage"
      },
      "t_struct(Set)2563_storage": {
        "encoding": "inplace",
        "label": "struct EnumerableSet.Set",
        "members": [
          {
            "astId": 2558,
            "contract": "contracts/BCUtils.sol:BCUtils",
            "label": "_values",
            "offset": 0,
            "slot": "0",
            "type": "t_array(t_bytes32)dyn_storage"
          },
          {
            "astId": 2562,
            "contract": "contracts/BCUtils.sol:BCUtils",
            "label": "_indexes",
            "offset": 0,
            "slot": "1",
            "type": "t_mapping(t_bytes32,t_uint256)"
          }
        ],
        "numberOfBytes": "64"
      },
      "t_struct(UintSet)3021_storage": {
        "encoding": "inplace",
        "label": "struct EnumerableSet.UintSet",
        "members": [
          {
            "astId": 3020,
            "contract": "contracts/BCUtils.sol:BCUtils",
            "label": "_inner",
            "offset": 0,
            "slot": "0",
            "type": "t_struct(Set)2563_storage"
          }
        ],
        "numberOfBytes": "64"
      },
      "t_uint256": {
        "encoding": "inplace",
        "label": "uint256",
        "numberOfBytes": "32"
      }
    }
  }
}