{
  "address": "0x8C5b7E4422Ad2F36c1f2d5424601Ef186b33146b",
  "abi": [
    {
      "anonymous": false,
      "inputs": [
        {
          "indexed": false,
          "internalType": "uint256",
          "name": "roll",
          "type": "uint256"
        },
        {
          "indexed": false,
          "internalType": "uint256",
          "name": "forValue",
          "type": "uint256"
        },
        {
          "indexed": false,
          "internalType": "uint256",
          "name": "against",
          "type": "uint256"
        }
      ],
      "name": "ChallengeEvent",
      "type": "event"
    },
    {
      "anonymous": false,
      "inputs": [
        {
          "indexed": false,
          "internalType": "uint256",
          "name": "roll",
          "type": "uint256"
        }
      ],
      "name": "DiceRollEvent",
      "type": "event"
    },
    {
      "inputs": [
        {
          "internalType": "int256",
          "name": "x",
          "type": "int256"
        }
      ],
      "name": "abs",
      "outputs": [
        {
          "internalType": "int256",
          "name": "",
          "type": "int256"
        }
      ],
      "stateMutability": "pure",
      "type": "function"
    },
    {
      "inputs": [
        {
          "components": [
            {
              "internalType": "uint8",
              "name": "row",
              "type": "uint8"
            },
            {
              "internalType": "uint8",
              "name": "col",
              "type": "uint8"
            }
          ],
          "internalType": "struct BCTypes.Position",
          "name": "_firstRoom",
          "type": "tuple"
        },
        {
          "components": [
            {
              "internalType": "uint8",
              "name": "row",
              "type": "uint8"
            },
            {
              "internalType": "uint8",
              "name": "col",
              "type": "uint8"
            }
          ],
          "internalType": "struct BCTypes.Position",
          "name": "_secondRoom",
          "type": "tuple"
        }
      ],
      "name": "getDirectionBetween",
      "outputs": [
        {
          "internalType": "uint256",
          "name": "",
          "type": "uint256"
        }
      ],
      "stateMutability": "pure",
      "type": "function"
    },
    {
      "inputs": [
        {
          "internalType": "uint256",
          "name": "_direction",
          "type": "uint256"
        },
        {
          "components": [
            {
              "internalType": "uint8",
              "name": "row",
              "type": "uint8"
            },
            {
              "internalType": "uint8",
              "name": "col",
              "type": "uint8"
            }
          ],
          "internalType": "struct BCTypes.Position",
          "name": "_start",
          "type": "tuple"
        }
      ],
      "name": "getNeighborRoom",
      "outputs": [
        {
          "components": [
            {
              "internalType": "uint8",
              "name": "row",
              "type": "uint8"
            },
            {
              "internalType": "uint8",
              "name": "col",
              "type": "uint8"
            }
          ],
          "internalType": "struct BCTypes.Position",
          "name": "",
          "type": "tuple"
        }
      ],
      "stateMutability": "pure",
      "type": "function"
    },
    {
      "inputs": [
        {
          "internalType": "uint256",
          "name": "_traitNum",
          "type": "uint256"
        },
        {
          "internalType": "uint256",
          "name": "_subTraitNum",
          "type": "uint256"
        }
      ],
      "name": "getUIOffset",
      "outputs": [
        {
          "internalType": "uint256",
          "name": "",
          "type": "uint256"
        }
      ],
      "stateMutability": "pure",
      "type": "function"
    },
    {
      "inputs": [
        {
          "internalType": "uint256",
          "name": "_min",
          "type": "uint256"
        },
        {
          "internalType": "uint256",
          "name": "_max",
          "type": "uint256"
        },
        {
          "internalType": "uint256",
          "name": "_val",
          "type": "uint256"
        },
        {
          "internalType": "uint256",
          "name": "_valMax",
          "type": "uint256"
        }
      ],
      "name": "normalizeToSmallRange",
      "outputs": [
        {
          "internalType": "uint8",
          "name": "",
          "type": "uint8"
        }
      ],
      "stateMutability": "pure",
      "type": "function"
    },
    {
      "inputs": [
        {
          "internalType": "uint256",
          "name": "_direction",
          "type": "uint256"
        }
      ],
      "name": "opposite",
      "outputs": [
        {
          "internalType": "uint256",
          "name": "",
          "type": "uint256"
        }
      ],
      "stateMutability": "pure",
      "type": "function"
    },
    {
      "inputs": [],
      "name": "randKeccak",
      "outputs": [
        {
          "internalType": "bytes32",
          "name": "",
          "type": "bytes32"
        }
      ],
      "stateMutability": "nonpayable",
      "type": "function"
    },
    {
      "inputs": [
        {
          "internalType": "uint256",
          "name": "_for",
          "type": "uint256"
        },
        {
          "internalType": "uint256",
          "name": "_against",
          "type": "uint256"
        }
      ],
      "name": "resolveChallenge",
      "outputs": [
        {
          "internalType": "bool",
          "name": "",
          "type": "bool"
        }
      ],
      "stateMutability": "nonpayable",
      "type": "function"
    },
    {
      "inputs": [],
      "name": "roll",
      "outputs": [
        {
          "internalType": "uint256",
          "name": "",
          "type": "uint256"
        }
      ],
      "stateMutability": "nonpayable",
      "type": "function"
    },
    {
      "inputs": [
        {
          "internalType": "bytes32",
          "name": "_hash",
          "type": "bytes32"
        },
        {
          "internalType": "uint256",
          "name": "_size",
          "type": "uint256"
        },
        {
          "internalType": "uint256",
          "name": "_offset",
          "type": "uint256"
        }
      ],
      "name": "sliceHashToSmallInt",
      "outputs": [
        {
          "internalType": "uint8",
          "name": "",
          "type": "uint8"
        }
      ],
      "stateMutability": "pure",
      "type": "function"
    },
    {
      "inputs": [
        {
          "internalType": "uint8",
          "name": "_min",
          "type": "uint8"
        },
        {
          "internalType": "uint8",
          "name": "_max",
          "type": "uint8"
        }
      ],
      "name": "smallIntBetweenVals",
      "outputs": [
        {
          "internalType": "uint8",
          "name": "",
          "type": "uint8"
        }
      ],
      "stateMutability": "nonpayable",
      "type": "function"
    }
  ],
  "transactionHash": "0xca282e1c3932ca319937ec57ea20d526d2de463f2067026136ddd1327a1e8948",
  "args": [],
  "numDeployments": 2,
  "solcInputHash": "fedce54f8dc80a552109a67f6962d510",
  "bytecode": "0x60806040526000805534801561001457600080fd5b506117ba806100246000396000f3fe608060405234801561001057600080fd5b50600436106100a95760003560e01c8063951fc3fe11610071578063951fc3fe1461018c57806397f34c3f146101bc578063cd5e3c5d146101ec578063ce28613f1461020a578063dff2fb311461023a578063fa3993c21461026a576100a9565b80631b5ac4b5146100ae5780631e1de205146100de57806353011696146100fc57806364db84bf1461012c5780638214f2221461015c575b600080fd5b6100c860048036038101906100c391906109f9565b61029a565b6040516100d59190610a35565b60405180910390f35b6100e66102bc565b6040516100f39190610a69565b60405180910390f35b61011660048036038101906101119190610aba565b610307565b6040516101239190610b3d565b60405180910390f35b61014660048036038101906101419190610b58565b61034b565b6040516101539190610ba7565b60405180910390f35b61017660048036038101906101719190610bc2565b61036d565b6040516101839190610ba7565b60405180910390f35b6101a660048036038101906101a19190610cfc565b6103f6565b6040516101b39190610d7a565b60405180910390f35b6101d660048036038101906101d19190610dc1565b610569565b6040516101e39190610b3d565b60405180910390f35b6101f46105a0565b6040516102019190610ba7565b60405180910390f35b610224600480360381019061021f9190610e14565b6105f2565b6040516102319190610b3d565b60405180910390f35b610254600480360381019061024f9190610b58565b610682565b6040516102619190610e6f565b60405180910390f35b610284600480360381019061027f9190610e8a565b610712565b6040516102919190610ba7565b60405180910390f35b6000808212156102b357816102ae90610ef9565b6102b5565b815b9050919050565b60008060008154809291906102d090610f42565b919050555060005442336040516020016102ec93929190611026565b60405160208183030381529060405280519060200120905090565b60008085856103169190611063565b905060008385836103279190611097565b6103319190611120565b9050868161033f9190611151565b92505050949350505050565b60008183600461035b9190611097565b6103659190611151565b905092915050565b60008082141561038057600190506103f1565b600182141561039257600090506103f1565b60028214156103a457600390506103f1565b60038214156103b657600290506103f1565b6040517f08c379a00000000000000000000000000000000000000000000000000000000081526004016103e890611204565b60405180910390fd5b919050565b6103fe610994565b600083141561043d576040518060400160405280600184600001516104239190611224565b60ff168152602001836020015160ff168152509050610563565b600183141561047c576040518060400160405280600184600001516104629190611258565b60ff168152602001836020015160ff168152509050610563565b60028314156104bb576040518060400160405280836000015160ff168152602001600184602001516104ae9190611258565b60ff168152509050610563565b60038314156104fa576040518060400160405280836000015160ff168152602001600184602001516104ed9190611224565b60ff168152509050610563565b600061050584610833565b604051602001610515919061132f565b6040516020818303038152906040529050806040517f08c379a000000000000000000000000000000000000000000000000000000000815260040161055a919061138e565b60405180910390fd5b92915050565b60008082600185600261057c91906114e3565b6105869190611063565b60001b901b905082818616901c60001c9150509392505050565b6000806105af600160066105f2565b60ff1690507f095cdc619082b4591c96a4dcfd31737c0f7d768edeb74d7cda25aba2eefe7268816040516105e39190610ba7565b60405180910390a18091505090565b600080600081548092919061060690610f42565b9190505550600033600054426040516020016106249392919061152e565b6040516020818303038152906040528051906020012060001c905060006001858561064f9190611224565b6106599190611258565b90508460ff168160ff168361066e919061156b565b6106789190611151565b9250505092915050565b60008061068d6105a0565b90507f5d360683067536056d2d530278a59b1f5c60a2affe207338479da0f44feda76d8185856040516106c29392919061159c565b60405180910390a160018114156106dd57600091505061070c565b60038385836106ec9190611151565b6106f691906115d3565b131561070657600191505061070c565b60009150505b92915050565b600060018260000151846000015161072a9190611674565b60000b141561073c576000905061082d565b7fffffffffffffffffffffffffffffffffffffffffffffffffffffffffffffffff826000015184600001516107719190611674565b60000b1415610783576001905061082d565b7fffffffffffffffffffffffffffffffffffffffffffffffffffffffffffffffff826020015184602001516107b89190611674565b60000b14156107ca576002905061082d565b6001826020015184602001516107e09190611674565b60000b14156107f2576003905061082d565b6040517f08c379a000000000000000000000000000000000000000000000000000000000815260040161082490611735565b60405180910390fd5b92915050565b6060600082141561087b576040518060400160405280600181526020017f3000000000000000000000000000000000000000000000000000000000000000815250905061098f565b600082905060005b600082146108ad57808061089690610f42565b915050600a826108a69190611120565b9150610883565b60008167ffffffffffffffff8111156108c9576108c8610c05565b5b6040519080825280601f01601f1916602001820160405280156108fb5781602001600182028036833780820191505090505b5090505b60008514610988576001826109149190611063565b9150600a85610923919061156b565b603061092f9190611151565b60f81b81838151811061094557610944611755565b5b60200101907effffffffffffffffffffffffffffffffffffffffffffffffffffffffffffff1916908160001a905350600a856109819190611120565b94506108ff565b8093505050505b919050565b6040518060400160405280600060ff168152602001600060ff1681525090565b6000604051905090565b600080fd5b6000819050919050565b6109d6816109c3565b81146109e157600080fd5b50565b6000813590506109f3816109cd565b92915050565b600060208284031215610a0f57610a0e6109be565b5b6000610a1d848285016109e4565b91505092915050565b610a2f816109c3565b82525050565b6000602082019050610a4a6000830184610a26565b92915050565b6000819050919050565b610a6381610a50565b82525050565b6000602082019050610a7e6000830184610a5a565b92915050565b6000819050919050565b610a9781610a84565b8114610aa257600080fd5b50565b600081359050610ab481610a8e565b92915050565b60008060008060808587031215610ad457610ad36109be565b5b6000610ae287828801610aa5565b9450506020610af387828801610aa5565b9350506040610b0487828801610aa5565b9250506060610b1587828801610aa5565b91505092959194509250565b600060ff82169050919050565b610b3781610b21565b82525050565b6000602082019050610b526000830184610b2e565b92915050565b60008060408385031215610b6f57610b6e6109be565b5b6000610b7d85828601610aa5565b9250506020610b8e85828601610aa5565b9150509250929050565b610ba181610a84565b82525050565b6000602082019050610bbc6000830184610b98565b92915050565b600060208284031215610bd857610bd76109be565b5b6000610be684828501610aa5565b91505092915050565b600080fd5b6000601f19601f8301169050919050565b7f4e487b7100000000000000000000000000000000000000000000000000000000600052604160045260246000fd5b610c3d82610bf4565b810181811067ffffffffffffffff82111715610c5c57610c5b610c05565b5b80604052505050565b6000610c6f6109b4565b9050610c7b8282610c34565b919050565b610c8981610b21565b8114610c9457600080fd5b50565b600081359050610ca681610c80565b92915050565b600060408284031215610cc257610cc1610bef565b5b610ccc6040610c65565b90506000610cdc84828501610c97565b6000830152506020610cf084828501610c97565b60208301525092915050565b60008060608385031215610d1357610d126109be565b5b6000610d2185828601610aa5565b9250506020610d3285828601610cac565b9150509250929050565b610d4581610b21565b82525050565b604082016000820151610d616000850182610d3c565b506020820151610d746020850182610d3c565b50505050565b6000604082019050610d8f6000830184610d4b565b92915050565b610d9e81610a50565b8114610da957600080fd5b50565b600081359050610dbb81610d95565b92915050565b600080600060608486031215610dda57610dd96109be565b5b6000610de886828701610dac565b9350506020610df986828701610aa5565b9250506040610e0a86828701610aa5565b9150509250925092565b60008060408385031215610e2b57610e2a6109be565b5b6000610e3985828601610c97565b9250506020610e4a85828601610c97565b9150509250929050565b60008115159050919050565b610e6981610e54565b82525050565b6000602082019050610e846000830184610e60565b92915050565b60008060808385031215610ea157610ea06109be565b5b6000610eaf85828601610cac565b9250506040610ec085828601610cac565b9150509250929050565b7f4e487b7100000000000000000000000000000000000000000000000000000000600052601160045260246000fd5b6000610f04826109c3565b91507f8000000000000000000000000000000000000000000000000000000000000000821415610f3757610f36610eca565b5b816000039050919050565b6000610f4d82610a84565b91507fffffffffffffffffffffffffffffffffffffffffffffffffffffffffffffffff821415610f8057610f7f610eca565b5b600182019050919050565b6000819050919050565b610fa6610fa182610a84565b610f8b565b82525050565b600073ffffffffffffffffffffffffffffffffffffffff82169050919050565b6000610fd782610fac565b9050919050565b60008160601b9050919050565b6000610ff682610fde565b9050919050565b600061100882610feb565b9050919050565b61102061101b82610fcc565b610ffd565b82525050565b60006110328286610f95565b6020820191506110428285610f95565b602082019150611052828461100f565b601482019150819050949350505050565b600061106e82610a84565b915061107983610a84565b92508282101561108c5761108b610eca565b5b828203905092915050565b60006110a282610a84565b91506110ad83610a84565b9250817fffffffffffffffffffffffffffffffffffffffffffffffffffffffffffffffff04831182151516156110e6576110e5610eca565b5b828202905092915050565b7f4e487b7100000000000000000000000000000000000000000000000000000000600052601260045260246000fd5b600061112b82610a84565b915061113683610a84565b925082611146576111456110f1565b5b828204905092915050565b600061115c82610a84565b915061116783610a84565b9250827fffffffffffffffffffffffffffffffffffffffffffffffffffffffffffffffff0382111561119c5761119b610eca565b5b828201905092915050565b600082825260208201905092915050565b7f42616420646972656374696f6e00000000000000000000000000000000000000600082015250565b60006111ee600d836111a7565b91506111f9826111b8565b602082019050919050565b6000602082019050818103600083015261121d816111e1565b9050919050565b600061122f82610b21565b915061123a83610b21565b92508282101561124d5761124c610eca565b5b828203905092915050565b600061126382610b21565b915061126e83610b21565b92508260ff0382111561128457611283610eca565b5b828201905092915050565b7f496e76616c696420646972656374696f6e3a2000000000000000000000000000815250565b600081519050919050565b600081905092915050565b60005b838110156112e95780820151818401526020810190506112ce565b838111156112f8576000848401525b50505050565b6000611309826112b5565b61131381856112c0565b93506113238185602086016112cb565b80840191505092915050565b600061133a8261128f565b60138201915061134a82846112fe565b915081905092915050565b6000611360826112b5565b61136a81856111a7565b935061137a8185602086016112cb565b61138381610bf4565b840191505092915050565b600060208201905081810360008301526113a88184611355565b905092915050565b60008160011c9050919050565b6000808291508390505b6001851115611407578086048111156113e3576113e2610eca565b5b60018516156113f25780820291505b8081029050611400856113b0565b94506113c7565b94509492505050565b60008261142057600190506114dc565b8161142e57600090506114dc565b8160018114611444576002811461144e5761147d565b60019150506114dc565b60ff8411156114605761145f610eca565b5b8360020a91508482111561147757611476610eca565b5b506114dc565b5060208310610133831016604e8410600b84101617156114b25782820a9050838111156114ad576114ac610eca565b5b6114dc565b6114bf84848460016113bd565b925090508184048111156114d6576114d5610eca565b5b81810290505b9392505050565b60006114ee82610a84565b91506114f983610a84565b92506115267fffffffffffffffffffffffffffffffffffffffffffffffffffffffffffffffff8484611410565b905092915050565b600061153a828661100f565b60148201915061154a8285610f95565b60208201915061155a8284610f95565b602082019150819050949350505050565b600061157682610a84565b915061158183610a84565b925082611591576115906110f1565b5b828206905092915050565b60006060820190506115b16000830186610b98565b6115be6020830185610b98565b6115cb6040830184610b98565b949350505050565b60006115de826109c3565b91506115e9836109c3565b9250827f80000000000000000000000000000000000000000000000000000000000000000182126000841215161561162457611623610eca565b5b827f7fffffffffffffffffffffffffffffffffffffffffffffffffffffffffffffff01821360008412161561165c5761165b610eca565b5b828203905092915050565b60008160000b9050919050565b600061167f82611667565b915061168a83611667565b9250827fffffffffffffffffffffffffffffffffffffffffffffffffffffffffffffff80018212600084121516156116c5576116c4610eca565b5b82607f0182136000841216156116de576116dd610eca565b5b828203905092915050565b7f4572726f723a204e6f742061646a6163656e7400000000000000000000000000600082015250565b600061171f6013836111a7565b915061172a826116e9565b602082019050919050565b6000602082019050818103600083015261174e81611712565b9050919050565b7f4e487b7100000000000000000000000000000000000000000000000000000000600052603260045260246000fdfea2646970667358221220d413ae572c188bfc04947ef81cd1ee1b6ace6fbab761c688fc2e80a53c3c5fa564736f6c634300080c0033",
  "devdoc": {
    "kind": "dev",
    "methods": {},
    "version": 1
  },
  "userdoc": {
    "kind": "user",
    "methods": {},
    "version": 1
  },
  "storageLayout": {
    "storage": [
      {
        "astId": 4260,
        "contract": "contracts/BCUtils.sol:BCUtils",
        "label": "TODO_randomSeed",
        "offset": 0,
        "slot": "0",
        "type": "t_uint256"
      }
    ],
    "types": {
      "t_uint256": {
        "encoding": "inplace",
        "label": "uint256",
        "numberOfBytes": "32"
      }
    }
  }
}