{
  "address": "0x7c56F53532D8e0dF1c45b54e842BA667cb55f927",
  "abi": [
    {
      "anonymous": false,
      "inputs": [
        {
          "indexed": true,
          "internalType": "uint256",
          "name": "gameId",
          "type": "uint256"
        },
        {
          "indexed": false,
          "internalType": "uint256",
          "name": "roll",
          "type": "uint256"
        },
        {
          "indexed": false,
          "internalType": "uint256",
          "name": "forValue",
          "type": "uint256"
        },
        {
          "indexed": false,
          "internalType": "uint256",
          "name": "against",
          "type": "uint256"
        }
      ],
      "name": "ChallengeEvent",
      "type": "event"
    },
    {
      "anonymous": false,
      "inputs": [
        {
          "indexed": true,
          "internalType": "uint256",
          "name": "gameId",
          "type": "uint256"
        },
        {
          "indexed": false,
          "internalType": "uint256",
          "name": "roll",
          "type": "uint256"
        }
      ],
      "name": "DiceRollEvent",
      "type": "event"
    },
    {
      "inputs": [
        {
          "internalType": "int256",
          "name": "x",
          "type": "int256"
        }
      ],
      "name": "abs",
      "outputs": [
        {
          "internalType": "int256",
          "name": "",
          "type": "int256"
        }
      ],
      "stateMutability": "pure",
      "type": "function"
    },
    {
      "inputs": [
        {
          "components": [
            {
              "internalType": "uint8",
              "name": "row",
              "type": "uint8"
            },
            {
              "internalType": "uint8",
              "name": "col",
              "type": "uint8"
            }
          ],
          "internalType": "struct BCTypes.Position",
          "name": "_firstRoom",
          "type": "tuple"
        },
        {
          "components": [
            {
              "internalType": "uint8",
              "name": "row",
              "type": "uint8"
            },
            {
              "internalType": "uint8",
              "name": "col",
              "type": "uint8"
            }
          ],
          "internalType": "struct BCTypes.Position",
          "name": "_secondRoom",
          "type": "tuple"
        }
      ],
      "name": "getDirectionBetween",
      "outputs": [
        {
          "internalType": "uint256",
          "name": "",
          "type": "uint256"
        }
      ],
      "stateMutability": "pure",
      "type": "function"
    },
    {
      "inputs": [
        {
          "internalType": "uint256",
          "name": "_gameId",
          "type": "uint256"
        }
      ],
      "name": "getEventBlocks",
      "outputs": [
        {
          "internalType": "uint256[]",
          "name": "",
          "type": "uint256[]"
        }
      ],
      "stateMutability": "view",
      "type": "function"
    },
    {
      "inputs": [
        {
          "internalType": "uint256",
          "name": "_direction",
          "type": "uint256"
        },
        {
          "components": [
            {
              "internalType": "uint8",
              "name": "row",
              "type": "uint8"
            },
            {
              "internalType": "uint8",
              "name": "col",
              "type": "uint8"
            }
          ],
          "internalType": "struct BCTypes.Position",
          "name": "_start",
          "type": "tuple"
        }
      ],
      "name": "getNeighborRoom",
      "outputs": [
        {
          "components": [
            {
              "internalType": "uint8",
              "name": "row",
              "type": "uint8"
            },
            {
              "internalType": "uint8",
              "name": "col",
              "type": "uint8"
            }
          ],
          "internalType": "struct BCTypes.Position",
          "name": "",
          "type": "tuple"
        }
      ],
      "stateMutability": "pure",
      "type": "function"
    },
    {
      "inputs": [
        {
          "internalType": "uint256",
          "name": "_traitNum",
          "type": "uint256"
        },
        {
          "internalType": "uint256",
          "name": "_subTraitNum",
          "type": "uint256"
        }
      ],
      "name": "getUIOffset",
      "outputs": [
        {
          "internalType": "uint256",
          "name": "",
          "type": "uint256"
        }
      ],
      "stateMutability": "pure",
      "type": "function"
    },
    {
      "inputs": [
        {
          "components": [
            {
              "internalType": "uint8",
              "name": "row",
              "type": "uint8"
            },
            {
              "internalType": "uint8",
              "name": "col",
              "type": "uint8"
            }
          ],
          "internalType": "struct BCTypes.Position",
          "name": "_pos1",
          "type": "tuple"
        },
        {
          "components": [
            {
              "internalType": "uint8",
              "name": "row",
              "type": "uint8"
            },
            {
              "internalType": "uint8",
              "name": "col",
              "type": "uint8"
            }
          ],
          "internalType": "struct BCTypes.Position",
          "name": "_pos2",
          "type": "tuple"
        }
      ],
      "name": "manhattanDistance",
      "outputs": [
        {
          "internalType": "uint256",
          "name": "",
          "type": "uint256"
        }
      ],
      "stateMutability": "pure",
      "type": "function"
    },
    {
      "inputs": [
        {
          "internalType": "uint256",
          "name": "_min",
          "type": "uint256"
        },
        {
          "internalType": "uint256",
          "name": "_max",
          "type": "uint256"
        },
        {
          "internalType": "uint256",
          "name": "_val",
          "type": "uint256"
        },
        {
          "internalType": "uint256",
          "name": "_valMax",
          "type": "uint256"
        }
      ],
      "name": "normalizeToSmallRange",
      "outputs": [
        {
          "internalType": "uint8",
          "name": "",
          "type": "uint8"
        }
      ],
      "stateMutability": "pure",
      "type": "function"
    },
    {
      "inputs": [
        {
          "internalType": "uint256",
          "name": "_direction",
          "type": "uint256"
        }
      ],
      "name": "opposite",
      "outputs": [
        {
          "internalType": "uint256",
          "name": "",
          "type": "uint256"
        }
      ],
      "stateMutability": "pure",
      "type": "function"
    },
    {
      "inputs": [],
      "name": "randKeccak",
      "outputs": [
        {
          "internalType": "bytes32",
          "name": "",
          "type": "bytes32"
        }
      ],
      "stateMutability": "nonpayable",
      "type": "function"
    },
    {
      "inputs": [
        {
          "internalType": "uint256",
          "name": "_gameId",
          "type": "uint256"
        },
        {
          "internalType": "uint256",
          "name": "_for",
          "type": "uint256"
        },
        {
          "internalType": "uint256",
          "name": "_against",
          "type": "uint256"
        }
      ],
      "name": "resolveChallenge",
      "outputs": [
        {
          "internalType": "bool",
          "name": "",
          "type": "bool"
        }
      ],
      "stateMutability": "nonpayable",
      "type": "function"
    },
    {
      "inputs": [
        {
          "internalType": "uint256",
          "name": "_gameId",
          "type": "uint256"
        }
      ],
      "name": "roll",
      "outputs": [
        {
          "internalType": "uint256",
          "name": "",
          "type": "uint256"
        }
      ],
      "stateMutability": "nonpayable",
      "type": "function"
    },
    {
      "inputs": [
        {
          "internalType": "bytes32",
          "name": "_hash",
          "type": "bytes32"
        },
        {
          "internalType": "uint256",
          "name": "_size",
          "type": "uint256"
        },
        {
          "internalType": "uint256",
          "name": "_offset",
          "type": "uint256"
        }
      ],
      "name": "sliceHashToSmallInt",
      "outputs": [
        {
          "internalType": "uint8",
          "name": "",
          "type": "uint8"
        }
      ],
      "stateMutability": "pure",
      "type": "function"
    },
    {
      "inputs": [
        {
          "internalType": "uint8",
          "name": "_min",
          "type": "uint8"
        },
        {
          "internalType": "uint8",
          "name": "_max",
          "type": "uint8"
        }
      ],
      "name": "smallIntBetweenVals",
      "outputs": [
        {
          "internalType": "uint8",
          "name": "",
          "type": "uint8"
        }
      ],
      "stateMutability": "nonpayable",
      "type": "function"
    }
  ],
  "transactionHash": "0xad877817663dcfe75904d79fe8c1097a57e93080d37a7b8f23f7d48a1edbeb75",
  "args": [],
  "numDeployments": 1,
  "solcInputHash": "e5f151f5cbc45bae039f883ab05df643",
  "bytecode": "0x60806040526000805534801561001457600080fd5b50610e25806100246000396000f3fe608060405234801561001057600080fd5b50600436106100cf5760003560e01c806364db84bf1161008c57806397f34c3f1161006657806397f34c3f146101db578063ce28613f146101ee578063f10bff2b14610201578063fa3993c21461021457600080fd5b806364db84bf146101815780638214f22214610194578063951fc3fe146101a757600080fd5b80630e73c024146100d45780631b5ac4b5146100fd5780631e1de2051461011e5780631f7b4f301461012657806353011696146101395780635dc969671461015e575b600080fd5b6100e76100e236600461091f565b610227565b6040516100f49190610938565b60405180910390f35b61011061010b36600461091f565b610247565b6040519081526020016100f4565b610110610263565b61011061013436600461091f565b6102d7565b61014c61014736600461097c565b61032b565b60405160ff90911681526020016100f4565b61017161016c3660046109ae565b610368565b60405190151581526020016100f4565b61011061018f3660046109da565b610400565b6101106101a236600461091f565b610418565b6101ba6101b5366004610a94565b610497565b60408051825160ff90811682526020938401511692810192909252016100f4565b61014c6101e93660046109ae565b6105c1565b61014c6101fc366004610ac1565b6105ec565b61011061020f366004610aeb565b610698565b610110610222366004610aeb565b6106e5565b6000818152600160205260409020606090610241906107ad565b92915050565b60008082121561025f5761025a82610b2d565b610241565b5090565b60008054818061027283610b49565b9091555050600054610285600143610b62565b40336040516020016102bc93929190928352602083019190915260601b6bffffffffffffffffffffffff1916604082015260540190565b60405160208183030381529060405280519060200120905090565b6000806102e6600160066105ec565b60ff169050827ffe34d093a460a16ee5fb374540914d1c734a17502c0c1a87b387c8d6097e1c518260405161031d91815260200190565b60405180910390a292915050565b6000806103388686610b62565b90506000836103478684610b75565b6103519190610ba2565b905061035d8782610bb6565b979650505050505050565b600080610374856102d7565b604080518281526020810187905290810185905290915085907f75b6a8325595f91135e07382840634226793c68c9e59623da7e10d7ad3d95b959060600160405180910390a2806001036103cc5760009150506103f9565b6003836103d98684610bb6565b6103e39190610bc9565b13156103f35760019150506103f9565b60009150505b9392505050565b60008161040e846004610b75565b6103f99190610bb6565b60008160000361042a57506001919050565b8160010361043a57506000919050565b8160020361044a57506003919050565b8160030361045a57506002919050565b60405162461bcd60e51b815260206004820152600d60248201526c2130b2103234b932b1ba34b7b760991b60448201526064015b60405180910390fd5b6040805180820190915260008082526020820152826000036104e9576040518060400160405280600184600001516104cf9190610bf0565b60ff168152602001836020015160ff168152509050610241565b8260010361050d576040518060400160405280836000015160016104cf9190610c09565b8260020361054a576040518060400160405280836000015160ff1681526020018360200151600161053e9190610c09565b60ff1690529050610241565b8260030361057b576040518060400160405280836000015160ff1681526020016001846020015161053e9190610bf0565b6000610586846107ba565b6040516020016105969190610c46565b60405160208183030381529060405290508060405162461bcd60e51b815260040161048e9190610c81565b6000808260016105d2866002610d98565b6105dc9190610b62565b901b8516831c9150509392505050565b6000805481806105fb83610b49565b9091555050600080543390610611600143610b62565b60405160609390931b6bffffffffffffffffffffffff19166020840152603483019190915240605482015260740160408051601f198184030181529190528051602090910120905060006106658585610bf0565b610670906001610c09565b90508460ff168160ff16836106859190610da4565b61068f9190610bb6565b95945050505050565b6000806106b8836000015160000b856000015160000b61010b9190610bc9565b905060006106d9846020015160000b866020015160000b61010b9190610bc9565b905061068f8183610bb6565b805182516000916106f591610db8565b60000b60010361070757506000610241565b815183516107159190610db8565b60000b1961072557506001610241565b816020015183602001516107399190610db8565b60000b1961074957506002610241565b8160200151836020015161075d9190610db8565b60000b60010361076f57506003610241565b60405162461bcd60e51b8152602060048201526013602482015272115c9c9bdc8e88139bdd0818591a9858d95b9d606a1b604482015260640161048e565b606060006103f9836108c3565b6060816000036107e15750506040805180820190915260018152600360fc1b602082015290565b8160005b811561080b57806107f581610b49565b91506108049050600a83610ba2565b91506107e5565b60008167ffffffffffffffff811115610826576108266109fc565b6040519080825280601f01601f191660200182016040528015610850576020820181803683370190505b5090505b84156108bb57610865600183610b62565b9150610872600a86610da4565b61087d906030610bb6565b60f81b81838151811061089257610892610dd9565b60200101906001600160f81b031916908160001a9053506108b4600a86610ba2565b9450610854565b949350505050565b60608160000180548060200260200160405190810160405280929190818152602001828054801561091357602002820191906000526020600020905b8154815260200190600101908083116108ff575b50505050509050919050565b60006020828403121561093157600080fd5b5035919050565b6020808252825182820181905260009190848201906040850190845b8181101561097057835183529284019291840191600101610954565b50909695505050505050565b6000806000806080858703121561099257600080fd5b5050823594602084013594506040840135936060013592509050565b6000806000606084860312156109c357600080fd5b505081359360208301359350604090920135919050565b600080604083850312156109ed57600080fd5b50508035926020909101359150565b634e487b7160e01b600052604160045260246000fd5b803560ff81168114610a2357600080fd5b919050565b600060408284031215610a3a57600080fd5b6040516040810181811067ffffffffffffffff82111715610a6b57634e487b7160e01b600052604160045260246000fd5b604052905080610a7a83610a12565b8152610a8860208401610a12565b60208201525092915050565b60008060608385031215610aa757600080fd5b82359150610ab88460208501610a28565b90509250929050565b60008060408385031215610ad457600080fd5b610add83610a12565b9150610ab860208401610a12565b60008060808385031215610afe57600080fd5b610b088484610a28565b9150610ab88460408501610a28565b634e487b7160e01b600052601160045260246000fd5b6000600160ff1b8201610b4257610b42610b17565b5060000390565b600060018201610b5b57610b5b610b17565b5060010190565b8181038181111561024157610241610b17565b808202811582820484141761024157610241610b17565b634e487b7160e01b600052601260045260246000fd5b600082610bb157610bb1610b8c565b500490565b8082018082111561024157610241610b17565b8181036000831280158383131683831282161715610be957610be9610b17565b5092915050565b60ff828116828216039081111561024157610241610b17565b60ff818116838216019081111561024157610241610b17565b60005b83811015610c3d578181015183820152602001610c25565b50506000910152565b72024b73b30b634b2103234b932b1ba34b7b71d1606d1b815260008251610c74816013850160208701610c22565b9190910160130192915050565b6020815260008251806020840152610ca0816040850160208701610c22565b601f01601f19169190910160400192915050565b600181815b80851115610cef578160001904821115610cd557610cd5610b17565b80851615610ce257918102915b93841c9390800290610cb9565b509250929050565b600082610d0657506001610241565b81610d1357506000610241565b8160018114610d295760028114610d3357610d4f565b6001915050610241565b60ff841115610d4457610d44610b17565b50506001821b610241565b5060208310610133831016604e8410600b8410161715610d72575081810a610241565b610d7c8383610cb4565b8060001904821115610d9057610d90610b17565b029392505050565b60006103f98383610cf7565b600082610db357610db3610b8c565b500690565b600082810b9082900b03607f198112607f8213171561024157610241610b17565b634e487b7160e01b600052603260045260246000fdfea2646970667358221220934b01dc60be11c6b4915f03aea705ab18988c4f954dcf0cd4976127d2b8fe7864736f6c63430008110033",
  "devdoc": {
    "kind": "dev",
    "methods": {},
    "version": 1
  },
  "userdoc": {
    "kind": "user",
    "methods": {},
    "version": 1
  },
  "storageLayout": {
    "storage": [
      {
        "astId": 21561,
        "contract": "contracts/BCUtils.sol:BCUtils",
        "label": "TODO_randomSeed",
        "offset": 0,
        "slot": "0",
        "type": "t_uint256"
      },
      {
        "astId": 21566,
        "contract": "contracts/BCUtils.sol:BCUtils",
        "label": "gameToEventBlocks",
        "offset": 0,
        "slot": "1",
        "type": "t_mapping(t_uint256,t_struct(UintSet)3021_storage)"
      }
    ],
    "types": {
      "t_array(t_bytes32)dyn_storage": {
        "base": "t_bytes32",
        "encoding": "dynamic_array",
        "label": "bytes32[]",
        "numberOfBytes": "32"
      },
      "t_bytes32": {
        "encoding": "inplace",
        "label": "bytes32",
        "numberOfBytes": "32"
      },
      "t_mapping(t_bytes32,t_uint256)": {
        "encoding": "mapping",
        "key": "t_bytes32",
        "label": "mapping(bytes32 => uint256)",
        "numberOfBytes": "32",
        "value": "t_uint256"
      },
      "t_mapping(t_uint256,t_struct(UintSet)3021_storage)": {
        "encoding": "mapping",
        "key": "t_uint256",
        "label": "mapping(uint256 => struct EnumerableSet.UintSet)",
        "numberOfBytes": "32",
        "value": "t_struct(UintSet)3021_storage"
      },
      "t_struct(Set)2563_storage": {
        "encoding": "inplace",
        "label": "struct EnumerableSet.Set",
        "members": [
          {
            "astId": 2558,
            "contract": "contracts/BCUtils.sol:BCUtils",
            "label": "_values",
            "offset": 0,
            "slot": "0",
            "type": "t_array(t_bytes32)dyn_storage"
          },
          {
            "astId": 2562,
            "contract": "contracts/BCUtils.sol:BCUtils",
            "label": "_indexes",
            "offset": 0,
            "slot": "1",
            "type": "t_mapping(t_bytes32,t_uint256)"
          }
        ],
        "numberOfBytes": "64"
      },
      "t_struct(UintSet)3021_storage": {
        "encoding": "inplace",
        "label": "struct EnumerableSet.UintSet",
        "members": [
          {
            "astId": 3020,
            "contract": "contracts/BCUtils.sol:BCUtils",
            "label": "_inner",
            "offset": 0,
            "slot": "0",
            "type": "t_struct(Set)2563_storage"
          }
        ],
        "numberOfBytes": "64"
      },
      "t_uint256": {
        "encoding": "inplace",
        "label": "uint256",
        "numberOfBytes": "32"
      }
    }
  }
}