{
  "address": "0xDBe483D5C8D48ecdBb5693AA195B9083b65deA09",
  "abi": [
    {
      "anonymous": false,
      "inputs": [
        {
          "indexed": false,
          "internalType": "uint256",
          "name": "gameId",
          "type": "uint256"
        },
        {
          "indexed": false,
          "internalType": "uint256",
          "name": "roll",
          "type": "uint256"
        },
        {
          "indexed": false,
          "internalType": "uint256",
          "name": "forValue",
          "type": "uint256"
        },
        {
          "indexed": false,
          "internalType": "uint256",
          "name": "against",
          "type": "uint256"
        }
      ],
      "name": "ChallengeEvent",
      "type": "event"
    },
    {
      "anonymous": false,
      "inputs": [
        {
          "indexed": false,
          "internalType": "uint256",
          "name": "gameId",
          "type": "uint256"
        },
        {
          "indexed": false,
          "internalType": "uint256",
          "name": "roll",
          "type": "uint256"
        }
      ],
      "name": "DiceRollEvent",
      "type": "event"
    },
    {
      "inputs": [
        {
          "internalType": "int256",
          "name": "x",
          "type": "int256"
        }
      ],
      "name": "abs",
      "outputs": [
        {
          "internalType": "int256",
          "name": "",
          "type": "int256"
        }
      ],
      "stateMutability": "pure",
      "type": "function"
    },
    {
      "inputs": [
        {
          "components": [
            {
              "internalType": "uint8",
              "name": "row",
              "type": "uint8"
            },
            {
              "internalType": "uint8",
              "name": "col",
              "type": "uint8"
            }
          ],
          "internalType": "struct BCTypes.Position",
          "name": "_firstRoom",
          "type": "tuple"
        },
        {
          "components": [
            {
              "internalType": "uint8",
              "name": "row",
              "type": "uint8"
            },
            {
              "internalType": "uint8",
              "name": "col",
              "type": "uint8"
            }
          ],
          "internalType": "struct BCTypes.Position",
          "name": "_secondRoom",
          "type": "tuple"
        }
      ],
      "name": "getDirectionBetween",
      "outputs": [
        {
          "internalType": "uint256",
          "name": "",
          "type": "uint256"
        }
      ],
      "stateMutability": "pure",
      "type": "function"
    },
    {
      "inputs": [
        {
          "internalType": "uint256",
          "name": "_direction",
          "type": "uint256"
        },
        {
          "components": [
            {
              "internalType": "uint8",
              "name": "row",
              "type": "uint8"
            },
            {
              "internalType": "uint8",
              "name": "col",
              "type": "uint8"
            }
          ],
          "internalType": "struct BCTypes.Position",
          "name": "_start",
          "type": "tuple"
        }
      ],
      "name": "getNeighborRoom",
      "outputs": [
        {
          "components": [
            {
              "internalType": "uint8",
              "name": "row",
              "type": "uint8"
            },
            {
              "internalType": "uint8",
              "name": "col",
              "type": "uint8"
            }
          ],
          "internalType": "struct BCTypes.Position",
          "name": "",
          "type": "tuple"
        }
      ],
      "stateMutability": "pure",
      "type": "function"
    },
    {
      "inputs": [
        {
          "internalType": "uint256",
          "name": "_traitNum",
          "type": "uint256"
        },
        {
          "internalType": "uint256",
          "name": "_subTraitNum",
          "type": "uint256"
        }
      ],
      "name": "getUIOffset",
      "outputs": [
        {
          "internalType": "uint256",
          "name": "",
          "type": "uint256"
        }
      ],
      "stateMutability": "pure",
      "type": "function"
    },
    {
      "inputs": [
        {
          "internalType": "uint256",
          "name": "_min",
          "type": "uint256"
        },
        {
          "internalType": "uint256",
          "name": "_max",
          "type": "uint256"
        },
        {
          "internalType": "uint256",
          "name": "_val",
          "type": "uint256"
        },
        {
          "internalType": "uint256",
          "name": "_valMax",
          "type": "uint256"
        }
      ],
      "name": "normalizeToSmallRange",
      "outputs": [
        {
          "internalType": "uint8",
          "name": "",
          "type": "uint8"
        }
      ],
      "stateMutability": "pure",
      "type": "function"
    },
    {
      "inputs": [
        {
          "internalType": "uint256",
          "name": "_direction",
          "type": "uint256"
        }
      ],
      "name": "opposite",
      "outputs": [
        {
          "internalType": "uint256",
          "name": "",
          "type": "uint256"
        }
      ],
      "stateMutability": "pure",
      "type": "function"
    },
    {
      "inputs": [],
      "name": "randKeccak",
      "outputs": [
        {
          "internalType": "bytes32",
          "name": "",
          "type": "bytes32"
        }
      ],
      "stateMutability": "nonpayable",
      "type": "function"
    },
    {
      "inputs": [
        {
          "internalType": "uint256",
          "name": "_gameId",
          "type": "uint256"
        },
        {
          "internalType": "uint256",
          "name": "_for",
          "type": "uint256"
        },
        {
          "internalType": "uint256",
          "name": "_against",
          "type": "uint256"
        }
      ],
      "name": "resolveChallenge",
      "outputs": [
        {
          "internalType": "bool",
          "name": "",
          "type": "bool"
        }
      ],
      "stateMutability": "nonpayable",
      "type": "function"
    },
    {
      "inputs": [
        {
          "internalType": "uint256",
          "name": "_gameId",
          "type": "uint256"
        }
      ],
      "name": "roll",
      "outputs": [
        {
          "internalType": "uint256",
          "name": "",
          "type": "uint256"
        }
      ],
      "stateMutability": "nonpayable",
      "type": "function"
    },
    {
      "inputs": [
        {
          "internalType": "bytes32",
          "name": "_hash",
          "type": "bytes32"
        },
        {
          "internalType": "uint256",
          "name": "_size",
          "type": "uint256"
        },
        {
          "internalType": "uint256",
          "name": "_offset",
          "type": "uint256"
        }
      ],
      "name": "sliceHashToSmallInt",
      "outputs": [
        {
          "internalType": "uint8",
          "name": "",
          "type": "uint8"
        }
      ],
      "stateMutability": "pure",
      "type": "function"
    },
    {
      "inputs": [
        {
          "internalType": "uint8",
          "name": "_min",
          "type": "uint8"
        },
        {
          "internalType": "uint8",
          "name": "_max",
          "type": "uint8"
        }
      ],
      "name": "smallIntBetweenVals",
      "outputs": [
        {
          "internalType": "uint8",
          "name": "",
          "type": "uint8"
        }
      ],
      "stateMutability": "nonpayable",
      "type": "function"
    }
  ],
  "transactionHash": "0xffc0bf3fbb3e70894a97043193b4104a7883a7f73bfa147f89ad5030acca2524",
  "args": [],
  "numDeployments": 3,
  "solcInputHash": "7ac0abbebf11abf1379f7ffb2ec3a099",
  "bytecode": "0x60806040526000805534801561001457600080fd5b50610cbf806100246000396000f3fe608060405234801561001057600080fd5b50600436106100a95760003560e01c806364db84bf1161007157806364db84bf146101375780638214f2221461014a578063951fc3fe1461015d57806397f34c3f14610191578063ce28613f146101a4578063fa3993c2146101b757600080fd5b80631b5ac4b5146100ae5780631e1de205146100d45780631f7b4f30146100dc57806353011696146100ef5780635dc9696714610114575b600080fd5b6100c16100bc3660046107fd565b6101ca565b6040519081526020015b60405180910390f35b6100c16101ea565b6100c16100ea3660046107fd565b61025e565b6101026100fd366004610816565b6102ba565b60405160ff90911681526020016100cb565b610127610122366004610848565b6102f7565b60405190151581526020016100cb565b6100c1610145366004610874565b610394565b6100c16101583660046107fd565b6103ac565b61017061016b36600461092e565b61042b565b60408051825160ff90811682526020938401511692810192909252016100cb565b61010261019f366004610848565b610555565b6101026101b236600461095b565b610580565b6100c16101c5366004610985565b61062c565b6000808212156101e2576101dd826109c7565b6101e4565b815b92915050565b6000805481806101f9836109e3565b909155505060005461020c6001436109fc565b403360405160200161024393929190928352602083019190915260601b6bffffffffffffffffffffffff1916604082015260540190565b60405160208183030381529060405280519060200120905090565b60008061026d60016006610580565b60ff1690507ffe34d093a460a16ee5fb374540914d1c734a17502c0c1a87b387c8d6097e1c5183826040516102ac929190918252602082015260400190565b60405180910390a192915050565b6000806102c786866109fc565b90506000836102d68684610a0f565b6102e09190610a3c565b90506102ec8782610a50565b979650505050505050565b6000806103038561025e565b6040805187815260208101839052908101869052606081018590529091507f75b6a8325595f91135e07382840634226793c68c9e59623da7e10d7ad3d95b959060800160405180910390a18060010361036057600091505061038d565b60038361036d8684610a50565b6103779190610a63565b131561038757600191505061038d565b60009150505b9392505050565b6000816103a2846004610a0f565b61038d9190610a50565b6000816000036103be57506001919050565b816001036103ce57506000919050565b816002036103de57506003919050565b816003036103ee57506002919050565b60405162461bcd60e51b815260206004820152600d60248201526c2130b2103234b932b1ba34b7b760991b60448201526064015b60405180910390fd5b60408051808201909152600080825260208201528260000361047d576040518060400160405280600184600001516104639190610a8a565b60ff168152602001836020015160ff1681525090506101e4565b826001036104a1576040518060400160405280836000015160016104639190610aa3565b826002036104de576040518060400160405280836000015160ff168152602001836020015160016104d29190610aa3565b60ff16905290506101e4565b8260030361050f576040518060400160405280836000015160ff168152602001600184602001516104d29190610a8a565b600061051a846106f4565b60405160200161052a9190610ae0565b60405160208183030381529060405290508060405162461bcd60e51b81526004016104229190610b1b565b600080826001610566866002610c32565b61057091906109fc565b901b8516831c9150509392505050565b60008054818061058f836109e3565b90915550506000805433906105a56001436109fc565b60405160609390931b6bffffffffffffffffffffffff19166020840152603483019190915240605482015260740160408051601f198184030181529190528051602090910120905060006105f98585610a8a565b610604906001610aa3565b90508460ff168160ff16836106199190610c3e565b6106239190610a50565b95945050505050565b8051825160009161063c91610c52565b60000b60010361064e575060006101e4565b8151835161065c9190610c52565b60000b1961066c575060016101e4565b816020015183602001516106809190610c52565b60000b19610690575060026101e4565b816020015183602001516106a49190610c52565b60000b6001036106b6575060036101e4565b60405162461bcd60e51b8152602060048201526013602482015272115c9c9bdc8e88139bdd0818591a9858d95b9d606a1b6044820152606401610422565b60608160000361071b5750506040805180820190915260018152600360fc1b602082015290565b8160005b8115610745578061072f816109e3565b915061073e9050600a83610a3c565b915061071f565b60008167ffffffffffffffff81111561076057610760610896565b6040519080825280601f01601f19166020018201604052801561078a576020820181803683370190505b5090505b84156107f55761079f6001836109fc565b91506107ac600a86610c3e565b6107b7906030610a50565b60f81b8183815181106107cc576107cc610c73565b60200101906001600160f81b031916908160001a9053506107ee600a86610a3c565b945061078e565b949350505050565b60006020828403121561080f57600080fd5b5035919050565b6000806000806080858703121561082c57600080fd5b5050823594602084013594506040840135936060013592509050565b60008060006060848603121561085d57600080fd5b505081359360208301359350604090920135919050565b6000806040838503121561088757600080fd5b50508035926020909101359150565b634e487b7160e01b600052604160045260246000fd5b803560ff811681146108bd57600080fd5b919050565b6000604082840312156108d457600080fd5b6040516040810181811067ffffffffffffffff8211171561090557634e487b7160e01b600052604160045260246000fd5b604052905080610914836108ac565b8152610922602084016108ac565b60208201525092915050565b6000806060838503121561094157600080fd5b8235915061095284602085016108c2565b90509250929050565b6000806040838503121561096e57600080fd5b610977836108ac565b9150610952602084016108ac565b6000806080838503121561099857600080fd5b6109a284846108c2565b915061095284604085016108c2565b634e487b7160e01b600052601160045260246000fd5b6000600160ff1b82016109dc576109dc6109b1565b5060000390565b6000600182016109f5576109f56109b1565b5060010190565b818103818111156101e4576101e46109b1565b80820281158282048414176101e4576101e46109b1565b634e487b7160e01b600052601260045260246000fd5b600082610a4b57610a4b610a26565b500490565b808201808211156101e4576101e46109b1565b8181036000831280158383131683831282161715610a8357610a836109b1565b5092915050565b60ff82811682821603908111156101e4576101e46109b1565b60ff81811683821601908111156101e4576101e46109b1565b60005b83811015610ad7578181015183820152602001610abf565b50506000910152565b72024b73b30b634b2103234b932b1ba34b7b71d1606d1b815260008251610b0e816013850160208701610abc565b9190910160130192915050565b6020815260008251806020840152610b3a816040850160208701610abc565b601f01601f19169190910160400192915050565b600181815b80851115610b89578160001904821115610b6f57610b6f6109b1565b80851615610b7c57918102915b93841c9390800290610b53565b509250929050565b600082610ba0575060016101e4565b81610bad575060006101e4565b8160018114610bc35760028114610bcd57610be9565b60019150506101e4565b60ff841115610bde57610bde6109b1565b50506001821b6101e4565b5060208310610133831016604e8410600b8410161715610c0c575081810a6101e4565b610c168383610b4e565b8060001904821115610c2a57610c2a6109b1565b029392505050565b600061038d8383610b91565b600082610c4d57610c4d610a26565b500690565b600082810b9082900b03607f198112607f821317156101e4576101e46109b1565b634e487b7160e01b600052603260045260246000fdfea26469706673582212200b0e47ccb993982142fb10b27a727fc8e79fe64b1390f8405866be237c0db32864736f6c63430008110033",
  "devdoc": {
    "kind": "dev",
    "methods": {},
    "version": 1
  },
  "userdoc": {
    "kind": "user",
    "methods": {},
    "version": 1
  },
  "storageLayout": {
    "storage": [
      {
        "astId": 16431,
        "contract": "contracts/BCUtils.sol:BCUtils",
        "label": "TODO_randomSeed",
        "offset": 0,
        "slot": "0",
        "type": "t_uint256"
      }
    ],
    "types": {
      "t_uint256": {
        "encoding": "inplace",
        "label": "uint256",
        "numberOfBytes": "32"
      }
    }
  }
}