{
  "address": "0x9f7dA5d616754Db56e714cb98d3c8d064B81bD3D",
  "abi": [
    {
      "inputs": [
        {
          "internalType": "int256",
          "name": "x",
          "type": "int256"
        }
      ],
      "name": "abs",
      "outputs": [
        {
          "internalType": "int256",
          "name": "",
          "type": "int256"
        }
      ],
      "stateMutability": "pure",
      "type": "function"
    },
    {
      "inputs": [
        {
          "components": [
            {
              "internalType": "uint8",
              "name": "row",
              "type": "uint8"
            },
            {
              "internalType": "uint8",
              "name": "col",
              "type": "uint8"
            }
          ],
          "internalType": "struct BCTypes.Position",
          "name": "_firstRoom",
          "type": "tuple"
        },
        {
          "components": [
            {
              "internalType": "uint8",
              "name": "row",
              "type": "uint8"
            },
            {
              "internalType": "uint8",
              "name": "col",
              "type": "uint8"
            }
          ],
          "internalType": "struct BCTypes.Position",
          "name": "_secondRoom",
          "type": "tuple"
        }
      ],
      "name": "getDirectionBetween",
      "outputs": [
        {
          "internalType": "uint256",
          "name": "",
          "type": "uint256"
        }
      ],
      "stateMutability": "pure",
      "type": "function"
    },
    {
      "inputs": [
        {
          "internalType": "uint256",
          "name": "_direction",
          "type": "uint256"
        },
        {
          "components": [
            {
              "internalType": "uint8",
              "name": "row",
              "type": "uint8"
            },
            {
              "internalType": "uint8",
              "name": "col",
              "type": "uint8"
            }
          ],
          "internalType": "struct BCTypes.Position",
          "name": "_start",
          "type": "tuple"
        }
      ],
      "name": "getNeighborRoom",
      "outputs": [
        {
          "components": [
            {
              "internalType": "uint8",
              "name": "row",
              "type": "uint8"
            },
            {
              "internalType": "uint8",
              "name": "col",
              "type": "uint8"
            }
          ],
          "internalType": "struct BCTypes.Position",
          "name": "",
          "type": "tuple"
        }
      ],
      "stateMutability": "pure",
      "type": "function"
    },
    {
      "inputs": [
        {
          "internalType": "uint256",
          "name": "_traitNum",
          "type": "uint256"
        },
        {
          "internalType": "uint256",
          "name": "_subTraitNum",
          "type": "uint256"
        }
      ],
      "name": "getUIOffset",
      "outputs": [
        {
          "internalType": "uint256",
          "name": "",
          "type": "uint256"
        }
      ],
      "stateMutability": "pure",
      "type": "function"
    },
    {
      "inputs": [
        {
          "internalType": "uint256",
          "name": "_min",
          "type": "uint256"
        },
        {
          "internalType": "uint256",
          "name": "_max",
          "type": "uint256"
        },
        {
          "internalType": "uint256",
          "name": "_val",
          "type": "uint256"
        },
        {
          "internalType": "uint256",
          "name": "_valMax",
          "type": "uint256"
        }
      ],
      "name": "normalizeToSmallRange",
      "outputs": [
        {
          "internalType": "uint8",
          "name": "",
          "type": "uint8"
        }
      ],
      "stateMutability": "pure",
      "type": "function"
    },
    {
      "inputs": [],
      "name": "randKeccak",
      "outputs": [
        {
          "internalType": "bytes32",
          "name": "",
          "type": "bytes32"
        }
      ],
      "stateMutability": "nonpayable",
      "type": "function"
    },
    {
      "inputs": [],
      "name": "roll",
      "outputs": [
        {
          "internalType": "uint256",
          "name": "",
          "type": "uint256"
        }
      ],
      "stateMutability": "nonpayable",
      "type": "function"
    },
    {
      "inputs": [
        {
          "internalType": "bytes32",
          "name": "_hash",
          "type": "bytes32"
        },
        {
          "internalType": "uint256",
          "name": "_size",
          "type": "uint256"
        },
        {
          "internalType": "uint256",
          "name": "_offset",
          "type": "uint256"
        }
      ],
      "name": "sliceHashToSmallInt",
      "outputs": [
        {
          "internalType": "uint8",
          "name": "",
          "type": "uint8"
        }
      ],
      "stateMutability": "pure",
      "type": "function"
    },
    {
      "inputs": [
        {
          "internalType": "uint8",
          "name": "_min",
          "type": "uint8"
        },
        {
          "internalType": "uint8",
          "name": "_max",
          "type": "uint8"
        }
      ],
      "name": "smallIntBetweenVals",
      "outputs": [
        {
          "internalType": "uint8",
          "name": "",
          "type": "uint8"
        }
      ],
      "stateMutability": "nonpayable",
      "type": "function"
    }
  ],
  "transactionHash": "0x695cbf1e8341be601d3bac91e3b796a658722b5fee3f3c3ba80399aa785683ac",
  "args": [],
  "numDeployments": 3,
  "solcInputHash": "8c343b04fa0f2f489794f8cd2022c5d3",
  "bytecode": "0x60806040526000805534801561001457600080fd5b506111e2806100246000396000f3fe608060405234801561001057600080fd5b50600436106100935760003560e01c8063951fc3fe11610066578063951fc3fe1461014657806397f34c3f14610176578063cd5e3c5d146101a6578063ce28613f146101c4578063fa3993c2146101f457610093565b80631b5ac4b5146100985780631e1de205146100c857806353011696146100e657806364db84bf14610116575b600080fd5b6100b260048036038101906100ad919061069f565b610224565b6040516100bf91906106db565b60405180910390f35b6100d0610246565b6040516100dd919061070f565b60405180910390f35b61010060048036038101906100fb9190610760565b610291565b60405161010d91906107e3565b60405180910390f35b610130600480360381019061012b91906107fe565b6102d5565b60405161013d919061084d565b60405180910390f35b610160600480360381019061015b9190610975565b6102f7565b60405161016d91906109f3565b60405180910390f35b610190600480360381019061018b9190610a3a565b61043c565b60405161019d91906107e3565b60405180910390f35b6101ae610473565b6040516101bb919061084d565b60405180910390f35b6101de60048036038101906101d99190610a8d565b610489565b6040516101eb91906107e3565b60405180910390f35b61020e60048036038101906102099190610acd565b610519565b60405161021b919061084d565b60405180910390f35b60008082121561023d578161023890610b3c565b61023f565b815b9050919050565b600080600081548092919061025a90610b85565b9190505550600054423360405160200161027693929190610c69565b60405160208183030381529060405280519060200120905090565b60008085856102a09190610ca6565b905060008385836102b19190610cda565b6102bb9190610d63565b905086816102c99190610d94565b92505050949350505050565b6000818360046102e59190610cda565b6102ef9190610d94565b905092915050565b6102ff61063a565b600083141561033e576040518060400160405280600184600001516103249190610dea565b60ff168152602001836020015160ff168152509050610436565b600183141561037d576040518060400160405280600184600001516103639190610e1e565b60ff168152602001836020015160ff168152509050610436565b60028314156103bc576040518060400160405280836000015160ff168152602001600184602001516103af9190610e1e565b60ff168152509050610436565b60038314156103fb576040518060400160405280836000015160ff168152602001600184602001516103ee9190610dea565b60ff168152509050610436565b6040517f08c379a000000000000000000000000000000000000000000000000000000000815260040161042d90610eb2565b60405180910390fd5b92915050565b60008082600185600261044f9190611005565b6104599190610ca6565b60001b901b905082818616901c60001c9150509392505050565b600061048160016006610489565b60ff16905090565b600080600081548092919061049d90610b85565b9190505550600033600054426040516020016104bb93929190611050565b6040516020818303038152906040528051906020012060001c90506000600185856104e69190610dea565b6104f09190610e1e565b90508460ff168160ff1683610505919061108d565b61050f9190610d94565b9250505092915050565b600060018260000151846000015161053191906110cb565b60000b14156105435760009050610634565b7fffffffffffffffffffffffffffffffffffffffffffffffffffffffffffffffff8260000151846000015161057891906110cb565b60000b141561058a5760019050610634565b7fffffffffffffffffffffffffffffffffffffffffffffffffffffffffffffffff826020015184602001516105bf91906110cb565b60000b14156105d15760029050610634565b6001826020015184602001516105e791906110cb565b60000b14156105f95760039050610634565b6040517f08c379a000000000000000000000000000000000000000000000000000000000815260040161062b9061118c565b60405180910390fd5b92915050565b6040518060400160405280600060ff168152602001600060ff1681525090565b6000604051905090565b600080fd5b6000819050919050565b61067c81610669565b811461068757600080fd5b50565b60008135905061069981610673565b92915050565b6000602082840312156106b5576106b4610664565b5b60006106c38482850161068a565b91505092915050565b6106d581610669565b82525050565b60006020820190506106f060008301846106cc565b92915050565b6000819050919050565b610709816106f6565b82525050565b60006020820190506107246000830184610700565b92915050565b6000819050919050565b61073d8161072a565b811461074857600080fd5b50565b60008135905061075a81610734565b92915050565b6000806000806080858703121561077a57610779610664565b5b60006107888782880161074b565b94505060206107998782880161074b565b93505060406107aa8782880161074b565b92505060606107bb8782880161074b565b91505092959194509250565b600060ff82169050919050565b6107dd816107c7565b82525050565b60006020820190506107f860008301846107d4565b92915050565b6000806040838503121561081557610814610664565b5b60006108238582860161074b565b92505060206108348582860161074b565b9150509250929050565b6108478161072a565b82525050565b6000602082019050610862600083018461083e565b92915050565b600080fd5b6000601f19601f8301169050919050565b7f4e487b7100000000000000000000000000000000000000000000000000000000600052604160045260246000fd5b6108b68261086d565b810181811067ffffffffffffffff821117156108d5576108d461087e565b5b80604052505050565b60006108e861065a565b90506108f482826108ad565b919050565b610902816107c7565b811461090d57600080fd5b50565b60008135905061091f816108f9565b92915050565b60006040828403121561093b5761093a610868565b5b61094560406108de565b9050600061095584828501610910565b600083015250602061096984828501610910565b60208301525092915050565b6000806060838503121561098c5761098b610664565b5b600061099a8582860161074b565b92505060206109ab85828601610925565b9150509250929050565b6109be816107c7565b82525050565b6040820160008201516109da60008501826109b5565b5060208201516109ed60208501826109b5565b50505050565b6000604082019050610a0860008301846109c4565b92915050565b610a17816106f6565b8114610a2257600080fd5b50565b600081359050610a3481610a0e565b92915050565b600080600060608486031215610a5357610a52610664565b5b6000610a6186828701610a25565b9350506020610a728682870161074b565b9250506040610a838682870161074b565b9150509250925092565b60008060408385031215610aa457610aa3610664565b5b6000610ab285828601610910565b9250506020610ac385828601610910565b9150509250929050565b60008060808385031215610ae457610ae3610664565b5b6000610af285828601610925565b9250506040610b0385828601610925565b9150509250929050565b7f4e487b7100000000000000000000000000000000000000000000000000000000600052601160045260246000fd5b6000610b4782610669565b91507f8000000000000000000000000000000000000000000000000000000000000000821415610b7a57610b79610b0d565b5b816000039050919050565b6000610b908261072a565b91507fffffffffffffffffffffffffffffffffffffffffffffffffffffffffffffffff821415610bc357610bc2610b0d565b5b600182019050919050565b6000819050919050565b610be9610be48261072a565b610bce565b82525050565b600073ffffffffffffffffffffffffffffffffffffffff82169050919050565b6000610c1a82610bef565b9050919050565b60008160601b9050919050565b6000610c3982610c21565b9050919050565b6000610c4b82610c2e565b9050919050565b610c63610c5e82610c0f565b610c40565b82525050565b6000610c758286610bd8565b602082019150610c858285610bd8565b602082019150610c958284610c52565b601482019150819050949350505050565b6000610cb18261072a565b9150610cbc8361072a565b925082821015610ccf57610cce610b0d565b5b828203905092915050565b6000610ce58261072a565b9150610cf08361072a565b9250817fffffffffffffffffffffffffffffffffffffffffffffffffffffffffffffffff0483118215151615610d2957610d28610b0d565b5b828202905092915050565b7f4e487b7100000000000000000000000000000000000000000000000000000000600052601260045260246000fd5b6000610d6e8261072a565b9150610d798361072a565b925082610d8957610d88610d34565b5b828204905092915050565b6000610d9f8261072a565b9150610daa8361072a565b9250827fffffffffffffffffffffffffffffffffffffffffffffffffffffffffffffffff03821115610ddf57610dde610b0d565b5b828201905092915050565b6000610df5826107c7565b9150610e00836107c7565b925082821015610e1357610e12610b0d565b5b828203905092915050565b6000610e29826107c7565b9150610e34836107c7565b92508260ff03821115610e4a57610e49610b0d565b5b828201905092915050565b600082825260208201905092915050565b7f496e76616c696420646972656374696f6e000000000000000000000000000000600082015250565b6000610e9c601183610e55565b9150610ea782610e66565b602082019050919050565b60006020820190508181036000830152610ecb81610e8f565b9050919050565b60008160011c9050919050565b6000808291508390505b6001851115610f2957808604811115610f0557610f04610b0d565b5b6001851615610f145780820291505b8081029050610f2285610ed2565b9450610ee9565b94509492505050565b600082610f425760019050610ffe565b81610f505760009050610ffe565b8160018114610f665760028114610f7057610f9f565b6001915050610ffe565b60ff841115610f8257610f81610b0d565b5b8360020a915084821115610f9957610f98610b0d565b5b50610ffe565b5060208310610133831016604e8410600b8410161715610fd45782820a905083811115610fcf57610fce610b0d565b5b610ffe565b610fe18484846001610edf565b92509050818404811115610ff857610ff7610b0d565b5b81810290505b9392505050565b60006110108261072a565b915061101b8361072a565b92506110487fffffffffffffffffffffffffffffffffffffffffffffffffffffffffffffffff8484610f32565b905092915050565b600061105c8286610c52565b60148201915061106c8285610bd8565b60208201915061107c8284610bd8565b602082019150819050949350505050565b60006110988261072a565b91506110a38361072a565b9250826110b3576110b2610d34565b5b828206905092915050565b60008160000b9050919050565b60006110d6826110be565b91506110e1836110be565b9250827fffffffffffffffffffffffffffffffffffffffffffffffffffffffffffffff800182126000841215161561111c5761111b610b0d565b5b82607f01821360008412161561113557611134610b0d565b5b828203905092915050565b7f4572726f723a204e6f742061646a6163656e7400000000000000000000000000600082015250565b6000611176601383610e55565b915061118182611140565b602082019050919050565b600060208201905081810360008301526111a581611169565b905091905056fea264697066735822122005b479e2b361be94b0ddc3f9529b0afd8c6354f5df48fd8282e6c3823f23447764736f6c634300080c0033",
  "devdoc": {
    "kind": "dev",
    "methods": {},
    "version": 1
  },
  "userdoc": {
    "kind": "user",
    "methods": {},
    "version": 1
  },
  "storageLayout": {
    "storage": [
      {
        "astId": 5928,
        "contract": "contracts/BCUtils.sol:BCUtils",
        "label": "TODO_randomSeed",
        "offset": 0,
        "slot": "0",
        "type": "t_uint256"
      }
    ],
    "types": {
      "t_uint256": {
        "encoding": "inplace",
        "label": "uint256",
        "numberOfBytes": "32"
      }
    }
  }
}