{
  "address": "0x3539F950b86D8cB6289e040303C60eD0fdB5Ef4A",
  "abi": [
    {
      "inputs": [],
      "stateMutability": "nonpayable",
      "type": "constructor"
    },
    {
      "anonymous": false,
      "inputs": [
        {
          "indexed": true,
          "internalType": "uint256",
          "name": "lobbyNumber",
          "type": "uint256"
        },
        {
          "indexed": false,
          "internalType": "uint256",
          "name": "charId",
          "type": "uint256"
        }
      ],
      "name": "EnlistedMultiPlayer",
      "type": "event"
    },
    {
      "anonymous": false,
      "inputs": [
        {
          "indexed": true,
          "internalType": "uint256",
          "name": "gameNumber",
          "type": "uint256"
        },
        {
          "indexed": false,
          "internalType": "uint256",
          "name": "charId",
          "type": "uint256"
        }
      ],
      "name": "EnlistedSoloPlayer",
      "type": "event"
    },
    {
      "anonymous": false,
      "inputs": [
        {
          "indexed": true,
          "internalType": "address",
          "name": "previousOwner",
          "type": "address"
        },
        {
          "indexed": true,
          "internalType": "address",
          "name": "newOwner",
          "type": "address"
        }
      ],
      "name": "OwnershipTransferred",
      "type": "event"
    },
    {
      "anonymous": false,
      "inputs": [
        {
          "indexed": true,
          "internalType": "uint256",
          "name": "lobbyNumber",
          "type": "uint256"
        },
        {
          "indexed": false,
          "internalType": "uint256[]",
          "name": "playerIds",
          "type": "uint256[]"
        }
      ],
      "name": "StartedGame",
      "type": "event"
    },
    {
      "inputs": [
        {
          "internalType": "address",
          "name": "",
          "type": "address"
        },
        {
          "internalType": "uint256",
          "name": "",
          "type": "uint256"
        }
      ],
      "name": "addressToLobbies",
      "outputs": [
        {
          "internalType": "uint256",
          "name": "",
          "type": "uint256"
        }
      ],
      "stateMutability": "view",
      "type": "function"
    },
    {
      "inputs": [
        {
          "internalType": "uint256",
          "name": "_charId",
          "type": "uint256"
        },
        {
          "internalType": "address",
          "name": "charOwner",
          "type": "address"
        },
        {
          "internalType": "uint256[]",
          "name": "_itemIds",
          "type": "uint256[]"
        }
      ],
      "name": "enlistForMission",
      "outputs": [],
      "stateMutability": "nonpayable",
      "type": "function"
    },
    {
      "inputs": [
        {
          "internalType": "uint256",
          "name": "_charId",
          "type": "uint256"
        },
        {
          "internalType": "address",
          "name": "charOwner",
          "type": "address"
        },
        {
          "internalType": "uint256[]",
          "name": "_itemIds",
          "type": "uint256[]"
        }
      ],
      "name": "enlistSolo",
      "outputs": [],
      "stateMutability": "nonpayable",
      "type": "function"
    },
    {
      "inputs": [
        {
          "internalType": "uint256",
          "name": "_lobbyId",
          "type": "uint256"
        }
      ],
      "name": "extGetLobbyPlayerIndexes",
      "outputs": [
        {
          "internalType": "uint256[]",
          "name": "",
          "type": "uint256[]"
        }
      ],
      "stateMutability": "view",
      "type": "function"
    },
    {
      "inputs": [
        {
          "internalType": "uint256",
          "name": "",
          "type": "uint256"
        }
      ],
      "name": "lobbies",
      "outputs": [
        {
          "internalType": "bool",
          "name": "gameStarted",
          "type": "bool"
        },
        {
          "internalType": "uint8",
          "name": "numberOfPlayers",
          "type": "uint8"
        }
      ],
      "stateMutability": "view",
      "type": "function"
    },
    {
      "inputs": [],
      "name": "owner",
      "outputs": [
        {
          "internalType": "address",
          "name": "",
          "type": "address"
        }
      ],
      "stateMutability": "view",
      "type": "function"
    },
    {
      "inputs": [],
      "name": "renounceOwnership",
      "outputs": [],
      "stateMutability": "nonpayable",
      "type": "function"
    },
    {
      "inputs": [
        {
          "internalType": "address",
          "name": "_gameContractAddress",
          "type": "address"
        },
        {
          "internalType": "address",
          "name": "_charContractAddress",
          "type": "address"
        },
        {
          "internalType": "address",
          "name": "_playersContractAddress",
          "type": "address"
        }
      ],
      "name": "setGameContract",
      "outputs": [],
      "stateMutability": "nonpayable",
      "type": "function"
    },
    {
      "inputs": [
        {
          "internalType": "address",
          "name": "newOwner",
          "type": "address"
        }
      ],
      "name": "transferOwnership",
      "outputs": [],
      "stateMutability": "nonpayable",
      "type": "function"
    }
  ],
  "transactionHash": "0xaeede199401e20afa4d040bac3cda3fd0f7bf7f89cbc3fa9a28d5c9c047704a9",
  "args": [],
  "numDeployments": 1,
  "solcInputHash": "e5f151f5cbc45bae039f883ab05df643",
  "bytecode": "0x608060405234801561001057600080fd5b5061001a33610027565b610022610077565b610149565b600080546001600160a01b038381166001600160a01b0319831681178455604051919092169283917f8be0079c531659141344cd1fd0a4f28419497f9722a3daafe3b4186f6b6457e09190a35050565b6004805460018101825560008290526002027f8a35acfbc15ff81a39ae7d344fd709f28e8600b4aa8c65c6b64bfe7fe36bd19b01805461ffff191681556040805183815260a08101909152909160208201608080368337505081516100e592600185019250602001906100e9565b5050565b828054828255906000526020600020908101928215610124579160200282015b82811115610124578251825591602001919060010190610109565b50610130929150610134565b5090565b5b808211156101305760008155600101610135565b610d9a806101586000396000f3fe608060405234801561001057600080fd5b50600436106100935760003560e01c8063829cf77f11610066578063829cf77f146101075780638da5cb5b1461011a578063f2fde38b14610135578063f6bcb75614610148578063fffb6e781461015b57600080fd5b80631f5e4de3146100985780636a818ddc146100ad5780636e8fb4c6146100d3578063715018a6146100ff575b600080fd5b6100ab6100a6366004610a4b565b61017b565b005b6100c06100bb366004610b25565b610385565b6040519081526020015b60405180910390f35b6100e66100e1366004610b4f565b6103b6565b60408051921515835260ff9091166020830152016100ca565b6100ab6103e8565b6100ab610115366004610b68565b6103fc565b6000546040516001600160a01b0390911681526020016100ca565b6100ab610143366004610bab565b610443565b6100ab610156366004610a4b565b6104bc565b61016e610169366004610b4f565b6107ab565b6040516100ca9190610c08565b6002546001600160a01b031633146101d35760405162461bcd60e51b8152602060048201526016602482015275139bdd0818da185c9858dd195c8818dbdb9d1c9858dd60521b60448201526064015b60405180910390fd5b600354604051635519f43960e01b81526000916001600160a01b031690635519f4399061020890879087908790600401610c1b565b6020604051808303816000875af1158015610227573d6000803e3d6000fd5b505050506040513d601f19601f8201168201806040525081019061024b9190610c4e565b6040805160018082528183019092529192506000919060208083019080368337019050509050818160008151811061028557610285610c67565b602090810291909101015260018054604051637880ef4d60e11b81526000926001600160a01b039092169163f101de9a916102c69186918690600401610c7d565b6020604051808303816000875af11580156102e5573d6000803e3d6000fd5b505050506040513d601f19601f820116820180604052508101906103099190610c4e565b9050807ff1976316f58c930c53222b4285c44dd206ab6536640dc580e61c17dd443b209e8760405161033d91815260200190565b60405180910390a2807f4a6e61d0af36ba677826a8161d5b95f04455b03eb2e0fe4cde81377c466c8c56836040516103759190610c08565b60405180910390a2505050505050565b600560205281600052604060002081815481106103a157600080fd5b90600052602060002001600091509150505481565b600481815481106103c657600080fd5b600091825260209091206002909102015460ff80821692506101009091041682565b6103f061089d565b6103fa60006108f7565b565b61040461089d565b600180546001600160a01b039485166001600160a01b031991821617909155600280549385169382169390931790925560038054919093169116179055565b61044b61089d565b6001600160a01b0381166104b05760405162461bcd60e51b815260206004820152602660248201527f4f776e61626c653a206e6577206f776e657220697320746865207a65726f206160448201526564647265737360d01b60648201526084016101ca565b6104b9816108f7565b50565b6002546001600160a01b0316331461050f5760405162461bcd60e51b8152602060048201526016602482015275139bdd0818da185c9858dd195c8818dbdb9d1c9858dd60521b60448201526064016101ca565b600060048060016004805490506105269190610cb8565b8154811061053657610536610c67565b6000918252602090912060029091020154610100900460ff160361055c5761055c610947565b6004805461056c90600190610cb8565b8154811061057c5761057c610c67565b600091825260208220600354604051635519f43960e01b8152600290930290910193506001600160a01b031690635519f439906105c190889088908890600401610c1b565b6020604051808303816000875af11580156105e0573d6000803e3d6000fd5b505050506040513d601f19601f820116820180604052508101906106049190610c4e565b825460018401805492935083929091610100900460ff1690811061062a5761062a610c67565b6000918252602090912001558154610100900460ff1682600161064c83610cd1565b825461010092830a60ff818102199092169282160291909117909255845404166003190190506107315760018054604051637880ef4d60e11b81526000926001600160a01b039092169163f101de9a916106af9187019060049086908201610d25565b6020604051808303816000875af11580156106ce573d6000803e3d6000fd5b505050506040513d601f19601f820116820180604052508101906106f29190610c4e565b9050807f4a6e61d0af36ba677826a8161d5b95f04455b03eb2e0fe4cde81377c466c8c56846001016040516107279190610d38565b60405180910390a2505b33600090815260056020526040902060045461074f90600190610cb8565b8154600181810184556000938452602090932001556004546107719190610cb8565b6040518681527ff1976316f58c930c53222b4285c44dd206ab6536640dc580e61c17dd443b209e9060200160405180910390a25050505050565b60606000600483815481106107c2576107c2610c67565b90600052602060002090600202016001018054905067ffffffffffffffff8111156107ef576107ef610a35565b604051908082528060200260200182016040528015610818578160200160208202803683370190505b50905060005b8151811015610896576004848154811061083a5761083a610c67565b9060005260206000209060020201600101818154811061085c5761085c610c67565b906000526020600020015482828151811061087957610879610c67565b60209081029190910101528061088e81610d4b565b91505061081e565b5092915050565b6000546001600160a01b031633146103fa5760405162461bcd60e51b815260206004820181905260248201527f4f776e61626c653a2063616c6c6572206973206e6f7420746865206f776e657260448201526064016101ca565b600080546001600160a01b038381166001600160a01b0319831681178455604051919092169283917f8be0079c531659141344cd1fd0a4f28419497f9722a3daafe3b4186f6b6457e09190a35050565b6004805460018101825560008290526002027f8a35acfbc15ff81a39ae7d344fd709f28e8600b4aa8c65c6b64bfe7fe36bd19b01805461ffff191681556040805183815260a08101909152909160208201608080368337505081516109b592600185019250602001906109b9565b5050565b8280548282559060005260206000209081019282156109f4579160200282015b828111156109f45782518255916020019190600101906109d9565b50610a00929150610a04565b5090565b5b80821115610a005760008155600101610a05565b80356001600160a01b0381168114610a3057600080fd5b919050565b634e487b7160e01b600052604160045260246000fd5b600080600060608486031215610a6057600080fd5b833592506020610a71818601610a19565b9250604085013567ffffffffffffffff80821115610a8e57600080fd5b818701915087601f830112610aa257600080fd5b813581811115610ab457610ab4610a35565b8060051b604051601f19603f83011681018181108582111715610ad957610ad9610a35565b60405291825284820192508381018501918a831115610af757600080fd5b938501935b82851015610b1557843584529385019392850192610afc565b8096505050505050509250925092565b60008060408385031215610b3857600080fd5b610b4183610a19565b946020939093013593505050565b600060208284031215610b6157600080fd5b5035919050565b600080600060608486031215610b7d57600080fd5b610b8684610a19565b9250610b9460208501610a19565b9150610ba260408501610a19565b90509250925092565b600060208284031215610bbd57600080fd5b610bc682610a19565b9392505050565b600081518084526020808501945080840160005b83811015610bfd57815187529582019590820190600101610be1565b509495945050505050565b602081526000610bc66020830184610bcd565b8381526001600160a01b0383166020820152606060408201819052600090610c4590830184610bcd565b95945050505050565b600060208284031215610c6057600080fd5b5051919050565b634e487b7160e01b600052603260045260246000fd5b606081526000610c906060830186610bcd565b60208301949094525060400152919050565b634e487b7160e01b600052601160045260246000fd5b81810381811115610ccb57610ccb610ca2565b92915050565b600060ff821660ff8103610ce757610ce7610ca2565b60010192915050565b6000815480845260208085019450836000528060002060005b83811015610bfd57815487529582019560019182019101610d09565b606081526000610c906060830186610cf0565b602081526000610bc66020830184610cf0565b600060018201610d5d57610d5d610ca2565b506001019056fea2646970667358221220d22b8483fcbe9376ef1d3e15ea8ea04fab09be5ad9df9f7af5872bff4752773264736f6c63430008110033",
  "devdoc": {
    "kind": "dev",
    "methods": {
      "owner()": {
        "details": "Returns the address of the current owner."
      },
      "renounceOwnership()": {
        "details": "Leaves the contract without owner. It will not be possible to call `onlyOwner` functions anymore. Can only be called by the current owner. NOTE: Renouncing ownership will leave the contract without an owner, thereby removing any functionality that is only available to the owner."
      },
      "transferOwnership(address)": {
        "details": "Transfers ownership of the contract to a new account (`newOwner`). Can only be called by the current owner."
      }
    },
    "version": 1
  },
  "userdoc": {
    "kind": "user",
    "methods": {},
    "version": 1
  },
  "storageLayout": {
    "storage": [
      {
        "astId": 7,
        "contract": "contracts/BCLobby.sol:Lobby",
        "label": "_owner",
        "offset": 0,
        "slot": "0",
        "type": "t_address"
      },
      {
        "astId": 16053,
        "contract": "contracts/BCLobby.sol:Lobby",
        "label": "games",
        "offset": 0,
        "slot": "1",
        "type": "t_contract(GamesInterface)16012"
      },
      {
        "astId": 16056,
        "contract": "contracts/BCLobby.sol:Lobby",
        "label": "chars",
        "offset": 0,
        "slot": "2",
        "type": "t_contract(CharacterInterface)16035"
      },
      {
        "astId": 16059,
        "contract": "contracts/BCLobby.sol:Lobby",
        "label": "players",
        "offset": 0,
        "slot": "3",
        "type": "t_contract(PlayersInterface)16048"
      },
      {
        "astId": 16096,
        "contract": "contracts/BCLobby.sol:Lobby",
        "label": "lobbies",
        "offset": 0,
        "slot": "4",
        "type": "t_array(t_struct(Lobby)21444_storage)dyn_storage"
      },
      {
        "astId": 16101,
        "contract": "contracts/BCLobby.sol:Lobby",
        "label": "addressToLobbies",
        "offset": 0,
        "slot": "5",
        "type": "t_mapping(t_address,t_array(t_uint256)dyn_storage)"
      }
    ],
    "types": {
      "t_address": {
        "encoding": "inplace",
        "label": "address",
        "numberOfBytes": "20"
      },
      "t_array(t_struct(Lobby)21444_storage)dyn_storage": {
        "base": "t_struct(Lobby)21444_storage",
        "encoding": "dynamic_array",
        "label": "struct BCTypes.Lobby[]",
        "numberOfBytes": "32"
      },
      "t_array(t_uint256)dyn_storage": {
        "base": "t_uint256",
        "encoding": "dynamic_array",
        "label": "uint256[]",
        "numberOfBytes": "32"
      },
      "t_bool": {
        "encoding": "inplace",
        "label": "bool",
        "numberOfBytes": "1"
      },
      "t_contract(CharacterInterface)16035": {
        "encoding": "inplace",
        "label": "contract CharacterInterface",
        "numberOfBytes": "20"
      },
      "t_contract(GamesInterface)16012": {
        "encoding": "inplace",
        "label": "contract GamesInterface",
        "numberOfBytes": "20"
      },
      "t_contract(PlayersInterface)16048": {
        "encoding": "inplace",
        "label": "contract PlayersInterface",
        "numberOfBytes": "20"
      },
      "t_mapping(t_address,t_array(t_uint256)dyn_storage)": {
        "encoding": "mapping",
        "key": "t_address",
        "label": "mapping(address => uint256[])",
        "numberOfBytes": "32",
        "value": "t_array(t_uint256)dyn_storage"
      },
      "t_struct(Lobby)21444_storage": {
        "encoding": "inplace",
        "label": "struct BCTypes.Lobby",
        "members": [
          {
            "astId": 21438,
            "contract": "contracts/BCLobby.sol:Lobby",
            "label": "gameStarted",
            "offset": 0,
            "slot": "0",
            "type": "t_bool"
          },
          {
            "astId": 21440,
            "contract": "contracts/BCLobby.sol:Lobby",
            "label": "numberOfPlayers",
            "offset": 1,
            "slot": "0",
            "type": "t_uint8"
          },
          {
            "astId": 21443,
            "contract": "contracts/BCLobby.sol:Lobby",
            "label": "playerIndexes",
            "offset": 0,
            "slot": "1",
            "type": "t_array(t_uint256)dyn_storage"
          }
        ],
        "numberOfBytes": "64"
      },
      "t_uint256": {
        "encoding": "inplace",
        "label": "uint256",
        "numberOfBytes": "32"
      },
      "t_uint8": {
        "encoding": "inplace",
        "label": "uint8",
        "numberOfBytes": "1"
      }
    }
  }
}