{
  "address": "0x52f7A1551C3Ee4C5a911CeEa1824b060a64792eA",
  "abi": [
    {
      "inputs": [],
      "stateMutability": "nonpayable",
      "type": "constructor"
    },
    {
      "anonymous": false,
      "inputs": [
        {
          "indexed": false,
          "internalType": "uint256",
          "name": "lobbyNumber",
          "type": "uint256"
        },
        {
          "indexed": false,
          "internalType": "uint256",
          "name": "charId",
          "type": "uint256"
        }
      ],
      "name": "EnlistedMultiPlayer",
      "type": "event"
    },
    {
      "anonymous": false,
      "inputs": [
        {
          "indexed": false,
          "internalType": "uint256",
          "name": "gameNumber",
          "type": "uint256"
        },
        {
          "indexed": false,
          "internalType": "uint256",
          "name": "charId",
          "type": "uint256"
        }
      ],
      "name": "EnlistedSoloPlayer",
      "type": "event"
    },
    {
      "anonymous": false,
      "inputs": [
        {
          "indexed": true,
          "internalType": "address",
          "name": "previousOwner",
          "type": "address"
        },
        {
          "indexed": true,
          "internalType": "address",
          "name": "newOwner",
          "type": "address"
        }
      ],
      "name": "OwnershipTransferred",
      "type": "event"
    },
    {
      "anonymous": false,
      "inputs": [
        {
          "indexed": false,
          "internalType": "uint256",
          "name": "lobbyNumber",
          "type": "uint256"
        },
        {
          "indexed": false,
          "internalType": "uint256[]",
          "name": "playerIds",
          "type": "uint256[]"
        }
      ],
      "name": "StartedGame",
      "type": "event"
    },
    {
      "inputs": [
        {
          "internalType": "address",
          "name": "",
          "type": "address"
        },
        {
          "internalType": "uint256",
          "name": "",
          "type": "uint256"
        }
      ],
      "name": "addressToLobbies",
      "outputs": [
        {
          "internalType": "uint256",
          "name": "",
          "type": "uint256"
        }
      ],
      "stateMutability": "view",
      "type": "function"
    },
    {
      "inputs": [
        {
          "internalType": "uint256",
          "name": "_charId",
          "type": "uint256"
        },
        {
          "internalType": "address",
          "name": "charOwner",
          "type": "address"
        }
      ],
      "name": "enlistForMission",
      "outputs": [],
      "stateMutability": "nonpayable",
      "type": "function"
    },
    {
      "inputs": [
        {
          "internalType": "uint256",
          "name": "_charId",
          "type": "uint256"
        },
        {
          "internalType": "address",
          "name": "charOwner",
          "type": "address"
        }
      ],
      "name": "enlistSolo",
      "outputs": [],
      "stateMutability": "nonpayable",
      "type": "function"
    },
    {
      "inputs": [
        {
          "internalType": "uint256",
          "name": "_lobbyId",
          "type": "uint256"
        }
      ],
      "name": "extGetLobbyPlayerIndexes",
      "outputs": [
        {
          "internalType": "uint256[]",
          "name": "",
          "type": "uint256[]"
        }
      ],
      "stateMutability": "view",
      "type": "function"
    },
    {
      "inputs": [
        {
          "internalType": "uint256",
          "name": "",
          "type": "uint256"
        }
      ],
      "name": "lobbies",
      "outputs": [
        {
          "internalType": "bool",
          "name": "gameStarted",
          "type": "bool"
        },
        {
          "internalType": "uint8",
          "name": "numberOfPlayers",
          "type": "uint8"
        }
      ],
      "stateMutability": "view",
      "type": "function"
    },
    {
      "inputs": [],
      "name": "owner",
      "outputs": [
        {
          "internalType": "address",
          "name": "",
          "type": "address"
        }
      ],
      "stateMutability": "view",
      "type": "function"
    },
    {
      "inputs": [],
      "name": "renounceOwnership",
      "outputs": [],
      "stateMutability": "nonpayable",
      "type": "function"
    },
    {
      "inputs": [
        {
          "internalType": "address",
          "name": "_gameContractAddress",
          "type": "address"
        },
        {
          "internalType": "address",
          "name": "_charContractAddress",
          "type": "address"
        },
        {
          "internalType": "address",
          "name": "_playersContractAddress",
          "type": "address"
        }
      ],
      "name": "setGameContract",
      "outputs": [],
      "stateMutability": "nonpayable",
      "type": "function"
    },
    {
      "inputs": [
        {
          "internalType": "address",
          "name": "newOwner",
          "type": "address"
        }
      ],
      "name": "transferOwnership",
      "outputs": [],
      "stateMutability": "nonpayable",
      "type": "function"
    }
  ],
  "transactionHash": "0xdf187208f7d658794f02e9d7809b93f3a61d88d57623527bb2b623c08ecca6cc",
  "args": [],
  "numDeployments": 1,
  "solcInputHash": "0606bbd73f1cb9aac5f9e11b2dd53465",
  "bytecode": "0x608060405234801561001057600080fd5b5061001a33610027565b610022610077565b610149565b600080546001600160a01b038381166001600160a01b0319831681178455604051919092169283917f8be0079c531659141344cd1fd0a4f28419497f9722a3daafe3b4186f6b6457e09190a35050565b6004805460018101825560008290526002027f8a35acfbc15ff81a39ae7d344fd709f28e8600b4aa8c65c6b64bfe7fe36bd19b01805461ffff191681556040805183815260a08101909152909160208201608080368337505081516100e592600185019250602001906100e9565b5050565b828054828255906000526020600020908101928215610124579160200282015b82811115610124578251825591602001919060010190610109565b50610130929150610134565b5090565b5b808211156101305760008155600101610135565b610cfe806101586000396000f3fe608060405234801561001057600080fd5b50600436106100935760003560e01c8063829cf77f11610066578063829cf77f146101075780638da5cb5b1461011a578063a707d63214610135578063f2fde38b14610148578063fffb6e781461015b57600080fd5b8063237c201b146100985780636a818ddc146100ad5780636e8fb4c6146100d3578063715018a6146100ff575b600080fd5b6100ab6100a6366004610a53565b61017b565b005b6100c06100bb366004610a7f565b61047f565b6040519081526020015b60405180910390f35b6100e66100e1366004610aa9565b6104b0565b60408051921515835260ff9091166020830152016100ca565b6100ab6104e2565b6100ab610115366004610ac2565b6104f6565b6000546040516001600160a01b0390911681526020016100ca565b6100ab610143366004610a53565b61053d565b6100ab610156366004610b05565b610750565b61016e610169366004610aa9565b6107c9565b6040516100ca9190610b62565b6002546001600160a01b031633146101d35760405162461bcd60e51b8152602060048201526016602482015275139bdd0818da185c9858dd195c8818dbdb9d1c9858dd60521b60448201526064015b60405180910390fd5b600060048060016004805490506101ea9190610b8b565b815481106101fa576101fa610ba4565b6000918252602090912060029091020154610100900460ff1603610220576102206108bb565b6004805461023090600190610b8b565b8154811061024057610240610ba4565b60009182526020822060035460028054604051630205e2cf60e21b81526001600160a01b039182166004820152602481018a9052888216604482015294909102909201945016906308178b3c906064016020604051808303816000875af11580156102af573d6000803e3d6000fd5b505050506040513d601f19601f820116820180604052508101906102d39190610bba565b825460018401805492935083929091610100900460ff169081106102f9576102f9610ba4565b6000918252602090912001558154610100900460ff1682600161031b83610bd3565b825461010092830a60ff818102199092169282160291909117909255845404166003190190506104015760018054604051637880ef4d60e11b81526000926001600160a01b039092169163f101de9a9161037e9187019060049086908201610c27565b6020604051808303816000875af115801561039d573d6000803e3d6000fd5b505050506040513d601f19601f820116820180604052508101906103c19190610bba565b90507f4a6e61d0af36ba677826a8161d5b95f04455b03eb2e0fe4cde81377c466c8c5681846001016040516103f7929190610c4c565b60405180910390a1505b33600090815260056020526040902060045461041f90600190610b8b565b8154600181810184556000938452602090932001556004547ff1976316f58c930c53222b4285c44dd206ab6536640dc580e61c17dd443b209e9161046291610b8b565b60408051918252602082018790520160405180910390a150505050565b6005602052816000526040600020818154811061049b57600080fd5b90600052602060002001600091509150505481565b600481815481106104c057600080fd5b600091825260209091206002909102015460ff80821692506101009091041682565b6104ea61092d565b6104f46000610987565b565b6104fe61092d565b600180546001600160a01b039485166001600160a01b031991821617909155600280549385169382169390931790925560038054919093169116179055565b6002546001600160a01b031633146105905760405162461bcd60e51b8152602060048201526016602482015275139bdd0818da185c9858dd195c8818dbdb9d1c9858dd60521b60448201526064016101ca565b600354600254604051630205e2cf60e21b81526001600160a01b03918216600482015260248101859052838216604482015260009291909116906308178b3c906064016020604051808303816000875af11580156105f2573d6000803e3d6000fd5b505050506040513d601f19601f820116820180604052508101906106169190610bba565b6040805160018082528183019092529192506000919060208083019080368337019050509050818160008151811061065057610650610ba4565b602090810291909101015260018054604051637880ef4d60e11b81526000926001600160a01b039092169163f101de9a916106919186918690600401610c83565b6020604051808303816000875af11580156106b0573d6000803e3d6000fd5b505050506040513d601f19601f820116820180604052508101906106d49190610bba565b60408051828152602081018890529192507ff1976316f58c930c53222b4285c44dd206ab6536640dc580e61c17dd443b209e910160405180910390a17f4a6e61d0af36ba677826a8161d5b95f04455b03eb2e0fe4cde81377c466c8c568183604051610741929190610c96565b60405180910390a15050505050565b61075861092d565b6001600160a01b0381166107bd5760405162461bcd60e51b815260206004820152602660248201527f4f776e61626c653a206e6577206f776e657220697320746865207a65726f206160448201526564647265737360d01b60648201526084016101ca565b6107c681610987565b50565b60606000600483815481106107e0576107e0610ba4565b90600052602060002090600202016001018054905067ffffffffffffffff81111561080d5761080d610c6d565b604051908082528060200260200182016040528015610836578160200160208202803683370190505b50905060005b81518110156108b4576004848154811061085857610858610ba4565b9060005260206000209060020201600101818154811061087a5761087a610ba4565b906000526020600020015482828151811061089757610897610ba4565b6020908102919091010152806108ac81610caf565b91505061083c565b5092915050565b6004805460018101825560008290526002027f8a35acfbc15ff81a39ae7d344fd709f28e8600b4aa8c65c6b64bfe7fe36bd19b01805461ffff191681556040805183815260a081019091529091602082016080803683375050815161092992600185019250602001906109d7565b5050565b6000546001600160a01b031633146104f45760405162461bcd60e51b815260206004820181905260248201527f4f776e61626c653a2063616c6c6572206973206e6f7420746865206f776e657260448201526064016101ca565b600080546001600160a01b038381166001600160a01b0319831681178455604051919092169283917f8be0079c531659141344cd1fd0a4f28419497f9722a3daafe3b4186f6b6457e09190a35050565b828054828255906000526020600020908101928215610a12579160200282015b82811115610a125782518255916020019190600101906109f7565b50610a1e929150610a22565b5090565b5b80821115610a1e5760008155600101610a23565b80356001600160a01b0381168114610a4e57600080fd5b919050565b60008060408385031215610a6657600080fd5b82359150610a7660208401610a37565b90509250929050565b60008060408385031215610a9257600080fd5b610a9b83610a37565b946020939093013593505050565b600060208284031215610abb57600080fd5b5035919050565b600080600060608486031215610ad757600080fd5b610ae084610a37565b9250610aee60208501610a37565b9150610afc60408501610a37565b90509250925092565b600060208284031215610b1757600080fd5b610b2082610a37565b9392505050565b600081518084526020808501945080840160005b83811015610b5757815187529582019590820190600101610b3b565b509495945050505050565b602081526000610b206020830184610b27565b634e487b7160e01b600052601160045260246000fd5b81810381811115610b9e57610b9e610b75565b92915050565b634e487b7160e01b600052603260045260246000fd5b600060208284031215610bcc57600080fd5b5051919050565b600060ff821660ff8103610be957610be9610b75565b60010192915050565b6000815480845260208085019450836000528060002060005b83811015610b5757815487529582019560019182019101610c0b565b606081526000610c3a6060830186610bf2565b60208301949094525060400152919050565b828152604060208201526000610c656040830184610bf2565b949350505050565b634e487b7160e01b600052604160045260246000fd5b606081526000610c3a6060830186610b27565b828152604060208201526000610c656040830184610b27565b600060018201610cc157610cc1610b75565b506001019056fea2646970667358221220a9a1ef4d3dc5aa82d571a390cb895af3b1ef5f6b1f25839ff260a64dba33810264736f6c63430008110033",
  "devdoc": {
    "kind": "dev",
    "methods": {
      "owner()": {
        "details": "Returns the address of the current owner."
      },
      "renounceOwnership()": {
        "details": "Leaves the contract without owner. It will not be possible to call `onlyOwner` functions anymore. Can only be called by the current owner. NOTE: Renouncing ownership will leave the contract without an owner, thereby removing any functionality that is only available to the owner."
      },
      "transferOwnership(address)": {
        "details": "Transfers ownership of the contract to a new account (`newOwner`). Can only be called by the current owner."
      }
    },
    "version": 1
  },
  "userdoc": {
    "kind": "user",
    "methods": {},
    "version": 1
  },
  "storageLayout": {
    "storage": [
      {
        "astId": 7,
        "contract": "contracts/BCLobby.sol:Lobby",
        "label": "_owner",
        "offset": 0,
        "slot": "0",
        "type": "t_address"
      },
      {
        "astId": 10817,
        "contract": "contracts/BCLobby.sol:Lobby",
        "label": "games",
        "offset": 0,
        "slot": "1",
        "type": "t_contract(GamesInterface)10777"
      },
      {
        "astId": 10820,
        "contract": "contracts/BCLobby.sol:Lobby",
        "label": "chars",
        "offset": 0,
        "slot": "2",
        "type": "t_contract(CharacterInterface)10800"
      },
      {
        "astId": 10823,
        "contract": "contracts/BCLobby.sol:Lobby",
        "label": "players",
        "offset": 0,
        "slot": "3",
        "type": "t_contract(PlayersInterface)10812"
      },
      {
        "astId": 10860,
        "contract": "contracts/BCLobby.sol:Lobby",
        "label": "lobbies",
        "offset": 0,
        "slot": "4",
        "type": "t_array(t_struct(Lobby)14911_storage)dyn_storage"
      },
      {
        "astId": 10865,
        "contract": "contracts/BCLobby.sol:Lobby",
        "label": "addressToLobbies",
        "offset": 0,
        "slot": "5",
        "type": "t_mapping(t_address,t_array(t_uint256)dyn_storage)"
      }
    ],
    "types": {
      "t_address": {
        "encoding": "inplace",
        "label": "address",
        "numberOfBytes": "20"
      },
      "t_array(t_struct(Lobby)14911_storage)dyn_storage": {
        "base": "t_struct(Lobby)14911_storage",
        "encoding": "dynamic_array",
        "label": "struct BCTypes.Lobby[]",
        "numberOfBytes": "32"
      },
      "t_array(t_uint256)dyn_storage": {
        "base": "t_uint256",
        "encoding": "dynamic_array",
        "label": "uint256[]",
        "numberOfBytes": "32"
      },
      "t_bool": {
        "encoding": "inplace",
        "label": "bool",
        "numberOfBytes": "1"
      },
      "t_contract(CharacterInterface)10800": {
        "encoding": "inplace",
        "label": "contract CharacterInterface",
        "numberOfBytes": "20"
      },
      "t_contract(GamesInterface)10777": {
        "encoding": "inplace",
        "label": "contract GamesInterface",
        "numberOfBytes": "20"
      },
      "t_contract(PlayersInterface)10812": {
        "encoding": "inplace",
        "label": "contract PlayersInterface",
        "numberOfBytes": "20"
      },
      "t_mapping(t_address,t_array(t_uint256)dyn_storage)": {
        "encoding": "mapping",
        "key": "t_address",
        "label": "mapping(address => uint256[])",
        "numberOfBytes": "32",
        "value": "t_array(t_uint256)dyn_storage"
      },
      "t_struct(Lobby)14911_storage": {
        "encoding": "inplace",
        "label": "struct BCTypes.Lobby",
        "members": [
          {
            "astId": 14905,
            "contract": "contracts/BCLobby.sol:Lobby",
            "label": "gameStarted",
            "offset": 0,
            "slot": "0",
            "type": "t_bool"
          },
          {
            "astId": 14907,
            "contract": "contracts/BCLobby.sol:Lobby",
            "label": "numberOfPlayers",
            "offset": 1,
            "slot": "0",
            "type": "t_uint8"
          },
          {
            "astId": 14910,
            "contract": "contracts/BCLobby.sol:Lobby",
            "label": "playerIndexes",
            "offset": 0,
            "slot": "1",
            "type": "t_array(t_uint256)dyn_storage"
          }
        ],
        "numberOfBytes": "64"
      },
      "t_uint256": {
        "encoding": "inplace",
        "label": "uint256",
        "numberOfBytes": "32"
      },
      "t_uint8": {
        "encoding": "inplace",
        "label": "uint8",
        "numberOfBytes": "1"
      }
    }
  }
}