{
  "address": "0x14677b2FdaFE6dDE9bbDA6a96dDc915702d092A3",
  "abi": [
    {
      "inputs": [],
      "stateMutability": "nonpayable",
      "type": "constructor"
    },
    {
      "anonymous": false,
      "inputs": [
        {
          "indexed": true,
          "internalType": "address",
          "name": "previousOwner",
          "type": "address"
        },
        {
          "indexed": true,
          "internalType": "address",
          "name": "newOwner",
          "type": "address"
        }
      ],
      "name": "OwnershipTransferred",
      "type": "event"
    },
    {
      "anonymous": false,
      "inputs": [
        {
          "indexed": false,
          "internalType": "uint256",
          "name": "lobbyNumber",
          "type": "uint256"
        },
        {
          "indexed": false,
          "internalType": "uint256[]",
          "name": "playerIds",
          "type": "uint256[]"
        }
      ],
      "name": "StartedGame",
      "type": "event"
    },
    {
      "inputs": [
        {
          "internalType": "address",
          "name": "",
          "type": "address"
        },
        {
          "internalType": "uint256",
          "name": "",
          "type": "uint256"
        }
      ],
      "name": "addressToLobbies",
      "outputs": [
        {
          "internalType": "uint256",
          "name": "",
          "type": "uint256"
        }
      ],
      "stateMutability": "view",
      "type": "function"
    },
    {
      "inputs": [
        {
          "internalType": "uint256",
          "name": "_charId",
          "type": "uint256"
        },
        {
          "internalType": "address",
          "name": "charOwner",
          "type": "address"
        },
        {
          "internalType": "uint256",
          "name": "_debugRoomId",
          "type": "uint256"
        }
      ],
      "name": "debugEnlist",
      "outputs": [],
      "stateMutability": "nonpayable",
      "type": "function"
    },
    {
      "inputs": [
        {
          "internalType": "uint256",
          "name": "_charId",
          "type": "uint256"
        },
        {
          "internalType": "address",
          "name": "charOwner",
          "type": "address"
        }
      ],
      "name": "enlistForMission",
      "outputs": [],
      "stateMutability": "nonpayable",
      "type": "function"
    },
    {
      "inputs": [
        {
          "internalType": "uint256",
          "name": "_charId",
          "type": "uint256"
        },
        {
          "internalType": "address",
          "name": "charOwner",
          "type": "address"
        }
      ],
      "name": "enlistSolo",
      "outputs": [],
      "stateMutability": "nonpayable",
      "type": "function"
    },
    {
      "inputs": [
        {
          "internalType": "uint256",
          "name": "_lobbyId",
          "type": "uint256"
        }
      ],
      "name": "extGetLobbyPlayerIndexes",
      "outputs": [
        {
          "internalType": "uint256[]",
          "name": "",
          "type": "uint256[]"
        }
      ],
      "stateMutability": "view",
      "type": "function"
    },
    {
      "inputs": [
        {
          "internalType": "uint256",
          "name": "",
          "type": "uint256"
        }
      ],
      "name": "lobbies",
      "outputs": [
        {
          "internalType": "bool",
          "name": "gameStarted",
          "type": "bool"
        },
        {
          "internalType": "uint8",
          "name": "numberOfPlayers",
          "type": "uint8"
        }
      ],
      "stateMutability": "view",
      "type": "function"
    },
    {
      "inputs": [],
      "name": "owner",
      "outputs": [
        {
          "internalType": "address",
          "name": "",
          "type": "address"
        }
      ],
      "stateMutability": "view",
      "type": "function"
    },
    {
      "inputs": [],
      "name": "renounceOwnership",
      "outputs": [],
      "stateMutability": "nonpayable",
      "type": "function"
    },
    {
      "inputs": [
        {
          "internalType": "address",
          "name": "_gameContractAddress",
          "type": "address"
        },
        {
          "internalType": "address",
          "name": "_charContractAddress",
          "type": "address"
        },
        {
          "internalType": "address",
          "name": "_playersContractAddress",
          "type": "address"
        }
      ],
      "name": "setGameContract",
      "outputs": [],
      "stateMutability": "nonpayable",
      "type": "function"
    },
    {
      "inputs": [
        {
          "internalType": "address",
          "name": "newOwner",
          "type": "address"
        }
      ],
      "name": "transferOwnership",
      "outputs": [],
      "stateMutability": "nonpayable",
      "type": "function"
    }
  ],
  "transactionHash": "0xa75e535170fdb8687d72cff6090b5dadbaf84573b8d61dcf5cc9afa04b728a84",
  "args": [],
  "numDeployments": 1,
  "solcInputHash": "3bb9a8bfbba7b0d23e5324b4eda443e4",
  "bytecode": "0x60806040523480156200001157600080fd5b5062000032620000266200004860201b60201c565b6200005060201b60201c565b620000426200011460201b60201c565b6200027e565b600033905090565b60008060009054906101000a900473ffffffffffffffffffffffffffffffffffffffff169050816000806101000a81548173ffffffffffffffffffffffffffffffffffffffff021916908373ffffffffffffffffffffffffffffffffffffffff1602179055508173ffffffffffffffffffffffffffffffffffffffff168173ffffffffffffffffffffffffffffffffffffffff167f8be0079c531659141344cd1fd0a4f28419497f9722a3daafe3b4186f6b6457e060405160405180910390a35050565b60006004600181600181540180825580915050039060005260206000209060020201905060008160000160006101000a81548160ff02191690831515021790555060008160000160016101000a81548160ff021916908360ff160217905550600467ffffffffffffffff8111156200019157620001906200024f565b5b604051908082528060200260200182016040528015620001c05781602001602082028036833780820191505090505b50816001019080519060200190620001da929190620001de565b5050565b8280548282559060005260206000209081019282156200021d579160200282015b828111156200021c578251825591602001919060010190620001ff565b5b5090506200022c919062000230565b5090565b5b808211156200024b57600081600090555060010162000231565b5090565b7f4e487b7100000000000000000000000000000000000000000000000000000000600052604160045260246000fd5b611b4c806200028e6000396000f3fe608060405234801561001057600080fd5b506004361061009e5760003560e01c80638da5cb5b116100665780638da5cb5b14610146578063a707d63214610164578063aa582fc414610180578063f2fde38b1461019c578063fffb6e78146101b85761009e565b8063237c201b146100a35780636a818ddc146100bf5780636e8fb4c6146100ef578063715018a614610120578063829cf77f1461012a575b600080fd5b6100bd60048036038101906100b8919061126c565b6101e8565b005b6100d960048036038101906100d491906112ac565b6105c2565b6040516100e691906112fb565b60405180910390f35b61010960048036038101906101049190611316565b6105f3565b60405161011792919061137a565b60405180910390f35b610128610641565b005b610144600480360381019061013f91906113a3565b610655565b005b61014e610725565b60405161015b9190611405565b60405180910390f35b61017e6004803603810190610179919061126c565b61074e565b005b61019a60048036038101906101959190611420565b6109fd565b005b6101b660048036038101906101b19190611473565b610dd7565b005b6101d260048036038101906101cd9190611316565b610e5a565b6040516101df919061155e565b60405180910390f35b600260009054906101000a900473ffffffffffffffffffffffffffffffffffffffff1673ffffffffffffffffffffffffffffffffffffffff163373ffffffffffffffffffffffffffffffffffffffff1614610278576040517f08c379a000000000000000000000000000000000000000000000000000000000815260040161026f906115dd565b60405180910390fd5b6000600480600160048054905061028f919061162c565b815481106102a05761029f611660565b5b906000526020600020906002020160000160019054906101000a900460ff1660ff16036102d0576102cf610f5b565b5b600460016004805490506102e4919061162c565b815481106102f5576102f4611660565b5b906000526020600020906002020190506000600360009054906101000a900473ffffffffffffffffffffffffffffffffffffffff1673ffffffffffffffffffffffffffffffffffffffff166308178b3c600260009054906101000a900473ffffffffffffffffffffffffffffffffffffffff1686866040518463ffffffff1660e01b81526004016103889392919061168f565b6020604051808303816000875af11580156103a7573d6000803e3d6000fd5b505050506040513d601f19601f820116820180604052508101906103cb91906116db565b905080826001018360000160019054906101000a900460ff1660ff16815481106103f8576103f7611660565b5b906000526020600020018190555081600001600181819054906101000a900460ff168092919061042790611708565b91906101000a81548160ff021916908360ff1602179055505060048260000160019054906101000a900460ff1660ff1603610545576000600160009054906101000a900473ffffffffffffffffffffffffffffffffffffffff1673ffffffffffffffffffffffffffffffffffffffff1663f101de9a84600101600460006040518463ffffffff1660e01b81526004016104c29392919061184c565b6020604051808303816000875af11580156104e1573d6000803e3d6000fd5b505050506040513d601f19601f8201168201806040525081019061050591906116db565b90507f4a6e61d0af36ba677826a8161d5b95f04455b03eb2e0fe4cde81377c466c8c56818460010160405161053b92919061188a565b60405180910390a1505b600560003373ffffffffffffffffffffffffffffffffffffffff1673ffffffffffffffffffffffffffffffffffffffff1681526020019081526020016000206001600480549050610596919061162c565b908060018154018082558091505060019003906000526020600020016000909190919091505550505050565b600560205281600052604060002081815481106105de57600080fd5b90600052602060002001600091509150505481565b6004818154811061060357600080fd5b90600052602060002090600202016000915090508060000160009054906101000a900460ff16908060000160019054906101000a900460ff16905082565b61064961101f565b610653600061109d565b565b61065d61101f565b82600160006101000a81548173ffffffffffffffffffffffffffffffffffffffff021916908373ffffffffffffffffffffffffffffffffffffffff16021790555081600260006101000a81548173ffffffffffffffffffffffffffffffffffffffff021916908373ffffffffffffffffffffffffffffffffffffffff16021790555080600360006101000a81548173ffffffffffffffffffffffffffffffffffffffff021916908373ffffffffffffffffffffffffffffffffffffffff160217905550505050565b60008060009054906101000a900473ffffffffffffffffffffffffffffffffffffffff16905090565b600260009054906101000a900473ffffffffffffffffffffffffffffffffffffffff1673ffffffffffffffffffffffffffffffffffffffff163373ffffffffffffffffffffffffffffffffffffffff16146107de576040517f08c379a00000000000000000000000000000000000000000000000000000000081526004016107d5906115dd565b60405180910390fd5b6000600360009054906101000a900473ffffffffffffffffffffffffffffffffffffffff1673ffffffffffffffffffffffffffffffffffffffff166308178b3c600260009054906101000a900473ffffffffffffffffffffffffffffffffffffffff1685856040518463ffffffff1660e01b81526004016108619392919061168f565b6020604051808303816000875af1158015610880573d6000803e3d6000fd5b505050506040513d601f19601f820116820180604052508101906108a491906116db565b90506000600167ffffffffffffffff8111156108c3576108c26118ba565b5b6040519080825280602002602001820160405280156108f15781602001602082028036833780820191505090505b509050818160008151811061090957610908611660565b5b6020026020010181815250506000600160009054906101000a900473ffffffffffffffffffffffffffffffffffffffff1673ffffffffffffffffffffffffffffffffffffffff1663f101de9a83600160006040518463ffffffff1660e01b815260040161097893929190611924565b6020604051808303816000875af1158015610997573d6000803e3d6000fd5b505050506040513d601f19601f820116820180604052508101906109bb91906116db565b90507f4a6e61d0af36ba677826a8161d5b95f04455b03eb2e0fe4cde81377c466c8c5681836040516109ee929190611962565b60405180910390a15050505050565b600260009054906101000a900473ffffffffffffffffffffffffffffffffffffffff1673ffffffffffffffffffffffffffffffffffffffff163373ffffffffffffffffffffffffffffffffffffffff1614610a8d576040517f08c379a0000000000000000000000000000000000000000000000000000000008152600401610a84906115dd565b60405180910390fd5b60006004806001600480549050610aa4919061162c565b81548110610ab557610ab4611660565b5b906000526020600020906002020160000160019054906101000a900460ff1660ff1603610ae557610ae4610f5b565b5b60046001600480549050610af9919061162c565b81548110610b0a57610b09611660565b5b906000526020600020906002020190506000600360009054906101000a900473ffffffffffffffffffffffffffffffffffffffff1673ffffffffffffffffffffffffffffffffffffffff166308178b3c600260009054906101000a900473ffffffffffffffffffffffffffffffffffffffff1687876040518463ffffffff1660e01b8152600401610b9d9392919061168f565b6020604051808303816000875af1158015610bbc573d6000803e3d6000fd5b505050506040513d601f19601f82011682018060405250810190610be091906116db565b905080826001018360000160019054906101000a900460ff1660ff1681548110610c0d57610c0c611660565b5b906000526020600020018190555081600001600181819054906101000a900460ff1680929190610c3c90611708565b91906101000a81548160ff021916908360ff1602179055505060048260000160019054906101000a900460ff1660ff1603610d59576000600160009054906101000a900473ffffffffffffffffffffffffffffffffffffffff1673ffffffffffffffffffffffffffffffffffffffff1663f101de9a846001016004876040518463ffffffff1660e01b8152600401610cd693929190611992565b6020604051808303816000875af1158015610cf5573d6000803e3d6000fd5b505050506040513d601f19601f82011682018060405250810190610d1991906116db565b90507f4a6e61d0af36ba677826a8161d5b95f04455b03eb2e0fe4cde81377c466c8c568184600101604051610d4f92919061188a565b60405180910390a1505b600560003373ffffffffffffffffffffffffffffffffffffffff1673ffffffffffffffffffffffffffffffffffffffff1681526020019081526020016000206001600480549050610daa919061162c565b90806001815401808255809150506001900390600052602060002001600090919091909150555050505050565b610ddf61101f565b600073ffffffffffffffffffffffffffffffffffffffff168173ffffffffffffffffffffffffffffffffffffffff1603610e4e576040517f08c379a0000000000000000000000000000000000000000000000000000000008152600401610e4590611a42565b60405180910390fd5b610e578161109d565b50565b6060600060048381548110610e7257610e71611660565b5b90600052602060002090600202016001018054905067ffffffffffffffff811115610ea057610e9f6118ba565b5b604051908082528060200260200182016040528015610ece5781602001602082028036833780820191505090505b50905060005b8151811015610f515760048481548110610ef157610ef0611660565b5b90600052602060002090600202016001018181548110610f1457610f13611660565b5b9060005260206000200154828281518110610f3257610f31611660565b5b6020026020010181815250508080610f4990611a62565b915050610ed4565b5080915050919050565b60006004600181600181540180825580915050039060005260206000209060020201905060008160000160006101000a81548160ff02191690831515021790555060008160000160016101000a81548160ff021916908360ff160217905550600467ffffffffffffffff811115610fd557610fd46118ba565b5b6040519080825280602002602001820160405280156110035781602001602082028036833780820191505090505b5081600101908051906020019061101b929190611169565b5050565b611027611161565b73ffffffffffffffffffffffffffffffffffffffff16611045610725565b73ffffffffffffffffffffffffffffffffffffffff161461109b576040517f08c379a000000000000000000000000000000000000000000000000000000000815260040161109290611af6565b60405180910390fd5b565b60008060009054906101000a900473ffffffffffffffffffffffffffffffffffffffff169050816000806101000a81548173ffffffffffffffffffffffffffffffffffffffff021916908373ffffffffffffffffffffffffffffffffffffffff1602179055508173ffffffffffffffffffffffffffffffffffffffff168173ffffffffffffffffffffffffffffffffffffffff167f8be0079c531659141344cd1fd0a4f28419497f9722a3daafe3b4186f6b6457e060405160405180910390a35050565b600033905090565b8280548282559060005260206000209081019282156111a5579160200282015b828111156111a4578251825591602001919060010190611189565b5b5090506111b291906111b6565b5090565b5b808211156111cf5760008160009055506001016111b7565b5090565b600080fd5b6000819050919050565b6111eb816111d8565b81146111f657600080fd5b50565b600081359050611208816111e2565b92915050565b600073ffffffffffffffffffffffffffffffffffffffff82169050919050565b60006112398261120e565b9050919050565b6112498161122e565b811461125457600080fd5b50565b60008135905061126681611240565b92915050565b60008060408385031215611283576112826111d3565b5b6000611291858286016111f9565b92505060206112a285828601611257565b9150509250929050565b600080604083850312156112c3576112c26111d3565b5b60006112d185828601611257565b92505060206112e2858286016111f9565b9150509250929050565b6112f5816111d8565b82525050565b600060208201905061131060008301846112ec565b92915050565b60006020828403121561132c5761132b6111d3565b5b600061133a848285016111f9565b91505092915050565b60008115159050919050565b61135881611343565b82525050565b600060ff82169050919050565b6113748161135e565b82525050565b600060408201905061138f600083018561134f565b61139c602083018461136b565b9392505050565b6000806000606084860312156113bc576113bb6111d3565b5b60006113ca86828701611257565b93505060206113db86828701611257565b92505060406113ec86828701611257565b9150509250925092565b6113ff8161122e565b82525050565b600060208201905061141a60008301846113f6565b92915050565b600080600060608486031215611439576114386111d3565b5b6000611447868287016111f9565b935050602061145886828701611257565b9250506040611469868287016111f9565b9150509250925092565b600060208284031215611489576114886111d3565b5b600061149784828501611257565b91505092915050565b600081519050919050565b600082825260208201905092915050565b6000819050602082019050919050565b6114d5816111d8565b82525050565b60006114e783836114cc565b60208301905092915050565b6000602082019050919050565b600061150b826114a0565b61151581856114ab565b9350611520836114bc565b8060005b8381101561155157815161153888826114db565b9750611543836114f3565b925050600181019050611524565b5085935050505092915050565b600060208201905081810360008301526115788184611500565b905092915050565b600082825260208201905092915050565b7f4e6f742063686172616374657220636f6e747261637400000000000000000000600082015250565b60006115c7601683611580565b91506115d282611591565b602082019050919050565b600060208201905081810360008301526115f6816115ba565b9050919050565b7f4e487b7100000000000000000000000000000000000000000000000000000000600052601160045260246000fd5b6000611637826111d8565b9150611642836111d8565b925082820390508181111561165a576116596115fd565b5b92915050565b7f4e487b7100000000000000000000000000000000000000000000000000000000600052603260045260246000fd5b60006060820190506116a460008301866113f6565b6116b160208301856112ec565b6116be60408301846113f6565b949350505050565b6000815190506116d5816111e2565b92915050565b6000602082840312156116f1576116f06111d3565b5b60006116ff848285016116c6565b91505092915050565b60006117138261135e565b915060ff8203611726576117256115fd565b5b600182019050919050565b600081549050919050565b60008190508160005260206000209050919050565b60008160001c9050919050565b6000819050919050565b600061177b61177683611751565b61175e565b9050919050565b600061178e8254611768565b9050919050565b6000600182019050919050565b60006117ad82611731565b6117b781856114ab565b93506117c28361173c565b8060005b838110156117fa576117d782611782565b6117e188826114db565b97506117ec83611795565b9250506001810190506117c6565b5085935050505092915050565b6000819050919050565b6000819050919050565b600061183661183161182c84611807565b611811565b6111d8565b9050919050565b6118468161181b565b82525050565b6000606082019050818103600083015261186681866117a2565b905061187560208301856112ec565b611882604083018461183d565b949350505050565b600060408201905061189f60008301856112ec565b81810360208301526118b181846117a2565b90509392505050565b7f4e487b7100000000000000000000000000000000000000000000000000000000600052604160045260246000fd5b6000819050919050565b600061190e611909611904846118e9565b611811565b6111d8565b9050919050565b61191e816118f3565b82525050565b6000606082019050818103600083015261193e8186611500565b905061194d6020830185611915565b61195a604083018461183d565b949350505050565b600060408201905061197760008301856112ec565b81810360208301526119898184611500565b90509392505050565b600060608201905081810360008301526119ac81866117a2565b90506119bb60208301856112ec565b6119c860408301846112ec565b949350505050565b7f4f776e61626c653a206e6577206f776e657220697320746865207a65726f206160008201527f6464726573730000000000000000000000000000000000000000000000000000602082015250565b6000611a2c602683611580565b9150611a37826119d0565b604082019050919050565b60006020820190508181036000830152611a5b81611a1f565b9050919050565b6000611a6d826111d8565b91507fffffffffffffffffffffffffffffffffffffffffffffffffffffffffffffffff8203611a9f57611a9e6115fd565b5b600182019050919050565b7f4f776e61626c653a2063616c6c6572206973206e6f7420746865206f776e6572600082015250565b6000611ae0602083611580565b9150611aeb82611aaa565b602082019050919050565b60006020820190508181036000830152611b0f81611ad3565b905091905056fea2646970667358221220bb9039169e001457f605bc02331d0a02580a4bc70a393d667b527d9f93ee98c764736f6c63430008110033",
  "devdoc": {
    "kind": "dev",
    "methods": {
      "owner()": {
        "details": "Returns the address of the current owner."
      },
      "renounceOwnership()": {
        "details": "Leaves the contract without owner. It will not be possible to call `onlyOwner` functions anymore. Can only be called by the current owner. NOTE: Renouncing ownership will leave the contract without an owner, thereby removing any functionality that is only available to the owner."
      },
      "transferOwnership(address)": {
        "details": "Transfers ownership of the contract to a new account (`newOwner`). Can only be called by the current owner."
      }
    },
    "version": 1
  },
  "userdoc": {
    "kind": "user",
    "methods": {},
    "version": 1
  },
  "storageLayout": {
    "storage": [
      {
        "astId": 7,
        "contract": "contracts/BCLobby.sol:Lobby",
        "label": "_owner",
        "offset": 0,
        "slot": "0",
        "type": "t_address"
      },
      {
        "astId": 6549,
        "contract": "contracts/BCLobby.sol:Lobby",
        "label": "games",
        "offset": 0,
        "slot": "1",
        "type": "t_contract(GamesInterface)6509"
      },
      {
        "astId": 6552,
        "contract": "contracts/BCLobby.sol:Lobby",
        "label": "chars",
        "offset": 0,
        "slot": "2",
        "type": "t_contract(CharacterInterface)6532"
      },
      {
        "astId": 6555,
        "contract": "contracts/BCLobby.sol:Lobby",
        "label": "players",
        "offset": 0,
        "slot": "3",
        "type": "t_contract(PlayersInterface)6544"
      },
      {
        "astId": 6592,
        "contract": "contracts/BCLobby.sol:Lobby",
        "label": "lobbies",
        "offset": 0,
        "slot": "4",
        "type": "t_array(t_struct(Lobby)10744_storage)dyn_storage"
      },
      {
        "astId": 6597,
        "contract": "contracts/BCLobby.sol:Lobby",
        "label": "addressToLobbies",
        "offset": 0,
        "slot": "5",
        "type": "t_mapping(t_address,t_array(t_uint256)dyn_storage)"
      }
    ],
    "types": {
      "t_address": {
        "encoding": "inplace",
        "label": "address",
        "numberOfBytes": "20"
      },
      "t_array(t_struct(Lobby)10744_storage)dyn_storage": {
        "base": "t_struct(Lobby)10744_storage",
        "encoding": "dynamic_array",
        "label": "struct BCTypes.Lobby[]",
        "numberOfBytes": "32"
      },
      "t_array(t_uint256)dyn_storage": {
        "base": "t_uint256",
        "encoding": "dynamic_array",
        "label": "uint256[]",
        "numberOfBytes": "32"
      },
      "t_bool": {
        "encoding": "inplace",
        "label": "bool",
        "numberOfBytes": "1"
      },
      "t_contract(CharacterInterface)6532": {
        "encoding": "inplace",
        "label": "contract CharacterInterface",
        "numberOfBytes": "20"
      },
      "t_contract(GamesInterface)6509": {
        "encoding": "inplace",
        "label": "contract GamesInterface",
        "numberOfBytes": "20"
      },
      "t_contract(PlayersInterface)6544": {
        "encoding": "inplace",
        "label": "contract PlayersInterface",
        "numberOfBytes": "20"
      },
      "t_mapping(t_address,t_array(t_uint256)dyn_storage)": {
        "encoding": "mapping",
        "key": "t_address",
        "label": "mapping(address => uint256[])",
        "numberOfBytes": "32",
        "value": "t_array(t_uint256)dyn_storage"
      },
      "t_struct(Lobby)10744_storage": {
        "encoding": "inplace",
        "label": "struct BCTypes.Lobby",
        "members": [
          {
            "astId": 10738,
            "contract": "contracts/BCLobby.sol:Lobby",
            "label": "gameStarted",
            "offset": 0,
            "slot": "0",
            "type": "t_bool"
          },
          {
            "astId": 10740,
            "contract": "contracts/BCLobby.sol:Lobby",
            "label": "numberOfPlayers",
            "offset": 1,
            "slot": "0",
            "type": "t_uint8"
          },
          {
            "astId": 10743,
            "contract": "contracts/BCLobby.sol:Lobby",
            "label": "playerIndexes",
            "offset": 0,
            "slot": "1",
            "type": "t_array(t_uint256)dyn_storage"
          }
        ],
        "numberOfBytes": "64"
      },
      "t_uint256": {
        "encoding": "inplace",
        "label": "uint256",
        "numberOfBytes": "32"
      },
      "t_uint8": {
        "encoding": "inplace",
        "label": "uint8",
        "numberOfBytes": "1"
      }
    }
  }
}