{
  "address": "0x38C34C3C36Ac354c78e04f579a9137D0cA9E96af",
  "abi": [
    {
      "inputs": [],
      "stateMutability": "nonpayable",
      "type": "constructor"
    },
    {
      "anonymous": false,
      "inputs": [
        {
          "indexed": true,
          "internalType": "address",
          "name": "previousOwner",
          "type": "address"
        },
        {
          "indexed": true,
          "internalType": "address",
          "name": "newOwner",
          "type": "address"
        }
      ],
      "name": "OwnershipTransferred",
      "type": "event"
    },
    {
      "anonymous": false,
      "inputs": [
        {
          "indexed": false,
          "internalType": "uint256",
          "name": "lobbyNumber",
          "type": "uint256"
        },
        {
          "indexed": false,
          "internalType": "uint256[]",
          "name": "playerIds",
          "type": "uint256[]"
        }
      ],
      "name": "StartedGame",
      "type": "event"
    },
    {
      "inputs": [
        {
          "internalType": "address",
          "name": "",
          "type": "address"
        },
        {
          "internalType": "uint256",
          "name": "",
          "type": "uint256"
        }
      ],
      "name": "addressToLobbies",
      "outputs": [
        {
          "internalType": "uint256",
          "name": "",
          "type": "uint256"
        }
      ],
      "stateMutability": "view",
      "type": "function"
    },
    {
      "inputs": [
        {
          "internalType": "uint256",
          "name": "_charId",
          "type": "uint256"
        },
        {
          "internalType": "address",
          "name": "charOwner",
          "type": "address"
        },
        {
          "internalType": "uint256",
          "name": "_debugRoomId",
          "type": "uint256"
        }
      ],
      "name": "debugEnlist",
      "outputs": [],
      "stateMutability": "nonpayable",
      "type": "function"
    },
    {
      "inputs": [
        {
          "internalType": "uint256",
          "name": "_charId",
          "type": "uint256"
        },
        {
          "internalType": "address",
          "name": "charOwner",
          "type": "address"
        }
      ],
      "name": "enlistForMission",
      "outputs": [],
      "stateMutability": "nonpayable",
      "type": "function"
    },
    {
      "inputs": [
        {
          "internalType": "uint256",
          "name": "_charId",
          "type": "uint256"
        },
        {
          "internalType": "address",
          "name": "charOwner",
          "type": "address"
        }
      ],
      "name": "enlistSolo",
      "outputs": [],
      "stateMutability": "nonpayable",
      "type": "function"
    },
    {
      "inputs": [
        {
          "internalType": "uint256",
          "name": "_lobbyId",
          "type": "uint256"
        }
      ],
      "name": "extGetLobbyPlayerIndexes",
      "outputs": [
        {
          "internalType": "uint256[]",
          "name": "",
          "type": "uint256[]"
        }
      ],
      "stateMutability": "view",
      "type": "function"
    },
    {
      "inputs": [
        {
          "internalType": "uint256",
          "name": "",
          "type": "uint256"
        }
      ],
      "name": "lobbies",
      "outputs": [
        {
          "internalType": "bool",
          "name": "gameStarted",
          "type": "bool"
        },
        {
          "internalType": "uint8",
          "name": "numberOfPlayers",
          "type": "uint8"
        }
      ],
      "stateMutability": "view",
      "type": "function"
    },
    {
      "inputs": [],
      "name": "owner",
      "outputs": [
        {
          "internalType": "address",
          "name": "",
          "type": "address"
        }
      ],
      "stateMutability": "view",
      "type": "function"
    },
    {
      "inputs": [],
      "name": "renounceOwnership",
      "outputs": [],
      "stateMutability": "nonpayable",
      "type": "function"
    },
    {
      "inputs": [
        {
          "internalType": "address",
          "name": "_gameContractAddress",
          "type": "address"
        },
        {
          "internalType": "address",
          "name": "_charContractAddress",
          "type": "address"
        }
      ],
      "name": "setGameContract",
      "outputs": [],
      "stateMutability": "nonpayable",
      "type": "function"
    },
    {
      "inputs": [
        {
          "internalType": "address",
          "name": "newOwner",
          "type": "address"
        }
      ],
      "name": "transferOwnership",
      "outputs": [],
      "stateMutability": "nonpayable",
      "type": "function"
    }
  ],
  "transactionHash": "0xa1908ad8fca325fa6f99e8ffdc63b24adff723dea37d4ba2ade939855635c1be",
  "args": [],
  "numDeployments": 1,
  "solcInputHash": "35b941d515e7c59006e9e04b747ba772",
  "bytecode": "0x60806040523480156200001157600080fd5b5062000032620000266200004860201b60201c565b6200005060201b60201c565b620000426200011460201b60201c565b6200027e565b600033905090565b60008060009054906101000a900473ffffffffffffffffffffffffffffffffffffffff169050816000806101000a81548173ffffffffffffffffffffffffffffffffffffffff021916908373ffffffffffffffffffffffffffffffffffffffff1602179055508173ffffffffffffffffffffffffffffffffffffffff168173ffffffffffffffffffffffffffffffffffffffff167f8be0079c531659141344cd1fd0a4f28419497f9722a3daafe3b4186f6b6457e060405160405180910390a35050565b60006003600181600181540180825580915050039060005260206000209060020201905060008160000160006101000a81548160ff02191690831515021790555060008160000160016101000a81548160ff021916908360ff160217905550600467ffffffffffffffff8111156200019157620001906200024f565b5b604051908082528060200260200182016040528015620001c05781602001602082028036833780820191505090505b50816001019080519060200190620001da929190620001de565b5050565b8280548282559060005260206000209081019282156200021d579160200282015b828111156200021c578251825591602001919060010190620001ff565b5b5090506200022c919062000230565b5090565b5b808211156200024b57600081600090555060010162000231565b5090565b7f4e487b7100000000000000000000000000000000000000000000000000000000600052604160045260246000fd5b611b00806200028e6000396000f3fe608060405234801561001057600080fd5b506004361061009e5760003560e01c80638da5cb5b116100665780638da5cb5b14610146578063a707d63214610164578063aa582fc414610180578063f2fde38b1461019c578063fffb6e78146101b85761009e565b80630c76e3bc146100a3578063237c201b146100bf5780636a818ddc146100db5780636e8fb4c61461010b578063715018a61461013c575b600080fd5b6100bd60048036038101906100b891906111fb565b6101e8565b005b6100d960048036038101906100d49190611271565b610276565b005b6100f560048036038101906100f091906112b1565b610653565b6040516101029190611300565b60405180910390f35b6101256004803603810190610120919061131b565b610684565b60405161013392919061137f565b60405180910390f35b6101446106d2565b005b61014e6106e6565b60405161015b91906113b7565b60405180910390f35b61017e60048036038101906101799190611271565b61070f565b005b61019a600480360381019061019591906113d2565b6109be565b005b6101b660048036038101906101b19190611425565b610d9b565b005b6101d260048036038101906101cd919061131b565b610e1f565b6040516101df9190611510565b60405180910390f35b6101f0610f20565b81600160006101000a81548173ffffffffffffffffffffffffffffffffffffffff021916908373ffffffffffffffffffffffffffffffffffffffff16021790555080600260006101000a81548173ffffffffffffffffffffffffffffffffffffffff021916908373ffffffffffffffffffffffffffffffffffffffff1602179055505050565b600260009054906101000a900473ffffffffffffffffffffffffffffffffffffffff1673ffffffffffffffffffffffffffffffffffffffff163373ffffffffffffffffffffffffffffffffffffffff1614610306576040517f08c379a00000000000000000000000000000000000000000000000000000000081526004016102fd9061158f565b60405180910390fd5b600060046003600160038054905061031e91906115de565b8154811061032f5761032e611612565b5b906000526020600020906002020160000160019054906101000a900460ff1660ff1614156103605761035f610f9e565b5b6003600160038054905061037491906115de565b8154811061038557610384611612565b5b906000526020600020906002020190506000600160009054906101000a900473ffffffffffffffffffffffffffffffffffffffff1673ffffffffffffffffffffffffffffffffffffffff166308178b3c600260009054906101000a900473ffffffffffffffffffffffffffffffffffffffff1686866040518463ffffffff1660e01b815260040161041893929190611641565b6020604051808303816000875af1158015610437573d6000803e3d6000fd5b505050506040513d601f19601f8201168201806040525081019061045b919061168d565b905080826001018360000160019054906101000a900460ff1660ff168154811061048857610487611612565b5b906000526020600020018190555081600001600181819054906101000a900460ff16809291906104b7906116ba565b91906101000a81548160ff021916908360ff1602179055505060048260000160019054906101000a900460ff1660ff1614156105d6576000600160009054906101000a900473ffffffffffffffffffffffffffffffffffffffff1673ffffffffffffffffffffffffffffffffffffffff1663f101de9a84600101600460006040518463ffffffff1660e01b8152600401610553939291906117ff565b6020604051808303816000875af1158015610572573d6000803e3d6000fd5b505050506040513d601f19601f82011682018060405250810190610596919061168d565b90507f4a6e61d0af36ba677826a8161d5b95f04455b03eb2e0fe4cde81377c466c8c5681846001016040516105cc92919061183d565b60405180910390a1505b600460003373ffffffffffffffffffffffffffffffffffffffff1673ffffffffffffffffffffffffffffffffffffffff168152602001908152602001600020600160038054905061062791906115de565b908060018154018082558091505060019003906000526020600020016000909190919091505550505050565b6004602052816000526040600020818154811061066f57600080fd5b90600052602060002001600091509150505481565b6003818154811061069457600080fd5b90600052602060002090600202016000915090508060000160009054906101000a900460ff16908060000160019054906101000a900460ff16905082565b6106da610f20565b6106e46000611062565b565b60008060009054906101000a900473ffffffffffffffffffffffffffffffffffffffff16905090565b600260009054906101000a900473ffffffffffffffffffffffffffffffffffffffff1673ffffffffffffffffffffffffffffffffffffffff163373ffffffffffffffffffffffffffffffffffffffff161461079f576040517f08c379a00000000000000000000000000000000000000000000000000000000081526004016107969061158f565b60405180910390fd5b6000600160009054906101000a900473ffffffffffffffffffffffffffffffffffffffff1673ffffffffffffffffffffffffffffffffffffffff166308178b3c600260009054906101000a900473ffffffffffffffffffffffffffffffffffffffff1685856040518463ffffffff1660e01b815260040161082293929190611641565b6020604051808303816000875af1158015610841573d6000803e3d6000fd5b505050506040513d601f19601f82011682018060405250810190610865919061168d565b90506000600167ffffffffffffffff8111156108845761088361186d565b5b6040519080825280602002602001820160405280156108b25781602001602082028036833780820191505090505b50905081816000815181106108ca576108c9611612565b5b6020026020010181815250506000600160009054906101000a900473ffffffffffffffffffffffffffffffffffffffff1673ffffffffffffffffffffffffffffffffffffffff1663f101de9a83600160006040518463ffffffff1660e01b8152600401610939939291906118d7565b6020604051808303816000875af1158015610958573d6000803e3d6000fd5b505050506040513d601f19601f8201168201806040525081019061097c919061168d565b90507f4a6e61d0af36ba677826a8161d5b95f04455b03eb2e0fe4cde81377c466c8c5681836040516109af929190611915565b60405180910390a15050505050565b600260009054906101000a900473ffffffffffffffffffffffffffffffffffffffff1673ffffffffffffffffffffffffffffffffffffffff163373ffffffffffffffffffffffffffffffffffffffff1614610a4e576040517f08c379a0000000000000000000000000000000000000000000000000000000008152600401610a459061158f565b60405180910390fd5b6000600460036001600380549050610a6691906115de565b81548110610a7757610a76611612565b5b906000526020600020906002020160000160019054906101000a900460ff1660ff161415610aa857610aa7610f9e565b5b60036001600380549050610abc91906115de565b81548110610acd57610acc611612565b5b906000526020600020906002020190506000600160009054906101000a900473ffffffffffffffffffffffffffffffffffffffff1673ffffffffffffffffffffffffffffffffffffffff166308178b3c600260009054906101000a900473ffffffffffffffffffffffffffffffffffffffff1687876040518463ffffffff1660e01b8152600401610b6093929190611641565b6020604051808303816000875af1158015610b7f573d6000803e3d6000fd5b505050506040513d601f19601f82011682018060405250810190610ba3919061168d565b905080826001018360000160019054906101000a900460ff1660ff1681548110610bd057610bcf611612565b5b906000526020600020018190555081600001600181819054906101000a900460ff1680929190610bff906116ba565b91906101000a81548160ff021916908360ff1602179055505060048260000160019054906101000a900460ff1660ff161415610d1d576000600160009054906101000a900473ffffffffffffffffffffffffffffffffffffffff1673ffffffffffffffffffffffffffffffffffffffff1663f101de9a846001016004876040518463ffffffff1660e01b8152600401610c9a93929190611945565b6020604051808303816000875af1158015610cb9573d6000803e3d6000fd5b505050506040513d601f19601f82011682018060405250810190610cdd919061168d565b90507f4a6e61d0af36ba677826a8161d5b95f04455b03eb2e0fe4cde81377c466c8c568184600101604051610d1392919061183d565b60405180910390a1505b600460003373ffffffffffffffffffffffffffffffffffffffff1673ffffffffffffffffffffffffffffffffffffffff1681526020019081526020016000206001600380549050610d6e91906115de565b90806001815401808255809150506001900390600052602060002001600090919091909150555050505050565b610da3610f20565b600073ffffffffffffffffffffffffffffffffffffffff168173ffffffffffffffffffffffffffffffffffffffff161415610e13576040517f08c379a0000000000000000000000000000000000000000000000000000000008152600401610e0a906119f5565b60405180910390fd5b610e1c81611062565b50565b6060600060038381548110610e3757610e36611612565b5b90600052602060002090600202016001018054905067ffffffffffffffff811115610e6557610e6461186d565b5b604051908082528060200260200182016040528015610e935781602001602082028036833780820191505090505b50905060005b8151811015610f165760038481548110610eb657610eb5611612565b5b90600052602060002090600202016001018181548110610ed957610ed8611612565b5b9060005260206000200154828281518110610ef757610ef6611612565b5b6020026020010181815250508080610f0e90611a15565b915050610e99565b5080915050919050565b610f28611126565b73ffffffffffffffffffffffffffffffffffffffff16610f466106e6565b73ffffffffffffffffffffffffffffffffffffffff1614610f9c576040517f08c379a0000000000000000000000000000000000000000000000000000000008152600401610f9390611aaa565b60405180910390fd5b565b60006003600181600181540180825580915050039060005260206000209060020201905060008160000160006101000a81548160ff02191690831515021790555060008160000160016101000a81548160ff021916908360ff160217905550600467ffffffffffffffff8111156110185761101761186d565b5b6040519080825280602002602001820160405280156110465781602001602082028036833780820191505090505b5081600101908051906020019061105e92919061112e565b5050565b60008060009054906101000a900473ffffffffffffffffffffffffffffffffffffffff169050816000806101000a81548173ffffffffffffffffffffffffffffffffffffffff021916908373ffffffffffffffffffffffffffffffffffffffff1602179055508173ffffffffffffffffffffffffffffffffffffffff168173ffffffffffffffffffffffffffffffffffffffff167f8be0079c531659141344cd1fd0a4f28419497f9722a3daafe3b4186f6b6457e060405160405180910390a35050565b600033905090565b82805482825590600052602060002090810192821561116a579160200282015b8281111561116957825182559160200191906001019061114e565b5b509050611177919061117b565b5090565b5b8082111561119457600081600090555060010161117c565b5090565b600080fd5b600073ffffffffffffffffffffffffffffffffffffffff82169050919050565b60006111c88261119d565b9050919050565b6111d8816111bd565b81146111e357600080fd5b50565b6000813590506111f5816111cf565b92915050565b6000806040838503121561121257611211611198565b5b6000611220858286016111e6565b9250506020611231858286016111e6565b9150509250929050565b6000819050919050565b61124e8161123b565b811461125957600080fd5b50565b60008135905061126b81611245565b92915050565b6000806040838503121561128857611287611198565b5b60006112968582860161125c565b92505060206112a7858286016111e6565b9150509250929050565b600080604083850312156112c8576112c7611198565b5b60006112d6858286016111e6565b92505060206112e78582860161125c565b9150509250929050565b6112fa8161123b565b82525050565b600060208201905061131560008301846112f1565b92915050565b60006020828403121561133157611330611198565b5b600061133f8482850161125c565b91505092915050565b60008115159050919050565b61135d81611348565b82525050565b600060ff82169050919050565b61137981611363565b82525050565b60006040820190506113946000830185611354565b6113a16020830184611370565b9392505050565b6113b1816111bd565b82525050565b60006020820190506113cc60008301846113a8565b92915050565b6000806000606084860312156113eb576113ea611198565b5b60006113f98682870161125c565b935050602061140a868287016111e6565b925050604061141b8682870161125c565b9150509250925092565b60006020828403121561143b5761143a611198565b5b6000611449848285016111e6565b91505092915050565b600081519050919050565b600082825260208201905092915050565b6000819050602082019050919050565b6114878161123b565b82525050565b6000611499838361147e565b60208301905092915050565b6000602082019050919050565b60006114bd82611452565b6114c7818561145d565b93506114d28361146e565b8060005b838110156115035781516114ea888261148d565b97506114f5836114a5565b9250506001810190506114d6565b5085935050505092915050565b6000602082019050818103600083015261152a81846114b2565b905092915050565b600082825260208201905092915050565b7f4e6f742063686172616374657220636f6e747261637400000000000000000000600082015250565b6000611579601683611532565b915061158482611543565b602082019050919050565b600060208201905081810360008301526115a88161156c565b9050919050565b7f4e487b7100000000000000000000000000000000000000000000000000000000600052601160045260246000fd5b60006115e98261123b565b91506115f48361123b565b925082821015611607576116066115af565b5b828203905092915050565b7f4e487b7100000000000000000000000000000000000000000000000000000000600052603260045260246000fd5b600060608201905061165660008301866113a8565b61166360208301856112f1565b61167060408301846113a8565b949350505050565b60008151905061168781611245565b92915050565b6000602082840312156116a3576116a2611198565b5b60006116b184828501611678565b91505092915050565b60006116c582611363565b915060ff8214156116d9576116d86115af565b5b600182019050919050565b600081549050919050565b60008190508160005260206000209050919050565b60008160001c9050919050565b6000819050919050565b600061172e61172983611704565b611711565b9050919050565b6000611741825461171b565b9050919050565b6000600182019050919050565b6000611760826116e4565b61176a818561145d565b9350611775836116ef565b8060005b838110156117ad5761178a82611735565b611794888261148d565b975061179f83611748565b925050600181019050611779565b5085935050505092915050565b6000819050919050565b6000819050919050565b60006117e96117e46117df846117ba565b6117c4565b61123b565b9050919050565b6117f9816117ce565b82525050565b600060608201905081810360008301526118198186611755565b905061182860208301856112f1565b61183560408301846117f0565b949350505050565b600060408201905061185260008301856112f1565b81810360208301526118648184611755565b90509392505050565b7f4e487b7100000000000000000000000000000000000000000000000000000000600052604160045260246000fd5b6000819050919050565b60006118c16118bc6118b78461189c565b6117c4565b61123b565b9050919050565b6118d1816118a6565b82525050565b600060608201905081810360008301526118f181866114b2565b905061190060208301856118c8565b61190d60408301846117f0565b949350505050565b600060408201905061192a60008301856112f1565b818103602083015261193c81846114b2565b90509392505050565b6000606082019050818103600083015261195f8186611755565b905061196e60208301856112f1565b61197b60408301846112f1565b949350505050565b7f4f776e61626c653a206e6577206f776e657220697320746865207a65726f206160008201527f6464726573730000000000000000000000000000000000000000000000000000602082015250565b60006119df602683611532565b91506119ea82611983565b604082019050919050565b60006020820190508181036000830152611a0e816119d2565b9050919050565b6000611a208261123b565b91507fffffffffffffffffffffffffffffffffffffffffffffffffffffffffffffffff821415611a5357611a526115af565b5b600182019050919050565b7f4f776e61626c653a2063616c6c6572206973206e6f7420746865206f776e6572600082015250565b6000611a94602083611532565b9150611a9f82611a5e565b602082019050919050565b60006020820190508181036000830152611ac381611a87565b905091905056fea26469706673582212206ff4f27810a76e3d1487a021e43ee40e68da4ba6fe414981bfbe587acbda273d64736f6c634300080c0033",
  "devdoc": {
    "kind": "dev",
    "methods": {
      "owner()": {
        "details": "Returns the address of the current owner."
      },
      "renounceOwnership()": {
        "details": "Leaves the contract without owner. It will not be possible to call `onlyOwner` functions anymore. Can only be called by the current owner. NOTE: Renouncing ownership will leave the contract without an owner, thereby removing any functionality that is only available to the owner."
      },
      "transferOwnership(address)": {
        "details": "Transfers ownership of the contract to a new account (`newOwner`). Can only be called by the current owner."
      }
    },
    "version": 1
  },
  "userdoc": {
    "kind": "user",
    "methods": {},
    "version": 1
  },
  "storageLayout": {
    "storage": [
      {
        "astId": 7,
        "contract": "contracts/BCLobby.sol:Lobby",
        "label": "_owner",
        "offset": 0,
        "slot": "0",
        "type": "t_address"
      },
      {
        "astId": 5010,
        "contract": "contracts/BCLobby.sol:Lobby",
        "label": "games",
        "offset": 0,
        "slot": "1",
        "type": "t_contract(GamesInterface)4982"
      },
      {
        "astId": 5013,
        "contract": "contracts/BCLobby.sol:Lobby",
        "label": "chars",
        "offset": 0,
        "slot": "2",
        "type": "t_contract(CharacterInterface)5005"
      },
      {
        "astId": 5042,
        "contract": "contracts/BCLobby.sol:Lobby",
        "label": "lobbies",
        "offset": 0,
        "slot": "3",
        "type": "t_array(t_struct(Lobby)5595_storage)dyn_storage"
      },
      {
        "astId": 5047,
        "contract": "contracts/BCLobby.sol:Lobby",
        "label": "addressToLobbies",
        "offset": 0,
        "slot": "4",
        "type": "t_mapping(t_address,t_array(t_uint256)dyn_storage)"
      }
    ],
    "types": {
      "t_address": {
        "encoding": "inplace",
        "label": "address",
        "numberOfBytes": "20"
      },
      "t_array(t_struct(Lobby)5595_storage)dyn_storage": {
        "base": "t_struct(Lobby)5595_storage",
        "encoding": "dynamic_array",
        "label": "struct BCTypes.Lobby[]",
        "numberOfBytes": "32"
      },
      "t_array(t_uint256)dyn_storage": {
        "base": "t_uint256",
        "encoding": "dynamic_array",
        "label": "uint256[]",
        "numberOfBytes": "32"
      },
      "t_bool": {
        "encoding": "inplace",
        "label": "bool",
        "numberOfBytes": "1"
      },
      "t_contract(CharacterInterface)5005": {
        "encoding": "inplace",
        "label": "contract CharacterInterface",
        "numberOfBytes": "20"
      },
      "t_contract(GamesInterface)4982": {
        "encoding": "inplace",
        "label": "contract GamesInterface",
        "numberOfBytes": "20"
      },
      "t_mapping(t_address,t_array(t_uint256)dyn_storage)": {
        "encoding": "mapping",
        "key": "t_address",
        "label": "mapping(address => uint256[])",
        "numberOfBytes": "32",
        "value": "t_array(t_uint256)dyn_storage"
      },
      "t_struct(Lobby)5595_storage": {
        "encoding": "inplace",
        "label": "struct BCTypes.Lobby",
        "members": [
          {
            "astId": 5589,
            "contract": "contracts/BCLobby.sol:Lobby",
            "label": "gameStarted",
            "offset": 0,
            "slot": "0",
            "type": "t_bool"
          },
          {
            "astId": 5591,
            "contract": "contracts/BCLobby.sol:Lobby",
            "label": "numberOfPlayers",
            "offset": 1,
            "slot": "0",
            "type": "t_uint8"
          },
          {
            "astId": 5594,
            "contract": "contracts/BCLobby.sol:Lobby",
            "label": "playerIndexes",
            "offset": 0,
            "slot": "1",
            "type": "t_array(t_uint256)dyn_storage"
          }
        ],
        "numberOfBytes": "64"
      },
      "t_uint256": {
        "encoding": "inplace",
        "label": "uint256",
        "numberOfBytes": "32"
      },
      "t_uint8": {
        "encoding": "inplace",
        "label": "uint8",
        "numberOfBytes": "1"
      }
    }
  }
}