{
  "address": "0xcF7f87C323abc42302787A04608BbE4e8d3891D5",
  "abi": [
    {
      "inputs": [],
      "stateMutability": "nonpayable",
      "type": "constructor"
    },
    {
      "anonymous": false,
      "inputs": [
        {
          "indexed": true,
          "internalType": "address",
          "name": "previousOwner",
          "type": "address"
        },
        {
          "indexed": true,
          "internalType": "address",
          "name": "newOwner",
          "type": "address"
        }
      ],
      "name": "OwnershipTransferred",
      "type": "event"
    },
    {
      "inputs": [],
      "name": "debugStartGame",
      "outputs": [],
      "stateMutability": "nonpayable",
      "type": "function"
    },
    {
      "inputs": [],
      "name": "enlistCost",
      "outputs": [
        {
          "internalType": "uint256",
          "name": "",
          "type": "uint256"
        }
      ],
      "stateMutability": "view",
      "type": "function"
    },
    {
      "inputs": [
        {
          "internalType": "address",
          "name": "_charContractAddress",
          "type": "address"
        },
        {
          "internalType": "uint256",
          "name": "_charId",
          "type": "uint256"
        }
      ],
      "name": "enlistForMission",
      "outputs": [],
      "stateMutability": "payable",
      "type": "function"
    },
    {
      "inputs": [
        {
          "internalType": "uint256",
          "name": "_lobbyId",
          "type": "uint256"
        }
      ],
      "name": "extGetLobbyPlayerIndexes",
      "outputs": [
        {
          "internalType": "uint256[]",
          "name": "",
          "type": "uint256[]"
        }
      ],
      "stateMutability": "view",
      "type": "function"
    },
    {
      "inputs": [
        {
          "internalType": "uint256",
          "name": "",
          "type": "uint256"
        }
      ],
      "name": "lobbies",
      "outputs": [
        {
          "internalType": "bool",
          "name": "gameStarted",
          "type": "bool"
        },
        {
          "internalType": "uint8",
          "name": "numberOfPlayers",
          "type": "uint8"
        }
      ],
      "stateMutability": "view",
      "type": "function"
    },
    {
      "inputs": [],
      "name": "owner",
      "outputs": [
        {
          "internalType": "address",
          "name": "",
          "type": "address"
        }
      ],
      "stateMutability": "view",
      "type": "function"
    },
    {
      "inputs": [],
      "name": "renounceOwnership",
      "outputs": [],
      "stateMutability": "nonpayable",
      "type": "function"
    },
    {
      "inputs": [
        {
          "internalType": "address",
          "name": "_gameContractAddress",
          "type": "address"
        },
        {
          "internalType": "address",
          "name": "_charContractAddress",
          "type": "address"
        }
      ],
      "name": "setGameContract",
      "outputs": [],
      "stateMutability": "nonpayable",
      "type": "function"
    },
    {
      "inputs": [
        {
          "internalType": "address",
          "name": "newOwner",
          "type": "address"
        }
      ],
      "name": "transferOwnership",
      "outputs": [],
      "stateMutability": "nonpayable",
      "type": "function"
    }
  ],
  "transactionHash": "0x4ac26885977014eb95d9d7dd6b742635e06d99832bb04b4e4ddd031e03403c02",
  "args": [],
  "numDeployments": 3,
  "solcInputHash": "a048cf68bfae6cce592c7168acc11086",
  "bytecode": "0x6080604052655af3107a40006004553480156200001b57600080fd5b506200003c620000306200010a60201b60201c565b6200011260201b60201c565b60006003600181600181540180825580915050039060005260206000209060020201905060008160000160006101000a81548160ff02191690831515021790555060008160000160016101000a81548160ff021916908360ff160217905550600467ffffffffffffffff811115620000b957620000b862000247565b5b604051908082528060200260200182016040528015620000e85781602001602082028036833780820191505090505b5081600101908051906020019062000102929190620001d6565b505062000276565b600033905090565b60008060009054906101000a900473ffffffffffffffffffffffffffffffffffffffff169050816000806101000a81548173ffffffffffffffffffffffffffffffffffffffff021916908373ffffffffffffffffffffffffffffffffffffffff1602179055508173ffffffffffffffffffffffffffffffffffffffff168173ffffffffffffffffffffffffffffffffffffffff167f8be0079c531659141344cd1fd0a4f28419497f9722a3daafe3b4186f6b6457e060405160405180910390a35050565b82805482825590600052602060002090810192821562000215579160200282015b8281111562000214578251825591602001919060010190620001f7565b5b50905062000224919062000228565b5090565b5b808211156200024357600081600090555060010162000229565b5090565b7f4e487b7100000000000000000000000000000000000000000000000000000000600052604160045260246000fd5b6112a280620002866000396000f3fe6080604052600436106100865760003560e01c80638da5cb5b116100595780638da5cb5b14610125578063d3cbb7ce14610150578063f2fde38b14610167578063fdcadf8114610190578063fffb6e78146101bb57610086565b80630c76e3bc1461008b57806324ec4ecb146100b45780636e8fb4c6146100d0578063715018a61461010e575b600080fd5b34801561009757600080fd5b506100b260048036038101906100ad9190610b58565b6101f8565b005b6100ce60048036038101906100c99190610bce565b610286565b005b3480156100dc57600080fd5b506100f760048036038101906100f29190610c0e565b6106f5565b604051610105929190610c72565b60405180910390f35b34801561011a57600080fd5b50610123610743565b005b34801561013157600080fd5b5061013a610757565b6040516101479190610caa565b60405180910390f35b34801561015c57600080fd5b50610165610780565b005b34801561017357600080fd5b5061018e60048036038101906101899190610cc5565b6107b6565b005b34801561019c57600080fd5b506101a561083a565b6040516101b29190610d01565b60405180910390f35b3480156101c757600080fd5b506101e260048036038101906101dd9190610c0e565b610840565b6040516101ef9190610dda565b60405180910390f35b610200610941565b81600160006101000a81548173ffffffffffffffffffffffffffffffffffffffff021916908373ffffffffffffffffffffffffffffffffffffffff16021790555080600260006101000a81548173ffffffffffffffffffffffffffffffffffffffff021916908373ffffffffffffffffffffffffffffffffffffffff1602179055505050565b61028e610757565b73ffffffffffffffffffffffffffffffffffffffff163373ffffffffffffffffffffffffffffffffffffffff1614806102c8575060045434145b610307576040517f08c379a00000000000000000000000000000000000000000000000000000000081526004016102fe90610e59565b60405180910390fd5b600260009054906101000a900473ffffffffffffffffffffffffffffffffffffffff1673ffffffffffffffffffffffffffffffffffffffff16636352211e826040518263ffffffff1660e01b81526004016103629190610d01565b602060405180830381865afa15801561037f573d6000803e3d6000fd5b505050506040513d601f19601f820116820180604052508101906103a39190610e8e565b73ffffffffffffffffffffffffffffffffffffffff163373ffffffffffffffffffffffffffffffffffffffff16146103da57600080fd5b60006004600360016003805490506103f29190610eea565b8154811061040357610402610f1e565b5b906000526020600020906002020160000160019054906101000a900460ff1660ff1614156104ef576003600181600181540180825580915050039060005260206000209060020201905060008160000160006101000a81548160ff02191690831515021790555060008160000160016101000a81548160ff021916908360ff160217905550600467ffffffffffffffff8111156104a3576104a2610f4d565b5b6040519080825280602002602001820160405280156104d15781602001602082028036833780820191505090505b508160010190805190602001906104e9929190610a8b565b50610525565b600360016003805490506105039190610eea565b8154811061051457610513610f1e565b5b906000526020600020906002020190505b6000600160009054906101000a900473ffffffffffffffffffffffffffffffffffffffff1673ffffffffffffffffffffffffffffffffffffffff166308178b3c8585336040518463ffffffff1660e01b815260040161058693929190610f7c565b6020604051808303816000875af11580156105a5573d6000803e3d6000fd5b505050506040513d601f19601f820116820180604052508101906105c99190610fc8565b905080826001018360000160019054906101000a900460ff1660ff16815481106105f6576105f5610f1e565b5b906000526020600020018190555081600001600181819054906101000a900460ff168092919061062590610ff5565b91906101000a81548160ff021916908360ff1602179055505060048260000160019054906101000a900460ff1660ff1614156106ef57600160009054906101000a900473ffffffffffffffffffffffffffffffffffffffff1673ffffffffffffffffffffffffffffffffffffffff166368030c728360010160046040518363ffffffff1660e01b81526004016106bc9291906110f5565b600060405180830381600087803b1580156106d657600080fd5b505af11580156106ea573d6000803e3d6000fd5b505050505b50505050565b6003818154811061070557600080fd5b90600052602060002090600202016000915090508060000160009054906101000a900460ff16908060000160019054906101000a900460ff16905082565b61074b610941565b61075560006109bf565b565b60008060009054906101000a900473ffffffffffffffffffffffffffffffffffffffff16905090565b610788610941565b610793306003610286565b61079e306002610286565b6107a9306001610286565b6107b4306000610286565b565b6107be610941565b600073ffffffffffffffffffffffffffffffffffffffff168173ffffffffffffffffffffffffffffffffffffffff16141561082e576040517f08c379a000000000000000000000000000000000000000000000000000000000815260040161082590611197565b60405180910390fd5b610837816109bf565b50565b60045481565b606060006003838154811061085857610857610f1e565b5b90600052602060002090600202016001018054905067ffffffffffffffff81111561088657610885610f4d565b5b6040519080825280602002602001820160405280156108b45781602001602082028036833780820191505090505b50905060005b815181101561093757600384815481106108d7576108d6610f1e565b5b906000526020600020906002020160010181815481106108fa576108f9610f1e565b5b906000526020600020015482828151811061091857610917610f1e565b5b602002602001018181525050808061092f906111b7565b9150506108ba565b5080915050919050565b610949610a83565b73ffffffffffffffffffffffffffffffffffffffff16610967610757565b73ffffffffffffffffffffffffffffffffffffffff16146109bd576040517f08c379a00000000000000000000000000000000000000000000000000000000081526004016109b49061124c565b60405180910390fd5b565b60008060009054906101000a900473ffffffffffffffffffffffffffffffffffffffff169050816000806101000a81548173ffffffffffffffffffffffffffffffffffffffff021916908373ffffffffffffffffffffffffffffffffffffffff1602179055508173ffffffffffffffffffffffffffffffffffffffff168173ffffffffffffffffffffffffffffffffffffffff167f8be0079c531659141344cd1fd0a4f28419497f9722a3daafe3b4186f6b6457e060405160405180910390a35050565b600033905090565b828054828255906000526020600020908101928215610ac7579160200282015b82811115610ac6578251825591602001919060010190610aab565b5b509050610ad49190610ad8565b5090565b5b80821115610af1576000816000905550600101610ad9565b5090565b600080fd5b600073ffffffffffffffffffffffffffffffffffffffff82169050919050565b6000610b2582610afa565b9050919050565b610b3581610b1a565b8114610b4057600080fd5b50565b600081359050610b5281610b2c565b92915050565b60008060408385031215610b6f57610b6e610af5565b5b6000610b7d85828601610b43565b9250506020610b8e85828601610b43565b9150509250929050565b6000819050919050565b610bab81610b98565b8114610bb657600080fd5b50565b600081359050610bc881610ba2565b92915050565b60008060408385031215610be557610be4610af5565b5b6000610bf385828601610b43565b9250506020610c0485828601610bb9565b9150509250929050565b600060208284031215610c2457610c23610af5565b5b6000610c3284828501610bb9565b91505092915050565b60008115159050919050565b610c5081610c3b565b82525050565b600060ff82169050919050565b610c6c81610c56565b82525050565b6000604082019050610c876000830185610c47565b610c946020830184610c63565b9392505050565b610ca481610b1a565b82525050565b6000602082019050610cbf6000830184610c9b565b92915050565b600060208284031215610cdb57610cda610af5565b5b6000610ce984828501610b43565b91505092915050565b610cfb81610b98565b82525050565b6000602082019050610d166000830184610cf2565b92915050565b600081519050919050565b600082825260208201905092915050565b6000819050602082019050919050565b610d5181610b98565b82525050565b6000610d638383610d48565b60208301905092915050565b6000602082019050919050565b6000610d8782610d1c565b610d918185610d27565b9350610d9c83610d38565b8060005b83811015610dcd578151610db48882610d57565b9750610dbf83610d6f565b925050600181019050610da0565b5085935050505092915050565b60006020820190508181036000830152610df48184610d7c565b905092915050565b600082825260208201905092915050565b7f696e636f7272656374207061796d656e74000000000000000000000000000000600082015250565b6000610e43601183610dfc565b9150610e4e82610e0d565b602082019050919050565b60006020820190508181036000830152610e7281610e36565b9050919050565b600081519050610e8881610b2c565b92915050565b600060208284031215610ea457610ea3610af5565b5b6000610eb284828501610e79565b91505092915050565b7f4e487b7100000000000000000000000000000000000000000000000000000000600052601160045260246000fd5b6000610ef582610b98565b9150610f0083610b98565b925082821015610f1357610f12610ebb565b5b828203905092915050565b7f4e487b7100000000000000000000000000000000000000000000000000000000600052603260045260246000fd5b7f4e487b7100000000000000000000000000000000000000000000000000000000600052604160045260246000fd5b6000606082019050610f916000830186610c9b565b610f9e6020830185610cf2565b610fab6040830184610c9b565b949350505050565b600081519050610fc281610ba2565b92915050565b600060208284031215610fde57610fdd610af5565b5b6000610fec84828501610fb3565b91505092915050565b600061100082610c56565b915060ff82141561101457611013610ebb565b5b600182019050919050565b600081549050919050565b60008190508160005260206000209050919050565b60008160001c9050919050565b6000819050919050565b60006110696110648361103f565b61104c565b9050919050565b600061107c8254611056565b9050919050565b6000600182019050919050565b600061109b8261101f565b6110a58185610d27565b93506110b08361102a565b8060005b838110156110e8576110c582611070565b6110cf8882610d57565b97506110da83611083565b9250506001810190506110b4565b5085935050505092915050565b6000604082019050818103600083015261110f8185611090565b905061111e6020830184610cf2565b9392505050565b7f4f776e61626c653a206e6577206f776e657220697320746865207a65726f206160008201527f6464726573730000000000000000000000000000000000000000000000000000602082015250565b6000611181602683610dfc565b915061118c82611125565b604082019050919050565b600060208201905081810360008301526111b081611174565b9050919050565b60006111c282610b98565b91507fffffffffffffffffffffffffffffffffffffffffffffffffffffffffffffffff8214156111f5576111f4610ebb565b5b600182019050919050565b7f4f776e61626c653a2063616c6c6572206973206e6f7420746865206f776e6572600082015250565b6000611236602083610dfc565b915061124182611200565b602082019050919050565b6000602082019050818103600083015261126581611229565b905091905056fea264697066735822122067cfc80d462f7bfc3a0891292b8bd3e4b9002e009a1ef26ed1a49d11d3742eeb64736f6c634300080c0033",
  "devdoc": {
    "kind": "dev",
    "methods": {
      "owner()": {
        "details": "Returns the address of the current owner."
      },
      "renounceOwnership()": {
        "details": "Leaves the contract without owner. It will not be possible to call `onlyOwner` functions anymore. Can only be called by the current owner. NOTE: Renouncing ownership will leave the contract without an owner, thereby removing any functionality that is only available to the owner."
      },
      "transferOwnership(address)": {
        "details": "Transfers ownership of the contract to a new account (`newOwner`). Can only be called by the current owner."
      }
    },
    "version": 1
  },
  "userdoc": {
    "kind": "user",
    "methods": {},
    "version": 1
  },
  "storageLayout": {
    "storage": [
      {
        "astId": 7,
        "contract": "contracts/BCLobby.sol:Lobby",
        "label": "_owner",
        "offset": 0,
        "slot": "0",
        "type": "t_address"
      },
      {
        "astId": 2533,
        "contract": "contracts/BCLobby.sol:Lobby",
        "label": "games",
        "offset": 0,
        "slot": "1",
        "type": "t_contract(GamesInterface)2520"
      },
      {
        "astId": 2536,
        "contract": "contracts/BCLobby.sol:Lobby",
        "label": "chars",
        "offset": 0,
        "slot": "2",
        "type": "t_contract(CharacterInterface)2528"
      },
      {
        "astId": 2565,
        "contract": "contracts/BCLobby.sol:Lobby",
        "label": "lobbies",
        "offset": 0,
        "slot": "3",
        "type": "t_array(t_struct(Lobby)2969_storage)dyn_storage"
      },
      {
        "astId": 2572,
        "contract": "contracts/BCLobby.sol:Lobby",
        "label": "enlistCost",
        "offset": 0,
        "slot": "4",
        "type": "t_uint256"
      }
    ],
    "types": {
      "t_address": {
        "encoding": "inplace",
        "label": "address",
        "numberOfBytes": "20"
      },
      "t_array(t_struct(Lobby)2969_storage)dyn_storage": {
        "base": "t_struct(Lobby)2969_storage",
        "encoding": "dynamic_array",
        "label": "struct BCTypes.Lobby[]",
        "numberOfBytes": "32"
      },
      "t_array(t_uint256)dyn_storage": {
        "base": "t_uint256",
        "encoding": "dynamic_array",
        "label": "uint256[]",
        "numberOfBytes": "32"
      },
      "t_bool": {
        "encoding": "inplace",
        "label": "bool",
        "numberOfBytes": "1"
      },
      "t_contract(CharacterInterface)2528": {
        "encoding": "inplace",
        "label": "contract CharacterInterface",
        "numberOfBytes": "20"
      },
      "t_contract(GamesInterface)2520": {
        "encoding": "inplace",
        "label": "contract GamesInterface",
        "numberOfBytes": "20"
      },
      "t_struct(Lobby)2969_storage": {
        "encoding": "inplace",
        "label": "struct BCTypes.Lobby",
        "members": [
          {
            "astId": 2963,
            "contract": "contracts/BCLobby.sol:Lobby",
            "label": "gameStarted",
            "offset": 0,
            "slot": "0",
            "type": "t_bool"
          },
          {
            "astId": 2965,
            "contract": "contracts/BCLobby.sol:Lobby",
            "label": "numberOfPlayers",
            "offset": 1,
            "slot": "0",
            "type": "t_uint8"
          },
          {
            "astId": 2968,
            "contract": "contracts/BCLobby.sol:Lobby",
            "label": "playerIndexes",
            "offset": 0,
            "slot": "1",
            "type": "t_array(t_uint256)dyn_storage"
          }
        ],
        "numberOfBytes": "64"
      },
      "t_uint256": {
        "encoding": "inplace",
        "label": "uint256",
        "numberOfBytes": "32"
      },
      "t_uint8": {
        "encoding": "inplace",
        "label": "uint8",
        "numberOfBytes": "1"
      }
    }
  }
}