{
  "address": "0x08dEd514Fb51cF329f7059AB004f17989a4d017e",
  "abi": [
    {
      "inputs": [],
      "stateMutability": "nonpayable",
      "type": "constructor"
    },
    {
      "anonymous": false,
      "inputs": [
        {
          "indexed": true,
          "internalType": "address",
          "name": "previousOwner",
          "type": "address"
        },
        {
          "indexed": true,
          "internalType": "address",
          "name": "newOwner",
          "type": "address"
        }
      ],
      "name": "OwnershipTransferred",
      "type": "event"
    },
    {
      "inputs": [],
      "name": "MIN_PLAYERS",
      "outputs": [
        {
          "internalType": "uint256",
          "name": "",
          "type": "uint256"
        }
      ],
      "stateMutability": "view",
      "type": "function"
    },
    {
      "inputs": [
        {
          "internalType": "address",
          "name": "",
          "type": "address"
        },
        {
          "internalType": "uint256",
          "name": "",
          "type": "uint256"
        }
      ],
      "name": "addressToLobbies",
      "outputs": [
        {
          "internalType": "uint256",
          "name": "",
          "type": "uint256"
        }
      ],
      "stateMutability": "view",
      "type": "function"
    },
    {
      "inputs": [
        {
          "internalType": "uint256",
          "name": "_charId",
          "type": "uint256"
        },
        {
          "internalType": "address",
          "name": "charOwner",
          "type": "address"
        }
      ],
      "name": "enlistForMission",
      "outputs": [],
      "stateMutability": "nonpayable",
      "type": "function"
    },
    {
      "inputs": [
        {
          "internalType": "uint256",
          "name": "_lobbyId",
          "type": "uint256"
        }
      ],
      "name": "extGetLobbyPlayerIndexes",
      "outputs": [
        {
          "internalType": "uint256[]",
          "name": "",
          "type": "uint256[]"
        }
      ],
      "stateMutability": "view",
      "type": "function"
    },
    {
      "inputs": [
        {
          "internalType": "uint256",
          "name": "",
          "type": "uint256"
        }
      ],
      "name": "lobbies",
      "outputs": [
        {
          "internalType": "bool",
          "name": "gameStarted",
          "type": "bool"
        },
        {
          "internalType": "uint8",
          "name": "numberOfPlayers",
          "type": "uint8"
        }
      ],
      "stateMutability": "view",
      "type": "function"
    },
    {
      "inputs": [],
      "name": "owner",
      "outputs": [
        {
          "internalType": "address",
          "name": "",
          "type": "address"
        }
      ],
      "stateMutability": "view",
      "type": "function"
    },
    {
      "inputs": [],
      "name": "renounceOwnership",
      "outputs": [],
      "stateMutability": "nonpayable",
      "type": "function"
    },
    {
      "inputs": [
        {
          "internalType": "address",
          "name": "_gameContractAddress",
          "type": "address"
        },
        {
          "internalType": "address",
          "name": "_charContractAddress",
          "type": "address"
        }
      ],
      "name": "setGameContract",
      "outputs": [],
      "stateMutability": "nonpayable",
      "type": "function"
    },
    {
      "inputs": [
        {
          "internalType": "address",
          "name": "newOwner",
          "type": "address"
        }
      ],
      "name": "transferOwnership",
      "outputs": [],
      "stateMutability": "nonpayable",
      "type": "function"
    }
  ],
  "transactionHash": "0x4dec3c9d9fba3cb6a3d80305b9777b87396392d51c73448f4637b199309fdd26",
  "args": [],
  "numDeployments": 3,
  "solcInputHash": "5f11f3f672d26683aabfcc02baaa0ea2",
  "bytecode": "0x6080604052600380553480156200001557600080fd5b50620000366200002a6200004c60201b60201c565b6200005460201b60201c565b620000466200011860201b60201c565b62000282565b600033905090565b60008060009054906101000a900473ffffffffffffffffffffffffffffffffffffffff169050816000806101000a81548173ffffffffffffffffffffffffffffffffffffffff021916908373ffffffffffffffffffffffffffffffffffffffff1602179055508173ffffffffffffffffffffffffffffffffffffffff168173ffffffffffffffffffffffffffffffffffffffff167f8be0079c531659141344cd1fd0a4f28419497f9722a3daafe3b4186f6b6457e060405160405180910390a35050565b60006004600181600181540180825580915050039060005260206000209060020201905060008160000160006101000a81548160ff02191690831515021790555060008160000160016101000a81548160ff021916908360ff160217905550600467ffffffffffffffff81111562000195576200019462000253565b5b604051908082528060200260200182016040528015620001c45781602001602082028036833780820191505090505b50816001019080519060200190620001de929190620001e2565b5050565b82805482825590600052602060002090810192821562000221579160200282015b828111156200022057825182559160200191906001019062000203565b5b50905062000230919062000234565b5090565b5b808211156200024f57600081600090555060010162000235565b5090565b7f4e487b7100000000000000000000000000000000000000000000000000000000600052604160045260246000fd5b61114680620002926000396000f3fe608060405234801561001057600080fd5b50600436106100935760003560e01c8063715018a611610066578063715018a61461013157806385f07bbe1461013b5780638da5cb5b14610159578063f2fde38b14610177578063fffb6e781461019357610093565b80630c76e3bc14610098578063237c201b146100b45780636a818ddc146100d05780636e8fb4c614610100575b600080fd5b6100b260048036038101906100ad9190610a6a565b6101c3565b005b6100ce60048036038101906100c99190610ae0565b610251565b005b6100ea60048036038101906100e59190610b20565b610548565b6040516100f79190610b6f565b60405180910390f35b61011a60048036038101906101159190610b8a565b610579565b604051610128929190610bee565b60405180910390f35b6101396105c7565b005b6101436105db565b6040516101509190610b6f565b60405180910390f35b6101616105e1565b60405161016e9190610c26565b60405180910390f35b610191600480360381019061018c9190610c41565b61060a565b005b6101ad60048036038101906101a89190610b8a565b61068e565b6040516101ba9190610d2c565b60405180910390f35b6101cb61078f565b81600160006101000a81548173ffffffffffffffffffffffffffffffffffffffff021916908373ffffffffffffffffffffffffffffffffffffffff16021790555080600260006101000a81548173ffffffffffffffffffffffffffffffffffffffff021916908373ffffffffffffffffffffffffffffffffffffffff1602179055505050565b600060048060016004805490506102689190610d7d565b8154811061027957610278610db1565b5b906000526020600020906002020160000160019054906101000a900460ff1660ff1614156102aa576102a961080d565b5b600460016004805490506102be9190610d7d565b815481106102cf576102ce610db1565b5b906000526020600020906002020190506000600160009054906101000a900473ffffffffffffffffffffffffffffffffffffffff1673ffffffffffffffffffffffffffffffffffffffff166308178b3c600260009054906101000a900473ffffffffffffffffffffffffffffffffffffffff1686866040518463ffffffff1660e01b815260040161036293929190610de0565b6020604051808303816000875af1158015610381573d6000803e3d6000fd5b505050506040513d601f19601f820116820180604052508101906103a59190610e2c565b905080826001018360000160019054906101000a900460ff1660ff16815481106103d2576103d1610db1565b5b906000526020600020018190555081600001600181819054906101000a900460ff168092919061040190610e59565b91906101000a81548160ff021916908360ff1602179055505060048260000160019054906101000a900460ff1660ff1614156104cb57600160009054906101000a900473ffffffffffffffffffffffffffffffffffffffff1673ffffffffffffffffffffffffffffffffffffffff166368030c728360010160046040518363ffffffff1660e01b8152600401610498929190610f59565b600060405180830381600087803b1580156104b257600080fd5b505af11580156104c6573d6000803e3d6000fd5b505050505b600560003373ffffffffffffffffffffffffffffffffffffffff1673ffffffffffffffffffffffffffffffffffffffff168152602001908152602001600020600160048054905061051c9190610d7d565b908060018154018082558091505060019003906000526020600020016000909190919091505550505050565b6005602052816000526040600020818154811061056457600080fd5b90600052602060002001600091509150505481565b6004818154811061058957600080fd5b90600052602060002090600202016000915090508060000160009054906101000a900460ff16908060000160019054906101000a900460ff16905082565b6105cf61078f565b6105d960006108d1565b565b60035481565b60008060009054906101000a900473ffffffffffffffffffffffffffffffffffffffff16905090565b61061261078f565b600073ffffffffffffffffffffffffffffffffffffffff168173ffffffffffffffffffffffffffffffffffffffff161415610682576040517f08c379a00000000000000000000000000000000000000000000000000000000081526004016106799061100c565b60405180910390fd5b61068b816108d1565b50565b60606000600483815481106106a6576106a5610db1565b5b90600052602060002090600202016001018054905067ffffffffffffffff8111156106d4576106d361102c565b5b6040519080825280602002602001820160405280156107025781602001602082028036833780820191505090505b50905060005b8151811015610785576004848154811061072557610724610db1565b5b9060005260206000209060020201600101818154811061074857610747610db1565b5b906000526020600020015482828151811061076657610765610db1565b5b602002602001018181525050808061077d9061105b565b915050610708565b5080915050919050565b610797610995565b73ffffffffffffffffffffffffffffffffffffffff166107b56105e1565b73ffffffffffffffffffffffffffffffffffffffff161461080b576040517f08c379a0000000000000000000000000000000000000000000000000000000008152600401610802906110f0565b60405180910390fd5b565b60006004600181600181540180825580915050039060005260206000209060020201905060008160000160006101000a81548160ff02191690831515021790555060008160000160016101000a81548160ff021916908360ff160217905550600467ffffffffffffffff8111156108875761088661102c565b5b6040519080825280602002602001820160405280156108b55781602001602082028036833780820191505090505b508160010190805190602001906108cd92919061099d565b5050565b60008060009054906101000a900473ffffffffffffffffffffffffffffffffffffffff169050816000806101000a81548173ffffffffffffffffffffffffffffffffffffffff021916908373ffffffffffffffffffffffffffffffffffffffff1602179055508173ffffffffffffffffffffffffffffffffffffffff168173ffffffffffffffffffffffffffffffffffffffff167f8be0079c531659141344cd1fd0a4f28419497f9722a3daafe3b4186f6b6457e060405160405180910390a35050565b600033905090565b8280548282559060005260206000209081019282156109d9579160200282015b828111156109d85782518255916020019190600101906109bd565b5b5090506109e691906109ea565b5090565b5b80821115610a035760008160009055506001016109eb565b5090565b600080fd5b600073ffffffffffffffffffffffffffffffffffffffff82169050919050565b6000610a3782610a0c565b9050919050565b610a4781610a2c565b8114610a5257600080fd5b50565b600081359050610a6481610a3e565b92915050565b60008060408385031215610a8157610a80610a07565b5b6000610a8f85828601610a55565b9250506020610aa085828601610a55565b9150509250929050565b6000819050919050565b610abd81610aaa565b8114610ac857600080fd5b50565b600081359050610ada81610ab4565b92915050565b60008060408385031215610af757610af6610a07565b5b6000610b0585828601610acb565b9250506020610b1685828601610a55565b9150509250929050565b60008060408385031215610b3757610b36610a07565b5b6000610b4585828601610a55565b9250506020610b5685828601610acb565b9150509250929050565b610b6981610aaa565b82525050565b6000602082019050610b846000830184610b60565b92915050565b600060208284031215610ba057610b9f610a07565b5b6000610bae84828501610acb565b91505092915050565b60008115159050919050565b610bcc81610bb7565b82525050565b600060ff82169050919050565b610be881610bd2565b82525050565b6000604082019050610c036000830185610bc3565b610c106020830184610bdf565b9392505050565b610c2081610a2c565b82525050565b6000602082019050610c3b6000830184610c17565b92915050565b600060208284031215610c5757610c56610a07565b5b6000610c6584828501610a55565b91505092915050565b600081519050919050565b600082825260208201905092915050565b6000819050602082019050919050565b610ca381610aaa565b82525050565b6000610cb58383610c9a565b60208301905092915050565b6000602082019050919050565b6000610cd982610c6e565b610ce38185610c79565b9350610cee83610c8a565b8060005b83811015610d1f578151610d068882610ca9565b9750610d1183610cc1565b925050600181019050610cf2565b5085935050505092915050565b60006020820190508181036000830152610d468184610cce565b905092915050565b7f4e487b7100000000000000000000000000000000000000000000000000000000600052601160045260246000fd5b6000610d8882610aaa565b9150610d9383610aaa565b925082821015610da657610da5610d4e565b5b828203905092915050565b7f4e487b7100000000000000000000000000000000000000000000000000000000600052603260045260246000fd5b6000606082019050610df56000830186610c17565b610e026020830185610b60565b610e0f6040830184610c17565b949350505050565b600081519050610e2681610ab4565b92915050565b600060208284031215610e4257610e41610a07565b5b6000610e5084828501610e17565b91505092915050565b6000610e6482610bd2565b915060ff821415610e7857610e77610d4e565b5b600182019050919050565b600081549050919050565b60008190508160005260206000209050919050565b60008160001c9050919050565b6000819050919050565b6000610ecd610ec883610ea3565b610eb0565b9050919050565b6000610ee08254610eba565b9050919050565b6000600182019050919050565b6000610eff82610e83565b610f098185610c79565b9350610f1483610e8e565b8060005b83811015610f4c57610f2982610ed4565b610f338882610ca9565b9750610f3e83610ee7565b925050600181019050610f18565b5085935050505092915050565b60006040820190508181036000830152610f738185610ef4565b9050610f826020830184610b60565b9392505050565b600082825260208201905092915050565b7f4f776e61626c653a206e6577206f776e657220697320746865207a65726f206160008201527f6464726573730000000000000000000000000000000000000000000000000000602082015250565b6000610ff6602683610f89565b915061100182610f9a565b604082019050919050565b6000602082019050818103600083015261102581610fe9565b9050919050565b7f4e487b7100000000000000000000000000000000000000000000000000000000600052604160045260246000fd5b600061106682610aaa565b91507fffffffffffffffffffffffffffffffffffffffffffffffffffffffffffffffff82141561109957611098610d4e565b5b600182019050919050565b7f4f776e61626c653a2063616c6c6572206973206e6f7420746865206f776e6572600082015250565b60006110da602083610f89565b91506110e5826110a4565b602082019050919050565b60006020820190508181036000830152611109816110cd565b905091905056fea26469706673582212204fa1ccc5e795903426a20a1bb9003746fc32b1b6da3a3fc0be43ad11b2de14c164736f6c634300080c0033",
  "devdoc": {
    "kind": "dev",
    "methods": {
      "owner()": {
        "details": "Returns the address of the current owner."
      },
      "renounceOwnership()": {
        "details": "Leaves the contract without owner. It will not be possible to call `onlyOwner` functions anymore. Can only be called by the current owner. NOTE: Renouncing ownership will leave the contract without an owner, thereby removing any functionality that is only available to the owner."
      },
      "transferOwnership(address)": {
        "details": "Transfers ownership of the contract to a new account (`newOwner`). Can only be called by the current owner."
      }
    },
    "version": 1
  },
  "userdoc": {
    "kind": "user",
    "methods": {},
    "version": 1
  },
  "storageLayout": {
    "storage": [
      {
        "astId": 7,
        "contract": "contracts/BCLobby.sol:Lobby",
        "label": "_owner",
        "offset": 0,
        "slot": "0",
        "type": "t_address"
      },
      {
        "astId": 187,
        "contract": "contracts/BCLobby.sol:Lobby",
        "label": "games",
        "offset": 0,
        "slot": "1",
        "type": "t_contract(GamesInterface)159"
      },
      {
        "astId": 190,
        "contract": "contracts/BCLobby.sol:Lobby",
        "label": "chars",
        "offset": 0,
        "slot": "2",
        "type": "t_contract(CharacterInterface)182"
      },
      {
        "astId": 215,
        "contract": "contracts/BCLobby.sol:Lobby",
        "label": "MIN_PLAYERS",
        "offset": 0,
        "slot": "3",
        "type": "t_uint256"
      },
      {
        "astId": 222,
        "contract": "contracts/BCLobby.sol:Lobby",
        "label": "lobbies",
        "offset": 0,
        "slot": "4",
        "type": "t_array(t_struct(Lobby)557_storage)dyn_storage"
      },
      {
        "astId": 227,
        "contract": "contracts/BCLobby.sol:Lobby",
        "label": "addressToLobbies",
        "offset": 0,
        "slot": "5",
        "type": "t_mapping(t_address,t_array(t_uint256)dyn_storage)"
      }
    ],
    "types": {
      "t_address": {
        "encoding": "inplace",
        "label": "address",
        "numberOfBytes": "20"
      },
      "t_array(t_struct(Lobby)557_storage)dyn_storage": {
        "base": "t_struct(Lobby)557_storage",
        "encoding": "dynamic_array",
        "label": "struct BCTypes.Lobby[]",
        "numberOfBytes": "32"
      },
      "t_array(t_uint256)dyn_storage": {
        "base": "t_uint256",
        "encoding": "dynamic_array",
        "label": "uint256[]",
        "numberOfBytes": "32"
      },
      "t_bool": {
        "encoding": "inplace",
        "label": "bool",
        "numberOfBytes": "1"
      },
      "t_contract(CharacterInterface)182": {
        "encoding": "inplace",
        "label": "contract CharacterInterface",
        "numberOfBytes": "20"
      },
      "t_contract(GamesInterface)159": {
        "encoding": "inplace",
        "label": "contract GamesInterface",
        "numberOfBytes": "20"
      },
      "t_mapping(t_address,t_array(t_uint256)dyn_storage)": {
        "encoding": "mapping",
        "key": "t_address",
        "label": "mapping(address => uint256[])",
        "numberOfBytes": "32",
        "value": "t_array(t_uint256)dyn_storage"
      },
      "t_struct(Lobby)557_storage": {
        "encoding": "inplace",
        "label": "struct BCTypes.Lobby",
        "members": [
          {
            "astId": 551,
            "contract": "contracts/BCLobby.sol:Lobby",
            "label": "gameStarted",
            "offset": 0,
            "slot": "0",
            "type": "t_bool"
          },
          {
            "astId": 553,
            "contract": "contracts/BCLobby.sol:Lobby",
            "label": "numberOfPlayers",
            "offset": 1,
            "slot": "0",
            "type": "t_uint8"
          },
          {
            "astId": 556,
            "contract": "contracts/BCLobby.sol:Lobby",
            "label": "playerIndexes",
            "offset": 0,
            "slot": "1",
            "type": "t_array(t_uint256)dyn_storage"
          }
        ],
        "numberOfBytes": "64"
      },
      "t_uint256": {
        "encoding": "inplace",
        "label": "uint256",
        "numberOfBytes": "32"
      },
      "t_uint8": {
        "encoding": "inplace",
        "label": "uint8",
        "numberOfBytes": "1"
      }
    }
  }
}