{
  "address": "0xB03721e5E585A377F1D97D8e9Ffc27FC4089A7b6",
  "abi": [
    {
      "inputs": [],
      "stateMutability": "nonpayable",
      "type": "constructor"
    },
    {
      "anonymous": false,
      "inputs": [
        {
          "indexed": true,
          "internalType": "address",
          "name": "previousOwner",
          "type": "address"
        },
        {
          "indexed": true,
          "internalType": "address",
          "name": "newOwner",
          "type": "address"
        }
      ],
      "name": "OwnershipTransferred",
      "type": "event"
    },
    {
      "inputs": [],
      "name": "debugStartGame",
      "outputs": [],
      "stateMutability": "nonpayable",
      "type": "function"
    },
    {
      "inputs": [],
      "name": "enlistCost",
      "outputs": [
        {
          "internalType": "uint256",
          "name": "",
          "type": "uint256"
        }
      ],
      "stateMutability": "view",
      "type": "function"
    },
    {
      "inputs": [
        {
          "internalType": "address",
          "name": "_charContractAddress",
          "type": "address"
        },
        {
          "internalType": "uint256",
          "name": "_charId",
          "type": "uint256"
        }
      ],
      "name": "enlistForMission",
      "outputs": [],
      "stateMutability": "payable",
      "type": "function"
    },
    {
      "inputs": [
        {
          "internalType": "uint256",
          "name": "_lobbyId",
          "type": "uint256"
        }
      ],
      "name": "extGetLobbyPlayerIndexes",
      "outputs": [
        {
          "internalType": "uint256[]",
          "name": "",
          "type": "uint256[]"
        }
      ],
      "stateMutability": "view",
      "type": "function"
    },
    {
      "inputs": [
        {
          "internalType": "uint256",
          "name": "",
          "type": "uint256"
        }
      ],
      "name": "lobbies",
      "outputs": [
        {
          "internalType": "bool",
          "name": "gameStarted",
          "type": "bool"
        },
        {
          "internalType": "uint8",
          "name": "numberOfPlayers",
          "type": "uint8"
        }
      ],
      "stateMutability": "view",
      "type": "function"
    },
    {
      "inputs": [],
      "name": "owner",
      "outputs": [
        {
          "internalType": "address",
          "name": "",
          "type": "address"
        }
      ],
      "stateMutability": "view",
      "type": "function"
    },
    {
      "inputs": [],
      "name": "renounceOwnership",
      "outputs": [],
      "stateMutability": "nonpayable",
      "type": "function"
    },
    {
      "inputs": [
        {
          "internalType": "address",
          "name": "_gameContractAddress",
          "type": "address"
        }
      ],
      "name": "setGameContract",
      "outputs": [],
      "stateMutability": "nonpayable",
      "type": "function"
    },
    {
      "inputs": [
        {
          "internalType": "address",
          "name": "newOwner",
          "type": "address"
        }
      ],
      "name": "transferOwnership",
      "outputs": [],
      "stateMutability": "nonpayable",
      "type": "function"
    }
  ],
  "transactionHash": "0xed1a98b7f9e3becd92d05dc8c48277a248b67e159f984e2273b0a07befc46bdc",
  "args": [],
  "numDeployments": 2,
  "solcInputHash": "b9f60b6777da9311812fc48d4fd47d64",
  "bytecode": "0x6080604052655af3107a40006003553480156200001b57600080fd5b506200003c620000306200010a60201b60201c565b6200011260201b60201c565b60006002600181600181540180825580915050039060005260206000209060020201905060008160000160006101000a81548160ff02191690831515021790555060008160000160016101000a81548160ff021916908360ff160217905550600467ffffffffffffffff811115620000b957620000b862000247565b5b604051908082528060200260200182016040528015620000e85781602001602082028036833780820191505090505b5081600101908051906020019062000102929190620001d6565b505062000276565b600033905090565b60008060009054906101000a900473ffffffffffffffffffffffffffffffffffffffff169050816000806101000a81548173ffffffffffffffffffffffffffffffffffffffff021916908373ffffffffffffffffffffffffffffffffffffffff1602179055508173ffffffffffffffffffffffffffffffffffffffff168173ffffffffffffffffffffffffffffffffffffffff167f8be0079c531659141344cd1fd0a4f28419497f9722a3daafe3b4186f6b6457e060405160405180910390a35050565b82805482825590600052602060002090810192821562000215579160200282015b8281111562000214578251825591602001919060010190620001f7565b5b50905062000224919062000228565b5090565b5b808211156200024357600081600090555060010162000229565b5090565b7f4e487b7100000000000000000000000000000000000000000000000000000000600052604160045260246000fd5b61110b80620002866000396000f3fe6080604052600436106100865760003560e01c80638da5cb5b116100595780638da5cb5b14610125578063d3cbb7ce14610150578063f2fde38b14610167578063fdcadf8114610190578063fffb6e78146101bb57610086565b806324ec4ecb1461008b578063405ebd4d146100a75780636e8fb4c6146100d0578063715018a61461010e575b600080fd5b6100a560048036038101906100a09190610a79565b6101f8565b005b3480156100b357600080fd5b506100ce60048036038101906100c99190610ab9565b610594565b005b3480156100dc57600080fd5b506100f760048036038101906100f29190610ae6565b6105e0565b604051610105929190610b4a565b60405180910390f35b34801561011a57600080fd5b5061012361062e565b005b34801561013157600080fd5b5061013a610642565b6040516101479190610b82565b60405180910390f35b34801561015c57600080fd5b5061016561066b565b005b34801561017357600080fd5b5061018e60048036038101906101899190610ab9565b6106a1565b005b34801561019c57600080fd5b506101a5610725565b6040516101b29190610bac565b60405180910390f35b3480156101c757600080fd5b506101e260048036038101906101dd9190610ae6565b61072b565b6040516101ef9190610c85565b60405180910390f35b610200610642565b73ffffffffffffffffffffffffffffffffffffffff163373ffffffffffffffffffffffffffffffffffffffff16148061023a575060035434145b610279576040517f08c379a000000000000000000000000000000000000000000000000000000000815260040161027090610d04565b60405180910390fd5b60006004600260016002805490506102919190610d53565b815481106102a2576102a1610d87565b5b906000526020600020906002020160000160019054906101000a900460ff1660ff16141561038e576002600181600181540180825580915050039060005260206000209060020201905060008160000160006101000a81548160ff02191690831515021790555060008160000160016101000a81548160ff021916908360ff160217905550600467ffffffffffffffff81111561034257610341610db6565b5b6040519080825280602002602001820160405280156103705781602001602082028036833780820191505090505b50816001019080519060200190610388929190610976565b506103c4565b600260016002805490506103a29190610d53565b815481106103b3576103b2610d87565b5b906000526020600020906002020190505b6000600160009054906101000a900473ffffffffffffffffffffffffffffffffffffffff1673ffffffffffffffffffffffffffffffffffffffff166308178b3c8585336040518463ffffffff1660e01b815260040161042593929190610de5565b6020604051808303816000875af1158015610444573d6000803e3d6000fd5b505050506040513d601f19601f820116820180604052508101906104689190610e31565b905080826001018360000160019054906101000a900460ff1660ff168154811061049557610494610d87565b5b906000526020600020018190555081600001600181819054906101000a900460ff16809291906104c490610e5e565b91906101000a81548160ff021916908360ff1602179055505060048260000160019054906101000a900460ff1660ff16141561058e57600160009054906101000a900473ffffffffffffffffffffffffffffffffffffffff1673ffffffffffffffffffffffffffffffffffffffff166368030c728360010160046040518363ffffffff1660e01b815260040161055b929190610f5e565b600060405180830381600087803b15801561057557600080fd5b505af1158015610589573d6000803e3d6000fd5b505050505b50505050565b61059c61082c565b80600160006101000a81548173ffffffffffffffffffffffffffffffffffffffff021916908373ffffffffffffffffffffffffffffffffffffffff16021790555050565b600281815481106105f057600080fd5b90600052602060002090600202016000915090508060000160009054906101000a900460ff16908060000160019054906101000a900460ff16905082565b61063661082c565b61064060006108aa565b565b60008060009054906101000a900473ffffffffffffffffffffffffffffffffffffffff16905090565b61067361082c565b61067e3060036101f8565b6106893060026101f8565b6106943060016101f8565b61069f3060006101f8565b565b6106a961082c565b600073ffffffffffffffffffffffffffffffffffffffff168173ffffffffffffffffffffffffffffffffffffffff161415610719576040517f08c379a000000000000000000000000000000000000000000000000000000000815260040161071090611000565b60405180910390fd5b610722816108aa565b50565b60035481565b606060006002838154811061074357610742610d87565b5b90600052602060002090600202016001018054905067ffffffffffffffff81111561077157610770610db6565b5b60405190808252806020026020018201604052801561079f5781602001602082028036833780820191505090505b50905060005b815181101561082257600284815481106107c2576107c1610d87565b5b906000526020600020906002020160010181815481106107e5576107e4610d87565b5b906000526020600020015482828151811061080357610802610d87565b5b602002602001018181525050808061081a90611020565b9150506107a5565b5080915050919050565b61083461096e565b73ffffffffffffffffffffffffffffffffffffffff16610852610642565b73ffffffffffffffffffffffffffffffffffffffff16146108a8576040517f08c379a000000000000000000000000000000000000000000000000000000000815260040161089f906110b5565b60405180910390fd5b565b60008060009054906101000a900473ffffffffffffffffffffffffffffffffffffffff169050816000806101000a81548173ffffffffffffffffffffffffffffffffffffffff021916908373ffffffffffffffffffffffffffffffffffffffff1602179055508173ffffffffffffffffffffffffffffffffffffffff168173ffffffffffffffffffffffffffffffffffffffff167f8be0079c531659141344cd1fd0a4f28419497f9722a3daafe3b4186f6b6457e060405160405180910390a35050565b600033905090565b8280548282559060005260206000209081019282156109b2579160200282015b828111156109b1578251825591602001919060010190610996565b5b5090506109bf91906109c3565b5090565b5b808211156109dc5760008160009055506001016109c4565b5090565b600080fd5b600073ffffffffffffffffffffffffffffffffffffffff82169050919050565b6000610a10826109e5565b9050919050565b610a2081610a05565b8114610a2b57600080fd5b50565b600081359050610a3d81610a17565b92915050565b6000819050919050565b610a5681610a43565b8114610a6157600080fd5b50565b600081359050610a7381610a4d565b92915050565b60008060408385031215610a9057610a8f6109e0565b5b6000610a9e85828601610a2e565b9250506020610aaf85828601610a64565b9150509250929050565b600060208284031215610acf57610ace6109e0565b5b6000610add84828501610a2e565b91505092915050565b600060208284031215610afc57610afb6109e0565b5b6000610b0a84828501610a64565b91505092915050565b60008115159050919050565b610b2881610b13565b82525050565b600060ff82169050919050565b610b4481610b2e565b82525050565b6000604082019050610b5f6000830185610b1f565b610b6c6020830184610b3b565b9392505050565b610b7c81610a05565b82525050565b6000602082019050610b976000830184610b73565b92915050565b610ba681610a43565b82525050565b6000602082019050610bc16000830184610b9d565b92915050565b600081519050919050565b600082825260208201905092915050565b6000819050602082019050919050565b610bfc81610a43565b82525050565b6000610c0e8383610bf3565b60208301905092915050565b6000602082019050919050565b6000610c3282610bc7565b610c3c8185610bd2565b9350610c4783610be3565b8060005b83811015610c78578151610c5f8882610c02565b9750610c6a83610c1a565b925050600181019050610c4b565b5085935050505092915050565b60006020820190508181036000830152610c9f8184610c27565b905092915050565b600082825260208201905092915050565b7f696e636f7272656374207061796d656e74000000000000000000000000000000600082015250565b6000610cee601183610ca7565b9150610cf982610cb8565b602082019050919050565b60006020820190508181036000830152610d1d81610ce1565b9050919050565b7f4e487b7100000000000000000000000000000000000000000000000000000000600052601160045260246000fd5b6000610d5e82610a43565b9150610d6983610a43565b925082821015610d7c57610d7b610d24565b5b828203905092915050565b7f4e487b7100000000000000000000000000000000000000000000000000000000600052603260045260246000fd5b7f4e487b7100000000000000000000000000000000000000000000000000000000600052604160045260246000fd5b6000606082019050610dfa6000830186610b73565b610e076020830185610b9d565b610e146040830184610b73565b949350505050565b600081519050610e2b81610a4d565b92915050565b600060208284031215610e4757610e466109e0565b5b6000610e5584828501610e1c565b91505092915050565b6000610e6982610b2e565b915060ff821415610e7d57610e7c610d24565b5b600182019050919050565b600081549050919050565b60008190508160005260206000209050919050565b60008160001c9050919050565b6000819050919050565b6000610ed2610ecd83610ea8565b610eb5565b9050919050565b6000610ee58254610ebf565b9050919050565b6000600182019050919050565b6000610f0482610e88565b610f0e8185610bd2565b9350610f1983610e93565b8060005b83811015610f5157610f2e82610ed9565b610f388882610c02565b9750610f4383610eec565b925050600181019050610f1d565b5085935050505092915050565b60006040820190508181036000830152610f788185610ef9565b9050610f876020830184610b9d565b9392505050565b7f4f776e61626c653a206e6577206f776e657220697320746865207a65726f206160008201527f6464726573730000000000000000000000000000000000000000000000000000602082015250565b6000610fea602683610ca7565b9150610ff582610f8e565b604082019050919050565b6000602082019050818103600083015261101981610fdd565b9050919050565b600061102b82610a43565b91507fffffffffffffffffffffffffffffffffffffffffffffffffffffffffffffffff82141561105e5761105d610d24565b5b600182019050919050565b7f4f776e61626c653a2063616c6c6572206973206e6f7420746865206f776e6572600082015250565b600061109f602083610ca7565b91506110aa82611069565b602082019050919050565b600060208201905081810360008301526110ce81611092565b905091905056fea264697066735822122070552fec3f615d62c6cca8b7c443d8c094001f3e0b628235a7b5ff4970c1920264736f6c634300080c0033",
  "devdoc": {
    "kind": "dev",
    "methods": {
      "owner()": {
        "details": "Returns the address of the current owner."
      },
      "renounceOwnership()": {
        "details": "Leaves the contract without owner. It will not be possible to call `onlyOwner` functions anymore. Can only be called by the current owner. NOTE: Renouncing ownership will leave the contract without an owner, thereby removing any functionality that is only available to the owner."
      },
      "transferOwnership(address)": {
        "details": "Transfers ownership of the contract to a new account (`newOwner`). Can only be called by the current owner."
      }
    },
    "version": 1
  },
  "userdoc": {
    "kind": "user",
    "methods": {},
    "version": 1
  },
  "storageLayout": {
    "storage": [
      {
        "astId": 7,
        "contract": "contracts/BCLobby.sol:Lobby",
        "label": "_owner",
        "offset": 0,
        "slot": "0",
        "type": "t_address"
      },
      {
        "astId": 3776,
        "contract": "contracts/BCLobby.sol:Lobby",
        "label": "games",
        "offset": 0,
        "slot": "1",
        "type": "t_contract(GamesInterface)3771"
      },
      {
        "astId": 3797,
        "contract": "contracts/BCLobby.sol:Lobby",
        "label": "lobbies",
        "offset": 0,
        "slot": "2",
        "type": "t_array(t_struct(Lobby)5717_storage)dyn_storage"
      },
      {
        "astId": 3804,
        "contract": "contracts/BCLobby.sol:Lobby",
        "label": "enlistCost",
        "offset": 0,
        "slot": "3",
        "type": "t_uint256"
      }
    ],
    "types": {
      "t_address": {
        "encoding": "inplace",
        "label": "address",
        "numberOfBytes": "20"
      },
      "t_array(t_struct(Lobby)5717_storage)dyn_storage": {
        "base": "t_struct(Lobby)5717_storage",
        "encoding": "dynamic_array",
        "label": "struct BCTypes.Lobby[]",
        "numberOfBytes": "32"
      },
      "t_array(t_uint256)dyn_storage": {
        "base": "t_uint256",
        "encoding": "dynamic_array",
        "label": "uint256[]",
        "numberOfBytes": "32"
      },
      "t_bool": {
        "encoding": "inplace",
        "label": "bool",
        "numberOfBytes": "1"
      },
      "t_contract(GamesInterface)3771": {
        "encoding": "inplace",
        "label": "contract GamesInterface",
        "numberOfBytes": "20"
      },
      "t_struct(Lobby)5717_storage": {
        "encoding": "inplace",
        "label": "struct BCTypes.Lobby",
        "members": [
          {
            "astId": 5711,
            "contract": "contracts/BCLobby.sol:Lobby",
            "label": "gameStarted",
            "offset": 0,
            "slot": "0",
            "type": "t_bool"
          },
          {
            "astId": 5713,
            "contract": "contracts/BCLobby.sol:Lobby",
            "label": "numberOfPlayers",
            "offset": 1,
            "slot": "0",
            "type": "t_uint8"
          },
          {
            "astId": 5716,
            "contract": "contracts/BCLobby.sol:Lobby",
            "label": "playerIndexes",
            "offset": 0,
            "slot": "1",
            "type": "t_array(t_uint256)dyn_storage"
          }
        ],
        "numberOfBytes": "64"
      },
      "t_uint256": {
        "encoding": "inplace",
        "label": "uint256",
        "numberOfBytes": "32"
      },
      "t_uint8": {
        "encoding": "inplace",
        "label": "uint8",
        "numberOfBytes": "1"
      }
    }
  }
}