{
  "address": "0x4eCB5A84746658659279A64088D6C2C5ece16DFb",
  "abi": [
    {
      "inputs": [],
      "stateMutability": "nonpayable",
      "type": "constructor"
    },
    {
      "anonymous": false,
      "inputs": [
        {
          "indexed": true,
          "internalType": "address",
          "name": "previousOwner",
          "type": "address"
        },
        {
          "indexed": true,
          "internalType": "address",
          "name": "newOwner",
          "type": "address"
        }
      ],
      "name": "OwnershipTransferred",
      "type": "event"
    },
    {
      "inputs": [
        {
          "internalType": "address",
          "name": "",
          "type": "address"
        },
        {
          "internalType": "uint256",
          "name": "",
          "type": "uint256"
        }
      ],
      "name": "addressToLobbies",
      "outputs": [
        {
          "internalType": "uint256",
          "name": "",
          "type": "uint256"
        }
      ],
      "stateMutability": "view",
      "type": "function"
    },
    {
      "inputs": [
        {
          "internalType": "uint256",
          "name": "_charId",
          "type": "uint256"
        },
        {
          "internalType": "address",
          "name": "charOwner",
          "type": "address"
        }
      ],
      "name": "enlistForMission",
      "outputs": [],
      "stateMutability": "nonpayable",
      "type": "function"
    },
    {
      "inputs": [
        {
          "internalType": "uint256",
          "name": "_lobbyId",
          "type": "uint256"
        }
      ],
      "name": "extGetLobbyPlayerIndexes",
      "outputs": [
        {
          "internalType": "uint256[]",
          "name": "",
          "type": "uint256[]"
        }
      ],
      "stateMutability": "view",
      "type": "function"
    },
    {
      "inputs": [
        {
          "internalType": "uint256",
          "name": "",
          "type": "uint256"
        }
      ],
      "name": "lobbies",
      "outputs": [
        {
          "internalType": "bool",
          "name": "gameStarted",
          "type": "bool"
        },
        {
          "internalType": "uint8",
          "name": "numberOfPlayers",
          "type": "uint8"
        }
      ],
      "stateMutability": "view",
      "type": "function"
    },
    {
      "inputs": [],
      "name": "owner",
      "outputs": [
        {
          "internalType": "address",
          "name": "",
          "type": "address"
        }
      ],
      "stateMutability": "view",
      "type": "function"
    },
    {
      "inputs": [],
      "name": "renounceOwnership",
      "outputs": [],
      "stateMutability": "nonpayable",
      "type": "function"
    },
    {
      "inputs": [
        {
          "internalType": "address",
          "name": "_gameContractAddress",
          "type": "address"
        },
        {
          "internalType": "address",
          "name": "_charContractAddress",
          "type": "address"
        }
      ],
      "name": "setGameContract",
      "outputs": [],
      "stateMutability": "nonpayable",
      "type": "function"
    },
    {
      "inputs": [
        {
          "internalType": "address",
          "name": "newOwner",
          "type": "address"
        }
      ],
      "name": "transferOwnership",
      "outputs": [],
      "stateMutability": "nonpayable",
      "type": "function"
    }
  ],
  "transactionHash": "0x1f0bce7ee55f3076403fbc8f3c0029c8ee94d4fa20c4b0af62294677cdbdd4fe",
  "args": [],
  "numDeployments": 2,
  "solcInputHash": "8d9cd68909f0e3220381f38f6580afc3",
  "bytecode": "0x60806040523480156200001157600080fd5b5062000032620000266200004860201b60201c565b6200005060201b60201c565b620000426200011460201b60201c565b6200027e565b600033905090565b60008060009054906101000a900473ffffffffffffffffffffffffffffffffffffffff169050816000806101000a81548173ffffffffffffffffffffffffffffffffffffffff021916908373ffffffffffffffffffffffffffffffffffffffff1602179055508173ffffffffffffffffffffffffffffffffffffffff168173ffffffffffffffffffffffffffffffffffffffff167f8be0079c531659141344cd1fd0a4f28419497f9722a3daafe3b4186f6b6457e060405160405180910390a35050565b60006003600181600181540180825580915050039060005260206000209060020201905060008160000160006101000a81548160ff02191690831515021790555060008160000160016101000a81548160ff021916908360ff160217905550600467ffffffffffffffff8111156200019157620001906200024f565b5b604051908082528060200260200182016040528015620001c05781602001602082028036833780820191505090505b50816001019080519060200190620001da929190620001de565b5050565b8280548282559060005260206000209081019282156200021d579160200282015b828111156200021c578251825591602001919060010190620001ff565b5b5090506200022c919062000230565b5090565b5b808211156200024b57600081600090555060010162000231565b5090565b7f4e487b7100000000000000000000000000000000000000000000000000000000600052604160045260246000fd5b611118806200028e6000396000f3fe608060405234801561001057600080fd5b50600436106100885760003560e01c8063715018a61161005b578063715018a6146101265780638da5cb5b14610130578063f2fde38b1461014e578063fffb6e781461016a57610088565b80630c76e3bc1461008d578063237c201b146100a95780636a818ddc146100c55780636e8fb4c6146100f5575b600080fd5b6100a760048036038101906100a29190610a3c565b61019a565b005b6100c360048036038101906100be9190610ab2565b610228565b005b6100df60048036038101906100da9190610af2565b610520565b6040516100ec9190610b41565b60405180910390f35b61010f600480360381019061010a9190610b5c565b610551565b60405161011d929190610bc0565b60405180910390f35b61012e61059f565b005b6101386105b3565b6040516101459190610bf8565b60405180910390f35b61016860048036038101906101639190610c13565b6105dc565b005b610184600480360381019061017f9190610b5c565b610660565b6040516101919190610cfe565b60405180910390f35b6101a2610761565b81600160006101000a81548173ffffffffffffffffffffffffffffffffffffffff021916908373ffffffffffffffffffffffffffffffffffffffff16021790555080600260006101000a81548173ffffffffffffffffffffffffffffffffffffffff021916908373ffffffffffffffffffffffffffffffffffffffff1602179055505050565b60006004600360016003805490506102409190610d4f565b8154811061025157610250610d83565b5b906000526020600020906002020160000160019054906101000a900460ff1660ff161415610282576102816107df565b5b600360016003805490506102969190610d4f565b815481106102a7576102a6610d83565b5b906000526020600020906002020190506000600160009054906101000a900473ffffffffffffffffffffffffffffffffffffffff1673ffffffffffffffffffffffffffffffffffffffff166308178b3c600260009054906101000a900473ffffffffffffffffffffffffffffffffffffffff1686866040518463ffffffff1660e01b815260040161033a93929190610db2565b6020604051808303816000875af1158015610359573d6000803e3d6000fd5b505050506040513d601f19601f8201168201806040525081019061037d9190610dfe565b905080826001018360000160019054906101000a900460ff1660ff16815481106103aa576103a9610d83565b5b906000526020600020018190555081600001600181819054906101000a900460ff16809291906103d990610e2b565b91906101000a81548160ff021916908360ff1602179055505060048260000160019054906101000a900460ff1660ff1614156104a357600160009054906101000a900473ffffffffffffffffffffffffffffffffffffffff1673ffffffffffffffffffffffffffffffffffffffff166368030c728360010160046040518363ffffffff1660e01b8152600401610470929190610f2b565b600060405180830381600087803b15801561048a57600080fd5b505af115801561049e573d6000803e3d6000fd5b505050505b600460003373ffffffffffffffffffffffffffffffffffffffff1673ffffffffffffffffffffffffffffffffffffffff16815260200190815260200160002060016003805490506104f49190610d4f565b908060018154018082558091505060019003906000526020600020016000909190919091505550505050565b6004602052816000526040600020818154811061053c57600080fd5b90600052602060002001600091509150505481565b6003818154811061056157600080fd5b90600052602060002090600202016000915090508060000160009054906101000a900460ff16908060000160019054906101000a900460ff16905082565b6105a7610761565b6105b160006108a3565b565b60008060009054906101000a900473ffffffffffffffffffffffffffffffffffffffff16905090565b6105e4610761565b600073ffffffffffffffffffffffffffffffffffffffff168173ffffffffffffffffffffffffffffffffffffffff161415610654576040517f08c379a000000000000000000000000000000000000000000000000000000000815260040161064b90610fde565b60405180910390fd5b61065d816108a3565b50565b606060006003838154811061067857610677610d83565b5b90600052602060002090600202016001018054905067ffffffffffffffff8111156106a6576106a5610ffe565b5b6040519080825280602002602001820160405280156106d45781602001602082028036833780820191505090505b50905060005b815181101561075757600384815481106106f7576106f6610d83565b5b9060005260206000209060020201600101818154811061071a57610719610d83565b5b906000526020600020015482828151811061073857610737610d83565b5b602002602001018181525050808061074f9061102d565b9150506106da565b5080915050919050565b610769610967565b73ffffffffffffffffffffffffffffffffffffffff166107876105b3565b73ffffffffffffffffffffffffffffffffffffffff16146107dd576040517f08c379a00000000000000000000000000000000000000000000000000000000081526004016107d4906110c2565b60405180910390fd5b565b60006003600181600181540180825580915050039060005260206000209060020201905060008160000160006101000a81548160ff02191690831515021790555060008160000160016101000a81548160ff021916908360ff160217905550600467ffffffffffffffff81111561085957610858610ffe565b5b6040519080825280602002602001820160405280156108875781602001602082028036833780820191505090505b5081600101908051906020019061089f92919061096f565b5050565b60008060009054906101000a900473ffffffffffffffffffffffffffffffffffffffff169050816000806101000a81548173ffffffffffffffffffffffffffffffffffffffff021916908373ffffffffffffffffffffffffffffffffffffffff1602179055508173ffffffffffffffffffffffffffffffffffffffff168173ffffffffffffffffffffffffffffffffffffffff167f8be0079c531659141344cd1fd0a4f28419497f9722a3daafe3b4186f6b6457e060405160405180910390a35050565b600033905090565b8280548282559060005260206000209081019282156109ab579160200282015b828111156109aa57825182559160200191906001019061098f565b5b5090506109b891906109bc565b5090565b5b808211156109d55760008160009055506001016109bd565b5090565b600080fd5b600073ffffffffffffffffffffffffffffffffffffffff82169050919050565b6000610a09826109de565b9050919050565b610a19816109fe565b8114610a2457600080fd5b50565b600081359050610a3681610a10565b92915050565b60008060408385031215610a5357610a526109d9565b5b6000610a6185828601610a27565b9250506020610a7285828601610a27565b9150509250929050565b6000819050919050565b610a8f81610a7c565b8114610a9a57600080fd5b50565b600081359050610aac81610a86565b92915050565b60008060408385031215610ac957610ac86109d9565b5b6000610ad785828601610a9d565b9250506020610ae885828601610a27565b9150509250929050565b60008060408385031215610b0957610b086109d9565b5b6000610b1785828601610a27565b9250506020610b2885828601610a9d565b9150509250929050565b610b3b81610a7c565b82525050565b6000602082019050610b566000830184610b32565b92915050565b600060208284031215610b7257610b716109d9565b5b6000610b8084828501610a9d565b91505092915050565b60008115159050919050565b610b9e81610b89565b82525050565b600060ff82169050919050565b610bba81610ba4565b82525050565b6000604082019050610bd56000830185610b95565b610be26020830184610bb1565b9392505050565b610bf2816109fe565b82525050565b6000602082019050610c0d6000830184610be9565b92915050565b600060208284031215610c2957610c286109d9565b5b6000610c3784828501610a27565b91505092915050565b600081519050919050565b600082825260208201905092915050565b6000819050602082019050919050565b610c7581610a7c565b82525050565b6000610c878383610c6c565b60208301905092915050565b6000602082019050919050565b6000610cab82610c40565b610cb58185610c4b565b9350610cc083610c5c565b8060005b83811015610cf1578151610cd88882610c7b565b9750610ce383610c93565b925050600181019050610cc4565b5085935050505092915050565b60006020820190508181036000830152610d188184610ca0565b905092915050565b7f4e487b7100000000000000000000000000000000000000000000000000000000600052601160045260246000fd5b6000610d5a82610a7c565b9150610d6583610a7c565b925082821015610d7857610d77610d20565b5b828203905092915050565b7f4e487b7100000000000000000000000000000000000000000000000000000000600052603260045260246000fd5b6000606082019050610dc76000830186610be9565b610dd46020830185610b32565b610de16040830184610be9565b949350505050565b600081519050610df881610a86565b92915050565b600060208284031215610e1457610e136109d9565b5b6000610e2284828501610de9565b91505092915050565b6000610e3682610ba4565b915060ff821415610e4a57610e49610d20565b5b600182019050919050565b600081549050919050565b60008190508160005260206000209050919050565b60008160001c9050919050565b6000819050919050565b6000610e9f610e9a83610e75565b610e82565b9050919050565b6000610eb28254610e8c565b9050919050565b6000600182019050919050565b6000610ed182610e55565b610edb8185610c4b565b9350610ee683610e60565b8060005b83811015610f1e57610efb82610ea6565b610f058882610c7b565b9750610f1083610eb9565b925050600181019050610eea565b5085935050505092915050565b60006040820190508181036000830152610f458185610ec6565b9050610f546020830184610b32565b9392505050565b600082825260208201905092915050565b7f4f776e61626c653a206e6577206f776e657220697320746865207a65726f206160008201527f6464726573730000000000000000000000000000000000000000000000000000602082015250565b6000610fc8602683610f5b565b9150610fd382610f6c565b604082019050919050565b60006020820190508181036000830152610ff781610fbb565b9050919050565b7f4e487b7100000000000000000000000000000000000000000000000000000000600052604160045260246000fd5b600061103882610a7c565b91507fffffffffffffffffffffffffffffffffffffffffffffffffffffffffffffffff82141561106b5761106a610d20565b5b600182019050919050565b7f4f776e61626c653a2063616c6c6572206973206e6f7420746865206f776e6572600082015250565b60006110ac602083610f5b565b91506110b782611076565b602082019050919050565b600060208201905081810360008301526110db8161109f565b905091905056fea2646970667358221220bfae5eceb2442bb04ea8540011dc16dfed8aeec963167f8e0401c19bd997c21964736f6c634300080c0033",
  "devdoc": {
    "kind": "dev",
    "methods": {
      "owner()": {
        "details": "Returns the address of the current owner."
      },
      "renounceOwnership()": {
        "details": "Leaves the contract without owner. It will not be possible to call `onlyOwner` functions anymore. Can only be called by the current owner. NOTE: Renouncing ownership will leave the contract without an owner, thereby removing any functionality that is only available to the owner."
      },
      "transferOwnership(address)": {
        "details": "Transfers ownership of the contract to a new account (`newOwner`). Can only be called by the current owner."
      }
    },
    "version": 1
  },
  "userdoc": {
    "kind": "user",
    "methods": {},
    "version": 1
  },
  "storageLayout": {
    "storage": [
      {
        "astId": 7,
        "contract": "contracts/BCLobby.sol:Lobby",
        "label": "_owner",
        "offset": 0,
        "slot": "0",
        "type": "t_address"
      },
      {
        "astId": 4291,
        "contract": "contracts/BCLobby.sol:Lobby",
        "label": "games",
        "offset": 0,
        "slot": "1",
        "type": "t_contract(GamesInterface)4263"
      },
      {
        "astId": 4294,
        "contract": "contracts/BCLobby.sol:Lobby",
        "label": "chars",
        "offset": 0,
        "slot": "2",
        "type": "t_contract(CharacterInterface)4286"
      },
      {
        "astId": 4323,
        "contract": "contracts/BCLobby.sol:Lobby",
        "label": "lobbies",
        "offset": 0,
        "slot": "3",
        "type": "t_array(t_struct(Lobby)6256_storage)dyn_storage"
      },
      {
        "astId": 4328,
        "contract": "contracts/BCLobby.sol:Lobby",
        "label": "addressToLobbies",
        "offset": 0,
        "slot": "4",
        "type": "t_mapping(t_address,t_array(t_uint256)dyn_storage)"
      }
    ],
    "types": {
      "t_address": {
        "encoding": "inplace",
        "label": "address",
        "numberOfBytes": "20"
      },
      "t_array(t_struct(Lobby)6256_storage)dyn_storage": {
        "base": "t_struct(Lobby)6256_storage",
        "encoding": "dynamic_array",
        "label": "struct BCTypes.Lobby[]",
        "numberOfBytes": "32"
      },
      "t_array(t_uint256)dyn_storage": {
        "base": "t_uint256",
        "encoding": "dynamic_array",
        "label": "uint256[]",
        "numberOfBytes": "32"
      },
      "t_bool": {
        "encoding": "inplace",
        "label": "bool",
        "numberOfBytes": "1"
      },
      "t_contract(CharacterInterface)4286": {
        "encoding": "inplace",
        "label": "contract CharacterInterface",
        "numberOfBytes": "20"
      },
      "t_contract(GamesInterface)4263": {
        "encoding": "inplace",
        "label": "contract GamesInterface",
        "numberOfBytes": "20"
      },
      "t_mapping(t_address,t_array(t_uint256)dyn_storage)": {
        "encoding": "mapping",
        "key": "t_address",
        "label": "mapping(address => uint256[])",
        "numberOfBytes": "32",
        "value": "t_array(t_uint256)dyn_storage"
      },
      "t_struct(Lobby)6256_storage": {
        "encoding": "inplace",
        "label": "struct BCTypes.Lobby",
        "members": [
          {
            "astId": 6250,
            "contract": "contracts/BCLobby.sol:Lobby",
            "label": "gameStarted",
            "offset": 0,
            "slot": "0",
            "type": "t_bool"
          },
          {
            "astId": 6252,
            "contract": "contracts/BCLobby.sol:Lobby",
            "label": "numberOfPlayers",
            "offset": 1,
            "slot": "0",
            "type": "t_uint8"
          },
          {
            "astId": 6255,
            "contract": "contracts/BCLobby.sol:Lobby",
            "label": "playerIndexes",
            "offset": 0,
            "slot": "1",
            "type": "t_array(t_uint256)dyn_storage"
          }
        ],
        "numberOfBytes": "64"
      },
      "t_uint256": {
        "encoding": "inplace",
        "label": "uint256",
        "numberOfBytes": "32"
      },
      "t_uint8": {
        "encoding": "inplace",
        "label": "uint8",
        "numberOfBytes": "1"
      }
    }
  }
}