{
  "address": "0x29a41F31eFf5BEF4f0738BBB4965b117FC5F1321",
  "abi": [
    {
      "inputs": [],
      "stateMutability": "nonpayable",
      "type": "constructor"
    },
    {
      "anonymous": false,
      "inputs": [
        {
          "indexed": true,
          "internalType": "address",
          "name": "previousOwner",
          "type": "address"
        },
        {
          "indexed": true,
          "internalType": "address",
          "name": "newOwner",
          "type": "address"
        }
      ],
      "name": "OwnershipTransferred",
      "type": "event"
    },
    {
      "anonymous": false,
      "inputs": [
        {
          "indexed": false,
          "internalType": "uint256",
          "name": "lobbyNumber",
          "type": "uint256"
        },
        {
          "indexed": false,
          "internalType": "uint256[]",
          "name": "playerIds",
          "type": "uint256[]"
        }
      ],
      "name": "StartedGame",
      "type": "event"
    },
    {
      "inputs": [
        {
          "internalType": "address",
          "name": "",
          "type": "address"
        },
        {
          "internalType": "uint256",
          "name": "",
          "type": "uint256"
        }
      ],
      "name": "addressToLobbies",
      "outputs": [
        {
          "internalType": "uint256",
          "name": "",
          "type": "uint256"
        }
      ],
      "stateMutability": "view",
      "type": "function"
    },
    {
      "inputs": [
        {
          "internalType": "uint256",
          "name": "_charId",
          "type": "uint256"
        },
        {
          "internalType": "address",
          "name": "charOwner",
          "type": "address"
        }
      ],
      "name": "enlistForMission",
      "outputs": [],
      "stateMutability": "nonpayable",
      "type": "function"
    },
    {
      "inputs": [
        {
          "internalType": "uint256",
          "name": "_lobbyId",
          "type": "uint256"
        }
      ],
      "name": "extGetLobbyPlayerIndexes",
      "outputs": [
        {
          "internalType": "uint256[]",
          "name": "",
          "type": "uint256[]"
        }
      ],
      "stateMutability": "view",
      "type": "function"
    },
    {
      "inputs": [
        {
          "internalType": "uint256",
          "name": "",
          "type": "uint256"
        }
      ],
      "name": "lobbies",
      "outputs": [
        {
          "internalType": "bool",
          "name": "gameStarted",
          "type": "bool"
        },
        {
          "internalType": "uint8",
          "name": "numberOfPlayers",
          "type": "uint8"
        }
      ],
      "stateMutability": "view",
      "type": "function"
    },
    {
      "inputs": [],
      "name": "owner",
      "outputs": [
        {
          "internalType": "address",
          "name": "",
          "type": "address"
        }
      ],
      "stateMutability": "view",
      "type": "function"
    },
    {
      "inputs": [],
      "name": "renounceOwnership",
      "outputs": [],
      "stateMutability": "nonpayable",
      "type": "function"
    },
    {
      "inputs": [
        {
          "internalType": "address",
          "name": "_gameContractAddress",
          "type": "address"
        },
        {
          "internalType": "address",
          "name": "_charContractAddress",
          "type": "address"
        }
      ],
      "name": "setGameContract",
      "outputs": [],
      "stateMutability": "nonpayable",
      "type": "function"
    },
    {
      "inputs": [
        {
          "internalType": "address",
          "name": "newOwner",
          "type": "address"
        }
      ],
      "name": "transferOwnership",
      "outputs": [],
      "stateMutability": "nonpayable",
      "type": "function"
    }
  ],
  "transactionHash": "0x78eadbf2ce1558588238789cdfecbf2904f122101ded049ebb6dad4cebb1d6bd",
  "args": [],
  "numDeployments": 1,
  "solcInputHash": "106b24de3a9c6176496e0aea719f22ec",
  "bytecode": "0x60806040523480156200001157600080fd5b5062000032620000266200004860201b60201c565b6200005060201b60201c565b620000426200011460201b60201c565b6200027e565b600033905090565b60008060009054906101000a900473ffffffffffffffffffffffffffffffffffffffff169050816000806101000a81548173ffffffffffffffffffffffffffffffffffffffff021916908373ffffffffffffffffffffffffffffffffffffffff1602179055508173ffffffffffffffffffffffffffffffffffffffff168173ffffffffffffffffffffffffffffffffffffffff167f8be0079c531659141344cd1fd0a4f28419497f9722a3daafe3b4186f6b6457e060405160405180910390a35050565b60006003600181600181540180825580915050039060005260206000209060020201905060008160000160006101000a81548160ff02191690831515021790555060008160000160016101000a81548160ff021916908360ff160217905550600467ffffffffffffffff8111156200019157620001906200024f565b5b604051908082528060200260200182016040528015620001c05781602001602082028036833780820191505090505b50816001019080519060200190620001da929190620001de565b5050565b8280548282559060005260206000209081019282156200021d579160200282015b828111156200021c578251825591602001919060010190620001ff565b5b5090506200022c919062000230565b5090565b5b808211156200024b57600081600090555060010162000231565b5090565b7f4e487b7100000000000000000000000000000000000000000000000000000000600052604160045260246000fd5b611195806200028e6000396000f3fe608060405234801561001057600080fd5b50600436106100885760003560e01c8063715018a61161005b578063715018a6146101265780638da5cb5b14610130578063f2fde38b1461014e578063fffb6e781461016a57610088565b80630c76e3bc1461008d578063237c201b146100a95780636a818ddc146100c55780636e8fb4c6146100f5575b600080fd5b6100a760048036038101906100a29190610a89565b61019a565b005b6100c360048036038101906100be9190610aff565b610228565b005b6100df60048036038101906100da9190610b3f565b61056d565b6040516100ec9190610b8e565b60405180910390f35b61010f600480360381019061010a9190610ba9565b61059e565b60405161011d929190610c0d565b60405180910390f35b61012e6105ec565b005b610138610600565b6040516101459190610c45565b60405180910390f35b61016860048036038101906101639190610c60565b610629565b005b610184600480360381019061017f9190610ba9565b6106ad565b6040516101919190610d4b565b60405180910390f35b6101a26107ae565b81600160006101000a81548173ffffffffffffffffffffffffffffffffffffffff021916908373ffffffffffffffffffffffffffffffffffffffff16021790555080600260006101000a81548173ffffffffffffffffffffffffffffffffffffffff021916908373ffffffffffffffffffffffffffffffffffffffff1602179055505050565b60006004600360016003805490506102409190610d9c565b8154811061025157610250610dd0565b5b906000526020600020906002020160000160019054906101000a900460ff1660ff1614156102825761028161082c565b5b600360016003805490506102969190610d9c565b815481106102a7576102a6610dd0565b5b906000526020600020906002020190506000600160009054906101000a900473ffffffffffffffffffffffffffffffffffffffff1673ffffffffffffffffffffffffffffffffffffffff166308178b3c600260009054906101000a900473ffffffffffffffffffffffffffffffffffffffff1686866040518463ffffffff1660e01b815260040161033a93929190610dff565b6020604051808303816000875af1158015610359573d6000803e3d6000fd5b505050506040513d601f19601f8201168201806040525081019061037d9190610e4b565b905080826001018360000160019054906101000a900460ff1660ff16815481106103aa576103a9610dd0565b5b906000526020600020018190555081600001600181819054906101000a900460ff16809291906103d990610e78565b91906101000a81548160ff021916908360ff1602179055505060048260000160019054906101000a900460ff1660ff1614156104f057600160009054906101000a900473ffffffffffffffffffffffffffffffffffffffff1673ffffffffffffffffffffffffffffffffffffffff166368030c728360010160046040518363ffffffff1660e01b8152600401610470929190610f78565b600060405180830381600087803b15801561048a57600080fd5b505af115801561049e573d6000803e3d6000fd5b505050507f4a6e61d0af36ba677826a8161d5b95f04455b03eb2e0fe4cde81377c466c8c5660016003805490506104d59190610d9c565b836001016040516104e7929190610fa8565b60405180910390a15b600460003373ffffffffffffffffffffffffffffffffffffffff1673ffffffffffffffffffffffffffffffffffffffff16815260200190815260200160002060016003805490506105419190610d9c565b908060018154018082558091505060019003906000526020600020016000909190919091505550505050565b6004602052816000526040600020818154811061058957600080fd5b90600052602060002001600091509150505481565b600381815481106105ae57600080fd5b90600052602060002090600202016000915090508060000160009054906101000a900460ff16908060000160019054906101000a900460ff16905082565b6105f46107ae565b6105fe60006108f0565b565b60008060009054906101000a900473ffffffffffffffffffffffffffffffffffffffff16905090565b6106316107ae565b600073ffffffffffffffffffffffffffffffffffffffff168173ffffffffffffffffffffffffffffffffffffffff1614156106a1576040517f08c379a00000000000000000000000000000000000000000000000000000000081526004016106989061105b565b60405180910390fd5b6106aa816108f0565b50565b60606000600383815481106106c5576106c4610dd0565b5b90600052602060002090600202016001018054905067ffffffffffffffff8111156106f3576106f261107b565b5b6040519080825280602002602001820160405280156107215781602001602082028036833780820191505090505b50905060005b81518110156107a4576003848154811061074457610743610dd0565b5b9060005260206000209060020201600101818154811061076757610766610dd0565b5b906000526020600020015482828151811061078557610784610dd0565b5b602002602001018181525050808061079c906110aa565b915050610727565b5080915050919050565b6107b66109b4565b73ffffffffffffffffffffffffffffffffffffffff166107d4610600565b73ffffffffffffffffffffffffffffffffffffffff161461082a576040517f08c379a00000000000000000000000000000000000000000000000000000000081526004016108219061113f565b60405180910390fd5b565b60006003600181600181540180825580915050039060005260206000209060020201905060008160000160006101000a81548160ff02191690831515021790555060008160000160016101000a81548160ff021916908360ff160217905550600467ffffffffffffffff8111156108a6576108a561107b565b5b6040519080825280602002602001820160405280156108d45781602001602082028036833780820191505090505b508160010190805190602001906108ec9291906109bc565b5050565b60008060009054906101000a900473ffffffffffffffffffffffffffffffffffffffff169050816000806101000a81548173ffffffffffffffffffffffffffffffffffffffff021916908373ffffffffffffffffffffffffffffffffffffffff1602179055508173ffffffffffffffffffffffffffffffffffffffff168173ffffffffffffffffffffffffffffffffffffffff167f8be0079c531659141344cd1fd0a4f28419497f9722a3daafe3b4186f6b6457e060405160405180910390a35050565b600033905090565b8280548282559060005260206000209081019282156109f8579160200282015b828111156109f75782518255916020019190600101906109dc565b5b509050610a059190610a09565b5090565b5b80821115610a22576000816000905550600101610a0a565b5090565b600080fd5b600073ffffffffffffffffffffffffffffffffffffffff82169050919050565b6000610a5682610a2b565b9050919050565b610a6681610a4b565b8114610a7157600080fd5b50565b600081359050610a8381610a5d565b92915050565b60008060408385031215610aa057610a9f610a26565b5b6000610aae85828601610a74565b9250506020610abf85828601610a74565b9150509250929050565b6000819050919050565b610adc81610ac9565b8114610ae757600080fd5b50565b600081359050610af981610ad3565b92915050565b60008060408385031215610b1657610b15610a26565b5b6000610b2485828601610aea565b9250506020610b3585828601610a74565b9150509250929050565b60008060408385031215610b5657610b55610a26565b5b6000610b6485828601610a74565b9250506020610b7585828601610aea565b9150509250929050565b610b8881610ac9565b82525050565b6000602082019050610ba36000830184610b7f565b92915050565b600060208284031215610bbf57610bbe610a26565b5b6000610bcd84828501610aea565b91505092915050565b60008115159050919050565b610beb81610bd6565b82525050565b600060ff82169050919050565b610c0781610bf1565b82525050565b6000604082019050610c226000830185610be2565b610c2f6020830184610bfe565b9392505050565b610c3f81610a4b565b82525050565b6000602082019050610c5a6000830184610c36565b92915050565b600060208284031215610c7657610c75610a26565b5b6000610c8484828501610a74565b91505092915050565b600081519050919050565b600082825260208201905092915050565b6000819050602082019050919050565b610cc281610ac9565b82525050565b6000610cd48383610cb9565b60208301905092915050565b6000602082019050919050565b6000610cf882610c8d565b610d028185610c98565b9350610d0d83610ca9565b8060005b83811015610d3e578151610d258882610cc8565b9750610d3083610ce0565b925050600181019050610d11565b5085935050505092915050565b60006020820190508181036000830152610d658184610ced565b905092915050565b7f4e487b7100000000000000000000000000000000000000000000000000000000600052601160045260246000fd5b6000610da782610ac9565b9150610db283610ac9565b925082821015610dc557610dc4610d6d565b5b828203905092915050565b7f4e487b7100000000000000000000000000000000000000000000000000000000600052603260045260246000fd5b6000606082019050610e146000830186610c36565b610e216020830185610b7f565b610e2e6040830184610c36565b949350505050565b600081519050610e4581610ad3565b92915050565b600060208284031215610e6157610e60610a26565b5b6000610e6f84828501610e36565b91505092915050565b6000610e8382610bf1565b915060ff821415610e9757610e96610d6d565b5b600182019050919050565b600081549050919050565b60008190508160005260206000209050919050565b60008160001c9050919050565b6000819050919050565b6000610eec610ee783610ec2565b610ecf565b9050919050565b6000610eff8254610ed9565b9050919050565b6000600182019050919050565b6000610f1e82610ea2565b610f288185610c98565b9350610f3383610ead565b8060005b83811015610f6b57610f4882610ef3565b610f528882610cc8565b9750610f5d83610f06565b925050600181019050610f37565b5085935050505092915050565b60006040820190508181036000830152610f928185610f13565b9050610fa16020830184610b7f565b9392505050565b6000604082019050610fbd6000830185610b7f565b8181036020830152610fcf8184610f13565b90509392505050565b600082825260208201905092915050565b7f4f776e61626c653a206e6577206f776e657220697320746865207a65726f206160008201527f6464726573730000000000000000000000000000000000000000000000000000602082015250565b6000611045602683610fd8565b915061105082610fe9565b604082019050919050565b6000602082019050818103600083015261107481611038565b9050919050565b7f4e487b7100000000000000000000000000000000000000000000000000000000600052604160045260246000fd5b60006110b582610ac9565b91507fffffffffffffffffffffffffffffffffffffffffffffffffffffffffffffffff8214156110e8576110e7610d6d565b5b600182019050919050565b7f4f776e61626c653a2063616c6c6572206973206e6f7420746865206f776e6572600082015250565b6000611129602083610fd8565b9150611134826110f3565b602082019050919050565b600060208201905081810360008301526111588161111c565b905091905056fea26469706673582212200d068d917a7d470fb8247695fdc7b554c2297d5202230e303f0c255f9664de9c64736f6c634300080c0033",
  "devdoc": {
    "kind": "dev",
    "methods": {
      "owner()": {
        "details": "Returns the address of the current owner."
      },
      "renounceOwnership()": {
        "details": "Leaves the contract without owner. It will not be possible to call `onlyOwner` functions anymore. Can only be called by the current owner. NOTE: Renouncing ownership will leave the contract without an owner, thereby removing any functionality that is only available to the owner."
      },
      "transferOwnership(address)": {
        "details": "Transfers ownership of the contract to a new account (`newOwner`). Can only be called by the current owner."
      }
    },
    "version": 1
  },
  "userdoc": {
    "kind": "user",
    "methods": {},
    "version": 1
  },
  "storageLayout": {
    "storage": [
      {
        "astId": 7,
        "contract": "contracts/BCLobby.sol:Lobby",
        "label": "_owner",
        "offset": 0,
        "slot": "0",
        "type": "t_address"
      },
      {
        "astId": 5082,
        "contract": "contracts/BCLobby.sol:Lobby",
        "label": "games",
        "offset": 0,
        "slot": "1",
        "type": "t_contract(GamesInterface)5054"
      },
      {
        "astId": 5085,
        "contract": "contracts/BCLobby.sol:Lobby",
        "label": "chars",
        "offset": 0,
        "slot": "2",
        "type": "t_contract(CharacterInterface)5077"
      },
      {
        "astId": 5114,
        "contract": "contracts/BCLobby.sol:Lobby",
        "label": "lobbies",
        "offset": 0,
        "slot": "3",
        "type": "t_array(t_struct(Lobby)7036_storage)dyn_storage"
      },
      {
        "astId": 5119,
        "contract": "contracts/BCLobby.sol:Lobby",
        "label": "addressToLobbies",
        "offset": 0,
        "slot": "4",
        "type": "t_mapping(t_address,t_array(t_uint256)dyn_storage)"
      }
    ],
    "types": {
      "t_address": {
        "encoding": "inplace",
        "label": "address",
        "numberOfBytes": "20"
      },
      "t_array(t_struct(Lobby)7036_storage)dyn_storage": {
        "base": "t_struct(Lobby)7036_storage",
        "encoding": "dynamic_array",
        "label": "struct BCTypes.Lobby[]",
        "numberOfBytes": "32"
      },
      "t_array(t_uint256)dyn_storage": {
        "base": "t_uint256",
        "encoding": "dynamic_array",
        "label": "uint256[]",
        "numberOfBytes": "32"
      },
      "t_bool": {
        "encoding": "inplace",
        "label": "bool",
        "numberOfBytes": "1"
      },
      "t_contract(CharacterInterface)5077": {
        "encoding": "inplace",
        "label": "contract CharacterInterface",
        "numberOfBytes": "20"
      },
      "t_contract(GamesInterface)5054": {
        "encoding": "inplace",
        "label": "contract GamesInterface",
        "numberOfBytes": "20"
      },
      "t_mapping(t_address,t_array(t_uint256)dyn_storage)": {
        "encoding": "mapping",
        "key": "t_address",
        "label": "mapping(address => uint256[])",
        "numberOfBytes": "32",
        "value": "t_array(t_uint256)dyn_storage"
      },
      "t_struct(Lobby)7036_storage": {
        "encoding": "inplace",
        "label": "struct BCTypes.Lobby",
        "members": [
          {
            "astId": 7030,
            "contract": "contracts/BCLobby.sol:Lobby",
            "label": "gameStarted",
            "offset": 0,
            "slot": "0",
            "type": "t_bool"
          },
          {
            "astId": 7032,
            "contract": "contracts/BCLobby.sol:Lobby",
            "label": "numberOfPlayers",
            "offset": 1,
            "slot": "0",
            "type": "t_uint8"
          },
          {
            "astId": 7035,
            "contract": "contracts/BCLobby.sol:Lobby",
            "label": "playerIndexes",
            "offset": 0,
            "slot": "1",
            "type": "t_array(t_uint256)dyn_storage"
          }
        ],
        "numberOfBytes": "64"
      },
      "t_uint256": {
        "encoding": "inplace",
        "label": "uint256",
        "numberOfBytes": "32"
      },
      "t_uint8": {
        "encoding": "inplace",
        "label": "uint8",
        "numberOfBytes": "1"
      }
    }
  }
}