{
  "address": "0xf6192012895e2214434Ae9DC1D5567FefAa1A5F4",
  "abi": [
    {
      "inputs": [],
      "stateMutability": "nonpayable",
      "type": "constructor"
    },
    {
      "anonymous": false,
      "inputs": [
        {
          "indexed": true,
          "internalType": "address",
          "name": "previousOwner",
          "type": "address"
        },
        {
          "indexed": true,
          "internalType": "address",
          "name": "newOwner",
          "type": "address"
        }
      ],
      "name": "OwnershipTransferred",
      "type": "event"
    },
    {
      "inputs": [
        {
          "internalType": "address",
          "name": "",
          "type": "address"
        },
        {
          "internalType": "uint256",
          "name": "",
          "type": "uint256"
        }
      ],
      "name": "addressToLobbies",
      "outputs": [
        {
          "internalType": "uint256",
          "name": "",
          "type": "uint256"
        }
      ],
      "stateMutability": "view",
      "type": "function"
    },
    {
      "inputs": [],
      "name": "enlistCost",
      "outputs": [
        {
          "internalType": "uint256",
          "name": "",
          "type": "uint256"
        }
      ],
      "stateMutability": "view",
      "type": "function"
    },
    {
      "inputs": [
        {
          "internalType": "uint256",
          "name": "_charId",
          "type": "uint256"
        }
      ],
      "name": "enlistForMission",
      "outputs": [],
      "stateMutability": "payable",
      "type": "function"
    },
    {
      "inputs": [
        {
          "internalType": "uint256",
          "name": "_lobbyId",
          "type": "uint256"
        }
      ],
      "name": "extGetLobbyPlayerIndexes",
      "outputs": [
        {
          "internalType": "uint256[]",
          "name": "",
          "type": "uint256[]"
        }
      ],
      "stateMutability": "view",
      "type": "function"
    },
    {
      "inputs": [
        {
          "internalType": "uint256",
          "name": "",
          "type": "uint256"
        }
      ],
      "name": "lobbies",
      "outputs": [
        {
          "internalType": "bool",
          "name": "gameStarted",
          "type": "bool"
        },
        {
          "internalType": "uint8",
          "name": "numberOfPlayers",
          "type": "uint8"
        }
      ],
      "stateMutability": "view",
      "type": "function"
    },
    {
      "inputs": [],
      "name": "owner",
      "outputs": [
        {
          "internalType": "address",
          "name": "",
          "type": "address"
        }
      ],
      "stateMutability": "view",
      "type": "function"
    },
    {
      "inputs": [],
      "name": "renounceOwnership",
      "outputs": [],
      "stateMutability": "nonpayable",
      "type": "function"
    },
    {
      "inputs": [
        {
          "internalType": "address",
          "name": "_gameContractAddress",
          "type": "address"
        },
        {
          "internalType": "address",
          "name": "_charContractAddress",
          "type": "address"
        }
      ],
      "name": "setGameContract",
      "outputs": [],
      "stateMutability": "nonpayable",
      "type": "function"
    },
    {
      "inputs": [
        {
          "internalType": "address",
          "name": "newOwner",
          "type": "address"
        }
      ],
      "name": "transferOwnership",
      "outputs": [],
      "stateMutability": "nonpayable",
      "type": "function"
    }
  ],
  "transactionHash": "0xad96c3ee21e59ad43a3e4df3d38d38101bff47f0cb936649bc71dbc1964d8647",
  "args": [],
  "numDeployments": 4,
  "solcInputHash": "8c343b04fa0f2f489794f8cd2022c5d3",
  "bytecode": "0x6080604052655af3107a40006005553480156200001b57600080fd5b506200003c620000306200005260201b60201c565b6200005a60201b60201c565b6200004c6200011e60201b60201c565b62000288565b600033905090565b60008060009054906101000a900473ffffffffffffffffffffffffffffffffffffffff169050816000806101000a81548173ffffffffffffffffffffffffffffffffffffffff021916908373ffffffffffffffffffffffffffffffffffffffff1602179055508173ffffffffffffffffffffffffffffffffffffffff168173ffffffffffffffffffffffffffffffffffffffff167f8be0079c531659141344cd1fd0a4f28419497f9722a3daafe3b4186f6b6457e060405160405180910390a35050565b60006003600181600181540180825580915050039060005260206000209060020201905060008160000160006101000a81548160ff02191690831515021790555060008160000160016101000a81548160ff021916908360ff160217905550600467ffffffffffffffff8111156200019b576200019a62000259565b5b604051908082528060200260200182016040528015620001ca5781602001602082028036833780820191505090505b50816001019080519060200190620001e4929190620001e8565b5050565b82805482825590600052602060002090810192821562000227579160200282015b828111156200022657825182559160200191906001019062000209565b5b5090506200023691906200023a565b5090565b5b80821115620002555760008160009055506001016200023b565b5090565b7f4e487b7100000000000000000000000000000000000000000000000000000000600052604160045260246000fd5b61136380620002986000396000f3fe6080604052600436106100865760003560e01c8063715018a611610059578063715018a61461014b5780638da5cb5b14610162578063f2fde38b1461018d578063fdcadf81146101b6578063fffb6e78146101e157610086565b806304a743221461008b5780630c76e3bc146100a75780636a818ddc146100d05780636e8fb4c61461010d575b600080fd5b6100a560048036038101906100a09190610bf1565b61021e565b005b3480156100b357600080fd5b506100ce60048036038101906100c99190610c7c565b610669565b005b3480156100dc57600080fd5b506100f760048036038101906100f29190610cbc565b6106f7565b6040516101049190610d0b565b60405180910390f35b34801561011957600080fd5b50610134600480360381019061012f9190610bf1565b610728565b604051610142929190610d5d565b60405180910390f35b34801561015757600080fd5b50610160610776565b005b34801561016e57600080fd5b5061017761078a565b6040516101849190610d95565b60405180910390f35b34801561019957600080fd5b506101b460048036038101906101af9190610db0565b6107b3565b005b3480156101c257600080fd5b506101cb610837565b6040516101d89190610d0b565b60405180910390f35b3480156101ed57600080fd5b5061020860048036038101906102039190610bf1565b61083d565b6040516102159190610e9b565b60405180910390f35b61022661078a565b73ffffffffffffffffffffffffffffffffffffffff163373ffffffffffffffffffffffffffffffffffffffff161480610260575060055434145b61029f576040517f08c379a000000000000000000000000000000000000000000000000000000000815260040161029690610f1a565b60405180910390fd5b600260009054906101000a900473ffffffffffffffffffffffffffffffffffffffff1673ffffffffffffffffffffffffffffffffffffffff16636352211e826040518263ffffffff1660e01b81526004016102fa9190610d0b565b602060405180830381865afa158015610317573d6000803e3d6000fd5b505050506040513d601f19601f8201168201806040525081019061033b9190610f4f565b73ffffffffffffffffffffffffffffffffffffffff163373ffffffffffffffffffffffffffffffffffffffff161461037257600080fd5b600060046003600160038054905061038a9190610fab565b8154811061039b5761039a610fdf565b5b906000526020600020906002020160000160019054906101000a900460ff1660ff1614156103cc576103cb61093e565b5b600360016003805490506103e09190610fab565b815481106103f1576103f0610fdf565b5b906000526020600020906002020190506000600160009054906101000a900473ffffffffffffffffffffffffffffffffffffffff1673ffffffffffffffffffffffffffffffffffffffff166308178b3c600260009054906101000a900473ffffffffffffffffffffffffffffffffffffffff1685336040518463ffffffff1660e01b81526004016104849392919061100e565b6020604051808303816000875af11580156104a3573d6000803e3d6000fd5b505050506040513d601f19601f820116820180604052508101906104c7919061105a565b905080826001018360000160019054906101000a900460ff1660ff16815481106104f4576104f3610fdf565b5b906000526020600020018190555081600001600181819054906101000a900460ff168092919061052390611087565b91906101000a81548160ff021916908360ff1602179055505060048260000160019054906101000a900460ff1660ff1614156105ed57600160009054906101000a900473ffffffffffffffffffffffffffffffffffffffff1673ffffffffffffffffffffffffffffffffffffffff166368030c728360010160046040518363ffffffff1660e01b81526004016105ba929190611187565b600060405180830381600087803b1580156105d457600080fd5b505af11580156105e8573d6000803e3d6000fd5b505050505b600460003373ffffffffffffffffffffffffffffffffffffffff1673ffffffffffffffffffffffffffffffffffffffff168152602001908152602001600020600160038054905061063e9190610fab565b9080600181540180825580915050600190039060005260206000200160009091909190915055505050565b610671610a02565b81600160006101000a81548173ffffffffffffffffffffffffffffffffffffffff021916908373ffffffffffffffffffffffffffffffffffffffff16021790555080600260006101000a81548173ffffffffffffffffffffffffffffffffffffffff021916908373ffffffffffffffffffffffffffffffffffffffff1602179055505050565b6004602052816000526040600020818154811061071357600080fd5b90600052602060002001600091509150505481565b6003818154811061073857600080fd5b90600052602060002090600202016000915090508060000160009054906101000a900460ff16908060000160019054906101000a900460ff16905082565b61077e610a02565b6107886000610a80565b565b60008060009054906101000a900473ffffffffffffffffffffffffffffffffffffffff16905090565b6107bb610a02565b600073ffffffffffffffffffffffffffffffffffffffff168173ffffffffffffffffffffffffffffffffffffffff16141561082b576040517f08c379a000000000000000000000000000000000000000000000000000000000815260040161082290611229565b60405180910390fd5b61083481610a80565b50565b60055481565b606060006003838154811061085557610854610fdf565b5b90600052602060002090600202016001018054905067ffffffffffffffff81111561088357610882611249565b5b6040519080825280602002602001820160405280156108b15781602001602082028036833780820191505090505b50905060005b815181101561093457600384815481106108d4576108d3610fdf565b5b906000526020600020906002020160010181815481106108f7576108f6610fdf565b5b906000526020600020015482828151811061091557610914610fdf565b5b602002602001018181525050808061092c90611278565b9150506108b7565b5080915050919050565b60006003600181600181540180825580915050039060005260206000209060020201905060008160000160006101000a81548160ff02191690831515021790555060008160000160016101000a81548160ff021916908360ff160217905550600467ffffffffffffffff8111156109b8576109b7611249565b5b6040519080825280602002602001820160405280156109e65781602001602082028036833780820191505090505b508160010190805190602001906109fe929190610b4c565b5050565b610a0a610b44565b73ffffffffffffffffffffffffffffffffffffffff16610a2861078a565b73ffffffffffffffffffffffffffffffffffffffff1614610a7e576040517f08c379a0000000000000000000000000000000000000000000000000000000008152600401610a759061130d565b60405180910390fd5b565b60008060009054906101000a900473ffffffffffffffffffffffffffffffffffffffff169050816000806101000a81548173ffffffffffffffffffffffffffffffffffffffff021916908373ffffffffffffffffffffffffffffffffffffffff1602179055508173ffffffffffffffffffffffffffffffffffffffff168173ffffffffffffffffffffffffffffffffffffffff167f8be0079c531659141344cd1fd0a4f28419497f9722a3daafe3b4186f6b6457e060405160405180910390a35050565b600033905090565b828054828255906000526020600020908101928215610b88579160200282015b82811115610b87578251825591602001919060010190610b6c565b5b509050610b959190610b99565b5090565b5b80821115610bb2576000816000905550600101610b9a565b5090565b600080fd5b6000819050919050565b610bce81610bbb565b8114610bd957600080fd5b50565b600081359050610beb81610bc5565b92915050565b600060208284031215610c0757610c06610bb6565b5b6000610c1584828501610bdc565b91505092915050565b600073ffffffffffffffffffffffffffffffffffffffff82169050919050565b6000610c4982610c1e565b9050919050565b610c5981610c3e565b8114610c6457600080fd5b50565b600081359050610c7681610c50565b92915050565b60008060408385031215610c9357610c92610bb6565b5b6000610ca185828601610c67565b9250506020610cb285828601610c67565b9150509250929050565b60008060408385031215610cd357610cd2610bb6565b5b6000610ce185828601610c67565b9250506020610cf285828601610bdc565b9150509250929050565b610d0581610bbb565b82525050565b6000602082019050610d206000830184610cfc565b92915050565b60008115159050919050565b610d3b81610d26565b82525050565b600060ff82169050919050565b610d5781610d41565b82525050565b6000604082019050610d726000830185610d32565b610d7f6020830184610d4e565b9392505050565b610d8f81610c3e565b82525050565b6000602082019050610daa6000830184610d86565b92915050565b600060208284031215610dc657610dc5610bb6565b5b6000610dd484828501610c67565b91505092915050565b600081519050919050565b600082825260208201905092915050565b6000819050602082019050919050565b610e1281610bbb565b82525050565b6000610e248383610e09565b60208301905092915050565b6000602082019050919050565b6000610e4882610ddd565b610e528185610de8565b9350610e5d83610df9565b8060005b83811015610e8e578151610e758882610e18565b9750610e8083610e30565b925050600181019050610e61565b5085935050505092915050565b60006020820190508181036000830152610eb58184610e3d565b905092915050565b600082825260208201905092915050565b7f696e636f7272656374207061796d656e74000000000000000000000000000000600082015250565b6000610f04601183610ebd565b9150610f0f82610ece565b602082019050919050565b60006020820190508181036000830152610f3381610ef7565b9050919050565b600081519050610f4981610c50565b92915050565b600060208284031215610f6557610f64610bb6565b5b6000610f7384828501610f3a565b91505092915050565b7f4e487b7100000000000000000000000000000000000000000000000000000000600052601160045260246000fd5b6000610fb682610bbb565b9150610fc183610bbb565b925082821015610fd457610fd3610f7c565b5b828203905092915050565b7f4e487b7100000000000000000000000000000000000000000000000000000000600052603260045260246000fd5b60006060820190506110236000830186610d86565b6110306020830185610cfc565b61103d6040830184610d86565b949350505050565b60008151905061105481610bc5565b92915050565b6000602082840312156110705761106f610bb6565b5b600061107e84828501611045565b91505092915050565b600061109282610d41565b915060ff8214156110a6576110a5610f7c565b5b600182019050919050565b600081549050919050565b60008190508160005260206000209050919050565b60008160001c9050919050565b6000819050919050565b60006110fb6110f6836110d1565b6110de565b9050919050565b600061110e82546110e8565b9050919050565b6000600182019050919050565b600061112d826110b1565b6111378185610de8565b9350611142836110bc565b8060005b8381101561117a5761115782611102565b6111618882610e18565b975061116c83611115565b925050600181019050611146565b5085935050505092915050565b600060408201905081810360008301526111a18185611122565b90506111b06020830184610cfc565b9392505050565b7f4f776e61626c653a206e6577206f776e657220697320746865207a65726f206160008201527f6464726573730000000000000000000000000000000000000000000000000000602082015250565b6000611213602683610ebd565b915061121e826111b7565b604082019050919050565b6000602082019050818103600083015261124281611206565b9050919050565b7f4e487b7100000000000000000000000000000000000000000000000000000000600052604160045260246000fd5b600061128382610bbb565b91507fffffffffffffffffffffffffffffffffffffffffffffffffffffffffffffffff8214156112b6576112b5610f7c565b5b600182019050919050565b7f4f776e61626c653a2063616c6c6572206973206e6f7420746865206f776e6572600082015250565b60006112f7602083610ebd565b9150611302826112c1565b602082019050919050565b60006020820190508181036000830152611326816112ea565b905091905056fea26469706673582212208ef3bb5a23cb840f5d9b7380c9052f486f9a5964021641b0da44bc0ae8cdf02864736f6c634300080c0033",
  "devdoc": {
    "kind": "dev",
    "methods": {
      "owner()": {
        "details": "Returns the address of the current owner."
      },
      "renounceOwnership()": {
        "details": "Leaves the contract without owner. It will not be possible to call `onlyOwner` functions anymore. Can only be called by the current owner. NOTE: Renouncing ownership will leave the contract without an owner, thereby removing any functionality that is only available to the owner."
      },
      "transferOwnership(address)": {
        "details": "Transfers ownership of the contract to a new account (`newOwner`). Can only be called by the current owner."
      }
    },
    "version": 1
  },
  "userdoc": {
    "kind": "user",
    "methods": {},
    "version": 1
  },
  "storageLayout": {
    "storage": [
      {
        "astId": 7,
        "contract": "contracts/BCLobby.sol:Lobby",
        "label": "_owner",
        "offset": 0,
        "slot": "0",
        "type": "t_address"
      },
      {
        "astId": 3924,
        "contract": "contracts/BCLobby.sol:Lobby",
        "label": "games",
        "offset": 0,
        "slot": "1",
        "type": "t_contract(GamesInterface)3911"
      },
      {
        "astId": 3927,
        "contract": "contracts/BCLobby.sol:Lobby",
        "label": "chars",
        "offset": 0,
        "slot": "2",
        "type": "t_contract(CharacterInterface)3919"
      },
      {
        "astId": 3956,
        "contract": "contracts/BCLobby.sol:Lobby",
        "label": "lobbies",
        "offset": 0,
        "slot": "3",
        "type": "t_array(t_struct(Lobby)5867_storage)dyn_storage"
      },
      {
        "astId": 3961,
        "contract": "contracts/BCLobby.sol:Lobby",
        "label": "addressToLobbies",
        "offset": 0,
        "slot": "4",
        "type": "t_mapping(t_address,t_array(t_uint256)dyn_storage)"
      },
      {
        "astId": 3968,
        "contract": "contracts/BCLobby.sol:Lobby",
        "label": "enlistCost",
        "offset": 0,
        "slot": "5",
        "type": "t_uint256"
      }
    ],
    "types": {
      "t_address": {
        "encoding": "inplace",
        "label": "address",
        "numberOfBytes": "20"
      },
      "t_array(t_struct(Lobby)5867_storage)dyn_storage": {
        "base": "t_struct(Lobby)5867_storage",
        "encoding": "dynamic_array",
        "label": "struct BCTypes.Lobby[]",
        "numberOfBytes": "32"
      },
      "t_array(t_uint256)dyn_storage": {
        "base": "t_uint256",
        "encoding": "dynamic_array",
        "label": "uint256[]",
        "numberOfBytes": "32"
      },
      "t_bool": {
        "encoding": "inplace",
        "label": "bool",
        "numberOfBytes": "1"
      },
      "t_contract(CharacterInterface)3919": {
        "encoding": "inplace",
        "label": "contract CharacterInterface",
        "numberOfBytes": "20"
      },
      "t_contract(GamesInterface)3911": {
        "encoding": "inplace",
        "label": "contract GamesInterface",
        "numberOfBytes": "20"
      },
      "t_mapping(t_address,t_array(t_uint256)dyn_storage)": {
        "encoding": "mapping",
        "key": "t_address",
        "label": "mapping(address => uint256[])",
        "numberOfBytes": "32",
        "value": "t_array(t_uint256)dyn_storage"
      },
      "t_struct(Lobby)5867_storage": {
        "encoding": "inplace",
        "label": "struct BCTypes.Lobby",
        "members": [
          {
            "astId": 5861,
            "contract": "contracts/BCLobby.sol:Lobby",
            "label": "gameStarted",
            "offset": 0,
            "slot": "0",
            "type": "t_bool"
          },
          {
            "astId": 5863,
            "contract": "contracts/BCLobby.sol:Lobby",
            "label": "numberOfPlayers",
            "offset": 1,
            "slot": "0",
            "type": "t_uint8"
          },
          {
            "astId": 5866,
            "contract": "contracts/BCLobby.sol:Lobby",
            "label": "playerIndexes",
            "offset": 0,
            "slot": "1",
            "type": "t_array(t_uint256)dyn_storage"
          }
        ],
        "numberOfBytes": "64"
      },
      "t_uint256": {
        "encoding": "inplace",
        "label": "uint256",
        "numberOfBytes": "32"
      },
      "t_uint8": {
        "encoding": "inplace",
        "label": "uint8",
        "numberOfBytes": "1"
      }
    }
  }
}