{
  "address": "0x7E77B41CFb1470b317e3eD41b054442ecFCf230E",
  "abi": [
    {
      "inputs": [],
      "stateMutability": "nonpayable",
      "type": "constructor"
    },
    {
      "anonymous": false,
      "inputs": [
        {
          "indexed": false,
          "internalType": "uint256",
          "name": "lobbyNumber",
          "type": "uint256"
        },
        {
          "indexed": false,
          "internalType": "uint256",
          "name": "charId",
          "type": "uint256"
        }
      ],
      "name": "EnlistedMultiPlayer",
      "type": "event"
    },
    {
      "anonymous": false,
      "inputs": [
        {
          "indexed": false,
          "internalType": "uint256",
          "name": "gameNumber",
          "type": "uint256"
        },
        {
          "indexed": false,
          "internalType": "uint256",
          "name": "charId",
          "type": "uint256"
        }
      ],
      "name": "EnlistedSoloPlayer",
      "type": "event"
    },
    {
      "anonymous": false,
      "inputs": [
        {
          "indexed": true,
          "internalType": "address",
          "name": "previousOwner",
          "type": "address"
        },
        {
          "indexed": true,
          "internalType": "address",
          "name": "newOwner",
          "type": "address"
        }
      ],
      "name": "OwnershipTransferred",
      "type": "event"
    },
    {
      "anonymous": false,
      "inputs": [
        {
          "indexed": false,
          "internalType": "uint256",
          "name": "lobbyNumber",
          "type": "uint256"
        },
        {
          "indexed": false,
          "internalType": "uint256[]",
          "name": "playerIds",
          "type": "uint256[]"
        }
      ],
      "name": "StartedGame",
      "type": "event"
    },
    {
      "inputs": [
        {
          "internalType": "address",
          "name": "",
          "type": "address"
        },
        {
          "internalType": "uint256",
          "name": "",
          "type": "uint256"
        }
      ],
      "name": "addressToLobbies",
      "outputs": [
        {
          "internalType": "uint256",
          "name": "",
          "type": "uint256"
        }
      ],
      "stateMutability": "view",
      "type": "function"
    },
    {
      "inputs": [
        {
          "internalType": "uint256",
          "name": "_charId",
          "type": "uint256"
        },
        {
          "internalType": "address",
          "name": "charOwner",
          "type": "address"
        },
        {
          "internalType": "uint256[]",
          "name": "_itemIds",
          "type": "uint256[]"
        }
      ],
      "name": "enlistForMission",
      "outputs": [],
      "stateMutability": "nonpayable",
      "type": "function"
    },
    {
      "inputs": [
        {
          "internalType": "uint256",
          "name": "_charId",
          "type": "uint256"
        },
        {
          "internalType": "address",
          "name": "charOwner",
          "type": "address"
        },
        {
          "internalType": "uint256[]",
          "name": "_itemIds",
          "type": "uint256[]"
        }
      ],
      "name": "enlistSolo",
      "outputs": [],
      "stateMutability": "nonpayable",
      "type": "function"
    },
    {
      "inputs": [
        {
          "internalType": "uint256",
          "name": "_lobbyId",
          "type": "uint256"
        }
      ],
      "name": "extGetLobbyPlayerIndexes",
      "outputs": [
        {
          "internalType": "uint256[]",
          "name": "",
          "type": "uint256[]"
        }
      ],
      "stateMutability": "view",
      "type": "function"
    },
    {
      "inputs": [
        {
          "internalType": "uint256",
          "name": "",
          "type": "uint256"
        }
      ],
      "name": "lobbies",
      "outputs": [
        {
          "internalType": "bool",
          "name": "gameStarted",
          "type": "bool"
        },
        {
          "internalType": "uint8",
          "name": "numberOfPlayers",
          "type": "uint8"
        }
      ],
      "stateMutability": "view",
      "type": "function"
    },
    {
      "inputs": [],
      "name": "owner",
      "outputs": [
        {
          "internalType": "address",
          "name": "",
          "type": "address"
        }
      ],
      "stateMutability": "view",
      "type": "function"
    },
    {
      "inputs": [],
      "name": "renounceOwnership",
      "outputs": [],
      "stateMutability": "nonpayable",
      "type": "function"
    },
    {
      "inputs": [
        {
          "internalType": "address",
          "name": "_gameContractAddress",
          "type": "address"
        },
        {
          "internalType": "address",
          "name": "_charContractAddress",
          "type": "address"
        },
        {
          "internalType": "address",
          "name": "_playersContractAddress",
          "type": "address"
        }
      ],
      "name": "setGameContract",
      "outputs": [],
      "stateMutability": "nonpayable",
      "type": "function"
    },
    {
      "inputs": [
        {
          "internalType": "address",
          "name": "newOwner",
          "type": "address"
        }
      ],
      "name": "transferOwnership",
      "outputs": [],
      "stateMutability": "nonpayable",
      "type": "function"
    }
  ],
  "transactionHash": "0x3b28dd2e75344acba1ebbf521eecef28bb9c0de49b9b33b5e0b89121406a286b",
  "args": [],
  "numDeployments": 1,
  "solcInputHash": "3b973de51732fc114236bb1be8e178c7",
  "bytecode": "0x608060405234801561001057600080fd5b5061001a33610027565b610022610077565b610149565b600080546001600160a01b038381166001600160a01b0319831681178455604051919092169283917f8be0079c531659141344cd1fd0a4f28419497f9722a3daafe3b4186f6b6457e09190a35050565b6004805460018101825560008290526002027f8a35acfbc15ff81a39ae7d344fd709f28e8600b4aa8c65c6b64bfe7fe36bd19b01805461ffff191681556040805183815260a08101909152909160208201608080368337505081516100e592600185019250602001906100e9565b5050565b828054828255906000526020600020908101928215610124579160200282015b82811115610124578251825591602001919060010190610109565b50610130929150610134565b5090565b5b808211156101305760008155600101610135565b610dc8806101586000396000f3fe608060405234801561001057600080fd5b50600436106100935760003560e01c8063829cf77f11610066578063829cf77f146101075780638da5cb5b1461011a578063f2fde38b14610135578063f6bcb75614610148578063fffb6e781461015b57600080fd5b80631f5e4de3146100985780636a818ddc146100ad5780636e8fb4c6146100d3578063715018a6146100ff575b600080fd5b6100ab6100a6366004610a52565b61017b565b005b6100c06100bb366004610b2c565b610386565b6040519081526020015b60405180910390f35b6100e66100e1366004610b56565b6103b7565b60408051921515835260ff9091166020830152016100ca565b6100ab6103e9565b6100ab610115366004610b6f565b6103fd565b6000546040516001600160a01b0390911681526020016100ca565b6100ab610143366004610bb2565b610444565b6100ab610156366004610a52565b6104bd565b61016e610169366004610b56565b6107b2565b6040516100ca9190610c0f565b6002546001600160a01b031633146101d35760405162461bcd60e51b8152602060048201526016602482015275139bdd0818da185c9858dd195c8818dbdb9d1c9858dd60521b60448201526064015b60405180910390fd5b600354604051635519f43960e01b81526000916001600160a01b031690635519f4399061020890879087908790600401610c22565b6020604051808303816000875af1158015610227573d6000803e3d6000fd5b505050506040513d601f19601f8201168201806040525081019061024b9190610c55565b6040805160018082528183019092529192506000919060208083019080368337019050509050818160008151811061028557610285610c6e565b602090810291909101015260018054604051637880ef4d60e11b81526000926001600160a01b039092169163f101de9a916102c69186918690600401610c84565b6020604051808303816000875af11580156102e5573d6000803e3d6000fd5b505050506040513d601f19601f820116820180604052508101906103099190610c55565b60408051828152602081018990529192507ff1976316f58c930c53222b4285c44dd206ab6536640dc580e61c17dd443b209e910160405180910390a17f4a6e61d0af36ba677826a8161d5b95f04455b03eb2e0fe4cde81377c466c8c568183604051610376929190610ca9565b60405180910390a1505050505050565b600560205281600052604060002081815481106103a257600080fd5b90600052602060002001600091509150505481565b600481815481106103c757600080fd5b600091825260209091206002909102015460ff80821692506101009091041682565b6103f16108a4565b6103fb60006108fe565b565b6104056108a4565b600180546001600160a01b039485166001600160a01b031991821617909155600280549385169382169390931790925560038054919093169116179055565b61044c6108a4565b6001600160a01b0381166104b15760405162461bcd60e51b815260206004820152602660248201527f4f776e61626c653a206e6577206f776e657220697320746865207a65726f206160448201526564647265737360d01b60648201526084016101ca565b6104ba816108fe565b50565b6002546001600160a01b031633146105105760405162461bcd60e51b8152602060048201526016602482015275139bdd0818da185c9858dd195c8818dbdb9d1c9858dd60521b60448201526064016101ca565b600060048060016004805490506105279190610ce0565b8154811061053757610537610c6e565b6000918252602090912060029091020154610100900460ff160361055d5761055d61094e565b6004805461056d90600190610ce0565b8154811061057d5761057d610c6e565b600091825260208220600354604051635519f43960e01b8152600290930290910193506001600160a01b031690635519f439906105c290889088908890600401610c22565b6020604051808303816000875af11580156105e1573d6000803e3d6000fd5b505050506040513d601f19601f820116820180604052508101906106059190610c55565b825460018401805492935083929091610100900460ff1690811061062b5761062b610c6e565b6000918252602090912001558154610100900460ff1682600161064d83610cf9565b825461010092830a60ff818102199092169282160291909117909255845404166003190190506107335760018054604051637880ef4d60e11b81526000926001600160a01b039092169163f101de9a916106b09187019060049086908201610d4d565b6020604051808303816000875af11580156106cf573d6000803e3d6000fd5b505050506040513d601f19601f820116820180604052508101906106f39190610c55565b90507f4a6e61d0af36ba677826a8161d5b95f04455b03eb2e0fe4cde81377c466c8c568184600101604051610729929190610d60565b60405180910390a1505b33600090815260056020526040902060045461075190600190610ce0565b8154600181810184556000938452602090932001556004547ff1976316f58c930c53222b4285c44dd206ab6536640dc580e61c17dd443b209e9161079491610ce0565b60408051918252602082018890520160405180910390a15050505050565b60606000600483815481106107c9576107c9610c6e565b90600052602060002090600202016001018054905067ffffffffffffffff8111156107f6576107f6610a3c565b60405190808252806020026020018201604052801561081f578160200160208202803683370190505b50905060005b815181101561089d576004848154811061084157610841610c6e565b9060005260206000209060020201600101818154811061086357610863610c6e565b906000526020600020015482828151811061088057610880610c6e565b60209081029190910101528061089581610d79565b915050610825565b5092915050565b6000546001600160a01b031633146103fb5760405162461bcd60e51b815260206004820181905260248201527f4f776e61626c653a2063616c6c6572206973206e6f7420746865206f776e657260448201526064016101ca565b600080546001600160a01b038381166001600160a01b0319831681178455604051919092169283917f8be0079c531659141344cd1fd0a4f28419497f9722a3daafe3b4186f6b6457e09190a35050565b6004805460018101825560008290526002027f8a35acfbc15ff81a39ae7d344fd709f28e8600b4aa8c65c6b64bfe7fe36bd19b01805461ffff191681556040805183815260a08101909152909160208201608080368337505081516109bc92600185019250602001906109c0565b5050565b8280548282559060005260206000209081019282156109fb579160200282015b828111156109fb5782518255916020019190600101906109e0565b50610a07929150610a0b565b5090565b5b80821115610a075760008155600101610a0c565b80356001600160a01b0381168114610a3757600080fd5b919050565b634e487b7160e01b600052604160045260246000fd5b600080600060608486031215610a6757600080fd5b833592506020610a78818601610a20565b9250604085013567ffffffffffffffff80821115610a9557600080fd5b818701915087601f830112610aa957600080fd5b813581811115610abb57610abb610a3c565b8060051b604051601f19603f83011681018181108582111715610ae057610ae0610a3c565b60405291825284820192508381018501918a831115610afe57600080fd5b938501935b82851015610b1c57843584529385019392850192610b03565b8096505050505050509250925092565b60008060408385031215610b3f57600080fd5b610b4883610a20565b946020939093013593505050565b600060208284031215610b6857600080fd5b5035919050565b600080600060608486031215610b8457600080fd5b610b8d84610a20565b9250610b9b60208501610a20565b9150610ba960408501610a20565b90509250925092565b600060208284031215610bc457600080fd5b610bcd82610a20565b9392505050565b600081518084526020808501945080840160005b83811015610c0457815187529582019590820190600101610be8565b509495945050505050565b602081526000610bcd6020830184610bd4565b8381526001600160a01b0383166020820152606060408201819052600090610c4c90830184610bd4565b95945050505050565b600060208284031215610c6757600080fd5b5051919050565b634e487b7160e01b600052603260045260246000fd5b606081526000610c976060830186610bd4565b60208301949094525060400152919050565b828152604060208201526000610cc26040830184610bd4565b949350505050565b634e487b7160e01b600052601160045260246000fd5b81810381811115610cf357610cf3610cca565b92915050565b600060ff821660ff8103610d0f57610d0f610cca565b60010192915050565b6000815480845260208085019450836000528060002060005b83811015610c0457815487529582019560019182019101610d31565b606081526000610c976060830186610d18565b828152604060208201526000610cc26040830184610d18565b600060018201610d8b57610d8b610cca565b506001019056fea264697066735822122004080b05e5c15c3463763e63bda56a3271a471d6d5aadbca9c701c6338ae9ce164736f6c63430008110033",
  "devdoc": {
    "kind": "dev",
    "methods": {
      "owner()": {
        "details": "Returns the address of the current owner."
      },
      "renounceOwnership()": {
        "details": "Leaves the contract without owner. It will not be possible to call `onlyOwner` functions anymore. Can only be called by the current owner. NOTE: Renouncing ownership will leave the contract without an owner, thereby removing any functionality that is only available to the owner."
      },
      "transferOwnership(address)": {
        "details": "Transfers ownership of the contract to a new account (`newOwner`). Can only be called by the current owner."
      }
    },
    "version": 1
  },
  "userdoc": {
    "kind": "user",
    "methods": {},
    "version": 1
  },
  "storageLayout": {
    "storage": [
      {
        "astId": 7,
        "contract": "contracts/BCLobby.sol:Lobby",
        "label": "_owner",
        "offset": 0,
        "slot": "0",
        "type": "t_address"
      },
      {
        "astId": 13944,
        "contract": "contracts/BCLobby.sol:Lobby",
        "label": "games",
        "offset": 0,
        "slot": "1",
        "type": "t_contract(GamesInterface)13903"
      },
      {
        "astId": 13947,
        "contract": "contracts/BCLobby.sol:Lobby",
        "label": "chars",
        "offset": 0,
        "slot": "2",
        "type": "t_contract(CharacterInterface)13926"
      },
      {
        "astId": 13950,
        "contract": "contracts/BCLobby.sol:Lobby",
        "label": "players",
        "offset": 0,
        "slot": "3",
        "type": "t_contract(PlayersInterface)13939"
      },
      {
        "astId": 13987,
        "contract": "contracts/BCLobby.sol:Lobby",
        "label": "lobbies",
        "offset": 0,
        "slot": "4",
        "type": "t_array(t_struct(Lobby)19205_storage)dyn_storage"
      },
      {
        "astId": 13992,
        "contract": "contracts/BCLobby.sol:Lobby",
        "label": "addressToLobbies",
        "offset": 0,
        "slot": "5",
        "type": "t_mapping(t_address,t_array(t_uint256)dyn_storage)"
      }
    ],
    "types": {
      "t_address": {
        "encoding": "inplace",
        "label": "address",
        "numberOfBytes": "20"
      },
      "t_array(t_struct(Lobby)19205_storage)dyn_storage": {
        "base": "t_struct(Lobby)19205_storage",
        "encoding": "dynamic_array",
        "label": "struct BCTypes.Lobby[]",
        "numberOfBytes": "32"
      },
      "t_array(t_uint256)dyn_storage": {
        "base": "t_uint256",
        "encoding": "dynamic_array",
        "label": "uint256[]",
        "numberOfBytes": "32"
      },
      "t_bool": {
        "encoding": "inplace",
        "label": "bool",
        "numberOfBytes": "1"
      },
      "t_contract(CharacterInterface)13926": {
        "encoding": "inplace",
        "label": "contract CharacterInterface",
        "numberOfBytes": "20"
      },
      "t_contract(GamesInterface)13903": {
        "encoding": "inplace",
        "label": "contract GamesInterface",
        "numberOfBytes": "20"
      },
      "t_contract(PlayersInterface)13939": {
        "encoding": "inplace",
        "label": "contract PlayersInterface",
        "numberOfBytes": "20"
      },
      "t_mapping(t_address,t_array(t_uint256)dyn_storage)": {
        "encoding": "mapping",
        "key": "t_address",
        "label": "mapping(address => uint256[])",
        "numberOfBytes": "32",
        "value": "t_array(t_uint256)dyn_storage"
      },
      "t_struct(Lobby)19205_storage": {
        "encoding": "inplace",
        "label": "struct BCTypes.Lobby",
        "members": [
          {
            "astId": 19199,
            "contract": "contracts/BCLobby.sol:Lobby",
            "label": "gameStarted",
            "offset": 0,
            "slot": "0",
            "type": "t_bool"
          },
          {
            "astId": 19201,
            "contract": "contracts/BCLobby.sol:Lobby",
            "label": "numberOfPlayers",
            "offset": 1,
            "slot": "0",
            "type": "t_uint8"
          },
          {
            "astId": 19204,
            "contract": "contracts/BCLobby.sol:Lobby",
            "label": "playerIndexes",
            "offset": 0,
            "slot": "1",
            "type": "t_array(t_uint256)dyn_storage"
          }
        ],
        "numberOfBytes": "64"
      },
      "t_uint256": {
        "encoding": "inplace",
        "label": "uint256",
        "numberOfBytes": "32"
      },
      "t_uint8": {
        "encoding": "inplace",
        "label": "uint8",
        "numberOfBytes": "1"
      }
    }
  }
}