{
  "address": "0xE5De64CfF0c2edD69Fb0e1b5EbE48B8A04Dd5Cfb",
  "abi": [
    {
      "inputs": [],
      "stateMutability": "nonpayable",
      "type": "constructor"
    },
    {
      "anonymous": false,
      "inputs": [
        {
          "indexed": true,
          "internalType": "uint256",
          "name": "gameId",
          "type": "uint256"
        },
        {
          "indexed": false,
          "internalType": "uint256",
          "name": "roll",
          "type": "uint256"
        },
        {
          "indexed": false,
          "internalType": "uint256",
          "name": "forValue",
          "type": "uint256"
        },
        {
          "indexed": false,
          "internalType": "uint256",
          "name": "against",
          "type": "uint256"
        }
      ],
      "name": "ChallengeEvent",
      "type": "event"
    },
    {
      "anonymous": false,
      "inputs": [
        {
          "indexed": true,
          "internalType": "uint256",
          "name": "gameId",
          "type": "uint256"
        },
        {
          "indexed": false,
          "internalType": "uint256",
          "name": "roll",
          "type": "uint256"
        }
      ],
      "name": "DiceRollEvent",
      "type": "event"
    },
    {
      "anonymous": false,
      "inputs": [
        {
          "indexed": true,
          "internalType": "address",
          "name": "previousOwner",
          "type": "address"
        },
        {
          "indexed": true,
          "internalType": "address",
          "name": "newOwner",
          "type": "address"
        }
      ],
      "name": "OwnershipTransferred",
      "type": "event"
    },
    {
      "inputs": [
        {
          "internalType": "int256",
          "name": "x",
          "type": "int256"
        }
      ],
      "name": "abs",
      "outputs": [
        {
          "internalType": "int256",
          "name": "",
          "type": "int256"
        }
      ],
      "stateMutability": "pure",
      "type": "function"
    },
    {
      "inputs": [],
      "name": "actionsAddress",
      "outputs": [
        {
          "internalType": "address",
          "name": "",
          "type": "address"
        }
      ],
      "stateMutability": "view",
      "type": "function"
    },
    {
      "inputs": [],
      "name": "createMap",
      "outputs": [
        {
          "internalType": "uint256",
          "name": "",
          "type": "uint256"
        }
      ],
      "stateMutability": "nonpayable",
      "type": "function"
    },
    {
      "inputs": [
        {
          "internalType": "uint256",
          "name": "_mapId",
          "type": "uint256"
        },
        {
          "internalType": "uint256",
          "name": "_row",
          "type": "uint256"
        },
        {
          "internalType": "uint256",
          "name": "_col",
          "type": "uint256"
        },
        {
          "internalType": "uint256",
          "name": "_roomId",
          "type": "uint256"
        }
      ],
      "name": "debugForceRoomId",
      "outputs": [],
      "stateMutability": "nonpayable",
      "type": "function"
    },
    {
      "inputs": [
        {
          "internalType": "uint256",
          "name": "_mapId",
          "type": "uint256"
        },
        {
          "internalType": "uint256",
          "name": "_row",
          "type": "uint256"
        },
        {
          "internalType": "uint256",
          "name": "_col",
          "type": "uint256"
        },
        {
          "internalType": "uint256",
          "name": "debugForceId",
          "type": "uint256"
        }
      ],
      "name": "discoverRoom",
      "outputs": [
        {
          "internalType": "uint256",
          "name": "",
          "type": "uint256"
        }
      ],
      "stateMutability": "nonpayable",
      "type": "function"
    },
    {
      "inputs": [
        {
          "internalType": "uint256",
          "name": "_mapId",
          "type": "uint256"
        }
      ],
      "name": "extGetBoard",
      "outputs": [
        {
          "components": [
            {
              "internalType": "uint8",
              "name": "roomId",
              "type": "uint8"
            },
            {
              "internalType": "uint8",
              "name": "parentId",
              "type": "uint8"
            },
            {
              "internalType": "uint256[4]",
              "name": "doors",
              "type": "uint256[4]"
            },
            {
              "internalType": "bool",
              "name": "explored",
              "type": "bool"
            },
            {
              "internalType": "bool",
              "name": "looted",
              "type": "bool"
            },
            {
              "internalType": "bool",
              "name": "hasVent",
              "type": "bool"
            },
            {
              "internalType": "bool",
              "name": "hasHazard",
              "type": "bool"
            }
          ],
          "internalType": "struct BCTypes.GameTile[][]",
          "name": "",
          "type": "tuple[][]"
        }
      ],
      "stateMutability": "view",
      "type": "function"
    },
    {
      "inputs": [
        {
          "internalType": "uint256",
          "name": "_mapId",
          "type": "uint256"
        }
      ],
      "name": "extGetDoors",
      "outputs": [
        {
          "components": [
            {
              "internalType": "uint8",
              "name": "vsBreach",
              "type": "uint8"
            },
            {
              "internalType": "uint8",
              "name": "vsHack",
              "type": "uint8"
            },
            {
              "internalType": "enum BCTypes.DoorStatus",
              "name": "status",
              "type": "uint8"
            }
          ],
          "internalType": "struct BCTypes.Door[]",
          "name": "",
          "type": "tuple[]"
        }
      ],
      "stateMutability": "view",
      "type": "function"
    },
    {
      "inputs": [
        {
          "internalType": "uint256",
          "name": "_mapId",
          "type": "uint256"
        },
        {
          "internalType": "uint256",
          "name": "_row",
          "type": "uint256"
        },
        {
          "internalType": "uint256",
          "name": "_col",
          "type": "uint256"
        }
      ],
      "name": "extGetGameTile",
      "outputs": [
        {
          "components": [
            {
              "internalType": "uint8",
              "name": "roomId",
              "type": "uint8"
            },
            {
              "internalType": "uint8",
              "name": "parentId",
              "type": "uint8"
            },
            {
              "internalType": "uint256[4]",
              "name": "doors",
              "type": "uint256[4]"
            },
            {
              "internalType": "bool",
              "name": "explored",
              "type": "bool"
            },
            {
              "internalType": "bool",
              "name": "looted",
              "type": "bool"
            },
            {
              "internalType": "bool",
              "name": "hasVent",
              "type": "bool"
            },
            {
              "internalType": "bool",
              "name": "hasHazard",
              "type": "bool"
            }
          ],
          "internalType": "struct BCTypes.GameTile",
          "name": "",
          "type": "tuple"
        }
      ],
      "stateMutability": "view",
      "type": "function"
    },
    {
      "inputs": [
        {
          "internalType": "uint256",
          "name": "_mapId",
          "type": "uint256"
        }
      ],
      "name": "extGetMainReactorCoords",
      "outputs": [
        {
          "internalType": "uint256",
          "name": "",
          "type": "uint256"
        },
        {
          "internalType": "uint256",
          "name": "",
          "type": "uint256"
        }
      ],
      "stateMutability": "view",
      "type": "function"
    },
    {
      "inputs": [
        {
          "internalType": "uint256",
          "name": "_mapId",
          "type": "uint256"
        },
        {
          "internalType": "uint256",
          "name": "_row",
          "type": "uint256"
        },
        {
          "internalType": "uint256",
          "name": "_col",
          "type": "uint256"
        }
      ],
      "name": "extGetRoom",
      "outputs": [
        {
          "components": [
            {
              "internalType": "enum BCTypes.BCEventType",
              "name": "eventType",
              "type": "uint8"
            },
            {
              "internalType": "uint256",
              "name": "eventNum",
              "type": "uint256"
            },
            {
              "internalType": "uint8",
              "name": "numItems",
              "type": "uint8"
            },
            {
              "internalType": "uint8",
              "name": "numData",
              "type": "uint8"
            },
            {
              "internalType": "bool",
              "name": "sigDetected",
              "type": "bool"
            }
          ],
          "internalType": "struct BCTypes.RoomTile",
          "name": "",
          "type": "tuple"
        }
      ],
      "stateMutability": "view",
      "type": "function"
    },
    {
      "inputs": [
        {
          "internalType": "uint256",
          "name": "_mapId",
          "type": "uint256"
        },
        {
          "internalType": "uint256",
          "name": "_roomId",
          "type": "uint256"
        }
      ],
      "name": "extGetRoomById",
      "outputs": [
        {
          "components": [
            {
              "internalType": "enum BCTypes.BCEventType",
              "name": "eventType",
              "type": "uint8"
            },
            {
              "internalType": "uint256",
              "name": "eventNum",
              "type": "uint256"
            },
            {
              "internalType": "uint8",
              "name": "numItems",
              "type": "uint8"
            },
            {
              "internalType": "uint8",
              "name": "numData",
              "type": "uint8"
            },
            {
              "internalType": "bool",
              "name": "sigDetected",
              "type": "bool"
            }
          ],
          "internalType": "struct BCTypes.RoomTile",
          "name": "",
          "type": "tuple"
        }
      ],
      "stateMutability": "view",
      "type": "function"
    },
    {
      "inputs": [
        {
          "internalType": "uint256",
          "name": "_mapId",
          "type": "uint256"
        },
        {
          "internalType": "uint256",
          "name": "row",
          "type": "uint256"
        },
        {
          "internalType": "uint256",
          "name": "col",
          "type": "uint256"
        }
      ],
      "name": "extGetRoomId",
      "outputs": [
        {
          "internalType": "uint256",
          "name": "",
          "type": "uint256"
        }
      ],
      "stateMutability": "view",
      "type": "function"
    },
    {
      "inputs": [
        {
          "internalType": "uint256",
          "name": "_mapId",
          "type": "uint256"
        }
      ],
      "name": "extGetRoomList",
      "outputs": [
        {
          "components": [
            {
              "internalType": "enum BCTypes.BCEventType",
              "name": "eventType",
              "type": "uint8"
            },
            {
              "internalType": "uint256",
              "name": "eventNum",
              "type": "uint256"
            },
            {
              "internalType": "uint8",
              "name": "numItems",
              "type": "uint8"
            },
            {
              "internalType": "uint8",
              "name": "numData",
              "type": "uint8"
            },
            {
              "internalType": "bool",
              "name": "sigDetected",
              "type": "bool"
            }
          ],
          "internalType": "struct BCTypes.RoomTile[]",
          "name": "",
          "type": "tuple[]"
        }
      ],
      "stateMutability": "view",
      "type": "function"
    },
    {
      "inputs": [
        {
          "internalType": "uint256",
          "name": "_mapId",
          "type": "uint256"
        },
        {
          "internalType": "uint256",
          "name": "_row",
          "type": "uint256"
        },
        {
          "internalType": "uint256",
          "name": "_col",
          "type": "uint256"
        },
        {
          "internalType": "bool",
          "name": "_hasHazard",
          "type": "bool"
        }
      ],
      "name": "extSetHazardStatus",
      "outputs": [],
      "stateMutability": "nonpayable",
      "type": "function"
    },
    {
      "inputs": [
        {
          "internalType": "uint256",
          "name": "_mapId",
          "type": "uint256"
        },
        {
          "internalType": "uint256",
          "name": "_distance",
          "type": "uint256"
        }
      ],
      "name": "extSpreadHazards",
      "outputs": [],
      "stateMutability": "nonpayable",
      "type": "function"
    },
    {
      "inputs": [],
      "name": "game",
      "outputs": [
        {
          "internalType": "address",
          "name": "",
          "type": "address"
        }
      ],
      "stateMutability": "view",
      "type": "function"
    },
    {
      "inputs": [
        {
          "components": [
            {
              "internalType": "uint8",
              "name": "row",
              "type": "uint8"
            },
            {
              "internalType": "uint8",
              "name": "col",
              "type": "uint8"
            }
          ],
          "internalType": "struct BCTypes.Position",
          "name": "_firstRoom",
          "type": "tuple"
        },
        {
          "components": [
            {
              "internalType": "uint8",
              "name": "row",
              "type": "uint8"
            },
            {
              "internalType": "uint8",
              "name": "col",
              "type": "uint8"
            }
          ],
          "internalType": "struct BCTypes.Position",
          "name": "_secondRoom",
          "type": "tuple"
        }
      ],
      "name": "getDirectionBetween",
      "outputs": [
        {
          "internalType": "uint256",
          "name": "",
          "type": "uint256"
        }
      ],
      "stateMutability": "pure",
      "type": "function"
    },
    {
      "inputs": [
        {
          "internalType": "uint256",
          "name": "_mapId",
          "type": "uint256"
        },
        {
          "internalType": "uint256",
          "name": "_row",
          "type": "uint256"
        },
        {
          "internalType": "uint256",
          "name": "_col",
          "type": "uint256"
        },
        {
          "internalType": "uint256",
          "name": "_direction",
          "type": "uint256"
        }
      ],
      "name": "getDoor",
      "outputs": [
        {
          "components": [
            {
              "internalType": "uint8",
              "name": "vsBreach",
              "type": "uint8"
            },
            {
              "internalType": "uint8",
              "name": "vsHack",
              "type": "uint8"
            },
            {
              "internalType": "enum BCTypes.DoorStatus",
              "name": "status",
              "type": "uint8"
            }
          ],
          "internalType": "struct BCTypes.Door",
          "name": "",
          "type": "tuple"
        }
      ],
      "stateMutability": "view",
      "type": "function"
    },
    {
      "inputs": [
        {
          "internalType": "uint256",
          "name": "_mapId",
          "type": "uint256"
        },
        {
          "internalType": "uint256",
          "name": "_row",
          "type": "uint256"
        },
        {
          "internalType": "uint256",
          "name": "_col",
          "type": "uint256"
        }
      ],
      "name": "getDoorDirections",
      "outputs": [
        {
          "internalType": "bool[4]",
          "name": "",
          "type": "bool[4]"
        }
      ],
      "stateMutability": "view",
      "type": "function"
    },
    {
      "inputs": [
        {
          "internalType": "uint256",
          "name": "_gameId",
          "type": "uint256"
        }
      ],
      "name": "getEventBlocks",
      "outputs": [
        {
          "internalType": "uint256[]",
          "name": "",
          "type": "uint256[]"
        }
      ],
      "stateMutability": "view",
      "type": "function"
    },
    {
      "inputs": [
        {
          "internalType": "uint256",
          "name": "_mapId",
          "type": "uint256"
        },
        {
          "components": [
            {
              "internalType": "uint8",
              "name": "row",
              "type": "uint8"
            },
            {
              "internalType": "uint8",
              "name": "col",
              "type": "uint8"
            }
          ],
          "internalType": "struct BCTypes.Position",
          "name": "_first",
          "type": "tuple"
        },
        {
          "components": [
            {
              "internalType": "uint8",
              "name": "row",
              "type": "uint8"
            },
            {
              "internalType": "uint8",
              "name": "col",
              "type": "uint8"
            }
          ],
          "internalType": "struct BCTypes.Position",
          "name": "_second",
          "type": "tuple"
        },
        {
          "internalType": "bool",
          "name": "_ignoreClosed",
          "type": "bool"
        }
      ],
      "name": "getLineOfSight",
      "outputs": [
        {
          "internalType": "bool",
          "name": "",
          "type": "bool"
        }
      ],
      "stateMutability": "view",
      "type": "function"
    },
    {
      "inputs": [
        {
          "internalType": "uint256",
          "name": "_direction",
          "type": "uint256"
        },
        {
          "components": [
            {
              "internalType": "uint8",
              "name": "row",
              "type": "uint8"
            },
            {
              "internalType": "uint8",
              "name": "col",
              "type": "uint8"
            }
          ],
          "internalType": "struct BCTypes.Position",
          "name": "_start",
          "type": "tuple"
        }
      ],
      "name": "getNeighborRoom",
      "outputs": [
        {
          "components": [
            {
              "internalType": "uint8",
              "name": "row",
              "type": "uint8"
            },
            {
              "internalType": "uint8",
              "name": "col",
              "type": "uint8"
            }
          ],
          "internalType": "struct BCTypes.Position",
          "name": "",
          "type": "tuple"
        }
      ],
      "stateMutability": "pure",
      "type": "function"
    },
    {
      "inputs": [
        {
          "internalType": "uint256",
          "name": "_traitNum",
          "type": "uint256"
        },
        {
          "internalType": "uint256",
          "name": "_subTraitNum",
          "type": "uint256"
        }
      ],
      "name": "getUIOffset",
      "outputs": [
        {
          "internalType": "uint256",
          "name": "",
          "type": "uint256"
        }
      ],
      "stateMutability": "pure",
      "type": "function"
    },
    {
      "inputs": [
        {
          "components": [
            {
              "internalType": "uint8",
              "name": "row",
              "type": "uint8"
            },
            {
              "internalType": "uint8",
              "name": "col",
              "type": "uint8"
            }
          ],
          "internalType": "struct BCTypes.Position",
          "name": "_pos1",
          "type": "tuple"
        },
        {
          "components": [
            {
              "internalType": "uint8",
              "name": "row",
              "type": "uint8"
            },
            {
              "internalType": "uint8",
              "name": "col",
              "type": "uint8"
            }
          ],
          "internalType": "struct BCTypes.Position",
          "name": "_pos2",
          "type": "tuple"
        }
      ],
      "name": "manhattanDistance",
      "outputs": [
        {
          "internalType": "uint256",
          "name": "",
          "type": "uint256"
        }
      ],
      "stateMutability": "pure",
      "type": "function"
    },
    {
      "inputs": [
        {
          "internalType": "uint256",
          "name": "",
          "type": "uint256"
        }
      ],
      "name": "maps",
      "outputs": [
        {
          "internalType": "uint8",
          "name": "numDoors",
          "type": "uint8"
        },
        {
          "components": [
            {
              "internalType": "uint8",
              "name": "row",
              "type": "uint8"
            },
            {
              "internalType": "uint8",
              "name": "col",
              "type": "uint8"
            }
          ],
          "internalType": "struct BCTypes.Position",
          "name": "startPosition",
          "type": "tuple"
        },
        {
          "internalType": "uint256",
          "name": "mainReactorRow",
          "type": "uint256"
        },
        {
          "internalType": "uint256",
          "name": "mainReactorCol",
          "type": "uint256"
        }
      ],
      "stateMutability": "view",
      "type": "function"
    },
    {
      "inputs": [
        {
          "internalType": "uint256",
          "name": "_mapId",
          "type": "uint256"
        },
        {
          "components": [
            {
              "internalType": "uint8",
              "name": "row",
              "type": "uint8"
            },
            {
              "internalType": "uint8",
              "name": "col",
              "type": "uint8"
            }
          ],
          "internalType": "struct BCTypes.Position",
          "name": "_start",
          "type": "tuple"
        },
        {
          "components": [
            {
              "internalType": "uint8",
              "name": "row",
              "type": "uint8"
            },
            {
              "internalType": "uint8",
              "name": "col",
              "type": "uint8"
            }
          ],
          "internalType": "struct BCTypes.Position",
          "name": "_finish",
          "type": "tuple"
        },
        {
          "internalType": "bool",
          "name": "_ignoreClosed",
          "type": "bool"
        },
        {
          "internalType": "bool",
          "name": "_useVents",
          "type": "bool"
        },
        {
          "internalType": "uint256",
          "name": "_moveLimit",
          "type": "uint256"
        }
      ],
      "name": "moveToOrCloser",
      "outputs": [
        {
          "components": [
            {
              "internalType": "uint8",
              "name": "row",
              "type": "uint8"
            },
            {
              "internalType": "uint8",
              "name": "col",
              "type": "uint8"
            }
          ],
          "internalType": "struct BCTypes.Position",
          "name": "",
          "type": "tuple"
        }
      ],
      "stateMutability": "view",
      "type": "function"
    },
    {
      "inputs": [
        {
          "internalType": "uint256",
          "name": "_min",
          "type": "uint256"
        },
        {
          "internalType": "uint256",
          "name": "_max",
          "type": "uint256"
        },
        {
          "internalType": "uint256",
          "name": "_val",
          "type": "uint256"
        },
        {
          "internalType": "uint256",
          "name": "_valMax",
          "type": "uint256"
        }
      ],
      "name": "normalizeToSmallRange",
      "outputs": [
        {
          "internalType": "uint8",
          "name": "",
          "type": "uint8"
        }
      ],
      "stateMutability": "pure",
      "type": "function"
    },
    {
      "inputs": [],
      "name": "numRooms",
      "outputs": [
        {
          "internalType": "uint256",
          "name": "",
          "type": "uint256"
        }
      ],
      "stateMutability": "view",
      "type": "function"
    },
    {
      "inputs": [
        {
          "internalType": "uint256",
          "name": "_direction",
          "type": "uint256"
        }
      ],
      "name": "opposite",
      "outputs": [
        {
          "internalType": "uint256",
          "name": "",
          "type": "uint256"
        }
      ],
      "stateMutability": "pure",
      "type": "function"
    },
    {
      "inputs": [],
      "name": "owner",
      "outputs": [
        {
          "internalType": "address",
          "name": "",
          "type": "address"
        }
      ],
      "stateMutability": "view",
      "type": "function"
    },
    {
      "inputs": [],
      "name": "playersAddress",
      "outputs": [
        {
          "internalType": "address",
          "name": "",
          "type": "address"
        }
      ],
      "stateMutability": "view",
      "type": "function"
    },
    {
      "inputs": [],
      "name": "randKeccak",
      "outputs": [
        {
          "internalType": "bytes32",
          "name": "",
          "type": "bytes32"
        }
      ],
      "stateMutability": "nonpayable",
      "type": "function"
    },
    {
      "inputs": [],
      "name": "renounceOwnership",
      "outputs": [],
      "stateMutability": "nonpayable",
      "type": "function"
    },
    {
      "inputs": [
        {
          "internalType": "uint256",
          "name": "_mapId",
          "type": "uint256"
        }
      ],
      "name": "resetOpenDoors",
      "outputs": [],
      "stateMutability": "nonpayable",
      "type": "function"
    },
    {
      "inputs": [
        {
          "internalType": "uint256",
          "name": "_gameId",
          "type": "uint256"
        },
        {
          "internalType": "uint256",
          "name": "_for",
          "type": "uint256"
        },
        {
          "internalType": "uint256",
          "name": "_against",
          "type": "uint256"
        }
      ],
      "name": "resolveChallenge",
      "outputs": [
        {
          "internalType": "bool",
          "name": "",
          "type": "bool"
        }
      ],
      "stateMutability": "nonpayable",
      "type": "function"
    },
    {
      "inputs": [
        {
          "internalType": "uint256",
          "name": "_gameId",
          "type": "uint256"
        }
      ],
      "name": "roll",
      "outputs": [
        {
          "internalType": "uint256",
          "name": "",
          "type": "uint256"
        }
      ],
      "stateMutability": "nonpayable",
      "type": "function"
    },
    {
      "inputs": [
        {
          "internalType": "uint256",
          "name": "",
          "type": "uint256"
        }
      ],
      "name": "roomList",
      "outputs": [
        {
          "internalType": "enum BCTypes.BCEventType",
          "name": "eventType",
          "type": "uint8"
        },
        {
          "internalType": "uint256",
          "name": "eventNum",
          "type": "uint256"
        },
        {
          "internalType": "uint8",
          "name": "numItems",
          "type": "uint8"
        },
        {
          "internalType": "uint8",
          "name": "numData",
          "type": "uint8"
        },
        {
          "internalType": "bool",
          "name": "sigDetected",
          "type": "bool"
        }
      ],
      "stateMutability": "view",
      "type": "function"
    },
    {
      "inputs": [],
      "name": "roomTiles",
      "outputs": [
        {
          "internalType": "contract RoomTileInterface",
          "name": "",
          "type": "address"
        }
      ],
      "stateMutability": "view",
      "type": "function"
    },
    {
      "inputs": [
        {
          "internalType": "address",
          "name": "_gameAddress",
          "type": "address"
        },
        {
          "internalType": "address",
          "name": "_utilsAddress",
          "type": "address"
        },
        {
          "internalType": "address",
          "name": "_roomTilesAddress",
          "type": "address"
        },
        {
          "internalType": "address",
          "name": "_actionsAddress",
          "type": "address"
        },
        {
          "internalType": "address",
          "name": "_playersAddress",
          "type": "address"
        }
      ],
      "name": "setContractAddresses",
      "outputs": [],
      "stateMutability": "nonpayable",
      "type": "function"
    },
    {
      "inputs": [
        {
          "internalType": "uint256",
          "name": "_mapId",
          "type": "uint256"
        },
        {
          "internalType": "uint256",
          "name": "_row",
          "type": "uint256"
        },
        {
          "internalType": "uint256",
          "name": "_col",
          "type": "uint256"
        },
        {
          "internalType": "uint256",
          "name": "_direction",
          "type": "uint256"
        },
        {
          "internalType": "enum BCTypes.DoorStatus",
          "name": "_status",
          "type": "uint8"
        },
        {
          "internalType": "uint256",
          "name": "_strength",
          "type": "uint256"
        }
      ],
      "name": "setDoorFromPos",
      "outputs": [],
      "stateMutability": "nonpayable",
      "type": "function"
    },
    {
      "inputs": [
        {
          "internalType": "uint256",
          "name": "_mapId",
          "type": "uint256"
        },
        {
          "internalType": "uint256",
          "name": "_row",
          "type": "uint256"
        },
        {
          "internalType": "uint256",
          "name": "_col",
          "type": "uint256"
        }
      ],
      "name": "setLooted",
      "outputs": [],
      "stateMutability": "nonpayable",
      "type": "function"
    },
    {
      "inputs": [
        {
          "internalType": "bytes32",
          "name": "_hash",
          "type": "bytes32"
        },
        {
          "internalType": "uint256",
          "name": "_size",
          "type": "uint256"
        },
        {
          "internalType": "uint256",
          "name": "_offset",
          "type": "uint256"
        }
      ],
      "name": "sliceHashToSmallInt",
      "outputs": [
        {
          "internalType": "uint8",
          "name": "",
          "type": "uint8"
        }
      ],
      "stateMutability": "pure",
      "type": "function"
    },
    {
      "inputs": [
        {
          "internalType": "uint8",
          "name": "_min",
          "type": "uint8"
        },
        {
          "internalType": "uint8",
          "name": "_max",
          "type": "uint8"
        }
      ],
      "name": "smallIntBetweenVals",
      "outputs": [
        {
          "internalType": "uint8",
          "name": "",
          "type": "uint8"
        }
      ],
      "stateMutability": "nonpayable",
      "type": "function"
    },
    {
      "inputs": [
        {
          "internalType": "address",
          "name": "newOwner",
          "type": "address"
        }
      ],
      "name": "transferOwnership",
      "outputs": [],
      "stateMutability": "nonpayable",
      "type": "function"
    }
  ],
  "transactionHash": "0x801853c336da48d10a73d4ed44b1da35dbae2ba38c72fa4a4b4c7b3e374b9a63",
  "args": [],
  "numDeployments": 1,
  "solcInputHash": "e5f151f5cbc45bae039f883ab05df643",
  "bytecode": "0x608060405260006001553480156200001657600080fd5b50620000223362000034565b60098054600101815560005262000084565b600080546001600160a01b038381166001600160a01b0319831681178455604051919092169283917f8be0079c531659141344cd1fd0a4f28419497f9722a3daafe3b4186f6b6457e09190a35050565b6147b980620000946000396000f3fe608060405234801561001057600080fd5b50600436106102745760003560e01c80637b45c0d411610151578063c6b41b45116100c3578063f10bff2b11610087578063f10bff2b14610643578063f2fde38b14610656578063f7157f6414610669578063f9dfbfcb1461067c578063fa3993c21461069c578063fe368d7a146106af57600080fd5b8063c6b41b45146105ef578063c8e9ac9614610602578063ce28613f14610615578063e847ae1e14610628578063f01fc35a1461063b57600080fd5b80638da5cb5b116101155780638da5cb5b1461053a578063951fc3fe1461054b57806397f34c3f1461055e578063a63a9aab14610571578063b14ca575146105c9578063c3fe3e28146105dc57600080fd5b80637b45c0d4146104ce57806381bad36d146104e15780638214f222146104f457806386e529d0146105075780638af13fd21461051a57600080fd5b806353011696116101ea5780635f8951e6116101ae5780635f8951e61461042857806364db84bf1461045057806369568fd5146104635780636ea1dcd814610483578063715018a6146104a357806375990a0e146104ab57600080fd5b806353011696146103b557806358058283146103da57806358308aa8146103ed57806359215223146104025780635dc969671461041557600080fd5b80631cdec3ad1161023c5780631cdec3ad1461032e5780631e1de205146103375780631ef044161461033f5780631f7b4f301461035f5780632ec6572a1461037257806345e1e03c1461039557600080fd5b806302861c6c1461027957806303b414e4146102a25780630e73c024146102cd57806315636a4d146102ed5780631b5ac4b51461030d575b600080fd5b61028c610287366004613c67565b6106c2565b6040516102999190613cfc565b60405180910390f35b6006546102b5906001600160a01b031681565b6040516001600160a01b039091168152602001610299565b6102e06102db366004613d0a565b610791565b6040516102999190613d23565b6103006102fb366004613c67565b6107b1565b6040516102999190613d67565b61032061031b366004613d0a565b6108f6565b604051908152602001610299565b61032060085481565b610320610912565b61035261034d366004613d0a565b61098a565b6040516102999190613e11565b61032061036d366004613d0a565b610b7e565b610385610380366004613f4a565b610bd2565b6040519015158152602001610299565b6103a86103a3366004613f9b565b610da1565b604051610299919061400a565b6103c86103c3366004614028565b6111d7565b60405160ff9091168152602001610299565b61028c6103e836600461405a565b611214565b6104006103fb366004613d0a565b61129d565b005b61040061041036600461407c565b6113aa565b610385610423366004613c67565b611551565b61043b610436366004613d0a565b6115e7565b60408051928352602083019190915201610299565b61032061045e36600461405a565b61163d565b610476610471366004613d0a565b611655565b6040516102999190614109565b610496610491366004614028565b6117b5565b604051610299919061414b565b6104006118f3565b6104be6104b9366004613d0a565b611907565b6040516102999493929190614159565b6005546102b5906001600160a01b031681565b6103206104ef366004614028565b611968565b610320610502366004613d0a565b611a58565b610400610515366004613c67565b611ad2565b61052d610528366004613d0a565b611b85565b6040516102999190614192565b6000546001600160a01b03166102b5565b6103a86105593660046141d4565b611c98565b6103c861056c366004613c67565b611dc2565b6105b861057f366004613d0a565b60076020526000908152604090208054600182015460029092015460ff9182169291818116916101008104821691620100009091041685565b604051610299959493929190614201565b6104006105d7366004614028565b611ded565b6003546102b5906001600160a01b031681565b6104006105fd36600461405a565b611e49565b610320610610366004613c67565b6121a6565b6103c8610623366004614239565b6121ee565b61040061063636600461428e565b61229e565b610320612302565b6103206106513660046142f3565b61253b565b61040061066436600461431f565b612588565b6004546102b5906001600160a01b031681565b61068f61068a366004613c67565b612601565b604051610299919061433a565b6103206106aa3660046142f3565b6126e5565b6104006106bd366004614349565b6127ad565b6106ca613ac3565b60076000600986815481106106e1576106e161437f565b600091825260208083208884526001600790930201919091018152604080832087845282528083205460ff9081168552918401949094529183019020825160a0810190935280549091839116600581111561073e5761073e613c93565b600581111561074f5761074f613c93565b81526001820154602082015260029091015460ff80821660408401526101008204811660608401526201000090910416151560809091015290505b9392505050565b60008181526002602052604090206060906107ab9061285c565b92915050565b6107b9613af4565b6000600985815481106107ce576107ce61437f565b600091825260208083208784526001600790930201820181526040808420878552909152909120019050610800613af4565b60005b60048110156108ec576000600988815481106108215761082161437f565b906000526020600020906007020160020160008584600481106108465761084661437f565b015481526020810191909152604001600020805490915062010000900460ff16600181600481111561087a5761087a613c93565b14806108975750600281600481111561089557610895613c93565b145b806108b3575060038160048111156108b1576108b1613c93565b145b156108d75760018484600481106108cc576108cc61437f565b911515602090920201525b505080806108e4906143ab565b915050610803565b5095945050505050565b60008082121561090e57610909826143c4565b6107ab565b5090565b6001805460009182610923836143ab565b919050555060015460014361093891906143e0565b403360405160200161096f93929190928352602083019190915260601b6bffffffffffffffffffffffff1916604082015260540190565b60405160208183030381529060405280519060200120905090565b60408051600b808252610180820190925260609160009190816020015b60608152602001906001900390816109a757905050905060005b600b811015610a2c5760408051600b808252610180820190925290816020015b6109e9613b12565b8152602001906001900390816109e157905050828281518110610a0e57610a0e61437f565b60200260200101819052508080610a24906143ab565b9150506109c1565b5060005b600b811015610b775760005b600b811015610b645760098581548110610a5857610a5861437f565b600091825260208083208584526001600790930201820181526040808420858552825292839020835160e081018552815460ff808216835261010090910416928101929092528351608081018552919390929084019190830160048282826020028201915b815481526020019060010190808311610abd5750505091835250506005919091015460ff80821615156020840152610100820481161515604084015262010000820481161515606084015263010000009091041615156080909101528351849084908110610b2d57610b2d61437f565b60200260200101518281518110610b4657610b4661437f565b60200260200101819052508080610b5c906143ab565b915050610a3c565b5080610b6f816143ab565b915050610a30565b5092915050565b600080610b8d600160066121ee565b60ff169050827ffe34d093a460a16ee5fb374540914d1c734a17502c0c1a87b387c8d6097e1c5182604051610bc491815260200190565b60405180910390a292915050565b8151835160009160ff9182169116148015610bfa5750826020015160ff16846020015160ff16145b15610c0757506001610d99565b8251845160ff908116911614801590610c2e5750826020015160ff16846020015160ff1614155b15610c3b57506000610d99565b8251845160009160ff908116911603610c6f578451845160ff91821691161115610c6757506002610c91565b506003610c91565b846020015160ff16846020015160ff161115610c8d57506001610c91565b5060005b6000859050600060098881548110610cab57610cab61437f565b906000526020600020906007020190505b8551825160ff9081169116148015610ce15750856020015160ff16826020015160ff16145b610d915760008381526002820160205260409020858015610d1d57506001815462010000900460ff166004811115610d1b57610d1b613c93565b145b80610d6857506002815462010000900460ff166004811115610d4157610d41613c93565b1480610d6857506003815462010000900460ff166004811115610d6657610d66613c93565b145b15610d7e57610d778484611c98565b9250610d8b565b6000945050505050610d99565b50610cbc565b600193505050505b949350505050565b6040805180820190915260008082526020820152610dbd613b31565b600181886000015160ff16600b8110610dd857610dd861437f565b6020020151886020015160ff16600b8110610df557610df561437f565b91151560209092020152610e07613b5f565b60408051600180825281830190925260009190829082816020015b6040805180820190915260008082526020820152815260200190600190039081610e225790505090508a81600081518110610e5f57610e5f61437f565b60209081029190910101528084525b6000610e7a84846143e0565b11156111c45760198210610e95578a955050505050506111cd565b6000848460198110610ea957610ea961437f565b6020020151905060008160018351610ec191906143e0565b81518110610ed157610ed161437f565b602002602001015190508480610ee6906143ab565b9550506000610ef78f838e8e612869565b905060005b60048110156111bb576000828260048110610f1957610f1961437f565b6020020151805190915060ff16158015610f385750602081015160ff16155b15610f4357506111a9565b80518a9060ff16600b8110610f5a57610f5a61437f565b6020020151816020015160ff16600b8110610f7757610f7761437f565b602002015115610f8757506111a9565b8e51815160ff9081169116148015610fac57508e6020015160ff16816020015160ff16145b1561100c578b85516001610fc091906143f3565b11610fd7578e9a50505050505050505050506111cd565b84610fe360018e6143e0565b81518110610ff357610ff361437f565b60200260200101519a50505050505050505050506111cd565b60018a826000015160ff16600b81106110275761102761437f565b6020020151826020015160ff16600b81106110445761104461437f565b91151560209092020152845160009061105e9060016143f3565b67ffffffffffffffff81111561107657611076613ea6565b6040519080825280602002602001820160405280156110bb57816020015b60408051808201909152600080825260208201528152602001906001900390816110945790505b50905060005b600182516110cf91906143e0565b811015611120578681815181106110e8576110e861437f565b60200260200101518282815181106111025761110261437f565b60200260200101819052508080611118906143ab565b9150506110c1565b5081816001835161113191906143e0565b815181106111415761114161437f565b6020026020010181905250808a896019811061115f5761115f61437f565b60200201528761116e816143ab565b985050601988036111a6578060008151811061118c5761118c61437f565b60200260200101519b5050505050505050505050506111cd565b50505b806111b3816143ab565b915050610efc565b50505050610e6e565b8a955050505050505b9695505050505050565b6000806111e486866143e0565b90506000836111f38684614406565b6111fd9190614433565b905061120987826143f3565b979650505050505050565b61121c613ac3565b60008281526007602052604090819020815160a081019092528054829060ff16600581111561124d5761124d613c93565b600581111561125e5761125e613c93565b81526001820154602082015260029091015460ff8082166040840152610100820481166060840152620100009091041615156080909101529392505050565b6003546001600160a01b031633146112b457600080fd5b60005b600982815481106112ca576112ca61437f565b600091825260209091206003600790920201015460ff168110156113a6576002600983815481106112fd576112fd61437f565b600091825260208083208584526007929092029091016002019052604090205462010000900460ff16600481111561133757611337613c93565b03611394576001600983815481106113515761135161437f565b60009182526020808320858452600260079093020191909101905260409020805462ff000019166201000083600481111561138e5761138e613c93565b02179055505b8061139e816143ab565b9150506112b7565b5050565b6003546001600160a01b03163314806113cd57506005546001600160a01b031633145b806113e257506006546001600160a01b031633145b61143d5760405162461bcd60e51b815260206004820152602160248201527f4e6f742067616d652f616374696f6e732f706c617965727320636f6e747261636044820152601d60fa1b60648201526084015b60405180910390fd5b6000600987815481106114525761145261437f565b600091825260208083208984526001600790930201820181526040808420898552909152918290208251608081019093520160048282826020028201915b81548152602001906001019080831161149057505050505090506000600988815481106114bf576114bf61437f565b906000526020600020906007020160020160008387600481106114e4576114e461437f565b602002015181526020019081526020016000209050838160000160026101000a81548160ff0219169083600481111561151f5761151f613c93565b0217905550821561154757805461ffff191661010060ff851690810260ff1916919091171781555b5050505050505050565b60008061155d85610b7e565b604080518281526020810187905290810185905290915085907f75b6a8325595f91135e07382840634226793c68c9e59623da7e10d7ad3d95b959060600160405180910390a2806001036115b557600091505061078a565b6003836115c286846143f3565b6115cc9190614447565b13156115dc57600191505061078a565b506000949350505050565b600080600983815481106115fd576115fd61437f565b906000526020600020906007020160050154600984815481106116225761162261437f565b90600052602060002090600702016006015491509150915091565b60008161164b846004614406565b61078a91906143f3565b606060006009838154811061166c5761166c61437f565b600091825260209091206003600790920201015460ff1667ffffffffffffffff81111561169b5761169b613ea6565b6040519080825280602002602001820160405280156116ed57816020015b6116da60408051606081018252600080825260208201819052909182015290565b8152602001906001900390816116b95790505b50905060005b8151811015610b77576009848154811061170f5761170f61437f565b6000918252602080832084845260026007909302019190910181526040918290208251606081018452815460ff8082168352610100820481169483019490945290939192918401916201000090910416600481111561177057611770613c93565b600481111561178157611781613c93565b815250508282815181106117975761179761437f565b602002602001018190525080806117ad906143ab565b9150506116f3565b6117d660408051606081018252600080825260208201819052909182015290565b6000600986815481106117eb576117eb61437f565b600091825260208083208884526001600790930201820181526040808420888552909152918290208251608081019093520160048282826020028201915b8154815260200190600101908083116118295750505050509050600986815481106118565761185661437f565b9060005260206000209060070201600201600082856004811061187b5761187b61437f565b6020908102919091015182528181019290925260409081016000208151606081018352815460ff8082168352610100820481169583019590955290939192840191620100009091041660048111156118d5576118d5613c93565b60048111156118e6576118e6613c93565b9052509695505050505050565b6118fb612ab2565b6119056000612b0c565b565b6009818154811061191757600080fd5b600091825260209182902060036007909202019081015460408051808201909152600483015460ff818116835261010090910481169482019490945260058301546006909301549390911693509184565b6003546000906001600160a01b0316331461198257600080fd5b6000600986815481106119975761199761437f565b60009182526020808320888452600160079093020191909101815260408083208784529091529020905082156119db57805460ff191660ff84161790555080610d99565b805460ff16606319016119fd57805460ff191660129081179091559050610d99565b805460ff1660001901611a4c57611a3360098781548110611a2057611a2061437f565b9060005260206000209060070201612b5c565b815460ff191660ff919091169081179091559050610d99565b50600095945050505050565b600081600003611a6a57506001919050565b81600103611a7a57506000919050565b81600203611a8a57506003919050565b81600303611a9a57506002919050565b60405162461bcd60e51b815260206004820152600d60248201526c2130b2103234b932b1ba34b7b760991b6044820152606401611434565b6005546001600160a01b03163314611b2c5760405162461bcd60e51b815260206004820181905260248201527f4e6f7420616374696f6e7320636f6e7472616374202d207365744c6f6f7465646044820152606401611434565b600160098481548110611b4157611b4161437f565b6000918252602080832095835260016007909202909501018452604080822093825292909352912060050180549115156101000261ff001990921691909117905550565b6060600060085467ffffffffffffffff811115611ba457611ba4613ea6565b604051908082528060200260200182016040528015611bdd57816020015b611bca613ac3565b815260200190600190039081611bc25790505b50905060005b8151811015610b775760008181526007602052604090819020815160a081019092528054829060ff166005811115611c1d57611c1d613c93565b6005811115611c2e57611c2e613c93565b81526001820154602082015260029091015460ff8082166040840152610100820481166060840152620100009091041615156080909101528251839083908110611c7a57611c7a61437f565b60200260200101819052508080611c90906143ab565b915050611be3565b604080518082019091526000808252602082015282600003611cea57604051806040016040528060018460000151611cd09190614467565b60ff168152602001836020015160ff1681525090506107ab565b82600103611d0e57604051806040016040528083600001516001611cd09190614480565b82600203611d4b576040518060400160405280836000015160ff16815260200183602001516001611d3f9190614480565b60ff16905290506107ab565b82600303611d7c576040518060400160405280836000015160ff16815260200160018460200151611d3f9190614467565b6000611d8784612c8e565b604051602001611d9791906144bd565b60405160208183030381529060405290508060405162461bcd60e51b815260040161143491906144f8565b600080826001611dd386600261460f565b611ddd91906143e0565b901b8516831c9150509392505050565b611df5612ab2565b8060098581548110611e0957611e0961437f565b60009182526020808320968352600791909102909501600101855260408082209482529390945291909220805460ff191660ff9092169190911790555050565b6003546001600160a01b03163314611e6057600080fd5b611e68613b31565b60005b828110156121a05760005b600b811015611f2b5760005b600b811015611f185760098681548110611e9e57611e9e61437f565b60009182526020808320858452600792909202909101600101815260408083208484529091529020600501546301000000900460ff168483600b8110611ee657611ee661437f565b602002015182600b8110611efc57611efc61437f565b9115156020909202015280611f10816143ab565b915050611e82565b5080611f23816143ab565b915050611e76565b5060005b600b81101561218d5760005b600b81101561217a578382600b8110611f5657611f5661437f565b602002015181600b8110611f6c57611f6c61437f565b6020020151156121685760005b600481101561216657600060098881548110611f9757611f9761437f565b600091825260208083208784526001600790930201820181526040808420878552909152909120018260048110611fd057611fd061437f565b01549050600060098981548110611fe957611fe961437f565b600091825260208083208584526007929092029091016002019052604090205462010000900460ff169050600381600481111561202857612028613c93565b036121515784158015612039575082155b15612045575050612154565b6120516001600b6143e0565b8514801561205f5750826001145b1561206b575050612154565b831580156120795750826003145b15612085575050612154565b6120916001600b6143e0565b8414801561209f5750826002145b156120ab575050612154565b60006120d18460405180604001604052808960ff1681526020018860ff16815250611c98565b9050600060098b815481106120e8576120e861437f565b60009182526020808320855160ff908116855260079390930201600101815260408084208683015184168552909152909120805490925016158015906121335750805460ff16600214155b1561214e5760058101805463ff000000191663010000001790555b50505b50505b8061215e816143ab565b915050611f79565b505b80612172816143ab565b915050611f3b565b5080612185816143ab565b915050611f2f565b5080612198816143ab565b915050611e6b565b50505050565b6000600984815481106121bb576121bb61437f565b6000918252602080832095835260079190910290940160010184526040808220938252929093525090205460ff16919050565b60018054600091826121ff836143ab565b919050555060003360015460014361221791906143e0565b60405160609390931b6bffffffffffffffffffffffff19166020840152603483019190915240605482015260740160408051601f1981840301815291905280516020909101209050600061226b8585614467565b612276906001614480565b90508460ff168160ff168361228b919061461b565b61229591906143f3565b95945050505050565b6122a6612ab2565b600380546001600160a01b038088166001600160a01b031992831617909255600480548684169083161790556005805485841690831617905560068054928416929091169190911790556122f8612d8f565b6008555050505050565b6003546000906001600160a01b0316331461231c57600080fd5b6009805460018101825560008290526040805161034081018252600381526004602082015260059181019190915260066060820152600760808201819052600860a083015260c0820193909352600a60e0820152600b610100820152600c610120820152600d610140820152600e610160820152600f61018082015260106101a082015260116101c082015260136101e08201526014610200820152601561022082015260166102408201526017610260820152601861028082015260196102a0820152601a6102c08201819052601b6102e0830152601c610300830152601d610320830152929091027f6e1540171b6c0c960b71a7020d9f60077f6af931a8bbf590da0223dacf75c7af01916124369083908390613b87565b506040805160608101825260ff808252602082015290810160009052600383015460ff9081166000908152600285016020908152604091829020845181549286015185166101000261ffff19909316941693909317178083559083015190829062ff00001916620100008360048111156124b2576124b2613c93565b0217905550505060038201805460ff169060006124ce8361462f565b82546101009290920a60ff8181021990931691909216919091021790555060408051808201909152600a8152600660209091015260048201805461ffff191661060a17905561251c82612f0d565b612525826137d4565b600954612534906001906143e0565b9250505090565b60008061255b836000015160000b856000015160000b61031b9190614447565b9050600061257c846020015160000b866020015160000b61031b9190614447565b905061229581836143f3565b612590612ab2565b6001600160a01b0381166125f55760405162461bcd60e51b815260206004820152602660248201527f4f776e61626c653a206e6577206f776e657220697320746865207a65726f206160448201526564647265737360d01b6064820152608401611434565b6125fe81612b0c565b50565b612609613b12565b6009848154811061261c5761261c61437f565b600091825260208083208684526001600790930201820181526040808420868552825292839020835160e081018552815460ff808216835261010090910416928101929092528351608081018552919390929084019190830160048282826020028201915b8154815260200190600101908083116126815750505091835250506005919091015460ff8082161515602084015261010082048116151560408401526201000082048116151560608401526301000000909104161515608090910152949350505050565b805182516000916126f59161464e565b60000b600103612707575060006107ab565b81518351612715919061464e565b60000b19612725575060016107ab565b81602001518360200151612739919061464e565b60000b19612749575060026107ab565b8160200151836020015161275d919061464e565b60000b60010361276f575060036107ab565b60405162461bcd60e51b8152602060048201526013602482015272115c9c9bdc8e88139bdd0818591a9858d95b9d606a1b6044820152606401611434565b6006546001600160a01b031633146127fd5760405162461bcd60e51b8152602060048201526013602482015272139bdd081c1b185e595c8818dbdb9d1c9858dd606a1b6044820152606401611434565b80600985815481106128115761281161437f565b600091825260208083209683526001600790920290960101855260408082209482529390945291909220600501805491151563010000000263ff000000199092169190911790555050565b6060600061078a83613a67565b612871613bce565b612879613bce565b60005b60048110156108ec5760006128918288611c98565b90506000600989815481106128a8576128a861437f565b600091825260208083208b5160ff9081168552600160079094029091018301825260408085208d840151909216855291529091200183600481106128ee576128ee61437f565b01549050600060098a815481106129075761290761437f565b6000918252602080832085845260026007909302018201905260409091209150815462010000900460ff16600481111561294357612943613c93565b148061296a57506003815462010000900460ff16600481111561296857612968613c93565b145b8061299857506001815462010000900460ff16600481111561298e5761298e613c93565b1480156129985750875b80612a4e5750868015612a4e575060098a815481106129b9576129b961437f565b600091825260208083208c5160ff908116855260079390930201600101815260408084208d8301518416855290915290912060050154620100009004168015612a4e575060098a81548110612a1057612a1061437f565b60009182526020808320865160ff90811685526007939093020160010181526040808420878301518416855290915290912060050154620100009004165b15612a705782858560048110612a6657612a6661437f565b6020020152612a9c565b6040805180820190915260008082526020820152858560048110612a9657612a9661437f565b60200201525b5050508080612aaa906143ab565b91505061287c565b6000546001600160a01b031633146119055760405162461bcd60e51b815260206004820181905260248201527f4f776e61626c653a2063616c6c6572206973206e6f7420746865206f776e65726044820152606401611434565b600080546001600160a01b038381166001600160a01b0319831681178455604051919092169283917f8be0079c531659141344cd1fd0a4f28419497f9722a3daafe3b4186f6b6457e09190a35050565b80546000908190612b6f906001906143e0565b90505b8015612c2b576000612b856000836121ee565b9050836000018160ff1681548110612b9f57612b9f61437f565b9060005260206000200154846000018381548110612bbf57612bbf61437f565b9060005260206000200154856000018481548110612bdf57612bdf61437f565b906000526020600020016000876000018560ff1681548110612c0357612c0361437f565b6000918252602090912001929092559190915550819050612c238161466f565b915050612b72565b5081546000908390612c3f906001906143e0565b81548110612c4f57612c4f61437f565b9060005260206000200154905082600001805480612c6f57612c6f614686565b6001900381819060005260206000200160009055905580915050919050565b606081600003612cb55750506040805180820190915260018152600360fc1b602082015290565b8160005b8115612cdf5780612cc9816143ab565b9150612cd89050600a83614433565b9150612cb9565b60008167ffffffffffffffff811115612cfa57612cfa613ea6565b6040519080825280601f01601f191660200182016040528015612d24576020820181803683370190505b5090505b8415610d9957612d396001836143e0565b9150612d46600a8661461b565b612d519060306143f3565b60f81b818381518110612d6657612d6661437f565b60200101906001600160f81b031916908160001a905350612d88600a86614433565b9450612d28565b60048054604080516338fdf0bd60e01b8152905160009384936001600160a01b0316926338fdf0bd92818301926020928290030181865afa158015612dd8573d6000803e3d6000fd5b505050506040513d601f19601f82011682018060405250810190612dfc919061469c565b905060005b81811015612f07576004805460405163413a9f5f60e11b81529182018390526001600160a01b0316906382753ebe9060240160a060405180830381865afa158015612e50573d6000803e3d6000fd5b505050506040513d601f19601f82011682018060405250810190612e7491906146b5565b600082815260076020526040902081518154829060ff19166001836005811115612ea057612ea0613c93565b02179055506020820151600182015560408201516002909101805460608401516080909401511515620100000262ff00001960ff9586166101000261ffff199093169590941694909417179190911691909117905580612eff816143ab565b915050612e01565b50919050565b6000806002600854612f1f91906143e0565b905060016000612f2d613b31565b6004860154600190829060ff16600b8110612f4a57612f4a61437f565b60200201516004880154610100900460ff16600b8110612f6c57612f6c61437f565b91151560209092020152612f7e613c07565b60408051808201909152600488015460ff80821683526101009091041660208201528187601e8110612fb257612fb261437f565b602002015285612fc1816143ab565b9650505b600085118015612fd55750600086115b1561374857600081612fe86001896143e0565b601e8110612ff857612ff861437f565b60200201519050866130098161466f565b9750508187601e811061301e5761301e61437f565b602002016130456040518060400160405280600060ff168152602001600060ff1681525090565b9052856130518161466f565b965050848061305f9061466f565b825160ff908116600090815260018c810160209081526040808420828901519095168452939052918120805460ff1916909217909155909650602191506130a79060636121ee565b60ff1610156130ea57805160ff908116600090815260018a016020908152604080832082860151909416835292905220600501805462ff00001916620100001790555b600060405180608001604052806000815260200160018152602001600281526020016003815250905060006001600461312391906143e0565b90505b80156131b35760006131396000836121ee565b9050828160ff16600481106131505761315061437f565b60200201518383600481106131675761316761437f565b602002015184846004811061317e5761317e61437f565b60200201858460ff16600481106131975761319761437f565b60200201919091525250806131ab8161466f565b915050613126565b5060005b60048110156137405782516020840151600091820b910b8383600481106131e0576131e061437f565b60200201516000036131fe57816131f681614756565b925050613282565b8383600481106132105761321061437f565b602002015160010361322657816131f68161476b565b8383600481106132385761323861437f565b6020020151600203613256578061324e8161476b565b915050613282565b8383600481106132685761326861437f565b6020020151600303613282578061327e81614756565b9150505b60018212806132915750600181125b806132a657506132a36002600b6143e0565b82135b806132bb57506132b86002600b6143e0565b81135b156132c757505061372e565b6040805180820190915260ff80841680835290831660208301528890600b81106132f3576132f361437f565b6020020151816020015160ff16600b81106133105761331061437f565b6020020151158061337157508c6001016000876000015160ff1681526020019081526020016000206000876020015160ff16815260200190815260200160002060010161335d87836126e5565b6004811061336d5761336d61437f565b0154155b1561372a5789158061339a57506133898960426143e0565b613395600060636121ee565b60ff16105b156137255760405180606001604052806133b6600060046121ee565b60ff1681526020016133ca600060046121ee565b60ff16815260200160018152508d60020160008f60030160009054906101000a900460ff1660ff16815260200190815260200160002060008201518160000160006101000a81548160ff021916908360ff16021790555060208201518160000160016101000a81548160ff021916908360ff16021790555060408201518160000160026101000a81548160ff0219169083600481111561346c5761346c613c93565b0217905550505060038d015460ff908116600090815260028f01602052604081205490911690036134bf5760038d015460ff16600090815260028e0160205260409020805462ff00001916620300001790555b60038d01805460ff169060006134d48361462f565b91906101000a81548160ff021916908360ff160217905550506016896134fa91906143f3565b9850604289111561350a57604298505b8051889060ff16600b81106135215761352161437f565b6020020151816020015160ff16600b811061353e5761353e61437f565b602002015115156000036135c25780878d601e811061355f5761355f61437f565b60200201528b61356e816143ab565b9c5050898061357c906143ab565b9a5050600188826000015160ff16600b811061359a5761359a61437f565b6020020151826020015160ff16600b81106135b7576135b761437f565b911515602090920201525b8c6001016000876000015160ff1681526020019081526020016000206000876020015160ff16815260200190815260200160002060010185856004811061360b5761360b61437f565b6020020151600481106136205761362061437f565b01546000036137205760038d015461363d9060019060ff16614467565b60ff168d6001016000886000015160ff1681526020019081526020016000206000886020015160ff1681526020019081526020016000206001018686600481106136895761368961437f565b60200201516004811061369e5761369e61437f565b015560038d01546136b49060019060ff16614467565b60ff168d6001016000836000015160ff1681526020019081526020016000206000836020015160ff16815260200190815260200160002060010161370d8787600481106137035761370361437f565b6020020151611a58565b6004811061371d5761371d61437f565b01555b61372a565b600098505b5050505b80613738816143ab565b9150506131b7565b505050612fc5565b60048701805460ff80821660009081526001808c016020818152604080852061010097889004871686528252808520805460ff1916600290811790915597548087168652928252808520969092049094168352938352838220600501805462ff000019908116909155908252938b01909152208054600392166201000083021790555050505050505050565b6000805b600b811015613a625760005b600b811015613a4f576000828152600185016020908152604080832084845290915290205460ff1660001901613a3d578261381e816143ab565b9350508260050361385e57600082815260018501602090815260408083208484529091529020805460ff1916606417905560058401829055600684018190555b60005b6004811015613a3b5760008381526001808701602090815260408084208685529091529091200181600481106138995761389961437f565b0154600003613a29578260091480156138b25750816006145b613a295760006138dc8260405180604001604052808760ff1681526020018660ff16815250611c98565b805160ff90811660009081526001890160209081526040808320828601518516845290915290205491925016801580156139245750604261391f600060636121ee565b60ff16105b15613a26576040805160608101825260ff808252602082015290810160049052600388015460ff908116600090815260028a016020908152604091829020845181549286015185166101000261ffff19909316941693909317178083559083015190829062ff00001916620100008360048111156139a4576139a4613c93565b0217905550505060038701805460ff169060006139c08361462f565b82546101009290920a60ff81810219909316918316021790915560038901546139ed925060019116614467565b60008681526001808a016020908152604080842089855290915290912060ff9290921691018460048110613a2357613a2361437f565b01555b50505b80613a33816143ab565b915050613861565b505b80613a47816143ab565b9150506137e4565b5080613a5a816143ab565b9150506137d8565b505050565b606081600001805480602002602001604051908101604052809291908181526020018280548015613ab757602002820191906000526020600020905b815481526020019060010190808311613aa3575b50505050509050919050565b6040805160a081019091528060005b8152600060208201819052604082018190526060820181905260809091015290565b60405180608001604052806004906020820280368337509192915050565b6040805160e08101825260008082526020820152908101613ad2613af4565b604051806101600160405280600b905b613b49613c33565b815260200190600190039081613b415790505090565b6040518061032001604052806019905b6060815260200190600190039081613b6f5790505090565b828054828255906000526020600020908101928215613bc2579160200282015b82811115613bc2578251825591602001919060010190613ba7565b5061090e929150613c52565b60405180608001604052806004905b6040805180820190915260008082526020820152815260200190600190039081613bdd5790505090565b60408051610400810190915260006103c082018181526103e08301919091528152601d60208201613bdd565b604051806101600160405280600b906020820280368337509192915050565b5b8082111561090e5760008155600101613c53565b600080600060608486031215613c7c57600080fd5b505081359360208301359350604090920135919050565b634e487b7160e01b600052602160045260246000fd5b60068110613cb957613cb9613c93565b9052565b613cc8828251613ca9565b6020810151602083015260ff604082015116604083015260ff60608201511660608301526080810151151560808301525050565b60a081016107ab8284613cbd565b600060208284031215613d1c57600080fd5b5035919050565b6020808252825182820181905260009190848201906040850190845b81811015613d5b57835183529284019291840191600101613d3f565b50909695505050505050565b60808101818360005b6004811015613d915781511515835260209283019290910190600101613d70565b50505092915050565b60ff8151168252602060ff81830151168184015260408201516040840160005b6004811015613dd757825182529183019190830190600101613dba565b505050506060810151151560c0838101919091526080820151151560e084015260a082015115156101008401520151151561012090910152565b6000602080830181845280855180835260408601915060408160051b87010192508387016000805b83811015613e9857888603603f19018552825180518088529088019088880190845b81811015613e8257613e6e838551613d9a565b928a01926101409290920191600101613e5b565b5090975050509386019391860191600101613e39565b509398975050505050505050565b634e487b7160e01b600052604160045260246000fd5b60ff811681146125fe57600080fd5b600060408284031215613edd57600080fd5b6040516040810181811067ffffffffffffffff82111715613f0e57634e487b7160e01b600052604160045260246000fd5b6040529050808235613f1f81613ebc565b81526020830135613f2f81613ebc565b6020919091015292915050565b80151581146125fe57600080fd5b60008060008060c08587031215613f6057600080fd5b84359350613f718660208701613ecb565b9250613f808660608701613ecb565b915060a0850135613f9081613f3c565b939692955090935050565b6000806000806000806101008789031215613fb557600080fd5b86359550613fc68860208901613ecb565b9450613fd58860608901613ecb565b935060a0870135613fe581613f3c565b925060c0870135613ff581613f3c565b8092505060e087013590509295509295509295565b604081016107ab8284805160ff908116835260209182015116910152565b6000806000806080858703121561403e57600080fd5b5050823594602084013594506040840135936060013592509050565b6000806040838503121561406d57600080fd5b50508035926020909101359150565b60008060008060008060c0878903121561409557600080fd5b863595506020870135945060408701359350606087013592506080870135600581106140c057600080fd5b8092505060a087013590509295509295509295565b60ff815116825260ff60208201511660208301526040810151600581106140fe576140fe613c93565b806040840152505050565b6020808252825182820181905260009190848201906040850190845b81811015613d5b576141388385516140d5565b9284019260609290920191600101614125565b606081016107ab82846140d5565b60ff8516815260a081016141806020830186805160ff908116835260209182015116910152565b60608201939093526080015292915050565b6020808252825182820181905260009190848201906040850190845b81811015613d5b576141c1838551613cbd565b9284019260a092909201916001016141ae565b600080606083850312156141e757600080fd5b823591506141f88460208501613ecb565b90509250929050565b60a0810161420f8288613ca9565b85602083015260ff8516604083015260ff8416606083015282151560808301529695505050505050565b6000806040838503121561424c57600080fd5b823561425781613ebc565b9150602083013561426781613ebc565b809150509250929050565b80356001600160a01b038116811461428957600080fd5b919050565b600080600080600060a086880312156142a657600080fd5b6142af86614272565b94506142bd60208701614272565b93506142cb60408701614272565b92506142d960608701614272565b91506142e760808701614272565b90509295509295909350565b6000806080838503121561430657600080fd5b6143108484613ecb565b91506141f88460408501613ecb565b60006020828403121561433157600080fd5b61078a82614272565b61014081016107ab8284613d9a565b6000806000806080858703121561435f57600080fd5b8435935060208501359250604085013591506060850135613f9081613f3c565b634e487b7160e01b600052603260045260246000fd5b634e487b7160e01b600052601160045260246000fd5b6000600182016143bd576143bd614395565b5060010190565b6000600160ff1b82016143d9576143d9614395565b5060000390565b818103818111156107ab576107ab614395565b808201808211156107ab576107ab614395565b80820281158282048414176107ab576107ab614395565b634e487b7160e01b600052601260045260246000fd5b6000826144425761444261441d565b500490565b8181036000831280158383131683831282161715610b7757610b77614395565b60ff82811682821603908111156107ab576107ab614395565b60ff81811683821601908111156107ab576107ab614395565b60005b838110156144b457818101518382015260200161449c565b50506000910152565b72024b73b30b634b2103234b932b1ba34b7b71d1606d1b8152600082516144eb816013850160208701614499565b9190910160130192915050565b6020815260008251806020840152614517816040850160208701614499565b601f01601f19169190910160400192915050565b600181815b8085111561456657816000190482111561454c5761454c614395565b8085161561455957918102915b93841c9390800290614530565b509250929050565b60008261457d575060016107ab565b8161458a575060006107ab565b81600181146145a057600281146145aa576145c6565b60019150506107ab565b60ff8411156145bb576145bb614395565b50506001821b6107ab565b5060208310610133831016604e8410600b84101617156145e9575081810a6107ab565b6145f3838361452b565b806000190482111561460757614607614395565b029392505050565b600061078a838361456e565b60008261462a5761462a61441d565b500690565b600060ff821660ff810361464557614645614395565b60010192915050565b600082810b9082900b03607f198112607f821317156107ab576107ab614395565b60008161467e5761467e614395565b506000190190565b634e487b7160e01b600052603160045260246000fd5b6000602082840312156146ae57600080fd5b5051919050565b600060a082840312156146c757600080fd5b60405160a0810181811067ffffffffffffffff821117156146f857634e487b7160e01b600052604160045260246000fd5b60405282516006811061470a57600080fd5b815260208381015190820152604083015161472481613ebc565b6040820152606083015161473781613ebc565b6060820152608083015161474a81613f3c565b60808201529392505050565b6000600160ff1b820161467e5761467e614395565b60006001600160ff1b0182016143bd576143bd61439556fea2646970667358221220161c30e4cc754ad1ce094c4b656f7ae1aac319bfa217b0101697236bd800ce2864736f6c63430008110033",
  "devdoc": {
    "kind": "dev",
    "methods": {
      "owner()": {
        "details": "Returns the address of the current owner."
      },
      "renounceOwnership()": {
        "details": "Leaves the contract without owner. It will not be possible to call `onlyOwner` functions anymore. Can only be called by the current owner. NOTE: Renouncing ownership will leave the contract without an owner, thereby removing any functionality that is only available to the owner."
      },
      "transferOwnership(address)": {
        "details": "Transfers ownership of the contract to a new account (`newOwner`). Can only be called by the current owner."
      }
    },
    "version": 1
  },
  "userdoc": {
    "kind": "user",
    "methods": {},
    "version": 1
  },
  "storageLayout": {
    "storage": [
      {
        "astId": 7,
        "contract": "contracts/BCMaps.sol:Maps",
        "label": "_owner",
        "offset": 0,
        "slot": "0",
        "type": "t_address"
      },
      {
        "astId": 21561,
        "contract": "contracts/BCMaps.sol:Maps",
        "label": "TODO_randomSeed",
        "offset": 0,
        "slot": "1",
        "type": "t_uint256"
      },
      {
        "astId": 21566,
        "contract": "contracts/BCMaps.sol:Maps",
        "label": "gameToEventBlocks",
        "offset": 0,
        "slot": "2",
        "type": "t_mapping(t_uint256,t_struct(UintSet)3021_storage)"
      },
      {
        "astId": 16456,
        "contract": "contracts/BCMaps.sol:Maps",
        "label": "game",
        "offset": 0,
        "slot": "3",
        "type": "t_address"
      },
      {
        "astId": 16459,
        "contract": "contracts/BCMaps.sol:Maps",
        "label": "roomTiles",
        "offset": 0,
        "slot": "4",
        "type": "t_contract(RoomTileInterface)16450"
      },
      {
        "astId": 16461,
        "contract": "contracts/BCMaps.sol:Maps",
        "label": "actionsAddress",
        "offset": 0,
        "slot": "5",
        "type": "t_address"
      },
      {
        "astId": 16463,
        "contract": "contracts/BCMaps.sol:Maps",
        "label": "playersAddress",
        "offset": 0,
        "slot": "6",
        "type": "t_address"
      },
      {
        "astId": 16507,
        "contract": "contracts/BCMaps.sol:Maps",
        "label": "roomList",
        "offset": 0,
        "slot": "7",
        "type": "t_mapping(t_uint256,t_struct(RoomTile)21456_storage)"
      },
      {
        "astId": 16509,
        "contract": "contracts/BCMaps.sol:Maps",
        "label": "numRooms",
        "offset": 0,
        "slot": "8",
        "type": "t_uint256"
      },
      {
        "astId": 16513,
        "contract": "contracts/BCMaps.sol:Maps",
        "label": "maps",
        "offset": 0,
        "slot": "9",
        "type": "t_array(t_struct(Map)21383_storage)dyn_storage"
      }
    ],
    "types": {
      "t_address": {
        "encoding": "inplace",
        "label": "address",
        "numberOfBytes": "20"
      },
      "t_array(t_bytes32)dyn_storage": {
        "base": "t_bytes32",
        "encoding": "dynamic_array",
        "label": "bytes32[]",
        "numberOfBytes": "32"
      },
      "t_array(t_struct(Map)21383_storage)dyn_storage": {
        "base": "t_struct(Map)21383_storage",
        "encoding": "dynamic_array",
        "label": "struct BCTypes.Map[]",
        "numberOfBytes": "32"
      },
      "t_array(t_uint256)4_storage": {
        "base": "t_uint256",
        "encoding": "inplace",
        "label": "uint256[4]",
        "numberOfBytes": "128"
      },
      "t_array(t_uint256)dyn_storage": {
        "base": "t_uint256",
        "encoding": "dynamic_array",
        "label": "uint256[]",
        "numberOfBytes": "32"
      },
      "t_bool": {
        "encoding": "inplace",
        "label": "bool",
        "numberOfBytes": "1"
      },
      "t_bytes32": {
        "encoding": "inplace",
        "label": "bytes32",
        "numberOfBytes": "32"
      },
      "t_contract(RoomTileInterface)16450": {
        "encoding": "inplace",
        "label": "contract RoomTileInterface",
        "numberOfBytes": "20"
      },
      "t_enum(BCEventType)21239": {
        "encoding": "inplace",
        "label": "enum BCTypes.BCEventType",
        "numberOfBytes": "1"
      },
      "t_enum(DoorStatus)21215": {
        "encoding": "inplace",
        "label": "enum BCTypes.DoorStatus",
        "numberOfBytes": "1"
      },
      "t_mapping(t_bytes32,t_uint256)": {
        "encoding": "mapping",
        "key": "t_bytes32",
        "label": "mapping(bytes32 => uint256)",
        "numberOfBytes": "32",
        "value": "t_uint256"
      },
      "t_mapping(t_uint256,t_mapping(t_uint256,t_struct(GameTile)21350_storage))": {
        "encoding": "mapping",
        "key": "t_uint256",
        "label": "mapping(uint256 => mapping(uint256 => struct BCTypes.GameTile))",
        "numberOfBytes": "32",
        "value": "t_mapping(t_uint256,t_struct(GameTile)21350_storage)"
      },
      "t_mapping(t_uint256,t_struct(Door)21358_storage)": {
        "encoding": "mapping",
        "key": "t_uint256",
        "label": "mapping(uint256 => struct BCTypes.Door)",
        "numberOfBytes": "32",
        "value": "t_struct(Door)21358_storage"
      },
      "t_mapping(t_uint256,t_struct(GameTile)21350_storage)": {
        "encoding": "mapping",
        "key": "t_uint256",
        "label": "mapping(uint256 => struct BCTypes.GameTile)",
        "numberOfBytes": "32",
        "value": "t_struct(GameTile)21350_storage"
      },
      "t_mapping(t_uint256,t_struct(RoomTile)21456_storage)": {
        "encoding": "mapping",
        "key": "t_uint256",
        "label": "mapping(uint256 => struct BCTypes.RoomTile)",
        "numberOfBytes": "32",
        "value": "t_struct(RoomTile)21456_storage"
      },
      "t_mapping(t_uint256,t_struct(UintSet)3021_storage)": {
        "encoding": "mapping",
        "key": "t_uint256",
        "label": "mapping(uint256 => struct EnumerableSet.UintSet)",
        "numberOfBytes": "32",
        "value": "t_struct(UintSet)3021_storage"
      },
      "t_struct(Door)21358_storage": {
        "encoding": "inplace",
        "label": "struct BCTypes.Door",
        "members": [
          {
            "astId": 21352,
            "contract": "contracts/BCMaps.sol:Maps",
            "label": "vsBreach",
            "offset": 0,
            "slot": "0",
            "type": "t_uint8"
          },
          {
            "astId": 21354,
            "contract": "contracts/BCMaps.sol:Maps",
            "label": "vsHack",
            "offset": 1,
            "slot": "0",
            "type": "t_uint8"
          },
          {
            "astId": 21357,
            "contract": "contracts/BCMaps.sol:Maps",
            "label": "status",
            "offset": 2,
            "slot": "0",
            "type": "t_enum(DoorStatus)21215"
          }
        ],
        "numberOfBytes": "32"
      },
      "t_struct(GameTile)21350_storage": {
        "encoding": "inplace",
        "label": "struct BCTypes.GameTile",
        "members": [
          {
            "astId": 21335,
            "contract": "contracts/BCMaps.sol:Maps",
            "label": "roomId",
            "offset": 0,
            "slot": "0",
            "type": "t_uint8"
          },
          {
            "astId": 21337,
            "contract": "contracts/BCMaps.sol:Maps",
            "label": "parentId",
            "offset": 1,
            "slot": "0",
            "type": "t_uint8"
          },
          {
            "astId": 21341,
            "contract": "contracts/BCMaps.sol:Maps",
            "label": "doors",
            "offset": 0,
            "slot": "1",
            "type": "t_array(t_uint256)4_storage"
          },
          {
            "astId": 21343,
            "contract": "contracts/BCMaps.sol:Maps",
            "label": "explored",
            "offset": 0,
            "slot": "5",
            "type": "t_bool"
          },
          {
            "astId": 21345,
            "contract": "contracts/BCMaps.sol:Maps",
            "label": "looted",
            "offset": 1,
            "slot": "5",
            "type": "t_bool"
          },
          {
            "astId": 21347,
            "contract": "contracts/BCMaps.sol:Maps",
            "label": "hasVent",
            "offset": 2,
            "slot": "5",
            "type": "t_bool"
          },
          {
            "astId": 21349,
            "contract": "contracts/BCMaps.sol:Maps",
            "label": "hasHazard",
            "offset": 3,
            "slot": "5",
            "type": "t_bool"
          }
        ],
        "numberOfBytes": "192"
      },
      "t_struct(Map)21383_storage": {
        "encoding": "inplace",
        "label": "struct BCTypes.Map",
        "members": [
          {
            "astId": 21361,
            "contract": "contracts/BCMaps.sol:Maps",
            "label": "unusedNormalRooms",
            "offset": 0,
            "slot": "0",
            "type": "t_array(t_uint256)dyn_storage"
          },
          {
            "astId": 21368,
            "contract": "contracts/BCMaps.sol:Maps",
            "label": "board",
            "offset": 0,
            "slot": "1",
            "type": "t_mapping(t_uint256,t_mapping(t_uint256,t_struct(GameTile)21350_storage))"
          },
          {
            "astId": 21373,
            "contract": "contracts/BCMaps.sol:Maps",
            "label": "doors",
            "offset": 0,
            "slot": "2",
            "type": "t_mapping(t_uint256,t_struct(Door)21358_storage)"
          },
          {
            "astId": 21375,
            "contract": "contracts/BCMaps.sol:Maps",
            "label": "numDoors",
            "offset": 0,
            "slot": "3",
            "type": "t_uint8"
          },
          {
            "astId": 21378,
            "contract": "contracts/BCMaps.sol:Maps",
            "label": "startPosition",
            "offset": 0,
            "slot": "4",
            "type": "t_struct(Position)21333_storage"
          },
          {
            "astId": 21380,
            "contract": "contracts/BCMaps.sol:Maps",
            "label": "mainReactorRow",
            "offset": 0,
            "slot": "5",
            "type": "t_uint256"
          },
          {
            "astId": 21382,
            "contract": "contracts/BCMaps.sol:Maps",
            "label": "mainReactorCol",
            "offset": 0,
            "slot": "6",
            "type": "t_uint256"
          }
        ],
        "numberOfBytes": "224"
      },
      "t_struct(Position)21333_storage": {
        "encoding": "inplace",
        "label": "struct BCTypes.Position",
        "members": [
          {
            "astId": 21330,
            "contract": "contracts/BCMaps.sol:Maps",
            "label": "row",
            "offset": 0,
            "slot": "0",
            "type": "t_uint8"
          },
          {
            "astId": 21332,
            "contract": "contracts/BCMaps.sol:Maps",
            "label": "col",
            "offset": 1,
            "slot": "0",
            "type": "t_uint8"
          }
        ],
        "numberOfBytes": "32"
      },
      "t_struct(RoomTile)21456_storage": {
        "encoding": "inplace",
        "label": "struct BCTypes.RoomTile",
        "members": [
          {
            "astId": 21447,
            "contract": "contracts/BCMaps.sol:Maps",
            "label": "eventType",
            "offset": 0,
            "slot": "0",
            "type": "t_enum(BCEventType)21239"
          },
          {
            "astId": 21449,
            "contract": "contracts/BCMaps.sol:Maps",
            "label": "eventNum",
            "offset": 0,
            "slot": "1",
            "type": "t_uint256"
          },
          {
            "astId": 21451,
            "contract": "contracts/BCMaps.sol:Maps",
            "label": "numItems",
            "offset": 0,
            "slot": "2",
            "type": "t_uint8"
          },
          {
            "astId": 21453,
            "contract": "contracts/BCMaps.sol:Maps",
            "label": "numData",
            "offset": 1,
            "slot": "2",
            "type": "t_uint8"
          },
          {
            "astId": 21455,
            "contract": "contracts/BCMaps.sol:Maps",
            "label": "sigDetected",
            "offset": 2,
            "slot": "2",
            "type": "t_bool"
          }
        ],
        "numberOfBytes": "96"
      },
      "t_struct(Set)2563_storage": {
        "encoding": "inplace",
        "label": "struct EnumerableSet.Set",
        "members": [
          {
            "astId": 2558,
            "contract": "contracts/BCMaps.sol:Maps",
            "label": "_values",
            "offset": 0,
            "slot": "0",
            "type": "t_array(t_bytes32)dyn_storage"
          },
          {
            "astId": 2562,
            "contract": "contracts/BCMaps.sol:Maps",
            "label": "_indexes",
            "offset": 0,
            "slot": "1",
            "type": "t_mapping(t_bytes32,t_uint256)"
          }
        ],
        "numberOfBytes": "64"
      },
      "t_struct(UintSet)3021_storage": {
        "encoding": "inplace",
        "label": "struct EnumerableSet.UintSet",
        "members": [
          {
            "astId": 3020,
            "contract": "contracts/BCMaps.sol:Maps",
            "label": "_inner",
            "offset": 0,
            "slot": "0",
            "type": "t_struct(Set)2563_storage"
          }
        ],
        "numberOfBytes": "64"
      },
      "t_uint256": {
        "encoding": "inplace",
        "label": "uint256",
        "numberOfBytes": "32"
      },
      "t_uint8": {
        "encoding": "inplace",
        "label": "uint8",
        "numberOfBytes": "1"
      }
    }
  }
}