{
  "address": "0x73925fA61aC361543480ea46f0a5920f110bd1D1",
  "abi": [
    {
      "anonymous": false,
      "inputs": [
        {
          "indexed": true,
          "internalType": "address",
          "name": "previousOwner",
          "type": "address"
        },
        {
          "indexed": true,
          "internalType": "address",
          "name": "newOwner",
          "type": "address"
        }
      ],
      "name": "OwnershipTransferred",
      "type": "event"
    },
    {
      "inputs": [],
      "name": "actionsAddress",
      "outputs": [
        {
          "internalType": "address",
          "name": "",
          "type": "address"
        }
      ],
      "stateMutability": "view",
      "type": "function"
    },
    {
      "inputs": [],
      "name": "createMap",
      "outputs": [
        {
          "internalType": "uint256",
          "name": "",
          "type": "uint256"
        }
      ],
      "stateMutability": "nonpayable",
      "type": "function"
    },
    {
      "inputs": [
        {
          "internalType": "uint256",
          "name": "_roomId",
          "type": "uint256"
        }
      ],
      "name": "debugBuildMapOneRoom",
      "outputs": [
        {
          "internalType": "uint256",
          "name": "",
          "type": "uint256"
        }
      ],
      "stateMutability": "nonpayable",
      "type": "function"
    },
    {
      "inputs": [
        {
          "internalType": "uint256",
          "name": "_mapId",
          "type": "uint256"
        },
        {
          "internalType": "uint256",
          "name": "_row",
          "type": "uint256"
        },
        {
          "internalType": "uint256",
          "name": "_col",
          "type": "uint256"
        },
        {
          "internalType": "uint256",
          "name": "_roomId",
          "type": "uint256"
        }
      ],
      "name": "debugForceRoomId",
      "outputs": [],
      "stateMutability": "nonpayable",
      "type": "function"
    },
    {
      "inputs": [
        {
          "internalType": "uint256",
          "name": "_mapId",
          "type": "uint256"
        },
        {
          "internalType": "uint256",
          "name": "_row",
          "type": "uint256"
        },
        {
          "internalType": "uint256",
          "name": "_col",
          "type": "uint256"
        }
      ],
      "name": "discoverRoom",
      "outputs": [
        {
          "internalType": "uint256",
          "name": "",
          "type": "uint256"
        }
      ],
      "stateMutability": "nonpayable",
      "type": "function"
    },
    {
      "inputs": [
        {
          "internalType": "uint256",
          "name": "_mapId",
          "type": "uint256"
        }
      ],
      "name": "extGetBoard",
      "outputs": [
        {
          "components": [
            {
              "internalType": "uint8",
              "name": "roomId",
              "type": "uint8"
            },
            {
              "internalType": "uint8",
              "name": "parentId",
              "type": "uint8"
            },
            {
              "internalType": "uint256[4]",
              "name": "doors",
              "type": "uint256[4]"
            },
            {
              "internalType": "bool",
              "name": "explored",
              "type": "bool"
            },
            {
              "internalType": "bool",
              "name": "looted",
              "type": "bool"
            },
            {
              "internalType": "bool",
              "name": "hasVent",
              "type": "bool"
            },
            {
              "internalType": "bool",
              "name": "hasHazard",
              "type": "bool"
            }
          ],
          "internalType": "struct BCTypes.GameTile[][]",
          "name": "",
          "type": "tuple[][]"
        }
      ],
      "stateMutability": "view",
      "type": "function"
    },
    {
      "inputs": [
        {
          "internalType": "uint256",
          "name": "_mapId",
          "type": "uint256"
        }
      ],
      "name": "extGetDoors",
      "outputs": [
        {
          "components": [
            {
              "internalType": "uint8",
              "name": "vsBreach",
              "type": "uint8"
            },
            {
              "internalType": "uint8",
              "name": "vsHack",
              "type": "uint8"
            },
            {
              "internalType": "enum BCTypes.DoorStatus",
              "name": "status",
              "type": "uint8"
            }
          ],
          "internalType": "struct BCTypes.Door[]",
          "name": "",
          "type": "tuple[]"
        }
      ],
      "stateMutability": "view",
      "type": "function"
    },
    {
      "inputs": [
        {
          "internalType": "uint256",
          "name": "_mapId",
          "type": "uint256"
        },
        {
          "internalType": "uint256",
          "name": "_row",
          "type": "uint256"
        },
        {
          "internalType": "uint256",
          "name": "_col",
          "type": "uint256"
        }
      ],
      "name": "extGetGameTile",
      "outputs": [
        {
          "components": [
            {
              "internalType": "uint8",
              "name": "roomId",
              "type": "uint8"
            },
            {
              "internalType": "uint8",
              "name": "parentId",
              "type": "uint8"
            },
            {
              "internalType": "uint256[4]",
              "name": "doors",
              "type": "uint256[4]"
            },
            {
              "internalType": "bool",
              "name": "explored",
              "type": "bool"
            },
            {
              "internalType": "bool",
              "name": "looted",
              "type": "bool"
            },
            {
              "internalType": "bool",
              "name": "hasVent",
              "type": "bool"
            },
            {
              "internalType": "bool",
              "name": "hasHazard",
              "type": "bool"
            }
          ],
          "internalType": "struct BCTypes.GameTile",
          "name": "",
          "type": "tuple"
        }
      ],
      "stateMutability": "view",
      "type": "function"
    },
    {
      "inputs": [
        {
          "internalType": "uint256",
          "name": "_mapId",
          "type": "uint256"
        },
        {
          "internalType": "uint256",
          "name": "_row",
          "type": "uint256"
        },
        {
          "internalType": "uint256",
          "name": "_col",
          "type": "uint256"
        }
      ],
      "name": "extGetRoom",
      "outputs": [
        {
          "components": [
            {
              "internalType": "enum BCTypes.BCEventType",
              "name": "eventType",
              "type": "uint8"
            },
            {
              "internalType": "uint256",
              "name": "eventNum",
              "type": "uint256"
            },
            {
              "internalType": "uint8",
              "name": "numItems",
              "type": "uint8"
            },
            {
              "internalType": "uint8",
              "name": "numData",
              "type": "uint8"
            },
            {
              "internalType": "bool",
              "name": "sigDetected",
              "type": "bool"
            }
          ],
          "internalType": "struct BCTypes.RoomTile",
          "name": "",
          "type": "tuple"
        }
      ],
      "stateMutability": "view",
      "type": "function"
    },
    {
      "inputs": [
        {
          "internalType": "uint256",
          "name": "_mapId",
          "type": "uint256"
        },
        {
          "internalType": "uint256",
          "name": "_roomId",
          "type": "uint256"
        }
      ],
      "name": "extGetRoomById",
      "outputs": [
        {
          "components": [
            {
              "internalType": "enum BCTypes.BCEventType",
              "name": "eventType",
              "type": "uint8"
            },
            {
              "internalType": "uint256",
              "name": "eventNum",
              "type": "uint256"
            },
            {
              "internalType": "uint8",
              "name": "numItems",
              "type": "uint8"
            },
            {
              "internalType": "uint8",
              "name": "numData",
              "type": "uint8"
            },
            {
              "internalType": "bool",
              "name": "sigDetected",
              "type": "bool"
            }
          ],
          "internalType": "struct BCTypes.RoomTile",
          "name": "",
          "type": "tuple"
        }
      ],
      "stateMutability": "view",
      "type": "function"
    },
    {
      "inputs": [
        {
          "internalType": "uint256",
          "name": "_mapId",
          "type": "uint256"
        }
      ],
      "name": "extGetRoomList",
      "outputs": [
        {
          "components": [
            {
              "internalType": "enum BCTypes.BCEventType",
              "name": "eventType",
              "type": "uint8"
            },
            {
              "internalType": "uint256",
              "name": "eventNum",
              "type": "uint256"
            },
            {
              "internalType": "uint8",
              "name": "numItems",
              "type": "uint8"
            },
            {
              "internalType": "uint8",
              "name": "numData",
              "type": "uint8"
            },
            {
              "internalType": "bool",
              "name": "sigDetected",
              "type": "bool"
            }
          ],
          "internalType": "struct BCTypes.RoomTile[]",
          "name": "",
          "type": "tuple[]"
        }
      ],
      "stateMutability": "view",
      "type": "function"
    },
    {
      "inputs": [
        {
          "internalType": "uint256",
          "name": "_mapId",
          "type": "uint256"
        },
        {
          "internalType": "uint256",
          "name": "_row",
          "type": "uint256"
        },
        {
          "internalType": "uint256",
          "name": "_col",
          "type": "uint256"
        },
        {
          "internalType": "bool",
          "name": "_hasHazard",
          "type": "bool"
        }
      ],
      "name": "extSetHazardStatus",
      "outputs": [],
      "stateMutability": "nonpayable",
      "type": "function"
    },
    {
      "inputs": [
        {
          "internalType": "uint256",
          "name": "_mapId",
          "type": "uint256"
        },
        {
          "internalType": "uint256",
          "name": "_distance",
          "type": "uint256"
        }
      ],
      "name": "extSpreadHazards",
      "outputs": [],
      "stateMutability": "nonpayable",
      "type": "function"
    },
    {
      "inputs": [],
      "name": "game",
      "outputs": [
        {
          "internalType": "address",
          "name": "",
          "type": "address"
        }
      ],
      "stateMutability": "view",
      "type": "function"
    },
    {
      "inputs": [
        {
          "internalType": "uint256",
          "name": "_mapId",
          "type": "uint256"
        },
        {
          "internalType": "uint256",
          "name": "_row",
          "type": "uint256"
        },
        {
          "internalType": "uint256",
          "name": "_col",
          "type": "uint256"
        },
        {
          "internalType": "uint256",
          "name": "_direction",
          "type": "uint256"
        }
      ],
      "name": "getDoor",
      "outputs": [
        {
          "components": [
            {
              "internalType": "uint8",
              "name": "vsBreach",
              "type": "uint8"
            },
            {
              "internalType": "uint8",
              "name": "vsHack",
              "type": "uint8"
            },
            {
              "internalType": "enum BCTypes.DoorStatus",
              "name": "status",
              "type": "uint8"
            }
          ],
          "internalType": "struct BCTypes.Door",
          "name": "",
          "type": "tuple"
        }
      ],
      "stateMutability": "view",
      "type": "function"
    },
    {
      "inputs": [
        {
          "internalType": "uint256",
          "name": "",
          "type": "uint256"
        }
      ],
      "name": "maps",
      "outputs": [
        {
          "internalType": "uint8",
          "name": "numRooms",
          "type": "uint8"
        },
        {
          "internalType": "uint8",
          "name": "numDoors",
          "type": "uint8"
        },
        {
          "components": [
            {
              "internalType": "uint8",
              "name": "row",
              "type": "uint8"
            },
            {
              "internalType": "uint8",
              "name": "col",
              "type": "uint8"
            }
          ],
          "internalType": "struct BCTypes.Position",
          "name": "startPosition",
          "type": "tuple"
        }
      ],
      "stateMutability": "view",
      "type": "function"
    },
    {
      "inputs": [],
      "name": "owner",
      "outputs": [
        {
          "internalType": "address",
          "name": "",
          "type": "address"
        }
      ],
      "stateMutability": "view",
      "type": "function"
    },
    {
      "inputs": [],
      "name": "playersAddress",
      "outputs": [
        {
          "internalType": "address",
          "name": "",
          "type": "address"
        }
      ],
      "stateMutability": "view",
      "type": "function"
    },
    {
      "inputs": [],
      "name": "renounceOwnership",
      "outputs": [],
      "stateMutability": "nonpayable",
      "type": "function"
    },
    {
      "inputs": [
        {
          "internalType": "uint256",
          "name": "_mapId",
          "type": "uint256"
        }
      ],
      "name": "resetOpenDoors",
      "outputs": [],
      "stateMutability": "nonpayable",
      "type": "function"
    },
    {
      "inputs": [],
      "name": "roomTiles",
      "outputs": [
        {
          "internalType": "contract RoomTileInterface",
          "name": "",
          "type": "address"
        }
      ],
      "stateMutability": "view",
      "type": "function"
    },
    {
      "inputs": [
        {
          "internalType": "address",
          "name": "_gameAddress",
          "type": "address"
        },
        {
          "internalType": "address",
          "name": "_utilsAddress",
          "type": "address"
        },
        {
          "internalType": "address",
          "name": "_roomTilesAddress",
          "type": "address"
        },
        {
          "internalType": "address",
          "name": "_actionsAddress",
          "type": "address"
        },
        {
          "internalType": "address",
          "name": "_playersAddress",
          "type": "address"
        }
      ],
      "name": "setContractAddresses",
      "outputs": [],
      "stateMutability": "nonpayable",
      "type": "function"
    },
    {
      "inputs": [
        {
          "internalType": "uint256",
          "name": "_mapId",
          "type": "uint256"
        },
        {
          "internalType": "uint256",
          "name": "_row",
          "type": "uint256"
        },
        {
          "internalType": "uint256",
          "name": "_col",
          "type": "uint256"
        },
        {
          "internalType": "uint256",
          "name": "_direction",
          "type": "uint256"
        },
        {
          "internalType": "enum BCTypes.DoorStatus",
          "name": "_status",
          "type": "uint8"
        },
        {
          "internalType": "uint256",
          "name": "_strength",
          "type": "uint256"
        }
      ],
      "name": "setDoorFromPos",
      "outputs": [],
      "stateMutability": "nonpayable",
      "type": "function"
    },
    {
      "inputs": [
        {
          "internalType": "uint256",
          "name": "_mapId",
          "type": "uint256"
        },
        {
          "internalType": "uint256",
          "name": "_row",
          "type": "uint256"
        },
        {
          "internalType": "uint256",
          "name": "_col",
          "type": "uint256"
        }
      ],
      "name": "setLooted",
      "outputs": [],
      "stateMutability": "nonpayable",
      "type": "function"
    },
    {
      "inputs": [
        {
          "internalType": "address",
          "name": "newOwner",
          "type": "address"
        }
      ],
      "name": "transferOwnership",
      "outputs": [],
      "stateMutability": "nonpayable",
      "type": "function"
    },
    {
      "inputs": [],
      "name": "utils",
      "outputs": [
        {
          "internalType": "contract UtilsInterface",
          "name": "",
          "type": "address"
        }
      ],
      "stateMutability": "view",
      "type": "function"
    }
  ],
  "transactionHash": "0xa6c886da746006fa97638161ec24a5f950dd999682781d294fc050dde59a3772",
  "args": [],
  "numDeployments": 1,
  "solcInputHash": "97c307c62a7bbf4f8c4dd2c275488be4",
  "bytecode": "0x60806040523480156200001157600080fd5b5062000032620000266200003860201b60201c565b6200004060201b60201c565b62000104565b600033905090565b60008060009054906101000a900473ffffffffffffffffffffffffffffffffffffffff169050816000806101000a81548173ffffffffffffffffffffffffffffffffffffffff021916908373ffffffffffffffffffffffffffffffffffffffff1602179055508173ffffffffffffffffffffffffffffffffffffffff168173ffffffffffffffffffffffffffffffffffffffff167f8be0079c531659141344cd1fd0a4f28419497f9722a3daafe3b4186f6b6457e060405160405180910390a35050565b615f3d80620001146000396000f3fe608060405234801561001057600080fd5b506004361061018e5760003560e01c80637b45c0d4116100de578063c6b41b4511610097578063f2fde38b11610071578063f2fde38b146104ab578063f7157f64146104c7578063f9dfbfcb146104e5578063fe368d7a146105155761018e565b8063c6b41b4514610455578063e847ae1e14610471578063f01fc35a1461048d5761018e565b80637b45c0d41461039357806386e529d0146103b15780638af13fd2146103cd5780638da5cb5b146103fd578063b14ca5751461041b578063c3fe3e28146104375761018e565b806358308aa81161014b57806369568fd51161012557806369568fd5146102f75780636ea1dcd814610327578063715018a61461035757806375990a0e146103615761018e565b806358308aa8146102a157806359215223146102bd5780635a29638d146102d95761018e565b806302861c6c1461019357806303b414e4146101c35780631ef04416146101e1578063471b675914610211578063523814bc146102415780635805828314610271575b600080fd5b6101ad60048036038101906101a89190614889565b610531565b6040516101ba9190614a01565b60405180910390f35b6101cb610677565b6040516101d89190614a5d565b60405180910390f35b6101fb60048036038101906101f69190614a78565b61069d565b6040516102089190614d44565b60405180910390f35b61022b60048036038101906102269190614889565b610943565b6040516102389190614d75565b60405180910390f35b61025b60048036038101906102569190614a78565b610a79565b6040516102689190614d75565b60405180910390f35b61028b60048036038101906102869190614d90565b61156e565b6040516102989190614a01565b60405180910390f35b6102bb60048036038101906102b69190614a78565b611659565b005b6102d760048036038101906102d29190614df5565b6117df565b005b6102e1611a1c565b6040516102ee9190614ee1565b60405180910390f35b610311600480360381019061030c9190614a78565b611a42565b60405161031e9190615035565b60405180910390f35b610341600480360381019061033c9190615057565b611bce565b60405161034e9190615100565b60405180910390f35b61035f611d38565b005b61037b60048036038101906103769190614a78565b611d4c565b60405161038a93929190615159565b60405180910390f35b61039b611de4565b6040516103a89190614a5d565b60405180910390f35b6103cb60048036038101906103c69190614889565b611e0a565b005b6103e760048036038101906103e29190614a78565b611f02565b6040516103f491906152a7565b60405180910390f35b6104056120b3565b6040516104129190614a5d565b60405180910390f35b61043560048036038101906104309190615057565b6120dc565b005b61043f61214d565b60405161044c9190614a5d565b60405180910390f35b61046f600480360381019061046a9190614d90565b612173565b005b61048b600480360381019061048691906152f5565b612635565b005b610495612789565b6040516104a29190614d75565b60405180910390f35b6104c560048036038101906104c09190615370565b612970565b005b6104cf6129f3565b6040516104dc91906153be565b60405180910390f35b6104ff60048036038101906104fa9190614889565b612a19565b60405161050c919061546a565b60405180910390f35b61052f600480360381019061052a91906154b2565b612b67565b005b610539614656565b6007848154811061054d5761054c615519565b5b906000526020600020906007020160000160006007868154811061057457610573615519565b5b90600052602060002090600702016003016000868152602001908152602001600020600085815260200190815260200160002060000160009054906101000a900460ff1660ff1681526020019081526020016000206040518060a00160405290816000820160009054906101000a900460ff1660048111156105f9576105f86148dc565b5b600481111561060b5761060a6148dc565b5b8152602001600182015481526020016002820160009054906101000a900460ff1660ff1660ff1681526020016002820160019054906101000a900460ff1660ff1660ff1681526020016002820160029054906101000a900460ff16151515158152505090509392505050565b600560009054906101000a900473ffffffffffffffffffffffffffffffffffffffff1681565b60606000600b67ffffffffffffffff8111156106bc576106bb615548565b5b6040519080825280602002602001820160405280156106ef57816020015b60608152602001906001900390816106da5790505b50905060005b600b81101561078457600b67ffffffffffffffff81111561071957610718615548565b5b60405190808252806020026020018201604052801561075257816020015b61073f61469f565b8152602001906001900390816107375790505b5082828151811061076657610765615519565b5b6020026020010181905250808061077c906155a6565b9150506106f5565b5060005b600b8110156109395760005b600b81101561092557600785815481106107b1576107b0615519565b5b9060005260206000209060070201600301600083815260200190815260200160002060008281526020019081526020016000206040518060e00160405290816000820160009054906101000a900460ff1660ff1660ff1681526020016000820160019054906101000a900460ff1660ff1660ff16815260200160018201600480602002604051908101604052809291908260048015610865576020028201915b815481526020019060010190808311610851575b505050505081526020016005820160009054906101000a900460ff161515151581526020016005820160019054906101000a900460ff161515151581526020016005820160029054906101000a900460ff161515151581526020016005820160039054906101000a900460ff1615151515815250508383815181106108ed576108ec615519565b5b6020026020010151828151811061090757610906615519565b5b6020026020010181905250808061091d906155a6565b915050610794565b508080610931906155a6565b915050610788565b5080915050919050565b6000600160009054906101000a900473ffffffffffffffffffffffffffffffffffffffff1673ffffffffffffffffffffffffffffffffffffffff163373ffffffffffffffffffffffffffffffffffffffff161461099f57600080fd5b6000600785815481106109b5576109b4615519565b5b9060005260206000209060070201600301600085815260200190815260200160002060008481526020019081526020016000209050600160ff168160000160009054906101000a900460ff1660ff1603610a6c57610a3360078681548110610a2057610a1f615519565b5b9060005260206000209060070201612c5f565b8160000160006101000a81548160ff021916908360ff1602179055508060000160009054906101000a900460ff1660ff16915050610a72565b60009150505b9392505050565b6000600160009054906101000a900473ffffffffffffffffffffffffffffffffffffffff1673ffffffffffffffffffffffffffffffffffffffff163373ffffffffffffffffffffffffffffffffffffffff1614610ad557600080fd5b60006007600181600181540180825580915050039060005260206000209060070201905060048160010160006101000a81548160ff021916908360ff160217905550600360009054906101000a900473ffffffffffffffffffffffffffffffffffffffff1673ffffffffffffffffffffffffffffffffffffffff166382753ebe60006040518263ffffffff1660e01b8152600401610b739190615629565b60a060405180830381865afa158015610b90573d6000803e3d6000fd5b505050506040513d601f19601f82011682018060405250810190610bb491906157ad565b81600001600080815260200190815260200160002060008201518160000160006101000a81548160ff02191690836004811115610bf457610bf36148dc565b5b02179055506020820151816001015560408201518160020160006101000a81548160ff021916908360ff16021790555060608201518160020160016101000a81548160ff021916908360ff16021790555060808201518160020160026101000a81548160ff021916908315150217905550905050600360009054906101000a900473ffffffffffffffffffffffffffffffffffffffff1673ffffffffffffffffffffffffffffffffffffffff166382753ebe60016040518263ffffffff1660e01b8152600401610cc49190615815565b60a060405180830381865afa158015610ce1573d6000803e3d6000fd5b505050506040513d601f19601f82011682018060405250810190610d0591906157ad565b8160000160006001815260200190815260200160002060008201518160000160006101000a81548160ff02191690836004811115610d4657610d456148dc565b5b02179055506020820151816001015560408201518160020160006101000a81548160ff021916908360ff16021790555060608201518160020160016101000a81548160ff021916908360ff16021790555060808201518160020160026101000a81548160ff021916908315150217905550905050600360009054906101000a900473ffffffffffffffffffffffffffffffffffffffff1673ffffffffffffffffffffffffffffffffffffffff166382753ebe60026040518263ffffffff1660e01b8152600401610e16919061586b565b60a060405180830381865afa158015610e33573d6000803e3d6000fd5b505050506040513d601f19601f82011682018060405250810190610e5791906157ad565b8160000160006002815260200190815260200160002060008201518160000160006101000a81548160ff02191690836004811115610e9857610e976148dc565b5b02179055506020820151816001015560408201518160020160006101000a81548160ff021916908360ff16021790555060608201518160020160016101000a81548160ff021916908360ff16021790555060808201518160020160026101000a81548160ff021916908315150217905550905050600360009054906101000a900473ffffffffffffffffffffffffffffffffffffffff1673ffffffffffffffffffffffffffffffffffffffff166382753ebe846040518263ffffffff1660e01b8152600401610f679190614d75565b60a060405180830381865afa158015610f84573d6000803e3d6000fd5b505050506040513d601f19601f82011682018060405250810190610fa891906157ad565b8160000160006003815260200190815260200160002060008201518160000160006101000a81548160ff02191690836004811115610fe957610fe86148dc565b5b02179055506020820151816001015560408201518160020160006101000a81548160ff021916908360ff16021790555060608201518160020160016101000a81548160ff021916908360ff16021790555060808201518160020160026101000a81548160ff021916908315150217905550905050604051806060016040528060ff8016815260200160ff801681526020016000600481111561108e5761108d6148dc565b5b8152508160040160008360050160009054906101000a900460ff1660ff16815260200190815260200160002060008201518160000160006101000a81548160ff021916908360ff16021790555060208201518160000160016101000a81548160ff021916908360ff16021790555060408201518160000160026101000a81548160ff02191690836004811115611127576111266148dc565b5b021790555090505080600501600081819054906101000a900460ff168092919061115090615886565b91906101000a81548160ff021916908360ff1602179055505061117281612ded565b60006001600b61118291906158af565b9050600060016002600b6111969190615912565b6111a09190615943565b90506040518060600160405280600260009054906101000a900473ffffffffffffffffffffffffffffffffffffffff1673ffffffffffffffffffffffffffffffffffffffff1663ce28613f600060036040518363ffffffff1660e01b815260040161120c9291906159a8565b6020604051808303816000875af115801561122b573d6000803e3d6000fd5b505050506040513d601f19601f8201168201806040525081019061124f91906159d1565b60ff168152602001600260009054906101000a900473ffffffffffffffffffffffffffffffffffffffff1673ffffffffffffffffffffffffffffffffffffffff1663ce28613f600060036040518363ffffffff1660e01b81526004016112b69291906159a8565b6020604051808303816000875af11580156112d5573d6000803e3d6000fd5b505050506040513d601f19601f820116820180604052508101906112f991906159d1565b60ff16815260200160036004811115611315576113146148dc565b5b8152508360040160008560050160009054906101000a900460ff1660ff16815260200190815260200160002060008201518160000160006101000a81548160ff021916908360ff16021790555060208201518160000160016101000a81548160ff021916908360ff16021790555060408201518160000160026101000a81548160ff021916908360048111156113ae576113ad6148dc565b5b021790555090505082600501600081819054906101000a900460ff16809291906113d790615886565b91906101000a81548160ff021916908360ff160217905550506002836003016000848152602001908152602001600020600083815260200190815260200160002060000160006101000a81548160ff021916908360ff160217905550600183600301600060018561144891906158af565b8152602001908152602001600020600083815260200190815260200160002060000160006101000a81548160ff021916908360ff16021790555060018360050160009054906101000a900460ff166114a091906159fe565b60ff1683600301600084815260200190815260200160002060008381526020019081526020016000206001016000600481106114df576114de615519565b5b018190555060018360050160009054906101000a900460ff1661150291906159fe565b60ff1683600301600060018561151891906158af565b8152602001908152602001600020600083815260200190815260200160002060010160016004811061154d5761154c615519565b5b0181905550600160078054905061156491906158af565b9350505050919050565b611576614656565b6007838154811061158a57611589615519565b5b906000526020600020906007020160000160008381526020019081526020016000206040518060a00160405290816000820160009054906101000a900460ff1660048111156115dc576115db6148dc565b5b60048111156115ee576115ed6148dc565b5b8152602001600182015481526020016002820160009054906101000a900460ff1660ff1660ff1681526020016002820160019054906101000a900460ff1660ff1660ff1681526020016002820160029054906101000a900460ff161515151581525050905092915050565b600160009054906101000a900473ffffffffffffffffffffffffffffffffffffffff1673ffffffffffffffffffffffffffffffffffffffff163373ffffffffffffffffffffffffffffffffffffffff16146116b357600080fd5b60005b600782815481106116ca576116c9615519565b5b906000526020600020906007020160050160009054906101000a900460ff1660ff168110156117db5760026004811115611707576117066148dc565b5b6007838154811061171b5761171a615519565b5b9060005260206000209060070201600401600083815260200190815260200160002060000160029054906101000a900460ff1660048111156117605761175f6148dc565b5b036117c85760016007838154811061177b5761177a615519565b5b9060005260206000209060070201600401600083815260200190815260200160002060000160026101000a81548160ff021916908360048111156117c2576117c16148dc565b5b02179055505b80806117d3906155a6565b9150506116b6565b5050565b600160009054906101000a900473ffffffffffffffffffffffffffffffffffffffff1673ffffffffffffffffffffffffffffffffffffffff163373ffffffffffffffffffffffffffffffffffffffff1614806118885750600460009054906101000a900473ffffffffffffffffffffffffffffffffffffffff1673ffffffffffffffffffffffffffffffffffffffff163373ffffffffffffffffffffffffffffffffffffffff16145b6118c7576040517f08c379a00000000000000000000000000000000000000000000000000000000081526004016118be90615a90565b60405180910390fd5b6000600787815481106118dd576118dc615519565b5b90600052602060002090600702016003016000878152602001908152602001600020600086815260200190815260200160002060010160048060200260405190810160405280929190826004801561194a576020028201915b815481526020019060010190808311611936575b5050505050905060006007888154811061196757611966615519565b5b9060005260206000209060070201600401600083876004811061198d5761198c615519565b5b602002015181526020019081526020016000209050838160000160026101000a81548160ff021916908360048111156119c9576119c86148dc565b5b02179055506000831115611a1257828160000160016101000a81548160ff021916908360ff160217905550828160000160006101000a81548160ff021916908360ff1602179055505b5050505050505050565b600260009054906101000a900473ffffffffffffffffffffffffffffffffffffffff1681565b6060600060078381548110611a5a57611a59615519565b5b906000526020600020906007020160050160009054906101000a900460ff1660ff1667ffffffffffffffff811115611a9557611a94615548565b5b604051908082528060200260200182016040528015611ace57816020015b611abb6146f0565b815260200190600190039081611ab35790505b50905060005b8151811015611bc45760078481548110611af157611af0615519565b5b906000526020600020906007020160040160008281526020019081526020016000206040518060600160405290816000820160009054906101000a900460ff1660ff1660ff1681526020016000820160019054906101000a900460ff1660ff1660ff1681526020016000820160029054906101000a900460ff166004811115611b7d57611b7c6148dc565b5b6004811115611b8f57611b8e6148dc565b5b81525050828281518110611ba657611ba5615519565b5b60200260200101819052508080611bbc906155a6565b915050611ad4565b5080915050919050565b611bd66146f0565b600060078681548110611bec57611beb615519565b5b906000526020600020906007020160030160008681526020019081526020016000206000858152602001908152602001600020600101600480602002604051908101604052809291908260048015611c59576020028201915b815481526020019060010190808311611c45575b5050505050905060078681548110611c7457611c73615519565b5b90600052602060002090600702016004016000828560048110611c9a57611c99615519565b5b602002015181526020019081526020016000206040518060600160405290816000820160009054906101000a900460ff1660ff1660ff1681526020016000820160019054906101000a900460ff1660ff1660ff1681526020016000820160029054906101000a900460ff166004811115611d1757611d166148dc565b5b6004811115611d2957611d286148dc565b5b81525050915050949350505050565b611d40612ffc565b611d4a600061307a565b565b60078181548110611d5c57600080fd5b90600052602060002090600702016000915090508060010160009054906101000a900460ff16908060050160009054906101000a900460ff1690806006016040518060400160405290816000820160009054906101000a900460ff1660ff1660ff1681526020016000820160019054906101000a900460ff1660ff1660ff1681525050905083565b600460009054906101000a900473ffffffffffffffffffffffffffffffffffffffff1681565b600460009054906101000a900473ffffffffffffffffffffffffffffffffffffffff1673ffffffffffffffffffffffffffffffffffffffff163373ffffffffffffffffffffffffffffffffffffffff1614611e9a576040517f08c379a0000000000000000000000000000000000000000000000000000000008152600401611e9190615afc565b60405180910390fd5b600160078481548110611eb057611eaf615519565b5b90600052602060002090600702016003016000848152602001908152602001600020600083815260200190815260200160002060050160016101000a81548160ff021916908315150217905550505050565b6060600060078381548110611f1a57611f19615519565b5b906000526020600020906007020160010160009054906101000a900460ff1660ff1667ffffffffffffffff811115611f5557611f54615548565b5b604051908082528060200260200182016040528015611f8e57816020015b611f7b614656565b815260200190600190039081611f735790505b50905060005b81518110156120a95760078481548110611fb157611fb0615519565b5b906000526020600020906007020160000160008281526020019081526020016000206040518060a00160405290816000820160009054906101000a900460ff166004811115612003576120026148dc565b5b6004811115612015576120146148dc565b5b8152602001600182015481526020016002820160009054906101000a900460ff1660ff1660ff1681526020016002820160019054906101000a900460ff1660ff1660ff1681526020016002820160029054906101000a900460ff16151515158152505082828151811061208b5761208a615519565b5b602002602001018190525080806120a1906155a6565b915050611f94565b5080915050919050565b60008060009054906101000a900473ffffffffffffffffffffffffffffffffffffffff16905090565b6120e4612ffc565b80600785815481106120f9576120f8615519565b5b90600052602060002090600702016003016000858152602001908152602001600020600084815260200190815260200160002060000160006101000a81548160ff021916908360ff16021790555050505050565b600160009054906101000a900473ffffffffffffffffffffffffffffffffffffffff1681565b600160009054906101000a900473ffffffffffffffffffffffffffffffffffffffff1673ffffffffffffffffffffffffffffffffffffffff163373ffffffffffffffffffffffffffffffffffffffff16146121cd57600080fd5b6121d5614729565b60005b8281101561262f5760005b600b8110156122b05760005b600b81101561229c576007868154811061220c5761220b615519565b5b90600052602060002090600702016003016000838152602001908152602001600020600082815260200190815260200160002060050160039054906101000a900460ff168483600b811061226357612262615519565b5b602002015182600b811061227a57612279615519565b5b6020020190151590811515815250508080612294906155a6565b9150506121ef565b5080806122a8906155a6565b9150506121e3565b5060005b600b81101561261b5760005b600b8110156126075760005b60048110156125f3576000600788815481106122eb576122ea615519565b5b906000526020600020906007020160030160008581526020019081526020016000206000848152602001908152602001600020600101826004811061233357612332615519565b5b0154905060006007898154811061234d5761234c615519565b5b9060005260206000209060070201600401600083815260200190815260200160002060000160029054906101000a900460ff16905060026004811115612396576123956148dc565b5b8160048111156123a9576123a86148dc565b5b14806123d95750600360048111156123c4576123c36148dc565b5b8160048111156123d7576123d66148dc565b5b145b156125dd576000851480156123ee5750600083145b156123fa5750506125e0565b6001600b61240891906158af565b851480156124165750600183145b156124225750506125e0565b6000841480156124325750600383145b1561243e5750506125e0565b6001600b61244c91906158af565b8414801561245a5750600283145b156124665750506125e0565b6000600260009054906101000a900473ffffffffffffffffffffffffffffffffffffffff1673ffffffffffffffffffffffffffffffffffffffff1663951fc3fe8560405180604001604052808a60ff1681526020018960ff168152506040518363ffffffff1660e01b81526004016124df929190615b1c565b6040805180830381865afa1580156124fb573d6000803e3d6000fd5b505050506040513d601f19601f8201168201806040525081019061251f9190615b95565b9050600060078b8154811061253757612536615519565b5b90600052602060002090600702016003016000836000015160ff1681526020019081526020016000206000836020015160ff1681526020019081526020016000209050600060ff168160000160009054906101000a900460ff1660ff16141580156125b7575060028160000160009054906101000a900460ff1660ff1614155b156125da5760018160050160036101000a81548160ff0219169083151502179055505b50505b50505b80806125eb906155a6565b9150506122cc565b5080806125ff906155a6565b9150506122c0565b508080612613906155a6565b9150506122b4565b508080612627906155a6565b9150506121d8565b50505050565b61263d612ffc565b84600160006101000a81548173ffffffffffffffffffffffffffffffffffffffff021916908373ffffffffffffffffffffffffffffffffffffffff16021790555083600260006101000a81548173ffffffffffffffffffffffffffffffffffffffff021916908373ffffffffffffffffffffffffffffffffffffffff16021790555082600360006101000a81548173ffffffffffffffffffffffffffffffffffffffff021916908373ffffffffffffffffffffffffffffffffffffffff16021790555081600460006101000a81548173ffffffffffffffffffffffffffffffffffffffff021916908373ffffffffffffffffffffffffffffffffffffffff16021790555080600560006101000a81548173ffffffffffffffffffffffffffffffffffffffff021916908373ffffffffffffffffffffffffffffffffffffffff1602179055505050505050565b6000600160009054906101000a900473ffffffffffffffffffffffffffffffffffffffff1673ffffffffffffffffffffffffffffffffffffffff163373ffffffffffffffffffffffffffffffffffffffff16146127e557600080fd5b6000600760018160018154018082558091505003906000526020600020906007020190506128158160000161313e565b8160010160006101000a81548160ff021916908360ff160217905550604051806060016040528060ff8016815260200160ff8016815260200160006004811115612862576128616148dc565b5b8152508160040160008360050160009054906101000a900460ff1660ff16815260200190815260200160002060008201518160000160006101000a81548160ff021916908360ff16021790555060208201518160000160016101000a81548160ff021916908360ff16021790555060408201518160000160026101000a81548160ff021916908360048111156128fb576128fa6148dc565b5b021790555090505080600501600081819054906101000a900460ff168092919061292490615886565b91906101000a81548160ff021916908360ff1602179055505061294681612ded565b61294f81613349565b6129588161422f565b600160078054905061296a91906158af565b91505090565b612978612ffc565b600073ffffffffffffffffffffffffffffffffffffffff168173ffffffffffffffffffffffffffffffffffffffff16036129e7576040517f08c379a00000000000000000000000000000000000000000000000000000000081526004016129de90615c34565b60405180910390fd5b6129f08161307a565b50565b600360009054906101000a900473ffffffffffffffffffffffffffffffffffffffff1681565b612a2161469f565b60078481548110612a3557612a34615519565b5b9060005260206000209060070201600301600084815260200190815260200160002060008381526020019081526020016000206040518060e00160405290816000820160009054906101000a900460ff1660ff1660ff1681526020016000820160019054906101000a900460ff1660ff1660ff16815260200160018201600480602002604051908101604052809291908260048015612ae9576020028201915b815481526020019060010190808311612ad5575b505050505081526020016005820160009054906101000a900460ff161515151581526020016005820160019054906101000a900460ff161515151581526020016005820160029054906101000a900460ff161515151581526020016005820160039054906101000a900460ff16151515158152505090509392505050565b600560009054906101000a900473ffffffffffffffffffffffffffffffffffffffff1673ffffffffffffffffffffffffffffffffffffffff163373ffffffffffffffffffffffffffffffffffffffff1614612bf7576040517f08c379a0000000000000000000000000000000000000000000000000000000008152600401612bee90615ca0565b60405180910390fd5b8060078581548110612c0c57612c0b615519565b5b90600052602060002090600702016003016000858152602001908152602001600020600084815260200190815260200160002060050160036101000a81548160ff02191690831515021790555050505050565b600080600260009054906101000a900473ffffffffffffffffffffffffffffffffffffffff1673ffffffffffffffffffffffffffffffffffffffff1663ce28613f60016002612cae9190615943565b60018660010160009054906101000a900460ff16612ccc91906159fe565b6040518363ffffffff1660e01b8152600401612ce9929190615cc0565b6020604051808303816000875af1158015612d08573d6000803e3d6000fd5b505050506040513d601f19601f82011682018060405250810190612d2c91906159d1565b90505b600115158360020160008360ff16815260200190815260200160002060009054906101000a900460ff16151503612db35760018360010160009054906101000a900460ff16612d7e91906159fe565b60ff168160ff1603612d9f5760016002612d989190615ce9565b9050612dae565b8080612daa90615886565b9150505b612d2f565b60018360020160008360ff16815260200190815260200160002060006101000a81548160ff02191690831515021790555080915050919050565b60006006600181600181540180825580915050039060005260206000209060060201905060006001600b612e2191906158af565b9050600060016002600b612e359190615912565b612e3f9190615943565b905060405180604001604052808360ff1681526020018260ff168152508460060160008201518160000160006101000a81548160ff021916908360ff16021790555060208201518160000160016101000a81548160ff021916908360ff1602179055509050508284600301600084815260200190815260200160002060008381526020019081526020016000206000820160009054906101000a900460ff168160000160006101000a81548160ff021916908360ff1602179055506000820160019054906101000a900460ff168160000160016101000a81548160ff021916908360ff1602179055506001820181600101906004612f3e929190614757565b506005820160009054906101000a900460ff168160050160006101000a81548160ff0219169083151502179055506005820160019054906101000a900460ff168160050160016101000a81548160ff0219169083151502179055506005820160029054906101000a900460ff168160050160026101000a81548160ff0219169083151502179055506005820160039054906101000a900460ff168160050160036101000a81548160ff02191690831515021790555090505050505050565b61300461464e565b73ffffffffffffffffffffffffffffffffffffffff166130226120b3565b73ffffffffffffffffffffffffffffffffffffffff1614613078576040517f08c379a000000000000000000000000000000000000000000000000000000000815260040161306f90615d6a565b60405180910390fd5b565b60008060009054906101000a900473ffffffffffffffffffffffffffffffffffffffff169050816000806101000a81548173ffffffffffffffffffffffffffffffffffffffff021916908373ffffffffffffffffffffffffffffffffffffffff1602179055508173ffffffffffffffffffffffffffffffffffffffff168173ffffffffffffffffffffffffffffffffffffffff167f8be0079c531659141344cd1fd0a4f28419497f9722a3daafe3b4186f6b6457e060405160405180910390a35050565b600080600360009054906101000a900473ffffffffffffffffffffffffffffffffffffffff1673ffffffffffffffffffffffffffffffffffffffff166338fdf0bd6040518163ffffffff1660e01b8152600401602060405180830381865afa1580156131ae573d6000803e3d6000fd5b505050506040513d601f19601f820116820180604052508101906131d29190615d8a565b905060005b8181101561333f57600360009054906101000a900473ffffffffffffffffffffffffffffffffffffffff1673ffffffffffffffffffffffffffffffffffffffff166382753ebe826040518263ffffffff1660e01b815260040161323a9190614d75565b60a060405180830381865afa158015613257573d6000803e3d6000fd5b505050506040513d601f19601f8201168201806040525081019061327b91906157ad565b84600083815260200190815260200160002060008201518160000160006101000a81548160ff021916908360048111156132b8576132b76148dc565b5b02179055506020820151816001015560408201518160020160006101000a81548160ff021916908360ff16021790555060608201518160020160016101000a81548160ff021916908360ff16021790555060808201518160020160026101000a81548160ff0219169083151502179055509050508080613337906155a6565b9150506131d7565b5080915050919050565b60008060028360010160009054906101000a900460ff1661336a91906159fe565b60ff169050600060019050600061337f614729565b6001818760060160000160009054906101000a900460ff1660ff16600b81106133ab576133aa615519565b5b60200201518760060160000160019054906101000a900460ff1660ff16600b81106133d9576133d8615519565b5b6020020190151590811515815250506133f0614794565b866006016040518060400160405290816000820160009054906101000a900460ff1660ff1660ff1681526020016000820160019054906101000a900460ff1660ff1660ff16815250508187601e811061344c5761344b615519565b5b6020020181905250858061345f906155a6565b9650505b6000851180156134735750600086115b156141035760008160018861348891906158af565b601e811061349957613498615519565b5b6020020151905086806134ab90615db7565b9750508187601e81106134c1576134c0615519565b5b602002016134cd6147c2565b81525085806134db90615db7565b96505084806134e990615db7565b9550506001886003016000836000015160ff1681526020019081526020016000206000836020015160ff16815260200190815260200160002060000160006101000a81548160ff021916908360ff1602179055506021600260009054906101000a900473ffffffffffffffffffffffffffffffffffffffff1673ffffffffffffffffffffffffffffffffffffffff1663ce28613f600060636040518363ffffffff1660e01b815260040161359e929190615e1b565b6020604051808303816000875af11580156135bd573d6000803e3d6000fd5b505050506040513d601f19601f820116820180604052508101906135e191906159d1565b60ff16101561363b576001886003016000836000015160ff1681526020019081526020016000206000836020015160ff16815260200190815260200160002060050160026101000a81548160ff0219169083151502179055505b600060405180608001604052806000815260200160018152602001600281526020016003815250905060006001600461367491906158af565b90505b60008111156137a7576000600260009054906101000a900473ffffffffffffffffffffffffffffffffffffffff1673ffffffffffffffffffffffffffffffffffffffff1663ce28613f6000846040518363ffffffff1660e01b81526004016136e09291906159a8565b6020604051808303816000875af11580156136ff573d6000803e3d6000fd5b505050506040513d601f19601f8201168201806040525081019061372391906159d1565b9050828160ff166004811061373b5761373a615519565b5b602002015183836004811061375357613752615519565b5b602002015184846004811061376b5761376a615519565b5b60200201858460ff166004811061378557613784615519565b5b602002018281525082815250505050808061379f90615db7565b915050613677565b5060005b60048110156140fb576000836000015160000b90506000846020015160000b905060008484600481106137e1576137e0615519565b5b6020020151036137fe5781806137f690615e4e565b925050613893565b600184846004811061381357613812615519565b5b60200201510361383057818061382890615e96565b925050613892565b600284846004811061384557613844615519565b5b60200201510361386257808061385a90615e96565b915050613891565b600384846004811061387757613876615519565b5b60200201510361389057808061388c90615e4e565b9150505b5b5b5b60018212806138a25750600181125b806138b957506002600b6138b691906158af565b82135b806138d057506002600b6138cd91906158af565b81135b156138dc5750506140e8565b600060405180604001604052808460ff1681526020018360ff1681525090506000151588826000015160ff16600b811061391957613918615519565b5b6020020151826020015160ff16600b811061393757613936615519565b5b602002015115151480613a31575060008d6003016000886000015160ff1681526020019081526020016000206000886020015160ff168152602001908152602001600020600101600260009054906101000a900473ffffffffffffffffffffffffffffffffffffffff1673ffffffffffffffffffffffffffffffffffffffff1663fa3993c289856040518363ffffffff1660e01b81526004016139db929190615ede565b602060405180830381865afa1580156139f8573d6000803e3d6000fd5b505050506040513d601f19601f82011682018060405250810190613a1c9190615d8a565b60048110613a2d57613a2c615519565b5b0154145b156140e45760008a1480613af45750886042613a4d91906158af565b600260009054906101000a900473ffffffffffffffffffffffffffffffffffffffff1673ffffffffffffffffffffffffffffffffffffffff1663ce28613f600060636040518363ffffffff1660e01b8152600401613aac929190615e1b565b6020604051808303816000875af1158015613acb573d6000803e3d6000fd5b505050506040513d601f19601f82011682018060405250810190613aef91906159d1565b60ff16105b156140de576040518060600160405280600260009054906101000a900473ffffffffffffffffffffffffffffffffffffffff1673ffffffffffffffffffffffffffffffffffffffff1663ce28613f600060036040518363ffffffff1660e01b8152600401613b639291906159a8565b6020604051808303816000875af1158015613b82573d6000803e3d6000fd5b505050506040513d601f19601f82011682018060405250810190613ba691906159d1565b60ff168152602001600260009054906101000a900473ffffffffffffffffffffffffffffffffffffffff1673ffffffffffffffffffffffffffffffffffffffff1663ce28613f600060036040518363ffffffff1660e01b8152600401613c0d9291906159a8565b6020604051808303816000875af1158015613c2c573d6000803e3d6000fd5b505050506040513d601f19601f82011682018060405250810190613c5091906159d1565b60ff16815260200160016004811115613c6c57613c6b6148dc565b5b8152508d60040160008f60050160009054906101000a900460ff1660ff16815260200190815260200160002060008201518160000160006101000a81548160ff021916908360ff16021790555060208201518160000160016101000a81548160ff021916908360ff16021790555060408201518160000160026101000a81548160ff02191690836004811115613d0557613d046148dc565b5b021790555090505060008d60040160008f60050160009054906101000a900460ff1660ff16815260200190815260200160002060000160009054906101000a900460ff1660ff1603613da75760038d60040160008f60050160009054906101000a900460ff1660ff16815260200190815260200160002060000160026101000a81548160ff02191690836004811115613da157613da06148dc565b5b02179055505b8c600501600081819054906101000a900460ff1680929190613dc890615886565b91906101000a81548160ff021916908360ff16021790555050601689613dee9190615943565b98506042891115613dfe57604298505b6000151588826000015160ff16600b8110613e1c57613e1b615519565b5b6020020151826020015160ff16600b8110613e3a57613e39615519565b5b6020020151151503613ec85780878d601e8110613e5a57613e59615519565b5b60200201819052508b80613e6d906155a6565b9c50508980613e7b906155a6565b9a5050600188826000015160ff16600b8110613e9a57613e99615519565b5b6020020151826020015160ff16600b8110613eb857613eb7615519565b5b6020020190151590811515815250505b60008d6003016000886000015160ff1681526020019081526020016000206000886020015160ff168152602001908152602001600020600101868660048110613f1457613f13615519565b5b602002015160048110613f2a57613f29615519565b5b0154036140d95760018d60050160009054906101000a900460ff16613f4f91906159fe565b60ff168d6003016000886000015160ff1681526020019081526020016000206000886020015160ff168152602001908152602001600020600101868660048110613f9c57613f9b615519565b5b602002015160048110613fb257613fb1615519565b5b018190555060018d60050160009054906101000a900460ff16613fd591906159fe565b60ff168d6003016000836000015160ff1681526020019081526020016000206000836020015160ff168152602001908152602001600020600101600260009054906101000a900473ffffffffffffffffffffffffffffffffffffffff1673ffffffffffffffffffffffffffffffffffffffff16638214f2228888600481106140605761405f615519565b5b60200201516040518263ffffffff1660e01b81526004016140819190614d75565b602060405180830381865afa15801561409e573d6000803e3d6000fd5b505050506040513d601f19601f820116820180604052508101906140c29190615d8a565b600481106140d3576140d2615519565b5b01819055505b6140e3565b600098505b5b5050505b80806140f3906155a6565b9150506137ab565b505050613463565b60028760030160008960060160000160009054906101000a900460ff1660ff16815260200190815260200160002060008960060160000160019054906101000a900460ff1660ff16815260200190815260200160002060000160006101000a81548160ff021916908360ff16021790555060008760030160008960060160000160009054906101000a900460ff1660ff16815260200190815260200160002060008960060160000160019054906101000a900460ff1660ff16815260200190815260200160002060050160026101000a81548160ff02191690831515021790555060038760040160006001815260200190815260200160002060000160026101000a81548160ff02191690836004811115614221576142206148dc565b5b021790555050505050505050565b60005b600b81101561464a5760005b600b81101561463657600160ff16836003016000848152602001908152602001600020600083815260200190815260200160002060000160009054906101000a900460ff1660ff16036146235760005b6004811015614621576000846003016000858152602001908152602001600020600084815260200190815260200160002060010182600481106142d4576142d3615519565b5b01540361460e576000600260009054906101000a900473ffffffffffffffffffffffffffffffffffffffff1673ffffffffffffffffffffffffffffffffffffffff1663951fc3fe8360405180604001604052808860ff1681526020018760ff168152506040518363ffffffff1660e01b8152600401614354929190615b1c565b6040805180830381865afa158015614370573d6000803e3d6000fd5b505050506040513d601f19601f820116820180604052508101906143949190615b95565b90506000856003016000836000015160ff1681526020019081526020016000206000836020015160ff16815260200190815260200160002060000160009054906101000a900460ff1660ff1690506042600260009054906101000a900473ffffffffffffffffffffffffffffffffffffffff1673ffffffffffffffffffffffffffffffffffffffff1663ce28613f600060636040518363ffffffff1660e01b8152600401614443929190615e1b565b6020604051808303816000875af1158015614462573d6000803e3d6000fd5b505050506040513d601f19601f8201168201806040525081019061448691906159d1565b60ff161080156144995750600060ff1681145b1561460b57604051806060016040528060ff8016815260200160ff801681526020016004808111156144ce576144cd6148dc565b5b8152508660040160008860050160009054906101000a900460ff1660ff16815260200190815260200160002060008201518160000160006101000a81548160ff021916908360ff16021790555060208201518160000160016101000a81548160ff021916908360ff16021790555060408201518160000160026101000a81548160ff02191690836004811115614567576145666148dc565b5b021790555090505085600501600081819054906101000a900460ff168092919061459090615886565b91906101000a81548160ff021916908360ff1602179055505060018660050160009054906101000a900460ff166145c791906159fe565b60ff168660030160008781526020019081526020016000206000868152602001908152602001600020600101846004811061460557614604615519565b5b01819055505b50505b8080614619906155a6565b91505061428e565b505b808061462e906155a6565b91505061423e565b508080614642906155a6565b915050614232565b5050565b600033905090565b6040518060a0016040528060006004811115614675576146746148dc565b5b815260200160008152602001600060ff168152602001600060ff1681526020016000151581525090565b6040518060e00160405280600060ff168152602001600060ff1681526020016146c66147e2565b81526020016000151581526020016000151581526020016000151581526020016000151581525090565b6040518060600160405280600060ff168152602001600060ff16815260200160006004811115614723576147226148dc565b5b81525090565b604051806101600160405280600b905b614741614804565b8152602001906001900390816147395790505090565b8260048101928215614783579182015b82811115614782578254825591600101919060010190614767565b5b5090506147909190614827565b5090565b604051806103c00160405280601e905b6147ac6147c2565b8152602001906001900390816147a45790505090565b6040518060400160405280600060ff168152602001600060ff1681525090565b6040518060800160405280600490602082028036833780820191505090505090565b604051806101600160405280600b90602082028036833780820191505090505090565b5b80821115614840576000816000905550600101614828565b5090565b6000604051905090565b600080fd5b6000819050919050565b61486681614853565b811461487157600080fd5b50565b6000813590506148838161485d565b92915050565b6000806000606084860312156148a2576148a161484e565b5b60006148b086828701614874565b93505060206148c186828701614874565b92505060406148d286828701614874565b9150509250925092565b7f4e487b7100000000000000000000000000000000000000000000000000000000600052602160045260246000fd5b6005811061491c5761491b6148dc565b5b50565b600081905061492d8261490b565b919050565b600061493d8261491f565b9050919050565b61494d81614932565b82525050565b61495c81614853565b82525050565b600060ff82169050919050565b61497881614962565b82525050565b60008115159050919050565b6149938161497e565b82525050565b60a0820160008201516149af6000850182614944565b5060208201516149c26020850182614953565b5060408201516149d5604085018261496f565b5060608201516149e8606085018261496f565b5060808201516149fb608085018261498a565b50505050565b600060a082019050614a166000830184614999565b92915050565b600073ffffffffffffffffffffffffffffffffffffffff82169050919050565b6000614a4782614a1c565b9050919050565b614a5781614a3c565b82525050565b6000602082019050614a726000830184614a4e565b92915050565b600060208284031215614a8e57614a8d61484e565b5b6000614a9c84828501614874565b91505092915050565b600081519050919050565b600082825260208201905092915050565b6000819050602082019050919050565b600081519050919050565b600082825260208201905092915050565b6000819050602082019050919050565b600060049050919050565b600081905092915050565b6000819050919050565b6000614b298383614953565b60208301905092915050565b6000602082019050919050565b614b4b81614afd565b614b558184614b08565b9250614b6082614b13565b8060005b83811015614b91578151614b788782614b1d565b9650614b8383614b35565b925050600181019050614b64565b505050505050565b61014082016000820151614bb0600085018261496f565b506020820151614bc3602085018261496f565b506040820151614bd66040850182614b42565b506060820151614be960c085018261498a565b506080820151614bfc60e085018261498a565b5060a0820151614c1061010085018261498a565b5060c0820151614c2461012085018261498a565b50505050565b6000614c368383614b99565b6101408301905092915050565b6000602082019050919050565b6000614c5b82614ad1565b614c658185614adc565b9350614c7083614aed565b8060005b83811015614ca1578151614c888882614c2a565b9750614c9383614c43565b925050600181019050614c74565b5085935050505092915050565b6000614cba8383614c50565b905092915050565b6000602082019050919050565b6000614cda82614aa5565b614ce48185614ab0565b935083602082028501614cf685614ac1565b8060005b85811015614d325784840389528151614d138582614cae565b9450614d1e83614cc2565b925060208a01995050600181019050614cfa565b50829750879550505050505092915050565b60006020820190508181036000830152614d5e8184614ccf565b905092915050565b614d6f81614853565b82525050565b6000602082019050614d8a6000830184614d66565b92915050565b60008060408385031215614da757614da661484e565b5b6000614db585828601614874565b9250506020614dc685828601614874565b9150509250929050565b60058110614ddd57600080fd5b50565b600081359050614def81614dd0565b92915050565b60008060008060008060c08789031215614e1257614e1161484e565b5b6000614e2089828a01614874565b9650506020614e3189828a01614874565b9550506040614e4289828a01614874565b9450506060614e5389828a01614874565b9350506080614e6489828a01614de0565b92505060a0614e7589828a01614874565b9150509295509295509295565b6000819050919050565b6000614ea7614ea2614e9d84614a1c565b614e82565b614a1c565b9050919050565b6000614eb982614e8c565b9050919050565b6000614ecb82614eae565b9050919050565b614edb81614ec0565b82525050565b6000602082019050614ef66000830184614ed2565b92915050565b600081519050919050565b600082825260208201905092915050565b6000819050602082019050919050565b60058110614f3957614f386148dc565b5b50565b6000819050614f4a82614f28565b919050565b6000614f5a82614f3c565b9050919050565b614f6a81614f4f565b82525050565b606082016000820151614f86600085018261496f565b506020820151614f99602085018261496f565b506040820151614fac6040850182614f61565b50505050565b6000614fbe8383614f70565b60608301905092915050565b6000602082019050919050565b6000614fe282614efc565b614fec8185614f07565b9350614ff783614f18565b8060005b8381101561502857815161500f8882614fb2565b975061501a83614fca565b925050600181019050614ffb565b5085935050505092915050565b6000602082019050818103600083015261504f8184614fd7565b905092915050565b600080600080608085870312156150715761507061484e565b5b600061507f87828801614874565b945050602061509087828801614874565b93505060406150a187828801614874565b92505060606150b287828801614874565b91505092959194509250565b6060820160008201516150d4600085018261496f565b5060208201516150e7602085018261496f565b5060408201516150fa6040850182614f61565b50505050565b600060608201905061511560008301846150be565b92915050565b61512481614962565b82525050565b604082016000820151615140600085018261496f565b506020820151615153602085018261496f565b50505050565b600060808201905061516e600083018661511b565b61517b602083018561511b565b615188604083018461512a565b949350505050565b600081519050919050565b600082825260208201905092915050565b6000819050602082019050919050565b60a0820160008201516151d26000850182614944565b5060208201516151e56020850182614953565b5060408201516151f8604085018261496f565b50606082015161520b606085018261496f565b50608082015161521e608085018261498a565b50505050565b600061523083836151bc565b60a08301905092915050565b6000602082019050919050565b600061525482615190565b61525e818561519b565b9350615269836151ac565b8060005b8381101561529a5781516152818882615224565b975061528c8361523c565b92505060018101905061526d565b5085935050505092915050565b600060208201905081810360008301526152c18184615249565b905092915050565b6152d281614a3c565b81146152dd57600080fd5b50565b6000813590506152ef816152c9565b92915050565b600080600080600060a086880312156153115761531061484e565b5b600061531f888289016152e0565b9550506020615330888289016152e0565b9450506040615341888289016152e0565b9350506060615352888289016152e0565b9250506080615363888289016152e0565b9150509295509295909350565b6000602082840312156153865761538561484e565b5b6000615394848285016152e0565b91505092915050565b60006153a882614eae565b9050919050565b6153b88161539d565b82525050565b60006020820190506153d360008301846153af565b92915050565b610140820160008201516153f0600085018261496f565b506020820151615403602085018261496f565b5060408201516154166040850182614b42565b50606082015161542960c085018261498a565b50608082015161543c60e085018261498a565b5060a082015161545061010085018261498a565b5060c082015161546461012085018261498a565b50505050565b60006101408201905061548060008301846153d9565b92915050565b61548f8161497e565b811461549a57600080fd5b50565b6000813590506154ac81615486565b92915050565b600080600080608085870312156154cc576154cb61484e565b5b60006154da87828801614874565b94505060206154eb87828801614874565b93505060406154fc87828801614874565b925050606061550d8782880161549d565b91505092959194509250565b7f4e487b7100000000000000000000000000000000000000000000000000000000600052603260045260246000fd5b7f4e487b7100000000000000000000000000000000000000000000000000000000600052604160045260246000fd5b7f4e487b7100000000000000000000000000000000000000000000000000000000600052601160045260246000fd5b60006155b182614853565b91507fffffffffffffffffffffffffffffffffffffffffffffffffffffffffffffffff82036155e3576155e2615577565b5b600182019050919050565b6000819050919050565b600061561361560e615609846155ee565b614e82565b614853565b9050919050565b615623816155f8565b82525050565b600060208201905061563e600083018461561a565b92915050565b600080fd5b6000601f19601f8301169050919050565b61566382615649565b810181811067ffffffffffffffff8211171561568257615681615548565b5b80604052505050565b6000615695614844565b90506156a1828261565a565b919050565b600581106156b357600080fd5b50565b6000815190506156c5816156a6565b92915050565b6000815190506156da8161485d565b92915050565b6156e981614962565b81146156f457600080fd5b50565b600081519050615706816156e0565b92915050565b60008151905061571b81615486565b92915050565b600060a0828403121561573757615736615644565b5b61574160a061568b565b90506000615751848285016156b6565b6000830152506020615765848285016156cb565b6020830152506040615779848285016156f7565b604083015250606061578d848285016156f7565b60608301525060806157a18482850161570c565b60808301525092915050565b600060a082840312156157c3576157c261484e565b5b60006157d184828501615721565b91505092915050565b6000819050919050565b60006157ff6157fa6157f5846157da565b614e82565b614853565b9050919050565b61580f816157e4565b82525050565b600060208201905061582a6000830184615806565b92915050565b6000819050919050565b600061585561585061584b84615830565b614e82565b614853565b9050919050565b6158658161583a565b82525050565b6000602082019050615880600083018461585c565b92915050565b600061589182614962565b915060ff82036158a4576158a3615577565b5b600182019050919050565b60006158ba82614853565b91506158c583614853565b92508282039050818111156158dd576158dc615577565b5b92915050565b7f4e487b7100000000000000000000000000000000000000000000000000000000600052601260045260246000fd5b600061591d82614853565b915061592883614853565b925082615938576159376158e3565b5b828204905092915050565b600061594e82614853565b915061595983614853565b925082820190508082111561597157615970615577565b5b92915050565b600061599261598d615988846155ee565b614e82565b614962565b9050919050565b6159a281615977565b82525050565b60006040820190506159bd6000830185615999565b6159ca602083018461511b565b9392505050565b6000602082840312156159e7576159e661484e565b5b60006159f5848285016156f7565b91505092915050565b6000615a0982614962565b9150615a1483614962565b9250828203905060ff811115615a2d57615a2c615577565b5b92915050565b600082825260208201905092915050565b7f4e6f7420616c6c6f77656420636f6e7472616374000000000000000000000000600082015250565b6000615a7a601483615a33565b9150615a8582615a44565b602082019050919050565b60006020820190508181036000830152615aa981615a6d565b9050919050565b7f4e6f7420616374696f6e7320636f6e7472616374000000000000000000000000600082015250565b6000615ae6601483615a33565b9150615af182615ab0565b602082019050919050565b60006020820190508181036000830152615b1581615ad9565b9050919050565b6000606082019050615b316000830185614d66565b615b3e602083018461512a565b9392505050565b600060408284031215615b5b57615b5a615644565b5b615b65604061568b565b90506000615b75848285016156f7565b6000830152506020615b89848285016156f7565b60208301525092915050565b600060408284031215615bab57615baa61484e565b5b6000615bb984828501615b45565b91505092915050565b7f4f776e61626c653a206e6577206f776e657220697320746865207a65726f206160008201527f6464726573730000000000000000000000000000000000000000000000000000602082015250565b6000615c1e602683615a33565b9150615c2982615bc2565b604082019050919050565b60006020820190508181036000830152615c4d81615c11565b9050919050565b7f4e6f7420706c6179657220636f6e747261637400000000000000000000000000600082015250565b6000615c8a601383615a33565b9150615c9582615c54565b602082019050919050565b60006020820190508181036000830152615cb981615c7d565b9050919050565b6000604082019050615cd5600083018561511b565b615ce2602083018461511b565b9392505050565b6000615cf482614962565b9150615cff83614962565b9250828201905060ff811115615d1857615d17615577565b5b92915050565b7f4f776e61626c653a2063616c6c6572206973206e6f7420746865206f776e6572600082015250565b6000615d54602083615a33565b9150615d5f82615d1e565b602082019050919050565b60006020820190508181036000830152615d8381615d47565b9050919050565b600060208284031215615da057615d9f61484e565b5b6000615dae848285016156cb565b91505092915050565b6000615dc282614853565b915060008203615dd557615dd4615577565b5b600182039050919050565b6000819050919050565b6000615e05615e00615dfb84615de0565b614e82565b614962565b9050919050565b615e1581615dea565b82525050565b6000604082019050615e306000830185615999565b615e3d6020830184615e0c565b9392505050565b6000819050919050565b6000615e5982615e44565b91507f80000000000000000000000000000000000000000000000000000000000000008203615e8b57615e8a615577565b5b600182039050919050565b6000615ea182615e44565b91507f7fffffffffffffffffffffffffffffffffffffffffffffffffffffffffffffff8203615ed357615ed2615577565b5b600182019050919050565b6000608082019050615ef3600083018561512a565b615f00604083018461512a565b939250505056fea26469706673582212208b0946a4c5155bdddba9ab3b53e657f7e691d85653f6a9f109f70e0dd0eda8fc64736f6c63430008110033",
  "devdoc": {
    "kind": "dev",
    "methods": {
      "owner()": {
        "details": "Returns the address of the current owner."
      },
      "renounceOwnership()": {
        "details": "Leaves the contract without owner. It will not be possible to call `onlyOwner` functions anymore. Can only be called by the current owner. NOTE: Renouncing ownership will leave the contract without an owner, thereby removing any functionality that is only available to the owner."
      },
      "transferOwnership(address)": {
        "details": "Transfers ownership of the contract to a new account (`newOwner`). Can only be called by the current owner."
      }
    },
    "version": 1
  },
  "userdoc": {
    "kind": "user",
    "methods": {},
    "version": 1
  },
  "storageLayout": {
    "storage": [
      {
        "astId": 7,
        "contract": "contracts/BCMaps.sol:Maps",
        "label": "_owner",
        "offset": 0,
        "slot": "0",
        "type": "t_address"
      },
      {
        "astId": 6717,
        "contract": "contracts/BCMaps.sol:Maps",
        "label": "game",
        "offset": 0,
        "slot": "1",
        "type": "t_address"
      },
      {
        "astId": 6720,
        "contract": "contracts/BCMaps.sol:Maps",
        "label": "utils",
        "offset": 0,
        "slot": "2",
        "type": "t_contract(UtilsInterface)6713"
      },
      {
        "astId": 6723,
        "contract": "contracts/BCMaps.sol:Maps",
        "label": "roomTiles",
        "offset": 0,
        "slot": "3",
        "type": "t_contract(RoomTileInterface)6674"
      },
      {
        "astId": 6725,
        "contract": "contracts/BCMaps.sol:Maps",
        "label": "actionsAddress",
        "offset": 0,
        "slot": "4",
        "type": "t_address"
      },
      {
        "astId": 6727,
        "contract": "contracts/BCMaps.sol:Maps",
        "label": "playersAddress",
        "offset": 0,
        "slot": "5",
        "type": "t_address"
      },
      {
        "astId": 6771,
        "contract": "contracts/BCMaps.sol:Maps",
        "label": "gameTiles",
        "offset": 0,
        "slot": "6",
        "type": "t_array(t_struct(GameTile)10126_storage)dyn_storage"
      },
      {
        "astId": 6775,
        "contract": "contracts/BCMaps.sol:Maps",
        "label": "maps",
        "offset": 0,
        "slot": "7",
        "type": "t_array(t_struct(Map)10163_storage)dyn_storage"
      }
    ],
    "types": {
      "t_address": {
        "encoding": "inplace",
        "label": "address",
        "numberOfBytes": "20"
      },
      "t_array(t_struct(GameTile)10126_storage)dyn_storage": {
        "base": "t_struct(GameTile)10126_storage",
        "encoding": "dynamic_array",
        "label": "struct BCTypes.GameTile[]",
        "numberOfBytes": "32"
      },
      "t_array(t_struct(Map)10163_storage)dyn_storage": {
        "base": "t_struct(Map)10163_storage",
        "encoding": "dynamic_array",
        "label": "struct BCTypes.Map[]",
        "numberOfBytes": "32"
      },
      "t_array(t_uint256)4_storage": {
        "base": "t_uint256",
        "encoding": "inplace",
        "label": "uint256[4]",
        "numberOfBytes": "128"
      },
      "t_bool": {
        "encoding": "inplace",
        "label": "bool",
        "numberOfBytes": "1"
      },
      "t_contract(RoomTileInterface)6674": {
        "encoding": "inplace",
        "label": "contract RoomTileInterface",
        "numberOfBytes": "20"
      },
      "t_contract(UtilsInterface)6713": {
        "encoding": "inplace",
        "label": "contract UtilsInterface",
        "numberOfBytes": "20"
      },
      "t_enum(BCEventType)10055": {
        "encoding": "inplace",
        "label": "enum BCTypes.BCEventType",
        "numberOfBytes": "1"
      },
      "t_enum(DoorStatus)10038": {
        "encoding": "inplace",
        "label": "enum BCTypes.DoorStatus",
        "numberOfBytes": "1"
      },
      "t_mapping(t_uint256,t_bool)": {
        "encoding": "mapping",
        "key": "t_uint256",
        "label": "mapping(uint256 => bool)",
        "numberOfBytes": "32",
        "value": "t_bool"
      },
      "t_mapping(t_uint256,t_mapping(t_uint256,t_struct(GameTile)10126_storage))": {
        "encoding": "mapping",
        "key": "t_uint256",
        "label": "mapping(uint256 => mapping(uint256 => struct BCTypes.GameTile))",
        "numberOfBytes": "32",
        "value": "t_mapping(t_uint256,t_struct(GameTile)10126_storage)"
      },
      "t_mapping(t_uint256,t_struct(Door)10134_storage)": {
        "encoding": "mapping",
        "key": "t_uint256",
        "label": "mapping(uint256 => struct BCTypes.Door)",
        "numberOfBytes": "32",
        "value": "t_struct(Door)10134_storage"
      },
      "t_mapping(t_uint256,t_struct(GameTile)10126_storage)": {
        "encoding": "mapping",
        "key": "t_uint256",
        "label": "mapping(uint256 => struct BCTypes.GameTile)",
        "numberOfBytes": "32",
        "value": "t_struct(GameTile)10126_storage"
      },
      "t_mapping(t_uint256,t_struct(RoomTile)10211_storage)": {
        "encoding": "mapping",
        "key": "t_uint256",
        "label": "mapping(uint256 => struct BCTypes.RoomTile)",
        "numberOfBytes": "32",
        "value": "t_struct(RoomTile)10211_storage"
      },
      "t_struct(Door)10134_storage": {
        "encoding": "inplace",
        "label": "struct BCTypes.Door",
        "members": [
          {
            "astId": 10128,
            "contract": "contracts/BCMaps.sol:Maps",
            "label": "vsBreach",
            "offset": 0,
            "slot": "0",
            "type": "t_uint8"
          },
          {
            "astId": 10130,
            "contract": "contracts/BCMaps.sol:Maps",
            "label": "vsHack",
            "offset": 1,
            "slot": "0",
            "type": "t_uint8"
          },
          {
            "astId": 10133,
            "contract": "contracts/BCMaps.sol:Maps",
            "label": "status",
            "offset": 2,
            "slot": "0",
            "type": "t_enum(DoorStatus)10038"
          }
        ],
        "numberOfBytes": "32"
      },
      "t_struct(GameTile)10126_storage": {
        "encoding": "inplace",
        "label": "struct BCTypes.GameTile",
        "members": [
          {
            "astId": 10111,
            "contract": "contracts/BCMaps.sol:Maps",
            "label": "roomId",
            "offset": 0,
            "slot": "0",
            "type": "t_uint8"
          },
          {
            "astId": 10113,
            "contract": "contracts/BCMaps.sol:Maps",
            "label": "parentId",
            "offset": 1,
            "slot": "0",
            "type": "t_uint8"
          },
          {
            "astId": 10117,
            "contract": "contracts/BCMaps.sol:Maps",
            "label": "doors",
            "offset": 0,
            "slot": "1",
            "type": "t_array(t_uint256)4_storage"
          },
          {
            "astId": 10119,
            "contract": "contracts/BCMaps.sol:Maps",
            "label": "explored",
            "offset": 0,
            "slot": "5",
            "type": "t_bool"
          },
          {
            "astId": 10121,
            "contract": "contracts/BCMaps.sol:Maps",
            "label": "looted",
            "offset": 1,
            "slot": "5",
            "type": "t_bool"
          },
          {
            "astId": 10123,
            "contract": "contracts/BCMaps.sol:Maps",
            "label": "hasVent",
            "offset": 2,
            "slot": "5",
            "type": "t_bool"
          },
          {
            "astId": 10125,
            "contract": "contracts/BCMaps.sol:Maps",
            "label": "hasHazard",
            "offset": 3,
            "slot": "5",
            "type": "t_bool"
          }
        ],
        "numberOfBytes": "192"
      },
      "t_struct(Map)10163_storage": {
        "encoding": "inplace",
        "label": "struct BCTypes.Map",
        "members": [
          {
            "astId": 10139,
            "contract": "contracts/BCMaps.sol:Maps",
            "label": "roomList",
            "offset": 0,
            "slot": "0",
            "type": "t_mapping(t_uint256,t_struct(RoomTile)10211_storage)"
          },
          {
            "astId": 10141,
            "contract": "contracts/BCMaps.sol:Maps",
            "label": "numRooms",
            "offset": 0,
            "slot": "1",
            "type": "t_uint8"
          },
          {
            "astId": 10145,
            "contract": "contracts/BCMaps.sol:Maps",
            "label": "usedRooms",
            "offset": 0,
            "slot": "2",
            "type": "t_mapping(t_uint256,t_bool)"
          },
          {
            "astId": 10152,
            "contract": "contracts/BCMaps.sol:Maps",
            "label": "board",
            "offset": 0,
            "slot": "3",
            "type": "t_mapping(t_uint256,t_mapping(t_uint256,t_struct(GameTile)10126_storage))"
          },
          {
            "astId": 10157,
            "contract": "contracts/BCMaps.sol:Maps",
            "label": "doors",
            "offset": 0,
            "slot": "4",
            "type": "t_mapping(t_uint256,t_struct(Door)10134_storage)"
          },
          {
            "astId": 10159,
            "contract": "contracts/BCMaps.sol:Maps",
            "label": "numDoors",
            "offset": 0,
            "slot": "5",
            "type": "t_uint8"
          },
          {
            "astId": 10162,
            "contract": "contracts/BCMaps.sol:Maps",
            "label": "startPosition",
            "offset": 0,
            "slot": "6",
            "type": "t_struct(Position)10109_storage"
          }
        ],
        "numberOfBytes": "224"
      },
      "t_struct(Position)10109_storage": {
        "encoding": "inplace",
        "label": "struct BCTypes.Position",
        "members": [
          {
            "astId": 10106,
            "contract": "contracts/BCMaps.sol:Maps",
            "label": "row",
            "offset": 0,
            "slot": "0",
            "type": "t_uint8"
          },
          {
            "astId": 10108,
            "contract": "contracts/BCMaps.sol:Maps",
            "label": "col",
            "offset": 1,
            "slot": "0",
            "type": "t_uint8"
          }
        ],
        "numberOfBytes": "32"
      },
      "t_struct(RoomTile)10211_storage": {
        "encoding": "inplace",
        "label": "struct BCTypes.RoomTile",
        "members": [
          {
            "astId": 10202,
            "contract": "contracts/BCMaps.sol:Maps",
            "label": "eventType",
            "offset": 0,
            "slot": "0",
            "type": "t_enum(BCEventType)10055"
          },
          {
            "astId": 10204,
            "contract": "contracts/BCMaps.sol:Maps",
            "label": "eventNum",
            "offset": 0,
            "slot": "1",
            "type": "t_uint256"
          },
          {
            "astId": 10206,
            "contract": "contracts/BCMaps.sol:Maps",
            "label": "numItems",
            "offset": 0,
            "slot": "2",
            "type": "t_uint8"
          },
          {
            "astId": 10208,
            "contract": "contracts/BCMaps.sol:Maps",
            "label": "numData",
            "offset": 1,
            "slot": "2",
            "type": "t_uint8"
          },
          {
            "astId": 10210,
            "contract": "contracts/BCMaps.sol:Maps",
            "label": "sigDetected",
            "offset": 2,
            "slot": "2",
            "type": "t_bool"
          }
        ],
        "numberOfBytes": "96"
      },
      "t_uint256": {
        "encoding": "inplace",
        "label": "uint256",
        "numberOfBytes": "32"
      },
      "t_uint8": {
        "encoding": "inplace",
        "label": "uint8",
        "numberOfBytes": "1"
      }
    }
  }
}