{
  "address": "0x57dFe9d2fDB7210B0fC68BF9951fe7fac08c64D0",
  "abi": [
    {
      "anonymous": false,
      "inputs": [
        {
          "indexed": true,
          "internalType": "address",
          "name": "previousOwner",
          "type": "address"
        },
        {
          "indexed": true,
          "internalType": "address",
          "name": "newOwner",
          "type": "address"
        }
      ],
      "name": "OwnershipTransferred",
      "type": "event"
    },
    {
      "inputs": [],
      "name": "createMap",
      "outputs": [
        {
          "internalType": "uint256",
          "name": "",
          "type": "uint256"
        }
      ],
      "stateMutability": "nonpayable",
      "type": "function"
    },
    {
      "inputs": [
        {
          "internalType": "uint256",
          "name": "_mapId",
          "type": "uint256"
        },
        {
          "internalType": "uint256",
          "name": "_row",
          "type": "uint256"
        },
        {
          "internalType": "uint256",
          "name": "_col",
          "type": "uint256"
        }
      ],
      "name": "discoverRoom",
      "outputs": [
        {
          "internalType": "bool",
          "name": "",
          "type": "bool"
        }
      ],
      "stateMutability": "nonpayable",
      "type": "function"
    },
    {
      "inputs": [
        {
          "internalType": "uint256",
          "name": "_mapId",
          "type": "uint256"
        }
      ],
      "name": "extGetBoard",
      "outputs": [
        {
          "components": [
            {
              "internalType": "uint8",
              "name": "roomId",
              "type": "uint8"
            },
            {
              "internalType": "uint8",
              "name": "parentId",
              "type": "uint8"
            },
            {
              "internalType": "uint256[4]",
              "name": "doors",
              "type": "uint256[4]"
            },
            {
              "internalType": "bool",
              "name": "explored",
              "type": "bool"
            },
            {
              "internalType": "bool",
              "name": "looted",
              "type": "bool"
            },
            {
              "internalType": "bool",
              "name": "hasVent",
              "type": "bool"
            }
          ],
          "internalType": "struct BCTypes.GameTile[][]",
          "name": "",
          "type": "tuple[][]"
        }
      ],
      "stateMutability": "view",
      "type": "function"
    },
    {
      "inputs": [
        {
          "internalType": "uint256",
          "name": "_mapId",
          "type": "uint256"
        }
      ],
      "name": "extGetDoors",
      "outputs": [
        {
          "components": [
            {
              "internalType": "uint8",
              "name": "vsBreach",
              "type": "uint8"
            },
            {
              "internalType": "uint8",
              "name": "vsHack",
              "type": "uint8"
            },
            {
              "internalType": "enum BCTypes.DoorStatus",
              "name": "status",
              "type": "uint8"
            }
          ],
          "internalType": "struct BCTypes.Door[]",
          "name": "",
          "type": "tuple[]"
        }
      ],
      "stateMutability": "view",
      "type": "function"
    },
    {
      "inputs": [
        {
          "internalType": "uint256",
          "name": "_mapId",
          "type": "uint256"
        },
        {
          "internalType": "uint256",
          "name": "_row",
          "type": "uint256"
        },
        {
          "internalType": "uint256",
          "name": "_col",
          "type": "uint256"
        }
      ],
      "name": "extGetGameTile",
      "outputs": [
        {
          "components": [
            {
              "internalType": "uint8",
              "name": "roomId",
              "type": "uint8"
            },
            {
              "internalType": "uint8",
              "name": "parentId",
              "type": "uint8"
            },
            {
              "internalType": "uint256[4]",
              "name": "doors",
              "type": "uint256[4]"
            },
            {
              "internalType": "bool",
              "name": "explored",
              "type": "bool"
            },
            {
              "internalType": "bool",
              "name": "looted",
              "type": "bool"
            },
            {
              "internalType": "bool",
              "name": "hasVent",
              "type": "bool"
            }
          ],
          "internalType": "struct BCTypes.GameTile",
          "name": "",
          "type": "tuple"
        }
      ],
      "stateMutability": "view",
      "type": "function"
    },
    {
      "inputs": [],
      "name": "game",
      "outputs": [
        {
          "internalType": "contract GameInterface",
          "name": "",
          "type": "address"
        }
      ],
      "stateMutability": "view",
      "type": "function"
    },
    {
      "inputs": [
        {
          "internalType": "uint256",
          "name": "_mapId",
          "type": "uint256"
        },
        {
          "internalType": "uint256",
          "name": "_row",
          "type": "uint256"
        },
        {
          "internalType": "uint256",
          "name": "_col",
          "type": "uint256"
        },
        {
          "internalType": "uint256",
          "name": "_direction",
          "type": "uint256"
        }
      ],
      "name": "getDoor",
      "outputs": [
        {
          "components": [
            {
              "internalType": "uint8",
              "name": "vsBreach",
              "type": "uint8"
            },
            {
              "internalType": "uint8",
              "name": "vsHack",
              "type": "uint8"
            },
            {
              "internalType": "enum BCTypes.DoorStatus",
              "name": "status",
              "type": "uint8"
            }
          ],
          "internalType": "struct BCTypes.Door",
          "name": "",
          "type": "tuple"
        }
      ],
      "stateMutability": "view",
      "type": "function"
    },
    {
      "inputs": [
        {
          "internalType": "uint256",
          "name": "",
          "type": "uint256"
        }
      ],
      "name": "maps",
      "outputs": [
        {
          "internalType": "uint8",
          "name": "numRooms",
          "type": "uint8"
        },
        {
          "internalType": "uint8",
          "name": "numDoors",
          "type": "uint8"
        },
        {
          "components": [
            {
              "internalType": "uint8",
              "name": "row",
              "type": "uint8"
            },
            {
              "internalType": "uint8",
              "name": "col",
              "type": "uint8"
            }
          ],
          "internalType": "struct BCTypes.Position",
          "name": "startPosition",
          "type": "tuple"
        }
      ],
      "stateMutability": "view",
      "type": "function"
    },
    {
      "inputs": [],
      "name": "owner",
      "outputs": [
        {
          "internalType": "address",
          "name": "",
          "type": "address"
        }
      ],
      "stateMutability": "view",
      "type": "function"
    },
    {
      "inputs": [],
      "name": "renounceOwnership",
      "outputs": [],
      "stateMutability": "nonpayable",
      "type": "function"
    },
    {
      "inputs": [
        {
          "internalType": "uint256",
          "name": "_mapId",
          "type": "uint256"
        }
      ],
      "name": "resetOpenDoors",
      "outputs": [],
      "stateMutability": "nonpayable",
      "type": "function"
    },
    {
      "inputs": [],
      "name": "roomTiles",
      "outputs": [
        {
          "internalType": "contract RoomTileInterface",
          "name": "",
          "type": "address"
        }
      ],
      "stateMutability": "view",
      "type": "function"
    },
    {
      "inputs": [
        {
          "internalType": "address",
          "name": "_gameAddress",
          "type": "address"
        },
        {
          "internalType": "address",
          "name": "_utilsAddress",
          "type": "address"
        },
        {
          "internalType": "address",
          "name": "_roomTilesAddress",
          "type": "address"
        }
      ],
      "name": "setContractAddresses",
      "outputs": [],
      "stateMutability": "nonpayable",
      "type": "function"
    },
    {
      "inputs": [
        {
          "internalType": "uint256",
          "name": "_mapId",
          "type": "uint256"
        },
        {
          "internalType": "uint256",
          "name": "_row",
          "type": "uint256"
        },
        {
          "internalType": "uint256",
          "name": "_col",
          "type": "uint256"
        },
        {
          "internalType": "uint256",
          "name": "_direction",
          "type": "uint256"
        },
        {
          "internalType": "enum BCTypes.DoorStatus",
          "name": "_status",
          "type": "uint8"
        }
      ],
      "name": "setDoorFromPos",
      "outputs": [],
      "stateMutability": "nonpayable",
      "type": "function"
    },
    {
      "inputs": [
        {
          "internalType": "address",
          "name": "newOwner",
          "type": "address"
        }
      ],
      "name": "transferOwnership",
      "outputs": [],
      "stateMutability": "nonpayable",
      "type": "function"
    },
    {
      "inputs": [],
      "name": "utils",
      "outputs": [
        {
          "internalType": "contract UtilsInterface",
          "name": "",
          "type": "address"
        }
      ],
      "stateMutability": "view",
      "type": "function"
    }
  ],
  "transactionHash": "0xc5d838953a547d100df4b9c97caf52b3c11ef6798fdd9921d66e6b87d47ca965",
  "args": [],
  "numDeployments": 3,
  "solcInputHash": "b9f60b6777da9311812fc48d4fd47d64",
  "bytecode": "0x60806040523480156200001157600080fd5b5062000032620000266200003860201b60201c565b6200004060201b60201c565b62000104565b600033905090565b60008060009054906101000a900473ffffffffffffffffffffffffffffffffffffffff169050816000806101000a81548173ffffffffffffffffffffffffffffffffffffffff021916908373ffffffffffffffffffffffffffffffffffffffff1602179055508173ffffffffffffffffffffffffffffffffffffffff168173ffffffffffffffffffffffffffffffffffffffff167f8be0079c531659141344cd1fd0a4f28419497f9722a3daafe3b4186f6b6457e060405160405180910390a35050565b61474780620001146000396000f3fe608060405234801561001057600080fd5b50600436106101005760003560e01c80638ab6338011610097578063f01fc35a11610066578063f01fc35a146102af578063f2fde38b146102cd578063f7157f64146102e9578063f9dfbfcb1461030757610100565b80638ab633801461023b5780638da5cb5b14610257578063b6cdd3b414610275578063c3fe3e281461029157610100565b806369568fd5116100d357806369568fd51461019f5780636ea1dcd8146101cf578063715018a6146101ff57806375990a0e1461020957610100565b80631ef0441614610105578063471b67591461013557806358308aa8146101655780635a29638d14610181575b600080fd5b61011f600480360381019061011a91906131ad565b610337565b60405161012c91906134ab565b60405180910390f35b61014f600480360381019061014a91906134cd565b6105c2565b60405161015c919061352f565b60405180910390f35b61017f600480360381019061017a91906131ad565b61071c565b005b6101896108d9565b60405161019691906135c9565b60405180910390f35b6101b960048036038101906101b491906131ad565b6108ff565b6040516101c6919061374c565b60405180910390f35b6101e960048036038101906101e4919061376e565b610a8b565b6040516101f69190613817565b60405180910390f35b610207610bf5565b005b610223600480360381019061021e91906131ad565b610c09565b60405161023293929190613870565b60405180910390f35b610255600480360381019061025091906138e5565b610ca1565b005b61025f610d71565b60405161026c9190613947565b60405180910390f35b61028f600480360381019061028a9190613987565b610d9a565b005b610299610f3a565b6040516102a69190613a23565b60405180910390f35b6102b7610f60565b6040516102c49190613a4d565b60405180910390f35b6102e760048036038101906102e29190613a68565b61117d565b005b6102f1611201565b6040516102fe9190613ab6565b60405180910390f35b610321600480360381019061031c91906134cd565b611227565b60405161032e9190613b4e565b60405180910390f35b60606000600967ffffffffffffffff81111561035657610355613b6a565b5b60405190808252806020026020018201604052801561038957816020015b60608152602001906001900390816103745790505b50905060005b600981101561041e57600967ffffffffffffffff8111156103b3576103b2613b6a565b5b6040519080825280602002602001820160405280156103ec57816020015b6103d9612f41565b8152602001906001900390816103d15790505b50828281518110610400576103ff613b99565b5b6020026020010181905250808061041690613bf7565b91505061038f565b5060005b60098110156105b85760005b60098110156105a4576005858154811061044b5761044a613b99565b5b9060005260206000209060070201600301600083815260200190815260200160002060008281526020019081526020016000206040518060c00160405290816000820160009054906101000a900460ff1660ff1660ff1681526020016000820160019054906101000a900460ff1660ff1660ff168152602001600182016004806020026040519081016040528092919082600480156104ff576020028201915b8154815260200190600101908083116104eb575b505050505081526020016005820160009054906101000a900460ff161515151581526020016005820160019054906101000a900460ff161515151581526020016005820160029054906101000a900460ff16151515158152505083838151811061056c5761056b613b99565b5b6020026020010151828151811061058657610585613b99565b5b6020026020010181905250808061059c90613bf7565b91505061042e565b5080806105b090613bf7565b915050610422565b5080915050919050565b6000600160009054906101000a900473ffffffffffffffffffffffffffffffffffffffff1673ffffffffffffffffffffffffffffffffffffffff163373ffffffffffffffffffffffffffffffffffffffff1614610654576040517f08c379a000000000000000000000000000000000000000000000000000000000815260040161064b90613c9d565b60405180910390fd5b60006005858154811061066a57610669613b99565b5b9060005260206000209060070201600301600085815260200190815260200160002060008481526020019081526020016000209050600160ff168160000160009054906101000a900460ff1660ff16141561070f576106e9600586815481106106d6576106d5613b99565b5b906000526020600020906007020161135a565b8160000160006101000a81548160ff021916908360ff1602179055506001915050610715565b60009150505b9392505050565b600160009054906101000a900473ffffffffffffffffffffffffffffffffffffffff1673ffffffffffffffffffffffffffffffffffffffff163373ffffffffffffffffffffffffffffffffffffffff16146107ac576040517f08c379a00000000000000000000000000000000000000000000000000000000081526004016107a390613c9d565b60405180910390fd5b60005b600582815481106107c3576107c2613b99565b5b906000526020600020906007020160050160009054906101000a900460ff1660ff168110156108d55760026004811115610800576107ff613610565b5b6005838154811061081457610813613b99565b5b9060005260206000209060070201600401600083815260200190815260200160002060000160029054906101000a900460ff16600481111561085957610858613610565b5b14156108c25760016005838154811061087557610874613b99565b5b9060005260206000209060070201600401600083815260200190815260200160002060000160026101000a81548160ff021916908360048111156108bc576108bb613610565b5b02179055505b80806108cd90613bf7565b9150506107af565b5050565b600260009054906101000a900473ffffffffffffffffffffffffffffffffffffffff1681565b606060006005838154811061091757610916613b99565b5b906000526020600020906007020160050160009054906101000a900460ff1660ff1667ffffffffffffffff81111561095257610951613b6a565b5b60405190808252806020026020018201604052801561098b57816020015b610978612f89565b8152602001906001900390816109705790505b50905060005b8151811015610a8157600584815481106109ae576109ad613b99565b5b906000526020600020906007020160040160008281526020019081526020016000206040518060600160405290816000820160009054906101000a900460ff1660ff1660ff1681526020016000820160019054906101000a900460ff1660ff1660ff1681526020016000820160029054906101000a900460ff166004811115610a3a57610a39613610565b5b6004811115610a4c57610a4b613610565b5b81525050828281518110610a6357610a62613b99565b5b60200260200101819052508080610a7990613bf7565b915050610991565b5080915050919050565b610a93612f89565b600060058681548110610aa957610aa8613b99565b5b906000526020600020906007020160030160008681526020019081526020016000206000858152602001908152602001600020600101600480602002604051908101604052809291908260048015610b16576020028201915b815481526020019060010190808311610b02575b5050505050905060058681548110610b3157610b30613b99565b5b90600052602060002090600702016004016000828560048110610b5757610b56613b99565b5b602002015181526020019081526020016000206040518060600160405290816000820160009054906101000a900460ff1660ff1660ff1681526020016000820160019054906101000a900460ff1660ff1660ff1681526020016000820160029054906101000a900460ff166004811115610bd457610bd3613610565b5b6004811115610be657610be5613610565b5b81525050915050949350505050565b610bfd6114ea565b610c076000611568565b565b60058181548110610c1957600080fd5b90600052602060002090600702016000915090508060010160009054906101000a900460ff16908060050160009054906101000a900460ff1690806006016040518060400160405290816000820160009054906101000a900460ff1660ff1660ff1681526020016000820160019054906101000a900460ff1660ff1660ff1681525050905083565b610ca96114ea565b82600160006101000a81548173ffffffffffffffffffffffffffffffffffffffff021916908373ffffffffffffffffffffffffffffffffffffffff16021790555081600260006101000a81548173ffffffffffffffffffffffffffffffffffffffff021916908373ffffffffffffffffffffffffffffffffffffffff16021790555080600360006101000a81548173ffffffffffffffffffffffffffffffffffffffff021916908373ffffffffffffffffffffffffffffffffffffffff160217905550505050565b60008060009054906101000a900473ffffffffffffffffffffffffffffffffffffffff16905090565b600160009054906101000a900473ffffffffffffffffffffffffffffffffffffffff1673ffffffffffffffffffffffffffffffffffffffff163373ffffffffffffffffffffffffffffffffffffffff1614610e2a576040517f08c379a0000000000000000000000000000000000000000000000000000000008152600401610e2190613c9d565b60405180910390fd5b600060058681548110610e4057610e3f613b99565b5b906000526020600020906007020160030160008681526020019081526020016000206000858152602001908152602001600020600101600480602002604051908101604052809291908260048015610ead576020028201915b815481526020019060010190808311610e99575b50505050509050600060058781548110610eca57610ec9613b99565b5b90600052602060002090600702016004016000838660048110610ef057610eef613b99565b5b602002015181526020019081526020016000209050828160000160026101000a81548160ff02191690836004811115610f2c57610f2b613610565b5b021790555050505050505050565b600160009054906101000a900473ffffffffffffffffffffffffffffffffffffffff1681565b6000600160009054906101000a900473ffffffffffffffffffffffffffffffffffffffff1673ffffffffffffffffffffffffffffffffffffffff163373ffffffffffffffffffffffffffffffffffffffff1614610ff2576040517f08c379a0000000000000000000000000000000000000000000000000000000008152600401610fe990613d09565b60405180910390fd5b6000600560018160018154018082558091505003906000526020600020906007020190506110228160000161162c565b8160010160006101000a81548160ff021916908360ff160217905550604051806060016040528060ff8016815260200160ff801681526020016000600481111561106f5761106e613610565b5b8152508160040160008360050160009054906101000a900460ff1660ff16815260200190815260200160002060008201518160000160006101000a81548160ff021916908360ff16021790555060208201518160000160016101000a81548160ff021916908360ff16021790555060408201518160000160026101000a81548160ff0219169083600481111561110857611107613610565b5b021790555090505080600501600081819054906101000a900460ff168092919061113190613d29565b91906101000a81548160ff021916908360ff1602179055505061115381611879565b61115c81611a5b565b61116581612b1e565b60016005805490506111779190613d53565b91505090565b6111856114ea565b600073ffffffffffffffffffffffffffffffffffffffff168173ffffffffffffffffffffffffffffffffffffffff1614156111f5576040517f08c379a00000000000000000000000000000000000000000000000000000000081526004016111ec90613df9565b60405180910390fd5b6111fe81611568565b50565b600360009054906101000a900473ffffffffffffffffffffffffffffffffffffffff1681565b61122f612f41565b6005848154811061124357611242613b99565b5b9060005260206000209060070201600301600084815260200190815260200160002060008381526020019081526020016000206040518060c00160405290816000820160009054906101000a900460ff1660ff1660ff1681526020016000820160019054906101000a900460ff1660ff1660ff168152602001600182016004806020026040519081016040528092919082600480156112f7576020028201915b8154815260200190600101908083116112e3575b505050505081526020016005820160009054906101000a900460ff161515151581526020016005820160019054906101000a900460ff161515151581526020016005820160029054906101000a900460ff16151515158152505090509392505050565b600080600260009054906101000a900473ffffffffffffffffffffffffffffffffffffffff1673ffffffffffffffffffffffffffffffffffffffff1663ce28613f600160026113a99190613e19565b60048660010160009054906101000a900460ff166113c79190613e6f565b6040518363ffffffff1660e01b81526004016113e4929190613ea3565b6020604051808303816000875af1158015611403573d6000803e3d6000fd5b505050506040513d601f19601f820116820180604052508101906114279190613ef8565b90505b600115158360020160008360ff16815260200190815260200160002060009054906101000a900460ff16151514156114b05760018360010160009054906101000a900460ff1661147a9190613e6f565b60ff168160ff16141561149c57600160026114959190613f25565b90506114ab565b80806114a790613d29565b9150505b61142a565b60018360020160008360ff16815260200190815260200160002060006101000a81548160ff02191690831515021790555080915050919050565b6114f2612f39565b73ffffffffffffffffffffffffffffffffffffffff16611510610d71565b73ffffffffffffffffffffffffffffffffffffffff1614611566576040517f08c379a000000000000000000000000000000000000000000000000000000000815260040161155d90613fa8565b60405180910390fd5b565b60008060009054906101000a900473ffffffffffffffffffffffffffffffffffffffff169050816000806101000a81548173ffffffffffffffffffffffffffffffffffffffff021916908373ffffffffffffffffffffffffffffffffffffffff1602179055508173ffffffffffffffffffffffffffffffffffffffff168173ffffffffffffffffffffffffffffffffffffffff167f8be0079c531659141344cd1fd0a4f28419497f9722a3daafe3b4186f6b6457e060405160405180910390a35050565b600080600360009054906101000a900473ffffffffffffffffffffffffffffffffffffffff1673ffffffffffffffffffffffffffffffffffffffff166338fdf0bd6040518163ffffffff1660e01b8152600401602060405180830381865afa15801561169c573d6000803e3d6000fd5b505050506040513d601f19601f820116820180604052508101906116c09190613fdd565b905060005b8181101561186f57600360009054906101000a900473ffffffffffffffffffffffffffffffffffffffff1673ffffffffffffffffffffffffffffffffffffffff166382753ebe826040518263ffffffff1660e01b81526004016117289190613a4d565b600060405180830381865afa158015611745573d6000803e3d6000fd5b505050506040513d6000823e3d601f19601f8201168201806040525081019061176e9190614270565b846000838152602001908152602001600020600082015181600001908051906020019061179c929190612fc2565b5060208201518160010160006101000a81548160ff021916908360048111156117c8576117c7613610565b5b02179055506040820151816002015560608201518160030160006101000a81548160ff021916908360ff16021790555060808201518160030160016101000a81548160ff021916908360ff16021790555060a08201518160030160026101000a81548160ff02191690831515021790555060c08201518160030160036101000a81548160ff021916908315150217905550905050808061186790613bf7565b9150506116c5565b5080915050919050565b6000600460018160018154018082558091505003906000526020600020906006020190506000600160096118ad9190613d53565b905060006001600260096118c191906142e8565b6118cb9190613e19565b905060405180604001604052808360ff1681526020018260ff168152508460060160008201518160000160006101000a81548160ff021916908360ff16021790555060208201518160000160016101000a81548160ff021916908360ff1602179055509050508284600301600084815260200190815260200160002060008381526020019081526020016000206000820160009054906101000a900460ff168160000160006101000a81548160ff021916908360ff1602179055506000820160019054906101000a900460ff168160000160016101000a81548160ff021916908360ff16021790555060018201816001019060046119ca929190613048565b506005820160009054906101000a900460ff168160050160006101000a81548160ff0219169083151502179055506005820160019054906101000a900460ff168160050160016101000a81548160ff0219169083151502179055506005820160029054906101000a900460ff168160050160026101000a81548160ff02191690831515021790555090505050505050565b60008060028360010160009054906101000a900460ff16611a7c9190613e6f565b60ff1690506000600190506000611a91613085565b6001818760060160000160009054906101000a900460ff1660ff1660098110611abd57611abc613b99565b5b60200201518760060160000160019054906101000a900460ff1660ff1660098110611aeb57611aea613b99565b5b602002019015159081151581525050611b026130b3565b866006016040518060400160405290816000820160009054906101000a900460ff1660ff1660ff1681526020016000820160019054906101000a900460ff1660ff1660ff16815250508187601e8110611b5e57611b5d613b99565b5b60200201819052508580611b7190613bf7565b9650505b600086118015611b855750600085115b15612a1f57600081600188611b9a9190613d53565b601e8110611bab57611baa613b99565b5b602002015190508680611bbd90614319565b9750508187601e8110611bd357611bd2613b99565b5b60200201611bdf6130e1565b8152508580611bed90614319565b9650508480611bfb90614319565b9550506001886003016000836000015160ff1681526020019081526020016000206000836020015160ff16815260200190815260200160002060000160006101000a81548160ff021916908360ff1602179055506021600260009054906101000a900473ffffffffffffffffffffffffffffffffffffffff1673ffffffffffffffffffffffffffffffffffffffff1663ce28613f600060636040518363ffffffff1660e01b8152600401611cb09291906143b9565b6020604051808303816000875af1158015611ccf573d6000803e3d6000fd5b505050506040513d601f19601f82011682018060405250810190611cf39190613ef8565b60ff161015611d4d576001886003016000836000015160ff1681526020019081526020016000206000836020015160ff16815260200190815260200160002060050160026101000a81548160ff0219169083151502179055505b60007fffffffffffffffffffffffffffffffffffffffffffffffffffffffffffffffff90505b60018113612a185760007fffffffffffffffffffffffffffffffffffffffffffffffffffffffffffffffff90505b60018113612a0457600260009054906101000a900473ffffffffffffffffffffffffffffffffffffffff1673ffffffffffffffffffffffffffffffffffffffff16631b5ac4b5826040518263ffffffff1660e01b8152600401611e0491906143fb565b602060405180830381865afa158015611e21573d6000803e3d6000fd5b505050506040513d601f19601f82011682018060405250810190611e459190614442565b600260009054906101000a900473ffffffffffffffffffffffffffffffffffffffff1673ffffffffffffffffffffffffffffffffffffffff16631b5ac4b5846040518263ffffffff1660e01b8152600401611ea091906143fb565b602060405180830381865afa158015611ebd573d6000803e3d6000fd5b505050506040513d601f19601f82011682018060405250810190611ee19190614442565b1415611eec576129f1565b600082846000015160000b611f01919061446f565b9050600082856020015160000b611f18919061446f565b90506001821280611f295750600181125b80611f40575060026009611f3d9190613d53565b82135b80611f57575060026009611f549190613d53565b81135b15611f635750506129f1565b600060405180604001604052808460ff1681526020018360ff1681525090506000151588826000015160ff1660098110611fa057611f9f613b99565b5b6020020151826020015160ff1660098110611fbe57611fbd613b99565b5b6020020151151514806120b8575060008d6003016000886000015160ff1681526020019081526020016000206000886020015160ff168152602001908152602001600020600101600260009054906101000a900473ffffffffffffffffffffffffffffffffffffffff1673ffffffffffffffffffffffffffffffffffffffff1663fa3993c289856040518363ffffffff1660e01b8152600401612062929190614503565b602060405180830381865afa15801561207f573d6000803e3d6000fd5b505050506040513d601f19601f820116820180604052508101906120a39190613fdd565b600481106120b4576120b3613b99565b5b0154145b156129ed5760008a148061217e57508860ff1660426120d79190613d53565b600260009054906101000a900473ffffffffffffffffffffffffffffffffffffffff1673ffffffffffffffffffffffffffffffffffffffff1663ce28613f600060636040518363ffffffff1660e01b81526004016121369291906143b9565b6020604051808303816000875af1158015612155573d6000803e3d6000fd5b505050506040513d601f19601f820116820180604052508101906121799190613ef8565b60ff16105b156129e7576040518060600160405280600260009054906101000a900473ffffffffffffffffffffffffffffffffffffffff1673ffffffffffffffffffffffffffffffffffffffff1663ce28613f600060036040518363ffffffff1660e01b81526004016121ed92919061452c565b6020604051808303816000875af115801561220c573d6000803e3d6000fd5b505050506040513d601f19601f820116820180604052508101906122309190613ef8565b60ff168152602001600260009054906101000a900473ffffffffffffffffffffffffffffffffffffffff1673ffffffffffffffffffffffffffffffffffffffff1663ce28613f600060036040518363ffffffff1660e01b815260040161229792919061452c565b6020604051808303816000875af11580156122b6573d6000803e3d6000fd5b505050506040513d601f19601f820116820180604052508101906122da9190613ef8565b60ff168152602001600160048111156122f6576122f5613610565b5b8152508d60040160008f60050160009054906101000a900460ff1660ff16815260200190815260200160002060008201518160000160006101000a81548160ff021916908360ff16021790555060208201518160000160016101000a81548160ff021916908360ff16021790555060408201518160000160026101000a81548160ff0219169083600481111561238f5761238e613610565b5b02179055509050508c600501600081819054906101000a900460ff16809291906123b890613d29565b91906101000a81548160ff021916908360ff160217905550506016896123de9190613f25565b985080878d601e81106123f4576123f3613b99565b5b60200201819052508b8061240790613bf7565b9c5050898061241590613bf7565b9a5050600188826000015160ff166009811061243457612433613b99565b5b6020020151826020015160ff166009811061245257612451613b99565b5b6020020190151590811515815250507fffffffffffffffffffffffffffffffffffffffffffffffffffffffffffffffff851480156124905750600084145b80156124e7575060008d6003016000886000015160ff1681526020019081526020016000206000886020015160ff1681526020019081526020016000206001016000600481106124e3576124e2613b99565b5b0154145b156125d15760018d60050160009054906101000a900460ff1661250a9190613e6f565b60ff168d6003016000886000015160ff1681526020019081526020016000206000886020015160ff16815260200190815260200160002060010160006004811061255757612556613b99565b5b018190555060018d60050160009054906101000a900460ff1661257a9190613e6f565b60ff168d6003016000836000015160ff1681526020019081526020016000206000836020015160ff1681526020019081526020016000206001016001600481106125c7576125c6613b99565b5b01819055506129e2565b6001851480156125e15750600084145b8015612638575060008d6003016000886000015160ff1681526020019081526020016000206000886020015160ff16815260200190815260200160002060010160016004811061263457612633613b99565b5b0154145b156127225760018d60050160009054906101000a900460ff1661265b9190613e6f565b60ff168d6003016000886000015160ff1681526020019081526020016000206000886020015160ff1681526020019081526020016000206001016001600481106126a8576126a7613b99565b5b018190555060018d60050160009054906101000a900460ff166126cb9190613e6f565b60ff168d6003016000836000015160ff1681526020019081526020016000206000836020015160ff16815260200190815260200160002060010160006004811061271857612717613b99565b5b01819055506129e1565b6001841480156127325750600085145b8015612789575060008d6003016000886000015160ff1681526020019081526020016000206000886020015160ff16815260200190815260200160002060010160026004811061278557612784613b99565b5b0154145b156128735760018d60050160009054906101000a900460ff166127ac9190613e6f565b60ff168d6003016000886000015160ff1681526020019081526020016000206000886020015160ff1681526020019081526020016000206001016002600481106127f9576127f8613b99565b5b018190555060018d60050160009054906101000a900460ff1661281c9190613e6f565b60ff168d6003016000836000015160ff1681526020019081526020016000206000836020015160ff16815260200190815260200160002060010160036004811061286957612868613b99565b5b01819055506129e0565b7fffffffffffffffffffffffffffffffffffffffffffffffffffffffffffffffff841480156128a25750600085145b80156128f9575060008d6003016000886000015160ff1681526020019081526020016000206000886020015160ff1681526020019081526020016000206001016003600481106128f5576128f4613b99565b5b0154145b156129df5760018d60050160009054906101000a900460ff1661291c9190613e6f565b60ff168d6003016000886000015160ff1681526020019081526020016000206000886020015160ff16815260200190815260200160002060010160036004811061296957612968613b99565b5b018190555060018d60050160009054906101000a900460ff1661298c9190613e6f565b60ff168d6003016000836000015160ff1681526020019081526020016000206000836020015160ff1681526020019081526020016000206001016002600481106129d9576129d8613b99565b5b01819055505b5b5b5b6129ec565b600098505b5b5050505b80806129fc90614555565b915050611da1565b508080612a1090614555565b915050611d73565b5050611b75565b60008514612a62576040517f08c379a0000000000000000000000000000000000000000000000000000000008152600401612a59906145ea565b60405180910390fd5b60028760030160008960060160000160009054906101000a900460ff1660ff16815260200190815260200160002060008960060160000160019054906101000a900460ff1660ff16815260200190815260200160002060000160006101000a81548160ff021916908360ff16021790555060038760040160006001815260200190815260200160002060000160026101000a81548160ff02191690836004811115612b1057612b0f613610565b5b021790555050505050505050565b60005b6009811015612f355760005b6009811015612f21576001836003016000848152602001908152602001600020600083815260200190815260200160002060000160009054906101000a900460ff1660ff161415612f0e5760005b6004811015612f0c57600084600301600085815260200190815260200160002060008481526020019081526020016000206001018260048110612bc157612bc0613b99565b5b01541415612ef9576000600260009054906101000a900473ffffffffffffffffffffffffffffffffffffffff1673ffffffffffffffffffffffffffffffffffffffff1663951fc3fe8360405180604001604052808860ff1681526020018760ff168152506040518363ffffffff1660e01b8152600401612c4292919061460a565b6040805180830381865afa158015612c5e573d6000803e3d6000fd5b505050506040513d601f19601f82011682018060405250810190612c829190614683565b90506000856003016000836000015160ff1681526020019081526020016000206000836020015160ff16815260200190815260200160002060000160009054906101000a900460ff1660ff1690506042600260009054906101000a900473ffffffffffffffffffffffffffffffffffffffff1673ffffffffffffffffffffffffffffffffffffffff1663ce28613f600060636040518363ffffffff1660e01b8152600401612d319291906143b9565b6020604051808303816000875af1158015612d50573d6000803e3d6000fd5b505050506040513d601f19601f82011682018060405250810190612d749190613ef8565b60ff16108015612d845750600081145b15612ef657604051806060016040528060ff8016815260200160ff80168152602001600480811115612db957612db8613610565b5b8152508660040160008860050160009054906101000a900460ff1660ff16815260200190815260200160002060008201518160000160006101000a81548160ff021916908360ff16021790555060208201518160000160016101000a81548160ff021916908360ff16021790555060408201518160000160026101000a81548160ff02191690836004811115612e5257612e51613610565b5b021790555090505085600501600081819054906101000a900460ff1680929190612e7b90613d29565b91906101000a81548160ff021916908360ff1602179055505060018660050160009054906101000a900460ff16612eb29190613e6f565b60ff1686600301600087815260200190815260200160002060008681526020019081526020016000206001018460048110612ef057612eef613b99565b5b01819055505b50505b8080612f0490613bf7565b915050612b7b565b505b8080612f1990613bf7565b915050612b2d565b508080612f2d90613bf7565b915050612b21565b5050565b600033905090565b6040518060c00160405280600060ff168152602001600060ff168152602001612f68613101565b81526020016000151581526020016000151581526020016000151581525090565b6040518060600160405280600060ff168152602001600060ff16815260200160006004811115612fbc57612fbb613610565b5b81525090565b828054612fce906146df565b90600052602060002090601f016020900481019282612ff05760008555613037565b82601f1061300957805160ff1916838001178555613037565b82800160010185558215613037579182015b8281111561303657825182559160200191906001019061301b565b5b5090506130449190613123565b5090565b8260048101928215613074579182015b82811115613073578254825591600101919060010190613058565b5b5090506130819190613123565b5090565b6040518061012001604052806009905b61309d613140565b8152602001906001900390816130955790505090565b604051806103c00160405280601e905b6130cb6130e1565b8152602001906001900390816130c35790505090565b6040518060400160405280600060ff168152602001600060ff1681525090565b6040518060800160405280600490602082028036833780820191505090505090565b5b8082111561313c576000816000905550600101613124565b5090565b604051806101200160405280600990602082028036833780820191505090505090565b6000604051905090565b600080fd5b600080fd5b6000819050919050565b61318a81613177565b811461319557600080fd5b50565b6000813590506131a781613181565b92915050565b6000602082840312156131c3576131c261316d565b5b60006131d184828501613198565b91505092915050565b600081519050919050565b600082825260208201905092915050565b6000819050602082019050919050565b600081519050919050565b600082825260208201905092915050565b6000819050602082019050919050565b600060ff82169050919050565b61324881613232565b82525050565b600060049050919050565b600081905092915050565b6000819050919050565b61327781613177565b82525050565b6000613289838361326e565b60208301905092915050565b6000602082019050919050565b6132ab8161324e565b6132b58184613259565b92506132c082613264565b8060005b838110156132f15781516132d8878261327d565b96506132e383613295565b9250506001810190506132c4565b505050505050565b60008115159050919050565b61330e816132f9565b82525050565b6101208201600082015161332b600085018261323f565b50602082015161333e602085018261323f565b50604082015161335160408501826132a2565b50606082015161336460c0850182613305565b50608082015161337760e0850182613305565b5060a082015161338b610100850182613305565b50505050565b600061339d8383613314565b6101208301905092915050565b6000602082019050919050565b60006133c282613206565b6133cc8185613211565b93506133d783613222565b8060005b838110156134085781516133ef8882613391565b97506133fa836133aa565b9250506001810190506133db565b5085935050505092915050565b600061342183836133b7565b905092915050565b6000602082019050919050565b6000613441826131da565b61344b81856131e5565b93508360208202850161345d856131f6565b8060005b85811015613499578484038952815161347a8582613415565b945061348583613429565b925060208a01995050600181019050613461565b50829750879550505050505092915050565b600060208201905081810360008301526134c58184613436565b905092915050565b6000806000606084860312156134e6576134e561316d565b5b60006134f486828701613198565b935050602061350586828701613198565b925050604061351686828701613198565b9150509250925092565b613529816132f9565b82525050565b60006020820190506135446000830184613520565b92915050565b600073ffffffffffffffffffffffffffffffffffffffff82169050919050565b6000819050919050565b600061358f61358a6135858461354a565b61356a565b61354a565b9050919050565b60006135a182613574565b9050919050565b60006135b382613596565b9050919050565b6135c3816135a8565b82525050565b60006020820190506135de60008301846135ba565b92915050565b600081519050919050565b600082825260208201905092915050565b6000819050602082019050919050565b7f4e487b7100000000000000000000000000000000000000000000000000000000600052602160045260246000fd5b600581106136505761364f613610565b5b50565b60008190506136618261363f565b919050565b600061367182613653565b9050919050565b61368181613666565b82525050565b60608201600082015161369d600085018261323f565b5060208201516136b0602085018261323f565b5060408201516136c36040850182613678565b50505050565b60006136d58383613687565b60608301905092915050565b6000602082019050919050565b60006136f9826135e4565b61370381856135ef565b935061370e83613600565b8060005b8381101561373f57815161372688826136c9565b9750613731836136e1565b925050600181019050613712565b5085935050505092915050565b6000602082019050818103600083015261376681846136ee565b905092915050565b600080600080608085870312156137885761378761316d565b5b600061379687828801613198565b94505060206137a787828801613198565b93505060406137b887828801613198565b92505060606137c987828801613198565b91505092959194509250565b6060820160008201516137eb600085018261323f565b5060208201516137fe602085018261323f565b5060408201516138116040850182613678565b50505050565b600060608201905061382c60008301846137d5565b92915050565b61383b81613232565b82525050565b604082016000820151613857600085018261323f565b50602082015161386a602085018261323f565b50505050565b60006080820190506138856000830186613832565b6138926020830185613832565b61389f6040830184613841565b949350505050565b60006138b28261354a565b9050919050565b6138c2816138a7565b81146138cd57600080fd5b50565b6000813590506138df816138b9565b92915050565b6000806000606084860312156138fe576138fd61316d565b5b600061390c868287016138d0565b935050602061391d868287016138d0565b925050604061392e868287016138d0565b9150509250925092565b613941816138a7565b82525050565b600060208201905061395c6000830184613938565b92915050565b6005811061396f57600080fd5b50565b60008135905061398181613962565b92915050565b600080600080600060a086880312156139a3576139a261316d565b5b60006139b188828901613198565b95505060206139c288828901613198565b94505060406139d388828901613198565b93505060606139e488828901613198565b92505060806139f588828901613972565b9150509295509295909350565b6000613a0d82613596565b9050919050565b613a1d81613a02565b82525050565b6000602082019050613a386000830184613a14565b92915050565b613a4781613177565b82525050565b6000602082019050613a626000830184613a3e565b92915050565b600060208284031215613a7e57613a7d61316d565b5b6000613a8c848285016138d0565b91505092915050565b6000613aa082613596565b9050919050565b613ab081613a95565b82525050565b6000602082019050613acb6000830184613aa7565b92915050565b61012082016000820151613ae8600085018261323f565b506020820151613afb602085018261323f565b506040820151613b0e60408501826132a2565b506060820151613b2160c0850182613305565b506080820151613b3460e0850182613305565b5060a0820151613b48610100850182613305565b50505050565b600061012082019050613b646000830184613ad1565b92915050565b7f4e487b7100000000000000000000000000000000000000000000000000000000600052604160045260246000fd5b7f4e487b7100000000000000000000000000000000000000000000000000000000600052603260045260246000fd5b7f4e487b7100000000000000000000000000000000000000000000000000000000600052601160045260246000fd5b6000613c0282613177565b91507fffffffffffffffffffffffffffffffffffffffffffffffffffffffffffffffff821415613c3557613c34613bc8565b5b600182019050919050565b600082825260208201905092915050565b7f4e6f742067616d6520636f6e7472616374000000000000000000000000000000600082015250565b6000613c87601183613c40565b9150613c9282613c51565b602082019050919050565b60006020820190508181036000830152613cb681613c7a565b9050919050565b7f4f6e6c792067616d6520636f6e74726163742063616e20757365000000000000600082015250565b6000613cf3601a83613c40565b9150613cfe82613cbd565b602082019050919050565b60006020820190508181036000830152613d2281613ce6565b9050919050565b6000613d3482613232565b915060ff821415613d4857613d47613bc8565b5b600182019050919050565b6000613d5e82613177565b9150613d6983613177565b925082821015613d7c57613d7b613bc8565b5b828203905092915050565b7f4f776e61626c653a206e6577206f776e657220697320746865207a65726f206160008201527f6464726573730000000000000000000000000000000000000000000000000000602082015250565b6000613de3602683613c40565b9150613dee82613d87565b604082019050919050565b60006020820190508181036000830152613e1281613dd6565b9050919050565b6000613e2482613177565b9150613e2f83613177565b9250827fffffffffffffffffffffffffffffffffffffffffffffffffffffffffffffffff03821115613e6457613e63613bc8565b5b828201905092915050565b6000613e7a82613232565b9150613e8583613232565b925082821015613e9857613e97613bc8565b5b828203905092915050565b6000604082019050613eb86000830185613832565b613ec56020830184613832565b9392505050565b613ed581613232565b8114613ee057600080fd5b50565b600081519050613ef281613ecc565b92915050565b600060208284031215613f0e57613f0d61316d565b5b6000613f1c84828501613ee3565b91505092915050565b6000613f3082613232565b9150613f3b83613232565b92508260ff03821115613f5157613f50613bc8565b5b828201905092915050565b7f4f776e61626c653a2063616c6c6572206973206e6f7420746865206f776e6572600082015250565b6000613f92602083613c40565b9150613f9d82613f5c565b602082019050919050565b60006020820190508181036000830152613fc181613f85565b9050919050565b600081519050613fd781613181565b92915050565b600060208284031215613ff357613ff261316d565b5b600061400184828501613fc8565b91505092915050565b600080fd5b6000601f19601f8301169050919050565b6140298261400f565b810181811067ffffffffffffffff8211171561404857614047613b6a565b5b80604052505050565b600061405b613163565b90506140678282614020565b919050565b600080fd5b600080fd5b600080fd5b600067ffffffffffffffff82111561409657614095613b6a565b5b61409f8261400f565b9050602081019050919050565b60005b838110156140ca5780820151818401526020810190506140af565b838111156140d9576000848401525b50505050565b60006140f26140ed8461407b565b614051565b90508281526020810184848401111561410e5761410d614076565b5b6141198482856140ac565b509392505050565b600082601f83011261413657614135614071565b5b81516141468482602086016140df565b91505092915050565b6005811061415c57600080fd5b50565b60008151905061416e8161414f565b92915050565b61417d816132f9565b811461418857600080fd5b50565b60008151905061419a81614174565b92915050565b600060e082840312156141b6576141b561400a565b5b6141c060e0614051565b9050600082015167ffffffffffffffff8111156141e0576141df61406c565b5b6141ec84828501614121565b60008301525060206142008482850161415f565b602083015250604061421484828501613fc8565b604083015250606061422884828501613ee3565b606083015250608061423c84828501613ee3565b60808301525060a06142508482850161418b565b60a08301525060c06142648482850161418b565b60c08301525092915050565b6000602082840312156142865761428561316d565b5b600082015167ffffffffffffffff8111156142a4576142a3613172565b5b6142b0848285016141a0565b91505092915050565b7f4e487b7100000000000000000000000000000000000000000000000000000000600052601260045260246000fd5b60006142f382613177565b91506142fe83613177565b92508261430e5761430d6142b9565b5b828204905092915050565b600061432482613177565b9150600082141561433857614337613bc8565b5b600182039050919050565b6000819050919050565b600061436861436361435e84614343565b61356a565b613232565b9050919050565b6143788161434d565b82525050565b6000819050919050565b60006143a361439e6143998461437e565b61356a565b613232565b9050919050565b6143b381614388565b82525050565b60006040820190506143ce600083018561436f565b6143db60208301846143aa565b9392505050565b6000819050919050565b6143f5816143e2565b82525050565b600060208201905061441060008301846143ec565b92915050565b61441f816143e2565b811461442a57600080fd5b50565b60008151905061443c81614416565b92915050565b6000602082840312156144585761445761316d565b5b60006144668482850161442d565b91505092915050565b600061447a826143e2565b9150614485836143e2565b9250817f7fffffffffffffffffffffffffffffffffffffffffffffffffffffffffffffff038313600083121516156144c0576144bf613bc8565b5b817f80000000000000000000000000000000000000000000000000000000000000000383126000831216156144f8576144f7613bc8565b5b828201905092915050565b60006080820190506145186000830185613841565b6145256040830184613841565b9392505050565b6000604082019050614541600083018561436f565b61454e6020830184613832565b9392505050565b6000614560826143e2565b91507f7fffffffffffffffffffffffffffffffffffffffffffffffffffffffffffffff82141561459357614592613bc8565b5b600182019050919050565b7f426164206d617067656e00000000000000000000000000000000000000000000600082015250565b60006145d4600a83613c40565b91506145df8261459e565b602082019050919050565b60006020820190508181036000830152614603816145c7565b9050919050565b600060608201905061461f6000830185613a3e565b61462c6020830184613841565b9392505050565b6000604082840312156146495761464861400a565b5b6146536040614051565b9050600061466384828501613ee3565b600083015250602061467784828501613ee3565b60208301525092915050565b6000604082840312156146995761469861316d565b5b60006146a784828501614633565b91505092915050565b7f4e487b7100000000000000000000000000000000000000000000000000000000600052602260045260246000fd5b600060028204905060018216806146f757607f821691505b6020821081141561470b5761470a6146b0565b5b5091905056fea26469706673582212207dd8f68766abeb1b7a40e4b62b21d170ef552dfc6a5ce63dd50067fc416de6a964736f6c634300080c0033",
  "devdoc": {
    "kind": "dev",
    "methods": {
      "owner()": {
        "details": "Returns the address of the current owner."
      },
      "renounceOwnership()": {
        "details": "Leaves the contract without owner. It will not be possible to call `onlyOwner` functions anymore. Can only be called by the current owner. NOTE: Renouncing ownership will leave the contract without an owner, thereby removing any functionality that is only available to the owner."
      },
      "transferOwnership(address)": {
        "details": "Transfers ownership of the contract to a new account (`newOwner`). Can only be called by the current owner."
      }
    },
    "version": 1
  },
  "userdoc": {
    "kind": "user",
    "methods": {},
    "version": 1
  },
  "storageLayout": {
    "storage": [
      {
        "astId": 7,
        "contract": "contracts/BCMaps.sol:Maps",
        "label": "_owner",
        "offset": 0,
        "slot": "0",
        "type": "t_address"
      },
      {
        "astId": 4136,
        "contract": "contracts/BCMaps.sol:Maps",
        "label": "game",
        "offset": 0,
        "slot": "1",
        "type": "t_contract(GameInterface)4073"
      },
      {
        "astId": 4139,
        "contract": "contracts/BCMaps.sol:Maps",
        "label": "utils",
        "offset": 0,
        "slot": "2",
        "type": "t_contract(UtilsInterface)4131"
      },
      {
        "astId": 4142,
        "contract": "contracts/BCMaps.sol:Maps",
        "label": "roomTiles",
        "offset": 0,
        "slot": "3",
        "type": "t_contract(RoomTileInterface)4087"
      },
      {
        "astId": 4176,
        "contract": "contracts/BCMaps.sol:Maps",
        "label": "gameTiles",
        "offset": 0,
        "slot": "4",
        "type": "t_array(t_struct(GameTile)5653_storage)dyn_storage"
      },
      {
        "astId": 4180,
        "contract": "contracts/BCMaps.sol:Maps",
        "label": "maps",
        "offset": 0,
        "slot": "5",
        "type": "t_array(t_struct(Map)5690_storage)dyn_storage"
      }
    ],
    "types": {
      "t_address": {
        "encoding": "inplace",
        "label": "address",
        "numberOfBytes": "20"
      },
      "t_array(t_struct(GameTile)5653_storage)dyn_storage": {
        "base": "t_struct(GameTile)5653_storage",
        "encoding": "dynamic_array",
        "label": "struct BCTypes.GameTile[]",
        "numberOfBytes": "32"
      },
      "t_array(t_struct(Map)5690_storage)dyn_storage": {
        "base": "t_struct(Map)5690_storage",
        "encoding": "dynamic_array",
        "label": "struct BCTypes.Map[]",
        "numberOfBytes": "32"
      },
      "t_array(t_uint256)4_storage": {
        "base": "t_uint256",
        "encoding": "inplace",
        "label": "uint256[4]",
        "numberOfBytes": "128"
      },
      "t_bool": {
        "encoding": "inplace",
        "label": "bool",
        "numberOfBytes": "1"
      },
      "t_contract(GameInterface)4073": {
        "encoding": "inplace",
        "label": "contract GameInterface",
        "numberOfBytes": "20"
      },
      "t_contract(RoomTileInterface)4087": {
        "encoding": "inplace",
        "label": "contract RoomTileInterface",
        "numberOfBytes": "20"
      },
      "t_contract(UtilsInterface)4131": {
        "encoding": "inplace",
        "label": "contract UtilsInterface",
        "numberOfBytes": "20"
      },
      "t_enum(BCEventType)5723": {
        "encoding": "inplace",
        "label": "enum BCTypes.BCEventType",
        "numberOfBytes": "1"
      },
      "t_enum(DoorStatus)5578": {
        "encoding": "inplace",
        "label": "enum BCTypes.DoorStatus",
        "numberOfBytes": "1"
      },
      "t_mapping(t_uint256,t_bool)": {
        "encoding": "mapping",
        "key": "t_uint256",
        "label": "mapping(uint256 => bool)",
        "numberOfBytes": "32",
        "value": "t_bool"
      },
      "t_mapping(t_uint256,t_mapping(t_uint256,t_struct(GameTile)5653_storage))": {
        "encoding": "mapping",
        "key": "t_uint256",
        "label": "mapping(uint256 => mapping(uint256 => struct BCTypes.GameTile))",
        "numberOfBytes": "32",
        "value": "t_mapping(t_uint256,t_struct(GameTile)5653_storage)"
      },
      "t_mapping(t_uint256,t_struct(Door)5661_storage)": {
        "encoding": "mapping",
        "key": "t_uint256",
        "label": "mapping(uint256 => struct BCTypes.Door)",
        "numberOfBytes": "32",
        "value": "t_struct(Door)5661_storage"
      },
      "t_mapping(t_uint256,t_struct(GameTile)5653_storage)": {
        "encoding": "mapping",
        "key": "t_uint256",
        "label": "mapping(uint256 => struct BCTypes.GameTile)",
        "numberOfBytes": "32",
        "value": "t_struct(GameTile)5653_storage"
      },
      "t_mapping(t_uint256,t_struct(RoomTile)5739_storage)": {
        "encoding": "mapping",
        "key": "t_uint256",
        "label": "mapping(uint256 => struct BCTypes.RoomTile)",
        "numberOfBytes": "32",
        "value": "t_struct(RoomTile)5739_storage"
      },
      "t_string_storage": {
        "encoding": "bytes",
        "label": "string",
        "numberOfBytes": "32"
      },
      "t_struct(Door)5661_storage": {
        "encoding": "inplace",
        "label": "struct BCTypes.Door",
        "members": [
          {
            "astId": 5655,
            "contract": "contracts/BCMaps.sol:Maps",
            "label": "vsBreach",
            "offset": 0,
            "slot": "0",
            "type": "t_uint8"
          },
          {
            "astId": 5657,
            "contract": "contracts/BCMaps.sol:Maps",
            "label": "vsHack",
            "offset": 1,
            "slot": "0",
            "type": "t_uint8"
          },
          {
            "astId": 5660,
            "contract": "contracts/BCMaps.sol:Maps",
            "label": "status",
            "offset": 2,
            "slot": "0",
            "type": "t_enum(DoorStatus)5578"
          }
        ],
        "numberOfBytes": "32"
      },
      "t_struct(GameTile)5653_storage": {
        "encoding": "inplace",
        "label": "struct BCTypes.GameTile",
        "members": [
          {
            "astId": 5640,
            "contract": "contracts/BCMaps.sol:Maps",
            "label": "roomId",
            "offset": 0,
            "slot": "0",
            "type": "t_uint8"
          },
          {
            "astId": 5642,
            "contract": "contracts/BCMaps.sol:Maps",
            "label": "parentId",
            "offset": 1,
            "slot": "0",
            "type": "t_uint8"
          },
          {
            "astId": 5646,
            "contract": "contracts/BCMaps.sol:Maps",
            "label": "doors",
            "offset": 0,
            "slot": "1",
            "type": "t_array(t_uint256)4_storage"
          },
          {
            "astId": 5648,
            "contract": "contracts/BCMaps.sol:Maps",
            "label": "explored",
            "offset": 0,
            "slot": "5",
            "type": "t_bool"
          },
          {
            "astId": 5650,
            "contract": "contracts/BCMaps.sol:Maps",
            "label": "looted",
            "offset": 1,
            "slot": "5",
            "type": "t_bool"
          },
          {
            "astId": 5652,
            "contract": "contracts/BCMaps.sol:Maps",
            "label": "hasVent",
            "offset": 2,
            "slot": "5",
            "type": "t_bool"
          }
        ],
        "numberOfBytes": "192"
      },
      "t_struct(Map)5690_storage": {
        "encoding": "inplace",
        "label": "struct BCTypes.Map",
        "members": [
          {
            "astId": 5666,
            "contract": "contracts/BCMaps.sol:Maps",
            "label": "roomList",
            "offset": 0,
            "slot": "0",
            "type": "t_mapping(t_uint256,t_struct(RoomTile)5739_storage)"
          },
          {
            "astId": 5668,
            "contract": "contracts/BCMaps.sol:Maps",
            "label": "numRooms",
            "offset": 0,
            "slot": "1",
            "type": "t_uint8"
          },
          {
            "astId": 5672,
            "contract": "contracts/BCMaps.sol:Maps",
            "label": "usedRooms",
            "offset": 0,
            "slot": "2",
            "type": "t_mapping(t_uint256,t_bool)"
          },
          {
            "astId": 5679,
            "contract": "contracts/BCMaps.sol:Maps",
            "label": "board",
            "offset": 0,
            "slot": "3",
            "type": "t_mapping(t_uint256,t_mapping(t_uint256,t_struct(GameTile)5653_storage))"
          },
          {
            "astId": 5684,
            "contract": "contracts/BCMaps.sol:Maps",
            "label": "doors",
            "offset": 0,
            "slot": "4",
            "type": "t_mapping(t_uint256,t_struct(Door)5661_storage)"
          },
          {
            "astId": 5686,
            "contract": "contracts/BCMaps.sol:Maps",
            "label": "numDoors",
            "offset": 0,
            "slot": "5",
            "type": "t_uint8"
          },
          {
            "astId": 5689,
            "contract": "contracts/BCMaps.sol:Maps",
            "label": "startPosition",
            "offset": 0,
            "slot": "6",
            "type": "t_struct(Position)5638_storage"
          }
        ],
        "numberOfBytes": "224"
      },
      "t_struct(Position)5638_storage": {
        "encoding": "inplace",
        "label": "struct BCTypes.Position",
        "members": [
          {
            "astId": 5635,
            "contract": "contracts/BCMaps.sol:Maps",
            "label": "row",
            "offset": 0,
            "slot": "0",
            "type": "t_uint8"
          },
          {
            "astId": 5637,
            "contract": "contracts/BCMaps.sol:Maps",
            "label": "col",
            "offset": 1,
            "slot": "0",
            "type": "t_uint8"
          }
        ],
        "numberOfBytes": "32"
      },
      "t_struct(RoomTile)5739_storage": {
        "encoding": "inplace",
        "label": "struct BCTypes.RoomTile",
        "members": [
          {
            "astId": 5725,
            "contract": "contracts/BCMaps.sol:Maps",
            "label": "name",
            "offset": 0,
            "slot": "0",
            "type": "t_string_storage"
          },
          {
            "astId": 5728,
            "contract": "contracts/BCMaps.sol:Maps",
            "label": "eventType",
            "offset": 0,
            "slot": "1",
            "type": "t_enum(BCEventType)5723"
          },
          {
            "astId": 5730,
            "contract": "contracts/BCMaps.sol:Maps",
            "label": "eventNum",
            "offset": 0,
            "slot": "2",
            "type": "t_uint256"
          },
          {
            "astId": 5732,
            "contract": "contracts/BCMaps.sol:Maps",
            "label": "numItems",
            "offset": 0,
            "slot": "3",
            "type": "t_uint8"
          },
          {
            "astId": 5734,
            "contract": "contracts/BCMaps.sol:Maps",
            "label": "numData",
            "offset": 1,
            "slot": "3",
            "type": "t_uint8"
          },
          {
            "astId": 5736,
            "contract": "contracts/BCMaps.sol:Maps",
            "label": "hasHazard",
            "offset": 2,
            "slot": "3",
            "type": "t_bool"
          },
          {
            "astId": 5738,
            "contract": "contracts/BCMaps.sol:Maps",
            "label": "sigDetected",
            "offset": 3,
            "slot": "3",
            "type": "t_bool"
          }
        ],
        "numberOfBytes": "128"
      },
      "t_uint256": {
        "encoding": "inplace",
        "label": "uint256",
        "numberOfBytes": "32"
      },
      "t_uint8": {
        "encoding": "inplace",
        "label": "uint8",
        "numberOfBytes": "1"
      }
    }
  }
}