{
  "address": "0xA9c92c59b23b3FB1dFbE24b2307c488F8dfBb26e",
  "abi": [
    {
      "anonymous": false,
      "inputs": [
        {
          "indexed": true,
          "internalType": "address",
          "name": "previousOwner",
          "type": "address"
        },
        {
          "indexed": true,
          "internalType": "address",
          "name": "newOwner",
          "type": "address"
        }
      ],
      "name": "OwnershipTransferred",
      "type": "event"
    },
    {
      "inputs": [],
      "name": "createMap",
      "outputs": [
        {
          "internalType": "uint256",
          "name": "",
          "type": "uint256"
        }
      ],
      "stateMutability": "nonpayable",
      "type": "function"
    },
    {
      "inputs": [
        {
          "internalType": "uint256",
          "name": "_mapId",
          "type": "uint256"
        },
        {
          "internalType": "uint256",
          "name": "_row",
          "type": "uint256"
        },
        {
          "internalType": "uint256",
          "name": "_col",
          "type": "uint256"
        }
      ],
      "name": "discoverRoom",
      "outputs": [
        {
          "internalType": "bool",
          "name": "",
          "type": "bool"
        }
      ],
      "stateMutability": "nonpayable",
      "type": "function"
    },
    {
      "inputs": [
        {
          "internalType": "uint256",
          "name": "_mapId",
          "type": "uint256"
        }
      ],
      "name": "extGetBoard",
      "outputs": [
        {
          "components": [
            {
              "internalType": "uint8",
              "name": "roomId",
              "type": "uint8"
            },
            {
              "internalType": "uint8",
              "name": "parentId",
              "type": "uint8"
            },
            {
              "internalType": "uint256[4]",
              "name": "doors",
              "type": "uint256[4]"
            },
            {
              "internalType": "bool",
              "name": "explored",
              "type": "bool"
            },
            {
              "internalType": "bool",
              "name": "looted",
              "type": "bool"
            },
            {
              "internalType": "bool",
              "name": "hasVent",
              "type": "bool"
            }
          ],
          "internalType": "struct BCTypes.GameTile[][]",
          "name": "",
          "type": "tuple[][]"
        }
      ],
      "stateMutability": "view",
      "type": "function"
    },
    {
      "inputs": [
        {
          "internalType": "uint256",
          "name": "_mapId",
          "type": "uint256"
        }
      ],
      "name": "extGetDoors",
      "outputs": [
        {
          "components": [
            {
              "internalType": "uint8",
              "name": "vsBreach",
              "type": "uint8"
            },
            {
              "internalType": "uint8",
              "name": "vsHack",
              "type": "uint8"
            },
            {
              "internalType": "enum BCTypes.DoorStatus",
              "name": "status",
              "type": "uint8"
            }
          ],
          "internalType": "struct BCTypes.Door[]",
          "name": "",
          "type": "tuple[]"
        }
      ],
      "stateMutability": "view",
      "type": "function"
    },
    {
      "inputs": [
        {
          "internalType": "uint256",
          "name": "_mapId",
          "type": "uint256"
        },
        {
          "internalType": "uint256",
          "name": "_row",
          "type": "uint256"
        },
        {
          "internalType": "uint256",
          "name": "_col",
          "type": "uint256"
        }
      ],
      "name": "extGetGameTile",
      "outputs": [
        {
          "components": [
            {
              "internalType": "uint8",
              "name": "roomId",
              "type": "uint8"
            },
            {
              "internalType": "uint8",
              "name": "parentId",
              "type": "uint8"
            },
            {
              "internalType": "uint256[4]",
              "name": "doors",
              "type": "uint256[4]"
            },
            {
              "internalType": "bool",
              "name": "explored",
              "type": "bool"
            },
            {
              "internalType": "bool",
              "name": "looted",
              "type": "bool"
            },
            {
              "internalType": "bool",
              "name": "hasVent",
              "type": "bool"
            }
          ],
          "internalType": "struct BCTypes.GameTile",
          "name": "",
          "type": "tuple"
        }
      ],
      "stateMutability": "view",
      "type": "function"
    },
    {
      "inputs": [],
      "name": "game",
      "outputs": [
        {
          "internalType": "contract GameInterface",
          "name": "",
          "type": "address"
        }
      ],
      "stateMutability": "view",
      "type": "function"
    },
    {
      "inputs": [
        {
          "internalType": "uint256",
          "name": "_mapId",
          "type": "uint256"
        },
        {
          "internalType": "uint256",
          "name": "_row",
          "type": "uint256"
        },
        {
          "internalType": "uint256",
          "name": "_col",
          "type": "uint256"
        },
        {
          "internalType": "uint256",
          "name": "_direction",
          "type": "uint256"
        }
      ],
      "name": "getDoor",
      "outputs": [
        {
          "components": [
            {
              "internalType": "uint8",
              "name": "vsBreach",
              "type": "uint8"
            },
            {
              "internalType": "uint8",
              "name": "vsHack",
              "type": "uint8"
            },
            {
              "internalType": "enum BCTypes.DoorStatus",
              "name": "status",
              "type": "uint8"
            }
          ],
          "internalType": "struct BCTypes.Door",
          "name": "",
          "type": "tuple"
        }
      ],
      "stateMutability": "view",
      "type": "function"
    },
    {
      "inputs": [
        {
          "internalType": "uint256",
          "name": "",
          "type": "uint256"
        }
      ],
      "name": "maps",
      "outputs": [
        {
          "internalType": "uint8",
          "name": "numRooms",
          "type": "uint8"
        },
        {
          "internalType": "uint8",
          "name": "numDoors",
          "type": "uint8"
        },
        {
          "components": [
            {
              "internalType": "uint8",
              "name": "row",
              "type": "uint8"
            },
            {
              "internalType": "uint8",
              "name": "col",
              "type": "uint8"
            }
          ],
          "internalType": "struct BCTypes.Position",
          "name": "startPosition",
          "type": "tuple"
        }
      ],
      "stateMutability": "view",
      "type": "function"
    },
    {
      "inputs": [],
      "name": "owner",
      "outputs": [
        {
          "internalType": "address",
          "name": "",
          "type": "address"
        }
      ],
      "stateMutability": "view",
      "type": "function"
    },
    {
      "inputs": [],
      "name": "renounceOwnership",
      "outputs": [],
      "stateMutability": "nonpayable",
      "type": "function"
    },
    {
      "inputs": [
        {
          "internalType": "uint256",
          "name": "_mapId",
          "type": "uint256"
        }
      ],
      "name": "resetOpenDoors",
      "outputs": [],
      "stateMutability": "nonpayable",
      "type": "function"
    },
    {
      "inputs": [],
      "name": "roomTiles",
      "outputs": [
        {
          "internalType": "contract RoomTileInterface",
          "name": "",
          "type": "address"
        }
      ],
      "stateMutability": "view",
      "type": "function"
    },
    {
      "inputs": [
        {
          "internalType": "address",
          "name": "_gameAddress",
          "type": "address"
        },
        {
          "internalType": "address",
          "name": "_utilsAddress",
          "type": "address"
        },
        {
          "internalType": "address",
          "name": "_roomTilesAddress",
          "type": "address"
        }
      ],
      "name": "setContractAddresses",
      "outputs": [],
      "stateMutability": "nonpayable",
      "type": "function"
    },
    {
      "inputs": [
        {
          "internalType": "uint256",
          "name": "_mapId",
          "type": "uint256"
        },
        {
          "internalType": "uint256",
          "name": "_row",
          "type": "uint256"
        },
        {
          "internalType": "uint256",
          "name": "_col",
          "type": "uint256"
        },
        {
          "internalType": "uint256",
          "name": "_direction",
          "type": "uint256"
        },
        {
          "internalType": "enum BCTypes.DoorStatus",
          "name": "_status",
          "type": "uint8"
        }
      ],
      "name": "setDoorFromPos",
      "outputs": [],
      "stateMutability": "nonpayable",
      "type": "function"
    },
    {
      "inputs": [
        {
          "internalType": "address",
          "name": "newOwner",
          "type": "address"
        }
      ],
      "name": "transferOwnership",
      "outputs": [],
      "stateMutability": "nonpayable",
      "type": "function"
    },
    {
      "inputs": [],
      "name": "utils",
      "outputs": [
        {
          "internalType": "contract UtilsInterface",
          "name": "",
          "type": "address"
        }
      ],
      "stateMutability": "view",
      "type": "function"
    }
  ],
  "transactionHash": "0xaf04565e008f71627c40eac0082c033560728f853cac2e2217f7d3b36d199218",
  "args": [],
  "numDeployments": 5,
  "solcInputHash": "8c343b04fa0f2f489794f8cd2022c5d3",
  "bytecode": "0x60806040523480156200001157600080fd5b5062000032620000266200003860201b60201c565b6200004060201b60201c565b62000104565b600033905090565b60008060009054906101000a900473ffffffffffffffffffffffffffffffffffffffff169050816000806101000a81548173ffffffffffffffffffffffffffffffffffffffff021916908373ffffffffffffffffffffffffffffffffffffffff1602179055508173ffffffffffffffffffffffffffffffffffffffff168173ffffffffffffffffffffffffffffffffffffffff167f8be0079c531659141344cd1fd0a4f28419497f9722a3daafe3b4186f6b6457e060405160405180910390a35050565b6145c580620001146000396000f3fe608060405234801561001057600080fd5b50600436106101005760003560e01c80638ab6338011610097578063f01fc35a11610066578063f01fc35a146102af578063f2fde38b146102cd578063f7157f64146102e9578063f9dfbfcb1461030757610100565b80638ab633801461023b5780638da5cb5b14610257578063b6cdd3b414610275578063c3fe3e281461029157610100565b806369568fd5116100d357806369568fd51461019f5780636ea1dcd8146101cf578063715018a6146101ff57806375990a0e1461020957610100565b80631ef0441614610105578063471b67591461013557806358308aa8146101655780635a29638d14610181575b600080fd5b61011f600480360381019061011a9190613195565b610337565b60405161012c9190613493565b60405180910390f35b61014f600480360381019061014a91906134b5565b6105c2565b60405161015c9190613517565b60405180910390f35b61017f600480360381019061017a9190613195565b61071c565b005b6101896108d9565b60405161019691906135b1565b60405180910390f35b6101b960048036038101906101b49190613195565b6108ff565b6040516101c69190613734565b60405180910390f35b6101e960048036038101906101e49190613756565b610a8b565b6040516101f691906137ff565b60405180910390f35b610207610bf5565b005b610223600480360381019061021e9190613195565b610c09565b60405161023293929190613858565b60405180910390f35b610255600480360381019061025091906138cd565b610ca1565b005b61025f610d71565b60405161026c919061392f565b60405180910390f35b61028f600480360381019061028a919061396f565b610d9a565b005b610299610f3a565b6040516102a69190613a0b565b60405180910390f35b6102b7610f60565b6040516102c49190613a35565b60405180910390f35b6102e760048036038101906102e29190613a50565b61117d565b005b6102f1611201565b6040516102fe9190613a9e565b60405180910390f35b610321600480360381019061031c91906134b5565b611227565b60405161032e9190613b36565b60405180910390f35b60606000600967ffffffffffffffff81111561035657610355613b52565b5b60405190808252806020026020018201604052801561038957816020015b60608152602001906001900390816103745790505b50905060005b600981101561041e57600967ffffffffffffffff8111156103b3576103b2613b52565b5b6040519080825280602002602001820160405280156103ec57816020015b6103d9612fb4565b8152602001906001900390816103d15790505b50828281518110610400576103ff613b81565b5b6020026020010181905250808061041690613bdf565b91505061038f565b5060005b60098110156105b85760005b60098110156105a4576005858154811061044b5761044a613b81565b5b9060005260206000209060070201600301600083815260200190815260200160002060008281526020019081526020016000206040518060c00160405290816000820160009054906101000a900460ff1660ff1660ff1681526020016000820160019054906101000a900460ff1660ff1660ff168152602001600182016004806020026040519081016040528092919082600480156104ff576020028201915b8154815260200190600101908083116104eb575b505050505081526020016005820160009054906101000a900460ff161515151581526020016005820160019054906101000a900460ff161515151581526020016005820160029054906101000a900460ff16151515158152505083838151811061056c5761056b613b81565b5b6020026020010151828151811061058657610585613b81565b5b6020026020010181905250808061059c90613bdf565b91505061042e565b5080806105b090613bdf565b915050610422565b5080915050919050565b6000600160009054906101000a900473ffffffffffffffffffffffffffffffffffffffff1673ffffffffffffffffffffffffffffffffffffffff163373ffffffffffffffffffffffffffffffffffffffff1614610654576040517f08c379a000000000000000000000000000000000000000000000000000000000815260040161064b90613c85565b60405180910390fd5b60006005858154811061066a57610669613b81565b5b9060005260206000209060070201600301600085815260200190815260200160002060008481526020019081526020016000209050600160ff168160000160009054906101000a900460ff1660ff16141561070f576106e9600586815481106106d6576106d5613b81565b5b906000526020600020906007020161135a565b8160000160006101000a81548160ff021916908360ff1602179055506001915050610715565b60009150505b9392505050565b600160009054906101000a900473ffffffffffffffffffffffffffffffffffffffff1673ffffffffffffffffffffffffffffffffffffffff163373ffffffffffffffffffffffffffffffffffffffff16146107ac576040517f08c379a00000000000000000000000000000000000000000000000000000000081526004016107a390613c85565b60405180910390fd5b60005b600582815481106107c3576107c2613b81565b5b906000526020600020906007020160050160009054906101000a900460ff1660ff168110156108d55760026004811115610800576107ff6135f8565b5b6005838154811061081457610813613b81565b5b9060005260206000209060070201600401600083815260200190815260200160002060000160029054906101000a900460ff166004811115610859576108586135f8565b5b14156108c25760016005838154811061087557610874613b81565b5b9060005260206000209060070201600401600083815260200190815260200160002060000160026101000a81548160ff021916908360048111156108bc576108bb6135f8565b5b02179055505b80806108cd90613bdf565b9150506107af565b5050565b600260009054906101000a900473ffffffffffffffffffffffffffffffffffffffff1681565b606060006005838154811061091757610916613b81565b5b906000526020600020906007020160050160009054906101000a900460ff1660ff1667ffffffffffffffff81111561095257610951613b52565b5b60405190808252806020026020018201604052801561098b57816020015b610978612ffc565b8152602001906001900390816109705790505b50905060005b8151811015610a8157600584815481106109ae576109ad613b81565b5b906000526020600020906007020160040160008281526020019081526020016000206040518060600160405290816000820160009054906101000a900460ff1660ff1660ff1681526020016000820160019054906101000a900460ff1660ff1660ff1681526020016000820160029054906101000a900460ff166004811115610a3a57610a396135f8565b5b6004811115610a4c57610a4b6135f8565b5b81525050828281518110610a6357610a62613b81565b5b60200260200101819052508080610a7990613bdf565b915050610991565b5080915050919050565b610a93612ffc565b600060058681548110610aa957610aa8613b81565b5b906000526020600020906007020160030160008681526020019081526020016000206000858152602001908152602001600020600101600480602002604051908101604052809291908260048015610b16576020028201915b815481526020019060010190808311610b02575b5050505050905060058681548110610b3157610b30613b81565b5b90600052602060002090600702016004016000828560048110610b5757610b56613b81565b5b602002015181526020019081526020016000206040518060600160405290816000820160009054906101000a900460ff1660ff1660ff1681526020016000820160019054906101000a900460ff1660ff1660ff1681526020016000820160029054906101000a900460ff166004811115610bd457610bd36135f8565b5b6004811115610be657610be56135f8565b5b81525050915050949350505050565b610bfd6114ea565b610c076000611568565b565b60058181548110610c1957600080fd5b90600052602060002090600702016000915090508060010160009054906101000a900460ff16908060050160009054906101000a900460ff1690806006016040518060400160405290816000820160009054906101000a900460ff1660ff1660ff1681526020016000820160019054906101000a900460ff1660ff1660ff1681525050905083565b610ca96114ea565b82600160006101000a81548173ffffffffffffffffffffffffffffffffffffffff021916908373ffffffffffffffffffffffffffffffffffffffff16021790555081600260006101000a81548173ffffffffffffffffffffffffffffffffffffffff021916908373ffffffffffffffffffffffffffffffffffffffff16021790555080600360006101000a81548173ffffffffffffffffffffffffffffffffffffffff021916908373ffffffffffffffffffffffffffffffffffffffff160217905550505050565b60008060009054906101000a900473ffffffffffffffffffffffffffffffffffffffff16905090565b600160009054906101000a900473ffffffffffffffffffffffffffffffffffffffff1673ffffffffffffffffffffffffffffffffffffffff163373ffffffffffffffffffffffffffffffffffffffff1614610e2a576040517f08c379a0000000000000000000000000000000000000000000000000000000008152600401610e2190613c85565b60405180910390fd5b600060058681548110610e4057610e3f613b81565b5b906000526020600020906007020160030160008681526020019081526020016000206000858152602001908152602001600020600101600480602002604051908101604052809291908260048015610ead576020028201915b815481526020019060010190808311610e99575b50505050509050600060058781548110610eca57610ec9613b81565b5b90600052602060002090600702016004016000838660048110610ef057610eef613b81565b5b602002015181526020019081526020016000209050828160000160026101000a81548160ff02191690836004811115610f2c57610f2b6135f8565b5b021790555050505050505050565b600160009054906101000a900473ffffffffffffffffffffffffffffffffffffffff1681565b6000600160009054906101000a900473ffffffffffffffffffffffffffffffffffffffff1673ffffffffffffffffffffffffffffffffffffffff163373ffffffffffffffffffffffffffffffffffffffff1614610ff2576040517f08c379a0000000000000000000000000000000000000000000000000000000008152600401610fe990613cf1565b60405180910390fd5b6000600560018160018154018082558091505003906000526020600020906007020190506110228160000161162c565b8160010160006101000a81548160ff021916908360ff160217905550604051806060016040528060ff8016815260200160ff801681526020016000600481111561106f5761106e6135f8565b5b8152508160040160008360050160009054906101000a900460ff1660ff16815260200190815260200160002060008201518160000160006101000a81548160ff021916908360ff16021790555060208201518160000160016101000a81548160ff021916908360ff16021790555060408201518160000160026101000a81548160ff02191690836004811115611108576111076135f8565b5b021790555090505080600501600081819054906101000a900460ff168092919061113190613d11565b91906101000a81548160ff021916908360ff1602179055505061115381611857565b61115c81611a39565b61116581612b8b565b60016005805490506111779190613d3b565b91505090565b6111856114ea565b600073ffffffffffffffffffffffffffffffffffffffff168173ffffffffffffffffffffffffffffffffffffffff1614156111f5576040517f08c379a00000000000000000000000000000000000000000000000000000000081526004016111ec90613de1565b60405180910390fd5b6111fe81611568565b50565b600360009054906101000a900473ffffffffffffffffffffffffffffffffffffffff1681565b61122f612fb4565b6005848154811061124357611242613b81565b5b9060005260206000209060070201600301600084815260200190815260200160002060008381526020019081526020016000206040518060c00160405290816000820160009054906101000a900460ff1660ff1660ff1681526020016000820160019054906101000a900460ff1660ff1660ff168152602001600182016004806020026040519081016040528092919082600480156112f7576020028201915b8154815260200190600101908083116112e3575b505050505081526020016005820160009054906101000a900460ff161515151581526020016005820160019054906101000a900460ff161515151581526020016005820160029054906101000a900460ff16151515158152505090509392505050565b600080600260009054906101000a900473ffffffffffffffffffffffffffffffffffffffff1673ffffffffffffffffffffffffffffffffffffffff1663ce28613f600160026113a99190613e01565b60048660010160009054906101000a900460ff166113c79190613e57565b6040518363ffffffff1660e01b81526004016113e4929190613e8b565b6020604051808303816000875af1158015611403573d6000803e3d6000fd5b505050506040513d601f19601f820116820180604052508101906114279190613ee0565b90505b600115158360020160008360ff16815260200190815260200160002060009054906101000a900460ff16151514156114b05760018360010160009054906101000a900460ff1661147a9190613e57565b60ff168160ff16141561149c57600160026114959190613f0d565b90506114ab565b80806114a790613d11565b9150505b61142a565b60018360020160008360ff16815260200190815260200160002060006101000a81548160ff02191690831515021790555080915050919050565b6114f2612fac565b73ffffffffffffffffffffffffffffffffffffffff16611510610d71565b73ffffffffffffffffffffffffffffffffffffffff1614611566576040517f08c379a000000000000000000000000000000000000000000000000000000000815260040161155d90613f90565b60405180910390fd5b565b60008060009054906101000a900473ffffffffffffffffffffffffffffffffffffffff169050816000806101000a81548173ffffffffffffffffffffffffffffffffffffffff021916908373ffffffffffffffffffffffffffffffffffffffff1602179055508173ffffffffffffffffffffffffffffffffffffffff168173ffffffffffffffffffffffffffffffffffffffff167f8be0079c531659141344cd1fd0a4f28419497f9722a3daafe3b4186f6b6457e060405160405180910390a35050565b600080600360009054906101000a900473ffffffffffffffffffffffffffffffffffffffff1673ffffffffffffffffffffffffffffffffffffffff166338fdf0bd6040518163ffffffff1660e01b8152600401602060405180830381865afa15801561169c573d6000803e3d6000fd5b505050506040513d601f19601f820116820180604052508101906116c09190613fc5565b905060005b8181101561184d57600360009054906101000a900473ffffffffffffffffffffffffffffffffffffffff1673ffffffffffffffffffffffffffffffffffffffff166382753ebe826040518263ffffffff1660e01b81526004016117289190613a35565b60c060405180830381865afa158015611745573d6000803e3d6000fd5b505050506040513d601f19601f820116820180604052508101906117699190614145565b84600083815260200190815260200160002060008201518160000160006101000a81548160ff021916908360048111156117a6576117a56135f8565b5b02179055506020820151816001015560408201518160020160006101000a81548160ff021916908360ff16021790555060608201518160020160016101000a81548160ff021916908360ff16021790555060808201518160020160026101000a81548160ff02191690831515021790555060a08201518160020160036101000a81548160ff021916908315150217905550905050808061184590613bdf565b9150506116c5565b5080915050919050565b60006004600181600181540180825580915050039060005260206000209060060201905060006001600961188b9190613d3b565b9050600060016002600961189f91906141a1565b6118a99190613e01565b905060405180604001604052808360ff1681526020018260ff168152508460060160008201518160000160006101000a81548160ff021916908360ff16021790555060208201518160000160016101000a81548160ff021916908360ff1602179055509050508284600301600084815260200190815260200160002060008381526020019081526020016000206000820160009054906101000a900460ff168160000160006101000a81548160ff021916908360ff1602179055506000820160019054906101000a900460ff168160000160016101000a81548160ff021916908360ff16021790555060018201816001019060046119a8929190613035565b506005820160009054906101000a900460ff168160050160006101000a81548160ff0219169083151502179055506005820160019054906101000a900460ff168160050160016101000a81548160ff0219169083151502179055506005820160029054906101000a900460ff168160050160026101000a81548160ff02191690831515021790555090505050505050565b60008060028360010160009054906101000a900460ff16611a5a9190613e57565b60ff1690506000600190506000611a6f613072565b6001818760060160000160009054906101000a900460ff1660ff1660098110611a9b57611a9a613b81565b5b60200201518760060160000160019054906101000a900460ff1660ff1660098110611ac957611ac8613b81565b5b602002019015159081151581525050611ae06130a0565b866006016040518060400160405290816000820160009054906101000a900460ff1660ff1660ff1681526020016000820160019054906101000a900460ff1660ff1660ff16815250508187601e8110611b3c57611b3b613b81565b5b60200201819052508580611b4f90613bdf565b9650505b6000851115612a8c57600081600188611b6c9190613d3b565b601e8110611b7d57611b7c613b81565b5b602002015190508680611b8f906141d2565b9750508187601e8110611ba557611ba4613b81565b5b60200201611bb16130ce565b8152508580611bbf906141d2565b9650508480611bcd906141d2565b9550506001886003016000836000015160ff1681526020019081526020016000206000836020015160ff16815260200190815260200160002060000160006101000a81548160ff021916908360ff1602179055506021600260009054906101000a900473ffffffffffffffffffffffffffffffffffffffff1673ffffffffffffffffffffffffffffffffffffffff1663ce28613f600060636040518363ffffffff1660e01b8152600401611c82929190614272565b6020604051808303816000875af1158015611ca1573d6000803e3d6000fd5b505050506040513d601f19601f82011682018060405250810190611cc59190613ee0565b60ff161015611d1f576001886003016000836000015160ff1681526020019081526020016000206000836020015160ff16815260200190815260200160002060050160026101000a81548160ff0219169083151502179055505b60007fffffffffffffffffffffffffffffffffffffffffffffffffffffffffffffffff90505b60018113612a855760007fffffffffffffffffffffffffffffffffffffffffffffffffffffffffffffffff90505b60018113612a7157600260009054906101000a900473ffffffffffffffffffffffffffffffffffffffff1673ffffffffffffffffffffffffffffffffffffffff16631b5ac4b5826040518263ffffffff1660e01b8152600401611dd691906142b4565b602060405180830381865afa158015611df3573d6000803e3d6000fd5b505050506040513d601f19601f82011682018060405250810190611e1791906142fb565b600260009054906101000a900473ffffffffffffffffffffffffffffffffffffffff1673ffffffffffffffffffffffffffffffffffffffff16631b5ac4b5846040518263ffffffff1660e01b8152600401611e7291906142b4565b602060405180830381865afa158015611e8f573d6000803e3d6000fd5b505050506040513d601f19601f82011682018060405250810190611eb391906142fb565b1415611ebe57612a5e565b600082846000015160000b611ed39190614328565b9050600082856020015160000b611eea9190614328565b90506001821280611efb5750600181125b80611f12575060026009611f0f9190613d3b565b82135b80611f29575060026009611f269190613d3b565b81135b15611f35575050612a5e565b600060405180604001604052808460ff1681526020018360ff1681525090506000151588826000015160ff1660098110611f7257611f71613b81565b5b6020020151826020015160ff1660098110611f9057611f8f613b81565b5b60200201511515148061208a575060008d6003016000886000015160ff1681526020019081526020016000206000886020015160ff168152602001908152602001600020600101600260009054906101000a900473ffffffffffffffffffffffffffffffffffffffff1673ffffffffffffffffffffffffffffffffffffffff1663fa3993c289856040518363ffffffff1660e01b81526004016120349291906143bc565b602060405180830381865afa158015612051573d6000803e3d6000fd5b505050506040513d601f19601f820116820180604052508101906120759190613fc5565b6004811061208657612085613b81565b5b0154145b15612a5a5760008a148061215057508860ff1660426120a99190613d3b565b600260009054906101000a900473ffffffffffffffffffffffffffffffffffffffff1673ffffffffffffffffffffffffffffffffffffffff1663ce28613f600060636040518363ffffffff1660e01b8152600401612108929190614272565b6020604051808303816000875af1158015612127573d6000803e3d6000fd5b505050506040513d601f19601f8201168201806040525081019061214b9190613ee0565b60ff16105b15612a54576040518060600160405280600260009054906101000a900473ffffffffffffffffffffffffffffffffffffffff1673ffffffffffffffffffffffffffffffffffffffff1663ce28613f600060036040518363ffffffff1660e01b81526004016121bf9291906143e5565b6020604051808303816000875af11580156121de573d6000803e3d6000fd5b505050506040513d601f19601f820116820180604052508101906122029190613ee0565b60ff168152602001600260009054906101000a900473ffffffffffffffffffffffffffffffffffffffff1673ffffffffffffffffffffffffffffffffffffffff1663ce28613f600060036040518363ffffffff1660e01b81526004016122699291906143e5565b6020604051808303816000875af1158015612288573d6000803e3d6000fd5b505050506040513d601f19601f820116820180604052508101906122ac9190613ee0565b60ff168152602001600160048111156122c8576122c76135f8565b5b8152508d60040160008f60050160009054906101000a900460ff1660ff16815260200190815260200160002060008201518160000160006101000a81548160ff021916908360ff16021790555060208201518160000160016101000a81548160ff021916908360ff16021790555060408201518160000160026101000a81548160ff02191690836004811115612361576123606135f8565b5b021790555090505060008d60040160008f60050160009054906101000a900460ff1660ff16815260200190815260200160002060000160009054906101000a900460ff1660ff1614156124045760038d60040160008f60050160009054906101000a900460ff1660ff16815260200190815260200160002060000160026101000a81548160ff021916908360048111156123fe576123fd6135f8565b5b02179055505b8c600501600081819054906101000a900460ff168092919061242590613d11565b91906101000a81548160ff021916908360ff1602179055505060168961244b9190613f0d565b985080878d601e811061246157612460613b81565b5b60200201819052508b8061247490613bdf565b9c5050898061248290613bdf565b9a5050600188826000015160ff16600981106124a1576124a0613b81565b5b6020020151826020015160ff16600981106124bf576124be613b81565b5b6020020190151590811515815250507fffffffffffffffffffffffffffffffffffffffffffffffffffffffffffffffff851480156124fd5750600084145b8015612554575060008d6003016000886000015160ff1681526020019081526020016000206000886020015160ff1681526020019081526020016000206001016000600481106125505761254f613b81565b5b0154145b1561263e5760018d60050160009054906101000a900460ff166125779190613e57565b60ff168d6003016000886000015160ff1681526020019081526020016000206000886020015160ff1681526020019081526020016000206001016000600481106125c4576125c3613b81565b5b018190555060018d60050160009054906101000a900460ff166125e79190613e57565b60ff168d6003016000836000015160ff1681526020019081526020016000206000836020015160ff16815260200190815260200160002060010160016004811061263457612633613b81565b5b0181905550612a4f565b60018514801561264e5750600084145b80156126a5575060008d6003016000886000015160ff1681526020019081526020016000206000886020015160ff1681526020019081526020016000206001016001600481106126a1576126a0613b81565b5b0154145b1561278f5760018d60050160009054906101000a900460ff166126c89190613e57565b60ff168d6003016000886000015160ff1681526020019081526020016000206000886020015160ff16815260200190815260200160002060010160016004811061271557612714613b81565b5b018190555060018d60050160009054906101000a900460ff166127389190613e57565b60ff168d6003016000836000015160ff1681526020019081526020016000206000836020015160ff16815260200190815260200160002060010160006004811061278557612784613b81565b5b0181905550612a4e565b60018414801561279f5750600085145b80156127f6575060008d6003016000886000015160ff1681526020019081526020016000206000886020015160ff1681526020019081526020016000206001016002600481106127f2576127f1613b81565b5b0154145b156128e05760018d60050160009054906101000a900460ff166128199190613e57565b60ff168d6003016000886000015160ff1681526020019081526020016000206000886020015160ff16815260200190815260200160002060010160026004811061286657612865613b81565b5b018190555060018d60050160009054906101000a900460ff166128899190613e57565b60ff168d6003016000836000015160ff1681526020019081526020016000206000836020015160ff1681526020019081526020016000206001016003600481106128d6576128d5613b81565b5b0181905550612a4d565b7fffffffffffffffffffffffffffffffffffffffffffffffffffffffffffffffff8414801561290f5750600085145b8015612966575060008d6003016000886000015160ff1681526020019081526020016000206000886020015160ff16815260200190815260200160002060010160036004811061296257612961613b81565b5b0154145b15612a4c5760018d60050160009054906101000a900460ff166129899190613e57565b60ff168d6003016000886000015160ff1681526020019081526020016000206000886020015160ff1681526020019081526020016000206001016003600481106129d6576129d5613b81565b5b018190555060018d60050160009054906101000a900460ff166129f99190613e57565b60ff168d6003016000836000015160ff1681526020019081526020016000206000836020015160ff168152602001908152602001600020600101600260048110612a4657612a45613b81565b5b01819055505b5b5b5b612a59565b600098505b5b5050505b8080612a699061440e565b915050611d73565b508080612a7d9061440e565b915050611d45565b5050611b53565b60008514612acf576040517f08c379a0000000000000000000000000000000000000000000000000000000008152600401612ac6906144c9565b60405180910390fd5b60028760030160008960060160000160009054906101000a900460ff1660ff16815260200190815260200160002060008960060160000160019054906101000a900460ff1660ff16815260200190815260200160002060000160006101000a81548160ff021916908360ff16021790555060038760040160006001815260200190815260200160002060000160026101000a81548160ff02191690836004811115612b7d57612b7c6135f8565b5b021790555050505050505050565b60005b6009811015612fa85760005b6009811015612f9457600160ff16836003016000848152602001908152602001600020600083815260200190815260200160002060000160009054906101000a900460ff1660ff161415612f815760005b6004811015612f7f57600084600301600085815260200190815260200160002060008481526020019081526020016000206001018260048110612c3157612c30613b81565b5b01541415612f6c576000600260009054906101000a900473ffffffffffffffffffffffffffffffffffffffff1673ffffffffffffffffffffffffffffffffffffffff1663951fc3fe8360405180604001604052808860ff1681526020018760ff168152506040518363ffffffff1660e01b8152600401612cb29291906144e9565b6040805180830381865afa158015612cce573d6000803e3d6000fd5b505050506040513d601f19601f82011682018060405250810190612cf29190614562565b90506000856003016000836000015160ff1681526020019081526020016000206000836020015160ff16815260200190815260200160002060000160009054906101000a900460ff1660ff1690506042600260009054906101000a900473ffffffffffffffffffffffffffffffffffffffff1673ffffffffffffffffffffffffffffffffffffffff1663ce28613f600060636040518363ffffffff1660e01b8152600401612da1929190614272565b6020604051808303816000875af1158015612dc0573d6000803e3d6000fd5b505050506040513d601f19601f82011682018060405250810190612de49190613ee0565b60ff16108015612df75750600060ff1681145b15612f6957604051806060016040528060ff8016815260200160ff80168152602001600480811115612e2c57612e2b6135f8565b5b8152508660040160008860050160009054906101000a900460ff1660ff16815260200190815260200160002060008201518160000160006101000a81548160ff021916908360ff16021790555060208201518160000160016101000a81548160ff021916908360ff16021790555060408201518160000160026101000a81548160ff02191690836004811115612ec557612ec46135f8565b5b021790555090505085600501600081819054906101000a900460ff1680929190612eee90613d11565b91906101000a81548160ff021916908360ff1602179055505060018660050160009054906101000a900460ff16612f259190613e57565b60ff1686600301600087815260200190815260200160002060008681526020019081526020016000206001018460048110612f6357612f62613b81565b5b01819055505b50505b8080612f7790613bdf565b915050612beb565b505b8080612f8c90613bdf565b915050612b9a565b508080612fa090613bdf565b915050612b8e565b5050565b600033905090565b6040518060c00160405280600060ff168152602001600060ff168152602001612fdb6130ee565b81526020016000151581526020016000151581526020016000151581525090565b6040518060600160405280600060ff168152602001600060ff1681526020016000600481111561302f5761302e6135f8565b5b81525090565b8260048101928215613061579182015b82811115613060578254825591600101919060010190613045565b5b50905061306e9190613110565b5090565b6040518061012001604052806009905b61308a61312d565b8152602001906001900390816130825790505090565b604051806103c00160405280601e905b6130b86130ce565b8152602001906001900390816130b05790505090565b6040518060400160405280600060ff168152602001600060ff1681525090565b6040518060800160405280600490602082028036833780820191505090505090565b5b80821115613129576000816000905550600101613111565b5090565b604051806101200160405280600990602082028036833780820191505090505090565b6000604051905090565b600080fd5b6000819050919050565b6131728161315f565b811461317d57600080fd5b50565b60008135905061318f81613169565b92915050565b6000602082840312156131ab576131aa61315a565b5b60006131b984828501613180565b91505092915050565b600081519050919050565b600082825260208201905092915050565b6000819050602082019050919050565b600081519050919050565b600082825260208201905092915050565b6000819050602082019050919050565b600060ff82169050919050565b6132308161321a565b82525050565b600060049050919050565b600081905092915050565b6000819050919050565b61325f8161315f565b82525050565b60006132718383613256565b60208301905092915050565b6000602082019050919050565b61329381613236565b61329d8184613241565b92506132a88261324c565b8060005b838110156132d95781516132c08782613265565b96506132cb8361327d565b9250506001810190506132ac565b505050505050565b60008115159050919050565b6132f6816132e1565b82525050565b610120820160008201516133136000850182613227565b5060208201516133266020850182613227565b506040820151613339604085018261328a565b50606082015161334c60c08501826132ed565b50608082015161335f60e08501826132ed565b5060a08201516133736101008501826132ed565b50505050565b600061338583836132fc565b6101208301905092915050565b6000602082019050919050565b60006133aa826131ee565b6133b481856131f9565b93506133bf8361320a565b8060005b838110156133f05781516133d78882613379565b97506133e283613392565b9250506001810190506133c3565b5085935050505092915050565b6000613409838361339f565b905092915050565b6000602082019050919050565b6000613429826131c2565b61343381856131cd565b935083602082028501613445856131de565b8060005b85811015613481578484038952815161346285826133fd565b945061346d83613411565b925060208a01995050600181019050613449565b50829750879550505050505092915050565b600060208201905081810360008301526134ad818461341e565b905092915050565b6000806000606084860312156134ce576134cd61315a565b5b60006134dc86828701613180565b93505060206134ed86828701613180565b92505060406134fe86828701613180565b9150509250925092565b613511816132e1565b82525050565b600060208201905061352c6000830184613508565b92915050565b600073ffffffffffffffffffffffffffffffffffffffff82169050919050565b6000819050919050565b600061357761357261356d84613532565b613552565b613532565b9050919050565b60006135898261355c565b9050919050565b600061359b8261357e565b9050919050565b6135ab81613590565b82525050565b60006020820190506135c660008301846135a2565b92915050565b600081519050919050565b600082825260208201905092915050565b6000819050602082019050919050565b7f4e487b7100000000000000000000000000000000000000000000000000000000600052602160045260246000fd5b60058110613638576136376135f8565b5b50565b600081905061364982613627565b919050565b60006136598261363b565b9050919050565b6136698161364e565b82525050565b6060820160008201516136856000850182613227565b5060208201516136986020850182613227565b5060408201516136ab6040850182613660565b50505050565b60006136bd838361366f565b60608301905092915050565b6000602082019050919050565b60006136e1826135cc565b6136eb81856135d7565b93506136f6836135e8565b8060005b8381101561372757815161370e88826136b1565b9750613719836136c9565b9250506001810190506136fa565b5085935050505092915050565b6000602082019050818103600083015261374e81846136d6565b905092915050565b600080600080608085870312156137705761376f61315a565b5b600061377e87828801613180565b945050602061378f87828801613180565b93505060406137a087828801613180565b92505060606137b187828801613180565b91505092959194509250565b6060820160008201516137d36000850182613227565b5060208201516137e66020850182613227565b5060408201516137f96040850182613660565b50505050565b600060608201905061381460008301846137bd565b92915050565b6138238161321a565b82525050565b60408201600082015161383f6000850182613227565b5060208201516138526020850182613227565b50505050565b600060808201905061386d600083018661381a565b61387a602083018561381a565b6138876040830184613829565b949350505050565b600061389a82613532565b9050919050565b6138aa8161388f565b81146138b557600080fd5b50565b6000813590506138c7816138a1565b92915050565b6000806000606084860312156138e6576138e561315a565b5b60006138f4868287016138b8565b9350506020613905868287016138b8565b9250506040613916868287016138b8565b9150509250925092565b6139298161388f565b82525050565b60006020820190506139446000830184613920565b92915050565b6005811061395757600080fd5b50565b6000813590506139698161394a565b92915050565b600080600080600060a0868803121561398b5761398a61315a565b5b600061399988828901613180565b95505060206139aa88828901613180565b94505060406139bb88828901613180565b93505060606139cc88828901613180565b92505060806139dd8882890161395a565b9150509295509295909350565b60006139f58261357e565b9050919050565b613a05816139ea565b82525050565b6000602082019050613a2060008301846139fc565b92915050565b613a2f8161315f565b82525050565b6000602082019050613a4a6000830184613a26565b92915050565b600060208284031215613a6657613a6561315a565b5b6000613a74848285016138b8565b91505092915050565b6000613a888261357e565b9050919050565b613a9881613a7d565b82525050565b6000602082019050613ab36000830184613a8f565b92915050565b61012082016000820151613ad06000850182613227565b506020820151613ae36020850182613227565b506040820151613af6604085018261328a565b506060820151613b0960c08501826132ed565b506080820151613b1c60e08501826132ed565b5060a0820151613b306101008501826132ed565b50505050565b600061012082019050613b4c6000830184613ab9565b92915050565b7f4e487b7100000000000000000000000000000000000000000000000000000000600052604160045260246000fd5b7f4e487b7100000000000000000000000000000000000000000000000000000000600052603260045260246000fd5b7f4e487b7100000000000000000000000000000000000000000000000000000000600052601160045260246000fd5b6000613bea8261315f565b91507fffffffffffffffffffffffffffffffffffffffffffffffffffffffffffffffff821415613c1d57613c1c613bb0565b5b600182019050919050565b600082825260208201905092915050565b7f4e6f742067616d6520636f6e7472616374000000000000000000000000000000600082015250565b6000613c6f601183613c28565b9150613c7a82613c39565b602082019050919050565b60006020820190508181036000830152613c9e81613c62565b9050919050565b7f4f6e6c792067616d6520636f6e74726163742063616e20757365000000000000600082015250565b6000613cdb601a83613c28565b9150613ce682613ca5565b602082019050919050565b60006020820190508181036000830152613d0a81613cce565b9050919050565b6000613d1c8261321a565b915060ff821415613d3057613d2f613bb0565b5b600182019050919050565b6000613d468261315f565b9150613d518361315f565b925082821015613d6457613d63613bb0565b5b828203905092915050565b7f4f776e61626c653a206e6577206f776e657220697320746865207a65726f206160008201527f6464726573730000000000000000000000000000000000000000000000000000602082015250565b6000613dcb602683613c28565b9150613dd682613d6f565b604082019050919050565b60006020820190508181036000830152613dfa81613dbe565b9050919050565b6000613e0c8261315f565b9150613e178361315f565b9250827fffffffffffffffffffffffffffffffffffffffffffffffffffffffffffffffff03821115613e4c57613e4b613bb0565b5b828201905092915050565b6000613e628261321a565b9150613e6d8361321a565b925082821015613e8057613e7f613bb0565b5b828203905092915050565b6000604082019050613ea0600083018561381a565b613ead602083018461381a565b9392505050565b613ebd8161321a565b8114613ec857600080fd5b50565b600081519050613eda81613eb4565b92915050565b600060208284031215613ef657613ef561315a565b5b6000613f0484828501613ecb565b91505092915050565b6000613f188261321a565b9150613f238361321a565b92508260ff03821115613f3957613f38613bb0565b5b828201905092915050565b7f4f776e61626c653a2063616c6c6572206973206e6f7420746865206f776e6572600082015250565b6000613f7a602083613c28565b9150613f8582613f44565b602082019050919050565b60006020820190508181036000830152613fa981613f6d565b9050919050565b600081519050613fbf81613169565b92915050565b600060208284031215613fdb57613fda61315a565b5b6000613fe984828501613fb0565b91505092915050565b600080fd5b6000601f19601f8301169050919050565b61401182613ff7565b810181811067ffffffffffffffff821117156140305761402f613b52565b5b80604052505050565b6000614043613150565b905061404f8282614008565b919050565b6005811061406157600080fd5b50565b60008151905061407381614054565b92915050565b614082816132e1565b811461408d57600080fd5b50565b60008151905061409f81614079565b92915050565b600060c082840312156140bb576140ba613ff2565b5b6140c560c0614039565b905060006140d584828501614064565b60008301525060206140e984828501613fb0565b60208301525060406140fd84828501613ecb565b604083015250606061411184828501613ecb565b606083015250608061412584828501614090565b60808301525060a061413984828501614090565b60a08301525092915050565b600060c0828403121561415b5761415a61315a565b5b6000614169848285016140a5565b91505092915050565b7f4e487b7100000000000000000000000000000000000000000000000000000000600052601260045260246000fd5b60006141ac8261315f565b91506141b78361315f565b9250826141c7576141c6614172565b5b828204905092915050565b60006141dd8261315f565b915060008214156141f1576141f0613bb0565b5b600182039050919050565b6000819050919050565b600061422161421c614217846141fc565b613552565b61321a565b9050919050565b61423181614206565b82525050565b6000819050919050565b600061425c61425761425284614237565b613552565b61321a565b9050919050565b61426c81614241565b82525050565b60006040820190506142876000830185614228565b6142946020830184614263565b9392505050565b6000819050919050565b6142ae8161429b565b82525050565b60006020820190506142c960008301846142a5565b92915050565b6142d88161429b565b81146142e357600080fd5b50565b6000815190506142f5816142cf565b92915050565b6000602082840312156143115761431061315a565b5b600061431f848285016142e6565b91505092915050565b60006143338261429b565b915061433e8361429b565b9250817f7fffffffffffffffffffffffffffffffffffffffffffffffffffffffffffffff0383136000831215161561437957614378613bb0565b5b817f80000000000000000000000000000000000000000000000000000000000000000383126000831216156143b1576143b0613bb0565b5b828201905092915050565b60006080820190506143d16000830185613829565b6143de6040830184613829565b9392505050565b60006040820190506143fa6000830185614228565b614407602083018461381a565b9392505050565b60006144198261429b565b91507f7fffffffffffffffffffffffffffffffffffffffffffffffffffffffffffffff82141561444c5761444b613bb0565b5b600182019050919050565b7f4572726f723a20426164206d617067656e2e2020556e706c6163656420726f6f60008201527f6d73000000000000000000000000000000000000000000000000000000000000602082015250565b60006144b3602283613c28565b91506144be82614457565b604082019050919050565b600060208201905081810360008301526144e2816144a6565b9050919050565b60006060820190506144fe6000830185613a26565b61450b6020830184613829565b9392505050565b60006040828403121561452857614527613ff2565b5b6145326040614039565b9050600061454284828501613ecb565b600083015250602061455684828501613ecb565b60208301525092915050565b6000604082840312156145785761457761315a565b5b600061458684828501614512565b9150509291505056fea2646970667358221220ccdad8a9380288637eb43c6cbb9de40255f228bf9adbf58f913b5ce4ad65bd3c64736f6c634300080c0033",
  "devdoc": {
    "kind": "dev",
    "methods": {
      "owner()": {
        "details": "Returns the address of the current owner."
      },
      "renounceOwnership()": {
        "details": "Leaves the contract without owner. It will not be possible to call `onlyOwner` functions anymore. Can only be called by the current owner. NOTE: Renouncing ownership will leave the contract without an owner, thereby removing any functionality that is only available to the owner."
      },
      "transferOwnership(address)": {
        "details": "Transfers ownership of the contract to a new account (`newOwner`). Can only be called by the current owner."
      }
    },
    "version": 1
  },
  "userdoc": {
    "kind": "user",
    "methods": {},
    "version": 1
  },
  "storageLayout": {
    "storage": [
      {
        "astId": 7,
        "contract": "contracts/BCMaps.sol:Maps",
        "label": "_owner",
        "offset": 0,
        "slot": "0",
        "type": "t_address"
      },
      {
        "astId": 4268,
        "contract": "contracts/BCMaps.sol:Maps",
        "label": "game",
        "offset": 0,
        "slot": "1",
        "type": "t_contract(GameInterface)4205"
      },
      {
        "astId": 4271,
        "contract": "contracts/BCMaps.sol:Maps",
        "label": "utils",
        "offset": 0,
        "slot": "2",
        "type": "t_contract(UtilsInterface)4263"
      },
      {
        "astId": 4274,
        "contract": "contracts/BCMaps.sol:Maps",
        "label": "roomTiles",
        "offset": 0,
        "slot": "3",
        "type": "t_contract(RoomTileInterface)4219"
      },
      {
        "astId": 4308,
        "contract": "contracts/BCMaps.sol:Maps",
        "label": "gameTiles",
        "offset": 0,
        "slot": "4",
        "type": "t_array(t_struct(GameTile)5803_storage)dyn_storage"
      },
      {
        "astId": 4312,
        "contract": "contracts/BCMaps.sol:Maps",
        "label": "maps",
        "offset": 0,
        "slot": "5",
        "type": "t_array(t_struct(Map)5840_storage)dyn_storage"
      }
    ],
    "types": {
      "t_address": {
        "encoding": "inplace",
        "label": "address",
        "numberOfBytes": "20"
      },
      "t_array(t_struct(GameTile)5803_storage)dyn_storage": {
        "base": "t_struct(GameTile)5803_storage",
        "encoding": "dynamic_array",
        "label": "struct BCTypes.GameTile[]",
        "numberOfBytes": "32"
      },
      "t_array(t_struct(Map)5840_storage)dyn_storage": {
        "base": "t_struct(Map)5840_storage",
        "encoding": "dynamic_array",
        "label": "struct BCTypes.Map[]",
        "numberOfBytes": "32"
      },
      "t_array(t_uint256)4_storage": {
        "base": "t_uint256",
        "encoding": "inplace",
        "label": "uint256[4]",
        "numberOfBytes": "128"
      },
      "t_bool": {
        "encoding": "inplace",
        "label": "bool",
        "numberOfBytes": "1"
      },
      "t_contract(GameInterface)4205": {
        "encoding": "inplace",
        "label": "contract GameInterface",
        "numberOfBytes": "20"
      },
      "t_contract(RoomTileInterface)4219": {
        "encoding": "inplace",
        "label": "contract RoomTileInterface",
        "numberOfBytes": "20"
      },
      "t_contract(UtilsInterface)4263": {
        "encoding": "inplace",
        "label": "contract UtilsInterface",
        "numberOfBytes": "20"
      },
      "t_enum(BCEventType)5873": {
        "encoding": "inplace",
        "label": "enum BCTypes.BCEventType",
        "numberOfBytes": "1"
      },
      "t_enum(DoorStatus)5728": {
        "encoding": "inplace",
        "label": "enum BCTypes.DoorStatus",
        "numberOfBytes": "1"
      },
      "t_mapping(t_uint256,t_bool)": {
        "encoding": "mapping",
        "key": "t_uint256",
        "label": "mapping(uint256 => bool)",
        "numberOfBytes": "32",
        "value": "t_bool"
      },
      "t_mapping(t_uint256,t_mapping(t_uint256,t_struct(GameTile)5803_storage))": {
        "encoding": "mapping",
        "key": "t_uint256",
        "label": "mapping(uint256 => mapping(uint256 => struct BCTypes.GameTile))",
        "numberOfBytes": "32",
        "value": "t_mapping(t_uint256,t_struct(GameTile)5803_storage)"
      },
      "t_mapping(t_uint256,t_struct(Door)5811_storage)": {
        "encoding": "mapping",
        "key": "t_uint256",
        "label": "mapping(uint256 => struct BCTypes.Door)",
        "numberOfBytes": "32",
        "value": "t_struct(Door)5811_storage"
      },
      "t_mapping(t_uint256,t_struct(GameTile)5803_storage)": {
        "encoding": "mapping",
        "key": "t_uint256",
        "label": "mapping(uint256 => struct BCTypes.GameTile)",
        "numberOfBytes": "32",
        "value": "t_struct(GameTile)5803_storage"
      },
      "t_mapping(t_uint256,t_struct(RoomTile)5887_storage)": {
        "encoding": "mapping",
        "key": "t_uint256",
        "label": "mapping(uint256 => struct BCTypes.RoomTile)",
        "numberOfBytes": "32",
        "value": "t_struct(RoomTile)5887_storage"
      },
      "t_struct(Door)5811_storage": {
        "encoding": "inplace",
        "label": "struct BCTypes.Door",
        "members": [
          {
            "astId": 5805,
            "contract": "contracts/BCMaps.sol:Maps",
            "label": "vsBreach",
            "offset": 0,
            "slot": "0",
            "type": "t_uint8"
          },
          {
            "astId": 5807,
            "contract": "contracts/BCMaps.sol:Maps",
            "label": "vsHack",
            "offset": 1,
            "slot": "0",
            "type": "t_uint8"
          },
          {
            "astId": 5810,
            "contract": "contracts/BCMaps.sol:Maps",
            "label": "status",
            "offset": 2,
            "slot": "0",
            "type": "t_enum(DoorStatus)5728"
          }
        ],
        "numberOfBytes": "32"
      },
      "t_struct(GameTile)5803_storage": {
        "encoding": "inplace",
        "label": "struct BCTypes.GameTile",
        "members": [
          {
            "astId": 5790,
            "contract": "contracts/BCMaps.sol:Maps",
            "label": "roomId",
            "offset": 0,
            "slot": "0",
            "type": "t_uint8"
          },
          {
            "astId": 5792,
            "contract": "contracts/BCMaps.sol:Maps",
            "label": "parentId",
            "offset": 1,
            "slot": "0",
            "type": "t_uint8"
          },
          {
            "astId": 5796,
            "contract": "contracts/BCMaps.sol:Maps",
            "label": "doors",
            "offset": 0,
            "slot": "1",
            "type": "t_array(t_uint256)4_storage"
          },
          {
            "astId": 5798,
            "contract": "contracts/BCMaps.sol:Maps",
            "label": "explored",
            "offset": 0,
            "slot": "5",
            "type": "t_bool"
          },
          {
            "astId": 5800,
            "contract": "contracts/BCMaps.sol:Maps",
            "label": "looted",
            "offset": 1,
            "slot": "5",
            "type": "t_bool"
          },
          {
            "astId": 5802,
            "contract": "contracts/BCMaps.sol:Maps",
            "label": "hasVent",
            "offset": 2,
            "slot": "5",
            "type": "t_bool"
          }
        ],
        "numberOfBytes": "192"
      },
      "t_struct(Map)5840_storage": {
        "encoding": "inplace",
        "label": "struct BCTypes.Map",
        "members": [
          {
            "astId": 5816,
            "contract": "contracts/BCMaps.sol:Maps",
            "label": "roomList",
            "offset": 0,
            "slot": "0",
            "type": "t_mapping(t_uint256,t_struct(RoomTile)5887_storage)"
          },
          {
            "astId": 5818,
            "contract": "contracts/BCMaps.sol:Maps",
            "label": "numRooms",
            "offset": 0,
            "slot": "1",
            "type": "t_uint8"
          },
          {
            "astId": 5822,
            "contract": "contracts/BCMaps.sol:Maps",
            "label": "usedRooms",
            "offset": 0,
            "slot": "2",
            "type": "t_mapping(t_uint256,t_bool)"
          },
          {
            "astId": 5829,
            "contract": "contracts/BCMaps.sol:Maps",
            "label": "board",
            "offset": 0,
            "slot": "3",
            "type": "t_mapping(t_uint256,t_mapping(t_uint256,t_struct(GameTile)5803_storage))"
          },
          {
            "astId": 5834,
            "contract": "contracts/BCMaps.sol:Maps",
            "label": "doors",
            "offset": 0,
            "slot": "4",
            "type": "t_mapping(t_uint256,t_struct(Door)5811_storage)"
          },
          {
            "astId": 5836,
            "contract": "contracts/BCMaps.sol:Maps",
            "label": "numDoors",
            "offset": 0,
            "slot": "5",
            "type": "t_uint8"
          },
          {
            "astId": 5839,
            "contract": "contracts/BCMaps.sol:Maps",
            "label": "startPosition",
            "offset": 0,
            "slot": "6",
            "type": "t_struct(Position)5788_storage"
          }
        ],
        "numberOfBytes": "224"
      },
      "t_struct(Position)5788_storage": {
        "encoding": "inplace",
        "label": "struct BCTypes.Position",
        "members": [
          {
            "astId": 5785,
            "contract": "contracts/BCMaps.sol:Maps",
            "label": "row",
            "offset": 0,
            "slot": "0",
            "type": "t_uint8"
          },
          {
            "astId": 5787,
            "contract": "contracts/BCMaps.sol:Maps",
            "label": "col",
            "offset": 1,
            "slot": "0",
            "type": "t_uint8"
          }
        ],
        "numberOfBytes": "32"
      },
      "t_struct(RoomTile)5887_storage": {
        "encoding": "inplace",
        "label": "struct BCTypes.RoomTile",
        "members": [
          {
            "astId": 5876,
            "contract": "contracts/BCMaps.sol:Maps",
            "label": "eventType",
            "offset": 0,
            "slot": "0",
            "type": "t_enum(BCEventType)5873"
          },
          {
            "astId": 5878,
            "contract": "contracts/BCMaps.sol:Maps",
            "label": "eventNum",
            "offset": 0,
            "slot": "1",
            "type": "t_uint256"
          },
          {
            "astId": 5880,
            "contract": "contracts/BCMaps.sol:Maps",
            "label": "numItems",
            "offset": 0,
            "slot": "2",
            "type": "t_uint8"
          },
          {
            "astId": 5882,
            "contract": "contracts/BCMaps.sol:Maps",
            "label": "numData",
            "offset": 1,
            "slot": "2",
            "type": "t_uint8"
          },
          {
            "astId": 5884,
            "contract": "contracts/BCMaps.sol:Maps",
            "label": "hasHazard",
            "offset": 2,
            "slot": "2",
            "type": "t_bool"
          },
          {
            "astId": 5886,
            "contract": "contracts/BCMaps.sol:Maps",
            "label": "sigDetected",
            "offset": 3,
            "slot": "2",
            "type": "t_bool"
          }
        ],
        "numberOfBytes": "96"
      },
      "t_uint256": {
        "encoding": "inplace",
        "label": "uint256",
        "numberOfBytes": "32"
      },
      "t_uint8": {
        "encoding": "inplace",
        "label": "uint8",
        "numberOfBytes": "1"
      }
    }
  }
}