{
  "address": "0x9D1FF8c5B6b0614376A3752f2fEb474e2CD14b5B",
  "abi": [
    {
      "anonymous": false,
      "inputs": [
        {
          "indexed": true,
          "internalType": "address",
          "name": "previousOwner",
          "type": "address"
        },
        {
          "indexed": true,
          "internalType": "address",
          "name": "newOwner",
          "type": "address"
        }
      ],
      "name": "OwnershipTransferred",
      "type": "event"
    },
    {
      "inputs": [],
      "name": "actionsAddress",
      "outputs": [
        {
          "internalType": "address",
          "name": "",
          "type": "address"
        }
      ],
      "stateMutability": "view",
      "type": "function"
    },
    {
      "inputs": [],
      "name": "createMap",
      "outputs": [
        {
          "internalType": "uint256",
          "name": "",
          "type": "uint256"
        }
      ],
      "stateMutability": "nonpayable",
      "type": "function"
    },
    {
      "inputs": [
        {
          "internalType": "uint256",
          "name": "_mapId",
          "type": "uint256"
        },
        {
          "internalType": "uint256",
          "name": "_row",
          "type": "uint256"
        },
        {
          "internalType": "uint256",
          "name": "_col",
          "type": "uint256"
        }
      ],
      "name": "discoverRoom",
      "outputs": [
        {
          "internalType": "bool",
          "name": "",
          "type": "bool"
        }
      ],
      "stateMutability": "nonpayable",
      "type": "function"
    },
    {
      "inputs": [
        {
          "internalType": "uint256",
          "name": "_mapId",
          "type": "uint256"
        }
      ],
      "name": "extGetBoard",
      "outputs": [
        {
          "components": [
            {
              "internalType": "uint8",
              "name": "roomId",
              "type": "uint8"
            },
            {
              "internalType": "uint8",
              "name": "parentId",
              "type": "uint8"
            },
            {
              "internalType": "uint256[4]",
              "name": "doors",
              "type": "uint256[4]"
            },
            {
              "internalType": "bool",
              "name": "explored",
              "type": "bool"
            },
            {
              "internalType": "bool",
              "name": "looted",
              "type": "bool"
            },
            {
              "internalType": "bool",
              "name": "hasVent",
              "type": "bool"
            }
          ],
          "internalType": "struct BCTypes.GameTile[][]",
          "name": "",
          "type": "tuple[][]"
        }
      ],
      "stateMutability": "view",
      "type": "function"
    },
    {
      "inputs": [
        {
          "internalType": "uint256",
          "name": "_mapId",
          "type": "uint256"
        }
      ],
      "name": "extGetDoors",
      "outputs": [
        {
          "components": [
            {
              "internalType": "uint8",
              "name": "vsBreach",
              "type": "uint8"
            },
            {
              "internalType": "uint8",
              "name": "vsHack",
              "type": "uint8"
            },
            {
              "internalType": "enum BCTypes.DoorStatus",
              "name": "status",
              "type": "uint8"
            }
          ],
          "internalType": "struct BCTypes.Door[]",
          "name": "",
          "type": "tuple[]"
        }
      ],
      "stateMutability": "view",
      "type": "function"
    },
    {
      "inputs": [
        {
          "internalType": "uint256",
          "name": "_mapId",
          "type": "uint256"
        },
        {
          "internalType": "uint256",
          "name": "_row",
          "type": "uint256"
        },
        {
          "internalType": "uint256",
          "name": "_col",
          "type": "uint256"
        }
      ],
      "name": "extGetGameTile",
      "outputs": [
        {
          "components": [
            {
              "internalType": "uint8",
              "name": "roomId",
              "type": "uint8"
            },
            {
              "internalType": "uint8",
              "name": "parentId",
              "type": "uint8"
            },
            {
              "internalType": "uint256[4]",
              "name": "doors",
              "type": "uint256[4]"
            },
            {
              "internalType": "bool",
              "name": "explored",
              "type": "bool"
            },
            {
              "internalType": "bool",
              "name": "looted",
              "type": "bool"
            },
            {
              "internalType": "bool",
              "name": "hasVent",
              "type": "bool"
            }
          ],
          "internalType": "struct BCTypes.GameTile",
          "name": "",
          "type": "tuple"
        }
      ],
      "stateMutability": "view",
      "type": "function"
    },
    {
      "inputs": [
        {
          "internalType": "uint256",
          "name": "_mapId",
          "type": "uint256"
        },
        {
          "internalType": "uint256",
          "name": "_row",
          "type": "uint256"
        },
        {
          "internalType": "uint256",
          "name": "_col",
          "type": "uint256"
        }
      ],
      "name": "extGetRoom",
      "outputs": [
        {
          "components": [
            {
              "internalType": "enum BCTypes.BCEventType",
              "name": "eventType",
              "type": "uint8"
            },
            {
              "internalType": "uint256",
              "name": "eventNum",
              "type": "uint256"
            },
            {
              "internalType": "uint8",
              "name": "numItems",
              "type": "uint8"
            },
            {
              "internalType": "uint8",
              "name": "numData",
              "type": "uint8"
            },
            {
              "internalType": "bool",
              "name": "hasHazard",
              "type": "bool"
            },
            {
              "internalType": "bool",
              "name": "sigDetected",
              "type": "bool"
            }
          ],
          "internalType": "struct BCTypes.RoomTile",
          "name": "",
          "type": "tuple"
        }
      ],
      "stateMutability": "view",
      "type": "function"
    },
    {
      "inputs": [
        {
          "internalType": "uint256",
          "name": "_mapId",
          "type": "uint256"
        }
      ],
      "name": "extGetRoomList",
      "outputs": [
        {
          "components": [
            {
              "internalType": "enum BCTypes.BCEventType",
              "name": "eventType",
              "type": "uint8"
            },
            {
              "internalType": "uint256",
              "name": "eventNum",
              "type": "uint256"
            },
            {
              "internalType": "uint8",
              "name": "numItems",
              "type": "uint8"
            },
            {
              "internalType": "uint8",
              "name": "numData",
              "type": "uint8"
            },
            {
              "internalType": "bool",
              "name": "hasHazard",
              "type": "bool"
            },
            {
              "internalType": "bool",
              "name": "sigDetected",
              "type": "bool"
            }
          ],
          "internalType": "struct BCTypes.RoomTile[]",
          "name": "",
          "type": "tuple[]"
        }
      ],
      "stateMutability": "view",
      "type": "function"
    },
    {
      "inputs": [],
      "name": "game",
      "outputs": [
        {
          "internalType": "contract GameInterface",
          "name": "",
          "type": "address"
        }
      ],
      "stateMutability": "view",
      "type": "function"
    },
    {
      "inputs": [
        {
          "internalType": "uint256",
          "name": "_mapId",
          "type": "uint256"
        },
        {
          "internalType": "uint256",
          "name": "_row",
          "type": "uint256"
        },
        {
          "internalType": "uint256",
          "name": "_col",
          "type": "uint256"
        },
        {
          "internalType": "uint256",
          "name": "_direction",
          "type": "uint256"
        }
      ],
      "name": "getDoor",
      "outputs": [
        {
          "components": [
            {
              "internalType": "uint8",
              "name": "vsBreach",
              "type": "uint8"
            },
            {
              "internalType": "uint8",
              "name": "vsHack",
              "type": "uint8"
            },
            {
              "internalType": "enum BCTypes.DoorStatus",
              "name": "status",
              "type": "uint8"
            }
          ],
          "internalType": "struct BCTypes.Door",
          "name": "",
          "type": "tuple"
        }
      ],
      "stateMutability": "view",
      "type": "function"
    },
    {
      "inputs": [
        {
          "internalType": "uint256",
          "name": "",
          "type": "uint256"
        }
      ],
      "name": "maps",
      "outputs": [
        {
          "internalType": "uint8",
          "name": "numRooms",
          "type": "uint8"
        },
        {
          "internalType": "uint8",
          "name": "numDoors",
          "type": "uint8"
        },
        {
          "components": [
            {
              "internalType": "uint8",
              "name": "row",
              "type": "uint8"
            },
            {
              "internalType": "uint8",
              "name": "col",
              "type": "uint8"
            }
          ],
          "internalType": "struct BCTypes.Position",
          "name": "startPosition",
          "type": "tuple"
        }
      ],
      "stateMutability": "view",
      "type": "function"
    },
    {
      "inputs": [],
      "name": "owner",
      "outputs": [
        {
          "internalType": "address",
          "name": "",
          "type": "address"
        }
      ],
      "stateMutability": "view",
      "type": "function"
    },
    {
      "inputs": [],
      "name": "renounceOwnership",
      "outputs": [],
      "stateMutability": "nonpayable",
      "type": "function"
    },
    {
      "inputs": [
        {
          "internalType": "uint256",
          "name": "_mapId",
          "type": "uint256"
        }
      ],
      "name": "resetOpenDoors",
      "outputs": [],
      "stateMutability": "nonpayable",
      "type": "function"
    },
    {
      "inputs": [],
      "name": "roomTiles",
      "outputs": [
        {
          "internalType": "contract RoomTileInterface",
          "name": "",
          "type": "address"
        }
      ],
      "stateMutability": "view",
      "type": "function"
    },
    {
      "inputs": [
        {
          "internalType": "address",
          "name": "_gameAddress",
          "type": "address"
        },
        {
          "internalType": "address",
          "name": "_utilsAddress",
          "type": "address"
        },
        {
          "internalType": "address",
          "name": "_roomTilesAddress",
          "type": "address"
        },
        {
          "internalType": "address",
          "name": "_actionsAddress",
          "type": "address"
        }
      ],
      "name": "setContractAddresses",
      "outputs": [],
      "stateMutability": "nonpayable",
      "type": "function"
    },
    {
      "inputs": [
        {
          "internalType": "uint256",
          "name": "_mapId",
          "type": "uint256"
        },
        {
          "internalType": "uint256",
          "name": "_row",
          "type": "uint256"
        },
        {
          "internalType": "uint256",
          "name": "_col",
          "type": "uint256"
        },
        {
          "internalType": "uint256",
          "name": "_direction",
          "type": "uint256"
        },
        {
          "internalType": "enum BCTypes.DoorStatus",
          "name": "_status",
          "type": "uint8"
        }
      ],
      "name": "setDoorFromPos",
      "outputs": [],
      "stateMutability": "nonpayable",
      "type": "function"
    },
    {
      "inputs": [
        {
          "internalType": "uint256",
          "name": "_mapId",
          "type": "uint256"
        },
        {
          "internalType": "uint256",
          "name": "_row",
          "type": "uint256"
        },
        {
          "internalType": "uint256",
          "name": "_col",
          "type": "uint256"
        }
      ],
      "name": "setLooted",
      "outputs": [],
      "stateMutability": "nonpayable",
      "type": "function"
    },
    {
      "inputs": [
        {
          "internalType": "address",
          "name": "newOwner",
          "type": "address"
        }
      ],
      "name": "transferOwnership",
      "outputs": [],
      "stateMutability": "nonpayable",
      "type": "function"
    },
    {
      "inputs": [],
      "name": "utils",
      "outputs": [
        {
          "internalType": "contract UtilsInterface",
          "name": "",
          "type": "address"
        }
      ],
      "stateMutability": "view",
      "type": "function"
    }
  ],
  "transactionHash": "0x28be1be18330ca7cee2b3d07339c6834945c009d62d35b62ac993e746f6364f5",
  "args": [],
  "numDeployments": 1,
  "solcInputHash": "eb6083dc0425f38529ce39dd246c876f",
  "bytecode": "0x60806040523480156200001157600080fd5b5062000032620000266200003860201b60201c565b6200004060201b60201c565b62000104565b600033905090565b60008060009054906101000a900473ffffffffffffffffffffffffffffffffffffffff169050816000806101000a81548173ffffffffffffffffffffffffffffffffffffffff021916908373ffffffffffffffffffffffffffffffffffffffff1602179055508173ffffffffffffffffffffffffffffffffffffffff168173ffffffffffffffffffffffffffffffffffffffff167f8be0079c531659141344cd1fd0a4f28419497f9722a3daafe3b4186f6b6457e060405160405180910390a35050565b614a4480620001146000396000f3fe608060405234801561001057600080fd5b506004361061012c5760003560e01c806386e529d0116100ad578063c3fe3e2811610071578063c3fe3e2814610357578063f01fc35a14610375578063f2fde38b14610393578063f7157f64146103af578063f9dfbfcb146103cd5761012c565b806386e529d0146102b55780638af13fd2146102d15780638da5cb5b14610301578063aaa687771461031f578063b6cdd3b41461033b5761012c565b806369568fd5116100f457806369568fd5146101fb5780636ea1dcd81461022b578063715018a61461025b57806375990a0e146102655780637b45c0d4146102975761012c565b806302861c6c146101315780631ef0441614610161578063471b67591461019157806358308aa8146101c15780635a29638d146101dd575b600080fd5b61014b60048036038101906101469190613466565b6103fd565b60405161015891906135f1565b60405180910390f35b61017b6004803603810190610176919061360c565b61055e565b60405161018891906138c4565b60405180910390f35b6101ab60048036038101906101a69190613466565b6107e9565b6040516101b891906138f5565b60405180910390f35b6101db60048036038101906101d6919061360c565b610943565b005b6101e5610b00565b6040516101f2919061398f565b60405180910390f35b6102156004803603810190610210919061360c565b610b26565b6040516102229190613ae3565b60405180910390f35b61024560048036038101906102409190613b05565b610cb2565b6040516102529190613bae565b60405180910390f35b610263610e1c565b005b61027f600480360381019061027a919061360c565b610e30565b60405161028e93929190613c07565b60405180910390f35b61029f610ec8565b6040516102ac9190613c5f565b60405180910390f35b6102cf60048036038101906102ca9190613466565b610eee565b005b6102eb60048036038101906102e6919061360c565b610fe6565b6040516102f89190613da4565b60405180910390f35b6103096111b2565b6040516103169190613c5f565b60405180910390f35b61033960048036038101906103349190613df2565b6111db565b005b61035560048036038101906103509190613e7e565b6112ed565b005b61035f61148d565b60405161036c9190613f1a565b60405180910390f35b61037d6114b3565b60405161038a9190613f44565b60405180910390f35b6103ad60048036038101906103a89190613f5f565b6116d0565b005b6103b7611754565b6040516103c49190613fad565b60405180910390f35b6103e760048036038101906103e29190613466565b61177a565b6040516103f49190614045565b60405180910390f35b610405613233565b6006848154811061041957610418614061565b5b90600052602060002090600702016000016000600686815481106104405761043f614061565b5b90600052602060002090600702016003016000868152602001908152602001600020600085815260200190815260200160002060000160009054906101000a900460ff1660ff1681526020019081526020016000206040518060c00160405290816000820160009054906101000a900460ff1660048111156104c5576104c46134b9565b5b60048111156104d7576104d66134b9565b5b8152602001600182015481526020016002820160009054906101000a900460ff1660ff1660ff1681526020016002820160019054906101000a900460ff1660ff1660ff1681526020016002820160029054906101000a900460ff161515151581526020016002820160039054906101000a900460ff16151515158152505090509392505050565b60606000600b67ffffffffffffffff81111561057d5761057c614090565b5b6040519080825280602002602001820160405280156105b057816020015b606081526020019060019003908161059b5790505b50905060005b600b81101561064557600b67ffffffffffffffff8111156105da576105d9614090565b5b60405190808252806020026020018201604052801561061357816020015b610600613285565b8152602001906001900390816105f85790505b5082828151811061062757610626614061565b5b6020026020010181905250808061063d906140ee565b9150506105b6565b5060005b600b8110156107df5760005b600b8110156107cb576006858154811061067257610671614061565b5b9060005260206000209060070201600301600083815260200190815260200160002060008281526020019081526020016000206040518060c00160405290816000820160009054906101000a900460ff1660ff1660ff1681526020016000820160019054906101000a900460ff1660ff1660ff16815260200160018201600480602002604051908101604052809291908260048015610726576020028201915b815481526020019060010190808311610712575b505050505081526020016005820160009054906101000a900460ff161515151581526020016005820160019054906101000a900460ff161515151581526020016005820160029054906101000a900460ff16151515158152505083838151811061079357610792614061565b5b602002602001015182815181106107ad576107ac614061565b5b602002602001018190525080806107c3906140ee565b915050610655565b5080806107d7906140ee565b915050610649565b5080915050919050565b6000600160009054906101000a900473ffffffffffffffffffffffffffffffffffffffff1673ffffffffffffffffffffffffffffffffffffffff163373ffffffffffffffffffffffffffffffffffffffff161461087b576040517f08c379a000000000000000000000000000000000000000000000000000000000815260040161087290614194565b60405180910390fd5b60006006858154811061089157610890614061565b5b9060005260206000209060070201600301600085815260200190815260200160002060008481526020019081526020016000209050600160ff168160000160009054906101000a900460ff1660ff16141561093657610910600686815481106108fd576108fc614061565b5b90600052602060002090600702016118ad565b8160000160006101000a81548160ff021916908360ff160217905550600191505061093c565b60009150505b9392505050565b600160009054906101000a900473ffffffffffffffffffffffffffffffffffffffff1673ffffffffffffffffffffffffffffffffffffffff163373ffffffffffffffffffffffffffffffffffffffff16146109d3576040517f08c379a00000000000000000000000000000000000000000000000000000000081526004016109ca90614194565b60405180910390fd5b60005b600682815481106109ea576109e9614061565b5b906000526020600020906007020160050160009054906101000a900460ff1660ff16811015610afc5760026004811115610a2757610a266134b9565b5b60068381548110610a3b57610a3a614061565b5b9060005260206000209060070201600401600083815260200190815260200160002060000160029054906101000a900460ff166004811115610a8057610a7f6134b9565b5b1415610ae957600160068381548110610a9c57610a9b614061565b5b9060005260206000209060070201600401600083815260200190815260200160002060000160026101000a81548160ff02191690836004811115610ae357610ae26134b9565b5b02179055505b8080610af4906140ee565b9150506109d6565b5050565b600260009054906101000a900473ffffffffffffffffffffffffffffffffffffffff1681565b6060600060068381548110610b3e57610b3d614061565b5b906000526020600020906007020160050160009054906101000a900460ff1660ff1667ffffffffffffffff811115610b7957610b78614090565b5b604051908082528060200260200182016040528015610bb257816020015b610b9f6132cd565b815260200190600190039081610b975790505b50905060005b8151811015610ca85760068481548110610bd557610bd4614061565b5b906000526020600020906007020160040160008281526020019081526020016000206040518060600160405290816000820160009054906101000a900460ff1660ff1660ff1681526020016000820160019054906101000a900460ff1660ff1660ff1681526020016000820160029054906101000a900460ff166004811115610c6157610c606134b9565b5b6004811115610c7357610c726134b9565b5b81525050828281518110610c8a57610c89614061565b5b60200260200101819052508080610ca0906140ee565b915050610bb8565b5080915050919050565b610cba6132cd565b600060068681548110610cd057610ccf614061565b5b906000526020600020906007020160030160008681526020019081526020016000206000858152602001908152602001600020600101600480602002604051908101604052809291908260048015610d3d576020028201915b815481526020019060010190808311610d29575b5050505050905060068681548110610d5857610d57614061565b5b90600052602060002090600702016004016000828560048110610d7e57610d7d614061565b5b602002015181526020019081526020016000206040518060600160405290816000820160009054906101000a900460ff1660ff1660ff1681526020016000820160019054906101000a900460ff1660ff1660ff1681526020016000820160029054906101000a900460ff166004811115610dfb57610dfa6134b9565b5b6004811115610e0d57610e0c6134b9565b5b81525050915050949350505050565b610e24611a3d565b610e2e6000611abb565b565b60068181548110610e4057600080fd5b90600052602060002090600702016000915090508060010160009054906101000a900460ff16908060050160009054906101000a900460ff1690806006016040518060400160405290816000820160009054906101000a900460ff1660ff1660ff1681526020016000820160019054906101000a900460ff1660ff1660ff1681525050905083565b600460009054906101000a900473ffffffffffffffffffffffffffffffffffffffff1681565b600460009054906101000a900473ffffffffffffffffffffffffffffffffffffffff1673ffffffffffffffffffffffffffffffffffffffff163373ffffffffffffffffffffffffffffffffffffffff1614610f7e576040517f08c379a0000000000000000000000000000000000000000000000000000000008152600401610f7590614200565b60405180910390fd5b600160068481548110610f9457610f93614061565b5b90600052602060002090600702016003016000848152602001908152602001600020600083815260200190815260200160002060050160016101000a81548160ff021916908315150217905550505050565b6060600060068381548110610ffe57610ffd614061565b5b906000526020600020906007020160010160009054906101000a900460ff1660ff1667ffffffffffffffff81111561103957611038614090565b5b60405190808252806020026020018201604052801561107257816020015b61105f613233565b8152602001906001900390816110575790505b50905060005b81518110156111a8576006848154811061109557611094614061565b5b906000526020600020906007020160000160008281526020019081526020016000206040518060c00160405290816000820160009054906101000a900460ff1660048111156110e7576110e66134b9565b5b60048111156110f9576110f86134b9565b5b8152602001600182015481526020016002820160009054906101000a900460ff1660ff1660ff1681526020016002820160019054906101000a900460ff1660ff1660ff1681526020016002820160029054906101000a900460ff161515151581526020016002820160039054906101000a900460ff16151515158152505082828151811061118a57611189614061565b5b602002602001018190525080806111a0906140ee565b915050611078565b5080915050919050565b60008060009054906101000a900473ffffffffffffffffffffffffffffffffffffffff16905090565b6111e3611a3d565b83600160006101000a81548173ffffffffffffffffffffffffffffffffffffffff021916908373ffffffffffffffffffffffffffffffffffffffff16021790555082600260006101000a81548173ffffffffffffffffffffffffffffffffffffffff021916908373ffffffffffffffffffffffffffffffffffffffff16021790555081600360006101000a81548173ffffffffffffffffffffffffffffffffffffffff021916908373ffffffffffffffffffffffffffffffffffffffff16021790555080600460006101000a81548173ffffffffffffffffffffffffffffffffffffffff021916908373ffffffffffffffffffffffffffffffffffffffff16021790555050505050565b600160009054906101000a900473ffffffffffffffffffffffffffffffffffffffff1673ffffffffffffffffffffffffffffffffffffffff163373ffffffffffffffffffffffffffffffffffffffff161461137d576040517f08c379a000000000000000000000000000000000000000000000000000000000815260040161137490614194565b60405180910390fd5b60006006868154811061139357611392614061565b5b906000526020600020906007020160030160008681526020019081526020016000206000858152602001908152602001600020600101600480602002604051908101604052809291908260048015611400576020028201915b8154815260200190600101908083116113ec575b5050505050905060006006878154811061141d5761141c614061565b5b9060005260206000209060070201600401600083866004811061144357611442614061565b5b602002015181526020019081526020016000209050828160000160026101000a81548160ff0219169083600481111561147f5761147e6134b9565b5b021790555050505050505050565b600160009054906101000a900473ffffffffffffffffffffffffffffffffffffffff1681565b6000600160009054906101000a900473ffffffffffffffffffffffffffffffffffffffff1673ffffffffffffffffffffffffffffffffffffffff163373ffffffffffffffffffffffffffffffffffffffff1614611545576040517f08c379a000000000000000000000000000000000000000000000000000000000815260040161153c9061426c565b60405180910390fd5b60006006600181600181540180825580915050039060005260206000209060070201905061157581600001611b7f565b8160010160006101000a81548160ff021916908360ff160217905550604051806060016040528060ff8016815260200160ff80168152602001600060048111156115c2576115c16134b9565b5b8152508160040160008360050160009054906101000a900460ff1660ff16815260200190815260200160002060008201518160000160006101000a81548160ff021916908360ff16021790555060208201518160000160016101000a81548160ff021916908360ff16021790555060408201518160000160026101000a81548160ff0219169083600481111561165b5761165a6134b9565b5b021790555090505080600501600081819054906101000a900460ff16809291906116849061428c565b91906101000a81548160ff021916908360ff160217905550506116a681611daa565b6116af81611f8c565b6116b881612e0a565b60016006805490506116ca91906142b6565b91505090565b6116d8611a3d565b600073ffffffffffffffffffffffffffffffffffffffff168173ffffffffffffffffffffffffffffffffffffffff161415611748576040517f08c379a000000000000000000000000000000000000000000000000000000000815260040161173f9061435c565b60405180910390fd5b61175181611abb565b50565b600360009054906101000a900473ffffffffffffffffffffffffffffffffffffffff1681565b611782613285565b6006848154811061179657611795614061565b5b9060005260206000209060070201600301600084815260200190815260200160002060008381526020019081526020016000206040518060c00160405290816000820160009054906101000a900460ff1660ff1660ff1681526020016000820160019054906101000a900460ff1660ff1660ff1681526020016001820160048060200260405190810160405280929190826004801561184a576020028201915b815481526020019060010190808311611836575b505050505081526020016005820160009054906101000a900460ff161515151581526020016005820160019054906101000a900460ff161515151581526020016005820160029054906101000a900460ff16151515158152505090509392505050565b600080600260009054906101000a900473ffffffffffffffffffffffffffffffffffffffff1673ffffffffffffffffffffffffffffffffffffffff1663ce28613f600160026118fc919061437c565b60048660010160009054906101000a900460ff1661191a91906143d2565b6040518363ffffffff1660e01b8152600401611937929190614406565b6020604051808303816000875af1158015611956573d6000803e3d6000fd5b505050506040513d601f19601f8201168201806040525081019061197a919061445b565b90505b600115158360020160008360ff16815260200190815260200160002060009054906101000a900460ff1615151415611a035760018360010160009054906101000a900460ff166119cd91906143d2565b60ff168160ff1614156119ef57600160026119e89190614488565b90506119fe565b80806119fa9061428c565b9150505b61197d565b60018360020160008360ff16815260200190815260200160002060006101000a81548160ff02191690831515021790555080915050919050565b611a4561322b565b73ffffffffffffffffffffffffffffffffffffffff16611a636111b2565b73ffffffffffffffffffffffffffffffffffffffff1614611ab9576040517f08c379a0000000000000000000000000000000000000000000000000000000008152600401611ab09061450b565b60405180910390fd5b565b60008060009054906101000a900473ffffffffffffffffffffffffffffffffffffffff169050816000806101000a81548173ffffffffffffffffffffffffffffffffffffffff021916908373ffffffffffffffffffffffffffffffffffffffff1602179055508173ffffffffffffffffffffffffffffffffffffffff168173ffffffffffffffffffffffffffffffffffffffff167f8be0079c531659141344cd1fd0a4f28419497f9722a3daafe3b4186f6b6457e060405160405180910390a35050565b600080600360009054906101000a900473ffffffffffffffffffffffffffffffffffffffff1673ffffffffffffffffffffffffffffffffffffffff166338fdf0bd6040518163ffffffff1660e01b8152600401602060405180830381865afa158015611bef573d6000803e3d6000fd5b505050506040513d601f19601f82011682018060405250810190611c139190614540565b905060005b81811015611da057600360009054906101000a900473ffffffffffffffffffffffffffffffffffffffff1673ffffffffffffffffffffffffffffffffffffffff166382753ebe826040518263ffffffff1660e01b8152600401611c7b9190613f44565b60c060405180830381865afa158015611c98573d6000803e3d6000fd5b505050506040513d601f19601f82011682018060405250810190611cbc91906146c0565b84600083815260200190815260200160002060008201518160000160006101000a81548160ff02191690836004811115611cf957611cf86134b9565b5b02179055506020820151816001015560408201518160020160006101000a81548160ff021916908360ff16021790555060608201518160020160016101000a81548160ff021916908360ff16021790555060808201518160020160026101000a81548160ff02191690831515021790555060a08201518160020160036101000a81548160ff0219169083151502179055509050508080611d98906140ee565b915050611c18565b5080915050919050565b60006005600181600181540180825580915050039060005260206000209060060201905060006001600b611dde91906142b6565b9050600060016002600b611df2919061471c565b611dfc919061437c565b905060405180604001604052808360ff1681526020018260ff168152508460060160008201518160000160006101000a81548160ff021916908360ff16021790555060208201518160000160016101000a81548160ff021916908360ff1602179055509050508284600301600084815260200190815260200160002060008381526020019081526020016000206000820160009054906101000a900460ff168160000160006101000a81548160ff021916908360ff1602179055506000820160019054906101000a900460ff168160000160016101000a81548160ff021916908360ff1602179055506001820181600101906004611efb929190613306565b506005820160009054906101000a900460ff168160050160006101000a81548160ff0219169083151502179055506005820160019054906101000a900460ff168160050160016101000a81548160ff0219169083151502179055506005820160029054906101000a900460ff168160050160026101000a81548160ff02191690831515021790555090505050505050565b60008060028360010160009054906101000a900460ff16611fad91906143d2565b60ff1690506000600190506000611fc2613343565b6001818760060160000160009054906101000a900460ff1660ff16600b8110611fee57611fed614061565b5b60200201518760060160000160019054906101000a900460ff1660ff16600b811061201c5761201b614061565b5b602002019015159081151581525050612033613371565b866006016040518060400160405290816000820160009054906101000a900460ff1660ff1660ff1681526020016000820160019054906101000a900460ff1660ff1660ff16815250508187601e811061208f5761208e614061565b5b602002018190525085806120a2906140ee565b9650505b6000851180156120b65750600086115b15612d4e576000816001886120cb91906142b6565b601e81106120dc576120db614061565b5b6020020151905086806120ee9061474d565b9750508187601e811061210457612103614061565b5b6020020161211061339f565b815250858061211e9061474d565b965050848061212c9061474d565b9550506001886003016000836000015160ff1681526020019081526020016000206000836020015160ff16815260200190815260200160002060000160006101000a81548160ff021916908360ff1602179055506021600260009054906101000a900473ffffffffffffffffffffffffffffffffffffffff1673ffffffffffffffffffffffffffffffffffffffff1663ce28613f600060636040518363ffffffff1660e01b81526004016121e19291906147ed565b6020604051808303816000875af1158015612200573d6000803e3d6000fd5b505050506040513d601f19601f82011682018060405250810190612224919061445b565b60ff16101561227e576001886003016000836000015160ff1681526020019081526020016000206000836020015160ff16815260200190815260200160002060050160026101000a81548160ff0219169083151502179055505b60006040518060800160405280600081526020016001815260200160028152602001600381525090506000600160046122b791906142b6565b90505b60008111156123eb576000600260009054906101000a900473ffffffffffffffffffffffffffffffffffffffff1673ffffffffffffffffffffffffffffffffffffffff1663ce28613f600060036040518363ffffffff1660e01b8152600401612324929190614851565b6020604051808303816000875af1158015612343573d6000803e3d6000fd5b505050506040513d601f19601f82011682018060405250810190612367919061445b565b9050828160ff166004811061237f5761237e614061565b5b602002015183836004811061239757612396614061565b5b60200201518484600481106123af576123ae614061565b5b60200201858460ff16600481106123c9576123c8614061565b5b60200201828152508281525050505080806123e39061474d565b9150506122ba565b5060005b6004811015612d46576000836000015160000b90506000846020015160000b9050600084846004811061242557612424614061565b5b6020020151141561244357818061243b90614884565b9250506124db565b600184846004811061245857612457614061565b5b6020020151141561247657818061246e906148cd565b9250506124da565b600284846004811061248b5761248a614061565b5b602002015114156124a95780806124a1906148cd565b9150506124d9565b60038484600481106124be576124bd614061565b5b602002015114156124d85780806124d490614884565b9150505b5b5b5b60018212806124ea5750600181125b8061250157506002600b6124fe91906142b6565b82135b8061251857506002600b61251591906142b6565b81135b15612524575050612d33565b600060405180604001604052808460ff1681526020018360ff1681525090506000151588826000015160ff16600b811061256157612560614061565b5b6020020151826020015160ff16600b811061257f5761257e614061565b5b602002015115151480612679575060008d6003016000886000015160ff1681526020019081526020016000206000886020015160ff168152602001908152602001600020600101600260009054906101000a900473ffffffffffffffffffffffffffffffffffffffff1673ffffffffffffffffffffffffffffffffffffffff1663fa3993c289856040518363ffffffff1660e01b8152600401612623929190614916565b602060405180830381865afa158015612640573d6000803e3d6000fd5b505050506040513d601f19601f820116820180604052508101906126649190614540565b6004811061267557612674614061565b5b0154145b15612d2f5760008a148061273c575088604261269591906142b6565b600260009054906101000a900473ffffffffffffffffffffffffffffffffffffffff1673ffffffffffffffffffffffffffffffffffffffff1663ce28613f600060636040518363ffffffff1660e01b81526004016126f49291906147ed565b6020604051808303816000875af1158015612713573d6000803e3d6000fd5b505050506040513d601f19601f82011682018060405250810190612737919061445b565b60ff16105b15612d29576040518060600160405280600260009054906101000a900473ffffffffffffffffffffffffffffffffffffffff1673ffffffffffffffffffffffffffffffffffffffff1663ce28613f600060036040518363ffffffff1660e01b81526004016127ab92919061493f565b6020604051808303816000875af11580156127ca573d6000803e3d6000fd5b505050506040513d601f19601f820116820180604052508101906127ee919061445b565b60ff168152602001600260009054906101000a900473ffffffffffffffffffffffffffffffffffffffff1673ffffffffffffffffffffffffffffffffffffffff1663ce28613f600060036040518363ffffffff1660e01b815260040161285592919061493f565b6020604051808303816000875af1158015612874573d6000803e3d6000fd5b505050506040513d601f19601f82011682018060405250810190612898919061445b565b60ff168152602001600160048111156128b4576128b36134b9565b5b8152508d60040160008f60050160009054906101000a900460ff1660ff16815260200190815260200160002060008201518160000160006101000a81548160ff021916908360ff16021790555060208201518160000160016101000a81548160ff021916908360ff16021790555060408201518160000160026101000a81548160ff0219169083600481111561294d5761294c6134b9565b5b021790555090505060008d60040160008f60050160009054906101000a900460ff1660ff16815260200190815260200160002060000160009054906101000a900460ff1660ff1614156129f05760038d60040160008f60050160009054906101000a900460ff1660ff16815260200190815260200160002060000160026101000a81548160ff021916908360048111156129ea576129e96134b9565b5b02179055505b8c600501600081819054906101000a900460ff1680929190612a119061428c565b91906101000a81548160ff021916908360ff16021790555050601689612a37919061437c565b98506042891115612a4757604298505b6000151588826000015160ff16600b8110612a6557612a64614061565b5b6020020151826020015160ff16600b8110612a8357612a82614061565b5b602002015115151415612b125780878d601e8110612aa457612aa3614061565b5b60200201819052508b80612ab7906140ee565b9c50508980612ac5906140ee565b9a5050600188826000015160ff16600b8110612ae457612ae3614061565b5b6020020151826020015160ff16600b8110612b0257612b01614061565b5b6020020190151590811515815250505b60008d6003016000886000015160ff1681526020019081526020016000206000886020015160ff168152602001908152602001600020600101868660048110612b5e57612b5d614061565b5b602002015160048110612b7457612b73614061565b5b01541415612d245760018d60050160009054906101000a900460ff16612b9a91906143d2565b60ff168d6003016000886000015160ff1681526020019081526020016000206000886020015160ff168152602001908152602001600020600101868660048110612be757612be6614061565b5b602002015160048110612bfd57612bfc614061565b5b018190555060018d60050160009054906101000a900460ff16612c2091906143d2565b60ff168d6003016000836000015160ff1681526020019081526020016000206000836020015160ff168152602001908152602001600020600101600260009054906101000a900473ffffffffffffffffffffffffffffffffffffffff1673ffffffffffffffffffffffffffffffffffffffff16638214f222888860048110612cab57612caa614061565b5b60200201516040518263ffffffff1660e01b8152600401612ccc9190613f44565b602060405180830381865afa158015612ce9573d6000803e3d6000fd5b505050506040513d601f19601f82011682018060405250810190612d0d9190614540565b60048110612d1e57612d1d614061565b5b01819055505b612d2e565b600098505b5b5050505b8080612d3e906140ee565b9150506123ef565b5050506120a6565b60028760030160008960060160000160009054906101000a900460ff1660ff16815260200190815260200160002060008960060160000160019054906101000a900460ff1660ff16815260200190815260200160002060000160006101000a81548160ff021916908360ff16021790555060038760040160006001815260200190815260200160002060000160026101000a81548160ff02191690836004811115612dfc57612dfb6134b9565b5b021790555050505050505050565b60005b600b8110156132275760005b600b81101561321357600160ff16836003016000848152602001908152602001600020600083815260200190815260200160002060000160009054906101000a900460ff1660ff1614156132005760005b60048110156131fe57600084600301600085815260200190815260200160002060008481526020019081526020016000206001018260048110612eb057612eaf614061565b5b015414156131eb576000600260009054906101000a900473ffffffffffffffffffffffffffffffffffffffff1673ffffffffffffffffffffffffffffffffffffffff1663951fc3fe8360405180604001604052808860ff1681526020018760ff168152506040518363ffffffff1660e01b8152600401612f31929190614968565b6040805180830381865afa158015612f4d573d6000803e3d6000fd5b505050506040513d601f19601f82011682018060405250810190612f7191906149e1565b90506000856003016000836000015160ff1681526020019081526020016000206000836020015160ff16815260200190815260200160002060000160009054906101000a900460ff1660ff1690506042600260009054906101000a900473ffffffffffffffffffffffffffffffffffffffff1673ffffffffffffffffffffffffffffffffffffffff1663ce28613f600060636040518363ffffffff1660e01b81526004016130209291906147ed565b6020604051808303816000875af115801561303f573d6000803e3d6000fd5b505050506040513d601f19601f82011682018060405250810190613063919061445b565b60ff161080156130765750600060ff1681145b156131e857604051806060016040528060ff8016815260200160ff801681526020016004808111156130ab576130aa6134b9565b5b8152508660040160008860050160009054906101000a900460ff1660ff16815260200190815260200160002060008201518160000160006101000a81548160ff021916908360ff16021790555060208201518160000160016101000a81548160ff021916908360ff16021790555060408201518160000160026101000a81548160ff02191690836004811115613144576131436134b9565b5b021790555090505085600501600081819054906101000a900460ff168092919061316d9061428c565b91906101000a81548160ff021916908360ff1602179055505060018660050160009054906101000a900460ff166131a491906143d2565b60ff16866003016000878152602001908152602001600020600086815260200190815260200160002060010184600481106131e2576131e1614061565b5b01819055505b50505b80806131f6906140ee565b915050612e6a565b505b808061320b906140ee565b915050612e19565b50808061321f906140ee565b915050612e0d565b5050565b600033905090565b6040518060c0016040528060006004811115613252576132516134b9565b5b815260200160008152602001600060ff168152602001600060ff1681526020016000151581526020016000151581525090565b6040518060c00160405280600060ff168152602001600060ff1681526020016132ac6133bf565b81526020016000151581526020016000151581526020016000151581525090565b6040518060600160405280600060ff168152602001600060ff16815260200160006004811115613300576132ff6134b9565b5b81525090565b8260048101928215613332579182015b82811115613331578254825591600101919060010190613316565b5b50905061333f91906133e1565b5090565b604051806101600160405280600b905b61335b6133fe565b8152602001906001900390816133535790505090565b604051806103c00160405280601e905b61338961339f565b8152602001906001900390816133815790505090565b6040518060400160405280600060ff168152602001600060ff1681525090565b6040518060800160405280600490602082028036833780820191505090505090565b5b808211156133fa5760008160009055506001016133e2565b5090565b604051806101600160405280600b90602082028036833780820191505090505090565b6000604051905090565b600080fd5b6000819050919050565b61344381613430565b811461344e57600080fd5b50565b6000813590506134608161343a565b92915050565b60008060006060848603121561347f5761347e61342b565b5b600061348d86828701613451565b935050602061349e86828701613451565b92505060406134af86828701613451565b9150509250925092565b7f4e487b7100000000000000000000000000000000000000000000000000000000600052602160045260246000fd5b600581106134f9576134f86134b9565b5b50565b600081905061350a826134e8565b919050565b600061351a826134fc565b9050919050565b61352a8161350f565b82525050565b61353981613430565b82525050565b600060ff82169050919050565b6135558161353f565b82525050565b60008115159050919050565b6135708161355b565b82525050565b60c08201600082015161358c6000850182613521565b50602082015161359f6020850182613530565b5060408201516135b2604085018261354c565b5060608201516135c5606085018261354c565b5060808201516135d86080850182613567565b5060a08201516135eb60a0850182613567565b50505050565b600060c0820190506136066000830184613576565b92915050565b6000602082840312156136225761362161342b565b5b600061363084828501613451565b91505092915050565b600081519050919050565b600082825260208201905092915050565b6000819050602082019050919050565b600081519050919050565b600082825260208201905092915050565b6000819050602082019050919050565b600060049050919050565b600081905092915050565b6000819050919050565b60006136bd8383613530565b60208301905092915050565b6000602082019050919050565b6136df81613691565b6136e9818461369c565b92506136f4826136a7565b8060005b8381101561372557815161370c87826136b1565b9650613717836136c9565b9250506001810190506136f8565b505050505050565b61012082016000820151613744600085018261354c565b506020820151613757602085018261354c565b50604082015161376a60408501826136d6565b50606082015161377d60c0850182613567565b50608082015161379060e0850182613567565b5060a08201516137a4610100850182613567565b50505050565b60006137b6838361372d565b6101208301905092915050565b6000602082019050919050565b60006137db82613665565b6137e58185613670565b93506137f083613681565b8060005b8381101561382157815161380888826137aa565b9750613813836137c3565b9250506001810190506137f4565b5085935050505092915050565b600061383a83836137d0565b905092915050565b6000602082019050919050565b600061385a82613639565b6138648185613644565b93508360208202850161387685613655565b8060005b858110156138b25784840389528151613893858261382e565b945061389e83613842565b925060208a0199505060018101905061387a565b50829750879550505050505092915050565b600060208201905081810360008301526138de818461384f565b905092915050565b6138ef8161355b565b82525050565b600060208201905061390a60008301846138e6565b92915050565b600073ffffffffffffffffffffffffffffffffffffffff82169050919050565b6000819050919050565b600061395561395061394b84613910565b613930565b613910565b9050919050565b60006139678261393a565b9050919050565b60006139798261395c565b9050919050565b6139898161396e565b82525050565b60006020820190506139a46000830184613980565b92915050565b600081519050919050565b600082825260208201905092915050565b6000819050602082019050919050565b600581106139e7576139e66134b9565b5b50565b60008190506139f8826139d6565b919050565b6000613a08826139ea565b9050919050565b613a18816139fd565b82525050565b606082016000820151613a34600085018261354c565b506020820151613a47602085018261354c565b506040820151613a5a6040850182613a0f565b50505050565b6000613a6c8383613a1e565b60608301905092915050565b6000602082019050919050565b6000613a90826139aa565b613a9a81856139b5565b9350613aa5836139c6565b8060005b83811015613ad6578151613abd8882613a60565b9750613ac883613a78565b925050600181019050613aa9565b5085935050505092915050565b60006020820190508181036000830152613afd8184613a85565b905092915050565b60008060008060808587031215613b1f57613b1e61342b565b5b6000613b2d87828801613451565b9450506020613b3e87828801613451565b9350506040613b4f87828801613451565b9250506060613b6087828801613451565b91505092959194509250565b606082016000820151613b82600085018261354c565b506020820151613b95602085018261354c565b506040820151613ba86040850182613a0f565b50505050565b6000606082019050613bc36000830184613b6c565b92915050565b613bd28161353f565b82525050565b604082016000820151613bee600085018261354c565b506020820151613c01602085018261354c565b50505050565b6000608082019050613c1c6000830186613bc9565b613c296020830185613bc9565b613c366040830184613bd8565b949350505050565b6000613c4982613910565b9050919050565b613c5981613c3e565b82525050565b6000602082019050613c746000830184613c50565b92915050565b600081519050919050565b600082825260208201905092915050565b6000819050602082019050919050565b60c082016000820151613cbc6000850182613521565b506020820151613ccf6020850182613530565b506040820151613ce2604085018261354c565b506060820151613cf5606085018261354c565b506080820151613d086080850182613567565b5060a0820151613d1b60a0850182613567565b50505050565b6000613d2d8383613ca6565b60c08301905092915050565b6000602082019050919050565b6000613d5182613c7a565b613d5b8185613c85565b9350613d6683613c96565b8060005b83811015613d97578151613d7e8882613d21565b9750613d8983613d39565b925050600181019050613d6a565b5085935050505092915050565b60006020820190508181036000830152613dbe8184613d46565b905092915050565b613dcf81613c3e565b8114613dda57600080fd5b50565b600081359050613dec81613dc6565b92915050565b60008060008060808587031215613e0c57613e0b61342b565b5b6000613e1a87828801613ddd565b9450506020613e2b87828801613ddd565b9350506040613e3c87828801613ddd565b9250506060613e4d87828801613ddd565b91505092959194509250565b60058110613e6657600080fd5b50565b600081359050613e7881613e59565b92915050565b600080600080600060a08688031215613e9a57613e9961342b565b5b6000613ea888828901613451565b9550506020613eb988828901613451565b9450506040613eca88828901613451565b9350506060613edb88828901613451565b9250506080613eec88828901613e69565b9150509295509295909350565b6000613f048261395c565b9050919050565b613f1481613ef9565b82525050565b6000602082019050613f2f6000830184613f0b565b92915050565b613f3e81613430565b82525050565b6000602082019050613f596000830184613f35565b92915050565b600060208284031215613f7557613f7461342b565b5b6000613f8384828501613ddd565b91505092915050565b6000613f978261395c565b9050919050565b613fa781613f8c565b82525050565b6000602082019050613fc26000830184613f9e565b92915050565b61012082016000820151613fdf600085018261354c565b506020820151613ff2602085018261354c565b50604082015161400560408501826136d6565b50606082015161401860c0850182613567565b50608082015161402b60e0850182613567565b5060a082015161403f610100850182613567565b50505050565b60006101208201905061405b6000830184613fc8565b92915050565b7f4e487b7100000000000000000000000000000000000000000000000000000000600052603260045260246000fd5b7f4e487b7100000000000000000000000000000000000000000000000000000000600052604160045260246000fd5b7f4e487b7100000000000000000000000000000000000000000000000000000000600052601160045260246000fd5b60006140f982613430565b91507fffffffffffffffffffffffffffffffffffffffffffffffffffffffffffffffff82141561412c5761412b6140bf565b5b600182019050919050565b600082825260208201905092915050565b7f4e6f742067616d6520636f6e7472616374000000000000000000000000000000600082015250565b600061417e601183614137565b915061418982614148565b602082019050919050565b600060208201905081810360008301526141ad81614171565b9050919050565b7f4e6f7420616374696f6e7320636f6e7472616374000000000000000000000000600082015250565b60006141ea601483614137565b91506141f5826141b4565b602082019050919050565b60006020820190508181036000830152614219816141dd565b9050919050565b7f4f6e6c792067616d6520636f6e74726163742063616e20757365000000000000600082015250565b6000614256601a83614137565b915061426182614220565b602082019050919050565b6000602082019050818103600083015261428581614249565b9050919050565b60006142978261353f565b915060ff8214156142ab576142aa6140bf565b5b600182019050919050565b60006142c182613430565b91506142cc83613430565b9250828210156142df576142de6140bf565b5b828203905092915050565b7f4f776e61626c653a206e6577206f776e657220697320746865207a65726f206160008201527f6464726573730000000000000000000000000000000000000000000000000000602082015250565b6000614346602683614137565b9150614351826142ea565b604082019050919050565b6000602082019050818103600083015261437581614339565b9050919050565b600061438782613430565b915061439283613430565b9250827fffffffffffffffffffffffffffffffffffffffffffffffffffffffffffffffff038211156143c7576143c66140bf565b5b828201905092915050565b60006143dd8261353f565b91506143e88361353f565b9250828210156143fb576143fa6140bf565b5b828203905092915050565b600060408201905061441b6000830185613bc9565b6144286020830184613bc9565b9392505050565b6144388161353f565b811461444357600080fd5b50565b6000815190506144558161442f565b92915050565b6000602082840312156144715761447061342b565b5b600061447f84828501614446565b91505092915050565b60006144938261353f565b915061449e8361353f565b92508260ff038211156144b4576144b36140bf565b5b828201905092915050565b7f4f776e61626c653a2063616c6c6572206973206e6f7420746865206f776e6572600082015250565b60006144f5602083614137565b9150614500826144bf565b602082019050919050565b60006020820190508181036000830152614524816144e8565b9050919050565b60008151905061453a8161343a565b92915050565b6000602082840312156145565761455561342b565b5b60006145648482850161452b565b91505092915050565b600080fd5b6000601f19601f8301169050919050565b61458c82614572565b810181811067ffffffffffffffff821117156145ab576145aa614090565b5b80604052505050565b60006145be613421565b90506145ca8282614583565b919050565b600581106145dc57600080fd5b50565b6000815190506145ee816145cf565b92915050565b6145fd8161355b565b811461460857600080fd5b50565b60008151905061461a816145f4565b92915050565b600060c082840312156146365761463561456d565b5b61464060c06145b4565b90506000614650848285016145df565b60008301525060206146648482850161452b565b602083015250604061467884828501614446565b604083015250606061468c84828501614446565b60608301525060806146a08482850161460b565b60808301525060a06146b48482850161460b565b60a08301525092915050565b600060c082840312156146d6576146d561342b565b5b60006146e484828501614620565b91505092915050565b7f4e487b7100000000000000000000000000000000000000000000000000000000600052601260045260246000fd5b600061472782613430565b915061473283613430565b925082614742576147416146ed565b5b828204905092915050565b600061475882613430565b9150600082141561476c5761476b6140bf565b5b600182039050919050565b6000819050919050565b600061479c61479761479284614777565b613930565b61353f565b9050919050565b6147ac81614781565b82525050565b6000819050919050565b60006147d76147d26147cd846147b2565b613930565b61353f565b9050919050565b6147e7816147bc565b82525050565b600060408201905061480260008301856147a3565b61480f60208301846147de565b9392505050565b6000819050919050565b600061483b61483661483184614816565b613930565b61353f565b9050919050565b61484b81614820565b82525050565b600060408201905061486660008301856147a3565b6148736020830184614842565b9392505050565b6000819050919050565b600061488f8261487a565b91507f80000000000000000000000000000000000000000000000000000000000000008214156148c2576148c16140bf565b5b600182039050919050565b60006148d88261487a565b91507f7fffffffffffffffffffffffffffffffffffffffffffffffffffffffffffffff82141561490b5761490a6140bf565b5b600182019050919050565b600060808201905061492b6000830185613bd8565b6149386040830184613bd8565b9392505050565b600060408201905061495460008301856147a3565b6149616020830184613bc9565b9392505050565b600060608201905061497d6000830185613f35565b61498a6020830184613bd8565b9392505050565b6000604082840312156149a7576149a661456d565b5b6149b160406145b4565b905060006149c184828501614446565b60008301525060206149d584828501614446565b60208301525092915050565b6000604082840312156149f7576149f661342b565b5b6000614a0584828501614991565b9150509291505056fea26469706673582212208228ce64df0129876026903abffe14498682db8be4ed9f7cdad50fe3e9e683cc64736f6c634300080c0033",
  "devdoc": {
    "kind": "dev",
    "methods": {
      "owner()": {
        "details": "Returns the address of the current owner."
      },
      "renounceOwnership()": {
        "details": "Leaves the contract without owner. It will not be possible to call `onlyOwner` functions anymore. Can only be called by the current owner. NOTE: Renouncing ownership will leave the contract without an owner, thereby removing any functionality that is only available to the owner."
      },
      "transferOwnership(address)": {
        "details": "Transfers ownership of the contract to a new account (`newOwner`). Can only be called by the current owner."
      }
    },
    "version": 1
  },
  "userdoc": {
    "kind": "user",
    "methods": {},
    "version": 1
  },
  "storageLayout": {
    "storage": [
      {
        "astId": 7,
        "contract": "contracts/BCMaps.sol:Maps",
        "label": "_owner",
        "offset": 0,
        "slot": "0",
        "type": "t_address"
      },
      {
        "astId": 237,
        "contract": "contracts/BCMaps.sol:Maps",
        "label": "game",
        "offset": 0,
        "slot": "1",
        "type": "t_contract(GameInterface)167"
      },
      {
        "astId": 240,
        "contract": "contracts/BCMaps.sol:Maps",
        "label": "utils",
        "offset": 0,
        "slot": "2",
        "type": "t_contract(UtilsInterface)232"
      },
      {
        "astId": 243,
        "contract": "contracts/BCMaps.sol:Maps",
        "label": "roomTiles",
        "offset": 0,
        "slot": "3",
        "type": "t_contract(RoomTileInterface)181"
      },
      {
        "astId": 245,
        "contract": "contracts/BCMaps.sol:Maps",
        "label": "actionsAddress",
        "offset": 0,
        "slot": "4",
        "type": "t_address"
      },
      {
        "astId": 285,
        "contract": "contracts/BCMaps.sol:Maps",
        "label": "gameTiles",
        "offset": 0,
        "slot": "5",
        "type": "t_array(t_struct(GameTile)1795_storage)dyn_storage"
      },
      {
        "astId": 289,
        "contract": "contracts/BCMaps.sol:Maps",
        "label": "maps",
        "offset": 0,
        "slot": "6",
        "type": "t_array(t_struct(Map)1832_storage)dyn_storage"
      }
    ],
    "types": {
      "t_address": {
        "encoding": "inplace",
        "label": "address",
        "numberOfBytes": "20"
      },
      "t_array(t_struct(GameTile)1795_storage)dyn_storage": {
        "base": "t_struct(GameTile)1795_storage",
        "encoding": "dynamic_array",
        "label": "struct BCTypes.GameTile[]",
        "numberOfBytes": "32"
      },
      "t_array(t_struct(Map)1832_storage)dyn_storage": {
        "base": "t_struct(Map)1832_storage",
        "encoding": "dynamic_array",
        "label": "struct BCTypes.Map[]",
        "numberOfBytes": "32"
      },
      "t_array(t_uint256)4_storage": {
        "base": "t_uint256",
        "encoding": "inplace",
        "label": "uint256[4]",
        "numberOfBytes": "128"
      },
      "t_bool": {
        "encoding": "inplace",
        "label": "bool",
        "numberOfBytes": "1"
      },
      "t_contract(GameInterface)167": {
        "encoding": "inplace",
        "label": "contract GameInterface",
        "numberOfBytes": "20"
      },
      "t_contract(RoomTileInterface)181": {
        "encoding": "inplace",
        "label": "contract RoomTileInterface",
        "numberOfBytes": "20"
      },
      "t_contract(UtilsInterface)232": {
        "encoding": "inplace",
        "label": "contract UtilsInterface",
        "numberOfBytes": "20"
      },
      "t_enum(BCEventType)1865": {
        "encoding": "inplace",
        "label": "enum BCTypes.BCEventType",
        "numberOfBytes": "1"
      },
      "t_enum(DoorStatus)1719": {
        "encoding": "inplace",
        "label": "enum BCTypes.DoorStatus",
        "numberOfBytes": "1"
      },
      "t_mapping(t_uint256,t_bool)": {
        "encoding": "mapping",
        "key": "t_uint256",
        "label": "mapping(uint256 => bool)",
        "numberOfBytes": "32",
        "value": "t_bool"
      },
      "t_mapping(t_uint256,t_mapping(t_uint256,t_struct(GameTile)1795_storage))": {
        "encoding": "mapping",
        "key": "t_uint256",
        "label": "mapping(uint256 => mapping(uint256 => struct BCTypes.GameTile))",
        "numberOfBytes": "32",
        "value": "t_mapping(t_uint256,t_struct(GameTile)1795_storage)"
      },
      "t_mapping(t_uint256,t_struct(Door)1803_storage)": {
        "encoding": "mapping",
        "key": "t_uint256",
        "label": "mapping(uint256 => struct BCTypes.Door)",
        "numberOfBytes": "32",
        "value": "t_struct(Door)1803_storage"
      },
      "t_mapping(t_uint256,t_struct(GameTile)1795_storage)": {
        "encoding": "mapping",
        "key": "t_uint256",
        "label": "mapping(uint256 => struct BCTypes.GameTile)",
        "numberOfBytes": "32",
        "value": "t_struct(GameTile)1795_storage"
      },
      "t_mapping(t_uint256,t_struct(RoomTile)1879_storage)": {
        "encoding": "mapping",
        "key": "t_uint256",
        "label": "mapping(uint256 => struct BCTypes.RoomTile)",
        "numberOfBytes": "32",
        "value": "t_struct(RoomTile)1879_storage"
      },
      "t_struct(Door)1803_storage": {
        "encoding": "inplace",
        "label": "struct BCTypes.Door",
        "members": [
          {
            "astId": 1797,
            "contract": "contracts/BCMaps.sol:Maps",
            "label": "vsBreach",
            "offset": 0,
            "slot": "0",
            "type": "t_uint8"
          },
          {
            "astId": 1799,
            "contract": "contracts/BCMaps.sol:Maps",
            "label": "vsHack",
            "offset": 1,
            "slot": "0",
            "type": "t_uint8"
          },
          {
            "astId": 1802,
            "contract": "contracts/BCMaps.sol:Maps",
            "label": "status",
            "offset": 2,
            "slot": "0",
            "type": "t_enum(DoorStatus)1719"
          }
        ],
        "numberOfBytes": "32"
      },
      "t_struct(GameTile)1795_storage": {
        "encoding": "inplace",
        "label": "struct BCTypes.GameTile",
        "members": [
          {
            "astId": 1782,
            "contract": "contracts/BCMaps.sol:Maps",
            "label": "roomId",
            "offset": 0,
            "slot": "0",
            "type": "t_uint8"
          },
          {
            "astId": 1784,
            "contract": "contracts/BCMaps.sol:Maps",
            "label": "parentId",
            "offset": 1,
            "slot": "0",
            "type": "t_uint8"
          },
          {
            "astId": 1788,
            "contract": "contracts/BCMaps.sol:Maps",
            "label": "doors",
            "offset": 0,
            "slot": "1",
            "type": "t_array(t_uint256)4_storage"
          },
          {
            "astId": 1790,
            "contract": "contracts/BCMaps.sol:Maps",
            "label": "explored",
            "offset": 0,
            "slot": "5",
            "type": "t_bool"
          },
          {
            "astId": 1792,
            "contract": "contracts/BCMaps.sol:Maps",
            "label": "looted",
            "offset": 1,
            "slot": "5",
            "type": "t_bool"
          },
          {
            "astId": 1794,
            "contract": "contracts/BCMaps.sol:Maps",
            "label": "hasVent",
            "offset": 2,
            "slot": "5",
            "type": "t_bool"
          }
        ],
        "numberOfBytes": "192"
      },
      "t_struct(Map)1832_storage": {
        "encoding": "inplace",
        "label": "struct BCTypes.Map",
        "members": [
          {
            "astId": 1808,
            "contract": "contracts/BCMaps.sol:Maps",
            "label": "roomList",
            "offset": 0,
            "slot": "0",
            "type": "t_mapping(t_uint256,t_struct(RoomTile)1879_storage)"
          },
          {
            "astId": 1810,
            "contract": "contracts/BCMaps.sol:Maps",
            "label": "numRooms",
            "offset": 0,
            "slot": "1",
            "type": "t_uint8"
          },
          {
            "astId": 1814,
            "contract": "contracts/BCMaps.sol:Maps",
            "label": "usedRooms",
            "offset": 0,
            "slot": "2",
            "type": "t_mapping(t_uint256,t_bool)"
          },
          {
            "astId": 1821,
            "contract": "contracts/BCMaps.sol:Maps",
            "label": "board",
            "offset": 0,
            "slot": "3",
            "type": "t_mapping(t_uint256,t_mapping(t_uint256,t_struct(GameTile)1795_storage))"
          },
          {
            "astId": 1826,
            "contract": "contracts/BCMaps.sol:Maps",
            "label": "doors",
            "offset": 0,
            "slot": "4",
            "type": "t_mapping(t_uint256,t_struct(Door)1803_storage)"
          },
          {
            "astId": 1828,
            "contract": "contracts/BCMaps.sol:Maps",
            "label": "numDoors",
            "offset": 0,
            "slot": "5",
            "type": "t_uint8"
          },
          {
            "astId": 1831,
            "contract": "contracts/BCMaps.sol:Maps",
            "label": "startPosition",
            "offset": 0,
            "slot": "6",
            "type": "t_struct(Position)1780_storage"
          }
        ],
        "numberOfBytes": "224"
      },
      "t_struct(Position)1780_storage": {
        "encoding": "inplace",
        "label": "struct BCTypes.Position",
        "members": [
          {
            "astId": 1777,
            "contract": "contracts/BCMaps.sol:Maps",
            "label": "row",
            "offset": 0,
            "slot": "0",
            "type": "t_uint8"
          },
          {
            "astId": 1779,
            "contract": "contracts/BCMaps.sol:Maps",
            "label": "col",
            "offset": 1,
            "slot": "0",
            "type": "t_uint8"
          }
        ],
        "numberOfBytes": "32"
      },
      "t_struct(RoomTile)1879_storage": {
        "encoding": "inplace",
        "label": "struct BCTypes.RoomTile",
        "members": [
          {
            "astId": 1868,
            "contract": "contracts/BCMaps.sol:Maps",
            "label": "eventType",
            "offset": 0,
            "slot": "0",
            "type": "t_enum(BCEventType)1865"
          },
          {
            "astId": 1870,
            "contract": "contracts/BCMaps.sol:Maps",
            "label": "eventNum",
            "offset": 0,
            "slot": "1",
            "type": "t_uint256"
          },
          {
            "astId": 1872,
            "contract": "contracts/BCMaps.sol:Maps",
            "label": "numItems",
            "offset": 0,
            "slot": "2",
            "type": "t_uint8"
          },
          {
            "astId": 1874,
            "contract": "contracts/BCMaps.sol:Maps",
            "label": "numData",
            "offset": 1,
            "slot": "2",
            "type": "t_uint8"
          },
          {
            "astId": 1876,
            "contract": "contracts/BCMaps.sol:Maps",
            "label": "hasHazard",
            "offset": 2,
            "slot": "2",
            "type": "t_bool"
          },
          {
            "astId": 1878,
            "contract": "contracts/BCMaps.sol:Maps",
            "label": "sigDetected",
            "offset": 3,
            "slot": "2",
            "type": "t_bool"
          }
        ],
        "numberOfBytes": "96"
      },
      "t_uint256": {
        "encoding": "inplace",
        "label": "uint256",
        "numberOfBytes": "32"
      },
      "t_uint8": {
        "encoding": "inplace",
        "label": "uint8",
        "numberOfBytes": "1"
      }
    }
  }
}