{
  "address": "0xa6e768A1F7c7b782f4DE8d045Ed59bF9CA8035a0",
  "abi": [
    {
      "anonymous": false,
      "inputs": [
        {
          "indexed": true,
          "internalType": "address",
          "name": "previousOwner",
          "type": "address"
        },
        {
          "indexed": true,
          "internalType": "address",
          "name": "newOwner",
          "type": "address"
        }
      ],
      "name": "OwnershipTransferred",
      "type": "event"
    },
    {
      "inputs": [],
      "name": "actionsAddress",
      "outputs": [
        {
          "internalType": "address",
          "name": "",
          "type": "address"
        }
      ],
      "stateMutability": "view",
      "type": "function"
    },
    {
      "inputs": [],
      "name": "createMap",
      "outputs": [
        {
          "internalType": "uint256",
          "name": "",
          "type": "uint256"
        }
      ],
      "stateMutability": "nonpayable",
      "type": "function"
    },
    {
      "inputs": [
        {
          "internalType": "uint256",
          "name": "_mapId",
          "type": "uint256"
        },
        {
          "internalType": "uint256",
          "name": "_row",
          "type": "uint256"
        },
        {
          "internalType": "uint256",
          "name": "_col",
          "type": "uint256"
        },
        {
          "internalType": "uint256",
          "name": "_roomId",
          "type": "uint256"
        }
      ],
      "name": "debugForceRoomId",
      "outputs": [],
      "stateMutability": "nonpayable",
      "type": "function"
    },
    {
      "inputs": [
        {
          "internalType": "uint256",
          "name": "_mapId",
          "type": "uint256"
        },
        {
          "internalType": "uint256",
          "name": "_row",
          "type": "uint256"
        },
        {
          "internalType": "uint256",
          "name": "_col",
          "type": "uint256"
        }
      ],
      "name": "discoverRoom",
      "outputs": [
        {
          "internalType": "bool",
          "name": "",
          "type": "bool"
        }
      ],
      "stateMutability": "nonpayable",
      "type": "function"
    },
    {
      "inputs": [
        {
          "internalType": "uint256",
          "name": "_mapId",
          "type": "uint256"
        }
      ],
      "name": "extGetBoard",
      "outputs": [
        {
          "components": [
            {
              "internalType": "uint8",
              "name": "roomId",
              "type": "uint8"
            },
            {
              "internalType": "uint8",
              "name": "parentId",
              "type": "uint8"
            },
            {
              "internalType": "uint256[4]",
              "name": "doors",
              "type": "uint256[4]"
            },
            {
              "internalType": "bool",
              "name": "explored",
              "type": "bool"
            },
            {
              "internalType": "bool",
              "name": "looted",
              "type": "bool"
            },
            {
              "internalType": "bool",
              "name": "hasVent",
              "type": "bool"
            }
          ],
          "internalType": "struct BCTypes.GameTile[][]",
          "name": "",
          "type": "tuple[][]"
        }
      ],
      "stateMutability": "view",
      "type": "function"
    },
    {
      "inputs": [
        {
          "internalType": "uint256",
          "name": "_mapId",
          "type": "uint256"
        }
      ],
      "name": "extGetDoors",
      "outputs": [
        {
          "components": [
            {
              "internalType": "uint8",
              "name": "vsBreach",
              "type": "uint8"
            },
            {
              "internalType": "uint8",
              "name": "vsHack",
              "type": "uint8"
            },
            {
              "internalType": "enum BCTypes.DoorStatus",
              "name": "status",
              "type": "uint8"
            }
          ],
          "internalType": "struct BCTypes.Door[]",
          "name": "",
          "type": "tuple[]"
        }
      ],
      "stateMutability": "view",
      "type": "function"
    },
    {
      "inputs": [
        {
          "internalType": "uint256",
          "name": "_mapId",
          "type": "uint256"
        },
        {
          "internalType": "uint256",
          "name": "_row",
          "type": "uint256"
        },
        {
          "internalType": "uint256",
          "name": "_col",
          "type": "uint256"
        }
      ],
      "name": "extGetGameTile",
      "outputs": [
        {
          "components": [
            {
              "internalType": "uint8",
              "name": "roomId",
              "type": "uint8"
            },
            {
              "internalType": "uint8",
              "name": "parentId",
              "type": "uint8"
            },
            {
              "internalType": "uint256[4]",
              "name": "doors",
              "type": "uint256[4]"
            },
            {
              "internalType": "bool",
              "name": "explored",
              "type": "bool"
            },
            {
              "internalType": "bool",
              "name": "looted",
              "type": "bool"
            },
            {
              "internalType": "bool",
              "name": "hasVent",
              "type": "bool"
            }
          ],
          "internalType": "struct BCTypes.GameTile",
          "name": "",
          "type": "tuple"
        }
      ],
      "stateMutability": "view",
      "type": "function"
    },
    {
      "inputs": [
        {
          "internalType": "uint256",
          "name": "_mapId",
          "type": "uint256"
        },
        {
          "internalType": "uint256",
          "name": "_row",
          "type": "uint256"
        },
        {
          "internalType": "uint256",
          "name": "_col",
          "type": "uint256"
        }
      ],
      "name": "extGetRoom",
      "outputs": [
        {
          "components": [
            {
              "internalType": "enum BCTypes.BCEventType",
              "name": "eventType",
              "type": "uint8"
            },
            {
              "internalType": "uint256",
              "name": "eventNum",
              "type": "uint256"
            },
            {
              "internalType": "uint8",
              "name": "numItems",
              "type": "uint8"
            },
            {
              "internalType": "uint8",
              "name": "numData",
              "type": "uint8"
            },
            {
              "internalType": "bool",
              "name": "hasHazard",
              "type": "bool"
            },
            {
              "internalType": "bool",
              "name": "sigDetected",
              "type": "bool"
            }
          ],
          "internalType": "struct BCTypes.RoomTile",
          "name": "",
          "type": "tuple"
        }
      ],
      "stateMutability": "view",
      "type": "function"
    },
    {
      "inputs": [
        {
          "internalType": "uint256",
          "name": "_mapId",
          "type": "uint256"
        }
      ],
      "name": "extGetRoomList",
      "outputs": [
        {
          "components": [
            {
              "internalType": "enum BCTypes.BCEventType",
              "name": "eventType",
              "type": "uint8"
            },
            {
              "internalType": "uint256",
              "name": "eventNum",
              "type": "uint256"
            },
            {
              "internalType": "uint8",
              "name": "numItems",
              "type": "uint8"
            },
            {
              "internalType": "uint8",
              "name": "numData",
              "type": "uint8"
            },
            {
              "internalType": "bool",
              "name": "hasHazard",
              "type": "bool"
            },
            {
              "internalType": "bool",
              "name": "sigDetected",
              "type": "bool"
            }
          ],
          "internalType": "struct BCTypes.RoomTile[]",
          "name": "",
          "type": "tuple[]"
        }
      ],
      "stateMutability": "view",
      "type": "function"
    },
    {
      "inputs": [],
      "name": "game",
      "outputs": [
        {
          "internalType": "contract GameInterface",
          "name": "",
          "type": "address"
        }
      ],
      "stateMutability": "view",
      "type": "function"
    },
    {
      "inputs": [
        {
          "internalType": "uint256",
          "name": "_mapId",
          "type": "uint256"
        },
        {
          "internalType": "uint256",
          "name": "_row",
          "type": "uint256"
        },
        {
          "internalType": "uint256",
          "name": "_col",
          "type": "uint256"
        },
        {
          "internalType": "uint256",
          "name": "_direction",
          "type": "uint256"
        }
      ],
      "name": "getDoor",
      "outputs": [
        {
          "components": [
            {
              "internalType": "uint8",
              "name": "vsBreach",
              "type": "uint8"
            },
            {
              "internalType": "uint8",
              "name": "vsHack",
              "type": "uint8"
            },
            {
              "internalType": "enum BCTypes.DoorStatus",
              "name": "status",
              "type": "uint8"
            }
          ],
          "internalType": "struct BCTypes.Door",
          "name": "",
          "type": "tuple"
        }
      ],
      "stateMutability": "view",
      "type": "function"
    },
    {
      "inputs": [
        {
          "internalType": "uint256",
          "name": "",
          "type": "uint256"
        }
      ],
      "name": "maps",
      "outputs": [
        {
          "internalType": "uint8",
          "name": "numRooms",
          "type": "uint8"
        },
        {
          "internalType": "uint8",
          "name": "numDoors",
          "type": "uint8"
        },
        {
          "components": [
            {
              "internalType": "uint8",
              "name": "row",
              "type": "uint8"
            },
            {
              "internalType": "uint8",
              "name": "col",
              "type": "uint8"
            }
          ],
          "internalType": "struct BCTypes.Position",
          "name": "startPosition",
          "type": "tuple"
        }
      ],
      "stateMutability": "view",
      "type": "function"
    },
    {
      "inputs": [],
      "name": "owner",
      "outputs": [
        {
          "internalType": "address",
          "name": "",
          "type": "address"
        }
      ],
      "stateMutability": "view",
      "type": "function"
    },
    {
      "inputs": [],
      "name": "renounceOwnership",
      "outputs": [],
      "stateMutability": "nonpayable",
      "type": "function"
    },
    {
      "inputs": [
        {
          "internalType": "uint256",
          "name": "_mapId",
          "type": "uint256"
        }
      ],
      "name": "resetOpenDoors",
      "outputs": [],
      "stateMutability": "nonpayable",
      "type": "function"
    },
    {
      "inputs": [],
      "name": "roomTiles",
      "outputs": [
        {
          "internalType": "contract RoomTileInterface",
          "name": "",
          "type": "address"
        }
      ],
      "stateMutability": "view",
      "type": "function"
    },
    {
      "inputs": [
        {
          "internalType": "address",
          "name": "_gameAddress",
          "type": "address"
        },
        {
          "internalType": "address",
          "name": "_utilsAddress",
          "type": "address"
        },
        {
          "internalType": "address",
          "name": "_roomTilesAddress",
          "type": "address"
        },
        {
          "internalType": "address",
          "name": "_actionsAddress",
          "type": "address"
        }
      ],
      "name": "setContractAddresses",
      "outputs": [],
      "stateMutability": "nonpayable",
      "type": "function"
    },
    {
      "inputs": [
        {
          "internalType": "uint256",
          "name": "_mapId",
          "type": "uint256"
        },
        {
          "internalType": "uint256",
          "name": "_row",
          "type": "uint256"
        },
        {
          "internalType": "uint256",
          "name": "_col",
          "type": "uint256"
        },
        {
          "internalType": "uint256",
          "name": "_direction",
          "type": "uint256"
        },
        {
          "internalType": "enum BCTypes.DoorStatus",
          "name": "_status",
          "type": "uint8"
        }
      ],
      "name": "setDoorFromPos",
      "outputs": [],
      "stateMutability": "nonpayable",
      "type": "function"
    },
    {
      "inputs": [
        {
          "internalType": "uint256",
          "name": "_mapId",
          "type": "uint256"
        },
        {
          "internalType": "uint256",
          "name": "_row",
          "type": "uint256"
        },
        {
          "internalType": "uint256",
          "name": "_col",
          "type": "uint256"
        }
      ],
      "name": "setLooted",
      "outputs": [],
      "stateMutability": "nonpayable",
      "type": "function"
    },
    {
      "inputs": [
        {
          "internalType": "address",
          "name": "newOwner",
          "type": "address"
        }
      ],
      "name": "transferOwnership",
      "outputs": [],
      "stateMutability": "nonpayable",
      "type": "function"
    },
    {
      "inputs": [],
      "name": "utils",
      "outputs": [
        {
          "internalType": "contract UtilsInterface",
          "name": "",
          "type": "address"
        }
      ],
      "stateMutability": "view",
      "type": "function"
    }
  ],
  "transactionHash": "0x79393ac2ed882339eafdff71bf56da620022d635a4db73292db396ca737fe293",
  "args": [],
  "numDeployments": 1,
  "solcInputHash": "520937fb3c75042e56d57591af82752c",
  "bytecode": "0x60806040523480156200001157600080fd5b5062000032620000266200003860201b60201c565b6200004060201b60201c565b62000104565b600033905090565b60008060009054906101000a900473ffffffffffffffffffffffffffffffffffffffff169050816000806101000a81548173ffffffffffffffffffffffffffffffffffffffff021916908373ffffffffffffffffffffffffffffffffffffffff1602179055508173ffffffffffffffffffffffffffffffffffffffff168173ffffffffffffffffffffffffffffffffffffffff167f8be0079c531659141344cd1fd0a4f28419497f9722a3daafe3b4186f6b6457e060405160405180910390a35050565b614ba680620001146000396000f3fe608060405234801561001057600080fd5b50600436106101375760003560e01c806386e529d0116100b8578063b6cdd3b41161007c578063b6cdd3b414610362578063c3fe3e281461037e578063f01fc35a1461039c578063f2fde38b146103ba578063f7157f64146103d6578063f9dfbfcb146103f457610137565b806386e529d0146102c05780638af13fd2146102dc5780638da5cb5b1461030c578063aaa687771461032a578063b14ca5751461034657610137565b806369568fd5116100ff57806369568fd5146102065780636ea1dcd814610236578063715018a61461026657806375990a0e146102705780637b45c0d4146102a257610137565b806302861c6c1461013c5780631ef044161461016c578063471b67591461019c57806358308aa8146101cc5780635a29638d146101e8575b600080fd5b6101566004803603810190610151919061355c565b610424565b60405161016391906136e7565b60405180910390f35b61018660048036038101906101819190613702565b610585565b60405161019391906139ba565b60405180910390f35b6101b660048036038101906101b1919061355c565b610810565b6040516101c391906139eb565b60405180910390f35b6101e660048036038101906101e19190613702565b61096a565b005b6101f0610b27565b6040516101fd9190613a85565b60405180910390f35b610220600480360381019061021b9190613702565b610b4d565b60405161022d9190613bd9565b60405180910390f35b610250600480360381019061024b9190613bfb565b610cd9565b60405161025d9190613ca4565b60405180910390f35b61026e610e43565b005b61028a60048036038101906102859190613702565b610e57565b60405161029993929190613cfd565b60405180910390f35b6102aa610eef565b6040516102b79190613d55565b60405180910390f35b6102da60048036038101906102d5919061355c565b610f15565b005b6102f660048036038101906102f19190613702565b61100d565b6040516103039190613e9a565b60405180910390f35b6103146111d9565b6040516103219190613d55565b60405180910390f35b610344600480360381019061033f9190613ee8565b611202565b005b610360600480360381019061035b9190613bfb565b611314565b005b61037c60048036038101906103779190613f74565b61138b565b005b610386611583565b6040516103939190614010565b60405180910390f35b6103a46115a9565b6040516103b1919061403a565b60405180910390f35b6103d460048036038101906103cf9190614055565b6117c6565b005b6103de61184a565b6040516103eb91906140a3565b60405180910390f35b61040e6004803603810190610409919061355c565b611870565b60405161041b919061413b565b60405180910390f35b61042c613329565b600684815481106104405761043f614157565b5b906000526020600020906007020160000160006006868154811061046757610466614157565b5b90600052602060002090600702016003016000868152602001908152602001600020600085815260200190815260200160002060000160009054906101000a900460ff1660ff1681526020019081526020016000206040518060c00160405290816000820160009054906101000a900460ff1660048111156104ec576104eb6135af565b5b60048111156104fe576104fd6135af565b5b8152602001600182015481526020016002820160009054906101000a900460ff1660ff1660ff1681526020016002820160019054906101000a900460ff1660ff1660ff1681526020016002820160029054906101000a900460ff161515151581526020016002820160039054906101000a900460ff16151515158152505090509392505050565b60606000600b67ffffffffffffffff8111156105a4576105a3614186565b5b6040519080825280602002602001820160405280156105d757816020015b60608152602001906001900390816105c25790505b50905060005b600b81101561066c57600b67ffffffffffffffff81111561060157610600614186565b5b60405190808252806020026020018201604052801561063a57816020015b61062761337b565b81526020019060019003908161061f5790505b5082828151811061064e5761064d614157565b5b60200260200101819052508080610664906141e4565b9150506105dd565b5060005b600b8110156108065760005b600b8110156107f2576006858154811061069957610698614157565b5b9060005260206000209060070201600301600083815260200190815260200160002060008281526020019081526020016000206040518060c00160405290816000820160009054906101000a900460ff1660ff1660ff1681526020016000820160019054906101000a900460ff1660ff1660ff1681526020016001820160048060200260405190810160405280929190826004801561074d576020028201915b815481526020019060010190808311610739575b505050505081526020016005820160009054906101000a900460ff161515151581526020016005820160019054906101000a900460ff161515151581526020016005820160029054906101000a900460ff1615151515815250508383815181106107ba576107b9614157565b5b602002602001015182815181106107d4576107d3614157565b5b602002602001018190525080806107ea906141e4565b91505061067c565b5080806107fe906141e4565b915050610670565b5080915050919050565b6000600160009054906101000a900473ffffffffffffffffffffffffffffffffffffffff1673ffffffffffffffffffffffffffffffffffffffff163373ffffffffffffffffffffffffffffffffffffffff16146108a2576040517f08c379a00000000000000000000000000000000000000000000000000000000081526004016108999061428a565b60405180910390fd5b6000600685815481106108b8576108b7614157565b5b9060005260206000209060070201600301600085815260200190815260200160002060008481526020019081526020016000209050600160ff168160000160009054906101000a900460ff1660ff16141561095d576109376006868154811061092457610923614157565b5b90600052602060002090600702016119a3565b8160000160006101000a81548160ff021916908360ff1602179055506001915050610963565b60009150505b9392505050565b600160009054906101000a900473ffffffffffffffffffffffffffffffffffffffff1673ffffffffffffffffffffffffffffffffffffffff163373ffffffffffffffffffffffffffffffffffffffff16146109fa576040517f08c379a00000000000000000000000000000000000000000000000000000000081526004016109f19061428a565b60405180910390fd5b60005b60068281548110610a1157610a10614157565b5b906000526020600020906007020160050160009054906101000a900460ff1660ff16811015610b235760026004811115610a4e57610a4d6135af565b5b60068381548110610a6257610a61614157565b5b9060005260206000209060070201600401600083815260200190815260200160002060000160029054906101000a900460ff166004811115610aa757610aa66135af565b5b1415610b1057600160068381548110610ac357610ac2614157565b5b9060005260206000209060070201600401600083815260200190815260200160002060000160026101000a81548160ff02191690836004811115610b0a57610b096135af565b5b02179055505b8080610b1b906141e4565b9150506109fd565b5050565b600260009054906101000a900473ffffffffffffffffffffffffffffffffffffffff1681565b6060600060068381548110610b6557610b64614157565b5b906000526020600020906007020160050160009054906101000a900460ff1660ff1667ffffffffffffffff811115610ba057610b9f614186565b5b604051908082528060200260200182016040528015610bd957816020015b610bc66133c3565b815260200190600190039081610bbe5790505b50905060005b8151811015610ccf5760068481548110610bfc57610bfb614157565b5b906000526020600020906007020160040160008281526020019081526020016000206040518060600160405290816000820160009054906101000a900460ff1660ff1660ff1681526020016000820160019054906101000a900460ff1660ff1660ff1681526020016000820160029054906101000a900460ff166004811115610c8857610c876135af565b5b6004811115610c9a57610c996135af565b5b81525050828281518110610cb157610cb0614157565b5b60200260200101819052508080610cc7906141e4565b915050610bdf565b5080915050919050565b610ce16133c3565b600060068681548110610cf757610cf6614157565b5b906000526020600020906007020160030160008681526020019081526020016000206000858152602001908152602001600020600101600480602002604051908101604052809291908260048015610d64576020028201915b815481526020019060010190808311610d50575b5050505050905060068681548110610d7f57610d7e614157565b5b90600052602060002090600702016004016000828560048110610da557610da4614157565b5b602002015181526020019081526020016000206040518060600160405290816000820160009054906101000a900460ff1660ff1660ff1681526020016000820160019054906101000a900460ff1660ff1660ff1681526020016000820160029054906101000a900460ff166004811115610e2257610e216135af565b5b6004811115610e3457610e336135af565b5b81525050915050949350505050565b610e4b611b33565b610e556000611bb1565b565b60068181548110610e6757600080fd5b90600052602060002090600702016000915090508060010160009054906101000a900460ff16908060050160009054906101000a900460ff1690806006016040518060400160405290816000820160009054906101000a900460ff1660ff1660ff1681526020016000820160019054906101000a900460ff1660ff1660ff1681525050905083565b600460009054906101000a900473ffffffffffffffffffffffffffffffffffffffff1681565b600460009054906101000a900473ffffffffffffffffffffffffffffffffffffffff1673ffffffffffffffffffffffffffffffffffffffff163373ffffffffffffffffffffffffffffffffffffffff1614610fa5576040517f08c379a0000000000000000000000000000000000000000000000000000000008152600401610f9c906142f6565b60405180910390fd5b600160068481548110610fbb57610fba614157565b5b90600052602060002090600702016003016000848152602001908152602001600020600083815260200190815260200160002060050160016101000a81548160ff021916908315150217905550505050565b606060006006838154811061102557611024614157565b5b906000526020600020906007020160010160009054906101000a900460ff1660ff1667ffffffffffffffff8111156110605761105f614186565b5b60405190808252806020026020018201604052801561109957816020015b611086613329565b81526020019060019003908161107e5790505b50905060005b81518110156111cf57600684815481106110bc576110bb614157565b5b906000526020600020906007020160000160008281526020019081526020016000206040518060c00160405290816000820160009054906101000a900460ff16600481111561110e5761110d6135af565b5b60048111156111205761111f6135af565b5b8152602001600182015481526020016002820160009054906101000a900460ff1660ff1660ff1681526020016002820160019054906101000a900460ff1660ff1660ff1681526020016002820160029054906101000a900460ff161515151581526020016002820160039054906101000a900460ff1615151515815250508282815181106111b1576111b0614157565b5b602002602001018190525080806111c7906141e4565b91505061109f565b5080915050919050565b60008060009054906101000a900473ffffffffffffffffffffffffffffffffffffffff16905090565b61120a611b33565b83600160006101000a81548173ffffffffffffffffffffffffffffffffffffffff021916908373ffffffffffffffffffffffffffffffffffffffff16021790555082600260006101000a81548173ffffffffffffffffffffffffffffffffffffffff021916908373ffffffffffffffffffffffffffffffffffffffff16021790555081600360006101000a81548173ffffffffffffffffffffffffffffffffffffffff021916908373ffffffffffffffffffffffffffffffffffffffff16021790555080600460006101000a81548173ffffffffffffffffffffffffffffffffffffffff021916908373ffffffffffffffffffffffffffffffffffffffff16021790555050505050565b61131c611b33565b60006006858154811061133257611331614157565b5b9060005260206000209060070201600301600085815260200190815260200160002060008481526020019081526020016000209050818160000160006101000a81548160ff021916908360ff1602179055505050505050565b600160009054906101000a900473ffffffffffffffffffffffffffffffffffffffff1673ffffffffffffffffffffffffffffffffffffffff163373ffffffffffffffffffffffffffffffffffffffff1614806114345750600460009054906101000a900473ffffffffffffffffffffffffffffffffffffffff1673ffffffffffffffffffffffffffffffffffffffff163373ffffffffffffffffffffffffffffffffffffffff16145b611473576040517f08c379a000000000000000000000000000000000000000000000000000000000815260040161146a90614362565b60405180910390fd5b60006006868154811061148957611488614157565b5b9060005260206000209060070201600301600086815260200190815260200160002060008581526020019081526020016000206001016004806020026040519081016040528092919082600480156114f6576020028201915b8154815260200190600101908083116114e2575b5050505050905060006006878154811061151357611512614157565b5b9060005260206000209060070201600401600083866004811061153957611538614157565b5b602002015181526020019081526020016000209050828160000160026101000a81548160ff02191690836004811115611575576115746135af565b5b021790555050505050505050565b600160009054906101000a900473ffffffffffffffffffffffffffffffffffffffff1681565b6000600160009054906101000a900473ffffffffffffffffffffffffffffffffffffffff1673ffffffffffffffffffffffffffffffffffffffff163373ffffffffffffffffffffffffffffffffffffffff161461163b576040517f08c379a0000000000000000000000000000000000000000000000000000000008152600401611632906143ce565b60405180910390fd5b60006006600181600181540180825580915050039060005260206000209060070201905061166b81600001611c75565b8160010160006101000a81548160ff021916908360ff160217905550604051806060016040528060ff8016815260200160ff80168152602001600060048111156116b8576116b76135af565b5b8152508160040160008360050160009054906101000a900460ff1660ff16815260200190815260200160002060008201518160000160006101000a81548160ff021916908360ff16021790555060208201518160000160016101000a81548160ff021916908360ff16021790555060408201518160000160026101000a81548160ff02191690836004811115611751576117506135af565b5b021790555090505080600501600081819054906101000a900460ff168092919061177a906143ee565b91906101000a81548160ff021916908360ff1602179055505061179c81611ea0565b6117a581612082565b6117ae81612f00565b60016006805490506117c09190614418565b91505090565b6117ce611b33565b600073ffffffffffffffffffffffffffffffffffffffff168173ffffffffffffffffffffffffffffffffffffffff16141561183e576040517f08c379a0000000000000000000000000000000000000000000000000000000008152600401611835906144be565b60405180910390fd5b61184781611bb1565b50565b600360009054906101000a900473ffffffffffffffffffffffffffffffffffffffff1681565b61187861337b565b6006848154811061188c5761188b614157565b5b9060005260206000209060070201600301600084815260200190815260200160002060008381526020019081526020016000206040518060c00160405290816000820160009054906101000a900460ff1660ff1660ff1681526020016000820160019054906101000a900460ff1660ff1660ff16815260200160018201600480602002604051908101604052809291908260048015611940576020028201915b81548152602001906001019080831161192c575b505050505081526020016005820160009054906101000a900460ff161515151581526020016005820160019054906101000a900460ff161515151581526020016005820160029054906101000a900460ff16151515158152505090509392505050565b600080600260009054906101000a900473ffffffffffffffffffffffffffffffffffffffff1673ffffffffffffffffffffffffffffffffffffffff1663ce28613f600160026119f291906144de565b60048660010160009054906101000a900460ff16611a109190614534565b6040518363ffffffff1660e01b8152600401611a2d929190614568565b6020604051808303816000875af1158015611a4c573d6000803e3d6000fd5b505050506040513d601f19601f82011682018060405250810190611a7091906145bd565b90505b600115158360020160008360ff16815260200190815260200160002060009054906101000a900460ff1615151415611af95760018360010160009054906101000a900460ff16611ac39190614534565b60ff168160ff161415611ae55760016002611ade91906145ea565b9050611af4565b8080611af0906143ee565b9150505b611a73565b60018360020160008360ff16815260200190815260200160002060006101000a81548160ff02191690831515021790555080915050919050565b611b3b613321565b73ffffffffffffffffffffffffffffffffffffffff16611b596111d9565b73ffffffffffffffffffffffffffffffffffffffff1614611baf576040517f08c379a0000000000000000000000000000000000000000000000000000000008152600401611ba69061466d565b60405180910390fd5b565b60008060009054906101000a900473ffffffffffffffffffffffffffffffffffffffff169050816000806101000a81548173ffffffffffffffffffffffffffffffffffffffff021916908373ffffffffffffffffffffffffffffffffffffffff1602179055508173ffffffffffffffffffffffffffffffffffffffff168173ffffffffffffffffffffffffffffffffffffffff167f8be0079c531659141344cd1fd0a4f28419497f9722a3daafe3b4186f6b6457e060405160405180910390a35050565b600080600360009054906101000a900473ffffffffffffffffffffffffffffffffffffffff1673ffffffffffffffffffffffffffffffffffffffff166338fdf0bd6040518163ffffffff1660e01b8152600401602060405180830381865afa158015611ce5573d6000803e3d6000fd5b505050506040513d601f19601f82011682018060405250810190611d0991906146a2565b905060005b81811015611e9657600360009054906101000a900473ffffffffffffffffffffffffffffffffffffffff1673ffffffffffffffffffffffffffffffffffffffff166382753ebe826040518263ffffffff1660e01b8152600401611d71919061403a565b60c060405180830381865afa158015611d8e573d6000803e3d6000fd5b505050506040513d601f19601f82011682018060405250810190611db29190614822565b84600083815260200190815260200160002060008201518160000160006101000a81548160ff02191690836004811115611def57611dee6135af565b5b02179055506020820151816001015560408201518160020160006101000a81548160ff021916908360ff16021790555060608201518160020160016101000a81548160ff021916908360ff16021790555060808201518160020160026101000a81548160ff02191690831515021790555060a08201518160020160036101000a81548160ff0219169083151502179055509050508080611e8e906141e4565b915050611d0e565b5080915050919050565b60006005600181600181540180825580915050039060005260206000209060060201905060006001600b611ed49190614418565b9050600060016002600b611ee8919061487e565b611ef291906144de565b905060405180604001604052808360ff1681526020018260ff168152508460060160008201518160000160006101000a81548160ff021916908360ff16021790555060208201518160000160016101000a81548160ff021916908360ff1602179055509050508284600301600084815260200190815260200160002060008381526020019081526020016000206000820160009054906101000a900460ff168160000160006101000a81548160ff021916908360ff1602179055506000820160019054906101000a900460ff168160000160016101000a81548160ff021916908360ff1602179055506001820181600101906004611ff19291906133fc565b506005820160009054906101000a900460ff168160050160006101000a81548160ff0219169083151502179055506005820160019054906101000a900460ff168160050160016101000a81548160ff0219169083151502179055506005820160029054906101000a900460ff168160050160026101000a81548160ff02191690831515021790555090505050505050565b60008060028360010160009054906101000a900460ff166120a39190614534565b60ff16905060006001905060006120b8613439565b6001818760060160000160009054906101000a900460ff1660ff16600b81106120e4576120e3614157565b5b60200201518760060160000160019054906101000a900460ff1660ff16600b811061211257612111614157565b5b602002019015159081151581525050612129613467565b866006016040518060400160405290816000820160009054906101000a900460ff1660ff1660ff1681526020016000820160019054906101000a900460ff1660ff1660ff16815250508187601e811061218557612184614157565b5b60200201819052508580612198906141e4565b9650505b6000851180156121ac5750600086115b15612e44576000816001886121c19190614418565b601e81106121d2576121d1614157565b5b6020020151905086806121e4906148af565b9750508187601e81106121fa576121f9614157565b5b60200201612206613495565b8152508580612214906148af565b9650508480612222906148af565b9550506001886003016000836000015160ff1681526020019081526020016000206000836020015160ff16815260200190815260200160002060000160006101000a81548160ff021916908360ff1602179055506021600260009054906101000a900473ffffffffffffffffffffffffffffffffffffffff1673ffffffffffffffffffffffffffffffffffffffff1663ce28613f600060636040518363ffffffff1660e01b81526004016122d792919061494f565b6020604051808303816000875af11580156122f6573d6000803e3d6000fd5b505050506040513d601f19601f8201168201806040525081019061231a91906145bd565b60ff161015612374576001886003016000836000015160ff1681526020019081526020016000206000836020015160ff16815260200190815260200160002060050160026101000a81548160ff0219169083151502179055505b60006040518060800160405280600081526020016001815260200160028152602001600381525090506000600160046123ad9190614418565b90505b60008111156124e1576000600260009054906101000a900473ffffffffffffffffffffffffffffffffffffffff1673ffffffffffffffffffffffffffffffffffffffff1663ce28613f600060036040518363ffffffff1660e01b815260040161241a9291906149b3565b6020604051808303816000875af1158015612439573d6000803e3d6000fd5b505050506040513d601f19601f8201168201806040525081019061245d91906145bd565b9050828160ff166004811061247557612474614157565b5b602002015183836004811061248d5761248c614157565b5b60200201518484600481106124a5576124a4614157565b5b60200201858460ff16600481106124bf576124be614157565b5b60200201828152508281525050505080806124d9906148af565b9150506123b0565b5060005b6004811015612e3c576000836000015160000b90506000846020015160000b9050600084846004811061251b5761251a614157565b5b60200201511415612539578180612531906149e6565b9250506125d1565b600184846004811061254e5761254d614157565b5b6020020151141561256c57818061256490614a2f565b9250506125d0565b600284846004811061258157612580614157565b5b6020020151141561259f57808061259790614a2f565b9150506125cf565b60038484600481106125b4576125b3614157565b5b602002015114156125ce5780806125ca906149e6565b9150505b5b5b5b60018212806125e05750600181125b806125f757506002600b6125f49190614418565b82135b8061260e57506002600b61260b9190614418565b81135b1561261a575050612e29565b600060405180604001604052808460ff1681526020018360ff1681525090506000151588826000015160ff16600b811061265757612656614157565b5b6020020151826020015160ff16600b811061267557612674614157565b5b60200201511515148061276f575060008d6003016000886000015160ff1681526020019081526020016000206000886020015160ff168152602001908152602001600020600101600260009054906101000a900473ffffffffffffffffffffffffffffffffffffffff1673ffffffffffffffffffffffffffffffffffffffff1663fa3993c289856040518363ffffffff1660e01b8152600401612719929190614a78565b602060405180830381865afa158015612736573d6000803e3d6000fd5b505050506040513d601f19601f8201168201806040525081019061275a91906146a2565b6004811061276b5761276a614157565b5b0154145b15612e255760008a1480612832575088604261278b9190614418565b600260009054906101000a900473ffffffffffffffffffffffffffffffffffffffff1673ffffffffffffffffffffffffffffffffffffffff1663ce28613f600060636040518363ffffffff1660e01b81526004016127ea92919061494f565b6020604051808303816000875af1158015612809573d6000803e3d6000fd5b505050506040513d601f19601f8201168201806040525081019061282d91906145bd565b60ff16105b15612e1f576040518060600160405280600260009054906101000a900473ffffffffffffffffffffffffffffffffffffffff1673ffffffffffffffffffffffffffffffffffffffff1663ce28613f600060036040518363ffffffff1660e01b81526004016128a1929190614aa1565b6020604051808303816000875af11580156128c0573d6000803e3d6000fd5b505050506040513d601f19601f820116820180604052508101906128e491906145bd565b60ff168152602001600260009054906101000a900473ffffffffffffffffffffffffffffffffffffffff1673ffffffffffffffffffffffffffffffffffffffff1663ce28613f600060036040518363ffffffff1660e01b815260040161294b929190614aa1565b6020604051808303816000875af115801561296a573d6000803e3d6000fd5b505050506040513d601f19601f8201168201806040525081019061298e91906145bd565b60ff168152602001600160048111156129aa576129a96135af565b5b8152508d60040160008f60050160009054906101000a900460ff1660ff16815260200190815260200160002060008201518160000160006101000a81548160ff021916908360ff16021790555060208201518160000160016101000a81548160ff021916908360ff16021790555060408201518160000160026101000a81548160ff02191690836004811115612a4357612a426135af565b5b021790555090505060008d60040160008f60050160009054906101000a900460ff1660ff16815260200190815260200160002060000160009054906101000a900460ff1660ff161415612ae65760038d60040160008f60050160009054906101000a900460ff1660ff16815260200190815260200160002060000160026101000a81548160ff02191690836004811115612ae057612adf6135af565b5b02179055505b8c600501600081819054906101000a900460ff1680929190612b07906143ee565b91906101000a81548160ff021916908360ff16021790555050601689612b2d91906144de565b98506042891115612b3d57604298505b6000151588826000015160ff16600b8110612b5b57612b5a614157565b5b6020020151826020015160ff16600b8110612b7957612b78614157565b5b602002015115151415612c085780878d601e8110612b9a57612b99614157565b5b60200201819052508b80612bad906141e4565b9c50508980612bbb906141e4565b9a5050600188826000015160ff16600b8110612bda57612bd9614157565b5b6020020151826020015160ff16600b8110612bf857612bf7614157565b5b6020020190151590811515815250505b60008d6003016000886000015160ff1681526020019081526020016000206000886020015160ff168152602001908152602001600020600101868660048110612c5457612c53614157565b5b602002015160048110612c6a57612c69614157565b5b01541415612e1a5760018d60050160009054906101000a900460ff16612c909190614534565b60ff168d6003016000886000015160ff1681526020019081526020016000206000886020015160ff168152602001908152602001600020600101868660048110612cdd57612cdc614157565b5b602002015160048110612cf357612cf2614157565b5b018190555060018d60050160009054906101000a900460ff16612d169190614534565b60ff168d6003016000836000015160ff1681526020019081526020016000206000836020015160ff168152602001908152602001600020600101600260009054906101000a900473ffffffffffffffffffffffffffffffffffffffff1673ffffffffffffffffffffffffffffffffffffffff16638214f222888860048110612da157612da0614157565b5b60200201516040518263ffffffff1660e01b8152600401612dc2919061403a565b602060405180830381865afa158015612ddf573d6000803e3d6000fd5b505050506040513d601f19601f82011682018060405250810190612e0391906146a2565b60048110612e1457612e13614157565b5b01819055505b612e24565b600098505b5b5050505b8080612e34906141e4565b9150506124e5565b50505061219c565b60028760030160008960060160000160009054906101000a900460ff1660ff16815260200190815260200160002060008960060160000160019054906101000a900460ff1660ff16815260200190815260200160002060000160006101000a81548160ff021916908360ff16021790555060038760040160006001815260200190815260200160002060000160026101000a81548160ff02191690836004811115612ef257612ef16135af565b5b021790555050505050505050565b60005b600b81101561331d5760005b600b81101561330957600160ff16836003016000848152602001908152602001600020600083815260200190815260200160002060000160009054906101000a900460ff1660ff1614156132f65760005b60048110156132f457600084600301600085815260200190815260200160002060008481526020019081526020016000206001018260048110612fa657612fa5614157565b5b015414156132e1576000600260009054906101000a900473ffffffffffffffffffffffffffffffffffffffff1673ffffffffffffffffffffffffffffffffffffffff1663951fc3fe8360405180604001604052808860ff1681526020018760ff168152506040518363ffffffff1660e01b8152600401613027929190614aca565b6040805180830381865afa158015613043573d6000803e3d6000fd5b505050506040513d601f19601f820116820180604052508101906130679190614b43565b90506000856003016000836000015160ff1681526020019081526020016000206000836020015160ff16815260200190815260200160002060000160009054906101000a900460ff1660ff1690506042600260009054906101000a900473ffffffffffffffffffffffffffffffffffffffff1673ffffffffffffffffffffffffffffffffffffffff1663ce28613f600060636040518363ffffffff1660e01b815260040161311692919061494f565b6020604051808303816000875af1158015613135573d6000803e3d6000fd5b505050506040513d601f19601f8201168201806040525081019061315991906145bd565b60ff1610801561316c5750600060ff1681145b156132de57604051806060016040528060ff8016815260200160ff801681526020016004808111156131a1576131a06135af565b5b8152508660040160008860050160009054906101000a900460ff1660ff16815260200190815260200160002060008201518160000160006101000a81548160ff021916908360ff16021790555060208201518160000160016101000a81548160ff021916908360ff16021790555060408201518160000160026101000a81548160ff0219169083600481111561323a576132396135af565b5b021790555090505085600501600081819054906101000a900460ff1680929190613263906143ee565b91906101000a81548160ff021916908360ff1602179055505060018660050160009054906101000a900460ff1661329a9190614534565b60ff16866003016000878152602001908152602001600020600086815260200190815260200160002060010184600481106132d8576132d7614157565b5b01819055505b50505b80806132ec906141e4565b915050612f60565b505b8080613301906141e4565b915050612f0f565b508080613315906141e4565b915050612f03565b5050565b600033905090565b6040518060c0016040528060006004811115613348576133476135af565b5b815260200160008152602001600060ff168152602001600060ff1681526020016000151581526020016000151581525090565b6040518060c00160405280600060ff168152602001600060ff1681526020016133a26134b5565b81526020016000151581526020016000151581526020016000151581525090565b6040518060600160405280600060ff168152602001600060ff168152602001600060048111156133f6576133f56135af565b5b81525090565b8260048101928215613428579182015b8281111561342757825482559160010191906001019061340c565b5b50905061343591906134d7565b5090565b604051806101600160405280600b905b6134516134f4565b8152602001906001900390816134495790505090565b604051806103c00160405280601e905b61347f613495565b8152602001906001900390816134775790505090565b6040518060400160405280600060ff168152602001600060ff1681525090565b6040518060800160405280600490602082028036833780820191505090505090565b5b808211156134f05760008160009055506001016134d8565b5090565b604051806101600160405280600b90602082028036833780820191505090505090565b6000604051905090565b600080fd5b6000819050919050565b61353981613526565b811461354457600080fd5b50565b60008135905061355681613530565b92915050565b60008060006060848603121561357557613574613521565b5b600061358386828701613547565b935050602061359486828701613547565b92505060406135a586828701613547565b9150509250925092565b7f4e487b7100000000000000000000000000000000000000000000000000000000600052602160045260246000fd5b600581106135ef576135ee6135af565b5b50565b6000819050613600826135de565b919050565b6000613610826135f2565b9050919050565b61362081613605565b82525050565b61362f81613526565b82525050565b600060ff82169050919050565b61364b81613635565b82525050565b60008115159050919050565b61366681613651565b82525050565b60c0820160008201516136826000850182613617565b5060208201516136956020850182613626565b5060408201516136a86040850182613642565b5060608201516136bb6060850182613642565b5060808201516136ce608085018261365d565b5060a08201516136e160a085018261365d565b50505050565b600060c0820190506136fc600083018461366c565b92915050565b60006020828403121561371857613717613521565b5b600061372684828501613547565b91505092915050565b600081519050919050565b600082825260208201905092915050565b6000819050602082019050919050565b600081519050919050565b600082825260208201905092915050565b6000819050602082019050919050565b600060049050919050565b600081905092915050565b6000819050919050565b60006137b38383613626565b60208301905092915050565b6000602082019050919050565b6137d581613787565b6137df8184613792565b92506137ea8261379d565b8060005b8381101561381b57815161380287826137a7565b965061380d836137bf565b9250506001810190506137ee565b505050505050565b6101208201600082015161383a6000850182613642565b50602082015161384d6020850182613642565b50604082015161386060408501826137cc565b50606082015161387360c085018261365d565b50608082015161388660e085018261365d565b5060a082015161389a61010085018261365d565b50505050565b60006138ac8383613823565b6101208301905092915050565b6000602082019050919050565b60006138d18261375b565b6138db8185613766565b93506138e683613777565b8060005b838110156139175781516138fe88826138a0565b9750613909836138b9565b9250506001810190506138ea565b5085935050505092915050565b600061393083836138c6565b905092915050565b6000602082019050919050565b60006139508261372f565b61395a818561373a565b93508360208202850161396c8561374b565b8060005b858110156139a857848403895281516139898582613924565b945061399483613938565b925060208a01995050600181019050613970565b50829750879550505050505092915050565b600060208201905081810360008301526139d48184613945565b905092915050565b6139e581613651565b82525050565b6000602082019050613a0060008301846139dc565b92915050565b600073ffffffffffffffffffffffffffffffffffffffff82169050919050565b6000819050919050565b6000613a4b613a46613a4184613a06565b613a26565b613a06565b9050919050565b6000613a5d82613a30565b9050919050565b6000613a6f82613a52565b9050919050565b613a7f81613a64565b82525050565b6000602082019050613a9a6000830184613a76565b92915050565b600081519050919050565b600082825260208201905092915050565b6000819050602082019050919050565b60058110613add57613adc6135af565b5b50565b6000819050613aee82613acc565b919050565b6000613afe82613ae0565b9050919050565b613b0e81613af3565b82525050565b606082016000820151613b2a6000850182613642565b506020820151613b3d6020850182613642565b506040820151613b506040850182613b05565b50505050565b6000613b628383613b14565b60608301905092915050565b6000602082019050919050565b6000613b8682613aa0565b613b908185613aab565b9350613b9b83613abc565b8060005b83811015613bcc578151613bb38882613b56565b9750613bbe83613b6e565b925050600181019050613b9f565b5085935050505092915050565b60006020820190508181036000830152613bf38184613b7b565b905092915050565b60008060008060808587031215613c1557613c14613521565b5b6000613c2387828801613547565b9450506020613c3487828801613547565b9350506040613c4587828801613547565b9250506060613c5687828801613547565b91505092959194509250565b606082016000820151613c786000850182613642565b506020820151613c8b6020850182613642565b506040820151613c9e6040850182613b05565b50505050565b6000606082019050613cb96000830184613c62565b92915050565b613cc881613635565b82525050565b604082016000820151613ce46000850182613642565b506020820151613cf76020850182613642565b50505050565b6000608082019050613d126000830186613cbf565b613d1f6020830185613cbf565b613d2c6040830184613cce565b949350505050565b6000613d3f82613a06565b9050919050565b613d4f81613d34565b82525050565b6000602082019050613d6a6000830184613d46565b92915050565b600081519050919050565b600082825260208201905092915050565b6000819050602082019050919050565b60c082016000820151613db26000850182613617565b506020820151613dc56020850182613626565b506040820151613dd86040850182613642565b506060820151613deb6060850182613642565b506080820151613dfe608085018261365d565b5060a0820151613e1160a085018261365d565b50505050565b6000613e238383613d9c565b60c08301905092915050565b6000602082019050919050565b6000613e4782613d70565b613e518185613d7b565b9350613e5c83613d8c565b8060005b83811015613e8d578151613e748882613e17565b9750613e7f83613e2f565b925050600181019050613e60565b5085935050505092915050565b60006020820190508181036000830152613eb48184613e3c565b905092915050565b613ec581613d34565b8114613ed057600080fd5b50565b600081359050613ee281613ebc565b92915050565b60008060008060808587031215613f0257613f01613521565b5b6000613f1087828801613ed3565b9450506020613f2187828801613ed3565b9350506040613f3287828801613ed3565b9250506060613f4387828801613ed3565b91505092959194509250565b60058110613f5c57600080fd5b50565b600081359050613f6e81613f4f565b92915050565b600080600080600060a08688031215613f9057613f8f613521565b5b6000613f9e88828901613547565b9550506020613faf88828901613547565b9450506040613fc088828901613547565b9350506060613fd188828901613547565b9250506080613fe288828901613f5f565b9150509295509295909350565b6000613ffa82613a52565b9050919050565b61400a81613fef565b82525050565b60006020820190506140256000830184614001565b92915050565b61403481613526565b82525050565b600060208201905061404f600083018461402b565b92915050565b60006020828403121561406b5761406a613521565b5b600061407984828501613ed3565b91505092915050565b600061408d82613a52565b9050919050565b61409d81614082565b82525050565b60006020820190506140b86000830184614094565b92915050565b610120820160008201516140d56000850182613642565b5060208201516140e86020850182613642565b5060408201516140fb60408501826137cc565b50606082015161410e60c085018261365d565b50608082015161412160e085018261365d565b5060a082015161413561010085018261365d565b50505050565b60006101208201905061415160008301846140be565b92915050565b7f4e487b7100000000000000000000000000000000000000000000000000000000600052603260045260246000fd5b7f4e487b7100000000000000000000000000000000000000000000000000000000600052604160045260246000fd5b7f4e487b7100000000000000000000000000000000000000000000000000000000600052601160045260246000fd5b60006141ef82613526565b91507fffffffffffffffffffffffffffffffffffffffffffffffffffffffffffffffff821415614222576142216141b5565b5b600182019050919050565b600082825260208201905092915050565b7f4e6f742067616d6520636f6e7472616374000000000000000000000000000000600082015250565b600061427460118361422d565b915061427f8261423e565b602082019050919050565b600060208201905081810360008301526142a381614267565b9050919050565b7f4e6f7420616374696f6e7320636f6e7472616374000000000000000000000000600082015250565b60006142e060148361422d565b91506142eb826142aa565b602082019050919050565b6000602082019050818103600083015261430f816142d3565b9050919050565b7f4e6f7420616c6c6f77656420636f6e7472616374000000000000000000000000600082015250565b600061434c60148361422d565b915061435782614316565b602082019050919050565b6000602082019050818103600083015261437b8161433f565b9050919050565b7f4f6e6c792067616d6520636f6e74726163742063616e20757365000000000000600082015250565b60006143b8601a8361422d565b91506143c382614382565b602082019050919050565b600060208201905081810360008301526143e7816143ab565b9050919050565b60006143f982613635565b915060ff82141561440d5761440c6141b5565b5b600182019050919050565b600061442382613526565b915061442e83613526565b925082821015614441576144406141b5565b5b828203905092915050565b7f4f776e61626c653a206e6577206f776e657220697320746865207a65726f206160008201527f6464726573730000000000000000000000000000000000000000000000000000602082015250565b60006144a860268361422d565b91506144b38261444c565b604082019050919050565b600060208201905081810360008301526144d78161449b565b9050919050565b60006144e982613526565b91506144f483613526565b9250827fffffffffffffffffffffffffffffffffffffffffffffffffffffffffffffffff03821115614529576145286141b5565b5b828201905092915050565b600061453f82613635565b915061454a83613635565b92508282101561455d5761455c6141b5565b5b828203905092915050565b600060408201905061457d6000830185613cbf565b61458a6020830184613cbf565b9392505050565b61459a81613635565b81146145a557600080fd5b50565b6000815190506145b781614591565b92915050565b6000602082840312156145d3576145d2613521565b5b60006145e1848285016145a8565b91505092915050565b60006145f582613635565b915061460083613635565b92508260ff03821115614616576146156141b5565b5b828201905092915050565b7f4f776e61626c653a2063616c6c6572206973206e6f7420746865206f776e6572600082015250565b600061465760208361422d565b915061466282614621565b602082019050919050565b600060208201905081810360008301526146868161464a565b9050919050565b60008151905061469c81613530565b92915050565b6000602082840312156146b8576146b7613521565b5b60006146c68482850161468d565b91505092915050565b600080fd5b6000601f19601f8301169050919050565b6146ee826146d4565b810181811067ffffffffffffffff8211171561470d5761470c614186565b5b80604052505050565b6000614720613517565b905061472c82826146e5565b919050565b6005811061473e57600080fd5b50565b60008151905061475081614731565b92915050565b61475f81613651565b811461476a57600080fd5b50565b60008151905061477c81614756565b92915050565b600060c08284031215614798576147976146cf565b5b6147a260c0614716565b905060006147b284828501614741565b60008301525060206147c68482850161468d565b60208301525060406147da848285016145a8565b60408301525060606147ee848285016145a8565b60608301525060806148028482850161476d565b60808301525060a06148168482850161476d565b60a08301525092915050565b600060c0828403121561483857614837613521565b5b600061484684828501614782565b91505092915050565b7f4e487b7100000000000000000000000000000000000000000000000000000000600052601260045260246000fd5b600061488982613526565b915061489483613526565b9250826148a4576148a361484f565b5b828204905092915050565b60006148ba82613526565b915060008214156148ce576148cd6141b5565b5b600182039050919050565b6000819050919050565b60006148fe6148f96148f4846148d9565b613a26565b613635565b9050919050565b61490e816148e3565b82525050565b6000819050919050565b600061493961493461492f84614914565b613a26565b613635565b9050919050565b6149498161491e565b82525050565b60006040820190506149646000830185614905565b6149716020830184614940565b9392505050565b6000819050919050565b600061499d61499861499384614978565b613a26565b613635565b9050919050565b6149ad81614982565b82525050565b60006040820190506149c86000830185614905565b6149d560208301846149a4565b9392505050565b6000819050919050565b60006149f1826149dc565b91507f8000000000000000000000000000000000000000000000000000000000000000821415614a2457614a236141b5565b5b600182039050919050565b6000614a3a826149dc565b91507f7fffffffffffffffffffffffffffffffffffffffffffffffffffffffffffffff821415614a6d57614a6c6141b5565b5b600182019050919050565b6000608082019050614a8d6000830185613cce565b614a9a6040830184613cce565b9392505050565b6000604082019050614ab66000830185614905565b614ac36020830184613cbf565b9392505050565b6000606082019050614adf600083018561402b565b614aec6020830184613cce565b9392505050565b600060408284031215614b0957614b086146cf565b5b614b136040614716565b90506000614b23848285016145a8565b6000830152506020614b37848285016145a8565b60208301525092915050565b600060408284031215614b5957614b58613521565b5b6000614b6784828501614af3565b9150509291505056fea2646970667358221220873d3d628bf2e6a4eccd9de11140ec5be52e6d5e78e32befc74a3c1674566a8064736f6c634300080c0033",
  "devdoc": {
    "kind": "dev",
    "methods": {
      "owner()": {
        "details": "Returns the address of the current owner."
      },
      "renounceOwnership()": {
        "details": "Leaves the contract without owner. It will not be possible to call `onlyOwner` functions anymore. Can only be called by the current owner. NOTE: Renouncing ownership will leave the contract without an owner, thereby removing any functionality that is only available to the owner."
      },
      "transferOwnership(address)": {
        "details": "Transfers ownership of the contract to a new account (`newOwner`). Can only be called by the current owner."
      }
    },
    "version": 1
  },
  "userdoc": {
    "kind": "user",
    "methods": {},
    "version": 1
  },
  "storageLayout": {
    "storage": [
      {
        "astId": 7,
        "contract": "contracts/BCMaps.sol:Maps",
        "label": "_owner",
        "offset": 0,
        "slot": "0",
        "type": "t_address"
      },
      {
        "astId": 1264,
        "contract": "contracts/BCMaps.sol:Maps",
        "label": "game",
        "offset": 0,
        "slot": "1",
        "type": "t_contract(GameInterface)1194"
      },
      {
        "astId": 1267,
        "contract": "contracts/BCMaps.sol:Maps",
        "label": "utils",
        "offset": 0,
        "slot": "2",
        "type": "t_contract(UtilsInterface)1259"
      },
      {
        "astId": 1270,
        "contract": "contracts/BCMaps.sol:Maps",
        "label": "roomTiles",
        "offset": 0,
        "slot": "3",
        "type": "t_contract(RoomTileInterface)1208"
      },
      {
        "astId": 1272,
        "contract": "contracts/BCMaps.sol:Maps",
        "label": "actionsAddress",
        "offset": 0,
        "slot": "4",
        "type": "t_address"
      },
      {
        "astId": 1312,
        "contract": "contracts/BCMaps.sol:Maps",
        "label": "gameTiles",
        "offset": 0,
        "slot": "5",
        "type": "t_array(t_struct(GameTile)2865_storage)dyn_storage"
      },
      {
        "astId": 1316,
        "contract": "contracts/BCMaps.sol:Maps",
        "label": "maps",
        "offset": 0,
        "slot": "6",
        "type": "t_array(t_struct(Map)2902_storage)dyn_storage"
      }
    ],
    "types": {
      "t_address": {
        "encoding": "inplace",
        "label": "address",
        "numberOfBytes": "20"
      },
      "t_array(t_struct(GameTile)2865_storage)dyn_storage": {
        "base": "t_struct(GameTile)2865_storage",
        "encoding": "dynamic_array",
        "label": "struct BCTypes.GameTile[]",
        "numberOfBytes": "32"
      },
      "t_array(t_struct(Map)2902_storage)dyn_storage": {
        "base": "t_struct(Map)2902_storage",
        "encoding": "dynamic_array",
        "label": "struct BCTypes.Map[]",
        "numberOfBytes": "32"
      },
      "t_array(t_uint256)4_storage": {
        "base": "t_uint256",
        "encoding": "inplace",
        "label": "uint256[4]",
        "numberOfBytes": "128"
      },
      "t_bool": {
        "encoding": "inplace",
        "label": "bool",
        "numberOfBytes": "1"
      },
      "t_contract(GameInterface)1194": {
        "encoding": "inplace",
        "label": "contract GameInterface",
        "numberOfBytes": "20"
      },
      "t_contract(RoomTileInterface)1208": {
        "encoding": "inplace",
        "label": "contract RoomTileInterface",
        "numberOfBytes": "20"
      },
      "t_contract(UtilsInterface)1259": {
        "encoding": "inplace",
        "label": "contract UtilsInterface",
        "numberOfBytes": "20"
      },
      "t_enum(BCEventType)2935": {
        "encoding": "inplace",
        "label": "enum BCTypes.BCEventType",
        "numberOfBytes": "1"
      },
      "t_enum(DoorStatus)2789": {
        "encoding": "inplace",
        "label": "enum BCTypes.DoorStatus",
        "numberOfBytes": "1"
      },
      "t_mapping(t_uint256,t_bool)": {
        "encoding": "mapping",
        "key": "t_uint256",
        "label": "mapping(uint256 => bool)",
        "numberOfBytes": "32",
        "value": "t_bool"
      },
      "t_mapping(t_uint256,t_mapping(t_uint256,t_struct(GameTile)2865_storage))": {
        "encoding": "mapping",
        "key": "t_uint256",
        "label": "mapping(uint256 => mapping(uint256 => struct BCTypes.GameTile))",
        "numberOfBytes": "32",
        "value": "t_mapping(t_uint256,t_struct(GameTile)2865_storage)"
      },
      "t_mapping(t_uint256,t_struct(Door)2873_storage)": {
        "encoding": "mapping",
        "key": "t_uint256",
        "label": "mapping(uint256 => struct BCTypes.Door)",
        "numberOfBytes": "32",
        "value": "t_struct(Door)2873_storage"
      },
      "t_mapping(t_uint256,t_struct(GameTile)2865_storage)": {
        "encoding": "mapping",
        "key": "t_uint256",
        "label": "mapping(uint256 => struct BCTypes.GameTile)",
        "numberOfBytes": "32",
        "value": "t_struct(GameTile)2865_storage"
      },
      "t_mapping(t_uint256,t_struct(RoomTile)2949_storage)": {
        "encoding": "mapping",
        "key": "t_uint256",
        "label": "mapping(uint256 => struct BCTypes.RoomTile)",
        "numberOfBytes": "32",
        "value": "t_struct(RoomTile)2949_storage"
      },
      "t_struct(Door)2873_storage": {
        "encoding": "inplace",
        "label": "struct BCTypes.Door",
        "members": [
          {
            "astId": 2867,
            "contract": "contracts/BCMaps.sol:Maps",
            "label": "vsBreach",
            "offset": 0,
            "slot": "0",
            "type": "t_uint8"
          },
          {
            "astId": 2869,
            "contract": "contracts/BCMaps.sol:Maps",
            "label": "vsHack",
            "offset": 1,
            "slot": "0",
            "type": "t_uint8"
          },
          {
            "astId": 2872,
            "contract": "contracts/BCMaps.sol:Maps",
            "label": "status",
            "offset": 2,
            "slot": "0",
            "type": "t_enum(DoorStatus)2789"
          }
        ],
        "numberOfBytes": "32"
      },
      "t_struct(GameTile)2865_storage": {
        "encoding": "inplace",
        "label": "struct BCTypes.GameTile",
        "members": [
          {
            "astId": 2852,
            "contract": "contracts/BCMaps.sol:Maps",
            "label": "roomId",
            "offset": 0,
            "slot": "0",
            "type": "t_uint8"
          },
          {
            "astId": 2854,
            "contract": "contracts/BCMaps.sol:Maps",
            "label": "parentId",
            "offset": 1,
            "slot": "0",
            "type": "t_uint8"
          },
          {
            "astId": 2858,
            "contract": "contracts/BCMaps.sol:Maps",
            "label": "doors",
            "offset": 0,
            "slot": "1",
            "type": "t_array(t_uint256)4_storage"
          },
          {
            "astId": 2860,
            "contract": "contracts/BCMaps.sol:Maps",
            "label": "explored",
            "offset": 0,
            "slot": "5",
            "type": "t_bool"
          },
          {
            "astId": 2862,
            "contract": "contracts/BCMaps.sol:Maps",
            "label": "looted",
            "offset": 1,
            "slot": "5",
            "type": "t_bool"
          },
          {
            "astId": 2864,
            "contract": "contracts/BCMaps.sol:Maps",
            "label": "hasVent",
            "offset": 2,
            "slot": "5",
            "type": "t_bool"
          }
        ],
        "numberOfBytes": "192"
      },
      "t_struct(Map)2902_storage": {
        "encoding": "inplace",
        "label": "struct BCTypes.Map",
        "members": [
          {
            "astId": 2878,
            "contract": "contracts/BCMaps.sol:Maps",
            "label": "roomList",
            "offset": 0,
            "slot": "0",
            "type": "t_mapping(t_uint256,t_struct(RoomTile)2949_storage)"
          },
          {
            "astId": 2880,
            "contract": "contracts/BCMaps.sol:Maps",
            "label": "numRooms",
            "offset": 0,
            "slot": "1",
            "type": "t_uint8"
          },
          {
            "astId": 2884,
            "contract": "contracts/BCMaps.sol:Maps",
            "label": "usedRooms",
            "offset": 0,
            "slot": "2",
            "type": "t_mapping(t_uint256,t_bool)"
          },
          {
            "astId": 2891,
            "contract": "contracts/BCMaps.sol:Maps",
            "label": "board",
            "offset": 0,
            "slot": "3",
            "type": "t_mapping(t_uint256,t_mapping(t_uint256,t_struct(GameTile)2865_storage))"
          },
          {
            "astId": 2896,
            "contract": "contracts/BCMaps.sol:Maps",
            "label": "doors",
            "offset": 0,
            "slot": "4",
            "type": "t_mapping(t_uint256,t_struct(Door)2873_storage)"
          },
          {
            "astId": 2898,
            "contract": "contracts/BCMaps.sol:Maps",
            "label": "numDoors",
            "offset": 0,
            "slot": "5",
            "type": "t_uint8"
          },
          {
            "astId": 2901,
            "contract": "contracts/BCMaps.sol:Maps",
            "label": "startPosition",
            "offset": 0,
            "slot": "6",
            "type": "t_struct(Position)2850_storage"
          }
        ],
        "numberOfBytes": "224"
      },
      "t_struct(Position)2850_storage": {
        "encoding": "inplace",
        "label": "struct BCTypes.Position",
        "members": [
          {
            "astId": 2847,
            "contract": "contracts/BCMaps.sol:Maps",
            "label": "row",
            "offset": 0,
            "slot": "0",
            "type": "t_uint8"
          },
          {
            "astId": 2849,
            "contract": "contracts/BCMaps.sol:Maps",
            "label": "col",
            "offset": 1,
            "slot": "0",
            "type": "t_uint8"
          }
        ],
        "numberOfBytes": "32"
      },
      "t_struct(RoomTile)2949_storage": {
        "encoding": "inplace",
        "label": "struct BCTypes.RoomTile",
        "members": [
          {
            "astId": 2938,
            "contract": "contracts/BCMaps.sol:Maps",
            "label": "eventType",
            "offset": 0,
            "slot": "0",
            "type": "t_enum(BCEventType)2935"
          },
          {
            "astId": 2940,
            "contract": "contracts/BCMaps.sol:Maps",
            "label": "eventNum",
            "offset": 0,
            "slot": "1",
            "type": "t_uint256"
          },
          {
            "astId": 2942,
            "contract": "contracts/BCMaps.sol:Maps",
            "label": "numItems",
            "offset": 0,
            "slot": "2",
            "type": "t_uint8"
          },
          {
            "astId": 2944,
            "contract": "contracts/BCMaps.sol:Maps",
            "label": "numData",
            "offset": 1,
            "slot": "2",
            "type": "t_uint8"
          },
          {
            "astId": 2946,
            "contract": "contracts/BCMaps.sol:Maps",
            "label": "hasHazard",
            "offset": 2,
            "slot": "2",
            "type": "t_bool"
          },
          {
            "astId": 2948,
            "contract": "contracts/BCMaps.sol:Maps",
            "label": "sigDetected",
            "offset": 3,
            "slot": "2",
            "type": "t_bool"
          }
        ],
        "numberOfBytes": "96"
      },
      "t_uint256": {
        "encoding": "inplace",
        "label": "uint256",
        "numberOfBytes": "32"
      },
      "t_uint8": {
        "encoding": "inplace",
        "label": "uint8",
        "numberOfBytes": "1"
      }
    }
  }
}