{
  "address": "0xf516965f6fADBC36c9726A877A46C8548CaD7B75",
  "abi": [
    {
      "anonymous": false,
      "inputs": [
        {
          "indexed": true,
          "internalType": "address",
          "name": "previousOwner",
          "type": "address"
        },
        {
          "indexed": true,
          "internalType": "address",
          "name": "newOwner",
          "type": "address"
        }
      ],
      "name": "OwnershipTransferred",
      "type": "event"
    },
    {
      "inputs": [],
      "name": "actionsAddress",
      "outputs": [
        {
          "internalType": "address",
          "name": "",
          "type": "address"
        }
      ],
      "stateMutability": "view",
      "type": "function"
    },
    {
      "inputs": [],
      "name": "createMap",
      "outputs": [
        {
          "internalType": "uint256",
          "name": "",
          "type": "uint256"
        }
      ],
      "stateMutability": "nonpayable",
      "type": "function"
    },
    {
      "inputs": [
        {
          "internalType": "uint256",
          "name": "_roomId",
          "type": "uint256"
        }
      ],
      "name": "debugBuildMapOneRoom",
      "outputs": [
        {
          "internalType": "uint256",
          "name": "",
          "type": "uint256"
        }
      ],
      "stateMutability": "nonpayable",
      "type": "function"
    },
    {
      "inputs": [
        {
          "internalType": "uint256",
          "name": "_mapId",
          "type": "uint256"
        },
        {
          "internalType": "uint256",
          "name": "_row",
          "type": "uint256"
        },
        {
          "internalType": "uint256",
          "name": "_col",
          "type": "uint256"
        },
        {
          "internalType": "uint256",
          "name": "_roomId",
          "type": "uint256"
        }
      ],
      "name": "debugForceRoomId",
      "outputs": [],
      "stateMutability": "nonpayable",
      "type": "function"
    },
    {
      "inputs": [
        {
          "internalType": "uint256",
          "name": "_mapId",
          "type": "uint256"
        },
        {
          "internalType": "uint256",
          "name": "_row",
          "type": "uint256"
        },
        {
          "internalType": "uint256",
          "name": "_col",
          "type": "uint256"
        }
      ],
      "name": "discoverRoom",
      "outputs": [
        {
          "internalType": "uint256",
          "name": "",
          "type": "uint256"
        }
      ],
      "stateMutability": "nonpayable",
      "type": "function"
    },
    {
      "inputs": [
        {
          "internalType": "uint256",
          "name": "_mapId",
          "type": "uint256"
        }
      ],
      "name": "extGetBoard",
      "outputs": [
        {
          "components": [
            {
              "internalType": "uint8",
              "name": "roomId",
              "type": "uint8"
            },
            {
              "internalType": "uint8",
              "name": "parentId",
              "type": "uint8"
            },
            {
              "internalType": "uint256[4]",
              "name": "doors",
              "type": "uint256[4]"
            },
            {
              "internalType": "bool",
              "name": "explored",
              "type": "bool"
            },
            {
              "internalType": "bool",
              "name": "looted",
              "type": "bool"
            },
            {
              "internalType": "bool",
              "name": "hasVent",
              "type": "bool"
            },
            {
              "internalType": "bool",
              "name": "hasHazard",
              "type": "bool"
            }
          ],
          "internalType": "struct BCTypes.GameTile[][]",
          "name": "",
          "type": "tuple[][]"
        }
      ],
      "stateMutability": "view",
      "type": "function"
    },
    {
      "inputs": [
        {
          "internalType": "uint256",
          "name": "_mapId",
          "type": "uint256"
        }
      ],
      "name": "extGetDoors",
      "outputs": [
        {
          "components": [
            {
              "internalType": "uint8",
              "name": "vsBreach",
              "type": "uint8"
            },
            {
              "internalType": "uint8",
              "name": "vsHack",
              "type": "uint8"
            },
            {
              "internalType": "enum BCTypes.DoorStatus",
              "name": "status",
              "type": "uint8"
            }
          ],
          "internalType": "struct BCTypes.Door[]",
          "name": "",
          "type": "tuple[]"
        }
      ],
      "stateMutability": "view",
      "type": "function"
    },
    {
      "inputs": [
        {
          "internalType": "uint256",
          "name": "_mapId",
          "type": "uint256"
        },
        {
          "internalType": "uint256",
          "name": "_row",
          "type": "uint256"
        },
        {
          "internalType": "uint256",
          "name": "_col",
          "type": "uint256"
        }
      ],
      "name": "extGetGameTile",
      "outputs": [
        {
          "components": [
            {
              "internalType": "uint8",
              "name": "roomId",
              "type": "uint8"
            },
            {
              "internalType": "uint8",
              "name": "parentId",
              "type": "uint8"
            },
            {
              "internalType": "uint256[4]",
              "name": "doors",
              "type": "uint256[4]"
            },
            {
              "internalType": "bool",
              "name": "explored",
              "type": "bool"
            },
            {
              "internalType": "bool",
              "name": "looted",
              "type": "bool"
            },
            {
              "internalType": "bool",
              "name": "hasVent",
              "type": "bool"
            },
            {
              "internalType": "bool",
              "name": "hasHazard",
              "type": "bool"
            }
          ],
          "internalType": "struct BCTypes.GameTile",
          "name": "",
          "type": "tuple"
        }
      ],
      "stateMutability": "view",
      "type": "function"
    },
    {
      "inputs": [
        {
          "internalType": "uint256",
          "name": "_mapId",
          "type": "uint256"
        }
      ],
      "name": "extGetMainReactorCoords",
      "outputs": [
        {
          "internalType": "uint256",
          "name": "",
          "type": "uint256"
        },
        {
          "internalType": "uint256",
          "name": "",
          "type": "uint256"
        }
      ],
      "stateMutability": "view",
      "type": "function"
    },
    {
      "inputs": [
        {
          "internalType": "uint256",
          "name": "_mapId",
          "type": "uint256"
        },
        {
          "internalType": "uint256",
          "name": "_row",
          "type": "uint256"
        },
        {
          "internalType": "uint256",
          "name": "_col",
          "type": "uint256"
        }
      ],
      "name": "extGetRoom",
      "outputs": [
        {
          "components": [
            {
              "internalType": "enum BCTypes.BCEventType",
              "name": "eventType",
              "type": "uint8"
            },
            {
              "internalType": "uint256",
              "name": "eventNum",
              "type": "uint256"
            },
            {
              "internalType": "uint8",
              "name": "numItems",
              "type": "uint8"
            },
            {
              "internalType": "uint8",
              "name": "numData",
              "type": "uint8"
            },
            {
              "internalType": "bool",
              "name": "sigDetected",
              "type": "bool"
            }
          ],
          "internalType": "struct BCTypes.RoomTile",
          "name": "",
          "type": "tuple"
        }
      ],
      "stateMutability": "view",
      "type": "function"
    },
    {
      "inputs": [
        {
          "internalType": "uint256",
          "name": "_mapId",
          "type": "uint256"
        },
        {
          "internalType": "uint256",
          "name": "_roomId",
          "type": "uint256"
        }
      ],
      "name": "extGetRoomById",
      "outputs": [
        {
          "components": [
            {
              "internalType": "enum BCTypes.BCEventType",
              "name": "eventType",
              "type": "uint8"
            },
            {
              "internalType": "uint256",
              "name": "eventNum",
              "type": "uint256"
            },
            {
              "internalType": "uint8",
              "name": "numItems",
              "type": "uint8"
            },
            {
              "internalType": "uint8",
              "name": "numData",
              "type": "uint8"
            },
            {
              "internalType": "bool",
              "name": "sigDetected",
              "type": "bool"
            }
          ],
          "internalType": "struct BCTypes.RoomTile",
          "name": "",
          "type": "tuple"
        }
      ],
      "stateMutability": "view",
      "type": "function"
    },
    {
      "inputs": [
        {
          "internalType": "uint256",
          "name": "_mapId",
          "type": "uint256"
        }
      ],
      "name": "extGetRoomList",
      "outputs": [
        {
          "components": [
            {
              "internalType": "enum BCTypes.BCEventType",
              "name": "eventType",
              "type": "uint8"
            },
            {
              "internalType": "uint256",
              "name": "eventNum",
              "type": "uint256"
            },
            {
              "internalType": "uint8",
              "name": "numItems",
              "type": "uint8"
            },
            {
              "internalType": "uint8",
              "name": "numData",
              "type": "uint8"
            },
            {
              "internalType": "bool",
              "name": "sigDetected",
              "type": "bool"
            }
          ],
          "internalType": "struct BCTypes.RoomTile[]",
          "name": "",
          "type": "tuple[]"
        }
      ],
      "stateMutability": "view",
      "type": "function"
    },
    {
      "inputs": [
        {
          "internalType": "uint256",
          "name": "_mapId",
          "type": "uint256"
        },
        {
          "internalType": "uint256",
          "name": "_row",
          "type": "uint256"
        },
        {
          "internalType": "uint256",
          "name": "_col",
          "type": "uint256"
        },
        {
          "internalType": "bool",
          "name": "_hasHazard",
          "type": "bool"
        }
      ],
      "name": "extSetHazardStatus",
      "outputs": [],
      "stateMutability": "nonpayable",
      "type": "function"
    },
    {
      "inputs": [
        {
          "internalType": "uint256",
          "name": "_mapId",
          "type": "uint256"
        },
        {
          "internalType": "uint256",
          "name": "_distance",
          "type": "uint256"
        }
      ],
      "name": "extSpreadHazards",
      "outputs": [],
      "stateMutability": "nonpayable",
      "type": "function"
    },
    {
      "inputs": [],
      "name": "game",
      "outputs": [
        {
          "internalType": "address",
          "name": "",
          "type": "address"
        }
      ],
      "stateMutability": "view",
      "type": "function"
    },
    {
      "inputs": [
        {
          "internalType": "uint256",
          "name": "_mapId",
          "type": "uint256"
        },
        {
          "internalType": "uint256",
          "name": "_row",
          "type": "uint256"
        },
        {
          "internalType": "uint256",
          "name": "_col",
          "type": "uint256"
        },
        {
          "internalType": "uint256",
          "name": "_direction",
          "type": "uint256"
        }
      ],
      "name": "getDoor",
      "outputs": [
        {
          "components": [
            {
              "internalType": "uint8",
              "name": "vsBreach",
              "type": "uint8"
            },
            {
              "internalType": "uint8",
              "name": "vsHack",
              "type": "uint8"
            },
            {
              "internalType": "enum BCTypes.DoorStatus",
              "name": "status",
              "type": "uint8"
            }
          ],
          "internalType": "struct BCTypes.Door",
          "name": "",
          "type": "tuple"
        }
      ],
      "stateMutability": "view",
      "type": "function"
    },
    {
      "inputs": [
        {
          "internalType": "uint256",
          "name": "",
          "type": "uint256"
        }
      ],
      "name": "maps",
      "outputs": [
        {
          "internalType": "uint8",
          "name": "numRooms",
          "type": "uint8"
        },
        {
          "internalType": "uint8",
          "name": "numDoors",
          "type": "uint8"
        },
        {
          "components": [
            {
              "internalType": "uint8",
              "name": "row",
              "type": "uint8"
            },
            {
              "internalType": "uint8",
              "name": "col",
              "type": "uint8"
            }
          ],
          "internalType": "struct BCTypes.Position",
          "name": "startPosition",
          "type": "tuple"
        },
        {
          "internalType": "uint256",
          "name": "mainReactorRow",
          "type": "uint256"
        },
        {
          "internalType": "uint256",
          "name": "mainReactorCol",
          "type": "uint256"
        }
      ],
      "stateMutability": "view",
      "type": "function"
    },
    {
      "inputs": [],
      "name": "owner",
      "outputs": [
        {
          "internalType": "address",
          "name": "",
          "type": "address"
        }
      ],
      "stateMutability": "view",
      "type": "function"
    },
    {
      "inputs": [],
      "name": "playersAddress",
      "outputs": [
        {
          "internalType": "address",
          "name": "",
          "type": "address"
        }
      ],
      "stateMutability": "view",
      "type": "function"
    },
    {
      "inputs": [],
      "name": "renounceOwnership",
      "outputs": [],
      "stateMutability": "nonpayable",
      "type": "function"
    },
    {
      "inputs": [
        {
          "internalType": "uint256",
          "name": "_mapId",
          "type": "uint256"
        }
      ],
      "name": "resetOpenDoors",
      "outputs": [],
      "stateMutability": "nonpayable",
      "type": "function"
    },
    {
      "inputs": [],
      "name": "roomTiles",
      "outputs": [
        {
          "internalType": "contract RoomTileInterface",
          "name": "",
          "type": "address"
        }
      ],
      "stateMutability": "view",
      "type": "function"
    },
    {
      "inputs": [
        {
          "internalType": "address",
          "name": "_gameAddress",
          "type": "address"
        },
        {
          "internalType": "address",
          "name": "_utilsAddress",
          "type": "address"
        },
        {
          "internalType": "address",
          "name": "_roomTilesAddress",
          "type": "address"
        },
        {
          "internalType": "address",
          "name": "_actionsAddress",
          "type": "address"
        },
        {
          "internalType": "address",
          "name": "_playersAddress",
          "type": "address"
        }
      ],
      "name": "setContractAddresses",
      "outputs": [],
      "stateMutability": "nonpayable",
      "type": "function"
    },
    {
      "inputs": [
        {
          "internalType": "uint256",
          "name": "_mapId",
          "type": "uint256"
        },
        {
          "internalType": "uint256",
          "name": "_row",
          "type": "uint256"
        },
        {
          "internalType": "uint256",
          "name": "_col",
          "type": "uint256"
        },
        {
          "internalType": "uint256",
          "name": "_direction",
          "type": "uint256"
        },
        {
          "internalType": "enum BCTypes.DoorStatus",
          "name": "_status",
          "type": "uint8"
        },
        {
          "internalType": "uint256",
          "name": "_strength",
          "type": "uint256"
        }
      ],
      "name": "setDoorFromPos",
      "outputs": [],
      "stateMutability": "nonpayable",
      "type": "function"
    },
    {
      "inputs": [
        {
          "internalType": "uint256",
          "name": "_mapId",
          "type": "uint256"
        },
        {
          "internalType": "uint256",
          "name": "_row",
          "type": "uint256"
        },
        {
          "internalType": "uint256",
          "name": "_col",
          "type": "uint256"
        }
      ],
      "name": "setLooted",
      "outputs": [],
      "stateMutability": "nonpayable",
      "type": "function"
    },
    {
      "inputs": [
        {
          "internalType": "address",
          "name": "newOwner",
          "type": "address"
        }
      ],
      "name": "transferOwnership",
      "outputs": [],
      "stateMutability": "nonpayable",
      "type": "function"
    },
    {
      "inputs": [],
      "name": "utils",
      "outputs": [
        {
          "internalType": "contract UtilsInterface",
          "name": "",
          "type": "address"
        }
      ],
      "stateMutability": "view",
      "type": "function"
    }
  ],
  "transactionHash": "0xaa6de9ec444bec336c332d1e365e150571f5b152161acccdc44ed32376a2ce9a",
  "args": [],
  "numDeployments": 1,
  "solcInputHash": "3bb9a8bfbba7b0d23e5324b4eda443e4",
  "bytecode": "0x60806040523480156200001157600080fd5b5062000032620000266200003860201b60201c565b6200004060201b60201c565b62000104565b600033905090565b60008060009054906101000a900473ffffffffffffffffffffffffffffffffffffffff169050816000806101000a81548173ffffffffffffffffffffffffffffffffffffffff021916908373ffffffffffffffffffffffffffffffffffffffff1602179055508173ffffffffffffffffffffffffffffffffffffffff168173ffffffffffffffffffffffffffffffffffffffff167f8be0079c531659141344cd1fd0a4f28419497f9722a3daafe3b4186f6b6457e060405160405180910390a35050565b615ed480620001146000396000f3fe608060405234801561001057600080fd5b50600436106101a95760003560e01c806375990a0e116100f9578063c6b41b4511610097578063f2fde38b11610071578063f2fde38b146104f9578063f7157f6414610515578063f9dfbfcb14610533578063fe368d7a14610563576101a9565b8063c6b41b45146104a3578063e847ae1e146104bf578063f01fc35a146104db576101a9565b80638af13fd2116100d35780638af13fd21461041b5780638da5cb5b1461044b578063b14ca57514610469578063c3fe3e2814610485576101a9565b806375990a0e146103ad5780637b45c0d4146103e157806386e529d0146103ff576101a9565b806358308aa8116101665780635f8951e6116101405780635f8951e61461031257806369568fd5146103435780636ea1dcd814610373578063715018a6146103a3576101a9565b806358308aa8146102bc57806359215223146102d85780635a29638d146102f4576101a9565b806302861c6c146101ae57806303b414e4146101de5780631ef04416146101fc578063471b67591461022c578063523814bc1461025c578063580582831461028c575b600080fd5b6101c860048036038101906101c39190614815565b61057f565b6040516101d5919061498d565b60405180910390f35b6101e66106c5565b6040516101f391906149e9565b60405180910390f35b61021660048036038101906102119190614a04565b6106eb565b6040516102239190614cd0565b60405180910390f35b61024660048036038101906102419190614815565b610991565b6040516102539190614d01565b60405180910390f35b61027660048036038101906102719190614a04565b610ac7565b6040516102839190614d01565b60405180910390f35b6102a660048036038101906102a19190614d1c565b6115d7565b6040516102b3919061498d565b60405180910390f35b6102d660048036038101906102d19190614a04565b6116c2565b005b6102f260048036038101906102ed9190614d81565b611848565b005b6102fc611add565b6040516103099190614e6d565b60405180910390f35b61032c60048036038101906103279190614a04565b611b03565b60405161033a929190614e88565b60405180910390f35b61035d60048036038101906103589190614a04565b611b5b565b60405161036a9190614fea565b60405180910390f35b61038d6004803603810190610388919061500c565b611ce7565b60405161039a91906150b5565b60405180910390f35b6103ab611e51565b005b6103c760048036038101906103c29190614a04565b611e65565b6040516103d895949392919061510e565b60405180910390f35b6103e9611f09565b6040516103f691906149e9565b60405180910390f35b61041960048036038101906104149190614815565b611f2f565b005b61043560048036038101906104309190614a04565b612027565b6040516104429190615278565b60405180910390f35b6104536121d8565b60405161046091906149e9565b60405180910390f35b610483600480360381019061047e919061500c565b612201565b005b61048d612272565b60405161049a91906149e9565b60405180910390f35b6104bd60048036038101906104b89190614d1c565b612298565b005b6104d960048036038101906104d491906152c6565b61275f565b005b6104e36128b3565b6040516104f09190614d01565b60405180910390f35b610513600480360381019061050e9190615341565b612af7565b005b61051d612b7a565b60405161052a919061538f565b60405180910390f35b61054d60048036038101906105489190614815565b612ba0565b60405161055a919061543b565b60405180910390f35b61057d60048036038101906105789190615483565b612cee565b005b61058761463c565b6006848154811061059b5761059a6154ea565b5b90600052602060002090600902016000016000600686815481106105c2576105c16154ea565b5b90600052602060002090600902016003016000868152602001908152602001600020600085815260200190815260200160002060000160009054906101000a900460ff1660ff1681526020019081526020016000206040518060a00160405290816000820160009054906101000a900460ff16600481111561064757610646614868565b5b600481111561065957610658614868565b5b8152602001600182015481526020016002820160009054906101000a900460ff1660ff1660ff1681526020016002820160019054906101000a900460ff1660ff1660ff1681526020016002820160029054906101000a900460ff16151515158152505090509392505050565b600560009054906101000a900473ffffffffffffffffffffffffffffffffffffffff1681565b60606000600b67ffffffffffffffff81111561070a57610709615519565b5b60405190808252806020026020018201604052801561073d57816020015b60608152602001906001900390816107285790505b50905060005b600b8110156107d257600b67ffffffffffffffff81111561076757610766615519565b5b6040519080825280602002602001820160405280156107a057816020015b61078d614685565b8152602001906001900390816107855790505b508282815181106107b4576107b36154ea565b5b602002602001018190525080806107ca90615577565b915050610743565b5060005b600b8110156109875760005b600b81101561097357600685815481106107ff576107fe6154ea565b5b9060005260206000209060090201600301600083815260200190815260200160002060008281526020019081526020016000206040518060e00160405290816000820160009054906101000a900460ff1660ff1660ff1681526020016000820160019054906101000a900460ff1660ff1660ff168152602001600182016004806020026040519081016040528092919082600480156108b3576020028201915b81548152602001906001019080831161089f575b505050505081526020016005820160009054906101000a900460ff161515151581526020016005820160019054906101000a900460ff161515151581526020016005820160029054906101000a900460ff161515151581526020016005820160039054906101000a900460ff16151515158152505083838151811061093b5761093a6154ea565b5b60200260200101518281518110610955576109546154ea565b5b6020026020010181905250808061096b90615577565b9150506107e2565b50808061097f90615577565b9150506107d6565b5080915050919050565b6000600160009054906101000a900473ffffffffffffffffffffffffffffffffffffffff1673ffffffffffffffffffffffffffffffffffffffff163373ffffffffffffffffffffffffffffffffffffffff16146109ed57600080fd5b600060068581548110610a0357610a026154ea565b5b9060005260206000209060090201600301600085815260200190815260200160002060008481526020019081526020016000209050600160ff168160000160009054906101000a900460ff1660ff1603610aba57610a8160068681548110610a6e57610a6d6154ea565b5b9060005260206000209060090201612de6565b8160000160006101000a81548160ff021916908360ff1602179055508060000160009054906101000a900460ff1660ff16915050610ac0565b60009150505b9392505050565b6000600160009054906101000a900473ffffffffffffffffffffffffffffffffffffffff1673ffffffffffffffffffffffffffffffffffffffff163373ffffffffffffffffffffffffffffffffffffffff1614610b2357600080fd5b60006006600181600181540180825580915050039060005260206000209060090201905060048160010160006101000a81548160ff021916908360ff160217905550600360009054906101000a900473ffffffffffffffffffffffffffffffffffffffff1673ffffffffffffffffffffffffffffffffffffffff166382753ebe60006040518263ffffffff1660e01b8152600401610bc191906155fa565b60a060405180830381865afa158015610bde573d6000803e3d6000fd5b505050506040513d601f19601f82011682018060405250810190610c02919061577e565b81600001600080815260200190815260200160002060008201518160000160006101000a81548160ff02191690836004811115610c4257610c41614868565b5b02179055506020820151816001015560408201518160020160006101000a81548160ff021916908360ff16021790555060608201518160020160016101000a81548160ff021916908360ff16021790555060808201518160020160026101000a81548160ff021916908315150217905550905050600360009054906101000a900473ffffffffffffffffffffffffffffffffffffffff1673ffffffffffffffffffffffffffffffffffffffff166382753ebe60016040518263ffffffff1660e01b8152600401610d1291906157e6565b60a060405180830381865afa158015610d2f573d6000803e3d6000fd5b505050506040513d601f19601f82011682018060405250810190610d53919061577e565b8160000160006001815260200190815260200160002060008201518160000160006101000a81548160ff02191690836004811115610d9457610d93614868565b5b02179055506020820151816001015560408201518160020160006101000a81548160ff021916908360ff16021790555060608201518160020160016101000a81548160ff021916908360ff16021790555060808201518160020160026101000a81548160ff021916908315150217905550905050600360009054906101000a900473ffffffffffffffffffffffffffffffffffffffff1673ffffffffffffffffffffffffffffffffffffffff166382753ebe60026040518263ffffffff1660e01b8152600401610e64919061583c565b60a060405180830381865afa158015610e81573d6000803e3d6000fd5b505050506040513d601f19601f82011682018060405250810190610ea5919061577e565b8160000160006002815260200190815260200160002060008201518160000160006101000a81548160ff02191690836004811115610ee657610ee5614868565b5b02179055506020820151816001015560408201518160020160006101000a81548160ff021916908360ff16021790555060608201518160020160016101000a81548160ff021916908360ff16021790555060808201518160020160026101000a81548160ff021916908315150217905550905050600360009054906101000a900473ffffffffffffffffffffffffffffffffffffffff1673ffffffffffffffffffffffffffffffffffffffff166382753ebe846040518263ffffffff1660e01b8152600401610fb59190614d01565b60a060405180830381865afa158015610fd2573d6000803e3d6000fd5b505050506040513d601f19601f82011682018060405250810190610ff6919061577e565b8160000160006003815260200190815260200160002060008201518160000160006101000a81548160ff0219169083600481111561103757611036614868565b5b02179055506020820151816001015560408201518160020160006101000a81548160ff021916908360ff16021790555060608201518160020160016101000a81548160ff021916908360ff16021790555060808201518160020160026101000a81548160ff021916908315150217905550905050604051806060016040528060ff8016815260200160ff80168152602001600060048111156110dc576110db614868565b5b8152508160040160008360050160009054906101000a900460ff1660ff16815260200190815260200160002060008201518160000160006101000a81548160ff021916908360ff16021790555060208201518160000160016101000a81548160ff021916908360ff16021790555060408201518160000160026101000a81548160ff0219169083600481111561117557611174614868565b5b021790555090505080600501600081819054906101000a900460ff168092919061119e90615857565b91906101000a81548160ff021916908360ff160217905550506040518060400160405280600a60ff168152602001600660ff168152508160060160008201518160000160006101000a81548160ff021916908360ff16021790555060208201518160000160016101000a81548160ff021916908360ff1602179055509050506040518060600160405280600260009054906101000a900473ffffffffffffffffffffffffffffffffffffffff1673ffffffffffffffffffffffffffffffffffffffff1663ce28613f600060036040518363ffffffff1660e01b81526004016112879291906158b1565b6020604051808303816000875af11580156112a6573d6000803e3d6000fd5b505050506040513d601f19601f820116820180604052508101906112ca91906158da565b60ff168152602001600260009054906101000a900473ffffffffffffffffffffffffffffffffffffffff1673ffffffffffffffffffffffffffffffffffffffff1663ce28613f600060036040518363ffffffff1660e01b81526004016113319291906158b1565b6020604051808303816000875af1158015611350573d6000803e3d6000fd5b505050506040513d601f19601f8201168201806040525081019061137491906158da565b60ff168152602001600360048111156113905761138f614868565b5b8152508160040160008360050160009054906101000a900460ff1660ff16815260200190815260200160002060008201518160000160006101000a81548160ff021916908360ff16021790555060208201518160000160016101000a81548160ff021916908360ff16021790555060408201518160000160026101000a81548160ff0219169083600481111561142957611428614868565b5b021790555090505080600501600081819054906101000a900460ff168092919061145290615857565b91906101000a81548160ff021916908360ff160217905550506002816003016000600a815260200190815260200160002060006006815260200190815260200160002060000160006101000a81548160ff021916908360ff16021790555060018160030160006009815260200190815260200160002060006006815260200190815260200160002060000160006101000a81548160ff021916908360ff16021790555060018160050160009054906101000a900460ff166115139190615907565b60ff16816003016000600a8152602001908152602001600020600060068152602001908152602001600020600101600060048110611554576115536154ea565b5b018190555060018160050160009054906101000a900460ff166115779190615907565b60ff16816003016000600981526020019081526020016000206000600681526020019081526020016000206001016001600481106115b8576115b76154ea565b5b018190555060016006805490506115cf919061593c565b915050919050565b6115df61463c565b600683815481106115f3576115f26154ea565b5b906000526020600020906009020160000160008381526020019081526020016000206040518060a00160405290816000820160009054906101000a900460ff16600481111561164557611644614868565b5b600481111561165757611656614868565b5b8152602001600182015481526020016002820160009054906101000a900460ff1660ff1660ff1681526020016002820160019054906101000a900460ff1660ff1660ff1681526020016002820160029054906101000a900460ff161515151581525050905092915050565b600160009054906101000a900473ffffffffffffffffffffffffffffffffffffffff1673ffffffffffffffffffffffffffffffffffffffff163373ffffffffffffffffffffffffffffffffffffffff161461171c57600080fd5b60005b60068281548110611733576117326154ea565b5b906000526020600020906009020160050160009054906101000a900460ff1660ff1681101561184457600260048111156117705761176f614868565b5b60068381548110611784576117836154ea565b5b9060005260206000209060090201600401600083815260200190815260200160002060000160029054906101000a900460ff1660048111156117c9576117c8614868565b5b03611831576001600683815481106117e4576117e36154ea565b5b9060005260206000209060090201600401600083815260200190815260200160002060000160026101000a81548160ff0219169083600481111561182b5761182a614868565b5b02179055505b808061183c90615577565b91505061171f565b5050565b600160009054906101000a900473ffffffffffffffffffffffffffffffffffffffff1673ffffffffffffffffffffffffffffffffffffffff163373ffffffffffffffffffffffffffffffffffffffff1614806118f15750600460009054906101000a900473ffffffffffffffffffffffffffffffffffffffff1673ffffffffffffffffffffffffffffffffffffffff163373ffffffffffffffffffffffffffffffffffffffff16145b806119495750600560009054906101000a900473ffffffffffffffffffffffffffffffffffffffff1673ffffffffffffffffffffffffffffffffffffffff163373ffffffffffffffffffffffffffffffffffffffff16145b611988576040517f08c379a000000000000000000000000000000000000000000000000000000000815260040161197f906159f3565b60405180910390fd5b60006006878154811061199e5761199d6154ea565b5b906000526020600020906009020160030160008781526020019081526020016000206000868152602001908152602001600020600101600480602002604051908101604052809291908260048015611a0b576020028201915b8154815260200190600101908083116119f7575b50505050509050600060068881548110611a2857611a276154ea565b5b90600052602060002090600902016004016000838760048110611a4e57611a4d6154ea565b5b602002015181526020019081526020016000209050838160000160026101000a81548160ff02191690836004811115611a8a57611a89614868565b5b02179055506000831115611ad357828160000160016101000a81548160ff021916908360ff160217905550828160000160006101000a81548160ff021916908360ff1602179055505b5050505050505050565b600260009054906101000a900473ffffffffffffffffffffffffffffffffffffffff1681565b60008060068381548110611b1a57611b196154ea565b5b90600052602060002090600902016007015460068481548110611b4057611b3f6154ea565b5b90600052602060002090600902016008015491509150915091565b6060600060068381548110611b7357611b726154ea565b5b906000526020600020906009020160050160009054906101000a900460ff1660ff1667ffffffffffffffff811115611bae57611bad615519565b5b604051908082528060200260200182016040528015611be757816020015b611bd46146d6565b815260200190600190039081611bcc5790505b50905060005b8151811015611cdd5760068481548110611c0a57611c096154ea565b5b906000526020600020906009020160040160008281526020019081526020016000206040518060600160405290816000820160009054906101000a900460ff1660ff1660ff1681526020016000820160019054906101000a900460ff1660ff1660ff1681526020016000820160029054906101000a900460ff166004811115611c9657611c95614868565b5b6004811115611ca857611ca7614868565b5b81525050828281518110611cbf57611cbe6154ea565b5b60200260200101819052508080611cd590615577565b915050611bed565b5080915050919050565b611cef6146d6565b600060068681548110611d0557611d046154ea565b5b906000526020600020906009020160030160008681526020019081526020016000206000858152602001908152602001600020600101600480602002604051908101604052809291908260048015611d72576020028201915b815481526020019060010190808311611d5e575b5050505050905060068681548110611d8d57611d8c6154ea565b5b90600052602060002090600902016004016000828560048110611db357611db26154ea565b5b602002015181526020019081526020016000206040518060600160405290816000820160009054906101000a900460ff1660ff1660ff1681526020016000820160019054906101000a900460ff1660ff1660ff1681526020016000820160029054906101000a900460ff166004811115611e3057611e2f614868565b5b6004811115611e4257611e41614868565b5b81525050915050949350505050565b611e59612f74565b611e636000612ff2565b565b60068181548110611e7557600080fd5b90600052602060002090600902016000915090508060010160009054906101000a900460ff16908060050160009054906101000a900460ff1690806006016040518060400160405290816000820160009054906101000a900460ff1660ff1660ff1681526020016000820160019054906101000a900460ff1660ff1660ff1681525050908060070154908060080154905085565b600460009054906101000a900473ffffffffffffffffffffffffffffffffffffffff1681565b600460009054906101000a900473ffffffffffffffffffffffffffffffffffffffff1673ffffffffffffffffffffffffffffffffffffffff163373ffffffffffffffffffffffffffffffffffffffff1614611fbf576040517f08c379a0000000000000000000000000000000000000000000000000000000008152600401611fb690615a5f565b60405180910390fd5b600160068481548110611fd557611fd46154ea565b5b90600052602060002090600902016003016000848152602001908152602001600020600083815260200190815260200160002060050160016101000a81548160ff021916908315150217905550505050565b606060006006838154811061203f5761203e6154ea565b5b906000526020600020906009020160010160009054906101000a900460ff1660ff1667ffffffffffffffff81111561207a57612079615519565b5b6040519080825280602002602001820160405280156120b357816020015b6120a061463c565b8152602001906001900390816120985790505b50905060005b81518110156121ce57600684815481106120d6576120d56154ea565b5b906000526020600020906009020160000160008281526020019081526020016000206040518060a00160405290816000820160009054906101000a900460ff16600481111561212857612127614868565b5b600481111561213a57612139614868565b5b8152602001600182015481526020016002820160009054906101000a900460ff1660ff1660ff1681526020016002820160019054906101000a900460ff1660ff1660ff1681526020016002820160029054906101000a900460ff1615151515815250508282815181106121b0576121af6154ea565b5b602002602001018190525080806121c690615577565b9150506120b9565b5080915050919050565b60008060009054906101000a900473ffffffffffffffffffffffffffffffffffffffff16905090565b612209612f74565b806006858154811061221e5761221d6154ea565b5b90600052602060002090600902016003016000858152602001908152602001600020600084815260200190815260200160002060000160006101000a81548160ff021916908360ff16021790555050505050565b600160009054906101000a900473ffffffffffffffffffffffffffffffffffffffff1681565b600160009054906101000a900473ffffffffffffffffffffffffffffffffffffffff1673ffffffffffffffffffffffffffffffffffffffff163373ffffffffffffffffffffffffffffffffffffffff16146122f257600080fd5b6122fa61470f565b60005b828110156127595760005b600b8110156123d55760005b600b8110156123c15760068681548110612331576123306154ea565b5b90600052602060002090600902016003016000838152602001908152602001600020600082815260200190815260200160002060050160039054906101000a900460ff168483600b8110612388576123876154ea565b5b602002015182600b811061239f5761239e6154ea565b5b60200201901515908115158152505080806123b990615577565b915050612314565b5080806123cd90615577565b915050612308565b5060005b600b8110156127455760005b600b811015612731578382600b8110612401576124006154ea565b5b602002015181600b8110612418576124176154ea565b5b60200201511561271e5760005b600481101561271c57600060068881548110612444576124436154ea565b5b906000526020600020906009020160030160008581526020019081526020016000206000848152602001908152602001600020600101826004811061248c5761248b6154ea565b5b015490506000600689815481106124a6576124a56154ea565b5b9060005260206000209060090201600401600083815260200190815260200160002060000160029054906101000a900460ff169050600360048111156124ef576124ee614868565b5b81600481111561250257612501614868565b5b03612706576000851480156125175750600083145b15612523575050612709565b6001600b612531919061593c565b8514801561253f5750600183145b1561254b575050612709565b60008414801561255b5750600383145b15612567575050612709565b6001600b612575919061593c565b841480156125835750600283145b1561258f575050612709565b6000600260009054906101000a900473ffffffffffffffffffffffffffffffffffffffff1673ffffffffffffffffffffffffffffffffffffffff1663951fc3fe8560405180604001604052808a60ff1681526020018960ff168152506040518363ffffffff1660e01b8152600401612608929190615a7f565b6040805180830381865afa158015612624573d6000803e3d6000fd5b505050506040513d601f19601f820116820180604052508101906126489190615af8565b9050600060068b815481106126605761265f6154ea565b5b90600052602060002090600902016003016000836000015160ff1681526020019081526020016000206000836020015160ff1681526020019081526020016000209050600060ff168160000160009054906101000a900460ff1660ff16141580156126e0575060028160000160009054906101000a900460ff1660ff1614155b156127035760018160050160036101000a81548160ff0219169083151502179055505b50505b50505b808061271490615577565b915050612425565b505b808061272990615577565b9150506123e5565b50808061273d90615577565b9150506123d9565b50808061275190615577565b9150506122fd565b50505050565b612767612f74565b84600160006101000a81548173ffffffffffffffffffffffffffffffffffffffff021916908373ffffffffffffffffffffffffffffffffffffffff16021790555083600260006101000a81548173ffffffffffffffffffffffffffffffffffffffff021916908373ffffffffffffffffffffffffffffffffffffffff16021790555082600360006101000a81548173ffffffffffffffffffffffffffffffffffffffff021916908373ffffffffffffffffffffffffffffffffffffffff16021790555081600460006101000a81548173ffffffffffffffffffffffffffffffffffffffff021916908373ffffffffffffffffffffffffffffffffffffffff16021790555080600560006101000a81548173ffffffffffffffffffffffffffffffffffffffff021916908373ffffffffffffffffffffffffffffffffffffffff1602179055505050505050565b6000600160009054906101000a900473ffffffffffffffffffffffffffffffffffffffff1673ffffffffffffffffffffffffffffffffffffffff163373ffffffffffffffffffffffffffffffffffffffff161461290f57600080fd5b60006006600181600181540180825580915050039060005260206000209060090201905061293f816000016130b6565b8160010160006101000a81548160ff021916908360ff160217905550604051806060016040528060ff8016815260200160ff801681526020016000600481111561298c5761298b614868565b5b8152508160040160008360050160009054906101000a900460ff1660ff16815260200190815260200160002060008201518160000160006101000a81548160ff021916908360ff16021790555060208201518160000160016101000a81548160ff021916908360ff16021790555060408201518160000160026101000a81548160ff02191690836004811115612a2557612a24614868565b5b021790555090505080600501600081819054906101000a900460ff1680929190612a4e90615857565b91906101000a81548160ff021916908360ff160217905550506040518060400160405280600a60ff168152602001600660ff168152508160060160008201518160000160006101000a81548160ff021916908360ff16021790555060208201518160000160016101000a81548160ff021916908360ff160217905550905050612ad6816132c1565b612adf816141a7565b6001600680549050612af1919061593c565b91505090565b612aff612f74565b600073ffffffffffffffffffffffffffffffffffffffff168173ffffffffffffffffffffffffffffffffffffffff1603612b6e576040517f08c379a0000000000000000000000000000000000000000000000000000000008152600401612b6590615b97565b60405180910390fd5b612b7781612ff2565b50565b600360009054906101000a900473ffffffffffffffffffffffffffffffffffffffff1681565b612ba8614685565b60068481548110612bbc57612bbb6154ea565b5b9060005260206000209060090201600301600084815260200190815260200160002060008381526020019081526020016000206040518060e00160405290816000820160009054906101000a900460ff1660ff1660ff1681526020016000820160019054906101000a900460ff1660ff1660ff16815260200160018201600480602002604051908101604052809291908260048015612c70576020028201915b815481526020019060010190808311612c5c575b505050505081526020016005820160009054906101000a900460ff161515151581526020016005820160019054906101000a900460ff161515151581526020016005820160029054906101000a900460ff161515151581526020016005820160039054906101000a900460ff16151515158152505090509392505050565b600560009054906101000a900473ffffffffffffffffffffffffffffffffffffffff1673ffffffffffffffffffffffffffffffffffffffff163373ffffffffffffffffffffffffffffffffffffffff1614612d7e576040517f08c379a0000000000000000000000000000000000000000000000000000000008152600401612d7590615c03565b60405180910390fd5b8060068581548110612d9357612d926154ea565b5b90600052602060002090600902016003016000858152602001908152602001600020600084815260200190815260200160002060050160036101000a81548160ff02191690831515021790555050505050565b600080600260009054906101000a900473ffffffffffffffffffffffffffffffffffffffff1673ffffffffffffffffffffffffffffffffffffffff1663ce28613f60016002612e359190615c23565b60018660010160009054906101000a900460ff16612e539190615907565b6040518363ffffffff1660e01b8152600401612e70929190615c57565b6020604051808303816000875af1158015612e8f573d6000803e3d6000fd5b505050506040513d601f19601f82011682018060405250810190612eb391906158da565b90505b600115158360020160008360ff16815260200190815260200160002060009054906101000a900460ff16151503612f3a5760018360010160009054906101000a900460ff16612f059190615907565b60ff168160ff1603612f265760016002612f1f9190615c80565b9050612f35565b8080612f3190615857565b9150505b612eb6565b60018360020160008360ff16815260200190815260200160002060006101000a81548160ff02191690831515021790555080915050919050565b612f7c614634565b73ffffffffffffffffffffffffffffffffffffffff16612f9a6121d8565b73ffffffffffffffffffffffffffffffffffffffff1614612ff0576040517f08c379a0000000000000000000000000000000000000000000000000000000008152600401612fe790615d01565b60405180910390fd5b565b60008060009054906101000a900473ffffffffffffffffffffffffffffffffffffffff169050816000806101000a81548173ffffffffffffffffffffffffffffffffffffffff021916908373ffffffffffffffffffffffffffffffffffffffff1602179055508173ffffffffffffffffffffffffffffffffffffffff168173ffffffffffffffffffffffffffffffffffffffff167f8be0079c531659141344cd1fd0a4f28419497f9722a3daafe3b4186f6b6457e060405160405180910390a35050565b600080600360009054906101000a900473ffffffffffffffffffffffffffffffffffffffff1673ffffffffffffffffffffffffffffffffffffffff166338fdf0bd6040518163ffffffff1660e01b8152600401602060405180830381865afa158015613126573d6000803e3d6000fd5b505050506040513d601f19601f8201168201806040525081019061314a9190615d21565b905060005b818110156132b757600360009054906101000a900473ffffffffffffffffffffffffffffffffffffffff1673ffffffffffffffffffffffffffffffffffffffff166382753ebe826040518263ffffffff1660e01b81526004016131b29190614d01565b60a060405180830381865afa1580156131cf573d6000803e3d6000fd5b505050506040513d601f19601f820116820180604052508101906131f3919061577e565b84600083815260200190815260200160002060008201518160000160006101000a81548160ff021916908360048111156132305761322f614868565b5b02179055506020820151816001015560408201518160020160006101000a81548160ff021916908360ff16021790555060608201518160020160016101000a81548160ff021916908360ff16021790555060808201518160020160026101000a81548160ff02191690831515021790555090505080806132af90615577565b91505061314f565b5080915050919050565b60008060028360010160009054906101000a900460ff166132e29190615907565b60ff16905060006001905060006132f761470f565b6001818760060160000160009054906101000a900460ff1660ff16600b8110613323576133226154ea565b5b60200201518760060160000160019054906101000a900460ff1660ff16600b8110613351576133506154ea565b5b60200201901515908115158152505061336861473d565b866006016040518060400160405290816000820160009054906101000a900460ff1660ff1660ff1681526020016000820160019054906101000a900460ff1660ff1660ff16815250508187601e81106133c4576133c36154ea565b5b602002018190525085806133d790615577565b9650505b6000851180156133eb5750600086115b1561407b57600081600188613400919061593c565b601e8110613411576134106154ea565b5b60200201519050868061342390615d4e565b9750508187601e8110613439576134386154ea565b5b6020020161344561476b565b815250858061345390615d4e565b965050848061346190615d4e565b9550506001886003016000836000015160ff1681526020019081526020016000206000836020015160ff16815260200190815260200160002060000160006101000a81548160ff021916908360ff1602179055506021600260009054906101000a900473ffffffffffffffffffffffffffffffffffffffff1673ffffffffffffffffffffffffffffffffffffffff1663ce28613f600060636040518363ffffffff1660e01b8152600401613516929190615db2565b6020604051808303816000875af1158015613535573d6000803e3d6000fd5b505050506040513d601f19601f8201168201806040525081019061355991906158da565b60ff1610156135b3576001886003016000836000015160ff1681526020019081526020016000206000836020015160ff16815260200190815260200160002060050160026101000a81548160ff0219169083151502179055505b60006040518060800160405280600081526020016001815260200160028152602001600381525090506000600160046135ec919061593c565b90505b600081111561371f576000600260009054906101000a900473ffffffffffffffffffffffffffffffffffffffff1673ffffffffffffffffffffffffffffffffffffffff1663ce28613f6000846040518363ffffffff1660e01b81526004016136589291906158b1565b6020604051808303816000875af1158015613677573d6000803e3d6000fd5b505050506040513d601f19601f8201168201806040525081019061369b91906158da565b9050828160ff16600481106136b3576136b26154ea565b5b60200201518383600481106136cb576136ca6154ea565b5b60200201518484600481106136e3576136e26154ea565b5b60200201858460ff16600481106136fd576136fc6154ea565b5b602002018281525082815250505050808061371790615d4e565b9150506135ef565b5060005b6004811015614073576000836000015160000b90506000846020015160000b90506000848460048110613759576137586154ea565b5b60200201510361377657818061376e90615de5565b92505061380b565b600184846004811061378b5761378a6154ea565b5b6020020151036137a85781806137a090615e2d565b92505061380a565b60028484600481106137bd576137bc6154ea565b5b6020020151036137da5780806137d290615e2d565b915050613809565b60038484600481106137ef576137ee6154ea565b5b60200201510361380857808061380490615de5565b9150505b5b5b5b600182128061381a5750600181125b8061383157506002600b61382e919061593c565b82135b8061384857506002600b613845919061593c565b81135b15613854575050614060565b600060405180604001604052808460ff1681526020018360ff1681525090506000151588826000015160ff16600b8110613891576138906154ea565b5b6020020151826020015160ff16600b81106138af576138ae6154ea565b5b6020020151151514806139a9575060008d6003016000886000015160ff1681526020019081526020016000206000886020015160ff168152602001908152602001600020600101600260009054906101000a900473ffffffffffffffffffffffffffffffffffffffff1673ffffffffffffffffffffffffffffffffffffffff1663fa3993c289856040518363ffffffff1660e01b8152600401613953929190615e75565b602060405180830381865afa158015613970573d6000803e3d6000fd5b505050506040513d601f19601f820116820180604052508101906139949190615d21565b600481106139a5576139a46154ea565b5b0154145b1561405c5760008a1480613a6c57508860426139c5919061593c565b600260009054906101000a900473ffffffffffffffffffffffffffffffffffffffff1673ffffffffffffffffffffffffffffffffffffffff1663ce28613f600060636040518363ffffffff1660e01b8152600401613a24929190615db2565b6020604051808303816000875af1158015613a43573d6000803e3d6000fd5b505050506040513d601f19601f82011682018060405250810190613a6791906158da565b60ff16105b15614056576040518060600160405280600260009054906101000a900473ffffffffffffffffffffffffffffffffffffffff1673ffffffffffffffffffffffffffffffffffffffff1663ce28613f600060036040518363ffffffff1660e01b8152600401613adb9291906158b1565b6020604051808303816000875af1158015613afa573d6000803e3d6000fd5b505050506040513d601f19601f82011682018060405250810190613b1e91906158da565b60ff168152602001600260009054906101000a900473ffffffffffffffffffffffffffffffffffffffff1673ffffffffffffffffffffffffffffffffffffffff1663ce28613f600060036040518363ffffffff1660e01b8152600401613b859291906158b1565b6020604051808303816000875af1158015613ba4573d6000803e3d6000fd5b505050506040513d601f19601f82011682018060405250810190613bc891906158da565b60ff16815260200160016004811115613be457613be3614868565b5b8152508d60040160008f60050160009054906101000a900460ff1660ff16815260200190815260200160002060008201518160000160006101000a81548160ff021916908360ff16021790555060208201518160000160016101000a81548160ff021916908360ff16021790555060408201518160000160026101000a81548160ff02191690836004811115613c7d57613c7c614868565b5b021790555090505060008d60040160008f60050160009054906101000a900460ff1660ff16815260200190815260200160002060000160009054906101000a900460ff1660ff1603613d1f5760038d60040160008f60050160009054906101000a900460ff1660ff16815260200190815260200160002060000160026101000a81548160ff02191690836004811115613d1957613d18614868565b5b02179055505b8c600501600081819054906101000a900460ff1680929190613d4090615857565b91906101000a81548160ff021916908360ff16021790555050601689613d669190615c23565b98506042891115613d7657604298505b6000151588826000015160ff16600b8110613d9457613d936154ea565b5b6020020151826020015160ff16600b8110613db257613db16154ea565b5b6020020151151503613e405780878d601e8110613dd257613dd16154ea565b5b60200201819052508b80613de590615577565b9c50508980613df390615577565b9a5050600188826000015160ff16600b8110613e1257613e116154ea565b5b6020020151826020015160ff16600b8110613e3057613e2f6154ea565b5b6020020190151590811515815250505b60008d6003016000886000015160ff1681526020019081526020016000206000886020015160ff168152602001908152602001600020600101868660048110613e8c57613e8b6154ea565b5b602002015160048110613ea257613ea16154ea565b5b0154036140515760018d60050160009054906101000a900460ff16613ec79190615907565b60ff168d6003016000886000015160ff1681526020019081526020016000206000886020015160ff168152602001908152602001600020600101868660048110613f1457613f136154ea565b5b602002015160048110613f2a57613f296154ea565b5b018190555060018d60050160009054906101000a900460ff16613f4d9190615907565b60ff168d6003016000836000015160ff1681526020019081526020016000206000836020015160ff168152602001908152602001600020600101600260009054906101000a900473ffffffffffffffffffffffffffffffffffffffff1673ffffffffffffffffffffffffffffffffffffffff16638214f222888860048110613fd857613fd76154ea565b5b60200201516040518263ffffffff1660e01b8152600401613ff99190614d01565b602060405180830381865afa158015614016573d6000803e3d6000fd5b505050506040513d601f19601f8201168201806040525081019061403a9190615d21565b6004811061404b5761404a6154ea565b5b01819055505b61405b565b600098505b5b5050505b808061406b90615577565b915050613723565b5050506133db565b60028760030160008960060160000160009054906101000a900460ff1660ff16815260200190815260200160002060008960060160000160019054906101000a900460ff1660ff16815260200190815260200160002060000160006101000a81548160ff021916908360ff16021790555060008760030160008960060160000160009054906101000a900460ff1660ff16815260200190815260200160002060008960060160000160019054906101000a900460ff1660ff16815260200190815260200160002060050160026101000a81548160ff02191690831515021790555060038760040160006001815260200190815260200160002060000160026101000a81548160ff0219169083600481111561419957614198614868565b5b021790555050505050505050565b6000805b600b81101561462f5760005b600b81101561461b57600160ff16846003016000848152602001908152602001600020600083815260200190815260200160002060000160009054906101000a900460ff1660ff160361460857828061420f90615577565b93505060058303614270576064846003016000848152602001908152602001600020600083815260200190815260200160002060000160006101000a81548160ff021916908360ff1602179055508184600701819055508084600801819055505b60005b6004811015614606576000856003016000858152602001908152602001600020600084815260200190815260200160002060010182600481106142b9576142b86154ea565b5b0154036145f3576000600260009054906101000a900473ffffffffffffffffffffffffffffffffffffffff1673ffffffffffffffffffffffffffffffffffffffff1663951fc3fe8360405180604001604052808860ff1681526020018760ff168152506040518363ffffffff1660e01b8152600401614339929190615a7f565b6040805180830381865afa158015614355573d6000803e3d6000fd5b505050506040513d601f19601f820116820180604052508101906143799190615af8565b90506000866003016000836000015160ff1681526020019081526020016000206000836020015160ff16815260200190815260200160002060000160009054906101000a900460ff1660ff1690506042600260009054906101000a900473ffffffffffffffffffffffffffffffffffffffff1673ffffffffffffffffffffffffffffffffffffffff1663ce28613f600060636040518363ffffffff1660e01b8152600401614428929190615db2565b6020604051808303816000875af1158015614447573d6000803e3d6000fd5b505050506040513d601f19601f8201168201806040525081019061446b91906158da565b60ff1610801561447e5750600060ff1681145b156145f057604051806060016040528060ff8016815260200160ff801681526020016004808111156144b3576144b2614868565b5b8152508760040160008960050160009054906101000a900460ff1660ff16815260200190815260200160002060008201518160000160006101000a81548160ff021916908360ff16021790555060208201518160000160016101000a81548160ff021916908360ff16021790555060408201518160000160026101000a81548160ff0219169083600481111561454c5761454b614868565b5b021790555090505086600501600081819054906101000a900460ff168092919061457590615857565b91906101000a81548160ff021916908360ff1602179055505060018760050160009054906101000a900460ff166145ac9190615907565b60ff16876003016000878152602001908152602001600020600086815260200190815260200160002060010184600481106145ea576145e96154ea565b5b01819055505b50505b80806145fe90615577565b915050614273565b505b808061461390615577565b9150506141b7565b50808061462790615577565b9150506141ab565b505050565b600033905090565b6040518060a001604052806000600481111561465b5761465a614868565b5b815260200160008152602001600060ff168152602001600060ff1681526020016000151581525090565b6040518060e00160405280600060ff168152602001600060ff1681526020016146ac61478b565b81526020016000151581526020016000151581526020016000151581526020016000151581525090565b6040518060600160405280600060ff168152602001600060ff1681526020016000600481111561470957614708614868565b5b81525090565b604051806101600160405280600b905b6147276147ad565b81526020019060019003908161471f5790505090565b604051806103c00160405280601e905b61475561476b565b81526020019060019003908161474d5790505090565b6040518060400160405280600060ff168152602001600060ff1681525090565b6040518060800160405280600490602082028036833780820191505090505090565b604051806101600160405280600b90602082028036833780820191505090505090565b6000604051905090565b600080fd5b6000819050919050565b6147f2816147df565b81146147fd57600080fd5b50565b60008135905061480f816147e9565b92915050565b60008060006060848603121561482e5761482d6147da565b5b600061483c86828701614800565b935050602061484d86828701614800565b925050604061485e86828701614800565b9150509250925092565b7f4e487b7100000000000000000000000000000000000000000000000000000000600052602160045260246000fd5b600581106148a8576148a7614868565b5b50565b60008190506148b982614897565b919050565b60006148c9826148ab565b9050919050565b6148d9816148be565b82525050565b6148e8816147df565b82525050565b600060ff82169050919050565b614904816148ee565b82525050565b60008115159050919050565b61491f8161490a565b82525050565b60a08201600082015161493b60008501826148d0565b50602082015161494e60208501826148df565b50604082015161496160408501826148fb565b50606082015161497460608501826148fb565b5060808201516149876080850182614916565b50505050565b600060a0820190506149a26000830184614925565b92915050565b600073ffffffffffffffffffffffffffffffffffffffff82169050919050565b60006149d3826149a8565b9050919050565b6149e3816149c8565b82525050565b60006020820190506149fe60008301846149da565b92915050565b600060208284031215614a1a57614a196147da565b5b6000614a2884828501614800565b91505092915050565b600081519050919050565b600082825260208201905092915050565b6000819050602082019050919050565b600081519050919050565b600082825260208201905092915050565b6000819050602082019050919050565b600060049050919050565b600081905092915050565b6000819050919050565b6000614ab583836148df565b60208301905092915050565b6000602082019050919050565b614ad781614a89565b614ae18184614a94565b9250614aec82614a9f565b8060005b83811015614b1d578151614b048782614aa9565b9650614b0f83614ac1565b925050600181019050614af0565b505050505050565b61014082016000820151614b3c60008501826148fb565b506020820151614b4f60208501826148fb565b506040820151614b626040850182614ace565b506060820151614b7560c0850182614916565b506080820151614b8860e0850182614916565b5060a0820151614b9c610100850182614916565b5060c0820151614bb0610120850182614916565b50505050565b6000614bc28383614b25565b6101408301905092915050565b6000602082019050919050565b6000614be782614a5d565b614bf18185614a68565b9350614bfc83614a79565b8060005b83811015614c2d578151614c148882614bb6565b9750614c1f83614bcf565b925050600181019050614c00565b5085935050505092915050565b6000614c468383614bdc565b905092915050565b6000602082019050919050565b6000614c6682614a31565b614c708185614a3c565b935083602082028501614c8285614a4d565b8060005b85811015614cbe5784840389528151614c9f8582614c3a565b9450614caa83614c4e565b925060208a01995050600181019050614c86565b50829750879550505050505092915050565b60006020820190508181036000830152614cea8184614c5b565b905092915050565b614cfb816147df565b82525050565b6000602082019050614d166000830184614cf2565b92915050565b60008060408385031215614d3357614d326147da565b5b6000614d4185828601614800565b9250506020614d5285828601614800565b9150509250929050565b60058110614d6957600080fd5b50565b600081359050614d7b81614d5c565b92915050565b60008060008060008060c08789031215614d9e57614d9d6147da565b5b6000614dac89828a01614800565b9650506020614dbd89828a01614800565b9550506040614dce89828a01614800565b9450506060614ddf89828a01614800565b9350506080614df089828a01614d6c565b92505060a0614e0189828a01614800565b9150509295509295509295565b6000819050919050565b6000614e33614e2e614e29846149a8565b614e0e565b6149a8565b9050919050565b6000614e4582614e18565b9050919050565b6000614e5782614e3a565b9050919050565b614e6781614e4c565b82525050565b6000602082019050614e826000830184614e5e565b92915050565b6000604082019050614e9d6000830185614cf2565b614eaa6020830184614cf2565b9392505050565b600081519050919050565b600082825260208201905092915050565b6000819050602082019050919050565b60058110614eee57614eed614868565b5b50565b6000819050614eff82614edd565b919050565b6000614f0f82614ef1565b9050919050565b614f1f81614f04565b82525050565b606082016000820151614f3b60008501826148fb565b506020820151614f4e60208501826148fb565b506040820151614f616040850182614f16565b50505050565b6000614f738383614f25565b60608301905092915050565b6000602082019050919050565b6000614f9782614eb1565b614fa18185614ebc565b9350614fac83614ecd565b8060005b83811015614fdd578151614fc48882614f67565b9750614fcf83614f7f565b925050600181019050614fb0565b5085935050505092915050565b600060208201905081810360008301526150048184614f8c565b905092915050565b60008060008060808587031215615026576150256147da565b5b600061503487828801614800565b945050602061504587828801614800565b935050604061505687828801614800565b925050606061506787828801614800565b91505092959194509250565b60608201600082015161508960008501826148fb565b50602082015161509c60208501826148fb565b5060408201516150af6040850182614f16565b50505050565b60006060820190506150ca6000830184615073565b92915050565b6150d9816148ee565b82525050565b6040820160008201516150f560008501826148fb565b50602082015161510860208501826148fb565b50505050565b600060c08201905061512360008301886150d0565b61513060208301876150d0565b61513d60408301866150df565b61514a6080830185614cf2565b61515760a0830184614cf2565b9695505050505050565b600081519050919050565b600082825260208201905092915050565b6000819050602082019050919050565b60a0820160008201516151a360008501826148d0565b5060208201516151b660208501826148df565b5060408201516151c960408501826148fb565b5060608201516151dc60608501826148fb565b5060808201516151ef6080850182614916565b50505050565b6000615201838361518d565b60a08301905092915050565b6000602082019050919050565b600061522582615161565b61522f818561516c565b935061523a8361517d565b8060005b8381101561526b57815161525288826151f5565b975061525d8361520d565b92505060018101905061523e565b5085935050505092915050565b60006020820190508181036000830152615292818461521a565b905092915050565b6152a3816149c8565b81146152ae57600080fd5b50565b6000813590506152c08161529a565b92915050565b600080600080600060a086880312156152e2576152e16147da565b5b60006152f0888289016152b1565b9550506020615301888289016152b1565b9450506040615312888289016152b1565b9350506060615323888289016152b1565b9250506080615334888289016152b1565b9150509295509295909350565b600060208284031215615357576153566147da565b5b6000615365848285016152b1565b91505092915050565b600061537982614e3a565b9050919050565b6153898161536e565b82525050565b60006020820190506153a46000830184615380565b92915050565b610140820160008201516153c160008501826148fb565b5060208201516153d460208501826148fb565b5060408201516153e76040850182614ace565b5060608201516153fa60c0850182614916565b50608082015161540d60e0850182614916565b5060a0820151615421610100850182614916565b5060c0820151615435610120850182614916565b50505050565b60006101408201905061545160008301846153aa565b92915050565b6154608161490a565b811461546b57600080fd5b50565b60008135905061547d81615457565b92915050565b6000806000806080858703121561549d5761549c6147da565b5b60006154ab87828801614800565b94505060206154bc87828801614800565b93505060406154cd87828801614800565b92505060606154de8782880161546e565b91505092959194509250565b7f4e487b7100000000000000000000000000000000000000000000000000000000600052603260045260246000fd5b7f4e487b7100000000000000000000000000000000000000000000000000000000600052604160045260246000fd5b7f4e487b7100000000000000000000000000000000000000000000000000000000600052601160045260246000fd5b6000615582826147df565b91507fffffffffffffffffffffffffffffffffffffffffffffffffffffffffffffffff82036155b4576155b3615548565b5b600182019050919050565b6000819050919050565b60006155e46155df6155da846155bf565b614e0e565b6147df565b9050919050565b6155f4816155c9565b82525050565b600060208201905061560f60008301846155eb565b92915050565b600080fd5b6000601f19601f8301169050919050565b6156348261561a565b810181811067ffffffffffffffff8211171561565357615652615519565b5b80604052505050565b60006156666147d0565b9050615672828261562b565b919050565b6005811061568457600080fd5b50565b60008151905061569681615677565b92915050565b6000815190506156ab816147e9565b92915050565b6156ba816148ee565b81146156c557600080fd5b50565b6000815190506156d7816156b1565b92915050565b6000815190506156ec81615457565b92915050565b600060a0828403121561570857615707615615565b5b61571260a061565c565b9050600061572284828501615687565b60008301525060206157368482850161569c565b602083015250604061574a848285016156c8565b604083015250606061575e848285016156c8565b6060830152506080615772848285016156dd565b60808301525092915050565b600060a08284031215615794576157936147da565b5b60006157a2848285016156f2565b91505092915050565b6000819050919050565b60006157d06157cb6157c6846157ab565b614e0e565b6147df565b9050919050565b6157e0816157b5565b82525050565b60006020820190506157fb60008301846157d7565b92915050565b6000819050919050565b600061582661582161581c84615801565b614e0e565b6147df565b9050919050565b6158368161580b565b82525050565b6000602082019050615851600083018461582d565b92915050565b6000615862826148ee565b915060ff820361587557615874615548565b5b600182019050919050565b600061589b615896615891846155bf565b614e0e565b6148ee565b9050919050565b6158ab81615880565b82525050565b60006040820190506158c660008301856158a2565b6158d360208301846150d0565b9392505050565b6000602082840312156158f0576158ef6147da565b5b60006158fe848285016156c8565b91505092915050565b6000615912826148ee565b915061591d836148ee565b9250828203905060ff81111561593657615935615548565b5b92915050565b6000615947826147df565b9150615952836147df565b925082820390508181111561596a57615969615548565b5b92915050565b600082825260208201905092915050565b7f4e6f742067616d652f616374696f6e732f706c617965727320636f6e7472616360008201527f7400000000000000000000000000000000000000000000000000000000000000602082015250565b60006159dd602183615970565b91506159e882615981565b604082019050919050565b60006020820190508181036000830152615a0c816159d0565b9050919050565b7f4e6f7420616374696f6e7320636f6e7472616374000000000000000000000000600082015250565b6000615a49601483615970565b9150615a5482615a13565b602082019050919050565b60006020820190508181036000830152615a7881615a3c565b9050919050565b6000606082019050615a946000830185614cf2565b615aa160208301846150df565b9392505050565b600060408284031215615abe57615abd615615565b5b615ac8604061565c565b90506000615ad8848285016156c8565b6000830152506020615aec848285016156c8565b60208301525092915050565b600060408284031215615b0e57615b0d6147da565b5b6000615b1c84828501615aa8565b91505092915050565b7f4f776e61626c653a206e6577206f776e657220697320746865207a65726f206160008201527f6464726573730000000000000000000000000000000000000000000000000000602082015250565b6000615b81602683615970565b9150615b8c82615b25565b604082019050919050565b60006020820190508181036000830152615bb081615b74565b9050919050565b7f4e6f7420706c6179657220636f6e747261637400000000000000000000000000600082015250565b6000615bed601383615970565b9150615bf882615bb7565b602082019050919050565b60006020820190508181036000830152615c1c81615be0565b9050919050565b6000615c2e826147df565b9150615c39836147df565b9250828201905080821115615c5157615c50615548565b5b92915050565b6000604082019050615c6c60008301856150d0565b615c7960208301846150d0565b9392505050565b6000615c8b826148ee565b9150615c96836148ee565b9250828201905060ff811115615caf57615cae615548565b5b92915050565b7f4f776e61626c653a2063616c6c6572206973206e6f7420746865206f776e6572600082015250565b6000615ceb602083615970565b9150615cf682615cb5565b602082019050919050565b60006020820190508181036000830152615d1a81615cde565b9050919050565b600060208284031215615d3757615d366147da565b5b6000615d458482850161569c565b91505092915050565b6000615d59826147df565b915060008203615d6c57615d6b615548565b5b600182039050919050565b6000819050919050565b6000615d9c615d97615d9284615d77565b614e0e565b6148ee565b9050919050565b615dac81615d81565b82525050565b6000604082019050615dc760008301856158a2565b615dd46020830184615da3565b9392505050565b6000819050919050565b6000615df082615ddb565b91507f80000000000000000000000000000000000000000000000000000000000000008203615e2257615e21615548565b5b600182039050919050565b6000615e3882615ddb565b91507f7fffffffffffffffffffffffffffffffffffffffffffffffffffffffffffffff8203615e6a57615e69615548565b5b600182019050919050565b6000608082019050615e8a60008301856150df565b615e9760408301846150df565b939250505056fea26469706673582212200fd841330c79dfd94291ae64303157a8094229f2693abbd19c2beb79c19e5eed64736f6c63430008110033",
  "devdoc": {
    "kind": "dev",
    "methods": {
      "owner()": {
        "details": "Returns the address of the current owner."
      },
      "renounceOwnership()": {
        "details": "Leaves the contract without owner. It will not be possible to call `onlyOwner` functions anymore. Can only be called by the current owner. NOTE: Renouncing ownership will leave the contract without an owner, thereby removing any functionality that is only available to the owner."
      },
      "transferOwnership(address)": {
        "details": "Transfers ownership of the contract to a new account (`newOwner`). Can only be called by the current owner."
      }
    },
    "version": 1
  },
  "userdoc": {
    "kind": "user",
    "methods": {},
    "version": 1
  },
  "storageLayout": {
    "storage": [
      {
        "astId": 7,
        "contract": "contracts/BCMaps.sol:Maps",
        "label": "_owner",
        "offset": 0,
        "slot": "0",
        "type": "t_address"
      },
      {
        "astId": 7066,
        "contract": "contracts/BCMaps.sol:Maps",
        "label": "game",
        "offset": 0,
        "slot": "1",
        "type": "t_address"
      },
      {
        "astId": 7069,
        "contract": "contracts/BCMaps.sol:Maps",
        "label": "utils",
        "offset": 0,
        "slot": "2",
        "type": "t_contract(UtilsInterface)7062"
      },
      {
        "astId": 7072,
        "contract": "contracts/BCMaps.sol:Maps",
        "label": "roomTiles",
        "offset": 0,
        "slot": "3",
        "type": "t_contract(RoomTileInterface)7023"
      },
      {
        "astId": 7074,
        "contract": "contracts/BCMaps.sol:Maps",
        "label": "actionsAddress",
        "offset": 0,
        "slot": "4",
        "type": "t_address"
      },
      {
        "astId": 7076,
        "contract": "contracts/BCMaps.sol:Maps",
        "label": "playersAddress",
        "offset": 0,
        "slot": "5",
        "type": "t_address"
      },
      {
        "astId": 7120,
        "contract": "contracts/BCMaps.sol:Maps",
        "label": "maps",
        "offset": 0,
        "slot": "6",
        "type": "t_array(t_struct(Map)10708_storage)dyn_storage"
      }
    ],
    "types": {
      "t_address": {
        "encoding": "inplace",
        "label": "address",
        "numberOfBytes": "20"
      },
      "t_array(t_struct(Map)10708_storage)dyn_storage": {
        "base": "t_struct(Map)10708_storage",
        "encoding": "dynamic_array",
        "label": "struct BCTypes.Map[]",
        "numberOfBytes": "32"
      },
      "t_array(t_uint256)4_storage": {
        "base": "t_uint256",
        "encoding": "inplace",
        "label": "uint256[4]",
        "numberOfBytes": "128"
      },
      "t_bool": {
        "encoding": "inplace",
        "label": "bool",
        "numberOfBytes": "1"
      },
      "t_contract(RoomTileInterface)7023": {
        "encoding": "inplace",
        "label": "contract RoomTileInterface",
        "numberOfBytes": "20"
      },
      "t_contract(UtilsInterface)7062": {
        "encoding": "inplace",
        "label": "contract UtilsInterface",
        "numberOfBytes": "20"
      },
      "t_enum(BCEventType)10596": {
        "encoding": "inplace",
        "label": "enum BCTypes.BCEventType",
        "numberOfBytes": "1"
      },
      "t_enum(DoorStatus)10579": {
        "encoding": "inplace",
        "label": "enum BCTypes.DoorStatus",
        "numberOfBytes": "1"
      },
      "t_mapping(t_uint256,t_bool)": {
        "encoding": "mapping",
        "key": "t_uint256",
        "label": "mapping(uint256 => bool)",
        "numberOfBytes": "32",
        "value": "t_bool"
      },
      "t_mapping(t_uint256,t_mapping(t_uint256,t_struct(GameTile)10667_storage))": {
        "encoding": "mapping",
        "key": "t_uint256",
        "label": "mapping(uint256 => mapping(uint256 => struct BCTypes.GameTile))",
        "numberOfBytes": "32",
        "value": "t_mapping(t_uint256,t_struct(GameTile)10667_storage)"
      },
      "t_mapping(t_uint256,t_struct(Door)10675_storage)": {
        "encoding": "mapping",
        "key": "t_uint256",
        "label": "mapping(uint256 => struct BCTypes.Door)",
        "numberOfBytes": "32",
        "value": "t_struct(Door)10675_storage"
      },
      "t_mapping(t_uint256,t_struct(GameTile)10667_storage)": {
        "encoding": "mapping",
        "key": "t_uint256",
        "label": "mapping(uint256 => struct BCTypes.GameTile)",
        "numberOfBytes": "32",
        "value": "t_struct(GameTile)10667_storage"
      },
      "t_mapping(t_uint256,t_struct(RoomTile)10756_storage)": {
        "encoding": "mapping",
        "key": "t_uint256",
        "label": "mapping(uint256 => struct BCTypes.RoomTile)",
        "numberOfBytes": "32",
        "value": "t_struct(RoomTile)10756_storage"
      },
      "t_struct(Door)10675_storage": {
        "encoding": "inplace",
        "label": "struct BCTypes.Door",
        "members": [
          {
            "astId": 10669,
            "contract": "contracts/BCMaps.sol:Maps",
            "label": "vsBreach",
            "offset": 0,
            "slot": "0",
            "type": "t_uint8"
          },
          {
            "astId": 10671,
            "contract": "contracts/BCMaps.sol:Maps",
            "label": "vsHack",
            "offset": 1,
            "slot": "0",
            "type": "t_uint8"
          },
          {
            "astId": 10674,
            "contract": "contracts/BCMaps.sol:Maps",
            "label": "status",
            "offset": 2,
            "slot": "0",
            "type": "t_enum(DoorStatus)10579"
          }
        ],
        "numberOfBytes": "32"
      },
      "t_struct(GameTile)10667_storage": {
        "encoding": "inplace",
        "label": "struct BCTypes.GameTile",
        "members": [
          {
            "astId": 10652,
            "contract": "contracts/BCMaps.sol:Maps",
            "label": "roomId",
            "offset": 0,
            "slot": "0",
            "type": "t_uint8"
          },
          {
            "astId": 10654,
            "contract": "contracts/BCMaps.sol:Maps",
            "label": "parentId",
            "offset": 1,
            "slot": "0",
            "type": "t_uint8"
          },
          {
            "astId": 10658,
            "contract": "contracts/BCMaps.sol:Maps",
            "label": "doors",
            "offset": 0,
            "slot": "1",
            "type": "t_array(t_uint256)4_storage"
          },
          {
            "astId": 10660,
            "contract": "contracts/BCMaps.sol:Maps",
            "label": "explored",
            "offset": 0,
            "slot": "5",
            "type": "t_bool"
          },
          {
            "astId": 10662,
            "contract": "contracts/BCMaps.sol:Maps",
            "label": "looted",
            "offset": 1,
            "slot": "5",
            "type": "t_bool"
          },
          {
            "astId": 10664,
            "contract": "contracts/BCMaps.sol:Maps",
            "label": "hasVent",
            "offset": 2,
            "slot": "5",
            "type": "t_bool"
          },
          {
            "astId": 10666,
            "contract": "contracts/BCMaps.sol:Maps",
            "label": "hasHazard",
            "offset": 3,
            "slot": "5",
            "type": "t_bool"
          }
        ],
        "numberOfBytes": "192"
      },
      "t_struct(Map)10708_storage": {
        "encoding": "inplace",
        "label": "struct BCTypes.Map",
        "members": [
          {
            "astId": 10680,
            "contract": "contracts/BCMaps.sol:Maps",
            "label": "roomList",
            "offset": 0,
            "slot": "0",
            "type": "t_mapping(t_uint256,t_struct(RoomTile)10756_storage)"
          },
          {
            "astId": 10682,
            "contract": "contracts/BCMaps.sol:Maps",
            "label": "numRooms",
            "offset": 0,
            "slot": "1",
            "type": "t_uint8"
          },
          {
            "astId": 10686,
            "contract": "contracts/BCMaps.sol:Maps",
            "label": "usedRooms",
            "offset": 0,
            "slot": "2",
            "type": "t_mapping(t_uint256,t_bool)"
          },
          {
            "astId": 10693,
            "contract": "contracts/BCMaps.sol:Maps",
            "label": "board",
            "offset": 0,
            "slot": "3",
            "type": "t_mapping(t_uint256,t_mapping(t_uint256,t_struct(GameTile)10667_storage))"
          },
          {
            "astId": 10698,
            "contract": "contracts/BCMaps.sol:Maps",
            "label": "doors",
            "offset": 0,
            "slot": "4",
            "type": "t_mapping(t_uint256,t_struct(Door)10675_storage)"
          },
          {
            "astId": 10700,
            "contract": "contracts/BCMaps.sol:Maps",
            "label": "numDoors",
            "offset": 0,
            "slot": "5",
            "type": "t_uint8"
          },
          {
            "astId": 10703,
            "contract": "contracts/BCMaps.sol:Maps",
            "label": "startPosition",
            "offset": 0,
            "slot": "6",
            "type": "t_struct(Position)10650_storage"
          },
          {
            "astId": 10705,
            "contract": "contracts/BCMaps.sol:Maps",
            "label": "mainReactorRow",
            "offset": 0,
            "slot": "7",
            "type": "t_uint256"
          },
          {
            "astId": 10707,
            "contract": "contracts/BCMaps.sol:Maps",
            "label": "mainReactorCol",
            "offset": 0,
            "slot": "8",
            "type": "t_uint256"
          }
        ],
        "numberOfBytes": "288"
      },
      "t_struct(Position)10650_storage": {
        "encoding": "inplace",
        "label": "struct BCTypes.Position",
        "members": [
          {
            "astId": 10647,
            "contract": "contracts/BCMaps.sol:Maps",
            "label": "row",
            "offset": 0,
            "slot": "0",
            "type": "t_uint8"
          },
          {
            "astId": 10649,
            "contract": "contracts/BCMaps.sol:Maps",
            "label": "col",
            "offset": 1,
            "slot": "0",
            "type": "t_uint8"
          }
        ],
        "numberOfBytes": "32"
      },
      "t_struct(RoomTile)10756_storage": {
        "encoding": "inplace",
        "label": "struct BCTypes.RoomTile",
        "members": [
          {
            "astId": 10747,
            "contract": "contracts/BCMaps.sol:Maps",
            "label": "eventType",
            "offset": 0,
            "slot": "0",
            "type": "t_enum(BCEventType)10596"
          },
          {
            "astId": 10749,
            "contract": "contracts/BCMaps.sol:Maps",
            "label": "eventNum",
            "offset": 0,
            "slot": "1",
            "type": "t_uint256"
          },
          {
            "astId": 10751,
            "contract": "contracts/BCMaps.sol:Maps",
            "label": "numItems",
            "offset": 0,
            "slot": "2",
            "type": "t_uint8"
          },
          {
            "astId": 10753,
            "contract": "contracts/BCMaps.sol:Maps",
            "label": "numData",
            "offset": 1,
            "slot": "2",
            "type": "t_uint8"
          },
          {
            "astId": 10755,
            "contract": "contracts/BCMaps.sol:Maps",
            "label": "sigDetected",
            "offset": 2,
            "slot": "2",
            "type": "t_bool"
          }
        ],
        "numberOfBytes": "96"
      },
      "t_uint256": {
        "encoding": "inplace",
        "label": "uint256",
        "numberOfBytes": "32"
      },
      "t_uint8": {
        "encoding": "inplace",
        "label": "uint8",
        "numberOfBytes": "1"
      }
    }
  }
}