{
  "address": "0xD4Bac753d8eD800242976e81448AB8C72e551f6e",
  "abi": [
    {
      "anonymous": false,
      "inputs": [
        {
          "indexed": false,
          "internalType": "uint256",
          "name": "gameId",
          "type": "uint256"
        },
        {
          "indexed": false,
          "internalType": "uint256",
          "name": "roll",
          "type": "uint256"
        },
        {
          "indexed": false,
          "internalType": "uint256",
          "name": "forValue",
          "type": "uint256"
        },
        {
          "indexed": false,
          "internalType": "uint256",
          "name": "against",
          "type": "uint256"
        }
      ],
      "name": "ChallengeEvent",
      "type": "event"
    },
    {
      "anonymous": false,
      "inputs": [
        {
          "indexed": false,
          "internalType": "uint256",
          "name": "gameId",
          "type": "uint256"
        },
        {
          "indexed": false,
          "internalType": "uint256",
          "name": "roll",
          "type": "uint256"
        }
      ],
      "name": "DiceRollEvent",
      "type": "event"
    },
    {
      "anonymous": false,
      "inputs": [
        {
          "indexed": true,
          "internalType": "address",
          "name": "previousOwner",
          "type": "address"
        },
        {
          "indexed": true,
          "internalType": "address",
          "name": "newOwner",
          "type": "address"
        }
      ],
      "name": "OwnershipTransferred",
      "type": "event"
    },
    {
      "inputs": [
        {
          "internalType": "int256",
          "name": "x",
          "type": "int256"
        }
      ],
      "name": "abs",
      "outputs": [
        {
          "internalType": "int256",
          "name": "",
          "type": "int256"
        }
      ],
      "stateMutability": "pure",
      "type": "function"
    },
    {
      "inputs": [],
      "name": "actionsAddress",
      "outputs": [
        {
          "internalType": "address",
          "name": "",
          "type": "address"
        }
      ],
      "stateMutability": "view",
      "type": "function"
    },
    {
      "inputs": [],
      "name": "createMap",
      "outputs": [
        {
          "internalType": "uint256",
          "name": "",
          "type": "uint256"
        }
      ],
      "stateMutability": "nonpayable",
      "type": "function"
    },
    {
      "inputs": [
        {
          "internalType": "uint256",
          "name": "_mapId",
          "type": "uint256"
        },
        {
          "internalType": "uint256",
          "name": "_row",
          "type": "uint256"
        },
        {
          "internalType": "uint256",
          "name": "_col",
          "type": "uint256"
        },
        {
          "internalType": "uint256",
          "name": "_roomId",
          "type": "uint256"
        }
      ],
      "name": "debugForceRoomId",
      "outputs": [],
      "stateMutability": "nonpayable",
      "type": "function"
    },
    {
      "inputs": [
        {
          "internalType": "uint256",
          "name": "_mapId",
          "type": "uint256"
        },
        {
          "internalType": "uint256",
          "name": "_row",
          "type": "uint256"
        },
        {
          "internalType": "uint256",
          "name": "_col",
          "type": "uint256"
        },
        {
          "internalType": "uint256",
          "name": "debugForceId",
          "type": "uint256"
        }
      ],
      "name": "discoverRoom",
      "outputs": [
        {
          "internalType": "uint256",
          "name": "",
          "type": "uint256"
        }
      ],
      "stateMutability": "nonpayable",
      "type": "function"
    },
    {
      "inputs": [
        {
          "internalType": "uint256",
          "name": "_mapId",
          "type": "uint256"
        }
      ],
      "name": "extGetBoard",
      "outputs": [
        {
          "components": [
            {
              "internalType": "uint8",
              "name": "roomId",
              "type": "uint8"
            },
            {
              "internalType": "uint8",
              "name": "parentId",
              "type": "uint8"
            },
            {
              "internalType": "uint256[4]",
              "name": "doors",
              "type": "uint256[4]"
            },
            {
              "internalType": "bool",
              "name": "explored",
              "type": "bool"
            },
            {
              "internalType": "bool",
              "name": "looted",
              "type": "bool"
            },
            {
              "internalType": "bool",
              "name": "hasVent",
              "type": "bool"
            },
            {
              "internalType": "bool",
              "name": "hasHazard",
              "type": "bool"
            }
          ],
          "internalType": "struct BCTypes.GameTile[][]",
          "name": "",
          "type": "tuple[][]"
        }
      ],
      "stateMutability": "view",
      "type": "function"
    },
    {
      "inputs": [
        {
          "internalType": "uint256",
          "name": "_mapId",
          "type": "uint256"
        }
      ],
      "name": "extGetDoors",
      "outputs": [
        {
          "components": [
            {
              "internalType": "uint8",
              "name": "vsBreach",
              "type": "uint8"
            },
            {
              "internalType": "uint8",
              "name": "vsHack",
              "type": "uint8"
            },
            {
              "internalType": "enum BCTypes.DoorStatus",
              "name": "status",
              "type": "uint8"
            }
          ],
          "internalType": "struct BCTypes.Door[]",
          "name": "",
          "type": "tuple[]"
        }
      ],
      "stateMutability": "view",
      "type": "function"
    },
    {
      "inputs": [
        {
          "internalType": "uint256",
          "name": "_mapId",
          "type": "uint256"
        },
        {
          "internalType": "uint256",
          "name": "_row",
          "type": "uint256"
        },
        {
          "internalType": "uint256",
          "name": "_col",
          "type": "uint256"
        }
      ],
      "name": "extGetGameTile",
      "outputs": [
        {
          "components": [
            {
              "internalType": "uint8",
              "name": "roomId",
              "type": "uint8"
            },
            {
              "internalType": "uint8",
              "name": "parentId",
              "type": "uint8"
            },
            {
              "internalType": "uint256[4]",
              "name": "doors",
              "type": "uint256[4]"
            },
            {
              "internalType": "bool",
              "name": "explored",
              "type": "bool"
            },
            {
              "internalType": "bool",
              "name": "looted",
              "type": "bool"
            },
            {
              "internalType": "bool",
              "name": "hasVent",
              "type": "bool"
            },
            {
              "internalType": "bool",
              "name": "hasHazard",
              "type": "bool"
            }
          ],
          "internalType": "struct BCTypes.GameTile",
          "name": "",
          "type": "tuple"
        }
      ],
      "stateMutability": "view",
      "type": "function"
    },
    {
      "inputs": [
        {
          "internalType": "uint256",
          "name": "_mapId",
          "type": "uint256"
        }
      ],
      "name": "extGetMainReactorCoords",
      "outputs": [
        {
          "internalType": "uint256",
          "name": "",
          "type": "uint256"
        },
        {
          "internalType": "uint256",
          "name": "",
          "type": "uint256"
        }
      ],
      "stateMutability": "view",
      "type": "function"
    },
    {
      "inputs": [
        {
          "internalType": "uint256",
          "name": "_mapId",
          "type": "uint256"
        },
        {
          "internalType": "uint256",
          "name": "_row",
          "type": "uint256"
        },
        {
          "internalType": "uint256",
          "name": "_col",
          "type": "uint256"
        }
      ],
      "name": "extGetRoom",
      "outputs": [
        {
          "components": [
            {
              "internalType": "enum BCTypes.BCEventType",
              "name": "eventType",
              "type": "uint8"
            },
            {
              "internalType": "uint256",
              "name": "eventNum",
              "type": "uint256"
            },
            {
              "internalType": "uint8",
              "name": "numItems",
              "type": "uint8"
            },
            {
              "internalType": "uint8",
              "name": "numData",
              "type": "uint8"
            },
            {
              "internalType": "bool",
              "name": "sigDetected",
              "type": "bool"
            }
          ],
          "internalType": "struct BCTypes.RoomTile",
          "name": "",
          "type": "tuple"
        }
      ],
      "stateMutability": "view",
      "type": "function"
    },
    {
      "inputs": [
        {
          "internalType": "uint256",
          "name": "_mapId",
          "type": "uint256"
        },
        {
          "internalType": "uint256",
          "name": "_roomId",
          "type": "uint256"
        }
      ],
      "name": "extGetRoomById",
      "outputs": [
        {
          "components": [
            {
              "internalType": "enum BCTypes.BCEventType",
              "name": "eventType",
              "type": "uint8"
            },
            {
              "internalType": "uint256",
              "name": "eventNum",
              "type": "uint256"
            },
            {
              "internalType": "uint8",
              "name": "numItems",
              "type": "uint8"
            },
            {
              "internalType": "uint8",
              "name": "numData",
              "type": "uint8"
            },
            {
              "internalType": "bool",
              "name": "sigDetected",
              "type": "bool"
            }
          ],
          "internalType": "struct BCTypes.RoomTile",
          "name": "",
          "type": "tuple"
        }
      ],
      "stateMutability": "view",
      "type": "function"
    },
    {
      "inputs": [
        {
          "internalType": "uint256",
          "name": "_mapId",
          "type": "uint256"
        },
        {
          "internalType": "uint256",
          "name": "row",
          "type": "uint256"
        },
        {
          "internalType": "uint256",
          "name": "col",
          "type": "uint256"
        }
      ],
      "name": "extGetRoomId",
      "outputs": [
        {
          "internalType": "uint256",
          "name": "",
          "type": "uint256"
        }
      ],
      "stateMutability": "view",
      "type": "function"
    },
    {
      "inputs": [
        {
          "internalType": "uint256",
          "name": "_mapId",
          "type": "uint256"
        }
      ],
      "name": "extGetRoomList",
      "outputs": [
        {
          "components": [
            {
              "internalType": "enum BCTypes.BCEventType",
              "name": "eventType",
              "type": "uint8"
            },
            {
              "internalType": "uint256",
              "name": "eventNum",
              "type": "uint256"
            },
            {
              "internalType": "uint8",
              "name": "numItems",
              "type": "uint8"
            },
            {
              "internalType": "uint8",
              "name": "numData",
              "type": "uint8"
            },
            {
              "internalType": "bool",
              "name": "sigDetected",
              "type": "bool"
            }
          ],
          "internalType": "struct BCTypes.RoomTile[]",
          "name": "",
          "type": "tuple[]"
        }
      ],
      "stateMutability": "view",
      "type": "function"
    },
    {
      "inputs": [
        {
          "internalType": "uint256",
          "name": "_mapId",
          "type": "uint256"
        },
        {
          "internalType": "uint256",
          "name": "_row",
          "type": "uint256"
        },
        {
          "internalType": "uint256",
          "name": "_col",
          "type": "uint256"
        },
        {
          "internalType": "bool",
          "name": "_hasHazard",
          "type": "bool"
        }
      ],
      "name": "extSetHazardStatus",
      "outputs": [],
      "stateMutability": "nonpayable",
      "type": "function"
    },
    {
      "inputs": [
        {
          "internalType": "uint256",
          "name": "_mapId",
          "type": "uint256"
        },
        {
          "internalType": "uint256",
          "name": "_distance",
          "type": "uint256"
        }
      ],
      "name": "extSpreadHazards",
      "outputs": [],
      "stateMutability": "nonpayable",
      "type": "function"
    },
    {
      "inputs": [],
      "name": "game",
      "outputs": [
        {
          "internalType": "address",
          "name": "",
          "type": "address"
        }
      ],
      "stateMutability": "view",
      "type": "function"
    },
    {
      "inputs": [
        {
          "components": [
            {
              "internalType": "uint8",
              "name": "row",
              "type": "uint8"
            },
            {
              "internalType": "uint8",
              "name": "col",
              "type": "uint8"
            }
          ],
          "internalType": "struct BCTypes.Position",
          "name": "_firstRoom",
          "type": "tuple"
        },
        {
          "components": [
            {
              "internalType": "uint8",
              "name": "row",
              "type": "uint8"
            },
            {
              "internalType": "uint8",
              "name": "col",
              "type": "uint8"
            }
          ],
          "internalType": "struct BCTypes.Position",
          "name": "_secondRoom",
          "type": "tuple"
        }
      ],
      "name": "getDirectionBetween",
      "outputs": [
        {
          "internalType": "uint256",
          "name": "",
          "type": "uint256"
        }
      ],
      "stateMutability": "pure",
      "type": "function"
    },
    {
      "inputs": [
        {
          "internalType": "uint256",
          "name": "_mapId",
          "type": "uint256"
        },
        {
          "internalType": "uint256",
          "name": "_row",
          "type": "uint256"
        },
        {
          "internalType": "uint256",
          "name": "_col",
          "type": "uint256"
        },
        {
          "internalType": "uint256",
          "name": "_direction",
          "type": "uint256"
        }
      ],
      "name": "getDoor",
      "outputs": [
        {
          "components": [
            {
              "internalType": "uint8",
              "name": "vsBreach",
              "type": "uint8"
            },
            {
              "internalType": "uint8",
              "name": "vsHack",
              "type": "uint8"
            },
            {
              "internalType": "enum BCTypes.DoorStatus",
              "name": "status",
              "type": "uint8"
            }
          ],
          "internalType": "struct BCTypes.Door",
          "name": "",
          "type": "tuple"
        }
      ],
      "stateMutability": "view",
      "type": "function"
    },
    {
      "inputs": [
        {
          "internalType": "uint256",
          "name": "_direction",
          "type": "uint256"
        },
        {
          "components": [
            {
              "internalType": "uint8",
              "name": "row",
              "type": "uint8"
            },
            {
              "internalType": "uint8",
              "name": "col",
              "type": "uint8"
            }
          ],
          "internalType": "struct BCTypes.Position",
          "name": "_start",
          "type": "tuple"
        }
      ],
      "name": "getNeighborRoom",
      "outputs": [
        {
          "components": [
            {
              "internalType": "uint8",
              "name": "row",
              "type": "uint8"
            },
            {
              "internalType": "uint8",
              "name": "col",
              "type": "uint8"
            }
          ],
          "internalType": "struct BCTypes.Position",
          "name": "",
          "type": "tuple"
        }
      ],
      "stateMutability": "pure",
      "type": "function"
    },
    {
      "inputs": [
        {
          "internalType": "uint256",
          "name": "_traitNum",
          "type": "uint256"
        },
        {
          "internalType": "uint256",
          "name": "_subTraitNum",
          "type": "uint256"
        }
      ],
      "name": "getUIOffset",
      "outputs": [
        {
          "internalType": "uint256",
          "name": "",
          "type": "uint256"
        }
      ],
      "stateMutability": "pure",
      "type": "function"
    },
    {
      "inputs": [
        {
          "internalType": "uint256",
          "name": "",
          "type": "uint256"
        }
      ],
      "name": "maps",
      "outputs": [
        {
          "internalType": "uint8",
          "name": "numDoors",
          "type": "uint8"
        },
        {
          "components": [
            {
              "internalType": "uint8",
              "name": "row",
              "type": "uint8"
            },
            {
              "internalType": "uint8",
              "name": "col",
              "type": "uint8"
            }
          ],
          "internalType": "struct BCTypes.Position",
          "name": "startPosition",
          "type": "tuple"
        },
        {
          "internalType": "uint256",
          "name": "mainReactorRow",
          "type": "uint256"
        },
        {
          "internalType": "uint256",
          "name": "mainReactorCol",
          "type": "uint256"
        }
      ],
      "stateMutability": "view",
      "type": "function"
    },
    {
      "inputs": [
        {
          "internalType": "uint256",
          "name": "_min",
          "type": "uint256"
        },
        {
          "internalType": "uint256",
          "name": "_max",
          "type": "uint256"
        },
        {
          "internalType": "uint256",
          "name": "_val",
          "type": "uint256"
        },
        {
          "internalType": "uint256",
          "name": "_valMax",
          "type": "uint256"
        }
      ],
      "name": "normalizeToSmallRange",
      "outputs": [
        {
          "internalType": "uint8",
          "name": "",
          "type": "uint8"
        }
      ],
      "stateMutability": "pure",
      "type": "function"
    },
    {
      "inputs": [],
      "name": "numRooms",
      "outputs": [
        {
          "internalType": "uint256",
          "name": "",
          "type": "uint256"
        }
      ],
      "stateMutability": "view",
      "type": "function"
    },
    {
      "inputs": [
        {
          "internalType": "uint256",
          "name": "_direction",
          "type": "uint256"
        }
      ],
      "name": "opposite",
      "outputs": [
        {
          "internalType": "uint256",
          "name": "",
          "type": "uint256"
        }
      ],
      "stateMutability": "pure",
      "type": "function"
    },
    {
      "inputs": [],
      "name": "owner",
      "outputs": [
        {
          "internalType": "address",
          "name": "",
          "type": "address"
        }
      ],
      "stateMutability": "view",
      "type": "function"
    },
    {
      "inputs": [],
      "name": "playersAddress",
      "outputs": [
        {
          "internalType": "address",
          "name": "",
          "type": "address"
        }
      ],
      "stateMutability": "view",
      "type": "function"
    },
    {
      "inputs": [],
      "name": "randKeccak",
      "outputs": [
        {
          "internalType": "bytes32",
          "name": "",
          "type": "bytes32"
        }
      ],
      "stateMutability": "nonpayable",
      "type": "function"
    },
    {
      "inputs": [],
      "name": "renounceOwnership",
      "outputs": [],
      "stateMutability": "nonpayable",
      "type": "function"
    },
    {
      "inputs": [
        {
          "internalType": "uint256",
          "name": "_mapId",
          "type": "uint256"
        }
      ],
      "name": "resetOpenDoors",
      "outputs": [],
      "stateMutability": "nonpayable",
      "type": "function"
    },
    {
      "inputs": [
        {
          "internalType": "uint256",
          "name": "_gameId",
          "type": "uint256"
        },
        {
          "internalType": "uint256",
          "name": "_for",
          "type": "uint256"
        },
        {
          "internalType": "uint256",
          "name": "_against",
          "type": "uint256"
        }
      ],
      "name": "resolveChallenge",
      "outputs": [
        {
          "internalType": "bool",
          "name": "",
          "type": "bool"
        }
      ],
      "stateMutability": "nonpayable",
      "type": "function"
    },
    {
      "inputs": [
        {
          "internalType": "uint256",
          "name": "_gameId",
          "type": "uint256"
        }
      ],
      "name": "roll",
      "outputs": [
        {
          "internalType": "uint256",
          "name": "",
          "type": "uint256"
        }
      ],
      "stateMutability": "nonpayable",
      "type": "function"
    },
    {
      "inputs": [
        {
          "internalType": "uint256",
          "name": "",
          "type": "uint256"
        }
      ],
      "name": "roomList",
      "outputs": [
        {
          "internalType": "enum BCTypes.BCEventType",
          "name": "eventType",
          "type": "uint8"
        },
        {
          "internalType": "uint256",
          "name": "eventNum",
          "type": "uint256"
        },
        {
          "internalType": "uint8",
          "name": "numItems",
          "type": "uint8"
        },
        {
          "internalType": "uint8",
          "name": "numData",
          "type": "uint8"
        },
        {
          "internalType": "bool",
          "name": "sigDetected",
          "type": "bool"
        }
      ],
      "stateMutability": "view",
      "type": "function"
    },
    {
      "inputs": [],
      "name": "roomTiles",
      "outputs": [
        {
          "internalType": "contract RoomTileInterface",
          "name": "",
          "type": "address"
        }
      ],
      "stateMutability": "view",
      "type": "function"
    },
    {
      "inputs": [
        {
          "internalType": "address",
          "name": "_gameAddress",
          "type": "address"
        },
        {
          "internalType": "address",
          "name": "_utilsAddress",
          "type": "address"
        },
        {
          "internalType": "address",
          "name": "_roomTilesAddress",
          "type": "address"
        },
        {
          "internalType": "address",
          "name": "_actionsAddress",
          "type": "address"
        },
        {
          "internalType": "address",
          "name": "_playersAddress",
          "type": "address"
        }
      ],
      "name": "setContractAddresses",
      "outputs": [],
      "stateMutability": "nonpayable",
      "type": "function"
    },
    {
      "inputs": [
        {
          "internalType": "uint256",
          "name": "_mapId",
          "type": "uint256"
        },
        {
          "internalType": "uint256",
          "name": "_row",
          "type": "uint256"
        },
        {
          "internalType": "uint256",
          "name": "_col",
          "type": "uint256"
        },
        {
          "internalType": "uint256",
          "name": "_direction",
          "type": "uint256"
        },
        {
          "internalType": "enum BCTypes.DoorStatus",
          "name": "_status",
          "type": "uint8"
        },
        {
          "internalType": "uint256",
          "name": "_strength",
          "type": "uint256"
        }
      ],
      "name": "setDoorFromPos",
      "outputs": [],
      "stateMutability": "nonpayable",
      "type": "function"
    },
    {
      "inputs": [
        {
          "internalType": "uint256",
          "name": "_mapId",
          "type": "uint256"
        },
        {
          "internalType": "uint256",
          "name": "_row",
          "type": "uint256"
        },
        {
          "internalType": "uint256",
          "name": "_col",
          "type": "uint256"
        }
      ],
      "name": "setLooted",
      "outputs": [],
      "stateMutability": "nonpayable",
      "type": "function"
    },
    {
      "inputs": [
        {
          "internalType": "bytes32",
          "name": "_hash",
          "type": "bytes32"
        },
        {
          "internalType": "uint256",
          "name": "_size",
          "type": "uint256"
        },
        {
          "internalType": "uint256",
          "name": "_offset",
          "type": "uint256"
        }
      ],
      "name": "sliceHashToSmallInt",
      "outputs": [
        {
          "internalType": "uint8",
          "name": "",
          "type": "uint8"
        }
      ],
      "stateMutability": "pure",
      "type": "function"
    },
    {
      "inputs": [
        {
          "internalType": "uint8",
          "name": "_min",
          "type": "uint8"
        },
        {
          "internalType": "uint8",
          "name": "_max",
          "type": "uint8"
        }
      ],
      "name": "smallIntBetweenVals",
      "outputs": [
        {
          "internalType": "uint8",
          "name": "",
          "type": "uint8"
        }
      ],
      "stateMutability": "nonpayable",
      "type": "function"
    },
    {
      "inputs": [
        {
          "internalType": "address",
          "name": "newOwner",
          "type": "address"
        }
      ],
      "name": "transferOwnership",
      "outputs": [],
      "stateMutability": "nonpayable",
      "type": "function"
    }
  ],
  "transactionHash": "0x0acc7956fa115fe509744528e38b9412333e76e17e372e3138f45ac00f1ecc11",
  "args": [],
  "numDeployments": 1,
  "solcInputHash": "0e1e83ba9ee77b944b8675384efabcd0",
  "bytecode": "0x608060405260006001553480156200001657600080fd5b50620000223362000028565b62000078565b600080546001600160a01b038381166001600160a01b0319831681178455604051919092169283917f8be0079c531659141344cd1fd0a4f28419497f9722a3daafe3b4186f6b6457e09190a35050565b613b5380620000886000396000f3fe608060405234801561001057600080fd5b506004361061023d5760003560e01c806381bad36d1161013b578063c6b41b45116100b8578063f2fde38b1161007c578063f2fde38b146105a6578063f7157f64146105b9578063f9dfbfcb146105cc578063fa3993c2146105ec578063fe368d7a146105ff57600080fd5b8063c6b41b4514610552578063c8e9ac9614610565578063ce28613f14610578578063e847ae1e1461058b578063f01fc35a1461059e57600080fd5b8063951fc3fe116100ff578063951fc3fe146104a157806397f34c3f146104c1578063a63a9aab146104d4578063b14ca5751461052c578063c3fe3e281461053f57600080fd5b806381bad36d146104375780638214f2221461044a57806386e529d01461045d5780638af13fd2146104705780638da5cb5b1461049057600080fd5b806358308aa8116101c957806369568fd51161018d57806369568fd5146103b95780636ea1dcd8146103d9578063715018a6146103f957806375990a0e146104015780637b45c0d41461042457600080fd5b806358308aa81461033357806359215223146103485780635dc969671461035b5780635f8951e61461037e57806364db84bf146103a657600080fd5b80631e1de205116102105780631e1de205146102c05780631ef04416146102c85780631f7b4f30146102e857806353011696146102fb578063580582831461032057600080fd5b806302861c6c1461024257806303b414e41461026b5780631b5ac4b5146102965780631cdec3ad146102b7575b600080fd5b610255610250366004613121565b610612565b60405161026291906131b6565b60405180910390f35b60055461027e906001600160a01b031681565b6040516001600160a01b039091168152602001610262565b6102a96102a43660046131c4565b6106e1565b604051908152602001610262565b6102a960075481565b6102a9610701565b6102db6102d63660046131c4565b610779565b6040516102629190613254565b6102a96102f63660046131c4565b61096d565b61030e6103093660046132e9565b6109c9565b60405160ff9091168152602001610262565b61025561032e36600461331b565b610a08565b6103466103413660046131c4565b610a91565b005b61034661035636600461333d565b610b9e565b61036e610369366004613121565b610d45565b6040519015158152602001610262565b61039161038c3660046131c4565b610de0565b60408051928352602083019190915201610262565b6102a96103b436600461331b565b610e36565b6103cc6103c73660046131c4565b610e4e565b60405161026291906133ca565b6103ec6103e73660046132e9565b610fae565b6040516102629190613418565b6103466110ec565b61041461040f3660046131c4565b611100565b6040516102629493929190613426565b60045461027e906001600160a01b031681565b6102a96104453660046132e9565b611161565b6102a96104583660046131c4565b611251565b61034661046b366004613121565b6112cb565b61048361047e3660046131c4565b61137e565b604051610262919061345f565b6000546001600160a01b031661027e565b6104b46104af366004613537565b611491565b6040516102629190613564565b61030e6104cf366004613121565b6115bb565b61051b6104e23660046131c4565b60066020526000908152604090208054600182015460029092015460ff9182169291818116916101008104821691620100009091041685565b604051610262959493929190613582565b61034661053a3660046132e9565b6115e6565b60025461027e906001600160a01b031681565b61034661056036600461331b565b611642565b6102a9610573366004613121565b61199f565b61030e6105863660046135ba565b6119e7565b61034661059936600461360f565b611a97565b6102a9611afb565b6103466105b4366004613674565b611d34565b60035461027e906001600160a01b031681565b6105df6105da366004613121565b611dad565b604051610262919061368f565b6102a96105fa36600461369e565b611e91565b61034661060d3660046136d8565b611f59565b61061a612fcc565b600660006008868154811061063157610631613719565b600091825260208083208884526001600790930201919091018152604080832087845282528083205460ff9081168552918401949094529183019020825160a0810190935280549091839116600581111561068e5761068e61314d565b600581111561069f5761069f61314d565b81526001820154602082015260029091015460ff80821660408401526101008204811660608401526201000090910416151560809091015290505b9392505050565b6000808212156106f9576106f482613745565b6106fb565b815b92915050565b600180546000918261071283613761565b9190505550600154600143610727919061377a565b403360405160200161075e93929190928352602083019190915260601b6bffffffffffffffffffffffff1916604082015260540190565b60405160208183030381529060405280519060200120905090565b60408051600b808252610180820190925260609160009190816020015b606081526020019060019003908161079657905050905060005b600b81101561081b5760408051600b808252610180820190925290816020015b6107d8612ffd565b8152602001906001900390816107d0579050508282815181106107fd576107fd613719565b6020026020010181905250808061081390613761565b9150506107b0565b5060005b600b8110156109665760005b600b811015610953576008858154811061084757610847613719565b600091825260208083208584526001600790930201820181526040808420858552825292839020835160e081018552815460ff808216835261010090910416928101929092528351608081018552919390929084019190830160048282826020028201915b8154815260200190600101908083116108ac5750505091835250506005919091015460ff8082161515602084015261010082048116151560408401526201000082048116151560608401526301000000909104161515608090910152835184908490811061091c5761091c613719565b6020026020010151828151811061093557610935613719565b6020026020010181905250808061094b90613761565b91505061082b565b508061095e81613761565b91505061081f565b5092915050565b60008061097c600160066119e7565b60ff1690507ffe34d093a460a16ee5fb374540914d1c734a17502c0c1a87b387c8d6097e1c5183826040516109bb929190918252602082015260400190565b60405180910390a192915050565b6000806109d6868661377a565b90506000836109e5868461378d565b6109ef91906137ba565b90506109fb87826137ce565b925050505b949350505050565b610a10612fcc565b60008281526006602052604090819020815160a081019092528054829060ff166005811115610a4157610a4161314d565b6005811115610a5257610a5261314d565b81526001820154602082015260029091015460ff8082166040840152610100820481166060840152620100009091041615156080909101529392505050565b6002546001600160a01b03163314610aa857600080fd5b60005b60088281548110610abe57610abe613719565b600091825260209091206003600790920201015460ff16811015610b9a57600260088381548110610af157610af1613719565b600091825260208083208584526007929092029091016002019052604090205462010000900460ff166004811115610b2b57610b2b61314d565b03610b8857600160088381548110610b4557610b45613719565b60009182526020808320858452600260079093020191909101905260409020805462ff0000191662010000836004811115610b8257610b8261314d565b02179055505b80610b9281613761565b915050610aab565b5050565b6002546001600160a01b0316331480610bc157506004546001600160a01b031633145b80610bd657506005546001600160a01b031633145b610c315760405162461bcd60e51b815260206004820152602160248201527f4e6f742067616d652f616374696f6e732f706c617965727320636f6e747261636044820152601d60fa1b60648201526084015b60405180910390fd5b600060088781548110610c4657610c46613719565b600091825260208083208984526001600790930201820181526040808420898552909152918290208251608081019093520160048282826020028201915b815481526020019060010190808311610c845750505050509050600060088881548110610cb357610cb3613719565b90600052602060002090600702016002016000838760048110610cd857610cd8613719565b602002015181526020019081526020016000209050838160000160026101000a81548160ff02191690836004811115610d1357610d1361314d565b02179055508215610d3b57805461ffff191661010060ff851690810260ff1916919091171781555b5050505050505050565b600080610d518561096d565b6040805187815260208101839052908101869052606081018590529091507f75b6a8325595f91135e07382840634226793c68c9e59623da7e10d7ad3d95b959060800160405180910390a180600103610dae5760009150506106da565b600383610dbb86846137ce565b610dc591906137e1565b1315610dd55760019150506106da565b506000949350505050565b60008060088381548110610df657610df6613719565b90600052602060002090600702016005015460088481548110610e1b57610e1b613719565b90600052602060002090600702016006015491509150915091565b600081610e4484600461378d565b6106da91906137ce565b6060600060088381548110610e6557610e65613719565b600091825260209091206003600790920201015460ff1667ffffffffffffffff811115610e9457610e946134a1565b604051908082528060200260200182016040528015610ee657816020015b610ed360408051606081018252600080825260208201819052909182015290565b815260200190600190039081610eb25790505b50905060005b81518110156109665760088481548110610f0857610f08613719565b6000918252602080832084845260026007909302019190910181526040918290208251606081018452815460ff80821683526101008204811694830194909452909391929184019162010000909104166004811115610f6957610f6961314d565b6004811115610f7a57610f7a61314d565b81525050828281518110610f9057610f90613719565b60200260200101819052508080610fa690613761565b915050610eec565b610fcf60408051606081018252600080825260208201819052909182015290565b600060088681548110610fe457610fe4613719565b600091825260208083208884526001600790930201820181526040808420888552909152918290208251608081019093520160048282826020028201915b81548152602001906001019080831161102257505050505090506008868154811061104f5761104f613719565b9060005260206000209060070201600201600082856004811061107457611074613719565b6020908102919091015182528181019290925260409081016000208151606081018352815460ff8082168352610100820481169583019590955290939192840191620100009091041660048111156110ce576110ce61314d565b60048111156110df576110df61314d565b9052509695505050505050565b6110f4612008565b6110fe6000612062565b565b6008818154811061111057600080fd5b600091825260209182902060036007909202019081015460408051808201909152600483015460ff818116835261010090910481169482019490945260058301546006909301549390911693509184565b6002546000906001600160a01b0316331461117b57600080fd5b60006008868154811061119057611190613719565b60009182526020808320888452600160079093020191909101815260408083208784529091529020905082156111d457805460ff191660ff84161790555080610a00565b805460ff16606319016111f657805460ff191660129081179091559050610a00565b805460ff16600019016112455761122c6008878154811061121957611219613719565b90600052602060002090600702016120b2565b815460ff191660ff919091169081179091559050610a00565b50600095945050505050565b60008160000361126357506001919050565b8160010361127357506000919050565b8160020361128357506003919050565b8160030361129357506002919050565b60405162461bcd60e51b815260206004820152600d60248201526c2130b2103234b932b1ba34b7b760991b6044820152606401610c28565b6004546001600160a01b031633146113255760405162461bcd60e51b815260206004820181905260248201527f4e6f7420616374696f6e7320636f6e7472616374202d207365744c6f6f7465646044820152606401610c28565b60016008848154811061133a5761133a613719565b6000918252602080832095835260016007909202909501018452604080822093825292909352912060050180549115156101000261ff001990921691909117905550565b6060600060075467ffffffffffffffff81111561139d5761139d6134a1565b6040519080825280602002602001820160405280156113d657816020015b6113c3612fcc565b8152602001906001900390816113bb5790505b50905060005b81518110156109665760008181526006602052604090819020815160a081019092528054829060ff1660058111156114165761141661314d565b60058111156114275761142761314d565b81526001820154602082015260029091015460ff808216604084015261010082048116606084015262010000909104161515608090910152825183908390811061147357611473613719565b6020026020010181905250808061148990613761565b9150506113dc565b6040805180820190915260008082526020820152826000036114e3576040518060400160405280600184600001516114c99190613801565b60ff168152602001836020015160ff1681525090506106fb565b82600103611507576040518060400160405280836000015160016114c9919061381a565b82600203611544576040518060400160405280836000015160ff16815260200183602001516001611538919061381a565b60ff16905290506106fb565b82600303611575576040518060400160405280836000015160ff168152602001600184602001516115389190613801565b6000611580846121e4565b6040516020016115909190613857565b60405160208183030381529060405290508060405162461bcd60e51b8152600401610c289190613892565b6000808260016115cc8660026139a9565b6115d6919061377a565b901b8516831c9150509392505050565b6115ee612008565b806008858154811061160257611602613719565b60009182526020808320968352600791909102909501600101855260408082209482529390945291909220805460ff191660ff9092169190911790555050565b6002546001600160a01b0316331461165957600080fd5b61166161301c565b60005b828110156119995760005b600b8110156117245760005b600b811015611711576008868154811061169757611697613719565b60009182526020808320858452600792909202909101600101815260408083208484529091529020600501546301000000900460ff168483600b81106116df576116df613719565b602002015182600b81106116f5576116f5613719565b911515602090920201528061170981613761565b91505061167b565b508061171c81613761565b91505061166f565b5060005b600b8110156119865760005b600b811015611973578382600b811061174f5761174f613719565b602002015181600b811061176557611765613719565b6020020151156119615760005b600481101561195f5760006008888154811061179057611790613719565b6000918252602080832087845260016007909302018201815260408084208785529091529091200182600481106117c9576117c9613719565b015490506000600889815481106117e2576117e2613719565b600091825260208083208584526007929092029091016002019052604090205462010000900460ff16905060038160048111156118215761182161314d565b0361194a5784158015611832575082155b1561183e57505061194d565b61184a6001600b61377a565b851480156118585750826001145b1561186457505061194d565b831580156118725750826003145b1561187e57505061194d565b61188a6001600b61377a565b841480156118985750826002145b156118a457505061194d565b60006118ca8460405180604001604052808960ff1681526020018860ff16815250611491565b9050600060088b815481106118e1576118e1613719565b60009182526020808320855160ff9081168552600793909302016001018152604080842086830151841685529091529091208054909250161580159061192c5750805460ff16600214155b156119475760058101805463ff000000191663010000001790555b50505b50505b8061195781613761565b915050611772565b505b8061196b81613761565b915050611734565b508061197e81613761565b915050611728565b508061199181613761565b915050611664565b50505050565b6000600884815481106119b4576119b4613719565b6000918252602080832095835260079190910290940160010184526040808220938252929093525090205460ff16919050565b60018054600091826119f883613761565b9190505550600033600154600143611a10919061377a565b60405160609390931b6bffffffffffffffffffffffff19166020840152603483019190915240605482015260740160408051601f19818403018152919052805160209091012090506000611a648585613801565b611a6f90600161381a565b90508460ff168160ff1683611a8491906139b5565b611a8e91906137ce565b95945050505050565b611a9f612008565b600280546001600160a01b038088166001600160a01b03199283161790925560038054868416908316179055600480548584169083161790556005805492841692909116919091179055611af16122e5565b6007555050505050565b6002546000906001600160a01b03163314611b1557600080fd5b600880546001810182556000829052604080516103408101825260038152600460208201526005918101919091526006606082015260076080820181905260a0820193909352600960c0820152600a60e0820152600b610100820152600c610120820152600d610140820152600e610160820152600f61018082015260106101a082015260116101c082015260136101e08201526014610200820152601561022082015260166102408201526017610260820152601861028082015260196102a0820152601a6102c08201819052601b6102e0830152601c610300830152601d610320830152929091027ff3f7a9fe364faab93b216da50a3214154f22a0a2b415b23a84c8169e8b636ee30191611c2f908390839061304a565b506040805160608101825260ff808252602082015290810160009052600383015460ff9081166000908152600285016020908152604091829020845181549286015185166101000261ffff19909316941693909317178083559083015190829062ff0000191662010000836004811115611cab57611cab61314d565b0217905550505060038201805460ff16906000611cc7836139c9565b82546101009290920a60ff8181021990931691909216919091021790555060408051808201909152600a8152600660209091015260048201805461ffff191661060a179055611d1582612472565b611d1e82612d39565b600854611d2d9060019061377a565b9250505090565b611d3c612008565b6001600160a01b038116611da15760405162461bcd60e51b815260206004820152602660248201527f4f776e61626c653a206e6577206f776e657220697320746865207a65726f206160448201526564647265737360d01b6064820152608401610c28565b611daa81612062565b50565b611db5612ffd565b60088481548110611dc857611dc8613719565b600091825260208083208684526001600790930201820181526040808420868552825292839020835160e081018552815460ff808216835261010090910416928101929092528351608081018552919390929084019190830160048282826020028201915b815481526020019060010190808311611e2d5750505091835250506005919091015460ff8082161515602084015261010082048116151560408401526201000082048116151560608401526301000000909104161515608090910152949350505050565b80518251600091611ea1916139e8565b60000b600103611eb3575060006106fb565b81518351611ec191906139e8565b60000b19611ed1575060016106fb565b81602001518360200151611ee591906139e8565b60000b19611ef5575060026106fb565b81602001518360200151611f0991906139e8565b60000b600103611f1b575060036106fb565b60405162461bcd60e51b8152602060048201526013602482015272115c9c9bdc8e88139bdd0818591a9858d95b9d606a1b6044820152606401610c28565b6005546001600160a01b03163314611fa95760405162461bcd60e51b8152602060048201526013602482015272139bdd081c1b185e595c8818dbdb9d1c9858dd606a1b6044820152606401610c28565b8060088581548110611fbd57611fbd613719565b600091825260208083209683526001600790920290960101855260408082209482529390945291909220600501805491151563010000000263ff000000199092169190911790555050565b6000546001600160a01b031633146110fe5760405162461bcd60e51b815260206004820181905260248201527f4f776e61626c653a2063616c6c6572206973206e6f7420746865206f776e65726044820152606401610c28565b600080546001600160a01b038381166001600160a01b0319831681178455604051919092169283917f8be0079c531659141344cd1fd0a4f28419497f9722a3daafe3b4186f6b6457e09190a35050565b805460009081906120c59060019061377a565b90505b80156121815760006120db6000836119e7565b9050836000018160ff16815481106120f5576120f5613719565b906000526020600020015484600001838154811061211557612115613719565b906000526020600020015485600001848154811061213557612135613719565b906000526020600020016000876000018560ff168154811061215957612159613719565b600091825260209091200192909255919091555081905061217981613a09565b9150506120c8565b50815460009083906121959060019061377a565b815481106121a5576121a5613719565b90600052602060002001549050826000018054806121c5576121c5613a20565b6001900381819060005260206000200160009055905580915050919050565b60608160000361220b5750506040805180820190915260018152600360fc1b602082015290565b8160005b8115612235578061221f81613761565b915061222e9050600a836137ba565b915061220f565b60008167ffffffffffffffff811115612250576122506134a1565b6040519080825280601f01601f19166020018201604052801561227a576020820181803683370190505b5090505b8415610a005761228f60018361377a565b915061229c600a866139b5565b6122a79060306137ce565b60f81b8183815181106122bc576122bc613719565b60200101906001600160f81b031916908160001a9053506122de600a866137ba565b945061227e565b600080600360009054906101000a90046001600160a01b03166001600160a01b03166338fdf0bd6040518163ffffffff1660e01b8152600401602060405180830381865afa15801561233b573d6000803e3d6000fd5b505050506040513d601f19601f8201168201806040525081019061235f9190613a36565b905060005b8181101561246c5760035460405163413a9f5f60e11b8152600481018390526001600160a01b03909116906382753ebe9060240160a060405180830381865afa1580156123b5573d6000803e3d6000fd5b505050506040513d601f19601f820116820180604052508101906123d99190613a4f565b600082815260066020526040902081518154829060ff191660018360058111156124055761240561314d565b02179055506020820151600182015560408201516002909101805460608401516080909401511515620100000262ff00001960ff9586166101000261ffff19909316959094169490941717919091169190911790558061246481613761565b915050612364565b50919050565b6000806002600754612484919061377a565b90506001600061249261301c565b6004860154600190829060ff16600b81106124af576124af613719565b60200201516004880154610100900460ff16600b81106124d1576124d1613719565b911515602090920201526124e3613095565b60408051808201909152600488015460ff80821683526101009091041660208201528187601e811061251757612517613719565b60200201528561252681613761565b9650505b60008511801561253a5750600086115b15612cad5760008161254d60018961377a565b601e811061255d5761255d613719565b602002015190508661256e81613a09565b9750508187601e811061258357612583613719565b602002016125aa6040518060400160405280600060ff168152602001600060ff1681525090565b9052856125b681613a09565b96505084806125c490613a09565b825160ff908116600090815260018c810160209081526040808420828901519095168452939052918120805460ff19169092179091559096506021915061260c9060636119e7565b60ff16101561264f57805160ff908116600090815260018a016020908152604080832082860151909416835292905220600501805462ff00001916620100001790555b6000604051806080016040528060008152602001600181526020016002815260200160038152509050600060016004612688919061377a565b90505b801561271857600061269e6000836119e7565b9050828160ff16600481106126b5576126b5613719565b60200201518383600481106126cc576126cc613719565b60200201518484600481106126e3576126e3613719565b60200201858460ff16600481106126fc576126fc613719565b602002019190915252508061271081613a09565b91505061268b565b5060005b6004811015612ca55782516020840151600091820b910b83836004811061274557612745613719565b6020020151600003612763578161275b81613af0565b9250506127e7565b83836004811061277557612775613719565b602002015160010361278b578161275b81613b05565b83836004811061279d5761279d613719565b60200201516002036127bb57806127b381613b05565b9150506127e7565b8383600481106127cd576127cd613719565b60200201516003036127e757806127e381613af0565b9150505b60018212806127f65750600181125b8061280b57506128086002600b61377a565b82135b80612820575061281d6002600b61377a565b81135b1561282c575050612c93565b6040805180820190915260ff80841680835290831660208301528890600b811061285857612858613719565b6020020151816020015160ff16600b811061287557612875613719565b602002015115806128d657508c6001016000876000015160ff1681526020019081526020016000206000876020015160ff1681526020019081526020016000206001016128c28783611e91565b600481106128d2576128d2613719565b0154155b15612c8f578915806128ff57506128ee89604261377a565b6128fa600060636119e7565b60ff16105b15612c8a57604051806060016040528061291b600060046119e7565b60ff16815260200161292f600060046119e7565b60ff16815260200160018152508d60020160008f60030160009054906101000a900460ff1660ff16815260200190815260200160002060008201518160000160006101000a81548160ff021916908360ff16021790555060208201518160000160016101000a81548160ff021916908360ff16021790555060408201518160000160026101000a81548160ff021916908360048111156129d1576129d161314d565b0217905550505060038d015460ff908116600090815260028f0160205260408120549091169003612a245760038d015460ff16600090815260028e0160205260409020805462ff00001916620300001790555b60038d01805460ff16906000612a39836139c9565b91906101000a81548160ff021916908360ff16021790555050601689612a5f91906137ce565b98506042891115612a6f57604298505b8051889060ff16600b8110612a8657612a86613719565b6020020151816020015160ff16600b8110612aa357612aa3613719565b60200201511515600003612b275780878d601e8110612ac457612ac4613719565b60200201528b612ad381613761565b9c50508980612ae190613761565b9a5050600188826000015160ff16600b8110612aff57612aff613719565b6020020151826020015160ff16600b8110612b1c57612b1c613719565b911515602090920201525b8c6001016000876000015160ff1681526020019081526020016000206000876020015160ff168152602001908152602001600020600101858560048110612b7057612b70613719565b602002015160048110612b8557612b85613719565b0154600003612c855760038d0154612ba29060019060ff16613801565b60ff168d6001016000886000015160ff1681526020019081526020016000206000886020015160ff168152602001908152602001600020600101868660048110612bee57612bee613719565b602002015160048110612c0357612c03613719565b015560038d0154612c199060019060ff16613801565b60ff168d6001016000836000015160ff1681526020019081526020016000206000836020015160ff168152602001908152602001600020600101612c72878760048110612c6857612c68613719565b6020020151611251565b60048110612c8257612c82613719565b01555b612c8f565b600098505b5050505b80612c9d81613761565b91505061271c565b50505061252a565b60048701805460ff80821660009081526001808c016020818152604080852061010097889004871686528252808520805460ff1916600290811790915597548087168652928252808520969092049094168352938352838220600501805462ff000019908116909155908252938b01909152208054600392166201000083021790555050505050505050565b6000805b600b811015612fc75760005b600b811015612fb4576000828152600185016020908152604080832084845290915290205460ff1660001901612fa25782612d8381613761565b93505082600503612dc357600082815260018501602090815260408083208484529091529020805460ff1916606417905560058401829055600684018190555b60005b6004811015612fa0576000838152600180870160209081526040808420868552909152909120018160048110612dfe57612dfe613719565b0154600003612f8e57826009148015612e175750816006145b612f8e576000612e418260405180604001604052808760ff1681526020018660ff16815250611491565b805160ff9081166000908152600189016020908152604080832082860151851684529091529020549192501680158015612e8957506042612e84600060636119e7565b60ff16105b15612f8b576040805160608101825260ff808252602082015290810160049052600388015460ff908116600090815260028a016020908152604091829020845181549286015185166101000261ffff19909316941693909317178083559083015190829062ff0000191662010000836004811115612f0957612f0961314d565b0217905550505060038701805460ff16906000612f25836139c9565b82546101009290920a60ff8181021990931691831602179091556003890154612f52925060019116613801565b60008681526001808a016020908152604080842089855290915290912060ff9290921691018460048110612f8857612f88613719565b01555b50505b80612f9881613761565b915050612dc6565b505b80612fac81613761565b915050612d49565b5080612fbf81613761565b915050612d3d565b505050565b6040805160a081019091528060005b8152600060208201819052604082018190526060820181905260809091015290565b6040805160e08101825260008082526020820152908101612fdb6130cf565b604051806101600160405280600b905b6130346130ed565b81526020019060019003908161302c5790505090565b828054828255906000526020600020908101928215613085579160200282015b8281111561308557825182559160200191906001019061306a565b5061309192915061310c565b5090565b604051806103c00160405280601e905b60408051808201909152600080825260208201528152602001906001900390816130a55790505090565b60405180608001604052806004906020820280368337509192915050565b604051806101600160405280600b906020820280368337509192915050565b5b80821115613091576000815560010161310d565b60008060006060848603121561313657600080fd5b505081359360208301359350604090920135919050565b634e487b7160e01b600052602160045260246000fd5b600681106131735761317361314d565b9052565b613182828251613163565b6020810151602083015260ff604082015116604083015260ff60608201511660608301526080810151151560808301525050565b60a081016106fb8284613177565b6000602082840312156131d657600080fd5b5035919050565b60ff8151168252602060ff81830151168184015260408201516040840160005b600481101561321a578251825291830191908301906001016131fd565b505050506060810151151560c0838101919091526080820151151560e084015260a082015115156101008401520151151561012090910152565b6000602080830181845280855180835260408601915060408160051b87010192508387016000805b838110156132db57888603603f19018552825180518088529088019088880190845b818110156132c5576132b18385516131dd565b928a0192610140929092019160010161329e565b509097505050938601939186019160010161327c565b509398975050505050505050565b600080600080608085870312156132ff57600080fd5b5050823594602084013594506040840135936060013592509050565b6000806040838503121561332e57600080fd5b50508035926020909101359150565b60008060008060008060c0878903121561335657600080fd5b8635955060208701359450604087013593506060870135925060808701356005811061338157600080fd5b8092505060a087013590509295509295509295565b60ff815116825260ff60208201511660208301526040810151600581106133bf576133bf61314d565b806040840152505050565b6020808252825182820181905260009190848201906040850190845b8181101561340c576133f9838551613396565b92840192606092909201916001016133e6565b50909695505050505050565b606081016106fb8284613396565b60ff8516815260a0810161344d6020830186805160ff908116835260209182015116910152565b60608201939093526080015292915050565b6020808252825182820181905260009190848201906040850190845b8181101561340c5761348e838551613177565b9284019260a0929092019160010161347b565b634e487b7160e01b600052604160045260246000fd5b60ff81168114611daa57600080fd5b6000604082840312156134d857600080fd5b6040516040810181811067ffffffffffffffff8211171561350957634e487b7160e01b600052604160045260246000fd5b604052905080823561351a816134b7565b8152602083013561352a816134b7565b6020919091015292915050565b6000806060838503121561354a57600080fd5b8235915061355b84602085016134c6565b90509250929050565b604081016106fb8284805160ff908116835260209182015116910152565b60a081016135908288613163565b85602083015260ff8516604083015260ff8416606083015282151560808301529695505050505050565b600080604083850312156135cd57600080fd5b82356135d8816134b7565b915060208301356135e8816134b7565b809150509250929050565b80356001600160a01b038116811461360a57600080fd5b919050565b600080600080600060a0868803121561362757600080fd5b613630866135f3565b945061363e602087016135f3565b935061364c604087016135f3565b925061365a606087016135f3565b9150613668608087016135f3565b90509295509295909350565b60006020828403121561368657600080fd5b6106da826135f3565b61014081016106fb82846131dd565b600080608083850312156136b157600080fd5b6136bb84846134c6565b915061355b84604085016134c6565b8015158114611daa57600080fd5b600080600080608085870312156136ee57600080fd5b843593506020850135925060408501359150606085013561370e816136ca565b939692955090935050565b634e487b7160e01b600052603260045260246000fd5b634e487b7160e01b600052601160045260246000fd5b6000600160ff1b820161375a5761375a61372f565b5060000390565b6000600182016137735761377361372f565b5060010190565b818103818111156106fb576106fb61372f565b80820281158282048414176106fb576106fb61372f565b634e487b7160e01b600052601260045260246000fd5b6000826137c9576137c96137a4565b500490565b808201808211156106fb576106fb61372f565b81810360008312801583831316838312821617156109665761096661372f565b60ff82811682821603908111156106fb576106fb61372f565b60ff81811683821601908111156106fb576106fb61372f565b60005b8381101561384e578181015183820152602001613836565b50506000910152565b72024b73b30b634b2103234b932b1ba34b7b71d1606d1b815260008251613885816013850160208701613833565b9190910160130192915050565b60208152600082518060208401526138b1816040850160208701613833565b601f01601f19169190910160400192915050565b600181815b808511156139005781600019048211156138e6576138e661372f565b808516156138f357918102915b93841c93908002906138ca565b509250929050565b600082613917575060016106fb565b81613924575060006106fb565b816001811461393a576002811461394457613960565b60019150506106fb565b60ff8411156139555761395561372f565b50506001821b6106fb565b5060208310610133831016604e8410600b8410161715613983575081810a6106fb565b61398d83836138c5565b80600019048211156139a1576139a161372f565b029392505050565b60006106da8383613908565b6000826139c4576139c46137a4565b500690565b600060ff821660ff81036139df576139df61372f565b60010192915050565b600082810b9082900b03607f198112607f821317156106fb576106fb61372f565b600081613a1857613a1861372f565b506000190190565b634e487b7160e01b600052603160045260246000fd5b600060208284031215613a4857600080fd5b5051919050565b600060a08284031215613a6157600080fd5b60405160a0810181811067ffffffffffffffff82111715613a9257634e487b7160e01b600052604160045260246000fd5b604052825160068110613aa457600080fd5b8152602083810151908201526040830151613abe816134b7565b60408201526060830151613ad1816134b7565b60608201526080830151613ae4816136ca565b60808201529392505050565b6000600160ff1b8201613a1857613a1861372f565b60006001600160ff1b0182016137735761377361372f56fea26469706673582212203896527ee92a6de41793f2389cca27c6b4f46d270ef82236c906f1f70bf74ab464736f6c63430008110033",
  "devdoc": {
    "kind": "dev",
    "methods": {
      "owner()": {
        "details": "Returns the address of the current owner."
      },
      "renounceOwnership()": {
        "details": "Leaves the contract without owner. It will not be possible to call `onlyOwner` functions anymore. Can only be called by the current owner. NOTE: Renouncing ownership will leave the contract without an owner, thereby removing any functionality that is only available to the owner."
      },
      "transferOwnership(address)": {
        "details": "Transfers ownership of the contract to a new account (`newOwner`). Can only be called by the current owner."
      }
    },
    "version": 1
  },
  "userdoc": {
    "kind": "user",
    "methods": {},
    "version": 1
  },
  "storageLayout": {
    "storage": [
      {
        "astId": 7,
        "contract": "contracts/BCMaps.sol:Maps",
        "label": "_owner",
        "offset": 0,
        "slot": "0",
        "type": "t_address"
      },
      {
        "astId": 17101,
        "contract": "contracts/BCMaps.sol:Maps",
        "label": "TODO_randomSeed",
        "offset": 0,
        "slot": "1",
        "type": "t_uint256"
      },
      {
        "astId": 13069,
        "contract": "contracts/BCMaps.sol:Maps",
        "label": "game",
        "offset": 0,
        "slot": "2",
        "type": "t_address"
      },
      {
        "astId": 13072,
        "contract": "contracts/BCMaps.sol:Maps",
        "label": "roomTiles",
        "offset": 0,
        "slot": "3",
        "type": "t_contract(RoomTileInterface)13063"
      },
      {
        "astId": 13074,
        "contract": "contracts/BCMaps.sol:Maps",
        "label": "actionsAddress",
        "offset": 0,
        "slot": "4",
        "type": "t_address"
      },
      {
        "astId": 13076,
        "contract": "contracts/BCMaps.sol:Maps",
        "label": "playersAddress",
        "offset": 0,
        "slot": "5",
        "type": "t_address"
      },
      {
        "astId": 13120,
        "contract": "contracts/BCMaps.sol:Maps",
        "label": "roomList",
        "offset": 0,
        "slot": "6",
        "type": "t_mapping(t_uint256,t_struct(RoomTile)17005_storage)"
      },
      {
        "astId": 13122,
        "contract": "contracts/BCMaps.sol:Maps",
        "label": "numRooms",
        "offset": 0,
        "slot": "7",
        "type": "t_uint256"
      },
      {
        "astId": 13126,
        "contract": "contracts/BCMaps.sol:Maps",
        "label": "maps",
        "offset": 0,
        "slot": "8",
        "type": "t_array(t_struct(Map)16940_storage)dyn_storage"
      }
    ],
    "types": {
      "t_address": {
        "encoding": "inplace",
        "label": "address",
        "numberOfBytes": "20"
      },
      "t_array(t_struct(Map)16940_storage)dyn_storage": {
        "base": "t_struct(Map)16940_storage",
        "encoding": "dynamic_array",
        "label": "struct BCTypes.Map[]",
        "numberOfBytes": "32"
      },
      "t_array(t_uint256)4_storage": {
        "base": "t_uint256",
        "encoding": "inplace",
        "label": "uint256[4]",
        "numberOfBytes": "128"
      },
      "t_array(t_uint256)dyn_storage": {
        "base": "t_uint256",
        "encoding": "dynamic_array",
        "label": "uint256[]",
        "numberOfBytes": "32"
      },
      "t_bool": {
        "encoding": "inplace",
        "label": "bool",
        "numberOfBytes": "1"
      },
      "t_contract(RoomTileInterface)13063": {
        "encoding": "inplace",
        "label": "contract RoomTileInterface",
        "numberOfBytes": "20"
      },
      "t_enum(BCEventType)16822": {
        "encoding": "inplace",
        "label": "enum BCTypes.BCEventType",
        "numberOfBytes": "1"
      },
      "t_enum(DoorStatus)16801": {
        "encoding": "inplace",
        "label": "enum BCTypes.DoorStatus",
        "numberOfBytes": "1"
      },
      "t_mapping(t_uint256,t_mapping(t_uint256,t_struct(GameTile)16907_storage))": {
        "encoding": "mapping",
        "key": "t_uint256",
        "label": "mapping(uint256 => mapping(uint256 => struct BCTypes.GameTile))",
        "numberOfBytes": "32",
        "value": "t_mapping(t_uint256,t_struct(GameTile)16907_storage)"
      },
      "t_mapping(t_uint256,t_struct(Door)16915_storage)": {
        "encoding": "mapping",
        "key": "t_uint256",
        "label": "mapping(uint256 => struct BCTypes.Door)",
        "numberOfBytes": "32",
        "value": "t_struct(Door)16915_storage"
      },
      "t_mapping(t_uint256,t_struct(GameTile)16907_storage)": {
        "encoding": "mapping",
        "key": "t_uint256",
        "label": "mapping(uint256 => struct BCTypes.GameTile)",
        "numberOfBytes": "32",
        "value": "t_struct(GameTile)16907_storage"
      },
      "t_mapping(t_uint256,t_struct(RoomTile)17005_storage)": {
        "encoding": "mapping",
        "key": "t_uint256",
        "label": "mapping(uint256 => struct BCTypes.RoomTile)",
        "numberOfBytes": "32",
        "value": "t_struct(RoomTile)17005_storage"
      },
      "t_struct(Door)16915_storage": {
        "encoding": "inplace",
        "label": "struct BCTypes.Door",
        "members": [
          {
            "astId": 16909,
            "contract": "contracts/BCMaps.sol:Maps",
            "label": "vsBreach",
            "offset": 0,
            "slot": "0",
            "type": "t_uint8"
          },
          {
            "astId": 16911,
            "contract": "contracts/BCMaps.sol:Maps",
            "label": "vsHack",
            "offset": 1,
            "slot": "0",
            "type": "t_uint8"
          },
          {
            "astId": 16914,
            "contract": "contracts/BCMaps.sol:Maps",
            "label": "status",
            "offset": 2,
            "slot": "0",
            "type": "t_enum(DoorStatus)16801"
          }
        ],
        "numberOfBytes": "32"
      },
      "t_struct(GameTile)16907_storage": {
        "encoding": "inplace",
        "label": "struct BCTypes.GameTile",
        "members": [
          {
            "astId": 16892,
            "contract": "contracts/BCMaps.sol:Maps",
            "label": "roomId",
            "offset": 0,
            "slot": "0",
            "type": "t_uint8"
          },
          {
            "astId": 16894,
            "contract": "contracts/BCMaps.sol:Maps",
            "label": "parentId",
            "offset": 1,
            "slot": "0",
            "type": "t_uint8"
          },
          {
            "astId": 16898,
            "contract": "contracts/BCMaps.sol:Maps",
            "label": "doors",
            "offset": 0,
            "slot": "1",
            "type": "t_array(t_uint256)4_storage"
          },
          {
            "astId": 16900,
            "contract": "contracts/BCMaps.sol:Maps",
            "label": "explored",
            "offset": 0,
            "slot": "5",
            "type": "t_bool"
          },
          {
            "astId": 16902,
            "contract": "contracts/BCMaps.sol:Maps",
            "label": "looted",
            "offset": 1,
            "slot": "5",
            "type": "t_bool"
          },
          {
            "astId": 16904,
            "contract": "contracts/BCMaps.sol:Maps",
            "label": "hasVent",
            "offset": 2,
            "slot": "5",
            "type": "t_bool"
          },
          {
            "astId": 16906,
            "contract": "contracts/BCMaps.sol:Maps",
            "label": "hasHazard",
            "offset": 3,
            "slot": "5",
            "type": "t_bool"
          }
        ],
        "numberOfBytes": "192"
      },
      "t_struct(Map)16940_storage": {
        "encoding": "inplace",
        "label": "struct BCTypes.Map",
        "members": [
          {
            "astId": 16918,
            "contract": "contracts/BCMaps.sol:Maps",
            "label": "unusedNormalRooms",
            "offset": 0,
            "slot": "0",
            "type": "t_array(t_uint256)dyn_storage"
          },
          {
            "astId": 16925,
            "contract": "contracts/BCMaps.sol:Maps",
            "label": "board",
            "offset": 0,
            "slot": "1",
            "type": "t_mapping(t_uint256,t_mapping(t_uint256,t_struct(GameTile)16907_storage))"
          },
          {
            "astId": 16930,
            "contract": "contracts/BCMaps.sol:Maps",
            "label": "doors",
            "offset": 0,
            "slot": "2",
            "type": "t_mapping(t_uint256,t_struct(Door)16915_storage)"
          },
          {
            "astId": 16932,
            "contract": "contracts/BCMaps.sol:Maps",
            "label": "numDoors",
            "offset": 0,
            "slot": "3",
            "type": "t_uint8"
          },
          {
            "astId": 16935,
            "contract": "contracts/BCMaps.sol:Maps",
            "label": "startPosition",
            "offset": 0,
            "slot": "4",
            "type": "t_struct(Position)16890_storage"
          },
          {
            "astId": 16937,
            "contract": "contracts/BCMaps.sol:Maps",
            "label": "mainReactorRow",
            "offset": 0,
            "slot": "5",
            "type": "t_uint256"
          },
          {
            "astId": 16939,
            "contract": "contracts/BCMaps.sol:Maps",
            "label": "mainReactorCol",
            "offset": 0,
            "slot": "6",
            "type": "t_uint256"
          }
        ],
        "numberOfBytes": "224"
      },
      "t_struct(Position)16890_storage": {
        "encoding": "inplace",
        "label": "struct BCTypes.Position",
        "members": [
          {
            "astId": 16887,
            "contract": "contracts/BCMaps.sol:Maps",
            "label": "row",
            "offset": 0,
            "slot": "0",
            "type": "t_uint8"
          },
          {
            "astId": 16889,
            "contract": "contracts/BCMaps.sol:Maps",
            "label": "col",
            "offset": 1,
            "slot": "0",
            "type": "t_uint8"
          }
        ],
        "numberOfBytes": "32"
      },
      "t_struct(RoomTile)17005_storage": {
        "encoding": "inplace",
        "label": "struct BCTypes.RoomTile",
        "members": [
          {
            "astId": 16996,
            "contract": "contracts/BCMaps.sol:Maps",
            "label": "eventType",
            "offset": 0,
            "slot": "0",
            "type": "t_enum(BCEventType)16822"
          },
          {
            "astId": 16998,
            "contract": "contracts/BCMaps.sol:Maps",
            "label": "eventNum",
            "offset": 0,
            "slot": "1",
            "type": "t_uint256"
          },
          {
            "astId": 17000,
            "contract": "contracts/BCMaps.sol:Maps",
            "label": "numItems",
            "offset": 0,
            "slot": "2",
            "type": "t_uint8"
          },
          {
            "astId": 17002,
            "contract": "contracts/BCMaps.sol:Maps",
            "label": "numData",
            "offset": 1,
            "slot": "2",
            "type": "t_uint8"
          },
          {
            "astId": 17004,
            "contract": "contracts/BCMaps.sol:Maps",
            "label": "sigDetected",
            "offset": 2,
            "slot": "2",
            "type": "t_bool"
          }
        ],
        "numberOfBytes": "96"
      },
      "t_uint256": {
        "encoding": "inplace",
        "label": "uint256",
        "numberOfBytes": "32"
      },
      "t_uint8": {
        "encoding": "inplace",
        "label": "uint8",
        "numberOfBytes": "1"
      }
    }
  }
}