{
  "address": "0xAD3354476261932184E0dB6F3d9D3653c5FFE3Ee",
  "abi": [
    {
      "anonymous": false,
      "inputs": [
        {
          "indexed": false,
          "internalType": "uint256",
          "name": "gameId",
          "type": "uint256"
        },
        {
          "indexed": false,
          "internalType": "uint256",
          "name": "roll",
          "type": "uint256"
        },
        {
          "indexed": false,
          "internalType": "uint256",
          "name": "forValue",
          "type": "uint256"
        },
        {
          "indexed": false,
          "internalType": "uint256",
          "name": "against",
          "type": "uint256"
        }
      ],
      "name": "ChallengeEvent",
      "type": "event"
    },
    {
      "anonymous": false,
      "inputs": [
        {
          "indexed": false,
          "internalType": "uint256",
          "name": "gameId",
          "type": "uint256"
        },
        {
          "indexed": false,
          "internalType": "uint256",
          "name": "roll",
          "type": "uint256"
        }
      ],
      "name": "DiceRollEvent",
      "type": "event"
    },
    {
      "anonymous": false,
      "inputs": [
        {
          "indexed": true,
          "internalType": "address",
          "name": "previousOwner",
          "type": "address"
        },
        {
          "indexed": true,
          "internalType": "address",
          "name": "newOwner",
          "type": "address"
        }
      ],
      "name": "OwnershipTransferred",
      "type": "event"
    },
    {
      "inputs": [
        {
          "internalType": "int256",
          "name": "x",
          "type": "int256"
        }
      ],
      "name": "abs",
      "outputs": [
        {
          "internalType": "int256",
          "name": "",
          "type": "int256"
        }
      ],
      "stateMutability": "pure",
      "type": "function"
    },
    {
      "inputs": [],
      "name": "actionsAddress",
      "outputs": [
        {
          "internalType": "address",
          "name": "",
          "type": "address"
        }
      ],
      "stateMutability": "view",
      "type": "function"
    },
    {
      "inputs": [],
      "name": "createMap",
      "outputs": [
        {
          "internalType": "uint256",
          "name": "",
          "type": "uint256"
        }
      ],
      "stateMutability": "nonpayable",
      "type": "function"
    },
    {
      "inputs": [
        {
          "internalType": "uint256",
          "name": "_mapId",
          "type": "uint256"
        },
        {
          "internalType": "uint256",
          "name": "_row",
          "type": "uint256"
        },
        {
          "internalType": "uint256",
          "name": "_col",
          "type": "uint256"
        },
        {
          "internalType": "uint256",
          "name": "_roomId",
          "type": "uint256"
        }
      ],
      "name": "debugForceRoomId",
      "outputs": [],
      "stateMutability": "nonpayable",
      "type": "function"
    },
    {
      "inputs": [
        {
          "internalType": "uint256",
          "name": "_mapId",
          "type": "uint256"
        },
        {
          "internalType": "uint256",
          "name": "_row",
          "type": "uint256"
        },
        {
          "internalType": "uint256",
          "name": "_col",
          "type": "uint256"
        },
        {
          "internalType": "uint256",
          "name": "debugForceId",
          "type": "uint256"
        }
      ],
      "name": "discoverRoom",
      "outputs": [
        {
          "internalType": "uint256",
          "name": "",
          "type": "uint256"
        }
      ],
      "stateMutability": "nonpayable",
      "type": "function"
    },
    {
      "inputs": [
        {
          "internalType": "uint256",
          "name": "_mapId",
          "type": "uint256"
        }
      ],
      "name": "extGetBoard",
      "outputs": [
        {
          "components": [
            {
              "internalType": "uint8",
              "name": "roomId",
              "type": "uint8"
            },
            {
              "internalType": "uint8",
              "name": "parentId",
              "type": "uint8"
            },
            {
              "internalType": "uint256[4]",
              "name": "doors",
              "type": "uint256[4]"
            },
            {
              "internalType": "bool",
              "name": "explored",
              "type": "bool"
            },
            {
              "internalType": "bool",
              "name": "looted",
              "type": "bool"
            },
            {
              "internalType": "bool",
              "name": "hasVent",
              "type": "bool"
            },
            {
              "internalType": "bool",
              "name": "hasHazard",
              "type": "bool"
            }
          ],
          "internalType": "struct BCTypes.GameTile[][]",
          "name": "",
          "type": "tuple[][]"
        }
      ],
      "stateMutability": "view",
      "type": "function"
    },
    {
      "inputs": [
        {
          "internalType": "uint256",
          "name": "_mapId",
          "type": "uint256"
        }
      ],
      "name": "extGetDoors",
      "outputs": [
        {
          "components": [
            {
              "internalType": "uint8",
              "name": "vsBreach",
              "type": "uint8"
            },
            {
              "internalType": "uint8",
              "name": "vsHack",
              "type": "uint8"
            },
            {
              "internalType": "enum BCTypes.DoorStatus",
              "name": "status",
              "type": "uint8"
            }
          ],
          "internalType": "struct BCTypes.Door[]",
          "name": "",
          "type": "tuple[]"
        }
      ],
      "stateMutability": "view",
      "type": "function"
    },
    {
      "inputs": [
        {
          "internalType": "uint256",
          "name": "_mapId",
          "type": "uint256"
        },
        {
          "internalType": "uint256",
          "name": "_row",
          "type": "uint256"
        },
        {
          "internalType": "uint256",
          "name": "_col",
          "type": "uint256"
        }
      ],
      "name": "extGetGameTile",
      "outputs": [
        {
          "components": [
            {
              "internalType": "uint8",
              "name": "roomId",
              "type": "uint8"
            },
            {
              "internalType": "uint8",
              "name": "parentId",
              "type": "uint8"
            },
            {
              "internalType": "uint256[4]",
              "name": "doors",
              "type": "uint256[4]"
            },
            {
              "internalType": "bool",
              "name": "explored",
              "type": "bool"
            },
            {
              "internalType": "bool",
              "name": "looted",
              "type": "bool"
            },
            {
              "internalType": "bool",
              "name": "hasVent",
              "type": "bool"
            },
            {
              "internalType": "bool",
              "name": "hasHazard",
              "type": "bool"
            }
          ],
          "internalType": "struct BCTypes.GameTile",
          "name": "",
          "type": "tuple"
        }
      ],
      "stateMutability": "view",
      "type": "function"
    },
    {
      "inputs": [
        {
          "internalType": "uint256",
          "name": "_mapId",
          "type": "uint256"
        }
      ],
      "name": "extGetMainReactorCoords",
      "outputs": [
        {
          "internalType": "uint256",
          "name": "",
          "type": "uint256"
        },
        {
          "internalType": "uint256",
          "name": "",
          "type": "uint256"
        }
      ],
      "stateMutability": "view",
      "type": "function"
    },
    {
      "inputs": [
        {
          "internalType": "uint256",
          "name": "_mapId",
          "type": "uint256"
        },
        {
          "internalType": "uint256",
          "name": "_row",
          "type": "uint256"
        },
        {
          "internalType": "uint256",
          "name": "_col",
          "type": "uint256"
        }
      ],
      "name": "extGetRoom",
      "outputs": [
        {
          "components": [
            {
              "internalType": "enum BCTypes.BCEventType",
              "name": "eventType",
              "type": "uint8"
            },
            {
              "internalType": "uint256",
              "name": "eventNum",
              "type": "uint256"
            },
            {
              "internalType": "uint8",
              "name": "numItems",
              "type": "uint8"
            },
            {
              "internalType": "uint8",
              "name": "numData",
              "type": "uint8"
            },
            {
              "internalType": "bool",
              "name": "sigDetected",
              "type": "bool"
            }
          ],
          "internalType": "struct BCTypes.RoomTile",
          "name": "",
          "type": "tuple"
        }
      ],
      "stateMutability": "view",
      "type": "function"
    },
    {
      "inputs": [
        {
          "internalType": "uint256",
          "name": "_mapId",
          "type": "uint256"
        },
        {
          "internalType": "uint256",
          "name": "_roomId",
          "type": "uint256"
        }
      ],
      "name": "extGetRoomById",
      "outputs": [
        {
          "components": [
            {
              "internalType": "enum BCTypes.BCEventType",
              "name": "eventType",
              "type": "uint8"
            },
            {
              "internalType": "uint256",
              "name": "eventNum",
              "type": "uint256"
            },
            {
              "internalType": "uint8",
              "name": "numItems",
              "type": "uint8"
            },
            {
              "internalType": "uint8",
              "name": "numData",
              "type": "uint8"
            },
            {
              "internalType": "bool",
              "name": "sigDetected",
              "type": "bool"
            }
          ],
          "internalType": "struct BCTypes.RoomTile",
          "name": "",
          "type": "tuple"
        }
      ],
      "stateMutability": "view",
      "type": "function"
    },
    {
      "inputs": [
        {
          "internalType": "uint256",
          "name": "_mapId",
          "type": "uint256"
        },
        {
          "internalType": "uint256",
          "name": "row",
          "type": "uint256"
        },
        {
          "internalType": "uint256",
          "name": "col",
          "type": "uint256"
        }
      ],
      "name": "extGetRoomId",
      "outputs": [
        {
          "internalType": "uint256",
          "name": "",
          "type": "uint256"
        }
      ],
      "stateMutability": "view",
      "type": "function"
    },
    {
      "inputs": [
        {
          "internalType": "uint256",
          "name": "_mapId",
          "type": "uint256"
        }
      ],
      "name": "extGetRoomList",
      "outputs": [
        {
          "components": [
            {
              "internalType": "enum BCTypes.BCEventType",
              "name": "eventType",
              "type": "uint8"
            },
            {
              "internalType": "uint256",
              "name": "eventNum",
              "type": "uint256"
            },
            {
              "internalType": "uint8",
              "name": "numItems",
              "type": "uint8"
            },
            {
              "internalType": "uint8",
              "name": "numData",
              "type": "uint8"
            },
            {
              "internalType": "bool",
              "name": "sigDetected",
              "type": "bool"
            }
          ],
          "internalType": "struct BCTypes.RoomTile[]",
          "name": "",
          "type": "tuple[]"
        }
      ],
      "stateMutability": "view",
      "type": "function"
    },
    {
      "inputs": [
        {
          "internalType": "uint256",
          "name": "_mapId",
          "type": "uint256"
        },
        {
          "internalType": "uint256",
          "name": "_row",
          "type": "uint256"
        },
        {
          "internalType": "uint256",
          "name": "_col",
          "type": "uint256"
        },
        {
          "internalType": "bool",
          "name": "_hasHazard",
          "type": "bool"
        }
      ],
      "name": "extSetHazardStatus",
      "outputs": [],
      "stateMutability": "nonpayable",
      "type": "function"
    },
    {
      "inputs": [
        {
          "internalType": "uint256",
          "name": "_mapId",
          "type": "uint256"
        },
        {
          "internalType": "uint256",
          "name": "_distance",
          "type": "uint256"
        }
      ],
      "name": "extSpreadHazards",
      "outputs": [],
      "stateMutability": "nonpayable",
      "type": "function"
    },
    {
      "inputs": [],
      "name": "game",
      "outputs": [
        {
          "internalType": "address",
          "name": "",
          "type": "address"
        }
      ],
      "stateMutability": "view",
      "type": "function"
    },
    {
      "inputs": [
        {
          "components": [
            {
              "internalType": "uint8",
              "name": "row",
              "type": "uint8"
            },
            {
              "internalType": "uint8",
              "name": "col",
              "type": "uint8"
            }
          ],
          "internalType": "struct BCTypes.Position",
          "name": "_firstRoom",
          "type": "tuple"
        },
        {
          "components": [
            {
              "internalType": "uint8",
              "name": "row",
              "type": "uint8"
            },
            {
              "internalType": "uint8",
              "name": "col",
              "type": "uint8"
            }
          ],
          "internalType": "struct BCTypes.Position",
          "name": "_secondRoom",
          "type": "tuple"
        }
      ],
      "name": "getDirectionBetween",
      "outputs": [
        {
          "internalType": "uint256",
          "name": "",
          "type": "uint256"
        }
      ],
      "stateMutability": "pure",
      "type": "function"
    },
    {
      "inputs": [
        {
          "internalType": "uint256",
          "name": "_mapId",
          "type": "uint256"
        },
        {
          "internalType": "uint256",
          "name": "_row",
          "type": "uint256"
        },
        {
          "internalType": "uint256",
          "name": "_col",
          "type": "uint256"
        },
        {
          "internalType": "uint256",
          "name": "_direction",
          "type": "uint256"
        }
      ],
      "name": "getDoor",
      "outputs": [
        {
          "components": [
            {
              "internalType": "uint8",
              "name": "vsBreach",
              "type": "uint8"
            },
            {
              "internalType": "uint8",
              "name": "vsHack",
              "type": "uint8"
            },
            {
              "internalType": "enum BCTypes.DoorStatus",
              "name": "status",
              "type": "uint8"
            }
          ],
          "internalType": "struct BCTypes.Door",
          "name": "",
          "type": "tuple"
        }
      ],
      "stateMutability": "view",
      "type": "function"
    },
    {
      "inputs": [
        {
          "internalType": "uint256",
          "name": "_mapId",
          "type": "uint256"
        },
        {
          "internalType": "uint256",
          "name": "_row",
          "type": "uint256"
        },
        {
          "internalType": "uint256",
          "name": "_col",
          "type": "uint256"
        }
      ],
      "name": "getDoorDirections",
      "outputs": [
        {
          "internalType": "bool[4]",
          "name": "",
          "type": "bool[4]"
        }
      ],
      "stateMutability": "view",
      "type": "function"
    },
    {
      "inputs": [
        {
          "internalType": "uint256",
          "name": "_mapId",
          "type": "uint256"
        },
        {
          "components": [
            {
              "internalType": "uint8",
              "name": "row",
              "type": "uint8"
            },
            {
              "internalType": "uint8",
              "name": "col",
              "type": "uint8"
            }
          ],
          "internalType": "struct BCTypes.Position",
          "name": "_first",
          "type": "tuple"
        },
        {
          "components": [
            {
              "internalType": "uint8",
              "name": "row",
              "type": "uint8"
            },
            {
              "internalType": "uint8",
              "name": "col",
              "type": "uint8"
            }
          ],
          "internalType": "struct BCTypes.Position",
          "name": "_second",
          "type": "tuple"
        },
        {
          "internalType": "bool",
          "name": "_ignoreClosed",
          "type": "bool"
        }
      ],
      "name": "getLineOfSight",
      "outputs": [
        {
          "internalType": "bool",
          "name": "",
          "type": "bool"
        }
      ],
      "stateMutability": "view",
      "type": "function"
    },
    {
      "inputs": [
        {
          "internalType": "uint256",
          "name": "_direction",
          "type": "uint256"
        },
        {
          "components": [
            {
              "internalType": "uint8",
              "name": "row",
              "type": "uint8"
            },
            {
              "internalType": "uint8",
              "name": "col",
              "type": "uint8"
            }
          ],
          "internalType": "struct BCTypes.Position",
          "name": "_start",
          "type": "tuple"
        }
      ],
      "name": "getNeighborRoom",
      "outputs": [
        {
          "components": [
            {
              "internalType": "uint8",
              "name": "row",
              "type": "uint8"
            },
            {
              "internalType": "uint8",
              "name": "col",
              "type": "uint8"
            }
          ],
          "internalType": "struct BCTypes.Position",
          "name": "",
          "type": "tuple"
        }
      ],
      "stateMutability": "pure",
      "type": "function"
    },
    {
      "inputs": [
        {
          "internalType": "uint256",
          "name": "_traitNum",
          "type": "uint256"
        },
        {
          "internalType": "uint256",
          "name": "_subTraitNum",
          "type": "uint256"
        }
      ],
      "name": "getUIOffset",
      "outputs": [
        {
          "internalType": "uint256",
          "name": "",
          "type": "uint256"
        }
      ],
      "stateMutability": "pure",
      "type": "function"
    },
    {
      "inputs": [
        {
          "components": [
            {
              "internalType": "uint8",
              "name": "row",
              "type": "uint8"
            },
            {
              "internalType": "uint8",
              "name": "col",
              "type": "uint8"
            }
          ],
          "internalType": "struct BCTypes.Position",
          "name": "_pos1",
          "type": "tuple"
        },
        {
          "components": [
            {
              "internalType": "uint8",
              "name": "row",
              "type": "uint8"
            },
            {
              "internalType": "uint8",
              "name": "col",
              "type": "uint8"
            }
          ],
          "internalType": "struct BCTypes.Position",
          "name": "_pos2",
          "type": "tuple"
        }
      ],
      "name": "manhattanDistance",
      "outputs": [
        {
          "internalType": "uint256",
          "name": "",
          "type": "uint256"
        }
      ],
      "stateMutability": "pure",
      "type": "function"
    },
    {
      "inputs": [
        {
          "internalType": "uint256",
          "name": "",
          "type": "uint256"
        }
      ],
      "name": "maps",
      "outputs": [
        {
          "internalType": "uint8",
          "name": "numDoors",
          "type": "uint8"
        },
        {
          "components": [
            {
              "internalType": "uint8",
              "name": "row",
              "type": "uint8"
            },
            {
              "internalType": "uint8",
              "name": "col",
              "type": "uint8"
            }
          ],
          "internalType": "struct BCTypes.Position",
          "name": "startPosition",
          "type": "tuple"
        },
        {
          "internalType": "uint256",
          "name": "mainReactorRow",
          "type": "uint256"
        },
        {
          "internalType": "uint256",
          "name": "mainReactorCol",
          "type": "uint256"
        }
      ],
      "stateMutability": "view",
      "type": "function"
    },
    {
      "inputs": [
        {
          "internalType": "uint256",
          "name": "_mapId",
          "type": "uint256"
        },
        {
          "components": [
            {
              "internalType": "uint8",
              "name": "row",
              "type": "uint8"
            },
            {
              "internalType": "uint8",
              "name": "col",
              "type": "uint8"
            }
          ],
          "internalType": "struct BCTypes.Position",
          "name": "_start",
          "type": "tuple"
        },
        {
          "components": [
            {
              "internalType": "uint8",
              "name": "row",
              "type": "uint8"
            },
            {
              "internalType": "uint8",
              "name": "col",
              "type": "uint8"
            }
          ],
          "internalType": "struct BCTypes.Position",
          "name": "_finish",
          "type": "tuple"
        },
        {
          "internalType": "bool",
          "name": "_ignoreClosed",
          "type": "bool"
        },
        {
          "internalType": "bool",
          "name": "_useVents",
          "type": "bool"
        },
        {
          "internalType": "uint256",
          "name": "_moveLimit",
          "type": "uint256"
        }
      ],
      "name": "moveToOrCloser",
      "outputs": [
        {
          "components": [
            {
              "internalType": "uint8",
              "name": "row",
              "type": "uint8"
            },
            {
              "internalType": "uint8",
              "name": "col",
              "type": "uint8"
            }
          ],
          "internalType": "struct BCTypes.Position",
          "name": "",
          "type": "tuple"
        }
      ],
      "stateMutability": "view",
      "type": "function"
    },
    {
      "inputs": [
        {
          "internalType": "uint256",
          "name": "_min",
          "type": "uint256"
        },
        {
          "internalType": "uint256",
          "name": "_max",
          "type": "uint256"
        },
        {
          "internalType": "uint256",
          "name": "_val",
          "type": "uint256"
        },
        {
          "internalType": "uint256",
          "name": "_valMax",
          "type": "uint256"
        }
      ],
      "name": "normalizeToSmallRange",
      "outputs": [
        {
          "internalType": "uint8",
          "name": "",
          "type": "uint8"
        }
      ],
      "stateMutability": "pure",
      "type": "function"
    },
    {
      "inputs": [],
      "name": "numRooms",
      "outputs": [
        {
          "internalType": "uint256",
          "name": "",
          "type": "uint256"
        }
      ],
      "stateMutability": "view",
      "type": "function"
    },
    {
      "inputs": [
        {
          "internalType": "uint256",
          "name": "_direction",
          "type": "uint256"
        }
      ],
      "name": "opposite",
      "outputs": [
        {
          "internalType": "uint256",
          "name": "",
          "type": "uint256"
        }
      ],
      "stateMutability": "pure",
      "type": "function"
    },
    {
      "inputs": [],
      "name": "owner",
      "outputs": [
        {
          "internalType": "address",
          "name": "",
          "type": "address"
        }
      ],
      "stateMutability": "view",
      "type": "function"
    },
    {
      "inputs": [],
      "name": "playersAddress",
      "outputs": [
        {
          "internalType": "address",
          "name": "",
          "type": "address"
        }
      ],
      "stateMutability": "view",
      "type": "function"
    },
    {
      "inputs": [],
      "name": "randKeccak",
      "outputs": [
        {
          "internalType": "bytes32",
          "name": "",
          "type": "bytes32"
        }
      ],
      "stateMutability": "nonpayable",
      "type": "function"
    },
    {
      "inputs": [],
      "name": "renounceOwnership",
      "outputs": [],
      "stateMutability": "nonpayable",
      "type": "function"
    },
    {
      "inputs": [
        {
          "internalType": "uint256",
          "name": "_mapId",
          "type": "uint256"
        }
      ],
      "name": "resetOpenDoors",
      "outputs": [],
      "stateMutability": "nonpayable",
      "type": "function"
    },
    {
      "inputs": [
        {
          "internalType": "uint256",
          "name": "_gameId",
          "type": "uint256"
        },
        {
          "internalType": "uint256",
          "name": "_for",
          "type": "uint256"
        },
        {
          "internalType": "uint256",
          "name": "_against",
          "type": "uint256"
        }
      ],
      "name": "resolveChallenge",
      "outputs": [
        {
          "internalType": "bool",
          "name": "",
          "type": "bool"
        }
      ],
      "stateMutability": "nonpayable",
      "type": "function"
    },
    {
      "inputs": [
        {
          "internalType": "uint256",
          "name": "_gameId",
          "type": "uint256"
        }
      ],
      "name": "roll",
      "outputs": [
        {
          "internalType": "uint256",
          "name": "",
          "type": "uint256"
        }
      ],
      "stateMutability": "nonpayable",
      "type": "function"
    },
    {
      "inputs": [
        {
          "internalType": "uint256",
          "name": "",
          "type": "uint256"
        }
      ],
      "name": "roomList",
      "outputs": [
        {
          "internalType": "enum BCTypes.BCEventType",
          "name": "eventType",
          "type": "uint8"
        },
        {
          "internalType": "uint256",
          "name": "eventNum",
          "type": "uint256"
        },
        {
          "internalType": "uint8",
          "name": "numItems",
          "type": "uint8"
        },
        {
          "internalType": "uint8",
          "name": "numData",
          "type": "uint8"
        },
        {
          "internalType": "bool",
          "name": "sigDetected",
          "type": "bool"
        }
      ],
      "stateMutability": "view",
      "type": "function"
    },
    {
      "inputs": [],
      "name": "roomTiles",
      "outputs": [
        {
          "internalType": "contract RoomTileInterface",
          "name": "",
          "type": "address"
        }
      ],
      "stateMutability": "view",
      "type": "function"
    },
    {
      "inputs": [
        {
          "internalType": "address",
          "name": "_gameAddress",
          "type": "address"
        },
        {
          "internalType": "address",
          "name": "_utilsAddress",
          "type": "address"
        },
        {
          "internalType": "address",
          "name": "_roomTilesAddress",
          "type": "address"
        },
        {
          "internalType": "address",
          "name": "_actionsAddress",
          "type": "address"
        },
        {
          "internalType": "address",
          "name": "_playersAddress",
          "type": "address"
        }
      ],
      "name": "setContractAddresses",
      "outputs": [],
      "stateMutability": "nonpayable",
      "type": "function"
    },
    {
      "inputs": [
        {
          "internalType": "uint256",
          "name": "_mapId",
          "type": "uint256"
        },
        {
          "internalType": "uint256",
          "name": "_row",
          "type": "uint256"
        },
        {
          "internalType": "uint256",
          "name": "_col",
          "type": "uint256"
        },
        {
          "internalType": "uint256",
          "name": "_direction",
          "type": "uint256"
        },
        {
          "internalType": "enum BCTypes.DoorStatus",
          "name": "_status",
          "type": "uint8"
        },
        {
          "internalType": "uint256",
          "name": "_strength",
          "type": "uint256"
        }
      ],
      "name": "setDoorFromPos",
      "outputs": [],
      "stateMutability": "nonpayable",
      "type": "function"
    },
    {
      "inputs": [
        {
          "internalType": "uint256",
          "name": "_mapId",
          "type": "uint256"
        },
        {
          "internalType": "uint256",
          "name": "_row",
          "type": "uint256"
        },
        {
          "internalType": "uint256",
          "name": "_col",
          "type": "uint256"
        }
      ],
      "name": "setLooted",
      "outputs": [],
      "stateMutability": "nonpayable",
      "type": "function"
    },
    {
      "inputs": [
        {
          "internalType": "bytes32",
          "name": "_hash",
          "type": "bytes32"
        },
        {
          "internalType": "uint256",
          "name": "_size",
          "type": "uint256"
        },
        {
          "internalType": "uint256",
          "name": "_offset",
          "type": "uint256"
        }
      ],
      "name": "sliceHashToSmallInt",
      "outputs": [
        {
          "internalType": "uint8",
          "name": "",
          "type": "uint8"
        }
      ],
      "stateMutability": "pure",
      "type": "function"
    },
    {
      "inputs": [
        {
          "internalType": "uint8",
          "name": "_min",
          "type": "uint8"
        },
        {
          "internalType": "uint8",
          "name": "_max",
          "type": "uint8"
        }
      ],
      "name": "smallIntBetweenVals",
      "outputs": [
        {
          "internalType": "uint8",
          "name": "",
          "type": "uint8"
        }
      ],
      "stateMutability": "nonpayable",
      "type": "function"
    },
    {
      "inputs": [
        {
          "internalType": "address",
          "name": "newOwner",
          "type": "address"
        }
      ],
      "name": "transferOwnership",
      "outputs": [],
      "stateMutability": "nonpayable",
      "type": "function"
    }
  ],
  "transactionHash": "0xfe0de28241ff8c07d4c2558e27df53f33c02cbfd465308b7630fefbc3b92950f",
  "args": [],
  "numDeployments": 1,
  "solcInputHash": "c6c1394e60ca82b2273e48feef761973",
  "bytecode": "0x608060405260006001553480156200001657600080fd5b50620000223362000028565b62000078565b600080546001600160a01b038381166001600160a01b0319831681178455604051919092169283917f8be0079c531659141344cd1fd0a4f28419497f9722a3daafe3b4186f6b6457e09190a35050565b61471180620000886000396000f3fe608060405234801561001057600080fd5b50600436106102695760003560e01c80637b45c0d411610151578063c6b41b45116100c3578063f10bff2b11610087578063f10bff2b14610618578063f2fde38b1461062b578063f7157f641461063e578063f9dfbfcb14610651578063fa3993c214610671578063fe368d7a1461068457600080fd5b8063c6b41b45146105c4578063c8e9ac96146105d7578063ce28613f146105ea578063e847ae1e146105fd578063f01fc35a1461061057600080fd5b80638da5cb5b116101155780638da5cb5b1461050f578063951fc3fe1461052057806397f34c3f14610533578063a63a9aab14610546578063b14ca5751461059e578063c3fe3e28146105b157600080fd5b80637b45c0d4146104a357806381bad36d146104b65780638214f222146104c957806386e529d0146104dc5780638af13fd2146104ef57600080fd5b806353011696116101ea5780635f8951e6116101ae5780635f8951e6146103fd57806364db84bf1461042557806369568fd5146104385780636ea1dcd814610458578063715018a61461047857806375990a0e1461048057600080fd5b8063530116961461038a57806358058283146103af57806358308aa8146103c257806359215223146103d75780635dc96967146103ea57600080fd5b80631e1de205116102315780631e1de2051461030c5780631ef04416146103145780631f7b4f30146103345780632ec6572a1461034757806345e1e03c1461036a57600080fd5b806302861c6c1461026e57806303b414e41461029757806315636a4d146102c25780631b5ac4b5146102e25780631cdec3ad14610303575b600080fd5b61028161027c366004613bf7565b610697565b60405161028e9190613c8c565b60405180910390f35b6005546102aa906001600160a01b031681565b6040516001600160a01b03909116815260200161028e565b6102d56102d0366004613bf7565b610766565b60405161028e9190613c9a565b6102f56102f0366004613ccd565b6108ab565b60405190815260200161028e565b6102f560075481565b6102f56108cb565b610327610322366004613ccd565b610943565b60405161028e9190613d5d565b6102f5610342366004613ccd565b610b37565b61035a610355366004613e96565b610b93565b604051901515815260200161028e565b61037d610378366004613ee7565b610d62565b60405161028e9190613f56565b61039d610398366004613f74565b6111bd565b60405160ff909116815260200161028e565b6102816103bd366004613fa6565b6111fa565b6103d56103d0366004613ccd565b611283565b005b6103d56103e5366004613fc8565b611390565b61035a6103f8366004613bf7565b611532565b61041061040b366004613ccd565b6115cd565b6040805192835260208301919091520161028e565b6102f5610433366004613fa6565b611623565b61044b610446366004613ccd565b61163b565b60405161028e9190614055565b61046b610466366004613f74565b61179b565b60405161028e91906140a3565b6103d56118d9565b61049361048e366004613ccd565b6118ed565b60405161028e94939291906140b1565b6004546102aa906001600160a01b031681565b6102f56104c4366004613f74565b61194e565b6102f56104d7366004613ccd565b611a3e565b6103d56104ea366004613bf7565b611ab8565b6105026104fd366004613ccd565b611b6b565b60405161028e91906140ea565b6000546001600160a01b03166102aa565b61037d61052e36600461412c565b611c7e565b61039d610541366004613bf7565b611da8565b61058d610554366004613ccd565b60066020526000908152604090208054600182015460029092015460ff9182169291818116916101008104821691620100009091041685565b60405161028e959493929190614159565b6103d56105ac366004613f74565b611dd3565b6002546102aa906001600160a01b031681565b6103d56105d2366004613fa6565b611e2f565b6102f56105e5366004613bf7565b61218c565b61039d6105f8366004614191565b6121d4565b6103d561060b3660046141e6565b612284565b6102f56122e8565b6102f561062636600461424b565b612521565b6103d5610639366004614277565b61256e565b6003546102aa906001600160a01b031681565b61066461065f366004613bf7565b6125e7565b60405161028e9190614292565b6102f561067f36600461424b565b6126cb565b6103d56106923660046142a1565b612793565b61069f613a4f565b60066000600886815481106106b6576106b66142d7565b600091825260208083208884526001600790930201919091018152604080832087845282528083205460ff9081168552918401949094529183019020825160a0810190935280549091839116600581111561071357610713613c23565b600581111561072457610724613c23565b81526001820154602082015260029091015460ff80821660408401526101008204811660608401526201000090910416151560809091015290505b9392505050565b61076e613a80565b600060088581548110610783576107836142d7565b6000918252602080832087845260016007909302018201815260408084208785529091529091200190506107b5613a80565b60005b60048110156108a1576000600888815481106107d6576107d66142d7565b906000526020600020906007020160020160008584600481106107fb576107fb6142d7565b015481526020810191909152604001600020805490915062010000900460ff16600181600481111561082f5761082f613c23565b148061084c5750600281600481111561084a5761084a613c23565b145b806108685750600381600481111561086657610866613c23565b145b1561088c576001848460048110610881576108816142d7565b911515602090920201525b5050808061089990614303565b9150506107b8565b5095945050505050565b6000808212156108c3576108be8261431c565b6108c5565b815b92915050565b60018054600091826108dc83614303565b91905055506001546001436108f19190614338565b403360405160200161092893929190928352602083019190915260601b6bffffffffffffffffffffffff1916604082015260540190565b60405160208183030381529060405280519060200120905090565b60408051600b808252610180820190925260609160009190816020015b606081526020019060019003908161096057905050905060005b600b8110156109e55760408051600b808252610180820190925290816020015b6109a2613a9e565b81526020019060019003908161099a579050508282815181106109c7576109c76142d7565b602002602001018190525080806109dd90614303565b91505061097a565b5060005b600b811015610b305760005b600b811015610b1d5760088581548110610a1157610a116142d7565b600091825260208083208584526001600790930201820181526040808420858552825292839020835160e081018552815460ff808216835261010090910416928101929092528351608081018552919390929084019190830160048282826020028201915b815481526020019060010190808311610a765750505091835250506005919091015460ff80821615156020840152610100820481161515604084015262010000820481161515606084015263010000009091041615156080909101528351849084908110610ae657610ae66142d7565b60200260200101518281518110610aff57610aff6142d7565b60200260200101819052508080610b1590614303565b9150506109f5565b5080610b2881614303565b9150506109e9565b5092915050565b600080610b46600160066121d4565b60ff1690507ffe34d093a460a16ee5fb374540914d1c734a17502c0c1a87b387c8d6097e1c518382604051610b85929190918252602082015260400190565b60405180910390a192915050565b8151835160009160ff9182169116148015610bbb5750826020015160ff16846020015160ff16145b15610bc857506001610d5a565b8251845160ff908116911614801590610bef5750826020015160ff16846020015160ff1614155b15610bfc57506000610d5a565b8251845160009160ff908116911603610c30578451845160ff91821691161115610c2857506002610c52565b506003610c52565b846020015160ff16846020015160ff161115610c4e57506001610c52565b5060005b6000859050600060088881548110610c6c57610c6c6142d7565b906000526020600020906007020190505b8551825160ff9081169116148015610ca25750856020015160ff16826020015160ff16145b610d525760008381526002820160205260409020858015610cde57506001815462010000900460ff166004811115610cdc57610cdc613c23565b145b80610d2957506002815462010000900460ff166004811115610d0257610d02613c23565b1480610d2957506003815462010000900460ff166004811115610d2757610d27613c23565b145b15610d3f57610d388484611c7e565b9250610d4c565b6000945050505050610d5a565b50610c7d565b600193505050505b949350505050565b6040805180820190915260008082526020820152610d7e613abd565b600181886000015160ff16600b8110610d9957610d996142d7565b6020020151886020015160ff16600b8110610db657610db66142d7565b91151560209092020152610dc8613aeb565b60408051600180825281830190925260009190829082816020015b6040805180820190915260008082526020820152815260200190600190039081610de35790505090508a81600081518110610e2057610e206142d7565b60209081029190910101528084525b6000610e3b8484614338565b1115611170576000848460198110610e5557610e556142d7565b6020020151905060008160018351610e6d9190614338565b81518110610e7d57610e7d6142d7565b602002602001015190508480610e9290614303565b9550506000610ea38f838e8e612842565b905060005b6004811015611167576000828260048110610ec557610ec56142d7565b6020020151805190915060ff16158015610ee45750602081015160ff16155b15610eef5750611155565b80518a9060ff16600b8110610f0657610f066142d7565b6020020151816020015160ff16600b8110610f2357610f236142d7565b602002015115610f335750611155565b8e51815160ff9081169116148015610f5857508e6020015160ff16816020015160ff16145b15610fb8578b85516001610f6c919061434b565b11610f83578e9a50505050505050505050506111b3565b84610f8f60018e614338565b81518110610f9f57610f9f6142d7565b60200260200101519a50505050505050505050506111b3565b60018a826000015160ff16600b8110610fd357610fd36142d7565b6020020151826020015160ff16600b8110610ff057610ff06142d7565b91151560209092020152845160009061100a90600161434b565b67ffffffffffffffff81111561102257611022613df2565b60405190808252806020026020018201604052801561106757816020015b60408051808201909152600080825260208201528152602001906001900390816110405790505b50905060005b6001825161107b9190614338565b8110156110cc57868181518110611094576110946142d7565b60200260200101518282815181106110ae576110ae6142d7565b602002602001018190525080806110c490614303565b91505061106d565b508181600183516110dd9190614338565b815181106110ed576110ed6142d7565b6020026020010181905250808a896019811061110b5761110b6142d7565b60200201528761111a81614303565b985050601988036111525780600081518110611138576111386142d7565b60200260200101519b5050505050505050505050506111b3565b50505b8061115f81614303565b915050610ea8565b50505050610e2f565b60405162461bcd60e51b815260206004820152601360248201527208cc2d2d8cac840e8de40ccd2dcc840e0c2e8d606b1b60448201526064015b60405180910390fd5b9695505050505050565b6000806111ca8686614338565b90506000836111d9868461435e565b6111e3919061438b565b90506111ef878261434b565b979650505050505050565b611202613a4f565b60008281526006602052604090819020815160a081019092528054829060ff16600581111561123357611233613c23565b600581111561124457611244613c23565b81526001820154602082015260029091015460ff8082166040840152610100820481166060840152620100009091041615156080909101529392505050565b6002546001600160a01b0316331461129a57600080fd5b60005b600882815481106112b0576112b06142d7565b600091825260209091206003600790920201015460ff1681101561138c576002600883815481106112e3576112e36142d7565b600091825260208083208584526007929092029091016002019052604090205462010000900460ff16600481111561131d5761131d613c23565b0361137a57600160088381548110611337576113376142d7565b60009182526020808320858452600260079093020191909101905260409020805462ff000019166201000083600481111561137457611374613c23565b02179055505b8061138481614303565b91505061129d565b5050565b6002546001600160a01b03163314806113b357506004546001600160a01b031633145b806113c857506005546001600160a01b031633145b61141e5760405162461bcd60e51b815260206004820152602160248201527f4e6f742067616d652f616374696f6e732f706c617965727320636f6e747261636044820152601d60fa1b60648201526084016111aa565b600060088781548110611433576114336142d7565b600091825260208083208984526001600790930201820181526040808420898552909152918290208251608081019093520160048282826020028201915b81548152602001906001019080831161147157505050505090506000600888815481106114a0576114a06142d7565b906000526020600020906007020160020160008387600481106114c5576114c56142d7565b602002015181526020019081526020016000209050838160000160026101000a81548160ff0219169083600481111561150057611500613c23565b0217905550821561152857805461ffff191661010060ff851690810260ff1916919091171781555b5050505050505050565b60008061153e85610b37565b6040805187815260208101839052908101869052606081018590529091507f75b6a8325595f91135e07382840634226793c68c9e59623da7e10d7ad3d95b959060800160405180910390a18060010361159b57600091505061075f565b6003836115a8868461434b565b6115b2919061439f565b13156115c257600191505061075f565b506000949350505050565b600080600883815481106115e3576115e36142d7565b90600052602060002090600702016005015460088481548110611608576116086142d7565b90600052602060002090600702016006015491509150915091565b60008161163184600461435e565b61075f919061434b565b6060600060088381548110611652576116526142d7565b600091825260209091206003600790920201015460ff1667ffffffffffffffff81111561168157611681613df2565b6040519080825280602002602001820160405280156116d357816020015b6116c060408051606081018252600080825260208201819052909182015290565b81526020019060019003908161169f5790505b50905060005b8151811015610b3057600884815481106116f5576116f56142d7565b6000918252602080832084845260026007909302019190910181526040918290208251606081018452815460ff8082168352610100820481169483019490945290939192918401916201000090910416600481111561175657611756613c23565b600481111561176757611767613c23565b8152505082828151811061177d5761177d6142d7565b6020026020010181905250808061179390614303565b9150506116d9565b6117bc60408051606081018252600080825260208201819052909182015290565b6000600886815481106117d1576117d16142d7565b600091825260208083208884526001600790930201820181526040808420888552909152918290208251608081019093520160048282826020028201915b81548152602001906001019080831161180f57505050505090506008868154811061183c5761183c6142d7565b90600052602060002090600702016002016000828560048110611861576118616142d7565b6020908102919091015182528181019290925260409081016000208151606081018352815460ff8082168352610100820481169583019590955290939192840191620100009091041660048111156118bb576118bb613c23565b60048111156118cc576118cc613c23565b9052509695505050505050565b6118e1612a8b565b6118eb6000612ae5565b565b600881815481106118fd57600080fd5b600091825260209182902060036007909202019081015460408051808201909152600483015460ff818116835261010090910481169482019490945260058301546006909301549390911693509184565b6002546000906001600160a01b0316331461196857600080fd5b60006008868154811061197d5761197d6142d7565b60009182526020808320888452600160079093020191909101815260408083208784529091529020905082156119c157805460ff191660ff84161790555080610d5a565b805460ff16606319016119e357805460ff191660129081179091559050610d5a565b805460ff1660001901611a3257611a1960088781548110611a0657611a066142d7565b9060005260206000209060070201612b35565b815460ff191660ff919091169081179091559050610d5a565b50600095945050505050565b600081600003611a5057506001919050565b81600103611a6057506000919050565b81600203611a7057506003919050565b81600303611a8057506002919050565b60405162461bcd60e51b815260206004820152600d60248201526c2130b2103234b932b1ba34b7b760991b60448201526064016111aa565b6004546001600160a01b03163314611b125760405162461bcd60e51b815260206004820181905260248201527f4e6f7420616374696f6e7320636f6e7472616374202d207365744c6f6f74656460448201526064016111aa565b600160088481548110611b2757611b276142d7565b6000918252602080832095835260016007909202909501018452604080822093825292909352912060050180549115156101000261ff001990921691909117905550565b6060600060075467ffffffffffffffff811115611b8a57611b8a613df2565b604051908082528060200260200182016040528015611bc357816020015b611bb0613a4f565b815260200190600190039081611ba85790505b50905060005b8151811015610b305760008181526006602052604090819020815160a081019092528054829060ff166005811115611c0357611c03613c23565b6005811115611c1457611c14613c23565b81526001820154602082015260029091015460ff8082166040840152610100820481166060840152620100009091041615156080909101528251839083908110611c6057611c606142d7565b60200260200101819052508080611c7690614303565b915050611bc9565b604080518082019091526000808252602082015282600003611cd057604051806040016040528060018460000151611cb691906143bf565b60ff168152602001836020015160ff1681525090506108c5565b82600103611cf457604051806040016040528083600001516001611cb691906143d8565b82600203611d31576040518060400160405280836000015160ff16815260200183602001516001611d2591906143d8565b60ff16905290506108c5565b82600303611d62576040518060400160405280836000015160ff16815260200160018460200151611d2591906143bf565b6000611d6d84612c67565b604051602001611d7d9190614415565b60405160208183030381529060405290508060405162461bcd60e51b81526004016111aa9190614450565b600080826001611db9866002614567565b611dc39190614338565b901b8516831c9150509392505050565b611ddb612a8b565b8060088581548110611def57611def6142d7565b60009182526020808320968352600791909102909501600101855260408082209482529390945291909220805460ff191660ff9092169190911790555050565b6002546001600160a01b03163314611e4657600080fd5b611e4e613abd565b60005b828110156121865760005b600b811015611f115760005b600b811015611efe5760088681548110611e8457611e846142d7565b60009182526020808320858452600792909202909101600101815260408083208484529091529020600501546301000000900460ff168483600b8110611ecc57611ecc6142d7565b602002015182600b8110611ee257611ee26142d7565b9115156020909202015280611ef681614303565b915050611e68565b5080611f0981614303565b915050611e5c565b5060005b600b8110156121735760005b600b811015612160578382600b8110611f3c57611f3c6142d7565b602002015181600b8110611f5257611f526142d7565b60200201511561214e5760005b600481101561214c57600060088881548110611f7d57611f7d6142d7565b600091825260208083208784526001600790930201820181526040808420878552909152909120018260048110611fb657611fb66142d7565b01549050600060088981548110611fcf57611fcf6142d7565b600091825260208083208584526007929092029091016002019052604090205462010000900460ff169050600381600481111561200e5761200e613c23565b03612137578415801561201f575082155b1561202b57505061213a565b6120376001600b614338565b851480156120455750826001145b1561205157505061213a565b8315801561205f5750826003145b1561206b57505061213a565b6120776001600b614338565b841480156120855750826002145b1561209157505061213a565b60006120b78460405180604001604052808960ff1681526020018860ff16815250611c7e565b9050600060088b815481106120ce576120ce6142d7565b60009182526020808320855160ff908116855260079390930201600101815260408084208683015184168552909152909120805490925016158015906121195750805460ff16600214155b156121345760058101805463ff000000191663010000001790555b50505b50505b8061214481614303565b915050611f5f565b505b8061215881614303565b915050611f21565b508061216b81614303565b915050611f15565b508061217e81614303565b915050611e51565b50505050565b6000600884815481106121a1576121a16142d7565b6000918252602080832095835260079190910290940160010184526040808220938252929093525090205460ff16919050565b60018054600091826121e583614303565b91905055506000336001546001436121fd9190614338565b60405160609390931b6bffffffffffffffffffffffff19166020840152603483019190915240605482015260740160408051601f1981840301815291905280516020909101209050600061225185856143bf565b61225c9060016143d8565b90508460ff168160ff16836122719190614573565b61227b919061434b565b95945050505050565b61228c612a8b565b600280546001600160a01b038088166001600160a01b031992831617909255600380548684169083161790556004805485841690831617905560058054928416929091169190911790556122de612d68565b6007555050505050565b6002546000906001600160a01b0316331461230257600080fd5b600880546001810182556000829052604080516103408101825260038152600460208201526005918101919091526006606082015260076080820181905260a0820193909352600960c0820152600a60e0820152600b610100820152600c610120820152600d610140820152600e610160820152600f61018082015260106101a082015260116101c082015260136101e08201526014610200820152601561022082015260166102408201526017610260820152601861028082015260196102a0820152601a6102c08201819052601b6102e0830152601c610300830152601d610320830152929091027ff3f7a9fe364faab93b216da50a3214154f22a0a2b415b23a84c8169e8b636ee3019161241c9083908390613b13565b506040805160608101825260ff808252602082015290810160009052600383015460ff9081166000908152600285016020908152604091829020845181549286015185166101000261ffff19909316941693909317178083559083015190829062ff000019166201000083600481111561249857612498613c23565b0217905550505060038201805460ff169060006124b483614587565b82546101009290920a60ff8181021990931691909216919091021790555060408051808201909152600a8152600660209091015260048201805461ffff191661060a17905561250282612ef5565b61250b826137bc565b60085461251a90600190614338565b9250505090565b600080612541836000015160000b856000015160000b6102f0919061439f565b90506000612562846020015160000b866020015160000b6102f0919061439f565b905061227b818361434b565b612576612a8b565b6001600160a01b0381166125db5760405162461bcd60e51b815260206004820152602660248201527f4f776e61626c653a206e6577206f776e657220697320746865207a65726f206160448201526564647265737360d01b60648201526084016111aa565b6125e481612ae5565b50565b6125ef613a9e565b60088481548110612602576126026142d7565b600091825260208083208684526001600790930201820181526040808420868552825292839020835160e081018552815460ff808216835261010090910416928101929092528351608081018552919390929084019190830160048282826020028201915b8154815260200190600101908083116126675750505091835250506005919091015460ff8082161515602084015261010082048116151560408401526201000082048116151560608401526301000000909104161515608090910152949350505050565b805182516000916126db916145a6565b60000b6001036126ed575060006108c5565b815183516126fb91906145a6565b60000b1961270b575060016108c5565b8160200151836020015161271f91906145a6565b60000b1961272f575060026108c5565b8160200151836020015161274391906145a6565b60000b600103612755575060036108c5565b60405162461bcd60e51b8152602060048201526013602482015272115c9c9bdc8e88139bdd0818591a9858d95b9d606a1b60448201526064016111aa565b6005546001600160a01b031633146127e35760405162461bcd60e51b8152602060048201526013602482015272139bdd081c1b185e595c8818dbdb9d1c9858dd606a1b60448201526064016111aa565b80600885815481106127f7576127f76142d7565b600091825260208083209683526001600790920290960101855260408082209482529390945291909220600501805491151563010000000263ff000000199092169190911790555050565b61284a613b5e565b612852613b5e565b60005b60048110156108a157600061286a8288611c7e565b9050600060088981548110612881576128816142d7565b600091825260208083208b5160ff9081168552600160079094029091018301825260408085208d840151909216855291529091200183600481106128c7576128c76142d7565b01549050600060088a815481106128e0576128e06142d7565b6000918252602080832085845260026007909302018201905260409091209150815462010000900460ff16600481111561291c5761291c613c23565b148061294357506003815462010000900460ff16600481111561294157612941613c23565b145b8061297157506001815462010000900460ff16600481111561296757612967613c23565b1480156129715750875b80612a275750868015612a27575060088a81548110612992576129926142d7565b600091825260208083208c5160ff908116855260079390930201600101815260408084208d8301518416855290915290912060050154620100009004168015612a27575060088a815481106129e9576129e96142d7565b60009182526020808320865160ff90811685526007939093020160010181526040808420878301518416855290915290912060050154620100009004165b15612a495782858560048110612a3f57612a3f6142d7565b6020020152612a75565b6040805180820190915260008082526020820152858560048110612a6f57612a6f6142d7565b60200201525b5050508080612a8390614303565b915050612855565b6000546001600160a01b031633146118eb5760405162461bcd60e51b815260206004820181905260248201527f4f776e61626c653a2063616c6c6572206973206e6f7420746865206f776e657260448201526064016111aa565b600080546001600160a01b038381166001600160a01b0319831681178455604051919092169283917f8be0079c531659141344cd1fd0a4f28419497f9722a3daafe3b4186f6b6457e09190a35050565b80546000908190612b4890600190614338565b90505b8015612c04576000612b5e6000836121d4565b9050836000018160ff1681548110612b7857612b786142d7565b9060005260206000200154846000018381548110612b9857612b986142d7565b9060005260206000200154856000018481548110612bb857612bb86142d7565b906000526020600020016000876000018560ff1681548110612bdc57612bdc6142d7565b6000918252602090912001929092559190915550819050612bfc816145c7565b915050612b4b565b5081546000908390612c1890600190614338565b81548110612c2857612c286142d7565b9060005260206000200154905082600001805480612c4857612c486145de565b6001900381819060005260206000200160009055905580915050919050565b606081600003612c8e5750506040805180820190915260018152600360fc1b602082015290565b8160005b8115612cb85780612ca281614303565b9150612cb19050600a8361438b565b9150612c92565b60008167ffffffffffffffff811115612cd357612cd3613df2565b6040519080825280601f01601f191660200182016040528015612cfd576020820181803683370190505b5090505b8415610d5a57612d12600183614338565b9150612d1f600a86614573565b612d2a90603061434b565b60f81b818381518110612d3f57612d3f6142d7565b60200101906001600160f81b031916908160001a905350612d61600a8661438b565b9450612d01565b600080600360009054906101000a90046001600160a01b03166001600160a01b03166338fdf0bd6040518163ffffffff1660e01b8152600401602060405180830381865afa158015612dbe573d6000803e3d6000fd5b505050506040513d601f19601f82011682018060405250810190612de291906145f4565b905060005b81811015612eef5760035460405163413a9f5f60e11b8152600481018390526001600160a01b03909116906382753ebe9060240160a060405180830381865afa158015612e38573d6000803e3d6000fd5b505050506040513d601f19601f82011682018060405250810190612e5c919061460d565b600082815260066020526040902081518154829060ff19166001836005811115612e8857612e88613c23565b02179055506020820151600182015560408201516002909101805460608401516080909401511515620100000262ff00001960ff9586166101000261ffff199093169590941694909417179190911691909117905580612ee781614303565b915050612de7565b50919050565b6000806002600754612f079190614338565b905060016000612f15613abd565b6004860154600190829060ff16600b8110612f3257612f326142d7565b60200201516004880154610100900460ff16600b8110612f5457612f546142d7565b91151560209092020152612f66613b97565b60408051808201909152600488015460ff80821683526101009091041660208201528187601e8110612f9a57612f9a6142d7565b602002015285612fa981614303565b9650505b600085118015612fbd5750600086115b1561373057600081612fd0600189614338565b601e8110612fe057612fe06142d7565b6020020151905086612ff1816145c7565b9750508187601e8110613006576130066142d7565b6020020161302d6040518060400160405280600060ff168152602001600060ff1681525090565b905285613039816145c7565b9650508480613047906145c7565b825160ff908116600090815260018c810160209081526040808420828901519095168452939052918120805460ff19169092179091559096506021915061308f9060636121d4565b60ff1610156130d257805160ff908116600090815260018a016020908152604080832082860151909416835292905220600501805462ff00001916620100001790555b600060405180608001604052806000815260200160018152602001600281526020016003815250905060006001600461310b9190614338565b90505b801561319b5760006131216000836121d4565b9050828160ff1660048110613138576131386142d7565b602002015183836004811061314f5761314f6142d7565b6020020151848460048110613166576131666142d7565b60200201858460ff166004811061317f5761317f6142d7565b6020020191909152525080613193816145c7565b91505061310e565b5060005b60048110156137285782516020840151600091820b910b8383600481106131c8576131c86142d7565b60200201516000036131e657816131de816146ae565b92505061326a565b8383600481106131f8576131f86142d7565b602002015160010361320e57816131de816146c3565b838360048110613220576132206142d7565b602002015160020361323e5780613236816146c3565b91505061326a565b838360048110613250576132506142d7565b602002015160030361326a5780613266816146ae565b9150505b60018212806132795750600181125b8061328e575061328b6002600b614338565b82135b806132a357506132a06002600b614338565b81135b156132af575050613716565b6040805180820190915260ff80841680835290831660208301528890600b81106132db576132db6142d7565b6020020151816020015160ff16600b81106132f8576132f86142d7565b6020020151158061335957508c6001016000876000015160ff1681526020019081526020016000206000876020015160ff16815260200190815260200160002060010161334587836126cb565b60048110613355576133556142d7565b0154155b15613712578915806133825750613371896042614338565b61337d600060636121d4565b60ff16105b1561370d57604051806060016040528061339e600060046121d4565b60ff1681526020016133b2600060046121d4565b60ff16815260200160018152508d60020160008f60030160009054906101000a900460ff1660ff16815260200190815260200160002060008201518160000160006101000a81548160ff021916908360ff16021790555060208201518160000160016101000a81548160ff021916908360ff16021790555060408201518160000160026101000a81548160ff0219169083600481111561345457613454613c23565b0217905550505060038d015460ff908116600090815260028f01602052604081205490911690036134a75760038d015460ff16600090815260028e0160205260409020805462ff00001916620300001790555b60038d01805460ff169060006134bc83614587565b91906101000a81548160ff021916908360ff160217905550506016896134e2919061434b565b985060428911156134f257604298505b8051889060ff16600b8110613509576135096142d7565b6020020151816020015160ff16600b8110613526576135266142d7565b602002015115156000036135aa5780878d601e8110613547576135476142d7565b60200201528b61355681614303565b9c5050898061356490614303565b9a5050600188826000015160ff16600b8110613582576135826142d7565b6020020151826020015160ff16600b811061359f5761359f6142d7565b911515602090920201525b8c6001016000876000015160ff1681526020019081526020016000206000876020015160ff1681526020019081526020016000206001018585600481106135f3576135f36142d7565b602002015160048110613608576136086142d7565b01546000036137085760038d01546136259060019060ff166143bf565b60ff168d6001016000886000015160ff1681526020019081526020016000206000886020015160ff168152602001908152602001600020600101868660048110613671576136716142d7565b602002015160048110613686576136866142d7565b015560038d015461369c9060019060ff166143bf565b60ff168d6001016000836000015160ff1681526020019081526020016000206000836020015160ff1681526020019081526020016000206001016136f58787600481106136eb576136eb6142d7565b6020020151611a3e565b60048110613705576137056142d7565b01555b613712565b600098505b5050505b8061372081614303565b91505061319f565b505050612fad565b60048701805460ff80821660009081526001808c016020818152604080852061010097889004871686528252808520805460ff1916600290811790915597548087168652928252808520969092049094168352938352838220600501805462ff000019908116909155908252938b01909152208054600392166201000083021790555050505050505050565b6000805b600b811015613a4a5760005b600b811015613a37576000828152600185016020908152604080832084845290915290205460ff1660001901613a25578261380681614303565b9350508260050361384657600082815260018501602090815260408083208484529091529020805460ff1916606417905560058401829055600684018190555b60005b6004811015613a23576000838152600180870160209081526040808420868552909152909120018160048110613881576138816142d7565b0154600003613a115782600914801561389a5750816006145b613a115760006138c48260405180604001604052808760ff1681526020018660ff16815250611c7e565b805160ff908116600090815260018901602090815260408083208286015185168452909152902054919250168015801561390c57506042613907600060636121d4565b60ff16105b15613a0e576040805160608101825260ff808252602082015290810160049052600388015460ff908116600090815260028a016020908152604091829020845181549286015185166101000261ffff19909316941693909317178083559083015190829062ff000019166201000083600481111561398c5761398c613c23565b0217905550505060038701805460ff169060006139a883614587565b82546101009290920a60ff81810219909316918316021790915560038901546139d59250600191166143bf565b60008681526001808a016020908152604080842089855290915290912060ff9290921691018460048110613a0b57613a0b6142d7565b01555b50505b80613a1b81614303565b915050613849565b505b80613a2f81614303565b9150506137cc565b5080613a4281614303565b9150506137c0565b505050565b6040805160a081019091528060005b8152600060208201819052604082018190526060820181905260809091015290565b60405180608001604052806004906020820280368337509192915050565b6040805160e08101825260008082526020820152908101613a5e613a80565b604051806101600160405280600b905b613ad5613bc3565b815260200190600190039081613acd5790505090565b6040518061032001604052806019905b6060815260200190600190039081613afb5790505090565b828054828255906000526020600020908101928215613b4e579160200282015b82811115613b4e578251825591602001919060010190613b33565b50613b5a929150613be2565b5090565b60405180608001604052806004905b6040805180820190915260008082526020820152815260200190600190039081613b6d5790505090565b60408051610400810190915260006103c082018181526103e08301919091528152601d60208201613b6d565b604051806101600160405280600b906020820280368337509192915050565b5b80821115613b5a5760008155600101613be3565b600080600060608486031215613c0c57600080fd5b505081359360208301359350604090920135919050565b634e487b7160e01b600052602160045260246000fd5b60068110613c4957613c49613c23565b9052565b613c58828251613c39565b6020810151602083015260ff604082015116604083015260ff60608201511660608301526080810151151560808301525050565b60a081016108c58284613c4d565b60808101818360005b6004811015613cc45781511515835260209283019290910190600101613ca3565b50505092915050565b600060208284031215613cdf57600080fd5b5035919050565b60ff8151168252602060ff81830151168184015260408201516040840160005b6004811015613d2357825182529183019190830190600101613d06565b505050506060810151151560c0838101919091526080820151151560e084015260a082015115156101008401520151151561012090910152565b6000602080830181845280855180835260408601915060408160051b87010192508387016000805b83811015613de457888603603f19018552825180518088529088019088880190845b81811015613dce57613dba838551613ce6565b928a01926101409290920191600101613da7565b5090975050509386019391860191600101613d85565b509398975050505050505050565b634e487b7160e01b600052604160045260246000fd5b60ff811681146125e457600080fd5b600060408284031215613e2957600080fd5b6040516040810181811067ffffffffffffffff82111715613e5a57634e487b7160e01b600052604160045260246000fd5b6040529050808235613e6b81613e08565b81526020830135613e7b81613e08565b6020919091015292915050565b80151581146125e457600080fd5b60008060008060c08587031215613eac57600080fd5b84359350613ebd8660208701613e17565b9250613ecc8660608701613e17565b915060a0850135613edc81613e88565b939692955090935050565b6000806000806000806101008789031215613f0157600080fd5b86359550613f128860208901613e17565b9450613f218860608901613e17565b935060a0870135613f3181613e88565b925060c0870135613f4181613e88565b8092505060e087013590509295509295509295565b604081016108c58284805160ff908116835260209182015116910152565b60008060008060808587031215613f8a57600080fd5b5050823594602084013594506040840135936060013592509050565b60008060408385031215613fb957600080fd5b50508035926020909101359150565b60008060008060008060c08789031215613fe157600080fd5b8635955060208701359450604087013593506060870135925060808701356005811061400c57600080fd5b8092505060a087013590509295509295509295565b60ff815116825260ff602082015116602083015260408101516005811061404a5761404a613c23565b806040840152505050565b6020808252825182820181905260009190848201906040850190845b8181101561409757614084838551614021565b9284019260609290920191600101614071565b50909695505050505050565b606081016108c58284614021565b60ff8516815260a081016140d86020830186805160ff908116835260209182015116910152565b60608201939093526080015292915050565b6020808252825182820181905260009190848201906040850190845b8181101561409757614119838551613c4d565b9284019260a09290920191600101614106565b6000806060838503121561413f57600080fd5b823591506141508460208501613e17565b90509250929050565b60a081016141678288613c39565b85602083015260ff8516604083015260ff8416606083015282151560808301529695505050505050565b600080604083850312156141a457600080fd5b82356141af81613e08565b915060208301356141bf81613e08565b809150509250929050565b80356001600160a01b03811681146141e157600080fd5b919050565b600080600080600060a086880312156141fe57600080fd5b614207866141ca565b9450614215602087016141ca565b9350614223604087016141ca565b9250614231606087016141ca565b915061423f608087016141ca565b90509295509295909350565b6000806080838503121561425e57600080fd5b6142688484613e17565b91506141508460408501613e17565b60006020828403121561428957600080fd5b61075f826141ca565b61014081016108c58284613ce6565b600080600080608085870312156142b757600080fd5b8435935060208501359250604085013591506060850135613edc81613e88565b634e487b7160e01b600052603260045260246000fd5b634e487b7160e01b600052601160045260246000fd5b600060018201614315576143156142ed565b5060010190565b6000600160ff1b8201614331576143316142ed565b5060000390565b818103818111156108c5576108c56142ed565b808201808211156108c5576108c56142ed565b80820281158282048414176108c5576108c56142ed565b634e487b7160e01b600052601260045260246000fd5b60008261439a5761439a614375565b500490565b8181036000831280158383131683831282161715610b3057610b306142ed565b60ff82811682821603908111156108c5576108c56142ed565b60ff81811683821601908111156108c5576108c56142ed565b60005b8381101561440c5781810151838201526020016143f4565b50506000910152565b72024b73b30b634b2103234b932b1ba34b7b71d1606d1b8152600082516144438160138501602087016143f1565b9190910160130192915050565b602081526000825180602084015261446f8160408501602087016143f1565b601f01601f19169190910160400192915050565b600181815b808511156144be5781600019048211156144a4576144a46142ed565b808516156144b157918102915b93841c9390800290614488565b509250929050565b6000826144d5575060016108c5565b816144e2575060006108c5565b81600181146144f857600281146145025761451e565b60019150506108c5565b60ff841115614513576145136142ed565b50506001821b6108c5565b5060208310610133831016604e8410600b8410161715614541575081810a6108c5565b61454b8383614483565b806000190482111561455f5761455f6142ed565b029392505050565b600061075f83836144c6565b60008261458257614582614375565b500690565b600060ff821660ff810361459d5761459d6142ed565b60010192915050565b600082810b9082900b03607f198112607f821317156108c5576108c56142ed565b6000816145d6576145d66142ed565b506000190190565b634e487b7160e01b600052603160045260246000fd5b60006020828403121561460657600080fd5b5051919050565b600060a0828403121561461f57600080fd5b60405160a0810181811067ffffffffffffffff8211171561465057634e487b7160e01b600052604160045260246000fd5b60405282516006811061466257600080fd5b815260208381015190820152604083015161467c81613e08565b6040820152606083015161468f81613e08565b606082015260808301516146a281613e88565b60808201529392505050565b6000600160ff1b82016145d6576145d66142ed565b60006001600160ff1b018201614315576143156142ed56fea26469706673582212203bf3168c7572927265c654b0da1e213c911220a5da8641d65e2d25870c99d43264736f6c63430008110033",
  "devdoc": {
    "kind": "dev",
    "methods": {
      "owner()": {
        "details": "Returns the address of the current owner."
      },
      "renounceOwnership()": {
        "details": "Leaves the contract without owner. It will not be possible to call `onlyOwner` functions anymore. Can only be called by the current owner. NOTE: Renouncing ownership will leave the contract without an owner, thereby removing any functionality that is only available to the owner."
      },
      "transferOwnership(address)": {
        "details": "Transfers ownership of the contract to a new account (`newOwner`). Can only be called by the current owner."
      }
    },
    "version": 1
  },
  "userdoc": {
    "kind": "user",
    "methods": {},
    "version": 1
  },
  "storageLayout": {
    "storage": [
      {
        "astId": 7,
        "contract": "contracts/BCMaps.sol:Maps",
        "label": "_owner",
        "offset": 0,
        "slot": "0",
        "type": "t_address"
      },
      {
        "astId": 12123,
        "contract": "contracts/BCMaps.sol:Maps",
        "label": "TODO_randomSeed",
        "offset": 0,
        "slot": "1",
        "type": "t_uint256"
      },
      {
        "astId": 9152,
        "contract": "contracts/BCMaps.sol:Maps",
        "label": "game",
        "offset": 0,
        "slot": "2",
        "type": "t_address"
      },
      {
        "astId": 9155,
        "contract": "contracts/BCMaps.sol:Maps",
        "label": "roomTiles",
        "offset": 0,
        "slot": "3",
        "type": "t_contract(RoomTileInterface)9146"
      },
      {
        "astId": 9157,
        "contract": "contracts/BCMaps.sol:Maps",
        "label": "actionsAddress",
        "offset": 0,
        "slot": "4",
        "type": "t_address"
      },
      {
        "astId": 9159,
        "contract": "contracts/BCMaps.sol:Maps",
        "label": "playersAddress",
        "offset": 0,
        "slot": "5",
        "type": "t_address"
      },
      {
        "astId": 9203,
        "contract": "contracts/BCMaps.sol:Maps",
        "label": "roomList",
        "offset": 0,
        "slot": "6",
        "type": "t_mapping(t_uint256,t_struct(RoomTile)12025_storage)"
      },
      {
        "astId": 9205,
        "contract": "contracts/BCMaps.sol:Maps",
        "label": "numRooms",
        "offset": 0,
        "slot": "7",
        "type": "t_uint256"
      },
      {
        "astId": 9209,
        "contract": "contracts/BCMaps.sol:Maps",
        "label": "maps",
        "offset": 0,
        "slot": "8",
        "type": "t_array(t_struct(Map)11954_storage)dyn_storage"
      }
    ],
    "types": {
      "t_address": {
        "encoding": "inplace",
        "label": "address",
        "numberOfBytes": "20"
      },
      "t_array(t_struct(Map)11954_storage)dyn_storage": {
        "base": "t_struct(Map)11954_storage",
        "encoding": "dynamic_array",
        "label": "struct BCTypes.Map[]",
        "numberOfBytes": "32"
      },
      "t_array(t_uint256)4_storage": {
        "base": "t_uint256",
        "encoding": "inplace",
        "label": "uint256[4]",
        "numberOfBytes": "128"
      },
      "t_array(t_uint256)dyn_storage": {
        "base": "t_uint256",
        "encoding": "dynamic_array",
        "label": "uint256[]",
        "numberOfBytes": "32"
      },
      "t_bool": {
        "encoding": "inplace",
        "label": "bool",
        "numberOfBytes": "1"
      },
      "t_contract(RoomTileInterface)9146": {
        "encoding": "inplace",
        "label": "contract RoomTileInterface",
        "numberOfBytes": "20"
      },
      "t_enum(BCEventType)11810": {
        "encoding": "inplace",
        "label": "enum BCTypes.BCEventType",
        "numberOfBytes": "1"
      },
      "t_enum(DoorStatus)11786": {
        "encoding": "inplace",
        "label": "enum BCTypes.DoorStatus",
        "numberOfBytes": "1"
      },
      "t_mapping(t_uint256,t_mapping(t_uint256,t_struct(GameTile)11921_storage))": {
        "encoding": "mapping",
        "key": "t_uint256",
        "label": "mapping(uint256 => mapping(uint256 => struct BCTypes.GameTile))",
        "numberOfBytes": "32",
        "value": "t_mapping(t_uint256,t_struct(GameTile)11921_storage)"
      },
      "t_mapping(t_uint256,t_struct(Door)11929_storage)": {
        "encoding": "mapping",
        "key": "t_uint256",
        "label": "mapping(uint256 => struct BCTypes.Door)",
        "numberOfBytes": "32",
        "value": "t_struct(Door)11929_storage"
      },
      "t_mapping(t_uint256,t_struct(GameTile)11921_storage)": {
        "encoding": "mapping",
        "key": "t_uint256",
        "label": "mapping(uint256 => struct BCTypes.GameTile)",
        "numberOfBytes": "32",
        "value": "t_struct(GameTile)11921_storage"
      },
      "t_mapping(t_uint256,t_struct(RoomTile)12025_storage)": {
        "encoding": "mapping",
        "key": "t_uint256",
        "label": "mapping(uint256 => struct BCTypes.RoomTile)",
        "numberOfBytes": "32",
        "value": "t_struct(RoomTile)12025_storage"
      },
      "t_struct(Door)11929_storage": {
        "encoding": "inplace",
        "label": "struct BCTypes.Door",
        "members": [
          {
            "astId": 11923,
            "contract": "contracts/BCMaps.sol:Maps",
            "label": "vsBreach",
            "offset": 0,
            "slot": "0",
            "type": "t_uint8"
          },
          {
            "astId": 11925,
            "contract": "contracts/BCMaps.sol:Maps",
            "label": "vsHack",
            "offset": 1,
            "slot": "0",
            "type": "t_uint8"
          },
          {
            "astId": 11928,
            "contract": "contracts/BCMaps.sol:Maps",
            "label": "status",
            "offset": 2,
            "slot": "0",
            "type": "t_enum(DoorStatus)11786"
          }
        ],
        "numberOfBytes": "32"
      },
      "t_struct(GameTile)11921_storage": {
        "encoding": "inplace",
        "label": "struct BCTypes.GameTile",
        "members": [
          {
            "astId": 11906,
            "contract": "contracts/BCMaps.sol:Maps",
            "label": "roomId",
            "offset": 0,
            "slot": "0",
            "type": "t_uint8"
          },
          {
            "astId": 11908,
            "contract": "contracts/BCMaps.sol:Maps",
            "label": "parentId",
            "offset": 1,
            "slot": "0",
            "type": "t_uint8"
          },
          {
            "astId": 11912,
            "contract": "contracts/BCMaps.sol:Maps",
            "label": "doors",
            "offset": 0,
            "slot": "1",
            "type": "t_array(t_uint256)4_storage"
          },
          {
            "astId": 11914,
            "contract": "contracts/BCMaps.sol:Maps",
            "label": "explored",
            "offset": 0,
            "slot": "5",
            "type": "t_bool"
          },
          {
            "astId": 11916,
            "contract": "contracts/BCMaps.sol:Maps",
            "label": "looted",
            "offset": 1,
            "slot": "5",
            "type": "t_bool"
          },
          {
            "astId": 11918,
            "contract": "contracts/BCMaps.sol:Maps",
            "label": "hasVent",
            "offset": 2,
            "slot": "5",
            "type": "t_bool"
          },
          {
            "astId": 11920,
            "contract": "contracts/BCMaps.sol:Maps",
            "label": "hasHazard",
            "offset": 3,
            "slot": "5",
            "type": "t_bool"
          }
        ],
        "numberOfBytes": "192"
      },
      "t_struct(Map)11954_storage": {
        "encoding": "inplace",
        "label": "struct BCTypes.Map",
        "members": [
          {
            "astId": 11932,
            "contract": "contracts/BCMaps.sol:Maps",
            "label": "unusedNormalRooms",
            "offset": 0,
            "slot": "0",
            "type": "t_array(t_uint256)dyn_storage"
          },
          {
            "astId": 11939,
            "contract": "contracts/BCMaps.sol:Maps",
            "label": "board",
            "offset": 0,
            "slot": "1",
            "type": "t_mapping(t_uint256,t_mapping(t_uint256,t_struct(GameTile)11921_storage))"
          },
          {
            "astId": 11944,
            "contract": "contracts/BCMaps.sol:Maps",
            "label": "doors",
            "offset": 0,
            "slot": "2",
            "type": "t_mapping(t_uint256,t_struct(Door)11929_storage)"
          },
          {
            "astId": 11946,
            "contract": "contracts/BCMaps.sol:Maps",
            "label": "numDoors",
            "offset": 0,
            "slot": "3",
            "type": "t_uint8"
          },
          {
            "astId": 11949,
            "contract": "contracts/BCMaps.sol:Maps",
            "label": "startPosition",
            "offset": 0,
            "slot": "4",
            "type": "t_struct(Position)11904_storage"
          },
          {
            "astId": 11951,
            "contract": "contracts/BCMaps.sol:Maps",
            "label": "mainReactorRow",
            "offset": 0,
            "slot": "5",
            "type": "t_uint256"
          },
          {
            "astId": 11953,
            "contract": "contracts/BCMaps.sol:Maps",
            "label": "mainReactorCol",
            "offset": 0,
            "slot": "6",
            "type": "t_uint256"
          }
        ],
        "numberOfBytes": "224"
      },
      "t_struct(Position)11904_storage": {
        "encoding": "inplace",
        "label": "struct BCTypes.Position",
        "members": [
          {
            "astId": 11901,
            "contract": "contracts/BCMaps.sol:Maps",
            "label": "row",
            "offset": 0,
            "slot": "0",
            "type": "t_uint8"
          },
          {
            "astId": 11903,
            "contract": "contracts/BCMaps.sol:Maps",
            "label": "col",
            "offset": 1,
            "slot": "0",
            "type": "t_uint8"
          }
        ],
        "numberOfBytes": "32"
      },
      "t_struct(RoomTile)12025_storage": {
        "encoding": "inplace",
        "label": "struct BCTypes.RoomTile",
        "members": [
          {
            "astId": 12016,
            "contract": "contracts/BCMaps.sol:Maps",
            "label": "eventType",
            "offset": 0,
            "slot": "0",
            "type": "t_enum(BCEventType)11810"
          },
          {
            "astId": 12018,
            "contract": "contracts/BCMaps.sol:Maps",
            "label": "eventNum",
            "offset": 0,
            "slot": "1",
            "type": "t_uint256"
          },
          {
            "astId": 12020,
            "contract": "contracts/BCMaps.sol:Maps",
            "label": "numItems",
            "offset": 0,
            "slot": "2",
            "type": "t_uint8"
          },
          {
            "astId": 12022,
            "contract": "contracts/BCMaps.sol:Maps",
            "label": "numData",
            "offset": 1,
            "slot": "2",
            "type": "t_uint8"
          },
          {
            "astId": 12024,
            "contract": "contracts/BCMaps.sol:Maps",
            "label": "sigDetected",
            "offset": 2,
            "slot": "2",
            "type": "t_bool"
          }
        ],
        "numberOfBytes": "96"
      },
      "t_uint256": {
        "encoding": "inplace",
        "label": "uint256",
        "numberOfBytes": "32"
      },
      "t_uint8": {
        "encoding": "inplace",
        "label": "uint8",
        "numberOfBytes": "1"
      }
    }
  }
}