{
  "address": "0xeCA9CdF554683d1d67D725092a227b89883EB7B8",
  "abi": [
    {
      "anonymous": false,
      "inputs": [
        {
          "indexed": false,
          "internalType": "uint256",
          "name": "gameId",
          "type": "uint256"
        },
        {
          "indexed": false,
          "internalType": "uint256",
          "name": "roll",
          "type": "uint256"
        },
        {
          "indexed": false,
          "internalType": "uint256",
          "name": "forValue",
          "type": "uint256"
        },
        {
          "indexed": false,
          "internalType": "uint256",
          "name": "against",
          "type": "uint256"
        }
      ],
      "name": "ChallengeEvent",
      "type": "event"
    },
    {
      "anonymous": false,
      "inputs": [
        {
          "indexed": false,
          "internalType": "uint256",
          "name": "gameId",
          "type": "uint256"
        },
        {
          "indexed": false,
          "internalType": "uint256",
          "name": "roll",
          "type": "uint256"
        }
      ],
      "name": "DiceRollEvent",
      "type": "event"
    },
    {
      "anonymous": false,
      "inputs": [
        {
          "indexed": true,
          "internalType": "address",
          "name": "previousOwner",
          "type": "address"
        },
        {
          "indexed": true,
          "internalType": "address",
          "name": "newOwner",
          "type": "address"
        }
      ],
      "name": "OwnershipTransferred",
      "type": "event"
    },
    {
      "inputs": [
        {
          "internalType": "int256",
          "name": "x",
          "type": "int256"
        }
      ],
      "name": "abs",
      "outputs": [
        {
          "internalType": "int256",
          "name": "",
          "type": "int256"
        }
      ],
      "stateMutability": "pure",
      "type": "function"
    },
    {
      "inputs": [],
      "name": "actionsAddress",
      "outputs": [
        {
          "internalType": "address",
          "name": "",
          "type": "address"
        }
      ],
      "stateMutability": "view",
      "type": "function"
    },
    {
      "inputs": [],
      "name": "createMap",
      "outputs": [
        {
          "internalType": "uint256",
          "name": "",
          "type": "uint256"
        }
      ],
      "stateMutability": "nonpayable",
      "type": "function"
    },
    {
      "inputs": [
        {
          "internalType": "uint256",
          "name": "_mapId",
          "type": "uint256"
        },
        {
          "internalType": "uint256",
          "name": "_row",
          "type": "uint256"
        },
        {
          "internalType": "uint256",
          "name": "_col",
          "type": "uint256"
        },
        {
          "internalType": "uint256",
          "name": "_roomId",
          "type": "uint256"
        }
      ],
      "name": "debugForceRoomId",
      "outputs": [],
      "stateMutability": "nonpayable",
      "type": "function"
    },
    {
      "inputs": [
        {
          "internalType": "uint256",
          "name": "_mapId",
          "type": "uint256"
        },
        {
          "internalType": "uint256",
          "name": "_row",
          "type": "uint256"
        },
        {
          "internalType": "uint256",
          "name": "_col",
          "type": "uint256"
        },
        {
          "internalType": "uint256",
          "name": "debugForceId",
          "type": "uint256"
        }
      ],
      "name": "discoverRoom",
      "outputs": [
        {
          "internalType": "uint256",
          "name": "",
          "type": "uint256"
        }
      ],
      "stateMutability": "nonpayable",
      "type": "function"
    },
    {
      "inputs": [
        {
          "internalType": "uint256",
          "name": "_mapId",
          "type": "uint256"
        }
      ],
      "name": "extGetBoard",
      "outputs": [
        {
          "components": [
            {
              "internalType": "uint8",
              "name": "roomId",
              "type": "uint8"
            },
            {
              "internalType": "uint8",
              "name": "parentId",
              "type": "uint8"
            },
            {
              "internalType": "uint256[4]",
              "name": "doors",
              "type": "uint256[4]"
            },
            {
              "internalType": "bool",
              "name": "explored",
              "type": "bool"
            },
            {
              "internalType": "bool",
              "name": "looted",
              "type": "bool"
            },
            {
              "internalType": "bool",
              "name": "hasVent",
              "type": "bool"
            },
            {
              "internalType": "bool",
              "name": "hasHazard",
              "type": "bool"
            }
          ],
          "internalType": "struct BCTypes.GameTile[][]",
          "name": "",
          "type": "tuple[][]"
        }
      ],
      "stateMutability": "view",
      "type": "function"
    },
    {
      "inputs": [
        {
          "internalType": "uint256",
          "name": "_mapId",
          "type": "uint256"
        }
      ],
      "name": "extGetDoors",
      "outputs": [
        {
          "components": [
            {
              "internalType": "uint8",
              "name": "vsBreach",
              "type": "uint8"
            },
            {
              "internalType": "uint8",
              "name": "vsHack",
              "type": "uint8"
            },
            {
              "internalType": "enum BCTypes.DoorStatus",
              "name": "status",
              "type": "uint8"
            }
          ],
          "internalType": "struct BCTypes.Door[]",
          "name": "",
          "type": "tuple[]"
        }
      ],
      "stateMutability": "view",
      "type": "function"
    },
    {
      "inputs": [
        {
          "internalType": "uint256",
          "name": "_mapId",
          "type": "uint256"
        },
        {
          "internalType": "uint256",
          "name": "_row",
          "type": "uint256"
        },
        {
          "internalType": "uint256",
          "name": "_col",
          "type": "uint256"
        }
      ],
      "name": "extGetGameTile",
      "outputs": [
        {
          "components": [
            {
              "internalType": "uint8",
              "name": "roomId",
              "type": "uint8"
            },
            {
              "internalType": "uint8",
              "name": "parentId",
              "type": "uint8"
            },
            {
              "internalType": "uint256[4]",
              "name": "doors",
              "type": "uint256[4]"
            },
            {
              "internalType": "bool",
              "name": "explored",
              "type": "bool"
            },
            {
              "internalType": "bool",
              "name": "looted",
              "type": "bool"
            },
            {
              "internalType": "bool",
              "name": "hasVent",
              "type": "bool"
            },
            {
              "internalType": "bool",
              "name": "hasHazard",
              "type": "bool"
            }
          ],
          "internalType": "struct BCTypes.GameTile",
          "name": "",
          "type": "tuple"
        }
      ],
      "stateMutability": "view",
      "type": "function"
    },
    {
      "inputs": [
        {
          "internalType": "uint256",
          "name": "_mapId",
          "type": "uint256"
        }
      ],
      "name": "extGetMainReactorCoords",
      "outputs": [
        {
          "internalType": "uint256",
          "name": "",
          "type": "uint256"
        },
        {
          "internalType": "uint256",
          "name": "",
          "type": "uint256"
        }
      ],
      "stateMutability": "view",
      "type": "function"
    },
    {
      "inputs": [
        {
          "internalType": "uint256",
          "name": "_mapId",
          "type": "uint256"
        },
        {
          "internalType": "uint256",
          "name": "_row",
          "type": "uint256"
        },
        {
          "internalType": "uint256",
          "name": "_col",
          "type": "uint256"
        }
      ],
      "name": "extGetRoom",
      "outputs": [
        {
          "components": [
            {
              "internalType": "enum BCTypes.BCEventType",
              "name": "eventType",
              "type": "uint8"
            },
            {
              "internalType": "uint256",
              "name": "eventNum",
              "type": "uint256"
            },
            {
              "internalType": "uint8",
              "name": "numItems",
              "type": "uint8"
            },
            {
              "internalType": "uint8",
              "name": "numData",
              "type": "uint8"
            },
            {
              "internalType": "bool",
              "name": "sigDetected",
              "type": "bool"
            }
          ],
          "internalType": "struct BCTypes.RoomTile",
          "name": "",
          "type": "tuple"
        }
      ],
      "stateMutability": "view",
      "type": "function"
    },
    {
      "inputs": [
        {
          "internalType": "uint256",
          "name": "_mapId",
          "type": "uint256"
        },
        {
          "internalType": "uint256",
          "name": "_roomId",
          "type": "uint256"
        }
      ],
      "name": "extGetRoomById",
      "outputs": [
        {
          "components": [
            {
              "internalType": "enum BCTypes.BCEventType",
              "name": "eventType",
              "type": "uint8"
            },
            {
              "internalType": "uint256",
              "name": "eventNum",
              "type": "uint256"
            },
            {
              "internalType": "uint8",
              "name": "numItems",
              "type": "uint8"
            },
            {
              "internalType": "uint8",
              "name": "numData",
              "type": "uint8"
            },
            {
              "internalType": "bool",
              "name": "sigDetected",
              "type": "bool"
            }
          ],
          "internalType": "struct BCTypes.RoomTile",
          "name": "",
          "type": "tuple"
        }
      ],
      "stateMutability": "view",
      "type": "function"
    },
    {
      "inputs": [
        {
          "internalType": "uint256",
          "name": "_mapId",
          "type": "uint256"
        },
        {
          "internalType": "uint256",
          "name": "row",
          "type": "uint256"
        },
        {
          "internalType": "uint256",
          "name": "col",
          "type": "uint256"
        }
      ],
      "name": "extGetRoomId",
      "outputs": [
        {
          "internalType": "uint256",
          "name": "",
          "type": "uint256"
        }
      ],
      "stateMutability": "view",
      "type": "function"
    },
    {
      "inputs": [
        {
          "internalType": "uint256",
          "name": "_mapId",
          "type": "uint256"
        }
      ],
      "name": "extGetRoomList",
      "outputs": [
        {
          "components": [
            {
              "internalType": "enum BCTypes.BCEventType",
              "name": "eventType",
              "type": "uint8"
            },
            {
              "internalType": "uint256",
              "name": "eventNum",
              "type": "uint256"
            },
            {
              "internalType": "uint8",
              "name": "numItems",
              "type": "uint8"
            },
            {
              "internalType": "uint8",
              "name": "numData",
              "type": "uint8"
            },
            {
              "internalType": "bool",
              "name": "sigDetected",
              "type": "bool"
            }
          ],
          "internalType": "struct BCTypes.RoomTile[]",
          "name": "",
          "type": "tuple[]"
        }
      ],
      "stateMutability": "view",
      "type": "function"
    },
    {
      "inputs": [
        {
          "internalType": "uint256",
          "name": "_mapId",
          "type": "uint256"
        },
        {
          "internalType": "uint256",
          "name": "_row",
          "type": "uint256"
        },
        {
          "internalType": "uint256",
          "name": "_col",
          "type": "uint256"
        },
        {
          "internalType": "bool",
          "name": "_hasHazard",
          "type": "bool"
        }
      ],
      "name": "extSetHazardStatus",
      "outputs": [],
      "stateMutability": "nonpayable",
      "type": "function"
    },
    {
      "inputs": [
        {
          "internalType": "uint256",
          "name": "_mapId",
          "type": "uint256"
        },
        {
          "internalType": "uint256",
          "name": "_distance",
          "type": "uint256"
        }
      ],
      "name": "extSpreadHazards",
      "outputs": [],
      "stateMutability": "nonpayable",
      "type": "function"
    },
    {
      "inputs": [],
      "name": "game",
      "outputs": [
        {
          "internalType": "address",
          "name": "",
          "type": "address"
        }
      ],
      "stateMutability": "view",
      "type": "function"
    },
    {
      "inputs": [
        {
          "components": [
            {
              "internalType": "uint8",
              "name": "row",
              "type": "uint8"
            },
            {
              "internalType": "uint8",
              "name": "col",
              "type": "uint8"
            }
          ],
          "internalType": "struct BCTypes.Position",
          "name": "_firstRoom",
          "type": "tuple"
        },
        {
          "components": [
            {
              "internalType": "uint8",
              "name": "row",
              "type": "uint8"
            },
            {
              "internalType": "uint8",
              "name": "col",
              "type": "uint8"
            }
          ],
          "internalType": "struct BCTypes.Position",
          "name": "_secondRoom",
          "type": "tuple"
        }
      ],
      "name": "getDirectionBetween",
      "outputs": [
        {
          "internalType": "uint256",
          "name": "",
          "type": "uint256"
        }
      ],
      "stateMutability": "pure",
      "type": "function"
    },
    {
      "inputs": [
        {
          "internalType": "uint256",
          "name": "_mapId",
          "type": "uint256"
        },
        {
          "internalType": "uint256",
          "name": "_row",
          "type": "uint256"
        },
        {
          "internalType": "uint256",
          "name": "_col",
          "type": "uint256"
        },
        {
          "internalType": "uint256",
          "name": "_direction",
          "type": "uint256"
        }
      ],
      "name": "getDoor",
      "outputs": [
        {
          "components": [
            {
              "internalType": "uint8",
              "name": "vsBreach",
              "type": "uint8"
            },
            {
              "internalType": "uint8",
              "name": "vsHack",
              "type": "uint8"
            },
            {
              "internalType": "enum BCTypes.DoorStatus",
              "name": "status",
              "type": "uint8"
            }
          ],
          "internalType": "struct BCTypes.Door",
          "name": "",
          "type": "tuple"
        }
      ],
      "stateMutability": "view",
      "type": "function"
    },
    {
      "inputs": [
        {
          "internalType": "uint256",
          "name": "_mapId",
          "type": "uint256"
        },
        {
          "internalType": "uint256",
          "name": "_row",
          "type": "uint256"
        },
        {
          "internalType": "uint256",
          "name": "_col",
          "type": "uint256"
        }
      ],
      "name": "getDoorDirections",
      "outputs": [
        {
          "internalType": "bool[4]",
          "name": "",
          "type": "bool[4]"
        }
      ],
      "stateMutability": "view",
      "type": "function"
    },
    {
      "inputs": [
        {
          "internalType": "uint256",
          "name": "_mapId",
          "type": "uint256"
        },
        {
          "components": [
            {
              "internalType": "uint8",
              "name": "row",
              "type": "uint8"
            },
            {
              "internalType": "uint8",
              "name": "col",
              "type": "uint8"
            }
          ],
          "internalType": "struct BCTypes.Position",
          "name": "_first",
          "type": "tuple"
        },
        {
          "components": [
            {
              "internalType": "uint8",
              "name": "row",
              "type": "uint8"
            },
            {
              "internalType": "uint8",
              "name": "col",
              "type": "uint8"
            }
          ],
          "internalType": "struct BCTypes.Position",
          "name": "_second",
          "type": "tuple"
        },
        {
          "internalType": "bool",
          "name": "_ignoreClosed",
          "type": "bool"
        }
      ],
      "name": "getLineOfSight",
      "outputs": [
        {
          "internalType": "bool",
          "name": "",
          "type": "bool"
        }
      ],
      "stateMutability": "view",
      "type": "function"
    },
    {
      "inputs": [
        {
          "internalType": "uint256",
          "name": "_direction",
          "type": "uint256"
        },
        {
          "components": [
            {
              "internalType": "uint8",
              "name": "row",
              "type": "uint8"
            },
            {
              "internalType": "uint8",
              "name": "col",
              "type": "uint8"
            }
          ],
          "internalType": "struct BCTypes.Position",
          "name": "_start",
          "type": "tuple"
        }
      ],
      "name": "getNeighborRoom",
      "outputs": [
        {
          "components": [
            {
              "internalType": "uint8",
              "name": "row",
              "type": "uint8"
            },
            {
              "internalType": "uint8",
              "name": "col",
              "type": "uint8"
            }
          ],
          "internalType": "struct BCTypes.Position",
          "name": "",
          "type": "tuple"
        }
      ],
      "stateMutability": "pure",
      "type": "function"
    },
    {
      "inputs": [
        {
          "internalType": "uint256",
          "name": "_traitNum",
          "type": "uint256"
        },
        {
          "internalType": "uint256",
          "name": "_subTraitNum",
          "type": "uint256"
        }
      ],
      "name": "getUIOffset",
      "outputs": [
        {
          "internalType": "uint256",
          "name": "",
          "type": "uint256"
        }
      ],
      "stateMutability": "pure",
      "type": "function"
    },
    {
      "inputs": [
        {
          "components": [
            {
              "internalType": "uint8",
              "name": "row",
              "type": "uint8"
            },
            {
              "internalType": "uint8",
              "name": "col",
              "type": "uint8"
            }
          ],
          "internalType": "struct BCTypes.Position",
          "name": "_pos1",
          "type": "tuple"
        },
        {
          "components": [
            {
              "internalType": "uint8",
              "name": "row",
              "type": "uint8"
            },
            {
              "internalType": "uint8",
              "name": "col",
              "type": "uint8"
            }
          ],
          "internalType": "struct BCTypes.Position",
          "name": "_pos2",
          "type": "tuple"
        }
      ],
      "name": "manhattanDistance",
      "outputs": [
        {
          "internalType": "uint256",
          "name": "",
          "type": "uint256"
        }
      ],
      "stateMutability": "pure",
      "type": "function"
    },
    {
      "inputs": [
        {
          "internalType": "uint256",
          "name": "",
          "type": "uint256"
        }
      ],
      "name": "maps",
      "outputs": [
        {
          "internalType": "uint8",
          "name": "numDoors",
          "type": "uint8"
        },
        {
          "components": [
            {
              "internalType": "uint8",
              "name": "row",
              "type": "uint8"
            },
            {
              "internalType": "uint8",
              "name": "col",
              "type": "uint8"
            }
          ],
          "internalType": "struct BCTypes.Position",
          "name": "startPosition",
          "type": "tuple"
        },
        {
          "internalType": "uint256",
          "name": "mainReactorRow",
          "type": "uint256"
        },
        {
          "internalType": "uint256",
          "name": "mainReactorCol",
          "type": "uint256"
        }
      ],
      "stateMutability": "view",
      "type": "function"
    },
    {
      "inputs": [
        {
          "internalType": "uint256",
          "name": "_mapId",
          "type": "uint256"
        },
        {
          "components": [
            {
              "internalType": "uint8",
              "name": "row",
              "type": "uint8"
            },
            {
              "internalType": "uint8",
              "name": "col",
              "type": "uint8"
            }
          ],
          "internalType": "struct BCTypes.Position",
          "name": "_start",
          "type": "tuple"
        },
        {
          "components": [
            {
              "internalType": "uint8",
              "name": "row",
              "type": "uint8"
            },
            {
              "internalType": "uint8",
              "name": "col",
              "type": "uint8"
            }
          ],
          "internalType": "struct BCTypes.Position",
          "name": "_finish",
          "type": "tuple"
        },
        {
          "internalType": "bool",
          "name": "_ignoreClosed",
          "type": "bool"
        },
        {
          "internalType": "bool",
          "name": "_useVents",
          "type": "bool"
        },
        {
          "internalType": "uint256",
          "name": "_moveLimit",
          "type": "uint256"
        }
      ],
      "name": "moveToOrCloser",
      "outputs": [
        {
          "components": [
            {
              "internalType": "uint8",
              "name": "row",
              "type": "uint8"
            },
            {
              "internalType": "uint8",
              "name": "col",
              "type": "uint8"
            }
          ],
          "internalType": "struct BCTypes.Position",
          "name": "",
          "type": "tuple"
        }
      ],
      "stateMutability": "view",
      "type": "function"
    },
    {
      "inputs": [
        {
          "internalType": "uint256",
          "name": "_min",
          "type": "uint256"
        },
        {
          "internalType": "uint256",
          "name": "_max",
          "type": "uint256"
        },
        {
          "internalType": "uint256",
          "name": "_val",
          "type": "uint256"
        },
        {
          "internalType": "uint256",
          "name": "_valMax",
          "type": "uint256"
        }
      ],
      "name": "normalizeToSmallRange",
      "outputs": [
        {
          "internalType": "uint8",
          "name": "",
          "type": "uint8"
        }
      ],
      "stateMutability": "pure",
      "type": "function"
    },
    {
      "inputs": [],
      "name": "numRooms",
      "outputs": [
        {
          "internalType": "uint256",
          "name": "",
          "type": "uint256"
        }
      ],
      "stateMutability": "view",
      "type": "function"
    },
    {
      "inputs": [
        {
          "internalType": "uint256",
          "name": "_direction",
          "type": "uint256"
        }
      ],
      "name": "opposite",
      "outputs": [
        {
          "internalType": "uint256",
          "name": "",
          "type": "uint256"
        }
      ],
      "stateMutability": "pure",
      "type": "function"
    },
    {
      "inputs": [],
      "name": "owner",
      "outputs": [
        {
          "internalType": "address",
          "name": "",
          "type": "address"
        }
      ],
      "stateMutability": "view",
      "type": "function"
    },
    {
      "inputs": [],
      "name": "playersAddress",
      "outputs": [
        {
          "internalType": "address",
          "name": "",
          "type": "address"
        }
      ],
      "stateMutability": "view",
      "type": "function"
    },
    {
      "inputs": [],
      "name": "randKeccak",
      "outputs": [
        {
          "internalType": "bytes32",
          "name": "",
          "type": "bytes32"
        }
      ],
      "stateMutability": "nonpayable",
      "type": "function"
    },
    {
      "inputs": [],
      "name": "renounceOwnership",
      "outputs": [],
      "stateMutability": "nonpayable",
      "type": "function"
    },
    {
      "inputs": [
        {
          "internalType": "uint256",
          "name": "_mapId",
          "type": "uint256"
        }
      ],
      "name": "resetOpenDoors",
      "outputs": [],
      "stateMutability": "nonpayable",
      "type": "function"
    },
    {
      "inputs": [
        {
          "internalType": "uint256",
          "name": "_gameId",
          "type": "uint256"
        },
        {
          "internalType": "uint256",
          "name": "_for",
          "type": "uint256"
        },
        {
          "internalType": "uint256",
          "name": "_against",
          "type": "uint256"
        }
      ],
      "name": "resolveChallenge",
      "outputs": [
        {
          "internalType": "bool",
          "name": "",
          "type": "bool"
        }
      ],
      "stateMutability": "nonpayable",
      "type": "function"
    },
    {
      "inputs": [
        {
          "internalType": "uint256",
          "name": "_gameId",
          "type": "uint256"
        }
      ],
      "name": "roll",
      "outputs": [
        {
          "internalType": "uint256",
          "name": "",
          "type": "uint256"
        }
      ],
      "stateMutability": "nonpayable",
      "type": "function"
    },
    {
      "inputs": [
        {
          "internalType": "uint256",
          "name": "",
          "type": "uint256"
        }
      ],
      "name": "roomList",
      "outputs": [
        {
          "internalType": "enum BCTypes.BCEventType",
          "name": "eventType",
          "type": "uint8"
        },
        {
          "internalType": "uint256",
          "name": "eventNum",
          "type": "uint256"
        },
        {
          "internalType": "uint8",
          "name": "numItems",
          "type": "uint8"
        },
        {
          "internalType": "uint8",
          "name": "numData",
          "type": "uint8"
        },
        {
          "internalType": "bool",
          "name": "sigDetected",
          "type": "bool"
        }
      ],
      "stateMutability": "view",
      "type": "function"
    },
    {
      "inputs": [],
      "name": "roomTiles",
      "outputs": [
        {
          "internalType": "contract RoomTileInterface",
          "name": "",
          "type": "address"
        }
      ],
      "stateMutability": "view",
      "type": "function"
    },
    {
      "inputs": [
        {
          "internalType": "address",
          "name": "_gameAddress",
          "type": "address"
        },
        {
          "internalType": "address",
          "name": "_utilsAddress",
          "type": "address"
        },
        {
          "internalType": "address",
          "name": "_roomTilesAddress",
          "type": "address"
        },
        {
          "internalType": "address",
          "name": "_actionsAddress",
          "type": "address"
        },
        {
          "internalType": "address",
          "name": "_playersAddress",
          "type": "address"
        }
      ],
      "name": "setContractAddresses",
      "outputs": [],
      "stateMutability": "nonpayable",
      "type": "function"
    },
    {
      "inputs": [
        {
          "internalType": "uint256",
          "name": "_mapId",
          "type": "uint256"
        },
        {
          "internalType": "uint256",
          "name": "_row",
          "type": "uint256"
        },
        {
          "internalType": "uint256",
          "name": "_col",
          "type": "uint256"
        },
        {
          "internalType": "uint256",
          "name": "_direction",
          "type": "uint256"
        },
        {
          "internalType": "enum BCTypes.DoorStatus",
          "name": "_status",
          "type": "uint8"
        },
        {
          "internalType": "uint256",
          "name": "_strength",
          "type": "uint256"
        }
      ],
      "name": "setDoorFromPos",
      "outputs": [],
      "stateMutability": "nonpayable",
      "type": "function"
    },
    {
      "inputs": [
        {
          "internalType": "uint256",
          "name": "_mapId",
          "type": "uint256"
        },
        {
          "internalType": "uint256",
          "name": "_row",
          "type": "uint256"
        },
        {
          "internalType": "uint256",
          "name": "_col",
          "type": "uint256"
        }
      ],
      "name": "setLooted",
      "outputs": [],
      "stateMutability": "nonpayable",
      "type": "function"
    },
    {
      "inputs": [
        {
          "internalType": "bytes32",
          "name": "_hash",
          "type": "bytes32"
        },
        {
          "internalType": "uint256",
          "name": "_size",
          "type": "uint256"
        },
        {
          "internalType": "uint256",
          "name": "_offset",
          "type": "uint256"
        }
      ],
      "name": "sliceHashToSmallInt",
      "outputs": [
        {
          "internalType": "uint8",
          "name": "",
          "type": "uint8"
        }
      ],
      "stateMutability": "pure",
      "type": "function"
    },
    {
      "inputs": [
        {
          "internalType": "uint8",
          "name": "_min",
          "type": "uint8"
        },
        {
          "internalType": "uint8",
          "name": "_max",
          "type": "uint8"
        }
      ],
      "name": "smallIntBetweenVals",
      "outputs": [
        {
          "internalType": "uint8",
          "name": "",
          "type": "uint8"
        }
      ],
      "stateMutability": "nonpayable",
      "type": "function"
    },
    {
      "inputs": [
        {
          "internalType": "address",
          "name": "newOwner",
          "type": "address"
        }
      ],
      "name": "transferOwnership",
      "outputs": [],
      "stateMutability": "nonpayable",
      "type": "function"
    }
  ],
  "transactionHash": "0xee8996dafce8d8bc8ca9189c90d22809164bb3e3cb8fe743a02a30cd89138ad2",
  "args": [],
  "numDeployments": 1,
  "solcInputHash": "b20c193bf04b28dc0cfd0c3cb57f3762",
  "bytecode": "0x608060405260006001553480156200001657600080fd5b50620000223362000028565b62000078565b600080546001600160a01b038381166001600160a01b0319831681178455604051919092169283917f8be0079c531659141344cd1fd0a4f28419497f9722a3daafe3b4186f6b6457e09190a35050565b61477680620000886000396000f3fe608060405234801561001057600080fd5b50600436106102695760003560e01c80637b45c0d411610151578063c6b41b45116100c3578063f10bff2b11610087578063f10bff2b14610618578063f2fde38b1461062b578063f7157f641461063e578063f9dfbfcb14610651578063fa3993c214610671578063fe368d7a1461068457600080fd5b8063c6b41b45146105c4578063c8e9ac96146105d7578063ce28613f146105ea578063e847ae1e146105fd578063f01fc35a1461061057600080fd5b80638da5cb5b116101155780638da5cb5b1461050f578063951fc3fe1461052057806397f34c3f14610533578063a63a9aab14610546578063b14ca5751461059e578063c3fe3e28146105b157600080fd5b80637b45c0d4146104a357806381bad36d146104b65780638214f222146104c957806386e529d0146104dc5780638af13fd2146104ef57600080fd5b806353011696116101ea5780635f8951e6116101ae5780635f8951e6146103fd57806364db84bf1461042557806369568fd5146104385780636ea1dcd814610458578063715018a61461047857806375990a0e1461048057600080fd5b8063530116961461038a57806358058283146103af57806358308aa8146103c257806359215223146103d75780635dc96967146103ea57600080fd5b80631e1de205116102315780631e1de2051461030c5780631ef04416146103145780631f7b4f30146103345780632ec6572a1461034757806345e1e03c1461036a57600080fd5b806302861c6c1461026e57806303b414e41461029757806315636a4d146102c25780631b5ac4b5146102e25780631cdec3ad14610303575b600080fd5b61028161027c366004613c5c565b610697565b60405161028e9190613cf1565b60405180910390f35b6005546102aa906001600160a01b031681565b6040516001600160a01b03909116815260200161028e565b6102d56102d0366004613c5c565b610766565b60405161028e9190613cff565b6102f56102f0366004613d32565b6108ab565b60405190815260200161028e565b6102f560075481565b6102f56108cb565b610327610322366004613d32565b610943565b60405161028e9190613dc2565b6102f5610342366004613d32565b610b37565b61035a610355366004613efb565b610b93565b604051901515815260200161028e565b61037d610378366004613f4c565b610d62565b60405161028e9190613fbb565b61039d610398366004613fd9565b6111be565b60405160ff909116815260200161028e565b6102816103bd36600461400b565b6111fb565b6103d56103d0366004613d32565b611284565b005b6103d56103e536600461402d565b611391565b61035a6103f8366004613c5c565b611533565b61041061040b366004613d32565b6115ce565b6040805192835260208301919091520161028e565b6102f561043336600461400b565b611624565b61044b610446366004613d32565b61163c565b60405161028e91906140ba565b61046b610466366004613fd9565b61179c565b60405161028e9190614108565b6103d56118da565b61049361048e366004613d32565b6118ee565b60405161028e9493929190614116565b6004546102aa906001600160a01b031681565b6102f56104c4366004613fd9565b61194f565b6102f56104d7366004613d32565b611a3f565b6103d56104ea366004613c5c565b611ab9565b6105026104fd366004613d32565b611b6c565b60405161028e919061414f565b6000546001600160a01b03166102aa565b61037d61052e366004614191565b611c7f565b61039d610541366004613c5c565b611da9565b61058d610554366004613d32565b60066020526000908152604090208054600182015460029092015460ff9182169291818116916101008104821691620100009091041685565b60405161028e9594939291906141be565b6103d56105ac366004613fd9565b611dd4565b6002546102aa906001600160a01b031681565b6103d56105d236600461400b565b611e30565b6102f56105e5366004613c5c565b61218d565b61039d6105f83660046141f6565b6121d5565b6103d561060b36600461424b565b612285565b6102f56122e9565b6102f56106263660046142b0565b612522565b6103d56106393660046142dc565b61256f565b6003546102aa906001600160a01b031681565b61066461065f366004613c5c565b6125e8565b60405161028e91906142f7565b6102f561067f3660046142b0565b6126cc565b6103d5610692366004614306565b612794565b61069f613ab4565b60066000600886815481106106b6576106b661433c565b600091825260208083208884526001600790930201919091018152604080832087845282528083205460ff9081168552918401949094529183019020825160a0810190935280549091839116600581111561071357610713613c88565b600581111561072457610724613c88565b81526001820154602082015260029091015460ff80821660408401526101008204811660608401526201000090910416151560809091015290505b9392505050565b61076e613ae5565b6000600885815481106107835761078361433c565b6000918252602080832087845260016007909302018201815260408084208785529091529091200190506107b5613ae5565b60005b60048110156108a1576000600888815481106107d6576107d661433c565b906000526020600020906007020160020160008584600481106107fb576107fb61433c565b015481526020810191909152604001600020805490915062010000900460ff16600181600481111561082f5761082f613c88565b148061084c5750600281600481111561084a5761084a613c88565b145b806108685750600381600481111561086657610866613c88565b145b1561088c5760018484600481106108815761088161433c565b911515602090920201525b5050808061089990614368565b9150506107b8565b5095945050505050565b6000808212156108c3576108be82614381565b6108c5565b815b92915050565b60018054600091826108dc83614368565b91905055506001546001436108f1919061439d565b403360405160200161092893929190928352602083019190915260601b6bffffffffffffffffffffffff1916604082015260540190565b60405160208183030381529060405280519060200120905090565b60408051600b808252610180820190925260609160009190816020015b606081526020019060019003908161096057905050905060005b600b8110156109e55760408051600b808252610180820190925290816020015b6109a2613b03565b81526020019060019003908161099a579050508282815181106109c7576109c761433c565b602002602001018190525080806109dd90614368565b91505061097a565b5060005b600b811015610b305760005b600b811015610b1d5760088581548110610a1157610a1161433c565b600091825260208083208584526001600790930201820181526040808420858552825292839020835160e081018552815460ff808216835261010090910416928101929092528351608081018552919390929084019190830160048282826020028201915b815481526020019060010190808311610a765750505091835250506005919091015460ff80821615156020840152610100820481161515604084015262010000820481161515606084015263010000009091041615156080909101528351849084908110610ae657610ae661433c565b60200260200101518281518110610aff57610aff61433c565b60200260200101819052508080610b1590614368565b9150506109f5565b5080610b2881614368565b9150506109e9565b5092915050565b600080610b46600160066121d5565b60ff1690507ffe34d093a460a16ee5fb374540914d1c734a17502c0c1a87b387c8d6097e1c518382604051610b85929190918252602082015260400190565b60405180910390a192915050565b8151835160009160ff9182169116148015610bbb5750826020015160ff16846020015160ff16145b15610bc857506001610d5a565b8251845160ff908116911614801590610bef5750826020015160ff16846020015160ff1614155b15610bfc57506000610d5a565b8251845160009160ff908116911603610c30578451845160ff91821691161115610c2857506002610c52565b506003610c52565b846020015160ff16846020015160ff161115610c4e57506001610c52565b5060005b6000859050600060088881548110610c6c57610c6c61433c565b906000526020600020906007020190505b8551825160ff9081169116148015610ca25750856020015160ff16826020015160ff16145b610d525760008381526002820160205260409020858015610cde57506001815462010000900460ff166004811115610cdc57610cdc613c88565b145b80610d2957506002815462010000900460ff166004811115610d0257610d02613c88565b1480610d2957506003815462010000900460ff166004811115610d2757610d27613c88565b145b15610d3f57610d388484611c7f565b9250610d4c565b6000945050505050610d5a565b50610c7d565b600193505050505b949350505050565b6040805180820190915260008082526020820152610dac604051806040016040528060158152602001741515152a2920ab22a929a0a61029aa20a92a15151560591b815250612843565b610db4613b22565b600181886000015160ff16600b8110610dcf57610dcf61433c565b6020020151886020015160ff16600b8110610dec57610dec61433c565b91151560209092020152610dfe613b50565b60408051600180825281830190925260009190829082816020015b6040805180820190915260008082526020820152815260200190600190039081610e195790505090508a81600081518110610e5657610e5661433c565b60209081029190910101528084525b6000610e71848461439d565b1115611171576000848460198110610e8b57610e8b61433c565b6020020151905060008160018351610ea3919061439d565b81518110610eb357610eb361433c565b602002602001015190508480610ec890614368565b9550506000610ed98f838e8e612886565b905060005b6004811015611168576000828260048110610efb57610efb61433c565b6020020151805190915060ff16158015610f1a5750602081015160ff16155b15610f255750611156565b80518a9060ff16600b8110610f3c57610f3c61433c565b6020020151816020015160ff16600b8110610f5957610f5961433c565b602002015115610f695750611156565b8e51815160ff9081169116148015610f8e57508e6020015160ff16816020015160ff16145b15610fee578b85516001610fa291906143b0565b11610fb9578e9a50505050505050505050506111b4565b84610fc560018e61439d565b81518110610fd557610fd561433c565b60200260200101519a50505050505050505050506111b4565b60018a826000015160ff16600b81106110095761100961433c565b6020020151826020015160ff16600b81106110265761102661433c565b9115156020909202015284516000906110409060016143b0565b67ffffffffffffffff81111561105857611058613e57565b60405190808252806020026020018201604052801561109d57816020015b60408051808201909152600080825260208201528152602001906001900390816110765790505b50905060005b600182516110b1919061439d565b811015611102578681815181106110ca576110ca61433c565b60200260200101518282815181106110e4576110e461433c565b602002602001018190525080806110fa90614368565b9150506110a3565b50818160018351611113919061439d565b815181106111235761112361433c565b6020026020010181905250808a89601981106111415761114161433c565b60200201528761115081614368565b98505050505b8061116081614368565b915050610ede565b50505050610e65565b60405162461bcd60e51b815260206004820152601360248201527208cc2d2d8cac840e8de40ccd2dcc840e0c2e8d606b1b60448201526064015b60405180910390fd5b9695505050505050565b6000806111cb868661439d565b90506000836111da86846143c3565b6111e491906143f0565b90506111f087826143b0565b979650505050505050565b611203613ab4565b60008281526006602052604090819020815160a081019092528054829060ff16600581111561123457611234613c88565b600581111561124557611245613c88565b81526001820154602082015260029091015460ff8082166040840152610100820481166060840152620100009091041615156080909101529392505050565b6002546001600160a01b0316331461129b57600080fd5b60005b600882815481106112b1576112b161433c565b600091825260209091206003600790920201015460ff1681101561138d576002600883815481106112e4576112e461433c565b600091825260208083208584526007929092029091016002019052604090205462010000900460ff16600481111561131e5761131e613c88565b0361137b576001600883815481106113385761133861433c565b60009182526020808320858452600260079093020191909101905260409020805462ff000019166201000083600481111561137557611375613c88565b02179055505b8061138581614368565b91505061129e565b5050565b6002546001600160a01b03163314806113b457506004546001600160a01b031633145b806113c957506005546001600160a01b031633145b61141f5760405162461bcd60e51b815260206004820152602160248201527f4e6f742067616d652f616374696f6e732f706c617965727320636f6e747261636044820152601d60fa1b60648201526084016111ab565b6000600887815481106114345761143461433c565b600091825260208083208984526001600790930201820181526040808420898552909152918290208251608081019093520160048282826020028201915b81548152602001906001019080831161147257505050505090506000600888815481106114a1576114a161433c565b906000526020600020906007020160020160008387600481106114c6576114c661433c565b602002015181526020019081526020016000209050838160000160026101000a81548160ff0219169083600481111561150157611501613c88565b0217905550821561152957805461ffff191661010060ff851690810260ff1916919091171781555b5050505050505050565b60008061153f85610b37565b6040805187815260208101839052908101869052606081018590529091507f75b6a8325595f91135e07382840634226793c68c9e59623da7e10d7ad3d95b959060800160405180910390a18060010361159c57600091505061075f565b6003836115a986846143b0565b6115b39190614404565b13156115c357600191505061075f565b506000949350505050565b600080600883815481106115e4576115e461433c565b906000526020600020906007020160050154600884815481106116095761160961433c565b90600052602060002090600702016006015491509150915091565b6000816116328460046143c3565b61075f91906143b0565b60606000600883815481106116535761165361433c565b600091825260209091206003600790920201015460ff1667ffffffffffffffff81111561168257611682613e57565b6040519080825280602002602001820160405280156116d457816020015b6116c160408051606081018252600080825260208201819052909182015290565b8152602001906001900390816116a05790505b50905060005b8151811015610b3057600884815481106116f6576116f661433c565b6000918252602080832084845260026007909302019190910181526040918290208251606081018452815460ff8082168352610100820481169483019490945290939192918401916201000090910416600481111561175757611757613c88565b600481111561176857611768613c88565b8152505082828151811061177e5761177e61433c565b6020026020010181905250808061179490614368565b9150506116da565b6117bd60408051606081018252600080825260208201819052909182015290565b6000600886815481106117d2576117d261433c565b600091825260208083208884526001600790930201820181526040808420888552909152918290208251608081019093520160048282826020028201915b81548152602001906001019080831161181057505050505090506008868154811061183d5761183d61433c565b906000526020600020906007020160020160008285600481106118625761186261433c565b6020908102919091015182528181019290925260409081016000208151606081018352815460ff8082168352610100820481169583019590955290939192840191620100009091041660048111156118bc576118bc613c88565b60048111156118cd576118cd613c88565b9052509695505050505050565b6118e2612acf565b6118ec6000612b29565b565b600881815481106118fe57600080fd5b600091825260209182902060036007909202019081015460408051808201909152600483015460ff818116835261010090910481169482019490945260058301546006909301549390911693509184565b6002546000906001600160a01b0316331461196957600080fd5b60006008868154811061197e5761197e61433c565b60009182526020808320888452600160079093020191909101815260408083208784529091529020905082156119c257805460ff191660ff84161790555080610d5a565b805460ff16606319016119e457805460ff191660129081179091559050610d5a565b805460ff1660001901611a3357611a1a60088781548110611a0757611a0761433c565b9060005260206000209060070201612b79565b815460ff191660ff919091169081179091559050610d5a565b50600095945050505050565b600081600003611a5157506001919050565b81600103611a6157506000919050565b81600203611a7157506003919050565b81600303611a8157506002919050565b60405162461bcd60e51b815260206004820152600d60248201526c2130b2103234b932b1ba34b7b760991b60448201526064016111ab565b6004546001600160a01b03163314611b135760405162461bcd60e51b815260206004820181905260248201527f4e6f7420616374696f6e7320636f6e7472616374202d207365744c6f6f74656460448201526064016111ab565b600160088481548110611b2857611b2861433c565b6000918252602080832095835260016007909202909501018452604080822093825292909352912060050180549115156101000261ff001990921691909117905550565b6060600060075467ffffffffffffffff811115611b8b57611b8b613e57565b604051908082528060200260200182016040528015611bc457816020015b611bb1613ab4565b815260200190600190039081611ba95790505b50905060005b8151811015610b305760008181526006602052604090819020815160a081019092528054829060ff166005811115611c0457611c04613c88565b6005811115611c1557611c15613c88565b81526001820154602082015260029091015460ff8082166040840152610100820481166060840152620100009091041615156080909101528251839083908110611c6157611c6161433c565b60200260200101819052508080611c7790614368565b915050611bca565b604080518082019091526000808252602082015282600003611cd157604051806040016040528060018460000151611cb79190614424565b60ff168152602001836020015160ff1681525090506108c5565b82600103611cf557604051806040016040528083600001516001611cb7919061443d565b82600203611d32576040518060400160405280836000015160ff16815260200183602001516001611d26919061443d565b60ff16905290506108c5565b82600303611d63576040518060400160405280836000015160ff16815260200160018460200151611d269190614424565b6000611d6e84612cab565b604051602001611d7e919061447a565b60405160208183030381529060405290508060405162461bcd60e51b81526004016111ab91906144b5565b600080826001611dba8660026145cc565b611dc4919061439d565b901b8516831c9150509392505050565b611ddc612acf565b8060088581548110611df057611df061433c565b60009182526020808320968352600791909102909501600101855260408082209482529390945291909220805460ff191660ff9092169190911790555050565b6002546001600160a01b03163314611e4757600080fd5b611e4f613b22565b60005b828110156121875760005b600b811015611f125760005b600b811015611eff5760088681548110611e8557611e8561433c565b60009182526020808320858452600792909202909101600101815260408083208484529091529020600501546301000000900460ff168483600b8110611ecd57611ecd61433c565b602002015182600b8110611ee357611ee361433c565b9115156020909202015280611ef781614368565b915050611e69565b5080611f0a81614368565b915050611e5d565b5060005b600b8110156121745760005b600b811015612161578382600b8110611f3d57611f3d61433c565b602002015181600b8110611f5357611f5361433c565b60200201511561214f5760005b600481101561214d57600060088881548110611f7e57611f7e61433c565b600091825260208083208784526001600790930201820181526040808420878552909152909120018260048110611fb757611fb761433c565b01549050600060088981548110611fd057611fd061433c565b600091825260208083208584526007929092029091016002019052604090205462010000900460ff169050600381600481111561200f5761200f613c88565b036121385784158015612020575082155b1561202c57505061213b565b6120386001600b61439d565b851480156120465750826001145b1561205257505061213b565b831580156120605750826003145b1561206c57505061213b565b6120786001600b61439d565b841480156120865750826002145b1561209257505061213b565b60006120b88460405180604001604052808960ff1681526020018860ff16815250611c7f565b9050600060088b815481106120cf576120cf61433c565b60009182526020808320855160ff9081168552600793909302016001018152604080842086830151841685529091529091208054909250161580159061211a5750805460ff16600214155b156121355760058101805463ff000000191663010000001790555b50505b50505b8061214581614368565b915050611f60565b505b8061215981614368565b915050611f22565b508061216c81614368565b915050611f16565b508061217f81614368565b915050611e52565b50505050565b6000600884815481106121a2576121a261433c565b6000918252602080832095835260079190910290940160010184526040808220938252929093525090205460ff16919050565b60018054600091826121e683614368565b91905055506000336001546001436121fe919061439d565b60405160609390931b6bffffffffffffffffffffffff19166020840152603483019190915240605482015260740160408051601f198184030181529190528051602090910120905060006122528585614424565b61225d90600161443d565b90508460ff168160ff168361227291906145d8565b61227c91906143b0565b95945050505050565b61228d612acf565b600280546001600160a01b038088166001600160a01b031992831617909255600380548684169083161790556004805485841690831617905560058054928416929091169190911790556122df612dac565b6007555050505050565b6002546000906001600160a01b0316331461230357600080fd5b600880546001810182556000829052604080516103408101825260038152600460208201526005918101919091526006606082015260076080820181905260a0820193909352600960c0820152600a60e0820152600b610100820152600c610120820152600d610140820152600e610160820152600f61018082015260106101a082015260116101c082015260136101e08201526014610200820152601561022082015260166102408201526017610260820152601861028082015260196102a0820152601a6102c08201819052601b6102e0830152601c610300830152601d610320830152929091027ff3f7a9fe364faab93b216da50a3214154f22a0a2b415b23a84c8169e8b636ee3019161241d9083908390613b78565b506040805160608101825260ff808252602082015290810160009052600383015460ff9081166000908152600285016020908152604091829020845181549286015185166101000261ffff19909316941693909317178083559083015190829062ff000019166201000083600481111561249957612499613c88565b0217905550505060038201805460ff169060006124b5836145ec565b82546101009290920a60ff8181021990931691909216919091021790555060408051808201909152600a8152600660209091015260048201805461ffff191661060a17905561250382612f39565b61250c82613800565b60085461251b9060019061439d565b9250505090565b600080612542836000015160000b856000015160000b6102f09190614404565b90506000612563846020015160000b866020015160000b6102f09190614404565b905061227c81836143b0565b612577612acf565b6001600160a01b0381166125dc5760405162461bcd60e51b815260206004820152602660248201527f4f776e61626c653a206e6577206f776e657220697320746865207a65726f206160448201526564647265737360d01b60648201526084016111ab565b6125e581612b29565b50565b6125f0613b03565b600884815481106126035761260361433c565b600091825260208083208684526001600790930201820181526040808420868552825292839020835160e081018552815460ff808216835261010090910416928101929092528351608081018552919390929084019190830160048282826020028201915b8154815260200190600101908083116126685750505091835250506005919091015460ff8082161515602084015261010082048116151560408401526201000082048116151560608401526301000000909104161515608090910152949350505050565b805182516000916126dc9161460b565b60000b6001036126ee575060006108c5565b815183516126fc919061460b565b60000b1961270c575060016108c5565b81602001518360200151612720919061460b565b60000b19612730575060026108c5565b81602001518360200151612744919061460b565b60000b600103612756575060036108c5565b60405162461bcd60e51b8152602060048201526013602482015272115c9c9bdc8e88139bdd0818591a9858d95b9d606a1b60448201526064016111ab565b6005546001600160a01b031633146127e45760405162461bcd60e51b8152602060048201526013602482015272139bdd081c1b185e595c8818dbdb9d1c9858dd606a1b60448201526064016111ab565b80600885815481106127f8576127f861433c565b600091825260208083209683526001600790920290960101855260408082209482529390945291909220600501805491151563010000000263ff000000199092169190911790555050565b6125e58160405160240161285791906144b5565b60408051601f198184030181529190526020810180516001600160e01b031663104c13eb60e21b179052613a93565b61288e613bc3565b612896613bc3565b60005b60048110156108a15760006128ae8288611c7f565b90506000600889815481106128c5576128c561433c565b600091825260208083208b5160ff9081168552600160079094029091018301825260408085208d8401519092168552915290912001836004811061290b5761290b61433c565b01549050600060088a815481106129245761292461433c565b6000918252602080832085845260026007909302018201905260409091209150815462010000900460ff16600481111561296057612960613c88565b148061298757506003815462010000900460ff16600481111561298557612985613c88565b145b806129b557506001815462010000900460ff1660048111156129ab576129ab613c88565b1480156129b55750875b80612a6b5750868015612a6b575060088a815481106129d6576129d661433c565b600091825260208083208c5160ff908116855260079390930201600101815260408084208d8301518416855290915290912060050154620100009004168015612a6b575060088a81548110612a2d57612a2d61433c565b60009182526020808320865160ff90811685526007939093020160010181526040808420878301518416855290915290912060050154620100009004165b15612a8d5782858560048110612a8357612a8361433c565b6020020152612ab9565b6040805180820190915260008082526020820152858560048110612ab357612ab361433c565b60200201525b5050508080612ac790614368565b915050612899565b6000546001600160a01b031633146118ec5760405162461bcd60e51b815260206004820181905260248201527f4f776e61626c653a2063616c6c6572206973206e6f7420746865206f776e657260448201526064016111ab565b600080546001600160a01b038381166001600160a01b0319831681178455604051919092169283917f8be0079c531659141344cd1fd0a4f28419497f9722a3daafe3b4186f6b6457e09190a35050565b80546000908190612b8c9060019061439d565b90505b8015612c48576000612ba26000836121d5565b9050836000018160ff1681548110612bbc57612bbc61433c565b9060005260206000200154846000018381548110612bdc57612bdc61433c565b9060005260206000200154856000018481548110612bfc57612bfc61433c565b906000526020600020016000876000018560ff1681548110612c2057612c2061433c565b6000918252602090912001929092559190915550819050612c408161462c565b915050612b8f565b5081546000908390612c5c9060019061439d565b81548110612c6c57612c6c61433c565b9060005260206000200154905082600001805480612c8c57612c8c614643565b6001900381819060005260206000200160009055905580915050919050565b606081600003612cd25750506040805180820190915260018152600360fc1b602082015290565b8160005b8115612cfc5780612ce681614368565b9150612cf59050600a836143f0565b9150612cd6565b60008167ffffffffffffffff811115612d1757612d17613e57565b6040519080825280601f01601f191660200182016040528015612d41576020820181803683370190505b5090505b8415610d5a57612d5660018361439d565b9150612d63600a866145d8565b612d6e9060306143b0565b60f81b818381518110612d8357612d8361433c565b60200101906001600160f81b031916908160001a905350612da5600a866143f0565b9450612d45565b600080600360009054906101000a90046001600160a01b03166001600160a01b03166338fdf0bd6040518163ffffffff1660e01b8152600401602060405180830381865afa158015612e02573d6000803e3d6000fd5b505050506040513d601f19601f82011682018060405250810190612e269190614659565b905060005b81811015612f335760035460405163413a9f5f60e11b8152600481018390526001600160a01b03909116906382753ebe9060240160a060405180830381865afa158015612e7c573d6000803e3d6000fd5b505050506040513d601f19601f82011682018060405250810190612ea09190614672565b600082815260066020526040902081518154829060ff19166001836005811115612ecc57612ecc613c88565b02179055506020820151600182015560408201516002909101805460608401516080909401511515620100000262ff00001960ff9586166101000261ffff199093169590941694909417179190911691909117905580612f2b81614368565b915050612e2b565b50919050565b6000806002600754612f4b919061439d565b905060016000612f59613b22565b6004860154600190829060ff16600b8110612f7657612f7661433c565b60200201516004880154610100900460ff16600b8110612f9857612f9861433c565b91151560209092020152612faa613bfc565b60408051808201909152600488015460ff80821683526101009091041660208201528187601e8110612fde57612fde61433c565b602002015285612fed81614368565b9650505b6000851180156130015750600086115b156137745760008161301460018961439d565b601e81106130245761302461433c565b60200201519050866130358161462c565b9750508187601e811061304a5761304a61433c565b602002016130716040518060400160405280600060ff168152602001600060ff1681525090565b90528561307d8161462c565b965050848061308b9061462c565b825160ff908116600090815260018c810160209081526040808420828901519095168452939052918120805460ff1916909217909155909650602191506130d39060636121d5565b60ff16101561311657805160ff908116600090815260018a016020908152604080832082860151909416835292905220600501805462ff00001916620100001790555b600060405180608001604052806000815260200160018152602001600281526020016003815250905060006001600461314f919061439d565b90505b80156131df5760006131656000836121d5565b9050828160ff166004811061317c5761317c61433c565b60200201518383600481106131935761319361433c565b60200201518484600481106131aa576131aa61433c565b60200201858460ff16600481106131c3576131c361433c565b60200201919091525250806131d78161462c565b915050613152565b5060005b600481101561376c5782516020840151600091820b910b83836004811061320c5761320c61433c565b602002015160000361322a578161322281614713565b9250506132ae565b83836004811061323c5761323c61433c565b6020020151600103613252578161322281614728565b8383600481106132645761326461433c565b6020020151600203613282578061327a81614728565b9150506132ae565b8383600481106132945761329461433c565b60200201516003036132ae57806132aa81614713565b9150505b60018212806132bd5750600181125b806132d257506132cf6002600b61439d565b82135b806132e757506132e46002600b61439d565b81135b156132f357505061375a565b6040805180820190915260ff80841680835290831660208301528890600b811061331f5761331f61433c565b6020020151816020015160ff16600b811061333c5761333c61433c565b6020020151158061339d57508c6001016000876000015160ff1681526020019081526020016000206000876020015160ff16815260200190815260200160002060010161338987836126cc565b600481106133995761339961433c565b0154155b15613756578915806133c657506133b589604261439d565b6133c1600060636121d5565b60ff16105b156137515760405180606001604052806133e2600060046121d5565b60ff1681526020016133f6600060046121d5565b60ff16815260200160018152508d60020160008f60030160009054906101000a900460ff1660ff16815260200190815260200160002060008201518160000160006101000a81548160ff021916908360ff16021790555060208201518160000160016101000a81548160ff021916908360ff16021790555060408201518160000160026101000a81548160ff0219169083600481111561349857613498613c88565b0217905550505060038d015460ff908116600090815260028f01602052604081205490911690036134eb5760038d015460ff16600090815260028e0160205260409020805462ff00001916620300001790555b60038d01805460ff16906000613500836145ec565b91906101000a81548160ff021916908360ff1602179055505060168961352691906143b0565b9850604289111561353657604298505b8051889060ff16600b811061354d5761354d61433c565b6020020151816020015160ff16600b811061356a5761356a61433c565b602002015115156000036135ee5780878d601e811061358b5761358b61433c565b60200201528b61359a81614368565b9c505089806135a890614368565b9a5050600188826000015160ff16600b81106135c6576135c661433c565b6020020151826020015160ff16600b81106135e3576135e361433c565b911515602090920201525b8c6001016000876000015160ff1681526020019081526020016000206000876020015160ff1681526020019081526020016000206001018585600481106136375761363761433c565b60200201516004811061364c5761364c61433c565b015460000361374c5760038d01546136699060019060ff16614424565b60ff168d6001016000886000015160ff1681526020019081526020016000206000886020015160ff1681526020019081526020016000206001018686600481106136b5576136b561433c565b6020020151600481106136ca576136ca61433c565b015560038d01546136e09060019060ff16614424565b60ff168d6001016000836000015160ff1681526020019081526020016000206000836020015160ff16815260200190815260200160002060010161373987876004811061372f5761372f61433c565b6020020151611a3f565b600481106137495761374961433c565b01555b613756565b600098505b5050505b8061376481614368565b9150506131e3565b505050612ff1565b60048701805460ff80821660009081526001808c016020818152604080852061010097889004871686528252808520805460ff1916600290811790915597548087168652928252808520969092049094168352938352838220600501805462ff000019908116909155908252938b01909152208054600392166201000083021790555050505050505050565b6000805b600b811015613a8e5760005b600b811015613a7b576000828152600185016020908152604080832084845290915290205460ff1660001901613a69578261384a81614368565b9350508260050361388a57600082815260018501602090815260408083208484529091529020805460ff1916606417905560058401829055600684018190555b60005b6004811015613a675760008381526001808701602090815260408084208685529091529091200181600481106138c5576138c561433c565b0154600003613a55578260091480156138de5750816006145b613a555760006139088260405180604001604052808760ff1681526020018660ff16815250611c7f565b805160ff90811660009081526001890160209081526040808320828601518516845290915290205491925016801580156139505750604261394b600060636121d5565b60ff16105b15613a52576040805160608101825260ff808252602082015290810160049052600388015460ff908116600090815260028a016020908152604091829020845181549286015185166101000261ffff19909316941693909317178083559083015190829062ff00001916620100008360048111156139d0576139d0613c88565b0217905550505060038701805460ff169060006139ec836145ec565b82546101009290920a60ff8181021990931691831602179091556003890154613a19925060019116614424565b60008681526001808a016020908152604080842089855290915290912060ff9290921691018460048110613a4f57613a4f61433c565b01555b50505b80613a5f81614368565b91505061388d565b505b80613a7381614368565b915050613810565b5080613a8681614368565b915050613804565b505050565b80516a636f6e736f6c652e6c6f67602083016000808483855afa5050505050565b6040805160a081019091528060005b8152600060208201819052604082018190526060820181905260809091015290565b60405180608001604052806004906020820280368337509192915050565b6040805160e08101825260008082526020820152908101613ac3613ae5565b604051806101600160405280600b905b613b3a613c28565b815260200190600190039081613b325790505090565b6040518061032001604052806019905b6060815260200190600190039081613b605790505090565b828054828255906000526020600020908101928215613bb3579160200282015b82811115613bb3578251825591602001919060010190613b98565b50613bbf929150613c47565b5090565b60405180608001604052806004905b6040805180820190915260008082526020820152815260200190600190039081613bd25790505090565b60408051610400810190915260006103c082018181526103e08301919091528152601d60208201613bd2565b604051806101600160405280600b906020820280368337509192915050565b5b80821115613bbf5760008155600101613c48565b600080600060608486031215613c7157600080fd5b505081359360208301359350604090920135919050565b634e487b7160e01b600052602160045260246000fd5b60068110613cae57613cae613c88565b9052565b613cbd828251613c9e565b6020810151602083015260ff604082015116604083015260ff60608201511660608301526080810151151560808301525050565b60a081016108c58284613cb2565b60808101818360005b6004811015613d295781511515835260209283019290910190600101613d08565b50505092915050565b600060208284031215613d4457600080fd5b5035919050565b60ff8151168252602060ff81830151168184015260408201516040840160005b6004811015613d8857825182529183019190830190600101613d6b565b505050506060810151151560c0838101919091526080820151151560e084015260a082015115156101008401520151151561012090910152565b6000602080830181845280855180835260408601915060408160051b87010192508387016000805b83811015613e4957888603603f19018552825180518088529088019088880190845b81811015613e3357613e1f838551613d4b565b928a01926101409290920191600101613e0c565b5090975050509386019391860191600101613dea565b509398975050505050505050565b634e487b7160e01b600052604160045260246000fd5b60ff811681146125e557600080fd5b600060408284031215613e8e57600080fd5b6040516040810181811067ffffffffffffffff82111715613ebf57634e487b7160e01b600052604160045260246000fd5b6040529050808235613ed081613e6d565b81526020830135613ee081613e6d565b6020919091015292915050565b80151581146125e557600080fd5b60008060008060c08587031215613f1157600080fd5b84359350613f228660208701613e7c565b9250613f318660608701613e7c565b915060a0850135613f4181613eed565b939692955090935050565b6000806000806000806101008789031215613f6657600080fd5b86359550613f778860208901613e7c565b9450613f868860608901613e7c565b935060a0870135613f9681613eed565b925060c0870135613fa681613eed565b8092505060e087013590509295509295509295565b604081016108c58284805160ff908116835260209182015116910152565b60008060008060808587031215613fef57600080fd5b5050823594602084013594506040840135936060013592509050565b6000806040838503121561401e57600080fd5b50508035926020909101359150565b60008060008060008060c0878903121561404657600080fd5b8635955060208701359450604087013593506060870135925060808701356005811061407157600080fd5b8092505060a087013590509295509295509295565b60ff815116825260ff60208201511660208301526040810151600581106140af576140af613c88565b806040840152505050565b6020808252825182820181905260009190848201906040850190845b818110156140fc576140e9838551614086565b92840192606092909201916001016140d6565b50909695505050505050565b606081016108c58284614086565b60ff8516815260a0810161413d6020830186805160ff908116835260209182015116910152565b60608201939093526080015292915050565b6020808252825182820181905260009190848201906040850190845b818110156140fc5761417e838551613cb2565b9284019260a0929092019160010161416b565b600080606083850312156141a457600080fd5b823591506141b58460208501613e7c565b90509250929050565b60a081016141cc8288613c9e565b85602083015260ff8516604083015260ff8416606083015282151560808301529695505050505050565b6000806040838503121561420957600080fd5b823561421481613e6d565b9150602083013561422481613e6d565b809150509250929050565b80356001600160a01b038116811461424657600080fd5b919050565b600080600080600060a0868803121561426357600080fd5b61426c8661422f565b945061427a6020870161422f565b93506142886040870161422f565b92506142966060870161422f565b91506142a46080870161422f565b90509295509295909350565b600080608083850312156142c357600080fd5b6142cd8484613e7c565b91506141b58460408501613e7c565b6000602082840312156142ee57600080fd5b61075f8261422f565b61014081016108c58284613d4b565b6000806000806080858703121561431c57600080fd5b8435935060208501359250604085013591506060850135613f4181613eed565b634e487b7160e01b600052603260045260246000fd5b634e487b7160e01b600052601160045260246000fd5b60006001820161437a5761437a614352565b5060010190565b6000600160ff1b820161439657614396614352565b5060000390565b818103818111156108c5576108c5614352565b808201808211156108c5576108c5614352565b80820281158282048414176108c5576108c5614352565b634e487b7160e01b600052601260045260246000fd5b6000826143ff576143ff6143da565b500490565b8181036000831280158383131683831282161715610b3057610b30614352565b60ff82811682821603908111156108c5576108c5614352565b60ff81811683821601908111156108c5576108c5614352565b60005b83811015614471578181015183820152602001614459565b50506000910152565b72024b73b30b634b2103234b932b1ba34b7b71d1606d1b8152600082516144a8816013850160208701614456565b9190910160130192915050565b60208152600082518060208401526144d4816040850160208701614456565b601f01601f19169190910160400192915050565b600181815b8085111561452357816000190482111561450957614509614352565b8085161561451657918102915b93841c93908002906144ed565b509250929050565b60008261453a575060016108c5565b81614547575060006108c5565b816001811461455d576002811461456757614583565b60019150506108c5565b60ff84111561457857614578614352565b50506001821b6108c5565b5060208310610133831016604e8410600b84101617156145a6575081810a6108c5565b6145b083836144e8565b80600019048211156145c4576145c4614352565b029392505050565b600061075f838361452b565b6000826145e7576145e76143da565b500690565b600060ff821660ff810361460257614602614352565b60010192915050565b600082810b9082900b03607f198112607f821317156108c5576108c5614352565b60008161463b5761463b614352565b506000190190565b634e487b7160e01b600052603160045260246000fd5b60006020828403121561466b57600080fd5b5051919050565b600060a0828403121561468457600080fd5b60405160a0810181811067ffffffffffffffff821117156146b557634e487b7160e01b600052604160045260246000fd5b6040528251600681106146c757600080fd5b81526020838101519082015260408301516146e181613e6d565b604082015260608301516146f481613e6d565b6060820152608083015161470781613eed565b60808201529392505050565b6000600160ff1b820161463b5761463b614352565b60006001600160ff1b01820161437a5761437a61435256fea264697066735822122069d6917a9c6c860f11891c140d9d7fa080633dd661c7d90f473f9077f22bd2de64736f6c63430008110033",
  "devdoc": {
    "kind": "dev",
    "methods": {
      "owner()": {
        "details": "Returns the address of the current owner."
      },
      "renounceOwnership()": {
        "details": "Leaves the contract without owner. It will not be possible to call `onlyOwner` functions anymore. Can only be called by the current owner. NOTE: Renouncing ownership will leave the contract without an owner, thereby removing any functionality that is only available to the owner."
      },
      "transferOwnership(address)": {
        "details": "Transfers ownership of the contract to a new account (`newOwner`). Can only be called by the current owner."
      }
    },
    "version": 1
  },
  "userdoc": {
    "kind": "user",
    "methods": {},
    "version": 1
  },
  "storageLayout": {
    "storage": [
      {
        "astId": 7,
        "contract": "contracts/BCMaps.sol:Maps",
        "label": "_owner",
        "offset": 0,
        "slot": "0",
        "type": "t_address"
      },
      {
        "astId": 19678,
        "contract": "contracts/BCMaps.sol:Maps",
        "label": "TODO_randomSeed",
        "offset": 0,
        "slot": "1",
        "type": "t_uint256"
      },
      {
        "astId": 14695,
        "contract": "contracts/BCMaps.sol:Maps",
        "label": "game",
        "offset": 0,
        "slot": "2",
        "type": "t_address"
      },
      {
        "astId": 14698,
        "contract": "contracts/BCMaps.sol:Maps",
        "label": "roomTiles",
        "offset": 0,
        "slot": "3",
        "type": "t_contract(RoomTileInterface)14689"
      },
      {
        "astId": 14700,
        "contract": "contracts/BCMaps.sol:Maps",
        "label": "actionsAddress",
        "offset": 0,
        "slot": "4",
        "type": "t_address"
      },
      {
        "astId": 14702,
        "contract": "contracts/BCMaps.sol:Maps",
        "label": "playersAddress",
        "offset": 0,
        "slot": "5",
        "type": "t_address"
      },
      {
        "astId": 14746,
        "contract": "contracts/BCMaps.sol:Maps",
        "label": "roomList",
        "offset": 0,
        "slot": "6",
        "type": "t_mapping(t_uint256,t_struct(RoomTile)19580_storage)"
      },
      {
        "astId": 14748,
        "contract": "contracts/BCMaps.sol:Maps",
        "label": "numRooms",
        "offset": 0,
        "slot": "7",
        "type": "t_uint256"
      },
      {
        "astId": 14752,
        "contract": "contracts/BCMaps.sol:Maps",
        "label": "maps",
        "offset": 0,
        "slot": "8",
        "type": "t_array(t_struct(Map)19509_storage)dyn_storage"
      }
    ],
    "types": {
      "t_address": {
        "encoding": "inplace",
        "label": "address",
        "numberOfBytes": "20"
      },
      "t_array(t_struct(Map)19509_storage)dyn_storage": {
        "base": "t_struct(Map)19509_storage",
        "encoding": "dynamic_array",
        "label": "struct BCTypes.Map[]",
        "numberOfBytes": "32"
      },
      "t_array(t_uint256)4_storage": {
        "base": "t_uint256",
        "encoding": "inplace",
        "label": "uint256[4]",
        "numberOfBytes": "128"
      },
      "t_array(t_uint256)dyn_storage": {
        "base": "t_uint256",
        "encoding": "dynamic_array",
        "label": "uint256[]",
        "numberOfBytes": "32"
      },
      "t_bool": {
        "encoding": "inplace",
        "label": "bool",
        "numberOfBytes": "1"
      },
      "t_contract(RoomTileInterface)14689": {
        "encoding": "inplace",
        "label": "contract RoomTileInterface",
        "numberOfBytes": "20"
      },
      "t_enum(BCEventType)19367": {
        "encoding": "inplace",
        "label": "enum BCTypes.BCEventType",
        "numberOfBytes": "1"
      },
      "t_enum(DoorStatus)19344": {
        "encoding": "inplace",
        "label": "enum BCTypes.DoorStatus",
        "numberOfBytes": "1"
      },
      "t_mapping(t_uint256,t_mapping(t_uint256,t_struct(GameTile)19476_storage))": {
        "encoding": "mapping",
        "key": "t_uint256",
        "label": "mapping(uint256 => mapping(uint256 => struct BCTypes.GameTile))",
        "numberOfBytes": "32",
        "value": "t_mapping(t_uint256,t_struct(GameTile)19476_storage)"
      },
      "t_mapping(t_uint256,t_struct(Door)19484_storage)": {
        "encoding": "mapping",
        "key": "t_uint256",
        "label": "mapping(uint256 => struct BCTypes.Door)",
        "numberOfBytes": "32",
        "value": "t_struct(Door)19484_storage"
      },
      "t_mapping(t_uint256,t_struct(GameTile)19476_storage)": {
        "encoding": "mapping",
        "key": "t_uint256",
        "label": "mapping(uint256 => struct BCTypes.GameTile)",
        "numberOfBytes": "32",
        "value": "t_struct(GameTile)19476_storage"
      },
      "t_mapping(t_uint256,t_struct(RoomTile)19580_storage)": {
        "encoding": "mapping",
        "key": "t_uint256",
        "label": "mapping(uint256 => struct BCTypes.RoomTile)",
        "numberOfBytes": "32",
        "value": "t_struct(RoomTile)19580_storage"
      },
      "t_struct(Door)19484_storage": {
        "encoding": "inplace",
        "label": "struct BCTypes.Door",
        "members": [
          {
            "astId": 19478,
            "contract": "contracts/BCMaps.sol:Maps",
            "label": "vsBreach",
            "offset": 0,
            "slot": "0",
            "type": "t_uint8"
          },
          {
            "astId": 19480,
            "contract": "contracts/BCMaps.sol:Maps",
            "label": "vsHack",
            "offset": 1,
            "slot": "0",
            "type": "t_uint8"
          },
          {
            "astId": 19483,
            "contract": "contracts/BCMaps.sol:Maps",
            "label": "status",
            "offset": 2,
            "slot": "0",
            "type": "t_enum(DoorStatus)19344"
          }
        ],
        "numberOfBytes": "32"
      },
      "t_struct(GameTile)19476_storage": {
        "encoding": "inplace",
        "label": "struct BCTypes.GameTile",
        "members": [
          {
            "astId": 19461,
            "contract": "contracts/BCMaps.sol:Maps",
            "label": "roomId",
            "offset": 0,
            "slot": "0",
            "type": "t_uint8"
          },
          {
            "astId": 19463,
            "contract": "contracts/BCMaps.sol:Maps",
            "label": "parentId",
            "offset": 1,
            "slot": "0",
            "type": "t_uint8"
          },
          {
            "astId": 19467,
            "contract": "contracts/BCMaps.sol:Maps",
            "label": "doors",
            "offset": 0,
            "slot": "1",
            "type": "t_array(t_uint256)4_storage"
          },
          {
            "astId": 19469,
            "contract": "contracts/BCMaps.sol:Maps",
            "label": "explored",
            "offset": 0,
            "slot": "5",
            "type": "t_bool"
          },
          {
            "astId": 19471,
            "contract": "contracts/BCMaps.sol:Maps",
            "label": "looted",
            "offset": 1,
            "slot": "5",
            "type": "t_bool"
          },
          {
            "astId": 19473,
            "contract": "contracts/BCMaps.sol:Maps",
            "label": "hasVent",
            "offset": 2,
            "slot": "5",
            "type": "t_bool"
          },
          {
            "astId": 19475,
            "contract": "contracts/BCMaps.sol:Maps",
            "label": "hasHazard",
            "offset": 3,
            "slot": "5",
            "type": "t_bool"
          }
        ],
        "numberOfBytes": "192"
      },
      "t_struct(Map)19509_storage": {
        "encoding": "inplace",
        "label": "struct BCTypes.Map",
        "members": [
          {
            "astId": 19487,
            "contract": "contracts/BCMaps.sol:Maps",
            "label": "unusedNormalRooms",
            "offset": 0,
            "slot": "0",
            "type": "t_array(t_uint256)dyn_storage"
          },
          {
            "astId": 19494,
            "contract": "contracts/BCMaps.sol:Maps",
            "label": "board",
            "offset": 0,
            "slot": "1",
            "type": "t_mapping(t_uint256,t_mapping(t_uint256,t_struct(GameTile)19476_storage))"
          },
          {
            "astId": 19499,
            "contract": "contracts/BCMaps.sol:Maps",
            "label": "doors",
            "offset": 0,
            "slot": "2",
            "type": "t_mapping(t_uint256,t_struct(Door)19484_storage)"
          },
          {
            "astId": 19501,
            "contract": "contracts/BCMaps.sol:Maps",
            "label": "numDoors",
            "offset": 0,
            "slot": "3",
            "type": "t_uint8"
          },
          {
            "astId": 19504,
            "contract": "contracts/BCMaps.sol:Maps",
            "label": "startPosition",
            "offset": 0,
            "slot": "4",
            "type": "t_struct(Position)19459_storage"
          },
          {
            "astId": 19506,
            "contract": "contracts/BCMaps.sol:Maps",
            "label": "mainReactorRow",
            "offset": 0,
            "slot": "5",
            "type": "t_uint256"
          },
          {
            "astId": 19508,
            "contract": "contracts/BCMaps.sol:Maps",
            "label": "mainReactorCol",
            "offset": 0,
            "slot": "6",
            "type": "t_uint256"
          }
        ],
        "numberOfBytes": "224"
      },
      "t_struct(Position)19459_storage": {
        "encoding": "inplace",
        "label": "struct BCTypes.Position",
        "members": [
          {
            "astId": 19456,
            "contract": "contracts/BCMaps.sol:Maps",
            "label": "row",
            "offset": 0,
            "slot": "0",
            "type": "t_uint8"
          },
          {
            "astId": 19458,
            "contract": "contracts/BCMaps.sol:Maps",
            "label": "col",
            "offset": 1,
            "slot": "0",
            "type": "t_uint8"
          }
        ],
        "numberOfBytes": "32"
      },
      "t_struct(RoomTile)19580_storage": {
        "encoding": "inplace",
        "label": "struct BCTypes.RoomTile",
        "members": [
          {
            "astId": 19571,
            "contract": "contracts/BCMaps.sol:Maps",
            "label": "eventType",
            "offset": 0,
            "slot": "0",
            "type": "t_enum(BCEventType)19367"
          },
          {
            "astId": 19573,
            "contract": "contracts/BCMaps.sol:Maps",
            "label": "eventNum",
            "offset": 0,
            "slot": "1",
            "type": "t_uint256"
          },
          {
            "astId": 19575,
            "contract": "contracts/BCMaps.sol:Maps",
            "label": "numItems",
            "offset": 0,
            "slot": "2",
            "type": "t_uint8"
          },
          {
            "astId": 19577,
            "contract": "contracts/BCMaps.sol:Maps",
            "label": "numData",
            "offset": 1,
            "slot": "2",
            "type": "t_uint8"
          },
          {
            "astId": 19579,
            "contract": "contracts/BCMaps.sol:Maps",
            "label": "sigDetected",
            "offset": 2,
            "slot": "2",
            "type": "t_bool"
          }
        ],
        "numberOfBytes": "96"
      },
      "t_uint256": {
        "encoding": "inplace",
        "label": "uint256",
        "numberOfBytes": "32"
      },
      "t_uint8": {
        "encoding": "inplace",
        "label": "uint8",
        "numberOfBytes": "1"
      }
    }
  }
}