{
  "address": "0xc025eDF359fE01a171EfD43600A8F837068D6cb5",
  "abi": [
    {
      "anonymous": false,
      "inputs": [
        {
          "indexed": false,
          "internalType": "uint256",
          "name": "gameId",
          "type": "uint256"
        },
        {
          "indexed": false,
          "internalType": "uint256",
          "name": "roll",
          "type": "uint256"
        },
        {
          "indexed": false,
          "internalType": "uint256",
          "name": "forValue",
          "type": "uint256"
        },
        {
          "indexed": false,
          "internalType": "uint256",
          "name": "against",
          "type": "uint256"
        }
      ],
      "name": "ChallengeEvent",
      "type": "event"
    },
    {
      "anonymous": false,
      "inputs": [
        {
          "indexed": false,
          "internalType": "uint256",
          "name": "gameId",
          "type": "uint256"
        },
        {
          "indexed": false,
          "internalType": "uint256",
          "name": "roll",
          "type": "uint256"
        }
      ],
      "name": "DiceRollEvent",
      "type": "event"
    },
    {
      "anonymous": false,
      "inputs": [
        {
          "indexed": true,
          "internalType": "address",
          "name": "previousOwner",
          "type": "address"
        },
        {
          "indexed": true,
          "internalType": "address",
          "name": "newOwner",
          "type": "address"
        }
      ],
      "name": "OwnershipTransferred",
      "type": "event"
    },
    {
      "inputs": [
        {
          "internalType": "int256",
          "name": "x",
          "type": "int256"
        }
      ],
      "name": "abs",
      "outputs": [
        {
          "internalType": "int256",
          "name": "",
          "type": "int256"
        }
      ],
      "stateMutability": "pure",
      "type": "function"
    },
    {
      "inputs": [],
      "name": "actionsAddress",
      "outputs": [
        {
          "internalType": "address",
          "name": "",
          "type": "address"
        }
      ],
      "stateMutability": "view",
      "type": "function"
    },
    {
      "inputs": [],
      "name": "createMap",
      "outputs": [
        {
          "internalType": "uint256",
          "name": "",
          "type": "uint256"
        }
      ],
      "stateMutability": "nonpayable",
      "type": "function"
    },
    {
      "inputs": [
        {
          "internalType": "uint256",
          "name": "_mapId",
          "type": "uint256"
        },
        {
          "internalType": "uint256",
          "name": "_row",
          "type": "uint256"
        },
        {
          "internalType": "uint256",
          "name": "_col",
          "type": "uint256"
        },
        {
          "internalType": "uint256",
          "name": "_roomId",
          "type": "uint256"
        }
      ],
      "name": "debugForceRoomId",
      "outputs": [],
      "stateMutability": "nonpayable",
      "type": "function"
    },
    {
      "inputs": [
        {
          "internalType": "uint256",
          "name": "_mapId",
          "type": "uint256"
        },
        {
          "internalType": "uint256",
          "name": "_row",
          "type": "uint256"
        },
        {
          "internalType": "uint256",
          "name": "_col",
          "type": "uint256"
        },
        {
          "internalType": "uint256",
          "name": "debugForceId",
          "type": "uint256"
        }
      ],
      "name": "discoverRoom",
      "outputs": [
        {
          "internalType": "uint256",
          "name": "",
          "type": "uint256"
        }
      ],
      "stateMutability": "nonpayable",
      "type": "function"
    },
    {
      "inputs": [
        {
          "internalType": "uint256",
          "name": "_mapId",
          "type": "uint256"
        }
      ],
      "name": "extGetBoard",
      "outputs": [
        {
          "components": [
            {
              "internalType": "uint8",
              "name": "roomId",
              "type": "uint8"
            },
            {
              "internalType": "uint8",
              "name": "parentId",
              "type": "uint8"
            },
            {
              "internalType": "uint256[4]",
              "name": "doors",
              "type": "uint256[4]"
            },
            {
              "internalType": "bool",
              "name": "explored",
              "type": "bool"
            },
            {
              "internalType": "bool",
              "name": "looted",
              "type": "bool"
            },
            {
              "internalType": "bool",
              "name": "hasVent",
              "type": "bool"
            },
            {
              "internalType": "bool",
              "name": "hasHazard",
              "type": "bool"
            }
          ],
          "internalType": "struct BCTypes.GameTile[][]",
          "name": "",
          "type": "tuple[][]"
        }
      ],
      "stateMutability": "view",
      "type": "function"
    },
    {
      "inputs": [
        {
          "internalType": "uint256",
          "name": "_mapId",
          "type": "uint256"
        }
      ],
      "name": "extGetDoors",
      "outputs": [
        {
          "components": [
            {
              "internalType": "uint8",
              "name": "vsBreach",
              "type": "uint8"
            },
            {
              "internalType": "uint8",
              "name": "vsHack",
              "type": "uint8"
            },
            {
              "internalType": "enum BCTypes.DoorStatus",
              "name": "status",
              "type": "uint8"
            }
          ],
          "internalType": "struct BCTypes.Door[]",
          "name": "",
          "type": "tuple[]"
        }
      ],
      "stateMutability": "view",
      "type": "function"
    },
    {
      "inputs": [
        {
          "internalType": "uint256",
          "name": "_mapId",
          "type": "uint256"
        },
        {
          "internalType": "uint256",
          "name": "_row",
          "type": "uint256"
        },
        {
          "internalType": "uint256",
          "name": "_col",
          "type": "uint256"
        }
      ],
      "name": "extGetGameTile",
      "outputs": [
        {
          "components": [
            {
              "internalType": "uint8",
              "name": "roomId",
              "type": "uint8"
            },
            {
              "internalType": "uint8",
              "name": "parentId",
              "type": "uint8"
            },
            {
              "internalType": "uint256[4]",
              "name": "doors",
              "type": "uint256[4]"
            },
            {
              "internalType": "bool",
              "name": "explored",
              "type": "bool"
            },
            {
              "internalType": "bool",
              "name": "looted",
              "type": "bool"
            },
            {
              "internalType": "bool",
              "name": "hasVent",
              "type": "bool"
            },
            {
              "internalType": "bool",
              "name": "hasHazard",
              "type": "bool"
            }
          ],
          "internalType": "struct BCTypes.GameTile",
          "name": "",
          "type": "tuple"
        }
      ],
      "stateMutability": "view",
      "type": "function"
    },
    {
      "inputs": [
        {
          "internalType": "uint256",
          "name": "_mapId",
          "type": "uint256"
        }
      ],
      "name": "extGetMainReactorCoords",
      "outputs": [
        {
          "internalType": "uint256",
          "name": "",
          "type": "uint256"
        },
        {
          "internalType": "uint256",
          "name": "",
          "type": "uint256"
        }
      ],
      "stateMutability": "view",
      "type": "function"
    },
    {
      "inputs": [
        {
          "internalType": "uint256",
          "name": "_mapId",
          "type": "uint256"
        },
        {
          "internalType": "uint256",
          "name": "_row",
          "type": "uint256"
        },
        {
          "internalType": "uint256",
          "name": "_col",
          "type": "uint256"
        }
      ],
      "name": "extGetRoom",
      "outputs": [
        {
          "components": [
            {
              "internalType": "enum BCTypes.BCEventType",
              "name": "eventType",
              "type": "uint8"
            },
            {
              "internalType": "uint256",
              "name": "eventNum",
              "type": "uint256"
            },
            {
              "internalType": "uint8",
              "name": "numItems",
              "type": "uint8"
            },
            {
              "internalType": "uint8",
              "name": "numData",
              "type": "uint8"
            },
            {
              "internalType": "bool",
              "name": "sigDetected",
              "type": "bool"
            }
          ],
          "internalType": "struct BCTypes.RoomTile",
          "name": "",
          "type": "tuple"
        }
      ],
      "stateMutability": "view",
      "type": "function"
    },
    {
      "inputs": [
        {
          "internalType": "uint256",
          "name": "_mapId",
          "type": "uint256"
        },
        {
          "internalType": "uint256",
          "name": "_roomId",
          "type": "uint256"
        }
      ],
      "name": "extGetRoomById",
      "outputs": [
        {
          "components": [
            {
              "internalType": "enum BCTypes.BCEventType",
              "name": "eventType",
              "type": "uint8"
            },
            {
              "internalType": "uint256",
              "name": "eventNum",
              "type": "uint256"
            },
            {
              "internalType": "uint8",
              "name": "numItems",
              "type": "uint8"
            },
            {
              "internalType": "uint8",
              "name": "numData",
              "type": "uint8"
            },
            {
              "internalType": "bool",
              "name": "sigDetected",
              "type": "bool"
            }
          ],
          "internalType": "struct BCTypes.RoomTile",
          "name": "",
          "type": "tuple"
        }
      ],
      "stateMutability": "view",
      "type": "function"
    },
    {
      "inputs": [
        {
          "internalType": "uint256",
          "name": "_mapId",
          "type": "uint256"
        }
      ],
      "name": "extGetRoomList",
      "outputs": [
        {
          "components": [
            {
              "internalType": "enum BCTypes.BCEventType",
              "name": "eventType",
              "type": "uint8"
            },
            {
              "internalType": "uint256",
              "name": "eventNum",
              "type": "uint256"
            },
            {
              "internalType": "uint8",
              "name": "numItems",
              "type": "uint8"
            },
            {
              "internalType": "uint8",
              "name": "numData",
              "type": "uint8"
            },
            {
              "internalType": "bool",
              "name": "sigDetected",
              "type": "bool"
            }
          ],
          "internalType": "struct BCTypes.RoomTile[]",
          "name": "",
          "type": "tuple[]"
        }
      ],
      "stateMutability": "view",
      "type": "function"
    },
    {
      "inputs": [
        {
          "internalType": "uint256",
          "name": "_mapId",
          "type": "uint256"
        },
        {
          "internalType": "uint256",
          "name": "_row",
          "type": "uint256"
        },
        {
          "internalType": "uint256",
          "name": "_col",
          "type": "uint256"
        },
        {
          "internalType": "bool",
          "name": "_hasHazard",
          "type": "bool"
        }
      ],
      "name": "extSetHazardStatus",
      "outputs": [],
      "stateMutability": "nonpayable",
      "type": "function"
    },
    {
      "inputs": [
        {
          "internalType": "uint256",
          "name": "_mapId",
          "type": "uint256"
        },
        {
          "internalType": "uint256",
          "name": "_distance",
          "type": "uint256"
        }
      ],
      "name": "extSpreadHazards",
      "outputs": [],
      "stateMutability": "nonpayable",
      "type": "function"
    },
    {
      "inputs": [],
      "name": "game",
      "outputs": [
        {
          "internalType": "address",
          "name": "",
          "type": "address"
        }
      ],
      "stateMutability": "view",
      "type": "function"
    },
    {
      "inputs": [
        {
          "components": [
            {
              "internalType": "uint8",
              "name": "row",
              "type": "uint8"
            },
            {
              "internalType": "uint8",
              "name": "col",
              "type": "uint8"
            }
          ],
          "internalType": "struct BCTypes.Position",
          "name": "_firstRoom",
          "type": "tuple"
        },
        {
          "components": [
            {
              "internalType": "uint8",
              "name": "row",
              "type": "uint8"
            },
            {
              "internalType": "uint8",
              "name": "col",
              "type": "uint8"
            }
          ],
          "internalType": "struct BCTypes.Position",
          "name": "_secondRoom",
          "type": "tuple"
        }
      ],
      "name": "getDirectionBetween",
      "outputs": [
        {
          "internalType": "uint256",
          "name": "",
          "type": "uint256"
        }
      ],
      "stateMutability": "pure",
      "type": "function"
    },
    {
      "inputs": [
        {
          "internalType": "uint256",
          "name": "_mapId",
          "type": "uint256"
        },
        {
          "internalType": "uint256",
          "name": "_row",
          "type": "uint256"
        },
        {
          "internalType": "uint256",
          "name": "_col",
          "type": "uint256"
        },
        {
          "internalType": "uint256",
          "name": "_direction",
          "type": "uint256"
        }
      ],
      "name": "getDoor",
      "outputs": [
        {
          "components": [
            {
              "internalType": "uint8",
              "name": "vsBreach",
              "type": "uint8"
            },
            {
              "internalType": "uint8",
              "name": "vsHack",
              "type": "uint8"
            },
            {
              "internalType": "enum BCTypes.DoorStatus",
              "name": "status",
              "type": "uint8"
            }
          ],
          "internalType": "struct BCTypes.Door",
          "name": "",
          "type": "tuple"
        }
      ],
      "stateMutability": "view",
      "type": "function"
    },
    {
      "inputs": [
        {
          "internalType": "uint256",
          "name": "_direction",
          "type": "uint256"
        },
        {
          "components": [
            {
              "internalType": "uint8",
              "name": "row",
              "type": "uint8"
            },
            {
              "internalType": "uint8",
              "name": "col",
              "type": "uint8"
            }
          ],
          "internalType": "struct BCTypes.Position",
          "name": "_start",
          "type": "tuple"
        }
      ],
      "name": "getNeighborRoom",
      "outputs": [
        {
          "components": [
            {
              "internalType": "uint8",
              "name": "row",
              "type": "uint8"
            },
            {
              "internalType": "uint8",
              "name": "col",
              "type": "uint8"
            }
          ],
          "internalType": "struct BCTypes.Position",
          "name": "",
          "type": "tuple"
        }
      ],
      "stateMutability": "pure",
      "type": "function"
    },
    {
      "inputs": [
        {
          "internalType": "uint256",
          "name": "_traitNum",
          "type": "uint256"
        },
        {
          "internalType": "uint256",
          "name": "_subTraitNum",
          "type": "uint256"
        }
      ],
      "name": "getUIOffset",
      "outputs": [
        {
          "internalType": "uint256",
          "name": "",
          "type": "uint256"
        }
      ],
      "stateMutability": "pure",
      "type": "function"
    },
    {
      "inputs": [
        {
          "internalType": "uint256",
          "name": "",
          "type": "uint256"
        }
      ],
      "name": "maps",
      "outputs": [
        {
          "internalType": "uint8",
          "name": "numDoors",
          "type": "uint8"
        },
        {
          "components": [
            {
              "internalType": "uint8",
              "name": "row",
              "type": "uint8"
            },
            {
              "internalType": "uint8",
              "name": "col",
              "type": "uint8"
            }
          ],
          "internalType": "struct BCTypes.Position",
          "name": "startPosition",
          "type": "tuple"
        },
        {
          "internalType": "uint256",
          "name": "mainReactorRow",
          "type": "uint256"
        },
        {
          "internalType": "uint256",
          "name": "mainReactorCol",
          "type": "uint256"
        }
      ],
      "stateMutability": "view",
      "type": "function"
    },
    {
      "inputs": [
        {
          "internalType": "uint256",
          "name": "_min",
          "type": "uint256"
        },
        {
          "internalType": "uint256",
          "name": "_max",
          "type": "uint256"
        },
        {
          "internalType": "uint256",
          "name": "_val",
          "type": "uint256"
        },
        {
          "internalType": "uint256",
          "name": "_valMax",
          "type": "uint256"
        }
      ],
      "name": "normalizeToSmallRange",
      "outputs": [
        {
          "internalType": "uint8",
          "name": "",
          "type": "uint8"
        }
      ],
      "stateMutability": "pure",
      "type": "function"
    },
    {
      "inputs": [],
      "name": "numRooms",
      "outputs": [
        {
          "internalType": "uint256",
          "name": "",
          "type": "uint256"
        }
      ],
      "stateMutability": "view",
      "type": "function"
    },
    {
      "inputs": [
        {
          "internalType": "uint256",
          "name": "_direction",
          "type": "uint256"
        }
      ],
      "name": "opposite",
      "outputs": [
        {
          "internalType": "uint256",
          "name": "",
          "type": "uint256"
        }
      ],
      "stateMutability": "pure",
      "type": "function"
    },
    {
      "inputs": [],
      "name": "owner",
      "outputs": [
        {
          "internalType": "address",
          "name": "",
          "type": "address"
        }
      ],
      "stateMutability": "view",
      "type": "function"
    },
    {
      "inputs": [],
      "name": "playersAddress",
      "outputs": [
        {
          "internalType": "address",
          "name": "",
          "type": "address"
        }
      ],
      "stateMutability": "view",
      "type": "function"
    },
    {
      "inputs": [],
      "name": "randKeccak",
      "outputs": [
        {
          "internalType": "bytes32",
          "name": "",
          "type": "bytes32"
        }
      ],
      "stateMutability": "nonpayable",
      "type": "function"
    },
    {
      "inputs": [],
      "name": "renounceOwnership",
      "outputs": [],
      "stateMutability": "nonpayable",
      "type": "function"
    },
    {
      "inputs": [
        {
          "internalType": "uint256",
          "name": "_mapId",
          "type": "uint256"
        }
      ],
      "name": "resetOpenDoors",
      "outputs": [],
      "stateMutability": "nonpayable",
      "type": "function"
    },
    {
      "inputs": [
        {
          "internalType": "uint256",
          "name": "_gameId",
          "type": "uint256"
        },
        {
          "internalType": "uint256",
          "name": "_for",
          "type": "uint256"
        },
        {
          "internalType": "uint256",
          "name": "_against",
          "type": "uint256"
        }
      ],
      "name": "resolveChallenge",
      "outputs": [
        {
          "internalType": "bool",
          "name": "",
          "type": "bool"
        }
      ],
      "stateMutability": "nonpayable",
      "type": "function"
    },
    {
      "inputs": [
        {
          "internalType": "uint256",
          "name": "_gameId",
          "type": "uint256"
        }
      ],
      "name": "roll",
      "outputs": [
        {
          "internalType": "uint256",
          "name": "",
          "type": "uint256"
        }
      ],
      "stateMutability": "nonpayable",
      "type": "function"
    },
    {
      "inputs": [
        {
          "internalType": "uint256",
          "name": "",
          "type": "uint256"
        }
      ],
      "name": "roomList",
      "outputs": [
        {
          "internalType": "enum BCTypes.BCEventType",
          "name": "eventType",
          "type": "uint8"
        },
        {
          "internalType": "uint256",
          "name": "eventNum",
          "type": "uint256"
        },
        {
          "internalType": "uint8",
          "name": "numItems",
          "type": "uint8"
        },
        {
          "internalType": "uint8",
          "name": "numData",
          "type": "uint8"
        },
        {
          "internalType": "bool",
          "name": "sigDetected",
          "type": "bool"
        }
      ],
      "stateMutability": "view",
      "type": "function"
    },
    {
      "inputs": [],
      "name": "roomTiles",
      "outputs": [
        {
          "internalType": "contract RoomTileInterface",
          "name": "",
          "type": "address"
        }
      ],
      "stateMutability": "view",
      "type": "function"
    },
    {
      "inputs": [
        {
          "internalType": "address",
          "name": "_gameAddress",
          "type": "address"
        },
        {
          "internalType": "address",
          "name": "_utilsAddress",
          "type": "address"
        },
        {
          "internalType": "address",
          "name": "_roomTilesAddress",
          "type": "address"
        },
        {
          "internalType": "address",
          "name": "_actionsAddress",
          "type": "address"
        },
        {
          "internalType": "address",
          "name": "_playersAddress",
          "type": "address"
        }
      ],
      "name": "setContractAddresses",
      "outputs": [],
      "stateMutability": "nonpayable",
      "type": "function"
    },
    {
      "inputs": [
        {
          "internalType": "uint256",
          "name": "_mapId",
          "type": "uint256"
        },
        {
          "internalType": "uint256",
          "name": "_row",
          "type": "uint256"
        },
        {
          "internalType": "uint256",
          "name": "_col",
          "type": "uint256"
        },
        {
          "internalType": "uint256",
          "name": "_direction",
          "type": "uint256"
        },
        {
          "internalType": "enum BCTypes.DoorStatus",
          "name": "_status",
          "type": "uint8"
        },
        {
          "internalType": "uint256",
          "name": "_strength",
          "type": "uint256"
        }
      ],
      "name": "setDoorFromPos",
      "outputs": [],
      "stateMutability": "nonpayable",
      "type": "function"
    },
    {
      "inputs": [
        {
          "internalType": "uint256",
          "name": "_mapId",
          "type": "uint256"
        },
        {
          "internalType": "uint256",
          "name": "_row",
          "type": "uint256"
        },
        {
          "internalType": "uint256",
          "name": "_col",
          "type": "uint256"
        }
      ],
      "name": "setLooted",
      "outputs": [],
      "stateMutability": "nonpayable",
      "type": "function"
    },
    {
      "inputs": [
        {
          "internalType": "bytes32",
          "name": "_hash",
          "type": "bytes32"
        },
        {
          "internalType": "uint256",
          "name": "_size",
          "type": "uint256"
        },
        {
          "internalType": "uint256",
          "name": "_offset",
          "type": "uint256"
        }
      ],
      "name": "sliceHashToSmallInt",
      "outputs": [
        {
          "internalType": "uint8",
          "name": "",
          "type": "uint8"
        }
      ],
      "stateMutability": "pure",
      "type": "function"
    },
    {
      "inputs": [
        {
          "internalType": "uint8",
          "name": "_min",
          "type": "uint8"
        },
        {
          "internalType": "uint8",
          "name": "_max",
          "type": "uint8"
        }
      ],
      "name": "smallIntBetweenVals",
      "outputs": [
        {
          "internalType": "uint8",
          "name": "",
          "type": "uint8"
        }
      ],
      "stateMutability": "nonpayable",
      "type": "function"
    },
    {
      "inputs": [
        {
          "internalType": "address",
          "name": "newOwner",
          "type": "address"
        }
      ],
      "name": "transferOwnership",
      "outputs": [],
      "stateMutability": "nonpayable",
      "type": "function"
    }
  ],
  "transactionHash": "0xaa6dfd489b39533c4ca6c7ff2d6329c1532c62642df359b48bf7fe2ccd567e80",
  "args": [],
  "numDeployments": 3,
  "solcInputHash": "7ac0abbebf11abf1379f7ffb2ec3a099",
  "bytecode": "0x608060405260006001553480156200001657600080fd5b50620000223362000028565b62000078565b600080546001600160a01b038381166001600160a01b0319831681178455604051919092169283917f8be0079c531659141344cd1fd0a4f28419497f9722a3daafe3b4186f6b6457e09190a35050565b613ad280620000886000396000f3fe608060405234801561001057600080fd5b50600436106102325760003560e01c806381bad36d11610130578063c3fe3e28116100b8578063f2fde38b1161007c578063f2fde38b14610588578063f7157f641461059b578063f9dfbfcb146105ae578063fa3993c2146105ce578063fe368d7a146105e157600080fd5b8063c3fe3e2814610534578063c6b41b4514610547578063ce28613f1461055a578063e847ae1e1461056d578063f01fc35a1461058057600080fd5b80638da5cb5b116100ff5780638da5cb5b14610485578063951fc3fe1461049657806397f34c3f146104b6578063a63a9aab146104c9578063b14ca5751461052157600080fd5b806381bad36d1461042c5780638214f2221461043f57806386e529d0146104525780638af13fd21461046557600080fd5b806358308aa8116101be57806369568fd51161018257806369568fd5146103ae5780636ea1dcd8146103ce578063715018a6146103ee57806375990a0e146103f65780637b45c0d41461041957600080fd5b806358308aa814610328578063592152231461033d5780635dc96967146103505780635f8951e61461037357806364db84bf1461039b57600080fd5b80631e1de205116102055780631e1de205146102b55780631ef04416146102bd5780631f7b4f30146102dd57806353011696146102f0578063580582831461031557600080fd5b806302861c6c1461023757806303b414e4146102605780631b5ac4b51461028b5780631cdec3ad146102ac575b600080fd5b61024a6102453660046130a0565b6105f4565b6040516102579190613135565b60405180910390f35b600554610273906001600160a01b031681565b6040516001600160a01b039091168152602001610257565b61029e610299366004613143565b6106c3565b604051908152602001610257565b61029e60075481565b61029e6106e3565b6102d06102cb366004613143565b61075b565b60405161025791906131d3565b61029e6102eb366004613143565b61094f565b6103036102fe366004613268565b6109ab565b60405160ff9091168152602001610257565b61024a61032336600461329a565b6109ea565b61033b610336366004613143565b610a73565b005b61033b61034b3660046132bc565b610b80565b61036361035e3660046130a0565b610d27565b6040519015158152602001610257565b610386610381366004613143565b610dc2565b60408051928352602083019190915201610257565b61029e6103a936600461329a565b610e18565b6103c16103bc366004613143565b610e30565b6040516102579190613349565b6103e16103dc366004613268565b610f90565b6040516102579190613397565b61033b6110ce565b610409610404366004613143565b6110e2565b60405161025794939291906133a5565b600454610273906001600160a01b031681565b61029e61043a366004613268565b611143565b61029e61044d366004613143565b611233565b61033b6104603660046130a0565b6112ad565b610478610473366004613143565b611357565b60405161025791906133de565b6000546001600160a01b0316610273565b6104a96104a43660046134b6565b61146a565b60405161025791906134e3565b6103036104c43660046130a0565b611594565b6105106104d7366004613143565b60066020526000908152604090208054600182015460029092015460ff9182169291818116916101008104821691620100009091041685565b604051610257959493929190613501565b61033b61052f366004613268565b6115bf565b600254610273906001600160a01b031681565b61033b61055536600461329a565b61161b565b610303610568366004613539565b611978565b61033b61057b36600461358e565b611a28565b61029e611a8c565b61033b6105963660046135f3565b611cc5565b600354610273906001600160a01b031681565b6105c16105bc3660046130a0565b611d3e565b604051610257919061360e565b61029e6105dc36600461361d565b611e22565b61033b6105ef366004613657565b611eea565b6105fc612f4b565b600660006008868154811061061357610613613698565b600091825260208083208884526001600790930201919091018152604080832087845282528083205460ff9081168552918401949094529183019020825160a08101909352805490918391166005811115610670576106706130cc565b6005811115610681576106816130cc565b81526001820154602082015260029091015460ff80821660408401526101008204811660608401526201000090910416151560809091015290505b9392505050565b6000808212156106db576106d6826136c4565b6106dd565b815b92915050565b60018054600091826106f4836136e0565b919050555060015460014361070991906136f9565b403360405160200161074093929190928352602083019190915260601b6bffffffffffffffffffffffff1916604082015260540190565b60405160208183030381529060405280519060200120905090565b60408051600b808252610180820190925260609160009190816020015b606081526020019060019003908161077857905050905060005b600b8110156107fd5760408051600b808252610180820190925290816020015b6107ba612f7c565b8152602001906001900390816107b2579050508282815181106107df576107df613698565b602002602001018190525080806107f5906136e0565b915050610792565b5060005b600b8110156109485760005b600b811015610935576008858154811061082957610829613698565b600091825260208083208584526001600790930201820181526040808420858552825292839020835160e081018552815460ff808216835261010090910416928101929092528351608081018552919390929084019190830160048282826020028201915b81548152602001906001019080831161088e5750505091835250506005919091015460ff808216151560208401526101008204811615156040840152620100008204811615156060840152630100000090910416151560809091015283518490849081106108fe576108fe613698565b6020026020010151828151811061091757610917613698565b6020026020010181905250808061092d906136e0565b91505061080d565b5080610940816136e0565b915050610801565b5092915050565b60008061095e60016006611978565b60ff1690507ffe34d093a460a16ee5fb374540914d1c734a17502c0c1a87b387c8d6097e1c51838260405161099d929190918252602082015260400190565b60405180910390a192915050565b6000806109b886866136f9565b90506000836109c7868461370c565b6109d19190613739565b90506109dd878261374d565b925050505b949350505050565b6109f2612f4b565b60008281526006602052604090819020815160a081019092528054829060ff166005811115610a2357610a236130cc565b6005811115610a3457610a346130cc565b81526001820154602082015260029091015460ff8082166040840152610100820481166060840152620100009091041615156080909101529392505050565b6002546001600160a01b03163314610a8a57600080fd5b60005b60088281548110610aa057610aa0613698565b600091825260209091206003600790920201015460ff16811015610b7c57600260088381548110610ad357610ad3613698565b600091825260208083208584526007929092029091016002019052604090205462010000900460ff166004811115610b0d57610b0d6130cc565b03610b6a57600160088381548110610b2757610b27613698565b60009182526020808320858452600260079093020191909101905260409020805462ff0000191662010000836004811115610b6457610b646130cc565b02179055505b80610b74816136e0565b915050610a8d565b5050565b6002546001600160a01b0316331480610ba357506004546001600160a01b031633145b80610bb857506005546001600160a01b031633145b610c135760405162461bcd60e51b815260206004820152602160248201527f4e6f742067616d652f616374696f6e732f706c617965727320636f6e747261636044820152601d60fa1b60648201526084015b60405180910390fd5b600060088781548110610c2857610c28613698565b600091825260208083208984526001600790930201820181526040808420898552909152918290208251608081019093520160048282826020028201915b815481526020019060010190808311610c665750505050509050600060088881548110610c9557610c95613698565b90600052602060002090600702016002016000838760048110610cba57610cba613698565b602002015181526020019081526020016000209050838160000160026101000a81548160ff02191690836004811115610cf557610cf56130cc565b02179055508215610d1d57805461ffff191661010060ff851690810260ff1916919091171781555b5050505050505050565b600080610d338561094f565b6040805187815260208101839052908101869052606081018590529091507f75b6a8325595f91135e07382840634226793c68c9e59623da7e10d7ad3d95b959060800160405180910390a180600103610d905760009150506106bc565b600383610d9d868461374d565b610da79190613760565b1315610db75760019150506106bc565b506000949350505050565b60008060088381548110610dd857610dd8613698565b90600052602060002090600702016005015460088481548110610dfd57610dfd613698565b90600052602060002090600702016006015491509150915091565b600081610e2684600461370c565b6106bc919061374d565b6060600060088381548110610e4757610e47613698565b600091825260209091206003600790920201015460ff1667ffffffffffffffff811115610e7657610e76613420565b604051908082528060200260200182016040528015610ec857816020015b610eb560408051606081018252600080825260208201819052909182015290565b815260200190600190039081610e945790505b50905060005b81518110156109485760088481548110610eea57610eea613698565b6000918252602080832084845260026007909302019190910181526040918290208251606081018452815460ff80821683526101008204811694830194909452909391929184019162010000909104166004811115610f4b57610f4b6130cc565b6004811115610f5c57610f5c6130cc565b81525050828281518110610f7257610f72613698565b60200260200101819052508080610f88906136e0565b915050610ece565b610fb160408051606081018252600080825260208201819052909182015290565b600060088681548110610fc657610fc6613698565b600091825260208083208884526001600790930201820181526040808420888552909152918290208251608081019093520160048282826020028201915b81548152602001906001019080831161100457505050505090506008868154811061103157611031613698565b9060005260206000209060070201600201600082856004811061105657611056613698565b6020908102919091015182528181019290925260409081016000208151606081018352815460ff8082168352610100820481169583019590955290939192840191620100009091041660048111156110b0576110b06130cc565b60048111156110c1576110c16130cc565b9052509695505050505050565b6110d6611f99565b6110e06000611ff3565b565b600881815481106110f257600080fd5b600091825260209182902060036007909202019081015460408051808201909152600483015460ff818116835261010090910481169482019490945260058301546006909301549390911693509184565b6002546000906001600160a01b0316331461115d57600080fd5b60006008868154811061117257611172613698565b60009182526020808320888452600160079093020191909101815260408083208784529091529020905082156111b657805460ff191660ff841617905550806109e2565b805460ff16606319016111d857805460ff1916601290811790915590506109e2565b805460ff16600019016112275761120e600887815481106111fb576111fb613698565b9060005260206000209060070201612043565b815460ff191660ff9190911690811790915590506109e2565b50600095945050505050565b60008160000361124557506001919050565b8160010361125557506000919050565b8160020361126557506003919050565b8160030361127557506002919050565b60405162461bcd60e51b815260206004820152600d60248201526c2130b2103234b932b1ba34b7b760991b6044820152606401610c0a565b6004546001600160a01b031633146112fe5760405162461bcd60e51b8152602060048201526014602482015273139bdd081858dd1a5bdb9cc818dbdb9d1c9858dd60621b6044820152606401610c0a565b60016008848154811061131357611313613698565b6000918252602080832095835260016007909202909501018452604080822093825292909352912060050180549115156101000261ff001990921691909117905550565b6060600060075467ffffffffffffffff81111561137657611376613420565b6040519080825280602002602001820160405280156113af57816020015b61139c612f4b565b8152602001906001900390816113945790505b50905060005b81518110156109485760008181526006602052604090819020815160a081019092528054829060ff1660058111156113ef576113ef6130cc565b6005811115611400576114006130cc565b81526001820154602082015260029091015460ff808216604084015261010082048116606084015262010000909104161515608090910152825183908390811061144c5761144c613698565b60200260200101819052508080611462906136e0565b9150506113b5565b6040805180820190915260008082526020820152826000036114bc576040518060400160405280600184600001516114a29190613780565b60ff168152602001836020015160ff1681525090506106dd565b826001036114e0576040518060400160405280836000015160016114a29190613799565b8260020361151d576040518060400160405280836000015160ff168152602001836020015160016115119190613799565b60ff16905290506106dd565b8260030361154e576040518060400160405280836000015160ff168152602001600184602001516115119190613780565b600061155984612175565b60405160200161156991906137d6565b60405160208183030381529060405290508060405162461bcd60e51b8152600401610c0a9190613811565b6000808260016115a5866002613928565b6115af91906136f9565b901b8516831c9150509392505050565b6115c7611f99565b80600885815481106115db576115db613698565b60009182526020808320968352600791909102909501600101855260408082209482529390945291909220805460ff191660ff9092169190911790555050565b6002546001600160a01b0316331461163257600080fd5b61163a612f9b565b60005b828110156119725760005b600b8110156116fd5760005b600b8110156116ea576008868154811061167057611670613698565b60009182526020808320858452600792909202909101600101815260408083208484529091529020600501546301000000900460ff168483600b81106116b8576116b8613698565b602002015182600b81106116ce576116ce613698565b91151560209092020152806116e2816136e0565b915050611654565b50806116f5816136e0565b915050611648565b5060005b600b81101561195f5760005b600b81101561194c578382600b811061172857611728613698565b602002015181600b811061173e5761173e613698565b60200201511561193a5760005b60048110156119385760006008888154811061176957611769613698565b6000918252602080832087845260016007909302018201815260408084208785529091529091200182600481106117a2576117a2613698565b015490506000600889815481106117bb576117bb613698565b600091825260208083208584526007929092029091016002019052604090205462010000900460ff16905060038160048111156117fa576117fa6130cc565b03611923578415801561180b575082155b15611817575050611926565b6118236001600b6136f9565b851480156118315750826001145b1561183d575050611926565b8315801561184b5750826003145b15611857575050611926565b6118636001600b6136f9565b841480156118715750826002145b1561187d575050611926565b60006118a38460405180604001604052808960ff1681526020018860ff1681525061146a565b9050600060088b815481106118ba576118ba613698565b60009182526020808320855160ff908116855260079390930201600101815260408084208683015184168552909152909120805490925016158015906119055750805460ff16600214155b156119205760058101805463ff000000191663010000001790555b50505b50505b80611930816136e0565b91505061174b565b505b80611944816136e0565b91505061170d565b5080611957816136e0565b915050611701565b508061196a816136e0565b91505061163d565b50505050565b6001805460009182611989836136e0565b91905055506000336001546001436119a191906136f9565b60405160609390931b6bffffffffffffffffffffffff19166020840152603483019190915240605482015260740160408051601f198184030181529190528051602090910120905060006119f58585613780565b611a00906001613799565b90508460ff168160ff1683611a159190613934565b611a1f919061374d565b95945050505050565b611a30611f99565b600280546001600160a01b038088166001600160a01b03199283161790925560038054868416908316179055600480548584169083161790556005805492841692909116919091179055611a82612276565b6007555050505050565b6002546000906001600160a01b03163314611aa657600080fd5b600880546001810182556000829052604080516103408101825260038152600460208201526005918101919091526006606082015260076080820181905260a0820193909352600960c0820152600a60e0820152600b610100820152600c610120820152600d610140820152600e610160820152600f61018082015260106101a082015260116101c082015260136101e08201526014610200820152601561022082015260166102408201526017610260820152601861028082015260196102a0820152601a6102c08201819052601b6102e0830152601c610300830152601d610320830152929091027ff3f7a9fe364faab93b216da50a3214154f22a0a2b415b23a84c8169e8b636ee30191611bc09083908390612fc9565b506040805160608101825260ff808252602082015290810160009052600383015460ff9081166000908152600285016020908152604091829020845181549286015185166101000261ffff19909316941693909317178083559083015190829062ff0000191662010000836004811115611c3c57611c3c6130cc565b0217905550505060038201805460ff16906000611c5883613948565b82546101009290920a60ff8181021990931691909216919091021790555060408051808201909152600a8152600660209091015260048201805461ffff191661060a179055611ca682612403565b611caf82612cca565b600854611cbe906001906136f9565b9250505090565b611ccd611f99565b6001600160a01b038116611d325760405162461bcd60e51b815260206004820152602660248201527f4f776e61626c653a206e6577206f776e657220697320746865207a65726f206160448201526564647265737360d01b6064820152608401610c0a565b611d3b81611ff3565b50565b611d46612f7c565b60088481548110611d5957611d59613698565b600091825260208083208684526001600790930201820181526040808420868552825292839020835160e081018552815460ff808216835261010090910416928101929092528351608081018552919390929084019190830160048282826020028201915b815481526020019060010190808311611dbe5750505091835250506005919091015460ff8082161515602084015261010082048116151560408401526201000082048116151560608401526301000000909104161515608090910152949350505050565b80518251600091611e3291613967565b60000b600103611e44575060006106dd565b81518351611e529190613967565b60000b19611e62575060016106dd565b81602001518360200151611e769190613967565b60000b19611e86575060026106dd565b81602001518360200151611e9a9190613967565b60000b600103611eac575060036106dd565b60405162461bcd60e51b8152602060048201526013602482015272115c9c9bdc8e88139bdd0818591a9858d95b9d606a1b6044820152606401610c0a565b6005546001600160a01b03163314611f3a5760405162461bcd60e51b8152602060048201526013602482015272139bdd081c1b185e595c8818dbdb9d1c9858dd606a1b6044820152606401610c0a565b8060088581548110611f4e57611f4e613698565b600091825260208083209683526001600790920290960101855260408082209482529390945291909220600501805491151563010000000263ff000000199092169190911790555050565b6000546001600160a01b031633146110e05760405162461bcd60e51b815260206004820181905260248201527f4f776e61626c653a2063616c6c6572206973206e6f7420746865206f776e65726044820152606401610c0a565b600080546001600160a01b038381166001600160a01b0319831681178455604051919092169283917f8be0079c531659141344cd1fd0a4f28419497f9722a3daafe3b4186f6b6457e09190a35050565b80546000908190612056906001906136f9565b90505b801561211257600061206c600083611978565b9050836000018160ff168154811061208657612086613698565b90600052602060002001548460000183815481106120a6576120a6613698565b90600052602060002001548560000184815481106120c6576120c6613698565b906000526020600020016000876000018560ff16815481106120ea576120ea613698565b600091825260209091200192909255919091555081905061210a81613988565b915050612059565b5081546000908390612126906001906136f9565b8154811061213657612136613698565b90600052602060002001549050826000018054806121565761215661399f565b6001900381819060005260206000200160009055905580915050919050565b60608160000361219c5750506040805180820190915260018152600360fc1b602082015290565b8160005b81156121c657806121b0816136e0565b91506121bf9050600a83613739565b91506121a0565b60008167ffffffffffffffff8111156121e1576121e1613420565b6040519080825280601f01601f19166020018201604052801561220b576020820181803683370190505b5090505b84156109e2576122206001836136f9565b915061222d600a86613934565b61223890603061374d565b60f81b81838151811061224d5761224d613698565b60200101906001600160f81b031916908160001a90535061226f600a86613739565b945061220f565b600080600360009054906101000a90046001600160a01b03166001600160a01b03166338fdf0bd6040518163ffffffff1660e01b8152600401602060405180830381865afa1580156122cc573d6000803e3d6000fd5b505050506040513d601f19601f820116820180604052508101906122f091906139b5565b905060005b818110156123fd5760035460405163413a9f5f60e11b8152600481018390526001600160a01b03909116906382753ebe9060240160a060405180830381865afa158015612346573d6000803e3d6000fd5b505050506040513d601f19601f8201168201806040525081019061236a91906139ce565b600082815260066020526040902081518154829060ff19166001836005811115612396576123966130cc565b02179055506020820151600182015560408201516002909101805460608401516080909401511515620100000262ff00001960ff9586166101000261ffff1990931695909416949094171791909116919091179055806123f5816136e0565b9150506122f5565b50919050565b600080600260075461241591906136f9565b905060016000612423612f9b565b6004860154600190829060ff16600b811061244057612440613698565b60200201516004880154610100900460ff16600b811061246257612462613698565b91151560209092020152612474613014565b60408051808201909152600488015460ff80821683526101009091041660208201528187601e81106124a8576124a8613698565b6020020152856124b7816136e0565b9650505b6000851180156124cb5750600086115b15612c3e576000816124de6001896136f9565b601e81106124ee576124ee613698565b60200201519050866124ff81613988565b9750508187601e811061251457612514613698565b6020020161253b6040518060400160405280600060ff168152602001600060ff1681525090565b90528561254781613988565b965050848061255590613988565b825160ff908116600090815260018c810160209081526040808420828901519095168452939052918120805460ff19169092179091559096506021915061259d906063611978565b60ff1610156125e057805160ff908116600090815260018a016020908152604080832082860151909416835292905220600501805462ff00001916620100001790555b600060405180608001604052806000815260200160018152602001600281526020016003815250905060006001600461261991906136f9565b90505b80156126a957600061262f600083611978565b9050828160ff166004811061264657612646613698565b602002015183836004811061265d5761265d613698565b602002015184846004811061267457612674613698565b60200201858460ff166004811061268d5761268d613698565b60200201919091525250806126a181613988565b91505061261c565b5060005b6004811015612c365782516020840151600091820b910b8383600481106126d6576126d6613698565b60200201516000036126f457816126ec81613a6f565b925050612778565b83836004811061270657612706613698565b602002015160010361271c57816126ec81613a84565b83836004811061272e5761272e613698565b602002015160020361274c578061274481613a84565b915050612778565b83836004811061275e5761275e613698565b6020020151600303612778578061277481613a6f565b9150505b60018212806127875750600181125b8061279c57506127996002600b6136f9565b82135b806127b157506127ae6002600b6136f9565b81135b156127bd575050612c24565b6040805180820190915260ff80841680835290831660208301528890600b81106127e9576127e9613698565b6020020151816020015160ff16600b811061280657612806613698565b6020020151158061286757508c6001016000876000015160ff1681526020019081526020016000206000876020015160ff1681526020019081526020016000206001016128538783611e22565b6004811061286357612863613698565b0154155b15612c2057891580612890575061287f8960426136f9565b61288b60006063611978565b60ff16105b15612c1b5760405180606001604052806128ac60006004611978565b60ff1681526020016128c060006004611978565b60ff16815260200160018152508d60020160008f60030160009054906101000a900460ff1660ff16815260200190815260200160002060008201518160000160006101000a81548160ff021916908360ff16021790555060208201518160000160016101000a81548160ff021916908360ff16021790555060408201518160000160026101000a81548160ff02191690836004811115612962576129626130cc565b0217905550505060038d015460ff908116600090815260028f01602052604081205490911690036129b55760038d015460ff16600090815260028e0160205260409020805462ff00001916620300001790555b60038d01805460ff169060006129ca83613948565b91906101000a81548160ff021916908360ff160217905550506016896129f0919061374d565b98506042891115612a0057604298505b8051889060ff16600b8110612a1757612a17613698565b6020020151816020015160ff16600b8110612a3457612a34613698565b60200201511515600003612ab85780878d601e8110612a5557612a55613698565b60200201528b612a64816136e0565b9c50508980612a72906136e0565b9a5050600188826000015160ff16600b8110612a9057612a90613698565b6020020151826020015160ff16600b8110612aad57612aad613698565b911515602090920201525b8c6001016000876000015160ff1681526020019081526020016000206000876020015160ff168152602001908152602001600020600101858560048110612b0157612b01613698565b602002015160048110612b1657612b16613698565b0154600003612c165760038d0154612b339060019060ff16613780565b60ff168d6001016000886000015160ff1681526020019081526020016000206000886020015160ff168152602001908152602001600020600101868660048110612b7f57612b7f613698565b602002015160048110612b9457612b94613698565b015560038d0154612baa9060019060ff16613780565b60ff168d6001016000836000015160ff1681526020019081526020016000206000836020015160ff168152602001908152602001600020600101612c03878760048110612bf957612bf9613698565b6020020151611233565b60048110612c1357612c13613698565b01555b612c20565b600098505b5050505b80612c2e816136e0565b9150506126ad565b5050506124bb565b60048701805460ff80821660009081526001808c016020818152604080852061010097889004871686528252808520805460ff1916600290811790915597548087168652928252808520969092049094168352938352838220600501805462ff000019908116909155908252938b01909152208054600392166201000083021790555050505050505050565b6000805b600b811015612f465760005b600b811015612f33576000828152600185016020908152604080832084845290915290205460ff1660001901612f215782612d14816136e0565b93505082600503612d5457600082815260018501602090815260408083208484529091529020805460ff1916606417905560058401829055600684018190555b60005b6004811015612f1f576000838152600180870160209081526040808420868552909152909120018160048110612d8f57612d8f613698565b0154600003612f0d576000612dbe8260405180604001604052808760ff1681526020018660ff1681525061146a565b805160ff908116600090815260018901602090815260408083208286015185168452909152812054929350911690604290612dfa906063611978565b60ff16108015612e08575080155b15612f0a576040805160608101825260ff808252602082015290810160049052600388015460ff908116600090815260028a016020908152604091829020845181549286015185166101000261ffff19909316941693909317178083559083015190829062ff0000191662010000836004811115612e8857612e886130cc565b0217905550505060038701805460ff16906000612ea483613948565b82546101009290920a60ff8181021990931691831602179091556003890154612ed1925060019116613780565b60008681526001808a016020908152604080842089855290915290912060ff9290921691018460048110612f0757612f07613698565b01555b50505b80612f17816136e0565b915050612d57565b505b80612f2b816136e0565b915050612cda565b5080612f3e816136e0565b915050612cce565b505050565b6040805160a081019091528060005b8152600060208201819052604082018190526060820181905260809091015290565b6040805160e08101825260008082526020820152908101612f5a61304e565b604051806101600160405280600b905b612fb361306c565b815260200190600190039081612fab5790505090565b828054828255906000526020600020908101928215613004579160200282015b82811115613004578251825591602001919060010190612fe9565b5061301092915061308b565b5090565b604051806103c00160405280601e905b60408051808201909152600080825260208201528152602001906001900390816130245790505090565b60405180608001604052806004906020820280368337509192915050565b604051806101600160405280600b906020820280368337509192915050565b5b80821115613010576000815560010161308c565b6000806000606084860312156130b557600080fd5b505081359360208301359350604090920135919050565b634e487b7160e01b600052602160045260246000fd5b600681106130f2576130f26130cc565b9052565b6131018282516130e2565b6020810151602083015260ff604082015116604083015260ff60608201511660608301526080810151151560808301525050565b60a081016106dd82846130f6565b60006020828403121561315557600080fd5b5035919050565b60ff8151168252602060ff81830151168184015260408201516040840160005b60048110156131995782518252918301919083019060010161317c565b505050506060810151151560c0838101919091526080820151151560e084015260a082015115156101008401520151151561012090910152565b6000602080830181845280855180835260408601915060408160051b87010192508387016000805b8381101561325a57888603603f19018552825180518088529088019088880190845b818110156132445761323083855161315c565b928a0192610140929092019160010161321d565b50909750505093860193918601916001016131fb565b509398975050505050505050565b6000806000806080858703121561327e57600080fd5b5050823594602084013594506040840135936060013592509050565b600080604083850312156132ad57600080fd5b50508035926020909101359150565b60008060008060008060c087890312156132d557600080fd5b8635955060208701359450604087013593506060870135925060808701356005811061330057600080fd5b8092505060a087013590509295509295509295565b60ff815116825260ff602082015116602083015260408101516005811061333e5761333e6130cc565b806040840152505050565b6020808252825182820181905260009190848201906040850190845b8181101561338b57613378838551613315565b9284019260609290920191600101613365565b50909695505050505050565b606081016106dd8284613315565b60ff8516815260a081016133cc6020830186805160ff908116835260209182015116910152565b60608201939093526080015292915050565b6020808252825182820181905260009190848201906040850190845b8181101561338b5761340d8385516130f6565b9284019260a092909201916001016133fa565b634e487b7160e01b600052604160045260246000fd5b60ff81168114611d3b57600080fd5b60006040828403121561345757600080fd5b6040516040810181811067ffffffffffffffff8211171561348857634e487b7160e01b600052604160045260246000fd5b604052905080823561349981613436565b815260208301356134a981613436565b6020919091015292915050565b600080606083850312156134c957600080fd5b823591506134da8460208501613445565b90509250929050565b604081016106dd8284805160ff908116835260209182015116910152565b60a0810161350f82886130e2565b85602083015260ff8516604083015260ff8416606083015282151560808301529695505050505050565b6000806040838503121561354c57600080fd5b823561355781613436565b9150602083013561356781613436565b809150509250929050565b80356001600160a01b038116811461358957600080fd5b919050565b600080600080600060a086880312156135a657600080fd5b6135af86613572565b94506135bd60208701613572565b93506135cb60408701613572565b92506135d960608701613572565b91506135e760808701613572565b90509295509295909350565b60006020828403121561360557600080fd5b6106bc82613572565b61014081016106dd828461315c565b6000806080838503121561363057600080fd5b61363a8484613445565b91506134da8460408501613445565b8015158114611d3b57600080fd5b6000806000806080858703121561366d57600080fd5b843593506020850135925060408501359150606085013561368d81613649565b939692955090935050565b634e487b7160e01b600052603260045260246000fd5b634e487b7160e01b600052601160045260246000fd5b6000600160ff1b82016136d9576136d96136ae565b5060000390565b6000600182016136f2576136f26136ae565b5060010190565b818103818111156106dd576106dd6136ae565b80820281158282048414176106dd576106dd6136ae565b634e487b7160e01b600052601260045260246000fd5b60008261374857613748613723565b500490565b808201808211156106dd576106dd6136ae565b8181036000831280158383131683831282161715610948576109486136ae565b60ff82811682821603908111156106dd576106dd6136ae565b60ff81811683821601908111156106dd576106dd6136ae565b60005b838110156137cd5781810151838201526020016137b5565b50506000910152565b72024b73b30b634b2103234b932b1ba34b7b71d1606d1b8152600082516138048160138501602087016137b2565b9190910160130192915050565b60208152600082518060208401526138308160408501602087016137b2565b601f01601f19169190910160400192915050565b600181815b8085111561387f578160001904821115613865576138656136ae565b8085161561387257918102915b93841c9390800290613849565b509250929050565b600082613896575060016106dd565b816138a3575060006106dd565b81600181146138b957600281146138c3576138df565b60019150506106dd565b60ff8411156138d4576138d46136ae565b50506001821b6106dd565b5060208310610133831016604e8410600b8410161715613902575081810a6106dd565b61390c8383613844565b8060001904821115613920576139206136ae565b029392505050565b60006106bc8383613887565b60008261394357613943613723565b500690565b600060ff821660ff810361395e5761395e6136ae565b60010192915050565b600082810b9082900b03607f198112607f821317156106dd576106dd6136ae565b600081613997576139976136ae565b506000190190565b634e487b7160e01b600052603160045260246000fd5b6000602082840312156139c757600080fd5b5051919050565b600060a082840312156139e057600080fd5b60405160a0810181811067ffffffffffffffff82111715613a1157634e487b7160e01b600052604160045260246000fd5b604052825160068110613a2357600080fd5b8152602083810151908201526040830151613a3d81613436565b60408201526060830151613a5081613436565b60608201526080830151613a6381613649565b60808201529392505050565b6000600160ff1b8201613997576139976136ae565b60006001600160ff1b0182016136f2576136f26136ae56fea2646970667358221220b4fddf13cf96b7734d8b3b8fce9f2ca672a8b74661071b17142c71ef4c31375664736f6c63430008110033",
  "devdoc": {
    "kind": "dev",
    "methods": {
      "owner()": {
        "details": "Returns the address of the current owner."
      },
      "renounceOwnership()": {
        "details": "Leaves the contract without owner. It will not be possible to call `onlyOwner` functions anymore. Can only be called by the current owner. NOTE: Renouncing ownership will leave the contract without an owner, thereby removing any functionality that is only available to the owner."
      },
      "transferOwnership(address)": {
        "details": "Transfers ownership of the contract to a new account (`newOwner`). Can only be called by the current owner."
      }
    },
    "version": 1
  },
  "userdoc": {
    "kind": "user",
    "methods": {},
    "version": 1
  },
  "storageLayout": {
    "storage": [
      {
        "astId": 7,
        "contract": "contracts/BCMaps.sol:Maps",
        "label": "_owner",
        "offset": 0,
        "slot": "0",
        "type": "t_address"
      },
      {
        "astId": 16431,
        "contract": "contracts/BCMaps.sol:Maps",
        "label": "TODO_randomSeed",
        "offset": 0,
        "slot": "1",
        "type": "t_uint256"
      },
      {
        "astId": 12488,
        "contract": "contracts/BCMaps.sol:Maps",
        "label": "game",
        "offset": 0,
        "slot": "2",
        "type": "t_address"
      },
      {
        "astId": 12491,
        "contract": "contracts/BCMaps.sol:Maps",
        "label": "roomTiles",
        "offset": 0,
        "slot": "3",
        "type": "t_contract(RoomTileInterface)12482"
      },
      {
        "astId": 12493,
        "contract": "contracts/BCMaps.sol:Maps",
        "label": "actionsAddress",
        "offset": 0,
        "slot": "4",
        "type": "t_address"
      },
      {
        "astId": 12495,
        "contract": "contracts/BCMaps.sol:Maps",
        "label": "playersAddress",
        "offset": 0,
        "slot": "5",
        "type": "t_address"
      },
      {
        "astId": 12539,
        "contract": "contracts/BCMaps.sol:Maps",
        "label": "roomList",
        "offset": 0,
        "slot": "6",
        "type": "t_mapping(t_uint256,t_struct(RoomTile)16335_storage)"
      },
      {
        "astId": 12541,
        "contract": "contracts/BCMaps.sol:Maps",
        "label": "numRooms",
        "offset": 0,
        "slot": "7",
        "type": "t_uint256"
      },
      {
        "astId": 12545,
        "contract": "contracts/BCMaps.sol:Maps",
        "label": "maps",
        "offset": 0,
        "slot": "8",
        "type": "t_array(t_struct(Map)16270_storage)dyn_storage"
      }
    ],
    "types": {
      "t_address": {
        "encoding": "inplace",
        "label": "address",
        "numberOfBytes": "20"
      },
      "t_array(t_struct(Map)16270_storage)dyn_storage": {
        "base": "t_struct(Map)16270_storage",
        "encoding": "dynamic_array",
        "label": "struct BCTypes.Map[]",
        "numberOfBytes": "32"
      },
      "t_array(t_uint256)4_storage": {
        "base": "t_uint256",
        "encoding": "inplace",
        "label": "uint256[4]",
        "numberOfBytes": "128"
      },
      "t_array(t_uint256)dyn_storage": {
        "base": "t_uint256",
        "encoding": "dynamic_array",
        "label": "uint256[]",
        "numberOfBytes": "32"
      },
      "t_bool": {
        "encoding": "inplace",
        "label": "bool",
        "numberOfBytes": "1"
      },
      "t_contract(RoomTileInterface)12482": {
        "encoding": "inplace",
        "label": "contract RoomTileInterface",
        "numberOfBytes": "20"
      },
      "t_enum(BCEventType)16153": {
        "encoding": "inplace",
        "label": "enum BCTypes.BCEventType",
        "numberOfBytes": "1"
      },
      "t_enum(DoorStatus)16133": {
        "encoding": "inplace",
        "label": "enum BCTypes.DoorStatus",
        "numberOfBytes": "1"
      },
      "t_mapping(t_uint256,t_mapping(t_uint256,t_struct(GameTile)16237_storage))": {
        "encoding": "mapping",
        "key": "t_uint256",
        "label": "mapping(uint256 => mapping(uint256 => struct BCTypes.GameTile))",
        "numberOfBytes": "32",
        "value": "t_mapping(t_uint256,t_struct(GameTile)16237_storage)"
      },
      "t_mapping(t_uint256,t_struct(Door)16245_storage)": {
        "encoding": "mapping",
        "key": "t_uint256",
        "label": "mapping(uint256 => struct BCTypes.Door)",
        "numberOfBytes": "32",
        "value": "t_struct(Door)16245_storage"
      },
      "t_mapping(t_uint256,t_struct(GameTile)16237_storage)": {
        "encoding": "mapping",
        "key": "t_uint256",
        "label": "mapping(uint256 => struct BCTypes.GameTile)",
        "numberOfBytes": "32",
        "value": "t_struct(GameTile)16237_storage"
      },
      "t_mapping(t_uint256,t_struct(RoomTile)16335_storage)": {
        "encoding": "mapping",
        "key": "t_uint256",
        "label": "mapping(uint256 => struct BCTypes.RoomTile)",
        "numberOfBytes": "32",
        "value": "t_struct(RoomTile)16335_storage"
      },
      "t_struct(Door)16245_storage": {
        "encoding": "inplace",
        "label": "struct BCTypes.Door",
        "members": [
          {
            "astId": 16239,
            "contract": "contracts/BCMaps.sol:Maps",
            "label": "vsBreach",
            "offset": 0,
            "slot": "0",
            "type": "t_uint8"
          },
          {
            "astId": 16241,
            "contract": "contracts/BCMaps.sol:Maps",
            "label": "vsHack",
            "offset": 1,
            "slot": "0",
            "type": "t_uint8"
          },
          {
            "astId": 16244,
            "contract": "contracts/BCMaps.sol:Maps",
            "label": "status",
            "offset": 2,
            "slot": "0",
            "type": "t_enum(DoorStatus)16133"
          }
        ],
        "numberOfBytes": "32"
      },
      "t_struct(GameTile)16237_storage": {
        "encoding": "inplace",
        "label": "struct BCTypes.GameTile",
        "members": [
          {
            "astId": 16222,
            "contract": "contracts/BCMaps.sol:Maps",
            "label": "roomId",
            "offset": 0,
            "slot": "0",
            "type": "t_uint8"
          },
          {
            "astId": 16224,
            "contract": "contracts/BCMaps.sol:Maps",
            "label": "parentId",
            "offset": 1,
            "slot": "0",
            "type": "t_uint8"
          },
          {
            "astId": 16228,
            "contract": "contracts/BCMaps.sol:Maps",
            "label": "doors",
            "offset": 0,
            "slot": "1",
            "type": "t_array(t_uint256)4_storage"
          },
          {
            "astId": 16230,
            "contract": "contracts/BCMaps.sol:Maps",
            "label": "explored",
            "offset": 0,
            "slot": "5",
            "type": "t_bool"
          },
          {
            "astId": 16232,
            "contract": "contracts/BCMaps.sol:Maps",
            "label": "looted",
            "offset": 1,
            "slot": "5",
            "type": "t_bool"
          },
          {
            "astId": 16234,
            "contract": "contracts/BCMaps.sol:Maps",
            "label": "hasVent",
            "offset": 2,
            "slot": "5",
            "type": "t_bool"
          },
          {
            "astId": 16236,
            "contract": "contracts/BCMaps.sol:Maps",
            "label": "hasHazard",
            "offset": 3,
            "slot": "5",
            "type": "t_bool"
          }
        ],
        "numberOfBytes": "192"
      },
      "t_struct(Map)16270_storage": {
        "encoding": "inplace",
        "label": "struct BCTypes.Map",
        "members": [
          {
            "astId": 16248,
            "contract": "contracts/BCMaps.sol:Maps",
            "label": "unusedNormalRooms",
            "offset": 0,
            "slot": "0",
            "type": "t_array(t_uint256)dyn_storage"
          },
          {
            "astId": 16255,
            "contract": "contracts/BCMaps.sol:Maps",
            "label": "board",
            "offset": 0,
            "slot": "1",
            "type": "t_mapping(t_uint256,t_mapping(t_uint256,t_struct(GameTile)16237_storage))"
          },
          {
            "astId": 16260,
            "contract": "contracts/BCMaps.sol:Maps",
            "label": "doors",
            "offset": 0,
            "slot": "2",
            "type": "t_mapping(t_uint256,t_struct(Door)16245_storage)"
          },
          {
            "astId": 16262,
            "contract": "contracts/BCMaps.sol:Maps",
            "label": "numDoors",
            "offset": 0,
            "slot": "3",
            "type": "t_uint8"
          },
          {
            "astId": 16265,
            "contract": "contracts/BCMaps.sol:Maps",
            "label": "startPosition",
            "offset": 0,
            "slot": "4",
            "type": "t_struct(Position)16220_storage"
          },
          {
            "astId": 16267,
            "contract": "contracts/BCMaps.sol:Maps",
            "label": "mainReactorRow",
            "offset": 0,
            "slot": "5",
            "type": "t_uint256"
          },
          {
            "astId": 16269,
            "contract": "contracts/BCMaps.sol:Maps",
            "label": "mainReactorCol",
            "offset": 0,
            "slot": "6",
            "type": "t_uint256"
          }
        ],
        "numberOfBytes": "224"
      },
      "t_struct(Position)16220_storage": {
        "encoding": "inplace",
        "label": "struct BCTypes.Position",
        "members": [
          {
            "astId": 16217,
            "contract": "contracts/BCMaps.sol:Maps",
            "label": "row",
            "offset": 0,
            "slot": "0",
            "type": "t_uint8"
          },
          {
            "astId": 16219,
            "contract": "contracts/BCMaps.sol:Maps",
            "label": "col",
            "offset": 1,
            "slot": "0",
            "type": "t_uint8"
          }
        ],
        "numberOfBytes": "32"
      },
      "t_struct(RoomTile)16335_storage": {
        "encoding": "inplace",
        "label": "struct BCTypes.RoomTile",
        "members": [
          {
            "astId": 16326,
            "contract": "contracts/BCMaps.sol:Maps",
            "label": "eventType",
            "offset": 0,
            "slot": "0",
            "type": "t_enum(BCEventType)16153"
          },
          {
            "astId": 16328,
            "contract": "contracts/BCMaps.sol:Maps",
            "label": "eventNum",
            "offset": 0,
            "slot": "1",
            "type": "t_uint256"
          },
          {
            "astId": 16330,
            "contract": "contracts/BCMaps.sol:Maps",
            "label": "numItems",
            "offset": 0,
            "slot": "2",
            "type": "t_uint8"
          },
          {
            "astId": 16332,
            "contract": "contracts/BCMaps.sol:Maps",
            "label": "numData",
            "offset": 1,
            "slot": "2",
            "type": "t_uint8"
          },
          {
            "astId": 16334,
            "contract": "contracts/BCMaps.sol:Maps",
            "label": "sigDetected",
            "offset": 2,
            "slot": "2",
            "type": "t_bool"
          }
        ],
        "numberOfBytes": "96"
      },
      "t_uint256": {
        "encoding": "inplace",
        "label": "uint256",
        "numberOfBytes": "32"
      },
      "t_uint8": {
        "encoding": "inplace",
        "label": "uint8",
        "numberOfBytes": "1"
      }
    }
  }
}