{
  "address": "0xC24176b5C70b3aA5401e6823f8A914d32204228B",
  "abi": [
    {
      "anonymous": false,
      "inputs": [
        {
          "indexed": true,
          "internalType": "address",
          "name": "previousOwner",
          "type": "address"
        },
        {
          "indexed": true,
          "internalType": "address",
          "name": "newOwner",
          "type": "address"
        }
      ],
      "name": "OwnershipTransferred",
      "type": "event"
    },
    {
      "inputs": [],
      "name": "createMap",
      "outputs": [
        {
          "internalType": "uint256",
          "name": "",
          "type": "uint256"
        }
      ],
      "stateMutability": "nonpayable",
      "type": "function"
    },
    {
      "inputs": [
        {
          "internalType": "uint256",
          "name": "_mapId",
          "type": "uint256"
        },
        {
          "internalType": "uint256",
          "name": "_row",
          "type": "uint256"
        },
        {
          "internalType": "uint256",
          "name": "_col",
          "type": "uint256"
        }
      ],
      "name": "discoverRoom",
      "outputs": [
        {
          "internalType": "bool",
          "name": "",
          "type": "bool"
        }
      ],
      "stateMutability": "nonpayable",
      "type": "function"
    },
    {
      "inputs": [
        {
          "internalType": "uint256",
          "name": "_mapId",
          "type": "uint256"
        }
      ],
      "name": "extGetBoard",
      "outputs": [
        {
          "components": [
            {
              "internalType": "uint8",
              "name": "roomId",
              "type": "uint8"
            },
            {
              "internalType": "uint8",
              "name": "parentId",
              "type": "uint8"
            },
            {
              "internalType": "uint256[4]",
              "name": "doors",
              "type": "uint256[4]"
            },
            {
              "internalType": "bool",
              "name": "explored",
              "type": "bool"
            },
            {
              "internalType": "bool",
              "name": "looted",
              "type": "bool"
            },
            {
              "internalType": "bool",
              "name": "hasVent",
              "type": "bool"
            }
          ],
          "internalType": "struct BCTypes.GameTile[][]",
          "name": "",
          "type": "tuple[][]"
        }
      ],
      "stateMutability": "view",
      "type": "function"
    },
    {
      "inputs": [
        {
          "internalType": "uint256",
          "name": "_mapId",
          "type": "uint256"
        }
      ],
      "name": "extGetDoors",
      "outputs": [
        {
          "components": [
            {
              "internalType": "uint8",
              "name": "vsBreach",
              "type": "uint8"
            },
            {
              "internalType": "uint8",
              "name": "vsHack",
              "type": "uint8"
            },
            {
              "internalType": "enum BCTypes.DoorStatus",
              "name": "status",
              "type": "uint8"
            }
          ],
          "internalType": "struct BCTypes.Door[]",
          "name": "",
          "type": "tuple[]"
        }
      ],
      "stateMutability": "view",
      "type": "function"
    },
    {
      "inputs": [
        {
          "internalType": "uint256",
          "name": "_mapId",
          "type": "uint256"
        },
        {
          "internalType": "uint256",
          "name": "_row",
          "type": "uint256"
        },
        {
          "internalType": "uint256",
          "name": "_col",
          "type": "uint256"
        }
      ],
      "name": "extGetGameTile",
      "outputs": [
        {
          "components": [
            {
              "internalType": "uint8",
              "name": "roomId",
              "type": "uint8"
            },
            {
              "internalType": "uint8",
              "name": "parentId",
              "type": "uint8"
            },
            {
              "internalType": "uint256[4]",
              "name": "doors",
              "type": "uint256[4]"
            },
            {
              "internalType": "bool",
              "name": "explored",
              "type": "bool"
            },
            {
              "internalType": "bool",
              "name": "looted",
              "type": "bool"
            },
            {
              "internalType": "bool",
              "name": "hasVent",
              "type": "bool"
            }
          ],
          "internalType": "struct BCTypes.GameTile",
          "name": "",
          "type": "tuple"
        }
      ],
      "stateMutability": "view",
      "type": "function"
    },
    {
      "inputs": [],
      "name": "game",
      "outputs": [
        {
          "internalType": "contract GameInterface",
          "name": "",
          "type": "address"
        }
      ],
      "stateMutability": "view",
      "type": "function"
    },
    {
      "inputs": [
        {
          "internalType": "uint256",
          "name": "_mapId",
          "type": "uint256"
        },
        {
          "internalType": "uint256",
          "name": "_row",
          "type": "uint256"
        },
        {
          "internalType": "uint256",
          "name": "_col",
          "type": "uint256"
        },
        {
          "internalType": "uint256",
          "name": "_direction",
          "type": "uint256"
        }
      ],
      "name": "getDoor",
      "outputs": [
        {
          "components": [
            {
              "internalType": "uint8",
              "name": "vsBreach",
              "type": "uint8"
            },
            {
              "internalType": "uint8",
              "name": "vsHack",
              "type": "uint8"
            },
            {
              "internalType": "enum BCTypes.DoorStatus",
              "name": "status",
              "type": "uint8"
            }
          ],
          "internalType": "struct BCTypes.Door",
          "name": "",
          "type": "tuple"
        }
      ],
      "stateMutability": "view",
      "type": "function"
    },
    {
      "inputs": [
        {
          "internalType": "uint256",
          "name": "",
          "type": "uint256"
        }
      ],
      "name": "maps",
      "outputs": [
        {
          "internalType": "uint8",
          "name": "numRooms",
          "type": "uint8"
        },
        {
          "internalType": "uint8",
          "name": "numDoors",
          "type": "uint8"
        },
        {
          "components": [
            {
              "internalType": "uint8",
              "name": "row",
              "type": "uint8"
            },
            {
              "internalType": "uint8",
              "name": "col",
              "type": "uint8"
            }
          ],
          "internalType": "struct BCTypes.Position",
          "name": "startPosition",
          "type": "tuple"
        }
      ],
      "stateMutability": "view",
      "type": "function"
    },
    {
      "inputs": [],
      "name": "owner",
      "outputs": [
        {
          "internalType": "address",
          "name": "",
          "type": "address"
        }
      ],
      "stateMutability": "view",
      "type": "function"
    },
    {
      "inputs": [],
      "name": "renounceOwnership",
      "outputs": [],
      "stateMutability": "nonpayable",
      "type": "function"
    },
    {
      "inputs": [],
      "name": "roomTiles",
      "outputs": [
        {
          "internalType": "contract RoomTileInterface",
          "name": "",
          "type": "address"
        }
      ],
      "stateMutability": "view",
      "type": "function"
    },
    {
      "inputs": [
        {
          "internalType": "address",
          "name": "_gameAddress",
          "type": "address"
        },
        {
          "internalType": "address",
          "name": "_utilsAddress",
          "type": "address"
        },
        {
          "internalType": "address",
          "name": "_roomTilesAddress",
          "type": "address"
        }
      ],
      "name": "setContractAddresses",
      "outputs": [],
      "stateMutability": "nonpayable",
      "type": "function"
    },
    {
      "inputs": [
        {
          "internalType": "uint256",
          "name": "_mapId",
          "type": "uint256"
        },
        {
          "internalType": "uint256",
          "name": "_row",
          "type": "uint256"
        },
        {
          "internalType": "uint256",
          "name": "_col",
          "type": "uint256"
        },
        {
          "internalType": "uint256",
          "name": "_direction",
          "type": "uint256"
        },
        {
          "internalType": "enum BCTypes.DoorStatus",
          "name": "_status",
          "type": "uint8"
        }
      ],
      "name": "setDoorFromPos",
      "outputs": [],
      "stateMutability": "nonpayable",
      "type": "function"
    },
    {
      "inputs": [
        {
          "internalType": "address",
          "name": "newOwner",
          "type": "address"
        }
      ],
      "name": "transferOwnership",
      "outputs": [],
      "stateMutability": "nonpayable",
      "type": "function"
    },
    {
      "inputs": [],
      "name": "utils",
      "outputs": [
        {
          "internalType": "contract UtilsInterface",
          "name": "",
          "type": "address"
        }
      ],
      "stateMutability": "view",
      "type": "function"
    }
  ],
  "transactionHash": "0x6d0f0d31a5ca41094a0086543097f551a082809b6fed2f25f889df58674c97df",
  "args": [],
  "numDeployments": 1,
  "solcInputHash": "986ec26d8160e0416993b721c2ba1b1b",
  "bytecode": "0x60806040523480156200001157600080fd5b5062000032620000266200003860201b60201c565b6200004060201b60201c565b62000104565b600033905090565b60008060009054906101000a900473ffffffffffffffffffffffffffffffffffffffff169050816000806101000a81548173ffffffffffffffffffffffffffffffffffffffff021916908373ffffffffffffffffffffffffffffffffffffffff1602179055508173ffffffffffffffffffffffffffffffffffffffff168173ffffffffffffffffffffffffffffffffffffffff167f8be0079c531659141344cd1fd0a4f28419497f9722a3daafe3b4186f6b6457e060405160405180910390a35050565b61455580620001146000396000f3fe608060405234801561001057600080fd5b50600436106100f55760003560e01c80638ab6338011610097578063f01fc35a11610066578063f01fc35a14610288578063f2fde38b146102a6578063f7157f64146102c2578063f9dfbfcb146102e0576100f5565b80638ab63380146102145780638da5cb5b14610230578063b6cdd3b41461024e578063c3fe3e281461026a576100f5565b806369568fd5116100d357806369568fd5146101785780636ea1dcd8146101a8578063715018a6146101d857806375990a0e146101e2576100f5565b80631ef04416146100fa578063471b67591461012a5780635a29638d1461015a575b600080fd5b610114600480360381019061010f9190612f80565b610310565b604051610121919061327e565b60405180910390f35b610144600480360381019061013f91906132a0565b61059b565b6040516101519190613302565b60405180910390f35b6101626106f5565b60405161016f919061339c565b60405180910390f35b610192600480360381019061018d9190612f80565b61071b565b60405161019f919061351f565b60405180910390f35b6101c260048036038101906101bd9190613541565b6108a7565b6040516101cf91906135ea565b60405180910390f35b6101e0610a11565b005b6101fc60048036038101906101f79190612f80565b610a25565b60405161020b93929190613643565b60405180910390f35b61022e600480360381019061022991906136b8565b610abd565b005b610238610b8d565b604051610245919061371a565b60405180910390f35b6102686004803603810190610263919061375a565b610bb6565b005b610272610d56565b60405161027f91906137f6565b60405180910390f35b610290610d7c565b60405161029d9190613820565b60405180910390f35b6102c060048036038101906102bb919061383b565b610f99565b005b6102ca61101d565b6040516102d79190613889565b60405180910390f35b6102fa60048036038101906102f591906132a0565b611043565b6040516103079190613921565b60405180910390f35b60606000600967ffffffffffffffff81111561032f5761032e61393d565b5b60405190808252806020026020018201604052801561036257816020015b606081526020019060019003908161034d5790505b50905060005b60098110156103f757600967ffffffffffffffff81111561038c5761038b61393d565b5b6040519080825280602002602001820160405280156103c557816020015b6103b2612d14565b8152602001906001900390816103aa5790505b508282815181106103d9576103d861396c565b5b602002602001018190525080806103ef906139ca565b915050610368565b5060005b60098110156105915760005b600981101561057d57600585815481106104245761042361396c565b5b9060005260206000209060070201600301600083815260200190815260200160002060008281526020019081526020016000206040518060c00160405290816000820160009054906101000a900460ff1660ff1660ff1681526020016000820160019054906101000a900460ff1660ff1660ff168152602001600182016004806020026040519081016040528092919082600480156104d8576020028201915b8154815260200190600101908083116104c4575b505050505081526020016005820160009054906101000a900460ff161515151581526020016005820160019054906101000a900460ff161515151581526020016005820160029054906101000a900460ff1615151515815250508383815181106105455761054461396c565b5b6020026020010151828151811061055f5761055e61396c565b5b60200260200101819052508080610575906139ca565b915050610407565b508080610589906139ca565b9150506103fb565b5080915050919050565b6000600160009054906101000a900473ffffffffffffffffffffffffffffffffffffffff1673ffffffffffffffffffffffffffffffffffffffff163373ffffffffffffffffffffffffffffffffffffffff161461062d576040517f08c379a000000000000000000000000000000000000000000000000000000000815260040161062490613a70565b60405180910390fd5b6000600585815481106106435761064261396c565b5b9060005260206000209060070201600301600085815260200190815260200160002060008481526020019081526020016000209050600160ff168160000160009054906101000a900460ff1660ff1614156106e8576106c2600586815481106106af576106ae61396c565b5b9060005260206000209060070201611176565b8160000160006101000a81548160ff021916908360ff16021790555060019150506106ee565b60009150505b9392505050565b600260009054906101000a900473ffffffffffffffffffffffffffffffffffffffff1681565b60606000600583815481106107335761073261396c565b5b906000526020600020906007020160050160009054906101000a900460ff1660ff1667ffffffffffffffff81111561076e5761076d61393d565b5b6040519080825280602002602001820160405280156107a757816020015b610794612d5c565b81526020019060019003908161078c5790505b50905060005b815181101561089d57600584815481106107ca576107c961396c565b5b906000526020600020906007020160040160008281526020019081526020016000206040518060600160405290816000820160009054906101000a900460ff1660ff1660ff1681526020016000820160019054906101000a900460ff1660ff1660ff1681526020016000820160029054906101000a900460ff166004811115610856576108556133e3565b5b6004811115610868576108676133e3565b5b8152505082828151811061087f5761087e61396c565b5b60200260200101819052508080610895906139ca565b9150506107ad565b5080915050919050565b6108af612d5c565b6000600586815481106108c5576108c461396c565b5b906000526020600020906007020160030160008681526020019081526020016000206000858152602001908152602001600020600101600480602002604051908101604052809291908260048015610932576020028201915b81548152602001906001019080831161091e575b505050505090506005868154811061094d5761094c61396c565b5b906000526020600020906007020160040160008285600481106109735761097261396c565b5b602002015181526020019081526020016000206040518060600160405290816000820160009054906101000a900460ff1660ff1660ff1681526020016000820160019054906101000a900460ff1660ff1660ff1681526020016000820160029054906101000a900460ff1660048111156109f0576109ef6133e3565b5b6004811115610a0257610a016133e3565b5b81525050915050949350505050565b610a196112bd565b610a23600061133b565b565b60058181548110610a3557600080fd5b90600052602060002090600702016000915090508060010160009054906101000a900460ff16908060050160009054906101000a900460ff1690806006016040518060400160405290816000820160009054906101000a900460ff1660ff1660ff1681526020016000820160019054906101000a900460ff1660ff1660ff1681525050905083565b610ac56112bd565b82600160006101000a81548173ffffffffffffffffffffffffffffffffffffffff021916908373ffffffffffffffffffffffffffffffffffffffff16021790555081600260006101000a81548173ffffffffffffffffffffffffffffffffffffffff021916908373ffffffffffffffffffffffffffffffffffffffff16021790555080600360006101000a81548173ffffffffffffffffffffffffffffffffffffffff021916908373ffffffffffffffffffffffffffffffffffffffff160217905550505050565b60008060009054906101000a900473ffffffffffffffffffffffffffffffffffffffff16905090565b600160009054906101000a900473ffffffffffffffffffffffffffffffffffffffff1673ffffffffffffffffffffffffffffffffffffffff163373ffffffffffffffffffffffffffffffffffffffff1614610c46576040517f08c379a0000000000000000000000000000000000000000000000000000000008152600401610c3d90613a70565b60405180910390fd5b600060058681548110610c5c57610c5b61396c565b5b906000526020600020906007020160030160008681526020019081526020016000206000858152602001908152602001600020600101600480602002604051908101604052809291908260048015610cc9576020028201915b815481526020019060010190808311610cb5575b50505050509050600060058781548110610ce657610ce561396c565b5b90600052602060002090600702016004016000838660048110610d0c57610d0b61396c565b5b602002015181526020019081526020016000209050828160000160026101000a81548160ff02191690836004811115610d4857610d476133e3565b5b021790555050505050505050565b600160009054906101000a900473ffffffffffffffffffffffffffffffffffffffff1681565b6000600160009054906101000a900473ffffffffffffffffffffffffffffffffffffffff1673ffffffffffffffffffffffffffffffffffffffff163373ffffffffffffffffffffffffffffffffffffffff1614610e0e576040517f08c379a0000000000000000000000000000000000000000000000000000000008152600401610e0590613adc565b60405180910390fd5b600060056001816001815401808255809150500390600052602060002090600702019050610e3e816000016113ff565b8160010160006101000a81548160ff021916908360ff160217905550604051806060016040528060ff8016815260200160ff8016815260200160006004811115610e8b57610e8a6133e3565b5b8152508160040160008360050160009054906101000a900460ff1660ff16815260200190815260200160002060008201518160000160006101000a81548160ff021916908360ff16021790555060208201518160000160016101000a81548160ff021916908360ff16021790555060408201518160000160026101000a81548160ff02191690836004811115610f2457610f236133e3565b5b021790555090505080600501600081819054906101000a900460ff1680929190610f4d90613afc565b91906101000a81548160ff021916908360ff16021790555050610f6f8161164c565b610f788161182e565b610f81816128f1565b6001600580549050610f939190613b26565b91505090565b610fa16112bd565b600073ffffffffffffffffffffffffffffffffffffffff168173ffffffffffffffffffffffffffffffffffffffff161415611011576040517f08c379a000000000000000000000000000000000000000000000000000000000815260040161100890613bcc565b60405180910390fd5b61101a8161133b565b50565b600360009054906101000a900473ffffffffffffffffffffffffffffffffffffffff1681565b61104b612d14565b6005848154811061105f5761105e61396c565b5b9060005260206000209060070201600301600084815260200190815260200160002060008381526020019081526020016000206040518060c00160405290816000820160009054906101000a900460ff1660ff1660ff1681526020016000820160019054906101000a900460ff1660ff1660ff16815260200160018201600480602002604051908101604052809291908260048015611113576020028201915b8154815260200190600101908083116110ff575b505050505081526020016005820160009054906101000a900460ff161515151581526020016005820160019054906101000a900460ff161515151581526020016005820160029054906101000a900460ff16151515158152505090509392505050565b600080600260009054906101000a900473ffffffffffffffffffffffffffffffffffffffff1673ffffffffffffffffffffffffffffffffffffffff1663ce28613f60028560010160009054906101000a900460ff166040518363ffffffff1660e01b81526004016111e8929190613c27565b6020604051808303816000875af1158015611207573d6000803e3d6000fd5b505050506040513d601f19601f8201168201806040525081019061122b9190613c7c565b90505b600115158360020160008360ff16815260200190815260200160002060009054906101000a900460ff16151514156112b45760018360010160009054906101000a900460ff1661127e9190613ca9565b60ff168160ff1614156112a057600160026112999190613cdd565b90506112af565b80806112ab90613afc565b9150505b61122e565b80915050919050565b6112c5612d0c565b73ffffffffffffffffffffffffffffffffffffffff166112e3610b8d565b73ffffffffffffffffffffffffffffffffffffffff1614611339576040517f08c379a000000000000000000000000000000000000000000000000000000000815260040161133090613d60565b60405180910390fd5b565b60008060009054906101000a900473ffffffffffffffffffffffffffffffffffffffff169050816000806101000a81548173ffffffffffffffffffffffffffffffffffffffff021916908373ffffffffffffffffffffffffffffffffffffffff1602179055508173ffffffffffffffffffffffffffffffffffffffff168173ffffffffffffffffffffffffffffffffffffffff167f8be0079c531659141344cd1fd0a4f28419497f9722a3daafe3b4186f6b6457e060405160405180910390a35050565b600080600360009054906101000a900473ffffffffffffffffffffffffffffffffffffffff1673ffffffffffffffffffffffffffffffffffffffff166338fdf0bd6040518163ffffffff1660e01b8152600401602060405180830381865afa15801561146f573d6000803e3d6000fd5b505050506040513d601f19601f820116820180604052508101906114939190613d95565b905060005b8181101561164257600360009054906101000a900473ffffffffffffffffffffffffffffffffffffffff1673ffffffffffffffffffffffffffffffffffffffff166382753ebe826040518263ffffffff1660e01b81526004016114fb9190613820565b600060405180830381865afa158015611518573d6000803e3d6000fd5b505050506040513d6000823e3d601f19601f820116820180604052508101906115419190614028565b846000838152602001908152602001600020600082015181600001908051906020019061156f929190612d95565b5060208201518160010160006101000a81548160ff0219169083600481111561159b5761159a6133e3565b5b02179055506040820151816002015560608201518160030160006101000a81548160ff021916908360ff16021790555060808201518160030160016101000a81548160ff021916908360ff16021790555060a08201518160030160026101000a81548160ff02191690831515021790555060c08201518160030160036101000a81548160ff021916908315150217905550905050808061163a906139ca565b915050611498565b5080915050919050565b6000600460018160018154018082558091505003906000526020600020906006020190506000600160096116809190613b26565b9050600060016002600961169491906140a0565b61169e91906140d1565b905060405180604001604052808360ff1681526020018260ff168152508460060160008201518160000160006101000a81548160ff021916908360ff16021790555060208201518160000160016101000a81548160ff021916908360ff1602179055509050508284600301600084815260200190815260200160002060008381526020019081526020016000206000820160009054906101000a900460ff168160000160006101000a81548160ff021916908360ff1602179055506000820160019054906101000a900460ff168160000160016101000a81548160ff021916908360ff160217905550600182018160010190600461179d929190612e1b565b506005820160009054906101000a900460ff168160050160006101000a81548160ff0219169083151502179055506005820160019054906101000a900460ff168160050160016101000a81548160ff0219169083151502179055506005820160029054906101000a900460ff168160050160026101000a81548160ff02191690831515021790555090505050505050565b60008060028360010160009054906101000a900460ff1661184f9190613ca9565b60ff1690506000600190506000611864612e58565b6001818760060160000160009054906101000a900460ff1660ff16600981106118905761188f61396c565b5b60200201518760060160000160019054906101000a900460ff1660ff16600981106118be576118bd61396c565b5b6020020190151590811515815250506118d5612e86565b866006016040518060400160405290816000820160009054906101000a900460ff1660ff1660ff1681526020016000820160019054906101000a900460ff1660ff1660ff16815250508187601e81106119315761193061396c565b5b60200201819052508580611944906139ca565b9650505b6000861180156119585750600085115b156127f25760008160018861196d9190613b26565b601e811061197e5761197d61396c565b5b60200201519050868061199090614127565b9750508187601e81106119a6576119a561396c565b5b602002016119b2612eb4565b81525085806119c090614127565b96505084806119ce90614127565b9550506001886003016000836000015160ff1681526020019081526020016000206000836020015160ff16815260200190815260200160002060000160006101000a81548160ff021916908360ff1602179055506021600260009054906101000a900473ffffffffffffffffffffffffffffffffffffffff1673ffffffffffffffffffffffffffffffffffffffff1663ce28613f600060636040518363ffffffff1660e01b8152600401611a839291906141c7565b6020604051808303816000875af1158015611aa2573d6000803e3d6000fd5b505050506040513d601f19601f82011682018060405250810190611ac69190613c7c565b60ff161015611b20576001886003016000836000015160ff1681526020019081526020016000206000836020015160ff16815260200190815260200160002060050160026101000a81548160ff0219169083151502179055505b60007fffffffffffffffffffffffffffffffffffffffffffffffffffffffffffffffff90505b600181136127eb5760007fffffffffffffffffffffffffffffffffffffffffffffffffffffffffffffffff90505b600181136127d757600260009054906101000a900473ffffffffffffffffffffffffffffffffffffffff1673ffffffffffffffffffffffffffffffffffffffff16631b5ac4b5826040518263ffffffff1660e01b8152600401611bd79190614209565b602060405180830381865afa158015611bf4573d6000803e3d6000fd5b505050506040513d601f19601f82011682018060405250810190611c189190614250565b600260009054906101000a900473ffffffffffffffffffffffffffffffffffffffff1673ffffffffffffffffffffffffffffffffffffffff16631b5ac4b5846040518263ffffffff1660e01b8152600401611c739190614209565b602060405180830381865afa158015611c90573d6000803e3d6000fd5b505050506040513d601f19601f82011682018060405250810190611cb49190614250565b1415611cbf576127c4565b600082846000015160000b611cd4919061427d565b9050600082856020015160000b611ceb919061427d565b90506001821280611cfc5750600181125b80611d13575060026009611d109190613b26565b82135b80611d2a575060026009611d279190613b26565b81135b15611d365750506127c4565b600060405180604001604052808460ff1681526020018360ff1681525090506000151588826000015160ff1660098110611d7357611d7261396c565b5b6020020151826020015160ff1660098110611d9157611d9061396c565b5b602002015115151480611e8b575060008d6003016000886000015160ff1681526020019081526020016000206000886020015160ff168152602001908152602001600020600101600260009054906101000a900473ffffffffffffffffffffffffffffffffffffffff1673ffffffffffffffffffffffffffffffffffffffff1663fa3993c289856040518363ffffffff1660e01b8152600401611e35929190614311565b602060405180830381865afa158015611e52573d6000803e3d6000fd5b505050506040513d601f19601f82011682018060405250810190611e769190613d95565b60048110611e8757611e8661396c565b5b0154145b156127c05760008a1480611f5157508860ff166042611eaa9190613b26565b600260009054906101000a900473ffffffffffffffffffffffffffffffffffffffff1673ffffffffffffffffffffffffffffffffffffffff1663ce28613f600060636040518363ffffffff1660e01b8152600401611f099291906141c7565b6020604051808303816000875af1158015611f28573d6000803e3d6000fd5b505050506040513d601f19601f82011682018060405250810190611f4c9190613c7c565b60ff16105b156127ba576040518060600160405280600260009054906101000a900473ffffffffffffffffffffffffffffffffffffffff1673ffffffffffffffffffffffffffffffffffffffff1663ce28613f600060036040518363ffffffff1660e01b8152600401611fc092919061433a565b6020604051808303816000875af1158015611fdf573d6000803e3d6000fd5b505050506040513d601f19601f820116820180604052508101906120039190613c7c565b60ff168152602001600260009054906101000a900473ffffffffffffffffffffffffffffffffffffffff1673ffffffffffffffffffffffffffffffffffffffff1663ce28613f600060036040518363ffffffff1660e01b815260040161206a92919061433a565b6020604051808303816000875af1158015612089573d6000803e3d6000fd5b505050506040513d601f19601f820116820180604052508101906120ad9190613c7c565b60ff168152602001600160048111156120c9576120c86133e3565b5b8152508d60040160008f60050160009054906101000a900460ff1660ff16815260200190815260200160002060008201518160000160006101000a81548160ff021916908360ff16021790555060208201518160000160016101000a81548160ff021916908360ff16021790555060408201518160000160026101000a81548160ff02191690836004811115612162576121616133e3565b5b02179055509050508c600501600081819054906101000a900460ff168092919061218b90613afc565b91906101000a81548160ff021916908360ff160217905550506016896121b19190613cdd565b985080878d601e81106121c7576121c661396c565b5b60200201819052508b806121da906139ca565b9c505089806121e8906139ca565b9a5050600188826000015160ff16600981106122075761220661396c565b5b6020020151826020015160ff16600981106122255761222461396c565b5b6020020190151590811515815250507fffffffffffffffffffffffffffffffffffffffffffffffffffffffffffffffff851480156122635750600084145b80156122ba575060008d6003016000886000015160ff1681526020019081526020016000206000886020015160ff1681526020019081526020016000206001016000600481106122b6576122b561396c565b5b0154145b156123a45760018d60050160009054906101000a900460ff166122dd9190613ca9565b60ff168d6003016000886000015160ff1681526020019081526020016000206000886020015160ff16815260200190815260200160002060010160006004811061232a5761232961396c565b5b018190555060018d60050160009054906101000a900460ff1661234d9190613ca9565b60ff168d6003016000836000015160ff1681526020019081526020016000206000836020015160ff16815260200190815260200160002060010160016004811061239a5761239961396c565b5b01819055506127b5565b6001851480156123b45750600084145b801561240b575060008d6003016000886000015160ff1681526020019081526020016000206000886020015160ff1681526020019081526020016000206001016001600481106124075761240661396c565b5b0154145b156124f55760018d60050160009054906101000a900460ff1661242e9190613ca9565b60ff168d6003016000886000015160ff1681526020019081526020016000206000886020015160ff16815260200190815260200160002060010160016004811061247b5761247a61396c565b5b018190555060018d60050160009054906101000a900460ff1661249e9190613ca9565b60ff168d6003016000836000015160ff1681526020019081526020016000206000836020015160ff1681526020019081526020016000206001016000600481106124eb576124ea61396c565b5b01819055506127b4565b6001841480156125055750600085145b801561255c575060008d6003016000886000015160ff1681526020019081526020016000206000886020015160ff1681526020019081526020016000206001016002600481106125585761255761396c565b5b0154145b156126465760018d60050160009054906101000a900460ff1661257f9190613ca9565b60ff168d6003016000886000015160ff1681526020019081526020016000206000886020015160ff1681526020019081526020016000206001016002600481106125cc576125cb61396c565b5b018190555060018d60050160009054906101000a900460ff166125ef9190613ca9565b60ff168d6003016000836000015160ff1681526020019081526020016000206000836020015160ff16815260200190815260200160002060010160036004811061263c5761263b61396c565b5b01819055506127b3565b7fffffffffffffffffffffffffffffffffffffffffffffffffffffffffffffffff841480156126755750600085145b80156126cc575060008d6003016000886000015160ff1681526020019081526020016000206000886020015160ff1681526020019081526020016000206001016003600481106126c8576126c761396c565b5b0154145b156127b25760018d60050160009054906101000a900460ff166126ef9190613ca9565b60ff168d6003016000886000015160ff1681526020019081526020016000206000886020015160ff16815260200190815260200160002060010160036004811061273c5761273b61396c565b5b018190555060018d60050160009054906101000a900460ff1661275f9190613ca9565b60ff168d6003016000836000015160ff1681526020019081526020016000206000836020015160ff1681526020019081526020016000206001016002600481106127ac576127ab61396c565b5b01819055505b5b5b5b6127bf565b600098505b5b5050505b80806127cf90614363565b915050611b74565b5080806127e390614363565b915050611b46565b5050611948565b60008514612835576040517f08c379a000000000000000000000000000000000000000000000000000000000815260040161282c906143f8565b60405180910390fd5b60028760030160008960060160000160009054906101000a900460ff1660ff16815260200190815260200160002060008960060160000160019054906101000a900460ff1660ff16815260200190815260200160002060000160006101000a81548160ff021916908360ff16021790555060038760040160006001815260200190815260200160002060000160026101000a81548160ff021916908360048111156128e3576128e26133e3565b5b021790555050505050505050565b60005b6009811015612d085760005b6009811015612cf4576001836003016000848152602001908152602001600020600083815260200190815260200160002060000160009054906101000a900460ff1660ff161415612ce15760005b6004811015612cdf576000846003016000858152602001908152602001600020600084815260200190815260200160002060010182600481106129945761299361396c565b5b01541415612ccc576000600260009054906101000a900473ffffffffffffffffffffffffffffffffffffffff1673ffffffffffffffffffffffffffffffffffffffff1663951fc3fe8360405180604001604052808860ff1681526020018760ff168152506040518363ffffffff1660e01b8152600401612a15929190614418565b6040805180830381865afa158015612a31573d6000803e3d6000fd5b505050506040513d601f19601f82011682018060405250810190612a559190614491565b90506000856003016000836000015160ff1681526020019081526020016000206000836020015160ff16815260200190815260200160002060000160009054906101000a900460ff1660ff1690506042600260009054906101000a900473ffffffffffffffffffffffffffffffffffffffff1673ffffffffffffffffffffffffffffffffffffffff1663ce28613f600060636040518363ffffffff1660e01b8152600401612b049291906141c7565b6020604051808303816000875af1158015612b23573d6000803e3d6000fd5b505050506040513d601f19601f82011682018060405250810190612b479190613c7c565b60ff16108015612b575750600081145b15612cc957604051806060016040528060ff8016815260200160ff80168152602001600480811115612b8c57612b8b6133e3565b5b8152508660040160008860050160009054906101000a900460ff1660ff16815260200190815260200160002060008201518160000160006101000a81548160ff021916908360ff16021790555060208201518160000160016101000a81548160ff021916908360ff16021790555060408201518160000160026101000a81548160ff02191690836004811115612c2557612c246133e3565b5b021790555090505085600501600081819054906101000a900460ff1680929190612c4e90613afc565b91906101000a81548160ff021916908360ff1602179055505060018660050160009054906101000a900460ff16612c859190613ca9565b60ff1686600301600087815260200190815260200160002060008681526020019081526020016000206001018460048110612cc357612cc261396c565b5b01819055505b50505b8080612cd7906139ca565b91505061294e565b505b8080612cec906139ca565b915050612900565b508080612d00906139ca565b9150506128f4565b5050565b600033905090565b6040518060c00160405280600060ff168152602001600060ff168152602001612d3b612ed4565b81526020016000151581526020016000151581526020016000151581525090565b6040518060600160405280600060ff168152602001600060ff16815260200160006004811115612d8f57612d8e6133e3565b5b81525090565b828054612da1906144ed565b90600052602060002090601f016020900481019282612dc35760008555612e0a565b82601f10612ddc57805160ff1916838001178555612e0a565b82800160010185558215612e0a579182015b82811115612e09578251825591602001919060010190612dee565b5b509050612e179190612ef6565b5090565b8260048101928215612e47579182015b82811115612e46578254825591600101919060010190612e2b565b5b509050612e549190612ef6565b5090565b6040518061012001604052806009905b612e70612f13565b815260200190600190039081612e685790505090565b604051806103c00160405280601e905b612e9e612eb4565b815260200190600190039081612e965790505090565b6040518060400160405280600060ff168152602001600060ff1681525090565b6040518060800160405280600490602082028036833780820191505090505090565b5b80821115612f0f576000816000905550600101612ef7565b5090565b604051806101200160405280600990602082028036833780820191505090505090565b6000604051905090565b600080fd5b600080fd5b6000819050919050565b612f5d81612f4a565b8114612f6857600080fd5b50565b600081359050612f7a81612f54565b92915050565b600060208284031215612f9657612f95612f40565b5b6000612fa484828501612f6b565b91505092915050565b600081519050919050565b600082825260208201905092915050565b6000819050602082019050919050565b600081519050919050565b600082825260208201905092915050565b6000819050602082019050919050565b600060ff82169050919050565b61301b81613005565b82525050565b600060049050919050565b600081905092915050565b6000819050919050565b61304a81612f4a565b82525050565b600061305c8383613041565b60208301905092915050565b6000602082019050919050565b61307e81613021565b613088818461302c565b925061309382613037565b8060005b838110156130c45781516130ab8782613050565b96506130b683613068565b925050600181019050613097565b505050505050565b60008115159050919050565b6130e1816130cc565b82525050565b610120820160008201516130fe6000850182613012565b5060208201516131116020850182613012565b5060408201516131246040850182613075565b50606082015161313760c08501826130d8565b50608082015161314a60e08501826130d8565b5060a082015161315e6101008501826130d8565b50505050565b600061317083836130e7565b6101208301905092915050565b6000602082019050919050565b600061319582612fd9565b61319f8185612fe4565b93506131aa83612ff5565b8060005b838110156131db5781516131c28882613164565b97506131cd8361317d565b9250506001810190506131ae565b5085935050505092915050565b60006131f4838361318a565b905092915050565b6000602082019050919050565b600061321482612fad565b61321e8185612fb8565b93508360208202850161323085612fc9565b8060005b8581101561326c578484038952815161324d85826131e8565b9450613258836131fc565b925060208a01995050600181019050613234565b50829750879550505050505092915050565b600060208201905081810360008301526132988184613209565b905092915050565b6000806000606084860312156132b9576132b8612f40565b5b60006132c786828701612f6b565b93505060206132d886828701612f6b565b92505060406132e986828701612f6b565b9150509250925092565b6132fc816130cc565b82525050565b600060208201905061331760008301846132f3565b92915050565b600073ffffffffffffffffffffffffffffffffffffffff82169050919050565b6000819050919050565b600061336261335d6133588461331d565b61333d565b61331d565b9050919050565b600061337482613347565b9050919050565b600061338682613369565b9050919050565b6133968161337b565b82525050565b60006020820190506133b1600083018461338d565b92915050565b600081519050919050565b600082825260208201905092915050565b6000819050602082019050919050565b7f4e487b7100000000000000000000000000000000000000000000000000000000600052602160045260246000fd5b60058110613423576134226133e3565b5b50565b600081905061343482613412565b919050565b600061344482613426565b9050919050565b61345481613439565b82525050565b6060820160008201516134706000850182613012565b5060208201516134836020850182613012565b506040820151613496604085018261344b565b50505050565b60006134a8838361345a565b60608301905092915050565b6000602082019050919050565b60006134cc826133b7565b6134d681856133c2565b93506134e1836133d3565b8060005b838110156135125781516134f9888261349c565b9750613504836134b4565b9250506001810190506134e5565b5085935050505092915050565b6000602082019050818103600083015261353981846134c1565b905092915050565b6000806000806080858703121561355b5761355a612f40565b5b600061356987828801612f6b565b945050602061357a87828801612f6b565b935050604061358b87828801612f6b565b925050606061359c87828801612f6b565b91505092959194509250565b6060820160008201516135be6000850182613012565b5060208201516135d16020850182613012565b5060408201516135e4604085018261344b565b50505050565b60006060820190506135ff60008301846135a8565b92915050565b61360e81613005565b82525050565b60408201600082015161362a6000850182613012565b50602082015161363d6020850182613012565b50505050565b60006080820190506136586000830186613605565b6136656020830185613605565b6136726040830184613614565b949350505050565b60006136858261331d565b9050919050565b6136958161367a565b81146136a057600080fd5b50565b6000813590506136b28161368c565b92915050565b6000806000606084860312156136d1576136d0612f40565b5b60006136df868287016136a3565b93505060206136f0868287016136a3565b9250506040613701868287016136a3565b9150509250925092565b6137148161367a565b82525050565b600060208201905061372f600083018461370b565b92915050565b6005811061374257600080fd5b50565b60008135905061375481613735565b92915050565b600080600080600060a0868803121561377657613775612f40565b5b600061378488828901612f6b565b955050602061379588828901612f6b565b94505060406137a688828901612f6b565b93505060606137b788828901612f6b565b92505060806137c888828901613745565b9150509295509295909350565b60006137e082613369565b9050919050565b6137f0816137d5565b82525050565b600060208201905061380b60008301846137e7565b92915050565b61381a81612f4a565b82525050565b60006020820190506138356000830184613811565b92915050565b60006020828403121561385157613850612f40565b5b600061385f848285016136a3565b91505092915050565b600061387382613369565b9050919050565b61388381613868565b82525050565b600060208201905061389e600083018461387a565b92915050565b610120820160008201516138bb6000850182613012565b5060208201516138ce6020850182613012565b5060408201516138e16040850182613075565b5060608201516138f460c08501826130d8565b50608082015161390760e08501826130d8565b5060a082015161391b6101008501826130d8565b50505050565b60006101208201905061393760008301846138a4565b92915050565b7f4e487b7100000000000000000000000000000000000000000000000000000000600052604160045260246000fd5b7f4e487b7100000000000000000000000000000000000000000000000000000000600052603260045260246000fd5b7f4e487b7100000000000000000000000000000000000000000000000000000000600052601160045260246000fd5b60006139d582612f4a565b91507fffffffffffffffffffffffffffffffffffffffffffffffffffffffffffffffff821415613a0857613a0761399b565b5b600182019050919050565b600082825260208201905092915050565b7f4e6f742067616d6520636f6e7472616374000000000000000000000000000000600082015250565b6000613a5a601183613a13565b9150613a6582613a24565b602082019050919050565b60006020820190508181036000830152613a8981613a4d565b9050919050565b7f4f6e6c792067616d6520636f6e74726163742063616e20757365000000000000600082015250565b6000613ac6601a83613a13565b9150613ad182613a90565b602082019050919050565b60006020820190508181036000830152613af581613ab9565b9050919050565b6000613b0782613005565b915060ff821415613b1b57613b1a61399b565b5b600182019050919050565b6000613b3182612f4a565b9150613b3c83612f4a565b925082821015613b4f57613b4e61399b565b5b828203905092915050565b7f4f776e61626c653a206e6577206f776e657220697320746865207a65726f206160008201527f6464726573730000000000000000000000000000000000000000000000000000602082015250565b6000613bb6602683613a13565b9150613bc182613b5a565b604082019050919050565b60006020820190508181036000830152613be581613ba9565b9050919050565b6000819050919050565b6000613c11613c0c613c0784613bec565b61333d565b613005565b9050919050565b613c2181613bf6565b82525050565b6000604082019050613c3c6000830185613c18565b613c496020830184613605565b9392505050565b613c5981613005565b8114613c6457600080fd5b50565b600081519050613c7681613c50565b92915050565b600060208284031215613c9257613c91612f40565b5b6000613ca084828501613c67565b91505092915050565b6000613cb482613005565b9150613cbf83613005565b925082821015613cd257613cd161399b565b5b828203905092915050565b6000613ce882613005565b9150613cf383613005565b92508260ff03821115613d0957613d0861399b565b5b828201905092915050565b7f4f776e61626c653a2063616c6c6572206973206e6f7420746865206f776e6572600082015250565b6000613d4a602083613a13565b9150613d5582613d14565b602082019050919050565b60006020820190508181036000830152613d7981613d3d565b9050919050565b600081519050613d8f81612f54565b92915050565b600060208284031215613dab57613daa612f40565b5b6000613db984828501613d80565b91505092915050565b600080fd5b6000601f19601f8301169050919050565b613de182613dc7565b810181811067ffffffffffffffff82111715613e0057613dff61393d565b5b80604052505050565b6000613e13612f36565b9050613e1f8282613dd8565b919050565b600080fd5b600080fd5b600080fd5b600067ffffffffffffffff821115613e4e57613e4d61393d565b5b613e5782613dc7565b9050602081019050919050565b60005b83811015613e82578082015181840152602081019050613e67565b83811115613e91576000848401525b50505050565b6000613eaa613ea584613e33565b613e09565b905082815260208101848484011115613ec657613ec5613e2e565b5b613ed1848285613e64565b509392505050565b600082601f830112613eee57613eed613e29565b5b8151613efe848260208601613e97565b91505092915050565b60058110613f1457600080fd5b50565b600081519050613f2681613f07565b92915050565b613f35816130cc565b8114613f4057600080fd5b50565b600081519050613f5281613f2c565b92915050565b600060e08284031215613f6e57613f6d613dc2565b5b613f7860e0613e09565b9050600082015167ffffffffffffffff811115613f9857613f97613e24565b5b613fa484828501613ed9565b6000830152506020613fb884828501613f17565b6020830152506040613fcc84828501613d80565b6040830152506060613fe084828501613c67565b6060830152506080613ff484828501613c67565b60808301525060a061400884828501613f43565b60a08301525060c061401c84828501613f43565b60c08301525092915050565b60006020828403121561403e5761403d612f40565b5b600082015167ffffffffffffffff81111561405c5761405b612f45565b5b61406884828501613f58565b91505092915050565b7f4e487b7100000000000000000000000000000000000000000000000000000000600052601260045260246000fd5b60006140ab82612f4a565b91506140b683612f4a565b9250826140c6576140c5614071565b5b828204905092915050565b60006140dc82612f4a565b91506140e783612f4a565b9250827fffffffffffffffffffffffffffffffffffffffffffffffffffffffffffffffff0382111561411c5761411b61399b565b5b828201905092915050565b600061413282612f4a565b915060008214156141465761414561399b565b5b600182039050919050565b6000819050919050565b600061417661417161416c84614151565b61333d565b613005565b9050919050565b6141868161415b565b82525050565b6000819050919050565b60006141b16141ac6141a78461418c565b61333d565b613005565b9050919050565b6141c181614196565b82525050565b60006040820190506141dc600083018561417d565b6141e960208301846141b8565b9392505050565b6000819050919050565b614203816141f0565b82525050565b600060208201905061421e60008301846141fa565b92915050565b61422d816141f0565b811461423857600080fd5b50565b60008151905061424a81614224565b92915050565b60006020828403121561426657614265612f40565b5b60006142748482850161423b565b91505092915050565b6000614288826141f0565b9150614293836141f0565b9250817f7fffffffffffffffffffffffffffffffffffffffffffffffffffffffffffffff038313600083121516156142ce576142cd61399b565b5b817f80000000000000000000000000000000000000000000000000000000000000000383126000831216156143065761430561399b565b5b828201905092915050565b60006080820190506143266000830185613614565b6143336040830184613614565b9392505050565b600060408201905061434f600083018561417d565b61435c6020830184613605565b9392505050565b600061436e826141f0565b91507f7fffffffffffffffffffffffffffffffffffffffffffffffffffffffffffffff8214156143a1576143a061399b565b5b600182019050919050565b7f426164206d617067656e00000000000000000000000000000000000000000000600082015250565b60006143e2600a83613a13565b91506143ed826143ac565b602082019050919050565b60006020820190508181036000830152614411816143d5565b9050919050565b600060608201905061442d6000830185613811565b61443a6020830184613614565b9392505050565b60006040828403121561445757614456613dc2565b5b6144616040613e09565b9050600061447184828501613c67565b600083015250602061448584828501613c67565b60208301525092915050565b6000604082840312156144a7576144a6612f40565b5b60006144b584828501614441565b91505092915050565b7f4e487b7100000000000000000000000000000000000000000000000000000000600052602260045260246000fd5b6000600282049050600182168061450557607f821691505b60208210811415614519576145186144be565b5b5091905056fea264697066735822122060b54cf11b464cc8534e53ee522a76b889dc0ef5e70731fbcb5c0949f0c1cdff64736f6c634300080c0033",
  "devdoc": {
    "kind": "dev",
    "methods": {
      "owner()": {
        "details": "Returns the address of the current owner."
      },
      "renounceOwnership()": {
        "details": "Leaves the contract without owner. It will not be possible to call `onlyOwner` functions anymore. Can only be called by the current owner. NOTE: Renouncing ownership will leave the contract without an owner, thereby removing any functionality that is only available to the owner."
      },
      "transferOwnership(address)": {
        "details": "Transfers ownership of the contract to a new account (`newOwner`). Can only be called by the current owner."
      }
    },
    "version": 1
  },
  "userdoc": {
    "kind": "user",
    "methods": {},
    "version": 1
  },
  "storageLayout": {
    "storage": [
      {
        "astId": 7,
        "contract": "contracts/BCMaps.sol:Maps",
        "label": "_owner",
        "offset": 0,
        "slot": "0",
        "type": "t_address"
      },
      {
        "astId": 227,
        "contract": "contracts/BCMaps.sol:Maps",
        "label": "game",
        "offset": 0,
        "slot": "1",
        "type": "t_contract(GameInterface)164"
      },
      {
        "astId": 230,
        "contract": "contracts/BCMaps.sol:Maps",
        "label": "utils",
        "offset": 0,
        "slot": "2",
        "type": "t_contract(UtilsInterface)222"
      },
      {
        "astId": 233,
        "contract": "contracts/BCMaps.sol:Maps",
        "label": "roomTiles",
        "offset": 0,
        "slot": "3",
        "type": "t_contract(RoomTileInterface)178"
      },
      {
        "astId": 267,
        "contract": "contracts/BCMaps.sol:Maps",
        "label": "gameTiles",
        "offset": 0,
        "slot": "4",
        "type": "t_array(t_struct(GameTile)1672_storage)dyn_storage"
      },
      {
        "astId": 271,
        "contract": "contracts/BCMaps.sol:Maps",
        "label": "maps",
        "offset": 0,
        "slot": "5",
        "type": "t_array(t_struct(Map)1709_storage)dyn_storage"
      }
    ],
    "types": {
      "t_address": {
        "encoding": "inplace",
        "label": "address",
        "numberOfBytes": "20"
      },
      "t_array(t_struct(GameTile)1672_storage)dyn_storage": {
        "base": "t_struct(GameTile)1672_storage",
        "encoding": "dynamic_array",
        "label": "struct BCTypes.GameTile[]",
        "numberOfBytes": "32"
      },
      "t_array(t_struct(Map)1709_storage)dyn_storage": {
        "base": "t_struct(Map)1709_storage",
        "encoding": "dynamic_array",
        "label": "struct BCTypes.Map[]",
        "numberOfBytes": "32"
      },
      "t_array(t_uint256)4_storage": {
        "base": "t_uint256",
        "encoding": "inplace",
        "label": "uint256[4]",
        "numberOfBytes": "128"
      },
      "t_bool": {
        "encoding": "inplace",
        "label": "bool",
        "numberOfBytes": "1"
      },
      "t_contract(GameInterface)164": {
        "encoding": "inplace",
        "label": "contract GameInterface",
        "numberOfBytes": "20"
      },
      "t_contract(RoomTileInterface)178": {
        "encoding": "inplace",
        "label": "contract RoomTileInterface",
        "numberOfBytes": "20"
      },
      "t_contract(UtilsInterface)222": {
        "encoding": "inplace",
        "label": "contract UtilsInterface",
        "numberOfBytes": "20"
      },
      "t_enum(BCEventType)1742": {
        "encoding": "inplace",
        "label": "enum BCTypes.BCEventType",
        "numberOfBytes": "1"
      },
      "t_enum(DoorStatus)1597": {
        "encoding": "inplace",
        "label": "enum BCTypes.DoorStatus",
        "numberOfBytes": "1"
      },
      "t_mapping(t_uint256,t_bool)": {
        "encoding": "mapping",
        "key": "t_uint256",
        "label": "mapping(uint256 => bool)",
        "numberOfBytes": "32",
        "value": "t_bool"
      },
      "t_mapping(t_uint256,t_mapping(t_uint256,t_struct(GameTile)1672_storage))": {
        "encoding": "mapping",
        "key": "t_uint256",
        "label": "mapping(uint256 => mapping(uint256 => struct BCTypes.GameTile))",
        "numberOfBytes": "32",
        "value": "t_mapping(t_uint256,t_struct(GameTile)1672_storage)"
      },
      "t_mapping(t_uint256,t_struct(Door)1680_storage)": {
        "encoding": "mapping",
        "key": "t_uint256",
        "label": "mapping(uint256 => struct BCTypes.Door)",
        "numberOfBytes": "32",
        "value": "t_struct(Door)1680_storage"
      },
      "t_mapping(t_uint256,t_struct(GameTile)1672_storage)": {
        "encoding": "mapping",
        "key": "t_uint256",
        "label": "mapping(uint256 => struct BCTypes.GameTile)",
        "numberOfBytes": "32",
        "value": "t_struct(GameTile)1672_storage"
      },
      "t_mapping(t_uint256,t_struct(RoomTile)1758_storage)": {
        "encoding": "mapping",
        "key": "t_uint256",
        "label": "mapping(uint256 => struct BCTypes.RoomTile)",
        "numberOfBytes": "32",
        "value": "t_struct(RoomTile)1758_storage"
      },
      "t_string_storage": {
        "encoding": "bytes",
        "label": "string",
        "numberOfBytes": "32"
      },
      "t_struct(Door)1680_storage": {
        "encoding": "inplace",
        "label": "struct BCTypes.Door",
        "members": [
          {
            "astId": 1674,
            "contract": "contracts/BCMaps.sol:Maps",
            "label": "vsBreach",
            "offset": 0,
            "slot": "0",
            "type": "t_uint8"
          },
          {
            "astId": 1676,
            "contract": "contracts/BCMaps.sol:Maps",
            "label": "vsHack",
            "offset": 1,
            "slot": "0",
            "type": "t_uint8"
          },
          {
            "astId": 1679,
            "contract": "contracts/BCMaps.sol:Maps",
            "label": "status",
            "offset": 2,
            "slot": "0",
            "type": "t_enum(DoorStatus)1597"
          }
        ],
        "numberOfBytes": "32"
      },
      "t_struct(GameTile)1672_storage": {
        "encoding": "inplace",
        "label": "struct BCTypes.GameTile",
        "members": [
          {
            "astId": 1659,
            "contract": "contracts/BCMaps.sol:Maps",
            "label": "roomId",
            "offset": 0,
            "slot": "0",
            "type": "t_uint8"
          },
          {
            "astId": 1661,
            "contract": "contracts/BCMaps.sol:Maps",
            "label": "parentId",
            "offset": 1,
            "slot": "0",
            "type": "t_uint8"
          },
          {
            "astId": 1665,
            "contract": "contracts/BCMaps.sol:Maps",
            "label": "doors",
            "offset": 0,
            "slot": "1",
            "type": "t_array(t_uint256)4_storage"
          },
          {
            "astId": 1667,
            "contract": "contracts/BCMaps.sol:Maps",
            "label": "explored",
            "offset": 0,
            "slot": "5",
            "type": "t_bool"
          },
          {
            "astId": 1669,
            "contract": "contracts/BCMaps.sol:Maps",
            "label": "looted",
            "offset": 1,
            "slot": "5",
            "type": "t_bool"
          },
          {
            "astId": 1671,
            "contract": "contracts/BCMaps.sol:Maps",
            "label": "hasVent",
            "offset": 2,
            "slot": "5",
            "type": "t_bool"
          }
        ],
        "numberOfBytes": "192"
      },
      "t_struct(Map)1709_storage": {
        "encoding": "inplace",
        "label": "struct BCTypes.Map",
        "members": [
          {
            "astId": 1685,
            "contract": "contracts/BCMaps.sol:Maps",
            "label": "roomList",
            "offset": 0,
            "slot": "0",
            "type": "t_mapping(t_uint256,t_struct(RoomTile)1758_storage)"
          },
          {
            "astId": 1687,
            "contract": "contracts/BCMaps.sol:Maps",
            "label": "numRooms",
            "offset": 0,
            "slot": "1",
            "type": "t_uint8"
          },
          {
            "astId": 1691,
            "contract": "contracts/BCMaps.sol:Maps",
            "label": "usedRooms",
            "offset": 0,
            "slot": "2",
            "type": "t_mapping(t_uint256,t_bool)"
          },
          {
            "astId": 1698,
            "contract": "contracts/BCMaps.sol:Maps",
            "label": "board",
            "offset": 0,
            "slot": "3",
            "type": "t_mapping(t_uint256,t_mapping(t_uint256,t_struct(GameTile)1672_storage))"
          },
          {
            "astId": 1703,
            "contract": "contracts/BCMaps.sol:Maps",
            "label": "doors",
            "offset": 0,
            "slot": "4",
            "type": "t_mapping(t_uint256,t_struct(Door)1680_storage)"
          },
          {
            "astId": 1705,
            "contract": "contracts/BCMaps.sol:Maps",
            "label": "numDoors",
            "offset": 0,
            "slot": "5",
            "type": "t_uint8"
          },
          {
            "astId": 1708,
            "contract": "contracts/BCMaps.sol:Maps",
            "label": "startPosition",
            "offset": 0,
            "slot": "6",
            "type": "t_struct(Position)1657_storage"
          }
        ],
        "numberOfBytes": "224"
      },
      "t_struct(Position)1657_storage": {
        "encoding": "inplace",
        "label": "struct BCTypes.Position",
        "members": [
          {
            "astId": 1654,
            "contract": "contracts/BCMaps.sol:Maps",
            "label": "row",
            "offset": 0,
            "slot": "0",
            "type": "t_uint8"
          },
          {
            "astId": 1656,
            "contract": "contracts/BCMaps.sol:Maps",
            "label": "col",
            "offset": 1,
            "slot": "0",
            "type": "t_uint8"
          }
        ],
        "numberOfBytes": "32"
      },
      "t_struct(RoomTile)1758_storage": {
        "encoding": "inplace",
        "label": "struct BCTypes.RoomTile",
        "members": [
          {
            "astId": 1744,
            "contract": "contracts/BCMaps.sol:Maps",
            "label": "name",
            "offset": 0,
            "slot": "0",
            "type": "t_string_storage"
          },
          {
            "astId": 1747,
            "contract": "contracts/BCMaps.sol:Maps",
            "label": "eventType",
            "offset": 0,
            "slot": "1",
            "type": "t_enum(BCEventType)1742"
          },
          {
            "astId": 1749,
            "contract": "contracts/BCMaps.sol:Maps",
            "label": "eventNum",
            "offset": 0,
            "slot": "2",
            "type": "t_uint256"
          },
          {
            "astId": 1751,
            "contract": "contracts/BCMaps.sol:Maps",
            "label": "numItems",
            "offset": 0,
            "slot": "3",
            "type": "t_uint8"
          },
          {
            "astId": 1753,
            "contract": "contracts/BCMaps.sol:Maps",
            "label": "numData",
            "offset": 1,
            "slot": "3",
            "type": "t_uint8"
          },
          {
            "astId": 1755,
            "contract": "contracts/BCMaps.sol:Maps",
            "label": "hasHazard",
            "offset": 2,
            "slot": "3",
            "type": "t_bool"
          },
          {
            "astId": 1757,
            "contract": "contracts/BCMaps.sol:Maps",
            "label": "sigDetected",
            "offset": 3,
            "slot": "3",
            "type": "t_bool"
          }
        ],
        "numberOfBytes": "128"
      },
      "t_uint256": {
        "encoding": "inplace",
        "label": "uint256",
        "numberOfBytes": "32"
      },
      "t_uint8": {
        "encoding": "inplace",
        "label": "uint8",
        "numberOfBytes": "1"
      }
    }
  }
}