{
  "address": "0x865f3569Ff394055aAe06aFd5bb10f2033B588c3",
  "abi": [
    {
      "anonymous": false,
      "inputs": [
        {
          "indexed": true,
          "internalType": "address",
          "name": "previousOwner",
          "type": "address"
        },
        {
          "indexed": true,
          "internalType": "address",
          "name": "newOwner",
          "type": "address"
        }
      ],
      "name": "OwnershipTransferred",
      "type": "event"
    },
    {
      "inputs": [],
      "name": "actionsAddress",
      "outputs": [
        {
          "internalType": "address",
          "name": "",
          "type": "address"
        }
      ],
      "stateMutability": "view",
      "type": "function"
    },
    {
      "inputs": [],
      "name": "createMap",
      "outputs": [
        {
          "internalType": "uint256",
          "name": "",
          "type": "uint256"
        }
      ],
      "stateMutability": "nonpayable",
      "type": "function"
    },
    {
      "inputs": [
        {
          "internalType": "uint256",
          "name": "_roomId",
          "type": "uint256"
        }
      ],
      "name": "debugBuildMapOneRoom",
      "outputs": [
        {
          "internalType": "uint256",
          "name": "",
          "type": "uint256"
        }
      ],
      "stateMutability": "nonpayable",
      "type": "function"
    },
    {
      "inputs": [
        {
          "internalType": "uint256",
          "name": "_mapId",
          "type": "uint256"
        },
        {
          "internalType": "uint256",
          "name": "_row",
          "type": "uint256"
        },
        {
          "internalType": "uint256",
          "name": "_col",
          "type": "uint256"
        },
        {
          "internalType": "uint256",
          "name": "_roomId",
          "type": "uint256"
        }
      ],
      "name": "debugForceRoomId",
      "outputs": [],
      "stateMutability": "nonpayable",
      "type": "function"
    },
    {
      "inputs": [
        {
          "internalType": "uint256",
          "name": "_mapId",
          "type": "uint256"
        },
        {
          "internalType": "uint256",
          "name": "_row",
          "type": "uint256"
        },
        {
          "internalType": "uint256",
          "name": "_col",
          "type": "uint256"
        }
      ],
      "name": "discoverRoom",
      "outputs": [
        {
          "internalType": "uint256",
          "name": "",
          "type": "uint256"
        }
      ],
      "stateMutability": "nonpayable",
      "type": "function"
    },
    {
      "inputs": [
        {
          "internalType": "uint256",
          "name": "_mapId",
          "type": "uint256"
        }
      ],
      "name": "extGetBoard",
      "outputs": [
        {
          "components": [
            {
              "internalType": "uint8",
              "name": "roomId",
              "type": "uint8"
            },
            {
              "internalType": "uint8",
              "name": "parentId",
              "type": "uint8"
            },
            {
              "internalType": "uint256[4]",
              "name": "doors",
              "type": "uint256[4]"
            },
            {
              "internalType": "bool",
              "name": "explored",
              "type": "bool"
            },
            {
              "internalType": "bool",
              "name": "looted",
              "type": "bool"
            },
            {
              "internalType": "bool",
              "name": "hasVent",
              "type": "bool"
            },
            {
              "internalType": "bool",
              "name": "hasHazard",
              "type": "bool"
            }
          ],
          "internalType": "struct BCTypes.GameTile[][]",
          "name": "",
          "type": "tuple[][]"
        }
      ],
      "stateMutability": "view",
      "type": "function"
    },
    {
      "inputs": [
        {
          "internalType": "uint256",
          "name": "_mapId",
          "type": "uint256"
        }
      ],
      "name": "extGetDoors",
      "outputs": [
        {
          "components": [
            {
              "internalType": "uint8",
              "name": "vsBreach",
              "type": "uint8"
            },
            {
              "internalType": "uint8",
              "name": "vsHack",
              "type": "uint8"
            },
            {
              "internalType": "enum BCTypes.DoorStatus",
              "name": "status",
              "type": "uint8"
            }
          ],
          "internalType": "struct BCTypes.Door[]",
          "name": "",
          "type": "tuple[]"
        }
      ],
      "stateMutability": "view",
      "type": "function"
    },
    {
      "inputs": [
        {
          "internalType": "uint256",
          "name": "_mapId",
          "type": "uint256"
        },
        {
          "internalType": "uint256",
          "name": "_row",
          "type": "uint256"
        },
        {
          "internalType": "uint256",
          "name": "_col",
          "type": "uint256"
        }
      ],
      "name": "extGetGameTile",
      "outputs": [
        {
          "components": [
            {
              "internalType": "uint8",
              "name": "roomId",
              "type": "uint8"
            },
            {
              "internalType": "uint8",
              "name": "parentId",
              "type": "uint8"
            },
            {
              "internalType": "uint256[4]",
              "name": "doors",
              "type": "uint256[4]"
            },
            {
              "internalType": "bool",
              "name": "explored",
              "type": "bool"
            },
            {
              "internalType": "bool",
              "name": "looted",
              "type": "bool"
            },
            {
              "internalType": "bool",
              "name": "hasVent",
              "type": "bool"
            },
            {
              "internalType": "bool",
              "name": "hasHazard",
              "type": "bool"
            }
          ],
          "internalType": "struct BCTypes.GameTile",
          "name": "",
          "type": "tuple"
        }
      ],
      "stateMutability": "view",
      "type": "function"
    },
    {
      "inputs": [
        {
          "internalType": "uint256",
          "name": "_mapId",
          "type": "uint256"
        },
        {
          "internalType": "uint256",
          "name": "_row",
          "type": "uint256"
        },
        {
          "internalType": "uint256",
          "name": "_col",
          "type": "uint256"
        }
      ],
      "name": "extGetRoom",
      "outputs": [
        {
          "components": [
            {
              "internalType": "enum BCTypes.BCEventType",
              "name": "eventType",
              "type": "uint8"
            },
            {
              "internalType": "uint256",
              "name": "eventNum",
              "type": "uint256"
            },
            {
              "internalType": "uint8",
              "name": "numItems",
              "type": "uint8"
            },
            {
              "internalType": "uint8",
              "name": "numData",
              "type": "uint8"
            },
            {
              "internalType": "bool",
              "name": "sigDetected",
              "type": "bool"
            }
          ],
          "internalType": "struct BCTypes.RoomTile",
          "name": "",
          "type": "tuple"
        }
      ],
      "stateMutability": "view",
      "type": "function"
    },
    {
      "inputs": [
        {
          "internalType": "uint256",
          "name": "_mapId",
          "type": "uint256"
        },
        {
          "internalType": "uint256",
          "name": "_roomId",
          "type": "uint256"
        }
      ],
      "name": "extGetRoomById",
      "outputs": [
        {
          "components": [
            {
              "internalType": "enum BCTypes.BCEventType",
              "name": "eventType",
              "type": "uint8"
            },
            {
              "internalType": "uint256",
              "name": "eventNum",
              "type": "uint256"
            },
            {
              "internalType": "uint8",
              "name": "numItems",
              "type": "uint8"
            },
            {
              "internalType": "uint8",
              "name": "numData",
              "type": "uint8"
            },
            {
              "internalType": "bool",
              "name": "sigDetected",
              "type": "bool"
            }
          ],
          "internalType": "struct BCTypes.RoomTile",
          "name": "",
          "type": "tuple"
        }
      ],
      "stateMutability": "view",
      "type": "function"
    },
    {
      "inputs": [
        {
          "internalType": "uint256",
          "name": "_mapId",
          "type": "uint256"
        }
      ],
      "name": "extGetRoomList",
      "outputs": [
        {
          "components": [
            {
              "internalType": "enum BCTypes.BCEventType",
              "name": "eventType",
              "type": "uint8"
            },
            {
              "internalType": "uint256",
              "name": "eventNum",
              "type": "uint256"
            },
            {
              "internalType": "uint8",
              "name": "numItems",
              "type": "uint8"
            },
            {
              "internalType": "uint8",
              "name": "numData",
              "type": "uint8"
            },
            {
              "internalType": "bool",
              "name": "sigDetected",
              "type": "bool"
            }
          ],
          "internalType": "struct BCTypes.RoomTile[]",
          "name": "",
          "type": "tuple[]"
        }
      ],
      "stateMutability": "view",
      "type": "function"
    },
    {
      "inputs": [
        {
          "internalType": "uint256",
          "name": "_mapId",
          "type": "uint256"
        },
        {
          "internalType": "uint256",
          "name": "_row",
          "type": "uint256"
        },
        {
          "internalType": "uint256",
          "name": "_col",
          "type": "uint256"
        },
        {
          "internalType": "bool",
          "name": "_hasHazard",
          "type": "bool"
        }
      ],
      "name": "extSetHazardStatus",
      "outputs": [],
      "stateMutability": "nonpayable",
      "type": "function"
    },
    {
      "inputs": [
        {
          "internalType": "uint256",
          "name": "_mapId",
          "type": "uint256"
        },
        {
          "internalType": "uint256",
          "name": "_distance",
          "type": "uint256"
        }
      ],
      "name": "extSpreadHazards",
      "outputs": [],
      "stateMutability": "nonpayable",
      "type": "function"
    },
    {
      "inputs": [],
      "name": "game",
      "outputs": [
        {
          "internalType": "address",
          "name": "",
          "type": "address"
        }
      ],
      "stateMutability": "view",
      "type": "function"
    },
    {
      "inputs": [
        {
          "internalType": "uint256",
          "name": "_mapId",
          "type": "uint256"
        },
        {
          "internalType": "uint256",
          "name": "_row",
          "type": "uint256"
        },
        {
          "internalType": "uint256",
          "name": "_col",
          "type": "uint256"
        },
        {
          "internalType": "uint256",
          "name": "_direction",
          "type": "uint256"
        }
      ],
      "name": "getDoor",
      "outputs": [
        {
          "components": [
            {
              "internalType": "uint8",
              "name": "vsBreach",
              "type": "uint8"
            },
            {
              "internalType": "uint8",
              "name": "vsHack",
              "type": "uint8"
            },
            {
              "internalType": "enum BCTypes.DoorStatus",
              "name": "status",
              "type": "uint8"
            }
          ],
          "internalType": "struct BCTypes.Door",
          "name": "",
          "type": "tuple"
        }
      ],
      "stateMutability": "view",
      "type": "function"
    },
    {
      "inputs": [
        {
          "internalType": "uint256",
          "name": "",
          "type": "uint256"
        }
      ],
      "name": "maps",
      "outputs": [
        {
          "internalType": "uint8",
          "name": "numRooms",
          "type": "uint8"
        },
        {
          "internalType": "uint8",
          "name": "numDoors",
          "type": "uint8"
        },
        {
          "components": [
            {
              "internalType": "uint8",
              "name": "row",
              "type": "uint8"
            },
            {
              "internalType": "uint8",
              "name": "col",
              "type": "uint8"
            }
          ],
          "internalType": "struct BCTypes.Position",
          "name": "startPosition",
          "type": "tuple"
        }
      ],
      "stateMutability": "view",
      "type": "function"
    },
    {
      "inputs": [],
      "name": "owner",
      "outputs": [
        {
          "internalType": "address",
          "name": "",
          "type": "address"
        }
      ],
      "stateMutability": "view",
      "type": "function"
    },
    {
      "inputs": [],
      "name": "playersAddress",
      "outputs": [
        {
          "internalType": "address",
          "name": "",
          "type": "address"
        }
      ],
      "stateMutability": "view",
      "type": "function"
    },
    {
      "inputs": [],
      "name": "renounceOwnership",
      "outputs": [],
      "stateMutability": "nonpayable",
      "type": "function"
    },
    {
      "inputs": [
        {
          "internalType": "uint256",
          "name": "_mapId",
          "type": "uint256"
        }
      ],
      "name": "resetOpenDoors",
      "outputs": [],
      "stateMutability": "nonpayable",
      "type": "function"
    },
    {
      "inputs": [],
      "name": "roomTiles",
      "outputs": [
        {
          "internalType": "contract RoomTileInterface",
          "name": "",
          "type": "address"
        }
      ],
      "stateMutability": "view",
      "type": "function"
    },
    {
      "inputs": [
        {
          "internalType": "address",
          "name": "_gameAddress",
          "type": "address"
        },
        {
          "internalType": "address",
          "name": "_utilsAddress",
          "type": "address"
        },
        {
          "internalType": "address",
          "name": "_roomTilesAddress",
          "type": "address"
        },
        {
          "internalType": "address",
          "name": "_actionsAddress",
          "type": "address"
        },
        {
          "internalType": "address",
          "name": "_playersAddress",
          "type": "address"
        }
      ],
      "name": "setContractAddresses",
      "outputs": [],
      "stateMutability": "nonpayable",
      "type": "function"
    },
    {
      "inputs": [
        {
          "internalType": "uint256",
          "name": "_mapId",
          "type": "uint256"
        },
        {
          "internalType": "uint256",
          "name": "_row",
          "type": "uint256"
        },
        {
          "internalType": "uint256",
          "name": "_col",
          "type": "uint256"
        },
        {
          "internalType": "uint256",
          "name": "_direction",
          "type": "uint256"
        },
        {
          "internalType": "enum BCTypes.DoorStatus",
          "name": "_status",
          "type": "uint8"
        },
        {
          "internalType": "uint256",
          "name": "_strength",
          "type": "uint256"
        }
      ],
      "name": "setDoorFromPos",
      "outputs": [],
      "stateMutability": "nonpayable",
      "type": "function"
    },
    {
      "inputs": [
        {
          "internalType": "uint256",
          "name": "_mapId",
          "type": "uint256"
        },
        {
          "internalType": "uint256",
          "name": "_row",
          "type": "uint256"
        },
        {
          "internalType": "uint256",
          "name": "_col",
          "type": "uint256"
        }
      ],
      "name": "setLooted",
      "outputs": [],
      "stateMutability": "nonpayable",
      "type": "function"
    },
    {
      "inputs": [
        {
          "internalType": "address",
          "name": "newOwner",
          "type": "address"
        }
      ],
      "name": "transferOwnership",
      "outputs": [],
      "stateMutability": "nonpayable",
      "type": "function"
    },
    {
      "inputs": [],
      "name": "utils",
      "outputs": [
        {
          "internalType": "contract UtilsInterface",
          "name": "",
          "type": "address"
        }
      ],
      "stateMutability": "view",
      "type": "function"
    }
  ],
  "transactionHash": "0x0dd9cc3e255c0a7b7a673c07d1e4de2967ccaeb62d8424d1468bfbee3c708e19",
  "args": [],
  "numDeployments": 1,
  "solcInputHash": "d7081651a177462591df0e240bdba749",
  "bytecode": "0x60806040523480156200001157600080fd5b5062000032620000266200003860201b60201c565b6200004060201b60201c565b62000104565b600033905090565b60008060009054906101000a900473ffffffffffffffffffffffffffffffffffffffff169050816000806101000a81548173ffffffffffffffffffffffffffffffffffffffff021916908373ffffffffffffffffffffffffffffffffffffffff1602179055508173ffffffffffffffffffffffffffffffffffffffff168173ffffffffffffffffffffffffffffffffffffffff167f8be0079c531659141344cd1fd0a4f28419497f9722a3daafe3b4186f6b6457e060405160405180910390a35050565b615f4280620001146000396000f3fe608060405234801561001057600080fd5b506004361061018e5760003560e01c80637b45c0d4116100de578063c6b41b4511610097578063f2fde38b11610071578063f2fde38b146104ab578063f7157f64146104c7578063f9dfbfcb146104e5578063fe368d7a146105155761018e565b8063c6b41b4514610455578063e847ae1e14610471578063f01fc35a1461048d5761018e565b80637b45c0d41461039357806386e529d0146103b15780638af13fd2146103cd5780638da5cb5b146103fd578063b14ca5751461041b578063c3fe3e28146104375761018e565b806358308aa81161014b57806369568fd51161012557806369568fd5146102f75780636ea1dcd814610327578063715018a61461035757806375990a0e146103615761018e565b806358308aa8146102a157806359215223146102bd5780635a29638d146102d95761018e565b806302861c6c1461019357806303b414e4146101c35780631ef04416146101e1578063471b675914610211578063523814bc146102415780635805828314610271575b600080fd5b6101ad60048036038101906101a8919061488e565b610531565b6040516101ba9190614a06565b60405180910390f35b6101cb610677565b6040516101d89190614a62565b60405180910390f35b6101fb60048036038101906101f69190614a7d565b61069d565b6040516102089190614d49565b60405180910390f35b61022b6004803603810190610226919061488e565b610943565b6040516102389190614d7a565b60405180910390f35b61025b60048036038101906102569190614a7d565b610a79565b6040516102689190614d7a565b60405180910390f35b61028b60048036038101906102869190614d95565b61156e565b6040516102989190614a06565b60405180910390f35b6102bb60048036038101906102b69190614a7d565b611659565b005b6102d760048036038101906102d29190614dfa565b6117df565b005b6102e1611a1c565b6040516102ee9190614ee6565b60405180910390f35b610311600480360381019061030c9190614a7d565b611a42565b60405161031e919061503a565b60405180910390f35b610341600480360381019061033c919061505c565b611bce565b60405161034e9190615105565b60405180910390f35b61035f611d38565b005b61037b60048036038101906103769190614a7d565b611d4c565b60405161038a9392919061515e565b60405180910390f35b61039b611de4565b6040516103a89190614a62565b60405180910390f35b6103cb60048036038101906103c6919061488e565b611e0a565b005b6103e760048036038101906103e29190614a7d565b611f02565b6040516103f491906152ac565b60405180910390f35b6104056120b3565b6040516104129190614a62565b60405180910390f35b6104356004803603810190610430919061505c565b6120dc565b005b61043f61214d565b60405161044c9190614a62565b60405180910390f35b61046f600480360381019061046a9190614d95565b612173565b005b61048b600480360381019061048691906152fa565b61263a565b005b61049561278e565b6040516104a29190614d7a565b60405180910390f35b6104c560048036038101906104c09190615375565b612975565b005b6104cf6129f8565b6040516104dc91906153c3565b60405180910390f35b6104ff60048036038101906104fa919061488e565b612a1e565b60405161050c919061546f565b60405180910390f35b61052f600480360381019061052a91906154b7565b612b6c565b005b61053961465b565b6007848154811061054d5761054c61551e565b5b90600052602060002090600702016000016000600786815481106105745761057361551e565b5b90600052602060002090600702016003016000868152602001908152602001600020600085815260200190815260200160002060000160009054906101000a900460ff1660ff1681526020019081526020016000206040518060a00160405290816000820160009054906101000a900460ff1660048111156105f9576105f86148e1565b5b600481111561060b5761060a6148e1565b5b8152602001600182015481526020016002820160009054906101000a900460ff1660ff1660ff1681526020016002820160019054906101000a900460ff1660ff1660ff1681526020016002820160029054906101000a900460ff16151515158152505090509392505050565b600560009054906101000a900473ffffffffffffffffffffffffffffffffffffffff1681565b60606000600b67ffffffffffffffff8111156106bc576106bb61554d565b5b6040519080825280602002602001820160405280156106ef57816020015b60608152602001906001900390816106da5790505b50905060005b600b81101561078457600b67ffffffffffffffff8111156107195761071861554d565b5b60405190808252806020026020018201604052801561075257816020015b61073f6146a4565b8152602001906001900390816107375790505b508282815181106107665761076561551e565b5b6020026020010181905250808061077c906155ab565b9150506106f5565b5060005b600b8110156109395760005b600b81101561092557600785815481106107b1576107b061551e565b5b9060005260206000209060070201600301600083815260200190815260200160002060008281526020019081526020016000206040518060e00160405290816000820160009054906101000a900460ff1660ff1660ff1681526020016000820160019054906101000a900460ff1660ff1660ff16815260200160018201600480602002604051908101604052809291908260048015610865576020028201915b815481526020019060010190808311610851575b505050505081526020016005820160009054906101000a900460ff161515151581526020016005820160019054906101000a900460ff161515151581526020016005820160029054906101000a900460ff161515151581526020016005820160039054906101000a900460ff1615151515815250508383815181106108ed576108ec61551e565b5b602002602001015182815181106109075761090661551e565b5b6020026020010181905250808061091d906155ab565b915050610794565b508080610931906155ab565b915050610788565b5080915050919050565b6000600160009054906101000a900473ffffffffffffffffffffffffffffffffffffffff1673ffffffffffffffffffffffffffffffffffffffff163373ffffffffffffffffffffffffffffffffffffffff161461099f57600080fd5b6000600785815481106109b5576109b461551e565b5b9060005260206000209060070201600301600085815260200190815260200160002060008481526020019081526020016000209050600160ff168160000160009054906101000a900460ff1660ff1603610a6c57610a3360078681548110610a2057610a1f61551e565b5b9060005260206000209060070201612c64565b8160000160006101000a81548160ff021916908360ff1602179055508060000160009054906101000a900460ff1660ff16915050610a72565b60009150505b9392505050565b6000600160009054906101000a900473ffffffffffffffffffffffffffffffffffffffff1673ffffffffffffffffffffffffffffffffffffffff163373ffffffffffffffffffffffffffffffffffffffff1614610ad557600080fd5b60006007600181600181540180825580915050039060005260206000209060070201905060048160010160006101000a81548160ff021916908360ff160217905550600360009054906101000a900473ffffffffffffffffffffffffffffffffffffffff1673ffffffffffffffffffffffffffffffffffffffff166382753ebe60006040518263ffffffff1660e01b8152600401610b73919061562e565b60a060405180830381865afa158015610b90573d6000803e3d6000fd5b505050506040513d601f19601f82011682018060405250810190610bb491906157b2565b81600001600080815260200190815260200160002060008201518160000160006101000a81548160ff02191690836004811115610bf457610bf36148e1565b5b02179055506020820151816001015560408201518160020160006101000a81548160ff021916908360ff16021790555060608201518160020160016101000a81548160ff021916908360ff16021790555060808201518160020160026101000a81548160ff021916908315150217905550905050600360009054906101000a900473ffffffffffffffffffffffffffffffffffffffff1673ffffffffffffffffffffffffffffffffffffffff166382753ebe60016040518263ffffffff1660e01b8152600401610cc4919061581a565b60a060405180830381865afa158015610ce1573d6000803e3d6000fd5b505050506040513d601f19601f82011682018060405250810190610d0591906157b2565b8160000160006001815260200190815260200160002060008201518160000160006101000a81548160ff02191690836004811115610d4657610d456148e1565b5b02179055506020820151816001015560408201518160020160006101000a81548160ff021916908360ff16021790555060608201518160020160016101000a81548160ff021916908360ff16021790555060808201518160020160026101000a81548160ff021916908315150217905550905050600360009054906101000a900473ffffffffffffffffffffffffffffffffffffffff1673ffffffffffffffffffffffffffffffffffffffff166382753ebe60026040518263ffffffff1660e01b8152600401610e169190615870565b60a060405180830381865afa158015610e33573d6000803e3d6000fd5b505050506040513d601f19601f82011682018060405250810190610e5791906157b2565b8160000160006002815260200190815260200160002060008201518160000160006101000a81548160ff02191690836004811115610e9857610e976148e1565b5b02179055506020820151816001015560408201518160020160006101000a81548160ff021916908360ff16021790555060608201518160020160016101000a81548160ff021916908360ff16021790555060808201518160020160026101000a81548160ff021916908315150217905550905050600360009054906101000a900473ffffffffffffffffffffffffffffffffffffffff1673ffffffffffffffffffffffffffffffffffffffff166382753ebe846040518263ffffffff1660e01b8152600401610f679190614d7a565b60a060405180830381865afa158015610f84573d6000803e3d6000fd5b505050506040513d601f19601f82011682018060405250810190610fa891906157b2565b8160000160006003815260200190815260200160002060008201518160000160006101000a81548160ff02191690836004811115610fe957610fe86148e1565b5b02179055506020820151816001015560408201518160020160006101000a81548160ff021916908360ff16021790555060608201518160020160016101000a81548160ff021916908360ff16021790555060808201518160020160026101000a81548160ff021916908315150217905550905050604051806060016040528060ff8016815260200160ff801681526020016000600481111561108e5761108d6148e1565b5b8152508160040160008360050160009054906101000a900460ff1660ff16815260200190815260200160002060008201518160000160006101000a81548160ff021916908360ff16021790555060208201518160000160016101000a81548160ff021916908360ff16021790555060408201518160000160026101000a81548160ff02191690836004811115611127576111266148e1565b5b021790555090505080600501600081819054906101000a900460ff16809291906111509061588b565b91906101000a81548160ff021916908360ff1602179055505061117281612df2565b60006001600b61118291906158b4565b9050600060016002600b6111969190615917565b6111a09190615948565b90506040518060600160405280600260009054906101000a900473ffffffffffffffffffffffffffffffffffffffff1673ffffffffffffffffffffffffffffffffffffffff1663ce28613f600060036040518363ffffffff1660e01b815260040161120c9291906159ad565b6020604051808303816000875af115801561122b573d6000803e3d6000fd5b505050506040513d601f19601f8201168201806040525081019061124f91906159d6565b60ff168152602001600260009054906101000a900473ffffffffffffffffffffffffffffffffffffffff1673ffffffffffffffffffffffffffffffffffffffff1663ce28613f600060036040518363ffffffff1660e01b81526004016112b69291906159ad565b6020604051808303816000875af11580156112d5573d6000803e3d6000fd5b505050506040513d601f19601f820116820180604052508101906112f991906159d6565b60ff16815260200160036004811115611315576113146148e1565b5b8152508360040160008560050160009054906101000a900460ff1660ff16815260200190815260200160002060008201518160000160006101000a81548160ff021916908360ff16021790555060208201518160000160016101000a81548160ff021916908360ff16021790555060408201518160000160026101000a81548160ff021916908360048111156113ae576113ad6148e1565b5b021790555090505082600501600081819054906101000a900460ff16809291906113d79061588b565b91906101000a81548160ff021916908360ff160217905550506002836003016000848152602001908152602001600020600083815260200190815260200160002060000160006101000a81548160ff021916908360ff160217905550600183600301600060018561144891906158b4565b8152602001908152602001600020600083815260200190815260200160002060000160006101000a81548160ff021916908360ff16021790555060018360050160009054906101000a900460ff166114a09190615a03565b60ff1683600301600084815260200190815260200160002060008381526020019081526020016000206001016000600481106114df576114de61551e565b5b018190555060018360050160009054906101000a900460ff166115029190615a03565b60ff1683600301600060018561151891906158b4565b8152602001908152602001600020600083815260200190815260200160002060010160016004811061154d5761154c61551e565b5b0181905550600160078054905061156491906158b4565b9350505050919050565b61157661465b565b6007838154811061158a5761158961551e565b5b906000526020600020906007020160000160008381526020019081526020016000206040518060a00160405290816000820160009054906101000a900460ff1660048111156115dc576115db6148e1565b5b60048111156115ee576115ed6148e1565b5b8152602001600182015481526020016002820160009054906101000a900460ff1660ff1660ff1681526020016002820160019054906101000a900460ff1660ff1660ff1681526020016002820160029054906101000a900460ff161515151581525050905092915050565b600160009054906101000a900473ffffffffffffffffffffffffffffffffffffffff1673ffffffffffffffffffffffffffffffffffffffff163373ffffffffffffffffffffffffffffffffffffffff16146116b357600080fd5b60005b600782815481106116ca576116c961551e565b5b906000526020600020906007020160050160009054906101000a900460ff1660ff168110156117db5760026004811115611707576117066148e1565b5b6007838154811061171b5761171a61551e565b5b9060005260206000209060070201600401600083815260200190815260200160002060000160029054906101000a900460ff1660048111156117605761175f6148e1565b5b036117c85760016007838154811061177b5761177a61551e565b5b9060005260206000209060070201600401600083815260200190815260200160002060000160026101000a81548160ff021916908360048111156117c2576117c16148e1565b5b02179055505b80806117d3906155ab565b9150506116b6565b5050565b600160009054906101000a900473ffffffffffffffffffffffffffffffffffffffff1673ffffffffffffffffffffffffffffffffffffffff163373ffffffffffffffffffffffffffffffffffffffff1614806118885750600460009054906101000a900473ffffffffffffffffffffffffffffffffffffffff1673ffffffffffffffffffffffffffffffffffffffff163373ffffffffffffffffffffffffffffffffffffffff16145b6118c7576040517f08c379a00000000000000000000000000000000000000000000000000000000081526004016118be90615a95565b60405180910390fd5b6000600787815481106118dd576118dc61551e565b5b90600052602060002090600702016003016000878152602001908152602001600020600086815260200190815260200160002060010160048060200260405190810160405280929190826004801561194a576020028201915b815481526020019060010190808311611936575b505050505090506000600788815481106119675761196661551e565b5b9060005260206000209060070201600401600083876004811061198d5761198c61551e565b5b602002015181526020019081526020016000209050838160000160026101000a81548160ff021916908360048111156119c9576119c86148e1565b5b02179055506000831115611a1257828160000160016101000a81548160ff021916908360ff160217905550828160000160006101000a81548160ff021916908360ff1602179055505b5050505050505050565b600260009054906101000a900473ffffffffffffffffffffffffffffffffffffffff1681565b6060600060078381548110611a5a57611a5961551e565b5b906000526020600020906007020160050160009054906101000a900460ff1660ff1667ffffffffffffffff811115611a9557611a9461554d565b5b604051908082528060200260200182016040528015611ace57816020015b611abb6146f5565b815260200190600190039081611ab35790505b50905060005b8151811015611bc45760078481548110611af157611af061551e565b5b906000526020600020906007020160040160008281526020019081526020016000206040518060600160405290816000820160009054906101000a900460ff1660ff1660ff1681526020016000820160019054906101000a900460ff1660ff1660ff1681526020016000820160029054906101000a900460ff166004811115611b7d57611b7c6148e1565b5b6004811115611b8f57611b8e6148e1565b5b81525050828281518110611ba657611ba561551e565b5b60200260200101819052508080611bbc906155ab565b915050611ad4565b5080915050919050565b611bd66146f5565b600060078681548110611bec57611beb61551e565b5b906000526020600020906007020160030160008681526020019081526020016000206000858152602001908152602001600020600101600480602002604051908101604052809291908260048015611c59576020028201915b815481526020019060010190808311611c45575b5050505050905060078681548110611c7457611c7361551e565b5b90600052602060002090600702016004016000828560048110611c9a57611c9961551e565b5b602002015181526020019081526020016000206040518060600160405290816000820160009054906101000a900460ff1660ff1660ff1681526020016000820160019054906101000a900460ff1660ff1660ff1681526020016000820160029054906101000a900460ff166004811115611d1757611d166148e1565b5b6004811115611d2957611d286148e1565b5b81525050915050949350505050565b611d40613001565b611d4a600061307f565b565b60078181548110611d5c57600080fd5b90600052602060002090600702016000915090508060010160009054906101000a900460ff16908060050160009054906101000a900460ff1690806006016040518060400160405290816000820160009054906101000a900460ff1660ff1660ff1681526020016000820160019054906101000a900460ff1660ff1660ff1681525050905083565b600460009054906101000a900473ffffffffffffffffffffffffffffffffffffffff1681565b600460009054906101000a900473ffffffffffffffffffffffffffffffffffffffff1673ffffffffffffffffffffffffffffffffffffffff163373ffffffffffffffffffffffffffffffffffffffff1614611e9a576040517f08c379a0000000000000000000000000000000000000000000000000000000008152600401611e9190615b01565b60405180910390fd5b600160078481548110611eb057611eaf61551e565b5b90600052602060002090600702016003016000848152602001908152602001600020600083815260200190815260200160002060050160016101000a81548160ff021916908315150217905550505050565b6060600060078381548110611f1a57611f1961551e565b5b906000526020600020906007020160010160009054906101000a900460ff1660ff1667ffffffffffffffff811115611f5557611f5461554d565b5b604051908082528060200260200182016040528015611f8e57816020015b611f7b61465b565b815260200190600190039081611f735790505b50905060005b81518110156120a95760078481548110611fb157611fb061551e565b5b906000526020600020906007020160000160008281526020019081526020016000206040518060a00160405290816000820160009054906101000a900460ff166004811115612003576120026148e1565b5b6004811115612015576120146148e1565b5b8152602001600182015481526020016002820160009054906101000a900460ff1660ff1660ff1681526020016002820160019054906101000a900460ff1660ff1660ff1681526020016002820160029054906101000a900460ff16151515158152505082828151811061208b5761208a61551e565b5b602002602001018190525080806120a1906155ab565b915050611f94565b5080915050919050565b60008060009054906101000a900473ffffffffffffffffffffffffffffffffffffffff16905090565b6120e4613001565b80600785815481106120f9576120f861551e565b5b90600052602060002090600702016003016000858152602001908152602001600020600084815260200190815260200160002060000160006101000a81548160ff021916908360ff16021790555050505050565b600160009054906101000a900473ffffffffffffffffffffffffffffffffffffffff1681565b600160009054906101000a900473ffffffffffffffffffffffffffffffffffffffff1673ffffffffffffffffffffffffffffffffffffffff163373ffffffffffffffffffffffffffffffffffffffff16146121cd57600080fd5b6121d561472e565b60005b828110156126345760005b600b8110156122b05760005b600b81101561229c576007868154811061220c5761220b61551e565b5b90600052602060002090600702016003016000838152602001908152602001600020600082815260200190815260200160002060050160039054906101000a900460ff168483600b81106122635761226261551e565b5b602002015182600b811061227a5761227961551e565b5b6020020190151590811515815250508080612294906155ab565b9150506121ef565b5080806122a8906155ab565b9150506121e3565b5060005b600b8110156126205760005b600b81101561260c578382600b81106122dc576122db61551e565b5b602002015181600b81106122f3576122f261551e565b5b6020020151156125f95760005b60048110156125f75760006007888154811061231f5761231e61551e565b5b90600052602060002090600702016003016000858152602001908152602001600020600084815260200190815260200160002060010182600481106123675761236661551e565b5b015490506000600789815481106123815761238061551e565b5b9060005260206000209060070201600401600083815260200190815260200160002060000160029054906101000a900460ff169050600360048111156123ca576123c96148e1565b5b8160048111156123dd576123dc6148e1565b5b036125e1576000851480156123f25750600083145b156123fe5750506125e4565b6001600b61240c91906158b4565b8514801561241a5750600183145b156124265750506125e4565b6000841480156124365750600383145b156124425750506125e4565b6001600b61245091906158b4565b8414801561245e5750600283145b1561246a5750506125e4565b6000600260009054906101000a900473ffffffffffffffffffffffffffffffffffffffff1673ffffffffffffffffffffffffffffffffffffffff1663951fc3fe8560405180604001604052808a60ff1681526020018960ff168152506040518363ffffffff1660e01b81526004016124e3929190615b21565b6040805180830381865afa1580156124ff573d6000803e3d6000fd5b505050506040513d601f19601f820116820180604052508101906125239190615b9a565b9050600060078b8154811061253b5761253a61551e565b5b90600052602060002090600702016003016000836000015160ff1681526020019081526020016000206000836020015160ff1681526020019081526020016000209050600060ff168160000160009054906101000a900460ff1660ff16141580156125bb575060028160000160009054906101000a900460ff1660ff1614155b156125de5760018160050160036101000a81548160ff0219169083151502179055505b50505b50505b80806125ef906155ab565b915050612300565b505b8080612604906155ab565b9150506122c0565b508080612618906155ab565b9150506122b4565b50808061262c906155ab565b9150506121d8565b50505050565b612642613001565b84600160006101000a81548173ffffffffffffffffffffffffffffffffffffffff021916908373ffffffffffffffffffffffffffffffffffffffff16021790555083600260006101000a81548173ffffffffffffffffffffffffffffffffffffffff021916908373ffffffffffffffffffffffffffffffffffffffff16021790555082600360006101000a81548173ffffffffffffffffffffffffffffffffffffffff021916908373ffffffffffffffffffffffffffffffffffffffff16021790555081600460006101000a81548173ffffffffffffffffffffffffffffffffffffffff021916908373ffffffffffffffffffffffffffffffffffffffff16021790555080600560006101000a81548173ffffffffffffffffffffffffffffffffffffffff021916908373ffffffffffffffffffffffffffffffffffffffff1602179055505050505050565b6000600160009054906101000a900473ffffffffffffffffffffffffffffffffffffffff1673ffffffffffffffffffffffffffffffffffffffff163373ffffffffffffffffffffffffffffffffffffffff16146127ea57600080fd5b60006007600181600181540180825580915050039060005260206000209060070201905061281a81600001613143565b8160010160006101000a81548160ff021916908360ff160217905550604051806060016040528060ff8016815260200160ff8016815260200160006004811115612867576128666148e1565b5b8152508160040160008360050160009054906101000a900460ff1660ff16815260200190815260200160002060008201518160000160006101000a81548160ff021916908360ff16021790555060208201518160000160016101000a81548160ff021916908360ff16021790555060408201518160000160026101000a81548160ff02191690836004811115612900576128ff6148e1565b5b021790555090505080600501600081819054906101000a900460ff16809291906129299061588b565b91906101000a81548160ff021916908360ff1602179055505061294b81612df2565b6129548161334e565b61295d81614234565b600160078054905061296f91906158b4565b91505090565b61297d613001565b600073ffffffffffffffffffffffffffffffffffffffff168173ffffffffffffffffffffffffffffffffffffffff16036129ec576040517f08c379a00000000000000000000000000000000000000000000000000000000081526004016129e390615c39565b60405180910390fd5b6129f58161307f565b50565b600360009054906101000a900473ffffffffffffffffffffffffffffffffffffffff1681565b612a266146a4565b60078481548110612a3a57612a3961551e565b5b9060005260206000209060070201600301600084815260200190815260200160002060008381526020019081526020016000206040518060e00160405290816000820160009054906101000a900460ff1660ff1660ff1681526020016000820160019054906101000a900460ff1660ff1660ff16815260200160018201600480602002604051908101604052809291908260048015612aee576020028201915b815481526020019060010190808311612ada575b505050505081526020016005820160009054906101000a900460ff161515151581526020016005820160019054906101000a900460ff161515151581526020016005820160029054906101000a900460ff161515151581526020016005820160039054906101000a900460ff16151515158152505090509392505050565b600560009054906101000a900473ffffffffffffffffffffffffffffffffffffffff1673ffffffffffffffffffffffffffffffffffffffff163373ffffffffffffffffffffffffffffffffffffffff1614612bfc576040517f08c379a0000000000000000000000000000000000000000000000000000000008152600401612bf390615ca5565b60405180910390fd5b8060078581548110612c1157612c1061551e565b5b90600052602060002090600702016003016000858152602001908152602001600020600084815260200190815260200160002060050160036101000a81548160ff02191690831515021790555050505050565b600080600260009054906101000a900473ffffffffffffffffffffffffffffffffffffffff1673ffffffffffffffffffffffffffffffffffffffff1663ce28613f60016002612cb39190615948565b60018660010160009054906101000a900460ff16612cd19190615a03565b6040518363ffffffff1660e01b8152600401612cee929190615cc5565b6020604051808303816000875af1158015612d0d573d6000803e3d6000fd5b505050506040513d601f19601f82011682018060405250810190612d3191906159d6565b90505b600115158360020160008360ff16815260200190815260200160002060009054906101000a900460ff16151503612db85760018360010160009054906101000a900460ff16612d839190615a03565b60ff168160ff1603612da45760016002612d9d9190615cee565b9050612db3565b8080612daf9061588b565b9150505b612d34565b60018360020160008360ff16815260200190815260200160002060006101000a81548160ff02191690831515021790555080915050919050565b60006006600181600181540180825580915050039060005260206000209060060201905060006001600b612e2691906158b4565b9050600060016002600b612e3a9190615917565b612e449190615948565b905060405180604001604052808360ff1681526020018260ff168152508460060160008201518160000160006101000a81548160ff021916908360ff16021790555060208201518160000160016101000a81548160ff021916908360ff1602179055509050508284600301600084815260200190815260200160002060008381526020019081526020016000206000820160009054906101000a900460ff168160000160006101000a81548160ff021916908360ff1602179055506000820160019054906101000a900460ff168160000160016101000a81548160ff021916908360ff1602179055506001820181600101906004612f4392919061475c565b506005820160009054906101000a900460ff168160050160006101000a81548160ff0219169083151502179055506005820160019054906101000a900460ff168160050160016101000a81548160ff0219169083151502179055506005820160029054906101000a900460ff168160050160026101000a81548160ff0219169083151502179055506005820160039054906101000a900460ff168160050160036101000a81548160ff02191690831515021790555090505050505050565b613009614653565b73ffffffffffffffffffffffffffffffffffffffff166130276120b3565b73ffffffffffffffffffffffffffffffffffffffff161461307d576040517f08c379a000000000000000000000000000000000000000000000000000000000815260040161307490615d6f565b60405180910390fd5b565b60008060009054906101000a900473ffffffffffffffffffffffffffffffffffffffff169050816000806101000a81548173ffffffffffffffffffffffffffffffffffffffff021916908373ffffffffffffffffffffffffffffffffffffffff1602179055508173ffffffffffffffffffffffffffffffffffffffff168173ffffffffffffffffffffffffffffffffffffffff167f8be0079c531659141344cd1fd0a4f28419497f9722a3daafe3b4186f6b6457e060405160405180910390a35050565b600080600360009054906101000a900473ffffffffffffffffffffffffffffffffffffffff1673ffffffffffffffffffffffffffffffffffffffff166338fdf0bd6040518163ffffffff1660e01b8152600401602060405180830381865afa1580156131b3573d6000803e3d6000fd5b505050506040513d601f19601f820116820180604052508101906131d79190615d8f565b905060005b8181101561334457600360009054906101000a900473ffffffffffffffffffffffffffffffffffffffff1673ffffffffffffffffffffffffffffffffffffffff166382753ebe826040518263ffffffff1660e01b815260040161323f9190614d7a565b60a060405180830381865afa15801561325c573d6000803e3d6000fd5b505050506040513d601f19601f8201168201806040525081019061328091906157b2565b84600083815260200190815260200160002060008201518160000160006101000a81548160ff021916908360048111156132bd576132bc6148e1565b5b02179055506020820151816001015560408201518160020160006101000a81548160ff021916908360ff16021790555060608201518160020160016101000a81548160ff021916908360ff16021790555060808201518160020160026101000a81548160ff021916908315150217905550905050808061333c906155ab565b9150506131dc565b5080915050919050565b60008060028360010160009054906101000a900460ff1661336f9190615a03565b60ff169050600060019050600061338461472e565b6001818760060160000160009054906101000a900460ff1660ff16600b81106133b0576133af61551e565b5b60200201518760060160000160019054906101000a900460ff1660ff16600b81106133de576133dd61551e565b5b6020020190151590811515815250506133f5614799565b866006016040518060400160405290816000820160009054906101000a900460ff1660ff1660ff1681526020016000820160019054906101000a900460ff1660ff1660ff16815250508187601e81106134515761345061551e565b5b60200201819052508580613464906155ab565b9650505b6000851180156134785750600086115b156141085760008160018861348d91906158b4565b601e811061349e5761349d61551e565b5b6020020151905086806134b090615dbc565b9750508187601e81106134c6576134c561551e565b5b602002016134d26147c7565b81525085806134e090615dbc565b96505084806134ee90615dbc565b9550506001886003016000836000015160ff1681526020019081526020016000206000836020015160ff16815260200190815260200160002060000160006101000a81548160ff021916908360ff1602179055506021600260009054906101000a900473ffffffffffffffffffffffffffffffffffffffff1673ffffffffffffffffffffffffffffffffffffffff1663ce28613f600060636040518363ffffffff1660e01b81526004016135a3929190615e20565b6020604051808303816000875af11580156135c2573d6000803e3d6000fd5b505050506040513d601f19601f820116820180604052508101906135e691906159d6565b60ff161015613640576001886003016000836000015160ff1681526020019081526020016000206000836020015160ff16815260200190815260200160002060050160026101000a81548160ff0219169083151502179055505b600060405180608001604052806000815260200160018152602001600281526020016003815250905060006001600461367991906158b4565b90505b60008111156137ac576000600260009054906101000a900473ffffffffffffffffffffffffffffffffffffffff1673ffffffffffffffffffffffffffffffffffffffff1663ce28613f6000846040518363ffffffff1660e01b81526004016136e59291906159ad565b6020604051808303816000875af1158015613704573d6000803e3d6000fd5b505050506040513d601f19601f8201168201806040525081019061372891906159d6565b9050828160ff16600481106137405761373f61551e565b5b60200201518383600481106137585761375761551e565b5b60200201518484600481106137705761376f61551e565b5b60200201858460ff166004811061378a5761378961551e565b5b60200201828152508281525050505080806137a490615dbc565b91505061367c565b5060005b6004811015614100576000836000015160000b90506000846020015160000b905060008484600481106137e6576137e561551e565b5b6020020151036138035781806137fb90615e53565b925050613898565b60018484600481106138185761381761551e565b5b60200201510361383557818061382d90615e9b565b925050613897565b600284846004811061384a5761384961551e565b5b60200201510361386757808061385f90615e9b565b915050613896565b600384846004811061387c5761387b61551e565b5b60200201510361389557808061389190615e53565b9150505b5b5b5b60018212806138a75750600181125b806138be57506002600b6138bb91906158b4565b82135b806138d557506002600b6138d291906158b4565b81135b156138e15750506140ed565b600060405180604001604052808460ff1681526020018360ff1681525090506000151588826000015160ff16600b811061391e5761391d61551e565b5b6020020151826020015160ff16600b811061393c5761393b61551e565b5b602002015115151480613a36575060008d6003016000886000015160ff1681526020019081526020016000206000886020015160ff168152602001908152602001600020600101600260009054906101000a900473ffffffffffffffffffffffffffffffffffffffff1673ffffffffffffffffffffffffffffffffffffffff1663fa3993c289856040518363ffffffff1660e01b81526004016139e0929190615ee3565b602060405180830381865afa1580156139fd573d6000803e3d6000fd5b505050506040513d601f19601f82011682018060405250810190613a219190615d8f565b60048110613a3257613a3161551e565b5b0154145b156140e95760008a1480613af95750886042613a5291906158b4565b600260009054906101000a900473ffffffffffffffffffffffffffffffffffffffff1673ffffffffffffffffffffffffffffffffffffffff1663ce28613f600060636040518363ffffffff1660e01b8152600401613ab1929190615e20565b6020604051808303816000875af1158015613ad0573d6000803e3d6000fd5b505050506040513d601f19601f82011682018060405250810190613af491906159d6565b60ff16105b156140e3576040518060600160405280600260009054906101000a900473ffffffffffffffffffffffffffffffffffffffff1673ffffffffffffffffffffffffffffffffffffffff1663ce28613f600060036040518363ffffffff1660e01b8152600401613b689291906159ad565b6020604051808303816000875af1158015613b87573d6000803e3d6000fd5b505050506040513d601f19601f82011682018060405250810190613bab91906159d6565b60ff168152602001600260009054906101000a900473ffffffffffffffffffffffffffffffffffffffff1673ffffffffffffffffffffffffffffffffffffffff1663ce28613f600060036040518363ffffffff1660e01b8152600401613c129291906159ad565b6020604051808303816000875af1158015613c31573d6000803e3d6000fd5b505050506040513d601f19601f82011682018060405250810190613c5591906159d6565b60ff16815260200160016004811115613c7157613c706148e1565b5b8152508d60040160008f60050160009054906101000a900460ff1660ff16815260200190815260200160002060008201518160000160006101000a81548160ff021916908360ff16021790555060208201518160000160016101000a81548160ff021916908360ff16021790555060408201518160000160026101000a81548160ff02191690836004811115613d0a57613d096148e1565b5b021790555090505060008d60040160008f60050160009054906101000a900460ff1660ff16815260200190815260200160002060000160009054906101000a900460ff1660ff1603613dac5760038d60040160008f60050160009054906101000a900460ff1660ff16815260200190815260200160002060000160026101000a81548160ff02191690836004811115613da657613da56148e1565b5b02179055505b8c600501600081819054906101000a900460ff1680929190613dcd9061588b565b91906101000a81548160ff021916908360ff16021790555050601689613df39190615948565b98506042891115613e0357604298505b6000151588826000015160ff16600b8110613e2157613e2061551e565b5b6020020151826020015160ff16600b8110613e3f57613e3e61551e565b5b6020020151151503613ecd5780878d601e8110613e5f57613e5e61551e565b5b60200201819052508b80613e72906155ab565b9c50508980613e80906155ab565b9a5050600188826000015160ff16600b8110613e9f57613e9e61551e565b5b6020020151826020015160ff16600b8110613ebd57613ebc61551e565b5b6020020190151590811515815250505b60008d6003016000886000015160ff1681526020019081526020016000206000886020015160ff168152602001908152602001600020600101868660048110613f1957613f1861551e565b5b602002015160048110613f2f57613f2e61551e565b5b0154036140de5760018d60050160009054906101000a900460ff16613f549190615a03565b60ff168d6003016000886000015160ff1681526020019081526020016000206000886020015160ff168152602001908152602001600020600101868660048110613fa157613fa061551e565b5b602002015160048110613fb757613fb661551e565b5b018190555060018d60050160009054906101000a900460ff16613fda9190615a03565b60ff168d6003016000836000015160ff1681526020019081526020016000206000836020015160ff168152602001908152602001600020600101600260009054906101000a900473ffffffffffffffffffffffffffffffffffffffff1673ffffffffffffffffffffffffffffffffffffffff16638214f2228888600481106140655761406461551e565b5b60200201516040518263ffffffff1660e01b81526004016140869190614d7a565b602060405180830381865afa1580156140a3573d6000803e3d6000fd5b505050506040513d601f19601f820116820180604052508101906140c79190615d8f565b600481106140d8576140d761551e565b5b01819055505b6140e8565b600098505b5b5050505b80806140f8906155ab565b9150506137b0565b505050613468565b60028760030160008960060160000160009054906101000a900460ff1660ff16815260200190815260200160002060008960060160000160019054906101000a900460ff1660ff16815260200190815260200160002060000160006101000a81548160ff021916908360ff16021790555060008760030160008960060160000160009054906101000a900460ff1660ff16815260200190815260200160002060008960060160000160019054906101000a900460ff1660ff16815260200190815260200160002060050160026101000a81548160ff02191690831515021790555060038760040160006001815260200190815260200160002060000160026101000a81548160ff02191690836004811115614226576142256148e1565b5b021790555050505050505050565b60005b600b81101561464f5760005b600b81101561463b57600160ff16836003016000848152602001908152602001600020600083815260200190815260200160002060000160009054906101000a900460ff1660ff16036146285760005b6004811015614626576000846003016000858152602001908152602001600020600084815260200190815260200160002060010182600481106142d9576142d861551e565b5b015403614613576000600260009054906101000a900473ffffffffffffffffffffffffffffffffffffffff1673ffffffffffffffffffffffffffffffffffffffff1663951fc3fe8360405180604001604052808860ff1681526020018760ff168152506040518363ffffffff1660e01b8152600401614359929190615b21565b6040805180830381865afa158015614375573d6000803e3d6000fd5b505050506040513d601f19601f820116820180604052508101906143999190615b9a565b90506000856003016000836000015160ff1681526020019081526020016000206000836020015160ff16815260200190815260200160002060000160009054906101000a900460ff1660ff1690506042600260009054906101000a900473ffffffffffffffffffffffffffffffffffffffff1673ffffffffffffffffffffffffffffffffffffffff1663ce28613f600060636040518363ffffffff1660e01b8152600401614448929190615e20565b6020604051808303816000875af1158015614467573d6000803e3d6000fd5b505050506040513d601f19601f8201168201806040525081019061448b91906159d6565b60ff1610801561449e5750600060ff1681145b1561461057604051806060016040528060ff8016815260200160ff801681526020016004808111156144d3576144d26148e1565b5b8152508660040160008860050160009054906101000a900460ff1660ff16815260200190815260200160002060008201518160000160006101000a81548160ff021916908360ff16021790555060208201518160000160016101000a81548160ff021916908360ff16021790555060408201518160000160026101000a81548160ff0219169083600481111561456c5761456b6148e1565b5b021790555090505085600501600081819054906101000a900460ff16809291906145959061588b565b91906101000a81548160ff021916908360ff1602179055505060018660050160009054906101000a900460ff166145cc9190615a03565b60ff168660030160008781526020019081526020016000206000868152602001908152602001600020600101846004811061460a5761460961551e565b5b01819055505b50505b808061461e906155ab565b915050614293565b505b8080614633906155ab565b915050614243565b508080614647906155ab565b915050614237565b5050565b600033905090565b6040518060a001604052806000600481111561467a576146796148e1565b5b815260200160008152602001600060ff168152602001600060ff1681526020016000151581525090565b6040518060e00160405280600060ff168152602001600060ff1681526020016146cb6147e7565b81526020016000151581526020016000151581526020016000151581526020016000151581525090565b6040518060600160405280600060ff168152602001600060ff16815260200160006004811115614728576147276148e1565b5b81525090565b604051806101600160405280600b905b614746614809565b81526020019060019003908161473e5790505090565b8260048101928215614788579182015b8281111561478757825482559160010191906001019061476c565b5b509050614795919061482c565b5090565b604051806103c00160405280601e905b6147b16147c7565b8152602001906001900390816147a95790505090565b6040518060400160405280600060ff168152602001600060ff1681525090565b6040518060800160405280600490602082028036833780820191505090505090565b604051806101600160405280600b90602082028036833780820191505090505090565b5b8082111561484557600081600090555060010161482d565b5090565b6000604051905090565b600080fd5b6000819050919050565b61486b81614858565b811461487657600080fd5b50565b60008135905061488881614862565b92915050565b6000806000606084860312156148a7576148a6614853565b5b60006148b586828701614879565b93505060206148c686828701614879565b92505060406148d786828701614879565b9150509250925092565b7f4e487b7100000000000000000000000000000000000000000000000000000000600052602160045260246000fd5b60058110614921576149206148e1565b5b50565b600081905061493282614910565b919050565b600061494282614924565b9050919050565b61495281614937565b82525050565b61496181614858565b82525050565b600060ff82169050919050565b61497d81614967565b82525050565b60008115159050919050565b61499881614983565b82525050565b60a0820160008201516149b46000850182614949565b5060208201516149c76020850182614958565b5060408201516149da6040850182614974565b5060608201516149ed6060850182614974565b506080820151614a00608085018261498f565b50505050565b600060a082019050614a1b600083018461499e565b92915050565b600073ffffffffffffffffffffffffffffffffffffffff82169050919050565b6000614a4c82614a21565b9050919050565b614a5c81614a41565b82525050565b6000602082019050614a776000830184614a53565b92915050565b600060208284031215614a9357614a92614853565b5b6000614aa184828501614879565b91505092915050565b600081519050919050565b600082825260208201905092915050565b6000819050602082019050919050565b600081519050919050565b600082825260208201905092915050565b6000819050602082019050919050565b600060049050919050565b600081905092915050565b6000819050919050565b6000614b2e8383614958565b60208301905092915050565b6000602082019050919050565b614b5081614b02565b614b5a8184614b0d565b9250614b6582614b18565b8060005b83811015614b96578151614b7d8782614b22565b9650614b8883614b3a565b925050600181019050614b69565b505050505050565b61014082016000820151614bb56000850182614974565b506020820151614bc86020850182614974565b506040820151614bdb6040850182614b47565b506060820151614bee60c085018261498f565b506080820151614c0160e085018261498f565b5060a0820151614c1561010085018261498f565b5060c0820151614c2961012085018261498f565b50505050565b6000614c3b8383614b9e565b6101408301905092915050565b6000602082019050919050565b6000614c6082614ad6565b614c6a8185614ae1565b9350614c7583614af2565b8060005b83811015614ca6578151614c8d8882614c2f565b9750614c9883614c48565b925050600181019050614c79565b5085935050505092915050565b6000614cbf8383614c55565b905092915050565b6000602082019050919050565b6000614cdf82614aaa565b614ce98185614ab5565b935083602082028501614cfb85614ac6565b8060005b85811015614d375784840389528151614d188582614cb3565b9450614d2383614cc7565b925060208a01995050600181019050614cff565b50829750879550505050505092915050565b60006020820190508181036000830152614d638184614cd4565b905092915050565b614d7481614858565b82525050565b6000602082019050614d8f6000830184614d6b565b92915050565b60008060408385031215614dac57614dab614853565b5b6000614dba85828601614879565b9250506020614dcb85828601614879565b9150509250929050565b60058110614de257600080fd5b50565b600081359050614df481614dd5565b92915050565b60008060008060008060c08789031215614e1757614e16614853565b5b6000614e2589828a01614879565b9650506020614e3689828a01614879565b9550506040614e4789828a01614879565b9450506060614e5889828a01614879565b9350506080614e6989828a01614de5565b92505060a0614e7a89828a01614879565b9150509295509295509295565b6000819050919050565b6000614eac614ea7614ea284614a21565b614e87565b614a21565b9050919050565b6000614ebe82614e91565b9050919050565b6000614ed082614eb3565b9050919050565b614ee081614ec5565b82525050565b6000602082019050614efb6000830184614ed7565b92915050565b600081519050919050565b600082825260208201905092915050565b6000819050602082019050919050565b60058110614f3e57614f3d6148e1565b5b50565b6000819050614f4f82614f2d565b919050565b6000614f5f82614f41565b9050919050565b614f6f81614f54565b82525050565b606082016000820151614f8b6000850182614974565b506020820151614f9e6020850182614974565b506040820151614fb16040850182614f66565b50505050565b6000614fc38383614f75565b60608301905092915050565b6000602082019050919050565b6000614fe782614f01565b614ff18185614f0c565b9350614ffc83614f1d565b8060005b8381101561502d5781516150148882614fb7565b975061501f83614fcf565b925050600181019050615000565b5085935050505092915050565b600060208201905081810360008301526150548184614fdc565b905092915050565b6000806000806080858703121561507657615075614853565b5b600061508487828801614879565b945050602061509587828801614879565b93505060406150a687828801614879565b92505060606150b787828801614879565b91505092959194509250565b6060820160008201516150d96000850182614974565b5060208201516150ec6020850182614974565b5060408201516150ff6040850182614f66565b50505050565b600060608201905061511a60008301846150c3565b92915050565b61512981614967565b82525050565b6040820160008201516151456000850182614974565b5060208201516151586020850182614974565b50505050565b60006080820190506151736000830186615120565b6151806020830185615120565b61518d604083018461512f565b949350505050565b600081519050919050565b600082825260208201905092915050565b6000819050602082019050919050565b60a0820160008201516151d76000850182614949565b5060208201516151ea6020850182614958565b5060408201516151fd6040850182614974565b5060608201516152106060850182614974565b506080820151615223608085018261498f565b50505050565b600061523583836151c1565b60a08301905092915050565b6000602082019050919050565b600061525982615195565b61526381856151a0565b935061526e836151b1565b8060005b8381101561529f5781516152868882615229565b975061529183615241565b925050600181019050615272565b5085935050505092915050565b600060208201905081810360008301526152c6818461524e565b905092915050565b6152d781614a41565b81146152e257600080fd5b50565b6000813590506152f4816152ce565b92915050565b600080600080600060a0868803121561531657615315614853565b5b6000615324888289016152e5565b9550506020615335888289016152e5565b9450506040615346888289016152e5565b9350506060615357888289016152e5565b9250506080615368888289016152e5565b9150509295509295909350565b60006020828403121561538b5761538a614853565b5b6000615399848285016152e5565b91505092915050565b60006153ad82614eb3565b9050919050565b6153bd816153a2565b82525050565b60006020820190506153d860008301846153b4565b92915050565b610140820160008201516153f56000850182614974565b5060208201516154086020850182614974565b50604082015161541b6040850182614b47565b50606082015161542e60c085018261498f565b50608082015161544160e085018261498f565b5060a082015161545561010085018261498f565b5060c082015161546961012085018261498f565b50505050565b60006101408201905061548560008301846153de565b92915050565b61549481614983565b811461549f57600080fd5b50565b6000813590506154b18161548b565b92915050565b600080600080608085870312156154d1576154d0614853565b5b60006154df87828801614879565b94505060206154f087828801614879565b935050604061550187828801614879565b9250506060615512878288016154a2565b91505092959194509250565b7f4e487b7100000000000000000000000000000000000000000000000000000000600052603260045260246000fd5b7f4e487b7100000000000000000000000000000000000000000000000000000000600052604160045260246000fd5b7f4e487b7100000000000000000000000000000000000000000000000000000000600052601160045260246000fd5b60006155b682614858565b91507fffffffffffffffffffffffffffffffffffffffffffffffffffffffffffffffff82036155e8576155e761557c565b5b600182019050919050565b6000819050919050565b600061561861561361560e846155f3565b614e87565b614858565b9050919050565b615628816155fd565b82525050565b6000602082019050615643600083018461561f565b92915050565b600080fd5b6000601f19601f8301169050919050565b6156688261564e565b810181811067ffffffffffffffff821117156156875761568661554d565b5b80604052505050565b600061569a614849565b90506156a6828261565f565b919050565b600581106156b857600080fd5b50565b6000815190506156ca816156ab565b92915050565b6000815190506156df81614862565b92915050565b6156ee81614967565b81146156f957600080fd5b50565b60008151905061570b816156e5565b92915050565b6000815190506157208161548b565b92915050565b600060a0828403121561573c5761573b615649565b5b61574660a0615690565b90506000615756848285016156bb565b600083015250602061576a848285016156d0565b602083015250604061577e848285016156fc565b6040830152506060615792848285016156fc565b60608301525060806157a684828501615711565b60808301525092915050565b600060a082840312156157c8576157c7614853565b5b60006157d684828501615726565b91505092915050565b6000819050919050565b60006158046157ff6157fa846157df565b614e87565b614858565b9050919050565b615814816157e9565b82525050565b600060208201905061582f600083018461580b565b92915050565b6000819050919050565b600061585a61585561585084615835565b614e87565b614858565b9050919050565b61586a8161583f565b82525050565b60006020820190506158856000830184615861565b92915050565b600061589682614967565b915060ff82036158a9576158a861557c565b5b600182019050919050565b60006158bf82614858565b91506158ca83614858565b92508282039050818111156158e2576158e161557c565b5b92915050565b7f4e487b7100000000000000000000000000000000000000000000000000000000600052601260045260246000fd5b600061592282614858565b915061592d83614858565b92508261593d5761593c6158e8565b5b828204905092915050565b600061595382614858565b915061595e83614858565b92508282019050808211156159765761597561557c565b5b92915050565b600061599761599261598d846155f3565b614e87565b614967565b9050919050565b6159a78161597c565b82525050565b60006040820190506159c2600083018561599e565b6159cf6020830184615120565b9392505050565b6000602082840312156159ec576159eb614853565b5b60006159fa848285016156fc565b91505092915050565b6000615a0e82614967565b9150615a1983614967565b9250828203905060ff811115615a3257615a3161557c565b5b92915050565b600082825260208201905092915050565b7f4e6f7420616c6c6f77656420636f6e7472616374000000000000000000000000600082015250565b6000615a7f601483615a38565b9150615a8a82615a49565b602082019050919050565b60006020820190508181036000830152615aae81615a72565b9050919050565b7f4e6f7420616374696f6e7320636f6e7472616374000000000000000000000000600082015250565b6000615aeb601483615a38565b9150615af682615ab5565b602082019050919050565b60006020820190508181036000830152615b1a81615ade565b9050919050565b6000606082019050615b366000830185614d6b565b615b43602083018461512f565b9392505050565b600060408284031215615b6057615b5f615649565b5b615b6a6040615690565b90506000615b7a848285016156fc565b6000830152506020615b8e848285016156fc565b60208301525092915050565b600060408284031215615bb057615baf614853565b5b6000615bbe84828501615b4a565b91505092915050565b7f4f776e61626c653a206e6577206f776e657220697320746865207a65726f206160008201527f6464726573730000000000000000000000000000000000000000000000000000602082015250565b6000615c23602683615a38565b9150615c2e82615bc7565b604082019050919050565b60006020820190508181036000830152615c5281615c16565b9050919050565b7f4e6f7420706c6179657220636f6e747261637400000000000000000000000000600082015250565b6000615c8f601383615a38565b9150615c9a82615c59565b602082019050919050565b60006020820190508181036000830152615cbe81615c82565b9050919050565b6000604082019050615cda6000830185615120565b615ce76020830184615120565b9392505050565b6000615cf982614967565b9150615d0483614967565b9250828201905060ff811115615d1d57615d1c61557c565b5b92915050565b7f4f776e61626c653a2063616c6c6572206973206e6f7420746865206f776e6572600082015250565b6000615d59602083615a38565b9150615d6482615d23565b602082019050919050565b60006020820190508181036000830152615d8881615d4c565b9050919050565b600060208284031215615da557615da4614853565b5b6000615db3848285016156d0565b91505092915050565b6000615dc782614858565b915060008203615dda57615dd961557c565b5b600182039050919050565b6000819050919050565b6000615e0a615e05615e0084615de5565b614e87565b614967565b9050919050565b615e1a81615def565b82525050565b6000604082019050615e35600083018561599e565b615e426020830184615e11565b9392505050565b6000819050919050565b6000615e5e82615e49565b91507f80000000000000000000000000000000000000000000000000000000000000008203615e9057615e8f61557c565b5b600182039050919050565b6000615ea682615e49565b91507f7fffffffffffffffffffffffffffffffffffffffffffffffffffffffffffffff8203615ed857615ed761557c565b5b600182019050919050565b6000608082019050615ef8600083018561512f565b615f05604083018461512f565b939250505056fea26469706673582212206e791974a26b2403ffd81d22ce8ac384af47119dda8463c9cd6d4f3d4f451e7564736f6c63430008110033",
  "devdoc": {
    "kind": "dev",
    "methods": {
      "owner()": {
        "details": "Returns the address of the current owner."
      },
      "renounceOwnership()": {
        "details": "Leaves the contract without owner. It will not be possible to call `onlyOwner` functions anymore. Can only be called by the current owner. NOTE: Renouncing ownership will leave the contract without an owner, thereby removing any functionality that is only available to the owner."
      },
      "transferOwnership(address)": {
        "details": "Transfers ownership of the contract to a new account (`newOwner`). Can only be called by the current owner."
      }
    },
    "version": 1
  },
  "userdoc": {
    "kind": "user",
    "methods": {},
    "version": 1
  },
  "storageLayout": {
    "storage": [
      {
        "astId": 7,
        "contract": "contracts/BCMaps.sol:Maps",
        "label": "_owner",
        "offset": 0,
        "slot": "0",
        "type": "t_address"
      },
      {
        "astId": 2556,
        "contract": "contracts/BCMaps.sol:Maps",
        "label": "game",
        "offset": 0,
        "slot": "1",
        "type": "t_address"
      },
      {
        "astId": 2559,
        "contract": "contracts/BCMaps.sol:Maps",
        "label": "utils",
        "offset": 0,
        "slot": "2",
        "type": "t_contract(UtilsInterface)2552"
      },
      {
        "astId": 2562,
        "contract": "contracts/BCMaps.sol:Maps",
        "label": "roomTiles",
        "offset": 0,
        "slot": "3",
        "type": "t_contract(RoomTileInterface)2513"
      },
      {
        "astId": 2564,
        "contract": "contracts/BCMaps.sol:Maps",
        "label": "actionsAddress",
        "offset": 0,
        "slot": "4",
        "type": "t_address"
      },
      {
        "astId": 2566,
        "contract": "contracts/BCMaps.sol:Maps",
        "label": "playersAddress",
        "offset": 0,
        "slot": "5",
        "type": "t_address"
      },
      {
        "astId": 2610,
        "contract": "contracts/BCMaps.sol:Maps",
        "label": "gameTiles",
        "offset": 0,
        "slot": "6",
        "type": "t_array(t_struct(GameTile)5969_storage)dyn_storage"
      },
      {
        "astId": 2614,
        "contract": "contracts/BCMaps.sol:Maps",
        "label": "maps",
        "offset": 0,
        "slot": "7",
        "type": "t_array(t_struct(Map)6006_storage)dyn_storage"
      }
    ],
    "types": {
      "t_address": {
        "encoding": "inplace",
        "label": "address",
        "numberOfBytes": "20"
      },
      "t_array(t_struct(GameTile)5969_storage)dyn_storage": {
        "base": "t_struct(GameTile)5969_storage",
        "encoding": "dynamic_array",
        "label": "struct BCTypes.GameTile[]",
        "numberOfBytes": "32"
      },
      "t_array(t_struct(Map)6006_storage)dyn_storage": {
        "base": "t_struct(Map)6006_storage",
        "encoding": "dynamic_array",
        "label": "struct BCTypes.Map[]",
        "numberOfBytes": "32"
      },
      "t_array(t_uint256)4_storage": {
        "base": "t_uint256",
        "encoding": "inplace",
        "label": "uint256[4]",
        "numberOfBytes": "128"
      },
      "t_bool": {
        "encoding": "inplace",
        "label": "bool",
        "numberOfBytes": "1"
      },
      "t_contract(RoomTileInterface)2513": {
        "encoding": "inplace",
        "label": "contract RoomTileInterface",
        "numberOfBytes": "20"
      },
      "t_contract(UtilsInterface)2552": {
        "encoding": "inplace",
        "label": "contract UtilsInterface",
        "numberOfBytes": "20"
      },
      "t_enum(BCEventType)5898": {
        "encoding": "inplace",
        "label": "enum BCTypes.BCEventType",
        "numberOfBytes": "1"
      },
      "t_enum(DoorStatus)5881": {
        "encoding": "inplace",
        "label": "enum BCTypes.DoorStatus",
        "numberOfBytes": "1"
      },
      "t_mapping(t_uint256,t_bool)": {
        "encoding": "mapping",
        "key": "t_uint256",
        "label": "mapping(uint256 => bool)",
        "numberOfBytes": "32",
        "value": "t_bool"
      },
      "t_mapping(t_uint256,t_mapping(t_uint256,t_struct(GameTile)5969_storage))": {
        "encoding": "mapping",
        "key": "t_uint256",
        "label": "mapping(uint256 => mapping(uint256 => struct BCTypes.GameTile))",
        "numberOfBytes": "32",
        "value": "t_mapping(t_uint256,t_struct(GameTile)5969_storage)"
      },
      "t_mapping(t_uint256,t_struct(Door)5977_storage)": {
        "encoding": "mapping",
        "key": "t_uint256",
        "label": "mapping(uint256 => struct BCTypes.Door)",
        "numberOfBytes": "32",
        "value": "t_struct(Door)5977_storage"
      },
      "t_mapping(t_uint256,t_struct(GameTile)5969_storage)": {
        "encoding": "mapping",
        "key": "t_uint256",
        "label": "mapping(uint256 => struct BCTypes.GameTile)",
        "numberOfBytes": "32",
        "value": "t_struct(GameTile)5969_storage"
      },
      "t_mapping(t_uint256,t_struct(RoomTile)6054_storage)": {
        "encoding": "mapping",
        "key": "t_uint256",
        "label": "mapping(uint256 => struct BCTypes.RoomTile)",
        "numberOfBytes": "32",
        "value": "t_struct(RoomTile)6054_storage"
      },
      "t_struct(Door)5977_storage": {
        "encoding": "inplace",
        "label": "struct BCTypes.Door",
        "members": [
          {
            "astId": 5971,
            "contract": "contracts/BCMaps.sol:Maps",
            "label": "vsBreach",
            "offset": 0,
            "slot": "0",
            "type": "t_uint8"
          },
          {
            "astId": 5973,
            "contract": "contracts/BCMaps.sol:Maps",
            "label": "vsHack",
            "offset": 1,
            "slot": "0",
            "type": "t_uint8"
          },
          {
            "astId": 5976,
            "contract": "contracts/BCMaps.sol:Maps",
            "label": "status",
            "offset": 2,
            "slot": "0",
            "type": "t_enum(DoorStatus)5881"
          }
        ],
        "numberOfBytes": "32"
      },
      "t_struct(GameTile)5969_storage": {
        "encoding": "inplace",
        "label": "struct BCTypes.GameTile",
        "members": [
          {
            "astId": 5954,
            "contract": "contracts/BCMaps.sol:Maps",
            "label": "roomId",
            "offset": 0,
            "slot": "0",
            "type": "t_uint8"
          },
          {
            "astId": 5956,
            "contract": "contracts/BCMaps.sol:Maps",
            "label": "parentId",
            "offset": 1,
            "slot": "0",
            "type": "t_uint8"
          },
          {
            "astId": 5960,
            "contract": "contracts/BCMaps.sol:Maps",
            "label": "doors",
            "offset": 0,
            "slot": "1",
            "type": "t_array(t_uint256)4_storage"
          },
          {
            "astId": 5962,
            "contract": "contracts/BCMaps.sol:Maps",
            "label": "explored",
            "offset": 0,
            "slot": "5",
            "type": "t_bool"
          },
          {
            "astId": 5964,
            "contract": "contracts/BCMaps.sol:Maps",
            "label": "looted",
            "offset": 1,
            "slot": "5",
            "type": "t_bool"
          },
          {
            "astId": 5966,
            "contract": "contracts/BCMaps.sol:Maps",
            "label": "hasVent",
            "offset": 2,
            "slot": "5",
            "type": "t_bool"
          },
          {
            "astId": 5968,
            "contract": "contracts/BCMaps.sol:Maps",
            "label": "hasHazard",
            "offset": 3,
            "slot": "5",
            "type": "t_bool"
          }
        ],
        "numberOfBytes": "192"
      },
      "t_struct(Map)6006_storage": {
        "encoding": "inplace",
        "label": "struct BCTypes.Map",
        "members": [
          {
            "astId": 5982,
            "contract": "contracts/BCMaps.sol:Maps",
            "label": "roomList",
            "offset": 0,
            "slot": "0",
            "type": "t_mapping(t_uint256,t_struct(RoomTile)6054_storage)"
          },
          {
            "astId": 5984,
            "contract": "contracts/BCMaps.sol:Maps",
            "label": "numRooms",
            "offset": 0,
            "slot": "1",
            "type": "t_uint8"
          },
          {
            "astId": 5988,
            "contract": "contracts/BCMaps.sol:Maps",
            "label": "usedRooms",
            "offset": 0,
            "slot": "2",
            "type": "t_mapping(t_uint256,t_bool)"
          },
          {
            "astId": 5995,
            "contract": "contracts/BCMaps.sol:Maps",
            "label": "board",
            "offset": 0,
            "slot": "3",
            "type": "t_mapping(t_uint256,t_mapping(t_uint256,t_struct(GameTile)5969_storage))"
          },
          {
            "astId": 6000,
            "contract": "contracts/BCMaps.sol:Maps",
            "label": "doors",
            "offset": 0,
            "slot": "4",
            "type": "t_mapping(t_uint256,t_struct(Door)5977_storage)"
          },
          {
            "astId": 6002,
            "contract": "contracts/BCMaps.sol:Maps",
            "label": "numDoors",
            "offset": 0,
            "slot": "5",
            "type": "t_uint8"
          },
          {
            "astId": 6005,
            "contract": "contracts/BCMaps.sol:Maps",
            "label": "startPosition",
            "offset": 0,
            "slot": "6",
            "type": "t_struct(Position)5952_storage"
          }
        ],
        "numberOfBytes": "224"
      },
      "t_struct(Position)5952_storage": {
        "encoding": "inplace",
        "label": "struct BCTypes.Position",
        "members": [
          {
            "astId": 5949,
            "contract": "contracts/BCMaps.sol:Maps",
            "label": "row",
            "offset": 0,
            "slot": "0",
            "type": "t_uint8"
          },
          {
            "astId": 5951,
            "contract": "contracts/BCMaps.sol:Maps",
            "label": "col",
            "offset": 1,
            "slot": "0",
            "type": "t_uint8"
          }
        ],
        "numberOfBytes": "32"
      },
      "t_struct(RoomTile)6054_storage": {
        "encoding": "inplace",
        "label": "struct BCTypes.RoomTile",
        "members": [
          {
            "astId": 6045,
            "contract": "contracts/BCMaps.sol:Maps",
            "label": "eventType",
            "offset": 0,
            "slot": "0",
            "type": "t_enum(BCEventType)5898"
          },
          {
            "astId": 6047,
            "contract": "contracts/BCMaps.sol:Maps",
            "label": "eventNum",
            "offset": 0,
            "slot": "1",
            "type": "t_uint256"
          },
          {
            "astId": 6049,
            "contract": "contracts/BCMaps.sol:Maps",
            "label": "numItems",
            "offset": 0,
            "slot": "2",
            "type": "t_uint8"
          },
          {
            "astId": 6051,
            "contract": "contracts/BCMaps.sol:Maps",
            "label": "numData",
            "offset": 1,
            "slot": "2",
            "type": "t_uint8"
          },
          {
            "astId": 6053,
            "contract": "contracts/BCMaps.sol:Maps",
            "label": "sigDetected",
            "offset": 2,
            "slot": "2",
            "type": "t_bool"
          }
        ],
        "numberOfBytes": "96"
      },
      "t_uint256": {
        "encoding": "inplace",
        "label": "uint256",
        "numberOfBytes": "32"
      },
      "t_uint8": {
        "encoding": "inplace",
        "label": "uint8",
        "numberOfBytes": "1"
      }
    }
  }
}