{
  "address": "0x5cCDb1293ec18220B7B805707BC7100e1d6133BC",
  "abi": [
    {
      "anonymous": false,
      "inputs": [
        {
          "indexed": false,
          "internalType": "uint256",
          "name": "gameId",
          "type": "uint256"
        },
        {
          "indexed": false,
          "internalType": "uint256",
          "name": "roll",
          "type": "uint256"
        },
        {
          "indexed": false,
          "internalType": "uint256",
          "name": "forValue",
          "type": "uint256"
        },
        {
          "indexed": false,
          "internalType": "uint256",
          "name": "against",
          "type": "uint256"
        }
      ],
      "name": "ChallengeEvent",
      "type": "event"
    },
    {
      "anonymous": false,
      "inputs": [
        {
          "indexed": false,
          "internalType": "uint256",
          "name": "gameId",
          "type": "uint256"
        },
        {
          "indexed": false,
          "internalType": "uint256",
          "name": "roll",
          "type": "uint256"
        }
      ],
      "name": "DiceRollEvent",
      "type": "event"
    },
    {
      "anonymous": false,
      "inputs": [
        {
          "indexed": true,
          "internalType": "address",
          "name": "previousOwner",
          "type": "address"
        },
        {
          "indexed": true,
          "internalType": "address",
          "name": "newOwner",
          "type": "address"
        }
      ],
      "name": "OwnershipTransferred",
      "type": "event"
    },
    {
      "inputs": [
        {
          "internalType": "int256",
          "name": "x",
          "type": "int256"
        }
      ],
      "name": "abs",
      "outputs": [
        {
          "internalType": "int256",
          "name": "",
          "type": "int256"
        }
      ],
      "stateMutability": "pure",
      "type": "function"
    },
    {
      "inputs": [],
      "name": "actionsAddress",
      "outputs": [
        {
          "internalType": "address",
          "name": "",
          "type": "address"
        }
      ],
      "stateMutability": "view",
      "type": "function"
    },
    {
      "inputs": [],
      "name": "createMap",
      "outputs": [
        {
          "internalType": "uint256",
          "name": "",
          "type": "uint256"
        }
      ],
      "stateMutability": "nonpayable",
      "type": "function"
    },
    {
      "inputs": [
        {
          "internalType": "uint256",
          "name": "_mapId",
          "type": "uint256"
        },
        {
          "internalType": "uint256",
          "name": "_row",
          "type": "uint256"
        },
        {
          "internalType": "uint256",
          "name": "_col",
          "type": "uint256"
        },
        {
          "internalType": "uint256",
          "name": "_roomId",
          "type": "uint256"
        }
      ],
      "name": "debugForceRoomId",
      "outputs": [],
      "stateMutability": "nonpayable",
      "type": "function"
    },
    {
      "inputs": [
        {
          "internalType": "uint256",
          "name": "_mapId",
          "type": "uint256"
        },
        {
          "internalType": "uint256",
          "name": "_row",
          "type": "uint256"
        },
        {
          "internalType": "uint256",
          "name": "_col",
          "type": "uint256"
        },
        {
          "internalType": "uint256",
          "name": "debugForceId",
          "type": "uint256"
        }
      ],
      "name": "discoverRoom",
      "outputs": [
        {
          "internalType": "uint256",
          "name": "",
          "type": "uint256"
        }
      ],
      "stateMutability": "nonpayable",
      "type": "function"
    },
    {
      "inputs": [
        {
          "internalType": "uint256",
          "name": "_mapId",
          "type": "uint256"
        }
      ],
      "name": "extGetBoard",
      "outputs": [
        {
          "components": [
            {
              "internalType": "uint8",
              "name": "roomId",
              "type": "uint8"
            },
            {
              "internalType": "uint8",
              "name": "parentId",
              "type": "uint8"
            },
            {
              "internalType": "uint256[4]",
              "name": "doors",
              "type": "uint256[4]"
            },
            {
              "internalType": "bool",
              "name": "explored",
              "type": "bool"
            },
            {
              "internalType": "bool",
              "name": "looted",
              "type": "bool"
            },
            {
              "internalType": "bool",
              "name": "hasVent",
              "type": "bool"
            },
            {
              "internalType": "bool",
              "name": "hasHazard",
              "type": "bool"
            }
          ],
          "internalType": "struct BCTypes.GameTile[][]",
          "name": "",
          "type": "tuple[][]"
        }
      ],
      "stateMutability": "view",
      "type": "function"
    },
    {
      "inputs": [
        {
          "internalType": "uint256",
          "name": "_mapId",
          "type": "uint256"
        }
      ],
      "name": "extGetDoors",
      "outputs": [
        {
          "components": [
            {
              "internalType": "uint8",
              "name": "vsBreach",
              "type": "uint8"
            },
            {
              "internalType": "uint8",
              "name": "vsHack",
              "type": "uint8"
            },
            {
              "internalType": "enum BCTypes.DoorStatus",
              "name": "status",
              "type": "uint8"
            }
          ],
          "internalType": "struct BCTypes.Door[]",
          "name": "",
          "type": "tuple[]"
        }
      ],
      "stateMutability": "view",
      "type": "function"
    },
    {
      "inputs": [
        {
          "internalType": "uint256",
          "name": "_mapId",
          "type": "uint256"
        },
        {
          "internalType": "uint256",
          "name": "_row",
          "type": "uint256"
        },
        {
          "internalType": "uint256",
          "name": "_col",
          "type": "uint256"
        }
      ],
      "name": "extGetGameTile",
      "outputs": [
        {
          "components": [
            {
              "internalType": "uint8",
              "name": "roomId",
              "type": "uint8"
            },
            {
              "internalType": "uint8",
              "name": "parentId",
              "type": "uint8"
            },
            {
              "internalType": "uint256[4]",
              "name": "doors",
              "type": "uint256[4]"
            },
            {
              "internalType": "bool",
              "name": "explored",
              "type": "bool"
            },
            {
              "internalType": "bool",
              "name": "looted",
              "type": "bool"
            },
            {
              "internalType": "bool",
              "name": "hasVent",
              "type": "bool"
            },
            {
              "internalType": "bool",
              "name": "hasHazard",
              "type": "bool"
            }
          ],
          "internalType": "struct BCTypes.GameTile",
          "name": "",
          "type": "tuple"
        }
      ],
      "stateMutability": "view",
      "type": "function"
    },
    {
      "inputs": [
        {
          "internalType": "uint256",
          "name": "_mapId",
          "type": "uint256"
        }
      ],
      "name": "extGetMainReactorCoords",
      "outputs": [
        {
          "internalType": "uint256",
          "name": "",
          "type": "uint256"
        },
        {
          "internalType": "uint256",
          "name": "",
          "type": "uint256"
        }
      ],
      "stateMutability": "view",
      "type": "function"
    },
    {
      "inputs": [
        {
          "internalType": "uint256",
          "name": "_mapId",
          "type": "uint256"
        },
        {
          "internalType": "uint256",
          "name": "_row",
          "type": "uint256"
        },
        {
          "internalType": "uint256",
          "name": "_col",
          "type": "uint256"
        }
      ],
      "name": "extGetRoom",
      "outputs": [
        {
          "components": [
            {
              "internalType": "enum BCTypes.BCEventType",
              "name": "eventType",
              "type": "uint8"
            },
            {
              "internalType": "uint256",
              "name": "eventNum",
              "type": "uint256"
            },
            {
              "internalType": "uint8",
              "name": "numItems",
              "type": "uint8"
            },
            {
              "internalType": "uint8",
              "name": "numData",
              "type": "uint8"
            },
            {
              "internalType": "bool",
              "name": "sigDetected",
              "type": "bool"
            }
          ],
          "internalType": "struct BCTypes.RoomTile",
          "name": "",
          "type": "tuple"
        }
      ],
      "stateMutability": "view",
      "type": "function"
    },
    {
      "inputs": [
        {
          "internalType": "uint256",
          "name": "_mapId",
          "type": "uint256"
        },
        {
          "internalType": "uint256",
          "name": "_roomId",
          "type": "uint256"
        }
      ],
      "name": "extGetRoomById",
      "outputs": [
        {
          "components": [
            {
              "internalType": "enum BCTypes.BCEventType",
              "name": "eventType",
              "type": "uint8"
            },
            {
              "internalType": "uint256",
              "name": "eventNum",
              "type": "uint256"
            },
            {
              "internalType": "uint8",
              "name": "numItems",
              "type": "uint8"
            },
            {
              "internalType": "uint8",
              "name": "numData",
              "type": "uint8"
            },
            {
              "internalType": "bool",
              "name": "sigDetected",
              "type": "bool"
            }
          ],
          "internalType": "struct BCTypes.RoomTile",
          "name": "",
          "type": "tuple"
        }
      ],
      "stateMutability": "view",
      "type": "function"
    },
    {
      "inputs": [
        {
          "internalType": "uint256",
          "name": "_mapId",
          "type": "uint256"
        },
        {
          "internalType": "uint256",
          "name": "row",
          "type": "uint256"
        },
        {
          "internalType": "uint256",
          "name": "col",
          "type": "uint256"
        }
      ],
      "name": "extGetRoomId",
      "outputs": [
        {
          "internalType": "uint256",
          "name": "",
          "type": "uint256"
        }
      ],
      "stateMutability": "view",
      "type": "function"
    },
    {
      "inputs": [
        {
          "internalType": "uint256",
          "name": "_mapId",
          "type": "uint256"
        }
      ],
      "name": "extGetRoomList",
      "outputs": [
        {
          "components": [
            {
              "internalType": "enum BCTypes.BCEventType",
              "name": "eventType",
              "type": "uint8"
            },
            {
              "internalType": "uint256",
              "name": "eventNum",
              "type": "uint256"
            },
            {
              "internalType": "uint8",
              "name": "numItems",
              "type": "uint8"
            },
            {
              "internalType": "uint8",
              "name": "numData",
              "type": "uint8"
            },
            {
              "internalType": "bool",
              "name": "sigDetected",
              "type": "bool"
            }
          ],
          "internalType": "struct BCTypes.RoomTile[]",
          "name": "",
          "type": "tuple[]"
        }
      ],
      "stateMutability": "view",
      "type": "function"
    },
    {
      "inputs": [
        {
          "internalType": "uint256",
          "name": "_mapId",
          "type": "uint256"
        },
        {
          "internalType": "uint256",
          "name": "_row",
          "type": "uint256"
        },
        {
          "internalType": "uint256",
          "name": "_col",
          "type": "uint256"
        },
        {
          "internalType": "bool",
          "name": "_hasHazard",
          "type": "bool"
        }
      ],
      "name": "extSetHazardStatus",
      "outputs": [],
      "stateMutability": "nonpayable",
      "type": "function"
    },
    {
      "inputs": [
        {
          "internalType": "uint256",
          "name": "_mapId",
          "type": "uint256"
        },
        {
          "internalType": "uint256",
          "name": "_distance",
          "type": "uint256"
        }
      ],
      "name": "extSpreadHazards",
      "outputs": [],
      "stateMutability": "nonpayable",
      "type": "function"
    },
    {
      "inputs": [],
      "name": "game",
      "outputs": [
        {
          "internalType": "address",
          "name": "",
          "type": "address"
        }
      ],
      "stateMutability": "view",
      "type": "function"
    },
    {
      "inputs": [
        {
          "components": [
            {
              "internalType": "uint8",
              "name": "row",
              "type": "uint8"
            },
            {
              "internalType": "uint8",
              "name": "col",
              "type": "uint8"
            }
          ],
          "internalType": "struct BCTypes.Position",
          "name": "_firstRoom",
          "type": "tuple"
        },
        {
          "components": [
            {
              "internalType": "uint8",
              "name": "row",
              "type": "uint8"
            },
            {
              "internalType": "uint8",
              "name": "col",
              "type": "uint8"
            }
          ],
          "internalType": "struct BCTypes.Position",
          "name": "_secondRoom",
          "type": "tuple"
        }
      ],
      "name": "getDirectionBetween",
      "outputs": [
        {
          "internalType": "uint256",
          "name": "",
          "type": "uint256"
        }
      ],
      "stateMutability": "pure",
      "type": "function"
    },
    {
      "inputs": [
        {
          "internalType": "uint256",
          "name": "_mapId",
          "type": "uint256"
        },
        {
          "internalType": "uint256",
          "name": "_row",
          "type": "uint256"
        },
        {
          "internalType": "uint256",
          "name": "_col",
          "type": "uint256"
        },
        {
          "internalType": "uint256",
          "name": "_direction",
          "type": "uint256"
        }
      ],
      "name": "getDoor",
      "outputs": [
        {
          "components": [
            {
              "internalType": "uint8",
              "name": "vsBreach",
              "type": "uint8"
            },
            {
              "internalType": "uint8",
              "name": "vsHack",
              "type": "uint8"
            },
            {
              "internalType": "enum BCTypes.DoorStatus",
              "name": "status",
              "type": "uint8"
            }
          ],
          "internalType": "struct BCTypes.Door",
          "name": "",
          "type": "tuple"
        }
      ],
      "stateMutability": "view",
      "type": "function"
    },
    {
      "inputs": [
        {
          "internalType": "uint256",
          "name": "_mapId",
          "type": "uint256"
        },
        {
          "internalType": "uint256",
          "name": "_row",
          "type": "uint256"
        },
        {
          "internalType": "uint256",
          "name": "_col",
          "type": "uint256"
        }
      ],
      "name": "getDoorDirections",
      "outputs": [
        {
          "internalType": "bool[4]",
          "name": "",
          "type": "bool[4]"
        }
      ],
      "stateMutability": "view",
      "type": "function"
    },
    {
      "inputs": [
        {
          "internalType": "uint256",
          "name": "_gameId",
          "type": "uint256"
        }
      ],
      "name": "getEventBlocks",
      "outputs": [
        {
          "internalType": "uint256[]",
          "name": "",
          "type": "uint256[]"
        }
      ],
      "stateMutability": "view",
      "type": "function"
    },
    {
      "inputs": [
        {
          "internalType": "uint256",
          "name": "_mapId",
          "type": "uint256"
        },
        {
          "components": [
            {
              "internalType": "uint8",
              "name": "row",
              "type": "uint8"
            },
            {
              "internalType": "uint8",
              "name": "col",
              "type": "uint8"
            }
          ],
          "internalType": "struct BCTypes.Position",
          "name": "_first",
          "type": "tuple"
        },
        {
          "components": [
            {
              "internalType": "uint8",
              "name": "row",
              "type": "uint8"
            },
            {
              "internalType": "uint8",
              "name": "col",
              "type": "uint8"
            }
          ],
          "internalType": "struct BCTypes.Position",
          "name": "_second",
          "type": "tuple"
        },
        {
          "internalType": "bool",
          "name": "_ignoreClosed",
          "type": "bool"
        }
      ],
      "name": "getLineOfSight",
      "outputs": [
        {
          "internalType": "bool",
          "name": "",
          "type": "bool"
        }
      ],
      "stateMutability": "view",
      "type": "function"
    },
    {
      "inputs": [
        {
          "internalType": "uint256",
          "name": "_direction",
          "type": "uint256"
        },
        {
          "components": [
            {
              "internalType": "uint8",
              "name": "row",
              "type": "uint8"
            },
            {
              "internalType": "uint8",
              "name": "col",
              "type": "uint8"
            }
          ],
          "internalType": "struct BCTypes.Position",
          "name": "_start",
          "type": "tuple"
        }
      ],
      "name": "getNeighborRoom",
      "outputs": [
        {
          "components": [
            {
              "internalType": "uint8",
              "name": "row",
              "type": "uint8"
            },
            {
              "internalType": "uint8",
              "name": "col",
              "type": "uint8"
            }
          ],
          "internalType": "struct BCTypes.Position",
          "name": "",
          "type": "tuple"
        }
      ],
      "stateMutability": "pure",
      "type": "function"
    },
    {
      "inputs": [
        {
          "internalType": "uint256",
          "name": "_traitNum",
          "type": "uint256"
        },
        {
          "internalType": "uint256",
          "name": "_subTraitNum",
          "type": "uint256"
        }
      ],
      "name": "getUIOffset",
      "outputs": [
        {
          "internalType": "uint256",
          "name": "",
          "type": "uint256"
        }
      ],
      "stateMutability": "pure",
      "type": "function"
    },
    {
      "inputs": [
        {
          "components": [
            {
              "internalType": "uint8",
              "name": "row",
              "type": "uint8"
            },
            {
              "internalType": "uint8",
              "name": "col",
              "type": "uint8"
            }
          ],
          "internalType": "struct BCTypes.Position",
          "name": "_pos1",
          "type": "tuple"
        },
        {
          "components": [
            {
              "internalType": "uint8",
              "name": "row",
              "type": "uint8"
            },
            {
              "internalType": "uint8",
              "name": "col",
              "type": "uint8"
            }
          ],
          "internalType": "struct BCTypes.Position",
          "name": "_pos2",
          "type": "tuple"
        }
      ],
      "name": "manhattanDistance",
      "outputs": [
        {
          "internalType": "uint256",
          "name": "",
          "type": "uint256"
        }
      ],
      "stateMutability": "pure",
      "type": "function"
    },
    {
      "inputs": [
        {
          "internalType": "uint256",
          "name": "",
          "type": "uint256"
        }
      ],
      "name": "maps",
      "outputs": [
        {
          "internalType": "uint8",
          "name": "numDoors",
          "type": "uint8"
        },
        {
          "components": [
            {
              "internalType": "uint8",
              "name": "row",
              "type": "uint8"
            },
            {
              "internalType": "uint8",
              "name": "col",
              "type": "uint8"
            }
          ],
          "internalType": "struct BCTypes.Position",
          "name": "startPosition",
          "type": "tuple"
        },
        {
          "internalType": "uint256",
          "name": "mainReactorRow",
          "type": "uint256"
        },
        {
          "internalType": "uint256",
          "name": "mainReactorCol",
          "type": "uint256"
        }
      ],
      "stateMutability": "view",
      "type": "function"
    },
    {
      "inputs": [
        {
          "internalType": "uint256",
          "name": "_mapId",
          "type": "uint256"
        },
        {
          "components": [
            {
              "internalType": "uint8",
              "name": "row",
              "type": "uint8"
            },
            {
              "internalType": "uint8",
              "name": "col",
              "type": "uint8"
            }
          ],
          "internalType": "struct BCTypes.Position",
          "name": "_start",
          "type": "tuple"
        },
        {
          "components": [
            {
              "internalType": "uint8",
              "name": "row",
              "type": "uint8"
            },
            {
              "internalType": "uint8",
              "name": "col",
              "type": "uint8"
            }
          ],
          "internalType": "struct BCTypes.Position",
          "name": "_finish",
          "type": "tuple"
        },
        {
          "internalType": "bool",
          "name": "_ignoreClosed",
          "type": "bool"
        },
        {
          "internalType": "bool",
          "name": "_useVents",
          "type": "bool"
        },
        {
          "internalType": "uint256",
          "name": "_moveLimit",
          "type": "uint256"
        }
      ],
      "name": "moveToOrCloser",
      "outputs": [
        {
          "components": [
            {
              "internalType": "uint8",
              "name": "row",
              "type": "uint8"
            },
            {
              "internalType": "uint8",
              "name": "col",
              "type": "uint8"
            }
          ],
          "internalType": "struct BCTypes.Position",
          "name": "",
          "type": "tuple"
        }
      ],
      "stateMutability": "view",
      "type": "function"
    },
    {
      "inputs": [
        {
          "internalType": "uint256",
          "name": "_min",
          "type": "uint256"
        },
        {
          "internalType": "uint256",
          "name": "_max",
          "type": "uint256"
        },
        {
          "internalType": "uint256",
          "name": "_val",
          "type": "uint256"
        },
        {
          "internalType": "uint256",
          "name": "_valMax",
          "type": "uint256"
        }
      ],
      "name": "normalizeToSmallRange",
      "outputs": [
        {
          "internalType": "uint8",
          "name": "",
          "type": "uint8"
        }
      ],
      "stateMutability": "pure",
      "type": "function"
    },
    {
      "inputs": [],
      "name": "numRooms",
      "outputs": [
        {
          "internalType": "uint256",
          "name": "",
          "type": "uint256"
        }
      ],
      "stateMutability": "view",
      "type": "function"
    },
    {
      "inputs": [
        {
          "internalType": "uint256",
          "name": "_direction",
          "type": "uint256"
        }
      ],
      "name": "opposite",
      "outputs": [
        {
          "internalType": "uint256",
          "name": "",
          "type": "uint256"
        }
      ],
      "stateMutability": "pure",
      "type": "function"
    },
    {
      "inputs": [],
      "name": "owner",
      "outputs": [
        {
          "internalType": "address",
          "name": "",
          "type": "address"
        }
      ],
      "stateMutability": "view",
      "type": "function"
    },
    {
      "inputs": [],
      "name": "playersAddress",
      "outputs": [
        {
          "internalType": "address",
          "name": "",
          "type": "address"
        }
      ],
      "stateMutability": "view",
      "type": "function"
    },
    {
      "inputs": [],
      "name": "randKeccak",
      "outputs": [
        {
          "internalType": "bytes32",
          "name": "",
          "type": "bytes32"
        }
      ],
      "stateMutability": "nonpayable",
      "type": "function"
    },
    {
      "inputs": [],
      "name": "renounceOwnership",
      "outputs": [],
      "stateMutability": "nonpayable",
      "type": "function"
    },
    {
      "inputs": [
        {
          "internalType": "uint256",
          "name": "_mapId",
          "type": "uint256"
        }
      ],
      "name": "resetOpenDoors",
      "outputs": [],
      "stateMutability": "nonpayable",
      "type": "function"
    },
    {
      "inputs": [
        {
          "internalType": "uint256",
          "name": "_gameId",
          "type": "uint256"
        },
        {
          "internalType": "uint256",
          "name": "_for",
          "type": "uint256"
        },
        {
          "internalType": "uint256",
          "name": "_against",
          "type": "uint256"
        }
      ],
      "name": "resolveChallenge",
      "outputs": [
        {
          "internalType": "bool",
          "name": "",
          "type": "bool"
        }
      ],
      "stateMutability": "nonpayable",
      "type": "function"
    },
    {
      "inputs": [
        {
          "internalType": "uint256",
          "name": "_gameId",
          "type": "uint256"
        }
      ],
      "name": "roll",
      "outputs": [
        {
          "internalType": "uint256",
          "name": "",
          "type": "uint256"
        }
      ],
      "stateMutability": "nonpayable",
      "type": "function"
    },
    {
      "inputs": [
        {
          "internalType": "uint256",
          "name": "",
          "type": "uint256"
        }
      ],
      "name": "roomList",
      "outputs": [
        {
          "internalType": "enum BCTypes.BCEventType",
          "name": "eventType",
          "type": "uint8"
        },
        {
          "internalType": "uint256",
          "name": "eventNum",
          "type": "uint256"
        },
        {
          "internalType": "uint8",
          "name": "numItems",
          "type": "uint8"
        },
        {
          "internalType": "uint8",
          "name": "numData",
          "type": "uint8"
        },
        {
          "internalType": "bool",
          "name": "sigDetected",
          "type": "bool"
        }
      ],
      "stateMutability": "view",
      "type": "function"
    },
    {
      "inputs": [],
      "name": "roomTiles",
      "outputs": [
        {
          "internalType": "contract RoomTileInterface",
          "name": "",
          "type": "address"
        }
      ],
      "stateMutability": "view",
      "type": "function"
    },
    {
      "inputs": [
        {
          "internalType": "address",
          "name": "_gameAddress",
          "type": "address"
        },
        {
          "internalType": "address",
          "name": "_utilsAddress",
          "type": "address"
        },
        {
          "internalType": "address",
          "name": "_roomTilesAddress",
          "type": "address"
        },
        {
          "internalType": "address",
          "name": "_actionsAddress",
          "type": "address"
        },
        {
          "internalType": "address",
          "name": "_playersAddress",
          "type": "address"
        }
      ],
      "name": "setContractAddresses",
      "outputs": [],
      "stateMutability": "nonpayable",
      "type": "function"
    },
    {
      "inputs": [
        {
          "internalType": "uint256",
          "name": "_mapId",
          "type": "uint256"
        },
        {
          "internalType": "uint256",
          "name": "_row",
          "type": "uint256"
        },
        {
          "internalType": "uint256",
          "name": "_col",
          "type": "uint256"
        },
        {
          "internalType": "uint256",
          "name": "_direction",
          "type": "uint256"
        },
        {
          "internalType": "enum BCTypes.DoorStatus",
          "name": "_status",
          "type": "uint8"
        },
        {
          "internalType": "uint256",
          "name": "_strength",
          "type": "uint256"
        }
      ],
      "name": "setDoorFromPos",
      "outputs": [],
      "stateMutability": "nonpayable",
      "type": "function"
    },
    {
      "inputs": [
        {
          "internalType": "uint256",
          "name": "_mapId",
          "type": "uint256"
        },
        {
          "internalType": "uint256",
          "name": "_row",
          "type": "uint256"
        },
        {
          "internalType": "uint256",
          "name": "_col",
          "type": "uint256"
        }
      ],
      "name": "setLooted",
      "outputs": [],
      "stateMutability": "nonpayable",
      "type": "function"
    },
    {
      "inputs": [
        {
          "internalType": "bytes32",
          "name": "_hash",
          "type": "bytes32"
        },
        {
          "internalType": "uint256",
          "name": "_size",
          "type": "uint256"
        },
        {
          "internalType": "uint256",
          "name": "_offset",
          "type": "uint256"
        }
      ],
      "name": "sliceHashToSmallInt",
      "outputs": [
        {
          "internalType": "uint8",
          "name": "",
          "type": "uint8"
        }
      ],
      "stateMutability": "pure",
      "type": "function"
    },
    {
      "inputs": [
        {
          "internalType": "uint8",
          "name": "_min",
          "type": "uint8"
        },
        {
          "internalType": "uint8",
          "name": "_max",
          "type": "uint8"
        }
      ],
      "name": "smallIntBetweenVals",
      "outputs": [
        {
          "internalType": "uint8",
          "name": "",
          "type": "uint8"
        }
      ],
      "stateMutability": "nonpayable",
      "type": "function"
    },
    {
      "inputs": [
        {
          "internalType": "address",
          "name": "newOwner",
          "type": "address"
        }
      ],
      "name": "transferOwnership",
      "outputs": [],
      "stateMutability": "nonpayable",
      "type": "function"
    }
  ],
  "transactionHash": "0xd8acb7bdd84e5645f22b46f100a62059c6ef961bfbefebbeebc244849e7062ee",
  "args": [],
  "numDeployments": 1,
  "solcInputHash": "09ba6ab3777d68b39ee20a31daf155c0",
  "bytecode": "0x608060405260006001553480156200001657600080fd5b50620000223362000028565b62000078565b600080546001600160a01b038381166001600160a01b0319831681178455604051919092169283917f8be0079c531659141344cd1fd0a4f28419497f9722a3daafe3b4186f6b6457e09190a35050565b6147c680620000886000396000f3fe608060405234801561001057600080fd5b50600436106102745760003560e01c80637b45c0d411610151578063c6b41b45116100c3578063f10bff2b11610087578063f10bff2b14610643578063f2fde38b14610656578063f7157f6414610669578063f9dfbfcb1461067c578063fa3993c21461069c578063fe368d7a146106af57600080fd5b8063c6b41b45146105ef578063c8e9ac9614610602578063ce28613f14610615578063e847ae1e14610628578063f01fc35a1461063b57600080fd5b80638da5cb5b116101155780638da5cb5b1461053a578063951fc3fe1461054b57806397f34c3f1461055e578063a63a9aab14610571578063b14ca575146105c9578063c3fe3e28146105dc57600080fd5b80637b45c0d4146104ce57806381bad36d146104e15780638214f222146104f457806386e529d0146105075780638af13fd21461051a57600080fd5b806353011696116101ea5780635f8951e6116101ae5780635f8951e61461042857806364db84bf1461045057806369568fd5146104635780636ea1dcd814610483578063715018a6146104a357806375990a0e146104ab57600080fd5b806353011696146103b557806358058283146103da57806358308aa8146103ed57806359215223146104025780635dc969671461041557600080fd5b80631cdec3ad1161023c5780631cdec3ad1461032e5780631e1de205146103375780631ef044161461033f5780631f7b4f301461035f5780632ec6572a1461037257806345e1e03c1461039557600080fd5b806302861c6c1461027957806303b414e4146102a25780630e73c024146102cd57806315636a4d146102ed5780631b5ac4b51461030d575b600080fd5b61028c610287366004613c74565b6106c2565b6040516102999190613d09565b60405180910390f35b6006546102b5906001600160a01b031681565b6040516001600160a01b039091168152602001610299565b6102e06102db366004613d17565b610791565b6040516102999190613d30565b6103006102fb366004613c74565b6107b1565b6040516102999190613d74565b61032061031b366004613d17565b6108f6565b604051908152602001610299565b61032060085481565b610320610912565b61035261034d366004613d17565b61098a565b6040516102999190613e1e565b61032061036d366004613d17565b610b7e565b610385610380366004613f57565b610bda565b6040519015158152602001610299565b6103a86103a3366004613fa8565b610da9565b6040516102999190614017565b6103c86103c3366004614035565b6111df565b60405160ff9091168152602001610299565b61028c6103e8366004614067565b61121c565b6104006103fb366004613d17565b6112a5565b005b610400610410366004614089565b6113b2565b610385610423366004613c74565b611559565b61043b610436366004613d17565b6115f4565b60408051928352602083019190915201610299565b61032061045e366004614067565b61164a565b610476610471366004613d17565b611662565b6040516102999190614116565b610496610491366004614035565b6117c2565b6040516102999190614158565b610400611900565b6104be6104b9366004613d17565b611914565b6040516102999493929190614166565b6005546102b5906001600160a01b031681565b6103206104ef366004614035565b611975565b610320610502366004613d17565b611a65565b610400610515366004613c74565b611adf565b61052d610528366004613d17565b611b92565b604051610299919061419f565b6000546001600160a01b03166102b5565b6103a86105593660046141e1565b611ca5565b6103c861056c366004613c74565b611dcf565b6105b861057f366004613d17565b60076020526000908152604090208054600182015460029092015460ff9182169291818116916101008104821691620100009091041685565b60405161029995949392919061420e565b6104006105d7366004614035565b611dfa565b6003546102b5906001600160a01b031681565b6104006105fd366004614067565b611e56565b610320610610366004613c74565b6121b3565b6103c8610623366004614246565b6121fb565b61040061063636600461429b565b6122ab565b61032061230f565b610320610651366004614300565b612548565b61040061066436600461432c565b612595565b6004546102b5906001600160a01b031681565b61068f61068a366004613c74565b61260e565b6040516102999190614347565b6103206106aa366004614300565b6126f2565b6104006106bd366004614356565b6127ba565b6106ca613ad0565b60076000600986815481106106e1576106e161438c565b600091825260208083208884526001600790930201919091018152604080832087845282528083205460ff9081168552918401949094529183019020825160a0810190935280549091839116600581111561073e5761073e613ca0565b600581111561074f5761074f613ca0565b81526001820154602082015260029091015460ff80821660408401526101008204811660608401526201000090910416151560809091015290505b9392505050565b60008181526002602052604090206060906107ab90612869565b92915050565b6107b9613b01565b6000600985815481106107ce576107ce61438c565b600091825260208083208784526001600790930201820181526040808420878552909152909120019050610800613b01565b60005b60048110156108ec576000600988815481106108215761082161438c565b906000526020600020906007020160020160008584600481106108465761084661438c565b015481526020810191909152604001600020805490915062010000900460ff16600181600481111561087a5761087a613ca0565b14806108975750600281600481111561089557610895613ca0565b145b806108b3575060038160048111156108b1576108b1613ca0565b145b156108d75760018484600481106108cc576108cc61438c565b911515602090920201525b505080806108e4906143b8565b915050610803565b5095945050505050565b60008082121561090e57610909826143d1565b6107ab565b5090565b6001805460009182610923836143b8565b919050555060015460014361093891906143ed565b403360405160200161096f93929190928352602083019190915260601b6bffffffffffffffffffffffff1916604082015260540190565b60405160208183030381529060405280519060200120905090565b60408051600b808252610180820190925260609160009190816020015b60608152602001906001900390816109a757905050905060005b600b811015610a2c5760408051600b808252610180820190925290816020015b6109e9613b1f565b8152602001906001900390816109e157905050828281518110610a0e57610a0e61438c565b60200260200101819052508080610a24906143b8565b9150506109c1565b5060005b600b811015610b775760005b600b811015610b645760098581548110610a5857610a5861438c565b600091825260208083208584526001600790930201820181526040808420858552825292839020835160e081018552815460ff808216835261010090910416928101929092528351608081018552919390929084019190830160048282826020028201915b815481526020019060010190808311610abd5750505091835250506005919091015460ff80821615156020840152610100820481161515604084015262010000820481161515606084015263010000009091041615156080909101528351849084908110610b2d57610b2d61438c565b60200260200101518281518110610b4657610b4661438c565b60200260200101819052508080610b5c906143b8565b915050610a3c565b5080610b6f816143b8565b915050610a30565b5092915050565b600080610b8d600160066121fb565b60ff1690507ffe34d093a460a16ee5fb374540914d1c734a17502c0c1a87b387c8d6097e1c518382604051610bcc929190918252602082015260400190565b60405180910390a192915050565b8151835160009160ff9182169116148015610c025750826020015160ff16846020015160ff16145b15610c0f57506001610da1565b8251845160ff908116911614801590610c365750826020015160ff16846020015160ff1614155b15610c4357506000610da1565b8251845160009160ff908116911603610c77578451845160ff91821691161115610c6f57506002610c99565b506003610c99565b846020015160ff16846020015160ff161115610c9557506001610c99565b5060005b6000859050600060098881548110610cb357610cb361438c565b906000526020600020906007020190505b8551825160ff9081169116148015610ce95750856020015160ff16826020015160ff16145b610d995760008381526002820160205260409020858015610d2557506001815462010000900460ff166004811115610d2357610d23613ca0565b145b80610d7057506002815462010000900460ff166004811115610d4957610d49613ca0565b1480610d7057506003815462010000900460ff166004811115610d6e57610d6e613ca0565b145b15610d8657610d7f8484611ca5565b9250610d93565b6000945050505050610da1565b50610cc4565b600193505050505b949350505050565b6040805180820190915260008082526020820152610dc5613b3e565b600181886000015160ff16600b8110610de057610de061438c565b6020020151886020015160ff16600b8110610dfd57610dfd61438c565b91151560209092020152610e0f613b6c565b60408051600180825281830190925260009190829082816020015b6040805180820190915260008082526020820152815260200190600190039081610e2a5790505090508a81600081518110610e6757610e6761438c565b60209081029190910101528084525b6000610e8284846143ed565b11156111cc5760198210610e9d578a955050505050506111d5565b6000848460198110610eb157610eb161438c565b6020020151905060008160018351610ec991906143ed565b81518110610ed957610ed961438c565b602002602001015190508480610eee906143b8565b9550506000610eff8f838e8e612876565b905060005b60048110156111c3576000828260048110610f2157610f2161438c565b6020020151805190915060ff16158015610f405750602081015160ff16155b15610f4b57506111b1565b80518a9060ff16600b8110610f6257610f6261438c565b6020020151816020015160ff16600b8110610f7f57610f7f61438c565b602002015115610f8f57506111b1565b8e51815160ff9081169116148015610fb457508e6020015160ff16816020015160ff16145b15611014578b85516001610fc89190614400565b11610fdf578e9a50505050505050505050506111d5565b84610feb60018e6143ed565b81518110610ffb57610ffb61438c565b60200260200101519a50505050505050505050506111d5565b60018a826000015160ff16600b811061102f5761102f61438c565b6020020151826020015160ff16600b811061104c5761104c61438c565b911515602090920201528451600090611066906001614400565b67ffffffffffffffff81111561107e5761107e613eb3565b6040519080825280602002602001820160405280156110c357816020015b604080518082019091526000808252602082015281526020019060019003908161109c5790505b50905060005b600182516110d791906143ed565b811015611128578681815181106110f0576110f061438c565b602002602001015182828151811061110a5761110a61438c565b60200260200101819052508080611120906143b8565b9150506110c9565b5081816001835161113991906143ed565b815181106111495761114961438c565b6020026020010181905250808a89601981106111675761116761438c565b602002015287611176816143b8565b985050601988036111ae57806000815181106111945761119461438c565b60200260200101519b5050505050505050505050506111d5565b50505b806111bb816143b8565b915050610f04565b50505050610e76565b8a955050505050505b9695505050505050565b6000806111ec86866143ed565b90506000836111fb8684614413565b6112059190614440565b90506112118782614400565b979650505050505050565b611224613ad0565b60008281526007602052604090819020815160a081019092528054829060ff16600581111561125557611255613ca0565b600581111561126657611266613ca0565b81526001820154602082015260029091015460ff8082166040840152610100820481166060840152620100009091041615156080909101529392505050565b6003546001600160a01b031633146112bc57600080fd5b60005b600982815481106112d2576112d261438c565b600091825260209091206003600790920201015460ff168110156113ae576002600983815481106113055761130561438c565b600091825260208083208584526007929092029091016002019052604090205462010000900460ff16600481111561133f5761133f613ca0565b0361139c576001600983815481106113595761135961438c565b60009182526020808320858452600260079093020191909101905260409020805462ff000019166201000083600481111561139657611396613ca0565b02179055505b806113a6816143b8565b9150506112bf565b5050565b6003546001600160a01b03163314806113d557506005546001600160a01b031633145b806113ea57506006546001600160a01b031633145b6114455760405162461bcd60e51b815260206004820152602160248201527f4e6f742067616d652f616374696f6e732f706c617965727320636f6e747261636044820152601d60fa1b60648201526084015b60405180910390fd5b60006009878154811061145a5761145a61438c565b600091825260208083208984526001600790930201820181526040808420898552909152918290208251608081019093520160048282826020028201915b81548152602001906001019080831161149857505050505090506000600988815481106114c7576114c761438c565b906000526020600020906007020160020160008387600481106114ec576114ec61438c565b602002015181526020019081526020016000209050838160000160026101000a81548160ff0219169083600481111561152757611527613ca0565b0217905550821561154f57805461ffff191661010060ff851690810260ff1916919091171781555b5050505050505050565b60008061156585610b7e565b6040805187815260208101839052908101869052606081018590529091507f75b6a8325595f91135e07382840634226793c68c9e59623da7e10d7ad3d95b959060800160405180910390a1806001036115c257600091505061078a565b6003836115cf8684614400565b6115d99190614454565b13156115e957600191505061078a565b506000949350505050565b6000806009838154811061160a5761160a61438c565b9060005260206000209060070201600501546009848154811061162f5761162f61438c565b90600052602060002090600702016006015491509150915091565b600081611658846004614413565b61078a9190614400565b60606000600983815481106116795761167961438c565b600091825260209091206003600790920201015460ff1667ffffffffffffffff8111156116a8576116a8613eb3565b6040519080825280602002602001820160405280156116fa57816020015b6116e760408051606081018252600080825260208201819052909182015290565b8152602001906001900390816116c65790505b50905060005b8151811015610b77576009848154811061171c5761171c61438c565b6000918252602080832084845260026007909302019190910181526040918290208251606081018452815460ff8082168352610100820481169483019490945290939192918401916201000090910416600481111561177d5761177d613ca0565b600481111561178e5761178e613ca0565b815250508282815181106117a4576117a461438c565b602002602001018190525080806117ba906143b8565b915050611700565b6117e360408051606081018252600080825260208201819052909182015290565b6000600986815481106117f8576117f861438c565b600091825260208083208884526001600790930201820181526040808420888552909152918290208251608081019093520160048282826020028201915b8154815260200190600101908083116118365750505050509050600986815481106118635761186361438c565b906000526020600020906007020160020160008285600481106118885761188861438c565b6020908102919091015182528181019290925260409081016000208151606081018352815460ff8082168352610100820481169583019590955290939192840191620100009091041660048111156118e2576118e2613ca0565b60048111156118f3576118f3613ca0565b9052509695505050505050565b611908612abf565b6119126000612b19565b565b6009818154811061192457600080fd5b600091825260209182902060036007909202019081015460408051808201909152600483015460ff818116835261010090910481169482019490945260058301546006909301549390911693509184565b6003546000906001600160a01b0316331461198f57600080fd5b6000600986815481106119a4576119a461438c565b60009182526020808320888452600160079093020191909101815260408083208784529091529020905082156119e857805460ff191660ff84161790555080610da1565b805460ff1660631901611a0a57805460ff191660129081179091559050610da1565b805460ff1660001901611a5957611a4060098781548110611a2d57611a2d61438c565b9060005260206000209060070201612b69565b815460ff191660ff919091169081179091559050610da1565b50600095945050505050565b600081600003611a7757506001919050565b81600103611a8757506000919050565b81600203611a9757506003919050565b81600303611aa757506002919050565b60405162461bcd60e51b815260206004820152600d60248201526c2130b2103234b932b1ba34b7b760991b604482015260640161143c565b6005546001600160a01b03163314611b395760405162461bcd60e51b815260206004820181905260248201527f4e6f7420616374696f6e7320636f6e7472616374202d207365744c6f6f746564604482015260640161143c565b600160098481548110611b4e57611b4e61438c565b6000918252602080832095835260016007909202909501018452604080822093825292909352912060050180549115156101000261ff001990921691909117905550565b6060600060085467ffffffffffffffff811115611bb157611bb1613eb3565b604051908082528060200260200182016040528015611bea57816020015b611bd7613ad0565b815260200190600190039081611bcf5790505b50905060005b8151811015610b775760008181526007602052604090819020815160a081019092528054829060ff166005811115611c2a57611c2a613ca0565b6005811115611c3b57611c3b613ca0565b81526001820154602082015260029091015460ff8082166040840152610100820481166060840152620100009091041615156080909101528251839083908110611c8757611c8761438c565b60200260200101819052508080611c9d906143b8565b915050611bf0565b604080518082019091526000808252602082015282600003611cf757604051806040016040528060018460000151611cdd9190614474565b60ff168152602001836020015160ff1681525090506107ab565b82600103611d1b57604051806040016040528083600001516001611cdd919061448d565b82600203611d58576040518060400160405280836000015160ff16815260200183602001516001611d4c919061448d565b60ff16905290506107ab565b82600303611d89576040518060400160405280836000015160ff16815260200160018460200151611d4c9190614474565b6000611d9484612c9b565b604051602001611da491906144ca565b60405160208183030381529060405290508060405162461bcd60e51b815260040161143c9190614505565b600080826001611de086600261461c565b611dea91906143ed565b901b8516831c9150509392505050565b611e02612abf565b8060098581548110611e1657611e1661438c565b60009182526020808320968352600791909102909501600101855260408082209482529390945291909220805460ff191660ff9092169190911790555050565b6003546001600160a01b03163314611e6d57600080fd5b611e75613b3e565b60005b828110156121ad5760005b600b811015611f385760005b600b811015611f255760098681548110611eab57611eab61438c565b60009182526020808320858452600792909202909101600101815260408083208484529091529020600501546301000000900460ff168483600b8110611ef357611ef361438c565b602002015182600b8110611f0957611f0961438c565b9115156020909202015280611f1d816143b8565b915050611e8f565b5080611f30816143b8565b915050611e83565b5060005b600b81101561219a5760005b600b811015612187578382600b8110611f6357611f6361438c565b602002015181600b8110611f7957611f7961438c565b6020020151156121755760005b600481101561217357600060098881548110611fa457611fa461438c565b600091825260208083208784526001600790930201820181526040808420878552909152909120018260048110611fdd57611fdd61438c565b01549050600060098981548110611ff657611ff661438c565b600091825260208083208584526007929092029091016002019052604090205462010000900460ff169050600381600481111561203557612035613ca0565b0361215e5784158015612046575082155b15612052575050612161565b61205e6001600b6143ed565b8514801561206c5750826001145b15612078575050612161565b831580156120865750826003145b15612092575050612161565b61209e6001600b6143ed565b841480156120ac5750826002145b156120b8575050612161565b60006120de8460405180604001604052808960ff1681526020018860ff16815250611ca5565b9050600060098b815481106120f5576120f561438c565b60009182526020808320855160ff908116855260079390930201600101815260408084208683015184168552909152909120805490925016158015906121405750805460ff16600214155b1561215b5760058101805463ff000000191663010000001790555b50505b50505b8061216b816143b8565b915050611f86565b505b8061217f816143b8565b915050611f48565b5080612192816143b8565b915050611f3c565b50806121a5816143b8565b915050611e78565b50505050565b6000600984815481106121c8576121c861438c565b6000918252602080832095835260079190910290940160010184526040808220938252929093525090205460ff16919050565b600180546000918261220c836143b8565b919050555060003360015460014361222491906143ed565b60405160609390931b6bffffffffffffffffffffffff19166020840152603483019190915240605482015260740160408051601f198184030181529190528051602090910120905060006122788585614474565b61228390600161448d565b90508460ff168160ff16836122989190614628565b6122a29190614400565b95945050505050565b6122b3612abf565b600380546001600160a01b038088166001600160a01b03199283161790925560048054868416908316179055600580548584169083161790556006805492841692909116919091179055612305612d9c565b6008555050505050565b6003546000906001600160a01b0316331461232957600080fd5b6009805460018101825560008290526040805161034081018252600381526004602082015260059181019190915260066060820152600760808201819052600860a083015260c0820193909352600a60e0820152600b610100820152600c610120820152600d610140820152600e610160820152600f61018082015260106101a082015260116101c082015260136101e08201526014610200820152601561022082015260166102408201526017610260820152601861028082015260196102a0820152601a6102c08201819052601b6102e0830152601c610300830152601d610320830152929091027f6e1540171b6c0c960b71a7020d9f60077f6af931a8bbf590da0223dacf75c7af01916124439083908390613b94565b506040805160608101825260ff808252602082015290810160009052600383015460ff9081166000908152600285016020908152604091829020845181549286015185166101000261ffff19909316941693909317178083559083015190829062ff00001916620100008360048111156124bf576124bf613ca0565b0217905550505060038201805460ff169060006124db8361463c565b82546101009290920a60ff8181021990931691909216919091021790555060408051808201909152600a8152600660209091015260048201805461ffff191661060a17905561252982612f1a565b612532826137e1565b600954612541906001906143ed565b9250505090565b600080612568836000015160000b856000015160000b61031b9190614454565b90506000612589846020015160000b866020015160000b61031b9190614454565b90506122a28183614400565b61259d612abf565b6001600160a01b0381166126025760405162461bcd60e51b815260206004820152602660248201527f4f776e61626c653a206e6577206f776e657220697320746865207a65726f206160448201526564647265737360d01b606482015260840161143c565b61260b81612b19565b50565b612616613b1f565b600984815481106126295761262961438c565b600091825260208083208684526001600790930201820181526040808420868552825292839020835160e081018552815460ff808216835261010090910416928101929092528351608081018552919390929084019190830160048282826020028201915b81548152602001906001019080831161268e5750505091835250506005919091015460ff8082161515602084015261010082048116151560408401526201000082048116151560608401526301000000909104161515608090910152949350505050565b805182516000916127029161465b565b60000b600103612714575060006107ab565b81518351612722919061465b565b60000b19612732575060016107ab565b81602001518360200151612746919061465b565b60000b19612756575060026107ab565b8160200151836020015161276a919061465b565b60000b60010361277c575060036107ab565b60405162461bcd60e51b8152602060048201526013602482015272115c9c9bdc8e88139bdd0818591a9858d95b9d606a1b604482015260640161143c565b6006546001600160a01b0316331461280a5760405162461bcd60e51b8152602060048201526013602482015272139bdd081c1b185e595c8818dbdb9d1c9858dd606a1b604482015260640161143c565b806009858154811061281e5761281e61438c565b600091825260208083209683526001600790920290960101855260408082209482529390945291909220600501805491151563010000000263ff000000199092169190911790555050565b6060600061078a83613a74565b61287e613bdb565b612886613bdb565b60005b60048110156108ec57600061289e8288611ca5565b90506000600989815481106128b5576128b561438c565b600091825260208083208b5160ff9081168552600160079094029091018301825260408085208d840151909216855291529091200183600481106128fb576128fb61438c565b01549050600060098a815481106129145761291461438c565b6000918252602080832085845260026007909302018201905260409091209150815462010000900460ff16600481111561295057612950613ca0565b148061297757506003815462010000900460ff16600481111561297557612975613ca0565b145b806129a557506001815462010000900460ff16600481111561299b5761299b613ca0565b1480156129a55750875b80612a5b5750868015612a5b575060098a815481106129c6576129c661438c565b600091825260208083208c5160ff908116855260079390930201600101815260408084208d8301518416855290915290912060050154620100009004168015612a5b575060098a81548110612a1d57612a1d61438c565b60009182526020808320865160ff90811685526007939093020160010181526040808420878301518416855290915290912060050154620100009004165b15612a7d5782858560048110612a7357612a7361438c565b6020020152612aa9565b6040805180820190915260008082526020820152858560048110612aa357612aa361438c565b60200201525b5050508080612ab7906143b8565b915050612889565b6000546001600160a01b031633146119125760405162461bcd60e51b815260206004820181905260248201527f4f776e61626c653a2063616c6c6572206973206e6f7420746865206f776e6572604482015260640161143c565b600080546001600160a01b038381166001600160a01b0319831681178455604051919092169283917f8be0079c531659141344cd1fd0a4f28419497f9722a3daafe3b4186f6b6457e09190a35050565b80546000908190612b7c906001906143ed565b90505b8015612c38576000612b926000836121fb565b9050836000018160ff1681548110612bac57612bac61438c565b9060005260206000200154846000018381548110612bcc57612bcc61438c565b9060005260206000200154856000018481548110612bec57612bec61438c565b906000526020600020016000876000018560ff1681548110612c1057612c1061438c565b6000918252602090912001929092559190915550819050612c308161467c565b915050612b7f565b5081546000908390612c4c906001906143ed565b81548110612c5c57612c5c61438c565b9060005260206000200154905082600001805480612c7c57612c7c614693565b6001900381819060005260206000200160009055905580915050919050565b606081600003612cc25750506040805180820190915260018152600360fc1b602082015290565b8160005b8115612cec5780612cd6816143b8565b9150612ce59050600a83614440565b9150612cc6565b60008167ffffffffffffffff811115612d0757612d07613eb3565b6040519080825280601f01601f191660200182016040528015612d31576020820181803683370190505b5090505b8415610da157612d466001836143ed565b9150612d53600a86614628565b612d5e906030614400565b60f81b818381518110612d7357612d7361438c565b60200101906001600160f81b031916908160001a905350612d95600a86614440565b9450612d35565b60048054604080516338fdf0bd60e01b8152905160009384936001600160a01b0316926338fdf0bd92818301926020928290030181865afa158015612de5573d6000803e3d6000fd5b505050506040513d601f19601f82011682018060405250810190612e0991906146a9565b905060005b81811015612f14576004805460405163413a9f5f60e11b81529182018390526001600160a01b0316906382753ebe9060240160a060405180830381865afa158015612e5d573d6000803e3d6000fd5b505050506040513d601f19601f82011682018060405250810190612e8191906146c2565b600082815260076020526040902081518154829060ff19166001836005811115612ead57612ead613ca0565b02179055506020820151600182015560408201516002909101805460608401516080909401511515620100000262ff00001960ff9586166101000261ffff199093169590941694909417179190911691909117905580612f0c816143b8565b915050612e0e565b50919050565b6000806002600854612f2c91906143ed565b905060016000612f3a613b3e565b6004860154600190829060ff16600b8110612f5757612f5761438c565b60200201516004880154610100900460ff16600b8110612f7957612f7961438c565b91151560209092020152612f8b613c14565b60408051808201909152600488015460ff80821683526101009091041660208201528187601e8110612fbf57612fbf61438c565b602002015285612fce816143b8565b9650505b600085118015612fe25750600086115b1561375557600081612ff56001896143ed565b601e81106130055761300561438c565b60200201519050866130168161467c565b9750508187601e811061302b5761302b61438c565b602002016130526040518060400160405280600060ff168152602001600060ff1681525090565b90528561305e8161467c565b965050848061306c9061467c565b825160ff908116600090815260018c810160209081526040808420828901519095168452939052918120805460ff1916909217909155909650602191506130b49060636121fb565b60ff1610156130f757805160ff908116600090815260018a016020908152604080832082860151909416835292905220600501805462ff00001916620100001790555b600060405180608001604052806000815260200160018152602001600281526020016003815250905060006001600461313091906143ed565b90505b80156131c05760006131466000836121fb565b9050828160ff166004811061315d5761315d61438c565b60200201518383600481106131745761317461438c565b602002015184846004811061318b5761318b61438c565b60200201858460ff16600481106131a4576131a461438c565b60200201919091525250806131b88161467c565b915050613133565b5060005b600481101561374d5782516020840151600091820b910b8383600481106131ed576131ed61438c565b602002015160000361320b578161320381614763565b92505061328f565b83836004811061321d5761321d61438c565b6020020151600103613233578161320381614778565b8383600481106132455761324561438c565b6020020151600203613263578061325b81614778565b91505061328f565b8383600481106132755761327561438c565b602002015160030361328f578061328b81614763565b9150505b600182128061329e5750600181125b806132b357506132b06002600b6143ed565b82135b806132c857506132c56002600b6143ed565b81135b156132d457505061373b565b6040805180820190915260ff80841680835290831660208301528890600b81106133005761330061438c565b6020020151816020015160ff16600b811061331d5761331d61438c565b6020020151158061337e57508c6001016000876000015160ff1681526020019081526020016000206000876020015160ff16815260200190815260200160002060010161336a87836126f2565b6004811061337a5761337a61438c565b0154155b15613737578915806133a757506133968960426143ed565b6133a2600060636121fb565b60ff16105b156137325760405180606001604052806133c3600060046121fb565b60ff1681526020016133d7600060046121fb565b60ff16815260200160018152508d60020160008f60030160009054906101000a900460ff1660ff16815260200190815260200160002060008201518160000160006101000a81548160ff021916908360ff16021790555060208201518160000160016101000a81548160ff021916908360ff16021790555060408201518160000160026101000a81548160ff0219169083600481111561347957613479613ca0565b0217905550505060038d015460ff908116600090815260028f01602052604081205490911690036134cc5760038d015460ff16600090815260028e0160205260409020805462ff00001916620300001790555b60038d01805460ff169060006134e18361463c565b91906101000a81548160ff021916908360ff160217905550506016896135079190614400565b9850604289111561351757604298505b8051889060ff16600b811061352e5761352e61438c565b6020020151816020015160ff16600b811061354b5761354b61438c565b602002015115156000036135cf5780878d601e811061356c5761356c61438c565b60200201528b61357b816143b8565b9c50508980613589906143b8565b9a5050600188826000015160ff16600b81106135a7576135a761438c565b6020020151826020015160ff16600b81106135c4576135c461438c565b911515602090920201525b8c6001016000876000015160ff1681526020019081526020016000206000876020015160ff1681526020019081526020016000206001018585600481106136185761361861438c565b60200201516004811061362d5761362d61438c565b015460000361372d5760038d015461364a9060019060ff16614474565b60ff168d6001016000886000015160ff1681526020019081526020016000206000886020015160ff1681526020019081526020016000206001018686600481106136965761369661438c565b6020020151600481106136ab576136ab61438c565b015560038d01546136c19060019060ff16614474565b60ff168d6001016000836000015160ff1681526020019081526020016000206000836020015160ff16815260200190815260200160002060010161371a8787600481106137105761371061438c565b6020020151611a65565b6004811061372a5761372a61438c565b01555b613737565b600098505b5050505b80613745816143b8565b9150506131c4565b505050612fd2565b60048701805460ff80821660009081526001808c016020818152604080852061010097889004871686528252808520805460ff1916600290811790915597548087168652928252808520969092049094168352938352838220600501805462ff000019908116909155908252938b01909152208054600392166201000083021790555050505050505050565b6000805b600b811015613a6f5760005b600b811015613a5c576000828152600185016020908152604080832084845290915290205460ff1660001901613a4a578261382b816143b8565b9350508260050361386b57600082815260018501602090815260408083208484529091529020805460ff1916606417905560058401829055600684018190555b60005b6004811015613a485760008381526001808701602090815260408084208685529091529091200181600481106138a6576138a661438c565b0154600003613a36578260091480156138bf5750816006145b613a365760006138e98260405180604001604052808760ff1681526020018660ff16815250611ca5565b805160ff90811660009081526001890160209081526040808320828601518516845290915290205491925016801580156139315750604261392c600060636121fb565b60ff16105b15613a33576040805160608101825260ff808252602082015290810160049052600388015460ff908116600090815260028a016020908152604091829020845181549286015185166101000261ffff19909316941693909317178083559083015190829062ff00001916620100008360048111156139b1576139b1613ca0565b0217905550505060038701805460ff169060006139cd8361463c565b82546101009290920a60ff81810219909316918316021790915560038901546139fa925060019116614474565b60008681526001808a016020908152604080842089855290915290912060ff9290921691018460048110613a3057613a3061438c565b01555b50505b80613a40816143b8565b91505061386e565b505b80613a54816143b8565b9150506137f1565b5080613a67816143b8565b9150506137e5565b505050565b606081600001805480602002602001604051908101604052809291908181526020018280548015613ac457602002820191906000526020600020905b815481526020019060010190808311613ab0575b50505050509050919050565b6040805160a081019091528060005b8152600060208201819052604082018190526060820181905260809091015290565b60405180608001604052806004906020820280368337509192915050565b6040805160e08101825260008082526020820152908101613adf613b01565b604051806101600160405280600b905b613b56613c40565b815260200190600190039081613b4e5790505090565b6040518061032001604052806019905b6060815260200190600190039081613b7c5790505090565b828054828255906000526020600020908101928215613bcf579160200282015b82811115613bcf578251825591602001919060010190613bb4565b5061090e929150613c5f565b60405180608001604052806004905b6040805180820190915260008082526020820152815260200190600190039081613bea5790505090565b60408051610400810190915260006103c082018181526103e08301919091528152601d60208201613bea565b604051806101600160405280600b906020820280368337509192915050565b5b8082111561090e5760008155600101613c60565b600080600060608486031215613c8957600080fd5b505081359360208301359350604090920135919050565b634e487b7160e01b600052602160045260246000fd5b60068110613cc657613cc6613ca0565b9052565b613cd5828251613cb6565b6020810151602083015260ff604082015116604083015260ff60608201511660608301526080810151151560808301525050565b60a081016107ab8284613cca565b600060208284031215613d2957600080fd5b5035919050565b6020808252825182820181905260009190848201906040850190845b81811015613d6857835183529284019291840191600101613d4c565b50909695505050505050565b60808101818360005b6004811015613d9e5781511515835260209283019290910190600101613d7d565b50505092915050565b60ff8151168252602060ff81830151168184015260408201516040840160005b6004811015613de457825182529183019190830190600101613dc7565b505050506060810151151560c0838101919091526080820151151560e084015260a082015115156101008401520151151561012090910152565b6000602080830181845280855180835260408601915060408160051b87010192508387016000805b83811015613ea557888603603f19018552825180518088529088019088880190845b81811015613e8f57613e7b838551613da7565b928a01926101409290920191600101613e68565b5090975050509386019391860191600101613e46565b509398975050505050505050565b634e487b7160e01b600052604160045260246000fd5b60ff8116811461260b57600080fd5b600060408284031215613eea57600080fd5b6040516040810181811067ffffffffffffffff82111715613f1b57634e487b7160e01b600052604160045260246000fd5b6040529050808235613f2c81613ec9565b81526020830135613f3c81613ec9565b6020919091015292915050565b801515811461260b57600080fd5b60008060008060c08587031215613f6d57600080fd5b84359350613f7e8660208701613ed8565b9250613f8d8660608701613ed8565b915060a0850135613f9d81613f49565b939692955090935050565b6000806000806000806101008789031215613fc257600080fd5b86359550613fd38860208901613ed8565b9450613fe28860608901613ed8565b935060a0870135613ff281613f49565b925060c087013561400281613f49565b8092505060e087013590509295509295509295565b604081016107ab8284805160ff908116835260209182015116910152565b6000806000806080858703121561404b57600080fd5b5050823594602084013594506040840135936060013592509050565b6000806040838503121561407a57600080fd5b50508035926020909101359150565b60008060008060008060c087890312156140a257600080fd5b863595506020870135945060408701359350606087013592506080870135600581106140cd57600080fd5b8092505060a087013590509295509295509295565b60ff815116825260ff602082015116602083015260408101516005811061410b5761410b613ca0565b806040840152505050565b6020808252825182820181905260009190848201906040850190845b81811015613d68576141458385516140e2565b9284019260609290920191600101614132565b606081016107ab82846140e2565b60ff8516815260a0810161418d6020830186805160ff908116835260209182015116910152565b60608201939093526080015292915050565b6020808252825182820181905260009190848201906040850190845b81811015613d68576141ce838551613cca565b9284019260a092909201916001016141bb565b600080606083850312156141f457600080fd5b823591506142058460208501613ed8565b90509250929050565b60a0810161421c8288613cb6565b85602083015260ff8516604083015260ff8416606083015282151560808301529695505050505050565b6000806040838503121561425957600080fd5b823561426481613ec9565b9150602083013561427481613ec9565b809150509250929050565b80356001600160a01b038116811461429657600080fd5b919050565b600080600080600060a086880312156142b357600080fd5b6142bc8661427f565b94506142ca6020870161427f565b93506142d86040870161427f565b92506142e66060870161427f565b91506142f46080870161427f565b90509295509295909350565b6000806080838503121561431357600080fd5b61431d8484613ed8565b91506142058460408501613ed8565b60006020828403121561433e57600080fd5b61078a8261427f565b61014081016107ab8284613da7565b6000806000806080858703121561436c57600080fd5b8435935060208501359250604085013591506060850135613f9d81613f49565b634e487b7160e01b600052603260045260246000fd5b634e487b7160e01b600052601160045260246000fd5b6000600182016143ca576143ca6143a2565b5060010190565b6000600160ff1b82016143e6576143e66143a2565b5060000390565b818103818111156107ab576107ab6143a2565b808201808211156107ab576107ab6143a2565b80820281158282048414176107ab576107ab6143a2565b634e487b7160e01b600052601260045260246000fd5b60008261444f5761444f61442a565b500490565b8181036000831280158383131683831282161715610b7757610b776143a2565b60ff82811682821603908111156107ab576107ab6143a2565b60ff81811683821601908111156107ab576107ab6143a2565b60005b838110156144c15781810151838201526020016144a9565b50506000910152565b72024b73b30b634b2103234b932b1ba34b7b71d1606d1b8152600082516144f88160138501602087016144a6565b9190910160130192915050565b60208152600082518060208401526145248160408501602087016144a6565b601f01601f19169190910160400192915050565b600181815b80851115614573578160001904821115614559576145596143a2565b8085161561456657918102915b93841c939080029061453d565b509250929050565b60008261458a575060016107ab565b81614597575060006107ab565b81600181146145ad57600281146145b7576145d3565b60019150506107ab565b60ff8411156145c8576145c86143a2565b50506001821b6107ab565b5060208310610133831016604e8410600b84101617156145f6575081810a6107ab565b6146008383614538565b8060001904821115614614576146146143a2565b029392505050565b600061078a838361457b565b6000826146375761463761442a565b500690565b600060ff821660ff8103614652576146526143a2565b60010192915050565b600082810b9082900b03607f198112607f821317156107ab576107ab6143a2565b60008161468b5761468b6143a2565b506000190190565b634e487b7160e01b600052603160045260246000fd5b6000602082840312156146bb57600080fd5b5051919050565b600060a082840312156146d457600080fd5b60405160a0810181811067ffffffffffffffff8211171561470557634e487b7160e01b600052604160045260246000fd5b60405282516006811061471757600080fd5b815260208381015190820152604083015161473181613ec9565b6040820152606083015161474481613ec9565b6060820152608083015161475781613f49565b60808201529392505050565b6000600160ff1b820161468b5761468b6143a2565b60006001600160ff1b0182016143ca576143ca6143a256fea2646970667358221220b0e401edef468c9e47be73304ad444aff58911567b5b6532965f4f22a8d32eda64736f6c63430008110033",
  "devdoc": {
    "kind": "dev",
    "methods": {
      "owner()": {
        "details": "Returns the address of the current owner."
      },
      "renounceOwnership()": {
        "details": "Leaves the contract without owner. It will not be possible to call `onlyOwner` functions anymore. Can only be called by the current owner. NOTE: Renouncing ownership will leave the contract without an owner, thereby removing any functionality that is only available to the owner."
      },
      "transferOwnership(address)": {
        "details": "Transfers ownership of the contract to a new account (`newOwner`). Can only be called by the current owner."
      }
    },
    "version": 1
  },
  "userdoc": {
    "kind": "user",
    "methods": {},
    "version": 1
  },
  "storageLayout": {
    "storage": [
      {
        "astId": 7,
        "contract": "contracts/BCMaps.sol:Maps",
        "label": "_owner",
        "offset": 0,
        "slot": "0",
        "type": "t_address"
      },
      {
        "astId": 20527,
        "contract": "contracts/BCMaps.sol:Maps",
        "label": "TODO_randomSeed",
        "offset": 0,
        "slot": "1",
        "type": "t_uint256"
      },
      {
        "astId": 20532,
        "contract": "contracts/BCMaps.sol:Maps",
        "label": "gameToEventBlocks",
        "offset": 0,
        "slot": "2",
        "type": "t_mapping(t_uint256,t_struct(UintSet)2981_storage)"
      },
      {
        "astId": 15460,
        "contract": "contracts/BCMaps.sol:Maps",
        "label": "game",
        "offset": 0,
        "slot": "3",
        "type": "t_address"
      },
      {
        "astId": 15463,
        "contract": "contracts/BCMaps.sol:Maps",
        "label": "roomTiles",
        "offset": 0,
        "slot": "4",
        "type": "t_contract(RoomTileInterface)15454"
      },
      {
        "astId": 15465,
        "contract": "contracts/BCMaps.sol:Maps",
        "label": "actionsAddress",
        "offset": 0,
        "slot": "5",
        "type": "t_address"
      },
      {
        "astId": 15467,
        "contract": "contracts/BCMaps.sol:Maps",
        "label": "playersAddress",
        "offset": 0,
        "slot": "6",
        "type": "t_address"
      },
      {
        "astId": 15511,
        "contract": "contracts/BCMaps.sol:Maps",
        "label": "roomList",
        "offset": 0,
        "slot": "7",
        "type": "t_mapping(t_uint256,t_struct(RoomTile)20424_storage)"
      },
      {
        "astId": 15513,
        "contract": "contracts/BCMaps.sol:Maps",
        "label": "numRooms",
        "offset": 0,
        "slot": "8",
        "type": "t_uint256"
      },
      {
        "astId": 15517,
        "contract": "contracts/BCMaps.sol:Maps",
        "label": "maps",
        "offset": 0,
        "slot": "9",
        "type": "t_array(t_struct(Map)20353_storage)dyn_storage"
      }
    ],
    "types": {
      "t_address": {
        "encoding": "inplace",
        "label": "address",
        "numberOfBytes": "20"
      },
      "t_array(t_bytes32)dyn_storage": {
        "base": "t_bytes32",
        "encoding": "dynamic_array",
        "label": "bytes32[]",
        "numberOfBytes": "32"
      },
      "t_array(t_struct(Map)20353_storage)dyn_storage": {
        "base": "t_struct(Map)20353_storage",
        "encoding": "dynamic_array",
        "label": "struct BCTypes.Map[]",
        "numberOfBytes": "32"
      },
      "t_array(t_uint256)4_storage": {
        "base": "t_uint256",
        "encoding": "inplace",
        "label": "uint256[4]",
        "numberOfBytes": "128"
      },
      "t_array(t_uint256)dyn_storage": {
        "base": "t_uint256",
        "encoding": "dynamic_array",
        "label": "uint256[]",
        "numberOfBytes": "32"
      },
      "t_bool": {
        "encoding": "inplace",
        "label": "bool",
        "numberOfBytes": "1"
      },
      "t_bytes32": {
        "encoding": "inplace",
        "label": "bytes32",
        "numberOfBytes": "32"
      },
      "t_contract(RoomTileInterface)15454": {
        "encoding": "inplace",
        "label": "contract RoomTileInterface",
        "numberOfBytes": "20"
      },
      "t_enum(BCEventType)20209": {
        "encoding": "inplace",
        "label": "enum BCTypes.BCEventType",
        "numberOfBytes": "1"
      },
      "t_enum(DoorStatus)20185": {
        "encoding": "inplace",
        "label": "enum BCTypes.DoorStatus",
        "numberOfBytes": "1"
      },
      "t_mapping(t_bytes32,t_uint256)": {
        "encoding": "mapping",
        "key": "t_bytes32",
        "label": "mapping(bytes32 => uint256)",
        "numberOfBytes": "32",
        "value": "t_uint256"
      },
      "t_mapping(t_uint256,t_mapping(t_uint256,t_struct(GameTile)20320_storage))": {
        "encoding": "mapping",
        "key": "t_uint256",
        "label": "mapping(uint256 => mapping(uint256 => struct BCTypes.GameTile))",
        "numberOfBytes": "32",
        "value": "t_mapping(t_uint256,t_struct(GameTile)20320_storage)"
      },
      "t_mapping(t_uint256,t_struct(Door)20328_storage)": {
        "encoding": "mapping",
        "key": "t_uint256",
        "label": "mapping(uint256 => struct BCTypes.Door)",
        "numberOfBytes": "32",
        "value": "t_struct(Door)20328_storage"
      },
      "t_mapping(t_uint256,t_struct(GameTile)20320_storage)": {
        "encoding": "mapping",
        "key": "t_uint256",
        "label": "mapping(uint256 => struct BCTypes.GameTile)",
        "numberOfBytes": "32",
        "value": "t_struct(GameTile)20320_storage"
      },
      "t_mapping(t_uint256,t_struct(RoomTile)20424_storage)": {
        "encoding": "mapping",
        "key": "t_uint256",
        "label": "mapping(uint256 => struct BCTypes.RoomTile)",
        "numberOfBytes": "32",
        "value": "t_struct(RoomTile)20424_storage"
      },
      "t_mapping(t_uint256,t_struct(UintSet)2981_storage)": {
        "encoding": "mapping",
        "key": "t_uint256",
        "label": "mapping(uint256 => struct EnumerableSet.UintSet)",
        "numberOfBytes": "32",
        "value": "t_struct(UintSet)2981_storage"
      },
      "t_struct(Door)20328_storage": {
        "encoding": "inplace",
        "label": "struct BCTypes.Door",
        "members": [
          {
            "astId": 20322,
            "contract": "contracts/BCMaps.sol:Maps",
            "label": "vsBreach",
            "offset": 0,
            "slot": "0",
            "type": "t_uint8"
          },
          {
            "astId": 20324,
            "contract": "contracts/BCMaps.sol:Maps",
            "label": "vsHack",
            "offset": 1,
            "slot": "0",
            "type": "t_uint8"
          },
          {
            "astId": 20327,
            "contract": "contracts/BCMaps.sol:Maps",
            "label": "status",
            "offset": 2,
            "slot": "0",
            "type": "t_enum(DoorStatus)20185"
          }
        ],
        "numberOfBytes": "32"
      },
      "t_struct(GameTile)20320_storage": {
        "encoding": "inplace",
        "label": "struct BCTypes.GameTile",
        "members": [
          {
            "astId": 20305,
            "contract": "contracts/BCMaps.sol:Maps",
            "label": "roomId",
            "offset": 0,
            "slot": "0",
            "type": "t_uint8"
          },
          {
            "astId": 20307,
            "contract": "contracts/BCMaps.sol:Maps",
            "label": "parentId",
            "offset": 1,
            "slot": "0",
            "type": "t_uint8"
          },
          {
            "astId": 20311,
            "contract": "contracts/BCMaps.sol:Maps",
            "label": "doors",
            "offset": 0,
            "slot": "1",
            "type": "t_array(t_uint256)4_storage"
          },
          {
            "astId": 20313,
            "contract": "contracts/BCMaps.sol:Maps",
            "label": "explored",
            "offset": 0,
            "slot": "5",
            "type": "t_bool"
          },
          {
            "astId": 20315,
            "contract": "contracts/BCMaps.sol:Maps",
            "label": "looted",
            "offset": 1,
            "slot": "5",
            "type": "t_bool"
          },
          {
            "astId": 20317,
            "contract": "contracts/BCMaps.sol:Maps",
            "label": "hasVent",
            "offset": 2,
            "slot": "5",
            "type": "t_bool"
          },
          {
            "astId": 20319,
            "contract": "contracts/BCMaps.sol:Maps",
            "label": "hasHazard",
            "offset": 3,
            "slot": "5",
            "type": "t_bool"
          }
        ],
        "numberOfBytes": "192"
      },
      "t_struct(Map)20353_storage": {
        "encoding": "inplace",
        "label": "struct BCTypes.Map",
        "members": [
          {
            "astId": 20331,
            "contract": "contracts/BCMaps.sol:Maps",
            "label": "unusedNormalRooms",
            "offset": 0,
            "slot": "0",
            "type": "t_array(t_uint256)dyn_storage"
          },
          {
            "astId": 20338,
            "contract": "contracts/BCMaps.sol:Maps",
            "label": "board",
            "offset": 0,
            "slot": "1",
            "type": "t_mapping(t_uint256,t_mapping(t_uint256,t_struct(GameTile)20320_storage))"
          },
          {
            "astId": 20343,
            "contract": "contracts/BCMaps.sol:Maps",
            "label": "doors",
            "offset": 0,
            "slot": "2",
            "type": "t_mapping(t_uint256,t_struct(Door)20328_storage)"
          },
          {
            "astId": 20345,
            "contract": "contracts/BCMaps.sol:Maps",
            "label": "numDoors",
            "offset": 0,
            "slot": "3",
            "type": "t_uint8"
          },
          {
            "astId": 20348,
            "contract": "contracts/BCMaps.sol:Maps",
            "label": "startPosition",
            "offset": 0,
            "slot": "4",
            "type": "t_struct(Position)20303_storage"
          },
          {
            "astId": 20350,
            "contract": "contracts/BCMaps.sol:Maps",
            "label": "mainReactorRow",
            "offset": 0,
            "slot": "5",
            "type": "t_uint256"
          },
          {
            "astId": 20352,
            "contract": "contracts/BCMaps.sol:Maps",
            "label": "mainReactorCol",
            "offset": 0,
            "slot": "6",
            "type": "t_uint256"
          }
        ],
        "numberOfBytes": "224"
      },
      "t_struct(Position)20303_storage": {
        "encoding": "inplace",
        "label": "struct BCTypes.Position",
        "members": [
          {
            "astId": 20300,
            "contract": "contracts/BCMaps.sol:Maps",
            "label": "row",
            "offset": 0,
            "slot": "0",
            "type": "t_uint8"
          },
          {
            "astId": 20302,
            "contract": "contracts/BCMaps.sol:Maps",
            "label": "col",
            "offset": 1,
            "slot": "0",
            "type": "t_uint8"
          }
        ],
        "numberOfBytes": "32"
      },
      "t_struct(RoomTile)20424_storage": {
        "encoding": "inplace",
        "label": "struct BCTypes.RoomTile",
        "members": [
          {
            "astId": 20415,
            "contract": "contracts/BCMaps.sol:Maps",
            "label": "eventType",
            "offset": 0,
            "slot": "0",
            "type": "t_enum(BCEventType)20209"
          },
          {
            "astId": 20417,
            "contract": "contracts/BCMaps.sol:Maps",
            "label": "eventNum",
            "offset": 0,
            "slot": "1",
            "type": "t_uint256"
          },
          {
            "astId": 20419,
            "contract": "contracts/BCMaps.sol:Maps",
            "label": "numItems",
            "offset": 0,
            "slot": "2",
            "type": "t_uint8"
          },
          {
            "astId": 20421,
            "contract": "contracts/BCMaps.sol:Maps",
            "label": "numData",
            "offset": 1,
            "slot": "2",
            "type": "t_uint8"
          },
          {
            "astId": 20423,
            "contract": "contracts/BCMaps.sol:Maps",
            "label": "sigDetected",
            "offset": 2,
            "slot": "2",
            "type": "t_bool"
          }
        ],
        "numberOfBytes": "96"
      },
      "t_struct(Set)2523_storage": {
        "encoding": "inplace",
        "label": "struct EnumerableSet.Set",
        "members": [
          {
            "astId": 2518,
            "contract": "contracts/BCMaps.sol:Maps",
            "label": "_values",
            "offset": 0,
            "slot": "0",
            "type": "t_array(t_bytes32)dyn_storage"
          },
          {
            "astId": 2522,
            "contract": "contracts/BCMaps.sol:Maps",
            "label": "_indexes",
            "offset": 0,
            "slot": "1",
            "type": "t_mapping(t_bytes32,t_uint256)"
          }
        ],
        "numberOfBytes": "64"
      },
      "t_struct(UintSet)2981_storage": {
        "encoding": "inplace",
        "label": "struct EnumerableSet.UintSet",
        "members": [
          {
            "astId": 2980,
            "contract": "contracts/BCMaps.sol:Maps",
            "label": "_inner",
            "offset": 0,
            "slot": "0",
            "type": "t_struct(Set)2523_storage"
          }
        ],
        "numberOfBytes": "64"
      },
      "t_uint256": {
        "encoding": "inplace",
        "label": "uint256",
        "numberOfBytes": "32"
      },
      "t_uint8": {
        "encoding": "inplace",
        "label": "uint8",
        "numberOfBytes": "1"
      }
    }
  }
}