{
  "address": "0xC2b5F142780E8f594eD72A09bBB1EAA46e3e7A51",
  "abi": [
    {
      "anonymous": false,
      "inputs": [
        {
          "indexed": true,
          "internalType": "address",
          "name": "previousOwner",
          "type": "address"
        },
        {
          "indexed": true,
          "internalType": "address",
          "name": "newOwner",
          "type": "address"
        }
      ],
      "name": "OwnershipTransferred",
      "type": "event"
    },
    {
      "inputs": [],
      "name": "actionsAddress",
      "outputs": [
        {
          "internalType": "address",
          "name": "",
          "type": "address"
        }
      ],
      "stateMutability": "view",
      "type": "function"
    },
    {
      "inputs": [],
      "name": "createMap",
      "outputs": [
        {
          "internalType": "uint256",
          "name": "",
          "type": "uint256"
        }
      ],
      "stateMutability": "nonpayable",
      "type": "function"
    },
    {
      "inputs": [
        {
          "internalType": "uint256",
          "name": "_mapId",
          "type": "uint256"
        },
        {
          "internalType": "uint256",
          "name": "_row",
          "type": "uint256"
        },
        {
          "internalType": "uint256",
          "name": "_col",
          "type": "uint256"
        },
        {
          "internalType": "uint256",
          "name": "_roomId",
          "type": "uint256"
        }
      ],
      "name": "debugForceRoomId",
      "outputs": [],
      "stateMutability": "nonpayable",
      "type": "function"
    },
    {
      "inputs": [
        {
          "internalType": "uint256",
          "name": "_mapId",
          "type": "uint256"
        },
        {
          "internalType": "uint256",
          "name": "_row",
          "type": "uint256"
        },
        {
          "internalType": "uint256",
          "name": "_col",
          "type": "uint256"
        },
        {
          "internalType": "uint256",
          "name": "debugForceId",
          "type": "uint256"
        }
      ],
      "name": "discoverRoom",
      "outputs": [
        {
          "internalType": "uint256",
          "name": "",
          "type": "uint256"
        }
      ],
      "stateMutability": "nonpayable",
      "type": "function"
    },
    {
      "inputs": [
        {
          "internalType": "uint256",
          "name": "_mapId",
          "type": "uint256"
        }
      ],
      "name": "extGetBoard",
      "outputs": [
        {
          "components": [
            {
              "internalType": "uint8",
              "name": "roomId",
              "type": "uint8"
            },
            {
              "internalType": "uint8",
              "name": "parentId",
              "type": "uint8"
            },
            {
              "internalType": "uint256[4]",
              "name": "doors",
              "type": "uint256[4]"
            },
            {
              "internalType": "bool",
              "name": "explored",
              "type": "bool"
            },
            {
              "internalType": "bool",
              "name": "looted",
              "type": "bool"
            },
            {
              "internalType": "bool",
              "name": "hasVent",
              "type": "bool"
            },
            {
              "internalType": "bool",
              "name": "hasHazard",
              "type": "bool"
            }
          ],
          "internalType": "struct BCTypes.GameTile[][]",
          "name": "",
          "type": "tuple[][]"
        }
      ],
      "stateMutability": "view",
      "type": "function"
    },
    {
      "inputs": [
        {
          "internalType": "uint256",
          "name": "_mapId",
          "type": "uint256"
        }
      ],
      "name": "extGetDoors",
      "outputs": [
        {
          "components": [
            {
              "internalType": "uint8",
              "name": "vsBreach",
              "type": "uint8"
            },
            {
              "internalType": "uint8",
              "name": "vsHack",
              "type": "uint8"
            },
            {
              "internalType": "enum BCTypes.DoorStatus",
              "name": "status",
              "type": "uint8"
            }
          ],
          "internalType": "struct BCTypes.Door[]",
          "name": "",
          "type": "tuple[]"
        }
      ],
      "stateMutability": "view",
      "type": "function"
    },
    {
      "inputs": [
        {
          "internalType": "uint256",
          "name": "_mapId",
          "type": "uint256"
        },
        {
          "internalType": "uint256",
          "name": "_row",
          "type": "uint256"
        },
        {
          "internalType": "uint256",
          "name": "_col",
          "type": "uint256"
        }
      ],
      "name": "extGetGameTile",
      "outputs": [
        {
          "components": [
            {
              "internalType": "uint8",
              "name": "roomId",
              "type": "uint8"
            },
            {
              "internalType": "uint8",
              "name": "parentId",
              "type": "uint8"
            },
            {
              "internalType": "uint256[4]",
              "name": "doors",
              "type": "uint256[4]"
            },
            {
              "internalType": "bool",
              "name": "explored",
              "type": "bool"
            },
            {
              "internalType": "bool",
              "name": "looted",
              "type": "bool"
            },
            {
              "internalType": "bool",
              "name": "hasVent",
              "type": "bool"
            },
            {
              "internalType": "bool",
              "name": "hasHazard",
              "type": "bool"
            }
          ],
          "internalType": "struct BCTypes.GameTile",
          "name": "",
          "type": "tuple"
        }
      ],
      "stateMutability": "view",
      "type": "function"
    },
    {
      "inputs": [
        {
          "internalType": "uint256",
          "name": "_mapId",
          "type": "uint256"
        }
      ],
      "name": "extGetMainReactorCoords",
      "outputs": [
        {
          "internalType": "uint256",
          "name": "",
          "type": "uint256"
        },
        {
          "internalType": "uint256",
          "name": "",
          "type": "uint256"
        }
      ],
      "stateMutability": "view",
      "type": "function"
    },
    {
      "inputs": [
        {
          "internalType": "uint256",
          "name": "_mapId",
          "type": "uint256"
        },
        {
          "internalType": "uint256",
          "name": "_row",
          "type": "uint256"
        },
        {
          "internalType": "uint256",
          "name": "_col",
          "type": "uint256"
        }
      ],
      "name": "extGetRoom",
      "outputs": [
        {
          "components": [
            {
              "internalType": "enum BCTypes.BCEventType",
              "name": "eventType",
              "type": "uint8"
            },
            {
              "internalType": "uint256",
              "name": "eventNum",
              "type": "uint256"
            },
            {
              "internalType": "uint8",
              "name": "numItems",
              "type": "uint8"
            },
            {
              "internalType": "uint8",
              "name": "numData",
              "type": "uint8"
            },
            {
              "internalType": "bool",
              "name": "sigDetected",
              "type": "bool"
            }
          ],
          "internalType": "struct BCTypes.RoomTile",
          "name": "",
          "type": "tuple"
        }
      ],
      "stateMutability": "view",
      "type": "function"
    },
    {
      "inputs": [
        {
          "internalType": "uint256",
          "name": "_mapId",
          "type": "uint256"
        },
        {
          "internalType": "uint256",
          "name": "_roomId",
          "type": "uint256"
        }
      ],
      "name": "extGetRoomById",
      "outputs": [
        {
          "components": [
            {
              "internalType": "enum BCTypes.BCEventType",
              "name": "eventType",
              "type": "uint8"
            },
            {
              "internalType": "uint256",
              "name": "eventNum",
              "type": "uint256"
            },
            {
              "internalType": "uint8",
              "name": "numItems",
              "type": "uint8"
            },
            {
              "internalType": "uint8",
              "name": "numData",
              "type": "uint8"
            },
            {
              "internalType": "bool",
              "name": "sigDetected",
              "type": "bool"
            }
          ],
          "internalType": "struct BCTypes.RoomTile",
          "name": "",
          "type": "tuple"
        }
      ],
      "stateMutability": "view",
      "type": "function"
    },
    {
      "inputs": [
        {
          "internalType": "uint256",
          "name": "_mapId",
          "type": "uint256"
        }
      ],
      "name": "extGetRoomList",
      "outputs": [
        {
          "components": [
            {
              "internalType": "enum BCTypes.BCEventType",
              "name": "eventType",
              "type": "uint8"
            },
            {
              "internalType": "uint256",
              "name": "eventNum",
              "type": "uint256"
            },
            {
              "internalType": "uint8",
              "name": "numItems",
              "type": "uint8"
            },
            {
              "internalType": "uint8",
              "name": "numData",
              "type": "uint8"
            },
            {
              "internalType": "bool",
              "name": "sigDetected",
              "type": "bool"
            }
          ],
          "internalType": "struct BCTypes.RoomTile[]",
          "name": "",
          "type": "tuple[]"
        }
      ],
      "stateMutability": "view",
      "type": "function"
    },
    {
      "inputs": [
        {
          "internalType": "uint256",
          "name": "_mapId",
          "type": "uint256"
        },
        {
          "internalType": "uint256",
          "name": "_row",
          "type": "uint256"
        },
        {
          "internalType": "uint256",
          "name": "_col",
          "type": "uint256"
        },
        {
          "internalType": "bool",
          "name": "_hasHazard",
          "type": "bool"
        }
      ],
      "name": "extSetHazardStatus",
      "outputs": [],
      "stateMutability": "nonpayable",
      "type": "function"
    },
    {
      "inputs": [
        {
          "internalType": "uint256",
          "name": "_mapId",
          "type": "uint256"
        },
        {
          "internalType": "uint256",
          "name": "_distance",
          "type": "uint256"
        }
      ],
      "name": "extSpreadHazards",
      "outputs": [],
      "stateMutability": "nonpayable",
      "type": "function"
    },
    {
      "inputs": [],
      "name": "game",
      "outputs": [
        {
          "internalType": "address",
          "name": "",
          "type": "address"
        }
      ],
      "stateMutability": "view",
      "type": "function"
    },
    {
      "inputs": [
        {
          "internalType": "uint256",
          "name": "_mapId",
          "type": "uint256"
        },
        {
          "internalType": "uint256",
          "name": "_row",
          "type": "uint256"
        },
        {
          "internalType": "uint256",
          "name": "_col",
          "type": "uint256"
        },
        {
          "internalType": "uint256",
          "name": "_direction",
          "type": "uint256"
        }
      ],
      "name": "getDoor",
      "outputs": [
        {
          "components": [
            {
              "internalType": "uint8",
              "name": "vsBreach",
              "type": "uint8"
            },
            {
              "internalType": "uint8",
              "name": "vsHack",
              "type": "uint8"
            },
            {
              "internalType": "enum BCTypes.DoorStatus",
              "name": "status",
              "type": "uint8"
            }
          ],
          "internalType": "struct BCTypes.Door",
          "name": "",
          "type": "tuple"
        }
      ],
      "stateMutability": "view",
      "type": "function"
    },
    {
      "inputs": [
        {
          "internalType": "uint256",
          "name": "",
          "type": "uint256"
        }
      ],
      "name": "maps",
      "outputs": [
        {
          "internalType": "uint8",
          "name": "numDoors",
          "type": "uint8"
        },
        {
          "components": [
            {
              "internalType": "uint8",
              "name": "row",
              "type": "uint8"
            },
            {
              "internalType": "uint8",
              "name": "col",
              "type": "uint8"
            }
          ],
          "internalType": "struct BCTypes.Position",
          "name": "startPosition",
          "type": "tuple"
        },
        {
          "internalType": "uint256",
          "name": "mainReactorRow",
          "type": "uint256"
        },
        {
          "internalType": "uint256",
          "name": "mainReactorCol",
          "type": "uint256"
        }
      ],
      "stateMutability": "view",
      "type": "function"
    },
    {
      "inputs": [],
      "name": "numRooms",
      "outputs": [
        {
          "internalType": "uint256",
          "name": "",
          "type": "uint256"
        }
      ],
      "stateMutability": "view",
      "type": "function"
    },
    {
      "inputs": [],
      "name": "owner",
      "outputs": [
        {
          "internalType": "address",
          "name": "",
          "type": "address"
        }
      ],
      "stateMutability": "view",
      "type": "function"
    },
    {
      "inputs": [],
      "name": "playersAddress",
      "outputs": [
        {
          "internalType": "address",
          "name": "",
          "type": "address"
        }
      ],
      "stateMutability": "view",
      "type": "function"
    },
    {
      "inputs": [],
      "name": "renounceOwnership",
      "outputs": [],
      "stateMutability": "nonpayable",
      "type": "function"
    },
    {
      "inputs": [
        {
          "internalType": "uint256",
          "name": "_mapId",
          "type": "uint256"
        }
      ],
      "name": "resetOpenDoors",
      "outputs": [],
      "stateMutability": "nonpayable",
      "type": "function"
    },
    {
      "inputs": [
        {
          "internalType": "uint256",
          "name": "",
          "type": "uint256"
        }
      ],
      "name": "roomList",
      "outputs": [
        {
          "internalType": "enum BCTypes.BCEventType",
          "name": "eventType",
          "type": "uint8"
        },
        {
          "internalType": "uint256",
          "name": "eventNum",
          "type": "uint256"
        },
        {
          "internalType": "uint8",
          "name": "numItems",
          "type": "uint8"
        },
        {
          "internalType": "uint8",
          "name": "numData",
          "type": "uint8"
        },
        {
          "internalType": "bool",
          "name": "sigDetected",
          "type": "bool"
        }
      ],
      "stateMutability": "view",
      "type": "function"
    },
    {
      "inputs": [],
      "name": "roomTiles",
      "outputs": [
        {
          "internalType": "contract RoomTileInterface",
          "name": "",
          "type": "address"
        }
      ],
      "stateMutability": "view",
      "type": "function"
    },
    {
      "inputs": [
        {
          "internalType": "address",
          "name": "_gameAddress",
          "type": "address"
        },
        {
          "internalType": "address",
          "name": "_utilsAddress",
          "type": "address"
        },
        {
          "internalType": "address",
          "name": "_roomTilesAddress",
          "type": "address"
        },
        {
          "internalType": "address",
          "name": "_actionsAddress",
          "type": "address"
        },
        {
          "internalType": "address",
          "name": "_playersAddress",
          "type": "address"
        }
      ],
      "name": "setContractAddresses",
      "outputs": [],
      "stateMutability": "nonpayable",
      "type": "function"
    },
    {
      "inputs": [
        {
          "internalType": "uint256",
          "name": "_mapId",
          "type": "uint256"
        },
        {
          "internalType": "uint256",
          "name": "_row",
          "type": "uint256"
        },
        {
          "internalType": "uint256",
          "name": "_col",
          "type": "uint256"
        },
        {
          "internalType": "uint256",
          "name": "_direction",
          "type": "uint256"
        },
        {
          "internalType": "enum BCTypes.DoorStatus",
          "name": "_status",
          "type": "uint8"
        },
        {
          "internalType": "uint256",
          "name": "_strength",
          "type": "uint256"
        }
      ],
      "name": "setDoorFromPos",
      "outputs": [],
      "stateMutability": "nonpayable",
      "type": "function"
    },
    {
      "inputs": [
        {
          "internalType": "uint256",
          "name": "_mapId",
          "type": "uint256"
        },
        {
          "internalType": "uint256",
          "name": "_row",
          "type": "uint256"
        },
        {
          "internalType": "uint256",
          "name": "_col",
          "type": "uint256"
        }
      ],
      "name": "setLooted",
      "outputs": [],
      "stateMutability": "nonpayable",
      "type": "function"
    },
    {
      "inputs": [
        {
          "internalType": "address",
          "name": "newOwner",
          "type": "address"
        }
      ],
      "name": "transferOwnership",
      "outputs": [],
      "stateMutability": "nonpayable",
      "type": "function"
    },
    {
      "inputs": [],
      "name": "utils",
      "outputs": [
        {
          "internalType": "contract UtilsInterface",
          "name": "",
          "type": "address"
        }
      ],
      "stateMutability": "view",
      "type": "function"
    }
  ],
  "transactionHash": "0x8592cbc8939737022bcb5c31d62ce63e5b3d9aa03460dc9e30d4284c24e13e1d",
  "args": [],
  "numDeployments": 3,
  "solcInputHash": "e96f9722bfccecabf66c9924a0449fd8",
  "bytecode": "0x60806040523480156200001157600080fd5b506200001d3362000023565b62000073565b600080546001600160a01b038381166001600160a01b0319831681178455604051919092169283917f8be0079c531659141344cd1fd0a4f28419497f9722a3daafe3b4186f6b6457e09190a35050565b61357880620000836000396000f3fe608060405234801561001057600080fd5b50600436106101c45760003560e01c806381bad36d116100f9578063c6b41b4511610097578063f2fde38b11610071578063f2fde38b1461044b578063f7157f641461045e578063f9dfbfcb14610471578063fe368d7a1461049157600080fd5b8063c6b41b451461041d578063e847ae1e14610430578063f01fc35a1461044357600080fd5b80638da5cb5b116100d35780638da5cb5b1461038e578063a63a9aab1461039f578063b14ca575146103f7578063c3fe3e281461040a57600080fd5b806381bad36d1461034857806386e529d01461035b5780638af13fd21461036e57600080fd5b80635a29638d116101665780636ea1dcd8116101405780636ea1dcd8146102ea578063715018a61461030a57806375990a0e146103125780637b45c0d41461033557600080fd5b80635a29638d1461028f5780635f8951e6146102a257806369568fd5146102ca57600080fd5b80631ef04416116101a25780631ef0441614610234578063580582831461025457806358308aa814610267578063592152231461027c57600080fd5b806302861c6c146101c957806303b414e4146101f25780631cdec3ad1461021d575b600080fd5b6101dc6101d7366004612dd4565b6104a4565b6040516101e99190612e69565b60405180910390f35b600554610205906001600160a01b031681565b6040516001600160a01b0390911681526020016101e9565b61022660075481565b6040519081526020016101e9565b610247610242366004612e77565b610573565b6040516101e99190612f07565b6101dc610262366004612f9c565b610767565b61027a610275366004612e77565b6107f2565b005b61027a61028a366004612fbe565b6108ff565b600254610205906001600160a01b031681565b6102b56102b0366004612e77565b610aa6565b604080519283526020830191909152016101e9565b6102dd6102d8366004612e77565b610afc565b6040516101e9919061304b565b6102fd6102f8366004613099565b610c5c565b6040516101e991906130cb565b61027a610d9c565b610325610320366004612e77565b610db0565b6040516101e994939291906130d9565b600454610205906001600160a01b031681565b610226610356366004613099565b610e11565b61027a610369366004612dd4565b610ef6565b61038161037c366004612e77565b610fa0565b6040516101e99190613112565b6000546001600160a01b0316610205565b6103e66103ad366004612e77565b60066020526000908152604090208054600182015460029092015460ff9182169291818116916101008104821691620100009091041685565b6040516101e9959493929190613154565b61027a610405366004613099565b6110b3565b600154610205906001600160a01b031681565b61027a61042b366004612f9c565b61110f565b61027a61043e3660046131a8565b6114cd565b61022661153d565b61027a61045936600461320d565b61177e565b600354610205906001600160a01b031681565b61048461047f366004612dd4565b6117f7565b6040516101e99190613228565b61027a61049f366004613245565b6118db565b6104ac612c7f565b60066000600886815481106104c3576104c3613286565b600091825260208083208884526001600790930201919091018152604080832087845282528083205460ff9081168552918401949094529183019020825160a0810190935280549091839116600581111561052057610520612e00565b600581111561053157610531612e00565b81526001820154602082015260029091015460ff80821660408401526101008204811660608401526201000090910416151560809091015290505b9392505050565b60408051600b808252610180820190925260609160009190816020015b606081526020019060019003908161059057905050905060005b600b8110156106155760408051600b808252610180820190925290816020015b6105d2612cb0565b8152602001906001900390816105ca579050508282815181106105f7576105f7613286565b6020026020010181905250808061060d906132c8565b9150506105aa565b5060005b600b8110156107605760005b600b81101561074d576008858154811061064157610641613286565b600091825260208083208584526001600790930201820181526040808420858552825292839020835160e081018552815460ff808216835261010090910416928101929092528351608081018552919390929084019190830160048282826020028201915b8154815260200190600101908083116106a65750505091835250506005919091015460ff8082161515602084015261010082048116151560408401526201000082048116151560608401526301000000909104161515608090910152835184908490811061071657610716613286565b6020026020010151828151811061072f5761072f613286565b60200260200101819052508080610745906132c8565b915050610625565b5080610758816132c8565b915050610619565b5092915050565b61076f612c7f565b60008281526006602052604090819020815160a081019092528054829060ff1660058111156107a0576107a0612e00565b60058111156107b1576107b1612e00565b81526001820154602082015260029091015460ff80821660408401526101008204811660608401526201000090910416151560809091015290505b92915050565b6001546001600160a01b0316331461080957600080fd5b60005b6008828154811061081f5761081f613286565b600091825260209091206003600790920201015460ff168110156108fb5760026008838154811061085257610852613286565b600091825260208083208584526007929092029091016002019052604090205462010000900460ff16600481111561088c5761088c612e00565b036108e9576001600883815481106108a6576108a6613286565b60009182526020808320858452600260079093020191909101905260409020805462ff00001916620100008360048111156108e3576108e3612e00565b02179055505b806108f3816132c8565b91505061080c565b5050565b6001546001600160a01b031633148061092257506004546001600160a01b031633145b8061093757506005546001600160a01b031633145b6109925760405162461bcd60e51b815260206004820152602160248201527f4e6f742067616d652f616374696f6e732f706c617965727320636f6e747261636044820152601d60fa1b60648201526084015b60405180910390fd5b6000600887815481106109a7576109a7613286565b600091825260208083208984526001600790930201820181526040808420898552909152918290208251608081019093520160048282826020028201915b8154815260200190600101908083116109e55750505050509050600060088881548110610a1457610a14613286565b90600052602060002090600702016002016000838760048110610a3957610a39613286565b602002015181526020019081526020016000209050838160000160026101000a81548160ff02191690836004811115610a7457610a74612e00565b02179055508215610a9c57805461ffff191661010060ff851690810260ff1916919091171781555b5050505050505050565b60008060088381548110610abc57610abc613286565b90600052602060002090600702016005015460088481548110610ae157610ae1613286565b90600052602060002090600702016006015491509150915091565b6060600060088381548110610b1357610b13613286565b600091825260209091206003600790920201015460ff1667ffffffffffffffff811115610b4257610b4261329c565b604051908082528060200260200182016040528015610b9457816020015b610b8160408051606081018252600080825260208201819052909182015290565b815260200190600190039081610b605790505b50905060005b81518110156107605760088481548110610bb657610bb6613286565b6000918252602080832084845260026007909302019190910181526040918290208251606081018452815460ff80821683526101008204811694830194909452909391929184019162010000909104166004811115610c1757610c17612e00565b6004811115610c2857610c28612e00565b81525050828281518110610c3e57610c3e613286565b60200260200101819052508080610c54906132c8565b915050610b9a565b610c7d60408051606081018252600080825260208201819052909182015290565b600060088681548110610c9257610c92613286565b600091825260208083208884526001600790930201820181526040808420888552909152918290208251608081019093520160048282826020028201915b815481526020019060010190808311610cd0575050505050905060088681548110610cfd57610cfd613286565b90600052602060002090600702016002016000828560048110610d2257610d22613286565b6020908102919091015182528181019290925260409081016000208151606081018352815460ff808216835261010082048116958301959095529093919284019162010000909104166004811115610d7c57610d7c612e00565b6004811115610d8d57610d8d612e00565b9052509150505b949350505050565b610da461198a565b610dae60006119e4565b565b60088181548110610dc057600080fd5b600091825260209182902060036007909202019081015460408051808201909152600483015460ff818116835261010090910481169482019490945260058301546006909301549390911693509184565b6001546000906001600160a01b03163314610e2b57600080fd5b600060088681548110610e4057610e40613286565b6000918252602080832088845260016007909302019190910181526040808320878452909152902090508215610e8457805460ff191660ff84161790555080610d94565b805460ff1660631901610e9b575060129050610d94565b805460ff1660001901610eea57610ed160088781548110610ebe57610ebe613286565b9060005260206000209060070201611a34565b815460ff191660ff919091169081179091559050610d94565b50600095945050505050565b6004546001600160a01b03163314610f475760405162461bcd60e51b8152602060048201526014602482015273139bdd081858dd1a5bdb9cc818dbdb9d1c9858dd60621b6044820152606401610989565b600160088481548110610f5c57610f5c613286565b6000918252602080832095835260016007909202909501018452604080822093825292909352912060050180549115156101000261ff001990921691909117905550565b6060600060075467ffffffffffffffff811115610fbf57610fbf61329c565b604051908082528060200260200182016040528015610ff857816020015b610fe5612c7f565b815260200190600190039081610fdd5790505b50905060005b81518110156107605760008181526006602052604090819020815160a081019092528054829060ff16600581111561103857611038612e00565b600581111561104957611049612e00565b81526001820154602082015260029091015460ff808216604084015261010082048116606084015262010000909104161515608090910152825183908390811061109557611095613286565b602002602001018190525080806110ab906132c8565b915050610ffe565b6110bb61198a565b80600885815481106110cf576110cf613286565b60009182526020808320968352600791909102909501600101855260408082209482529390945291909220805460ff191660ff9092169190911790555050565b6001546001600160a01b0316331461112657600080fd5b61112e612ccf565b60005b828110156114c75760005b600b8110156111f15760005b600b8110156111de576008868154811061116457611164613286565b60009182526020808320858452600792909202909101600101815260408083208484529091529020600501546301000000900460ff168483600b81106111ac576111ac613286565b602002015182600b81106111c2576111c2613286565b91151560209092020152806111d6816132c8565b915050611148565b50806111e9816132c8565b91505061113c565b5060005b600b8110156114b45760005b600b8110156114a1578382600b811061121c5761121c613286565b602002015181600b811061123257611232613286565b60200201511561148f5760005b600481101561148d5760006008888154811061125d5761125d613286565b60009182526020808320878452600160079093020182018152604080842087855290915290912001826004811061129657611296613286565b015490506000600889815481106112af576112af613286565b600091825260208083208584526007929092029091016002019052604090205462010000900460ff16905060038160048111156112ee576112ee612e00565b0361147857841580156112ff575082155b1561130b57505061147b565b6113176001600b6132e1565b851480156113255750826001145b1561133157505061147b565b8315801561133f5750826003145b1561134b57505061147b565b6113576001600b6132e1565b841480156113655750826002145b1561137157505061147b565b60025460408051808201825260ff8089168252871660208201529051634a8fe1ff60e11b81526000926001600160a01b03169163951fc3fe916113b89188916004016132f4565b6040805180830381865afa1580156113d4573d6000803e3d6000fd5b505050506040513d601f19601f820116820180604052508101906113f89190613329565b9050600060088b8154811061140f5761140f613286565b60009182526020808320855160ff9081168552600793909302016001018152604080842086830151841685529091529091208054909250161580159061145a5750805460ff16600214155b156114755760058101805463ff000000191663010000001790555b50505b50505b80611485816132c8565b91505061123f565b505b80611499816132c8565b915050611201565b50806114ac816132c8565b9150506111f5565b50806114bf816132c8565b915050611131565b50505050565b6114d561198a565b600180546001600160a01b03199081166001600160a01b038881169190911790925560028054821687841617905560038054821686841617905560048054821685841617905560058054909116918316919091179055611533611bd2565b6007555050505050565b6001546000906001600160a01b0316331461155757600080fd5b600880546001810182556000829052604080516103608101825260038152600460208201526005918101919091526006606082015260076080820181905260a0820193909352600960c0820152600a60e0820152600b610100820152600c610120820152600d610140820152600e610160820152600f61018082015260106101a082015260116101c082015260126101e08201526013610200820152601461022082015260156102408201526016610260820152601761028082015260186102a082015260196102c0820152601a6102e0820152601b6103008201819052601c610320830152601d610340830152929091027ff3f7a9fe364faab93b216da50a3214154f22a0a2b415b23a84c8169e8b636ee301916116799083908390612cfd565b506040805160608101825260ff808252602082015290810160009052600383015460ff9081166000908152600285016020908152604091829020845181549286015185166101000261ffff19909316941693909317178083559083015190829062ff00001916620100008360048111156116f5576116f5612e00565b0217905550505060038201805460ff1690600061171183613392565b82546101009290920a60ff8181021990931691909216919091021790555060408051808201909152600a8152600660209091015260048201805461ffff191661060a17905561175f82611d5f565b6117688261292f565b600854611777906001906132e1565b9250505090565b61178661198a565b6001600160a01b0381166117eb5760405162461bcd60e51b815260206004820152602660248201527f4f776e61626c653a206e6577206f776e657220697320746865207a65726f206160448201526564647265737360d01b6064820152608401610989565b6117f4816119e4565b50565b6117ff612cb0565b6008848154811061181257611812613286565b600091825260208083208684526001600790930201820181526040808420868552825292839020835160e081018552815460ff808216835261010090910416928101929092528351608081018552919390929084019190830160048282826020028201915b8154815260200190600101908083116118775750505091835250506005919091015460ff8082161515602084015261010082048116151560408401526201000082048116151560608401526301000000909104161515608090910152949350505050565b6005546001600160a01b0316331461192b5760405162461bcd60e51b8152602060048201526013602482015272139bdd081c1b185e595c8818dbdb9d1c9858dd606a1b6044820152606401610989565b806008858154811061193f5761193f613286565b600091825260208083209683526001600790920290960101855260408082209482529390945291909220600501805491151563010000000263ff000000199092169190911790555050565b6000546001600160a01b03163314610dae5760405162461bcd60e51b815260206004820181905260248201527f4f776e61626c653a2063616c6c6572206973206e6f7420746865206f776e65726044820152606401610989565b600080546001600160a01b038381166001600160a01b0319831681178455604051919092169283917f8be0079c531659141344cd1fd0a4f28419497f9722a3daafe3b4186f6b6457e09190a35050565b80546000908190611a47906001906132e1565b90505b8015611b6f5760025460405163ce28613f60e01b815260006004820181905260ff84166024830152916001600160a01b03169063ce28613f906044016020604051808303816000875af1158015611aa5573d6000803e3d6000fd5b505050506040513d601f19601f82011682018060405250810190611ac991906133b1565b9050836000018160ff1681548110611ae357611ae3613286565b9060005260206000200154846000018381548110611b0357611b03613286565b9060005260206000200154856000018481548110611b2357611b23613286565b906000526020600020016000876000018560ff1681548110611b4757611b47613286565b6000918252602090912001929092559190915550819050611b67816133cc565b915050611a4a565b5081546000908390611b83906001906132e1565b81548110611b9357611b93613286565b9060005260206000200154905082600001805480611bb357611bb36133e3565b6001900381819060005260206000200160009055905580915050919050565b600080600360009054906101000a90046001600160a01b03166001600160a01b03166338fdf0bd6040518163ffffffff1660e01b8152600401602060405180830381865afa158015611c28573d6000803e3d6000fd5b505050506040513d601f19601f82011682018060405250810190611c4c91906133f9565b905060005b81811015611d595760035460405163413a9f5f60e11b8152600481018390526001600160a01b03909116906382753ebe9060240160a060405180830381865afa158015611ca2573d6000803e3d6000fd5b505050506040513d601f19601f82011682018060405250810190611cc69190613412565b600082815260066020526040902081518154829060ff19166001836005811115611cf257611cf2612e00565b02179055506020820151600182015560408201516002909101805460608401516080909401511515620100000262ff00001960ff9586166101000261ffff199093169590941694909417179190911691909117905580611d51816132c8565b915050611c51565b50919050565b6000806002600754611d7191906132e1565b905060016000611d7f612ccf565b6004860154600190829060ff16600b8110611d9c57611d9c613286565b60200201516004880154610100900460ff16600b8110611dbe57611dbe613286565b91151560209092020152611dd0612d48565b60408051808201909152600488015460ff80821683526101009091041660208201528187601e8110611e0457611e04613286565b602002015285611e13816132c8565b9650505b600085118015611e275750600086115b156128a357600081611e3a6001896132e1565b601e8110611e4a57611e4a613286565b6020020151905086611e5b816133cc565b9750508187601e8110611e7057611e70613286565b60200201611e976040518060400160405280600060ff168152602001600060ff1681525090565b905285611ea3816133cc565b9650508480611eb1906133cc565b825160ff908116600090815260018c810160209081526040808420828901519095168452939052828220805460ff19169091179055600254915163ce28613f60e01b8152600481019190915260636024820152919750602192506001600160a01b03169063ce28613f906044016020604051808303816000875af1158015611f3d573d6000803e3d6000fd5b505050506040513d601f19601f82011682018060405250810190611f6191906133b1565b60ff161015611fa457805160ff908116600090815260018a016020908152604080832082860151909416835292905220600501805462ff00001916620100001790555b6000604051806080016040528060008152602001600181526020016002815260200160038152509050600060016004611fdd91906132e1565b90505b80156120d95760025460405163ce28613f60e01b815260006004820181905260ff84166024830152916001600160a01b03169063ce28613f906044016020604051808303816000875af115801561203b573d6000803e3d6000fd5b505050506040513d601f19601f8201168201806040525081019061205f91906133b1565b9050828160ff166004811061207657612076613286565b602002015183836004811061208d5761208d613286565b60200201518484600481106120a4576120a4613286565b60200201858460ff16600481106120bd576120bd613286565b60200201919091525250806120d1816133cc565b915050611fe0565b5060005b600481101561289b5782516020840151600091820b910b83836004811061210657612106613286565b6020020151600003612124578161211c816134af565b9250506121a8565b83836004811061213657612136613286565b602002015160010361214c578161211c816134c4565b83836004811061215e5761215e613286565b602002015160020361217c5780612174816134c4565b9150506121a8565b83836004811061218e5761218e613286565b60200201516003036121a857806121a4816134af565b9150505b60018212806121b75750600181125b806121cc57506121c96002600b6132e1565b82135b806121e157506121de6002600b6132e1565b81135b156121ed575050612889565b6040805180820190915260ff80841680835290831660208301528890600b811061221957612219613286565b6020020151816020015160ff16600b811061223657612236613286565b6020020151158061231157508c6001016000876000015160ff1681526020019081526020016000206000876020015160ff168152602001908152602001600020600101600260009054906101000a90046001600160a01b03166001600160a01b031663fa3993c288846040518363ffffffff1660e01b81526004016122bc9291906134dc565b602060405180830381865afa1580156122d9573d6000803e3d6000fd5b505050506040513d601f19601f820116820180604052508101906122fd91906133f9565b6004811061230d5761230d613286565b0154155b15612885578915806123a457506123298960426132e1565b60025460405163ce28613f60e01b815260006004820152606360248201526001600160a01b039091169063ce28613f906044016020604051808303816000875af115801561237b573d6000803e3d6000fd5b505050506040513d601f19601f8201168201806040525081019061239f91906133b1565b60ff16105b156128805760408051606081019182905260025463ce28613f60e01b90925260006064820152600360848201529081906001600160a01b031663ce28613f60a483016020604051808303816000875af1158015612405573d6000803e3d6000fd5b505050506040513d601f19601f8201168201806040525081019061242991906133b1565b60ff16815260025460405163ce28613f60e01b815260006004820152600360248201526020909201916001600160a01b039091169063ce28613f906044016020604051808303816000875af1158015612486573d6000803e3d6000fd5b505050506040513d601f19601f820116820180604052508101906124aa91906133b1565b60ff16815260200160018152508d60020160008f60030160009054906101000a900460ff1660ff16815260200190815260200160002060008201518160000160006101000a81548160ff021916908360ff16021790555060208201518160000160016101000a81548160ff021916908360ff16021790555060408201518160000160026101000a81548160ff0219169083600481111561254c5761254c612e00565b0217905550505060038d015460ff908116600090815260028f016020526040812054909116900361259f5760038d015460ff16600090815260028e0160205260409020805462ff00001916620300001790555b60038d01805460ff169060006125b483613392565b91906101000a81548160ff021916908360ff160217905550506016896125da9190613516565b985060428911156125ea57604298505b8051889060ff16600b811061260157612601613286565b6020020151816020015160ff16600b811061261e5761261e613286565b602002015115156000036126a25780878d601e811061263f5761263f613286565b60200201528b61264e816132c8565b9c5050898061265c906132c8565b9a5050600188826000015160ff16600b811061267a5761267a613286565b6020020151826020015160ff16600b811061269757612697613286565b911515602090920201525b8c6001016000876000015160ff1681526020019081526020016000206000876020015160ff1681526020019081526020016000206001018585600481106126eb576126eb613286565b60200201516004811061270057612700613286565b015460000361287b5760038d015461271d9060019060ff16613529565b60ff168d6001016000886000015160ff1681526020019081526020016000206000886020015160ff16815260200190815260200160002060010186866004811061276957612769613286565b60200201516004811061277e5761277e613286565b015560038d01546127949060019060ff16613529565b60ff168d6001016000836000015160ff1681526020019081526020016000206000836020015160ff168152602001908152602001600020600101600260009054906101000a90046001600160a01b03166001600160a01b0316638214f22288886004811061280457612804613286565b60200201516040518263ffffffff1660e01b815260040161282791815260200190565b602060405180830381865afa158015612844573d6000803e3d6000fd5b505050506040513d601f19601f8201168201806040525081019061286891906133f9565b6004811061287857612878613286565b01555b612885565b600098505b5050505b80612893816132c8565b9150506120dd565b505050611e17565b60048701805460ff80821660009081526001808c016020818152604080852061010097889004871686528252808520805460ff1916600290811790915597548087168652928252808520969092049094168352938352838220600501805462ff000019908116909155908252938b01909152208054600392166201000083021790555050505050505050565b6000805b600b811015612c7a5760005b600b811015612c67576000828152600185016020908152604080832084845290915290205460ff1660001901612c555782612979816132c8565b935050826005036129b957600082815260018501602090815260408083208484529091529020805460ff1916606417905560058401829055600684018190555b60005b6004811015612c535760008381526001808701602090815260408084208685529091529091200181600481106129f4576129f4613286565b0154600003612c415760025460408051808201825260ff8087168252851660208201529051634a8fe1ff60e11b81526000926001600160a01b03169163951fc3fe91612a449186916004016132f4565b6040805180830381865afa158015612a60573d6000803e3d6000fd5b505050506040513d601f19601f82011682018060405250810190612a849190613329565b805160ff90811660009081526001890160209081526040808320828601518516845290915280822054600254915163ce28613f60e01b815260048101939093526063602484015293945092909116916042916001600160a01b039091169063ce28613f906044016020604051808303816000875af1158015612b0a573d6000803e3d6000fd5b505050506040513d601f19601f82011682018060405250810190612b2e91906133b1565b60ff16108015612b3c575080155b15612c3e576040805160608101825260ff808252602082015290810160049052600388015460ff908116600090815260028a016020908152604091829020845181549286015185166101000261ffff19909316941693909317178083559083015190829062ff0000191662010000836004811115612bbc57612bbc612e00565b0217905550505060038701805460ff16906000612bd883613392565b82546101009290920a60ff8181021990931691831602179091556003890154612c05925060019116613529565b60008681526001808a016020908152604080842089855290915290912060ff9290921691018460048110612c3b57612c3b613286565b01555b50505b80612c4b816132c8565b9150506129bc565b505b80612c5f816132c8565b91505061293f565b5080612c72816132c8565b915050612933565b505050565b6040805160a081019091528060005b8152600060208201819052604082018190526060820181905260809091015290565b6040805160e08101825260008082526020820152908101612c8e612d82565b604051806101600160405280600b905b612ce7612da0565b815260200190600190039081612cdf5790505090565b828054828255906000526020600020908101928215612d38579160200282015b82811115612d38578251825591602001919060010190612d1d565b50612d44929150612dbf565b5090565b604051806103c00160405280601e905b6040805180820190915260008082526020820152815260200190600190039081612d585790505090565b60405180608001604052806004906020820280368337509192915050565b604051806101600160405280600b906020820280368337509192915050565b5b80821115612d445760008155600101612dc0565b600080600060608486031215612de957600080fd5b505081359360208301359350604090920135919050565b634e487b7160e01b600052602160045260246000fd5b60068110612e2657612e26612e00565b9052565b612e35828251612e16565b6020810151602083015260ff604082015116604083015260ff60608201511660608301526080810151151560808301525050565b60a081016107ec8284612e2a565b600060208284031215612e8957600080fd5b5035919050565b60ff8151168252602060ff81830151168184015260408201516040840160005b6004811015612ecd57825182529183019190830190600101612eb0565b505050506060810151151560c0838101919091526080820151151560e084015260a082015115156101008401520151151561012090910152565b6000602080830181845280855180835260408601915060408160051b87010192508387016000805b83811015612f8e57888603603f19018552825180518088529088019088880190845b81811015612f7857612f64838551612e90565b928a01926101409290920191600101612f51565b5090975050509386019391860191600101612f2f565b509398975050505050505050565b60008060408385031215612faf57600080fd5b50508035926020909101359150565b60008060008060008060c08789031215612fd757600080fd5b8635955060208701359450604087013593506060870135925060808701356005811061300257600080fd5b8092505060a087013590509295509295509295565b60ff815116825260ff602082015116602083015260408101516005811061304057613040612e00565b806040840152505050565b6020808252825182820181905260009190848201906040850190845b8181101561308d5761307a838551613017565b9284019260609290920191600101613067565b50909695505050505050565b600080600080608085870312156130af57600080fd5b5050823594602084013594506040840135936060013592509050565b606081016107ec8284613017565b60ff8516815260a081016131006020830186805160ff908116835260209182015116910152565b60608201939093526080015292915050565b6020808252825182820181905260009190848201906040850190845b8181101561308d57613141838551612e2a565b9284019260a0929092019160010161312e565b60a081016131628288612e16565b85602083015260ff8516604083015260ff8416606083015282151560808301529695505050505050565b80356001600160a01b03811681146131a357600080fd5b919050565b600080600080600060a086880312156131c057600080fd5b6131c98661318c565b94506131d76020870161318c565b93506131e56040870161318c565b92506131f36060870161318c565b91506132016080870161318c565b90509295509295909350565b60006020828403121561321f57600080fd5b61056c8261318c565b61014081016107ec8284612e90565b80151581146117f457600080fd5b6000806000806080858703121561325b57600080fd5b843593506020850135925060408501359150606085013561327b81613237565b939692955090935050565b634e487b7160e01b600052603260045260246000fd5b634e487b7160e01b600052604160045260246000fd5b634e487b7160e01b600052601160045260246000fd5b6000600182016132da576132da6132b2565b5060010190565b818103818111156107ec576107ec6132b2565b8281526060810161056c6020830184805160ff908116835260209182015116910152565b805160ff811681146131a357600080fd5b60006040828403121561333b57600080fd5b6040516040810181811067ffffffffffffffff8211171561336c57634e487b7160e01b600052604160045260246000fd5b60405261337883613318565b815261338660208401613318565b60208201529392505050565b600060ff821660ff81036133a8576133a86132b2565b60010192915050565b6000602082840312156133c357600080fd5b61056c82613318565b6000816133db576133db6132b2565b506000190190565b634e487b7160e01b600052603160045260246000fd5b60006020828403121561340b57600080fd5b5051919050565b600060a0828403121561342457600080fd5b60405160a0810181811067ffffffffffffffff8211171561345557634e487b7160e01b600052604160045260246000fd5b60405282516006811061346757600080fd5b81526020838101519082015261347f60408401613318565b604082015261349060608401613318565b606082015260808301516134a381613237565b60808201529392505050565b6000600160ff1b82016133db576133db6132b2565b60006001600160ff1b0182016132da576132da6132b2565b608081016134fa8285805160ff908116835260209182015116910152565b825160ff9081166040840152602084015116606083015261056c565b808201808211156107ec576107ec6132b2565b60ff82811682821603908111156107ec576107ec6132b256fea26469706673582212203050613dc930faf577178cc9db48928a43861d5485c6d8e90385592ce85b0f7c64736f6c63430008110033",
  "devdoc": {
    "kind": "dev",
    "methods": {
      "owner()": {
        "details": "Returns the address of the current owner."
      },
      "renounceOwnership()": {
        "details": "Leaves the contract without owner. It will not be possible to call `onlyOwner` functions anymore. Can only be called by the current owner. NOTE: Renouncing ownership will leave the contract without an owner, thereby removing any functionality that is only available to the owner."
      },
      "transferOwnership(address)": {
        "details": "Transfers ownership of the contract to a new account (`newOwner`). Can only be called by the current owner."
      }
    },
    "version": 1
  },
  "userdoc": {
    "kind": "user",
    "methods": {},
    "version": 1
  },
  "storageLayout": {
    "storage": [
      {
        "astId": 7,
        "contract": "contracts/BCMaps.sol:Maps",
        "label": "_owner",
        "offset": 0,
        "slot": "0",
        "type": "t_address"
      },
      {
        "astId": 8874,
        "contract": "contracts/BCMaps.sol:Maps",
        "label": "game",
        "offset": 0,
        "slot": "1",
        "type": "t_address"
      },
      {
        "astId": 8877,
        "contract": "contracts/BCMaps.sol:Maps",
        "label": "utils",
        "offset": 0,
        "slot": "2",
        "type": "t_contract(UtilsInterface)8870"
      },
      {
        "astId": 8880,
        "contract": "contracts/BCMaps.sol:Maps",
        "label": "roomTiles",
        "offset": 0,
        "slot": "3",
        "type": "t_contract(RoomTileInterface)8831"
      },
      {
        "astId": 8882,
        "contract": "contracts/BCMaps.sol:Maps",
        "label": "actionsAddress",
        "offset": 0,
        "slot": "4",
        "type": "t_address"
      },
      {
        "astId": 8884,
        "contract": "contracts/BCMaps.sol:Maps",
        "label": "playersAddress",
        "offset": 0,
        "slot": "5",
        "type": "t_address"
      },
      {
        "astId": 8934,
        "contract": "contracts/BCMaps.sol:Maps",
        "label": "roomList",
        "offset": 0,
        "slot": "6",
        "type": "t_mapping(t_uint256,t_struct(RoomTile)12454_storage)"
      },
      {
        "astId": 8936,
        "contract": "contracts/BCMaps.sol:Maps",
        "label": "numRooms",
        "offset": 0,
        "slot": "7",
        "type": "t_uint256"
      },
      {
        "astId": 8940,
        "contract": "contracts/BCMaps.sol:Maps",
        "label": "maps",
        "offset": 0,
        "slot": "8",
        "type": "t_array(t_struct(Map)12393_storage)dyn_storage"
      }
    ],
    "types": {
      "t_address": {
        "encoding": "inplace",
        "label": "address",
        "numberOfBytes": "20"
      },
      "t_array(t_struct(Map)12393_storage)dyn_storage": {
        "base": "t_struct(Map)12393_storage",
        "encoding": "dynamic_array",
        "label": "struct BCTypes.Map[]",
        "numberOfBytes": "32"
      },
      "t_array(t_uint256)4_storage": {
        "base": "t_uint256",
        "encoding": "inplace",
        "label": "uint256[4]",
        "numberOfBytes": "128"
      },
      "t_array(t_uint256)dyn_storage": {
        "base": "t_uint256",
        "encoding": "dynamic_array",
        "label": "uint256[]",
        "numberOfBytes": "32"
      },
      "t_bool": {
        "encoding": "inplace",
        "label": "bool",
        "numberOfBytes": "1"
      },
      "t_contract(RoomTileInterface)8831": {
        "encoding": "inplace",
        "label": "contract RoomTileInterface",
        "numberOfBytes": "20"
      },
      "t_contract(UtilsInterface)8870": {
        "encoding": "inplace",
        "label": "contract UtilsInterface",
        "numberOfBytes": "20"
      },
      "t_enum(BCEventType)12289": {
        "encoding": "inplace",
        "label": "enum BCTypes.BCEventType",
        "numberOfBytes": "1"
      },
      "t_enum(DoorStatus)12271": {
        "encoding": "inplace",
        "label": "enum BCTypes.DoorStatus",
        "numberOfBytes": "1"
      },
      "t_mapping(t_uint256,t_mapping(t_uint256,t_struct(GameTile)12360_storage))": {
        "encoding": "mapping",
        "key": "t_uint256",
        "label": "mapping(uint256 => mapping(uint256 => struct BCTypes.GameTile))",
        "numberOfBytes": "32",
        "value": "t_mapping(t_uint256,t_struct(GameTile)12360_storage)"
      },
      "t_mapping(t_uint256,t_struct(Door)12368_storage)": {
        "encoding": "mapping",
        "key": "t_uint256",
        "label": "mapping(uint256 => struct BCTypes.Door)",
        "numberOfBytes": "32",
        "value": "t_struct(Door)12368_storage"
      },
      "t_mapping(t_uint256,t_struct(GameTile)12360_storage)": {
        "encoding": "mapping",
        "key": "t_uint256",
        "label": "mapping(uint256 => struct BCTypes.GameTile)",
        "numberOfBytes": "32",
        "value": "t_struct(GameTile)12360_storage"
      },
      "t_mapping(t_uint256,t_struct(RoomTile)12454_storage)": {
        "encoding": "mapping",
        "key": "t_uint256",
        "label": "mapping(uint256 => struct BCTypes.RoomTile)",
        "numberOfBytes": "32",
        "value": "t_struct(RoomTile)12454_storage"
      },
      "t_struct(Door)12368_storage": {
        "encoding": "inplace",
        "label": "struct BCTypes.Door",
        "members": [
          {
            "astId": 12362,
            "contract": "contracts/BCMaps.sol:Maps",
            "label": "vsBreach",
            "offset": 0,
            "slot": "0",
            "type": "t_uint8"
          },
          {
            "astId": 12364,
            "contract": "contracts/BCMaps.sol:Maps",
            "label": "vsHack",
            "offset": 1,
            "slot": "0",
            "type": "t_uint8"
          },
          {
            "astId": 12367,
            "contract": "contracts/BCMaps.sol:Maps",
            "label": "status",
            "offset": 2,
            "slot": "0",
            "type": "t_enum(DoorStatus)12271"
          }
        ],
        "numberOfBytes": "32"
      },
      "t_struct(GameTile)12360_storage": {
        "encoding": "inplace",
        "label": "struct BCTypes.GameTile",
        "members": [
          {
            "astId": 12345,
            "contract": "contracts/BCMaps.sol:Maps",
            "label": "roomId",
            "offset": 0,
            "slot": "0",
            "type": "t_uint8"
          },
          {
            "astId": 12347,
            "contract": "contracts/BCMaps.sol:Maps",
            "label": "parentId",
            "offset": 1,
            "slot": "0",
            "type": "t_uint8"
          },
          {
            "astId": 12351,
            "contract": "contracts/BCMaps.sol:Maps",
            "label": "doors",
            "offset": 0,
            "slot": "1",
            "type": "t_array(t_uint256)4_storage"
          },
          {
            "astId": 12353,
            "contract": "contracts/BCMaps.sol:Maps",
            "label": "explored",
            "offset": 0,
            "slot": "5",
            "type": "t_bool"
          },
          {
            "astId": 12355,
            "contract": "contracts/BCMaps.sol:Maps",
            "label": "looted",
            "offset": 1,
            "slot": "5",
            "type": "t_bool"
          },
          {
            "astId": 12357,
            "contract": "contracts/BCMaps.sol:Maps",
            "label": "hasVent",
            "offset": 2,
            "slot": "5",
            "type": "t_bool"
          },
          {
            "astId": 12359,
            "contract": "contracts/BCMaps.sol:Maps",
            "label": "hasHazard",
            "offset": 3,
            "slot": "5",
            "type": "t_bool"
          }
        ],
        "numberOfBytes": "192"
      },
      "t_struct(Map)12393_storage": {
        "encoding": "inplace",
        "label": "struct BCTypes.Map",
        "members": [
          {
            "astId": 12371,
            "contract": "contracts/BCMaps.sol:Maps",
            "label": "unusedNormalRooms",
            "offset": 0,
            "slot": "0",
            "type": "t_array(t_uint256)dyn_storage"
          },
          {
            "astId": 12378,
            "contract": "contracts/BCMaps.sol:Maps",
            "label": "board",
            "offset": 0,
            "slot": "1",
            "type": "t_mapping(t_uint256,t_mapping(t_uint256,t_struct(GameTile)12360_storage))"
          },
          {
            "astId": 12383,
            "contract": "contracts/BCMaps.sol:Maps",
            "label": "doors",
            "offset": 0,
            "slot": "2",
            "type": "t_mapping(t_uint256,t_struct(Door)12368_storage)"
          },
          {
            "astId": 12385,
            "contract": "contracts/BCMaps.sol:Maps",
            "label": "numDoors",
            "offset": 0,
            "slot": "3",
            "type": "t_uint8"
          },
          {
            "astId": 12388,
            "contract": "contracts/BCMaps.sol:Maps",
            "label": "startPosition",
            "offset": 0,
            "slot": "4",
            "type": "t_struct(Position)12343_storage"
          },
          {
            "astId": 12390,
            "contract": "contracts/BCMaps.sol:Maps",
            "label": "mainReactorRow",
            "offset": 0,
            "slot": "5",
            "type": "t_uint256"
          },
          {
            "astId": 12392,
            "contract": "contracts/BCMaps.sol:Maps",
            "label": "mainReactorCol",
            "offset": 0,
            "slot": "6",
            "type": "t_uint256"
          }
        ],
        "numberOfBytes": "224"
      },
      "t_struct(Position)12343_storage": {
        "encoding": "inplace",
        "label": "struct BCTypes.Position",
        "members": [
          {
            "astId": 12340,
            "contract": "contracts/BCMaps.sol:Maps",
            "label": "row",
            "offset": 0,
            "slot": "0",
            "type": "t_uint8"
          },
          {
            "astId": 12342,
            "contract": "contracts/BCMaps.sol:Maps",
            "label": "col",
            "offset": 1,
            "slot": "0",
            "type": "t_uint8"
          }
        ],
        "numberOfBytes": "32"
      },
      "t_struct(RoomTile)12454_storage": {
        "encoding": "inplace",
        "label": "struct BCTypes.RoomTile",
        "members": [
          {
            "astId": 12445,
            "contract": "contracts/BCMaps.sol:Maps",
            "label": "eventType",
            "offset": 0,
            "slot": "0",
            "type": "t_enum(BCEventType)12289"
          },
          {
            "astId": 12447,
            "contract": "contracts/BCMaps.sol:Maps",
            "label": "eventNum",
            "offset": 0,
            "slot": "1",
            "type": "t_uint256"
          },
          {
            "astId": 12449,
            "contract": "contracts/BCMaps.sol:Maps",
            "label": "numItems",
            "offset": 0,
            "slot": "2",
            "type": "t_uint8"
          },
          {
            "astId": 12451,
            "contract": "contracts/BCMaps.sol:Maps",
            "label": "numData",
            "offset": 1,
            "slot": "2",
            "type": "t_uint8"
          },
          {
            "astId": 12453,
            "contract": "contracts/BCMaps.sol:Maps",
            "label": "sigDetected",
            "offset": 2,
            "slot": "2",
            "type": "t_bool"
          }
        ],
        "numberOfBytes": "96"
      },
      "t_uint256": {
        "encoding": "inplace",
        "label": "uint256",
        "numberOfBytes": "32"
      },
      "t_uint8": {
        "encoding": "inplace",
        "label": "uint8",
        "numberOfBytes": "1"
      }
    }
  }
}