{
  "address": "0x91ad64c293A0F26d7213154615d4CDE8C076Ac6b",
  "abi": [
    {
      "anonymous": false,
      "inputs": [
        {
          "indexed": true,
          "internalType": "address",
          "name": "previousOwner",
          "type": "address"
        },
        {
          "indexed": true,
          "internalType": "address",
          "name": "newOwner",
          "type": "address"
        }
      ],
      "name": "OwnershipTransferred",
      "type": "event"
    },
    {
      "inputs": [],
      "name": "createMap",
      "outputs": [
        {
          "internalType": "uint256",
          "name": "",
          "type": "uint256"
        }
      ],
      "stateMutability": "nonpayable",
      "type": "function"
    },
    {
      "inputs": [
        {
          "internalType": "uint256",
          "name": "_mapId",
          "type": "uint256"
        },
        {
          "internalType": "uint256",
          "name": "_row",
          "type": "uint256"
        },
        {
          "internalType": "uint256",
          "name": "_col",
          "type": "uint256"
        }
      ],
      "name": "discoverRoom",
      "outputs": [
        {
          "internalType": "bool",
          "name": "",
          "type": "bool"
        }
      ],
      "stateMutability": "nonpayable",
      "type": "function"
    },
    {
      "inputs": [
        {
          "internalType": "uint256",
          "name": "_mapId",
          "type": "uint256"
        }
      ],
      "name": "extGetBoard",
      "outputs": [
        {
          "components": [
            {
              "internalType": "uint8",
              "name": "roomId",
              "type": "uint8"
            },
            {
              "internalType": "uint8",
              "name": "parentId",
              "type": "uint8"
            },
            {
              "internalType": "uint256[4]",
              "name": "doors",
              "type": "uint256[4]"
            },
            {
              "internalType": "bool",
              "name": "explored",
              "type": "bool"
            },
            {
              "internalType": "bool",
              "name": "looted",
              "type": "bool"
            },
            {
              "internalType": "bool",
              "name": "hasVent",
              "type": "bool"
            }
          ],
          "internalType": "struct BCTypes.GameTile[][]",
          "name": "",
          "type": "tuple[][]"
        }
      ],
      "stateMutability": "view",
      "type": "function"
    },
    {
      "inputs": [
        {
          "internalType": "uint256",
          "name": "_mapId",
          "type": "uint256"
        }
      ],
      "name": "extGetDoors",
      "outputs": [
        {
          "components": [
            {
              "internalType": "uint8",
              "name": "vsBreach",
              "type": "uint8"
            },
            {
              "internalType": "uint8",
              "name": "vsHack",
              "type": "uint8"
            },
            {
              "internalType": "enum BCTypes.DoorStatus",
              "name": "status",
              "type": "uint8"
            }
          ],
          "internalType": "struct BCTypes.Door[]",
          "name": "",
          "type": "tuple[]"
        }
      ],
      "stateMutability": "view",
      "type": "function"
    },
    {
      "inputs": [
        {
          "internalType": "uint256",
          "name": "_mapId",
          "type": "uint256"
        },
        {
          "internalType": "uint256",
          "name": "_row",
          "type": "uint256"
        },
        {
          "internalType": "uint256",
          "name": "_col",
          "type": "uint256"
        }
      ],
      "name": "extGetGameTile",
      "outputs": [
        {
          "components": [
            {
              "internalType": "uint8",
              "name": "roomId",
              "type": "uint8"
            },
            {
              "internalType": "uint8",
              "name": "parentId",
              "type": "uint8"
            },
            {
              "internalType": "uint256[4]",
              "name": "doors",
              "type": "uint256[4]"
            },
            {
              "internalType": "bool",
              "name": "explored",
              "type": "bool"
            },
            {
              "internalType": "bool",
              "name": "looted",
              "type": "bool"
            },
            {
              "internalType": "bool",
              "name": "hasVent",
              "type": "bool"
            }
          ],
          "internalType": "struct BCTypes.GameTile",
          "name": "",
          "type": "tuple"
        }
      ],
      "stateMutability": "view",
      "type": "function"
    },
    {
      "inputs": [
        {
          "internalType": "uint256",
          "name": "_mapId",
          "type": "uint256"
        },
        {
          "internalType": "uint256",
          "name": "_row",
          "type": "uint256"
        },
        {
          "internalType": "uint256",
          "name": "_col",
          "type": "uint256"
        }
      ],
      "name": "extGetRoom",
      "outputs": [
        {
          "components": [
            {
              "internalType": "enum BCTypes.BCEventType",
              "name": "eventType",
              "type": "uint8"
            },
            {
              "internalType": "uint256",
              "name": "eventNum",
              "type": "uint256"
            },
            {
              "internalType": "uint8",
              "name": "numItems",
              "type": "uint8"
            },
            {
              "internalType": "uint8",
              "name": "numData",
              "type": "uint8"
            },
            {
              "internalType": "bool",
              "name": "hasHazard",
              "type": "bool"
            },
            {
              "internalType": "bool",
              "name": "sigDetected",
              "type": "bool"
            }
          ],
          "internalType": "struct BCTypes.RoomTile",
          "name": "",
          "type": "tuple"
        }
      ],
      "stateMutability": "view",
      "type": "function"
    },
    {
      "inputs": [],
      "name": "game",
      "outputs": [
        {
          "internalType": "contract GameInterface",
          "name": "",
          "type": "address"
        }
      ],
      "stateMutability": "view",
      "type": "function"
    },
    {
      "inputs": [
        {
          "internalType": "uint256",
          "name": "_mapId",
          "type": "uint256"
        },
        {
          "internalType": "uint256",
          "name": "_row",
          "type": "uint256"
        },
        {
          "internalType": "uint256",
          "name": "_col",
          "type": "uint256"
        },
        {
          "internalType": "uint256",
          "name": "_direction",
          "type": "uint256"
        }
      ],
      "name": "getDoor",
      "outputs": [
        {
          "components": [
            {
              "internalType": "uint8",
              "name": "vsBreach",
              "type": "uint8"
            },
            {
              "internalType": "uint8",
              "name": "vsHack",
              "type": "uint8"
            },
            {
              "internalType": "enum BCTypes.DoorStatus",
              "name": "status",
              "type": "uint8"
            }
          ],
          "internalType": "struct BCTypes.Door",
          "name": "",
          "type": "tuple"
        }
      ],
      "stateMutability": "view",
      "type": "function"
    },
    {
      "inputs": [
        {
          "internalType": "uint256",
          "name": "",
          "type": "uint256"
        }
      ],
      "name": "maps",
      "outputs": [
        {
          "internalType": "uint8",
          "name": "numRooms",
          "type": "uint8"
        },
        {
          "internalType": "uint8",
          "name": "numDoors",
          "type": "uint8"
        },
        {
          "components": [
            {
              "internalType": "uint8",
              "name": "row",
              "type": "uint8"
            },
            {
              "internalType": "uint8",
              "name": "col",
              "type": "uint8"
            }
          ],
          "internalType": "struct BCTypes.Position",
          "name": "startPosition",
          "type": "tuple"
        }
      ],
      "stateMutability": "view",
      "type": "function"
    },
    {
      "inputs": [],
      "name": "owner",
      "outputs": [
        {
          "internalType": "address",
          "name": "",
          "type": "address"
        }
      ],
      "stateMutability": "view",
      "type": "function"
    },
    {
      "inputs": [],
      "name": "renounceOwnership",
      "outputs": [],
      "stateMutability": "nonpayable",
      "type": "function"
    },
    {
      "inputs": [
        {
          "internalType": "uint256",
          "name": "_mapId",
          "type": "uint256"
        }
      ],
      "name": "resetOpenDoors",
      "outputs": [],
      "stateMutability": "nonpayable",
      "type": "function"
    },
    {
      "inputs": [],
      "name": "roomTiles",
      "outputs": [
        {
          "internalType": "contract RoomTileInterface",
          "name": "",
          "type": "address"
        }
      ],
      "stateMutability": "view",
      "type": "function"
    },
    {
      "inputs": [
        {
          "internalType": "address",
          "name": "_gameAddress",
          "type": "address"
        },
        {
          "internalType": "address",
          "name": "_utilsAddress",
          "type": "address"
        },
        {
          "internalType": "address",
          "name": "_roomTilesAddress",
          "type": "address"
        }
      ],
      "name": "setContractAddresses",
      "outputs": [],
      "stateMutability": "nonpayable",
      "type": "function"
    },
    {
      "inputs": [
        {
          "internalType": "uint256",
          "name": "_mapId",
          "type": "uint256"
        },
        {
          "internalType": "uint256",
          "name": "_row",
          "type": "uint256"
        },
        {
          "internalType": "uint256",
          "name": "_col",
          "type": "uint256"
        },
        {
          "internalType": "uint256",
          "name": "_direction",
          "type": "uint256"
        },
        {
          "internalType": "enum BCTypes.DoorStatus",
          "name": "_status",
          "type": "uint8"
        }
      ],
      "name": "setDoorFromPos",
      "outputs": [],
      "stateMutability": "nonpayable",
      "type": "function"
    },
    {
      "inputs": [
        {
          "internalType": "uint256",
          "name": "_mapId",
          "type": "uint256"
        },
        {
          "internalType": "uint256",
          "name": "_row",
          "type": "uint256"
        },
        {
          "internalType": "uint256",
          "name": "_col",
          "type": "uint256"
        }
      ],
      "name": "setLooted",
      "outputs": [],
      "stateMutability": "nonpayable",
      "type": "function"
    },
    {
      "inputs": [
        {
          "internalType": "address",
          "name": "newOwner",
          "type": "address"
        }
      ],
      "name": "transferOwnership",
      "outputs": [],
      "stateMutability": "nonpayable",
      "type": "function"
    },
    {
      "inputs": [],
      "name": "utils",
      "outputs": [
        {
          "internalType": "contract UtilsInterface",
          "name": "",
          "type": "address"
        }
      ],
      "stateMutability": "view",
      "type": "function"
    }
  ],
  "transactionHash": "0xda17e83775517a230ee890616fb1808880fb04dcc10cbabd968af6fe790d001f",
  "args": [],
  "numDeployments": 2,
  "solcInputHash": "216891fe6ee76ae78fa80fc8c36776f3",
  "bytecode": "0x60806040523480156200001157600080fd5b5062000032620000266200003860201b60201c565b6200004060201b60201c565b62000104565b600033905090565b60008060009054906101000a900473ffffffffffffffffffffffffffffffffffffffff169050816000806101000a81548173ffffffffffffffffffffffffffffffffffffffff021916908373ffffffffffffffffffffffffffffffffffffffff1602179055508173ffffffffffffffffffffffffffffffffffffffff168173ffffffffffffffffffffffffffffffffffffffff167f8be0079c531659141344cd1fd0a4f28419497f9722a3daafe3b4186f6b6457e060405160405180910390a35050565b6149b080620001146000396000f3fe608060405234801561001057600080fd5b50600436106101165760003560e01c806386e529d0116100a2578063c3fe3e2811610071578063c3fe3e28146102f3578063f01fc35a14610311578063f2fde38b1461032f578063f7157f641461034b578063f9dfbfcb1461036957610116565b806386e529d0146102815780638ab633801461029d5780638da5cb5b146102b9578063b6cdd3b4146102d757610116565b80635a29638d116100e95780635a29638d146101c757806369568fd5146101e55780636ea1dcd814610215578063715018a61461024557806375990a0e1461024f57610116565b806302861c6c1461011b5780631ef044161461014b578063471b67591461017b57806358308aa8146101ab575b600080fd5b610135600480360381019061013091906134a2565b610399565b604051610142919061362d565b60405180910390f35b61016560048036038101906101609190613648565b6104fa565b6040516101729190613900565b60405180910390f35b610195600480360381019061019091906134a2565b610785565b6040516101a29190613931565b60405180910390f35b6101c560048036038101906101c09190613648565b6108df565b005b6101cf610a9c565b6040516101dc91906139cb565b60405180910390f35b6101ff60048036038101906101fa9190613648565b610ac2565b60405161020c9190613b1f565b60405180910390f35b61022f600480360381019061022a9190613b41565b610c4e565b60405161023c9190613bea565b60405180910390f35b61024d610db8565b005b61026960048036038101906102649190613648565b610dcc565b60405161027893929190613c43565b60405180910390f35b61029b600480360381019061029691906134a2565b610e64565b005b6102b760048036038101906102b29190613cb8565b610f5c565b005b6102c161102c565b6040516102ce9190613d1a565b60405180910390f35b6102f160048036038101906102ec9190613d5a565b611055565b005b6102fb6111f5565b6040516103089190613df6565b60405180910390f35b61031961121b565b6040516103269190613e20565b60405180910390f35b61034960048036038101906103449190613e3b565b611438565b005b6103536114bc565b6040516103609190613e89565b60405180910390f35b610383600480360381019061037e91906134a2565b6114e2565b6040516103909190613f21565b60405180910390f35b6103a161326f565b600584815481106103b5576103b4613f3d565b5b90600052602060002090600702016000016000600586815481106103dc576103db613f3d565b5b90600052602060002090600702016003016000868152602001908152602001600020600085815260200190815260200160002060000160009054906101000a900460ff1660ff1681526020019081526020016000206040518060c00160405290816000820160009054906101000a900460ff166004811115610461576104606134f5565b5b6004811115610473576104726134f5565b5b8152602001600182015481526020016002820160009054906101000a900460ff1660ff1660ff1681526020016002820160019054906101000a900460ff1660ff1660ff1681526020016002820160029054906101000a900460ff161515151581526020016002820160039054906101000a900460ff16151515158152505090509392505050565b60606000600967ffffffffffffffff81111561051957610518613f6c565b5b60405190808252806020026020018201604052801561054c57816020015b60608152602001906001900390816105375790505b50905060005b60098110156105e157600967ffffffffffffffff81111561057657610575613f6c565b5b6040519080825280602002602001820160405280156105af57816020015b61059c6132c1565b8152602001906001900390816105945790505b508282815181106105c3576105c2613f3d565b5b602002602001018190525080806105d990613fca565b915050610552565b5060005b600981101561077b5760005b6009811015610767576005858154811061060e5761060d613f3d565b5b9060005260206000209060070201600301600083815260200190815260200160002060008281526020019081526020016000206040518060c00160405290816000820160009054906101000a900460ff1660ff1660ff1681526020016000820160019054906101000a900460ff1660ff1660ff168152602001600182016004806020026040519081016040528092919082600480156106c2576020028201915b8154815260200190600101908083116106ae575b505050505081526020016005820160009054906101000a900460ff161515151581526020016005820160019054906101000a900460ff161515151581526020016005820160029054906101000a900460ff16151515158152505083838151811061072f5761072e613f3d565b5b6020026020010151828151811061074957610748613f3d565b5b6020026020010181905250808061075f90613fca565b9150506105f1565b50808061077390613fca565b9150506105e5565b5080915050919050565b6000600160009054906101000a900473ffffffffffffffffffffffffffffffffffffffff1673ffffffffffffffffffffffffffffffffffffffff163373ffffffffffffffffffffffffffffffffffffffff1614610817576040517f08c379a000000000000000000000000000000000000000000000000000000000815260040161080e90614070565b60405180910390fd5b60006005858154811061082d5761082c613f3d565b5b9060005260206000209060070201600301600085815260200190815260200160002060008481526020019081526020016000209050600160ff168160000160009054906101000a900460ff1660ff1614156108d2576108ac6005868154811061089957610898613f3d565b5b9060005260206000209060070201611615565b8160000160006101000a81548160ff021916908360ff16021790555060019150506108d8565b60009150505b9392505050565b600160009054906101000a900473ffffffffffffffffffffffffffffffffffffffff1673ffffffffffffffffffffffffffffffffffffffff163373ffffffffffffffffffffffffffffffffffffffff161461096f576040517f08c379a000000000000000000000000000000000000000000000000000000000815260040161096690614070565b60405180910390fd5b60005b6005828154811061098657610985613f3d565b5b906000526020600020906007020160050160009054906101000a900460ff1660ff16811015610a9857600260048111156109c3576109c26134f5565b5b600583815481106109d7576109d6613f3d565b5b9060005260206000209060070201600401600083815260200190815260200160002060000160029054906101000a900460ff166004811115610a1c57610a1b6134f5565b5b1415610a8557600160058381548110610a3857610a37613f3d565b5b9060005260206000209060070201600401600083815260200190815260200160002060000160026101000a81548160ff02191690836004811115610a7f57610a7e6134f5565b5b02179055505b8080610a9090613fca565b915050610972565b5050565b600260009054906101000a900473ffffffffffffffffffffffffffffffffffffffff1681565b6060600060058381548110610ada57610ad9613f3d565b5b906000526020600020906007020160050160009054906101000a900460ff1660ff1667ffffffffffffffff811115610b1557610b14613f6c565b5b604051908082528060200260200182016040528015610b4e57816020015b610b3b613309565b815260200190600190039081610b335790505b50905060005b8151811015610c445760058481548110610b7157610b70613f3d565b5b906000526020600020906007020160040160008281526020019081526020016000206040518060600160405290816000820160009054906101000a900460ff1660ff1660ff1681526020016000820160019054906101000a900460ff1660ff1660ff1681526020016000820160029054906101000a900460ff166004811115610bfd57610bfc6134f5565b5b6004811115610c0f57610c0e6134f5565b5b81525050828281518110610c2657610c25613f3d565b5b60200260200101819052508080610c3c90613fca565b915050610b54565b5080915050919050565b610c56613309565b600060058681548110610c6c57610c6b613f3d565b5b906000526020600020906007020160030160008681526020019081526020016000206000858152602001908152602001600020600101600480602002604051908101604052809291908260048015610cd9576020028201915b815481526020019060010190808311610cc5575b5050505050905060058681548110610cf457610cf3613f3d565b5b90600052602060002090600702016004016000828560048110610d1a57610d19613f3d565b5b602002015181526020019081526020016000206040518060600160405290816000820160009054906101000a900460ff1660ff1660ff1681526020016000820160019054906101000a900460ff1660ff1660ff1681526020016000820160029054906101000a900460ff166004811115610d9757610d966134f5565b5b6004811115610da957610da86134f5565b5b81525050915050949350505050565b610dc06117a5565b610dca6000611823565b565b60058181548110610ddc57600080fd5b90600052602060002090600702016000915090508060010160009054906101000a900460ff16908060050160009054906101000a900460ff1690806006016040518060400160405290816000820160009054906101000a900460ff1660ff1660ff1681526020016000820160019054906101000a900460ff1660ff1660ff1681525050905083565b600160009054906101000a900473ffffffffffffffffffffffffffffffffffffffff1673ffffffffffffffffffffffffffffffffffffffff163373ffffffffffffffffffffffffffffffffffffffff1614610ef4576040517f08c379a0000000000000000000000000000000000000000000000000000000008152600401610eeb90614070565b60405180910390fd5b600160058481548110610f0a57610f09613f3d565b5b90600052602060002090600702016003016000848152602001908152602001600020600083815260200190815260200160002060050160016101000a81548160ff021916908315150217905550505050565b610f646117a5565b82600160006101000a81548173ffffffffffffffffffffffffffffffffffffffff021916908373ffffffffffffffffffffffffffffffffffffffff16021790555081600260006101000a81548173ffffffffffffffffffffffffffffffffffffffff021916908373ffffffffffffffffffffffffffffffffffffffff16021790555080600360006101000a81548173ffffffffffffffffffffffffffffffffffffffff021916908373ffffffffffffffffffffffffffffffffffffffff160217905550505050565b60008060009054906101000a900473ffffffffffffffffffffffffffffffffffffffff16905090565b600160009054906101000a900473ffffffffffffffffffffffffffffffffffffffff1673ffffffffffffffffffffffffffffffffffffffff163373ffffffffffffffffffffffffffffffffffffffff16146110e5576040517f08c379a00000000000000000000000000000000000000000000000000000000081526004016110dc90614070565b60405180910390fd5b6000600586815481106110fb576110fa613f3d565b5b906000526020600020906007020160030160008681526020019081526020016000206000858152602001908152602001600020600101600480602002604051908101604052809291908260048015611168576020028201915b815481526020019060010190808311611154575b5050505050905060006005878154811061118557611184613f3d565b5b906000526020600020906007020160040160008386600481106111ab576111aa613f3d565b5b602002015181526020019081526020016000209050828160000160026101000a81548160ff021916908360048111156111e7576111e66134f5565b5b021790555050505050505050565b600160009054906101000a900473ffffffffffffffffffffffffffffffffffffffff1681565b6000600160009054906101000a900473ffffffffffffffffffffffffffffffffffffffff1673ffffffffffffffffffffffffffffffffffffffff163373ffffffffffffffffffffffffffffffffffffffff16146112ad576040517f08c379a00000000000000000000000000000000000000000000000000000000081526004016112a4906140dc565b60405180910390fd5b6000600560018160018154018082558091505003906000526020600020906007020190506112dd816000016118e7565b8160010160006101000a81548160ff021916908360ff160217905550604051806060016040528060ff8016815260200160ff801681526020016000600481111561132a576113296134f5565b5b8152508160040160008360050160009054906101000a900460ff1660ff16815260200190815260200160002060008201518160000160006101000a81548160ff021916908360ff16021790555060208201518160000160016101000a81548160ff021916908360ff16021790555060408201518160000160026101000a81548160ff021916908360048111156113c3576113c26134f5565b5b021790555090505080600501600081819054906101000a900460ff16809291906113ec906140fc565b91906101000a81548160ff021916908360ff1602179055505061140e81611b12565b61141781611cf4565b61142081612e46565b60016005805490506114329190614126565b91505090565b6114406117a5565b600073ffffffffffffffffffffffffffffffffffffffff168173ffffffffffffffffffffffffffffffffffffffff1614156114b0576040517f08c379a00000000000000000000000000000000000000000000000000000000081526004016114a7906141cc565b60405180910390fd5b6114b981611823565b50565b600360009054906101000a900473ffffffffffffffffffffffffffffffffffffffff1681565b6114ea6132c1565b600584815481106114fe576114fd613f3d565b5b9060005260206000209060070201600301600084815260200190815260200160002060008381526020019081526020016000206040518060c00160405290816000820160009054906101000a900460ff1660ff1660ff1681526020016000820160019054906101000a900460ff1660ff1660ff168152602001600182016004806020026040519081016040528092919082600480156115b2576020028201915b81548152602001906001019080831161159e575b505050505081526020016005820160009054906101000a900460ff161515151581526020016005820160019054906101000a900460ff161515151581526020016005820160029054906101000a900460ff16151515158152505090509392505050565b600080600260009054906101000a900473ffffffffffffffffffffffffffffffffffffffff1673ffffffffffffffffffffffffffffffffffffffff1663ce28613f6001600261166491906141ec565b60048660010160009054906101000a900460ff166116829190614242565b6040518363ffffffff1660e01b815260040161169f929190614276565b6020604051808303816000875af11580156116be573d6000803e3d6000fd5b505050506040513d601f19601f820116820180604052508101906116e291906142cb565b90505b600115158360020160008360ff16815260200190815260200160002060009054906101000a900460ff161515141561176b5760018360010160009054906101000a900460ff166117359190614242565b60ff168160ff161415611757576001600261175091906142f8565b9050611766565b8080611762906140fc565b9150505b6116e5565b60018360020160008360ff16815260200190815260200160002060006101000a81548160ff02191690831515021790555080915050919050565b6117ad613267565b73ffffffffffffffffffffffffffffffffffffffff166117cb61102c565b73ffffffffffffffffffffffffffffffffffffffff1614611821576040517f08c379a00000000000000000000000000000000000000000000000000000000081526004016118189061437b565b60405180910390fd5b565b60008060009054906101000a900473ffffffffffffffffffffffffffffffffffffffff169050816000806101000a81548173ffffffffffffffffffffffffffffffffffffffff021916908373ffffffffffffffffffffffffffffffffffffffff1602179055508173ffffffffffffffffffffffffffffffffffffffff168173ffffffffffffffffffffffffffffffffffffffff167f8be0079c531659141344cd1fd0a4f28419497f9722a3daafe3b4186f6b6457e060405160405180910390a35050565b600080600360009054906101000a900473ffffffffffffffffffffffffffffffffffffffff1673ffffffffffffffffffffffffffffffffffffffff166338fdf0bd6040518163ffffffff1660e01b8152600401602060405180830381865afa158015611957573d6000803e3d6000fd5b505050506040513d601f19601f8201168201806040525081019061197b91906143b0565b905060005b81811015611b0857600360009054906101000a900473ffffffffffffffffffffffffffffffffffffffff1673ffffffffffffffffffffffffffffffffffffffff166382753ebe826040518263ffffffff1660e01b81526004016119e39190613e20565b60c060405180830381865afa158015611a00573d6000803e3d6000fd5b505050506040513d601f19601f82011682018060405250810190611a249190614530565b84600083815260200190815260200160002060008201518160000160006101000a81548160ff02191690836004811115611a6157611a606134f5565b5b02179055506020820151816001015560408201518160020160006101000a81548160ff021916908360ff16021790555060608201518160020160016101000a81548160ff021916908360ff16021790555060808201518160020160026101000a81548160ff02191690831515021790555060a08201518160020160036101000a81548160ff0219169083151502179055509050508080611b0090613fca565b915050611980565b5080915050919050565b600060046001816001815401808255809150500390600052602060002090600602019050600060016009611b469190614126565b90506000600160026009611b5a919061458c565b611b6491906141ec565b905060405180604001604052808360ff1681526020018260ff168152508460060160008201518160000160006101000a81548160ff021916908360ff16021790555060208201518160000160016101000a81548160ff021916908360ff1602179055509050508284600301600084815260200190815260200160002060008381526020019081526020016000206000820160009054906101000a900460ff168160000160006101000a81548160ff021916908360ff1602179055506000820160019054906101000a900460ff168160000160016101000a81548160ff021916908360ff1602179055506001820181600101906004611c63929190613342565b506005820160009054906101000a900460ff168160050160006101000a81548160ff0219169083151502179055506005820160019054906101000a900460ff168160050160016101000a81548160ff0219169083151502179055506005820160029054906101000a900460ff168160050160026101000a81548160ff02191690831515021790555090505050505050565b60008060028360010160009054906101000a900460ff16611d159190614242565b60ff1690506000600190506000611d2a61337f565b6001818760060160000160009054906101000a900460ff1660ff1660098110611d5657611d55613f3d565b5b60200201518760060160000160019054906101000a900460ff1660ff1660098110611d8457611d83613f3d565b5b602002019015159081151581525050611d9b6133ad565b866006016040518060400160405290816000820160009054906101000a900460ff1660ff1660ff1681526020016000820160019054906101000a900460ff1660ff1660ff16815250508187601e8110611df757611df6613f3d565b5b60200201819052508580611e0a90613fca565b9650505b6000851115612d4757600081600188611e279190614126565b601e8110611e3857611e37613f3d565b5b602002015190508680611e4a906145bd565b9750508187601e8110611e6057611e5f613f3d565b5b60200201611e6c6133db565b8152508580611e7a906145bd565b9650508480611e88906145bd565b9550506001886003016000836000015160ff1681526020019081526020016000206000836020015160ff16815260200190815260200160002060000160006101000a81548160ff021916908360ff1602179055506021600260009054906101000a900473ffffffffffffffffffffffffffffffffffffffff1673ffffffffffffffffffffffffffffffffffffffff1663ce28613f600060636040518363ffffffff1660e01b8152600401611f3d92919061465d565b6020604051808303816000875af1158015611f5c573d6000803e3d6000fd5b505050506040513d601f19601f82011682018060405250810190611f8091906142cb565b60ff161015611fda576001886003016000836000015160ff1681526020019081526020016000206000836020015160ff16815260200190815260200160002060050160026101000a81548160ff0219169083151502179055505b60007fffffffffffffffffffffffffffffffffffffffffffffffffffffffffffffffff90505b60018113612d405760007fffffffffffffffffffffffffffffffffffffffffffffffffffffffffffffffff90505b60018113612d2c57600260009054906101000a900473ffffffffffffffffffffffffffffffffffffffff1673ffffffffffffffffffffffffffffffffffffffff16631b5ac4b5826040518263ffffffff1660e01b8152600401612091919061469f565b602060405180830381865afa1580156120ae573d6000803e3d6000fd5b505050506040513d601f19601f820116820180604052508101906120d291906146e6565b600260009054906101000a900473ffffffffffffffffffffffffffffffffffffffff1673ffffffffffffffffffffffffffffffffffffffff16631b5ac4b5846040518263ffffffff1660e01b815260040161212d919061469f565b602060405180830381865afa15801561214a573d6000803e3d6000fd5b505050506040513d601f19601f8201168201806040525081019061216e91906146e6565b141561217957612d19565b600082846000015160000b61218e9190614713565b9050600082856020015160000b6121a59190614713565b905060018212806121b65750600181125b806121cd5750600260096121ca9190614126565b82135b806121e45750600260096121e19190614126565b81135b156121f0575050612d19565b600060405180604001604052808460ff1681526020018360ff1681525090506000151588826000015160ff166009811061222d5761222c613f3d565b5b6020020151826020015160ff166009811061224b5761224a613f3d565b5b602002015115151480612345575060008d6003016000886000015160ff1681526020019081526020016000206000886020015160ff168152602001908152602001600020600101600260009054906101000a900473ffffffffffffffffffffffffffffffffffffffff1673ffffffffffffffffffffffffffffffffffffffff1663fa3993c289856040518363ffffffff1660e01b81526004016122ef9291906147a7565b602060405180830381865afa15801561230c573d6000803e3d6000fd5b505050506040513d601f19601f8201168201806040525081019061233091906143b0565b6004811061234157612340613f3d565b5b0154145b15612d155760008a148061240b57508860ff1660426123649190614126565b600260009054906101000a900473ffffffffffffffffffffffffffffffffffffffff1673ffffffffffffffffffffffffffffffffffffffff1663ce28613f600060636040518363ffffffff1660e01b81526004016123c392919061465d565b6020604051808303816000875af11580156123e2573d6000803e3d6000fd5b505050506040513d601f19601f8201168201806040525081019061240691906142cb565b60ff16105b15612d0f576040518060600160405280600260009054906101000a900473ffffffffffffffffffffffffffffffffffffffff1673ffffffffffffffffffffffffffffffffffffffff1663ce28613f600060036040518363ffffffff1660e01b815260040161247a9291906147d0565b6020604051808303816000875af1158015612499573d6000803e3d6000fd5b505050506040513d601f19601f820116820180604052508101906124bd91906142cb565b60ff168152602001600260009054906101000a900473ffffffffffffffffffffffffffffffffffffffff1673ffffffffffffffffffffffffffffffffffffffff1663ce28613f600060036040518363ffffffff1660e01b81526004016125249291906147d0565b6020604051808303816000875af1158015612543573d6000803e3d6000fd5b505050506040513d601f19601f8201168201806040525081019061256791906142cb565b60ff16815260200160016004811115612583576125826134f5565b5b8152508d60040160008f60050160009054906101000a900460ff1660ff16815260200190815260200160002060008201518160000160006101000a81548160ff021916908360ff16021790555060208201518160000160016101000a81548160ff021916908360ff16021790555060408201518160000160026101000a81548160ff0219169083600481111561261c5761261b6134f5565b5b021790555090505060008d60040160008f60050160009054906101000a900460ff1660ff16815260200190815260200160002060000160009054906101000a900460ff1660ff1614156126bf5760038d60040160008f60050160009054906101000a900460ff1660ff16815260200190815260200160002060000160026101000a81548160ff021916908360048111156126b9576126b86134f5565b5b02179055505b8c600501600081819054906101000a900460ff16809291906126e0906140fc565b91906101000a81548160ff021916908360ff1602179055505060168961270691906142f8565b985080878d601e811061271c5761271b613f3d565b5b60200201819052508b8061272f90613fca565b9c5050898061273d90613fca565b9a5050600188826000015160ff166009811061275c5761275b613f3d565b5b6020020151826020015160ff166009811061277a57612779613f3d565b5b6020020190151590811515815250507fffffffffffffffffffffffffffffffffffffffffffffffffffffffffffffffff851480156127b85750600084145b801561280f575060008d6003016000886000015160ff1681526020019081526020016000206000886020015160ff16815260200190815260200160002060010160006004811061280b5761280a613f3d565b5b0154145b156128f95760018d60050160009054906101000a900460ff166128329190614242565b60ff168d6003016000886000015160ff1681526020019081526020016000206000886020015160ff16815260200190815260200160002060010160006004811061287f5761287e613f3d565b5b018190555060018d60050160009054906101000a900460ff166128a29190614242565b60ff168d6003016000836000015160ff1681526020019081526020016000206000836020015160ff1681526020019081526020016000206001016001600481106128ef576128ee613f3d565b5b0181905550612d0a565b6001851480156129095750600084145b8015612960575060008d6003016000886000015160ff1681526020019081526020016000206000886020015160ff16815260200190815260200160002060010160016004811061295c5761295b613f3d565b5b0154145b15612a4a5760018d60050160009054906101000a900460ff166129839190614242565b60ff168d6003016000886000015160ff1681526020019081526020016000206000886020015160ff1681526020019081526020016000206001016001600481106129d0576129cf613f3d565b5b018190555060018d60050160009054906101000a900460ff166129f39190614242565b60ff168d6003016000836000015160ff1681526020019081526020016000206000836020015160ff168152602001908152602001600020600101600060048110612a4057612a3f613f3d565b5b0181905550612d09565b600184148015612a5a5750600085145b8015612ab1575060008d6003016000886000015160ff1681526020019081526020016000206000886020015160ff168152602001908152602001600020600101600260048110612aad57612aac613f3d565b5b0154145b15612b9b5760018d60050160009054906101000a900460ff16612ad49190614242565b60ff168d6003016000886000015160ff1681526020019081526020016000206000886020015160ff168152602001908152602001600020600101600260048110612b2157612b20613f3d565b5b018190555060018d60050160009054906101000a900460ff16612b449190614242565b60ff168d6003016000836000015160ff1681526020019081526020016000206000836020015160ff168152602001908152602001600020600101600360048110612b9157612b90613f3d565b5b0181905550612d08565b7fffffffffffffffffffffffffffffffffffffffffffffffffffffffffffffffff84148015612bca5750600085145b8015612c21575060008d6003016000886000015160ff1681526020019081526020016000206000886020015160ff168152602001908152602001600020600101600360048110612c1d57612c1c613f3d565b5b0154145b15612d075760018d60050160009054906101000a900460ff16612c449190614242565b60ff168d6003016000886000015160ff1681526020019081526020016000206000886020015160ff168152602001908152602001600020600101600360048110612c9157612c90613f3d565b5b018190555060018d60050160009054906101000a900460ff16612cb49190614242565b60ff168d6003016000836000015160ff1681526020019081526020016000206000836020015160ff168152602001908152602001600020600101600260048110612d0157612d00613f3d565b5b01819055505b5b5b5b612d14565b600098505b5b5050505b8080612d24906147f9565b91505061202e565b508080612d38906147f9565b915050612000565b5050611e0e565b60008514612d8a576040517f08c379a0000000000000000000000000000000000000000000000000000000008152600401612d81906148b4565b60405180910390fd5b60028760030160008960060160000160009054906101000a900460ff1660ff16815260200190815260200160002060008960060160000160019054906101000a900460ff1660ff16815260200190815260200160002060000160006101000a81548160ff021916908360ff16021790555060038760040160006001815260200190815260200160002060000160026101000a81548160ff02191690836004811115612e3857612e376134f5565b5b021790555050505050505050565b60005b60098110156132635760005b600981101561324f57600160ff16836003016000848152602001908152602001600020600083815260200190815260200160002060000160009054906101000a900460ff1660ff16141561323c5760005b600481101561323a57600084600301600085815260200190815260200160002060008481526020019081526020016000206001018260048110612eec57612eeb613f3d565b5b01541415613227576000600260009054906101000a900473ffffffffffffffffffffffffffffffffffffffff1673ffffffffffffffffffffffffffffffffffffffff1663951fc3fe8360405180604001604052808860ff1681526020018760ff168152506040518363ffffffff1660e01b8152600401612f6d9291906148d4565b6040805180830381865afa158015612f89573d6000803e3d6000fd5b505050506040513d601f19601f82011682018060405250810190612fad919061494d565b90506000856003016000836000015160ff1681526020019081526020016000206000836020015160ff16815260200190815260200160002060000160009054906101000a900460ff1660ff1690506042600260009054906101000a900473ffffffffffffffffffffffffffffffffffffffff1673ffffffffffffffffffffffffffffffffffffffff1663ce28613f600060636040518363ffffffff1660e01b815260040161305c92919061465d565b6020604051808303816000875af115801561307b573d6000803e3d6000fd5b505050506040513d601f19601f8201168201806040525081019061309f91906142cb565b60ff161080156130b25750600060ff1681145b1561322457604051806060016040528060ff8016815260200160ff801681526020016004808111156130e7576130e66134f5565b5b8152508660040160008860050160009054906101000a900460ff1660ff16815260200190815260200160002060008201518160000160006101000a81548160ff021916908360ff16021790555060208201518160000160016101000a81548160ff021916908360ff16021790555060408201518160000160026101000a81548160ff021916908360048111156131805761317f6134f5565b5b021790555090505085600501600081819054906101000a900460ff16809291906131a9906140fc565b91906101000a81548160ff021916908360ff1602179055505060018660050160009054906101000a900460ff166131e09190614242565b60ff168660030160008781526020019081526020016000206000868152602001908152602001600020600101846004811061321e5761321d613f3d565b5b01819055505b50505b808061323290613fca565b915050612ea6565b505b808061324790613fca565b915050612e55565b50808061325b90613fca565b915050612e49565b5050565b600033905090565b6040518060c001604052806000600481111561328e5761328d6134f5565b5b815260200160008152602001600060ff168152602001600060ff1681526020016000151581526020016000151581525090565b6040518060c00160405280600060ff168152602001600060ff1681526020016132e86133fb565b81526020016000151581526020016000151581526020016000151581525090565b6040518060600160405280600060ff168152602001600060ff1681526020016000600481111561333c5761333b6134f5565b5b81525090565b826004810192821561336e579182015b8281111561336d578254825591600101919060010190613352565b5b50905061337b919061341d565b5090565b6040518061012001604052806009905b61339761343a565b81526020019060019003908161338f5790505090565b604051806103c00160405280601e905b6133c56133db565b8152602001906001900390816133bd5790505090565b6040518060400160405280600060ff168152602001600060ff1681525090565b6040518060800160405280600490602082028036833780820191505090505090565b5b8082111561343657600081600090555060010161341e565b5090565b604051806101200160405280600990602082028036833780820191505090505090565b6000604051905090565b600080fd5b6000819050919050565b61347f8161346c565b811461348a57600080fd5b50565b60008135905061349c81613476565b92915050565b6000806000606084860312156134bb576134ba613467565b5b60006134c98682870161348d565b93505060206134da8682870161348d565b92505060406134eb8682870161348d565b9150509250925092565b7f4e487b7100000000000000000000000000000000000000000000000000000000600052602160045260246000fd5b60058110613535576135346134f5565b5b50565b600081905061354682613524565b919050565b600061355682613538565b9050919050565b6135668161354b565b82525050565b6135758161346c565b82525050565b600060ff82169050919050565b6135918161357b565b82525050565b60008115159050919050565b6135ac81613597565b82525050565b60c0820160008201516135c8600085018261355d565b5060208201516135db602085018261356c565b5060408201516135ee6040850182613588565b5060608201516136016060850182613588565b50608082015161361460808501826135a3565b5060a082015161362760a08501826135a3565b50505050565b600060c08201905061364260008301846135b2565b92915050565b60006020828403121561365e5761365d613467565b5b600061366c8482850161348d565b91505092915050565b600081519050919050565b600082825260208201905092915050565b6000819050602082019050919050565b600081519050919050565b600082825260208201905092915050565b6000819050602082019050919050565b600060049050919050565b600081905092915050565b6000819050919050565b60006136f9838361356c565b60208301905092915050565b6000602082019050919050565b61371b816136cd565b61372581846136d8565b9250613730826136e3565b8060005b8381101561376157815161374887826136ed565b965061375383613705565b925050600181019050613734565b505050505050565b610120820160008201516137806000850182613588565b5060208201516137936020850182613588565b5060408201516137a66040850182613712565b5060608201516137b960c08501826135a3565b5060808201516137cc60e08501826135a3565b5060a08201516137e06101008501826135a3565b50505050565b60006137f28383613769565b6101208301905092915050565b6000602082019050919050565b6000613817826136a1565b61382181856136ac565b935061382c836136bd565b8060005b8381101561385d57815161384488826137e6565b975061384f836137ff565b925050600181019050613830565b5085935050505092915050565b6000613876838361380c565b905092915050565b6000602082019050919050565b600061389682613675565b6138a08185613680565b9350836020820285016138b285613691565b8060005b858110156138ee57848403895281516138cf858261386a565b94506138da8361387e565b925060208a019950506001810190506138b6565b50829750879550505050505092915050565b6000602082019050818103600083015261391a818461388b565b905092915050565b61392b81613597565b82525050565b60006020820190506139466000830184613922565b92915050565b600073ffffffffffffffffffffffffffffffffffffffff82169050919050565b6000819050919050565b600061399161398c6139878461394c565b61396c565b61394c565b9050919050565b60006139a382613976565b9050919050565b60006139b582613998565b9050919050565b6139c5816139aa565b82525050565b60006020820190506139e060008301846139bc565b92915050565b600081519050919050565b600082825260208201905092915050565b6000819050602082019050919050565b60058110613a2357613a226134f5565b5b50565b6000819050613a3482613a12565b919050565b6000613a4482613a26565b9050919050565b613a5481613a39565b82525050565b606082016000820151613a706000850182613588565b506020820151613a836020850182613588565b506040820151613a966040850182613a4b565b50505050565b6000613aa88383613a5a565b60608301905092915050565b6000602082019050919050565b6000613acc826139e6565b613ad681856139f1565b9350613ae183613a02565b8060005b83811015613b12578151613af98882613a9c565b9750613b0483613ab4565b925050600181019050613ae5565b5085935050505092915050565b60006020820190508181036000830152613b398184613ac1565b905092915050565b60008060008060808587031215613b5b57613b5a613467565b5b6000613b698782880161348d565b9450506020613b7a8782880161348d565b9350506040613b8b8782880161348d565b9250506060613b9c8782880161348d565b91505092959194509250565b606082016000820151613bbe6000850182613588565b506020820151613bd16020850182613588565b506040820151613be46040850182613a4b565b50505050565b6000606082019050613bff6000830184613ba8565b92915050565b613c0e8161357b565b82525050565b604082016000820151613c2a6000850182613588565b506020820151613c3d6020850182613588565b50505050565b6000608082019050613c586000830186613c05565b613c656020830185613c05565b613c726040830184613c14565b949350505050565b6000613c858261394c565b9050919050565b613c9581613c7a565b8114613ca057600080fd5b50565b600081359050613cb281613c8c565b92915050565b600080600060608486031215613cd157613cd0613467565b5b6000613cdf86828701613ca3565b9350506020613cf086828701613ca3565b9250506040613d0186828701613ca3565b9150509250925092565b613d1481613c7a565b82525050565b6000602082019050613d2f6000830184613d0b565b92915050565b60058110613d4257600080fd5b50565b600081359050613d5481613d35565b92915050565b600080600080600060a08688031215613d7657613d75613467565b5b6000613d848882890161348d565b9550506020613d958882890161348d565b9450506040613da68882890161348d565b9350506060613db78882890161348d565b9250506080613dc888828901613d45565b9150509295509295909350565b6000613de082613998565b9050919050565b613df081613dd5565b82525050565b6000602082019050613e0b6000830184613de7565b92915050565b613e1a8161346c565b82525050565b6000602082019050613e356000830184613e11565b92915050565b600060208284031215613e5157613e50613467565b5b6000613e5f84828501613ca3565b91505092915050565b6000613e7382613998565b9050919050565b613e8381613e68565b82525050565b6000602082019050613e9e6000830184613e7a565b92915050565b61012082016000820151613ebb6000850182613588565b506020820151613ece6020850182613588565b506040820151613ee16040850182613712565b506060820151613ef460c08501826135a3565b506080820151613f0760e08501826135a3565b5060a0820151613f1b6101008501826135a3565b50505050565b600061012082019050613f376000830184613ea4565b92915050565b7f4e487b7100000000000000000000000000000000000000000000000000000000600052603260045260246000fd5b7f4e487b7100000000000000000000000000000000000000000000000000000000600052604160045260246000fd5b7f4e487b7100000000000000000000000000000000000000000000000000000000600052601160045260246000fd5b6000613fd58261346c565b91507fffffffffffffffffffffffffffffffffffffffffffffffffffffffffffffffff82141561400857614007613f9b565b5b600182019050919050565b600082825260208201905092915050565b7f4e6f742067616d6520636f6e7472616374000000000000000000000000000000600082015250565b600061405a601183614013565b915061406582614024565b602082019050919050565b600060208201905081810360008301526140898161404d565b9050919050565b7f4f6e6c792067616d6520636f6e74726163742063616e20757365000000000000600082015250565b60006140c6601a83614013565b91506140d182614090565b602082019050919050565b600060208201905081810360008301526140f5816140b9565b9050919050565b60006141078261357b565b915060ff82141561411b5761411a613f9b565b5b600182019050919050565b60006141318261346c565b915061413c8361346c565b92508282101561414f5761414e613f9b565b5b828203905092915050565b7f4f776e61626c653a206e6577206f776e657220697320746865207a65726f206160008201527f6464726573730000000000000000000000000000000000000000000000000000602082015250565b60006141b6602683614013565b91506141c18261415a565b604082019050919050565b600060208201905081810360008301526141e5816141a9565b9050919050565b60006141f78261346c565b91506142028361346c565b9250827fffffffffffffffffffffffffffffffffffffffffffffffffffffffffffffffff0382111561423757614236613f9b565b5b828201905092915050565b600061424d8261357b565b91506142588361357b565b92508282101561426b5761426a613f9b565b5b828203905092915050565b600060408201905061428b6000830185613c05565b6142986020830184613c05565b9392505050565b6142a88161357b565b81146142b357600080fd5b50565b6000815190506142c58161429f565b92915050565b6000602082840312156142e1576142e0613467565b5b60006142ef848285016142b6565b91505092915050565b60006143038261357b565b915061430e8361357b565b92508260ff0382111561432457614323613f9b565b5b828201905092915050565b7f4f776e61626c653a2063616c6c6572206973206e6f7420746865206f776e6572600082015250565b6000614365602083614013565b91506143708261432f565b602082019050919050565b6000602082019050818103600083015261439481614358565b9050919050565b6000815190506143aa81613476565b92915050565b6000602082840312156143c6576143c5613467565b5b60006143d48482850161439b565b91505092915050565b600080fd5b6000601f19601f8301169050919050565b6143fc826143e2565b810181811067ffffffffffffffff8211171561441b5761441a613f6c565b5b80604052505050565b600061442e61345d565b905061443a82826143f3565b919050565b6005811061444c57600080fd5b50565b60008151905061445e8161443f565b92915050565b61446d81613597565b811461447857600080fd5b50565b60008151905061448a81614464565b92915050565b600060c082840312156144a6576144a56143dd565b5b6144b060c0614424565b905060006144c08482850161444f565b60008301525060206144d48482850161439b565b60208301525060406144e8848285016142b6565b60408301525060606144fc848285016142b6565b60608301525060806145108482850161447b565b60808301525060a06145248482850161447b565b60a08301525092915050565b600060c0828403121561454657614545613467565b5b600061455484828501614490565b91505092915050565b7f4e487b7100000000000000000000000000000000000000000000000000000000600052601260045260246000fd5b60006145978261346c565b91506145a28361346c565b9250826145b2576145b161455d565b5b828204905092915050565b60006145c88261346c565b915060008214156145dc576145db613f9b565b5b600182039050919050565b6000819050919050565b600061460c614607614602846145e7565b61396c565b61357b565b9050919050565b61461c816145f1565b82525050565b6000819050919050565b600061464761464261463d84614622565b61396c565b61357b565b9050919050565b6146578161462c565b82525050565b60006040820190506146726000830185614613565b61467f602083018461464e565b9392505050565b6000819050919050565b61469981614686565b82525050565b60006020820190506146b46000830184614690565b92915050565b6146c381614686565b81146146ce57600080fd5b50565b6000815190506146e0816146ba565b92915050565b6000602082840312156146fc576146fb613467565b5b600061470a848285016146d1565b91505092915050565b600061471e82614686565b915061472983614686565b9250817f7fffffffffffffffffffffffffffffffffffffffffffffffffffffffffffffff0383136000831215161561476457614763613f9b565b5b817f800000000000000000000000000000000000000000000000000000000000000003831260008312161561479c5761479b613f9b565b5b828201905092915050565b60006080820190506147bc6000830185613c14565b6147c96040830184613c14565b9392505050565b60006040820190506147e56000830185614613565b6147f26020830184613c05565b9392505050565b600061480482614686565b91507f7fffffffffffffffffffffffffffffffffffffffffffffffffffffffffffffff82141561483757614836613f9b565b5b600182019050919050565b7f4572726f723a20426164206d617067656e2e2020556e706c6163656420726f6f60008201527f6d73000000000000000000000000000000000000000000000000000000000000602082015250565b600061489e602283614013565b91506148a982614842565b604082019050919050565b600060208201905081810360008301526148cd81614891565b9050919050565b60006060820190506148e96000830185613e11565b6148f66020830184613c14565b9392505050565b600060408284031215614913576149126143dd565b5b61491d6040614424565b9050600061492d848285016142b6565b6000830152506020614941848285016142b6565b60208301525092915050565b60006040828403121561496357614962613467565b5b6000614971848285016148fd565b9150509291505056fea2646970667358221220960e20cc7db50145edd04659686158f87c19d2704b1c09024ff4127993bc0b4864736f6c634300080c0033",
  "devdoc": {
    "kind": "dev",
    "methods": {
      "owner()": {
        "details": "Returns the address of the current owner."
      },
      "renounceOwnership()": {
        "details": "Leaves the contract without owner. It will not be possible to call `onlyOwner` functions anymore. Can only be called by the current owner. NOTE: Renouncing ownership will leave the contract without an owner, thereby removing any functionality that is only available to the owner."
      },
      "transferOwnership(address)": {
        "details": "Transfers ownership of the contract to a new account (`newOwner`). Can only be called by the current owner."
      }
    },
    "version": 1
  },
  "userdoc": {
    "kind": "user",
    "methods": {},
    "version": 1
  },
  "storageLayout": {
    "storage": [
      {
        "astId": 7,
        "contract": "contracts/BCMaps.sol:Maps",
        "label": "_owner",
        "offset": 0,
        "slot": "0",
        "type": "t_address"
      },
      {
        "astId": 230,
        "contract": "contracts/BCMaps.sol:Maps",
        "label": "game",
        "offset": 0,
        "slot": "1",
        "type": "t_contract(GameInterface)167"
      },
      {
        "astId": 233,
        "contract": "contracts/BCMaps.sol:Maps",
        "label": "utils",
        "offset": 0,
        "slot": "2",
        "type": "t_contract(UtilsInterface)225"
      },
      {
        "astId": 236,
        "contract": "contracts/BCMaps.sol:Maps",
        "label": "roomTiles",
        "offset": 0,
        "slot": "3",
        "type": "t_contract(RoomTileInterface)181"
      },
      {
        "astId": 270,
        "contract": "contracts/BCMaps.sol:Maps",
        "label": "gameTiles",
        "offset": 0,
        "slot": "4",
        "type": "t_array(t_struct(GameTile)1827_storage)dyn_storage"
      },
      {
        "astId": 274,
        "contract": "contracts/BCMaps.sol:Maps",
        "label": "maps",
        "offset": 0,
        "slot": "5",
        "type": "t_array(t_struct(Map)1864_storage)dyn_storage"
      }
    ],
    "types": {
      "t_address": {
        "encoding": "inplace",
        "label": "address",
        "numberOfBytes": "20"
      },
      "t_array(t_struct(GameTile)1827_storage)dyn_storage": {
        "base": "t_struct(GameTile)1827_storage",
        "encoding": "dynamic_array",
        "label": "struct BCTypes.GameTile[]",
        "numberOfBytes": "32"
      },
      "t_array(t_struct(Map)1864_storage)dyn_storage": {
        "base": "t_struct(Map)1864_storage",
        "encoding": "dynamic_array",
        "label": "struct BCTypes.Map[]",
        "numberOfBytes": "32"
      },
      "t_array(t_uint256)4_storage": {
        "base": "t_uint256",
        "encoding": "inplace",
        "label": "uint256[4]",
        "numberOfBytes": "128"
      },
      "t_bool": {
        "encoding": "inplace",
        "label": "bool",
        "numberOfBytes": "1"
      },
      "t_contract(GameInterface)167": {
        "encoding": "inplace",
        "label": "contract GameInterface",
        "numberOfBytes": "20"
      },
      "t_contract(RoomTileInterface)181": {
        "encoding": "inplace",
        "label": "contract RoomTileInterface",
        "numberOfBytes": "20"
      },
      "t_contract(UtilsInterface)225": {
        "encoding": "inplace",
        "label": "contract UtilsInterface",
        "numberOfBytes": "20"
      },
      "t_enum(BCEventType)1897": {
        "encoding": "inplace",
        "label": "enum BCTypes.BCEventType",
        "numberOfBytes": "1"
      },
      "t_enum(DoorStatus)1751": {
        "encoding": "inplace",
        "label": "enum BCTypes.DoorStatus",
        "numberOfBytes": "1"
      },
      "t_mapping(t_uint256,t_bool)": {
        "encoding": "mapping",
        "key": "t_uint256",
        "label": "mapping(uint256 => bool)",
        "numberOfBytes": "32",
        "value": "t_bool"
      },
      "t_mapping(t_uint256,t_mapping(t_uint256,t_struct(GameTile)1827_storage))": {
        "encoding": "mapping",
        "key": "t_uint256",
        "label": "mapping(uint256 => mapping(uint256 => struct BCTypes.GameTile))",
        "numberOfBytes": "32",
        "value": "t_mapping(t_uint256,t_struct(GameTile)1827_storage)"
      },
      "t_mapping(t_uint256,t_struct(Door)1835_storage)": {
        "encoding": "mapping",
        "key": "t_uint256",
        "label": "mapping(uint256 => struct BCTypes.Door)",
        "numberOfBytes": "32",
        "value": "t_struct(Door)1835_storage"
      },
      "t_mapping(t_uint256,t_struct(GameTile)1827_storage)": {
        "encoding": "mapping",
        "key": "t_uint256",
        "label": "mapping(uint256 => struct BCTypes.GameTile)",
        "numberOfBytes": "32",
        "value": "t_struct(GameTile)1827_storage"
      },
      "t_mapping(t_uint256,t_struct(RoomTile)1911_storage)": {
        "encoding": "mapping",
        "key": "t_uint256",
        "label": "mapping(uint256 => struct BCTypes.RoomTile)",
        "numberOfBytes": "32",
        "value": "t_struct(RoomTile)1911_storage"
      },
      "t_struct(Door)1835_storage": {
        "encoding": "inplace",
        "label": "struct BCTypes.Door",
        "members": [
          {
            "astId": 1829,
            "contract": "contracts/BCMaps.sol:Maps",
            "label": "vsBreach",
            "offset": 0,
            "slot": "0",
            "type": "t_uint8"
          },
          {
            "astId": 1831,
            "contract": "contracts/BCMaps.sol:Maps",
            "label": "vsHack",
            "offset": 1,
            "slot": "0",
            "type": "t_uint8"
          },
          {
            "astId": 1834,
            "contract": "contracts/BCMaps.sol:Maps",
            "label": "status",
            "offset": 2,
            "slot": "0",
            "type": "t_enum(DoorStatus)1751"
          }
        ],
        "numberOfBytes": "32"
      },
      "t_struct(GameTile)1827_storage": {
        "encoding": "inplace",
        "label": "struct BCTypes.GameTile",
        "members": [
          {
            "astId": 1814,
            "contract": "contracts/BCMaps.sol:Maps",
            "label": "roomId",
            "offset": 0,
            "slot": "0",
            "type": "t_uint8"
          },
          {
            "astId": 1816,
            "contract": "contracts/BCMaps.sol:Maps",
            "label": "parentId",
            "offset": 1,
            "slot": "0",
            "type": "t_uint8"
          },
          {
            "astId": 1820,
            "contract": "contracts/BCMaps.sol:Maps",
            "label": "doors",
            "offset": 0,
            "slot": "1",
            "type": "t_array(t_uint256)4_storage"
          },
          {
            "astId": 1822,
            "contract": "contracts/BCMaps.sol:Maps",
            "label": "explored",
            "offset": 0,
            "slot": "5",
            "type": "t_bool"
          },
          {
            "astId": 1824,
            "contract": "contracts/BCMaps.sol:Maps",
            "label": "looted",
            "offset": 1,
            "slot": "5",
            "type": "t_bool"
          },
          {
            "astId": 1826,
            "contract": "contracts/BCMaps.sol:Maps",
            "label": "hasVent",
            "offset": 2,
            "slot": "5",
            "type": "t_bool"
          }
        ],
        "numberOfBytes": "192"
      },
      "t_struct(Map)1864_storage": {
        "encoding": "inplace",
        "label": "struct BCTypes.Map",
        "members": [
          {
            "astId": 1840,
            "contract": "contracts/BCMaps.sol:Maps",
            "label": "roomList",
            "offset": 0,
            "slot": "0",
            "type": "t_mapping(t_uint256,t_struct(RoomTile)1911_storage)"
          },
          {
            "astId": 1842,
            "contract": "contracts/BCMaps.sol:Maps",
            "label": "numRooms",
            "offset": 0,
            "slot": "1",
            "type": "t_uint8"
          },
          {
            "astId": 1846,
            "contract": "contracts/BCMaps.sol:Maps",
            "label": "usedRooms",
            "offset": 0,
            "slot": "2",
            "type": "t_mapping(t_uint256,t_bool)"
          },
          {
            "astId": 1853,
            "contract": "contracts/BCMaps.sol:Maps",
            "label": "board",
            "offset": 0,
            "slot": "3",
            "type": "t_mapping(t_uint256,t_mapping(t_uint256,t_struct(GameTile)1827_storage))"
          },
          {
            "astId": 1858,
            "contract": "contracts/BCMaps.sol:Maps",
            "label": "doors",
            "offset": 0,
            "slot": "4",
            "type": "t_mapping(t_uint256,t_struct(Door)1835_storage)"
          },
          {
            "astId": 1860,
            "contract": "contracts/BCMaps.sol:Maps",
            "label": "numDoors",
            "offset": 0,
            "slot": "5",
            "type": "t_uint8"
          },
          {
            "astId": 1863,
            "contract": "contracts/BCMaps.sol:Maps",
            "label": "startPosition",
            "offset": 0,
            "slot": "6",
            "type": "t_struct(Position)1812_storage"
          }
        ],
        "numberOfBytes": "224"
      },
      "t_struct(Position)1812_storage": {
        "encoding": "inplace",
        "label": "struct BCTypes.Position",
        "members": [
          {
            "astId": 1809,
            "contract": "contracts/BCMaps.sol:Maps",
            "label": "row",
            "offset": 0,
            "slot": "0",
            "type": "t_uint8"
          },
          {
            "astId": 1811,
            "contract": "contracts/BCMaps.sol:Maps",
            "label": "col",
            "offset": 1,
            "slot": "0",
            "type": "t_uint8"
          }
        ],
        "numberOfBytes": "32"
      },
      "t_struct(RoomTile)1911_storage": {
        "encoding": "inplace",
        "label": "struct BCTypes.RoomTile",
        "members": [
          {
            "astId": 1900,
            "contract": "contracts/BCMaps.sol:Maps",
            "label": "eventType",
            "offset": 0,
            "slot": "0",
            "type": "t_enum(BCEventType)1897"
          },
          {
            "astId": 1902,
            "contract": "contracts/BCMaps.sol:Maps",
            "label": "eventNum",
            "offset": 0,
            "slot": "1",
            "type": "t_uint256"
          },
          {
            "astId": 1904,
            "contract": "contracts/BCMaps.sol:Maps",
            "label": "numItems",
            "offset": 0,
            "slot": "2",
            "type": "t_uint8"
          },
          {
            "astId": 1906,
            "contract": "contracts/BCMaps.sol:Maps",
            "label": "numData",
            "offset": 1,
            "slot": "2",
            "type": "t_uint8"
          },
          {
            "astId": 1908,
            "contract": "contracts/BCMaps.sol:Maps",
            "label": "hasHazard",
            "offset": 2,
            "slot": "2",
            "type": "t_bool"
          },
          {
            "astId": 1910,
            "contract": "contracts/BCMaps.sol:Maps",
            "label": "sigDetected",
            "offset": 3,
            "slot": "2",
            "type": "t_bool"
          }
        ],
        "numberOfBytes": "96"
      },
      "t_uint256": {
        "encoding": "inplace",
        "label": "uint256",
        "numberOfBytes": "32"
      },
      "t_uint8": {
        "encoding": "inplace",
        "label": "uint8",
        "numberOfBytes": "1"
      }
    }
  }
}