{
  "address": "0x199fB7f45f1dcd5684AF3482025fE1521d9428A8",
  "abi": [
    {
      "anonymous": false,
      "inputs": [
        {
          "indexed": false,
          "internalType": "uint256",
          "name": "gameId",
          "type": "uint256"
        },
        {
          "indexed": false,
          "internalType": "uint256",
          "name": "roll",
          "type": "uint256"
        },
        {
          "indexed": false,
          "internalType": "uint256",
          "name": "forValue",
          "type": "uint256"
        },
        {
          "indexed": false,
          "internalType": "uint256",
          "name": "against",
          "type": "uint256"
        }
      ],
      "name": "ChallengeEvent",
      "type": "event"
    },
    {
      "anonymous": false,
      "inputs": [
        {
          "indexed": false,
          "internalType": "uint256",
          "name": "gameId",
          "type": "uint256"
        },
        {
          "indexed": false,
          "internalType": "uint256",
          "name": "roll",
          "type": "uint256"
        }
      ],
      "name": "DiceRollEvent",
      "type": "event"
    },
    {
      "anonymous": false,
      "inputs": [
        {
          "indexed": true,
          "internalType": "address",
          "name": "previousOwner",
          "type": "address"
        },
        {
          "indexed": true,
          "internalType": "address",
          "name": "newOwner",
          "type": "address"
        }
      ],
      "name": "OwnershipTransferred",
      "type": "event"
    },
    {
      "inputs": [
        {
          "internalType": "int256",
          "name": "x",
          "type": "int256"
        }
      ],
      "name": "abs",
      "outputs": [
        {
          "internalType": "int256",
          "name": "",
          "type": "int256"
        }
      ],
      "stateMutability": "pure",
      "type": "function"
    },
    {
      "inputs": [],
      "name": "actionsAddress",
      "outputs": [
        {
          "internalType": "address",
          "name": "",
          "type": "address"
        }
      ],
      "stateMutability": "view",
      "type": "function"
    },
    {
      "inputs": [],
      "name": "createMap",
      "outputs": [
        {
          "internalType": "uint256",
          "name": "",
          "type": "uint256"
        }
      ],
      "stateMutability": "nonpayable",
      "type": "function"
    },
    {
      "inputs": [
        {
          "internalType": "uint256",
          "name": "_mapId",
          "type": "uint256"
        },
        {
          "internalType": "uint256",
          "name": "_row",
          "type": "uint256"
        },
        {
          "internalType": "uint256",
          "name": "_col",
          "type": "uint256"
        },
        {
          "internalType": "uint256",
          "name": "_roomId",
          "type": "uint256"
        }
      ],
      "name": "debugForceRoomId",
      "outputs": [],
      "stateMutability": "nonpayable",
      "type": "function"
    },
    {
      "inputs": [
        {
          "internalType": "uint256",
          "name": "_mapId",
          "type": "uint256"
        },
        {
          "internalType": "uint256",
          "name": "_row",
          "type": "uint256"
        },
        {
          "internalType": "uint256",
          "name": "_col",
          "type": "uint256"
        },
        {
          "internalType": "uint256",
          "name": "debugForceId",
          "type": "uint256"
        }
      ],
      "name": "discoverRoom",
      "outputs": [
        {
          "internalType": "uint256",
          "name": "",
          "type": "uint256"
        }
      ],
      "stateMutability": "nonpayable",
      "type": "function"
    },
    {
      "inputs": [
        {
          "internalType": "uint256",
          "name": "_mapId",
          "type": "uint256"
        }
      ],
      "name": "extGetBoard",
      "outputs": [
        {
          "components": [
            {
              "internalType": "uint8",
              "name": "roomId",
              "type": "uint8"
            },
            {
              "internalType": "uint8",
              "name": "parentId",
              "type": "uint8"
            },
            {
              "internalType": "uint256[4]",
              "name": "doors",
              "type": "uint256[4]"
            },
            {
              "internalType": "bool",
              "name": "explored",
              "type": "bool"
            },
            {
              "internalType": "bool",
              "name": "looted",
              "type": "bool"
            },
            {
              "internalType": "bool",
              "name": "hasVent",
              "type": "bool"
            },
            {
              "internalType": "bool",
              "name": "hasHazard",
              "type": "bool"
            }
          ],
          "internalType": "struct BCTypes.GameTile[][]",
          "name": "",
          "type": "tuple[][]"
        }
      ],
      "stateMutability": "view",
      "type": "function"
    },
    {
      "inputs": [
        {
          "internalType": "uint256",
          "name": "_mapId",
          "type": "uint256"
        }
      ],
      "name": "extGetDoors",
      "outputs": [
        {
          "components": [
            {
              "internalType": "uint8",
              "name": "vsBreach",
              "type": "uint8"
            },
            {
              "internalType": "uint8",
              "name": "vsHack",
              "type": "uint8"
            },
            {
              "internalType": "enum BCTypes.DoorStatus",
              "name": "status",
              "type": "uint8"
            }
          ],
          "internalType": "struct BCTypes.Door[]",
          "name": "",
          "type": "tuple[]"
        }
      ],
      "stateMutability": "view",
      "type": "function"
    },
    {
      "inputs": [
        {
          "internalType": "uint256",
          "name": "_mapId",
          "type": "uint256"
        },
        {
          "internalType": "uint256",
          "name": "_row",
          "type": "uint256"
        },
        {
          "internalType": "uint256",
          "name": "_col",
          "type": "uint256"
        }
      ],
      "name": "extGetGameTile",
      "outputs": [
        {
          "components": [
            {
              "internalType": "uint8",
              "name": "roomId",
              "type": "uint8"
            },
            {
              "internalType": "uint8",
              "name": "parentId",
              "type": "uint8"
            },
            {
              "internalType": "uint256[4]",
              "name": "doors",
              "type": "uint256[4]"
            },
            {
              "internalType": "bool",
              "name": "explored",
              "type": "bool"
            },
            {
              "internalType": "bool",
              "name": "looted",
              "type": "bool"
            },
            {
              "internalType": "bool",
              "name": "hasVent",
              "type": "bool"
            },
            {
              "internalType": "bool",
              "name": "hasHazard",
              "type": "bool"
            }
          ],
          "internalType": "struct BCTypes.GameTile",
          "name": "",
          "type": "tuple"
        }
      ],
      "stateMutability": "view",
      "type": "function"
    },
    {
      "inputs": [
        {
          "internalType": "uint256",
          "name": "_mapId",
          "type": "uint256"
        }
      ],
      "name": "extGetMainReactorCoords",
      "outputs": [
        {
          "internalType": "uint256",
          "name": "",
          "type": "uint256"
        },
        {
          "internalType": "uint256",
          "name": "",
          "type": "uint256"
        }
      ],
      "stateMutability": "view",
      "type": "function"
    },
    {
      "inputs": [
        {
          "internalType": "uint256",
          "name": "_mapId",
          "type": "uint256"
        },
        {
          "internalType": "uint256",
          "name": "_row",
          "type": "uint256"
        },
        {
          "internalType": "uint256",
          "name": "_col",
          "type": "uint256"
        }
      ],
      "name": "extGetRoom",
      "outputs": [
        {
          "components": [
            {
              "internalType": "enum BCTypes.BCEventType",
              "name": "eventType",
              "type": "uint8"
            },
            {
              "internalType": "uint256",
              "name": "eventNum",
              "type": "uint256"
            },
            {
              "internalType": "uint8",
              "name": "numItems",
              "type": "uint8"
            },
            {
              "internalType": "uint8",
              "name": "numData",
              "type": "uint8"
            },
            {
              "internalType": "bool",
              "name": "sigDetected",
              "type": "bool"
            }
          ],
          "internalType": "struct BCTypes.RoomTile",
          "name": "",
          "type": "tuple"
        }
      ],
      "stateMutability": "view",
      "type": "function"
    },
    {
      "inputs": [
        {
          "internalType": "uint256",
          "name": "_mapId",
          "type": "uint256"
        },
        {
          "internalType": "uint256",
          "name": "_roomId",
          "type": "uint256"
        }
      ],
      "name": "extGetRoomById",
      "outputs": [
        {
          "components": [
            {
              "internalType": "enum BCTypes.BCEventType",
              "name": "eventType",
              "type": "uint8"
            },
            {
              "internalType": "uint256",
              "name": "eventNum",
              "type": "uint256"
            },
            {
              "internalType": "uint8",
              "name": "numItems",
              "type": "uint8"
            },
            {
              "internalType": "uint8",
              "name": "numData",
              "type": "uint8"
            },
            {
              "internalType": "bool",
              "name": "sigDetected",
              "type": "bool"
            }
          ],
          "internalType": "struct BCTypes.RoomTile",
          "name": "",
          "type": "tuple"
        }
      ],
      "stateMutability": "view",
      "type": "function"
    },
    {
      "inputs": [
        {
          "internalType": "uint256",
          "name": "_mapId",
          "type": "uint256"
        },
        {
          "internalType": "uint256",
          "name": "row",
          "type": "uint256"
        },
        {
          "internalType": "uint256",
          "name": "col",
          "type": "uint256"
        }
      ],
      "name": "extGetRoomId",
      "outputs": [
        {
          "internalType": "uint256",
          "name": "",
          "type": "uint256"
        }
      ],
      "stateMutability": "view",
      "type": "function"
    },
    {
      "inputs": [
        {
          "internalType": "uint256",
          "name": "_mapId",
          "type": "uint256"
        }
      ],
      "name": "extGetRoomList",
      "outputs": [
        {
          "components": [
            {
              "internalType": "enum BCTypes.BCEventType",
              "name": "eventType",
              "type": "uint8"
            },
            {
              "internalType": "uint256",
              "name": "eventNum",
              "type": "uint256"
            },
            {
              "internalType": "uint8",
              "name": "numItems",
              "type": "uint8"
            },
            {
              "internalType": "uint8",
              "name": "numData",
              "type": "uint8"
            },
            {
              "internalType": "bool",
              "name": "sigDetected",
              "type": "bool"
            }
          ],
          "internalType": "struct BCTypes.RoomTile[]",
          "name": "",
          "type": "tuple[]"
        }
      ],
      "stateMutability": "view",
      "type": "function"
    },
    {
      "inputs": [
        {
          "internalType": "uint256",
          "name": "_mapId",
          "type": "uint256"
        },
        {
          "internalType": "uint256",
          "name": "_row",
          "type": "uint256"
        },
        {
          "internalType": "uint256",
          "name": "_col",
          "type": "uint256"
        },
        {
          "internalType": "bool",
          "name": "_hasHazard",
          "type": "bool"
        }
      ],
      "name": "extSetHazardStatus",
      "outputs": [],
      "stateMutability": "nonpayable",
      "type": "function"
    },
    {
      "inputs": [
        {
          "internalType": "uint256",
          "name": "_mapId",
          "type": "uint256"
        },
        {
          "internalType": "uint256",
          "name": "_distance",
          "type": "uint256"
        }
      ],
      "name": "extSpreadHazards",
      "outputs": [],
      "stateMutability": "nonpayable",
      "type": "function"
    },
    {
      "inputs": [],
      "name": "game",
      "outputs": [
        {
          "internalType": "address",
          "name": "",
          "type": "address"
        }
      ],
      "stateMutability": "view",
      "type": "function"
    },
    {
      "inputs": [
        {
          "components": [
            {
              "internalType": "uint8",
              "name": "row",
              "type": "uint8"
            },
            {
              "internalType": "uint8",
              "name": "col",
              "type": "uint8"
            }
          ],
          "internalType": "struct BCTypes.Position",
          "name": "_firstRoom",
          "type": "tuple"
        },
        {
          "components": [
            {
              "internalType": "uint8",
              "name": "row",
              "type": "uint8"
            },
            {
              "internalType": "uint8",
              "name": "col",
              "type": "uint8"
            }
          ],
          "internalType": "struct BCTypes.Position",
          "name": "_secondRoom",
          "type": "tuple"
        }
      ],
      "name": "getDirectionBetween",
      "outputs": [
        {
          "internalType": "uint256",
          "name": "",
          "type": "uint256"
        }
      ],
      "stateMutability": "pure",
      "type": "function"
    },
    {
      "inputs": [
        {
          "internalType": "uint256",
          "name": "_mapId",
          "type": "uint256"
        },
        {
          "internalType": "uint256",
          "name": "_row",
          "type": "uint256"
        },
        {
          "internalType": "uint256",
          "name": "_col",
          "type": "uint256"
        },
        {
          "internalType": "uint256",
          "name": "_direction",
          "type": "uint256"
        }
      ],
      "name": "getDoor",
      "outputs": [
        {
          "components": [
            {
              "internalType": "uint8",
              "name": "vsBreach",
              "type": "uint8"
            },
            {
              "internalType": "uint8",
              "name": "vsHack",
              "type": "uint8"
            },
            {
              "internalType": "enum BCTypes.DoorStatus",
              "name": "status",
              "type": "uint8"
            }
          ],
          "internalType": "struct BCTypes.Door",
          "name": "",
          "type": "tuple"
        }
      ],
      "stateMutability": "view",
      "type": "function"
    },
    {
      "inputs": [
        {
          "internalType": "uint256",
          "name": "_mapId",
          "type": "uint256"
        },
        {
          "internalType": "uint256",
          "name": "_row",
          "type": "uint256"
        },
        {
          "internalType": "uint256",
          "name": "_col",
          "type": "uint256"
        }
      ],
      "name": "getDoorDirections",
      "outputs": [
        {
          "internalType": "bool[4]",
          "name": "",
          "type": "bool[4]"
        }
      ],
      "stateMutability": "view",
      "type": "function"
    },
    {
      "inputs": [
        {
          "internalType": "uint256",
          "name": "_direction",
          "type": "uint256"
        },
        {
          "components": [
            {
              "internalType": "uint8",
              "name": "row",
              "type": "uint8"
            },
            {
              "internalType": "uint8",
              "name": "col",
              "type": "uint8"
            }
          ],
          "internalType": "struct BCTypes.Position",
          "name": "_start",
          "type": "tuple"
        }
      ],
      "name": "getNeighborRoom",
      "outputs": [
        {
          "components": [
            {
              "internalType": "uint8",
              "name": "row",
              "type": "uint8"
            },
            {
              "internalType": "uint8",
              "name": "col",
              "type": "uint8"
            }
          ],
          "internalType": "struct BCTypes.Position",
          "name": "",
          "type": "tuple"
        }
      ],
      "stateMutability": "pure",
      "type": "function"
    },
    {
      "inputs": [
        {
          "internalType": "uint256",
          "name": "_traitNum",
          "type": "uint256"
        },
        {
          "internalType": "uint256",
          "name": "_subTraitNum",
          "type": "uint256"
        }
      ],
      "name": "getUIOffset",
      "outputs": [
        {
          "internalType": "uint256",
          "name": "",
          "type": "uint256"
        }
      ],
      "stateMutability": "pure",
      "type": "function"
    },
    {
      "inputs": [
        {
          "internalType": "uint256",
          "name": "",
          "type": "uint256"
        }
      ],
      "name": "maps",
      "outputs": [
        {
          "internalType": "uint8",
          "name": "numDoors",
          "type": "uint8"
        },
        {
          "components": [
            {
              "internalType": "uint8",
              "name": "row",
              "type": "uint8"
            },
            {
              "internalType": "uint8",
              "name": "col",
              "type": "uint8"
            }
          ],
          "internalType": "struct BCTypes.Position",
          "name": "startPosition",
          "type": "tuple"
        },
        {
          "internalType": "uint256",
          "name": "mainReactorRow",
          "type": "uint256"
        },
        {
          "internalType": "uint256",
          "name": "mainReactorCol",
          "type": "uint256"
        }
      ],
      "stateMutability": "view",
      "type": "function"
    },
    {
      "inputs": [
        {
          "internalType": "uint256",
          "name": "_min",
          "type": "uint256"
        },
        {
          "internalType": "uint256",
          "name": "_max",
          "type": "uint256"
        },
        {
          "internalType": "uint256",
          "name": "_val",
          "type": "uint256"
        },
        {
          "internalType": "uint256",
          "name": "_valMax",
          "type": "uint256"
        }
      ],
      "name": "normalizeToSmallRange",
      "outputs": [
        {
          "internalType": "uint8",
          "name": "",
          "type": "uint8"
        }
      ],
      "stateMutability": "pure",
      "type": "function"
    },
    {
      "inputs": [],
      "name": "numRooms",
      "outputs": [
        {
          "internalType": "uint256",
          "name": "",
          "type": "uint256"
        }
      ],
      "stateMutability": "view",
      "type": "function"
    },
    {
      "inputs": [
        {
          "internalType": "uint256",
          "name": "_direction",
          "type": "uint256"
        }
      ],
      "name": "opposite",
      "outputs": [
        {
          "internalType": "uint256",
          "name": "",
          "type": "uint256"
        }
      ],
      "stateMutability": "pure",
      "type": "function"
    },
    {
      "inputs": [],
      "name": "owner",
      "outputs": [
        {
          "internalType": "address",
          "name": "",
          "type": "address"
        }
      ],
      "stateMutability": "view",
      "type": "function"
    },
    {
      "inputs": [],
      "name": "playersAddress",
      "outputs": [
        {
          "internalType": "address",
          "name": "",
          "type": "address"
        }
      ],
      "stateMutability": "view",
      "type": "function"
    },
    {
      "inputs": [],
      "name": "randKeccak",
      "outputs": [
        {
          "internalType": "bytes32",
          "name": "",
          "type": "bytes32"
        }
      ],
      "stateMutability": "nonpayable",
      "type": "function"
    },
    {
      "inputs": [],
      "name": "renounceOwnership",
      "outputs": [],
      "stateMutability": "nonpayable",
      "type": "function"
    },
    {
      "inputs": [
        {
          "internalType": "uint256",
          "name": "_mapId",
          "type": "uint256"
        }
      ],
      "name": "resetOpenDoors",
      "outputs": [],
      "stateMutability": "nonpayable",
      "type": "function"
    },
    {
      "inputs": [
        {
          "internalType": "uint256",
          "name": "_gameId",
          "type": "uint256"
        },
        {
          "internalType": "uint256",
          "name": "_for",
          "type": "uint256"
        },
        {
          "internalType": "uint256",
          "name": "_against",
          "type": "uint256"
        }
      ],
      "name": "resolveChallenge",
      "outputs": [
        {
          "internalType": "bool",
          "name": "",
          "type": "bool"
        }
      ],
      "stateMutability": "nonpayable",
      "type": "function"
    },
    {
      "inputs": [
        {
          "internalType": "uint256",
          "name": "_gameId",
          "type": "uint256"
        }
      ],
      "name": "roll",
      "outputs": [
        {
          "internalType": "uint256",
          "name": "",
          "type": "uint256"
        }
      ],
      "stateMutability": "nonpayable",
      "type": "function"
    },
    {
      "inputs": [
        {
          "internalType": "uint256",
          "name": "",
          "type": "uint256"
        }
      ],
      "name": "roomList",
      "outputs": [
        {
          "internalType": "enum BCTypes.BCEventType",
          "name": "eventType",
          "type": "uint8"
        },
        {
          "internalType": "uint256",
          "name": "eventNum",
          "type": "uint256"
        },
        {
          "internalType": "uint8",
          "name": "numItems",
          "type": "uint8"
        },
        {
          "internalType": "uint8",
          "name": "numData",
          "type": "uint8"
        },
        {
          "internalType": "bool",
          "name": "sigDetected",
          "type": "bool"
        }
      ],
      "stateMutability": "view",
      "type": "function"
    },
    {
      "inputs": [],
      "name": "roomTiles",
      "outputs": [
        {
          "internalType": "contract RoomTileInterface",
          "name": "",
          "type": "address"
        }
      ],
      "stateMutability": "view",
      "type": "function"
    },
    {
      "inputs": [
        {
          "internalType": "address",
          "name": "_gameAddress",
          "type": "address"
        },
        {
          "internalType": "address",
          "name": "_utilsAddress",
          "type": "address"
        },
        {
          "internalType": "address",
          "name": "_roomTilesAddress",
          "type": "address"
        },
        {
          "internalType": "address",
          "name": "_actionsAddress",
          "type": "address"
        },
        {
          "internalType": "address",
          "name": "_playersAddress",
          "type": "address"
        }
      ],
      "name": "setContractAddresses",
      "outputs": [],
      "stateMutability": "nonpayable",
      "type": "function"
    },
    {
      "inputs": [
        {
          "internalType": "uint256",
          "name": "_mapId",
          "type": "uint256"
        },
        {
          "internalType": "uint256",
          "name": "_row",
          "type": "uint256"
        },
        {
          "internalType": "uint256",
          "name": "_col",
          "type": "uint256"
        },
        {
          "internalType": "uint256",
          "name": "_direction",
          "type": "uint256"
        },
        {
          "internalType": "enum BCTypes.DoorStatus",
          "name": "_status",
          "type": "uint8"
        },
        {
          "internalType": "uint256",
          "name": "_strength",
          "type": "uint256"
        }
      ],
      "name": "setDoorFromPos",
      "outputs": [],
      "stateMutability": "nonpayable",
      "type": "function"
    },
    {
      "inputs": [
        {
          "internalType": "uint256",
          "name": "_mapId",
          "type": "uint256"
        },
        {
          "internalType": "uint256",
          "name": "_row",
          "type": "uint256"
        },
        {
          "internalType": "uint256",
          "name": "_col",
          "type": "uint256"
        }
      ],
      "name": "setLooted",
      "outputs": [],
      "stateMutability": "nonpayable",
      "type": "function"
    },
    {
      "inputs": [
        {
          "internalType": "bytes32",
          "name": "_hash",
          "type": "bytes32"
        },
        {
          "internalType": "uint256",
          "name": "_size",
          "type": "uint256"
        },
        {
          "internalType": "uint256",
          "name": "_offset",
          "type": "uint256"
        }
      ],
      "name": "sliceHashToSmallInt",
      "outputs": [
        {
          "internalType": "uint8",
          "name": "",
          "type": "uint8"
        }
      ],
      "stateMutability": "pure",
      "type": "function"
    },
    {
      "inputs": [
        {
          "internalType": "uint8",
          "name": "_min",
          "type": "uint8"
        },
        {
          "internalType": "uint8",
          "name": "_max",
          "type": "uint8"
        }
      ],
      "name": "smallIntBetweenVals",
      "outputs": [
        {
          "internalType": "uint8",
          "name": "",
          "type": "uint8"
        }
      ],
      "stateMutability": "nonpayable",
      "type": "function"
    },
    {
      "inputs": [
        {
          "internalType": "address",
          "name": "newOwner",
          "type": "address"
        }
      ],
      "name": "transferOwnership",
      "outputs": [],
      "stateMutability": "nonpayable",
      "type": "function"
    }
  ],
  "transactionHash": "0xc6e24c6ed2cd7ecf0f3699483244c969ab476504675fad53d19d3ce2ca5c424c",
  "args": [],
  "numDeployments": 1,
  "solcInputHash": "199aafc117a381f89410779209b19ac5",
  "bytecode": "0x608060405260006001553480156200001657600080fd5b50620000223362000028565b62000078565b600080546001600160a01b038381166001600160a01b0319831681178455604051919092169283917f8be0079c531659141344cd1fd0a4f28419497f9722a3daafe3b4186f6b6457e09190a35050565b613cf680620000886000396000f3fe608060405234801561001057600080fd5b50600436106102485760003560e01c806381bad36d1161013b578063c6b41b45116100b8578063f2fde38b1161007c578063f2fde38b146105d1578063f7157f64146105e4578063f9dfbfcb146105f7578063fa3993c214610617578063fe368d7a1461062a57600080fd5b8063c6b41b451461057d578063c8e9ac9614610590578063ce28613f146105a3578063e847ae1e146105b6578063f01fc35a146105c957600080fd5b8063951fc3fe116100ff578063951fc3fe146104cc57806397f34c3f146104ec578063a63a9aab146104ff578063b14ca57514610557578063c3fe3e281461056a57600080fd5b806381bad36d146104625780638214f2221461047557806386e529d0146104885780638af13fd21461049b5780638da5cb5b146104bb57600080fd5b806358308aa8116101c957806369568fd51161018d57806369568fd5146103e45780636ea1dcd814610404578063715018a61461042457806375990a0e1461042c5780637b45c0d41461044f57600080fd5b806358308aa81461035e57806359215223146103735780635dc96967146103865780635f8951e6146103a957806364db84bf146103d157600080fd5b80631e1de205116102105780631e1de205146102eb5780631ef04416146102f35780631f7b4f30146103135780635301169614610326578063580582831461034b57600080fd5b806302861c6c1461024d57806303b414e41461027657806315636a4d146102a15780631b5ac4b5146102c15780631cdec3ad146102e2575b600080fd5b61026061025b366004613291565b61063d565b60405161026d9190613326565b60405180910390f35b600554610289906001600160a01b031681565b6040516001600160a01b03909116815260200161026d565b6102b46102af366004613291565b61070c565b60405161026d9190613334565b6102d46102cf366004613367565b610851565b60405190815260200161026d565b6102d460075481565b6102d4610871565b610306610301366004613367565b6108e9565b60405161026d91906133f7565b6102d4610321366004613367565b610add565b61033961033436600461348c565b610b39565b60405160ff909116815260200161026d565b6102606103593660046134be565b610b78565b61037161036c366004613367565b610c01565b005b6103716103813660046134e0565b610d0e565b610399610394366004613291565b610eb5565b604051901515815260200161026d565b6103bc6103b7366004613367565b610f50565b6040805192835260208301919091520161026d565b6102d46103df3660046134be565b610fa6565b6103f76103f2366004613367565b610fbe565b60405161026d919061356d565b61041761041236600461348c565b61111e565b60405161026d91906135bb565b61037161125c565b61043f61043a366004613367565b611270565b60405161026d94939291906135c9565b600454610289906001600160a01b031681565b6102d461047036600461348c565b6112d1565b6102d4610483366004613367565b6113c1565b610371610496366004613291565b61143b565b6104ae6104a9366004613367565b6114ee565b60405161026d9190613602565b6000546001600160a01b0316610289565b6104df6104da3660046136da565b611601565b60405161026d9190613707565b6103396104fa366004613291565b61172b565b61054661050d366004613367565b60066020526000908152604090208054600182015460029092015460ff9182169291818116916101008104821691620100009091041685565b60405161026d959493929190613725565b61037161056536600461348c565b611756565b600254610289906001600160a01b031681565b61037161058b3660046134be565b6117b2565b6102d461059e366004613291565b611b0f565b6103396105b136600461375d565b611b57565b6103716105c43660046137b2565b611c07565b6102d4611c6b565b6103716105df366004613817565b611ea4565b600354610289906001600160a01b031681565b61060a610605366004613291565b611f1d565b60405161026d9190613832565b6102d4610625366004613841565b612001565b61037161063836600461387b565b6120c9565b61064561313c565b600660006008868154811061065c5761065c6138bc565b600091825260208083208884526001600790930201919091018152604080832087845282528083205460ff9081168552918401949094529183019020825160a081019093528054909183911660058111156106b9576106b96132bd565b60058111156106ca576106ca6132bd565b81526001820154602082015260029091015460ff80821660408401526101008204811660608401526201000090910416151560809091015290505b9392505050565b61071461316d565b600060088581548110610729576107296138bc565b60009182526020808320878452600160079093020182018152604080842087855290915290912001905061075b61316d565b60005b60048110156108475760006008888154811061077c5761077c6138bc565b906000526020600020906007020160020160008584600481106107a1576107a16138bc565b015481526020810191909152604001600020805490915062010000900460ff1660018160048111156107d5576107d56132bd565b14806107f2575060028160048111156107f0576107f06132bd565b145b8061080e5750600381600481111561080c5761080c6132bd565b145b15610832576001848460048110610827576108276138bc565b911515602090920201525b5050808061083f906138e8565b91505061075e565b5095945050505050565b6000808212156108695761086482613901565b61086b565b815b92915050565b6001805460009182610882836138e8565b9190505550600154600143610897919061391d565b40336040516020016108ce93929190928352602083019190915260601b6bffffffffffffffffffffffff1916604082015260540190565b60405160208183030381529060405280519060200120905090565b60408051600b808252610180820190925260609160009190816020015b606081526020019060019003908161090657905050905060005b600b81101561098b5760408051600b808252610180820190925290816020015b61094861318b565b8152602001906001900390816109405790505082828151811061096d5761096d6138bc565b60200260200101819052508080610983906138e8565b915050610920565b5060005b600b811015610ad65760005b600b811015610ac357600885815481106109b7576109b76138bc565b600091825260208083208584526001600790930201820181526040808420858552825292839020835160e081018552815460ff808216835261010090910416928101929092528351608081018552919390929084019190830160048282826020028201915b815481526020019060010190808311610a1c5750505091835250506005919091015460ff80821615156020840152610100820481161515604084015262010000820481161515606084015263010000009091041615156080909101528351849084908110610a8c57610a8c6138bc565b60200260200101518281518110610aa557610aa56138bc565b60200260200101819052508080610abb906138e8565b91505061099b565b5080610ace816138e8565b91505061098f565b5092915050565b600080610aec60016006611b57565b60ff1690507ffe34d093a460a16ee5fb374540914d1c734a17502c0c1a87b387c8d6097e1c518382604051610b2b929190918252602082015260400190565b60405180910390a192915050565b600080610b46868661391d565b9050600083610b558684613930565b610b5f919061395d565b9050610b6b8782613971565b925050505b949350505050565b610b8061313c565b60008281526006602052604090819020815160a081019092528054829060ff166005811115610bb157610bb16132bd565b6005811115610bc257610bc26132bd565b81526001820154602082015260029091015460ff8082166040840152610100820481166060840152620100009091041615156080909101529392505050565b6002546001600160a01b03163314610c1857600080fd5b60005b60088281548110610c2e57610c2e6138bc565b600091825260209091206003600790920201015460ff16811015610d0a57600260088381548110610c6157610c616138bc565b600091825260208083208584526007929092029091016002019052604090205462010000900460ff166004811115610c9b57610c9b6132bd565b03610cf857600160088381548110610cb557610cb56138bc565b60009182526020808320858452600260079093020191909101905260409020805462ff0000191662010000836004811115610cf257610cf26132bd565b02179055505b80610d02816138e8565b915050610c1b565b5050565b6002546001600160a01b0316331480610d3157506004546001600160a01b031633145b80610d4657506005546001600160a01b031633145b610da15760405162461bcd60e51b815260206004820152602160248201527f4e6f742067616d652f616374696f6e732f706c617965727320636f6e747261636044820152601d60fa1b60648201526084015b60405180910390fd5b600060088781548110610db657610db66138bc565b600091825260208083208984526001600790930201820181526040808420898552909152918290208251608081019093520160048282826020028201915b815481526020019060010190808311610df45750505050509050600060088881548110610e2357610e236138bc565b90600052602060002090600702016002016000838760048110610e4857610e486138bc565b602002015181526020019081526020016000209050838160000160026101000a81548160ff02191690836004811115610e8357610e836132bd565b02179055508215610eab57805461ffff191661010060ff851690810260ff1916919091171781555b5050505050505050565b600080610ec185610add565b6040805187815260208101839052908101869052606081018590529091507f75b6a8325595f91135e07382840634226793c68c9e59623da7e10d7ad3d95b959060800160405180910390a180600103610f1e576000915050610705565b600383610f2b8684613971565b610f359190613984565b1315610f45576001915050610705565b506000949350505050565b60008060088381548110610f6657610f666138bc565b90600052602060002090600702016005015460088481548110610f8b57610f8b6138bc565b90600052602060002090600702016006015491509150915091565b600081610fb4846004613930565b6107059190613971565b6060600060088381548110610fd557610fd56138bc565b600091825260209091206003600790920201015460ff1667ffffffffffffffff81111561100457611004613644565b60405190808252806020026020018201604052801561105657816020015b61104360408051606081018252600080825260208201819052909182015290565b8152602001906001900390816110225790505b50905060005b8151811015610ad65760088481548110611078576110786138bc565b6000918252602080832084845260026007909302019190910181526040918290208251606081018452815460ff808216835261010082048116948301949094529093919291840191620100009091041660048111156110d9576110d96132bd565b60048111156110ea576110ea6132bd565b81525050828281518110611100576111006138bc565b60200260200101819052508080611116906138e8565b91505061105c565b61113f60408051606081018252600080825260208201819052909182015290565b600060088681548110611154576111546138bc565b600091825260208083208884526001600790930201820181526040808420888552909152918290208251608081019093520160048282826020028201915b8154815260200190600101908083116111925750505050509050600886815481106111bf576111bf6138bc565b906000526020600020906007020160020160008285600481106111e4576111e46138bc565b6020908102919091015182528181019290925260409081016000208151606081018352815460ff80821683526101008204811695830195909552909391928401916201000090910416600481111561123e5761123e6132bd565b600481111561124f5761124f6132bd565b9052509695505050505050565b611264612178565b61126e60006121d2565b565b6008818154811061128057600080fd5b600091825260209182902060036007909202019081015460408051808201909152600483015460ff818116835261010090910481169482019490945260058301546006909301549390911693509184565b6002546000906001600160a01b031633146112eb57600080fd5b600060088681548110611300576113006138bc565b600091825260208083208884526001600790930201919091018152604080832087845290915290209050821561134457805460ff191660ff84161790555080610b70565b805460ff166063190161136657805460ff191660129081179091559050610b70565b805460ff16600019016113b55761139c60088781548110611389576113896138bc565b9060005260206000209060070201612222565b815460ff191660ff919091169081179091559050610b70565b50600095945050505050565b6000816000036113d357506001919050565b816001036113e357506000919050565b816002036113f357506003919050565b8160030361140357506002919050565b60405162461bcd60e51b815260206004820152600d60248201526c2130b2103234b932b1ba34b7b760991b6044820152606401610d98565b6004546001600160a01b031633146114955760405162461bcd60e51b815260206004820181905260248201527f4e6f7420616374696f6e7320636f6e7472616374202d207365744c6f6f7465646044820152606401610d98565b6001600884815481106114aa576114aa6138bc565b6000918252602080832095835260016007909202909501018452604080822093825292909352912060050180549115156101000261ff001990921691909117905550565b6060600060075467ffffffffffffffff81111561150d5761150d613644565b60405190808252806020026020018201604052801561154657816020015b61153361313c565b81526020019060019003908161152b5790505b50905060005b8151811015610ad65760008181526006602052604090819020815160a081019092528054829060ff166005811115611586576115866132bd565b6005811115611597576115976132bd565b81526001820154602082015260029091015460ff80821660408401526101008204811660608401526201000090910416151560809091015282518390839081106115e3576115e36138bc565b602002602001018190525080806115f9906138e8565b91505061154c565b6040805180820190915260008082526020820152826000036116535760405180604001604052806001846000015161163991906139a4565b60ff168152602001836020015160ff16815250905061086b565b826001036116775760405180604001604052808360000151600161163991906139bd565b826002036116b4576040518060400160405280836000015160ff168152602001836020015160016116a891906139bd565b60ff169052905061086b565b826003036116e5576040518060400160405280836000015160ff168152602001600184602001516116a891906139a4565b60006116f084612354565b60405160200161170091906139fa565b60405160208183030381529060405290508060405162461bcd60e51b8152600401610d989190613a35565b60008082600161173c866002613b4c565b611746919061391d565b901b8516831c9150509392505050565b61175e612178565b8060088581548110611772576117726138bc565b60009182526020808320968352600791909102909501600101855260408082209482529390945291909220805460ff191660ff9092169190911790555050565b6002546001600160a01b031633146117c957600080fd5b6117d16131aa565b60005b82811015611b095760005b600b8110156118945760005b600b8110156118815760088681548110611807576118076138bc565b60009182526020808320858452600792909202909101600101815260408083208484529091529020600501546301000000900460ff168483600b811061184f5761184f6138bc565b602002015182600b8110611865576118656138bc565b9115156020909202015280611879816138e8565b9150506117eb565b508061188c816138e8565b9150506117df565b5060005b600b811015611af65760005b600b811015611ae3578382600b81106118bf576118bf6138bc565b602002015181600b81106118d5576118d56138bc565b602002015115611ad15760005b6004811015611acf57600060088881548110611900576119006138bc565b600091825260208083208784526001600790930201820181526040808420878552909152909120018260048110611939576119396138bc565b01549050600060088981548110611952576119526138bc565b600091825260208083208584526007929092029091016002019052604090205462010000900460ff1690506003816004811115611991576119916132bd565b03611aba57841580156119a2575082155b156119ae575050611abd565b6119ba6001600b61391d565b851480156119c85750826001145b156119d4575050611abd565b831580156119e25750826003145b156119ee575050611abd565b6119fa6001600b61391d565b84148015611a085750826002145b15611a14575050611abd565b6000611a3a8460405180604001604052808960ff1681526020018860ff16815250611601565b9050600060088b81548110611a5157611a516138bc565b60009182526020808320855160ff90811685526007939093020160010181526040808420868301518416855290915290912080549092501615801590611a9c5750805460ff16600214155b15611ab75760058101805463ff000000191663010000001790555b50505b50505b80611ac7816138e8565b9150506118e2565b505b80611adb816138e8565b9150506118a4565b5080611aee816138e8565b915050611898565b5080611b01816138e8565b9150506117d4565b50505050565b600060088481548110611b2457611b246138bc565b6000918252602080832095835260079190910290940160010184526040808220938252929093525090205460ff16919050565b6001805460009182611b68836138e8565b9190505550600033600154600143611b80919061391d565b60405160609390931b6bffffffffffffffffffffffff19166020840152603483019190915240605482015260740160408051601f19818403018152919052805160209091012090506000611bd485856139a4565b611bdf9060016139bd565b90508460ff168160ff1683611bf49190613b58565b611bfe9190613971565b95945050505050565b611c0f612178565b600280546001600160a01b038088166001600160a01b03199283161790925560038054868416908316179055600480548584169083161790556005805492841692909116919091179055611c61612455565b6007555050505050565b6002546000906001600160a01b03163314611c8557600080fd5b600880546001810182556000829052604080516103408101825260038152600460208201526005918101919091526006606082015260076080820181905260a0820193909352600960c0820152600a60e0820152600b610100820152600c610120820152600d610140820152600e610160820152600f61018082015260106101a082015260116101c082015260136101e08201526014610200820152601561022082015260166102408201526017610260820152601861028082015260196102a0820152601a6102c08201819052601b6102e0830152601c610300830152601d610320830152929091027ff3f7a9fe364faab93b216da50a3214154f22a0a2b415b23a84c8169e8b636ee30191611d9f90839083906131d8565b506040805160608101825260ff808252602082015290810160009052600383015460ff9081166000908152600285016020908152604091829020845181549286015185166101000261ffff19909316941693909317178083559083015190829062ff0000191662010000836004811115611e1b57611e1b6132bd565b0217905550505060038201805460ff16906000611e3783613b6c565b82546101009290920a60ff8181021990931691909216919091021790555060408051808201909152600a8152600660209091015260048201805461ffff191661060a179055611e85826125e2565b611e8e82612ea9565b600854611e9d9060019061391d565b9250505090565b611eac612178565b6001600160a01b038116611f115760405162461bcd60e51b815260206004820152602660248201527f4f776e61626c653a206e6577206f776e657220697320746865207a65726f206160448201526564647265737360d01b6064820152608401610d98565b611f1a816121d2565b50565b611f2561318b565b60088481548110611f3857611f386138bc565b600091825260208083208684526001600790930201820181526040808420868552825292839020835160e081018552815460ff808216835261010090910416928101929092528351608081018552919390929084019190830160048282826020028201915b815481526020019060010190808311611f9d5750505091835250506005919091015460ff8082161515602084015261010082048116151560408401526201000082048116151560608401526301000000909104161515608090910152949350505050565b8051825160009161201191613b8b565b60000b6001036120235750600061086b565b815183516120319190613b8b565b60000b196120415750600161086b565b816020015183602001516120559190613b8b565b60000b196120655750600261086b565b816020015183602001516120799190613b8b565b60000b60010361208b5750600361086b565b60405162461bcd60e51b8152602060048201526013602482015272115c9c9bdc8e88139bdd0818591a9858d95b9d606a1b6044820152606401610d98565b6005546001600160a01b031633146121195760405162461bcd60e51b8152602060048201526013602482015272139bdd081c1b185e595c8818dbdb9d1c9858dd606a1b6044820152606401610d98565b806008858154811061212d5761212d6138bc565b600091825260208083209683526001600790920290960101855260408082209482529390945291909220600501805491151563010000000263ff000000199092169190911790555050565b6000546001600160a01b0316331461126e5760405162461bcd60e51b815260206004820181905260248201527f4f776e61626c653a2063616c6c6572206973206e6f7420746865206f776e65726044820152606401610d98565b600080546001600160a01b038381166001600160a01b0319831681178455604051919092169283917f8be0079c531659141344cd1fd0a4f28419497f9722a3daafe3b4186f6b6457e09190a35050565b805460009081906122359060019061391d565b90505b80156122f157600061224b600083611b57565b9050836000018160ff1681548110612265576122656138bc565b9060005260206000200154846000018381548110612285576122856138bc565b90600052602060002001548560000184815481106122a5576122a56138bc565b906000526020600020016000876000018560ff16815481106122c9576122c96138bc565b60009182526020909120019290925591909155508190506122e981613bac565b915050612238565b50815460009083906123059060019061391d565b81548110612315576123156138bc565b906000526020600020015490508260000180548061233557612335613bc3565b6001900381819060005260206000200160009055905580915050919050565b60608160000361237b5750506040805180820190915260018152600360fc1b602082015290565b8160005b81156123a5578061238f816138e8565b915061239e9050600a8361395d565b915061237f565b60008167ffffffffffffffff8111156123c0576123c0613644565b6040519080825280601f01601f1916602001820160405280156123ea576020820181803683370190505b5090505b8415610b70576123ff60018361391d565b915061240c600a86613b58565b612417906030613971565b60f81b81838151811061242c5761242c6138bc565b60200101906001600160f81b031916908160001a90535061244e600a8661395d565b94506123ee565b600080600360009054906101000a90046001600160a01b03166001600160a01b03166338fdf0bd6040518163ffffffff1660e01b8152600401602060405180830381865afa1580156124ab573d6000803e3d6000fd5b505050506040513d601f19601f820116820180604052508101906124cf9190613bd9565b905060005b818110156125dc5760035460405163413a9f5f60e11b8152600481018390526001600160a01b03909116906382753ebe9060240160a060405180830381865afa158015612525573d6000803e3d6000fd5b505050506040513d601f19601f820116820180604052508101906125499190613bf2565b600082815260066020526040902081518154829060ff19166001836005811115612575576125756132bd565b02179055506020820151600182015560408201516002909101805460608401516080909401511515620100000262ff00001960ff9586166101000261ffff1990931695909416949094171791909116919091179055806125d4816138e8565b9150506124d4565b50919050565b60008060026007546125f4919061391d565b9050600160006126026131aa565b6004860154600190829060ff16600b811061261f5761261f6138bc565b60200201516004880154610100900460ff16600b8110612641576126416138bc565b91151560209092020152612653613223565b60408051808201909152600488015460ff80821683526101009091041660208201528187601e8110612687576126876138bc565b602002015285612696816138e8565b9650505b6000851180156126aa5750600086115b15612e1d576000816126bd60018961391d565b601e81106126cd576126cd6138bc565b60200201519050866126de81613bac565b9750508187601e81106126f3576126f36138bc565b6020020161271a6040518060400160405280600060ff168152602001600060ff1681525090565b90528561272681613bac565b965050848061273490613bac565b825160ff908116600090815260018c810160209081526040808420828901519095168452939052918120805460ff19169092179091559096506021915061277c906063611b57565b60ff1610156127bf57805160ff908116600090815260018a016020908152604080832082860151909416835292905220600501805462ff00001916620100001790555b60006040518060800160405280600081526020016001815260200160028152602001600381525090506000600160046127f8919061391d565b90505b801561288857600061280e600083611b57565b9050828160ff1660048110612825576128256138bc565b602002015183836004811061283c5761283c6138bc565b6020020151848460048110612853576128536138bc565b60200201858460ff166004811061286c5761286c6138bc565b602002019190915252508061288081613bac565b9150506127fb565b5060005b6004811015612e155782516020840151600091820b910b8383600481106128b5576128b56138bc565b60200201516000036128d357816128cb81613c93565b925050612957565b8383600481106128e5576128e56138bc565b60200201516001036128fb57816128cb81613ca8565b83836004811061290d5761290d6138bc565b602002015160020361292b578061292381613ca8565b915050612957565b83836004811061293d5761293d6138bc565b6020020151600303612957578061295381613c93565b9150505b60018212806129665750600181125b8061297b57506129786002600b61391d565b82135b80612990575061298d6002600b61391d565b81135b1561299c575050612e03565b6040805180820190915260ff80841680835290831660208301528890600b81106129c8576129c86138bc565b6020020151816020015160ff16600b81106129e5576129e56138bc565b60200201511580612a4657508c6001016000876000015160ff1681526020019081526020016000206000876020015160ff168152602001908152602001600020600101612a328783612001565b60048110612a4257612a426138bc565b0154155b15612dff57891580612a6f5750612a5e89604261391d565b612a6a60006063611b57565b60ff16105b15612dfa576040518060600160405280612a8b60006004611b57565b60ff168152602001612a9f60006004611b57565b60ff16815260200160018152508d60020160008f60030160009054906101000a900460ff1660ff16815260200190815260200160002060008201518160000160006101000a81548160ff021916908360ff16021790555060208201518160000160016101000a81548160ff021916908360ff16021790555060408201518160000160026101000a81548160ff02191690836004811115612b4157612b416132bd565b0217905550505060038d015460ff908116600090815260028f0160205260408120549091169003612b945760038d015460ff16600090815260028e0160205260409020805462ff00001916620300001790555b60038d01805460ff16906000612ba983613b6c565b91906101000a81548160ff021916908360ff16021790555050601689612bcf9190613971565b98506042891115612bdf57604298505b8051889060ff16600b8110612bf657612bf66138bc565b6020020151816020015160ff16600b8110612c1357612c136138bc565b60200201511515600003612c975780878d601e8110612c3457612c346138bc565b60200201528b612c43816138e8565b9c50508980612c51906138e8565b9a5050600188826000015160ff16600b8110612c6f57612c6f6138bc565b6020020151826020015160ff16600b8110612c8c57612c8c6138bc565b911515602090920201525b8c6001016000876000015160ff1681526020019081526020016000206000876020015160ff168152602001908152602001600020600101858560048110612ce057612ce06138bc565b602002015160048110612cf557612cf56138bc565b0154600003612df55760038d0154612d129060019060ff166139a4565b60ff168d6001016000886000015160ff1681526020019081526020016000206000886020015160ff168152602001908152602001600020600101868660048110612d5e57612d5e6138bc565b602002015160048110612d7357612d736138bc565b015560038d0154612d899060019060ff166139a4565b60ff168d6001016000836000015160ff1681526020019081526020016000206000836020015160ff168152602001908152602001600020600101612de2878760048110612dd857612dd86138bc565b60200201516113c1565b60048110612df257612df26138bc565b01555b612dff565b600098505b5050505b80612e0d816138e8565b91505061288c565b50505061269a565b60048701805460ff80821660009081526001808c016020818152604080852061010097889004871686528252808520805460ff1916600290811790915597548087168652928252808520969092049094168352938352838220600501805462ff000019908116909155908252938b01909152208054600392166201000083021790555050505050505050565b6000805b600b8110156131375760005b600b811015613124576000828152600185016020908152604080832084845290915290205460ff16600019016131125782612ef3816138e8565b93505082600503612f3357600082815260018501602090815260408083208484529091529020805460ff1916606417905560058401829055600684018190555b60005b6004811015613110576000838152600180870160209081526040808420868552909152909120018160048110612f6e57612f6e6138bc565b01546000036130fe57826009148015612f875750816006145b6130fe576000612fb18260405180604001604052808760ff1681526020018660ff16815250611601565b805160ff9081166000908152600189016020908152604080832082860151851684529091529020549192501680158015612ff957506042612ff460006063611b57565b60ff16105b156130fb576040805160608101825260ff808252602082015290810160049052600388015460ff908116600090815260028a016020908152604091829020845181549286015185166101000261ffff19909316941693909317178083559083015190829062ff0000191662010000836004811115613079576130796132bd565b0217905550505060038701805460ff1690600061309583613b6c565b82546101009290920a60ff81810219909316918316021790915560038901546130c29250600191166139a4565b60008681526001808a016020908152604080842089855290915290912060ff92909216910184600481106130f8576130f86138bc565b01555b50505b80613108816138e8565b915050612f36565b505b8061311c816138e8565b915050612eb9565b508061312f816138e8565b915050612ead565b505050565b6040805160a081019091528060005b8152600060208201819052604082018190526060820181905260809091015290565b60405180608001604052806004906020820280368337509192915050565b6040805160e0810182526000808252602082015290810161314b61316d565b604051806101600160405280600b905b6131c261325d565b8152602001906001900390816131ba5790505090565b828054828255906000526020600020908101928215613213579160200282015b828111156132135782518255916020019190600101906131f8565b5061321f92915061327c565b5090565b604051806103c00160405280601e905b60408051808201909152600080825260208201528152602001906001900390816132335790505090565b604051806101600160405280600b906020820280368337509192915050565b5b8082111561321f576000815560010161327d565b6000806000606084860312156132a657600080fd5b505081359360208301359350604090920135919050565b634e487b7160e01b600052602160045260246000fd5b600681106132e3576132e36132bd565b9052565b6132f28282516132d3565b6020810151602083015260ff604082015116604083015260ff60608201511660608301526080810151151560808301525050565b60a0810161086b82846132e7565b60808101818360005b600481101561335e578151151583526020928301929091019060010161333d565b50505092915050565b60006020828403121561337957600080fd5b5035919050565b60ff8151168252602060ff81830151168184015260408201516040840160005b60048110156133bd578251825291830191908301906001016133a0565b505050506060810151151560c0838101919091526080820151151560e084015260a082015115156101008401520151151561012090910152565b6000602080830181845280855180835260408601915060408160051b87010192508387016000805b8381101561347e57888603603f19018552825180518088529088019088880190845b8181101561346857613454838551613380565b928a01926101409290920191600101613441565b509097505050938601939186019160010161341f565b509398975050505050505050565b600080600080608085870312156134a257600080fd5b5050823594602084013594506040840135936060013592509050565b600080604083850312156134d157600080fd5b50508035926020909101359150565b60008060008060008060c087890312156134f957600080fd5b8635955060208701359450604087013593506060870135925060808701356005811061352457600080fd5b8092505060a087013590509295509295509295565b60ff815116825260ff6020820151166020830152604081015160058110613562576135626132bd565b806040840152505050565b6020808252825182820181905260009190848201906040850190845b818110156135af5761359c838551613539565b9284019260609290920191600101613589565b50909695505050505050565b6060810161086b8284613539565b60ff8516815260a081016135f06020830186805160ff908116835260209182015116910152565b60608201939093526080015292915050565b6020808252825182820181905260009190848201906040850190845b818110156135af576136318385516132e7565b9284019260a0929092019160010161361e565b634e487b7160e01b600052604160045260246000fd5b60ff81168114611f1a57600080fd5b60006040828403121561367b57600080fd5b6040516040810181811067ffffffffffffffff821117156136ac57634e487b7160e01b600052604160045260246000fd5b60405290508082356136bd8161365a565b815260208301356136cd8161365a565b6020919091015292915050565b600080606083850312156136ed57600080fd5b823591506136fe8460208501613669565b90509250929050565b6040810161086b8284805160ff908116835260209182015116910152565b60a0810161373382886132d3565b85602083015260ff8516604083015260ff8416606083015282151560808301529695505050505050565b6000806040838503121561377057600080fd5b823561377b8161365a565b9150602083013561378b8161365a565b809150509250929050565b80356001600160a01b03811681146137ad57600080fd5b919050565b600080600080600060a086880312156137ca57600080fd5b6137d386613796565b94506137e160208701613796565b93506137ef60408701613796565b92506137fd60608701613796565b915061380b60808701613796565b90509295509295909350565b60006020828403121561382957600080fd5b61070582613796565b610140810161086b8284613380565b6000806080838503121561385457600080fd5b61385e8484613669565b91506136fe8460408501613669565b8015158114611f1a57600080fd5b6000806000806080858703121561389157600080fd5b84359350602085013592506040850135915060608501356138b18161386d565b939692955090935050565b634e487b7160e01b600052603260045260246000fd5b634e487b7160e01b600052601160045260246000fd5b6000600182016138fa576138fa6138d2565b5060010190565b6000600160ff1b8201613916576139166138d2565b5060000390565b8181038181111561086b5761086b6138d2565b808202811582820484141761086b5761086b6138d2565b634e487b7160e01b600052601260045260246000fd5b60008261396c5761396c613947565b500490565b8082018082111561086b5761086b6138d2565b8181036000831280158383131683831282161715610ad657610ad66138d2565b60ff828116828216039081111561086b5761086b6138d2565b60ff818116838216019081111561086b5761086b6138d2565b60005b838110156139f15781810151838201526020016139d9565b50506000910152565b72024b73b30b634b2103234b932b1ba34b7b71d1606d1b815260008251613a288160138501602087016139d6565b9190910160130192915050565b6020815260008251806020840152613a548160408501602087016139d6565b601f01601f19169190910160400192915050565b600181815b80851115613aa3578160001904821115613a8957613a896138d2565b80851615613a9657918102915b93841c9390800290613a6d565b509250929050565b600082613aba5750600161086b565b81613ac75750600061086b565b8160018114613add5760028114613ae757613b03565b600191505061086b565b60ff841115613af857613af86138d2565b50506001821b61086b565b5060208310610133831016604e8410600b8410161715613b26575081810a61086b565b613b308383613a68565b8060001904821115613b4457613b446138d2565b029392505050565b60006107058383613aab565b600082613b6757613b67613947565b500690565b600060ff821660ff8103613b8257613b826138d2565b60010192915050565b600082810b9082900b03607f198112607f8213171561086b5761086b6138d2565b600081613bbb57613bbb6138d2565b506000190190565b634e487b7160e01b600052603160045260246000fd5b600060208284031215613beb57600080fd5b5051919050565b600060a08284031215613c0457600080fd5b60405160a0810181811067ffffffffffffffff82111715613c3557634e487b7160e01b600052604160045260246000fd5b604052825160068110613c4757600080fd5b8152602083810151908201526040830151613c618161365a565b60408201526060830151613c748161365a565b60608201526080830151613c878161386d565b60808201529392505050565b6000600160ff1b8201613bbb57613bbb6138d2565b60006001600160ff1b0182016138fa576138fa6138d256fea2646970667358221220fc660cc716604c925974ef8464e45915317eff8156d492859bd83c938684697764736f6c63430008110033",
  "devdoc": {
    "kind": "dev",
    "methods": {
      "owner()": {
        "details": "Returns the address of the current owner."
      },
      "renounceOwnership()": {
        "details": "Leaves the contract without owner. It will not be possible to call `onlyOwner` functions anymore. Can only be called by the current owner. NOTE: Renouncing ownership will leave the contract without an owner, thereby removing any functionality that is only available to the owner."
      },
      "transferOwnership(address)": {
        "details": "Transfers ownership of the contract to a new account (`newOwner`). Can only be called by the current owner."
      }
    },
    "version": 1
  },
  "userdoc": {
    "kind": "user",
    "methods": {},
    "version": 1
  },
  "storageLayout": {
    "storage": [
      {
        "astId": 7,
        "contract": "contracts/BCMaps.sol:Maps",
        "label": "_owner",
        "offset": 0,
        "slot": "0",
        "type": "t_address"
      },
      {
        "astId": 11965,
        "contract": "contracts/BCMaps.sol:Maps",
        "label": "TODO_randomSeed",
        "offset": 0,
        "slot": "1",
        "type": "t_uint256"
      },
      {
        "astId": 7600,
        "contract": "contracts/BCMaps.sol:Maps",
        "label": "game",
        "offset": 0,
        "slot": "2",
        "type": "t_address"
      },
      {
        "astId": 7603,
        "contract": "contracts/BCMaps.sol:Maps",
        "label": "roomTiles",
        "offset": 0,
        "slot": "3",
        "type": "t_contract(RoomTileInterface)7594"
      },
      {
        "astId": 7605,
        "contract": "contracts/BCMaps.sol:Maps",
        "label": "actionsAddress",
        "offset": 0,
        "slot": "4",
        "type": "t_address"
      },
      {
        "astId": 7607,
        "contract": "contracts/BCMaps.sol:Maps",
        "label": "playersAddress",
        "offset": 0,
        "slot": "5",
        "type": "t_address"
      },
      {
        "astId": 7651,
        "contract": "contracts/BCMaps.sol:Maps",
        "label": "roomList",
        "offset": 0,
        "slot": "6",
        "type": "t_mapping(t_uint256,t_struct(RoomTile)11869_storage)"
      },
      {
        "astId": 7653,
        "contract": "contracts/BCMaps.sol:Maps",
        "label": "numRooms",
        "offset": 0,
        "slot": "7",
        "type": "t_uint256"
      },
      {
        "astId": 7657,
        "contract": "contracts/BCMaps.sol:Maps",
        "label": "maps",
        "offset": 0,
        "slot": "8",
        "type": "t_array(t_struct(Map)11800_storage)dyn_storage"
      }
    ],
    "types": {
      "t_address": {
        "encoding": "inplace",
        "label": "address",
        "numberOfBytes": "20"
      },
      "t_array(t_struct(Map)11800_storage)dyn_storage": {
        "base": "t_struct(Map)11800_storage",
        "encoding": "dynamic_array",
        "label": "struct BCTypes.Map[]",
        "numberOfBytes": "32"
      },
      "t_array(t_uint256)4_storage": {
        "base": "t_uint256",
        "encoding": "inplace",
        "label": "uint256[4]",
        "numberOfBytes": "128"
      },
      "t_array(t_uint256)dyn_storage": {
        "base": "t_uint256",
        "encoding": "dynamic_array",
        "label": "uint256[]",
        "numberOfBytes": "32"
      },
      "t_bool": {
        "encoding": "inplace",
        "label": "bool",
        "numberOfBytes": "1"
      },
      "t_contract(RoomTileInterface)7594": {
        "encoding": "inplace",
        "label": "contract RoomTileInterface",
        "numberOfBytes": "20"
      },
      "t_enum(BCEventType)11658": {
        "encoding": "inplace",
        "label": "enum BCTypes.BCEventType",
        "numberOfBytes": "1"
      },
      "t_enum(DoorStatus)11637": {
        "encoding": "inplace",
        "label": "enum BCTypes.DoorStatus",
        "numberOfBytes": "1"
      },
      "t_mapping(t_uint256,t_mapping(t_uint256,t_struct(GameTile)11767_storage))": {
        "encoding": "mapping",
        "key": "t_uint256",
        "label": "mapping(uint256 => mapping(uint256 => struct BCTypes.GameTile))",
        "numberOfBytes": "32",
        "value": "t_mapping(t_uint256,t_struct(GameTile)11767_storage)"
      },
      "t_mapping(t_uint256,t_struct(Door)11775_storage)": {
        "encoding": "mapping",
        "key": "t_uint256",
        "label": "mapping(uint256 => struct BCTypes.Door)",
        "numberOfBytes": "32",
        "value": "t_struct(Door)11775_storage"
      },
      "t_mapping(t_uint256,t_struct(GameTile)11767_storage)": {
        "encoding": "mapping",
        "key": "t_uint256",
        "label": "mapping(uint256 => struct BCTypes.GameTile)",
        "numberOfBytes": "32",
        "value": "t_struct(GameTile)11767_storage"
      },
      "t_mapping(t_uint256,t_struct(RoomTile)11869_storage)": {
        "encoding": "mapping",
        "key": "t_uint256",
        "label": "mapping(uint256 => struct BCTypes.RoomTile)",
        "numberOfBytes": "32",
        "value": "t_struct(RoomTile)11869_storage"
      },
      "t_struct(Door)11775_storage": {
        "encoding": "inplace",
        "label": "struct BCTypes.Door",
        "members": [
          {
            "astId": 11769,
            "contract": "contracts/BCMaps.sol:Maps",
            "label": "vsBreach",
            "offset": 0,
            "slot": "0",
            "type": "t_uint8"
          },
          {
            "astId": 11771,
            "contract": "contracts/BCMaps.sol:Maps",
            "label": "vsHack",
            "offset": 1,
            "slot": "0",
            "type": "t_uint8"
          },
          {
            "astId": 11774,
            "contract": "contracts/BCMaps.sol:Maps",
            "label": "status",
            "offset": 2,
            "slot": "0",
            "type": "t_enum(DoorStatus)11637"
          }
        ],
        "numberOfBytes": "32"
      },
      "t_struct(GameTile)11767_storage": {
        "encoding": "inplace",
        "label": "struct BCTypes.GameTile",
        "members": [
          {
            "astId": 11752,
            "contract": "contracts/BCMaps.sol:Maps",
            "label": "roomId",
            "offset": 0,
            "slot": "0",
            "type": "t_uint8"
          },
          {
            "astId": 11754,
            "contract": "contracts/BCMaps.sol:Maps",
            "label": "parentId",
            "offset": 1,
            "slot": "0",
            "type": "t_uint8"
          },
          {
            "astId": 11758,
            "contract": "contracts/BCMaps.sol:Maps",
            "label": "doors",
            "offset": 0,
            "slot": "1",
            "type": "t_array(t_uint256)4_storage"
          },
          {
            "astId": 11760,
            "contract": "contracts/BCMaps.sol:Maps",
            "label": "explored",
            "offset": 0,
            "slot": "5",
            "type": "t_bool"
          },
          {
            "astId": 11762,
            "contract": "contracts/BCMaps.sol:Maps",
            "label": "looted",
            "offset": 1,
            "slot": "5",
            "type": "t_bool"
          },
          {
            "astId": 11764,
            "contract": "contracts/BCMaps.sol:Maps",
            "label": "hasVent",
            "offset": 2,
            "slot": "5",
            "type": "t_bool"
          },
          {
            "astId": 11766,
            "contract": "contracts/BCMaps.sol:Maps",
            "label": "hasHazard",
            "offset": 3,
            "slot": "5",
            "type": "t_bool"
          }
        ],
        "numberOfBytes": "192"
      },
      "t_struct(Map)11800_storage": {
        "encoding": "inplace",
        "label": "struct BCTypes.Map",
        "members": [
          {
            "astId": 11778,
            "contract": "contracts/BCMaps.sol:Maps",
            "label": "unusedNormalRooms",
            "offset": 0,
            "slot": "0",
            "type": "t_array(t_uint256)dyn_storage"
          },
          {
            "astId": 11785,
            "contract": "contracts/BCMaps.sol:Maps",
            "label": "board",
            "offset": 0,
            "slot": "1",
            "type": "t_mapping(t_uint256,t_mapping(t_uint256,t_struct(GameTile)11767_storage))"
          },
          {
            "astId": 11790,
            "contract": "contracts/BCMaps.sol:Maps",
            "label": "doors",
            "offset": 0,
            "slot": "2",
            "type": "t_mapping(t_uint256,t_struct(Door)11775_storage)"
          },
          {
            "astId": 11792,
            "contract": "contracts/BCMaps.sol:Maps",
            "label": "numDoors",
            "offset": 0,
            "slot": "3",
            "type": "t_uint8"
          },
          {
            "astId": 11795,
            "contract": "contracts/BCMaps.sol:Maps",
            "label": "startPosition",
            "offset": 0,
            "slot": "4",
            "type": "t_struct(Position)11750_storage"
          },
          {
            "astId": 11797,
            "contract": "contracts/BCMaps.sol:Maps",
            "label": "mainReactorRow",
            "offset": 0,
            "slot": "5",
            "type": "t_uint256"
          },
          {
            "astId": 11799,
            "contract": "contracts/BCMaps.sol:Maps",
            "label": "mainReactorCol",
            "offset": 0,
            "slot": "6",
            "type": "t_uint256"
          }
        ],
        "numberOfBytes": "224"
      },
      "t_struct(Position)11750_storage": {
        "encoding": "inplace",
        "label": "struct BCTypes.Position",
        "members": [
          {
            "astId": 11747,
            "contract": "contracts/BCMaps.sol:Maps",
            "label": "row",
            "offset": 0,
            "slot": "0",
            "type": "t_uint8"
          },
          {
            "astId": 11749,
            "contract": "contracts/BCMaps.sol:Maps",
            "label": "col",
            "offset": 1,
            "slot": "0",
            "type": "t_uint8"
          }
        ],
        "numberOfBytes": "32"
      },
      "t_struct(RoomTile)11869_storage": {
        "encoding": "inplace",
        "label": "struct BCTypes.RoomTile",
        "members": [
          {
            "astId": 11860,
            "contract": "contracts/BCMaps.sol:Maps",
            "label": "eventType",
            "offset": 0,
            "slot": "0",
            "type": "t_enum(BCEventType)11658"
          },
          {
            "astId": 11862,
            "contract": "contracts/BCMaps.sol:Maps",
            "label": "eventNum",
            "offset": 0,
            "slot": "1",
            "type": "t_uint256"
          },
          {
            "astId": 11864,
            "contract": "contracts/BCMaps.sol:Maps",
            "label": "numItems",
            "offset": 0,
            "slot": "2",
            "type": "t_uint8"
          },
          {
            "astId": 11866,
            "contract": "contracts/BCMaps.sol:Maps",
            "label": "numData",
            "offset": 1,
            "slot": "2",
            "type": "t_uint8"
          },
          {
            "astId": 11868,
            "contract": "contracts/BCMaps.sol:Maps",
            "label": "sigDetected",
            "offset": 2,
            "slot": "2",
            "type": "t_bool"
          }
        ],
        "numberOfBytes": "96"
      },
      "t_uint256": {
        "encoding": "inplace",
        "label": "uint256",
        "numberOfBytes": "32"
      },
      "t_uint8": {
        "encoding": "inplace",
        "label": "uint8",
        "numberOfBytes": "1"
      }
    }
  }
}