{
  "address": "0x2C4C154697AFb6C356b417215DC8Fc57caF35Ef6",
  "abi": [
    {
      "inputs": [],
      "stateMutability": "nonpayable",
      "type": "constructor"
    },
    {
      "anonymous": false,
      "inputs": [
        {
          "indexed": true,
          "internalType": "address",
          "name": "previousOwner",
          "type": "address"
        },
        {
          "indexed": true,
          "internalType": "address",
          "name": "newOwner",
          "type": "address"
        }
      ],
      "name": "OwnershipTransferred",
      "type": "event"
    },
    {
      "inputs": [
        {
          "internalType": "uint256",
          "name": "_id",
          "type": "uint256"
        }
      ],
      "name": "extGetRoomTile",
      "outputs": [
        {
          "components": [
            {
              "internalType": "string",
              "name": "name",
              "type": "string"
            },
            {
              "internalType": "enum BCTypes.BCEventType",
              "name": "eventType",
              "type": "uint8"
            },
            {
              "internalType": "uint256",
              "name": "eventNum",
              "type": "uint256"
            },
            {
              "internalType": "uint8",
              "name": "numItems",
              "type": "uint8"
            },
            {
              "internalType": "uint8",
              "name": "numData",
              "type": "uint8"
            },
            {
              "internalType": "bool",
              "name": "hasHazard",
              "type": "bool"
            },
            {
              "internalType": "bool",
              "name": "sigDetected",
              "type": "bool"
            }
          ],
          "internalType": "struct BCTypes.RoomTile",
          "name": "",
          "type": "tuple"
        }
      ],
      "stateMutability": "view",
      "type": "function"
    },
    {
      "inputs": [],
      "name": "getNumRoomTiles",
      "outputs": [
        {
          "internalType": "uint256",
          "name": "",
          "type": "uint256"
        }
      ],
      "stateMutability": "view",
      "type": "function"
    },
    {
      "inputs": [],
      "name": "owner",
      "outputs": [
        {
          "internalType": "address",
          "name": "",
          "type": "address"
        }
      ],
      "stateMutability": "view",
      "type": "function"
    },
    {
      "inputs": [],
      "name": "renounceOwnership",
      "outputs": [],
      "stateMutability": "nonpayable",
      "type": "function"
    },
    {
      "inputs": [],
      "name": "returnAllRoomTiles",
      "outputs": [
        {
          "components": [
            {
              "internalType": "string",
              "name": "name",
              "type": "string"
            },
            {
              "internalType": "enum BCTypes.BCEventType",
              "name": "eventType",
              "type": "uint8"
            },
            {
              "internalType": "uint256",
              "name": "eventNum",
              "type": "uint256"
            },
            {
              "internalType": "uint8",
              "name": "numItems",
              "type": "uint8"
            },
            {
              "internalType": "uint8",
              "name": "numData",
              "type": "uint8"
            },
            {
              "internalType": "bool",
              "name": "hasHazard",
              "type": "bool"
            },
            {
              "internalType": "bool",
              "name": "sigDetected",
              "type": "bool"
            }
          ],
          "internalType": "struct BCTypes.RoomTile[]",
          "name": "",
          "type": "tuple[]"
        }
      ],
      "stateMutability": "view",
      "type": "function"
    },
    {
      "inputs": [
        {
          "internalType": "uint256",
          "name": "",
          "type": "uint256"
        }
      ],
      "name": "roomTiles",
      "outputs": [
        {
          "internalType": "string",
          "name": "name",
          "type": "string"
        },
        {
          "internalType": "enum BCTypes.BCEventType",
          "name": "eventType",
          "type": "uint8"
        },
        {
          "internalType": "uint256",
          "name": "eventNum",
          "type": "uint256"
        },
        {
          "internalType": "uint8",
          "name": "numItems",
          "type": "uint8"
        },
        {
          "internalType": "uint8",
          "name": "numData",
          "type": "uint8"
        },
        {
          "internalType": "bool",
          "name": "hasHazard",
          "type": "bool"
        },
        {
          "internalType": "bool",
          "name": "sigDetected",
          "type": "bool"
        }
      ],
      "stateMutability": "view",
      "type": "function"
    },
    {
      "inputs": [
        {
          "internalType": "address",
          "name": "_address",
          "type": "address"
        }
      ],
      "name": "setItemContractAddress",
      "outputs": [],
      "stateMutability": "nonpayable",
      "type": "function"
    },
    {
      "inputs": [],
      "name": "testExternalCallMint",
      "outputs": [],
      "stateMutability": "nonpayable",
      "type": "function"
    },
    {
      "inputs": [
        {
          "internalType": "address",
          "name": "newOwner",
          "type": "address"
        }
      ],
      "name": "transferOwnership",
      "outputs": [],
      "stateMutability": "nonpayable",
      "type": "function"
    }
  ],
  "transactionHash": "0x1f79931a84e90840a20b468e710a75068dbf1d26d2f21c08a2b007ff679e2e94",
  "args": [],
  "numDeployments": 6,
  "solcInputHash": "b9f60b6777da9311812fc48d4fd47d64",
  "bytecode": "0x60806040523480156200001157600080fd5b5062000032620000266200004860201b60201c565b6200005060201b60201c565b620000426200011460201b60201c565b62003225565b600033905090565b60008060009054906101000a900473ffffffffffffffffffffffffffffffffffffffff169050816000806101000a81548173ffffffffffffffffffffffffffffffffffffffff021916908373ffffffffffffffffffffffffffffffffffffffff1602179055508173ffffffffffffffffffffffffffffffffffffffff168173ffffffffffffffffffffffffffffffffffffffff167f8be0079c531659141344cd1fd0a4f28419497f9722a3daafe3b4186f6b6457e060405160405180910390a35050565b60026040518060e001604052806040518060400160405280600581526020017f537061636500000000000000000000000000000000000000000000000000000081525081526020016000600481111562000173576200017262003191565b5b815260200160008152602001600060ff168152602001600060ff1681526020016000151581526020016000151581525090806001815401808255809150506001900390600052602060002090600402016000909190919091506000820151816000019080519060200190620001ea929190620030e1565b5060208201518160010160006101000a81548160ff0219169083600481111562000219576200021862003191565b5b02179055506040820151816002015560608201518160030160006101000a81548160ff021916908360ff16021790555060808201518160030160016101000a81548160ff021916908360ff16021790555060a08201518160030160026101000a81548160ff02191690831515021790555060c08201518160030160036101000a81548160ff021916908315150217905550505060026040518060e001604052806040518060400160405280600f81526020017f556e6578706c6f72656420526f6f6d00000000000000000000000000000000008152508152602001600060048111156200030b576200030a62003191565b5b815260200160008152602001600060ff168152602001600060ff168152602001600015158152602001600015158152509080600181540180825580915050600190039060005260206000209060040201600090919091909150600082015181600001908051906020019062000382929190620030e1565b5060208201518160010160006101000a81548160ff02191690836004811115620003b157620003b062003191565b5b02179055506040820151816002015560608201518160030160006101000a81548160ff021916908360ff16021790555060808201518160030160016101000a81548160ff021916908360ff16021790555060a08201518160030160026101000a81548160ff02191690831515021790555060c08201518160030160036101000a81548160ff021916908315150217905550505060026040518060e001604052806040518060400160405280600a81526020017f446f6e676861696a697500000000000000000000000000000000000000000000815250815260200160006004811115620004a357620004a262003191565b5b815260200160ff8152602001600060ff168152602001600060ff16815260200160001515815260200160001515815250908060018154018082558091505060019003906000526020600020906004020160009091909190915060008201518160000190805190602001906200051a929190620030e1565b5060208201518160010160006101000a81548160ff0219169083600481111562000549576200054862003191565b5b02179055506040820151816002015560608201518160030160006101000a81548160ff021916908360ff16021790555060808201518160030160016101000a81548160ff021916908360ff16021790555060a08201518160030160026101000a81548160ff02191690831515021790555060c08201518160030160036101000a81548160ff021916908315150217905550505060026040518060e001604052806040518060400160405280600681526020017f41726d6f727900000000000000000000000000000000000000000000000000008152508152602001600360048111156200063b576200063a62003191565b5b815260200160008152602001600360ff168152602001600060ff1681526020016000151581526020016001151581525090806001815401808255809150506001900390600052602060002090600402016000909190919091506000820151816000019080519060200190620006b2929190620030e1565b5060208201518160010160006101000a81548160ff02191690836004811115620006e157620006e062003191565b5b02179055506040820151816002015560608201518160030160006101000a81548160ff021916908360ff16021790555060808201518160030160016101000a81548160ff021916908360ff16021790555060a08201518160030160026101000a81548160ff02191690831515021790555060c08201518160030160036101000a81548160ff021916908315150217905550505060026040518060e001604052806040518060400160405280601181526020017f417578696c696172792052656163746f720000000000000000000000000000008152508152602001600480811115620007d257620007d162003191565b5b815260200160008152602001600060ff168152602001600160ff168152602001600015158152602001600015158152509080600181540180825580915050600190039060005260206000209060040201600090919091909150600082015181600001908051906020019062000849929190620030e1565b5060208201518160010160006101000a81548160ff0219169083600481111562000878576200087762003191565b5b02179055506040820151816002015560608201518160030160006101000a81548160ff021916908360ff16021790555060808201518160030160016101000a81548160ff021916908360ff16021790555060a08201518160030160026101000a81548160ff02191690831515021790555060c08201518160030160036101000a81548160ff021916908315150217905550505060026040518060e001604052806040518060400160405280601081526020017f42726561636865642052656163746f7200000000000000000000000000000000815250815260200160048081111562000969576200096862003191565b5b815260200160018152602001600060ff168152602001600060ff1681526020016001151581526020016001151581525090806001815401808255809150506001900390600052602060002090600402016000909190919091506000820151816000019080519060200190620009e0929190620030e1565b5060208201518160010160006101000a81548160ff0219169083600481111562000a0f5762000a0e62003191565b5b02179055506040820151816002015560608201518160030160006101000a81548160ff021916908360ff16021790555060808201518160030160016101000a81548160ff021916908360ff16021790555060a08201518160030160026101000a81548160ff02191690831515021790555060c08201518160030160036101000a81548160ff021916908315150217905550505060026040518060e001604052806040518060400160405280600681526020017f4272696467650000000000000000000000000000000000000000000000000000815250815260200160048081111562000b005762000aff62003191565b5b815260200160008152602001600160ff168152602001600260ff168152602001600015158152602001600115158152509080600181540180825580915050600190039060005260206000209060040201600090919091909150600082015181600001908051906020019062000b77929190620030e1565b5060208201518160010160006101000a81548160ff0219169083600481111562000ba65762000ba562003191565b5b02179055506040820151816002015560608201518160030160006101000a81548160ff021916908360ff16021790555060808201518160030160016101000a81548160ff021916908360ff16021790555060a08201518160030160026101000a81548160ff02191690831515021790555060c08201518160030160036101000a81548160ff021916908315150217905550505060026040518060e001604052806040518060400160405280600881526020017f427567204e65737400000000000000000000000000000000000000000000000081525081526020016001600481111562000c985762000c9762003191565b5b815260200160028152602001600060ff168152602001600060ff168152602001600015158152602001600015158152509080600181540180825580915050600190039060005260206000209060040201600090919091909150600082015181600001908051906020019062000d0f929190620030e1565b5060208201518160010160006101000a81548160ff0219169083600481111562000d3e5762000d3d62003191565b5b02179055506040820151816002015560608201518160030160006101000a81548160ff021916908360ff16021790555060808201518160030160016101000a81548160ff021916908360ff16021790555060a08201518160030160026101000a81548160ff02191690831515021790555060c08201518160030160036101000a81548160ff021916908315150217905550505060026040518060e001604052806040518060400160405280601281526020017f4361707461696e2773205175617274657273000000000000000000000000000081525081526020016002600481111562000e305762000e2f62003191565b5b815260200160008152602001600160ff168152602001600260ff168152602001600015158152602001600115158152509080600181540180825580915050600190039060005260206000209060040201600090919091909150600082015181600001908051906020019062000ea7929190620030e1565b5060208201518160010160006101000a81548160ff0219169083600481111562000ed65762000ed562003191565b5b02179055506040820151816002015560608201518160030160006101000a81548160ff021916908360ff16021790555060808201518160030160016101000a81548160ff021916908360ff16021790555060a08201518160030160026101000a81548160ff02191690831515021790555060c08201518160030160036101000a81548160ff021916908315150217905550505060026040518060e001604052806040518060400160405280600a81526020017f436172676f20486f6c640000000000000000000000000000000000000000000081525081526020016003600481111562000fc85762000fc762003191565b5b815260200160008152602001600160ff168152602001600060ff16815260200160001515815260200160001515815250908060018154018082558091505060019003906000526020600020906004020160009091909190915060008201518160000190805190602001906200103f929190620030e1565b5060208201518160010160006101000a81548160ff021916908360048111156200106e576200106d62003191565b5b02179055506040820151816002015560608201518160030160006101000a81548160ff021916908360ff16021790555060808201518160030160016101000a81548160ff021916908360ff16021790555060a08201518160030160026101000a81548160ff02191690831515021790555060c08201518160030160036101000a81548160ff021916908315150217905550505060026040518060e001604052806040518060400160405280600a81526020017f436c6f6e6520526f6f6d0000000000000000000000000000000000000000000081525081526020016002600481111562001160576200115f62003191565b5b815260200160008152602001600060ff168152602001600160ff1681526020016000151581526020016000151581525090806001815401808255809150506001900390600052602060002090600402016000909190919091506000820151816000019080519060200190620011d7929190620030e1565b5060208201518160010160006101000a81548160ff0219169083600481111562001206576200120562003191565b5b02179055506040820151816002015560608201518160030160006101000a81548160ff021916908360ff16021790555060808201518160030160016101000a81548160ff021916908360ff16021790555060a08201518160030160026101000a81548160ff02191690831515021790555060c08201518160030160036101000a81548160ff021916908315150217905550505060026040518060e001604052806040518060400160405280601281526020017f436f6d7075746572204d61696e6672616d650000000000000000000000000000815250815260200160016004811115620012f857620012f762003191565b5b815260200160008152602001600060ff168152602001600360ff16815260200160001515815260200160011515815250908060018154018082558091505060019003906000526020600020906004020160009091909190915060008201518160000190805190602001906200136f929190620030e1565b5060208201518160010160006101000a81548160ff021916908360048111156200139e576200139d62003191565b5b02179055506040820151816002015560608201518160030160006101000a81548160ff021916908360ff16021790555060808201518160030160016101000a81548160ff021916908360ff16021790555060a08201518160030160026101000a81548160ff02191690831515021790555060c08201518160030160036101000a81548160ff021916908315150217905550505060026040518060e001604052806040518060400160405280600a81526020017f43726f7373726f6164730000000000000000000000000000000000000000000081525081526020016003600481111562001490576200148f62003191565b5b815260200160038152602001600060ff168152602001600060ff168152602001600015158152602001600115158152509080600181540180825580915050600190039060005260206000209060040201600090919091909150600082015181600001908051906020019062001507929190620030e1565b5060208201518160010160006101000a81548160ff0219169083600481111562001536576200153562003191565b5b02179055506040820151816002015560608201518160030160006101000a81548160ff021916908360ff16021790555060808201518160030160016101000a81548160ff021916908360ff16021790555060a08201518160030160026101000a81548160ff02191690831515021790555060c08201518160030160036101000a81548160ff021916908315150217905550505060026040518060e001604052806040518060400160405280601381526020017f456e67696e656572696e672043617477616c6b0000000000000000000000000081525081526020016000600481111562001628576200162762003191565b5b815260200160008152602001600060ff168152602001600060ff16815260200160001515815260200160001515815250908060018154018082558091505060019003906000526020600020906004020160009091909190915060008201518160000190805190602001906200169f929190620030e1565b5060208201518160010160006101000a81548160ff02191690836004811115620016ce57620016cd62003191565b5b02179055506040820151816002015560608201518160030160006101000a81548160ff021916908360ff16021790555060808201518160030160016101000a81548160ff021916908360ff16021790555060a08201518160030160026101000a81548160ff02191690831515021790555060c08201518160030160036101000a81548160ff021916908315150217905550505060026040518060e001604052806040518060400160405280600b81526020017f45736361706520506f6473000000000000000000000000000000000000000000815250815260200160026004811115620017c057620017bf62003191565b5b815260200160008152602001600160ff168152602001600160ff168152602001600015158152602001600015158152509080600181540180825580915050600190039060005260206000209060040201600090919091909150600082015181600001908051906020019062001837929190620030e1565b5060208201518160010160006101000a81548160ff0219169083600481111562001866576200186562003191565b5b02179055506040820151816002015560608201518160030160006101000a81548160ff021916908360ff16021790555060808201518160030160016101000a81548160ff021916908360ff16021790555060a08201518160030160026101000a81548160ff02191690831515021790555060c08201518160030160036101000a81548160ff021916908315150217905550505060026040518060e001604052806040518060400160405280600681526020017f47616c6c6579000000000000000000000000000000000000000000000000000081525081526020016001600481111562001958576200195762003191565b5b815260200160008152602001600160ff168152602001600060ff1681526020016000151581526020016000151581525090806001815401808255809150506001900390600052602060002090600402016000909190919091506000820151816000019080519060200190620019cf929190620030e1565b5060208201518160010160006101000a81548160ff02191690836004811115620019fe57620019fd62003191565b5b02179055506040820151816002015560608201518160030160006101000a81548160ff021916908360ff16021790555060808201518160030160016101000a81548160ff021916908360ff16021790555060a08201518160030160026101000a81548160ff02191690831515021790555060c08201518160030160036101000a81548160ff021916908315150217905550505060026040518060e001604052806040518060400160405280600b81526020017f48756c6c2042726561636800000000000000000000000000000000000000000081525081526020016002600481111562001af05762001aef62003191565b5b815260200160008152602001600060ff168152602001600060ff168152602001600115158152602001600115158152509080600181540180825580915050600190039060005260206000209060040201600090919091909150600082015181600001908051906020019062001b67929190620030e1565b5060208201518160010160006101000a81548160ff0219169083600481111562001b965762001b9562003191565b5b02179055506040820151816002015560608201518160030160006101000a81548160ff021916908360ff16021790555060808201518160030160016101000a81548160ff021916908360ff16021790555060a08201518160030160026101000a81548160ff02191690831515021790555060c08201518160030160036101000a81548160ff021916908315150217905550505060026040518060e001604052806040518060400160405280600f81526020017f4c6f6e656c7920436f727269646f72000000000000000000000000000000000081525081526020016000600481111562001c885762001c8762003191565b5b815260200160008152602001600160ff168152602001600060ff168152602001600015158152602001600015158152509080600181540180825580915050600190039060005260206000209060040201600090919091909150600082015181600001908051906020019062001cff929190620030e1565b5060208201518160010160006101000a81548160ff0219169083600481111562001d2e5762001d2d62003191565b5b02179055506040820151816002015560608201518160030160006101000a81548160ff021916908360ff16021790555060808201518160030160016101000a81548160ff021916908360ff16021790555060a08201518160030160026101000a81548160ff02191690831515021790555060c08201518160030160036101000a81548160ff021916908315150217905550505060026040518060e001604052806040518060400160405280600c81526020017f4d61696e2052656163746f72000000000000000000000000000000000000000081525081526020016001600481111562001e205762001e1f62003191565b5b815260200160008152602001600060ff168152602001600160ff168152602001600015158152602001600115158152509080600181540180825580915050600190039060005260206000209060040201600090919091909150600082015181600001908051906020019062001e97929190620030e1565b5060208201518160010160006101000a81548160ff0219169083600481111562001ec65762001ec562003191565b5b02179055506040820151816002015560608201518160030160006101000a81548160ff021916908360ff16021790555060808201518160030160016101000a81548160ff021916908360ff16021790555060a08201518160030160026101000a81548160ff02191690831515021790555060c08201518160030160036101000a81548160ff021916908315150217905550505060026040518060e001604052806040518060400160405280600681526020017f4d65646261790000000000000000000000000000000000000000000000000000815250815260200160048081111562001fb75762001fb662003191565b5b815260200160008152602001600060ff168152602001600060ff16815260200160001515815260200160001515815250908060018154018082558091505060019003906000526020600020906004020160009091909190915060008201518160000190805190602001906200202e929190620030e1565b5060208201518160010160006101000a81548160ff021916908360048111156200205d576200205c62003191565b5b02179055506040820151816002015560608201518160030160006101000a81548160ff021916908360ff16021790555060808201518160030160016101000a81548160ff021916908360ff16021790555060a08201518160030160026101000a81548160ff02191690831515021790555060c08201518160030160036101000a81548160ff021916908315150217905550505060026040518060e001604052806040518060400160405280601081526020017f4f62736572766174696f6e20526f6f6d000000000000000000000000000000008152508152602001600260048111156200214f576200214e62003191565b5b815260200160008152602001600060ff168152602001600160ff1681526020016000151581526020016000151581525090806001815401808255809150506001900390600052602060002090600402016000909190919091506000820151816000019080519060200190620021c6929190620030e1565b5060208201518160010160006101000a81548160ff02191690836004811115620021f557620021f462003191565b5b02179055506040820151816002015560608201518160030160006101000a81548160ff021916908360ff16021790555060808201518160030160016101000a81548160ff021916908360ff16021790555060a08201518160030160026101000a81548160ff02191690831515021790555060c08201518160030160036101000a81548160ff021916908315150217905550505060026040518060e001604052806040518060400160405280600e81526020017f4f66666963657227732042756e6b000000000000000000000000000000000000815250815260200160026004811115620022e757620022e662003191565b5b815260200160008152602001600160ff168152602001600060ff16815260200160001515815260200160001515815250908060018154018082558091505060019003906000526020600020906004020160009091909190915060008201518160000190805190602001906200235e929190620030e1565b5060208201518160010160006101000a81548160ff021916908360048111156200238d576200238c62003191565b5b02179055506040820151816002015560608201518160030160006101000a81548160ff021916908360ff16021790555060808201518160030160016101000a81548160ff021916908360ff16021790555060a08201518160030160026101000a81548160ff02191690831515021790555060c08201518160030160036101000a81548160ff021916908315150217905550505060026040518060e001604052806040518060400160405280600681526020017f50616e74727900000000000000000000000000000000000000000000000000008152508152602001600360048111156200247f576200247e62003191565b5b815260200160008152602001600060ff168152602001600160ff1681526020016000151581526020016000151581525090806001815401808255809150506001900390600052602060002090600402016000909190919091506000820151816000019080519060200190620024f6929190620030e1565b5060208201518160010160006101000a81548160ff0219169083600481111562002525576200252462003191565b5b02179055506040820151816002015560608201518160030160006101000a81548160ff021916908360ff16021790555060808201518160030160016101000a81548160ff021916908360ff16021790555060a08201518160030160026101000a81548160ff02191690831515021790555060c08201518160030160036101000a81548160ff021916908315150217905550505060026040518060e001604052806040518060400160405280600981526020017f50756d7020526f6f6d000000000000000000000000000000000000000000000081525081526020016000600481111562002617576200261662003191565b5b815260200160008152602001600160ff168152602001600060ff16815260200160001515815260200160001515815250908060018154018082558091505060019003906000526020600020906004020160009091909190915060008201518160000190805190602001906200268e929190620030e1565b5060208201518160010160006101000a81548160ff02191690836004811115620026bd57620026bc62003191565b5b02179055506040820151816002015560608201518160030160006101000a81548160ff021916908360ff16021790555060808201518160030160016101000a81548160ff021916908360ff16021790555060a08201518160030160026101000a81548160ff02191690831515021790555060c08201518160030160036101000a81548160ff021916908315150217905550505060026040518060e001604052806040518060400160405280600f81526020017f52656163746f7220436f6e74726f6c0000000000000000000000000000000000815250815260200160036004811115620027af57620027ae62003191565b5b815260200160008152602001600060ff168152602001600160ff168152602001600015158152602001600015158152509080600181540180825580915050600190039060005260206000209060040201600090919091909150600082015181600001908051906020019062002826929190620030e1565b5060208201518160010160006101000a81548160ff0219169083600481111562002855576200285462003191565b5b02179055506040820151816002015560608201518160030160006101000a81548160ff021916908360ff16021790555060808201518160030160016101000a81548160ff021916908360ff16021790555060a08201518160030160026101000a81548160ff02191690831515021790555060c08201518160030160036101000a81548160ff021916908315150217905550505060026040518060e001604052806040518060400160405280600f81526020017f53636176656e67657227732044656e000000000000000000000000000000000081525081526020016003600481111562002947576200294662003191565b5b815260200160008152602001600160ff168152602001600060ff1681526020016000151581526020016000151581525090806001815401808255809150506001900390600052602060002090600402016000909190919091506000820151816000019080519060200190620029be929190620030e1565b5060208201518160010160006101000a81548160ff02191690836004811115620029ed57620029ec62003191565b5b02179055506040820151816002015560608201518160030160006101000a81548160ff021916908360ff16021790555060808201518160030160016101000a81548160ff021916908360ff16021790555060a08201518160030160026101000a81548160ff02191690831515021790555060c08201518160030160036101000a81548160ff021916908315150217905550505060026040518060e001604052806040518060400160405280600881526020017f5363756c6c65727900000000000000000000000000000000000000000000000081525081526020016001600481111562002adf5762002ade62003191565b5b815260200160008152602001600160ff168152602001600060ff168152602001600015158152602001600015158152509080600181540180825580915050600190039060005260206000209060040201600090919091909150600082015181600001908051906020019062002b56929190620030e1565b5060208201518160010160006101000a81548160ff0219169083600481111562002b855762002b8462003191565b5b02179055506040820151816002015560608201518160030160006101000a81548160ff021916908360ff16021790555060808201518160030160016101000a81548160ff021916908360ff16021790555060a08201518160030160026101000a81548160ff02191690831515021790555060c08201518160030160036101000a81548160ff021916908315150217905550505060026040518060e001604052806040518060400160405280600781526020017f53686f776572730000000000000000000000000000000000000000000000000081525081526020016001600481111562002c775762002c7662003191565b5b815260200160008152602001600060ff168152602001600060ff168152602001600015158152602001600015158152509080600181540180825580915050600190039060005260206000209060040201600090919091909150600082015181600001908051906020019062002cee929190620030e1565b5060208201518160010160006101000a81548160ff0219169083600481111562002d1d5762002d1c62003191565b5b02179055506040820151816002015560608201518160030160006101000a81548160ff021916908360ff16021790555060808201518160030160016101000a81548160ff021916908360ff16021790555060a08201518160030160026101000a81548160ff02191690831515021790555060c08201518160030160036101000a81548160ff021916908315150217905550505060026040518060e001604052806040518060400160405280600c81526020017f546f727065646f2054756265000000000000000000000000000000000000000081525081526020016001600481111562002e0f5762002e0e62003191565b5b815260200160008152602001600060ff168152602001600060ff168152602001600015158152602001600015158152509080600181540180825580915050600190039060005260206000209060040201600090919091909150600082015181600001908051906020019062002e86929190620030e1565b5060208201518160010160006101000a81548160ff0219169083600481111562002eb55762002eb462003191565b5b02179055506040820151816002015560608201518160030160006101000a81548160ff021916908360ff16021790555060808201518160030160016101000a81548160ff021916908360ff16021790555060a08201518160030160026101000a81548160ff02191690831515021790555060c08201518160030160036101000a81548160ff021916908315150217905550505060026040518060e001604052806040518060400160405280600f81526020017f547261736820436f6d706163746f720000000000000000000000000000000000815250815260200160048081111562002fa65762002fa562003191565b5b815260200160008152602001600060ff168152602001600060ff16815260200160001515815260200160011515815250908060018154018082558091505060019003906000526020600020906004020160009091909190915060008201518160000190805190602001906200301d929190620030e1565b5060208201518160010160006101000a81548160ff021916908360048111156200304c576200304b62003191565b5b02179055506040820151816002015560608201518160030160006101000a81548160ff021916908360ff16021790555060808201518160030160016101000a81548160ff021916908360ff16021790555060a08201518160030160026101000a81548160ff02191690831515021790555060c08201518160030160036101000a81548160ff0219169083151502179055505050565b828054620030ef90620031ef565b90600052602060002090601f0160209004810192826200311357600085556200315f565b82601f106200312e57805160ff19168380011785556200315f565b828001600101855582156200315f579182015b828111156200315e57825182559160200191906001019062003141565b5b5090506200316e919062003172565b5090565b5b808211156200318d57600081600090555060010162003173565b5090565b7f4e487b7100000000000000000000000000000000000000000000000000000000600052602160045260246000fd5b7f4e487b7100000000000000000000000000000000000000000000000000000000600052602260045260246000fd5b600060028204905060018216806200320857607f821691505b602082108114156200321f576200321e620031c0565b5b50919050565b6111de80620032356000396000f3fe608060405234801561001057600080fd5b50600436106100935760003560e01c806382753ebe1161006657806382753ebe146100e85780638da5cb5b14610118578063c5cda1b714610136578063c7a1d8e514610152578063f2fde38b1461018857610093565b806317fa73471461009857806338fdf0bd146100b6578063480f23e1146100d4578063715018a6146100de575b600080fd5b6100a06101a4565b6040516100ad9190610c69565b60405180910390f35b6100be6103c1565b6040516100cb9190610c9a565b60405180910390f35b6100dc6103ce565b005b6100e661045d565b005b61010260048036038101906100fd9190610ce6565b610471565b60405161010f9190610daf565b60405180910390f35b6101206105f4565b60405161012d9190610e12565b60405180910390f35b610150600480360381019061014b9190610e59565b61061d565b005b61016c60048036038101906101679190610ce6565b610669565b60405161017f9796959493929190610efd565b60405180910390f35b6101a2600480360381019061019d9190610e59565b610784565b005b60606000600280549050905060008167ffffffffffffffff8111156101cc576101cb610f73565b5b60405190808252806020026020018201604052801561020557816020015b6101f2610952565b8152602001906001900390816101ea5790505b50905060005b828110156103b8576002818154811061022757610226610fa2565b5b90600052602060002090600402016040518060e001604052908160008201805461025090611000565b80601f016020809104026020016040519081016040528092919081815260200182805461027c90611000565b80156102c95780601f1061029e576101008083540402835291602001916102c9565b820191906000526020600020905b8154815290600101906020018083116102ac57829003601f168201915b505050505081526020016001820160009054906101000a900460ff1660048111156102f7576102f6610a70565b5b600481111561030957610308610a70565b5b8152602001600282015481526020016003820160009054906101000a900460ff1660ff1660ff1681526020016003820160019054906101000a900460ff1660ff1660ff1681526020016003820160029054906101000a900460ff161515151581526020016003820160039054906101000a900460ff16151515158152505082828151811061039a57610399610fa2565b5b602002602001018190525080806103b090611061565b91505061020b565b50809250505090565b6000600280549050905090565b600160009054906101000a900473ffffffffffffffffffffffffffffffffffffffff1673ffffffffffffffffffffffffffffffffffffffff1663abbcbd6e336040518263ffffffff1660e01b81526004016104299190610e12565b600060405180830381600087803b15801561044357600080fd5b505af1158015610457573d6000803e3d6000fd5b50505050565b610465610808565b61046f6000610886565b565b610479610952565b6002828154811061048d5761048c610fa2565b5b90600052602060002090600402016040518060e00160405290816000820180546104b690611000565b80601f01602080910402602001604051908101604052809291908181526020018280546104e290611000565b801561052f5780601f106105045761010080835404028352916020019161052f565b820191906000526020600020905b81548152906001019060200180831161051257829003601f168201915b505050505081526020016001820160009054906101000a900460ff16600481111561055d5761055c610a70565b5b600481111561056f5761056e610a70565b5b8152602001600282015481526020016003820160009054906101000a900460ff1660ff1660ff1681526020016003820160019054906101000a900460ff1660ff1660ff1681526020016003820160029054906101000a900460ff161515151581526020016003820160039054906101000a900460ff1615151515815250509050919050565b60008060009054906101000a900473ffffffffffffffffffffffffffffffffffffffff16905090565b610625610808565b80600160006101000a81548173ffffffffffffffffffffffffffffffffffffffff021916908373ffffffffffffffffffffffffffffffffffffffff16021790555050565b6002818154811061067957600080fd5b906000526020600020906004020160009150905080600001805461069c90611000565b80601f01602080910402602001604051908101604052809291908181526020018280546106c890611000565b80156107155780601f106106ea57610100808354040283529160200191610715565b820191906000526020600020905b8154815290600101906020018083116106f857829003601f168201915b5050505050908060010160009054906101000a900460ff16908060020154908060030160009054906101000a900460ff16908060030160019054906101000a900460ff16908060030160029054906101000a900460ff16908060030160039054906101000a900460ff16905087565b61078c610808565b600073ffffffffffffffffffffffffffffffffffffffff168173ffffffffffffffffffffffffffffffffffffffff1614156107fc576040517f08c379a00000000000000000000000000000000000000000000000000000000081526004016107f39061111c565b60405180910390fd5b61080581610886565b50565b61081061094a565b73ffffffffffffffffffffffffffffffffffffffff1661082e6105f4565b73ffffffffffffffffffffffffffffffffffffffff1614610884576040517f08c379a000000000000000000000000000000000000000000000000000000000815260040161087b90611188565b60405180910390fd5b565b60008060009054906101000a900473ffffffffffffffffffffffffffffffffffffffff169050816000806101000a81548173ffffffffffffffffffffffffffffffffffffffff021916908373ffffffffffffffffffffffffffffffffffffffff1602179055508173ffffffffffffffffffffffffffffffffffffffff168173ffffffffffffffffffffffffffffffffffffffff167f8be0079c531659141344cd1fd0a4f28419497f9722a3daafe3b4186f6b6457e060405160405180910390a35050565b600033905090565b6040518060e00160405280606081526020016000600481111561097857610977610a70565b5b815260200160008152602001600060ff168152602001600060ff1681526020016000151581526020016000151581525090565b600081519050919050565b600082825260208201905092915050565b6000819050602082019050919050565b600081519050919050565b600082825260208201905092915050565b60005b83811015610a115780820151818401526020810190506109f6565b83811115610a20576000848401525b50505050565b6000601f19601f8301169050919050565b6000610a42826109d7565b610a4c81856109e2565b9350610a5c8185602086016109f3565b610a6581610a26565b840191505092915050565b7f4e487b7100000000000000000000000000000000000000000000000000000000600052602160045260246000fd5b60058110610ab057610aaf610a70565b5b50565b6000819050610ac182610a9f565b919050565b6000610ad182610ab3565b9050919050565b610ae181610ac6565b82525050565b6000819050919050565b610afa81610ae7565b82525050565b600060ff82169050919050565b610b1681610b00565b82525050565b60008115159050919050565b610b3181610b1c565b82525050565b600060e0830160008301518482036000860152610b548282610a37565b9150506020830151610b696020860182610ad8565b506040830151610b7c6040860182610af1565b506060830151610b8f6060860182610b0d565b506080830151610ba26080860182610b0d565b5060a0830151610bb560a0860182610b28565b5060c0830151610bc860c0860182610b28565b508091505092915050565b6000610bdf8383610b37565b905092915050565b6000602082019050919050565b6000610bff826109ab565b610c0981856109b6565b935083602082028501610c1b856109c7565b8060005b85811015610c575784840389528151610c388582610bd3565b9450610c4383610be7565b925060208a01995050600181019050610c1f565b50829750879550505050505092915050565b60006020820190508181036000830152610c838184610bf4565b905092915050565b610c9481610ae7565b82525050565b6000602082019050610caf6000830184610c8b565b92915050565b600080fd5b610cc381610ae7565b8114610cce57600080fd5b50565b600081359050610ce081610cba565b92915050565b600060208284031215610cfc57610cfb610cb5565b5b6000610d0a84828501610cd1565b91505092915050565b600060e0830160008301518482036000860152610d308282610a37565b9150506020830151610d456020860182610ad8565b506040830151610d586040860182610af1565b506060830151610d6b6060860182610b0d565b506080830151610d7e6080860182610b0d565b5060a0830151610d9160a0860182610b28565b5060c0830151610da460c0860182610b28565b508091505092915050565b60006020820190508181036000830152610dc98184610d13565b905092915050565b600073ffffffffffffffffffffffffffffffffffffffff82169050919050565b6000610dfc82610dd1565b9050919050565b610e0c81610df1565b82525050565b6000602082019050610e276000830184610e03565b92915050565b610e3681610df1565b8114610e4157600080fd5b50565b600081359050610e5381610e2d565b92915050565b600060208284031215610e6f57610e6e610cb5565b5b6000610e7d84828501610e44565b91505092915050565b600082825260208201905092915050565b6000610ea2826109d7565b610eac8185610e86565b9350610ebc8185602086016109f3565b610ec581610a26565b840191505092915050565b610ed981610ac6565b82525050565b610ee881610b00565b82525050565b610ef781610b1c565b82525050565b600060e0820190508181036000830152610f17818a610e97565b9050610f266020830189610ed0565b610f336040830188610c8b565b610f406060830187610edf565b610f4d6080830186610edf565b610f5a60a0830185610eee565b610f6760c0830184610eee565b98975050505050505050565b7f4e487b7100000000000000000000000000000000000000000000000000000000600052604160045260246000fd5b7f4e487b7100000000000000000000000000000000000000000000000000000000600052603260045260246000fd5b7f4e487b7100000000000000000000000000000000000000000000000000000000600052602260045260246000fd5b6000600282049050600182168061101857607f821691505b6020821081141561102c5761102b610fd1565b5b50919050565b7f4e487b7100000000000000000000000000000000000000000000000000000000600052601160045260246000fd5b600061106c82610ae7565b91507fffffffffffffffffffffffffffffffffffffffffffffffffffffffffffffffff82141561109f5761109e611032565b5b600182019050919050565b7f4f776e61626c653a206e6577206f776e657220697320746865207a65726f206160008201527f6464726573730000000000000000000000000000000000000000000000000000602082015250565b6000611106602683610e86565b9150611111826110aa565b604082019050919050565b60006020820190508181036000830152611135816110f9565b9050919050565b7f4f776e61626c653a2063616c6c6572206973206e6f7420746865206f776e6572600082015250565b6000611172602083610e86565b915061117d8261113c565b602082019050919050565b600060208201905081810360008301526111a181611165565b905091905056fea26469706673582212202d2ae33352fc0c95b4da5edfdf2109955a64f7662fc3b541d6d27723e44fb38a64736f6c634300080c0033",
  "devdoc": {
    "kind": "dev",
    "methods": {
      "owner()": {
        "details": "Returns the address of the current owner."
      },
      "renounceOwnership()": {
        "details": "Leaves the contract without owner. It will not be possible to call `onlyOwner` functions anymore. Can only be called by the current owner. NOTE: Renouncing ownership will leave the contract without an owner, thereby removing any functionality that is only available to the owner."
      },
      "transferOwnership(address)": {
        "details": "Transfers ownership of the contract to a new account (`newOwner`). Can only be called by the current owner."
      }
    },
    "version": 1
  },
  "userdoc": {
    "kind": "user",
    "methods": {},
    "version": 1
  },
  "storageLayout": {
    "storage": [
      {
        "astId": 7,
        "contract": "contracts/RoomTiles.sol:RoomTiles",
        "label": "_owner",
        "offset": 0,
        "slot": "0",
        "type": "t_address"
      },
      {
        "astId": 6151,
        "contract": "contracts/RoomTiles.sol:RoomTiles",
        "label": "itemContract",
        "offset": 0,
        "slot": "1",
        "type": "t_contract(ItemInterface)6146"
      },
      {
        "astId": 6155,
        "contract": "contracts/RoomTiles.sol:RoomTiles",
        "label": "roomTiles",
        "offset": 0,
        "slot": "2",
        "type": "t_array(t_struct(RoomTile)5739_storage)dyn_storage"
      }
    ],
    "types": {
      "t_address": {
        "encoding": "inplace",
        "label": "address",
        "numberOfBytes": "20"
      },
      "t_array(t_struct(RoomTile)5739_storage)dyn_storage": {
        "base": "t_struct(RoomTile)5739_storage",
        "encoding": "dynamic_array",
        "label": "struct BCTypes.RoomTile[]",
        "numberOfBytes": "32"
      },
      "t_bool": {
        "encoding": "inplace",
        "label": "bool",
        "numberOfBytes": "1"
      },
      "t_contract(ItemInterface)6146": {
        "encoding": "inplace",
        "label": "contract ItemInterface",
        "numberOfBytes": "20"
      },
      "t_enum(BCEventType)5723": {
        "encoding": "inplace",
        "label": "enum BCTypes.BCEventType",
        "numberOfBytes": "1"
      },
      "t_string_storage": {
        "encoding": "bytes",
        "label": "string",
        "numberOfBytes": "32"
      },
      "t_struct(RoomTile)5739_storage": {
        "encoding": "inplace",
        "label": "struct BCTypes.RoomTile",
        "members": [
          {
            "astId": 5725,
            "contract": "contracts/RoomTiles.sol:RoomTiles",
            "label": "name",
            "offset": 0,
            "slot": "0",
            "type": "t_string_storage"
          },
          {
            "astId": 5728,
            "contract": "contracts/RoomTiles.sol:RoomTiles",
            "label": "eventType",
            "offset": 0,
            "slot": "1",
            "type": "t_enum(BCEventType)5723"
          },
          {
            "astId": 5730,
            "contract": "contracts/RoomTiles.sol:RoomTiles",
            "label": "eventNum",
            "offset": 0,
            "slot": "2",
            "type": "t_uint256"
          },
          {
            "astId": 5732,
            "contract": "contracts/RoomTiles.sol:RoomTiles",
            "label": "numItems",
            "offset": 0,
            "slot": "3",
            "type": "t_uint8"
          },
          {
            "astId": 5734,
            "contract": "contracts/RoomTiles.sol:RoomTiles",
            "label": "numData",
            "offset": 1,
            "slot": "3",
            "type": "t_uint8"
          },
          {
            "astId": 5736,
            "contract": "contracts/RoomTiles.sol:RoomTiles",
            "label": "hasHazard",
            "offset": 2,
            "slot": "3",
            "type": "t_bool"
          },
          {
            "astId": 5738,
            "contract": "contracts/RoomTiles.sol:RoomTiles",
            "label": "sigDetected",
            "offset": 3,
            "slot": "3",
            "type": "t_bool"
          }
        ],
        "numberOfBytes": "128"
      },
      "t_uint256": {
        "encoding": "inplace",
        "label": "uint256",
        "numberOfBytes": "32"
      },
      "t_uint8": {
        "encoding": "inplace",
        "label": "uint8",
        "numberOfBytes": "1"
      }
    }
  }
}