{
  "address": "0x7f88B6F3533A31774D90686c02B597f305EB8d61",
  "abi": [
    {
      "inputs": [],
      "stateMutability": "nonpayable",
      "type": "constructor"
    },
    {
      "anonymous": false,
      "inputs": [
        {
          "indexed": true,
          "internalType": "address",
          "name": "previousOwner",
          "type": "address"
        },
        {
          "indexed": true,
          "internalType": "address",
          "name": "newOwner",
          "type": "address"
        }
      ],
      "name": "OwnershipTransferred",
      "type": "event"
    },
    {
      "inputs": [
        {
          "internalType": "uint256",
          "name": "_id",
          "type": "uint256"
        }
      ],
      "name": "extGetRoomTile",
      "outputs": [
        {
          "components": [
            {
              "internalType": "enum BCTypes.BCEventType",
              "name": "eventType",
              "type": "uint8"
            },
            {
              "internalType": "uint256",
              "name": "eventNum",
              "type": "uint256"
            },
            {
              "internalType": "uint8",
              "name": "numItems",
              "type": "uint8"
            },
            {
              "internalType": "uint8",
              "name": "numData",
              "type": "uint8"
            },
            {
              "internalType": "bool",
              "name": "hasHazard",
              "type": "bool"
            },
            {
              "internalType": "bool",
              "name": "sigDetected",
              "type": "bool"
            }
          ],
          "internalType": "struct BCTypes.RoomTile",
          "name": "",
          "type": "tuple"
        }
      ],
      "stateMutability": "view",
      "type": "function"
    },
    {
      "inputs": [],
      "name": "getNumRoomTiles",
      "outputs": [
        {
          "internalType": "uint256",
          "name": "",
          "type": "uint256"
        }
      ],
      "stateMutability": "view",
      "type": "function"
    },
    {
      "inputs": [],
      "name": "owner",
      "outputs": [
        {
          "internalType": "address",
          "name": "",
          "type": "address"
        }
      ],
      "stateMutability": "view",
      "type": "function"
    },
    {
      "inputs": [],
      "name": "renounceOwnership",
      "outputs": [],
      "stateMutability": "nonpayable",
      "type": "function"
    },
    {
      "inputs": [],
      "name": "returnAllRoomTiles",
      "outputs": [
        {
          "components": [
            {
              "internalType": "enum BCTypes.BCEventType",
              "name": "eventType",
              "type": "uint8"
            },
            {
              "internalType": "uint256",
              "name": "eventNum",
              "type": "uint256"
            },
            {
              "internalType": "uint8",
              "name": "numItems",
              "type": "uint8"
            },
            {
              "internalType": "uint8",
              "name": "numData",
              "type": "uint8"
            },
            {
              "internalType": "bool",
              "name": "hasHazard",
              "type": "bool"
            },
            {
              "internalType": "bool",
              "name": "sigDetected",
              "type": "bool"
            }
          ],
          "internalType": "struct BCTypes.RoomTile[]",
          "name": "",
          "type": "tuple[]"
        }
      ],
      "stateMutability": "view",
      "type": "function"
    },
    {
      "inputs": [
        {
          "internalType": "uint256",
          "name": "",
          "type": "uint256"
        }
      ],
      "name": "roomTiles",
      "outputs": [
        {
          "internalType": "enum BCTypes.BCEventType",
          "name": "eventType",
          "type": "uint8"
        },
        {
          "internalType": "uint256",
          "name": "eventNum",
          "type": "uint256"
        },
        {
          "internalType": "uint8",
          "name": "numItems",
          "type": "uint8"
        },
        {
          "internalType": "uint8",
          "name": "numData",
          "type": "uint8"
        },
        {
          "internalType": "bool",
          "name": "hasHazard",
          "type": "bool"
        },
        {
          "internalType": "bool",
          "name": "sigDetected",
          "type": "bool"
        }
      ],
      "stateMutability": "view",
      "type": "function"
    },
    {
      "inputs": [
        {
          "internalType": "address",
          "name": "_address",
          "type": "address"
        }
      ],
      "name": "setItemContractAddress",
      "outputs": [],
      "stateMutability": "nonpayable",
      "type": "function"
    },
    {
      "inputs": [],
      "name": "testExternalCallMint",
      "outputs": [],
      "stateMutability": "nonpayable",
      "type": "function"
    },
    {
      "inputs": [
        {
          "internalType": "address",
          "name": "newOwner",
          "type": "address"
        }
      ],
      "name": "transferOwnership",
      "outputs": [],
      "stateMutability": "nonpayable",
      "type": "function"
    }
  ],
  "transactionHash": "0x1c7f35c8ea3cd8d495db4b0dbc392ba8d9e8012a542fe6ca9c56d683fbdc42e8",
  "args": [],
  "numDeployments": 3,
  "solcInputHash": "3200bc8f0a14307bec98ec1b45314449",
  "bytecode": "0x60806040523480156200001157600080fd5b5062000032620000266200004860201b60201c565b6200005060201b60201c565b620000426200011460201b60201c565b62002684565b600033905090565b60008060009054906101000a900473ffffffffffffffffffffffffffffffffffffffff169050816000806101000a81548173ffffffffffffffffffffffffffffffffffffffff021916908373ffffffffffffffffffffffffffffffffffffffff1602179055508173ffffffffffffffffffffffffffffffffffffffff168173ffffffffffffffffffffffffffffffffffffffff167f8be0079c531659141344cd1fd0a4f28419497f9722a3daafe3b4186f6b6457e060405160405180910390a35050565b60026040518060c001604052806000600481111562000138576200013762002655565b5b815260200160008152602001600060ff168152602001600060ff16815260200160001515815260200160001515815250908060018154018082558091505060019003906000526020600020906003020160009091909190915060008201518160000160006101000a81548160ff02191690836004811115620001bf57620001be62002655565b5b02179055506020820151816001015560408201518160020160006101000a81548160ff021916908360ff16021790555060608201518160020160016101000a81548160ff021916908360ff16021790555060808201518160020160026101000a81548160ff02191690831515021790555060a08201518160020160036101000a81548160ff021916908315150217905550505060026040518060c001604052806000600481111562000276576200027562002655565b5b815260200160008152602001600060ff168152602001600060ff16815260200160001515815260200160001515815250908060018154018082558091505060019003906000526020600020906003020160009091909190915060008201518160000160006101000a81548160ff02191690836004811115620002fd57620002fc62002655565b5b02179055506020820151816001015560408201518160020160006101000a81548160ff021916908360ff16021790555060608201518160020160016101000a81548160ff021916908360ff16021790555060808201518160020160026101000a81548160ff02191690831515021790555060a08201518160020160036101000a81548160ff021916908315150217905550505060026040518060c0016040528060006004811115620003b457620003b362002655565b5b815260200160ff8152602001600060ff168152602001600060ff16815260200160001515815260200160001515815250908060018154018082558091505060019003906000526020600020906003020160009091909190915060008201518160000160006101000a81548160ff021916908360048111156200043b576200043a62002655565b5b02179055506020820151816001015560408201518160020160006101000a81548160ff021916908360ff16021790555060608201518160020160016101000a81548160ff021916908360ff16021790555060808201518160020160026101000a81548160ff02191690831515021790555060a08201518160020160036101000a81548160ff021916908315150217905550505060026040518060c0016040528060036004811115620004f257620004f162002655565b5b815260200160008152602001600360ff168152602001600060ff16815260200160001515815260200160011515815250908060018154018082558091505060019003906000526020600020906003020160009091909190915060008201518160000160006101000a81548160ff0219169083600481111562000579576200057862002655565b5b02179055506020820151816001015560408201518160020160006101000a81548160ff021916908360ff16021790555060608201518160020160016101000a81548160ff021916908360ff16021790555060808201518160020160026101000a81548160ff02191690831515021790555060a08201518160020160036101000a81548160ff021916908315150217905550505060026040518060c001604052806004808111156200062f576200062e62002655565b5b815260200160008152602001600060ff168152602001600160ff16815260200160001515815260200160001515815250908060018154018082558091505060019003906000526020600020906003020160009091909190915060008201518160000160006101000a81548160ff02191690836004811115620006b657620006b562002655565b5b02179055506020820151816001015560408201518160020160006101000a81548160ff021916908360ff16021790555060608201518160020160016101000a81548160ff021916908360ff16021790555060808201518160020160026101000a81548160ff02191690831515021790555060a08201518160020160036101000a81548160ff021916908315150217905550505060026040518060c001604052806004808111156200076c576200076b62002655565b5b815260200160018152602001600060ff168152602001600060ff16815260200160011515815260200160011515815250908060018154018082558091505060019003906000526020600020906003020160009091909190915060008201518160000160006101000a81548160ff02191690836004811115620007f357620007f262002655565b5b02179055506020820151816001015560408201518160020160006101000a81548160ff021916908360ff16021790555060608201518160020160016101000a81548160ff021916908360ff16021790555060808201518160020160026101000a81548160ff02191690831515021790555060a08201518160020160036101000a81548160ff021916908315150217905550505060026040518060c00160405280600480811115620008a957620008a862002655565b5b815260200160008152602001600160ff168152602001600260ff16815260200160001515815260200160011515815250908060018154018082558091505060019003906000526020600020906003020160009091909190915060008201518160000160006101000a81548160ff0219169083600481111562000930576200092f62002655565b5b02179055506020820151816001015560408201518160020160006101000a81548160ff021916908360ff16021790555060608201518160020160016101000a81548160ff021916908360ff16021790555060808201518160020160026101000a81548160ff02191690831515021790555060a08201518160020160036101000a81548160ff021916908315150217905550505060026040518060c0016040528060016004811115620009e757620009e662002655565b5b815260200160028152602001600060ff168152602001600060ff16815260200160001515815260200160001515815250908060018154018082558091505060019003906000526020600020906003020160009091909190915060008201518160000160006101000a81548160ff0219169083600481111562000a6e5762000a6d62002655565b5b02179055506020820151816001015560408201518160020160006101000a81548160ff021916908360ff16021790555060608201518160020160016101000a81548160ff021916908360ff16021790555060808201518160020160026101000a81548160ff02191690831515021790555060a08201518160020160036101000a81548160ff021916908315150217905550505060026040518060c001604052806002600481111562000b255762000b2462002655565b5b815260200160008152602001600160ff168152602001600260ff16815260200160001515815260200160011515815250908060018154018082558091505060019003906000526020600020906003020160009091909190915060008201518160000160006101000a81548160ff0219169083600481111562000bac5762000bab62002655565b5b02179055506020820151816001015560408201518160020160006101000a81548160ff021916908360ff16021790555060608201518160020160016101000a81548160ff021916908360ff16021790555060808201518160020160026101000a81548160ff02191690831515021790555060a08201518160020160036101000a81548160ff021916908315150217905550505060026040518060c001604052806003600481111562000c635762000c6262002655565b5b815260200160008152602001600160ff168152602001600060ff16815260200160001515815260200160001515815250908060018154018082558091505060019003906000526020600020906003020160009091909190915060008201518160000160006101000a81548160ff0219169083600481111562000cea5762000ce962002655565b5b02179055506020820151816001015560408201518160020160006101000a81548160ff021916908360ff16021790555060608201518160020160016101000a81548160ff021916908360ff16021790555060808201518160020160026101000a81548160ff02191690831515021790555060a08201518160020160036101000a81548160ff021916908315150217905550505060026040518060c001604052806002600481111562000da15762000da062002655565b5b815260200160008152602001600060ff168152602001600160ff16815260200160001515815260200160001515815250908060018154018082558091505060019003906000526020600020906003020160009091909190915060008201518160000160006101000a81548160ff0219169083600481111562000e285762000e2762002655565b5b02179055506020820151816001015560408201518160020160006101000a81548160ff021916908360ff16021790555060608201518160020160016101000a81548160ff021916908360ff16021790555060808201518160020160026101000a81548160ff02191690831515021790555060a08201518160020160036101000a81548160ff021916908315150217905550505060026040518060c001604052806001600481111562000edf5762000ede62002655565b5b815260200160008152602001600060ff168152602001600360ff16815260200160001515815260200160011515815250908060018154018082558091505060019003906000526020600020906003020160009091909190915060008201518160000160006101000a81548160ff0219169083600481111562000f665762000f6562002655565b5b02179055506020820151816001015560408201518160020160006101000a81548160ff021916908360ff16021790555060608201518160020160016101000a81548160ff021916908360ff16021790555060808201518160020160026101000a81548160ff02191690831515021790555060a08201518160020160036101000a81548160ff021916908315150217905550505060026040518060c00160405280600360048111156200101d576200101c62002655565b5b815260200160038152602001600060ff168152602001600060ff16815260200160001515815260200160011515815250908060018154018082558091505060019003906000526020600020906003020160009091909190915060008201518160000160006101000a81548160ff02191690836004811115620010a457620010a362002655565b5b02179055506020820151816001015560408201518160020160006101000a81548160ff021916908360ff16021790555060608201518160020160016101000a81548160ff021916908360ff16021790555060808201518160020160026101000a81548160ff02191690831515021790555060a08201518160020160036101000a81548160ff021916908315150217905550505060026040518060c00160405280600060048111156200115b576200115a62002655565b5b815260200160008152602001600060ff168152602001600060ff16815260200160001515815260200160001515815250908060018154018082558091505060019003906000526020600020906003020160009091909190915060008201518160000160006101000a81548160ff02191690836004811115620011e257620011e162002655565b5b02179055506020820151816001015560408201518160020160006101000a81548160ff021916908360ff16021790555060608201518160020160016101000a81548160ff021916908360ff16021790555060808201518160020160026101000a81548160ff02191690831515021790555060a08201518160020160036101000a81548160ff021916908315150217905550505060026040518060c001604052806002600481111562001299576200129862002655565b5b815260200160008152602001600160ff168152602001600160ff16815260200160001515815260200160001515815250908060018154018082558091505060019003906000526020600020906003020160009091909190915060008201518160000160006101000a81548160ff0219169083600481111562001320576200131f62002655565b5b02179055506020820151816001015560408201518160020160006101000a81548160ff021916908360ff16021790555060608201518160020160016101000a81548160ff021916908360ff16021790555060808201518160020160026101000a81548160ff02191690831515021790555060a08201518160020160036101000a81548160ff021916908315150217905550505060026040518060c0016040528060016004811115620013d757620013d662002655565b5b815260200160008152602001600160ff168152602001600060ff16815260200160001515815260200160001515815250908060018154018082558091505060019003906000526020600020906003020160009091909190915060008201518160000160006101000a81548160ff021916908360048111156200145e576200145d62002655565b5b02179055506020820151816001015560408201518160020160006101000a81548160ff021916908360ff16021790555060608201518160020160016101000a81548160ff021916908360ff16021790555060808201518160020160026101000a81548160ff02191690831515021790555060a08201518160020160036101000a81548160ff021916908315150217905550505060026040518060c001604052806002600481111562001515576200151462002655565b5b815260200160008152602001600060ff168152602001600060ff16815260200160011515815260200160011515815250908060018154018082558091505060019003906000526020600020906003020160009091909190915060008201518160000160006101000a81548160ff021916908360048111156200159c576200159b62002655565b5b02179055506020820151816001015560408201518160020160006101000a81548160ff021916908360ff16021790555060608201518160020160016101000a81548160ff021916908360ff16021790555060808201518160020160026101000a81548160ff02191690831515021790555060a08201518160020160036101000a81548160ff021916908315150217905550505060026040518060c001604052806000600481111562001653576200165262002655565b5b815260200160008152602001600160ff168152602001600060ff16815260200160001515815260200160001515815250908060018154018082558091505060019003906000526020600020906003020160009091909190915060008201518160000160006101000a81548160ff02191690836004811115620016da57620016d962002655565b5b02179055506020820151816001015560408201518160020160006101000a81548160ff021916908360ff16021790555060608201518160020160016101000a81548160ff021916908360ff16021790555060808201518160020160026101000a81548160ff02191690831515021790555060a08201518160020160036101000a81548160ff021916908315150217905550505060026040518060c001604052806001600481111562001791576200179062002655565b5b815260200160008152602001600060ff168152602001600160ff16815260200160001515815260200160011515815250908060018154018082558091505060019003906000526020600020906003020160009091909190915060008201518160000160006101000a81548160ff0219169083600481111562001818576200181762002655565b5b02179055506020820151816001015560408201518160020160006101000a81548160ff021916908360ff16021790555060608201518160020160016101000a81548160ff021916908360ff16021790555060808201518160020160026101000a81548160ff02191690831515021790555060a08201518160020160036101000a81548160ff021916908315150217905550505060026040518060c00160405280600480811115620018ce57620018cd62002655565b5b815260200160008152602001600060ff168152602001600060ff16815260200160001515815260200160001515815250908060018154018082558091505060019003906000526020600020906003020160009091909190915060008201518160000160006101000a81548160ff0219169083600481111562001955576200195462002655565b5b02179055506020820151816001015560408201518160020160006101000a81548160ff021916908360ff16021790555060608201518160020160016101000a81548160ff021916908360ff16021790555060808201518160020160026101000a81548160ff02191690831515021790555060a08201518160020160036101000a81548160ff021916908315150217905550505060026040518060c001604052806002600481111562001a0c5762001a0b62002655565b5b815260200160008152602001600060ff168152602001600160ff16815260200160001515815260200160001515815250908060018154018082558091505060019003906000526020600020906003020160009091909190915060008201518160000160006101000a81548160ff0219169083600481111562001a935762001a9262002655565b5b02179055506020820151816001015560408201518160020160006101000a81548160ff021916908360ff16021790555060608201518160020160016101000a81548160ff021916908360ff16021790555060808201518160020160026101000a81548160ff02191690831515021790555060a08201518160020160036101000a81548160ff021916908315150217905550505060026040518060c001604052806002600481111562001b4a5762001b4962002655565b5b815260200160008152602001600160ff168152602001600060ff16815260200160001515815260200160001515815250908060018154018082558091505060019003906000526020600020906003020160009091909190915060008201518160000160006101000a81548160ff0219169083600481111562001bd15762001bd062002655565b5b02179055506020820151816001015560408201518160020160006101000a81548160ff021916908360ff16021790555060608201518160020160016101000a81548160ff021916908360ff16021790555060808201518160020160026101000a81548160ff02191690831515021790555060a08201518160020160036101000a81548160ff021916908315150217905550505060026040518060c001604052806003600481111562001c885762001c8762002655565b5b815260200160008152602001600060ff168152602001600160ff16815260200160001515815260200160001515815250908060018154018082558091505060019003906000526020600020906003020160009091909190915060008201518160000160006101000a81548160ff0219169083600481111562001d0f5762001d0e62002655565b5b02179055506020820151816001015560408201518160020160006101000a81548160ff021916908360ff16021790555060608201518160020160016101000a81548160ff021916908360ff16021790555060808201518160020160026101000a81548160ff02191690831515021790555060a08201518160020160036101000a81548160ff021916908315150217905550505060026040518060c001604052806000600481111562001dc65762001dc562002655565b5b815260200160008152602001600160ff168152602001600060ff16815260200160001515815260200160001515815250908060018154018082558091505060019003906000526020600020906003020160009091909190915060008201518160000160006101000a81548160ff0219169083600481111562001e4d5762001e4c62002655565b5b02179055506020820151816001015560408201518160020160006101000a81548160ff021916908360ff16021790555060608201518160020160016101000a81548160ff021916908360ff16021790555060808201518160020160026101000a81548160ff02191690831515021790555060a08201518160020160036101000a81548160ff021916908315150217905550505060026040518060c001604052806003600481111562001f045762001f0362002655565b5b815260200160008152602001600060ff168152602001600160ff16815260200160001515815260200160001515815250908060018154018082558091505060019003906000526020600020906003020160009091909190915060008201518160000160006101000a81548160ff0219169083600481111562001f8b5762001f8a62002655565b5b02179055506020820151816001015560408201518160020160006101000a81548160ff021916908360ff16021790555060608201518160020160016101000a81548160ff021916908360ff16021790555060808201518160020160026101000a81548160ff02191690831515021790555060a08201518160020160036101000a81548160ff021916908315150217905550505060026040518060c001604052806003600481111562002042576200204162002655565b5b815260200160008152602001600160ff168152602001600060ff16815260200160001515815260200160001515815250908060018154018082558091505060019003906000526020600020906003020160009091909190915060008201518160000160006101000a81548160ff02191690836004811115620020c957620020c862002655565b5b02179055506020820151816001015560408201518160020160006101000a81548160ff021916908360ff16021790555060608201518160020160016101000a81548160ff021916908360ff16021790555060808201518160020160026101000a81548160ff02191690831515021790555060a08201518160020160036101000a81548160ff021916908315150217905550505060026040518060c001604052806001600481111562002180576200217f62002655565b5b815260200160008152602001600160ff168152602001600060ff16815260200160001515815260200160001515815250908060018154018082558091505060019003906000526020600020906003020160009091909190915060008201518160000160006101000a81548160ff0219169083600481111562002207576200220662002655565b5b02179055506020820151816001015560408201518160020160006101000a81548160ff021916908360ff16021790555060608201518160020160016101000a81548160ff021916908360ff16021790555060808201518160020160026101000a81548160ff02191690831515021790555060a08201518160020160036101000a81548160ff021916908315150217905550505060026040518060c0016040528060016004811115620022be57620022bd62002655565b5b815260200160008152602001600060ff168152602001600060ff16815260200160001515815260200160001515815250908060018154018082558091505060019003906000526020600020906003020160009091909190915060008201518160000160006101000a81548160ff0219169083600481111562002345576200234462002655565b5b02179055506020820151816001015560408201518160020160006101000a81548160ff021916908360ff16021790555060608201518160020160016101000a81548160ff021916908360ff16021790555060808201518160020160026101000a81548160ff02191690831515021790555060a08201518160020160036101000a81548160ff021916908315150217905550505060026040518060c0016040528060016004811115620023fc57620023fb62002655565b5b815260200160008152602001600060ff168152602001600060ff16815260200160001515815260200160001515815250908060018154018082558091505060019003906000526020600020906003020160009091909190915060008201518160000160006101000a81548160ff0219169083600481111562002483576200248262002655565b5b02179055506020820151816001015560408201518160020160006101000a81548160ff021916908360ff16021790555060608201518160020160016101000a81548160ff021916908360ff16021790555060808201518160020160026101000a81548160ff02191690831515021790555060a08201518160020160036101000a81548160ff021916908315150217905550505060026040518060c0016040528060048081111562002539576200253862002655565b5b815260200160008152602001600060ff168152602001600060ff16815260200160001515815260200160011515815250908060018154018082558091505060019003906000526020600020906003020160009091909190915060008201518160000160006101000a81548160ff02191690836004811115620025c057620025bf62002655565b5b02179055506020820151816001015560408201518160020160006101000a81548160ff021916908360ff16021790555060608201518160020160016101000a81548160ff021916908360ff16021790555060808201518160020160026101000a81548160ff02191690831515021790555060a08201518160020160036101000a81548160ff0219169083151502179055505050565b7f4e487b7100000000000000000000000000000000000000000000000000000000600052602160045260246000fd5b610e8080620026946000396000f3fe608060405234801561001057600080fd5b50600436106100935760003560e01c806382753ebe1161006657806382753ebe146100e85780638da5cb5b14610118578063c5cda1b714610136578063c7a1d8e514610152578063f2fde38b1461018757610093565b806317fa73471461009857806338fdf0bd146100b6578063480f23e1146100d4578063715018a6146100de575b600080fd5b6100a06101a3565b6040516100ad91906109e2565b60405180910390f35b6100be61032e565b6040516100cb9190610a13565b60405180910390f35b6100dc61033b565b005b6100e66103ca565b005b61010260048036038101906100fd9190610a5f565b6103de565b60405161010f9190610b07565b60405180910390f35b6101206104cf565b60405161012d9190610b63565b60405180910390f35b610150600480360381019061014b9190610baa565b6104f8565b005b61016c60048036038101906101679190610a5f565b610544565b60405161017e96959493929190610c04565b60405180910390f35b6101a1600480360381019061019c9190610baa565b6105d1565b005b60606000600280549050905060008167ffffffffffffffff8111156101cb576101ca610c65565b5b60405190808252806020026020018201604052801561020457816020015b6101f161079f565b8152602001906001900390816101e95790505b50905060005b82811015610325576002818154811061022657610225610c94565b5b90600052602060002090600302016040518060c00160405290816000820160009054906101000a900460ff1660048111156102645761026361081d565b5b60048111156102765761027561081d565b5b8152602001600182015481526020016002820160009054906101000a900460ff1660ff1660ff1681526020016002820160019054906101000a900460ff1660ff1660ff1681526020016002820160029054906101000a900460ff161515151581526020016002820160039054906101000a900460ff16151515158152505082828151811061030757610306610c94565b5b6020026020010181905250808061031d90610cf2565b91505061020a565b50809250505090565b6000600280549050905090565b600160009054906101000a900473ffffffffffffffffffffffffffffffffffffffff1673ffffffffffffffffffffffffffffffffffffffff1663abbcbd6e336040518263ffffffff1660e01b81526004016103969190610b63565b600060405180830381600087803b1580156103b057600080fd5b505af11580156103c4573d6000803e3d6000fd5b50505050565b6103d2610655565b6103dc60006106d3565b565b6103e661079f565b600282815481106103fa576103f9610c94565b5b90600052602060002090600302016040518060c00160405290816000820160009054906101000a900460ff1660048111156104385761043761081d565b5b600481111561044a5761044961081d565b5b8152602001600182015481526020016002820160009054906101000a900460ff1660ff1660ff1681526020016002820160019054906101000a900460ff1660ff1660ff1681526020016002820160029054906101000a900460ff161515151581526020016002820160039054906101000a900460ff1615151515815250509050919050565b60008060009054906101000a900473ffffffffffffffffffffffffffffffffffffffff16905090565b610500610655565b80600160006101000a81548173ffffffffffffffffffffffffffffffffffffffff021916908373ffffffffffffffffffffffffffffffffffffffff16021790555050565b6002818154811061055457600080fd5b90600052602060002090600302016000915090508060000160009054906101000a900460ff16908060010154908060020160009054906101000a900460ff16908060020160019054906101000a900460ff16908060020160029054906101000a900460ff16908060020160039054906101000a900460ff16905086565b6105d9610655565b600073ffffffffffffffffffffffffffffffffffffffff168173ffffffffffffffffffffffffffffffffffffffff161415610649576040517f08c379a000000000000000000000000000000000000000000000000000000000815260040161064090610dbe565b60405180910390fd5b610652816106d3565b50565b61065d610797565b73ffffffffffffffffffffffffffffffffffffffff1661067b6104cf565b73ffffffffffffffffffffffffffffffffffffffff16146106d1576040517f08c379a00000000000000000000000000000000000000000000000000000000081526004016106c890610e2a565b60405180910390fd5b565b60008060009054906101000a900473ffffffffffffffffffffffffffffffffffffffff169050816000806101000a81548173ffffffffffffffffffffffffffffffffffffffff021916908373ffffffffffffffffffffffffffffffffffffffff1602179055508173ffffffffffffffffffffffffffffffffffffffff168173ffffffffffffffffffffffffffffffffffffffff167f8be0079c531659141344cd1fd0a4f28419497f9722a3daafe3b4186f6b6457e060405160405180910390a35050565b600033905090565b6040518060c00160405280600060048111156107be576107bd61081d565b5b815260200160008152602001600060ff168152602001600060ff1681526020016000151581526020016000151581525090565b600081519050919050565b600082825260208201905092915050565b6000819050602082019050919050565b7f4e487b7100000000000000000000000000000000000000000000000000000000600052602160045260246000fd5b6005811061085d5761085c61081d565b5b50565b600081905061086e8261084c565b919050565b600061087e82610860565b9050919050565b61088e81610873565b82525050565b6000819050919050565b6108a781610894565b82525050565b600060ff82169050919050565b6108c3816108ad565b82525050565b60008115159050919050565b6108de816108c9565b82525050565b60c0820160008201516108fa6000850182610885565b50602082015161090d602085018261089e565b50604082015161092060408501826108ba565b50606082015161093360608501826108ba565b50608082015161094660808501826108d5565b5060a082015161095960a08501826108d5565b50505050565b600061096b83836108e4565b60c08301905092915050565b6000602082019050919050565b600061098f826107f1565b61099981856107fc565b93506109a48361080d565b8060005b838110156109d55781516109bc888261095f565b97506109c783610977565b9250506001810190506109a8565b5085935050505092915050565b600060208201905081810360008301526109fc8184610984565b905092915050565b610a0d81610894565b82525050565b6000602082019050610a286000830184610a04565b92915050565b600080fd5b610a3c81610894565b8114610a4757600080fd5b50565b600081359050610a5981610a33565b92915050565b600060208284031215610a7557610a74610a2e565b5b6000610a8384828501610a4a565b91505092915050565b60c082016000820151610aa26000850182610885565b506020820151610ab5602085018261089e565b506040820151610ac860408501826108ba565b506060820151610adb60608501826108ba565b506080820151610aee60808501826108d5565b5060a0820151610b0160a08501826108d5565b50505050565b600060c082019050610b1c6000830184610a8c565b92915050565b600073ffffffffffffffffffffffffffffffffffffffff82169050919050565b6000610b4d82610b22565b9050919050565b610b5d81610b42565b82525050565b6000602082019050610b786000830184610b54565b92915050565b610b8781610b42565b8114610b9257600080fd5b50565b600081359050610ba481610b7e565b92915050565b600060208284031215610bc057610bbf610a2e565b5b6000610bce84828501610b95565b91505092915050565b610be081610873565b82525050565b610bef816108ad565b82525050565b610bfe816108c9565b82525050565b600060c082019050610c196000830189610bd7565b610c266020830188610a04565b610c336040830187610be6565b610c406060830186610be6565b610c4d6080830185610bf5565b610c5a60a0830184610bf5565b979650505050505050565b7f4e487b7100000000000000000000000000000000000000000000000000000000600052604160045260246000fd5b7f4e487b7100000000000000000000000000000000000000000000000000000000600052603260045260246000fd5b7f4e487b7100000000000000000000000000000000000000000000000000000000600052601160045260246000fd5b6000610cfd82610894565b91507fffffffffffffffffffffffffffffffffffffffffffffffffffffffffffffffff821415610d3057610d2f610cc3565b5b600182019050919050565b600082825260208201905092915050565b7f4f776e61626c653a206e6577206f776e657220697320746865207a65726f206160008201527f6464726573730000000000000000000000000000000000000000000000000000602082015250565b6000610da8602683610d3b565b9150610db382610d4c565b604082019050919050565b60006020820190508181036000830152610dd781610d9b565b9050919050565b7f4f776e61626c653a2063616c6c6572206973206e6f7420746865206f776e6572600082015250565b6000610e14602083610d3b565b9150610e1f82610dde565b602082019050919050565b60006020820190508181036000830152610e4381610e07565b905091905056fea26469706673582212208a61769cdcfc73200fc1195759392d6a253a430d89eee3e440c6c7f79ee1560364736f6c634300080c0033",
  "devdoc": {
    "kind": "dev",
    "methods": {
      "owner()": {
        "details": "Returns the address of the current owner."
      },
      "renounceOwnership()": {
        "details": "Leaves the contract without owner. It will not be possible to call `onlyOwner` functions anymore. Can only be called by the current owner. NOTE: Renouncing ownership will leave the contract without an owner, thereby removing any functionality that is only available to the owner."
      },
      "transferOwnership(address)": {
        "details": "Transfers ownership of the contract to a new account (`newOwner`). Can only be called by the current owner."
      }
    },
    "version": 1
  },
  "userdoc": {
    "kind": "user",
    "methods": {},
    "version": 1
  },
  "storageLayout": {
    "storage": [
      {
        "astId": 7,
        "contract": "contracts/RoomTiles.sol:RoomTiles",
        "label": "_owner",
        "offset": 0,
        "slot": "0",
        "type": "t_address"
      },
      {
        "astId": 6737,
        "contract": "contracts/RoomTiles.sol:RoomTiles",
        "label": "itemContract",
        "offset": 0,
        "slot": "1",
        "type": "t_contract(ItemInterface)6732"
      },
      {
        "astId": 6741,
        "contract": "contracts/RoomTiles.sol:RoomTiles",
        "label": "roomTiles",
        "offset": 0,
        "slot": "2",
        "type": "t_array(t_struct(RoomTile)6327_storage)dyn_storage"
      }
    ],
    "types": {
      "t_address": {
        "encoding": "inplace",
        "label": "address",
        "numberOfBytes": "20"
      },
      "t_array(t_struct(RoomTile)6327_storage)dyn_storage": {
        "base": "t_struct(RoomTile)6327_storage",
        "encoding": "dynamic_array",
        "label": "struct BCTypes.RoomTile[]",
        "numberOfBytes": "32"
      },
      "t_bool": {
        "encoding": "inplace",
        "label": "bool",
        "numberOfBytes": "1"
      },
      "t_contract(ItemInterface)6732": {
        "encoding": "inplace",
        "label": "contract ItemInterface",
        "numberOfBytes": "20"
      },
      "t_enum(BCEventType)6313": {
        "encoding": "inplace",
        "label": "enum BCTypes.BCEventType",
        "numberOfBytes": "1"
      },
      "t_struct(RoomTile)6327_storage": {
        "encoding": "inplace",
        "label": "struct BCTypes.RoomTile",
        "members": [
          {
            "astId": 6316,
            "contract": "contracts/RoomTiles.sol:RoomTiles",
            "label": "eventType",
            "offset": 0,
            "slot": "0",
            "type": "t_enum(BCEventType)6313"
          },
          {
            "astId": 6318,
            "contract": "contracts/RoomTiles.sol:RoomTiles",
            "label": "eventNum",
            "offset": 0,
            "slot": "1",
            "type": "t_uint256"
          },
          {
            "astId": 6320,
            "contract": "contracts/RoomTiles.sol:RoomTiles",
            "label": "numItems",
            "offset": 0,
            "slot": "2",
            "type": "t_uint8"
          },
          {
            "astId": 6322,
            "contract": "contracts/RoomTiles.sol:RoomTiles",
            "label": "numData",
            "offset": 1,
            "slot": "2",
            "type": "t_uint8"
          },
          {
            "astId": 6324,
            "contract": "contracts/RoomTiles.sol:RoomTiles",
            "label": "hasHazard",
            "offset": 2,
            "slot": "2",
            "type": "t_bool"
          },
          {
            "astId": 6326,
            "contract": "contracts/RoomTiles.sol:RoomTiles",
            "label": "sigDetected",
            "offset": 3,
            "slot": "2",
            "type": "t_bool"
          }
        ],
        "numberOfBytes": "96"
      },
      "t_uint256": {
        "encoding": "inplace",
        "label": "uint256",
        "numberOfBytes": "32"
      },
      "t_uint8": {
        "encoding": "inplace",
        "label": "uint8",
        "numberOfBytes": "1"
      }
    }
  }
}