{
  "address": "0xbd79d132CB7413aedD6d393F3c6b9224AD6b8549",
  "abi": [
    {
      "inputs": [],
      "stateMutability": "nonpayable",
      "type": "constructor"
    },
    {
      "inputs": [
        {
          "internalType": "uint256",
          "name": "",
          "type": "uint256"
        }
      ],
      "name": "bars",
      "outputs": [
        {
          "internalType": "string",
          "name": "owner",
          "type": "string"
        },
        {
          "internalType": "string",
          "name": "second",
          "type": "string"
        }
      ],
      "stateMutability": "view",
      "type": "function"
    },
    {
      "inputs": [],
      "name": "getBarsLength",
      "outputs": [
        {
          "internalType": "uint256",
          "name": "",
          "type": "uint256"
        }
      ],
      "stateMutability": "nonpayable",
      "type": "function"
    },
    {
      "inputs": [],
      "name": "numberStarted",
      "outputs": [
        {
          "internalType": "uint256",
          "name": "",
          "type": "uint256"
        }
      ],
      "stateMutability": "view",
      "type": "function"
    }
  ],
  "transactionHash": "0xed2c6db27c8d0422b3fa39277c44fa20559c497e9741ed91c00f77dd35b008ca",
  "args": [],
  "numDeployments": 6,
  "solcInputHash": "b9f60b6777da9311812fc48d4fd47d64",
  "bytecode": "0x60806040526000805534801561001457600080fd5b50600160405180604001604052806040518060400160405280600581526020017f627269616e00000000000000000000000000000000000000000000000000000081525081526020016040518060400160405280600581526020017f646f796c65000000000000000000000000000000000000000000000000000000815250815250908060018154018082558091505060019003906000526020600020906002020160009091909190915060008201518160000190805190602001906100db9291906101e6565b5060208201518160010190805190602001906100f89291906101e6565b505050600160405180604001604052806040518060400160405280600681526020017f7365636f6e64000000000000000000000000000000000000000000000000000081525081526020016040518060400160405280600581526020017f6f776e6572000000000000000000000000000000000000000000000000000000815250815250908060018154018082558091505060019003906000526020600020906002020160009091909190915060008201518160000190805190602001906101c19291906101e6565b5060208201518160010190805190602001906101de9291906101e6565b5050506102ea565b8280546101f2906102b8565b90600052602060002090601f016020900481019282610214576000855561025b565b82601f1061022d57805160ff191683800117855561025b565b8280016001018555821561025b579182015b8281111561025a57825182559160200191906001019061023f565b5b509050610268919061026c565b5090565b5b8082111561028557600081600090555060010161026d565b5090565b7f4e487b7100000000000000000000000000000000000000000000000000000000600052602260045260246000fd5b600060028204905060018216806102d057607f821691505b602082108114156102e4576102e3610289565b5b50919050565b610403806102f96000396000f3fe608060405234801561001057600080fd5b50600436106100415760003560e01c806347cf3346146100465780636ceec12414610064578063d1146f5414610095575b600080fd5b61004e6100b3565b60405161005b9190610223565b60405180910390f35b61007e6004803603810190610079919061026f565b6100b9565b60405161008c929190610335565b60405180910390f35b61009d6101fd565b6040516100aa9190610223565b60405180910390f35b60005481565b600181815481106100c957600080fd5b90600052602060002090600202016000915090508060000180546100ec9061039b565b80601f01602080910402602001604051908101604052809291908181526020018280546101189061039b565b80156101655780601f1061013a57610100808354040283529160200191610165565b820191906000526020600020905b81548152906001019060200180831161014857829003601f168201915b50505050509080600101805461017a9061039b565b80601f01602080910402602001604051908101604052809291908181526020018280546101a69061039b565b80156101f35780601f106101c8576101008083540402835291602001916101f3565b820191906000526020600020905b8154815290600101906020018083116101d657829003601f168201915b5050505050905082565b6000600180549050905090565b6000819050919050565b61021d8161020a565b82525050565b60006020820190506102386000830184610214565b92915050565b600080fd5b61024c8161020a565b811461025757600080fd5b50565b60008135905061026981610243565b92915050565b6000602082840312156102855761028461023e565b5b60006102938482850161025a565b91505092915050565b600081519050919050565b600082825260208201905092915050565b60005b838110156102d65780820151818401526020810190506102bb565b838111156102e5576000848401525b50505050565b6000601f19601f8301169050919050565b60006103078261029c565b61031181856102a7565b93506103218185602086016102b8565b61032a816102eb565b840191505092915050565b6000604082019050818103600083015261034f81856102fc565b9050818103602083015261036381846102fc565b90509392505050565b7f4e487b7100000000000000000000000000000000000000000000000000000000600052602260045260246000fd5b600060028204905060018216806103b357607f821691505b602082108114156103c7576103c661036c565b5b5091905056fea2646970667358221220793e40b415736da3d1e6d9ca0c652a3f6005a699af1f61d66ec2fd4a1e2cd7ef64736f6c634300080c0033",
  "devdoc": {
    "kind": "dev",
    "methods": {},
    "version": 1
  },
  "userdoc": {
    "kind": "user",
    "methods": {},
    "version": 1
  },
  "storageLayout": {
    "storage": [
      {
        "astId": 6786,
        "contract": "contracts/Scratch.sol:Scratch",
        "label": "numberStarted",
        "offset": 0,
        "slot": "0",
        "type": "t_uint256"
      },
      {
        "astId": 6795,
        "contract": "contracts/Scratch.sol:Scratch",
        "label": "bars",
        "offset": 0,
        "slot": "1",
        "type": "t_array(t_struct(Bar)6791_storage)dyn_storage"
      }
    ],
    "types": {
      "t_array(t_struct(Bar)6791_storage)dyn_storage": {
        "base": "t_struct(Bar)6791_storage",
        "encoding": "dynamic_array",
        "label": "struct Scratch.Bar[]",
        "numberOfBytes": "32"
      },
      "t_string_storage": {
        "encoding": "bytes",
        "label": "string",
        "numberOfBytes": "32"
      },
      "t_struct(Bar)6791_storage": {
        "encoding": "inplace",
        "label": "struct Scratch.Bar",
        "members": [
          {
            "astId": 6788,
            "contract": "contracts/Scratch.sol:Scratch",
            "label": "owner",
            "offset": 0,
            "slot": "0",
            "type": "t_string_storage"
          },
          {
            "astId": 6790,
            "contract": "contracts/Scratch.sol:Scratch",
            "label": "second",
            "offset": 0,
            "slot": "1",
            "type": "t_string_storage"
          }
        ],
        "numberOfBytes": "64"
      },
      "t_uint256": {
        "encoding": "inplace",
        "label": "uint256",
        "numberOfBytes": "32"
      }
    }
  }
}