{
  "address": "0x8eD0087D59d151341A62d79562255D1A3993474C",
  "abi": [
    {
      "inputs": [],
      "stateMutability": "nonpayable",
      "type": "constructor"
    },
    {
      "anonymous": false,
      "inputs": [
        {
          "indexed": true,
          "internalType": "address",
          "name": "owner",
          "type": "address"
        },
        {
          "indexed": true,
          "internalType": "address",
          "name": "approved",
          "type": "address"
        },
        {
          "indexed": true,
          "internalType": "uint256",
          "name": "tokenId",
          "type": "uint256"
        }
      ],
      "name": "Approval",
      "type": "event"
    },
    {
      "anonymous": false,
      "inputs": [
        {
          "indexed": true,
          "internalType": "address",
          "name": "owner",
          "type": "address"
        },
        {
          "indexed": true,
          "internalType": "address",
          "name": "operator",
          "type": "address"
        },
        {
          "indexed": false,
          "internalType": "bool",
          "name": "approved",
          "type": "bool"
        }
      ],
      "name": "ApprovalForAll",
      "type": "event"
    },
    {
      "anonymous": false,
      "inputs": [],
      "name": "NewItem",
      "type": "event"
    },
    {
      "anonymous": false,
      "inputs": [
        {
          "indexed": true,
          "internalType": "address",
          "name": "previousOwner",
          "type": "address"
        },
        {
          "indexed": true,
          "internalType": "address",
          "name": "newOwner",
          "type": "address"
        }
      ],
      "name": "OwnershipTransferred",
      "type": "event"
    },
    {
      "anonymous": false,
      "inputs": [
        {
          "indexed": true,
          "internalType": "address",
          "name": "from",
          "type": "address"
        },
        {
          "indexed": true,
          "internalType": "address",
          "name": "to",
          "type": "address"
        },
        {
          "indexed": true,
          "internalType": "uint256",
          "name": "tokenId",
          "type": "uint256"
        }
      ],
      "name": "Transfer",
      "type": "event"
    },
    {
      "inputs": [
        {
          "internalType": "address",
          "name": "to",
          "type": "address"
        },
        {
          "internalType": "uint256",
          "name": "tokenId",
          "type": "uint256"
        }
      ],
      "name": "approve",
      "outputs": [],
      "stateMutability": "nonpayable",
      "type": "function"
    },
    {
      "inputs": [
        {
          "internalType": "address",
          "name": "owner",
          "type": "address"
        }
      ],
      "name": "balanceOf",
      "outputs": [
        {
          "internalType": "uint256",
          "name": "",
          "type": "uint256"
        }
      ],
      "stateMutability": "view",
      "type": "function"
    },
    {
      "inputs": [],
      "name": "baseCost",
      "outputs": [
        {
          "internalType": "uint256",
          "name": "",
          "type": "uint256"
        }
      ],
      "stateMutability": "view",
      "type": "function"
    },
    {
      "inputs": [
        {
          "internalType": "uint256",
          "name": "tokenId",
          "type": "uint256"
        }
      ],
      "name": "burn",
      "outputs": [],
      "stateMutability": "nonpayable",
      "type": "function"
    },
    {
      "inputs": [
        {
          "internalType": "uint256",
          "name": "_id",
          "type": "uint256"
        }
      ],
      "name": "extGetCurrentOwner",
      "outputs": [
        {
          "internalType": "address",
          "name": "",
          "type": "address"
        }
      ],
      "stateMutability": "view",
      "type": "function"
    },
    {
      "inputs": [
        {
          "internalType": "uint256",
          "name": "_id",
          "type": "uint256"
        }
      ],
      "name": "extGetItem",
      "outputs": [
        {
          "components": [
            {
              "internalType": "address",
              "name": "originalOwner",
              "type": "address"
            },
            {
              "internalType": "address",
              "name": "currentOwner",
              "type": "address"
            },
            {
              "internalType": "address",
              "name": "creator",
              "type": "address"
            },
            {
              "internalType": "bytes32",
              "name": "properties",
              "type": "bytes32"
            },
            {
              "internalType": "uint256",
              "name": "taxonomyVersion",
              "type": "uint256"
            }
          ],
          "internalType": "struct UniversalInventoryFactory.UniversalInventoryItem",
          "name": "",
          "type": "tuple"
        }
      ],
      "stateMutability": "view",
      "type": "function"
    },
    {
      "inputs": [
        {
          "internalType": "address",
          "name": "_currentOwner",
          "type": "address"
        }
      ],
      "name": "extGetListOfUIIsOwned",
      "outputs": [
        {
          "internalType": "uint256[]",
          "name": "",
          "type": "uint256[]"
        }
      ],
      "stateMutability": "view",
      "type": "function"
    },
    {
      "inputs": [
        {
          "internalType": "uint256",
          "name": "_id",
          "type": "uint256"
        }
      ],
      "name": "extGetProperties",
      "outputs": [
        {
          "internalType": "bytes32",
          "name": "",
          "type": "bytes32"
        }
      ],
      "stateMutability": "view",
      "type": "function"
    },
    {
      "inputs": [
        {
          "internalType": "uint256",
          "name": "tokenId",
          "type": "uint256"
        }
      ],
      "name": "getApproved",
      "outputs": [
        {
          "internalType": "address",
          "name": "",
          "type": "address"
        }
      ],
      "stateMutability": "view",
      "type": "function"
    },
    {
      "inputs": [
        {
          "internalType": "address",
          "name": "owner",
          "type": "address"
        },
        {
          "internalType": "address",
          "name": "operator",
          "type": "address"
        }
      ],
      "name": "isApprovedForAll",
      "outputs": [
        {
          "internalType": "bool",
          "name": "",
          "type": "bool"
        }
      ],
      "stateMutability": "view",
      "type": "function"
    },
    {
      "inputs": [
        {
          "internalType": "uint256",
          "name": "",
          "type": "uint256"
        }
      ],
      "name": "items",
      "outputs": [
        {
          "internalType": "address",
          "name": "originalOwner",
          "type": "address"
        },
        {
          "internalType": "address",
          "name": "currentOwner",
          "type": "address"
        },
        {
          "internalType": "address",
          "name": "creator",
          "type": "address"
        },
        {
          "internalType": "bytes32",
          "name": "properties",
          "type": "bytes32"
        },
        {
          "internalType": "uint256",
          "name": "taxonomyVersion",
          "type": "uint256"
        }
      ],
      "stateMutability": "view",
      "type": "function"
    },
    {
      "inputs": [],
      "name": "mintIsActive",
      "outputs": [
        {
          "internalType": "bool",
          "name": "",
          "type": "bool"
        }
      ],
      "stateMutability": "view",
      "type": "function"
    },
    {
      "inputs": [
        {
          "internalType": "uint256",
          "name": "_type",
          "type": "uint256"
        },
        {
          "internalType": "uint256",
          "name": "_quality",
          "type": "uint256"
        },
        {
          "internalType": "address",
          "name": "_minter",
          "type": "address"
        }
      ],
      "name": "mintItem",
      "outputs": [
        {
          "internalType": "uint256",
          "name": "",
          "type": "uint256"
        }
      ],
      "stateMutability": "payable",
      "type": "function"
    },
    {
      "inputs": [],
      "name": "name",
      "outputs": [
        {
          "internalType": "string",
          "name": "",
          "type": "string"
        }
      ],
      "stateMutability": "view",
      "type": "function"
    },
    {
      "inputs": [],
      "name": "owner",
      "outputs": [
        {
          "internalType": "address",
          "name": "",
          "type": "address"
        }
      ],
      "stateMutability": "view",
      "type": "function"
    },
    {
      "inputs": [
        {
          "internalType": "uint256",
          "name": "tokenId",
          "type": "uint256"
        }
      ],
      "name": "ownerOf",
      "outputs": [
        {
          "internalType": "address",
          "name": "",
          "type": "address"
        }
      ],
      "stateMutability": "view",
      "type": "function"
    },
    {
      "inputs": [],
      "name": "renounceOwnership",
      "outputs": [],
      "stateMutability": "nonpayable",
      "type": "function"
    },
    {
      "inputs": [
        {
          "internalType": "address",
          "name": "from",
          "type": "address"
        },
        {
          "internalType": "address",
          "name": "to",
          "type": "address"
        },
        {
          "internalType": "uint256",
          "name": "tokenId",
          "type": "uint256"
        }
      ],
      "name": "safeTransferFrom",
      "outputs": [],
      "stateMutability": "nonpayable",
      "type": "function"
    },
    {
      "inputs": [
        {
          "internalType": "address",
          "name": "from",
          "type": "address"
        },
        {
          "internalType": "address",
          "name": "to",
          "type": "address"
        },
        {
          "internalType": "uint256",
          "name": "tokenId",
          "type": "uint256"
        },
        {
          "internalType": "bytes",
          "name": "data",
          "type": "bytes"
        }
      ],
      "name": "safeTransferFrom",
      "outputs": [],
      "stateMutability": "nonpayable",
      "type": "function"
    },
    {
      "inputs": [
        {
          "internalType": "address",
          "name": "operator",
          "type": "address"
        },
        {
          "internalType": "bool",
          "name": "approved",
          "type": "bool"
        }
      ],
      "name": "setApprovalForAll",
      "outputs": [],
      "stateMutability": "nonpayable",
      "type": "function"
    },
    {
      "inputs": [
        {
          "internalType": "bytes4",
          "name": "interfaceId",
          "type": "bytes4"
        }
      ],
      "name": "supportsInterface",
      "outputs": [
        {
          "internalType": "bool",
          "name": "",
          "type": "bool"
        }
      ],
      "stateMutability": "view",
      "type": "function"
    },
    {
      "inputs": [],
      "name": "symbol",
      "outputs": [
        {
          "internalType": "string",
          "name": "",
          "type": "string"
        }
      ],
      "stateMutability": "view",
      "type": "function"
    },
    {
      "inputs": [
        {
          "internalType": "uint256",
          "name": "tokenId",
          "type": "uint256"
        }
      ],
      "name": "tokenURI",
      "outputs": [
        {
          "internalType": "string",
          "name": "",
          "type": "string"
        }
      ],
      "stateMutability": "view",
      "type": "function"
    },
    {
      "inputs": [
        {
          "internalType": "address",
          "name": "from",
          "type": "address"
        },
        {
          "internalType": "address",
          "name": "to",
          "type": "address"
        },
        {
          "internalType": "uint256",
          "name": "tokenId",
          "type": "uint256"
        }
      ],
      "name": "transferFrom",
      "outputs": [],
      "stateMutability": "nonpayable",
      "type": "function"
    },
    {
      "inputs": [],
      "name": "transferFundsOut",
      "outputs": [],
      "stateMutability": "nonpayable",
      "type": "function"
    },
    {
      "inputs": [
        {
          "internalType": "address",
          "name": "newOwner",
          "type": "address"
        }
      ],
      "name": "transferOwnership",
      "outputs": [],
      "stateMutability": "nonpayable",
      "type": "function"
    },
    {
      "inputs": [
        {
          "internalType": "address",
          "name": "",
          "type": "address"
        },
        {
          "internalType": "uint256",
          "name": "",
          "type": "uint256"
        }
      ],
      "name": "uiisOwned",
      "outputs": [
        {
          "internalType": "uint256",
          "name": "",
          "type": "uint256"
        }
      ],
      "stateMutability": "view",
      "type": "function"
    }
  ],
  "transactionHash": "0xa783ffdf6bb145b9238e14f572786d1f829d449c73cff3e00d5d1b58ffc75bf7",
  "args": [],
  "numDeployments": 1,
  "solcInputHash": "3bb9a8bfbba7b0d23e5324b4eda443e4",
  "bytecode": "0x608060405260006007556001600860006101000a81548160ff02191690831515021790555064174876e8006009553480156200003a57600080fd5b506040518060400160405280601b81526020017f556e6976657273616c20496e76656e746f727920466163746f727900000000008152506040518060400160405280600381526020017f55494600000000000000000000000000000000000000000000000000000000008152508160009081620000b891906200043b565b508060019081620000ca91906200043b565b505050620000ed620000e1620000f360201b60201c565b620000fb60201b60201c565b62000522565b600033905090565b6000600660009054906101000a900473ffffffffffffffffffffffffffffffffffffffff16905081600660006101000a81548173ffffffffffffffffffffffffffffffffffffffff021916908373ffffffffffffffffffffffffffffffffffffffff1602179055508173ffffffffffffffffffffffffffffffffffffffff168173ffffffffffffffffffffffffffffffffffffffff167f8be0079c531659141344cd1fd0a4f28419497f9722a3daafe3b4186f6b6457e060405160405180910390a35050565b600081519050919050565b7f4e487b7100000000000000000000000000000000000000000000000000000000600052604160045260246000fd5b7f4e487b7100000000000000000000000000000000000000000000000000000000600052602260045260246000fd5b600060028204905060018216806200024357607f821691505b602082108103620002595762000258620001fb565b5b50919050565b60008190508160005260206000209050919050565b60006020601f8301049050919050565b600082821b905092915050565b600060088302620002c37fffffffffffffffffffffffffffffffffffffffffffffffffffffffffffffffff8262000284565b620002cf868362000284565b95508019841693508086168417925050509392505050565b6000819050919050565b6000819050919050565b60006200031c620003166200031084620002e7565b620002f1565b620002e7565b9050919050565b6000819050919050565b6200033883620002fb565b62000350620003478262000323565b84845462000291565b825550505050565b600090565b6200036762000358565b620003748184846200032d565b505050565b5b818110156200039c57620003906000826200035d565b6001810190506200037a565b5050565b601f821115620003eb57620003b5816200025f565b620003c08462000274565b81016020851015620003d0578190505b620003e8620003df8562000274565b83018262000379565b50505b505050565b600082821c905092915050565b60006200041060001984600802620003f0565b1980831691505092915050565b60006200042b8383620003fd565b9150826002028217905092915050565b6200044682620001c1565b67ffffffffffffffff811115620004625762000461620001cc565b5b6200046e82546200022a565b6200047b828285620003a0565b600060209050601f831160018114620004b357600084156200049e578287015190505b620004aa85826200041d565b8655506200051a565b601f198416620004c3866200025f565b60005b82811015620004ed57848901518255600182019150602085019450602081019050620004c6565b868310156200050d578489015162000509601f891682620003fd565b8355505b6001600288020188555050505b505050505050565b613d7380620005326000396000f3fe60806040526004361061019c5760003560e01c8063715018a6116100ec578063aa4ecdb91161008a578063bfb231d211610064578063bfb231d2146105f1578063c87b56dd14610632578063e985e9c51461066f578063f2fde38b146106ac5761019c565b8063aa4ecdb91461054e578063b88d4fde1461058b578063bd69ef20146105b45761019c565b806395a81d4e116100c657806395a81d4e1461048d57806395d89b41146104ca5780639b6507f0146104f5578063a22cb465146105255761019c565b8063715018a6146104205780638da5cb5b1461043757806393822557146104625761019c565b80633838aed111610159578063471a429411610133578063471a42941461033e5780634d3ef644146103695780636352211e146103a657806370a08231146103e35761019c565b80633838aed1146102d557806342842e0e146102ec57806342966c68146103155761019c565b806301ffc9a7146101a157806306fdde03146101de578063081812fc14610209578063095ea7b31461024657806323b872dd1461026f5780632851838114610298575b600080fd5b3480156101ad57600080fd5b506101c860048036038101906101c391906126cb565b6106d5565b6040516101d59190612713565b60405180910390f35b3480156101ea57600080fd5b506101f36107b7565b60405161020091906127be565b60405180910390f35b34801561021557600080fd5b50610230600480360381019061022b9190612816565b610849565b60405161023d9190612884565b60405180910390f35b34801561025257600080fd5b5061026d600480360381019061026891906128cb565b61088f565b005b34801561027b57600080fd5b506102966004803603810190610291919061290b565b6109a6565b005b3480156102a457600080fd5b506102bf60048036038101906102ba9190612816565b610a06565b6040516102cc9190612977565b60405180910390f35b3480156102e157600080fd5b506102ea610a35565b005b3480156102f857600080fd5b50610313600480360381019061030e919061290b565b610a8d565b005b34801561032157600080fd5b5061033c60048036038101906103379190612816565b610aad565b005b34801561034a57600080fd5b50610353610b09565b6040516103609190612713565b60405180910390f35b34801561037557600080fd5b50610390600480360381019061038b91906128cb565b610b1c565b60405161039d91906129a1565b60405180910390f35b3480156103b257600080fd5b506103cd60048036038101906103c89190612816565b610b4d565b6040516103da9190612884565b60405180910390f35b3480156103ef57600080fd5b5061040a600480360381019061040591906129bc565b610bfe565b60405161041791906129a1565b60405180910390f35b34801561042c57600080fd5b50610435610cb5565b005b34801561044357600080fd5b5061044c610cc9565b6040516104599190612884565b60405180910390f35b34801561046e57600080fd5b50610477610cf3565b60405161048491906129a1565b60405180910390f35b34801561049957600080fd5b506104b460048036038101906104af9190612816565b610cf9565b6040516104c19190612884565b60405180910390f35b3480156104d657600080fd5b506104df610d48565b6040516104ec91906127be565b60405180910390f35b61050f600480360381019061050a91906129e9565b610dda565b60405161051c91906129a1565b60405180910390f35b34801561053157600080fd5b5061054c60048036038101906105479190612a68565b6111bf565b005b34801561055a57600080fd5b5061057560048036038101906105709190612816565b6111d5565b6040516105829190612b3d565b60405180910390f35b34801561059757600080fd5b506105b260048036038101906105ad9190612c8d565b611327565b005b3480156105c057600080fd5b506105db60048036038101906105d691906129bc565b611389565b6040516105e89190612dbf565b60405180910390f35b3480156105fd57600080fd5b5061061860048036038101906106139190612816565b611420565b604051610629959493929190612de1565b60405180910390f35b34801561063e57600080fd5b5061065960048036038101906106549190612816565b6114c6565b60405161066691906127be565b60405180910390f35b34801561067b57600080fd5b5061069660048036038101906106919190612e34565b61152e565b6040516106a39190612713565b60405180910390f35b3480156106b857600080fd5b506106d360048036038101906106ce91906129bc565b6115c2565b005b60007f80ac58cd000000000000000000000000000000000000000000000000000000007bffffffffffffffffffffffffffffffffffffffffffffffffffffffff1916827bffffffffffffffffffffffffffffffffffffffffffffffffffffffff191614806107a057507f5b5e139f000000000000000000000000000000000000000000000000000000007bffffffffffffffffffffffffffffffffffffffffffffffffffffffff1916827bffffffffffffffffffffffffffffffffffffffffffffffffffffffff1916145b806107b057506107af82611645565b5b9050919050565b6060600080546107c690612ea3565b80601f01602080910402602001604051908101604052809291908181526020018280546107f290612ea3565b801561083f5780601f106108145761010080835404028352916020019161083f565b820191906000526020600020905b81548152906001019060200180831161082257829003601f168201915b5050505050905090565b6000610854826116af565b6004600083815260200190815260200160002060009054906101000a900473ffffffffffffffffffffffffffffffffffffffff169050919050565b600061089a82610b4d565b90508073ffffffffffffffffffffffffffffffffffffffff168373ffffffffffffffffffffffffffffffffffffffff160361090a576040517f08c379a000000000000000000000000000000000000000000000000000000000815260040161090190612f46565b60405180910390fd5b8073ffffffffffffffffffffffffffffffffffffffff166109296116fa565b73ffffffffffffffffffffffffffffffffffffffff1614806109585750610957816109526116fa565b61152e565b5b610997576040517f08c379a000000000000000000000000000000000000000000000000000000000815260040161098e90612fd8565b60405180910390fd5b6109a18383611702565b505050565b6109b76109b16116fa565b826117bb565b6109f6576040517f08c379a00000000000000000000000000000000000000000000000000000000081526004016109ed9061306a565b60405180910390fd5b610a01838383611850565b505050565b6000600a8281548110610a1c57610a1b61308a565b5b9060005260206000209060050201600301549050919050565b610a3d611ab6565b610a45610cc9565b73ffffffffffffffffffffffffffffffffffffffff166108fc479081150290604051600060405180830381858888f19350505050158015610a8a573d6000803e3d6000fd5b50565b610aa883838360405180602001604052806000815250611327565b505050565b610abe610ab86116fa565b826117bb565b610afd576040517f08c379a0000000000000000000000000000000000000000000000000000000008152600401610af49061306a565b60405180910390fd5b610b0681611b34565b50565b600860009054906101000a900460ff1681565b600b6020528160005260406000208181548110610b3857600080fd5b90600052602060002001600091509150505481565b6000806002600084815260200190815260200160002060009054906101000a900473ffffffffffffffffffffffffffffffffffffffff169050600073ffffffffffffffffffffffffffffffffffffffff168173ffffffffffffffffffffffffffffffffffffffff1603610bf5576040517f08c379a0000000000000000000000000000000000000000000000000000000008152600401610bec90613105565b60405180910390fd5b80915050919050565b60008073ffffffffffffffffffffffffffffffffffffffff168273ffffffffffffffffffffffffffffffffffffffff1603610c6e576040517f08c379a0000000000000000000000000000000000000000000000000000000008152600401610c6590613197565b60405180910390fd5b600360008373ffffffffffffffffffffffffffffffffffffffff1673ffffffffffffffffffffffffffffffffffffffff168152602001908152602001600020549050919050565b610cbd611ab6565b610cc76000611c51565b565b6000600660009054906101000a900473ffffffffffffffffffffffffffffffffffffffff16905090565b60095481565b6000600a8281548110610d0f57610d0e61308a565b5b906000526020600020906005020160010160009054906101000a900473ffffffffffffffffffffffffffffffffffffffff169050919050565b606060018054610d5790612ea3565b80601f0160208091040260200160405190810160405280929190818152602001828054610d8390612ea3565b8015610dd05780601f10610da557610100808354040283529160200191610dd0565b820191906000526020600020905b815481529060010190602001808311610db357829003601f168201915b5050505050905090565b6000610de4610cc9565b73ffffffffffffffffffffffffffffffffffffffff163373ffffffffffffffffffffffffffffffffffffffff161480610e30575060011515600860009054906101000a900460ff161515145b610e6f576040517f08c379a0000000000000000000000000000000000000000000000000000000008152600401610e6690613203565b60405180910390fd5b60ff841115610eb3576040517f08c379a0000000000000000000000000000000000000000000000000000000008152600401610eaa9061326f565b60405180910390fd5b600f831115610ef7576040517f08c379a0000000000000000000000000000000000000000000000000000000008152600401610eee906132db565b60405180910390fd5b6000808403610f0a576009549050610f1b565b83600954610f18919061345d565b90505b60003482604051602001610f3092919061356c565b60405160208183030381529060405290508134148190610f86576040517f08c379a0000000000000000000000000000000000000000000000000000000008152600401610f7d91906127be565b60405180910390fd5b50600a6040518060a001604052808673ffffffffffffffffffffffffffffffffffffffff1681526020018673ffffffffffffffffffffffffffffffffffffffff1681526020013373ffffffffffffffffffffffffffffffffffffffff168152602001610ff28989611d17565b81526020016000815250908060018154018082558091505060019003906000526020600020906005020160009091909190915060008201518160000160006101000a81548173ffffffffffffffffffffffffffffffffffffffff021916908373ffffffffffffffffffffffffffffffffffffffff16021790555060208201518160010160006101000a81548173ffffffffffffffffffffffffffffffffffffffff021916908373ffffffffffffffffffffffffffffffffffffffff16021790555060408201518160020160006101000a81548173ffffffffffffffffffffffffffffffffffffffff021916908373ffffffffffffffffffffffffffffffffffffffff1602179055506060820151816003015560808201518160040155505061112b336001600a8054905061112691906135ae565b611dee565b600b60008573ffffffffffffffffffffffffffffffffffffffff1673ffffffffffffffffffffffffffffffffffffffff1681526020019081526020016000206001600a8054905061117c91906135ae565b90806001815401808255809150506001900390600052602060002001600090919091909150556001600a805490506111b491906135ae565b925050509392505050565b6111d16111ca6116fa565b8383611e0c565b5050565b6111dd6125eb565b600a82815481106111f1576111f061308a565b5b90600052602060002090600502016040518060a00160405290816000820160009054906101000a900473ffffffffffffffffffffffffffffffffffffffff1673ffffffffffffffffffffffffffffffffffffffff1673ffffffffffffffffffffffffffffffffffffffff1681526020016001820160009054906101000a900473ffffffffffffffffffffffffffffffffffffffff1673ffffffffffffffffffffffffffffffffffffffff1673ffffffffffffffffffffffffffffffffffffffff1681526020016002820160009054906101000a900473ffffffffffffffffffffffffffffffffffffffff1673ffffffffffffffffffffffffffffffffffffffff1673ffffffffffffffffffffffffffffffffffffffff168152602001600382015481526020016004820154815250509050919050565b6113386113326116fa565b836117bb565b611377576040517f08c379a000000000000000000000000000000000000000000000000000000000815260040161136e9061306a565b60405180910390fd5b61138384848484611f78565b50505050565b6060600b60008373ffffffffffffffffffffffffffffffffffffffff1673ffffffffffffffffffffffffffffffffffffffff16815260200190815260200160002080548060200260200160405190810160405280929190818152602001828054801561141457602002820191906000526020600020905b815481526020019060010190808311611400575b50505050509050919050565b600a818154811061143057600080fd5b90600052602060002090600502016000915090508060000160009054906101000a900473ffffffffffffffffffffffffffffffffffffffff16908060010160009054906101000a900473ffffffffffffffffffffffffffffffffffffffff16908060020160009054906101000a900473ffffffffffffffffffffffffffffffffffffffff16908060030154908060040154905085565b60606114d1826116af565b60006114db611fd4565b905060008151116114fb5760405180602001604052806000815250611526565b8061150584611feb565b604051602001611516929190613613565b6040516020818303038152906040525b915050919050565b6000600560008473ffffffffffffffffffffffffffffffffffffffff1673ffffffffffffffffffffffffffffffffffffffff16815260200190815260200160002060008373ffffffffffffffffffffffffffffffffffffffff1673ffffffffffffffffffffffffffffffffffffffff16815260200190815260200160002060009054906101000a900460ff16905092915050565b6115ca611ab6565b600073ffffffffffffffffffffffffffffffffffffffff168173ffffffffffffffffffffffffffffffffffffffff1603611639576040517f08c379a0000000000000000000000000000000000000000000000000000000008152600401611630906136a9565b60405180910390fd5b61164281611c51565b50565b60007f01ffc9a7000000000000000000000000000000000000000000000000000000007bffffffffffffffffffffffffffffffffffffffffffffffffffffffff1916827bffffffffffffffffffffffffffffffffffffffffffffffffffffffff1916149050919050565b6116b88161214b565b6116f7576040517f08c379a00000000000000000000000000000000000000000000000000000000081526004016116ee90613105565b60405180910390fd5b50565b600033905090565b816004600083815260200190815260200160002060006101000a81548173ffffffffffffffffffffffffffffffffffffffff021916908373ffffffffffffffffffffffffffffffffffffffff160217905550808273ffffffffffffffffffffffffffffffffffffffff1661177583610b4d565b73ffffffffffffffffffffffffffffffffffffffff167f8c5be1e5ebec7d5bd14f71427d1e84f3dd0314c0f7b2291e5b200ac8c7c3b92560405160405180910390a45050565b6000806117c783610b4d565b90508073ffffffffffffffffffffffffffffffffffffffff168473ffffffffffffffffffffffffffffffffffffffff1614806118095750611808818561152e565b5b8061184757508373ffffffffffffffffffffffffffffffffffffffff1661182f84610849565b73ffffffffffffffffffffffffffffffffffffffff16145b91505092915050565b8273ffffffffffffffffffffffffffffffffffffffff1661187082610b4d565b73ffffffffffffffffffffffffffffffffffffffff16146118c6576040517f08c379a00000000000000000000000000000000000000000000000000000000081526004016118bd9061373b565b60405180910390fd5b600073ffffffffffffffffffffffffffffffffffffffff168273ffffffffffffffffffffffffffffffffffffffff1603611935576040517f08c379a000000000000000000000000000000000000000000000000000000000815260040161192c906137cd565b60405180910390fd5b6119408383836121b7565b61194b600082611702565b6001600360008573ffffffffffffffffffffffffffffffffffffffff1673ffffffffffffffffffffffffffffffffffffffff168152602001908152602001600020600082825461199b91906135ae565b925050819055506001600360008473ffffffffffffffffffffffffffffffffffffffff1673ffffffffffffffffffffffffffffffffffffffff16815260200190815260200160002060008282546119f291906137ed565b92505081905550816002600083815260200190815260200160002060006101000a81548173ffffffffffffffffffffffffffffffffffffffff021916908373ffffffffffffffffffffffffffffffffffffffff160217905550808273ffffffffffffffffffffffffffffffffffffffff168473ffffffffffffffffffffffffffffffffffffffff167fddf252ad1be2c89b69c2b068fc378daa952ba7f163c4a11628f55a4df523b3ef60405160405180910390a4611ab18383836121bc565b505050565b611abe6116fa565b73ffffffffffffffffffffffffffffffffffffffff16611adc610cc9565b73ffffffffffffffffffffffffffffffffffffffff1614611b32576040517f08c379a0000000000000000000000000000000000000000000000000000000008152600401611b299061386d565b60405180910390fd5b565b6000611b3f82610b4d565b9050611b4d816000846121b7565b611b58600083611702565b6001600360008373ffffffffffffffffffffffffffffffffffffffff1673ffffffffffffffffffffffffffffffffffffffff1681526020019081526020016000206000828254611ba891906135ae565b925050819055506002600083815260200190815260200160002060006101000a81549073ffffffffffffffffffffffffffffffffffffffff021916905581600073ffffffffffffffffffffffffffffffffffffffff168273ffffffffffffffffffffffffffffffffffffffff167fddf252ad1be2c89b69c2b068fc378daa952ba7f163c4a11628f55a4df523b3ef60405160405180910390a4611c4d816000846121bc565b5050565b6000600660009054906101000a900473ffffffffffffffffffffffffffffffffffffffff16905081600660006101000a81548173ffffffffffffffffffffffffffffffffffffffff021916908373ffffffffffffffffffffffffffffffffffffffff1602179055508173ffffffffffffffffffffffffffffffffffffffff168173ffffffffffffffffffffffffffffffffffffffff167f8be0079c531659141344cd1fd0a4f28419497f9722a3daafe3b4186f6b6457e060405160405180910390a35050565b600080611d226121c1565b604051602001611d329190612977565b60405160208183030381529060405290508360f81b81600081518110611d5b57611d5a61308a565b5b60200101907effffffffffffffffffffffffffffffffffffffffffffffffffffffffffffff1916908160001a9053506000831115611ddb578260f81b81600281518110611dab57611daa61308a565b5b60200101907effffffffffffffffffffffffffffffffffffffffffffffffffffffffffffff1916908160001a9053505b80611de5906138ca565b91505092915050565b611e0882826040518060200160405280600081525061220d565b5050565b8173ffffffffffffffffffffffffffffffffffffffff168373ffffffffffffffffffffffffffffffffffffffff1603611e7a576040517f08c379a0000000000000000000000000000000000000000000000000000000008152600401611e719061397d565b60405180910390fd5b80600560008573ffffffffffffffffffffffffffffffffffffffff1673ffffffffffffffffffffffffffffffffffffffff16815260200190815260200160002060008473ffffffffffffffffffffffffffffffffffffffff1673ffffffffffffffffffffffffffffffffffffffff16815260200190815260200160002060006101000a81548160ff0219169083151502179055508173ffffffffffffffffffffffffffffffffffffffff168373ffffffffffffffffffffffffffffffffffffffff167f17307eab39ab6107e8899845ad3d59bd9653f200f220920489ca2b5937696c3183604051611f6b9190612713565b60405180910390a3505050565b611f83848484611850565b611f8f84848484612268565b611fce576040517f08c379a0000000000000000000000000000000000000000000000000000000008152600401611fc590613a0f565b60405180910390fd5b50505050565b606060405180602001604052806000815250905090565b606060008203612032576040518060400160405280600181526020017f30000000000000000000000000000000000000000000000000000000000000008152509050612146565b600082905060005b6000821461206457808061204d90613a2f565b915050600a8261205d9190613aa6565b915061203a565b60008167ffffffffffffffff8111156120805761207f612b62565b5b6040519080825280601f01601f1916602001820160405280156120b25781602001600182028036833780820191505090505b5090505b6000851461213f576001826120cb91906135ae565b9150600a856120da9190613ad7565b60306120e691906137ed565b60f81b8183815181106120fc576120fb61308a565b5b60200101907effffffffffffffffffffffffffffffffffffffffffffffffffffffffffffff1916908160001a905350600a856121389190613aa6565b94506120b6565b8093505050505b919050565b60008073ffffffffffffffffffffffffffffffffffffffff166002600084815260200190815260200160002060009054906101000a900473ffffffffffffffffffffffffffffffffffffffff1673ffffffffffffffffffffffffffffffffffffffff1614159050919050565b505050565b505050565b6000600760008154809291906121d690613a2f565b919050555060075442336040516020016121f293929190613b50565b60405160208183030381529060405280519060200120905090565b61221783836123ef565b6122246000848484612268565b612263576040517f08c379a000000000000000000000000000000000000000000000000000000000815260040161225a90613a0f565b60405180910390fd5b505050565b60006122898473ffffffffffffffffffffffffffffffffffffffff166125c8565b156123e2578373ffffffffffffffffffffffffffffffffffffffff1663150b7a026122b26116fa565b8786866040518563ffffffff1660e01b81526004016122d49493929190613bd7565b6020604051808303816000875af192505050801561231057506040513d601f19601f8201168201806040525081019061230d9190613c38565b60015b612392573d8060008114612340576040519150601f19603f3d011682016040523d82523d6000602084013e612345565b606091505b50600081510361238a576040517f08c379a000000000000000000000000000000000000000000000000000000000815260040161238190613a0f565b60405180910390fd5b805181602001fd5b63150b7a0260e01b7bffffffffffffffffffffffffffffffffffffffffffffffffffffffff1916817bffffffffffffffffffffffffffffffffffffffffffffffffffffffff1916149150506123e7565b600190505b949350505050565b600073ffffffffffffffffffffffffffffffffffffffff168273ffffffffffffffffffffffffffffffffffffffff160361245e576040517f08c379a000000000000000000000000000000000000000000000000000000000815260040161245590613cb1565b60405180910390fd5b6124678161214b565b156124a7576040517f08c379a000000000000000000000000000000000000000000000000000000000815260040161249e90613d1d565b60405180910390fd5b6124b3600083836121b7565b6001600360008473ffffffffffffffffffffffffffffffffffffffff1673ffffffffffffffffffffffffffffffffffffffff168152602001908152602001600020600082825461250391906137ed565b92505081905550816002600083815260200190815260200160002060006101000a81548173ffffffffffffffffffffffffffffffffffffffff021916908373ffffffffffffffffffffffffffffffffffffffff160217905550808273ffffffffffffffffffffffffffffffffffffffff16600073ffffffffffffffffffffffffffffffffffffffff167fddf252ad1be2c89b69c2b068fc378daa952ba7f163c4a11628f55a4df523b3ef60405160405180910390a46125c4600083836121bc565b5050565b6000808273ffffffffffffffffffffffffffffffffffffffff163b119050919050565b6040518060a00160405280600073ffffffffffffffffffffffffffffffffffffffff168152602001600073ffffffffffffffffffffffffffffffffffffffff168152602001600073ffffffffffffffffffffffffffffffffffffffff16815260200160008019168152602001600081525090565b6000604051905090565b600080fd5b600080fd5b60007fffffffff0000000000000000000000000000000000000000000000000000000082169050919050565b6126a881612673565b81146126b357600080fd5b50565b6000813590506126c58161269f565b92915050565b6000602082840312156126e1576126e0612669565b5b60006126ef848285016126b6565b91505092915050565b60008115159050919050565b61270d816126f8565b82525050565b60006020820190506127286000830184612704565b92915050565b600081519050919050565b600082825260208201905092915050565b60005b8381101561276857808201518184015260208101905061274d565b60008484015250505050565b6000601f19601f8301169050919050565b60006127908261272e565b61279a8185612739565b93506127aa81856020860161274a565b6127b381612774565b840191505092915050565b600060208201905081810360008301526127d88184612785565b905092915050565b6000819050919050565b6127f3816127e0565b81146127fe57600080fd5b50565b600081359050612810816127ea565b92915050565b60006020828403121561282c5761282b612669565b5b600061283a84828501612801565b91505092915050565b600073ffffffffffffffffffffffffffffffffffffffff82169050919050565b600061286e82612843565b9050919050565b61287e81612863565b82525050565b60006020820190506128996000830184612875565b92915050565b6128a881612863565b81146128b357600080fd5b50565b6000813590506128c58161289f565b92915050565b600080604083850312156128e2576128e1612669565b5b60006128f0858286016128b6565b925050602061290185828601612801565b9150509250929050565b60008060006060848603121561292457612923612669565b5b6000612932868287016128b6565b9350506020612943868287016128b6565b925050604061295486828701612801565b9150509250925092565b6000819050919050565b6129718161295e565b82525050565b600060208201905061298c6000830184612968565b92915050565b61299b816127e0565b82525050565b60006020820190506129b66000830184612992565b92915050565b6000602082840312156129d2576129d1612669565b5b60006129e0848285016128b6565b91505092915050565b600080600060608486031215612a0257612a01612669565b5b6000612a1086828701612801565b9350506020612a2186828701612801565b9250506040612a32868287016128b6565b9150509250925092565b612a45816126f8565b8114612a5057600080fd5b50565b600081359050612a6281612a3c565b92915050565b60008060408385031215612a7f57612a7e612669565b5b6000612a8d858286016128b6565b9250506020612a9e85828601612a53565b9150509250929050565b612ab181612863565b82525050565b612ac08161295e565b82525050565b612acf816127e0565b82525050565b60a082016000820151612aeb6000850182612aa8565b506020820151612afe6020850182612aa8565b506040820151612b116040850182612aa8565b506060820151612b246060850182612ab7565b506080820151612b376080850182612ac6565b50505050565b600060a082019050612b526000830184612ad5565b92915050565b600080fd5b600080fd5b7f4e487b7100000000000000000000000000000000000000000000000000000000600052604160045260246000fd5b612b9a82612774565b810181811067ffffffffffffffff82111715612bb957612bb8612b62565b5b80604052505050565b6000612bcc61265f565b9050612bd88282612b91565b919050565b600067ffffffffffffffff821115612bf857612bf7612b62565b5b612c0182612774565b9050602081019050919050565b82818337600083830152505050565b6000612c30612c2b84612bdd565b612bc2565b905082815260208101848484011115612c4c57612c4b612b5d565b5b612c57848285612c0e565b509392505050565b600082601f830112612c7457612c73612b58565b5b8135612c84848260208601612c1d565b91505092915050565b60008060008060808587031215612ca757612ca6612669565b5b6000612cb5878288016128b6565b9450506020612cc6878288016128b6565b9350506040612cd787828801612801565b925050606085013567ffffffffffffffff811115612cf857612cf761266e565b5b612d0487828801612c5f565b91505092959194509250565b600081519050919050565b600082825260208201905092915050565b6000819050602082019050919050565b6000612d488383612ac6565b60208301905092915050565b6000602082019050919050565b6000612d6c82612d10565b612d768185612d1b565b9350612d8183612d2c565b8060005b83811015612db2578151612d998882612d3c565b9750612da483612d54565b925050600181019050612d85565b5085935050505092915050565b60006020820190508181036000830152612dd98184612d61565b905092915050565b600060a082019050612df66000830188612875565b612e036020830187612875565b612e106040830186612875565b612e1d6060830185612968565b612e2a6080830184612992565b9695505050505050565b60008060408385031215612e4b57612e4a612669565b5b6000612e59858286016128b6565b9250506020612e6a858286016128b6565b9150509250929050565b7f4e487b7100000000000000000000000000000000000000000000000000000000600052602260045260246000fd5b60006002820490506001821680612ebb57607f821691505b602082108103612ece57612ecd612e74565b5b50919050565b7f4552433732313a20617070726f76616c20746f2063757272656e74206f776e6560008201527f7200000000000000000000000000000000000000000000000000000000000000602082015250565b6000612f30602183612739565b9150612f3b82612ed4565b604082019050919050565b60006020820190508181036000830152612f5f81612f23565b9050919050565b7f4552433732313a20617070726f76652063616c6c6572206973206e6f7420746f60008201527f6b656e206f776e6572206e6f7220617070726f76656420666f7220616c6c0000602082015250565b6000612fc2603e83612739565b9150612fcd82612f66565b604082019050919050565b60006020820190508181036000830152612ff181612fb5565b9050919050565b7f4552433732313a2063616c6c6572206973206e6f7420746f6b656e206f776e6560008201527f72206e6f7220617070726f766564000000000000000000000000000000000000602082015250565b6000613054602e83612739565b915061305f82612ff8565b604082019050919050565b6000602082019050818103600083015261308381613047565b9050919050565b7f4e487b7100000000000000000000000000000000000000000000000000000000600052603260045260246000fd5b7f4552433732313a20696e76616c696420746f6b656e2049440000000000000000600082015250565b60006130ef601883612739565b91506130fa826130b9565b602082019050919050565b6000602082019050818103600083015261311e816130e2565b9050919050565b7f4552433732313a2061646472657373207a65726f206973206e6f74206120766160008201527f6c6964206f776e65720000000000000000000000000000000000000000000000602082015250565b6000613181602983612739565b915061318c82613125565b604082019050919050565b600060208201905081810360008301526131b081613174565b9050919050565b7f4d696e74696e67206973206e6f74206163746976650000000000000000000000600082015250565b60006131ed601583612739565b91506131f8826131b7565b602082019050919050565b6000602082019050818103600083015261321c816131e0565b9050919050565b7f42616420747970652076616c7565000000000000000000000000000000000000600082015250565b6000613259600e83612739565b915061326482613223565b602082019050919050565b600060208201905081810360008301526132888161324c565b9050919050565b7f426164207175616c6974792076616c7565000000000000000000000000000000600082015250565b60006132c5601183612739565b91506132d08261328f565b602082019050919050565b600060208201905081810360008301526132f4816132b8565b9050919050565b7f4e487b7100000000000000000000000000000000000000000000000000000000600052601160045260246000fd5b60008160011c9050919050565b6000808291508390505b60018511156133815780860481111561335d5761335c6132fb565b5b600185161561336c5780820291505b808102905061337a8561332a565b9450613341565b94509492505050565b60008261339a5760019050613456565b816133a85760009050613456565b81600181146133be57600281146133c8576133f7565b6001915050613456565b60ff8411156133da576133d96132fb565b5b8360020a9150848211156133f1576133f06132fb565b5b50613456565b5060208310610133831016604e8410600b841016171561342c5782820a905083811115613427576134266132fb565b5b613456565b6134398484846001613337565b925090508184048111156134505761344f6132fb565b5b81810290505b9392505050565b6000613468826127e0565b9150613473836127e0565b92506134a07fffffffffffffffffffffffffffffffffffffffffffffffffffffffffffffffff848461338a565b905092915050565b600081905092915050565b7f50617965643a2000000000000000000000000000000000000000000000000000600082015250565b60006134e96007836134a8565b91506134f4826134b3565b600782019050919050565b6000819050919050565b61351a613515826127e0565b6134ff565b82525050565b7f2c20636f73742069733a20000000000000000000000000000000000000000000600082015250565b6000613556600b836134a8565b915061356182613520565b600b82019050919050565b6000613577826134dc565b91506135838285613509565b60208201915061359282613549565b915061359e8284613509565b6020820191508190509392505050565b60006135b9826127e0565b91506135c4836127e0565b92508282039050818111156135dc576135db6132fb565b5b92915050565b60006135ed8261272e565b6135f781856134a8565b935061360781856020860161274a565b80840191505092915050565b600061361f82856135e2565b915061362b82846135e2565b91508190509392505050565b7f4f776e61626c653a206e6577206f776e657220697320746865207a65726f206160008201527f6464726573730000000000000000000000000000000000000000000000000000602082015250565b6000613693602683612739565b915061369e82613637565b604082019050919050565b600060208201905081810360008301526136c281613686565b9050919050565b7f4552433732313a207472616e736665722066726f6d20696e636f72726563742060008201527f6f776e6572000000000000000000000000000000000000000000000000000000602082015250565b6000613725602583612739565b9150613730826136c9565b604082019050919050565b6000602082019050818103600083015261375481613718565b9050919050565b7f4552433732313a207472616e7366657220746f20746865207a65726f2061646460008201527f7265737300000000000000000000000000000000000000000000000000000000602082015250565b60006137b7602483612739565b91506137c28261375b565b604082019050919050565b600060208201905081810360008301526137e6816137aa565b9050919050565b60006137f8826127e0565b9150613803836127e0565b925082820190508082111561381b5761381a6132fb565b5b92915050565b7f4f776e61626c653a2063616c6c6572206973206e6f7420746865206f776e6572600082015250565b6000613857602083612739565b915061386282613821565b602082019050919050565b600060208201905081810360008301526138868161384a565b9050919050565b600081519050919050565b6000819050602082019050919050565b60006138b4825161295e565b80915050919050565b600082821b905092915050565b60006138d58261388d565b826138df84613898565b90506138ea816138a8565b9250602082101561392a576139257fffffffffffffffffffffffffffffffffffffffffffffffffffffffffffffffff836020036008026138bd565b831692505b5050919050565b7f4552433732313a20617070726f766520746f2063616c6c657200000000000000600082015250565b6000613967601983612739565b915061397282613931565b602082019050919050565b600060208201905081810360008301526139968161395a565b9050919050565b7f4552433732313a207472616e7366657220746f206e6f6e20455243373231526560008201527f63656976657220696d706c656d656e7465720000000000000000000000000000602082015250565b60006139f9603283612739565b9150613a048261399d565b604082019050919050565b60006020820190508181036000830152613a28816139ec565b9050919050565b6000613a3a826127e0565b91507fffffffffffffffffffffffffffffffffffffffffffffffffffffffffffffffff8203613a6c57613a6b6132fb565b5b600182019050919050565b7f4e487b7100000000000000000000000000000000000000000000000000000000600052601260045260246000fd5b6000613ab1826127e0565b9150613abc836127e0565b925082613acc57613acb613a77565b5b828204905092915050565b6000613ae2826127e0565b9150613aed836127e0565b925082613afd57613afc613a77565b5b828206905092915050565b60008160601b9050919050565b6000613b2082613b08565b9050919050565b6000613b3282613b15565b9050919050565b613b4a613b4582612863565b613b27565b82525050565b6000613b5c8286613509565b602082019150613b6c8285613509565b602082019150613b7c8284613b39565b601482019150819050949350505050565b600082825260208201905092915050565b6000613ba98261388d565b613bb38185613b8d565b9350613bc381856020860161274a565b613bcc81612774565b840191505092915050565b6000608082019050613bec6000830187612875565b613bf96020830186612875565b613c066040830185612992565b8181036060830152613c188184613b9e565b905095945050505050565b600081519050613c328161269f565b92915050565b600060208284031215613c4e57613c4d612669565b5b6000613c5c84828501613c23565b91505092915050565b7f4552433732313a206d696e7420746f20746865207a65726f2061646472657373600082015250565b6000613c9b602083612739565b9150613ca682613c65565b602082019050919050565b60006020820190508181036000830152613cca81613c8e565b9050919050565b7f4552433732313a20746f6b656e20616c7265616479206d696e74656400000000600082015250565b6000613d07601c83612739565b9150613d1282613cd1565b602082019050919050565b60006020820190508181036000830152613d3681613cfa565b905091905056fea26469706673582212207a659d58c1b586106e57298d9af3fb0654ac3d56f60b155031cdab6409e0072264736f6c63430008110033",
  "devdoc": {
    "kind": "dev",
    "methods": {
      "approve(address,uint256)": {
        "details": "See {IERC721-approve}."
      },
      "balanceOf(address)": {
        "details": "See {IERC721-balanceOf}."
      },
      "burn(uint256)": {
        "details": "Burns `tokenId`. See {ERC721-_burn}. Requirements: - The caller must own `tokenId` or be an approved operator."
      },
      "getApproved(uint256)": {
        "details": "See {IERC721-getApproved}."
      },
      "isApprovedForAll(address,address)": {
        "details": "See {IERC721-isApprovedForAll}."
      },
      "name()": {
        "details": "See {IERC721Metadata-name}."
      },
      "owner()": {
        "details": "Returns the address of the current owner."
      },
      "ownerOf(uint256)": {
        "details": "See {IERC721-ownerOf}."
      },
      "renounceOwnership()": {
        "details": "Leaves the contract without owner. It will not be possible to call `onlyOwner` functions anymore. Can only be called by the current owner. NOTE: Renouncing ownership will leave the contract without an owner, thereby removing any functionality that is only available to the owner."
      },
      "safeTransferFrom(address,address,uint256)": {
        "details": "See {IERC721-safeTransferFrom}."
      },
      "safeTransferFrom(address,address,uint256,bytes)": {
        "details": "See {IERC721-safeTransferFrom}."
      },
      "setApprovalForAll(address,bool)": {
        "details": "See {IERC721-setApprovalForAll}."
      },
      "supportsInterface(bytes4)": {
        "details": "See {IERC165-supportsInterface}."
      },
      "symbol()": {
        "details": "See {IERC721Metadata-symbol}."
      },
      "tokenURI(uint256)": {
        "details": "See {IERC721Metadata-tokenURI}."
      },
      "transferFrom(address,address,uint256)": {
        "details": "See {IERC721-transferFrom}."
      },
      "transferOwnership(address)": {
        "details": "Transfers ownership of the contract to a new account (`newOwner`). Can only be called by the current owner."
      }
    },
    "version": 1
  },
  "userdoc": {
    "kind": "user",
    "methods": {},
    "version": 1
  },
  "storageLayout": {
    "storage": [
      {
        "astId": 138,
        "contract": "contracts/UniversalInventory.sol:UniversalInventoryFactory",
        "label": "_name",
        "offset": 0,
        "slot": "0",
        "type": "t_string_storage"
      },
      {
        "astId": 140,
        "contract": "contracts/UniversalInventory.sol:UniversalInventoryFactory",
        "label": "_symbol",
        "offset": 0,
        "slot": "1",
        "type": "t_string_storage"
      },
      {
        "astId": 144,
        "contract": "contracts/UniversalInventory.sol:UniversalInventoryFactory",
        "label": "_owners",
        "offset": 0,
        "slot": "2",
        "type": "t_mapping(t_uint256,t_address)"
      },
      {
        "astId": 148,
        "contract": "contracts/UniversalInventory.sol:UniversalInventoryFactory",
        "label": "_balances",
        "offset": 0,
        "slot": "3",
        "type": "t_mapping(t_address,t_uint256)"
      },
      {
        "astId": 152,
        "contract": "contracts/UniversalInventory.sol:UniversalInventoryFactory",
        "label": "_tokenApprovals",
        "offset": 0,
        "slot": "4",
        "type": "t_mapping(t_uint256,t_address)"
      },
      {
        "astId": 158,
        "contract": "contracts/UniversalInventory.sol:UniversalInventoryFactory",
        "label": "_operatorApprovals",
        "offset": 0,
        "slot": "5",
        "type": "t_mapping(t_address,t_mapping(t_address,t_bool))"
      },
      {
        "astId": 7,
        "contract": "contracts/UniversalInventory.sol:UniversalInventoryFactory",
        "label": "_owner",
        "offset": 0,
        "slot": "6",
        "type": "t_address"
      },
      {
        "astId": 11933,
        "contract": "contracts/UniversalInventory.sol:UniversalInventoryFactory",
        "label": "TODO_randomSeed",
        "offset": 0,
        "slot": "7",
        "type": "t_uint256"
      },
      {
        "astId": 11936,
        "contract": "contracts/UniversalInventory.sol:UniversalInventoryFactory",
        "label": "mintIsActive",
        "offset": 0,
        "slot": "8",
        "type": "t_bool"
      },
      {
        "astId": 11939,
        "contract": "contracts/UniversalInventory.sol:UniversalInventoryFactory",
        "label": "baseCost",
        "offset": 0,
        "slot": "9",
        "type": "t_uint256"
      },
      {
        "astId": 11956,
        "contract": "contracts/UniversalInventory.sol:UniversalInventoryFactory",
        "label": "items",
        "offset": 0,
        "slot": "10",
        "type": "t_array(t_struct(UniversalInventoryItem)11952_storage)dyn_storage"
      },
      {
        "astId": 11961,
        "contract": "contracts/UniversalInventory.sol:UniversalInventoryFactory",
        "label": "uiisOwned",
        "offset": 0,
        "slot": "11",
        "type": "t_mapping(t_address,t_array(t_uint256)dyn_storage)"
      }
    ],
    "types": {
      "t_address": {
        "encoding": "inplace",
        "label": "address",
        "numberOfBytes": "20"
      },
      "t_array(t_struct(UniversalInventoryItem)11952_storage)dyn_storage": {
        "base": "t_struct(UniversalInventoryItem)11952_storage",
        "encoding": "dynamic_array",
        "label": "struct UniversalInventoryFactory.UniversalInventoryItem[]",
        "numberOfBytes": "32"
      },
      "t_array(t_uint256)dyn_storage": {
        "base": "t_uint256",
        "encoding": "dynamic_array",
        "label": "uint256[]",
        "numberOfBytes": "32"
      },
      "t_bool": {
        "encoding": "inplace",
        "label": "bool",
        "numberOfBytes": "1"
      },
      "t_bytes32": {
        "encoding": "inplace",
        "label": "bytes32",
        "numberOfBytes": "32"
      },
      "t_mapping(t_address,t_array(t_uint256)dyn_storage)": {
        "encoding": "mapping",
        "key": "t_address",
        "label": "mapping(address => uint256[])",
        "numberOfBytes": "32",
        "value": "t_array(t_uint256)dyn_storage"
      },
      "t_mapping(t_address,t_bool)": {
        "encoding": "mapping",
        "key": "t_address",
        "label": "mapping(address => bool)",
        "numberOfBytes": "32",
        "value": "t_bool"
      },
      "t_mapping(t_address,t_mapping(t_address,t_bool))": {
        "encoding": "mapping",
        "key": "t_address",
        "label": "mapping(address => mapping(address => bool))",
        "numberOfBytes": "32",
        "value": "t_mapping(t_address,t_bool)"
      },
      "t_mapping(t_address,t_uint256)": {
        "encoding": "mapping",
        "key": "t_address",
        "label": "mapping(address => uint256)",
        "numberOfBytes": "32",
        "value": "t_uint256"
      },
      "t_mapping(t_uint256,t_address)": {
        "encoding": "mapping",
        "key": "t_uint256",
        "label": "mapping(uint256 => address)",
        "numberOfBytes": "32",
        "value": "t_address"
      },
      "t_string_storage": {
        "encoding": "bytes",
        "label": "string",
        "numberOfBytes": "32"
      },
      "t_struct(UniversalInventoryItem)11952_storage": {
        "encoding": "inplace",
        "label": "struct UniversalInventoryFactory.UniversalInventoryItem",
        "members": [
          {
            "astId": 11943,
            "contract": "contracts/UniversalInventory.sol:UniversalInventoryFactory",
            "label": "originalOwner",
            "offset": 0,
            "slot": "0",
            "type": "t_address"
          },
          {
            "astId": 11945,
            "contract": "contracts/UniversalInventory.sol:UniversalInventoryFactory",
            "label": "currentOwner",
            "offset": 0,
            "slot": "1",
            "type": "t_address"
          },
          {
            "astId": 11947,
            "contract": "contracts/UniversalInventory.sol:UniversalInventoryFactory",
            "label": "creator",
            "offset": 0,
            "slot": "2",
            "type": "t_address"
          },
          {
            "astId": 11949,
            "contract": "contracts/UniversalInventory.sol:UniversalInventoryFactory",
            "label": "properties",
            "offset": 0,
            "slot": "3",
            "type": "t_bytes32"
          },
          {
            "astId": 11951,
            "contract": "contracts/UniversalInventory.sol:UniversalInventoryFactory",
            "label": "taxonomyVersion",
            "offset": 0,
            "slot": "4",
            "type": "t_uint256"
          }
        ],
        "numberOfBytes": "160"
      },
      "t_uint256": {
        "encoding": "inplace",
        "label": "uint256",
        "numberOfBytes": "32"
      }
    }
  }
}