{
  "address": "0xC26fEd1Cd2cd15D6Ce4787e335CAAb49A5a16581",
  "abi": [
    {
      "inputs": [],
      "stateMutability": "nonpayable",
      "type": "constructor"
    },
    {
      "anonymous": false,
      "inputs": [
        {
          "indexed": true,
          "internalType": "address",
          "name": "owner",
          "type": "address"
        },
        {
          "indexed": true,
          "internalType": "address",
          "name": "approved",
          "type": "address"
        },
        {
          "indexed": true,
          "internalType": "uint256",
          "name": "tokenId",
          "type": "uint256"
        }
      ],
      "name": "Approval",
      "type": "event"
    },
    {
      "anonymous": false,
      "inputs": [
        {
          "indexed": true,
          "internalType": "address",
          "name": "owner",
          "type": "address"
        },
        {
          "indexed": true,
          "internalType": "address",
          "name": "operator",
          "type": "address"
        },
        {
          "indexed": false,
          "internalType": "bool",
          "name": "approved",
          "type": "bool"
        }
      ],
      "name": "ApprovalForAll",
      "type": "event"
    },
    {
      "anonymous": false,
      "inputs": [],
      "name": "NewItem",
      "type": "event"
    },
    {
      "anonymous": false,
      "inputs": [
        {
          "indexed": true,
          "internalType": "address",
          "name": "previousOwner",
          "type": "address"
        },
        {
          "indexed": true,
          "internalType": "address",
          "name": "newOwner",
          "type": "address"
        }
      ],
      "name": "OwnershipTransferred",
      "type": "event"
    },
    {
      "anonymous": false,
      "inputs": [
        {
          "indexed": true,
          "internalType": "address",
          "name": "from",
          "type": "address"
        },
        {
          "indexed": true,
          "internalType": "address",
          "name": "to",
          "type": "address"
        },
        {
          "indexed": true,
          "internalType": "uint256",
          "name": "tokenId",
          "type": "uint256"
        }
      ],
      "name": "Transfer",
      "type": "event"
    },
    {
      "inputs": [
        {
          "internalType": "address",
          "name": "to",
          "type": "address"
        },
        {
          "internalType": "uint256",
          "name": "tokenId",
          "type": "uint256"
        }
      ],
      "name": "approve",
      "outputs": [],
      "stateMutability": "nonpayable",
      "type": "function"
    },
    {
      "inputs": [
        {
          "internalType": "address",
          "name": "owner",
          "type": "address"
        }
      ],
      "name": "balanceOf",
      "outputs": [
        {
          "internalType": "uint256",
          "name": "",
          "type": "uint256"
        }
      ],
      "stateMutability": "view",
      "type": "function"
    },
    {
      "inputs": [],
      "name": "baseCost",
      "outputs": [
        {
          "internalType": "uint256",
          "name": "",
          "type": "uint256"
        }
      ],
      "stateMutability": "view",
      "type": "function"
    },
    {
      "inputs": [
        {
          "internalType": "uint256",
          "name": "tokenId",
          "type": "uint256"
        }
      ],
      "name": "burn",
      "outputs": [],
      "stateMutability": "nonpayable",
      "type": "function"
    },
    {
      "inputs": [
        {
          "internalType": "uint256",
          "name": "_id",
          "type": "uint256"
        }
      ],
      "name": "extGetCurrentOwner",
      "outputs": [
        {
          "internalType": "address",
          "name": "",
          "type": "address"
        }
      ],
      "stateMutability": "view",
      "type": "function"
    },
    {
      "inputs": [
        {
          "internalType": "uint256",
          "name": "_id",
          "type": "uint256"
        }
      ],
      "name": "extGetItem",
      "outputs": [
        {
          "components": [
            {
              "internalType": "address",
              "name": "originalOwner",
              "type": "address"
            },
            {
              "internalType": "address",
              "name": "currentOwner",
              "type": "address"
            },
            {
              "internalType": "address",
              "name": "creator",
              "type": "address"
            },
            {
              "internalType": "bytes32",
              "name": "properties",
              "type": "bytes32"
            },
            {
              "internalType": "uint256",
              "name": "taxonomyVersion",
              "type": "uint256"
            }
          ],
          "internalType": "struct UniversalInventoryFactory.UniversalInventoryItem",
          "name": "",
          "type": "tuple"
        }
      ],
      "stateMutability": "view",
      "type": "function"
    },
    {
      "inputs": [
        {
          "internalType": "address",
          "name": "_currentOwner",
          "type": "address"
        }
      ],
      "name": "extGetListOfUIIsOwned",
      "outputs": [
        {
          "internalType": "uint256[]",
          "name": "",
          "type": "uint256[]"
        }
      ],
      "stateMutability": "view",
      "type": "function"
    },
    {
      "inputs": [
        {
          "internalType": "uint256",
          "name": "_id",
          "type": "uint256"
        }
      ],
      "name": "extGetProperties",
      "outputs": [
        {
          "internalType": "bytes32",
          "name": "",
          "type": "bytes32"
        }
      ],
      "stateMutability": "view",
      "type": "function"
    },
    {
      "inputs": [
        {
          "internalType": "uint256",
          "name": "tokenId",
          "type": "uint256"
        }
      ],
      "name": "getApproved",
      "outputs": [
        {
          "internalType": "address",
          "name": "",
          "type": "address"
        }
      ],
      "stateMutability": "view",
      "type": "function"
    },
    {
      "inputs": [
        {
          "internalType": "address",
          "name": "owner",
          "type": "address"
        },
        {
          "internalType": "address",
          "name": "operator",
          "type": "address"
        }
      ],
      "name": "isApprovedForAll",
      "outputs": [
        {
          "internalType": "bool",
          "name": "",
          "type": "bool"
        }
      ],
      "stateMutability": "view",
      "type": "function"
    },
    {
      "inputs": [
        {
          "internalType": "uint256",
          "name": "",
          "type": "uint256"
        }
      ],
      "name": "items",
      "outputs": [
        {
          "internalType": "address",
          "name": "originalOwner",
          "type": "address"
        },
        {
          "internalType": "address",
          "name": "currentOwner",
          "type": "address"
        },
        {
          "internalType": "address",
          "name": "creator",
          "type": "address"
        },
        {
          "internalType": "bytes32",
          "name": "properties",
          "type": "bytes32"
        },
        {
          "internalType": "uint256",
          "name": "taxonomyVersion",
          "type": "uint256"
        }
      ],
      "stateMutability": "view",
      "type": "function"
    },
    {
      "inputs": [],
      "name": "mintIsActive",
      "outputs": [
        {
          "internalType": "bool",
          "name": "",
          "type": "bool"
        }
      ],
      "stateMutability": "view",
      "type": "function"
    },
    {
      "inputs": [
        {
          "internalType": "uint256",
          "name": "_type",
          "type": "uint256"
        },
        {
          "internalType": "uint256",
          "name": "_quality",
          "type": "uint256"
        },
        {
          "internalType": "address",
          "name": "_minter",
          "type": "address"
        }
      ],
      "name": "mintItem",
      "outputs": [
        {
          "internalType": "uint256",
          "name": "",
          "type": "uint256"
        }
      ],
      "stateMutability": "payable",
      "type": "function"
    },
    {
      "inputs": [],
      "name": "name",
      "outputs": [
        {
          "internalType": "string",
          "name": "",
          "type": "string"
        }
      ],
      "stateMutability": "view",
      "type": "function"
    },
    {
      "inputs": [],
      "name": "owner",
      "outputs": [
        {
          "internalType": "address",
          "name": "",
          "type": "address"
        }
      ],
      "stateMutability": "view",
      "type": "function"
    },
    {
      "inputs": [
        {
          "internalType": "uint256",
          "name": "tokenId",
          "type": "uint256"
        }
      ],
      "name": "ownerOf",
      "outputs": [
        {
          "internalType": "address",
          "name": "",
          "type": "address"
        }
      ],
      "stateMutability": "view",
      "type": "function"
    },
    {
      "inputs": [],
      "name": "renounceOwnership",
      "outputs": [],
      "stateMutability": "nonpayable",
      "type": "function"
    },
    {
      "inputs": [
        {
          "internalType": "address",
          "name": "from",
          "type": "address"
        },
        {
          "internalType": "address",
          "name": "to",
          "type": "address"
        },
        {
          "internalType": "uint256",
          "name": "tokenId",
          "type": "uint256"
        }
      ],
      "name": "safeTransferFrom",
      "outputs": [],
      "stateMutability": "nonpayable",
      "type": "function"
    },
    {
      "inputs": [
        {
          "internalType": "address",
          "name": "from",
          "type": "address"
        },
        {
          "internalType": "address",
          "name": "to",
          "type": "address"
        },
        {
          "internalType": "uint256",
          "name": "tokenId",
          "type": "uint256"
        },
        {
          "internalType": "bytes",
          "name": "data",
          "type": "bytes"
        }
      ],
      "name": "safeTransferFrom",
      "outputs": [],
      "stateMutability": "nonpayable",
      "type": "function"
    },
    {
      "inputs": [
        {
          "internalType": "address",
          "name": "operator",
          "type": "address"
        },
        {
          "internalType": "bool",
          "name": "approved",
          "type": "bool"
        }
      ],
      "name": "setApprovalForAll",
      "outputs": [],
      "stateMutability": "nonpayable",
      "type": "function"
    },
    {
      "inputs": [
        {
          "internalType": "bytes4",
          "name": "interfaceId",
          "type": "bytes4"
        }
      ],
      "name": "supportsInterface",
      "outputs": [
        {
          "internalType": "bool",
          "name": "",
          "type": "bool"
        }
      ],
      "stateMutability": "view",
      "type": "function"
    },
    {
      "inputs": [],
      "name": "symbol",
      "outputs": [
        {
          "internalType": "string",
          "name": "",
          "type": "string"
        }
      ],
      "stateMutability": "view",
      "type": "function"
    },
    {
      "inputs": [
        {
          "internalType": "uint256",
          "name": "tokenId",
          "type": "uint256"
        }
      ],
      "name": "tokenURI",
      "outputs": [
        {
          "internalType": "string",
          "name": "",
          "type": "string"
        }
      ],
      "stateMutability": "view",
      "type": "function"
    },
    {
      "inputs": [
        {
          "internalType": "address",
          "name": "from",
          "type": "address"
        },
        {
          "internalType": "address",
          "name": "to",
          "type": "address"
        },
        {
          "internalType": "uint256",
          "name": "tokenId",
          "type": "uint256"
        }
      ],
      "name": "transferFrom",
      "outputs": [],
      "stateMutability": "nonpayable",
      "type": "function"
    },
    {
      "inputs": [],
      "name": "transferFundsOut",
      "outputs": [],
      "stateMutability": "nonpayable",
      "type": "function"
    },
    {
      "inputs": [
        {
          "internalType": "address",
          "name": "newOwner",
          "type": "address"
        }
      ],
      "name": "transferOwnership",
      "outputs": [],
      "stateMutability": "nonpayable",
      "type": "function"
    },
    {
      "inputs": [
        {
          "internalType": "address",
          "name": "",
          "type": "address"
        },
        {
          "internalType": "uint256",
          "name": "",
          "type": "uint256"
        }
      ],
      "name": "uiisOwned",
      "outputs": [
        {
          "internalType": "uint256",
          "name": "",
          "type": "uint256"
        }
      ],
      "stateMutability": "view",
      "type": "function"
    }
  ],
  "transactionHash": "0xed203a83336fbfb4894936ced1e4c77dd646deb3d4bba49f52c1bf96d0502e10",
  "args": [],
  "numDeployments": 1,
  "solcInputHash": "81390095ca581db7d6a12c85d937a7d6",
  "bytecode": "0x608060405260006007556001600860006101000a81548160ff02191690831515021790555064174876e8006009553480156200003a57600080fd5b506040518060400160405280601b81526020017f556e6976657273616c20496e76656e746f727920466163746f727900000000008152506040518060400160405280600381526020017f55494600000000000000000000000000000000000000000000000000000000008152508160009080519060200190620000bf929190620001cf565b508060019080519060200190620000d8929190620001cf565b505050620000fb620000ef6200010160201b60201c565b6200010960201b60201c565b620002e4565b600033905090565b6000600660009054906101000a900473ffffffffffffffffffffffffffffffffffffffff16905081600660006101000a81548173ffffffffffffffffffffffffffffffffffffffff021916908373ffffffffffffffffffffffffffffffffffffffff1602179055508173ffffffffffffffffffffffffffffffffffffffff168173ffffffffffffffffffffffffffffffffffffffff167f8be0079c531659141344cd1fd0a4f28419497f9722a3daafe3b4186f6b6457e060405160405180910390a35050565b828054620001dd90620002ae565b90600052602060002090601f0160209004810192826200020157600085556200024d565b82601f106200021c57805160ff19168380011785556200024d565b828001600101855582156200024d579182015b828111156200024c5782518255916020019190600101906200022f565b5b5090506200025c919062000260565b5090565b5b808211156200027b57600081600090555060010162000261565b5090565b7f4e487b7100000000000000000000000000000000000000000000000000000000600052602260045260246000fd5b60006002820490506001821680620002c757607f821691505b60208210811415620002de57620002dd6200027f565b5b50919050565b613daa80620002f46000396000f3fe60806040526004361061019c5760003560e01c8063715018a6116100ec578063aa4ecdb91161008a578063bfb231d211610064578063bfb231d2146105f1578063c87b56dd14610632578063e985e9c51461066f578063f2fde38b146106ac5761019c565b8063aa4ecdb91461054e578063b88d4fde1461058b578063bd69ef20146105b45761019c565b806395a81d4e116100c657806395a81d4e1461048d57806395d89b41146104ca5780639b6507f0146104f5578063a22cb465146105255761019c565b8063715018a6146104205780638da5cb5b1461043757806393822557146104625761019c565b80633838aed111610159578063471a429411610133578063471a42941461033e5780634d3ef644146103695780636352211e146103a657806370a08231146103e35761019c565b80633838aed1146102d557806342842e0e146102ec57806342966c68146103155761019c565b806301ffc9a7146101a157806306fdde03146101de578063081812fc14610209578063095ea7b31461024657806323b872dd1461026f5780632851838114610298575b600080fd5b3480156101ad57600080fd5b506101c860048036038101906101c391906126d5565b6106d5565b6040516101d5919061271d565b60405180910390f35b3480156101ea57600080fd5b506101f36107b7565b60405161020091906127d1565b60405180910390f35b34801561021557600080fd5b50610230600480360381019061022b9190612829565b610849565b60405161023d9190612897565b60405180910390f35b34801561025257600080fd5b5061026d600480360381019061026891906128de565b61088f565b005b34801561027b57600080fd5b506102966004803603810190610291919061291e565b6109a7565b005b3480156102a457600080fd5b506102bf60048036038101906102ba9190612829565b610a07565b6040516102cc919061298a565b60405180910390f35b3480156102e157600080fd5b506102ea610a36565b005b3480156102f857600080fd5b50610313600480360381019061030e919061291e565b610a8e565b005b34801561032157600080fd5b5061033c60048036038101906103379190612829565b610aae565b005b34801561034a57600080fd5b50610353610b0a565b604051610360919061271d565b60405180910390f35b34801561037557600080fd5b50610390600480360381019061038b91906128de565b610b1d565b60405161039d91906129b4565b60405180910390f35b3480156103b257600080fd5b506103cd60048036038101906103c89190612829565b610b4e565b6040516103da9190612897565b60405180910390f35b3480156103ef57600080fd5b5061040a600480360381019061040591906129cf565b610c00565b60405161041791906129b4565b60405180910390f35b34801561042c57600080fd5b50610435610cb8565b005b34801561044357600080fd5b5061044c610ccc565b6040516104599190612897565b60405180910390f35b34801561046e57600080fd5b50610477610cf6565b60405161048491906129b4565b60405180910390f35b34801561049957600080fd5b506104b460048036038101906104af9190612829565b610cfc565b6040516104c19190612897565b60405180910390f35b3480156104d657600080fd5b506104df610d4b565b6040516104ec91906127d1565b60405180910390f35b61050f600480360381019061050a91906129fc565b610ddd565b60405161051c91906129b4565b60405180910390f35b34801561053157600080fd5b5061054c60048036038101906105479190612a7b565b6111c3565b005b34801561055a57600080fd5b5061057560048036038101906105709190612829565b6111d9565b6040516105829190612b50565b60405180910390f35b34801561059757600080fd5b506105b260048036038101906105ad9190612ca0565b61132b565b005b3480156105c057600080fd5b506105db60048036038101906105d691906129cf565b61138d565b6040516105e89190612dd2565b60405180910390f35b3480156105fd57600080fd5b5061061860048036038101906106139190612829565b611424565b604051610629959493929190612df4565b60405180910390f35b34801561063e57600080fd5b5061065960048036038101906106549190612829565b6114ca565b60405161066691906127d1565b60405180910390f35b34801561067b57600080fd5b5061069660048036038101906106919190612e47565b611532565b6040516106a3919061271d565b60405180910390f35b3480156106b857600080fd5b506106d360048036038101906106ce91906129cf565b6115c6565b005b60007f80ac58cd000000000000000000000000000000000000000000000000000000007bffffffffffffffffffffffffffffffffffffffffffffffffffffffff1916827bffffffffffffffffffffffffffffffffffffffffffffffffffffffff191614806107a057507f5b5e139f000000000000000000000000000000000000000000000000000000007bffffffffffffffffffffffffffffffffffffffffffffffffffffffff1916827bffffffffffffffffffffffffffffffffffffffffffffffffffffffff1916145b806107b057506107af8261164a565b5b9050919050565b6060600080546107c690612eb6565b80601f01602080910402602001604051908101604052809291908181526020018280546107f290612eb6565b801561083f5780601f106108145761010080835404028352916020019161083f565b820191906000526020600020905b81548152906001019060200180831161082257829003601f168201915b5050505050905090565b6000610854826116b4565b6004600083815260200190815260200160002060009054906101000a900473ffffffffffffffffffffffffffffffffffffffff169050919050565b600061089a82610b4e565b90508073ffffffffffffffffffffffffffffffffffffffff168373ffffffffffffffffffffffffffffffffffffffff16141561090b576040517f08c379a000000000000000000000000000000000000000000000000000000000815260040161090290612f5a565b60405180910390fd5b8073ffffffffffffffffffffffffffffffffffffffff1661092a6116ff565b73ffffffffffffffffffffffffffffffffffffffff1614806109595750610958816109536116ff565b611532565b5b610998576040517f08c379a000000000000000000000000000000000000000000000000000000000815260040161098f90612fec565b60405180910390fd5b6109a28383611707565b505050565b6109b86109b26116ff565b826117c0565b6109f7576040517f08c379a00000000000000000000000000000000000000000000000000000000081526004016109ee9061307e565b60405180910390fd5b610a02838383611855565b505050565b6000600a8281548110610a1d57610a1c61309e565b5b9060005260206000209060050201600301549050919050565b610a3e611abc565b610a46610ccc565b73ffffffffffffffffffffffffffffffffffffffff166108fc479081150290604051600060405180830381858888f19350505050158015610a8b573d6000803e3d6000fd5b50565b610aa98383836040518060200160405280600081525061132b565b505050565b610abf610ab96116ff565b826117c0565b610afe576040517f08c379a0000000000000000000000000000000000000000000000000000000008152600401610af59061307e565b60405180910390fd5b610b0781611b3a565b50565b600860009054906101000a900460ff1681565b600b6020528160005260406000208181548110610b3957600080fd5b90600052602060002001600091509150505481565b6000806002600084815260200190815260200160002060009054906101000a900473ffffffffffffffffffffffffffffffffffffffff169050600073ffffffffffffffffffffffffffffffffffffffff168173ffffffffffffffffffffffffffffffffffffffff161415610bf7576040517f08c379a0000000000000000000000000000000000000000000000000000000008152600401610bee90613119565b60405180910390fd5b80915050919050565b60008073ffffffffffffffffffffffffffffffffffffffff168273ffffffffffffffffffffffffffffffffffffffff161415610c71576040517f08c379a0000000000000000000000000000000000000000000000000000000008152600401610c68906131ab565b60405180910390fd5b600360008373ffffffffffffffffffffffffffffffffffffffff1673ffffffffffffffffffffffffffffffffffffffff168152602001908152602001600020549050919050565b610cc0611abc565b610cca6000611c57565b565b6000600660009054906101000a900473ffffffffffffffffffffffffffffffffffffffff16905090565b60095481565b6000600a8281548110610d1257610d1161309e565b5b906000526020600020906005020160010160009054906101000a900473ffffffffffffffffffffffffffffffffffffffff169050919050565b606060018054610d5a90612eb6565b80601f0160208091040260200160405190810160405280929190818152602001828054610d8690612eb6565b8015610dd35780601f10610da857610100808354040283529160200191610dd3565b820191906000526020600020905b815481529060010190602001808311610db657829003601f168201915b5050505050905090565b6000610de7610ccc565b73ffffffffffffffffffffffffffffffffffffffff163373ffffffffffffffffffffffffffffffffffffffff161480610e33575060011515600860009054906101000a900460ff161515145b610e72576040517f08c379a0000000000000000000000000000000000000000000000000000000008152600401610e6990613217565b60405180910390fd5b60ff841115610eb6576040517f08c379a0000000000000000000000000000000000000000000000000000000008152600401610ead90613283565b60405180910390fd5b600f831115610efa576040517f08c379a0000000000000000000000000000000000000000000000000000000008152600401610ef1906132ef565b60405180910390fd5b600080841415610f0e576009549050610f1f565b83600954610f1c9190613471565b90505b60003482604051602001610f34929190613580565b60405160208183030381529060405290508134148190610f8a576040517f08c379a0000000000000000000000000000000000000000000000000000000008152600401610f8191906127d1565b60405180910390fd5b50600a6040518060a001604052808673ffffffffffffffffffffffffffffffffffffffff1681526020018673ffffffffffffffffffffffffffffffffffffffff1681526020013373ffffffffffffffffffffffffffffffffffffffff168152602001610ff68989611d1d565b81526020016000815250908060018154018082558091505060019003906000526020600020906005020160009091909190915060008201518160000160006101000a81548173ffffffffffffffffffffffffffffffffffffffff021916908373ffffffffffffffffffffffffffffffffffffffff16021790555060208201518160010160006101000a81548173ffffffffffffffffffffffffffffffffffffffff021916908373ffffffffffffffffffffffffffffffffffffffff16021790555060408201518160020160006101000a81548173ffffffffffffffffffffffffffffffffffffffff021916908373ffffffffffffffffffffffffffffffffffffffff1602179055506060820151816003015560808201518160040155505061112f336001600a8054905061112a91906135c2565b611df4565b600b60008573ffffffffffffffffffffffffffffffffffffffff1673ffffffffffffffffffffffffffffffffffffffff1681526020019081526020016000206001600a8054905061118091906135c2565b90806001815401808255809150506001900390600052602060002001600090919091909150556001600a805490506111b891906135c2565b925050509392505050565b6111d56111ce6116ff565b8383611e12565b5050565b6111e16125f5565b600a82815481106111f5576111f461309e565b5b90600052602060002090600502016040518060a00160405290816000820160009054906101000a900473ffffffffffffffffffffffffffffffffffffffff1673ffffffffffffffffffffffffffffffffffffffff1673ffffffffffffffffffffffffffffffffffffffff1681526020016001820160009054906101000a900473ffffffffffffffffffffffffffffffffffffffff1673ffffffffffffffffffffffffffffffffffffffff1673ffffffffffffffffffffffffffffffffffffffff1681526020016002820160009054906101000a900473ffffffffffffffffffffffffffffffffffffffff1673ffffffffffffffffffffffffffffffffffffffff1673ffffffffffffffffffffffffffffffffffffffff168152602001600382015481526020016004820154815250509050919050565b61133c6113366116ff565b836117c0565b61137b576040517f08c379a00000000000000000000000000000000000000000000000000000000081526004016113729061307e565b60405180910390fd5b61138784848484611f7f565b50505050565b6060600b60008373ffffffffffffffffffffffffffffffffffffffff1673ffffffffffffffffffffffffffffffffffffffff16815260200190815260200160002080548060200260200160405190810160405280929190818152602001828054801561141857602002820191906000526020600020905b815481526020019060010190808311611404575b50505050509050919050565b600a818154811061143457600080fd5b90600052602060002090600502016000915090508060000160009054906101000a900473ffffffffffffffffffffffffffffffffffffffff16908060010160009054906101000a900473ffffffffffffffffffffffffffffffffffffffff16908060020160009054906101000a900473ffffffffffffffffffffffffffffffffffffffff16908060030154908060040154905085565b60606114d5826116b4565b60006114df611fdb565b905060008151116114ff576040518060200160405280600081525061152a565b8061150984611ff2565b60405160200161151a929190613627565b6040516020818303038152906040525b915050919050565b6000600560008473ffffffffffffffffffffffffffffffffffffffff1673ffffffffffffffffffffffffffffffffffffffff16815260200190815260200160002060008373ffffffffffffffffffffffffffffffffffffffff1673ffffffffffffffffffffffffffffffffffffffff16815260200190815260200160002060009054906101000a900460ff16905092915050565b6115ce611abc565b600073ffffffffffffffffffffffffffffffffffffffff168173ffffffffffffffffffffffffffffffffffffffff16141561163e576040517f08c379a0000000000000000000000000000000000000000000000000000000008152600401611635906136bd565b60405180910390fd5b61164781611c57565b50565b60007f01ffc9a7000000000000000000000000000000000000000000000000000000007bffffffffffffffffffffffffffffffffffffffffffffffffffffffff1916827bffffffffffffffffffffffffffffffffffffffffffffffffffffffff1916149050919050565b6116bd81612153565b6116fc576040517f08c379a00000000000000000000000000000000000000000000000000000000081526004016116f390613119565b60405180910390fd5b50565b600033905090565b816004600083815260200190815260200160002060006101000a81548173ffffffffffffffffffffffffffffffffffffffff021916908373ffffffffffffffffffffffffffffffffffffffff160217905550808273ffffffffffffffffffffffffffffffffffffffff1661177a83610b4e565b73ffffffffffffffffffffffffffffffffffffffff167f8c5be1e5ebec7d5bd14f71427d1e84f3dd0314c0f7b2291e5b200ac8c7c3b92560405160405180910390a45050565b6000806117cc83610b4e565b90508073ffffffffffffffffffffffffffffffffffffffff168473ffffffffffffffffffffffffffffffffffffffff16148061180e575061180d8185611532565b5b8061184c57508373ffffffffffffffffffffffffffffffffffffffff1661183484610849565b73ffffffffffffffffffffffffffffffffffffffff16145b91505092915050565b8273ffffffffffffffffffffffffffffffffffffffff1661187582610b4e565b73ffffffffffffffffffffffffffffffffffffffff16146118cb576040517f08c379a00000000000000000000000000000000000000000000000000000000081526004016118c29061374f565b60405180910390fd5b600073ffffffffffffffffffffffffffffffffffffffff168273ffffffffffffffffffffffffffffffffffffffff16141561193b576040517f08c379a0000000000000000000000000000000000000000000000000000000008152600401611932906137e1565b60405180910390fd5b6119468383836121bf565b611951600082611707565b6001600360008573ffffffffffffffffffffffffffffffffffffffff1673ffffffffffffffffffffffffffffffffffffffff16815260200190815260200160002060008282546119a191906135c2565b925050819055506001600360008473ffffffffffffffffffffffffffffffffffffffff1673ffffffffffffffffffffffffffffffffffffffff16815260200190815260200160002060008282546119f89190613801565b92505081905550816002600083815260200190815260200160002060006101000a81548173ffffffffffffffffffffffffffffffffffffffff021916908373ffffffffffffffffffffffffffffffffffffffff160217905550808273ffffffffffffffffffffffffffffffffffffffff168473ffffffffffffffffffffffffffffffffffffffff167fddf252ad1be2c89b69c2b068fc378daa952ba7f163c4a11628f55a4df523b3ef60405160405180910390a4611ab78383836121c4565b505050565b611ac46116ff565b73ffffffffffffffffffffffffffffffffffffffff16611ae2610ccc565b73ffffffffffffffffffffffffffffffffffffffff1614611b38576040517f08c379a0000000000000000000000000000000000000000000000000000000008152600401611b2f906138a3565b60405180910390fd5b565b6000611b4582610b4e565b9050611b53816000846121bf565b611b5e600083611707565b6001600360008373ffffffffffffffffffffffffffffffffffffffff1673ffffffffffffffffffffffffffffffffffffffff1681526020019081526020016000206000828254611bae91906135c2565b925050819055506002600083815260200190815260200160002060006101000a81549073ffffffffffffffffffffffffffffffffffffffff021916905581600073ffffffffffffffffffffffffffffffffffffffff168273ffffffffffffffffffffffffffffffffffffffff167fddf252ad1be2c89b69c2b068fc378daa952ba7f163c4a11628f55a4df523b3ef60405160405180910390a4611c53816000846121c4565b5050565b6000600660009054906101000a900473ffffffffffffffffffffffffffffffffffffffff16905081600660006101000a81548173ffffffffffffffffffffffffffffffffffffffff021916908373ffffffffffffffffffffffffffffffffffffffff1602179055508173ffffffffffffffffffffffffffffffffffffffff168173ffffffffffffffffffffffffffffffffffffffff167f8be0079c531659141344cd1fd0a4f28419497f9722a3daafe3b4186f6b6457e060405160405180910390a35050565b600080611d286121c9565b604051602001611d38919061298a565b60405160208183030381529060405290508360f81b81600081518110611d6157611d6061309e565b5b60200101907effffffffffffffffffffffffffffffffffffffffffffffffffffffffffffff1916908160001a9053506000831115611de1578260f81b81600281518110611db157611db061309e565b5b60200101907effffffffffffffffffffffffffffffffffffffffffffffffffffffffffffff1916908160001a9053505b80611deb90613900565b91505092915050565b611e0e828260405180602001604052806000815250612215565b5050565b8173ffffffffffffffffffffffffffffffffffffffff168373ffffffffffffffffffffffffffffffffffffffff161415611e81576040517f08c379a0000000000000000000000000000000000000000000000000000000008152600401611e78906139b3565b60405180910390fd5b80600560008573ffffffffffffffffffffffffffffffffffffffff1673ffffffffffffffffffffffffffffffffffffffff16815260200190815260200160002060008473ffffffffffffffffffffffffffffffffffffffff1673ffffffffffffffffffffffffffffffffffffffff16815260200190815260200160002060006101000a81548160ff0219169083151502179055508173ffffffffffffffffffffffffffffffffffffffff168373ffffffffffffffffffffffffffffffffffffffff167f17307eab39ab6107e8899845ad3d59bd9653f200f220920489ca2b5937696c3183604051611f72919061271d565b60405180910390a3505050565b611f8a848484611855565b611f9684848484612270565b611fd5576040517f08c379a0000000000000000000000000000000000000000000000000000000008152600401611fcc90613a45565b60405180910390fd5b50505050565b606060405180602001604052806000815250905090565b6060600082141561203a576040518060400160405280600181526020017f3000000000000000000000000000000000000000000000000000000000000000815250905061214e565b600082905060005b6000821461206c57808061205590613a65565b915050600a826120659190613add565b9150612042565b60008167ffffffffffffffff81111561208857612087612b75565b5b6040519080825280601f01601f1916602001820160405280156120ba5781602001600182028036833780820191505090505b5090505b60008514612147576001826120d391906135c2565b9150600a856120e29190613b0e565b60306120ee9190613801565b60f81b8183815181106121045761210361309e565b5b60200101907effffffffffffffffffffffffffffffffffffffffffffffffffffffffffffff1916908160001a905350600a856121409190613add565b94506120be565b8093505050505b919050565b60008073ffffffffffffffffffffffffffffffffffffffff166002600084815260200190815260200160002060009054906101000a900473ffffffffffffffffffffffffffffffffffffffff1673ffffffffffffffffffffffffffffffffffffffff1614159050919050565b505050565b505050565b6000600760008154809291906121de90613a65565b919050555060075442336040516020016121fa93929190613b87565b60405160208183030381529060405280519060200120905090565b61221f83836123f8565b61222c6000848484612270565b61226b576040517f08c379a000000000000000000000000000000000000000000000000000000000815260040161226290613a45565b60405180910390fd5b505050565b60006122918473ffffffffffffffffffffffffffffffffffffffff166125d2565b156123eb578373ffffffffffffffffffffffffffffffffffffffff1663150b7a026122ba6116ff565b8786866040518563ffffffff1660e01b81526004016122dc9493929190613c0e565b6020604051808303816000875af192505050801561231857506040513d601f19601f820116820180604052508101906123159190613c6f565b60015b61239b573d8060008114612348576040519150601f19603f3d011682016040523d82523d6000602084013e61234d565b606091505b50600081511415612393576040517f08c379a000000000000000000000000000000000000000000000000000000000815260040161238a90613a45565b60405180910390fd5b805181602001fd5b63150b7a0260e01b7bffffffffffffffffffffffffffffffffffffffffffffffffffffffff1916817bffffffffffffffffffffffffffffffffffffffffffffffffffffffff1916149150506123f0565b600190505b949350505050565b600073ffffffffffffffffffffffffffffffffffffffff168273ffffffffffffffffffffffffffffffffffffffff161415612468576040517f08c379a000000000000000000000000000000000000000000000000000000000815260040161245f90613ce8565b60405180910390fd5b61247181612153565b156124b1576040517f08c379a00000000000000000000000000000000000000000000000000000000081526004016124a890613d54565b60405180910390fd5b6124bd600083836121bf565b6001600360008473ffffffffffffffffffffffffffffffffffffffff1673ffffffffffffffffffffffffffffffffffffffff168152602001908152602001600020600082825461250d9190613801565b92505081905550816002600083815260200190815260200160002060006101000a81548173ffffffffffffffffffffffffffffffffffffffff021916908373ffffffffffffffffffffffffffffffffffffffff160217905550808273ffffffffffffffffffffffffffffffffffffffff16600073ffffffffffffffffffffffffffffffffffffffff167fddf252ad1be2c89b69c2b068fc378daa952ba7f163c4a11628f55a4df523b3ef60405160405180910390a46125ce600083836121c4565b5050565b6000808273ffffffffffffffffffffffffffffffffffffffff163b119050919050565b6040518060a00160405280600073ffffffffffffffffffffffffffffffffffffffff168152602001600073ffffffffffffffffffffffffffffffffffffffff168152602001600073ffffffffffffffffffffffffffffffffffffffff16815260200160008019168152602001600081525090565b6000604051905090565b600080fd5b600080fd5b60007fffffffff0000000000000000000000000000000000000000000000000000000082169050919050565b6126b28161267d565b81146126bd57600080fd5b50565b6000813590506126cf816126a9565b92915050565b6000602082840312156126eb576126ea612673565b5b60006126f9848285016126c0565b91505092915050565b60008115159050919050565b61271781612702565b82525050565b6000602082019050612732600083018461270e565b92915050565b600081519050919050565b600082825260208201905092915050565b60005b83811015612772578082015181840152602081019050612757565b83811115612781576000848401525b50505050565b6000601f19601f8301169050919050565b60006127a382612738565b6127ad8185612743565b93506127bd818560208601612754565b6127c681612787565b840191505092915050565b600060208201905081810360008301526127eb8184612798565b905092915050565b6000819050919050565b612806816127f3565b811461281157600080fd5b50565b600081359050612823816127fd565b92915050565b60006020828403121561283f5761283e612673565b5b600061284d84828501612814565b91505092915050565b600073ffffffffffffffffffffffffffffffffffffffff82169050919050565b600061288182612856565b9050919050565b61289181612876565b82525050565b60006020820190506128ac6000830184612888565b92915050565b6128bb81612876565b81146128c657600080fd5b50565b6000813590506128d8816128b2565b92915050565b600080604083850312156128f5576128f4612673565b5b6000612903858286016128c9565b925050602061291485828601612814565b9150509250929050565b60008060006060848603121561293757612936612673565b5b6000612945868287016128c9565b9350506020612956868287016128c9565b925050604061296786828701612814565b9150509250925092565b6000819050919050565b61298481612971565b82525050565b600060208201905061299f600083018461297b565b92915050565b6129ae816127f3565b82525050565b60006020820190506129c960008301846129a5565b92915050565b6000602082840312156129e5576129e4612673565b5b60006129f3848285016128c9565b91505092915050565b600080600060608486031215612a1557612a14612673565b5b6000612a2386828701612814565b9350506020612a3486828701612814565b9250506040612a45868287016128c9565b9150509250925092565b612a5881612702565b8114612a6357600080fd5b50565b600081359050612a7581612a4f565b92915050565b60008060408385031215612a9257612a91612673565b5b6000612aa0858286016128c9565b9250506020612ab185828601612a66565b9150509250929050565b612ac481612876565b82525050565b612ad381612971565b82525050565b612ae2816127f3565b82525050565b60a082016000820151612afe6000850182612abb565b506020820151612b116020850182612abb565b506040820151612b246040850182612abb565b506060820151612b376060850182612aca565b506080820151612b4a6080850182612ad9565b50505050565b600060a082019050612b656000830184612ae8565b92915050565b600080fd5b600080fd5b7f4e487b7100000000000000000000000000000000000000000000000000000000600052604160045260246000fd5b612bad82612787565b810181811067ffffffffffffffff82111715612bcc57612bcb612b75565b5b80604052505050565b6000612bdf612669565b9050612beb8282612ba4565b919050565b600067ffffffffffffffff821115612c0b57612c0a612b75565b5b612c1482612787565b9050602081019050919050565b82818337600083830152505050565b6000612c43612c3e84612bf0565b612bd5565b905082815260208101848484011115612c5f57612c5e612b70565b5b612c6a848285612c21565b509392505050565b600082601f830112612c8757612c86612b6b565b5b8135612c97848260208601612c30565b91505092915050565b60008060008060808587031215612cba57612cb9612673565b5b6000612cc8878288016128c9565b9450506020612cd9878288016128c9565b9350506040612cea87828801612814565b925050606085013567ffffffffffffffff811115612d0b57612d0a612678565b5b612d1787828801612c72565b91505092959194509250565b600081519050919050565b600082825260208201905092915050565b6000819050602082019050919050565b6000612d5b8383612ad9565b60208301905092915050565b6000602082019050919050565b6000612d7f82612d23565b612d898185612d2e565b9350612d9483612d3f565b8060005b83811015612dc5578151612dac8882612d4f565b9750612db783612d67565b925050600181019050612d98565b5085935050505092915050565b60006020820190508181036000830152612dec8184612d74565b905092915050565b600060a082019050612e096000830188612888565b612e166020830187612888565b612e236040830186612888565b612e30606083018561297b565b612e3d60808301846129a5565b9695505050505050565b60008060408385031215612e5e57612e5d612673565b5b6000612e6c858286016128c9565b9250506020612e7d858286016128c9565b9150509250929050565b7f4e487b7100000000000000000000000000000000000000000000000000000000600052602260045260246000fd5b60006002820490506001821680612ece57607f821691505b60208210811415612ee257612ee1612e87565b5b50919050565b7f4552433732313a20617070726f76616c20746f2063757272656e74206f776e6560008201527f7200000000000000000000000000000000000000000000000000000000000000602082015250565b6000612f44602183612743565b9150612f4f82612ee8565b604082019050919050565b60006020820190508181036000830152612f7381612f37565b9050919050565b7f4552433732313a20617070726f76652063616c6c6572206973206e6f7420746f60008201527f6b656e206f776e6572206e6f7220617070726f76656420666f7220616c6c0000602082015250565b6000612fd6603e83612743565b9150612fe182612f7a565b604082019050919050565b6000602082019050818103600083015261300581612fc9565b9050919050565b7f4552433732313a2063616c6c6572206973206e6f7420746f6b656e206f776e6560008201527f72206e6f7220617070726f766564000000000000000000000000000000000000602082015250565b6000613068602e83612743565b91506130738261300c565b604082019050919050565b600060208201905081810360008301526130978161305b565b9050919050565b7f4e487b7100000000000000000000000000000000000000000000000000000000600052603260045260246000fd5b7f4552433732313a20696e76616c696420746f6b656e2049440000000000000000600082015250565b6000613103601883612743565b915061310e826130cd565b602082019050919050565b60006020820190508181036000830152613132816130f6565b9050919050565b7f4552433732313a2061646472657373207a65726f206973206e6f74206120766160008201527f6c6964206f776e65720000000000000000000000000000000000000000000000602082015250565b6000613195602983612743565b91506131a082613139565b604082019050919050565b600060208201905081810360008301526131c481613188565b9050919050565b7f4d696e74696e67206973206e6f74206163746976650000000000000000000000600082015250565b6000613201601583612743565b915061320c826131cb565b602082019050919050565b60006020820190508181036000830152613230816131f4565b9050919050565b7f42616420747970652076616c7565000000000000000000000000000000000000600082015250565b600061326d600e83612743565b915061327882613237565b602082019050919050565b6000602082019050818103600083015261329c81613260565b9050919050565b7f426164207175616c6974792076616c7565000000000000000000000000000000600082015250565b60006132d9601183612743565b91506132e4826132a3565b602082019050919050565b60006020820190508181036000830152613308816132cc565b9050919050565b7f4e487b7100000000000000000000000000000000000000000000000000000000600052601160045260246000fd5b60008160011c9050919050565b6000808291508390505b6001851115613395578086048111156133715761337061330f565b5b60018516156133805780820291505b808102905061338e8561333e565b9450613355565b94509492505050565b6000826133ae576001905061346a565b816133bc576000905061346a565b81600181146133d257600281146133dc5761340b565b600191505061346a565b60ff8411156133ee576133ed61330f565b5b8360020a9150848211156134055761340461330f565b5b5061346a565b5060208310610133831016604e8410600b84101617156134405782820a90508381111561343b5761343a61330f565b5b61346a565b61344d848484600161334b565b925090508184048111156134645761346361330f565b5b81810290505b9392505050565b600061347c826127f3565b9150613487836127f3565b92506134b47fffffffffffffffffffffffffffffffffffffffffffffffffffffffffffffffff848461339e565b905092915050565b600081905092915050565b7f50617965643a2000000000000000000000000000000000000000000000000000600082015250565b60006134fd6007836134bc565b9150613508826134c7565b600782019050919050565b6000819050919050565b61352e613529826127f3565b613513565b82525050565b7f2c20636f73742069733a20000000000000000000000000000000000000000000600082015250565b600061356a600b836134bc565b915061357582613534565b600b82019050919050565b600061358b826134f0565b9150613597828561351d565b6020820191506135a68261355d565b91506135b2828461351d565b6020820191508190509392505050565b60006135cd826127f3565b91506135d8836127f3565b9250828210156135eb576135ea61330f565b5b828203905092915050565b600061360182612738565b61360b81856134bc565b935061361b818560208601612754565b80840191505092915050565b600061363382856135f6565b915061363f82846135f6565b91508190509392505050565b7f4f776e61626c653a206e6577206f776e657220697320746865207a65726f206160008201527f6464726573730000000000000000000000000000000000000000000000000000602082015250565b60006136a7602683612743565b91506136b28261364b565b604082019050919050565b600060208201905081810360008301526136d68161369a565b9050919050565b7f4552433732313a207472616e736665722066726f6d20696e636f72726563742060008201527f6f776e6572000000000000000000000000000000000000000000000000000000602082015250565b6000613739602583612743565b9150613744826136dd565b604082019050919050565b600060208201905081810360008301526137688161372c565b9050919050565b7f4552433732313a207472616e7366657220746f20746865207a65726f2061646460008201527f7265737300000000000000000000000000000000000000000000000000000000602082015250565b60006137cb602483612743565b91506137d68261376f565b604082019050919050565b600060208201905081810360008301526137fa816137be565b9050919050565b600061380c826127f3565b9150613817836127f3565b9250827fffffffffffffffffffffffffffffffffffffffffffffffffffffffffffffffff0382111561384c5761384b61330f565b5b828201905092915050565b7f4f776e61626c653a2063616c6c6572206973206e6f7420746865206f776e6572600082015250565b600061388d602083612743565b915061389882613857565b602082019050919050565b600060208201905081810360008301526138bc81613880565b9050919050565b600081519050919050565b6000819050602082019050919050565b60006138ea8251612971565b80915050919050565b600082821b905092915050565b600061390b826138c3565b82613915846138ce565b9050613920816138de565b925060208210156139605761395b7fffffffffffffffffffffffffffffffffffffffffffffffffffffffffffffffff836020036008026138f3565b831692505b5050919050565b7f4552433732313a20617070726f766520746f2063616c6c657200000000000000600082015250565b600061399d601983612743565b91506139a882613967565b602082019050919050565b600060208201905081810360008301526139cc81613990565b9050919050565b7f4552433732313a207472616e7366657220746f206e6f6e20455243373231526560008201527f63656976657220696d706c656d656e7465720000000000000000000000000000602082015250565b6000613a2f603283612743565b9150613a3a826139d3565b604082019050919050565b60006020820190508181036000830152613a5e81613a22565b9050919050565b6000613a70826127f3565b91507fffffffffffffffffffffffffffffffffffffffffffffffffffffffffffffffff821415613aa357613aa261330f565b5b600182019050919050565b7f4e487b7100000000000000000000000000000000000000000000000000000000600052601260045260246000fd5b6000613ae8826127f3565b9150613af3836127f3565b925082613b0357613b02613aae565b5b828204905092915050565b6000613b19826127f3565b9150613b24836127f3565b925082613b3457613b33613aae565b5b828206905092915050565b60008160601b9050919050565b6000613b5782613b3f565b9050919050565b6000613b6982613b4c565b9050919050565b613b81613b7c82612876565b613b5e565b82525050565b6000613b93828661351d565b602082019150613ba3828561351d565b602082019150613bb38284613b70565b601482019150819050949350505050565b600082825260208201905092915050565b6000613be0826138c3565b613bea8185613bc4565b9350613bfa818560208601612754565b613c0381612787565b840191505092915050565b6000608082019050613c236000830187612888565b613c306020830186612888565b613c3d60408301856129a5565b8181036060830152613c4f8184613bd5565b905095945050505050565b600081519050613c69816126a9565b92915050565b600060208284031215613c8557613c84612673565b5b6000613c9384828501613c5a565b91505092915050565b7f4552433732313a206d696e7420746f20746865207a65726f2061646472657373600082015250565b6000613cd2602083612743565b9150613cdd82613c9c565b602082019050919050565b60006020820190508181036000830152613d0181613cc5565b9050919050565b7f4552433732313a20746f6b656e20616c7265616479206d696e74656400000000600082015250565b6000613d3e601c83612743565b9150613d4982613d08565b602082019050919050565b60006020820190508181036000830152613d6d81613d31565b905091905056fea2646970667358221220066cccb62627b2941299eab9153baf51a617c6453087de06ff78c51fe0ae64df64736f6c634300080c0033",
  "devdoc": {
    "kind": "dev",
    "methods": {
      "approve(address,uint256)": {
        "details": "See {IERC721-approve}."
      },
      "balanceOf(address)": {
        "details": "See {IERC721-balanceOf}."
      },
      "burn(uint256)": {
        "details": "Burns `tokenId`. See {ERC721-_burn}. Requirements: - The caller must own `tokenId` or be an approved operator."
      },
      "getApproved(uint256)": {
        "details": "See {IERC721-getApproved}."
      },
      "isApprovedForAll(address,address)": {
        "details": "See {IERC721-isApprovedForAll}."
      },
      "name()": {
        "details": "See {IERC721Metadata-name}."
      },
      "owner()": {
        "details": "Returns the address of the current owner."
      },
      "ownerOf(uint256)": {
        "details": "See {IERC721-ownerOf}."
      },
      "renounceOwnership()": {
        "details": "Leaves the contract without owner. It will not be possible to call `onlyOwner` functions anymore. Can only be called by the current owner. NOTE: Renouncing ownership will leave the contract without an owner, thereby removing any functionality that is only available to the owner."
      },
      "safeTransferFrom(address,address,uint256)": {
        "details": "See {IERC721-safeTransferFrom}."
      },
      "safeTransferFrom(address,address,uint256,bytes)": {
        "details": "See {IERC721-safeTransferFrom}."
      },
      "setApprovalForAll(address,bool)": {
        "details": "See {IERC721-setApprovalForAll}."
      },
      "supportsInterface(bytes4)": {
        "details": "See {IERC165-supportsInterface}."
      },
      "symbol()": {
        "details": "See {IERC721Metadata-symbol}."
      },
      "tokenURI(uint256)": {
        "details": "See {IERC721Metadata-tokenURI}."
      },
      "transferFrom(address,address,uint256)": {
        "details": "See {IERC721-transferFrom}."
      },
      "transferOwnership(address)": {
        "details": "Transfers ownership of the contract to a new account (`newOwner`). Can only be called by the current owner."
      }
    },
    "version": 1
  },
  "userdoc": {
    "kind": "user",
    "methods": {},
    "version": 1
  },
  "storageLayout": {
    "storage": [
      {
        "astId": 138,
        "contract": "contracts/UniversalInventory.sol:UniversalInventoryFactory",
        "label": "_name",
        "offset": 0,
        "slot": "0",
        "type": "t_string_storage"
      },
      {
        "astId": 140,
        "contract": "contracts/UniversalInventory.sol:UniversalInventoryFactory",
        "label": "_symbol",
        "offset": 0,
        "slot": "1",
        "type": "t_string_storage"
      },
      {
        "astId": 144,
        "contract": "contracts/UniversalInventory.sol:UniversalInventoryFactory",
        "label": "_owners",
        "offset": 0,
        "slot": "2",
        "type": "t_mapping(t_uint256,t_address)"
      },
      {
        "astId": 148,
        "contract": "contracts/UniversalInventory.sol:UniversalInventoryFactory",
        "label": "_balances",
        "offset": 0,
        "slot": "3",
        "type": "t_mapping(t_address,t_uint256)"
      },
      {
        "astId": 152,
        "contract": "contracts/UniversalInventory.sol:UniversalInventoryFactory",
        "label": "_tokenApprovals",
        "offset": 0,
        "slot": "4",
        "type": "t_mapping(t_uint256,t_address)"
      },
      {
        "astId": 158,
        "contract": "contracts/UniversalInventory.sol:UniversalInventoryFactory",
        "label": "_operatorApprovals",
        "offset": 0,
        "slot": "5",
        "type": "t_mapping(t_address,t_mapping(t_address,t_bool))"
      },
      {
        "astId": 7,
        "contract": "contracts/UniversalInventory.sol:UniversalInventoryFactory",
        "label": "_owner",
        "offset": 0,
        "slot": "6",
        "type": "t_address"
      },
      {
        "astId": 9856,
        "contract": "contracts/UniversalInventory.sol:UniversalInventoryFactory",
        "label": "TODO_randomSeed",
        "offset": 0,
        "slot": "7",
        "type": "t_uint256"
      },
      {
        "astId": 9859,
        "contract": "contracts/UniversalInventory.sol:UniversalInventoryFactory",
        "label": "mintIsActive",
        "offset": 0,
        "slot": "8",
        "type": "t_bool"
      },
      {
        "astId": 9862,
        "contract": "contracts/UniversalInventory.sol:UniversalInventoryFactory",
        "label": "baseCost",
        "offset": 0,
        "slot": "9",
        "type": "t_uint256"
      },
      {
        "astId": 9879,
        "contract": "contracts/UniversalInventory.sol:UniversalInventoryFactory",
        "label": "items",
        "offset": 0,
        "slot": "10",
        "type": "t_array(t_struct(UniversalInventoryItem)9875_storage)dyn_storage"
      },
      {
        "astId": 9884,
        "contract": "contracts/UniversalInventory.sol:UniversalInventoryFactory",
        "label": "uiisOwned",
        "offset": 0,
        "slot": "11",
        "type": "t_mapping(t_address,t_array(t_uint256)dyn_storage)"
      }
    ],
    "types": {
      "t_address": {
        "encoding": "inplace",
        "label": "address",
        "numberOfBytes": "20"
      },
      "t_array(t_struct(UniversalInventoryItem)9875_storage)dyn_storage": {
        "base": "t_struct(UniversalInventoryItem)9875_storage",
        "encoding": "dynamic_array",
        "label": "struct UniversalInventoryFactory.UniversalInventoryItem[]",
        "numberOfBytes": "32"
      },
      "t_array(t_uint256)dyn_storage": {
        "base": "t_uint256",
        "encoding": "dynamic_array",
        "label": "uint256[]",
        "numberOfBytes": "32"
      },
      "t_bool": {
        "encoding": "inplace",
        "label": "bool",
        "numberOfBytes": "1"
      },
      "t_bytes32": {
        "encoding": "inplace",
        "label": "bytes32",
        "numberOfBytes": "32"
      },
      "t_mapping(t_address,t_array(t_uint256)dyn_storage)": {
        "encoding": "mapping",
        "key": "t_address",
        "label": "mapping(address => uint256[])",
        "numberOfBytes": "32",
        "value": "t_array(t_uint256)dyn_storage"
      },
      "t_mapping(t_address,t_bool)": {
        "encoding": "mapping",
        "key": "t_address",
        "label": "mapping(address => bool)",
        "numberOfBytes": "32",
        "value": "t_bool"
      },
      "t_mapping(t_address,t_mapping(t_address,t_bool))": {
        "encoding": "mapping",
        "key": "t_address",
        "label": "mapping(address => mapping(address => bool))",
        "numberOfBytes": "32",
        "value": "t_mapping(t_address,t_bool)"
      },
      "t_mapping(t_address,t_uint256)": {
        "encoding": "mapping",
        "key": "t_address",
        "label": "mapping(address => uint256)",
        "numberOfBytes": "32",
        "value": "t_uint256"
      },
      "t_mapping(t_uint256,t_address)": {
        "encoding": "mapping",
        "key": "t_uint256",
        "label": "mapping(uint256 => address)",
        "numberOfBytes": "32",
        "value": "t_address"
      },
      "t_string_storage": {
        "encoding": "bytes",
        "label": "string",
        "numberOfBytes": "32"
      },
      "t_struct(UniversalInventoryItem)9875_storage": {
        "encoding": "inplace",
        "label": "struct UniversalInventoryFactory.UniversalInventoryItem",
        "members": [
          {
            "astId": 9866,
            "contract": "contracts/UniversalInventory.sol:UniversalInventoryFactory",
            "label": "originalOwner",
            "offset": 0,
            "slot": "0",
            "type": "t_address"
          },
          {
            "astId": 9868,
            "contract": "contracts/UniversalInventory.sol:UniversalInventoryFactory",
            "label": "currentOwner",
            "offset": 0,
            "slot": "1",
            "type": "t_address"
          },
          {
            "astId": 9870,
            "contract": "contracts/UniversalInventory.sol:UniversalInventoryFactory",
            "label": "creator",
            "offset": 0,
            "slot": "2",
            "type": "t_address"
          },
          {
            "astId": 9872,
            "contract": "contracts/UniversalInventory.sol:UniversalInventoryFactory",
            "label": "properties",
            "offset": 0,
            "slot": "3",
            "type": "t_bytes32"
          },
          {
            "astId": 9874,
            "contract": "contracts/UniversalInventory.sol:UniversalInventoryFactory",
            "label": "taxonomyVersion",
            "offset": 0,
            "slot": "4",
            "type": "t_uint256"
          }
        ],
        "numberOfBytes": "160"
      },
      "t_uint256": {
        "encoding": "inplace",
        "label": "uint256",
        "numberOfBytes": "32"
      }
    }
  }
}