{
  "address": "0x18f85B8F95d9dc58724b37F20929bDe4F8643368",
  "abi": [
    {
      "inputs": [],
      "stateMutability": "nonpayable",
      "type": "constructor"
    },
    {
      "anonymous": false,
      "inputs": [
        {
          "indexed": true,
          "internalType": "address",
          "name": "owner",
          "type": "address"
        },
        {
          "indexed": true,
          "internalType": "address",
          "name": "approved",
          "type": "address"
        },
        {
          "indexed": true,
          "internalType": "uint256",
          "name": "tokenId",
          "type": "uint256"
        }
      ],
      "name": "Approval",
      "type": "event"
    },
    {
      "anonymous": false,
      "inputs": [
        {
          "indexed": true,
          "internalType": "address",
          "name": "owner",
          "type": "address"
        },
        {
          "indexed": true,
          "internalType": "address",
          "name": "operator",
          "type": "address"
        },
        {
          "indexed": false,
          "internalType": "bool",
          "name": "approved",
          "type": "bool"
        }
      ],
      "name": "ApprovalForAll",
      "type": "event"
    },
    {
      "anonymous": false,
      "inputs": [
        {
          "indexed": true,
          "internalType": "uint256",
          "name": "id",
          "type": "uint256"
        },
        {
          "indexed": false,
          "internalType": "bytes32",
          "name": "properties",
          "type": "bytes32"
        }
      ],
      "name": "NewItem",
      "type": "event"
    },
    {
      "anonymous": false,
      "inputs": [
        {
          "indexed": true,
          "internalType": "address",
          "name": "previousOwner",
          "type": "address"
        },
        {
          "indexed": true,
          "internalType": "address",
          "name": "newOwner",
          "type": "address"
        }
      ],
      "name": "OwnershipTransferred",
      "type": "event"
    },
    {
      "anonymous": false,
      "inputs": [
        {
          "indexed": true,
          "internalType": "address",
          "name": "from",
          "type": "address"
        },
        {
          "indexed": true,
          "internalType": "address",
          "name": "to",
          "type": "address"
        },
        {
          "indexed": true,
          "internalType": "uint256",
          "name": "tokenId",
          "type": "uint256"
        }
      ],
      "name": "Transfer",
      "type": "event"
    },
    {
      "inputs": [
        {
          "internalType": "address",
          "name": "to",
          "type": "address"
        },
        {
          "internalType": "uint256",
          "name": "tokenId",
          "type": "uint256"
        }
      ],
      "name": "approve",
      "outputs": [],
      "stateMutability": "nonpayable",
      "type": "function"
    },
    {
      "inputs": [
        {
          "internalType": "address",
          "name": "owner",
          "type": "address"
        }
      ],
      "name": "balanceOf",
      "outputs": [
        {
          "internalType": "uint256",
          "name": "",
          "type": "uint256"
        }
      ],
      "stateMutability": "view",
      "type": "function"
    },
    {
      "inputs": [],
      "name": "baseCost",
      "outputs": [
        {
          "internalType": "uint256",
          "name": "",
          "type": "uint256"
        }
      ],
      "stateMutability": "view",
      "type": "function"
    },
    {
      "inputs": [
        {
          "internalType": "uint256",
          "name": "tokenId",
          "type": "uint256"
        }
      ],
      "name": "burn",
      "outputs": [],
      "stateMutability": "nonpayable",
      "type": "function"
    },
    {
      "inputs": [],
      "name": "creditsBaseCost",
      "outputs": [
        {
          "internalType": "uint256",
          "name": "",
          "type": "uint256"
        }
      ],
      "stateMutability": "view",
      "type": "function"
    },
    {
      "inputs": [],
      "name": "disableMinting",
      "outputs": [],
      "stateMutability": "nonpayable",
      "type": "function"
    },
    {
      "inputs": [],
      "name": "enableMinting",
      "outputs": [],
      "stateMutability": "nonpayable",
      "type": "function"
    },
    {
      "inputs": [
        {
          "internalType": "uint256",
          "name": "_id",
          "type": "uint256"
        }
      ],
      "name": "extGetCurrentOwner",
      "outputs": [
        {
          "internalType": "address",
          "name": "",
          "type": "address"
        }
      ],
      "stateMutability": "view",
      "type": "function"
    },
    {
      "inputs": [
        {
          "internalType": "uint256",
          "name": "_id",
          "type": "uint256"
        }
      ],
      "name": "extGetItem",
      "outputs": [
        {
          "components": [
            {
              "internalType": "address",
              "name": "originalOwner",
              "type": "address"
            },
            {
              "internalType": "address",
              "name": "currentOwner",
              "type": "address"
            },
            {
              "internalType": "address",
              "name": "creator",
              "type": "address"
            },
            {
              "internalType": "bytes32",
              "name": "properties",
              "type": "bytes32"
            },
            {
              "internalType": "uint256",
              "name": "taxonomyVersion",
              "type": "uint256"
            }
          ],
          "internalType": "struct UniversalInventoryFactory.UniversalInventoryItem",
          "name": "",
          "type": "tuple"
        }
      ],
      "stateMutability": "view",
      "type": "function"
    },
    {
      "inputs": [
        {
          "internalType": "address",
          "name": "_currentOwner",
          "type": "address"
        }
      ],
      "name": "extGetListOfUIIsOwned",
      "outputs": [
        {
          "internalType": "uint256[]",
          "name": "",
          "type": "uint256[]"
        }
      ],
      "stateMutability": "view",
      "type": "function"
    },
    {
      "inputs": [
        {
          "internalType": "uint256",
          "name": "_id",
          "type": "uint256"
        }
      ],
      "name": "extGetProperties",
      "outputs": [
        {
          "internalType": "bytes32",
          "name": "",
          "type": "bytes32"
        }
      ],
      "stateMutability": "view",
      "type": "function"
    },
    {
      "inputs": [
        {
          "internalType": "uint256",
          "name": "tokenId",
          "type": "uint256"
        }
      ],
      "name": "getApproved",
      "outputs": [
        {
          "internalType": "address",
          "name": "",
          "type": "address"
        }
      ],
      "stateMutability": "view",
      "type": "function"
    },
    {
      "inputs": [
        {
          "internalType": "uint256",
          "name": "_quality",
          "type": "uint256"
        }
      ],
      "name": "getCreditsCost",
      "outputs": [
        {
          "internalType": "uint256",
          "name": "",
          "type": "uint256"
        }
      ],
      "stateMutability": "view",
      "type": "function"
    },
    {
      "inputs": [
        {
          "internalType": "address",
          "name": "owner",
          "type": "address"
        },
        {
          "internalType": "address",
          "name": "operator",
          "type": "address"
        }
      ],
      "name": "isApprovedForAll",
      "outputs": [
        {
          "internalType": "bool",
          "name": "",
          "type": "bool"
        }
      ],
      "stateMutability": "view",
      "type": "function"
    },
    {
      "inputs": [
        {
          "internalType": "uint256",
          "name": "",
          "type": "uint256"
        }
      ],
      "name": "items",
      "outputs": [
        {
          "internalType": "address",
          "name": "originalOwner",
          "type": "address"
        },
        {
          "internalType": "address",
          "name": "currentOwner",
          "type": "address"
        },
        {
          "internalType": "address",
          "name": "creator",
          "type": "address"
        },
        {
          "internalType": "bytes32",
          "name": "properties",
          "type": "bytes32"
        },
        {
          "internalType": "uint256",
          "name": "taxonomyVersion",
          "type": "uint256"
        }
      ],
      "stateMutability": "view",
      "type": "function"
    },
    {
      "inputs": [],
      "name": "mintIsActive",
      "outputs": [
        {
          "internalType": "bool",
          "name": "",
          "type": "bool"
        }
      ],
      "stateMutability": "view",
      "type": "function"
    },
    {
      "inputs": [
        {
          "internalType": "uint256",
          "name": "_type",
          "type": "uint256"
        },
        {
          "internalType": "uint256",
          "name": "_quality",
          "type": "uint256"
        },
        {
          "internalType": "address",
          "name": "_minter",
          "type": "address"
        }
      ],
      "name": "mintItem",
      "outputs": [
        {
          "internalType": "uint256",
          "name": "",
          "type": "uint256"
        }
      ],
      "stateMutability": "payable",
      "type": "function"
    },
    {
      "inputs": [
        {
          "internalType": "uint256",
          "name": "_type",
          "type": "uint256"
        },
        {
          "internalType": "uint256",
          "name": "_quality",
          "type": "uint256"
        },
        {
          "internalType": "address",
          "name": "_minter",
          "type": "address"
        }
      ],
      "name": "mintWithCredits",
      "outputs": [
        {
          "internalType": "uint256",
          "name": "",
          "type": "uint256"
        }
      ],
      "stateMutability": "nonpayable",
      "type": "function"
    },
    {
      "inputs": [],
      "name": "name",
      "outputs": [
        {
          "internalType": "string",
          "name": "",
          "type": "string"
        }
      ],
      "stateMutability": "view",
      "type": "function"
    },
    {
      "inputs": [],
      "name": "owner",
      "outputs": [
        {
          "internalType": "address",
          "name": "",
          "type": "address"
        }
      ],
      "stateMutability": "view",
      "type": "function"
    },
    {
      "inputs": [
        {
          "internalType": "uint256",
          "name": "tokenId",
          "type": "uint256"
        }
      ],
      "name": "ownerOf",
      "outputs": [
        {
          "internalType": "address",
          "name": "",
          "type": "address"
        }
      ],
      "stateMutability": "view",
      "type": "function"
    },
    {
      "inputs": [
        {
          "internalType": "uint256",
          "name": "_id",
          "type": "uint256"
        }
      ],
      "name": "recycle",
      "outputs": [],
      "stateMutability": "nonpayable",
      "type": "function"
    },
    {
      "inputs": [],
      "name": "recycleCredit",
      "outputs": [
        {
          "internalType": "uint256",
          "name": "",
          "type": "uint256"
        }
      ],
      "stateMutability": "view",
      "type": "function"
    },
    {
      "inputs": [],
      "name": "renounceOwnership",
      "outputs": [],
      "stateMutability": "nonpayable",
      "type": "function"
    },
    {
      "inputs": [
        {
          "internalType": "address",
          "name": "_from",
          "type": "address"
        },
        {
          "internalType": "address",
          "name": "_to",
          "type": "address"
        },
        {
          "internalType": "uint256",
          "name": "_tokenId",
          "type": "uint256"
        }
      ],
      "name": "safeTransferFrom",
      "outputs": [],
      "stateMutability": "nonpayable",
      "type": "function"
    },
    {
      "inputs": [
        {
          "internalType": "address",
          "name": "from",
          "type": "address"
        },
        {
          "internalType": "address",
          "name": "to",
          "type": "address"
        },
        {
          "internalType": "uint256",
          "name": "tokenId",
          "type": "uint256"
        },
        {
          "internalType": "bytes",
          "name": "data",
          "type": "bytes"
        }
      ],
      "name": "safeTransferFrom",
      "outputs": [],
      "stateMutability": "nonpayable",
      "type": "function"
    },
    {
      "inputs": [
        {
          "internalType": "address",
          "name": "operator",
          "type": "address"
        },
        {
          "internalType": "bool",
          "name": "approved",
          "type": "bool"
        }
      ],
      "name": "setApprovalForAll",
      "outputs": [],
      "stateMutability": "nonpayable",
      "type": "function"
    },
    {
      "inputs": [
        {
          "internalType": "uint256",
          "name": "_newCost",
          "type": "uint256"
        }
      ],
      "name": "setBaseCost",
      "outputs": [],
      "stateMutability": "nonpayable",
      "type": "function"
    },
    {
      "inputs": [
        {
          "internalType": "address",
          "name": "_uifCreditsAddress",
          "type": "address"
        }
      ],
      "name": "setContractAddresses",
      "outputs": [],
      "stateMutability": "nonpayable",
      "type": "function"
    },
    {
      "inputs": [
        {
          "internalType": "uint256",
          "name": "_newCost",
          "type": "uint256"
        }
      ],
      "name": "setCreditsBaseCost",
      "outputs": [],
      "stateMutability": "nonpayable",
      "type": "function"
    },
    {
      "inputs": [
        {
          "internalType": "address",
          "name": "_newOwner",
          "type": "address"
        },
        {
          "internalType": "address",
          "name": "_oldOwner",
          "type": "address"
        },
        {
          "internalType": "uint256",
          "name": "_id",
          "type": "uint256"
        }
      ],
      "name": "setCurrentOwner",
      "outputs": [],
      "stateMutability": "nonpayable",
      "type": "function"
    },
    {
      "inputs": [
        {
          "internalType": "uint256",
          "name": "_newCredit",
          "type": "uint256"
        }
      ],
      "name": "setRecycleCredit",
      "outputs": [],
      "stateMutability": "nonpayable",
      "type": "function"
    },
    {
      "inputs": [
        {
          "internalType": "bytes4",
          "name": "interfaceId",
          "type": "bytes4"
        }
      ],
      "name": "supportsInterface",
      "outputs": [
        {
          "internalType": "bool",
          "name": "",
          "type": "bool"
        }
      ],
      "stateMutability": "view",
      "type": "function"
    },
    {
      "inputs": [],
      "name": "symbol",
      "outputs": [
        {
          "internalType": "string",
          "name": "",
          "type": "string"
        }
      ],
      "stateMutability": "view",
      "type": "function"
    },
    {
      "inputs": [
        {
          "internalType": "uint256",
          "name": "tokenId",
          "type": "uint256"
        }
      ],
      "name": "tokenURI",
      "outputs": [
        {
          "internalType": "string",
          "name": "",
          "type": "string"
        }
      ],
      "stateMutability": "view",
      "type": "function"
    },
    {
      "inputs": [
        {
          "internalType": "address",
          "name": "from",
          "type": "address"
        },
        {
          "internalType": "address",
          "name": "to",
          "type": "address"
        },
        {
          "internalType": "uint256",
          "name": "tokenId",
          "type": "uint256"
        }
      ],
      "name": "transferFrom",
      "outputs": [],
      "stateMutability": "nonpayable",
      "type": "function"
    },
    {
      "inputs": [],
      "name": "transferFundsOut",
      "outputs": [],
      "stateMutability": "nonpayable",
      "type": "function"
    },
    {
      "inputs": [
        {
          "internalType": "address",
          "name": "newOwner",
          "type": "address"
        }
      ],
      "name": "transferOwnership",
      "outputs": [],
      "stateMutability": "nonpayable",
      "type": "function"
    }
  ],
  "transactionHash": "0x69d41ffcb0220ae599abd8697f3a050ddc240c35bdfba6fd248dfbba888c5205",
  "args": [],
  "numDeployments": 1,
  "solcInputHash": "e5f151f5cbc45bae039f883ab05df643",
  "bytecode": "0x60806040526000600955600a805460ff1916600117905564174876e800600b55670de0b6b3a7640000600c55678ac7230489e80000600d553480156200004457600080fd5b506040518060400160405280601b81526020017f556e6976657273616c20496e76656e746f727920466163746f72790000000000815250604051806040016040528060038152602001622aa4a360e91b8152508160009081620000a89190620001e8565b506001620000b78282620001e8565b505050620000d4620000ce620000ed60201b60201c565b620000f1565b60016007819055600e80549091018155600052620002b4565b3390565b600680546001600160a01b038381166001600160a01b0319831681179093556040519116919082907f8be0079c531659141344cd1fd0a4f28419497f9722a3daafe3b4186f6b6457e090600090a35050565b634e487b7160e01b600052604160045260246000fd5b600181811c908216806200016e57607f821691505b6020821081036200018f57634e487b7160e01b600052602260045260246000fd5b50919050565b601f821115620001e357600081815260208120601f850160051c81016020861015620001be5750805b601f850160051c820191505b81811015620001df57828155600101620001ca565b5050505b505050565b81516001600160401b0381111562000204576200020462000143565b6200021c8162000215845462000159565b8462000195565b602080601f8311600181146200025457600084156200023b5750858301515b600019600386901b1c1916600185901b178555620001df565b600085815260208120601f198616915b82811015620002855788860151825594840194600190910190840162000264565b5085821015620002a45787850151600019600388901b60f8161c191681555b5050505050600190811b01905550565b61290680620002c46000396000f3fe6080604052600436106102255760003560e01c806370a0823111610123578063aa4ecdb9116100ab578063c87b56dd1161006f578063c87b56dd146106ba578063dd1c35bc146106da578063e797ec1b146106fa578063e985e9c51461070f578063f2fde38b1461072f57600080fd5b8063aa4ecdb914610594578063b88d4fde146105fe578063bd69ef201461061e578063bfb231d21461064b578063c01adb53146106a457600080fd5b806393822557116100f2578063938225571461051657806395a81d4e1461052c57806395d89b411461054c5780639b6507f014610561578063a22cb4651461057457600080fd5b806370a08231146104ae578063715018a6146104ce5780637e5cd5c1146104e35780638da5cb5b146104f857600080fd5b80632b5dc91f116101b157806342966c681161017557806342966c681461041e578063454dc9e11461043e578063471a42941461045e5780636317ad2d146104785780636352211e1461048e57600080fd5b80632b5dc91f146103895780632d83b8df146103a95780633838aed1146103c95780633f379175146103de57806342842e0e146103fe57600080fd5b8063095ea7b3116101f8578063095ea7b3146102db5780630ae6f9d6146102fb5780631f88bb871461031b57806323b872dd1461033b578063285183811461035b57600080fd5b806301ffc9a71461022a57806306fdde031461025f57806307084e5614610281578063081812fc146102a3575b600080fd5b34801561023657600080fd5b5061024a610245366004612278565b61074f565b60405190151581526020015b60405180910390f35b34801561026b57600080fd5b506102746107a1565b60405161025691906122e5565b34801561028d57600080fd5b506102a161029c366004612314565b610833565b005b3480156102af57600080fd5b506102c36102be366004612350565b610915565b6040516001600160a01b039091168152602001610256565b3480156102e757600080fd5b506102a16102f6366004612369565b61093c565b34801561030757600080fd5b506102a1610316366004612350565b610a51565b34801561032757600080fd5b506102a1610336366004612393565b610a5e565b34801561034757600080fd5b506102a1610356366004612314565b610a88565b34801561036757600080fd5b5061037b610376366004612350565b610aba565b604051908152602001610256565b34801561039557600080fd5b506102a16103a4366004612350565b610ae8565b3480156103b557600080fd5b5061037b6103c43660046123ae565b610af5565b3480156103d557600080fd5b506102a1610ccc565b3480156103ea57600080fd5b506102a16103f9366004612350565b610d10565b34801561040a57600080fd5b506102a1610419366004612314565b610d1d565b34801561042a57600080fd5b506102a1610439366004612350565b610e74565b34801561044a57600080fd5b5061037b610459366004612350565b610ea2565b34801561046a57600080fd5b50600a5461024a9060ff1681565b34801561048457600080fd5b5061037b600d5481565b34801561049a57600080fd5b506102c36104a9366004612350565b610ecb565b3480156104ba57600080fd5b5061037b6104c9366004612393565b610f2b565b3480156104da57600080fd5b506102a1610fb1565b3480156104ef57600080fd5b506102a1610fc5565b34801561050457600080fd5b506006546001600160a01b03166102c3565b34801561052257600080fd5b5061037b600b5481565b34801561053857600080fd5b506102c3610547366004612350565b610fd9565b34801561055857600080fd5b50610274611011565b61037b61056f3660046123ae565b611020565b34801561058057600080fd5b506102a161058f3660046123e3565b6110c8565b3480156105a057600080fd5b506105b46105af366004612350565b6110d7565b6040805182516001600160a01b039081168252602080850151821690830152838301511691810191909152606080830151908201526080918201519181019190915260a001610256565b34801561060a57600080fd5b506102a1610619366004612435565b611176565b34801561062a57600080fd5b5061063e610639366004612393565b6111a8565b6040516102569190612511565b34801561065757600080fd5b5061066b610666366004612350565b6111cc565b604080516001600160a01b039687168152948616602086015292909416918301919091526060820152608081019190915260a001610256565b3480156106b057600080fd5b5061037b600c5481565b3480156106c657600080fd5b506102746106d5366004612350565b61121b565b3480156106e657600080fd5b506102a16106f5366004612350565b61128e565b34801561070657600080fd5b506102a16112fb565b34801561071b57600080fd5b5061024a61072a366004612555565b611312565b34801561073b57600080fd5b506102a161074a366004612393565b611340565b60006001600160e01b031982166380ac58cd60e01b148061078057506001600160e01b03198216635b5e139f60e01b145b8061079b57506301ffc9a760e01b6001600160e01b03198316145b92915050565b6060600080546107b090612588565b80601f01602080910402602001604051908101604052809291908181526020018280546107dc90612588565b80156108295780601f106107fe57610100808354040283529160200191610829565b820191906000526020600020905b81548152906001019060200180831161080c57829003601f168201915b5050505050905090565b61083c81610ecb565b6001600160a01b0316336001600160a01b0316146108905760405162461bcd60e51b815260206004820152600c60248201526b139bdd081e5bdd5c881b999d60a21b60448201526064015b60405180910390fd5b82600e82815481106108a4576108a46125c2565b6000918252602080832060059290920290910160010180546001600160a01b0319166001600160a01b039485161790559184168152600f909152604090206108ec90826113b6565b506001600160a01b0383166000908152600f6020526040902061090f90826113c2565b50505050565b6000610920826113ce565b506000908152600460205260409020546001600160a01b031690565b600061094782610ecb565b9050806001600160a01b0316836001600160a01b0316036109b45760405162461bcd60e51b815260206004820152602160248201527f4552433732313a20617070726f76616c20746f2063757272656e74206f776e656044820152603960f91b6064820152608401610887565b336001600160a01b03821614806109d057506109d08133611312565b610a425760405162461bcd60e51b815260206004820152603e60248201527f4552433732313a20617070726f76652063616c6c6572206973206e6f7420746f60448201527f6b656e206f776e6572206e6f7220617070726f76656420666f7220616c6c00006064820152608401610887565b610a4c838361142d565b505050565b610a5961149b565b600c55565b610a6661149b565b600880546001600160a01b0319166001600160a01b0392909216919091179055565b610a93335b826114f5565b610aaf5760405162461bcd60e51b8152600401610887906125d8565b610a4c838383611554565b6000600e8281548110610acf57610acf6125c2565b9060005260206000209060050201600301549050919050565b610af061149b565b600b55565b600080610b0184610ea2565b6040517f43616e2774206166666f72642e2020436f73742069733a200000000000000000602082015260388101829052909150600090605801604051602081830303815290604052905081610b5533610f2b565b10158190610b765760405162461bcd60e51b815260040161088791906122e5565b50600854604051306024820152604481018490526000916001600160a01b03169060640160408051601f198184030181529181526020820180516001600160e01b031663095ea7b360e01b17905251610bcf9190612626565b600060405180830381855af49150503d8060008114610c0a576040519150601f19603f3d011682016040523d82523d6000602084013e610c0f565b606091505b5050905080610c525760405162461bcd60e51b815260206004820152600f60248201526e105c1c1c9bdd985b0819985a5b1959608a1b6044820152606401610887565b600854604051632770a7eb60e21b8152336004820152602481018590526001600160a01b0390911690639dc29fac90604401600060405180830381600087803b158015610c9e57600080fd5b505af1158015610cb2573d6000803e3d6000fd5b50505050610cc18787876116f0565b979650505050505050565b610cd461149b565b6006546040516001600160a01b03909116904780156108fc02916000818181858888f19350505050158015610d0d573d6000803e3d6000fd5b50565b610d1861149b565b600d55565b610d2681610ecb565b6001600160a01b0316336001600160a01b03161480610d525750610d52610d4c82610ecb565b33611312565b610d9e5760405162461bcd60e51b815260206004820152601760248201527f4e6f74206f776e6572206f7220617574686f72697a65640000000000000000006044820152606401610887565b610dec81600f6000600e8581548110610db957610db96125c2565b60009182526020808320600160059093020191909101546001600160a01b031683528201929092526040019020906113b6565b506001600160a01b0382166000908152600f60205260409020610e0f90826113c2565b5081600e8281548110610e2457610e246125c2565b906000526020600020906005020160010160006101000a8154816001600160a01b0302191690836001600160a01b03160217905550610a4c838383604051806020016040528060008152506119c4565b610e7d33610a8d565b610e995760405162461bcd60e51b8152600401610887906125d8565b610d0d816119f7565b60008082600003610eb65750600d5461079b565b82600d54610ec4919061273c565b9392505050565b6000818152600260205260408120546001600160a01b03168061079b5760405162461bcd60e51b8152602060048201526018602482015277115490cdcc8c4e881a5b9d985b1a59081d1bdad95b88125160421b6044820152606401610887565b60006001600160a01b038216610f955760405162461bcd60e51b815260206004820152602960248201527f4552433732313a2061646472657373207a65726f206973206e6f7420612076616044820152683634b21037bbb732b960b91b6064820152608401610887565b506001600160a01b031660009081526003602052604090205490565b610fb961149b565b610fc36000611a92565b565b610fcd61149b565b600a805460ff19169055565b6000600e8281548110610fee57610fee6125c2565b60009182526020909120600160059092020101546001600160a01b031692915050565b6060600180546107b090612588565b600080836000036110345750600b54611045565b83600b54611042919061273c565b90505b6040516602830bcb2b21d160cd1b60208201523460278201526a0161031b7b9ba1034b99d160ad1b604782015260528101829052600090607201604051602081830303815290604052905081341481906110b25760405162461bcd60e51b815260040161088791906122e5565b506110be8686866116f0565b9695505050505050565b6110d3338383611ae4565b5050565b6040805160a081018252600080825260208201819052918101829052606081018290526080810191909152600e8281548110611115576111156125c2565b60009182526020918290206040805160a081018252600590930290910180546001600160a01b039081168452600182015481169484019490945260028101549093169082015260038201546060820152600490910154608082015292915050565b61118033836114f5565b61119c5760405162461bcd60e51b8152600401610887906125d8565b61090f848484846119c4565b6001600160a01b0381166000908152600f6020526040902060609061079b90611bb2565b600e81815481106111dc57600080fd5b6000918252602090912060059091020180546001820154600283015460038401546004909401546001600160a01b039384169550918316939216919085565b6060611226826113ce565b600061123d60408051602081019091526000815290565b9050600081511161125d5760405180602001604052806000815250610ec4565b8061126784611bbf565b604051602001611278929190612748565b6040516020818303038152906040529392505050565b61129781610ecb565b6001600160a01b0316336001600160a01b0316146112e65760405162461bcd60e51b815260206004820152600c60248201526b139bdd081e5bdd5c881b999d60a21b6044820152606401610887565b6112ef81611cc0565b610d0d33600c54611d2f565b61130361149b565b600a805460ff19166001179055565b6001600160a01b03918216600090815260056020908152604080832093909416825291909152205460ff1690565b61134861149b565b6001600160a01b0381166113ad5760405162461bcd60e51b815260206004820152602660248201527f4f776e61626c653a206e6577206f776e657220697320746865207a65726f206160448201526564647265737360d01b6064820152608401610887565b610d0d81611a92565b6000610ec48383611e71565b6000610ec48383611f64565b6000818152600260205260409020546001600160a01b0316610d0d5760405162461bcd60e51b8152602060048201526018602482015277115490cdcc8c4e881a5b9d985b1a59081d1bdad95b88125160421b6044820152606401610887565b600081815260046020526040902080546001600160a01b0319166001600160a01b038416908117909155819061146282610ecb565b6001600160a01b03167f8c5be1e5ebec7d5bd14f71427d1e84f3dd0314c0f7b2291e5b200ac8c7c3b92560405160405180910390a45050565b6006546001600160a01b03163314610fc35760405162461bcd60e51b815260206004820181905260248201527f4f776e61626c653a2063616c6c6572206973206e6f7420746865206f776e65726044820152606401610887565b60008061150183610ecb565b9050806001600160a01b0316846001600160a01b0316148061152857506115288185611312565b8061154c5750836001600160a01b031661154184610915565b6001600160a01b0316145b949350505050565b826001600160a01b031661156782610ecb565b6001600160a01b0316146115cb5760405162461bcd60e51b815260206004820152602560248201527f4552433732313a207472616e736665722066726f6d20696e636f72726563742060448201526437bbb732b960d91b6064820152608401610887565b6001600160a01b03821661162d5760405162461bcd60e51b8152602060048201526024808201527f4552433732313a207472616e7366657220746f20746865207a65726f206164646044820152637265737360e01b6064820152608401610887565b61163860008261142d565b6001600160a01b0383166000908152600360205260408120805460019290611661908490612777565b90915550506001600160a01b038216600090815260036020526040812080546001929061168f90849061278a565b909155505060008181526002602052604080822080546001600160a01b0319166001600160a01b0386811691821790925591518493918716917fddf252ad1be2c89b69c2b068fc378daa952ba7f163c4a11628f55a4df523b3ef91a4505050565b60006002600754036117445760405162461bcd60e51b815260206004820152601f60248201527f5265656e7472616e637947756172643a207265656e7472616e742063616c6c006044820152606401610887565b6002600755600a5460ff1615156001146117985760405162461bcd60e51b81526020600482015260156024820152744d696e74696e67206973206e6f742061637469766560581b6044820152606401610887565b60ff8411156117da5760405162461bcd60e51b815260206004820152600e60248201526d42616420747970652076616c756560901b6044820152606401610887565b600f83111561181f5760405162461bcd60e51b8152602060048201526011602482015270426164207175616c6974792076616c756560781b6044820152606401610887565b600e6040518060a00160405280846001600160a01b03168152602001846001600160a01b03168152602001336001600160a01b031681526020016118638787611fb3565b81526000602091820181905283546001808201865594825290829020835160059092020180546001600160a01b03199081166001600160a01b039384161782559284015181860180548516918416919091179055604084015160028201805490941692169190911790915560608201516003820155608090910151600490910155600e54611912916118f491612777565b6001600160a01b0384166000908152600f60205260409020906113c2565b50600e5461192d90339061192890600190612777565b61204d565b600e5461193c90600190612777565b600e80547fa09e77a6a977428df2b85b5962b2a5074b3d3beaaf4b0e283f61d83b4cebdb33919061196f90600190612777565b8154811061197f5761197f6125c2565b9060005260206000209060050201600301546040516119a091815260200190565b60405180910390a2600e546119b790600190612777565b6001600755949350505050565b6119cf848484611554565b6119db84848484612067565b61090f5760405162461bcd60e51b81526004016108879061279d565b6000611a0282610ecb565b9050611a0f60008361142d565b6001600160a01b0381166000908152600360205260408120805460019290611a38908490612777565b909155505060008281526002602052604080822080546001600160a01b0319169055518391906001600160a01b038416907fddf252ad1be2c89b69c2b068fc378daa952ba7f163c4a11628f55a4df523b3ef908390a45050565b600680546001600160a01b038381166001600160a01b0319831681179093556040519116919082907f8be0079c531659141344cd1fd0a4f28419497f9722a3daafe3b4186f6b6457e090600090a35050565b816001600160a01b0316836001600160a01b031603611b455760405162461bcd60e51b815260206004820152601960248201527f4552433732313a20617070726f766520746f2063616c6c6572000000000000006044820152606401610887565b6001600160a01b03838116600081815260056020908152604080832094871680845294825291829020805460ff191686151590811790915591519182527f17307eab39ab6107e8899845ad3d59bd9653f200f220920489ca2b5937696c31910160405180910390a3505050565b60606000610ec483612168565b606081600003611be65750506040805180820190915260018152600360fc1b602082015290565b8160005b8115611c105780611bfa816127ef565b9150611c099050600a8361281e565b9150611bea565b60008167ffffffffffffffff811115611c2b57611c2b61241f565b6040519080825280601f01601f191660200182016040528015611c55576020820181803683370190505b5090505b841561154c57611c6a600183612777565b9150611c77600a86612832565b611c8290603061278a565b60f81b818381518110611c9757611c976125c2565b60200101906001600160f81b031916908160001a905350611cb9600a8661281e565b9450611c59565b611cdb81600f6000600e8581548110610db957610db96125c2565b506000600e8281548110611cf157611cf16125c2565b906000526020600020906005020160010160006101000a8154816001600160a01b0302191690836001600160a01b03160217905550610d0d816119f7565b6001600160a01b038216611d855760405162461bcd60e51b815260206004820181905260248201527f4552433732313a206d696e7420746f20746865207a65726f20616464726573736044820152606401610887565b6000818152600260205260409020546001600160a01b031615611dea5760405162461bcd60e51b815260206004820152601c60248201527f4552433732313a20746f6b656e20616c7265616479206d696e746564000000006044820152606401610887565b6001600160a01b0382166000908152600360205260408120805460019290611e1390849061278a565b909155505060008181526002602052604080822080546001600160a01b0319166001600160a01b03861690811790915590518392907fddf252ad1be2c89b69c2b068fc378daa952ba7f163c4a11628f55a4df523b3ef908290a45050565b60008181526001830160205260408120548015611f5a576000611e95600183612777565b8554909150600090611ea990600190612777565b9050818114611f0e576000866000018281548110611ec957611ec96125c2565b9060005260206000200154905080876000018481548110611eec57611eec6125c2565b6000918252602080832090910192909255918252600188019052604090208390555b8554869080611f1f57611f1f612846565b60019003818190600052602060002001600090559055856001016000868152602001908152602001600020600090556001935050505061079b565b600091505061079b565b6000818152600183016020526040812054611fab5750815460018181018455600084815260208082209093018490558454848252828601909352604090209190915561079b565b50600061079b565b600080611fbe6121c4565b604051602001611fd091815260200190565b60405160208183030381529060405290508360f81b81600081518110611ff857611ff86125c2565b60200101906001600160f81b031916908160001a9053508215612044578260f81b8160028151811061202c5761202c6125c2565b60200101906001600160f81b031916908160001a9053505b61154c8161285c565b6110d382826040518060200160405280600081525061222f565b60006001600160a01b0384163b1561215d57604051630a85bd0160e11b81526001600160a01b0385169063150b7a02906120ab903390899088908890600401612880565b6020604051808303816000875af19250505080156120e6575060408051601f3d908101601f191682019092526120e3918101906128b3565b60015b612143573d808015612114576040519150601f19603f3d011682016040523d82523d6000602084013e612119565b606091505b50805160000361213b5760405162461bcd60e51b81526004016108879061279d565b805181602001fd5b6001600160e01b031916630a85bd0160e11b14905061154c565b506001949350505050565b6060816000018054806020026020016040519081016040528092919081815260200182805480156121b857602002820191906000526020600020905b8154815260200190600101908083116121a4575b50505050509050919050565b60098054600091826121d5836127ef565b9190505550600954423360405160200161221493929190928352602083019190915260601b6bffffffffffffffffffffffff1916604082015260540190565b60405160208183030381529060405280519060200120905090565b6122398383611d2f565b6122466000848484612067565b610a4c5760405162461bcd60e51b81526004016108879061279d565b6001600160e01b031981168114610d0d57600080fd5b60006020828403121561228a57600080fd5b8135610ec481612262565b60005b838110156122b0578181015183820152602001612298565b50506000910152565b600081518084526122d1816020860160208601612295565b601f01601f19169290920160200192915050565b602081526000610ec460208301846122b9565b80356001600160a01b038116811461230f57600080fd5b919050565b60008060006060848603121561232957600080fd5b612332846122f8565b9250612340602085016122f8565b9150604084013590509250925092565b60006020828403121561236257600080fd5b5035919050565b6000806040838503121561237c57600080fd5b612385836122f8565b946020939093013593505050565b6000602082840312156123a557600080fd5b610ec4826122f8565b6000806000606084860312156123c357600080fd5b83359250602084013591506123da604085016122f8565b90509250925092565b600080604083850312156123f657600080fd5b6123ff836122f8565b91506020830135801515811461241457600080fd5b809150509250929050565b634e487b7160e01b600052604160045260246000fd5b6000806000806080858703121561244b57600080fd5b612454856122f8565b9350612462602086016122f8565b925060408501359150606085013567ffffffffffffffff8082111561248657600080fd5b818701915087601f83011261249a57600080fd5b8135818111156124ac576124ac61241f565b604051601f8201601f19908116603f011681019083821181831017156124d4576124d461241f565b816040528281528a60208487010111156124ed57600080fd5b82602086016020830137600060208483010152809550505050505092959194509250565b6020808252825182820181905260009190848201906040850190845b818110156125495783518352928401929184019160010161252d565b50909695505050505050565b6000806040838503121561256857600080fd5b612571836122f8565b915061257f602084016122f8565b90509250929050565b600181811c9082168061259c57607f821691505b6020821081036125bc57634e487b7160e01b600052602260045260246000fd5b50919050565b634e487b7160e01b600052603260045260246000fd5b6020808252602e908201527f4552433732313a2063616c6c6572206973206e6f7420746f6b656e206f776e6560408201526d1c881b9bdc88185c1c1c9bdd995960921b606082015260800190565b60008251612638818460208701612295565b9190910192915050565b634e487b7160e01b600052601160045260246000fd5b600181815b8085111561269357816000190482111561267957612679612642565b8085161561268657918102915b93841c939080029061265d565b509250929050565b6000826126aa5750600161079b565b816126b75750600061079b565b81600181146126cd57600281146126d7576126f3565b600191505061079b565b60ff8411156126e8576126e8612642565b50506001821b61079b565b5060208310610133831016604e8410600b8410161715612716575081810a61079b565b6127208383612658565b806000190482111561273457612734612642565b029392505050565b6000610ec4838361269b565b6000835161275a818460208801612295565b83519083019061276e818360208801612295565b01949350505050565b8181038181111561079b5761079b612642565b8082018082111561079b5761079b612642565b60208082526032908201527f4552433732313a207472616e7366657220746f206e6f6e20455243373231526560408201527131b2b4bb32b91034b6b83632b6b2b73a32b960711b606082015260800190565b60006001820161280157612801612642565b5060010190565b634e487b7160e01b600052601260045260246000fd5b60008261282d5761282d612808565b500490565b60008261284157612841612808565b500690565b634e487b7160e01b600052603160045260246000fd5b805160208083015191908110156125bc5760001960209190910360031b1b16919050565b6001600160a01b03858116825284166020820152604081018390526080606082018190526000906110be908301846122b9565b6000602082840312156128c557600080fd5b8151610ec48161226256fea264697066735822122024ccc2b9f2b8dc6eba3d1a458a0d258181e307b70f36a378df65da474d3bf45b64736f6c63430008110033",
  "devdoc": {
    "kind": "dev",
    "methods": {
      "approve(address,uint256)": {
        "details": "See {IERC721-approve}."
      },
      "balanceOf(address)": {
        "details": "See {IERC721-balanceOf}."
      },
      "burn(uint256)": {
        "details": "Burns `tokenId`. See {ERC721-_burn}. Requirements: - The caller must own `tokenId` or be an approved operator."
      },
      "getApproved(uint256)": {
        "details": "See {IERC721-getApproved}."
      },
      "isApprovedForAll(address,address)": {
        "details": "See {IERC721-isApprovedForAll}."
      },
      "name()": {
        "details": "See {IERC721Metadata-name}."
      },
      "owner()": {
        "details": "Returns the address of the current owner."
      },
      "ownerOf(uint256)": {
        "details": "See {IERC721-ownerOf}."
      },
      "renounceOwnership()": {
        "details": "Leaves the contract without owner. It will not be possible to call `onlyOwner` functions anymore. Can only be called by the current owner. NOTE: Renouncing ownership will leave the contract without an owner, thereby removing any functionality that is only available to the owner."
      },
      "safeTransferFrom(address,address,uint256,bytes)": {
        "details": "See {IERC721-safeTransferFrom}."
      },
      "setApprovalForAll(address,bool)": {
        "details": "See {IERC721-setApprovalForAll}."
      },
      "supportsInterface(bytes4)": {
        "details": "See {IERC165-supportsInterface}."
      },
      "symbol()": {
        "details": "See {IERC721Metadata-symbol}."
      },
      "tokenURI(uint256)": {
        "details": "See {IERC721Metadata-tokenURI}."
      },
      "transferFrom(address,address,uint256)": {
        "details": "See {IERC721-transferFrom}."
      },
      "transferOwnership(address)": {
        "details": "Transfers ownership of the contract to a new account (`newOwner`). Can only be called by the current owner."
      }
    },
    "version": 1
  },
  "userdoc": {
    "kind": "user",
    "methods": {},
    "version": 1
  },
  "storageLayout": {
    "storage": [
      {
        "astId": 867,
        "contract": "contracts/UniversalInventory.sol:UniversalInventoryFactory",
        "label": "_name",
        "offset": 0,
        "slot": "0",
        "type": "t_string_storage"
      },
      {
        "astId": 869,
        "contract": "contracts/UniversalInventory.sol:UniversalInventoryFactory",
        "label": "_symbol",
        "offset": 0,
        "slot": "1",
        "type": "t_string_storage"
      },
      {
        "astId": 873,
        "contract": "contracts/UniversalInventory.sol:UniversalInventoryFactory",
        "label": "_owners",
        "offset": 0,
        "slot": "2",
        "type": "t_mapping(t_uint256,t_address)"
      },
      {
        "astId": 877,
        "contract": "contracts/UniversalInventory.sol:UniversalInventoryFactory",
        "label": "_balances",
        "offset": 0,
        "slot": "3",
        "type": "t_mapping(t_address,t_uint256)"
      },
      {
        "astId": 881,
        "contract": "contracts/UniversalInventory.sol:UniversalInventoryFactory",
        "label": "_tokenApprovals",
        "offset": 0,
        "slot": "4",
        "type": "t_mapping(t_uint256,t_address)"
      },
      {
        "astId": 887,
        "contract": "contracts/UniversalInventory.sol:UniversalInventoryFactory",
        "label": "_operatorApprovals",
        "offset": 0,
        "slot": "5",
        "type": "t_mapping(t_address,t_mapping(t_address,t_bool))"
      },
      {
        "astId": 7,
        "contract": "contracts/UniversalInventory.sol:UniversalInventoryFactory",
        "label": "_owner",
        "offset": 0,
        "slot": "6",
        "type": "t_address"
      },
      {
        "astId": 123,
        "contract": "contracts/UniversalInventory.sol:UniversalInventoryFactory",
        "label": "_status",
        "offset": 0,
        "slot": "7",
        "type": "t_uint256"
      },
      {
        "astId": 22833,
        "contract": "contracts/UniversalInventory.sol:UniversalInventoryFactory",
        "label": "uifCredits",
        "offset": 0,
        "slot": "8",
        "type": "t_contract(UIFCreditsInterface)22820"
      },
      {
        "astId": 22836,
        "contract": "contracts/UniversalInventory.sol:UniversalInventoryFactory",
        "label": "seed",
        "offset": 0,
        "slot": "9",
        "type": "t_uint256"
      },
      {
        "astId": 22839,
        "contract": "contracts/UniversalInventory.sol:UniversalInventoryFactory",
        "label": "mintIsActive",
        "offset": 0,
        "slot": "10",
        "type": "t_bool"
      },
      {
        "astId": 22842,
        "contract": "contracts/UniversalInventory.sol:UniversalInventoryFactory",
        "label": "baseCost",
        "offset": 0,
        "slot": "11",
        "type": "t_uint256"
      },
      {
        "astId": 22845,
        "contract": "contracts/UniversalInventory.sol:UniversalInventoryFactory",
        "label": "recycleCredit",
        "offset": 0,
        "slot": "12",
        "type": "t_uint256"
      },
      {
        "astId": 22848,
        "contract": "contracts/UniversalInventory.sol:UniversalInventoryFactory",
        "label": "creditsBaseCost",
        "offset": 0,
        "slot": "13",
        "type": "t_uint256"
      },
      {
        "astId": 22869,
        "contract": "contracts/UniversalInventory.sol:UniversalInventoryFactory",
        "label": "items",
        "offset": 0,
        "slot": "14",
        "type": "t_array(t_struct(UniversalInventoryItem)22865_storage)dyn_storage"
      },
      {
        "astId": 22874,
        "contract": "contracts/UniversalInventory.sol:UniversalInventoryFactory",
        "label": "uiisOwned",
        "offset": 0,
        "slot": "15",
        "type": "t_mapping(t_address,t_struct(UintSet)3021_storage)"
      }
    ],
    "types": {
      "t_address": {
        "encoding": "inplace",
        "label": "address",
        "numberOfBytes": "20"
      },
      "t_array(t_bytes32)dyn_storage": {
        "base": "t_bytes32",
        "encoding": "dynamic_array",
        "label": "bytes32[]",
        "numberOfBytes": "32"
      },
      "t_array(t_struct(UniversalInventoryItem)22865_storage)dyn_storage": {
        "base": "t_struct(UniversalInventoryItem)22865_storage",
        "encoding": "dynamic_array",
        "label": "struct UniversalInventoryFactory.UniversalInventoryItem[]",
        "numberOfBytes": "32"
      },
      "t_bool": {
        "encoding": "inplace",
        "label": "bool",
        "numberOfBytes": "1"
      },
      "t_bytes32": {
        "encoding": "inplace",
        "label": "bytes32",
        "numberOfBytes": "32"
      },
      "t_contract(UIFCreditsInterface)22820": {
        "encoding": "inplace",
        "label": "contract UIFCreditsInterface",
        "numberOfBytes": "20"
      },
      "t_mapping(t_address,t_bool)": {
        "encoding": "mapping",
        "key": "t_address",
        "label": "mapping(address => bool)",
        "numberOfBytes": "32",
        "value": "t_bool"
      },
      "t_mapping(t_address,t_mapping(t_address,t_bool))": {
        "encoding": "mapping",
        "key": "t_address",
        "label": "mapping(address => mapping(address => bool))",
        "numberOfBytes": "32",
        "value": "t_mapping(t_address,t_bool)"
      },
      "t_mapping(t_address,t_struct(UintSet)3021_storage)": {
        "encoding": "mapping",
        "key": "t_address",
        "label": "mapping(address => struct EnumerableSet.UintSet)",
        "numberOfBytes": "32",
        "value": "t_struct(UintSet)3021_storage"
      },
      "t_mapping(t_address,t_uint256)": {
        "encoding": "mapping",
        "key": "t_address",
        "label": "mapping(address => uint256)",
        "numberOfBytes": "32",
        "value": "t_uint256"
      },
      "t_mapping(t_bytes32,t_uint256)": {
        "encoding": "mapping",
        "key": "t_bytes32",
        "label": "mapping(bytes32 => uint256)",
        "numberOfBytes": "32",
        "value": "t_uint256"
      },
      "t_mapping(t_uint256,t_address)": {
        "encoding": "mapping",
        "key": "t_uint256",
        "label": "mapping(uint256 => address)",
        "numberOfBytes": "32",
        "value": "t_address"
      },
      "t_string_storage": {
        "encoding": "bytes",
        "label": "string",
        "numberOfBytes": "32"
      },
      "t_struct(Set)2563_storage": {
        "encoding": "inplace",
        "label": "struct EnumerableSet.Set",
        "members": [
          {
            "astId": 2558,
            "contract": "contracts/UniversalInventory.sol:UniversalInventoryFactory",
            "label": "_values",
            "offset": 0,
            "slot": "0",
            "type": "t_array(t_bytes32)dyn_storage"
          },
          {
            "astId": 2562,
            "contract": "contracts/UniversalInventory.sol:UniversalInventoryFactory",
            "label": "_indexes",
            "offset": 0,
            "slot": "1",
            "type": "t_mapping(t_bytes32,t_uint256)"
          }
        ],
        "numberOfBytes": "64"
      },
      "t_struct(UintSet)3021_storage": {
        "encoding": "inplace",
        "label": "struct EnumerableSet.UintSet",
        "members": [
          {
            "astId": 3020,
            "contract": "contracts/UniversalInventory.sol:UniversalInventoryFactory",
            "label": "_inner",
            "offset": 0,
            "slot": "0",
            "type": "t_struct(Set)2563_storage"
          }
        ],
        "numberOfBytes": "64"
      },
      "t_struct(UniversalInventoryItem)22865_storage": {
        "encoding": "inplace",
        "label": "struct UniversalInventoryFactory.UniversalInventoryItem",
        "members": [
          {
            "astId": 22856,
            "contract": "contracts/UniversalInventory.sol:UniversalInventoryFactory",
            "label": "originalOwner",
            "offset": 0,
            "slot": "0",
            "type": "t_address"
          },
          {
            "astId": 22858,
            "contract": "contracts/UniversalInventory.sol:UniversalInventoryFactory",
            "label": "currentOwner",
            "offset": 0,
            "slot": "1",
            "type": "t_address"
          },
          {
            "astId": 22860,
            "contract": "contracts/UniversalInventory.sol:UniversalInventoryFactory",
            "label": "creator",
            "offset": 0,
            "slot": "2",
            "type": "t_address"
          },
          {
            "astId": 22862,
            "contract": "contracts/UniversalInventory.sol:UniversalInventoryFactory",
            "label": "properties",
            "offset": 0,
            "slot": "3",
            "type": "t_bytes32"
          },
          {
            "astId": 22864,
            "contract": "contracts/UniversalInventory.sol:UniversalInventoryFactory",
            "label": "taxonomyVersion",
            "offset": 0,
            "slot": "4",
            "type": "t_uint256"
          }
        ],
        "numberOfBytes": "160"
      },
      "t_uint256": {
        "encoding": "inplace",
        "label": "uint256",
        "numberOfBytes": "32"
      }
    }
  }
}