{
  "address": "0xA7E076bA018B4dA66E180067F8B2B3223E6d4Fc8",
  "abi": [
    {
      "inputs": [],
      "stateMutability": "nonpayable",
      "type": "constructor"
    },
    {
      "anonymous": false,
      "inputs": [
        {
          "indexed": true,
          "internalType": "address",
          "name": "owner",
          "type": "address"
        },
        {
          "indexed": true,
          "internalType": "address",
          "name": "approved",
          "type": "address"
        },
        {
          "indexed": true,
          "internalType": "uint256",
          "name": "tokenId",
          "type": "uint256"
        }
      ],
      "name": "Approval",
      "type": "event"
    },
    {
      "anonymous": false,
      "inputs": [
        {
          "indexed": true,
          "internalType": "address",
          "name": "owner",
          "type": "address"
        },
        {
          "indexed": true,
          "internalType": "address",
          "name": "operator",
          "type": "address"
        },
        {
          "indexed": false,
          "internalType": "bool",
          "name": "approved",
          "type": "bool"
        }
      ],
      "name": "ApprovalForAll",
      "type": "event"
    },
    {
      "anonymous": false,
      "inputs": [],
      "name": "NewItem",
      "type": "event"
    },
    {
      "anonymous": false,
      "inputs": [
        {
          "indexed": true,
          "internalType": "address",
          "name": "previousOwner",
          "type": "address"
        },
        {
          "indexed": true,
          "internalType": "address",
          "name": "newOwner",
          "type": "address"
        }
      ],
      "name": "OwnershipTransferred",
      "type": "event"
    },
    {
      "anonymous": false,
      "inputs": [
        {
          "indexed": true,
          "internalType": "address",
          "name": "from",
          "type": "address"
        },
        {
          "indexed": true,
          "internalType": "address",
          "name": "to",
          "type": "address"
        },
        {
          "indexed": true,
          "internalType": "uint256",
          "name": "tokenId",
          "type": "uint256"
        }
      ],
      "name": "Transfer",
      "type": "event"
    },
    {
      "inputs": [
        {
          "internalType": "address",
          "name": "to",
          "type": "address"
        },
        {
          "internalType": "uint256",
          "name": "tokenId",
          "type": "uint256"
        }
      ],
      "name": "approve",
      "outputs": [],
      "stateMutability": "nonpayable",
      "type": "function"
    },
    {
      "inputs": [
        {
          "internalType": "address",
          "name": "owner",
          "type": "address"
        }
      ],
      "name": "balanceOf",
      "outputs": [
        {
          "internalType": "uint256",
          "name": "",
          "type": "uint256"
        }
      ],
      "stateMutability": "view",
      "type": "function"
    },
    {
      "inputs": [],
      "name": "baseCost",
      "outputs": [
        {
          "internalType": "uint256",
          "name": "",
          "type": "uint256"
        }
      ],
      "stateMutability": "view",
      "type": "function"
    },
    {
      "inputs": [
        {
          "internalType": "uint256",
          "name": "tokenId",
          "type": "uint256"
        }
      ],
      "name": "burn",
      "outputs": [],
      "stateMutability": "nonpayable",
      "type": "function"
    },
    {
      "inputs": [
        {
          "internalType": "uint256",
          "name": "_id",
          "type": "uint256"
        }
      ],
      "name": "extGetCurrentOwner",
      "outputs": [
        {
          "internalType": "address",
          "name": "",
          "type": "address"
        }
      ],
      "stateMutability": "view",
      "type": "function"
    },
    {
      "inputs": [
        {
          "internalType": "uint256",
          "name": "_id",
          "type": "uint256"
        }
      ],
      "name": "extGetItem",
      "outputs": [
        {
          "components": [
            {
              "internalType": "address",
              "name": "originalOwner",
              "type": "address"
            },
            {
              "internalType": "address",
              "name": "currentOwner",
              "type": "address"
            },
            {
              "internalType": "address",
              "name": "creator",
              "type": "address"
            },
            {
              "internalType": "bytes32",
              "name": "properties",
              "type": "bytes32"
            },
            {
              "internalType": "uint256",
              "name": "taxonomyVersion",
              "type": "uint256"
            }
          ],
          "internalType": "struct UniversalInventoryFactory.UniversalInventoryItem",
          "name": "",
          "type": "tuple"
        }
      ],
      "stateMutability": "view",
      "type": "function"
    },
    {
      "inputs": [
        {
          "internalType": "address",
          "name": "_currentOwner",
          "type": "address"
        }
      ],
      "name": "extGetListOfUIIsOwned",
      "outputs": [
        {
          "internalType": "uint256[]",
          "name": "",
          "type": "uint256[]"
        }
      ],
      "stateMutability": "view",
      "type": "function"
    },
    {
      "inputs": [
        {
          "internalType": "uint256",
          "name": "_id",
          "type": "uint256"
        }
      ],
      "name": "extGetProperties",
      "outputs": [
        {
          "internalType": "bytes32",
          "name": "",
          "type": "bytes32"
        }
      ],
      "stateMutability": "view",
      "type": "function"
    },
    {
      "inputs": [
        {
          "internalType": "uint256",
          "name": "tokenId",
          "type": "uint256"
        }
      ],
      "name": "getApproved",
      "outputs": [
        {
          "internalType": "address",
          "name": "",
          "type": "address"
        }
      ],
      "stateMutability": "view",
      "type": "function"
    },
    {
      "inputs": [
        {
          "internalType": "address",
          "name": "owner",
          "type": "address"
        },
        {
          "internalType": "address",
          "name": "operator",
          "type": "address"
        }
      ],
      "name": "isApprovedForAll",
      "outputs": [
        {
          "internalType": "bool",
          "name": "",
          "type": "bool"
        }
      ],
      "stateMutability": "view",
      "type": "function"
    },
    {
      "inputs": [
        {
          "internalType": "uint256",
          "name": "",
          "type": "uint256"
        }
      ],
      "name": "items",
      "outputs": [
        {
          "internalType": "address",
          "name": "originalOwner",
          "type": "address"
        },
        {
          "internalType": "address",
          "name": "currentOwner",
          "type": "address"
        },
        {
          "internalType": "address",
          "name": "creator",
          "type": "address"
        },
        {
          "internalType": "bytes32",
          "name": "properties",
          "type": "bytes32"
        },
        {
          "internalType": "uint256",
          "name": "taxonomyVersion",
          "type": "uint256"
        }
      ],
      "stateMutability": "view",
      "type": "function"
    },
    {
      "inputs": [],
      "name": "mintIsActive",
      "outputs": [
        {
          "internalType": "bool",
          "name": "",
          "type": "bool"
        }
      ],
      "stateMutability": "view",
      "type": "function"
    },
    {
      "inputs": [
        {
          "internalType": "uint256",
          "name": "_type",
          "type": "uint256"
        },
        {
          "internalType": "uint256",
          "name": "_quality",
          "type": "uint256"
        },
        {
          "internalType": "address",
          "name": "_minter",
          "type": "address"
        }
      ],
      "name": "mintItem",
      "outputs": [
        {
          "internalType": "uint256",
          "name": "",
          "type": "uint256"
        }
      ],
      "stateMutability": "payable",
      "type": "function"
    },
    {
      "inputs": [],
      "name": "name",
      "outputs": [
        {
          "internalType": "string",
          "name": "",
          "type": "string"
        }
      ],
      "stateMutability": "view",
      "type": "function"
    },
    {
      "inputs": [],
      "name": "owner",
      "outputs": [
        {
          "internalType": "address",
          "name": "",
          "type": "address"
        }
      ],
      "stateMutability": "view",
      "type": "function"
    },
    {
      "inputs": [
        {
          "internalType": "uint256",
          "name": "tokenId",
          "type": "uint256"
        }
      ],
      "name": "ownerOf",
      "outputs": [
        {
          "internalType": "address",
          "name": "",
          "type": "address"
        }
      ],
      "stateMutability": "view",
      "type": "function"
    },
    {
      "inputs": [],
      "name": "renounceOwnership",
      "outputs": [],
      "stateMutability": "nonpayable",
      "type": "function"
    },
    {
      "inputs": [
        {
          "internalType": "address",
          "name": "from",
          "type": "address"
        },
        {
          "internalType": "address",
          "name": "to",
          "type": "address"
        },
        {
          "internalType": "uint256",
          "name": "tokenId",
          "type": "uint256"
        }
      ],
      "name": "safeTransferFrom",
      "outputs": [],
      "stateMutability": "nonpayable",
      "type": "function"
    },
    {
      "inputs": [
        {
          "internalType": "address",
          "name": "from",
          "type": "address"
        },
        {
          "internalType": "address",
          "name": "to",
          "type": "address"
        },
        {
          "internalType": "uint256",
          "name": "tokenId",
          "type": "uint256"
        },
        {
          "internalType": "bytes",
          "name": "data",
          "type": "bytes"
        }
      ],
      "name": "safeTransferFrom",
      "outputs": [],
      "stateMutability": "nonpayable",
      "type": "function"
    },
    {
      "inputs": [
        {
          "internalType": "address",
          "name": "operator",
          "type": "address"
        },
        {
          "internalType": "bool",
          "name": "approved",
          "type": "bool"
        }
      ],
      "name": "setApprovalForAll",
      "outputs": [],
      "stateMutability": "nonpayable",
      "type": "function"
    },
    {
      "inputs": [
        {
          "internalType": "address",
          "name": "_newOwner",
          "type": "address"
        },
        {
          "internalType": "address",
          "name": "_oldOwner",
          "type": "address"
        },
        {
          "internalType": "uint256",
          "name": "_id",
          "type": "uint256"
        }
      ],
      "name": "setCurrentOwner",
      "outputs": [],
      "stateMutability": "nonpayable",
      "type": "function"
    },
    {
      "inputs": [
        {
          "internalType": "bytes4",
          "name": "interfaceId",
          "type": "bytes4"
        }
      ],
      "name": "supportsInterface",
      "outputs": [
        {
          "internalType": "bool",
          "name": "",
          "type": "bool"
        }
      ],
      "stateMutability": "view",
      "type": "function"
    },
    {
      "inputs": [],
      "name": "symbol",
      "outputs": [
        {
          "internalType": "string",
          "name": "",
          "type": "string"
        }
      ],
      "stateMutability": "view",
      "type": "function"
    },
    {
      "inputs": [
        {
          "internalType": "uint256",
          "name": "tokenId",
          "type": "uint256"
        }
      ],
      "name": "tokenURI",
      "outputs": [
        {
          "internalType": "string",
          "name": "",
          "type": "string"
        }
      ],
      "stateMutability": "view",
      "type": "function"
    },
    {
      "inputs": [
        {
          "internalType": "address",
          "name": "from",
          "type": "address"
        },
        {
          "internalType": "address",
          "name": "to",
          "type": "address"
        },
        {
          "internalType": "uint256",
          "name": "tokenId",
          "type": "uint256"
        }
      ],
      "name": "transferFrom",
      "outputs": [],
      "stateMutability": "nonpayable",
      "type": "function"
    },
    {
      "inputs": [],
      "name": "transferFundsOut",
      "outputs": [],
      "stateMutability": "nonpayable",
      "type": "function"
    },
    {
      "inputs": [
        {
          "internalType": "address",
          "name": "newOwner",
          "type": "address"
        }
      ],
      "name": "transferOwnership",
      "outputs": [],
      "stateMutability": "nonpayable",
      "type": "function"
    },
    {
      "inputs": [
        {
          "internalType": "address",
          "name": "",
          "type": "address"
        },
        {
          "internalType": "uint256",
          "name": "",
          "type": "uint256"
        }
      ],
      "name": "uiisOwned",
      "outputs": [
        {
          "internalType": "uint256",
          "name": "",
          "type": "uint256"
        }
      ],
      "stateMutability": "view",
      "type": "function"
    }
  ],
  "transactionHash": "0x0d5336de356010641e37e759c6caaf7a88c0ccc1a3259aca1806bdf7494dfed1",
  "args": [],
  "numDeployments": 1,
  "solcInputHash": "47bac0ef713048e9b2d596a12d77c6d4",
  "bytecode": "0x608060405260006007556008805460ff1916600117905564174876e8006009553480156200002c57600080fd5b506040518060400160405280601b81526020017f556e6976657273616c20496e76656e746f727920466163746f72790000000000815250604051806040016040528060038152602001622aa4a360e91b8152508160009081620000909190620001c9565b5060016200009f8282620001c9565b505050620000bc620000b6620000ce60201b60201c565b620000d2565b600a8054600101815560005262000295565b3390565b600680546001600160a01b038381166001600160a01b0319831681179093556040519116919082907f8be0079c531659141344cd1fd0a4f28419497f9722a3daafe3b4186f6b6457e090600090a35050565b634e487b7160e01b600052604160045260246000fd5b600181811c908216806200014f57607f821691505b6020821081036200017057634e487b7160e01b600052602260045260246000fd5b50919050565b601f821115620001c457600081815260208120601f850160051c810160208610156200019f5750805b601f850160051c820191505b81811015620001c057828155600101620001ab565b5050505b505050565b81516001600160401b03811115620001e557620001e562000124565b620001fd81620001f684546200013a565b8462000176565b602080601f8311600181146200023557600084156200021c5750858301515b600019600386901b1c1916600185901b178555620001c0565b600085815260208120601f198616915b82811015620002665788860151825594840194600190910190840162000245565b5085821015620002855787850151600019600388901b60f8161c191681555b5050505050600190811b01905550565b61228280620002a56000396000f3fe6080604052600436106101b75760003560e01c8063715018a6116100ec578063aa4ecdb91161008a578063bfb231d211610064578063bfb231d214610512578063c87b56dd1461056b578063e985e9c51461058b578063f2fde38b146105ab57600080fd5b8063aa4ecdb91461045b578063b88d4fde146104c5578063bd69ef20146104e557600080fd5b806395a81d4e116100c657806395a81d4e146103f357806395d89b41146104135780639b6507f014610428578063a22cb4651461043b57600080fd5b8063715018a6146103aa5780638da5cb5b146103bf57806393822557146103dd57600080fd5b80633838aed111610159578063471a429411610133578063471a4294146103305780634d3ef6441461034a5780636352211e1461036a57806370a082311461038a57600080fd5b80633838aed1146102db57806342842e0e146102f057806342966c681461031057600080fd5b8063081812fc11610195578063081812fc14610235578063095ea7b31461026d57806323b872dd1461028d57806328518381146102ad57600080fd5b806301ffc9a7146101bc57806306fdde03146101f157806307084e5614610213575b600080fd5b3480156101c857600080fd5b506101dc6101d7366004611c26565b6105cb565b60405190151581526020015b60405180910390f35b3480156101fd57600080fd5b5061020661061d565b6040516101e89190611c93565b34801561021f57600080fd5b5061023361022e366004611cc2565b6106af565b005b34801561024157600080fd5b50610255610250366004611cfe565b6108ef565b6040516001600160a01b0390911681526020016101e8565b34801561027957600080fd5b50610233610288366004611d17565b610916565b34801561029957600080fd5b506102336102a8366004611cc2565b610a2b565b3480156102b957600080fd5b506102cd6102c8366004611cfe565b610a5d565b6040519081526020016101e8565b3480156102e757600080fd5b50610233610a8b565b3480156102fc57600080fd5b5061023361030b366004611cc2565b610acf565b34801561031c57600080fd5b5061023361032b366004611cfe565b610aea565b34801561033c57600080fd5b506008546101dc9060ff1681565b34801561035657600080fd5b506102cd610365366004611d17565b610b18565b34801561037657600080fd5b50610255610385366004611cfe565b610b49565b34801561039657600080fd5b506102cd6103a5366004611d41565b610ba9565b3480156103b657600080fd5b50610233610c2f565b3480156103cb57600080fd5b506006546001600160a01b0316610255565b3480156103e957600080fd5b506102cd60095481565b3480156103ff57600080fd5b5061025561040e366004611cfe565b610c43565b34801561041f57600080fd5b50610206610c7b565b6102cd610436366004611d5c565b610c8a565b34801561044757600080fd5b50610233610456366004611d91565b610f51565b34801561046757600080fd5b5061047b610476366004611cfe565b610f60565b6040805182516001600160a01b039081168252602080850151821690830152838301511691810191909152606080830151908201526080918201519181019190915260a0016101e8565b3480156104d157600080fd5b506102336104e0366004611de3565b610fff565b3480156104f157600080fd5b50610505610500366004611d41565b611037565b6040516101e89190611ebf565b34801561051e57600080fd5b5061053261052d366004611cfe565b6110a3565b604080516001600160a01b039687168152948616602086015292909416918301919091526060820152608081019190915260a0016101e8565b34801561057757600080fd5b50610206610586366004611cfe565b6110f2565b34801561059757600080fd5b506101dc6105a6366004611f03565b611166565b3480156105b757600080fd5b506102336105c6366004611d41565b611194565b60006001600160e01b031982166380ac58cd60e01b14806105fc57506001600160e01b03198216635b5e139f60e01b145b8061061757506301ffc9a760e01b6001600160e01b03198316145b92915050565b60606000805461062c90611f36565b80601f016020809104026020016040519081016040528092919081815260200182805461065890611f36565b80156106a55780601f1061067a576101008083540402835291602001916106a5565b820191906000526020600020905b81548152906001019060200180831161068857829003601f168201915b5050505050905090565b6106b881610b49565b6001600160a01b0316336001600160a01b03161461070c5760405162461bcd60e51b815260206004820152600c60248201526b139bdd081e5bdd5c881b999d60a21b60448201526064015b60405180910390fd5b82600a828154811061072057610720611f70565b600091825260208083206001600590930201820180546001600160a01b039586166001600160a01b03199091161790559285168252600b9092526040812054909161076a91611f9c565b67ffffffffffffffff81111561078257610782611dcd565b6040519080825280602002602001820160405280156107ab578160200160208202803683370190505b5090506000805b6001600160a01b0385166000908152600b6020526040902054811015610892576001600160a01b0385166000908152600b602052604090208054859190839081106107ff576107ff611f70565b906000526020600020015403610821578161081981611faf565b925050610880565b6001600160a01b0385166000908152600b6020526040902080548290811061084b5761084b611f70565b90600052602060002001548383836108639190611f9c565b8151811061087357610873611f70565b6020026020010181815250505b8061088a81611faf565b9150506107b2565b506001600160a01b0384166000908152600b6020908152604090912083516108bc92850190611bb0565b5050506001600160a01b039092166000908152600b60209081526040822080546001810182559083529120019190915550565b60006108fa8261120a565b506000908152600460205260409020546001600160a01b031690565b600061092182610b49565b9050806001600160a01b0316836001600160a01b03160361098e5760405162461bcd60e51b815260206004820152602160248201527f4552433732313a20617070726f76616c20746f2063757272656e74206f776e656044820152603960f91b6064820152608401610703565b336001600160a01b03821614806109aa57506109aa8133611166565b610a1c5760405162461bcd60e51b815260206004820152603e60248201527f4552433732313a20617070726f76652063616c6c6572206973206e6f7420746f60448201527f6b656e206f776e6572206e6f7220617070726f76656420666f7220616c6c00006064820152608401610703565b610a268383611269565b505050565b610a36335b826112d7565b610a525760405162461bcd60e51b815260040161070390611fc8565b610a26838383611336565b6000600a8281548110610a7257610a72611f70565b9060005260206000209060050201600301549050919050565b610a936114d2565b6006546040516001600160a01b03909116904780156108fc02916000818181858888f19350505050158015610acc573d6000803e3d6000fd5b50565b610a2683838360405180602001604052806000815250610fff565b610af333610a30565b610b0f5760405162461bcd60e51b815260040161070390611fc8565b610acc8161152c565b600b6020528160005260406000208181548110610b3457600080fd5b90600052602060002001600091509150505481565b6000818152600260205260408120546001600160a01b0316806106175760405162461bcd60e51b8152602060048201526018602482015277115490cdcc8c4e881a5b9d985b1a59081d1bdad95b88125160421b6044820152606401610703565b60006001600160a01b038216610c135760405162461bcd60e51b815260206004820152602960248201527f4552433732313a2061646472657373207a65726f206973206e6f7420612076616044820152683634b21037bbb732b960b91b6064820152608401610703565b506001600160a01b031660009081526003602052604090205490565b610c376114d2565b610c4160006115c7565b565b6000600a8281548110610c5857610c58611f70565b60009182526020909120600160059092020101546001600160a01b031692915050565b60606001805461062c90611f36565b6000610c9e6006546001600160a01b031690565b6001600160a01b0316336001600160a01b03161480610cc4575060085460ff1615156001145b610d085760405162461bcd60e51b81526020600482015260156024820152744d696e74696e67206973206e6f742061637469766560581b6044820152606401610703565b60ff841115610d4a5760405162461bcd60e51b815260206004820152600e60248201526d42616420747970652076616c756560901b6044820152606401610703565b600f831115610d8f5760405162461bcd60e51b8152602060048201526011602482015270426164207175616c6974792076616c756560781b6044820152606401610703565b600083600003610da25750600954610db3565b83600954610db091906120fa565b90505b6040516602830bcb2b21d160cd1b60208201523460278201526a0161031b7b9ba1034b99d160ad1b60478201526052810182905260009060720160405160208183030381529060405290508134148190610e205760405162461bcd60e51b81526004016107039190611c93565b50600a6040518060a00160405280866001600160a01b03168152602001866001600160a01b03168152602001336001600160a01b03168152602001610e658989611619565b81526000602091820181905283546001808201865594825290829020835160059092020180546001600160a01b03199081166001600160a01b039384161782559284015181860180548516918416919091179055604084015160028201805490941692169190911790915560608201516003820155608090910151600490910155600a54610efe913391610ef99190611f9c565b6116b3565b6001600160a01b0384166000908152600b60205260409020600a54610f2590600190611f9c565b815460018181018455600093845260209093200155600a54610f479190611f9c565b9695505050505050565b610f5c3383836116cd565b5050565b6040805160a081018252600080825260208201819052918101829052606081018290526080810191909152600a8281548110610f9e57610f9e611f70565b60009182526020918290206040805160a081018252600590930290910180546001600160a01b039081168452600182015481169484019490945260028101549093169082015260038201546060820152600490910154608082015292915050565b61100933836112d7565b6110255760405162461bcd60e51b815260040161070390611fc8565b6110318484848461179b565b50505050565b6001600160a01b0381166000908152600b602090815260409182902080548351818402810184019094528084526060939283018282801561109757602002820191906000526020600020905b815481526020019060010190808311611083575b50505050509050919050565b600a81815481106110b357600080fd5b6000918252602090912060059091020180546001820154600283015460038401546004909401546001600160a01b039384169550918316939216919085565b60606110fd8261120a565b600061111460408051602081019091526000815290565b90506000815111611134576040518060200160405280600081525061115f565b8061113e846117ce565b60405160200161114f929190612106565b6040516020818303038152906040525b9392505050565b6001600160a01b03918216600090815260056020908152604080832093909416825291909152205460ff1690565b61119c6114d2565b6001600160a01b0381166112015760405162461bcd60e51b815260206004820152602660248201527f4f776e61626c653a206e6577206f776e657220697320746865207a65726f206160448201526564647265737360d01b6064820152608401610703565b610acc816115c7565b6000818152600260205260409020546001600160a01b0316610acc5760405162461bcd60e51b8152602060048201526018602482015277115490cdcc8c4e881a5b9d985b1a59081d1bdad95b88125160421b6044820152606401610703565b600081815260046020526040902080546001600160a01b0319166001600160a01b038416908117909155819061129e82610b49565b6001600160a01b03167f8c5be1e5ebec7d5bd14f71427d1e84f3dd0314c0f7b2291e5b200ac8c7c3b92560405160405180910390a45050565b6000806112e383610b49565b9050806001600160a01b0316846001600160a01b0316148061130a575061130a8185611166565b8061132e5750836001600160a01b0316611323846108ef565b6001600160a01b0316145b949350505050565b826001600160a01b031661134982610b49565b6001600160a01b0316146113ad5760405162461bcd60e51b815260206004820152602560248201527f4552433732313a207472616e736665722066726f6d20696e636f72726563742060448201526437bbb732b960d91b6064820152608401610703565b6001600160a01b03821661140f5760405162461bcd60e51b8152602060048201526024808201527f4552433732313a207472616e7366657220746f20746865207a65726f206164646044820152637265737360e01b6064820152608401610703565b61141a600082611269565b6001600160a01b0383166000908152600360205260408120805460019290611443908490611f9c565b90915550506001600160a01b0382166000908152600360205260408120805460019290611471908490612135565b909155505060008181526002602052604080822080546001600160a01b0319166001600160a01b0386811691821790925591518493918716917fddf252ad1be2c89b69c2b068fc378daa952ba7f163c4a11628f55a4df523b3ef91a4505050565b6006546001600160a01b03163314610c415760405162461bcd60e51b815260206004820181905260248201527f4f776e61626c653a2063616c6c6572206973206e6f7420746865206f776e65726044820152606401610703565b600061153782610b49565b9050611544600083611269565b6001600160a01b038116600090815260036020526040812080546001929061156d908490611f9c565b909155505060008281526002602052604080822080546001600160a01b0319169055518391906001600160a01b038416907fddf252ad1be2c89b69c2b068fc378daa952ba7f163c4a11628f55a4df523b3ef908390a45050565b600680546001600160a01b038381166001600160a01b0319831681179093556040519116919082907f8be0079c531659141344cd1fd0a4f28419497f9722a3daafe3b4186f6b6457e090600090a35050565b6000806116246118cf565b60405160200161163691815260200190565b60405160208183030381529060405290508360f81b8160008151811061165e5761165e611f70565b60200101906001600160f81b031916908160001a90535082156116aa578260f81b8160028151811061169257611692611f70565b60200101906001600160f81b031916908160001a9053505b61132e81612148565b610f5c82826040518060200160405280600081525061193a565b816001600160a01b0316836001600160a01b03160361172e5760405162461bcd60e51b815260206004820152601960248201527f4552433732313a20617070726f766520746f2063616c6c6572000000000000006044820152606401610703565b6001600160a01b03838116600081815260056020908152604080832094871680845294825291829020805460ff191686151590811790915591519182527f17307eab39ab6107e8899845ad3d59bd9653f200f220920489ca2b5937696c31910160405180910390a3505050565b6117a6848484611336565b6117b28484848461196d565b6110315760405162461bcd60e51b81526004016107039061216c565b6060816000036117f55750506040805180820190915260018152600360fc1b602082015290565b8160005b811561181f578061180981611faf565b91506118189050600a836121d4565b91506117f9565b60008167ffffffffffffffff81111561183a5761183a611dcd565b6040519080825280601f01601f191660200182016040528015611864576020820181803683370190505b5090505b841561132e57611879600183611f9c565b9150611886600a866121e8565b611891906030612135565b60f81b8183815181106118a6576118a6611f70565b60200101906001600160f81b031916908160001a9053506118c8600a866121d4565b9450611868565b60078054600091826118e083611faf565b9190505550600754423360405160200161191f93929190928352602083019190915260601b6bffffffffffffffffffffffff1916604082015260540190565b60405160208183030381529060405280519060200120905090565b6119448383611a6e565b611951600084848461196d565b610a265760405162461bcd60e51b81526004016107039061216c565b60006001600160a01b0384163b15611a6357604051630a85bd0160e11b81526001600160a01b0385169063150b7a02906119b19033908990889088906004016121fc565b6020604051808303816000875af19250505080156119ec575060408051601f3d908101601f191682019092526119e99181019061222f565b60015b611a49573d808015611a1a576040519150601f19603f3d011682016040523d82523d6000602084013e611a1f565b606091505b508051600003611a415760405162461bcd60e51b81526004016107039061216c565b805181602001fd5b6001600160e01b031916630a85bd0160e11b14905061132e565b506001949350505050565b6001600160a01b038216611ac45760405162461bcd60e51b815260206004820181905260248201527f4552433732313a206d696e7420746f20746865207a65726f20616464726573736044820152606401610703565b6000818152600260205260409020546001600160a01b031615611b295760405162461bcd60e51b815260206004820152601c60248201527f4552433732313a20746f6b656e20616c7265616479206d696e746564000000006044820152606401610703565b6001600160a01b0382166000908152600360205260408120805460019290611b52908490612135565b909155505060008181526002602052604080822080546001600160a01b0319166001600160a01b03861690811790915590518392907fddf252ad1be2c89b69c2b068fc378daa952ba7f163c4a11628f55a4df523b3ef908290a45050565b828054828255906000526020600020908101928215611beb579160200282015b82811115611beb578251825591602001919060010190611bd0565b50611bf7929150611bfb565b5090565b5b80821115611bf75760008155600101611bfc565b6001600160e01b031981168114610acc57600080fd5b600060208284031215611c3857600080fd5b813561115f81611c10565b60005b83811015611c5e578181015183820152602001611c46565b50506000910152565b60008151808452611c7f816020860160208601611c43565b601f01601f19169290920160200192915050565b60208152600061115f6020830184611c67565b80356001600160a01b0381168114611cbd57600080fd5b919050565b600080600060608486031215611cd757600080fd5b611ce084611ca6565b9250611cee60208501611ca6565b9150604084013590509250925092565b600060208284031215611d1057600080fd5b5035919050565b60008060408385031215611d2a57600080fd5b611d3383611ca6565b946020939093013593505050565b600060208284031215611d5357600080fd5b61115f82611ca6565b600080600060608486031215611d7157600080fd5b8335925060208401359150611d8860408501611ca6565b90509250925092565b60008060408385031215611da457600080fd5b611dad83611ca6565b915060208301358015158114611dc257600080fd5b809150509250929050565b634e487b7160e01b600052604160045260246000fd5b60008060008060808587031215611df957600080fd5b611e0285611ca6565b9350611e1060208601611ca6565b925060408501359150606085013567ffffffffffffffff80821115611e3457600080fd5b818701915087601f830112611e4857600080fd5b813581811115611e5a57611e5a611dcd565b604051601f8201601f19908116603f01168101908382118183101715611e8257611e82611dcd565b816040528281528a6020848701011115611e9b57600080fd5b82602086016020830137600060208483010152809550505050505092959194509250565b6020808252825182820181905260009190848201906040850190845b81811015611ef757835183529284019291840191600101611edb565b50909695505050505050565b60008060408385031215611f1657600080fd5b611f1f83611ca6565b9150611f2d60208401611ca6565b90509250929050565b600181811c90821680611f4a57607f821691505b602082108103611f6a57634e487b7160e01b600052602260045260246000fd5b50919050565b634e487b7160e01b600052603260045260246000fd5b634e487b7160e01b600052601160045260246000fd5b8181038181111561061757610617611f86565b600060018201611fc157611fc1611f86565b5060010190565b6020808252602e908201527f4552433732313a2063616c6c6572206973206e6f7420746f6b656e206f776e6560408201526d1c881b9bdc88185c1c1c9bdd995960921b606082015260800190565b600181815b8085111561205157816000190482111561203757612037611f86565b8085161561204457918102915b93841c939080029061201b565b509250929050565b60008261206857506001610617565b8161207557506000610617565b816001811461208b5760028114612095576120b1565b6001915050610617565b60ff8411156120a6576120a6611f86565b50506001821b610617565b5060208310610133831016604e8410600b84101617156120d4575081810a610617565b6120de8383612016565b80600019048211156120f2576120f2611f86565b029392505050565b600061115f8383612059565b60008351612118818460208801611c43565b83519083019061212c818360208801611c43565b01949350505050565b8082018082111561061757610617611f86565b80516020808301519190811015611f6a5760001960209190910360031b1b16919050565b60208082526032908201527f4552433732313a207472616e7366657220746f206e6f6e20455243373231526560408201527131b2b4bb32b91034b6b83632b6b2b73a32b960711b606082015260800190565b634e487b7160e01b600052601260045260246000fd5b6000826121e3576121e36121be565b500490565b6000826121f7576121f76121be565b500690565b6001600160a01b0385811682528416602082015260408101839052608060608201819052600090610f4790830184611c67565b60006020828403121561224157600080fd5b815161115f81611c1056fea2646970667358221220fb34d5d7f977ab8d25f13d7dbb6c11636565b3212579c18a2b6319a2428f04b864736f6c63430008110033",
  "devdoc": {
    "kind": "dev",
    "methods": {
      "approve(address,uint256)": {
        "details": "See {IERC721-approve}."
      },
      "balanceOf(address)": {
        "details": "See {IERC721-balanceOf}."
      },
      "burn(uint256)": {
        "details": "Burns `tokenId`. See {ERC721-_burn}. Requirements: - The caller must own `tokenId` or be an approved operator."
      },
      "getApproved(uint256)": {
        "details": "See {IERC721-getApproved}."
      },
      "isApprovedForAll(address,address)": {
        "details": "See {IERC721-isApprovedForAll}."
      },
      "name()": {
        "details": "See {IERC721Metadata-name}."
      },
      "owner()": {
        "details": "Returns the address of the current owner."
      },
      "ownerOf(uint256)": {
        "details": "See {IERC721-ownerOf}."
      },
      "renounceOwnership()": {
        "details": "Leaves the contract without owner. It will not be possible to call `onlyOwner` functions anymore. Can only be called by the current owner. NOTE: Renouncing ownership will leave the contract without an owner, thereby removing any functionality that is only available to the owner."
      },
      "safeTransferFrom(address,address,uint256)": {
        "details": "See {IERC721-safeTransferFrom}."
      },
      "safeTransferFrom(address,address,uint256,bytes)": {
        "details": "See {IERC721-safeTransferFrom}."
      },
      "setApprovalForAll(address,bool)": {
        "details": "See {IERC721-setApprovalForAll}."
      },
      "supportsInterface(bytes4)": {
        "details": "See {IERC165-supportsInterface}."
      },
      "symbol()": {
        "details": "See {IERC721Metadata-symbol}."
      },
      "tokenURI(uint256)": {
        "details": "See {IERC721Metadata-tokenURI}."
      },
      "transferFrom(address,address,uint256)": {
        "details": "See {IERC721-transferFrom}."
      },
      "transferOwnership(address)": {
        "details": "Transfers ownership of the contract to a new account (`newOwner`). Can only be called by the current owner."
      }
    },
    "version": 1
  },
  "userdoc": {
    "kind": "user",
    "methods": {},
    "version": 1
  },
  "storageLayout": {
    "storage": [
      {
        "astId": 138,
        "contract": "contracts/UniversalInventory.sol:UniversalInventoryFactory",
        "label": "_name",
        "offset": 0,
        "slot": "0",
        "type": "t_string_storage"
      },
      {
        "astId": 140,
        "contract": "contracts/UniversalInventory.sol:UniversalInventoryFactory",
        "label": "_symbol",
        "offset": 0,
        "slot": "1",
        "type": "t_string_storage"
      },
      {
        "astId": 144,
        "contract": "contracts/UniversalInventory.sol:UniversalInventoryFactory",
        "label": "_owners",
        "offset": 0,
        "slot": "2",
        "type": "t_mapping(t_uint256,t_address)"
      },
      {
        "astId": 148,
        "contract": "contracts/UniversalInventory.sol:UniversalInventoryFactory",
        "label": "_balances",
        "offset": 0,
        "slot": "3",
        "type": "t_mapping(t_address,t_uint256)"
      },
      {
        "astId": 152,
        "contract": "contracts/UniversalInventory.sol:UniversalInventoryFactory",
        "label": "_tokenApprovals",
        "offset": 0,
        "slot": "4",
        "type": "t_mapping(t_uint256,t_address)"
      },
      {
        "astId": 158,
        "contract": "contracts/UniversalInventory.sol:UniversalInventoryFactory",
        "label": "_operatorApprovals",
        "offset": 0,
        "slot": "5",
        "type": "t_mapping(t_address,t_mapping(t_address,t_bool))"
      },
      {
        "astId": 7,
        "contract": "contracts/UniversalInventory.sol:UniversalInventoryFactory",
        "label": "_owner",
        "offset": 0,
        "slot": "6",
        "type": "t_address"
      },
      {
        "astId": 20840,
        "contract": "contracts/UniversalInventory.sol:UniversalInventoryFactory",
        "label": "TODO_randomSeed",
        "offset": 0,
        "slot": "7",
        "type": "t_uint256"
      },
      {
        "astId": 20843,
        "contract": "contracts/UniversalInventory.sol:UniversalInventoryFactory",
        "label": "mintIsActive",
        "offset": 0,
        "slot": "8",
        "type": "t_bool"
      },
      {
        "astId": 20846,
        "contract": "contracts/UniversalInventory.sol:UniversalInventoryFactory",
        "label": "baseCost",
        "offset": 0,
        "slot": "9",
        "type": "t_uint256"
      },
      {
        "astId": 20863,
        "contract": "contracts/UniversalInventory.sol:UniversalInventoryFactory",
        "label": "items",
        "offset": 0,
        "slot": "10",
        "type": "t_array(t_struct(UniversalInventoryItem)20859_storage)dyn_storage"
      },
      {
        "astId": 20868,
        "contract": "contracts/UniversalInventory.sol:UniversalInventoryFactory",
        "label": "uiisOwned",
        "offset": 0,
        "slot": "11",
        "type": "t_mapping(t_address,t_array(t_uint256)dyn_storage)"
      }
    ],
    "types": {
      "t_address": {
        "encoding": "inplace",
        "label": "address",
        "numberOfBytes": "20"
      },
      "t_array(t_struct(UniversalInventoryItem)20859_storage)dyn_storage": {
        "base": "t_struct(UniversalInventoryItem)20859_storage",
        "encoding": "dynamic_array",
        "label": "struct UniversalInventoryFactory.UniversalInventoryItem[]",
        "numberOfBytes": "32"
      },
      "t_array(t_uint256)dyn_storage": {
        "base": "t_uint256",
        "encoding": "dynamic_array",
        "label": "uint256[]",
        "numberOfBytes": "32"
      },
      "t_bool": {
        "encoding": "inplace",
        "label": "bool",
        "numberOfBytes": "1"
      },
      "t_bytes32": {
        "encoding": "inplace",
        "label": "bytes32",
        "numberOfBytes": "32"
      },
      "t_mapping(t_address,t_array(t_uint256)dyn_storage)": {
        "encoding": "mapping",
        "key": "t_address",
        "label": "mapping(address => uint256[])",
        "numberOfBytes": "32",
        "value": "t_array(t_uint256)dyn_storage"
      },
      "t_mapping(t_address,t_bool)": {
        "encoding": "mapping",
        "key": "t_address",
        "label": "mapping(address => bool)",
        "numberOfBytes": "32",
        "value": "t_bool"
      },
      "t_mapping(t_address,t_mapping(t_address,t_bool))": {
        "encoding": "mapping",
        "key": "t_address",
        "label": "mapping(address => mapping(address => bool))",
        "numberOfBytes": "32",
        "value": "t_mapping(t_address,t_bool)"
      },
      "t_mapping(t_address,t_uint256)": {
        "encoding": "mapping",
        "key": "t_address",
        "label": "mapping(address => uint256)",
        "numberOfBytes": "32",
        "value": "t_uint256"
      },
      "t_mapping(t_uint256,t_address)": {
        "encoding": "mapping",
        "key": "t_uint256",
        "label": "mapping(uint256 => address)",
        "numberOfBytes": "32",
        "value": "t_address"
      },
      "t_string_storage": {
        "encoding": "bytes",
        "label": "string",
        "numberOfBytes": "32"
      },
      "t_struct(UniversalInventoryItem)20859_storage": {
        "encoding": "inplace",
        "label": "struct UniversalInventoryFactory.UniversalInventoryItem",
        "members": [
          {
            "astId": 20850,
            "contract": "contracts/UniversalInventory.sol:UniversalInventoryFactory",
            "label": "originalOwner",
            "offset": 0,
            "slot": "0",
            "type": "t_address"
          },
          {
            "astId": 20852,
            "contract": "contracts/UniversalInventory.sol:UniversalInventoryFactory",
            "label": "currentOwner",
            "offset": 0,
            "slot": "1",
            "type": "t_address"
          },
          {
            "astId": 20854,
            "contract": "contracts/UniversalInventory.sol:UniversalInventoryFactory",
            "label": "creator",
            "offset": 0,
            "slot": "2",
            "type": "t_address"
          },
          {
            "astId": 20856,
            "contract": "contracts/UniversalInventory.sol:UniversalInventoryFactory",
            "label": "properties",
            "offset": 0,
            "slot": "3",
            "type": "t_bytes32"
          },
          {
            "astId": 20858,
            "contract": "contracts/UniversalInventory.sol:UniversalInventoryFactory",
            "label": "taxonomyVersion",
            "offset": 0,
            "slot": "4",
            "type": "t_uint256"
          }
        ],
        "numberOfBytes": "160"
      },
      "t_uint256": {
        "encoding": "inplace",
        "label": "uint256",
        "numberOfBytes": "32"
      }
    }
  }
}