{
  "address": "0x4FCad02f0eCa1662AF00F14e5518aC412bA7158b",
  "abi": [
    {
      "inputs": [],
      "stateMutability": "nonpayable",
      "type": "constructor"
    },
    {
      "anonymous": false,
      "inputs": [
        {
          "indexed": true,
          "internalType": "address",
          "name": "owner",
          "type": "address"
        },
        {
          "indexed": true,
          "internalType": "address",
          "name": "approved",
          "type": "address"
        },
        {
          "indexed": true,
          "internalType": "uint256",
          "name": "tokenId",
          "type": "uint256"
        }
      ],
      "name": "Approval",
      "type": "event"
    },
    {
      "anonymous": false,
      "inputs": [
        {
          "indexed": true,
          "internalType": "address",
          "name": "owner",
          "type": "address"
        },
        {
          "indexed": true,
          "internalType": "address",
          "name": "operator",
          "type": "address"
        },
        {
          "indexed": false,
          "internalType": "bool",
          "name": "approved",
          "type": "bool"
        }
      ],
      "name": "ApprovalForAll",
      "type": "event"
    },
    {
      "anonymous": false,
      "inputs": [],
      "name": "NewItem",
      "type": "event"
    },
    {
      "anonymous": false,
      "inputs": [
        {
          "indexed": true,
          "internalType": "address",
          "name": "previousOwner",
          "type": "address"
        },
        {
          "indexed": true,
          "internalType": "address",
          "name": "newOwner",
          "type": "address"
        }
      ],
      "name": "OwnershipTransferred",
      "type": "event"
    },
    {
      "anonymous": false,
      "inputs": [
        {
          "indexed": true,
          "internalType": "address",
          "name": "from",
          "type": "address"
        },
        {
          "indexed": true,
          "internalType": "address",
          "name": "to",
          "type": "address"
        },
        {
          "indexed": true,
          "internalType": "uint256",
          "name": "tokenId",
          "type": "uint256"
        }
      ],
      "name": "Transfer",
      "type": "event"
    },
    {
      "inputs": [
        {
          "internalType": "address",
          "name": "to",
          "type": "address"
        },
        {
          "internalType": "uint256",
          "name": "tokenId",
          "type": "uint256"
        }
      ],
      "name": "approve",
      "outputs": [],
      "stateMutability": "nonpayable",
      "type": "function"
    },
    {
      "inputs": [
        {
          "internalType": "address",
          "name": "owner",
          "type": "address"
        }
      ],
      "name": "balanceOf",
      "outputs": [
        {
          "internalType": "uint256",
          "name": "",
          "type": "uint256"
        }
      ],
      "stateMutability": "view",
      "type": "function"
    },
    {
      "inputs": [],
      "name": "baseCost",
      "outputs": [
        {
          "internalType": "uint256",
          "name": "",
          "type": "uint256"
        }
      ],
      "stateMutability": "view",
      "type": "function"
    },
    {
      "inputs": [
        {
          "internalType": "uint256",
          "name": "_id",
          "type": "uint256"
        }
      ],
      "name": "extGetCurrentOwner",
      "outputs": [
        {
          "internalType": "address",
          "name": "",
          "type": "address"
        }
      ],
      "stateMutability": "view",
      "type": "function"
    },
    {
      "inputs": [
        {
          "internalType": "uint256",
          "name": "_id",
          "type": "uint256"
        }
      ],
      "name": "extGetItem",
      "outputs": [
        {
          "components": [
            {
              "internalType": "address",
              "name": "originalOwner",
              "type": "address"
            },
            {
              "internalType": "address",
              "name": "currentOwner",
              "type": "address"
            },
            {
              "internalType": "address",
              "name": "creator",
              "type": "address"
            },
            {
              "internalType": "bytes32",
              "name": "properties",
              "type": "bytes32"
            }
          ],
          "internalType": "struct UniversalInventoryFactory.UniversalInventoryItem",
          "name": "",
          "type": "tuple"
        }
      ],
      "stateMutability": "view",
      "type": "function"
    },
    {
      "inputs": [
        {
          "internalType": "address",
          "name": "_currentOwner",
          "type": "address"
        }
      ],
      "name": "extGetListOfUIIsOwned",
      "outputs": [
        {
          "internalType": "uint256[]",
          "name": "",
          "type": "uint256[]"
        }
      ],
      "stateMutability": "view",
      "type": "function"
    },
    {
      "inputs": [
        {
          "internalType": "uint256",
          "name": "_id",
          "type": "uint256"
        }
      ],
      "name": "extGetProperties",
      "outputs": [
        {
          "internalType": "bytes32",
          "name": "",
          "type": "bytes32"
        }
      ],
      "stateMutability": "view",
      "type": "function"
    },
    {
      "inputs": [
        {
          "internalType": "uint256",
          "name": "tokenId",
          "type": "uint256"
        }
      ],
      "name": "getApproved",
      "outputs": [
        {
          "internalType": "address",
          "name": "",
          "type": "address"
        }
      ],
      "stateMutability": "view",
      "type": "function"
    },
    {
      "inputs": [
        {
          "internalType": "address",
          "name": "owner",
          "type": "address"
        },
        {
          "internalType": "address",
          "name": "operator",
          "type": "address"
        }
      ],
      "name": "isApprovedForAll",
      "outputs": [
        {
          "internalType": "bool",
          "name": "",
          "type": "bool"
        }
      ],
      "stateMutability": "view",
      "type": "function"
    },
    {
      "inputs": [
        {
          "internalType": "uint256",
          "name": "",
          "type": "uint256"
        }
      ],
      "name": "items",
      "outputs": [
        {
          "internalType": "address",
          "name": "originalOwner",
          "type": "address"
        },
        {
          "internalType": "address",
          "name": "currentOwner",
          "type": "address"
        },
        {
          "internalType": "address",
          "name": "creator",
          "type": "address"
        },
        {
          "internalType": "bytes32",
          "name": "properties",
          "type": "bytes32"
        }
      ],
      "stateMutability": "view",
      "type": "function"
    },
    {
      "inputs": [],
      "name": "mintIsActive",
      "outputs": [
        {
          "internalType": "bool",
          "name": "",
          "type": "bool"
        }
      ],
      "stateMutability": "view",
      "type": "function"
    },
    {
      "inputs": [
        {
          "internalType": "uint256",
          "name": "_type",
          "type": "uint256"
        },
        {
          "internalType": "uint256",
          "name": "_quality",
          "type": "uint256"
        },
        {
          "internalType": "address",
          "name": "_minter",
          "type": "address"
        }
      ],
      "name": "mintItem",
      "outputs": [
        {
          "internalType": "uint256",
          "name": "",
          "type": "uint256"
        }
      ],
      "stateMutability": "payable",
      "type": "function"
    },
    {
      "inputs": [],
      "name": "name",
      "outputs": [
        {
          "internalType": "string",
          "name": "",
          "type": "string"
        }
      ],
      "stateMutability": "view",
      "type": "function"
    },
    {
      "inputs": [],
      "name": "owner",
      "outputs": [
        {
          "internalType": "address",
          "name": "",
          "type": "address"
        }
      ],
      "stateMutability": "view",
      "type": "function"
    },
    {
      "inputs": [
        {
          "internalType": "uint256",
          "name": "tokenId",
          "type": "uint256"
        }
      ],
      "name": "ownerOf",
      "outputs": [
        {
          "internalType": "address",
          "name": "",
          "type": "address"
        }
      ],
      "stateMutability": "view",
      "type": "function"
    },
    {
      "inputs": [],
      "name": "renounceOwnership",
      "outputs": [],
      "stateMutability": "nonpayable",
      "type": "function"
    },
    {
      "inputs": [
        {
          "internalType": "address",
          "name": "from",
          "type": "address"
        },
        {
          "internalType": "address",
          "name": "to",
          "type": "address"
        },
        {
          "internalType": "uint256",
          "name": "tokenId",
          "type": "uint256"
        }
      ],
      "name": "safeTransferFrom",
      "outputs": [],
      "stateMutability": "nonpayable",
      "type": "function"
    },
    {
      "inputs": [
        {
          "internalType": "address",
          "name": "from",
          "type": "address"
        },
        {
          "internalType": "address",
          "name": "to",
          "type": "address"
        },
        {
          "internalType": "uint256",
          "name": "tokenId",
          "type": "uint256"
        },
        {
          "internalType": "bytes",
          "name": "data",
          "type": "bytes"
        }
      ],
      "name": "safeTransferFrom",
      "outputs": [],
      "stateMutability": "nonpayable",
      "type": "function"
    },
    {
      "inputs": [
        {
          "internalType": "address",
          "name": "operator",
          "type": "address"
        },
        {
          "internalType": "bool",
          "name": "approved",
          "type": "bool"
        }
      ],
      "name": "setApprovalForAll",
      "outputs": [],
      "stateMutability": "nonpayable",
      "type": "function"
    },
    {
      "inputs": [
        {
          "internalType": "bytes4",
          "name": "interfaceId",
          "type": "bytes4"
        }
      ],
      "name": "supportsInterface",
      "outputs": [
        {
          "internalType": "bool",
          "name": "",
          "type": "bool"
        }
      ],
      "stateMutability": "view",
      "type": "function"
    },
    {
      "inputs": [],
      "name": "symbol",
      "outputs": [
        {
          "internalType": "string",
          "name": "",
          "type": "string"
        }
      ],
      "stateMutability": "view",
      "type": "function"
    },
    {
      "inputs": [
        {
          "internalType": "uint256",
          "name": "tokenId",
          "type": "uint256"
        }
      ],
      "name": "tokenURI",
      "outputs": [
        {
          "internalType": "string",
          "name": "",
          "type": "string"
        }
      ],
      "stateMutability": "view",
      "type": "function"
    },
    {
      "inputs": [
        {
          "internalType": "address",
          "name": "from",
          "type": "address"
        },
        {
          "internalType": "address",
          "name": "to",
          "type": "address"
        },
        {
          "internalType": "uint256",
          "name": "tokenId",
          "type": "uint256"
        }
      ],
      "name": "transferFrom",
      "outputs": [],
      "stateMutability": "nonpayable",
      "type": "function"
    },
    {
      "inputs": [],
      "name": "transferFundsOut",
      "outputs": [],
      "stateMutability": "nonpayable",
      "type": "function"
    },
    {
      "inputs": [
        {
          "internalType": "address",
          "name": "newOwner",
          "type": "address"
        }
      ],
      "name": "transferOwnership",
      "outputs": [],
      "stateMutability": "nonpayable",
      "type": "function"
    },
    {
      "inputs": [
        {
          "internalType": "address",
          "name": "",
          "type": "address"
        },
        {
          "internalType": "uint256",
          "name": "",
          "type": "uint256"
        }
      ],
      "name": "uiisOwned",
      "outputs": [
        {
          "internalType": "uint256",
          "name": "",
          "type": "uint256"
        }
      ],
      "stateMutability": "view",
      "type": "function"
    }
  ],
  "transactionHash": "0xe07489e820c1d2e529f0dbf3e0d1495dbdb03e6ecfcd29058c462df103bacbb2",
  "args": [],
  "numDeployments": 1,
  "solcInputHash": "dc6b59767f899fd93576e824557db96b",
  "bytecode": "0x608060405260006007556001600860006101000a81548160ff02191690831515021790555064174876e8006009553480156200003a57600080fd5b506040518060400160405280601b81526020017f556e6976657273616c20496e76656e746f727920466163746f727900000000008152506040518060400160405280600381526020017f55494600000000000000000000000000000000000000000000000000000000008152508160009080519060200190620000bf929190620001cf565b508060019080519060200190620000d8929190620001cf565b505050620000fb620000ef6200010160201b60201c565b6200010960201b60201c565b620002e4565b600033905090565b6000600660009054906101000a900473ffffffffffffffffffffffffffffffffffffffff16905081600660006101000a81548173ffffffffffffffffffffffffffffffffffffffff021916908373ffffffffffffffffffffffffffffffffffffffff1602179055508173ffffffffffffffffffffffffffffffffffffffff168173ffffffffffffffffffffffffffffffffffffffff167f8be0079c531659141344cd1fd0a4f28419497f9722a3daafe3b4186f6b6457e060405160405180910390a35050565b828054620001dd90620002ae565b90600052602060002090601f0160209004810192826200020157600085556200024d565b82601f106200021c57805160ff19168380011785556200024d565b828001600101855582156200024d579182015b828111156200024c5782518255916020019190600101906200022f565b5b5090506200025c919062000260565b5090565b5b808211156200027b57600081600090555060010162000261565b5090565b7f4e487b7100000000000000000000000000000000000000000000000000000000600052602260045260246000fd5b60006002820490506001821680620002c757607f821691505b60208210811415620002de57620002dd6200027f565b5b50919050565b613ba380620002f46000396000f3fe6080604052600436106101815760003560e01c80638da5cb5b116100d1578063aa4ecdb91161008a578063bfb231d211610064578063bfb231d2146105ad578063c87b56dd146105ed578063e985e9c51461062a578063f2fde38b1461066757610181565b8063aa4ecdb91461050a578063b88d4fde14610547578063bd69ef201461057057610181565b80638da5cb5b146103f3578063938225571461041e57806395a81d4e1461044957806395d89b41146104865780639b6507f0146104b1578063a22cb465146104e157610181565b80633838aed11161013e5780634d3ef644116101185780634d3ef644146103255780636352211e1461036257806370a082311461039f578063715018a6146103dc57610181565b80633838aed1146102ba57806342842e0e146102d1578063471a4294146102fa57610181565b806301ffc9a71461018657806306fdde03146101c3578063081812fc146101ee578063095ea7b31461022b57806323b872dd14610254578063285183811461027d575b600080fd5b34801561019257600080fd5b506101ad60048036038101906101a891906124ef565b610690565b6040516101ba9190612537565b60405180910390f35b3480156101cf57600080fd5b506101d8610772565b6040516101e591906125eb565b60405180910390f35b3480156101fa57600080fd5b5061021560048036038101906102109190612643565b610804565b60405161022291906126b1565b60405180910390f35b34801561023757600080fd5b50610252600480360381019061024d91906126f8565b61084a565b005b34801561026057600080fd5b5061027b60048036038101906102769190612738565b610962565b005b34801561028957600080fd5b506102a4600480360381019061029f9190612643565b6109c2565b6040516102b191906127a4565b60405180910390f35b3480156102c657600080fd5b506102cf6109f1565b005b3480156102dd57600080fd5b506102f860048036038101906102f39190612738565b610a49565b005b34801561030657600080fd5b5061030f610a69565b60405161031c9190612537565b60405180910390f35b34801561033157600080fd5b5061034c600480360381019061034791906126f8565b610a7c565b60405161035991906127ce565b60405180910390f35b34801561036e57600080fd5b5061038960048036038101906103849190612643565b610aad565b60405161039691906126b1565b60405180910390f35b3480156103ab57600080fd5b506103c660048036038101906103c191906127e9565b610b5f565b6040516103d391906127ce565b60405180910390f35b3480156103e857600080fd5b506103f1610c17565b005b3480156103ff57600080fd5b50610408610c2b565b60405161041591906126b1565b60405180910390f35b34801561042a57600080fd5b50610433610c55565b60405161044091906127ce565b60405180910390f35b34801561045557600080fd5b50610470600480360381019061046b9190612643565b610c5b565b60405161047d91906126b1565b60405180910390f35b34801561049257600080fd5b5061049b610caa565b6040516104a891906125eb565b60405180910390f35b6104cb60048036038101906104c69190612816565b610d3c565b6040516104d891906127ce565b60405180910390f35b3480156104ed57600080fd5b5061050860048036038101906105039190612895565b611111565b005b34801561051657600080fd5b50610531600480360381019061052c9190612643565b611127565b60405161053e9190612948565b60405180910390f35b34801561055357600080fd5b5061056e60048036038101906105699190612a98565b61126f565b005b34801561057c57600080fd5b50610597600480360381019061059291906127e9565b6112d1565b6040516105a49190612bd9565b60405180910390f35b3480156105b957600080fd5b506105d460048036038101906105cf9190612643565b611368565b6040516105e49493929190612bfb565b60405180910390f35b3480156105f957600080fd5b50610614600480360381019061060f9190612643565b611408565b60405161062191906125eb565b60405180910390f35b34801561063657600080fd5b50610651600480360381019061064c9190612c40565b611470565b60405161065e9190612537565b60405180910390f35b34801561067357600080fd5b5061068e600480360381019061068991906127e9565b611504565b005b60007f80ac58cd000000000000000000000000000000000000000000000000000000007bffffffffffffffffffffffffffffffffffffffffffffffffffffffff1916827bffffffffffffffffffffffffffffffffffffffffffffffffffffffff1916148061075b57507f5b5e139f000000000000000000000000000000000000000000000000000000007bffffffffffffffffffffffffffffffffffffffffffffffffffffffff1916827bffffffffffffffffffffffffffffffffffffffffffffffffffffffff1916145b8061076b575061076a82611588565b5b9050919050565b60606000805461078190612caf565b80601f01602080910402602001604051908101604052809291908181526020018280546107ad90612caf565b80156107fa5780601f106107cf576101008083540402835291602001916107fa565b820191906000526020600020905b8154815290600101906020018083116107dd57829003601f168201915b5050505050905090565b600061080f826115f2565b6004600083815260200190815260200160002060009054906101000a900473ffffffffffffffffffffffffffffffffffffffff169050919050565b600061085582610aad565b90508073ffffffffffffffffffffffffffffffffffffffff168373ffffffffffffffffffffffffffffffffffffffff1614156108c6576040517f08c379a00000000000000000000000000000000000000000000000000000000081526004016108bd90612d53565b60405180910390fd5b8073ffffffffffffffffffffffffffffffffffffffff166108e561163d565b73ffffffffffffffffffffffffffffffffffffffff16148061091457506109138161090e61163d565b611470565b5b610953576040517f08c379a000000000000000000000000000000000000000000000000000000000815260040161094a90612de5565b60405180910390fd5b61095d8383611645565b505050565b61097361096d61163d565b826116fe565b6109b2576040517f08c379a00000000000000000000000000000000000000000000000000000000081526004016109a990612e77565b60405180910390fd5b6109bd838383611793565b505050565b6000600a82815481106109d8576109d7612e97565b5b9060005260206000209060040201600301549050919050565b6109f96119fa565b610a01610c2b565b73ffffffffffffffffffffffffffffffffffffffff166108fc479081150290604051600060405180830381858888f19350505050158015610a46573d6000803e3d6000fd5b50565b610a648383836040518060200160405280600081525061126f565b505050565b600860009054906101000a900460ff1681565b600b6020528160005260406000208181548110610a9857600080fd5b90600052602060002001600091509150505481565b6000806002600084815260200190815260200160002060009054906101000a900473ffffffffffffffffffffffffffffffffffffffff169050600073ffffffffffffffffffffffffffffffffffffffff168173ffffffffffffffffffffffffffffffffffffffff161415610b56576040517f08c379a0000000000000000000000000000000000000000000000000000000008152600401610b4d90612f12565b60405180910390fd5b80915050919050565b60008073ffffffffffffffffffffffffffffffffffffffff168273ffffffffffffffffffffffffffffffffffffffff161415610bd0576040517f08c379a0000000000000000000000000000000000000000000000000000000008152600401610bc790612fa4565b60405180910390fd5b600360008373ffffffffffffffffffffffffffffffffffffffff1673ffffffffffffffffffffffffffffffffffffffff168152602001908152602001600020549050919050565b610c1f6119fa565b610c296000611a78565b565b6000600660009054906101000a900473ffffffffffffffffffffffffffffffffffffffff16905090565b60095481565b6000600a8281548110610c7157610c70612e97565b5b906000526020600020906004020160010160009054906101000a900473ffffffffffffffffffffffffffffffffffffffff169050919050565b606060018054610cb990612caf565b80601f0160208091040260200160405190810160405280929190818152602001828054610ce590612caf565b8015610d325780601f10610d0757610100808354040283529160200191610d32565b820191906000526020600020905b815481529060010190602001808311610d1557829003601f168201915b5050505050905090565b6000610d46610c2b565b73ffffffffffffffffffffffffffffffffffffffff163373ffffffffffffffffffffffffffffffffffffffff161480610d92575060011515600860009054906101000a900460ff161515145b610dd1576040517f08c379a0000000000000000000000000000000000000000000000000000000008152600401610dc890613010565b60405180910390fd5b60ff841115610e15576040517f08c379a0000000000000000000000000000000000000000000000000000000008152600401610e0c9061307c565b60405180910390fd5b600f831115610e59576040517f08c379a0000000000000000000000000000000000000000000000000000000008152600401610e50906130e8565b60405180910390fd5b600080841415610e6d576009549050610e7e565b83600954610e7b919061326a565b90505b60003482604051602001610e93929190613379565b60405160208183030381529060405290508134148190610ee9576040517f08c379a0000000000000000000000000000000000000000000000000000000008152600401610ee091906125eb565b60405180910390fd5b50600a60405180608001604052808673ffffffffffffffffffffffffffffffffffffffff1681526020018673ffffffffffffffffffffffffffffffffffffffff1681526020013373ffffffffffffffffffffffffffffffffffffffff168152602001610f558989611b3e565b815250908060018154018082558091505060019003906000526020600020906004020160009091909190915060008201518160000160006101000a81548173ffffffffffffffffffffffffffffffffffffffff021916908373ffffffffffffffffffffffffffffffffffffffff16021790555060208201518160010160006101000a81548173ffffffffffffffffffffffffffffffffffffffff021916908373ffffffffffffffffffffffffffffffffffffffff16021790555060408201518160020160006101000a81548173ffffffffffffffffffffffffffffffffffffffff021916908373ffffffffffffffffffffffffffffffffffffffff16021790555060608201518160030155505061107d336001600a8054905061107891906133bb565b611c15565b600b60008573ffffffffffffffffffffffffffffffffffffffff1673ffffffffffffffffffffffffffffffffffffffff1681526020019081526020016000206001600a805490506110ce91906133bb565b90806001815401808255809150506001900390600052602060002001600090919091909150556001600a8054905061110691906133bb565b925050509392505050565b61112361111c61163d565b8383611c33565b5050565b61112f612416565b600a828154811061114357611142612e97565b5b90600052602060002090600402016040518060800160405290816000820160009054906101000a900473ffffffffffffffffffffffffffffffffffffffff1673ffffffffffffffffffffffffffffffffffffffff1673ffffffffffffffffffffffffffffffffffffffff1681526020016001820160009054906101000a900473ffffffffffffffffffffffffffffffffffffffff1673ffffffffffffffffffffffffffffffffffffffff1673ffffffffffffffffffffffffffffffffffffffff1681526020016002820160009054906101000a900473ffffffffffffffffffffffffffffffffffffffff1673ffffffffffffffffffffffffffffffffffffffff1673ffffffffffffffffffffffffffffffffffffffff1681526020016003820154815250509050919050565b61128061127a61163d565b836116fe565b6112bf576040517f08c379a00000000000000000000000000000000000000000000000000000000081526004016112b690612e77565b60405180910390fd5b6112cb84848484611da0565b50505050565b6060600b60008373ffffffffffffffffffffffffffffffffffffffff1673ffffffffffffffffffffffffffffffffffffffff16815260200190815260200160002080548060200260200160405190810160405280929190818152602001828054801561135c57602002820191906000526020600020905b815481526020019060010190808311611348575b50505050509050919050565b600a818154811061137857600080fd5b90600052602060002090600402016000915090508060000160009054906101000a900473ffffffffffffffffffffffffffffffffffffffff16908060010160009054906101000a900473ffffffffffffffffffffffffffffffffffffffff16908060020160009054906101000a900473ffffffffffffffffffffffffffffffffffffffff16908060030154905084565b6060611413826115f2565b600061141d611dfc565b9050600081511161143d5760405180602001604052806000815250611468565b8061144784611e13565b604051602001611458929190613420565b6040516020818303038152906040525b915050919050565b6000600560008473ffffffffffffffffffffffffffffffffffffffff1673ffffffffffffffffffffffffffffffffffffffff16815260200190815260200160002060008373ffffffffffffffffffffffffffffffffffffffff1673ffffffffffffffffffffffffffffffffffffffff16815260200190815260200160002060009054906101000a900460ff16905092915050565b61150c6119fa565b600073ffffffffffffffffffffffffffffffffffffffff168173ffffffffffffffffffffffffffffffffffffffff16141561157c576040517f08c379a0000000000000000000000000000000000000000000000000000000008152600401611573906134b6565b60405180910390fd5b61158581611a78565b50565b60007f01ffc9a7000000000000000000000000000000000000000000000000000000007bffffffffffffffffffffffffffffffffffffffffffffffffffffffff1916827bffffffffffffffffffffffffffffffffffffffffffffffffffffffff1916149050919050565b6115fb81611f74565b61163a576040517f08c379a000000000000000000000000000000000000000000000000000000000815260040161163190612f12565b60405180910390fd5b50565b600033905090565b816004600083815260200190815260200160002060006101000a81548173ffffffffffffffffffffffffffffffffffffffff021916908373ffffffffffffffffffffffffffffffffffffffff160217905550808273ffffffffffffffffffffffffffffffffffffffff166116b883610aad565b73ffffffffffffffffffffffffffffffffffffffff167f8c5be1e5ebec7d5bd14f71427d1e84f3dd0314c0f7b2291e5b200ac8c7c3b92560405160405180910390a45050565b60008061170a83610aad565b90508073ffffffffffffffffffffffffffffffffffffffff168473ffffffffffffffffffffffffffffffffffffffff16148061174c575061174b8185611470565b5b8061178a57508373ffffffffffffffffffffffffffffffffffffffff1661177284610804565b73ffffffffffffffffffffffffffffffffffffffff16145b91505092915050565b8273ffffffffffffffffffffffffffffffffffffffff166117b382610aad565b73ffffffffffffffffffffffffffffffffffffffff1614611809576040517f08c379a000000000000000000000000000000000000000000000000000000000815260040161180090613548565b60405180910390fd5b600073ffffffffffffffffffffffffffffffffffffffff168273ffffffffffffffffffffffffffffffffffffffff161415611879576040517f08c379a0000000000000000000000000000000000000000000000000000000008152600401611870906135da565b60405180910390fd5b611884838383611fe0565b61188f600082611645565b6001600360008573ffffffffffffffffffffffffffffffffffffffff1673ffffffffffffffffffffffffffffffffffffffff16815260200190815260200160002060008282546118df91906133bb565b925050819055506001600360008473ffffffffffffffffffffffffffffffffffffffff1673ffffffffffffffffffffffffffffffffffffffff168152602001908152602001600020600082825461193691906135fa565b92505081905550816002600083815260200190815260200160002060006101000a81548173ffffffffffffffffffffffffffffffffffffffff021916908373ffffffffffffffffffffffffffffffffffffffff160217905550808273ffffffffffffffffffffffffffffffffffffffff168473ffffffffffffffffffffffffffffffffffffffff167fddf252ad1be2c89b69c2b068fc378daa952ba7f163c4a11628f55a4df523b3ef60405160405180910390a46119f5838383611fe5565b505050565b611a0261163d565b73ffffffffffffffffffffffffffffffffffffffff16611a20610c2b565b73ffffffffffffffffffffffffffffffffffffffff1614611a76576040517f08c379a0000000000000000000000000000000000000000000000000000000008152600401611a6d9061369c565b60405180910390fd5b565b6000600660009054906101000a900473ffffffffffffffffffffffffffffffffffffffff16905081600660006101000a81548173ffffffffffffffffffffffffffffffffffffffff021916908373ffffffffffffffffffffffffffffffffffffffff1602179055508173ffffffffffffffffffffffffffffffffffffffff168173ffffffffffffffffffffffffffffffffffffffff167f8be0079c531659141344cd1fd0a4f28419497f9722a3daafe3b4186f6b6457e060405160405180910390a35050565b600080611b49611fea565b604051602001611b5991906127a4565b60405160208183030381529060405290508360f81b81600081518110611b8257611b81612e97565b5b60200101907effffffffffffffffffffffffffffffffffffffffffffffffffffffffffffff1916908160001a9053506000831115611c02578260f81b81600281518110611bd257611bd1612e97565b5b60200101907effffffffffffffffffffffffffffffffffffffffffffffffffffffffffffff1916908160001a9053505b80611c0c906136f9565b91505092915050565b611c2f828260405180602001604052806000815250612036565b5050565b8173ffffffffffffffffffffffffffffffffffffffff168373ffffffffffffffffffffffffffffffffffffffff161415611ca2576040517f08c379a0000000000000000000000000000000000000000000000000000000008152600401611c99906137ac565b60405180910390fd5b80600560008573ffffffffffffffffffffffffffffffffffffffff1673ffffffffffffffffffffffffffffffffffffffff16815260200190815260200160002060008473ffffffffffffffffffffffffffffffffffffffff1673ffffffffffffffffffffffffffffffffffffffff16815260200190815260200160002060006101000a81548160ff0219169083151502179055508173ffffffffffffffffffffffffffffffffffffffff168373ffffffffffffffffffffffffffffffffffffffff167f17307eab39ab6107e8899845ad3d59bd9653f200f220920489ca2b5937696c3183604051611d939190612537565b60405180910390a3505050565b611dab848484611793565b611db784848484612091565b611df6576040517f08c379a0000000000000000000000000000000000000000000000000000000008152600401611ded9061383e565b60405180910390fd5b50505050565b606060405180602001604052806000815250905090565b60606000821415611e5b576040518060400160405280600181526020017f30000000000000000000000000000000000000000000000000000000000000008152509050611f6f565b600082905060005b60008214611e8d578080611e769061385e565b915050600a82611e8691906138d6565b9150611e63565b60008167ffffffffffffffff811115611ea957611ea861296d565b5b6040519080825280601f01601f191660200182016040528015611edb5781602001600182028036833780820191505090505b5090505b60008514611f6857600182611ef491906133bb565b9150600a85611f039190613907565b6030611f0f91906135fa565b60f81b818381518110611f2557611f24612e97565b5b60200101907effffffffffffffffffffffffffffffffffffffffffffffffffffffffffffff1916908160001a905350600a85611f6191906138d6565b9450611edf565b8093505050505b919050565b60008073ffffffffffffffffffffffffffffffffffffffff166002600084815260200190815260200160002060009054906101000a900473ffffffffffffffffffffffffffffffffffffffff1673ffffffffffffffffffffffffffffffffffffffff1614159050919050565b505050565b505050565b600060076000815480929190611fff9061385e565b9190505550600754423360405160200161201b93929190613980565b60405160208183030381529060405280519060200120905090565b6120408383612219565b61204d6000848484612091565b61208c576040517f08c379a00000000000000000000000000000000000000000000000000000000081526004016120839061383e565b60405180910390fd5b505050565b60006120b28473ffffffffffffffffffffffffffffffffffffffff166123f3565b1561220c578373ffffffffffffffffffffffffffffffffffffffff1663150b7a026120db61163d565b8786866040518563ffffffff1660e01b81526004016120fd9493929190613a07565b6020604051808303816000875af192505050801561213957506040513d601f19601f820116820180604052508101906121369190613a68565b60015b6121bc573d8060008114612169576040519150601f19603f3d011682016040523d82523d6000602084013e61216e565b606091505b506000815114156121b4576040517f08c379a00000000000000000000000000000000000000000000000000000000081526004016121ab9061383e565b60405180910390fd5b805181602001fd5b63150b7a0260e01b7bffffffffffffffffffffffffffffffffffffffffffffffffffffffff1916817bffffffffffffffffffffffffffffffffffffffffffffffffffffffff191614915050612211565b600190505b949350505050565b600073ffffffffffffffffffffffffffffffffffffffff168273ffffffffffffffffffffffffffffffffffffffff161415612289576040517f08c379a000000000000000000000000000000000000000000000000000000000815260040161228090613ae1565b60405180910390fd5b61229281611f74565b156122d2576040517f08c379a00000000000000000000000000000000000000000000000000000000081526004016122c990613b4d565b60405180910390fd5b6122de60008383611fe0565b6001600360008473ffffffffffffffffffffffffffffffffffffffff1673ffffffffffffffffffffffffffffffffffffffff168152602001908152602001600020600082825461232e91906135fa565b92505081905550816002600083815260200190815260200160002060006101000a81548173ffffffffffffffffffffffffffffffffffffffff021916908373ffffffffffffffffffffffffffffffffffffffff160217905550808273ffffffffffffffffffffffffffffffffffffffff16600073ffffffffffffffffffffffffffffffffffffffff167fddf252ad1be2c89b69c2b068fc378daa952ba7f163c4a11628f55a4df523b3ef60405160405180910390a46123ef60008383611fe5565b5050565b6000808273ffffffffffffffffffffffffffffffffffffffff163b119050919050565b6040518060800160405280600073ffffffffffffffffffffffffffffffffffffffff168152602001600073ffffffffffffffffffffffffffffffffffffffff168152602001600073ffffffffffffffffffffffffffffffffffffffff168152602001600080191681525090565b6000604051905090565b600080fd5b600080fd5b60007fffffffff0000000000000000000000000000000000000000000000000000000082169050919050565b6124cc81612497565b81146124d757600080fd5b50565b6000813590506124e9816124c3565b92915050565b6000602082840312156125055761250461248d565b5b6000612513848285016124da565b91505092915050565b60008115159050919050565b6125318161251c565b82525050565b600060208201905061254c6000830184612528565b92915050565b600081519050919050565b600082825260208201905092915050565b60005b8381101561258c578082015181840152602081019050612571565b8381111561259b576000848401525b50505050565b6000601f19601f8301169050919050565b60006125bd82612552565b6125c7818561255d565b93506125d781856020860161256e565b6125e0816125a1565b840191505092915050565b6000602082019050818103600083015261260581846125b2565b905092915050565b6000819050919050565b6126208161260d565b811461262b57600080fd5b50565b60008135905061263d81612617565b92915050565b6000602082840312156126595761265861248d565b5b60006126678482850161262e565b91505092915050565b600073ffffffffffffffffffffffffffffffffffffffff82169050919050565b600061269b82612670565b9050919050565b6126ab81612690565b82525050565b60006020820190506126c660008301846126a2565b92915050565b6126d581612690565b81146126e057600080fd5b50565b6000813590506126f2816126cc565b92915050565b6000806040838503121561270f5761270e61248d565b5b600061271d858286016126e3565b925050602061272e8582860161262e565b9150509250929050565b6000806000606084860312156127515761275061248d565b5b600061275f868287016126e3565b9350506020612770868287016126e3565b92505060406127818682870161262e565b9150509250925092565b6000819050919050565b61279e8161278b565b82525050565b60006020820190506127b96000830184612795565b92915050565b6127c88161260d565b82525050565b60006020820190506127e360008301846127bf565b92915050565b6000602082840312156127ff576127fe61248d565b5b600061280d848285016126e3565b91505092915050565b60008060006060848603121561282f5761282e61248d565b5b600061283d8682870161262e565b935050602061284e8682870161262e565b925050604061285f868287016126e3565b9150509250925092565b6128728161251c565b811461287d57600080fd5b50565b60008135905061288f81612869565b92915050565b600080604083850312156128ac576128ab61248d565b5b60006128ba858286016126e3565b92505060206128cb85828601612880565b9150509250929050565b6128de81612690565b82525050565b6128ed8161278b565b82525050565b60808201600082015161290960008501826128d5565b50602082015161291c60208501826128d5565b50604082015161292f60408501826128d5565b50606082015161294260608501826128e4565b50505050565b600060808201905061295d60008301846128f3565b92915050565b600080fd5b600080fd5b7f4e487b7100000000000000000000000000000000000000000000000000000000600052604160045260246000fd5b6129a5826125a1565b810181811067ffffffffffffffff821117156129c4576129c361296d565b5b80604052505050565b60006129d7612483565b90506129e3828261299c565b919050565b600067ffffffffffffffff821115612a0357612a0261296d565b5b612a0c826125a1565b9050602081019050919050565b82818337600083830152505050565b6000612a3b612a36846129e8565b6129cd565b905082815260208101848484011115612a5757612a56612968565b5b612a62848285612a19565b509392505050565b600082601f830112612a7f57612a7e612963565b5b8135612a8f848260208601612a28565b91505092915050565b60008060008060808587031215612ab257612ab161248d565b5b6000612ac0878288016126e3565b9450506020612ad1878288016126e3565b9350506040612ae28782880161262e565b925050606085013567ffffffffffffffff811115612b0357612b02612492565b5b612b0f87828801612a6a565b91505092959194509250565b600081519050919050565b600082825260208201905092915050565b6000819050602082019050919050565b612b508161260d565b82525050565b6000612b628383612b47565b60208301905092915050565b6000602082019050919050565b6000612b8682612b1b565b612b908185612b26565b9350612b9b83612b37565b8060005b83811015612bcc578151612bb38882612b56565b9750612bbe83612b6e565b925050600181019050612b9f565b5085935050505092915050565b60006020820190508181036000830152612bf38184612b7b565b905092915050565b6000608082019050612c1060008301876126a2565b612c1d60208301866126a2565b612c2a60408301856126a2565b612c376060830184612795565b95945050505050565b60008060408385031215612c5757612c5661248d565b5b6000612c65858286016126e3565b9250506020612c76858286016126e3565b9150509250929050565b7f4e487b7100000000000000000000000000000000000000000000000000000000600052602260045260246000fd5b60006002820490506001821680612cc757607f821691505b60208210811415612cdb57612cda612c80565b5b50919050565b7f4552433732313a20617070726f76616c20746f2063757272656e74206f776e6560008201527f7200000000000000000000000000000000000000000000000000000000000000602082015250565b6000612d3d60218361255d565b9150612d4882612ce1565b604082019050919050565b60006020820190508181036000830152612d6c81612d30565b9050919050565b7f4552433732313a20617070726f76652063616c6c6572206973206e6f7420746f60008201527f6b656e206f776e6572206e6f7220617070726f76656420666f7220616c6c0000602082015250565b6000612dcf603e8361255d565b9150612dda82612d73565b604082019050919050565b60006020820190508181036000830152612dfe81612dc2565b9050919050565b7f4552433732313a2063616c6c6572206973206e6f7420746f6b656e206f776e6560008201527f72206e6f7220617070726f766564000000000000000000000000000000000000602082015250565b6000612e61602e8361255d565b9150612e6c82612e05565b604082019050919050565b60006020820190508181036000830152612e9081612e54565b9050919050565b7f4e487b7100000000000000000000000000000000000000000000000000000000600052603260045260246000fd5b7f4552433732313a20696e76616c696420746f6b656e2049440000000000000000600082015250565b6000612efc60188361255d565b9150612f0782612ec6565b602082019050919050565b60006020820190508181036000830152612f2b81612eef565b9050919050565b7f4552433732313a2061646472657373207a65726f206973206e6f74206120766160008201527f6c6964206f776e65720000000000000000000000000000000000000000000000602082015250565b6000612f8e60298361255d565b9150612f9982612f32565b604082019050919050565b60006020820190508181036000830152612fbd81612f81565b9050919050565b7f4d696e74696e67206973206e6f74206163746976650000000000000000000000600082015250565b6000612ffa60158361255d565b915061300582612fc4565b602082019050919050565b6000602082019050818103600083015261302981612fed565b9050919050565b7f42616420747970652076616c7565000000000000000000000000000000000000600082015250565b6000613066600e8361255d565b915061307182613030565b602082019050919050565b6000602082019050818103600083015261309581613059565b9050919050565b7f426164207175616c6974792076616c7565000000000000000000000000000000600082015250565b60006130d260118361255d565b91506130dd8261309c565b602082019050919050565b60006020820190508181036000830152613101816130c5565b9050919050565b7f4e487b7100000000000000000000000000000000000000000000000000000000600052601160045260246000fd5b60008160011c9050919050565b6000808291508390505b600185111561318e5780860481111561316a57613169613108565b5b60018516156131795780820291505b808102905061318785613137565b945061314e565b94509492505050565b6000826131a75760019050613263565b816131b55760009050613263565b81600181146131cb57600281146131d557613204565b6001915050613263565b60ff8411156131e7576131e6613108565b5b8360020a9150848211156131fe576131fd613108565b5b50613263565b5060208310610133831016604e8410600b84101617156132395782820a90508381111561323457613233613108565b5b613263565b6132468484846001613144565b9250905081840481111561325d5761325c613108565b5b81810290505b9392505050565b60006132758261260d565b91506132808361260d565b92506132ad7fffffffffffffffffffffffffffffffffffffffffffffffffffffffffffffffff8484613197565b905092915050565b600081905092915050565b7f50617965643a2000000000000000000000000000000000000000000000000000600082015250565b60006132f66007836132b5565b9150613301826132c0565b600782019050919050565b6000819050919050565b6133276133228261260d565b61330c565b82525050565b7f2c20636f73742069733a20000000000000000000000000000000000000000000600082015250565b6000613363600b836132b5565b915061336e8261332d565b600b82019050919050565b6000613384826132e9565b91506133908285613316565b60208201915061339f82613356565b91506133ab8284613316565b6020820191508190509392505050565b60006133c68261260d565b91506133d18361260d565b9250828210156133e4576133e3613108565b5b828203905092915050565b60006133fa82612552565b61340481856132b5565b935061341481856020860161256e565b80840191505092915050565b600061342c82856133ef565b915061343882846133ef565b91508190509392505050565b7f4f776e61626c653a206e6577206f776e657220697320746865207a65726f206160008201527f6464726573730000000000000000000000000000000000000000000000000000602082015250565b60006134a060268361255d565b91506134ab82613444565b604082019050919050565b600060208201905081810360008301526134cf81613493565b9050919050565b7f4552433732313a207472616e736665722066726f6d20696e636f72726563742060008201527f6f776e6572000000000000000000000000000000000000000000000000000000602082015250565b600061353260258361255d565b915061353d826134d6565b604082019050919050565b6000602082019050818103600083015261356181613525565b9050919050565b7f4552433732313a207472616e7366657220746f20746865207a65726f2061646460008201527f7265737300000000000000000000000000000000000000000000000000000000602082015250565b60006135c460248361255d565b91506135cf82613568565b604082019050919050565b600060208201905081810360008301526135f3816135b7565b9050919050565b60006136058261260d565b91506136108361260d565b9250827fffffffffffffffffffffffffffffffffffffffffffffffffffffffffffffffff0382111561364557613644613108565b5b828201905092915050565b7f4f776e61626c653a2063616c6c6572206973206e6f7420746865206f776e6572600082015250565b600061368660208361255d565b915061369182613650565b602082019050919050565b600060208201905081810360008301526136b581613679565b9050919050565b600081519050919050565b6000819050602082019050919050565b60006136e3825161278b565b80915050919050565b600082821b905092915050565b6000613704826136bc565b8261370e846136c7565b9050613719816136d7565b92506020821015613759576137547fffffffffffffffffffffffffffffffffffffffffffffffffffffffffffffffff836020036008026136ec565b831692505b5050919050565b7f4552433732313a20617070726f766520746f2063616c6c657200000000000000600082015250565b600061379660198361255d565b91506137a182613760565b602082019050919050565b600060208201905081810360008301526137c581613789565b9050919050565b7f4552433732313a207472616e7366657220746f206e6f6e20455243373231526560008201527f63656976657220696d706c656d656e7465720000000000000000000000000000602082015250565b600061382860328361255d565b9150613833826137cc565b604082019050919050565b600060208201905081810360008301526138578161381b565b9050919050565b60006138698261260d565b91507fffffffffffffffffffffffffffffffffffffffffffffffffffffffffffffffff82141561389c5761389b613108565b5b600182019050919050565b7f4e487b7100000000000000000000000000000000000000000000000000000000600052601260045260246000fd5b60006138e18261260d565b91506138ec8361260d565b9250826138fc576138fb6138a7565b5b828204905092915050565b60006139128261260d565b915061391d8361260d565b92508261392d5761392c6138a7565b5b828206905092915050565b60008160601b9050919050565b600061395082613938565b9050919050565b600061396282613945565b9050919050565b61397a61397582612690565b613957565b82525050565b600061398c8286613316565b60208201915061399c8285613316565b6020820191506139ac8284613969565b601482019150819050949350505050565b600082825260208201905092915050565b60006139d9826136bc565b6139e381856139bd565b93506139f381856020860161256e565b6139fc816125a1565b840191505092915050565b6000608082019050613a1c60008301876126a2565b613a2960208301866126a2565b613a3660408301856127bf565b8181036060830152613a4881846139ce565b905095945050505050565b600081519050613a62816124c3565b92915050565b600060208284031215613a7e57613a7d61248d565b5b6000613a8c84828501613a53565b91505092915050565b7f4552433732313a206d696e7420746f20746865207a65726f2061646472657373600082015250565b6000613acb60208361255d565b9150613ad682613a95565b602082019050919050565b60006020820190508181036000830152613afa81613abe565b9050919050565b7f4552433732313a20746f6b656e20616c7265616479206d696e74656400000000600082015250565b6000613b37601c8361255d565b9150613b4282613b01565b602082019050919050565b60006020820190508181036000830152613b6681613b2a565b905091905056fea2646970667358221220537cb5d79dd3aa7bb8470dafc60718c4db9fea6ffc68a5a614774c21cdcbbf1764736f6c634300080c0033",
  "devdoc": {
    "kind": "dev",
    "methods": {
      "approve(address,uint256)": {
        "details": "See {IERC721-approve}."
      },
      "balanceOf(address)": {
        "details": "See {IERC721-balanceOf}."
      },
      "getApproved(uint256)": {
        "details": "See {IERC721-getApproved}."
      },
      "isApprovedForAll(address,address)": {
        "details": "See {IERC721-isApprovedForAll}."
      },
      "name()": {
        "details": "See {IERC721Metadata-name}."
      },
      "owner()": {
        "details": "Returns the address of the current owner."
      },
      "ownerOf(uint256)": {
        "details": "See {IERC721-ownerOf}."
      },
      "renounceOwnership()": {
        "details": "Leaves the contract without owner. It will not be possible to call `onlyOwner` functions anymore. Can only be called by the current owner. NOTE: Renouncing ownership will leave the contract without an owner, thereby removing any functionality that is only available to the owner."
      },
      "safeTransferFrom(address,address,uint256)": {
        "details": "See {IERC721-safeTransferFrom}."
      },
      "safeTransferFrom(address,address,uint256,bytes)": {
        "details": "See {IERC721-safeTransferFrom}."
      },
      "setApprovalForAll(address,bool)": {
        "details": "See {IERC721-setApprovalForAll}."
      },
      "supportsInterface(bytes4)": {
        "details": "See {IERC165-supportsInterface}."
      },
      "symbol()": {
        "details": "See {IERC721Metadata-symbol}."
      },
      "tokenURI(uint256)": {
        "details": "See {IERC721Metadata-tokenURI}."
      },
      "transferFrom(address,address,uint256)": {
        "details": "See {IERC721-transferFrom}."
      },
      "transferOwnership(address)": {
        "details": "Transfers ownership of the contract to a new account (`newOwner`). Can only be called by the current owner."
      }
    },
    "version": 1
  },
  "userdoc": {
    "kind": "user",
    "methods": {},
    "version": 1
  },
  "storageLayout": {
    "storage": [
      {
        "astId": 138,
        "contract": "contracts/UniversalInventory.sol:UniversalInventoryFactory",
        "label": "_name",
        "offset": 0,
        "slot": "0",
        "type": "t_string_storage"
      },
      {
        "astId": 140,
        "contract": "contracts/UniversalInventory.sol:UniversalInventoryFactory",
        "label": "_symbol",
        "offset": 0,
        "slot": "1",
        "type": "t_string_storage"
      },
      {
        "astId": 144,
        "contract": "contracts/UniversalInventory.sol:UniversalInventoryFactory",
        "label": "_owners",
        "offset": 0,
        "slot": "2",
        "type": "t_mapping(t_uint256,t_address)"
      },
      {
        "astId": 148,
        "contract": "contracts/UniversalInventory.sol:UniversalInventoryFactory",
        "label": "_balances",
        "offset": 0,
        "slot": "3",
        "type": "t_mapping(t_address,t_uint256)"
      },
      {
        "astId": 152,
        "contract": "contracts/UniversalInventory.sol:UniversalInventoryFactory",
        "label": "_tokenApprovals",
        "offset": 0,
        "slot": "4",
        "type": "t_mapping(t_uint256,t_address)"
      },
      {
        "astId": 158,
        "contract": "contracts/UniversalInventory.sol:UniversalInventoryFactory",
        "label": "_operatorApprovals",
        "offset": 0,
        "slot": "5",
        "type": "t_mapping(t_address,t_mapping(t_address,t_bool))"
      },
      {
        "astId": 7,
        "contract": "contracts/UniversalInventory.sol:UniversalInventoryFactory",
        "label": "_owner",
        "offset": 0,
        "slot": "6",
        "type": "t_address"
      },
      {
        "astId": 3045,
        "contract": "contracts/UniversalInventory.sol:UniversalInventoryFactory",
        "label": "TODO_randomSeed",
        "offset": 0,
        "slot": "7",
        "type": "t_uint256"
      },
      {
        "astId": 3048,
        "contract": "contracts/UniversalInventory.sol:UniversalInventoryFactory",
        "label": "mintIsActive",
        "offset": 0,
        "slot": "8",
        "type": "t_bool"
      },
      {
        "astId": 3051,
        "contract": "contracts/UniversalInventory.sol:UniversalInventoryFactory",
        "label": "baseCost",
        "offset": 0,
        "slot": "9",
        "type": "t_uint256"
      },
      {
        "astId": 3066,
        "contract": "contracts/UniversalInventory.sol:UniversalInventoryFactory",
        "label": "items",
        "offset": 0,
        "slot": "10",
        "type": "t_array(t_struct(UniversalInventoryItem)3062_storage)dyn_storage"
      },
      {
        "astId": 3071,
        "contract": "contracts/UniversalInventory.sol:UniversalInventoryFactory",
        "label": "uiisOwned",
        "offset": 0,
        "slot": "11",
        "type": "t_mapping(t_address,t_array(t_uint256)dyn_storage)"
      }
    ],
    "types": {
      "t_address": {
        "encoding": "inplace",
        "label": "address",
        "numberOfBytes": "20"
      },
      "t_array(t_struct(UniversalInventoryItem)3062_storage)dyn_storage": {
        "base": "t_struct(UniversalInventoryItem)3062_storage",
        "encoding": "dynamic_array",
        "label": "struct UniversalInventoryFactory.UniversalInventoryItem[]",
        "numberOfBytes": "32"
      },
      "t_array(t_uint256)dyn_storage": {
        "base": "t_uint256",
        "encoding": "dynamic_array",
        "label": "uint256[]",
        "numberOfBytes": "32"
      },
      "t_bool": {
        "encoding": "inplace",
        "label": "bool",
        "numberOfBytes": "1"
      },
      "t_bytes32": {
        "encoding": "inplace",
        "label": "bytes32",
        "numberOfBytes": "32"
      },
      "t_mapping(t_address,t_array(t_uint256)dyn_storage)": {
        "encoding": "mapping",
        "key": "t_address",
        "label": "mapping(address => uint256[])",
        "numberOfBytes": "32",
        "value": "t_array(t_uint256)dyn_storage"
      },
      "t_mapping(t_address,t_bool)": {
        "encoding": "mapping",
        "key": "t_address",
        "label": "mapping(address => bool)",
        "numberOfBytes": "32",
        "value": "t_bool"
      },
      "t_mapping(t_address,t_mapping(t_address,t_bool))": {
        "encoding": "mapping",
        "key": "t_address",
        "label": "mapping(address => mapping(address => bool))",
        "numberOfBytes": "32",
        "value": "t_mapping(t_address,t_bool)"
      },
      "t_mapping(t_address,t_uint256)": {
        "encoding": "mapping",
        "key": "t_address",
        "label": "mapping(address => uint256)",
        "numberOfBytes": "32",
        "value": "t_uint256"
      },
      "t_mapping(t_uint256,t_address)": {
        "encoding": "mapping",
        "key": "t_uint256",
        "label": "mapping(uint256 => address)",
        "numberOfBytes": "32",
        "value": "t_address"
      },
      "t_string_storage": {
        "encoding": "bytes",
        "label": "string",
        "numberOfBytes": "32"
      },
      "t_struct(UniversalInventoryItem)3062_storage": {
        "encoding": "inplace",
        "label": "struct UniversalInventoryFactory.UniversalInventoryItem",
        "members": [
          {
            "astId": 3055,
            "contract": "contracts/UniversalInventory.sol:UniversalInventoryFactory",
            "label": "originalOwner",
            "offset": 0,
            "slot": "0",
            "type": "t_address"
          },
          {
            "astId": 3057,
            "contract": "contracts/UniversalInventory.sol:UniversalInventoryFactory",
            "label": "currentOwner",
            "offset": 0,
            "slot": "1",
            "type": "t_address"
          },
          {
            "astId": 3059,
            "contract": "contracts/UniversalInventory.sol:UniversalInventoryFactory",
            "label": "creator",
            "offset": 0,
            "slot": "2",
            "type": "t_address"
          },
          {
            "astId": 3061,
            "contract": "contracts/UniversalInventory.sol:UniversalInventoryFactory",
            "label": "properties",
            "offset": 0,
            "slot": "3",
            "type": "t_bytes32"
          }
        ],
        "numberOfBytes": "128"
      },
      "t_uint256": {
        "encoding": "inplace",
        "label": "uint256",
        "numberOfBytes": "32"
      }
    }
  }
}