{
  "address": "0x89cEbC93F64a9C5972686c7CD39538cAeB42f84d",
  "abi": [
    {
      "inputs": [],
      "stateMutability": "nonpayable",
      "type": "constructor"
    },
    {
      "anonymous": false,
      "inputs": [
        {
          "indexed": true,
          "internalType": "address",
          "name": "owner",
          "type": "address"
        },
        {
          "indexed": true,
          "internalType": "address",
          "name": "approved",
          "type": "address"
        },
        {
          "indexed": true,
          "internalType": "uint256",
          "name": "tokenId",
          "type": "uint256"
        }
      ],
      "name": "Approval",
      "type": "event"
    },
    {
      "anonymous": false,
      "inputs": [
        {
          "indexed": true,
          "internalType": "address",
          "name": "owner",
          "type": "address"
        },
        {
          "indexed": true,
          "internalType": "address",
          "name": "operator",
          "type": "address"
        },
        {
          "indexed": false,
          "internalType": "bool",
          "name": "approved",
          "type": "bool"
        }
      ],
      "name": "ApprovalForAll",
      "type": "event"
    },
    {
      "anonymous": false,
      "inputs": [],
      "name": "NewItem",
      "type": "event"
    },
    {
      "anonymous": false,
      "inputs": [
        {
          "indexed": true,
          "internalType": "address",
          "name": "previousOwner",
          "type": "address"
        },
        {
          "indexed": true,
          "internalType": "address",
          "name": "newOwner",
          "type": "address"
        }
      ],
      "name": "OwnershipTransferred",
      "type": "event"
    },
    {
      "anonymous": false,
      "inputs": [
        {
          "indexed": true,
          "internalType": "address",
          "name": "from",
          "type": "address"
        },
        {
          "indexed": true,
          "internalType": "address",
          "name": "to",
          "type": "address"
        },
        {
          "indexed": true,
          "internalType": "uint256",
          "name": "tokenId",
          "type": "uint256"
        }
      ],
      "name": "Transfer",
      "type": "event"
    },
    {
      "inputs": [
        {
          "internalType": "address",
          "name": "to",
          "type": "address"
        },
        {
          "internalType": "uint256",
          "name": "tokenId",
          "type": "uint256"
        }
      ],
      "name": "approve",
      "outputs": [],
      "stateMutability": "nonpayable",
      "type": "function"
    },
    {
      "inputs": [
        {
          "internalType": "address",
          "name": "owner",
          "type": "address"
        }
      ],
      "name": "balanceOf",
      "outputs": [
        {
          "internalType": "uint256",
          "name": "",
          "type": "uint256"
        }
      ],
      "stateMutability": "view",
      "type": "function"
    },
    {
      "inputs": [],
      "name": "baseCost",
      "outputs": [
        {
          "internalType": "uint256",
          "name": "",
          "type": "uint256"
        }
      ],
      "stateMutability": "view",
      "type": "function"
    },
    {
      "inputs": [
        {
          "internalType": "uint256",
          "name": "tokenId",
          "type": "uint256"
        }
      ],
      "name": "burn",
      "outputs": [],
      "stateMutability": "nonpayable",
      "type": "function"
    },
    {
      "inputs": [],
      "name": "creditsBaseCost",
      "outputs": [
        {
          "internalType": "uint256",
          "name": "",
          "type": "uint256"
        }
      ],
      "stateMutability": "view",
      "type": "function"
    },
    {
      "inputs": [
        {
          "internalType": "uint256",
          "name": "_id",
          "type": "uint256"
        }
      ],
      "name": "extGetCurrentOwner",
      "outputs": [
        {
          "internalType": "address",
          "name": "",
          "type": "address"
        }
      ],
      "stateMutability": "view",
      "type": "function"
    },
    {
      "inputs": [
        {
          "internalType": "uint256",
          "name": "_id",
          "type": "uint256"
        }
      ],
      "name": "extGetItem",
      "outputs": [
        {
          "components": [
            {
              "internalType": "address",
              "name": "originalOwner",
              "type": "address"
            },
            {
              "internalType": "address",
              "name": "currentOwner",
              "type": "address"
            },
            {
              "internalType": "address",
              "name": "creator",
              "type": "address"
            },
            {
              "internalType": "bytes32",
              "name": "properties",
              "type": "bytes32"
            },
            {
              "internalType": "uint256",
              "name": "taxonomyVersion",
              "type": "uint256"
            }
          ],
          "internalType": "struct UniversalInventoryFactory.UniversalInventoryItem",
          "name": "",
          "type": "tuple"
        }
      ],
      "stateMutability": "view",
      "type": "function"
    },
    {
      "inputs": [
        {
          "internalType": "address",
          "name": "_currentOwner",
          "type": "address"
        }
      ],
      "name": "extGetListOfUIIsOwned",
      "outputs": [
        {
          "internalType": "uint256[]",
          "name": "",
          "type": "uint256[]"
        }
      ],
      "stateMutability": "view",
      "type": "function"
    },
    {
      "inputs": [
        {
          "internalType": "uint256",
          "name": "_id",
          "type": "uint256"
        }
      ],
      "name": "extGetProperties",
      "outputs": [
        {
          "internalType": "bytes32",
          "name": "",
          "type": "bytes32"
        }
      ],
      "stateMutability": "view",
      "type": "function"
    },
    {
      "inputs": [
        {
          "internalType": "uint256",
          "name": "tokenId",
          "type": "uint256"
        }
      ],
      "name": "getApproved",
      "outputs": [
        {
          "internalType": "address",
          "name": "",
          "type": "address"
        }
      ],
      "stateMutability": "view",
      "type": "function"
    },
    {
      "inputs": [
        {
          "internalType": "uint256",
          "name": "_quality",
          "type": "uint256"
        }
      ],
      "name": "getCreditsCost",
      "outputs": [
        {
          "internalType": "uint256",
          "name": "",
          "type": "uint256"
        }
      ],
      "stateMutability": "view",
      "type": "function"
    },
    {
      "inputs": [
        {
          "internalType": "address",
          "name": "owner",
          "type": "address"
        },
        {
          "internalType": "address",
          "name": "operator",
          "type": "address"
        }
      ],
      "name": "isApprovedForAll",
      "outputs": [
        {
          "internalType": "bool",
          "name": "",
          "type": "bool"
        }
      ],
      "stateMutability": "view",
      "type": "function"
    },
    {
      "inputs": [
        {
          "internalType": "uint256",
          "name": "",
          "type": "uint256"
        }
      ],
      "name": "items",
      "outputs": [
        {
          "internalType": "address",
          "name": "originalOwner",
          "type": "address"
        },
        {
          "internalType": "address",
          "name": "currentOwner",
          "type": "address"
        },
        {
          "internalType": "address",
          "name": "creator",
          "type": "address"
        },
        {
          "internalType": "bytes32",
          "name": "properties",
          "type": "bytes32"
        },
        {
          "internalType": "uint256",
          "name": "taxonomyVersion",
          "type": "uint256"
        }
      ],
      "stateMutability": "view",
      "type": "function"
    },
    {
      "inputs": [],
      "name": "mintIsActive",
      "outputs": [
        {
          "internalType": "bool",
          "name": "",
          "type": "bool"
        }
      ],
      "stateMutability": "view",
      "type": "function"
    },
    {
      "inputs": [
        {
          "internalType": "uint256",
          "name": "_type",
          "type": "uint256"
        },
        {
          "internalType": "uint256",
          "name": "_quality",
          "type": "uint256"
        },
        {
          "internalType": "address",
          "name": "_minter",
          "type": "address"
        }
      ],
      "name": "mintItem",
      "outputs": [
        {
          "internalType": "uint256",
          "name": "",
          "type": "uint256"
        }
      ],
      "stateMutability": "payable",
      "type": "function"
    },
    {
      "inputs": [
        {
          "internalType": "uint256",
          "name": "_type",
          "type": "uint256"
        },
        {
          "internalType": "uint256",
          "name": "_quality",
          "type": "uint256"
        },
        {
          "internalType": "address",
          "name": "_minter",
          "type": "address"
        }
      ],
      "name": "mintWithCredits",
      "outputs": [
        {
          "internalType": "uint256",
          "name": "",
          "type": "uint256"
        }
      ],
      "stateMutability": "nonpayable",
      "type": "function"
    },
    {
      "inputs": [],
      "name": "name",
      "outputs": [
        {
          "internalType": "string",
          "name": "",
          "type": "string"
        }
      ],
      "stateMutability": "view",
      "type": "function"
    },
    {
      "inputs": [],
      "name": "owner",
      "outputs": [
        {
          "internalType": "address",
          "name": "",
          "type": "address"
        }
      ],
      "stateMutability": "view",
      "type": "function"
    },
    {
      "inputs": [
        {
          "internalType": "uint256",
          "name": "tokenId",
          "type": "uint256"
        }
      ],
      "name": "ownerOf",
      "outputs": [
        {
          "internalType": "address",
          "name": "",
          "type": "address"
        }
      ],
      "stateMutability": "view",
      "type": "function"
    },
    {
      "inputs": [
        {
          "internalType": "uint256",
          "name": "_id",
          "type": "uint256"
        }
      ],
      "name": "recycle",
      "outputs": [],
      "stateMutability": "nonpayable",
      "type": "function"
    },
    {
      "inputs": [],
      "name": "recycleCredit",
      "outputs": [
        {
          "internalType": "uint256",
          "name": "",
          "type": "uint256"
        }
      ],
      "stateMutability": "view",
      "type": "function"
    },
    {
      "inputs": [],
      "name": "renounceOwnership",
      "outputs": [],
      "stateMutability": "nonpayable",
      "type": "function"
    },
    {
      "inputs": [
        {
          "internalType": "address",
          "name": "from",
          "type": "address"
        },
        {
          "internalType": "address",
          "name": "to",
          "type": "address"
        },
        {
          "internalType": "uint256",
          "name": "tokenId",
          "type": "uint256"
        }
      ],
      "name": "safeTransferFrom",
      "outputs": [],
      "stateMutability": "nonpayable",
      "type": "function"
    },
    {
      "inputs": [
        {
          "internalType": "address",
          "name": "from",
          "type": "address"
        },
        {
          "internalType": "address",
          "name": "to",
          "type": "address"
        },
        {
          "internalType": "uint256",
          "name": "tokenId",
          "type": "uint256"
        },
        {
          "internalType": "bytes",
          "name": "data",
          "type": "bytes"
        }
      ],
      "name": "safeTransferFrom",
      "outputs": [],
      "stateMutability": "nonpayable",
      "type": "function"
    },
    {
      "inputs": [
        {
          "internalType": "address",
          "name": "operator",
          "type": "address"
        },
        {
          "internalType": "bool",
          "name": "approved",
          "type": "bool"
        }
      ],
      "name": "setApprovalForAll",
      "outputs": [],
      "stateMutability": "nonpayable",
      "type": "function"
    },
    {
      "inputs": [
        {
          "internalType": "uint256",
          "name": "_newCost",
          "type": "uint256"
        }
      ],
      "name": "setBaseCost",
      "outputs": [],
      "stateMutability": "nonpayable",
      "type": "function"
    },
    {
      "inputs": [
        {
          "internalType": "address",
          "name": "_uifCreditsAddress",
          "type": "address"
        }
      ],
      "name": "setContractAddresses",
      "outputs": [],
      "stateMutability": "nonpayable",
      "type": "function"
    },
    {
      "inputs": [
        {
          "internalType": "uint256",
          "name": "_newCost",
          "type": "uint256"
        }
      ],
      "name": "setCreditsBaseCost",
      "outputs": [],
      "stateMutability": "nonpayable",
      "type": "function"
    },
    {
      "inputs": [
        {
          "internalType": "address",
          "name": "_newOwner",
          "type": "address"
        },
        {
          "internalType": "address",
          "name": "_oldOwner",
          "type": "address"
        },
        {
          "internalType": "uint256",
          "name": "_id",
          "type": "uint256"
        }
      ],
      "name": "setCurrentOwner",
      "outputs": [],
      "stateMutability": "nonpayable",
      "type": "function"
    },
    {
      "inputs": [
        {
          "internalType": "uint256",
          "name": "_newCredit",
          "type": "uint256"
        }
      ],
      "name": "setRecycleCredit",
      "outputs": [],
      "stateMutability": "nonpayable",
      "type": "function"
    },
    {
      "inputs": [
        {
          "internalType": "bytes4",
          "name": "interfaceId",
          "type": "bytes4"
        }
      ],
      "name": "supportsInterface",
      "outputs": [
        {
          "internalType": "bool",
          "name": "",
          "type": "bool"
        }
      ],
      "stateMutability": "view",
      "type": "function"
    },
    {
      "inputs": [],
      "name": "symbol",
      "outputs": [
        {
          "internalType": "string",
          "name": "",
          "type": "string"
        }
      ],
      "stateMutability": "view",
      "type": "function"
    },
    {
      "inputs": [
        {
          "internalType": "uint256",
          "name": "tokenId",
          "type": "uint256"
        }
      ],
      "name": "tokenURI",
      "outputs": [
        {
          "internalType": "string",
          "name": "",
          "type": "string"
        }
      ],
      "stateMutability": "view",
      "type": "function"
    },
    {
      "inputs": [
        {
          "internalType": "address",
          "name": "from",
          "type": "address"
        },
        {
          "internalType": "address",
          "name": "to",
          "type": "address"
        },
        {
          "internalType": "uint256",
          "name": "tokenId",
          "type": "uint256"
        }
      ],
      "name": "transferFrom",
      "outputs": [],
      "stateMutability": "nonpayable",
      "type": "function"
    },
    {
      "inputs": [],
      "name": "transferFundsOut",
      "outputs": [],
      "stateMutability": "nonpayable",
      "type": "function"
    },
    {
      "inputs": [
        {
          "internalType": "address",
          "name": "newOwner",
          "type": "address"
        }
      ],
      "name": "transferOwnership",
      "outputs": [],
      "stateMutability": "nonpayable",
      "type": "function"
    },
    {
      "inputs": [
        {
          "internalType": "address",
          "name": "",
          "type": "address"
        },
        {
          "internalType": "uint256",
          "name": "",
          "type": "uint256"
        }
      ],
      "name": "uiisOwned",
      "outputs": [
        {
          "internalType": "uint256",
          "name": "",
          "type": "uint256"
        }
      ],
      "stateMutability": "view",
      "type": "function"
    }
  ],
  "transactionHash": "0x3990bbec20c88436f6fba7034b4b34471fda4563416383250adfcb2b3dd5b9a8",
  "args": [],
  "numDeployments": 1,
  "solcInputHash": "17b0f617ef107fc4f40c214bb93073c7",
  "bytecode": "0x60806040526000600955600a805460ff19166001908117825564174876e800600b55600c55600d553480156200003457600080fd5b506040518060400160405280601b81526020017f556e6976657273616c20496e76656e746f727920466163746f72790000000000815250604051806040016040528060038152602001622aa4a360e91b8152508160009081620000989190620001d8565b506001620000a78282620001d8565b505050620000c4620000be620000dd60201b60201c565b620000e1565b60016007819055600e80549091018155600052620002a4565b3390565b600680546001600160a01b038381166001600160a01b0319831681179093556040519116919082907f8be0079c531659141344cd1fd0a4f28419497f9722a3daafe3b4186f6b6457e090600090a35050565b634e487b7160e01b600052604160045260246000fd5b600181811c908216806200015e57607f821691505b6020821081036200017f57634e487b7160e01b600052602260045260246000fd5b50919050565b601f821115620001d357600081815260208120601f850160051c81016020861015620001ae5750805b601f850160051c820191505b81811015620001cf57828155600101620001ba565b5050505b505050565b81516001600160401b03811115620001f457620001f462000133565b6200020c8162000205845462000149565b8462000185565b602080601f8311600181146200024457600084156200022b5750858301515b600019600386901b1c1916600185901b178555620001cf565b600085815260208120601f198616915b82811015620002755788860151825594840194600190910190840162000254565b5085821015620002945787850151600019600388901b60f8161c191681555b5050505050600190811b01905550565b61268e80620002b46000396000f3fe60806040526004361061021a5760003560e01c80636317ad2d11610123578063a22cb465116100ab578063c01adb531161006f578063c01adb53146106a4578063c87b56dd146106ba578063dd1c35bc146106da578063e985e9c5146106fa578063f2fde38b1461071a57600080fd5b8063a22cb46514610574578063aa4ecdb914610594578063b88d4fde146105fe578063bd69ef201461061e578063bfb231d21461064b57600080fd5b80638da5cb5b116100f25780638da5cb5b146104f8578063938225571461051657806395a81d4e1461052c57806395d89b411461054c5780639b6507f01461056157600080fd5b80636317ad2d1461048d5780636352211e146104a357806370a08231146104c3578063715018a6146104e357600080fd5b80632b5dc91f116101a657806342842e0e1161017557806342842e0e146103f357806342966c6814610413578063454dc9e114610433578063471a4294146104535780634d3ef6441461046d57600080fd5b80632b5dc91f1461037e5780632d83b8df1461039e5780633838aed1146103be5780633f379175146103d357600080fd5b8063095ea7b3116101ed578063095ea7b3146102d05780630ae6f9d6146102f05780631f88bb871461031057806323b872dd14610330578063285183811461035057600080fd5b806301ffc9a71461021f57806306fdde031461025457806307084e5614610276578063081812fc14610298575b600080fd5b34801561022b57600080fd5b5061023f61023a366004612032565b61073a565b60405190151581526020015b60405180910390f35b34801561026057600080fd5b5061026961078c565b60405161024b919061209f565b34801561028257600080fd5b506102966102913660046120ce565b61081e565b005b3480156102a457600080fd5b506102b86102b336600461210a565b610a5e565b6040516001600160a01b03909116815260200161024b565b3480156102dc57600080fd5b506102966102eb366004612123565b610a85565b3480156102fc57600080fd5b5061029661030b36600461210a565b610b9a565b34801561031c57600080fd5b5061029661032b36600461214d565b610ba7565b34801561033c57600080fd5b5061029661034b3660046120ce565b610bd1565b34801561035c57600080fd5b5061037061036b36600461210a565b610c03565b60405190815260200161024b565b34801561038a57600080fd5b5061029661039936600461210a565b610c31565b3480156103aa57600080fd5b506103706103b9366004612168565b610c3e565b3480156103ca57600080fd5b50610296610d39565b3480156103df57600080fd5b506102966103ee36600461210a565b610d7d565b3480156103ff57600080fd5b5061029661040e3660046120ce565b610d8a565b34801561041f57600080fd5b5061029661042e36600461210a565b610da5565b34801561043f57600080fd5b5061037061044e36600461210a565b610dd3565b34801561045f57600080fd5b50600a5461023f9060ff1681565b34801561047957600080fd5b50610370610488366004612123565b610dfc565b34801561049957600080fd5b50610370600d5481565b3480156104af57600080fd5b506102b86104be36600461210a565b610e2d565b3480156104cf57600080fd5b506103706104de36600461214d565b610e8d565b3480156104ef57600080fd5b50610296610f13565b34801561050457600080fd5b506006546001600160a01b03166102b8565b34801561052257600080fd5b50610370600b5481565b34801561053857600080fd5b506102b861054736600461210a565b610f27565b34801561055857600080fd5b50610269610f5f565b61037061056f366004612168565b610f6e565b34801561058057600080fd5b5061029661058f36600461219d565b611089565b3480156105a057600080fd5b506105b46105af36600461210a565b611098565b6040805182516001600160a01b039081168252602080850151821690830152838301511691810191909152606080830151908201526080918201519181019190915260a00161024b565b34801561060a57600080fd5b506102966106193660046121ef565b611137565b34801561062a57600080fd5b5061063e61063936600461214d565b61116f565b60405161024b91906122cb565b34801561065757600080fd5b5061066b61066636600461210a565b6111db565b604080516001600160a01b039687168152948616602086015292909416918301919091526060820152608081019190915260a00161024b565b3480156106b057600080fd5b50610370600c5481565b3480156106c657600080fd5b506102696106d536600461210a565b61122a565b3480156106e657600080fd5b506102966106f536600461210a565b61129d565b34801561070657600080fd5b5061023f61071536600461230f565b61130a565b34801561072657600080fd5b5061029661073536600461214d565b611338565b60006001600160e01b031982166380ac58cd60e01b148061076b57506001600160e01b03198216635b5e139f60e01b145b8061078657506301ffc9a760e01b6001600160e01b03198316145b92915050565b60606000805461079b90612342565b80601f01602080910402602001604051908101604052809291908181526020018280546107c790612342565b80156108145780601f106107e957610100808354040283529160200191610814565b820191906000526020600020905b8154815290600101906020018083116107f757829003601f168201915b5050505050905090565b61082781610e2d565b6001600160a01b0316336001600160a01b03161461087b5760405162461bcd60e51b815260206004820152600c60248201526b139bdd081e5bdd5c881b999d60a21b60448201526064015b60405180910390fd5b82600e828154811061088f5761088f61237c565b600091825260208083206001600590930201820180546001600160a01b039586166001600160a01b03199091161790559285168252600f909252604081205490916108d9916123a8565b67ffffffffffffffff8111156108f1576108f16121d9565b60405190808252806020026020018201604052801561091a578160200160208202803683370190505b5090506000805b6001600160a01b0385166000908152600f6020526040902054811015610a01576001600160a01b0385166000908152600f6020526040902080548591908390811061096e5761096e61237c565b9060005260206000200154036109905781610988816123bb565b9250506109ef565b6001600160a01b0385166000908152600f602052604090208054829081106109ba576109ba61237c565b90600052602060002001548383836109d291906123a8565b815181106109e2576109e261237c565b6020026020010181815250505b806109f9816123bb565b915050610921565b506001600160a01b0384166000908152600f602090815260409091208351610a2b92850190611fbc565b5050506001600160a01b039092166000908152600f60209081526040822080546001810182559083529120019190915550565b6000610a69826113ae565b506000908152600460205260409020546001600160a01b031690565b6000610a9082610e2d565b9050806001600160a01b0316836001600160a01b031603610afd5760405162461bcd60e51b815260206004820152602160248201527f4552433732313a20617070726f76616c20746f2063757272656e74206f776e656044820152603960f91b6064820152608401610872565b336001600160a01b0382161480610b195750610b19813361130a565b610b8b5760405162461bcd60e51b815260206004820152603e60248201527f4552433732313a20617070726f76652063616c6c6572206973206e6f7420746f60448201527f6b656e206f776e6572206e6f7220617070726f76656420666f7220616c6c00006064820152608401610872565b610b95838361140d565b505050565b610ba261147b565b600c55565b610baf61147b565b600880546001600160a01b0319166001600160a01b0392909216919091179055565b610bdc335b826114d5565b610bf85760405162461bcd60e51b8152600401610872906123d4565b610b95838383611534565b6000600e8281548110610c1857610c1861237c565b9060005260206000209060050201600301549050919050565b610c3961147b565b600b55565b600080610c4a84610dd3565b6040517f43616e2774206166666f72642e2020436f73742069733a200000000000000000602082015260388101829052909150600090605801604051602081830303815290604052905081610c9e33610e8d565b10158190610cbf5760405162461bcd60e51b8152600401610872919061209f565b50600854604051632770a7eb60e21b8152336004820152602481018490526001600160a01b0390911690639dc29fac90604401600060405180830381600087803b158015610d0c57600080fd5b505af1158015610d20573d6000803e3d6000fd5b50505050610d2f8686866116d0565b9695505050505050565b610d4161147b565b6006546040516001600160a01b03909116904780156108fc02916000818181858888f19350505050158015610d7a573d6000803e3d6000fd5b50565b610d8561147b565b600d55565b610b9583838360405180602001604052806000815250611137565b610dae33610bd6565b610dca5760405162461bcd60e51b8152600401610872906123d4565b610d7a81611938565b60008082600003610de75750600d54610786565b82600d54610df59190612506565b9392505050565b600f6020528160005260406000208181548110610e1857600080fd5b90600052602060002001600091509150505481565b6000818152600260205260408120546001600160a01b0316806107865760405162461bcd60e51b8152602060048201526018602482015277115490cdcc8c4e881a5b9d985b1a59081d1bdad95b88125160421b6044820152606401610872565b60006001600160a01b038216610ef75760405162461bcd60e51b815260206004820152602960248201527f4552433732313a2061646472657373207a65726f206973206e6f7420612076616044820152683634b21037bbb732b960b91b6064820152608401610872565b506001600160a01b031660009081526003602052604090205490565b610f1b61147b565b610f2560006119d3565b565b6000600e8281548110610f3c57610f3c61237c565b60009182526020909120600160059092020101546001600160a01b031692915050565b60606001805461079b90612342565b6000610f826006546001600160a01b031690565b6001600160a01b0316336001600160a01b03161480610fa85750600a5460ff1615156001145b610fec5760405162461bcd60e51b81526020600482015260156024820152744d696e74696e67206973206e6f742061637469766560581b6044820152606401610872565b600083600003610fff5750600b54611010565b83600b5461100d9190612506565b90505b6040516602830bcb2b21d160cd1b60208201523460278201526a0161031b7b9ba1034b99d160ad1b6047820152605281018290526000906072016040516020818303038152906040529050813414819061107d5760405162461bcd60e51b8152600401610872919061209f565b50610d2f8686866116d0565b611094338383611a25565b5050565b6040805160a081018252600080825260208201819052918101829052606081018290526080810191909152600e82815481106110d6576110d661237c565b60009182526020918290206040805160a081018252600590930290910180546001600160a01b039081168452600182015481169484019490945260028101549093169082015260038201546060820152600490910154608082015292915050565b61114133836114d5565b61115d5760405162461bcd60e51b8152600401610872906123d4565b61116984848484611af3565b50505050565b6001600160a01b0381166000908152600f60209081526040918290208054835181840281018401909452808452606093928301828280156111cf57602002820191906000526020600020905b8154815260200190600101908083116111bb575b50505050509050919050565b600e81815481106111eb57600080fd5b6000918252602090912060059091020180546001820154600283015460038401546004909401546001600160a01b039384169550918316939216919085565b6060611235826113ae565b600061124c60408051602081019091526000815290565b9050600081511161126c5760405180602001604052806000815250610df5565b8061127684611b26565b604051602001611287929190612512565b6040516020818303038152906040529392505050565b6112a681610e2d565b6001600160a01b0316336001600160a01b0316146112f55760405162461bcd60e51b815260206004820152600c60248201526b139bdd081e5bdd5c881b999d60a21b6044820152606401610872565b6112fe81611938565b610d7a33600c54611c27565b6001600160a01b03918216600090815260056020908152604080832093909416825291909152205460ff1690565b61134061147b565b6001600160a01b0381166113a55760405162461bcd60e51b815260206004820152602660248201527f4f776e61626c653a206e6577206f776e657220697320746865207a65726f206160448201526564647265737360d01b6064820152608401610872565b610d7a816119d3565b6000818152600260205260409020546001600160a01b0316610d7a5760405162461bcd60e51b8152602060048201526018602482015277115490cdcc8c4e881a5b9d985b1a59081d1bdad95b88125160421b6044820152606401610872565b600081815260046020526040902080546001600160a01b0319166001600160a01b038416908117909155819061144282610e2d565b6001600160a01b03167f8c5be1e5ebec7d5bd14f71427d1e84f3dd0314c0f7b2291e5b200ac8c7c3b92560405160405180910390a45050565b6006546001600160a01b03163314610f255760405162461bcd60e51b815260206004820181905260248201527f4f776e61626c653a2063616c6c6572206973206e6f7420746865206f776e65726044820152606401610872565b6000806114e183610e2d565b9050806001600160a01b0316846001600160a01b031614806115085750611508818561130a565b8061152c5750836001600160a01b031661152184610a5e565b6001600160a01b0316145b949350505050565b826001600160a01b031661154782610e2d565b6001600160a01b0316146115ab5760405162461bcd60e51b815260206004820152602560248201527f4552433732313a207472616e736665722066726f6d20696e636f72726563742060448201526437bbb732b960d91b6064820152608401610872565b6001600160a01b03821661160d5760405162461bcd60e51b8152602060048201526024808201527f4552433732313a207472616e7366657220746f20746865207a65726f206164646044820152637265737360e01b6064820152608401610872565b61161860008261140d565b6001600160a01b03831660009081526003602052604081208054600192906116419084906123a8565b90915550506001600160a01b038216600090815260036020526040812080546001929061166f908490612541565b909155505060008181526002602052604080822080546001600160a01b0319166001600160a01b0386811691821790925591518493918716917fddf252ad1be2c89b69c2b068fc378daa952ba7f163c4a11628f55a4df523b3ef91a4505050565b60006002600754036117245760405162461bcd60e51b815260206004820152601f60248201527f5265656e7472616e637947756172643a207265656e7472616e742063616c6c006044820152606401610872565b60026007556006546001600160a01b03163314806117495750600a5460ff1615156001145b61178d5760405162461bcd60e51b81526020600482015260156024820152744d696e74696e67206973206e6f742061637469766560581b6044820152606401610872565b60ff8411156117cf5760405162461bcd60e51b815260206004820152600e60248201526d42616420747970652076616c756560901b6044820152606401610872565b600f8311156118145760405162461bcd60e51b8152602060048201526011602482015270426164207175616c6974792076616c756560781b6044820152606401610872565b600e6040518060a00160405280846001600160a01b03168152602001846001600160a01b03168152602001336001600160a01b031681526020016118588787611d69565b815260006020918201819052835460018082018655948252828220845160059092020180546001600160a01b03199081166001600160a01b039384161782558585015182880180548316918516919091179055604080870151600284018054909316908516179091556060860151600383015560809095015160049091015586168152600f90915220600e5490916118ef916123a8565b815460018181018455600093845260209093200155600e5461191c91339161191791906123a8565b611e03565b600e5461192b906001906123a8565b6001600755949350505050565b600061194382610e2d565b905061195060008361140d565b6001600160a01b03811660009081526003602052604081208054600192906119799084906123a8565b909155505060008281526002602052604080822080546001600160a01b0319169055518391906001600160a01b038416907fddf252ad1be2c89b69c2b068fc378daa952ba7f163c4a11628f55a4df523b3ef908390a45050565b600680546001600160a01b038381166001600160a01b0319831681179093556040519116919082907f8be0079c531659141344cd1fd0a4f28419497f9722a3daafe3b4186f6b6457e090600090a35050565b816001600160a01b0316836001600160a01b031603611a865760405162461bcd60e51b815260206004820152601960248201527f4552433732313a20617070726f766520746f2063616c6c6572000000000000006044820152606401610872565b6001600160a01b03838116600081815260056020908152604080832094871680845294825291829020805460ff191686151590811790915591519182527f17307eab39ab6107e8899845ad3d59bd9653f200f220920489ca2b5937696c31910160405180910390a3505050565b611afe848484611534565b611b0a84848484611e1d565b6111695760405162461bcd60e51b815260040161087290612554565b606081600003611b4d5750506040805180820190915260018152600360fc1b602082015290565b8160005b8115611b775780611b61816123bb565b9150611b709050600a836125bc565b9150611b51565b60008167ffffffffffffffff811115611b9257611b926121d9565b6040519080825280601f01601f191660200182016040528015611bbc576020820181803683370190505b5090505b841561152c57611bd16001836123a8565b9150611bde600a866125d0565b611be9906030612541565b60f81b818381518110611bfe57611bfe61237c565b60200101906001600160f81b031916908160001a905350611c20600a866125bc565b9450611bc0565b6001600160a01b038216611c7d5760405162461bcd60e51b815260206004820181905260248201527f4552433732313a206d696e7420746f20746865207a65726f20616464726573736044820152606401610872565b6000818152600260205260409020546001600160a01b031615611ce25760405162461bcd60e51b815260206004820152601c60248201527f4552433732313a20746f6b656e20616c7265616479206d696e746564000000006044820152606401610872565b6001600160a01b0382166000908152600360205260408120805460019290611d0b908490612541565b909155505060008181526002602052604080822080546001600160a01b0319166001600160a01b03861690811790915590518392907fddf252ad1be2c89b69c2b068fc378daa952ba7f163c4a11628f55a4df523b3ef908290a45050565b600080611d74611f1e565b604051602001611d8691815260200190565b60405160208183030381529060405290508360f81b81600081518110611dae57611dae61237c565b60200101906001600160f81b031916908160001a9053508215611dfa578260f81b81600281518110611de257611de261237c565b60200101906001600160f81b031916908160001a9053505b61152c816125e4565b611094828260405180602001604052806000815250611f89565b60006001600160a01b0384163b15611f1357604051630a85bd0160e11b81526001600160a01b0385169063150b7a0290611e61903390899088908890600401612608565b6020604051808303816000875af1925050508015611e9c575060408051601f3d908101601f19168201909252611e999181019061263b565b60015b611ef9573d808015611eca576040519150601f19603f3d011682016040523d82523d6000602084013e611ecf565b606091505b508051600003611ef15760405162461bcd60e51b815260040161087290612554565b805181602001fd5b6001600160e01b031916630a85bd0160e11b14905061152c565b506001949350505050565b6009805460009182611f2f836123bb565b91905055506009544233604051602001611f6e93929190928352602083019190915260601b6bffffffffffffffffffffffff1916604082015260540190565b60405160208183030381529060405280519060200120905090565b611f938383611c27565b611fa06000848484611e1d565b610b955760405162461bcd60e51b815260040161087290612554565b828054828255906000526020600020908101928215611ff7579160200282015b82811115611ff7578251825591602001919060010190611fdc565b50612003929150612007565b5090565b5b808211156120035760008155600101612008565b6001600160e01b031981168114610d7a57600080fd5b60006020828403121561204457600080fd5b8135610df58161201c565b60005b8381101561206a578181015183820152602001612052565b50506000910152565b6000815180845261208b81602086016020860161204f565b601f01601f19169290920160200192915050565b602081526000610df56020830184612073565b80356001600160a01b03811681146120c957600080fd5b919050565b6000806000606084860312156120e357600080fd5b6120ec846120b2565b92506120fa602085016120b2565b9150604084013590509250925092565b60006020828403121561211c57600080fd5b5035919050565b6000806040838503121561213657600080fd5b61213f836120b2565b946020939093013593505050565b60006020828403121561215f57600080fd5b610df5826120b2565b60008060006060848603121561217d57600080fd5b8335925060208401359150612194604085016120b2565b90509250925092565b600080604083850312156121b057600080fd5b6121b9836120b2565b9150602083013580151581146121ce57600080fd5b809150509250929050565b634e487b7160e01b600052604160045260246000fd5b6000806000806080858703121561220557600080fd5b61220e856120b2565b935061221c602086016120b2565b925060408501359150606085013567ffffffffffffffff8082111561224057600080fd5b818701915087601f83011261225457600080fd5b813581811115612266576122666121d9565b604051601f8201601f19908116603f0116810190838211818310171561228e5761228e6121d9565b816040528281528a60208487010111156122a757600080fd5b82602086016020830137600060208483010152809550505050505092959194509250565b6020808252825182820181905260009190848201906040850190845b81811015612303578351835292840192918401916001016122e7565b50909695505050505050565b6000806040838503121561232257600080fd5b61232b836120b2565b9150612339602084016120b2565b90509250929050565b600181811c9082168061235657607f821691505b60208210810361237657634e487b7160e01b600052602260045260246000fd5b50919050565b634e487b7160e01b600052603260045260246000fd5b634e487b7160e01b600052601160045260246000fd5b8181038181111561078657610786612392565b6000600182016123cd576123cd612392565b5060010190565b6020808252602e908201527f4552433732313a2063616c6c6572206973206e6f7420746f6b656e206f776e6560408201526d1c881b9bdc88185c1c1c9bdd995960921b606082015260800190565b600181815b8085111561245d57816000190482111561244357612443612392565b8085161561245057918102915b93841c9390800290612427565b509250929050565b60008261247457506001610786565b8161248157506000610786565b816001811461249757600281146124a1576124bd565b6001915050610786565b60ff8411156124b2576124b2612392565b50506001821b610786565b5060208310610133831016604e8410600b84101617156124e0575081810a610786565b6124ea8383612422565b80600019048211156124fe576124fe612392565b029392505050565b6000610df58383612465565b6000835161252481846020880161204f565b83519083019061253881836020880161204f565b01949350505050565b8082018082111561078657610786612392565b60208082526032908201527f4552433732313a207472616e7366657220746f206e6f6e20455243373231526560408201527131b2b4bb32b91034b6b83632b6b2b73a32b960711b606082015260800190565b634e487b7160e01b600052601260045260246000fd5b6000826125cb576125cb6125a6565b500490565b6000826125df576125df6125a6565b500690565b805160208083015191908110156123765760001960209190910360031b1b16919050565b6001600160a01b0385811682528416602082015260408101839052608060608201819052600090610d2f90830184612073565b60006020828403121561264d57600080fd5b8151610df58161201c56fea2646970667358221220c11e8f750f2a6fbb6addcdcbec161ebe6e66413e33f5903d3ff140d1ce1fe8d064736f6c63430008110033",
  "devdoc": {
    "kind": "dev",
    "methods": {
      "approve(address,uint256)": {
        "details": "See {IERC721-approve}."
      },
      "balanceOf(address)": {
        "details": "See {IERC721-balanceOf}."
      },
      "burn(uint256)": {
        "details": "Burns `tokenId`. See {ERC721-_burn}. Requirements: - The caller must own `tokenId` or be an approved operator."
      },
      "getApproved(uint256)": {
        "details": "See {IERC721-getApproved}."
      },
      "isApprovedForAll(address,address)": {
        "details": "See {IERC721-isApprovedForAll}."
      },
      "name()": {
        "details": "See {IERC721Metadata-name}."
      },
      "owner()": {
        "details": "Returns the address of the current owner."
      },
      "ownerOf(uint256)": {
        "details": "See {IERC721-ownerOf}."
      },
      "renounceOwnership()": {
        "details": "Leaves the contract without owner. It will not be possible to call `onlyOwner` functions anymore. Can only be called by the current owner. NOTE: Renouncing ownership will leave the contract without an owner, thereby removing any functionality that is only available to the owner."
      },
      "safeTransferFrom(address,address,uint256)": {
        "details": "See {IERC721-safeTransferFrom}."
      },
      "safeTransferFrom(address,address,uint256,bytes)": {
        "details": "See {IERC721-safeTransferFrom}."
      },
      "setApprovalForAll(address,bool)": {
        "details": "See {IERC721-setApprovalForAll}."
      },
      "supportsInterface(bytes4)": {
        "details": "See {IERC165-supportsInterface}."
      },
      "symbol()": {
        "details": "See {IERC721Metadata-symbol}."
      },
      "tokenURI(uint256)": {
        "details": "See {IERC721Metadata-tokenURI}."
      },
      "transferFrom(address,address,uint256)": {
        "details": "See {IERC721-transferFrom}."
      },
      "transferOwnership(address)": {
        "details": "Transfers ownership of the contract to a new account (`newOwner`). Can only be called by the current owner."
      }
    },
    "version": 1
  },
  "userdoc": {
    "kind": "user",
    "methods": {},
    "version": 1
  },
  "storageLayout": {
    "storage": [
      {
        "astId": 178,
        "contract": "contracts/UniversalInventory.sol:UniversalInventoryFactory",
        "label": "_name",
        "offset": 0,
        "slot": "0",
        "type": "t_string_storage"
      },
      {
        "astId": 180,
        "contract": "contracts/UniversalInventory.sol:UniversalInventoryFactory",
        "label": "_symbol",
        "offset": 0,
        "slot": "1",
        "type": "t_string_storage"
      },
      {
        "astId": 184,
        "contract": "contracts/UniversalInventory.sol:UniversalInventoryFactory",
        "label": "_owners",
        "offset": 0,
        "slot": "2",
        "type": "t_mapping(t_uint256,t_address)"
      },
      {
        "astId": 188,
        "contract": "contracts/UniversalInventory.sol:UniversalInventoryFactory",
        "label": "_balances",
        "offset": 0,
        "slot": "3",
        "type": "t_mapping(t_address,t_uint256)"
      },
      {
        "astId": 192,
        "contract": "contracts/UniversalInventory.sol:UniversalInventoryFactory",
        "label": "_tokenApprovals",
        "offset": 0,
        "slot": "4",
        "type": "t_mapping(t_uint256,t_address)"
      },
      {
        "astId": 198,
        "contract": "contracts/UniversalInventory.sol:UniversalInventoryFactory",
        "label": "_operatorApprovals",
        "offset": 0,
        "slot": "5",
        "type": "t_mapping(t_address,t_mapping(t_address,t_bool))"
      },
      {
        "astId": 7,
        "contract": "contracts/UniversalInventory.sol:UniversalInventoryFactory",
        "label": "_owner",
        "offset": 0,
        "slot": "6",
        "type": "t_address"
      },
      {
        "astId": 123,
        "contract": "contracts/UniversalInventory.sol:UniversalInventoryFactory",
        "label": "_status",
        "offset": 0,
        "slot": "7",
        "type": "t_uint256"
      },
      {
        "astId": 2419,
        "contract": "contracts/UniversalInventory.sol:UniversalInventoryFactory",
        "label": "uifCredits",
        "offset": 0,
        "slot": "8",
        "type": "t_contract(UIFCreditsInterface)2410"
      },
      {
        "astId": 2422,
        "contract": "contracts/UniversalInventory.sol:UniversalInventoryFactory",
        "label": "TODO_randomSeed",
        "offset": 0,
        "slot": "9",
        "type": "t_uint256"
      },
      {
        "astId": 2425,
        "contract": "contracts/UniversalInventory.sol:UniversalInventoryFactory",
        "label": "mintIsActive",
        "offset": 0,
        "slot": "10",
        "type": "t_bool"
      },
      {
        "astId": 2428,
        "contract": "contracts/UniversalInventory.sol:UniversalInventoryFactory",
        "label": "baseCost",
        "offset": 0,
        "slot": "11",
        "type": "t_uint256"
      },
      {
        "astId": 2431,
        "contract": "contracts/UniversalInventory.sol:UniversalInventoryFactory",
        "label": "recycleCredit",
        "offset": 0,
        "slot": "12",
        "type": "t_uint256"
      },
      {
        "astId": 2434,
        "contract": "contracts/UniversalInventory.sol:UniversalInventoryFactory",
        "label": "creditsBaseCost",
        "offset": 0,
        "slot": "13",
        "type": "t_uint256"
      },
      {
        "astId": 2451,
        "contract": "contracts/UniversalInventory.sol:UniversalInventoryFactory",
        "label": "items",
        "offset": 0,
        "slot": "14",
        "type": "t_array(t_struct(UniversalInventoryItem)2447_storage)dyn_storage"
      },
      {
        "astId": 2456,
        "contract": "contracts/UniversalInventory.sol:UniversalInventoryFactory",
        "label": "uiisOwned",
        "offset": 0,
        "slot": "15",
        "type": "t_mapping(t_address,t_array(t_uint256)dyn_storage)"
      }
    ],
    "types": {
      "t_address": {
        "encoding": "inplace",
        "label": "address",
        "numberOfBytes": "20"
      },
      "t_array(t_struct(UniversalInventoryItem)2447_storage)dyn_storage": {
        "base": "t_struct(UniversalInventoryItem)2447_storage",
        "encoding": "dynamic_array",
        "label": "struct UniversalInventoryFactory.UniversalInventoryItem[]",
        "numberOfBytes": "32"
      },
      "t_array(t_uint256)dyn_storage": {
        "base": "t_uint256",
        "encoding": "dynamic_array",
        "label": "uint256[]",
        "numberOfBytes": "32"
      },
      "t_bool": {
        "encoding": "inplace",
        "label": "bool",
        "numberOfBytes": "1"
      },
      "t_bytes32": {
        "encoding": "inplace",
        "label": "bytes32",
        "numberOfBytes": "32"
      },
      "t_contract(UIFCreditsInterface)2410": {
        "encoding": "inplace",
        "label": "contract UIFCreditsInterface",
        "numberOfBytes": "20"
      },
      "t_mapping(t_address,t_array(t_uint256)dyn_storage)": {
        "encoding": "mapping",
        "key": "t_address",
        "label": "mapping(address => uint256[])",
        "numberOfBytes": "32",
        "value": "t_array(t_uint256)dyn_storage"
      },
      "t_mapping(t_address,t_bool)": {
        "encoding": "mapping",
        "key": "t_address",
        "label": "mapping(address => bool)",
        "numberOfBytes": "32",
        "value": "t_bool"
      },
      "t_mapping(t_address,t_mapping(t_address,t_bool))": {
        "encoding": "mapping",
        "key": "t_address",
        "label": "mapping(address => mapping(address => bool))",
        "numberOfBytes": "32",
        "value": "t_mapping(t_address,t_bool)"
      },
      "t_mapping(t_address,t_uint256)": {
        "encoding": "mapping",
        "key": "t_address",
        "label": "mapping(address => uint256)",
        "numberOfBytes": "32",
        "value": "t_uint256"
      },
      "t_mapping(t_uint256,t_address)": {
        "encoding": "mapping",
        "key": "t_uint256",
        "label": "mapping(uint256 => address)",
        "numberOfBytes": "32",
        "value": "t_address"
      },
      "t_string_storage": {
        "encoding": "bytes",
        "label": "string",
        "numberOfBytes": "32"
      },
      "t_struct(UniversalInventoryItem)2447_storage": {
        "encoding": "inplace",
        "label": "struct UniversalInventoryFactory.UniversalInventoryItem",
        "members": [
          {
            "astId": 2438,
            "contract": "contracts/UniversalInventory.sol:UniversalInventoryFactory",
            "label": "originalOwner",
            "offset": 0,
            "slot": "0",
            "type": "t_address"
          },
          {
            "astId": 2440,
            "contract": "contracts/UniversalInventory.sol:UniversalInventoryFactory",
            "label": "currentOwner",
            "offset": 0,
            "slot": "1",
            "type": "t_address"
          },
          {
            "astId": 2442,
            "contract": "contracts/UniversalInventory.sol:UniversalInventoryFactory",
            "label": "creator",
            "offset": 0,
            "slot": "2",
            "type": "t_address"
          },
          {
            "astId": 2444,
            "contract": "contracts/UniversalInventory.sol:UniversalInventoryFactory",
            "label": "properties",
            "offset": 0,
            "slot": "3",
            "type": "t_bytes32"
          },
          {
            "astId": 2446,
            "contract": "contracts/UniversalInventory.sol:UniversalInventoryFactory",
            "label": "taxonomyVersion",
            "offset": 0,
            "slot": "4",
            "type": "t_uint256"
          }
        ],
        "numberOfBytes": "160"
      },
      "t_uint256": {
        "encoding": "inplace",
        "label": "uint256",
        "numberOfBytes": "32"
      }
    }
  }
}