{
  "address": "0x7AA55498C31a4a399f525D1e8BD9e68531535966",
  "abi": [
    {
      "anonymous": false,
      "inputs": [
        {
          "indexed": true,
          "internalType": "address",
          "name": "previousOwner",
          "type": "address"
        },
        {
          "indexed": true,
          "internalType": "address",
          "name": "newOwner",
          "type": "address"
        }
      ],
      "name": "OwnershipTransferred",
      "type": "event"
    },
    {
      "anonymous": false,
      "inputs": [],
      "name": "Received",
      "type": "event"
    },
    {
      "inputs": [],
      "name": "BOARD_SIZE",
      "outputs": [
        {
          "internalType": "uint256",
          "name": "",
          "type": "uint256"
        }
      ],
      "stateMutability": "view",
      "type": "function"
    },
    {
      "inputs": [],
      "name": "DOOR_CHANCE",
      "outputs": [
        {
          "internalType": "uint256",
          "name": "",
          "type": "uint256"
        }
      ],
      "stateMutability": "view",
      "type": "function"
    },
    {
      "inputs": [],
      "name": "DOOR_MOD_STEP",
      "outputs": [
        {
          "internalType": "uint8",
          "name": "",
          "type": "uint8"
        }
      ],
      "stateMutability": "view",
      "type": "function"
    },
    {
      "inputs": [],
      "name": "MAX_DOOR_STR",
      "outputs": [
        {
          "internalType": "uint8",
          "name": "",
          "type": "uint8"
        }
      ],
      "stateMutability": "view",
      "type": "function"
    },
    {
      "inputs": [],
      "name": "START_ROOM_ID",
      "outputs": [
        {
          "internalType": "uint256",
          "name": "",
          "type": "uint256"
        }
      ],
      "stateMutability": "view",
      "type": "function"
    },
    {
      "inputs": [],
      "name": "VENT_CHANCE",
      "outputs": [
        {
          "internalType": "uint256",
          "name": "",
          "type": "uint256"
        }
      ],
      "stateMutability": "view",
      "type": "function"
    },
    {
      "inputs": [],
      "name": "WINDOW_CHANCE",
      "outputs": [
        {
          "internalType": "uint256",
          "name": "",
          "type": "uint256"
        }
      ],
      "stateMutability": "view",
      "type": "function"
    },
    {
      "inputs": [],
      "name": "debugStartGame",
      "outputs": [],
      "stateMutability": "nonpayable",
      "type": "function"
    },
    {
      "inputs": [],
      "name": "enlistForMission",
      "outputs": [],
      "stateMutability": "payable",
      "type": "function"
    },
    {
      "inputs": [
        {
          "internalType": "uint256",
          "name": "_gameId",
          "type": "uint256"
        }
      ],
      "name": "extGetBoard",
      "outputs": [
        {
          "components": [
            {
              "internalType": "uint8",
              "name": "roomId",
              "type": "uint8"
            },
            {
              "internalType": "uint8",
              "name": "parentId",
              "type": "uint8"
            },
            {
              "internalType": "uint8",
              "name": "nDoor",
              "type": "uint8"
            },
            {
              "internalType": "uint8",
              "name": "sDoor",
              "type": "uint8"
            },
            {
              "internalType": "uint8",
              "name": "eDoor",
              "type": "uint8"
            },
            {
              "internalType": "uint8",
              "name": "wDoor",
              "type": "uint8"
            },
            {
              "internalType": "bool",
              "name": "explored",
              "type": "bool"
            },
            {
              "internalType": "bool",
              "name": "looted",
              "type": "bool"
            },
            {
              "internalType": "bool",
              "name": "hasVent",
              "type": "bool"
            }
          ],
          "internalType": "struct BCGames.GameTile[][]",
          "name": "",
          "type": "tuple[][]"
        }
      ],
      "stateMutability": "view",
      "type": "function"
    },
    {
      "inputs": [
        {
          "internalType": "uint256",
          "name": "_gameId",
          "type": "uint256"
        }
      ],
      "name": "extGetDoors",
      "outputs": [
        {
          "components": [
            {
              "internalType": "uint8",
              "name": "vsBreach",
              "type": "uint8"
            },
            {
              "internalType": "uint8",
              "name": "vsHack",
              "type": "uint8"
            },
            {
              "internalType": "enum BCGames.DoorStatus",
              "name": "status",
              "type": "uint8"
            }
          ],
          "internalType": "struct BCGames.Door[]",
          "name": "",
          "type": "tuple[]"
        }
      ],
      "stateMutability": "view",
      "type": "function"
    },
    {
      "inputs": [
        {
          "internalType": "uint256",
          "name": "_gameId",
          "type": "uint256"
        },
        {
          "internalType": "uint256",
          "name": "_row",
          "type": "uint256"
        },
        {
          "internalType": "uint256",
          "name": "_col",
          "type": "uint256"
        }
      ],
      "name": "extGetGameTile",
      "outputs": [
        {
          "components": [
            {
              "internalType": "uint8",
              "name": "roomId",
              "type": "uint8"
            },
            {
              "internalType": "uint8",
              "name": "parentId",
              "type": "uint8"
            },
            {
              "internalType": "uint8",
              "name": "nDoor",
              "type": "uint8"
            },
            {
              "internalType": "uint8",
              "name": "sDoor",
              "type": "uint8"
            },
            {
              "internalType": "uint8",
              "name": "eDoor",
              "type": "uint8"
            },
            {
              "internalType": "uint8",
              "name": "wDoor",
              "type": "uint8"
            },
            {
              "internalType": "bool",
              "name": "explored",
              "type": "bool"
            },
            {
              "internalType": "bool",
              "name": "looted",
              "type": "bool"
            },
            {
              "internalType": "bool",
              "name": "hasVent",
              "type": "bool"
            }
          ],
          "internalType": "struct BCGames.GameTile",
          "name": "",
          "type": "tuple"
        }
      ],
      "stateMutability": "view",
      "type": "function"
    },
    {
      "inputs": [
        {
          "internalType": "uint256",
          "name": "",
          "type": "uint256"
        }
      ],
      "name": "games",
      "outputs": [
        {
          "internalType": "bool",
          "name": "active",
          "type": "bool"
        },
        {
          "internalType": "uint256",
          "name": "turnsTaken",
          "type": "uint256"
        },
        {
          "components": [
            {
              "internalType": "uint8",
              "name": "bugEvents",
              "type": "uint8"
            },
            {
              "internalType": "uint8",
              "name": "mysteryEvents",
              "type": "uint8"
            },
            {
              "internalType": "uint8",
              "name": "scavEvents",
              "type": "uint8"
            },
            {
              "internalType": "uint8",
              "name": "shipEvents",
              "type": "uint8"
            }
          ],
          "internalType": "struct BCGames.EventTracker",
          "name": "eventTracker",
          "type": "tuple"
        },
        {
          "internalType": "uint8",
          "name": "numRooms",
          "type": "uint8"
        },
        {
          "internalType": "uint8",
          "name": "numDoors",
          "type": "uint8"
        },
        {
          "components": [
            {
              "internalType": "uint8",
              "name": "row",
              "type": "uint8"
            },
            {
              "internalType": "uint8",
              "name": "col",
              "type": "uint8"
            }
          ],
          "internalType": "struct BCGames.Position",
          "name": "startPosition",
          "type": "tuple"
        }
      ],
      "stateMutability": "view",
      "type": "function"
    },
    {
      "inputs": [
        {
          "internalType": "uint256",
          "name": "",
          "type": "uint256"
        }
      ],
      "name": "itemToPlayer",
      "outputs": [
        {
          "internalType": "address",
          "name": "",
          "type": "address"
        }
      ],
      "stateMutability": "view",
      "type": "function"
    },
    {
      "inputs": [],
      "name": "owner",
      "outputs": [
        {
          "internalType": "address",
          "name": "",
          "type": "address"
        }
      ],
      "stateMutability": "view",
      "type": "function"
    },
    {
      "inputs": [],
      "name": "renounceOwnership",
      "outputs": [],
      "stateMutability": "nonpayable",
      "type": "function"
    },
    {
      "inputs": [],
      "name": "roomTileContract",
      "outputs": [
        {
          "internalType": "contract RoomTileInterface",
          "name": "",
          "type": "address"
        }
      ],
      "stateMutability": "view",
      "type": "function"
    },
    {
      "inputs": [
        {
          "internalType": "address",
          "name": "_roomTileAddress",
          "type": "address"
        }
      ],
      "name": "setContractAddresses",
      "outputs": [],
      "stateMutability": "nonpayable",
      "type": "function"
    },
    {
      "inputs": [],
      "name": "testGettingRoomTiles",
      "outputs": [
        {
          "internalType": "uint256[]",
          "name": "",
          "type": "uint256[]"
        }
      ],
      "stateMutability": "view",
      "type": "function"
    },
    {
      "inputs": [
        {
          "internalType": "address",
          "name": "newOwner",
          "type": "address"
        }
      ],
      "name": "transferOwnership",
      "outputs": [],
      "stateMutability": "nonpayable",
      "type": "function"
    }
  ],
  "transactionHash": "0x50ae3db9ee8e4e4a3136a3c45003faaee4b9aeef19acac42916721b757c94133",
  "args": [],
  "numDeployments": 2,
  "solcInputHash": "2d40819076178c15b68fc979dcf7ec9f",
  "bytecode": "0x6080604052600060015560096003556021600455601960055560426006556016600760006101000a81548160ff021916908360ff1602179055506003600760016101000a81548160ff021916908360ff1602179055506002600855600854600960006101000a81548160ff021916908360ff1602179055503480156200008457600080fd5b50620000a562000099620000ab60201b60201c565b620000b360201b60201c565b62000177565b600033905090565b60008060009054906101000a900473ffffffffffffffffffffffffffffffffffffffff169050816000806101000a81548173ffffffffffffffffffffffffffffffffffffffff021916908373ffffffffffffffffffffffffffffffffffffffff1602179055508173ffffffffffffffffffffffffffffffffffffffff168173ffffffffffffffffffffffffffffffffffffffff167f8be0079c531659141344cd1fd0a4f28419497f9722a3daafe3b4186f6b6457e060405160405180910390a35050565b613c1080620001876000396000f3fe60806040526004361061011e5760003560e01c8063acaafc22116100a0578063dc4a3e9511610064578063dc4a3e9514610398578063f2285d5c146103c3578063f2fde38b146103ee578063f612602814610417578063f9dfbfcb146104545761011e565b8063acaafc22146102f6578063b76da75114610321578063bfebe7ed1461034c578063cba05a1814610377578063d3cbb7ce146103815761011e565b8063471954cd116100e7578063471954cd14610221578063686c95af1461024c57806369568fd514610277578063715018a6146102b45780638da5cb5b146102cb5761011e565b8062b40656146101235780630f2eb0921461014e578063117a5b90146101795780631ef04416146101bb5780631f88bb87146101f8575b600080fd5b34801561012f57600080fd5b50610138610491565b60405161014591906128e6565b60405180910390f35b34801561015a57600080fd5b506101636104a4565b604051610170919061291a565b60405180910390f35b34801561018557600080fd5b506101a0600480360381019061019b9190612975565b6104aa565b6040516101b296959493929190612a50565b60405180910390f35b3480156101c757600080fd5b506101e260048036038101906101dd9190612975565b6105df565b6040516101ef9190612ceb565b60405180910390f35b34801561020457600080fd5b5061021f600480360381019061021a9190612d6b565b61089f565b005b34801561022d57600080fd5b506102366108eb565b60405161024391906128e6565b60405180910390f35b34801561025857600080fd5b506102616108fe565b60405161026e919061291a565b60405180910390f35b34801561028357600080fd5b5061029e60048036038101906102999190612975565b610904565b6040516102ab9190612f00565b60405180910390f35b3480156102c057600080fd5b506102c9610a90565b005b3480156102d757600080fd5b506102e0610aa4565b6040516102ed9190612f31565b60405180910390f35b34801561030257600080fd5b5061030b610acd565b604051610318919061291a565b60405180910390f35b34801561032d57600080fd5b50610336610ad3565b6040516103439190612fab565b60405180910390f35b34801561035857600080fd5b50610361610af9565b60405161036e919061291a565b60405180910390f35b61037f610aff565b005b34801561038d57600080fd5b50610396610b01565b005b3480156103a457600080fd5b506103ad610b0b565b6040516103ba919061291a565b60405180910390f35b3480156103cf57600080fd5b506103d8610b11565b6040516103e59190613084565b60405180910390f35b3480156103fa57600080fd5b5061041560048036038101906104109190612d6b565b610c38565b005b34801561042357600080fd5b5061043e60048036038101906104399190612975565b610cbc565b60405161044b9190612f31565b60405180910390f35b34801561046057600080fd5b5061047b600480360381019061047691906130a6565b610cef565b60405161048891906131b0565b60405180910390f35b600760009054906101000a900460ff1681565b60055481565b600c81815481106104ba57600080fd5b90600052602060002090600b02016000915090508060000160009054906101000a900460ff1690806002015490806003016040518060800160405290816000820160009054906101000a900460ff1660ff1660ff1681526020016000820160019054906101000a900460ff1660ff1660ff1681526020016000820160029054906101000a900460ff1660ff1660ff1681526020016000820160039054906101000a900460ff1660ff1660ff1681525050908060050160009054906101000a900460ff16908060090160009054906101000a900460ff169080600a016040518060400160405290816000820160009054906101000a900460ff1660ff1660ff1681526020016000820160019054906101000a900460ff1660ff1660ff1681525050905086565b6060600060035467ffffffffffffffff8111156105ff576105fe6131cc565b5b60405190808252806020026020018201604052801561063257816020015b606081526020019060019003908161061d5790505b50905060005b6003548110156106c95760035467ffffffffffffffff81111561065e5761065d6131cc565b5b60405190808252806020026020018201604052801561069757816020015b6106846126eb565b81526020019060019003908161067c5790505b508282815181106106ab576106aa6131fb565b5b602002602001018190525080806106c190613259565b915050610638565b5060005b6003548110156108955760005b60035481101561088157600c85815481106106f8576106f76131fb565b5b90600052602060002090600b020160070160008381526020019081526020016000206000828152602001908152602001600020604051806101200160405290816000820160009054906101000a900460ff1660ff1660ff1681526020016000820160019054906101000a900460ff1660ff1660ff1681526020016000820160029054906101000a900460ff1660ff1660ff1681526020016000820160039054906101000a900460ff1660ff1660ff1681526020016000820160049054906101000a900460ff1660ff1660ff1681526020016000820160059054906101000a900460ff1660ff1660ff1681526020016000820160069054906101000a900460ff161515151581526020016000820160079054906101000a900460ff161515151581526020016000820160089054906101000a900460ff161515151581525050838381518110610849576108486131fb565b5b60200260200101518281518110610863576108626131fb565b5b6020026020010181905250808061087990613259565b9150506106da565b50808061088d90613259565b9150506106cd565b5080915050919050565b6108a7610e52565b80600260006101000a81548173ffffffffffffffffffffffffffffffffffffffff021916908373ffffffffffffffffffffffffffffffffffffffff16021790555050565b600760019054906101000a900460ff1681565b60045481565b60606000600c838154811061091c5761091b6131fb565b5b90600052602060002090600b020160090160009054906101000a900460ff1660ff1667ffffffffffffffff811115610957576109566131cc565b5b60405190808252806020026020018201604052801561099057816020015b61097d61274f565b8152602001906001900390816109755790505b50905060005b8151811015610a8657600c84815481106109b3576109b26131fb565b5b90600052602060002090600b020160080160008281526020019081526020016000206040518060600160405290816000820160009054906101000a900460ff1660ff1660ff1681526020016000820160019054906101000a900460ff1660ff1660ff1681526020016000820160029054906101000a900460ff166004811115610a3f57610a3e612dc4565b5b6004811115610a5157610a50612dc4565b5b81525050828281518110610a6857610a676131fb565b5b60200260200101819052508080610a7e90613259565b915050610996565b5080915050919050565b610a98610e52565b610aa26000610ed0565b565b60008060009054906101000a900473ffffffffffffffffffffffffffffffffffffffff16905090565b60085481565b600260009054906101000a900473ffffffffffffffffffffffffffffffffffffffff1681565b60065481565b565b610b09610f94565b565b60035481565b60606000600267ffffffffffffffff811115610b3057610b2f6131cc565b5b604051908082528060200260200182016040528015610b5e5781602001602082028036833780820191505090505b50905060005b8151811015610c3057600260009054906101000a900473ffffffffffffffffffffffffffffffffffffffff1673ffffffffffffffffffffffffffffffffffffffff166338fdf0bd6040518163ffffffff1660e01b8152600401602060405180830381865afa158015610bda573d6000803e3d6000fd5b505050506040513d601f19601f82011682018060405250810190610bfe91906132b7565b828281518110610c1157610c106131fb565b5b6020026020010181815250508080610c2890613259565b915050610b64565b508091505090565b610c40610e52565b600073ffffffffffffffffffffffffffffffffffffffff168173ffffffffffffffffffffffffffffffffffffffff161415610cb0576040517f08c379a0000000000000000000000000000000000000000000000000000000008152600401610ca790613367565b60405180910390fd5b610cb981610ed0565b50565b600a6020528060005260406000206000915054906101000a900473ffffffffffffffffffffffffffffffffffffffff1681565b610cf76126eb565b600c8481548110610d0b57610d0a6131fb565b5b90600052602060002090600b020160070160008481526020019081526020016000206000838152602001908152602001600020604051806101200160405290816000820160009054906101000a900460ff1660ff1660ff1681526020016000820160019054906101000a900460ff1660ff1660ff1681526020016000820160029054906101000a900460ff1660ff1660ff1681526020016000820160039054906101000a900460ff1660ff1660ff1681526020016000820160049054906101000a900460ff1660ff1660ff1681526020016000820160059054906101000a900460ff1660ff1660ff1681526020016000820160069054906101000a900460ff161515151581526020016000820160079054906101000a900460ff161515151581526020016000820160089054906101000a900460ff16151515158152505090509392505050565b610e5a611237565b73ffffffffffffffffffffffffffffffffffffffff16610e78610aa4565b73ffffffffffffffffffffffffffffffffffffffff1614610ece576040517f08c379a0000000000000000000000000000000000000000000000000000000008152600401610ec5906133d3565b60405180910390fd5b565b60008060009054906101000a900473ffffffffffffffffffffffffffffffffffffffff169050816000806101000a81548173ffffffffffffffffffffffffffffffffffffffff021916908373ffffffffffffffffffffffffffffffffffffffff1602179055508173ffffffffffffffffffffffffffffffffffffffff168173ffffffffffffffffffffffffffffffffffffffff167f8be0079c531659141344cd1fd0a4f28419497f9722a3daafe3b4186f6b6457e060405160405180910390a35050565b6000600c6001816001815401808255809150500390600052602060002090600b0201905060018160000160006101000a81548160ff021916908315150217905550600081600201819055506040518060800160405280600060ff168152602001600060ff168152602001600060ff168152602001600060ff168152508160030160008201518160000160006101000a81548160ff021916908360ff16021790555060208201518160000160016101000a81548160ff021916908360ff16021790555060408201518160000160026101000a81548160ff021916908360ff16021790555060608201518160000160036101000a81548160ff021916908360ff1602179055509050506110a78160040161123f565b8160050160006101000a81548160ff021916908360ff160217905550604051806060016040528060ff8016815260200160ff80168152602001600060048111156110f4576110f3612dc4565b5b8152508160080160008360090160009054906101000a900460ff1660ff16815260200190815260200160002060008201518160000160006101000a81548160ff021916908360ff16021790555060208201518160000160016101000a81548160ff021916908360ff16021790555060408201518160000160026101000a81548160ff0219169083600481111561118d5761118c612dc4565b5b021790555090505080600901600081819054906101000a900460ff16809291906111b6906133f3565b91906101000a81548160ff021916908360ff160217905550506112226040518060400160405280601981526020017f7468657265206172652074686973206d616e7920646f6f7273000000000000008152508260090160009054906101000a900460ff1660ff1661148c565b61122b81611528565b6112348161188d565b50565b600033905090565b600080600260009054906101000a900473ffffffffffffffffffffffffffffffffffffffff1673ffffffffffffffffffffffffffffffffffffffff166338fdf0bd6040518163ffffffff1660e01b8152600401602060405180830381865afa1580156112af573d6000803e3d6000fd5b505050506040513d601f19601f820116820180604052508101906112d391906132b7565b905060005b8181101561148257600260009054906101000a900473ffffffffffffffffffffffffffffffffffffffff1673ffffffffffffffffffffffffffffffffffffffff166382753ebe826040518263ffffffff1660e01b815260040161133b919061291a565b600060405180830381865afa158015611358573d6000803e3d6000fd5b505050506040513d6000823e3d601f19601f8201168201806040525081019061138191906136af565b84600083815260200190815260200160002060008201518160000190805190602001906113af929190612788565b5060208201518160010160006101000a81548160ff021916908360048111156113db576113da612dc4565b5b02179055506040820151816002015560608201518160030160006101000a81548160ff021916908360ff16021790555060808201518160030160016101000a81548160ff021916908360ff16021790555060a08201518160030160026101000a81548160ff02191690831515021790555060c08201518160030160036101000a81548160ff021916908315150217905550905050808061147a90613259565b9150506112d8565b5080915050919050565b61152482826040516024016114a292919061373c565b6040516020818303038152906040527f9710a9d0000000000000000000000000000000000000000000000000000000007bffffffffffffffffffffffffffffffffffffffffffffffffffffffff19166020820180517bffffffffffffffffffffffffffffffffffffffffffffffffffffffff83818316178352505050506124dd565b5050565b6000600b60018160018154018082558091505003906000526020600020019050600061155660006003612506565b60ff169050600061157660016002600354611571919061376c565b612506565b60ff16905060008060008414156115ad576000915082905060008560000160036101000a81548160ff021916908360ff1602179055505b60018414156115e95760016003546115c5919061376c565b915082905060008560000160026101000a81548160ff021916908360ff1602179055505b6002841415611625578291506001600354611604919061376c565b905060008560000160056101000a81548160ff021916908360ff1602179055505b6003841415611654578291506000905060008560000160046101000a81548160ff021916908360ff1602179055505b60405180604001604052808360ff1681526020018260ff1681525086600a0160008201518160000160006101000a81548160ff021916908360ff16021790555060208201518160000160016101000a81548160ff021916908360ff1602179055509050508486600701600084815260200190815260200160002060008381526020019081526020016000206000820160009054906101000a900460ff168160000160006101000a81548160ff021916908360ff1602179055506000820160019054906101000a900460ff168160000160016101000a81548160ff021916908360ff1602179055506000820160029054906101000a900460ff168160000160026101000a81548160ff021916908360ff1602179055506000820160039054906101000a900460ff168160000160036101000a81548160ff021916908360ff1602179055506000820160049054906101000a900460ff168160000160046101000a81548160ff021916908360ff1602179055506000820160059054906101000a900460ff168160000160056101000a81548160ff021916908360ff1602179055506000820160069054906101000a900460ff168160000160066101000a81548160ff0219169083151502179055506000820160079054906101000a900460ff168160000160076101000a81548160ff0219169083151502179055506000820160089054906101000a900460ff168160000160086101000a81548160ff0219169083151502179055509050506000935060009250505050505050565b60008060028360050160009054906101000a900460ff166118ae91906137a0565b60ff16905060006001905060006118c361280e565b60018187600a0160000160009054906101000a900460ff1660ff16600981106118ef576118ee6131fb565b5b602002015187600a0160000160019054906101000a900460ff1660ff166009811061191d5761191c6131fb565b5b60200201901515908115158152505061193461283c565b86600a016040518060400160405290816000820160009054906101000a900460ff1660ff1660ff1681526020016000820160019054906101000a900460ff1660ff1660ff16815250508187603281106119905761198f6131fb565b5b602002018190525085806119a390613259565b9650505b6000861180156119b75750600085115b156123e0576000816001886119cc919061376c565b603281106119dd576119dc6131fb565b5b6020020151905086806119ef906137d4565b975050818760328110611a0557611a046131fb565b5b60200201611a1161286a565b8152508580611a1f906137d4565b9650508480611a2d906137d4565b9550506001886007016000836000015160ff1681526020019081526020016000206000836020015160ff16815260200190815260200160002060000160006101000a81548160ff021916908360ff160217905550600183826000015160ff1660098110611a9d57611a9c6131fb565b5b6020020151826020015160ff1660098110611abb57611aba6131fb565b5b602002019015159081151581525050600454611ad960006063612506565b60ff161015611b33576001886007016000836000015160ff1681526020019081526020016000206000836020015160ff16815260200190815260200160002060000160086101000a81548160ff0219169083151502179055505b60007fffffffffffffffffffffffffffffffffffffffffffffffffffffffffffffffff90505b600181136123d95760007fffffffffffffffffffffffffffffffffffffffffffffffffffffffffffffffff90505b600181136123c557611b9881612597565b611ba183612597565b1415611bac576123b2565b600082846000015160000b611bc19190613808565b9050600082856020015160000b611bd89190613808565b90506001821280611be95750600181125b80611c0157506002600354611bfe919061376c565b82135b80611c1957506002600354611c16919061376c565b81135b15611c255750506123b2565b600060405180604001604052808460ff1681526020018360ff1681525090506000151588826000015160ff1660098110611c6257611c616131fb565b5b6020020151826020015160ff1660098110611c8057611c7f6131fb565b5b6020020151151514156123ae5760008a1480611cb957508860ff16600654611ca8919061376c565b611cb460006063612506565b60ff16105b156123a857600760009054906101000a900460ff1689611cd9919061389c565b985080878d60328110611cef57611cee6131fb565b5b60200201819052508b80611d0290613259565b9c50508980611d1090613259565b9a50506040518060600160405280611d386000600760019054906101000a900460ff16612506565b60ff168152602001611d5a6000600760019054906101000a900460ff16612506565b60ff16815260200160016004811115611d7657611d75612dc4565b5b8152508d60080160008f60090160009054906101000a900460ff1660ff16815260200190815260200160002060008201518160000160006101000a81548160ff021916908360ff16021790555060208201518160000160016101000a81548160ff021916908360ff16021790555060408201518160000160026101000a81548160ff02191690836004811115611e0f57611e0e612dc4565b5b02179055509050507fffffffffffffffffffffffffffffffffffffffffffffffffffffffffffffffff85148015611e465750600084145b8015611e99575060008d6007016000886000015160ff1681526020019081526020016000206000886020015160ff16815260200190815260200160002060000160029054906101000a900460ff1660ff16145b15611f65578c60090160009054906101000a900460ff168d6007016000886000015160ff1681526020019081526020016000206000886020015160ff16815260200190815260200160002060000160026101000a81548160ff021916908360ff1602179055508c60090160009054906101000a900460ff168d6007016000836000015160ff1681526020019081526020016000206000836020015160ff16815260200190815260200160002060000160036101000a81548160ff021916908360ff160217905550612369565b600185148015611f755750600084145b8015611fc8575060008d6007016000886000015160ff1681526020019081526020016000206000886020015160ff16815260200190815260200160002060000160039054906101000a900460ff1660ff16145b15612094578c60090160009054906101000a900460ff168d6007016000886000015160ff1681526020019081526020016000206000886020015160ff16815260200190815260200160002060000160036101000a81548160ff021916908360ff1602179055508c60090160009054906101000a900460ff168d6007016000836000015160ff1681526020019081526020016000206000836020015160ff16815260200190815260200160002060000160026101000a81548160ff021916908360ff160217905550612368565b6001841480156120a45750600085145b80156120f7575060008d6007016000886000015160ff1681526020019081526020016000206000886020015160ff16815260200190815260200160002060000160049054906101000a900460ff1660ff16145b156121c3578c60090160009054906101000a900460ff168d6007016000886000015160ff1681526020019081526020016000206000886020015160ff16815260200190815260200160002060000160046101000a81548160ff021916908360ff1602179055508c60090160009054906101000a900460ff168d6007016000836000015160ff1681526020019081526020016000206000836020015160ff16815260200190815260200160002060000160056101000a81548160ff021916908360ff160217905550612367565b7fffffffffffffffffffffffffffffffffffffffffffffffffffffffffffffffff841480156121f25750600085145b8015612245575060008d6007016000886000015160ff1681526020019081526020016000206000886020015160ff16815260200190815260200160002060000160059054906101000a900460ff1660ff16145b15612311578c60090160009054906101000a900460ff168d6007016000886000015160ff1681526020019081526020016000206000886020015160ff16815260200190815260200160002060000160056101000a81548160ff021916908360ff1602179055508c60090160009054906101000a900460ff168d6007016000836000015160ff1681526020019081526020016000206000836020015160ff16815260200190815260200160002060000160046101000a81548160ff021916908360ff160217905550612366565b61234f6040518060400160405280601481526020017f53484f554c444e275420424520484552452121210000000000000000000000008152506125b9565b61235885612652565b61236184612652565b600080fd5b5b5b5b8c600901600081819054906101000a900460ff168092919061238a906133f3565b91906101000a81548160ff021916908360ff160217905550506123ad565b600098505b5b5050505b80806123bd906138d3565b915050611b87565b5080806123d1906138d3565b915050611b59565b50506119a7565b61241f6040518060400160405280601081526020017f556e706c6163656420726f6f6d733a20000000000000000000000000000000008152508661148c565b60008514612462576040517f08c379a000000000000000000000000000000000000000000000000000000000815260040161245990613968565b60405180910390fd5b60085487600701600089600a0160000160009054906101000a900460ff1660ff168152602001908152602001600020600089600a0160000160019054906101000a900460ff1660ff16815260200190815260200160002060000160006101000a81548160ff021916908360ff16021790555050505050505050565b60008151905060006a636f6e736f6c652e6c6f679050602083016000808483855afa5050505050565b60006001600081548092919061251b90613259565b919050555060003360015442604051602001612539939291906139f1565b6040516020818303038152906040528051906020012060001c905060006001858561256491906137a0565b61256e919061389c565b90508460ff168160ff16836125839190613a5d565b61258d9190613a8e565b9250505092915050565b6000808212156125b057816125ab90613ae4565b6125b2565b815b9050919050565b61264f816040516024016125cd9190613b2d565b6040516020818303038152906040527f41304fac000000000000000000000000000000000000000000000000000000007bffffffffffffffffffffffffffffffffffffffffffffffffffffffff19166020820180517bffffffffffffffffffffffffffffffffffffffffffffffffffffffff83818316178352505050506124dd565b50565b6126e8816040516024016126669190613b5e565b6040516020818303038152906040527f4e0c1d1d000000000000000000000000000000000000000000000000000000007bffffffffffffffffffffffffffffffffffffffffffffffffffffffff19166020820180517bffffffffffffffffffffffffffffffffffffffffffffffffffffffff83818316178352505050506124dd565b50565b604051806101200160405280600060ff168152602001600060ff168152602001600060ff168152602001600060ff168152602001600060ff168152602001600060ff1681526020016000151581526020016000151581526020016000151581525090565b6040518060600160405280600060ff168152602001600060ff1681526020016000600481111561278257612781612dc4565b5b81525090565b82805461279490613ba8565b90600052602060002090601f0160209004810192826127b657600085556127fd565b82601f106127cf57805160ff19168380011785556127fd565b828001600101855582156127fd579182015b828111156127fc5782518255916020019190600101906127e1565b5b50905061280a919061288a565b5090565b6040518061012001604052806009905b6128266128a7565b81526020019060019003908161281e5790505090565b6040518061064001604052806032905b61285461286a565b81526020019060019003908161284c5790505090565b6040518060400160405280600060ff168152602001600060ff1681525090565b5b808211156128a357600081600090555060010161288b565b5090565b604051806101200160405280600990602082028036833780820191505090505090565b600060ff82169050919050565b6128e0816128ca565b82525050565b60006020820190506128fb60008301846128d7565b92915050565b6000819050919050565b61291481612901565b82525050565b600060208201905061292f600083018461290b565b92915050565b6000604051905090565b600080fd5b600080fd5b61295281612901565b811461295d57600080fd5b50565b60008135905061296f81612949565b92915050565b60006020828403121561298b5761298a61293f565b5b600061299984828501612960565b91505092915050565b60008115159050919050565b6129b7816129a2565b82525050565b6129c6816128ca565b82525050565b6080820160008201516129e260008501826129bd565b5060208201516129f560208501826129bd565b506040820151612a0860408501826129bd565b506060820151612a1b60608501826129bd565b50505050565b604082016000820151612a3760008501826129bd565b506020820151612a4a60208501826129bd565b50505050565b600061014082019050612a6660008301896129ae565b612a73602083018861290b565b612a8060408301876129cc565b612a8d60c08301866128d7565b612a9a60e08301856128d7565b612aa8610100830184612a21565b979650505050505050565b600081519050919050565b600082825260208201905092915050565b6000819050602082019050919050565b600081519050919050565b600082825260208201905092915050565b6000819050602082019050919050565b612b14816129a2565b82525050565b61012082016000820151612b3160008501826129bd565b506020820151612b4460208501826129bd565b506040820151612b5760408501826129bd565b506060820151612b6a60608501826129bd565b506080820151612b7d60808501826129bd565b5060a0820151612b9060a08501826129bd565b5060c0820151612ba360c0850182612b0b565b5060e0820151612bb660e0850182612b0b565b50610100820151612bcb610100850182612b0b565b50505050565b6000612bdd8383612b1a565b6101208301905092915050565b6000602082019050919050565b6000612c0282612adf565b612c0c8185612aea565b9350612c1783612afb565b8060005b83811015612c48578151612c2f8882612bd1565b9750612c3a83612bea565b925050600181019050612c1b565b5085935050505092915050565b6000612c618383612bf7565b905092915050565b6000602082019050919050565b6000612c8182612ab3565b612c8b8185612abe565b935083602082028501612c9d85612acf565b8060005b85811015612cd95784840389528151612cba8582612c55565b9450612cc583612c69565b925060208a01995050600181019050612ca1565b50829750879550505050505092915050565b60006020820190508181036000830152612d058184612c76565b905092915050565b600073ffffffffffffffffffffffffffffffffffffffff82169050919050565b6000612d3882612d0d565b9050919050565b612d4881612d2d565b8114612d5357600080fd5b50565b600081359050612d6581612d3f565b92915050565b600060208284031215612d8157612d8061293f565b5b6000612d8f84828501612d56565b91505092915050565b600081519050919050565b600082825260208201905092915050565b6000819050602082019050919050565b7f4e487b7100000000000000000000000000000000000000000000000000000000600052602160045260246000fd5b60058110612e0457612e03612dc4565b5b50565b6000819050612e1582612df3565b919050565b6000612e2582612e07565b9050919050565b612e3581612e1a565b82525050565b606082016000820151612e5160008501826129bd565b506020820151612e6460208501826129bd565b506040820151612e776040850182612e2c565b50505050565b6000612e898383612e3b565b60608301905092915050565b6000602082019050919050565b6000612ead82612d98565b612eb78185612da3565b9350612ec283612db4565b8060005b83811015612ef3578151612eda8882612e7d565b9750612ee583612e95565b925050600181019050612ec6565b5085935050505092915050565b60006020820190508181036000830152612f1a8184612ea2565b905092915050565b612f2b81612d2d565b82525050565b6000602082019050612f466000830184612f22565b92915050565b6000819050919050565b6000612f71612f6c612f6784612d0d565b612f4c565b612d0d565b9050919050565b6000612f8382612f56565b9050919050565b6000612f9582612f78565b9050919050565b612fa581612f8a565b82525050565b6000602082019050612fc06000830184612f9c565b92915050565b600081519050919050565b600082825260208201905092915050565b6000819050602082019050919050565b612ffb81612901565b82525050565b600061300d8383612ff2565b60208301905092915050565b6000602082019050919050565b600061303182612fc6565b61303b8185612fd1565b935061304683612fe2565b8060005b8381101561307757815161305e8882613001565b975061306983613019565b92505060018101905061304a565b5085935050505092915050565b6000602082019050818103600083015261309e8184613026565b905092915050565b6000806000606084860312156130bf576130be61293f565b5b60006130cd86828701612960565b93505060206130de86828701612960565b92505060406130ef86828701612960565b9150509250925092565b6101208201600082015161311060008501826129bd565b50602082015161312360208501826129bd565b50604082015161313660408501826129bd565b50606082015161314960608501826129bd565b50608082015161315c60808501826129bd565b5060a082015161316f60a08501826129bd565b5060c082015161318260c0850182612b0b565b5060e082015161319560e0850182612b0b565b506101008201516131aa610100850182612b0b565b50505050565b6000610120820190506131c660008301846130f9565b92915050565b7f4e487b7100000000000000000000000000000000000000000000000000000000600052604160045260246000fd5b7f4e487b7100000000000000000000000000000000000000000000000000000000600052603260045260246000fd5b7f4e487b7100000000000000000000000000000000000000000000000000000000600052601160045260246000fd5b600061326482612901565b91507fffffffffffffffffffffffffffffffffffffffffffffffffffffffffffffffff8214156132975761329661322a565b5b600182019050919050565b6000815190506132b181612949565b92915050565b6000602082840312156132cd576132cc61293f565b5b60006132db848285016132a2565b91505092915050565b600082825260208201905092915050565b7f4f776e61626c653a206e6577206f776e657220697320746865207a65726f206160008201527f6464726573730000000000000000000000000000000000000000000000000000602082015250565b60006133516026836132e4565b915061335c826132f5565b604082019050919050565b6000602082019050818103600083015261338081613344565b9050919050565b7f4f776e61626c653a2063616c6c6572206973206e6f7420746865206f776e6572600082015250565b60006133bd6020836132e4565b91506133c882613387565b602082019050919050565b600060208201905081810360008301526133ec816133b0565b9050919050565b60006133fe826128ca565b915060ff8214156134125761341161322a565b5b600182019050919050565b600080fd5b6000601f19601f8301169050919050565b61343c82613422565b810181811067ffffffffffffffff8211171561345b5761345a6131cc565b5b80604052505050565b600061346e612935565b905061347a8282613433565b919050565b600080fd5b600080fd5b600080fd5b600067ffffffffffffffff8211156134a9576134a86131cc565b5b6134b282613422565b9050602081019050919050565b60005b838110156134dd5780820151818401526020810190506134c2565b838111156134ec576000848401525b50505050565b60006135056135008461348e565b613464565b90508281526020810184848401111561352157613520613489565b5b61352c8482856134bf565b509392505050565b600082601f83011261354957613548613484565b5b81516135598482602086016134f2565b91505092915050565b6005811061356f57600080fd5b50565b60008151905061358181613562565b92915050565b613590816128ca565b811461359b57600080fd5b50565b6000815190506135ad81613587565b92915050565b6135bc816129a2565b81146135c757600080fd5b50565b6000815190506135d9816135b3565b92915050565b600060e082840312156135f5576135f461341d565b5b6135ff60e0613464565b9050600082015167ffffffffffffffff81111561361f5761361e61347f565b5b61362b84828501613534565b600083015250602061363f84828501613572565b6020830152506040613653848285016132a2565b60408301525060606136678482850161359e565b606083015250608061367b8482850161359e565b60808301525060a061368f848285016135ca565b60a08301525060c06136a3848285016135ca565b60c08301525092915050565b6000602082840312156136c5576136c461293f565b5b600082015167ffffffffffffffff8111156136e3576136e2612944565b5b6136ef848285016135df565b91505092915050565b600081519050919050565b600061370e826136f8565b61371881856132e4565b93506137288185602086016134bf565b61373181613422565b840191505092915050565b600060408201905081810360008301526137568185613703565b9050613765602083018461290b565b9392505050565b600061377782612901565b915061378283612901565b9250828210156137955761379461322a565b5b828203905092915050565b60006137ab826128ca565b91506137b6836128ca565b9250828210156137c9576137c861322a565b5b828203905092915050565b60006137df82612901565b915060008214156137f3576137f261322a565b5b600182039050919050565b6000819050919050565b6000613813826137fe565b915061381e836137fe565b9250817f7fffffffffffffffffffffffffffffffffffffffffffffffffffffffffffffff038313600083121516156138595761385861322a565b5b817f80000000000000000000000000000000000000000000000000000000000000000383126000831216156138915761389061322a565b5b828201905092915050565b60006138a7826128ca565b91506138b2836128ca565b92508260ff038211156138c8576138c761322a565b5b828201905092915050565b60006138de826137fe565b91507f7fffffffffffffffffffffffffffffffffffffffffffffffffffffffffffffff8214156139115761391061322a565b5b600182019050919050565b7f4d61702067656e65726174696f6e2062726f6b65212121000000000000000000600082015250565b60006139526017836132e4565b915061395d8261391c565b602082019050919050565b6000602082019050818103600083015261398181613945565b9050919050565b60008160601b9050919050565b60006139a082613988565b9050919050565b60006139b282613995565b9050919050565b6139ca6139c582612d2d565b6139a7565b82525050565b6000819050919050565b6139eb6139e682612901565b6139d0565b82525050565b60006139fd82866139b9565b601482019150613a0d82856139da565b602082019150613a1d82846139da565b602082019150819050949350505050565b7f4e487b7100000000000000000000000000000000000000000000000000000000600052601260045260246000fd5b6000613a6882612901565b9150613a7383612901565b925082613a8357613a82613a2e565b5b828206905092915050565b6000613a9982612901565b9150613aa483612901565b9250827fffffffffffffffffffffffffffffffffffffffffffffffffffffffffffffffff03821115613ad957613ad861322a565b5b828201905092915050565b6000613aef826137fe565b91507f8000000000000000000000000000000000000000000000000000000000000000821415613b2257613b2161322a565b5b816000039050919050565b60006020820190508181036000830152613b478184613703565b905092915050565b613b58816137fe565b82525050565b6000602082019050613b736000830184613b4f565b92915050565b7f4e487b7100000000000000000000000000000000000000000000000000000000600052602260045260246000fd5b60006002820490506001821680613bc057607f821691505b60208210811415613bd457613bd3613b79565b5b5091905056fea2646970667358221220f7586d3485f8ef39d51fc82179500aa4b681451f924fd34768a7bfb4b711b84464736f6c634300080c0033",
  "devdoc": {
    "kind": "dev",
    "methods": {
      "owner()": {
        "details": "Returns the address of the current owner."
      },
      "renounceOwnership()": {
        "details": "Leaves the contract without owner. It will not be possible to call `onlyOwner` functions anymore. Can only be called by the current owner. NOTE: Renouncing ownership will leave the contract without an owner, thereby removing any functionality that is only available to the owner."
      },
      "transferOwnership(address)": {
        "details": "Transfers ownership of the contract to a new account (`newOwner`). Can only be called by the current owner."
      }
    },
    "version": 1
  },
  "userdoc": {
    "kind": "user",
    "methods": {},
    "version": 1
  },
  "storageLayout": {
    "storage": [
      {
        "astId": 7,
        "contract": "contracts/BCGames.sol:BCGames",
        "label": "_owner",
        "offset": 0,
        "slot": "0",
        "type": "t_address"
      },
      {
        "astId": 3949,
        "contract": "contracts/BCGames.sol:BCGames",
        "label": "TODO_randomSeed",
        "offset": 0,
        "slot": "1",
        "type": "t_uint256"
      },
      {
        "astId": 2676,
        "contract": "contracts/BCGames.sol:BCGames",
        "label": "roomTileContract",
        "offset": 0,
        "slot": "2",
        "type": "t_contract(RoomTileInterface)2669"
      },
      {
        "astId": 2693,
        "contract": "contracts/BCGames.sol:BCGames",
        "label": "BOARD_SIZE",
        "offset": 0,
        "slot": "3",
        "type": "t_uint256"
      },
      {
        "astId": 2696,
        "contract": "contracts/BCGames.sol:BCGames",
        "label": "VENT_CHANCE",
        "offset": 0,
        "slot": "4",
        "type": "t_uint256"
      },
      {
        "astId": 2699,
        "contract": "contracts/BCGames.sol:BCGames",
        "label": "WINDOW_CHANCE",
        "offset": 0,
        "slot": "5",
        "type": "t_uint256"
      },
      {
        "astId": 2702,
        "contract": "contracts/BCGames.sol:BCGames",
        "label": "DOOR_CHANCE",
        "offset": 0,
        "slot": "6",
        "type": "t_uint256"
      },
      {
        "astId": 2705,
        "contract": "contracts/BCGames.sol:BCGames",
        "label": "DOOR_MOD_STEP",
        "offset": 0,
        "slot": "7",
        "type": "t_uint8"
      },
      {
        "astId": 2708,
        "contract": "contracts/BCGames.sol:BCGames",
        "label": "MAX_DOOR_STR",
        "offset": 1,
        "slot": "7",
        "type": "t_uint8"
      },
      {
        "astId": 2711,
        "contract": "contracts/BCGames.sol:BCGames",
        "label": "START_ROOM_ID",
        "offset": 0,
        "slot": "8",
        "type": "t_uint256"
      },
      {
        "astId": 2717,
        "contract": "contracts/BCGames.sol:BCGames",
        "label": "START_ROOM_ID_uint8",
        "offset": 0,
        "slot": "9",
        "type": "t_uint8"
      },
      {
        "astId": 2721,
        "contract": "contracts/BCGames.sol:BCGames",
        "label": "itemToPlayer",
        "offset": 0,
        "slot": "10",
        "type": "t_mapping(t_uint256,t_address)"
      },
      {
        "astId": 2785,
        "contract": "contracts/BCGames.sol:BCGames",
        "label": "gameTiles",
        "offset": 0,
        "slot": "11",
        "type": "t_array(t_struct(GameTile)2781_storage)dyn_storage"
      },
      {
        "astId": 2838,
        "contract": "contracts/BCGames.sol:BCGames",
        "label": "games",
        "offset": 0,
        "slot": "12",
        "type": "t_array(t_struct(Game)2834_storage)dyn_storage"
      }
    ],
    "types": {
      "t_address": {
        "encoding": "inplace",
        "label": "address",
        "numberOfBytes": "20"
      },
      "t_array(t_struct(Game)2834_storage)dyn_storage": {
        "base": "t_struct(Game)2834_storage",
        "encoding": "dynamic_array",
        "label": "struct BCGames.Game[]",
        "numberOfBytes": "32"
      },
      "t_array(t_struct(GameTile)2781_storage)dyn_storage": {
        "base": "t_struct(GameTile)2781_storage",
        "encoding": "dynamic_array",
        "label": "struct BCGames.GameTile[]",
        "numberOfBytes": "32"
      },
      "t_array(t_uint8)dyn_storage": {
        "base": "t_uint8",
        "encoding": "dynamic_array",
        "label": "uint8[]",
        "numberOfBytes": "32"
      },
      "t_bool": {
        "encoding": "inplace",
        "label": "bool",
        "numberOfBytes": "1"
      },
      "t_contract(RoomTileInterface)2669": {
        "encoding": "inplace",
        "label": "contract RoomTileInterface",
        "numberOfBytes": "20"
      },
      "t_enum(BCEventType)4035": {
        "encoding": "inplace",
        "label": "enum RoomTiles.BCEventType",
        "numberOfBytes": "1"
      },
      "t_enum(DoorStatus)2729": {
        "encoding": "inplace",
        "label": "enum BCGames.DoorStatus",
        "numberOfBytes": "1"
      },
      "t_mapping(t_uint256,t_address)": {
        "encoding": "mapping",
        "key": "t_uint256",
        "label": "mapping(uint256 => address)",
        "numberOfBytes": "32",
        "value": "t_address"
      },
      "t_mapping(t_uint256,t_bool)": {
        "encoding": "mapping",
        "key": "t_uint256",
        "label": "mapping(uint256 => bool)",
        "numberOfBytes": "32",
        "value": "t_bool"
      },
      "t_mapping(t_uint256,t_mapping(t_uint256,t_struct(GameTile)2781_storage))": {
        "encoding": "mapping",
        "key": "t_uint256",
        "label": "mapping(uint256 => mapping(uint256 => struct BCGames.GameTile))",
        "numberOfBytes": "32",
        "value": "t_mapping(t_uint256,t_struct(GameTile)2781_storage)"
      },
      "t_mapping(t_uint256,t_struct(Door)2793_storage)": {
        "encoding": "mapping",
        "key": "t_uint256",
        "label": "mapping(uint256 => struct BCGames.Door)",
        "numberOfBytes": "32",
        "value": "t_struct(Door)2793_storage"
      },
      "t_mapping(t_uint256,t_struct(GameTile)2781_storage)": {
        "encoding": "mapping",
        "key": "t_uint256",
        "label": "mapping(uint256 => struct BCGames.GameTile)",
        "numberOfBytes": "32",
        "value": "t_struct(GameTile)2781_storage"
      },
      "t_mapping(t_uint256,t_struct(Player)2748_storage)": {
        "encoding": "mapping",
        "key": "t_uint256",
        "label": "mapping(uint256 => struct BCGames.Player)",
        "numberOfBytes": "32",
        "value": "t_struct(Player)2748_storage"
      },
      "t_mapping(t_uint256,t_struct(RoomTile)4060_storage)": {
        "encoding": "mapping",
        "key": "t_uint256",
        "label": "mapping(uint256 => struct RoomTiles.RoomTile)",
        "numberOfBytes": "32",
        "value": "t_struct(RoomTile)4060_storage"
      },
      "t_string_storage": {
        "encoding": "bytes",
        "label": "string",
        "numberOfBytes": "32"
      },
      "t_struct(Door)2793_storage": {
        "encoding": "inplace",
        "label": "struct BCGames.Door",
        "members": [
          {
            "astId": 2787,
            "contract": "contracts/BCGames.sol:BCGames",
            "label": "vsBreach",
            "offset": 0,
            "slot": "0",
            "type": "t_uint8"
          },
          {
            "astId": 2789,
            "contract": "contracts/BCGames.sol:BCGames",
            "label": "vsHack",
            "offset": 1,
            "slot": "0",
            "type": "t_uint8"
          },
          {
            "astId": 2792,
            "contract": "contracts/BCGames.sol:BCGames",
            "label": "status",
            "offset": 2,
            "slot": "0",
            "type": "t_enum(DoorStatus)2729"
          }
        ],
        "numberOfBytes": "32"
      },
      "t_struct(EventTracker)2757_storage": {
        "encoding": "inplace",
        "label": "struct BCGames.EventTracker",
        "members": [
          {
            "astId": 2750,
            "contract": "contracts/BCGames.sol:BCGames",
            "label": "bugEvents",
            "offset": 0,
            "slot": "0",
            "type": "t_uint8"
          },
          {
            "astId": 2752,
            "contract": "contracts/BCGames.sol:BCGames",
            "label": "mysteryEvents",
            "offset": 1,
            "slot": "0",
            "type": "t_uint8"
          },
          {
            "astId": 2754,
            "contract": "contracts/BCGames.sol:BCGames",
            "label": "scavEvents",
            "offset": 2,
            "slot": "0",
            "type": "t_uint8"
          },
          {
            "astId": 2756,
            "contract": "contracts/BCGames.sol:BCGames",
            "label": "shipEvents",
            "offset": 3,
            "slot": "0",
            "type": "t_uint8"
          }
        ],
        "numberOfBytes": "32"
      },
      "t_struct(Game)2834_storage": {
        "encoding": "inplace",
        "label": "struct BCGames.Game",
        "members": [
          {
            "astId": 2795,
            "contract": "contracts/BCGames.sol:BCGames",
            "label": "active",
            "offset": 0,
            "slot": "0",
            "type": "t_bool"
          },
          {
            "astId": 2800,
            "contract": "contracts/BCGames.sol:BCGames",
            "label": "players",
            "offset": 0,
            "slot": "1",
            "type": "t_mapping(t_uint256,t_struct(Player)2748_storage)"
          },
          {
            "astId": 2802,
            "contract": "contracts/BCGames.sol:BCGames",
            "label": "turnsTaken",
            "offset": 0,
            "slot": "2",
            "type": "t_uint256"
          },
          {
            "astId": 2805,
            "contract": "contracts/BCGames.sol:BCGames",
            "label": "eventTracker",
            "offset": 0,
            "slot": "3",
            "type": "t_struct(EventTracker)2757_storage"
          },
          {
            "astId": 2810,
            "contract": "contracts/BCGames.sol:BCGames",
            "label": "roomList",
            "offset": 0,
            "slot": "4",
            "type": "t_mapping(t_uint256,t_struct(RoomTile)4060_storage)"
          },
          {
            "astId": 2812,
            "contract": "contracts/BCGames.sol:BCGames",
            "label": "numRooms",
            "offset": 0,
            "slot": "5",
            "type": "t_uint8"
          },
          {
            "astId": 2816,
            "contract": "contracts/BCGames.sol:BCGames",
            "label": "usedRooms",
            "offset": 0,
            "slot": "6",
            "type": "t_mapping(t_uint256,t_bool)"
          },
          {
            "astId": 2823,
            "contract": "contracts/BCGames.sol:BCGames",
            "label": "board",
            "offset": 0,
            "slot": "7",
            "type": "t_mapping(t_uint256,t_mapping(t_uint256,t_struct(GameTile)2781_storage))"
          },
          {
            "astId": 2828,
            "contract": "contracts/BCGames.sol:BCGames",
            "label": "doors",
            "offset": 0,
            "slot": "8",
            "type": "t_mapping(t_uint256,t_struct(Door)2793_storage)"
          },
          {
            "astId": 2830,
            "contract": "contracts/BCGames.sol:BCGames",
            "label": "numDoors",
            "offset": 0,
            "slot": "9",
            "type": "t_uint8"
          },
          {
            "astId": 2833,
            "contract": "contracts/BCGames.sol:BCGames",
            "label": "startPosition",
            "offset": 0,
            "slot": "10",
            "type": "t_struct(Position)2762_storage"
          }
        ],
        "numberOfBytes": "352"
      },
      "t_struct(GameTile)2781_storage": {
        "encoding": "inplace",
        "label": "struct BCGames.GameTile",
        "members": [
          {
            "astId": 2764,
            "contract": "contracts/BCGames.sol:BCGames",
            "label": "roomId",
            "offset": 0,
            "slot": "0",
            "type": "t_uint8"
          },
          {
            "astId": 2766,
            "contract": "contracts/BCGames.sol:BCGames",
            "label": "parentId",
            "offset": 1,
            "slot": "0",
            "type": "t_uint8"
          },
          {
            "astId": 2768,
            "contract": "contracts/BCGames.sol:BCGames",
            "label": "nDoor",
            "offset": 2,
            "slot": "0",
            "type": "t_uint8"
          },
          {
            "astId": 2770,
            "contract": "contracts/BCGames.sol:BCGames",
            "label": "sDoor",
            "offset": 3,
            "slot": "0",
            "type": "t_uint8"
          },
          {
            "astId": 2772,
            "contract": "contracts/BCGames.sol:BCGames",
            "label": "eDoor",
            "offset": 4,
            "slot": "0",
            "type": "t_uint8"
          },
          {
            "astId": 2774,
            "contract": "contracts/BCGames.sol:BCGames",
            "label": "wDoor",
            "offset": 5,
            "slot": "0",
            "type": "t_uint8"
          },
          {
            "astId": 2776,
            "contract": "contracts/BCGames.sol:BCGames",
            "label": "explored",
            "offset": 6,
            "slot": "0",
            "type": "t_bool"
          },
          {
            "astId": 2778,
            "contract": "contracts/BCGames.sol:BCGames",
            "label": "looted",
            "offset": 7,
            "slot": "0",
            "type": "t_bool"
          },
          {
            "astId": 2780,
            "contract": "contracts/BCGames.sol:BCGames",
            "label": "hasVent",
            "offset": 8,
            "slot": "0",
            "type": "t_bool"
          }
        ],
        "numberOfBytes": "32"
      },
      "t_struct(Player)2748_storage": {
        "encoding": "inplace",
        "label": "struct BCGames.Player",
        "members": [
          {
            "astId": 2731,
            "contract": "contracts/BCGames.sol:BCGames",
            "label": "playerAddress",
            "offset": 0,
            "slot": "0",
            "type": "t_address"
          },
          {
            "astId": 2733,
            "contract": "contracts/BCGames.sol:BCGames",
            "label": "characterId",
            "offset": 0,
            "slot": "1",
            "type": "t_uint256"
          },
          {
            "astId": 2735,
            "contract": "contracts/BCGames.sol:BCGames",
            "label": "healthDmgTaken",
            "offset": 0,
            "slot": "2",
            "type": "t_uint8"
          },
          {
            "astId": 2737,
            "contract": "contracts/BCGames.sol:BCGames",
            "label": "armorDmgTaken",
            "offset": 1,
            "slot": "2",
            "type": "t_uint8"
          },
          {
            "astId": 2739,
            "contract": "contracts/BCGames.sol:BCGames",
            "label": "data",
            "offset": 2,
            "slot": "2",
            "type": "t_uint8"
          },
          {
            "astId": 2742,
            "contract": "contracts/BCGames.sol:BCGames",
            "label": "currentEffects",
            "offset": 0,
            "slot": "3",
            "type": "t_array(t_uint8)dyn_storage"
          },
          {
            "astId": 2745,
            "contract": "contracts/BCGames.sol:BCGames",
            "label": "inventoryIDs",
            "offset": 0,
            "slot": "4",
            "type": "t_array(t_uint8)dyn_storage"
          },
          {
            "astId": 2747,
            "contract": "contracts/BCGames.sol:BCGames",
            "label": "canHarmOthers",
            "offset": 0,
            "slot": "5",
            "type": "t_bool"
          }
        ],
        "numberOfBytes": "192"
      },
      "t_struct(Position)2762_storage": {
        "encoding": "inplace",
        "label": "struct BCGames.Position",
        "members": [
          {
            "astId": 2759,
            "contract": "contracts/BCGames.sol:BCGames",
            "label": "row",
            "offset": 0,
            "slot": "0",
            "type": "t_uint8"
          },
          {
            "astId": 2761,
            "contract": "contracts/BCGames.sol:BCGames",
            "label": "col",
            "offset": 1,
            "slot": "0",
            "type": "t_uint8"
          }
        ],
        "numberOfBytes": "32"
      },
      "t_struct(RoomTile)4060_storage": {
        "encoding": "inplace",
        "label": "struct RoomTiles.RoomTile",
        "members": [
          {
            "astId": 4046,
            "contract": "contracts/BCGames.sol:BCGames",
            "label": "name",
            "offset": 0,
            "slot": "0",
            "type": "t_string_storage"
          },
          {
            "astId": 4049,
            "contract": "contracts/BCGames.sol:BCGames",
            "label": "eventType",
            "offset": 0,
            "slot": "1",
            "type": "t_enum(BCEventType)4035"
          },
          {
            "astId": 4051,
            "contract": "contracts/BCGames.sol:BCGames",
            "label": "eventNum",
            "offset": 0,
            "slot": "2",
            "type": "t_uint256"
          },
          {
            "astId": 4053,
            "contract": "contracts/BCGames.sol:BCGames",
            "label": "numItems",
            "offset": 0,
            "slot": "3",
            "type": "t_uint8"
          },
          {
            "astId": 4055,
            "contract": "contracts/BCGames.sol:BCGames",
            "label": "numData",
            "offset": 1,
            "slot": "3",
            "type": "t_uint8"
          },
          {
            "astId": 4057,
            "contract": "contracts/BCGames.sol:BCGames",
            "label": "hasHazard",
            "offset": 2,
            "slot": "3",
            "type": "t_bool"
          },
          {
            "astId": 4059,
            "contract": "contracts/BCGames.sol:BCGames",
            "label": "sigDetected",
            "offset": 3,
            "slot": "3",
            "type": "t_bool"
          }
        ],
        "numberOfBytes": "128"
      },
      "t_uint256": {
        "encoding": "inplace",
        "label": "uint256",
        "numberOfBytes": "32"
      },
      "t_uint8": {
        "encoding": "inplace",
        "label": "uint8",
        "numberOfBytes": "1"
      }
    }
  }
}